# PNP0C50:00 093A:0255
# 0x05, 0x01,                    // Usage Page (Generic Desktop)        0
# 0x09, 0x02,                    // Usage (Mouse)                       2
# 0xa1, 0x01,                    // Collection (Application)            4
# 0x85, 0x02,                    //  Report ID (2)                      6
# 0x09, 0x01,                    //  Usage (Pointer)                    8
# 0xa1, 0x00,                    //  Collection (Physical)              10
# 0x05, 0x09,                    //   Usage Page (Button)               12
# 0x19, 0x01,                    //   Usage Minimum (1)                 14
# 0x29, 0x02,                    //   Usage Maximum (2)                 16
# 0x15, 0x00,                    //   Logical Minimum (0)               18
# 0x25, 0x01,                    //   Logical Maximum (1)               20
# 0x75, 0x01,                    //   Report Size (1)                   22
# 0x95, 0x02,                    //   Report Count (2)                  24
# 0x81, 0x02,                    //   Input (Data,Var,Abs)              26
# 0x95, 0x06,                    //   Report Count (6)                  28
# 0x81, 0x03,                    //   Input (Cnst,Var,Abs)              30
# 0x05, 0x01,                    //   Usage Page (Generic Desktop)      32
# 0x09, 0x30,                    //   Usage (X)                         34
# 0x09, 0x31,                    //   Usage (Y)                         36
# 0x09, 0x38,                    //   Usage (Wheel)                     38
# 0x15, 0x81,                    //   Logical Minimum (-127)            40
# 0x25, 0x7f,                    //   Logical Maximum (127)             42
# 0x75, 0x08,                    //   Report Size (8)                   44
# 0x95, 0x03,                    //   Report Count (3)                  46
# 0x81, 0x06,                    //   Input (Data,Var,Rel)              48
# 0x05, 0x0c,                    //   Usage Page (Consumer Devices)     50
# 0x0a, 0x38, 0x02,              //   Usage (AC Pan)                    52
# 0x75, 0x08,                    //   Report Size (8)                   55
# 0x95, 0x01,                    //   Report Count (1)                  57
# 0x81, 0x06,                    //   Input (Data,Var,Rel)              59
# 0x75, 0x08,                    //   Report Size (8)                   61
# 0x95, 0x03,                    //   Report Count (3)                  63
# 0x81, 0x03,                    //   Input (Cnst,Var,Abs)              65
# 0xc0,                          //  End Collection                     67
# 0xc0,                          // End Collection                      68
# 0x05, 0x0d,                    // Usage Page (Digitizers)             69
# 0x09, 0x05,                    // Usage (Touch Pad)                   71
# 0xa1, 0x01,                    // Collection (Application)            73
# 0x85, 0x01,                    //  Report ID (1)                      75
# 0x05, 0x0d,                    //  Usage Page (Digitizers)            77
# 0x09, 0x22,                    //  Usage (Finger)                     79
# 0xa1, 0x02,                    //  Collection (Logical)               81
# 0x09, 0x47,                    //   Usage (Confidence)                83
# 0x09, 0x42,                    //   Usage (Tip Switch)                85
# 0x15, 0x00,                    //   Logical Minimum (0)               87
# 0x25, 0x01,                    //   Logical Maximum (1)               89
# 0x75, 0x01,                    //   Report Size (1)                   91
# 0x95, 0x02,                    //   Report Count (2)                  93
# 0x81, 0x02,                    //   Input (Data,Var,Abs)              95
# 0x95, 0x02,                    //   Report Count (2)                  97
# 0x81, 0x03,                    //   Input (Cnst,Var,Abs)              99
# 0x09, 0x51,                    //   Usage (Contact Id)                101
# 0x25, 0x0f,                    //   Logical Maximum (15)              103
# 0x75, 0x04,                    //   Report Size (4)                   105
# 0x95, 0x01,                    //   Report Count (1)                  107
# 0x81, 0x02,                    //   Input (Data,Var,Abs)              109
# 0x05, 0x01,                    //   Usage Page (Generic Desktop)      111
# 0x09, 0x30,                    //   Usage (X)                         113
# 0x75, 0x10,                    //   Report Size (16)                  115
# 0x55, 0x0e,                    //   Unit Exponent (-2)                117
# 0x65, 0x11,                    //   Unit (SILinear: cm)               119
# 0x35, 0x00,                    //   Physical Minimum (0)              121
# 0x46, 0x7a, 0x03,              //   Physical Maximum (890)            123
# 0x27, 0xff, 0x09, 0x00, 0x00,  //   Logical Maximum (2559)            126
# 0x81, 0x02,                    //   Input (Data,Var,Abs)              131
# 0x09, 0x31,                    //   Usage (Y)                         133
# 0x46, 0x4e, 0x02,              //   Physical Maximum (590)            135
# 0x27, 0xff, 0x05, 0x00, 0x00,  //   Logical Maximum (1535)            138
# 0x81, 0x02,                    //   Input (Data,Var,Abs)              143
# 0xc0,                          //  End Collection                     145
# 0x05, 0x0d,                    //  Usage Page (Digitizers)            146
# 0x09, 0x22,                    //  Usage (Finger)                     148
# 0xa1, 0x02,                    //  Collection (Logical)               150
# 0x09, 0x47,                    //   Usage (Confidence)                152
# 0x09, 0x42,                    //   Usage (Tip Switch)                154
# 0x15, 0x00,                    //   Logical Minimum (0)               156
# 0x25, 0x01,                    //   Logical Maximum (1)               158
# 0x75, 0x01,                    //   Report Size (1)                   160
# 0x95, 0x02,                    //   Report Count (2)                  162
# 0x81, 0x02,                    //   Input (Data,Var,Abs)              164
# 0x95, 0x02,                    //   Report Count (2)                  166
# 0x81, 0x03,                    //   Input (Cnst,Var,Abs)              168
# 0x09, 0x51,                    //   Usage (Contact Id)                170
# 0x25, 0x0f,                    //   Logical Maximum (15)              172
# 0x75, 0x04,                    //   Report Size (4)                   174
# 0x95, 0x01,                    //   Report Count (1)                  176
# 0x81, 0x02,                    //   Input (Data,Var,Abs)              178
# 0x05, 0x01,                    //   Usage Page (Generic Desktop)      180
# 0x09, 0x30,                    //   Usage (X)                         182
# 0x75, 0x10,                    //   Report Size (16)                  184
# 0x55, 0x0e,                    //   Unit Exponent (-2)                186
# 0x65, 0x11,                    //   Unit (SILinear: cm)               188
# 0x35, 0x00,                    //   Physical Minimum (0)              190
# 0x46, 0x7a, 0x03,              //   Physical Maximum (890)            192
# 0x27, 0xff, 0x09, 0x00, 0x00,  //   Logical Maximum (2559)            195
# 0x81, 0x02,                    //   Input (Data,Var,Abs)              200
# 0x09, 0x31,                    //   Usage (Y)                         202
# 0x46, 0x4e, 0x02,              //   Physical Maximum (590)            204
# 0x27, 0xff, 0x05, 0x00, 0x00,  //   Logical Maximum (1535)            207
# 0x81, 0x02,                    //   Input (Data,Var,Abs)              212
# 0xc0,                          //  End Collection                     214
# 0x05, 0x0d,                    //  Usage Page (Digitizers)            215
# 0x09, 0x22,                    //  Usage (Finger)                     217
# 0xa1, 0x02,                    //  Collection (Logical)               219
# 0x09, 0x47,                    //   Usage (Confidence)                221
# 0x09, 0x42,                    //   Usage (Tip Switch)                223
# 0x15, 0x00,                    //   Logical Minimum (0)               225
# 0x25, 0x01,                    //   Logical Maximum (1)               227
# 0x75, 0x01,                    //   Report Size (1)                   229
# 0x95, 0x02,                    //   Report Count (2)                  231
# 0x81, 0x02,                    //   Input (Data,Var,Abs)              233
# 0x95, 0x02,                    //   Report Count (2)                  235
# 0x81, 0x03,                    //   Input (Cnst,Var,Abs)              237
# 0x09, 0x51,                    //   Usage (Contact Id)                239
# 0x25, 0x0f,                    //   Logical Maximum (15)              241
# 0x75, 0x04,                    //   Report Size (4)                   243
# 0x95, 0x01,                    //   Report Count (1)                  245
# 0x81, 0x02,                    //   Input (Data,Var,Abs)              247
# 0x05, 0x01,                    //   Usage Page (Generic Desktop)      249
# 0x09, 0x30,                    //   Usage (X)                         251
# 0x75, 0x10,                    //   Report Size (16)                  253
# 0x55, 0x0e,                    //   Unit Exponent (-2)                255
# 0x65, 0x11,                    //   Unit (SILinear: cm)               257
# 0x35, 0x00,                    //   Physical Minimum (0)              259
# 0x46, 0x7a, 0x03,              //   Physical Maximum (890)            261
# 0x27, 0xff, 0x09, 0x00, 0x00,  //   Logical Maximum (2559)            264
# 0x81, 0x02,                    //   Input (Data,Var,Abs)              269
# 0x09, 0x31,                    //   Usage (Y)                         271
# 0x46, 0x4e, 0x02,              //   Physical Maximum (590)            273
# 0x27, 0xff, 0x05, 0x00, 0x00,  //   Logical Maximum (1535)            276
# 0x81, 0x02,                    //   Input (Data,Var,Abs)              281
# 0xc0,                          //  End Collection                     283
# 0x05, 0x0d,                    //  Usage Page (Digitizers)            284
# 0x09, 0x22,                    //  Usage (Finger)                     286
# 0xa1, 0x02,                    //  Collection (Logical)               288
# 0x09, 0x47,                    //   Usage (Confidence)                290
# 0x09, 0x42,                    //   Usage (Tip Switch)                292
# 0x15, 0x00,                    //   Logical Minimum (0)               294
# 0x25, 0x01,                    //   Logical Maximum (1)               296
# 0x75, 0x01,                    //   Report Size (1)                   298
# 0x95, 0x02,                    //   Report Count (2)                  300
# 0x81, 0x02,                    //   Input (Data,Var,Abs)              302
# 0x95, 0x02,                    //   Report Count (2)                  304
# 0x81, 0x03,                    //   Input (Cnst,Var,Abs)              306
# 0x09, 0x51,                    //   Usage (Contact Id)                308
# 0x25, 0x0f,                    //   Logical Maximum (15)              310
# 0x75, 0x04,                    //   Report Size (4)                   312
# 0x95, 0x01,                    //   Report Count (1)                  314
# 0x81, 0x02,                    //   Input (Data,Var,Abs)              316
# 0x05, 0x01,                    //   Usage Page (Generic Desktop)      318
# 0x09, 0x30,                    //   Usage (X)                         320
# 0x75, 0x10,                    //   Report Size (16)                  322
# 0x55, 0x0e,                    //   Unit Exponent (-2)                324
# 0x65, 0x11,                    //   Unit (SILinear: cm)               326
# 0x35, 0x00,                    //   Physical Minimum (0)              328
# 0x46, 0x7a, 0x03,              //   Physical Maximum (890)            330
# 0x27, 0xff, 0x09, 0x00, 0x00,  //   Logical Maximum (2559)            333
# 0x81, 0x02,                    //   Input (Data,Var,Abs)              338
# 0x09, 0x31,                    //   Usage (Y)                         340
# 0x46, 0x4e, 0x02,              //   Physical Maximum (590)            342
# 0x27, 0xff, 0x05, 0x00, 0x00,  //   Logical Maximum (1535)            345
# 0x81, 0x02,                    //   Input (Data,Var,Abs)              350
# 0xc0,                          //  End Collection                     352
# 0x05, 0x0d,                    //  Usage Page (Digitizers)            353
# 0x09, 0x22,                    //  Usage (Finger)                     355
# 0xa1, 0x02,                    //  Collection (Logical)               357
# 0x09, 0x47,                    //   Usage (Confidence)                359
# 0x09, 0x42,                    //   Usage (Tip Switch)                361
# 0x15, 0x00,                    //   Logical Minimum (0)               363
# 0x25, 0x01,                    //   Logical Maximum (1)               365
# 0x75, 0x01,                    //   Report Size (1)                   367
# 0x95, 0x02,                    //   Report Count (2)                  369
# 0x81, 0x02,                    //   Input (Data,Var,Abs)              371
# 0x95, 0x02,                    //   Report Count (2)                  373
# 0x81, 0x03,                    //   Input (Cnst,Var,Abs)              375
# 0x09, 0x51,                    //   Usage (Contact Id)                377
# 0x25, 0x0f,                    //   Logical Maximum (15)              379
# 0x75, 0x04,                    //   Report Size (4)                   381
# 0x95, 0x01,                    //   Report Count (1)                  383
# 0x81, 0x02,                    //   Input (Data,Var,Abs)              385
# 0x05, 0x01,                    //   Usage Page (Generic Desktop)      387
# 0x09, 0x30,                    //   Usage (X)                         389
# 0x75, 0x10,                    //   Report Size (16)                  391
# 0x55, 0x0e,                    //   Unit Exponent (-2)                393
# 0x65, 0x11,                    //   Unit (SILinear: cm)               395
# 0x35, 0x00,                    //   Physical Minimum (0)              397
# 0x46, 0x7a, 0x03,              //   Physical Maximum (890)            399
# 0x27, 0xff, 0x09, 0x00, 0x00,  //   Logical Maximum (2559)            402
# 0x81, 0x02,                    //   Input (Data,Var,Abs)              407
# 0x09, 0x31,                    //   Usage (Y)                         409
# 0x46, 0x4e, 0x02,              //   Physical Maximum (590)            411
# 0x27, 0xff, 0x05, 0x00, 0x00,  //   Logical Maximum (1535)            414
# 0x81, 0x02,                    //   Input (Data,Var,Abs)              419
# 0xc0,                          //  End Collection                     421
# 0x05, 0x0d,                    //  Usage Page (Digitizers)            422
# 0x09, 0x54,                    //  Usage (Contact Count)              424
# 0x15, 0x00,                    //  Logical Minimum (0)                426
# 0x25, 0x05,                    //  Logical Maximum (5)                428
# 0x75, 0x08,                    //  Report Size (8)                    430
# 0x95, 0x01,                    //  Report Count (1)                   432
# 0x81, 0x02,                    //  Input (Data,Var,Abs)               434
# 0x05, 0x09,                    //  Usage Page (Button)                436
# 0x09, 0x01,                    //  Usage (Vendor Usage 0x01)          438
# 0x09, 0x02,                    //  Usage (Vendor Usage 0x02)          440
# 0x09, 0x03,                    //  Usage (Vendor Usage 0x03)          442
# 0x15, 0x00,                    //  Logical Minimum (0)                444
# 0x25, 0x01,                    //  Logical Maximum (1)                446
# 0x75, 0x01,                    //  Report Size (1)                    448
# 0x95, 0x03,                    //  Report Count (3)                   450
# 0x81, 0x02,                    //  Input (Data,Var,Abs)               452
# 0x95, 0x05,                    //  Report Count (5)                   454
# 0x81, 0x03,                    //  Input (Cnst,Var,Abs)               456
# 0x05, 0x0d,                    //  Usage Page (Digitizers)            458
# 0x09, 0x56,                    //  Usage (Scan Time)                  460
# 0x55, 0x0c,                    //  Unit Exponent (-4)                 462
# 0x66, 0x01, 0x10,              //  Unit (SILinear: s)                 464
# 0x35, 0x00,                    //  Physical Minimum (0)               467
# 0x47, 0xff, 0xff, 0x00, 0x00,  //  Physical Maximum (65535)           469
# 0x15, 0x00,                    //  Logical Minimum (0)                474
# 0x27, 0xff, 0xff, 0x00, 0x00,  //  Logical Maximum (65535)            476
# 0x75, 0x10,                    //  Report Size (16)                   481
# 0x95, 0x01,                    //  Report Count (1)                   483
# 0x81, 0x02,                    //  Input (Data,Var,Abs)               485
# 0x05, 0x0d,                    //  Usage Page (Digitizers)            487
# 0x09, 0x55,                    //  Usage (Contact Max)                489
# 0x15, 0x00,                    //  Logical Minimum (0)                491
# 0x25, 0x05,                    //  Logical Maximum (5)                493
# 0x75, 0x08,                    //  Report Size (8)                    495
# 0x95, 0x01,                    //  Report Count (1)                   497
# 0x85, 0x03,                    //  Report ID (3)                      499
# 0xb1, 0x02,                    //  Feature (Data,Var,Abs)             501
# 0x05, 0x0d,                    //  Usage Page (Digitizers)            503
# 0x09, 0x59,                    //  Usage (Button Type)                505
# 0x15, 0x00,                    //  Logical Minimum (0)                507
# 0x25, 0x01,                    //  Logical Maximum (1)                509
# 0x75, 0x08,                    //  Report Size (8)                    511
# 0x95, 0x01,                    //  Report Count (1)                   513
# 0x85, 0x04,                    //  Report ID (4)                      515
# 0xb1, 0x02,                    //  Feature (Data,Var,Abs)             517
# 0x05, 0x0d,                    //  Usage Page (Digitizers)            519
# 0x09, 0x60,                    //  Usage (Vendor Usage 0x60)          521
# 0x15, 0x00,                    //  Logical Minimum (0)                523
# 0x25, 0x01,                    //  Logical Maximum (1)                525
# 0x75, 0x01,                    //  Report Size (1)                    527
# 0x95, 0x01,                    //  Report Count (1)                   529
# 0x85, 0x07,                    //  Report ID (7)                      531
# 0xb1, 0x02,                    //  Feature (Data,Var,Abs)             533
# 0x95, 0x07,                    //  Report Count (7)                   535
# 0xb1, 0x03,                    //  Feature (Cnst,Var,Abs)             537
# 0x06, 0x00, 0xff,              //  Usage Page (Vendor Defined Page 1) 539
# 0x09, 0xc5,                    //  Usage (Vendor Usage 0xc5)          542
# 0x15, 0x00,                    //  Logical Minimum (0)                544
# 0x26, 0xff, 0x00,              //  Logical Maximum (255)              546
# 0x75, 0x08,                    //  Report Size (8)                    549
# 0x96, 0x00, 0x01,              //  Report Count (256)                 551
# 0x85, 0x0a,                    //  Report ID (10)                     554
# 0xb1, 0x02,                    //  Feature (Data,Var,Abs)             556
# 0xc0,                          // End Collection                      558
# 0x05, 0x0d,                    // Usage Page (Digitizers)             559
# 0x09, 0x0e,                    // Usage (Device Configuration)        561
# 0xa1, 0x01,                    // Collection (Application)            563
# 0x05, 0x0d,                    //  Usage Page (Digitizers)            565
# 0x09, 0x22,                    //  Usage (Finger)                     567
# 0xa1, 0x02,                    //  Collection (Logical)               569
# 0x09, 0x52,                    //   Usage (Inputmode)                 571
# 0x15, 0x00,                    //   Logical Minimum (0)               573
# 0x25, 0x0a,                    //   Logical Maximum (10)              575
# 0x75, 0x08,                    //   Report Size (8)                   577
# 0x95, 0x01,                    //   Report Count (1)                  579
# 0x85, 0x05,                    //   Report ID (5)                     581
# 0xb1, 0x02,                    //   Feature (Data,Var,Abs)            583
# 0xc0,                          //  End Collection                     585
# 0x05, 0x0d,                    //  Usage Page (Digitizers)            586
# 0x09, 0x22,                    //  Usage (Finger)                     588
# 0xa1, 0x00,                    //  Collection (Physical)              590
# 0x09, 0x57,                    //   Usage (Surface Switch)            592
# 0x09, 0x58,                    //   Usage (Button Switch)             594
# 0x15, 0x00,                    //   Logical Minimum (0)               596
# 0x25, 0x01,                    //   Logical Maximum (1)               598
# 0x75, 0x01,                    //   Report Size (1)                   600
# 0x95, 0x02,                    //   Report Count (2)                  602
# 0x85, 0x06,                    //   Report ID (6)                     604
# 0xb1, 0x02,                    //   Feature (Data,Var,Abs)            606
# 0x95, 0x06,                    //   Report Count (6)                  608
# 0xb1, 0x03,                    //   Feature (Cnst,Var,Abs)            610
# 0xc0,                          //  End Collection                     612
# 0xc0,                          // End Collection                      613
# 0x06, 0x00, 0xff,              // Usage Page (Vendor Defined Page 1)  614
# 0x09, 0x01,                    // Usage (Vendor Usage 1)              617
# 0xa1, 0x01,                    // Collection (Application)            619
# 0x85, 0x42,                    //  Report ID (66)                     621
# 0x09, 0x06,                    //  Usage (Vendor Usage 0x06)          623
# 0x15, 0x00,                    //  Logical Minimum (0)                625
# 0x26, 0xff, 0x00,              //  Logical Maximum (255)              627
# 0x75, 0x08,                    //  Report Size (8)                    630
# 0x96, 0x03, 0x00,              //  Report Count (3)                   632
# 0xb1, 0x02,                    //  Feature (Data,Var,Abs)             635
# 0x85, 0x41,                    //  Report ID (65)                     637
# 0x09, 0x05,                    //  Usage (Vendor Usage 0x05)          639
# 0x15, 0x00,                    //  Logical Minimum (0)                641
# 0x26, 0xff, 0x00,              //  Logical Maximum (255)              643
# 0x75, 0x08,                    //  Report Size (8)                    646
# 0x96, 0x00, 0x01,              //  Report Count (256)                 648
# 0xb1, 0x02,                    //  Feature (Data,Var,Abs)             651
# 0x85, 0x43,                    //  Report ID (67)                     653
# 0x09, 0x06,                    //  Usage (Vendor Usage 0x06)          655
# 0x15, 0x00,                    //  Logical Minimum (0)                657
# 0x26, 0xff, 0x00,              //  Logical Maximum (255)              659
# 0x75, 0x08,                    //  Report Size (8)                    662
# 0x96, 0x03, 0x00,              //  Report Count (3)                   664
# 0xb1, 0x02,                    //  Feature (Data,Var,Abs)             667
# 0x85, 0x0b,                    //  Report ID (11)                     669
# 0x09, 0x11,                    //  Usage (Vendor Usage 0x11)          671
# 0x15, 0x00,                    //  Logical Minimum (0)                673
# 0x26, 0xff, 0x00,              //  Logical Maximum (255)              675
# 0x75, 0x08,                    //  Report Size (8)                    678
# 0x96, 0x01, 0x00,              //  Report Count (1)                   680
# 0xb1, 0x02,                    //  Feature (Data,Var,Abs)             683
# 0xc0,                          // End Collection                      685
# 
R: 686 05 01 09 02 a1 01 85 02 09 01 a1 00 05 09 19 01 29 02 15 00 25 01 75 01 95 02 81 02 95 06 81 03 05 01 09 30 09 31 09 38 15 81 25 7f 75 08 95 03 81 06 05 0c 0a 38 02 75 08 95 01 81 06 75 08 95 03 81 03 c0 c0 05 0d 09 05 a1 01 85 01 05 0d 09 22 a1 02 09 47 09 42 15 00 25 01 75 01 95 02 81 02 95 02 81 03 09 51 25 0f 75 04 95 01 81 02 05 01 09 30 75 10 55 0e 65 11 35 00 46 7a 03 27 ff 09 00 00 81 02 09 31 46 4e 02 27 ff 05 00 00 81 02 c0 05 0d 09 22 a1 02 09 47 09 42 15 00 25 01 75 01 95 02 81 02 95 02 81 03 09 51 25 0f 75 04 95 01 81 02 05 01 09 30 75 10 55 0e 65 11 35 00 46 7a 03 27 ff 09 00 00 81 02 09 31 46 4e 02 27 ff 05 00 00 81 02 c0 05 0d 09 22 a1 02 09 47 09 42 15 00 25 01 75 01 95 02 81 02 95 02 81 03 09 51 25 0f 75 04 95 01 81 02 05 01 09 30 75 10 55 0e 65 11 35 00 46 7a 03 27 ff 09 00 00 81 02 09 31 46 4e 02 27 ff 05 00 00 81 02 c0 05 0d 09 22 a1 02 09 47 09 42 15 00 25 01 75 01 95 02 81 02 95 02 81 03 09 51 25 0f 75 04 95 01 81 02 05 01 09 30 75 10 55 0e 65 11 35 00 46 7a 03 27 ff 09 00 00 81 02 09 31 46 4e 02 27 ff 05 00 00 81 02 c0 05 0d 09 22 a1 02 09 47 09 42 15 00 25 01 75 01 95 02 81 02 95 02 81 03 09 51 25 0f 75 04 95 01 81 02 05 01 09 30 75 10 55 0e 65 11 35 00 46 7a 03 27 ff 09 00 00 81 02 09 31 46 4e 02 27 ff 05 00 00 81 02 c0 05 0d 09 54 15 00 25 05 75 08 95 01 81 02 05 09 09 01 09 02 09 03 15 00 25 01 75 01 95 03 81 02 95 05 81 03 05 0d 09 56 55 0c 66 01 10 35 00 47 ff ff 00 00 15 00 27 ff ff 00 00 75 10 95 01 81 02 05 0d 09 55 15 00 25 05 75 08 95 01 85 03 b1 02 05 0d 09 59 15 00 25 01 75 08 95 01 85 04 b1 02 05 0d 09 60 15 00 25 01 75 01 95 01 85 07 b1 02 95 07 b1 03 06 00 ff 09 c5 15 00 26 ff 00 75 08 96 00 01 85 0a b1 02 c0 05 0d 09 0e a1 01 05 0d 09 22 a1 02 09 52 15 00 25 0a 75 08 95 01 85 05 b1 02 c0 05 0d 09 22 a1 00 09 57 09 58 15 00 25 01 75 01 95 02 85 06 b1 02 95 06 b1 03 c0 c0 06 00 ff 09 01 a1 01 85 42 09 06 15 00 26 ff 00 75 08 96 03 00 b1 02 85 41 09 05 15 00 26 ff 00 75 08 96 00 01 b1 02 85 43 09 06 15 00 26 ff 00 75 08 96 03 00 b1 02 85 0b 09 11 15 00 26 ff 00 75 08 96 01 00 b1 02 c0
N: PNP0C50:00 093A:0255
I: 18 093a 0255
# ReportID: 1 / Confidence: 1 | Tip Switch: 1 | # | Contact Id:   0 | X:    164 | Y:    154 
#             | Confidence: 0 | Tip Switch: 0 | # | Contact Id:   0 | X:      0 | Y:      0 
#             | Confidence: 0 | Tip Switch: 0 | # | Contact Id:   0 | X:      0 | Y:      0 
#             | Confidence: 0 | Tip Switch: 0 | # | Contact Id:   0 | X:      0 | Y:      0 
#             | Confidence: 0 | Tip Switch: 0 | # | Contact Id:   0 | X:      0 | Y:      0 | Contact Count:    1 | Button: 0  0  0 | # | Scan Time:  13141 
E: 000000.000000 30 01 03 a4 00 9a 00 00 00 00 00 00 00 00 00 00 00 00 00 00 00 00 00 00 00 00 00 01 00 55 33
# ReportID: 1 / Confidence: 1 | Tip Switch: 1 | # | Contact Id:   0 | X:    164 | Y:    154 
#             | Confidence: 0 | Tip Switch: 0 | # | Contact Id:   0 | X:      0 | Y:      0 
#             | Confidence: 0 | Tip Switch: 0 | # | Contact Id:   0 | X:      0 | Y:      0 
#             | Confidence: 0 | Tip Switch: 0 | # | Contact Id:   0 | X:      0 | Y:      0 
#             | Confidence: 0 | Tip Switch: 0 | # | Contact Id:   0 | X:      0 | Y:      0 | Contact Count:    1 | Button: 0  0  0 | # | Scan Time:  13214 
E: 000000.005758 30 01 03 a4 00 9a 00 00 00 00 00 00 00 00 00 00 00 00 00 00 00 00 00 00 00 00 00 01 00 9e 33
# ReportID: 1 / Confidence: 1 | Tip Switch: 1 | # | Contact Id:   0 | X:    164 | Y:    154 
#             | Confidence: 0 | Tip Switch: 0 | # | Contact Id:   0 | X:      0 | Y:      0 
#             | Confidence: 0 | Tip Switch: 0 | # | Contact Id:   0 | X:      0 | Y:      0 
#             | Confidence: 0 | Tip Switch: 0 | # | Contact Id:   0 | X:      0 | Y:      0 
#             | Confidence: 0 | Tip Switch: 0 | # | Contact Id:   0 | X:      0 | Y:      0 | Contact Count:    1 | Button: 0  0  0 | # | Scan Time:  13285 
E: 000000.012937 30 01 03 a4 00 9a 00 00 00 00 00 00 00 00 00 00 00 00 00 00 00 00 00 00 00 00 00 01 00 e5 33
# ReportID: 1 / Confidence: 1 | Tip Switch: 1 | # | Contact Id:   0 | X:    164 | Y:    154 
#             | Confidence: 0 | Tip Switch: 0 | # | Contact Id:   0 | X:      0 | Y:      0 
#             | Confidence: 0 | Tip Switch: 0 | # | Contact Id:   0 | X:      0 | Y:      0 
#             | Confidence: 0 | Tip Switch: 0 | # | Contact Id:   0 | X:      0 | Y:      0 
#             | Confidence: 0 | Tip Switch: 0 | # | Contact Id:   0 | X:      0 | Y:      0 | Contact Count:    1 | Button: 0  0  0 | # | Scan Time:  13356 
E: 000000.020236 30 01 03 a4 00 9a 00 00 00 00 00 00 00 00 00 00 00 00 00 00 00 00 00 00 00 00 00 01 00 2c 34
# ReportID: 1 / Confidence: 1 | Tip Switch: 1 | # | Contact Id:   0 | X:    164 | Y:    154 
#             | Confidence: 0 | Tip Switch: 0 | # | Contact Id:   0 | X:      0 | Y:      0 
#             | Confidence: 0 | Tip Switch: 0 | # | Contact Id:   0 | X:      0 | Y:      0 
#             | Confidence: 0 | Tip Switch: 0 | # | Contact Id:   0 | X:      0 | Y:      0 
#             | Confidence: 0 | Tip Switch: 0 | # | Contact Id:   0 | X:      0 | Y:      0 | Contact Count:    1 | Button: 0  0  0 | # | Scan Time:  13427 
E: 000000.027415 30 01 03 a4 00 9a 00 00 00 00 00 00 00 00 00 00 00 00 00 00 00 00 00 00 00 00 00 01 00 73 34
# ReportID: 1 / Confidence: 1 | Tip Switch: 1 | # | Contact Id:   0 | X:    164 | Y:    154 
#             | Confidence: 0 | Tip Switch: 0 | # | Contact Id:   0 | X:      0 | Y:      0 
#             | Confidence: 0 | Tip Switch: 0 | # | Contact Id:   0 | X:      0 | Y:      0 
#             | Confidence: 0 | Tip Switch: 0 | # | Contact Id:   0 | X:      0 | Y:      0 
#             | Confidence: 0 | Tip Switch: 0 | # | Contact Id:   0 | X:      0 | Y:      0 | Contact Count:    1 | Button: 0  0  0 | # | Scan Time:  13498 
E: 000000.035189 30 01 03 a4 00 9a 00 00 00 00 00 00 00 00 00 00 00 00 00 00 00 00 00 00 00 00 00 01 00 ba 34
# ReportID: 1 / Confidence: 1 | Tip Switch: 1 | # | Contact Id:   0 | X:    164 | Y:    154 
#             | Confidence: 0 | Tip Switch: 0 | # | Contact Id:   0 | X:      0 | Y:      0 
#             | Confidence: 0 | Tip Switch: 0 | # | Contact Id:   0 | X:      0 | Y:      0 
#             | Confidence: 0 | Tip Switch: 0 | # | Contact Id:   0 | X:      0 | Y:      0 
#             | Confidence: 0 | Tip Switch: 0 | # | Contact Id:   0 | X:      0 | Y:      0 | Contact Count:    1 | Button: 0  0  0 | # | Scan Time:  13569 
E: 000000.041769 30 01 03 a4 00 9a 00 00 00 00 00 00 00 00 00 00 00 00 00 00 00 00 00 00 00 00 00 01 00 01 35
# ReportID: 1 / Confidence: 1 | Tip Switch: 1 | # | Contact Id:   0 | X:    166 | Y:    156 
#             | Confidence: 0 | Tip Switch: 0 | # | Contact Id:   0 | X:      0 | Y:      0 
#             | Confidence: 0 | Tip Switch: 0 | # | Contact Id:   0 | X:      0 | Y:      0 
#             | Confidence: 0 | Tip Switch: 0 | # | Contact Id:   0 | X:      0 | Y:      0 
#             | Confidence: 0 | Tip Switch: 0 | # | Contact Id:   0 | X:      0 | Y:      0 | Contact Count:    1 | Button: 0  0  0 | # | Scan Time:  13640 
E: 000000.049307 30 01 03 a6 00 9c 00 00 00 00 00 00 00 00 00 00 00 00 00 00 00 00 00 00 00 00 00 01 00 48 35
# ReportID: 1 / Confidence: 1 | Tip Switch: 1 | # | Contact Id:   0 | X:    167 | Y:    159 
#             | Confidence: 0 | Tip Switch: 0 | # | Contact Id:   0 | X:      0 | Y:      0 
#             | Confidence: 0 | Tip Switch: 0 | # | Contact Id:   0 | X:      0 | Y:      0 
#             | Confidence: 0 | Tip Switch: 0 | # | Contact Id:   0 | X:      0 | Y:      0 
#             | Confidence: 0 | Tip Switch: 0 | # | Contact Id:   0 | X:      0 | Y:      0 | Contact Count:    1 | Button: 0  0  0 | # | Scan Time:  13711 
E: 000000.056538 30 01 03 a7 00 9f 00 00 00 00 00 00 00 00 00 00 00 00 00 00 00 00 00 00 00 00 00 01 00 8f 35
# ReportID: 1 / Confidence: 1 | Tip Switch: 1 | # | Contact Id:   0 | X:    169 | Y:    162 
#             | Confidence: 0 | Tip Switch: 0 | # | Contact Id:   0 | X:      0 | Y:      0 
#             | Confidence: 0 | Tip Switch: 0 | # | Contact Id:   0 | X:      0 | Y:      0 
#             | Confidence: 0 | Tip Switch: 0 | # | Contact Id:   0 | X:      0 | Y:      0 
#             | Confidence: 0 | Tip Switch: 0 | # | Contact Id:   0 | X:      0 | Y:      0 | Contact Count:    1 | Button: 0  0  0 | # | Scan Time:  13782 
E: 000000.063722 30 01 03 a9 00 a2 00 00 00 00 00 00 00 00 00 00 00 00 00 00 00 00 00 00 00 00 00 01 00 d6 35
# ReportID: 1 / Confidence: 1 | Tip Switch: 1 | # | Contact Id:   0 | X:    170 | Y:    166 
#             | Confidence: 0 | Tip Switch: 0 | # | Contact Id:   0 | X:      0 | Y:      0 
#             | Confidence: 0 | Tip Switch: 0 | # | Contact Id:   0 | X:      0 | Y:      0 
#             | Confidence: 0 | Tip Switch: 0 | # | Contact Id:   0 | X:      0 | Y:      0 
#             | Confidence: 0 | Tip Switch: 0 | # | Contact Id:   0 | X:      0 | Y:      0 | Contact Count:    1 | Button: 0  0  0 | # | Scan Time:  13853 
E: 000000.070429 30 01 03 aa 00 a6 00 00 00 00 00 00 00 00 00 00 00 00 00 00 00 00 00 00 00 00 00 01 00 1d 36
# ReportID: 1 / Confidence: 1 | Tip Switch: 1 | # | Contact Id:   0 | X:    170 | Y:    172 
#             | Confidence: 0 | Tip Switch: 0 | # | Contact Id:   0 | X:      0 | Y:      0 
#             | Confidence: 0 | Tip Switch: 0 | # | Contact Id:   0 | X:      0 | Y:      0 
#             | Confidence: 0 | Tip Switch: 0 | # | Contact Id:   0 | X:      0 | Y:      0 
#             | Confidence: 0 | Tip Switch: 0 | # | Contact Id:   0 | X:      0 | Y:      0 | Contact Count:    1 | Button: 0  0  0 | # | Scan Time:  13924 
E: 000000.077713 30 01 03 aa 00 ac 00 00 00 00 00 00 00 00 00 00 00 00 00 00 00 00 00 00 00 00 00 01 00 64 36
# ReportID: 1 / Confidence: 1 | Tip Switch: 1 | # | Contact Id:   0 | X:    169 | Y:    180 
#             | Confidence: 0 | Tip Switch: 0 | # | Contact Id:   0 | X:      0 | Y:      0 
#             | Confidence: 0 | Tip Switch: 0 | # | Contact Id:   0 | X:      0 | Y:      0 
#             | Confidence: 0 | Tip Switch: 0 | # | Contact Id:   0 | X:      0 | Y:      0 
#             | Confidence: 0 | Tip Switch: 0 | # | Contact Id:   0 | X:      0 | Y:      0 | Contact Count:    1 | Button: 0  0  0 | # | Scan Time:  13995 
E: 000000.084860 30 01 03 a9 00 b4 00 00 00 00 00 00 00 00 00 00 00 00 00 00 00 00 00 00 00 00 00 01 00 ab 36
# ReportID: 1 / Confidence: 1 | Tip Switch: 1 | # | Contact Id:   0 | X:    166 | Y:    191 
#             | Confidence: 0 | Tip Switch: 0 | # | Contact Id:   0 | X:      0 | Y:      0 
#             | Confidence: 0 | Tip Switch: 0 | # | Contact Id:   0 | X:      0 | Y:      0 
#             | Confidence: 0 | Tip Switch: 0 | # | Contact Id:   0 | X:      0 | Y:      0 
#             | Confidence: 0 | Tip Switch: 0 | # | Contact Id:   0 | X:      0 | Y:      0 | Contact Count:    1 | Button: 0  0  0 | # | Scan Time:  14066 
E: 000000.091903 30 01 03 a6 00 bf 00 00 00 00 00 00 00 00 00 00 00 00 00 00 00 00 00 00 00 00 00 01 00 f2 36
# ReportID: 1 / Confidence: 1 | Tip Switch: 1 | # | Contact Id:   0 | X:    162 | Y:    204 
#             | Confidence: 0 | Tip Switch: 0 | # | Contact Id:   0 | X:      0 | Y:      0 
#             | Confidence: 0 | Tip Switch: 0 | # | Contact Id:   0 | X:      0 | Y:      0 
#             | Confidence: 0 | Tip Switch: 0 | # | Contact Id:   0 | X:      0 | Y:      0 
#             | Confidence: 0 | Tip Switch: 0 | # | Contact Id:   0 | X:      0 | Y:      0 | Contact Count:    1 | Button: 0  0  0 | # | Scan Time:  14137 
E: 000000.099102 30 01 03 a2 00 cc 00 00 00 00 00 00 00 00 00 00 00 00 00 00 00 00 00 00 00 00 00 01 00 39 37
# ReportID: 1 / Confidence: 1 | Tip Switch: 1 | # | Contact Id:   0 | X:    159 | Y:    219 
#             | Confidence: 0 | Tip Switch: 0 | # | Contact Id:   0 | X:      0 | Y:      0 
#             | Confidence: 0 | Tip Switch: 0 | # | Contact Id:   0 | X:      0 | Y:      0 
#             | Confidence: 0 | Tip Switch: 0 | # | Contact Id:   0 | X:      0 | Y:      0 
#             | Confidence: 0 | Tip Switch: 0 | # | Contact Id:   0 | X:      0 | Y:      0 | Contact Count:    1 | Button: 0  0  0 | # | Scan Time:  14208 
E: 000000.106348 30 01 03 9f 00 db 00 00 00 00 00 00 00 00 00 00 00 00 00 00 00 00 00 00 00 00 00 01 00 80 37
# ReportID: 1 / Confidence: 1 | Tip Switch: 1 | # | Contact Id:   0 | X:    156 | Y:    234 
#             | Confidence: 0 | Tip Switch: 0 | # | Contact Id:   0 | X:      0 | Y:      0 
#             | Confidence: 0 | Tip Switch: 0 | # | Contact Id:   0 | X:      0 | Y:      0 
#             | Confidence: 0 | Tip Switch: 0 | # | Contact Id:   0 | X:      0 | Y:      0 
#             | Confidence: 0 | Tip Switch: 0 | # | Contact Id:   0 | X:      0 | Y:      0 | Contact Count:    1 | Button: 0  0  0 | # | Scan Time:  14279 
E: 000000.113499 30 01 03 9c 00 ea 00 00 00 00 00 00 00 00 00 00 00 00 00 00 00 00 00 00 00 00 00 01 00 c7 37
# ReportID: 1 / Confidence: 1 | Tip Switch: 1 | # | Contact Id:   0 | X:    152 | Y:    252 
#             | Confidence: 0 | Tip Switch: 0 | # | Contact Id:   0 | X:      0 | Y:      0 
#             | Confidence: 0 | Tip Switch: 0 | # | Contact Id:   0 | X:      0 | Y:      0 
#             | Confidence: 0 | Tip Switch: 0 | # | Contact Id:   0 | X:      0 | Y:      0 
#             | Confidence: 0 | Tip Switch: 0 | # | Contact Id:   0 | X:      0 | Y:      0 | Contact Count:    1 | Button: 0  0  0 | # | Scan Time:  14349 
E: 000000.120647 30 01 03 98 00 fc 00 00 00 00 00 00 00 00 00 00 00 00 00 00 00 00 00 00 00 00 00 01 00 0d 38
# ReportID: 1 / Confidence: 1 | Tip Switch: 1 | # | Contact Id:   0 | X:    148 | Y:    272 
#             | Confidence: 0 | Tip Switch: 0 | # | Contact Id:   0 | X:      0 | Y:      0 
#             | Confidence: 0 | Tip Switch: 0 | # | Contact Id:   0 | X:      0 | Y:      0 
#             | Confidence: 0 | Tip Switch: 0 | # | Contact Id:   0 | X:      0 | Y:      0 
#             | Confidence: 0 | Tip Switch: 0 | # | Contact Id:   0 | X:      0 | Y:      0 | Contact Count:    1 | Button: 0  0  0 | # | Scan Time:  14420 
E: 000000.127953 30 01 03 94 00 10 01 00 00 00 00 00 00 00 00 00 00 00 00 00 00 00 00 00 00 00 00 01 00 54 38
# ReportID: 1 / Confidence: 1 | Tip Switch: 1 | # | Contact Id:   0 | X:    146 | Y:    293 
#             | Confidence: 0 | Tip Switch: 0 | # | Contact Id:   0 | X:      0 | Y:      0 
#             | Confidence: 0 | Tip Switch: 0 | # | Contact Id:   0 | X:      0 | Y:      0 
#             | Confidence: 0 | Tip Switch: 0 | # | Contact Id:   0 | X:      0 | Y:      0 
#             | Confidence: 0 | Tip Switch: 0 | # | Contact Id:   0 | X:      0 | Y:      0 | Contact Count:    1 | Button: 0  0  0 | # | Scan Time:  14491 
E: 000000.135028 30 01 03 92 00 25 01 00 00 00 00 00 00 00 00 00 00 00 00 00 00 00 00 00 00 00 00 01 00 9b 38
# ReportID: 1 / Confidence: 1 | Tip Switch: 1 | # | Contact Id:   0 | X:    145 | Y:    314 
#             | Confidence: 0 | Tip Switch: 0 | # | Contact Id:   0 | X:      0 | Y:      0 
#             | Confidence: 0 | Tip Switch: 0 | # | Contact Id:   0 | X:      0 | Y:      0 
#             | Confidence: 0 | Tip Switch: 0 | # | Contact Id:   0 | X:      0 | Y:      0 
#             | Confidence: 0 | Tip Switch: 0 | # | Contact Id:   0 | X:      0 | Y:      0 | Contact Count:    1 | Button: 0  0  0 | # | Scan Time:  14562 
E: 000000.142313 30 01 03 91 00 3a 01 00 00 00 00 00 00 00 00 00 00 00 00 00 00 00 00 00 00 00 00 01 00 e2 38
# ReportID: 1 / Confidence: 1 | Tip Switch: 1 | # | Contact Id:   0 | X:    143 | Y:    336 
#             | Confidence: 0 | Tip Switch: 0 | # | Contact Id:   0 | X:      0 | Y:      0 
#             | Confidence: 0 | Tip Switch: 0 | # | Contact Id:   0 | X:      0 | Y:      0 
#             | Confidence: 0 | Tip Switch: 0 | # | Contact Id:   0 | X:      0 | Y:      0 
#             | Confidence: 0 | Tip Switch: 0 | # | Contact Id:   0 | X:      0 | Y:      0 | Contact Count:    1 | Button: 0  0  0 | # | Scan Time:  14633 
E: 000000.149360 30 01 03 8f 00 50 01 00 00 00 00 00 00 00 00 00 00 00 00 00 00 00 00 00 00 00 00 01 00 29 39
# ReportID: 1 / Confidence: 1 | Tip Switch: 1 | # | Contact Id:   0 | X:    143 | Y:    360 
#             | Confidence: 0 | Tip Switch: 0 | # | Contact Id:   0 | X:      0 | Y:      0 
#             | Confidence: 0 | Tip Switch: 0 | # | Contact Id:   0 | X:      0 | Y:      0 
#             | Confidence: 0 | Tip Switch: 0 | # | Contact Id:   0 | X:      0 | Y:      0 
#             | Confidence: 0 | Tip Switch: 0 | # | Contact Id:   0 | X:      0 | Y:      0 | Contact Count:    1 | Button: 0  0  0 | # | Scan Time:  14706 
E: 000000.156600 30 01 03 8f 00 68 01 00 00 00 00 00 00 00 00 00 00 00 00 00 00 00 00 00 00 00 00 01 00 72 39
# ReportID: 1 / Confidence: 1 | Tip Switch: 1 | # | Contact Id:   0 | X:    143 | Y:    387 
#             | Confidence: 0 | Tip Switch: 0 | # | Contact Id:   0 | X:      0 | Y:      0 
#             | Confidence: 0 | Tip Switch: 0 | # | Contact Id:   0 | X:      0 | Y:      0 
#             | Confidence: 0 | Tip Switch: 0 | # | Contact Id:   0 | X:      0 | Y:      0 
#             | Confidence: 0 | Tip Switch: 0 | # | Contact Id:   0 | X:      0 | Y:      0 | Contact Count:    1 | Button: 0  0  0 | # | Scan Time:  14777 
E: 000000.163792 30 01 03 8f 00 83 01 00 00 00 00 00 00 00 00 00 00 00 00 00 00 00 00 00 00 00 00 01 00 b9 39
# ReportID: 1 / Confidence: 1 | Tip Switch: 1 | # | Contact Id:   0 | X:    142 | Y:    414 
#             | Confidence: 0 | Tip Switch: 0 | # | Contact Id:   0 | X:      0 | Y:      0 
#             | Confidence: 0 | Tip Switch: 0 | # | Contact Id:   0 | X:      0 | Y:      0 
#             | Confidence: 0 | Tip Switch: 0 | # | Contact Id:   0 | X:      0 | Y:      0 
#             | Confidence: 0 | Tip Switch: 0 | # | Contact Id:   0 | X:      0 | Y:      0 | Contact Count:    1 | Button: 0  0  0 | # | Scan Time:  14848 
E: 000000.170963 30 01 03 8e 00 9e 01 00 00 00 00 00 00 00 00 00 00 00 00 00 00 00 00 00 00 00 00 01 00 00 3a
# ReportID: 1 / Confidence: 1 | Tip Switch: 1 | # | Contact Id:   0 | X:    141 | Y:    442 
#             | Confidence: 0 | Tip Switch: 0 | # | Contact Id:   0 | X:      0 | Y:      0 
#             | Confidence: 0 | Tip Switch: 0 | # | Contact Id:   0 | X:      0 | Y:      0 
#             | Confidence: 0 | Tip Switch: 0 | # | Contact Id:   0 | X:      0 | Y:      0 
#             | Confidence: 0 | Tip Switch: 0 | # | Contact Id:   0 | X:      0 | Y:      0 | Contact Count:    1 | Button: 0  0  0 | # | Scan Time:  14919 
E: 000000.178135 30 01 03 8d 00 ba 01 00 00 00 00 00 00 00 00 00 00 00 00 00 00 00 00 00 00 00 00 01 00 47 3a
# ReportID: 1 / Confidence: 1 | Tip Switch: 1 | # | Contact Id:   0 | X:    140 | Y:    470 
#             | Confidence: 0 | Tip Switch: 0 | # | Contact Id:   0 | X:      0 | Y:      0 
#             | Confidence: 0 | Tip Switch: 0 | # | Contact Id:   0 | X:      0 | Y:      0 
#             | Confidence: 0 | Tip Switch: 0 | # | Contact Id:   0 | X:      0 | Y:      0 
#             | Confidence: 0 | Tip Switch: 0 | # | Contact Id:   0 | X:      0 | Y:      0 | Contact Count:    1 | Button: 0  0  0 | # | Scan Time:  14990 
E: 000000.185337 30 01 03 8c 00 d6 01 00 00 00 00 00 00 00 00 00 00 00 00 00 00 00 00 00 00 00 00 01 00 8e 3a
# ReportID: 1 / Confidence: 1 | Tip Switch: 1 | # | Contact Id:   0 | X:    139 | Y:    499 
#             | Confidence: 0 | Tip Switch: 0 | # | Contact Id:   0 | X:      0 | Y:      0 
#             | Confidence: 0 | Tip Switch: 0 | # | Contact Id:   0 | X:      0 | Y:      0 
#             | Confidence: 0 | Tip Switch: 0 | # | Contact Id:   0 | X:      0 | Y:      0 
#             | Confidence: 0 | Tip Switch: 0 | # | Contact Id:   0 | X:      0 | Y:      0 | Contact Count:    1 | Button: 0  0  0 | # | Scan Time:  15061 
E: 000000.192482 30 01 03 8b 00 f3 01 00 00 00 00 00 00 00 00 00 00 00 00 00 00 00 00 00 00 00 00 01 00 d5 3a
# ReportID: 1 / Confidence: 1 | Tip Switch: 1 | # | Contact Id:   0 | X:    139 | Y:    527 
#             | Confidence: 0 | Tip Switch: 0 | # | Contact Id:   0 | X:      0 | Y:      0 
#             | Confidence: 0 | Tip Switch: 0 | # | Contact Id:   0 | X:      0 | Y:      0 
#             | Confidence: 0 | Tip Switch: 0 | # | Contact Id:   0 | X:      0 | Y:      0 
#             | Confidence: 0 | Tip Switch: 0 | # | Contact Id:   0 | X:      0 | Y:      0 | Contact Count:    1 | Button: 0  0  0 | # | Scan Time:  15132 
E: 000000.199720 30 01 03 8b 00 0f 02 00 00 00 00 00 00 00 00 00 00 00 00 00 00 00 00 00 00 00 00 01 00 1c 3b
# ReportID: 1 / Confidence: 1 | Tip Switch: 1 | # | Contact Id:   0 | X:    138 | Y:    556 
#             | Confidence: 0 | Tip Switch: 0 | # | Contact Id:   0 | X:      0 | Y:      0 
#             | Confidence: 0 | Tip Switch: 0 | # | Contact Id:   0 | X:      0 | Y:      0 
#             | Confidence: 0 | Tip Switch: 0 | # | Contact Id:   0 | X:      0 | Y:      0 
#             | Confidence: 0 | Tip Switch: 0 | # | Contact Id:   0 | X:      0 | Y:      0 | Contact Count:    1 | Button: 0  0  0 | # | Scan Time:  15203 
E: 000000.206832 30 01 03 8a 00 2c 02 00 00 00 00 00 00 00 00 00 00 00 00 00 00 00 00 00 00 00 00 01 00 63 3b
# ReportID: 1 / Confidence: 1 | Tip Switch: 1 | # | Contact Id:   0 | X:    138 | Y:    585 
#             | Confidence: 0 | Tip Switch: 0 | # | Contact Id:   0 | X:      0 | Y:      0 
#             | Confidence: 0 | Tip Switch: 0 | # | Contact Id:   0 | X:      0 | Y:      0 
#             | Confidence: 0 | Tip Switch: 0 | # | Contact Id:   0 | X:      0 | Y:      0 
#             | Confidence: 0 | Tip Switch: 0 | # | Contact Id:   0 | X:      0 | Y:      0 | Contact Count:    1 | Button: 0  0  0 | # | Scan Time:  15274 
E: 000000.214144 30 01 03 8a 00 49 02 00 00 00 00 00 00 00 00 00 00 00 00 00 00 00 00 00 00 00 00 01 00 aa 3b
# ReportID: 1 / Confidence: 1 | Tip Switch: 1 | # | Contact Id:   0 | X:    137 | Y:    616 
#             | Confidence: 0 | Tip Switch: 0 | # | Contact Id:   0 | X:      0 | Y:      0 
#             | Confidence: 0 | Tip Switch: 0 | # | Contact Id:   0 | X:      0 | Y:      0 
#             | Confidence: 0 | Tip Switch: 0 | # | Contact Id:   0 | X:      0 | Y:      0 
#             | Confidence: 0 | Tip Switch: 0 | # | Contact Id:   0 | X:      0 | Y:      0 | Contact Count:    1 | Button: 0  0  0 | # | Scan Time:  15345 
E: 000000.221231 30 01 03 89 00 68 02 00 00 00 00 00 00 00 00 00 00 00 00 00 00 00 00 00 00 00 00 01 00 f1 3b
# ReportID: 1 / Confidence: 1 | Tip Switch: 1 | # | Contact Id:   0 | X:    135 | Y:    647 
#             | Confidence: 0 | Tip Switch: 0 | # | Contact Id:   0 | X:      0 | Y:      0 
#             | Confidence: 0 | Tip Switch: 0 | # | Contact Id:   0 | X:      0 | Y:      0 
#             | Confidence: 0 | Tip Switch: 0 | # | Contact Id:   0 | X:      0 | Y:      0 
#             | Confidence: 0 | Tip Switch: 0 | # | Contact Id:   0 | X:      0 | Y:      0 | Contact Count:    1 | Button: 0  0  0 | # | Scan Time:  15416 
E: 000000.228360 30 01 03 87 00 87 02 00 00 00 00 00 00 00 00 00 00 00 00 00 00 00 00 00 00 00 00 01 00 38 3c
# ReportID: 1 / Confidence: 1 | Tip Switch: 1 | # | Contact Id:   0 | X:    134 | Y:    677 
#             | Confidence: 0 | Tip Switch: 0 | # | Contact Id:   0 | X:      0 | Y:      0 
#             | Confidence: 0 | Tip Switch: 0 | # | Contact Id:   0 | X:      0 | Y:      0 
#             | Confidence: 0 | Tip Switch: 0 | # | Contact Id:   0 | X:      0 | Y:      0 
#             | Confidence: 0 | Tip Switch: 0 | # | Contact Id:   0 | X:      0 | Y:      0 | Contact Count:    1 | Button: 0  0  0 | # | Scan Time:  15487 
E: 000000.235675 30 01 03 86 00 a5 02 00 00 00 00 00 00 00 00 00 00 00 00 00 00 00 00 00 00 00 00 01 00 7f 3c
# ReportID: 1 / Confidence: 1 | Tip Switch: 1 | # | Contact Id:   0 | X:    133 | Y:    708 
#             | Confidence: 0 | Tip Switch: 0 | # | Contact Id:   0 | X:      0 | Y:      0 
#             | Confidence: 0 | Tip Switch: 0 | # | Contact Id:   0 | X:      0 | Y:      0 
#             | Confidence: 0 | Tip Switch: 0 | # | Contact Id:   0 | X:      0 | Y:      0 
#             | Confidence: 0 | Tip Switch: 0 | # | Contact Id:   0 | X:      0 | Y:      0 | Contact Count:    1 | Button: 0  0  0 | # | Scan Time:  15558 
E: 000000.242898 30 01 03 85 00 c4 02 00 00 00 00 00 00 00 00 00 00 00 00 00 00 00 00 00 00 00 00 01 00 c6 3c
# ReportID: 1 / Confidence: 1 | Tip Switch: 1 | # | Contact Id:   0 | X:    131 | Y:    738 
#             | Confidence: 0 | Tip Switch: 0 | # | Contact Id:   0 | X:      0 | Y:      0 
#             | Confidence: 0 | Tip Switch: 0 | # | Contact Id:   0 | X:      0 | Y:      0 
#             | Confidence: 0 | Tip Switch: 0 | # | Contact Id:   0 | X:      0 | Y:      0 
#             | Confidence: 0 | Tip Switch: 0 | # | Contact Id:   0 | X:      0 | Y:      0 | Contact Count:    1 | Button: 0  0  0 | # | Scan Time:  15629 
E: 000000.250231 30 01 03 83 00 e2 02 00 00 00 00 00 00 00 00 00 00 00 00 00 00 00 00 00 00 00 00 01 00 0d 3d
# ReportID: 1 / Confidence: 1 | Tip Switch: 1 | # | Contact Id:   0 | X:    130 | Y:    769 
#             | Confidence: 0 | Tip Switch: 0 | # | Contact Id:   0 | X:      0 | Y:      0 
#             | Confidence: 0 | Tip Switch: 0 | # | Contact Id:   0 | X:      0 | Y:      0 
#             | Confidence: 0 | Tip Switch: 0 | # | Contact Id:   0 | X:      0 | Y:      0 
#             | Confidence: 0 | Tip Switch: 0 | # | Contact Id:   0 | X:      0 | Y:      0 | Contact Count:    1 | Button: 0  0  0 | # | Scan Time:  15700 
E: 000000.257224 30 01 03 82 00 01 03 00 00 00 00 00 00 00 00 00 00 00 00 00 00 00 00 00 00 00 00 01 00 54 3d
# ReportID: 1 / Confidence: 1 | Tip Switch: 1 | # | Contact Id:   0 | X:    129 | Y:    799 
#             | Confidence: 0 | Tip Switch: 0 | # | Contact Id:   0 | X:      0 | Y:      0 
#             | Confidence: 0 | Tip Switch: 0 | # | Contact Id:   0 | X:      0 | Y:      0 
#             | Confidence: 0 | Tip Switch: 0 | # | Contact Id:   0 | X:      0 | Y:      0 
#             | Confidence: 0 | Tip Switch: 0 | # | Contact Id:   0 | X:      0 | Y:      0 | Contact Count:    1 | Button: 0  0  0 | # | Scan Time:  15771 
E: 000000.264341 30 01 03 81 00 1f 03 00 00 00 00 00 00 00 00 00 00 00 00 00 00 00 00 00 00 00 00 01 00 9b 3d
# ReportID: 1 / Confidence: 1 | Tip Switch: 1 | # | Contact Id:   0 | X:    127 | Y:    830 
#             | Confidence: 0 | Tip Switch: 0 | # | Contact Id:   0 | X:      0 | Y:      0 
#             | Confidence: 0 | Tip Switch: 0 | # | Contact Id:   0 | X:      0 | Y:      0 
#             | Confidence: 0 | Tip Switch: 0 | # | Contact Id:   0 | X:      0 | Y:      0 
#             | Confidence: 0 | Tip Switch: 0 | # | Contact Id:   0 | X:      0 | Y:      0 | Contact Count:    1 | Button: 0  0  0 | # | Scan Time:  15842 
E: 000000.271452 30 01 03 7f 00 3e 03 00 00 00 00 00 00 00 00 00 00 00 00 00 00 00 00 00 00 00 00 01 00 e2 3d
# ReportID: 1 / Confidence: 1 | Tip Switch: 1 | # | Contact Id:   0 | X:    125 | Y:    860 
#             | Confidence: 0 | Tip Switch: 0 | # | Contact Id:   0 | X:      0 | Y:      0 
#             | Confidence: 0 | Tip Switch: 0 | # | Contact Id:   0 | X:      0 | Y:      0 
#             | Confidence: 0 | Tip Switch: 0 | # | Contact Id:   0 | X:      0 | Y:      0 
#             | Confidence: 0 | Tip Switch: 0 | # | Contact Id:   0 | X:      0 | Y:      0 | Contact Count:    1 | Button: 0  0  0 | # | Scan Time:  15913 
E: 000000.278779 30 01 03 7d 00 5c 03 00 00 00 00 00 00 00 00 00 00 00 00 00 00 00 00 00 00 00 00 01 00 29 3e
# ReportID: 1 / Confidence: 1 | Tip Switch: 1 | # | Contact Id:   0 | X:    122 | Y:    891 
#             | Confidence: 0 | Tip Switch: 0 | # | Contact Id:   0 | X:      0 | Y:      0 
#             | Confidence: 0 | Tip Switch: 0 | # | Contact Id:   0 | X:      0 | Y:      0 
#             | Confidence: 0 | Tip Switch: 0 | # | Contact Id:   0 | X:      0 | Y:      0 
#             | Confidence: 0 | Tip Switch: 0 | # | Contact Id:   0 | X:      0 | Y:      0 | Contact Count:    1 | Button: 0  0  0 | # | Scan Time:  15984 
E: 000000.285927 30 01 03 7a 00 7b 03 00 00 00 00 00 00 00 00 00 00 00 00 00 00 00 00 00 00 00 00 01 00 70 3e
# ReportID: 1 / Confidence: 1 | Tip Switch: 1 | # | Contact Id:   0 | X:    119 | Y:    921 
#             | Confidence: 0 | Tip Switch: 0 | # | Contact Id:   0 | X:      0 | Y:      0 
#             | Confidence: 0 | Tip Switch: 0 | # | Contact Id:   0 | X:      0 | Y:      0 
#             | Confidence: 0 | Tip Switch: 0 | # | Contact Id:   0 | X:      0 | Y:      0 
#             | Confidence: 0 | Tip Switch: 0 | # | Contact Id:   0 | X:      0 | Y:      0 | Contact Count:    1 | Button: 0  0  0 | # | Scan Time:  16055 
E: 000000.293079 30 01 03 77 00 99 03 00 00 00 00 00 00 00 00 00 00 00 00 00 00 00 00 00 00 00 00 01 00 b7 3e
# ReportID: 1 / Confidence: 1 | Tip Switch: 1 | # | Contact Id:   0 | X:    116 | Y:    952 
#             | Confidence: 0 | Tip Switch: 0 | # | Contact Id:   0 | X:      0 | Y:      0 
#             | Confidence: 0 | Tip Switch: 0 | # | Contact Id:   0 | X:      0 | Y:      0 
#             | Confidence: 0 | Tip Switch: 0 | # | Contact Id:   0 | X:      0 | Y:      0 
#             | Confidence: 0 | Tip Switch: 0 | # | Contact Id:   0 | X:      0 | Y:      0 | Contact Count:    1 | Button: 0  0  0 | # | Scan Time:  16126 
E: 000000.300373 30 01 03 74 00 b8 03 00 00 00 00 00 00 00 00 00 00 00 00 00 00 00 00 00 00 00 00 01 00 fe 3e
# ReportID: 1 / Confidence: 1 | Tip Switch: 1 | # | Contact Id:   0 | X:    113 | Y:    983 
#             | Confidence: 0 | Tip Switch: 0 | # | Contact Id:   0 | X:      0 | Y:      0 
#             | Confidence: 0 | Tip Switch: 0 | # | Contact Id:   0 | X:      0 | Y:      0 
#             | Confidence: 0 | Tip Switch: 0 | # | Contact Id:   0 | X:      0 | Y:      0 
#             | Confidence: 0 | Tip Switch: 0 | # | Contact Id:   0 | X:      0 | Y:      0 | Contact Count:    1 | Button: 0  0  0 | # | Scan Time:  16197 
E: 000000.307580 30 01 03 71 00 d7 03 00 00 00 00 00 00 00 00 00 00 00 00 00 00 00 00 00 00 00 00 01 00 45 3f
# ReportID: 1 / Confidence: 1 | Tip Switch: 1 | # | Contact Id:   0 | X:    110 | Y:   1012 
#             | Confidence: 0 | Tip Switch: 0 | # | Contact Id:   0 | X:      0 | Y:      0 
#             | Confidence: 0 | Tip Switch: 0 | # | Contact Id:   0 | X:      0 | Y:      0 
#             | Confidence: 0 | Tip Switch: 0 | # | Contact Id:   0 | X:      0 | Y:      0 
#             | Confidence: 0 | Tip Switch: 0 | # | Contact Id:   0 | X:      0 | Y:      0 | Contact Count:    1 | Button: 0  0  0 | # | Scan Time:  16268 
E: 000000.314875 30 01 03 6e 00 f4 03 00 00 00 00 00 00 00 00 00 00 00 00 00 00 00 00 00 00 00 00 01 00 8c 3f
# ReportID: 1 / Confidence: 1 | Tip Switch: 1 | # | Contact Id:   0 | X:    106 | Y:   1042 
#             | Confidence: 0 | Tip Switch: 0 | # | Contact Id:   0 | X:      0 | Y:      0 
#             | Confidence: 0 | Tip Switch: 0 | # | Contact Id:   0 | X:      0 | Y:      0 
#             | Confidence: 0 | Tip Switch: 0 | # | Contact Id:   0 | X:      0 | Y:      0 
#             | Confidence: 0 | Tip Switch: 0 | # | Contact Id:   0 | X:      0 | Y:      0 | Contact Count:    1 | Button: 0  0  0 | # | Scan Time:  16339 
E: 000000.321868 30 01 03 6a 00 12 04 00 00 00 00 00 00 00 00 00 00 00 00 00 00 00 00 00 00 00 00 01 00 d3 3f
# ReportID: 1 / Confidence: 1 | Tip Switch: 1 | # | Contact Id:   0 | X:    103 | Y:   1071 
#             | Confidence: 0 | Tip Switch: 0 | # | Contact Id:   0 | X:      0 | Y:      0 
#             | Confidence: 0 | Tip Switch: 0 | # | Contact Id:   0 | X:      0 | Y:      0 
#             | Confidence: 0 | Tip Switch: 0 | # | Contact Id:   0 | X:      0 | Y:      0 
#             | Confidence: 0 | Tip Switch: 0 | # | Contact Id:   0 | X:      0 | Y:      0 | Contact Count:    1 | Button: 0  0  0 | # | Scan Time:  16410 
E: 000000.329058 30 01 03 67 00 2f 04 00 00 00 00 00 00 00 00 00 00 00 00 00 00 00 00 00 00 00 00 01 00 1a 40
# ReportID: 1 / Confidence: 1 | Tip Switch: 1 | # | Contact Id:   0 | X:    100 | Y:   1098 
#             | Confidence: 0 | Tip Switch: 0 | # | Contact Id:   0 | X:      0 | Y:      0 
#             | Confidence: 0 | Tip Switch: 0 | # | Contact Id:   0 | X:      0 | Y:      0 
#             | Confidence: 0 | Tip Switch: 0 | # | Contact Id:   0 | X:      0 | Y:      0 
#             | Confidence: 0 | Tip Switch: 0 | # | Contact Id:   0 | X:      0 | Y:      0 | Contact Count:    1 | Button: 0  0  0 | # | Scan Time:  16481 
E: 000000.336209 30 01 03 64 00 4a 04 00 00 00 00 00 00 00 00 00 00 00 00 00 00 00 00 00 00 00 00 01 00 61 40
# ReportID: 1 / Confidence: 1 | Tip Switch: 1 | # | Contact Id:   0 | X:     99 | Y:   1124 
#             | Confidence: 0 | Tip Switch: 0 | # | Contact Id:   0 | X:      0 | Y:      0 
#             | Confidence: 0 | Tip Switch: 0 | # | Contact Id:   0 | X:      0 | Y:      0 
#             | Confidence: 0 | Tip Switch: 0 | # | Contact Id:   0 | X:      0 | Y:      0 
#             | Confidence: 0 | Tip Switch: 0 | # | Contact Id:   0 | X:      0 | Y:      0 | Contact Count:    1 | Button: 0  0  0 | # | Scan Time:  16552 
E: 000000.343580 30 01 03 63 00 64 04 00 00 00 00 00 00 00 00 00 00 00 00 00 00 00 00 00 00 00 00 01 00 a8 40
# ReportID: 1 / Confidence: 1 | Tip Switch: 1 | # | Contact Id:   0 | X:     98 | Y:   1149 
#             | Confidence: 0 | Tip Switch: 0 | # | Contact Id:   0 | X:      0 | Y:      0 
#             | Confidence: 0 | Tip Switch: 0 | # | Contact Id:   0 | X:      0 | Y:      0 
#             | Confidence: 0 | Tip Switch: 0 | # | Contact Id:   0 | X:      0 | Y:      0 
#             | Confidence: 0 | Tip Switch: 0 | # | Contact Id:   0 | X:      0 | Y:      0 | Contact Count:    1 | Button: 0  0  0 | # | Scan Time:  16623 
E: 000000.350461 30 01 03 62 00 7d 04 00 00 00 00 00 00 00 00 00 00 00 00 00 00 00 00 00 00 00 00 01 00 ef 40
# ReportID: 1 / Confidence: 1 | Tip Switch: 1 | # | Contact Id:   0 | X:     98 | Y:   1174 
#             | Confidence: 0 | Tip Switch: 0 | # | Contact Id:   0 | X:      0 | Y:      0 
#             | Confidence: 0 | Tip Switch: 0 | # | Contact Id:   0 | X:      0 | Y:      0 
#             | Confidence: 0 | Tip Switch: 0 | # | Contact Id:   0 | X:      0 | Y:      0 
#             | Confidence: 0 | Tip Switch: 0 | # | Contact Id:   0 | X:      0 | Y:      0 | Contact Count:    1 | Button: 0  0  0 | # | Scan Time:  16694 
E: 000000.357822 30 01 03 62 00 96 04 00 00 00 00 00 00 00 00 00 00 00 00 00 00 00 00 00 00 00 00 01 00 36 41
# ReportID: 1 / Confidence: 1 | Tip Switch: 1 | # | Contact Id:   0 | X:     98 | Y:   1200 
#             | Confidence: 0 | Tip Switch: 0 | # | Contact Id:   0 | X:      0 | Y:      0 
#             | Confidence: 0 | Tip Switch: 0 | # | Contact Id:   0 | X:      0 | Y:      0 
#             | Confidence: 0 | Tip Switch: 0 | # | Contact Id:   0 | X:      0 | Y:      0 
#             | Confidence: 0 | Tip Switch: 0 | # | Contact Id:   0 | X:      0 | Y:      0 | Contact Count:    1 | Button: 0  0  0 | # | Scan Time:  16765 
E: 000000.364879 30 01 03 62 00 b0 04 00 00 00 00 00 00 00 00 00 00 00 00 00 00 00 00 00 00 00 00 01 00 7d 41
# ReportID: 1 / Confidence: 1 | Tip Switch: 1 | # | Contact Id:   0 | X:     97 | Y:   1224 
#             | Confidence: 0 | Tip Switch: 0 | # | Contact Id:   0 | X:      0 | Y:      0 
#             | Confidence: 0 | Tip Switch: 0 | # | Contact Id:   0 | X:      0 | Y:      0 
#             | Confidence: 0 | Tip Switch: 0 | # | Contact Id:   0 | X:      0 | Y:      0 
#             | Confidence: 0 | Tip Switch: 0 | # | Contact Id:   0 | X:      0 | Y:      0 | Contact Count:    1 | Button: 0  0  0 | # | Scan Time:  16836 
E: 000000.372064 30 01 03 61 00 c8 04 00 00 00 00 00 00 00 00 00 00 00 00 00 00 00 00 00 00 00 00 01 00 c4 41
# ReportID: 1 / Confidence: 1 | Tip Switch: 1 | # | Contact Id:   0 | X:     96 | Y:   1247 
#             | Confidence: 0 | Tip Switch: 0 | # | Contact Id:   0 | X:      0 | Y:      0 
#             | Confidence: 0 | Tip Switch: 0 | # | Contact Id:   0 | X:      0 | Y:      0 
#             | Confidence: 0 | Tip Switch: 0 | # | Contact Id:   0 | X:      0 | Y:      0 
#             | Confidence: 0 | Tip Switch: 0 | # | Contact Id:   0 | X:      0 | Y:      0 | Contact Count:    1 | Button: 0  0  0 | # | Scan Time:  16907 
E: 000000.379197 30 01 03 60 00 df 04 00 00 00 00 00 00 00 00 00 00 00 00 00 00 00 00 00 00 00 00 01 00 0b 42
# ReportID: 1 / Confidence: 1 | Tip Switch: 1 | # | Contact Id:   0 | X:     96 | Y:   1275 
#             | Confidence: 0 | Tip Switch: 0 | # | Contact Id:   0 | X:      0 | Y:      0 
#             | Confidence: 0 | Tip Switch: 0 | # | Contact Id:   0 | X:      0 | Y:      0 
#             | Confidence: 0 | Tip Switch: 0 | # | Contact Id:   0 | X:      0 | Y:      0 
#             | Confidence: 0 | Tip Switch: 0 | # | Contact Id:   0 | X:      0 | Y:      0 | Contact Count:    1 | Button: 0  0  0 | # | Scan Time:  16978 
E: 000000.386377 30 01 03 60 00 fb 04 00 00 00 00 00 00 00 00 00 00 00 00 00 00 00 00 00 00 00 00 01 00 52 42
# ReportID: 1 / Confidence: 1 | Tip Switch: 1 | # | Contact Id:   0 | X:     98 | Y:   1303 
#             | Confidence: 0 | Tip Switch: 0 | # | Contact Id:   0 | X:      0 | Y:      0 
#             | Confidence: 0 | Tip Switch: 0 | # | Contact Id:   0 | X:      0 | Y:      0 
#             | Confidence: 0 | Tip Switch: 0 | # | Contact Id:   0 | X:      0 | Y:      0 
#             | Confidence: 0 | Tip Switch: 0 | # | Contact Id:   0 | X:      0 | Y:      0 | Contact Count:    1 | Button: 0  0  0 | # | Scan Time:  17048 
E: 000000.393662 30 01 03 62 00 17 05 00 00 00 00 00 00 00 00 00 00 00 00 00 00 00 00 00 00 00 00 01 00 98 42
# ReportID: 1 / Confidence: 1 | Tip Switch: 1 | # | Contact Id:   0 | X:    100 | Y:   1328 
#             | Confidence: 0 | Tip Switch: 0 | # | Contact Id:   0 | X:      0 | Y:      0 
#             | Confidence: 0 | Tip Switch: 0 | # | Contact Id:   0 | X:      0 | Y:      0 
#             | Confidence: 0 | Tip Switch: 0 | # | Contact Id:   0 | X:      0 | Y:      0 
#             | Confidence: 0 | Tip Switch: 0 | # | Contact Id:   0 | X:      0 | Y:      0 | Contact Count:    1 | Button: 0  0  0 | # | Scan Time:  17119 
E: 000000.400793 30 01 03 64 00 30 05 00 00 00 00 00 00 00 00 00 00 00 00 00 00 00 00 00 00 00 00 01 00 df 42
# ReportID: 1 / Confidence: 1 | Tip Switch: 1 | # | Contact Id:   0 | X:    100 | Y:   1349 
#             | Confidence: 0 | Tip Switch: 0 | # | Contact Id:   0 | X:      0 | Y:      0 
#             | Confidence: 0 | Tip Switch: 0 | # | Contact Id:   0 | X:      0 | Y:      0 
#             | Confidence: 0 | Tip Switch: 0 | # | Contact Id:   0 | X:      0 | Y:      0 
#             | Confidence: 0 | Tip Switch: 0 | # | Contact Id:   0 | X:      0 | Y:      0 | Contact Count:    1 | Button: 0  0  0 | # | Scan Time:  17189 
E: 000000.408029 30 01 03 64 00 45 05 00 00 00 00 00 00 00 00 00 00 00 00 00 00 00 00 00 00 00 00 01 00 25 43
# ReportID: 1 / Confidence: 1 | Tip Switch: 1 | # | Contact Id:   0 | X:    100 | Y:   1367 
#             | Confidence: 0 | Tip Switch: 0 | # | Contact Id:   0 | X:      0 | Y:      0 
#             | Confidence: 0 | Tip Switch: 0 | # | Contact Id:   0 | X:      0 | Y:      0 
#             | Confidence: 0 | Tip Switch: 0 | # | Contact Id:   0 | X:      0 | Y:      0 
#             | Confidence: 0 | Tip Switch: 0 | # | Contact Id:   0 | X:      0 | Y:      0 | Contact Count:    1 | Button: 0  0  0 | # | Scan Time:  17260 
E: 000000.415160 30 01 03 64 00 57 05 00 00 00 00 00 00 00 00 00 00 00 00 00 00 00 00 00 00 00 00 01 00 6c 43
# ReportID: 1 / Confidence: 1 | Tip Switch: 1 | # | Contact Id:   0 | X:     99 | Y:   1383 
#             | Confidence: 0 | Tip Switch: 0 | # | Contact Id:   0 | X:      0 | Y:      0 
#             | Confidence: 0 | Tip Switch: 0 | # | Contact Id:   0 | X:      0 | Y:      0 
#             | Confidence: 0 | Tip Switch: 0 | # | Contact Id:   0 | X:      0 | Y:      0 
#             | Confidence: 0 | Tip Switch: 0 | # | Contact Id:   0 | X:      0 | Y:      0 | Contact Count:    1 | Button: 0  0  0 | # | Scan Time:  17331 
E: 000000.422322 30 01 03 63 00 67 05 00 00 00 00 00 00 00 00 00 00 00 00 00 00 00 00 00 00 00 00 01 00 b3 43
# ReportID: 1 / Confidence: 1 | Tip Switch: 1 | # | Contact Id:   0 | X:     98 | Y:   1398 
#             | Confidence: 0 | Tip Switch: 0 | # | Contact Id:   0 | X:      0 | Y:      0 
#             | Confidence: 0 | Tip Switch: 0 | # | Contact Id:   0 | X:      0 | Y:      0 
#             | Confidence: 0 | Tip Switch: 0 | # | Contact Id:   0 | X:      0 | Y:      0 
#             | Confidence: 0 | Tip Switch: 0 | # | Contact Id:   0 | X:      0 | Y:      0 | Contact Count:    1 | Button: 0  0  0 | # | Scan Time:  17402 
E: 000000.429518 30 01 03 62 00 76 05 00 00 00 00 00 00 00 00 00 00 00 00 00 00 00 00 00 00 00 00 01 00 fa 43
# ReportID: 1 / Confidence: 1 | Tip Switch: 1 | # | Contact Id:   0 | X:     97 | Y:   1412 
#             | Confidence: 0 | Tip Switch: 0 | # | Contact Id:   0 | X:      0 | Y:      0 
#             | Confidence: 0 | Tip Switch: 0 | # | Contact Id:   0 | X:      0 | Y:      0 
#             | Confidence: 0 | Tip Switch: 0 | # | Contact Id:   0 | X:      0 | Y:      0 
#             | Confidence: 0 | Tip Switch: 0 | # | Contact Id:   0 | X:      0 | Y:      0 | Contact Count:    1 | Button: 0  0  0 | # | Scan Time:  17473 
E: 000000.436746 30 01 03 61 00 84 05 00 00 00 00 00 00 00 00 00 00 00 00 00 00 00 00 00 00 00 00 01 00 41 44
# ReportID: 1 / Confidence: 1 | Tip Switch: 1 | # | Contact Id:   0 | X:     96 | Y:   1426 
#             | Confidence: 0 | Tip Switch: 0 | # | Contact Id:   0 | X:      0 | Y:      0 
#             | Confidence: 0 | Tip Switch: 0 | # | Contact Id:   0 | X:      0 | Y:      0 
#             | Confidence: 0 | Tip Switch: 0 | # | Contact Id:   0 | X:      0 | Y:      0 
#             | Confidence: 0 | Tip Switch: 0 | # | Contact Id:   0 | X:      0 | Y:      0 | Contact Count:    1 | Button: 0  0  0 | # | Scan Time:  17544 
E: 000000.443911 30 01 03 60 00 92 05 00 00 00 00 00 00 00 00 00 00 00 00 00 00 00 00 00 00 00 00 01 00 88 44
# ReportID: 1 / Confidence: 1 | Tip Switch: 1 | # | Contact Id:   0 | X:     95 | Y:   1437 
#             | Confidence: 0 | Tip Switch: 0 | # | Contact Id:   0 | X:      0 | Y:      0 
#             | Confidence: 0 | Tip Switch: 0 | # | Contact Id:   0 | X:      0 | Y:      0 
#             | Confidence: 0 | Tip Switch: 0 | # | Contact Id:   0 | X:      0 | Y:      0 
#             | Confidence: 0 | Tip Switch: 0 | # | Contact Id:   0 | X:      0 | Y:      0 | Contact Count:    1 | Button: 0  0  0 | # | Scan Time:  17615 
E: 000000.451081 30 01 03 5f 00 9d 05 00 00 00 00 00 00 00 00 00 00 00 00 00 00 00 00 00 00 00 00 01 00 cf 44
# ReportID: 1 / Confidence: 1 | Tip Switch: 1 | # | Contact Id:   0 | X:     94 | Y:   1450 
#             | Confidence: 0 | Tip Switch: 0 | # | Contact Id:   0 | X:      0 | Y:      0 
#             | Confidence: 0 | Tip Switch: 0 | # | Contact Id:   0 | X:      0 | Y:      0 
#             | Confidence: 0 | Tip Switch: 0 | # | Contact Id:   0 | X:      0 | Y:      0 
#             | Confidence: 0 | Tip Switch: 0 | # | Contact Id:   0 | X:      0 | Y:      0 | Contact Count:    1 | Button: 0  0  0 | # | Scan Time:  17686 
E: 000000.458224 30 01 03 5e 00 aa 05 00 00 00 00 00 00 00 00 00 00 00 00 00 00 00 00 00 00 00 00 01 00 16 45
# ReportID: 1 / Confidence: 1 | Tip Switch: 1 | # | Contact Id:   0 | X:     92 | Y:   1461 
#             | Confidence: 0 | Tip Switch: 0 | # | Contact Id:   0 | X:      0 | Y:      0 
#             | Confidence: 0 | Tip Switch: 0 | # | Contact Id:   0 | X:      0 | Y:      0 
#             | Confidence: 0 | Tip Switch: 0 | # | Contact Id:   0 | X:      0 | Y:      0 
#             | Confidence: 0 | Tip Switch: 0 | # | Contact Id:   0 | X:      0 | Y:      0 | Contact Count:    1 | Button: 0  0  0 | # | Scan Time:  17757 
E: 000000.465458 30 01 03 5c 00 b5 05 00 00 00 00 00 00 00 00 00 00 00 00 00 00 00 00 00 00 00 00 01 00 5d 45
# ReportID: 1 / Confidence: 1 | Tip Switch: 1 | # | Contact Id:   0 | X:     90 | Y:   1470 
#             | Confidence: 0 | Tip Switch: 0 | # | Contact Id:   0 | X:      0 | Y:      0 
#             | Confidence: 0 | Tip Switch: 0 | # | Contact Id:   0 | X:      0 | Y:      0 
#             | Confidence: 0 | Tip Switch: 0 | # | Contact Id:   0 | X:      0 | Y:      0 
#             | Confidence: 0 | Tip Switch: 0 | # | Contact Id:   0 | X:      0 | Y:      0 | Contact Count:    1 | Button: 0  0  0 | # | Scan Time:  17828 
E: 000000.472610 30 01 03 5a 00 be 05 00 00 00 00 00 00 00 00 00 00 00 00 00 00 00 00 00 00 00 00 01 00 a4 45
# ReportID: 1 / Confidence: 1 | Tip Switch: 1 | # | Contact Id:   0 | X:     90 | Y:   1479 
#             | Confidence: 0 | Tip Switch: 0 | # | Contact Id:   0 | X:      0 | Y:      0 
#             | Confidence: 0 | Tip Switch: 0 | # | Contact Id:   0 | X:      0 | Y:      0 
#             | Confidence: 0 | Tip Switch: 0 | # | Contact Id:   0 | X:      0 | Y:      0 
#             | Confidence: 0 | Tip Switch: 0 | # | Contact Id:   0 | X:      0 | Y:      0 | Contact Count:    1 | Button: 0  0  0 | # | Scan Time:  17899 
E: 000000.479784 30 01 03 5a 00 c7 05 00 00 00 00 00 00 00 00 00 00 00 00 00 00 00 00 00 00 00 00 01 00 eb 45
# ReportID: 1 / Confidence: 1 | Tip Switch: 1 | # | Contact Id:   0 | X:     89 | Y:   1486 
#             | Confidence: 0 | Tip Switch: 0 | # | Contact Id:   0 | X:      0 | Y:      0 
#             | Confidence: 0 | Tip Switch: 0 | # | Contact Id:   0 | X:      0 | Y:      0 
#             | Confidence: 0 | Tip Switch: 0 | # | Contact Id:   0 | X:      0 | Y:      0 
#             | Confidence: 0 | Tip Switch: 0 | # | Contact Id:   0 | X:      0 | Y:      0 | Contact Count:    1 | Button: 0  0  0 | # | Scan Time:  17970 
E: 000000.487082 30 01 03 59 00 ce 05 00 00 00 00 00 00 00 00 00 00 00 00 00 00 00 00 00 00 00 00 01 00 32 46
# ReportID: 1 / Confidence: 1 | Tip Switch: 1 | # | Contact Id:   0 | X:     89 | Y:   1492 
#             | Confidence: 0 | Tip Switch: 0 | # | Contact Id:   0 | X:      0 | Y:      0 
#             | Confidence: 0 | Tip Switch: 0 | # | Contact Id:   0 | X:      0 | Y:      0 
#             | Confidence: 0 | Tip Switch: 0 | # | Contact Id:   0 | X:      0 | Y:      0 
#             | Confidence: 0 | Tip Switch: 0 | # | Contact Id:   0 | X:      0 | Y:      0 | Contact Count:    1 | Button: 0  0  0 | # | Scan Time:  18041 
E: 000000.494148 30 01 03 59 00 d4 05 00 00 00 00 00 00 00 00 00 00 00 00 00 00 00 00 00 00 00 00 01 00 79 46
# ReportID: 1 / Confidence: 1 | Tip Switch: 1 | # | Contact Id:   0 | X:     89 | Y:   1496 
#             | Confidence: 0 | Tip Switch: 0 | # | Contact Id:   0 | X:      0 | Y:      0 
#             | Confidence: 0 | Tip Switch: 0 | # | Contact Id:   0 | X:      0 | Y:      0 
#             | Confidence: 0 | Tip Switch: 0 | # | Contact Id:   0 | X:      0 | Y:      0 
#             | Confidence: 0 | Tip Switch: 0 | # | Contact Id:   0 | X:      0 | Y:      0 | Contact Count:    1 | Button: 0  0  0 | # | Scan Time:  18111 
E: 000000.501353 30 01 03 59 00 d8 05 00 00 00 00 00 00 00 00 00 00 00 00 00 00 00 00 00 00 00 00 01 00 bf 46
# ReportID: 1 / Confidence: 1 | Tip Switch: 1 | # | Contact Id:   0 | X:     89 | Y:   1498 
#             | Confidence: 0 | Tip Switch: 0 | # | Contact Id:   0 | X:      0 | Y:      0 
#             | Confidence: 0 | Tip Switch: 0 | # | Contact Id:   0 | X:      0 | Y:      0 
#             | Confidence: 0 | Tip Switch: 0 | # | Contact Id:   0 | X:      0 | Y:      0 
#             | Confidence: 0 | Tip Switch: 0 | # | Contact Id:   0 | X:      0 | Y:      0 | Contact Count:    1 | Button: 0  0  0 | # | Scan Time:  18181 
E: 000000.508540 30 01 03 59 00 da 05 00 00 00 00 00 00 00 00 00 00 00 00 00 00 00 00 00 00 00 00 01 00 05 47
# ReportID: 1 / Confidence: 1 | Tip Switch: 1 | # | Contact Id:   0 | X:     89 | Y:   1502 
#             | Confidence: 0 | Tip Switch: 0 | # | Contact Id:   0 | X:      0 | Y:      0 
#             | Confidence: 0 | Tip Switch: 0 | # | Contact Id:   0 | X:      0 | Y:      0 
#             | Confidence: 0 | Tip Switch: 0 | # | Contact Id:   0 | X:      0 | Y:      0 
#             | Confidence: 0 | Tip Switch: 0 | # | Contact Id:   0 | X:      0 | Y:      0 | Contact Count:    1 | Button: 0  0  0 | # | Scan Time:  18252 
E: 000000.515737 30 01 03 59 00 de 05 00 00 00 00 00 00 00 00 00 00 00 00 00 00 00 00 00 00 00 00 01 00 4c 47
# ReportID: 1 / Confidence: 1 | Tip Switch: 1 | # | Contact Id:   0 | X:     90 | Y:   1505 
#             | Confidence: 0 | Tip Switch: 0 | # | Contact Id:   0 | X:      0 | Y:      0 
#             | Confidence: 0 | Tip Switch: 0 | # | Contact Id:   0 | X:      0 | Y:      0 
#             | Confidence: 0 | Tip Switch: 0 | # | Contact Id:   0 | X:      0 | Y:      0 
#             | Confidence: 0 | Tip Switch: 0 | # | Contact Id:   0 | X:      0 | Y:      0 | Contact Count:    1 | Button: 0  0  0 | # | Scan Time:  18323 
E: 000000.522861 30 01 03 5a 00 e1 05 00 00 00 00 00 00 00 00 00 00 00 00 00 00 00 00 00 00 00 00 01 00 93 47
# ReportID: 1 / Confidence: 1 | Tip Switch: 1 | # | Contact Id:   0 | X:     91 | Y:   1505 
#             | Confidence: 0 | Tip Switch: 0 | # | Contact Id:   0 | X:      0 | Y:      0 
#             | Confidence: 0 | Tip Switch: 0 | # | Contact Id:   0 | X:      0 | Y:      0 
#             | Confidence: 0 | Tip Switch: 0 | # | Contact Id:   0 | X:      0 | Y:      0 
#             | Confidence: 0 | Tip Switch: 0 | # | Contact Id:   0 | X:      0 | Y:      0 | Contact Count:    1 | Button: 0  0  0 | # | Scan Time:  18393 
E: 000000.530086 30 01 03 5b 00 e1 05 00 00 00 00 00 00 00 00 00 00 00 00 00 00 00 00 00 00 00 00 01 00 d9 47
# ReportID: 1 / Confidence: 1 | Tip Switch: 1 | # | Contact Id:   0 | X:     92 | Y:   1505 
#             | Confidence: 0 | Tip Switch: 0 | # | Contact Id:   0 | X:      0 | Y:      0 
#             | Confidence: 0 | Tip Switch: 0 | # | Contact Id:   0 | X:      0 | Y:      0 
#             | Confidence: 0 | Tip Switch: 0 | # | Contact Id:   0 | X:      0 | Y:      0 
#             | Confidence: 0 | Tip Switch: 0 | # | Contact Id:   0 | X:      0 | Y:      0 | Contact Count:    1 | Button: 0  0  0 | # | Scan Time:  18464 
E: 000000.537266 30 01 03 5c 00 e1 05 00 00 00 00 00 00 00 00 00 00 00 00 00 00 00 00 00 00 00 00 01 00 20 48
# ReportID: 1 / Confidence: 1 | Tip Switch: 1 | # | Contact Id:   0 | X:     92 | Y:   1506 
#             | Confidence: 0 | Tip Switch: 0 | # | Contact Id:   0 | X:      0 | Y:      0 
#             | Confidence: 0 | Tip Switch: 0 | # | Contact Id:   0 | X:      0 | Y:      0 
#             | Confidence: 0 | Tip Switch: 0 | # | Contact Id:   0 | X:      0 | Y:      0 
#             | Confidence: 0 | Tip Switch: 0 | # | Contact Id:   0 | X:      0 | Y:      0 | Contact Count:    1 | Button: 0  0  0 | # | Scan Time:  18535 
E: 000000.544463 30 01 03 5c 00 e2 05 00 00 00 00 00 00 00 00 00 00 00 00 00 00 00 00 00 00 00 00 01 00 67 48
# ReportID: 1 / Confidence: 1 | Tip Switch: 1 | # | Contact Id:   0 | X:     93 | Y:   1506 
#             | Confidence: 0 | Tip Switch: 0 | # | Contact Id:   0 | X:      0 | Y:      0 
#             | Confidence: 0 | Tip Switch: 0 | # | Contact Id:   0 | X:      0 | Y:      0 
#             | Confidence: 0 | Tip Switch: 0 | # | Contact Id:   0 | X:      0 | Y:      0 
#             | Confidence: 0 | Tip Switch: 0 | # | Contact Id:   0 | X:      0 | Y:      0 | Contact Count:    1 | Button: 0  0  0 | # | Scan Time:  18606 
E: 000000.551647 30 01 03 5d 00 e2 05 00 00 00 00 00 00 00 00 00 00 00 00 00 00 00 00 00 00 00 00 01 00 ae 48
# ReportID: 1 / Confidence: 1 | Tip Switch: 1 | # | Contact Id:   0 | X:     94 | Y:   1506 
#             | Confidence: 0 | Tip Switch: 0 | # | Contact Id:   0 | X:      0 | Y:      0 
#             | Confidence: 0 | Tip Switch: 0 | # | Contact Id:   0 | X:      0 | Y:      0 
#             | Confidence: 0 | Tip Switch: 0 | # | Contact Id:   0 | X:      0 | Y:      0 
#             | Confidence: 0 | Tip Switch: 0 | # | Contact Id:   0 | X:      0 | Y:      0 | Contact Count:    1 | Button: 0  0  0 | # | Scan Time:  18676 
E: 000000.558817 30 01 03 5e 00 e2 05 00 00 00 00 00 00 00 00 00 00 00 00 00 00 00 00 00 00 00 00 01 00 f4 48
# ReportID: 1 / Confidence: 1 | Tip Switch: 1 | # | Contact Id:   0 | X:     94 | Y:   1506 
#             | Confidence: 0 | Tip Switch: 0 | # | Contact Id:   0 | X:      0 | Y:      0 
#             | Confidence: 0 | Tip Switch: 0 | # | Contact Id:   0 | X:      0 | Y:      0 
#             | Confidence: 0 | Tip Switch: 0 | # | Contact Id:   0 | X:      0 | Y:      0 
#             | Confidence: 0 | Tip Switch: 0 | # | Contact Id:   0 | X:      0 | Y:      0 | Contact Count:    1 | Button: 0  0  0 | # | Scan Time:  18748 
E: 000000.566105 30 01 03 5e 00 e2 05 00 00 00 00 00 00 00 00 00 00 00 00 00 00 00 00 00 00 00 00 01 00 3c 49
# ReportID: 1 / Confidence: 1 | Tip Switch: 1 | # | Contact Id:   0 | X:     95 | Y:   1506 
#             | Confidence: 0 | Tip Switch: 0 | # | Contact Id:   0 | X:      0 | Y:      0 
#             | Confidence: 0 | Tip Switch: 0 | # | Contact Id:   0 | X:      0 | Y:      0 
#             | Confidence: 0 | Tip Switch: 0 | # | Contact Id:   0 | X:      0 | Y:      0 
#             | Confidence: 0 | Tip Switch: 0 | # | Contact Id:   0 | X:      0 | Y:      0 | Contact Count:    1 | Button: 0  0  0 | # | Scan Time:  18818 
E: 000000.573297 30 01 03 5f 00 e2 05 00 00 00 00 00 00 00 00 00 00 00 00 00 00 00 00 00 00 00 00 01 00 82 49
# ReportID: 1 / Confidence: 1 | Tip Switch: 1 | # | Contact Id:   0 | X:     96 | Y:   1506 
#             | Confidence: 0 | Tip Switch: 0 | # | Contact Id:   0 | X:      0 | Y:      0 
#             | Confidence: 0 | Tip Switch: 0 | # | Contact Id:   0 | X:      0 | Y:      0 
#             | Confidence: 0 | Tip Switch: 0 | # | Contact Id:   0 | X:      0 | Y:      0 
#             | Confidence: 0 | Tip Switch: 0 | # | Contact Id:   0 | X:      0 | Y:      0 | Contact Count:    1 | Button: 0  0  0 | # | Scan Time:  18888 
E: 000000.580504 30 01 03 60 00 e2 05 00 00 00 00 00 00 00 00 00 00 00 00 00 00 00 00 00 00 00 00 01 00 c8 49
# ReportID: 1 / Confidence: 1 | Tip Switch: 1 | # | Contact Id:   0 | X:     98 | Y:   1507 
#             | Confidence: 0 | Tip Switch: 0 | # | Contact Id:   0 | X:      0 | Y:      0 
#             | Confidence: 0 | Tip Switch: 0 | # | Contact Id:   0 | X:      0 | Y:      0 
#             | Confidence: 0 | Tip Switch: 0 | # | Contact Id:   0 | X:      0 | Y:      0 
#             | Confidence: 0 | Tip Switch: 0 | # | Contact Id:   0 | X:      0 | Y:      0 | Contact Count:    1 | Button: 0  0  0 | # | Scan Time:  18960 
E: 000000.587651 30 01 03 62 00 e3 05 00 00 00 00 00 00 00 00 00 00 00 00 00 00 00 00 00 00 00 00 01 00 10 4a
# ReportID: 1 / Confidence: 1 | Tip Switch: 1 | # | Contact Id:   0 | X:     99 | Y:   1507 
#             | Confidence: 0 | Tip Switch: 0 | # | Contact Id:   0 | X:      0 | Y:      0 
#             | Confidence: 0 | Tip Switch: 0 | # | Contact Id:   0 | X:      0 | Y:      0 
#             | Confidence: 0 | Tip Switch: 0 | # | Contact Id:   0 | X:      0 | Y:      0 
#             | Confidence: 0 | Tip Switch: 0 | # | Contact Id:   0 | X:      0 | Y:      0 | Contact Count:    1 | Button: 0  0  0 | # | Scan Time:  19030 
E: 000000.594972 30 01 03 63 00 e3 05 00 00 00 00 00 00 00 00 00 00 00 00 00 00 00 00 00 00 00 00 01 00 56 4a
# ReportID: 1 / Confidence: 1 | Tip Switch: 1 | # | Contact Id:   0 | X:    100 | Y:   1508 
#             | Confidence: 0 | Tip Switch: 0 | # | Contact Id:   0 | X:      0 | Y:      0 
#             | Confidence: 0 | Tip Switch: 0 | # | Contact Id:   0 | X:      0 | Y:      0 
#             | Confidence: 0 | Tip Switch: 0 | # | Contact Id:   0 | X:      0 | Y:      0 
#             | Confidence: 0 | Tip Switch: 0 | # | Contact Id:   0 | X:      0 | Y:      0 | Contact Count:    1 | Button: 0  0  0 | # | Scan Time:  19101 
E: 000000.602274 30 01 03 64 00 e4 05 00 00 00 00 00 00 00 00 00 00 00 00 00 00 00 00 00 00 00 00 01 00 9d 4a
# ReportID: 1 / Confidence: 1 | Tip Switch: 1 | # | Contact Id:   0 | X:    101 | Y:   1508 
#             | Confidence: 0 | Tip Switch: 0 | # | Contact Id:   0 | X:      0 | Y:      0 
#             | Confidence: 0 | Tip Switch: 0 | # | Contact Id:   0 | X:      0 | Y:      0 
#             | Confidence: 0 | Tip Switch: 0 | # | Contact Id:   0 | X:      0 | Y:      0 
#             | Confidence: 0 | Tip Switch: 0 | # | Contact Id:   0 | X:      0 | Y:      0 | Contact Count:    1 | Button: 0  0  0 | # | Scan Time:  19171 
E: 000000.609105 30 01 03 65 00 e4 05 00 00 00 00 00 00 00 00 00 00 00 00 00 00 00 00 00 00 00 00 01 00 e3 4a
# ReportID: 1 / Confidence: 1 | Tip Switch: 1 | # | Contact Id:   0 | X:    102 | Y:   1508 
#             | Confidence: 0 | Tip Switch: 0 | # | Contact Id:   0 | X:      0 | Y:      0 
#             | Confidence: 0 | Tip Switch: 0 | # | Contact Id:   0 | X:      0 | Y:      0 
#             | Confidence: 0 | Tip Switch: 0 | # | Contact Id:   0 | X:      0 | Y:      0 
#             | Confidence: 0 | Tip Switch: 0 | # | Contact Id:   0 | X:      0 | Y:      0 | Contact Count:    1 | Button: 0  0  0 | # | Scan Time:  19241 
E: 000000.617564 30 01 03 66 00 e4 05 00 00 00 00 00 00 00 00 00 00 00 00 00 00 00 00 00 00 00 00 01 00 29 4b
# ReportID: 1 / Confidence: 1 | Tip Switch: 1 | # | Contact Id:   0 | X:    103 | Y:   1508 
#             | Confidence: 0 | Tip Switch: 0 | # | Contact Id:   0 | X:      0 | Y:      0 
#             | Confidence: 0 | Tip Switch: 0 | # | Contact Id:   0 | X:      0 | Y:      0 
#             | Confidence: 0 | Tip Switch: 0 | # | Contact Id:   0 | X:      0 | Y:      0 
#             | Confidence: 0 | Tip Switch: 0 | # | Contact Id:   0 | X:      0 | Y:      0 | Contact Count:    1 | Button: 0  0  0 | # | Scan Time:  19312 
E: 000000.623649 30 01 03 67 00 e4 05 00 00 00 00 00 00 00 00 00 00 00 00 00 00 00 00 00 00 00 00 01 00 70 4b
# ReportID: 1 / Confidence: 1 | Tip Switch: 1 | # | Contact Id:   0 | X:    105 | Y:   1508 
#             | Confidence: 0 | Tip Switch: 0 | # | Contact Id:   0 | X:      0 | Y:      0 
#             | Confidence: 0 | Tip Switch: 0 | # | Contact Id:   0 | X:      0 | Y:      0 
#             | Confidence: 0 | Tip Switch: 0 | # | Contact Id:   0 | X:      0 | Y:      0 
#             | Confidence: 0 | Tip Switch: 0 | # | Contact Id:   0 | X:      0 | Y:      0 | Contact Count:    1 | Button: 0  0  0 | # | Scan Time:  19383 
E: 000000.630804 30 01 03 69 00 e4 05 00 00 00 00 00 00 00 00 00 00 00 00 00 00 00 00 00 00 00 00 01 00 b7 4b
# ReportID: 1 / Confidence: 1 | Tip Switch: 1 | # | Contact Id:   0 | X:    108 | Y:   1508 
#             | Confidence: 0 | Tip Switch: 0 | # | Contact Id:   0 | X:      0 | Y:      0 
#             | Confidence: 0 | Tip Switch: 0 | # | Contact Id:   0 | X:      0 | Y:      0 
#             | Confidence: 0 | Tip Switch: 0 | # | Contact Id:   0 | X:      0 | Y:      0 
#             | Confidence: 0 | Tip Switch: 0 | # | Contact Id:   0 | X:      0 | Y:      0 | Contact Count:    1 | Button: 0  0  0 | # | Scan Time:  19454 
E: 000000.637960 30 01 03 6c 00 e4 05 00 00 00 00 00 00 00 00 00 00 00 00 00 00 00 00 00 00 00 00 01 00 fe 4b
# ReportID: 1 / Confidence: 1 | Tip Switch: 1 | # | Contact Id:   0 | X:    111 | Y:   1508 
#             | Confidence: 0 | Tip Switch: 0 | # | Contact Id:   0 | X:      0 | Y:      0 
#             | Confidence: 0 | Tip Switch: 0 | # | Contact Id:   0 | X:      0 | Y:      0 
#             | Confidence: 0 | Tip Switch: 0 | # | Contact Id:   0 | X:      0 | Y:      0 
#             | Confidence: 0 | Tip Switch: 0 | # | Contact Id:   0 | X:      0 | Y:      0 | Contact Count:    1 | Button: 0  0  0 | # | Scan Time:  19525 
E: 000000.645212 30 01 03 6f 00 e4 05 00 00 00 00 00 00 00 00 00 00 00 00 00 00 00 00 00 00 00 00 01 00 45 4c
# ReportID: 1 / Confidence: 1 | Tip Switch: 1 | # | Contact Id:   0 | X:    116 | Y:   1508 
#             | Confidence: 0 | Tip Switch: 0 | # | Contact Id:   0 | X:      0 | Y:      0 
#             | Confidence: 0 | Tip Switch: 0 | # | Contact Id:   0 | X:      0 | Y:      0 
#             | Confidence: 0 | Tip Switch: 0 | # | Contact Id:   0 | X:      0 | Y:      0 
#             | Confidence: 0 | Tip Switch: 0 | # | Contact Id:   0 | X:      0 | Y:      0 | Contact Count:    1 | Button: 0  0  0 | # | Scan Time:  19596 
E: 000000.652369 30 01 03 74 00 e4 05 00 00 00 00 00 00 00 00 00 00 00 00 00 00 00 00 00 00 00 00 01 00 8c 4c
# ReportID: 1 / Confidence: 1 | Tip Switch: 1 | # | Contact Id:   0 | X:    121 | Y:   1509 
#             | Confidence: 0 | Tip Switch: 0 | # | Contact Id:   0 | X:      0 | Y:      0 
#             | Confidence: 0 | Tip Switch: 0 | # | Contact Id:   0 | X:      0 | Y:      0 
#             | Confidence: 0 | Tip Switch: 0 | # | Contact Id:   0 | X:      0 | Y:      0 
#             | Confidence: 0 | Tip Switch: 0 | # | Contact Id:   0 | X:      0 | Y:      0 | Contact Count:    1 | Button: 0  0  0 | # | Scan Time:  19667 
E: 000000.659560 30 01 03 79 00 e5 05 00 00 00 00 00 00 00 00 00 00 00 00 00 00 00 00 00 00 00 00 01 00 d3 4c
# ReportID: 1 / Confidence: 1 | Tip Switch: 1 | # | Contact Id:   0 | X:    129 | Y:   1509 
#             | Confidence: 0 | Tip Switch: 0 | # | Contact Id:   0 | X:      0 | Y:      0 
#             | Confidence: 0 | Tip Switch: 0 | # | Contact Id:   0 | X:      0 | Y:      0 
#             | Confidence: 0 | Tip Switch: 0 | # | Contact Id:   0 | X:      0 | Y:      0 
#             | Confidence: 0 | Tip Switch: 0 | # | Contact Id:   0 | X:      0 | Y:      0 | Contact Count:    1 | Button: 0  0  0 | # | Scan Time:  19738 
E: 000000.666732 30 01 03 81 00 e5 05 00 00 00 00 00 00 00 00 00 00 00 00 00 00 00 00 00 00 00 00 01 00 1a 4d
# ReportID: 1 / Confidence: 1 | Tip Switch: 1 | # | Contact Id:   0 | X:    137 | Y:   1510 
#             | Confidence: 0 | Tip Switch: 0 | # | Contact Id:   0 | X:      0 | Y:      0 
#             | Confidence: 0 | Tip Switch: 0 | # | Contact Id:   0 | X:      0 | Y:      0 
#             | Confidence: 0 | Tip Switch: 0 | # | Contact Id:   0 | X:      0 | Y:      0 
#             | Confidence: 0 | Tip Switch: 0 | # | Contact Id:   0 | X:      0 | Y:      0 | Contact Count:    1 | Button: 0  0  0 | # | Scan Time:  19809 
E: 000000.673749 30 01 03 89 00 e6 05 00 00 00 00 00 00 00 00 00 00 00 00 00 00 00 00 00 00 00 00 01 00 61 4d
# ReportID: 1 / Confidence: 1 | Tip Switch: 1 | # | Contact Id:   0 | X:    146 | Y:   1512 
#             | Confidence: 0 | Tip Switch: 0 | # | Contact Id:   0 | X:      0 | Y:      0 
#             | Confidence: 0 | Tip Switch: 0 | # | Contact Id:   0 | X:      0 | Y:      0 
#             | Confidence: 0 | Tip Switch: 0 | # | Contact Id:   0 | X:      0 | Y:      0 
#             | Confidence: 0 | Tip Switch: 0 | # | Contact Id:   0 | X:      0 | Y:      0 | Contact Count:    1 | Button: 0  0  0 | # | Scan Time:  19880 
E: 000000.681028 30 01 03 92 00 e8 05 00 00 00 00 00 00 00 00 00 00 00 00 00 00 00 00 00 00 00 00 01 00 a8 4d
# ReportID: 1 / Confidence: 1 | Tip Switch: 1 | # | Contact Id:   0 | X:    158 | Y:   1516 
#             | Confidence: 0 | Tip Switch: 0 | # | Contact Id:   0 | X:      0 | Y:      0 
#             | Confidence: 0 | Tip Switch: 0 | # | Contact Id:   0 | X:      0 | Y:      0 
#             | Confidence: 0 | Tip Switch: 0 | # | Contact Id:   0 | X:      0 | Y:      0 
#             | Confidence: 0 | Tip Switch: 0 | # | Contact Id:   0 | X:      0 | Y:      0 | Contact Count:    1 | Button: 0  0  0 | # | Scan Time:  19951 
E: 000000.688176 30 01 03 9e 00 ec 05 00 00 00 00 00 00 00 00 00 00 00 00 00 00 00 00 00 00 00 00 01 00 ef 4d
# ReportID: 1 / Confidence: 1 | Tip Switch: 1 | # | Contact Id:   0 | X:    173 | Y:   1518 
#             | Confidence: 0 | Tip Switch: 0 | # | Contact Id:   0 | X:      0 | Y:      0 
#             | Confidence: 0 | Tip Switch: 0 | # | Contact Id:   0 | X:      0 | Y:      0 
#             | Confidence: 0 | Tip Switch: 0 | # | Contact Id:   0 | X:      0 | Y:      0 
#             | Confidence: 0 | Tip Switch: 0 | # | Contact Id:   0 | X:      0 | Y:      0 | Contact Count:    1 | Button: 0  0  0 | # | Scan Time:  20022 
E: 000000.695363 30 01 03 ad 00 ee 05 00 00 00 00 00 00 00 00 00 00 00 00 00 00 00 00 00 00 00 00 01 00 36 4e
# ReportID: 1 / Confidence: 1 | Tip Switch: 1 | # | Contact Id:   0 | X:    191 | Y:   1521 
#             | Confidence: 0 | Tip Switch: 0 | # | Contact Id:   0 | X:      0 | Y:      0 
#             | Confidence: 0 | Tip Switch: 0 | # | Contact Id:   0 | X:      0 | Y:      0 
#             | Confidence: 0 | Tip Switch: 0 | # | Contact Id:   0 | X:      0 | Y:      0 
#             | Confidence: 0 | Tip Switch: 0 | # | Contact Id:   0 | X:      0 | Y:      0 | Contact Count:    1 | Button: 0  0  0 | # | Scan Time:  20093 
E: 000000.702582 30 01 03 bf 00 f1 05 00 00 00 00 00 00 00 00 00 00 00 00 00 00 00 00 00 00 00 00 01 00 7d 4e
# ReportID: 1 / Confidence: 1 | Tip Switch: 1 | # | Contact Id:   0 | X:    213 | Y:   1525 
#             | Confidence: 0 | Tip Switch: 0 | # | Contact Id:   0 | X:      0 | Y:      0 
#             | Confidence: 0 | Tip Switch: 0 | # | Contact Id:   0 | X:      0 | Y:      0 
#             | Confidence: 0 | Tip Switch: 0 | # | Contact Id:   0 | X:      0 | Y:      0 
#             | Confidence: 0 | Tip Switch: 0 | # | Contact Id:   0 | X:      0 | Y:      0 | Contact Count:    1 | Button: 0  0  0 | # | Scan Time:  20164 
E: 000000.710210 30 01 03 d5 00 f5 05 00 00 00 00 00 00 00 00 00 00 00 00 00 00 00 00 00 00 00 00 01 00 c4 4e
# ReportID: 1 / Confidence: 1 | Tip Switch: 1 | # | Contact Id:   0 | X:    237 | Y:   1526 
#             | Confidence: 0 | Tip Switch: 0 | # | Contact Id:   0 | X:      0 | Y:      0 
#             | Confidence: 0 | Tip Switch: 0 | # | Contact Id:   0 | X:      0 | Y:      0 
#             | Confidence: 0 | Tip Switch: 0 | # | Contact Id:   0 | X:      0 | Y:      0 
#             | Confidence: 0 | Tip Switch: 0 | # | Contact Id:   0 | X:      0 | Y:      0 | Contact Count:    1 | Button: 0  0  0 | # | Scan Time:  20234 
E: 000000.717022 30 01 03 ed 00 f6 05 00 00 00 00 00 00 00 00 00 00 00 00 00 00 00 00 00 00 00 00 01 00 0a 4f
# ReportID: 1 / Confidence: 1 | Tip Switch: 1 | # | Contact Id:   0 | X:    265 | Y:   1529 
#             | Confidence: 0 | Tip Switch: 0 | # | Contact Id:   0 | X:      0 | Y:      0 
#             | Confidence: 0 | Tip Switch: 0 | # | Contact Id:   0 | X:      0 | Y:      0 
#             | Confidence: 0 | Tip Switch: 0 | # | Contact Id:   0 | X:      0 | Y:      0 
#             | Confidence: 0 | Tip Switch: 0 | # | Contact Id:   0 | X:      0 | Y:      0 | Contact Count:    1 | Button: 0  0  0 | # | Scan Time:  20305 
E: 000000.724182 30 01 03 09 01 f9 05 00 00 00 00 00 00 00 00 00 00 00 00 00 00 00 00 00 00 00 00 01 00 51 4f
# ReportID: 1 / Confidence: 1 | Tip Switch: 1 | # | Contact Id:   0 | X:    293 | Y:   1531 
#             | Confidence: 0 | Tip Switch: 0 | # | Contact Id:   0 | X:      0 | Y:      0 
#             | Confidence: 0 | Tip Switch: 0 | # | Contact Id:   0 | X:      0 | Y:      0 
#             | Confidence: 0 | Tip Switch: 0 | # | Contact Id:   0 | X:      0 | Y:      0 
#             | Confidence: 0 | Tip Switch: 0 | # | Contact Id:   0 | X:      0 | Y:      0 | Contact Count:    1 | Button: 0  0  0 | # | Scan Time:  20376 
E: 000000.731271 30 01 03 25 01 fb 05 00 00 00 00 00 00 00 00 00 00 00 00 00 00 00 00 00 00 00 00 01 00 98 4f
# ReportID: 1 / Confidence: 1 | Tip Switch: 1 | # | Contact Id:   0 | X:    323 | Y:   1533 
#             | Confidence: 0 | Tip Switch: 0 | # | Contact Id:   0 | X:      0 | Y:      0 
#             | Confidence: 0 | Tip Switch: 0 | # | Contact Id:   0 | X:      0 | Y:      0 
#             | Confidence: 0 | Tip Switch: 0 | # | Contact Id:   0 | X:      0 | Y:      0 
#             | Confidence: 0 | Tip Switch: 0 | # | Contact Id:   0 | X:      0 | Y:      0 | Contact Count:    1 | Button: 0  0  0 | # | Scan Time:  20447 
E: 000000.738482 30 01 03 43 01 fd 05 00 00 00 00 00 00 00 00 00 00 00 00 00 00 00 00 00 00 00 00 01 00 df 4f
# ReportID: 1 / Confidence: 1 | Tip Switch: 1 | # | Contact Id:   0 | X:    354 | Y:   1534 
#             | Confidence: 0 | Tip Switch: 0 | # | Contact Id:   0 | X:      0 | Y:      0 
#             | Confidence: 0 | Tip Switch: 0 | # | Contact Id:   0 | X:      0 | Y:      0 
#             | Confidence: 0 | Tip Switch: 0 | # | Contact Id:   0 | X:      0 | Y:      0 
#             | Confidence: 0 | Tip Switch: 0 | # | Contact Id:   0 | X:      0 | Y:      0 | Contact Count:    1 | Button: 0  0  0 | # | Scan Time:  20518 
E: 000000.746124 30 01 03 62 01 fe 05 00 00 00 00 00 00 00 00 00 00 00 00 00 00 00 00 00 00 00 00 01 00 26 50
# ReportID: 1 / Confidence: 1 | Tip Switch: 1 | # | Contact Id:   0 | X:    386 | Y:   1534 
#             | Confidence: 0 | Tip Switch: 0 | # | Contact Id:   0 | X:      0 | Y:      0 
#             | Confidence: 0 | Tip Switch: 0 | # | Contact Id:   0 | X:      0 | Y:      0 
#             | Confidence: 0 | Tip Switch: 0 | # | Contact Id:   0 | X:      0 | Y:      0 
#             | Confidence: 0 | Tip Switch: 0 | # | Contact Id:   0 | X:      0 | Y:      0 | Contact Count:    1 | Button: 0  0  0 | # | Scan Time:  20589 
E: 000000.753276 30 01 03 82 01 fe 05 00 00 00 00 00 00 00 00 00 00 00 00 00 00 00 00 00 00 00 00 01 00 6d 50
# ReportID: 1 / Confidence: 1 | Tip Switch: 1 | # | Contact Id:   0 | X:    421 | Y:   1535 
#             | Confidence: 0 | Tip Switch: 0 | # | Contact Id:   0 | X:      0 | Y:      0 
#             | Confidence: 0 | Tip Switch: 0 | # | Contact Id:   0 | X:      0 | Y:      0 
#             | Confidence: 0 | Tip Switch: 0 | # | Contact Id:   0 | X:      0 | Y:      0 
#             | Confidence: 0 | Tip Switch: 0 | # | Contact Id:   0 | X:      0 | Y:      0 | Contact Count:    1 | Button: 0  0  0 | # | Scan Time:  20660 
E: 000000.760174 30 01 03 a5 01 ff 05 00 00 00 00 00 00 00 00 00 00 00 00 00 00 00 00 00 00 00 00 01 00 b4 50
# ReportID: 1 / Confidence: 1 | Tip Switch: 1 | # | Contact Id:   0 | X:    459 | Y:   1535 
#             | Confidence: 0 | Tip Switch: 0 | # | Contact Id:   0 | X:      0 | Y:      0 
#             | Confidence: 0 | Tip Switch: 0 | # | Contact Id:   0 | X:      0 | Y:      0 
#             | Confidence: 0 | Tip Switch: 0 | # | Contact Id:   0 | X:      0 | Y:      0 
#             | Confidence: 0 | Tip Switch: 0 | # | Contact Id:   0 | X:      0 | Y:      0 | Contact Count:    1 | Button: 0  0  0 | # | Scan Time:  20731 
E: 000000.767237 30 01 03 cb 01 ff 05 00 00 00 00 00 00 00 00 00 00 00 00 00 00 00 00 00 00 00 00 01 00 fb 50
# ReportID: 1 / Confidence: 1 | Tip Switch: 1 | # | Contact Id:   0 | X:    501 | Y:   1535 
#             | Confidence: 0 | Tip Switch: 0 | # | Contact Id:   0 | X:      0 | Y:      0 
#             | Confidence: 0 | Tip Switch: 0 | # | Contact Id:   0 | X:      0 | Y:      0 
#             | Confidence: 0 | Tip Switch: 0 | # | Contact Id:   0 | X:      0 | Y:      0 
#             | Confidence: 0 | Tip Switch: 0 | # | Contact Id:   0 | X:      0 | Y:      0 | Contact Count:    1 | Button: 0  0  0 | # | Scan Time:  20802 
E: 000000.774388 30 01 03 f5 01 ff 05 00 00 00 00 00 00 00 00 00 00 00 00 00 00 00 00 00 00 00 00 01 00 42 51
# ReportID: 1 / Confidence: 1 | Tip Switch: 1 | # | Contact Id:   0 | X:    543 | Y:   1535 
#             | Confidence: 0 | Tip Switch: 0 | # | Contact Id:   0 | X:      0 | Y:      0 
#             | Confidence: 0 | Tip Switch: 0 | # | Contact Id:   0 | X:      0 | Y:      0 
#             | Confidence: 0 | Tip Switch: 0 | # | Contact Id:   0 | X:      0 | Y:      0 
#             | Confidence: 0 | Tip Switch: 0 | # | Contact Id:   0 | X:      0 | Y:      0 | Contact Count:    1 | Button: 0  0  0 | # | Scan Time:  20873 
E: 000000.781559 30 01 03 1f 02 ff 05 00 00 00 00 00 00 00 00 00 00 00 00 00 00 00 00 00 00 00 00 01 00 89 51
# ReportID: 1 / Confidence: 1 | Tip Switch: 1 | # | Contact Id:   0 | X:    586 | Y:   1535 
#             | Confidence: 0 | Tip Switch: 0 | # | Contact Id:   0 | X:      0 | Y:      0 
#             | Confidence: 0 | Tip Switch: 0 | # | Contact Id:   0 | X:      0 | Y:      0 
#             | Confidence: 0 | Tip Switch: 0 | # | Contact Id:   0 | X:      0 | Y:      0 
#             | Confidence: 0 | Tip Switch: 0 | # | Contact Id:   0 | X:      0 | Y:      0 | Contact Count:    1 | Button: 0  0  0 | # | Scan Time:  20944 
E: 000000.789372 30 01 03 4a 02 ff 05 00 00 00 00 00 00 00 00 00 00 00 00 00 00 00 00 00 00 00 00 01 00 d0 51
# ReportID: 1 / Confidence: 1 | Tip Switch: 1 | # | Contact Id:   0 | X:    630 | Y:   1535 
#             | Confidence: 0 | Tip Switch: 0 | # | Contact Id:   0 | X:      0 | Y:      0 
#             | Confidence: 0 | Tip Switch: 0 | # | Contact Id:   0 | X:      0 | Y:      0 
#             | Confidence: 0 | Tip Switch: 0 | # | Contact Id:   0 | X:      0 | Y:      0 
#             | Confidence: 0 | Tip Switch: 0 | # | Contact Id:   0 | X:      0 | Y:      0 | Contact Count:    1 | Button: 0  0  0 | # | Scan Time:  21015 
E: 000000.796148 30 01 03 76 02 ff 05 00 00 00 00 00 00 00 00 00 00 00 00 00 00 00 00 00 00 00 00 01 00 17 52
# ReportID: 1 / Confidence: 1 | Tip Switch: 1 | # | Contact Id:   0 | X:    675 | Y:   1535 
#             | Confidence: 0 | Tip Switch: 0 | # | Contact Id:   0 | X:      0 | Y:      0 
#             | Confidence: 0 | Tip Switch: 0 | # | Contact Id:   0 | X:      0 | Y:      0 
#             | Confidence: 0 | Tip Switch: 0 | # | Contact Id:   0 | X:      0 | Y:      0 
#             | Confidence: 0 | Tip Switch: 0 | # | Contact Id:   0 | X:      0 | Y:      0 | Contact Count:    1 | Button: 0  0  0 | # | Scan Time:  21086 
E: 000000.803745 30 01 03 a3 02 ff 05 00 00 00 00 00 00 00 00 00 00 00 00 00 00 00 00 00 00 00 00 01 00 5e 52
# ReportID: 1 / Confidence: 1 | Tip Switch: 1 | # | Contact Id:   0 | X:    722 | Y:   1535 
#             | Confidence: 0 | Tip Switch: 0 | # | Contact Id:   0 | X:      0 | Y:      0 
#             | Confidence: 0 | Tip Switch: 0 | # | Contact Id:   0 | X:      0 | Y:      0 
#             | Confidence: 0 | Tip Switch: 0 | # | Contact Id:   0 | X:      0 | Y:      0 
#             | Confidence: 0 | Tip Switch: 0 | # | Contact Id:   0 | X:      0 | Y:      0 | Contact Count:    1 | Button: 0  0  0 | # | Scan Time:  21156 
E: 000000.810287 30 01 03 d2 02 ff 05 00 00 00 00 00 00 00 00 00 00 00 00 00 00 00 00 00 00 00 00 01 00 a4 52
# ReportID: 1 / Confidence: 1 | Tip Switch: 1 | # | Contact Id:   0 | X:    771 | Y:   1535 
#             | Confidence: 0 | Tip Switch: 0 | # | Contact Id:   0 | X:      0 | Y:      0 
#             | Confidence: 0 | Tip Switch: 0 | # | Contact Id:   0 | X:      0 | Y:      0 
#             | Confidence: 0 | Tip Switch: 0 | # | Contact Id:   0 | X:      0 | Y:      0 
#             | Confidence: 0 | Tip Switch: 0 | # | Contact Id:   0 | X:      0 | Y:      0 | Contact Count:    1 | Button: 0  0  0 | # | Scan Time:  21227 
E: 000000.817425 30 01 03 03 03 ff 05 00 00 00 00 00 00 00 00 00 00 00 00 00 00 00 00 00 00 00 00 01 00 eb 52
# ReportID: 1 / Confidence: 1 | Tip Switch: 1 | # | Contact Id:   0 | X:    820 | Y:   1535 
#             | Confidence: 0 | Tip Switch: 0 | # | Contact Id:   0 | X:      0 | Y:      0 
