# ILTP7807:00 222A:FFF1
# 0x05, 0x0d,                    // Usage Page (Digitizers)             0
# 0x09, 0x04,                    // Usage (Touch Screen)                2
# 0xa1, 0x01,                    // Collection (Application)            4
# 0x85, 0x01,                    //  Report ID (1)                      6
# 0x75, 0x08,                    //  Report Size (8)                    8
# 0x95, 0x04,                    //  Report Count (4)                   10
# 0x81, 0x03,                    //  Input (Cnst,Var,Abs)               12
# 0x09, 0x22,                    //  Usage (Finger)                     14
# 0xa1, 0x02,                    //  Collection (Logical)               16
# 0x05, 0x01,                    //   Usage Page (Generic Desktop)      18
# 0x09, 0x30,                    //   Usage (X)                         20
# 0x15, 0x00,                    //   Logical Minimum (0)               22
# 0x26, 0xff, 0x07,              //   Logical Maximum (2047)            24
# 0x35, 0x00,                    //   Physical Minimum (0)              27
# 0x46, 0x63, 0x03,              //   Physical Maximum (867)            29
# 0x65, 0x11,                    //   Unit (SILinear: cm)               32
# 0x55, 0x0e,                    //   Unit Exponent (-2)                34
# 0x75, 0x10,                    //   Report Size (16)                  36
# 0x95, 0x01,                    //   Report Count (1)                  38
# 0x81, 0x02,                    //   Input (Data,Var,Abs)              40
# 0x09, 0x31,                    //   Usage (Y)                         42
# 0x26, 0xff, 0x07,              //   Logical Maximum (2047)            44
# 0x46, 0x07, 0x06,              //   Physical Maximum (1543)           47
# 0x81, 0x02,                    //   Input (Data,Var,Abs)              50
# 0x75, 0x08,                    //   Report Size (8)                   52
# 0x95, 0x01,                    //   Report Count (1)                  54
# 0x81, 0x03,                    //   Input (Cnst,Var,Abs)              56
# 0x05, 0x0d,                    //   Usage Page (Digitizers)           58
# 0x09, 0x42,                    //   Usage (Tip Switch)                60
# 0x75, 0x01,                    //   Report Size (1)                   62
# 0x15, 0x00,                    //   Logical Minimum (0)               64
# 0x25, 0x01,                    //   Logical Maximum (1)               66
# 0x81, 0x02,                    //   Input (Data,Var,Abs)              68
# 0x09, 0x51,                    //   Usage (Contact Id)                70
# 0x25, 0x0f,                    //   Logical Maximum (15)              72
# 0x75, 0x04,                    //   Report Size (4)                   74
# 0x81, 0x02,                    //   Input (Data,Var,Abs)              76
# 0x75, 0x03,                    //   Report Size (3)                   78
# 0x81, 0x03,                    //   Input (Cnst,Var,Abs)              80
# 0xc0,                          //  End Collection                     82
# 0x09, 0x22,                    //  Usage (Finger)                     83
# 0xa1, 0x02,                    //  Collection (Logical)               85
# 0x05, 0x01,                    //   Usage Page (Generic Desktop)      87
# 0x09, 0x30,                    //   Usage (X)                         89
# 0x15, 0x00,                    //   Logical Minimum (0)               91
# 0x26, 0xff, 0x07,              //   Logical Maximum (2047)            93
# 0x35, 0x00,                    //   Physical Minimum (0)              96
# 0x46, 0x63, 0x03,              //   Physical Maximum (867)            98
# 0x65, 0x11,                    //   Unit (SILinear: cm)               101
# 0x55, 0x0e,                    //   Unit Exponent (-2)                103
# 0x75, 0x10,                    //   Report Size (16)                  105
# 0x95, 0x01,                    //   Report Count (1)                  107
# 0x81, 0x02,                    //   Input (Data,Var,Abs)              109
# 0x09, 0x31,                    //   Usage (Y)                         111
# 0x26, 0xff, 0x07,              //   Logical Maximum (2047)            113
# 0x46, 0x07, 0x06,              //   Physical Maximum (1543)           116
# 0x81, 0x02,                    //   Input (Data,Var,Abs)              119
# 0x75, 0x08,                    //   Report Size (8)                   121
# 0x95, 0x01,                    //   Report Count (1)                  123
# 0x81, 0x03,                    //   Input (Cnst,Var,Abs)              125
# 0x05, 0x0d,                    //   Usage Page (Digitizers)           127
# 0x09, 0x42,                    //   Usage (Tip Switch)                129
# 0x75, 0x01,                    //   Report Size (1)                   131
# 0x15, 0x00,                    //   Logical Minimum (0)               133
# 0x25, 0x01,                    //   Logical Maximum (1)               135
# 0x81, 0x02,                    //   Input (Data,Var,Abs)              137
# 0x09, 0x51,                    //   Usage (Contact Id)                139
# 0x25, 0x0f,                    //   Logical Maximum (15)              141
# 0x75, 0x04,                    //   Report Size (4)                   143
# 0x81, 0x02,                    //   Input (Data,Var,Abs)              145
# 0x75, 0x03,                    //   Report Size (3)                   147
# 0x81, 0x03,                    //   Input (Cnst,Var,Abs)              149
# 0xc0,                          //  End Collection                     151
# 0x09, 0x22,                    //  Usage (Finger)                     152
# 0xa1, 0x02,                    //  Collection (Logical)               154
# 0x05, 0x01,                    //   Usage Page (Generic Desktop)      156
# 0x09, 0x30,                    //   Usage (X)                         158
# 0x15, 0x00,                    //   Logical Minimum (0)               160
# 0x26, 0xff, 0x07,              //   Logical Maximum (2047)            162
# 0x35, 0x00,                    //   Physical Minimum (0)              165
# 0x46, 0x63, 0x03,              //   Physical Maximum (867)            167
# 0x65, 0x11,                    //   Unit (SILinear: cm)               170
# 0x55, 0x0e,                    //   Unit Exponent (-2)                172
# 0x75, 0x10,                    //   Report Size (16)                  174
# 0x95, 0x01,                    //   Report Count (1)                  176
# 0x81, 0x02,                    //   Input (Data,Var,Abs)              178
# 0x09, 0x31,                    //   Usage (Y)                         180
# 0x26, 0xff, 0x07,              //   Logical Maximum (2047)            182
# 0x46, 0x07, 0x06,              //   Physical Maximum (1543)           185
# 0x81, 0x02,                    //   Input (Data,Var,Abs)              188
# 0x75, 0x08,                    //   Report Size (8)                   190
# 0x95, 0x01,                    //   Report Count (1)                  192
# 0x81, 0x03,                    //   Input (Cnst,Var,Abs)              194
# 0x05, 0x0d,                    //   Usage Page (Digitizers)           196
# 0x09, 0x42,                    //   Usage (Tip Switch)                198
# 0x75, 0x01,                    //   Report Size (1)                   200
# 0x15, 0x00,                    //   Logical Minimum (0)               202
# 0x25, 0x01,                    //   Logical Maximum (1)               204
# 0x81, 0x02,                    //   Input (Data,Var,Abs)              206
# 0x09, 0x51,                    //   Usage (Contact Id)                208
# 0x25, 0x0f,                    //   Logical Maximum (15)              210
# 0x75, 0x04,                    //   Report Size (4)                   212
# 0x81, 0x02,                    //   Input (Data,Var,Abs)              214
# 0x75, 0x03,                    //   Report Size (3)                   216
# 0x81, 0x03,                    //   Input (Cnst,Var,Abs)              218
# 0xc0,                          //  End Collection                     220
# 0x09, 0x22,                    //  Usage (Finger)                     221
# 0xa1, 0x02,                    //  Collection (Logical)               223
# 0x05, 0x01,                    //   Usage Page (Generic Desktop)      225
# 0x09, 0x30,                    //   Usage (X)                         227
# 0x15, 0x00,                    //   Logical Minimum (0)               229
# 0x26, 0xff, 0x07,              //   Logical Maximum (2047)            231
# 0x35, 0x00,                    //   Physical Minimum (0)              234
# 0x46, 0x63, 0x03,              //   Physical Maximum (867)            236
# 0x65, 0x11,                    //   Unit (SILinear: cm)               239
# 0x55, 0x0e,                    //   Unit Exponent (-2)                241
# 0x75, 0x10,                    //   Report Size (16)                  243
# 0x95, 0x01,                    //   Report Count (1)                  245
# 0x81, 0x02,                    //   Input (Data,Var,Abs)              247
# 0x09, 0x31,                    //   Usage (Y)                         249
# 0x26, 0xff, 0x07,              //   Logical Maximum (2047)            251
# 0x46, 0x07, 0x06,              //   Physical Maximum (1543)           254
# 0x81, 0x02,                    //   Input (Data,Var,Abs)              257
# 0x75, 0x08,                    //   Report Size (8)                   259
# 0x95, 0x01,                    //   Report Count (1)                  261
# 0x81, 0x03,                    //   Input (Cnst,Var,Abs)              263
# 0x05, 0x0d,                    //   Usage Page (Digitizers)           265
# 0x09, 0x42,                    //   Usage (Tip Switch)                267
# 0x75, 0x01,                    //   Report Size (1)                   269
# 0x15, 0x00,                    //   Logical Minimum (0)               271
# 0x25, 0x01,                    //   Logical Maximum (1)               273
# 0x81, 0x02,                    //   Input (Data,Var,Abs)              275
# 0x09, 0x51,                    //   Usage (Contact Id)                277
# 0x25, 0x0f,                    //   Logical Maximum (15)              279
# 0x75, 0x04,                    //   Report Size (4)                   281
# 0x81, 0x02,                    //   Input (Data,Var,Abs)              283
# 0x75, 0x03,                    //   Report Size (3)                   285
# 0x81, 0x03,                    //   Input (Cnst,Var,Abs)              287
# 0xc0,                          //  End Collection                     289
# 0x09, 0x22,                    //  Usage (Finger)                     290
# 0xa1, 0x02,                    //  Collection (Logical)               292
# 0x05, 0x01,                    //   Usage Page (Generic Desktop)      294
# 0x09, 0x30,                    //   Usage (X)                         296
# 0x15, 0x00,                    //   Logical Minimum (0)               298
# 0x26, 0xff, 0x07,              //   Logical Maximum (2047)            300
# 0x35, 0x00,                    //   Physical Minimum (0)              303
# 0x46, 0x63, 0x03,              //   Physical Maximum (867)            305
# 0x65, 0x11,                    //   Unit (SILinear: cm)               308
# 0x55, 0x0e,                    //   Unit Exponent (-2)                310
# 0x75, 0x10,                    //   Report Size (16)                  312
# 0x95, 0x01,                    //   Report Count (1)                  314
# 0x81, 0x02,                    //   Input (Data,Var,Abs)              316
# 0x09, 0x31,                    //   Usage (Y)                         318
# 0x26, 0xff, 0x07,              //   Logical Maximum (2047)            320
# 0x46, 0x07, 0x06,              //   Physical Maximum (1543)           323
# 0x81, 0x02,                    //   Input (Data,Var,Abs)              326
# 0x75, 0x08,                    //   Report Size (8)                   328
# 0x95, 0x01,                    //   Report Count (1)                  330
# 0x81, 0x03,                    //   Input (Cnst,Var,Abs)              332
# 0x05, 0x0d,                    //   Usage Page (Digitizers)           334
# 0x09, 0x42,                    //   Usage (Tip Switch)                336
# 0x75, 0x01,                    //   Report Size (1)                   338
# 0x15, 0x00,                    //   Logical Minimum (0)               340
# 0x25, 0x01,                    //   Logical Maximum (1)               342
# 0x81, 0x02,                    //   Input (Data,Var,Abs)              344
# 0x09, 0x51,                    //   Usage (Contact Id)                346
# 0x25, 0x0f,                    //   Logical Maximum (15)              348
# 0x75, 0x04,                    //   Report Size (4)                   350
# 0x81, 0x02,                    //   Input (Data,Var,Abs)              352
# 0x75, 0x03,                    //   Report Size (3)                   354
# 0x81, 0x03,                    //   Input (Cnst,Var,Abs)              356
# 0xc0,                          //  End Collection                     358
# 0x09, 0x22,                    //  Usage (Finger)                     359
# 0xa1, 0x02,                    //  Collection (Logical)               361
# 0x05, 0x01,                    //   Usage Page (Generic Desktop)      363
# 0x09, 0x30,                    //   Usage (X)                         365
# 0x15, 0x00,                    //   Logical Minimum (0)               367
# 0x26, 0xff, 0x07,              //   Logical Maximum (2047)            369
# 0x35, 0x00,                    //   Physical Minimum (0)              372
# 0x46, 0x63, 0x03,              //   Physical Maximum (867)            374
# 0x65, 0x11,                    //   Unit (SILinear: cm)               377
# 0x55, 0x0e,                    //   Unit Exponent (-2)                379
# 0x75, 0x10,                    //   Report Size (16)                  381
# 0x95, 0x01,                    //   Report Count (1)                  383
# 0x81, 0x02,                    //   Input (Data,Var,Abs)              385
# 0x09, 0x31,                    //   Usage (Y)                         387
# 0x26, 0xff, 0x07,              //   Logical Maximum (2047)            389
# 0x46, 0x07, 0x06,              //   Physical Maximum (1543)           392
# 0x81, 0x02,                    //   Input (Data,Var,Abs)              395
# 0x75, 0x08,                    //   Report Size (8)                   397
# 0x95, 0x01,                    //   Report Count (1)                  399
# 0x81, 0x03,                    //   Input (Cnst,Var,Abs)              401
# 0x05, 0x0d,                    //   Usage Page (Digitizers)           403
# 0x09, 0x42,                    //   Usage (Tip Switch)                405
# 0x75, 0x01,                    //   Report Size (1)                   407
# 0x15, 0x00,                    //   Logical Minimum (0)               409
# 0x25, 0x01,                    //   Logical Maximum (1)               411
# 0x81, 0x02,                    //   Input (Data,Var,Abs)              413
# 0x09, 0x51,                    //   Usage (Contact Id)                415
# 0x25, 0x0f,                    //   Logical Maximum (15)              417
# 0x75, 0x04,                    //   Report Size (4)                   419
# 0x81, 0x02,                    //   Input (Data,Var,Abs)              421
# 0x75, 0x03,                    //   Report Size (3)                   423
# 0x81, 0x03,                    //   Input (Cnst,Var,Abs)              425
# 0xc0,                          //  End Collection                     427
# 0x09, 0x22,                    //  Usage (Finger)                     428
# 0xa1, 0x02,                    //  Collection (Logical)               430
# 0x05, 0x01,                    //   Usage Page (Generic Desktop)      432
# 0x09, 0x30,                    //   Usage (X)                         434
# 0x15, 0x00,                    //   Logical Minimum (0)               436
# 0x26, 0xff, 0x07,              //   Logical Maximum (2047)            438
# 0x35, 0x00,                    //   Physical Minimum (0)              441
# 0x46, 0x63, 0x03,              //   Physical Maximum (867)            443
# 0x65, 0x11,                    //   Unit (SILinear: cm)               446
# 0x55, 0x0e,                    //   Unit Exponent (-2)                448
# 0x75, 0x10,                    //   Report Size (16)                  450
# 0x95, 0x01,                    //   Report Count (1)                  452
# 0x81, 0x02,                    //   Input (Data,Var,Abs)              454
# 0x09, 0x31,                    //   Usage (Y)                         456
# 0x26, 0xff, 0x07,              //   Logical Maximum (2047)            458
# 0x46, 0x07, 0x06,              //   Physical Maximum (1543)           461
# 0x81, 0x02,                    //   Input (Data,Var,Abs)              464
# 0x75, 0x08,                    //   Report Size (8)                   466
# 0x95, 0x01,                    //   Report Count (1)                  468
# 0x81, 0x03,                    //   Input (Cnst,Var,Abs)              470
# 0x05, 0x0d,                    //   Usage Page (Digitizers)           472
# 0x09, 0x42,                    //   Usage (Tip Switch)                474
# 0x75, 0x01,                    //   Report Size (1)                   476
# 0x15, 0x00,                    //   Logical Minimum (0)               478
# 0x25, 0x01,                    //   Logical Maximum (1)               480
# 0x81, 0x02,                    //   Input (Data,Var,Abs)              482
# 0x09, 0x51,                    //   Usage (Contact Id)                484
# 0x25, 0x0f,                    //   Logical Maximum (15)              486
# 0x75, 0x04,                    //   Report Size (4)                   488
# 0x81, 0x02,                    //   Input (Data,Var,Abs)              490
# 0x75, 0x03,                    //   Report Size (3)                   492
# 0x81, 0x03,                    //   Input (Cnst,Var,Abs)              494
# 0xc0,                          //  End Collection                     496
# 0x09, 0x22,                    //  Usage (Finger)                     497
# 0xa1, 0x02,                    //  Collection (Logical)               499
# 0x05, 0x01,                    //   Usage Page (Generic Desktop)      501
# 0x09, 0x30,                    //   Usage (X)                         503
# 0x15, 0x00,                    //   Logical Minimum (0)               505
# 0x26, 0xff, 0x07,              //   Logical Maximum (2047)            507
# 0x35, 0x00,                    //   Physical Minimum (0)              510
# 0x46, 0x63, 0x03,              //   Physical Maximum (867)            512
# 0x65, 0x11,                    //   Unit (SILinear: cm)               515
# 0x55, 0x0e,                    //   Unit Exponent (-2)                517
# 0x75, 0x10,                    //   Report Size (16)                  519
# 0x95, 0x01,                    //   Report Count (1)                  521
# 0x81, 0x02,                    //   Input (Data,Var,Abs)              523
# 0x09, 0x31,                    //   Usage (Y)                         525
# 0x26, 0xff, 0x07,              //   Logical Maximum (2047)            527
# 0x46, 0x07, 0x06,              //   Physical Maximum (1543)           530
# 0x81, 0x02,                    //   Input (Data,Var,Abs)              533
# 0x75, 0x08,                    //   Report Size (8)                   535
# 0x95, 0x01,                    //   Report Count (1)                  537
# 0x81, 0x03,                    //   Input (Cnst,Var,Abs)              539
# 0x05, 0x0d,                    //   Usage Page (Digitizers)           541
# 0x09, 0x42,                    //   Usage (Tip Switch)                543
# 0x75, 0x01,                    //   Report Size (1)                   545
# 0x15, 0x00,                    //   Logical Minimum (0)               547
# 0x25, 0x01,                    //   Logical Maximum (1)               549
# 0x81, 0x02,                    //   Input (Data,Var,Abs)              551
# 0x09, 0x51,                    //   Usage (Contact Id)                553
# 0x25, 0x0f,                    //   Logical Maximum (15)              555
# 0x75, 0x04,                    //   Report Size (4)                   557
# 0x81, 0x02,                    //   Input (Data,Var,Abs)              559
# 0x75, 0x03,                    //   Report Size (3)                   561
# 0x81, 0x03,                    //   Input (Cnst,Var,Abs)              563
# 0xc0,                          //  End Collection                     565
# 0x09, 0x22,                    //  Usage (Finger)                     566
# 0xa1, 0x02,                    //  Collection (Logical)               568
# 0x05, 0x01,                    //   Usage Page (Generic Desktop)      570
# 0x09, 0x30,                    //   Usage (X)                         572
# 0x15, 0x00,                    //   Logical Minimum (0)               574
# 0x26, 0xff, 0x07,              //   Logical Maximum (2047)            576
# 0x35, 0x00,                    //   Physical Minimum (0)              579
# 0x46, 0x63, 0x03,              //   Physical Maximum (867)            581
# 0x65, 0x11,                    //   Unit (SILinear: cm)               584
# 0x55, 0x0e,                    //   Unit Exponent (-2)                586
# 0x75, 0x10,                    //   Report Size (16)                  588
# 0x95, 0x01,                    //   Report Count (1)                  590
# 0x81, 0x02,                    //   Input (Data,Var,Abs)              592
# 0x09, 0x31,                    //   Usage (Y)                         594
# 0x26, 0xff, 0x07,              //   Logical Maximum (2047)            596
# 0x46, 0x07, 0x06,              //   Physical Maximum (1543)           599
# 0x81, 0x02,                    //   Input (Data,Var,Abs)              602
# 0x75, 0x08,                    //   Report Size (8)                   604
# 0x95, 0x01,                    //   Report Count (1)                  606
# 0x81, 0x03,                    //   Input (Cnst,Var,Abs)              608
# 0x05, 0x0d,                    //   Usage Page (Digitizers)           610
# 0x09, 0x42,                    //   Usage (Tip Switch)                612
# 0x75, 0x01,                    //   Report Size (1)                   614
# 0x15, 0x00,                    //   Logical Minimum (0)               616
# 0x25, 0x01,                    //   Logical Maximum (1)               618
# 0x81, 0x02,                    //   Input (Data,Var,Abs)              620
# 0x09, 0x51,                    //   Usage (Contact Id)                622
# 0x25, 0x0f,                    //   Logical Maximum (15)              624
# 0x75, 0x04,                    //   Report Size (4)                   626
# 0x81, 0x02,                    //   Input (Data,Var,Abs)              628
# 0x75, 0x03,                    //   Report Size (3)                   630
# 0x81, 0x03,                    //   Input (Cnst,Var,Abs)              632
# 0xc0,                          //  End Collection                     634
# 0x09, 0x22,                    //  Usage (Finger)                     635
# 0xa1, 0x02,                    //  Collection (Logical)               637
# 0x05, 0x01,                    //   Usage Page (Generic Desktop)      639
# 0x09, 0x30,                    //   Usage (X)                         641
# 0x15, 0x00,                    //   Logical Minimum (0)               643
# 0x26, 0xff, 0x07,              //   Logical Maximum (2047)            645
# 0x35, 0x00,                    //   Physical Minimum (0)              648
# 0x46, 0x63, 0x03,              //   Physical Maximum (867)            650
# 0x65, 0x11,                    //   Unit (SILinear: cm)               653
# 0x55, 0x0e,                    //   Unit Exponent (-2)                655
# 0x75, 0x10,                    //   Report Size (16)                  657
# 0x95, 0x01,                    //   Report Count (1)                  659
# 0x81, 0x02,                    //   Input (Data,Var,Abs)              661
# 0x09, 0x31,                    //   Usage (Y)                         663
# 0x26, 0xff, 0x07,              //   Logical Maximum (2047)            665
# 0x46, 0x07, 0x06,              //   Physical Maximum (1543)           668
# 0x81, 0x02,                    //   Input (Data,Var,Abs)              671
# 0x75, 0x08,                    //   Report Size (8)                   673
# 0x95, 0x01,                    //   Report Count (1)                  675
# 0x81, 0x03,                    //   Input (Cnst,Var,Abs)              677
# 0x05, 0x0d,                    //   Usage Page (Digitizers)           679
# 0x09, 0x42,                    //   Usage (Tip Switch)                681
# 0x75, 0x01,                    //   Report Size (1)                   683
# 0x15, 0x00,                    //   Logical Minimum (0)               685
# 0x25, 0x01,                    //   Logical Maximum (1)               687
# 0x81, 0x02,                    //   Input (Data,Var,Abs)              689
# 0x09, 0x51,                    //   Usage (Contact Id)                691
# 0x25, 0x0f,                    //   Logical Maximum (15)              693
# 0x75, 0x04,                    //   Report Size (4)                   695
# 0x81, 0x02,                    //   Input (Data,Var,Abs)              697
# 0x75, 0x03,                    //   Report Size (3)                   699
# 0x81, 0x03,                    //   Input (Cnst,Var,Abs)              701
# 0xc0,                          //  End Collection                     703
# 0x75, 0x08,                    //  Report Size (8)                    704
# 0x95, 0x01,                    //  Report Count (1)                   706
# 0x81, 0x03,                    //  Input (Cnst,Var,Abs)               708
# 0x95, 0x0e,                    //  Report Count (14)                  710
# 0x81, 0x03,                    //  Input (Cnst,Var,Abs)               712
# 0x09, 0x54,                    //  Usage (Contact Count)              714
# 0x25, 0x7f,                    //  Logical Maximum (127)              716
# 0x95, 0x01,                    //  Report Count (1)                   718
# 0x81, 0x02,                    //  Input (Data,Var,Abs)               720
# 0x95, 0x02,                    //  Report Count (2)                   722
# 0x81, 0x03,                    //  Input (Cnst,Var,Abs)               724
# 0x85, 0x02,                    //  Report ID (2)                      726
# 0x05, 0x0d,                    //  Usage Page (Digitizers)            728
# 0x09, 0x55,                    //  Usage (Contact Max)                730
# 0x25, 0x0a,                    //  Logical Maximum (10)               732
# 0x75, 0x08,                    //  Report Size (8)                    734
# 0x95, 0x01,                    //  Report Count (1)                   736
# 0xb1, 0x02,                    //  Feature (Data,Var,Abs)             738
# 0x85, 0x04,                    //  Report ID (4)                      740
# 0x06, 0x00, 0xff,              //  Usage Page (Vendor Defined Page 1) 742
# 0x09, 0xc5,                    //  Usage (Vendor Usage 0xc5)          745
# 0x26, 0xff, 0x00,              //  Logical Maximum (255)              747
# 0x75, 0x08,                    //  Report Size (8)                    750
# 0x96, 0x00, 0x01,              //  Report Count (256)                 752
# 0xb1, 0x02,                    //  Feature (Data,Var,Abs)             755
# 0xc0,                          // End Collection                      757
# 0x06, 0x00, 0xff,              // Usage Page (Vendor Defined Page 1)  758
# 0x09, 0x01,                    // Usage (Vendor Usage 1)              761
# 0xa1, 0x01,                    // Collection (Application)            763
# 0x85, 0x03,                    //  Report ID (3)                      765
# 0x09, 0x01,                    //  Usage (Vendor Usage 1)             767
# 0x26, 0xff, 0x00,              //  Logical Maximum (255)              769
# 0x75, 0x08,                    //  Report Size (8)                    772
# 0x95, 0x52,                    //  Report Count (82)                  774
# 0x81, 0x02,                    //  Input (Data,Var,Abs)               776
# 0x85, 0x03,                    //  Report ID (3)                      778
# 0x09, 0x01,                    //  Usage (Vendor Usage 1)             780
# 0x95, 0x3f,                    //  Report Count (63)                  782
# 0x91, 0x02,                    //  Output (Data,Var,Abs)              784
# 0x85, 0x03,                    //  Report ID (3)                      786
# 0x09, 0x01,                    //  Usage (Vendor Usage 1)             788
# 0x95, 0x3f,                    //  Report Count (63)                  790
# 0xb1, 0x02,                    //  Feature (Data,Var,Abs)             792
# 0x85, 0x05,                    //  Report ID (5)                      794
# 0x09, 0x01,                    //  Usage (Vendor Usage 1)             796
# 0x96, 0x29, 0x01,              //  Report Count (297)                 798
# 0xb1, 0x02,                    //  Feature (Data,Var,Abs)             801
# 0x85, 0x06,                    //  Report ID (6)                      803
# 0x09, 0x01,                    //  Usage (Vendor Usage 1)             805
# 0x96, 0xd9, 0x05,              //  Report Count (1497)                807
# 0xb1, 0x02,                    //  Feature (Data,Var,Abs)             810
# 0x85, 0x07,                    //  Report ID (7)                      812
# 0x09, 0x01,                    //  Usage (Vendor Usage 1)             814
# 0x96, 0x7e, 0x08,              //  Report Count (2174)                816
# 0xb1, 0x02,                    //  Feature (Data,Var,Abs)             819
# 0xc0,                          // End Collection                      821
# 0x05, 0x01,                    // Usage Page (Generic Desktop)        822
# 0x09, 0x06,                    // Usage (Keyboard)                    824
# 0xa1, 0x01,                    // Collection (Application)            826
# 0x85, 0x09,                    //  Report ID (9)                      828
# 0x05, 0x07,                    //  Usage Page (Keyboard)              830
# 0x09, 0xe3,                    //  Usage (Left GUI)                   832
# 0x15, 0x00,                    //  Logical Minimum (0)                834
# 0x25, 0x01,                    //  Logical Maximum (1)                836
# 0x75, 0x01,                    //  Report Size (1)                    838
# 0x95, 0x01,                    //  Report Count (1)                   840
# 0x81, 0x02,                    //  Input (Data,Var,Abs)               842
# 0x95, 0x07,                    //  Report Count (7)                   844
# 0x81, 0x03,                    //  Input (Cnst,Var,Abs)               846
# 0xc0,                          // End Collection                      848
# 
R: 849 05 0d 09 04 a1 01 85 01 75 08 95 04 81 03 09 22 a1 02 05 01 09 30 15 00 26 ff 07 35 00 46 63 03 65 11 55 0e 75 10 95 01 81 02 09 31 26 ff 07 46 07 06 81 02 75 08 95 01 81 03 05 0d 09 42 75 01 15 00 25 01 81 02 09 51 25 0f 75 04 81 02 75 03 81 03 c0 09 22 a1 02 05 01 09 30 15 00 26 ff 07 35 00 46 63 03 65 11 55 0e 75 10 95 01 81 02 09 31 26 ff 07 46 07 06 81 02 75 08 95 01 81 03 05 0d 09 42 75 01 15 00 25 01 81 02 09 51 25 0f 75 04 81 02 75 03 81 03 c0 09 22 a1 02 05 01 09 30 15 00 26 ff 07 35 00 46 63 03 65 11 55 0e 75 10 95 01 81 02 09 31 26 ff 07 46 07 06 81 02 75 08 95 01 81 03 05 0d 09 42 75 01 15 00 25 01 81 02 09 51 25 0f 75 04 81 02 75 03 81 03 c0 09 22 a1 02 05 01 09 30 15 00 26 ff 07 35 00 46 63 03 65 11 55 0e 75 10 95 01 81 02 09 31 26 ff 07 46 07 06 81 02 75 08 95 01 81 03 05 0d 09 42 75 01 15 00 25 01 81 02 09 51 25 0f 75 04 81 02 75 03 81 03 c0 09 22 a1 02 05 01 09 30 15 00 26 ff 07 35 00 46 63 03 65 11 55 0e 75 10 95 01 81 02 09 31 26 ff 07 46 07 06 81 02 75 08 95 01 81 03 05 0d 09 42 75 01 15 00 25 01 81 02 09 51 25 0f 75 04 81 02 75 03 81 03 c0 09 22 a1 02 05 01 09 30 15 00 26 ff 07 35 00 46 63 03 65 11 55 0e 75 10 95 01 81 02 09 31 26 ff 07 46 07 06 81 02 75 08 95 01 81 03 05 0d 09 42 75 01 15 00 25 01 81 02 09 51 25 0f 75 04 81 02 75 03 81 03 c0 09 22 a1 02 05 01 09 30 15 00 26 ff 07 35 00 46 63 03 65 11 55 0e 75 10 95 01 81 02 09 31 26 ff 07 46 07 06 81 02 75 08 95 01 81 03 05 0d 09 42 75 01 15 00 25 01 81 02 09 51 25 0f 75 04 81 02 75 03 81 03 c0 09 22 a1 02 05 01 09 30 15 00 26 ff 07 35 00 46 63 03 65 11 55 0e 75 10 95 01 81 02 09 31 26 ff 07 46 07 06 81 02 75 08 95 01 81 03 05 0d 09 42 75 01 15 00 25 01 81 02 09 51 25 0f 75 04 81 02 75 03 81 03 c0 09 22 a1 02 05 01 09 30 15 00 26 ff 07 35 00 46 63 03 65 11 55 0e 75 10 95 01 81 02 09 31 26 ff 07 46 07 06 81 02 75 08 95 01 81 03 05 0d 09 42 75 01 15 00 25 01 81 02 09 51 25 0f 75 04 81 02 75 03 81 03 c0 09 22 a1 02 05 01 09 30 15 00 26 ff 07 35 00 46 63 03 65 11 55 0e 75 10 95 01 81 02 09 31 26 ff 07 46 07 06 81 02 75 08 95 01 81 03 05 0d 09 42 75 01 15 00 25 01 81 02 09 51 25 0f 75 04 81 02 75 03 81 03 c0 75 08 95 01 81 03 95 0e 81 03 09 54 25 7f 95 01 81 02 95 02 81 03 85 02 05 0d 09 55 25 0a 75 08 95 01 b1 02 85 04 06 00 ff 09 c5 26 ff 00 75 08 96 00 01 b1 02 c0 06 00 ff 09 01 a1 01 85 03 09 01 26 ff 00 75 08 95 52 81 02 85 03 09 01 95 3f 91 02 85 03 09 01 95 3f b1 02 85 05 09 01 96 29 01 b1 02 85 06 09 01 96 d9 05 b1 02 85 07 09 01 96 7e 08 b1 02 c0 05 01 09 06 a1 01 85 09 05 07 09 e3 15 00 25 01 75 01 95 01 81 02 95 07 81 03 c0
N: ILTP7807:00 222A:FFF1
I: 18 222a fff1
# ReportID: 1 / # / X:   2004 | Y:     43 | # | Tip Switch: 1 | Contact Id:   0 | # 
#             | X:  65535 | Y:  65535 | # | Tip Switch: 0 | Contact Id:   9 | # 
#             | X:  65535 | Y:  65535 | # | Tip Switch: 0 | Contact Id:   8 | # 
#             | X:  65535 | Y:  65535 | # | Tip Switch: 0 | Contact Id:   7 | # 
#             | X:  65535 | Y:  65535 | # | Tip Switch: 0 | Contact Id:   6 | # 
#             | X:  65535 | Y:  65535 | # | Tip Switch: 0 | Contact Id:   5 | # 
#             | X:  65535 | Y:  65535 | # | Tip Switch: 0 | Contact Id:   4 | # 
#             | X:  65535 | Y:  65535 | # | Tip Switch: 0 | Contact Id:   3 | # 
#             | X:  65535 | Y:  65535 | # | Tip Switch: 0 | Contact Id:   2 | # 
#             | X:  65535 | Y:  65535 | # | Tip Switch: 0 | Contact Id:   1 | # | # | # | Contact Count:    1 | # 
E: 000000.000000 83 01 60 52 00 fa d4 07 2b 00 01 01 ff ff ff ff ff 12 ff ff ff ff ff 10 ff ff ff ff ff 0e ff ff ff ff ff 0c ff ff ff ff ff 0a ff ff ff ff ff 08 ff ff ff ff ff 06 ff ff ff ff ff 04 ff ff ff ff ff 02 ff 0a 0a 00 40 00 25 10 03 e2 00 00 00 00 00 01 02 af
# ReportID: 1 / # / X:   2004 | Y:     43 | # | Tip Switch: 1 | Contact Id:   0 | # 
#             | X:  65535 | Y:  65535 | # | Tip Switch: 0 | Contact Id:   9 | # 
#             | X:  65535 | Y:  65535 | # | Tip Switch: 0 | Contact Id:   8 | # 
#             | X:  65535 | Y:  65535 | # | Tip Switch: 0 | Contact Id:   7 | # 
#             | X:  65535 | Y:  65535 | # | Tip Switch: 0 | Contact Id:   6 | # 
#             | X:  65535 | Y:  65535 | # | Tip Switch: 0 | Contact Id:   5 | # 
#             | X:  65535 | Y:  65535 | # | Tip Switch: 0 | Contact Id:   4 | # 
#             | X:  65535 | Y:  65535 | # | Tip Switch: 0 | Contact Id:   3 | # 
#             | X:  65535 | Y:  65535 | # | Tip Switch: 0 | Contact Id:   2 | # 
#             | X:  65535 | Y:  65535 | # | Tip Switch: 0 | Contact Id:   1 | # | # | # | Contact Count:    1 | # 
E: 000000.007095 83 01 60 52 00 fa d4 07 2b 00 01 01 ff ff ff ff ff 12 ff ff ff ff ff 10 ff ff ff ff ff 0e ff ff ff ff ff 0c ff ff ff ff ff 0a ff ff ff ff ff 08 ff ff ff ff ff 06 ff ff ff ff ff 04 ff ff ff ff ff 02 ff 0a 0a 00 40 00 25 10 03 ed 00 00 00 00 00 01 02 a4
# ReportID: 1 / # / X:   2004 | Y:     43 | # | Tip Switch: 1 | Contact Id:   0 | # 
#             | X:  65535 | Y:  65535 | # | Tip Switch: 0 | Contact Id:   9 | # 
#             | X:  65535 | Y:  65535 | # | Tip Switch: 0 | Contact Id:   8 | # 
#             | X:  65535 | Y:  65535 | # | Tip Switch: 0 | Contact Id:   7 | # 
#             | X:  65535 | Y:  65535 | # | Tip Switch: 0 | Contact Id:   6 | # 
#             | X:  65535 | Y:  65535 | # | Tip Switch: 0 | Contact Id:   5 | # 
#             | X:  65535 | Y:  65535 | # | Tip Switch: 0 | Contact Id:   4 | # 
#             | X:  65535 | Y:  65535 | # | Tip Switch: 0 | Contact Id:   3 | # 
#             | X:  65535 | Y:  65535 | # | Tip Switch: 0 | Contact Id:   2 | # 
#             | X:  65535 | Y:  65535 | # | Tip Switch: 0 | Contact Id:   1 | # | # | # | Contact Count:    1 | # 
E: 000000.015667 83 01 60 52 00 fa d4 07 2b 00 02 01 ff ff ff ff ff 12 ff ff ff ff ff 10 ff ff ff ff ff 0e ff ff ff ff ff 0c ff ff ff ff ff 0a ff ff ff ff ff 08 ff ff ff ff ff 06 ff ff ff ff ff 04 ff ff ff ff ff 02 ff 0a 0a 00 40 00 25 10 04 23 00 00 00 00 00 01 02 6c
# ReportID: 1 / # / X:   2004 | Y:     43 | # | Tip Switch: 1 | Contact Id:   0 | # 
#             | X:  65535 | Y:  65535 | # | Tip Switch: 0 | Contact Id:   9 | # 
#             | X:  65535 | Y:  65535 | # | Tip Switch: 0 | Contact Id:   8 | # 
#             | X:  65535 | Y:  65535 | # | Tip Switch: 0 | Contact Id:   7 | # 
#             | X:  65535 | Y:  65535 | # | Tip Switch: 0 | Contact Id:   6 | # 
#             | X:  65535 | Y:  65535 | # | Tip Switch: 0 | Contact Id:   5 | # 
#             | X:  65535 | Y:  65535 | # | Tip Switch: 0 | Contact Id:   4 | # 
#             | X:  65535 | Y:  65535 | # | Tip Switch: 0 | Contact Id:   3 | # 
#             | X:  65535 | Y:  65535 | # | Tip Switch: 0 | Contact Id:   2 | # 
#             | X:  65535 | Y:  65535 | # | Tip Switch: 0 | Contact Id:   1 | # | # | # | Contact Count:    1 | # 
E: 000000.023813 83 01 60 52 00 fa d4 07 2b 00 02 01 ff ff ff ff ff 12 ff ff ff ff ff 10 ff ff ff ff ff 0e ff ff ff ff ff 0c ff ff ff ff ff 0a ff ff ff ff ff 08 ff ff ff ff ff 06 ff ff ff ff ff 04 ff ff ff ff ff 02 ff 0a 0a 00 40 00 25 10 04 38 00 00 00 00 00 01 02 57
# ReportID: 1 / # / X:   2004 | Y:     43 | # | Tip Switch: 1 | Contact Id:   0 | # 
#             | X:  65535 | Y:  65535 | # | Tip Switch: 0 | Contact Id:   9 | # 
#             | X:  65535 | Y:  65535 | # | Tip Switch: 0 | Contact Id:   8 | # 
#             | X:  65535 | Y:  65535 | # | Tip Switch: 0 | Contact Id:   7 | # 
#             | X:  65535 | Y:  65535 | # | Tip Switch: 0 | Contact Id:   6 | # 
#             | X:  65535 | Y:  65535 | # | Tip Switch: 0 | Contact Id:   5 | # 
#             | X:  65535 | Y:  65535 | # | Tip Switch: 0 | Contact Id:   4 | # 
#             | X:  65535 | Y:  65535 | # | Tip Switch: 0 | Contact Id:   3 | # 
#             | X:  65535 | Y:  65535 | # | Tip Switch: 0 | Contact Id:   2 | # 
#             | X:  65535 | Y:  65535 | # | Tip Switch: 0 | Contact Id:   1 | # | # | # | Contact Count:    1 | # 
E: 000000.032290 83 01 60 52 00 fa d4 07 2b 00 02 01 ff ff ff ff ff 12 ff ff ff ff ff 10 ff ff ff ff ff 0e ff ff ff ff ff 0c ff ff ff ff ff 0a ff ff ff ff ff 08 ff ff ff ff ff 06 ff ff ff ff ff 04 ff ff ff ff ff 02 ff 0a 0a 00 40 00 25 10 04 40 00 00 00 00 00 01 02 4f
# ReportID: 1 / # / X:   2004 | Y:     43 | # | Tip Switch: 1 | Contact Id:   0 | # 
#             | X:  65535 | Y:  65535 | # | Tip Switch: 0 | Contact Id:   9 | # 
#             | X:  65535 | Y:  65535 | # | Tip Switch: 0 | Contact Id:   8 | # 
#             | X:  65535 | Y:  65535 | # | Tip Switch: 0 | Contact Id:   7 | # 
#             | X:  65535 | Y:  65535 | # | Tip Switch: 0 | Contact Id:   6 | # 
#             | X:  65535 | Y:  65535 | # | Tip Switch: 0 | Contact Id:   5 | # 
#             | X:  65535 | Y:  65535 | # | Tip Switch: 0 | Contact Id:   4 | # 
#             | X:  65535 | Y:  65535 | # | Tip Switch: 0 | Contact Id:   3 | # 
#             | X:  65535 | Y:  65535 | # | Tip Switch: 0 | Contact Id:   2 | # 
#             | X:  65535 | Y:  65535 | # | Tip Switch: 0 | Contact Id:   1 | # | # | # | Contact Count:    1 | # 
E: 000000.040428 83 01 60 52 00 fa d4 07 2b 00 02 01 ff ff ff ff ff 12 ff ff ff ff ff 10 ff ff ff ff ff 0e ff ff ff ff ff 0c ff ff ff ff ff 0a ff ff ff ff ff 08 ff ff ff ff ff 06 ff ff ff ff ff 04 ff ff ff ff ff 02 ff 0a 0a 00 40 00 25 10 04 32 00 00 00 00 00 01 02 5d
# ReportID: 1 / # / X:   2004 | Y:     43 | # | Tip Switch: 1 | Contact Id:   0 | # 
#             | X:  65535 | Y:  65535 | # | Tip Switch: 0 | Contact Id:   9 | # 
#             | X:  65535 | Y:  65535 | # | Tip Switch: 0 | Contact Id:   8 | # 
#             | X:  65535 | Y:  65535 | # | Tip Switch: 0 | Contact Id:   7 | # 
#             | X:  65535 | Y:  65535 | # | Tip Switch: 0 | Contact Id:   6 | # 
#             | X:  65535 | Y:  65535 | # | Tip Switch: 0 | Contact Id:   5 | # 
#             | X:  65535 | Y:  65535 | # | Tip Switch: 0 | Contact Id:   4 | # 
#             | X:  65535 | Y:  65535 | # | Tip Switch: 0 | Contact Id:   3 | # 
#             | X:  65535 | Y:  65535 | # | Tip Switch: 0 | Contact Id:   2 | # 
#             | X:  65535 | Y:  65535 | # | Tip Switch: 0 | Contact Id:   1 | # | # | # | Contact Count:    1 | # 
E: 000000.048799 83 01 60 52 00 fa d4 07 2b 00 02 01 ff ff ff ff ff 12 ff ff ff ff ff 10 ff ff ff ff ff 0e ff ff ff ff ff 0c ff ff ff ff ff 0a ff ff ff ff ff 08 ff ff ff ff ff 06 ff ff ff ff ff 04 ff ff ff ff ff 02 ff 0a 0a 00 40 00 25 10 04 1c 00 00 00 00 00 01 02 73
# ReportID: 1 / # / X:   2004 | Y:     44 | # | Tip Switch: 1 | Contact Id:   0 | # 
#             | X:  65535 | Y:  65535 | # | Tip Switch: 0 | Contact Id:   9 | # 
#             | X:  65535 | Y:  65535 | # | Tip Switch: 0 | Contact Id:   8 | # 
#             | X:  65535 | Y:  65535 | # | Tip Switch: 0 | Contact Id:   7 | # 
#             | X:  65535 | Y:  65535 | # | Tip Switch: 0 | Contact Id:   6 | # 
#             | X:  65535 | Y:  65535 | # | Tip Switch: 0 | Contact Id:   5 | # 
#             | X:  65535 | Y:  65535 | # | Tip Switch: 0 | Contact Id:   4 | # 
#             | X:  65535 | Y:  65535 | # | Tip Switch: 0 | Contact Id:   3 | # 
#             | X:  65535 | Y:  65535 | # | Tip Switch: 0 | Contact Id:   2 | # 
#             | X:  65535 | Y:  65535 | # | Tip Switch: 0 | Contact Id:   1 | # | # | # | Contact Count:    1 | # 
E: 000000.057176 83 01 60 52 00 fa d4 07 2c 00 02 01 ff ff ff ff ff 12 ff ff ff ff ff 10 ff ff ff ff ff 0e ff ff ff ff ff 0c ff ff ff ff ff 0a ff ff ff ff ff 08 ff ff ff ff ff 06 ff ff ff ff ff 04 ff ff ff ff ff 02 ff 0a 0a 00 40 00 25 10 04 47 00 00 00 00 00 01 02 47
# ReportID: 1 / # / X:   2000 | Y:     51 | # | Tip Switch: 1 | Contact Id:   0 | # 
#             | X:  65535 | Y:  65535 | # | Tip Switch: 0 | Contact Id:   9 | # 
#             | X:  65535 | Y:  65535 | # | Tip Switch: 0 | Contact Id:   8 | # 
#             | X:  65535 | Y:  65535 | # | Tip Switch: 0 | Contact Id:   7 | # 
#             | X:  65535 | Y:  65535 | # | Tip Switch: 0 | Contact Id:   6 | # 
#             | X:  65535 | Y:  65535 | # | Tip Switch: 0 | Contact Id:   5 | # 
#             | X:  65535 | Y:  65535 | # | Tip Switch: 0 | Contact Id:   4 | # 
#             | X:  65535 | Y:  65535 | # | Tip Switch: 0 | Contact Id:   3 | # 
#             | X:  65535 | Y:  65535 | # | Tip Switch: 0 | Contact Id:   2 | # 
#             | X:  65535 | Y:  65535 | # | Tip Switch: 0 | Contact Id:   1 | # | # | # | Contact Count:    1 | # 
E: 000000.065625 83 01 60 52 00 fa d0 07 33 00 02 01 ff ff ff ff ff 12 ff ff ff ff ff 10 ff ff ff ff ff 0e ff ff ff ff ff 0c ff ff ff ff ff 0a ff ff ff ff ff 08 ff ff ff ff ff 06 ff ff ff ff ff 04 ff ff ff ff ff 02 ff 0a 0a 00 40 00 25 10 04 8d 00 00 00 00 00 01 02 fe
# ReportID: 1 / # / X:   1997 | Y:     59 | # | Tip Switch: 1 | Contact Id:   0 | # 
#             | X:  65535 | Y:  65535 | # | Tip Switch: 0 | Contact Id:   9 | # 
#             | X:  65535 | Y:  65535 | # | Tip Switch: 0 | Contact Id:   8 | # 
#             | X:  65535 | Y:  65535 | # | Tip Switch: 0 | Contact Id:   7 | # 
#             | X:  65535 | Y:  65535 | # | Tip Switch: 0 | Contact Id:   6 | # 
#             | X:  65535 | Y:  65535 | # | Tip Switch: 0 | Contact Id:   5 | # 
#             | X:  65535 | Y:  65535 | # | Tip Switch: 0 | Contact Id:   4 | # 
#             | X:  65535 | Y:  65535 | # | Tip Switch: 0 | Contact Id:   3 | # 
#             | X:  65535 | Y:  65535 | # | Tip Switch: 0 | Contact Id:   2 | # 
#             | X:  65535 | Y:  65535 | # | Tip Switch: 0 | Contact Id:   1 | # | # | # | Contact Count:    1 | # 
E: 000000.074103 83 01 60 52 00 fa cd 07 3b 00 03 01 ff ff ff ff ff 12 ff ff ff ff ff 10 ff ff ff ff ff 0e ff ff ff ff ff 0c ff ff ff ff ff 0a ff ff ff ff ff 08 ff ff ff ff ff 06 ff ff ff ff ff 04 ff ff ff ff ff 02 ff 0a 0a 00 40 00 25 10 04 b6 00 00 00 00 00 01 02 cf
# ReportID: 1 / # / X:   1994 | Y:     67 | # | Tip Switch: 1 | Contact Id:   0 | # 
#             | X:  65535 | Y:  65535 | # | Tip Switch: 0 | Contact Id:   9 | # 
#             | X:  65535 | Y:  65535 | # | Tip Switch: 0 | Contact Id:   8 | # 
#             | X:  65535 | Y:  65535 | # | Tip Switch: 0 | Contact Id:   7 | # 
#             | X:  65535 | Y:  65535 | # | Tip Switch: 0 | Contact Id:   6 | # 
#             | X:  65535 | Y:  65535 | # | Tip Switch: 0 | Contact Id:   5 | # 
#             | X:  65535 | Y:  65535 | # | Tip Switch: 0 | Contact Id:   4 | # 
#             | X:  65535 | Y:  65535 | # | Tip Switch: 0 | Contact Id:   3 | # 
#             | X:  65535 | Y:  65535 | # | Tip Switch: 0 | Contact Id:   2 | # 
#             | X:  65535 | Y:  65535 | # | Tip Switch: 0 | Contact Id:   1 | # | # | # | Contact Count:    1 | # 
E: 000000.082136 83 01 60 52 00 fa ca 07 43 00 03 01 ff ff ff ff ff 12 ff ff ff ff ff 10 ff ff ff ff ff 0e ff ff ff ff ff 0c ff ff ff ff ff 0a ff ff ff ff ff 08 ff ff ff ff ff 06 ff ff ff ff ff 04 ff ff ff ff ff 02 ff 0a 0a 00 40 00 25 10 04 cb 00 00 00 00 00 01 02 b5
# ReportID: 1 / # / X:   1991 | Y:     77 | # | Tip Switch: 1 | Contact Id:   0 | # 
#             | X:  65535 | Y:  65535 | # | Tip Switch: 0 | Contact Id:   9 | # 
#             | X:  65535 | Y:  65535 | # | Tip Switch: 0 | Contact Id:   8 | # 
#             | X:  65535 | Y:  65535 | # | Tip Switch: 0 | Contact Id:   7 | # 
#             | X:  65535 | Y:  65535 | # | Tip Switch: 0 | Contact Id:   6 | # 
#             | X:  65535 | Y:  65535 | # | Tip Switch: 0 | Contact Id:   5 | # 
#             | X:  65535 | Y:  65535 | # | Tip Switch: 0 | Contact Id:   4 | # 
#             | X:  65535 | Y:  65535 | # | Tip Switch: 0 | Contact Id:   3 | # 
#             | X:  65535 | Y:  65535 | # | Tip Switch: 0 | Contact Id:   2 | # 
#             | X:  65535 | Y:  65535 | # | Tip Switch: 0 | Contact Id:   1 | # | # | # | Contact Count:    1 | # 
E: 000000.090474 83 01 60 52 00 fa c7 07 4d 00 03 01 ff ff ff ff ff 12 ff ff ff ff ff 10 ff ff ff ff ff 0e ff ff ff ff ff 0c ff ff ff ff ff 0a ff ff ff ff ff 08 ff ff ff ff ff 06 ff ff ff ff ff 04 ff ff ff ff ff 02 ff 0a 0a 00 40 00 25 10 04 bc 00 00 00 00 00 01 02 bd
# ReportID: 1 / # / X:   1988 | Y:     88 | # | Tip Switch: 1 | Contact Id:   0 | # 
#             | X:  65535 | Y:  65535 | # | Tip Switch: 0 | Contact Id:   9 | # 
#             | X:  65535 | Y:  65535 | # | Tip Switch: 0 | Contact Id:   8 | # 
#             | X:  65535 | Y:  65535 | # | Tip Switch: 0 | Contact Id:   7 | # 
#             | X:  65535 | Y:  65535 | # | Tip Switch: 0 | Contact Id:   6 | # 
#             | X:  65535 | Y:  65535 | # | Tip Switch: 0 | Contact Id:   5 | # 
#             | X:  65535 | Y:  65535 | # | Tip Switch: 0 | Contact Id:   4 | # 
#             | X:  65535 | Y:  65535 | # | Tip Switch: 0 | Contact Id:   3 | # 
#             | X:  65535 | Y:  65535 | # | Tip Switch: 0 | Contact Id:   2 | # 
#             | X:  65535 | Y:  65535 | # | Tip Switch: 0 | Contact Id:   1 | # | # | # | Contact Count:    1 | # 
E: 000000.099363 83 01 60 52 00 fa c4 07 58 00 03 01 ff ff ff ff ff 12 ff ff ff ff ff 10 ff ff ff ff ff 0e ff ff ff ff ff 0c ff ff ff ff ff 0a ff ff ff ff ff 08 ff ff ff ff ff 06 ff ff ff ff ff 04 ff ff ff ff ff 02 ff 0a 0a 00 40 00 25 10 04 98 00 00 00 00 00 01 02 d9
# ReportID: 1 / # / X:   1986 | Y:    100 | # | Tip Switch: 1 | Contact Id:   0 | # 
#             | X:  65535 | Y:  65535 | # | Tip Switch: 0 | Contact Id:   9 | # 
#             | X:  65535 | Y:  65535 | # | Tip Switch: 0 | Contact Id:   8 | # 
#             | X:  65535 | Y:  65535 | # | Tip Switch: 0 | Contact Id:   7 | # 
#             | X:  65535 | Y:  65535 | # | Tip Switch: 0 | Contact Id:   6 | # 
#             | X:  65535 | Y:  65535 | # | Tip Switch: 0 | Contact Id:   5 | # 
#             | X:  65535 | Y:  65535 | # | Tip Switch: 0 | Contact Id:   4 | # 
#             | X:  65535 | Y:  65535 | # | Tip Switch: 0 | Contact Id:   3 | # 
#             | X:  65535 | Y:  65535 | # | Tip Switch: 0 | Contact Id:   2 | # 
#             | X:  65535 | Y:  65535 | # | Tip Switch: 0 | Contact Id:   1 | # | # | # | Contact Count:    1 | # 
E: 000000.107180 83 01 60 52 00 fa c2 07 64 00 03 01 ff ff ff ff ff 12 ff ff ff ff ff 10 ff ff ff ff ff 0e ff ff ff ff ff 0c ff ff ff ff ff 0a ff ff ff ff ff 08 ff ff ff ff ff 06 ff ff ff ff ff 04 ff ff ff ff ff 02 ff 0a 0a 00 40 00 25 10 04 82 00 00 00 00 00 01 02 e5
# ReportID: 1 / # / X:   1983 | Y:    111 | # | Tip Switch: 1 | Contact Id:   0 | # 
#             | X:  65535 | Y:  65535 | # | Tip Switch: 0 | Contact Id:   9 | # 
#             | X:  65535 | Y:  65535 | # | Tip Switch: 0 | Contact Id:   8 | # 
#             | X:  65535 | Y:  65535 | # | Tip Switch: 0 | Contact Id:   7 | # 
#             | X:  65535 | Y:  65535 | # | Tip Switch: 0 | Contact Id:   6 | # 
#             | X:  65535 | Y:  65535 | # | Tip Switch: 0 | Contact Id:   5 | # 
#             | X:  65535 | Y:  65535 | # | Tip Switch: 0 | Contact Id:   4 | # 
#             | X:  65535 | Y:  65535 | # | Tip Switch: 0 | Contact Id:   3 | # 
#             | X:  65535 | Y:  65535 | # | Tip Switch: 0 | Contact Id:   2 | # 
#             | X:  65535 | Y:  65535 | # | Tip Switch: 0 | Contact Id:   1 | # | # | # | Contact Count:    1 | # 
E: 000000.115607 83 01 60 52 00 fa bf 07 6f 00 03 01 ff ff ff ff ff 12 ff ff ff ff ff 10 ff ff ff ff ff 0e ff ff ff ff ff 0c ff ff ff ff ff 0a ff ff ff ff ff 08 ff ff ff ff ff 06 ff ff ff ff ff 04 ff ff ff ff ff 02 ff 0a 0a 00 40 00 25 10 04 4e 00 00 00 00 00 01 02 11
# ReportID: 1 / # / X:   1981 | Y:    121 | # | Tip Switch: 1 | Contact Id:   0 | # 
#             | X:  65535 | Y:  65535 | # | Tip Switch: 0 | Contact Id:   9 | # 
#             | X:  65535 | Y:  65535 | # | Tip Switch: 0 | Contact Id:   8 | # 
#             | X:  65535 | Y:  65535 | # | Tip Switch: 0 | Contact Id:   7 | # 
#             | X:  65535 | Y:  65535 | # | Tip Switch: 0 | Contact Id:   6 | # 
#             | X:  65535 | Y:  65535 | # | Tip Switch: 0 | Contact Id:   5 | # 
#             | X:  65535 | Y:  65535 | # | Tip Switch: 0 | Contact Id:   4 | # 
#             | X:  65535 | Y:  65535 | # | Tip Switch: 0 | Contact Id:   3 | # 
#             | X:  65535 | Y:  65535 | # | Tip Switch: 0 | Contact Id:   2 | # 
#             | X:  65535 | Y:  65535 | # | Tip Switch: 0 | Contact Id:   1 | # | # | # | Contact Count:    1 | # 
E: 000000.123800 83 01 60 52 00 fa bd 07 79 00 03 01 ff ff ff ff ff 12 ff ff ff ff ff 10 ff ff ff ff ff 0e ff ff ff ff ff 0c ff ff ff ff ff 0a ff ff ff ff ff 08 ff ff ff ff ff 06 ff ff ff ff ff 04 ff ff ff ff ff 02 ff 0a 0a 00 40 00 25 10 04 a4 00 00 00 00 00 01 02 b3
# ReportID: 1 / # / X:   1978 | Y:    132 | # | Tip Switch: 1 | Contact Id:   0 | # 
#             | X:  65535 | Y:  65535 | # | Tip Switch: 0 | Contact Id:   9 | # 
#             | X:  65535 | Y:  65535 | # | Tip Switch: 0 | Contact Id:   8 | # 
#             | X:  65535 | Y:  65535 | # | Tip Switch: 0 | Contact Id:   7 | # 
#             | X:  65535 | Y:  65535 | # | Tip Switch: 0 | Contact Id:   6 | # 
#             | X:  65535 | Y:  65535 | # | Tip Switch: 0 | Contact Id:   5 | # 
#             | X:  65535 | Y:  65535 | # | Tip Switch: 0 | Contact Id:   4 | # 
#             | X:  65535 | Y:  65535 | # | Tip Switch: 0 | Contact Id:   3 | # 
#             | X:  65535 | Y:  65535 | # | Tip Switch: 0 | Contact Id:   2 | # 
#             | X:  65535 | Y:  65535 | # | Tip Switch: 0 | Contact Id:   1 | # | # | # | Contact Count:    1 | # 
E: 000000.132268 83 01 60 52 00 fa ba 07 84 00 03 01 ff ff ff ff ff 12 ff ff ff ff ff 10 ff ff ff ff ff 0e ff ff ff ff ff 0c ff ff ff ff ff 0a ff ff ff ff ff 08 ff ff ff ff ff 06 ff ff ff ff ff 04 ff ff ff ff ff 02 ff 0a 0a 00 40 00 25 10 04 b2 00 00 00 00 00 01 02 9d
# ReportID: 1 / # / X:   1975 | Y:    144 | # | Tip Switch: 1 | Contact Id:   0 | # 
#             | X:  65535 | Y:  65535 | # | Tip Switch: 0 | Contact Id:   9 | # 
#             | X:  65535 | Y:  65535 | # | Tip Switch: 0 | Contact Id:   8 | # 
#             | X:  65535 | Y:  65535 | # | Tip Switch: 0 | Contact Id:   7 | # 
#             | X:  65535 | Y:  65535 | # | Tip Switch: 0 | Contact Id:   6 | # 
#             | X:  65535 | Y:  65535 | # | Tip Switch: 0 | Contact Id:   5 | # 
#             | X:  65535 | Y:  65535 | # | Tip Switch: 0 | Contact Id:   4 | # 
#             | X:  65535 | Y:  65535 | # | Tip Switch: 0 | Contact Id:   3 | # 
#             | X:  65535 | Y:  65535 | # | Tip Switch: 0 | Contact Id:   2 | # 
#             | X:  65535 | Y:  65535 | # | Tip Switch: 0 | Contact Id:   1 | # | # | # | Contact Count:    1 | # 
E: 000000.140490 83 01 60 52 00 fa b7 07 90 00 03 01 ff ff ff ff ff 12 ff ff ff ff ff 10 ff ff ff ff ff 0e ff ff ff ff ff 0c ff ff ff ff ff 0a ff ff ff ff ff 08 ff ff ff ff ff 06 ff ff ff ff ff 04 ff ff ff ff ff 02 ff 0a 0a 00 40 00 25 10 04 be 00 00 00 00 00 01 02 88
# ReportID: 1 / # / X:   1972 | Y:    158 | # | Tip Switch: 1 | Contact Id:   0 | # 
#             | X:  65535 | Y:  65535 | # | Tip Switch: 0 | Contact Id:   9 | # 
#             | X:  65535 | Y:  65535 | # | Tip Switch: 0 | Contact Id:   8 | # 
#             | X:  65535 | Y:  65535 | # | Tip Switch: 0 | Contact Id:   7 | # 
#             | X:  65535 | Y:  65535 | # | Tip Switch: 0 | Contact Id:   6 | # 
#             | X:  65535 | Y:  65535 | # | Tip Switch: 0 | Contact Id:   5 | # 
#             | X:  65535 | Y:  65535 | # | Tip Switch: 0 | Contact Id:   4 | # 
#             | X:  65535 | Y:  65535 | # | Tip Switch: 0 | Contact Id:   3 | # 
#             | X:  65535 | Y:  65535 | # | Tip Switch: 0 | Contact Id:   2 | # 
#             | X:  65535 | Y:  65535 | # | Tip Switch: 0 | Contact Id:   1 | # | # | # | Contact Count:    1 | # 
E: 000000.148825 83 01 60 52 00 fa b4 07 9e 00 03 01 ff ff ff ff ff 12 ff ff ff ff ff 10 ff ff ff ff ff 0e ff ff ff ff ff 0c ff ff ff ff ff 0a ff ff ff ff ff 08 ff ff ff ff ff 06 ff ff ff ff ff 04 ff ff ff ff ff 02 ff 0a 0a 00 40 00 25 10 04 a7 00 00 00 00 00 01 02 94
# ReportID: 1 / # / X:   1970 | Y:    171 | # | Tip Switch: 1 | Contact Id:   0 | # 
#             | X:  65535 | Y:  65535 | # | Tip Switch: 0 | Contact Id:   9 | # 
#             | X:  65535 | Y:  65535 | # | Tip Switch: 0 | Contact Id:   8 | # 
#             | X:  65535 | Y:  65535 | # | Tip Switch: 0 | Contact Id:   7 | # 
#             | X:  65535 | Y:  65535 | # | Tip Switch: 0 | Contact Id:   6 | # 
#             | X:  65535 | Y:  65535 | # | Tip Switch: 0 | Contact Id:   5 | # 
#             | X:  65535 | Y:  65535 | # | Tip Switch: 0 | Contact Id:   4 | # 
#             | X:  65535 | Y:  65535 | # | Tip Switch: 0 | Contact Id:   3 | # 
#             | X:  65535 | Y:  65535 | # | Tip Switch: 0 | Contact Id:   2 | # 
#             | X:  65535 | Y:  65535 | # | Tip Switch: 0 | Contact Id:   1 | # | # | # | Contact Count:    1 | # 
E: 000000.157253 83 01 60 52 00 fa b2 07 ab 00 03 01 ff ff ff ff ff 12 ff ff ff ff ff 10 ff ff ff ff ff 0e ff ff ff ff ff 0c ff ff ff ff ff 0a ff ff ff ff ff 08 ff ff ff ff ff 06 ff ff ff ff ff 04 ff ff ff ff ff 02 ff 0a 0a 00 40 00 25 10 04 60 00 00 00 00 00 01 02 d0
# ReportID: 1 / # / X:   1967 | Y:    184 | # | Tip Switch: 1 | Contact Id:   0 | # 
#             | X:  65535 | Y:  65535 | # | Tip Switch: 0 | Contact Id:   9 | # 
#             | X:  65535 | Y:  65535 | # | Tip Switch: 0 | Contact Id:   8 | # 
#             | X:  65535 | Y:  65535 | # | Tip Switch: 0 | Contact Id:   7 | # 
#             | X:  65535 | Y:  65535 | # | Tip Switch: 0 | Contact Id:   6 | # 
#             | X:  65535 | Y:  65535 | # | Tip Switch: 0 | Contact Id:   5 | # 
#             | X:  65535 | Y:  65535 | # | Tip Switch: 0 | Contact Id:   4 | # 
#             | X:  65535 | Y:  65535 | # | Tip Switch: 0 | Contact Id:   3 | # 
#             | X:  65535 | Y:  65535 | # | Tip Switch: 0 | Contact Id:   2 | # 
#             | X:  65535 | Y:  65535 | # | Tip Switch: 0 | Contact Id:   1 | # | # | # | Contact Count:    1 | # 
E: 000000.165524 83 01 60 52 00 fa af 07 b8 00 03 01 ff ff ff ff ff 12 ff ff ff ff ff 10 ff ff ff ff ff 0e ff ff ff ff ff 0c ff ff ff ff ff 0a ff ff ff ff ff 08 ff ff ff ff ff 06 ff ff ff ff ff 04 ff ff ff ff ff 02 ff 0a 0a 00 40 00 25 10 04 9c 00 00 00 00 00 01 02 8a
# ReportID: 1 / # / X:   1964 | Y:    198 | # | Tip Switch: 1 | Contact Id:   0 | # 
#             | X:  65535 | Y:  65535 | # | Tip Switch: 0 | Contact Id:   9 | # 
#             | X:  65535 | Y:  65535 | # | Tip Switch: 0 | Contact Id:   8 | # 
#             | X:  65535 | Y:  65535 | # | Tip Switch: 0 | Contact Id:   7 | # 
#             | X:  65535 | Y:  65535 | # | Tip Switch: 0 | Contact Id:   6 | # 
#             | X:  65535 | Y:  65535 | # | Tip Switch: 0 | Contact Id:   5 | # 
#             | X:  65535 | Y:  65535 | # | Tip Switch: 0 | Contact Id:   4 | # 
#             | X:  65535 | Y:  65535 | # | Tip Switch: 0 | Contact Id:   3 | # 
#             | X:  65535 | Y:  65535 | # | Tip Switch: 0 | Contact Id:   2 | # 
#             | X:  65535 | Y:  65535 | # | Tip Switch: 0 | Contact Id:   1 | # | # | # | Contact Count:    1 | # 
E: 000000.173827 83 01 60 52 00 fa ac 07 c6 00 03 01 ff ff ff ff ff 12 ff ff ff ff ff 10 ff ff ff ff ff 0e ff ff ff ff ff 0c ff ff ff ff ff 0a ff ff ff ff ff 08 ff ff ff ff ff 06 ff ff ff ff ff 04 ff ff ff ff ff 02 ff 0a 0a 00 40 00 25 10 04 ab 00 00 00 00 00 01 02 70
# ReportID: 1 / # / X:   1962 | Y:    214 | # | Tip Switch: 1 | Contact Id:   0 | # 
#             | X:  65535 | Y:  65535 | # | Tip Switch: 0 | Contact Id:   9 | # 
#             | X:  65535 | Y:  65535 | # | Tip Switch: 0 | Contact Id:   8 | # 
#             | X:  65535 | Y:  65535 | # | Tip Switch: 0 | Contact Id:   7 | # 
#             | X:  65535 | Y:  65535 | # | Tip Switch: 0 | Contact Id:   6 | # 
#             | X:  65535 | Y:  65535 | # | Tip Switch: 0 | Contact Id:   5 | # 
#             | X:  65535 | Y:  65535 | # | Tip Switch: 0 | Contact Id:   4 | # 
#             | X:  65535 | Y:  65535 | # | Tip Switch: 0 | Contact Id:   3 | # 
#             | X:  65535 | Y:  65535 | # | Tip Switch: 0 | Contact Id:   2 | # 
#             | X:  65535 | Y:  65535 | # | Tip Switch: 0 | Contact Id:   1 | # | # | # | Contact Count:    1 | # 
E: 000000.182180 83 01 60 52 00 fa aa 07 d6 00 03 01 ff ff ff ff ff 12 ff ff ff ff ff 10 ff ff ff ff ff 0e ff ff ff ff ff 0c ff ff ff ff ff 0a ff ff ff ff ff 08 ff ff ff ff ff 06 ff ff ff ff ff 04 ff ff ff ff ff 02 ff 0a 0a 00 40 00 25 10 04 ad 00 00 00 00 00 01 02 60
# ReportID: 1 / # / X:   1960 | Y:    232 | # | Tip Switch: 1 | Contact Id:   0 | # 
#             | X:  65535 | Y:  65535 | # | Tip Switch: 0 | Contact Id:   9 | # 
#             | X:  65535 | Y:  65535 | # | Tip Switch: 0 | Contact Id:   8 | # 
#             | X:  65535 | Y:  65535 | # | Tip Switch: 0 | Contact Id:   7 | # 
#             | X:  65535 | Y:  65535 | # | Tip Switch: 0 | Contact Id:   6 | # 
#             | X:  65535 | Y:  65535 | # | Tip Switch: 0 | Contact Id:   5 | # 
#             | X:  65535 | Y:  65535 | # | Tip Switch: 0 | Contact Id:   4 | # 
#             | X:  65535 | Y:  65535 | # | Tip Switch: 0 | Contact Id:   3 | # 
#             | X:  65535 | Y:  65535 | # | Tip Switch: 0 | Contact Id:   2 | # 
#             | X:  65535 | Y:  65535 | # | Tip Switch: 0 | Contact Id:   1 | # | # | # | Contact Count:    1 | # 
E: 000000.190511 83 01 60 52 00 fa a8 07 e8 00 03 01 ff ff ff ff ff 12 ff ff ff ff ff 10 ff ff ff ff ff 0e ff ff ff ff ff 0c ff ff ff ff ff 0a ff ff ff ff ff 08 ff ff ff ff ff 06 ff ff ff ff ff 04 ff ff ff ff ff 02 ff 0a 0a 00 40 00 25 10 04 50 00 00 00 00 00 01 02 ad
# ReportID: 1 / # / X:   1959 | Y:    248 | # | Tip Switch: 1 | Contact Id:   0 | # 
#             | X:  65535 | Y:  65535 | # | Tip Switch: 0 | Contact Id:   9 | # 
#             | X:  65535 | Y:  65535 | # | Tip Switch: 0 | Contact Id:   8 | # 
#             | X:  65535 | Y:  65535 | # | Tip Switch: 0 | Contact Id:   7 | # 
#             | X:  65535 | Y:  65535 | # | Tip Switch: 0 | Contact Id:   6 | # 
#             | X:  65535 | Y:  65535 | # | Tip Switch: 0 | Contact Id:   5 | # 
#             | X:  65535 | Y:  65535 | # | Tip Switch: 0 | Contact Id:   4 | # 
#             | X:  65535 | Y:  65535 | # | Tip Switch: 0 | Contact Id:   3 | # 
#             | X:  65535 | Y:  65535 | # | Tip Switch: 0 | Contact Id:   2 | # 
#             | X:  65535 | Y:  65535 | # | Tip Switch: 0 | Contact Id:   1 | # | # | # | Contact Count:    1 | # 
E: 000000.198904 83 01 60 52 00 fa a7 07 f8 00 03 01 ff ff ff ff ff 12 ff ff ff ff ff 10 ff ff ff ff ff 0e ff ff ff ff ff 0c ff ff ff ff ff 0a ff ff ff ff ff 08 ff ff ff ff ff 06 ff ff ff ff ff 04 ff ff ff ff ff 02 ff 0a 0a 00 40 00 25 10 04 9d 00 00 00 00 00 01 02 51
# ReportID: 1 / # / X:   1958 | Y:    265 | # | Tip Switch: 1 | Contact Id:   0 | # 
#             | X:  65535 | Y:  65535 | # | Tip Switch: 0 | Contact Id:   9 | # 
#             | X:  65535 | Y:  65535 | # | Tip Switch: 0 | Contact Id:   8 | # 
#             | X:  65535 | Y:  65535 | # | Tip Switch: 0 | Contact Id:   7 | # 
#             | X:  65535 | Y:  65535 | # | Tip Switch: 0 | Contact Id:   6 | # 
#             | X:  65535 | Y:  65535 | # | Tip Switch: 0 | Contact Id:   5 | # 
#             | X:  65535 | Y:  65535 | # | Tip Switch: 0 | Contact Id:   4 | # 
#             | X:  65535 | Y:  65535 | # | Tip Switch: 0 | Contact Id:   3 | # 
#             | X:  65535 | Y:  65535 | # | Tip Switch: 0 | Contact Id:   2 | # 
#             | X:  65535 | Y:  65535 | # | Tip Switch: 0 | Contact Id:   1 | # | # | # | Contact Count:    1 | # 
E: 000000.207264 83 01 60 52 00 fa a6 07 09 01 03 01 ff ff ff ff ff 12 ff ff ff ff ff 10 ff ff ff ff ff 0e ff ff ff ff ff 0c ff ff ff ff ff 0a ff ff ff ff ff 08 ff ff ff ff ff 06 ff ff ff ff ff 04 ff ff ff ff ff 02 ff 0a 0a 00 40 00 25 10 04 be 00 00 00 00 00 01 02 1f
# ReportID: 1 / # / X:   1957 | Y:    284 | # | Tip Switch: 1 | Contact Id:   0 | # 
#             | X:  65535 | Y:  65535 | # | Tip Switch: 0 | Contact Id:   9 | # 
#             | X:  65535 | Y:  65535 | # | Tip Switch: 0 | Contact Id:   8 | # 
#             | X:  65535 | Y:  65535 | # | Tip Switch: 0 | Contact Id:   7 | # 
#             | X:  65535 | Y:  65535 | # | Tip Switch: 0 | Contact Id:   6 | # 
#             | X:  65535 | Y:  65535 | # | Tip Switch: 0 | Contact Id:   5 | # 
#             | X:  65535 | Y:  65535 | # | Tip Switch: 0 | Contact Id:   4 | # 
#             | X:  65535 | Y:  65535 | # | Tip Switch: 0 | Contact Id:   3 | # 
#             | X:  65535 | Y:  65535 | # | Tip Switch: 0 | Contact Id:   2 | # 
#             | X:  65535 | Y:  65535 | # | Tip Switch: 0 | Contact Id:   1 | # | # | # | Contact Count:    1 | # 
E: 000000.215638 83 01 60 52 00 fa a5 07 1c 01 03 01 ff ff ff ff ff 12 ff ff ff ff ff 10 ff ff ff ff ff 0e ff ff ff ff ff 0c ff ff ff ff ff 0a ff ff ff ff ff 08 ff ff ff ff ff 06 ff ff ff ff ff 04 ff ff ff ff ff 02 ff 0a 0a 00 40 00 25 10 04 9f 00 00 00 00 00 01 02 2c
# ReportID: 1 / # / X:   1955 | Y:    301 | # | Tip Switch: 1 | Contact Id:   0 | # 
#             | X:  65535 | Y:  65535 | # | Tip Switch: 0 | Contact Id:   9 | # 
#             | X:  65535 | Y:  65535 | # | Tip Switch: 0 | Contact Id:   8 | # 
#             | X:  65535 | Y:  65535 | # | Tip Switch: 0 | Contact Id:   7 | # 
#             | X:  65535 | Y:  65535 | # | Tip Switch: 0 | Contact Id:   6 | # 
#             | X:  65535 | Y:  65535 | # | Tip Switch: 0 | Contact Id:   5 | # 
#             | X:  65535 | Y:  65535 | # | Tip Switch: 0 | Contact Id:   4 | # 
#             | X:  65535 | Y:  65535 | # | Tip Switch: 0 | Contact Id:   3 | # 
#             | X:  65535 | Y:  65535 | # | Tip Switch: 0 | Contact Id:   2 | # 
#             | X:  65535 | Y:  65535 | # | Tip Switch: 0 | Contact Id:   1 | # | # | # | Contact Count:    1 | # 
E: 000000.223868 83 01 60 52 00 fa a3 07 2d 01 03 01 ff ff ff ff ff 12 ff ff ff ff ff 10 ff ff ff ff ff 0e ff ff ff ff ff 0c ff ff ff ff ff 0a ff ff ff ff ff 08 ff ff ff ff ff 06 ff ff ff ff ff 04 ff ff ff ff ff 02 ff 0a 0a 00 40 00 25 10 04 65 00 00 00 00 00 01 02 57
# ReportID: 1 / # / X:   1955 | Y:    318 | # | Tip Switch: 1 | Contact Id:   0 | # 
#             | X:  65535 | Y:  65535 | # | Tip Switch: 0 | Contact Id:   9 | # 
#             | X:  65535 | Y:  65535 | # | Tip Switch: 0 | Contact Id:   8 | # 
#             | X:  65535 | Y:  65535 | # | Tip Switch: 0 | Contact Id:   7 | # 
#             | X:  65535 | Y:  65535 | # | Tip Switch: 0 | Contact Id:   6 | # 
#             | X:  65535 | Y:  65535 | # | Tip Switch: 0 | Contact Id:   5 | # 
#             | X:  65535 | Y:  65535 | # | Tip Switch: 0 | Contact Id:   4 | # 
#             | X:  65535 | Y:  65535 | # | Tip Switch: 0 | Contact Id:   3 | # 
#             | X:  65535 | Y:  65535 | # | Tip Switch: 0 | Contact Id:   2 | # 
#             | X:  65535 | Y:  65535 | # | Tip Switch: 0 | Contact Id:   1 | # | # | # | Contact Count:    1 | # 
E: 000000.232359 83 01 60 52 00 fa a3 07 3e 01 03 01 ff ff ff ff ff 12 ff ff ff ff ff 10 ff ff ff ff ff 0e ff ff ff ff ff 0c ff ff ff ff ff 0a ff ff ff ff ff 08 ff ff ff ff ff 06 ff ff ff ff ff 04 ff ff ff ff ff 02 ff 0a 0a 00 40 00 25 10 04 a8 00 00 00 00 00 01 02 03
# ReportID: 1 / # / X:   1954 | Y:    338 | # | Tip Switch: 1 | Contact Id:   0 | # 
#             | X:  65535 | Y:  65535 | # | Tip Switch: 0 | Contact Id:   9 | # 
#             | X:  65535 | Y:  65535 | # | Tip Switch: 0 | Contact Id:   8 | # 
#             | X:  65535 | Y:  65535 | # | Tip Switch: 0 | Contact Id:   7 | # 
#             | X:  65535 | Y:  65535 | # | Tip Switch: 0 | Contact Id:   6 | # 
#             | X:  65535 | Y:  65535 | # | Tip Switch: 0 | Contact Id:   5 | # 
#             | X:  65535 | Y:  65535 | # | Tip Switch: 0 | Contact Id:   4 | # 
#             | X:  65535 | Y:  65535 | # | Tip Switch: 0 | Contact Id:   3 | # 
#             | X:  65535 | Y:  65535 | # | Tip Switch: 0 | Contact Id:   2 | # 
#             | X:  65535 | Y:  65535 | # | Tip Switch: 0 | Contact Id:   1 | # | # | # | Contact Count:    1 | # 
E: 000000.240638 83 01 60 52 00 fa a2 07 52 01 03 01 ff ff ff ff ff 12 ff ff ff ff ff 10 ff ff ff ff ff 0e ff ff ff ff ff 0c ff ff ff ff ff 0a ff ff ff ff ff 08 ff ff ff ff ff 06 ff ff ff ff ff 04 ff ff ff ff ff 02 ff 0a 0a 00 40 00 25 10 04 b2 00 00 00 00 00 01 02 e6
# ReportID: 1 / # / X:   1954 | Y:    358 | # | Tip Switch: 1 | Contact Id:   0 | # 
#             | X:  65535 | Y:  65535 | # | Tip Switch: 0 | Contact Id:   9 | # 
#             | X:  65535 | Y:  65535 | # | Tip Switch: 0 | Contact Id:   8 | # 
#             | X:  65535 | Y:  65535 | # | Tip Switch: 0 | Contact Id:   7 | # 
#             | X:  65535 | Y:  65535 | # | Tip Switch: 0 | Contact Id:   6 | # 
#             | X:  65535 | Y:  65535 | # | Tip Switch: 0 | Contact Id:   5 | # 
#             | X:  65535 | Y:  65535 | # | Tip Switch: 0 | Contact Id:   4 | # 
#             | X:  65535 | Y:  65535 | # | Tip Switch: 0 | Contact Id:   3 | # 
#             | X:  65535 | Y:  65535 | # | Tip Switch: 0 | Contact Id:   2 | # 
#             | X:  65535 | Y:  65535 | # | Tip Switch: 0 | Contact Id:   1 | # | # | # | Contact Count:    1 | # 
E: 000000.248839 83 01 60 52 00 fa a2 07 66 01 03 01 ff ff ff ff ff 12 ff ff ff ff ff 10 ff ff ff ff ff 0e ff ff ff ff ff 0c ff ff ff ff ff 0a ff ff ff ff ff 08 ff ff ff ff ff 06 ff ff ff ff ff 04 ff ff ff ff ff 02 ff 0a 0a 00 40 00 25 10 04 3b 00 00 00 00 00 01 02 49
# ReportID: 1 / # / X:   1954 | Y:    378 | # | Tip Switch: 1 | Contact Id:   0 | # 
#             | X:  65535 | Y:  65535 | # | Tip Switch: 0 | Contact Id:   9 | # 
#             | X:  65535 | Y:  65535 | # | Tip Switch: 0 | Contact Id:   8 | # 
#             | X:  65535 | Y:  65535 | # | Tip Switch: 0 | Contact Id:   7 | # 
#             | X:  65535 | Y:  65535 | # | Tip Switch: 0 | Contact Id:   6 | # 
#             | X:  65535 | Y:  65535 | # | Tip Switch: 0 | Contact Id:   5 | # 
#             | X:  65535 | Y:  65535 | # | Tip Switch: 0 | Contact Id:   4 | # 
#             | X:  65535 | Y:  65535 | # | Tip Switch: 0 | Contact Id:   3 | # 
#             | X:  65535 | Y:  65535 | # | Tip Switch: 0 | Contact Id:   2 | # 
#             | X:  65535 | Y:  65535 | # | Tip Switch: 0 | Contact Id:   1 | # | # | # | Contact Count:    1 | # 
E: 000000.257279 83 01 60 52 00 fa a2 07 7a 01 03 01 ff ff ff ff ff 12 ff ff ff ff ff 10 ff ff ff ff ff 0e ff ff ff ff ff 0c ff ff ff ff ff 0a ff ff ff ff ff 08 ff ff ff ff ff 06 ff ff ff ff ff 04 ff ff ff ff ff 02 ff 0a 0a 00 40 00 25 10 04 c1 00 00 00 00 00 01 02 af
# ReportID: 1 / # / X:   1954 | Y:    399 | # | Tip Switch: 1 | Contact Id:   0 | # 
#             | X:  65535 | Y:  65535 | # | Tip Switch: 0 | Contact Id:   9 | # 
#             | X:  65535 | Y:  65535 | # | Tip Switch: 0 | Contact Id:   8 | # 
#             | X:  65535 | Y:  65535 | # | Tip Switch: 0 | Contact Id:   7 | # 
#             | X:  65535 | Y:  65535 | # | Tip Switch: 0 | Contact Id:   6 | # 
#             | X:  65535 | Y:  65535 | # | Tip Switch: 0 | Contact Id:   5 | # 
#             | X:  65535 | Y:  65535 | # | Tip Switch: 0 | Contact Id:   4 | # 
#             | X:  65535 | Y:  65535 | # | Tip Switch: 0 | Contact Id:   3 | # 
#             | X:  65535 | Y:  65535 | # | Tip Switch: 0 | Contact Id:   2 | # 
#             | X:  65535 | Y:  65535 | # | Tip Switch: 0 | Contact Id:   1 | # | # | # | Contact Count:    1 | # 
E: 000000.265725 83 01 60 52 00 fa a2 07 8f 01 03 01 ff ff ff ff ff 12 ff ff ff ff ff 10 ff ff ff ff ff 0e ff ff ff ff ff 0c ff ff ff ff ff 0a ff ff ff ff ff 08 ff ff ff ff ff 06 ff ff ff ff ff 04 ff ff ff ff ff 02 ff 0a 0a 00 40 00 25 10 04 b1 00 00 00 00 00 01 02 aa
# ReportID: 1 / # / X:   1954 | Y:    421 | # | Tip Switch: 1 | Contact Id:   0 | # 
#             | X:  65535 | Y:  65535 | # | Tip Switch: 0 | Contact Id:   9 | # 
#             | X:  65535 | Y:  65535 | # | Tip Switch: 0 | Contact Id:   8 | # 
#             | X:  65535 | Y:  65535 | # | Tip Switch: 0 | Contact Id:   7 | # 
#             | X:  65535 | Y:  65535 | # | Tip Switch: 0 | Contact Id:   6 | # 
#             | X:  65535 | Y:  65535 | # | Tip Switch: 0 | Contact Id:   5 | # 
#             | X:  65535 | Y:  65535 | # | Tip Switch: 0 | Contact Id:   4 | # 
#             | X:  65535 | Y:  65535 | # | Tip Switch: 0 | Contact Id:   3 | # 
#             | X:  65535 | Y:  65535 | # | Tip Switch: 0 | Contact Id:   2 | # 
#             | X:  65535 | Y:  65535 | # | Tip Switch: 0 | Contact Id:   1 | # | # | # | Contact Count:    1 | # 
E: 000000.273974 83 01 60 52 00 fa a2 07 a5 01 03 01 ff ff ff ff ff 12 ff ff ff ff ff 10 ff ff ff ff ff 0e ff ff ff ff ff 0c ff ff ff ff ff 0a ff ff ff ff ff 08 ff ff ff ff ff 06 ff ff ff ff ff 04 ff ff ff ff ff 02 ff 0a 0a 00 40 00 25 10 04 4a 00 00 00 00 00 01 02 fb
# ReportID: 1 / # / X:   1954 | Y:    441 | # | Tip Switch: 1 | Contact Id:   0 | # 
#             | X:  65535 | Y:  65535 | # | Tip Switch: 0 | Contact Id:   9 | # 
#             | X:  65535 | Y:  65535 | # | Tip Switch: 0 | Contact Id:   8 | # 
#             | X:  65535 | Y:  65535 | # | Tip Switch: 0 | Contact Id:   7 | # 
#             | X:  65535 | Y:  65535 | # | Tip Switch: 0 | Contact Id:   6 | # 
#             | X:  65535 | Y:  65535 | # | Tip Switch: 0 | Contact Id:   5 | # 
#             | X:  65535 | Y:  65535 | # | Tip Switch: 0 | Contact Id:   4 | # 
#             | X:  65535 | Y:  65535 | # | Tip Switch: 0 | Contact Id:   3 | # 
#             | X:  65535 | Y:  65535 | # | Tip Switch: 0 | Contact Id:   2 | # 
#             | X:  65535 | Y:  65535 | # | Tip Switch: 0 | Contact Id:   1 | # | # | # | Contact Count:    1 | # 
E: 000000.282319 83 01 60 52 00 fa a2 07 b9 01 03 01 ff ff ff ff ff 12 ff ff ff ff ff 10 ff ff ff ff ff 0e ff ff ff ff ff 0c ff ff ff ff ff 0a ff ff ff ff ff 08 ff ff ff ff ff 06 ff ff ff ff ff 04 ff ff ff ff ff 02 ff 0a 0a 00 40 00 25 10 04 b2 00 00 00 00 00 01 02 7f
# ReportID: 1 / # / X:   1954 | Y:    464 | # | Tip Switch: 1 | Contact Id:   0 | # 
#             | X:  65535 | Y:  65535 | # | Tip Switch: 0 | Contact Id:   9 | # 
#             | X:  65535 | Y:  65535 | # | Tip Switch: 0 | Contact Id:   8 | # 
#             | X:  65535 | Y:  65535 | # | Tip Switch: 0 | Contact Id:   7 | # 
#             | X:  65535 | Y:  65535 | # | Tip Switch: 0 | Contact Id:   6 | # 
#             | X:  65535 | Y:  65535 | # | Tip Switch: 0 | Contact Id:   5 | # 
#             | X:  65535 | Y:  65535 | # | Tip Switch: 0 | Contact Id:   4 | # 
#             | X:  65535 | Y:  65535 | # | Tip Switch: 0 | Contact Id:   3 | # 
#             | X:  65535 | Y:  65535 | # | Tip Switch: 0 | Contact Id:   2 | # 
#             | X:  65535 | Y:  65535 | # | Tip Switch: 0 | Contact Id:   1 | # | # | # | Contact Count:    1 | # 
E: 000000.290559 83 01 60 52 00 fa a2 07 d0 01 03 01 ff ff ff ff ff 12 ff ff ff ff ff 10 ff ff ff ff ff 0e ff ff ff ff ff 0c ff ff ff ff ff 0a ff ff ff ff ff 08 ff ff ff ff ff 06 ff ff ff ff ff 04 ff ff ff ff ff 02 ff 0a 0a 00 40 00 25 10 04 b5 00 00 00 00 00 01 02 65
# ReportID: 1 / # / X:   1954 | Y:    487 | # | Tip Switch: 1 | Contact Id:   0 | # 
#             | X:  65535 | Y:  65535 | # | Tip Switch: 0 | Contact Id:   9 | # 
#             | X:  65535 | Y:  65535 | # | Tip Switch: 0 | Contact Id:   8 | # 
#             | X:  65535 | Y:  65535 | # | Tip Switch: 0 | Contact Id:   7 | # 
#             | X:  65535 | Y:  65535 | # | Tip Switch: 0 | Contact Id:   6 | # 
#             | X:  65535 | Y:  65535 | # | Tip Switch: 0 | Contact Id:   5 | # 
#             | X:  65535 | Y:  65535 | # | Tip Switch: 0 | Contact Id:   4 | # 
#             | X:  65535 | Y:  65535 | # | Tip Switch: 0 | Contact Id:   3 | # 
#             | X:  65535 | Y:  65535 | # | Tip Switch: 0 | Contact Id:   2 | # 
#             | X:  65535 | Y:  65535 | # | Tip Switch: 0 | Contact Id:   1 | # | # | # | Contact Count:    1 | # 
E: 000000.298858 83 01 60 52 00 fa a2 07 e7 01 03 01 ff ff ff ff ff 12 ff ff ff ff ff 10 ff ff ff ff ff 0e ff ff ff ff ff 0c ff ff ff ff ff 0a ff ff ff ff ff 08 ff ff ff ff ff 06 ff ff ff ff ff 04 ff ff ff ff ff 02 ff 0a 0a 00 40 00 25 10 04 77 00 00 00 00 00 01 02 8c
# ReportID: 1 / # / X:   1956 | Y:    510 | # | Tip Switch: 1 | Contact Id:   0 | # 
#             | X:  65535 | Y:  65535 | # | Tip Switch: 0 | Contact Id:   9 | # 
#             | X:  65535 | Y:  65535 | # | Tip Switch: 0 | Contact Id:   8 | # 
#             | X:  65535 | Y:  65535 | # | Tip Switch: 0 | Contact Id:   7 | # 
#             | X:  65535 | Y:  65535 | # | Tip Switch: 0 | Contact Id:   6 | # 
#             | X:  65535 | Y:  65535 | # | Tip Switch: 0 | Contact Id:   5 | # 
#             | X:  65535 | Y:  65535 | # | Tip Switch: 0 | Contact Id:   4 | # 
#             | X:  65535 | Y:  65535 | # | Tip Switch: 0 | Contact Id:   3 | # 
#             | X:  65535 | Y:  65535 | # | Tip Switch: 0 | Contact Id:   2 | # 
#             | X:  65535 | Y:  65535 | # | Tip Switch: 0 | Contact Id:   1 | # | # | # | Contact Count:    1 | # 
E: 000000.307308 83 01 60 52 00 fa a4 07 fe 01 03 01 ff ff ff ff ff 12 ff ff ff ff ff 10 ff ff ff ff ff 0e ff ff ff ff ff 0c ff ff ff ff ff 0a ff ff ff ff ff 08 ff ff ff ff ff 06 ff ff ff ff ff 04 ff ff ff ff ff 02 ff 0a 0a 00 40 00 25 10 04 c2 00 00 00 00 00 01 02 28
# ReportID: 1 / # / X:   1958 | Y:    535 | # | Tip Switch: 1 | Contact Id:   0 | # 
#             | X:  65535 | Y:  65535 | # | Tip Switch: 0 | Contact Id:   9 | # 
#             | X:  65535 | Y:  65535 | # | Tip Switch: 0 | Contact Id:   8 | # 
#             | X:  65535 | Y:  65535 | # | Tip Switch: 0 | Contact Id:   7 | # 
#             | X:  65535 | Y:  65535 | # | Tip Switch: 0 | Contact Id:   6 | # 
#             | X:  65535 | Y:  65535 | # | Tip Switch: 0 | Contact Id:   5 | # 
#             | X:  65535 | Y:  65535 | # | Tip Switch: 0 | Contact Id:   4 | # 
#             | X:  65535 | Y:  65535 | # | Tip Switch: 0 | Contact Id:   3 | # 
#             | X:  65535 | Y:  65535 | # | Tip Switch: 0 | Contact Id:   2 | # 
#             | X:  65535 | Y:  65535 | # | Tip Switch: 0 | Contact Id:   1 | # | # | # | Contact Count:    1 | # 
E: 000000.315660 83 01 60 52 00 fa a6 07 17 02 03 01 ff ff ff ff ff 12 ff ff ff ff ff 10 ff ff ff ff ff 0e ff ff ff ff ff 0c ff ff ff ff ff 0a ff ff ff ff ff 08 ff ff ff ff ff 06 ff ff ff ff ff 04 ff ff ff ff ff 02 ff 0a 0a 00 40 00 25 10 04 77 00 00 00 00 00 01 02 57
# ReportID: 1 / # / X:   1961 | Y:    558 | # | Tip Switch: 1 | Contact Id:   0 | # 
#             | X:  65535 | Y:  65535 | # | Tip Switch: 0 | Contact Id:   9 | # 
#             | X:  65535 | Y:  65535 | # | Tip Switch: 0 | Contact Id:   8 | # 
#             | X:  65535 | Y:  65535 | # | Tip Switch: 0 | Contact Id:   7 | # 
#             | X:  65535 | Y:  65535 | # | Tip Switch: 0 | Contact Id:   6 | # 
#             | X:  65535 | Y:  65535 | # | Tip Switch: 0 | Contact Id:   5 | # 
#             | X:  65535 | Y:  65535 | # | Tip Switch: 0 | Contact Id:   4 | # 
#             | X:  65535 | Y:  65535 | # | Tip Switch: 0 | Contact Id:   3 | # 
#             | X:  65535 | Y:  65535 | # | Tip Switch: 0 | Contact Id:   2 | # 
#             | X:  65535 | Y:  65535 | # | Tip Switch: 0 | Contact Id:   1 | # | # | # | Contact Count:    1 | # 
E: 000000.323840 83 01 60 52 00 fa a9 07 2e 02 03 01 ff ff ff ff ff 12 ff ff ff ff ff 10 ff ff ff ff ff 0e ff ff ff ff ff 0c ff ff ff ff ff 0a ff ff ff ff ff 08 ff ff ff ff ff 06 ff ff ff ff ff 04 ff ff ff ff ff 02 ff 0a 0a 00 40 00 25 10 04 a8 00 00 00 00 00 01 02 0c
# ReportID: 1 / # / X:   1965 | Y:    581 | # | Tip Switch: 1 | Contact Id:   0 | # 
#             | X:  65535 | Y:  65535 | # | Tip Switch: 0 | Contact Id:   9 | # 
#             | X:  65535 | Y:  65535 | # | Tip Switch: 0 | Contact Id:   8 | # 
#             | X:  65535 | Y:  65535 | # | Tip Switch: 0 | Contact Id:   7 | # 
#             | X:  65535 | Y:  65535 | # | Tip Switch: 0 | Contact Id:   6 | # 
#             | X:  65535 | Y:  65535 | # | Tip Switch: 0 | Contact Id:   5 | # 
#             | X:  65535 | Y:  65535 | # | Tip Switch: 0 | Contact Id:   4 | # 
#             | X:  65535 | Y:  65535 | # | Tip Switch: 0 | Contact Id:   3 | # 
#             | X:  65535 | Y:  65535 | # | Tip Switch: 0 | Contact Id:   2 | # 
#             | X:  65535 | Y:  65535 | # | Tip Switch: 0 | Contact Id:   1 | # | # | # | Contact Count:    1 | # 
E: 000000.332342 83 01 60 52 00 fa ad 07 45 02 02 01 ff ff ff ff ff 12 ff ff ff ff ff 10 ff ff ff ff ff 0e ff ff ff ff ff 0c ff ff ff ff ff 0a ff ff ff ff ff 08 ff ff ff ff ff 06 ff ff ff ff ff 04 ff ff ff ff ff 02 ff 0a 0a 00 40 00 25 10 04 a8 00 00 00 00 00 01 02 f2
# ReportID: 1 / # / X:   1968 | Y:    606 | # | Tip Switch: 1 | Contact Id:   0 | # 
#             | X:  65535 | Y:  65535 | # | Tip Switch: 0 | Contact Id:   9 | # 
#             | X:  65535 | Y:  65535 | # | Tip Switch: 0 | Contact Id:   8 | # 
#             | X:  65535 | Y:  65535 | # | Tip Switch: 0 | Contact Id:   7 | # 
#             | X:  65535 | Y:  65535 | # | Tip Switch: 0 | Contact Id:   6 | # 
#             | X:  65535 | Y:  65535 | # | Tip Switch: 0 | Contact Id:   5 | # 
#             | X:  65535 | Y:  65535 | # | Tip Switch: 0 | Contact Id:   4 | # 
#             | X:  65535 | Y:  65535 | # | Tip Switch: 0 | Contact Id:   3 | # 
#             | X:  65535 | Y:  65535 | # | Tip Switch: 0 | Contact Id:   2 | # 
#             | X:  65535 | Y:  65535 | # | Tip Switch: 0 | Contact Id:   1 | # | # | # | Contact Count:    1 | # 
E: 000000.340574 83 01 60 52 00 fa b0 07 5e 02 02 01 ff ff ff ff ff 12 ff ff ff ff ff 10 ff ff ff ff ff 0e ff ff ff ff ff 0c ff ff ff ff ff 0a ff ff ff ff ff 08 ff ff ff ff ff 06 ff ff ff ff ff 04 ff ff ff ff ff 02 ff 0a 0a 00 40 00 25 10 04 0e 00 00 00 00 00 01 02 70
# ReportID: 1 / # / X:   1971 | Y:    630 | # | Tip Switch: 1 | Contact Id:   0 | # 
#             | X:  65535 | Y:  65535 | # | Tip Switch: 0 | Contact Id:   9 | # 
#             | X:  65535 | Y:  65535 | # | Tip Switch: 0 | Contact Id:   8 | # 
#             | X:  65535 | Y:  65535 | # | Tip Switch: 0 | Contact Id:   7 | # 
#             | X:  65535 | Y:  65535 | # | Tip Switch: 0 | Contact Id:   6 | # 
#             | X:  65535 | Y:  65535 | # | Tip Switch: 0 | Contact Id:   5 | # 
#             | X:  65535 | Y:  65535 | # | Tip Switch: 0 | Contact Id:   4 | # 
#             | X:  65535 | Y:  65535 | # | Tip Switch: 0 | Contact Id:   3 | # 
#             | X:  65535 | Y:  65535 | # | Tip Switch: 0 | Contact Id:   2 | # 
#             | X:  65535 | Y:  65535 | # | Tip Switch: 0 | Contact Id:   1 | # | # | # | Contact Count:    1 | # 
E: 000000.348885 83 01 60 52 00 fa b3 07 76 02 02 01 ff ff ff ff ff 12 ff ff ff ff ff 10 ff ff ff ff ff 0e ff ff ff ff ff 0c ff ff ff ff ff 0a ff ff ff ff ff 08 ff ff ff ff ff 06 ff ff ff ff ff 04 ff ff ff ff ff 02 ff 0a 0a 00 40 00 25 10 04 ab 00 00 00 00 00 01 02 b8
# ReportID: 1 / # / X:   1974 | Y:    654 | # | Tip Switch: 1 | Contact Id:   0 | # 
#             | X:  65535 | Y:  65535 | # | Tip Switch: 0 | Contact Id:   9 | # 
#             | X:  65535 | Y:  65535 | # | Tip Switch: 0 | Contact Id:   8 | # 
#             | X:  65535 | Y:  65535 | # | Tip Switch: 0 | Contact Id:   7 | # 
#             | X:  65535 | Y:  65535 | # | Tip Switch: 0 | Contact Id:   6 | # 
#             | X:  65535 | Y:  65535 | # | Tip Switch: 0 | Contact Id:   5 | # 
#             | X:  65535 | Y:  65535 | # | Tip Switch: 0 | Contact Id:   4 | # 
#             | X:  65535 | Y:  65535 | # | Tip Switch: 0 | Contact Id:   3 | # 
#             | X:  65535 | Y:  65535 | # | Tip Switch: 0 | Contact Id:   2 | # 
#             | X:  65535 | Y:  65535 | # | Tip Switch: 0 | Contact Id:   1 | # | # | # | Contact Count:    1 | # 
E: 000000.357573 83 01 60 52 00 fa b6 07 8e 02 02 01 ff ff ff ff ff 12 ff ff ff ff ff 10 ff ff ff ff ff 0e ff ff ff ff ff 0c ff ff ff ff ff 0a ff ff ff ff ff 08 ff ff ff ff ff 06 ff ff ff ff ff 04 ff ff ff ff ff 02 ff 0a 0a 00 40 00 25 10 04 54 00 00 00 00 00 01 02 f4
# ReportID: 1 / # / X:   1976 | Y:    680 | # | Tip Switch: 1 | Contact Id:   0 | # 
#             | X:  65535 | Y:  65535 | # | Tip Switch: 0 | Contact Id:   9 | # 
#             | X:  65535 | Y:  65535 | # | Tip Switch: 0 | Contact Id:   8 | # 
#             | X:  65535 | Y:  65535 | # | Tip Switch: 0 | Contact Id:   7 | # 
#             | X:  65535 | Y:  65535 | # | Tip Switch: 0 | Contact Id:   6 | # 
#             | X:  65535 | Y:  65535 | # | Tip Switch: 0 | Contact Id:   5 | # 
#             | X:  65535 | Y:  65535 | # | Tip Switch: 0 | Contact Id:   4 | # 
#             | X:  65535 | Y:  65535 | # | Tip Switch: 0 | Contact Id:   3 | # 
#             | X:  65535 | Y:  65535 | # | Tip Switch: 0 | Contact Id:   2 | # 
#             | X:  65535 | Y:  65535 | # | Tip Switch: 0 | Contact Id:   1 | # | # | # | Contact Count:    1 | # 
E: 000000.365627 83 01 60 52 00 fa b8 07 a8 02 02 01 ff ff ff ff ff 12 ff ff ff ff ff 10 ff ff ff ff ff 0e ff ff ff ff ff 0c ff ff ff ff ff 0a ff ff ff ff ff 08 ff ff ff ff ff 06 ff ff ff ff ff 04 ff ff ff ff ff 02 ff 0a 0a 00 40 00 25 10 04 4c 00 00 00 00 00 01 02 e0
# ReportID: 1 / # / X:   1977 | Y:    704 | # | Tip Switch: 1 | Contact Id:   0 | # 
#             | X:  65535 | Y:  65535 | # | Tip Switch: 0 | Contact Id:   9 | # 
#             | X:  65535 | Y:  65535 | # | Tip Switch: 0 | Contact Id:   8 | # 
#             | X:  65535 | Y:  65535 | # | Tip Switch: 0 | Contact Id:   7 | # 
#             | X:  65535 | Y:  65535 | # | Tip Switch: 0 | Contact Id:   6 | # 
#             | X:  65535 | Y:  65535 | # | Tip Switch: 0 | Contact Id:   5 | # 
#             | X:  65535 | Y:  65535 | # | Tip Switch: 0 | Contact Id:   4 | # 
#             | X:  65535 | Y:  65535 | # | Tip Switch: 0 | Contact Id:   3 | # 
#             | X:  65535 | Y:  65535 | # | Tip Switch: 0 | Contact Id:   2 | # 
#             | X:  65535 | Y:  65535 | # | Tip Switch: 0 | Contact Id:   1 | # | # | # | Contact Count:    1 | # 
E: 000000.373962 83 01 60 52 00 fa b9 07 c0 02 02 01 ff ff ff ff ff 12 ff ff ff ff ff 10 ff ff ff ff ff 0e ff ff ff ff ff 0c ff ff ff ff ff 0a ff ff ff ff ff 08 ff ff ff ff ff 06 ff ff ff ff ff 04 ff ff ff ff ff 02 ff 0a 0a 00 40 00 25 10 04 84 00 00 00 00 00 01 02 8f
# ReportID: 1 / # / X:   1978 | Y:    730 | # | Tip Switch: 1 | Contact Id:   0 | # 
#             | X:  65535 | Y:  65535 | # | Tip Switch: 0 | Contact Id:   9 | # 
#             | X:  65535 | Y:  65535 | # | Tip Switch: 0 | Contact Id:   8 | # 
#             | X:  65535 | Y:  65535 | # | Tip Switch: 0 | Contact Id:   7 | # 
#             | X:  65535 | Y:  65535 | # | Tip Switch: 0 | Contact Id:   6 | # 
#             | X:  65535 | Y:  65535 | # | Tip Switch: 0 | Contact Id:   5 | # 
#             | X:  65535 | Y:  65535 | # | Tip Switch: 0 | Contact Id:   4 | # 
#             | X:  65535 | Y:  65535 | # | Tip Switch: 0 | Contact Id:   3 | # 
#             | X:  65535 | Y:  65535 | # | Tip Switch: 0 | Contact Id:   2 | # 
#             | X:  65535 | Y:  65535 | # | Tip Switch: 0 | Contact Id:   1 | # | # | # | Contact Count:    1 | # 
E: 000000.382310 83 01 60 52 00 fa ba 07 da 02 02 01 ff ff ff ff ff 12 ff ff ff ff ff 10 ff ff ff ff ff 0e ff ff ff ff ff 0c ff ff ff ff ff 0a ff ff ff ff ff 08 ff ff ff ff ff 06 ff ff ff ff ff 04 ff ff ff ff ff 02 ff 0a 0a 00 40 00 25 10 03 e5 00 00 00 00 00 01 02 14
# ReportID: 1 / # / X:   1978 | Y:    755 | # | Tip Switch: 1 | Contact Id:   0 | # 
#             | X:  65535 | Y:  65535 | # | Tip Switch: 0 | Contact Id:   9 | # 
#             | X:  65535 | Y:  65535 | # | Tip Switch: 0 | Contact Id:   8 | # 
#             | X:  65535 | Y:  65535 | # | Tip Switch: 0 | Contact Id:   7 | # 
#             | X:  65535 | Y:  65535 | # | Tip Switch: 0 | Contact Id:   6 | # 
#             | X:  65535 | Y:  65535 | # | Tip Switch: 0 | Contact Id:   5 | # 
#             | X:  65535 | Y:  65535 | # | Tip Switch: 0 | Contact Id:   4 | # 
#             | X:  65535 | Y:  65535 | # | Tip Switch: 0 | Contact Id:   3 | # 
#             | X:  65535 | Y:  65535 | # | Tip Switch: 0 | Contact Id:   2 | # 
#             | X:  65535 | Y:  65535 | # | Tip Switch: 0 | Contact Id:   1 | # | # | # | Contact Count:    1 | # 
E: 000000.390608 83 01 60 52 00 fa ba 07 f3 02 02 01 ff ff ff ff ff 12 ff ff ff ff ff 10 ff ff ff ff ff 0e ff ff ff ff ff 0c ff ff ff ff ff 0a ff ff ff ff ff 08 ff ff ff ff ff 06 ff ff ff ff ff 04 ff ff ff ff ff 02 ff 0a 0a 00 40 00 25 10 04 6e 00 00 00 00 00 01 02 71
# ReportID: 1 / # / X:   1980 | Y:    781 | # | Tip Switch: 1 | Contact Id:   0 | # 
#             | X:  65535 | Y:  65535 | # | Tip Switch: 0 | Contact Id:   9 | # 
#             | X:  65535 | Y:  65535 | # | Tip Switch: 0 | Contact Id:   8 | # 
#             | X:  65535 | Y:  65535 | # | Tip Switch: 0 | Contact Id:   7 | # 
#             | X:  65535 | Y:  65535 | # | Tip Switch: 0 | Contact Id:   6 | # 
#             | X:  65535 | Y:  65535 | # | Tip Switch: 0 | Contact Id:   5 | # 
#             | X:  65535 | Y:  65535 | # | Tip Switch: 0 | Contact Id:   4 | # 
#             | X:  65535 | Y:  65535 | # | Tip Switch: 0 | Contact Id:   3 | # 
#             | X:  65535 | Y:  65535 | # | Tip Switch: 0 | Contact Id:   2 | # 
#             | X:  65535 | Y:  65535 | # | Tip Switch: 0 | Contact Id:   1 | # | # | # | Contact Count:    1 | # 
E: 000000.398970 83 01 60 52 00 fa bc 07 0d 03 02 01 ff ff ff ff ff 12 ff ff ff ff ff 10 ff ff ff ff ff 0e ff ff ff ff ff 0c ff ff ff ff ff 0a ff ff ff ff ff 08 ff ff ff ff ff 06 ff ff ff ff ff 04 ff ff ff ff ff 02 ff 0a 0a 00 40 00 25 10 04 2d 00 00 00 00 00 01 02 95
# ReportID: 1 / # / X:   1981 | Y:    807 | # | Tip Switch: 1 | Contact Id:   0 | # 
#             | X:  65535 | Y:  65535 | # | Tip Switch: 0 | Contact Id:   9 | # 
#             | X:  65535 | Y:  65535 | # | Tip Switch: 0 | Contact Id:   8 | # 
#             | X:  65535 | Y:  65535 | # | Tip Switch: 0 | Contact Id:   7 | # 
#             | X:  65535 | Y:  65535 | # | Tip Switch: 0 | Contact Id:   6 | # 
#             | X:  65535 | Y:  65535 | # | Tip Switch: 0 | Contact Id:   5 | # 
#             | X:  65535 | Y:  65535 | # | Tip Switch: 0 | Contact Id:   4 | # 
#             | X:  65535 | Y:  65535 | # | Tip Switch: 0 | Contact Id:   3 | # 
#             | X:  65535 | Y:  65535 | # | Tip Switch: 0 | Contact Id:   2 | # 
#             | X:  65535 | Y:  65535 | # | Tip Switch: 0 | Contact Id:   1 | # | # | # | Contact Count:    1 | # 
E: 000000.407341 83 01 60 52 00 fa bd 07 27 03 02 01 ff ff ff ff ff 12 ff ff ff ff ff 10 ff ff ff ff ff 0e ff ff ff ff ff 0c ff ff ff ff ff 0a ff ff ff ff ff 08 ff ff ff ff ff 06 ff ff ff ff ff 04 ff ff ff ff ff 02 ff 0a 0a 00 40 00 25 10 04 1a 00 00 00 00 00 01 02 8d
# ReportID: 1 / # / X:   1981 | Y:    833 | # | Tip Switch: 1 | Contact Id:   0 | # 
#             | X:  65535 | Y:  65535 | # | Tip Switch: 0 | Contact Id:   9 | # 
#             | X:  65535 | Y:  65535 | # | Tip Switch: 0 | Contact Id:   8 | # 
#             | X:  65535 | Y:  65535 | # | Tip Switch: 0 | Contact Id:   7 | # 
#             | X:  65535 | Y:  65535 | # | Tip Switch: 0 | Contact Id:   6 | # 
#             | X:  65535 | Y:  65535 | # | Tip Switch: 0 | Contact Id:   5 | # 
#             | X:  65535 | Y:  65535 | # | Tip Switch: 0 | Contact Id:   4 | # 
#             | X:  65535 | Y:  65535 | # | Tip Switch: 0 | Contact Id:   3 | # 
#             | X:  65535 | Y:  65535 | # | Tip Switch: 0 | Contact Id:   2 | # 
#             | X:  65535 | Y:  65535 | # | Tip Switch: 0 | Contact Id:   1 | # | # | # | Contact Count:    1 | # 
E: 000000.415830 83 01 60 52 00 fa bd 07 41 03 02 01 ff ff ff ff ff 12 ff ff ff ff ff 10 ff ff ff ff ff 0e ff ff ff ff ff 0c ff ff ff ff ff 0a ff ff ff ff ff 08 ff ff ff ff ff 06 ff ff ff ff ff 04 ff ff ff ff ff 02 ff 0a 0a 00 40 00 25 10 04 55 00 00 00 00 00 01 02 38
# ReportID: 1 / # / X:   1981 | Y:    859 | # | Tip Switch: 1 | Contact Id:   0 | # 
#             | X:  65535 | Y:  65535 | # | Tip Switch: 0 | Contact Id:   9 | # 
#             | X:  65535 | Y:  65535 | # | Tip Switch: 0 | Contact Id:   8 | # 
#             | X:  65535 | Y:  65535 | # | Tip Switch: 0 | Contact Id:   7 | # 
#             | X:  65535 | Y:  65535 | # | Tip Switch: 0 | Contact Id:   6 | # 
#             | X:  65535 | Y:  65535 | # | Tip Switch: 0 | Contact Id:   5 | # 
#             | X:  65535 | Y:  65535 | # | Tip Switch: 0 | Contact Id:   4 | # 
#             | X:  65535 | Y:  65535 | # | Tip Switch: 0 | Contact Id:   3 | # 
#             | X:  65535 | Y:  65535 | # | Tip Switch: 0 | Contact Id:   2 | # 
#             | X:  65535 | Y:  65535 | # | Tip Switch: 0 | Contact Id:   1 | # | # | # | Contact Count:    1 | # 
E: 000000.423987 83 01 60 52 00 fa bd 07 5b 03 02 01 ff ff ff ff ff 12 ff ff ff ff ff 10 ff ff ff ff ff 0e ff ff ff ff ff 0c ff ff ff ff ff 0a ff ff ff ff ff 08 ff ff ff ff ff 06 ff ff ff ff ff 04 ff ff ff ff ff 02 ff 0a 0a 00 40 00 25 10 03 a9 00 00 00 00 00 01 02 cb
# ReportID: 1 / # / X:   1982 | Y:    885 | # | Tip Switch: 1 | Contact Id:   0 | # 
#             | X:  65535 | Y:  65535 | # | Tip Switch: 0 | Contact Id:   9 | # 
#             | X:  65535 | Y:  65535 | # | Tip Switch: 0 | Contact Id:   8 | # 
#             | X:  65535 | Y:  65535 | # | Tip Switch: 0 | Contact Id:   7 | # 
#             | X:  65535 | Y:  65535 | # | Tip Switch: 0 | Contact Id:   6 | # 
#             | X:  65535 | Y:  65535 | # | Tip Switch: 0 | Contact Id:   5 | # 
#             | X:  65535 | Y:  65535 | # | Tip Switch: 0 | Contact Id:   4 | # 
#             | X:  65535 | Y:  65535 | # | Tip Switch: 0 | Contact Id:   3 | # 
#             | X:  65535 | Y:  65535 | # | Tip Switch: 0 | Contact Id:   2 | # 
#             | X:  65535 | Y:  65535 | # | Tip Switch: 0 | Contact Id:   1 | # | # | # | Contact Count:    1 | # 
E: 000000.432276 83 01 60 52 00 fa be 07 75 03 02 01 ff ff ff ff ff 12 ff ff ff ff ff 10 ff ff ff ff ff 0e ff ff ff ff ff 0c ff ff ff ff ff 0a ff ff ff ff ff 08 ff ff ff ff ff 06 ff ff ff ff ff 04 ff ff ff ff ff 02 ff 0a 0a 00 40 00 25 10 04 65 00 00 00 00 00 01 02 f3
# ReportID: 1 / # / X:   1985 | Y:    911 | # | Tip Switch: 1 | Contact Id:   0 | # 
#             | X:  65535 | Y:  65535 | # | Tip Switch: 0 | Contact Id:   9 | # 
#             | X:  65535 | Y:  65535 | # | Tip Switch: 0 | Contact Id:   8 | # 
#             | X:  65535 | Y:  65535 | # | Tip Switch: 0 | Contact Id:   7 | # 
#             | X:  65535 | Y:  65535 | # | Tip Switch: 0 | Contact Id:   6 | # 
#             | X:  65535 | Y:  65535 | # | Tip Switch: 0 | Contact Id:   5 | # 
#             | X:  65535 | Y:  65535 | # | Tip Switch: 0 | Contact Id:   4 | # 
#             | X:  65535 | Y:  65535 | # | Tip Switch: 0 | Contact Id:   3 | # 
#             | X:  65535 | Y:  65535 | # | Tip Switch: 0 | Contact Id:   2 | # 
#             | X:  65535 | Y:  65535 | # | Tip Switch: 0 | Contact Id:   1 | # | # | # | Contact Count:    1 | # 
E: 000000.440520 83 01 60 52 00 fa c1 07 8f 03 02 01 ff ff ff ff ff 12 ff ff ff ff ff 10 ff ff ff ff ff 0e ff ff ff ff ff 0c ff ff ff ff ff 0a ff ff ff ff ff 08 ff ff ff ff ff 06 ff ff ff ff ff 04 ff ff ff ff ff 02 ff 0a 0a 00 40 00 25 10 04 3a 00 00 00 00 00 01 02 01
# ReportID: 1 / # / X:   1985 | Y:    938 | # | Tip Switch: 1 | Contact Id:   0 | # 
#             | X:  65535 | Y:  65535 | # | Tip Switch: 0 | Contact Id:   9 | # 
#             | X:  65535 | Y:  65535 | # | Tip Switch: 0 | Contact Id:   8 | # 
#             | X:  65535 | Y:  65535 | # | Tip Switch: 0 | Contact Id:   7 | # 
#             | X:  65535 | Y:  65535 | # | Tip Switch: 0 | Contact Id:   6 | # 
#             | X:  65535 | Y:  65535 | # | Tip Switch: 0 | Contact Id:   5 | # 
#             | X:  65535 | Y:  65535 | # | Tip Switch: 0 | Contact Id:   4 | # 
#             | X:  65535 | Y:  65535 | # | Tip Switch: 0 | Contact Id:   3 | # 
#             | X:  65535 | Y:  65535 | # | Tip Switch: 0 | Contact Id:   2 | # 
#             | X:  65535 | Y:  65535 | # | Tip Switch: 0 | Contact Id:   1 | # | # | # | Contact Count:    1 | # 
E: 000000.449207 83 01 60 52 00 fa c1 07 aa 03 02 01 ff ff ff ff ff 12 ff ff ff ff ff 10 ff ff ff ff ff 0e ff ff ff ff ff 0c ff ff ff ff ff 0a ff ff ff ff ff 08 ff ff ff ff ff 06 ff ff ff ff ff 04 ff ff ff ff ff 02 ff 0a 0a 00 40 00 25 10 04 45 00 00 00 00 00 01 02 db
# ReportID: 1 / # / X:   1985 | Y:    963 | # | Tip Switch: 1 | Contact Id:   0 | # 
#             | X:  65535 | Y:  65535 | # | Tip Switch: 0 | Contact Id:   9 | # 
#             | X:  65535 | Y:  65535 | # | Tip Switch: 0 | Contact Id:   8 | # 
#             | X:  65535 | Y:  65535 | # | Tip Switch: 0 | Contact Id:   7 | # 
#             | X:  65535 | Y:  65535 | # | Tip Switch: 0 | Contact Id:   6 | # 
#             | X:  65535 | Y:  65535 | # | Tip Switch: 0 | Contact Id:   5 | # 
#             | X:  65535 | Y:  65535 | # | Tip Switch: 0 | Contact Id:   4 | # 
#             | X:  65535 | Y:  65535 | # | Tip Switch: 0 | Contact Id:   3 | # 
#             | X:  65535 | Y:  65535 | # | Tip Switch: 0 | Contact Id:   2 | # 
#             | X:  65535 | Y:  65535 | # | Tip Switch: 0 | Contact Id:   1 | # | # | # | Contact Count:    1 | # 
E: 000000.457222 83 01 60 52 00 fa c1 07 c3 03 02 01 ff ff ff ff ff 12 ff ff ff ff ff 10 ff ff ff ff ff 0e ff ff ff ff ff 0c ff ff ff ff ff 0a ff ff ff ff ff 08 ff ff ff ff ff 06 ff ff ff ff ff 04 ff ff ff ff ff 02 ff 0a 0a 00 40 00 25 10 04 6c 00 00 00 00 00 01 02 9b
# ReportID: 1 / # / X:   1986 | Y:    988 | # | Tip Switch: 1 | Contact Id:   0 | # 
#             | X:  65535 | Y:  65535 | # | Tip Switch: 0 | Contact Id:   9 | # 
#             | X:  65535 | Y:  65535 | # | Tip Switch: 0 | Contact Id:   8 | # 
#             | X:  65535 | Y:  65535 | # | Tip Switch: 0 | Contact Id:   7 | # 
#             | X:  65535 | Y:  65535 | # | Tip Switch: 0 | Contact Id:   6 | # 
#             | X:  65535 | Y:  65535 | # | Tip Switch: 0 | Contact Id:   5 | # 
#             | X:  65535 | Y:  65535 | # | Tip Switch: 0 | Contact Id:   4 | # 
#             | X:  65535 | Y:  65535 | # | Tip Switch: 0 | Contact Id:   3 | # 
#             | X:  65535 | Y:  65535 | # | Tip Switch: 0 | Contact Id:   2 | # 
#             | X:  65535 | Y:  65535 | # | Tip Switch: 0 | Contact Id:   1 | # | # | # | Contact Count:    1 | # 
E: 000000.465633 83 01 60 52 00 fa c2 07 dc 03 02 01 ff ff ff ff ff 12 ff ff ff ff ff 10 ff ff ff ff ff 0e ff ff ff ff ff 0c ff ff ff ff ff 0a ff ff ff ff ff 08 ff ff ff ff ff 06 ff ff ff ff ff 04 ff ff ff ff ff 02 ff 0a 0a 00 40 00 25 10 03 e3 00 00 00 00 00 01 02 0b
# ReportID: 1 / # / X:   1986 | Y:   1011 | # | Tip Switch: 1 | Contact Id:   0 | # 
#             | X:  65535 | Y:  65535 | # | Tip Switch: 0 | Contact Id:   9 | # 
#             | X:  65535 | Y:  65535 | # | Tip Switch: 0 | Contact Id:   8 | # 
#             | X:  65535 | Y:  65535 | # | Tip Switch: 0 | Contact Id:   7 | # 
#             | X:  65535 | Y:  65535 | # | Tip Switch: 0 | Contact Id:   6 | # 
#             | X:  65535 | Y:  65535 | # | Tip Switch: 0 | Contact Id:   5 | # 
#             | X:  65535 | Y:  65535 | # | Tip Switch: 0 | Contact Id:   4 | # 
#             | X:  65535 | Y:  65535 | # | Tip Switch: 0 | Contact Id:   3 | # 
#             | X:  65535 | Y:  65535 | # | Tip Switch: 0 | Contact Id:   2 | # 
#             | X:  65535 | Y:  65535 | # | Tip Switch: 0 | Contact Id:   1 | # | # | # | Contact Count:    1 | # 
E: 000000.473894 83 01 60 52 00 fa c2 07 f3 03 02 01 ff ff ff ff ff 12 ff ff ff ff ff 10 ff ff ff ff ff 0e ff ff ff ff ff 0c ff ff ff ff ff 0a ff ff ff ff ff 08 ff ff ff ff ff 06 ff ff ff ff ff 04 ff ff ff ff ff 02 ff 0a 0a 00 40 00 25 10 04 76 00 00 00 00 00 01 02 60
# ReportID: 1 / # / X:   1986 | Y:   1036 | # | Tip Switch: 1 | Contact Id:   0 | # 
#             | X:  65535 | Y:  65535 | # | Tip Switch: 0 | Contact Id:   9 | # 
#             | X:  65535 | Y:  65535 | # | Tip Switch: 0 | Contact Id:   8 | # 
#             | X:  65535 | Y:  65535 | # | Tip Switch: 0 | Contact Id:   7 | # 
#             | X:  65535 | Y:  65535 | # | Tip Switch: 0 | Contact Id:   6 | # 
#             | X:  65535 | Y:  65535 | # | Tip Switch: 0 | Contact Id:   5 | # 
#             | X:  65535 | Y:  65535 | # | Tip Switch: 0 | Contact Id:   4 | # 
#             | X:  65535 | Y:  65535 | # | Tip Switch: 0 | Contact Id:   3 | # 
#             | X:  65535 | Y:  65535 | # | Tip Switch: 0 | Contact Id:   2 | # 
#             | X:  65535 | Y:  65535 | # | Tip Switch: 0 | Contact Id:   1 | # | # | # | Contact Count:    1 | # 
E: 000000.482249 83 01 60 52 00 fa c2 07 0c 04 02 01 ff ff ff ff ff 12 ff ff ff ff ff 10 ff ff ff ff ff 0e ff ff ff ff ff 0c ff ff ff ff ff 0a ff ff ff ff ff 08 ff ff ff ff ff 06 ff ff ff ff ff 04 ff ff ff ff ff 02 ff 0a 0a 00 40 00 25 10 04 53 00 00 00 00 00 01 02 69
# ReportID: 1 / # / X:   1986 | Y:   1060 | # | Tip Switch: 1 | Contact Id:   0 | # 
#             | X:  65535 | Y:  65535 | # | Tip Switch: 0 | Contact Id:   9 | # 
#             | X:  65535 | Y:  65535 | # | Tip Switch: 0 | Contact Id:   8 | # 
#             | X:  65535 | Y:  65535 | # | Tip Switch: 0 | Contact Id:   7 | # 
#             | X:  65535 | Y:  65535 | # | Tip Switch: 0 | Contact Id:   6 | # 
#             | X:  65535 | Y:  65535 | # | Tip Switch: 0 | Contact Id:   5 | # 
#             | X:  65535 | Y:  65535 | # | Tip Switch: 0 | Contact Id:   4 | # 
