#   Legion Controller for Windows 
# 0x05, 0x0d,                    // Usage Page (Digitizers)             0
# 0x09, 0x05,                    // Usage (Touch Pad)                   2
# 0xa1, 0x01,                    // Collection (Application)            4
# 0x85, 0x01,                    //  Report ID (1)                      6
# 0x09, 0x22,                    //  Usage (Finger)                     8
# 0xa1, 0x02,                    //  Collection (Logical)               10
# 0x15, 0x00,                    //   Logical Minimum (0)               12
# 0x25, 0x01,                    //   Logical Maximum (1)               14
# 0x09, 0x47,                    //   Usage (Confidence)                16
# 0x09, 0x42,                    //   Usage (Tip Switch)                18
# 0x95, 0x02,                    //   Report Count (2)                  20
# 0x75, 0x01,                    //   Report Size (1)                   22
# 0x81, 0x02,                    //   Input (Data,Var,Abs)              24
# 0x95, 0x01,                    //   Report Count (1)                  26
# 0x75, 0x03,                    //   Report Size (3)                   28
# 0x25, 0x04,                    //   Logical Maximum (4)               30
# 0x09, 0x51,                    //   Usage (Contact Id)                32
# 0x81, 0x02,                    //   Input (Data,Var,Abs)              34
# 0x81, 0x03,                    //   Input (Cnst,Var,Abs)              36
# 0x05, 0x01,                    //   Usage Page (Generic Desktop)      38
# 0x15, 0x00,                    //   Logical Minimum (0)               40
# 0x26, 0x00, 0x04,              //   Logical Maximum (1024)            42
# 0x75, 0x10,                    //   Report Size (16)                  45
# 0x55, 0x0e,                    //   Unit Exponent (-2)                47
# 0x65, 0x13,                    //   Unit (EnglishLinear: in)          49
# 0x09, 0x30,                    //   Usage (X)                         51
# 0x35, 0x00,                    //   Physical Minimum (0)              53
# 0x46, 0x70, 0x00,              //   Physical Maximum (112)            55
# 0x95, 0x01,                    //   Report Count (1)                  58
# 0x81, 0x02,                    //   Input (Data,Var,Abs)              60
# 0x26, 0x00, 0x04,              //   Logical Maximum (1024)            62
# 0x46, 0x70, 0x00,              //   Physical Maximum (112)            65
# 0x09, 0x31,                    //   Usage (Y)                         68
# 0x81, 0x02,                    //   Input (Data,Var,Abs)              70
# 0xc0,                          //  End Collection                     72
# 0x05, 0x0d,                    //  Usage Page (Digitizers)            73
# 0x09, 0x22,                    //  Usage (Finger)                     75
# 0xa1, 0x02,                    //  Collection (Logical)               77
# 0x15, 0x00,                    //   Logical Minimum (0)               79
# 0x25, 0x01,                    //   Logical Maximum (1)               81
# 0x09, 0x47,                    //   Usage (Confidence)                83
# 0x09, 0x42,                    //   Usage (Tip Switch)                85
# 0x95, 0x02,                    //   Report Count (2)                  87
# 0x75, 0x01,                    //   Report Size (1)                   89
# 0x81, 0x02,                    //   Input (Data,Var,Abs)              91
# 0x95, 0x01,                    //   Report Count (1)                  93
# 0x75, 0x03,                    //   Report Size (3)                   95
# 0x25, 0x04,                    //   Logical Maximum (4)               97
# 0x09, 0x51,                    //   Usage (Contact Id)                99
# 0x81, 0x02,                    //   Input (Data,Var,Abs)              101
# 0x81, 0x03,                    //   Input (Cnst,Var,Abs)              103
# 0x05, 0x01,                    //   Usage Page (Generic Desktop)      105
# 0x15, 0x00,                    //   Logical Minimum (0)               107
# 0x26, 0x00, 0x04,              //   Logical Maximum (1024)            109
# 0x75, 0x10,                    //   Report Size (16)                  112
# 0x55, 0x0e,                    //   Unit Exponent (-2)                114
# 0x65, 0x13,                    //   Unit (EnglishLinear: in)          116
# 0x09, 0x30,                    //   Usage (X)                         118
# 0x35, 0x00,                    //   Physical Minimum (0)              120
# 0x46, 0x70, 0x00,              //   Physical Maximum (112)            122
# 0x95, 0x01,                    //   Report Count (1)                  125
# 0x81, 0x02,                    //   Input (Data,Var,Abs)              127
# 0x26, 0x00, 0x04,              //   Logical Maximum (1024)            129
# 0x46, 0x70, 0x00,              //   Physical Maximum (112)            132
# 0x09, 0x31,                    //   Usage (Y)                         135
# 0x81, 0x02,                    //   Input (Data,Var,Abs)              137
# 0xc0,                          //  End Collection                     139
# 0x05, 0x0d,                    //  Usage Page (Digitizers)            140
# 0x09, 0x22,                    //  Usage (Finger)                     142
# 0xa1, 0x02,                    //  Collection (Logical)               144
# 0x15, 0x00,                    //   Logical Minimum (0)               146
# 0x25, 0x01,                    //   Logical Maximum (1)               148
# 0x09, 0x47,                    //   Usage (Confidence)                150
# 0x09, 0x42,                    //   Usage (Tip Switch)                152
# 0x95, 0x02,                    //   Report Count (2)                  154
# 0x75, 0x01,                    //   Report Size (1)                   156
# 0x81, 0x02,                    //   Input (Data,Var,Abs)              158
# 0x95, 0x01,                    //   Report Count (1)                  160
# 0x75, 0x03,                    //   Report Size (3)                   162
# 0x25, 0x04,                    //   Logical Maximum (4)               164
# 0x09, 0x51,                    //   Usage (Contact Id)                166
# 0x81, 0x02,                    //   Input (Data,Var,Abs)              168
# 0x81, 0x03,                    //   Input (Cnst,Var,Abs)              170
# 0x05, 0x01,                    //   Usage Page (Generic Desktop)      172
# 0x15, 0x00,                    //   Logical Minimum (0)               174
# 0x26, 0x00, 0x04,              //   Logical Maximum (1024)            176
# 0x75, 0x10,                    //   Report Size (16)                  179
# 0x55, 0x0e,                    //   Unit Exponent (-2)                181
# 0x65, 0x13,                    //   Unit (EnglishLinear: in)          183
# 0x09, 0x30,                    //   Usage (X)                         185
# 0x35, 0x00,                    //   Physical Minimum (0)              187
# 0x46, 0x70, 0x00,              //   Physical Maximum (112)            189
# 0x95, 0x01,                    //   Report Count (1)                  192
# 0x81, 0x02,                    //   Input (Data,Var,Abs)              194
# 0x26, 0x00, 0x04,              //   Logical Maximum (1024)            196
# 0x46, 0x70, 0x00,              //   Physical Maximum (112)            199
# 0x09, 0x31,                    //   Usage (Y)                         202
# 0x81, 0x02,                    //   Input (Data,Var,Abs)              204
# 0xc0,                          //  End Collection                     206
# 0x55, 0x0c,                    //  Unit Exponent (-4)                 207
# 0x66, 0x01, 0x10,              //  Unit (SILinear: s)                 209
# 0x47, 0xff, 0xff, 0x00, 0x00,  //  Physical Maximum (65535)           212
# 0x27, 0xff, 0xff, 0x00, 0x00,  //  Logical Maximum (65535)            217
# 0x75, 0x10,                    //  Report Size (16)                   222
# 0x95, 0x01,                    //  Report Count (1)                   224
# 0x05, 0x0d,                    //  Usage Page (Digitizers)            226
# 0x09, 0x56,                    //  Usage (Scan Time)                  228
# 0x81, 0x02,                    //  Input (Data,Var,Abs)               230
# 0x05, 0x0d,                    //  Usage Page (Digitizers)            232
# 0x09, 0x54,                    //  Usage (Contact Count)              234
# 0x25, 0x7f,                    //  Logical Maximum (127)              236
# 0x95, 0x01,                    //  Report Count (1)                   238
# 0x75, 0x08,                    //  Report Size (8)                    240
# 0x81, 0x02,                    //  Input (Data,Var,Abs)               242
# 0x05, 0x09,                    //  Usage Page (Button)                244
# 0x09, 0x01,                    //  Usage (Vendor Usage 0x01)          246
# 0x25, 0x01,                    //  Logical Maximum (1)                248
# 0x75, 0x01,                    //  Report Size (1)                    250
# 0x95, 0x01,                    //  Report Count (1)                   252
# 0x81, 0x02,                    //  Input (Data,Var,Abs)               254
# 0x95, 0x07,                    //  Report Count (7)                   256
# 0x81, 0x03,                    //  Input (Cnst,Var,Abs)               258
# 0x05, 0x0d,                    //  Usage Page (Digitizers)            260
# 0x85, 0x02,                    //  Report ID (2)                      262
# 0x09, 0x55,                    //  Usage (Contact Max)                264
# 0x09, 0x59,                    //  Usage (Button Type)                266
# 0x75, 0x04,                    //  Report Size (4)                    268
# 0x95, 0x02,                    //  Report Count (2)                   270
# 0x25, 0x0f,                    //  Logical Maximum (15)               272
# 0xb1, 0x02,                    //  Feature (Data,Var,Abs)             274
# 0x06, 0x00, 0xff,              //  Usage Page (Vendor Defined Page 1) 276
# 0x85, 0x03,                    //  Report ID (3)                      279
# 0x09, 0xc5,                    //  Usage (Vendor Usage 0xc5)          281
# 0x15, 0x00,                    //  Logical Minimum (0)                283
# 0x26, 0xff, 0x00,              //  Logical Maximum (255)              285
# 0x75, 0x08,                    //  Report Size (8)                    288
# 0x96, 0x00, 0x01,              //  Report Count (256)                 290
# 0xb1, 0x02,                    //  Feature (Data,Var,Abs)             293
# 0xc0,                          // End Collection                      295
# 0x05, 0x0d,                    // Usage Page (Digitizers)             296
# 0x09, 0x0e,                    // Usage (Device Configuration)        298
# 0xa1, 0x01,                    // Collection (Application)            300
# 0x85, 0x04,                    //  Report ID (4)                      302
# 0x09, 0x22,                    //  Usage (Finger)                     304
# 0xa1, 0x02,                    //  Collection (Logical)               306
# 0x09, 0x52,                    //   Usage (Inputmode)                 308
# 0x15, 0x00,                    //   Logical Minimum (0)               310
# 0x25, 0x0a,                    //   Logical Maximum (10)              312
# 0x75, 0x08,                    //   Report Size (8)                   314
# 0x95, 0x01,                    //   Report Count (1)                  316
# 0xb1, 0x02,                    //   Feature (Data,Var,Abs)            318
# 0xc0,                          //  End Collection                     320
# 0x09, 0x22,                    //  Usage (Finger)                     321
# 0xa1, 0x00,                    //  Collection (Physical)              323
# 0x85, 0x05,                    //   Report ID (5)                     325
# 0x09, 0x57,                    //   Usage (Surface Switch)            327
# 0x09, 0x58,                    //   Usage (Button Switch)             329
# 0x75, 0x01,                    //   Report Size (1)                   331
# 0x95, 0x02,                    //   Report Count (2)                  333
# 0x25, 0x01,                    //   Logical Maximum (1)               335
# 0xb1, 0x02,                    //   Feature (Data,Var,Abs)            337
# 0x95, 0x06,                    //   Report Count (6)                  339
# 0xb1, 0x03,                    //   Feature (Cnst,Var,Abs)            341
# 0xc0,                          //  End Collection                     343
# 0xc0,                          // End Collection                      344
# 
R: 345 05 0d 09 05 a1 01 85 01 09 22 a1 02 15 00 25 01 09 47 09 42 95 02 75 01 81 02 95 01 75 03 25 04 09 51 81 02 81 03 05 01 15 00 26 00 04 75 10 55 0e 65 13 09 30 35 00 46 70 00 95 01 81 02 26 00 04 46 70 00 09 31 81 02 c0 05 0d 09 22 a1 02 15 00 25 01 09 47 09 42 95 02 75 01 81 02 95 01 75 03 25 04 09 51 81 02 81 03 05 01 15 00 26 00 04 75 10 55 0e 65 13 09 30 35 00 46 70 00 95 01 81 02 26 00 04 46 70 00 09 31 81 02 c0 05 0d 09 22 a1 02 15 00 25 01 09 47 09 42 95 02 75 01 81 02 95 01 75 03 25 04 09 51 81 02 81 03 05 01 15 00 26 00 04 75 10 55 0e 65 13 09 30 35 00 46 70 00 95 01 81 02 26 00 04 46 70 00 09 31 81 02 c0 55 0c 66 01 10 47 ff ff 00 00 27 ff ff 00 00 75 10 95 01 05 0d 09 56 81 02 05 0d 09 54 25 7f 95 01 75 08 81 02 05 09 09 01 25 01 75 01 95 01 81 02 95 07 81 03 05 0d 85 02 09 55 09 59 75 04 95 02 25 0f b1 02 06 00 ff 85 03 09 c5 15 00 26 ff 00 75 08 96 00 01 b1 02 c0 05 0d 09 0e a1 01 85 04 09 22 a1 02 09 52 15 00 25 0a 75 08 95 01 b1 02 c0 09 22 a1 00 85 05 09 57 09 58 75 01 95 02 25 01 b1 02 95 06 b1 03 c0 c0
N:   Legion Controller for Windows 
I: 3 17ef 6182
# ReportID: 1 / Confidence: 1 | Tip Switch: 1 | Contact Id:  0 | # | X:    282 | Y:    760 
#             | Confidence: 0 | Tip Switch: 0 | Contact Id:  0 | # | X:      0 | Y:      0 
#             | Confidence: 0 | Tip Switch: 0 | Contact Id:  0 | # | X:      0 | Y:      0 | Scan Time:  54436 | Contact Count:    1 | Button: 0 | # 
E: 000000.000000 20 01 03 1a 01 f8 02 00 00 00 00 00 00 00 00 00 00 a4 d4 01 00
# ReportID: 1 / Confidence: 1 | Tip Switch: 1 | Contact Id:  0 | # | X:    282 | Y:    760 
#             | Confidence: 0 | Tip Switch: 0 | Contact Id:  0 | # | X:      0 | Y:      0 
#             | Confidence: 0 | Tip Switch: 0 | Contact Id:  0 | # | X:      0 | Y:      0 | Scan Time:  54456 | Contact Count:    1 | Button: 0 | # 
E: 000000.004162 20 01 03 1a 01 f8 02 00 00 00 00 00 00 00 00 00 00 b8 d4 01 00
# ReportID: 1 / Confidence: 1 | Tip Switch: 1 | Contact Id:  0 | # | X:    282 | Y:    760 
#             | Confidence: 0 | Tip Switch: 0 | Contact Id:  0 | # | X:      0 | Y:      0 
#             | Confidence: 0 | Tip Switch: 0 | Contact Id:  0 | # | X:      0 | Y:      0 | Scan Time:  54496 | Contact Count:    1 | Button: 0 | # 
E: 000000.007528 20 01 03 1a 01 f8 02 00 00 00 00 00 00 00 00 00 00 e0 d4 01 00
# ReportID: 1 / Confidence: 1 | Tip Switch: 1 | Contact Id:  0 | # | X:    282 | Y:    760 
#             | Confidence: 0 | Tip Switch: 0 | Contact Id:  0 | # | X:      0 | Y:      0 
#             | Confidence: 0 | Tip Switch: 0 | Contact Id:  0 | # | X:      0 | Y:      0 | Scan Time:  54536 | Contact Count:    1 | Button: 0 | # 
E: 000000.011531 20 01 03 1a 01 f8 02 00 00 00 00 00 00 00 00 00 00 08 d5 01 00
# ReportID: 1 / Confidence: 1 | Tip Switch: 1 | Contact Id:  0 | # | X:    283 | Y:    759 
#             | Confidence: 0 | Tip Switch: 0 | Contact Id:  0 | # | X:      0 | Y:      0 
#             | Confidence: 0 | Tip Switch: 0 | Contact Id:  0 | # | X:      0 | Y:      0 | Scan Time:  54576 | Contact Count:    1 | Button: 0 | # 
E: 000000.015531 20 01 03 1b 01 f7 02 00 00 00 00 00 00 00 00 00 00 30 d5 01 00
# ReportID: 1 / Confidence: 1 | Tip Switch: 1 | Contact Id:  0 | # | X:    283 | Y:    759 
#             | Confidence: 0 | Tip Switch: 0 | Contact Id:  0 | # | X:      0 | Y:      0 
#             | Confidence: 0 | Tip Switch: 0 | Contact Id:  0 | # | X:      0 | Y:      0 | Scan Time:  54596 | Contact Count:    1 | Button: 0 | # 
E: 000000.019537 20 01 03 1b 01 f7 02 00 00 00 00 00 00 00 00 00 00 44 d5 01 00
# ReportID: 1 / Confidence: 1 | Tip Switch: 1 | Contact Id:  0 | # | X:    269 | Y:    743 
#             | Confidence: 0 | Tip Switch: 0 | Contact Id:  0 | # | X:      0 | Y:      0 
#             | Confidence: 0 | Tip Switch: 0 | Contact Id:  0 | # | X:      0 | Y:      0 | Scan Time:  54636 | Contact Count:    1 | Button: 0 | # 
E: 000000.023499 20 01 03 0d 01 e7 02 00 00 00 00 00 00 00 00 00 00 6c d5 01 00
# ReportID: 1 / Confidence: 1 | Tip Switch: 1 | Contact Id:  0 | # | X:    269 | Y:    743 
#             | Confidence: 0 | Tip Switch: 0 | Contact Id:  0 | # | X:      0 | Y:      0 
#             | Confidence: 0 | Tip Switch: 0 | Contact Id:  0 | # | X:      0 | Y:      0 | Scan Time:  54676 | Contact Count:    1 | Button: 0 | # 
E: 000000.027508 20 01 03 0d 01 e7 02 00 00 00 00 00 00 00 00 00 00 94 d5 01 00
# ReportID: 1 / Confidence: 1 | Tip Switch: 1 | Contact Id:  0 | # | X:    244 | Y:    711 
#             | Confidence: 0 | Tip Switch: 0 | Contact Id:  0 | # | X:      0 | Y:      0 
#             | Confidence: 0 | Tip Switch: 0 | Contact Id:  0 | # | X:      0 | Y:      0 | Scan Time:  54696 | Contact Count:    1 | Button: 0 | # 
E: 000000.031460 20 01 03 f4 00 c7 02 00 00 00 00 00 00 00 00 00 00 a8 d5 01 00
# ReportID: 1 / Confidence: 1 | Tip Switch: 1 | Contact Id:  0 | # | X:    244 | Y:    711 
#             | Confidence: 0 | Tip Switch: 0 | Contact Id:  0 | # | X:      0 | Y:      0 
#             | Confidence: 0 | Tip Switch: 0 | Contact Id:  0 | # | X:      0 | Y:      0 | Scan Time:  54736 | Contact Count:    1 | Button: 0 | # 
E: 000000.035452 20 01 03 f4 00 c7 02 00 00 00 00 00 00 00 00 00 00 d0 d5 01 00
# ReportID: 1 / Confidence: 1 | Tip Switch: 1 | Contact Id:  0 | # | X:    223 | Y:    673 
#             | Confidence: 0 | Tip Switch: 0 | Contact Id:  0 | # | X:      0 | Y:      0 
#             | Confidence: 0 | Tip Switch: 0 | Contact Id:  0 | # | X:      0 | Y:      0 | Scan Time:  54776 | Contact Count:    1 | Button: 0 | # 
E: 000000.039473 20 01 03 df 00 a1 02 00 00 00 00 00 00 00 00 00 00 f8 d5 01 00
# ReportID: 1 / Confidence: 1 | Tip Switch: 1 | Contact Id:  0 | # | X:    223 | Y:    673 
#             | Confidence: 0 | Tip Switch: 0 | Contact Id:  0 | # | X:      0 | Y:      0 
#             | Confidence: 0 | Tip Switch: 0 | Contact Id:  0 | # | X:      0 | Y:      0 | Scan Time:  54796 | Contact Count:    1 | Button: 0 | # 
E: 000000.043465 20 01 03 df 00 a1 02 00 00 00 00 00 00 00 00 00 00 0c d6 01 00
# ReportID: 1 / Confidence: 1 | Tip Switch: 1 | Contact Id:  0 | # | X:    197 | Y:    598 
#             | Confidence: 0 | Tip Switch: 0 | Contact Id:  0 | # | X:      0 | Y:      0 
#             | Confidence: 0 | Tip Switch: 0 | Contact Id:  0 | # | X:      0 | Y:      0 | Scan Time:  54836 | Contact Count:    1 | Button: 0 | # 
E: 000000.047457 20 01 03 c5 00 56 02 00 00 00 00 00 00 00 00 00 00 34 d6 01 00
# ReportID: 1 / Confidence: 1 | Tip Switch: 1 | Contact Id:  0 | # | X:    197 | Y:    598 
#             | Confidence: 0 | Tip Switch: 0 | Contact Id:  0 | # | X:      0 | Y:      0 
#             | Confidence: 0 | Tip Switch: 0 | Contact Id:  0 | # | X:      0 | Y:      0 | Scan Time:  54876 | Contact Count:    1 | Button: 0 | # 
E: 000000.051524 20 01 03 c5 00 56 02 00 00 00 00 00 00 00 00 00 00 5c d6 01 00
# ReportID: 1 / Confidence: 1 | Tip Switch: 1 | Contact Id:  0 | # | X:    177 | Y:    503 
#             | Confidence: 0 | Tip Switch: 0 | Contact Id:  0 | # | X:      0 | Y:      0 
#             | Confidence: 0 | Tip Switch: 0 | Contact Id:  0 | # | X:      0 | Y:      0 | Scan Time:  54896 | Contact Count:    1 | Button: 0 | # 
E: 000000.055447 20 01 03 b1 00 f7 01 00 00 00 00 00 00 00 00 00 00 70 d6 01 00
# ReportID: 1 / Confidence: 1 | Tip Switch: 1 | Contact Id:  0 | # | X:    177 | Y:    503 
#             | Confidence: 0 | Tip Switch: 0 | Contact Id:  0 | # | X:      0 | Y:      0 
#             | Confidence: 0 | Tip Switch: 0 | Contact Id:  0 | # | X:      0 | Y:      0 | Scan Time:  54936 | Contact Count:    1 | Button: 0 | # 
E: 000000.059458 20 01 03 b1 00 f7 01 00 00 00 00 00 00 00 00 00 00 98 d6 01 00
# ReportID: 1 / Confidence: 1 | Tip Switch: 1 | Contact Id:  0 | # | X:    176 | Y:    426 
#             | Confidence: 0 | Tip Switch: 0 | Contact Id:  0 | # | X:      0 | Y:      0 
#             | Confidence: 0 | Tip Switch: 0 | Contact Id:  0 | # | X:      0 | Y:      0 | Scan Time:  54976 | Contact Count:    1 | Button: 0 | # 
E: 000000.063504 20 01 03 b0 00 aa 01 00 00 00 00 00 00 00 00 00 00 c0 d6 01 00
# ReportID: 1 / Confidence: 1 | Tip Switch: 1 | Contact Id:  0 | # | X:    176 | Y:    426 
#             | Confidence: 0 | Tip Switch: 0 | Contact Id:  0 | # | X:      0 | Y:      0 
#             | Confidence: 0 | Tip Switch: 0 | Contact Id:  0 | # | X:      0 | Y:      0 | Scan Time:  54996 | Contact Count:    1 | Button: 0 | # 
E: 000000.067500 20 01 03 b0 00 aa 01 00 00 00 00 00 00 00 00 00 00 d4 d6 01 00
# ReportID: 1 / Confidence: 1 | Tip Switch: 1 | Contact Id:  0 | # | X:    181 | Y:    369 
#             | Confidence: 0 | Tip Switch: 0 | Contact Id:  0 | # | X:      0 | Y:      0 
#             | Confidence: 0 | Tip Switch: 0 | Contact Id:  0 | # | X:      0 | Y:      0 | Scan Time:  55036 | Contact Count:    1 | Button: 0 | # 
E: 000000.071487 20 01 03 b5 00 71 01 00 00 00 00 00 00 00 00 00 00 fc d6 01 00
# ReportID: 1 / Confidence: 1 | Tip Switch: 1 | Contact Id:  0 | # | X:    181 | Y:    369 
#             | Confidence: 0 | Tip Switch: 0 | Contact Id:  0 | # | X:      0 | Y:      0 
#             | Confidence: 0 | Tip Switch: 0 | Contact Id:  0 | # | X:      0 | Y:      0 | Scan Time:  55056 | Contact Count:    1 | Button: 0 | # 
E: 000000.075499 20 01 03 b5 00 71 01 00 00 00 00 00 00 00 00 00 00 10 d7 01 00
# ReportID: 1 / Confidence: 1 | Tip Switch: 1 | Contact Id:  0 | # | X:    203 | Y:    316 
#             | Confidence: 0 | Tip Switch: 0 | Contact Id:  0 | # | X:      0 | Y:      0 
#             | Confidence: 0 | Tip Switch: 0 | Contact Id:  0 | # | X:      0 | Y:      0 | Scan Time:  55096 | Contact Count:    1 | Button: 0 | # 
E: 000000.079482 20 01 03 cb 00 3c 01 00 00 00 00 00 00 00 00 00 00 38 d7 01 00
# ReportID: 1 / Confidence: 1 | Tip Switch: 1 | Contact Id:  0 | # | X:    203 | Y:    316 
#             | Confidence: 0 | Tip Switch: 0 | Contact Id:  0 | # | X:      0 | Y:      0 
#             | Confidence: 0 | Tip Switch: 0 | Contact Id:  0 | # | X:      0 | Y:      0 | Scan Time:  55136 | Contact Count:    1 | Button: 0 | # 
E: 000000.083485 20 01 03 cb 00 3c 01 00 00 00 00 00 00 00 00 00 00 60 d7 01 00
# ReportID: 1 / Confidence: 1 | Tip Switch: 1 | Contact Id:  0 | # | X:    233 | Y:    261 
#             | Confidence: 0 | Tip Switch: 0 | Contact Id:  0 | # | X:      0 | Y:      0 
#             | Confidence: 0 | Tip Switch: 0 | Contact Id:  0 | # | X:      0 | Y:      0 | Scan Time:  55176 | Contact Count:    1 | Button: 0 | # 
E: 000000.087473 20 01 03 e9 00 05 01 00 00 00 00 00 00 00 00 00 00 88 d7 01 00
# ReportID: 1 / Confidence: 1 | Tip Switch: 1 | Contact Id:  0 | # | X:    233 | Y:    261 
#             | Confidence: 0 | Tip Switch: 0 | Contact Id:  0 | # | X:      0 | Y:      0 
#             | Confidence: 0 | Tip Switch: 0 | Contact Id:  0 | # | X:      0 | Y:      0 | Scan Time:  55196 | Contact Count:    1 | Button: 0 | # 
E: 000000.091488 20 01 03 e9 00 05 01 00 00 00 00 00 00 00 00 00 00 9c d7 01 00
# ReportID: 1 / Confidence: 1 | Tip Switch: 1 | Contact Id:  0 | # | X:    279 | Y:    208 
#             | Confidence: 0 | Tip Switch: 0 | Contact Id:  0 | # | X:      0 | Y:      0 
#             | Confidence: 0 | Tip Switch: 0 | Contact Id:  0 | # | X:      0 | Y:      0 | Scan Time:  55236 | Contact Count:    1 | Button: 0 | # 
E: 000000.095493 20 01 03 17 01 d0 00 00 00 00 00 00 00 00 00 00 00 c4 d7 01 00
# ReportID: 1 / Confidence: 1 | Tip Switch: 1 | Contact Id:  0 | # | X:    279 | Y:    208 
#             | Confidence: 0 | Tip Switch: 0 | Contact Id:  0 | # | X:      0 | Y:      0 
#             | Confidence: 0 | Tip Switch: 0 | Contact Id:  0 | # | X:      0 | Y:      0 | Scan Time:  55256 | Contact Count:    1 | Button: 0 | # 
E: 000000.099477 20 01 03 17 01 d0 00 00 00 00 00 00 00 00 00 00 00 d8 d7 01 00
# ReportID: 1 / Confidence: 1 | Tip Switch: 1 | Contact Id:  0 | # | X:    345 | Y:    167 
#             | Confidence: 0 | Tip Switch: 0 | Contact Id:  0 | # | X:      0 | Y:      0 
#             | Confidence: 0 | Tip Switch: 0 | Contact Id:  0 | # | X:      0 | Y:      0 | Scan Time:  55296 | Contact Count:    1 | Button: 0 | # 
E: 000000.103475 20 01 03 59 01 a7 00 00 00 00 00 00 00 00 00 00 00 00 d8 01 00
# ReportID: 1 / Confidence: 1 | Tip Switch: 1 | Contact Id:  0 | # | X:    345 | Y:    167 
#             | Confidence: 0 | Tip Switch: 0 | Contact Id:  0 | # | X:      0 | Y:      0 
#             | Confidence: 0 | Tip Switch: 0 | Contact Id:  0 | # | X:      0 | Y:      0 | Scan Time:  55336 | Contact Count:    1 | Button: 0 | # 
E: 000000.107479 20 01 03 59 01 a7 00 00 00 00 00 00 00 00 00 00 00 28 d8 01 00
# ReportID: 1 / Confidence: 1 | Tip Switch: 1 | Contact Id:  0 | # | X:    440 | Y:    133 
#             | Confidence: 0 | Tip Switch: 0 | Contact Id:  0 | # | X:      0 | Y:      0 
#             | Confidence: 0 | Tip Switch: 0 | Contact Id:  0 | # | X:      0 | Y:      0 | Scan Time:  55356 | Contact Count:    1 | Button: 0 | # 
E: 000000.111584 20 01 03 b8 01 85 00 00 00 00 00 00 00 00 00 00 00 3c d8 01 00
# ReportID: 1 / Confidence: 1 | Tip Switch: 1 | Contact Id:  0 | # | X:    440 | Y:    133 
#             | Confidence: 0 | Tip Switch: 0 | Contact Id:  0 | # | X:      0 | Y:      0 
#             | Confidence: 0 | Tip Switch: 0 | Contact Id:  0 | # | X:      0 | Y:      0 | Scan Time:  55396 | Contact Count:    1 | Button: 0 | # 
E: 000000.115487 20 01 03 b8 01 85 00 00 00 00 00 00 00 00 00 00 00 64 d8 01 00
# ReportID: 1 / Confidence: 1 | Tip Switch: 1 | Contact Id:  0 | # | X:    541 | Y:    109 
#             | Confidence: 0 | Tip Switch: 0 | Contact Id:  0 | # | X:      0 | Y:      0 
#             | Confidence: 0 | Tip Switch: 0 | Contact Id:  0 | # | X:      0 | Y:      0 | Scan Time:  55436 | Contact Count:    1 | Button: 0 | # 
E: 000000.119473 20 01 03 1d 02 6d 00 00 00 00 00 00 00 00 00 00 00 8c d8 01 00
# ReportID: 1 / Confidence: 1 | Tip Switch: 1 | Contact Id:  0 | # | X:    541 | Y:    109 
#             | Confidence: 0 | Tip Switch: 0 | Contact Id:  0 | # | X:      0 | Y:      0 
#             | Confidence: 0 | Tip Switch: 0 | Contact Id:  0 | # | X:      0 | Y:      0 | Scan Time:  55456 | Contact Count:    1 | Button: 0 | # 
E: 000000.123497 20 01 03 1d 02 6d 00 00 00 00 00 00 00 00 00 00 00 a0 d8 01 00
# ReportID: 1 / Confidence: 1 | Tip Switch: 1 | Contact Id:  0 | # | X:    634 | Y:     96 
#             | Confidence: 0 | Tip Switch: 0 | Contact Id:  0 | # | X:      0 | Y:      0 
#             | Confidence: 0 | Tip Switch: 0 | Contact Id:  0 | # | X:      0 | Y:      0 | Scan Time:  55496 | Contact Count:    1 | Button: 0 | # 
E: 000000.127533 20 01 03 7a 02 60 00 00 00 00 00 00 00 00 00 00 00 c8 d8 01 00
# ReportID: 1 / Confidence: 1 | Tip Switch: 1 | Contact Id:  0 | # | X:    634 | Y:     96 
#             | Confidence: 0 | Tip Switch: 0 | Contact Id:  0 | # | X:      0 | Y:      0 
#             | Confidence: 0 | Tip Switch: 0 | Contact Id:  0 | # | X:      0 | Y:      0 | Scan Time:  55516 | Contact Count:    1 | Button: 0 | # 
E: 000000.131497 20 01 03 7a 02 60 00 00 00 00 00 00 00 00 00 00 00 dc d8 01 00
# ReportID: 1 / Confidence: 1 | Tip Switch: 1 | Contact Id:  0 | # | X:    710 | Y:     90 
#             | Confidence: 0 | Tip Switch: 0 | Contact Id:  0 | # | X:      0 | Y:      0 
#             | Confidence: 0 | Tip Switch: 0 | Contact Id:  0 | # | X:      0 | Y:      0 | Scan Time:  55556 | Contact Count:    1 | Button: 0 | # 
E: 000000.135530 20 01 03 c6 02 5a 00 00 00 00 00 00 00 00 00 00 00 04 d9 01 00
# ReportID: 1 / Confidence: 1 | Tip Switch: 1 | Contact Id:  0 | # | X:    710 | Y:     90 
#             | Confidence: 0 | Tip Switch: 0 | Contact Id:  0 | # | X:      0 | Y:      0 
#             | Confidence: 0 | Tip Switch: 0 | Contact Id:  0 | # | X:      0 | Y:      0 | Scan Time:  55596 | Contact Count:    1 | Button: 0 | # 
E: 000000.139676 20 01 03 c6 02 5a 00 00 00 00 00 00 00 00 00 00 00 2c d9 01 00
# ReportID: 1 / Confidence: 1 | Tip Switch: 1 | Contact Id:  0 | # | X:    739 | Y:     89 
#             | Confidence: 0 | Tip Switch: 0 | Contact Id:  0 | # | X:      0 | Y:      0 
#             | Confidence: 0 | Tip Switch: 0 | Contact Id:  0 | # | X:      0 | Y:      0 | Scan Time:  55616 | Contact Count:    1 | Button: 0 | # 
E: 000000.143493 20 01 03 e3 02 59 00 00 00 00 00 00 00 00 00 00 00 40 d9 01 00
# ReportID: 1 / Confidence: 1 | Tip Switch: 1 | Contact Id:  0 | # | X:    739 | Y:     89 
#             | Confidence: 0 | Tip Switch: 0 | Contact Id:  0 | # | X:      0 | Y:      0 
#             | Confidence: 0 | Tip Switch: 0 | Contact Id:  0 | # | X:      0 | Y:      0 | Scan Time:  55656 | Contact Count:    1 | Button: 0 | # 
E: 000000.147500 20 01 03 e3 02 59 00 00 00 00 00 00 00 00 00 00 00 68 d9 01 00
# ReportID: 1 / Confidence: 1 | Tip Switch: 1 | Contact Id:  0 | # | X:    751 | Y:     90 
#             | Confidence: 0 | Tip Switch: 0 | Contact Id:  0 | # | X:      0 | Y:      0 
#             | Confidence: 0 | Tip Switch: 0 | Contact Id:  0 | # | X:      0 | Y:      0 | Scan Time:  55696 | Contact Count:    1 | Button: 0 | # 
E: 000000.151500 20 01 03 ef 02 5a 00 00 00 00 00 00 00 00 00 00 00 90 d9 01 00
# ReportID: 1 / Confidence: 1 | Tip Switch: 1 | Contact Id:  0 | # | X:    751 | Y:     90 
#             | Confidence: 0 | Tip Switch: 0 | Contact Id:  0 | # | X:      0 | Y:      0 
#             | Confidence: 0 | Tip Switch: 0 | Contact Id:  0 | # | X:      0 | Y:      0 | Scan Time:  55716 | Contact Count:    1 | Button: 0 | # 
E: 000000.155484 20 01 03 ef 02 5a 00 00 00 00 00 00 00 00 00 00 00 a4 d9 01 00
# ReportID: 1 / Confidence: 1 | Tip Switch: 1 | Contact Id:  0 | # | X:    758 | Y:     94 
#             | Confidence: 0 | Tip Switch: 0 | Contact Id:  0 | # | X:      0 | Y:      0 
#             | Confidence: 0 | Tip Switch: 0 | Contact Id:  0 | # | X:      0 | Y:      0 | Scan Time:  55756 | Contact Count:    1 | Button: 0 | # 
E: 000000.159554 20 01 03 f6 02 5e 00 00 00 00 00 00 00 00 00 00 00 cc d9 01 00
# ReportID: 1 / Confidence: 1 | Tip Switch: 1 | Contact Id:  0 | # | X:    758 | Y:     94 
#             | Confidence: 0 | Tip Switch: 0 | Contact Id:  0 | # | X:      0 | Y:      0 
#             | Confidence: 0 | Tip Switch: 0 | Contact Id:  0 | # | X:      0 | Y:      0 | Scan Time:  55776 | Contact Count:    1 | Button: 0 | # 
E: 000000.163508 20 01 03 f6 02 5e 00 00 00 00 00 00 00 00 00 00 00 e0 d9 01 00
# ReportID: 1 / Confidence: 1 | Tip Switch: 1 | Contact Id:  0 | # | X:    762 | Y:    101 
#             | Confidence: 0 | Tip Switch: 0 | Contact Id:  0 | # | X:      0 | Y:      0 
#             | Confidence: 0 | Tip Switch: 0 | Contact Id:  0 | # | X:      0 | Y:      0 | Scan Time:  55816 | Contact Count:    1 | Button: 0 | # 
E: 000000.167496 20 01 03 fa 02 65 00 00 00 00 00 00 00 00 00 00 00 08 da 01 00
# ReportID: 1 / Confidence: 1 | Tip Switch: 1 | Contact Id:  0 | # | X:    762 | Y:    101 
#             | Confidence: 0 | Tip Switch: 0 | Contact Id:  0 | # | X:      0 | Y:      0 
#             | Confidence: 0 | Tip Switch: 0 | Contact Id:  0 | # | X:      0 | Y:      0 | Scan Time:  55856 | Contact Count:    1 | Button: 0 | # 
E: 000000.171484 20 01 03 fa 02 65 00 00 00 00 00 00 00 00 00 00 00 30 da 01 00
# ReportID: 1 / Confidence: 1 | Tip Switch: 1 | Contact Id:  0 | # | X:    759 | Y:    119 
#             | Confidence: 0 | Tip Switch: 0 | Contact Id:  0 | # | X:      0 | Y:      0 
#             | Confidence: 0 | Tip Switch: 0 | Contact Id:  0 | # | X:      0 | Y:      0 | Scan Time:  55876 | Contact Count:    1 | Button: 0 | # 
E: 000000.175519 20 01 03 f7 02 77 00 00 00 00 00 00 00 00 00 00 00 44 da 01 00
# ReportID: 1 / Confidence: 1 | Tip Switch: 1 | Contact Id:  0 | # | X:    759 | Y:    119 
#             | Confidence: 0 | Tip Switch: 0 | Contact Id:  0 | # | X:      0 | Y:      0 
#             | Confidence: 0 | Tip Switch: 0 | Contact Id:  0 | # | X:      0 | Y:      0 | Scan Time:  55916 | Contact Count:    1 | Button: 0 | # 
E: 000000.179490 20 01 03 f7 02 77 00 00 00 00 00 00 00 00 00 00 00 6c da 01 00
# ReportID: 1 / Confidence: 1 | Tip Switch: 1 | Contact Id:  0 | # | X:    735 | Y:    161 
#             | Confidence: 0 | Tip Switch: 0 | Contact Id:  0 | # | X:      0 | Y:      0 
#             | Confidence: 0 | Tip Switch: 0 | Contact Id:  0 | # | X:      0 | Y:      0 | Scan Time:  55956 | Contact Count:    1 | Button: 0 | # 
E: 000000.183470 20 01 03 df 02 a1 00 00 00 00 00 00 00 00 00 00 00 94 da 01 00
# ReportID: 1 / Confidence: 1 | Tip Switch: 1 | Contact Id:  0 | # | X:    735 | Y:    161 
#             | Confidence: 0 | Tip Switch: 0 | Contact Id:  0 | # | X:      0 | Y:      0 
#             | Confidence: 0 | Tip Switch: 0 | Contact Id:  0 | # | X:      0 | Y:      0 | Scan Time:  55976 | Contact Count:    1 | Button: 0 | # 
E: 000000.187454 20 01 03 df 02 a1 00 00 00 00 00 00 00 00 00 00 00 a8 da 01 00
# ReportID: 1 / Confidence: 1 | Tip Switch: 1 | Contact Id:  0 | # | X:    696 | Y:    215 
#             | Confidence: 0 | Tip Switch: 0 | Contact Id:  0 | # | X:      0 | Y:      0 
#             | Confidence: 0 | Tip Switch: 0 | Contact Id:  0 | # | X:      0 | Y:      0 | Scan Time:  56016 | Contact Count:    1 | Button: 0 | # 
E: 000000.191483 20 01 03 b8 02 d7 00 00 00 00 00 00 00 00 00 00 00 d0 da 01 00
# ReportID: 1 / Confidence: 1 | Tip Switch: 1 | Contact Id:  0 | # | X:    696 | Y:    215 
#             | Confidence: 0 | Tip Switch: 0 | Contact Id:  0 | # | X:      0 | Y:      0 
#             | Confidence: 0 | Tip Switch: 0 | Contact Id:  0 | # | X:      0 | Y:      0 | Scan Time:  56036 | Contact Count:    1 | Button: 0 | # 
E: 000000.195509 20 01 03 b8 02 d7 00 00 00 00 00 00 00 00 00 00 00 e4 da 01 00
# ReportID: 1 / Confidence: 1 | Tip Switch: 1 | Contact Id:  0 | # | X:    655 | Y:    287 
#             | Confidence: 0 | Tip Switch: 0 | Contact Id:  0 | # | X:      0 | Y:      0 
#             | Confidence: 0 | Tip Switch: 0 | Contact Id:  0 | # | X:      0 | Y:      0 | Scan Time:  56076 | Contact Count:    1 | Button: 0 | # 
E: 000000.199472 20 01 03 8f 02 1f 01 00 00 00 00 00 00 00 00 00 00 0c db 01 00
# ReportID: 1 / Confidence: 1 | Tip Switch: 1 | Contact Id:  0 | # | X:    655 | Y:    287 
#             | Confidence: 0 | Tip Switch: 0 | Contact Id:  0 | # | X:      0 | Y:      0 
#             | Confidence: 0 | Tip Switch: 0 | Contact Id:  0 | # | X:      0 | Y:      0 | Scan Time:  56116 | Contact Count:    1 | Button: 0 | # 
E: 000000.203503 20 01 03 8f 02 1f 01 00 00 00 00 00 00 00 00 00 00 34 db 01 00
# ReportID: 1 / Confidence: 1 | Tip Switch: 1 | Contact Id:  0 | # | X:    615 | Y:    367 
#             | Confidence: 0 | Tip Switch: 0 | Contact Id:  0 | # | X:      0 | Y:      0 
#             | Confidence: 0 | Tip Switch: 0 | Contact Id:  0 | # | X:      0 | Y:      0 | Scan Time:  56136 | Contact Count:    1 | Button: 0 | # 
E: 000000.207575 20 01 03 67 02 6f 01 00 00 00 00 00 00 00 00 00 00 48 db 01 00
# ReportID: 1 / Confidence: 1 | Tip Switch: 1 | Contact Id:  0 | # | X:    615 | Y:    367 
#             | Confidence: 0 | Tip Switch: 0 | Contact Id:  0 | # | X:      0 | Y:      0 
#             | Confidence: 0 | Tip Switch: 0 | Contact Id:  0 | # | X:      0 | Y:      0 | Scan Time:  56176 | Contact Count:    1 | Button: 0 | # 
E: 000000.211532 20 01 03 67 02 6f 01 00 00 00 00 00 00 00 00 00 00 70 db 01 00
# ReportID: 1 / Confidence: 1 | Tip Switch: 1 | Contact Id:  0 | # | X:    583 | Y:    439 
#             | Confidence: 0 | Tip Switch: 0 | Contact Id:  0 | # | X:      0 | Y:      0 
#             | Confidence: 0 | Tip Switch: 0 | Contact Id:  0 | # | X:      0 | Y:      0 | Scan Time:  56216 | Contact Count:    1 | Button: 0 | # 
E: 000000.215493 20 01 03 47 02 b7 01 00 00 00 00 00 00 00 00 00 00 98 db 01 00
# ReportID: 1 / Confidence: 1 | Tip Switch: 1 | Contact Id:  0 | # | X:    583 | Y:    439 
#             | Confidence: 0 | Tip Switch: 0 | Contact Id:  0 | # | X:      0 | Y:      0 
#             | Confidence: 0 | Tip Switch: 0 | Contact Id:  0 | # | X:      0 | Y:      0 | Scan Time:  56236 | Contact Count:    1 | Button: 0 | # 
E: 000000.219465 20 01 03 47 02 b7 01 00 00 00 00 00 00 00 00 00 00 ac db 01 00
# ReportID: 1 / Confidence: 1 | Tip Switch: 1 | Contact Id:  0 | # | X:    552 | Y:    521 
#             | Confidence: 0 | Tip Switch: 0 | Contact Id:  0 | # | X:      0 | Y:      0 
#             | Confidence: 0 | Tip Switch: 0 | Contact Id:  0 | # | X:      0 | Y:      0 | Scan Time:  56276 | Contact Count:    1 | Button: 0 | # 
E: 000000.223503 20 01 03 28 02 09 02 00 00 00 00 00 00 00 00 00 00 d4 db 01 00
# ReportID: 1 / Confidence: 1 | Tip Switch: 1 | Contact Id:  0 | # | X:    552 | Y:    521 
#             | Confidence: 0 | Tip Switch: 0 | Contact Id:  0 | # | X:      0 | Y:      0 
#             | Confidence: 0 | Tip Switch: 0 | Contact Id:  0 | # | X:      0 | Y:      0 | Scan Time:  56296 | Contact Count:    1 | Button: 0 | # 
E: 000000.227646 20 01 03 28 02 09 02 00 00 00 00 00 00 00 00 00 00 e8 db 01 00
# ReportID: 1 / Confidence: 1 | Tip Switch: 1 | Contact Id:  0 | # | X:    519 | Y:    582 
#             | Confidence: 0 | Tip Switch: 0 | Contact Id:  0 | # | X:      0 | Y:      0 
#             | Confidence: 0 | Tip Switch: 0 | Contact Id:  0 | # | X:      0 | Y:      0 | Scan Time:  56336 | Contact Count:    1 | Button: 0 | # 
E: 000000.231623 20 01 03 07 02 46 02 00 00 00 00 00 00 00 00 00 00 10 dc 01 00
# ReportID: 1 / Confidence: 1 | Tip Switch: 1 | Contact Id:  0 | # | X:    519 | Y:    582 
#             | Confidence: 0 | Tip Switch: 0 | Contact Id:  0 | # | X:      0 | Y:      0 
#             | Confidence: 0 | Tip Switch: 0 | Contact Id:  0 | # | X:      0 | Y:      0 | Scan Time:  56376 | Contact Count:    1 | Button: 0 | # 
E: 000000.235500 20 01 03 07 02 46 02 00 00 00 00 00 00 00 00 00 00 38 dc 01 00
# ReportID: 1 / Confidence: 1 | Tip Switch: 1 | Contact Id:  0 | # | X:    485 | Y:    627 
#             | Confidence: 0 | Tip Switch: 0 | Contact Id:  0 | # | X:      0 | Y:      0 
#             | Confidence: 0 | Tip Switch: 0 | Contact Id:  0 | # | X:      0 | Y:      0 | Scan Time:  56396 | Contact Count:    1 | Button: 0 | # 
E: 000000.239499 20 01 03 e5 01 73 02 00 00 00 00 00 00 00 00 00 00 4c dc 01 00
# ReportID: 1 / Confidence: 1 | Tip Switch: 1 | Contact Id:  0 | # | X:    485 | Y:    627 
#             | Confidence: 0 | Tip Switch: 0 | Contact Id:  0 | # | X:      0 | Y:      0 
#             | Confidence: 0 | Tip Switch: 0 | Contact Id:  0 | # | X:      0 | Y:      0 | Scan Time:  56436 | Contact Count:    1 | Button: 0 | # 
E: 000000.243520 20 01 03 e5 01 73 02 00 00 00 00 00 00 00 00 00 00 74 dc 01 00
# ReportID: 1 / Confidence: 1 | Tip Switch: 1 | Contact Id:  0 | # | X:    453 | Y:    675 
#             | Confidence: 0 | Tip Switch: 0 | Contact Id:  0 | # | X:      0 | Y:      0 
#             | Confidence: 0 | Tip Switch: 0 | Contact Id:  0 | # | X:      0 | Y:      0 | Scan Time:  56476 | Contact Count:    1 | Button: 0 | # 
E: 000000.247499 20 01 03 c5 01 a3 02 00 00 00 00 00 00 00 00 00 00 9c dc 01 00
# ReportID: 1 / Confidence: 1 | Tip Switch: 1 | Contact Id:  0 | # | X:    453 | Y:    675 
#             | Confidence: 0 | Tip Switch: 0 | Contact Id:  0 | # | X:      0 | Y:      0 
#             | Confidence: 0 | Tip Switch: 0 | Contact Id:  0 | # | X:      0 | Y:      0 | Scan Time:  56496 | Contact Count:    1 | Button: 0 | # 
E: 000000.251525 20 01 03 c5 01 a3 02 00 00 00 00 00 00 00 00 00 00 b0 dc 01 00
# ReportID: 1 / Confidence: 1 | Tip Switch: 1 | Contact Id:  0 | # | X:    431 | Y:    713 
#             | Confidence: 0 | Tip Switch: 0 | Contact Id:  0 | # | X:      0 | Y:      0 
#             | Confidence: 0 | Tip Switch: 0 | Contact Id:  0 | # | X:      0 | Y:      0 | Scan Time:  56536 | Contact Count:    1 | Button: 0 | # 
E: 000000.255484 20 01 03 af 01 c9 02 00 00 00 00 00 00 00 00 00 00 d8 dc 01 00
# ReportID: 1 / Confidence: 1 | Tip Switch: 1 | Contact Id:  0 | # | X:    431 | Y:    713 
#             | Confidence: 0 | Tip Switch: 0 | Contact Id:  0 | # | X:      0 | Y:      0 
#             | Confidence: 0 | Tip Switch: 0 | Contact Id:  0 | # | X:      0 | Y:      0 | Scan Time:  56556 | Contact Count:    1 | Button: 0 | # 
E: 000000.259575 20 01 03 af 01 c9 02 00 00 00 00 00 00 00 00 00 00 ec dc 01 00
# ReportID: 1 / Confidence: 1 | Tip Switch: 1 | Contact Id:  0 | # | X:    415 | Y:    741 
#             | Confidence: 0 | Tip Switch: 0 | Contact Id:  0 | # | X:      0 | Y:      0 
#             | Confidence: 0 | Tip Switch: 0 | Contact Id:  0 | # | X:      0 | Y:      0 | Scan Time:  56596 | Contact Count:    1 | Button: 0 | # 
E: 000000.263498 20 01 03 9f 01 e5 02 00 00 00 00 00 00 00 00 00 00 14 dd 01 00
# ReportID: 1 / Confidence: 1 | Tip Switch: 1 | Contact Id:  0 | # | X:    415 | Y:    741 
#             | Confidence: 0 | Tip Switch: 0 | Contact Id:  0 | # | X:      0 | Y:      0 
#             | Confidence: 0 | Tip Switch: 0 | Contact Id:  0 | # | X:      0 | Y:      0 | Scan Time:  56636 | Contact Count:    1 | Button: 0 | # 
E: 000000.267486 20 01 03 9f 01 e5 02 00 00 00 00 00 00 00 00 00 00 3c dd 01 00
# ReportID: 1 / Confidence: 1 | Tip Switch: 1 | Contact Id:  0 | # | X:    401 | Y:    755 
#             | Confidence: 0 | Tip Switch: 0 | Contact Id:  0 | # | X:      0 | Y:      0 
#             | Confidence: 0 | Tip Switch: 0 | Contact Id:  0 | # | X:      0 | Y:      0 | Scan Time:  56676 | Contact Count:    1 | Button: 0 | # 
E: 000000.271478 20 01 03 91 01 f3 02 00 00 00 00 00 00 00 00 00 00 64 dd 01 00
# ReportID: 1 / Confidence: 1 | Tip Switch: 1 | Contact Id:  0 | # | X:    401 | Y:    755 
#             | Confidence: 0 | Tip Switch: 0 | Contact Id:  0 | # | X:      0 | Y:      0 
#             | Confidence: 0 | Tip Switch: 0 | Contact Id:  0 | # | X:      0 | Y:      0 | Scan Time:  56696 | Contact Count:    1 | Button: 0 | # 
E: 000000.275456 20 01 03 91 01 f3 02 00 00 00 00 00 00 00 00 00 00 78 dd 01 00
# ReportID: 1 / Confidence: 1 | Tip Switch: 1 | Contact Id:  0 | # | X:    392 | Y:    763 
#             | Confidence: 0 | Tip Switch: 0 | Contact Id:  0 | # | X:      0 | Y:      0 
#             | Confidence: 0 | Tip Switch: 0 | Contact Id:  0 | # | X:      0 | Y:      0 | Scan Time:  56736 | Contact Count:    1 | Button: 0 | # 
E: 000000.279583 20 01 03 88 01 fb 02 00 00 00 00 00 00 00 00 00 00 a0 dd 01 00
# ReportID: 1 / Confidence: 1 | Tip Switch: 1 | Contact Id:  0 | # | X:    392 | Y:    763 
#             | Confidence: 0 | Tip Switch: 0 | Contact Id:  0 | # | X:      0 | Y:      0 
#             | Confidence: 0 | Tip Switch: 0 | Contact Id:  0 | # | X:      0 | Y:      0 | Scan Time:  56756 | Contact Count:    1 | Button: 0 | # 
E: 000000.283475 20 01 03 88 01 fb 02 00 00 00 00 00 00 00 00 00 00 b4 dd 01 00
# ReportID: 1 / Confidence: 1 | Tip Switch: 1 | Contact Id:  0 | # | X:    386 | Y:    765 
#             | Confidence: 0 | Tip Switch: 0 | Contact Id:  0 | # | X:      0 | Y:      0 
#             | Confidence: 0 | Tip Switch: 0 | Contact Id:  0 | # | X:      0 | Y:      0 | Scan Time:  56796 | Contact Count:    1 | Button: 0 | # 
E: 000000.287445 20 01 03 82 01 fd 02 00 00 00 00 00 00 00 00 00 00 dc dd 01 00
# ReportID: 1 / Confidence: 1 | Tip Switch: 1 | Contact Id:  0 | # | X:    386 | Y:    765 
#             | Confidence: 0 | Tip Switch: 0 | Contact Id:  0 | # | X:      0 | Y:      0 
#             | Confidence: 0 | Tip Switch: 0 | Contact Id:  0 | # | X:      0 | Y:      0 | Scan Time:  56836 | Contact Count:    1 | Button: 0 | # 
E: 000000.291479 20 01 03 82 01 fd 02 00 00 00 00 00 00 00 00 00 00 04 de 01 00
# ReportID: 1 / Confidence: 1 | Tip Switch: 1 | Contact Id:  0 | # | X:    360 | Y:    742 
#             | Confidence: 0 | Tip Switch: 0 | Contact Id:  0 | # | X:      0 | Y:      0 
#             | Confidence: 0 | Tip Switch: 0 | Contact Id:  0 | # | X:      0 | Y:      0 | Scan Time:  56856 | Contact Count:    1 | Button: 0 | # 
E: 000000.295514 20 01 03 68 01 e6 02 00 00 00 00 00 00 00 00 00 00 18 de 01 00
# ReportID: 1 / Confidence: 1 | Tip Switch: 1 | Contact Id:  0 | # | X:    360 | Y:    742 
#             | Confidence: 0 | Tip Switch: 0 | Contact Id:  0 | # | X:      0 | Y:      0 
#             | Confidence: 0 | Tip Switch: 0 | Contact Id:  0 | # | X:      0 | Y:      0 | Scan Time:  56896 | Contact Count:    1 | Button: 0 | # 
E: 000000.299483 20 01 03 68 01 e6 02 00 00 00 00 00 00 00 00 00 00 40 de 01 00
# ReportID: 1 / Confidence: 1 | Tip Switch: 1 | Contact Id:  0 | # | X:    291 | Y:    668 
#             | Confidence: 0 | Tip Switch: 0 | Contact Id:  0 | # | X:      0 | Y:      0 
#             | Confidence: 0 | Tip Switch: 0 | Contact Id:  0 | # | X:      0 | Y:      0 | Scan Time:  56936 | Contact Count:    1 | Button: 0 | # 
E: 000000.303459 20 01 03 23 01 9c 02 00 00 00 00 00 00 00 00 00 00 68 de 01 00
# ReportID: 1 / Confidence: 1 | Tip Switch: 1 | Contact Id:  0 | # | X:    291 | Y:    668 
#             | Confidence: 0 | Tip Switch: 0 | Contact Id:  0 | # | X:      0 | Y:      0 
#             | Confidence: 0 | Tip Switch: 0 | Contact Id:  0 | # | X:      0 | Y:      0 | Scan Time:  56956 | Contact Count:    1 | Button: 0 | # 
E: 000000.307475 20 01 03 23 01 9c 02 00 00 00 00 00 00 00 00 00 00 7c de 01 00
# ReportID: 1 / Confidence: 1 | Tip Switch: 1 | Contact Id:  0 | # | X:    220 | Y:    556 
#             | Confidence: 0 | Tip Switch: 0 | Contact Id:  0 | # | X:      0 | Y:      0 
#             | Confidence: 0 | Tip Switch: 0 | Contact Id:  0 | # | X:      0 | Y:      0 | Scan Time:  56996 | Contact Count:    1 | Button: 0 | # 
E: 000000.311491 20 01 03 dc 00 2c 02 00 00 00 00 00 00 00 00 00 00 a4 de 01 00
# ReportID: 1 / Confidence: 1 | Tip Switch: 1 | Contact Id:  0 | # | X:    220 | Y:    556 
#             | Confidence: 0 | Tip Switch: 0 | Contact Id:  0 | # | X:      0 | Y:      0 
#             | Confidence: 0 | Tip Switch: 0 | Contact Id:  0 | # | X:      0 | Y:      0 | Scan Time:  57036 | Contact Count:    1 | Button: 0 | # 
E: 000000.315495 20 01 03 dc 00 2c 02 00 00 00 00 00 00 00 00 00 00 cc de 01 00
# ReportID: 1 / Confidence: 1 | Tip Switch: 1 | Contact Id:  0 | # | X:    185 | Y:    461 
#             | Confidence: 0 | Tip Switch: 0 | Contact Id:  0 | # | X:      0 | Y:      0 
#             | Confidence: 0 | Tip Switch: 0 | Contact Id:  0 | # | X:      0 | Y:      0 | Scan Time:  57056 | Contact Count:    1 | Button: 0 | # 
E: 000000.319455 20 01 03 b9 00 cd 01 00 00 00 00 00 00 00 00 00 00 e0 de 01 00
# ReportID: 1 / Confidence: 1 | Tip Switch: 1 | Contact Id:  0 | # | X:    185 | Y:    461 
#             | Confidence: 0 | Tip Switch: 0 | Contact Id:  0 | # | X:      0 | Y:      0 
#             | Confidence: 0 | Tip Switch: 0 | Contact Id:  0 | # | X:      0 | Y:      0 | Scan Time:  57096 | Contact Count:    1 | Button: 0 | # 
E: 000000.323456 20 01 03 b9 00 cd 01 00 00 00 00 00 00 00 00 00 00 08 df 01 00
# ReportID: 1 / Confidence: 1 | Tip Switch: 1 | Contact Id:  0 | # | X:    150 | Y:    368 
#             | Confidence: 0 | Tip Switch: 0 | Contact Id:  0 | # | X:      0 | Y:      0 
#             | Confidence: 0 | Tip Switch: 0 | Contact Id:  0 | # | X:      0 | Y:      0 | Scan Time:  57136 | Contact Count:    1 | Button: 0 | # 
E: 000000.327466 20 01 03 96 00 70 01 00 00 00 00 00 00 00 00 00 00 30 df 01 00
# ReportID: 1 / Confidence: 1 | Tip Switch: 1 | Contact Id:  0 | # | X:    150 | Y:    368 
#             | Confidence: 0 | Tip Switch: 0 | Contact Id:  0 | # | X:      0 | Y:      0 
#             | Confidence: 0 | Tip Switch: 0 | Contact Id:  0 | # | X:      0 | Y:      0 | Scan Time:  57156 | Contact Count:    1 | Button: 0 | # 
E: 000000.331464 20 01 03 96 00 70 01 00 00 00 00 00 00 00 00 00 00 44 df 01 00
# ReportID: 1 / Confidence: 1 | Tip Switch: 1 | Contact Id:  0 | # | X:    123 | Y:    278 
#             | Confidence: 0 | Tip Switch: 0 | Contact Id:  0 | # | X:      0 | Y:      0 
#             | Confidence: 0 | Tip Switch: 0 | Contact Id:  0 | # | X:      0 | Y:      0 | Scan Time:  57196 | Contact Count:    1 | Button: 0 | # 
E: 000000.335451 20 01 03 7b 00 16 01 00 00 00 00 00 00 00 00 00 00 6c df 01 00
# ReportID: 1 / Confidence: 1 | Tip Switch: 1 | Contact Id:  0 | # | X:    123 | Y:    278 
#             | Confidence: 0 | Tip Switch: 0 | Contact Id:  0 | # | X:      0 | Y:      0 
#             | Confidence: 0 | Tip Switch: 0 | Contact Id:  0 | # | X:      0 | Y:      0 | Scan Time:  57236 | Contact Count:    1 | Button: 0 | # 
E: 000000.339473 20 01 03 7b 00 16 01 00 00 00 00 00 00 00 00 00 00 94 df 01 00
# ReportID: 1 / Confidence: 1 | Tip Switch: 1 | Contact Id:  0 | # | X:    119 | Y:    209 
#             | Confidence: 0 | Tip Switch: 0 | Contact Id:  0 | # | X:      0 | Y:      0 
#             | Confidence: 0 | Tip Switch: 0 | Contact Id:  0 | # | X:      0 | Y:      0 | Scan Time:  57256 | Contact Count:    1 | Button: 0 | # 
E: 000000.343531 20 01 03 77 00 d1 00 00 00 00 00 00 00 00 00 00 00 a8 df 01 00
# ReportID: 1 / Confidence: 1 | Tip Switch: 1 | Contact Id:  0 | # | X:    119 | Y:    209 
#             | Confidence: 0 | Tip Switch: 0 | Contact Id:  0 | # | X:      0 | Y:      0 
#             | Confidence: 0 | Tip Switch: 0 | Contact Id:  0 | # | X:      0 | Y:      0 | Scan Time:  57296 | Contact Count:    1 | Button: 0 | # 
E: 000000.347511 20 01 03 77 00 d1 00 00 00 00 00 00 00 00 00 00 00 d0 df 01 00
# ReportID: 1 / Confidence: 1 | Tip Switch: 1 | Contact Id:  0 | # | X:    115 | Y:    162 
#             | Confidence: 0 | Tip Switch: 0 | Contact Id:  0 | # | X:      0 | Y:      0 
#             | Confidence: 0 | Tip Switch: 0 | Contact Id:  0 | # | X:      0 | Y:      0 | Scan Time:  57336 | Contact Count:    1 | Button: 0 | # 
E: 000000.351505 20 01 03 73 00 a2 00 00 00 00 00 00 00 00 00 00 00 f8 df 01 00
# ReportID: 1 / Confidence: 1 | Tip Switch: 1 | Contact Id:  0 | # | X:    115 | Y:    162 
#             | Confidence: 0 | Tip Switch: 0 | Contact Id:  0 | # | X:      0 | Y:      0 
#             | Confidence: 0 | Tip Switch: 0 | Contact Id:  0 | # | X:      0 | Y:      0 | Scan Time:  57356 | Contact Count:    1 | Button: 0 | # 
E: 000000.355495 20 01 03 73 00 a2 00 00 00 00 00 00 00 00 00 00 00 0c e0 01 00
# ReportID: 1 / Confidence: 1 | Tip Switch: 1 | Contact Id:  0 | # | X:    116 | Y:    147 
#             | Confidence: 0 | Tip Switch: 0 | Contact Id:  0 | # | X:      0 | Y:      0 
#             | Confidence: 0 | Tip Switch: 0 | Contact Id:  0 | # | X:      0 | Y:      0 | Scan Time:  57396 | Contact Count:    1 | Button: 0 | # 
E: 000000.359601 20 01 03 74 00 93 00 00 00 00 00 00 00 00 00 00 00 34 e0 01 00
# ReportID: 1 / Confidence: 1 | Tip Switch: 1 | Contact Id:  0 | # | X:    116 | Y:    147 
#             | Confidence: 0 | Tip Switch: 0 | Contact Id:  0 | # | X:      0 | Y:      0 
#             | Confidence: 0 | Tip Switch: 0 | Contact Id:  0 | # | X:      0 | Y:      0 | Scan Time:  57436 | Contact Count:    1 | Button: 0 | # 
E: 000000.363550 20 01 03 74 00 93 00 00 00 00 00 00 00 00 00 00 00 5c e0 01 00
# ReportID: 1 / Confidence: 1 | Tip Switch: 1 | Contact Id:  0 | # | X:    122 | Y:    133 
#             | Confidence: 0 | Tip Switch: 0 | Contact Id:  0 | # | X:      0 | Y:      0 
#             | Confidence: 0 | Tip Switch: 0 | Contact Id:  0 | # | X:      0 | Y:      0 | Scan Time:  57456 | Contact Count:    1 | Button: 0 | # 
E: 000000.367485 20 01 03 7a 00 85 00 00 00 00 00 00 00 00 00 00 00 70 e0 01 00
# ReportID: 1 / Confidence: 1 | Tip Switch: 1 | Contact Id:  0 | # | X:    122 | Y:    133 
#             | Confidence: 0 | Tip Switch: 0 | Contact Id:  0 | # | X:      0 | Y:      0 
#             | Confidence: 0 | Tip Switch: 0 | Contact Id:  0 | # | X:      0 | Y:      0 | Scan Time:  57496 | Contact Count:    1 | Button: 0 | # 
E: 000000.371491 20 01 03 7a 00 85 00 00 00 00 00 00 00 00 00 00 00 98 e0 01 00
# ReportID: 1 / Confidence: 1 | Tip Switch: 1 | Contact Id:  0 | # | X:    130 | Y:    117 
#             | Confidence: 0 | Tip Switch: 0 | Contact Id:  0 | # | X:      0 | Y:      0 
#             | Confidence: 0 | Tip Switch: 0 | Contact Id:  0 | # | X:      0 | Y:      0 | Scan Time:  57536 | Contact Count:    1 | Button: 0 | # 
E: 000000.375508 20 01 03 82 00 75 00 00 00 00 00 00 00 00 00 00 00 c0 e0 01 00
# ReportID: 1 / Confidence: 1 | Tip Switch: 1 | Contact Id:  0 | # | X:    130 | Y:    117 
#             | Confidence: 0 | Tip Switch: 0 | Contact Id:  0 | # | X:      0 | Y:      0 
#             | Confidence: 0 | Tip Switch: 0 | Contact Id:  0 | # | X:      0 | Y:      0 | Scan Time:  57556 | Contact Count:    1 | Button: 0 | # 
E: 000000.379506 20 01 03 82 00 75 00 00 00 00 00 00 00 00 00 00 00 d4 e0 01 00
# ReportID: 1 / Confidence: 1 | Tip Switch: 1 | Contact Id:  0 | # | X:    161 | Y:     99 
#             | Confidence: 0 | Tip Switch: 0 | Contact Id:  0 | # | X:      0 | Y:      0 
#             | Confidence: 0 | Tip Switch: 0 | Contact Id:  0 | # | X:      0 | Y:      0 | Scan Time:  57596 | Contact Count:    1 | Button: 0 | # 
E: 000000.383477 20 01 03 a1 00 63 00 00 00 00 00 00 00 00 00 00 00 fc e0 01 00
# ReportID: 1 / Confidence: 1 | Tip Switch: 1 | Contact Id:  0 | # | X:    161 | Y:     99 
#             | Confidence: 0 | Tip Switch: 0 | Contact Id:  0 | # | X:      0 | Y:      0 
#             | Confidence: 0 | Tip Switch: 0 | Contact Id:  0 | # | X:      0 | Y:      0 | Scan Time:  57636 | Contact Count:    1 | Button: 0 | # 
E: 000000.387510 20 01 03 a1 00 63 00 00 00 00 00 00 00 00 00 00 00 24 e1 01 00
# ReportID: 1 / Confidence: 1 | Tip Switch: 1 | Contact Id:  0 | # | X:    201 | Y:     90 
#             | Confidence: 0 | Tip Switch: 0 | Contact Id:  0 | # | X:      0 | Y:      0 
#             | Confidence: 0 | Tip Switch: 0 | Contact Id:  0 | # | X:      0 | Y:      0 | Scan Time:  57656 | Contact Count:    1 | Button: 0 | # 
E: 000000.391454 20 01 03 c9 00 5a 00 00 00 00 00 00 00 00 00 00 00 38 e1 01 00
# ReportID: 1 / Confidence: 1 | Tip Switch: 1 | Contact Id:  0 | # | X:    201 | Y:     90 
#             | Confidence: 0 | Tip Switch: 0 | Contact Id:  0 | # | X:      0 | Y:      0 
#             | Confidence: 0 | Tip Switch: 0 | Contact Id:  0 | # | X:      0 | Y:      0 | Scan Time:  57696 | Contact Count:    1 | Button: 0 | # 
E: 000000.395472 20 01 03 c9 00 5a 00 00 00 00 00 00 00 00 00 00 00 60 e1 01 00
# ReportID: 1 / Confidence: 1 | Tip Switch: 1 | Contact Id:  0 | # | X:    249 | Y:     90 
#             | Confidence: 0 | Tip Switch: 0 | Contact Id:  0 | # | X:      0 | Y:      0 
#             | Confidence: 0 | Tip Switch: 0 | Contact Id:  0 | # | X:      0 | Y:      0 | Scan Time:  57736 | Contact Count:    1 | Button: 0 | # 
E: 000000.399476 20 01 03 f9 00 5a 00 00 00 00 00 00 00 00 00 00 00 88 e1 01 00
# ReportID: 1 / Confidence: 1 | Tip Switch: 1 | Contact Id:  0 | # | X:    249 | Y:     90 
#             | Confidence: 0 | Tip Switch: 0 | Contact Id:  0 | # | X:      0 | Y:      0 
#             | Confidence: 0 | Tip Switch: 0 | Contact Id:  0 | # | X:      0 | Y:      0 | Scan Time:  57756 | Contact Count:    1 | Button: 0 | # 
E: 000000.403443 20 01 03 f9 00 5a 00 00 00 00 00 00 00 00 00 00 00 9c e1 01 00
# ReportID: 1 / Confidence: 1 | Tip Switch: 1 | Contact Id:  0 | # | X:    287 | Y:     95 
#             | Confidence: 0 | Tip Switch: 0 | Contact Id:  0 | # | X:      0 | Y:      0 
#             | Confidence: 0 | Tip Switch: 0 | Contact Id:  0 | # | X:      0 | Y:      0 | Scan Time:  57796 | Contact Count:    1 | Button: 0 | # 
E: 000000.407530 20 01 03 1f 01 5f 00 00 00 00 00 00 00 00 00 00 00 c4 e1 01 00
# ReportID: 1 / Confidence: 1 | Tip Switch: 1 | Contact Id:  0 | # | X:    287 | Y:     95 
#             | Confidence: 0 | Tip Switch: 0 | Contact Id:  0 | # | X:      0 | Y:      0 
#             | Confidence: 0 | Tip Switch: 0 | Contact Id:  0 | # | X:      0 | Y:      0 | Scan Time:  57816 | Contact Count:    1 | Button: 0 | # 
E: 000000.411526 20 01 03 1f 01 5f 00 00 00 00 00 00 00 00 00 00 00 d8 e1 01 00
# ReportID: 1 / Confidence: 1 | Tip Switch: 1 | Contact Id:  0 | # | X:    312 | Y:    108 
#             | Confidence: 0 | Tip Switch: 0 | Contact Id:  0 | # | X:      0 | Y:      0 
#             | Confidence: 0 | Tip Switch: 0 | Contact Id:  0 | # | X:      0 | Y:      0 | Scan Time:  57856 | Contact Count:    1 | Button: 0 | # 
E: 000000.415474 20 01 03 38 01 6c 00 00 00 00 00 00 00 00 00 00 00 00 e2 01 00
# ReportID: 1 / Confidence: 1 | Tip Switch: 1 | Contact Id:  0 | # | X:    312 | Y:    108 
#             | Confidence: 0 | Tip Switch: 0 | Contact Id:  0 | # | X:      0 | Y:      0 
#             | Confidence: 0 | Tip Switch: 0 | Contact Id:  0 | # | X:      0 | Y:      0 | Scan Time:  57896 | Contact Count:    1 | Button: 0 | # 
E: 000000.419457 20 01 03 38 01 6c 00 00 00 00 00 00 00 00 00 00 00 28 e2 01 00
# ReportID: 1 / Confidence: 1 | Tip Switch: 1 | Contact Id:  0 | # | X:    337 | Y:    127 
#             | Confidence: 0 | Tip Switch: 0 | Contact Id:  0 | # | X:      0 | Y:      0 
#             | Confidence: 0 | Tip Switch: 0 | Contact Id:  0 | # | X:      0 | Y:      0 | Scan Time:  57916 | Contact Count:    1 | Button: 0 | # 
E: 000000.423458 20 01 03 51 01 7f 00 00 00 00 00 00 00 00 00 00 00 3c e2 01 00
# ReportID: 1 / Confidence: 1 | Tip Switch: 1 | Contact Id:  0 | # | X:    337 | Y:    127 
#             | Confidence: 0 | Tip Switch: 0 | Contact Id:  0 | # | X:      0 | Y:      0 
#             | Confidence: 0 | Tip Switch: 0 | Contact Id:  0 | # | X:      0 | Y:      0 | Scan Time:  57956 | Contact Count:    1 | Button: 0 | # 
E: 000000.427540 20 01 03 51 01 7f 00 00 00 00 00 00 00 00 00 00 00 64 e2 01 00
# ReportID: 1 / Confidence: 1 | Tip Switch: 1 | Contact Id:  0 | # | X:    356 | Y:    160 
#             | Confidence: 0 | Tip Switch: 0 | Contact Id:  0 | # | X:      0 | Y:      0 
#             | Confidence: 0 | Tip Switch: 0 | Contact Id:  0 | # | X:      0 | Y:      0 | Scan Time:  57996 | Contact Count:    1 | Button: 0 | # 
E: 000000.431491 20 01 03 64 01 a0 00 00 00 00 00 00 00 00 00 00 00 8c e2 01 00
# ReportID: 1 / Confidence: 1 | Tip Switch: 1 | Contact Id:  0 | # | X:    356 | Y:    160 
#             | Confidence: 0 | Tip Switch: 0 | Contact Id:  0 | # | X:      0 | Y:      0 
#             | Confidence: 0 | Tip Switch: 0 | Contact Id:  0 | # | X:      0 | Y:      0 | Scan Time:  58016 | Contact Count:    1 | Button: 0 | # 
E: 000000.435493 20 01 03 64 01 a0 00 00 00 00 00 00 00 00 00 00 00 a0 e2 01 00
# ReportID: 1 / Confidence: 1 | Tip Switch: 1 | Contact Id:  0 | # | X:    373 | Y:    212 
#             | Confidence: 0 | Tip Switch: 0 | Contact Id:  0 | # | X:      0 | Y:      0 
#             | Confidence: 0 | Tip Switch: 0 | Contact Id:  0 | # | X:      0 | Y:      0 | Scan Time:  58056 | Contact Count:    1 | Button: 0 | # 
E: 000000.439472 20 01 03 75 01 d4 00 00 00 00 00 00 00 00 00 00 00 c8 e2 01 00
# ReportID: 1 / Confidence: 1 | Tip Switch: 1 | Contact Id:  0 | # | X:    373 | Y:    212 
#             | Confidence: 0 | Tip Switch: 0 | Contact Id:  0 | # | X:      0 | Y:      0 
#             | Confidence: 0 | Tip Switch: 0 | Contact Id:  0 | # | X:      0 | Y:      0 | Scan Time:  58076 | Contact Count:    1 | Button: 0 | # 
E: 000000.443540 20 01 03 75 01 d4 00 00 00 00 00 00 00 00 00 00 00 dc e2 01 00
# ReportID: 1 / Confidence: 1 | Tip Switch: 1 | Contact Id:  0 | # | X:    381 | Y:    269 
#             | Confidence: 0 | Tip Switch: 0 | Contact Id:  0 | # | X:      0 | Y:      0 
#             | Confidence: 0 | Tip Switch: 0 | Contact Id:  0 | # | X:      0 | Y:      0 | Scan Time:  58116 | Contact Count:    1 | Button: 0 | # 
E: 000000.447521 20 01 03 7d 01 0d 01 00 00 00 00 00 00 00 00 00 00 04 e3 01 00
# ReportID: 1 / Confidence: 1 | Tip Switch: 1 | Contact Id:  0 | # | X:    381 | Y:    269 
#             | Confidence: 0 | Tip Switch: 0 | Contact Id:  0 | # | X:      0 | Y:      0 
#             | Confidence: 0 | Tip Switch: 0 | Contact Id:  0 | # | X:      0 | Y:      0 | Scan Time:  58156 | Contact Count:    1 | Button: 0 | # 
E: 000000.451449 20 01 03 7d 01 0d 01 00 00 00 00 00 00 00 00 00 00 2c e3 01 00
# ReportID: 1 / Confidence: 1 | Tip Switch: 1 | Contact Id:  0 | # | X:    387 | Y:    319 
#             | Confidence: 0 | Tip Switch: 0 | Contact Id:  0 | # | X:      0 | Y:      0 
#             | Confidence: 0 | Tip Switch: 0 | Contact Id:  0 | # | X:      0 | Y:      0 | Scan Time:  58176 | Contact Count:    1 | Button: 0 | # 
E: 000000.455462 20 01 03 83 01 3f 01 00 00 00 00 00 00 00 00 00 00 40 e3 01 00
# ReportID: 1 / Confidence: 1 | Tip Switch: 1 | Contact Id:  0 | # | X:    387 | Y:    319 
#             | Confidence: 0 | Tip Switch: 0 | Contact Id:  0 | # | X:      0 | Y:      0 
#             | Confidence: 0 | Tip Switch: 0 | Contact Id:  0 | # | X:      0 | Y:      0 | Scan Time:  58216 | Contact Count:    1 | Button: 0 | # 
E: 000000.459472 20 01 03 83 01 3f 01 00 00 00 00 00 00 00 00 00 00 68 e3 01 00
# ReportID: 1 / Confidence: 1 | Tip Switch: 1 | Contact Id:  0 | # | X:    395 | Y:    369 
#             | Confidence: 0 | Tip Switch: 0 | Contact Id:  0 | # | X:      0 | Y:      0 
#             | Confidence: 0 | Tip Switch: 0 | Contact Id:  0 | # | X:      0 | Y:      0 | Scan Time:  58256 | Contact Count:    1 | Button: 0 | # 
E: 000000.463484 20 01 03 8b 01 71 01 00 00 00 00 00 00 00 00 00 00 90 e3 01 00
# ReportID: 1 / Confidence: 1 | Tip Switch: 1 | Contact Id:  0 | # | X:    395 | Y:    369 
#             | Confidence: 0 | Tip Switch: 0 | Contact Id:  0 | # | X:      0 | Y:      0 
#             | Confidence: 0 | Tip Switch: 0 | Contact Id:  0 | # | X:      0 | Y:      0 | Scan Time:  58276 | Contact Count:    1 | Button: 0 | # 
E: 000000.467451 20 01 03 8b 01 71 01 00 00 00 00 00 00 00 00 00 00 a4 e3 01 00
# ReportID: 1 / Confidence: 1 | Tip Switch: 1 | Contact Id:  0 | # | X:    399 | Y:    415 
#             | Confidence: 0 | Tip Switch: 0 | Contact Id:  0 | # | X:      0 | Y:      0 
#             | Confidence: 0 | Tip Switch: 0 | Contact Id:  0 | # | X:      0 | Y:      0 | Scan Time:  58316 | Contact Count:    1 | Button: 0 | # 
E: 000000.471456 20 01 03 8f 01 9f 01 00 00 00 00 00 00 00 00 00 00 cc e3 01 00
# ReportID: 1 / Confidence: 1 | Tip Switch: 1 | Contact Id:  0 | # | X:    399 | Y:    415 
#             | Confidence: 0 | Tip Switch: 0 | Contact Id:  0 | # | X:      0 | Y:      0 
#             | Confidence: 0 | Tip Switch: 0 | Contact Id:  0 | # | X:      0 | Y:      0 | Scan Time:  58336 | Contact Count:    1 | Button: 0 | # 
E: 000000.475465 20 01 03 8f 01 9f 01 00 00 00 00 00 00 00 00 00 00 e0 e3 01 00
# ReportID: 1 / Confidence: 1 | Tip Switch: 1 | Contact Id:  0 | # | X:    401 | Y:    460 
#             | Confidence: 0 | Tip Switch: 0 | Contact Id:  0 | # | X:      0 | Y:      0 
#             | Confidence: 0 | Tip Switch: 0 | Contact Id:  0 | # | X:      0 | Y:      0 | Scan Time:  58376 | Contact Count:    1 | Button: 0 | # 
E: 000000.479493 20 01 03 91 01 cc 01 00 00 00 00 00 00 00 00 00 00 08 e4 01 00
# ReportID: 1 / Confidence: 1 | Tip Switch: 1 | Contact Id:  0 | # | X:    401 | Y:    460 
#             | Confidence: 0 | Tip Switch: 0 | Contact Id:  0 | # | X:      0 | Y:      0 
#             | Confidence: 0 | Tip Switch: 0 | Contact Id:  0 | # | X:      0 | Y:      0 | Scan Time:  58416 | Contact Count:    1 | Button: 0 | # 
E: 000000.483438 20 01 03 91 01 cc 01 00 00 00 00 00 00 00 00 00 00 30 e4 01 00
# ReportID: 1 / Confidence: 1 | Tip Switch: 1 | Contact Id:  0 | # | X:    399 | Y:    512 
#             | Confidence: 0 | Tip Switch: 0 | Contact Id:  0 | # | X:      0 | Y:      0 
#             | Confidence: 0 | Tip Switch: 0 | Contact Id:  0 | # | X:      0 | Y:      0 | Scan Time:  58436 | Contact Count:    1 | Button: 0 | # 
E: 000000.487443 20 01 03 8f 01 00 02 00 00 00 00 00 00 00 00 00 00 44 e4 01 00
# ReportID: 1 / Confidence: 1 | Tip Switch: 1 | Contact Id:  0 | # | X:    399 | Y:    512 
#             | Confidence: 0 | Tip Switch: 0 | Contact Id:  0 | # | X:      0 | Y:      0 
#             | Confidence: 0 | Tip Switch: 0 | Contact Id:  0 | # | X:      0 | Y:      0 | Scan Time:  58476 | Contact Count:    1 | Button: 0 | # 
E: 000000.491457 20 01 03 8f 01 00 02 00 00 00 00 00 00 00 00 00 00 6c e4 01 00
# ReportID: 1 / Confidence: 1 | Tip Switch: 1 | Contact Id:  0 | # | X:    398 | Y:    554 
#             | Confidence: 0 | Tip Switch: 0 | Contact Id:  0 | # | X:      0 | Y:      0 
#             | Confidence: 0 | Tip Switch: 0 | Contact Id:  0 | # | X:      0 | Y:      0 | Scan Time:  58516 | Contact Count:    1 | Button: 0 | # 
E: 000000.495474 20 01 03 8e 01 2a 02 00 00 00 00 00 00 00 00 00 00 94 e4 01 00
# ReportID: 1 / Confidence: 1 | Tip Switch: 1 | Contact Id:  0 | # | X:    398 | Y:    554 
#             | Confidence: 0 | Tip Switch: 0 | Contact Id:  0 | # | X:      0 | Y:      0 
#             | Confidence: 0 | Tip Switch: 0 | Contact Id:  0 | # | X:      0 | Y:      0 | Scan Time:  58536 | Contact Count:    1 | Button: 0 | # 
E: 000000.499434 20 01 03 8e 01 2a 02 00 00 00 00 00 00 00 00 00 00 a8 e4 01 00
# ReportID: 1 / Confidence: 1 | Tip Switch: 1 | Contact Id:  0 | # | X:    397 | Y:    586 
#             | Confidence: 0 | Tip Switch: 0 | Contact Id:  0 | # | X:      0 | Y:      0 
#             | Confidence: 0 | Tip Switch: 0 | Contact Id:  0 | # | X:      0 | Y:      0 | Scan Time:  58576 | Contact Count:    1 | Button: 0 | # 
E: 000000.503495 20 01 03 8d 01 4a 02 00 00 00 00 00 00 00 00 00 00 d0 e4 01 00
# ReportID: 1 / Confidence: 1 | Tip Switch: 1 | Contact Id:  0 | # | X:    397 | Y:    586 
#             | Confidence: 0 | Tip Switch: 0 | Contact Id:  0 | # | X:      0 | Y:      0 
#             | Confidence: 0 | Tip Switch: 0 | Contact Id:  0 | # | X:      0 | Y:      0 | Scan Time:  58596 | Contact Count:    1 | Button: 0 | # 
E: 000000.507497 20 01 03 8d 01 4a 02 00 00 00 00 00 00 00 00 00 00 e4 e4 01 00
# ReportID: 1 / Confidence: 1 | Tip Switch: 1 | Contact Id:  0 | # | X:    391 | Y:    612 
#             | Confidence: 0 | Tip Switch: 0 | Contact Id:  0 | # | X:      0 | Y:      0 
#             | Confidence: 0 | Tip Switch: 0 | Contact Id:  0 | # | X:      0 | Y:      0 | Scan Time:  58636 | Contact Count:    1 | Button: 0 | # 
E: 000000.511535 20 01 03 87 01 64 02 00 00 00 00 00 00 00 00 00 00 0c e5 01 00
# ReportID: 1 / Confidence: 1 | Tip Switch: 1 | Contact Id:  0 | # | X:    391 | Y:    612 
#             | Confidence: 0 | Tip Switch: 0 | Contact Id:  0 | # | X:      0 | Y:      0 
#             | Confidence: 0 | Tip Switch: 0 | Contact Id:  0 | # | X:      0 | Y:      0 | Scan Time:  58676 | Contact Count:    1 | Button: 0 | # 
E: 000000.515461 20 01 03 87 01 64 02 00 00 00 00 00 00 00 00 00 00 34 e5 01 00
# ReportID: 1 / Confidence: 1 | Tip Switch: 1 | Contact Id:  0 | # | X:    383 | Y:    630 
#             | Confidence: 0 | Tip Switch: 0 | Contact Id:  0 | # | X:      0 | Y:      0 
#             | Confidence: 0 | Tip Switch: 0 | Contact Id:  0 | # | X:      0 | Y:      0 | Scan Time:  58696 | Contact Count:    1 | Button: 0 | # 
E: 000000.519444 20 01 03 7f 01 76 02 00 00 00 00 00 00 00 00 00 00 48 e5 01 00
# ReportID: 1 / Confidence: 1 | Tip Switch: 1 | Contact Id:  0 | # | X:    383 | Y:    630 
#             | Confidence: 0 | Tip Switch: 0 | Contact Id:  0 | # | X:      0 | Y:      0 
#             | Confidence: 0 | Tip Switch: 0 | Contact Id:  0 | # | X:      0 | Y:      0 | Scan Time:  58736 | Contact Count:    1 | Button: 0 | # 
E: 000000.523447 20 01 03 7f 01 76 02 00 00 00 00 00 00 00 00 00 00 70 e5 01 00
# ReportID: 1 / Confidence: 1 | Tip Switch: 1 | Contact Id:  0 | # | X:    375 | Y:    643 
#             | Confidence: 0 | Tip Switch: 0 | Contact Id:  0 | # | X:      0 | Y:      0 
#             | Confidence: 0 | Tip Switch: 0 | Contact Id:  0 | # | X:      0 | Y:      0 | Scan Time:  58776 | Contact Count:    1 | Button: 0 | # 
E: 000000.527480 20 01 03 77 01 83 02 00 00 00 00 00 00 00 00 00 00 98 e5 01 00
# ReportID: 1 / Confidence: 1 | Tip Switch: 1 | Contact Id:  0 | # | X:    375 | Y:    643 
#             | Confidence: 0 | Tip Switch: 0 | Contact Id:  0 | # | X:      0 | Y:      0 
#             | Confidence: 0 | Tip Switch: 0 | Contact Id:  0 | # | X:      0 | Y:      0 | Scan Time:  58796 | Contact Count:    1 | Button: 0 | # 
E: 000000.531478 20 01 03 77 01 83 02 00 00 00 00 00 00 00 00 00 00 ac e5 01 00
# ReportID: 1 / Confidence: 1 | Tip Switch: 1 | Contact Id:  0 | # | X:    361 | Y:    652 
#             | Confidence: 0 | Tip Switch: 0 | Contact Id:  0 | # | X:      0 | Y:      0 
#             | Confidence: 0 | Tip Switch: 0 | Contact Id:  0 | # | X:      0 | Y:      0 | Scan Time:  58836 | Contact Count:    1 | Button: 0 | # 
E: 000000.535445 20 01 03 69 01 8c 02 00 00 00 00 00 00 00 00 00 00 d4 e5 01 00
# ReportID: 1 / Confidence: 1 | Tip Switch: 1 | Contact Id:  0 | # | X:    361 | Y:    652 
#             | Confidence: 0 | Tip Switch: 0 | Contact Id:  0 | # | X:      0 | Y:      0 
#             | Confidence: 0 | Tip Switch: 0 | Contact Id:  0 | # | X:      0 | Y:      0 | Scan Time:  58856 | Contact Count:    1 | Button: 0 | # 
E: 000000.539511 20 01 03 69 01 8c 02 00 00 00 00 00 00 00 00 00 00 e8 e5 01 00
# ReportID: 1 / Confidence: 1 | Tip Switch: 1 | Contact Id:  0 | # | X:    317 | Y:    652 
#             | Confidence: 0 | Tip Switch: 0 | Contact Id:  0 | # | X:      0 | Y:      0 
#             | Confidence: 0 | Tip Switch: 0 | Contact Id:  0 | # | X:      0 | Y:      0 | Scan Time:  58896 | Contact Count:    1 | Button: 0 | # 
E: 000000.543523 20 01 03 3d 01 8c 02 00 00 00 00 00 00 00 00 00 00 10 e6 01 00
# ReportID: 1 / Confidence: 1 | Tip Switch: 1 | Contact Id:  0 | # | X:    317 | Y:    652 
#             | Confidence: 0 | Tip Switch: 0 | Contact Id:  0 | # | X:      0 | Y:      0 
#             | Confidence: 0 | Tip Switch: 0 | Contact Id:  0 | # | X:      0 | Y:      0 | Scan Time:  58936 | Contact Count:    1 | Button: 0 | # 
E: 000000.547458 20 01 03 3d 01 8c 02 00 00 00 00 00 00 00 00 00 00 38 e6 01 00
# ReportID: 1 / Confidence: 1 | Tip Switch: 1 | Contact Id:  0 | # | X:    252 | Y:    636 
#             | Confidence: 0 | Tip Switch: 0 | Contact Id:  0 | # | X:      0 | Y:      0 
#             | Confidence: 0 | Tip Switch: 0 | Contact Id:  0 | # | X:      0 | Y:      0 | Scan Time:  58976 | Contact Count:    1 | Button: 0 | # 
E: 000000.551445 20 01 03 fc 00 7c 02 00 00 00 00 00 00 00 00 00 00 60 e6 01 00
# ReportID: 1 / Confidence: 1 | Tip Switch: 1 | Contact Id:  0 | # | X:    252 | Y:    636 
#             | Confidence: 0 | Tip Switch: 0 | Contact Id:  0 | # | X:      0 | Y:      0 
#             | Confidence: 0 | Tip Switch: 0 | Contact Id:  0 | # | X:      0 | Y:      0 | Scan Time:  58996 | Contact Count:    1 | Button: 0 | # 
E: 000000.555441 20 01 03 fc 00 7c 02 00 00 00 00 00 00 00 00 00 00 74 e6 01 00
# ReportID: 1 / Confidence: 1 | Tip Switch: 1 | Contact Id:  0 | # | X:    192 | Y:    595 
#             | Confidence: 0 | Tip Switch: 0 | Contact Id:  0 | # | X:      0 | Y:      0 
#             | Confidence: 0 | Tip Switch: 0 | Contact Id:  0 | # | X:      0 | Y:      0 | Scan Time:  59036 | Contact Count:    1 | Button: 0 | # 
E: 000000.559494 20 01 03 c0 00 53 02 00 00 00 00 00 00 00 00 00 00 9c e6 01 00
# ReportID: 1 / Confidence: 1 | Tip Switch: 1 | Contact Id:  0 | # | X:    192 | Y:    595 
#             | Confidence: 0 | Tip Switch: 0 | Contact Id:  0 | # | X:      0 | Y:      0 
#             | Confidence: 0 | Tip Switch: 0 | Contact Id:  0 | # | X:      0 | Y:      0 | Scan Time:  59056 | Contact Count:    1 | Button: 0 | # 
E: 000000.563469 20 01 03 c0 00 53 02 00 00 00 00 00 00 00 00 00 00 b0 e6 01 00
# ReportID: 1 / Confidence: 1 | Tip Switch: 1 | Contact Id:  0 | # | X:    132 | Y:    541 
#             | Confidence: 0 | Tip Switch: 0 | Contact Id:  0 | # | X:      0 | Y:      0 
#             | Confidence: 0 | Tip Switch: 0 | Contact Id:  0 | # | X:      0 | Y:      0 | Scan Time:  59096 | Contact Count:    1 | Button: 0 | # 
E: 000000.567475 20 01 03 84 00 1d 02 00 00 00 00 00 00 00 00 00 00 d8 e6 01 00
# ReportID: 1 / Confidence: 1 | Tip Switch: 1 | Contact Id:  0 | # | X:    132 | Y:    541 
#             | Confidence: 0 | Tip Switch: 0 | Contact Id:  0 | # | X:      0 | Y:      0 
#             | Confidence: 0 | Tip Switch: 0 | Contact Id:  0 | # | X:      0 | Y:      0 | Scan Time:  59136 | Contact Count:    1 | Button: 0 | # 
E: 000000.571440 20 01 03 84 00 1d 02 00 00 00 00 00 00 00 00 00 00 00 e7 01 00
# ReportID: 1 / Confidence: 1 | Tip Switch: 1 | Contact Id:  0 | # | X:     83 | Y:    463 
#             | Confidence: 0 | Tip Switch: 0 | Contact Id:  0 | # | X:      0 | Y:      0 
#             | Confidence: 0 | Tip Switch: 0 | Contact Id:  0 | # | X:      0 | Y:      0 | Scan Time:  59156 | Contact Count:    1 | Button: 0 | # 
E: 000000.575498 20 01 03 53 00 cf 01 00 00 00 00 00 00 00 00 00 00 14 e7 01 00
# ReportID: 1 / Confidence: 1 | Tip Switch: 1 | Contact Id:  0 | # | X:     83 | Y:    463 
#             | Confidence: 0 | Tip Switch: 0 | Contact Id:  0 | # | X:      0 | Y:      0 
#             | Confidence: 0 | Tip Switch: 0 | Contact Id:  0 | # | X:      0 | Y:      0 | Scan Time:  59196 | Contact Count:    1 | Button: 0 | # 
E: 000000.579500 20 01 03 53 00 cf 01 00 00 00 00 00 00 00 00 00 00 3c e7 01 00
# ReportID: 1 / Confidence: 1 | Tip Switch: 1 | Contact Id:  0 | # | X:     60 | Y:    402 
#             | Confidence: 0 | Tip Switch: 0 | Contact Id:  0 | # | X:      0 | Y:      0 
#             | Confidence: 0 | Tip Switch: 0 | Contact Id:  0 | # | X:      0 | Y:      0 | Scan Time:  59236 | Contact Count:    1 | Button: 0 | # 
E: 000000.583445 20 01 03 3c 00 92 01 00 00 00 00 00 00 00 00 00 00 64 e7 01 00
# ReportID: 1 / Confidence: 1 | Tip Switch: 1 | Contact Id:  0 | # | X:     60 | Y:    402 
#             | Confidence: 0 | Tip Switch: 0 | Contact Id:  0 | # | X:      0 | Y:      0 
#             | Confidence: 0 | Tip Switch: 0 | Contact Id:  0 | # | X:      0 | Y:      0 | Scan Time:  59256 | Contact Count:    1 | Button: 0 | # 
E: 000000.587444 20 01 03 3c 00 92 01 00 00 00 00 00 00 00 00 00 00 78 e7 01 00
# ReportID: 1 / Confidence: 1 | Tip Switch: 1 | Contact Id:  0 | # | X:     52 | Y:    366 
#             | Confidence: 0 | Tip Switch: 0 | Contact Id:  0 | # | X:      0 | Y:      0 
#             | Confidence: 0 | Tip Switch: 0 | Contact Id:  0 | # | X:      0 | Y:      0 | Scan Time:  59296 | Contact Count:    1 | Button: 0 | # 
E: 000000.591457 20 01 03 34 00 6e 01 00 00 00 00 00 00 00 00 00 00 a0 e7 01 00
# ReportID: 1 / Confidence: 1 | Tip Switch: 1 | Contact Id:  0 | # | X:     52 | Y:    366 
#             | Confidence: 0 | Tip Switch: 0 | Contact Id:  0 | # | X:      0 | Y:      0 
#             | Confidence: 0 | Tip Switch: 0 | Contact Id:  0 | # | X:      0 | Y:      0 | Scan Time:  59336 | Contact Count:    1 | Button: 0 | # 
E: 000000.595479 20 01 03 34 00 6e 01 00 00 00 00 00 00 00 00 00 00 c8 e7 01 00
# ReportID: 1 / Confidence: 1 | Tip Switch: 1 | Contact Id:  0 | # | X:     47 | Y:    313 
#             | Confidence: 0 | Tip Switch: 0 | Contact Id:  0 | # | X:      0 | Y:      0 
#             | Confidence: 0 | Tip Switch: 0 | Contact Id:  0 | # | X:      0 | Y:      0 | Scan Time:  59376 | Contact Count:    1 | Button: 0 | # 
E: 000000.599466 20 01 03 2f 00 39 01 00 00 00 00 00 00 00 00 00 00 f0 e7 01 00
# ReportID: 1 / Confidence: 1 | Tip Switch: 1 | Contact Id:  0 | # | X:     47 | Y:    313 
#             | Confidence: 0 | Tip Switch: 0 | Contact Id:  0 | # | X:      0 | Y:      0 
#             | Confidence: 0 | Tip Switch: 0 | Contact Id:  0 | # | X:      0 | Y:      0 | Scan Time:  59396 | Contact Count:    1 | Button: 0 | # 
E: 000000.603461 20 01 03 2f 00 39 01 00 00 00 00 00 00 00 00 00 00 04 e8 01 00
# ReportID: 1 / Confidence: 1 | Tip Switch: 1 | Contact Id:  0 | # | X:     48 | Y:    268 
#             | Confidence: 0 | Tip Switch: 0 | Contact Id:  0 | # | X:      0 | Y:      0 
#             | Confidence: 0 | Tip Switch: 0 | Contact Id:  0 | # | X:      0 | Y:      0 | Scan Time:  59436 | Contact Count:    1 | Button: 0 | # 
E: 000000.607444 20 01 03 30 00 0c 01 00 00 00 00 00 00 00 00 00 00 2c e8 01 00
# ReportID: 1 / Confidence: 1 | Tip Switch: 1 | Contact Id:  0 | # | X:     48 | Y:    268 
#             | Confidence: 0 | Tip Switch: 0 | Contact Id:  0 | # | X:      0 | Y:      0 
#             | Confidence: 0 | Tip Switch: 0 | Contact Id:  0 | # | X:      0 | Y:      0 | Scan Time:  59456 | Contact Count:    1 | Button: 0 | # 
E: 000000.611475 20 01 03 30 00 0c 01 00 00 00 00 00 00 00 00 00 00 40 e8 01 00
# ReportID: 1 / Confidence: 1 | Tip Switch: 1 | Contact Id:  0 | # | X:     51 | Y:    247 
#             | Confidence: 0 | Tip Switch: 0 | Contact Id:  0 | # | X:      0 | Y:      0 
#             | Confidence: 0 | Tip Switch: 0 | Contact Id:  0 | # | X:      0 | Y:      0 | Scan Time:  59496 | Contact Count:    1 | Button: 0 | # 
E: 000000.615434 20 01 03 33 00 f7 00 00 00 00 00 00 00 00 00 00 00 68 e8 01 00
# ReportID: 1 / Confidence: 1 | Tip Switch: 1 | Contact Id:  0 | # | X:     51 | Y:    247 
#             | Confidence: 0 | Tip Switch: 0 | Contact Id:  0 | # | X:      0 | Y:      0 
#             | Confidence: 0 | Tip Switch: 0 | Contact Id:  0 | # | X:      0 | Y:      0 | Scan Time:  59536 | Contact Count:    1 | Button: 0 | # 
E: 000000.619484 20 01 03 33 00 f7 00 00 00 00 00 00 00 00 00 00 00 90 e8 01 00
# ReportID: 1 / Confidence: 1 | Tip Switch: 1 | Contact Id:  0 | # | X:     58 | Y:    235 
#             | Confidence: 0 | Tip Switch: 0 | Contact Id:  0 | # | X:      0 | Y:      0 
#             | Confidence: 0 | Tip Switch: 0 | Contact Id:  0 | # | X:      0 | Y:      0 | Scan Time:  59556 | Contact Count:    1 | Button: 0 | # 
E: 000000.623443 20 01 03 3a 00 eb 00 00 00 00 00 00 00 00 00 00 00 a4 e8 01 00
# ReportID: 1 / Confidence: 1 | Tip Switch: 1 | Contact Id:  0 | # | X:     58 | Y:    235 
#             | Confidence: 0 | Tip Switch: 0 | Contact Id:  0 | # | X:      0 | Y:      0 
#             | Confidence: 0 | Tip Switch: 0 | Contact Id:  0 | # | X:      0 | Y:      0 | Scan Time:  59596 | Contact Count:    1 | Button: 0 | # 
E: 000000.627483 20 01 03 3a 00 eb 00 00 00 00 00 00 00 00 00 00 00 cc e8 01 00
# ReportID: 1 / Confidence: 1 | Tip Switch: 1 | Contact Id:  0 | # | X:     67 | Y:    221 
#             | Confidence: 0 | Tip Switch: 0 | Contact Id:  0 | # | X:      0 | Y:      0 
#             | Confidence: 0 | Tip Switch: 0 | Contact Id:  0 | # | X:      0 | Y:      0 | Scan Time:  59636 | Contact Count:    1 | Button: 0 | # 
E: 000000.631468 20 01 03 43 00 dd 00 00 00 00 00 00 00 00 00 00 00 f4 e8 01 00
# ReportID: 1 / Confidence: 1 | Tip Switch: 1 | Contact Id:  0 | # | X:     67 | Y:    221 
#             | Confidence: 0 | Tip Switch: 0 | Contact Id:  0 | # | X:      0 | Y:      0 
#             | Confidence: 0 | Tip Switch: 0 | Contact Id:  0 | # | X:      0 | Y:      0 | Scan Time:  59656 | Contact Count:    1 | Button: 0 | # 
E: 000000.635429 20 01 03 43 00 dd 00 00 00 00 00 00 00 00 00 00 00 08 e9 01 00
# ReportID: 1 / Confidence: 1 | Tip Switch: 1 | Contact Id:  0 | # | X:     90 | Y:    202 
#             | Confidence: 0 | Tip Switch: 0 | Contact Id:  0 | # | X:      0 | Y:      0 
#             | Confidence: 0 | Tip Switch: 0 | Contact Id:  0 | # | X:      0 | Y:      0 | Scan Time:  59696 | Contact Count:    1 | Button: 0 | # 
E: 000000.639484 20 01 03 5a 00 ca 00 00 00 00 00 00 00 00 00 00 00 30 e9 01 00
# ReportID: 1 / Confidence: 1 | Tip Switch: 1 | Contact Id:  0 | # | X:     90 | Y:    202 
#             | Confidence: 0 | Tip Switch: 0 | Contact Id:  0 | # | X:      0 | Y:      0 
#             | Confidence: 0 | Tip Switch: 0 | Contact Id:  0 | # | X:      0 | Y:      0 | Scan Time:  59736 | Contact Count:    1 | Button: 0 | # 
E: 000000.643502 20 01 03 5a 00 ca 00 00 00 00 00 00 00 00 00 00 00 58 e9 01 00
# ReportID: 1 / Confidence: 1 | Tip Switch: 1 | Contact Id:  0 | # | X:    135 | Y:    182 
#             | Confidence: 0 | Tip Switch: 0 | Contact Id:  0 | # | X:      0 | Y:      0 
#             | Confidence: 0 | Tip Switch: 0 | Contact Id:  0 | # | X:      0 | Y:      0 | Scan Time:  59776 | Contact Count:    1 | Button: 0 | # 
E: 000000.647515 20 01 03 87 00 b6 00 00 00 00 00 00 00 00 00 00 00 80 e9 01 00
# ReportID: 1 / Confidence: 1 | Tip Switch: 1 | Contact Id:  0 | # | X:    135 | Y:    182 
#             | Confidence: 0 | Tip Switch: 0 | Contact Id:  0 | # | X:      0 | Y:      0 
#             | Confidence: 0 | Tip Switch: 0 | Contact Id:  0 | # | X:      0 | Y:      0 | Scan Time:  59796 | Contact Count:    1 | Button: 0 | # 
E: 000000.651458 20 01 03 87 00 b6 00 00 00 00 00 00 00 00 00 00 00 94 e9 01 00
# ReportID: 1 / Confidence: 1 | Tip Switch: 1 | Contact Id:  0 | # | X:    231 | Y:    168 
#             | Confidence: 0 | Tip Switch: 0 | Contact Id:  0 | # | X:      0 | Y:      0 
#             | Confidence: 0 | Tip Switch: 0 | Contact Id:  0 | # | X:      0 | Y:      0 | Scan Time:  59836 | Contact Count:    1 | Button: 0 | # 
E: 000000.655449 20 01 03 e7 00 a8 00 00 00 00 00 00 00 00 00 00 00 bc e9 01 00
# ReportID: 1 / Confidence: 1 | Tip Switch: 1 | Contact Id:  0 | # | X:    231 | Y:    168 
#             | Confidence: 0 | Tip Switch: 0 | Contact Id:  0 | # | X:      0 | Y:      0 
#             | Confidence: 0 | Tip Switch: 0 | Contact Id:  0 | # | X:      0 | Y:      0 | Scan Time:  59856 | Contact Count:    1 | Button: 0 | # 
E: 000000.659462 20 01 03 e7 00 a8 00 00 00 00 00 00 00 00 00 00 00 d0 e9 01 00
# ReportID: 1 / Confidence: 1 | Tip Switch: 1 | Contact Id:  0 | # | X:    352 | Y:    163 
#             | Confidence: 0 | Tip Switch: 0 | Contact Id:  0 | # | X:      0 | Y:      0 
#             | Confidence: 0 | Tip Switch: 0 | Contact Id:  0 | # | X:      0 | Y:      0 | Scan Time:  59896 | Contact Count:    1 | Button: 0 | # 
E: 000000.663478 20 01 03 60 01 a3 00 00 00 00 00 00 00 00 00 00 00 f8 e9 01 00
# ReportID: 1 / Confidence: 1 | Tip Switch: 1 | Contact Id:  0 | # | X:    352 | Y:    163 
#             | Confidence: 0 | Tip Switch: 0 | Contact Id:  0 | # | X:      0 | Y:      0 
#             | Confidence: 0 | Tip Switch: 0 | Contact Id:  0 | # | X:      0 | Y:      0 | Scan Time:  59936 | Contact Count:    1 | Button: 0 | # 
E: 000000.667489 20 01 03 60 01 a3 00 00 00 00 00 00 00 00 00 00 00 20 ea 01 00
# ReportID: 1 / Confidence: 1 | Tip Switch: 1 | Contact Id:  0 | # | X:    464 | Y:    168 
#             | Confidence: 0 | Tip Switch: 0 | Contact Id:  0 | # | X:      0 | Y:      0 
#             | Confidence: 0 | Tip Switch: 0 | Contact Id:  0 | # | X:      0 | Y:      0 | Scan Time:  59956 | Contact Count:    1 | Button: 0 | # 
E: 000000.671463 20 01 03 d0 01 a8 00 00 00 00 00 00 00 00 00 00 00 34 ea 01 00
# ReportID: 1 / Confidence: 1 | Tip Switch: 1 | Contact Id:  0 | # | X:    464 | Y:    168 
#             | Confidence: 0 | Tip Switch: 0 | Contact Id:  0 | # | X:      0 | Y:      0 
#             | Confidence: 0 | Tip Switch: 0 | Contact Id:  0 | # | X:      0 | Y:      0 | Scan Time:  59996 | Contact Count:    1 | Button: 0 | # 
E: 000000.675502 20 01 03 d0 01 a8 00 00 00 00 00 00 00 00 00 00 00 5c ea 01 00
# ReportID: 1 / Confidence: 1 | Tip Switch: 1 | Contact Id:  0 | # | X:    567 | Y:    183 
#             | Confidence: 0 | Tip Switch: 0 | Contact Id:  0 | # | X:      0 | Y:      0 
#             | Confidence: 0 | Tip Switch: 0 | Contact Id:  0 | # | X:      0 | Y:      0 | Scan Time:  60016 | Contact Count:    1 | Button: 0 | # 
E: 000000.679493 20 01 03 37 02 b7 00 00 00 00 00 00 00 00 00 00 00 70 ea 01 00
# ReportID: 1 / Confidence: 1 | Tip Switch: 1 | Contact Id:  0 | # | X:    567 | Y:    183 
#             | Confidence: 0 | Tip Switch: 0 | Contact Id:  0 | # | X:      0 | Y:      0 
#             | Confidence: 0 | Tip Switch: 0 | Contact Id:  0 | # | X:      0 | Y:      0 | Scan Time:  60056 | Contact Count:    1 | Button: 0 | # 
E: 000000.683464 20 01 03 37 02 b7 00 00 00 00 00 00 00 00 00 00 00 98 ea 01 00
# ReportID: 1 / Confidence: 1 | Tip Switch: 1 | Contact Id:  0 | # | X:    626 | Y:    205 
#             | Confidence: 0 | Tip Switch: 0 | Contact Id:  0 | # | X:      0 | Y:      0 
#             | Confidence: 0 | Tip Switch: 0 | Contact Id:  0 | # | X:      0 | Y:      0 | Scan Time:  60096 | Contact Count:    1 | Button: 0 | # 
E: 000000.687497 20 01 03 72 02 cd 00 00 00 00 00 00 00 00 00 00 00 c0 ea 01 00
# ReportID: 1 / Confidence: 1 | Tip Switch: 1 | Contact Id:  0 | # | X:    626 | Y:    205 
#             | Confidence: 0 | Tip Switch: 0 | Contact Id:  0 | # | X:      0 | Y:      0 
#             | Confidence: 0 | Tip Switch: 0 | Contact Id:  0 | # | X:      0 | Y:      0 | Scan Time:  60116 | Contact Count:    1 | Button: 0 | # 
E: 000000.691460 20 01 03 72 02 cd 00 00 00 00 00 00 00 00 00 00 00 d4 ea 01 00
# ReportID: 1 / Confidence: 1 | Tip Switch: 1 | Contact Id:  0 | # | X:    661 | Y:    234 
#             | Confidence: 0 | Tip Switch: 0 | Contact Id:  0 | # | X:      0 | Y:      0 
#             | Confidence: 0 | Tip Switch: 0 | Contact Id:  0 | # | X:      0 | Y:      0 | Scan Time:  60156 | Contact Count:    1 | Button: 0 | # 
E: 000000.695470 20 01 03 95 02 ea 00 00 00 00 00 00 00 00 00 00 00 fc ea 01 00
# ReportID: 1 / Confidence: 1 | Tip Switch: 1 | Contact Id:  0 | # | X:    661 | Y:    234 
#             | Confidence: 0 | Tip Switch: 0 | Contact Id:  0 | # | X:      0 | Y:      0 
#             | Confidence: 0 | Tip Switch: 0 | Contact Id:  0 | # | X:      0 | Y:      0 | Scan Time:  60196 | Contact Count:    1 | Button: 0 | # 
E: 000000.699469 20 01 03 95 02 ea 00 00 00 00 00 00 00 00 00 00 00 24 eb 01 00
# ReportID: 1 / Confidence: 1 | Tip Switch: 1 | Contact Id:  0 | # | X:    682 | Y:    299 
#             | Confidence: 0 | Tip Switch: 0 | Contact Id:  0 | # | X:      0 | Y:      0 
#             | Confidence: 0 | Tip Switch: 0 | Contact Id:  0 | # | X:      0 | Y:      0 | Scan Time:  60216 | Contact Count:    1 | Button: 0 | # 
E: 000000.703431 20 01 03 aa 02 2b 01 00 00 00 00 00 00 00 00 00 00 38 eb 01 00
# ReportID: 1 / Confidence: 1 | Tip Switch: 1 | Contact Id:  0 | # | X:    682 | Y:    299 
#             | Confidence: 0 | Tip Switch: 0 | Contact Id:  0 | # | X:      0 | Y:      0 
#             | Confidence: 0 | Tip Switch: 0 | Contact Id:  0 | # | X:      0 | Y:      0 | Scan Time:  60256 | Contact Count:    1 | Button: 0 | # 
E: 000000.707448 20 01 03 aa 02 2b 01 00 00 00 00 00 00 00 00 00 00 60 eb 01 00
# ReportID: 1 / Confidence: 1 | Tip Switch: 1 | Contact Id:  0 | # | X:    689 | Y:    369 
#             | Confidence: 0 | Tip Switch: 0 | Contact Id:  0 | # | X:      0 | Y:      0 
#             | Confidence: 0 | Tip Switch: 0 | Contact Id:  0 | # | X:      0 | Y:      0 | Scan Time:  60276 | Contact Count:    1 | Button: 0 | # 
E: 000000.711457 20 01 03 b1 02 71 01 00 00 00 00 00 00 00 00 00 00 74 eb 01 00
# ReportID: 1 / Confidence: 1 | Tip Switch: 1 | Contact Id:  0 | # | X:    689 | Y:    369 
#             | Confidence: 0 | Tip Switch: 0 | Contact Id:  0 | # | X:      0 | Y:      0 
#             | Confidence: 0 | Tip Switch: 0 | Contact Id:  0 | # | X:      0 | Y:      0 | Scan Time:  60316 | Contact Count:    1 | Button: 0 | # 
E: 000000.715452 20 01 03 b1 02 71 01 00 00 00 00 00 00 00 00 00 00 9c eb 01 00
# ReportID: 1 / Confidence: 1 | Tip Switch: 1 | Contact Id:  0 | # | X:    683 | Y:    422 
#             | Confidence: 0 | Tip Switch: 0 | Contact Id:  0 | # | X:      0 | Y:      0 
#             | Confidence: 0 | Tip Switch: 0 | Contact Id:  0 | # | X:      0 | Y:      0 | Scan Time:  60356 | Contact Count:    1 | Button: 0 | # 
E: 000000.719431 20 01 03 ab 02 a6 01 00 00 00 00 00 00 00 00 00 00 c4 eb 01 00
# ReportID: 1 / Confidence: 1 | Tip Switch: 1 | Contact Id:  0 | # | X:    683 | Y:    422 
#             | Confidence: 0 | Tip Switch: 0 | Contact Id:  0 | # | X:      0 | Y:      0 
#             | Confidence: 0 | Tip Switch: 0 | Contact Id:  0 | # | X:      0 | Y:      0 | Scan Time:  60376 | Contact Count:    1 | Button: 0 | # 
E: 000000.723438 20 01 03 ab 02 a6 01 00 00 00 00 00 00 00 00 00 00 d8 eb 01 00
# ReportID: 1 / Confidence: 1 | Tip Switch: 1 | Contact Id:  0 | # | X:    673 | Y:    495 
#             | Confidence: 0 | Tip Switch: 0 | Contact Id:  0 | # | X:      0 | Y:      0 
#             | Confidence: 0 | Tip Switch: 0 | Contact Id:  0 | # | X:      0 | Y:      0 | Scan Time:  60416 | Contact Count:    1 | Button: 0 | # 
E: 000000.727468 20 01 03 a1 02 ef 01 00 00 00 00 00 00 00 00 00 00 00 ec 01 00
# ReportID: 1 / Confidence: 1 | Tip Switch: 1 | Contact Id:  0 | # | X:    673 | Y:    495 
#             | Confidence: 0 | Tip Switch: 0 | Contact Id:  0 | # | X:      0 | Y:      0 
#             | Confidence: 0 | Tip Switch: 0 | Contact Id:  0 | # | X:      0 | Y:      0 | Scan Time:  60436 | Contact Count:    1 | Button: 0 | # 
E: 000000.731480 20 01 03 a1 02 ef 01 00 00 00 00 00 00 00 00 00 00 14 ec 01 00
# ReportID: 1 / Confidence: 1 | Tip Switch: 1 | Contact Id:  0 | # | X:    667 | Y:    558 
#             | Confidence: 0 | Tip Switch: 0 | Contact Id:  0 | # | X:      0 | Y:      0 
#             | Confidence: 0 | Tip Switch: 0 | Contact Id:  0 | # | X:      0 | Y:      0 | Scan Time:  60476 | Contact Count:    1 | Button: 0 | # 
E: 000000.735449 20 01 03 9b 02 2e 02 00 00 00 00 00 00 00 00 00 00 3c ec 01 00
# ReportID: 1 / Confidence: 1 | Tip Switch: 1 | Contact Id:  0 | # | X:    667 | Y:    558 
#             | Confidence: 0 | Tip Switch: 0 | Contact Id:  0 | # | X:      0 | Y:      0 
#             | Confidence: 0 | Tip Switch: 0 | Contact Id:  0 | # | X:      0 | Y:      0 | Scan Time:  60516 | Contact Count:    1 | Button: 0 | # 
E: 000000.739443 20 01 03 9b 02 2e 02 00 00 00 00 00 00 00 00 00 00 64 ec 01 00
# ReportID: 1 / Confidence: 1 | Tip Switch: 1 | Contact Id:  0 | # | X:    661 | Y:    600 
#             | Confidence: 0 | Tip Switch: 0 | Contact Id:  0 | # | X:      0 | Y:      0 
#             | Confidence: 0 | Tip Switch: 0 | Contact Id:  0 | # | X:      0 | Y:      0 | Scan Time:  60536 | Contact Count:    1 | Button: 0 | # 
E: 000000.743482 20 01 03 95 02 58 02 00 00 00 00 00 00 00 00 00 00 78 ec 01 00
# ReportID: 1 / Confidence: 1 | Tip Switch: 1 | Contact Id:  0 | # | X:    661 | Y:    600 
#             | Confidence: 0 | Tip Switch: 0 | Contact Id:  0 | # | X:      0 | Y:      0 
#             | Confidence: 0 | Tip Switch: 0 | Contact Id:  0 | # | X:      0 | Y:      0 | Scan Time:  60576 | Contact Count:    1 | Button: 0 | # 
E: 000000.747493 20 01 03 95 02 58 02 00 00 00 00 00 00 00 00 00 00 a0 ec 01 00
# ReportID: 1 / Confidence: 1 | Tip Switch: 1 | Contact Id:  0 | # | X:    649 | Y:    639 
#             | Confidence: 0 | Tip Switch: 0 | Contact Id:  0 | # | X:      0 | Y:      0 
#             | Confidence: 0 | Tip Switch: 0 | Contact Id:  0 | # | X:      0 | Y:      0 | Scan Time:  60616 | Contact Count:    1 | Button: 0 | # 
E: 000000.751457 20 01 03 89 02 7f 02 00 00 00 00 00 00 00 00 00 00 c8 ec 01 00
# ReportID: 1 / Confidence: 1 | Tip Switch: 1 | Contact Id:  0 | # | X:    649 | Y:    639 
#             | Confidence: 0 | Tip Switch: 0 | Contact Id:  0 | # | X:      0 | Y:      0 
#             | Confidence: 0 | Tip Switch: 0 | Contact Id:  0 | # | X:      0 | Y:      0 | Scan Time:  60636 | Contact Count:    1 | Button: 0 | # 
E: 000000.755444 20 01 03 89 02 7f 02 00 00 00 00 00 00 00 00 00 00 dc ec 01 00
# ReportID: 1 / Confidence: 1 | Tip Switch: 1 | Contact Id:  0 | # | X:    637 | Y:    671 
#             | Confidence: 0 | Tip Switch: 0 | Contact Id:  0 | # | X:      0 | Y:      0 
#             | Confidence: 0 | Tip Switch: 0 | Contact Id:  0 | # | X:      0 | Y:      0 | Scan Time:  60676 | Contact Count:    1 | Button: 0 | # 
E: 000000.759496 20 01 03 7d 02 9f 02 00 00 00 00 00 00 00 00 00 00 04 ed 01 00
# ReportID: 1 / Confidence: 1 | Tip Switch: 1 | Contact Id:  0 | # | X:    637 | Y:    671 
#             | Confidence: 0 | Tip Switch: 0 | Contact Id:  0 | # | X:      0 | Y:      0 
#             | Confidence: 0 | Tip Switch: 0 | Contact Id:  0 | # | X:      0 | Y:      0 | Scan Time:  60696 | Contact Count:    1 | Button: 0 | # 
E: 000000.763487 20 01 03 7d 02 9f 02 00 00 00 00 00 00 00 00 00 00 18 ed 01 00
# ReportID: 1 / Confidence: 1 | Tip Switch: 1 | Contact Id:  0 | # | X:    626 | Y:    698 
#             | Confidence: 0 | Tip Switch: 0 | Contact Id:  0 | # | X:      0 | Y:      0 
#             | Confidence: 0 | Tip Switch: 0 | Contact Id:  0 | # | X:      0 | Y:      0 | Scan Time:  60736 | Contact Count:    1 | Button: 0 | # 
E: 000000.767465 20 01 03 72 02 ba 02 00 00 00 00 00 00 00 00 00 00 40 ed 01 00
# ReportID: 1 / Confidence: 1 | Tip Switch: 1 | Contact Id:  0 | # | X:    626 | Y:    698 
#             | Confidence: 0 | Tip Switch: 0 | Contact Id:  0 | # | X:      0 | Y:      0 
#             | Confidence: 0 | Tip Switch: 0 | Contact Id:  0 | # | X:      0 | Y:      0 | Scan Time:  60776 | Contact Count:    1 | Button: 0 | # 
E: 000000.771484 20 01 03 72 02 ba 02 00 00 00 00 00 00 00 00 00 00 68 ed 01 00
# ReportID: 1 / Confidence: 1 | Tip Switch: 1 | Contact Id:  0 | # | X:    617 | Y:    718 
#             | Confidence: 0 | Tip Switch: 0 | Contact Id:  0 | # | X:      0 | Y:      0 
#             | Confidence: 0 | Tip Switch: 0 | Contact Id:  0 | # | X:      0 | Y:      0 | Scan Time:  60796 | Contact Count:    1 | Button: 0 | # 
E: 000000.775455 20 01 03 69 02 ce 02 00 00 00 00 00 00 00 00 00 00 7c ed 01 00
# ReportID: 1 / Confidence: 1 | Tip Switch: 1 | Contact Id:  0 | # | X:    617 | Y:    718 
#             | Confidence: 0 | Tip Switch: 0 | Contact Id:  0 | # | X:      0 | Y:      0 
#             | Confidence: 0 | Tip Switch: 0 | Contact Id:  0 | # | X:      0 | Y:      0 | Scan Time:  60836 | Contact Count:    1 | Button: 0 | # 
E: 000000.779489 20 01 03 69 02 ce 02 00 00 00 00 00 00 00 00 00 00 a4 ed 01 00
# ReportID: 1 / Confidence: 1 | Tip Switch: 1 | Contact Id:  0 | # | X:    607 | Y:    731 
#             | Confidence: 0 | Tip Switch: 0 | Contact Id:  0 | # | X:      0 | Y:      0 
#             | Confidence: 0 | Tip Switch: 0 | Contact Id:  0 | # | X:      0 | Y:      0 | Scan Time:  60876 | Contact Count:    1 | Button: 0 | # 
E: 000000.783462 20 01 03 5f 02 db 02 00 00 00 00 00 00 00 00 00 00 cc ed 01 00
# ReportID: 1 / Confidence: 1 | Tip Switch: 1 | Contact Id:  0 | # | X:    607 | Y:    731 
#             | Confidence: 0 | Tip Switch: 0 | Contact Id:  0 | # | X:      0 | Y:      0 
#             | Confidence: 0 | Tip Switch: 0 | Contact Id:  0 | # | X:      0 | Y:      0 | Scan Time:  60896 | Contact Count:    1 | Button: 0 | # 
E: 000000.787460 20 01 03 5f 02 db 02 00 00 00 00 00 00 00 00 00 00 e0 ed 01 00
# ReportID: 1 / Confidence: 1 | Tip Switch: 1 | Contact Id:  0 | # | X:    592 | Y:    741 
#             | Confidence: 0 | Tip Switch: 0 | Contact Id:  0 | # | X:      0 | Y:      0 
#             | Confidence: 0 | Tip Switch: 0 | Contact Id:  0 | # | X:      0 | Y:      0 | Scan Time:  60936 | Contact Count:    1 | Button: 0 | # 
E: 000000.791480 20 01 03 50 02 e5 02 00 00 00 00 00 00 00 00 00 00 08 ee 01 00
# ReportID: 1 / Confidence: 1 | Tip Switch: 1 | Contact Id:  0 | # | X:    592 | Y:    741 
#             | Confidence: 0 | Tip Switch: 0 | Contact Id:  0 | # | X:      0 | Y:      0 
#             | Confidence: 0 | Tip Switch: 0 | Contact Id:  0 | # | X:      0 | Y:      0 | Scan Time:  60956 | Contact Count:    1 | Button: 0 | # 
E: 000000.795477 20 01 03 50 02 e5 02 00 00 00 00 00 00 00 00 00 00 1c ee 01 00
# ReportID: 1 / Confidence: 1 | Tip Switch: 1 | Contact Id:  0 | # | X:    578 | Y:    745 
#             | Confidence: 0 | Tip Switch: 0 | Contact Id:  0 | # | X:      0 | Y:      0 
#             | Confidence: 0 | Tip Switch: 0 | Contact Id:  0 | # | X:      0 | Y:      0 | Scan Time:  60996 | Contact Count:    1 | Button: 0 | # 
E: 000000.799458 20 01 03 42 02 e9 02 00 00 00 00 00 00 00 00 00 00 44 ee 01 00
# ReportID: 1 / Confidence: 1 | Tip Switch: 1 | Contact Id:  0 | # | X:    578 | Y:    745 
#             | Confidence: 0 | Tip Switch: 0 | Contact Id:  0 | # | X:      0 | Y:      0 
#             | Confidence: 0 | Tip Switch: 0 | Contact Id:  0 | # | X:      0 | Y:      0 | Scan Time:  61036 | Contact Count:    1 | Button: 0 | # 
E: 000000.803443 20 01 03 42 02 e9 02 00 00 00 00 00 00 00 00 00 00 6c ee 01 00
# ReportID: 1 / Confidence: 1 | Tip Switch: 1 | Contact Id:  0 | # | X:    511 | Y:    708 
#             | Confidence: 0 | Tip Switch: 0 | Contact Id:  0 | # | X:      0 | Y:      0 
#             | Confidence: 0 | Tip Switch: 0 | Contact Id:  0 | # | X:      0 | Y:      0 | Scan Time:  61056 | Contact Count:    1 | Button: 0 | # 
E: 000000.807464 20 01 03 ff 01 c4 02 00 00 00 00 00 00 00 00 00 00 80 ee 01 00
# ReportID: 1 / Confidence: 1 | Tip Switch: 1 | Contact Id:  0 | # | X:    511 | Y:    708 
#             | Confidence: 0 | Tip Switch: 0 | Contact Id:  0 | # | X:      0 | Y:      0 
#             | Confidence: 0 | Tip Switch: 0 | Contact Id:  0 | # | X:      0 | Y:      0 | Scan Time:  61096 | Contact Count:    1 | Button: 0 | # 
E: 000000.811494 20 01 03 ff 01 c4 02 00 00 00 00 00 00 00 00 00 00 a8 ee 01 00
# ReportID: 1 / Confidence: 1 | Tip Switch: 1 | Contact Id:  0 | # | X:    418 | Y:    645 
#             | Confidence: 0 | Tip Switch: 0 | Contact Id:  0 | # | X:      0 | Y:      0 
#             | Confidence: 0 | Tip Switch: 0 | Contact Id:  0 | # | X:      0 | Y:      0 | Scan Time:  61136 | Contact Count:    1 | Button: 0 | # 
E: 000000.815456 20 01 03 a2 01 85 02 00 00 00 00 00 00 00 00 00 00 d0 ee 01 00
# ReportID: 1 / Confidence: 1 | Tip Switch: 1 | Contact Id:  0 | # | X:    418 | Y:    645 
#             | Confidence: 0 | Tip Switch: 0 | Contact Id:  0 | # | X:      0 | Y:      0 
#             | Confidence: 0 | Tip Switch: 0 | Contact Id:  0 | # | X:      0 | Y:      0 | Scan Time:  61156 | Contact Count:    1 | Button: 0 | # 
E: 000000.819489 20 01 03 a2 01 85 02 00 00 00 00 00 00 00 00 00 00 e4 ee 01 00
# ReportID: 1 / Confidence: 1 | Tip Switch: 1 | Contact Id:  0 | # | X:    341 | Y:    569 
#             | Confidence: 0 | Tip Switch: 0 | Contact Id:  0 | # | X:      0 | Y:      0 
#             | Confidence: 0 | Tip Switch: 0 | Contact Id:  0 | # | X:      0 | Y:      0 | Scan Time:  61196 | Contact Count:    1 | Button: 0 | # 
E: 000000.823466 20 01 03 55 01 39 02 00 00 00 00 00 00 00 00 00 00 0c ef 01 00
# ReportID: 1 / Confidence: 1 | Tip Switch: 1 | Contact Id:  0 | # | X:    341 | Y:    569 
#             | Confidence: 0 | Tip Switch: 0 | Contact Id:  0 | # | X:      0 | Y:      0 
#             | Confidence: 0 | Tip Switch: 0 | Contact Id:  0 | # | X:      0 | Y:      0 | Scan Time:  61236 | Contact Count:    1 | Button: 0 | # 
E: 000000.827493 20 01 03 55 01 39 02 00 00 00 00 00 00 00 00 00 00 34 ef 01 00
# ReportID: 1 / Confidence: 1 | Tip Switch: 1 | Contact Id:  0 | # | X:    250 | Y:    471 
#             | Confidence: 0 | Tip Switch: 0 | Contact Id:  0 | # | X:      0 | Y:      0 
