# NVTK0603:00 0603:F001
# 0x05, 0x0d,                    // Usage Page (Digitizers)             0
# 0x09, 0x04,                    // Usage (Touch Screen)                2
# 0xa1, 0x01,                    // Collection (Application)            4
# 0x85, 0x01,                    //  Report ID (1)                      6
# 0x05, 0x0d,                    //  Usage Page (Digitizers)            8
# 0x09, 0x22,                    //  Usage (Finger)                     10
# 0xa1, 0x02,                    //  Collection (Logical)               12
# 0x09, 0x42,                    //   Usage (Tip Switch)                14
# 0x75, 0x01,                    //   Report Size (1)                   16
# 0x95, 0x01,                    //   Report Count (1)                  18
# 0x15, 0x00,                    //   Logical Minimum (0)               20
# 0x25, 0x01,                    //   Logical Maximum (1)               22
# 0x81, 0x02,                    //   Input (Data,Var,Abs)              24
# 0x09, 0x51,                    //   Usage (Contact Id)                26
# 0x25, 0x0a,                    //   Logical Maximum (10)              28
# 0x75, 0x07,                    //   Report Size (7)                   30
# 0x95, 0x01,                    //   Report Count (1)                  32
# 0x81, 0x02,                    //   Input (Data,Var,Abs)              34
# 0x05, 0x01,                    //   Usage Page (Generic Desktop)      36
# 0x26, 0x40, 0x06,              //   Logical Maximum (1600)            38
# 0x75, 0x0c,                    //   Report Size (12)                  41
# 0x55, 0x0d,                    //   Unit Exponent (-3)                43
# 0x65, 0x11,                    //   Unit (SILinear: cm)               45
# 0x09, 0x30,                    //   Usage (X)                         47
# 0x35, 0x00,                    //   Physical Minimum (0)              49
# 0x46, 0x46, 0x2e,              //   Physical Maximum (11846)          51
# 0x95, 0x01,                    //   Report Count (1)                  54
# 0x81, 0x02,                    //   Input (Data,Var,Abs)              56
# 0x46, 0x0a, 0x4a,              //   Physical Maximum (18954)          58
# 0x09, 0x31,                    //   Usage (Y)                         61
# 0x26, 0x00, 0x0a,              //   Logical Maximum (2560)            63
# 0x81, 0x02,                    //   Input (Data,Var,Abs)              66
# 0x05, 0x0d,                    //   Usage Page (Digitizers)           68
# 0x75, 0x08,                    //   Report Size (8)                   70
# 0x95, 0x01,                    //   Report Count (1)                  72
# 0x15, 0x00,                    //   Logical Minimum (0)               74
# 0x26, 0xff, 0x00,              //   Logical Maximum (255)             76
# 0x09, 0x30,                    //   Usage (Tip Pressure)              79
# 0x81, 0x02,                    //   Input (Data,Var,Abs)              81
# 0x09, 0x48,                    //   Usage (Width)                     83
# 0x81, 0x02,                    //   Input (Data,Var,Abs)              85
# 0x09, 0x49,                    //   Usage (Height)                    87
# 0x81, 0x02,                    //   Input (Data,Var,Abs)              89
# 0xc0,                          //  End Collection                     91
# 0x05, 0x0d,                    //  Usage Page (Digitizers)            92
# 0x09, 0x22,                    //  Usage (Finger)                     94
# 0xa1, 0x02,                    //  Collection (Logical)               96
# 0x09, 0x42,                    //   Usage (Tip Switch)                98
# 0x75, 0x01,                    //   Report Size (1)                   100
# 0x95, 0x01,                    //   Report Count (1)                  102
# 0x15, 0x00,                    //   Logical Minimum (0)               104
# 0x25, 0x01,                    //   Logical Maximum (1)               106
# 0x81, 0x02,                    //   Input (Data,Var,Abs)              108
# 0x09, 0x51,                    //   Usage (Contact Id)                110
# 0x25, 0x0a,                    //   Logical Maximum (10)              112
# 0x75, 0x07,                    //   Report Size (7)                   114
# 0x95, 0x01,                    //   Report Count (1)                  116
# 0x81, 0x02,                    //   Input (Data,Var,Abs)              118
# 0x05, 0x01,                    //   Usage Page (Generic Desktop)      120
# 0x26, 0x40, 0x06,              //   Logical Maximum (1600)            122
# 0x75, 0x0c,                    //   Report Size (12)                  125
# 0x55, 0x0d,                    //   Unit Exponent (-3)                127
# 0x65, 0x11,                    //   Unit (SILinear: cm)               129
# 0x09, 0x30,                    //   Usage (X)                         131
# 0x35, 0x00,                    //   Physical Minimum (0)              133
# 0x46, 0x46, 0x2e,              //   Physical Maximum (11846)          135
# 0x95, 0x01,                    //   Report Count (1)                  138
# 0x81, 0x02,                    //   Input (Data,Var,Abs)              140
# 0x46, 0x0a, 0x4a,              //   Physical Maximum (18954)          142
# 0x09, 0x31,                    //   Usage (Y)                         145
# 0x26, 0x00, 0x0a,              //   Logical Maximum (2560)            147
# 0x81, 0x02,                    //   Input (Data,Var,Abs)              150
# 0x05, 0x0d,                    //   Usage Page (Digitizers)           152
# 0x75, 0x08,                    //   Report Size (8)                   154
# 0x95, 0x01,                    //   Report Count (1)                  156
# 0x15, 0x00,                    //   Logical Minimum (0)               158
# 0x26, 0xff, 0x00,              //   Logical Maximum (255)             160
# 0x09, 0x30,                    //   Usage (Tip Pressure)              163
# 0x81, 0x02,                    //   Input (Data,Var,Abs)              165
# 0x09, 0x48,                    //   Usage (Width)                     167
# 0x81, 0x02,                    //   Input (Data,Var,Abs)              169
# 0x09, 0x49,                    //   Usage (Height)                    171
# 0x81, 0x02,                    //   Input (Data,Var,Abs)              173
# 0xc0,                          //  End Collection                     175
# 0x05, 0x0d,                    //  Usage Page (Digitizers)            176
# 0x09, 0x22,                    //  Usage (Finger)                     178
# 0xa1, 0x02,                    //  Collection (Logical)               180
# 0x09, 0x42,                    //   Usage (Tip Switch)                182
# 0x75, 0x01,                    //   Report Size (1)                   184
# 0x95, 0x01,                    //   Report Count (1)                  186
# 0x15, 0x00,                    //   Logical Minimum (0)               188
# 0x25, 0x01,                    //   Logical Maximum (1)               190
# 0x81, 0x02,                    //   Input (Data,Var,Abs)              192
# 0x09, 0x51,                    //   Usage (Contact Id)                194
# 0x25, 0x0a,                    //   Logical Maximum (10)              196
# 0x75, 0x07,                    //   Report Size (7)                   198
# 0x95, 0x01,                    //   Report Count (1)                  200
# 0x81, 0x02,                    //   Input (Data,Var,Abs)              202
# 0x05, 0x01,                    //   Usage Page (Generic Desktop)      204
# 0x26, 0x40, 0x06,              //   Logical Maximum (1600)            206
# 0x75, 0x0c,                    //   Report Size (12)                  209
# 0x55, 0x0d,                    //   Unit Exponent (-3)                211
# 0x65, 0x11,                    //   Unit (SILinear: cm)               213
# 0x09, 0x30,                    //   Usage (X)                         215
# 0x35, 0x00,                    //   Physical Minimum (0)              217
# 0x46, 0x46, 0x2e,              //   Physical Maximum (11846)          219
# 0x95, 0x01,                    //   Report Count (1)                  222
# 0x81, 0x02,                    //   Input (Data,Var,Abs)              224
# 0x46, 0x0a, 0x4a,              //   Physical Maximum (18954)          226
# 0x09, 0x31,                    //   Usage (Y)                         229
# 0x26, 0x00, 0x0a,              //   Logical Maximum (2560)            231
# 0x81, 0x02,                    //   Input (Data,Var,Abs)              234
# 0x05, 0x0d,                    //   Usage Page (Digitizers)           236
# 0x75, 0x08,                    //   Report Size (8)                   238
# 0x95, 0x01,                    //   Report Count (1)                  240
# 0x15, 0x00,                    //   Logical Minimum (0)               242
# 0x26, 0xff, 0x00,              //   Logical Maximum (255)             244
# 0x09, 0x30,                    //   Usage (Tip Pressure)              247
# 0x81, 0x02,                    //   Input (Data,Var,Abs)              249
# 0x09, 0x48,                    //   Usage (Width)                     251
# 0x81, 0x02,                    //   Input (Data,Var,Abs)              253
# 0x09, 0x49,                    //   Usage (Height)                    255
# 0x81, 0x02,                    //   Input (Data,Var,Abs)              257
# 0xc0,                          //  End Collection                     259
# 0x05, 0x0d,                    //  Usage Page (Digitizers)            260
# 0x09, 0x22,                    //  Usage (Finger)                     262
# 0xa1, 0x02,                    //  Collection (Logical)               264
# 0x09, 0x42,                    //   Usage (Tip Switch)                266
# 0x75, 0x01,                    //   Report Size (1)                   268
# 0x95, 0x01,                    //   Report Count (1)                  270
# 0x15, 0x00,                    //   Logical Minimum (0)               272
# 0x25, 0x01,                    //   Logical Maximum (1)               274
# 0x81, 0x02,                    //   Input (Data,Var,Abs)              276
# 0x09, 0x51,                    //   Usage (Contact Id)                278
# 0x25, 0x0a,                    //   Logical Maximum (10)              280
# 0x75, 0x07,                    //   Report Size (7)                   282
# 0x95, 0x01,                    //   Report Count (1)                  284
# 0x81, 0x02,                    //   Input (Data,Var,Abs)              286
# 0x05, 0x01,                    //   Usage Page (Generic Desktop)      288
# 0x26, 0x40, 0x06,              //   Logical Maximum (1600)            290
# 0x75, 0x0c,                    //   Report Size (12)                  293
# 0x55, 0x0d,                    //   Unit Exponent (-3)                295
# 0x65, 0x11,                    //   Unit (SILinear: cm)               297
# 0x09, 0x30,                    //   Usage (X)                         299
# 0x35, 0x00,                    //   Physical Minimum (0)              301
# 0x46, 0x46, 0x2e,              //   Physical Maximum (11846)          303
# 0x95, 0x01,                    //   Report Count (1)                  306
# 0x81, 0x02,                    //   Input (Data,Var,Abs)              308
# 0x46, 0x0a, 0x4a,              //   Physical Maximum (18954)          310
# 0x09, 0x31,                    //   Usage (Y)                         313
# 0x26, 0x00, 0x0a,              //   Logical Maximum (2560)            315
# 0x81, 0x02,                    //   Input (Data,Var,Abs)              318
# 0x05, 0x0d,                    //   Usage Page (Digitizers)           320
# 0x75, 0x08,                    //   Report Size (8)                   322
# 0x95, 0x01,                    //   Report Count (1)                  324
# 0x15, 0x00,                    //   Logical Minimum (0)               326
# 0x26, 0xff, 0x00,              //   Logical Maximum (255)             328
# 0x09, 0x30,                    //   Usage (Tip Pressure)              331
# 0x81, 0x02,                    //   Input (Data,Var,Abs)              333
# 0x09, 0x48,                    //   Usage (Width)                     335
# 0x81, 0x02,                    //   Input (Data,Var,Abs)              337
# 0x09, 0x49,                    //   Usage (Height)                    339
# 0x81, 0x02,                    //   Input (Data,Var,Abs)              341
# 0xc0,                          //  End Collection                     343
# 0x05, 0x0d,                    //  Usage Page (Digitizers)            344
# 0x09, 0x22,                    //  Usage (Finger)                     346
# 0xa1, 0x02,                    //  Collection (Logical)               348
# 0x09, 0x42,                    //   Usage (Tip Switch)                350
# 0x75, 0x01,                    //   Report Size (1)                   352
# 0x95, 0x01,                    //   Report Count (1)                  354
# 0x15, 0x00,                    //   Logical Minimum (0)               356
# 0x25, 0x01,                    //   Logical Maximum (1)               358
# 0x81, 0x02,                    //   Input (Data,Var,Abs)              360
# 0x09, 0x51,                    //   Usage (Contact Id)                362
# 0x25, 0x0a,                    //   Logical Maximum (10)              364
# 0x75, 0x07,                    //   Report Size (7)                   366
# 0x95, 0x01,                    //   Report Count (1)                  368
# 0x81, 0x02,                    //   Input (Data,Var,Abs)              370
# 0x05, 0x01,                    //   Usage Page (Generic Desktop)      372
# 0x26, 0x40, 0x06,              //   Logical Maximum (1600)            374
# 0x75, 0x0c,                    //   Report Size (12)                  377
# 0x55, 0x0d,                    //   Unit Exponent (-3)                379
# 0x65, 0x11,                    //   Unit (SILinear: cm)               381
# 0x09, 0x30,                    //   Usage (X)                         383
# 0x35, 0x00,                    //   Physical Minimum (0)              385
# 0x46, 0x46, 0x2e,              //   Physical Maximum (11846)          387
# 0x95, 0x01,                    //   Report Count (1)                  390
# 0x81, 0x02,                    //   Input (Data,Var,Abs)              392
# 0x46, 0x0a, 0x4a,              //   Physical Maximum (18954)          394
# 0x09, 0x31,                    //   Usage (Y)                         397
# 0x26, 0x00, 0x0a,              //   Logical Maximum (2560)            399
# 0x81, 0x02,                    //   Input (Data,Var,Abs)              402
# 0x05, 0x0d,                    //   Usage Page (Digitizers)           404
# 0x75, 0x08,                    //   Report Size (8)                   406
# 0x95, 0x01,                    //   Report Count (1)                  408
# 0x15, 0x00,                    //   Logical Minimum (0)               410
# 0x26, 0xff, 0x00,              //   Logical Maximum (255)             412
# 0x09, 0x30,                    //   Usage (Tip Pressure)              415
# 0x81, 0x02,                    //   Input (Data,Var,Abs)              417
# 0x09, 0x48,                    //   Usage (Width)                     419
# 0x81, 0x02,                    //   Input (Data,Var,Abs)              421
# 0x09, 0x49,                    //   Usage (Height)                    423
# 0x81, 0x02,                    //   Input (Data,Var,Abs)              425
# 0xc0,                          //  End Collection                     427
# 0x05, 0x0d,                    //  Usage Page (Digitizers)            428
# 0x09, 0x22,                    //  Usage (Finger)                     430
# 0xa1, 0x02,                    //  Collection (Logical)               432
# 0x09, 0x42,                    //   Usage (Tip Switch)                434
# 0x75, 0x01,                    //   Report Size (1)                   436
# 0x95, 0x01,                    //   Report Count (1)                  438
# 0x15, 0x00,                    //   Logical Minimum (0)               440
# 0x25, 0x01,                    //   Logical Maximum (1)               442
# 0x81, 0x02,                    //   Input (Data,Var,Abs)              444
# 0x09, 0x51,                    //   Usage (Contact Id)                446
# 0x25, 0x0a,                    //   Logical Maximum (10)              448
# 0x75, 0x07,                    //   Report Size (7)                   450
# 0x95, 0x01,                    //   Report Count (1)                  452
# 0x81, 0x02,                    //   Input (Data,Var,Abs)              454
# 0x05, 0x01,                    //   Usage Page (Generic Desktop)      456
# 0x26, 0x40, 0x06,              //   Logical Maximum (1600)            458
# 0x75, 0x0c,                    //   Report Size (12)                  461
# 0x55, 0x0d,                    //   Unit Exponent (-3)                463
# 0x65, 0x11,                    //   Unit (SILinear: cm)               465
# 0x09, 0x30,                    //   Usage (X)                         467
# 0x35, 0x00,                    //   Physical Minimum (0)              469
# 0x46, 0x46, 0x2e,              //   Physical Maximum (11846)          471
# 0x95, 0x01,                    //   Report Count (1)                  474
# 0x81, 0x02,                    //   Input (Data,Var,Abs)              476
# 0x46, 0x0a, 0x4a,              //   Physical Maximum (18954)          478
# 0x09, 0x31,                    //   Usage (Y)                         481
# 0x26, 0x00, 0x0a,              //   Logical Maximum (2560)            483
# 0x81, 0x02,                    //   Input (Data,Var,Abs)              486
# 0x05, 0x0d,                    //   Usage Page (Digitizers)           488
# 0x75, 0x08,                    //   Report Size (8)                   490
# 0x95, 0x01,                    //   Report Count (1)                  492
# 0x15, 0x00,                    //   Logical Minimum (0)               494
# 0x26, 0xff, 0x00,              //   Logical Maximum (255)             496
# 0x09, 0x30,                    //   Usage (Tip Pressure)              499
# 0x81, 0x02,                    //   Input (Data,Var,Abs)              501
# 0x09, 0x48,                    //   Usage (Width)                     503
# 0x81, 0x02,                    //   Input (Data,Var,Abs)              505
# 0x09, 0x49,                    //   Usage (Height)                    507
# 0x81, 0x02,                    //   Input (Data,Var,Abs)              509
# 0xc0,                          //  End Collection                     511
# 0x05, 0x0d,                    //  Usage Page (Digitizers)            512
# 0x09, 0x22,                    //  Usage (Finger)                     514
# 0xa1, 0x02,                    //  Collection (Logical)               516
# 0x09, 0x42,                    //   Usage (Tip Switch)                518
# 0x75, 0x01,                    //   Report Size (1)                   520
# 0x95, 0x01,                    //   Report Count (1)                  522
# 0x15, 0x00,                    //   Logical Minimum (0)               524
# 0x25, 0x01,                    //   Logical Maximum (1)               526
# 0x81, 0x02,                    //   Input (Data,Var,Abs)              528
# 0x09, 0x51,                    //   Usage (Contact Id)                530
# 0x25, 0x0a,                    //   Logical Maximum (10)              532
# 0x75, 0x07,                    //   Report Size (7)                   534
# 0x95, 0x01,                    //   Report Count (1)                  536
# 0x81, 0x02,                    //   Input (Data,Var,Abs)              538
# 0x05, 0x01,                    //   Usage Page (Generic Desktop)      540
# 0x26, 0x40, 0x06,              //   Logical Maximum (1600)            542
# 0x75, 0x0c,                    //   Report Size (12)                  545
# 0x55, 0x0d,                    //   Unit Exponent (-3)                547
# 0x65, 0x11,                    //   Unit (SILinear: cm)               549
# 0x09, 0x30,                    //   Usage (X)                         551
# 0x35, 0x00,                    //   Physical Minimum (0)              553
# 0x46, 0x46, 0x2e,              //   Physical Maximum (11846)          555
# 0x95, 0x01,                    //   Report Count (1)                  558
# 0x81, 0x02,                    //   Input (Data,Var,Abs)              560
# 0x46, 0x0a, 0x4a,              //   Physical Maximum (18954)          562
# 0x09, 0x31,                    //   Usage (Y)                         565
# 0x26, 0x00, 0x0a,              //   Logical Maximum (2560)            567
# 0x81, 0x02,                    //   Input (Data,Var,Abs)              570
# 0x05, 0x0d,                    //   Usage Page (Digitizers)           572
# 0x75, 0x08,                    //   Report Size (8)                   574
# 0x95, 0x01,                    //   Report Count (1)                  576
# 0x15, 0x00,                    //   Logical Minimum (0)               578
# 0x26, 0xff, 0x00,              //   Logical Maximum (255)             580
# 0x09, 0x30,                    //   Usage (Tip Pressure)              583
# 0x81, 0x02,                    //   Input (Data,Var,Abs)              585
# 0x09, 0x48,                    //   Usage (Width)                     587
# 0x81, 0x02,                    //   Input (Data,Var,Abs)              589
# 0x09, 0x49,                    //   Usage (Height)                    591
# 0x81, 0x02,                    //   Input (Data,Var,Abs)              593
# 0xc0,                          //  End Collection                     595
# 0x05, 0x0d,                    //  Usage Page (Digitizers)            596
# 0x09, 0x22,                    //  Usage (Finger)                     598
# 0xa1, 0x02,                    //  Collection (Logical)               600
# 0x09, 0x42,                    //   Usage (Tip Switch)                602
# 0x75, 0x01,                    //   Report Size (1)                   604
# 0x95, 0x01,                    //   Report Count (1)                  606
# 0x15, 0x00,                    //   Logical Minimum (0)               608
# 0x25, 0x01,                    //   Logical Maximum (1)               610
# 0x81, 0x02,                    //   Input (Data,Var,Abs)              612
# 0x09, 0x51,                    //   Usage (Contact Id)                614
# 0x25, 0x0a,                    //   Logical Maximum (10)              616
# 0x75, 0x07,                    //   Report Size (7)                   618
# 0x95, 0x01,                    //   Report Count (1)                  620
# 0x81, 0x02,                    //   Input (Data,Var,Abs)              622
# 0x05, 0x01,                    //   Usage Page (Generic Desktop)      624
# 0x26, 0x40, 0x06,              //   Logical Maximum (1600)            626
# 0x75, 0x0c,                    //   Report Size (12)                  629
# 0x55, 0x0d,                    //   Unit Exponent (-3)                631
# 0x65, 0x11,                    //   Unit (SILinear: cm)               633
# 0x09, 0x30,                    //   Usage (X)                         635
# 0x35, 0x00,                    //   Physical Minimum (0)              637
# 0x46, 0x46, 0x2e,              //   Physical Maximum (11846)          639
# 0x95, 0x01,                    //   Report Count (1)                  642
# 0x81, 0x02,                    //   Input (Data,Var,Abs)              644
# 0x46, 0x0a, 0x4a,              //   Physical Maximum (18954)          646
# 0x09, 0x31,                    //   Usage (Y)                         649
# 0x26, 0x00, 0x0a,              //   Logical Maximum (2560)            651
# 0x81, 0x02,                    //   Input (Data,Var,Abs)              654
# 0x05, 0x0d,                    //   Usage Page (Digitizers)           656
# 0x75, 0x08,                    //   Report Size (8)                   658
# 0x95, 0x01,                    //   Report Count (1)                  660
# 0x15, 0x00,                    //   Logical Minimum (0)               662
# 0x26, 0xff, 0x00,              //   Logical Maximum (255)             664
# 0x09, 0x30,                    //   Usage (Tip Pressure)              667
# 0x81, 0x02,                    //   Input (Data,Var,Abs)              669
# 0x09, 0x48,                    //   Usage (Width)                     671
# 0x81, 0x02,                    //   Input (Data,Var,Abs)              673
# 0x09, 0x49,                    //   Usage (Height)                    675
# 0x81, 0x02,                    //   Input (Data,Var,Abs)              677
# 0xc0,                          //  End Collection                     679
# 0x05, 0x0d,                    //  Usage Page (Digitizers)            680
# 0x09, 0x22,                    //  Usage (Finger)                     682
# 0xa1, 0x02,                    //  Collection (Logical)               684
# 0x09, 0x42,                    //   Usage (Tip Switch)                686
# 0x75, 0x01,                    //   Report Size (1)                   688
# 0x95, 0x01,                    //   Report Count (1)                  690
# 0x15, 0x00,                    //   Logical Minimum (0)               692
# 0x25, 0x01,                    //   Logical Maximum (1)               694
# 0x81, 0x02,                    //   Input (Data,Var,Abs)              696
# 0x09, 0x51,                    //   Usage (Contact Id)                698
# 0x25, 0x0a,                    //   Logical Maximum (10)              700
# 0x75, 0x07,                    //   Report Size (7)                   702
# 0x95, 0x01,                    //   Report Count (1)                  704
# 0x81, 0x02,                    //   Input (Data,Var,Abs)              706
# 0x05, 0x01,                    //   Usage Page (Generic Desktop)      708
# 0x26, 0x40, 0x06,              //   Logical Maximum (1600)            710
# 0x75, 0x0c,                    //   Report Size (12)                  713
# 0x55, 0x0d,                    //   Unit Exponent (-3)                715
# 0x65, 0x11,                    //   Unit (SILinear: cm)               717
# 0x09, 0x30,                    //   Usage (X)                         719
# 0x35, 0x00,                    //   Physical Minimum (0)              721
# 0x46, 0x46, 0x2e,              //   Physical Maximum (11846)          723
# 0x95, 0x01,                    //   Report Count (1)                  726
# 0x81, 0x02,                    //   Input (Data,Var,Abs)              728
# 0x46, 0x0a, 0x4a,              //   Physical Maximum (18954)          730
# 0x09, 0x31,                    //   Usage (Y)                         733
# 0x26, 0x00, 0x0a,              //   Logical Maximum (2560)            735
# 0x81, 0x02,                    //   Input (Data,Var,Abs)              738
# 0x05, 0x0d,                    //   Usage Page (Digitizers)           740
# 0x75, 0x08,                    //   Report Size (8)                   742
# 0x95, 0x01,                    //   Report Count (1)                  744
# 0x15, 0x00,                    //   Logical Minimum (0)               746
# 0x26, 0xff, 0x00,              //   Logical Maximum (255)             748
# 0x09, 0x30,                    //   Usage (Tip Pressure)              751
# 0x81, 0x02,                    //   Input (Data,Var,Abs)              753
# 0x09, 0x48,                    //   Usage (Width)                     755
# 0x81, 0x02,                    //   Input (Data,Var,Abs)              757
# 0x09, 0x49,                    //   Usage (Height)                    759
# 0x81, 0x02,                    //   Input (Data,Var,Abs)              761
# 0xc0,                          //  End Collection                     763
# 0x05, 0x0d,                    //  Usage Page (Digitizers)            764
# 0x09, 0x22,                    //  Usage (Finger)                     766
# 0xa1, 0x02,                    //  Collection (Logical)               768
# 0x09, 0x42,                    //   Usage (Tip Switch)                770
# 0x75, 0x01,                    //   Report Size (1)                   772
# 0x95, 0x01,                    //   Report Count (1)                  774
# 0x15, 0x00,                    //   Logical Minimum (0)               776
# 0x25, 0x01,                    //   Logical Maximum (1)               778
# 0x81, 0x02,                    //   Input (Data,Var,Abs)              780
# 0x09, 0x51,                    //   Usage (Contact Id)                782
# 0x25, 0x0a,                    //   Logical Maximum (10)              784
# 0x75, 0x07,                    //   Report Size (7)                   786
# 0x95, 0x01,                    //   Report Count (1)                  788
# 0x81, 0x02,                    //   Input (Data,Var,Abs)              790
# 0x05, 0x01,                    //   Usage Page (Generic Desktop)      792
# 0x26, 0x40, 0x06,              //   Logical Maximum (1600)            794
# 0x75, 0x0c,                    //   Report Size (12)                  797
# 0x55, 0x0d,                    //   Unit Exponent (-3)                799
# 0x65, 0x11,                    //   Unit (SILinear: cm)               801
# 0x09, 0x30,                    //   Usage (X)                         803
# 0x35, 0x00,                    //   Physical Minimum (0)              805
# 0x46, 0x46, 0x2e,              //   Physical Maximum (11846)          807
# 0x95, 0x01,                    //   Report Count (1)                  810
# 0x81, 0x02,                    //   Input (Data,Var,Abs)              812
# 0x46, 0x0a, 0x4a,              //   Physical Maximum (18954)          814
# 0x09, 0x31,                    //   Usage (Y)                         817
# 0x26, 0x00, 0x0a,              //   Logical Maximum (2560)            819
# 0x81, 0x02,                    //   Input (Data,Var,Abs)              822
# 0x05, 0x0d,                    //   Usage Page (Digitizers)           824
# 0x75, 0x08,                    //   Report Size (8)                   826
# 0x95, 0x01,                    //   Report Count (1)                  828
# 0x15, 0x00,                    //   Logical Minimum (0)               830
# 0x26, 0xff, 0x00,              //   Logical Maximum (255)             832
# 0x09, 0x30,                    //   Usage (Tip Pressure)              835
# 0x81, 0x02,                    //   Input (Data,Var,Abs)              837
# 0x09, 0x48,                    //   Usage (Width)                     839
# 0x81, 0x02,                    //   Input (Data,Var,Abs)              841
# 0x09, 0x49,                    //   Usage (Height)                    843
# 0x81, 0x02,                    //   Input (Data,Var,Abs)              845
# 0xc0,                          //  End Collection                     847
# 0x05, 0x0d,                    //  Usage Page (Digitizers)            848
# 0x55, 0x0c,                    //  Unit Exponent (-4)                 850
# 0x66, 0x01, 0x10,              //  Unit (SILinear: s)                 852
# 0x47, 0xff, 0xff, 0x00, 0x00,  //  Physical Maximum (65535)           855
# 0x27, 0xff, 0xff, 0x00, 0x00,  //  Logical Maximum (65535)            860
# 0x75, 0x10,                    //  Report Size (16)                   865
# 0x95, 0x01,                    //  Report Count (1)                   867
# 0x09, 0x56,                    //  Usage (Scan Time)                  869
# 0x81, 0x02,                    //  Input (Data,Var,Abs)               871
# 0x05, 0x0d,                    //  Usage Page (Digitizers)            873
# 0x09, 0x54,                    //  Usage (Contact Count)              875
# 0x15, 0x00,                    //  Logical Minimum (0)                877
# 0x25, 0x7f,                    //  Logical Maximum (127)              879
# 0x95, 0x01,                    //  Report Count (1)                   881
# 0x75, 0x08,                    //  Report Size (8)                    883
# 0x81, 0x02,                    //  Input (Data,Var,Abs)               885
# 0x05, 0x0d,                    //  Usage Page (Digitizers)            887
# 0x09, 0x55,                    //  Usage (Contact Max)                889
# 0x85, 0x02,                    //  Report ID (2)                      891
# 0x95, 0x01,                    //  Report Count (1)                   893
# 0x25, 0x0a,                    //  Logical Maximum (10)               895
# 0xb1, 0x02,                    //  Feature (Data,Var,Abs)             897
# 0x85, 0x03,                    //  Report ID (3)                      899
# 0x06, 0x00, 0xff,              //  Usage Page (Vendor Defined Page 1) 901
# 0x09, 0xc5,                    //  Usage (Vendor Usage 0xc5)          904
# 0x15, 0x00,                    //  Logical Minimum (0)                906
# 0x26, 0xff, 0x00,              //  Logical Maximum (255)              908
# 0x75, 0x08,                    //  Report Size (8)                    911
# 0x96, 0x00, 0x01,              //  Report Count (256)                 913
# 0xb1, 0x02,                    //  Feature (Data,Var,Abs)             916
# 0xc0,                          // End Collection                      918
# 0x05, 0x01,                    // Usage Page (Generic Desktop)        919
# 0x09, 0x00,                    // Usage (Undefined)                   921
# 0xa1, 0x01,                    // Collection (Application)            923
# 0x85, 0x0b,                    //  Report ID (11)                     925
# 0x09, 0x00,                    //  Usage (Undefined)                  927
# 0xa1, 0x02,                    //  Collection (Logical)               929
# 0x09, 0x00,                    //   Usage (Undefined)                 931
# 0x15, 0x00,                    //   Logical Minimum (0)               933
# 0x26, 0xff, 0x00,              //   Logical Maximum (255)             935
# 0x75, 0x08,                    //   Report Size (8)                   938
# 0x96, 0x2c, 0x01,              //   Report Count (300)                940
# 0xb1, 0x02,                    //   Feature (Data,Var,Abs)            943
# 0xc0,                          //  End Collection                     945
# 0x85, 0x0c,                    //  Report ID (12)                     946
# 0x09, 0x00,                    //  Usage (Undefined)                  948
# 0xa1, 0x02,                    //  Collection (Logical)               950
# 0x09, 0x00,                    //   Usage (Undefined)                 952
# 0x15, 0x00,                    //   Logical Minimum (0)               954
# 0x26, 0xff, 0x00,              //   Logical Maximum (255)             956
# 0x75, 0x08,                    //   Report Size (8)                   959
# 0x96, 0x08, 0x00,              //   Report Count (8)                  961
# 0xb1, 0x02,                    //   Feature (Data,Var,Abs)            964
# 0xc0,                          //  End Collection                     966
# 0x85, 0x0d,                    //  Report ID (13)                     967
# 0x09, 0x00,                    //  Usage (Undefined)                  969
# 0xa1, 0x02,                    //  Collection (Logical)               971
# 0x09, 0x00,                    //   Usage (Undefined)                 973
# 0x15, 0x00,                    //   Logical Minimum (0)               975
# 0x26, 0xff, 0x00,              //   Logical Maximum (255)             977
# 0x75, 0x08,                    //   Report Size (8)                   980
# 0x96, 0x19, 0x00,              //   Report Count (25)                 982
# 0xb1, 0x02,                    //   Feature (Data,Var,Abs)            985
# 0xc0,                          //  End Collection                     987
# 0x85, 0x0e,                    //  Report ID (14)                     988
# 0x09, 0x00,                    //  Usage (Undefined)                  990
# 0xa1, 0x02,                    //  Collection (Logical)               992
# 0x09, 0x00,                    //   Usage (Undefined)                 994
# 0x15, 0x00,                    //   Logical Minimum (0)               996
# 0x26, 0xff, 0x00,              //   Logical Maximum (255)             998
# 0x75, 0x08,                    //   Report Size (8)                   1001
# 0x96, 0x87, 0x00,              //   Report Count (135)                1003
# 0xb1, 0x02,                    //   Feature (Data,Var,Abs)            1006
# 0xc0,                          //  End Collection                     1008
# 0x85, 0x11,                    //  Report ID (17)                     1009
# 0x09, 0x00,                    //  Usage (Undefined)                  1011
# 0xa1, 0x02,                    //  Collection (Logical)               1013
# 0x09, 0x00,                    //   Usage (Undefined)                 1015
# 0x15, 0x00,                    //   Logical Minimum (0)               1017
# 0x26, 0xff, 0x00,              //   Logical Maximum (255)             1019
# 0x75, 0x08,                    //   Report Size (8)                   1022
# 0x96, 0x0a, 0x00,              //   Report Count (10)                 1024
# 0xb1, 0x02,                    //   Feature (Data,Var,Abs)            1027
# 0xc0,                          //  End Collection                     1029
# 0x85, 0x12,                    //  Report ID (18)                     1030
# 0x09, 0x00,                    //  Usage (Undefined)                  1032
# 0xa1, 0x02,                    //  Collection (Logical)               1034
# 0x09, 0x00,                    //   Usage (Undefined)                 1036
# 0x15, 0x00,                    //   Logical Minimum (0)               1038
# 0x26, 0xff, 0x00,              //   Logical Maximum (255)             1040
# 0x75, 0x08,                    //   Report Size (8)                   1043
# 0x96, 0x0a, 0x00,              //   Report Count (10)                 1045
# 0xb1, 0x02,                    //   Feature (Data,Var,Abs)            1048
# 0xc0,                          //  End Collection                     1050
# 0xc0,                          // End Collection                      1051
# 
R: 1052 05 0d 09 04 a1 01 85 01 05 0d 09 22 a1 02 09 42 75 01 95 01 15 00 25 01 81 02 09 51 25 0a 75 07 95 01 81 02 05 01 26 40 06 75 0c 55 0d 65 11 09 30 35 00 46 46 2e 95 01 81 02 46 0a 4a 09 31 26 00 0a 81 02 05 0d 75 08 95 01 15 00 26 ff 00 09 30 81 02 09 48 81 02 09 49 81 02 c0 05 0d 09 22 a1 02 09 42 75 01 95 01 15 00 25 01 81 02 09 51 25 0a 75 07 95 01 81 02 05 01 26 40 06 75 0c 55 0d 65 11 09 30 35 00 46 46 2e 95 01 81 02 46 0a 4a 09 31 26 00 0a 81 02 05 0d 75 08 95 01 15 00 26 ff 00 09 30 81 02 09 48 81 02 09 49 81 02 c0 05 0d 09 22 a1 02 09 42 75 01 95 01 15 00 25 01 81 02 09 51 25 0a 75 07 95 01 81 02 05 01 26 40 06 75 0c 55 0d 65 11 09 30 35 00 46 46 2e 95 01 81 02 46 0a 4a 09 31 26 00 0a 81 02 05 0d 75 08 95 01 15 00 26 ff 00 09 30 81 02 09 48 81 02 09 49 81 02 c0 05 0d 09 22 a1 02 09 42 75 01 95 01 15 00 25 01 81 02 09 51 25 0a 75 07 95 01 81 02 05 01 26 40 06 75 0c 55 0d 65 11 09 30 35 00 46 46 2e 95 01 81 02 46 0a 4a 09 31 26 00 0a 81 02 05 0d 75 08 95 01 15 00 26 ff 00 09 30 81 02 09 48 81 02 09 49 81 02 c0 05 0d 09 22 a1 02 09 42 75 01 95 01 15 00 25 01 81 02 09 51 25 0a 75 07 95 01 81 02 05 01 26 40 06 75 0c 55 0d 65 11 09 30 35 00 46 46 2e 95 01 81 02 46 0a 4a 09 31 26 00 0a 81 02 05 0d 75 08 95 01 15 00 26 ff 00 09 30 81 02 09 48 81 02 09 49 81 02 c0 05 0d 09 22 a1 02 09 42 75 01 95 01 15 00 25 01 81 02 09 51 25 0a 75 07 95 01 81 02 05 01 26 40 06 75 0c 55 0d 65 11 09 30 35 00 46 46 2e 95 01 81 02 46 0a 4a 09 31 26 00 0a 81 02 05 0d 75 08 95 01 15 00 26 ff 00 09 30 81 02 09 48 81 02 09 49 81 02 c0 05 0d 09 22 a1 02 09 42 75 01 95 01 15 00 25 01 81 02 09 51 25 0a 75 07 95 01 81 02 05 01 26 40 06 75 0c 55 0d 65 11 09 30 35 00 46 46 2e 95 01 81 02 46 0a 4a 09 31 26 00 0a 81 02 05 0d 75 08 95 01 15 00 26 ff 00 09 30 81 02 09 48 81 02 09 49 81 02 c0 05 0d 09 22 a1 02 09 42 75 01 95 01 15 00 25 01 81 02 09 51 25 0a 75 07 95 01 81 02 05 01 26 40 06 75 0c 55 0d 65 11 09 30 35 00 46 46 2e 95 01 81 02 46 0a 4a 09 31 26 00 0a 81 02 05 0d 75 08 95 01 15 00 26 ff 00 09 30 81 02 09 48 81 02 09 49 81 02 c0 05 0d 09 22 a1 02 09 42 75 01 95 01 15 00 25 01 81 02 09 51 25 0a 75 07 95 01 81 02 05 01 26 40 06 75 0c 55 0d 65 11 09 30 35 00 46 46 2e 95 01 81 02 46 0a 4a 09 31 26 00 0a 81 02 05 0d 75 08 95 01 15 00 26 ff 00 09 30 81 02 09 48 81 02 09 49 81 02 c0 05 0d 09 22 a1 02 09 42 75 01 95 01 15 00 25 01 81 02 09 51 25 0a 75 07 95 01 81 02 05 01 26 40 06 75 0c 55 0d 65 11 09 30 35 00 46 46 2e 95 01 81 02 46 0a 4a 09 31 26 00 0a 81 02 05 0d 75 08 95 01 15 00 26 ff 00 09 30 81 02 09 48 81 02 09 49 81 02 c0 05 0d 55 0c 66 01 10 47 ff ff 00 00 27 ff ff 00 00 75 10 95 01 09 56 81 02 05 0d 09 54 15 00 25 7f 95 01 75 08 81 02 05 0d 09 55 85 02 95 01 25 0a b1 02 85 03 06 00 ff 09 c5 15 00 26 ff 00 75 08 96 00 01 b1 02 c0 05 01 09 00 a1 01 85 0b 09 00 a1 02 09 00 15 00 26 ff 00 75 08 96 2c 01 b1 02 c0 85 0c 09 00 a1 02 09 00 15 00 26 ff 00 75 08 96 08 00 b1 02 c0 85 0d 09 00 a1 02 09 00 15 00 26 ff 00 75 08 96 19 00 b1 02 c0 85 0e 09 00 a1 02 09 00 15 00 26 ff 00 75 08 96 87 00 b1 02 c0 85 11 09 00 a1 02 09 00 15 00 26 ff 00 75 08 96 0a 00 b1 02 c0 85 12 09 00 a1 02 09 00 15 00 26 ff 00 75 08 96 0a 00 b1 02 c0 c0
N: NVTK0603:00 0603:F001
I: 18 0603 f001
# ReportID: 1 / Tip Switch: 1 | Contact Id:    1 | X:   702 | Y:  1959 | Tip Pressure:   10 | Width:    2 | Height:    3 
#             | Tip Switch: 0 | Contact Id:    0 | X:     0 | Y:     0 | Tip Pressure:    0 | Width:    0 | Height:    0 
#             | Tip Switch: 0 | Contact Id:    0 | X:     0 | Y:     0 | Tip Pressure:    0 | Width:    0 | Height:    0 
#             | Tip Switch: 0 | Contact Id:    0 | X:     0 | Y:     0 | Tip Pressure:    0 | Width:    0 | Height:    0 
#             | Tip Switch: 0 | Contact Id:    0 | X:     0 | Y:     0 | Tip Pressure:    0 | Width:    0 | Height:    0 
#             | Tip Switch: 0 | Contact Id:    0 | X:     0 | Y:     0 | Tip Pressure:    0 | Width:    0 | Height:    0 
#             | Tip Switch: 0 | Contact Id:    0 | X:     0 | Y:     0 | Tip Pressure:    0 | Width:    0 | Height:    0 
#             | Tip Switch: 0 | Contact Id:    0 | X:     0 | Y:     0 | Tip Pressure:    0 | Width:    0 | Height:    0 
#             | Tip Switch: 0 | Contact Id:    0 | X:     0 | Y:     0 | Tip Pressure:    0 | Width:    0 | Height:    0 
#             | Tip Switch: 0 | Contact Id:    0 | X:     0 | Y:     0 | Tip Pressure:    0 | Width:    0 | Height:    0 | Scan Time:  63766 | Contact Count:    1 
E: 000000.000000 74 01 03 be 72 7a 0a 02 03 00 00 00 00 00 00 00 00 00 00 00 00 00 00 00 00 00 00 00 00 00 00 00 00 00 00 00 00 00 00 00 00 00 00 00 00 00 00 00 00 00 00 00 00 00 00 00 00 00 00 00 00 00 00 00 00 00 00 00 00 00 00 00 16 f9 01
# ReportID: 1 / Tip Switch: 1 | Contact Id:    1 | X:   702 | Y:  1959 | Tip Pressure:   47 | Width:    2 | Height:    3 
#             | Tip Switch: 0 | Contact Id:    0 | X:     0 | Y:     0 | Tip Pressure:    0 | Width:    0 | Height:    0 
#             | Tip Switch: 0 | Contact Id:    0 | X:     0 | Y:     0 | Tip Pressure:    0 | Width:    0 | Height:    0 
#             | Tip Switch: 0 | Contact Id:    0 | X:     0 | Y:     0 | Tip Pressure:    0 | Width:    0 | Height:    0 
#             | Tip Switch: 0 | Contact Id:    0 | X:     0 | Y:     0 | Tip Pressure:    0 | Width:    0 | Height:    0 
#             | Tip Switch: 0 | Contact Id:    0 | X:     0 | Y:     0 | Tip Pressure:    0 | Width:    0 | Height:    0 
#             | Tip Switch: 0 | Contact Id:    0 | X:     0 | Y:     0 | Tip Pressure:    0 | Width:    0 | Height:    0 
#             | Tip Switch: 0 | Contact Id:    0 | X:     0 | Y:     0 | Tip Pressure:    0 | Width:    0 | Height:    0 
#             | Tip Switch: 0 | Contact Id:    0 | X:     0 | Y:     0 | Tip Pressure:    0 | Width:    0 | Height:    0 
#             | Tip Switch: 0 | Contact Id:    0 | X:     0 | Y:     0 | Tip Pressure:    0 | Width:    0 | Height:    0 | Scan Time:  63834 | Contact Count:    1 
E: 000000.006065 74 01 03 be 72 7a 2f 02 03 00 00 00 00 00 00 00 00 00 00 00 00 00 00 00 00 00 00 00 00 00 00 00 00 00 00 00 00 00 00 00 00 00 00 00 00 00 00 00 00 00 00 00 00 00 00 00 00 00 00 00 00 00 00 00 00 00 00 00 00 00 00 00 5a f9 01
# ReportID: 1 / Tip Switch: 1 | Contact Id:    1 | X:   700 | Y:  1961 | Tip Pressure:   52 | Width:    3 | Height:    3 
#             | Tip Switch: 0 | Contact Id:    0 | X:     0 | Y:     0 | Tip Pressure:    0 | Width:    0 | Height:    0 
#             | Tip Switch: 0 | Contact Id:    0 | X:     0 | Y:     0 | Tip Pressure:    0 | Width:    0 | Height:    0 
#             | Tip Switch: 0 | Contact Id:    0 | X:     0 | Y:     0 | Tip Pressure:    0 | Width:    0 | Height:    0 
#             | Tip Switch: 0 | Contact Id:    0 | X:     0 | Y:     0 | Tip Pressure:    0 | Width:    0 | Height:    0 
#             | Tip Switch: 0 | Contact Id:    0 | X:     0 | Y:     0 | Tip Pressure:    0 | Width:    0 | Height:    0 
#             | Tip Switch: 0 | Contact Id:    0 | X:     0 | Y:     0 | Tip Pressure:    0 | Width:    0 | Height:    0 
#             | Tip Switch: 0 | Contact Id:    0 | X:     0 | Y:     0 | Tip Pressure:    0 | Width:    0 | Height:    0 
#             | Tip Switch: 0 | Contact Id:    0 | X:     0 | Y:     0 | Tip Pressure:    0 | Width:    0 | Height:    0 
#             | Tip Switch: 0 | Contact Id:    0 | X:     0 | Y:     0 | Tip Pressure:    0 | Width:    0 | Height:    0 | Scan Time:  63902 | Contact Count:    1 
E: 000000.013902 74 01 03 bc 92 7a 34 03 03 00 00 00 00 00 00 00 00 00 00 00 00 00 00 00 00 00 00 00 00 00 00 00 00 00 00 00 00 00 00 00 00 00 00 00 00 00 00 00 00 00 00 00 00 00 00 00 00 00 00 00 00 00 00 00 00 00 00 00 00 00 00 00 9e f9 01
# ReportID: 1 / Tip Switch: 1 | Contact Id:    1 | X:   695 | Y:  1965 | Tip Pressure:   55 | Width:    3 | Height:    3 
#             | Tip Switch: 0 | Contact Id:    0 | X:     0 | Y:     0 | Tip Pressure:    0 | Width:    0 | Height:    0 
#             | Tip Switch: 0 | Contact Id:    0 | X:     0 | Y:     0 | Tip Pressure:    0 | Width:    0 | Height:    0 
#             | Tip Switch: 0 | Contact Id:    0 | X:     0 | Y:     0 | Tip Pressure:    0 | Width:    0 | Height:    0 
#             | Tip Switch: 0 | Contact Id:    0 | X:     0 | Y:     0 | Tip Pressure:    0 | Width:    0 | Height:    0 
#             | Tip Switch: 0 | Contact Id:    0 | X:     0 | Y:     0 | Tip Pressure:    0 | Width:    0 | Height:    0 
#             | Tip Switch: 0 | Contact Id:    0 | X:     0 | Y:     0 | Tip Pressure:    0 | Width:    0 | Height:    0 
#             | Tip Switch: 0 | Contact Id:    0 | X:     0 | Y:     0 | Tip Pressure:    0 | Width:    0 | Height:    0 
#             | Tip Switch: 0 | Contact Id:    0 | X:     0 | Y:     0 | Tip Pressure:    0 | Width:    0 | Height:    0 
#             | Tip Switch: 0 | Contact Id:    0 | X:     0 | Y:     0 | Tip Pressure:    0 | Width:    0 | Height:    0 | Scan Time:  63970 | Contact Count:    1 
E: 000000.019956 74 01 03 b7 d2 7a 37 03 03 00 00 00 00 00 00 00 00 00 00 00 00 00 00 00 00 00 00 00 00 00 00 00 00 00 00 00 00 00 00 00 00 00 00 00 00 00 00 00 00 00 00 00 00 00 00 00 00 00 00 00 00 00 00 00 00 00 00 00 00 00 00 00 e2 f9 01
# ReportID: 1 / Tip Switch: 1 | Contact Id:    1 | X:   687 | Y:  1972 | Tip Pressure:   55 | Width:    2 | Height:    2 
#             | Tip Switch: 0 | Contact Id:    0 | X:     0 | Y:     0 | Tip Pressure:    0 | Width:    0 | Height:    0 
#             | Tip Switch: 0 | Contact Id:    0 | X:     0 | Y:     0 | Tip Pressure:    0 | Width:    0 | Height:    0 
#             | Tip Switch: 0 | Contact Id:    0 | X:     0 | Y:     0 | Tip Pressure:    0 | Width:    0 | Height:    0 
#             | Tip Switch: 0 | Contact Id:    0 | X:     0 | Y:     0 | Tip Pressure:    0 | Width:    0 | Height:    0 
#             | Tip Switch: 0 | Contact Id:    0 | X:     0 | Y:     0 | Tip Pressure:    0 | Width:    0 | Height:    0 
#             | Tip Switch: 0 | Contact Id:    0 | X:     0 | Y:     0 | Tip Pressure:    0 | Width:    0 | Height:    0 
#             | Tip Switch: 0 | Contact Id:    0 | X:     0 | Y:     0 | Tip Pressure:    0 | Width:    0 | Height:    0 
#             | Tip Switch: 0 | Contact Id:    0 | X:     0 | Y:     0 | Tip Pressure:    0 | Width:    0 | Height:    0 
#             | Tip Switch: 0 | Contact Id:    0 | X:     0 | Y:     0 | Tip Pressure:    0 | Width:    0 | Height:    0 | Scan Time:  64038 | Contact Count:    1 
E: 000000.026900 74 01 03 af 42 7b 37 02 02 00 00 00 00 00 00 00 00 00 00 00 00 00 00 00 00 00 00 00 00 00 00 00 00 00 00 00 00 00 00 00 00 00 00 00 00 00 00 00 00 00 00 00 00 00 00 00 00 00 00 00 00 00 00 00 00 00 00 00 00 00 00 00 26 fa 01
# ReportID: 1 / Tip Switch: 1 | Contact Id:    1 | X:   678 | Y:  1978 | Tip Pressure:   55 | Width:    2 | Height:    2 
#             | Tip Switch: 0 | Contact Id:    0 | X:     0 | Y:     0 | Tip Pressure:    0 | Width:    0 | Height:    0 
#             | Tip Switch: 0 | Contact Id:    0 | X:     0 | Y:     0 | Tip Pressure:    0 | Width:    0 | Height:    0 
#             | Tip Switch: 0 | Contact Id:    0 | X:     0 | Y:     0 | Tip Pressure:    0 | Width:    0 | Height:    0 
#             | Tip Switch: 0 | Contact Id:    0 | X:     0 | Y:     0 | Tip Pressure:    0 | Width:    0 | Height:    0 
#             | Tip Switch: 0 | Contact Id:    0 | X:     0 | Y:     0 | Tip Pressure:    0 | Width:    0 | Height:    0 
#             | Tip Switch: 0 | Contact Id:    0 | X:     0 | Y:     0 | Tip Pressure:    0 | Width:    0 | Height:    0 
#             | Tip Switch: 0 | Contact Id:    0 | X:     0 | Y:     0 | Tip Pressure:    0 | Width:    0 | Height:    0 
#             | Tip Switch: 0 | Contact Id:    0 | X:     0 | Y:     0 | Tip Pressure:    0 | Width:    0 | Height:    0 
#             | Tip Switch: 0 | Contact Id:    0 | X:     0 | Y:     0 | Tip Pressure:    0 | Width:    0 | Height:    0 | Scan Time:  64106 | Contact Count:    1 
E: 000000.033836 74 01 03 a6 a2 7b 37 02 02 00 00 00 00 00 00 00 00 00 00 00 00 00 00 00 00 00 00 00 00 00 00 00 00 00 00 00 00 00 00 00 00 00 00 00 00 00 00 00 00 00 00 00 00 00 00 00 00 00 00 00 00 00 00 00 00 00 00 00 00 00 00 00 6a fa 01
# ReportID: 1 / Tip Switch: 1 | Contact Id:    1 | X:   670 | Y:  1984 | Tip Pressure:   55 | Width:    2 | Height:    2 
#             | Tip Switch: 0 | Contact Id:    0 | X:     0 | Y:     0 | Tip Pressure:    0 | Width:    0 | Height:    0 
#             | Tip Switch: 0 | Contact Id:    0 | X:     0 | Y:     0 | Tip Pressure:    0 | Width:    0 | Height:    0 
#             | Tip Switch: 0 | Contact Id:    0 | X:     0 | Y:     0 | Tip Pressure:    0 | Width:    0 | Height:    0 
#             | Tip Switch: 0 | Contact Id:    0 | X:     0 | Y:     0 | Tip Pressure:    0 | Width:    0 | Height:    0 
#             | Tip Switch: 0 | Contact Id:    0 | X:     0 | Y:     0 | Tip Pressure:    0 | Width:    0 | Height:    0 
#             | Tip Switch: 0 | Contact Id:    0 | X:     0 | Y:     0 | Tip Pressure:    0 | Width:    0 | Height:    0 
#             | Tip Switch: 0 | Contact Id:    0 | X:     0 | Y:     0 | Tip Pressure:    0 | Width:    0 | Height:    0 
#             | Tip Switch: 0 | Contact Id:    0 | X:     0 | Y:     0 | Tip Pressure:    0 | Width:    0 | Height:    0 
#             | Tip Switch: 0 | Contact Id:    0 | X:     0 | Y:     0 | Tip Pressure:    0 | Width:    0 | Height:    0 | Scan Time:  64174 | Contact Count:    1 
E: 000000.041126 74 01 03 9e 02 7c 37 02 02 00 00 00 00 00 00 00 00 00 00 00 00 00 00 00 00 00 00 00 00 00 00 00 00 00 00 00 00 00 00 00 00 00 00 00 00 00 00 00 00 00 00 00 00 00 00 00 00 00 00 00 00 00 00 00 00 00 00 00 00 00 00 00 ae fa 01
# ReportID: 1 / Tip Switch: 1 | Contact Id:    1 | X:   663 | Y:  1988 | Tip Pressure:   55 | Width:    2 | Height:    2 
#             | Tip Switch: 0 | Contact Id:    0 | X:     0 | Y:     0 | Tip Pressure:    0 | Width:    0 | Height:    0 
#             | Tip Switch: 0 | Contact Id:    0 | X:     0 | Y:     0 | Tip Pressure:    0 | Width:    0 | Height:    0 
#             | Tip Switch: 0 | Contact Id:    0 | X:     0 | Y:     0 | Tip Pressure:    0 | Width:    0 | Height:    0 
#             | Tip Switch: 0 | Contact Id:    0 | X:     0 | Y:     0 | Tip Pressure:    0 | Width:    0 | Height:    0 
#             | Tip Switch: 0 | Contact Id:    0 | X:     0 | Y:     0 | Tip Pressure:    0 | Width:    0 | Height:    0 
#             | Tip Switch: 0 | Contact Id:    0 | X:     0 | Y:     0 | Tip Pressure:    0 | Width:    0 | Height:    0 
#             | Tip Switch: 0 | Contact Id:    0 | X:     0 | Y:     0 | Tip Pressure:    0 | Width:    0 | Height:    0 
#             | Tip Switch: 0 | Contact Id:    0 | X:     0 | Y:     0 | Tip Pressure:    0 | Width:    0 | Height:    0 
#             | Tip Switch: 0 | Contact Id:    0 | X:     0 | Y:     0 | Tip Pressure:    0 | Width:    0 | Height:    0 | Scan Time:  64242 | Contact Count:    1 
E: 000000.048368 74 01 03 97 42 7c 37 02 02 00 00 00 00 00 00 00 00 00 00 00 00 00 00 00 00 00 00 00 00 00 00 00 00 00 00 00 00 00 00 00 00 00 00 00 00 00 00 00 00 00 00 00 00 00 00 00 00 00 00 00 00 00 00 00 00 00 00 00 00 00 00 00 f2 fa 01
# ReportID: 1 / Tip Switch: 1 | Contact Id:    1 | X:   656 | Y:  1991 | Tip Pressure:   55 | Width:    3 | Height:    2 
#             | Tip Switch: 0 | Contact Id:    0 | X:     0 | Y:     0 | Tip Pressure:    0 | Width:    0 | Height:    0 
#             | Tip Switch: 0 | Contact Id:    0 | X:     0 | Y:     0 | Tip Pressure:    0 | Width:    0 | Height:    0 
#             | Tip Switch: 0 | Contact Id:    0 | X:     0 | Y:     0 | Tip Pressure:    0 | Width:    0 | Height:    0 
#             | Tip Switch: 0 | Contact Id:    0 | X:     0 | Y:     0 | Tip Pressure:    0 | Width:    0 | Height:    0 
#             | Tip Switch: 0 | Contact Id:    0 | X:     0 | Y:     0 | Tip Pressure:    0 | Width:    0 | Height:    0 
#             | Tip Switch: 0 | Contact Id:    0 | X:     0 | Y:     0 | Tip Pressure:    0 | Width:    0 | Height:    0 
#             | Tip Switch: 0 | Contact Id:    0 | X:     0 | Y:     0 | Tip Pressure:    0 | Width:    0 | Height:    0 
#             | Tip Switch: 0 | Contact Id:    0 | X:     0 | Y:     0 | Tip Pressure:    0 | Width:    0 | Height:    0 
#             | Tip Switch: 0 | Contact Id:    0 | X:     0 | Y:     0 | Tip Pressure:    0 | Width:    0 | Height:    0 | Scan Time:  64310 | Contact Count:    1 
E: 000000.054823 74 01 03 90 72 7c 37 03 02 00 00 00 00 00 00 00 00 00 00 00 00 00 00 00 00 00 00 00 00 00 00 00 00 00 00 00 00 00 00 00 00 00 00 00 00 00 00 00 00 00 00 00 00 00 00 00 00 00 00 00 00 00 00 00 00 00 00 00 00 00 00 00 36 fb 01
# ReportID: 1 / Tip Switch: 1 | Contact Id:    1 | X:   648 | Y:  1994 | Tip Pressure:   55 | Width:    3 | Height:    2 
#             | Tip Switch: 0 | Contact Id:    0 | X:     0 | Y:     0 | Tip Pressure:    0 | Width:    0 | Height:    0 
#             | Tip Switch: 0 | Contact Id:    0 | X:     0 | Y:     0 | Tip Pressure:    0 | Width:    0 | Height:    0 
#             | Tip Switch: 0 | Contact Id:    0 | X:     0 | Y:     0 | Tip Pressure:    0 | Width:    0 | Height:    0 
#             | Tip Switch: 0 | Contact Id:    0 | X:     0 | Y:     0 | Tip Pressure:    0 | Width:    0 | Height:    0 
#             | Tip Switch: 0 | Contact Id:    0 | X:     0 | Y:     0 | Tip Pressure:    0 | Width:    0 | Height:    0 
#             | Tip Switch: 0 | Contact Id:    0 | X:     0 | Y:     0 | Tip Pressure:    0 | Width:    0 | Height:    0 
#             | Tip Switch: 0 | Contact Id:    0 | X:     0 | Y:     0 | Tip Pressure:    0 | Width:    0 | Height:    0 
#             | Tip Switch: 0 | Contact Id:    0 | X:     0 | Y:     0 | Tip Pressure:    0 | Width:    0 | Height:    0 
#             | Tip Switch: 0 | Contact Id:    0 | X:     0 | Y:     0 | Tip Pressure:    0 | Width:    0 | Height:    0 | Scan Time:  64378 | Contact Count:    1 
E: 000000.061706 74 01 03 88 a2 7c 37 03 02 00 00 00 00 00 00 00 00 00 00 00 00 00 00 00 00 00 00 00 00 00 00 00 00 00 00 00 00 00 00 00 00 00 00 00 00 00 00 00 00 00 00 00 00 00 00 00 00 00 00 00 00 00 00 00 00 00 00 00 00 00 00 00 7a fb 01
# ReportID: 1 / Tip Switch: 1 | Contact Id:    1 | X:   640 | Y:  1996 | Tip Pressure:   56 | Width:    2 | Height:    2 
#             | Tip Switch: 0 | Contact Id:    0 | X:     0 | Y:     0 | Tip Pressure:    0 | Width:    0 | Height:    0 
#             | Tip Switch: 0 | Contact Id:    0 | X:     0 | Y:     0 | Tip Pressure:    0 | Width:    0 | Height:    0 
#             | Tip Switch: 0 | Contact Id:    0 | X:     0 | Y:     0 | Tip Pressure:    0 | Width:    0 | Height:    0 
#             | Tip Switch: 0 | Contact Id:    0 | X:     0 | Y:     0 | Tip Pressure:    0 | Width:    0 | Height:    0 
#             | Tip Switch: 0 | Contact Id:    0 | X:     0 | Y:     0 | Tip Pressure:    0 | Width:    0 | Height:    0 
#             | Tip Switch: 0 | Contact Id:    0 | X:     0 | Y:     0 | Tip Pressure:    0 | Width:    0 | Height:    0 
#             | Tip Switch: 0 | Contact Id:    0 | X:     0 | Y:     0 | Tip Pressure:    0 | Width:    0 | Height:    0 
#             | Tip Switch: 0 | Contact Id:    0 | X:     0 | Y:     0 | Tip Pressure:    0 | Width:    0 | Height:    0 
#             | Tip Switch: 0 | Contact Id:    0 | X:     0 | Y:     0 | Tip Pressure:    0 | Width:    0 | Height:    0 | Scan Time:  64446 | Contact Count:    1 
E: 000000.068677 74 01 03 80 c2 7c 38 02 02 00 00 00 00 00 00 00 00 00 00 00 00 00 00 00 00 00 00 00 00 00 00 00 00 00 00 00 00 00 00 00 00 00 00 00 00 00 00 00 00 00 00 00 00 00 00 00 00 00 00 00 00 00 00 00 00 00 00 00 00 00 00 00 be fb 01
# ReportID: 1 / Tip Switch: 1 | Contact Id:    1 | X:   632 | Y:  1998 | Tip Pressure:   56 | Width:    2 | Height:    2 
#             | Tip Switch: 0 | Contact Id:    0 | X:     0 | Y:     0 | Tip Pressure:    0 | Width:    0 | Height:    0 
#             | Tip Switch: 0 | Contact Id:    0 | X:     0 | Y:     0 | Tip Pressure:    0 | Width:    0 | Height:    0 
#             | Tip Switch: 0 | Contact Id:    0 | X:     0 | Y:     0 | Tip Pressure:    0 | Width:    0 | Height:    0 
#             | Tip Switch: 0 | Contact Id:    0 | X:     0 | Y:     0 | Tip Pressure:    0 | Width:    0 | Height:    0 
#             | Tip Switch: 0 | Contact Id:    0 | X:     0 | Y:     0 | Tip Pressure:    0 | Width:    0 | Height:    0 
#             | Tip Switch: 0 | Contact Id:    0 | X:     0 | Y:     0 | Tip Pressure:    0 | Width:    0 | Height:    0 
#             | Tip Switch: 0 | Contact Id:    0 | X:     0 | Y:     0 | Tip Pressure:    0 | Width:    0 | Height:    0 
#             | Tip Switch: 0 | Contact Id:    0 | X:     0 | Y:     0 | Tip Pressure:    0 | Width:    0 | Height:    0 
#             | Tip Switch: 0 | Contact Id:    0 | X:     0 | Y:     0 | Tip Pressure:    0 | Width:    0 | Height:    0 | Scan Time:  64514 | Contact Count:    1 
E: 000000.075574 74 01 03 78 e2 7c 38 02 02 00 00 00 00 00 00 00 00 00 00 00 00 00 00 00 00 00 00 00 00 00 00 00 00 00 00 00 00 00 00 00 00 00 00 00 00 00 00 00 00 00 00 00 00 00 00 00 00 00 00 00 00 00 00 00 00 00 00 00 00 00 00 00 02 fc 01
# ReportID: 1 / Tip Switch: 1 | Contact Id:    1 | X:   624 | Y:  1999 | Tip Pressure:   56 | Width:    2 | Height:    2 
#             | Tip Switch: 0 | Contact Id:    0 | X:     0 | Y:     0 | Tip Pressure:    0 | Width:    0 | Height:    0 
#             | Tip Switch: 0 | Contact Id:    0 | X:     0 | Y:     0 | Tip Pressure:    0 | Width:    0 | Height:    0 
#             | Tip Switch: 0 | Contact Id:    0 | X:     0 | Y:     0 | Tip Pressure:    0 | Width:    0 | Height:    0 
#             | Tip Switch: 0 | Contact Id:    0 | X:     0 | Y:     0 | Tip Pressure:    0 | Width:    0 | Height:    0 
#             | Tip Switch: 0 | Contact Id:    0 | X:     0 | Y:     0 | Tip Pressure:    0 | Width:    0 | Height:    0 
#             | Tip Switch: 0 | Contact Id:    0 | X:     0 | Y:     0 | Tip Pressure:    0 | Width:    0 | Height:    0 
#             | Tip Switch: 0 | Contact Id:    0 | X:     0 | Y:     0 | Tip Pressure:    0 | Width:    0 | Height:    0 
#             | Tip Switch: 0 | Contact Id:    0 | X:     0 | Y:     0 | Tip Pressure:    0 | Width:    0 | Height:    0 
#             | Tip Switch: 0 | Contact Id:    0 | X:     0 | Y:     0 | Tip Pressure:    0 | Width:    0 | Height:    0 | Scan Time:  64582 | Contact Count:    1 
E: 000000.082520 74 01 03 70 f2 7c 38 02 02 00 00 00 00 00 00 00 00 00 00 00 00 00 00 00 00 00 00 00 00 00 00 00 00 00 00 00 00 00 00 00 00 00 00 00 00 00 00 00 00 00 00 00 00 00 00 00 00 00 00 00 00 00 00 00 00 00 00 00 00 00 00 00 46 fc 01
# ReportID: 1 / Tip Switch: 1 | Contact Id:    1 | X:   616 | Y:  2000 | Tip Pressure:   56 | Width:    2 | Height:    2 
#             | Tip Switch: 0 | Contact Id:    0 | X:     0 | Y:     0 | Tip Pressure:    0 | Width:    0 | Height:    0 
#             | Tip Switch: 0 | Contact Id:    0 | X:     0 | Y:     0 | Tip Pressure:    0 | Width:    0 | Height:    0 
#             | Tip Switch: 0 | Contact Id:    0 | X:     0 | Y:     0 | Tip Pressure:    0 | Width:    0 | Height:    0 
#             | Tip Switch: 0 | Contact Id:    0 | X:     0 | Y:     0 | Tip Pressure:    0 | Width:    0 | Height:    0 
#             | Tip Switch: 0 | Contact Id:    0 | X:     0 | Y:     0 | Tip Pressure:    0 | Width:    0 | Height:    0 
#             | Tip Switch: 0 | Contact Id:    0 | X:     0 | Y:     0 | Tip Pressure:    0 | Width:    0 | Height:    0 
#             | Tip Switch: 0 | Contact Id:    0 | X:     0 | Y:     0 | Tip Pressure:    0 | Width:    0 | Height:    0 
#             | Tip Switch: 0 | Contact Id:    0 | X:     0 | Y:     0 | Tip Pressure:    0 | Width:    0 | Height:    0 
#             | Tip Switch: 0 | Contact Id:    0 | X:     0 | Y:     0 | Tip Pressure:    0 | Width:    0 | Height:    0 | Scan Time:  64650 | Contact Count:    1 
E: 000000.089506 74 01 03 68 02 7d 38 02 02 00 00 00 00 00 00 00 00 00 00 00 00 00 00 00 00 00 00 00 00 00 00 00 00 00 00 00 00 00 00 00 00 00 00 00 00 00 00 00 00 00 00 00 00 00 00 00 00 00 00 00 00 00 00 00 00 00 00 00 00 00 00 00 8a fc 01
# ReportID: 1 / Tip Switch: 1 | Contact Id:    1 | X:   609 | Y:  2000 | Tip Pressure:   56 | Width:    2 | Height:    2 
#             | Tip Switch: 0 | Contact Id:    0 | X:     0 | Y:     0 | Tip Pressure:    0 | Width:    0 | Height:    0 
#             | Tip Switch: 0 | Contact Id:    0 | X:     0 | Y:     0 | Tip Pressure:    0 | Width:    0 | Height:    0 
#             | Tip Switch: 0 | Contact Id:    0 | X:     0 | Y:     0 | Tip Pressure:    0 | Width:    0 | Height:    0 
#             | Tip Switch: 0 | Contact Id:    0 | X:     0 | Y:     0 | Tip Pressure:    0 | Width:    0 | Height:    0 
#             | Tip Switch: 0 | Contact Id:    0 | X:     0 | Y:     0 | Tip Pressure:    0 | Width:    0 | Height:    0 
#             | Tip Switch: 0 | Contact Id:    0 | X:     0 | Y:     0 | Tip Pressure:    0 | Width:    0 | Height:    0 
#             | Tip Switch: 0 | Contact Id:    0 | X:     0 | Y:     0 | Tip Pressure:    0 | Width:    0 | Height:    0 
#             | Tip Switch: 0 | Contact Id:    0 | X:     0 | Y:     0 | Tip Pressure:    0 | Width:    0 | Height:    0 
#             | Tip Switch: 0 | Contact Id:    0 | X:     0 | Y:     0 | Tip Pressure:    0 | Width:    0 | Height:    0 | Scan Time:  64718 | Contact Count:    1 
E: 000000.096432 74 01 03 61 02 7d 38 02 02 00 00 00 00 00 00 00 00 00 00 00 00 00 00 00 00 00 00 00 00 00 00 00 00 00 00 00 00 00 00 00 00 00 00 00 00 00 00 00 00 00 00 00 00 00 00 00 00 00 00 00 00 00 00 00 00 00 00 00 00 00 00 00 ce fc 01
# ReportID: 1 / Tip Switch: 1 | Contact Id:    1 | X:   601 | Y:  2000 | Tip Pressure:   56 | Width:    3 | Height:    2 
#             | Tip Switch: 0 | Contact Id:    0 | X:     0 | Y:     0 | Tip Pressure:    0 | Width:    0 | Height:    0 
#             | Tip Switch: 0 | Contact Id:    0 | X:     0 | Y:     0 | Tip Pressure:    0 | Width:    0 | Height:    0 
#             | Tip Switch: 0 | Contact Id:    0 | X:     0 | Y:     0 | Tip Pressure:    0 | Width:    0 | Height:    0 
#             | Tip Switch: 0 | Contact Id:    0 | X:     0 | Y:     0 | Tip Pressure:    0 | Width:    0 | Height:    0 
#             | Tip Switch: 0 | Contact Id:    0 | X:     0 | Y:     0 | Tip Pressure:    0 | Width:    0 | Height:    0 
#             | Tip Switch: 0 | Contact Id:    0 | X:     0 | Y:     0 | Tip Pressure:    0 | Width:    0 | Height:    0 
#             | Tip Switch: 0 | Contact Id:    0 | X:     0 | Y:     0 | Tip Pressure:    0 | Width:    0 | Height:    0 
#             | Tip Switch: 0 | Contact Id:    0 | X:     0 | Y:     0 | Tip Pressure:    0 | Width:    0 | Height:    0 
#             | Tip Switch: 0 | Contact Id:    0 | X:     0 | Y:     0 | Tip Pressure:    0 | Width:    0 | Height:    0 | Scan Time:  64786 | Contact Count:    1 
E: 000000.103450 74 01 03 59 02 7d 38 03 02 00 00 00 00 00 00 00 00 00 00 00 00 00 00 00 00 00 00 00 00 00 00 00 00 00 00 00 00 00 00 00 00 00 00 00 00 00 00 00 00 00 00 00 00 00 00 00 00 00 00 00 00 00 00 00 00 00 00 00 00 00 00 00 12 fd 01
# ReportID: 1 / Tip Switch: 1 | Contact Id:    1 | X:   592 | Y:  2000 | Tip Pressure:   56 | Width:    2 | Height:    2 
#             | Tip Switch: 0 | Contact Id:    0 | X:     0 | Y:     0 | Tip Pressure:    0 | Width:    0 | Height:    0 
#             | Tip Switch: 0 | Contact Id:    0 | X:     0 | Y:     0 | Tip Pressure:    0 | Width:    0 | Height:    0 
#             | Tip Switch: 0 | Contact Id:    0 | X:     0 | Y:     0 | Tip Pressure:    0 | Width:    0 | Height:    0 
#             | Tip Switch: 0 | Contact Id:    0 | X:     0 | Y:     0 | Tip Pressure:    0 | Width:    0 | Height:    0 
#             | Tip Switch: 0 | Contact Id:    0 | X:     0 | Y:     0 | Tip Pressure:    0 | Width:    0 | Height:    0 
#             | Tip Switch: 0 | Contact Id:    0 | X:     0 | Y:     0 | Tip Pressure:    0 | Width:    0 | Height:    0 
#             | Tip Switch: 0 | Contact Id:    0 | X:     0 | Y:     0 | Tip Pressure:    0 | Width:    0 | Height:    0 
#             | Tip Switch: 0 | Contact Id:    0 | X:     0 | Y:     0 | Tip Pressure:    0 | Width:    0 | Height:    0 
#             | Tip Switch: 0 | Contact Id:    0 | X:     0 | Y:     0 | Tip Pressure:    0 | Width:    0 | Height:    0 | Scan Time:  64854 | Contact Count:    1 
E: 000000.110396 74 01 03 50 02 7d 38 02 02 00 00 00 00 00 00 00 00 00 00 00 00 00 00 00 00 00 00 00 00 00 00 00 00 00 00 00 00 00 00 00 00 00 00 00 00 00 00 00 00 00 00 00 00 00 00 00 00 00 00 00 00 00 00 00 00 00 00 00 00 00 00 00 56 fd 01
# ReportID: 1 / Tip Switch: 1 | Contact Id:    1 | X:   583 | Y:  1999 | Tip Pressure:   56 | Width:    2 | Height:    2 
#             | Tip Switch: 0 | Contact Id:    0 | X:     0 | Y:     0 | Tip Pressure:    0 | Width:    0 | Height:    0 
#             | Tip Switch: 0 | Contact Id:    0 | X:     0 | Y:     0 | Tip Pressure:    0 | Width:    0 | Height:    0 
#             | Tip Switch: 0 | Contact Id:    0 | X:     0 | Y:     0 | Tip Pressure:    0 | Width:    0 | Height:    0 
#             | Tip Switch: 0 | Contact Id:    0 | X:     0 | Y:     0 | Tip Pressure:    0 | Width:    0 | Height:    0 
#             | Tip Switch: 0 | Contact Id:    0 | X:     0 | Y:     0 | Tip Pressure:    0 | Width:    0 | Height:    0 
#             | Tip Switch: 0 | Contact Id:    0 | X:     0 | Y:     0 | Tip Pressure:    0 | Width:    0 | Height:    0 
#             | Tip Switch: 0 | Contact Id:    0 | X:     0 | Y:     0 | Tip Pressure:    0 | Width:    0 | Height:    0 
#             | Tip Switch: 0 | Contact Id:    0 | X:     0 | Y:     0 | Tip Pressure:    0 | Width:    0 | Height:    0 
#             | Tip Switch: 0 | Contact Id:    0 | X:     0 | Y:     0 | Tip Pressure:    0 | Width:    0 | Height:    0 | Scan Time:  64922 | Contact Count:    1 
E: 000000.117376 74 01 03 47 f2 7c 38 02 02 00 00 00 00 00 00 00 00 00 00 00 00 00 00 00 00 00 00 00 00 00 00 00 00 00 00 00 00 00 00 00 00 00 00 00 00 00 00 00 00 00 00 00 00 00 00 00 00 00 00 00 00 00 00 00 00 00 00 00 00 00 00 00 9a fd 01
# ReportID: 1 / Tip Switch: 1 | Contact Id:    1 | X:   574 | Y:  1997 | Tip Pressure:   56 | Width:    2 | Height:    2 
#             | Tip Switch: 0 | Contact Id:    0 | X:     0 | Y:     0 | Tip Pressure:    0 | Width:    0 | Height:    0 
#             | Tip Switch: 0 | Contact Id:    0 | X:     0 | Y:     0 | Tip Pressure:    0 | Width:    0 | Height:    0 
#             | Tip Switch: 0 | Contact Id:    0 | X:     0 | Y:     0 | Tip Pressure:    0 | Width:    0 | Height:    0 
#             | Tip Switch: 0 | Contact Id:    0 | X:     0 | Y:     0 | Tip Pressure:    0 | Width:    0 | Height:    0 
#             | Tip Switch: 0 | Contact Id:    0 | X:     0 | Y:     0 | Tip Pressure:    0 | Width:    0 | Height:    0 
#             | Tip Switch: 0 | Contact Id:    0 | X:     0 | Y:     0 | Tip Pressure:    0 | Width:    0 | Height:    0 
#             | Tip Switch: 0 | Contact Id:    0 | X:     0 | Y:     0 | Tip Pressure:    0 | Width:    0 | Height:    0 
#             | Tip Switch: 0 | Contact Id:    0 | X:     0 | Y:     0 | Tip Pressure:    0 | Width:    0 | Height:    0 
#             | Tip Switch: 0 | Contact Id:    0 | X:     0 | Y:     0 | Tip Pressure:    0 | Width:    0 | Height:    0 | Scan Time:  64990 | Contact Count:    1 
E: 000000.124906 74 01 03 3e d2 7c 38 02 02 00 00 00 00 00 00 00 00 00 00 00 00 00 00 00 00 00 00 00 00 00 00 00 00 00 00 00 00 00 00 00 00 00 00 00 00 00 00 00 00 00 00 00 00 00 00 00 00 00 00 00 00 00 00 00 00 00 00 00 00 00 00 00 de fd 01
# ReportID: 1 / Tip Switch: 1 | Contact Id:    1 | X:   566 | Y:  1995 | Tip Pressure:   56 | Width:    2 | Height:    3 
#             | Tip Switch: 0 | Contact Id:    0 | X:     0 | Y:     0 | Tip Pressure:    0 | Width:    0 | Height:    0 
#             | Tip Switch: 0 | Contact Id:    0 | X:     0 | Y:     0 | Tip Pressure:    0 | Width:    0 | Height:    0 
#             | Tip Switch: 0 | Contact Id:    0 | X:     0 | Y:     0 | Tip Pressure:    0 | Width:    0 | Height:    0 
#             | Tip Switch: 0 | Contact Id:    0 | X:     0 | Y:     0 | Tip Pressure:    0 | Width:    0 | Height:    0 
#             | Tip Switch: 0 | Contact Id:    0 | X:     0 | Y:     0 | Tip Pressure:    0 | Width:    0 | Height:    0 
#             | Tip Switch: 0 | Contact Id:    0 | X:     0 | Y:     0 | Tip Pressure:    0 | Width:    0 | Height:    0 
#             | Tip Switch: 0 | Contact Id:    0 | X:     0 | Y:     0 | Tip Pressure:    0 | Width:    0 | Height:    0 
#             | Tip Switch: 0 | Contact Id:    0 | X:     0 | Y:     0 | Tip Pressure:    0 | Width:    0 | Height:    0 
#             | Tip Switch: 0 | Contact Id:    0 | X:     0 | Y:     0 | Tip Pressure:    0 | Width:    0 | Height:    0 | Scan Time:  65058 | Contact Count:    1 
E: 000000.131315 74 01 03 36 b2 7c 38 02 03 00 00 00 00 00 00 00 00 00 00 00 00 00 00 00 00 00 00 00 00 00 00 00 00 00 00 00 00 00 00 00 00 00 00 00 00 00 00 00 00 00 00 00 00 00 00 00 00 00 00 00 00 00 00 00 00 00 00 00 00 00 00 00 22 fe 01
# ReportID: 1 / Tip Switch: 1 | Contact Id:    1 | X:   558 | Y:  1993 | Tip Pressure:   56 | Width:    3 | Height:    3 
#             | Tip Switch: 0 | Contact Id:    0 | X:     0 | Y:     0 | Tip Pressure:    0 | Width:    0 | Height:    0 
#             | Tip Switch: 0 | Contact Id:    0 | X:     0 | Y:     0 | Tip Pressure:    0 | Width:    0 | Height:    0 
#             | Tip Switch: 0 | Contact Id:    0 | X:     0 | Y:     0 | Tip Pressure:    0 | Width:    0 | Height:    0 
#             | Tip Switch: 0 | Contact Id:    0 | X:     0 | Y:     0 | Tip Pressure:    0 | Width:    0 | Height:    0 
#             | Tip Switch: 0 | Contact Id:    0 | X:     0 | Y:     0 | Tip Pressure:    0 | Width:    0 | Height:    0 
#             | Tip Switch: 0 | Contact Id:    0 | X:     0 | Y:     0 | Tip Pressure:    0 | Width:    0 | Height:    0 
#             | Tip Switch: 0 | Contact Id:    0 | X:     0 | Y:     0 | Tip Pressure:    0 | Width:    0 | Height:    0 
#             | Tip Switch: 0 | Contact Id:    0 | X:     0 | Y:     0 | Tip Pressure:    0 | Width:    0 | Height:    0 
#             | Tip Switch: 0 | Contact Id:    0 | X:     0 | Y:     0 | Tip Pressure:    0 | Width:    0 | Height:    0 | Scan Time:  65126 | Contact Count:    1 
E: 000000.138283 74 01 03 2e 92 7c 38 03 03 00 00 00 00 00 00 00 00 00 00 00 00 00 00 00 00 00 00 00 00 00 00 00 00 00 00 00 00 00 00 00 00 00 00 00 00 00 00 00 00 00 00 00 00 00 00 00 00 00 00 00 00 00 00 00 00 00 00 00 00 00 00 00 66 fe 01
# ReportID: 1 / Tip Switch: 1 | Contact Id:    1 | X:   550 | Y:  1990 | Tip Pressure:   56 | Width:    3 | Height:    3 
#             | Tip Switch: 0 | Contact Id:    0 | X:     0 | Y:     0 | Tip Pressure:    0 | Width:    0 | Height:    0 
#             | Tip Switch: 0 | Contact Id:    0 | X:     0 | Y:     0 | Tip Pressure:    0 | Width:    0 | Height:    0 
#             | Tip Switch: 0 | Contact Id:    0 | X:     0 | Y:     0 | Tip Pressure:    0 | Width:    0 | Height:    0 
#             | Tip Switch: 0 | Contact Id:    0 | X:     0 | Y:     0 | Tip Pressure:    0 | Width:    0 | Height:    0 
#             | Tip Switch: 0 | Contact Id:    0 | X:     0 | Y:     0 | Tip Pressure:    0 | Width:    0 | Height:    0 
#             | Tip Switch: 0 | Contact Id:    0 | X:     0 | Y:     0 | Tip Pressure:    0 | Width:    0 | Height:    0 
#             | Tip Switch: 0 | Contact Id:    0 | X:     0 | Y:     0 | Tip Pressure:    0 | Width:    0 | Height:    0 
#             | Tip Switch: 0 | Contact Id:    0 | X:     0 | Y:     0 | Tip Pressure:    0 | Width:    0 | Height:    0 
#             | Tip Switch: 0 | Contact Id:    0 | X:     0 | Y:     0 | Tip Pressure:    0 | Width:    0 | Height:    0 | Scan Time:  65194 | Contact Count:    1 
E: 000000.145216 74 01 03 26 62 7c 38 03 03 00 00 00 00 00 00 00 00 00 00 00 00 00 00 00 00 00 00 00 00 00 00 00 00 00 00 00 00 00 00 00 00 00 00 00 00 00 00 00 00 00 00 00 00 00 00 00 00 00 00 00 00 00 00 00 00 00 00 00 00 00 00 00 aa fe 01
# ReportID: 1 / Tip Switch: 1 | Contact Id:    1 | X:   542 | Y:  1987 | Tip Pressure:   56 | Width:    2 | Height:    3 
#             | Tip Switch: 0 | Contact Id:    0 | X:     0 | Y:     0 | Tip Pressure:    0 | Width:    0 | Height:    0 
#             | Tip Switch: 0 | Contact Id:    0 | X:     0 | Y:     0 | Tip Pressure:    0 | Width:    0 | Height:    0 
#             | Tip Switch: 0 | Contact Id:    0 | X:     0 | Y:     0 | Tip Pressure:    0 | Width:    0 | Height:    0 
#             | Tip Switch: 0 | Contact Id:    0 | X:     0 | Y:     0 | Tip Pressure:    0 | Width:    0 | Height:    0 
#             | Tip Switch: 0 | Contact Id:    0 | X:     0 | Y:     0 | Tip Pressure:    0 | Width:    0 | Height:    0 
#             | Tip Switch: 0 | Contact Id:    0 | X:     0 | Y:     0 | Tip Pressure:    0 | Width:    0 | Height:    0 
#             | Tip Switch: 0 | Contact Id:    0 | X:     0 | Y:     0 | Tip Pressure:    0 | Width:    0 | Height:    0 
#             | Tip Switch: 0 | Contact Id:    0 | X:     0 | Y:     0 | Tip Pressure:    0 | Width:    0 | Height:    0 
#             | Tip Switch: 0 | Contact Id:    0 | X:     0 | Y:     0 | Tip Pressure:    0 | Width:    0 | Height:    0 | Scan Time:  65262 | Contact Count:    1 
E: 000000.152143 74 01 03 1e 32 7c 38 02 03 00 00 00 00 00 00 00 00 00 00 00 00 00 00 00 00 00 00 00 00 00 00 00 00 00 00 00 00 00 00 00 00 00 00 00 00 00 00 00 00 00 00 00 00 00 00 00 00 00 00 00 00 00 00 00 00 00 00 00 00 00 00 00 ee fe 01
# ReportID: 1 / Tip Switch: 1 | Contact Id:    1 | X:   535 | Y:  1983 | Tip Pressure:   56 | Width:    2 | Height:    3 
#             | Tip Switch: 0 | Contact Id:    0 | X:     0 | Y:     0 | Tip Pressure:    0 | Width:    0 | Height:    0 
#             | Tip Switch: 0 | Contact Id:    0 | X:     0 | Y:     0 | Tip Pressure:    0 | Width:    0 | Height:    0 
#             | Tip Switch: 0 | Contact Id:    0 | X:     0 | Y:     0 | Tip Pressure:    0 | Width:    0 | Height:    0 
#             | Tip Switch: 0 | Contact Id:    0 | X:     0 | Y:     0 | Tip Pressure:    0 | Width:    0 | Height:    0 
#             | Tip Switch: 0 | Contact Id:    0 | X:     0 | Y:     0 | Tip Pressure:    0 | Width:    0 | Height:    0 
#             | Tip Switch: 0 | Contact Id:    0 | X:     0 | Y:     0 | Tip Pressure:    0 | Width:    0 | Height:    0 
#             | Tip Switch: 0 | Contact Id:    0 | X:     0 | Y:     0 | Tip Pressure:    0 | Width:    0 | Height:    0 
#             | Tip Switch: 0 | Contact Id:    0 | X:     0 | Y:     0 | Tip Pressure:    0 | Width:    0 | Height:    0 
#             | Tip Switch: 0 | Contact Id:    0 | X:     0 | Y:     0 | Tip Pressure:    0 | Width:    0 | Height:    0 | Scan Time:  65330 | Contact Count:    1 
E: 000000.159214 74 01 03 17 f2 7b 38 02 03 00 00 00 00 00 00 00 00 00 00 00 00 00 00 00 00 00 00 00 00 00 00 00 00 00 00 00 00 00 00 00 00 00 00 00 00 00 00 00 00 00 00 00 00 00 00 00 00 00 00 00 00 00 00 00 00 00 00 00 00 00 00 00 32 ff 01
# ReportID: 1 / Tip Switch: 1 | Contact Id:    1 | X:   528 | Y:  1980 | Tip Pressure:   56 | Width:    2 | Height:    3 
#             | Tip Switch: 0 | Contact Id:    0 | X:     0 | Y:     0 | Tip Pressure:    0 | Width:    0 | Height:    0 
#             | Tip Switch: 0 | Contact Id:    0 | X:     0 | Y:     0 | Tip Pressure:    0 | Width:    0 | Height:    0 
#             | Tip Switch: 0 | Contact Id:    0 | X:     0 | Y:     0 | Tip Pressure:    0 | Width:    0 | Height:    0 
#             | Tip Switch: 0 | Contact Id:    0 | X:     0 | Y:     0 | Tip Pressure:    0 | Width:    0 | Height:    0 
#             | Tip Switch: 0 | Contact Id:    0 | X:     0 | Y:     0 | Tip Pressure:    0 | Width:    0 | Height:    0 
#             | Tip Switch: 0 | Contact Id:    0 | X:     0 | Y:     0 | Tip Pressure:    0 | Width:    0 | Height:    0 
#             | Tip Switch: 0 | Contact Id:    0 | X:     0 | Y:     0 | Tip Pressure:    0 | Width:    0 | Height:    0 
#             | Tip Switch: 0 | Contact Id:    0 | X:     0 | Y:     0 | Tip Pressure:    0 | Width:    0 | Height:    0 
#             | Tip Switch: 0 | Contact Id:    0 | X:     0 | Y:     0 | Tip Pressure:    0 | Width:    0 | Height:    0 | Scan Time:  65398 | Contact Count:    1 
E: 000000.166065 74 01 03 10 c2 7b 38 02 03 00 00 00 00 00 00 00 00 00 00 00 00 00 00 00 00 00 00 00 00 00 00 00 00 00 00 00 00 00 00 00 00 00 00 00 00 00 00 00 00 00 00 00 00 00 00 00 00 00 00 00 00 00 00 00 00 00 00 00 00 00 00 00 76 ff 01
# ReportID: 1 / Tip Switch: 1 | Contact Id:    1 | X:   521 | Y:  1977 | Tip Pressure:   56 | Width:    2 | Height:    3 
#             | Tip Switch: 0 | Contact Id:    0 | X:     0 | Y:     0 | Tip Pressure:    0 | Width:    0 | Height:    0 
#             | Tip Switch: 0 | Contact Id:    0 | X:     0 | Y:     0 | Tip Pressure:    0 | Width:    0 | Height:    0 
#             | Tip Switch: 0 | Contact Id:    0 | X:     0 | Y:     0 | Tip Pressure:    0 | Width:    0 | Height:    0 
#             | Tip Switch: 0 | Contact Id:    0 | X:     0 | Y:     0 | Tip Pressure:    0 | Width:    0 | Height:    0 
#             | Tip Switch: 0 | Contact Id:    0 | X:     0 | Y:     0 | Tip Pressure:    0 | Width:    0 | Height:    0 
#             | Tip Switch: 0 | Contact Id:    0 | X:     0 | Y:     0 | Tip Pressure:    0 | Width:    0 | Height:    0 
#             | Tip Switch: 0 | Contact Id:    0 | X:     0 | Y:     0 | Tip Pressure:    0 | Width:    0 | Height:    0 
#             | Tip Switch: 0 | Contact Id:    0 | X:     0 | Y:     0 | Tip Pressure:    0 | Width:    0 | Height:    0 
#             | Tip Switch: 0 | Contact Id:    0 | X:     0 | Y:     0 | Tip Pressure:    0 | Width:    0 | Height:    0 | Scan Time:  65466 | Contact Count:    1 
E: 000000.173035 74 01 03 09 92 7b 38 02 03 00 00 00 00 00 00 00 00 00 00 00 00 00 00 00 00 00 00 00 00 00 00 00 00 00 00 00 00 00 00 00 00 00 00 00 00 00 00 00 00 00 00 00 00 00 00 00 00 00 00 00 00 00 00 00 00 00 00 00 00 00 00 00 ba ff 01
# ReportID: 1 / Tip Switch: 1 | Contact Id:    1 | X:   515 | Y:  1974 | Tip Pressure:   56 | Width:    2 | Height:    3 
#             | Tip Switch: 0 | Contact Id:    0 | X:     0 | Y:     0 | Tip Pressure:    0 | Width:    0 | Height:    0 
#             | Tip Switch: 0 | Contact Id:    0 | X:     0 | Y:     0 | Tip Pressure:    0 | Width:    0 | Height:    0 
#             | Tip Switch: 0 | Contact Id:    0 | X:     0 | Y:     0 | Tip Pressure:    0 | Width:    0 | Height:    0 
#             | Tip Switch: 0 | Contact Id:    0 | X:     0 | Y:     0 | Tip Pressure:    0 | Width:    0 | Height:    0 
#             | Tip Switch: 0 | Contact Id:    0 | X:     0 | Y:     0 | Tip Pressure:    0 | Width:    0 | Height:    0 
#             | Tip Switch: 0 | Contact Id:    0 | X:     0 | Y:     0 | Tip Pressure:    0 | Width:    0 | Height:    0 
#             | Tip Switch: 0 | Contact Id:    0 | X:     0 | Y:     0 | Tip Pressure:    0 | Width:    0 | Height:    0 
#             | Tip Switch: 0 | Contact Id:    0 | X:     0 | Y:     0 | Tip Pressure:    0 | Width:    0 | Height:    0 
#             | Tip Switch: 0 | Contact Id:    0 | X:     0 | Y:     0 | Tip Pressure:    0 | Width:    0 | Height:    0 | Scan Time:  65534 | Contact Count:    1 
E: 000000.179994 74 01 03 03 62 7b 38 02 03 00 00 00 00 00 00 00 00 00 00 00 00 00 00 00 00 00 00 00 00 00 00 00 00 00 00 00 00 00 00 00 00 00 00 00 00 00 00 00 00 00 00 00 00 00 00 00 00 00 00 00 00 00 00 00 00 00 00 00 00 00 00 00 fe ff 01
# ReportID: 1 / Tip Switch: 1 | Contact Id:    1 | X:   509 | Y:  1971 | Tip Pressure:   56 | Width:    2 | Height:    3 
#             | Tip Switch: 0 | Contact Id:    0 | X:     0 | Y:     0 | Tip Pressure:    0 | Width:    0 | Height:    0 
#             | Tip Switch: 0 | Contact Id:    0 | X:     0 | Y:     0 | Tip Pressure:    0 | Width:    0 | Height:    0 
#             | Tip Switch: 0 | Contact Id:    0 | X:     0 | Y:     0 | Tip Pressure:    0 | Width:    0 | Height:    0 
#             | Tip Switch: 0 | Contact Id:    0 | X:     0 | Y:     0 | Tip Pressure:    0 | Width:    0 | Height:    0 
#             | Tip Switch: 0 | Contact Id:    0 | X:     0 | Y:     0 | Tip Pressure:    0 | Width:    0 | Height:    0 
#             | Tip Switch: 0 | Contact Id:    0 | X:     0 | Y:     0 | Tip Pressure:    0 | Width:    0 | Height:    0 
#             | Tip Switch: 0 | Contact Id:    0 | X:     0 | Y:     0 | Tip Pressure:    0 | Width:    0 | Height:    0 
#             | Tip Switch: 0 | Contact Id:    0 | X:     0 | Y:     0 | Tip Pressure:    0 | Width:    0 | Height:    0 
#             | Tip Switch: 0 | Contact Id:    0 | X:     0 | Y:     0 | Tip Pressure:    0 | Width:    0 | Height:    0 | Scan Time:     66 | Contact Count:    1 
E: 000000.187039 74 01 03 fd 31 7b 38 02 03 00 00 00 00 00 00 00 00 00 00 00 00 00 00 00 00 00 00 00 00 00 00 00 00 00 00 00 00 00 00 00 00 00 00 00 00 00 00 00 00 00 00 00 00 00 00 00 00 00 00 00 00 00 00 00 00 00 00 00 00 00 00 00 42 00 01
# ReportID: 1 / Tip Switch: 1 | Contact Id:    1 | X:   503 | Y:  1967 | Tip Pressure:   56 | Width:    3 | Height:    2 
#             | Tip Switch: 0 | Contact Id:    0 | X:     0 | Y:     0 | Tip Pressure:    0 | Width:    0 | Height:    0 
#             | Tip Switch: 0 | Contact Id:    0 | X:     0 | Y:     0 | Tip Pressure:    0 | Width:    0 | Height:    0 
#             | Tip Switch: 0 | Contact Id:    0 | X:     0 | Y:     0 | Tip Pressure:    0 | Width:    0 | Height:    0 
#             | Tip Switch: 0 | Contact Id:    0 | X:     0 | Y:     0 | Tip Pressure:    0 | Width:    0 | Height:    0 
#             | Tip Switch: 0 | Contact Id:    0 | X:     0 | Y:     0 | Tip Pressure:    0 | Width:    0 | Height:    0 
#             | Tip Switch: 0 | Contact Id:    0 | X:     0 | Y:     0 | Tip Pressure:    0 | Width:    0 | Height:    0 
#             | Tip Switch: 0 | Contact Id:    0 | X:     0 | Y:     0 | Tip Pressure:    0 | Width:    0 | Height:    0 
#             | Tip Switch: 0 | Contact Id:    0 | X:     0 | Y:     0 | Tip Pressure:    0 | Width:    0 | Height:    0 
#             | Tip Switch: 0 | Contact Id:    0 | X:     0 | Y:     0 | Tip Pressure:    0 | Width:    0 | Height:    0 | Scan Time:    134 | Contact Count:    1 
E: 000000.193916 74 01 03 f7 f1 7a 38 03 02 00 00 00 00 00 00 00 00 00 00 00 00 00 00 00 00 00 00 00 00 00 00 00 00 00 00 00 00 00 00 00 00 00 00 00 00 00 00 00 00 00 00 00 00 00 00 00 00 00 00 00 00 00 00 00 00 00 00 00 00 00 00 00 86 00 01
# ReportID: 1 / Tip Switch: 1 | Contact Id:    1 | X:   497 | Y:  1962 | Tip Pressure:   56 | Width:    3 | Height:    2 
#             | Tip Switch: 0 | Contact Id:    0 | X:     0 | Y:     0 | Tip Pressure:    0 | Width:    0 | Height:    0 
#             | Tip Switch: 0 | Contact Id:    0 | X:     0 | Y:     0 | Tip Pressure:    0 | Width:    0 | Height:    0 
#             | Tip Switch: 0 | Contact Id:    0 | X:     0 | Y:     0 | Tip Pressure:    0 | Width:    0 | Height:    0 
#             | Tip Switch: 0 | Contact Id:    0 | X:     0 | Y:     0 | Tip Pressure:    0 | Width:    0 | Height:    0 
#             | Tip Switch: 0 | Contact Id:    0 | X:     0 | Y:     0 | Tip Pressure:    0 | Width:    0 | Height:    0 
#             | Tip Switch: 0 | Contact Id:    0 | X:     0 | Y:     0 | Tip Pressure:    0 | Width:    0 | Height:    0 
#             | Tip Switch: 0 | Contact Id:    0 | X:     0 | Y:     0 | Tip Pressure:    0 | Width:    0 | Height:    0 
#             | Tip Switch: 0 | Contact Id:    0 | X:     0 | Y:     0 | Tip Pressure:    0 | Width:    0 | Height:    0 
#             | Tip Switch: 0 | Contact Id:    0 | X:     0 | Y:     0 | Tip Pressure:    0 | Width:    0 | Height:    0 | Scan Time:    202 | Contact Count:    1 
E: 000000.200833 74 01 03 f1 a1 7a 38 03 02 00 00 00 00 00 00 00 00 00 00 00 00 00 00 00 00 00 00 00 00 00 00 00 00 00 00 00 00 00 00 00 00 00 00 00 00 00 00 00 00 00 00 00 00 00 00 00 00 00 00 00 00 00 00 00 00 00 00 00 00 00 00 00 ca 00 01
# ReportID: 1 / Tip Switch: 1 | Contact Id:    1 | X:   488 | Y:  1955 | Tip Pressure:   56 | Width:    2 | Height:    3 
#             | Tip Switch: 0 | Contact Id:    0 | X:     0 | Y:     0 | Tip Pressure:    0 | Width:    0 | Height:    0 
#             | Tip Switch: 0 | Contact Id:    0 | X:     0 | Y:     0 | Tip Pressure:    0 | Width:    0 | Height:    0 
#             | Tip Switch: 0 | Contact Id:    0 | X:     0 | Y:     0 | Tip Pressure:    0 | Width:    0 | Height:    0 
#             | Tip Switch: 0 | Contact Id:    0 | X:     0 | Y:     0 | Tip Pressure:    0 | Width:    0 | Height:    0 
#             | Tip Switch: 0 | Contact Id:    0 | X:     0 | Y:     0 | Tip Pressure:    0 | Width:    0 | Height:    0 
#             | Tip Switch: 0 | Contact Id:    0 | X:     0 | Y:     0 | Tip Pressure:    0 | Width:    0 | Height:    0 
#             | Tip Switch: 0 | Contact Id:    0 | X:     0 | Y:     0 | Tip Pressure:    0 | Width:    0 | Height:    0 
#             | Tip Switch: 0 | Contact Id:    0 | X:     0 | Y:     0 | Tip Pressure:    0 | Width:    0 | Height:    0 
#             | Tip Switch: 0 | Contact Id:    0 | X:     0 | Y:     0 | Tip Pressure:    0 | Width:    0 | Height:    0 | Scan Time:    270 | Contact Count:    1 
E: 000000.207916 74 01 03 e8 31 7a 38 02 03 00 00 00 00 00 00 00 00 00 00 00 00 00 00 00 00 00 00 00 00 00 00 00 00 00 00 00 00 00 00 00 00 00 00 00 00 00 00 00 00 00 00 00 00 00 00 00 00 00 00 00 00 00 00 00 00 00 00 00 00 00 00 00 0e 01 01
# ReportID: 1 / Tip Switch: 1 | Contact Id:    1 | X:   478 | Y:  1946 | Tip Pressure:   56 | Width:    2 | Height:    3 
#             | Tip Switch: 0 | Contact Id:    0 | X:     0 | Y:     0 | Tip Pressure:    0 | Width:    0 | Height:    0 
#             | Tip Switch: 0 | Contact Id:    0 | X:     0 | Y:     0 | Tip Pressure:    0 | Width:    0 | Height:    0 
#             | Tip Switch: 0 | Contact Id:    0 | X:     0 | Y:     0 | Tip Pressure:    0 | Width:    0 | Height:    0 
#             | Tip Switch: 0 | Contact Id:    0 | X:     0 | Y:     0 | Tip Pressure:    0 | Width:    0 | Height:    0 
#             | Tip Switch: 0 | Contact Id:    0 | X:     0 | Y:     0 | Tip Pressure:    0 | Width:    0 | Height:    0 
#             | Tip Switch: 0 | Contact Id:    0 | X:     0 | Y:     0 | Tip Pressure:    0 | Width:    0 | Height:    0 
#             | Tip Switch: 0 | Contact Id:    0 | X:     0 | Y:     0 | Tip Pressure:    0 | Width:    0 | Height:    0 
#             | Tip Switch: 0 | Contact Id:    0 | X:     0 | Y:     0 | Tip Pressure:    0 | Width:    0 | Height:    0 
#             | Tip Switch: 0 | Contact Id:    0 | X:     0 | Y:     0 | Tip Pressure:    0 | Width:    0 | Height:    0 | Scan Time:    338 | Contact Count:    1 
E: 000000.215428 74 01 03 de a1 79 38 02 03 00 00 00 00 00 00 00 00 00 00 00 00 00 00 00 00 00 00 00 00 00 00 00 00 00 00 00 00 00 00 00 00 00 00 00 00 00 00 00 00 00 00 00 00 00 00 00 00 00 00 00 00 00 00 00 00 00 00 00 00 00 00 00 52 01 01
# ReportID: 1 / Tip Switch: 1 | Contact Id:    1 | X:   468 | Y:  1936 | Tip Pressure:   56 | Width:    2 | Height:    3 
#             | Tip Switch: 0 | Contact Id:    0 | X:     0 | Y:     0 | Tip Pressure:    0 | Width:    0 | Height:    0 
#             | Tip Switch: 0 | Contact Id:    0 | X:     0 | Y:     0 | Tip Pressure:    0 | Width:    0 | Height:    0 
#             | Tip Switch: 0 | Contact Id:    0 | X:     0 | Y:     0 | Tip Pressure:    0 | Width:    0 | Height:    0 
#             | Tip Switch: 0 | Contact Id:    0 | X:     0 | Y:     0 | Tip Pressure:    0 | Width:    0 | Height:    0 
#             | Tip Switch: 0 | Contact Id:    0 | X:     0 | Y:     0 | Tip Pressure:    0 | Width:    0 | Height:    0 
#             | Tip Switch: 0 | Contact Id:    0 | X:     0 | Y:     0 | Tip Pressure:    0 | Width:    0 | Height:    0 
#             | Tip Switch: 0 | Contact Id:    0 | X:     0 | Y:     0 | Tip Pressure:    0 | Width:    0 | Height:    0 
#             | Tip Switch: 0 | Contact Id:    0 | X:     0 | Y:     0 | Tip Pressure:    0 | Width:    0 | Height:    0 
#             | Tip Switch: 0 | Contact Id:    0 | X:     0 | Y:     0 | Tip Pressure:    0 | Width:    0 | Height:    0 | Scan Time:    406 | Contact Count:    1 
E: 000000.221784 74 01 03 d4 01 79 38 02 03 00 00 00 00 00 00 00 00 00 00 00 00 00 00 00 00 00 00 00 00 00 00 00 00 00 00 00 00 00 00 00 00 00 00 00 00 00 00 00 00 00 00 00 00 00 00 00 00 00 00 00 00 00 00 00 00 00 00 00 00 00 00 00 96 01 01
# ReportID: 1 / Tip Switch: 1 | Contact Id:    1 | X:   459 | Y:  1927 | Tip Pressure:   56 | Width:    2 | Height:    3 
#             | Tip Switch: 0 | Contact Id:    0 | X:     0 | Y:     0 | Tip Pressure:    0 | Width:    0 | Height:    0 
#             | Tip Switch: 0 | Contact Id:    0 | X:     0 | Y:     0 | Tip Pressure:    0 | Width:    0 | Height:    0 
#             | Tip Switch: 0 | Contact Id:    0 | X:     0 | Y:     0 | Tip Pressure:    0 | Width:    0 | Height:    0 
#             | Tip Switch: 0 | Contact Id:    0 | X:     0 | Y:     0 | Tip Pressure:    0 | Width:    0 | Height:    0 
#             | Tip Switch: 0 | Contact Id:    0 | X:     0 | Y:     0 | Tip Pressure:    0 | Width:    0 | Height:    0 
#             | Tip Switch: 0 | Contact Id:    0 | X:     0 | Y:     0 | Tip Pressure:    0 | Width:    0 | Height:    0 
#             | Tip Switch: 0 | Contact Id:    0 | X:     0 | Y:     0 | Tip Pressure:    0 | Width:    0 | Height:    0 
#             | Tip Switch: 0 | Contact Id:    0 | X:     0 | Y:     0 | Tip Pressure:    0 | Width:    0 | Height:    0 
#             | Tip Switch: 0 | Contact Id:    0 | X:     0 | Y:     0 | Tip Pressure:    0 | Width:    0 | Height:    0 | Scan Time:    474 | Contact Count:    1 
E: 000000.228724 74 01 03 cb 71 78 38 02 03 00 00 00 00 00 00 00 00 00 00 00 00 00 00 00 00 00 00 00 00 00 00 00 00 00 00 00 00 00 00 00 00 00 00 00 00 00 00 00 00 00 00 00 00 00 00 00 00 00 00 00 00 00 00 00 00 00 00 00 00 00 00 00 da 01 01
# ReportID: 1 / Tip Switch: 1 | Contact Id:    1 | X:   450 | Y:  1917 | Tip Pressure:   56 | Width:    3 | Height:    2 
#             | Tip Switch: 0 | Contact Id:    0 | X:     0 | Y:     0 | Tip Pressure:    0 | Width:    0 | Height:    0 
#             | Tip Switch: 0 | Contact Id:    0 | X:     0 | Y:     0 | Tip Pressure:    0 | Width:    0 | Height:    0 
#             | Tip Switch: 0 | Contact Id:    0 | X:     0 | Y:     0 | Tip Pressure:    0 | Width:    0 | Height:    0 
#             | Tip Switch: 0 | Contact Id:    0 | X:     0 | Y:     0 | Tip Pressure:    0 | Width:    0 | Height:    0 
#             | Tip Switch: 0 | Contact Id:    0 | X:     0 | Y:     0 | Tip Pressure:    0 | Width:    0 | Height:    0 
#             | Tip Switch: 0 | Contact Id:    0 | X:     0 | Y:     0 | Tip Pressure:    0 | Width:    0 | Height:    0 
#             | Tip Switch: 0 | Contact Id:    0 | X:     0 | Y:     0 | Tip Pressure:    0 | Width:    0 | Height:    0 
#             | Tip Switch: 0 | Contact Id:    0 | X:     0 | Y:     0 | Tip Pressure:    0 | Width:    0 | Height:    0 
#             | Tip Switch: 0 | Contact Id:    0 | X:     0 | Y:     0 | Tip Pressure:    0 | Width:    0 | Height:    0 | Scan Time:    542 | Contact Count:    1 
E: 000000.235678 74 01 03 c2 d1 77 38 03 02 00 00 00 00 00 00 00 00 00 00 00 00 00 00 00 00 00 00 00 00 00 00 00 00 00 00 00 00 00 00 00 00 00 00 00 00 00 00 00 00 00 00 00 00 00 00 00 00 00 00 00 00 00 00 00 00 00 00 00 00 00 00 00 1e 02 01
# ReportID: 1 / Tip Switch: 1 | Contact Id:    1 | X:   440 | Y:  1908 | Tip Pressure:   56 | Width:    2 | Height:    3 
#             | Tip Switch: 0 | Contact Id:    0 | X:     0 | Y:     0 | Tip Pressure:    0 | Width:    0 | Height:    0 
#             | Tip Switch: 0 | Contact Id:    0 | X:     0 | Y:     0 | Tip Pressure:    0 | Width:    0 | Height:    0 
#             | Tip Switch: 0 | Contact Id:    0 | X:     0 | Y:     0 | Tip Pressure:    0 | Width:    0 | Height:    0 
#             | Tip Switch: 0 | Contact Id:    0 | X:     0 | Y:     0 | Tip Pressure:    0 | Width:    0 | Height:    0 
#             | Tip Switch: 0 | Contact Id:    0 | X:     0 | Y:     0 | Tip Pressure:    0 | Width:    0 | Height:    0 
#             | Tip Switch: 0 | Contact Id:    0 | X:     0 | Y:     0 | Tip Pressure:    0 | Width:    0 | Height:    0 
#             | Tip Switch: 0 | Contact Id:    0 | X:     0 | Y:     0 | Tip Pressure:    0 | Width:    0 | Height:    0 
#             | Tip Switch: 0 | Contact Id:    0 | X:     0 | Y:     0 | Tip Pressure:    0 | Width:    0 | Height:    0 
#             | Tip Switch: 0 | Contact Id:    0 | X:     0 | Y:     0 | Tip Pressure:    0 | Width:    0 | Height:    0 | Scan Time:    610 | Contact Count:    1 
E: 000000.242608 74 01 03 b8 41 77 38 02 03 00 00 00 00 00 00 00 00 00 00 00 00 00 00 00 00 00 00 00 00 00 00 00 00 00 00 00 00 00 00 00 00 00 00 00 00 00 00 00 00 00 00 00 00 00 00 00 00 00 00 00 00 00 00 00 00 00 00 00 00 00 00 00 62 02 01
# ReportID: 1 / Tip Switch: 1 | Contact Id:    1 | X:   431 | Y:  1899 | Tip Pressure:   56 | Width:    2 | Height:    3 
#             | Tip Switch: 0 | Contact Id:    0 | X:     0 | Y:     0 | Tip Pressure:    0 | Width:    0 | Height:    0 
#             | Tip Switch: 0 | Contact Id:    0 | X:     0 | Y:     0 | Tip Pressure:    0 | Width:    0 | Height:    0 
#             | Tip Switch: 0 | Contact Id:    0 | X:     0 | Y:     0 | Tip Pressure:    0 | Width:    0 | Height:    0 
#             | Tip Switch: 0 | Contact Id:    0 | X:     0 | Y:     0 | Tip Pressure:    0 | Width:    0 | Height:    0 
#             | Tip Switch: 0 | Contact Id:    0 | X:     0 | Y:     0 | Tip Pressure:    0 | Width:    0 | Height:    0 
#             | Tip Switch: 0 | Contact Id:    0 | X:     0 | Y:     0 | Tip Pressure:    0 | Width:    0 | Height:    0 
#             | Tip Switch: 0 | Contact Id:    0 | X:     0 | Y:     0 | Tip Pressure:    0 | Width:    0 | Height:    0 
#             | Tip Switch: 0 | Contact Id:    0 | X:     0 | Y:     0 | Tip Pressure:    0 | Width:    0 | Height:    0 
#             | Tip Switch: 0 | Contact Id:    0 | X:     0 | Y:     0 | Tip Pressure:    0 | Width:    0 | Height:    0 | Scan Time:    678 | Contact Count:    1 
E: 000000.249613 74 01 03 af b1 76 38 02 03 00 00 00 00 00 00 00 00 00 00 00 00 00 00 00 00 00 00 00 00 00 00 00 00 00 00 00 00 00 00 00 00 00 00 00 00 00 00 00 00 00 00 00 00 00 00 00 00 00 00 00 00 00 00 00 00 00 00 00 00 00 00 00 a6 02 01
# ReportID: 1 / Tip Switch: 1 | Contact Id:    1 | X:   422 | Y:  1889 | Tip Pressure:   56 | Width:    2 | Height:    3 
#             | Tip Switch: 0 | Contact Id:    0 | X:     0 | Y:     0 | Tip Pressure:    0 | Width:    0 | Height:    0 
#             | Tip Switch: 0 | Contact Id:    0 | X:     0 | Y:     0 | Tip Pressure:    0 | Width:    0 | Height:    0 
#             | Tip Switch: 0 | Contact Id:    0 | X:     0 | Y:     0 | Tip Pressure:    0 | Width:    0 | Height:    0 
#             | Tip Switch: 0 | Contact Id:    0 | X:     0 | Y:     0 | Tip Pressure:    0 | Width:    0 | Height:    0 
#             | Tip Switch: 0 | Contact Id:    0 | X:     0 | Y:     0 | Tip Pressure:    0 | Width:    0 | Height:    0 
#             | Tip Switch: 0 | Contact Id:    0 | X:     0 | Y:     0 | Tip Pressure:    0 | Width:    0 | Height:    0 
#             | Tip Switch: 0 | Contact Id:    0 | X:     0 | Y:     0 | Tip Pressure:    0 | Width:    0 | Height:    0 
#             | Tip Switch: 0 | Contact Id:    0 | X:     0 | Y:     0 | Tip Pressure:    0 | Width:    0 | Height:    0 
#             | Tip Switch: 0 | Contact Id:    0 | X:     0 | Y:     0 | Tip Pressure:    0 | Width:    0 | Height:    0 | Scan Time:    746 | Contact Count:    1 
E: 000000.256545 74 01 03 a6 11 76 38 02 03 00 00 00 00 00 00 00 00 00 00 00 00 00 00 00 00 00 00 00 00 00 00 00 00 00 00 00 00 00 00 00 00 00 00 00 00 00 00 00 00 00 00 00 00 00 00 00 00 00 00 00 00 00 00 00 00 00 00 00 00 00 00 00 ea 02 01
# ReportID: 1 / Tip Switch: 1 | Contact Id:    1 | X:   415 | Y:  1880 | Tip Pressure:   56 | Width:    2 | Height:    3 
#             | Tip Switch: 0 | Contact Id:    0 | X:     0 | Y:     0 | Tip Pressure:    0 | Width:    0 | Height:    0 
#             | Tip Switch: 0 | Contact Id:    0 | X:     0 | Y:     0 | Tip Pressure:    0 | Width:    0 | Height:    0 
#             | Tip Switch: 0 | Contact Id:    0 | X:     0 | Y:     0 | Tip Pressure:    0 | Width:    0 | Height:    0 
#             | Tip Switch: 0 | Contact Id:    0 | X:     0 | Y:     0 | Tip Pressure:    0 | Width:    0 | Height:    0 
#             | Tip Switch: 0 | Contact Id:    0 | X:     0 | Y:     0 | Tip Pressure:    0 | Width:    0 | Height:    0 
#             | Tip Switch: 0 | Contact Id:    0 | X:     0 | Y:     0 | Tip Pressure:    0 | Width:    0 | Height:    0 
#             | Tip Switch: 0 | Contact Id:    0 | X:     0 | Y:     0 | Tip Pressure:    0 | Width:    0 | Height:    0 
#             | Tip Switch: 0 | Contact Id:    0 | X:     0 | Y:     0 | Tip Pressure:    0 | Width:    0 | Height:    0 
#             | Tip Switch: 0 | Contact Id:    0 | X:     0 | Y:     0 | Tip Pressure:    0 | Width:    0 | Height:    0 | Scan Time:    814 | Contact Count:    1 
E: 000000.263463 74 01 03 9f 81 75 38 02 03 00 00 00 00 00 00 00 00 00 00 00 00 00 00 00 00 00 00 00 00 00 00 00 00 00 00 00 00 00 00 00 00 00 00 00 00 00 00 00 00 00 00 00 00 00 00 00 00 00 00 00 00 00 00 00 00 00 00 00 00 00 00 00 2e 03 01
# ReportID: 1 / Tip Switch: 1 | Contact Id:    1 | X:   409 | Y:  1871 | Tip Pressure:   56 | Width:    2 | Height:    2 
