# FTCS1000:00 2808:8206
# 0x05, 0x0d,                    // Usage Page (Digitizers)             0
# 0x09, 0x04,                    // Usage (Touch Screen)                2
# 0xa1, 0x01,                    // Collection (Application)            4
# 0x85, 0x01,                    //  Report ID (1)                      6
# 0x09, 0x22,                    //  Usage (Finger)                     8
# 0xa1, 0x02,                    //  Collection (Logical)               10
# 0x09, 0x42,                    //   Usage (Tip Switch)                12
# 0x15, 0x00,                    //   Logical Minimum (0)               14
# 0x25, 0x01,                    //   Logical Maximum (1)               16
# 0x75, 0x01,                    //   Report Size (1)                   18
# 0x95, 0x01,                    //   Report Count (1)                  20
# 0x81, 0x02,                    //   Input (Data,Var,Abs)              22
# 0x95, 0x01,                    //   Report Count (1)                  24
# 0x81, 0x03,                    //   Input (Cnst,Var,Abs)              26
# 0x95, 0x06,                    //   Report Count (6)                  28
# 0x81, 0x03,                    //   Input (Cnst,Var,Abs)              30
# 0x75, 0x08,                    //   Report Size (8)                   32
# 0x09, 0x51,                    //   Usage (Contact Id)                34
# 0x95, 0x01,                    //   Report Count (1)                  36
# 0x81, 0x02,                    //   Input (Data,Var,Abs)              38
# 0x05, 0x01,                    //   Usage Page (Generic Desktop)      40
# 0x26, 0xb0, 0x04,              //   Logical Maximum (1200)            42
# 0x75, 0x10,                    //   Report Size (16)                  45
# 0x55, 0x0e,                    //   Unit Exponent (-2)                47
# 0x65, 0x11,                    //   Unit (SILinear: cm)               49
# 0x09, 0x30,                    //   Usage (X)                         51
# 0x35, 0x00,                    //   Physical Minimum (0)              53
# 0x46, 0x0b, 0x0a,              //   Physical Maximum (2571)           55
# 0x95, 0x02,                    //   Report Count (2)                  58
# 0x81, 0x02,                    //   Input (Data,Var,Abs)              60
# 0x35, 0x01,                    //   Physical Minimum (1)              62
# 0x35, 0x00,                    //   Physical Minimum (0)              64
# 0x46, 0xaa, 0x05,              //   Physical Maximum (1450)           66
# 0x26, 0x80, 0x07,              //   Logical Maximum (1920)            69
# 0x09, 0x31,                    //   Usage (Y)                         72
# 0x81, 0x02,                    //   Input (Data,Var,Abs)              74
# 0x35, 0x01,                    //   Physical Minimum (1)              76
# 0x35, 0x00,                    //   Physical Minimum (0)              78
# 0x05, 0x0d,                    //   Usage Page (Digitizers)           80
# 0x26, 0xff, 0x00,              //   Logical Maximum (255)             82
# 0x46, 0xff, 0x00,              //   Physical Maximum (255)            85
# 0x95, 0x01,                    //   Report Count (1)                  88
# 0x09, 0x48,                    //   Usage (Width)                     90
# 0x81, 0x02,                    //   Input (Data,Var,Abs)              92
# 0x09, 0x49,                    //   Usage (Height)                    94
# 0x81, 0x02,                    //   Input (Data,Var,Abs)              96
# 0xc0,                          //  End Collection                     98
# 0x09, 0x22,                    //  Usage (Finger)                     99
# 0xa1, 0x02,                    //  Collection (Logical)               101
# 0x09, 0x42,                    //   Usage (Tip Switch)                103
# 0x15, 0x00,                    //   Logical Minimum (0)               105
# 0x25, 0x01,                    //   Logical Maximum (1)               107
# 0x75, 0x01,                    //   Report Size (1)                   109
# 0x95, 0x01,                    //   Report Count (1)                  111
# 0x81, 0x02,                    //   Input (Data,Var,Abs)              113
# 0x95, 0x01,                    //   Report Count (1)                  115
# 0x81, 0x03,                    //   Input (Cnst,Var,Abs)              117
# 0x95, 0x06,                    //   Report Count (6)                  119
# 0x81, 0x03,                    //   Input (Cnst,Var,Abs)              121
# 0x75, 0x08,                    //   Report Size (8)                   123
# 0x09, 0x51,                    //   Usage (Contact Id)                125
# 0x95, 0x01,                    //   Report Count (1)                  127
# 0x81, 0x02,                    //   Input (Data,Var,Abs)              129
# 0x05, 0x01,                    //   Usage Page (Generic Desktop)      131
# 0x26, 0xb0, 0x04,              //   Logical Maximum (1200)            133
# 0x75, 0x10,                    //   Report Size (16)                  136
# 0x55, 0x0e,                    //   Unit Exponent (-2)                138
# 0x65, 0x11,                    //   Unit (SILinear: cm)               140
# 0x09, 0x30,                    //   Usage (X)                         142
# 0x35, 0x00,                    //   Physical Minimum (0)              144
# 0x46, 0x0b, 0x0a,              //   Physical Maximum (2571)           146
# 0x95, 0x02,                    //   Report Count (2)                  149
# 0x81, 0x02,                    //   Input (Data,Var,Abs)              151
# 0x35, 0x01,                    //   Physical Minimum (1)              153
# 0x35, 0x00,                    //   Physical Minimum (0)              155
# 0x46, 0xaa, 0x05,              //   Physical Maximum (1450)           157
# 0x26, 0x80, 0x07,              //   Logical Maximum (1920)            160
# 0x09, 0x31,                    //   Usage (Y)                         163
# 0x81, 0x02,                    //   Input (Data,Var,Abs)              165
# 0x35, 0x01,                    //   Physical Minimum (1)              167
# 0x35, 0x00,                    //   Physical Minimum (0)              169
# 0x05, 0x0d,                    //   Usage Page (Digitizers)           171
# 0x26, 0xff, 0x00,              //   Logical Maximum (255)             173
# 0x46, 0xff, 0x00,              //   Physical Maximum (255)            176
# 0x95, 0x01,                    //   Report Count (1)                  179
# 0x09, 0x48,                    //   Usage (Width)                     181
# 0x81, 0x02,                    //   Input (Data,Var,Abs)              183
# 0x09, 0x49,                    //   Usage (Height)                    185
# 0x81, 0x02,                    //   Input (Data,Var,Abs)              187
# 0xc0,                          //  End Collection                     189
# 0x09, 0x22,                    //  Usage (Finger)                     190
# 0xa1, 0x02,                    //  Collection (Logical)               192
# 0x09, 0x42,                    //   Usage (Tip Switch)                194
# 0x15, 0x00,                    //   Logical Minimum (0)               196
# 0x25, 0x01,                    //   Logical Maximum (1)               198
# 0x75, 0x01,                    //   Report Size (1)                   200
# 0x95, 0x01,                    //   Report Count (1)                  202
# 0x81, 0x02,                    //   Input (Data,Var,Abs)              204
# 0x95, 0x01,                    //   Report Count (1)                  206
# 0x81, 0x03,                    //   Input (Cnst,Var,Abs)              208
# 0x95, 0x06,                    //   Report Count (6)                  210
# 0x81, 0x03,                    //   Input (Cnst,Var,Abs)              212
# 0x75, 0x08,                    //   Report Size (8)                   214
# 0x09, 0x51,                    //   Usage (Contact Id)                216
# 0x95, 0x01,                    //   Report Count (1)                  218
# 0x81, 0x02,                    //   Input (Data,Var,Abs)              220
# 0x05, 0x01,                    //   Usage Page (Generic Desktop)      222
# 0x26, 0xb0, 0x04,              //   Logical Maximum (1200)            224
# 0x75, 0x10,                    //   Report Size (16)                  227
# 0x55, 0x0e,                    //   Unit Exponent (-2)                229
# 0x65, 0x11,                    //   Unit (SILinear: cm)               231
# 0x09, 0x30,                    //   Usage (X)                         233
# 0x35, 0x00,                    //   Physical Minimum (0)              235
# 0x46, 0x0b, 0x0a,              //   Physical Maximum (2571)           237
# 0x95, 0x02,                    //   Report Count (2)                  240
# 0x81, 0x02,                    //   Input (Data,Var,Abs)              242
# 0x35, 0x01,                    //   Physical Minimum (1)              244
# 0x35, 0x00,                    //   Physical Minimum (0)              246
# 0x46, 0xaa, 0x05,              //   Physical Maximum (1450)           248
# 0x26, 0x80, 0x07,              //   Logical Maximum (1920)            251
# 0x09, 0x31,                    //   Usage (Y)                         254
# 0x81, 0x02,                    //   Input (Data,Var,Abs)              256
# 0x35, 0x01,                    //   Physical Minimum (1)              258
# 0x35, 0x00,                    //   Physical Minimum (0)              260
# 0x05, 0x0d,                    //   Usage Page (Digitizers)           262
# 0x26, 0xff, 0x00,              //   Logical Maximum (255)             264
# 0x46, 0xff, 0x00,              //   Physical Maximum (255)            267
# 0x95, 0x01,                    //   Report Count (1)                  270
# 0x09, 0x48,                    //   Usage (Width)                     272
# 0x81, 0x02,                    //   Input (Data,Var,Abs)              274
# 0x09, 0x49,                    //   Usage (Height)                    276
# 0x81, 0x02,                    //   Input (Data,Var,Abs)              278
# 0xc0,                          //  End Collection                     280
# 0x09, 0x22,                    //  Usage (Finger)                     281
# 0xa1, 0x02,                    //  Collection (Logical)               283
# 0x09, 0x42,                    //   Usage (Tip Switch)                285
# 0x15, 0x00,                    //   Logical Minimum (0)               287
# 0x25, 0x01,                    //   Logical Maximum (1)               289
# 0x75, 0x01,                    //   Report Size (1)                   291
# 0x95, 0x01,                    //   Report Count (1)                  293
# 0x81, 0x02,                    //   Input (Data,Var,Abs)              295
# 0x95, 0x01,                    //   Report Count (1)                  297
# 0x81, 0x03,                    //   Input (Cnst,Var,Abs)              299
# 0x95, 0x06,                    //   Report Count (6)                  301
# 0x81, 0x03,                    //   Input (Cnst,Var,Abs)              303
# 0x75, 0x08,                    //   Report Size (8)                   305
# 0x09, 0x51,                    //   Usage (Contact Id)                307
# 0x95, 0x01,                    //   Report Count (1)                  309
# 0x81, 0x02,                    //   Input (Data,Var,Abs)              311
# 0x05, 0x01,                    //   Usage Page (Generic Desktop)      313
# 0x26, 0xb0, 0x04,              //   Logical Maximum (1200)            315
# 0x75, 0x10,                    //   Report Size (16)                  318
# 0x55, 0x0e,                    //   Unit Exponent (-2)                320
# 0x65, 0x11,                    //   Unit (SILinear: cm)               322
# 0x09, 0x30,                    //   Usage (X)                         324
# 0x35, 0x00,                    //   Physical Minimum (0)              326
# 0x46, 0x0b, 0x0a,              //   Physical Maximum (2571)           328
# 0x95, 0x02,                    //   Report Count (2)                  331
# 0x81, 0x02,                    //   Input (Data,Var,Abs)              333
# 0x35, 0x01,                    //   Physical Minimum (1)              335
# 0x35, 0x00,                    //   Physical Minimum (0)              337
# 0x46, 0xaa, 0x05,              //   Physical Maximum (1450)           339
# 0x26, 0x80, 0x07,              //   Logical Maximum (1920)            342
# 0x09, 0x31,                    //   Usage (Y)                         345
# 0x81, 0x02,                    //   Input (Data,Var,Abs)              347
# 0x35, 0x01,                    //   Physical Minimum (1)              349
# 0x35, 0x00,                    //   Physical Minimum (0)              351
# 0x05, 0x0d,                    //   Usage Page (Digitizers)           353
# 0x26, 0xff, 0x00,              //   Logical Maximum (255)             355
# 0x46, 0xff, 0x00,              //   Physical Maximum (255)            358
# 0x95, 0x01,                    //   Report Count (1)                  361
# 0x09, 0x48,                    //   Usage (Width)                     363
# 0x81, 0x02,                    //   Input (Data,Var,Abs)              365
# 0x09, 0x49,                    //   Usage (Height)                    367
# 0x81, 0x02,                    //   Input (Data,Var,Abs)              369
# 0xc0,                          //  End Collection                     371
# 0x05, 0x0d,                    //  Usage Page (Digitizers)            372
# 0x27, 0xff, 0xff, 0x00, 0x00,  //  Logical Maximum (65535)            374
# 0x75, 0x10,                    //  Report Size (16)                   379
# 0x95, 0x01,                    //  Report Count (1)                   381
# 0x09, 0x56,                    //  Usage (Scan Time)                  383
# 0x81, 0x02,                    //  Input (Data,Var,Abs)               385
# 0x09, 0x54,                    //  Usage (Contact Count)              387
# 0x25, 0x10,                    //  Logical Maximum (16)               389
# 0x95, 0x01,                    //  Report Count (1)                   391
# 0x75, 0x08,                    //  Report Size (8)                    393
# 0x81, 0x02,                    //  Input (Data,Var,Abs)               395
# 0x85, 0x02,                    //  Report ID (2)                      397
# 0x09, 0x55,                    //  Usage (Contact Max)                399
# 0x95, 0x01,                    //  Report Count (1)                   401
# 0x25, 0x0a,                    //  Logical Maximum (10)               403
# 0xb1, 0x02,                    //  Feature (Data,Var,Abs)             405
# 0x06, 0x00, 0xff,              //  Usage Page (Vendor Defined Page 1) 407
# 0x09, 0xc5,                    //  Usage (Vendor Usage 0xc5)          410
# 0x85, 0x05,                    //  Report ID (5)                      412
# 0x15, 0x00,                    //  Logical Minimum (0)                414
# 0x26, 0xff, 0x00,              //  Logical Maximum (255)              416
# 0x75, 0x08,                    //  Report Size (8)                    419
# 0x96, 0x00, 0x01,              //  Report Count (256)                 421
# 0xb1, 0x02,                    //  Feature (Data,Var,Abs)             424
# 0xc0,                          // End Collection                      426
# 0x06, 0x00, 0xff,              // Usage Page (Vendor Defined Page 1)  427
# 0x09, 0x01,                    // Usage (Vendor Usage 1)              430
# 0xa1, 0x01,                    // Collection (Application)            432
# 0x15, 0x00,                    //  Logical Minimum (0)                434
# 0x26, 0xff, 0x00,              //  Logical Maximum (255)              436
# 0x75, 0x08,                    //  Report Size (8)                    439
# 0x85, 0x06,                    //  Report ID (6)                      441
# 0x95, 0x3f,                    //  Report Count (63)                  443
# 0x09, 0x01,                    //  Usage (Vendor Usage 1)             445
# 0x81, 0x02,                    //  Input (Data,Var,Abs)               447
# 0x09, 0x01,                    //  Usage (Vendor Usage 1)             449
# 0x91, 0x02,                    //  Output (Data,Var,Abs)              451
# 0xc0,                          // End Collection                      453
# 0x05, 0x0d,                    // Usage Page (Digitizers)             454
# 0x09, 0x02,                    // Usage (Pen)                         456
# 0xa1, 0x01,                    // Collection (Application)            458
# 0x85, 0x0b,                    //  Report ID (11)                     460
# 0x09, 0x20,                    //  Usage (Stylus)                     462
# 0xa1, 0x00,                    //  Collection (Physical)              464
# 0x09, 0x42,                    //   Usage (Tip Switch)                466
# 0x09, 0x44,                    //   Usage (Barrel Switch)             468
# 0x09, 0x3c,                    //   Usage (Invert)                    470
# 0x09, 0x45,                    //   Usage (Eraser)                    472
# 0x15, 0x00,                    //   Logical Minimum (0)               474
# 0x25, 0x01,                    //   Logical Maximum (1)               476
# 0x75, 0x01,                    //   Report Size (1)                   478
# 0x95, 0x04,                    //   Report Count (4)                  480
# 0x81, 0x02,                    //   Input (Data,Var,Abs)              482
# 0x95, 0x01,                    //   Report Count (1)                  484
# 0x81, 0x03,                    //   Input (Cnst,Var,Abs)              486
# 0x09, 0x32,                    //   Usage (In Range)                  488
# 0x81, 0x02,                    //   Input (Data,Var,Abs)              490
# 0x95, 0x02,                    //   Report Count (2)                  492
# 0x81, 0x03,                    //   Input (Cnst,Var,Abs)              494
# 0x05, 0x01,                    //   Usage Page (Generic Desktop)      496
# 0x09, 0x30,                    //   Usage (X)                         498
# 0x75, 0x10,                    //   Report Size (16)                  500
# 0x95, 0x01,                    //   Report Count (1)                  502
# 0xa4,                          //   Push                              504
# 0x55, 0x0e,                    //   Unit Exponent (-2)                505
# 0x65, 0x11,                    //   Unit (SILinear: cm)               507
# 0x35, 0x00,                    //   Physical Minimum (0)              509
# 0x46, 0x0b, 0x0a,              //   Physical Maximum (2571)           511
# 0x26, 0xb0, 0x04,              //   Logical Maximum (1200)            514
# 0x81, 0x02,                    //   Input (Data,Var,Abs)              517
# 0x09, 0x31,                    //   Usage (Y)                         519
# 0x46, 0xaa, 0x05,              //   Physical Maximum (1450)           521
# 0x26, 0x80, 0x07,              //   Logical Maximum (1920)            524
# 0x81, 0x02,                    //   Input (Data,Var,Abs)              527
# 0xb4,                          //   Pop                               529
# 0x05, 0x0d,                    //   Usage Page (Digitizers)           530
# 0x09, 0x30,                    //   Usage (Tip Pressure)              532
# 0x15, 0x00,                    //   Logical Minimum (0)               534
# 0x26, 0x00, 0x10,              //   Logical Maximum (4096)            536
# 0x81, 0x02,                    //   Input (Data,Var,Abs)              539
# 0x75, 0x10,                    //   Report Size (16)                  541
# 0x09, 0x3d,                    //   Usage (X Tilt)                    543
# 0x16, 0xd8, 0xdc,              //   Logical Minimum (-9000)           545
# 0x26, 0x28, 0x23,              //   Logical Maximum (9000)            548
# 0x55, 0x0e,                    //   Unit Exponent (-2)                551
# 0x65, 0x14,                    //   Unit (EnglishRotation: deg)       553
# 0x36, 0xd8, 0xdc,              //   Physical Minimum (-9000)          555
# 0x46, 0x28, 0x23,              //   Physical Maximum (9000)           558
# 0x81, 0x02,                    //   Input (Data,Var,Abs)              561
# 0x09, 0x3e,                    //   Usage (Y Tilt)                    563
# 0x81, 0x02,                    //   Input (Data,Var,Abs)              565
# 0x09, 0x3f,                    //   Usage (Azimuth)                   567
# 0x15, 0x00,                    //   Logical Minimum (0)               569
# 0x27, 0xa0, 0x8c, 0x00, 0x00,  //   Logical Maximum (36000)           571
# 0x35, 0x00,                    //   Physical Minimum (0)              576
# 0x47, 0xa0, 0x8c, 0x00, 0x00,  //   Physical Maximum (36000)          578
# 0x81, 0x02,                    //   Input (Data,Var,Abs)              583
# 0x09, 0x01,                    //   Usage (Digitizer)                 585
# 0x15, 0x00,                    //   Logical Minimum (0)               587
# 0x26, 0xff, 0x00,              //   Logical Maximum (255)             589
# 0x75, 0x08,                    //   Report Size (8)                   592
# 0x95, 0x07,                    //   Report Count (7)                  594
# 0x81, 0x02,                    //   Input (Data,Var,Abs)              596
# 0x09, 0x56,                    //   Usage (Scan Time)                 598
# 0x16, 0x00, 0x00,              //   Logical Minimum (0)               600
# 0x26, 0xff, 0xff,              //   Logical Maximum (65535)           603
# 0x75, 0x08,                    //   Report Size (8)                   606
# 0x95, 0x02,                    //   Report Count (2)                  608
# 0x81, 0x02,                    //   Input (Data,Var,Abs)              610
# 0x06, 0x00, 0xff,              //   Usage Page (Vendor Defined Page 1) 612
# 0x85, 0x0c,                    //   Report ID (12)                    615
# 0x09, 0xc5,                    //   Usage (Vendor Usage 0xc5)         617
# 0x15, 0x00,                    //   Logical Minimum (0)               619
# 0x26, 0xff, 0x00,              //   Logical Maximum (255)             621
# 0x75, 0x08,                    //   Report Size (8)                   624
# 0x96, 0x00, 0x01,              //   Report Count (256)                626
# 0xb1, 0x02,                    //   Feature (Data,Var,Abs)            629
# 0xc0,                          //  End Collection                     631
# 0xc0,                          // End Collection                      632
# 
R: 633 05 0d 09 04 a1 01 85 01 09 22 a1 02 09 42 15 00 25 01 75 01 95 01 81 02 95 01 81 03 95 06 81 03 75 08 09 51 95 01 81 02 05 01 26 b0 04 75 10 55 0e 65 11 09 30 35 00 46 0b 0a 95 02 81 02 35 01 35 00 46 aa 05 26 80 07 09 31 81 02 35 01 35 00 05 0d 26 ff 00 46 ff 00 95 01 09 48 81 02 09 49 81 02 c0 09 22 a1 02 09 42 15 00 25 01 75 01 95 01 81 02 95 01 81 03 95 06 81 03 75 08 09 51 95 01 81 02 05 01 26 b0 04 75 10 55 0e 65 11 09 30 35 00 46 0b 0a 95 02 81 02 35 01 35 00 46 aa 05 26 80 07 09 31 81 02 35 01 35 00 05 0d 26 ff 00 46 ff 00 95 01 09 48 81 02 09 49 81 02 c0 09 22 a1 02 09 42 15 00 25 01 75 01 95 01 81 02 95 01 81 03 95 06 81 03 75 08 09 51 95 01 81 02 05 01 26 b0 04 75 10 55 0e 65 11 09 30 35 00 46 0b 0a 95 02 81 02 35 01 35 00 46 aa 05 26 80 07 09 31 81 02 35 01 35 00 05 0d 26 ff 00 46 ff 00 95 01 09 48 81 02 09 49 81 02 c0 09 22 a1 02 09 42 15 00 25 01 75 01 95 01 81 02 95 01 81 03 95 06 81 03 75 08 09 51 95 01 81 02 05 01 26 b0 04 75 10 55 0e 65 11 09 30 35 00 46 0b 0a 95 02 81 02 35 01 35 00 46 aa 05 26 80 07 09 31 81 02 35 01 35 00 05 0d 26 ff 00 46 ff 00 95 01 09 48 81 02 09 49 81 02 c0 05 0d 27 ff ff 00 00 75 10 95 01 09 56 81 02 09 54 25 10 95 01 75 08 81 02 85 02 09 55 95 01 25 0a b1 02 06 00 ff 09 c5 85 05 15 00 26 ff 00 75 08 96 00 01 b1 02 c0 06 00 ff 09 01 a1 01 15 00 26 ff 00 75 08 85 06 95 3f 09 01 81 02 09 01 91 02 c0 05 0d 09 02 a1 01 85 0b 09 20 a1 00 09 42 09 44 09 3c 09 45 15 00 25 01 75 01 95 04 81 02 95 01 81 03 09 32 81 02 95 02 81 03 05 01 09 30 75 10 95 01 a4 55 0e 65 11 35 00 46 0b 0a 26 b0 04 81 02 09 31 46 aa 05 26 80 07 81 02 b4 05 0d 09 30 15 00 26 00 10 81 02 75 10 09 3d 16 d8 dc 26 28 23 55 0e 65 14 36 d8 dc 46 28 23 81 02 09 3e 81 02 09 3f 15 00 27 a0 8c 00 00 35 00 47 a0 8c 00 00 81 02 09 01 15 00 26 ff 00 75 08 95 07 81 02 09 56 16 00 00 26 ff ff 75 08 95 02 81 02 06 00 ff 85 0c 09 c5 15 00 26 ff 00 75 08 96 00 01 b1 02 c0 c0
N: FTCS1000:00 2808:8206
I: 18 2808 8206
# ReportID: 1 / Tip Switch: 1 | # | # | Contact Id:    0 | X:   1132 ,   1132 | Y:     86 ,     86 | Width:     48 | Height:     48 
#             | Tip Switch: 0 | # | # | Contact Id:   15 | X:      0 ,      0 | Y:      0 ,      0 | Width:      0 | Height:      0 
#             | Tip Switch: 0 | # | # | Contact Id:   15 | X:      0 ,      0 | Y:      0 ,      0 | Width:      0 | Height:      0 
#             | Tip Switch: 0 | # | # | Contact Id:   15 | X:      0 ,      0 | Y:      0 ,      0 | Width:      0 | Height:      0 | Scan Time:      0 | Contact Count:    1 
E: 000000.000000 60 01 01 00 6c 04 6c 04 56 00 56 00 30 00 30 00 00 0f 00 00 00 00 00 00 00 00 00 00 00 00 00 0f 00 00 00 00 00 00 00 00 00 00 00 00 00 0f 00 00 00 00 00 00 00 00 00 00 00 00 00 00 01
# ReportID: 1 / Tip Switch: 1 | # | # | Contact Id:    0 | X:   1132 ,   1132 | Y:     87 ,     87 | Width:     48 | Height:     48 
#             | Tip Switch: 0 | # | # | Contact Id:   15 | X:      0 ,      0 | Y:      0 ,      0 | Width:      0 | Height:      0 
#             | Tip Switch: 0 | # | # | Contact Id:   15 | X:      0 ,      0 | Y:      0 ,      0 | Width:      0 | Height:      0 
#             | Tip Switch: 0 | # | # | Contact Id:   15 | X:      0 ,      0 | Y:      0 ,      0 | Width:      0 | Height:      0 | Scan Time:    100 | Contact Count:    1 
E: 000000.003095 60 01 01 00 6c 04 6c 04 57 00 57 00 30 00 30 00 00 0f 00 00 00 00 00 00 00 00 00 00 00 00 00 0f 00 00 00 00 00 00 00 00 00 00 00 00 00 0f 00 00 00 00 00 00 00 00 00 00 00 00 64 00 01
# ReportID: 1 / Tip Switch: 1 | # | # | Contact Id:    0 | X:   1132 ,   1132 | Y:     87 ,     87 | Width:     48 | Height:     48 
#             | Tip Switch: 0 | # | # | Contact Id:   15 | X:      0 ,      0 | Y:      0 ,      0 | Width:      0 | Height:      0 
#             | Tip Switch: 0 | # | # | Contact Id:   15 | X:      0 ,      0 | Y:      0 ,      0 | Width:      0 | Height:      0 
#             | Tip Switch: 0 | # | # | Contact Id:   15 | X:      0 ,      0 | Y:      0 ,      0 | Width:      0 | Height:      0 | Scan Time:    200 | Contact Count:    1 
E: 000000.007295 60 01 01 00 6c 04 6c 04 57 00 57 00 30 00 30 00 00 0f 00 00 00 00 00 00 00 00 00 00 00 00 00 0f 00 00 00 00 00 00 00 00 00 00 00 00 00 0f 00 00 00 00 00 00 00 00 00 00 00 00 c8 00 01
# ReportID: 1 / Tip Switch: 1 | # | # | Contact Id:    0 | X:   1132 ,   1132 | Y:     88 ,     88 | Width:     48 | Height:     48 
#             | Tip Switch: 0 | # | # | Contact Id:   15 | X:      0 ,      0 | Y:      0 ,      0 | Width:      0 | Height:      0 
#             | Tip Switch: 0 | # | # | Contact Id:   15 | X:      0 ,      0 | Y:      0 ,      0 | Width:      0 | Height:      0 
#             | Tip Switch: 0 | # | # | Contact Id:   15 | X:      0 ,      0 | Y:      0 ,      0 | Width:      0 | Height:      0 | Scan Time:    300 | Contact Count:    1 
E: 000000.011587 60 01 01 00 6c 04 6c 04 58 00 58 00 30 00 30 00 00 0f 00 00 00 00 00 00 00 00 00 00 00 00 00 0f 00 00 00 00 00 00 00 00 00 00 00 00 00 0f 00 00 00 00 00 00 00 00 00 00 00 00 2c 01 01
# ReportID: 1 / Tip Switch: 1 | # | # | Contact Id:    0 | X:   1132 ,   1132 | Y:     89 ,     89 | Width:     48 | Height:     48 
#             | Tip Switch: 0 | # | # | Contact Id:   15 | X:      0 ,      0 | Y:      0 ,      0 | Width:      0 | Height:      0 
#             | Tip Switch: 0 | # | # | Contact Id:   15 | X:      0 ,      0 | Y:      0 ,      0 | Width:      0 | Height:      0 
#             | Tip Switch: 0 | # | # | Contact Id:   15 | X:      0 ,      0 | Y:      0 ,      0 | Width:      0 | Height:      0 | Scan Time:    400 | Contact Count:    1 
E: 000000.015738 60 01 01 00 6c 04 6c 04 59 00 59 00 30 00 30 00 00 0f 00 00 00 00 00 00 00 00 00 00 00 00 00 0f 00 00 00 00 00 00 00 00 00 00 00 00 00 0f 00 00 00 00 00 00 00 00 00 00 00 00 90 01 01
# ReportID: 1 / Tip Switch: 1 | # | # | Contact Id:    0 | X:   1132 ,   1132 | Y:     91 ,     91 | Width:     48 | Height:     48 
#             | Tip Switch: 0 | # | # | Contact Id:   15 | X:      0 ,      0 | Y:      0 ,      0 | Width:      0 | Height:      0 
#             | Tip Switch: 0 | # | # | Contact Id:   15 | X:      0 ,      0 | Y:      0 ,      0 | Width:      0 | Height:      0 
#             | Tip Switch: 0 | # | # | Contact Id:   15 | X:      0 ,      0 | Y:      0 ,      0 | Width:      0 | Height:      0 | Scan Time:    500 | Contact Count:    1 
E: 000000.019837 60 01 01 00 6c 04 6c 04 5b 00 5b 00 30 00 30 00 00 0f 00 00 00 00 00 00 00 00 00 00 00 00 00 0f 00 00 00 00 00 00 00 00 00 00 00 00 00 0f 00 00 00 00 00 00 00 00 00 00 00 00 f4 01 01
# ReportID: 1 / Tip Switch: 1 | # | # | Contact Id:    0 | X:   1132 ,   1132 | Y:     94 ,     94 | Width:     48 | Height:     48 
#             | Tip Switch: 0 | # | # | Contact Id:   15 | X:      0 ,      0 | Y:      0 ,      0 | Width:      0 | Height:      0 
#             | Tip Switch: 0 | # | # | Contact Id:   15 | X:      0 ,      0 | Y:      0 ,      0 | Width:      0 | Height:      0 
#             | Tip Switch: 0 | # | # | Contact Id:   15 | X:      0 ,      0 | Y:      0 ,      0 | Width:      0 | Height:      0 | Scan Time:    600 | Contact Count:    1 
E: 000000.024004 60 01 01 00 6c 04 6c 04 5e 00 5e 00 30 00 30 00 00 0f 00 00 00 00 00 00 00 00 00 00 00 00 00 0f 00 00 00 00 00 00 00 00 00 00 00 00 00 0f 00 00 00 00 00 00 00 00 00 00 00 00 58 02 01
# ReportID: 1 / Tip Switch: 1 | # | # | Contact Id:    0 | X:   1132 ,   1132 | Y:     98 ,     98 | Width:     48 | Height:     48 
#             | Tip Switch: 0 | # | # | Contact Id:   15 | X:      0 ,      0 | Y:      0 ,      0 | Width:      0 | Height:      0 
#             | Tip Switch: 0 | # | # | Contact Id:   15 | X:      0 ,      0 | Y:      0 ,      0 | Width:      0 | Height:      0 
#             | Tip Switch: 0 | # | # | Contact Id:   15 | X:      0 ,      0 | Y:      0 ,      0 | Width:      0 | Height:      0 | Scan Time:    700 | Contact Count:    1 
E: 000000.028209 60 01 01 00 6c 04 6c 04 62 00 62 00 30 00 30 00 00 0f 00 00 00 00 00 00 00 00 00 00 00 00 00 0f 00 00 00 00 00 00 00 00 00 00 00 00 00 0f 00 00 00 00 00 00 00 00 00 00 00 00 bc 02 01
# ReportID: 1 / Tip Switch: 1 | # | # | Contact Id:    0 | X:   1132 ,   1132 | Y:    103 ,    103 | Width:     48 | Height:     48 
#             | Tip Switch: 0 | # | # | Contact Id:   15 | X:      0 ,      0 | Y:      0 ,      0 | Width:      0 | Height:      0 
#             | Tip Switch: 0 | # | # | Contact Id:   15 | X:      0 ,      0 | Y:      0 ,      0 | Width:      0 | Height:      0 
#             | Tip Switch: 0 | # | # | Contact Id:   15 | X:      0 ,      0 | Y:      0 ,      0 | Width:      0 | Height:      0 | Scan Time:    800 | Contact Count:    1 
E: 000000.032372 60 01 01 00 6c 04 6c 04 67 00 67 00 30 00 30 00 00 0f 00 00 00 00 00 00 00 00 00 00 00 00 00 0f 00 00 00 00 00 00 00 00 00 00 00 00 00 0f 00 00 00 00 00 00 00 00 00 00 00 00 20 03 01
# ReportID: 1 / Tip Switch: 1 | # | # | Contact Id:    0 | X:   1132 ,   1132 | Y:    109 ,    109 | Width:     48 | Height:     48 
#             | Tip Switch: 0 | # | # | Contact Id:   15 | X:      0 ,      0 | Y:      0 ,      0 | Width:      0 | Height:      0 
#             | Tip Switch: 0 | # | # | Contact Id:   15 | X:      0 ,      0 | Y:      0 ,      0 | Width:      0 | Height:      0 
#             | Tip Switch: 0 | # | # | Contact Id:   15 | X:      0 ,      0 | Y:      0 ,      0 | Width:      0 | Height:      0 | Scan Time:    900 | Contact Count:    1 
E: 000000.036379 60 01 01 00 6c 04 6c 04 6d 00 6d 00 30 00 30 00 00 0f 00 00 00 00 00 00 00 00 00 00 00 00 00 0f 00 00 00 00 00 00 00 00 00 00 00 00 00 0f 00 00 00 00 00 00 00 00 00 00 00 00 84 03 01
# ReportID: 1 / Tip Switch: 1 | # | # | Contact Id:    0 | X:   1132 ,   1132 | Y:    116 ,    116 | Width:     48 | Height:     48 
#             | Tip Switch: 0 | # | # | Contact Id:   15 | X:      0 ,      0 | Y:      0 ,      0 | Width:      0 | Height:      0 
#             | Tip Switch: 0 | # | # | Contact Id:   15 | X:      0 ,      0 | Y:      0 ,      0 | Width:      0 | Height:      0 
#             | Tip Switch: 0 | # | # | Contact Id:   15 | X:      0 ,      0 | Y:      0 ,      0 | Width:      0 | Height:      0 | Scan Time:   1000 | Contact Count:    1 
E: 000000.040639 60 01 01 00 6c 04 6c 04 74 00 74 00 30 00 30 00 00 0f 00 00 00 00 00 00 00 00 00 00 00 00 00 0f 00 00 00 00 00 00 00 00 00 00 00 00 00 0f 00 00 00 00 00 00 00 00 00 00 00 00 e8 03 01
# ReportID: 1 / Tip Switch: 1 | # | # | Contact Id:    0 | X:   1132 ,   1132 | Y:    123 ,    123 | Width:     48 | Height:     48 
#             | Tip Switch: 0 | # | # | Contact Id:   15 | X:      0 ,      0 | Y:      0 ,      0 | Width:      0 | Height:      0 
#             | Tip Switch: 0 | # | # | Contact Id:   15 | X:      0 ,      0 | Y:      0 ,      0 | Width:      0 | Height:      0 
#             | Tip Switch: 0 | # | # | Contact Id:   15 | X:      0 ,      0 | Y:      0 ,      0 | Width:      0 | Height:      0 | Scan Time:   1100 | Contact Count:    1 
E: 000000.044765 60 01 01 00 6c 04 6c 04 7b 00 7b 00 30 00 30 00 00 0f 00 00 00 00 00 00 00 00 00 00 00 00 00 0f 00 00 00 00 00 00 00 00 00 00 00 00 00 0f 00 00 00 00 00 00 00 00 00 00 00 00 4c 04 01
# ReportID: 1 / Tip Switch: 1 | # | # | Contact Id:    0 | X:   1132 ,   1132 | Y:    130 ,    130 | Width:     48 | Height:     48 
#             | Tip Switch: 0 | # | # | Contact Id:   15 | X:      0 ,      0 | Y:      0 ,      0 | Width:      0 | Height:      0 
#             | Tip Switch: 0 | # | # | Contact Id:   15 | X:      0 ,      0 | Y:      0 ,      0 | Width:      0 | Height:      0 
#             | Tip Switch: 0 | # | # | Contact Id:   15 | X:      0 ,      0 | Y:      0 ,      0 | Width:      0 | Height:      0 | Scan Time:   1200 | Contact Count:    1 
E: 000000.048962 60 01 01 00 6c 04 6c 04 82 00 82 00 30 00 30 00 00 0f 00 00 00 00 00 00 00 00 00 00 00 00 00 0f 00 00 00 00 00 00 00 00 00 00 00 00 00 0f 00 00 00 00 00 00 00 00 00 00 00 00 b0 04 01
# ReportID: 1 / Tip Switch: 1 | # | # | Contact Id:    0 | X:   1132 ,   1132 | Y:    139 ,    139 | Width:     48 | Height:     48 
#             | Tip Switch: 0 | # | # | Contact Id:   15 | X:      0 ,      0 | Y:      0 ,      0 | Width:      0 | Height:      0 
#             | Tip Switch: 0 | # | # | Contact Id:   15 | X:      0 ,      0 | Y:      0 ,      0 | Width:      0 | Height:      0 
#             | Tip Switch: 0 | # | # | Contact Id:   15 | X:      0 ,      0 | Y:      0 ,      0 | Width:      0 | Height:      0 | Scan Time:   1300 | Contact Count:    1 
E: 000000.053403 60 01 01 00 6c 04 6c 04 8b 00 8b 00 30 00 30 00 00 0f 00 00 00 00 00 00 00 00 00 00 00 00 00 0f 00 00 00 00 00 00 00 00 00 00 00 00 00 0f 00 00 00 00 00 00 00 00 00 00 00 00 14 05 01
# ReportID: 1 / Tip Switch: 1 | # | # | Contact Id:    0 | X:   1132 ,   1132 | Y:    147 ,    147 | Width:     48 | Height:     48 
#             | Tip Switch: 0 | # | # | Contact Id:   15 | X:      0 ,      0 | Y:      0 ,      0 | Width:      0 | Height:      0 
#             | Tip Switch: 0 | # | # | Contact Id:   15 | X:      0 ,      0 | Y:      0 ,      0 | Width:      0 | Height:      0 
#             | Tip Switch: 0 | # | # | Contact Id:   15 | X:      0 ,      0 | Y:      0 ,      0 | Width:      0 | Height:      0 | Scan Time:   1400 | Contact Count:    1 
E: 000000.057384 60 01 01 00 6c 04 6c 04 93 00 93 00 30 00 30 00 00 0f 00 00 00 00 00 00 00 00 00 00 00 00 00 0f 00 00 00 00 00 00 00 00 00 00 00 00 00 0f 00 00 00 00 00 00 00 00 00 00 00 00 78 05 01
# ReportID: 1 / Tip Switch: 1 | # | # | Contact Id:    0 | X:   1132 ,   1132 | Y:    156 ,    156 | Width:     48 | Height:     48 
#             | Tip Switch: 0 | # | # | Contact Id:   15 | X:      0 ,      0 | Y:      0 ,      0 | Width:      0 | Height:      0 
#             | Tip Switch: 0 | # | # | Contact Id:   15 | X:      0 ,      0 | Y:      0 ,      0 | Width:      0 | Height:      0 
#             | Tip Switch: 0 | # | # | Contact Id:   15 | X:      0 ,      0 | Y:      0 ,      0 | Width:      0 | Height:      0 | Scan Time:   1500 | Contact Count:    1 
E: 000000.061287 60 01 01 00 6c 04 6c 04 9c 00 9c 00 30 00 30 00 00 0f 00 00 00 00 00 00 00 00 00 00 00 00 00 0f 00 00 00 00 00 00 00 00 00 00 00 00 00 0f 00 00 00 00 00 00 00 00 00 00 00 00 dc 05 01
# ReportID: 1 / Tip Switch: 1 | # | # | Contact Id:    0 | X:   1132 ,   1132 | Y:    166 ,    166 | Width:     48 | Height:     48 
#             | Tip Switch: 0 | # | # | Contact Id:   15 | X:      0 ,      0 | Y:      0 ,      0 | Width:      0 | Height:      0 
#             | Tip Switch: 0 | # | # | Contact Id:   15 | X:      0 ,      0 | Y:      0 ,      0 | Width:      0 | Height:      0 
#             | Tip Switch: 0 | # | # | Contact Id:   15 | X:      0 ,      0 | Y:      0 ,      0 | Width:      0 | Height:      0 | Scan Time:   1600 | Contact Count:    1 
E: 000000.065679 60 01 01 00 6c 04 6c 04 a6 00 a6 00 30 00 30 00 00 0f 00 00 00 00 00 00 00 00 00 00 00 00 00 0f 00 00 00 00 00 00 00 00 00 00 00 00 00 0f 00 00 00 00 00 00 00 00 00 00 00 00 40 06 01
# ReportID: 1 / Tip Switch: 1 | # | # | Contact Id:    0 | X:   1132 ,   1132 | Y:    175 ,    175 | Width:     48 | Height:     48 
#             | Tip Switch: 0 | # | # | Contact Id:   15 | X:      0 ,      0 | Y:      0 ,      0 | Width:      0 | Height:      0 
#             | Tip Switch: 0 | # | # | Contact Id:   15 | X:      0 ,      0 | Y:      0 ,      0 | Width:      0 | Height:      0 
#             | Tip Switch: 0 | # | # | Contact Id:   15 | X:      0 ,      0 | Y:      0 ,      0 | Width:      0 | Height:      0 | Scan Time:   1700 | Contact Count:    1 
E: 000000.069591 60 01 01 00 6c 04 6c 04 af 00 af 00 30 00 30 00 00 0f 00 00 00 00 00 00 00 00 00 00 00 00 00 0f 00 00 00 00 00 00 00 00 00 00 00 00 00 0f 00 00 00 00 00 00 00 00 00 00 00 00 a4 06 01
# ReportID: 1 / Tip Switch: 1 | # | # | Contact Id:    0 | X:   1132 ,   1132 | Y:    184 ,    184 | Width:     48 | Height:     48 
#             | Tip Switch: 0 | # | # | Contact Id:   15 | X:      0 ,      0 | Y:      0 ,      0 | Width:      0 | Height:      0 
#             | Tip Switch: 0 | # | # | Contact Id:   15 | X:      0 ,      0 | Y:      0 ,      0 | Width:      0 | Height:      0 
#             | Tip Switch: 0 | # | # | Contact Id:   15 | X:      0 ,      0 | Y:      0 ,      0 | Width:      0 | Height:      0 | Scan Time:   1800 | Contact Count:    1 
E: 000000.074179 60 01 01 00 6c 04 6c 04 b8 00 b8 00 30 00 30 00 00 0f 00 00 00 00 00 00 00 00 00 00 00 00 00 0f 00 00 00 00 00 00 00 00 00 00 00 00 00 0f 00 00 00 00 00 00 00 00 00 00 00 00 08 07 01
# ReportID: 1 / Tip Switch: 1 | # | # | Contact Id:    0 | X:   1132 ,   1132 | Y:    194 ,    194 | Width:     48 | Height:     48 
#             | Tip Switch: 0 | # | # | Contact Id:   15 | X:      0 ,      0 | Y:      0 ,      0 | Width:      0 | Height:      0 
#             | Tip Switch: 0 | # | # | Contact Id:   15 | X:      0 ,      0 | Y:      0 ,      0 | Width:      0 | Height:      0 
#             | Tip Switch: 0 | # | # | Contact Id:   15 | X:      0 ,      0 | Y:      0 ,      0 | Width:      0 | Height:      0 | Scan Time:   1900 | Contact Count:    1 
E: 000000.078047 60 01 01 00 6c 04 6c 04 c2 00 c2 00 30 00 30 00 00 0f 00 00 00 00 00 00 00 00 00 00 00 00 00 0f 00 00 00 00 00 00 00 00 00 00 00 00 00 0f 00 00 00 00 00 00 00 00 00 00 00 00 6c 07 01
# ReportID: 1 / Tip Switch: 1 | # | # | Contact Id:    0 | X:   1132 ,   1132 | Y:    204 ,    204 | Width:     48 | Height:     48 
#             | Tip Switch: 0 | # | # | Contact Id:   15 | X:      0 ,      0 | Y:      0 ,      0 | Width:      0 | Height:      0 
#             | Tip Switch: 0 | # | # | Contact Id:   15 | X:      0 ,      0 | Y:      0 ,      0 | Width:      0 | Height:      0 
#             | Tip Switch: 0 | # | # | Contact Id:   15 | X:      0 ,      0 | Y:      0 ,      0 | Width:      0 | Height:      0 | Scan Time:   2000 | Contact Count:    1 
E: 000000.082384 60 01 01 00 6c 04 6c 04 cc 00 cc 00 30 00 30 00 00 0f 00 00 00 00 00 00 00 00 00 00 00 00 00 0f 00 00 00 00 00 00 00 00 00 00 00 00 00 0f 00 00 00 00 00 00 00 00 00 00 00 00 d0 07 01
# ReportID: 1 / Tip Switch: 1 | # | # | Contact Id:    0 | X:   1132 ,   1132 | Y:    214 ,    214 | Width:     48 | Height:     48 
#             | Tip Switch: 0 | # | # | Contact Id:   15 | X:      0 ,      0 | Y:      0 ,      0 | Width:      0 | Height:      0 
#             | Tip Switch: 0 | # | # | Contact Id:   15 | X:      0 ,      0 | Y:      0 ,      0 | Width:      0 | Height:      0 
#             | Tip Switch: 0 | # | # | Contact Id:   15 | X:      0 ,      0 | Y:      0 ,      0 | Width:      0 | Height:      0 | Scan Time:   2100 | Contact Count:    1 
E: 000000.086354 60 01 01 00 6c 04 6c 04 d6 00 d6 00 30 00 30 00 00 0f 00 00 00 00 00 00 00 00 00 00 00 00 00 0f 00 00 00 00 00 00 00 00 00 00 00 00 00 0f 00 00 00 00 00 00 00 00 00 00 00 00 34 08 01
# ReportID: 1 / Tip Switch: 1 | # | # | Contact Id:    0 | X:   1132 ,   1132 | Y:    225 ,    225 | Width:     48 | Height:     48 
#             | Tip Switch: 0 | # | # | Contact Id:   15 | X:      0 ,      0 | Y:      0 ,      0 | Width:      0 | Height:      0 
#             | Tip Switch: 0 | # | # | Contact Id:   15 | X:      0 ,      0 | Y:      0 ,      0 | Width:      0 | Height:      0 
#             | Tip Switch: 0 | # | # | Contact Id:   15 | X:      0 ,      0 | Y:      0 ,      0 | Width:      0 | Height:      0 | Scan Time:   2200 | Contact Count:    1 
E: 000000.090687 60 01 01 00 6c 04 6c 04 e1 00 e1 00 30 00 30 00 00 0f 00 00 00 00 00 00 00 00 00 00 00 00 00 0f 00 00 00 00 00 00 00 00 00 00 00 00 00 0f 00 00 00 00 00 00 00 00 00 00 00 00 98 08 01
# ReportID: 1 / Tip Switch: 1 | # | # | Contact Id:    0 | X:   1132 ,   1132 | Y:    235 ,    235 | Width:     48 | Height:     48 
#             | Tip Switch: 0 | # | # | Contact Id:   15 | X:      0 ,      0 | Y:      0 ,      0 | Width:      0 | Height:      0 
#             | Tip Switch: 0 | # | # | Contact Id:   15 | X:      0 ,      0 | Y:      0 ,      0 | Width:      0 | Height:      0 
#             | Tip Switch: 0 | # | # | Contact Id:   15 | X:      0 ,      0 | Y:      0 ,      0 | Width:      0 | Height:      0 | Scan Time:   2300 | Contact Count:    1 
E: 000000.094657 60 01 01 00 6c 04 6c 04 eb 00 eb 00 30 00 30 00 00 0f 00 00 00 00 00 00 00 00 00 00 00 00 00 0f 00 00 00 00 00 00 00 00 00 00 00 00 00 0f 00 00 00 00 00 00 00 00 00 00 00 00 fc 08 01
# ReportID: 1 / Tip Switch: 1 | # | # | Contact Id:    0 | X:   1132 ,   1132 | Y:    246 ,    246 | Width:     48 | Height:     48 
#             | Tip Switch: 0 | # | # | Contact Id:   15 | X:      0 ,      0 | Y:      0 ,      0 | Width:      0 | Height:      0 
#             | Tip Switch: 0 | # | # | Contact Id:   15 | X:      0 ,      0 | Y:      0 ,      0 | Width:      0 | Height:      0 
#             | Tip Switch: 0 | # | # | Contact Id:   15 | X:      0 ,      0 | Y:      0 ,      0 | Width:      0 | Height:      0 | Scan Time:   2400 | Contact Count:    1 
E: 000000.099015 60 01 01 00 6c 04 6c 04 f6 00 f6 00 30 00 30 00 00 0f 00 00 00 00 00 00 00 00 00 00 00 00 00 0f 00 00 00 00 00 00 00 00 00 00 00 00 00 0f 00 00 00 00 00 00 00 00 00 00 00 00 60 09 01
# ReportID: 1 / Tip Switch: 1 | # | # | Contact Id:    0 | X:   1132 ,   1132 | Y:    257 ,    257 | Width:     48 | Height:     48 
#             | Tip Switch: 0 | # | # | Contact Id:   15 | X:      0 ,      0 | Y:      0 ,      0 | Width:      0 | Height:      0 
#             | Tip Switch: 0 | # | # | Contact Id:   15 | X:      0 ,      0 | Y:      0 ,      0 | Width:      0 | Height:      0 
#             | Tip Switch: 0 | # | # | Contact Id:   15 | X:      0 ,      0 | Y:      0 ,      0 | Width:      0 | Height:      0 | Scan Time:   2500 | Contact Count:    1 
E: 000000.103130 60 01 01 00 6c 04 6c 04 01 01 01 01 30 00 30 00 00 0f 00 00 00 00 00 00 00 00 00 00 00 00 00 0f 00 00 00 00 00 00 00 00 00 00 00 00 00 0f 00 00 00 00 00 00 00 00 00 00 00 00 c4 09 01
# ReportID: 1 / Tip Switch: 1 | # | # | Contact Id:    0 | X:   1132 ,   1132 | Y:    268 ,    268 | Width:     48 | Height:     48 
#             | Tip Switch: 0 | # | # | Contact Id:   15 | X:      0 ,      0 | Y:      0 ,      0 | Width:      0 | Height:      0 
#             | Tip Switch: 0 | # | # | Contact Id:   15 | X:      0 ,      0 | Y:      0 ,      0 | Width:      0 | Height:      0 
#             | Tip Switch: 0 | # | # | Contact Id:   15 | X:      0 ,      0 | Y:      0 ,      0 | Width:      0 | Height:      0 | Scan Time:   2600 | Contact Count:    1 
E: 000000.107376 60 01 01 00 6c 04 6c 04 0c 01 0c 01 30 00 30 00 00 0f 00 00 00 00 00 00 00 00 00 00 00 00 00 0f 00 00 00 00 00 00 00 00 00 00 00 00 00 0f 00 00 00 00 00 00 00 00 00 00 00 00 28 0a 01
# ReportID: 1 / Tip Switch: 1 | # | # | Contact Id:    0 | X:   1132 ,   1132 | Y:    280 ,    280 | Width:     48 | Height:     48 
#             | Tip Switch: 0 | # | # | Contact Id:   15 | X:      0 ,      0 | Y:      0 ,      0 | Width:      0 | Height:      0 
#             | Tip Switch: 0 | # | # | Contact Id:   15 | X:      0 ,      0 | Y:      0 ,      0 | Width:      0 | Height:      0 
#             | Tip Switch: 0 | # | # | Contact Id:   15 | X:      0 ,      0 | Y:      0 ,      0 | Width:      0 | Height:      0 | Scan Time:   2700 | Contact Count:    1 
E: 000000.111369 60 01 01 00 6c 04 6c 04 18 01 18 01 30 00 30 00 00 0f 00 00 00 00 00 00 00 00 00 00 00 00 00 0f 00 00 00 00 00 00 00 00 00 00 00 00 00 0f 00 00 00 00 00 00 00 00 00 00 00 00 8c 0a 01
# ReportID: 1 / Tip Switch: 1 | # | # | Contact Id:    0 | X:   1132 ,   1132 | Y:    292 ,    292 | Width:     48 | Height:     48 
#             | Tip Switch: 0 | # | # | Contact Id:   15 | X:      0 ,      0 | Y:      0 ,      0 | Width:      0 | Height:      0 
#             | Tip Switch: 0 | # | # | Contact Id:   15 | X:      0 ,      0 | Y:      0 ,      0 | Width:      0 | Height:      0 
#             | Tip Switch: 0 | # | # | Contact Id:   15 | X:      0 ,      0 | Y:      0 ,      0 | Width:      0 | Height:      0 | Scan Time:   2800 | Contact Count:    1 
E: 000000.115692 60 01 01 00 6c 04 6c 04 24 01 24 01 30 00 30 00 00 0f 00 00 00 00 00 00 00 00 00 00 00 00 00 0f 00 00 00 00 00 00 00 00 00 00 00 00 00 0f 00 00 00 00 00 00 00 00 00 00 00 00 f0 0a 01
# ReportID: 1 / Tip Switch: 1 | # | # | Contact Id:    0 | X:   1132 ,   1132 | Y:    303 ,    303 | Width:     48 | Height:     48 
#             | Tip Switch: 0 | # | # | Contact Id:   15 | X:      0 ,      0 | Y:      0 ,      0 | Width:      0 | Height:      0 
#             | Tip Switch: 0 | # | # | Contact Id:   15 | X:      0 ,      0 | Y:      0 ,      0 | Width:      0 | Height:      0 
#             | Tip Switch: 0 | # | # | Contact Id:   15 | X:      0 ,      0 | Y:      0 ,      0 | Width:      0 | Height:      0 | Scan Time:   2900 | Contact Count:    1 
E: 000000.119807 60 01 01 00 6c 04 6c 04 2f 01 2f 01 30 00 30 00 00 0f 00 00 00 00 00 00 00 00 00 00 00 00 00 0f 00 00 00 00 00 00 00 00 00 00 00 00 00 0f 00 00 00 00 00 00 00 00 00 00 00 00 54 0b 01
# ReportID: 1 / Tip Switch: 1 | # | # | Contact Id:    0 | X:   1132 ,   1132 | Y:    315 ,    315 | Width:     48 | Height:     48 
#             | Tip Switch: 0 | # | # | Contact Id:   15 | X:      0 ,      0 | Y:      0 ,      0 | Width:      0 | Height:      0 
#             | Tip Switch: 0 | # | # | Contact Id:   15 | X:      0 ,      0 | Y:      0 ,      0 | Width:      0 | Height:      0 
#             | Tip Switch: 0 | # | # | Contact Id:   15 | X:      0 ,      0 | Y:      0 ,      0 | Width:      0 | Height:      0 | Scan Time:   3000 | Contact Count:    1 
E: 000000.124004 60 01 01 00 6c 04 6c 04 3b 01 3b 01 30 00 30 00 00 0f 00 00 00 00 00 00 00 00 00 00 00 00 00 0f 00 00 00 00 00 00 00 00 00 00 00 00 00 0f 00 00 00 00 00 00 00 00 00 00 00 00 b8 0b 01
# ReportID: 1 / Tip Switch: 1 | # | # | Contact Id:    0 | X:   1132 ,   1132 | Y:    327 ,    327 | Width:     48 | Height:     48 
#             | Tip Switch: 0 | # | # | Contact Id:   15 | X:      0 ,      0 | Y:      0 ,      0 | Width:      0 | Height:      0 
#             | Tip Switch: 0 | # | # | Contact Id:   15 | X:      0 ,      0 | Y:      0 ,      0 | Width:      0 | Height:      0 
#             | Tip Switch: 0 | # | # | Contact Id:   15 | X:      0 ,      0 | Y:      0 ,      0 | Width:      0 | Height:      0 | Scan Time:   3100 | Contact Count:    1 
E: 000000.128184 60 01 01 00 6c 04 6c 04 47 01 47 01 30 00 30 00 00 0f 00 00 00 00 00 00 00 00 00 00 00 00 00 0f 00 00 00 00 00 00 00 00 00 00 00 00 00 0f 00 00 00 00 00 00 00 00 00 00 00 00 1c 0c 01
# ReportID: 1 / Tip Switch: 1 | # | # | Contact Id:    0 | X:   1132 ,   1132 | Y:    340 ,    340 | Width:     48 | Height:     48 
#             | Tip Switch: 0 | # | # | Contact Id:   15 | X:      0 ,      0 | Y:      0 ,      0 | Width:      0 | Height:      0 
#             | Tip Switch: 0 | # | # | Contact Id:   15 | X:      0 ,      0 | Y:      0 ,      0 | Width:      0 | Height:      0 
#             | Tip Switch: 0 | # | # | Contact Id:   15 | X:      0 ,      0 | Y:      0 ,      0 | Width:      0 | Height:      0 | Scan Time:   3200 | Contact Count:    1 
E: 000000.132378 60 01 01 00 6c 04 6c 04 54 01 54 01 30 00 30 00 00 0f 00 00 00 00 00 00 00 00 00 00 00 00 00 0f 00 00 00 00 00 00 00 00 00 00 00 00 00 0f 00 00 00 00 00 00 00 00 00 00 00 00 80 0c 01
# ReportID: 1 / Tip Switch: 1 | # | # | Contact Id:    0 | X:   1132 ,   1132 | Y:    353 ,    353 | Width:     48 | Height:     48 
#             | Tip Switch: 0 | # | # | Contact Id:   15 | X:      0 ,      0 | Y:      0 ,      0 | Width:      0 | Height:      0 
#             | Tip Switch: 0 | # | # | Contact Id:   15 | X:      0 ,      0 | Y:      0 ,      0 | Width:      0 | Height:      0 
#             | Tip Switch: 0 | # | # | Contact Id:   15 | X:      0 ,      0 | Y:      0 ,      0 | Width:      0 | Height:      0 | Scan Time:   3300 | Contact Count:    1 
E: 000000.136360 60 01 01 00 6c 04 6c 04 61 01 61 01 30 00 30 00 00 0f 00 00 00 00 00 00 00 00 00 00 00 00 00 0f 00 00 00 00 00 00 00 00 00 00 00 00 00 0f 00 00 00 00 00 00 00 00 00 00 00 00 e4 0c 01
# ReportID: 1 / Tip Switch: 1 | # | # | Contact Id:    0 | X:   1132 ,   1132 | Y:    366 ,    366 | Width:     48 | Height:     48 
#             | Tip Switch: 0 | # | # | Contact Id:   15 | X:      0 ,      0 | Y:      0 ,      0 | Width:      0 | Height:      0 
#             | Tip Switch: 0 | # | # | Contact Id:   15 | X:      0 ,      0 | Y:      0 ,      0 | Width:      0 | Height:      0 
#             | Tip Switch: 0 | # | # | Contact Id:   15 | X:      0 ,      0 | Y:      0 ,      0 | Width:      0 | Height:      0 | Scan Time:   3400 | Contact Count:    1 
E: 000000.140691 60 01 01 00 6c 04 6c 04 6e 01 6e 01 30 00 30 00 00 0f 00 00 00 00 00 00 00 00 00 00 00 00 00 0f 00 00 00 00 00 00 00 00 00 00 00 00 00 0f 00 00 00 00 00 00 00 00 00 00 00 00 48 0d 01
# ReportID: 1 / Tip Switch: 1 | # | # | Contact Id:    0 | X:   1132 ,   1132 | Y:    379 ,    379 | Width:     48 | Height:     48 
#             | Tip Switch: 0 | # | # | Contact Id:   15 | X:      0 ,      0 | Y:      0 ,      0 | Width:      0 | Height:      0 
#             | Tip Switch: 0 | # | # | Contact Id:   15 | X:      0 ,      0 | Y:      0 ,      0 | Width:      0 | Height:      0 
#             | Tip Switch: 0 | # | # | Contact Id:   15 | X:      0 ,      0 | Y:      0 ,      0 | Width:      0 | Height:      0 | Scan Time:   3500 | Contact Count:    1 
E: 000000.144581 60 01 01 00 6c 04 6c 04 7b 01 7b 01 30 00 30 00 00 0f 00 00 00 00 00 00 00 00 00 00 00 00 00 0f 00 00 00 00 00 00 00 00 00 00 00 00 00 0f 00 00 00 00 00 00 00 00 00 00 00 00 ac 0d 01
# ReportID: 1 / Tip Switch: 1 | # | # | Contact Id:    0 | X:   1132 ,   1132 | Y:    393 ,    393 | Width:     48 | Height:     48 
#             | Tip Switch: 0 | # | # | Contact Id:   15 | X:      0 ,      0 | Y:      0 ,      0 | Width:      0 | Height:      0 
#             | Tip Switch: 0 | # | # | Contact Id:   15 | X:      0 ,      0 | Y:      0 ,      0 | Width:      0 | Height:      0 
#             | Tip Switch: 0 | # | # | Contact Id:   15 | X:      0 ,      0 | Y:      0 ,      0 | Width:      0 | Height:      0 | Scan Time:   3600 | Contact Count:    1 
E: 000000.149012 60 01 01 00 6c 04 6c 04 89 01 89 01 30 00 30 00 00 0f 00 00 00 00 00 00 00 00 00 00 00 00 00 0f 00 00 00 00 00 00 00 00 00 00 00 00 00 0f 00 00 00 00 00 00 00 00 00 00 00 00 10 0e 01
# ReportID: 1 / Tip Switch: 1 | # | # | Contact Id:    0 | X:   1132 ,   1132 | Y:    406 ,    406 | Width:     48 | Height:     48 
#             | Tip Switch: 0 | # | # | Contact Id:   15 | X:      0 ,      0 | Y:      0 ,      0 | Width:      0 | Height:      0 
#             | Tip Switch: 0 | # | # | Contact Id:   15 | X:      0 ,      0 | Y:      0 ,      0 | Width:      0 | Height:      0 
#             | Tip Switch: 0 | # | # | Contact Id:   15 | X:      0 ,      0 | Y:      0 ,      0 | Width:      0 | Height:      0 | Scan Time:   3700 | Contact Count:    1 
E: 000000.153111 60 01 01 00 6c 04 6c 04 96 01 96 01 30 00 30 00 00 0f 00 00 00 00 00 00 00 00 00 00 00 00 00 0f 00 00 00 00 00 00 00 00 00 00 00 00 00 0f 00 00 00 00 00 00 00 00 00 00 00 00 74 0e 01
# ReportID: 1 / Tip Switch: 1 | # | # | Contact Id:    0 | X:   1132 ,   1132 | Y:    420 ,    420 | Width:     48 | Height:     48 
#             | Tip Switch: 0 | # | # | Contact Id:   15 | X:      0 ,      0 | Y:      0 ,      0 | Width:      0 | Height:      0 
#             | Tip Switch: 0 | # | # | Contact Id:   15 | X:      0 ,      0 | Y:      0 ,      0 | Width:      0 | Height:      0 
#             | Tip Switch: 0 | # | # | Contact Id:   15 | X:      0 ,      0 | Y:      0 ,      0 | Width:      0 | Height:      0 | Scan Time:   3800 | Contact Count:    1 
E: 000000.157380 60 01 01 00 6c 04 6c 04 a4 01 a4 01 30 00 30 00 00 0f 00 00 00 00 00 00 00 00 00 00 00 00 00 0f 00 00 00 00 00 00 00 00 00 00 00 00 00 0f 00 00 00 00 00 00 00 00 00 00 00 00 d8 0e 01
# ReportID: 1 / Tip Switch: 1 | # | # | Contact Id:    0 | X:   1132 ,   1132 | Y:    434 ,    434 | Width:     48 | Height:     48 
#             | Tip Switch: 0 | # | # | Contact Id:   15 | X:      0 ,      0 | Y:      0 ,      0 | Width:      0 | Height:      0 
#             | Tip Switch: 0 | # | # | Contact Id:   15 | X:      0 ,      0 | Y:      0 ,      0 | Width:      0 | Height:      0 
#             | Tip Switch: 0 | # | # | Contact Id:   15 | X:      0 ,      0 | Y:      0 ,      0 | Width:      0 | Height:      0 | Scan Time:   3900 | Contact Count:    1 
E: 000000.161543 60 01 01 00 6c 04 6c 04 b2 01 b2 01 30 00 30 00 00 0f 00 00 00 00 00 00 00 00 00 00 00 00 00 0f 00 00 00 00 00 00 00 00 00 00 00 00 00 0f 00 00 00 00 00 00 00 00 00 00 00 00 3c 0f 01
# ReportID: 1 / Tip Switch: 1 | # | # | Contact Id:    0 | X:   1132 ,   1132 | Y:    448 ,    448 | Width:     48 | Height:     48 
#             | Tip Switch: 0 | # | # | Contact Id:   15 | X:      0 ,      0 | Y:      0 ,      0 | Width:      0 | Height:      0 
#             | Tip Switch: 0 | # | # | Contact Id:   15 | X:      0 ,      0 | Y:      0 ,      0 | Width:      0 | Height:      0 
#             | Tip Switch: 0 | # | # | Contact Id:   15 | X:      0 ,      0 | Y:      0 ,      0 | Width:      0 | Height:      0 | Scan Time:   4000 | Contact Count:    1 
E: 000000.165726 60 01 01 00 6c 04 6c 04 c0 01 c0 01 30 00 30 00 00 0f 00 00 00 00 00 00 00 00 00 00 00 00 00 0f 00 00 00 00 00 00 00 00 00 00 00 00 00 0f 00 00 00 00 00 00 00 00 00 00 00 00 a0 0f 01
# ReportID: 1 / Tip Switch: 1 | # | # | Contact Id:    0 | X:   1133 ,   1133 | Y:    463 ,    463 | Width:     48 | Height:     48 
#             | Tip Switch: 0 | # | # | Contact Id:   15 | X:      0 ,      0 | Y:      0 ,      0 | Width:      0 | Height:      0 
#             | Tip Switch: 0 | # | # | Contact Id:   15 | X:      0 ,      0 | Y:      0 ,      0 | Width:      0 | Height:      0 
#             | Tip Switch: 0 | # | # | Contact Id:   15 | X:      0 ,      0 | Y:      0 ,      0 | Width:      0 | Height:      0 | Scan Time:   4100 | Contact Count:    1 
E: 000000.169762 60 01 01 00 6d 04 6d 04 cf 01 cf 01 30 00 30 00 00 0f 00 00 00 00 00 00 00 00 00 00 00 00 00 0f 00 00 00 00 00 00 00 00 00 00 00 00 00 0f 00 00 00 00 00 00 00 00 00 00 00 00 04 10 01
# ReportID: 1 / Tip Switch: 1 | # | # | Contact Id:    0 | X:   1133 ,   1133 | Y:    478 ,    478 | Width:     48 | Height:     48 
#             | Tip Switch: 0 | # | # | Contact Id:   15 | X:      0 ,      0 | Y:      0 ,      0 | Width:      0 | Height:      0 
#             | Tip Switch: 0 | # | # | Contact Id:   15 | X:      0 ,      0 | Y:      0 ,      0 | Width:      0 | Height:      0 
#             | Tip Switch: 0 | # | # | Contact Id:   15 | X:      0 ,      0 | Y:      0 ,      0 | Width:      0 | Height:      0 | Scan Time:   4200 | Contact Count:    1 
E: 000000.174067 60 01 01 00 6d 04 6d 04 de 01 de 01 30 00 30 00 00 0f 00 00 00 00 00 00 00 00 00 00 00 00 00 0f 00 00 00 00 00 00 00 00 00 00 00 00 00 0f 00 00 00 00 00 00 00 00 00 00 00 00 68 10 01
# ReportID: 1 / Tip Switch: 1 | # | # | Contact Id:    0 | X:   1133 ,   1133 | Y:    492 ,    492 | Width:     48 | Height:     48 
#             | Tip Switch: 0 | # | # | Contact Id:   15 | X:      0 ,      0 | Y:      0 ,      0 | Width:      0 | Height:      0 
#             | Tip Switch: 0 | # | # | Contact Id:   15 | X:      0 ,      0 | Y:      0 ,      0 | Width:      0 | Height:      0 
#             | Tip Switch: 0 | # | # | Contact Id:   15 | X:      0 ,      0 | Y:      0 ,      0 | Width:      0 | Height:      0 | Scan Time:   4300 | Contact Count:    1 
E: 000000.178111 60 01 01 00 6d 04 6d 04 ec 01 ec 01 30 00 30 00 00 0f 00 00 00 00 00 00 00 00 00 00 00 00 00 0f 00 00 00 00 00 00 00 00 00 00 00 00 00 0f 00 00 00 00 00 00 00 00 00 00 00 00 cc 10 01
# ReportID: 1 / Tip Switch: 1 | # | # | Contact Id:    0 | X:   1133 ,   1133 | Y:    508 ,    508 | Width:     48 | Height:     48 
#             | Tip Switch: 0 | # | # | Contact Id:   15 | X:      0 ,      0 | Y:      0 ,      0 | Width:      0 | Height:      0 
#             | Tip Switch: 0 | # | # | Contact Id:   15 | X:      0 ,      0 | Y:      0 ,      0 | Width:      0 | Height:      0 
#             | Tip Switch: 0 | # | # | Contact Id:   15 | X:      0 ,      0 | Y:      0 ,      0 | Width:      0 | Height:      0 | Scan Time:   4400 | Contact Count:    1 
E: 000000.182409 60 01 01 00 6d 04 6d 04 fc 01 fc 01 30 00 30 00 00 0f 00 00 00 00 00 00 00 00 00 00 00 00 00 0f 00 00 00 00 00 00 00 00 00 00 00 00 00 0f 00 00 00 00 00 00 00 00 00 00 00 00 30 11 01
# ReportID: 1 / Tip Switch: 1 | # | # | Contact Id:    0 | X:   1133 ,   1133 | Y:    522 ,    522 | Width:     48 | Height:     48 
#             | Tip Switch: 0 | # | # | Contact Id:   15 | X:      0 ,      0 | Y:      0 ,      0 | Width:      0 | Height:      0 
#             | Tip Switch: 0 | # | # | Contact Id:   15 | X:      0 ,      0 | Y:      0 ,      0 | Width:      0 | Height:      0 
#             | Tip Switch: 0 | # | # | Contact Id:   15 | X:      0 ,      0 | Y:      0 ,      0 | Width:      0 | Height:      0 | Scan Time:   4500 | Contact Count:    1 
E: 000000.186397 60 01 01 00 6d 04 6d 04 0a 02 0a 02 30 00 30 00 00 0f 00 00 00 00 00 00 00 00 00 00 00 00 00 0f 00 00 00 00 00 00 00 00 00 00 00 00 00 0f 00 00 00 00 00 00 00 00 00 00 00 00 94 11 01
# ReportID: 1 / Tip Switch: 1 | # | # | Contact Id:    0 | X:   1133 ,   1133 | Y:    538 ,    538 | Width:     48 | Height:     48 
#             | Tip Switch: 0 | # | # | Contact Id:   15 | X:      0 ,      0 | Y:      0 ,      0 | Width:      0 | Height:      0 
#             | Tip Switch: 0 | # | # | Contact Id:   15 | X:      0 ,      0 | Y:      0 ,      0 | Width:      0 | Height:      0 
#             | Tip Switch: 0 | # | # | Contact Id:   15 | X:      0 ,      0 | Y:      0 ,      0 | Width:      0 | Height:      0 | Scan Time:   4600 | Contact Count:    1 
E: 000000.190672 60 01 01 00 6d 04 6d 04 1a 02 1a 02 30 00 30 00 00 0f 00 00 00 00 00 00 00 00 00 00 00 00 00 0f 00 00 00 00 00 00 00 00 00 00 00 00 00 0f 00 00 00 00 00 00 00 00 00 00 00 00 f8 11 01
# ReportID: 1 / Tip Switch: 1 | # | # | Contact Id:    0 | X:   1133 ,   1133 | Y:    553 ,    553 | Width:     48 | Height:     48 
#             | Tip Switch: 0 | # | # | Contact Id:   15 | X:      0 ,      0 | Y:      0 ,      0 | Width:      0 | Height:      0 
#             | Tip Switch: 0 | # | # | Contact Id:   15 | X:      0 ,      0 | Y:      0 ,      0 | Width:      0 | Height:      0 
#             | Tip Switch: 0 | # | # | Contact Id:   15 | X:      0 ,      0 | Y:      0 ,      0 | Width:      0 | Height:      0 | Scan Time:   4700 | Contact Count:    1 
E: 000000.194573 60 01 01 00 6d 04 6d 04 29 02 29 02 30 00 30 00 00 0f 00 00 00 00 00 00 00 00 00 00 00 00 00 0f 00 00 00 00 00 00 00 00 00 00 00 00 00 0f 00 00 00 00 00 00 00 00 00 00 00 00 5c 12 01
# ReportID: 1 / Tip Switch: 1 | # | # | Contact Id:    0 | X:   1133 ,   1133 | Y:    568 ,    568 | Width:     48 | Height:     48 
#             | Tip Switch: 0 | # | # | Contact Id:   15 | X:      0 ,      0 | Y:      0 ,      0 | Width:      0 | Height:      0 
#             | Tip Switch: 0 | # | # | Contact Id:   15 | X:      0 ,      0 | Y:      0 ,      0 | Width:      0 | Height:      0 
#             | Tip Switch: 0 | # | # | Contact Id:   15 | X:      0 ,      0 | Y:      0 ,      0 | Width:      0 | Height:      0 | Scan Time:   4800 | Contact Count:    1 
E: 000000.198984 60 01 01 00 6d 04 6d 04 38 02 38 02 30 00 30 00 00 0f 00 00 00 00 00 00 00 00 00 00 00 00 00 0f 00 00 00 00 00 00 00 00 00 00 00 00 00 0f 00 00 00 00 00 00 00 00 00 00 00 00 c0 12 01
# ReportID: 1 / Tip Switch: 1 | # | # | Contact Id:    0 | X:   1133 ,   1133 | Y:    583 ,    583 | Width:     48 | Height:     48 
#             | Tip Switch: 0 | # | # | Contact Id:   15 | X:      0 ,      0 | Y:      0 ,      0 | Width:      0 | Height:      0 
#             | Tip Switch: 0 | # | # | Contact Id:   15 | X:      0 ,      0 | Y:      0 ,      0 | Width:      0 | Height:      0 
#             | Tip Switch: 0 | # | # | Contact Id:   15 | X:      0 ,      0 | Y:      0 ,      0 | Width:      0 | Height:      0 | Scan Time:   4900 | Contact Count:    1 
E: 000000.203391 60 01 01 00 6d 04 6d 04 47 02 47 02 30 00 30 00 00 0f 00 00 00 00 00 00 00 00 00 00 00 00 00 0f 00 00 00 00 00 00 00 00 00 00 00 00 00 0f 00 00 00 00 00 00 00 00 00 00 00 00 24 13 01
# ReportID: 1 / Tip Switch: 1 | # | # | Contact Id:    0 | X:   1134 ,   1134 | Y:    598 ,    598 | Width:     48 | Height:     48 
#             | Tip Switch: 0 | # | # | Contact Id:   15 | X:      0 ,      0 | Y:      0 ,      0 | Width:      0 | Height:      0 
#             | Tip Switch: 0 | # | # | Contact Id:   15 | X:      0 ,      0 | Y:      0 ,      0 | Width:      0 | Height:      0 
#             | Tip Switch: 0 | # | # | Contact Id:   15 | X:      0 ,      0 | Y:      0 ,      0 | Width:      0 | Height:      0 | Scan Time:   5000 | Contact Count:    1 
E: 000000.207341 60 01 01 00 6e 04 6e 04 56 02 56 02 30 00 30 00 00 0f 00 00 00 00 00 00 00 00 00 00 00 00 00 0f 00 00 00 00 00 00 00 00 00 00 00 00 00 0f 00 00 00 00 00 00 00 00 00 00 00 00 88 13 01
# ReportID: 1 / Tip Switch: 1 | # | # | Contact Id:    0 | X:   1134 ,   1134 | Y:    613 ,    613 | Width:     48 | Height:     48 
#             | Tip Switch: 0 | # | # | Contact Id:   15 | X:      0 ,      0 | Y:      0 ,      0 | Width:      0 | Height:      0 
#             | Tip Switch: 0 | # | # | Contact Id:   15 | X:      0 ,      0 | Y:      0 ,      0 | Width:      0 | Height:      0 
#             | Tip Switch: 0 | # | # | Contact Id:   15 | X:      0 ,      0 | Y:      0 ,      0 | Width:      0 | Height:      0 | Scan Time:   5100 | Contact Count:    1 
E: 000000.211362 60 01 01 00 6e 04 6e 04 65 02 65 02 30 00 30 00 00 0f 00 00 00 00 00 00 00 00 00 00 00 00 00 0f 00 00 00 00 00 00 00 00 00 00 00 00 00 0f 00 00 00 00 00 00 00 00 00 00 00 00 ec 13 01
# ReportID: 1 / Tip Switch: 1 | # | # | Contact Id:    0 | X:   1134 ,   1134 | Y:    628 ,    628 | Width:     48 | Height:     48 
#             | Tip Switch: 0 | # | # | Contact Id:   15 | X:      0 ,      0 | Y:      0 ,      0 | Width:      0 | Height:      0 
#             | Tip Switch: 0 | # | # | Contact Id:   15 | X:      0 ,      0 | Y:      0 ,      0 | Width:      0 | Height:      0 
#             | Tip Switch: 0 | # | # | Contact Id:   15 | X:      0 ,      0 | Y:      0 ,      0 | Width:      0 | Height:      0 | Scan Time:   5200 | Contact Count:    1 
E: 000000.215677 60 01 01 00 6e 04 6e 04 74 02 74 02 30 00 30 00 00 0f 00 00 00 00 00 00 00 00 00 00 00 00 00 0f 00 00 00 00 00 00 00 00 00 00 00 00 00 0f 00 00 00 00 00 00 00 00 00 00 00 00 50 14 01
# ReportID: 1 / Tip Switch: 1 | # | # | Contact Id:    0 | X:   1134 ,   1134 | Y:    643 ,    643 | Width:     48 | Height:     48 
#             | Tip Switch: 0 | # | # | Contact Id:   15 | X:      0 ,      0 | Y:      0 ,      0 | Width:      0 | Height:      0 
#             | Tip Switch: 0 | # | # | Contact Id:   15 | X:      0 ,      0 | Y:      0 ,      0 | Width:      0 | Height:      0 
#             | Tip Switch: 0 | # | # | Contact Id:   15 | X:      0 ,      0 | Y:      0 ,      0 | Width:      0 | Height:      0 | Scan Time:   5300 | Contact Count:    1 
E: 000000.219655 60 01 01 00 6e 04 6e 04 83 02 83 02 30 00 30 00 00 0f 00 00 00 00 00 00 00 00 00 00 00 00 00 0f 00 00 00 00 00 00 00 00 00 00 00 00 00 0f 00 00 00 00 00 00 00 00 00 00 00 00 b4 14 01
# ReportID: 1 / Tip Switch: 1 | # | # | Contact Id:    0 | X:   1134 ,   1134 | Y:    658 ,    658 | Width:     48 | Height:     48 
#             | Tip Switch: 0 | # | # | Contact Id:   15 | X:      0 ,      0 | Y:      0 ,      0 | Width:      0 | Height:      0 
#             | Tip Switch: 0 | # | # | Contact Id:   15 | X:      0 ,      0 | Y:      0 ,      0 | Width:      0 | Height:      0 
#             | Tip Switch: 0 | # | # | Contact Id:   15 | X:      0 ,      0 | Y:      0 ,      0 | Width:      0 | Height:      0 | Scan Time:   5400 | Contact Count:    1 
E: 000000.223994 60 01 01 00 6e 04 6e 04 92 02 92 02 30 00 30 00 00 0f 00 00 00 00 00 00 00 00 00 00 00 00 00 0f 00 00 00 00 00 00 00 00 00 00 00 00 00 0f 00 00 00 00 00 00 00 00 00 00 00 00 18 15 01
# ReportID: 1 / Tip Switch: 1 | # | # | Contact Id:    0 | X:   1134 ,   1134 | Y:    673 ,    673 | Width:     48 | Height:     48 
#             | Tip Switch: 0 | # | # | Contact Id:   15 | X:      0 ,      0 | Y:      0 ,      0 | Width:      0 | Height:      0 
#             | Tip Switch: 0 | # | # | Contact Id:   15 | X:      0 ,      0 | Y:      0 ,      0 | Width:      0 | Height:      0 
#             | Tip Switch: 0 | # | # | Contact Id:   15 | X:      0 ,      0 | Y:      0 ,      0 | Width:      0 | Height:      0 | Scan Time:   5500 | Contact Count:    1 
E: 000000.228144 60 01 01 00 6e 04 6e 04 a1 02 a1 02 30 00 30 00 00 0f 00 00 00 00 00 00 00 00 00 00 00 00 00 0f 00 00 00 00 00 00 00 00 00 00 00 00 00 0f 00 00 00 00 00 00 00 00 00 00 00 00 7c 15 01
# ReportID: 1 / Tip Switch: 1 | # | # | Contact Id:    0 | X:   1134 ,   1134 | Y:    689 ,    689 | Width:     48 | Height:     48 
#             | Tip Switch: 0 | # | # | Contact Id:   15 | X:      0 ,      0 | Y:      0 ,      0 | Width:      0 | Height:      0 
#             | Tip Switch: 0 | # | # | Contact Id:   15 | X:      0 ,      0 | Y:      0 ,      0 | Width:      0 | Height:      0 
#             | Tip Switch: 0 | # | # | Contact Id:   15 | X:      0 ,      0 | Y:      0 ,      0 | Width:      0 | Height:      0 | Scan Time:   5600 | Contact Count:    1 
E: 000000.232372 60 01 01 00 6e 04 6e 04 b1 02 b1 02 30 00 30 00 00 0f 00 00 00 00 00 00 00 00 00 00 00 00 00 0f 00 00 00 00 00 00 00 00 00 00 00 00 00 0f 00 00 00 00 00 00 00 00 00 00 00 00 e0 15 01
# ReportID: 1 / Tip Switch: 1 | # | # | Contact Id:    0 | X:   1134 ,   1134 | Y:    704 ,    704 | Width:     48 | Height:     48 
#             | Tip Switch: 0 | # | # | Contact Id:   15 | X:      0 ,      0 | Y:      0 ,      0 | Width:      0 | Height:      0 
#             | Tip Switch: 0 | # | # | Contact Id:   15 | X:      0 ,      0 | Y:      0 ,      0 | Width:      0 | Height:      0 
#             | Tip Switch: 0 | # | # | Contact Id:   15 | X:      0 ,      0 | Y:      0 ,      0 | Width:      0 | Height:      0 | Scan Time:   5700 | Contact Count:    1 
E: 000000.236412 60 01 01 00 6e 04 6e 04 c0 02 c0 02 30 00 30 00 00 0f 00 00 00 00 00 00 00 00 00 00 00 00 00 0f 00 00 00 00 00 00 00 00 00 00 00 00 00 0f 00 00 00 00 00 00 00 00 00 00 00 00 44 16 01
# ReportID: 1 / Tip Switch: 1 | # | # | Contact Id:    0 | X:   1134 ,   1134 | Y:    719 ,    719 | Width:     48 | Height:     48 
#             | Tip Switch: 0 | # | # | Contact Id:   15 | X:      0 ,      0 | Y:      0 ,      0 | Width:      0 | Height:      0 
#             | Tip Switch: 0 | # | # | Contact Id:   15 | X:      0 ,      0 | Y:      0 ,      0 | Width:      0 | Height:      0 
#             | Tip Switch: 0 | # | # | Contact Id:   15 | X:      0 ,      0 | Y:      0 ,      0 | Width:      0 | Height:      0 | Scan Time:   5800 | Contact Count:    1 
E: 000000.240701 60 01 01 00 6e 04 6e 04 cf 02 cf 02 30 00 30 00 00 0f 00 00 00 00 00 00 00 00 00 00 00 00 00 0f 00 00 00 00 00 00 00 00 00 00 00 00 00 0f 00 00 00 00 00 00 00 00 00 00 00 00 a8 16 01
# ReportID: 1 / Tip Switch: 1 | # | # | Contact Id:    0 | X:   1134 ,   1134 | Y:    734 ,    734 | Width:     48 | Height:     48 
#             | Tip Switch: 0 | # | # | Contact Id:   15 | X:      0 ,      0 | Y:      0 ,      0 | Width:      0 | Height:      0 
#             | Tip Switch: 0 | # | # | Contact Id:   15 | X:      0 ,      0 | Y:      0 ,      0 | Width:      0 | Height:      0 
#             | Tip Switch: 0 | # | # | Contact Id:   15 | X:      0 ,      0 | Y:      0 ,      0 | Width:      0 | Height:      0 | Scan Time:   5900 | Contact Count:    1 
E: 000000.244594 60 01 01 00 6e 04 6e 04 de 02 de 02 30 00 30 00 00 0f 00 00 00 00 00 00 00 00 00 00 00 00 00 0f 00 00 00 00 00 00 00 00 00 00 00 00 00 0f 00 00 00 00 00 00 00 00 00 00 00 00 0c 17 01
# ReportID: 1 / Tip Switch: 1 | # | # | Contact Id:    0 | X:   1134 ,   1134 | Y:    749 ,    749 | Width:     48 | Height:     48 
#             | Tip Switch: 0 | # | # | Contact Id:   15 | X:      0 ,      0 | Y:      0 ,      0 | Width:      0 | Height:      0 
#             | Tip Switch: 0 | # | # | Contact Id:   15 | X:      0 ,      0 | Y:      0 ,      0 | Width:      0 | Height:      0 
#             | Tip Switch: 0 | # | # | Contact Id:   15 | X:      0 ,      0 | Y:      0 ,      0 | Width:      0 | Height:      0 | Scan Time:   6000 | Contact Count:    1 
E: 000000.249034 60 01 01 00 6e 04 6e 04 ed 02 ed 02 30 00 30 00 00 0f 00 00 00 00 00 00 00 00 00 00 00 00 00 0f 00 00 00 00 00 00 00 00 00 00 00 00 00 0f 00 00 00 00 00 00 00 00 00 00 00 00 70 17 01
# ReportID: 1 / Tip Switch: 1 | # | # | Contact Id:    0 | X:   1134 ,   1134 | Y:    764 ,    764 | Width:     48 | Height:     48 
#             | Tip Switch: 0 | # | # | Contact Id:   15 | X:      0 ,      0 | Y:      0 ,      0 | Width:      0 | Height:      0 
#             | Tip Switch: 0 | # | # | Contact Id:   15 | X:      0 ,      0 | Y:      0 ,      0 | Width:      0 | Height:      0 
#             | Tip Switch: 0 | # | # | Contact Id:   15 | X:      0 ,      0 | Y:      0 ,      0 | Width:      0 | Height:      0 | Scan Time:   6100 | Contact Count:    1 
E: 000000.253099 60 01 01 00 6e 04 6e 04 fc 02 fc 02 30 00 30 00 00 0f 00 00 00 00 00 00 00 00 00 00 00 00 00 0f 00 00 00 00 00 00 00 00 00 00 00 00 00 0f 00 00 00 00 00 00 00 00 00 00 00 00 d4 17 01
# ReportID: 1 / Tip Switch: 1 | # | # | Contact Id:    0 | X:   1134 ,   1134 | Y:    780 ,    780 | Width:     48 | Height:     48 
#             | Tip Switch: 0 | # | # | Contact Id:   15 | X:      0 ,      0 | Y:      0 ,      0 | Width:      0 | Height:      0 
#             | Tip Switch: 0 | # | # | Contact Id:   15 | X:      0 ,      0 | Y:      0 ,      0 | Width:      0 | Height:      0 
#             | Tip Switch: 0 | # | # | Contact Id:   15 | X:      0 ,      0 | Y:      0 ,      0 | Width:      0 | Height:      0 | Scan Time:   6200 | Contact Count:    1 
E: 000000.257372 60 01 01 00 6e 04 6e 04 0c 03 0c 03 30 00 30 00 00 0f 00 00 00 00 00 00 00 00 00 00 00 00 00 0f 00 00 00 00 00 00 00 00 00 00 00 00 00 0f 00 00 00 00 00 00 00 00 00 00 00 00 38 18 01
# ReportID: 1 / Tip Switch: 1 | # | # | Contact Id:    0 | X:   1134 ,   1134 | Y:    795 ,    795 | Width:     48 | Height:     48 
#             | Tip Switch: 0 | # | # | Contact Id:   15 | X:      0 ,      0 | Y:      0 ,      0 | Width:      0 | Height:      0 
#             | Tip Switch: 0 | # | # | Contact Id:   15 | X:      0 ,      0 | Y:      0 ,      0 | Width:      0 | Height:      0 
#             | Tip Switch: 0 | # | # | Contact Id:   15 | X:      0 ,      0 | Y:      0 ,      0 | Width:      0 | Height:      0 | Scan Time:   6300 | Contact Count:    1 
E: 000000.261365 60 01 01 00 6e 04 6e 04 1b 03 1b 03 30 00 30 00 00 0f 00 00 00 00 00 00 00 00 00 00 00 00 00 0f 00 00 00 00 00 00 00 00 00 00 00 00 00 0f 00 00 00 00 00 00 00 00 00 00 00 00 9c 18 01
# ReportID: 1 / Tip Switch: 1 | # | # | Contact Id:    0 | X:   1134 ,   1134 | Y:    810 ,    810 | Width:     48 | Height:     48 
#             | Tip Switch: 0 | # | # | Contact Id:   15 | X:      0 ,      0 | Y:      0 ,      0 | Width:      0 | Height:      0 
#             | Tip Switch: 0 | # | # | Contact Id:   15 | X:      0 ,      0 | Y:      0 ,      0 | Width:      0 | Height:      0 
#             | Tip Switch: 0 | # | # | Contact Id:   15 | X:      0 ,      0 | Y:      0 ,      0 | Width:      0 | Height:      0 | Scan Time:   6400 | Contact Count:    1 
E: 000000.265642 60 01 01 00 6e 04 6e 04 2a 03 2a 03 30 00 30 00 00 0f 00 00 00 00 00 00 00 00 00 00 00 00 00 0f 00 00 00 00 00 00 00 00 00 00 00 00 00 0f 00 00 00 00 00 00 00 00 00 00 00 00 00 19 01
# ReportID: 1 / Tip Switch: 1 | # | # | Contact Id:    0 | X:   1134 ,   1134 | Y:    826 ,    826 | Width:     48 | Height:     48 
#             | Tip Switch: 0 | # | # | Contact Id:   15 | X:      0 ,      0 | Y:      0 ,      0 | Width:      0 | Height:      0 
#             | Tip Switch: 0 | # | # | Contact Id:   15 | X:      0 ,      0 | Y:      0 ,      0 | Width:      0 | Height:      0 
#             | Tip Switch: 0 | # | # | Contact Id:   15 | X:      0 ,      0 | Y:      0 ,      0 | Width:      0 | Height:      0 | Scan Time:   6500 | Contact Count:    1 
E: 000000.269866 60 01 01 00 6e 04 6e 04 3a 03 3a 03 30 00 30 00 00 0f 00 00 00 00 00 00 00 00 00 00 00 00 00 0f 00 00 00 00 00 00 00 00 00 00 00 00 00 0f 00 00 00 00 00 00 00 00 00 00 00 00 64 19 01
# ReportID: 1 / Tip Switch: 1 | # | # | Contact Id:    0 | X:   1134 ,   1134 | Y:    842 ,    842 | Width:     48 | Height:     48 
#             | Tip Switch: 0 | # | # | Contact Id:   15 | X:      0 ,      0 | Y:      0 ,      0 | Width:      0 | Height:      0 
#             | Tip Switch: 0 | # | # | Contact Id:   15 | X:      0 ,      0 | Y:      0 ,      0 | Width:      0 | Height:      0 
#             | Tip Switch: 0 | # | # | Contact Id:   15 | X:      0 ,      0 | Y:      0 ,      0 | Width:      0 | Height:      0 | Scan Time:   6600 | Contact Count:    1 
E: 000000.274213 60 01 01 00 6e 04 6e 04 4a 03 4a 03 30 00 30 00 00 0f 00 00 00 00 00 00 00 00 00 00 00 00 00 0f 00 00 00 00 00 00 00 00 00 00 00 00 00 0f 00 00 00 00 00 00 00 00 00 00 00 00 c8 19 01
# ReportID: 1 / Tip Switch: 1 | # | # | Contact Id:    0 | X:   1134 ,   1134 | Y:    858 ,    858 | Width:     48 | Height:     48 
#             | Tip Switch: 0 | # | # | Contact Id:   15 | X:      0 ,      0 | Y:      0 ,      0 | Width:      0 | Height:      0 
#             | Tip Switch: 0 | # | # | Contact Id:   15 | X:      0 ,      0 | Y:      0 ,      0 | Width:      0 | Height:      0 
#             | Tip Switch: 0 | # | # | Contact Id:   15 | X:      0 ,      0 | Y:      0 ,      0 | Width:      0 | Height:      0 | Scan Time:   6700 | Contact Count:    1 
E: 000000.278129 60 01 01 00 6e 04 6e 04 5a 03 5a 03 30 00 30 00 00 0f 00 00 00 00 00 00 00 00 00 00 00 00 00 0f 00 00 00 00 00 00 00 00 00 00 00 00 00 0f 00 00 00 00 00 00 00 00 00 00 00 00 2c 1a 01
# ReportID: 1 / Tip Switch: 1 | # | # | Contact Id:    0 | X:   1134 ,   1134 | Y:    873 ,    873 | Width:     48 | Height:     48 
#             | Tip Switch: 0 | # | # | Contact Id:   15 | X:      0 ,      0 | Y:      0 ,      0 | Width:      0 | Height:      0 
#             | Tip Switch: 0 | # | # | Contact Id:   15 | X:      0 ,      0 | Y:      0 ,      0 | Width:      0 | Height:      0 
#             | Tip Switch: 0 | # | # | Contact Id:   15 | X:      0 ,      0 | Y:      0 ,      0 | Width:      0 | Height:      0 | Scan Time:   6800 | Contact Count:    1 
E: 000000.282356 60 01 01 00 6e 04 6e 04 69 03 69 03 30 00 30 00 00 0f 00 00 00 00 00 00 00 00 00 00 00 00 00 0f 00 00 00 00 00 00 00 00 00 00 00 00 00 0f 00 00 00 00 00 00 00 00 00 00 00 00 90 1a 01
# ReportID: 1 / Tip Switch: 1 | # | # | Contact Id:    0 | X:   1134 ,   1134 | Y:    889 ,    889 | Width:     48 | Height:     48 
#             | Tip Switch: 0 | # | # | Contact Id:   15 | X:      0 ,      0 | Y:      0 ,      0 | Width:      0 | Height:      0 
#             | Tip Switch: 0 | # | # | Contact Id:   15 | X:      0 ,      0 | Y:      0 ,      0 | Width:      0 | Height:      0 
#             | Tip Switch: 0 | # | # | Contact Id:   15 | X:      0 ,      0 | Y:      0 ,      0 | Width:      0 | Height:      0 | Scan Time:   6900 | Contact Count:    1 
E: 000000.286380 60 01 01 00 6e 04 6e 04 79 03 79 03 30 00 30 00 00 0f 00 00 00 00 00 00 00 00 00 00 00 00 00 0f 00 00 00 00 00 00 00 00 00 00 00 00 00 0f 00 00 00 00 00 00 00 00 00 00 00 00 f4 1a 01
# ReportID: 1 / Tip Switch: 1 | # | # | Contact Id:    0 | X:   1134 ,   1134 | Y:    904 ,    904 | Width:     48 | Height:     48 
#             | Tip Switch: 0 | # | # | Contact Id:   15 | X:      0 ,      0 | Y:      0 ,      0 | Width:      0 | Height:      0 
#             | Tip Switch: 0 | # | # | Contact Id:   15 | X:      0 ,      0 | Y:      0 ,      0 | Width:      0 | Height:      0 
#             | Tip Switch: 0 | # | # | Contact Id:   15 | X:      0 ,      0 | Y:      0 ,      0 | Width:      0 | Height:      0 | Scan Time:   7000 | Contact Count:    1 
E: 000000.290669 60 01 01 00 6e 04 6e 04 88 03 88 03 30 00 30 00 00 0f 00 00 00 00 00 00 00 00 00 00 00 00 00 0f 00 00 00 00 00 00 00 00 00 00 00 00 00 0f 00 00 00 00 00 00 00 00 00 00 00 00 58 1b 01
# ReportID: 1 / Tip Switch: 1 | # | # | Contact Id:    0 | X:   1134 ,   1134 | Y:    920 ,    920 | Width:     48 | Height:     48 
#             | Tip Switch: 0 | # | # | Contact Id:   15 | X:      0 ,      0 | Y:      0 ,      0 | Width:      0 | Height:      0 
#             | Tip Switch: 0 | # | # | Contact Id:   15 | X:      0 ,      0 | Y:      0 ,      0 | Width:      0 | Height:      0 
#             | Tip Switch: 0 | # | # | Contact Id:   15 | X:      0 ,      0 | Y:      0 ,      0 | Width:      0 | Height:      0 | Scan Time:   7100 | Contact Count:    1 
E: 000000.294633 60 01 01 00 6e 04 6e 04 98 03 98 03 30 00 30 00 00 0f 00 00 00 00 00 00 00 00 00 00 00 00 00 0f 00 00 00 00 00 00 00 00 00 00 00 00 00 0f 00 00 00 00 00 00 00 00 00 00 00 00 bc 1b 01
# ReportID: 1 / Tip Switch: 1 | # | # | Contact Id:    0 | X:   1134 ,   1134 | Y:    935 ,    935 | Width:     48 | Height:     48 
#             | Tip Switch: 0 | # | # | Contact Id:   15 | X:      0 ,      0 | Y:      0 ,      0 | Width:      0 | Height:      0 
#             | Tip Switch: 0 | # | # | Contact Id:   15 | X:      0 ,      0 | Y:      0 ,      0 | Width:      0 | Height:      0 
#             | Tip Switch: 0 | # | # | Contact Id:   15 | X:      0 ,      0 | Y:      0 ,      0 | Width:      0 | Height:      0 | Scan Time:   7200 | Contact Count:    1 
E: 000000.298976 60 01 01 00 6e 04 6e 04 a7 03 a7 03 30 00 30 00 00 0f 00 00 00 00 00 00 00 00 00 00 00 00 00 0f 00 00 00 00 00 00 00 00 00 00 00 00 00 0f 00 00 00 00 00 00 00 00 00 00 00 00 20 1c 01
# ReportID: 1 / Tip Switch: 1 | # | # | Contact Id:    0 | X:   1134 ,   1134 | Y:    951 ,    951 | Width:     48 | Height:     48 
#             | Tip Switch: 0 | # | # | Contact Id:   15 | X:      0 ,      0 | Y:      0 ,      0 | Width:      0 | Height:      0 
#             | Tip Switch: 0 | # | # | Contact Id:   15 | X:      0 ,      0 | Y:      0 ,      0 | Width:      0 | Height:      0 
#             | Tip Switch: 0 | # | # | Contact Id:   15 | X:      0 ,      0 | Y:      0 ,      0 | Width:      0 | Height:      0 | Scan Time:   7300 | Contact Count:    1 
E: 000000.303110 60 01 01 00 6e 04 6e 04 b7 03 b7 03 30 00 30 00 00 0f 00 00 00 00 00 00 00 00 00 00 00 00 00 0f 00 00 00 00 00 00 00 00 00 00 00 00 00 0f 00 00 00 00 00 00 00 00 00 00 00 00 84 1c 01
# ReportID: 1 / Tip Switch: 1 | # | # | Contact Id:    0 | X:   1134 ,   1134 | Y:    968 ,    968 | Width:     48 | Height:     48 
#             | Tip Switch: 0 | # | # | Contact Id:   15 | X:      0 ,      0 | Y:      0 ,      0 | Width:      0 | Height:      0 
#             | Tip Switch: 0 | # | # | Contact Id:   15 | X:      0 ,      0 | Y:      0 ,      0 | Width:      0 | Height:      0 
#             | Tip Switch: 0 | # | # | Contact Id:   15 | X:      0 ,      0 | Y:      0 ,      0 | Width:      0 | Height:      0 | Scan Time:   7400 | Contact Count:    1 
E: 000000.307340 60 01 01 00 6e 04 6e 04 c8 03 c8 03 30 00 30 00 00 0f 00 00 00 00 00 00 00 00 00 00 00 00 00 0f 00 00 00 00 00 00 00 00 00 00 00 00 00 0f 00 00 00 00 00 00 00 00 00 00 00 00 e8 1c 01
# ReportID: 1 / Tip Switch: 1 | # | # | Contact Id:    0 | X:   1134 ,   1134 | Y:    984 ,    984 | Width:     48 | Height:     48 
#             | Tip Switch: 0 | # | # | Contact Id:   15 | X:      0 ,      0 | Y:      0 ,      0 | Width:      0 | Height:      0 
#             | Tip Switch: 0 | # | # | Contact Id:   15 | X:      0 ,      0 | Y:      0 ,      0 | Width:      0 | Height:      0 
#             | Tip Switch: 0 | # | # | Contact Id:   15 | X:      0 ,      0 | Y:      0 ,      0 | Width:      0 | Height:      0 | Scan Time:   7500 | Contact Count:    1 
E: 000000.311610 60 01 01 00 6e 04 6e 04 d8 03 d8 03 30 00 30 00 00 0f 00 00 00 00 00 00 00 00 00 00 00 00 00 0f 00 00 00 00 00 00 00 00 00 00 00 00 00 0f 00 00 00 00 00 00 00 00 00 00 00 00 4c 1d 01
# ReportID: 1 / Tip Switch: 1 | # | # | Contact Id:    0 | X:   1134 ,   1134 | Y:   1000 ,   1000 | Width:     48 | Height:     48 
#             | Tip Switch: 0 | # | # | Contact Id:   15 | X:      0 ,      0 | Y:      0 ,      0 | Width:      0 | Height:      0 
#             | Tip Switch: 0 | # | # | Contact Id:   15 | X:      0 ,      0 | Y:      0 ,      0 | Width:      0 | Height:      0 
#             | Tip Switch: 0 | # | # | Contact Id:   15 | X:      0 ,      0 | Y:      0 ,      0 | Width:      0 | Height:      0 | Scan Time:   7600 | Contact Count:    1 
E: 000000.315660 60 01 01 00 6e 04 6e 04 e8 03 e8 03 30 00 30 00 00 0f 00 00 00 00 00 00 00 00 00 00 00 00 00 0f 00 00 00 00 00 00 00 00 00 00 00 00 00 0f 00 00 00 00 00 00 00 00 00 00 00 00 b0 1d 01
# ReportID: 1 / Tip Switch: 1 | # | # | Contact Id:    0 | X:   1134 ,   1134 | Y:   1016 ,   1016 | Width:     48 | Height:     48 
#             | Tip Switch: 0 | # | # | Contact Id:   15 | X:      0 ,      0 | Y:      0 ,      0 | Width:      0 | Height:      0 
#             | Tip Switch: 0 | # | # | Contact Id:   15 | X:      0 ,      0 | Y:      0 ,      0 | Width:      0 | Height:      0 
#             | Tip Switch: 0 | # | # | Contact Id:   15 | X:      0 ,      0 | Y:      0 ,      0 | Width:      0 | Height:      0 | Scan Time:   7700 | Contact Count:    1 
E: 000000.319776 60 01 01 00 6e 04 6e 04 f8 03 f8 03 30 00 30 00 00 0f 00 00 00 00 00 00 00 00 00 00 00 00 00 0f 00 00 00 00 00 00 00 00 00 00 00 00 00 0f 00 00 00 00 00 00 00 00 00 00 00 00 14 1e 01
# ReportID: 1 / Tip Switch: 1 | # | # | Contact Id:    0 | X:   1134 ,   1134 | Y:   1032 ,   1032 | Width:     48 | Height:     48 
#             | Tip Switch: 0 | # | # | Contact Id:   15 | X:      0 ,      0 | Y:      0 ,      0 | Width:      0 | Height:      0 
#             | Tip Switch: 0 | # | # | Contact Id:   15 | X:      0 ,      0 | Y:      0 ,      0 | Width:      0 | Height:      0 
#             | Tip Switch: 0 | # | # | Contact Id:   15 | X:      0 ,      0 | Y:      0 ,      0 | Width:      0 | Height:      0 | Scan Time:   7800 | Contact Count:    1 
E: 000000.324023 60 01 01 00 6e 04 6e 04 08 04 08 04 30 00 30 00 00 0f 00 00 00 00 00 00 00 00 00 00 00 00 00 0f 00 00 00 00 00 00 00 00 00 00 00 00 00 0f 00 00 00 00 00 00 00 00 00 00 00 00 78 1e 01
# ReportID: 1 / Tip Switch: 1 | # | # | Contact Id:    0 | X:   1134 ,   1134 | Y:   1048 ,   1048 | Width:     48 | Height:     48 
#             | Tip Switch: 0 | # | # | Contact Id:   15 | X:      0 ,      0 | Y:      0 ,      0 | Width:      0 | Height:      0 
#             | Tip Switch: 0 | # | # | Contact Id:   15 | X:      0 ,      0 | Y:      0 ,      0 | Width:      0 | Height:      0 
#             | Tip Switch: 0 | # | # | Contact Id:   15 | X:      0 ,      0 | Y:      0 ,      0 | Width:      0 | Height:      0 | Scan Time:   7900 | Contact Count:    1 
E: 000000.328213 60 01 01 00 6e 04 6e 04 18 04 18 04 30 00 30 00 00 0f 00 00 00 00 00 00 00 00 00 00 00 00 00 0f 00 00 00 00 00 00 00 00 00 00 00 00 00 0f 00 00 00 00 00 00 00 00 00 00 00 00 dc 1e 01
# ReportID: 1 / Tip Switch: 1 | # | # | Contact Id:    0 | X:   1134 ,   1134 | Y:   1063 ,   1063 | Width:     48 | Height:     48 
#             | Tip Switch: 0 | # | # | Contact Id:   15 | X:      0 ,      0 | Y:      0 ,      0 | Width:      0 | Height:      0 
#             | Tip Switch: 0 | # | # | Contact Id:   15 | X:      0 ,      0 | Y:      0 ,      0 | Width:      0 | Height:      0 
#             | Tip Switch: 0 | # | # | Contact Id:   15 | X:      0 ,      0 | Y:      0 ,      0 | Width:      0 | Height:      0 | Scan Time:   8000 | Contact Count:    1 
E: 000000.332389 60 01 01 00 6e 04 6e 04 27 04 27 04 30 00 30 00 00 0f 00 00 00 00 00 00 00 00 00 00 00 00 00 0f 00 00 00 00 00 00 00 00 00 00 00 00 00 0f 00 00 00 00 00 00 00 00 00 00 00 00 40 1f 01
# ReportID: 1 / Tip Switch: 1 | # | # | Contact Id:    0 | X:   1134 ,   1134 | Y:   1079 ,   1079 | Width:     48 | Height:     48 
#             | Tip Switch: 0 | # | # | Contact Id:   15 | X:      0 ,      0 | Y:      0 ,      0 | Width:      0 | Height:      0 
#             | Tip Switch: 0 | # | # | Contact Id:   15 | X:      0 ,      0 | Y:      0 ,      0 | Width:      0 | Height:      0 
#             | Tip Switch: 0 | # | # | Contact Id:   15 | X:      0 ,      0 | Y:      0 ,      0 | Width:      0 | Height:      0 | Scan Time:   8100 | Contact Count:    1 
E: 000000.336498 60 01 01 00 6e 04 6e 04 37 04 37 04 30 00 30 00 00 0f 00 00 00 00 00 00 00 00 00 00 00 00 00 0f 00 00 00 00 00 00 00 00 00 00 00 00 00 0f 00 00 00 00 00 00 00 00 00 00 00 00 a4 1f 01
# ReportID: 1 / Tip Switch: 1 | # | # | Contact Id:    0 | X:   1134 ,   1134 | Y:   1094 ,   1094 | Width:     48 | Height:     48 
#             | Tip Switch: 0 | # | # | Contact Id:   15 | X:      0 ,      0 | Y:      0 ,      0 | Width:      0 | Height:      0 
#             | Tip Switch: 0 | # | # | Contact Id:   15 | X:      0 ,      0 | Y:      0 ,      0 | Width:      0 | Height:      0 
#             | Tip Switch: 0 | # | # | Contact Id:   15 | X:      0 ,      0 | Y:      0 ,      0 | Width:      0 | Height:      0 | Scan Time:   8200 | Contact Count:    1 
E: 000000.340659 60 01 01 00 6e 04 6e 04 46 04 46 04 30 00 30 00 00 0f 00 00 00 00 00 00 00 00 00 00 00 00 00 0f 00 00 00 00 00 00 00 00 00 00 00 00 00 0f 00 00 00 00 00 00 00 00 00 00 00 00 08 20 01
# ReportID: 1 / Tip Switch: 1 | # | # | Contact Id:    0 | X:   1134 ,   1134 | Y:   1110 ,   1110 | Width:     48 | Height:     48 
#             | Tip Switch: 0 | # | # | Contact Id:   15 | X:      0 ,      0 | Y:      0 ,      0 | Width:      0 | Height:      0 
#             | Tip Switch: 0 | # | # | Contact Id:   15 | X:      0 ,      0 | Y:      0 ,      0 | Width:      0 | Height:      0 
#             | Tip Switch: 0 | # | # | Contact Id:   15 | X:      0 ,      0 | Y:      0 ,      0 | Width:      0 | Height:      0 | Scan Time:   8300 | Contact Count:    1 
E: 000000.344695 60 01 01 00 6e 04 6e 04 56 04 56 04 30 00 30 00 00 0f 00 00 00 00 00 00 00 00 00 00 00 00 00 0f 00 00 00 00 00 00 00 00 00 00 00 00 00 0f 00 00 00 00 00 00 00 00 00 00 00 00 6c 20 01
# ReportID: 1 / Tip Switch: 1 | # | # | Contact Id:    0 | X:   1134 ,   1134 | Y:   1125 ,   1125 | Width:     48 | Height:     48 
#             | Tip Switch: 0 | # | # | Contact Id:   15 | X:      0 ,      0 | Y:      0 ,      0 | Width:      0 | Height:      0 
#             | Tip Switch: 0 | # | # | Contact Id:   15 | X:      0 ,      0 | Y:      0 ,      0 | Width:      0 | Height:      0 
#             | Tip Switch: 0 | # | # | Contact Id:   15 | X:      0 ,      0 | Y:      0 ,      0 | Width:      0 | Height:      0 | Scan Time:   8400 | Contact Count:    1 
E: 000000.348990 60 01 01 00 6e 04 6e 04 65 04 65 04 30 00 30 00 00 0f 00 00 00 00 00 00 00 00 00 00 00 00 00 0f 00 00 00 00 00 00 00 00 00 00 00 00 00 0f 00 00 00 00 00 00 00 00 00 00 00 00 d0 20 01
# ReportID: 1 / Tip Switch: 1 | # | # | Contact Id:    0 | X:   1134 ,   1134 | Y:   1141 ,   1141 | Width:     48 | Height:     48 
#             | Tip Switch: 0 | # | # | Contact Id:   15 | X:      0 ,      0 | Y:      0 ,      0 | Width:      0 | Height:      0 
#             | Tip Switch: 0 | # | # | Contact Id:   15 | X:      0 ,      0 | Y:      0 ,      0 | Width:      0 | Height:      0 
#             | Tip Switch: 0 | # | # | Contact Id:   15 | X:      0 ,      0 | Y:      0 ,      0 | Width:      0 | Height:      0 | Scan Time:   8500 | Contact Count:    1 
E: 000000.353450 60 01 01 00 6e 04 6e 04 75 04 75 04 30 00 30 00 00 0f 00 00 00 00 00 00 00 00 00 00 00 00 00 0f 00 00 00 00 00 00 00 00 00 00 00 00 00 0f 00 00 00 00 00 00 00 00 00 00 00 00 34 21 01
# ReportID: 1 / Tip Switch: 1 | # | # | Contact Id:    0 | X:   1134 ,   1134 | Y:   1156 ,   1156 | Width:     48 | Height:     48 
#             | Tip Switch: 0 | # | # | Contact Id:   15 | X:      0 ,      0 | Y:      0 ,      0 | Width:      0 | Height:      0 
#             | Tip Switch: 0 | # | # | Contact Id:   15 | X:      0 ,      0 | Y:      0 ,      0 | Width:      0 | Height:      0 
#             | Tip Switch: 0 | # | # | Contact Id:   15 | X:      0 ,      0 | Y:      0 ,      0 | Width:      0 | Height:      0 | Scan Time:   8600 | Contact Count:    1 
E: 000000.357345 60 01 01 00 6e 04 6e 04 84 04 84 04 30 00 30 00 00 0f 00 00 00 00 00 00 00 00 00 00 00 00 00 0f 00 00 00 00 00 00 00 00 00 00 00 00 00 0f 00 00 00 00 00 00 00 00 00 00 00 00 98 21 01
# ReportID: 1 / Tip Switch: 1 | # | # | Contact Id:    0 | X:   1133 ,   1133 | Y:   1171 ,   1171 | Width:     48 | Height:     48 
#             | Tip Switch: 0 | # | # | Contact Id:   15 | X:      0 ,      0 | Y:      0 ,      0 | Width:      0 | Height:      0 
#             | Tip Switch: 0 | # | # | Contact Id:   15 | X:      0 ,      0 | Y:      0 ,      0 | Width:      0 | Height:      0 
#             | Tip Switch: 0 | # | # | Contact Id:   15 | X:      0 ,      0 | Y:      0 ,      0 | Width:      0 | Height:      0 | Scan Time:   8700 | Contact Count:    1 
E: 000000.361426 60 01 01 00 6d 04 6d 04 93 04 93 04 30 00 30 00 00 0f 00 00 00 00 00 00 00 00 00 00 00 00 00 0f 00 00 00 00 00 00 00 00 00 00 00 00 00 0f 00 00 00 00 00 00 00 00 00 00 00 00 fc 21 01
# ReportID: 1 / Tip Switch: 1 | # | # | Contact Id:    0 | X:   1133 ,   1133 | Y:   1187 ,   1187 | Width:     48 | Height:     48 
#             | Tip Switch: 0 | # | # | Contact Id:   15 | X:      0 ,      0 | Y:      0 ,      0 | Width:      0 | Height:      0 
#             | Tip Switch: 0 | # | # | Contact Id:   15 | X:      0 ,      0 | Y:      0 ,      0 | Width:      0 | Height:      0 
#             | Tip Switch: 0 | # | # | Contact Id:   15 | X:      0 ,      0 | Y:      0 ,      0 | Width:      0 | Height:      0 | Scan Time:   8800 | Contact Count:    1 
E: 000000.365694 60 01 01 00 6d 04 6d 04 a3 04 a3 04 30 00 30 00 00 0f 00 00 00 00 00 00 00 00 00 00 00 00 00 0f 00 00 00 00 00 00 00 00 00 00 00 00 00 0f 00 00 00 00 00 00 00 00 00 00 00 00 60 22 01
# ReportID: 1 / Tip Switch: 1 | # | # | Contact Id:    0 | X:   1132 ,   1132 | Y:   1202 ,   1202 | Width:     48 | Height:     48 
#             | Tip Switch: 0 | # | # | Contact Id:   15 | X:      0 ,      0 | Y:      0 ,      0 | Width:      0 | Height:      0 
#             | Tip Switch: 0 | # | # | Contact Id:   15 | X:      0 ,      0 | Y:      0 ,      0 | Width:      0 | Height:      0 
#             | Tip Switch: 0 | # | # | Contact Id:   15 | X:      0 ,      0 | Y:      0 ,      0 | Width:      0 | Height:      0 | Scan Time:   8900 | Contact Count:    1 
E: 000000.369738 60 01 01 00 6c 04 6c 04 b2 04 b2 04 30 00 30 00 00 0f 00 00 00 00 00 00 00 00 00 00 00 00 00 0f 00 00 00 00 00 00 00 00 00 00 00 00 00 0f 00 00 00 00 00 00 00 00 00 00 00 00 c4 22 01
# ReportID: 1 / Tip Switch: 1 | # | # | Contact Id:    0 | X:   1132 ,   1132 | Y:   1217 ,   1217 | Width:     48 | Height:     48 
#             | Tip Switch: 0 | # | # | Contact Id:   15 | X:      0 ,      0 | Y:      0 ,      0 | Width:      0 | Height:      0 
#             | Tip Switch: 0 | # | # | Contact Id:   15 | X:      0 ,      0 | Y:      0 ,      0 | Width:      0 | Height:      0 
#             | Tip Switch: 0 | # | # | Contact Id:   15 | X:      0 ,      0 | Y:      0 ,      0 | Width:      0 | Height:      0 | Scan Time:   9000 | Contact Count:    1 
E: 000000.374008 60 01 01 00 6c 04 6c 04 c1 04 c1 04 30 00 30 00 00 0f 00 00 00 00 00 00 00 00 00 00 00 00 00 0f 00 00 00 00 00 00 00 00 00 00 00 00 00 0f 00 00 00 00 00 00 00 00 00 00 00 00 28 23 01
# ReportID: 1 / Tip Switch: 1 | # | # | Contact Id:    0 | X:   1131 ,   1131 | Y:   1231 ,   1231 | Width:     48 | Height:     48 
#             | Tip Switch: 0 | # | # | Contact Id:   15 | X:      0 ,      0 | Y:      0 ,      0 | Width:      0 | Height:      0 
#             | Tip Switch: 0 | # | # | Contact Id:   15 | X:      0 ,      0 | Y:      0 ,      0 | Width:      0 | Height:      0 
#             | Tip Switch: 0 | # | # | Contact Id:   15 | X:      0 ,      0 | Y:      0 ,      0 | Width:      0 | Height:      0 | Scan Time:   9100 | Contact Count:    1 
E: 000000.378150 60 01 01 00 6b 04 6b 04 cf 04 cf 04 30 00 30 00 00 0f 00 00 00 00 00 00 00 00 00 00 00 00 00 0f 00 00 00 00 00 00 00 00 00 00 00 00 00 0f 00 00 00 00 00 00 00 00 00 00 00 00 8c 23 01
# ReportID: 1 / Tip Switch: 1 | # | # | Contact Id:    0 | X:   1131 ,   1131 | Y:   1245 ,   1245 | Width:     48 | Height:     48 
#             | Tip Switch: 0 | # | # | Contact Id:   15 | X:      0 ,      0 | Y:      0 ,      0 | Width:      0 | Height:      0 
#             | Tip Switch: 0 | # | # | Contact Id:   15 | X:      0 ,      0 | Y:      0 ,      0 | Width:      0 | Height:      0 
#             | Tip Switch: 0 | # | # | Contact Id:   15 | X:      0 ,      0 | Y:      0 ,      0 | Width:      0 | Height:      0 | Scan Time:   9200 | Contact Count:    1 
E: 000000.382398 60 01 01 00 6b 04 6b 04 dd 04 dd 04 30 00 30 00 00 0f 00 00 00 00 00 00 00 00 00 00 00 00 00 0f 00 00 00 00 00 00 00 00 00 00 00 00 00 0f 00 00 00 00 00 00 00 00 00 00 00 00 f0 23 01
# ReportID: 1 / Tip Switch: 1 | # | # | Contact Id:    0 | X:   1130 ,   1130 | Y:   1259 ,   1259 | Width:     48 | Height:     48 
#             | Tip Switch: 0 | # | # | Contact Id:   15 | X:      0 ,      0 | Y:      0 ,      0 | Width:      0 | Height:      0 
#             | Tip Switch: 0 | # | # | Contact Id:   15 | X:      0 ,      0 | Y:      0 ,      0 | Width:      0 | Height:      0 
#             | Tip Switch: 0 | # | # | Contact Id:   15 | X:      0 ,      0 | Y:      0 ,      0 | Width:      0 | Height:      0 | Scan Time:   9300 | Contact Count:    1 
E: 000000.386401 60 01 01 00 6a 04 6a 04 eb 04 eb 04 30 00 30 00 00 0f 00 00 00 00 00 00 00 00 00 00 00 00 00 0f 00 00 00 00 00 00 00 00 00 00 00 00 00 0f 00 00 00 00 00 00 00 00 00 00 00 00 54 24 01
# ReportID: 1 / Tip Switch: 1 | # | # | Contact Id:    0 | X:   1130 ,   1130 | Y:   1273 ,   1273 | Width:     48 | Height:     48 
#             | Tip Switch: 0 | # | # | Contact Id:   15 | X:      0 ,      0 | Y:      0 ,      0 | Width:      0 | Height:      0 
#             | Tip Switch: 0 | # | # | Contact Id:   15 | X:      0 ,      0 | Y:      0 ,      0 | Width:      0 | Height:      0 
#             | Tip Switch: 0 | # | # | Contact Id:   15 | X:      0 ,      0 | Y:      0 ,      0 | Width:      0 | Height:      0 | Scan Time:   9400 | Contact Count:    1 
E: 000000.390699 60 01 01 00 6a 04 6a 04 f9 04 f9 04 30 00 30 00 00 0f 00 00 00 00 00 00 00 00 00 00 00 00 00 0f 00 00 00 00 00 00 00 00 00 00 00 00 00 0f 00 00 00 00 00 00 00 00 00 00 00 00 b8 24 01
# ReportID: 1 / Tip Switch: 1 | # | # | Contact Id:    0 | X:   1129 ,   1129 | Y:   1287 ,   1287 | Width:     48 | Height:     48 
#             | Tip Switch: 0 | # | # | Contact Id:   15 | X:      0 ,      0 | Y:      0 ,      0 | Width:      0 | Height:      0 
#             | Tip Switch: 0 | # | # | Contact Id:   15 | X:      0 ,      0 | Y:      0 ,      0 | Width:      0 | Height:      0 
#             | Tip Switch: 0 | # | # | Contact Id:   15 | X:      0 ,      0 | Y:      0 ,      0 | Width:      0 | Height:      0 | Scan Time:   9500 | Contact Count:    1 
E: 000000.394666 60 01 01 00 69 04 69 04 07 05 07 05 30 00 30 00 00 0f 00 00 00 00 00 00 00 00 00 00 00 00 00 0f 00 00 00 00 00 00 00 00 00 00 00 00 00 0f 00 00 00 00 00 00 00 00 00 00 00 00 1c 25 01
# ReportID: 1 / Tip Switch: 1 | # | # | Contact Id:    0 | X:   1129 ,   1129 | Y:   1301 ,   1301 | Width:     48 | Height:     48 
#             | Tip Switch: 0 | # | # | Contact Id:   15 | X:      0 ,      0 | Y:      0 ,      0 | Width:      0 | Height:      0 
#             | Tip Switch: 0 | # | # | Contact Id:   15 | X:      0 ,      0 | Y:      0 ,      0 | Width:      0 | Height:      0 
#             | Tip Switch: 0 | # | # | Contact Id:   15 | X:      0 ,      0 | Y:      0 ,      0 | Width:      0 | Height:      0 | Scan Time:   9600 | Contact Count:    1 
E: 000000.399045 60 01 01 00 69 04 69 04 15 05 15 05 30 00 30 00 00 0f 00 00 00 00 00 00 00 00 00 00 00 00 00 0f 00 00 00 00 00 00 00 00 00 00 00 00 00 0f 00 00 00 00 00 00 00 00 00 00 00 00 80 25 01
# ReportID: 1 / Tip Switch: 1 | # | # | Contact Id:    0 | X:   1128 ,   1128 | Y:   1315 ,   1315 | Width:     48 | Height:     48 
#             | Tip Switch: 0 | # | # | Contact Id:   15 | X:      0 ,      0 | Y:      0 ,      0 | Width:      0 | Height:      0 
#             | Tip Switch: 0 | # | # | Contact Id:   15 | X:      0 ,      0 | Y:      0 ,      0 | Width:      0 | Height:      0 
#             | Tip Switch: 0 | # | # | Contact Id:   15 | X:      0 ,      0 | Y:      0 ,      0 | Width:      0 | Height:      0 | Scan Time:   9700 | Contact Count:    1 
