# wch.cn Legion Go S
# 0x05, 0x01,                    // Usage Page (Generic Desktop)        0
# 0x09, 0x05,                    // Usage (Game Pad)                    2
# 0xa1, 0x01,                    // Collection (Application)            4
# 0x09, 0x30,                    //  Usage (X)                          6
# 0x09, 0x31,                    //  Usage (Y)                          8
# 0x09, 0x32,                    //  Usage (Z)                          10
# 0x09, 0x35,                    //  Usage (Rz)                         12
# 0x15, 0x00,                    //  Logical Minimum (0)                14
# 0x26, 0xff, 0x00,              //  Logical Maximum (255)              16
# 0x75, 0x08,                    //  Report Size (8)                    19
# 0x95, 0x04,                    //  Report Count (4)                   21
# 0x81, 0x02,                    //  Input (Data,Var,Abs)               23
# 0x09, 0x39,                    //  Usage (Hat switch)                 25
# 0x15, 0x00,                    //  Logical Minimum (0)                27
# 0x25, 0x07,                    //  Logical Maximum (7)                29
# 0x35, 0x00,                    //  Physical Minimum (0)               31
# 0x46, 0x3b, 0x01,              //  Physical Maximum (315)             33
# 0x65, 0x14,                    //  Unit (EnglishRotation: deg)        36
# 0x75, 0x04,                    //  Report Size (4)                    38
# 0x95, 0x01,                    //  Report Count (1)                   40
# 0x81, 0x42,                    //  Input (Data,Var,Abs,Null)          42
# 0x65, 0x00,                    //  Unit (None)                        44
# 0x05, 0x09,                    //  Usage Page (Button)                46
# 0x19, 0x01,                    //  Usage Minimum (1)                  48
# 0x29, 0x10,                    //  Usage Maximum (16)                 50
# 0x15, 0x00,                    //  Logical Minimum (0)                52
# 0x25, 0x01,                    //  Logical Maximum (1)                54
# 0x75, 0x01,                    //  Report Size (1)                    56
# 0x95, 0x10,                    //  Report Count (16)                  58
# 0x81, 0x02,                    //  Input (Data,Var,Abs)               60
# 0x75, 0x0c,                    //  Report Size (12)                   62
# 0x95, 0x01,                    //  Report Count (1)                   64
# 0x81, 0x03,                    //  Input (Cnst,Var,Abs)               66
# 0xc0,                          // End Collection                      68
# 
R: 69 05 01 09 05 a1 01 09 30 09 31 09 32 09 35 15 00 26 ff 00 75 08 95 04 81 02 09 39 15 00 25 07 35 00 46 3b 01 65 14 75 04 95 01 81 42 65 00 05 09 19 01 29 10 15 00 25 01 75 01 95 10 81 02 75 0c 95 01 81 03 c0
N: wch.cn Legion Go S
I: 3 1a86 e311
#  X:  139 | Y:   59 | Z:  128 | Rz:  128 | Hat switch:   8 | Button: 0  0  0  0  0  0  0  0  0  0  0  0  0  0  0  0 | # 
E: 000000.000000 8 8b 3b 80 80 08 00 00 00
#  X:  140 | Y:   49 | Z:  128 | Rz:  128 | Hat switch:   8 | Button: 0  0  0  0  0  0  0  0  0  0  0  0  0  0  0  0 | # 
E: 000000.008358 8 8c 31 80 80 08 00 00 00
#  X:  141 | Y:   39 | Z:  128 | Rz:  128 | Hat switch:   8 | Button: 0  0  0  0  0  0  0  0  0  0  0  0  0  0  0  0 | # 
E: 000000.016061 8 8d 27 80 80 08 00 00 00
#  X:  141 | Y:   27 | Z:  128 | Rz:  128 | Hat switch:   8 | Button: 0  0  0  0  0  0  0  0  0  0  0  0  0  0  0  0 | # 
E: 000000.023993 8 8d 1b 80 80 08 00 00 00
#  X:  142 | Y:   15 | Z:  128 | Rz:  128 | Hat switch:   8 | Button: 0  0  0  0  0  0  0  0  0  0  0  0  0  0  0  0 | # 
E: 000000.031932 8 8e 0f 80 80 08 00 00 00
#  X:  142 | Y:    3 | Z:  128 | Rz:  128 | Hat switch:   8 | Button: 0  0  0  0  0  0  0  0  0  0  0  0  0  0  0  0 | # 
E: 000000.039911 8 8e 03 80 80 08 00 00 00
#  X:  140 | Y:    1 | Z:  128 | Rz:  128 | Hat switch:   8 | Button: 0  0  0  0  0  0  0  0  0  0  0  0  0  0  0  0 | # 
E: 000000.048279 8 8c 01 80 80 08 00 00 00
#  X:  138 | Y:    1 | Z:  128 | Rz:  128 | Hat switch:   8 | Button: 0  0  0  0  0  0  0  0  0  0  0  0  0  0  0  0 | # 
E: 000000.056061 8 8a 01 80 80 08 00 00 00
#  X:  136 | Y:    1 | Z:  128 | Rz:  128 | Hat switch:   8 | Button: 0  0  0  0  0  0  0  0  0  0  0  0  0  0  0  0 | # 
E: 000000.064104 8 88 01 80 80 08 00 00 00
#  X:  135 | Y:    1 | Z:  128 | Rz:  128 | Hat switch:   8 | Button: 0  0  0  0  0  0  0  0  0  0  0  0  0  0  0  0 | # 
E: 000000.071927 8 87 01 80 80 08 00 00 00
#  X:  128 | Y:  127 | Z:  128 | Rz:  128 | Hat switch:   8 | Button: 0  0  0  0  0  0  0  0  0  0  0  0  0  0  0  0 | # 
E: 000001.392409 8 80 7f 80 80 08 00 00 00
#  X:  129 | Y:  124 | Z:  128 | Rz:  128 | Hat switch:   8 | Button: 0  0  0  0  0  0  0  0  0  0  0  0  0  0  0  0 | # 
E: 000001.400445 8 81 7c 80 80 08 00 00 00
#  X:  130 | Y:  120 | Z:  128 | Rz:  128 | Hat switch:   8 | Button: 0  0  0  0  0  0  0  0  0  0  0  0  0  0  0  0 | # 
E: 000001.408041 8 82 78 80 80 08 00 00 00
#  X:  132 | Y:  114 | Z:  128 | Rz:  128 | Hat switch:   8 | Button: 0  0  0  0  0  0  0  0  0  0  0  0  0  0  0  0 | # 
E: 000001.424054 8 84 72 80 80 08 00 00 00
#  X:  134 | Y:  107 | Z:  128 | Rz:  128 | Hat switch:   8 | Button: 0  0  0  0  0  0  0  0  0  0  0  0  0  0  0  0 | # 
E: 000001.432110 8 86 6b 80 80 08 00 00 00
#  X:  136 | Y:   98 | Z:  128 | Rz:  128 | Hat switch:   8 | Button: 0  0  0  0  0  0  0  0  0  0  0  0  0  0  0  0 | # 
E: 000001.440090 8 88 62 80 80 08 00 00 00
#  X:  139 | Y:   87 | Z:  128 | Rz:  128 | Hat switch:   8 | Button: 0  0  0  0  0  0  0  0  0  0  0  0  0  0  0  0 | # 
E: 000001.448059 8 8b 57 80 80 08 00 00 00
#  X:  142 | Y:   76 | Z:  128 | Rz:  128 | Hat switch:   8 | Button: 0  0  0  0  0  0  0  0  0  0  0  0  0  0  0  0 | # 
E: 000001.456524 8 8e 4c 80 80 08 00 00 00
#  X:  147 | Y:   62 | Z:  128 | Rz:  128 | Hat switch:   8 | Button: 0  0  0  0  0  0  0  0  0  0  0  0  0  0  0  0 | # 
E: 000001.464047 8 93 3e 80 80 08 00 00 00
#  X:  150 | Y:   52 | Z:  128 | Rz:  128 | Hat switch:   8 | Button: 0  0  0  0  0  0  0  0  0  0  0  0  0  0  0  0 | # 
E: 000001.472056 8 96 34 80 80 08 00 00 00
#  X:  153 | Y:   41 | Z:  128 | Rz:  128 | Hat switch:   8 | Button: 0  0  0  0  0  0  0  0  0  0  0  0  0  0  0  0 | # 
E: 000001.480007 8 99 29 80 80 08 00 00 00
#  X:  156 | Y:   28 | Z:  128 | Rz:  128 | Hat switch:   8 | Button: 0  0  0  0  0  0  0  0  0  0  0  0  0  0  0  0 | # 
E: 000001.496237 8 9c 1c 80 80 08 00 00 00
#  X:  159 | Y:   16 | Z:  128 | Rz:  128 | Hat switch:   8 | Button: 0  0  0  0  0  0  0  0  0  0  0  0  0  0  0  0 | # 
E: 000001.503992 8 9f 10 80 80 08 00 00 00
#  X:  162 | Y:    5 | Z:  128 | Rz:  128 | Hat switch:   8 | Button: 0  0  0  0  0  0  0  0  0  0  0  0  0  0  0  0 | # 
E: 000001.511995 8 a2 05 80 80 08 00 00 00
#  X:  163 | Y:    5 | Z:  128 | Rz:  128 | Hat switch:   8 | Button: 0  0  0  0  0  0  0  0  0  0  0  0  0  0  0  0 | # 
E: 000001.520024 8 a3 05 80 80 08 00 00 00
#  X:  163 | Y:    6 | Z:  128 | Rz:  128 | Hat switch:   8 | Button: 0  0  0  0  0  0  0  0  0  0  0  0  0  0  0  0 | # 
E: 000001.527986 8 a3 06 80 80 08 00 00 00
#  X:  164 | Y:    6 | Z:  128 | Rz:  128 | Hat switch:   8 | Button: 0  0  0  0  0  0  0  0  0  0  0  0  0  0  0  0 | # 
E: 000001.535992 8 a4 06 80 80 08 00 00 00
#  X:  165 | Y:    6 | Z:  128 | Rz:  128 | Hat switch:   8 | Button: 0  0  0  0  0  0  0  0  0  0  0  0  0  0  0  0 | # 
E: 000001.544064 8 a5 06 80 80 08 00 00 00
#  X:  166 | Y:    6 | Z:  128 | Rz:  128 | Hat switch:   8 | Button: 0  0  0  0  0  0  0  0  0  0  0  0  0  0  0  0 | # 
E: 000001.552026 8 a6 06 80 80 08 00 00 00
#  X:  166 | Y:    7 | Z:  128 | Rz:  128 | Hat switch:   8 | Button: 0  0  0  0  0  0  0  0  0  0  0  0  0  0  0  0 | # 
E: 000001.568075 8 a6 07 80 80 08 00 00 00
#  X:  167 | Y:    7 | Z:  128 | Rz:  128 | Hat switch:   8 | Button: 0  0  0  0  0  0  0  0  0  0  0  0  0  0  0  0 | # 
E: 000001.576168 8 a7 07 80 80 08 00 00 00
#  X:  168 | Y:    7 | Z:  128 | Rz:  128 | Hat switch:   8 | Button: 0  0  0  0  0  0  0  0  0  0  0  0  0  0  0  0 | # 
E: 000001.584010 8 a8 07 80 80 08 00 00 00
#  X:  169 | Y:    7 | Z:  128 | Rz:  128 | Hat switch:   8 | Button: 0  0  0  0  0  0  0  0  0  0  0  0  0  0  0  0 | # 
E: 000001.591996 8 a9 07 80 80 08 00 00 00
#  X:  170 | Y:    8 | Z:  128 | Rz:  128 | Hat switch:   8 | Button: 0  0  0  0  0  0  0  0  0  0  0  0  0  0  0  0 | # 
E: 000001.600010 8 aa 08 80 80 08 00 00 00
#  X:  171 | Y:    8 | Z:  128 | Rz:  128 | Hat switch:   8 | Button: 0  0  0  0  0  0  0  0  0  0  0  0  0  0  0  0 | # 
E: 000001.616108 8 ab 08 80 80 08 00 00 00
#  X:  172 | Y:    8 | Z:  128 | Rz:  128 | Hat switch:   8 | Button: 0  0  0  0  0  0  0  0  0  0  0  0  0  0  0  0 | # 
E: 000001.624001 8 ac 08 80 80 08 00 00 00
#  X:  172 | Y:    9 | Z:  128 | Rz:  128 | Hat switch:   8 | Button: 0  0  0  0  0  0  0  0  0  0  0  0  0  0  0  0 | # 
E: 000001.640067 8 ac 09 80 80 08 00 00 00
#  X:  173 | Y:    9 | Z:  128 | Rz:  128 | Hat switch:   8 | Button: 0  0  0  0  0  0  0  0  0  0  0  0  0  0  0  0 | # 
E: 000001.648173 8 ad 09 80 80 08 00 00 00
#  X:  172 | Y:    9 | Z:  128 | Rz:  128 | Hat switch:   8 | Button: 0  0  0  0  0  0  0  0  0  0  0  0  0  0  0  0 | # 
E: 000001.664105 8 ac 09 80 80 08 00 00 00
#  X:  173 | Y:    9 | Z:  128 | Rz:  128 | Hat switch:   8 | Button: 0  0  0  0  0  0  0  0  0  0  0  0  0  0  0  0 | # 
E: 000001.672066 8 ad 09 80 80 08 00 00 00
#  X:  174 | Y:    9 | Z:  128 | Rz:  128 | Hat switch:   8 | Button: 0  0  0  0  0  0  0  0  0  0  0  0  0  0  0  0 | # 
E: 000001.688161 8 ae 09 80 80 08 00 00 00
#  X:  176 | Y:   10 | Z:  128 | Rz:  128 | Hat switch:   8 | Button: 0  0  0  0  0  0  0  0  0  0  0  0  0  0  0  0 | # 
E: 000001.712190 8 b0 0a 80 80 08 00 00 00
#  X:  173 | Y:   22 | Z:  128 | Rz:  128 | Hat switch:   8 | Button: 0  0  0  0  0  0  0  0  0  0  0  0  0  0  0  0 | # 
E: 000001.720178 8 ad 16 80 80 08 00 00 00
#  X:  170 | Y:   37 | Z:  128 | Rz:  128 | Hat switch:   8 | Button: 0  0  0  0  0  0  0  0  0  0  0  0  0  0  0  0 | # 
E: 000001.728107 8 aa 25 80 80 08 00 00 00
#  X:  167 | Y:   52 | Z:  128 | Rz:  128 | Hat switch:   8 | Button: 0  0  0  0  0  0  0  0  0  0  0  0  0  0  0  0 | # 
E: 000001.736003 8 a7 34 80 80 08 00 00 00
#  X:  165 | Y:   69 | Z:  128 | Rz:  128 | Hat switch:   8 | Button: 0  0  0  0  0  0  0  0  0  0  0  0  0  0  0  0 | # 
E: 000001.743995 8 a5 45 80 80 08 00 00 00
#  X:  161 | Y:   84 | Z:  128 | Rz:  128 | Hat switch:   8 | Button: 0  0  0  0  0  0  0  0  0  0  0  0  0  0  0  0 | # 
E: 000001.751997 8 a1 54 80 80 08 00 00 00
#  X:  156 | Y:   97 | Z:  128 | Rz:  128 | Hat switch:   8 | Button: 0  0  0  0  0  0  0  0  0  0  0  0  0  0  0  0 | # 
E: 000001.760145 8 9c 61 80 80 08 00 00 00
#  X:  144 | Y:  113 | Z:  128 | Rz:  128 | Hat switch:   8 | Button: 0  0  0  0  0  0  0  0  0  0  0  0  0  0  0  0 | # 
E: 000001.768005 8 90 71 80 80 08 00 00 00
#  X:  133 | Y:  124 | Z:  128 | Rz:  128 | Hat switch:   8 | Button: 0  0  0  0  0  0  0  0  0  0  0  0  0  0  0  0 | # 
E: 000001.784182 8 85 7c 80 80 08 00 00 00
#  X:  128 | Y:  128 | Z:  128 | Rz:  128 | Hat switch:   8 | Button: 0  0  0  0  0  0  0  0  0  0  0  0  0  0  0  0 | # 
E: 000001.792240 8 80 80 80 80 08 00 00 00
#  X:  128 | Y:  129 | Z:  128 | Rz:  128 | Hat switch:   8 | Button: 0  0  0  0  0  0  0  0  0  0  0  0  0  0  0  0 | # 
E: 000001.824682 8 80 81 80 80 08 00 00 00
#  X:  128 | Y:  133 | Z:  128 | Rz:  128 | Hat switch:   8 | Button: 0  0  0  0  0  0  0  0  0  0  0  0  0  0  0  0 | # 
E: 000001.832142 8 80 85 80 80 08 00 00 00
#  X:  129 | Y:  138 | Z:  128 | Rz:  128 | Hat switch:   8 | Button: 0  0  0  0  0  0  0  0  0  0  0  0  0  0  0  0 | # 
E: 000001.840410 8 81 8a 80 80 08 00 00 00
#  X:  131 | Y:  143 | Z:  128 | Rz:  128 | Hat switch:   8 | Button: 0  0  0  0  0  0  0  0  0  0  0  0  0  0  0  0 | # 
E: 000001.856369 8 83 8f 80 80 08 00 00 00
#  X:  132 | Y:  149 | Z:  128 | Rz:  128 | Hat switch:   8 | Button: 0  0  0  0  0  0  0  0  0  0  0  0  0  0  0  0 | # 
E: 000001.864048 8 84 95 80 80 08 00 00 00
#  X:  135 | Y:  156 | Z:  128 | Rz:  128 | Hat switch:   8 | Button: 0  0  0  0  0  0  0  0  0  0  0  0  0  0  0  0 | # 
E: 000001.872057 8 87 9c 80 80 08 00 00 00
#  X:  136 | Y:  160 | Z:  128 | Rz:  128 | Hat switch:   8 | Button: 0  0  0  0  0  0  0  0  0  0  0  0  0  0  0  0 | # 
E: 000001.880187 8 88 a0 80 80 08 00 00 00
#  X:  137 | Y:  164 | Z:  128 | Rz:  128 | Hat switch:   8 | Button: 0  0  0  0  0  0  0  0  0  0  0  0  0  0  0  0 | # 
E: 000001.888253 8 89 a4 80 80 08 00 00 00
#  X:  138 | Y:  167 | Z:  128 | Rz:  128 | Hat switch:   8 | Button: 0  0  0  0  0  0  0  0  0  0  0  0  0  0  0  0 | # 
E: 000001.896446 8 8a a7 80 80 08 00 00 00
#  X:  139 | Y:  169 | Z:  128 | Rz:  128 | Hat switch:   8 | Button: 0  0  0  0  0  0  0  0  0  0  0  0  0  0  0  0 | # 
E: 000001.904002 8 8b a9 80 80 08 00 00 00
#  X:  141 | Y:  173 | Z:  128 | Rz:  128 | Hat switch:   8 | Button: 0  0  0  0  0  0  0  0  0  0  0  0  0  0  0  0 | # 
E: 000001.912115 8 8d ad 80 80 08 00 00 00
#  X:  143 | Y:  177 | Z:  128 | Rz:  128 | Hat switch:   8 | Button: 0  0  0  0  0  0  0  0  0  0  0  0  0  0  0  0 | # 
E: 000001.928002 8 8f b1 80 80 08 00 00 00
#  X:  145 | Y:  181 | Z:  128 | Rz:  128 | Hat switch:   8 | Button: 0  0  0  0  0  0  0  0  0  0  0  0  0  0  0  0 | # 
E: 000001.936176 8 91 b5 80 80 08 00 00 00
#  X:  147 | Y:  185 | Z:  128 | Rz:  128 | Hat switch:   8 | Button: 0  0  0  0  0  0  0  0  0  0  0  0  0  0  0  0 | # 
E: 000001.944021 8 93 b9 80 80 08 00 00 00
#  X:  147 | Y:  189 | Z:  128 | Rz:  128 | Hat switch:   8 | Button: 0  0  0  0  0  0  0  0  0  0  0  0  0  0  0  0 | # 
E: 000001.952165 8 93 bd 80 80 08 00 00 00
#  X:  148 | Y:  195 | Z:  128 | Rz:  128 | Hat switch:   8 | Button: 0  0  0  0  0  0  0  0  0  0  0  0  0  0  0  0 | # 
E: 000001.960007 8 94 c3 80 80 08 00 00 00
#  X:  146 | Y:  202 | Z:  128 | Rz:  128 | Hat switch:   8 | Button: 0  0  0  0  0  0  0  0  0  0  0  0  0  0  0  0 | # 
E: 000001.968002 8 92 ca 80 80 08 00 00 00
#  X:  143 | Y:  211 | Z:  128 | Rz:  128 | Hat switch:   8 | Button: 0  0  0  0  0  0  0  0  0  0  0  0  0  0  0  0 | # 
E: 000001.976092 8 8f d3 80 80 08 00 00 00
#  X:  138 | Y:  222 | Z:  128 | Rz:  128 | Hat switch:   8 | Button: 0  0  0  0  0  0  0  0  0  0  0  0  0  0  0  0 | # 
E: 000001.984167 8 8a de 80 80 08 00 00 00
#  X:  131 | Y:  234 | Z:  128 | Rz:  128 | Hat switch:   8 | Button: 0  0  0  0  0  0  0  0  0  0  0  0  0  0  0  0 | # 
E: 000002.000107 8 83 ea 80 80 08 00 00 00
#  X:  121 | Y:  245 | Z:  128 | Rz:  128 | Hat switch:   8 | Button: 0  0  0  0  0  0  0  0  0  0  0  0  0  0  0  0 | # 
E: 000002.008012 8 79 f5 80 80 08 00 00 00
#  X:  111 | Y:  254 | Z:  128 | Rz:  128 | Hat switch:   8 | Button: 0  0  0  0  0  0  0  0  0  0  0  0  0  0  0  0 | # 
E: 000002.016113 8 6f fe 80 80 08 00 00 00
#  X:  104 | Y:  253 | Z:  128 | Rz:  128 | Hat switch:   8 | Button: 0  0  0  0  0  0  0  0  0  0  0  0  0  0  0  0 | # 
E: 000002.024082 8 68 fd 80 80 08 00 00 00
#  X:   98 | Y:  252 | Z:  128 | Rz:  128 | Hat switch:   8 | Button: 0  0  0  0  0  0  0  0  0  0  0  0  0  0  0  0 | # 
E: 000002.032014 8 62 fc 80 80 08 00 00 00
#  X:   93 | Y:  251 | Z:  128 | Rz:  128 | Hat switch:   8 | Button: 0  0  0  0  0  0  0  0  0  0  0  0  0  0  0  0 | # 
E: 000002.040008 8 5d fb 80 80 08 00 00 00
#  X:   89 | Y:  249 | Z:  128 | Rz:  128 | Hat switch:   8 | Button: 0  0  0  0  0  0  0  0  0  0  0  0  0  0  0  0 | # 
E: 000002.047987 8 59 f9 80 80 08 00 00 00
#  X:   84 | Y:  247 | Z:  128 | Rz:  128 | Hat switch:   8 | Button: 0  0  0  0  0  0  0  0  0  0  0  0  0  0  0  0 | # 
E: 000002.056013 8 54 f7 80 80 08 00 00 00
#  X:   77 | Y:  245 | Z:  128 | Rz:  128 | Hat switch:   8 | Button: 0  0  0  0  0  0  0  0  0  0  0  0  0  0  0  0 | # 
E: 000002.072203 8 4d f5 80 80 08 00 00 00
#  X:   69 | Y:  241 | Z:  128 | Rz:  128 | Hat switch:   8 | Button: 0  0  0  0  0  0  0  0  0  0  0  0  0  0  0  0 | # 
E: 000002.080026 8 45 f1 80 80 08 00 00 00
#  X:   61 | Y:  236 | Z:  128 | Rz:  128 | Hat switch:   8 | Button: 0  0  0  0  0  0  0  0  0  0  0  0  0  0  0  0 | # 
E: 000002.088274 8 3d ec 80 80 08 00 00 00
#  X:   52 | Y:  230 | Z:  128 | Rz:  128 | Hat switch:   8 | Button: 0  0  0  0  0  0  0  0  0  0  0  0  0  0  0  0 | # 
E: 000002.096109 8 34 e6 80 80 08 00 00 00
#  X:   44 | Y:  223 | Z:  128 | Rz:  128 | Hat switch:   8 | Button: 0  0  0  0  0  0  0  0  0  0  0  0  0  0  0  0 | # 
E: 000002.104026 8 2c df 80 80 08 00 00 00
#  X:   37 | Y:  217 | Z:  128 | Rz:  128 | Hat switch:   8 | Button: 0  0  0  0  0  0  0  0  0  0  0  0  0  0  0  0 | # 
E: 000002.112023 8 25 d9 80 80 08 00 00 00
#  X:   32 | Y:  212 | Z:  128 | Rz:  128 | Hat switch:   8 | Button: 0  0  0  0  0  0  0  0  0  0  0  0  0  0  0  0 | # 
E: 000002.120115 8 20 d4 80 80 08 00 00 00
#  X:   28 | Y:  207 | Z:  128 | Rz:  128 | Hat switch:   8 | Button: 0  0  0  0  0  0  0  0  0  0  0  0  0  0  0  0 | # 
E: 000002.128186 8 1c cf 80 80 08 00 00 00
#  X:   26 | Y:  204 | Z:  128 | Rz:  128 | Hat switch:   8 | Button: 0  0  0  0  0  0  0  0  0  0  0  0  0  0  0  0 | # 
E: 000002.144065 8 1a cc 80 80 08 00 00 00
#  X:   23 | Y:  200 | Z:  128 | Rz:  128 | Hat switch:   8 | Button: 0  0  0  0  0  0  0  0  0  0  0  0  0  0  0  0 | # 
E: 000002.152237 8 17 c8 80 80 08 00 00 00
#  X:   21 | Y:  197 | Z:  128 | Rz:  128 | Hat switch:   8 | Button: 0  0  0  0  0  0  0  0  0  0  0  0  0  0  0  0 | # 
E: 000002.160304 8 15 c5 80 80 08 00 00 00
#  X:   19 | Y:  194 | Z:  128 | Rz:  128 | Hat switch:   8 | Button: 0  0  0  0  0  0  0  0  0  0  0  0  0  0  0  0 | # 
E: 000002.168028 8 13 c2 80 80 08 00 00 00
#  X:   16 | Y:  188 | Z:  128 | Rz:  128 | Hat switch:   8 | Button: 0  0  0  0  0  0  0  0  0  0  0  0  0  0  0  0 | # 
E: 000002.175993 8 10 bc 80 80 08 00 00 00
#  X:   12 | Y:  182 | Z:  128 | Rz:  128 | Hat switch:   8 | Button: 0  0  0  0  0  0  0  0  0  0  0  0  0  0  0  0 | # 
E: 000002.184013 8 0c b6 80 80 08 00 00 00
#  X:   10 | Y:  175 | Z:  128 | Rz:  128 | Hat switch:   8 | Button: 0  0  0  0  0  0  0  0  0  0  0  0  0  0  0  0 | # 
E: 000002.192084 8 0a af 80 80 08 00 00 00
#  X:    6 | Y:  165 | Z:  128 | Rz:  128 | Hat switch:   8 | Button: 0  0  0  0  0  0  0  0  0  0  0  0  0  0  0  0 | # 
E: 000002.200381 8 06 a5 80 80 08 00 00 00
#  X:    4 | Y:  157 | Z:  128 | Rz:  128 | Hat switch:   8 | Button: 0  0  0  0  0  0  0  0  0  0  0  0  0  0  0  0 | # 
E: 000002.216097 8 04 9d 80 80 08 00 00 00
#  X:    2 | Y:  149 | Z:  128 | Rz:  128 | Hat switch:   8 | Button: 0  0  0  0  0  0  0  0  0  0  0  0  0  0  0  0 | # 
E: 000002.224142 8 02 95 80 80 08 00 00 00
#  X:    1 | Y:  140 | Z:  128 | Rz:  128 | Hat switch:   8 | Button: 0  0  0  0  0  0  0  0  0  0  0  0  0  0  0  0 | # 
E: 000002.232210 8 01 8c 80 80 08 00 00 00
#  X:    1 | Y:  132 | Z:  128 | Rz:  128 | Hat switch:   8 | Button: 0  0  0  0  0  0  0  0  0  0  0  0  0  0  0  0 | # 
E: 000002.240229 8 01 84 80 80 08 00 00 00
#  X:    1 | Y:  125 | Z:  128 | Rz:  128 | Hat switch:   8 | Button: 0  0  0  0  0  0  0  0  0  0  0  0  0  0  0  0 | # 
E: 000002.248193 8 01 7d 80 80 08 00 00 00
#  X:    1 | Y:  116 | Z:  128 | Rz:  128 | Hat switch:   8 | Button: 0  0  0  0  0  0  0  0  0  0  0  0  0  0  0  0 | # 
E: 000002.256090 8 01 74 80 80 08 00 00 00
#  X:    2 | Y:  108 | Z:  128 | Rz:  128 | Hat switch:   8 | Button: 0  0  0  0  0  0  0  0  0  0  0  0  0  0  0  0 | # 
E: 000002.264148 8 02 6c 80 80 08 00 00 00
#  X:    4 | Y:  101 | Z:  128 | Rz:  128 | Hat switch:   8 | Button: 0  0  0  0  0  0  0  0  0  0  0  0  0  0  0  0 | # 
E: 000002.272052 8 04 65 80 80 08 00 00 00
#  X:    5 | Y:   93 | Z:  128 | Rz:  128 | Hat switch:   8 | Button: 0  0  0  0  0  0  0  0  0  0  0  0  0  0  0  0 | # 
E: 000002.288092 8 05 5d 80 80 08 00 00 00
#  X:    8 | Y:   86 | Z:  128 | Rz:  128 | Hat switch:   8 | Button: 0  0  0  0  0  0  0  0  0  0  0  0  0  0  0  0 | # 
E: 000002.296197 8 08 56 80 80 08 00 00 00
#  X:   10 | Y:   79 | Z:  128 | Rz:  128 | Hat switch:   8 | Button: 0  0  0  0  0  0  0  0  0  0  0  0  0  0  0  0 | # 
E: 000002.304322 8 0a 4f 80 80 08 00 00 00
#  X:   13 | Y:   73 | Z:  128 | Rz:  128 | Hat switch:   8 | Button: 0  0  0  0  0  0  0  0  0  0  0  0  0  0  0  0 | # 
E: 000002.312055 8 0d 49 80 80 08 00 00 00
#  X:   16 | Y:   67 | Z:  128 | Rz:  128 | Hat switch:   8 | Button: 0  0  0  0  0  0  0  0  0  0  0  0  0  0  0  0 | # 
E: 000002.320017 8 10 43 80 80 08 00 00 00
#  X:   20 | Y:   60 | Z:  128 | Rz:  128 | Hat switch:   8 | Button: 0  0  0  0  0  0  0  0  0  0  0  0  0  0  0  0 | # 
E: 000002.328035 8 14 3c 80 80 08 00 00 00
#  X:   24 | Y:   54 | Z:  128 | Rz:  128 | Hat switch:   8 | Button: 0  0  0  0  0  0  0  0  0  0  0  0  0  0  0  0 | # 
E: 000002.336098 8 18 36 80 80 08 00 00 00
#  X:   29 | Y:   48 | Z:  128 | Rz:  128 | Hat switch:   8 | Button: 0  0  0  0  0  0  0  0  0  0  0  0  0  0  0  0 | # 
E: 000002.344019 8 1d 30 80 80 08 00 00 00
#  X:   34 | Y:   42 | Z:  128 | Rz:  128 | Hat switch:   8 | Button: 0  0  0  0  0  0  0  0  0  0  0  0  0  0  0  0 | # 
E: 000002.360078 8 22 2a 80 80 08 00 00 00
#  X:   40 | Y:   36 | Z:  128 | Rz:  128 | Hat switch:   8 | Button: 0  0  0  0  0  0  0  0  0  0  0  0  0  0  0  0 | # 
E: 000002.368148 8 28 24 80 80 08 00 00 00
#  X:   46 | Y:   31 | Z:  128 | Rz:  128 | Hat switch:   8 | Button: 0  0  0  0  0  0  0  0  0  0  0  0  0  0  0  0 | # 
E: 000002.376028 8 2e 1f 80 80 08 00 00 00
#  X:   53 | Y:   25 | Z:  128 | Rz:  128 | Hat switch:   8 | Button: 0  0  0  0  0  0  0  0  0  0  0  0  0  0  0  0 | # 
E: 000002.384359 8 35 19 80 80 08 00 00 00
#  X:   60 | Y:   20 | Z:  128 | Rz:  128 | Hat switch:   8 | Button: 0  0  0  0  0  0  0  0  0  0  0  0  0  0  0  0 | # 
E: 000002.392105 8 3c 14 80 80 08 00 00 00
#  X:   68 | Y:   16 | Z:  128 | Rz:  128 | Hat switch:   8 | Button: 0  0  0  0  0  0  0  0  0  0  0  0  0  0  0  0 | # 
E: 000002.400029 8 44 10 80 80 08 00 00 00
#  X:   78 | Y:   11 | Z:  128 | Rz:  128 | Hat switch:   8 | Button: 0  0  0  0  0  0  0  0  0  0  0  0  0  0  0  0 | # 
E: 000002.408092 8 4e 0b 80 80 08 00 00 00
#  X:   88 | Y:    7 | Z:  128 | Rz:  128 | Hat switch:   8 | Button: 0  0  0  0  0  0  0  0  0  0  0  0  0  0  0  0 | # 
E: 000002.416017 8 58 07 80 80 08 00 00 00
#  X:  100 | Y:    4 | Z:  128 | Rz:  128 | Hat switch:   8 | Button: 0  0  0  0  0  0  0  0  0  0  0  0  0  0  0  0 | # 
E: 000002.432112 8 64 04 80 80 08 00 00 00
#  X:  112 | Y:    2 | Z:  128 | Rz:  128 | Hat switch:   8 | Button: 0  0  0  0  0  0  0  0  0  0  0  0  0  0  0  0 | # 
E: 000002.440024 8 70 02 80 80 08 00 00 00
#  X:  125 | Y:    1 | Z:  128 | Rz:  128 | Hat switch:   8 | Button: 0  0  0  0  0  0  0  0  0  0  0  0  0  0  0  0 | # 
E: 000002.448024 8 7d 01 80 80 08 00 00 00
#  X:  136 | Y:    1 | Z:  128 | Rz:  128 | Hat switch:   8 | Button: 0  0  0  0  0  0  0  0  0  0  0  0  0  0  0  0 | # 
E: 000002.456025 8 88 01 80 80 08 00 00 00
#  X:  148 | Y:    2 | Z:  128 | Rz:  128 | Hat switch:   8 | Button: 0  0  0  0  0  0  0  0  0  0  0  0  0  0  0  0 | # 
E: 000002.464026 8 94 02 80 80 08 00 00 00
#  X:  160 | Y:    5 | Z:  128 | Rz:  128 | Hat switch:   8 | Button: 0  0  0  0  0  0  0  0  0  0  0  0  0  0  0  0 | # 
E: 000002.472019 8 a0 05 80 80 08 00 00 00
#  X:  173 | Y:    9 | Z:  128 | Rz:  128 | Hat switch:   8 | Button: 0  0  0  0  0  0  0  0  0  0  0  0  0  0  0  0 | # 
E: 000002.480343 8 ad 09 80 80 08 00 00 00
#  X:  185 | Y:   14 | Z:  128 | Rz:  128 | Hat switch:   8 | Button: 0  0  0  0  0  0  0  0  0  0  0  0  0  0  0  0 | # 
E: 000002.488030 8 b9 0e 80 80 08 00 00 00
#  X:  197 | Y:   21 | Z:  128 | Rz:  128 | Hat switch:   8 | Button: 0  0  0  0  0  0  0  0  0  0  0  0  0  0  0  0 | # 
E: 000002.504100 8 c5 15 80 80 08 00 00 00
#  X:  207 | Y:   28 | Z:  128 | Rz:  128 | Hat switch:   8 | Button: 0  0  0  0  0  0  0  0  0  0  0  0  0  0  0  0 | # 
E: 000002.512029 8 cf 1c 80 80 08 00 00 00
#  X:  215 | Y:   36 | Z:  128 | Rz:  128 | Hat switch:   8 | Button: 0  0  0  0  0  0  0  0  0  0  0  0  0  0  0  0 | # 
E: 000002.520032 8 d7 24 80 80 08 00 00 00
#  X:  224 | Y:   44 | Z:  128 | Rz:  128 | Hat switch:   8 | Button: 0  0  0  0  0  0  0  0  0  0  0  0  0  0  0  0 | # 
E: 000002.528027 8 e0 2c 80 80 08 00 00 00
#  X:  229 | Y:   51 | Z:  128 | Rz:  128 | Hat switch:   8 | Button: 0  0  0  0  0  0  0  0  0  0  0  0  0  0  0  0 | # 
E: 000002.536141 8 e5 33 80 80 08 00 00 00
#  X:  235 | Y:   58 | Z:  128 | Rz:  128 | Hat switch:   8 | Button: 0  0  0  0  0  0  0  0  0  0  0  0  0  0  0  0 | # 
E: 000002.544026 8 eb 3a 80 80 08 00 00 00
#  X:  239 | Y:   66 | Z:  128 | Rz:  128 | Hat switch:   8 | Button: 0  0  0  0  0  0  0  0  0  0  0  0  0  0  0  0 | # 
E: 000002.552124 8 ef 42 80 80 08 00 00 00
#  X:  243 | Y:   73 | Z:  128 | Rz:  128 | Hat switch:   8 | Button: 0  0  0  0  0  0  0  0  0  0  0  0  0  0  0  0 | # 
E: 000002.560027 8 f3 49 80 80 08 00 00 00
#  X:  246 | Y:   80 | Z:  128 | Rz:  128 | Hat switch:   8 | Button: 0  0  0  0  0  0  0  0  0  0  0  0  0  0  0  0 | # 
E: 000002.576230 8 f6 50 80 80 08 00 00 00
#  X:  249 | Y:   88 | Z:  128 | Rz:  128 | Hat switch:   8 | Button: 0  0  0  0  0  0  0  0  0  0  0  0  0  0  0  0 | # 
E: 000002.584036 8 f9 58 80 80 08 00 00 00
#  X:  251 | Y:   95 | Z:  128 | Rz:  128 | Hat switch:   8 | Button: 0  0  0  0  0  0  0  0  0  0  0  0  0  0  0  0 | # 
E: 000002.592026 8 fb 5f 80 80 08 00 00 00
#  X:  253 | Y:  103 | Z:  128 | Rz:  128 | Hat switch:   8 | Button: 0  0  0  0  0  0  0  0  0  0  0  0  0  0  0  0 | # 
E: 000002.600554 8 fd 67 80 80 08 00 00 00
#  X:  254 | Y:  111 | Z:  128 | Rz:  128 | Hat switch:   8 | Button: 0  0  0  0  0  0  0  0  0  0  0  0  0  0  0  0 | # 
E: 000002.608099 8 fe 6f 80 80 08 00 00 00
#  X:  255 | Y:  121 | Z:  128 | Rz:  128 | Hat switch:   8 | Button: 0  0  0  0  0  0  0  0  0  0  0  0  0  0  0  0 | # 
E: 000002.616144 8 ff 79 80 80 08 00 00 00
#  X:  255 | Y:  129 | Z:  128 | Rz:  128 | Hat switch:   8 | Button: 0  0  0  0  0  0  0  0  0  0  0  0  0  0  0  0 | # 
E: 000002.624086 8 ff 81 80 80 08 00 00 00
#  X:  255 | Y:  138 | Z:  128 | Rz:  128 | Hat switch:   8 | Button: 0  0  0  0  0  0  0  0  0  0  0  0  0  0  0  0 | # 
E: 000002.632241 8 ff 8a 80 80 08 00 00 00
#  X:  254 | Y:  150 | Z:  128 | Rz:  128 | Hat switch:   8 | Button: 0  0  0  0  0  0  0  0  0  0  0  0  0  0  0  0 | # 
E: 000002.648218 8 fe 96 80 80 08 00 00 00
#  X:  251 | Y:  161 | Z:  128 | Rz:  128 | Hat switch:   8 | Button: 0  0  0  0  0  0  0  0  0  0  0  0  0  0  0  0 | # 
E: 000002.656027 8 fb a1 80 80 08 00 00 00
#  X:  247 | Y:  174 | Z:  128 | Rz:  128 | Hat switch:   8 | Button: 0  0  0  0  0  0  0  0  0  0  0  0  0  0  0  0 | # 
E: 000002.664043 8 f7 ae 80 80 08 00 00 00
#  X:  241 | Y:  186 | Z:  128 | Rz:  128 | Hat switch:   8 | Button: 0  0  0  0  0  0  0  0  0  0  0  0  0  0  0  0 | # 
E: 000002.672068 8 f1 ba 80 80 08 00 00 00
#  X:  234 | Y:  199 | Z:  128 | Rz:  128 | Hat switch:   8 | Button: 0  0  0  0  0  0  0  0  0  0  0  0  0  0  0  0 | # 
E: 000002.680039 8 ea c7 80 80 08 00 00 00
#  X:  224 | Y:  211 | Z:  128 | Rz:  128 | Hat switch:   8 | Button: 0  0  0  0  0  0  0  0  0  0  0  0  0  0  0  0 | # 
E: 000002.688030 8 e0 d3 80 80 08 00 00 00
#  X:  214 | Y:  222 | Z:  128 | Rz:  128 | Hat switch:   8 | Button: 0  0  0  0  0  0  0  0  0  0  0  0  0  0  0  0 | # 
E: 000002.696144 8 d6 de 80 80 08 00 00 00
#  X:  203 | Y:  231 | Z:  128 | Rz:  128 | Hat switch:   8 | Button: 0  0  0  0  0  0  0  0  0  0  0  0  0  0  0  0 | # 
E: 000002.704106 8 cb e7 80 80 08 00 00 00
#  X:  192 | Y:  238 | Z:  128 | Rz:  128 | Hat switch:   8 | Button: 0  0  0  0  0  0  0  0  0  0  0  0  0  0  0  0 | # 
E: 000002.720084 8 c0 ee 80 80 08 00 00 00
#  X:  182 | Y:  243 | Z:  128 | Rz:  128 | Hat switch:   8 | Button: 0  0  0  0  0  0  0  0  0  0  0  0  0  0  0  0 | # 
E: 000002.728091 8 b6 f3 80 80 08 00 00 00
#  X:  173 | Y:  247 | Z:  128 | Rz:  128 | Hat switch:   8 | Button: 0  0  0  0  0  0  0  0  0  0  0  0  0  0  0  0 | # 
E: 000002.736105 8 ad f7 80 80 08 00 00 00
#  X:  166 | Y:  250 | Z:  128 | Rz:  128 | Hat switch:   8 | Button: 0  0  0  0  0  0  0  0  0  0  0  0  0  0  0  0 | # 
E: 000002.744144 8 a6 fa 80 80 08 00 00 00
#  X:  159 | Y:  252 | Z:  128 | Rz:  128 | Hat switch:   8 | Button: 0  0  0  0  0  0  0  0  0  0  0  0  0  0  0  0 | # 
E: 000002.752156 8 9f fc 80 80 08 00 00 00
#  X:  153 | Y:  253 | Z:  128 | Rz:  128 | Hat switch:   8 | Button: 0  0  0  0  0  0  0  0  0  0  0  0  0  0  0  0 | # 
E: 000002.760147 8 99 fd 80 80 08 00 00 00
#  X:  148 | Y:  254 | Z:  128 | Rz:  128 | Hat switch:   8 | Button: 0  0  0  0  0  0  0  0  0  0  0  0  0  0  0  0 | # 
E: 000002.768054 8 94 fe 80 80 08 00 00 00
#  X:  143 | Y:  255 | Z:  128 | Rz:  128 | Hat switch:   8 | Button: 0  0  0  0  0  0  0  0  0  0  0  0  0  0  0  0 | # 
E: 000002.776149 8 8f ff 80 80 08 00 00 00
#  X:  137 | Y:  255 | Z:  128 | Rz:  128 | Hat switch:   8 | Button: 0  0  0  0  0  0  0  0  0  0  0  0  0  0  0  0 | # 
E: 000002.792217 8 89 ff 80 80 08 00 00 00
#  X:  130 | Y:  255 | Z:  128 | Rz:  128 | Hat switch:   8 | Button: 0  0  0  0  0  0  0  0  0  0  0  0  0  0  0  0 | # 
E: 000002.800112 8 82 ff 80 80 08 00 00 00
#  X:  123 | Y:  255 | Z:  128 | Rz:  128 | Hat switch:   8 | Button: 0  0  0  0  0  0  0  0  0  0  0  0  0  0  0  0 | # 
E: 000002.808472 8 7b ff 80 80 08 00 00 00
#  X:  116 | Y:  255 | Z:  128 | Rz:  128 | Hat switch:   8 | Button: 0  0  0  0  0  0  0  0  0  0  0  0  0  0  0  0 | # 
E: 000002.816215 8 74 ff 80 80 08 00 00 00
#  X:  108 | Y:  254 | Z:  128 | Rz:  128 | Hat switch:   8 | Button: 0  0  0  0  0  0  0  0  0  0  0  0  0  0  0  0 | # 
E: 000002.824157 8 6c fe 80 80 08 00 00 00
#  X:   99 | Y:  252 | Z:  128 | Rz:  128 | Hat switch:   8 | Button: 0  0  0  0  0  0  0  0  0  0  0  0  0  0  0  0 | # 
E: 000002.832049 8 63 fc 80 80 08 00 00 00
#  X:   87 | Y:  249 | Z:  128 | Rz:  128 | Hat switch:   8 | Button: 0  0  0  0  0  0  0  0  0  0  0  0  0  0  0  0 | # 
E: 000002.840073 8 57 f9 80 80 08 00 00 00
#  X:   78 | Y:  245 | Z:  128 | Rz:  128 | Hat switch:   8 | Button: 0  0  0  0  0  0  0  0  0  0  0  0  0  0  0  0 | # 
E: 000002.848067 8 4e f5 80 80 08 00 00 00
#  X:   67 | Y:  240 | Z:  128 | Rz:  128 | Hat switch:   8 | Button: 0  0  0  0  0  0  0  0  0  0  0  0  0  0  0  0 | # 
E: 000002.864062 8 43 f0 80 80 08 00 00 00
#  X:   56 | Y:  233 | Z:  128 | Rz:  128 | Hat switch:   8 | Button: 0  0  0  0  0  0  0  0  0  0  0  0  0  0  0  0 | # 
E: 000002.872153 8 38 e9 80 80 08 00 00 00
#  X:   44 | Y:  224 | Z:  128 | Rz:  128 | Hat switch:   8 | Button: 0  0  0  0  0  0  0  0  0  0  0  0  0  0  0  0 | # 
E: 000002.880486 8 2c e0 80 80 08 00 00 00
#  X:   32 | Y:  211 | Z:  128 | Rz:  128 | Hat switch:   8 | Button: 0  0  0  0  0  0  0  0  0  0  0  0  0  0  0  0 | # 
E: 000002.888384 8 20 d3 80 80 08 00 00 00
#  X:   21 | Y:  197 | Z:  128 | Rz:  128 | Hat switch:   8 | Button: 0  0  0  0  0  0  0  0  0  0  0  0  0  0  0  0 | # 
E: 000002.896048 8 15 c5 80 80 08 00 00 00
#  X:   12 | Y:  181 | Z:  128 | Rz:  128 | Hat switch:   8 | Button: 0  0  0  0  0  0  0  0  0  0  0  0  0  0  0  0 | # 
E: 000002.904256 8 0c b5 80 80 08 00 00 00
#  X:    6 | Y:  166 | Z:  128 | Rz:  128 | Hat switch:   8 | Button: 0  0  0  0  0  0  0  0  0  0  0  0  0  0  0  0 | # 
E: 000002.912145 8 06 a6 80 80 08 00 00 00
#  X:    3 | Y:  150 | Z:  128 | Rz:  128 | Hat switch:   8 | Button: 0  0  0  0  0  0  0  0  0  0  0  0  0  0  0  0 | # 
E: 000002.920049 8 03 96 80 80 08 00 00 00
#  X:    1 | Y:  137 | Z:  128 | Rz:  128 | Hat switch:   8 | Button: 0  0  0  0  0  0  0  0  0  0  0  0  0  0  0  0 | # 
E: 000002.936142 8 01 89 80 80 08 00 00 00
#  X:    1 | Y:  126 | Z:  128 | Rz:  128 | Hat switch:   8 | Button: 0  0  0  0  0  0  0  0  0  0  0  0  0  0  0  0 | # 
E: 000002.944041 8 01 7e 80 80 08 00 00 00
#  X:    1 | Y:  115 | Z:  128 | Rz:  128 | Hat switch:   8 | Button: 0  0  0  0  0  0  0  0  0  0  0  0  0  0  0  0 | # 
E: 000002.952053 8 01 73 80 80 08 00 00 00
#  X:    3 | Y:  103 | Z:  128 | Rz:  128 | Hat switch:   8 | Button: 0  0  0  0  0  0  0  0  0  0  0  0  0  0  0  0 | # 
E: 000002.960160 8 03 67 80 80 08 00 00 00
#  X:    5 | Y:   95 | Z:  128 | Rz:  128 | Hat switch:   8 | Button: 0  0  0  0  0  0  0  0  0  0  0  0  0  0  0  0 | # 
E: 000002.968073 8 05 5f 80 80 08 00 00 00
#  X:    8 | Y:   86 | Z:  128 | Rz:  128 | Hat switch:   8 | Button: 0  0  0  0  0  0  0  0  0  0  0  0  0  0  0  0 | # 
E: 000002.976164 8 08 56 80 80 08 00 00 00
#  X:   11 | Y:   79 | Z:  128 | Rz:  128 | Hat switch:   8 | Button: 0  0  0  0  0  0  0  0  0  0  0  0  0  0  0  0 | # 
E: 000002.984180 8 0b 4f 80 80 08 00 00 00
#  X:   14 | Y:   71 | Z:  128 | Rz:  128 | Hat switch:   8 | Button: 0  0  0  0  0  0  0  0  0  0  0  0  0  0  0  0 | # 
E: 000002.992220 8 0e 47 80 80 08 00 00 00
#  X:   18 | Y:   64 | Z:  128 | Rz:  128 | Hat switch:   8 | Button: 0  0  0  0  0  0  0  0  0  0  0  0  0  0  0  0 | # 
E: 000003.008163 8 12 40 80 80 08 00 00 00
#  X:   22 | Y:   58 | Z:  128 | Rz:  128 | Hat switch:   8 | Button: 0  0  0  0  0  0  0  0  0  0  0  0  0  0  0  0 | # 
E: 000003.016078 8 16 3a 80 80 08 00 00 00
#  X:   26 | Y:   52 | Z:  128 | Rz:  128 | Hat switch:   8 | Button: 0  0  0  0  0  0  0  0  0  0  0  0  0  0  0  0 | # 
E: 000003.024073 8 1a 34 80 80 08 00 00 00
#  X:   30 | Y:   46 | Z:  128 | Rz:  128 | Hat switch:   8 | Button: 0  0  0  0  0  0  0  0  0  0  0  0  0  0  0  0 | # 
E: 000003.032397 8 1e 2e 80 80 08 00 00 00
#  X:   35 | Y:   41 | Z:  128 | Rz:  128 | Hat switch:   8 | Button: 0  0  0  0  0  0  0  0  0  0  0  0  0  0  0  0 | # 
E: 000003.040158 8 23 29 80 80 08 00 00 00
#  X:   38 | Y:   38 | Z:  128 | Rz:  128 | Hat switch:   8 | Button: 0  0  0  0  0  0  0  0  0  0  0  0  0  0  0  0 | # 
E: 000003.048062 8 26 26 80 80 08 00 00 00
#  X:   42 | Y:   34 | Z:  128 | Rz:  128 | Hat switch:   8 | Button: 0  0  0  0  0  0  0  0  0  0  0  0  0  0  0  0 | # 
E: 000003.056383 8 2a 22 80 80 08 00 00 00
#  X:   46 | Y:   30 | Z:  128 | Rz:  128 | Hat switch:   8 | Button: 0  0  0  0  0  0  0  0  0  0  0  0  0  0  0  0 | # 
E: 000003.064156 8 2e 1e 80 80 08 00 00 00
#  X:   51 | Y:   27 | Z:  128 | Rz:  128 | Hat switch:   8 | Button: 0  0  0  0  0  0  0  0  0  0  0  0  0  0  0  0 | # 
E: 000003.080109 8 33 1b 80 80 08 00 00 00
#  X:   55 | Y:   24 | Z:  128 | Rz:  128 | Hat switch:   8 | Button: 0  0  0  0  0  0  0  0  0  0  0  0  0  0  0  0 | # 
E: 000003.088107 8 37 18 80 80 08 00 00 00
#  X:   60 | Y:   21 | Z:  128 | Rz:  128 | Hat switch:   8 | Button: 0  0  0  0  0  0  0  0  0  0  0  0  0  0  0  0 | # 
E: 000003.096158 8 3c 15 80 80 08 00 00 00
#  X:   65 | Y:   17 | Z:  128 | Rz:  128 | Hat switch:   8 | Button: 0  0  0  0  0  0  0  0  0  0  0  0  0  0  0  0 | # 
E: 000003.104391 8 41 11 80 80 08 00 00 00
#  X:   71 | Y:   14 | Z:  128 | Rz:  128 | Hat switch:   8 | Button: 0  0  0  0  0  0  0  0  0  0  0  0  0  0  0  0 | # 
E: 000003.112103 8 47 0e 80 80 08 00 00 00
#  X:   78 | Y:   11 | Z:  128 | Rz:  128 | Hat switch:   8 | Button: 0  0  0  0  0  0  0  0  0  0  0  0  0  0  0  0 | # 
E: 000003.120167 8 4e 0b 80 80 08 00 00 00
#  X:   85 | Y:    8 | Z:  128 | Rz:  128 | Hat switch:   8 | Button: 0  0  0  0  0  0  0  0  0  0  0  0  0  0  0  0 | # 
E: 000003.128237 8 55 08 80 80 08 00 00 00
#  X:   92 | Y:    6 | Z:  128 | Rz:  128 | Hat switch:   8 | Button: 0  0  0  0  0  0  0  0  0  0  0  0  0  0  0  0 | # 
E: 000003.136487 8 5c 06 80 80 08 00 00 00
#  X:  100 | Y:    4 | Z:  128 | Rz:  128 | Hat switch:   8 | Button: 0  0  0  0  0  0  0  0  0  0  0  0  0  0  0  0 | # 
E: 000003.152226 8 64 04 80 80 08 00 00 00
#  X:  109 | Y:    2 | Z:  128 | Rz:  128 | Hat switch:   8 | Button: 0  0  0  0  0  0  0  0  0  0  0  0  0  0  0  0 | # 
E: 000003.160165 8 6d 02 80 80 08 00 00 00
#  X:  119 | Y:    1 | Z:  128 | Rz:  128 | Hat switch:   8 | Button: 0  0  0  0  0  0  0  0  0  0  0  0  0  0  0  0 | # 
E: 000003.168696 8 77 01 80 80 08 00 00 00
#  X:  130 | Y:    1 | Z:  128 | Rz:  128 | Hat switch:   8 | Button: 0  0  0  0  0  0  0  0  0  0  0  0  0  0  0  0 | # 
E: 000003.176170 8 82 01 80 80 08 00 00 00
#  X:  141 | Y:    1 | Z:  128 | Rz:  128 | Hat switch:   8 | Button: 0  0  0  0  0  0  0  0  0  0  0  0  0  0  0  0 | # 
E: 000003.184297 8 8d 01 80 80 08 00 00 00
#  X:  153 | Y:    3 | Z:  128 | Rz:  128 | Hat switch:   8 | Button: 0  0  0  0  0  0  0  0  0  0  0  0  0  0  0  0 | # 
E: 000003.192045 8 99 03 80 80 08 00 00 00
#  X:  165 | Y:    6 | Z:  128 | Rz:  128 | Hat switch:   8 | Button: 0  0  0  0  0  0  0  0  0  0  0  0  0  0  0  0 | # 
E: 000003.200250 8 a5 06 80 80 08 00 00 00
#  X:  177 | Y:   10 | Z:  128 | Rz:  128 | Hat switch:   8 | Button: 0  0  0  0  0  0  0  0  0  0  0  0  0  0  0  0 | # 
E: 000003.208062 8 b1 0a 80 80 08 00 00 00
#  X:  189 | Y:   16 | Z:  128 | Rz:  128 | Hat switch:   8 | Button: 0  0  0  0  0  0  0  0  0  0  0  0  0  0  0  0 | # 
E: 000003.224259 8 bd 10 80 80 08 00 00 00
#  X:  200 | Y:   23 | Z:  128 | Rz:  128 | Hat switch:   8 | Button: 0  0  0  0  0  0  0  0  0  0  0  0  0  0  0  0 | # 
E: 000003.232386 8 c8 17 80 80 08 00 00 00
#  X:  209 | Y:   30 | Z:  128 | Rz:  128 | Hat switch:   8 | Button: 0  0  0  0  0  0  0  0  0  0  0  0  0  0  0  0 | # 
E: 000003.240083 8 d1 1e 80 80 08 00 00 00
#  X:  217 | Y:   37 | Z:  128 | Rz:  128 | Hat switch:   8 | Button: 0  0  0  0  0  0  0  0  0  0  0  0  0  0  0  0 | # 
E: 000003.248147 8 d9 25 80 80 08 00 00 00
#  X:  224 | Y:   44 | Z:  128 | Rz:  128 | Hat switch:   8 | Button: 0  0  0  0  0  0  0  0  0  0  0  0  0  0  0  0 | # 
E: 000003.256436 8 e0 2c 80 80 08 00 00 00
#  X:  230 | Y:   52 | Z:  128 | Rz:  128 | Hat switch:   8 | Button: 0  0  0  0  0  0  0  0  0  0  0  0  0  0  0  0 | # 
E: 000003.264461 8 e6 34 80 80 08 00 00 00
#  X:  236 | Y:   60 | Z:  128 | Rz:  128 | Hat switch:   8 | Button: 0  0  0  0  0  0  0  0  0  0  0  0  0  0  0  0 | # 
E: 000003.272076 8 ec 3c 80 80 08 00 00 00
#  X:  240 | Y:   68 | Z:  128 | Rz:  128 | Hat switch:   8 | Button: 0  0  0  0  0  0  0  0  0  0  0  0  0  0  0  0 | # 
E: 000003.280023 8 f0 44 80 80 08 00 00 00
#  X:  244 | Y:   75 | Z:  128 | Rz:  128 | Hat switch:   8 | Button: 0  0  0  0  0  0  0  0  0  0  0  0  0  0  0  0 | # 
E: 000003.296114 8 f4 4b 80 80 08 00 00 00
#  X:  247 | Y:   83 | Z:  128 | Rz:  128 | Hat switch:   8 | Button: 0  0  0  0  0  0  0  0  0  0  0  0  0  0  0  0 | # 
E: 000003.304100 8 f7 53 80 80 08 00 00 00
#  X:  250 | Y:   91 | Z:  128 | Rz:  128 | Hat switch:   8 | Button: 0  0  0  0  0  0  0  0  0  0  0  0  0  0  0  0 | # 
E: 000003.312009 8 fa 5b 80 80 08 00 00 00
#  X:  252 | Y:   99 | Z:  128 | Rz:  128 | Hat switch:   8 | Button: 0  0  0  0  0  0  0  0  0  0  0  0  0  0  0  0 | # 
E: 000003.320156 8 fc 63 80 80 08 00 00 00
#  X:  254 | Y:  107 | Z:  128 | Rz:  128 | Hat switch:   8 | Button: 0  0  0  0  0  0  0  0  0  0  0  0  0  0  0  0 | # 
E: 000003.328204 8 fe 6b 80 80 08 00 00 00
#  X:  255 | Y:  116 | Z:  128 | Rz:  128 | Hat switch:   8 | Button: 0  0  0  0  0  0  0  0  0  0  0  0  0  0  0  0 | # 
E: 000003.336084 8 ff 74 80 80 08 00 00 00
#  X:  255 | Y:  125 | Z:  128 | Rz:  128 | Hat switch:   8 | Button: 0  0  0  0  0  0  0  0  0  0  0  0  0  0  0  0 | # 
E: 000003.344017 8 ff 7d 80 80 08 00 00 00
#  X:  255 | Y:  133 | Z:  128 | Rz:  128 | Hat switch:   8 | Button: 0  0  0  0  0  0  0  0  0  0  0  0  0  0  0  0 | # 
E: 000003.352183 8 ff 85 80 80 08 00 00 00
#  X:  255 | Y:  143 | Z:  128 | Rz:  128 | Hat switch:   8 | Button: 0  0  0  0  0  0  0  0  0  0  0  0  0  0  0  0 | # 
E: 000003.368133 8 ff 8f 80 80 08 00 00 00
#  X:  253 | Y:  152 | Z:  128 | Rz:  128 | Hat switch:   8 | Button: 0  0  0  0  0  0  0  0  0  0  0  0  0  0  0  0 | # 
E: 000003.376067 8 fd 98 80 80 08 00 00 00
#  X:  250 | Y:  165 | Z:  128 | Rz:  128 | Hat switch:   8 | Button: 0  0  0  0  0  0  0  0  0  0  0  0  0  0  0  0 | # 
E: 000003.384491 8 fa a5 80 80 08 00 00 00
#  X:  246 | Y:  176 | Z:  128 | Rz:  128 | Hat switch:   8 | Button: 0  0  0  0  0  0  0  0  0  0  0  0  0  0  0  0 | # 
E: 000003.392197 8 f6 b0 80 80 08 00 00 00
#  X:  239 | Y:  190 | Z:  128 | Rz:  128 | Hat switch:   8 | Button: 0  0  0  0  0  0  0  0  0  0  0  0  0  0  0  0 | # 
E: 000003.400189 8 ef be 80 80 08 00 00 00
#  X:  230 | Y:  204 | Z:  128 | Rz:  128 | Hat switch:   8 | Button: 0  0  0  0  0  0  0  0  0  0  0  0  0  0  0  0 | # 
E: 000003.408155 8 e6 cc 80 80 08 00 00 00
#  X:  219 | Y:  217 | Z:  128 | Rz:  128 | Hat switch:   8 | Button: 0  0  0  0  0  0  0  0  0  0  0  0  0  0  0  0 | # 
E: 000003.416272 8 db d9 80 80 08 00 00 00
#  X:  208 | Y:  227 | Z:  128 | Rz:  128 | Hat switch:   8 | Button: 0  0  0  0  0  0  0  0  0  0  0  0  0  0  0  0 | # 
E: 000003.424433 8 d0 e3 80 80 08 00 00 00
#  X:  197 | Y:  235 | Z:  128 | Rz:  128 | Hat switch:   8 | Button: 0  0  0  0  0  0  0  0  0  0  0  0  0  0  0  0 | # 
E: 000003.440298 8 c5 eb 80 80 08 00 00 00
#  X:  185 | Y:  242 | Z:  128 | Rz:  128 | Hat switch:   8 | Button: 0  0  0  0  0  0  0  0  0  0  0  0  0  0  0  0 | # 
E: 000003.448156 8 b9 f2 80 80 08 00 00 00
#  X:  174 | Y:  247 | Z:  128 | Rz:  128 | Hat switch:   8 | Button: 0  0  0  0  0  0  0  0  0  0  0  0  0  0  0  0 | # 
E: 000003.456110 8 ae f7 80 80 08 00 00 00
#  X:  164 | Y:  250 | Z:  128 | Rz:  128 | Hat switch:   8 | Button: 0  0  0  0  0  0  0  0  0  0  0  0  0  0  0  0 | # 
E: 000003.464077 8 a4 fa 80 80 08 00 00 00
#  X:  154 | Y:  253 | Z:  128 | Rz:  128 | Hat switch:   8 | Button: 0  0  0  0  0  0  0  0  0  0  0  0  0  0  0  0 | # 
E: 000003.472312 8 9a fd 80 80 08 00 00 00
#  X:  144 | Y:  254 | Z:  128 | Rz:  128 | Hat switch:   8 | Button: 0  0  0  0  0  0  0  0  0  0  0  0  0  0  0  0 | # 
E: 000003.480116 8 90 fe 80 80 08 00 00 00
#  X:  134 | Y:  255 | Z:  128 | Rz:  128 | Hat switch:   8 | Button: 0  0  0  0  0  0  0  0  0  0  0  0  0  0  0  0 | # 
E: 000003.488151 8 86 ff 80 80 08 00 00 00
#  X:  125 | Y:  255 | Z:  128 | Rz:  128 | Hat switch:   8 | Button: 0  0  0  0  0  0  0  0  0  0  0  0  0  0  0  0 | # 
E: 000003.496071 8 7d ff 80 80 08 00 00 00
#  X:  115 | Y:  255 | Z:  128 | Rz:  128 | Hat switch:   8 | Button: 0  0  0  0  0  0  0  0  0  0  0  0  0  0  0  0 | # 
E: 000003.512192 8 73 ff 80 80 08 00 00 00
#  X:  106 | Y:  254 | Z:  128 | Rz:  128 | Hat switch:   8 | Button: 0  0  0  0  0  0  0  0  0  0  0  0  0  0  0  0 | # 
E: 000003.520152 8 6a fe 80 80 08 00 00 00
#  X:   99 | Y:  252 | Z:  128 | Rz:  128 | Hat switch:   8 | Button: 0  0  0  0  0  0  0  0  0  0  0  0  0  0  0  0 | # 
E: 000003.528371 8 63 fc 80 80 08 00 00 00
#  X:   93 | Y:  251 | Z:  128 | Rz:  128 | Hat switch:   8 | Button: 0  0  0  0  0  0  0  0  0  0  0  0  0  0  0  0 | # 
E: 000003.536200 8 5d fb 80 80 08 00 00 00
#  X:   88 | Y:  249 | Z:  128 | Rz:  128 | Hat switch:   8 | Button: 0  0  0  0  0  0  0  0  0  0  0  0  0  0  0  0 | # 
E: 000003.544232 8 58 f9 80 80 08 00 00 00
#  X:   83 | Y:  247 | Z:  128 | Rz:  128 | Hat switch:   8 | Button: 0  0  0  0  0  0  0  0  0  0  0  0  0  0  0  0 | # 
E: 000003.552095 8 53 f7 80 80 08 00 00 00
#  X:   77 | Y:  245 | Z:  128 | Rz:  128 | Hat switch:   8 | Button: 0  0  0  0  0  0  0  0  0  0  0  0  0  0  0  0 | # 
E: 000003.560260 8 4d f5 80 80 08 00 00 00
#  X:   71 | Y:  242 | Z:  128 | Rz:  128 | Hat switch:   8 | Button: 0  0  0  0  0  0  0  0  0  0  0  0  0  0  0  0 | # 
E: 000003.568281 8 47 f2 80 80 08 00 00 00
#  X:   65 | Y:  239 | Z:  128 | Rz:  128 | Hat switch:   8 | Button: 0  0  0  0  0  0  0  0  0  0  0  0  0  0  0  0 | # 
E: 000003.584308 8 41 ef 80 80 08 00 00 00
#  X:   59 | Y:  235 | Z:  128 | Rz:  128 | Hat switch:   8 | Button: 0  0  0  0  0  0  0  0  0  0  0  0  0  0  0  0 | # 
E: 000003.592117 8 3b eb 80 80 08 00 00 00
#  X:   53 | Y:  231 | Z:  128 | Rz:  128 | Hat switch:   8 | Button: 0  0  0  0  0  0  0  0  0  0  0  0  0  0  0  0 | # 
E: 000003.600169 8 35 e7 80 80 08 00 00 00
#  X:   47 | Y:  226 | Z:  128 | Rz:  128 | Hat switch:   8 | Button: 0  0  0  0  0  0  0  0  0  0  0  0  0  0  0  0 | # 
E: 000003.608232 8 2f e2 80 80 08 00 00 00
#  X:   40 | Y:  220 | Z:  128 | Rz:  128 | Hat switch:   8 | Button: 0  0  0  0  0  0  0  0  0  0  0  0  0  0  0  0 | # 
E: 000003.616137 8 28 dc 80 80 08 00 00 00
#  X:   34 | Y:  214 | Z:  128 | Rz:  128 | Hat switch:   8 | Button: 0  0  0  0  0  0  0  0  0  0  0  0  0  0  0  0 | # 
E: 000003.624161 8 22 d6 80 80 08 00 00 00
#  X:   27 | Y:  205 | Z:  128 | Rz:  128 | Hat switch:   8 | Button: 0  0  0  0  0  0  0  0  0  0  0  0  0  0  0  0 | # 
E: 000003.632270 8 1b cd 80 80 08 00 00 00
#  X:   20 | Y:  195 | Z:  128 | Rz:  128 | Hat switch:   8 | Button: 0  0  0  0  0  0  0  0  0  0  0  0  0  0  0  0 | # 
E: 000003.640295 8 14 c3 80 80 08 00 00 00
#  X:   12 | Y:  181 | Z:  128 | Rz:  128 | Hat switch:   8 | Button: 0  0  0  0  0  0  0  0  0  0  0  0  0  0  0  0 | # 
E: 000003.656283 8 0c b5 80 80 08 00 00 00
#  X:    7 | Y:  168 | Z:  128 | Rz:  128 | Hat switch:   8 | Button: 0  0  0  0  0  0  0  0  0  0  0  0  0  0  0  0 | # 
E: 000003.664170 8 07 a8 80 80 08 00 00 00
#  X:    3 | Y:  152 | Z:  128 | Rz:  128 | Hat switch:   8 | Button: 0  0  0  0  0  0  0  0  0  0  0  0  0  0  0  0 | # 
E: 000003.672222 8 03 98 80 80 08 00 00 00
#  X:    1 | Y:  135 | Z:  128 | Rz:  128 | Hat switch:   8 | Button: 0  0  0  0  0  0  0  0  0  0  0  0  0  0  0  0 | # 
E: 000003.680076 8 01 87 80 80 08 00 00 00
#  X:    1 | Y:  118 | Z:  128 | Rz:  128 | Hat switch:   8 | Button: 0  0  0  0  0  0  0  0  0  0  0  0  0  0  0  0 | # 
E: 000003.688166 8 01 76 80 80 08 00 00 00
#  X:    4 | Y:  100 | Z:  128 | Rz:  128 | Hat switch:   8 | Button: 0  0  0  0  0  0  0  0  0  0  0  0  0  0  0  0 | # 
E: 000003.696171 8 04 64 80 80 08 00 00 00
#  X:    8 | Y:   86 | Z:  128 | Rz:  128 | Hat switch:   8 | Button: 0  0  0  0  0  0  0  0  0  0  0  0  0  0  0  0 | # 
E: 000003.704206 8 08 56 80 80 08 00 00 00
#  X:   14 | Y:   72 | Z:  128 | Rz:  128 | Hat switch:   8 | Button: 0  0  0  0  0  0  0  0  0  0  0  0  0  0  0  0 | # 
E: 000003.712334 8 0e 48 80 80 08 00 00 00
#  X:   21 | Y:   59 | Z:  128 | Rz:  128 | Hat switch:   8 | Button: 0  0  0  0  0  0  0  0  0  0  0  0  0  0  0  0 | # 
E: 000003.728282 8 15 3b 80 80 08 00 00 00
#  X:   29 | Y:   48 | Z:  128 | Rz:  128 | Hat switch:   8 | Button: 0  0  0  0  0  0  0  0  0  0  0  0  0  0  0  0 | # 
E: 000003.736174 8 1d 30 80 80 08 00 00 00
#  X:   38 | Y:   38 | Z:  128 | Rz:  128 | Hat switch:   8 | Button: 0  0  0  0  0  0  0  0  0  0  0  0  0  0  0  0 | # 
E: 000003.744166 8 26 26 80 80 08 00 00 00
#  X:   47 | Y:   30 | Z:  128 | Rz:  128 | Hat switch:   8 | Button: 0  0  0  0  0  0  0  0  0  0  0  0  0  0  0  0 | # 
E: 000003.752285 8 2f 1e 80 80 08 00 00 00
#  X:   56 | Y:   23 | Z:  128 | Rz:  128 | Hat switch:   8 | Button: 0  0  0  0  0  0  0  0  0  0  0  0  0  0  0  0 | # 
E: 000003.760289 8 38 17 80 80 08 00 00 00
#  X:   63 | Y:   18 | Z:  128 | Rz:  128 | Hat switch:   8 | Button: 0  0  0  0  0  0  0  0  0  0  0  0  0  0  0  0 | # 
E: 000003.768072 8 3f 12 80 80 08 00 00 00
#  X:   69 | Y:   15 | Z:  128 | Rz:  128 | Hat switch:   8 | Button: 0  0  0  0  0  0  0  0  0  0  0  0  0  0  0  0 | # 
E: 000003.776287 8 45 0f 80 80 08 00 00 00
#  X:   73 | Y:   13 | Z:  128 | Rz:  128 | Hat switch:   8 | Button: 0  0  0  0  0  0  0  0  0  0  0  0  0  0  0  0 | # 
E: 000003.784292 8 49 0d 80 80 08 00 00 00
#  X:   76 | Y:   12 | Z:  128 | Rz:  128 | Hat switch:   8 | Button: 0  0  0  0  0  0  0  0  0  0  0  0  0  0  0  0 | # 
E: 000003.800160 8 4c 0c 80 80 08 00 00 00
#  X:   79 | Y:   11 | Z:  128 | Rz:  128 | Hat switch:   8 | Button: 0  0  0  0  0  0  0  0  0  0  0  0  0  0  0  0 | # 
E: 000003.808096 8 4f 0b 80 80 08 00 00 00
#  X:   81 | Y:    9 | Z:  128 | Rz:  128 | Hat switch:   8 | Button: 0  0  0  0  0  0  0  0  0  0  0  0  0  0  0  0 | # 
E: 000003.816092 8 51 09 80 80 08 00 00 00
#  X:   85 | Y:    8 | Z:  128 | Rz:  128 | Hat switch:   8 | Button: 0  0  0  0  0  0  0  0  0  0  0  0  0  0  0  0 | # 
E: 000003.824370 8 55 08 80 80 08 00 00 00
#  X:   91 | Y:    6 | Z:  128 | Rz:  128 | Hat switch:   8 | Button: 0  0  0  0  0  0  0  0  0  0  0  0  0  0  0  0 | # 
E: 000003.832238 8 5b 06 80 80 08 00 00 00
#  X:   96 | Y:    5 | Z:  128 | Rz:  128 | Hat switch:   8 | Button: 0  0  0  0  0  0  0  0  0  0  0  0  0  0  0  0 | # 
E: 000003.840141 8 60 05 80 80 08 00 00 00
#  X:  112 | Y:   68 | Z:  128 | Rz:  128 | Hat switch:   8 | Button: 0  0  0  0  0  0  0  0  0  0  0  0  0  0  0  0 | # 
E: 000003.848210 8 70 44 80 80 08 00 00 00
#  X:  123 | Y:  105 | Z:  128 | Rz:  128 | Hat switch:   8 | Button: 0  0  0  0  0  0  0  0  0  0  0  0  0  0  0  0 | # 
E: 000003.856594 8 7b 69 80 80 08 00 00 00
#  X:  127 | Y:  123 | Z:  128 | Rz:  128 | Hat switch:   8 | Button: 0  0  0  0  0  0  0  0  0  0  0  0  0  0  0  0 | # 
E: 000003.872226 8 7f 7b 80 80 08 00 00 00
#  X:  128 | Y:  128 | Z:  128 | Rz:  128 | Hat switch:   8 | Button: 0  0  0  0  0  0  0  0  0  0  0  0  0  0  0  0 | # 
E: 000003.880070 8 80 80 80 80 08 00 00 00
#  X:  128 | Y:  128 | Z:  122 | Rz:  128 | Hat switch:   8 | Button: 0  0  0  0  0  0  0  0  0  0  0  0  0  0  0  0 | # 
E: 000004.424244 8 80 80 7a 80 08 00 00 00
#  X:  128 | Y:  128 | Z:  116 | Rz:  129 | Hat switch:   8 | Button: 0  0  0  0  0  0  0  0  0  0  0  0  0  0  0  0 | # 
E: 000004.432160 8 80 80 74 81 08 00 00 00
#  X:  128 | Y:  128 | Z:  108 | Rz:  130 | Hat switch:   8 | Button: 0  0  0  0  0  0  0  0  0  0  0  0  0  0  0  0 | # 
E: 000004.448240 8 80 80 6c 82 08 00 00 00
#  X:  128 | Y:  128 | Z:   99 | Rz:  130 | Hat switch:   8 | Button: 0  0  0  0  0  0  0  0  0  0  0  0  0  0  0  0 | # 
E: 000004.456154 8 80 80 63 82 08 00 00 00
#  X:  128 | Y:  128 | Z:   89 | Rz:  131 | Hat switch:   8 | Button: 0  0  0  0  0  0  0  0  0  0  0  0  0  0  0  0 | # 
E: 000004.464127 8 80 80 59 83 08 00 00 00
#  X:  128 | Y:  128 | Z:   79 | Rz:  130 | Hat switch:   8 | Button: 0  0  0  0  0  0  0  0  0  0  0  0  0  0  0  0 | # 
E: 000004.472308 8 80 80 4f 82 08 00 00 00
#  X:  128 | Y:  128 | Z:   67 | Rz:  130 | Hat switch:   8 | Button: 0  0  0  0  0  0  0  0  0  0  0  0  0  0  0  0 | # 
E: 000004.480478 8 80 80 43 82 08 00 00 00
#  X:  128 | Y:  128 | Z:   51 | Rz:  130 | Hat switch:   8 | Button: 0  0  0  0  0  0  0  0  0  0  0  0  0  0  0  0 | # 
E: 000004.488191 8 80 80 33 82 08 00 00 00
#  X:  128 | Y:  128 | Z:   37 | Rz:  129 | Hat switch:   8 | Button: 0  0  0  0  0  0  0  0  0  0  0  0  0  0  0  0 | # 
E: 000004.496222 8 80 80 25 81 08 00 00 00
#  X:  128 | Y:  128 | Z:   17 | Rz:  129 | Hat switch:   8 | Button: 0  0  0  0  0  0  0  0  0  0  0  0  0  0  0  0 | # 
E: 000004.504279 8 80 80 11 81 08 00 00 00
#  X:  128 | Y:  128 | Z:    1 | Rz:  128 | Hat switch:   8 | Button: 0  0  0  0  0  0  0  0  0  0  0  0  0  0  0  0 | # 
E: 000004.520110 8 80 80 01 80 08 00 00 00
#  X:  128 | Y:  128 | Z:    1 | Rz:  127 | Hat switch:   8 | Button: 0  0  0  0  0  0  0  0  0  0  0  0  0  0  0  0 | # 
E: 000004.536531 8 80 80 01 7f 08 00 00 00
#  X:  128 | Y:  128 | Z:    1 | Rz:  125 | Hat switch:   8 | Button: 0  0  0  0  0  0  0  0  0  0  0  0  0  0  0  0 | # 
E: 000004.544367 8 80 80 01 7d 08 00 00 00
#  X:  128 | Y:  128 | Z:    1 | Rz:  121 | Hat switch:   8 | Button: 0  0  0  0  0  0  0  0  0  0  0  0  0  0  0  0 | # 
E: 000004.552165 8 80 80 01 79 08 00 00 00
#  X:  128 | Y:  128 | Z:    1 | Rz:  117 | Hat switch:   8 | Button: 0  0  0  0  0  0  0  0  0  0  0  0  0  0  0  0 | # 
E: 000004.560143 8 80 80 01 75 08 00 00 00
#  X:  128 | Y:  128 | Z:    2 | Rz:  112 | Hat switch:   8 | Button: 0  0  0  0  0  0  0  0  0  0  0  0  0  0  0  0 | # 
E: 000004.568142 8 80 80 02 70 08 00 00 00
#  X:  128 | Y:  128 | Z:    3 | Rz:  105 | Hat switch:   8 | Button: 0  0  0  0  0  0  0  0  0  0  0  0  0  0  0  0 | # 
E: 000004.576259 8 80 80 03 69 08 00 00 00
#  X:  128 | Y:  128 | Z:    4 | Rz:   99 | Hat switch:   8 | Button: 0  0  0  0  0  0  0  0  0  0  0  0  0  0  0  0 | # 
E: 000004.592252 8 80 80 04 63 08 00 00 00
#  X:  128 | Y:  128 | Z:    6 | Rz:   92 | Hat switch:   8 | Button: 0  0  0  0  0  0  0  0  0  0  0  0  0  0  0  0 | # 
E: 000004.600261 8 80 80 06 5c 08 00 00 00
#  X:  128 | Y:  128 | Z:    8 | Rz:   85 | Hat switch:   8 | Button: 0  0  0  0  0  0  0  0  0  0  0  0  0  0  0  0 | # 
E: 000004.608201 8 80 80 08 55 08 00 00 00
#  X:  128 | Y:  128 | Z:   11 | Rz:   79 | Hat switch:   8 | Button: 0  0  0  0  0  0  0  0  0  0  0  0  0  0  0  0 | # 
E: 000004.616221 8 80 80 0b 4f 08 00 00 00
#  X:  128 | Y:  128 | Z:   13 | Rz:   73 | Hat switch:   8 | Button: 0  0  0  0  0  0  0  0  0  0  0  0  0  0  0  0 | # 
E: 000004.624098 8 80 80 0d 49 08 00 00 00
#  X:  128 | Y:  128 | Z:   16 | Rz:   67 | Hat switch:   8 | Button: 0  0  0  0  0  0  0  0  0  0  0  0  0  0  0  0 | # 
E: 000004.632501 8 80 80 10 43 08 00 00 00
#  X:  128 | Y:  128 | Z:   20 | Rz:   61 | Hat switch:   8 | Button: 0  0  0  0  0  0  0  0  0  0  0  0  0  0  0  0 | # 
E: 000004.640265 8 80 80 14 3d 08 00 00 00
#  X:  128 | Y:  128 | Z:   23 | Rz:   55 | Hat switch:   8 | Button: 0  0  0  0  0  0  0  0  0  0  0  0  0  0  0  0 | # 
E: 000004.648164 8 80 80 17 37 08 00 00 00
#  X:  128 | Y:  128 | Z:   28 | Rz:   50 | Hat switch:   8 | Button: 0  0  0  0  0  0  0  0  0  0  0  0  0  0  0  0 | # 
E: 000004.664250 8 80 80 1c 32 08 00 00 00
#  X:  128 | Y:  128 | Z:   32 | Rz:   45 | Hat switch:   8 | Button: 0  0  0  0  0  0  0  0  0  0  0  0  0  0  0  0 | # 
E: 000004.672197 8 80 80 20 2d 08 00 00 00
#  X:  128 | Y:  128 | Z:   36 | Rz:   40 | Hat switch:   8 | Button: 0  0  0  0  0  0  0  0  0  0  0  0  0  0  0  0 | # 
E: 000004.680372 8 80 80 24 28 08 00 00 00
#  X:  128 | Y:  128 | Z:   41 | Rz:   35 | Hat switch:   8 | Button: 0  0  0  0  0  0  0  0  0  0  0  0  0  0  0  0 | # 
E: 000004.688246 8 80 80 29 23 08 00 00 00
#  X:  128 | Y:  128 | Z:   45 | Rz:   31 | Hat switch:   8 | Button: 0  0  0  0  0  0  0  0  0  0  0  0  0  0  0  0 | # 
E: 000004.696146 8 80 80 2d 1f 08 00 00 00
#  X:  128 | Y:  128 | Z:   51 | Rz:   27 | Hat switch:   8 | Button: 0  0  0  0  0  0  0  0  0  0  0  0  0  0  0  0 | # 
E: 000004.704253 8 80 80 33 1b 08 00 00 00
#  X:  128 | Y:  128 | Z:   56 | Rz:   23 | Hat switch:   8 | Button: 0  0  0  0  0  0  0  0  0  0  0  0  0  0  0  0 | # 
E: 000004.712231 8 80 80 38 17 08 00 00 00
#  X:  128 | Y:  128 | Z:   63 | Rz:   19 | Hat switch:   8 | Button: 0  0  0  0  0  0  0  0  0  0  0  0  0  0  0  0 | # 
E: 000004.720272 8 80 80 3f 13 08 00 00 00
#  X:  128 | Y:  128 | Z:   68 | Rz:   16 | Hat switch:   8 | Button: 0  0  0  0  0  0  0  0  0  0  0  0  0  0  0  0 | # 
E: 000004.736181 8 80 80 44 10 08 00 00 00
#  X:  128 | Y:  128 | Z:   75 | Rz:   12 | Hat switch:   8 | Button: 0  0  0  0  0  0  0  0  0  0  0  0  0  0  0  0 | # 
E: 000004.744099 8 80 80 4b 0c 08 00 00 00
#  X:  128 | Y:  128 | Z:   80 | Rz:   10 | Hat switch:   8 | Button: 0  0  0  0  0  0  0  0  0  0  0  0  0  0  0  0 | # 
E: 000004.752097 8 80 80 50 0a 08 00 00 00
#  X:  128 | Y:  128 | Z:   85 | Rz:    8 | Hat switch:   8 | Button: 0  0  0  0  0  0  0  0  0  0  0  0  0  0  0  0 | # 
E: 000004.760081 8 80 80 55 08 08 00 00 00
#  X:  128 | Y:  128 | Z:   92 | Rz:    6 | Hat switch:   8 | Button: 0  0  0  0  0  0  0  0  0  0  0  0  0  0  0  0 | # 
E: 000004.768208 8 80 80 5c 06 08 00 00 00
#  X:  128 | Y:  128 | Z:   99 | Rz:    4 | Hat switch:   8 | Button: 0  0  0  0  0  0  0  0  0  0  0  0  0  0  0  0 | # 
E: 000004.776229 8 80 80 63 04 08 00 00 00
#  X:  128 | Y:  128 | Z:  105 | Rz:    3 | Hat switch:   8 | Button: 0  0  0  0  0  0  0  0  0  0  0  0  0  0  0  0 | # 
E: 000004.784187 8 80 80 69 03 08 00 00 00
#  X:  128 | Y:  128 | Z:  112 | Rz:    2 | Hat switch:   8 | Button: 0  0  0  0  0  0  0  0  0  0  0  0  0  0  0  0 | # 
E: 000004.792229 8 80 80 70 02 08 00 00 00
#  X:  128 | Y:  128 | Z:  117 | Rz:    1 | Hat switch:   8 | Button: 0  0  0  0  0  0  0  0  0  0  0  0  0  0  0  0 | # 
E: 000004.808174 8 80 80 75 01 08 00 00 00
#  X:  128 | Y:  128 | Z:  125 | Rz:    1 | Hat switch:   8 | Button: 0  0  0  0  0  0  0  0  0  0  0  0  0  0  0  0 | # 
E: 000004.816082 8 80 80 7d 01 08 00 00 00
#  X:  128 | Y:  128 | Z:  131 | Rz:    1 | Hat switch:   8 | Button: 0  0  0  0  0  0  0  0  0  0  0  0  0  0  0  0 | # 
E: 000004.824680 8 80 80 83 01 08 00 00 00
#  X:  128 | Y:  128 | Z:  136 | Rz:    1 | Hat switch:   8 | Button: 0  0  0  0  0  0  0  0  0  0  0  0  0  0  0  0 | # 
E: 000004.832258 8 80 80 88 01 08 00 00 00
#  X:  128 | Y:  128 | Z:  143 | Rz:    1 | Hat switch:   8 | Button: 0  0  0  0  0  0  0  0  0  0  0  0  0  0  0  0 | # 
E: 000004.840422 8 80 80 8f 01 08 00 00 00
#  X:  128 | Y:  128 | Z:  149 | Rz:    2 | Hat switch:   8 | Button: 0  0  0  0  0  0  0  0  0  0  0  0  0  0  0  0 | # 
E: 000004.848195 8 80 80 95 02 08 00 00 00
#  X:  128 | Y:  128 | Z:  155 | Rz:    4 | Hat switch:   8 | Button: 0  0  0  0  0  0  0  0  0  0  0  0  0  0  0  0 | # 
E: 000004.856511 8 80 80 9b 04 08 00 00 00
#  X:  128 | Y:  128 | Z:  161 | Rz:    5 | Hat switch:   8 | Button: 0  0  0  0  0  0  0  0  0  0  0  0  0  0  0  0 | # 
E: 000004.864196 8 80 80 a1 05 08 00 00 00
#  X:  128 | Y:  128 | Z:  167 | Rz:    7 | Hat switch:   8 | Button: 0  0  0  0  0  0  0  0  0  0  0  0  0  0  0  0 | # 
E: 000004.880216 8 80 80 a7 07 08 00 00 00
#  X:  128 | Y:  128 | Z:  172 | Rz:    9 | Hat switch:   8 | Button: 0  0  0  0  0  0  0  0  0  0  0  0  0  0  0  0 | # 
E: 000004.888166 8 80 80 ac 09 08 00 00 00
#  X:  128 | Y:  128 | Z:  178 | Rz:   11 | Hat switch:   8 | Button: 0  0  0  0  0  0  0  0  0  0  0  0  0  0  0  0 | # 
E: 000004.896155 8 80 80 b2 0b 08 00 00 00
#  X:  128 | Y:  128 | Z:  183 | Rz:   13 | Hat switch:   8 | Button: 0  0  0  0  0  0  0  0  0  0  0  0  0  0  0  0 | # 
E: 000004.904204 8 80 80 b7 0d 08 00 00 00
#  X:  128 | Y:  128 | Z:  189 | Rz:   16 | Hat switch:   8 | Button: 0  0  0  0  0  0  0  0  0  0  0  0  0  0  0  0 | # 
E: 000004.912186 8 80 80 bd 10 08 00 00 00
#  X:  128 | Y:  128 | Z:  194 | Rz:   19 | Hat switch:   8 | Button: 0  0  0  0  0  0  0  0  0  0  0  0  0  0  0  0 | # 
E: 000004.920165 8 80 80 c2 13 08 00 00 00
#  X:  128 | Y:  128 | Z:  199 | Rz:   22 | Hat switch:   8 | Button: 0  0  0  0  0  0  0  0  0  0  0  0  0  0  0  0 | # 
E: 000004.928104 8 80 80 c7 16 08 00 00 00
#  X:  128 | Y:  128 | Z:  204 | Rz:   26 | Hat switch:   8 | Button: 0  0  0  0  0  0  0  0  0  0  0  0  0  0  0  0 | # 
E: 000004.936100 8 80 80 cc 1a 08 00 00 00
#  X:  128 | Y:  128 | Z:  210 | Rz:   30 | Hat switch:   8 | Button: 0  0  0  0  0  0  0  0  0  0  0  0  0  0  0  0 | # 
E: 000004.952168 8 80 80 d2 1e 08 00 00 00
#  X:  128 | Y:  128 | Z:  214 | Rz:   34 | Hat switch:   8 | Button: 0  0  0  0  0  0  0  0  0  0  0  0  0  0  0  0 | # 
E: 000004.960063 8 80 80 d6 22 08 00 00 00
#  X:  128 | Y:  128 | Z:  220 | Rz:   40 | Hat switch:   8 | Button: 0  0  0  0  0  0  0  0  0  0  0  0  0  0  0  0 | # 
E: 000004.968066 8 80 80 dc 28 08 00 00 00
#  X:  128 | Y:  128 | Z:  224 | Rz:   45 | Hat switch:   8 | Button: 0  0  0  0  0  0  0  0  0  0  0  0  0  0  0  0 | # 
E: 000004.976247 8 80 80 e0 2d 08 00 00 00
#  X:  128 | Y:  128 | Z:  229 | Rz:   51 | Hat switch:   8 | Button: 0  0  0  0  0  0  0  0  0  0  0  0  0  0  0  0 | # 
E: 000004.984151 8 80 80 e5 33 08 00 00 00
#  X:  128 | Y:  128 | Z:  234 | Rz:   58 | Hat switch:   8 | Button: 0  0  0  0  0  0  0  0  0  0  0  0  0  0  0  0 | # 
E: 000004.992107 8 80 80 ea 3a 08 00 00 00
#  X:  128 | Y:  128 | Z:  239 | Rz:   65 | Hat switch:   8 | Button: 0  0  0  0  0  0  0  0  0  0  0  0  0  0  0  0 | # 
E: 000005.000212 8 80 80 ef 41 08 00 00 00
#  X:  128 | Y:  128 | Z:  244 | Rz:   75 | Hat switch:   8 | Button: 0  0  0  0  0  0  0  0  0  0  0  0  0  0  0  0 | # 
E: 000005.008111 8 80 80 f4 4b 08 00 00 00
#  X:  128 | Y:  128 | Z:  247 | Rz:   83 | Hat switch:   8 | Button: 0  0  0  0  0  0  0  0  0  0  0  0  0  0  0  0 | # 
E: 000005.024181 8 80 80 f7 53 08 00 00 00
#  X:  128 | Y:  128 | Z:  251 | Rz:   94 | Hat switch:   8 | Button: 0  0  0  0  0  0  0  0  0  0  0  0  0  0  0  0 | # 
E: 000005.032111 8 80 80 fb 5e 08 00 00 00
#  X:  128 | Y:  128 | Z:  253 | Rz:  105 | Hat switch:   8 | Button: 0  0  0  0  0  0  0  0  0  0  0  0  0  0  0  0 | # 
E: 000005.040103 8 80 80 fd 69 08 00 00 00
#  X:  128 | Y:  128 | Z:  255 | Rz:  117 | Hat switch:   8 | Button: 0  0  0  0  0  0  0  0  0  0  0  0  0  0  0  0 | # 
E: 000005.048300 8 80 80 ff 75 08 00 00 00
#  X:  128 | Y:  128 | Z:  255 | Rz:  128 | Hat switch:   8 | Button: 0  0  0  0  0  0  0  0  0  0  0  0  0  0  0  0 | # 
E: 000005.056231 8 80 80 ff 80 08 00 00 00
#  X:  128 | Y:  128 | Z:  255 | Rz:  137 | Hat switch:   8 | Button: 0  0  0  0  0  0  0  0  0  0  0  0  0  0  0  0 | # 
E: 000005.064104 8 80 80 ff 89 08 00 00 00
#  X:  128 | Y:  128 | Z:  254 | Rz:  146 | Hat switch:   8 | Button: 0  0  0  0  0  0  0  0  0  0  0  0  0  0  0  0 | # 
E: 000005.072251 8 80 80 fe 92 08 00 00 00
#  X:  128 | Y:  128 | Z:  252 | Rz:  156 | Hat switch:   8 | Button: 0  0  0  0  0  0  0  0  0  0  0  0  0  0  0  0 | # 
E: 000005.080213 8 80 80 fc 9c 08 00 00 00
#  X:  128 | Y:  128 | Z:  249 | Rz:  167 | Hat switch:   8 | Button: 0  0  0  0  0  0  0  0  0  0  0  0  0  0  0  0 | # 
E: 000005.096104 8 80 80 f9 a7 08 00 00 00
#  X:  128 | Y:  128 | Z:  246 | Rz:  176 | Hat switch:   8 | Button: 0  0  0  0  0  0  0  0  0  0  0  0  0  0  0  0 | # 
E: 000005.104103 8 80 80 f6 b0 08 00 00 00
#  X:  128 | Y:  128 | Z:  241 | Rz:  186 | Hat switch:   8 | Button: 0  0  0  0  0  0  0  0  0  0  0  0  0  0  0  0 | # 
E: 000005.112092 8 80 80 f1 ba 08 00 00 00
#  X:  128 | Y:  128 | Z:  236 | Rz:  196 | Hat switch:   8 | Button: 0  0  0  0  0  0  0  0  0  0  0  0  0  0  0  0 | # 
E: 000005.120405 8 80 80 ec c4 08 00 00 00
#  X:  128 | Y:  128 | Z:  229 | Rz:  206 | Hat switch:   8 | Button: 0  0  0  0  0  0  0  0  0  0  0  0  0  0  0  0 | # 
E: 000005.128195 8 80 80 e5 ce 08 00 00 00
#  X:  128 | Y:  128 | Z:  223 | Rz:  213 | Hat switch:   8 | Button: 0  0  0  0  0  0  0  0  0  0  0  0  0  0  0  0 | # 
E: 000005.136084 8 80 80 df d5 08 00 00 00
#  X:  128 | Y:  128 | Z:  216 | Rz:  220 | Hat switch:   8 | Button: 0  0  0  0  0  0  0  0  0  0  0  0  0  0  0  0 | # 
E: 000005.144189 8 80 80 d8 dc 08 00 00 00
#  X:  128 | Y:  128 | Z:  209 | Rz:  226 | Hat switch:   8 | Button: 0  0  0  0  0  0  0  0  0  0  0  0  0  0  0  0 | # 
E: 000005.152143 8 80 80 d1 e2 08 00 00 00
#  X:  128 | Y:  128 | Z:  200 | Rz:  233 | Hat switch:   8 | Button: 0  0  0  0  0  0  0  0  0  0  0  0  0  0  0  0 | # 
E: 000005.168205 8 80 80 c8 e9 08 00 00 00
#  X:  128 | Y:  128 | Z:  192 | Rz:  238 | Hat switch:   8 | Button: 0  0  0  0  0  0  0  0  0  0  0  0  0  0  0  0 | # 
E: 000005.176203 8 80 80 c0 ee 08 00 00 00
#  X:  128 | Y:  128 | Z:  181 | Rz:  244 | Hat switch:   8 | Button: 0  0  0  0  0  0  0  0  0  0  0  0  0  0  0  0 | # 
E: 000005.184091 8 80 80 b5 f4 08 00 00 00
#  X:  128 | Y:  128 | Z:  174 | Rz:  247 | Hat switch:   8 | Button: 0  0  0  0  0  0  0  0  0  0  0  0  0  0  0  0 | # 
E: 000005.192275 8 80 80 ae f7 08 00 00 00
#  X:  128 | Y:  128 | Z:  164 | Rz:  250 | Hat switch:   8 | Button: 0  0  0  0  0  0  0  0  0  0  0  0  0  0  0  0 | # 
E: 000005.200290 8 80 80 a4 fa 08 00 00 00
#  X:  128 | Y:  128 | Z:  155 | Rz:  253 | Hat switch:   8 | Button: 0  0  0  0  0  0  0  0  0  0  0  0  0  0  0  0 | # 
E: 000005.208193 8 80 80 9b fd 08 00 00 00
#  X:  128 | Y:  128 | Z:  145 | Rz:  254 | Hat switch:   8 | Button: 0  0  0  0  0  0  0  0  0  0  0  0  0  0  0  0 | # 
E: 000005.216195 8 80 80 91 fe 08 00 00 00
#  X:  128 | Y:  128 | Z:  134 | Rz:  255 | Hat switch:   8 | Button: 0  0  0  0  0  0  0  0  0  0  0  0  0  0  0  0 | # 
E: 000005.224405 8 80 80 86 ff 08 00 00 00
#  X:  128 | Y:  128 | Z:  123 | Rz:  255 | Hat switch:   8 | Button: 0  0  0  0  0  0  0  0  0  0  0  0  0  0  0  0 | # 
E: 000005.240155 8 80 80 7b ff 08 00 00 00
#  X:  128 | Y:  128 | Z:  109 | Rz:  254 | Hat switch:   8 | Button: 0  0  0  0  0  0  0  0  0  0  0  0  0  0  0  0 | # 
E: 000005.248202 8 80 80 6d fe 08 00 00 00
#  X:  128 | Y:  128 | Z:   96 | Rz:  251 | Hat switch:   8 | Button: 0  0  0  0  0  0  0  0  0  0  0  0  0  0  0  0 | # 
E: 000005.256379 8 80 80 60 fb 08 00 00 00
#  X:  128 | Y:  128 | Z:   81 | Rz:  246 | Hat switch:   8 | Button: 0  0  0  0  0  0  0  0  0  0  0  0  0  0  0  0 | # 
E: 000005.264481 8 80 80 51 f6 08 00 00 00
#  X:  128 | Y:  128 | Z:   70 | Rz:  241 | Hat switch:   8 | Button: 0  0  0  0  0  0  0  0  0  0  0  0  0  0  0  0 | # 
E: 000005.272185 8 80 80 46 f1 08 00 00 00
#  X:  128 | Y:  128 | Z:   55 | Rz:  232 | Hat switch:   8 | Button: 0  0  0  0  0  0  0  0  0  0  0  0  0  0  0  0 | # 
E: 000005.280408 8 80 80 37 e8 08 00 00 00
#  X:  128 | Y:  128 | Z:   45 | Rz:  224 | Hat switch:   8 | Button: 0  0  0  0  0  0  0  0  0  0  0  0  0  0  0  0 | # 
E: 000005.288231 8 80 80 2d e0 08 00 00 00
#  X:  128 | Y:  128 | Z:   34 | Rz:  213 | Hat switch:   8 | Button: 0  0  0  0  0  0  0  0  0  0  0  0  0  0  0  0 | # 
E: 000005.296231 8 80 80 22 d5 08 00 00 00
#  X:  128 | Y:  128 | Z:   24 | Rz:  202 | Hat switch:   8 | Button: 0  0  0  0  0  0  0  0  0  0  0  0  0  0  0  0 | # 
E: 000005.312410 8 80 80 18 ca 08 00 00 00
#  X:  128 | Y:  128 | Z:   17 | Rz:  190 | Hat switch:   8 | Button: 0  0  0  0  0  0  0  0  0  0  0  0  0  0  0  0 | # 
E: 000005.320192 8 80 80 11 be 08 00 00 00
#  X:  128 | Y:  128 | Z:   11 | Rz:  179 | Hat switch:   8 | Button: 0  0  0  0  0  0  0  0  0  0  0  0  0  0  0  0 | # 
E: 000005.328110 8 80 80 0b b3 08 00 00 00
#  X:  128 | Y:  128 | Z:    7 | Rz:  168 | Hat switch:   8 | Button: 0  0  0  0  0  0  0  0  0  0  0  0  0  0  0  0 | # 
E: 000005.336135 8 80 80 07 a8 08 00 00 00
#  X:  128 | Y:  128 | Z:    4 | Rz:  157 | Hat switch:   8 | Button: 0  0  0  0  0  0  0  0  0  0  0  0  0  0  0  0 | # 
E: 000005.344290 8 80 80 04 9d 08 00 00 00
#  X:  128 | Y:  128 | Z:    2 | Rz:  147 | Hat switch:   8 | Button: 0  0  0  0  0  0  0  0  0  0  0  0  0  0  0  0 | # 
E: 000005.352564 8 80 80 02 93 08 00 00 00
#  X:  128 | Y:  128 | Z:    1 | Rz:  137 | Hat switch:   8 | Button: 0  0  0  0  0  0  0  0  0  0  0  0  0  0  0  0 | # 
E: 000005.360261 8 80 80 01 89 08 00 00 00
#  X:  128 | Y:  128 | Z:    1 | Rz:  128 | Hat switch:   8 | Button: 0  0  0  0  0  0  0  0  0  0  0  0  0  0  0  0 | # 
E: 000005.368145 8 80 80 01 80 08 00 00 00
#  X:  128 | Y:  128 | Z:    1 | Rz:  117 | Hat switch:   8 | Button: 0  0  0  0  0  0  0  0  0  0  0  0  0  0  0  0 | # 
E: 000005.384182 8 80 80 01 75 08 00 00 00
#  X:  128 | Y:  128 | Z:    3 | Rz:  105 | Hat switch:   8 | Button: 0  0  0  0  0  0  0  0  0  0  0  0  0  0  0  0 | # 
E: 000005.392182 8 80 80 03 69 08 00 00 00
#  X:  128 | Y:  128 | Z:    5 | Rz:   93 | Hat switch:   8 | Button: 0  0  0  0  0  0  0  0  0  0  0  0  0  0  0  0 | # 
E: 000005.400112 8 80 80 05 5d 08 00 00 00
#  X:  128 | Y:  128 | Z:   10 | Rz:   81 | Hat switch:   8 | Button: 0  0  0  0  0  0  0  0  0  0  0  0  0  0  0  0 | # 
E: 000005.408172 8 80 80 0a 51 08 00 00 00
#  X:  128 | Y:  128 | Z:   14 | Rz:   71 | Hat switch:   8 | Button: 0  0  0  0  0  0  0  0  0  0  0  0  0  0  0  0 | # 
E: 000005.416147 8 80 80 0e 47 08 00 00 00
#  X:  128 | Y:  128 | Z:   19 | Rz:   62 | Hat switch:   8 | Button: 0  0  0  0  0  0  0  0  0  0  0  0  0  0  0  0 | # 
E: 000005.424180 8 80 80 13 3e 08 00 00 00
#  X:  128 | Y:  128 | Z:   25 | Rz:   53 | Hat switch:   8 | Button: 0  0  0  0  0  0  0  0  0  0  0  0  0  0  0  0 | # 
E: 000005.432138 8 80 80 19 35 08 00 00 00
#  X:  128 | Y:  128 | Z:   32 | Rz:   44 | Hat switch:   8 | Button: 0  0  0  0  0  0  0  0  0  0  0  0  0  0  0  0 | # 
E: 000005.440111 8 80 80 20 2c 08 00 00 00
#  X:  128 | Y:  128 | Z:   40 | Rz:   36 | Hat switch:   8 | Button: 0  0  0  0  0  0  0  0  0  0  0  0  0  0  0  0 | # 
E: 000005.456230 8 80 80 28 24 08 00 00 00
#  X:  128 | Y:  128 | Z:   49 | Rz:   29 | Hat switch:   8 | Button: 0  0  0  0  0  0  0  0  0  0  0  0  0  0  0  0 | # 
E: 000005.464201 8 80 80 31 1d 08 00 00 00
#  X:  128 | Y:  128 | Z:   58 | Rz:   22 | Hat switch:   8 | Button: 0  0  0  0  0  0  0  0  0  0  0  0  0  0  0  0 | # 
E: 000005.472154 8 80 80 3a 16 08 00 00 00
#  X:  128 | Y:  128 | Z:   67 | Rz:   16 | Hat switch:   8 | Button: 0  0  0  0  0  0  0  0  0  0  0  0  0  0  0  0 | # 
E: 000005.480294 8 80 80 43 10 08 00 00 00
#  X:  128 | Y:  128 | Z:   76 | Rz:   12 | Hat switch:   8 | Button: 0  0  0  0  0  0  0  0  0  0  0  0  0  0  0  0 | # 
E: 000005.488368 8 80 80 4c 0c 08 00 00 00
#  X:  128 | Y:  128 | Z:   85 | Rz:    8 | Hat switch:   8 | Button: 0  0  0  0  0  0  0  0  0  0  0  0  0  0  0  0 | # 
E: 000005.496258 8 80 80 55 08 08 00 00 00
#  X:  128 | Y:  128 | Z:   93 | Rz:    5 | Hat switch:   8 | Button: 0  0  0  0  0  0  0  0  0  0  0  0  0  0  0  0 | # 
E: 000005.504396 8 80 80 5d 05 08 00 00 00
#  X:  128 | Y:  128 | Z:  102 | Rz:    3 | Hat switch:   8 | Button: 0  0  0  0  0  0  0  0  0  0  0  0  0  0  0  0 | # 
E: 000005.512412 8 80 80 66 03 08 00 00 00
#  X:  128 | Y:  128 | Z:  109 | Rz:    2 | Hat switch:   8 | Button: 0  0  0  0  0  0  0  0  0  0  0  0  0  0  0  0 | # 
E: 000005.528326 8 80 80 6d 02 08 00 00 00
#  X:  128 | Y:  128 | Z:  117 | Rz:    1 | Hat switch:   8 | Button: 0  0  0  0  0  0  0  0  0  0  0  0  0  0  0  0 | # 
E: 000005.536303 8 80 80 75 01 08 00 00 00
#  X:  128 | Y:  128 | Z:  124 | Rz:    1 | Hat switch:   8 | Button: 0  0  0  0  0  0  0  0  0  0  0  0  0  0  0  0 | # 
E: 000005.544547 8 80 80 7c 01 08 00 00 00
#  X:  128 | Y:  128 | Z:  131 | Rz:    1 | Hat switch:   8 | Button: 0  0  0  0  0  0  0  0  0  0  0  0  0  0  0  0 | # 
E: 000005.552247 8 80 80 83 01 08 00 00 00
#  X:  128 | Y:  128 | Z:  138 | Rz:    1 | Hat switch:   8 | Button: 0  0  0  0  0  0  0  0  0  0  0  0  0  0  0  0 | # 
E: 000005.560550 8 80 80 8a 01 08 00 00 00
#  X:  128 | Y:  128 | Z:  145 | Rz:    2 | Hat switch:   8 | Button: 0  0  0  0  0  0  0  0  0  0  0  0  0  0  0  0 | # 
E: 000005.568155 8 80 80 91 02 08 00 00 00
#  X:  128 | Y:  128 | Z:  152 | Rz:    3 | Hat switch:   8 | Button: 0  0  0  0  0  0  0  0  0  0  0  0  0  0  0  0 | # 
E: 000005.576620 8 80 80 98 03 08 00 00 00
#  X:  128 | Y:  128 | Z:  159 | Rz:    4 | Hat switch:   8 | Button: 0  0  0  0  0  0  0  0  0  0  0  0  0  0  0  0 | # 
E: 000005.584577 8 80 80 9f 04 08 00 00 00
#  X:  128 | Y:  128 | Z:  166 | Rz:    7 | Hat switch:   8 | Button: 0  0  0  0  0  0  0  0  0  0  0  0  0  0  0  0 | # 
E: 000005.600307 8 80 80 a6 07 08 00 00 00
#  X:  128 | Y:  128 | Z:  174 | Rz:    9 | Hat switch:   8 | Button: 0  0  0  0  0  0  0  0  0  0  0  0  0  0  0  0 | # 
E: 000005.608454 8 80 80 ae 09 08 00 00 00
#  X:  128 | Y:  128 | Z:  182 | Rz:   13 | Hat switch:   8 | Button: 0  0  0  0  0  0  0  0  0  0  0  0  0  0  0  0 | # 
E: 000005.616238 8 80 80 b6 0d 08 00 00 00
#  X:  128 | Y:  128 | Z:  190 | Rz:   17 | Hat switch:   8 | Button: 0  0  0  0  0  0  0  0  0  0  0  0  0  0  0  0 | # 
E: 000005.624305 8 80 80 be 11 08 00 00 00
#  X:  128 | Y:  128 | Z:  198 | Rz:   21 | Hat switch:   8 | Button: 0  0  0  0  0  0  0  0  0  0  0  0  0  0  0  0 | # 
E: 000005.632301 8 80 80 c6 15 08 00 00 00
#  X:  128 | Y:  128 | Z:  206 | Rz:   27 | Hat switch:   8 | Button: 0  0  0  0  0  0  0  0  0  0  0  0  0  0  0  0 | # 
E: 000005.640459 8 80 80 ce 1b 08 00 00 00
#  X:  128 | Y:  128 | Z:  212 | Rz:   33 | Hat switch:   8 | Button: 0  0  0  0  0  0  0  0  0  0  0  0  0  0  0  0 | # 
E: 000005.648164 8 80 80 d4 21 08 00 00 00
#  X:  128 | Y:  128 | Z:  219 | Rz:   39 | Hat switch:   8 | Button: 0  0  0  0  0  0  0  0  0  0  0  0  0  0  0  0 | # 
E: 000005.656457 8 80 80 db 27 08 00 00 00
#  X:  128 | Y:  128 | Z:  226 | Rz:   47 | Hat switch:   8 | Button: 0  0  0  0  0  0  0  0  0  0  0  0  0  0  0  0 | # 
E: 000005.672357 8 80 80 e2 2f 08 00 00 00
#  X:  128 | Y:  128 | Z:  232 | Rz:   55 | Hat switch:   8 | Button: 0  0  0  0  0  0  0  0  0  0  0  0  0  0  0  0 | # 
E: 000005.680223 8 80 80 e8 37 08 00 00 00
#  X:  128 | Y:  128 | Z:  238 | Rz:   64 | Hat switch:   8 | Button: 0  0  0  0  0  0  0  0  0  0  0  0  0  0  0  0 | # 
E: 000005.688366 8 80 80 ee 40 08 00 00 00
#  X:  128 | Y:  128 | Z:  243 | Rz:   72 | Hat switch:   8 | Button: 0  0  0  0  0  0  0  0  0  0  0  0  0  0  0  0 | # 
E: 000005.696336 8 80 80 f3 48 08 00 00 00
#  X:  128 | Y:  128 | Z:  247 | Rz:   82 | Hat switch:   8 | Button: 0  0  0  0  0  0  0  0  0  0  0  0  0  0  0  0 | # 
E: 000005.704473 8 80 80 f7 52 08 00 00 00
#  X:  128 | Y:  128 | Z:  250 | Rz:   92 | Hat switch:   8 | Button: 0  0  0  0  0  0  0  0  0  0  0  0  0  0  0  0 | # 
E: 000005.712403 8 80 80 fa 5c 08 00 00 00
#  X:  128 | Y:  128 | Z:  253 | Rz:  102 | Hat switch:   8 | Button: 0  0  0  0  0  0  0  0  0  0  0  0  0  0  0  0 | # 
E: 000005.720344 8 80 80 fd 66 08 00 00 00
#  X:  128 | Y:  128 | Z:  254 | Rz:  112 | Hat switch:   8 | Button: 0  0  0  0  0  0  0  0  0  0  0  0  0  0  0  0 | # 
E: 000005.728270 8 80 80 fe 70 08 00 00 00
#  X:  128 | Y:  128 | Z:  255 | Rz:  123 | Hat switch:   8 | Button: 0  0  0  0  0  0  0  0  0  0  0  0  0  0  0  0 | # 
E: 000005.744457 8 80 80 ff 7b 08 00 00 00
#  X:  128 | Y:  128 | Z:  255 | Rz:  132 | Hat switch:   8 | Button: 0  0  0  0  0  0  0  0  0  0  0  0  0  0  0  0 | # 
E: 000005.752227 8 80 80 ff 84 08 00 00 00
#  X:  128 | Y:  128 | Z:  255 | Rz:  141 | Hat switch:   8 | Button: 0  0  0  0  0  0  0  0  0  0  0  0  0  0  0  0 | # 
E: 000005.760220 8 80 80 ff 8d 08 00 00 00
#  X:  128 | Y:  128 | Z:  254 | Rz:  149 | Hat switch:   8 | Button: 0  0  0  0  0  0  0  0  0  0  0  0  0  0  0  0 | # 
E: 000005.768236 8 80 80 fe 95 08 00 00 00
#  X:  128 | Y:  128 | Z:  252 | Rz:  157 | Hat switch:   8 | Button: 0  0  0  0  0  0  0  0  0  0  0  0  0  0  0  0 | # 
E: 000005.776246 8 80 80 fc 9d 08 00 00 00
#  X:  128 | Y:  128 | Z:  250 | Rz:  166 | Hat switch:   8 | Button: 0  0  0  0  0  0  0  0  0  0  0  0  0  0  0  0 | # 
E: 000005.784161 8 80 80 fa a6 08 00 00 00
#  X:  128 | Y:  128 | Z:  247 | Rz:  175 | Hat switch:   8 | Button: 0  0  0  0  0  0  0  0  0  0  0  0  0  0  0  0 | # 
E: 000005.792353 8 80 80 f7 af 08 00 00 00
#  X:  128 | Y:  128 | Z:  243 | Rz:  183 | Hat switch:   8 | Button: 0  0  0  0  0  0  0  0  0  0  0  0  0  0  0  0 | # 
E: 000005.800470 8 80 80 f3 b7 08 00 00 00
#  X:  128 | Y:  128 | Z:  238 | Rz:  192 | Hat switch:   8 | Button: 0  0  0  0  0  0  0  0  0  0  0  0  0  0  0  0 | # 
E: 000005.816243 8 80 80 ee c0 08 00 00 00
#  X:  128 | Y:  128 | Z:  233 | Rz:  201 | Hat switch:   8 | Button: 0  0  0  0  0  0  0  0  0  0  0  0  0  0  0  0 | # 
E: 000005.824565 8 80 80 e9 c9 08 00 00 00
#  X:  128 | Y:  128 | Z:  227 | Rz:  208 | Hat switch:   8 | Button: 0  0  0  0  0  0  0  0  0  0  0  0  0  0  0  0 | # 
E: 000005.832254 8 80 80 e3 d0 08 00 00 00
#  X:  128 | Y:  128 | Z:  220 | Rz:  216 | Hat switch:   8 | Button: 0  0  0  0  0  0  0  0  0  0  0  0  0  0  0  0 | # 
E: 000005.840352 8 80 80 dc d8 08 00 00 00
#  X:  128 | Y:  128 | Z:  213 | Rz:  223 | Hat switch:   8 | Button: 0  0  0  0  0  0  0  0  0  0  0  0  0  0  0  0 | # 
E: 000005.848230 8 80 80 d5 df 08 00 00 00
#  X:  128 | Y:  128 | Z:  205 | Rz:  229 | Hat switch:   8 | Button: 0  0  0  0  0  0  0  0  0  0  0  0  0  0  0  0 | # 
E: 000005.856232 8 80 80 cd e5 08 00 00 00
#  X:  128 | Y:  128 | Z:  197 | Rz:  235 | Hat switch:   8 | Button: 0  0  0  0  0  0  0  0  0  0  0  0  0  0  0  0 | # 
E: 000005.864192 8 80 80 c5 eb 08 00 00 00
#  X:  128 | Y:  128 | Z:  188 | Rz:  240 | Hat switch:   8 | Button: 0  0  0  0  0  0  0  0  0  0  0  0  0  0  0  0 | # 
E: 000005.872251 8 80 80 bc f0 08 00 00 00
#  X:  128 | Y:  128 | Z:  179 | Rz:  245 | Hat switch:   8 | Button: 0  0  0  0  0  0  0  0  0  0  0  0  0  0  0  0 | # 
E: 000005.888240 8 80 80 b3 f5 08 00 00 00
#  X:  128 | Y:  128 | Z:  170 | Rz:  248 | Hat switch:   8 | Button: 0  0  0  0  0  0  0  0  0  0  0  0  0  0  0  0 | # 
E: 000005.896205 8 80 80 aa f8 08 00 00 00
#  X:  128 | Y:  128 | Z:  161 | Rz:  251 | Hat switch:   8 | Button: 0  0  0  0  0  0  0  0  0  0  0  0  0  0  0  0 | # 
E: 000005.904228 8 80 80 a1 fb 08 00 00 00
#  X:  128 | Y:  128 | Z:  151 | Rz:  253 | Hat switch:   8 | Button: 0  0  0  0  0  0  0  0  0  0  0  0  0  0  0  0 | # 
E: 000005.912183 8 80 80 97 fd 08 00 00 00
#  X:  128 | Y:  128 | Z:  142 | Rz:  255 | Hat switch:   8 | Button: 0  0  0  0  0  0  0  0  0  0  0  0  0  0  0  0 | # 
E: 000005.920483 8 80 80 8e ff 08 00 00 00
#  X:  128 | Y:  128 | Z:  130 | Rz:  255 | Hat switch:   8 | Button: 0  0  0  0  0  0  0  0  0  0  0  0  0  0  0  0 | # 
E: 000005.928197 8 80 80 82 ff 08 00 00 00
#  X:  128 | Y:  128 | Z:  121 | Rz:  255 | Hat switch:   8 | Button: 0  0  0  0  0  0  0  0  0  0  0  0  0  0  0  0 | # 
E: 000005.936152 8 80 80 79 ff 08 00 00 00
#  X:  128 | Y:  128 | Z:  109 | Rz:  254 | Hat switch:   8 | Button: 0  0  0  0  0  0  0  0  0  0  0  0  0  0  0  0 | # 
E: 000005.944477 8 80 80 6d fe 08 00 00 00
#  X:  128 | Y:  128 | Z:   97 | Rz:  251 | Hat switch:   8 | Button: 0  0  0  0  0  0  0  0  0  0  0  0  0  0  0  0 | # 
E: 000005.960205 8 80 80 61 fb 08 00 00 00
#  X:  128 | Y:  128 | Z:   85 | Rz:  248 | Hat switch:   8 | Button: 0  0  0  0  0  0  0  0  0  0  0  0  0  0  0  0 | # 
E: 000005.968166 8 80 80 55 f8 08 00 00 00
#  X:  128 | Y:  128 | Z:   74 | Rz:  243 | Hat switch:   8 | Button: 0  0  0  0  0  0  0  0  0  0  0  0  0  0  0  0 | # 
E: 000005.976246 8 80 80 4a f3 08 00 00 00
#  X:  128 | Y:  128 | Z:   62 | Rz:  237 | Hat switch:   8 | Button: 0  0  0  0  0  0  0  0  0  0  0  0  0  0  0  0 | # 
E: 000005.984481 8 80 80 3e ed 08 00 00 00
#  X:  128 | Y:  128 | Z:   52 | Rz:  230 | Hat switch:   8 | Button: 0  0  0  0  0  0  0  0  0  0  0  0  0  0  0  0 | # 
E: 000005.992193 8 80 80 34 e6 08 00 00 00
#  X:  128 | Y:  128 | Z:   43 | Rz:  223 | Hat switch:   8 | Button: 0  0  0  0  0  0  0  0  0  0  0  0  0  0  0  0 | # 
E: 000006.000200 8 80 80 2b df 08 00 00 00
#  X:  128 | Y:  128 | Z:   36 | Rz:  216 | Hat switch:   8 | Button: 0  0  0  0  0  0  0  0  0  0  0  0  0  0  0  0 | # 
E: 000006.008257 8 80 80 24 d8 08 00 00 00
#  X:  128 | Y:  128 | Z:   29 | Rz:  208 | Hat switch:   8 | Button: 0  0  0  0  0  0  0  0  0  0  0  0  0  0  0  0 | # 
E: 000006.016665 8 80 80 1d d0 08 00 00 00
#  X:  128 | Y:  128 | Z:   23 | Rz:  199 | Hat switch:   8 | Button: 0  0  0  0  0  0  0  0  0  0  0  0  0  0  0  0 | # 
E: 000006.032276 8 80 80 17 c7 08 00 00 00
#  X:  128 | Y:  128 | Z:   17 | Rz:  191 | Hat switch:   8 | Button: 0  0  0  0  0  0  0  0  0  0  0  0  0  0  0  0 | # 
E: 000006.040199 8 80 80 11 bf 08 00 00 00
#  X:  128 | Y:  128 | Z:   13 | Rz:  182 | Hat switch:   8 | Button: 0  0  0  0  0  0  0  0  0  0  0  0  0  0  0  0 | # 
E: 000006.048143 8 80 80 0d b6 08 00 00 00
#  X:  128 | Y:  128 | Z:    9 | Rz:  173 | Hat switch:   8 | Button: 0  0  0  0  0  0  0  0  0  0  0  0  0  0  0  0 | # 
E: 000006.056146 8 80 80 09 ad 08 00 00 00
#  X:  128 | Y:  128 | Z:    6 | Rz:  164 | Hat switch:   8 | Button: 0  0  0  0  0  0  0  0  0  0  0  0  0  0  0  0 | # 
E: 000006.064167 8 80 80 06 a4 08 00 00 00
#  X:  128 | Y:  128 | Z:    3 | Rz:  155 | Hat switch:   8 | Button: 0  0  0  0  0  0  0  0  0  0  0  0  0  0  0  0 | # 
E: 000006.072145 8 80 80 03 9b 08 00 00 00
#  X:  128 | Y:  128 | Z:    2 | Rz:  146 | Hat switch:   8 | Button: 0  0  0  0  0  0  0  0  0  0  0  0  0  0  0  0 | # 
E: 000006.080259 8 80 80 02 92 08 00 00 00
#  X:  128 | Y:  128 | Z:    1 | Rz:  138 | Hat switch:   8 | Button: 0  0  0  0  0  0  0  0  0  0  0  0  0  0  0  0 | # 
E: 000006.088164 8 80 80 01 8a 08 00 00 00
#  X:  128 | Y:  128 | Z:    1 | Rz:  129 | Hat switch:   8 | Button: 0  0  0  0  0  0  0  0  0  0  0  0  0  0  0  0 | # 
E: 000006.104303 8 80 80 01 81 08 00 00 00
#  X:  128 | Y:  128 | Z:    1 | Rz:  120 | Hat switch:   8 | Button: 0  0  0  0  0  0  0  0  0  0  0  0  0  0  0  0 | # 
E: 000006.112703 8 80 80 01 78 08 00 00 00
#  X:  128 | Y:  128 | Z:    2 | Rz:  109 | Hat switch:   8 | Button: 0  0  0  0  0  0  0  0  0  0  0  0  0  0  0  0 | # 
E: 000006.120165 8 80 80 02 6d 08 00 00 00
#  X:  128 | Y:  128 | Z:    4 | Rz:   98 | Hat switch:   8 | Button: 0  0  0  0  0  0  0  0  0  0  0  0  0  0  0  0 | # 
E: 000006.128261 8 80 80 04 62 08 00 00 00
#  X:  128 | Y:  128 | Z:    7 | Rz:   88 | Hat switch:   8 | Button: 0  0  0  0  0  0  0  0  0  0  0  0  0  0  0  0 | # 
E: 000006.136158 8 80 80 07 58 08 00 00 00
#  X:  128 | Y:  128 | Z:   11 | Rz:   79 | Hat switch:   8 | Button: 0  0  0  0  0  0  0  0  0  0  0  0  0  0  0  0 | # 
E: 000006.144302 8 80 80 0b 4f 08 00 00 00
#  X:  128 | Y:  128 | Z:   15 | Rz:   69 | Hat switch:   8 | Button: 0  0  0  0  0  0  0  0  0  0  0  0  0  0  0  0 | # 
E: 000006.152171 8 80 80 0f 45 08 00 00 00
#  X:  128 | Y:  128 | Z:   21 | Rz:   59 | Hat switch:   8 | Button: 0  0  0  0  0  0  0  0  0  0  0  0  0  0  0  0 | # 
E: 000006.160154 8 80 80 15 3b 08 00 00 00
#  X:  128 | Y:  128 | Z:   27 | Rz:   51 | Hat switch:   8 | Button: 0  0  0  0  0  0  0  0  0  0  0  0  0  0  0  0 | # 
E: 000006.176256 8 80 80 1b 33 08 00 00 00
#  X:  128 | Y:  128 | Z:   33 | Rz:   43 | Hat switch:   8 | Button: 0  0  0  0  0  0  0  0  0  0  0  0  0  0  0  0 | # 
E: 000006.184152 8 80 80 21 2b 08 00 00 00
#  X:  128 | Y:  128 | Z:   41 | Rz:   35 | Hat switch:   8 | Button: 0  0  0  0  0  0  0  0  0  0  0  0  0  0  0  0 | # 
E: 000006.192142 8 80 80 29 23 08 00 00 00
#  X:  128 | Y:  128 | Z:   49 | Rz:   28 | Hat switch:   8 | Button: 0  0  0  0  0  0  0  0  0  0  0  0  0  0  0  0 | # 
E: 000006.200244 8 80 80 31 1c 08 00 00 00
#  X:  128 | Y:  128 | Z:   56 | Rz:   23 | Hat switch:   8 | Button: 0  0  0  0  0  0  0  0  0  0  0  0  0  0  0  0 | # 
E: 000006.208265 8 80 80 38 17 08 00 00 00
#  X:  128 | Y:  128 | Z:   64 | Rz:   18 | Hat switch:   8 | Button: 0  0  0  0  0  0  0  0  0  0  0  0  0  0  0  0 | # 
E: 000006.216153 8 80 80 40 12 08 00 00 00
#  X:  128 | Y:  128 | Z:   72 | Rz:   14 | Hat switch:   8 | Button: 0  0  0  0  0  0  0  0  0  0  0  0  0  0  0  0 | # 
E: 000006.224288 8 80 80 48 0e 08 00 00 00
#  X:  128 | Y:  128 | Z:   80 | Rz:   10 | Hat switch:   8 | Button: 0  0  0  0  0  0  0  0  0  0  0  0  0  0  0  0 | # 
E: 000006.232158 8 80 80 50 0a 08 00 00 00
#  X:  128 | Y:  128 | Z:   89 | Rz:    7 | Hat switch:   8 | Button: 0  0  0  0  0  0  0  0  0  0  0  0  0  0  0  0 | # 
E: 000006.248202 8 80 80 59 07 08 00 00 00
#  X:  128 | Y:  128 | Z:   98 | Rz:    4 | Hat switch:   8 | Button: 0  0  0  0  0  0  0  0  0  0  0  0  0  0  0  0 | # 
E: 000006.256151 8 80 80 62 04 08 00 00 00
#  X:  128 | Y:  128 | Z:  105 | Rz:    3 | Hat switch:   8 | Button: 0  0  0  0  0  0  0  0  0  0  0  0  0  0  0  0 | # 
E: 000006.264141 8 80 80 69 03 08 00 00 00
#  X:  128 | Y:  128 | Z:  114 | Rz:    1 | Hat switch:   8 | Button: 0  0  0  0  0  0  0  0  0  0  0  0  0  0  0  0 | # 
E: 000006.272229 8 80 80 72 01 08 00 00 00
#  X:  128 | Y:  128 | Z:  122 | Rz:    1 | Hat switch:   8 | Button: 0  0  0  0  0  0  0  0  0  0  0  0  0  0  0  0 | # 
E: 000006.280156 8 80 80 7a 01 08 00 00 00
#  X:  128 | Y:  128 | Z:  129 | Rz:    1 | Hat switch:   8 | Button: 0  0  0  0  0  0  0  0  0  0  0  0  0  0  0  0 | # 
E: 000006.288147 8 80 80 81 01 08 00 00 00
#  X:  128 | Y:  128 | Z:  136 | Rz:    1 | Hat switch:   8 | Button: 0  0  0  0  0  0  0  0  0  0  0  0  0  0  0  0 | # 
E: 000006.296146 8 80 80 88 01 08 00 00 00
#  X:  128 | Y:  128 | Z:  143 | Rz:    1 | Hat switch:   8 | Button: 0  0  0  0  0  0  0  0  0  0  0  0  0  0  0  0 | # 
E: 000006.304153 8 80 80 8f 01 08 00 00 00
#  X:  128 | Y:  128 | Z:  150 | Rz:    2 | Hat switch:   8 | Button: 0  0  0  0  0  0  0  0  0  0  0  0  0  0  0  0 | # 
E: 000006.320272 8 80 80 96 02 08 00 00 00
#  X:  128 | Y:  128 | Z:  157 | Rz:    4 | Hat switch:   8 | Button: 0  0  0  0  0  0  0  0  0  0  0  0  0  0  0  0 | # 
E: 000006.328154 8 80 80 9d 04 08 00 00 00
#  X:  128 | Y:  128 | Z:  163 | Rz:    6 | Hat switch:   8 | Button: 0  0  0  0  0  0  0  0  0  0  0  0  0  0  0  0 | # 
E: 000006.336145 8 80 80 a3 06 08 00 00 00
#  X:  128 | Y:  128 | Z:  170 | Rz:    8 | Hat switch:   8 | Button: 0  0  0  0  0  0  0  0  0  0  0  0  0  0  0  0 | # 
E: 000006.344302 8 80 80 aa 08 08 00 00 00
#  X:  128 | Y:  128 | Z:  177 | Rz:   11 | Hat switch:   8 | Button: 0  0  0  0  0  0  0  0  0  0  0  0  0  0  0  0 | # 
E: 000006.352260 8 80 80 b1 0b 08 00 00 00
#  X:  128 | Y:  128 | Z:  184 | Rz:   14 | Hat switch:   8 | Button: 0  0  0  0  0  0  0  0  0  0  0  0  0  0  0  0 | # 
E: 000006.360494 8 80 80 b8 0e 08 00 00 00
#  X:  128 | Y:  128 | Z:  191 | Rz:   18 | Hat switch:   8 | Button: 0  0  0  0  0  0  0  0  0  0  0  0  0  0  0  0 | # 
E: 000006.368194 8 80 80 bf 12 08 00 00 00
#  X:  128 | Y:  128 | Z:  198 | Rz:   22 | Hat switch:   8 | Button: 0  0  0  0  0  0  0  0  0  0  0  0  0  0  0  0 | # 
E: 000006.376163 8 80 80 c6 16 08 00 00 00
#  X:  128 | Y:  128 | Z:  205 | Rz:   27 | Hat switch:   8 | Button: 0  0  0  0  0  0  0  0  0  0  0  0  0  0  0  0 | # 
E: 000006.392461 8 80 80 cd 1b 08 00 00 00
#  X:  128 | Y:  128 | Z:  211 | Rz:   32 | Hat switch:   8 | Button: 0  0  0  0  0  0  0  0  0  0  0  0  0  0  0  0 | # 
E: 000006.400234 8 80 80 d3 20 08 00 00 00
#  X:  128 | Y:  128 | Z:  218 | Rz:   38 | Hat switch:   8 | Button: 0  0  0  0  0  0  0  0  0  0  0  0  0  0  0  0 | # 
E: 000006.408163 8 80 80 da 26 08 00 00 00
#  X:  128 | Y:  128 | Z:  224 | Rz:   45 | Hat switch:   8 | Button: 0  0  0  0  0  0  0  0  0  0  0  0  0  0  0  0 | # 
E: 000006.416251 8 80 80 e0 2d 08 00 00 00
#  X:  128 | Y:  128 | Z:  231 | Rz:   53 | Hat switch:   8 | Button: 0  0  0  0  0  0  0  0  0  0  0  0  0  0  0  0 | # 
E: 000006.424571 8 80 80 e7 35 08 00 00 00
#  X:  128 | Y:  128 | Z:  237 | Rz:   62 | Hat switch:   8 | Button: 0  0  0  0  0  0  0  0  0  0  0  0  0  0  0  0 | # 
E: 000006.432224 8 80 80 ed 3e 08 00 00 00
#  X:  128 | Y:  128 | Z:  243 | Rz:   72 | Hat switch:   8 | Button: 0  0  0  0  0  0  0  0  0  0  0  0  0  0  0  0 | # 
E: 000006.440265 8 80 80 f3 48 08 00 00 00
#  X:  128 | Y:  128 | Z:  247 | Rz:   84 | Hat switch:   8 | Button: 0  0  0  0  0  0  0  0  0  0  0  0  0  0  0  0 | # 
E: 000006.448143 8 80 80 f7 54 08 00 00 00
#  X:  128 | Y:  128 | Z:  252 | Rz:   97 | Hat switch:   8 | Button: 0  0  0  0  0  0  0  0  0  0  0  0  0  0  0  0 | # 
E: 000006.464169 8 80 80 fc 61 08 00 00 00
#  X:  128 | Y:  128 | Z:  254 | Rz:  108 | Hat switch:   8 | Button: 0  0  0  0  0  0  0  0  0  0  0  0  0  0  0  0 | # 
E: 000006.472157 8 80 80 fe 6c 08 00 00 00
#  X:  128 | Y:  128 | Z:  255 | Rz:  120 | Hat switch:   8 | Button: 0  0  0  0  0  0  0  0  0  0  0  0  0  0  0  0 | # 
E: 000006.480231 8 80 80 ff 78 08 00 00 00
#  X:  128 | Y:  128 | Z:  255 | Rz:  132 | Hat switch:   8 | Button: 0  0  0  0  0  0  0  0  0  0  0  0  0  0  0  0 | # 
E: 000006.488499 8 80 80 ff 84 08 00 00 00
#  X:  128 | Y:  128 | Z:  255 | Rz:  143 | Hat switch:   8 | Button: 0  0  0  0  0  0  0  0  0  0  0  0  0  0  0  0 | # 
E: 000006.496233 8 80 80 ff 8f 08 00 00 00
#  X:  128 | Y:  128 | Z:  252 | Rz:  157 | Hat switch:   8 | Button: 0  0  0  0  0  0  0  0  0  0  0  0  0  0  0  0 | # 
E: 000006.504153 8 80 80 fc 9d 08 00 00 00
#  X:  128 | Y:  128 | Z:  247 | Rz:  173 | Hat switch:   8 | Button: 0  0  0  0  0  0  0  0  0  0  0  0  0  0  0  0 | # 
E: 000006.512152 8 80 80 f7 ad 08 00 00 00
#  X:  128 | Y:  128 | Z:  237 | Rz:  193 | Hat switch:   8 | Button: 0  0  0  0  0  0  0  0  0  0  0  0  0  0  0  0 | # 
E: 000006.520490 8 80 80 ed c1 08 00 00 00
#  X:  128 | Y:  128 | Z:  219 | Rz:  214 | Hat switch:   8 | Button: 0  0  0  0  0  0  0  0  0  0  0  0  0  0  0  0 | # 
E: 000006.536315 8 80 80 db d6 08 00 00 00
#  X:  128 | Y:  128 | Z:  195 | Rz:  234 | Hat switch:   8 | Button: 0  0  0  0  0  0  0  0  0  0  0  0  0  0  0  0 | # 
E: 000006.544161 8 80 80 c3 ea 08 00 00 00
#  X:  128 | Y:  128 | Z:  173 | Rz:  247 | Hat switch:   8 | Button: 0  0  0  0  0  0  0  0  0  0  0  0  0  0  0  0 | # 
E: 000006.552166 8 80 80 ad f7 08 00 00 00
#  X:  128 | Y:  128 | Z:  158 | Rz:  252 | Hat switch:   8 | Button: 0  0  0  0  0  0  0  0  0  0  0  0  0  0  0  0 | # 
E: 000006.560155 8 80 80 9e fc 08 00 00 00
#  X:  128 | Y:  128 | Z:  148 | Rz:  250 | Hat switch:   8 | Button: 0  0  0  0  0  0  0  0  0  0  0  0  0  0  0  0 | # 
E: 000006.568170 8 80 80 94 fa 08 00 00 00
#  X:  128 | Y:  128 | Z:  143 | Rz:  226 | Hat switch:   8 | Button: 0  0  0  0  0  0  0  0  0  0  0  0  0  0  0  0 | # 
E: 000006.576149 8 80 80 8f e2 08 00 00 00
#  X:  128 | Y:  128 | Z:  137 | Rz:  184 | Hat switch:   8 | Button: 0  0  0  0  0  0  0  0  0  0  0  0  0  0  0  0 | # 
E: 000006.584272 8 80 80 89 b8 08 00 00 00
#  X:  128 | Y:  128 | Z:  131 | Rz:  150 | Hat switch:   8 | Button: 0  0  0  0  0  0  0  0  0  0  0  0  0  0  0  0 | # 
E: 000006.592162 8 80 80 83 96 08 00 00 00
#  X:  128 | Y:  128 | Z:  129 | Rz:  134 | Hat switch:   8 | Button: 0  0  0  0  0  0  0  0  0  0  0  0  0  0  0  0 | # 
E: 000006.608281 8 80 80 81 86 08 00 00 00
#  X:  128 | Y:  128 | Z:  128 | Rz:  128 | Hat switch:   8 | Button: 0  0  0  0  0  0  0  0  0  0  0  0  0  0  0  0 | # 
E: 000006.616510 8 80 80 80 80 08 00 00 00
#  X:  127 | Y:  128 | Z:  128 | Rz:  128 | Hat switch:   8 | Button: 0  0  0  0  0  0  0  0  0  0  0  0  0  0  0  0 | # 
E: 000007.288688 8 7f 80 80 80 08 00 00 00
#  X:  126 | Y:  129 | Z:  128 | Rz:  128 | Hat switch:   8 | Button: 0  0  0  0  0  0  0  0  0  0  0  0  0  0  0  0 | # 
E: 000007.296362 8 7e 81 80 80 08 00 00 00
#  X:  126 | Y:  130 | Z:  128 | Rz:  128 | Hat switch:   8 | Button: 0  0  0  0  0  0  0  0  0  0  0  0  0  0  0  0 | # 
E: 000007.304227 8 7e 82 80 80 08 00 00 00
#  X:  125 | Y:  132 | Z:  128 | Rz:  128 | Hat switch:   8 | Button: 0  0  0  0  0  0  0  0  0  0  0  0  0  0  0  0 | # 
E: 000007.312282 8 7d 84 80 80 08 00 00 00
#  X:  125 | Y:  136 | Z:  128 | Rz:  128 | Hat switch:   8 | Button: 0  0  0  0  0  0  0  0  0  0  0  0  0  0  0  0 | # 
E: 000007.328306 8 7d 88 80 80 08 00 00 00
#  X:  124 | Y:  140 | Z:  128 | Rz:  128 | Hat switch:   8 | Button: 0  0  0  0  0  0  0  0  0  0  0  0  0  0  0  0 | # 
E: 000007.336176 8 7c 8c 80 80 08 00 00 00
#  X:  124 | Y:  145 | Z:  128 | Rz:  128 | Hat switch:   8 | Button: 0  0  0  0  0  0  0  0  0  0  0  0  0  0  0  0 | # 
E: 000007.344462 8 7c 91 80 80 08 00 00 00
#  X:  123 | Y:  152 | Z:  128 | Rz:  128 | Hat switch:   8 | Button: 0  0  0  0  0  0  0  0  0  0  0  0  0  0  0  0 | # 
E: 000007.352333 8 7b 98 80 80 08 00 00 00
#  X:  123 | Y:  158 | Z:  128 | Rz:  128 | Hat switch:   8 | Button: 0  0  0  0  0  0  0  0  0  0  0  0  0  0  0  0 | # 
E: 000007.360193 8 7b 9e 80 80 08 00 00 00
#  X:  123 | Y:  165 | Z:  128 | Rz:  128 | Hat switch:   8 | Button: 0  0  0  0  0  0  0  0  0  0  0  0  0  0  0  0 | # 
E: 000007.368243 8 7b a5 80 80 08 00 00 00
#  X:  122 | Y:  174 | Z:  128 | Rz:  128 | Hat switch:   8 | Button: 0  0  0  0  0  0  0  0  0  0  0  0  0  0  1  0 | # 
E: 000007.376488 8 7a ae 80 80 08 00 04 00
#  X:  122 | Y:  183 | Z:  128 | Rz:  128 | Hat switch:   8 | Button: 0  0  0  0  0  0  0  0  0  0  0  0  0  0  1  0 | # 
E: 000007.384241 8 7a b7 80 80 08 00 04 00
#  X:  122 | Y:  191 | Z:  128 | Rz:  128 | Hat switch:   8 | Button: 0  0  0  0  0  0  0  0  0  0  0  0  0  0  1  0 | # 
E: 000007.400389 8 7a bf 80 80 08 00 04 00
#  X:  121 | Y:  196 | Z:  128 | Rz:  128 | Hat switch:   8 | Button: 0  0  0  0  0  0  0  0  0  0  0  0  0  0  1  0 | # 
E: 000007.408273 8 79 c4 80 80 08 00 04 00
#  X:  121 | Y:  198 | Z:  128 | Rz:  128 | Hat switch:   8 | Button: 0  0  0  0  0  0  0  0  0  0  0  0  0  0  1  0 | # 
E: 000007.416205 8 79 c6 80 80 08 00 04 00
#  X:  119 | Y:  199 | Z:  128 | Rz:  128 | Hat switch:   8 | Button: 0  0  0  0  0  0  0  0  0  0  0  0  0  0  1  0 | # 
E: 000007.424357 8 77 c7 80 80 08 00 04 00
#  X:  115 | Y:  197 | Z:  128 | Rz:  128 | Hat switch:   8 | Button: 0  0  0  0  0  0  0  0  0  0  0  0  0  0  1  0 | # 
E: 000007.432215 8 73 c5 80 80 08 00 04 00
#  X:  110 | Y:  193 | Z:  128 | Rz:  128 | Hat switch:   8 | Button: 0  0  0  0  0  0  0  0  0  0  0  0  0  0  1  0 | # 
E: 000007.440214 8 6e c1 80 80 08 00 04 00
#  X:  105 | Y:  189 | Z:  128 | Rz:  128 | Hat switch:   8 | Button: 0  0  0  0  0  0  0  0  0  0  0  0  0  0  1  0 | # 
E: 000007.448376 8 69 bd 80 80 08 00 04 00
#  X:  101 | Y:  185 | Z:  128 | Rz:  128 | Hat switch:   8 | Button: 0  0  0  0  0  0  0  0  0  0  0  0  0  0  1  0 | # 
E: 000007.456211 8 65 b9 80 80 08 00 04 00
#  X:   99 | Y:  183 | Z:  128 | Rz:  128 | Hat switch:   8 | Button: 0  0  0  0  0  0  0  0  0  0  0  0  0  0  1  0 | # 
E: 000007.472435 8 63 b7 80 80 08 00 04 00
#  X:   97 | Y:  182 | Z:  128 | Rz:  128 | Hat switch:   8 | Button: 0  0  0  0  0  0  0  0  0  0  0  0  0  0  1  0 | # 
E: 000007.480480 8 61 b6 80 80 08 00 04 00
#  X:   96 | Y:  181 | Z:  128 | Rz:  128 | Hat switch:   8 | Button: 0  0  0  0  0  0  0  0  0  0  0  0  0  0  1  0 | # 
E: 000007.488291 8 60 b5 80 80 08 00 04 00
#  X:   96 | Y:  182 | Z:  128 | Rz:  128 | Hat switch:   8 | Button: 0  0  0  0  0  0  0  0  0  0  0  0  0  0  1  0 | # 
E: 000007.496405 8 60 b6 80 80 08 00 04 00
#  X:   98 | Y:  185 | Z:  128 | Rz:  128 | Hat switch:   8 | Button: 0  0  0  0  0  0  0  0  0  0  0  0  0  0  1  0 | # 
E: 000007.504315 8 62 b9 80 80 08 00 04 00
#  X:  102 | Y:  190 | Z:  128 | Rz:  128 | Hat switch:   8 | Button: 0  0  0  0  0  0  0  0  0  0  0  0  0  0  1  0 | # 
E: 000007.512278 8 66 be 80 80 08 00 04 00
#  X:  105 | Y:  194 | Z:  128 | Rz:  128 | Hat switch:   8 | Button: 0  0  0  0  0  0  0  0  0  0  0  0  0  0  1  0 | # 
E: 000007.520216 8 69 c2 80 80 08 00 04 00
#  X:  108 | Y:  198 | Z:  128 | Rz:  128 | Hat switch:   8 | Button: 0  0  0  0  0  0  0  0  0  0  0  0  0  0  1  0 | # 
E: 000007.528295 8 6c c6 80 80 08 00 04 00
#  X:  111 | Y:  201 | Z:  128 | Rz:  128 | Hat switch:   8 | Button: 0  0  0  0  0  0  0  0  0  0  0  0  0  0  1  0 | # 
E: 000007.544508 8 6f c9 80 80 08 00 04 00
#  X:  113 | Y:  203 | Z:  128 | Rz:  128 | Hat switch:   8 | Button: 0  0  0  0  0  0  0  0  0  0  0  0  0  0  1  0 | # 
E: 000007.552310 8 71 cb 80 80 08 00 04 00
#  X:  114 | Y:  204 | Z:  128 | Rz:  128 | Hat switch:   8 | Button: 0  0  0  0  0  0  0  0  0  0  0  0  0  0  1  0 | # 
E: 000007.560546 8 72 cc 80 80 08 00 04 00
#  X:  114 | Y:  204 | Z:  128 | Rz:  128 | Hat switch:   8 | Button: 0  0  0  0  0  0  0  0  0  0  0  0  0  0  0  0 | # 
E: 000007.568292 8 72 cc 80 80 08 00 00 00
#  X:  114 | Y:  199 | Z:  128 | Rz:  128 | Hat switch:   8 | Button: 0  0  0  0  0  0  0  0  0  0  0  0  0  0  0  0 | # 
E: 000007.576244 8 72 c7 80 80 08 00 00 00
#  X:  114 | Y:  189 | Z:  128 | Rz:  128 | Hat switch:   8 | Button: 0  0  0  0  0  0  0  0  0  0  0  0  0  0  0  0 | # 
E: 000007.584544 8 72 bd 80 80 08 00 00 00
#  X:  112 | Y:  178 | Z:  128 | Rz:  128 | Hat switch:   8 | Button: 0  0  0  0  0  0  0  0  0  0  0  0  0  0  0  0 | # 
E: 000007.592600 8 70 b2 80 80 08 00 00 00
#  X:  109 | Y:  162 | Z:  128 | Rz:  128 | Hat switch:   8 | Button: 0  0  0  0  0  0  0  0  0  0  0  0  0  0  0  0 | # 
E: 000007.600228 8 6d a2 80 80 08 00 00 00
#  X:  106 | Y:  150 | Z:  128 | Rz:  128 | Hat switch:   8 | Button: 0  0  0  0  0  0  0  0  0  0  0  0  0  0  0  0 | # 
E: 000007.616561 8 6a 96 80 80 08 00 00 00
#  X:  105 | Y:  140 | Z:  128 | Rz:  128 | Hat switch:   8 | Button: 0  0  0  0  0  0  0  0  0  0  0  0  0  0  0  0 | # 
E: 000007.624878 8 69 8c 80 80 08 00 00 00
#  X:  104 | Y:  134 | Z:  128 | Rz:  128 | Hat switch:   8 | Button: 0  0  0  0  0  0  0  0  0  0  0  0  0  0  0  0 | # 
E: 000007.632247 8 68 86 80 80 08 00 00 00
#  X:  105 | Y:  131 | Z:  128 | Rz:  128 | Hat switch:   8 | Button: 0  0  0  0  0  0  0  0  0  0  0  0  0  0  0  0 | # 
E: 000007.640204 8 69 83 80 80 08 00 00 00
#  X:  110 | Y:  129 | Z:  128 | Rz:  128 | Hat switch:   8 | Button: 0  0  0  0  0  0  0  0  0  0  0  0  0  0  0  0 | # 
E: 000007.648185 8 6e 81 80 80 08 00 00 00
#  X:  115 | Y:  129 | Z:  128 | Rz:  128 | Hat switch:   8 | Button: 0  0  0  0  0  0  0  0  0  0  0  0  0  0  0  0 | # 
E: 000007.656444 8 73 81 80 80 08 00 00 00
#  X:  122 | Y:  128 | Z:  128 | Rz:  128 | Hat switch:   8 | Button: 0  0  0  0  0  0  0  0  0  0  0  0  0  0  0  0 | # 
E: 000007.664240 8 7a 80 80 80 08 00 00 00
#  X:  127 | Y:  128 | Z:  128 | Rz:  128 | Hat switch:   8 | Button: 0  0  0  0  0  0  0  0  0  0  0  0  0  0  0  0 | # 
E: 000007.672191 8 7f 80 80 80 08 00 00 00
#  X:  128 | Y:  128 | Z:  128 | Rz:  128 | Hat switch:   8 | Button: 0  0  0  0  0  0  0  0  0  0  0  0  0  0  0  0 | # 
E: 000007.688485 8 80 80 80 80 08 00 00 00
#  X:  128 | Y:  129 | Z:  128 | Rz:  128 | Hat switch:   8 | Button: 0  0  0  0  0  0  0  0  0  0  0  0  0  0  0  0 | # 
E: 000008.144305 8 80 81 80 80 08 00 00 00
#  X:  128 | Y:  130 | Z:  128 | Rz:  128 | Hat switch:   8 | Button: 0  0  0  0  0  0  0  0  0  0  0  0  0  0  0  0 | # 
E: 000008.208229 8 80 82 80 80 08 00 00 00
#  X:  128 | Y:  131 | Z:  128 | Rz:  128 | Hat switch:   8 | Button: 0  0  0  0  0  0  0  0  0  0  0  0  0  0  1  0 | # 
E: 000008.224188 8 80 83 80 80 08 00 04 00
#  X:  128 | Y:  132 | Z:  128 | Rz:  128 | Hat switch:   8 | Button: 0  0  0  0  0  0  0  0  0  0  0  0  0  0  1  0 | # 
E: 000008.232224 8 80 84 80 80 08 00 04 00
#  X:  128 | Y:  133 | Z:  128 | Rz:  128 | Hat switch:   8 | Button: 0  0  0  0  0  0  0  0  0  0  0  0  0  0  1  0 | # 
E: 000008.240211 8 80 85 80 80 08 00 04 00
#  X:  128 | Y:  134 | Z:  128 | Rz:  128 | Hat switch:   8 | Button: 0  0  0  0  0  0  0  0  0  0  0  0  0  0  1  0 | # 
E: 000008.248202 8 80 86 80 80 08 00 04 00
#  X:  128 | Y:  135 | Z:  128 | Rz:  128 | Hat switch:   8 | Button: 0  0  0  0  0  0  0  0  0  0  0  0  0  0  1  0 | # 
E: 000008.272208 8 80 87 80 80 08 00 04 00
#  X:  128 | Y:  134 | Z:  128 | Rz:  128 | Hat switch:   8 | Button: 0  0  0  0  0  0  0  0  0  0  0  0  0  0  1  0 | # 
E: 000008.304194 8 80 86 80 80 08 00 04 00
#  X:  128 | Y:  135 | Z:  128 | Rz:  128 | Hat switch:   8 | Button: 0  0  0  0  0  0  0  0  0  0  0  0  0  0  1  0 | # 
E: 000008.376302 8 80 87 80 80 08 00 04 00
#  X:  128 | Y:  136 | Z:  128 | Rz:  128 | Hat switch:   8 | Button: 0  0  0  0  0  0  0  0  0  0  0  0  0  0  1  0 | # 
E: 000008.424296 8 80 88 80 80 08 00 04 00
#  X:  128 | Y:  135 | Z:  128 | Rz:  128 | Hat switch:   8 | Button: 0  0  0  0  0  0  0  0  0  0  0  0  0  0  1  0 | # 
E: 000008.432277 8 80 87 80 80 08 00 04 00
#  X:  128 | Y:  135 | Z:  128 | Rz:  128 | Hat switch:   8 | Button: 0  0  0  0  0  0  0  0  0  0  0  0  0  0  0  0 | # 
E: 000008.440216 8 80 87 80 80 08 00 00 00
#  X:  128 | Y:  134 | Z:  128 | Rz:  128 | Hat switch:   8 | Button: 0  0  0  0  0  0  0  0  0  0  0  0  0  0  0  0 | # 
E: 000008.448190 8 80 86 80 80 08 00 00 00
#  X:  128 | Y:  132 | Z:  128 | Rz:  128 | Hat switch:   8 | Button: 0  0  0  0  0  0  0  0  0  0  0  0  0  0  0  0 | # 
E: 000008.456476 8 80 84 80 80 08 00 00 00
#  X:  128 | Y:  130 | Z:  128 | Rz:  128 | Hat switch:   8 | Button: 0  0  0  0  0  0  0  0  0  0  0  0  0  0  0  0 | # 
E: 000008.464246 8 80 82 80 80 08 00 00 00
#  X:  128 | Y:  129 | Z:  128 | Rz:  128 | Hat switch:   8 | Button: 0  0  0  0  0  0  0  0  0  0  0  0  0  0  0  0 | # 
E: 000008.480336 8 80 81 80 80 08 00 00 00
#  X:  128 | Y:  128 | Z:  128 | Rz:  128 | Hat switch:   8 | Button: 0  0  0  0  0  0  0  0  0  0  0  0  0  0  0  0 | # 
E: 000008.488287 8 80 80 80 80 08 00 00 00
#  X:  128 | Y:  128 | Z:  128 | Rz:  128 | Hat switch:   8 | Button: 0  0  0  0  0  0  0  0  0  0  0  0  0  0  1  0 | # 
E: 000008.712303 8 80 80 80 80 08 00 04 00
#  X:  128 | Y:  129 | Z:  128 | Rz:  128 | Hat switch:   8 | Button: 0  0  0  0  0  0  0  0  0  0  0  0  0  0  1  0 | # 
E: 000008.728229 8 80 81 80 80 08 00 04 00
#  X:  128 | Y:  130 | Z:  128 | Rz:  128 | Hat switch:   8 | Button: 0  0  0  0  0  0  0  0  0  0  0  0  0  0  1  0 | # 
E: 000008.744389 8 80 82 80 80 08 00 04 00
#  X:  128 | Y:  131 | Z:  128 | Rz:  128 | Hat switch:   8 | Button: 0  0  0  0  0  0  0  0  0  0  0  0  0  0  1  0 | # 
