# Sony Interactive Entertainment DualSense Wireless Controller
# 0x05, 0x01,                    // Usage Page (Generic Desktop)        0
# 0x09, 0x05,                    // Usage (Game Pad)                    2
# 0xa1, 0x01,                    // Collection (Application)            4
# 0x85, 0x01,                    //  Report ID (1)                      6
# 0x09, 0x30,                    //  Usage (X)                          8
# 0x09, 0x31,                    //  Usage (Y)                          10
# 0x09, 0x32,                    //  Usage (Z)                          12
# 0x09, 0x35,                    //  Usage (Rz)                         14
# 0x09, 0x33,                    //  Usage (Rx)                         16
# 0x09, 0x34,                    //  Usage (Ry)                         18
# 0x15, 0x00,                    //  Logical Minimum (0)                20
# 0x26, 0xff, 0x00,              //  Logical Maximum (255)              22
# 0x75, 0x08,                    //  Report Size (8)                    25
# 0x95, 0x06,                    //  Report Count (6)                   27
# 0x81, 0x02,                    //  Input (Data,Var,Abs)               29
# 0x06, 0x00, 0xff,              //  Usage Page (Vendor Defined Page 1) 31
# 0x09, 0x20,                    //  Usage (Vendor Usage 0x20)          34
# 0x95, 0x01,                    //  Report Count (1)                   36
# 0x81, 0x02,                    //  Input (Data,Var,Abs)               38
# 0x05, 0x01,                    //  Usage Page (Generic Desktop)       40
# 0x09, 0x39,                    //  Usage (Hat switch)                 42
# 0x15, 0x00,                    //  Logical Minimum (0)                44
# 0x25, 0x07,                    //  Logical Maximum (7)                46
# 0x35, 0x00,                    //  Physical Minimum (0)               48
# 0x46, 0x3b, 0x01,              //  Physical Maximum (315)             50
# 0x65, 0x14,                    //  Unit (EnglishRotation: deg)        53
# 0x75, 0x04,                    //  Report Size (4)                    55
# 0x95, 0x01,                    //  Report Count (1)                   57
# 0x81, 0x42,                    //  Input (Data,Var,Abs,Null)          59
# 0x65, 0x00,                    //  Unit (None)                        61
# 0x05, 0x09,                    //  Usage Page (Button)                63
# 0x19, 0x01,                    //  Usage Minimum (1)                  65
# 0x29, 0x0f,                    //  Usage Maximum (15)                 67
# 0x15, 0x00,                    //  Logical Minimum (0)                69
# 0x25, 0x01,                    //  Logical Maximum (1)                71
# 0x75, 0x01,                    //  Report Size (1)                    73
# 0x95, 0x0f,                    //  Report Count (15)                  75
# 0x81, 0x02,                    //  Input (Data,Var,Abs)               77
# 0x06, 0x00, 0xff,              //  Usage Page (Vendor Defined Page 1) 79
# 0x09, 0x21,                    //  Usage (Vendor Usage 0x21)          82
# 0x95, 0x0d,                    //  Report Count (13)                  84
# 0x81, 0x02,                    //  Input (Data,Var,Abs)               86
# 0x06, 0x00, 0xff,              //  Usage Page (Vendor Defined Page 1) 88
# 0x09, 0x22,                    //  Usage (Vendor Usage 0x22)          91
# 0x15, 0x00,                    //  Logical Minimum (0)                93
# 0x26, 0xff, 0x00,              //  Logical Maximum (255)              95
# 0x75, 0x08,                    //  Report Size (8)                    98
# 0x95, 0x34,                    //  Report Count (52)                  100
# 0x81, 0x02,                    //  Input (Data,Var,Abs)               102
# 0x85, 0x02,                    //  Report ID (2)                      104
# 0x09, 0x23,                    //  Usage (Vendor Usage 0x23)          106
# 0x95, 0x2f,                    //  Report Count (47)                  108
# 0x91, 0x02,                    //  Output (Data,Var,Abs)              110
# 0x85, 0x05,                    //  Report ID (5)                      112
# 0x09, 0x33,                    //  Usage (Vendor Usage 0x33)          114
# 0x95, 0x28,                    //  Report Count (40)                  116
# 0xb1, 0x02,                    //  Feature (Data,Var,Abs)             118
# 0x85, 0x08,                    //  Report ID (8)                      120
# 0x09, 0x34,                    //  Usage (Vendor Usage 0x34)          122
# 0x95, 0x2f,                    //  Report Count (47)                  124
# 0xb1, 0x02,                    //  Feature (Data,Var,Abs)             126
# 0x85, 0x09,                    //  Report ID (9)                      128
# 0x09, 0x24,                    //  Usage (Vendor Usage 0x24)          130
# 0x95, 0x13,                    //  Report Count (19)                  132
# 0xb1, 0x02,                    //  Feature (Data,Var,Abs)             134
# 0x85, 0x0a,                    //  Report ID (10)                     136
# 0x09, 0x25,                    //  Usage (Vendor Usage 0x25)          138
# 0x95, 0x1a,                    //  Report Count (26)                  140
# 0xb1, 0x02,                    //  Feature (Data,Var,Abs)             142
# 0x85, 0x20,                    //  Report ID (32)                     144
# 0x09, 0x26,                    //  Usage (Vendor Usage 0x26)          146
# 0x95, 0x3f,                    //  Report Count (63)                  148
# 0xb1, 0x02,                    //  Feature (Data,Var,Abs)             150
# 0x85, 0x21,                    //  Report ID (33)                     152
# 0x09, 0x27,                    //  Usage (Vendor Usage 0x27)          154
# 0x95, 0x04,                    //  Report Count (4)                   156
# 0xb1, 0x02,                    //  Feature (Data,Var,Abs)             158
# 0x85, 0x22,                    //  Report ID (34)                     160
# 0x09, 0x40,                    //  Usage (Vendor Usage 0x40)          162
# 0x95, 0x3f,                    //  Report Count (63)                  164
# 0xb1, 0x02,                    //  Feature (Data,Var,Abs)             166
# 0x85, 0x80,                    //  Report ID (128)                    168
# 0x09, 0x28,                    //  Usage (Vendor Usage 0x28)          170
# 0x95, 0x3f,                    //  Report Count (63)                  172
# 0xb1, 0x02,                    //  Feature (Data,Var,Abs)             174
# 0x85, 0x81,                    //  Report ID (129)                    176
# 0x09, 0x29,                    //  Usage (Vendor Usage 0x29)          178
# 0x95, 0x3f,                    //  Report Count (63)                  180
# 0xb1, 0x02,                    //  Feature (Data,Var,Abs)             182
# 0x85, 0x82,                    //  Report ID (130)                    184
# 0x09, 0x2a,                    //  Usage (Vendor Usage 0x2a)          186
# 0x95, 0x09,                    //  Report Count (9)                   188
# 0xb1, 0x02,                    //  Feature (Data,Var,Abs)             190
# 0x85, 0x83,                    //  Report ID (131)                    192
# 0x09, 0x2b,                    //  Usage (Vendor Usage 0x2b)          194
# 0x95, 0x3f,                    //  Report Count (63)                  196
# 0xb1, 0x02,                    //  Feature (Data,Var,Abs)             198
# 0x85, 0x84,                    //  Report ID (132)                    200
# 0x09, 0x2c,                    //  Usage (Vendor Usage 0x2c)          202
# 0x95, 0x3f,                    //  Report Count (63)                  204
# 0xb1, 0x02,                    //  Feature (Data,Var,Abs)             206
# 0x85, 0x85,                    //  Report ID (133)                    208
# 0x09, 0x2d,                    //  Usage (Vendor Usage 0x2d)          210
# 0x95, 0x02,                    //  Report Count (2)                   212
# 0xb1, 0x02,                    //  Feature (Data,Var,Abs)             214
# 0x85, 0xa0,                    //  Report ID (160)                    216
# 0x09, 0x2e,                    //  Usage (Vendor Usage 0x2e)          218
# 0x95, 0x01,                    //  Report Count (1)                   220
# 0xb1, 0x02,                    //  Feature (Data,Var,Abs)             222
# 0x85, 0xe0,                    //  Report ID (224)                    224
# 0x09, 0x2f,                    //  Usage (Vendor Usage 0x2f)          226
# 0x95, 0x3f,                    //  Report Count (63)                  228
# 0xb1, 0x02,                    //  Feature (Data,Var,Abs)             230
# 0x85, 0xf0,                    //  Report ID (240)                    232
# 0x09, 0x30,                    //  Usage (Vendor Usage 0x30)          234
# 0x95, 0x3f,                    //  Report Count (63)                  236
# 0xb1, 0x02,                    //  Feature (Data,Var,Abs)             238
# 0x85, 0xf1,                    //  Report ID (241)                    240
# 0x09, 0x31,                    //  Usage (Vendor Usage 0x31)          242
# 0x95, 0x3f,                    //  Report Count (63)                  244
# 0xb1, 0x02,                    //  Feature (Data,Var,Abs)             246
# 0x85, 0xf2,                    //  Report ID (242)                    248
# 0x09, 0x32,                    //  Usage (Vendor Usage 0x32)          250
# 0x95, 0x0f,                    //  Report Count (15)                  252
# 0xb1, 0x02,                    //  Feature (Data,Var,Abs)             254
# 0x85, 0xf4,                    //  Report ID (244)                    256
# 0x09, 0x35,                    //  Usage (Vendor Usage 0x35)          258
# 0x95, 0x3f,                    //  Report Count (63)                  260
# 0xb1, 0x02,                    //  Feature (Data,Var,Abs)             262
# 0x85, 0xf5,                    //  Report ID (245)                    264
# 0x09, 0x36,                    //  Usage (Vendor Usage 0x36)          266
# 0x95, 0x03,                    //  Report Count (3)                   268
# 0xb1, 0x02,                    //  Feature (Data,Var,Abs)             270
# 0xc0,                          // End Collection                      272
# 
R: 273 05 01 09 05 a1 01 85 01 09 30 09 31 09 32 09 35 09 33 09 34 15 00 26 ff 00 75 08 95 06 81 02 06 00 ff 09 20 95 01 81 02 05 01 09 39 15 00 25 07 35 00 46 3b 01 65 14 75 04 95 01 81 42 65 00 05 09 19 01 29 0f 15 00 25 01 75 01 95 0f 81 02 06 00 ff 09 21 95 0d 81 02 06 00 ff 09 22 15 00 26 ff 00 75 08 95 34 81 02 85 02 09 23 95 2f 91 02 85 05 09 33 95 28 b1 02 85 08 09 34 95 2f b1 02 85 09 09 24 95 13 b1 02 85 0a 09 25 95 1a b1 02 85 20 09 26 95 3f b1 02 85 21 09 27 95 04 b1 02 85 22 09 40 95 3f b1 02 85 80 09 28 95 3f b1 02 85 81 09 29 95 3f b1 02 85 82 09 2a 95 09 b1 02 85 83 09 2b 95 3f b1 02 85 84 09 2c 95 3f b1 02 85 85 09 2d 95 02 b1 02 85 a0 09 2e 95 01 b1 02 85 e0 09 2f 95 3f b1 02 85 f0 09 30 95 3f b1 02 85 f1 09 31 95 3f b1 02 85 f2 09 32 95 0f b1 02 85 f4 09 35 95 3f b1 02 85 f5 09 36 95 03 b1 02 c0
N: Sony Interactive Entertainment DualSense Wireless Controller
I: 3 054c 0ce6
# ReportID: 1 / X:  129 | Y:  126 | Z:  130 | Rz:  127 | Rx:    0 | Ry:    0 | 0xff000020:   28 | Hat switch:   8 | Button: 0  0  0  0  0  0  0  0  0  0  0  0  0  0  0 | 0xff000021: 0 , 0 , 0 , 0 , 0 , 0 , 0 , 0 , 0 , 0 , 0 , 0 , 0 | 0xff000022:  158 ,   36 ,  136 ,  247 ,  243 ,  255 ,  248 ,  255 ,  248 ,  255 ,  153 ,  253 ,  207 ,   27 ,   70 ,   15 ,  231 ,   81 ,   11 ,   16 ,    6 ,  128 ,    0 ,    0 ,    0 ,  128 ,    0 ,    0 ,    0 ,    0 ,    9 ,    9 ,    0 ,    0 ,    0 ,    0 ,    0 ,   86 ,  107 ,   11 ,   16 ,   41 ,    8 ,    0 ,  211 ,   84 ,  105 ,   49 ,   85 ,   41 ,  117 ,  183 
E: 000000.000000 64 01 81 7e 82 7f 00 00 1c 08 00 00 00 9e 24 88 f7 f3 ff f8 ff f8 ff 99 fd cf 1b 46 0f e7 51 0b 10 06 80 00 00 00 80 00 00 00 00 09 09 00 00 00 00 00 56 6b 0b 10 29 08 00 d3 54 69 31 55 29 75 b7
# ReportID: 1 / X:  129 | Y:  125 | Z:  130 | Rz:  127 | Rx:    0 | Ry:    0 | 0xff000020:   29 | Hat switch:   8 | Button: 0  0  0  0  0  0  0  0  0  0  0  0  0  0  0 | 0xff000021: 0 , 0 , 0 , 0 , 0 , 0 , 0 , 0 , 0 , 0 , 0 , 0 , 0 | 0xff000022:  159 ,   36 ,  136 ,  247 ,  240 ,  255 ,  247 ,  255 ,  250 ,  255 ,  152 ,  253 ,  236 ,   27 ,   81 ,   15 ,  173 ,  128 ,   11 ,   16 ,    6 ,  128 ,    0 ,    0 ,    0 ,  128 ,    0 ,    0 ,    0 ,    0 ,    9 ,    9 ,    0 ,    0 ,    0 ,    0 ,    0 ,   54 ,  154 ,   11 ,   16 ,   41 ,    8 ,    0 ,  189 ,  103 ,  176 ,  177 ,  171 ,   73 ,  217 ,  215 
E: 000000.004005 64 01 81 7d 82 7f 00 00 1d 08 00 00 00 9f 24 88 f7 f0 ff f7 ff fa ff 98 fd ec 1b 51 0f ad 80 0b 10 06 80 00 00 00 80 00 00 00 00 09 09 00 00 00 00 00 36 9a 0b 10 29 08 00 bd 67 b0 b1 ab 49 d9 d7
# ReportID: 1 / X:  129 | Y:  125 | Z:  130 | Rz:  127 | Rx:    0 | Ry:    0 | 0xff000020:   30 | Hat switch:   8 | Button: 0  0  0  0  0  0  0  0  0  0  0  0  0  0  0 | 0xff000021: 0 , 0 , 0 , 0 , 0 , 0 , 0 , 0 , 0 , 0 , 0 , 0 , 0 | 0xff000022:  160 ,   36 ,  136 ,  247 ,  240 ,  255 ,  245 ,  255 ,  254 ,  255 ,  139 ,  253 ,   17 ,   28 ,   83 ,   15 ,  116 ,  175 ,   11 ,   16 ,    7 ,  128 ,    0 ,    0 ,    0 ,  128 ,    0 ,    0 ,    0 ,    0 ,    9 ,    9 ,    0 ,    0 ,    0 ,    0 ,    0 ,   22 ,  201 ,   11 ,   16 ,   41 ,    8 ,    0 ,  143 ,  134 ,   89 ,  174 ,   47 ,  154 ,   99 ,   60 
E: 000000.008005 64 01 81 7d 82 7f 00 00 1e 08 00 00 00 a0 24 88 f7 f0 ff f5 ff fe ff 8b fd 11 1c 53 0f 74 af 0b 10 07 80 00 00 00 80 00 00 00 00 09 09 00 00 00 00 00 16 c9 0b 10 29 08 00 8f 86 59 ae 2f 9a 63 3c
# ReportID: 1 / X:  129 | Y:  126 | Z:  130 | Rz:  127 | Rx:    0 | Ry:    0 | 0xff000020:   31 | Hat switch:   8 | Button: 0  0  0  0  0  0  0  0  0  0  0  0  0  0  0 | 0xff000021: 0 , 0 , 0 , 0 , 0 , 0 , 0 , 0 , 0 , 0 , 0 , 0 , 0 | 0xff000022:  161 ,   36 ,  136 ,  247 ,  240 ,  255 ,  244 ,  255 ,    2 ,    0 ,  133 ,  253 ,   67 ,   28 ,   97 ,   15 ,   58 ,  222 ,   11 ,   16 ,    6 ,  128 ,    0 ,    0 ,    0 ,  128 ,    0 ,    0 ,    0 ,    0 ,    9 ,    9 ,    0 ,    0 ,    0 ,    0 ,    0 ,  246 ,  247 ,   11 ,   16 ,   41 ,    8 ,    0 ,   62 ,  201 ,  208 ,   90 ,  168 ,  114 ,  128 ,  122 
E: 000000.012003 64 01 81 7e 82 7f 00 00 1f 08 00 00 00 a1 24 88 f7 f0 ff f4 ff 02 00 85 fd 43 1c 61 0f 3a de 0b 10 06 80 00 00 00 80 00 00 00 00 09 09 00 00 00 00 00 f6 f7 0b 10 29 08 00 3e c9 d0 5a a8 72 80 7a
# ReportID: 1 / X:  130 | Y:  125 | Z:  130 | Rz:  127 | Rx:    0 | Ry:    0 | 0xff000020:   32 | Hat switch:   8 | Button: 0  0  0  0  0  0  0  0  0  0  0  0  0  0  0 | 0xff000021: 0 , 0 , 0 , 0 , 0 , 0 , 0 , 0 , 0 , 0 , 0 , 0 , 0 | 0xff000022:  162 ,   36 ,  136 ,  247 ,  241 ,  255 ,  243 ,  255 ,    7 ,    0 ,  147 ,  253 ,   63 ,   28 ,  123 ,   15 ,    0 ,   13 ,   12 ,   16 ,    6 ,  128 ,    0 ,    0 ,    0 ,  128 ,    0 ,    0 ,    0 ,    0 ,    9 ,    9 ,    0 ,    0 ,    0 ,    0 ,    0 ,  214 ,   38 ,   12 ,   16 ,   41 ,    8 ,    0 ,  142 ,    4 ,   61 ,   94 ,  216 ,  102 ,  122 ,  105 
E: 000000.016004 64 01 82 7d 82 7f 00 00 20 08 00 00 00 a2 24 88 f7 f1 ff f3 ff 07 00 93 fd 3f 1c 7b 0f 00 0d 0c 10 06 80 00 00 00 80 00 00 00 00 09 09 00 00 00 00 00 d6 26 0c 10 29 08 00 8e 04 3d 5e d8 66 7a 69
# ReportID: 1 / X:  129 | Y:  125 | Z:  130 | Rz:  127 | Rx:    0 | Ry:    0 | 0xff000020:   33 | Hat switch:   8 | Button: 0  0  0  0  0  0  0  0  0  0  0  0  0  0  0 | 0xff000021: 0 , 0 , 0 , 0 , 0 , 0 , 0 , 0 , 0 , 0 , 0 , 0 , 0 | 0xff000022:  163 ,   36 ,  136 ,  247 ,  243 ,  255 ,  243 ,  255 ,   11 ,    0 ,  151 ,  253 ,   72 ,   28 ,  127 ,   15 ,  198 ,   59 ,   12 ,   16 ,    7 ,  128 ,    0 ,    0 ,    0 ,  128 ,    0 ,    0 ,    0 ,    0 ,    9 ,    9 ,    0 ,    0 ,    0 ,    0 ,    0 ,  182 ,   85 ,   12 ,   16 ,   41 ,    8 ,    0 ,  169 ,  204 ,  171 ,   60 ,  231 ,  251 ,   31 ,  198 
E: 000000.020001 64 01 81 7d 82 7f 00 00 21 08 00 00 00 a3 24 88 f7 f3 ff f3 ff 0b 00 97 fd 48 1c 7f 0f c6 3b 0c 10 07 80 00 00 00 80 00 00 00 00 09 09 00 00 00 00 00 b6 55 0c 10 29 08 00 a9 cc ab 3c e7 fb 1f c6
# ReportID: 1 / X:  129 | Y:  125 | Z:  130 | Rz:  127 | Rx:    0 | Ry:    0 | 0xff000020:   34 | Hat switch:   8 | Button: 0  0  0  0  0  0  0  0  0  0  0  0  0  0  0 | 0xff000021: 0 , 0 , 0 , 0 , 0 , 0 , 0 , 0 , 0 , 0 , 0 , 0 , 0 | 0xff000022:  164 ,   36 ,  136 ,  247 ,  245 ,  255 ,  240 ,  255 ,   17 ,    0 ,  175 ,  253 ,   85 ,   28 ,  143 ,   15 ,  141 ,  106 ,   12 ,   16 ,    7 ,  128 ,    0 ,    0 ,    0 ,  128 ,    0 ,    0 ,    0 ,    0 ,    9 ,    9 ,    0 ,    0 ,    0 ,    0 ,    0 ,  150 ,  132 ,   12 ,   16 ,   41 ,    8 ,    0 ,  106 ,  219 ,  255 ,  118 ,   30 ,  234 ,   75 ,  191 
E: 000000.024002 64 01 81 7d 82 7f 00 00 22 08 00 00 00 a4 24 88 f7 f5 ff f0 ff 11 00 af fd 55 1c 8f 0f 8d 6a 0c 10 07 80 00 00 00 80 00 00 00 00 09 09 00 00 00 00 00 96 84 0c 10 29 08 00 6a db ff 76 1e ea 4b bf
# ReportID: 1 / X:  129 | Y:  125 | Z:  130 | Rz:  127 | Rx:    0 | Ry:    0 | 0xff000020:   35 | Hat switch:   8 | Button: 0  0  0  0  0  0  0  0  0  0  0  0  0  0  0 | 0xff000021: 0 , 0 , 0 , 0 , 0 , 0 , 0 , 0 , 0 , 0 , 0 , 0 , 0 | 0xff000022:  165 ,   36 ,  136 ,  247 ,  249 ,  255 ,  239 ,  255 ,   18 ,    0 ,  186 ,  253 ,   79 ,   28 ,  155 ,   15 ,   83 ,  153 ,   12 ,   16 ,    7 ,  128 ,    0 ,    0 ,    0 ,  128 ,    0 ,    0 ,    0 ,    0 ,    9 ,    9 ,    0 ,    0 ,    0 ,    0 ,    0 ,  118 ,  179 ,   12 ,   16 ,   41 ,    8 ,    0 ,  201 ,  153 ,  177 ,  161 ,  170 ,   90 ,  104 ,  186 
E: 000000.028003 64 01 81 7d 82 7f 00 00 23 08 00 00 00 a5 24 88 f7 f9 ff ef ff 12 00 ba fd 4f 1c 9b 0f 53 99 0c 10 07 80 00 00 00 80 00 00 00 00 09 09 00 00 00 00 00 76 b3 0c 10 29 08 00 c9 99 b1 a1 aa 5a 68 ba
# ReportID: 1 / X:  129 | Y:  126 | Z:  130 | Rz:  127 | Rx:    0 | Ry:    0 | 0xff000020:   36 | Hat switch:   8 | Button: 0  0  0  0  0  0  0  0  0  0  0  0  0  0  0 | 0xff000021: 0 , 0 , 0 , 0 , 0 , 0 , 0 , 0 , 0 , 0 , 0 , 0 , 0 | 0xff000022:  166 ,   36 ,  136 ,  247 ,  255 ,  255 ,  238 ,  255 ,   17 ,    0 ,  203 ,  253 ,   75 ,   28 ,  169 ,   15 ,   25 ,  200 ,   12 ,   16 ,    6 ,  128 ,    0 ,    0 ,    0 ,  128 ,    0 ,    0 ,    0 ,    0 ,    9 ,    9 ,    0 ,    0 ,    0 ,    0 ,    0 ,   86 ,  226 ,   12 ,   16 ,   41 ,    8 ,    0 ,  194 ,  168 ,   30 ,  126 ,   24 ,  210 ,  152 ,   94 
E: 000000.032003 64 01 81 7e 82 7f 00 00 24 08 00 00 00 a6 24 88 f7 ff ff ee ff 11 00 cb fd 4b 1c a9 0f 19 c8 0c 10 06 80 00 00 00 80 00 00 00 00 09 09 00 00 00 00 00 56 e2 0c 10 29 08 00 c2 a8 1e 7e 18 d2 98 5e
# ReportID: 1 / X:  130 | Y:  126 | Z:  130 | Rz:  127 | Rx:    0 | Ry:    0 | 0xff000020:   37 | Hat switch:   8 | Button: 0  0  0  0  0  0  0  0  0  0  0  0  0  0  0 | 0xff000021: 0 , 0 , 0 , 0 , 0 , 0 , 0 , 0 , 0 , 0 , 0 , 0 , 0 | 0xff000022:  167 ,   36 ,  136 ,  247 ,    5 ,    0 ,  237 ,  255 ,   18 ,    0 ,  213 ,  253 ,   56 ,   28 ,  174 ,   15 ,  224 ,  246 ,   12 ,   16 ,    6 ,  128 ,    0 ,    0 ,    0 ,  128 ,    0 ,    0 ,    0 ,    0 ,    9 ,    9 ,    0 ,    0 ,    0 ,    0 ,    0 ,   54 ,   17 ,   13 ,   16 ,   41 ,    8 ,    0 ,  238 ,  115 ,  196 ,   82 ,   16 ,  129 ,  225 ,   22 
E: 000000.036002 64 01 82 7e 82 7f 00 00 25 08 00 00 00 a7 24 88 f7 05 00 ed ff 12 00 d5 fd 38 1c ae 0f e0 f6 0c 10 06 80 00 00 00 80 00 00 00 00 09 09 00 00 00 00 00 36 11 0d 10 29 08 00 ee 73 c4 52 10 81 e1 16
# ReportID: 1 / X:  129 | Y:  125 | Z:  130 | Rz:  127 | Rx:    0 | Ry:    0 | 0xff000020:   38 | Hat switch:   8 | Button: 0  0  0  0  0  0  0  0  0  0  0  0  0  0  0 | 0xff000021: 0 , 0 , 0 , 0 , 0 , 0 , 0 , 0 , 0 , 0 , 0 , 0 , 0 | 0xff000022:  168 ,   36 ,  136 ,  247 ,    9 ,    0 ,  238 ,  255 ,   16 ,    0 ,  220 ,  253 ,   34 ,   28 ,  175 ,   15 ,  166 ,   37 ,   13 ,   16 ,    7 ,  128 ,    0 ,    0 ,    0 ,  128 ,    0 ,    0 ,    0 ,    0 ,    9 ,    9 ,    0 ,    0 ,    0 ,    0 ,    0 ,   22 ,   64 ,   13 ,   16 ,   41 ,    8 ,    0 ,   36 ,  161 ,  205 ,  167 ,  193 ,  131 ,  103 ,   10 
E: 000000.040002 64 01 81 7d 82 7f 00 00 26 08 00 00 00 a8 24 88 f7 09 00 ee ff 10 00 dc fd 22 1c af 0f a6 25 0d 10 07 80 00 00 00 80 00 00 00 00 09 09 00 00 00 00 00 16 40 0d 10 29 08 00 24 a1 cd a7 c1 83 67 0a
# ReportID: 1 / X:  130 | Y:  125 | Z:  130 | Rz:  127 | Rx:    0 | Ry:    0 | 0xff000020:   39 | Hat switch:   8 | Button: 0  0  0  0  0  0  0  0  0  0  0  0  0  0  0 | 0xff000021: 0 , 0 , 0 , 0 , 0 , 0 , 0 , 0 , 0 , 0 , 0 , 0 , 0 | 0xff000022:  169 ,   36 ,  136 ,  247 ,   16 ,    0 ,  239 ,  255 ,   13 ,    0 ,  230 ,  253 ,   17 ,   28 ,  166 ,   15 ,  108 ,   84 ,   13 ,   16 ,    6 ,  128 ,    0 ,    0 ,    0 ,  128 ,    0 ,    0 ,    0 ,    0 ,    9 ,    9 ,    0 ,    0 ,    0 ,    0 ,    0 ,  246 ,  110 ,   13 ,   16 ,   41 ,    8 ,    0 ,  176 ,   89 ,   40 ,  176 ,    7 ,  132 ,  222 ,  115 
E: 000000.044003 64 01 82 7d 82 7f 00 00 27 08 00 00 00 a9 24 88 f7 10 00 ef ff 0d 00 e6 fd 11 1c a6 0f 6c 54 0d 10 06 80 00 00 00 80 00 00 00 00 09 09 00 00 00 00 00 f6 6e 0d 10 29 08 00 b0 59 28 b0 07 84 de 73
# ReportID: 1 / X:  129 | Y:  125 | Z:  130 | Rz:  127 | Rx:    0 | Ry:    0 | 0xff000020:   40 | Hat switch:   8 | Button: 0  0  0  0  0  0  0  0  0  0  0  0  0  0  0 | 0xff000021: 0 , 0 , 0 , 0 , 0 , 0 , 0 , 0 , 0 , 0 , 0 , 0 , 0 | 0xff000022:  170 ,   36 ,  136 ,  247 ,   22 ,    0 ,  241 ,  255 ,    9 ,    0 ,  235 ,  253 ,  246 ,   27 ,  166 ,   15 ,   50 ,  131 ,   13 ,   16 ,    6 ,  128 ,    0 ,    0 ,    0 ,  128 ,    0 ,    0 ,    0 ,    0 ,    9 ,    9 ,    0 ,    0 ,    0 ,    0 ,    0 ,  214 ,  157 ,   13 ,   16 ,   41 ,    8 ,    0 ,  101 ,  120 ,  207 ,  139 ,  205 ,   40 ,   75 ,   91 
E: 000000.048002 64 01 81 7d 82 7f 00 00 28 08 00 00 00 aa 24 88 f7 16 00 f1 ff 09 00 eb fd f6 1b a6 0f 32 83 0d 10 06 80 00 00 00 80 00 00 00 00 09 09 00 00 00 00 00 d6 9d 0d 10 29 08 00 65 78 cf 8b cd 28 4b 5b
# ReportID: 1 / X:  129 | Y:  125 | Z:  130 | Rz:  127 | Rx:    0 | Ry:    0 | 0xff000020:   41 | Hat switch:   8 | Button: 0  0  0  0  0  0  0  0  0  0  0  0  0  0  0 | 0xff000021: 0 , 0 , 0 , 0 , 0 , 0 , 0 , 0 , 0 , 0 , 0 , 0 , 0 | 0xff000022:  171 ,   36 ,  136 ,  247 ,   27 ,    0 ,  243 ,  255 ,    5 ,    0 ,  251 ,  253 ,  234 ,   27 ,  140 ,   15 ,  249 ,  177 ,   13 ,   16 ,    6 ,  128 ,    0 ,    0 ,    0 ,  128 ,    0 ,    0 ,    0 ,    0 ,    9 ,    9 ,    0 ,    0 ,    0 ,    0 ,    0 ,  182 ,  204 ,   13 ,   16 ,   41 ,    8 ,    0 ,   30 ,  250 ,  102 ,  133 ,   59 ,   97 ,   63 ,   34 
E: 000000.052001 64 01 81 7d 82 7f 00 00 29 08 00 00 00 ab 24 88 f7 1b 00 f3 ff 05 00 fb fd ea 1b 8c 0f f9 b1 0d 10 06 80 00 00 00 80 00 00 00 00 09 09 00 00 00 00 00 b6 cc 0d 10 29 08 00 1e fa 66 85 3b 61 3f 22
# ReportID: 1 / X:  130 | Y:  126 | Z:  130 | Rz:  127 | Rx:    0 | Ry:    0 | 0xff000020:   42 | Hat switch:   8 | Button: 0  0  0  0  0  0  0  0  0  0  0  0  0  0  0 | 0xff000021: 0 , 0 , 0 , 0 , 0 , 0 , 0 , 0 , 0 , 0 , 0 , 0 , 0 | 0xff000022:  172 ,   36 ,  136 ,  247 ,   31 ,    0 ,  245 ,  255 ,    1 ,    0 ,   14 ,  254 ,  219 ,   27 ,  123 ,   15 ,  191 ,  224 ,   13 ,   16 ,    6 ,  128 ,    0 ,    0 ,    0 ,  128 ,    0 ,    0 ,    0 ,    0 ,    9 ,    9 ,    0 ,    0 ,    0 ,    0 ,    0 ,  150 ,  251 ,   13 ,   16 ,   41 ,    8 ,    0 ,  198 ,  106 ,  137 ,    2 ,  159 ,  184 ,  199 ,   99 
E: 000000.056004 64 01 82 7e 82 7f 00 00 2a 08 00 00 00 ac 24 88 f7 1f 00 f5 ff 01 00 0e fe db 1b 7b 0f bf e0 0d 10 06 80 00 00 00 80 00 00 00 00 09 09 00 00 00 00 00 96 fb 0d 10 29 08 00 c6 6a 89 02 9f b8 c7 63
# ReportID: 1 / X:  129 | Y:  125 | Z:  130 | Rz:  127 | Rx:    0 | Ry:    0 | 0xff000020:   43 | Hat switch:   8 | Button: 0  0  0  0  0  0  0  0  0  0  0  0  0  0  0 | 0xff000021: 0 , 0 , 0 , 0 , 0 , 0 , 0 , 0 , 0 , 0 , 0 , 0 , 0 | 0xff000022:  173 ,   36 ,  136 ,  247 ,   36 ,    0 ,  247 ,  255 ,  252 ,  255 ,   25 ,  254 ,  186 ,   27 ,  103 ,   15 ,  133 ,   15 ,   14 ,   16 ,    6 ,  128 ,    0 ,    0 ,    0 ,  128 ,    0 ,    0 ,    0 ,    0 ,    9 ,    9 ,    0 ,    0 ,    0 ,    0 ,    0 ,  118 ,   42 ,   14 ,   16 ,   41 ,    8 ,    0 ,  163 ,  216 ,  232 ,  118 ,   78 ,   78 ,  131 ,  220 
E: 000000.060001 64 01 81 7d 82 7f 00 00 2b 08 00 00 00 ad 24 88 f7 24 00 f7 ff fc ff 19 fe ba 1b 67 0f 85 0f 0e 10 06 80 00 00 00 80 00 00 00 00 09 09 00 00 00 00 00 76 2a 0e 10 29 08 00 a3 d8 e8 76 4e 4e 83 dc
# ReportID: 1 / X:  130 | Y:  125 | Z:  130 | Rz:  127 | Rx:    0 | Ry:    0 | 0xff000020:   44 | Hat switch:   8 | Button: 0  0  0  0  0  0  0  0  0  0  0  0  0  0  0 | 0xff000021: 0 , 0 , 0 , 0 , 0 , 0 , 0 , 0 , 0 , 0 , 0 , 0 , 0 | 0xff000022:  174 ,   36 ,  136 ,  247 ,   41 ,    0 ,  250 ,  255 ,  248 ,  255 ,   25 ,  254 ,  153 ,   27 ,   74 ,   15 ,   75 ,   62 ,   14 ,   16 ,    6 ,  128 ,    0 ,    0 ,    0 ,  128 ,    0 ,    0 ,    0 ,    0 ,    9 ,    9 ,    0 ,    0 ,    0 ,    0 ,    0 ,   86 ,   89 ,   14 ,   16 ,   41 ,    8 ,    0 ,    8 ,  157 ,   81 ,  122 ,  242 ,   27 ,  240 ,  250 
E: 000000.064000 64 01 82 7d 82 7f 00 00 2c 08 00 00 00 ae 24 88 f7 29 00 fa ff f8 ff 19 fe 99 1b 4a 0f 4b 3e 0e 10 06 80 00 00 00 80 00 00 00 00 09 09 00 00 00 00 00 56 59 0e 10 29 08 00 08 9d 51 7a f2 1b f0 fa
# ReportID: 1 / X:  130 | Y:  125 | Z:  130 | Rz:  127 | Rx:    0 | Ry:    0 | 0xff000020:   45 | Hat switch:   8 | Button: 0  0  0  0  0  0  0  0  0  0  0  0  0  0  0 | 0xff000021: 0 , 0 , 0 , 0 , 0 , 0 , 0 , 0 , 0 , 0 , 0 , 0 , 0 | 0xff000022:  175 ,   36 ,  136 ,  247 ,   44 ,    0 ,  253 ,  255 ,  243 ,  255 ,   34 ,  254 ,  133 ,   27 ,   48 ,   15 ,   18 ,  109 ,   14 ,   16 ,    6 ,  128 ,    0 ,    0 ,    0 ,  128 ,    0 ,    0 ,    0 ,    0 ,    9 ,    9 ,    0 ,    0 ,    0 ,    0 ,    0 ,   54 ,  136 ,   14 ,   16 ,   41 ,    8 ,    0 ,   70 ,   26 ,  200 ,   13 ,  207 ,  118 ,   60 ,   86 
E: 000000.068000 64 01 82 7d 82 7f 00 00 2d 08 00 00 00 af 24 88 f7 2c 00 fd ff f3 ff 22 fe 85 1b 30 0f 12 6d 0e 10 06 80 00 00 00 80 00 00 00 00 09 09 00 00 00 00 00 36 88 0e 10 29 08 00 46 1a c8 0d cf 76 3c 56
# ReportID: 1 / X:  130 | Y:  125 | Z:  130 | Rz:  127 | Rx:    0 | Ry:    0 | 0xff000020:   46 | Hat switch:   8 | Button: 0  0  0  0  0  0  0  0  0  0  0  0  0  0  0 | 0xff000021: 0 , 0 , 0 , 0 , 0 , 0 , 0 , 0 , 0 , 0 , 0 , 0 , 0 | 0xff000022:  176 ,   36 ,  136 ,  247 ,   46 ,    0 ,    0 ,    0 ,  239 ,  255 ,   43 ,  254 ,   90 ,   27 ,   21 ,   15 ,  216 ,  155 ,   14 ,   16 ,    7 ,  128 ,    0 ,    0 ,    0 ,  128 ,    0 ,    0 ,    0 ,    0 ,    9 ,    9 ,    0 ,    0 ,    0 ,    0 ,    0 ,   22 ,  183 ,   14 ,   16 ,   41 ,    8 ,    0 ,   67 ,  132 ,   26 ,   35 ,   12 ,  231 ,  151 ,  197 
E: 000000.072002 64 01 82 7d 82 7f 00 00 2e 08 00 00 00 b0 24 88 f7 2e 00 00 00 ef ff 2b fe 5a 1b 15 0f d8 9b 0e 10 07 80 00 00 00 80 00 00 00 00 09 09 00 00 00 00 00 16 b7 0e 10 29 08 00 43 84 1a 23 0c e7 97 c5
# ReportID: 1 / X:  130 | Y:  125 | Z:  130 | Rz:  127 | Rx:    0 | Ry:    0 | 0xff000020:   47 | Hat switch:   8 | Button: 0  0  0  0  0  0  0  0  0  0  0  0  0  0  0 | 0xff000021: 0 , 0 , 0 , 0 , 0 , 0 , 0 , 0 , 0 , 0 , 0 , 0 , 0 | 0xff000022:  177 ,   36 ,  136 ,  247 ,   47 ,    0 ,    5 ,    0 ,  237 ,  255 ,   55 ,  254 ,   79 ,   27 ,  239 ,   14 ,  158 ,  202 ,   14 ,   16 ,    7 ,  128 ,    0 ,    0 ,    0 ,  128 ,    0 ,    0 ,    0 ,    0 ,    9 ,    9 ,    0 ,    0 ,    0 ,    0 ,    0 ,  246 ,  229 ,   14 ,   16 ,   41 ,    8 ,    0 ,   51 ,  197 ,   28 ,  181 ,  101 ,  168 ,  166 ,  103 
E: 000000.076007 64 01 82 7d 82 7f 00 00 2f 08 00 00 00 b1 24 88 f7 2f 00 05 00 ed ff 37 fe 4f 1b ef 0e 9e ca 0e 10 07 80 00 00 00 80 00 00 00 00 09 09 00 00 00 00 00 f6 e5 0e 10 29 08 00 33 c5 1c b5 65 a8 a6 67
# ReportID: 1 / X:  130 | Y:  125 | Z:  130 | Rz:  127 | Rx:    0 | Ry:    0 | 0xff000020:   48 | Hat switch:   8 | Button: 0  0  0  0  0  0  0  0  0  0  0  0  0  0  0 | 0xff000021: 0 , 0 , 0 , 0 , 0 , 0 , 0 , 0 , 0 , 0 , 0 , 0 , 0 | 0xff000022:  178 ,   36 ,  136 ,  247 ,   46 ,    0 ,    7 ,    0 ,  236 ,  255 ,   68 ,  254 ,   70 ,   27 ,  210 ,   14 ,  101 ,  249 ,   14 ,   16 ,    7 ,  128 ,    0 ,    0 ,    0 ,  128 ,    0 ,    0 ,    0 ,    0 ,    9 ,    9 ,    0 ,    0 ,    0 ,    0 ,    0 ,  214 ,   20 ,   15 ,   16 ,   41 ,    8 ,    0 ,  106 ,  100 ,  165 ,  216 ,  203 ,  214 ,  180 ,  118 
E: 000000.080001 64 01 82 7d 82 7f 00 00 30 08 00 00 00 b2 24 88 f7 2e 00 07 00 ec ff 44 fe 46 1b d2 0e 65 f9 0e 10 07 80 00 00 00 80 00 00 00 00 09 09 00 00 00 00 00 d6 14 0f 10 29 08 00 6a 64 a5 d8 cb d6 b4 76
# ReportID: 1 / X:  130 | Y:  125 | Z:  130 | Rz:  127 | Rx:    0 | Ry:    0 | 0xff000020:   49 | Hat switch:   8 | Button: 0  0  0  0  0  0  0  0  0  0  0  0  0  0  0 | 0xff000021: 0 , 0 , 0 , 0 , 0 , 0 , 0 , 0 , 0 , 0 , 0 , 0 , 0 | 0xff000022:  179 ,   36 ,  136 ,  247 ,   46 ,    0 ,   11 ,    0 ,  233 ,  255 ,   82 ,  254 ,   59 ,   27 ,  186 ,   14 ,    4 ,   46 ,   15 ,   16 ,    7 ,  128 ,    0 ,    0 ,    0 ,  128 ,    0 ,    0 ,    0 ,    0 ,    9 ,    9 ,    0 ,    0 ,    0 ,    0 ,    0 ,  182 ,   67 ,   15 ,   16 ,   41 ,    8 ,    0 ,  211 ,  226 ,   32 ,  253 ,  126 ,  111 ,  214 ,   21 
E: 000000.084003 64 01 82 7d 82 7f 00 00 31 08 00 00 00 b3 24 88 f7 2e 00 0b 00 e9 ff 52 fe 3b 1b ba 0e 04 2e 0f 10 07 80 00 00 00 80 00 00 00 00 09 09 00 00 00 00 00 b6 43 0f 10 29 08 00 d3 e2 20 fd 7e 6f d6 15
# ReportID: 1 / X:  130 | Y:  125 | Z:  130 | Rz:  127 | Rx:    0 | Ry:    0 | 0xff000020:   50 | Hat switch:   8 | Button: 0  0  0  0  0  0  0  0  0  0  0  0  0  0  0 | 0xff000021: 0 , 0 , 0 , 0 , 0 , 0 , 0 , 0 , 0 , 0 , 0 , 0 , 0 | 0xff000022:  180 ,   36 ,  136 ,  247 ,   44 ,    0 ,   14 ,    0 ,  232 ,  255 ,   85 ,  254 ,   59 ,   27 ,  156 ,   14 ,  163 ,   98 ,   15 ,   16 ,    6 ,  128 ,    0 ,    0 ,    0 ,  128 ,    0 ,    0 ,    0 ,    0 ,    9 ,    9 ,    0 ,    0 ,    0 ,    0 ,    0 ,  150 ,  114 ,   15 ,   16 ,   41 ,    8 ,    0 ,   77 ,  205 ,    1 ,  214 ,  152 ,  185 ,    6 ,  101 
E: 000000.088004 64 01 82 7d 82 7f 00 00 32 08 00 00 00 b4 24 88 f7 2c 00 0e 00 e8 ff 55 fe 3b 1b 9c 0e a3 62 0f 10 06 80 00 00 00 80 00 00 00 00 09 09 00 00 00 00 00 96 72 0f 10 29 08 00 4d cd 01 d6 98 b9 06 65
# ReportID: 1 / X:  129 | Y:  125 | Z:  130 | Rz:  127 | Rx:    0 | Ry:    0 | 0xff000020:   51 | Hat switch:   8 | Button: 0  0  0  0  0  0  0  0  0  0  0  0  0  0  0 | 0xff000021: 0 , 0 , 0 , 0 , 0 , 0 , 0 , 0 , 0 , 0 , 0 , 0 , 0 | 0xff000022:  181 ,   36 ,  136 ,  247 ,   40 ,    0 ,   18 ,    0 ,  233 ,  255 ,   69 ,  254 ,   49 ,   27 ,  146 ,   14 ,  105 ,  145 ,   15 ,   16 ,    6 ,  128 ,    0 ,    0 ,    0 ,  128 ,    0 ,    0 ,    0 ,    0 ,    9 ,    9 ,    0 ,    0 ,    0 ,    0 ,    0 ,  118 ,  161 ,   15 ,   16 ,   41 ,    8 ,    0 ,  243 ,  251 ,   14 ,  203 ,  235 ,   74 ,  153 ,    4 
E: 000000.092006 64 01 81 7d 82 7f 00 00 33 08 00 00 00 b5 24 88 f7 28 00 12 00 e9 ff 45 fe 31 1b 92 0e 69 91 0f 10 06 80 00 00 00 80 00 00 00 00 09 09 00 00 00 00 00 76 a1 0f 10 29 08 00 f3 fb 0e cb eb 4a 99 04
# ReportID: 1 / X:  130 | Y:  125 | Z:  130 | Rz:  127 | Rx:    0 | Ry:    0 | 0xff000020:   52 | Hat switch:   8 | Button: 0  0  0  0  0  0  0  0  0  0  0  0  0  0  0 | 0xff000021: 0 , 0 , 0 , 0 , 0 , 0 , 0 , 0 , 0 , 0 , 0 , 0 , 0 | 0xff000022:  182 ,   36 ,  136 ,  247 ,   35 ,    0 ,   20 ,    0 ,  235 ,  255 ,   64 ,  254 ,   54 ,   27 ,  121 ,   14 ,   47 ,  192 ,   15 ,   16 ,    6 ,  128 ,    0 ,    0 ,    0 ,  128 ,    0 ,    0 ,    0 ,    0 ,    9 ,    9 ,    0 ,    0 ,    0 ,    0 ,    0 ,   86 ,  208 ,   15 ,   16 ,   41 ,    8 ,    0 ,    8 ,  154 ,   88 ,  238 ,  181 ,   19 ,   42 ,  220 
E: 000000.096004 64 01 82 7d 82 7f 00 00 34 08 00 00 00 b6 24 88 f7 23 00 14 00 eb ff 40 fe 36 1b 79 0e 2f c0 0f 10 06 80 00 00 00 80 00 00 00 00 09 09 00 00 00 00 00 56 d0 0f 10 29 08 00 08 9a 58 ee b5 13 2a dc
# ReportID: 1 / X:  130 | Y:  125 | Z:  130 | Rz:  127 | Rx:    0 | Ry:    0 | 0xff000020:   53 | Hat switch:   8 | Button: 0  0  0  0  0  0  0  0  0  0  0  0  0  0  0 | 0xff000021: 0 , 0 , 0 , 0 , 0 , 0 , 0 , 0 , 0 , 0 , 0 , 0 , 0 | 0xff000022:  183 ,   36 ,  136 ,  247 ,   30 ,    0 ,   21 ,    0 ,  236 ,  255 ,   50 ,  254 ,   46 ,   27 ,  109 ,   14 ,  245 ,  238 ,   15 ,   16 ,    6 ,  128 ,    0 ,    0 ,    0 ,  128 ,    0 ,    0 ,    0 ,    0 ,    9 ,    9 ,    0 ,    0 ,    0 ,    0 ,    0 ,   55 ,  255 ,   15 ,   16 ,   41 ,    8 ,    0 ,    6 ,   99 ,  151 ,  146 ,  155 ,  211 ,   91 ,  230 
E: 000000.100002 64 01 82 7d 82 7f 00 00 35 08 00 00 00 b7 24 88 f7 1e 00 15 00 ec ff 32 fe 2e 1b 6d 0e f5 ee 0f 10 06 80 00 00 00 80 00 00 00 00 09 09 00 00 00 00 00 37 ff 0f 10 29 08 00 06 63 97 92 9b d3 5b e6
# ReportID: 1 / X:  129 | Y:  125 | Z:  130 | Rz:  127 | Rx:    0 | Ry:    0 | 0xff000020:   54 | Hat switch:   8 | Button: 0  0  0  0  0  0  0  0  0  0  0  0  0  0  0 | 0xff000021: 0 , 0 , 0 , 0 , 0 , 0 , 0 , 0 , 0 , 0 , 0 , 0 , 0 | 0xff000022:  184 ,   36 ,  136 ,  247 ,   20 ,    0 ,   22 ,    0 ,  239 ,  255 ,   36 ,  254 ,   55 ,   27 ,   97 ,   14 ,  188 ,   29 ,   16 ,   16 ,    6 ,  128 ,    0 ,    0 ,    0 ,  128 ,    0 ,    0 ,    0 ,    0 ,    9 ,    9 ,    0 ,    0 ,    0 ,    0 ,    0 ,   22 ,   46 ,   16 ,   16 ,   41 ,    8 ,    0 ,  121 ,  229 ,    6 ,  212 ,   85 ,   20 ,  209 ,  169 
E: 000000.104005 64 01 81 7d 82 7f 00 00 36 08 00 00 00 b8 24 88 f7 14 00 16 00 ef ff 24 fe 37 1b 61 0e bc 1d 10 10 06 80 00 00 00 80 00 00 00 00 09 09 00 00 00 00 00 16 2e 10 10 29 08 00 79 e5 06 d4 55 14 d1 a9
# ReportID: 1 / X:  130 | Y:  125 | Z:  130 | Rz:  127 | Rx:    0 | Ry:    0 | 0xff000020:   55 | Hat switch:   8 | Button: 0  0  0  0  0  0  0  0  0  0  0  0  0  0  0 | 0xff000021: 0 , 0 , 0 , 0 , 0 , 0 , 0 , 0 , 0 , 0 , 0 , 0 , 0 | 0xff000022:  185 ,   36 ,  136 ,  247 ,   10 ,    0 ,   23 ,    0 ,  243 ,  255 ,   17 ,  254 ,   67 ,   27 ,  102 ,   14 ,  130 ,   76 ,   16 ,   16 ,    6 ,  128 ,    0 ,    0 ,    0 ,  128 ,    0 ,    0 ,    0 ,    0 ,    9 ,    9 ,    0 ,    0 ,    0 ,    0 ,    0 ,  246 ,   92 ,   16 ,   16 ,   41 ,    8 ,    0 ,  127 ,  185 ,  238 ,   54 ,  156 ,  126 ,  198 ,  200 
E: 000000.108006 64 01 82 7d 82 7f 00 00 37 08 00 00 00 b9 24 88 f7 0a 00 17 00 f3 ff 11 fe 43 1b 66 0e 82 4c 10 10 06 80 00 00 00 80 00 00 00 00 09 09 00 00 00 00 00 f6 5c 10 10 29 08 00 7f b9 ee 36 9c 7e c6 c8
# ReportID: 1 / X:  129 | Y:  125 | Z:  130 | Rz:  127 | Rx:    0 | Ry:    0 | 0xff000020:   56 | Hat switch:   8 | Button: 0  0  0  0  0  0  0  0  0  0  0  0  0  0  0 | 0xff000021: 0 , 0 , 0 , 0 , 0 , 0 , 0 , 0 , 0 , 0 , 0 , 0 , 0 | 0xff000022:  186 ,   36 ,  136 ,  247 ,  254 ,  255 ,   22 ,    0 ,  247 ,  255 ,  255 ,  253 ,   88 ,   27 ,  118 ,   14 ,   72 ,  123 ,   16 ,   16 ,    6 ,  128 ,    0 ,    0 ,    0 ,  128 ,    0 ,    0 ,    0 ,    0 ,    9 ,    9 ,    0 ,    0 ,    0 ,    0 ,    0 ,  214 ,  139 ,   16 ,   16 ,   41 ,    8 ,    0 ,  178 ,  155 ,  179 ,  224 ,   42 ,  237 ,  111 ,  148 
E: 000000.112002 64 01 81 7d 82 7f 00 00 38 08 00 00 00 ba 24 88 f7 fe ff 16 00 f7 ff ff fd 58 1b 76 0e 48 7b 10 10 06 80 00 00 00 80 00 00 00 00 09 09 00 00 00 00 00 d6 8b 10 10 29 08 00 b2 9b b3 e0 2a ed 6f 94
# ReportID: 1 / X:  129 | Y:  125 | Z:  130 | Rz:  127 | Rx:    0 | Ry:    0 | 0xff000020:   57 | Hat switch:   8 | Button: 0  0  0  0  0  0  0  0  0  0  0  0  0  0  0 | 0xff000021: 0 , 0 , 0 , 0 , 0 , 0 , 0 , 0 , 0 , 0 , 0 , 0 , 0 | 0xff000022:  187 ,   36 ,  136 ,  247 ,  246 ,  255 ,   21 ,    0 ,  251 ,  255 ,  229 ,  253 ,  117 ,   27 ,  130 ,   14 ,   15 ,  170 ,   16 ,   16 ,    6 ,  128 ,    0 ,    0 ,    0 ,  128 ,    0 ,    0 ,    0 ,    0 ,    9 ,    9 ,    0 ,    0 ,    0 ,    0 ,    0 ,  182 ,  186 ,   16 ,   16 ,   41 ,    8 ,    0 ,  227 ,  117 ,  184 ,  222 ,    8 ,   94 ,  221 ,   77 
E: 000000.116002 64 01 81 7d 82 7f 00 00 39 08 00 00 00 bb 24 88 f7 f6 ff 15 00 fb ff e5 fd 75 1b 82 0e 0f aa 10 10 06 80 00 00 00 80 00 00 00 00 09 09 00 00 00 00 00 b6 ba 10 10 29 08 00 e3 75 b8 de 08 5e dd 4d
# ReportID: 1 / X:  129 | Y:  125 | Z:  130 | Rz:  127 | Rx:    0 | Ry:    0 | 0xff000020:   58 | Hat switch:   8 | Button: 0  0  0  0  0  0  0  0  0  0  0  0  0  0  0 | 0xff000021: 0 , 0 , 0 , 0 , 0 , 0 , 0 , 0 , 0 , 0 , 0 , 0 , 0 | 0xff000022:  188 ,   36 ,  136 ,  247 ,  236 ,  255 ,   19 ,    0 ,    0 ,    0 ,  200 ,  253 ,  136 ,   27 ,  146 ,   14 ,  213 ,  216 ,   16 ,   16 ,    6 ,  128 ,    0 ,    0 ,    0 ,  128 ,    0 ,    0 ,    0 ,    0 ,    9 ,    9 ,    0 ,    0 ,    0 ,    0 ,    0 ,  150 ,  233 ,   16 ,   16 ,   41 ,    8 ,    0 ,   83 ,  136 ,  222 ,   82 ,   88 ,  234 ,   35 ,  140 
E: 000000.120004 64 01 81 7d 82 7f 00 00 3a 08 00 00 00 bc 24 88 f7 ec ff 13 00 00 00 c8 fd 88 1b 92 0e d5 d8 10 10 06 80 00 00 00 80 00 00 00 00 09 09 00 00 00 00 00 96 e9 10 10 29 08 00 53 88 de 52 58 ea 23 8c
# ReportID: 1 / X:  129 | Y:  125 | Z:  130 | Rz:  127 | Rx:    0 | Ry:    0 | 0xff000020:   59 | Hat switch:   8 | Button: 0  0  0  0  0  0  0  0  0  0  0  0  0  0  0 | 0xff000021: 0 , 0 , 0 , 0 , 0 , 0 , 0 , 0 , 0 , 0 , 0 , 0 , 0 | 0xff000022:  189 ,   36 ,  136 ,  247 ,  226 ,  255 ,   16 ,    0 ,    2 ,    0 ,  180 ,  253 ,  171 ,   27 ,  174 ,   14 ,  155 ,    7 ,   17 ,   16 ,    6 ,  128 ,    0 ,    0 ,    0 ,  128 ,    0 ,    0 ,    0 ,    0 ,    9 ,    9 ,    0 ,    0 ,    0 ,    0 ,    0 ,  118 ,   24 ,   17 ,   16 ,   41 ,    8 ,    0 ,  241 ,   84 ,  158 ,   43 ,   41 ,  185 ,  117 ,   53 
E: 000000.124004 64 01 81 7d 82 7f 00 00 3b 08 00 00 00 bd 24 88 f7 e2 ff 10 00 02 00 b4 fd ab 1b ae 0e 9b 07 11 10 06 80 00 00 00 80 00 00 00 00 09 09 00 00 00 00 00 76 18 11 10 29 08 00 f1 54 9e 2b 29 b9 75 35
# ReportID: 1 / X:  129 | Y:  125 | Z:  130 | Rz:  127 | Rx:    0 | Ry:    0 | 0xff000020:   60 | Hat switch:   8 | Button: 0  0  0  0  0  0  0  0  0  0  0  0  0  0  0 | 0xff000021: 0 , 0 , 0 , 0 , 0 , 0 , 0 , 0 , 0 , 0 , 0 , 0 , 0 | 0xff000022:  190 ,   36 ,  136 ,  247 ,  220 ,  255 ,   15 ,    0 ,    7 ,    0 ,  150 ,  253 ,  194 ,   27 ,  214 ,   14 ,   97 ,   54 ,   17 ,   16 ,    6 ,  128 ,    0 ,    0 ,    0 ,  128 ,    0 ,    0 ,    0 ,    0 ,    9 ,    9 ,    0 ,    0 ,    0 ,    0 ,    0 ,   86 ,   71 ,   17 ,   16 ,   41 ,    8 ,    0 ,  207 ,   56 ,   15 ,   10 ,  135 ,  121 ,  240 ,  110 
E: 000000.128004 64 01 81 7d 82 7f 00 00 3c 08 00 00 00 be 24 88 f7 dc ff 0f 00 07 00 96 fd c2 1b d6 0e 61 36 11 10 06 80 00 00 00 80 00 00 00 00 09 09 00 00 00 00 00 56 47 11 10 29 08 00 cf 38 0f 0a 87 79 f0 6e
# ReportID: 1 / X:  129 | Y:  125 | Z:  130 | Rz:  127 | Rx:    0 | Ry:    0 | 0xff000020:   61 | Hat switch:   8 | Button: 0  0  0  0  0  0  0  0  0  0  0  0  0  0  0 | 0xff000021: 0 , 0 , 0 , 0 , 0 , 0 , 0 , 0 , 0 , 0 , 0 , 0 , 0 | 0xff000022:  191 ,   36 ,  136 ,  247 ,  214 ,  255 ,   12 ,    0 ,   10 ,    0 ,  130 ,  253 ,  220 ,   27 ,  246 ,   14 ,   40 ,  101 ,   17 ,   16 ,    6 ,  128 ,    0 ,    0 ,    0 ,  128 ,    0 ,    0 ,    0 ,    0 ,    9 ,    9 ,    0 ,    0 ,    0 ,    0 ,    0 ,   54 ,  118 ,   17 ,   16 ,   41 ,    8 ,    0 ,  162 ,    6 ,    5 ,  119 ,  178 ,  254 ,  239 ,  203 
E: 000000.132004 64 01 81 7d 82 7f 00 00 3d 08 00 00 00 bf 24 88 f7 d6 ff 0c 00 0a 00 82 fd dc 1b f6 0e 28 65 11 10 06 80 00 00 00 80 00 00 00 00 09 09 00 00 00 00 00 36 76 11 10 29 08 00 a2 06 05 77 b2 fe ef cb
# ReportID: 1 / X:  129 | Y:  126 | Z:  130 | Rz:  127 | Rx:    0 | Ry:    0 | 0xff000020:   62 | Hat switch:   8 | Button: 0  0  0  0  0  0  0  0  0  0  0  0  0  0  0 | 0xff000021: 0 , 0 , 0 , 0 , 0 , 0 , 0 , 0 , 0 , 0 , 0 , 0 , 0 | 0xff000022:  192 ,   36 ,  136 ,  247 ,  210 ,  255 ,   10 ,    0 ,   13 ,    0 ,   94 ,  253 ,  243 ,   27 ,   26 ,   15 ,  238 ,  147 ,   17 ,   16 ,    7 ,  128 ,    0 ,    0 ,    0 ,  128 ,    0 ,    0 ,    0 ,    0 ,    9 ,    9 ,    0 ,    0 ,    0 ,    0 ,    0 ,   22 ,  165 ,   17 ,   16 ,   41 ,    8 ,    0 ,  255 ,  220 ,   80 ,   37 ,  133 ,   63 ,   29 ,  224 
E: 000000.136005 64 01 81 7e 82 7f 00 00 3e 08 00 00 00 c0 24 88 f7 d2 ff 0a 00 0d 00 5e fd f3 1b 1a 0f ee 93 11 10 07 80 00 00 00 80 00 00 00 00 09 09 00 00 00 00 00 16 a5 11 10 29 08 00 ff dc 50 25 85 3f 1d e0
# ReportID: 1 / X:  130 | Y:  125 | Z:  130 | Rz:  127 | Rx:    0 | Ry:    0 | 0xff000020:   63 | Hat switch:   8 | Button: 0  0  0  0  0  0  0  0  0  0  0  0  0  0  0 | 0xff000021: 0 , 0 , 0 , 0 , 0 , 0 , 0 , 0 , 0 , 0 , 0 , 0 , 0 | 0xff000022:  193 ,   36 ,  136 ,  247 ,  210 ,  255 ,    7 ,    0 ,   16 ,    0 ,   76 ,  253 ,   17 ,   28 ,   50 ,   15 ,  180 ,  194 ,   17 ,   16 ,    6 ,  128 ,    0 ,    0 ,    0 ,  128 ,    0 ,    0 ,    0 ,    0 ,    9 ,    9 ,    0 ,    0 ,    0 ,    0 ,    0 ,  246 ,  211 ,   17 ,   16 ,   41 ,    8 ,    0 ,  199 ,   80 ,  146 ,  230 ,   27 ,  178 ,  165 ,   27 
E: 000000.140004 64 01 82 7d 82 7f 00 00 3f 08 00 00 00 c1 24 88 f7 d2 ff 07 00 10 00 4c fd 11 1c 32 0f b4 c2 11 10 06 80 00 00 00 80 00 00 00 00 09 09 00 00 00 00 00 f6 d3 11 10 29 08 00 c7 50 92 e6 1b b2 a5 1b
# ReportID: 1 / X:  129 | Y:  125 | Z:  130 | Rz:  127 | Rx:    0 | Ry:    0 | 0xff000020:   64 | Hat switch:   8 | Button: 0  0  0  0  0  0  0  0  0  0  0  0  0  0  0 | 0xff000021: 0 , 0 , 0 , 0 , 0 , 0 , 0 , 0 , 0 , 0 , 0 , 0 , 0 | 0xff000022:  194 ,   36 ,  136 ,  247 ,  210 ,  255 ,    5 ,    0 ,   18 ,    0 ,   51 ,  253 ,   28 ,   28 ,   90 ,   15 ,  122 ,  241 ,   17 ,   16 ,    6 ,  128 ,    0 ,    0 ,    0 ,  128 ,    0 ,    0 ,    0 ,    0 ,    9 ,    9 ,    0 ,    0 ,    0 ,    0 ,    0 ,  214 ,    2 ,   18 ,   16 ,   41 ,    8 ,    0 ,   48 ,  108 ,   84 ,   68 ,  196 ,  236 ,  165 ,  145 
E: 000000.144004 64 01 81 7d 82 7f 00 00 40 08 00 00 00 c2 24 88 f7 d2 ff 05 00 12 00 33 fd 1c 1c 5a 0f 7a f1 11 10 06 80 00 00 00 80 00 00 00 00 09 09 00 00 00 00 00 d6 02 12 10 29 08 00 30 6c 54 44 c4 ec a5 91
# ReportID: 1 / X:  129 | Y:  126 | Z:  130 | Rz:  127 | Rx:    0 | Ry:    0 | 0xff000020:   65 | Hat switch:   8 | Button: 0  0  0  0  0  0  0  0  0  0  0  0  0  0  0 | 0xff000021: 0 , 0 , 0 , 0 , 0 , 0 , 0 , 0 , 0 , 0 , 0 , 0 , 0 | 0xff000022:  195 ,   36 ,  136 ,  247 ,  213 ,  255 ,    1 ,    0 ,   18 ,    0 ,   41 ,  253 ,   41 ,   28 ,  110 ,   15 ,   65 ,   32 ,   18 ,   16 ,    6 ,  128 ,    0 ,    0 ,    0 ,  128 ,    0 ,    0 ,    0 ,    0 ,    9 ,    9 ,    0 ,    0 ,    0 ,    0 ,    0 ,  182 ,   49 ,   18 ,   16 ,   41 ,    8 ,    0 ,  100 ,   94 ,   14 ,   80 ,   57 ,  179 ,  125 ,  126 
E: 000000.148003 64 01 81 7e 82 7f 00 00 41 08 00 00 00 c3 24 88 f7 d5 ff 01 00 12 00 29 fd 29 1c 6e 0f 41 20 12 10 06 80 00 00 00 80 00 00 00 00 09 09 00 00 00 00 00 b6 31 12 10 29 08 00 64 5e 0e 50 39 b3 7d 7e
# ReportID: 1 / X:  129 | Y:  125 | Z:  130 | Rz:  127 | Rx:    0 | Ry:    0 | 0xff000020:   66 | Hat switch:   8 | Button: 0  0  0  0  0  0  0  0  0  0  0  0  0  0  0 | 0xff000021: 0 , 0 , 0 , 0 , 0 , 0 , 0 , 0 , 0 , 0 , 0 , 0 , 0 | 0xff000022:  196 ,   36 ,  136 ,  247 ,  217 ,  255 ,  255 ,  255 ,   20 ,    0 ,   22 ,  253 ,   54 ,   28 ,  145 ,   15 ,    7 ,   79 ,   18 ,   16 ,    6 ,  128 ,    0 ,    0 ,    0 ,  128 ,    0 ,    0 ,    0 ,    0 ,    9 ,    9 ,    0 ,    0 ,    0 ,    0 ,    0 ,  153 ,   96 ,   18 ,   16 ,   41 ,    8 ,    0 ,   12 ,   10 ,   26 ,  233 ,   28 ,  195 ,  212 ,    4 
E: 000000.152003 64 01 81 7d 82 7f 00 00 42 08 00 00 00 c4 24 88 f7 d9 ff ff ff 14 00 16 fd 36 1c 91 0f 07 4f 12 10 06 80 00 00 00 80 00 00 00 00 09 09 00 00 00 00 00 99 60 12 10 29 08 00 0c 0a 1a e9 1c c3 d4 04
# ReportID: 1 / X:  130 | Y:  125 | Z:  130 | Rz:  127 | Rx:    0 | Ry:    0 | 0xff000020:   67 | Hat switch:   8 | Button: 0  0  0  0  0  0  0  0  0  0  0  0  0  0  0 | 0xff000021: 0 , 0 , 0 , 0 , 0 , 0 , 0 , 0 , 0 , 0 , 0 , 0 , 0 | 0xff000022:  197 ,   36 ,  136 ,  247 ,  220 ,  255 ,  252 ,  255 ,   19 ,    0 ,    7 ,  253 ,   57 ,   28 ,  154 ,   15 ,  205 ,  125 ,   18 ,   16 ,    7 ,  128 ,    0 ,    0 ,    0 ,  128 ,    0 ,    0 ,    0 ,    0 ,    9 ,    9 ,    0 ,    0 ,    0 ,    0 ,    0 ,  118 ,  143 ,   18 ,   16 ,   41 ,    8 ,    0 ,  204 ,   37 ,  145 ,   19 ,  238 ,  196 ,   32 ,   79 
E: 000000.156003 64 01 82 7d 82 7f 00 00 43 08 00 00 00 c5 24 88 f7 dc ff fc ff 13 00 07 fd 39 1c 9a 0f cd 7d 12 10 07 80 00 00 00 80 00 00 00 00 09 09 00 00 00 00 00 76 8f 12 10 29 08 00 cc 25 91 13 ee c4 20 4f
# ReportID: 1 / X:  130 | Y:  125 | Z:  130 | Rz:  127 | Rx:    0 | Ry:    0 | 0xff000020:   68 | Hat switch:   8 | Button: 0  0  0  0  0  0  0  0  0  0  0  0  0  0  0 | 0xff000021: 0 , 0 , 0 , 0 , 0 , 0 , 0 , 0 , 0 , 0 , 0 , 0 , 0 | 0xff000022:  198 ,   36 ,  136 ,  247 ,  225 ,  255 ,  250 ,  255 ,   19 ,    0 ,  250 ,  252 ,   62 ,   28 ,  181 ,   15 ,  148 ,  172 ,   18 ,   16 ,    7 ,  128 ,    0 ,    0 ,    0 ,  128 ,    0 ,    0 ,    0 ,    0 ,    9 ,    9 ,    0 ,    0 ,    0 ,    0 ,    0 ,   86 ,  190 ,   18 ,   16 ,   41 ,    8 ,    0 ,    8 ,   92 ,  138 ,   97 ,  168 ,  199 ,   76 ,   76 
E: 000000.160014 64 01 82 7d 82 7f 00 00 44 08 00 00 00 c6 24 88 f7 e1 ff fa ff 13 00 fa fc 3e 1c b5 0f 94 ac 12 10 07 80 00 00 00 80 00 00 00 00 09 09 00 00 00 00 00 56 be 12 10 29 08 00 08 5c 8a 61 a8 c7 4c 4c
# ReportID: 1 / X:  129 | Y:  126 | Z:  130 | Rz:  127 | Rx:    0 | Ry:    0 | 0xff000020:   69 | Hat switch:   8 | Button: 0  0  0  0  0  0  0  0  0  0  0  0  0  0  0 | 0xff000021: 0 , 0 , 0 , 0 , 0 , 0 , 0 , 0 , 0 , 0 , 0 , 0 , 0 | 0xff000022:  199 ,   36 ,  136 ,  247 ,  233 ,  255 ,  248 ,  255 ,   17 ,    0 ,  252 ,  252 ,   63 ,   28 ,  183 ,   15 ,   90 ,  219 ,   18 ,   16 ,    6 ,  128 ,    0 ,    0 ,    0 ,  128 ,    0 ,    0 ,    0 ,    0 ,    9 ,    9 ,    0 ,    0 ,    0 ,    0 ,    0 ,   54 ,  237 ,   18 ,   16 ,   41 ,    8 ,    0 ,  128 ,  102 ,   72 ,  192 ,  246 ,   67 ,   41 ,  186 
E: 000000.164004 64 01 81 7e 82 7f 00 00 45 08 00 00 00 c7 24 88 f7 e9 ff f8 ff 11 00 fc fc 3f 1c b7 0f 5a db 12 10 06 80 00 00 00 80 00 00 00 00 09 09 00 00 00 00 00 36 ed 12 10 29 08 00 80 66 48 c0 f6 43 29 ba
# ReportID: 1 / X:  130 | Y:  125 | Z:  130 | Rz:  127 | Rx:    0 | Ry:    0 | 0xff000020:   70 | Hat switch:   8 | Button: 0  0  0  0  0  0  0  0  0  0  0  0  0  0  0 | 0xff000021: 0 , 0 , 0 , 0 , 0 , 0 , 0 , 0 , 0 , 0 , 0 , 0 , 0 | 0xff000022:  200 ,   36 ,  136 ,  247 ,  239 ,  255 ,  245 ,  255 ,   17 ,    0 ,   13 ,  253 ,   51 ,   28 ,  200 ,   15 ,   32 ,   10 ,   19 ,   16 ,    6 ,  128 ,    0 ,    0 ,    0 ,  128 ,    0 ,    0 ,    0 ,    0 ,    9 ,    9 ,    0 ,    0 ,    0 ,    0 ,    0 ,   22 ,   28 ,   19 ,   16 ,   41 ,    8 ,    0 ,   52 ,  133 ,  103 ,  228 ,    5 ,  139 ,  164 ,  246 
E: 000000.168001 64 01 82 7d 82 7f 00 00 46 08 00 00 00 c8 24 88 f7 ef ff f5 ff 11 00 0d fd 33 1c c8 0f 20 0a 13 10 06 80 00 00 00 80 00 00 00 00 09 09 00 00 00 00 00 16 1c 13 10 29 08 00 34 85 67 e4 05 8b a4 f6
# ReportID: 1 / X:  129 | Y:  125 | Z:  130 | Rz:  127 | Rx:    0 | Ry:    0 | 0xff000020:   71 | Hat switch:   8 | Button: 0  0  0  0  0  0  0  0  0  0  0  0  0  0  0 | 0xff000021: 0 , 0 , 0 , 0 , 0 , 0 , 0 , 0 , 0 , 0 , 0 , 0 , 0 | 0xff000022:  201 ,   36 ,  136 ,  247 ,  245 ,  255 ,  244 ,  255 ,   14 ,    0 ,   20 ,  253 ,   41 ,   28 ,  197 ,   15 ,  230 ,   56 ,   19 ,   16 ,    6 ,  128 ,    0 ,    0 ,    0 ,  128 ,    0 ,    0 ,    0 ,    0 ,    9 ,    9 ,    0 ,    0 ,    0 ,    0 ,    0 ,  246 ,   74 ,   19 ,   16 ,   41 ,    8 ,    0 ,  136 ,  206 ,  158 ,  132 ,   70 ,   84 ,   13 ,  163 
E: 000000.172001 64 01 81 7d 82 7f 00 00 47 08 00 00 00 c9 24 88 f7 f5 ff f4 ff 0e 00 14 fd 29 1c c5 0f e6 38 13 10 06 80 00 00 00 80 00 00 00 00 09 09 00 00 00 00 00 f6 4a 13 10 29 08 00 88 ce 9e 84 46 54 0d a3
# ReportID: 1 / X:  130 | Y:  125 | Z:  130 | Rz:  127 | Rx:    0 | Ry:    0 | 0xff000020:   72 | Hat switch:   8 | Button: 0  0  0  0  0  0  0  0  0  0  0  0  0  0  0 | 0xff000021: 0 , 0 , 0 , 0 , 0 , 0 , 0 , 0 , 0 , 0 , 0 , 0 , 0 | 0xff000022:  202 ,   36 ,  136 ,  247 ,  254 ,  255 ,  243 ,  255 ,   13 ,    0 ,   38 ,  253 ,   27 ,   28 ,  194 ,   15 ,  173 ,  103 ,   19 ,   16 ,    6 ,  128 ,    0 ,    0 ,    0 ,  128 ,    0 ,    0 ,    0 ,    0 ,    9 ,    9 ,    0 ,    0 ,    0 ,    0 ,    0 ,  214 ,  121 ,   19 ,   16 ,   41 ,    8 ,    0 ,  226 ,  162 ,   11 ,  249 ,   10 ,    8 ,   95 ,   44 
E: 000000.176004 64 01 82 7d 82 7f 00 00 48 08 00 00 00 ca 24 88 f7 fe ff f3 ff 0d 00 26 fd 1b 1c c2 0f ad 67 13 10 06 80 00 00 00 80 00 00 00 00 09 09 00 00 00 00 00 d6 79 13 10 29 08 00 e2 a2 0b f9 0a 08 5f 2c
# ReportID: 1 / X:  130 | Y:  125 | Z:  130 | Rz:  127 | Rx:    0 | Ry:    0 | 0xff000020:   73 | Hat switch:   8 | Button: 0  0  0  0  0  0  0  0  0  0  0  0  0  0  0 | 0xff000021: 0 , 0 , 0 , 0 , 0 , 0 , 0 , 0 , 0 , 0 , 0 , 0 , 0 | 0xff000022:  203 ,   36 ,  136 ,  247 ,    5 ,    0 ,  242 ,  255 ,   10 ,    0 ,   66 ,  253 ,    6 ,   28 ,  190 ,   15 ,  115 ,  150 ,   19 ,   16 ,    6 ,  128 ,    0 ,    0 ,    0 ,  128 ,    0 ,    0 ,    0 ,    0 ,    9 ,    9 ,    0 ,    0 ,    0 ,    0 ,    0 ,  182 ,  168 ,   19 ,   16 ,   41 ,    8 ,    0 ,   41 ,   79 ,  164 ,   22 ,   94 ,  199 ,  159 ,   66 
E: 000000.180004 64 01 82 7d 82 7f 00 00 49 08 00 00 00 cb 24 88 f7 05 00 f2 ff 0a 00 42 fd 06 1c be 0f 73 96 13 10 06 80 00 00 00 80 00 00 00 00 09 09 00 00 00 00 00 b6 a8 13 10 29 08 00 29 4f a4 16 5e c7 9f 42
# ReportID: 1 / X:  129 | Y:  125 | Z:  130 | Rz:  127 | Rx:    0 | Ry:    0 | 0xff000020:   74 | Hat switch:   8 | Button: 0  0  0  0  0  0  0  0  0  0  0  0  0  0  0 | 0xff000021: 0 , 0 , 0 , 0 , 0 , 0 , 0 , 0 , 0 , 0 , 0 , 0 , 0 | 0xff000022:  204 ,   36 ,  136 ,  247 ,   12 ,    0 ,  243 ,  255 ,    6 ,    0 ,   89 ,  253 ,  241 ,   27 ,  192 ,   15 ,   57 ,  197 ,   19 ,   16 ,    7 ,  128 ,    0 ,    0 ,    0 ,  128 ,    0 ,    0 ,    0 ,    0 ,    9 ,    9 ,    0 ,    0 ,    0 ,    0 ,    0 ,  150 ,  215 ,   19 ,   16 ,   41 ,    8 ,    0 ,  200 ,  109 ,   46 ,   97 ,   85 ,   99 ,  186 ,  247 
E: 000000.184002 64 01 81 7d 82 7f 00 00 4a 08 00 00 00 cc 24 88 f7 0c 00 f3 ff 06 00 59 fd f1 1b c0 0f 39 c5 13 10 07 80 00 00 00 80 00 00 00 00 09 09 00 00 00 00 00 96 d7 13 10 29 08 00 c8 6d 2e 61 55 63 ba f7
# ReportID: 1 / X:  129 | Y:  125 | Z:  130 | Rz:  127 | Rx:    0 | Ry:    0 | 0xff000020:   75 | Hat switch:   8 | Button: 0  0  0  0  0  0  0  0  0  0  0  0  0  0  0 | 0xff000021: 0 , 0 , 0 , 0 , 0 , 0 , 0 , 0 , 0 , 0 , 0 , 0 , 0 | 0xff000022:  205 ,   36 ,  136 ,  247 ,   20 ,    0 ,  244 ,  255 ,    3 ,    0 ,  125 ,  253 ,  213 ,   27 ,  179 ,   15 ,  255 ,  243 ,   19 ,   16 ,    6 ,  128 ,    0 ,    0 ,    0 ,  128 ,    0 ,    0 ,    0 ,    0 ,    9 ,    9 ,    0 ,    0 ,    0 ,    0 ,    0 ,  118 ,    6 ,   20 ,   16 ,   41 ,    8 ,    0 ,  117 ,  202 ,  189 ,    8 ,   73 ,  194 ,  127 ,  226 
E: 000000.188002 64 01 81 7d 82 7f 00 00 4b 08 00 00 00 cd 24 88 f7 14 00 f4 ff 03 00 7d fd d5 1b b3 0f ff f3 13 10 06 80 00 00 00 80 00 00 00 00 09 09 00 00 00 00 00 76 06 14 10 29 08 00 75 ca bd 08 49 c2 7f e2
# ReportID: 1 / X:  129 | Y:  125 | Z:  130 | Rz:  127 | Rx:    0 | Ry:    0 | 0xff000020:   76 | Hat switch:   8 | Button: 0  0  0  0  0  0  0  0  0  0  0  0  0  0  0 | 0xff000021: 0 , 0 , 0 , 0 , 0 , 0 , 0 , 0 , 0 , 0 , 0 , 0 , 0 | 0xff000022:  206 ,   36 ,  136 ,  247 ,   26 ,    0 ,  243 ,  255 ,    0 ,    0 ,  150 ,  253 ,  206 ,   27 ,  173 ,   15 ,  198 ,   34 ,   20 ,   16 ,    6 ,  128 ,    0 ,    0 ,    0 ,  128 ,    0 ,    0 ,    0 ,    0 ,    9 ,    9 ,    0 ,    0 ,    0 ,    0 ,    0 ,   86 ,   53 ,   20 ,   16 ,   41 ,    8 ,    0 ,  166 ,    6 ,  193 ,   46 ,  204 ,  250 ,   84 ,   18 
E: 000000.192005 64 01 81 7d 82 7f 00 00 4c 08 00 00 00 ce 24 88 f7 1a 00 f3 ff 00 00 96 fd ce 1b ad 0f c6 22 14 10 06 80 00 00 00 80 00 00 00 00 09 09 00 00 00 00 00 56 35 14 10 29 08 00 a6 06 c1 2e cc fa 54 12
# ReportID: 1 / X:  130 | Y:  125 | Z:  130 | Rz:  127 | Rx:    0 | Ry:    0 | 0xff000020:   77 | Hat switch:   8 | Button: 0  0  0  0  0  0  0  0  0  0  0  0  0  0  0 | 0xff000021: 0 , 0 , 0 , 0 , 0 , 0 , 0 , 0 , 0 , 0 , 0 , 0 , 0 | 0xff000022:  207 ,   36 ,  136 ,  247 ,   31 ,    0 ,  244 ,  255 ,  252 ,  255 ,  184 ,  253 ,  199 ,   27 ,  164 ,   15 ,  140 ,   81 ,   20 ,   16 ,    6 ,  128 ,    0 ,    0 ,    0 ,  128 ,    0 ,    0 ,    0 ,    0 ,    9 ,    9 ,    0 ,    0 ,    0 ,    0 ,    0 ,   54 ,  100 ,   20 ,   16 ,   41 ,    8 ,    0 ,  251 ,  167 ,  250 ,  149 ,   22 ,   49 ,  175 ,   38 
E: 000000.196003 64 01 82 7d 82 7f 00 00 4d 08 00 00 00 cf 24 88 f7 1f 00 f4 ff fc ff b8 fd c7 1b a4 0f 8c 51 14 10 06 80 00 00 00 80 00 00 00 00 09 09 00 00 00 00 00 36 64 14 10 29 08 00 fb a7 fa 95 16 31 af 26
# ReportID: 1 / X:  130 | Y:  125 | Z:  130 | Rz:  127 | Rx:    0 | Ry:    0 | 0xff000020:   78 | Hat switch:   8 | Button: 0  0  0  0  0  0  0  0  0  0  0  0  0  0  0 | 0xff000021: 0 , 0 , 0 , 0 , 0 , 0 , 0 , 0 , 0 , 0 , 0 , 0 , 0 | 0xff000022:  208 ,   36 ,  136 ,  247 ,   37 ,    0 ,  246 ,  255 ,  247 ,  255 ,  208 ,  253 ,  192 ,   27 ,  154 ,   15 ,   82 ,  128 ,   20 ,   16 ,    7 ,  128 ,    0 ,    0 ,    0 ,  128 ,    0 ,    0 ,    0 ,    0 ,    9 ,    9 ,    0 ,    0 ,    0 ,    0 ,    0 ,   22 ,  147 ,   20 ,   16 ,   41 ,    8 ,    0 ,   97 ,  180 ,   35 ,  183 ,  104 ,  132 ,  238 ,  137 
E: 000000.200004 64 01 82 7d 82 7f 00 00 4e 08 00 00 00 d0 24 88 f7 25 00 f6 ff f7 ff d0 fd c0 1b 9a 0f 52 80 14 10 07 80 00 00 00 80 00 00 00 00 09 09 00 00 00 00 00 16 93 14 10 29 08 00 61 b4 23 b7 68 84 ee 89
# ReportID: 1 / X:  129 | Y:  125 | Z:  130 | Rz:  127 | Rx:    0 | Ry:    0 | 0xff000020:   79 | Hat switch:   8 | Button: 0  0  0  0  0  0  0  0  0  0  0  0  0  0  0 | 0xff000021: 0 , 0 , 0 , 0 , 0 , 0 , 0 , 0 , 0 , 0 , 0 , 0 , 0 | 0xff000022:  209 ,   36 ,  136 ,  247 ,   40 ,    0 ,  247 ,  255 ,  245 ,  255 ,  231 ,  253 ,  173 ,   27 ,  135 ,   15 ,   25 ,  175 ,   20 ,   16 ,    6 ,  128 ,    0 ,    0 ,    0 ,  128 ,    0 ,    0 ,    0 ,    0 ,    9 ,    9 ,    0 ,    0 ,    0 ,    0 ,    0 ,  246 ,  193 ,   20 ,   16 ,   41 ,    8 ,    0 ,  196 ,  249 ,   80 ,  232 ,  203 ,  177 ,    5 ,   42 
E: 000000.204010 64 01 81 7d 82 7f 00 00 4f 08 00 00 00 d1 24 88 f7 28 00 f7 ff f5 ff e7 fd ad 1b 87 0f 19 af 14 10 06 80 00 00 00 80 00 00 00 00 09 09 00 00 00 00 00 f6 c1 14 10 29 08 00 c4 f9 50 e8 cb b1 05 2a
# ReportID: 1 / X:  129 | Y:  125 | Z:  130 | Rz:  127 | Rx:    0 | Ry:    0 | 0xff000020:   80 | Hat switch:   8 | Button: 0  0  0  0  0  0  0  0  0  0  0  0  0  0  0 | 0xff000021: 0 , 0 , 0 , 0 , 0 , 0 , 0 , 0 , 0 , 0 , 0 , 0 , 0 | 0xff000022:  210 ,   36 ,  136 ,  247 ,   41 ,    0 ,  246 ,  255 ,  241 ,  255 ,    4 ,  254 ,  176 ,   27 ,  122 ,   15 ,  223 ,  221 ,   20 ,   16 ,    6 ,  128 ,    0 ,    0 ,    0 ,  128 ,    0 ,    0 ,    0 ,    0 ,    9 ,    9 ,    0 ,    0 ,    0 ,    0 ,    0 ,  214 ,  240 ,   20 ,   16 ,   41 ,    8 ,    0 ,   93 ,  154 ,  145 ,  171 ,  179 ,  184 ,  145 ,   93 
E: 000000.208008 64 01 81 7d 82 7f 00 00 50 08 00 00 00 d2 24 88 f7 29 00 f6 ff f1 ff 04 fe b0 1b 7a 0f df dd 14 10 06 80 00 00 00 80 00 00 00 00 09 09 00 00 00 00 00 d6 f0 14 10 29 08 00 5d 9a 91 ab b3 b8 91 5d
# ReportID: 1 / X:  130 | Y:  126 | Z:  130 | Rz:  127 | Rx:    0 | Ry:    0 | 0xff000020:   81 | Hat switch:   8 | Button: 0  0  0  0  0  0  0  0  0  0  0  0  0  0  0 | 0xff000021: 0 , 0 , 0 , 0 , 0 , 0 , 0 , 0 , 0 , 0 , 0 , 0 , 0 | 0xff000022:  211 ,   36 ,  136 ,  247 ,   41 ,    0 ,  246 ,  255 ,  238 ,  255 ,   23 ,  254 ,  179 ,   27 ,  119 ,   15 ,  165 ,   12 ,   21 ,   16 ,    6 ,  128 ,    0 ,    0 ,    0 ,  128 ,    0 ,    0 ,    0 ,    0 ,    9 ,    9 ,    0 ,    0 ,    0 ,    0 ,    0 ,  182 ,   31 ,   21 ,   16 ,   41 ,    8 ,    0 ,   22 ,  122 ,  222 ,    2 ,  146 ,   51 ,   96 ,  252 
E: 000000.212005 64 01 82 7e 82 7f 00 00 51 08 00 00 00 d3 24 88 f7 29 00 f6 ff ee ff 17 fe b3 1b 77 0f a5 0c 15 10 06 80 00 00 00 80 00 00 00 00 09 09 00 00 00 00 00 b6 1f 15 10 29 08 00 16 7a de 02 92 33 60 fc
# ReportID: 1 / X:  130 | Y:  126 | Z:  130 | Rz:  127 | Rx:    0 | Ry:    0 | 0xff000020:   82 | Hat switch:   8 | Button: 0  0  0  0  0  0  0  0  0  0  0  0  0  0  0 | 0xff000021: 0 , 0 , 0 , 0 , 0 , 0 , 0 , 0 , 0 , 0 , 0 , 0 , 0 | 0xff000022:  212 ,   36 ,  136 ,  247 ,   42 ,    0 ,  247 ,  255 ,  236 ,  255 ,   33 ,  254 ,  176 ,   27 ,  104 ,   15 ,  107 ,   59 ,   21 ,   16 ,    6 ,  128 ,    0 ,    0 ,    0 ,  128 ,    0 ,    0 ,    0 ,    0 ,    9 ,    9 ,    0 ,    0 ,    0 ,    0 ,    0 ,  150 ,   78 ,   21 ,   16 ,   41 ,    8 ,    0 ,  144 ,  126 ,    1 ,  236 ,   55 ,  235 ,   95 ,   30 
E: 000000.216005 64 01 82 7e 82 7f 00 00 52 08 00 00 00 d4 24 88 f7 2a 00 f7 ff ec ff 21 fe b0 1b 68 0f 6b 3b 15 10 06 80 00 00 00 80 00 00 00 00 09 09 00 00 00 00 00 96 4e 15 10 29 08 00 90 7e 01 ec 37 eb 5f 1e
# ReportID: 1 / X:  129 | Y:  125 | Z:  130 | Rz:  127 | Rx:    0 | Ry:    0 | 0xff000020:   83 | Hat switch:   8 | Button: 0  0  0  0  0  0  0  0  0  0  0  0  0  0  0 | 0xff000021: 0 , 0 , 0 , 0 , 0 , 0 , 0 , 0 , 0 , 0 , 0 , 0 , 0 | 0xff000022:  213 ,   36 ,  136 ,  247 ,   40 ,    0 ,  248 ,  255 ,  234 ,  255 ,   27 ,  254 ,  175 ,   27 ,   83 ,   15 ,   50 ,  106 ,   21 ,   16 ,    6 ,  128 ,    0 ,    0 ,    0 ,  128 ,    0 ,    0 ,    0 ,    0 ,    9 ,    9 ,    0 ,    0 ,    0 ,    0 ,    0 ,  118 ,  125 ,   21 ,   16 ,   41 ,    8 ,    0 ,   41 ,  143 ,  214 ,  225 ,    9 ,  163 ,   65 ,  148 
E: 000000.220005 64 01 81 7d 82 7f 00 00 53 08 00 00 00 d5 24 88 f7 28 00 f8 ff ea ff 1b fe af 1b 53 0f 32 6a 15 10 06 80 00 00 00 80 00 00 00 00 09 09 00 00 00 00 00 76 7d 15 10 29 08 00 29 8f d6 e1 09 a3 41 94
# ReportID: 1 / X:  130 | Y:  125 | Z:  130 | Rz:  127 | Rx:    0 | Ry:    0 | 0xff000020:   84 | Hat switch:   8 | Button: 0  0  0  0  0  0  0  0  0  0  0  0  0  0  0 | 0xff000021: 0 , 0 , 0 , 0 , 0 , 0 , 0 , 0 , 0 , 0 , 0 , 0 , 0 | 0xff000022:  214 ,   36 ,  136 ,  247 ,   40 ,    0 ,  248 ,  255 ,  232 ,  255 ,   34 ,  254 ,  198 ,   27 ,   62 ,   15 ,  248 ,  152 ,   21 ,   16 ,    7 ,  128 ,    0 ,    0 ,    0 ,  128 ,    0 ,    0 ,    0 ,    0 ,    9 ,    9 ,    0 ,    0 ,    0 ,    0 ,    0 ,   86 ,  172 ,   21 ,   16 ,   41 ,    8 ,    0 ,   51 ,   97 ,   21 ,   37 ,  233 ,  139 ,  135 ,   93 
E: 000000.224005 64 01 82 7d 82 7f 00 00 54 08 00 00 00 d6 24 88 f7 28 00 f8 ff e8 ff 22 fe c6 1b 3e 0f f8 98 15 10 07 80 00 00 00 80 00 00 00 00 09 09 00 00 00 00 00 56 ac 15 10 29 08 00 33 61 15 25 e9 8b 87 5d
# ReportID: 1 / X:  130 | Y:  125 | Z:  130 | Rz:  127 | Rx:    0 | Ry:    0 | 0xff000020:   85 | Hat switch:   8 | Button: 0  0  0  0  0  0  0  0  0  0  0  0  0  0  0 | 0xff000021: 0 , 0 , 0 , 0 , 0 , 0 , 0 , 0 , 0 , 0 , 0 , 0 , 0 | 0xff000022:  215 ,   36 ,  136 ,  247 ,   38 ,    0 ,  249 ,  255 ,  233 ,  255 ,   41 ,  254 ,  196 ,   27 ,   59 ,   15 ,  190 ,  199 ,   21 ,   16 ,    6 ,  128 ,    0 ,    0 ,    0 ,  128 ,    0 ,    0 ,    0 ,    0 ,    9 ,    9 ,    0 ,    0 ,    0 ,    0 ,    0 ,   54 ,  219 ,   21 ,   16 ,   41 ,    8 ,    0 ,   52 ,  173 ,  140 ,   46 ,  197 ,   35 ,  239 ,   42 
E: 000000.228003 64 01 82 7d 82 7f 00 00 55 08 00 00 00 d7 24 88 f7 26 00 f9 ff e9 ff 29 fe c4 1b 3b 0f be c7 15 10 06 80 00 00 00 80 00 00 00 00 09 09 00 00 00 00 00 36 db 15 10 29 08 00 34 ad 8c 2e c5 23 ef 2a
# ReportID: 1 / X:  129 | Y:  126 | Z:  130 | Rz:  127 | Rx:    0 | Ry:    0 | 0xff000020:   86 | Hat switch:   8 | Button: 0  0  0  0  0  0  0  0  0  0  0  0  0  0  0 | 0xff000021: 0 , 0 , 0 , 0 , 0 , 0 , 0 , 0 , 0 , 0 , 0 , 0 , 0 | 0xff000022:  216 ,   36 ,  136 ,  247 ,   35 ,    0 ,  250 ,  255 ,  234 ,  255 ,   44 ,  254 ,  205 ,   27 ,   35 ,   15 ,  132 ,  246 ,   21 ,   16 ,    7 ,  128 ,    0 ,    0 ,    0 ,  128 ,    0 ,    0 ,    0 ,    0 ,    9 ,    9 ,    0 ,    0 ,    0 ,    0 ,    0 ,   22 ,   10 ,   22 ,   16 ,   41 ,    8 ,    0 ,   67 ,   49 ,  252 ,   15 ,  243 ,   72 ,  162 ,  141 
E: 000000.232002 64 01 81 7e 82 7f 00 00 56 08 00 00 00 d8 24 88 f7 23 00 fa ff ea ff 2c fe cd 1b 23 0f 84 f6 15 10 07 80 00 00 00 80 00 00 00 00 09 09 00 00 00 00 00 16 0a 16 10 29 08 00 43 31 fc 0f f3 48 a2 8d
# ReportID: 1 / X:  129 | Y:  125 | Z:  130 | Rz:  127 | Rx:    0 | Ry:    0 | 0xff000020:   87 | Hat switch:   8 | Button: 0  0  0  0  0  0  0  0  0  0  0  0  0  0  0 | 0xff000021: 0 , 0 , 0 , 0 , 0 , 0 , 0 , 0 , 0 , 0 , 0 , 0 , 0 | 0xff000022:  217 ,   36 ,  136 ,  247 ,   32 ,    0 ,  248 ,  255 ,  234 ,  255 ,   35 ,  254 ,  212 ,   27 ,   29 ,   15 ,   75 ,   37 ,   22 ,   16 ,    6 ,  128 ,    0 ,    0 ,    0 ,  128 ,    0 ,    0 ,    0 ,    0 ,    9 ,    9 ,    0 ,    0 ,    0 ,    0 ,    0 ,  246 ,   56 ,   22 ,   16 ,   41 ,    8 ,    0 ,  244 ,  131 ,  248 ,  151 ,  134 ,   32 ,   59 ,   50 
E: 000000.236001 64 01 81 7d 82 7f 00 00 57 08 00 00 00 d9 24 88 f7 20 00 f8 ff ea ff 23 fe d4 1b 1d 0f 4b 25 16 10 06 80 00 00 00 80 00 00 00 00 09 09 00 00 00 00 00 f6 38 16 10 29 08 00 f4 83 f8 97 86 20 3b 32
# ReportID: 1 / X:  130 | Y:  126 | Z:  130 | Rz:  127 | Rx:    0 | Ry:    0 | 0xff000020:   88 | Hat switch:   8 | Button: 0  0  0  0  0  0  0  0  0  0  0  0  0  0  0 | 0xff000021: 0 , 0 , 0 , 0 , 0 , 0 , 0 , 0 , 0 , 0 , 0 , 0 , 0 | 0xff000022:  218 ,   36 ,  136 ,  247 ,   30 ,    0 ,  251 ,  255 ,  235 ,  255 ,   26 ,  254 ,  213 ,   27 ,   22 ,   15 ,   17 ,   84 ,   22 ,   16 ,    7 ,  128 ,    0 ,    0 ,    0 ,  128 ,    0 ,    0 ,    0 ,    0 ,    9 ,    9 ,    0 ,    0 ,    0 ,    0 ,    0 ,  214 ,  103 ,   22 ,   16 ,   41 ,    8 ,    0 ,  255 ,   66 ,   99 ,   93 ,   66 ,   64 ,  208 ,   20 
E: 000000.240004 64 01 82 7e 82 7f 00 00 58 08 00 00 00 da 24 88 f7 1e 00 fb ff eb ff 1a fe d5 1b 16 0f 11 54 16 10 07 80 00 00 00 80 00 00 00 00 09 09 00 00 00 00 00 d6 67 16 10 29 08 00 ff 42 63 5d 42 40 d0 14
# ReportID: 1 / X:  130 | Y:  125 | Z:  130 | Rz:  127 | Rx:    0 | Ry:    0 | 0xff000020:   89 | Hat switch:   8 | Button: 0  0  0  0  0  0  0  0  0  0  0  0  0  0  0 | 0xff000021: 0 , 0 , 0 , 0 , 0 , 0 , 0 , 0 , 0 , 0 , 0 , 0 , 0 | 0xff000022:  219 ,   36 ,  136 ,  247 ,   28 ,    0 ,  252 ,  255 ,  237 ,  255 ,   15 ,  254 ,  221 ,   27 ,    9 ,   15 ,  215 ,  130 ,   22 ,   16 ,    6 ,  128 ,    0 ,    0 ,    0 ,  128 ,    0 ,    0 ,    0 ,    0 ,    9 ,    9 ,    0 ,    0 ,    0 ,    0 ,    0 ,  182 ,  150 ,   22 ,   16 ,   41 ,    8 ,    0 ,  105 ,  122 ,  200 ,   72 ,  221 ,  217 ,   57 ,  142 
E: 000000.244003 64 01 82 7d 82 7f 00 00 59 08 00 00 00 db 24 88 f7 1c 00 fc ff ed ff 0f fe dd 1b 09 0f d7 82 16 10 06 80 00 00 00 80 00 00 00 00 09 09 00 00 00 00 00 b6 96 16 10 29 08 00 69 7a c8 48 dd d9 39 8e
# ReportID: 1 / X:  129 | Y:  125 | Z:  130 | Rz:  127 | Rx:    0 | Ry:    0 | 0xff000020:   90 | Hat switch:   8 | Button: 0  0  0  0  0  0  0  0  0  0  0  0  0  0  0 | 0xff000021: 0 , 0 , 0 , 0 , 0 , 0 , 0 , 0 , 0 , 0 , 0 , 0 , 0 | 0xff000022:  220 ,   36 ,  136 ,  247 ,   24 ,    0 ,  252 ,  255 ,  239 ,  255 ,  245 ,  253 ,  222 ,   27 ,  249 ,   14 ,  157 ,  177 ,   22 ,   16 ,    6 ,  128 ,    0 ,    0 ,    0 ,  128 ,    0 ,    0 ,    0 ,    0 ,    9 ,    9 ,    0 ,    0 ,    0 ,    0 ,    0 ,  150 ,  197 ,   22 ,   16 ,   41 ,    8 ,    0 ,  197 ,  248 ,  181 ,  170 ,  208 ,  190 ,   97 ,  253 
E: 000000.248006 64 01 81 7d 82 7f 00 00 5a 08 00 00 00 dc 24 88 f7 18 00 fc ff ef ff f5 fd de 1b f9 0e 9d b1 16 10 06 80 00 00 00 80 00 00 00 00 09 09 00 00 00 00 00 96 c5 16 10 29 08 00 c5 f8 b5 aa d0 be 61 fd
# ReportID: 1 / X:  130 | Y:  125 | Z:  130 | Rz:  127 | Rx:    0 | Ry:    0 | 0xff000020:   91 | Hat switch:   8 | Button: 0  0  0  0  0  0  0  0  0  0  0  0  0  0  0 | 0xff000021: 0 , 0 , 0 , 0 , 0 , 0 , 0 , 0 , 0 , 0 , 0 , 0 , 0 | 0xff000022:  221 ,   36 ,  136 ,  247 ,   19 ,    0 ,  254 ,  255 ,  242 ,  255 ,  232 ,  253 ,  212 ,   27 ,  243 ,   14 ,  100 ,  224 ,   22 ,   16 ,    6 ,  128 ,    0 ,    0 ,    0 ,  128 ,    0 ,    0 ,    0 ,    0 ,    9 ,    9 ,    0 ,    0 ,    0 ,    0 ,    0 ,  118 ,  244 ,   22 ,   16 ,   41 ,    8 ,    0 ,   10 ,  140 ,  103 ,  136 ,  141 ,  213 ,  227 ,  155 
E: 000000.252004 64 01 82 7d 82 7f 00 00 5b 08 00 00 00 dd 24 88 f7 13 00 fe ff f2 ff e8 fd d4 1b f3 0e 64 e0 16 10 06 80 00 00 00 80 00 00 00 00 09 09 00 00 00 00 00 76 f4 16 10 29 08 00 0a 8c 67 88 8d d5 e3 9b
# ReportID: 1 / X:  129 | Y:  125 | Z:  130 | Rz:  127 | Rx:    0 | Ry:    0 | 0xff000020:   92 | Hat switch:   8 | Button: 0  0  0  0  0  0  0  0  0  0  0  0  0  0  0 | 0xff000021: 0 , 0 , 0 , 0 , 0 , 0 , 0 , 0 , 0 , 0 , 0 , 0 , 0 | 0xff000022:  222 ,   36 ,  136 ,  247 ,   14 ,    0 ,  255 ,  255 ,  245 ,  255 ,  206 ,  253 ,  213 ,   27 ,  234 ,   14 ,   42 ,   15 ,   23 ,   16 ,    6 ,  128 ,    0 ,    0 ,    0 ,  128 ,    0 ,    0 ,    0 ,    0 ,    9 ,    9 ,    0 ,    0 ,    0 ,    0 ,    0 ,   86 ,   35 ,   23 ,   16 ,   41 ,    8 ,    0 ,  183 ,   32 ,   23 ,  140 ,   29 ,  121 ,  241 ,  143 
E: 000000.256004 64 01 81 7d 82 7f 00 00 5c 08 00 00 00 de 24 88 f7 0e 00 ff ff f5 ff ce fd d5 1b ea 0e 2a 0f 17 10 06 80 00 00 00 80 00 00 00 00 09 09 00 00 00 00 00 56 23 17 10 29 08 00 b7 20 17 8c 1d 79 f1 8f
# ReportID: 1 / X:  130 | Y:  125 | Z:  130 | Rz:  127 | Rx:    0 | Ry:    0 | 0xff000020:   93 | Hat switch:   8 | Button: 0  0  0  0  0  0  0  0  0  0  0  0  0  0  0 | 0xff000021: 0 , 0 , 0 , 0 , 0 , 0 , 0 , 0 , 0 , 0 , 0 , 0 , 0 | 0xff000022:  223 ,   36 ,  136 ,  247 ,    7 ,    0 ,    0 ,    0 ,  250 ,  255 ,  197 ,  253 ,  220 ,   27 ,  215 ,   14 ,  240 ,   61 ,   23 ,   16 ,    6 ,  128 ,    0 ,    0 ,    0 ,  128 ,    0 ,    0 ,    0 ,    0 ,    9 ,    9 ,    0 ,    0 ,    0 ,    0 ,    0 ,   54 ,   82 ,   23 ,   16 ,   41 ,    8 ,    0 ,   29 ,  188 ,    6 ,  138 ,  196 ,   51 ,   86 ,  214 
E: 000000.260004 64 01 82 7d 82 7f 00 00 5d 08 00 00 00 df 24 88 f7 07 00 00 00 fa ff c5 fd dc 1b d7 0e f0 3d 17 10 06 80 00 00 00 80 00 00 00 00 09 09 00 00 00 00 00 36 52 17 10 29 08 00 1d bc 06 8a c4 33 56 d6
# ReportID: 1 / X:  129 | Y:  126 | Z:  130 | Rz:  127 | Rx:    0 | Ry:    0 | 0xff000020:   94 | Hat switch:   8 | Button: 0  0  0  0  0  0  0  0  0  0  0  0  0  0  0 | 0xff000021: 0 , 0 , 0 , 0 , 0 , 0 , 0 , 0 , 0 , 0 , 0 , 0 , 0 | 0xff000022:  224 ,   36 ,  136 ,  247 ,    3 ,    0 ,    1 ,    0 ,  250 ,  255 ,  183 ,  253 ,  220 ,   27 ,  214 ,   14 ,  183 ,  108 ,   23 ,   16 ,    6 ,  128 ,    0 ,    0 ,    0 ,  128 ,    0 ,    0 ,    0 ,    0 ,    9 ,    9 ,    0 ,    0 ,    0 ,    0 ,    0 ,   22 ,  129 ,   23 ,   16 ,   41 ,    8 ,    0 ,  225 ,   12 ,  111 ,   66 ,  127 ,  183 ,   92 ,  224 
E: 000000.264016 64 01 81 7e 82 7f 00 00 5e 08 00 00 00 e0 24 88 f7 03 00 01 00 fa ff b7 fd dc 1b d6 0e b7 6c 17 10 06 80 00 00 00 80 00 00 00 00 09 09 00 00 00 00 00 16 81 17 10 29 08 00 e1 0c 6f 42 7f b7 5c e0
# ReportID: 1 / X:  129 | Y:  125 | Z:  130 | Rz:  127 | Rx:    0 | Ry:    0 | 0xff000020:   95 | Hat switch:   8 | Button: 0  0  0  0  0  0  0  0  0  0  0  0  0  0  0 | 0xff000021: 0 , 0 , 0 , 0 , 0 , 0 , 0 , 0 , 0 , 0 , 0 , 0 , 0 | 0xff000022:  225 ,   36 ,  136 ,  247 ,    0 ,    0 ,    2 ,    0 ,  255 ,  255 ,  166 ,  253 ,  223 ,   27 ,  211 ,   14 ,  125 ,  155 ,   23 ,   16 ,    6 ,  128 ,    0 ,    0 ,    0 ,  128 ,    0 ,    0 ,    0 ,    0 ,    9 ,    9 ,    0 ,    0 ,    0 ,    0 ,    0 ,  246 ,  175 ,   23 ,   16 ,   41 ,    8 ,    0 ,  135 ,   38 ,  135 ,  215 ,   84 ,  252 ,   62 ,  169 
E: 000000.268006 64 01 81 7d 82 7f 00 00 5f 08 00 00 00 e1 24 88 f7 00 00 02 00 ff ff a6 fd df 1b d3 0e 7d 9b 17 10 06 80 00 00 00 80 00 00 00 00 09 09 00 00 00 00 00 f6 af 17 10 29 08 00 87 26 87 d7 54 fc 3e a9
# ReportID: 1 / X:  129 | Y:  126 | Z:  130 | Rz:  127 | Rx:    0 | Ry:    0 | 0xff000020:   96 | Hat switch:   8 | Button: 0  0  0  0  0  0  0  0  0  0  0  0  0  0  0 | 0xff000021: 0 , 0 , 0 , 0 , 0 , 0 , 0 , 0 , 0 , 0 , 0 , 0 , 0 | 0xff000022:  226 ,   36 ,  136 ,  247 ,  251 ,  255 ,    2 ,    0 ,    1 ,    0 ,  149 ,  253 ,  228 ,   27 ,  207 ,   14 ,   67 ,  202 ,   23 ,   16 ,    6 ,  128 ,    0 ,    0 ,    0 ,  128 ,    0 ,    0 ,    0 ,    0 ,    9 ,    9 ,    0 ,    0 ,    0 ,    0 ,    0 ,  214 ,  222 ,   23 ,   16 ,   41 ,    8 ,    0 ,   90 ,   69 ,  169 ,  182 ,   90 ,   42 ,  129 ,   28 
E: 000000.272004 64 01 81 7e 82 7f 00 00 60 08 00 00 00 e2 24 88 f7 fb ff 02 00 01 00 95 fd e4 1b cf 0e 43 ca 17 10 06 80 00 00 00 80 00 00 00 00 09 09 00 00 00 00 00 d6 de 17 10 29 08 00 5a 45 a9 b6 5a 2a 81 1c
# ReportID: 1 / X:  130 | Y:  126 | Z:  130 | Rz:  127 | Rx:    0 | Ry:    0 | 0xff000020:   97 | Hat switch:   8 | Button: 0  0  0  0  0  0  0  0  0  0  0  0  0  0  0 | 0xff000021: 0 , 0 , 0 , 0 , 0 , 0 , 0 , 0 , 0 , 0 , 0 , 0 , 0 | 0xff000022:  227 ,   36 ,  136 ,  247 ,  249 ,  255 ,    2 ,    0 ,    7 ,    0 ,  130 ,  253 ,  222 ,   27 ,  206 ,   14 ,    9 ,  249 ,   23 ,   16 ,    6 ,  128 ,    0 ,    0 ,    0 ,  128 ,    0 ,    0 ,    0 ,    0 ,    9 ,    9 ,    0 ,    0 ,    0 ,    0 ,    0 ,  182 ,   13 ,   24 ,   16 ,   41 ,    8 ,    0 ,  248 ,  179 ,   11 ,   90 ,  132 ,   44 ,   13 ,  189 
E: 000000.276004 64 01 82 7e 82 7f 00 00 61 08 00 00 00 e3 24 88 f7 f9 ff 02 00 07 00 82 fd de 1b ce 0e 09 f9 17 10 06 80 00 00 00 80 00 00 00 00 09 09 00 00 00 00 00 b6 0d 18 10 29 08 00 f8 b3 0b 5a 84 2c 0d bd
# ReportID: 1 / X:  129 | Y:  125 | Z:  130 | Rz:  127 | Rx:    0 | Ry:    0 | 0xff000020:   98 | Hat switch:   8 | Button: 0  0  0  0  0  0  0  0  0  0  0  0  0  0  0 | 0xff000021: 0 , 0 , 0 , 0 , 0 , 0 , 0 , 0 , 0 , 0 , 0 , 0 , 0 | 0xff000022:  228 ,   36 ,  136 ,  247 ,  247 ,  255 ,    2 ,    0 ,   11 ,    0 ,  116 ,  253 ,  218 ,   27 ,  214 ,   14 ,  208 ,   39 ,   24 ,   16 ,    7 ,  128 ,    0 ,    0 ,    0 ,  128 ,    0 ,    0 ,    0 ,    0 ,    9 ,    9 ,    0 ,    0 ,    0 ,    0 ,    0 ,  150 ,   60 ,   24 ,   16 ,   41 ,    8 ,    0 ,   21 ,    2 ,  122 ,   92 ,   42 ,   75 ,  234 ,  211 
E: 000000.280004 64 01 81 7d 82 7f 00 00 62 08 00 00 00 e4 24 88 f7 f7 ff 02 00 0b 00 74 fd da 1b d6 0e d0 27 18 10 07 80 00 00 00 80 00 00 00 00 09 09 00 00 00 00 00 96 3c 18 10 29 08 00 15 02 7a 5c 2a 4b ea d3
# ReportID: 1 / X:  130 | Y:  125 | Z:  130 | Rz:  127 | Rx:    0 | Ry:    0 | 0xff000020:   99 | Hat switch:   8 | Button: 0  0  0  0  0  0  0  0  0  0  0  0  0  0  0 | 0xff000021: 0 , 0 , 0 , 0 , 0 , 0 , 0 , 0 , 0 , 0 , 0 , 0 , 0 | 0xff000022:  229 ,   36 ,  136 ,  247 ,  244 ,  255 ,    2 ,    0 ,   14 ,    0 ,  109 ,  253 ,  204 ,   27 ,  221 ,   14 ,  150 ,   86 ,   24 ,   16 ,    7 ,  128 ,    0 ,    0 ,    0 ,  128 ,    0 ,    0 ,    0 ,    0 ,    9 ,    9 ,    0 ,    0 ,    0 ,    0 ,    0 ,  118 ,  107 ,   24 ,   16 ,   41 ,    8 ,    0 ,  160 ,   96 ,  193 ,  233 ,   41 ,  140 ,  231 ,  249 
E: 000000.284004 64 01 82 7d 82 7f 00 00 63 08 00 00 00 e5 24 88 f7 f4 ff 02 00 0e 00 6d fd cc 1b dd 0e 96 56 18 10 07 80 00 00 00 80 00 00 00 00 09 09 00 00 00 00 00 76 6b 18 10 29 08 00 a0 60 c1 e9 29 8c e7 f9
# ReportID: 1 / X:  129 | Y:  125 | Z:  130 | Rz:  127 | Rx:    0 | Ry:    0 | 0xff000020:  100 | Hat switch:   8 | Button: 0  0  0  0  0  0  0  0  0  0  0  0  0  0  0 | 0xff000021: 0 , 0 , 0 , 0 , 0 , 0 , 0 , 0 , 0 , 0 , 0 , 0 , 0 | 0xff000022:  230 ,   36 ,  136 ,  247 ,  241 ,  255 ,    3 ,    0 ,   19 ,    0 ,  103 ,  253 ,  202 ,   27 ,  214 ,   14 ,   92 ,  133 ,   24 ,   16 ,    7 ,  128 ,    0 ,    0 ,    0 ,  128 ,    0 ,    0 ,    0 ,    0 ,    9 ,    9 ,    0 ,    0 ,    0 ,    0 ,    0 ,   86 ,  154 ,   24 ,   16 ,   41 ,    8 ,    0 ,  104 ,  254 ,  143 ,    6 ,  122 ,  185 ,  230 ,  136 
E: 000000.288006 64 01 81 7d 82 7f 00 00 64 08 00 00 00 e6 24 88 f7 f1 ff 03 00 13 00 67 fd ca 1b d6 0e 5c 85 18 10 07 80 00 00 00 80 00 00 00 00 09 09 00 00 00 00 00 56 9a 18 10 29 08 00 68 fe 8f 06 7a b9 e6 88
# ReportID: 1 / X:  129 | Y:  126 | Z:  130 | Rz:  127 | Rx:    0 | Ry:    0 | 0xff000020:  101 | Hat switch:   8 | Button: 0  0  0  0  0  0  0  0  0  0  0  0  0  0  0 | 0xff000021: 0 , 0 , 0 , 0 , 0 , 0 , 0 , 0 , 0 , 0 , 0 , 0 , 0 | 0xff000022:  231 ,   36 ,  136 ,  247 ,  240 ,  255 ,    3 ,    0 ,   22 ,    0 ,  100 ,  253 ,  187 ,   27 ,  225 ,   14 ,   35 ,  180 ,   24 ,   16 ,    6 ,  128 ,    0 ,    0 ,    0 ,  128 ,    0 ,    0 ,    0 ,    0 ,    9 ,    9 ,    0 ,    0 ,    0 ,    0 ,    0 ,   54 ,  201 ,   24 ,   16 ,   41 ,    8 ,    0 ,    3 ,  128 ,  184 ,  146 ,  212 ,  114 ,  240 ,   60 
E: 000000.292008 64 01 81 7e 82 7f 00 00 65 08 00 00 00 e7 24 88 f7 f0 ff 03 00 16 00 64 fd bb 1b e1 0e 23 b4 18 10 06 80 00 00 00 80 00 00 00 00 09 09 00 00 00 00 00 36 c9 18 10 29 08 00 03 80 b8 92 d4 72 f0 3c
# ReportID: 1 / X:  130 | Y:  126 | Z:  130 | Rz:  127 | Rx:    0 | Ry:    0 | 0xff000020:  102 | Hat switch:   8 | Button: 0  0  0  0  0  0  0  0  0  0  0  0  0  0  0 | 0xff000021: 0 , 0 , 0 , 0 , 0 , 0 , 0 , 0 , 0 , 0 , 0 , 0 , 0 | 0xff000022:  232 ,   36 ,  136 ,  247 ,  240 ,  255 ,    2 ,    0 ,   25 ,    0 ,   96 ,  253 ,  175 ,   27 ,  234 ,   14 ,  233 ,  226 ,   24 ,   16 ,    6 ,  128 ,    0 ,    0 ,    0 ,  128 ,    0 ,    0 ,    0 ,    0 ,    9 ,    9 ,    0 ,    0 ,    0 ,    0 ,    0 ,   22 ,  248 ,   24 ,   16 ,   41 ,    8 ,    0 ,   53 ,  231 ,  221 ,  142 ,  100 ,  128 ,  155 ,   39 
E: 000000.296004 64 01 82 7e 82 7f 00 00 66 08 00 00 00 e8 24 88 f7 f0 ff 02 00 19 00 60 fd af 1b ea 0e e9 e2 18 10 06 80 00 00 00 80 00 00 00 00 09 09 00 00 00 00 00 16 f8 18 10 29 08 00 35 e7 dd 8e 64 80 9b 27
# ReportID: 1 / X:  129 | Y:  126 | Z:  130 | Rz:  127 | Rx:    0 | Ry:    0 | 0xff000020:  103 | Hat switch:   8 | Button: 0  0  0  0  0  0  0  0  0  0  0  0  0  0  0 | 0xff000021: 0 , 0 , 0 , 0 , 0 , 0 , 0 , 0 , 0 , 0 , 0 , 0 , 0 | 0xff000022:  233 ,   36 ,  136 ,  247 ,  240 ,  255 ,    2 ,    0 ,   27 ,    0 ,  114 ,  253 ,  175 ,   27 ,  246 ,   14 ,  175 ,   17 ,   25 ,   16 ,    6 ,  128 ,    0 ,    0 ,    0 ,  128 ,    0 ,    0 ,    0 ,    0 ,    9 ,    9 ,    0 ,    0 ,    0 ,    0 ,    0 ,  246 ,   38 ,   25 ,   16 ,   41 ,    8 ,    0 ,  173 ,  231 ,  167 ,  136 ,   87 ,   43 ,   72 ,  244 
E: 000000.300007 64 01 81 7e 82 7f 00 00 67 08 00 00 00 e9 24 88 f7 f0 ff 02 00 1b 00 72 fd af 1b f6 0e af 11 19 10 06 80 00 00 00 80 00 00 00 00 09 09 00 00 00 00 00 f6 26 19 10 29 08 00 ad e7 a7 88 57 2b 48 f4
# ReportID: 1 / X:  129 | Y:  125 | Z:  130 | Rz:  127 | Rx:    0 | Ry:    0 | 0xff000020:  104 | Hat switch:   8 | Button: 0  0  0  0  0  0  0  0  0  0  0  0  0  0  0 | 0xff000021: 0 , 0 , 0 , 0 , 0 , 0 , 0 , 0 , 0 , 0 , 0 , 0 , 0 | 0xff000022:  234 ,   36 ,  136 ,  247 ,  242 ,  255 ,    1 ,    0 ,   27 ,    0 ,  125 ,  253 ,  174 ,   27 ,    2 ,   15 ,  118 ,   64 ,   25 ,   16 ,    6 ,  128 ,    0 ,    0 ,    0 ,  128 ,    0 ,    0 ,    0 ,    0 ,    9 ,    9 ,    0 ,    0 ,    0 ,    0 ,    0 ,  214 ,   85 ,   25 ,   16 ,   41 ,    8 ,    0 ,  149 ,   56 ,  147 ,  145 ,   81 ,  132 ,  191 ,  224 
E: 000000.304013 64 01 81 7d 82 7f 00 00 68 08 00 00 00 ea 24 88 f7 f2 ff 01 00 1b 00 7d fd ae 1b 02 0f 76 40 19 10 06 80 00 00 00 80 00 00 00 00 09 09 00 00 00 00 00 d6 55 19 10 29 08 00 95 38 93 91 51 84 bf e0
# ReportID: 1 / X:  129 | Y:  125 | Z:  130 | Rz:  127 | Rx:    0 | Ry:    0 | 0xff000020:  105 | Hat switch:   8 | Button: 0  0  0  0  0  0  0  0  0  0  0  0  0  0  0 | 0xff000021: 0 , 0 , 0 , 0 , 0 , 0 , 0 , 0 , 0 , 0 , 0 , 0 , 0 | 0xff000022:  235 ,   36 ,  136 ,  247 ,  246 ,  255 ,    0 ,    0 ,   28 ,    0 ,  142 ,  253 ,  158 ,   27 ,    4 ,   15 ,   60 ,  111 ,   25 ,   16 ,    6 ,  128 ,    0 ,    0 ,    0 ,  128 ,    0 ,    0 ,    0 ,    0 ,    9 ,    9 ,    0 ,    0 ,    0 ,    0 ,    0 ,  182 ,  132 ,   25 ,   16 ,   41 ,    8 ,    0 ,  101 ,  249 ,   88 ,   79 ,  126 ,  180 ,   94 ,   96 
E: 000000.308010 64 01 81 7d 82 7f 00 00 69 08 00 00 00 eb 24 88 f7 f6 ff 00 00 1c 00 8e fd 9e 1b 04 0f 3c 6f 19 10 06 80 00 00 00 80 00 00 00 00 09 09 00 00 00 00 00 b6 84 19 10 29 08 00 65 f9 58 4f 7e b4 5e 60
# ReportID: 1 / X:  129 | Y:  125 | Z:  130 | Rz:  127 | Rx:    0 | Ry:    0 | 0xff000020:  106 | Hat switch:   8 | Button: 0  0  0  0  0  0  0  0  0  0  0  0  0  0  0 | 0xff000021: 0 , 0 , 0 , 0 , 0 , 0 , 0 , 0 , 0 , 0 , 0 , 0 , 0 | 0xff000022:  236 ,   36 ,  136 ,  247 ,  251 ,  255 ,  255 ,  255 ,   28 ,    0 ,  148 ,  253 ,  159 ,   27 ,   11 ,   15 ,    2 ,  158 ,   25 ,   16 ,    6 ,  128 ,    0 ,    0 ,    0 ,  128 ,    0 ,    0 ,    0 ,    0 ,    9 ,    9 ,    0 ,    0 ,    0 ,    0 ,    0 ,  150 ,  179 ,   25 ,   16 ,   41 ,    8 ,    0 ,  151 ,  128 ,  109 ,   18 ,   81 ,   47 ,  230 ,  106 
E: 000000.312008 64 01 81 7d 82 7f 00 00 6a 08 00 00 00 ec 24 88 f7 fb ff ff ff 1c 00 94 fd 9f 1b 0b 0f 02 9e 19 10 06 80 00 00 00 80 00 00 00 00 09 09 00 00 00 00 00 96 b3 19 10 29 08 00 97 80 6d 12 51 2f e6 6a
# ReportID: 1 / X:  129 | Y:  125 | Z:  130 | Rz:  127 | Rx:    0 | Ry:    0 | 0xff000020:  107 | Hat switch:   8 | Button: 0  0  0  0  0  0  0  0  0  0  0  0  0  0  0 | 0xff000021: 0 , 0 , 0 , 0 , 0 , 0 , 0 , 0 , 0 , 0 , 0 , 0 , 0 | 0xff000022:  237 ,   36 ,  136 ,  247 ,  255 ,  255 ,  253 ,  255 ,   27 ,    0 ,  163 ,  253 ,  148 ,   27 ,   12 ,   15 ,  200 ,  204 ,   25 ,   16 ,    6 ,  128 ,    0 ,    0 ,    0 ,  128 ,    0 ,    0 ,    0 ,    0 ,    9 ,    9 ,    0 ,    0 ,    0 ,    0 ,    0 ,  118 ,  226 ,   25 ,   16 ,   41 ,    8 ,    0 ,   98 ,  202 ,  159 ,  225 ,  220 ,  220 ,  197 ,  232 
E: 000000.316011 64 01 81 7d 82 7f 00 00 6b 08 00 00 00 ed 24 88 f7 ff ff fd ff 1b 00 a3 fd 94 1b 0c 0f c8 cc 19 10 06 80 00 00 00 80 00 00 00 00 09 09 00 00 00 00 00 76 e2 19 10 29 08 00 62 ca 9f e1 dc dc c5 e8
# ReportID: 1 / X:  129 | Y:  125 | Z:  130 | Rz:  127 | Rx:    0 | Ry:    0 | 0xff000020:  108 | Hat switch:   8 | Button: 0  0  0  0  0  0  0  0  0  0  0  0  0  0  0 | 0xff000021: 0 , 0 , 0 , 0 , 0 , 0 , 0 , 0 , 0 , 0 , 0 , 0 , 0 | 0xff000022:  238 ,   36 ,  136 ,  247 ,    4 ,    0 ,  253 ,  255 ,   25 ,    0 ,  168 ,  253 ,  145 ,   27 ,    6 ,   15 ,  144 ,  251 ,   25 ,   16 ,    6 ,  128 ,    0 ,    0 ,    0 ,  128 ,    0 ,    0 ,    0 ,    0 ,    9 ,    9 ,    0 ,    0 ,    0 ,    0 ,    0 ,   86 ,   17 ,   26 ,   16 ,   41 ,    8 ,    0 ,   47 ,  173 ,  155 ,   35 ,  127 ,   81 ,  166 ,  120 
E: 000000.320007 64 01 81 7d 82 7f 00 00 6c 08 00 00 00 ee 24 88 f7 04 00 fd ff 19 00 a8 fd 91 1b 06 0f 90 fb 19 10 06 80 00 00 00 80 00 00 00 00 09 09 00 00 00 00 00 56 11 1a 10 29 08 00 2f ad 9b 23 7f 51 a6 78
# ReportID: 1 / X:  129 | Y:  125 | Z:  130 | Rz:  127 | Rx:    0 | Ry:    0 | 0xff000020:  109 | Hat switch:   8 | Button: 0  0  0  0  0  0  0  0  0  0  0  0  0  0  0 | 0xff000021: 0 , 0 , 0 , 0 , 0 , 0 , 0 , 0 , 0 , 0 , 0 , 0 , 0 | 0xff000022:  239 ,   36 ,  136 ,  247 ,    5 ,    0 ,  252 ,  255 ,   23 ,    0 ,  181 ,  253 ,  131 ,   27 ,    7 ,   15 ,   86 ,   42 ,   26 ,   16 ,    7 ,  128 ,    0 ,    0 ,    0 ,  128 ,    0 ,    0 ,    0 ,    0 ,    9 ,    9 ,    0 ,    0 ,    0 ,    0 ,    0 ,   54 ,   64 ,   26 ,   16 ,   41 ,    8 ,    0 ,  145 ,  107 ,   54 ,  145 ,  217 ,   93 ,  217 ,  167 
E: 000000.324006 64 01 81 7d 82 7f 00 00 6d 08 00 00 00 ef 24 88 f7 05 00 fc ff 17 00 b5 fd 83 1b 07 0f 56 2a 1a 10 07 80 00 00 00 80 00 00 00 00 09 09 00 00 00 00 00 36 40 1a 10 29 08 00 91 6b 36 91 d9 5d d9 a7
# ReportID: 1 / X:  129 | Y:  126 | Z:  130 | Rz:  127 | Rx:    0 | Ry:    0 | 0xff000020:  110 | Hat switch:   8 | Button: 0  0  0  0  0  0  0  0  0  0  0  0  0  0  0 | 0xff000021: 0 , 0 , 0 , 0 , 0 , 0 , 0 , 0 , 0 , 0 , 0 , 0 , 0 | 0xff000022:  240 ,   36 ,  136 ,  247 ,    9 ,    0 ,  252 ,  255 ,   20 ,    0 ,  201 ,  253 ,  127 ,   27 ,   17 ,   15 ,   27 ,   89 ,   26 ,   16 ,    6 ,  128 ,    0 ,    0 ,    0 ,  128 ,    0 ,    0 ,    0 ,    0 ,    9 ,    9 ,    0 ,    0 ,    0 ,    0 ,    0 ,   22 ,  111 ,   26 ,   16 ,   41 ,    8 ,    0 ,  101 ,  192 ,   15 ,  169 ,  242 ,   89 ,  112 ,  183 
E: 000000.328007 64 01 81 7e 82 7f 00 00 6e 08 00 00 00 f0 24 88 f7 09 00 fc ff 14 00 c9 fd 7f 1b 11 0f 1b 59 1a 10 06 80 00 00 00 80 00 00 00 00 09 09 00 00 00 00 00 16 6f 1a 10 29 08 00 65 c0 0f a9 f2 59 70 b7
# ReportID: 1 / X:  129 | Y:  125 | Z:  130 | Rz:  127 | Rx:    0 | Ry:    0 | 0xff000020:  111 | Hat switch:   8 | Button: 0  0  0  0  0  0  0  0  0  0  0  0  0  0  0 | 0xff000021: 0 , 0 , 0 , 0 , 0 , 0 , 0 , 0 , 0 , 0 , 0 , 0 , 0 | 0xff000022:  241 ,   36 ,  136 ,  247 ,   10 ,    0 ,  250 ,  255 ,   17 ,    0 ,  205 ,  253 ,  121 ,   27 ,   22 ,   15 ,  225 ,  135 ,   26 ,   16 ,    6 ,  128 ,    0 ,    0 ,    0 ,  128 ,    0 ,    0 ,    0 ,    0 ,    9 ,    9 ,    0 ,    0 ,    0 ,    0 ,    0 ,  246 ,  157 ,   26 ,   16 ,   41 ,    8 ,    0 ,  255 ,  184 ,  200 ,  173 ,   80 ,  161 ,   67 ,  177 
E: 000000.332007 64 01 81 7d 82 7f 00 00 6f 08 00 00 00 f1 24 88 f7 0a 00 fa ff 11 00 cd fd 79 1b 16 0f e1 87 1a 10 06 80 00 00 00 80 00 00 00 00 09 09 00 00 00 00 00 f6 9d 1a 10 29 08 00 ff b8 c8 ad 50 a1 43 b1
# ReportID: 1 / X:  129 | Y:  126 | Z:  130 | Rz:  127 | Rx:    0 | Ry:    0 | 0xff000020:  112 | Hat switch:   8 | Button: 0  0  0  0  0  0  0  0  0  0  0  0  0  0  0 | 0xff000021: 0 , 0 , 0 , 0 , 0 , 0 , 0 , 0 , 0 , 0 , 0 , 0 , 0 | 0xff000022:  242 ,   36 ,  136 ,  247 ,   12 ,    0 ,  249 ,  255 ,   12 ,    0 ,  216 ,  253 ,  131 ,   27 ,   27 ,   15 ,  168 ,  182 ,   26 ,   16 ,    6 ,  128 ,    0 ,    0 ,    0 ,  128 ,    0 ,    0 ,    0 ,    0 ,    9 ,    9 ,    0 ,    0 ,    0 ,    0 ,    0 ,  214 ,  204 ,   26 ,   16 ,   41 ,    8 ,    0 ,   66 ,   52 ,   20 ,  184 ,  187 ,  175 ,   98 ,   52 
E: 000000.336005 64 01 81 7e 82 7f 00 00 70 08 00 00 00 f2 24 88 f7 0c 00 f9 ff 0c 00 d8 fd 83 1b 1b 0f a8 b6 1a 10 06 80 00 00 00 80 00 00 00 00 09 09 00 00 00 00 00 d6 cc 1a 10 29 08 00 42 34 14 b8 bb af 62 34
# ReportID: 1 / X:  129 | Y:  126 | Z:  130 | Rz:  127 | Rx:    0 | Ry:    0 | 0xff000020:  113 | Hat switch:   8 | Button: 0  0  0  0  0  0  0  0  0  0  0  0  0  0  0 | 0xff000021: 0 , 0 , 0 , 0 , 0 , 0 , 0 , 0 , 0 , 0 , 0 , 0 , 0 | 0xff000022:  243 ,   36 ,  136 ,  247 ,   14 ,    0 ,  249 ,  255 ,    9 ,    0 ,  224 ,  253 ,  133 ,   27 ,   23 ,   15 ,  110 ,  229 ,   26 ,   16 ,    6 ,  128 ,    0 ,    0 ,    0 ,  128 ,    0 ,    0 ,    0 ,    0 ,    9 ,    9 ,    0 ,    0 ,    0 ,    0 ,    0 ,  182 ,  251 ,   26 ,   16 ,   41 ,    8 ,    0 ,    7 ,  183 ,   10 ,  186 ,  203 ,    7 ,   19 ,   96 
E: 000000.340013 64 01 81 7e 82 7f 00 00 71 08 00 00 00 f3 24 88 f7 0e 00 f9 ff 09 00 e0 fd 85 1b 17 0f 6e e5 1a 10 06 80 00 00 00 80 00 00 00 00 09 09 00 00 00 00 00 b6 fb 1a 10 29 08 00 07 b7 0a ba cb 07 13 60
# ReportID: 1 / X:  130 | Y:  126 | Z:  130 | Rz:  127 | Rx:    0 | Ry:    0 | 0xff000020:  114 | Hat switch:   8 | Button: 0  0  0  0  0  0  0  0  0  0  0  0  0  0  0 | 0xff000021: 0 , 0 , 0 , 0 , 0 , 0 , 0 , 0 , 0 , 0 , 0 , 0 , 0 | 0xff000022:  244 ,   36 ,  136 ,  247 ,   15 ,    0 ,  248 ,  255 ,    5 ,    0 ,  226 ,  253 ,  144 ,   27 ,   22 ,   15 ,   52 ,   20 ,   27 ,   16 ,    7 ,  128 ,    0 ,    0 ,    0 ,  128 ,    0 ,    0 ,    0 ,    0 ,    9 ,    9 ,    0 ,    0 ,    0 ,    0 ,    0 ,  150 ,   42 ,   27 ,   16 ,   41 ,    8 ,    0 ,  153 ,  223 ,  208 ,   81 ,  235 ,  249 ,  190 ,  115 
E: 000000.344005 64 01 82 7e 82 7f 00 00 72 08 00 00 00 f4 24 88 f7 0f 00 f8 ff 05 00 e2 fd 90 1b 16 0f 34 14 1b 10 07 80 00 00 00 80 00 00 00 00 09 09 00 00 00 00 00 96 2a 1b 10 29 08 00 99 df d0 51 eb f9 be 73
# ReportID: 1 / X:  129 | Y:  126 | Z:  130 | Rz:  127 | Rx:    0 | Ry:    0 | 0xff000020:  115 | Hat switch:   8 | Button: 0  0  0  0  0  0  0  0  0  0  0  0  0  0  0 | 0xff000021: 0 , 0 , 0 , 0 , 0 , 0 , 0 , 0 , 0 , 0 , 0 , 0 , 0 | 0xff000022:  245 ,   36 ,  136 ,  247 ,   15 ,    0 ,  247 ,  255 ,    1 ,    0 ,  236 ,  253 ,  151 ,   27 ,   26 ,   15 ,  251 ,   66 ,   27 ,   16 ,    6 ,  128 ,    0 ,    0 ,    0 ,  128 ,    0 ,    0 ,    0 ,    0 ,    9 ,    9 ,    0 ,    0 ,    0 ,    0 ,    0 ,  118 ,   89 ,   27 ,   16 ,   41 ,    8 ,    0 ,   94 ,  253 ,   19 ,  119 ,  197 ,  207 ,  168 ,   31 
E: 000000.348004 64 01 81 7e 82 7f 00 00 73 08 00 00 00 f5 24 88 f7 0f 00 f7 ff 01 00 ec fd 97 1b 1a 0f fb 42 1b 10 06 80 00 00 00 80 00 00 00 00 09 09 00 00 00 00 00 76 59 1b 10 29 08 00 5e fd 13 77 c5 cf a8 1f
# ReportID: 1 / X:  130 | Y:  126 | Z:  130 | Rz:  127 | Rx:    0 | Ry:    0 | 0xff000020:  116 | Hat switch:   8 | Button: 0  0  0  0  0  0  0  0  0  0  0  0  0  0  0 | 0xff000021: 0 , 0 , 0 , 0 , 0 , 0 , 0 , 0 , 0 , 0 , 0 , 0 , 0 | 0xff000022:  246 ,   36 ,  136 ,  247 ,   14 ,    0 ,  247 ,  255 ,  254 ,  255 ,  247 ,  253 ,  156 ,   27 ,   32 ,   15 ,  193 ,  113 ,   27 ,   16 ,    6 ,  128 ,    0 ,    0 ,    0 ,  128 ,    0 ,    0 ,    0 ,    0 ,    9 ,    9 ,    0 ,    0 ,    0 ,    0 ,    0 ,   87 ,  136 ,   27 ,   16 ,   41 ,    8 ,    0 ,  198 ,   70 ,  131 ,   70 ,   89 ,  208 ,    1 ,  126 
E: 000000.352007 64 01 82 7e 82 7f 00 00 74 08 00 00 00 f6 24 88 f7 0e 00 f7 ff fe ff f7 fd 9c 1b 20 0f c1 71 1b 10 06 80 00 00 00 80 00 00 00 00 09 09 00 00 00 00 00 57 88 1b 10 29 08 00 c6 46 83 46 59 d0 01 7e
# ReportID: 1 / X:  130 | Y:  125 | Z:  130 | Rz:  127 | Rx:    0 | Ry:    0 | 0xff000020:  117 | Hat switch:   8 | Button: 0  0  0  0  0  0  0  0  0  0  0  0  0  0  0 | 0xff000021: 0 , 0 , 0 , 0 , 0 , 0 , 0 , 0 , 0 , 0 , 0 , 0 , 0 | 0xff000022:  247 ,   36 ,  136 ,  247 ,   12 ,    0 ,  248 ,  255 ,  252 ,  255 ,  254 ,  253 ,  170 ,   27 ,   20 ,   15 ,  135 ,  160 ,   27 ,   16 ,    6 ,  128 ,    0 ,    0 ,    0 ,  128 ,    0 ,    0 ,    0 ,    0 ,    9 ,    9 ,    0 ,    0 ,    0 ,    0 ,    0 ,   54 ,  183 ,   27 ,   16 ,   41 ,    8 ,    0 ,   14 ,  237 ,   29 ,  217 ,  111 ,  125 ,    6 ,   88 
E: 000000.356005 64 01 82 7d 82 7f 00 00 75 08 00 00 00 f7 24 88 f7 0c 00 f8 ff fc ff fe fd aa 1b 14 0f 87 a0 1b 10 06 80 00 00 00 80 00 00 00 00 09 09 00 00 00 00 00 36 b7 1b 10 29 08 00 0e ed 1d d9 6f 7d 06 58
# ReportID: 1 / X:  129 | Y:  125 | Z:  130 | Rz:  127 | Rx:    0 | Ry:    0 | 0xff000020:  118 | Hat switch:   8 | Button: 0  0  0  0  0  0  0  0  0  0  0  0  0  0  0 | 0xff000021: 0 , 0 , 0 , 0 , 0 , 0 , 0 , 0 , 0 , 0 , 0 , 0 , 0 | 0xff000022:  248 ,   36 ,  136 ,  247 ,   13 ,    0 ,  249 ,  255 ,  248 ,  255 ,    5 ,  254 ,  183 ,   27 ,   39 ,   15 ,   82 ,  207 ,   27 ,   16 ,    6 ,  128 ,    0 ,    0 ,    0 ,  128 ,    0 ,    0 ,    0 ,    0 ,    9 ,    9 ,    0 ,    0 ,    0 ,    0 ,    0 ,   22 ,  230 ,   27 ,   16 ,   41 ,    8 ,    0 ,   50 ,  183 ,  118 ,   35 ,   10 ,  107 ,   80 ,  199 
E: 000000.360006 64 01 81 7d 82 7f 00 00 76 08 00 00 00 f8 24 88 f7 0d 00 f9 ff f8 ff 05 fe b7 1b 27 0f 52 cf 1b 10 06 80 00 00 00 80 00 00 00 00 09 09 00 00 00 00 00 16 e6 1b 10 29 08 00 32 b7 76 23 0a 6b 50 c7
# ReportID: 1 / X:  129 | Y:  126 | Z:  130 | Rz:  127 | Rx:    0 | Ry:    0 | 0xff000020:  119 | Hat switch:   8 | Button: 0  0  0  0  0  0  0  0  0  0  0  0  0  0  0 | 0xff000021: 0 , 0 , 0 , 0 , 0 , 0 , 0 , 0 , 0 , 0 , 0 , 0 , 0 | 0xff000022:  249 ,   36 ,  136 ,  247 ,   12 ,    0 ,  250 ,  255 ,  246 ,  255 ,    5 ,  254 ,  194 ,   27 ,   33 ,   15 ,   25 ,  254 ,   27 ,   16 ,    6 ,  128 ,    0 ,    0 ,    0 ,  128 ,    0 ,    0 ,    0 ,    0 ,    9 ,    9 ,    0 ,    0 ,    0 ,    0 ,    0 ,  246 ,   20 ,   28 ,   16 ,   41 ,    8 ,    0 ,   12 ,  175 ,  196 ,  105 ,   84 ,  124 ,  172 ,   12 
E: 000000.364006 64 01 81 7e 82 7f 00 00 77 08 00 00 00 f9 24 88 f7 0c 00 fa ff f6 ff 05 fe c2 1b 21 0f 19 fe 1b 10 06 80 00 00 00 80 00 00 00 00 09 09 00 00 00 00 00 f6 14 1c 10 29 08 00 0c af c4 69 54 7c ac 0c
# ReportID: 1 / X:  130 | Y:  125 | Z:  130 | Rz:  127 | Rx:    0 | Ry:    0 | 0xff000020:  120 | Hat switch:   8 | Button: 0  0  0  0  0  0  0  0  0  0  0  0  0  0  0 | 0xff000021: 0 , 0 , 0 , 0 , 0 , 0 , 0 , 0 , 0 , 0 , 0 , 0 , 0 | 0xff000022:  250 ,   36 ,  136 ,  247 ,   14 ,    0 ,  251 ,  255 ,  243 ,  255 ,   10 ,  254 ,  212 ,   27 ,   35 ,   15 ,  218 ,   44 ,   28 ,   16 ,    7 ,  128 ,    0 ,    0 ,    0 ,  128 ,    0 ,    0 ,    0 ,    0 ,    9 ,    9 ,    0 ,    0 ,    0 ,    0 ,    0 ,  214 ,   67 ,   28 ,   16 ,   41 ,    8 ,    0 ,  162 ,   78 ,   51 ,  198 ,   86 ,  100 ,  118 ,   80 
E: 000000.368006 64 01 82 7d 82 7f 00 00 78 08 00 00 00 fa 24 88 f7 0e 00 fb ff f3 ff 0a fe d4 1b 23 0f da 2c 1c 10 07 80 00 00 00 80 00 00 00 00 09 09 00 00 00 00 00 d6 43 1c 10 29 08 00 a2 4e 33 c6 56 64 76 50
# ReportID: 1 / X:  130 | Y:  125 | Z:  130 | Rz:  127 | Rx:    0 | Ry:    0 | 0xff000020:  121 | Hat switch:   8 | Button: 0  0  0  0  0  0  0  0  0  0  0  0  0  0  0 | 0xff000021: 0 , 0 , 0 , 0 , 0 , 0 , 0 , 0 , 0 , 0 , 0 , 0 , 0 | 0xff000022:  251 ,   36 ,  136 ,  247 ,   13 ,    0 ,  252 ,  255 ,  242 ,  255 ,   22 ,  254 ,  226 ,   27 ,   51 ,   15 ,  160 ,   91 ,   28 ,   16 ,    7 ,  128 ,    0 ,    0 ,    0 ,  128 ,    0 ,    0 ,    0 ,    0 ,    9 ,    9 ,    0 ,    0 ,    0 ,    0 ,    0 ,  182 ,  114 ,   28 ,   16 ,   41 ,    8 ,    0 ,   20 ,  191 ,   99 ,    4 ,  169 ,   99 ,  231 ,   33 
E: 000000.372008 64 01 82 7d 82 7f 00 00 79 08 00 00 00 fb 24 88 f7 0d 00 fc ff f2 ff 16 fe e2 1b 33 0f a0 5b 1c 10 07 80 00 00 00 80 00 00 00 00 09 09 00 00 00 00 00 b6 72 1c 10 29 08 00 14 bf 63 04 a9 63 e7 21
# ReportID: 1 / X:  129 | Y:  126 | Z:  130 | Rz:  127 | Rx:    0 | Ry:    0 | 0xff000020:  122 | Hat switch:   8 | Button: 0  0  0  0  0  0  0  0  0  0  0  0  0  0  0 | 0xff000021: 0 , 0 , 0 , 0 , 0 , 0 , 0 , 0 , 0 , 0 , 0 , 0 , 0 | 0xff000022:  252 ,   36 ,  136 ,  247 ,   12 ,    0 ,  254 ,  255 ,  241 ,  255 ,   25 ,  254 ,  232 ,   27 ,   53 ,   15 ,  102 ,  138 ,   28 ,   16 ,    6 ,  128 ,    0 ,    0 ,    0 ,  128 ,    0 ,    0 ,    0 ,    0 ,    9 ,    9 ,    0 ,    0 ,    0 ,    0 ,    0 ,  150 ,  161 ,   28 ,   16 ,   41 ,    8 ,    0 ,  194 ,  231 ,   23 ,   41 ,  103 ,   67 ,   89 ,   58 
E: 000000.376010 64 01 81 7e 82 7f 00 00 7a 08 00 00 00 fc 24 88 f7 0c 00 fe ff f1 ff 19 fe e8 1b 35 0f 66 8a 1c 10 06 80 00 00 00 80 00 00 00 00 09 09 00 00 00 00 00 96 a1 1c 10 29 08 00 c2 e7 17 29 67 43 59 3a
# ReportID: 1 / X:  130 | Y:  125 | Z:  130 | Rz:  127 | Rx:    0 | Ry:    0 | 0xff000020:  123 | Hat switch:   8 | Button: 0  0  0  0  0  0  0  0  0  0  0  0  0  0  0 | 0xff000021: 0 , 0 , 0 , 0 , 0 , 0 , 0 , 0 , 0 , 0 , 0 , 0 , 0 | 0xff000022:  253 ,   36 ,  136 ,  247 ,   12 ,    0 ,  255 ,  255 ,  239 ,  255 ,   31 ,  254 ,  234 ,   27 ,   49 ,   15 ,   45 ,  185 ,   28 ,   16 ,    6 ,  128 ,    0 ,    0 ,    0 ,  128 ,    0 ,    0 ,    0 ,    0 ,    9 ,    9 ,    0 ,    0 ,    0 ,    0 ,    0 ,  118 ,  208 ,   28 ,   16 ,   41 ,    8 ,    0 ,  242 ,   57 ,   65 ,  161 ,  127 ,  188 ,  150 ,  133 
E: 000000.380008 64 01 82 7d 82 7f 00 00 7b 08 00 00 00 fd 24 88 f7 0c 00 ff ff ef ff 1f fe ea 1b 31 0f 2d b9 1c 10 06 80 00 00 00 80 00 00 00 00 09 09 00 00 00 00 00 76 d0 1c 10 29 08 00 f2 39 41 a1 7f bc 96 85
# ReportID: 1 / X:  129 | Y:  126 | Z:  130 | Rz:  127 | Rx:    0 | Ry:    0 | 0xff000020:  124 | Hat switch:   8 | Button: 0  0  0  0  0  0  0  0  0  0  0  0  0  0  0 | 0xff000021: 0 , 0 , 0 , 0 , 0 , 0 , 0 , 0 , 0 , 0 , 0 , 0 , 0 | 0xff000022:  254 ,   36 ,  136 ,  247 ,   11 ,    0 ,    0 ,    0 ,  239 ,  255 ,   29 ,  254 ,    2 ,   28 ,   54 ,   15 ,  243 ,  231 ,   28 ,   16 ,    6 ,  128 ,    0 ,    0 ,    0 ,  128 ,    0 ,    0 ,    0 ,    0 ,    9 ,    9 ,    0 ,    0 ,    0 ,    0 ,    0 ,   95 ,  255 ,   28 ,   16 ,   41 ,    8 ,    0 ,  171 ,   56 ,  122 ,   94 ,  225 ,   64 ,   92 ,  166 
E: 000000.384007 64 01 81 7e 82 7f 00 00 7c 08 00 00 00 fe 24 88 f7 0b 00 00 00 ef ff 1d fe 02 1c 36 0f f3 e7 1c 10 06 80 00 00 00 80 00 00 00 00 09 09 00 00 00 00 00 5f ff 1c 10 29 08 00 ab 38 7a 5e e1 40 5c a6
# ReportID: 1 / X:  129 | Y:  126 | Z:  130 | Rz:  127 | Rx:    0 | Ry:    0 | 0xff000020:  125 | Hat switch:   8 | Button: 0  0  0  0  0  0  0  0  0  0  0  0  0  0  0 | 0xff000021: 0 , 0 , 0 , 0 , 0 , 0 , 0 , 0 , 0 , 0 , 0 , 0 , 0 | 0xff000022:  255 ,   36 ,  136 ,  247 ,   10 ,    0 ,    1 ,    0 ,  238 ,  255 ,   16 ,  254 ,    9 ,   28 ,   58 ,   15 ,  187 ,   22 ,   29 ,   16 ,    6 ,  128 ,    0 ,    0 ,    0 ,  128 ,    0 ,    0 ,    0 ,    0 ,    9 ,    9 ,    0 ,    0 ,    0 ,    0 ,    0 ,   62 ,   46 ,   29 ,   16 ,   41 ,    8 ,    0 ,   69 ,  108 ,   69 ,   38 ,  189 ,   42 ,  146 ,  110 
E: 000000.388004 64 01 81 7e 82 7f 00 00 7d 08 00 00 00 ff 24 88 f7 0a 00 01 00 ee ff 10 fe 09 1c 3a 0f bb 16 1d 10 06 80 00 00 00 80 00 00 00 00 09 09 00 00 00 00 00 3e 2e 1d 10 29 08 00 45 6c 45 26 bd 2a 92 6e
# ReportID: 1 / X:  130 | Y:  126 | Z:  130 | Rz:  127 | Rx:    0 | Ry:    0 | 0xff000020:  126 | Hat switch:   8 | Button: 0  0  0  0  0  0  0  0  0  0  0  0  0  0  0 | 0xff000021: 0 , 0 , 0 , 0 , 0 , 0 , 0 , 0 , 0 , 0 , 0 , 0 , 0 | 0xff000022:    0 ,   37 ,  136 ,  247 ,   10 ,    0 ,    2 ,    0 ,  239 ,  255 ,   10 ,  254 ,   23 ,   28 ,   49 ,   15 ,  129 ,   69 ,   29 ,   16 ,    6 ,  128 ,    0 ,    0 ,    0 ,  128 ,    0 ,    0 ,    0 ,    0 ,    9 ,    9 ,    0 ,    0 ,    0 ,    0 ,    0 ,   47 ,   93 ,   29 ,   16 ,   41 ,    8 ,    0 ,    6 ,    5 ,  119 ,  146 ,  113 ,  103 ,   69 ,  240 
E: 000000.392009 64 01 82 7e 82 7f 00 00 7e 08 00 00 00 00 25 88 f7 0a 00 02 00 ef ff 0a fe 17 1c 31 0f 81 45 1d 10 06 80 00 00 00 80 00 00 00 00 09 09 00 00 00 00 00 2f 5d 1d 10 29 08 00 06 05 77 92 71 67 45 f0
# ReportID: 1 / X:  129 | Y:  125 | Z:  130 | Rz:  127 | Rx:    0 | Ry:    0 | 0xff000020:  127 | Hat switch:   8 | Button: 0  0  0  0  0  0  0  0  0  0  0  0  0  0  0 | 0xff000021: 0 , 0 , 0 , 0 , 0 , 0 , 0 , 0 , 0 , 0 , 0 , 0 , 0 | 0xff000022:    1 ,   37 ,  136 ,  247 ,    9 ,    0 ,    4 ,    0 ,  238 ,  255 ,  251 ,  253 ,   16 ,   28 ,   52 ,   15 ,   70 ,  116 ,   29 ,   16 ,    7 ,  128 ,    0 ,    0 ,    0 ,  128 ,    0 ,    0 ,    0 ,    0 ,    9 ,    9 ,    0 ,    0 ,    0 ,    0 ,    0 ,  253 ,  139 ,   29 ,   16 ,   41 ,    8 ,    0 ,  114 ,  113 ,  149 ,  173 ,  104 ,   46 ,   20 ,  100 
E: 000000.396013 64 01 81 7d 82 7f 00 00 7f 08 00 00 00 01 25 88 f7 09 00 04 00 ee ff fb fd 10 1c 34 0f 46 74 1d 10 07 80 00 00 00 80 00 00 00 00 09 09 00 00 00 00 00 fd 8b 1d 10 29 08 00 72 71 95 ad 68 2e 14 64
# ReportID: 1 / X:  130 | Y:  125 | Z:  130 | Rz:  127 | Rx:    0 | Ry:    0 | 0xff000020:  128 | Hat switch:   8 | Button: 0  0  0  0  0  0  0  0  0  0  0  0  0  0  0 | 0xff000021: 0 , 0 , 0 , 0 , 0 , 0 , 0 , 0 , 0 , 0 , 0 , 0 , 0 | 0xff000022:    2 ,   37 ,  136 ,  247 ,    8 ,    0 ,    3 ,    0 ,  240 ,  255 ,  247 ,  253 ,   26 ,   28 ,   52 ,   15 ,   12 ,  163 ,   29 ,   16 ,    6 ,  128 ,    0 ,    0 ,    0 ,  128 ,    0 ,    0 ,    0 ,    0 ,    9 ,    9 ,    0 ,    0 ,    0 ,    0 ,    0 ,  214 ,  186 ,   29 ,   16 ,   41 ,    8 ,    0 ,  231 ,  132 ,  202 ,   33 ,  109 ,   45 ,   94 ,  104 
E: 000000.400007 64 01 82 7d 82 7f 00 00 80 08 00 00 00 02 25 88 f7 08 00 03 00 f0 ff f7 fd 1a 1c 34 0f 0c a3 1d 10 06 80 00 00 00 80 00 00 00 00 09 09 00 00 00 00 00 d6 ba 1d 10 29 08 00 e7 84 ca 21 6d 2d 5e 68
# ReportID: 1 / X:  129 | Y:  125 | Z:  130 | Rz:  127 | Rx:    0 | Ry:    0 | 0xff000020:  129 | Hat switch:   8 | Button: 0  0  0  0  0  0  0  0  0  0  0  0  0  0  0 | 0xff000021: 0 , 0 , 0 , 0 , 0 , 0 , 0 , 0 , 0 , 0 , 0 , 0 , 0 | 0xff000022:    3 ,   37 ,  136 ,  247 ,    5 ,    0 ,    5 ,    0 ,  242 ,  255 ,  232 ,  253 ,   23 ,   28 ,   48 ,   15 ,  210 ,  209 ,   29 ,   16 ,    6 ,  128 ,    0 ,    0 ,    0 ,  128 ,    0 ,    0 ,    0 ,    0 ,    9 ,    9 ,    0 ,    0 ,    0 ,    0 ,    0 ,  182 ,  233 ,   29 ,   16 ,   41 ,    8 ,    0 ,  198 ,   28 ,   23 ,   13 ,  174 ,   43 ,   77 ,  219 
E: 000000.404010 64 01 81 7d 82 7f 00 00 81 08 00 00 00 03 25 88 f7 05 00 05 00 f2 ff e8 fd 17 1c 30 0f d2 d1 1d 10 06 80 00 00 00 80 00 00 00 00 09 09 00 00 00 00 00 b6 e9 1d 10 29 08 00 c6 1c 17 0d ae 2b 4d db
# ReportID: 1 / X:  129 | Y:  126 | Z:  130 | Rz:  127 | Rx:    0 | Ry:    0 | 0xff000020:  130 | Hat switch:   8 | Button: 0  0  0  0  0  0  0  0  0  0  0  0  0  0  0 | 0xff000021: 0 , 0 , 0 , 0 , 0 , 0 , 0 , 0 , 0 , 0 , 0 , 0 , 0 | 0xff000022:    4 ,   37 ,  136 ,  247 ,    4 ,    0 ,    5 ,    0 ,  243 ,  255 ,  235 ,  253 ,   27 ,   28 ,   49 ,   15 ,  153 ,    0 ,   30 ,   16 ,    7 ,  128 ,    0 ,    0 ,    0 ,  128 ,    0 ,    0 ,    0 ,    0 ,    9 ,    9 ,    0 ,    0 ,    0 ,    0 ,    0 ,  150 ,   24 ,   30 ,   16 ,   41 ,    8 ,    0 ,   48 ,   63 ,  245 ,   66 ,  122 ,  111 ,    5 ,   84 
E: 000000.408011 64 01 81 7e 82 7f 00 00 82 08 00 00 00 04 25 88 f7 04 00 05 00 f3 ff eb fd 1b 1c 31 0f 99 00 1e 10 07 80 00 00 00 80 00 00 00 00 09 09 00 00 00 00 00 96 18 1e 10 29 08 00 30 3f f5 42 7a 6f 05 54
# ReportID: 1 / X:  130 | Y:  125 | Z:  130 | Rz:  127 | Rx:    0 | Ry:    0 | 0xff000020:  131 | Hat switch:   8 | Button: 0  0  0  0  0  0  0  0  0  0  0  0  0  0  0 | 0xff000021: 0 , 0 , 0 , 0 , 0 , 0 , 0 , 0 , 0 , 0 , 0 , 0 , 0 | 0xff000022:    5 ,   37 ,  136 ,  247 ,    2 ,    0 ,    3 ,    0 ,  245 ,  255 ,  216 ,  253 ,   23 ,   28 ,   45 ,   15 ,   95 ,   47 ,   30 ,   16 ,    6 ,  128 ,    0 ,    0 ,    0 ,  128 ,    0 ,    0 ,    0 ,    0 ,    9 ,    9 ,    0 ,    0 ,    0 ,    0 ,    0 ,  118 ,   71 ,   30 ,   16 ,   41 ,    8 ,    0 ,  107 ,   25 ,    6 ,   64 ,  239 ,  126 ,  184 ,  178 
E: 000000.412008 64 01 82 7d 82 7f 00 00 83 08 00 00 00 05 25 88 f7 02 00 03 00 f5 ff d8 fd 17 1c 2d 0f 5f 2f 1e 10 06 80 00 00 00 80 00 00 00 00 09 09 00 00 00 00 00 76 47 1e 10 29 08 00 6b 19 06 40 ef 7e b8 b2
# ReportID: 1 / X:  130 | Y:  126 | Z:  130 | Rz:  127 | Rx:    0 | Ry:    0 | 0xff000020:  132 | Hat switch:   8 | Button: 0  0  0  0  0  0  0  0  0  0  0  0  0  0  0 | 0xff000021: 0 , 0 , 0 , 0 , 0 , 0 , 0 , 0 , 0 , 0 , 0 , 0 , 0 | 0xff000022:    6 ,   37 ,  136 ,  247 ,    0 ,    0 ,    4 ,    0 ,  247 ,  255 ,  217 ,  253 ,   18 ,   28 ,   46 ,   15 ,   37 ,   94 ,   30 ,   16 ,    6 ,  128 ,    0 ,    0 ,    0 ,  128 ,    0 ,    0 ,    0 ,    0 ,    9 ,    9 ,    0 ,    0 ,    0 ,    0 ,    0 ,   86 ,  118 ,   30 ,   16 ,   41 ,    8 ,    0 ,  121 ,  172 ,  239 ,   60 ,   55 ,    5 ,   29 ,  115 
E: 000000.416008 64 01 82 7e 82 7f 00 00 84 08 00 00 00 06 25 88 f7 00 00 04 00 f7 ff d9 fd 12 1c 2e 0f 25 5e 1e 10 06 80 00 00 00 80 00 00 00 00 09 09 00 00 00 00 00 56 76 1e 10 29 08 00 79 ac ef 3c 37 05 1d 73
# ReportID: 1 / X:  129 | Y:  125 | Z:  130 | Rz:  127 | Rx:    0 | Ry:    0 | 0xff000020:  133 | Hat switch:   8 | Button: 0  0  0  0  0  0  0  0  0  0  0  0  0  0  0 | 0xff000021: 0 , 0 , 0 , 0 , 0 , 0 , 0 , 0 , 0 , 0 , 0 , 0 , 0 | 0xff000022:    7 ,   37 ,  136 ,  247 ,    0 ,    0 ,    2 ,    0 ,  250 ,  255 ,  211 ,  253 ,   17 ,   28 ,   48 ,   15 ,  246 ,  140 ,   30 ,   16 ,    7 ,  128 ,    0 ,    0 ,    0 ,  128 ,    0 ,    0 ,    0 ,    0 ,    9 ,    9 ,    0 ,    0 ,    0 ,    0 ,    0 ,   54 ,  165 ,   30 ,   16 ,   41 ,    8 ,    0 ,  120 ,  145 ,  101 ,  127 ,   78 ,  185 ,  149 ,  183 
E: 000000.420006 64 01 81 7d 82 7f 00 00 85 08 00 00 00 07 25 88 f7 00 00 02 00 fa ff d3 fd 11 1c 30 0f f6 8c 1e 10 07 80 00 00 00 80 00 00 00 00 09 09 00 00 00 00 00 36 a5 1e 10 29 08 00 78 91 65 7f 4e b9 95 b7
# ReportID: 1 / X:  130 | Y:  125 | Z:  130 | Rz:  127 | Rx:    0 | Ry:    0 | 0xff000020:  134 | Hat switch:   8 | Button: 0  0  0  0  0  0  0  0  0  0  0  0  0  0  0 | 0xff000021: 0 , 0 , 0 , 0 , 0 , 0 , 0 , 0 , 0 , 0 , 0 , 0 , 0 | 0xff000022:    8 ,   37 ,  136 ,  247 ,  254 ,  255 ,    3 ,    0 ,  251 ,  255 ,  207 ,  253 ,   11 ,   28 ,   37 ,   15 ,  212 ,  187 ,   30 ,   16 ,    6 ,  128 ,    0 ,    0 ,    0 ,  128 ,    0 ,    0 ,    0 ,    0 ,    9 ,    9 ,    0 ,    0 ,    0 ,    0 ,    0 ,   22 ,  212 ,   30 ,   16 ,   41 ,    8 ,    0 ,   25 ,  126 ,  129 ,   91 ,   62 ,   16 ,  142 ,   81 
E: 000000.424010 64 01 82 7d 82 7f 00 00 86 08 00 00 00 08 25 88 f7 fe ff 03 00 fb ff cf fd 0b 1c 25 0f d4 bb 1e 10 06 80 00 00 00 80 00 00 00 00 09 09 00 00 00 00 00 16 d4 1e 10 29 08 00 19 7e 81 5b 3e 10 8e 51
# ReportID: 1 / X:  129 | Y:  125 | Z:  130 | Rz:  127 | Rx:    0 | Ry:    0 | 0xff000020:  135 | Hat switch:   8 | Button: 0  0  0  0  0  0  0  0  0  0  0  0  0  0  0 | 0xff000021: 0 , 0 , 0 , 0 , 0 , 0 , 0 , 0 , 0 , 0 , 0 , 0 , 0 | 0xff000022:    9 ,   37 ,  136 ,  247 ,  253 ,  255 ,    2 ,    0 ,  253 ,  255 ,  191 ,  253 ,    6 ,   28 ,   46 ,   15 ,  181 ,  234 ,   30 ,   16 ,    6 ,  128 ,    0 ,    0 ,    0 ,  128 ,    0 ,    0 ,    0 ,    0 ,    9 ,    9 ,    0 ,    0 ,    0 ,    0 ,    0 ,  246 ,    2 ,   31 ,   16 ,   41 ,    8 ,    0 ,  113 ,   95 ,  243 ,  184 ,    2 ,    5 ,  103 ,  140 
E: 000000.428007 64 01 81 7d 82 7f 00 00 87 08 00 00 00 09 25 88 f7 fd ff 02 00 fd ff bf fd 06 1c 2e 0f b5 ea 1e 10 06 80 00 00 00 80 00 00 00 00 09 09 00 00 00 00 00 f6 02 1f 10 29 08 00 71 5f f3 b8 02 05 67 8c
