# Joy-Con (L)
# 0x05, 0x01,                    // Usage Page (Generic Desktop)        0
# 0x09, 0x05,                    // Usage (Game Pad)                    2
# 0xa1, 0x01,                    // Collection (Application)            4
# 0x06, 0x01, 0xff,              //  Usage Page (Vendor Usage Page 0xff01) 6
# 0x85, 0x21,                    //  Report ID (33)                     9
# 0x09, 0x21,                    //  Usage (Vendor Usage 0x21)          11
# 0x75, 0x08,                    //  Report Size (8)                    13
# 0x95, 0x30,                    //  Report Count (48)                  15
# 0x81, 0x02,                    //  Input (Data,Var,Abs)               17
# 0x85, 0x30,                    //  Report ID (48)                     19
# 0x09, 0x30,                    //  Usage (Vendor Usage 0x30)          21
# 0x75, 0x08,                    //  Report Size (8)                    23
# 0x95, 0x30,                    //  Report Count (48)                  25
# 0x81, 0x02,                    //  Input (Data,Var,Abs)               27
# 0x85, 0x31,                    //  Report ID (49)                     29
# 0x09, 0x31,                    //  Usage (Vendor Usage 0x31)          31
# 0x75, 0x08,                    //  Report Size (8)                    33
# 0x96, 0x69, 0x01,              //  Report Count (361)                 35
# 0x81, 0x02,                    //  Input (Data,Var,Abs)               38
# 0x85, 0x32,                    //  Report ID (50)                     40
# 0x09, 0x32,                    //  Usage (Vendor Usage 0x32)          42
# 0x75, 0x08,                    //  Report Size (8)                    44
# 0x96, 0x69, 0x01,              //  Report Count (361)                 46
# 0x81, 0x02,                    //  Input (Data,Var,Abs)               49
# 0x85, 0x33,                    //  Report ID (51)                     51
# 0x09, 0x33,                    //  Usage (Vendor Usage 0x33)          53
# 0x75, 0x08,                    //  Report Size (8)                    55
# 0x96, 0x69, 0x01,              //  Report Count (361)                 57
# 0x81, 0x02,                    //  Input (Data,Var,Abs)               60
# 0x85, 0x3f,                    //  Report ID (63)                     62
# 0x05, 0x09,                    //  Usage Page (Button)                64
# 0x19, 0x01,                    //  Usage Minimum (1)                  66
# 0x29, 0x10,                    //  Usage Maximum (16)                 68
# 0x15, 0x00,                    //  Logical Minimum (0)                70
# 0x25, 0x01,                    //  Logical Maximum (1)                72
# 0x75, 0x01,                    //  Report Size (1)                    74
# 0x95, 0x10,                    //  Report Count (16)                  76
# 0x81, 0x02,                    //  Input (Data,Var,Abs)               78
# 0x05, 0x01,                    //  Usage Page (Generic Desktop)       80
# 0x09, 0x39,                    //  Usage (Hat switch)                 82
# 0x15, 0x00,                    //  Logical Minimum (0)                84
# 0x25, 0x07,                    //  Logical Maximum (7)                86
# 0x75, 0x04,                    //  Report Size (4)                    88
# 0x95, 0x01,                    //  Report Count (1)                   90
# 0x81, 0x42,                    //  Input (Data,Var,Abs,Null)          92
# 0x05, 0x09,                    //  Usage Page (Button)                94
# 0x75, 0x04,                    //  Report Size (4)                    96
# 0x95, 0x01,                    //  Report Count (1)                   98
# 0x81, 0x01,                    //  Input (Cnst,Arr,Abs)               100
# 0x05, 0x01,                    //  Usage Page (Generic Desktop)       102
# 0x09, 0x30,                    //  Usage (X)                          104
# 0x09, 0x31,                    //  Usage (Y)                          106
# 0x09, 0x33,                    //  Usage (Rx)                         108
# 0x09, 0x34,                    //  Usage (Ry)                         110
# 0x16, 0x00, 0x00,              //  Logical Minimum (0)                112
# 0x27, 0xff, 0xff, 0x00, 0x00,  //  Logical Maximum (65535)            115
# 0x75, 0x10,                    //  Report Size (16)                   120
# 0x95, 0x04,                    //  Report Count (4)                   122
# 0x81, 0x02,                    //  Input (Data,Var,Abs)               124
# 0x06, 0x01, 0xff,              //  Usage Page (Vendor Usage Page 0xff01) 126
# 0x85, 0x01,                    //  Report ID (1)                      129
# 0x09, 0x01,                    //  Usage (Vendor Usage 0x01)          131
# 0x75, 0x08,                    //  Report Size (8)                    133
# 0x95, 0x30,                    //  Report Count (48)                  135
# 0x91, 0x02,                    //  Output (Data,Var,Abs)              137
# 0x85, 0x10,                    //  Report ID (16)                     139
# 0x09, 0x10,                    //  Usage (Vendor Usage 0x10)          141
# 0x75, 0x08,                    //  Report Size (8)                    143
# 0x95, 0x30,                    //  Report Count (48)                  145
# 0x91, 0x02,                    //  Output (Data,Var,Abs)              147
# 0x85, 0x11,                    //  Report ID (17)                     149
# 0x09, 0x11,                    //  Usage (Vendor Usage 0x11)          151
# 0x75, 0x08,                    //  Report Size (8)                    153
# 0x95, 0x30,                    //  Report Count (48)                  155
# 0x91, 0x02,                    //  Output (Data,Var,Abs)              157
# 0x85, 0x12,                    //  Report ID (18)                     159
# 0x09, 0x12,                    //  Usage (Vendor Usage 0x12)          161
# 0x75, 0x08,                    //  Report Size (8)                    163
# 0x95, 0x30,                    //  Report Count (48)                  165
# 0x91, 0x02,                    //  Output (Data,Var,Abs)              167
# 0xc0,                          // End Collection                      169
# 
R: 170 05 01 09 05 a1 01 06 01 ff 85 21 09 21 75 08 95 30 81 02 85 30 09 30 75 08 95 30 81 02 85 31 09 31 75 08 96 69 01 81 02 85 32 09 32 75 08 96 69 01 81 02 85 33 09 33 75 08 96 69 01 81 02 85 3f 05 09 19 01 29 10 15 00 25 01 75 01 95 10 81 02 05 01 09 39 15 00 25 07 75 04 95 01 81 42 05 09 75 04 95 01 81 01 05 01 09 30 09 31 09 33 09 34 16 00 00 27 ff ff 00 00 75 10 95 04 81 02 06 01 ff 85 01 09 01 75 08 95 30 91 02 85 10 09 10 75 08 95 30 91 02 85 11 09 11 75 08 95 30 91 02 85 12 09 12 75 08 95 30 91 02 c0
N: Joy-Con (L)
I: 5 057e 2006
# ReportID: 48 / 0xff010030:  150 ,   46 ,    0 ,    0 ,    0 ,   48 ,  152 ,  140 ,    0 ,    0 ,    0 ,  160 ,   24 ,    6 ,   92 ,    2 ,   37 ,   15 ,  189 ,  255 ,   41 ,  255 ,  206 ,  255 ,  213 ,    5 ,  110 ,    2 ,   42 ,   15 ,  231 ,  255 ,   72 ,  255 ,  222 ,  255 ,  148 ,    5 ,  140 ,    2 ,   30 ,   15 ,   27 ,    0 ,  111 ,  255 ,  233 ,  255 
E: 000000.000000 49 30 96 2e 00 00 00 30 98 8c 00 00 00 a0 18 06 5c 02 25 0f bd ff 29 ff ce ff d5 05 6e 02 2a 0f e7 ff 48 ff de ff 94 05 8c 02 1e 0f 1b 00 6f ff e9 ff
# ReportID: 48 / 0xff010030:  153 ,   46 ,    0 ,    0 ,    0 ,   49 ,  168 ,  140 ,    0 ,    0 ,    0 ,  160 ,  171 ,    6 ,  117 ,    2 ,  222 ,   14 ,  143 ,  255 ,  101 ,  255 ,  217 ,  255 ,  142 ,    6 ,   97 ,    2 ,  248 ,   14 ,  138 ,  255 ,   49 ,  255 ,  201 ,  255 ,   87 ,    6 ,   86 ,    2 ,   16 ,   15 ,  157 ,  255 ,   29 ,  255 ,  196 ,  255 
E: 000000.015011 49 30 99 2e 00 00 00 31 a8 8c 00 00 00 a0 ab 06 75 02 de 0e 8f ff 65 ff d9 ff 8e 06 61 02 f8 0e 8a ff 31 ff c9 ff 57 06 56 02 10 0f 9d ff 1d ff c4 ff
# ReportID: 48 / 0xff010030:  156 ,   46 ,    0 ,    0 ,    0 ,   49 ,  168 ,  140 ,    0 ,    0 ,    0 ,  160 ,  120 ,    6 ,  206 ,    2 ,  119 ,   14 ,  212 ,  255 ,   50 ,    0 ,  248 ,  255 ,  154 ,    6 ,  181 ,    2 ,  140 ,   14 ,  199 ,  255 ,  241 ,  255 ,  246 ,  255 ,  174 ,    6 ,  145 ,    2 ,  186 ,   14 ,  170 ,  255 ,  172 ,  255 ,  234 ,  255 
E: 000000.030988 49 30 9c 2e 00 00 00 31 a8 8c 00 00 00 a0 78 06 ce 02 77 0e d4 ff 32 00 f8 ff 9a 06 b5 02 8c 0e c7 ff f1 ff f6 ff ae 06 91 02 ba 0e aa ff ac ff ea ff
# ReportID: 48 / 0xff010030:  159 ,   46 ,    0 ,    0 ,    0 ,   47 ,  168 ,  140 ,    0 ,    0 ,    0 ,  160 ,   96 ,    6 ,  202 ,    2 ,   93 ,   14 ,  210 ,  255 ,   67 ,    0 ,   16 ,    0 ,   76 ,    6 ,  222 ,    2 ,  102 ,   14 ,  205 ,  255 ,   75 ,    0 ,  251 ,  255 ,   85 ,    6 ,  221 ,    2 ,  110 ,   14 ,  206 ,  255 ,   73 ,    0 ,  246 ,  255 
E: 000000.044975 49 30 9f 2e 00 00 00 2f a8 8c 00 00 00 a0 60 06 ca 02 5d 0e d2 ff 43 00 10 00 4c 06 de 02 66 0e cd ff 4b 00 fb ff 55 06 dd 02 6e 0e ce ff 49 00 f6 ff
# ReportID: 48 / 0xff010030:  162 ,   46 ,    0 ,    0 ,    0 ,   49 ,  168 ,  140 ,    0 ,    0 ,    0 ,  160 ,  141 ,    6 ,  123 ,    2 ,  161 ,   14 ,   40 ,    0 ,   16 ,    0 ,   89 ,    0 ,  142 ,    6 ,  142 ,    2 ,  130 ,   14 ,    3 ,    0 ,   34 ,    0 ,   71 ,    0 ,  122 ,    6 ,  170 ,    2 ,  103 ,   14 ,  227 ,  255 ,   51 ,    0 ,   45 ,    0 
E: 000000.061034 49 30 a2 2e 00 00 00 31 a8 8c 00 00 00 a0 8d 06 7b 02 a1 0e 28 00 10 00 59 00 8e 06 8e 02 82 0e 03 00 22 00 47 00 7a 06 aa 02 67 0e e3 ff 33 00 2d 00
# ReportID: 48 / 0xff010030:  165 ,   46 ,    0 ,    0 ,    0 ,   49 ,  168 ,  140 ,    0 ,    0 ,    0 ,  160 ,   19 ,    6 ,  124 ,    2 ,  197 ,   14 ,  104 ,    0 ,  217 ,  255 ,  108 ,    0 ,   71 ,    6 ,  137 ,    2 ,  200 ,   14 ,   98 ,    0 ,  232 ,  255 ,  102 ,    0 ,  119 ,    6 ,  128 ,    2 ,  198 ,   14 ,   69 ,    0 ,  252 ,  255 ,   98 ,    0 
E: 000000.076038 49 30 a5 2e 00 00 00 31 a8 8c 00 00 00 a0 13 06 7c 02 c5 0e 68 00 d9 ff 6c 00 47 06 89 02 c8 0e 62 00 e8 ff 66 00 77 06 80 02 c6 0e 45 00 fc ff 62 00
# ReportID: 48 / 0xff010030:  168 ,   46 ,    0 ,    0 ,    0 ,   49 ,  168 ,  140 ,    0 ,    0 ,    0 ,  160 ,  201 ,    5 ,  252 ,    1 ,  170 ,   14 ,   52 ,    0 ,  162 ,  255 ,   93 ,    0 ,  206 ,    5 ,   45 ,    2 ,  173 ,   14 ,   82 ,    0 ,  182 ,  255 ,  103 ,    0 ,  233 ,    5 ,   90 ,    2 ,  191 ,   14 ,   94 ,    0 ,  201 ,  255 ,  110 ,    0 
E: 000000.089974 49 30 a8 2e 00 00 00 31 a8 8c 00 00 00 a0 c9 05 fc 01 aa 0e 34 00 a2 ff 5d 00 ce 05 2d 02 ad 0e 52 00 b6 ff 67 00 e9 05 5a 02 bf 0e 5e 00 c9 ff 6e 00
# ReportID: 48 / 0xff010030:  171 ,   46 ,    0 ,    0 ,    0 ,   47 ,  184 ,  140 ,    0 ,    0 ,    0 ,  160 ,   17 ,    6 ,   89 ,    1 ,  219 ,   14 ,  158 ,  255 ,  149 ,  255 ,   31 ,    0 ,  232 ,    5 ,  144 ,    1 ,  201 ,   14 ,  212 ,  255 ,  137 ,  255 ,   57 ,    0 ,  208 ,    5 ,  198 ,    1 ,  186 ,   14 ,    6 ,    0 ,  147 ,  255 ,   80 ,    0 
E: 000000.108145 49 30 ab 2e 00 00 00 2f b8 8c 00 00 00 a0 11 06 59 01 db 0e 9e ff 95 ff 1f 00 e8 05 90 01 c9 0e d4 ff 89 ff 39 00 d0 05 c6 01 ba 0e 06 00 93 ff 50 00
# ReportID: 48 / 0xff010030:  174 ,   46 ,    0 ,    0 ,    0 ,   48 ,  168 ,  140 ,    0 ,    0 ,    0 ,  160 ,  130 ,    6 ,   53 ,    1 ,   39 ,   15 ,  141 ,  255 ,   38 ,    0 ,  238 ,  255 ,  109 ,    6 ,   32 ,    1 ,   30 ,   15 ,  121 ,  255 ,  236 ,  255 ,  252 ,  255 ,   65 ,    6 ,   49 ,    1 ,  253 ,   14 ,  127 ,  255 ,  183 ,  255 ,   13 ,    0 
E: 000000.120069 49 30 ae 2e 00 00 00 30 a8 8c 00 00 00 a0 82 06 35 01 27 0f 8d ff 26 00 ee ff 6d 06 20 01 1e 0f 79 ff ec ff fc ff 41 06 31 01 fd 0e 7f ff b7 ff 0d 00
# ReportID: 48 / 0xff010030:  177 ,   46 ,    0 ,    0 ,    0 ,   49 ,  168 ,  140 ,    0 ,    0 ,    0 ,  160 ,   78 ,    6 ,   26 ,    2 ,  200 ,   14 ,  192 ,  255 ,  147 ,    0 ,  212 ,  255 ,   98 ,    6 ,  204 ,    1 ,  230 ,   14 ,  191 ,  255 ,  126 ,    0 ,  212 ,  255 ,  124 ,    6 ,  121 ,    1 ,   17 ,   15 ,  168 ,  255 ,   89 ,    0 ,  222 ,  255 
E: 000000.134988 49 30 b1 2e 00 00 00 31 a8 8c 00 00 00 a0 4e 06 1a 02 c8 0e c0 ff 93 00 d4 ff 62 06 cc 01 e6 0e bf ff 7e 00 d4 ff 7c 06 79 01 11 0f a8 ff 59 00 de ff
# ReportID: 48 / 0xff010030:  180 ,   46 ,    0 ,    0 ,    0 ,   49 ,  168 ,  140 ,    0 ,    0 ,    0 ,  160 ,   72 ,    6 ,  117 ,    2 ,  169 ,   14 ,  147 ,  255 ,   91 ,    0 ,  225 ,  255 ,   64 ,    6 ,   97 ,    2 ,  178 ,   14 ,  155 ,  255 ,  125 ,    0 ,  222 ,  255 ,   68 ,    6 ,   73 ,    2 ,  189 ,   14 ,  177 ,  255 ,  149 ,    0 ,  216 ,  255 
E: 000000.150064 49 30 b4 2e 00 00 00 31 a8 8c 00 00 00 a0 48 06 75 02 a9 0e 93 ff 5b 00 e1 ff 40 06 61 02 b2 0e 9b ff 7d 00 de ff 44 06 49 02 bd 0e b1 ff 95 00 d8 ff
# ReportID: 48 / 0xff010030:  183 ,   46 ,    0 ,    0 ,    0 ,   47 ,  184 ,  140 ,    0 ,    0 ,    0 ,  160 ,  153 ,    6 ,  173 ,    2 ,  123 ,   14 ,  181 ,  255 ,  250 ,  255 ,    2 ,    0 ,  119 ,    6 ,  144 ,    2 ,  167 ,   14 ,  159 ,  255 ,   22 ,    0 ,  243 ,  255 ,   95 ,    6 ,  132 ,    2 ,  164 ,   14 ,  149 ,  255 ,   55 ,    0 ,  232 ,  255 
E: 000000.166993 49 30 b7 2e 00 00 00 2f b8 8c 00 00 00 a0 99 06 ad 02 7b 0e b5 ff fa ff 02 00 77 06 90 02 a7 0e 9f ff 16 00 f3 ff 5f 06 84 02 a4 0e 95 ff 37 00 e8 ff
# ReportID: 48 / 0xff010030:  186 ,   46 ,    0 ,    0 ,    0 ,   49 ,  184 ,  140 ,    0 ,    0 ,    0 ,  160 ,  140 ,    6 ,   61 ,    2 ,  176 ,   14 ,  235 ,  255 ,  170 ,  255 ,   35 ,    0 ,  155 ,    6 ,  135 ,    2 ,  127 ,   14 ,  203 ,  255 ,  200 ,  255 ,   23 ,    0 ,  165 ,    6 ,  181 ,    2 ,   86 ,   14 ,  196 ,  255 ,  225 ,  255 ,   14 ,    0 
E: 000000.180910 49 30 ba 2e 00 00 00 31 b8 8c 00 00 00 a0 8c 06 3d 02 b0 0e eb ff aa ff 23 00 9b 06 87 02 7f 0e cb ff c8 ff 17 00 a5 06 b5 02 56 0e c4 ff e1 ff 0e 00
# ReportID: 48 / 0xff010030:  189 ,   46 ,    0 ,    0 ,    0 ,   49 ,  168 ,  140 ,    0 ,    0 ,    0 ,  160 ,  174 ,    6 ,  207 ,    1 ,   53 ,   15 ,   38 ,    0 ,  159 ,  255 ,   75 ,    0 ,  152 ,    6 ,  229 ,    1 ,    8 ,   15 ,   35 ,    0 ,  145 ,  255 ,   62 ,    0 ,  139 ,    6 ,    5 ,    2 ,  214 ,   14 ,   14 ,    0 ,  152 ,  255 ,   48 ,    0 
E: 000000.196051 49 30 bd 2e 00 00 00 31 a8 8c 00 00 00 a0 ae 06 cf 01 35 0f 26 00 9f ff 4b 00 98 06 e5 01 08 0f 23 00 91 ff 3e 00 8b 06 05 02 d6 0e 0e 00 98 ff 30 00
# ReportID: 48 / 0xff010030:  192 ,   46 ,    0 ,    0 ,    0 ,   48 ,  168 ,  140 ,    0 ,    0 ,    0 ,  160 ,  124 ,    6 ,  243 ,    1 ,   72 ,   15 ,   20 ,    0 ,   47 ,    0 ,   68 ,    0 ,  164 ,    6 ,  226 ,    1 ,   91 ,   15 ,   24 ,    0 ,  245 ,  255 ,   73 ,    0 ,  182 ,    6 ,  210 ,    1 ,   83 ,   15 ,   32 ,    0 ,  192 ,  255 ,   77 ,    0 
E: 000000.210036 49 30 c0 2e 00 00 00 30 a8 8c 00 00 00 a0 7c 06 f3 01 48 0f 14 00 2f 00 44 00 a4 06 e2 01 5b 0f 18 00 f5 ff 49 00 b6 06 d2 01 53 0f 20 00 c0 ff 4d 00
# ReportID: 48 / 0xff010030:  195 ,   46 ,    0 ,    0 ,    0 ,   47 ,  168 ,  140 ,    0 ,    0 ,    0 ,  160 ,  233 ,    5 ,  225 ,    1 ,   43 ,   15 ,  214 ,  255 ,  121 ,    0 ,   60 ,    0 ,    6 ,    6 ,  234 ,    1 ,   29 ,   15 ,  255 ,  255 ,  120 ,    0 ,   67 ,    0 ,   66 ,    6 ,  249 ,    1 ,   41 ,   15 ,   17 ,    0 ,   93 ,    0 ,   68 ,    0 
E: 000000.225035 49 30 c3 2e 00 00 00 2f a8 8c 00 00 00 a0 e9 05 e1 01 2b 0f d6 ff 79 00 3c 00 06 06 ea 01 1d 0f ff ff 78 00 43 00 42 06 f9 01 29 0f 11 00 5d 00 44 00
# ReportID: 48 / 0xff010030:  198 ,   46 ,    0 ,    0 ,    0 ,   46 ,  152 ,  140 ,    0 ,    0 ,    0 ,  160 ,   30 ,    6 ,  129 ,    1 ,  115 ,   15 ,  117 ,  255 ,   51 ,    0 ,    6 ,    0 ,  245 ,    5 ,  175 ,    1 ,   83 ,   15 ,  134 ,  255 ,   75 ,    0 ,   25 ,    0 ,  225 ,    5 ,  209 ,    1 ,   60 ,   15 ,  172 ,  255 ,  100 ,    0 ,   44 ,    0 
E: 000000.240978 49 30 c6 2e 00 00 00 2e 98 8c 00 00 00 a0 1e 06 81 01 73 0f 75 ff 33 00 06 00 f5 05 af 01 53 0f 86 ff 4b 00 19 00 e1 05 d1 01 3c 0f ac ff 64 00 2c 00
# ReportID: 48 / 0xff010030:  201 ,   46 ,    0 ,    0 ,    0 ,   47 ,  152 ,  140 ,    0 ,    0 ,    0 ,  160 ,  178 ,    6 ,  209 ,    1 ,  220 ,   14 ,  243 ,  255 ,   14 ,    0 ,    5 ,    0 ,  133 ,    6 ,  152 ,    1 ,   42 ,   15 ,  185 ,  255 ,   22 ,    0 ,  246 ,  255 ,   77 ,    6 ,  118 ,    1 ,  100 ,   15 ,  136 ,  255 ,   35 ,    0 ,  249 ,  255 
E: 000000.256030 49 30 c9 2e 00 00 00 2f 98 8c 00 00 00 a0 b2 06 d1 01 dc 0e f3 ff 0e 00 05 00 85 06 98 01 2a 0f b9 ff 16 00 f6 ff 4d 06 76 01 64 0f 88 ff 23 00 f9 ff
# ReportID: 48 / 0xff010030:  204 ,   46 ,    0 ,    0 ,    0 ,   49 ,  152 ,  140 ,    0 ,    0 ,    0 ,  160 ,  166 ,    6 ,   81 ,    2 ,   94 ,   14 ,  145 ,    0 ,  246 ,  255 ,  100 ,    0 ,  198 ,    6 ,   56 ,    2 ,  101 ,   14 ,  108 ,    0 ,  255 ,  255 ,   79 ,    0 ,  206 ,    6 ,   15 ,    2 ,  146 ,   14 ,   59 ,    0 ,    6 ,    0 ,   48 ,    0 
E: 000000.269929 49 30 cc 2e 00 00 00 31 98 8c 00 00 00 a0 a6 06 51 02 5e 0e 91 00 f6 ff 64 00 c6 06 38 02 65 0e 6c 00 ff ff 4f 00 ce 06 0f 02 92 0e 3b 00 06 00 30 00
# ReportID: 48 / 0xff010030:  207 ,   46 ,    0 ,    0 ,    0 ,   49 ,  168 ,  140 ,    0 ,    0 ,    0 ,  160 ,  255 ,    5 ,   27 ,    2 ,  212 ,   14 ,  167 ,    0 ,  179 ,  255 ,  113 ,    0 ,   59 ,    6 ,   69 ,    2 ,  148 ,   14 ,  176 ,    0 ,  205 ,  255 ,  117 ,    0 ,  122 ,    6 ,   88 ,    2 ,  115 ,   14 ,  166 ,    0 ,  229 ,  255 ,  113 ,    0 
E: 000000.285004 49 30 cf 2e 00 00 00 31 a8 8c 00 00 00 a0 ff 05 1b 02 d4 0e a7 00 b3 ff 71 00 3b 06 45 02 94 0e b0 00 cd ff 75 00 7a 06 58 02 73 0e a6 00 e5 ff 71 00
# ReportID: 48 / 0xff010030:  210 ,   46 ,    0 ,    0 ,    0 ,   49 ,  136 ,  140 ,    0 ,    0 ,    0 ,  160 ,  110 ,    6 ,  130 ,    1 ,  129 ,   15 ,  102 ,    0 ,  117 ,  255 ,   79 ,    0 ,   36 ,    6 ,  175 ,    1 ,   90 ,   15 ,  119 ,    0 ,  121 ,  255 ,   88 ,    0 ,  241 ,    5 ,  234 ,    1 ,   28 ,   15 ,  146 ,    0 ,  149 ,  255 ,  104 ,    0 
E: 000000.300305 49 30 d2 2e 00 00 00 31 88 8c 00 00 00 a0 6e 06 82 01 81 0f 66 00 75 ff 4f 00 24 06 af 01 5a 0f 77 00 79 ff 58 00 f1 05 ea 01 1c 0f 92 00 95 ff 68 00
# ReportID: 48 / 0xff010030:  213 ,   46 ,    0 ,    0 ,    0 ,   49 ,  168 ,  140 ,    0 ,    0 ,    0 ,  160 ,  200 ,    6 ,  127 ,    1 ,  119 ,   15 ,   99 ,    0 ,  240 ,  255 ,   34 ,    0 ,  218 ,    6 ,  105 ,    1 ,  151 ,   15 ,  101 ,    0 ,  185 ,  255 ,   55 ,    0 ,  178 ,    6 ,  103 ,    1 ,  160 ,   15 ,   96 ,    0 ,  140 ,  255 ,   70 ,    0 
E: 000000.316113 49 30 d5 2e 00 00 00 31 a8 8c 00 00 00 a0 c8 06 7f 01 77 0f 63 00 f0 ff 22 00 da 06 69 01 97 0f 65 00 b9 ff 37 00 b2 06 67 01 a0 0f 60 00 8c ff 46 00
# ReportID: 48 / 0xff010030:  216 ,   46 ,    0 ,    0 ,    0 ,   49 ,  136 ,  140 ,    0 ,    0 ,    0 ,  160 ,   92 ,    6 ,  194 ,    1 ,   53 ,   15 ,   39 ,    0 ,  112 ,    0 ,  247 ,  255 ,  130 ,    6 ,  183 ,    1 ,   80 ,   15 ,   50 ,    0 ,   82 ,    0 ,    0 ,    0 ,  152 ,    6 ,  155 ,    1 ,   92 ,   15 ,   77 ,    0 ,   38 ,    0 ,   14 ,    0 
E: 000000.330032 49 30 d8 2e 00 00 00 31 88 8c 00 00 00 a0 5c 06 c2 01 35 0f 27 00 70 00 f7 ff 82 06 b7 01 50 0f 32 00 52 00 00 00 98 06 9b 01 5c 0f 4d 00 26 00 0e 00
# ReportID: 48 / 0xff010030:  219 ,   46 ,    0 ,    0 ,    0 ,   49 ,  136 ,  140 ,    0 ,    0 ,    0 ,  160 ,  241 ,    5 ,  151 ,    1 ,  255 ,   14 ,  225 ,  255 ,   91 ,    0 ,  232 ,  255 ,    4 ,    6 ,  161 ,    1 ,    5 ,   15 ,    2 ,    0 ,  113 ,    0 ,  234 ,  255 ,   38 ,    6 ,  181 ,    1 ,   22 ,   15 ,   32 ,    0 ,  125 ,    0 ,  240 ,  255 
E: 000000.345125 49 30 db 2e 00 00 00 31 88 8c 00 00 00 a0 f1 05 97 01 ff 0e e1 ff 5b 00 e8 ff 04 06 a1 01 05 0f 02 00 71 00 ea ff 26 06 b5 01 16 0f 20 00 7d 00 f0 ff
# ReportID: 48 / 0xff010030:  222 ,   46 ,    0 ,    0 ,    0 ,   48 ,  152 ,  140 ,    0 ,    0 ,    0 ,  160 ,   89 ,    6 ,  171 ,    1 ,   36 ,   15 ,  145 ,  255 ,   70 ,    0 ,  253 ,  255 ,   29 ,    6 ,  161 ,    1 ,   12 ,   15 ,  159 ,  255 ,   63 ,    0 ,  241 ,  255 ,  245 ,    5 ,  155 ,    1 ,    2 ,   15 ,  188 ,  255 ,   72 ,    0 ,  234 ,  255 
E: 000000.360055 49 30 de 2e 00 00 00 30 98 8c 00 00 00 a0 59 06 ab 01 24 0f 91 ff 46 00 fd ff 1d 06 a1 01 0c 0f 9f ff 3f 00 f1 ff f5 05 9b 01 02 0f bc ff 48 00 ea ff
# ReportID: 48 / 0xff010030:  225 ,   46 ,    0 ,    0 ,    0 ,   48 ,  168 ,  140 ,    0 ,    0 ,    0 ,  160 ,  143 ,    6 ,  146 ,    1 ,   85 ,   15 ,  189 ,  255 ,  124 ,    0 ,    2 ,    0 ,  154 ,    6 ,  162 ,    1 ,   61 ,   15 ,  166 ,  255 ,  108 ,    0 ,    9 ,    0 ,  137 ,    6 ,  174 ,    1 ,   50 ,   15 ,  149 ,  255 ,   89 ,    0 ,    5 ,    0 
E: 000000.375929 49 30 e1 2e 00 00 00 30 a8 8c 00 00 00 a0 8f 06 92 01 55 0f bd ff 7c 00 02 00 9a 06 a2 01 3d 0f a6 ff 6c 00 09 00 89 06 ae 01 32 0f 95 ff 59 00 05 00
# ReportID: 48 / 0xff010030:  228 ,   46 ,    0 ,    0 ,    0 ,   47 ,  152 ,  140 ,    0 ,    0 ,    0 ,  160 ,  110 ,    6 ,  178 ,    1 ,   88 ,   15 ,   25 ,    0 ,   86 ,    0 ,  219 ,  255 ,   93 ,    6 ,  158 ,    1 ,   97 ,   15 ,  248 ,  255 ,  111 ,    0 ,  228 ,  255 ,  113 ,    6 ,  143 ,    1 ,  100 ,   15 ,  213 ,  255 ,  125 ,    0 ,  243 ,  255 
E: 000000.390979 49 30 e4 2e 00 00 00 2f 98 8c 00 00 00 a0 6e 06 b2 01 58 0f 19 00 56 00 db ff 5d 06 9e 01 61 0f f8 ff 6f 00 e4 ff 71 06 8f 01 64 0f d5 ff 7d 00 f3 ff
# ReportID: 48 / 0xff010030:  231 ,   46 ,    0 ,    0 ,    0 ,   47 ,  152 ,  140 ,    0 ,    0 ,    0 ,  160 ,  237 ,    5 ,  228 ,    1 ,   17 ,   15 ,   71 ,    0 ,    4 ,    0 ,  219 ,  255 ,   24 ,    6 ,  217 ,    1 ,   19 ,   15 ,   74 ,    0 ,   32 ,    0 ,  209 ,  255 ,   68 ,    6 ,  203 ,    1 ,   48 ,   15 ,   53 ,    0 ,   59 ,    0 ,  209 ,  255 
E: 000000.405092 49 30 e7 2e 00 00 00 2f 98 8c 00 00 00 a0 ed 05 e4 01 11 0f 47 00 04 00 db ff 18 06 d9 01 13 0f 4a 00 20 00 d1 ff 44 06 cb 01 30 0f 35 00 3b 00 d1 ff
# ReportID: 48 / 0xff010030:  234 ,   46 ,    0 ,    0 ,    0 ,   48 ,  168 ,  140 ,    0 ,    0 ,    0 ,  160 ,  241 ,    5 ,   26 ,    2 ,   33 ,   15 ,   36 ,    0 ,  154 ,  255 ,  239 ,  255 ,  209 ,    5 ,   20 ,    2 ,   37 ,   15 ,   52 ,    0 ,  181 ,  255 ,  233 ,  255 ,  209 ,    5 ,  251 ,    1 ,   34 ,   15 ,   63 ,    0 ,  216 ,  255 ,  225 ,  255 
E: 000000.419947 49 30 ea 2e 00 00 00 30 a8 8c 00 00 00 a0 f1 05 1a 02 21 0f 24 00 9a ff ef ff d1 05 14 02 25 0f 34 00 b5 ff e9 ff d1 05 fb 01 22 0f 3f 00 d8 ff e1 ff
# ReportID: 48 / 0xff010030:  237 ,   46 ,    0 ,    0 ,    0 ,   47 ,  168 ,  140 ,    0 ,    0 ,    0 ,  160 ,  145 ,    6 ,  234 ,    1 ,   38 ,   15 ,  246 ,  255 ,  122 ,  255 ,    6 ,    0 ,   95 ,    6 ,    3 ,    2 ,   38 ,   15 ,  252 ,  255 ,  124 ,  255 ,  255 ,  255 ,   29 ,    6 ,   22 ,    2 ,   34 ,   15 ,   15 ,    0 ,  136 ,  255 ,  247 ,  255 
E: 000000.436959 49 30 ed 2e 00 00 00 2f a8 8c 00 00 00 a0 91 06 ea 01 26 0f f6 ff 7a ff 06 00 5f 06 03 02 26 0f fc ff 7c ff ff ff 1d 06 16 02 22 0f 0f 00 88 ff f7 ff
# ReportID: 48 / 0xff010030:  240 ,   46 ,    0 ,    0 ,    0 ,   48 ,  152 ,  140 ,    0 ,    0 ,    0 ,  160 ,  215 ,    6 ,  197 ,    1 ,   37 ,   15 ,   43 ,    0 ,  194 ,  255 ,   41 ,    0 ,  218 ,    6 ,  197 ,    1 ,   27 ,   15 ,   21 ,    0 ,  160 ,  255 ,   29 ,    0 ,  191 ,    6 ,  208 ,    1 ,   30 ,   15 ,  255 ,  255 ,  135 ,  255 ,   15 ,    0 
E: 000000.450018 49 30 f0 2e 00 00 00 30 98 8c 00 00 00 a0 d7 06 c5 01 25 0f 2b 00 c2 ff 29 00 da 06 c5 01 1b 0f 15 00 a0 ff 1d 00 bf 06 d0 01 1e 0f ff ff 87 ff 0f 00
# ReportID: 48 / 0xff010030:  243 ,   46 ,    0 ,    0 ,    0 ,   48 ,  152 ,  140 ,    0 ,    0 ,    0 ,  160 ,  118 ,    6 ,  233 ,    1 ,   38 ,   15 ,   52 ,    0 ,   48 ,    0 ,   24 ,    0 ,  156 ,    6 ,  219 ,    1 ,   61 ,   15 ,   60 ,    0 ,   22 ,    0 ,   35 ,    0 ,  194 ,    6 ,  203 ,    1 ,   54 ,   15 ,   59 ,    0 ,  244 ,  255 ,   44 ,    0 
E: 000000.465054 49 30 f3 2e 00 00 00 30 98 8c 00 00 00 a0 76 06 e9 01 26 0f 34 00 30 00 18 00 9c 06 db 01 3d 0f 3c 00 16 00 23 00 c2 06 cb 01 36 0f 3b 00 f4 ff 2c 00
# ReportID: 48 / 0xff010030:  246 ,   46 ,    0 ,    0 ,    0 ,   48 ,  152 ,  140 ,    0 ,    0 ,    0 ,  160 ,   20 ,    6 ,  186 ,    1 ,  243 ,   14 ,    3 ,    0 ,   71 ,    0 ,  222 ,  255 ,   91 ,    6 ,  209 ,    1 ,  250 ,   14 ,   17 ,    0 ,   74 ,    0 ,  245 ,  255 ,  102 ,    6 ,  229 ,    1 ,   16 ,   15 ,   34 ,    0 ,   67 ,    0 ,   10 ,    0 
E: 000000.480117 49 30 f6 2e 00 00 00 30 98 8c 00 00 00 a0 14 06 ba 01 f3 0e 03 00 47 00 de ff 5b 06 d1 01 fa 0e 11 00 4a 00 f5 ff 66 06 e5 01 10 0f 22 00 43 00 0a 00
# ReportID: 48 / 0xff010030:  249 ,   46 ,    0 ,    0 ,    0 ,   48 ,  152 ,  140 ,    0 ,    0 ,    0 ,  160 ,  126 ,    5 ,  155 ,    1 ,   13 ,   15 ,    5 ,    0 ,    4 ,    0 ,  198 ,  255 ,  138 ,    5 ,  149 ,    1 ,    5 ,   15 ,  251 ,  255 ,   33 ,    0 ,  200 ,  255 ,  199 ,    5 ,  162 ,    1 ,  249 ,   14 ,  248 ,  255 ,   61 ,    0 ,  207 ,  255 
E: 000000.511202 49 30 f9 2e 00 00 00 30 98 8c 00 00 00 a0 7e 05 9b 01 0d 0f 05 00 04 00 c6 ff 8a 05 95 01 05 0f fb ff 21 00 c8 ff c7 05 a2 01 f9 0e f8 ff 3d 00 cf ff
# ReportID: 48 / 0xff010030:  253 ,   46 ,    0 ,    0 ,    0 ,   47 ,  152 ,  140 ,    0 ,    0 ,    0 ,  160 ,   87 ,    6 ,  192 ,    1 ,  202 ,   14 ,    5 ,    0 ,  203 ,  255 ,  228 ,  255 ,   14 ,    6 ,  194 ,    1 ,  218 ,   14 ,   10 ,    0 ,  204 ,  255 ,  214 ,  255 ,  182 ,    5 ,  183 ,    1 ,  243 ,   14 ,   16 ,    0 ,  222 ,  255 ,  205 ,  255 
E: 000000.512003 49 30 fd 2e 00 00 00 2f 98 8c 00 00 00 a0 57 06 c0 01 ca 0e 05 00 cb ff e4 ff 0e 06 c2 01 da 0e 0a 00 cc ff d6 ff b6 05 b7 01 f3 0e 10 00 de ff cd ff
# ReportID: 48 / 0xff010030:    0 ,   46 ,    0 ,    0 ,    0 ,   47 ,  168 ,  140 ,    0 ,    0 ,    0 ,  160 ,  104 ,    6 ,  133 ,    1 ,   25 ,   15 ,   46 ,    0 ,   21 ,    0 ,  225 ,  255 ,  138 ,    6 ,  143 ,    1 ,  230 ,   14 ,   24 ,    0 ,  238 ,  255 ,  232 ,  255 ,  129 ,    6 ,  175 ,    1 ,  202 ,   14 ,   13 ,    0 ,  213 ,  255 ,  232 ,  255 
E: 000000.524964 49 30 00 2e 00 00 00 2f a8 8c 00 00 00 a0 68 06 85 01 19 0f 2e 00 15 00 e1 ff 8a 06 8f 01 e6 0e 18 00 ee ff e8 ff 81 06 af 01 ca 0e 0d 00 d5 ff e8 ff
# ReportID: 48 / 0xff010030:    3 ,   46 ,    0 ,    0 ,    0 ,   49 ,  152 ,  140 ,    0 ,    0 ,    0 ,  160 ,   57 ,    6 ,  147 ,    1 ,  138 ,   15 ,  167 ,    0 ,   81 ,    0 ,  211 ,  255 ,  105 ,    6 ,  125 ,    1 ,  134 ,   15 ,  130 ,    0 ,   74 ,    0 ,  224 ,  255 ,   76 ,    6 ,  130 ,    1 ,   95 ,   15 ,   74 ,    0 ,   42 ,    0 ,  223 ,  255 
E: 000000.541006 49 30 03 2e 00 00 00 31 98 8c 00 00 00 a0 39 06 93 01 8a 0f a7 00 51 00 d3 ff 69 06 7d 01 86 0f 82 00 4a 00 e0 ff 4c 06 82 01 5f 0f 4a 00 2a 00 df ff
# ReportID: 48 / 0xff010030:    6 ,   46 ,    0 ,    0 ,    0 ,   49 ,  152 ,  140 ,    0 ,    0 ,    0 ,  160 ,  118 ,    5 ,  240 ,    1 ,   82 ,   15 ,  140 ,    0 ,   50 ,    0 ,  198 ,  255 ,  181 ,    5 ,  222 ,    1 ,  121 ,   15 ,  168 ,    0 ,   70 ,    0 ,  201 ,  255 ,  233 ,    5 ,  189 ,    1 ,  150 ,   15 ,  169 ,    0 ,   82 ,    0 ,  200 ,  255 
E: 000000.556010 49 30 06 2e 00 00 00 31 98 8c 00 00 00 a0 76 05 f0 01 52 0f 8c 00 32 00 c6 ff b5 05 de 01 79 0f a8 00 46 00 c9 ff e9 05 bd 01 96 0f a9 00 52 00 c8 ff
# ReportID: 48 / 0xff010030:    9 ,   46 ,    0 ,    0 ,    0 ,   48 ,  168 ,  140 ,    0 ,    0 ,    0 ,  160 ,   48 ,    5 ,  148 ,    1 ,   88 ,   15 ,  234 ,  255 ,  203 ,  255 ,  176 ,  255 ,   25 ,    5 ,  195 ,    1 ,   76 ,   15 ,   23 ,    0 ,  245 ,  255 ,  185 ,  255 ,   51 ,    5 ,  235 ,    1 ,   78 ,   15 ,   85 ,    0 ,   29 ,    0 ,  191 ,  255 
E: 000000.570035 49 30 09 2e 00 00 00 30 a8 8c 00 00 00 a0 30 05 94 01 58 0f ea ff cb ff b0 ff 19 05 c3 01 4c 0f 17 00 f5 ff b9 ff 33 05 eb 01 4e 0f 55 00 1d 00 bf ff
# ReportID: 48 / 0xff010030:   12 ,   46 ,    0 ,    0 ,    0 ,   48 ,  152 ,  140 ,    0 ,    0 ,    0 ,  160 ,  203 ,    5 ,   73 ,    1 ,   95 ,   15 ,  166 ,  255 ,   85 ,  255 ,  138 ,  255 ,  140 ,    5 ,   77 ,    1 ,  109 ,   15 ,  176 ,  255 ,  113 ,  255 ,  144 ,  255 ,   90 ,    5 ,  109 ,    1 ,  103 ,   15 ,  199 ,  255 ,  157 ,  255 ,  160 ,  255 
E: 000000.585994 49 30 0c 2e 00 00 00 30 98 8c 00 00 00 a0 cb 05 49 01 5f 0f a6 ff 55 ff 8a ff 8c 05 4d 01 6d 0f b0 ff 71 ff 90 ff 5a 05 6d 01 67 0f c7 ff 9d ff a0 ff
# ReportID: 48 / 0xff010030:   15 ,   46 ,    0 ,    0 ,    0 ,   47 ,  136 ,  140 ,    0 ,    0 ,    0 ,  160 ,  141 ,    6 ,  174 ,    1 ,   46 ,   15 ,  234 ,  255 ,  173 ,  255 ,  174 ,  255 ,   89 ,    6 ,  132 ,    1 ,   48 ,   15 ,  206 ,  255 ,  115 ,  255 ,  161 ,  255 ,   22 ,    6 ,   98 ,    1 ,   68 ,   15 ,  176 ,  255 ,   84 ,  255 ,  146 ,  255 
E: 000000.600995 49 30 0f 2e 00 00 00 2f 88 8c 00 00 00 a0 8d 06 ae 01 2e 0f ea ff ad ff ae ff 59 06 84 01 30 0f ce ff 73 ff a1 ff 16 06 62 01 44 0f b0 ff 54 ff 92 ff
# ReportID: 48 / 0xff010030:   18 ,   46 ,    0 ,    0 ,    0 ,   49 ,  152 ,  140 ,    0 ,    0 ,    0 ,  160 ,   85 ,    6 ,   25 ,    2 ,   85 ,   15 ,   17 ,    0 ,   83 ,    0 ,  177 ,  255 ,  126 ,    6 ,  253 ,    1 ,   74 ,   15 ,   14 ,    0 ,   56 ,    0 ,  176 ,  255 ,  152 ,    6 ,  219 ,    1 ,   62 ,   15 ,    2 ,    0 ,    0 ,    0 ,  177 ,  255 
E: 000000.617022 49 30 12 2e 00 00 00 31 98 8c 00 00 00 a0 55 06 19 02 55 0f 11 00 53 00 b1 ff 7e 06 fd 01 4a 0f 0e 00 38 00 b0 ff 98 06 db 01 3e 0f 02 00 00 00 b1 ff
# ReportID: 48 / 0xff010030:   21 ,   46 ,    0 ,    0 ,    0 ,   48 ,  152 ,  140 ,    0 ,    0 ,    0 ,  160 ,  215 ,    5 ,   78 ,    2 ,  243 ,   14 ,  222 ,  255 ,   16 ,    0 ,  187 ,  255 ,  237 ,    5 ,   68 ,    2 ,   33 ,   15 ,  244 ,  255 ,   55 ,    0 ,  183 ,  255 ,   28 ,    6 ,   52 ,    2 ,   73 ,   15 ,    8 ,    0 ,   80 ,    0 ,  179 ,  255 
E: 000000.630977 49 30 15 2e 00 00 00 30 98 8c 00 00 00 a0 d7 05 4e 02 f3 0e de ff 10 00 bb ff ed 05 44 02 21 0f f4 ff 37 00 b7 ff 1c 06 34 02 49 0f 08 00 50 00 b3 ff
# ReportID: 48 / 0xff010030:   24 ,   46 ,    0 ,    0 ,    0 ,   48 ,  152 ,  140 ,    0 ,    0 ,    0 ,  160 ,  240 ,    5 ,   38 ,    2 ,   90 ,   14 ,  172 ,  255 ,  151 ,  255 ,  197 ,  255 ,  242 ,    5 ,   57 ,    2 ,  128 ,   14 ,  182 ,  255 ,  187 ,  255 ,  197 ,  255 ,  224 ,    5 ,   71 ,    2 ,  187 ,   14 ,  200 ,  255 ,  227 ,  255 ,  192 ,  255 
E: 000000.647008 49 30 18 2e 00 00 00 30 98 8c 00 00 00 a0 f0 05 26 02 5a 0e ac ff 97 ff c5 ff f2 05 39 02 80 0e b6 ff bb ff c5 ff e0 05 47 02 bb 0e c8 ff e3 ff c0 ff
# ReportID: 48 / 0xff010030:   27 ,   46 ,    0 ,    0 ,    0 ,   49 ,  152 ,  140 ,    0 ,    0 ,    0 ,  160 ,  102 ,    6 ,    0 ,    2 ,   66 ,   14 ,  230 ,  255 ,  184 ,  255 ,  237 ,  255 ,   39 ,    6 ,    9 ,    2 ,   36 ,   14 ,  206 ,  255 ,  149 ,  255 ,  211 ,  255 ,  254 ,    5 ,   22 ,    2 ,   56 ,   14 ,  184 ,  255 ,  140 ,  255 ,  200 ,  255 
E: 000000.660098 49 30 1b 2e 00 00 00 31 98 8c 00 00 00 a0 66 06 00 02 42 0e e6 ff b8 ff ed ff 27 06 09 02 24 0e ce ff 95 ff d3 ff fe 05 16 02 38 0e b8 ff 8c ff c8 ff
# ReportID: 48 / 0xff010030:   30 ,   46 ,    0 ,    0 ,    0 ,   49 ,  152 ,  140 ,    0 ,    0 ,    0 ,  160 ,  124 ,    6 ,  220 ,    1 ,   87 ,   15 ,   36 ,    0 ,   93 ,    0 ,   25 ,    0 ,  171 ,    6 ,  232 ,    1 ,  235 ,   14 ,   28 ,    0 ,   43 ,    0 ,   24 ,    0 ,  163 ,    6 ,  243 ,    1 ,  142 ,   14 ,    3 ,    0 ,  237 ,  255 ,    7 ,    0 
E: 000000.676148 49 30 1e 2e 00 00 00 31 98 8c 00 00 00 a0 7c 06 dc 01 57 0f 24 00 5d 00 19 00 ab 06 e8 01 eb 0e 1c 00 2b 00 18 00 a3 06 f3 01 8e 0e 03 00 ed ff 07 00
# ReportID: 48 / 0xff010030:   33 ,   46 ,    0 ,    0 ,    0 ,   48 ,  136 ,  140 ,    0 ,    0 ,    0 ,  160 ,  187 ,    5 ,  171 ,    1 ,  199 ,   15 ,  198 ,  255 ,   76 ,    0 ,  238 ,  255 ,  227 ,    5 ,  185 ,    1 ,  240 ,   15 ,  241 ,  255 ,  112 ,    0 ,  251 ,  255 ,   45 ,    6 ,  204 ,    1 ,  182 ,   15 ,   23 ,    0 ,  120 ,    0 ,   14 ,    0 
E: 000000.690942 49 30 21 2e 00 00 00 30 88 8c 00 00 00 a0 bb 05 ab 01 c7 0f c6 ff 4c 00 ee ff e3 05 b9 01 f0 0f f1 ff 70 00 fb ff 2d 06 cc 01 b6 0f 17 00 78 00 0e 00
# ReportID: 48 / 0xff010030:   36 ,   46 ,    0 ,    0 ,    0 ,   47 ,  136 ,  140 ,    0 ,    0 ,    0 ,  160 ,  246 ,    5 ,   51 ,    1 ,  183 ,   15 ,   81 ,  255 ,  185 ,  255 ,  215 ,  255 ,  209 ,    5 ,   98 ,    1 ,  175 ,   15 ,   88 ,  255 ,  219 ,  255 ,  222 ,  255 ,  184 ,    5 ,  147 ,    1 ,  161 ,   15 ,  142 ,  255 ,   20 ,    0 ,  228 ,  255 
E: 000000.705980 49 30 24 2e 00 00 00 2f 88 8c 00 00 00 a0 f6 05 33 01 b7 0f 51 ff b9 ff d7 ff d1 05 62 01 af 0f 58 ff db ff de ff b8 05 93 01 a1 0f 8e ff 14 00 e4 ff
# ReportID: 48 / 0xff010030:   39 ,   46 ,    0 ,    0 ,    0 ,   48 ,  136 ,  140 ,    0 ,    0 ,    0 ,  160 ,   31 ,    6 ,  161 ,    1 ,   88 ,   15 ,   18 ,    0 ,  201 ,  255 ,  181 ,  255 ,   24 ,    6 ,   88 ,    1 ,  155 ,   15 ,  191 ,  255 ,  182 ,  255 ,  187 ,  255 ,   10 ,    6 ,   39 ,    1 ,  180 ,   15 ,  123 ,  255 ,  174 ,  255 ,  204 ,  255 
E: 000000.722279 49 30 27 2e 00 00 00 30 88 8c 00 00 00 a0 1f 06 a1 01 58 0f 12 00 c9 ff b5 ff 18 06 58 01 9b 0f bf ff b6 ff bb ff 0a 06 27 01 b4 0f 7b ff ae ff cc ff
# ReportID: 48 / 0xff010030:   42 ,   46 ,    0 ,    0 ,    0 ,   48 ,  152 ,  140 ,    0 ,    0 ,    0 ,  160 ,   82 ,    6 ,   59 ,    2 ,  166 ,   14 ,  226 ,  255 ,  214 ,  255 ,  236 ,  255 ,   73 ,    6 ,   38 ,    2 ,  193 ,   14 ,   21 ,    0 ,  213 ,  255 ,  211 ,  255 ,   53 ,    6 ,  233 ,    1 ,  253 ,   14 ,   45 ,    0 ,  210 ,  255 ,  191 ,  255 
E: 000000.736070 49 30 2a 2e 00 00 00 30 98 8c 00 00 00 a0 52 06 3b 02 a6 0e e2 ff d6 ff ec ff 49 06 26 02 c1 0e 15 00 d5 ff d3 ff 35 06 e9 01 fd 0e 2d 00 d2 ff bf ff
# ReportID: 48 / 0xff010030:   45 ,   46 ,    0 ,    0 ,    0 ,   47 ,  136 ,  140 ,    0 ,    0 ,    0 ,  160 ,  255 ,    5 ,  197 ,    1 ,   61 ,   15 ,  147 ,  255 ,  244 ,  255 ,   15 ,    0 ,   33 ,    6 ,  242 ,    1 ,  248 ,   14 ,  149 ,  255 ,  235 ,  255 ,   12 ,    0 ,   67 ,    6 ,   36 ,    2 ,  186 ,   14 ,  178 ,  255 ,  222 ,  255 ,    2 ,    0 
E: 000000.752052 49 30 2d 2e 00 00 00 2f 88 8c 00 00 00 a0 ff 05 c5 01 3d 0f 93 ff f4 ff 0f 00 21 06 f2 01 f8 0e 95 ff eb ff 0c 00 43 06 24 02 ba 0e b2 ff de ff 02 00
# ReportID: 48 / 0xff010030:   48 ,   46 ,    0 ,    0 ,    0 ,   48 ,  152 ,  140 ,    0 ,    0 ,    0 ,  160 ,  246 ,    5 ,  142 ,    1 ,  151 ,   15 ,  177 ,  255 ,  208 ,  255 ,  230 ,  255 ,  219 ,    5 ,  149 ,    1 ,  149 ,   15 ,  178 ,  255 ,  230 ,  255 ,  246 ,  255 ,  228 ,    5 ,  164 ,    1 ,  116 ,   15 ,  165 ,  255 ,  244 ,  255 ,   10 ,    0 
E: 000000.765033 49 30 30 2e 00 00 00 30 98 8c 00 00 00 a0 f6 05 8e 01 97 0f b1 ff d0 ff e6 ff db 05 95 01 95 0f b2 ff e6 ff f6 ff e4 05 a4 01 74 0f a5 ff f4 ff 0a 00
# ReportID: 48 / 0xff010030:   51 ,   46 ,    0 ,    0 ,    0 ,   48 ,  136 ,  140 ,    0 ,    0 ,    0 ,  160 ,  123 ,    6 ,  170 ,    1 ,    8 ,   15 ,  220 ,  255 ,  167 ,  255 ,  215 ,  255 ,   72 ,    6 ,  156 ,    1 ,   89 ,   15 ,  192 ,  255 ,  169 ,  255 ,  214 ,  255 ,   26 ,    6 ,  139 ,    1 ,  138 ,   15 ,  176 ,  255 ,  185 ,  255 ,  218 ,  255 
E: 000000.780287 49 30 33 2e 00 00 00 30 88 8c 00 00 00 a0 7b 06 aa 01 08 0f dc ff a7 ff d7 ff 48 06 9c 01 59 0f c0 ff a9 ff d6 ff 1a 06 8b 01 8a 0f b0 ff b9 ff da ff
# ReportID: 48 / 0xff010030:   54 ,   46 ,    0 ,    0 ,    0 ,   48 ,  152 ,  140 ,    0 ,    0 ,    0 ,  160 ,   94 ,    6 ,  189 ,    1 ,  175 ,   14 ,   31 ,    0 ,  237 ,  255 ,  184 ,  255 ,  140 ,    6 ,  175 ,    1 ,  179 ,   14 ,    1 ,    0 ,  203 ,  255 ,  202 ,  255 ,  154 ,    6 ,  171 ,    1 ,  198 ,   14 ,  240 ,  255 ,  179 ,  255 ,  212 ,  255 
E: 000000.796019 49 30 36 2e 00 00 00 30 98 8c 00 00 00 a0 5e 06 bd 01 af 0e 1f 00 ed ff b8 ff 8c 06 af 01 b3 0e 01 00 cb ff ca ff 9a 06 ab 01 c6 0e f0 ff b3 ff d4 ff
# ReportID: 48 / 0xff010030:   57 ,   46 ,    0 ,    0 ,    0 ,   48 ,  152 ,  140 ,    0 ,    0 ,    0 ,  160 ,   31 ,    6 ,  209 ,    1 ,  246 ,   14 ,  126 ,    0 ,   63 ,    0 ,  113 ,  255 ,  250 ,    5 ,  235 ,    1 ,  197 ,   14 ,  103 ,    0 ,   48 ,    0 ,  130 ,  255 ,   46 ,    6 ,  215 ,    1 ,  170 ,   14 ,   79 ,    0 ,   23 ,    0 ,  155 ,  255 
E: 000000.811488 49 30 39 2e 00 00 00 30 98 8c 00 00 00 a0 1f 06 d1 01 f6 0e 7e 00 3f 00 71 ff fa 05 eb 01 c5 0e 67 00 30 00 82 ff 2e 06 d7 01 aa 0e 4f 00 17 00 9b ff
# ReportID: 48 / 0xff010030:   60 ,   46 ,    0 ,    0 ,    0 ,   48 ,  136 ,  140 ,    0 ,    0 ,    0 ,  160 ,  212 ,    5 ,  124 ,    1 ,  207 ,   15 ,  155 ,    0 ,   47 ,    0 ,   64 ,  255 ,  226 ,    5 ,  129 ,    1 ,  122 ,   15 ,  136 ,    0 ,   62 ,    0 ,   68 ,  255 ,   23 ,    6 ,  161 ,    1 ,    4 ,   15 ,  141 ,    0 ,   63 ,    0 ,   89 ,  255 
E: 000000.827129 49 30 3c 2e 00 00 00 30 88 8c 00 00 00 a0 d4 05 7c 01 cf 0f 9b 00 2f 00 40 ff e2 05 81 01 7a 0f 88 00 3e 00 44 ff 17 06 a1 01 04 0f 8d 00 3f 00 59 ff
# ReportID: 48 / 0xff010030:   63 ,   46 ,    0 ,    0 ,    0 ,   48 ,  152 ,  140 ,    0 ,    0 ,    0 ,  160 ,  159 ,    5 ,   66 ,    2 ,  142 ,   15 ,  131 ,    0 ,  207 ,  255 ,   99 ,  255 ,  169 ,    5 ,  252 ,    1 ,  176 ,   15 ,  173 ,    0 ,  233 ,  255 ,   70 ,  255 ,  199 ,    5 ,  167 ,    1 ,  196 ,   15 ,  181 ,    0 ,   12 ,    0 ,   65 ,  255 
E: 000000.840994 49 30 3f 2e 00 00 00 30 98 8c 00 00 00 a0 9f 05 42 02 8e 0f 83 00 cf ff 63 ff a9 05 fc 01 b0 0f ad 00 e9 ff 46 ff c7 05 a7 01 c4 0f b5 00 0c 00 41 ff
# ReportID: 48 / 0xff010030:   66 ,   46 ,    0 ,    0 ,    0 ,   47 ,  136 ,  140 ,    0 ,    0 ,    0 ,  160 ,  241 ,    5 ,  109 ,    2 ,   57 ,   15 ,  151 ,  255 ,  248 ,  255 ,  149 ,  255 ,  211 ,    5 ,  138 ,    2 ,   53 ,   15 ,  241 ,  255 ,  217 ,  255 ,  148 ,  255 ,  175 ,    5 ,  122 ,    2 ,   88 ,   15 ,   71 ,    0 ,  199 ,  255 ,  129 ,  255 
E: 000000.855969 49 30 42 2e 00 00 00 2f 88 8c 00 00 00 a0 f1 05 6d 02 39 0f 97 ff f8 ff 95 ff d3 05 8a 02 35 0f f1 ff d9 ff 94 ff af 05 7a 02 58 0f 47 00 c7 ff 81 ff
# ReportID: 48 / 0xff010030:   69 ,   46 ,    0 ,    0 ,    0 ,   47 ,  152 ,  140 ,    0 ,    0 ,    0 ,  160 ,  231 ,    5 ,  192 ,    1 ,  148 ,   15 ,   66 ,  255 ,   52 ,    0 ,   87 ,  255 ,  248 ,    5 ,  249 ,    1 ,  129 ,   15 ,   58 ,  255 ,   48 ,    0 ,  109 ,  255 ,  252 ,    5 ,   53 ,    2 ,   93 ,   15 ,   85 ,  255 ,   23 ,    0 ,  134 ,  255 
E: 000000.870864 49 30 45 2e 00 00 00 2f 98 8c 00 00 00 a0 e7 05 c0 01 94 0f 42 ff 34 00 57 ff f8 05 f9 01 81 0f 3a ff 30 00 6d ff fc 05 35 02 5d 0f 55 ff 17 00 86 ff
# ReportID: 48 / 0xff010030:   72 ,   46 ,    0 ,    0 ,    0 ,   48 ,  168 ,  140 ,    0 ,    0 ,    0 ,  160 ,   36 ,    6 ,  173 ,    1 ,   32 ,   15 ,  153 ,  255 ,  207 ,  255 ,   79 ,  255 ,  245 ,    5 ,  151 ,    1 ,   95 ,   15 ,  128 ,  255 ,  249 ,  255 ,   73 ,  255 ,  224 ,    5 ,  155 ,    1 ,  134 ,   15 ,   99 ,  255 ,   28 ,    0 ,   73 ,  255 
E: 000000.886943 49 30 48 2e 00 00 00 30 a8 8c 00 00 00 a0 24 06 ad 01 20 0f 99 ff cf ff 4f ff f5 05 97 01 5f 0f 80 ff f9 ff 49 ff e0 05 9b 01 86 0f 63 ff 1c 00 49 ff
# ReportID: 48 / 0xff010030:   75 ,   46 ,    0 ,    0 ,    0 ,   48 ,  152 ,  140 ,    0 ,    0 ,    0 ,  160 ,   46 ,    6 ,   52 ,    2 ,  237 ,   14 ,  213 ,  255 ,  134 ,  255 ,   96 ,  255 ,   53 ,    6 ,   20 ,    2 ,  232 ,   14 ,  193 ,  255 ,  141 ,  255 ,   85 ,  255 ,   58 ,    6 ,  226 ,    1 ,  247 ,   14 ,  172 ,  255 ,  168 ,  255 ,   81 ,  255 
E: 000000.900876 49 30 4b 2e 00 00 00 30 98 8c 00 00 00 a0 2e 06 34 02 ed 0e d5 ff 86 ff 60 ff 35 06 14 02 e8 0e c1 ff 8d ff 55 ff 3a 06 e2 01 f7 0e ac ff a8 ff 51 ff
# ReportID: 48 / 0xff010030:   78 ,   46 ,    0 ,    0 ,    0 ,   49 ,  136 ,  140 ,    0 ,    0 ,    0 ,  160 ,  135 ,    6 ,   84 ,    2 ,  240 ,   14 ,    6 ,    0 ,  151 ,  255 ,  163 ,  255 ,   79 ,    6 ,   89 ,    2 ,  251 ,   14 ,  236 ,  255 ,  139 ,  255 ,  128 ,  255 ,   49 ,    6 ,   78 ,    2 ,  252 ,   14 ,  224 ,  255 ,  135 ,  255 ,  111 ,  255 
E: 000000.915193 49 30 4e 2e 00 00 00 31 88 8c 00 00 00 a0 87 06 54 02 f0 0e 06 00 97 ff a3 ff 4f 06 59 02 fb 0e ec ff 8b ff 80 ff 31 06 4e 02 fc 0e e0 ff 87 ff 6f ff
# ReportID: 48 / 0xff010030:   81 ,   46 ,    0 ,    0 ,    0 ,   48 ,  152 ,  140 ,    0 ,    0 ,    0 ,  160 ,  223 ,    6 ,   51 ,    2 ,   22 ,   15 ,   70 ,    0 ,  203 ,  255 ,  254 ,  255 ,  224 ,    6 ,   69 ,    2 ,  249 ,   14 ,   56 ,    0 ,  183 ,  255 ,  224 ,  255 ,  189 ,    6 ,   81 ,    2 ,  242 ,   14 ,   32 ,    0 ,  164 ,  255 ,  193 ,  255 
E: 000000.931010 49 30 51 2e 00 00 00 30 98 8c 00 00 00 a0 df 06 33 02 16 0f 46 00 cb ff fe ff e0 06 45 02 f9 0e 38 00 b7 ff e0 ff bd 06 51 02 f2 0e 20 00 a4 ff c1 ff
# ReportID: 48 / 0xff010030:   84 ,   46 ,    0 ,    0 ,    0 ,   50 ,  136 ,  140 ,    0 ,    0 ,    0 ,  160 ,  112 ,    6 ,   35 ,    2 ,   83 ,   15 ,   12 ,    0 ,    3 ,    0 ,   11 ,    0 ,  138 ,    6 ,   24 ,    2 ,   75 ,   15 ,   46 ,    0 ,  242 ,  255 ,   21 ,    0 ,  183 ,    6 ,   36 ,    2 ,   53 ,   15 ,   66 ,    0 ,  223 ,  255 ,   17 ,    0 
E: 000000.946974 49 30 54 2e 00 00 00 32 88 8c 00 00 00 a0 70 06 23 02 53 0f 0c 00 03 00 0b 00 8a 06 18 02 4b 0f 2e 00 f2 ff 15 00 b7 06 24 02 35 0f 42 00 df ff 11 00
# ReportID: 48 / 0xff010030:   87 ,   46 ,    0 ,    0 ,    0 ,   48 ,  152 ,  140 ,    0 ,    0 ,    0 ,  160 ,   70 ,    6 ,   29 ,    2 ,   24 ,   15 ,  178 ,  255 ,  128 ,    0 ,  183 ,  255 ,   65 ,    6 ,   37 ,    2 ,   27 ,   15 ,  200 ,  255 ,   72 ,    0 ,  206 ,  255 ,   81 ,    6 ,   43 ,    2 ,   58 ,   15 ,  236 ,  255 ,   23 ,    0 ,  241 ,  255 
E: 000000.961336 49 30 57 2e 00 00 00 30 98 8c 00 00 00 a0 46 06 1d 02 18 0f b2 ff 80 00 b7 ff 41 06 25 02 1b 0f c8 ff 48 00 ce ff 51 06 2b 02 3a 0f ec ff 17 00 f1 ff
# ReportID: 48 / 0xff010030:   90 ,   46 ,    0 ,    0 ,    0 ,   49 ,  136 ,  140 ,    0 ,    0 ,    0 ,  160 ,   35 ,    6 ,  246 ,    1 ,  100 ,   15 ,    4 ,    0 ,  240 ,    0 ,  141 ,  255 ,   59 ,    6 ,  253 ,    1 ,   66 ,   15 ,  218 ,  255 ,  219 ,    0 ,  146 ,  255 ,   73 ,    6 ,   12 ,    2 ,   40 ,   15 ,  185 ,  255 ,  180 ,    0 ,  161 ,  255 
E: 000000.976027 49 30 5a 2e 00 00 00 31 88 8c 00 00 00 a0 23 06 f6 01 64 0f 04 00 f0 00 8d ff 3b 06 fd 01 42 0f da ff db 00 92 ff 49 06 0c 02 28 0f b9 ff b4 00 a1 ff
# ReportID: 48 / 0xff010030:   93 ,   46 ,    0 ,    0 ,    0 ,   49 ,  152 ,  140 ,    0 ,    0 ,    0 ,  160 ,  154 ,    5 ,   65 ,    2 ,  124 ,   14 ,    7 ,    0 ,  120 ,    0 ,  183 ,  255 ,  208 ,    5 ,   14 ,    2 ,  230 ,   14 ,   76 ,    0 ,  202 ,    0 ,  161 ,  255 ,  248 ,    5 ,  231 ,    1 ,  111 ,   15 ,   48 ,    0 ,  236 ,    0 ,  148 ,  255 
E: 000000.993272 49 30 5d 2e 00 00 00 31 98 8c 00 00 00 a0 9a 05 41 02 7c 0e 07 00 78 00 b7 ff d0 05 0e 02 e6 0e 4c 00 ca 00 a1 ff f8 05 e7 01 6f 0f 30 00 ec 00 94 ff
# ReportID: 48 / 0xff010030:   96 ,   46 ,    0 ,    0 ,    0 ,   49 ,  152 ,  140 ,    0 ,    0 ,    0 ,  160 ,  126 ,    5 ,  115 ,    1 ,  198 ,   15 ,  108 ,  255 ,  158 ,  255 ,   23 ,    0 ,   88 ,    5 ,  182 ,    1 ,  176 ,   15 ,   58 ,  255 ,  200 ,  255 ,  250 ,  255 ,   98 ,    5 ,   19 ,    2 ,   28 ,   15 ,  101 ,  255 ,   23 ,    0 ,  213 ,  255 
E: 000001.006021 49 30 60 2e 00 00 00 31 98 8c 00 00 00 a0 7e 05 73 01 c6 0f 6c ff 9e ff 17 00 58 05 b6 01 b0 0f 3a ff c8 ff fa ff 62 05 13 02 1c 0f 65 ff 17 00 d5 ff
# ReportID: 48 / 0xff010030:   99 ,   46 ,    0 ,    0 ,    0 ,   49 ,  152 ,  140 ,    0 ,    0 ,    0 ,  160 ,    3 ,    6 ,   98 ,    1 ,   45 ,   15 ,  185 ,  255 ,  157 ,  255 ,   41 ,    0 ,  251 ,    5 ,   97 ,    1 ,   74 ,   15 ,  175 ,  255 ,  137 ,  255 ,   47 ,    0 ,  204 ,    5 ,   95 ,    1 ,  132 ,   15 ,  159 ,  255 ,  138 ,  255 ,   41 ,    0 
E: 000001.036931 49 30 63 2e 00 00 00 31 98 8c 00 00 00 a0 03 06 62 01 2d 0f b9 ff 9d ff 29 00 fb 05 61 01 4a 0f af ff 89 ff 2f 00 cc 05 5f 01 84 0f 9f ff 8a ff 29 00
# ReportID: 48 / 0xff010030:  102 ,   46 ,    0 ,    0 ,    0 ,   49 ,  152 ,  140 ,    0 ,    0 ,    0 ,  160 ,  166 ,    5 ,  123 ,    1 ,  215 ,   14 ,   92 ,    0 ,   26 ,    0 ,   40 ,    0 ,  207 ,    5 ,  114 ,    1 ,  233 ,   14 ,   57 ,    0 ,    5 ,    0 ,   38 ,    0 ,  248 ,    5 ,  110 ,    1 ,    1 ,   15 ,  240 ,  255 ,  209 ,  255 ,   39 ,    0 
E: 000001.037499 49 30 66 2e 00 00 00 31 98 8c 00 00 00 a0 a6 05 7b 01 d7 0e 5c 00 1a 00 28 00 cf 05 72 01 e9 0e 39 00 05 00 26 00 f8 05 6e 01 01 0f f0 ff d1 ff 27 00
# ReportID: 48 / 0xff010030:  105 ,   46 ,    0 ,    0 ,    0 ,   49 ,  152 ,  140 ,    0 ,    0 ,    0 ,  160 ,  135 ,    5 ,  100 ,    1 ,   43 ,   15 ,   59 ,    0 ,  236 ,  255 ,   36 ,    0 ,  115 ,    5 ,  125 ,    1 ,  248 ,   14 ,   89 ,    0 ,   10 ,    0 ,   39 ,    0 ,  128 ,    5 ,  132 ,    1 ,  215 ,   14 ,  108 ,    0 ,   29 ,    0 ,   42 ,    0 
E: 000001.051079 49 30 69 2e 00 00 00 31 98 8c 00 00 00 a0 87 05 64 01 2b 0f 3b 00 ec ff 24 00 73 05 7d 01 f8 0e 59 00 0a 00 27 00 80 05 84 01 d7 0e 6c 00 1d 00 2a 00
# ReportID: 48 / 0xff010030:  108 ,   46 ,    0 ,    0 ,    0 ,   49 ,  152 ,  140 ,    0 ,    0 ,    0 ,  160 ,  223 ,    5 ,   32 ,    1 ,  177 ,   15 ,   84 ,    0 ,  231 ,  255 ,   10 ,    0 ,  203 ,    5 ,   42 ,    1 ,  136 ,   15 ,   57 ,    0 ,  215 ,  255 ,   26 ,    0 ,  172 ,    5 ,   67 ,    1 ,   93 ,   15 ,   45 ,    0 ,  216 ,  255 ,   33 ,    0 
E: 000001.096167 49 30 6c 2e 00 00 00 31 98 8c 00 00 00 a0 df 05 20 01 b1 0f 54 00 e7 ff 0a 00 cb 05 2a 01 88 0f 39 00 d7 ff 1a 00 ac 05 43 01 5d 0f 2d 00 d8 ff 21 00
# ReportID: 48 / 0xff010030:  111 ,   46 ,    0 ,    0 ,    0 ,   50 ,  168 ,  140 ,    0 ,    0 ,    0 ,  160 ,  176 ,    5 ,  108 ,    1 ,  191 ,   15 ,  143 ,    0 ,   32 ,    0 ,  214 ,  255 ,  195 ,    5 ,   68 ,    1 ,  191 ,   15 ,  145 ,    0 ,   18 ,    0 ,  227 ,  255 ,  217 ,    5 ,   42 ,    1 ,  196 ,   15 ,  123 ,    0 ,    0 ,    0 ,  243 ,  255 
E: 000001.096782 49 30 6f 2e 00 00 00 32 a8 8c 00 00 00 a0 b0 05 6c 01 bf 0f 8f 00 20 00 d6 ff c3 05 44 01 bf 0f 91 00 12 00 e3 ff d9 05 2a 01 c4 0f 7b 00 00 00 f3 ff
# ReportID: 48 / 0xff010030:  114 ,   46 ,    0 ,    0 ,    0 ,   50 ,  136 ,  140 ,    0 ,    0 ,    0 ,  160 ,  142 ,    5 ,  132 ,    1 ,   14 ,   16 ,   62 ,    0 ,   39 ,    0 ,  189 ,  255 ,  154 ,    5 ,  145 ,    1 ,  243 ,   15 ,   84 ,    0 ,   42 ,    0 ,  197 ,  255 ,  158 ,    5 ,  139 ,    1 ,  206 ,   15 ,  118 ,    0 ,   40 ,    0 ,  205 ,  255 
E: 000001.098933 49 30 72 2e 00 00 00 32 88 8c 00 00 00 a0 8e 05 84 01 0e 10 3e 00 27 00 bd ff 9a 05 91 01 f3 0f 54 00 2a 00 c5 ff 9e 05 8b 01 ce 0f 76 00 28 00 cd ff
# ReportID: 48 / 0xff010030:  117 ,   46 ,    0 ,    0 ,    0 ,   50 ,  152 ,  140 ,    0 ,    0 ,    0 ,  160 ,  127 ,    5 ,  175 ,    1 ,  167 ,   15 ,   98 ,    0 ,  221 ,  255 ,  157 ,  255 ,  103 ,    5 ,  142 ,    1 ,  239 ,   15 ,   76 ,    0 ,  254 ,  255 ,  162 ,  255 ,  114 ,    5 ,  129 ,    1 ,   17 ,   16 ,   57 ,    0 ,   27 ,    0 ,  177 ,  255 
E: 000001.110931 49 30 75 2e 00 00 00 32 98 8c 00 00 00 a0 7f 05 af 01 a7 0f 62 00 dd ff 9d ff 67 05 8e 01 ef 0f 4c 00 fe ff a2 ff 72 05 81 01 11 10 39 00 1b 00 b1 ff
# ReportID: 48 / 0xff010030:  120 ,   46 ,    0 ,    0 ,    0 ,   50 ,  136 ,  140 ,    0 ,    0 ,    0 ,  160 ,    9 ,    6 ,   77 ,    2 ,  237 ,   14 ,  158 ,    0 ,  137 ,  255 ,  178 ,  255 ,  217 ,    5 ,   20 ,    2 ,   28 ,   15 ,  139 ,    0 ,  155 ,  255 ,  165 ,  255 ,  172 ,    5 ,  221 ,    1 ,   91 ,   15 ,  119 ,    0 ,  185 ,  255 ,  157 ,  255 
E: 000001.140982 49 30 78 2e 00 00 00 32 88 8c 00 00 00 a0 09 06 4d 02 ed 0e 9e 00 89 ff b2 ff d9 05 14 02 1c 0f 8b 00 9b ff a5 ff ac 05 dd 01 5b 0f 77 00 b9 ff 9d ff
# ReportID: 48 / 0xff010030:  123 ,   46 ,    0 ,    0 ,    0 ,   49 ,  168 ,  140 ,    0 ,    0 ,    0 ,  160 ,   64 ,    6 ,  163 ,    2 ,  244 ,   14 ,  145 ,    0 ,  152 ,  255 ,  250 ,  255 ,   42 ,    6 ,  149 ,    2 ,  211 ,   14 ,  177 ,    0 ,  143 ,  255 ,  223 ,  255 ,   30 ,    6 ,  122 ,    2 ,  204 ,   14 ,  178 ,    0 ,  135 ,  255 ,  197 ,  255 
E: 000001.157031 49 30 7b 2e 00 00 00 31 a8 8c 00 00 00 a0 40 06 a3 02 f4 0e 91 00 98 ff fa ff 2a 06 95 02 d3 0e b1 00 8f ff df ff 1e 06 7a 02 cc 0e b2 00 87 ff c5 ff
# ReportID: 48 / 0xff010030:  126 ,   46 ,    0 ,    0 ,    0 ,   48 ,  168 ,  140 ,    0 ,    0 ,    0 ,  160 ,   23 ,    6 ,   19 ,    2 ,   76 ,   15 ,  206 ,  255 ,  164 ,  255 ,   27 ,    0 ,   40 ,    6 ,  119 ,    2 ,   57 ,   15 ,   21 ,    0 ,  163 ,  255 ,   26 ,    0 ,   63 ,    6 ,  156 ,    2 ,   32 ,   15 ,   86 ,    0 ,  160 ,  255 ,   18 ,    0 
E: 000001.174984 49 30 7e 2e 00 00 00 30 a8 8c 00 00 00 a0 17 06 13 02 4c 0f ce ff a4 ff 1b 00 28 06 77 02 39 0f 15 00 a3 ff 1a 00 3f 06 9c 02 20 0f 56 00 a0 ff 12 00
# ReportID: 48 / 0xff010030:  129 ,   46 ,    0 ,    0 ,    0 ,   49 ,  168 ,  140 ,    0 ,    0 ,    0 ,  160 ,  192 ,    5 ,  201 ,    0 ,  194 ,   15 ,  133 ,  255 ,  168 ,  255 ,  227 ,  255 ,  237 ,    5 ,   12 ,    1 ,  148 ,   15 ,  121 ,  255 ,  166 ,  255 ,    0 ,    0 ,   11 ,    6 ,  138 ,    1 ,  102 ,   15 ,  148 ,  255 ,  165 ,  255 ,   18 ,    0 
E: 000001.185968 49 30 81 2e 00 00 00 31 a8 8c 00 00 00 a0 c0 05 c9 00 c2 0f 85 ff a8 ff e3 ff ed 05 0c 01 94 0f 79 ff a6 ff 00 00 0b 06 8a 01 66 0f 94 ff a5 ff 12 00
# ReportID: 48 / 0xff010030:  132 ,   46 ,    0 ,    0 ,    0 ,   48 ,  168 ,  140 ,    0 ,    0 ,    0 ,  160 ,   44 ,    5 ,   10 ,    1 ,  149 ,   15 ,  202 ,  255 ,  126 ,  255 ,  154 ,  255 ,   69 ,    5 ,  227 ,    0 ,  186 ,   15 ,  188 ,  255 ,  137 ,  255 ,  165 ,  255 ,  123 ,    5 ,  197 ,    0 ,  205 ,   15 ,  168 ,  255 ,  153 ,  255 ,  188 ,  255 
E: 000001.217991 49 30 84 2e 00 00 00 30 a8 8c 00 00 00 a0 2c 05 0a 01 95 0f ca ff 7e ff 9a ff 45 05 e3 00 ba 0f bc ff 89 ff a5 ff 7b 05 c5 00 cd 0f a8 ff 99 ff bc ff
# ReportID: 48 / 0xff010030:  135 ,   46 ,    0 ,    0 ,    0 ,   49 ,  168 ,  140 ,    0 ,    0 ,    0 ,  160 ,  168 ,    5 ,   90 ,    1 ,   58 ,   15 ,  233 ,  255 ,  179 ,  255 ,  172 ,  255 ,  112 ,    5 ,   68 ,    1 ,   60 ,   15 ,  226 ,  255 ,  150 ,  255 ,  166 ,  255 ,   60 ,    5 ,   47 ,    1 ,  102 ,   15 ,  215 ,  255 ,  129 ,  255 ,  156 ,  255 
E: 000001.231061 49 30 87 2e 00 00 00 31 a8 8c 00 00 00 a0 a8 05 5a 01 3a 0f e9 ff b3 ff ac ff 70 05 44 01 3c 0f e2 ff 96 ff a6 ff 3c 05 2f 01 66 0f d7 ff 81 ff 9c ff
# ReportID: 48 / 0xff010030:  138 ,   46 ,    0 ,    0 ,    0 ,   48 ,  136 ,  140 ,    0 ,    0 ,    0 ,  160 ,   30 ,    6 ,  188 ,    1 ,   90 ,   15 ,   17 ,    0 ,   27 ,    0 ,  181 ,  255 ,    3 ,    6 ,  142 ,    1 ,   85 ,   15 ,  252 ,  255 ,  252 ,  255 ,  177 ,  255 ,  220 ,    5 ,  116 ,    1 ,   70 ,   15 ,  239 ,  255 ,  216 ,  255 ,  174 ,  255 
E: 000001.261141 49 30 8a 2e 00 00 00 30 88 8c 00 00 00 a0 1e 06 bc 01 5a 0f 11 00 1b 00 b5 ff 03 06 8e 01 55 0f fc ff fc ff b1 ff dc 05 74 01 46 0f ef ff d8 ff ae ff
# ReportID: 48 / 0xff010030:  141 ,   46 ,    0 ,    0 ,    0 ,   49 ,  200 ,  140 ,    0 ,    0 ,    0 ,  160 ,   15 ,    6 ,   58 ,    2 ,   25 ,   15 ,   22 ,    0 ,   18 ,    0 ,  247 ,  255 ,   27 ,    6 ,   31 ,    2 ,   43 ,   15 ,   40 ,    0 ,   37 ,    0 ,  222 ,  255 ,   32 ,    6 ,  244 ,    1 ,   72 ,   15 ,   39 ,    0 ,   43 ,    0 ,  199 ,  255 
E: 000001.261998 49 30 8d 2e 00 00 00 31 c8 8c 00 00 00 a0 0f 06 3a 02 19 0f 16 00 12 00 f7 ff 1b 06 1f 02 2b 0f 28 00 25 00 de ff 20 06 f4 01 48 0f 27 00 2b 00 c7 ff
# ReportID: 48 / 0xff010030:  144 ,   46 ,    0 ,    0 ,    0 ,   48 ,  168 ,  140 ,    0 ,    0 ,    0 ,  160 ,   22 ,    6 ,  207 ,    1 ,   56 ,   15 ,  206 ,  255 ,  228 ,  255 ,   27 ,    0 ,   14 ,    6 ,    4 ,    2 ,   33 ,   15 ,  220 ,  255 ,  230 ,  255 ,   23 ,    0 ,    6 ,    6 ,   50 ,    2 ,   14 ,   15 ,  248 ,  255 ,  248 ,  255 ,   11 ,    0 
E: 000001.277798 49 30 90 2e 00 00 00 30 a8 8c 00 00 00 a0 16 06 cf 01 38 0f ce ff e4 ff 1b 00 0e 06 04 02 21 0f dc ff e6 ff 17 00 06 06 32 02 0e 0f f8 ff f8 ff 0b 00
# ReportID: 48 / 0xff010030:  147 ,   46 ,    0 ,    0 ,    0 ,   49 ,  168 ,  140 ,    0 ,    0 ,    0 ,  160 ,  211 ,    5 ,  164 ,    1 ,   39 ,   15 ,   26 ,    0 ,   34 ,    0 ,    9 ,    0 ,  249 ,    5 ,  155 ,    1 ,   59 ,   15 ,    2 ,    0 ,   16 ,    0 ,   18 ,    0 ,   17 ,    6 ,  168 ,    1 ,   63 ,   15 ,  218 ,  255 ,  243 ,  255 ,   25 ,    0 
E: 000001.278212 49 30 93 2e 00 00 00 31 a8 8c 00 00 00 a0 d3 05 a4 01 27 0f 1a 00 22 00 09 00 f9 05 9b 01 3b 0f 02 00 10 00 12 00 11 06 a8 01 3f 0f da ff f3 ff 19 00
# ReportID: 48 / 0xff010030:  150 ,   46 ,    0 ,    0 ,    0 ,   50 ,  184 ,  140 ,    0 ,    0 ,    0 ,  160 ,  163 ,    5 ,  137 ,    1 ,   62 ,   15 ,  252 ,  255 ,   46 ,    0 ,  242 ,  255 ,  163 ,    5 ,  151 ,    1 ,   34 ,   15 ,    9 ,    0 ,   46 ,    0 ,  251 ,  255 ,  178 ,    5 ,  166 ,    1 ,   23 ,   15 ,   27 ,    0 ,   43 ,    0 ,    2 ,    0 
E: 000001.306021 49 30 96 2e 00 00 00 32 b8 8c 00 00 00 a0 a3 05 89 01 3e 0f fc ff 2e 00 f2 ff a3 05 97 01 22 0f 09 00 2e 00 fb ff b2 05 a6 01 17 0f 1b 00 2b 00 02 00
# ReportID: 48 / 0xff010030:  153 ,   46 ,    0 ,    0 ,    0 ,   49 ,  168 ,  140 ,    0 ,    0 ,    0 ,  160 ,   26 ,    6 ,   53 ,    2 ,  117 ,   14 ,  162 ,    0 ,  135 ,    0 ,  251 ,  255 ,  227 ,    5 ,  217 ,    1 ,  157 ,   14 ,   88 ,    0 ,   79 ,    0 ,  234 ,  255 ,  161 ,    5 ,  144 ,    1 ,   13 ,   15 ,    8 ,    0 ,   46 ,    0 ,  233 ,  255 
E: 000001.306828 49 30 99 2e 00 00 00 31 a8 8c 00 00 00 a0 1a 06 35 02 75 0e a2 00 87 00 fb ff e3 05 d9 01 9d 0e 58 00 4f 00 ea ff a1 05 90 01 0d 0f 08 00 2e 00 e9 ff
# ReportID: 48 / 0xff010030:  156 ,   46 ,    0 ,    0 ,    0 ,   49 ,  152 ,  140 ,    0 ,    0 ,    0 ,  160 ,  183 ,    5 ,   32 ,    2 ,   41 ,   15 ,  140 ,    0 ,  150 ,    0 ,   12 ,    0 ,  214 ,    5 ,   54 ,    2 ,  206 ,   14 ,  185 ,    0 ,  193 ,    0 ,   23 ,    0 ,  254 ,    5 ,   66 ,    2 ,  147 ,   14 ,  192 ,    0 ,  182 ,    0 ,   12 ,    0 
E: 000001.309138 49 30 9c 2e 00 00 00 31 98 8c 00 00 00 a0 b7 05 20 02 29 0f 8c 00 96 00 0c 00 d6 05 36 02 ce 0e b9 00 c1 00 17 00 fe 05 42 02 93 0e c0 00 b6 00 0c 00
# ReportID: 48 / 0xff010030:  159 ,   46 ,    0 ,    0 ,    0 ,   49 ,  120 ,  140 ,    0 ,    0 ,    0 ,  160 ,  210 ,    5 ,  239 ,    1 ,  126 ,   15 ,  111 ,    0 ,  193 ,  255 ,  242 ,  255 ,  190 ,    5 ,  248 ,    1 ,  133 ,   15 ,   90 ,    0 ,    2 ,    0 ,  245 ,  255 ,  179 ,    5 ,   11 ,    2 ,  106 ,   15 ,   98 ,    0 ,   78 ,    0 ,  253 ,  255 
E: 000001.322026 49 30 9f 2e 00 00 00 31 78 8c 00 00 00 a0 d2 05 ef 01 7e 0f 6f 00 c1 ff f2 ff be 05 f8 01 85 0f 5a 00 02 00 f5 ff b3 05 0b 02 6a 0f 62 00 4e 00 fd ff
# ReportID: 48 / 0xff010030:  162 ,   46 ,    0 ,    0 ,    0 ,   51 ,  120 ,  140 ,    0 ,    0 ,    0 ,  160 ,  242 ,    5 ,   61 ,    2 ,  245 ,   14 ,  173 ,    0 ,  126 ,  255 ,    0 ,    0 ,  252 ,    5 ,   30 ,    2 ,   29 ,   15 ,  180 ,    0 ,  127 ,  255 ,  250 ,  255 ,  231 ,    5 ,  250 ,    1 ,   87 ,   15 ,  154 ,    0 ,  150 ,  255 ,  246 ,  255 
E: 000001.336040 49 30 a2 2e 00 00 00 33 78 8c 00 00 00 a0 f2 05 3d 02 f5 0e ad 00 7e ff 00 00 fc 05 1e 02 1d 0f b4 00 7f ff fa ff e7 05 fa 01 57 0f 9a 00 96 ff f6 ff
# ReportID: 48 / 0xff010030:  165 ,   46 ,    0 ,    0 ,    0 ,   50 ,  120 ,  140 ,    0 ,    0 ,    0 ,  160 ,  135 ,    5 ,    8 ,    2 ,   47 ,   15 ,   84 ,    0 ,  201 ,  255 ,  255 ,  255 ,  181 ,    5 ,   34 ,    2 ,   17 ,   15 ,  108 ,    0 ,  174 ,  255 ,    7 ,    0 ,  218 ,    5 ,   57 ,    2 ,  253 ,   14 ,  138 ,    0 ,  147 ,  255 ,    6 ,    0 
E: 000001.351048 49 30 a5 2e 00 00 00 32 78 8c 00 00 00 a0 87 05 08 02 2f 0f 54 00 c9 ff ff ff b5 05 22 02 11 0f 6c 00 ae ff 07 00 da 05 39 02 fd 0e 8a 00 93 ff 06 00
# ReportID: 48 / 0xff010030:  168 ,   46 ,    0 ,    0 ,    0 ,   50 ,  136 ,  140 ,    0 ,    0 ,    0 ,  160 ,  138 ,    5 ,  199 ,    1 ,  139 ,   15 ,   36 ,    0 ,  250 ,  255 ,  222 ,  255 ,  118 ,    5 ,  206 ,    1 ,  119 ,   15 ,   41 ,    0 ,  236 ,  255 ,  231 ,  255 ,  109 ,    5 ,  227 ,    1 ,   89 ,   15 ,   58 ,    0 ,  221 ,  255 ,  243 ,  255 
E: 000001.371255 49 30 a8 2e 00 00 00 32 88 8c 00 00 00 a0 8a 05 c7 01 8b 0f 24 00 fa ff de ff 76 05 ce 01 77 0f 29 00 ec ff e7 ff 6d 05 e3 01 59 0f 3a 00 dd ff f3 ff
# ReportID: 48 / 0xff010030:  171 ,   46 ,    0 ,    0 ,    0 ,   50 ,  136 ,  140 ,    0 ,    0 ,    0 ,  160 ,  187 ,    5 ,    4 ,    2 ,  128 ,   15 ,    2 ,    0 ,   17 ,    0 ,  202 ,  255 ,  166 ,    5 ,  231 ,    1 ,  146 ,   15 ,   21 ,    0 ,   15 ,    0 ,  205 ,  255 ,  151 ,    5 ,  207 ,    1 ,  153 ,   15 ,   32 ,    0 ,    6 ,    0 ,  215 ,  255 
E: 000001.380988 49 30 ab 2e 00 00 00 32 88 8c 00 00 00 a0 bb 05 04 02 80 0f 02 00 11 00 ca ff a6 05 e7 01 92 0f 15 00 0f 00 cd ff 97 05 cf 01 99 0f 20 00 06 00 d7 ff
# ReportID: 48 / 0xff010030:  174 ,   46 ,    0 ,    0 ,    0 ,   50 ,  136 ,  140 ,    0 ,    0 ,    0 ,  160 ,  141 ,    5 ,  238 ,    1 ,  189 ,   15 ,  170 ,  255 ,   25 ,    0 ,  214 ,  255 ,  177 ,    5 ,    9 ,    2 ,  159 ,   15 ,  195 ,  255 ,   24 ,    0 ,  210 ,  255 ,  206 ,    5 ,   15 ,    2 ,  125 ,   15 ,  227 ,  255 ,   20 ,    0 ,  204 ,  255 
E: 000001.411057 49 30 ae 2e 00 00 00 32 88 8c 00 00 00 a0 8d 05 ee 01 bd 0f aa ff 19 00 d6 ff b1 05 09 02 9f 0f c3 ff 18 00 d2 ff ce 05 0f 02 7d 0f e3 ff 14 00 cc ff
# ReportID: 48 / 0xff010030:  177 ,   46 ,    0 ,    0 ,    0 ,   50 ,  168 ,  140 ,    0 ,    0 ,    0 ,  160 ,  147 ,    5 ,  168 ,    1 ,  239 ,   15 ,  180 ,  255 ,  240 ,  255 ,  195 ,  255 ,  117 ,    5 ,  185 ,    1 ,  228 ,   15 ,  159 ,  255 ,    4 ,    0 ,  200 ,  255 ,  122 ,    5 ,  207 ,    1 ,  207 ,   15 ,  156 ,  255 ,   18 ,    0 ,  210 ,  255 
E: 000001.411424 49 30 b1 2e 00 00 00 32 a8 8c 00 00 00 a0 93 05 a8 01 ef 0f b4 ff f0 ff c3 ff 75 05 b9 01 e4 0f 9f ff 04 00 c8 ff 7a 05 cf 01 cf 0f 9c ff 12 00 d2 ff
# ReportID: 48 / 0xff010030:  181 ,   46 ,    0 ,    0 ,    0 ,   50 ,  136 ,  140 ,    0 ,    0 ,    0 ,  160 ,    3 ,    6 ,  230 ,    1 ,  182 ,   15 ,   54 ,    0 ,  214 ,  255 ,  193 ,  255 ,  255 ,    5 ,  177 ,    1 ,  204 ,   15 ,   17 ,    0 ,  214 ,  255 ,  194 ,  255 ,  210 ,    5 ,  151 ,    1 ,  230 ,   15 ,  227 ,  255 ,  219 ,  255 ,  195 ,  255 
E: 000001.441029 49 30 b5 2e 00 00 00 32 88 8c 00 00 00 a0 03 06 e6 01 b6 0f 36 00 d6 ff c1 ff ff 05 b1 01 cc 0f 11 00 d6 ff c2 ff d2 05 97 01 e6 0f e3 ff db ff c3 ff
# ReportID: 48 / 0xff010030:  184 ,   46 ,    0 ,    0 ,    0 ,   50 ,  152 ,  140 ,    0 ,    0 ,    0 ,  160 ,  183 ,    5 ,   95 ,    2 ,   50 ,   15 ,   72 ,    0 ,  189 ,  255 ,  221 ,  255 ,  192 ,    5 ,   81 ,    2 ,   92 ,   15 ,   79 ,    0 ,  199 ,  255 ,  208 ,  255 ,  229 ,    5 ,   27 ,    2 ,  150 ,   15 ,   73 ,    0 ,  209 ,  255 ,  197 ,  255 
E: 000001.441678 49 30 b8 2e 00 00 00 32 98 8c 00 00 00 a0 b7 05 5f 02 32 0f 48 00 bd ff dd ff c0 05 51 02 5c 0f 4f 00 c7 ff d0 ff e5 05 1b 02 96 0f 49 00 d1 ff c5 ff
# ReportID: 48 / 0xff010030:  187 ,   46 ,    0 ,    0 ,    0 ,   50 ,   40 ,  140 ,    0 ,    0 ,    0 ,  160 ,  193 ,    5 ,   15 ,    2 ,   65 ,   15 ,   38 ,    0 ,  201 ,  255 ,  234 ,  255 ,  198 ,    5 ,   40 ,    2 ,   68 ,   15 ,   37 ,    0 ,  191 ,  255 ,  235 ,  255 ,  192 ,    5 ,   73 ,    2 ,   53 ,   15 ,   53 ,    0 ,  185 ,  255 ,  232 ,  255 
E: 000001.456032 49 30 bb 2e 00 00 00 32 28 8c 00 00 00 a0 c1 05 0f 02 41 0f 26 00 c9 ff ea ff c6 05 28 02 44 0f 25 00 bf ff eb ff c0 05 49 02 35 0f 35 00 b9 ff e8 ff
# ReportID: 48 / 0xff010030:  190 ,   46 ,    0 ,    0 ,    0 ,   50 ,  152 ,  140 ,    0 ,    0 ,    0 ,  160 ,  173 ,    5 ,  240 ,    1 ,   74 ,   15 ,   30 ,    0 ,  217 ,  255 ,  240 ,  255 ,  172 ,    5 ,  255 ,    1 ,   60 ,   15 ,   37 ,    0 ,  213 ,  255 ,  233 ,  255 ,  182 ,    5 ,    4 ,    2 ,   56 ,   15 ,   40 ,    0 ,  210 ,  255 ,  231 ,  255 
E: 000001.516037 49 30 be 2e 00 00 00 32 98 8c 00 00 00 a0 ad 05 f0 01 4a 0f 1e 00 d9 ff f0 ff ac 05 ff 01 3c 0f 25 00 d5 ff e9 ff b6 05 04 02 38 0f 28 00 d2 ff e7 ff
# ReportID: 48 / 0xff010030:  193 ,   46 ,    0 ,    0 ,    0 ,   49 ,  200 ,  140 ,    0 ,    0 ,    0 ,  160 ,  197 ,    5 ,  220 ,    1 ,   76 ,   15 ,   12 ,    0 ,  232 ,  255 ,  240 ,  255 ,  192 ,    5 ,  216 ,    1 ,   72 ,   15 ,   24 ,    0 ,  222 ,  255 ,  245 ,  255 ,  184 ,    5 ,  220 ,    1 ,   74 ,   15 ,   28 ,    0 ,  218 ,  255 ,  246 ,  255 
E: 000001.546013 49 30 c1 2e 00 00 00 31 c8 8c 00 00 00 a0 c5 05 dc 01 4c 0f 0c 00 e8 ff f0 ff c0 05 d8 01 48 0f 18 00 de ff f5 ff b8 05 dc 01 4a 0f 1c 00 da ff f6 ff
# ReportID: 48 / 0xff010030:  196 ,   46 ,    0 ,    0 ,    0 ,   50 ,  200 ,  140 ,    0 ,    0 ,    0 ,  160 ,  183 ,    5 ,  219 ,    1 ,  101 ,   15 ,  255 ,  255 ,   16 ,    0 ,  222 ,  255 ,  187 ,    5 ,  215 ,    1 ,   94 ,   15 ,  255 ,  255 ,    6 ,    0 ,  227 ,  255 ,  193 ,    5 ,  219 ,    1 ,   83 ,   15 ,    2 ,    0 ,  248 ,  255 ,  232 ,  255 
E: 000001.577053 49 30 c4 2e 00 00 00 32 c8 8c 00 00 00 a0 b7 05 db 01 65 0f ff ff 10 00 de ff bb 05 d7 01 5e 0f ff ff 06 00 e3 ff c1 05 db 01 53 0f 02 00 f8 ff e8 ff
# ReportID: 48 / 0xff010030:  199 ,   46 ,    0 ,    0 ,    0 ,   49 ,  200 ,  140 ,    0 ,    0 ,    0 ,  160 ,  205 ,    5 ,  247 ,    1 ,   86 ,   15 ,  255 ,  255 ,    9 ,    0 ,  224 ,  255 ,  200 ,    5 ,  251 ,    1 ,   82 ,   15 ,    5 ,    0 ,   17 ,    0 ,  220 ,  255 ,  190 ,    5 ,  237 ,    1 ,   90 ,   15 ,    5 ,    0 ,   21 ,    0 ,  219 ,  255 
E: 000001.577841 49 30 c7 2e 00 00 00 31 c8 8c 00 00 00 a0 cd 05 f7 01 56 0f ff ff 09 00 e0 ff c8 05 fb 01 52 0f 05 00 11 00 dc ff be 05 ed 01 5a 0f 05 00 15 00 db ff
# ReportID: 48 / 0xff010030:  202 ,   46 ,    0 ,    0 ,    0 ,   49 ,  200 ,  140 ,    0 ,    0 ,    0 ,  160 ,  159 ,    5 ,  236 ,    1 ,   77 ,   15 ,   36 ,    0 ,    3 ,    0 ,  227 ,  255 ,  182 ,    5 ,  231 ,    1 ,   81 ,   15 ,   23 ,    0 ,    5 ,    0 ,  227 ,  255 ,  200 ,    5 ,  235 ,    1 ,   86 ,   15 ,    5 ,    0 ,    5 ,    0 ,  227 ,  255 
E: 000001.579929 49 30 ca 2e 00 00 00 31 c8 8c 00 00 00 a0 9f 05 ec 01 4d 0f 24 00 03 00 e3 ff b6 05 e7 01 51 0f 17 00 05 00 e3 ff c8 05 eb 01 56 0f 05 00 05 00 e3 ff
# ReportID: 48 / 0xff010030:  205 ,   46 ,    0 ,    0 ,    0 ,   49 ,  184 ,  140 ,    0 ,    0 ,    0 ,  160 ,  162 ,    5 ,    0 ,    2 ,   72 ,   15 ,    8 ,    0 ,  237 ,  255 ,  231 ,  255 ,  155 ,    5 ,    9 ,    2 ,   63 ,   15 ,   33 ,    0 ,  246 ,  255 ,  228 ,  255 ,  151 ,    5 ,  252 ,    1 ,   68 ,   15 ,   42 ,    0 ,  255 ,  255 ,  227 ,  255 
E: 000001.652203 49 30 cd 2e 00 00 00 31 b8 8c 00 00 00 a0 a2 05 00 02 48 0f 08 00 ed ff e7 ff 9b 05 09 02 3f 0f 21 00 f6 ff e4 ff 97 05 fc 01 44 0f 2a 00 ff ff e3 ff
# ReportID: 48 / 0xff010030:  208 ,   46 ,    0 ,    0 ,    0 ,   48 ,  184 ,  140 ,    0 ,    0 ,    0 ,  160 ,  182 ,    5 ,  215 ,    1 ,   97 ,   15 ,  225 ,  255 ,  227 ,  255 ,  219 ,  255 ,  170 ,    5 ,  222 ,    1 ,  115 ,   15 ,  222 ,  255 ,  231 ,  255 ,  227 ,  255 ,  168 ,    5 ,  238 ,    1 ,   93 ,   15 ,  236 ,  255 ,  233 ,  255 ,  231 ,  255 
E: 000001.652975 49 30 d0 2e 00 00 00 30 b8 8c 00 00 00 a0 b6 05 d7 01 61 0f e1 ff e3 ff db ff aa 05 de 01 73 0f de ff e7 ff e3 ff a8 05 ee 01 5d 0f ec ff e9 ff e7 ff
# ReportID: 48 / 0xff010030:  211 ,   46 ,    0 ,    0 ,    0 ,   49 ,  248 ,  139 ,    0 ,    0 ,    0 ,  160 ,  211 ,    5 ,  219 ,    1 ,   82 ,   15 ,  172 ,  255 ,  208 ,  255 ,  214 ,  255 ,  206 ,    5 ,  233 ,    1 ,   54 ,   15 ,  198 ,  255 ,  214 ,  255 ,  217 ,  255 ,  199 ,    5 ,  227 ,    1 ,   59 ,   15 ,  222 ,  255 ,  222 ,  255 ,  217 ,  255 
E: 000001.666042 49 30 d3 2e 00 00 00 31 f8 8b 00 00 00 a0 d3 05 db 01 52 0f ac ff d0 ff d6 ff ce 05 e9 01 36 0f c6 ff d6 ff d9 ff c7 05 e3 01 3b 0f de ff de ff d9 ff
# ReportID: 48 / 0xff010030:  214 ,   46 ,    0 ,    0 ,    0 ,   50 ,  232 ,  139 ,    0 ,    0 ,    0 ,  160 ,  174 ,    5 ,  214 ,    1 ,  106 ,   15 ,  190 ,  255 ,  210 ,  255 ,  195 ,  255 ,  184 ,    5 ,  195 ,    1 ,  122 ,   15 ,  174 ,  255 ,  210 ,  255 ,  201 ,  255 ,  201 ,    5 ,  196 ,    1 ,  116 ,   15 ,  163 ,  255 ,  207 ,  255 ,  209 ,  255 
E: 000001.666831 49 30 d6 2e 00 00 00 32 e8 8b 00 00 00 a0 ae 05 d6 01 6a 0f be ff d2 ff c3 ff b8 05 c3 01 7a 0f ae ff d2 ff c9 ff c9 05 c4 01 74 0f a3 ff cf ff d1 ff
# ReportID: 48 / 0xff010030:  217 ,   46 ,    0 ,    0 ,    0 ,   49 ,  248 ,  139 ,    0 ,    0 ,    0 ,  160 ,  181 ,    5 ,   18 ,    2 ,   53 ,   15 ,  168 ,  255 ,  208 ,  255 ,  203 ,  255 ,  184 ,    5 ,   16 ,    2 ,   58 ,   15 ,  190 ,  255 ,  208 ,  255 ,  196 ,  255 ,  179 ,    5 ,  244 ,    1 ,   81 ,   15 ,  197 ,  255 ,  210 ,  255 ,  194 ,  255 
E: 000001.667932 49 30 d9 2e 00 00 00 31 f8 8b 00 00 00 a0 b5 05 12 02 35 0f a8 ff d0 ff cb ff b8 05 10 02 3a 0f be ff d0 ff c4 ff b3 05 f4 01 51 0f c5 ff d2 ff c2 ff
# ReportID: 48 / 0xff010030:  220 ,   46 ,    0 ,    0 ,    0 ,   51 ,    8 ,  140 ,    0 ,    0 ,    0 ,  160 ,  142 ,    5 ,  252 ,    1 ,  245 ,   14 ,  135 ,  255 ,  216 ,  255 ,  219 ,  255 ,  157 ,    5 ,  255 ,    1 ,   37 ,   15 ,  144 ,  255 ,  214 ,  255 ,  214 ,  255 ,  172 ,    5 ,    5 ,    2 ,   57 ,   15 ,  151 ,  255 ,  209 ,  255 ,  209 ,  255 
E: 000001.671025 49 30 dc 2e 00 00 00 33 08 8c 00 00 00 a0 8e 05 fc 01 f5 0e 87 ff d8 ff db ff 9d 05 ff 01 25 0f 90 ff d6 ff d6 ff ac 05 05 02 39 0f 97 ff d1 ff d1 ff
# ReportID: 48 / 0xff010030:  223 ,   46 ,    0 ,    0 ,    0 ,   49 ,    8 ,  140 ,    0 ,    0 ,    0 ,  160 ,  162 ,    5 ,  167 ,    1 ,    6 ,   15 ,   40 ,  255 ,  206 ,  255 ,  230 ,  255 ,  154 ,    5 ,  202 ,    1 ,  226 ,   14 ,   71 ,  255 ,  210 ,  255 ,  228 ,  255 ,  147 ,    5 ,  234 ,    1 ,  194 ,   14 ,  111 ,  255 ,  212 ,  255 ,  223 ,  255 
E: 000001.681931 49 30 df 2e 00 00 00 31 08 8c 00 00 00 a0 a2 05 a7 01 06 0f 28 ff ce ff e6 ff 9a 05 ca 01 e2 0e 47 ff d2 ff e4 ff 93 05 ea 01 c2 0e 6f ff d4 ff df ff
# ReportID: 48 / 0xff010030:  226 ,   46 ,    0 ,    0 ,    0 ,   48 ,  216 ,  139 ,    0 ,    0 ,    0 ,  160 ,  151 ,    5 ,  166 ,    1 ,  237 ,   14 ,  228 ,  254 ,  191 ,  255 ,  245 ,  255 ,  162 ,    5 ,  162 ,    1 ,  201 ,   14 ,   10 ,  255 ,  195 ,  255 ,  236 ,  255 ,  170 ,    5 ,  150 ,    1 ,  243 ,   14 ,   29 ,  255 ,  197 ,  255 ,  232 ,  255 
E: 000001.682683 49 30 e2 2e 00 00 00 30 d8 8b 00 00 00 a0 97 05 a6 01 ed 0e e4 fe bf ff f5 ff a2 05 a2 01 c9 0e 0a ff c3 ff ec ff aa 05 96 01 f3 0e 1d ff c5 ff e8 ff
# ReportID: 48 / 0xff010030:  229 ,   46 ,    0 ,    0 ,    8 ,   49 ,  248 ,  139 ,    0 ,    0 ,    0 ,  160 ,  107 ,    5 ,   64 ,    1 ,   21 ,   16 ,  204 ,  254 ,  202 ,  255 ,    4 ,    0 ,  148 ,    5 ,   66 ,    1 ,  106 ,   15 ,  186 ,  254 ,  193 ,  255 ,   12 ,    0 ,  150 ,    5 ,  129 ,    1 ,   39 ,   15 ,  197 ,  254 ,  188 ,  255 ,    0 ,    0 
E: 000001.696054 49 30 e5 2e 00 00 08 31 f8 8b 00 00 00 a0 6b 05 40 01 15 10 cc fe ca ff 04 00 94 05 42 01 6a 0f ba fe c1 ff 0c 00 96 05 81 01 27 0f c5 fe bc ff 00 00
# ReportID: 48 / 0xff010030:  232 ,   46 ,    0 ,    0 ,    8 ,   49 ,  248 ,  139 ,    0 ,    0 ,    0 ,  160 ,  199 ,    5 ,   63 ,    1 ,  151 ,   15 ,  159 ,  254 ,  209 ,  255 ,   14 ,    0 ,  162 ,    5 ,  100 ,    1 ,  114 ,   15 ,  186 ,  254 ,  176 ,  255 ,   10 ,    0 ,  101 ,    5 ,  174 ,    1 ,  118 ,   14 ,  250 ,  254 ,  196 ,  255 ,    3 ,    0 
E: 000001.696845 49 30 e8 2e 00 00 08 31 f8 8b 00 00 00 a0 c7 05 3f 01 97 0f 9f fe d1 ff 0e 00 a2 05 64 01 72 0f ba fe b0 ff 0a 00 65 05 ae 01 76 0e fa fe c4 ff 03 00
# ReportID: 48 / 0xff010030:  235 ,   46 ,    0 ,    0 ,    8 ,   50 ,  248 ,  139 ,    0 ,    0 ,    0 ,  160 ,  157 ,    5 ,  131 ,    1 ,  127 ,   15 ,  250 ,  254 ,  166 ,  255 ,   29 ,    0 ,  149 ,    5 ,  122 ,    1 ,  104 ,   15 ,  251 ,  254 ,  188 ,  255 ,   18 ,    0 ,  177 ,    5 ,   80 ,    1 ,  123 ,   15 ,  238 ,  254 ,  207 ,  255 ,   13 ,    0 
E: 000001.698846 49 30 eb 2e 00 00 08 32 f8 8b 00 00 00 a0 9d 05 83 01 7f 0f fa fe a6 ff 1d 00 95 05 7a 01 68 0f fb fe bc ff 12 00 b1 05 50 01 7b 0f ee fe cf ff 0d 00
# ReportID: 48 / 0xff010030:  238 ,   46 ,    0 ,    0 ,    8 ,   50 ,  248 ,  139 ,    0 ,    0 ,    0 ,  160 ,  239 ,    5 ,   53 ,    1 ,  215 ,   15 ,   49 ,  255 ,  127 ,  255 ,   27 ,    0 ,  231 ,    5 ,   63 ,    1 ,  215 ,   15 ,   13 ,  255 ,  122 ,  255 ,   34 ,    0 ,  201 ,    5 ,   89 ,    1 ,  181 ,   15 ,  247 ,  254 ,  142 ,  255 ,   36 ,    0 
E: 000001.711939 49 30 ee 2e 00 00 08 32 f8 8b 00 00 00 a0 ef 05 35 01 d7 0f 31 ff 7f ff 1b 00 e7 05 3f 01 d7 0f 0d ff 7a ff 22 00 c9 05 59 01 b5 0f f7 fe 8e ff 24 00
# ReportID: 48 / 0xff010030:  241 ,   46 ,    0 ,    0 ,    8 ,   50 ,   24 ,  140 ,    0 ,    0 ,    0 ,  160 ,  207 ,    5 ,   91 ,    1 ,  148 ,   15 ,  128 ,  255 ,  123 ,  255 ,  239 ,  255 ,  205 ,    5 ,   88 ,    1 ,  175 ,   15 ,  106 ,  255 ,  130 ,  255 ,  253 ,  255 ,  221 ,    5 ,   76 ,    1 ,  199 ,   15 ,   81 ,  255 ,  135 ,  255 ,   12 ,    0 
E: 000001.726919 49 30 f1 2e 00 00 08 32 18 8c 00 00 00 a0 cf 05 5b 01 94 0f 80 ff 7b ff ef ff cd 05 58 01 af 0f 6a ff 82 ff fd ff dd 05 4c 01 c7 0f 51 ff 87 ff 0c 00
# ReportID: 48 / 0xff010030:  244 ,   46 ,    0 ,    0 ,    8 ,   49 ,   40 ,  140 ,    0 ,    0 ,    0 ,  160 ,   26 ,    6 ,   92 ,    1 ,  140 ,   15 ,  212 ,  255 ,  161 ,  255 ,  236 ,  255 ,  255 ,    5 ,   90 ,    1 ,  133 ,   15 ,  180 ,  255 ,  141 ,  255 ,  237 ,  255 ,  231 ,    5 ,   89 ,    1 ,  130 ,   15 ,  150 ,  255 ,  128 ,  255 ,  234 ,  255 
E: 000001.756925 49 30 f4 2e 00 00 08 31 28 8c 00 00 00 a0 1a 06 5c 01 8c 0f d4 ff a1 ff ec ff ff 05 5a 01 85 0f b4 ff 8d ff ed ff e7 05 59 01 82 0f 96 ff 80 ff ea ff
# ReportID: 48 / 0xff010030:  247 ,   46 ,    0 ,    0 ,    8 ,   49 ,   88 ,  140 ,    0 ,    0 ,    0 ,  160 ,  235 ,    5 ,   84 ,    1 ,  198 ,   15 ,    7 ,    0 ,  215 ,  255 ,  207 ,  255 ,    6 ,    6 ,   86 ,    1 ,  188 ,   15 ,  250 ,  255 ,  198 ,  255 ,  216 ,  255 ,   31 ,    6 ,   89 ,    1 ,  163 ,   15 ,  236 ,  255 ,  181 ,  255 ,  228 ,  255 
E: 000001.757331 49 30 f7 2e 00 00 08 31 58 8c 00 00 00 a0 eb 05 54 01 c6 0f 07 00 d7 ff cf ff 06 06 56 01 bc 0f fa ff c6 ff d8 ff 1f 06 59 01 a3 0f ec ff b5 ff e4 ff
# ReportID: 48 / 0xff010030:  250 ,   46 ,    0 ,    0 ,    8 ,   49 ,   40 ,  140 ,    0 ,    0 ,    0 ,  160 ,  200 ,    5 ,  101 ,    1 ,  170 ,   15 ,   46 ,    0 ,  250 ,  255 ,  188 ,  255 ,  202 ,    5 ,   95 ,    1 ,  178 ,   15 ,   34 ,    0 ,  247 ,  255 ,  192 ,  255 ,  216 ,    5 ,   88 ,    1 ,  192 ,   15 ,   23 ,    0 ,  235 ,  255 ,  199 ,  255 
E: 000001.785865 49 30 fa 2e 00 00 08 31 28 8c 00 00 00 a0 c8 05 65 01 aa 0f 2e 00 fa ff bc ff ca 05 5f 01 b2 0f 22 00 f7 ff c0 ff d8 05 58 01 c0 0f 17 00 eb ff c7 ff
# ReportID: 48 / 0xff010030:  253 ,   46 ,    0 ,    0 ,    8 ,   49 ,   72 ,  140 ,    0 ,    0 ,    0 ,  160 ,  219 ,    5 ,   94 ,    1 ,  149 ,   15 ,  101 ,    0 ,  241 ,  255 ,  164 ,  255 ,  222 ,    5 ,  100 ,    1 ,  156 ,   15 ,   85 ,    0 ,  248 ,  255 ,  171 ,  255 ,  211 ,    5 ,  104 ,    1 ,  161 ,   15 ,   66 ,    0 ,  253 ,  255 ,  179 ,  255 
E: 000001.786241 49 30 fd 2e 00 00 08 31 48 8c 00 00 00 a0 db 05 5e 01 95 0f 65 00 f1 ff a4 ff de 05 64 01 9c 0f 55 00 f8 ff ab ff d3 05 68 01 a1 0f 42 00 fd ff b3 ff
# ReportID: 48 / 0xff010030:    0 ,   46 ,    0 ,    0 ,    8 ,   49 ,   24 ,  140 ,    0 ,    0 ,    0 ,  160 ,  189 ,    5 ,   62 ,    1 ,  131 ,   15 ,  204 ,    0 ,  223 ,  255 ,  136 ,  255 ,  205 ,    5 ,   68 ,    1 ,  144 ,   15 ,  162 ,    0 ,  227 ,  255 ,  145 ,  255 ,  212 ,    5 ,   84 ,    1 ,  147 ,   15 ,  132 ,    0 ,  232 ,  255 ,  151 ,  255 
E: 000001.861082 49 30 00 2e 00 00 08 31 18 8c 00 00 00 a0 bd 05 3e 01 83 0f cc 00 df ff 88 ff cd 05 44 01 90 0f a2 00 e3 ff 91 ff d4 05 54 01 93 0f 84 00 e8 ff 97 ff
# ReportID: 48 / 0xff010030:    3 ,   46 ,    0 ,    0 ,    8 ,   49 ,   40 ,  140 ,    0 ,    0 ,    0 ,  160 ,  148 ,    5 ,  132 ,    1 ,    1 ,   15 ,   69 ,    1 ,  207 ,  255 ,  109 ,  255 ,  165 ,    5 ,  105 ,    1 ,   57 ,   15 ,   35 ,    1 ,  215 ,  255 ,  117 ,  255 ,  173 ,    5 ,   75 ,    1 ,  105 ,   15 ,  250 ,    0 ,  219 ,  255 ,  126 ,  255 
E: 000001.878056 49 30 03 2e 00 00 08 31 28 8c 00 00 00 a0 94 05 84 01 01 0f 45 01 cf ff 6d ff a5 05 69 01 39 0f 23 01 d7 ff 75 ff ad 05 4b 01 69 0f fa 00 db ff 7e ff
# ReportID: 48 / 0xff010030:    6 ,   46 ,    0 ,    0 ,    0 ,   48 ,  248 ,  139 ,    0 ,    0 ,    0 ,  160 ,  116 ,    5 ,   57 ,    1 ,   96 ,   16 ,   17 ,    1 ,  159 ,  255 ,   92 ,  255 ,  171 ,    5 ,  118 ,    1 ,  145 ,   13 ,   82 ,    1 ,  184 ,  255 ,   96 ,  255 ,  123 ,    5 ,  150 ,    1 ,  164 ,   14 ,   94 ,    1 ,  197 ,  255 ,   99 ,  255 
E: 000001.878775 49 30 06 2e 00 00 00 30 f8 8b 00 00 00 a0 74 05 39 01 60 10 11 01 9f ff 5c ff ab 05 76 01 91 0d 52 01 b8 ff 60 ff 7b 05 96 01 a4 0e 5e 01 c5 ff 63 ff
# ReportID: 48 / 0xff010030:    9 ,   46 ,    0 ,    0 ,    0 ,   49 ,  248 ,  139 ,    0 ,    0 ,    0 ,  160 ,  195 ,    5 ,   59 ,    2 ,   36 ,   15 ,  223 ,    1 ,  230 ,  255 ,  137 ,  255 ,  164 ,    5 ,   24 ,    2 ,  221 ,   14 ,   43 ,    2 ,  231 ,  255 ,  121 ,  255 ,  124 ,    5 ,  184 ,    1 ,   12 ,   15 ,  233 ,    1 ,  199 ,  255 ,  102 ,  255 
E: 000001.881970 49 30 09 2e 00 00 00 31 f8 8b 00 00 00 a0 c3 05 3b 02 24 0f df 01 e6 ff 89 ff a4 05 18 02 dd 0e 2b 02 e7 ff 79 ff 7c 05 b8 01 0c 0f e9 01 c7 ff 66 ff
# ReportID: 48 / 0xff010030:   12 ,   46 ,    0 ,    0 ,    0 ,   50 ,  232 ,  139 ,    0 ,    0 ,    0 ,  160 ,  197 ,    5 ,   41 ,    2 ,  157 ,   15 ,   66 ,    1 ,   21 ,    0 ,  157 ,  255 ,  229 ,    5 ,   30 ,    2 ,  115 ,   15 ,  109 ,    1 ,    8 ,    0 ,  148 ,  255 ,  229 ,    5 ,   24 ,    2 ,   97 ,   15 ,  159 ,    1 ,  245 ,  255 ,  146 ,  255 
E: 000001.890958 49 30 0c 2e 00 00 00 32 e8 8b 00 00 00 a0 c5 05 29 02 9d 0f 42 01 15 00 9d ff e5 05 1e 02 73 0f 6d 01 08 00 94 ff e5 05 18 02 61 0f 9f 01 f5 ff 92 ff
# ReportID: 48 / 0xff010030:   15 ,   46 ,    0 ,    0 ,    0 ,   50 ,   72 ,  140 ,    0 ,    0 ,    0 ,  160 ,  202 ,    5 ,   11 ,    2 ,  113 ,   15 ,  184 ,    0 ,   54 ,    0 ,  195 ,  255 ,  193 ,    5 ,   20 ,    2 ,  144 ,   15 ,  233 ,    0 ,   43 ,    0 ,  192 ,  255 ,  183 ,    5 ,   31 ,    2 ,  175 ,   15 ,   25 ,    1 ,   31 ,    0 ,  174 ,  255 
E: 000001.921036 49 30 0f 2e 00 00 00 32 48 8c 00 00 00 a0 ca 05 0b 02 71 0f b8 00 36 00 c3 ff c1 05 14 02 90 0f e9 00 2b 00 c0 ff b7 05 1f 02 af 0f 19 01 1f 00 ae ff
# ReportID: 48 / 0xff010030:   18 ,   46 ,    0 ,    0 ,    0 ,   49 ,    8 ,  140 ,    0 ,    0 ,    0 ,  160 ,  170 ,    5 ,  247 ,    1 ,   50 ,   15 ,   33 ,    0 ,   93 ,    0 ,  193 ,  255 ,  186 ,    5 ,  254 ,    1 ,   70 ,   15 ,   80 ,    0 ,   79 ,    0 ,  194 ,  255 ,  198 ,    5 ,    3 ,    2 ,   93 ,   15 ,  131 ,    0 ,   65 ,    0 ,  196 ,  255 
E: 000001.953122 49 30 12 2e 00 00 00 31 08 8c 00 00 00 a0 aa 05 f7 01 32 0f 21 00 5d 00 c1 ff ba 05 fe 01 46 0f 50 00 4f 00 c2 ff c6 05 03 02 5d 0f 83 00 41 00 c4 ff
# ReportID: 48 / 0xff010030:   21 ,   46 ,    0 ,    0 ,    0 ,   50 ,    8 ,  140 ,    0 ,    0 ,    0 ,  160 ,  166 ,    5 ,  179 ,    1 ,  118 ,   15 ,  176 ,  255 ,   90 ,    0 ,  204 ,  255 ,  171 ,    5 ,  199 ,    1 ,   59 ,   15 ,  207 ,  255 ,  102 ,    0 ,  199 ,  255 ,  167 ,    5 ,  228 ,    1 ,   37 ,   15 ,  247 ,  255 ,  103 ,    0 ,  196 ,  255 
E: 000001.954177 49 30 15 2e 00 00 00 32 08 8c 00 00 00 a0 a6 05 b3 01 76 0f b0 ff 5a 00 cc ff ab 05 c7 01 3b 0f cf ff 66 00 c7 ff a7 05 e4 01 25 0f f7 ff 67 00 c4 ff
# ReportID: 48 / 0xff010030:   24 ,   46 ,    0 ,    0 ,    0 ,   51 ,   40 ,  140 ,    0 ,    0 ,    0 ,  160 ,  156 ,    5 ,  206 ,    1 ,  186 ,   15 ,  171 ,  255 ,  250 ,  255 ,  214 ,  255 ,  156 ,    5 ,  199 ,    1 ,  193 ,   15 ,  167 ,  255 ,   32 ,    0 ,  212 ,  255 ,  157 ,    5 ,  193 ,    1 ,  162 ,   15 ,  167 ,  255 ,   70 ,    0 ,  208 ,  255 
E: 000001.958003 49 30 18 2e 00 00 00 33 28 8c 00 00 00 a0 9c 05 ce 01 ba 0f ab ff fa ff d6 ff 9c 05 c7 01 c1 0f a7 ff 20 00 d4 ff 9d 05 c1 01 a2 0f a7 ff 46 00 d0 ff
# ReportID: 48 / 0xff010030:   27 ,   46 ,    0 ,    0 ,    0 ,   50 ,   24 ,  140 ,    0 ,    0 ,    0 ,  160 ,   75 ,    5 ,   79 ,    2 ,  214 ,   14 ,  202 ,  255 ,  152 ,  255 ,  177 ,  255 ,  101 ,    5 ,   22 ,    2 ,   55 ,   15 ,  191 ,  255 ,  183 ,  255 ,  198 ,  255 ,  129 ,    5 ,  237 ,    1 ,  130 ,   15 ,  185 ,  255 ,  217 ,  255 ,  212 ,  255 
E: 000001.958605 49 30 1b 2e 00 00 00 32 18 8c 00 00 00 a0 4b 05 4f 02 d6 0e ca ff 98 ff b1 ff 65 05 16 02 37 0f bf ff b7 ff c6 ff 81 05 ed 01 82 0f b9 ff d9 ff d4 ff
# ReportID: 48 / 0xff010030:   30 ,   46 ,    0 ,    0 ,    0 ,   50 ,   40 ,  140 ,    0 ,    0 ,    0 ,  160 ,  112 ,    5 ,   26 ,    2 ,   28 ,   15 ,  193 ,  255 ,   92 ,  255 ,  147 ,  255 ,   77 ,    5 ,   83 ,    2 ,  216 ,   14 ,  192 ,  255 ,  104 ,  255 ,  145 ,  255 ,   62 ,    5 ,  105 ,    2 ,  180 ,   14 ,  202 ,  255 ,  127 ,  255 ,  159 ,  255 
E: 000001.967939 49 30 1e 2e 00 00 00 32 28 8c 00 00 00 a0 70 05 1a 02 1c 0f c1 ff 5c ff 93 ff 4d 05 53 02 d8 0e c0 ff 68 ff 91 ff 3e 05 69 02 b4 0e ca ff 7f ff 9f ff
# ReportID: 48 / 0xff010030:   33 ,   46 ,    0 ,    0 ,    0 ,   49 ,   88 ,  140 ,    0 ,    0 ,    0 ,  160 ,   78 ,    5 ,  182 ,    1 ,  216 ,   15 ,    7 ,    0 ,   91 ,  255 ,  209 ,  255 ,   87 ,    5 ,  225 ,    1 ,  198 ,   15 ,  220 ,  255 ,   84 ,  255 ,  182 ,  255 ,  136 ,    5 ,  240 ,    1 ,  101 ,   15 ,  201 ,  255 ,   84 ,  255 ,  160 ,  255 
E: 000001.968452 49 30 21 2e 00 00 00 31 58 8c 00 00 00 a0 4e 05 b6 01 d8 0f 07 00 5b ff d1 ff 57 05 e1 01 c6 0f dc ff 54 ff b6 ff 88 05 f0 01 65 0f c9 ff 54 ff a0 ff
# ReportID: 48 / 0xff010030:   36 ,   46 ,    0 ,    0 ,    0 ,   51 ,   40 ,  140 ,    0 ,    0 ,    0 ,  160 ,  246 ,    5 ,  159 ,    1 ,  215 ,   14 ,   23 ,    0 ,   78 ,  255 ,   17 ,    0 ,  186 ,    5 ,  173 ,    1 ,    7 ,   15 ,   61 ,    0 ,   84 ,  255 ,    2 ,    0 ,  117 ,    5 ,  171 ,    1 ,  128 ,   15 ,   55 ,    0 ,   94 ,  255 ,  236 ,  255 
E: 000001.981005 49 30 24 2e 00 00 00 33 28 8c 00 00 00 a0 f6 05 9f 01 d7 0e 17 00 4e ff 11 00 ba 05 ad 01 07 0f 3d 00 54 ff 02 00 75 05 ab 01 80 0f 37 00 5e ff ec ff
# ReportID: 48 / 0xff010030:   39 ,   46 ,    0 ,    0 ,    0 ,   50 ,   56 ,  140 ,    0 ,    0 ,    0 ,  160 ,   55 ,    6 ,  140 ,    1 ,   71 ,   15 ,  139 ,  255 ,  163 ,  255 ,   25 ,    0 ,   54 ,    6 ,  141 ,    1 ,   35 ,   15 ,  163 ,  255 ,  123 ,  255 ,   29 ,    0 ,   28 ,    6 ,  149 ,    1 ,  238 ,   14 ,  220 ,  255 ,   87 ,  255 ,   25 ,    0 
E: 000001.995942 49 30 27 2e 00 00 00 32 38 8c 00 00 00 a0 37 06 8c 01 47 0f 8b ff a3 ff 19 00 36 06 8d 01 23 0f a3 ff 7b ff 1d 00 1c 06 95 01 ee 0e dc ff 57 ff 19 00
# ReportID: 48 / 0xff010030:   42 ,   46 ,    0 ,    0 ,    0 ,   50 ,   40 ,  140 ,    0 ,    0 ,    0 ,  160 ,  215 ,    5 ,  207 ,    1 ,  118 ,   15 ,  119 ,  255 ,   12 ,    0 ,  255 ,  255 ,    0 ,    6 ,  166 ,    1 ,  122 ,   15 ,  121 ,  255 ,  240 ,  255 ,    6 ,    0 ,   38 ,    6 ,  142 ,    1 ,   96 ,   15 ,  126 ,  255 ,  203 ,  255 ,   15 ,    0 
E: 000002.011061 49 30 2a 2e 00 00 00 32 28 8c 00 00 00 a0 d7 05 cf 01 76 0f 77 ff 0c 00 ff ff 00 06 a6 01 7a 0f 79 ff f0 ff 06 00 26 06 8e 01 60 0f 7e ff cb ff 0f 00
# ReportID: 48 / 0xff010030:   45 ,   46 ,    0 ,    0 ,    0 ,   49 ,   40 ,  140 ,    0 ,    0 ,    0 ,  160 ,  137 ,    5 ,  243 ,    1 ,   25 ,   15 ,   99 ,  255 ,   26 ,    0 ,  237 ,  255 ,  144 ,    5 ,  249 ,    1 ,   52 ,   15 ,  110 ,  255 ,   29 ,    0 ,  243 ,  255 ,  173 ,    5 ,  240 ,    1 ,   94 ,   15 ,  117 ,  255 ,   25 ,    0 ,  248 ,  255 
E: 000002.040963 49 30 2d 2e 00 00 00 31 28 8c 00 00 00 a0 89 05 f3 01 19 0f 63 ff 1a 00 ed ff 90 05 f9 01 34 0f 6e ff 1d 00 f3 ff ad 05 f0 01 5e 0f 75 ff 19 00 f8 ff
# ReportID: 48 / 0xff010030:   48 ,   46 ,    0 ,    0 ,    0 ,   49 ,   24 ,  140 ,    0 ,    0 ,    0 ,  160 ,   95 ,    5 ,  248 ,    1 ,    1 ,   15 ,  114 ,  255 ,  198 ,  255 ,  186 ,  255 ,  125 ,    5 ,  234 ,    1 ,  255 ,   14 ,  100 ,  255 ,  232 ,  255 ,  204 ,  255 ,  141 ,    5 ,  228 ,    1 ,    1 ,   15 ,   92 ,  255 ,    3 ,    0 ,  221 ,  255 
E: 000002.044090 49 30 30 2e 00 00 00 31 18 8c 00 00 00 a0 5f 05 f8 01 01 0f 72 ff c6 ff ba ff 7d 05 ea 01 ff 0e 64 ff e8 ff cc ff 8d 05 e4 01 01 0f 5c ff 03 00 dd ff
# ReportID: 48 / 0xff010030:   51 ,   46 ,    0 ,    0 ,    0 ,   49 ,   40 ,  140 ,    0 ,    0 ,    0 ,  160 ,  231 ,    5 ,  183 ,    1 ,   44 ,   15 ,  106 ,  255 ,  168 ,  255 ,  207 ,  255 ,  203 ,    5 ,  217 ,    1 ,  197 ,   14 ,  123 ,  255 ,  166 ,  255 ,  195 ,  255 ,  134 ,    5 ,  235 ,    1 ,  200 ,   14 ,  126 ,  255 ,  179 ,  255 ,  186 ,  255 
E: 000002.056099 49 30 33 2e 00 00 00 31 28 8c 00 00 00 a0 e7 05 b7 01 2c 0f 6a ff a8 ff cf ff cb 05 d9 01 c5 0e 7b ff a6 ff c3 ff 86 05 eb 01 c8 0e 7e ff b3 ff ba ff
# ReportID: 48 / 0xff010030:   54 ,   46 ,    0 ,    0 ,    0 ,   50 ,    8 ,  140 ,    0 ,    0 ,    0 ,  160 ,   56 ,    6 ,   59 ,    1 ,   88 ,   15 ,  104 ,  255 ,  234 ,  255 ,  238 ,  255 ,   18 ,    6 ,   82 ,    1 ,  101 ,   15 ,  118 ,  255 ,  209 ,  255 ,  227 ,  255 ,  249 ,    5 ,  129 ,    1 ,  102 ,   15 ,  107 ,  255 ,  183 ,  255 ,  218 ,  255 
E: 000002.101365 49 30 36 2e 00 00 00 32 08 8c 00 00 00 a0 38 06 3b 01 58 0f 68 ff ea ff ee ff 12 06 52 01 65 0f 76 ff d1 ff e3 ff f9 05 81 01 66 0f 6b ff b7 ff da ff
# ReportID: 48 / 0xff010030:   57 ,   46 ,    0 ,    0 ,    0 ,   50 ,    8 ,  140 ,    0 ,    0 ,    0 ,  160 ,  228 ,    5 ,  154 ,    0 ,  151 ,   15 ,   48 ,  255 ,   47 ,    0 ,   16 ,    0 ,   52 ,    6 ,  203 ,    0 ,  118 ,   15 ,   52 ,  255 ,   19 ,    0 ,   15 ,    0 ,   88 ,    6 ,    8 ,    1 ,   95 ,   15 ,   74 ,  255 ,  250 ,  255 ,    1 ,    0 
E: 000002.102006 49 30 39 2e 00 00 00 32 08 8c 00 00 00 a0 e4 05 9a 00 97 0f 30 ff 2f 00 10 00 34 06 cb 00 76 0f 34 ff 13 00 0f 00 58 06 08 01 5f 0f 4a ff fa ff 01 00
# ReportID: 48 / 0xff010030:   60 ,   46 ,    0 ,    0 ,    0 ,   50 ,   40 ,  140 ,    0 ,    0 ,    0 ,  160 ,   58 ,    5 ,  102 ,    1 ,   22 ,   15 ,  188 ,  255 ,    9 ,    0 ,  199 ,  255 ,   55 ,    5 ,  254 ,    0 ,  118 ,   15 ,  121 ,  255 ,   39 ,    0 ,  217 ,  255 ,  116 ,    5 ,  170 ,    0 ,  167 ,   15 ,   71 ,  255 ,   55 ,    0 ,  248 ,  255 
E: 000002.102844 49 30 3c 2e 00 00 00 32 28 8c 00 00 00 a0 3a 05 66 01 16 0f bc ff 09 00 c7 ff 37 05 fe 00 76 0f 79 ff 27 00 d9 ff 74 05 aa 00 a7 0f 47 ff 37 00 f8 ff
# ReportID: 48 / 0xff010030:   64 ,   46 ,    0 ,    0 ,    0 ,   49 ,   24 ,  140 ,    0 ,    0 ,    0 ,  160 ,  161 ,    5 ,  194 ,    1 ,   50 ,   15 ,  214 ,  255 ,  106 ,  255 ,  150 ,  255 ,  126 ,    5 ,  183 ,    1 ,   12 ,   15 ,  209 ,  255 ,  161 ,  255 ,  170 ,  255 ,   92 ,    5 ,  166 ,    1 ,  232 ,   14 ,  217 ,  255 ,  214 ,  255 ,  186 ,  255 
E: 000002.116846 49 30 40 2e 00 00 00 31 18 8c 00 00 00 a0 a1 05 c2 01 32 0f d6 ff 6a ff 96 ff 7e 05 b7 01 0c 0f d1 ff a1 ff aa ff 5c 05 a6 01 e8 0e d9 ff d6 ff ba ff
# ReportID: 48 / 0xff010030:   67 ,   46 ,    0 ,    0 ,    0 ,   49 ,    8 ,  140 ,    0 ,    0 ,    0 ,  160 ,   52 ,    6 ,  226 ,    1 ,   48 ,   15 ,  232 ,  255 ,  241 ,  254 ,  123 ,  255 ,  244 ,    5 ,  231 ,    1 ,   35 ,   15 ,  250 ,  255 ,    6 ,  255 ,  111 ,  255 ,  192 ,    5 ,  204 ,    1 ,   68 ,   15 ,  232 ,  255 ,   50 ,  255 ,  126 ,  255 
E: 000002.131989 49 30 43 2e 00 00 00 31 08 8c 00 00 00 a0 34 06 e2 01 30 0f e8 ff f1 fe 7b ff f4 05 e7 01 23 0f fa ff 06 ff 6f ff c0 05 cc 01 44 0f e8 ff 32 ff 7e ff
# ReportID: 48 / 0xff010030:   70 ,   46 ,    0 ,    0 ,    0 ,   49 ,    8 ,  140 ,    0 ,    0 ,    0 ,  160 ,  254 ,    5 ,   65 ,    1 ,  227 ,   15 ,  168 ,  255 ,   90 ,  255 ,  220 ,  255 ,   56 ,    6 ,   94 ,    1 ,  199 ,   15 ,  152 ,  255 ,   24 ,  255 ,  202 ,  255 ,   80 ,    6 ,  163 ,    1 ,  124 ,   15 ,  179 ,  255 ,  250 ,  254 ,  161 ,  255 
E: 000002.162975 49 30 46 2e 00 00 00 31 08 8c 00 00 00 a0 fe 05 41 01 e3 0f a8 ff 5a ff dc ff 38 06 5e 01 c7 0f 98 ff 18 ff ca ff 50 06 a3 01 7c 0f b3 ff fa fe a1 ff
# ReportID: 48 / 0xff010030:   73 ,   46 ,    0 ,    0 ,    0 ,   48 ,   24 ,  140 ,    0 ,    0 ,    0 ,  160 ,  158 ,    5 ,  100 ,    1 ,   42 ,   15 ,  195 ,  255 ,  201 ,  255 ,  199 ,  255 ,  154 ,    5 ,   57 ,    1 ,  120 ,   15 ,  193 ,  255 ,  177 ,  255 ,  201 ,  255 ,  201 ,    5 ,   65 ,    1 ,  179 ,   15 ,  186 ,  255 ,  141 ,  255 ,  213 ,  255 
E: 000002.163491 49 30 49 2e 00 00 00 30 18 8c 00 00 00 a0 9e 05 64 01 2a 0f c3 ff c9 ff c7 ff 9a 05 39 01 78 0f c1 ff b1 ff c9 ff c9 05 41 01 b3 0f ba ff 8d ff d5 ff
# ReportID: 48 / 0xff010030:   76 ,   46 ,    0 ,    0 ,    0 ,   48 ,   88 ,  140 ,    0 ,    0 ,    0 ,  160 ,  101 ,    5 ,   67 ,    1 ,   76 ,   15 ,  154 ,  255 ,  235 ,  255 ,  197 ,  255 ,  119 ,    5 ,   79 ,    1 ,   48 ,   15 ,  158 ,  255 ,  234 ,  255 ,  202 ,  255 ,  136 ,    5 ,  111 ,    1 ,  250 ,   14 ,  186 ,  255 ,  221 ,  255 ,  205 ,  255 
E: 000002.175957 49 30 4c 2e 00 00 00 30 58 8c 00 00 00 a0 65 05 43 01 4c 0f 9a ff eb ff c5 ff 77 05 4f 01 30 0f 9e ff ea ff ca ff 88 05 6f 01 fa 0e ba ff dd ff cd ff
# ReportID: 48 / 0xff010030:   79 ,   46 ,    0 ,    0 ,    0 ,   48 ,  248 ,  139 ,    0 ,    0 ,    0 ,  160 ,  124 ,    5 ,  148 ,    1 ,   21 ,   15 ,   87 ,  255 ,  133 ,  255 ,  203 ,  255 ,  157 ,    5 ,  136 ,    1 ,  249 ,   14 ,  151 ,  255 ,  190 ,  255 ,  198 ,  255 ,  129 ,    5 ,   96 ,    1 ,   43 ,   15 ,  173 ,  255 ,  228 ,  255 ,  196 ,  255 
E: 000002.191025 49 30 4f 2e 00 00 00 30 f8 8b 00 00 00 a0 7c 05 94 01 15 0f 57 ff 85 ff cb ff 9d 05 88 01 f9 0e 97 ff be ff c6 ff 81 05 60 01 2b 0f ad ff e4 ff c4 ff
# ReportID: 48 / 0xff010030:   82 ,   46 ,    0 ,    0 ,    2 ,   49 ,   24 ,  140 ,    0 ,    0 ,    0 ,  160 ,   12 ,    6 ,  246 ,    0 ,  190 ,   14 ,  245 ,  254 ,  201 ,  254 ,  243 ,  255 ,   41 ,    5 ,  137 ,    1 ,  129 ,   15 ,  247 ,  254 ,  242 ,  254 ,  219 ,  255 ,   88 ,    5 ,  131 ,    1 ,  159 ,   15 ,   19 ,  255 ,   62 ,  255 ,  210 ,  255 
E: 000002.205934 49 30 52 2e 00 00 02 31 18 8c 00 00 00 a0 0c 06 f6 00 be 0e f5 fe c9 fe f3 ff 29 05 89 01 81 0f f7 fe f2 fe db ff 58 05 83 01 9f 0f 13 ff 3e ff d2 ff
# ReportID: 48 / 0xff010030:   85 ,   46 ,    0 ,    0 ,    2 ,   48 ,   40 ,  140 ,    0 ,    0 ,    0 ,  160 ,    3 ,    6 ,  202 ,    0 ,   91 ,   15 ,   47 ,  255 ,   55 ,  255 ,  239 ,  255 ,  117 ,    6 ,  189 ,    0 ,   62 ,   15 ,  254 ,  254 ,  242 ,  254 ,  246 ,  255 ,  117 ,    6 ,  222 ,    0 ,   98 ,   15 ,  206 ,  254 ,  193 ,  254 ,  246 ,  255 
E: 000002.221032 49 30 55 2e 00 00 02 30 28 8c 00 00 00 a0 03 06 ca 00 5b 0f 2f ff 37 ff ef ff 75 06 bd 00 3e 0f fe fe f2 fe f6 ff 75 06 de 00 62 0f ce fe c1 fe f6 ff
# ReportID: 48 / 0xff010030:   88 ,   46 ,    0 ,    0 ,    2 ,   49 ,   40 ,  140 ,    0 ,    0 ,    0 ,  160 ,   36 ,    6 ,   53 ,    1 ,   30 ,   15 ,  129 ,  255 ,   65 ,  255 ,  165 ,  255 ,   11 ,    6 ,   17 ,    1 ,   60 ,   15 ,  113 ,  255 ,   99 ,  255 ,  197 ,  255 ,  221 ,    5 ,  224 ,    0 ,  111 ,   15 ,   83 ,  255 ,  111 ,  255 ,  228 ,  255 
E: 000002.237042 49 30 58 2e 00 00 02 31 28 8c 00 00 00 a0 24 06 35 01 1e 0f 81 ff 41 ff a5 ff 0b 06 11 01 3c 0f 71 ff 63 ff c5 ff dd 05 e0 00 6f 0f 53 ff 6f ff e4 ff
# ReportID: 48 / 0xff010030:   91 ,   46 ,    0 ,    0 ,    2 ,   50 ,   40 ,  140 ,    0 ,    0 ,    0 ,  160 ,   92 ,    6 ,  239 ,    0 ,  178 ,   15 ,  231 ,  255 ,  246 ,  254 ,  137 ,  255 ,   38 ,    6 ,  251 ,    0 ,  144 ,   15 ,  159 ,  255 ,  251 ,  254 ,  139 ,  255 ,   29 ,    6 ,   32 ,    1 ,   83 ,   15 ,  124 ,  255 ,   23 ,  255 ,  146 ,  255 
E: 000002.252121 49 30 5b 2e 00 00 02 32 28 8c 00 00 00 a0 5c 06 ef 00 b2 0f e7 ff f6 fe 89 ff 26 06 fb 00 90 0f 9f ff fb fe 8b ff 1d 06 20 01 53 0f 7c ff 17 ff 92 ff
# ReportID: 48 / 0xff010030:   94 ,   46 ,    0 ,    0 ,    2 ,   50 ,   40 ,  140 ,    0 ,    0 ,    0 ,  160 ,  157 ,    6 ,   46 ,    1 ,  154 ,   15 ,  159 ,    0 ,   56 ,  255 ,  136 ,  255 ,  169 ,    6 ,   36 ,    1 ,  161 ,   15 ,  131 ,    0 ,   29 ,  255 ,  133 ,  255 ,  151 ,    6 ,    6 ,    1 ,  171 ,   15 ,   76 ,    0 ,    5 ,  255 ,  134 ,  255 
E: 000002.266276 49 30 5e 2e 00 00 02 32 28 8c 00 00 00 a0 9d 06 2e 01 9a 0f 9f 00 38 ff 88 ff a9 06 24 01 a1 0f 83 00 1d ff 85 ff 97 06 06 01 ab 0f 4c 00 05 ff 86 ff
# ReportID: 48 / 0xff010030:   97 ,   46 ,    0 ,    0 ,    2 ,   49 ,    8 ,  140 ,    0 ,    0 ,    0 ,  160 ,   69 ,    6 ,   68 ,    1 ,  121 ,   15 ,  175 ,    0 ,  172 ,  255 ,  159 ,  255 ,  105 ,    6 ,   68 ,    1 ,  123 ,   15 ,  184 ,    0 ,  129 ,  255 ,  151 ,  255 ,  141 ,    6 ,   56 ,    1 ,  134 ,   15 ,  179 ,    0 ,   91 ,  255 ,  145 ,  255 
E: 000002.282024 49 30 61 2e 00 00 02 31 08 8c 00 00 00 a0 45 06 44 01 79 0f af 00 ac ff 9f ff 69 06 44 01 7b 0f b8 00 81 ff 97 ff 8d 06 38 01 86 0f b3 00 5b ff 91 ff
# ReportID: 48 / 0xff010030:  100 ,   46 ,    0 ,    0 ,    2 ,   49 ,  232 ,  139 ,    0 ,    0 ,    0 ,  160 ,   50 ,    6 ,   27 ,    1 ,  146 ,   15 ,  116 ,    0 ,   26 ,    0 ,  181 ,  255 ,   38 ,    6 ,   44 ,    1 ,  139 ,   15 ,  130 ,    0 ,    2 ,    0 ,  178 ,  255 ,   43 ,    6 ,   59 ,    1 ,  131 ,   15 ,  156 ,    0 ,  213 ,  255 ,  168 ,  255 
E: 000002.297094 49 30 64 2e 00 00 02 31 e8 8b 00 00 00 a0 32 06 1b 01 92 0f 74 00 1a 00 b5 ff 26 06 2c 01 8b 0f 82 00 02 00 b2 ff 2b 06 3b 01 83 0f 9c 00 d5 ff a8 ff
# ReportID: 48 / 0xff010030:  103 ,   46 ,    0 ,    0 ,    2 ,   49 ,  232 ,  139 ,    0 ,    0 ,    0 ,  160 ,  112 ,    6 ,    6 ,    1 ,  166 ,   15 ,   88 ,    0 ,   93 ,    0 ,  172 ,  255 ,   98 ,    6 ,   10 ,    1 ,  151 ,   15 ,   93 ,    0 ,   78 ,    0 ,  178 ,  255 ,   73 ,    6 ,   15 ,    1 ,  149 ,   15 ,  102 ,    0 ,   59 ,    0 ,  182 ,  255 
E: 000002.311157 49 30 67 2e 00 00 02 31 e8 8b 00 00 00 a0 70 06 06 01 a6 0f 58 00 5d 00 ac ff 62 06 0a 01 97 0f 5d 00 4e 00 b2 ff 49 06 0f 01 95 0f 66 00 3b 00 b6 ff
# ReportID: 48 / 0xff010030:  106 ,   46 ,    0 ,    0 ,    2 ,   49 ,   24 ,  140 ,    0 ,    0 ,    0 ,  160 ,   67 ,    6 ,   80 ,    1 ,  164 ,   15 ,  100 ,    0 ,  111 ,    0 ,  144 ,  255 ,   95 ,    6 ,   55 ,    1 ,  170 ,   15 ,  102 ,    0 ,  107 ,    0 ,  151 ,  255 ,  116 ,    6 ,   21 ,    1 ,  175 ,   15 ,   94 ,    0 ,  103 ,    0 ,  162 ,  255 
E: 000002.343985 49 30 6a 2e 00 00 02 31 18 8c 00 00 00 a0 43 06 50 01 a4 0f 64 00 6f 00 90 ff 5f 06 37 01 aa 0f 66 00 6b 00 97 ff 74 06 15 01 af 0f 5e 00 67 00 a2 ff
# ReportID: 48 / 0xff010030:  109 ,   46 ,    0 ,    0 ,    2 ,   49 ,   40 ,  140 ,    0 ,    0 ,    0 ,  160 ,   79 ,    5 ,  174 ,    1 ,   89 ,   15 ,   36 ,    0 ,  149 ,    0 ,  144 ,  255 ,  181 ,    5 ,  145 ,    1 ,  111 ,   15 ,   74 ,    0 ,  131 ,    0 ,  143 ,  255 ,   23 ,    6 ,  108 ,    1 ,  141 ,   15 ,   90 ,    0 ,  119 ,    0 ,  142 ,  255 
E: 000002.344372 49 30 6d 2e 00 00 02 31 28 8c 00 00 00 a0 4f 05 ae 01 59 0f 24 00 95 00 90 ff b5 05 91 01 6f 0f 4a 00 83 00 8f ff 17 06 6c 01 8d 0f 5a 00 77 00 8e ff
# ReportID: 48 / 0xff010030:  112 ,   46 ,    0 ,    0 ,    2 ,   49 ,   24 ,  140 ,    0 ,    0 ,    0 ,  160 ,   69 ,    5 ,  166 ,    1 ,   37 ,   15 ,  176 ,  255 ,  168 ,    0 ,  157 ,  255 ,   29 ,    5 ,  175 ,    1 ,   63 ,   15 ,  211 ,  255 ,  166 ,    0 ,  153 ,  255 ,   26 ,    5 ,  189 ,    1 ,   84 ,   15 ,  250 ,  255 ,  161 ,    0 ,  148 ,  255 
E: 000002.355972 49 30 70 2e 00 00 02 31 18 8c 00 00 00 a0 45 05 a6 01 25 0f b0 ff a8 00 9d ff 1d 05 af 01 3f 0f d3 ff a6 00 99 ff 1a 05 bd 01 54 0f fa ff a1 00 94 ff
# ReportID: 48 / 0xff010030:  115 ,   46 ,    0 ,    0 ,    2 ,   49 ,   24 ,  140 ,    0 ,    0 ,    0 ,  160 ,  216 ,    5 ,  141 ,    1 ,   88 ,   15 ,   86 ,  255 ,  164 ,    0 ,  176 ,  255 ,  160 ,    5 ,  138 ,    1 ,   47 ,   15 ,  107 ,  255 ,  164 ,    0 ,  164 ,  255 ,  105 ,    5 ,  144 ,    1 ,   33 ,   15 ,  137 ,  255 ,  166 ,    0 ,  158 ,  255 
E: 000002.373017 49 30 73 2e 00 00 02 31 18 8c 00 00 00 a0 d8 05 8d 01 58 0f 56 ff a4 00 b0 ff a0 05 8a 01 2f 0f 6b ff a4 00 a4 ff 69 05 90 01 21 0f 89 ff a6 00 9e ff
# ReportID: 48 / 0xff010030:  118 ,   46 ,    0 ,    0 ,    0 ,   49 ,   24 ,  140 ,    0 ,    0 ,    0 ,  160 ,  119 ,    6 ,   49 ,    1 ,  207 ,   15 ,  105 ,  255 ,  179 ,    0 ,  193 ,  255 ,   51 ,    6 ,  149 ,    1 ,  230 ,   14 ,   88 ,  255 ,  173 ,    0 ,  194 ,  255 ,   13 ,    6 ,  140 ,    1 ,  129 ,   15 ,   80 ,  255 ,  167 ,    0 ,  186 ,  255 
E: 000002.385985 49 30 76 2e 00 00 00 31 18 8c 00 00 00 a0 77 06 31 01 cf 0f 69 ff b3 00 c1 ff 33 06 95 01 e6 0e 58 ff ad 00 c2 ff 0d 06 8c 01 81 0f 50 ff a7 00 ba ff
# ReportID: 48 / 0xff010030:  121 ,   46 ,    0 ,    0 ,    0 ,   48 ,   24 ,  140 ,    0 ,    0 ,    0 ,  160 ,   97 ,    5 ,  199 ,    1 ,  113 ,   15 ,   14 ,    0 ,  136 ,    0 ,  199 ,  255 ,  130 ,    5 ,  191 ,    1 ,   85 ,   15 ,   46 ,    0 ,  169 ,    0 ,  188 ,  255 ,  217 ,    5 ,  102 ,    1 ,   80 ,   16 ,  128 ,  255 ,  177 ,    0 ,  184 ,  255 
E: 000002.400954 49 30 79 2e 00 00 00 30 18 8c 00 00 00 a0 61 05 c7 01 71 0f 0e 00 88 00 c7 ff 82 05 bf 01 55 0f 2e 00 a9 00 bc ff d9 05 66 01 50 10 80 ff b1 00 b8 ff
# ReportID: 48 / 0xff010030:  124 ,   46 ,    0 ,    0 ,    0 ,   48 ,   24 ,  140 ,    0 ,    0 ,    0 ,  160 ,  154 ,    5 ,  103 ,    1 ,  137 ,   15 ,   55 ,    0 ,   74 ,    0 ,  203 ,  255 ,  165 ,    5 ,  124 ,    1 ,  121 ,   15 ,   28 ,    0 ,   82 ,    0 ,  204 ,  255 ,  145 ,    5 ,  152 ,    1 ,  101 ,   15 ,    3 ,    0 ,   99 ,    0 ,  209 ,  255 
E: 000002.416993 49 30 7c 2e 00 00 00 30 18 8c 00 00 00 a0 9a 05 67 01 89 0f 37 00 4a 00 cb ff a5 05 7c 01 79 0f 1c 00 52 00 cc ff 91 05 98 01 65 0f 03 00 63 00 d1 ff
# ReportID: 48 / 0xff010030:  127 ,   46 ,    0 ,    0 ,    0 ,   49 ,   56 ,  140 ,    0 ,    0 ,    0 ,  160 ,  169 ,    5 ,   83 ,    1 ,  120 ,   15 ,   81 ,    0 ,   80 ,    0 ,  244 ,  255 ,  199 ,    5 ,  111 ,    1 ,  132 ,   15 ,   85 ,    0 ,   78 ,    0 ,  226 ,  255 ,  178 ,    5 ,   89 ,    1 ,  109 ,   15 ,   85 ,    0 ,   73 ,    0 ,  214 ,  255 
E: 000002.430954 49 30 7f 2e 00 00 00 31 38 8c 00 00 00 a0 a9 05 53 01 78 0f 51 00 50 00 f4 ff c7 05 6f 01 84 0f 55 00 4e 00 e2 ff b2 05 59 01 6d 0f 55 00 49 00 d6 ff
# ReportID: 48 / 0xff010030:  130 ,   46 ,    0 ,    0 ,    0 ,   49 ,   72 ,  140 ,    0 ,    0 ,    0 ,  160 ,  170 ,    5 ,   56 ,    1 ,  105 ,   15 ,  188 ,  255 ,   97 ,    0 ,  233 ,  255 ,  208 ,    5 ,  112 ,    1 ,   30 ,   15 ,    2 ,    0 ,   96 ,    0 ,  249 ,  255 ,  202 ,    5 ,  122 ,    1 ,   25 ,   15 ,   61 ,    0 ,   87 ,    0 ,    0 ,    0 
E: 000002.446000 49 30 82 2e 00 00 00 31 48 8c 00 00 00 a0 aa 05 38 01 69 0f bc ff 61 00 e9 ff d0 05 70 01 1e 0f 02 00 60 00 f9 ff ca 05 7a 01 19 0f 3d 00 57 00 00 00
# ReportID: 48 / 0xff010030:  133 ,   46 ,    0 ,    0 ,    0 ,   49 ,   72 ,  140 ,    0 ,    0 ,    0 ,  160 ,  155 ,    5 ,   28 ,    1 ,  121 ,   15 ,   27 ,    0 ,   94 ,    0 ,  230 ,  255 ,  174 ,    5 ,   11 ,    1 ,  144 ,   15 ,  249 ,  255 ,  108 ,    0 ,  225 ,  255 ,  178 ,    5 ,  254 ,    0 ,  142 ,   15 ,  187 ,  255 ,  104 ,    0 ,  223 ,  255 
E: 000002.462039 49 30 85 2e 00 00 00 31 48 8c 00 00 00 a0 9b 05 1c 01 79 0f 1b 00 5e 00 e6 ff ae 05 0b 01 90 0f f9 ff 6c 00 e1 ff b2 05 fe 00 8e 0f bb ff 68 00 df ff
# ReportID: 48 / 0xff010030:  136 ,   46 ,    0 ,    0 ,    0 ,   47 ,   56 ,  140 ,    0 ,    0 ,    0 ,  160 ,  211 ,    5 ,   38 ,    1 ,   57 ,   15 ,   82 ,    0 ,   37 ,    0 ,  225 ,  255 ,  155 ,    5 ,   46 ,    1 ,  161 ,   15 ,   61 ,    0 ,   52 ,    0 ,  223 ,  255 ,  136 ,    5 ,   68 ,    1 ,  172 ,   15 ,   34 ,    0 ,   71 ,    0 ,  230 ,  255 
E: 000002.476026 49 30 88 2e 00 00 00 2f 38 8c 00 00 00 a0 d3 05 26 01 39 0f 52 00 25 00 e1 ff 9b 05 2e 01 a1 0f 3d 00 34 00 df ff 88 05 44 01 ac 0f 22 00 47 00 e6 ff
# ReportID: 48 / 0xff010030:  139 ,   46 ,    0 ,    0 ,    0 ,   48 ,   72 ,  140 ,    0 ,    0 ,    0 ,  160 ,  205 ,    5 ,   74 ,    1 ,  110 ,   15 ,  210 ,  255 ,  231 ,  255 ,  254 ,  255 ,  238 ,    5 ,   75 ,    1 ,   58 ,   15 ,  255 ,  255 ,  251 ,  255 ,  251 ,  255 ,  248 ,    5 ,   61 ,    1 ,   28 ,   15 ,   49 ,    0 ,   17 ,    0 ,  240 ,  255 
E: 000002.491062 49 30 8b 2e 00 00 00 30 48 8c 00 00 00 a0 cd 05 4a 01 6e 0f d2 ff e7 ff fe ff ee 05 4b 01 3a 0f ff ff fb ff fb ff f8 05 3d 01 1c 0f 31 00 11 00 f0 ff
# ReportID: 48 / 0xff010030:  142 ,   46 ,    0 ,    0 ,    0 ,   48 ,   56 ,  140 ,    0 ,    0 ,    0 ,  160 ,  133 ,    5 ,   79 ,    1 ,  104 ,   15 ,  212 ,  255 ,  231 ,  255 ,  252 ,  255 ,  125 ,    5 ,   77 ,    1 ,  142 ,   15 ,  202 ,  255 ,  222 ,  255 ,  252 ,  255 ,  154 ,    5 ,   73 ,    1 ,  142 ,   15 ,  195 ,  255 ,  222 ,  255 ,  252 ,  255 
E: 000002.505946 49 30 8e 2e 00 00 00 30 38 8c 00 00 00 a0 85 05 4f 01 68 0f d4 ff e7 ff fc ff 7d 05 4d 01 8e 0f ca ff de ff fc ff 9a 05 49 01 8e 0f c3 ff de ff fc ff
# ReportID: 48 / 0xff010030:  145 ,   46 ,    0 ,    0 ,    0 ,   48 ,   40 ,  140 ,    0 ,    0 ,    0 ,  160 ,  146 ,    5 ,  211 ,    0 ,   45 ,   15 ,  195 ,  255 ,   19 ,    0 ,  247 ,  255 ,  140 ,    5 ,   13 ,    1 ,   99 ,   15 ,  181 ,  255 ,  255 ,  255 ,  244 ,  255 ,  142 ,    5 ,   85 ,    1 ,  103 ,   15 ,  186 ,  255 ,  242 ,  255 ,  250 ,  255 
E: 000002.520989 49 30 91 2e 00 00 00 30 28 8c 00 00 00 a0 92 05 d3 00 2d 0f c3 ff 13 00 f7 ff 8c 05 0d 01 63 0f b5 ff ff ff f4 ff 8e 05 55 01 67 0f ba ff f2 ff fa ff
# ReportID: 48 / 0xff010030:  148 ,   46 ,    0 ,    0 ,    0 ,   48 ,   88 ,  140 ,    0 ,    0 ,    0 ,  160 ,  139 ,    5 ,   13 ,    1 ,   72 ,   15 ,  192 ,  255 ,  248 ,  255 ,  238 ,  255 ,  158 ,    5 ,  250 ,    0 ,   44 ,   15 ,  187 ,  255 ,   14 ,    0 ,  240 ,  255 ,  165 ,    5 ,  226 ,    0 ,   25 ,   15 ,  192 ,  255 ,   28 ,    0 ,  245 ,  255 
E: 000002.535975 49 30 94 2e 00 00 00 30 58 8c 00 00 00 a0 8b 05 0d 01 48 0f c0 ff f8 ff ee ff 9e 05 fa 00 2c 0f bb ff 0e 00 f0 ff a5 05 e2 00 19 0f c0 ff 1c 00 f5 ff
# ReportID: 48 / 0xff010030:  151 ,   46 ,    0 ,    0 ,    0 ,   47 ,   72 ,  140 ,    0 ,    0 ,    0 ,  160 ,  172 ,    5 ,   56 ,    1 ,  118 ,   15 ,  233 ,  255 ,  215 ,  255 ,  236 ,  255 ,  170 ,    5 ,   62 ,    1 ,   91 ,   15 ,  233 ,  255 ,  217 ,  255 ,  241 ,  255 ,  149 ,    5 ,   47 ,    1 ,   75 ,   15 ,  220 ,  255 ,  230 ,  255 ,  239 ,  255 
E: 000002.552010 49 30 97 2e 00 00 00 2f 48 8c 00 00 00 a0 ac 05 38 01 76 0f e9 ff d7 ff ec ff aa 05 3e 01 5b 0f e9 ff d9 ff f1 ff 95 05 2f 01 4b 0f dc ff e6 ff ef ff
# ReportID: 48 / 0xff010030:  154 ,   46 ,    0 ,    0 ,    0 ,   48 ,   56 ,  140 ,    0 ,    0 ,    0 ,  160 ,   78 ,    5 ,   57 ,    1 ,  162 ,   15 ,    1 ,    0 ,  236 ,  255 ,  202 ,  255 ,  104 ,    5 ,   62 ,    1 ,  147 ,   15 ,  249 ,  255 ,  232 ,  255 ,  210 ,  255 ,  146 ,    5 ,   60 ,    1 ,  138 ,   15 ,  238 ,  255 ,  221 ,  255 ,  226 ,  255 
E: 000002.565989 49 30 9a 2e 00 00 00 30 38 8c 00 00 00 a0 4e 05 39 01 a2 0f 01 00 ec ff ca ff 68 05 3e 01 93 0f f9 ff e8 ff d2 ff 92 05 3c 01 8a 0f ee ff dd ff e2 ff
# ReportID: 48 / 0xff010030:  157 ,   46 ,    0 ,    0 ,    0 ,   48 ,   56 ,  140 ,    0 ,    0 ,    0 ,  160 ,  122 ,    5 ,   31 ,    1 ,  183 ,   15 ,   16 ,    0 ,  209 ,  255 ,  185 ,  255 ,   97 ,    5 ,   50 ,    1 ,  177 ,   15 ,   12 ,    0 ,  218 ,  255 ,  187 ,  255 ,   77 ,    5 ,   53 ,    1 ,  171 ,   15 ,    9 ,    0 ,  228 ,  255 ,  192 ,  255 
E: 000002.580925 49 30 9d 2e 00 00 00 30 38 8c 00 00 00 a0 7a 05 1f 01 b7 0f 10 00 d1 ff b9 ff 61 05 32 01 b1 0f 0c 00 da ff bb ff 4d 05 35 01 ab 0f 09 00 e4 ff c0 ff
# ReportID: 48 / 0xff010030:  160 ,   46 ,    0 ,    0 ,    0 ,   49 ,   56 ,  140 ,    0 ,    0 ,    0 ,  160 ,  151 ,    5 ,    1 ,    1 ,  120 ,   15 ,   35 ,    0 ,  232 ,  255 ,  196 ,  255 ,  150 ,    5 ,    3 ,    1 ,  121 ,   15 ,   34 ,    0 ,  215 ,  255 ,  191 ,  255 ,  142 ,    5 ,   15 ,    1 ,  146 ,   15 ,   26 ,    0 ,  207 ,  255 ,  186 ,  255 
E: 000002.596979 49 30 a0 2e 00 00 00 31 38 8c 00 00 00 a0 97 05 01 01 78 0f 23 00 e8 ff c4 ff 96 05 03 01 79 0f 22 00 d7 ff bf ff 8e 05 0f 01 92 0f 1a 00 cf ff ba ff
# ReportID: 48 / 0xff010030:  163 ,   46 ,    0 ,    0 ,    0 ,   48 ,   56 ,  140 ,    0 ,    0 ,    0 ,  160 ,  131 ,    5 ,   48 ,    1 ,   60 ,   15 ,   19 ,    0 ,    0 ,    0 ,  195 ,  255 ,  131 ,    5 ,   42 ,    1 ,   80 ,   15 ,   35 ,    0 ,    2 ,    0 ,  196 ,  255 ,  142 ,    5 ,   19 ,    1 ,  106 ,   15 ,   38 ,    0 ,  248 ,  255 ,  198 ,  255 
E: 000002.612004 49 30 a3 2e 00 00 00 30 38 8c 00 00 00 a0 83 05 30 01 3c 0f 13 00 00 00 c3 ff 83 05 2a 01 50 0f 23 00 02 00 c4 ff 8e 05 13 01 6a 0f 26 00 f8 ff c6 ff
# ReportID: 48 / 0xff010030:  166 ,   46 ,    0 ,    0 ,    0 ,   49 ,   40 ,  140 ,    0 ,    0 ,    0 ,  160 ,  155 ,    5 ,   52 ,    1 ,   22 ,   15 ,  246 ,  255 ,  238 ,  255 ,  189 ,  255 ,  141 ,    5 ,   33 ,    1 ,   49 ,   15 ,  253 ,  255 ,  243 ,  255 ,  191 ,  255 ,  136 ,    5 ,   39 ,    1 ,   56 ,   15 ,    4 ,    0 ,  249 ,  255 ,  193 ,  255 
