# Joy-Con (R)
# 0x05, 0x01,                    // Usage Page (Generic Desktop)        0
# 0x09, 0x05,                    // Usage (Game Pad)                    2
# 0xa1, 0x01,                    // Collection (Application)            4
# 0x06, 0x01, 0xff,              //  Usage Page (Vendor Usage Page 0xff01) 6
# 0x85, 0x21,                    //  Report ID (33)                     9
# 0x09, 0x21,                    //  Usage (Vendor Usage 0x21)          11
# 0x75, 0x08,                    //  Report Size (8)                    13
# 0x95, 0x30,                    //  Report Count (48)                  15
# 0x81, 0x02,                    //  Input (Data,Var,Abs)               17
# 0x85, 0x30,                    //  Report ID (48)                     19
# 0x09, 0x30,                    //  Usage (Vendor Usage 0x30)          21
# 0x75, 0x08,                    //  Report Size (8)                    23
# 0x95, 0x30,                    //  Report Count (48)                  25
# 0x81, 0x02,                    //  Input (Data,Var,Abs)               27
# 0x85, 0x31,                    //  Report ID (49)                     29
# 0x09, 0x31,                    //  Usage (Vendor Usage 0x31)          31
# 0x75, 0x08,                    //  Report Size (8)                    33
# 0x96, 0x69, 0x01,              //  Report Count (361)                 35
# 0x81, 0x02,                    //  Input (Data,Var,Abs)               38
# 0x85, 0x32,                    //  Report ID (50)                     40
# 0x09, 0x32,                    //  Usage (Vendor Usage 0x32)          42
# 0x75, 0x08,                    //  Report Size (8)                    44
# 0x96, 0x69, 0x01,              //  Report Count (361)                 46
# 0x81, 0x02,                    //  Input (Data,Var,Abs)               49
# 0x85, 0x33,                    //  Report ID (51)                     51
# 0x09, 0x33,                    //  Usage (Vendor Usage 0x33)          53
# 0x75, 0x08,                    //  Report Size (8)                    55
# 0x96, 0x69, 0x01,              //  Report Count (361)                 57
# 0x81, 0x02,                    //  Input (Data,Var,Abs)               60
# 0x85, 0x3f,                    //  Report ID (63)                     62
# 0x05, 0x09,                    //  Usage Page (Button)                64
# 0x19, 0x01,                    //  Usage Minimum (1)                  66
# 0x29, 0x10,                    //  Usage Maximum (16)                 68
# 0x15, 0x00,                    //  Logical Minimum (0)                70
# 0x25, 0x01,                    //  Logical Maximum (1)                72
# 0x75, 0x01,                    //  Report Size (1)                    74
# 0x95, 0x10,                    //  Report Count (16)                  76
# 0x81, 0x02,                    //  Input (Data,Var,Abs)               78
# 0x05, 0x01,                    //  Usage Page (Generic Desktop)       80
# 0x09, 0x39,                    //  Usage (Hat switch)                 82
# 0x15, 0x00,                    //  Logical Minimum (0)                84
# 0x25, 0x07,                    //  Logical Maximum (7)                86
# 0x75, 0x04,                    //  Report Size (4)                    88
# 0x95, 0x01,                    //  Report Count (1)                   90
# 0x81, 0x42,                    //  Input (Data,Var,Abs,Null)          92
# 0x05, 0x09,                    //  Usage Page (Button)                94
# 0x75, 0x04,                    //  Report Size (4)                    96
# 0x95, 0x01,                    //  Report Count (1)                   98
# 0x81, 0x01,                    //  Input (Cnst,Arr,Abs)               100
# 0x05, 0x01,                    //  Usage Page (Generic Desktop)       102
# 0x09, 0x30,                    //  Usage (X)                          104
# 0x09, 0x31,                    //  Usage (Y)                          106
# 0x09, 0x33,                    //  Usage (Rx)                         108
# 0x09, 0x34,                    //  Usage (Ry)                         110
# 0x16, 0x00, 0x00,              //  Logical Minimum (0)                112
# 0x27, 0xff, 0xff, 0x00, 0x00,  //  Logical Maximum (65535)            115
# 0x75, 0x10,                    //  Report Size (16)                   120
# 0x95, 0x04,                    //  Report Count (4)                   122
# 0x81, 0x02,                    //  Input (Data,Var,Abs)               124
# 0x06, 0x01, 0xff,              //  Usage Page (Vendor Usage Page 0xff01) 126
# 0x85, 0x01,                    //  Report ID (1)                      129
# 0x09, 0x01,                    //  Usage (Vendor Usage 0x01)          131
# 0x75, 0x08,                    //  Report Size (8)                    133
# 0x95, 0x30,                    //  Report Count (48)                  135
# 0x91, 0x02,                    //  Output (Data,Var,Abs)              137
# 0x85, 0x10,                    //  Report ID (16)                     139
# 0x09, 0x10,                    //  Usage (Vendor Usage 0x10)          141
# 0x75, 0x08,                    //  Report Size (8)                    143
# 0x95, 0x30,                    //  Report Count (48)                  145
# 0x91, 0x02,                    //  Output (Data,Var,Abs)              147
# 0x85, 0x11,                    //  Report ID (17)                     149
# 0x09, 0x11,                    //  Usage (Vendor Usage 0x11)          151
# 0x75, 0x08,                    //  Report Size (8)                    153
# 0x95, 0x30,                    //  Report Count (48)                  155
# 0x91, 0x02,                    //  Output (Data,Var,Abs)              157
# 0x85, 0x12,                    //  Report ID (18)                     159
# 0x09, 0x12,                    //  Usage (Vendor Usage 0x12)          161
# 0x75, 0x08,                    //  Report Size (8)                    163
# 0x95, 0x30,                    //  Report Count (48)                  165
# 0x91, 0x02,                    //  Output (Data,Var,Abs)              167
# 0xc0,                          // End Collection                      169
# 
R: 170 05 01 09 05 a1 01 06 01 ff 85 21 09 21 75 08 95 30 81 02 85 30 09 30 75 08 95 30 81 02 85 31 09 31 75 08 96 69 01 81 02 85 32 09 32 75 08 96 69 01 81 02 85 33 09 33 75 08 96 69 01 81 02 85 3f 05 09 19 01 29 10 15 00 25 01 75 01 95 10 81 02 05 01 09 39 15 00 25 07 75 04 95 01 81 42 05 09 75 04 95 01 81 01 05 01 09 30 09 31 09 33 09 34 16 00 00 27 ff ff 00 00 75 10 95 04 81 02 06 01 ff 85 01 09 01 75 08 95 30 91 02 85 10 09 10 75 08 95 30 91 02 85 11 09 11 75 08 95 30 91 02 85 12 09 12 75 08 95 30 91 02 c0
N: Joy-Con (R)
I: 5 057e 2007
# ReportID: 48 / 0xff010030:  109 ,   78 ,    0 ,    0 ,    0 ,    0 ,    0 ,    0 ,   93 ,   24 ,  115 ,   11 ,  218 ,    2 ,  251 ,    0 ,  141 ,  240 ,  239 ,  255 ,  234 ,  255 ,  247 ,  255 ,  192 ,    2 ,  238 ,    0 ,  140 ,  240 ,    7 ,    0 ,  227 ,  255 ,  245 ,  255 ,  175 ,    2 ,  222 ,    0 ,  172 ,  240 ,    4 ,    0 ,  227 ,  255 ,  241 ,  255 
E: 000000.000000 49 30 6d 4e 00 00 00 00 00 00 5d 18 73 0b da 02 fb 00 8d f0 ef ff ea ff f7 ff c0 02 ee 00 8c f0 07 00 e3 ff f5 ff af 02 de 00 ac f0 04 00 e3 ff f1 ff
# ReportID: 48 / 0xff010030:  112 ,   78 ,    0 ,    0 ,    0 ,    0 ,    0 ,    0 ,   93 ,    8 ,  115 ,   11 ,  141 ,    2 ,  233 ,    0 ,  239 ,  240 ,  253 ,  255 ,  236 ,  255 ,  241 ,  255 ,  172 ,    2 ,  245 ,    0 ,  228 ,  240 ,  225 ,  255 ,  238 ,  255 ,  238 ,  255 ,  213 ,    2 ,  255 ,    0 ,  184 ,  240 ,  220 ,  255 ,  238 ,  255 ,  242 ,  255 
E: 000000.017841 49 30 70 4e 00 00 00 00 00 00 5d 08 73 0b 8d 02 e9 00 ef f0 fd ff ec ff f1 ff ac 02 f5 00 e4 f0 e1 ff ee ff ee ff d5 02 ff 00 b8 f0 dc ff ee ff f2 ff
# ReportID: 48 / 0xff010030:  115 ,   78 ,    0 ,    0 ,    0 ,    0 ,    0 ,    0 ,   92 ,    8 ,  115 ,   11 ,  191 ,    2 ,  222 ,    0 ,  182 ,  240 ,   45 ,    0 ,  236 ,  255 ,  252 ,  255 ,  173 ,    2 ,  227 ,    0 ,  200 ,  240 ,   45 ,    0 ,  235 ,  255 ,  253 ,  255 ,  152 ,    2 ,  230 ,    0 ,  220 ,  240 ,   28 ,    0 ,  235 ,  255 ,  248 ,  255 
E: 000000.029895 49 30 73 4e 00 00 00 00 00 00 5c 08 73 0b bf 02 de 00 b6 f0 2d 00 ec ff fc ff ad 02 e3 00 c8 f0 2d 00 eb ff fd ff 98 02 e6 00 dc f0 1c 00 eb ff f8 ff
# ReportID: 48 / 0xff010030:  118 ,   78 ,    0 ,    0 ,    0 ,    0 ,    0 ,    0 ,   92 ,   24 ,  115 ,   11 ,  190 ,    2 ,  196 ,    0 ,  131 ,  240 ,    2 ,    0 ,  220 ,  255 ,  243 ,  255 ,  203 ,    2 ,  207 ,    0 ,  141 ,  240 ,   19 ,    0 ,  227 ,  255 ,  244 ,  255 ,  202 ,    2 ,  215 ,    0 ,  161 ,  240 ,   38 ,    0 ,  233 ,  255 ,  249 ,  255 
E: 000000.044904 49 30 76 4e 00 00 00 00 00 00 5c 18 73 0b be 02 c4 00 83 f0 02 00 dc ff f3 ff cb 02 cf 00 8d f0 13 00 e3 ff f4 ff ca 02 d7 00 a1 f0 26 00 e9 ff f9 ff
# ReportID: 48 / 0xff010030:  121 ,   78 ,    0 ,    0 ,    0 ,    0 ,    0 ,    0 ,   92 ,   40 ,  115 ,   11 ,  169 ,    2 ,  179 ,    0 ,  107 ,  240 ,  228 ,  255 ,  204 ,  255 ,  248 ,  255 ,  168 ,    2 ,  180 ,    0 ,  118 ,  240 ,  234 ,  255 ,  208 ,  255 ,  247 ,  255 ,  177 ,    2 ,  184 ,    0 ,  125 ,  240 ,  243 ,  255 ,  213 ,  255 ,  245 ,  255 
E: 000000.060891 49 30 79 4e 00 00 00 00 00 00 5c 28 73 0b a9 02 b3 00 6b f0 e4 ff cc ff f8 ff a8 02 b4 00 76 f0 ea ff d0 ff f7 ff b1 02 b8 00 7d f0 f3 ff d5 ff f5 ff
# ReportID: 48 / 0xff010030:  124 ,   78 ,    0 ,    0 ,    0 ,    0 ,    0 ,    0 ,   92 ,   24 ,  115 ,   11 ,  216 ,    2 ,  232 ,    0 ,   64 ,  240 ,  180 ,  255 ,  216 ,  255 ,  243 ,  255 ,  202 ,    2 ,  214 ,    0 ,   64 ,  240 ,  204 ,  255 ,  210 ,  255 ,  245 ,  255 ,  181 ,    2 ,  195 ,    0 ,   88 ,  240 ,  222 ,  255 ,  204 ,  255 ,  247 ,  255 
E: 000000.075932 49 30 7c 4e 00 00 00 00 00 00 5c 18 73 0b d8 02 e8 00 40 f0 b4 ff d8 ff f3 ff ca 02 d6 00 40 f0 cc ff d2 ff f5 ff b5 02 c3 00 58 f0 de ff cc ff f7 ff
# ReportID: 48 / 0xff010030:  127 ,   78 ,    0 ,    0 ,    0 ,    0 ,    0 ,    0 ,   92 ,   24 ,  115 ,   11 ,  232 ,    2 ,   44 ,    1 ,  120 ,  240 ,  146 ,  255 ,  246 ,  255 ,  233 ,  255 ,  222 ,    2 ,   21 ,    1 ,  100 ,  240 ,  146 ,  255 ,  237 ,  255 ,  235 ,  255 ,  223 ,    2 ,  252 ,    0 ,   75 ,  240 ,  159 ,  255 ,  225 ,  255 ,  239 ,  255 
E: 000000.090943 49 30 7f 4e 00 00 00 00 00 00 5c 18 73 0b e8 02 2c 01 78 f0 92 ff f6 ff e9 ff de 02 15 01 64 f0 92 ff ed ff eb ff df 02 fc 00 4b f0 9f ff e1 ff ef ff
# ReportID: 48 / 0xff010030:  130 ,   78 ,    0 ,    0 ,    0 ,    0 ,    0 ,    0 ,   92 ,   40 ,  115 ,   11 ,  199 ,    2 ,   66 ,    1 ,  228 ,  240 ,  192 ,  255 ,    5 ,    0 ,  232 ,  255 ,  221 ,    2 ,   69 ,    1 ,  199 ,  240 ,  165 ,  255 ,    4 ,    0 ,  232 ,  255 ,  236 ,    2 ,   64 ,    1 ,  150 ,  240 ,  152 ,  255 ,  253 ,  255 ,  232 ,  255 
E: 000000.104872 49 30 82 4e 00 00 00 00 00 00 5c 28 73 0b c7 02 42 01 e4 f0 c0 ff 05 00 e8 ff dd 02 45 01 c7 f0 a5 ff 04 00 e8 ff ec 02 40 01 96 f0 98 ff fd ff e8 ff
# ReportID: 48 / 0xff010030:  133 ,   78 ,    0 ,    0 ,    0 ,    0 ,    0 ,    0 ,   93 ,   24 ,  115 ,   11 ,  200 ,    2 ,   17 ,    1 ,  252 ,  240 ,   40 ,    0 ,  249 ,  255 ,  244 ,  255 ,  191 ,    2 ,   39 ,    1 ,  247 ,  240 ,   13 ,    0 ,  255 ,  255 ,  242 ,  255 ,  188 ,    2 ,   55 ,    1 ,  241 ,  240 ,  234 ,  255 ,    4 ,    0 ,  237 ,  255 
E: 000000.119886 49 30 85 4e 00 00 00 00 00 00 5d 18 73 0b c8 02 11 01 fc f0 28 00 f9 ff f4 ff bf 02 27 01 f7 f0 0d 00 ff ff f2 ff bc 02 37 01 f1 f0 ea ff 04 00 ed ff
# ReportID: 48 / 0xff010030:  136 ,   78 ,    0 ,    0 ,    0 ,    0 ,    0 ,    0 ,   92 ,   24 ,  115 ,   11 ,  213 ,    2 ,  204 ,    0 ,  229 ,  240 ,   87 ,    0 ,  227 ,  255 ,  247 ,  255 ,  210 ,    2 ,  225 ,    0 ,  243 ,  240 ,   79 ,    0 ,  234 ,  255 ,  245 ,  255 ,  207 ,    2 ,  249 ,    0 ,  249 ,  240 ,   60 ,    0 ,  243 ,  255 ,  245 ,  255 
E: 000000.134944 49 30 88 4e 00 00 00 00 00 00 5c 18 73 0b d5 02 cc 00 e5 f0 57 00 e3 ff f7 ff d2 02 e1 00 f3 f0 4f 00 ea ff f5 ff cf 02 f9 00 f9 f0 3c 00 f3 ff f5 ff
# ReportID: 48 / 0xff010030:  139 ,   78 ,    0 ,    0 ,    0 ,    0 ,    0 ,    0 ,   92 ,   40 ,  115 ,   11 ,  229 ,    2 ,  162 ,    0 ,  177 ,  240 ,   49 ,    0 ,  220 ,  255 ,  248 ,  255 ,  225 ,    2 ,  167 ,    0 ,  195 ,  240 ,   72 ,    0 ,  219 ,  255 ,  249 ,  255 ,  225 ,    2 ,  181 ,    0 ,  211 ,  240 ,   85 ,    0 ,  220 ,  255 ,  249 ,  255 
E: 000000.149882 49 30 8b 4e 00 00 00 00 00 00 5c 28 73 0b e5 02 a2 00 b1 f0 31 00 dc ff f8 ff e1 02 a7 00 c3 f0 48 00 db ff f9 ff e1 02 b5 00 d3 f0 55 00 dc ff f9 ff
# ReportID: 48 / 0xff010030:  142 ,   78 ,    0 ,    0 ,    0 ,    0 ,    0 ,    0 ,   92 ,   24 ,  115 ,   11 ,  234 ,    2 ,  179 ,    0 ,  141 ,  240 ,  224 ,  255 ,  223 ,  255 ,  237 ,  255 ,  232 ,    2 ,  167 ,    0 ,  150 ,  240 ,  253 ,  255 ,  220 ,  255 ,  241 ,  255 ,  232 ,    2 ,  163 ,    0 ,  164 ,  240 ,   23 ,    0 ,  219 ,  255 ,  245 ,  255 
E: 000000.164979 49 30 8e 4e 00 00 00 00 00 00 5c 18 73 0b ea 02 b3 00 8d f0 e0 ff df ff ed ff e8 02 a7 00 96 f0 fd ff dc ff f1 ff e8 02 a3 00 a4 f0 17 00 db ff f5 ff
# ReportID: 48 / 0xff010030:  145 ,   78 ,    0 ,    0 ,    0 ,    0 ,    0 ,    0 ,   92 ,   40 ,  115 ,   11 ,  212 ,    2 ,  235 ,    0 ,  143 ,  240 ,  175 ,  255 ,  225 ,  255 ,  235 ,  255 ,  219 ,    2 ,  219 ,    0 ,  147 ,  240 ,  180 ,  255 ,  225 ,  255 ,  235 ,  255 ,  228 ,    2 ,  196 ,    0 ,  143 ,  240 ,  195 ,  255 ,  226 ,  255 ,  235 ,  255 
E: 000000.180841 49 30 91 4e 00 00 00 00 00 00 5c 28 73 0b d4 02 eb 00 8f f0 af ff e1 ff eb ff db 02 db 00 93 f0 b4 ff e1 ff eb ff e4 02 c4 00 8f f0 c3 ff e2 ff eb ff
# ReportID: 48 / 0xff010030:  148 ,   78 ,    0 ,    0 ,    0 ,    0 ,    0 ,    0 ,   92 ,   24 ,  115 ,   11 ,  204 ,    2 ,   19 ,    1 ,  125 ,  240 ,  199 ,  255 ,  217 ,  255 ,  238 ,  255 ,  212 ,    2 ,   13 ,    1 ,  137 ,  240 ,  184 ,  255 ,  221 ,  255 ,  236 ,  255 ,  215 ,    2 ,    0 ,    1 ,  141 ,  240 ,  177 ,  255 ,  223 ,  255 ,  236 ,  255 
E: 000000.195909 49 30 94 4e 00 00 00 00 00 00 5c 18 73 0b cc 02 13 01 7d f0 c7 ff d9 ff ee ff d4 02 0d 01 89 f0 b8 ff dd ff ec ff d7 02 00 01 8d f0 b1 ff df ff ec ff
# ReportID: 48 / 0xff010030:  151 ,   78 ,    0 ,    0 ,    0 ,    0 ,    0 ,    0 ,   91 ,   40 ,  115 ,   11 ,  185 ,    2 ,   27 ,    1 ,  122 ,  240 ,  246 ,  255 ,  214 ,  255 ,  243 ,  255 ,  190 ,    2 ,   24 ,    1 ,  123 ,  240 ,  229 ,  255 ,  213 ,  255 ,  242 ,  255 ,  198 ,    2 ,   19 ,    1 ,  121 ,  240 ,  214 ,  255 ,  215 ,  255 ,  241 ,  255 
E: 000000.209897 49 30 97 4e 00 00 00 00 00 00 5b 28 73 0b b9 02 1b 01 7a f0 f6 ff d6 ff f3 ff be 02 18 01 7b f0 e5 ff d5 ff f2 ff c6 02 13 01 79 f0 d6 ff d7 ff f1 ff
# ReportID: 48 / 0xff010030:  154 ,   78 ,    0 ,    0 ,    0 ,    0 ,    0 ,    0 ,   92 ,   40 ,  115 ,   11 ,  186 ,    2 ,    6 ,    1 ,  138 ,  240 ,   36 ,    0 ,  231 ,  255 ,  248 ,  255 ,  185 ,    2 ,   15 ,    1 ,  131 ,  240 ,   24 ,    0 ,  225 ,  255 ,  247 ,  255 ,  182 ,    2 ,   23 ,    1 ,  122 ,  240 ,   11 ,    0 ,  220 ,  255 ,  245 ,  255 
E: 000000.224905 49 30 9a 4e 00 00 00 00 00 00 5c 28 73 0b ba 02 06 01 8a f0 24 00 e7 ff f8 ff b9 02 0f 01 83 f0 18 00 e1 ff f7 ff b6 02 17 01 7a f0 0b 00 dc ff f5 ff
# ReportID: 48 / 0xff010030:  157 ,   78 ,    0 ,    0 ,    0 ,    0 ,    0 ,    0 ,   92 ,   40 ,  115 ,   11 ,  189 ,    2 ,  238 ,    0 ,  149 ,  240 ,   36 ,    0 ,  248 ,  255 ,  247 ,  255 ,  188 ,    2 ,  240 ,    0 ,  145 ,  240 ,   41 ,    0 ,  245 ,  255 ,  249 ,  255 ,  188 ,    2 ,  252 ,    0 ,  140 ,  240 ,   43 ,    0 ,  239 ,  255 ,  249 ,  255 
E: 000000.239955 49 30 9d 4e 00 00 00 00 00 00 5c 28 73 0b bd 02 ee 00 95 f0 24 00 f8 ff f7 ff bc 02 f0 00 91 f0 29 00 f5 ff f9 ff bc 02 fc 00 8c f0 2b 00 ef ff f9 ff
# ReportID: 48 / 0xff010030:  160 ,   78 ,    0 ,    0 ,    0 ,    0 ,    0 ,    0 ,   91 ,   24 ,  115 ,   11 ,  199 ,    2 ,  218 ,    0 ,  145 ,  240 ,  248 ,  255 ,  239 ,  255 ,  241 ,  255 ,  189 ,    2 ,  224 ,    0 ,  151 ,  240 ,   12 ,    0 ,  249 ,  255 ,  243 ,  255 ,  188 ,    2 ,  231 ,    0 ,  152 ,  240 ,   26 ,    0 ,  248 ,  255 ,  247 ,  255 
E: 000000.255963 49 30 a0 4e 00 00 00 00 00 00 5b 18 73 0b c7 02 da 00 91 f0 f8 ff ef ff f1 ff bd 02 e0 00 97 f0 0c 00 f9 ff f3 ff bc 02 e7 00 98 f0 1a 00 f8 ff f7 ff
# ReportID: 48 / 0xff010030:  163 ,   78 ,    0 ,    0 ,    0 ,    0 ,    0 ,    0 ,   92 ,   40 ,  115 ,   11 ,  196 ,    2 ,  235 ,    0 ,  156 ,  240 ,  211 ,  255 ,  218 ,  255 ,  235 ,  255 ,  200 ,    2 ,  226 ,    0 ,  150 ,  240 ,  221 ,  255 ,  226 ,  255 ,  237 ,  255 ,  200 ,    2 ,  220 ,    0 ,  145 ,  240 ,  234 ,  255 ,  232 ,  255 ,  239 ,  255 
E: 000000.269935 49 30 a3 4e 00 00 00 00 00 00 5c 28 73 0b c4 02 eb 00 9c f0 d3 ff da ff eb ff c8 02 e2 00 96 f0 dd ff e2 ff ed ff c8 02 dc 00 91 f0 ea ff e8 ff ef ff
# ReportID: 48 / 0xff010030:  166 ,   78 ,    0 ,    0 ,    0 ,    0 ,    0 ,    0 ,   92 ,   24 ,  115 ,   11 ,  186 ,    2 ,    7 ,    1 ,  188 ,  240 ,  216 ,  255 ,  213 ,  255 ,  232 ,  255 ,  192 ,    2 ,  254 ,    0 ,  174 ,  240 ,  207 ,  255 ,  211 ,  255 ,  232 ,  255 ,  196 ,    2 ,  244 ,    0 ,  162 ,  240 ,  205 ,  255 ,  213 ,  255 ,  234 ,  255 
E: 000000.284874 49 30 a6 4e 00 00 00 00 00 00 5c 18 73 0b ba 02 07 01 bc f0 d8 ff d5 ff e8 ff c0 02 fe 00 ae f0 cf ff d3 ff e8 ff c4 02 f4 00 a2 f0 cd ff d5 ff ea ff
# ReportID: 48 / 0xff010030:  169 ,   78 ,    0 ,    0 ,    0 ,    0 ,    0 ,    0 ,   93 ,   24 ,  115 ,   11 ,  187 ,    2 ,   16 ,    1 ,  207 ,  240 ,    2 ,    0 ,  229 ,  255 ,  234 ,  255 ,  186 ,    2 ,   17 ,    1 ,  206 ,  240 ,  242 ,  255 ,  221 ,  255 ,  232 ,  255 ,  187 ,    2 ,   11 ,    1 ,  202 ,  240 ,  229 ,  255 ,  215 ,  255 ,  232 ,  255 
E: 000000.299956 49 30 a9 4e 00 00 00 00 00 00 5d 18 73 0b bb 02 10 01 cf f0 02 00 e5 ff ea ff ba 02 11 01 ce f0 f2 ff dd ff e8 ff bb 02 0b 01 ca f0 e5 ff d7 ff e8 ff
# ReportID: 48 / 0xff010030:  172 ,   78 ,    0 ,    0 ,    0 ,    0 ,    0 ,    0 ,   92 ,   24 ,  115 ,   11 ,  203 ,    2 ,  251 ,    0 ,  181 ,  240 ,   25 ,    0 ,  247 ,  255 ,  239 ,  255 ,  198 ,    2 ,    0 ,    1 ,  195 ,  240 ,   21 ,    0 ,  241 ,  255 ,  238 ,  255 ,  192 ,    2 ,    9 ,    1 ,  203 ,  240 ,   13 ,    0 ,  235 ,  255 ,  236 ,  255 
E: 000000.314950 49 30 ac 4e 00 00 00 00 00 00 5c 18 73 0b cb 02 fb 00 b5 f0 19 00 f7 ff ef ff c6 02 00 01 c3 f0 15 00 f1 ff ee ff c0 02 09 01 cb f0 0d 00 eb ff ec ff
# ReportID: 48 / 0xff010030:  175 ,   78 ,    0 ,    0 ,    0 ,    0 ,    0 ,    0 ,   92 ,   40 ,  115 ,   11 ,  206 ,    2 ,  238 ,    0 ,  153 ,  240 ,   10 ,    0 ,  244 ,  255 ,  242 ,  255 ,  209 ,    2 ,  246 ,    0 ,  162 ,  240 ,   19 ,    0 ,  246 ,  255 ,  241 ,  255 ,  208 ,    2 ,  247 ,    0 ,  171 ,  240 ,   24 ,    0 ,  247 ,  255 ,  239 ,  255 
E: 000000.331053 49 30 af 4e 00 00 00 00 00 00 5c 28 73 0b ce 02 ee 00 99 f0 0a 00 f4 ff f2 ff d1 02 f6 00 a2 f0 13 00 f6 ff f1 ff d0 02 f7 00 ab f0 18 00 f7 ff ef ff
# ReportID: 48 / 0xff010030:  178 ,   78 ,    0 ,    0 ,    0 ,    0 ,    0 ,    0 ,   91 ,   24 ,  115 ,   11 ,  214 ,    2 ,  239 ,    0 ,  140 ,  240 ,  238 ,  255 ,  232 ,  255 ,  244 ,  255 ,  210 ,    2 ,  238 ,    0 ,  142 ,  240 ,  245 ,  255 ,  236 ,  255 ,  243 ,  255 ,  205 ,    2 ,  234 ,    0 ,  148 ,  240 ,    0 ,    0 ,  241 ,  255 ,  244 ,  255 
E: 000000.344840 49 30 b2 4e 00 00 00 00 00 00 5b 18 73 0b d6 02 ef 00 8c f0 ee ff e8 ff f4 ff d2 02 ee 00 8e f0 f5 ff ec ff f3 ff cd 02 ea 00 94 f0 00 00 f1 ff f4 ff
# ReportID: 48 / 0xff010030:  181 ,   78 ,    0 ,    0 ,    0 ,    0 ,    0 ,    0 ,   93 ,    8 ,  115 ,   11 ,  212 ,    2 ,  238 ,    0 ,  148 ,  240 ,  228 ,  255 ,  221 ,  255 ,  243 ,  255 ,  216 ,    2 ,  239 ,    0 ,  139 ,  240 ,  228 ,  255 ,  223 ,  255 ,  243 ,  255 ,  213 ,    2 ,  237 ,    0 ,  139 ,  240 ,  232 ,  255 ,  228 ,  255 ,  243 ,  255 
E: 000000.359949 49 30 b5 4e 00 00 00 00 00 00 5d 08 73 0b d4 02 ee 00 94 f0 e4 ff dd ff f3 ff d8 02 ef 00 8b f0 e4 ff df ff f3 ff d5 02 ed 00 8b f0 e8 ff e4 ff f3 ff
# ReportID: 48 / 0xff010030:  184 ,   78 ,    0 ,    0 ,    0 ,    0 ,    0 ,    0 ,   91 ,   24 ,  115 ,   11 ,  211 ,    2 ,  242 ,    0 ,  164 ,  240 ,  241 ,  255 ,  219 ,  255 ,  243 ,  255 ,  210 ,    2 ,  238 ,    0 ,  159 ,  240 ,  235 ,  255 ,  219 ,  255 ,  243 ,  255 ,  210 ,    2 ,  239 ,    0 ,  149 ,  240 ,  231 ,  255 ,  220 ,  255 ,  243 ,  255 
E: 000000.376564 49 30 b8 4e 00 00 00 00 00 00 5b 18 73 0b d3 02 f2 00 a4 f0 f1 ff db ff f3 ff d2 02 ee 00 9f f0 eb ff db ff f3 ff d2 02 ef 00 95 f0 e7 ff dc ff f3 ff
# ReportID: 48 / 0xff010030:  187 ,   78 ,    0 ,    0 ,    0 ,    0 ,    0 ,    0 ,   92 ,   40 ,  115 ,   11 ,  199 ,    2 ,  251 ,    0 ,  185 ,  240 ,    0 ,    0 ,  226 ,  255 ,  241 ,  255 ,  203 ,    2 ,  249 ,    0 ,  175 ,  240 ,  253 ,  255 ,  223 ,  255 ,  240 ,  255 ,  211 ,    2 ,  247 ,    0 ,  168 ,  240 ,  247 ,  255 ,  221 ,  255 ,  241 ,  255 
E: 000000.390889 49 30 bb 4e 00 00 00 00 00 00 5c 28 73 0b c7 02 fb 00 b9 f0 00 00 e2 ff f1 ff cb 02 f9 00 af f0 fd ff df ff f0 ff d3 02 f7 00 a8 f0 f7 ff dd ff f1 ff
# ReportID: 48 / 0xff010030:  190 ,   78 ,    0 ,    0 ,    0 ,    0 ,    0 ,    0 ,   91 ,   40 ,  115 ,   11 ,  193 ,    2 ,  248 ,    0 ,  187 ,  240 ,    8 ,    0 ,  238 ,  255 ,  240 ,  255 ,  194 ,    2 ,  249 ,    0 ,  186 ,  240 ,    7 ,    0 ,  232 ,  255 ,  240 ,  255 ,  197 ,    2 ,  249 ,    0 ,  187 ,  240 ,    4 ,    0 ,  229 ,  255 ,  239 ,  255 
E: 000000.404875 49 30 be 4e 00 00 00 00 00 00 5b 28 73 0b c1 02 f8 00 bb f0 08 00 ee ff f0 ff c2 02 f9 00 ba f0 07 00 e8 ff f0 ff c5 02 f9 00 bb f0 04 00 e5 ff ef ff
# ReportID: 48 / 0xff010030:  193 ,   78 ,    0 ,    0 ,    0 ,    0 ,    0 ,    0 ,   92 ,   40 ,  115 ,   11 ,  195 ,    2 ,  247 ,    0 ,  173 ,  240 ,    2 ,    0 ,  239 ,  255 ,  242 ,  255 ,  190 ,    2 ,  247 ,    0 ,  179 ,  240 ,    4 ,    0 ,  239 ,  255 ,  241 ,  255 ,  193 ,    2 ,  246 ,    0 ,  186 ,  240 ,    7 ,    0 ,  239 ,  255 ,  241 ,  255 
E: 000000.420880 49 30 c1 4e 00 00 00 00 00 00 5c 28 73 0b c3 02 f7 00 ad f0 02 00 ef ff f2 ff be 02 f7 00 b3 f0 04 00 ef ff f1 ff c1 02 f6 00 ba f0 07 00 ef ff f1 ff
# ReportID: 48 / 0xff010030:  196 ,   78 ,    0 ,    0 ,    0 ,    0 ,    0 ,    0 ,   92 ,   40 ,  115 ,   11 ,  201 ,    2 ,  235 ,    0 ,  166 ,  240 ,  248 ,  255 ,  233 ,  255 ,  240 ,  255 ,  201 ,    2 ,  241 ,    0 ,  170 ,  240 ,  250 ,  255 ,  235 ,  255 ,  241 ,  255 ,  200 ,    2 ,  244 ,    0 ,  172 ,  240 ,  255 ,  255 ,  238 ,  255 ,  240 ,  255 
E: 000000.434916 49 30 c4 4e 00 00 00 00 00 00 5c 28 73 0b c9 02 eb 00 a6 f0 f8 ff e9 ff f0 ff c9 02 f1 00 aa f0 fa ff eb ff f1 ff c8 02 f4 00 ac f0 ff ff ee ff f0 ff
# ReportID: 48 / 0xff010030:  199 ,   78 ,    0 ,    0 ,    0 ,    0 ,    0 ,    0 ,   93 ,   24 ,  115 ,   11 ,  202 ,    2 ,  239 ,    0 ,  145 ,  240 ,  236 ,  255 ,  221 ,  255 ,  236 ,  255 ,  197 ,    2 ,  237 ,    0 ,  156 ,  240 ,  241 ,  255 ,  225 ,  255 ,  237 ,  255 ,  205 ,    2 ,  234 ,    0 ,  165 ,  240 ,  244 ,  255 ,  231 ,  255 ,  240 ,  255 
E: 000000.449870 49 30 c7 4e 00 00 00 00 00 00 5d 18 73 0b ca 02 ef 00 91 f0 ec ff dd ff ec ff c5 02 ed 00 9c f0 f1 ff e1 ff ed ff cd 02 ea 00 a5 f0 f4 ff e7 ff f0 ff
# ReportID: 48 / 0xff010030:  202 ,   78 ,    0 ,    0 ,    0 ,    0 ,    0 ,    0 ,   92 ,   24 ,  115 ,   11 ,  206 ,    2 ,  251 ,    0 ,  142 ,  240 ,  227 ,  255 ,  219 ,  255 ,  231 ,  255 ,  204 ,    2 ,  242 ,    0 ,  141 ,  240 ,  229 ,  255 ,  217 ,  255 ,  233 ,  255 ,  204 ,    2 ,  239 ,    0 ,  143 ,  240 ,  232 ,  255 ,  218 ,  255 ,  235 ,  255 
E: 000000.464873 49 30 ca 4e 00 00 00 00 00 00 5c 18 73 0b ce 02 fb 00 8e f0 e3 ff db ff e7 ff cc 02 f2 00 8d f0 e5 ff d9 ff e9 ff cc 02 ef 00 8f f0 e8 ff da ff eb ff
# ReportID: 48 / 0xff010030:  205 ,   78 ,    0 ,    0 ,    0 ,    0 ,    0 ,    0 ,   91 ,   24 ,  115 ,   11 ,  207 ,    2 ,    6 ,    1 ,  158 ,  240 ,  237 ,  255 ,  230 ,  255 ,  228 ,  255 ,  203 ,    2 ,    0 ,    1 ,  150 ,  240 ,  230 ,  255 ,  225 ,  255 ,  229 ,  255 ,  203 ,    2 ,  254 ,    0 ,  144 ,  240 ,  227 ,  255 ,  221 ,  255 ,  231 ,  255 
E: 000000.480968 49 30 cd 4e 00 00 00 00 00 00 5b 18 73 0b cf 02 06 01 9e f0 ed ff e6 ff e4 ff cb 02 00 01 96 f0 e6 ff e1 ff e5 ff cb 02 fe 00 90 f0 e3 ff dd ff e7 ff
# ReportID: 48 / 0xff010030:  208 ,   78 ,    0 ,    0 ,    0 ,    0 ,    0 ,    0 ,   92 ,   24 ,  115 ,   11 ,  214 ,    2 ,    8 ,    1 ,  159 ,  240 ,    9 ,    0 ,  242 ,  255 ,  230 ,  255 ,  211 ,    2 ,    6 ,    1 ,  161 ,  240 ,    1 ,    0 ,  239 ,  255 ,  228 ,  255 ,  206 ,    2 ,    8 ,    1 ,  160 ,  240 ,  247 ,  255 ,  233 ,  255 ,  227 ,  255 
E: 000000.494900 49 30 d0 4e 00 00 00 00 00 00 5c 18 73 0b d6 02 08 01 9f f0 09 00 f2 ff e6 ff d3 02 06 01 a1 f0 01 00 ef ff e4 ff ce 02 08 01 a0 f0 f7 ff e9 ff e3 ff
# ReportID: 48 / 0xff010030:  211 ,   78 ,    0 ,    0 ,    0 ,    0 ,    0 ,    0 ,   92 ,   24 ,  115 ,   11 ,  238 ,    2 ,  243 ,    0 ,  141 ,  240 ,   23 ,    0 ,  239 ,  255 ,  233 ,  255 ,  228 ,    2 ,  251 ,    0 ,  144 ,  240 ,   19 ,    0 ,  243 ,  255 ,  231 ,  255 ,  218 ,    2 ,    3 ,    1 ,  154 ,  240 ,   15 ,    0 ,  243 ,  255 ,  232 ,  255 
E: 000000.510005 49 30 d3 4e 00 00 00 00 00 00 5c 18 73 0b ee 02 f3 00 8d f0 17 00 ef ff e9 ff e4 02 fb 00 90 f0 13 00 f3 ff e7 ff da 02 03 01 9a f0 0f 00 f3 ff e8 ff
# ReportID: 48 / 0xff010030:  214 ,   78 ,    0 ,    0 ,    0 ,    0 ,    0 ,    0 ,   91 ,   40 ,  115 ,   11 ,  238 ,    2 ,  222 ,    0 ,  130 ,  240 ,    7 ,    0 ,  224 ,  255 ,  237 ,  255 ,  239 ,    2 ,  228 ,    0 ,  133 ,  240 ,   15 ,    0 ,  230 ,  255 ,  237 ,  255 ,  240 ,    2 ,  234 ,    0 ,  141 ,  240 ,   20 ,    0 ,  236 ,  255 ,  236 ,  255 
E: 000000.525354 49 30 d6 4e 00 00 00 00 00 00 5b 28 73 0b ee 02 de 00 82 f0 07 00 e0 ff ed ff ef 02 e4 00 85 f0 0f 00 e6 ff ed ff f0 02 ea 00 8d f0 14 00 ec ff ec ff
# ReportID: 48 / 0xff010030:  217 ,   78 ,    0 ,    0 ,    0 ,    0 ,    0 ,    0 ,   92 ,   24 ,  115 ,   11 ,  227 ,    2 ,  221 ,    0 ,  136 ,  240 ,  235 ,  255 ,  211 ,  255 ,  237 ,  255 ,  232 ,    2 ,  219 ,    0 ,  130 ,  240 ,  241 ,  255 ,  211 ,  255 ,  238 ,  255 ,  233 ,    2 ,  219 ,    0 ,  128 ,  240 ,  252 ,  255 ,  217 ,  255 ,  238 ,  255 
E: 000000.540015 49 30 d9 4e 00 00 00 00 00 00 5c 18 73 0b e3 02 dd 00 88 f0 eb ff d3 ff ed ff e8 02 db 00 82 f0 f1 ff d3 ff ee ff e9 02 db 00 80 f0 fc ff d9 ff ee ff
# ReportID: 48 / 0xff010030:  220 ,   78 ,    0 ,    0 ,    0 ,    0 ,    0 ,    0 ,   91 ,   24 ,  115 ,   11 ,  212 ,    2 ,  233 ,    0 ,  167 ,  240 ,  234 ,  255 ,  218 ,  255 ,  240 ,  255 ,  214 ,    2 ,  227 ,    0 ,  161 ,  240 ,  231 ,  255 ,  214 ,  255 ,  239 ,  255 ,  219 ,    2 ,  224 ,    0 ,  150 ,  240 ,  231 ,  255 ,  212 ,  255 ,  238 ,  255 
E: 000000.554954 49 30 dc 4e 00 00 00 00 00 00 5b 18 73 0b d4 02 e9 00 a7 f0 ea ff da ff f0 ff d6 02 e3 00 a1 f0 e7 ff d6 ff ef ff db 02 e0 00 96 f0 e7 ff d4 ff ee ff
# ReportID: 48 / 0xff010030:  223 ,   78 ,    0 ,    0 ,    0 ,    0 ,    0 ,    0 ,   92 ,    8 ,  115 ,   11 ,  216 ,    2 ,  248 ,    0 ,  178 ,  240 ,  252 ,  255 ,  236 ,  255 ,  240 ,  255 ,  211 ,    2 ,  245 ,    0 ,  175 ,  240 ,  247 ,  255 ,  231 ,  255 ,  239 ,  255 ,  215 ,    2 ,  242 ,    0 ,  169 ,  240 ,  239 ,  255 ,  224 ,  255 ,  241 ,  255 
E: 000000.570006 49 30 df 4e 00 00 00 00 00 00 5c 08 73 0b d8 02 f8 00 b2 f0 fc ff ec ff f0 ff d3 02 f5 00 af f0 f7 ff e7 ff ef ff d7 02 f2 00 a9 f0 ef ff e0 ff f1 ff
# ReportID: 48 / 0xff010030:  226 ,   78 ,    0 ,    0 ,    0 ,    0 ,    0 ,    0 ,   92 ,   24 ,  115 ,   11 ,  224 ,    2 ,  254 ,    0 ,  187 ,  240 ,    6 ,    0 ,  239 ,  255 ,  241 ,  255 ,  222 ,    2 ,  254 ,    0 ,  187 ,  240 ,    6 ,    0 ,  241 ,  255 ,  240 ,  255 ,  219 ,    2 ,  254 ,    0 ,  185 ,  240 ,    1 ,    0 ,  239 ,  255 ,  241 ,  255 
E: 000000.584891 49 30 e2 4e 00 00 00 00 00 00 5c 18 73 0b e0 02 fe 00 bb f0 06 00 ef ff f1 ff de 02 fe 00 bb f0 06 00 f1 ff f0 ff db 02 fe 00 b9 f0 01 00 ef ff f1 ff
# ReportID: 48 / 0xff010030:  229 ,   78 ,    0 ,    0 ,    0 ,    0 ,    0 ,    0 ,   92 ,   24 ,  115 ,   11 ,  232 ,    2 ,  245 ,    0 ,  175 ,  240 ,    2 ,    0 ,  229 ,  255 ,  245 ,  255 ,  231 ,    2 ,  249 ,    0 ,  179 ,  240 ,    5 ,    0 ,  232 ,  255 ,  245 ,  255 ,  226 ,    2 ,  251 ,    0 ,  186 ,  240 ,    6 ,    0 ,  236 ,  255 ,  241 ,  255 
E: 000000.601022 49 30 e5 4e 00 00 00 00 00 00 5c 18 73 0b e8 02 f5 00 af f0 02 00 e5 ff f5 ff e7 02 f9 00 b3 f0 05 00 e8 ff f5 ff e2 02 fb 00 ba f0 06 00 ec ff f1 ff
# ReportID: 48 / 0xff010030:  232 ,   78 ,    0 ,    0 ,    0 ,    0 ,    0 ,    0 ,   93 ,   24 ,  115 ,   11 ,  212 ,    2 ,  236 ,    0 ,  171 ,  240 ,  247 ,  255 ,  221 ,  255 ,  248 ,  255 ,  213 ,    2 ,  238 ,    0 ,  176 ,  240 ,  250 ,  255 ,  224 ,  255 ,  246 ,  255 ,  221 ,    2 ,  239 ,    0 ,  180 ,  240 ,  252 ,  255 ,  226 ,  255 ,  245 ,  255 
E: 000000.614866 49 30 e8 4e 00 00 00 00 00 00 5d 18 73 0b d4 02 ec 00 ab f0 f7 ff dd ff f8 ff d5 02 ee 00 b0 f0 fa ff e0 ff f6 ff dd 02 ef 00 b4 f0 fc ff e2 ff f5 ff
# ReportID: 48 / 0xff010030:  235 ,   78 ,    0 ,    0 ,    0 ,    0 ,    0 ,    0 ,   92 ,   40 ,  115 ,   11 ,  220 ,    2 ,  242 ,    0 ,  152 ,  240 ,  226 ,  255 ,  220 ,  255 ,  248 ,  255 ,  224 ,    2 ,  239 ,    0 ,  155 ,  240 ,  234 ,  255 ,  220 ,  255 ,  250 ,  255 ,  220 ,    2 ,  236 ,    0 ,  160 ,  240 ,  241 ,  255 ,  220 ,  255 ,  250 ,  255 
E: 000000.629889 49 30 eb 4e 00 00 00 00 00 00 5c 28 73 0b dc 02 f2 00 98 f0 e2 ff dc ff f8 ff e0 02 ef 00 9b f0 ea ff dc ff fa ff dc 02 ec 00 a0 f0 f1 ff dc ff fa ff
# ReportID: 48 / 0xff010030:  238 ,   78 ,    0 ,    0 ,    0 ,    0 ,    0 ,    0 ,   92 ,   40 ,  115 ,   11 ,  206 ,    2 ,  250 ,    0 ,  159 ,  240 ,  221 ,  255 ,  220 ,  255 ,  244 ,  255 ,  205 ,    2 ,  247 ,    0 ,  154 ,  240 ,  219 ,  255 ,  219 ,  255 ,  244 ,  255 ,  212 ,    2 ,  245 ,    0 ,  152 ,  240 ,  221 ,  255 ,  220 ,  255 ,  245 ,  255 
E: 000000.644907 49 30 ee 4e 00 00 00 00 00 00 5c 28 73 0b ce 02 fa 00 9f f0 dd ff dc ff f4 ff cd 02 f7 00 9a f0 db ff db ff f4 ff d4 02 f5 00 98 f0 dd ff dc ff f5 ff
# ReportID: 48 / 0xff010030:  241 ,   78 ,    0 ,    0 ,    0 ,    0 ,    0 ,    0 ,   92 ,   40 ,  115 ,   11 ,  199 ,    2 ,  253 ,    0 ,  161 ,  240 ,  233 ,  255 ,  225 ,  255 ,  247 ,  255 ,  197 ,    2 ,    0 ,    1 ,  160 ,  240 ,  232 ,  255 ,  221 ,  255 ,  246 ,  255 ,  205 ,    2 ,  254 ,    0 ,  158 ,  240 ,  227 ,  255 ,  219 ,  255 ,  245 ,  255 
E: 000000.660833 49 30 f1 4e 00 00 00 00 00 00 5c 28 73 0b c7 02 fd 00 a1 f0 e9 ff e1 ff f7 ff c5 02 00 01 a0 f0 e8 ff dd ff f6 ff cd 02 fe 00 9e f0 e3 ff db ff f5 ff
# ReportID: 48 / 0xff010030:  244 ,   78 ,    0 ,    0 ,    0 ,    0 ,    0 ,    0 ,   93 ,   40 ,  115 ,   11 ,  192 ,    2 ,  239 ,    0 ,  162 ,  240 ,  242 ,  255 ,  228 ,  255 ,  247 ,  255 ,  192 ,    2 ,  247 ,    0 ,  161 ,  240 ,  239 ,  255 ,  227 ,  255 ,  246 ,  255 ,  196 ,    2 ,  251 ,    0 ,  163 ,  240 ,  234 ,  255 ,  225 ,  255 ,  247 ,  255 
E: 000000.675942 49 30 f4 4e 00 00 00 00 00 00 5d 28 73 0b c0 02 ef 00 a2 f0 f2 ff e4 ff f7 ff c0 02 f7 00 a1 f0 ef ff e3 ff f6 ff c4 02 fb 00 a3 f0 ea ff e1 ff f7 ff
# ReportID: 48 / 0xff010030:  247 ,   78 ,    0 ,    0 ,    0 ,    0 ,    0 ,    0 ,   92 ,   40 ,  115 ,   11 ,  185 ,    2 ,  228 ,    0 ,  156 ,  240 ,  244 ,  255 ,  233 ,  255 ,  247 ,  255 ,  189 ,    2 ,  231 ,    0 ,  160 ,  240 ,  245 ,  255 ,  233 ,  255 ,  248 ,  255 ,  190 ,    2 ,  232 ,    0 ,  159 ,  240 ,  245 ,  255 ,  231 ,  255 ,  248 ,  255 
E: 000000.689839 49 30 f7 4e 00 00 00 00 00 00 5c 28 73 0b b9 02 e4 00 9c f0 f4 ff e9 ff f7 ff bd 02 e7 00 a0 f0 f5 ff e9 ff f8 ff be 02 e8 00 9f f0 f5 ff e7 ff f8 ff
# ReportID: 48 / 0xff010030:  250 ,   78 ,    0 ,    0 ,    0 ,    0 ,    0 ,    0 ,   92 ,   40 ,  115 ,   11 ,  170 ,    2 ,  228 ,    0 ,  151 ,  240 ,  234 ,  255 ,  232 ,  255 ,  245 ,  255 ,  177 ,    2 ,  225 ,    0 ,  150 ,  240 ,  238 ,  255 ,  232 ,  255 ,  246 ,  255 ,  180 ,    2 ,  226 ,    0 ,  152 ,  240 ,  242 ,  255 ,  233 ,  255 ,  246 ,  255 
E: 000000.704848 49 30 fa 4e 00 00 00 00 00 00 5c 28 73 0b aa 02 e4 00 97 f0 ea ff e8 ff f5 ff b1 02 e1 00 96 f0 ee ff e8 ff f6 ff b4 02 e2 00 98 f0 f2 ff e9 ff f6 ff
# ReportID: 48 / 0xff010030:  253 ,   78 ,    0 ,    0 ,    0 ,    0 ,    0 ,    0 ,   93 ,   40 ,  115 ,   11 ,  168 ,    2 ,  253 ,    0 ,  167 ,  240 ,  229 ,  255 ,  237 ,  255 ,  241 ,  255 ,  167 ,    2 ,  243 ,    0 ,  160 ,  240 ,  230 ,  255 ,  235 ,  255 ,  242 ,  255 ,  167 ,    2 ,  232 ,    0 ,  155 ,  240 ,  231 ,  255 ,  233 ,  255 ,  244 ,  255 
E: 000000.720049 49 30 fd 4e 00 00 00 00 00 00 5d 28 73 0b a8 02 fd 00 a7 f0 e5 ff ed ff f1 ff a7 02 f3 00 a0 f0 e6 ff eb ff f2 ff a7 02 e8 00 9b f0 e7 ff e9 ff f4 ff
# ReportID: 48 / 0xff010030:    0 ,   78 ,    0 ,    0 ,    0 ,    0 ,    0 ,    0 ,   92 ,   24 ,  115 ,   11 ,  165 ,    2 ,   26 ,    1 ,  180 ,  240 ,  239 ,  255 ,  244 ,  255 ,  239 ,  255 ,  166 ,    2 ,   18 ,    1 ,  176 ,  240 ,  234 ,  255 ,  244 ,  255 ,  240 ,  255 ,  168 ,    2 ,    7 ,    1 ,  171 ,  240 ,  231 ,  255 ,  242 ,  255 ,  241 ,  255 
E: 000000.734920 49 30 00 4e 00 00 00 00 00 00 5c 18 73 0b a5 02 1a 01 b4 f0 ef ff f4 ff ef ff a6 02 12 01 b0 f0 ea ff f4 ff f0 ff a8 02 07 01 ab f0 e7 ff f2 ff f1 ff
# ReportID: 48 / 0xff010030:    3 ,   78 ,    0 ,    0 ,    0 ,    0 ,    0 ,    0 ,   92 ,   40 ,  115 ,   11 ,  177 ,    2 ,   46 ,    1 ,  184 ,  240 ,    1 ,    0 ,  244 ,  255 ,  236 ,  255 ,  176 ,    2 ,   43 ,    1 ,  190 ,  240 ,  253 ,  255 ,  245 ,  255 ,  238 ,  255 ,  170 ,    2 ,   36 ,    1 ,  188 ,  240 ,  245 ,  255 ,  245 ,  255 ,  237 ,  255 
E: 000000.749886 49 30 03 4e 00 00 00 00 00 00 5c 28 73 0b b1 02 2e 01 b8 f0 01 00 f4 ff ec ff b0 02 2b 01 be f0 fd ff f5 ff ee ff aa 02 24 01 bc f0 f5 ff f5 ff ed ff
# ReportID: 48 / 0xff010030:    6 ,   78 ,    0 ,    0 ,    0 ,    0 ,    0 ,    0 ,   92 ,   24 ,  115 ,   11 ,  197 ,    2 ,   30 ,    1 ,  170 ,  240 ,    2 ,    0 ,  230 ,  255 ,  239 ,  255 ,  187 ,    2 ,   39 ,    1 ,  181 ,  240 ,    4 ,    0 ,  235 ,  255 ,  238 ,  255 ,  180 ,    2 ,   43 ,    1 ,  184 ,  240 ,    3 ,    0 ,  239 ,  255 ,  236 ,  255 
E: 000000.765157 49 30 06 4e 00 00 00 00 00 00 5c 18 73 0b c5 02 1e 01 aa f0 02 00 e6 ff ef ff bb 02 27 01 b5 f0 04 00 eb ff ee ff b4 02 2b 01 b8 f0 03 00 ef ff ec ff
# ReportID: 48 / 0xff010030:    9 ,   78 ,    0 ,    0 ,    0 ,    0 ,    0 ,    0 ,   93 ,   24 ,  115 ,   11 ,  202 ,    2 ,   11 ,    1 ,  152 ,  240 ,  244 ,  255 ,  220 ,  255 ,  239 ,  255 ,  201 ,    2 ,   18 ,    1 ,  154 ,  240 ,  250 ,  255 ,  224 ,  255 ,  239 ,  255 ,  200 ,    2 ,   24 ,    1 ,  160 ,  240 ,  254 ,  255 ,  226 ,  255 ,  239 ,  255 
E: 000000.779885 49 30 09 4e 00 00 00 00 00 00 5d 18 73 0b ca 02 0b 01 98 f0 f4 ff dc ff ef ff c9 02 12 01 9a f0 fa ff e0 ff ef ff c8 02 18 01 a0 f0 fe ff e2 ff ef ff
# ReportID: 48 / 0xff010030:   12 ,   78 ,    0 ,    0 ,    0 ,    0 ,    0 ,    0 ,   92 ,   24 ,  115 ,   11 ,  214 ,    2 ,   15 ,    1 ,  135 ,  240 ,  233 ,  255 ,  221 ,  255 ,  239 ,  255 ,  212 ,    2 ,   13 ,    1 ,  140 ,  240 ,  235 ,  255 ,  219 ,  255 ,  238 ,  255 ,  206 ,    2 ,   12 ,    1 ,  146 ,  240 ,  238 ,  255 ,  219 ,  255 ,  239 ,  255 
E: 000000.794899 49 30 0c 4e 00 00 00 00 00 00 5c 18 73 0b d6 02 0f 01 87 f0 e9 ff dd ff ef ff d4 02 0d 01 8c f0 eb ff db ff ee ff ce 02 0c 01 92 f0 ee ff db ff ef ff
# ReportID: 48 / 0xff010030:   15 ,   78 ,    0 ,    0 ,    0 ,    0 ,    0 ,    0 ,   93 ,   40 ,  115 ,   11 ,  209 ,    2 ,   22 ,    1 ,  132 ,  240 ,  234 ,  255 ,  233 ,  255 ,  238 ,  255 ,  210 ,    2 ,   19 ,    1 ,  129 ,  240 ,  232 ,  255 ,  228 ,  255 ,  237 ,  255 ,  214 ,    2 ,   17 ,    1 ,  130 ,  240 ,  232 ,  255 ,  224 ,  255 ,  238 ,  255 
E: 000000.809997 49 30 0f 4e 00 00 00 00 00 00 5d 28 73 0b d1 02 16 01 84 f0 ea ff e9 ff ee ff d2 02 13 01 81 f0 e8 ff e4 ff ed ff d6 02 11 01 82 f0 e8 ff e0 ff ee ff
# ReportID: 48 / 0xff010030:   18 ,   78 ,    0 ,    0 ,    0 ,    0 ,    0 ,    0 ,   92 ,   40 ,  115 ,   11 ,  204 ,    2 ,   33 ,    1 ,  154 ,  240 ,  247 ,  255 ,  242 ,  255 ,  237 ,  255 ,  205 ,    2 ,   30 ,    1 ,  148 ,  240 ,  240 ,  255 ,  240 ,  255 ,  238 ,  255 ,  211 ,    2 ,   30 ,    1 ,  141 ,  240 ,  236 ,  255 ,  236 ,  255 ,  238 ,  255 
E: 000000.824971 49 30 12 4e 00 00 00 00 00 00 5c 28 73 0b cc 02 21 01 9a f0 f7 ff f2 ff ed ff cd 02 1e 01 94 f0 f0 ff f0 ff ee ff d3 02 1e 01 8d f0 ec ff ec ff ee ff
# ReportID: 48 / 0xff010030:   21 ,   78 ,    0 ,    0 ,    0 ,    0 ,    0 ,    0 ,   93 ,   24 ,  115 ,   11 ,  205 ,    2 ,   36 ,    1 ,  164 ,  240 ,   11 ,    0 ,  244 ,  255 ,  238 ,  255 ,  205 ,    2 ,   36 ,    1 ,  164 ,  240 ,    7 ,    0 ,  246 ,  255 ,  237 ,  255 ,  202 ,    2 ,   34 ,    1 ,  160 ,  240 ,    1 ,    0 ,  243 ,  255 ,  237 ,  255 
E: 000000.840014 49 30 15 4e 00 00 00 00 00 00 5d 18 73 0b cd 02 24 01 a4 f0 0b 00 f4 ff ee ff cd 02 24 01 a4 f0 07 00 f6 ff ed ff ca 02 22 01 a0 f0 01 00 f3 ff ed ff
# ReportID: 48 / 0xff010030:   24 ,   78 ,    0 ,    0 ,    0 ,    0 ,    0 ,    0 ,   92 ,   24 ,  115 ,   11 ,  210 ,    2 ,   18 ,    1 ,  167 ,  240 ,   13 ,    0 ,  236 ,  255 ,  238 ,  255 ,  208 ,    2 ,   27 ,    1 ,  163 ,  240 ,   15 ,    0 ,  240 ,  255 ,  239 ,  255 ,  202 ,    2 ,   34 ,    1 ,  163 ,  240 ,   13 ,    0 ,  244 ,  255 ,  238 ,  255 
E: 000000.854908 49 30 18 4e 00 00 00 00 00 00 5c 18 73 0b d2 02 12 01 a7 f0 0d 00 ec ff ee ff d0 02 1b 01 a3 f0 0f 00 f0 ff ef ff ca 02 22 01 a3 f0 0d 00 f4 ff ee ff
# ReportID: 48 / 0xff010030:   27 ,   78 ,    0 ,    0 ,    0 ,    0 ,    0 ,    0 ,   92 ,   40 ,  115 ,   11 ,  201 ,    2 ,  252 ,    0 ,  162 ,  240 ,  255 ,  255 ,  220 ,  255 ,  236 ,  255 ,  205 ,    2 ,    2 ,    1 ,  170 ,  240 ,    5 ,    0 ,  226 ,  255 ,  235 ,  255 ,  210 ,    2 ,   10 ,    1 ,  172 ,  240 ,    9 ,    0 ,  232 ,  255 ,  236 ,  255 
E: 000000.870034 49 30 1b 4e 00 00 00 00 00 00 5c 28 73 0b c9 02 fc 00 a2 f0 ff ff dc ff ec ff cd 02 02 01 aa f0 05 00 e2 ff eb ff d2 02 0a 01 ac f0 09 00 e8 ff ec ff
# ReportID: 48 / 0xff010030:   30 ,   78 ,    0 ,    0 ,    0 ,    0 ,    0 ,    0 ,   92 ,   24 ,  115 ,   11 ,  198 ,    2 ,  240 ,    0 ,  164 ,  240 ,  239 ,  255 ,  213 ,  255 ,  234 ,  255 ,  198 ,    2 ,  245 ,    0 ,  161 ,  240 ,  244 ,  255 ,  214 ,  255 ,  235 ,  255 ,  200 ,    2 ,  247 ,    0 ,  160 ,  240 ,  249 ,  255 ,  217 ,  255 ,  236 ,  255 
E: 000000.884975 49 30 1e 4e 00 00 00 00 00 00 5c 18 73 0b c6 02 f0 00 a4 f0 ef ff d5 ff ea ff c6 02 f5 00 a1 f0 f4 ff d6 ff eb ff c8 02 f7 00 a0 f0 f9 ff d9 ff ec ff
# ReportID: 48 / 0xff010030:   33 ,   78 ,    0 ,    0 ,    0 ,    0 ,    0 ,    0 ,   93 ,   24 ,  115 ,   11 ,  194 ,    2 ,  239 ,    0 ,  173 ,  240 ,  235 ,  255 ,  222 ,  255 ,  232 ,  255 ,  194 ,    2 ,  236 ,    0 ,  171 ,  240 ,  235 ,  255 ,  217 ,  255 ,  233 ,  255 ,  196 ,    2 ,  235 ,    0 ,  169 ,  240 ,  236 ,  255 ,  214 ,  255 ,  234 ,  255 
E: 000000.899982 49 30 21 4e 00 00 00 00 00 00 5d 18 73 0b c2 02 ef 00 ad f0 eb ff de ff e8 ff c2 02 ec 00 ab f0 eb ff d9 ff e9 ff c4 02 eb 00 a9 f0 ec ff d6 ff ea ff
# ReportID: 48 / 0xff010030:   36 ,   78 ,    0 ,    0 ,    0 ,    0 ,    0 ,    0 ,   93 ,   40 ,  115 ,   11 ,  197 ,    2 ,  238 ,    0 ,  170 ,  240 ,  246 ,  255 ,  243 ,  255 ,  230 ,  255 ,  194 ,    2 ,  239 ,    0 ,  172 ,  240 ,  244 ,  255 ,  235 ,  255 ,  231 ,  255 ,  193 ,    2 ,  236 ,    0 ,  178 ,  240 ,  239 ,  255 ,  229 ,  255 ,  233 ,  255 
E: 000000.915314 49 30 24 4e 00 00 00 00 00 00 5d 28 73 0b c5 02 ee 00 aa f0 f6 ff f3 ff e6 ff c2 02 ef 00 ac f0 f4 ff eb ff e7 ff c1 02 ec 00 b2 f0 ef ff e5 ff e9 ff
# ReportID: 48 / 0xff010030:   39 ,   78 ,    0 ,    0 ,    0 ,    0 ,    0 ,    0 ,   93 ,   24 ,  115 ,   11 ,  186 ,    2 ,  241 ,    0 ,  174 ,  240 ,  251 ,  255 ,    0 ,    0 ,  226 ,  255 ,  174 ,    2 ,  242 ,    0 ,  168 ,  240 ,  250 ,  255 ,  252 ,  255 ,  227 ,  255 ,  188 ,    2 ,  241 ,    0 ,  166 ,  240 ,  249 ,  255 ,  248 ,  255 ,  230 ,  255 
E: 000000.929935 49 30 27 4e 00 00 00 00 00 00 5d 18 73 0b ba 02 f1 00 ae f0 fb ff 00 00 e2 ff ae 02 f2 00 a8 f0 fa ff fc ff e3 ff bc 02 f1 00 a6 f0 f9 ff f8 ff e6 ff
# ReportID: 48 / 0xff010030:   42 ,   78 ,    0 ,    0 ,    0 ,    0 ,    0 ,    0 ,   92 ,   40 ,  115 ,   11 ,  228 ,    2 ,    0 ,    1 ,  161 ,  240 ,    5 ,    0 ,    6 ,    0 ,  222 ,  255 ,  217 ,    2 ,  254 ,    0 ,  161 ,  240 ,    8 ,    0 ,    9 ,    0 ,  223 ,  255 ,  204 ,    2 ,  246 ,    0 ,  167 ,  240 ,    5 ,    0 ,    6 ,    0 ,  224 ,  255 
E: 000000.944908 49 30 2a 4e 00 00 00 00 00 00 5c 28 73 0b e4 02 00 01 a1 f0 05 00 06 00 de ff d9 02 fe 00 a1 f0 08 00 09 00 df ff cc 02 f6 00 a7 f0 05 00 06 00 e0 ff
# ReportID: 48 / 0xff010030:   45 ,   78 ,    0 ,    0 ,    0 ,    0 ,    0 ,    0 ,   93 ,   56 ,  115 ,   11 ,  252 ,    2 ,  250 ,    0 ,  156 ,  240 ,  247 ,  255 ,  239 ,  255 ,  228 ,  255 ,  241 ,    2 ,  253 ,    0 ,  155 ,  240 ,  249 ,  255 ,  247 ,  255 ,  227 ,  255 ,  233 ,    2 ,  254 ,    0 ,  157 ,  240 ,    1 ,    0 ,    2 ,    0 ,  225 ,  255 
E: 000000.959810 49 30 2d 4e 00 00 00 00 00 00 5d 38 73 0b fc 02 fa 00 9c f0 f7 ff ef ff e4 ff f1 02 fd 00 9b f0 f9 ff f7 ff e3 ff e9 02 fe 00 9d f0 01 00 02 00 e1 ff
# ReportID: 48 / 0xff010030:   48 ,   78 ,    0 ,    0 ,    0 ,    0 ,    0 ,    0 ,   92 ,   40 ,  115 ,   11 ,    6 ,    3 ,  239 ,    0 ,  152 ,  240 ,  255 ,  255 ,  213 ,  255 ,  230 ,  255 ,    8 ,    3 ,  242 ,    0 ,  158 ,  240 ,  255 ,  255 ,  223 ,  255 ,  228 ,  255 ,    8 ,    3 ,  243 ,    0 ,  163 ,  240 ,  251 ,  255 ,  231 ,  255 ,  228 ,  255 
E: 000000.974883 49 30 30 4e 00 00 00 00 00 00 5c 28 73 0b 06 03 ef 00 98 f0 ff ff d5 ff e6 ff 08 03 f2 00 9e f0 ff ff df ff e4 ff 08 03 f3 00 a3 f0 fb ff e7 ff e4 ff
# ReportID: 48 / 0xff010030:   51 ,   78 ,    0 ,    0 ,    0 ,    0 ,    0 ,    0 ,   92 ,   40 ,  115 ,   11 ,  252 ,    2 ,  240 ,    0 ,  158 ,  240 ,  244 ,  255 ,  208 ,  255 ,  235 ,  255 ,  254 ,    2 ,  239 ,    0 ,  154 ,  240 ,  247 ,  255 ,  205 ,  255 ,  234 ,  255 ,    5 ,    3 ,  238 ,    0 ,  152 ,  240 ,  252 ,  255 ,  207 ,  255 ,  232 ,  255 
E: 000000.991244 49 30 33 4e 00 00 00 00 00 00 5c 28 73 0b fc 02 f0 00 9e f0 f4 ff d0 ff eb ff fe 02 ef 00 9a f0 f7 ff cd ff ea ff 05 03 ee 00 98 f0 fc ff cf ff e8 ff
# ReportID: 48 / 0xff010030:   54 ,   78 ,    0 ,    0 ,    0 ,    0 ,    0 ,    0 ,   91 ,   40 ,  115 ,   11 ,  231 ,    2 ,  244 ,    0 ,  152 ,  240 ,  242 ,  255 ,  229 ,  255 ,  242 ,  255 ,  237 ,    2 ,  243 ,    0 ,  155 ,  240 ,  241 ,  255 ,  221 ,  255 ,  240 ,  255 ,  245 ,    2 ,  243 ,    0 ,  157 ,  240 ,  241 ,  255 ,  213 ,  255 ,  237 ,  255 
E: 000001.004834 49 30 36 4e 00 00 00 00 00 00 5b 28 73 0b e7 02 f4 00 98 f0 f2 ff e5 ff f2 ff ed 02 f3 00 9b f0 f1 ff dd ff f0 ff f5 02 f3 00 9d f0 f1 ff d5 ff ed ff
# ReportID: 48 / 0xff010030:   57 ,   78 ,    0 ,    0 ,    0 ,    0 ,    0 ,    0 ,   92 ,   24 ,  115 ,   11 ,  232 ,    2 ,    0 ,    1 ,  157 ,  240 ,  253 ,  255 ,  243 ,  255 ,  242 ,  255 ,  231 ,    2 ,  251 ,    0 ,  154 ,  240 ,  250 ,  255 ,  243 ,  255 ,  243 ,  255 ,  230 ,    2 ,  246 ,    0 ,  149 ,  240 ,  246 ,  255 ,  236 ,  255 ,  242 ,  255 
E: 000001.020866 49 30 39 4e 00 00 00 00 00 00 5c 18 73 0b e8 02 00 01 9d f0 fd ff f3 ff f2 ff e7 02 fb 00 9a f0 fa ff f3 ff f3 ff e6 02 f6 00 95 f0 f6 ff ec ff f2 ff
# ReportID: 48 / 0xff010030:   60 ,   78 ,    0 ,    0 ,    0 ,    0 ,    0 ,    0 ,   91 ,   24 ,  115 ,   11 ,  237 ,    2 ,    3 ,    1 ,  152 ,  240 ,  255 ,  255 ,  232 ,  255 ,  247 ,  255 ,  235 ,    2 ,    1 ,    1 ,  157 ,  240 ,  255 ,  255 ,  238 ,  255 ,  246 ,  255 ,  227 ,    2 ,    1 ,    1 ,  158 ,  240 ,  254 ,  255 ,  242 ,  255 ,  244 ,  255 
E: 000001.034973 49 30 3c 4e 00 00 00 00 00 00 5b 18 73 0b ed 02 03 01 98 f0 ff ff e8 ff f7 ff eb 02 01 01 9d f0 ff ff ee ff f6 ff e3 02 01 01 9e f0 fe ff f2 ff f4 ff
# ReportID: 48 / 0xff010030:   63 ,   78 ,    0 ,    0 ,    0 ,    0 ,    0 ,    0 ,   92 ,   24 ,  115 ,   11 ,  217 ,    2 ,   10 ,    1 ,  157 ,  240 ,  240 ,  255 ,  217 ,  255 ,  242 ,  255 ,  224 ,    2 ,    6 ,    1 ,  152 ,  240 ,  243 ,  255 ,  219 ,  255 ,  243 ,  255 ,  231 ,    2 ,    1 ,    1 ,  152 ,  240 ,  249 ,  255 ,  224 ,  255 ,  244 ,  255 
E: 000001.050872 49 30 3f 4e 00 00 00 00 00 00 5c 18 73 0b d9 02 0a 01 9d f0 f0 ff d9 ff f2 ff e0 02 06 01 98 f0 f3 ff db ff f3 ff e7 02 01 01 98 f0 f9 ff e0 ff f4 ff
# ReportID: 48 / 0xff010030:   66 ,   78 ,    0 ,    0 ,    0 ,    0 ,    0 ,    0 ,   92 ,   40 ,  115 ,   11 ,  206 ,    2 ,   13 ,    1 ,  165 ,  240 ,  232 ,  255 ,  218 ,  255 ,  241 ,  255 ,  209 ,    2 ,   11 ,    1 ,  164 ,  240 ,  232 ,  255 ,  216 ,  255 ,  241 ,  255 ,  210 ,    2 ,   11 ,    1 ,  157 ,  240 ,  237 ,  255 ,  215 ,  255 ,  242 ,  255 
E: 000001.065200 49 30 42 4e 00 00 00 00 00 00 5c 28 73 0b ce 02 0d 01 a5 f0 e8 ff da ff f1 ff d1 02 0b 01 a4 f0 e8 ff d8 ff f1 ff d2 02 0b 01 9d f0 ed ff d7 ff f2 ff
# ReportID: 48 / 0xff010030:   69 ,   78 ,    0 ,    0 ,    0 ,    0 ,    0 ,    0 ,   91 ,   24 ,  115 ,   11 ,  189 ,    2 ,    8 ,    1 ,  185 ,  240 ,  238 ,  255 ,  228 ,  255 ,  250 ,  255 ,  194 ,    2 ,   14 ,    1 ,  174 ,  240 ,  232 ,  255 ,  223 ,  255 ,  247 ,  255 ,  196 ,    2 ,   15 ,    1 ,  166 ,  240 ,  231 ,  255 ,  220 ,  255 ,  242 ,  255 
E: 000001.079888 49 30 45 4e 00 00 00 00 00 00 5b 18 73 0b bd 02 08 01 b9 f0 ee ff e4 ff fa ff c2 02 0e 01 ae f0 e8 ff df ff f7 ff c4 02 0f 01 a6 f0 e7 ff dc ff f2 ff
# ReportID: 48 / 0xff010030:   72 ,   78 ,    0 ,    0 ,    0 ,    0 ,    0 ,    0 ,   91 ,   24 ,  115 ,   11 ,  194 ,    2 ,    2 ,    1 ,  204 ,  240 ,    5 ,    0 ,  238 ,  255 ,  244 ,  255 ,  185 ,    2 ,    8 ,    1 ,  204 ,  240 ,    0 ,    0 ,  237 ,  255 ,  245 ,  255 ,  183 ,    2 ,    7 ,    1 ,  197 ,  240 ,  249 ,  255 ,  234 ,  255 ,  249 ,  255 
E: 000001.094929 49 30 48 4e 00 00 00 00 00 00 5b 18 73 0b c2 02 02 01 cc f0 05 00 ee ff f4 ff b9 02 08 01 cc f0 00 00 ed ff f5 ff b7 02 07 01 c5 f0 f9 ff ea ff f9 ff
# ReportID: 48 / 0xff010030:   75 ,   78 ,    0 ,    0 ,    0 ,    0 ,    0 ,    0 ,   92 ,   24 ,  115 ,   11 ,  200 ,    2 ,    1 ,    1 ,  198 ,  240 ,   21 ,    0 ,  239 ,  255 ,  237 ,  255 ,  211 ,    2 ,  254 ,    0 ,  200 ,  240 ,   18 ,    0 ,  240 ,  255 ,  242 ,  255 ,  203 ,    2 ,  251 ,    0 ,  204 ,  240 ,   12 ,    0 ,  240 ,  255 ,  243 ,  255 
E: 000001.109962 49 30 4b 4e 00 00 00 00 00 00 5c 18 73 0b c8 02 01 01 c6 f0 15 00 ef ff ed ff d3 02 fe 00 c8 f0 12 00 f0 ff f2 ff cb 02 fb 00 cc f0 0c 00 f0 ff f3 ff
# ReportID: 48 / 0xff010030:   78 ,   78 ,    0 ,    0 ,    0 ,    0 ,    0 ,    0 ,   92 ,   40 ,  115 ,   11 ,  185 ,    2 ,   42 ,    1 ,  146 ,  240 ,   25 ,    0 ,  246 ,  255 ,  228 ,  255 ,  187 ,    2 ,   30 ,    1 ,  161 ,  240 ,   28 ,    0 ,  243 ,  255 ,  232 ,  255 ,  187 ,    2 ,   16 ,    1 ,  180 ,  240 ,   25 ,    0 ,  240 ,  255 ,  234 ,  255 
E: 000001.124888 49 30 4e 4e 00 00 00 00 00 00 5c 28 73 0b b9 02 2a 01 92 f0 19 00 f6 ff e4 ff bb 02 1e 01 a1 f0 1c 00 f3 ff e8 ff bb 02 10 01 b4 f0 19 00 f0 ff ea ff
# ReportID: 48 / 0xff010030:   81 ,   78 ,    0 ,    0 ,    0 ,    0 ,    0 ,    0 ,   93 ,   40 ,  115 ,   11 ,  188 ,    2 ,   40 ,    1 ,  128 ,  240 ,   29 ,    0 ,  238 ,  255 ,  211 ,  255 ,  179 ,    2 ,   36 ,    1 ,  126 ,  240 ,   25 ,    0 ,  247 ,  255 ,  214 ,  255 ,  183 ,    2 ,   44 ,    1 ,  130 ,  240 ,   23 ,    0 ,  248 ,  255 ,  222 ,  255 
E: 000001.139940 49 30 51 4e 00 00 00 00 00 00 5d 28 73 0b bc 02 28 01 80 f0 1d 00 ee ff d3 ff b3 02 24 01 7e f0 19 00 f7 ff d6 ff b7 02 2c 01 82 f0 17 00 f8 ff de ff
# ReportID: 48 / 0xff010030:   84 ,   78 ,    0 ,    0 ,    0 ,    0 ,    0 ,    0 ,   92 ,   24 ,  115 ,   11 ,  212 ,    2 ,   37 ,    1 ,  144 ,  240 ,   21 ,    0 ,  127 ,  255 ,  226 ,  255 ,  220 ,    2 ,   38 ,    1 ,  148 ,  240 ,   26 ,    0 ,  172 ,  255 ,  224 ,  255 ,  206 ,    2 ,   40 ,    1 ,  143 ,  240 ,   30 ,    0 ,  216 ,  255 ,  215 ,  255 
E: 000001.154976 49 30 54 4e 00 00 00 00 00 00 5c 18 73 0b d4 02 25 01 90 f0 15 00 7f ff e2 ff dc 02 26 01 94 f0 1a 00 ac ff e0 ff ce 02 28 01 8f f0 1e 00 d8 ff d7 ff
# ReportID: 48 / 0xff010030:   87 ,   78 ,    0 ,    0 ,    0 ,    0 ,    0 ,    0 ,   91 ,   24 ,  115 ,   11 ,  187 ,    2 ,   21 ,    1 ,  163 ,  240 ,  235 ,  255 ,  246 ,  254 ,  241 ,  255 ,  185 ,    2 ,   26 ,    1 ,  158 ,  240 ,  252 ,  255 ,   37 ,  255 ,  234 ,  255 ,  195 ,    2 ,   31 ,    1 ,  151 ,  240 ,   10 ,    0 ,   81 ,  255 ,  229 ,  255 
E: 000001.169959 49 30 57 4e 00 00 00 00 00 00 5b 18 73 0b bb 02 15 01 a3 f0 eb ff f6 fe f1 ff b9 02 1a 01 9e f0 fc ff 25 ff ea ff c3 02 1f 01 97 f0 0a 00 51 ff e5 ff
# ReportID: 48 / 0xff010030:   90 ,   78 ,    0 ,    0 ,    0 ,    0 ,    0 ,    0 ,   92 ,   40 ,  115 ,   11 ,  172 ,    2 ,    9 ,    1 ,  156 ,  240 ,  196 ,  255 ,  231 ,  254 ,  254 ,  255 ,  184 ,    2 ,   13 ,    1 ,  160 ,  240 ,  205 ,  255 ,  218 ,  254 ,  252 ,  255 ,  193 ,    2 ,   14 ,    1 ,  168 ,  240 ,  220 ,  255 ,  224 ,  254 ,  248 ,  255 
E: 000001.184934 49 30 5a 4e 00 00 00 00 00 00 5c 28 73 0b ac 02 09 01 9c f0 c4 ff e7 fe fe ff b8 02 0d 01 a0 f0 cd ff da fe fc ff c1 02 0e 01 a8 f0 dc ff e0 fe f8 ff
# ReportID: 48 / 0xff010030:   93 ,   78 ,    0 ,    0 ,    0 ,    0 ,    0 ,    0 ,   92 ,   40 ,  115 ,   11 ,  131 ,    2 ,    2 ,    1 ,  175 ,  240 ,  200 ,  255 ,  111 ,  255 ,  242 ,  255 ,  146 ,    2 ,    3 ,    1 ,  164 ,  240 ,  191 ,  255 ,   59 ,  255 ,  249 ,  255 ,  161 ,    2 ,    4 ,    1 ,  154 ,  240 ,  189 ,  255 ,   14 ,  255 ,  253 ,  255 
E: 000001.200008 49 30 5d 4e 00 00 00 00 00 00 5c 28 73 0b 83 02 02 01 af f0 c8 ff 6f ff f2 ff 92 02 03 01 a4 f0 bf ff 3b ff f9 ff a1 02 04 01 9a f0 bd ff 0e ff fd ff
# ReportID: 48 / 0xff010030:   96 ,   78 ,    0 ,    0 ,    0 ,    0 ,    0 ,    0 ,   92 ,   40 ,  115 ,   11 ,   83 ,    2 ,   38 ,    1 ,  181 ,  240 ,   20 ,    0 ,   18 ,    0 ,  229 ,  255 ,   95 ,    2 ,   24 ,    1 ,  188 ,  240 ,  251 ,  255 ,  231 ,  255 ,  228 ,  255 ,  114 ,    2 ,    8 ,    1 ,  185 ,  240 ,  218 ,  255 ,  166 ,  255 ,  234 ,  255 
E: 000001.215850 49 30 60 4e 00 00 00 00 00 00 5c 28 73 0b 53 02 26 01 b5 f0 14 00 12 00 e5 ff 5f 02 18 01 bc f0 fb ff e7 ff e4 ff 72 02 08 01 b9 f0 da ff a6 ff ea ff
# ReportID: 48 / 0xff010030:   99 ,   78 ,    0 ,    0 ,    0 ,    0 ,    0 ,    0 ,   92 ,    8 ,  115 ,   11 ,  116 ,    2 ,   55 ,    1 ,  149 ,  240 ,   72 ,    0 ,   64 ,    0 ,  245 ,  255 ,   95 ,    2 ,   53 ,    1 ,  162 ,  240 ,   56 ,    0 ,   60 ,    0 ,  240 ,  255 ,   83 ,    2 ,   51 ,    1 ,  175 ,  240 ,   40 ,    0 ,   46 ,    0 ,  234 ,  255 
E: 000001.229976 49 30 63 4e 00 00 00 00 00 00 5c 08 73 0b 74 02 37 01 95 f0 48 00 40 00 f5 ff 5f 02 35 01 a2 f0 38 00 3c 00 f0 ff 53 02 33 01 af f0 28 00 2e 00 ea ff
# ReportID: 48 / 0xff010030:  102 ,   78 ,    0 ,    0 ,    0 ,    0 ,    0 ,    0 ,   92 ,   40 ,  115 ,   11 ,  194 ,    2 ,   15 ,    1 ,   89 ,  240 ,   78 ,    0 ,   36 ,    0 ,  246 ,  255 ,  174 ,    2 ,   33 ,    1 ,  106 ,  240 ,   82 ,    0 ,   49 ,    0 ,  244 ,  255 ,  144 ,    2 ,   47 ,    1 ,  128 ,  240 ,   80 ,    0 ,   58 ,    0 ,  246 ,  255 
E: 000001.244883 49 30 66 4e 00 00 00 00 00 00 5c 28 73 0b c2 02 0f 01 59 f0 4e 00 24 00 f6 ff ae 02 21 01 6a f0 52 00 31 00 f4 ff 90 02 2f 01 80 f0 50 00 3a 00 f6 ff
# ReportID: 48 / 0xff010030:  105 ,   78 ,    0 ,    0 ,    0 ,    0 ,    0 ,    0 ,   92 ,   24 ,  115 ,   11 ,  216 ,    2 ,  217 ,    0 ,   97 ,  240 ,   19 ,    0 ,  247 ,  255 ,  244 ,  255 ,  223 ,    2 ,  230 ,    0 ,   80 ,  240 ,   38 ,    0 ,    7 ,    0 ,  246 ,  255 ,  213 ,    2 ,  251 ,    0 ,   74 ,  240 ,   64 ,    0 ,   24 ,    0 ,  247 ,  255 
E: 000001.260863 49 30 69 4e 00 00 00 00 00 00 5c 18 73 0b d8 02 d9 00 61 f0 13 00 f7 ff f4 ff df 02 e6 00 50 f0 26 00 07 00 f6 ff d5 02 fb 00 4a f0 40 00 18 00 f7 ff
# ReportID: 48 / 0xff010030:  108 ,   78 ,    0 ,    0 ,    0 ,    0 ,    0 ,    0 ,   93 ,   24 ,  115 ,   11 ,  205 ,    2 ,  215 ,    0 ,  203 ,  240 ,  229 ,  255 ,  200 ,  255 ,  230 ,  255 ,  216 ,    2 ,  213 ,    0 ,  162 ,  240 ,  235 ,  255 ,  212 ,  255 ,  232 ,  255 ,  222 ,    2 ,  214 ,    0 ,  121 ,  240 ,    2 ,    0 ,  230 ,  255 ,  237 ,  255 
E: 000001.278180 49 30 6c 4e 00 00 00 00 00 00 5d 18 73 0b cd 02 d7 00 cb f0 e5 ff c8 ff e6 ff d8 02 d5 00 a2 f0 eb ff d4 ff e8 ff de 02 d6 00 79 f0 02 00 e6 ff ed ff
# ReportID: 48 / 0xff010030:  111 ,   78 ,    0 ,    0 ,    0 ,    0 ,    0 ,    0 ,   92 ,   40 ,  115 ,   11 ,  171 ,    2 ,    2 ,    1 ,   13 ,  241 ,   24 ,    0 ,  191 ,  255 ,  225 ,  255 ,  180 ,    2 ,  241 ,    0 ,   13 ,  241 ,  253 ,  255 ,  187 ,  255 ,  225 ,  255 ,  195 ,    2 ,  225 ,    0 ,  241 ,  240 ,  235 ,  255 ,  191 ,  255 ,  226 ,  255 
E: 000001.291939 49 30 6f 4e 00 00 00 00 00 00 5c 28 73 0b ab 02 02 01 0d f1 18 00 bf ff e1 ff b4 02 f1 00 0d f1 fd ff bb ff e1 ff c3 02 e1 00 f1 f0 eb ff bf ff e2 ff
# ReportID: 48 / 0xff010030:  114 ,   78 ,    0 ,    0 ,    0 ,    0 ,    0 ,    0 ,   92 ,   40 ,  115 ,   11 ,  209 ,    2 ,  230 ,    0 ,  210 ,  240 ,   98 ,    0 ,  224 ,  255 ,  232 ,  255 ,  192 ,    2 ,  253 ,    0 ,  252 ,  240 ,   74 ,    0 ,  212 ,  255 ,  233 ,  255 ,  170 ,    2 ,    8 ,    1 ,    6 ,  241 ,   53 ,    0 ,  201 ,  255 ,  229 ,  255 
E: 000001.304974 49 30 72 4e 00 00 00 00 00 00 5c 28 73 0b d1 02 e6 00 d2 f0 62 00 e0 ff e8 ff c0 02 fd 00 fc f0 4a 00 d4 ff e9 ff aa 02 08 01 06 f1 35 00 c9 ff e5 ff
# ReportID: 48 / 0xff010030:  117 ,   78 ,    0 ,    0 ,    0 ,    0 ,    0 ,    0 ,   92 ,    8 ,  115 ,   11 ,  188 ,    2 ,  181 ,    0 ,   48 ,  240 ,   96 ,    0 ,    0 ,    0 ,  220 ,  255 ,  209 ,    2 ,  187 ,    0 ,   93 ,  240 ,  118 ,    0 ,  249 ,  255 ,  221 ,  255 ,  221 ,    2 ,  206 ,    0 ,  158 ,  240 ,  115 ,    0 ,  236 ,  255 ,  227 ,  255 
E: 000001.319932 49 30 75 4e 00 00 00 00 00 00 5c 08 73 0b bc 02 b5 00 30 f0 60 00 00 00 dc ff d1 02 bb 00 5d f0 76 00 f9 ff dd ff dd 02 ce 00 9e f0 73 00 ec ff e3 ff
# ReportID: 48 / 0xff010030:  120 ,   78 ,    0 ,    0 ,    0 ,    0 ,    0 ,    0 ,   92 ,   40 ,  115 ,   11 ,  206 ,    2 ,  206 ,    0 ,  120 ,  240 ,  230 ,  255 ,  247 ,  255 ,  242 ,  255 ,  193 ,    2 ,  194 ,    0 ,   85 ,  240 ,   11 ,    0 ,  255 ,  255 ,  238 ,  255 ,  182 ,    2 ,  185 ,    0 ,   45 ,  240 ,   55 ,    0 ,    3 ,    0 ,  229 ,  255 
E: 000001.335307 49 30 78 4e 00 00 00 00 00 00 5c 28 73 0b ce 02 ce 00 78 f0 e6 ff f7 ff f2 ff c1 02 c2 00 55 f0 0b 00 ff ff ee ff b6 02 b9 00 2d f0 37 00 03 00 e5 ff
# ReportID: 48 / 0xff010030:  123 ,   78 ,    0 ,    0 ,    0 ,    0 ,    0 ,    0 ,   92 ,   40 ,  115 ,   11 ,  204 ,    2 ,  242 ,    0 ,  152 ,  240 ,  196 ,  255 ,  205 ,  255 ,  233 ,  255 ,  212 ,    2 ,  236 ,    0 ,  149 ,  240 ,  205 ,  255 ,  219 ,  255 ,  238 ,  255 ,  213 ,    2 ,  222 ,    0 ,  143 ,  240 ,  215 ,  255 ,  235 ,  255 ,  241 ,  255 
E: 000001.349919 49 30 7b 4e 00 00 00 00 00 00 5c 28 73 0b cc 02 f2 00 98 f0 c4 ff cd ff e9 ff d4 02 ec 00 95 f0 cd ff db ff ee ff d5 02 de 00 8f f0 d7 ff eb ff f1 ff
# ReportID: 48 / 0xff010030:  126 ,   78 ,    0 ,    0 ,    0 ,    0 ,    0 ,    0 ,   92 ,   40 ,  115 ,   11 ,  191 ,    2 ,  248 ,    0 ,  178 ,  240 ,  175 ,  255 ,  181 ,  255 ,  230 ,  255 ,  193 ,    2 ,  250 ,    0 ,  171 ,  240 ,  172 ,  255 ,  184 ,  255 ,  233 ,  255 ,  195 ,    2 ,  254 ,    0 ,  156 ,  240 ,  182 ,  255 ,  191 ,  255 ,  232 ,  255 
E: 000001.365929 49 30 7e 4e 00 00 00 00 00 00 5c 28 73 0b bf 02 f8 00 b2 f0 af ff b5 ff e6 ff c1 02 fa 00 ab f0 ac ff b8 ff e9 ff c3 02 fe 00 9c f0 b6 ff bf ff e8 ff
# ReportID: 48 / 0xff010030:  129 ,   78 ,    0 ,    0 ,    0 ,    0 ,    0 ,    0 ,   91 ,   24 ,  115 ,   11 ,  143 ,    2 ,  250 ,    0 ,  200 ,  240 ,  237 ,  255 ,  172 ,  255 ,  210 ,  255 ,  168 ,    2 ,  248 ,    0 ,  194 ,  240 ,  209 ,  255 ,  177 ,  255 ,  215 ,  255 ,  186 ,    2 ,  247 ,    0 ,  183 ,  240 ,  190 ,  255 ,  179 ,  255 ,  221 ,  255 
E: 000001.381059 49 30 81 4e 00 00 00 00 00 00 5b 18 73 0b 8f 02 fa 00 c8 f0 ed ff ac ff d2 ff a8 02 f8 00 c2 f0 d1 ff b1 ff d7 ff ba 02 f7 00 b7 f0 be ff b3 ff dd ff
# ReportID: 48 / 0xff010030:  132 ,   78 ,    0 ,    0 ,    0 ,    0 ,    0 ,    0 ,   92 ,  248 ,  114 ,   11 ,  108 ,    2 ,    6 ,    1 ,  158 ,  240 ,   37 ,    0 ,  152 ,  255 ,  225 ,  255 ,  109 ,    2 ,    1 ,    1 ,  175 ,  240 ,   26 ,    0 ,  160 ,  255 ,  217 ,  255 ,  124 ,    2 ,  253 ,    0 ,  194 ,  240 ,    7 ,    0 ,  167 ,  255 ,  212 ,  255 
E: 000001.394969 49 30 84 4e 00 00 00 00 00 00 5c f8 72 0b 6c 02 06 01 9e f0 25 00 98 ff e1 ff 6d 02 01 01 af f0 1a 00 a0 ff d9 ff 7c 02 fd 00 c2 f0 07 00 a7 ff d4 ff
# ReportID: 48 / 0xff010030:  135 ,   78 ,    0 ,    0 ,    0 ,    0 ,    0 ,    0 ,   92 ,   24 ,  115 ,   11 ,  132 ,    2 ,   10 ,    1 ,  145 ,  240 ,   39 ,    0 ,  144 ,  255 ,  246 ,  255 ,  113 ,    2 ,   11 ,    1 ,  148 ,  240 ,   37 ,    0 ,  145 ,  255 ,  239 ,  255 ,  108 ,    2 ,   10 ,    1 ,  149 ,  240 ,   38 ,    0 ,  147 ,  255 ,  231 ,  255 
E: 000001.409970 49 30 87 4e 00 00 00 00 00 00 5c 18 73 0b 84 02 0a 01 91 f0 27 00 90 ff f6 ff 71 02 0b 01 94 f0 25 00 91 ff ef ff 6c 02 0a 01 95 f0 26 00 93 ff e7 ff
# ReportID: 48 / 0xff010030:  138 ,   78 ,    0 ,    0 ,    0 ,    0 ,    0 ,    0 ,   93 ,   40 ,  115 ,   11 ,  189 ,    2 ,  214 ,    0 ,  152 ,  240 ,   50 ,    0 ,  156 ,  255 ,    0 ,    0 ,  179 ,    2 ,  234 ,    0 ,  157 ,  240 ,   42 ,    0 ,  153 ,  255 ,    3 ,    0 ,  156 ,    2 ,  253 ,    0 ,  148 ,  240 ,   40 ,    0 ,  146 ,  255 ,  252 ,  255 
E: 000001.424990 49 30 8a 4e 00 00 00 00 00 00 5d 28 73 0b bd 02 d6 00 98 f0 32 00 9c ff 00 00 b3 02 ea 00 9d f0 2a 00 99 ff 03 00 9c 02 fd 00 94 f0 28 00 92 ff fc ff
# ReportID: 48 / 0xff010030:  141 ,   78 ,    0 ,    0 ,    0 ,    0 ,    0 ,    0 ,   92 ,   24 ,  115 ,   11 ,  202 ,    2 ,  203 ,    0 ,  122 ,  240 ,   25 ,    0 ,  181 ,  255 ,  234 ,  255 ,  201 ,    2 ,  203 ,    0 ,  128 ,  240 ,   42 ,    0 ,  173 ,  255 ,  238 ,  255 ,  198 ,    2 ,  205 ,    0 ,  144 ,  240 ,   54 ,    0 ,  161 ,  255 ,  247 ,  255 
E: 000001.439965 49 30 8d 4e 00 00 00 00 00 00 5c 18 73 0b ca 02 cb 00 7a f0 19 00 b5 ff ea ff c9 02 cb 00 80 f0 2a 00 ad ff ee ff c6 02 cd 00 90 f0 36 00 a1 ff f7 ff
# ReportID: 48 / 0xff010030:  144 ,   78 ,    0 ,    0 ,    0 ,    0 ,    0 ,    0 ,   93 ,   24 ,  115 ,   11 ,  162 ,    2 ,  231 ,    0 ,  133 ,  240 ,  225 ,  255 ,  199 ,  255 ,  224 ,  255 ,  177 ,    2 ,  221 ,    0 ,  123 ,  240 ,  241 ,  255 ,  196 ,  255 ,  228 ,  255 ,  195 ,    2 ,  211 ,    0 ,  121 ,  240 ,    5 ,    0 ,  188 ,  255 ,  230 ,  255 
E: 000001.454943 49 30 90 4e 00 00 00 00 00 00 5d 18 73 0b a2 02 e7 00 85 f0 e1 ff c7 ff e0 ff b1 02 dd 00 7b f0 f1 ff c4 ff e4 ff c3 02 d3 00 79 f0 05 00 bc ff e6 ff
# ReportID: 48 / 0xff010030:  147 ,   78 ,    0 ,    0 ,    0 ,    0 ,    0 ,    0 ,   91 ,   40 ,  115 ,   11 ,  135 ,    2 ,   15 ,    1 ,  142 ,  240 ,  217 ,  255 ,  216 ,  255 ,  220 ,  255 ,  146 ,    2 ,  255 ,    0 ,  139 ,  240 ,  217 ,  255 ,  210 ,  255 ,  218 ,  255 ,  152 ,    2 ,  240 ,    0 ,  139 ,  240 ,  217 ,  255 ,  203 ,  255 ,  221 ,  255 
E: 000001.469969 49 30 93 4e 00 00 00 00 00 00 5b 28 73 0b 87 02 0f 01 8e f0 d9 ff d8 ff dc ff 92 02 ff 00 8b f0 d9 ff d2 ff da ff 98 02 f0 00 8b f0 d9 ff cb ff dd ff
# ReportID: 48 / 0xff010030:  150 ,   78 ,    0 ,    0 ,    0 ,    0 ,    0 ,    0 ,   93 ,    8 ,  115 ,   11 ,   92 ,    2 ,   53 ,    1 ,  184 ,  240 ,    3 ,    0 ,  219 ,  255 ,  241 ,  255 ,   92 ,    2 ,   42 ,    1 ,  186 ,  240 ,  237 ,  255 ,  221 ,  255 ,  230 ,  255 ,  111 ,    2 ,   30 ,    1 ,  165 ,  240 ,  220 ,  255 ,  221 ,  255 ,  224 ,  255 
E: 000001.484917 49 30 96 4e 00 00 00 00 00 00 5d 08 73 0b 5c 02 35 01 b8 f0 03 00 db ff f1 ff 5c 02 2a 01 ba f0 ed ff dd ff e6 ff 6f 02 1e 01 a5 f0 dc ff dd ff e0 ff
# ReportID: 48 / 0xff010030:  153 ,   78 ,    0 ,    0 ,    0 ,    0 ,    0 ,    0 ,   92 ,   40 ,  115 ,   11 ,  127 ,    2 ,   17 ,    1 ,  131 ,  240 ,   30 ,    0 ,  190 ,  255 ,   15 ,    0 ,  105 ,    2 ,   35 ,    1 ,  149 ,  240 ,   32 ,    0 ,  203 ,  255 ,    7 ,    0 ,   94 ,    2 ,   48 ,    1 ,  175 ,  240 ,   20 ,    0 ,  213 ,  255 ,  252 ,  255 
E: 000001.499977 49 30 99 4e 00 00 00 00 00 00 5c 28 73 0b 7f 02 11 01 83 f0 1e 00 be ff 0f 00 69 02 23 01 95 f0 20 00 cb ff 07 00 5e 02 30 01 af f0 14 00 d5 ff fc ff
# ReportID: 48 / 0xff010030:  156 ,   78 ,    0 ,    0 ,    0 ,    0 ,    0 ,    0 ,   93 ,   40 ,  115 ,   11 ,  140 ,    2 ,  241 ,    0 ,  112 ,  240 ,    4 ,    0 ,  168 ,  255 ,    9 ,    0 ,  147 ,    2 ,  251 ,    0 ,  112 ,  240 ,   15 ,    0 ,  173 ,  255 ,   13 ,    0 ,  145 ,    2 ,    4 ,    1 ,  121 ,  240 ,   26 ,    0 ,  182 ,  255 ,   17 ,    0 
E: 000001.514920 49 30 9c 4e 00 00 00 00 00 00 5d 28 73 0b 8c 02 f1 00 70 f0 04 00 a8 ff 09 00 93 02 fb 00 70 f0 0f 00 ad ff 0d 00 91 02 04 01 79 f0 1a 00 b6 ff 11 00
# ReportID: 48 / 0xff010030:  159 ,   78 ,    0 ,    0 ,    0 ,    0 ,    0 ,    0 ,   93 ,   24 ,  115 ,   11 ,  125 ,    2 ,  244 ,    0 ,  121 ,  240 ,  213 ,  255 ,  169 ,  255 ,  255 ,  255 ,  137 ,    2 ,  237 ,    0 ,  110 ,  240 ,  228 ,  255 ,  164 ,  255 ,    2 ,    0 ,  141 ,    2 ,  240 ,    0 ,  109 ,  240 ,  243 ,  255 ,  163 ,  255 ,    4 ,    0 
E: 000001.529891 49 30 9f 4e 00 00 00 00 00 00 5d 18 73 0b 7d 02 f4 00 79 f0 d5 ff a9 ff ff ff 89 02 ed 00 6e f0 e4 ff a4 ff 02 00 8d 02 f0 00 6d f0 f3 ff a3 ff 04 00
# ReportID: 48 / 0xff010030:  162 ,   78 ,    0 ,    0 ,    0 ,    0 ,    0 ,    0 ,   92 ,   40 ,  115 ,   11 ,   98 ,    2 ,    7 ,    1 ,  180 ,  240 ,  198 ,  255 ,  197 ,  255 ,  249 ,  255 ,  107 ,    2 ,    2 ,    1 ,  153 ,  240 ,  196 ,  255 ,  188 ,  255 ,  250 ,  255 ,  119 ,    2 ,  252 ,    0 ,  132 ,  240 ,  204 ,  255 ,  174 ,  255 ,  252 ,  255 
E: 000001.545009 49 30 a2 4e 00 00 00 00 00 00 5c 28 73 0b 62 02 07 01 b4 f0 c6 ff c5 ff f9 ff 6b 02 02 01 99 f0 c4 ff bc ff fa ff 77 02 fc 00 84 f0 cc ff ae ff fc ff
# ReportID: 48 / 0xff010030:  165 ,   78 ,    0 ,    0 ,    0 ,    0 ,    0 ,    0 ,   92 ,   24 ,  115 ,   11 ,  103 ,    2 ,   19 ,    1 ,  197 ,  240 ,  253 ,  255 ,  234 ,  255 ,    3 ,    0 ,   99 ,    2 ,   26 ,    1 ,  198 ,  240 ,  236 ,  255 ,  224 ,  255 ,  254 ,  255 ,   97 ,    2 ,   19 ,    1 ,  195 ,  240 ,  217 ,  255 ,  213 ,  255 ,  251 ,  255 
E: 000001.561021 49 30 a5 4e 00 00 00 00 00 00 5c 18 73 0b 67 02 13 01 c5 f0 fd ff ea ff 03 00 63 02 1a 01 c6 f0 ec ff e0 ff fe ff 61 02 13 01 c3 f0 d9 ff d5 ff fb ff
# ReportID: 48 / 0xff010030:  168 ,   78 ,    0 ,    0 ,    0 ,    0 ,    0 ,    0 ,   92 ,   40 ,  115 ,   11 ,   42 ,    2 ,  245 ,    0 ,  107 ,  240 ,   46 ,    0 ,    9 ,    0 ,  255 ,  255 ,  111 ,    2 ,  248 ,    0 ,  161 ,  240 ,   34 ,    0 ,    1 ,    0 ,    3 ,    0 ,  115 ,    2 ,    7 ,    1 ,  192 ,  240 ,   13 ,    0 ,  244 ,  255 ,    4 ,    0 
E: 000001.574870 49 30 a8 4e 00 00 00 00 00 00 5c 28 73 0b 2a 02 f5 00 6b f0 2e 00 09 00 ff ff 6f 02 f8 00 a1 f0 22 00 01 00 03 00 73 02 07 01 c0 f0 0d 00 f4 ff 04 00
# ReportID: 48 / 0xff010030:  171 ,   78 ,    0 ,    0 ,    0 ,    0 ,    0 ,    0 ,   92 ,   40 ,  115 ,   11 ,   73 ,    2 ,  233 ,    0 ,   97 ,  240 ,   26 ,    0 ,   50 ,    0 ,   34 ,    0 ,   45 ,    2 ,  240 ,    0 ,   85 ,  240 ,   35 ,    0 ,   44 ,    0 ,   22 ,    0 ,   19 ,    2 ,  243 ,    0 ,   82 ,  240 ,   48 ,    0 ,   24 ,    0 ,    6 ,    0 
E: 000001.589883 49 30 ab 4e 00 00 00 00 00 00 5c 28 73 0b 49 02 e9 00 61 f0 1a 00 32 00 22 00 2d 02 f0 00 55 f0 23 00 2c 00 16 00 13 02 f3 00 52 f0 30 00 18 00 06 00
# ReportID: 48 / 0xff010030:  174 ,   78 ,    0 ,    0 ,    0 ,    0 ,    0 ,    0 ,   92 ,   40 ,  115 ,   11 ,  129 ,    2 ,  218 ,    0 ,  159 ,  240 ,  255 ,  255 ,    9 ,    0 ,   43 ,    0 ,  110 ,    2 ,  231 ,    0 ,  141 ,  240 ,   10 ,    0 ,   30 ,    0 ,   39 ,    0 ,   97 ,    2 ,  229 ,    0 ,  122 ,  240 ,   17 ,    0 ,   49 ,    0 ,   37 ,    0 
E: 000001.605829 49 30 ae 4e 00 00 00 00 00 00 5c 28 73 0b 81 02 da 00 9f f0 ff ff 09 00 2b 00 6e 02 e7 00 8d f0 0a 00 1e 00 27 00 61 02 e5 00 7a f0 11 00 31 00 25 00
# ReportID: 48 / 0xff010030:  177 ,   78 ,    0 ,    0 ,    0 ,    0 ,    0 ,    0 ,   92 ,   24 ,  115 ,   11 ,  139 ,    2 ,  209 ,    0 ,  107 ,  240 ,  236 ,  255 ,  207 ,  255 ,   26 ,    0 ,  148 ,    2 ,  201 ,    0 ,  140 ,  240 ,  246 ,  255 ,  214 ,  255 ,   35 ,    0 ,  137 ,    2 ,  206 ,    0 ,  169 ,  240 ,  249 ,  255 ,  232 ,  255 ,   41 ,    0 
E: 000001.619978 49 30 b1 4e 00 00 00 00 00 00 5c 18 73 0b 8b 02 d1 00 6b f0 ec ff cf ff 1a 00 94 02 c9 00 8c f0 f6 ff d6 ff 23 00 89 02 ce 00 a9 f0 f9 ff e8 ff 29 00
# ReportID: 48 / 0xff010030:  180 ,   78 ,    0 ,    0 ,    0 ,    0 ,    0 ,    0 ,   92 ,    8 ,  115 ,   11 ,   28 ,    2 ,  233 ,    0 ,  135 ,  240 ,  169 ,  255 ,  236 ,  255 ,   10 ,    0 ,   69 ,    2 ,  231 ,    0 ,  109 ,  240 ,  182 ,  255 ,  221 ,  255 ,   11 ,    0 ,  107 ,    2 ,  224 ,    0 ,   96 ,  240 ,  213 ,  255 ,  210 ,  255 ,   18 ,    0 
E: 000001.634840 49 30 b4 4e 00 00 00 00 00 00 5c 08 73 0b 1c 02 e9 00 87 f0 a9 ff ec ff 0a 00 45 02 e7 00 6d f0 b6 ff dd ff 0b 00 6b 02 e0 00 60 f0 d5 ff d2 ff 12 00
# ReportID: 48 / 0xff010030:  183 ,   78 ,    0 ,    0 ,    0 ,    0 ,    0 ,    0 ,   91 ,   40 ,  115 ,   11 ,   33 ,    2 ,   13 ,    1 ,  164 ,  240 ,  190 ,  255 ,   24 ,    0 ,   11 ,    0 ,    3 ,    2 ,  254 ,    0 ,  171 ,  240 ,  182 ,  255 ,   12 ,    0 ,    9 ,    0 ,    3 ,    2 ,  245 ,    0 ,  144 ,  240 ,  173 ,  255 ,  252 ,  255 ,    9 ,    0 
E: 000001.650479 49 30 b7 4e 00 00 00 00 00 00 5b 28 73 0b 21 02 0d 01 a4 f0 be ff 18 00 0b 00 03 02 fe 00 ab f0 b6 ff 0c 00 09 00 03 02 f5 00 90 f0 ad ff fc ff 09 00
# ReportID: 48 / 0xff010030:  186 ,   78 ,    0 ,    0 ,    0 ,    0 ,    0 ,    0 ,   92 ,   40 ,  115 ,   11 ,  176 ,    2 ,   35 ,    1 ,  211 ,  240 ,  172 ,  255 ,   52 ,    0 ,   71 ,    0 ,  126 ,    2 ,   42 ,    1 ,  173 ,  240 ,  173 ,  255 ,   45 ,    0 ,   46 ,    0 ,   77 ,    2 ,   31 ,    1 ,  148 ,  240 ,  184 ,  255 ,   32 ,    0 ,   23 ,    0 
E: 000001.664906 49 30 ba 4e 00 00 00 00 00 00 5c 28 73 0b b0 02 23 01 d3 f0 ac ff 34 00 47 00 7e 02 2a 01 ad f0 ad ff 2d 00 2e 00 4d 02 1f 01 94 f0 b8 ff 20 00 17 00
# ReportID: 48 / 0xff010030:  189 ,   78 ,    0 ,    0 ,    0 ,    0 ,    0 ,    0 ,   91 ,   40 ,  115 ,   11 ,   80 ,    3 ,  253 ,    0 ,  238 ,  240 ,   32 ,    0 ,   28 ,    0 ,   94 ,    0 ,   50 ,    3 ,    5 ,    1 ,    1 ,  241 ,  245 ,  255 ,   39 ,    0 ,  104 ,    0 ,  243 ,    2 ,   18 ,    1 ,  246 ,  240 ,  193 ,  255 ,   50 ,    0 ,   93 ,    0 
E: 000001.679868 49 30 bd 4e 00 00 00 00 00 00 5b 28 73 0b 50 03 fd 00 ee f0 20 00 1c 00 5e 00 32 03 05 01 01 f1 f5 ff 27 00 68 00 f3 02 12 01 f6 f0 c1 ff 32 00 5d 00
# ReportID: 48 / 0xff010030:  192 ,   78 ,    0 ,    0 ,    0 ,    0 ,    0 ,    0 ,   92 ,   24 ,  115 ,   11 ,   16 ,    3 ,  234 ,    0 ,  149 ,  240 ,   78 ,    0 ,  254 ,  255 ,   33 ,    0 ,   53 ,    3 ,  238 ,    0 ,  172 ,  240 ,   78 ,    0 ,    7 ,    0 ,   50 ,    0 ,   79 ,    3 ,  244 ,    0 ,  209 ,  240 ,   61 ,    0 ,   18 ,    0 ,   77 ,    0 
E: 000001.694948 49 30 c0 4e 00 00 00 00 00 00 5c 18 73 0b 10 03 ea 00 95 f0 4e 00 fe ff 21 00 35 03 ee 00 ac f0 4e 00 07 00 32 00 4f 03 f4 00 d1 f0 3d 00 12 00 4d 00
# ReportID: 48 / 0xff010030:  195 ,   78 ,    0 ,    0 ,    0 ,    0 ,    0 ,    0 ,   92 ,   40 ,  115 ,   11 ,  108 ,    2 ,  213 ,    0 ,  126 ,  240 ,   55 ,    0 ,  243 ,  255 ,    2 ,    0 ,  143 ,    2 ,  217 ,    0 ,  132 ,  240 ,   66 ,    0 ,  247 ,  255 ,    8 ,    0 ,  206 ,    2 ,  225 ,    0 ,  135 ,  240 ,   73 ,    0 ,  249 ,  255 ,   20 ,    0 
E: 000001.709993 49 30 c3 4e 00 00 00 00 00 00 5c 28 73 0b 6c 02 d5 00 7e f0 37 00 f3 ff 02 00 8f 02 d9 00 84 f0 42 00 f7 ff 08 00 ce 02 e1 00 87 f0 49 00 f9 ff 14 00
# ReportID: 48 / 0xff010030:  198 ,   78 ,    0 ,    0 ,    0 ,    0 ,    0 ,    0 ,   92 ,   40 ,  115 ,   11 ,   91 ,    2 ,  198 ,    0 ,  140 ,  240 ,   11 ,    0 ,  229 ,  255 ,    9 ,    0 ,   88 ,    2 ,  203 ,    0 ,  134 ,  240 ,   25 ,    0 ,  232 ,  255 ,    6 ,    0 ,   97 ,    2 ,  209 ,    0 ,  134 ,  240 ,   42 ,    0 ,  239 ,  255 ,    3 ,    0 
E: 000001.724893 49 30 c6 4e 00 00 00 00 00 00 5c 28 73 0b 5b 02 c6 00 8c f0 0b 00 e5 ff 09 00 58 02 cb 00 86 f0 19 00 e8 ff 06 00 61 02 d1 00 86 f0 2a 00 ef ff 03 00
# ReportID: 48 / 0xff010030:  201 ,   78 ,    0 ,    0 ,    0 ,    0 ,    0 ,    0 ,   92 ,   24 ,  115 ,   11 ,  242 ,    2 ,  204 ,    0 ,  132 ,  240 ,  215 ,  255 ,  214 ,  255 ,    2 ,    0 ,  191 ,    2 ,  200 ,    0 ,  146 ,  240 ,  233 ,  255 ,  218 ,  255 ,    8 ,    0 ,  131 ,    2 ,  197 ,    0 ,  146 ,  240 ,  252 ,  255 ,  225 ,  255 ,   10 ,    0 
E: 000001.739976 49 30 c9 4e 00 00 00 00 00 00 5c 18 73 0b f2 02 cc 00 84 f0 d7 ff d6 ff 02 00 bf 02 c8 00 92 f0 e9 ff da ff 08 00 83 02 c5 00 92 f0 fc ff e1 ff 0a 00
# ReportID: 48 / 0xff010030:  204 ,   78 ,    0 ,    0 ,    0 ,    0 ,    0 ,    0 ,   92 ,   24 ,  115 ,   11 ,   37 ,    3 ,  231 ,    0 ,  106 ,  240 ,  164 ,  255 ,  206 ,  255 ,  244 ,  255 ,   36 ,    3 ,  222 ,    0 ,  103 ,  240 ,  182 ,  255 ,  206 ,  255 ,  247 ,  255 ,   18 ,    3 ,  213 ,    0 ,  112 ,  240 ,  197 ,  255 ,  209 ,  255 ,  251 ,  255 
E: 000001.755926 49 30 cc 4e 00 00 00 00 00 00 5c 18 73 0b 25 03 e7 00 6a f0 a4 ff ce ff f4 ff 24 03 de 00 67 f0 b6 ff ce ff f7 ff 12 03 d5 00 70 f0 c5 ff d1 ff fb ff
# ReportID: 48 / 0xff010030:  207 ,   78 ,    0 ,    0 ,    0 ,    0 ,    0 ,    0 ,   91 ,   40 ,  115 ,   11 ,  155 ,    2 ,    2 ,    1 ,  168 ,  240 ,  170 ,  255 ,  199 ,  255 ,  241 ,  255 ,  203 ,    2 ,  254 ,    0 ,  143 ,  240 ,  155 ,  255 ,  204 ,  255 ,  243 ,  255 ,   12 ,    3 ,  247 ,    0 ,  118 ,  240 ,  158 ,  255 ,  206 ,  255 ,  243 ,  255 
E: 000001.769976 49 30 cf 4e 00 00 00 00 00 00 5b 28 73 0b 9b 02 02 01 a8 f0 aa ff c7 ff f1 ff cb 02 fe 00 8f f0 9b ff cc ff f3 ff 0c 03 f7 00 76 f0 9e ff ce ff f3 ff
# ReportID: 48 / 0xff010030:  210 ,   78 ,    0 ,    0 ,    0 ,    0 ,    0 ,    0 ,   93 ,   40 ,  115 ,   11 ,  130 ,    2 ,   14 ,    1 ,  185 ,  240 ,  246 ,  255 ,  175 ,  255 ,  240 ,  255 ,  128 ,    2 ,   14 ,    1 ,  191 ,  240 ,  225 ,  255 ,  181 ,  255 ,  238 ,  255 ,  132 ,    2 ,    9 ,    1 ,  183 ,  240 ,  201 ,  255 ,  189 ,  255 ,  239 ,  255 
E: 000001.784863 49 30 d2 4e 00 00 00 00 00 00 5d 28 73 0b 82 02 0e 01 b9 f0 f6 ff af ff f0 ff 80 02 0e 01 bf f0 e1 ff b5 ff ee ff 84 02 09 01 b7 f0 c9 ff bd ff ef ff
# ReportID: 48 / 0xff010030:  213 ,   78 ,    0 ,    0 ,    0 ,    0 ,    0 ,    0 ,   92 ,   40 ,  115 ,   11 ,  125 ,    2 ,   11 ,    1 ,  177 ,  240 ,   31 ,    0 ,  174 ,  255 ,  253 ,  255 ,  124 ,    2 ,   19 ,    1 ,  172 ,  240 ,   22 ,    0 ,  173 ,  255 ,  251 ,  255 ,  127 ,    2 ,   16 ,    1 ,  178 ,  240 ,    7 ,    0 ,  172 ,  255 ,  246 ,  255 
E: 000001.799944 49 30 d5 4e 00 00 00 00 00 00 5c 28 73 0b 7d 02 0b 01 b1 f0 1f 00 ae ff fd ff 7c 02 13 01 ac f0 16 00 ad ff fb ff 7f 02 10 01 b2 f0 07 00 ac ff f6 ff
# ReportID: 48 / 0xff010030:  216 ,   78 ,    0 ,    0 ,    0 ,    0 ,    0 ,    0 ,   92 ,   24 ,  115 ,   11 ,  136 ,    2 ,  254 ,    0 ,  178 ,  240 ,   56 ,    0 ,  189 ,  255 ,  244 ,  255 ,  132 ,    2 ,    2 ,    1 ,  181 ,  240 ,   53 ,    0 ,  184 ,  255 ,  247 ,  255 ,  130 ,    2 ,    5 ,    1 ,  186 ,  240 ,   45 ,    0 ,  179 ,  255 ,  251 ,  255 
E: 000001.814839 49 30 d8 4e 00 00 00 00 00 00 5c 18 73 0b 88 02 fe 00 b2 f0 38 00 bd ff f4 ff 84 02 02 01 b5 f0 35 00 b8 ff f7 ff 82 02 05 01 ba f0 2d 00 b3 ff fb ff
# ReportID: 48 / 0xff010030:  219 ,   78 ,    0 ,    0 ,    0 ,    0 ,    0 ,    0 ,   92 ,   56 ,  115 ,   11 ,  190 ,    2 ,  232 ,    0 ,  149 ,  240 ,   49 ,    0 ,  200 ,  255 ,  231 ,  255 ,  174 ,    2 ,  242 ,    0 ,  158 ,  240 ,   56 ,    0 ,  198 ,  255 ,  239 ,  255 ,  151 ,    2 ,  249 ,    0 ,  172 ,  240 ,   58 ,    0 ,  194 ,  255 ,  243 ,  255 
E: 000001.829898 49 30 db 4e 00 00 00 00 00 00 5c 38 73 0b be 02 e8 00 95 f0 31 00 c8 ff e7 ff ae 02 f2 00 9e f0 38 00 c6 ff ef ff 97 02 f9 00 ac f0 3a 00 c2 ff f3 ff
# ReportID: 48 / 0xff010030:  222 ,   78 ,    0 ,    0 ,    0 ,    0 ,    0 ,    0 ,   93 ,   24 ,  115 ,   11 ,  148 ,    2 ,  238 ,    0 ,  156 ,  240 ,   21 ,    0 ,  189 ,  255 ,  208 ,  255 ,  182 ,    2 ,  234 ,    0 ,  149 ,  240 ,   27 ,    0 ,  193 ,  255 ,  212 ,  255 ,  201 ,    2 ,  235 ,    0 ,  141 ,  240 ,   40 ,    0 ,  198 ,  255 ,  222 ,  255 
E: 000001.844924 49 30 de 4e 00 00 00 00 00 00 5d 18 73 0b 94 02 ee 00 9c f0 15 00 bd ff d0 ff b6 02 ea 00 95 f0 1b 00 c1 ff d4 ff c9 02 eb 00 8d f0 28 00 c6 ff de ff
# ReportID: 48 / 0xff010030:  225 ,   78 ,    0 ,    0 ,    0 ,    0 ,    0 ,    0 ,   92 ,   40 ,  115 ,   11 ,  105 ,    2 ,  241 ,    0 ,  139 ,  240 ,   18 ,    0 ,  183 ,  255 ,  222 ,  255 ,  101 ,    2 ,  242 ,    0 ,  150 ,  240 ,   23 ,    0 ,  184 ,  255 ,  215 ,  255 ,  118 ,    2 ,  239 ,    0 ,  160 ,  240 ,   20 ,    0 ,  187 ,  255 ,  210 ,  255 
E: 000001.860116 49 30 e1 4e 00 00 00 00 00 00 5c 28 73 0b 69 02 f1 00 8b f0 12 00 b7 ff de ff 65 02 f2 00 96 f0 17 00 b8 ff d7 ff 76 02 ef 00 a0 f0 14 00 bb ff d2 ff
# ReportID: 48 / 0xff010030:  228 ,   78 ,    0 ,    0 ,    0 ,    0 ,    0 ,    0 ,   90 ,   56 ,  115 ,   11 ,  113 ,    2 ,  239 ,    0 ,  165 ,  240 ,  246 ,  255 ,  180 ,  255 ,  225 ,  255 ,  107 ,    2 ,  230 ,    0 ,  131 ,  240 ,  255 ,  255 ,  181 ,  255 ,  226 ,  255 ,  108 ,    2 ,  227 ,    0 ,  128 ,  240 ,    8 ,    0 ,  181 ,  255 ,  228 ,  255 
E: 000001.875867 49 30 e4 4e 00 00 00 00 00 00 5a 38 73 0b 71 02 ef 00 a5 f0 f6 ff b4 ff e1 ff 6b 02 e6 00 83 f0 ff ff b5 ff e2 ff 6c 02 e3 00 80 f0 08 00 b5 ff e4 ff
# ReportID: 48 / 0xff010030:  231 ,   78 ,    0 ,    0 ,    0 ,    0 ,    0 ,    0 ,   92 ,   24 ,  115 ,   11 ,   87 ,    2 ,  214 ,    0 ,   97 ,  240 ,  199 ,  255 ,  153 ,  255 ,  227 ,  255 ,  108 ,    2 ,  216 ,    0 ,  118 ,  240 ,  220 ,  255 ,  155 ,  255 ,  227 ,  255 ,  116 ,    2 ,  233 ,    0 ,  154 ,  240 ,  239 ,  255 ,  170 ,  255 ,  227 ,  255 
E: 000001.889944 49 30 e7 4e 00 00 00 00 00 00 5c 18 73 0b 57 02 d6 00 61 f0 c7 ff 99 ff e3 ff 6c 02 d8 00 76 f0 dc ff 9b ff e3 ff 74 02 e9 00 9a f0 ef ff aa ff e3 ff
# ReportID: 48 / 0xff010030:  234 ,   78 ,    0 ,    0 ,    0 ,    0 ,    0 ,    0 ,   92 ,   40 ,  115 ,   11 ,   77 ,    2 ,  163 ,    0 ,   44 ,  240 ,  110 ,  255 ,  191 ,  255 ,  239 ,  255 ,   66 ,    2 ,  187 ,    0 ,   52 ,  240 ,  160 ,  255 ,  173 ,  255 ,  236 ,  255 ,   69 ,    2 ,  212 ,    0 ,   77 ,  240 ,  180 ,  255 ,  160 ,  255 ,  231 ,  255 
E: 000001.904913 49 30 ea 4e 00 00 00 00 00 00 5c 28 73 0b 4d 02 a3 00 2c f0 6e ff bf ff ef ff 42 02 bb 00 34 f0 a0 ff ad ff ec ff 45 02 d4 00 4d f0 b4 ff a0 ff e7 ff
# ReportID: 48 / 0xff010030:  237 ,   78 ,    0 ,    0 ,    0 ,    0 ,    0 ,    0 ,   90 ,   40 ,  115 ,   11 ,  140 ,    2 ,   12 ,    1 ,  125 ,  240 ,  215 ,  254 ,  204 ,  255 ,  241 ,  255 ,  131 ,    2 ,  221 ,    0 ,  110 ,  240 ,  250 ,  254 ,  206 ,  255 ,  237 ,  255 ,  100 ,    2 ,  178 ,    0 ,   70 ,  240 ,   48 ,  255 ,  202 ,  255 ,  237 ,  255 
E: 000001.920941 49 30 ed 4e 00 00 00 00 00 00 5a 28 73 0b 8c 02 0c 01 7d f0 d7 fe cc ff f1 ff 83 02 dd 00 6e f0 fa fe ce ff ed ff 64 02 b2 00 46 f0 30 ff ca ff ed ff
# ReportID: 48 / 0xff010030:  240 ,   78 ,    0 ,    0 ,    0 ,    0 ,    0 ,    0 ,   92 ,   40 ,  115 ,   11 ,  126 ,    2 ,  112 ,    1 ,  241 ,  240 ,  224 ,  254 ,  180 ,  255 ,  246 ,  255 ,  128 ,    2 ,   84 ,    1 ,  205 ,  240 ,  190 ,  254 ,  189 ,  255 ,  249 ,  255 ,  129 ,    2 ,   50 ,    1 ,  151 ,  240 ,  194 ,  254 ,  198 ,  255 ,  247 ,  255 
E: 000001.934818 49 30 f0 4e 00 00 00 00 00 00 5c 28 73 0b 7e 02 70 01 f1 f0 e0 fe b4 ff f6 ff 80 02 54 01 cd f0 be fe bd ff f9 ff 81 02 32 01 97 f0 c2 fe c6 ff f7 ff
# ReportID: 48 / 0xff010030:  243 ,   78 ,    0 ,    0 ,    0 ,    0 ,    0 ,    0 ,   93 ,   40 ,  115 ,   11 ,  122 ,    2 ,  159 ,    1 ,    7 ,  241 ,  184 ,  255 ,  159 ,  255 ,  247 ,  255 ,  115 ,    2 ,  159 ,    1 ,   10 ,  241 ,  114 ,  255 ,  165 ,  255 ,  244 ,  255 ,  112 ,    2 ,  142 ,    1 ,    5 ,  241 ,   25 ,  255 ,  172 ,  255 ,  243 ,  255 
E: 000001.949895 49 30 f3 4e 00 00 00 00 00 00 5d 28 73 0b 7a 02 9f 01 07 f1 b8 ff 9f ff f7 ff 73 02 9f 01 0a f1 72 ff a5 ff f4 ff 70 02 8e 01 05 f1 19 ff ac ff f3 ff
# ReportID: 48 / 0xff010030:  246 ,   78 ,    0 ,    0 ,    0 ,    0 ,    0 ,    0 ,   93 ,   24 ,  115 ,   11 ,  122 ,    2 ,   90 ,    1 ,  175 ,  240 ,   84 ,    0 ,  159 ,  255 ,  244 ,  255 ,  129 ,    2 ,  121 ,    1 ,  207 ,  240 ,   46 ,    0 ,  154 ,  255 ,  244 ,  255 ,  129 ,    2 ,  141 ,    1 ,  251 ,  240 ,  248 ,  255 ,  155 ,  255 ,  248 ,  255 
E: 000001.964910 49 30 f6 4e 00 00 00 00 00 00 5d 18 73 0b 7a 02 5a 01 af f0 54 00 9f ff f4 ff 81 02 79 01 cf f0 2e 00 9a ff f4 ff 81 02 8d 01 fb f0 f8 ff 9b ff f8 ff
# ReportID: 48 / 0xff010030:  249 ,   78 ,    0 ,    0 ,    0 ,    0 ,    0 ,    0 ,   93 ,   40 ,  115 ,   11 ,  140 ,    2 ,    8 ,    1 ,  126 ,  240 ,  106 ,    0 ,  189 ,  255 ,  237 ,  255 ,  130 ,    2 ,   12 ,    1 ,  136 ,  240 ,  111 ,    0 ,  184 ,  255 ,  243 ,  255 ,  116 ,    2 ,   44 ,    1 ,  150 ,  240 ,  107 ,    0 ,  175 ,  255 ,  246 ,  255 
E: 000001.980890 49 30 f9 4e 00 00 00 00 00 00 5d 28 73 0b 8c 02 08 01 7e f0 6a 00 bd ff ed ff 82 02 0c 01 88 f0 6f 00 b8 ff f3 ff 74 02 2c 01 96 f0 6b 00 af ff f6 ff
# ReportID: 48 / 0xff010030:  252 ,   78 ,    0 ,    0 ,    0 ,    0 ,    0 ,    0 ,   92 ,    8 ,  115 ,   11 ,  116 ,    2 ,   42 ,    1 ,  157 ,  240 ,   88 ,    0 ,  169 ,  255 ,  233 ,  255 ,  130 ,    2 ,   29 ,    1 ,  134 ,  240 ,   85 ,    0 ,  181 ,  255 ,  231 ,  255 ,  140 ,    2 ,   14 ,    1 ,  123 ,  240 ,   97 ,    0 ,  189 ,  255 ,  234 ,  255 
E: 000001.994929 49 30 fc 4e 00 00 00 00 00 00 5c 08 73 0b 74 02 2a 01 9d f0 58 00 a9 ff e9 ff 82 02 1d 01 86 f0 55 00 b5 ff e7 ff 8c 02 0e 01 7b f0 61 00 bd ff ea ff
# ReportID: 48 / 0xff010030:  255 ,   78 ,    0 ,    0 ,    0 ,    0 ,    0 ,    0 ,   91 ,   40 ,  115 ,   11 ,   60 ,    2 ,   23 ,    1 ,  200 ,  240 ,  164 ,    0 ,  130 ,  255 ,  242 ,  255 ,   75 ,    2 ,   39 ,    1 ,  195 ,  240 ,  127 ,    0 ,  142 ,  255 ,  239 ,  255 ,   98 ,    2 ,   48 ,    1 ,  177 ,  240 ,  103 ,    0 ,  156 ,  255 ,  237 ,  255 
E: 000002.011055 49 30 ff 4e 00 00 00 00 00 00 5b 28 73 0b 3c 02 17 01 c8 f0 a4 00 82 ff f2 ff 4b 02 27 01 c3 f0 7f 00 8e ff ef ff 62 02 30 01 b1 f0 67 00 9c ff ed ff
# ReportID: 48 / 0xff010030:    2 ,   78 ,    0 ,    0 ,    0 ,    0 ,    0 ,    0 ,   93 ,    8 ,  115 ,   11 ,   36 ,    2 ,  177 ,    0 ,  143 ,  240 ,  165 ,    0 ,  117 ,  255 ,  234 ,  255 ,   47 ,    2 ,  210 ,    0 ,  168 ,  240 ,  189 ,    0 ,  115 ,  255 ,  237 ,  255 ,   54 ,    2 ,  251 ,    0 ,  196 ,  240 ,  188 ,    0 ,  122 ,  255 ,  241 ,  255 
E: 000002.040950 49 30 02 4e 00 00 00 00 00 00 5d 08 73 0b 24 02 b1 00 8f f0 a5 00 75 ff ea ff 2f 02 d2 00 a8 f0 bd 00 73 ff ed ff 36 02 fb 00 c4 f0 bc 00 7a ff f1 ff
# ReportID: 48 / 0xff010030:    5 ,   78 ,    0 ,    0 ,    0 ,    0 ,    0 ,    0 ,   92 ,   24 ,  115 ,   11 ,  238 ,    1 ,  156 ,    0 ,   99 ,  240 ,   16 ,    0 ,  206 ,  255 ,  237 ,  255 ,  241 ,    1 ,  165 ,    0 ,   92 ,  240 ,   61 ,    0 ,  164 ,  255 ,  231 ,  255 ,    9 ,    2 ,  173 ,    0 ,  111 ,  240 ,  121 ,    0 ,  129 ,  255 ,  230 ,  255 
E: 000002.041420 49 30 05 4e 00 00 00 00 00 00 5c 18 73 0b ee 01 9c 00 63 f0 10 00 ce ff ed ff f1 01 a5 00 5c f0 3d 00 a4 ff e7 ff 09 02 ad 00 6f f0 79 00 81 ff e6 ff
# ReportID: 48 / 0xff010030:    8 ,   78 ,    0 ,    0 ,    0 ,    0 ,    0 ,    0 ,   92 ,   24 ,  115 ,   11 ,   49 ,    2 ,  148 ,    0 ,   67 ,  240 ,  121 ,  255 ,   32 ,    0 ,  225 ,  255 ,   36 ,    2 ,  135 ,    0 ,   77 ,  240 ,  172 ,  255 ,   17 ,    0 ,  236 ,  255 ,    4 ,    2 ,  141 ,    0 ,   88 ,  240 ,  231 ,  255 ,  242 ,  255 ,  241 ,  255 
E: 000002.055965 49 30 08 4e 00 00 00 00 00 00 5c 18 73 0b 31 02 94 00 43 f0 79 ff 20 00 e1 ff 24 02 87 00 4d f0 ac ff 11 00 ec ff 04 02 8d 00 58 f0 e7 ff f2 ff f1 ff
# ReportID: 48 / 0xff010030:   11 ,   78 ,    0 ,    0 ,    0 ,    0 ,    0 ,    0 ,   92 ,   40 ,  115 ,   11 ,  161 ,    2 ,  230 ,    0 ,   39 ,  240 ,    4 ,  255 ,   15 ,    0 ,  212 ,  255 ,  124 ,    2 ,  205 ,    0 ,   47 ,  240 ,   44 ,  255 ,   33 ,    0 ,  210 ,  255 ,   71 ,    2 ,  177 ,    0 ,   60 ,  240 ,   78 ,  255 ,   37 ,    0 ,  214 ,  255 
E: 000002.070086 49 30 0b 4e 00 00 00 00 00 00 5c 28 73 0b a1 02 e6 00 27 f0 04 ff 0f 00 d4 ff 7c 02 cd 00 2f f0 2c ff 21 00 d2 ff 47 02 b1 00 3c f0 4e ff 25 00 d6 ff
# ReportID: 48 / 0xff010030:   14 ,   78 ,    0 ,    0 ,    0 ,    0 ,    0 ,    0 ,   92 ,   24 ,  115 ,   11 ,  120 ,    2 ,  108 ,    1 ,  124 ,  240 ,  208 ,  254 ,  190 ,  255 ,  226 ,  255 ,  158 ,    2 ,   70 ,    1 ,   64 ,  240 ,  214 ,  254 ,  214 ,  255 ,  219 ,  255 ,  179 ,    2 ,    7 ,    1 ,   45 ,  240 ,  238 ,  254 ,  251 ,  255 ,  215 ,  255 
E: 000002.085846 49 30 0e 4e 00 00 00 00 00 00 5c 18 73 0b 78 02 6c 01 7c f0 d0 fe be ff e2 ff 9e 02 46 01 40 f0 d6 fe d6 ff db ff b3 02 07 01 2d f0 ee fe fb ff d7 ff
# ReportID: 48 / 0xff010030:   17 ,   78 ,    0 ,    0 ,    0 ,    0 ,    0 ,    0 ,   92 ,   40 ,  115 ,   11 ,   85 ,    2 ,  172 ,    1 ,   25 ,  241 ,   69 ,  255 ,  142 ,  255 ,  230 ,  255 ,   94 ,    2 ,  160 ,    1 ,  231 ,  240 ,   22 ,  255 ,  147 ,  255 ,  233 ,  255 ,  103 ,    2 ,  136 ,    1 ,  181 ,  240 ,  226 ,  254 ,  167 ,  255 ,  232 ,  255 
E: 000002.100057 49 30 11 4e 00 00 00 00 00 00 5c 28 73 0b 55 02 ac 01 19 f1 45 ff 8e ff e6 ff 5e 02 a0 01 e7 f0 16 ff 93 ff e9 ff 67 02 88 01 b5 f0 e2 fe a7 ff e8 ff
# ReportID: 48 / 0xff010030:   20 ,   78 ,    0 ,    0 ,    0 ,    0 ,    0 ,    0 ,   93 ,    8 ,  115 ,   11 ,   78 ,    2 ,  148 ,    1 ,  218 ,  240 ,   21 ,    0 ,  136 ,  255 ,  226 ,  255 ,   87 ,    2 ,  200 ,    1 ,   57 ,  241 ,  225 ,  255 ,  139 ,  255 ,  223 ,  255 ,   78 ,    2 ,  192 ,    1 ,   74 ,  241 ,  130 ,  255 ,  140 ,  255 ,  226 ,  255 
E: 000002.114903 49 30 14 4e 00 00 00 00 00 00 5d 08 73 0b 4e 02 94 01 da f0 15 00 88 ff e2 ff 57 02 c8 01 39 f1 e1 ff 8b ff df ff 4e 02 c0 01 4a f1 82 ff 8c ff e2 ff
# ReportID: 48 / 0xff010030:   23 ,   78 ,    0 ,    0 ,    0 ,    0 ,    0 ,    0 ,   93 ,   24 ,  115 ,   11 ,   41 ,    2 ,   83 ,    1 ,  224 ,  240 ,   33 ,  255 ,   13 ,  255 ,  251 ,  255 ,   44 ,    2 ,   66 ,    1 ,  223 ,  240 ,   16 ,  255 ,   19 ,  255 ,  250 ,  255 ,   48 ,    2 ,   89 ,    1 ,  216 ,  240 ,  132 ,  255 ,   72 ,  255 ,  242 ,  255 
E: 000002.129964 49 30 17 4e 00 00 00 00 00 00 5d 18 73 0b 29 02 53 01 e0 f0 21 ff 0d ff fb ff 2c 02 42 01 df f0 10 ff 13 ff fa ff 30 02 59 01 d8 f0 84 ff 48 ff f2 ff
# ReportID: 48 / 0xff010030:   26 ,   78 ,    0 ,    0 ,    0 ,    0 ,    0 ,    0 ,   92 ,   40 ,  115 ,   11 ,   25 ,    2 ,  220 ,    1 ,   27 ,  241 ,  249 ,  255 ,   31 ,  255 ,    2 ,    0 ,   21 ,    2 ,  178 ,    1 ,   35 ,  241 ,  160 ,  255 ,   36 ,  255 ,  250 ,  255 ,   28 ,    2 ,  113 ,    1 ,  243 ,  240 ,   92 ,  255 ,   30 ,  255 ,  250 ,  255 
E: 000002.144923 49 30 1a 4e 00 00 00 00 00 00 5c 28 73 0b 19 02 dc 01 1b f1 f9 ff 1f ff 02 00 15 02 b2 01 23 f1 a0 ff 24 ff fa ff 1c 02 71 01 f3 f0 5c ff 1e ff fa ff
# ReportID: 48 / 0xff010030:   29 ,   78 ,    0 ,    0 ,    0 ,    0 ,    0 ,    0 ,   91 ,   40 ,  115 ,   11 ,   55 ,    2 ,  134 ,    1 ,  219 ,  240 ,   78 ,    1 ,   54 ,  255 ,    2 ,    0 ,   66 ,    2 ,  170 ,    1 ,  214 ,  240 ,  245 ,    0 ,   49 ,  255 ,   10 ,    0 ,   47 ,    2 ,  202 ,    1 ,  236 ,  240 ,  112 ,    0 ,   35 ,  255 ,   12 ,    0 
E: 000002.159872 49 30 1d 4e 00 00 00 00 00 00 5b 28 73 0b 37 02 86 01 db f0 4e 01 36 ff 02 00 42 02 aa 01 d6 f0 f5 00 31 ff 0a 00 2f 02 ca 01 ec f0 70 00 23 ff 0c 00
# ReportID: 48 / 0xff010030:   32 ,   78 ,    0 ,    0 ,    0 ,    0 ,    0 ,    0 ,   92 ,   24 ,  115 ,   11 ,  232 ,    1 ,  204 ,    0 ,   43 ,  240 ,  252 ,    1 ,   60 ,  255 ,  253 ,  255 ,  251 ,    1 ,   26 ,    1 ,  135 ,  240 ,  223 ,    1 ,   51 ,  255 ,  255 ,  255 ,   25 ,    2 ,   84 ,    1 ,  185 ,  240 ,  161 ,    1 ,   50 ,  255 ,  254 ,  255 
E: 000002.174855 49 30 20 4e 00 00 00 00 00 00 5c 18 73 0b e8 01 cc 00 2b f0 fc 01 3c ff fd ff fb 01 1a 01 87 f0 df 01 33 ff ff ff 19 02 54 01 b9 f0 a1 01 32 ff fe ff
# ReportID: 48 / 0xff010030:   35 ,   78 ,    0 ,    0 ,    0 ,    0 ,    0 ,    0 ,   92 ,   24 ,  115 ,   11 ,  211 ,    1 ,   79 ,    0 ,  200 ,  239 ,  145 ,    0 ,  120 ,  255 ,  236 ,  255 ,  216 ,    1 ,   78 ,    0 ,  150 ,  239 ,   57 ,    1 ,  100 ,  255 ,  238 ,  255 ,  231 ,    1 ,  129 ,    0 ,  202 ,  239 ,  211 ,    1 ,   78 ,  255 ,  247 ,  255 
E: 000002.190929 49 30 23 4e 00 00 00 00 00 00 5c 18 73 0b d3 01 4f 00 c8 ef 91 00 78 ff ec ff d8 01 4e 00 96 ef 39 01 64 ff ee ff e7 01 81 00 ca ef d3 01 4e ff f7 ff
# ReportID: 48 / 0xff010030:   38 ,   78 ,    0 ,    0 ,    0 ,    0 ,    0 ,    0 ,   93 ,    8 ,  115 ,   11 ,  249 ,    1 ,   31 ,    1 ,  141 ,  240 ,  165 ,  255 ,  196 ,  255 ,    6 ,    0 ,  220 ,    1 ,  210 ,    0 ,   84 ,  240 ,  178 ,  255 ,  175 ,  255 ,  249 ,  255 ,  217 ,    1 ,  128 ,    0 ,   10 ,  240 ,  245 ,  255 ,  152 ,  255 ,  240 ,  255 
E: 000002.204855 49 30 26 4e 00 00 00 00 00 00 5d 08 73 0b f9 01 1f 01 8d f0 a5 ff c4 ff 06 00 dc 01 d2 00 54 f0 b2 ff af ff f9 ff d9 01 80 00 0a f0 f5 ff 98 ff f0 ff
# ReportID: 48 / 0xff010030:   41 ,   78 ,    0 ,    0 ,    0 ,    0 ,    0 ,    0 ,   92 ,   24 ,  115 ,   11 ,   37 ,    2 ,   82 ,    1 ,  136 ,  240 ,   13 ,    0 ,  196 ,  255 ,   12 ,    0 ,   44 ,    2 ,   93 ,    1 ,  169 ,  240 ,  231 ,  255 ,  205 ,  255 ,   15 ,    0 ,   19 ,    2 ,   80 ,    1 ,  157 ,  240 ,  193 ,  255 ,  205 ,  255 ,   13 ,    0 
E: 000002.219999 49 30 29 4e 00 00 00 00 00 00 5c 18 73 0b 25 02 52 01 88 f0 0d 00 c4 ff 0c 00 2c 02 5d 01 a9 f0 e7 ff cd ff 0f 00 13 02 50 01 9d f0 c1 ff cd ff 0d 00
# ReportID: 48 / 0xff010030:   44 ,   78 ,    0 ,    0 ,    0 ,    0 ,    0 ,    0 ,   92 ,   40 ,  115 ,   11 ,  243 ,    1 ,   49 ,    1 ,  162 ,  240 ,   23 ,    0 ,  132 ,  255 ,   16 ,    0 ,  243 ,    1 ,   60 ,    1 ,  168 ,  240 ,   23 ,    0 ,  151 ,  255 ,   13 ,    0 ,    3 ,    2 ,   75 ,    1 ,  146 ,  240 ,   27 ,    0 ,  171 ,  255 ,   10 ,    0 
E: 000002.235839 49 30 2c 4e 00 00 00 00 00 00 5c 28 73 0b f3 01 31 01 a2 f0 17 00 84 ff 10 00 f3 01 3c 01 a8 f0 17 00 97 ff 0d 00 03 02 4b 01 92 f0 1b 00 ab ff 0a 00
# ReportID: 48 / 0xff010030:   47 ,   78 ,    0 ,    0 ,    0 ,    0 ,    0 ,    0 ,   93 ,   24 ,  115 ,   11 ,  221 ,    1 ,  249 ,    0 ,  165 ,  240 ,  156 ,  255 ,   88 ,  255 ,   12 ,    0 ,  228 ,    1 ,  247 ,    0 ,  157 ,  240 ,  212 ,  255 ,   96 ,  255 ,   16 ,    0 ,  245 ,    1 ,   12 ,    1 ,  147 ,  240 ,   13 ,    0 ,  115 ,  255 ,   18 ,    0 
E: 000002.250893 49 30 2f 4e 00 00 00 00 00 00 5d 18 73 0b dd 01 f9 00 a5 f0 9c ff 58 ff 0c 00 e4 01 f7 00 9d f0 d4 ff 60 ff 10 00 f5 01 0c 01 93 f0 0d 00 73 ff 12 00
# ReportID: 48 / 0xff010030:   50 ,   78 ,    0 ,    0 ,    0 ,    0 ,    0 ,    0 ,   91 ,   56 ,  115 ,   11 ,  253 ,    1 ,   17 ,    1 ,  181 ,  240 ,   55 ,  255 ,   98 ,  255 ,   12 ,    0 ,  246 ,    1 ,    3 ,    1 ,  188 ,  240 ,   76 ,  255 ,   94 ,  255 ,   15 ,    0 ,  223 ,    1 ,  254 ,    0 ,  176 ,  240 ,  110 ,  255 ,   89 ,  255 ,   11 ,    0 
E: 000002.264935 49 30 32 4e 00 00 00 00 00 00 5b 38 73 0b fd 01 11 01 b5 f0 37 ff 62 ff 0c 00 f6 01 03 01 bc f0 4c ff 5e ff 0f 00 df 01 fe 00 b0 f0 6e ff 59 ff 0b 00
# ReportID: 48 / 0xff010030:   53 ,   78 ,    0 ,    0 ,    0 ,    0 ,    0 ,    0 ,   91 ,   24 ,  115 ,   11 ,  206 ,    1 ,  237 ,    0 ,   97 ,  240 ,   39 ,  255 ,   91 ,  255 ,   14 ,    0 ,  219 ,    1 ,   25 ,    1 ,  135 ,  240 ,   51 ,  255 ,   94 ,  255 ,   12 ,    0 ,  239 ,    1 ,   39 ,    1 ,  167 ,  240 ,   52 ,  255 ,   97 ,  255 ,   11 ,    0 
E: 000002.279890 49 30 35 4e 00 00 00 00 00 00 5b 18 73 0b ce 01 ed 00 61 f0 27 ff 5b ff 0e 00 db 01 19 01 87 f0 33 ff 5e ff 0c 00 ef 01 27 01 a7 f0 34 ff 61 ff 0b 00
# ReportID: 48 / 0xff010030:   56 ,   78 ,    0 ,    0 ,    0 ,    0 ,    0 ,    0 ,   92 ,    8 ,  115 ,   11 ,  190 ,    1 ,  218 ,    0 ,   75 ,  240 ,  174 ,  254 ,  121 ,  255 ,  248 ,  255 ,  203 ,    1 ,  197 ,    0 ,   76 ,  240 ,  206 ,  254 ,  107 ,  255 ,    3 ,    0 ,  204 ,    1 ,  210 ,    0 ,   71 ,  240 ,  253 ,  254 ,   96 ,  255 ,    9 ,    0 
E: 000002.294874 49 30 38 4e 00 00 00 00 00 00 5c 08 73 0b be 01 da 00 4b f0 ae fe 79 ff f8 ff cb 01 c5 00 4c f0 ce fe 6b ff 03 00 cc 01 d2 00 47 f0 fd fe 60 ff 09 00
# ReportID: 48 / 0xff010030:   59 ,   78 ,    0 ,    0 ,    0 ,    0 ,    0 ,    0 ,   92 ,   24 ,  115 ,   11 ,  190 ,    1 ,   55 ,    1 ,  137 ,  240 ,  209 ,  254 ,  151 ,  255 ,  230 ,  255 ,  192 ,    1 ,   34 ,    1 ,  123 ,  240 ,  175 ,  254 ,  144 ,  255 ,  231 ,  255 ,  193 ,    1 ,  251 ,    0 ,  103 ,  240 ,  160 ,  254 ,  132 ,  255 ,  239 ,  255 
E: 000002.309959 49 30 3b 4e 00 00 00 00 00 00 5c 18 73 0b be 01 37 01 89 f0 d1 fe 97 ff e6 ff c0 01 22 01 7b f0 af fe 90 ff e7 ff c1 01 fb 00 67 f0 a0 fe 84 ff ef ff
# ReportID: 48 / 0xff010030:   62 ,   78 ,    0 ,    0 ,    0 ,    0 ,    0 ,    0 ,   92 ,   40 ,  115 ,   11 ,  204 ,    1 ,  109 ,    1 ,   90 ,  240 ,   52 ,  255 ,  179 ,  255 ,  234 ,  255 ,  190 ,    1 ,   96 ,    1 ,   98 ,  240 ,   29 ,  255 ,  167 ,  255 ,  230 ,  255 ,  180 ,    1 ,   77 ,    1 ,  122 ,  240 ,  252 ,  254 ,  158 ,  255 ,  230 ,  255 
E: 000002.324781 49 30 3e 4e 00 00 00 00 00 00 5c 28 73 0b cc 01 6d 01 5a f0 34 ff b3 ff ea ff be 01 60 01 62 f0 1d ff a7 ff e6 ff b4 01 4d 01 7a f0 fc fe 9e ff e6 ff
# ReportID: 48 / 0xff010030:   65 ,   78 ,    0 ,    0 ,    0 ,    0 ,    0 ,    0 ,   93 ,   24 ,  115 ,   11 ,  214 ,    1 ,  195 ,    1 ,  136 ,  240 ,  123 ,  255 ,  197 ,  255 ,    1 ,    0 ,  196 ,    1 ,  160 ,    1 ,  117 ,  240 ,   92 ,  255 ,  195 ,  255 ,  249 ,  255 ,  198 ,    1 ,  135 ,    1 ,   94 ,  240 ,   64 ,  255 ,  186 ,  255 ,  237 ,  255 
E: 000002.340933 49 30 41 4e 00 00 00 00 00 00 5d 18 73 0b d6 01 c3 01 88 f0 7b ff c5 ff 01 00 c4 01 a0 01 75 f0 5c ff c3 ff f9 ff c6 01 87 01 5e f0 40 ff ba ff ed ff
# ReportID: 48 / 0xff010030:   68 ,   78 ,    0 ,    0 ,    0 ,    0 ,    0 ,    0 ,   92 ,   24 ,  115 ,   11 ,  207 ,    1 ,  252 ,    1 ,  157 ,  240 ,  234 ,  255 ,  168 ,  255 ,   12 ,    0 ,  205 ,    1 ,    4 ,    2 ,  173 ,  240 ,  196 ,  255 ,  179 ,  255 ,    5 ,    0 ,  206 ,    1 ,  244 ,    1 ,  141 ,  240 ,  159 ,  255 ,  191 ,  255 ,    0 ,    0 
E: 000002.354853 49 30 44 4e 00 00 00 00 00 00 5c 18 73 0b cf 01 fc 01 9d f0 ea ff a8 ff 0c 00 cd 01 04 02 ad f0 c4 ff b3 ff 05 00 ce 01 f4 01 8d f0 9f ff bf ff 00 00
# ReportID: 48 / 0xff010030:   71 ,   78 ,    0 ,    0 ,    0 ,    0 ,    0 ,    0 ,   91 ,   40 ,  115 ,   11 ,  186 ,    1 ,  223 ,    1 ,  243 ,  240 ,  240 ,  255 ,  155 ,  255 ,   22 ,    0 ,  184 ,    1 ,  229 ,    1 ,  240 ,  240 ,  231 ,  255 ,  158 ,  255 ,   16 ,    0 ,  203 ,    1 ,  239 ,    1 ,  169 ,  240 ,  243 ,  255 ,  161 ,  255 ,    7 ,    0 
E: 000002.370006 49 30 47 4e 00 00 00 00 00 00 5b 28 73 0b ba 01 df 01 f3 f0 f0 ff 9b ff 16 00 b8 01 e5 01 f0 f0 e7 ff 9e ff 10 00 cb 01 ef 01 a9 f0 f3 ff a1 ff 07 00
# ReportID: 48 / 0xff010030:   74 ,   78 ,    0 ,    0 ,    0 ,    0 ,    0 ,    0 ,   91 ,   24 ,  115 ,   11 ,  163 ,    1 ,  115 ,    1 ,  160 ,  240 ,   26 ,    0 ,  184 ,  255 ,  253 ,  255 ,  169 ,    1 ,  160 ,    1 ,  194 ,  240 ,   16 ,    0 ,  170 ,  255 ,   13 ,    0 ,  187 ,    1 ,  200 ,    1 ,  215 ,  240 ,    8 ,    0 ,  160 ,  255 ,   24 ,    0 
E: 000002.387436 49 30 4a 4e 00 00 00 00 00 00 5b 18 73 0b a3 01 73 01 a0 f0 1a 00 b8 ff fd ff a9 01 a0 01 c2 f0 10 00 aa ff 0d 00 bb 01 c8 01 d7 f0 08 00 a0 ff 18 00
# ReportID: 48 / 0xff010030:   77 ,   78 ,    0 ,    0 ,    0 ,    0 ,    0 ,    0 ,   91 ,   24 ,  115 ,   11 ,  151 ,    1 ,   36 ,    1 ,   87 ,  240 ,   38 ,    0 ,  243 ,  255 ,  214 ,  255 ,  151 ,    1 ,   40 ,    1 ,  109 ,  240 ,   35 ,    0 ,  224 ,  255 ,  220 ,  255 ,  157 ,    1 ,   71 ,    1 ,  134 ,  240 ,   35 ,    0 ,  201 ,  255 ,  236 ,  255 
E: 000002.401081 49 30 4d 4e 00 00 00 00 00 00 5b 18 73 0b 97 01 24 01 57 f0 26 00 f3 ff d6 ff 97 01 28 01 6d f0 23 00 e0 ff dc ff 9d 01 47 01 86 f0 23 00 c9 ff ec ff
# ReportID: 48 / 0xff010030:   80 ,   78 ,    0 ,    0 ,    0 ,    0 ,    0 ,    0 ,   91 ,    8 ,  115 ,   11 ,  174 ,    1 ,   39 ,    1 ,    7 ,  240 ,   43 ,    0 ,   13 ,    0 ,  217 ,  255 ,  154 ,    1 ,   42 ,    1 ,   42 ,  240 ,   60 ,    0 ,    9 ,    0 ,  217 ,  255 ,  148 ,    1 ,   40 ,    1 ,   99 ,  240 ,   42 ,    0 ,    4 ,    0 ,  215 ,  255 
E: 000002.414935 49 30 50 4e 00 00 00 00 00 00 5b 08 73 0b ae 01 27 01 07 f0 2b 00 0d 00 d9 ff 9a 01 2a 01 2a f0 3c 00 09 00 d9 ff 94 01 28 01 63 f0 2a 00 04 00 d7 ff
# ReportID: 48 / 0xff010030:   83 ,   78 ,    0 ,    0 ,    0 ,    0 ,    0 ,    0 ,   93 ,   40 ,  115 ,   11 ,  131 ,    1 ,   66 ,    1 ,   54 ,  240 ,  202 ,  255 ,   13 ,    0 ,  195 ,  255 ,  147 ,    1 ,   59 ,    1 ,   26 ,  240 ,  223 ,  255 ,   14 ,    0 ,  192 ,  255 ,  164 ,    1 ,   41 ,    1 ,    9 ,  240 ,  255 ,  255 ,   16 ,    0 ,  204 ,  255 
E: 000002.429969 49 30 53 4e 00 00 00 00 00 00 5d 28 73 0b 83 01 42 01 36 f0 ca ff 0d 00 c3 ff 93 01 3b 01 1a f0 df ff 0e 00 c0 ff a4 01 29 01 09 f0 ff ff 10 00 cc ff
# ReportID: 48 / 0xff010030:   86 ,   78 ,    0 ,    0 ,    0 ,    0 ,    0 ,    0 ,   92 ,   40 ,  115 ,   11 ,  155 ,    1 ,   84 ,    1 ,  158 ,  240 ,  199 ,  255 ,   30 ,    0 ,  226 ,  255 ,  128 ,    1 ,   68 ,    1 ,  131 ,  240 ,  195 ,  255 ,   24 ,    0 ,  217 ,  255 ,  113 ,    1 ,   61 ,    1 ,   99 ,  240 ,  191 ,  255 ,   18 ,    0 ,  205 ,  255 
E: 000002.445863 49 30 56 4e 00 00 00 00 00 00 5c 28 73 0b 9b 01 54 01 9e f0 c7 ff 1e 00 e2 ff 80 01 44 01 83 f0 c3 ff 18 00 d9 ff 71 01 3d 01 63 f0 bf ff 12 00 cd ff
# ReportID: 48 / 0xff010030:   89 ,   78 ,    0 ,    0 ,    0 ,    0 ,    0 ,    0 ,   92 ,   24 ,  115 ,   11 ,  239 ,    1 ,  189 ,    1 ,  162 ,  240 ,  248 ,  255 ,   36 ,    0 ,  247 ,  255 ,  184 ,    1 ,  173 ,    1 ,  184 ,  240 ,  239 ,  255 ,   30 ,    0 ,  239 ,  255 ,  148 ,    1 ,  126 ,    1 ,  225 ,  240 ,  209 ,  255 ,   30 ,    0 ,  231 ,  255 
E: 000002.461013 49 30 59 4e 00 00 00 00 00 00 5c 18 73 0b ef 01 bd 01 a2 f0 f8 ff 24 00 f7 ff b8 01 ad 01 b8 f0 ef ff 1e 00 ef ff 94 01 7e 01 e1 f0 d1 ff 1e 00 e7 ff
# ReportID: 48 / 0xff010030:   92 ,   78 ,    0 ,    0 ,    0 ,    0 ,    0 ,    0 ,   93 ,   24 ,  115 ,   11 ,  252 ,    1 ,  182 ,    1 ,  129 ,  240 ,  200 ,  255 ,    1 ,    0 ,  229 ,  255 ,   10 ,    2 ,  191 ,    1 ,  118 ,  240 ,  221 ,  255 ,   18 ,    0 ,  234 ,  255 ,    7 ,    2 ,  197 ,    1 ,  108 ,  240 ,  240 ,  255 ,   33 ,    0 ,  244 ,  255 
E: 000002.474863 49 30 5c 4e 00 00 00 00 00 00 5d 18 73 0b fc 01 b6 01 81 f0 c8 ff 01 00 e5 ff 0a 02 bf 01 76 f0 dd ff 12 00 ea ff 07 02 c5 01 6c f0 f0 ff 21 00 f4 ff
# ReportID: 48 / 0xff010030:   95 ,   78 ,    0 ,    0 ,    0 ,    0 ,    0 ,    0 ,   93 ,   40 ,  115 ,   11 ,  250 ,    1 ,   93 ,    1 ,  135 ,  240 ,  136 ,  255 ,  185 ,  255 ,  208 ,  255 ,  255 ,    1 ,  109 ,    1 ,  163 ,  240 ,  160 ,  255 ,  206 ,  255 ,  217 ,  255 ,  249 ,    1 ,  154 ,    1 ,  139 ,  240 ,  183 ,  255 ,  226 ,  255 ,  225 ,  255 
E: 000002.489840 49 30 5f 4e 00 00 00 00 00 00 5d 28 73 0b fa 01 5d 01 87 f0 88 ff b9 ff d0 ff ff 01 6d 01 a3 f0 a0 ff ce ff d9 ff f9 01 9a 01 8b f0 b7 ff e2 ff e1 ff
# ReportID: 48 / 0xff010030:   98 ,   78 ,    0 ,    0 ,    0 ,    0 ,    0 ,    0 ,   92 ,   24 ,  115 ,   11 ,  209 ,    1 ,  114 ,    1 ,  151 ,  240 ,   87 ,  255 ,  181 ,  255 ,  213 ,  255 ,  233 ,    1 ,   96 ,    1 ,  163 ,  240 ,   75 ,  255 ,  176 ,  255 ,  207 ,  255 ,  247 ,    1 ,   92 ,    1 ,  134 ,  240 ,  106 ,  255 ,  171 ,  255 ,  202 ,  255 
E: 000002.504899 49 30 62 4e 00 00 00 00 00 00 5c 18 73 0b d1 01 72 01 97 f0 57 ff b5 ff d5 ff e9 01 60 01 a3 f0 4b ff b0 ff cf ff f7 01 5c 01 86 f0 6a ff ab ff ca ff
# ReportID: 48 / 0xff010030:  101 ,   78 ,    4 ,    0 ,    0 ,    0 ,    0 ,    0 ,   92 ,   24 ,  115 ,   11 ,  109 ,    2 ,   38 ,    1 ,  163 ,  240 ,   47 ,    0 ,  230 ,  255 ,  232 ,  255 ,  183 ,    1 ,  182 ,    1 ,   51 ,  241 ,  186 ,  255 ,  199 ,  255 ,  227 ,  255 ,  113 ,    1 ,  182 ,    1 ,   86 ,  240 ,  117 ,  255 ,  185 ,  255 ,  218 ,  255 
E: 000002.520833 49 30 65 4e 04 00 00 00 00 00 5c 18 73 0b 6d 02 26 01 a3 f0 2f 00 e6 ff e8 ff b7 01 b6 01 33 f1 ba ff c7 ff e3 ff 71 01 b6 01 56 f0 75 ff b9 ff da ff
# ReportID: 48 / 0xff010030:  104 ,   78 ,    4 ,    0 ,    0 ,    0 ,    0 ,    0 ,   92 ,   24 ,  115 ,   11 ,  114 ,    1 ,   72 ,    1 ,   68 ,  240 ,  226 ,  255 ,  200 ,  255 ,  248 ,  255 ,  114 ,    1 ,   25 ,    1 ,   58 ,  240 ,  243 ,  255 ,  203 ,  255 ,  224 ,  255 ,  211 ,    1 ,  254 ,    0 ,   36 ,  240 ,   49 ,    0 ,  217 ,  255 ,  208 ,  255 
E: 000002.534964 49 30 68 4e 04 00 00 00 00 00 5c 18 73 0b 72 01 48 01 44 f0 e2 ff c8 ff f8 ff 72 01 19 01 3a f0 f3 ff cb ff e0 ff d3 01 fe 00 24 f0 31 00 d9 ff d0 ff
# ReportID: 48 / 0xff010030:  107 ,   78 ,    4 ,    0 ,    0 ,    0 ,    0 ,    0 ,   92 ,   40 ,  115 ,   11 ,  196 ,    1 ,  189 ,    1 ,  141 ,  240 ,  228 ,  255 ,  234 ,  255 ,  254 ,  255 ,  161 ,    1 ,  163 ,    1 ,  130 ,  240 ,  226 ,  255 ,  223 ,  255 ,  254 ,  255 ,  133 ,    1 ,  115 ,    1 ,   91 ,  240 ,  232 ,  255 ,  206 ,  255 ,  249 ,  255 
E: 000002.549866 49 30 6b 4e 04 00 00 00 00 00 5c 28 73 0b c4 01 bd 01 8d f0 e4 ff ea ff fe ff a1 01 a3 01 82 f0 e2 ff df ff fe ff 85 01 73 01 5b f0 e8 ff ce ff f9 ff
# ReportID: 48 / 0xff010030:  110 ,   78 ,    4 ,    0 ,    0 ,    0 ,    0 ,    0 ,   91 ,   40 ,  115 ,   11 ,  210 ,    1 ,    2 ,    2 ,  236 ,  240 ,  241 ,  255 ,  220 ,  255 ,  246 ,  255 ,  221 ,    1 ,  239 ,    1 ,  187 ,  240 ,  231 ,  255 ,  229 ,  255 ,  247 ,  255 ,  227 ,    1 ,  205 ,    1 ,  159 ,  240 ,  233 ,  255 ,  235 ,  255 ,  251 ,  255 
E: 000002.564868 49 30 6e 4e 04 00 00 00 00 00 5b 28 73 0b d2 01 02 02 ec f0 f1 ff dc ff f6 ff dd 01 ef 01 bb f0 e7 ff e5 ff f7 ff e3 01 cd 01 9f f0 e9 ff eb ff fb ff
# ReportID: 48 / 0xff010030:  113 ,   78 ,    4 ,    0 ,    0 ,    0 ,    0 ,    0 ,   92 ,   24 ,  115 ,   11 ,  216 ,    1 ,  226 ,    1 ,   78 ,  241 ,   21 ,    0 ,  190 ,  255 ,  230 ,  255 ,  252 ,    1 ,  235 ,    1 ,  238 ,  240 ,   22 ,    0 ,  204 ,  255 ,  238 ,  255 ,  226 ,    1 ,    4 ,    2 ,  241 ,  240 ,    8 ,    0 ,  212 ,  255 ,  244 ,  255 
E: 000002.580008 49 30 71 4e 04 00 00 00 00 00 5c 18 73 0b d8 01 e2 01 4e f1 15 00 be ff e6 ff fc 01 eb 01 ee f0 16 00 cc ff ee ff e2 01 04 02 f1 f0 08 00 d4 ff f4 ff
# ReportID: 48 / 0xff010030:  116 ,   78 ,    4 ,    0 ,    0 ,    0 ,    0 ,    0 ,   92 ,   40 ,  115 ,   11 ,  169 ,    1 ,  129 ,    1 ,   64 ,  240 ,  249 ,  255 ,  179 ,  255 ,  219 ,  255 ,  220 ,    1 ,  152 ,    1 ,  109 ,  240 ,   47 ,    0 ,  177 ,  255 ,  226 ,  255 ,  211 ,    1 ,  206 ,    1 ,  238 ,  240 ,   46 ,    0 ,  181 ,  255 ,  228 ,  255 
E: 000002.595861 49 30 74 4e 04 00 00 00 00 00 5c 28 73 0b a9 01 81 01 40 f0 f9 ff b3 ff db ff dc 01 98 01 6d f0 2f 00 b1 ff e2 ff d3 01 ce 01 ee f0 2e 00 b5 ff e4 ff
# ReportID: 48 / 0xff010030:  119 ,   78 ,    4 ,    0 ,    0 ,    0 ,    0 ,    0 ,   93 ,   40 ,  115 ,   11 ,   94 ,    1 ,   99 ,    1 ,  203 ,  239 ,  176 ,  255 ,  222 ,  255 ,  224 ,  255 ,   82 ,    1 ,  112 ,    1 ,  249 ,  239 ,  189 ,  255 ,  201 ,  255 ,  226 ,  255 ,  107 ,    1 ,  123 ,    1 ,   34 ,  240 ,  207 ,  255 ,  185 ,  255 ,  219 ,  255 
E: 000002.609905 49 30 77 4e 04 00 00 00 00 00 5d 28 73 0b 5e 01 63 01 cb ef b0 ff de ff e0 ff 52 01 70 01 f9 ef bd ff c9 ff e2 ff 6b 01 7b 01 22 f0 cf ff b9 ff db ff
# ReportID: 48 / 0xff010030:  122 ,   78 ,    4 ,    0 ,    0 ,    0 ,    0 ,    0 ,   92 ,   24 ,  115 ,   11 ,  100 ,    1 ,  179 ,    1 ,  234 ,  239 ,  200 ,  255 ,    3 ,    0 ,  231 ,  255 ,   94 ,    1 ,  137 ,    1 ,  221 ,  239 ,  178 ,  255 ,  250 ,  255 ,  224 ,  255 ,   94 ,    1 ,  104 ,    1 ,  204 ,  239 ,  164 ,  255 ,  238 ,  255 ,  221 ,  255 
