# Sony Interactive Entertainment DualSense Wireless Controller
# 0x05, 0x01,                    // Usage Page (Generic Desktop)        0
# 0x09, 0x05,                    // Usage (Game Pad)                    2
# 0xa1, 0x01,                    // Collection (Application)            4
# 0x85, 0x01,                    //  Report ID (1)                      6
# 0x09, 0x30,                    //  Usage (X)                          8
# 0x09, 0x31,                    //  Usage (Y)                          10
# 0x09, 0x32,                    //  Usage (Z)                          12
# 0x09, 0x35,                    //  Usage (Rz)                         14
# 0x09, 0x33,                    //  Usage (Rx)                         16
# 0x09, 0x34,                    //  Usage (Ry)                         18
# 0x15, 0x00,                    //  Logical Minimum (0)                20
# 0x26, 0xff, 0x00,              //  Logical Maximum (255)              22
# 0x75, 0x08,                    //  Report Size (8)                    25
# 0x95, 0x06,                    //  Report Count (6)                   27
# 0x81, 0x02,                    //  Input (Data,Var,Abs)               29
# 0x06, 0x00, 0xff,              //  Usage Page (Vendor Defined Page 1) 31
# 0x09, 0x20,                    //  Usage (Vendor Usage 0x20)          34
# 0x95, 0x01,                    //  Report Count (1)                   36
# 0x81, 0x02,                    //  Input (Data,Var,Abs)               38
# 0x05, 0x01,                    //  Usage Page (Generic Desktop)       40
# 0x09, 0x39,                    //  Usage (Hat switch)                 42
# 0x15, 0x00,                    //  Logical Minimum (0)                44
# 0x25, 0x07,                    //  Logical Maximum (7)                46
# 0x35, 0x00,                    //  Physical Minimum (0)               48
# 0x46, 0x3b, 0x01,              //  Physical Maximum (315)             50
# 0x65, 0x14,                    //  Unit (EnglishRotation: deg)        53
# 0x75, 0x04,                    //  Report Size (4)                    55
# 0x95, 0x01,                    //  Report Count (1)                   57
# 0x81, 0x42,                    //  Input (Data,Var,Abs,Null)          59
# 0x65, 0x00,                    //  Unit (None)                        61
# 0x05, 0x09,                    //  Usage Page (Button)                63
# 0x19, 0x01,                    //  Usage Minimum (1)                  65
# 0x29, 0x0f,                    //  Usage Maximum (15)                 67
# 0x15, 0x00,                    //  Logical Minimum (0)                69
# 0x25, 0x01,                    //  Logical Maximum (1)                71
# 0x75, 0x01,                    //  Report Size (1)                    73
# 0x95, 0x0f,                    //  Report Count (15)                  75
# 0x81, 0x02,                    //  Input (Data,Var,Abs)               77
# 0x06, 0x00, 0xff,              //  Usage Page (Vendor Defined Page 1) 79
# 0x09, 0x21,                    //  Usage (Vendor Usage 0x21)          82
# 0x95, 0x0d,                    //  Report Count (13)                  84
# 0x81, 0x02,                    //  Input (Data,Var,Abs)               86
# 0x06, 0x00, 0xff,              //  Usage Page (Vendor Defined Page 1) 88
# 0x09, 0x22,                    //  Usage (Vendor Usage 0x22)          91
# 0x15, 0x00,                    //  Logical Minimum (0)                93
# 0x26, 0xff, 0x00,              //  Logical Maximum (255)              95
# 0x75, 0x08,                    //  Report Size (8)                    98
# 0x95, 0x34,                    //  Report Count (52)                  100
# 0x81, 0x02,                    //  Input (Data,Var,Abs)               102
# 0x85, 0x02,                    //  Report ID (2)                      104
# 0x09, 0x23,                    //  Usage (Vendor Usage 0x23)          106
# 0x95, 0x2f,                    //  Report Count (47)                  108
# 0x91, 0x02,                    //  Output (Data,Var,Abs)              110
# 0x85, 0x05,                    //  Report ID (5)                      112
# 0x09, 0x33,                    //  Usage (Vendor Usage 0x33)          114
# 0x95, 0x28,                    //  Report Count (40)                  116
# 0xb1, 0x02,                    //  Feature (Data,Var,Abs)             118
# 0x85, 0x08,                    //  Report ID (8)                      120
# 0x09, 0x34,                    //  Usage (Vendor Usage 0x34)          122
# 0x95, 0x2f,                    //  Report Count (47)                  124
# 0xb1, 0x02,                    //  Feature (Data,Var,Abs)             126
# 0x85, 0x09,                    //  Report ID (9)                      128
# 0x09, 0x24,                    //  Usage (Vendor Usage 0x24)          130
# 0x95, 0x13,                    //  Report Count (19)                  132
# 0xb1, 0x02,                    //  Feature (Data,Var,Abs)             134
# 0x85, 0x0a,                    //  Report ID (10)                     136
# 0x09, 0x25,                    //  Usage (Vendor Usage 0x25)          138
# 0x95, 0x1a,                    //  Report Count (26)                  140
# 0xb1, 0x02,                    //  Feature (Data,Var,Abs)             142
# 0x85, 0x20,                    //  Report ID (32)                     144
# 0x09, 0x26,                    //  Usage (Vendor Usage 0x26)          146
# 0x95, 0x3f,                    //  Report Count (63)                  148
# 0xb1, 0x02,                    //  Feature (Data,Var,Abs)             150
# 0x85, 0x21,                    //  Report ID (33)                     152
# 0x09, 0x27,                    //  Usage (Vendor Usage 0x27)          154
# 0x95, 0x04,                    //  Report Count (4)                   156
# 0xb1, 0x02,                    //  Feature (Data,Var,Abs)             158
# 0x85, 0x22,                    //  Report ID (34)                     160
# 0x09, 0x40,                    //  Usage (Vendor Usage 0x40)          162
# 0x95, 0x3f,                    //  Report Count (63)                  164
# 0xb1, 0x02,                    //  Feature (Data,Var,Abs)             166
# 0x85, 0x80,                    //  Report ID (128)                    168
# 0x09, 0x28,                    //  Usage (Vendor Usage 0x28)          170
# 0x95, 0x3f,                    //  Report Count (63)                  172
# 0xb1, 0x02,                    //  Feature (Data,Var,Abs)             174
# 0x85, 0x81,                    //  Report ID (129)                    176
# 0x09, 0x29,                    //  Usage (Vendor Usage 0x29)          178
# 0x95, 0x3f,                    //  Report Count (63)                  180
# 0xb1, 0x02,                    //  Feature (Data,Var,Abs)             182
# 0x85, 0x82,                    //  Report ID (130)                    184
# 0x09, 0x2a,                    //  Usage (Vendor Usage 0x2a)          186
# 0x95, 0x09,                    //  Report Count (9)                   188
# 0xb1, 0x02,                    //  Feature (Data,Var,Abs)             190
# 0x85, 0x83,                    //  Report ID (131)                    192
# 0x09, 0x2b,                    //  Usage (Vendor Usage 0x2b)          194
# 0x95, 0x3f,                    //  Report Count (63)                  196
# 0xb1, 0x02,                    //  Feature (Data,Var,Abs)             198
# 0x85, 0x84,                    //  Report ID (132)                    200
# 0x09, 0x2c,                    //  Usage (Vendor Usage 0x2c)          202
# 0x95, 0x3f,                    //  Report Count (63)                  204
# 0xb1, 0x02,                    //  Feature (Data,Var,Abs)             206
# 0x85, 0x85,                    //  Report ID (133)                    208
# 0x09, 0x2d,                    //  Usage (Vendor Usage 0x2d)          210
# 0x95, 0x02,                    //  Report Count (2)                   212
# 0xb1, 0x02,                    //  Feature (Data,Var,Abs)             214
# 0x85, 0xa0,                    //  Report ID (160)                    216
# 0x09, 0x2e,                    //  Usage (Vendor Usage 0x2e)          218
# 0x95, 0x01,                    //  Report Count (1)                   220
# 0xb1, 0x02,                    //  Feature (Data,Var,Abs)             222
# 0x85, 0xe0,                    //  Report ID (224)                    224
# 0x09, 0x2f,                    //  Usage (Vendor Usage 0x2f)          226
# 0x95, 0x3f,                    //  Report Count (63)                  228
# 0xb1, 0x02,                    //  Feature (Data,Var,Abs)             230
# 0x85, 0xf0,                    //  Report ID (240)                    232
# 0x09, 0x30,                    //  Usage (Vendor Usage 0x30)          234
# 0x95, 0x3f,                    //  Report Count (63)                  236
# 0xb1, 0x02,                    //  Feature (Data,Var,Abs)             238
# 0x85, 0xf1,                    //  Report ID (241)                    240
# 0x09, 0x31,                    //  Usage (Vendor Usage 0x31)          242
# 0x95, 0x3f,                    //  Report Count (63)                  244
# 0xb1, 0x02,                    //  Feature (Data,Var,Abs)             246
# 0x85, 0xf2,                    //  Report ID (242)                    248
# 0x09, 0x32,                    //  Usage (Vendor Usage 0x32)          250
# 0x95, 0x0f,                    //  Report Count (15)                  252
# 0xb1, 0x02,                    //  Feature (Data,Var,Abs)             254
# 0x85, 0xf4,                    //  Report ID (244)                    256
# 0x09, 0x35,                    //  Usage (Vendor Usage 0x35)          258
# 0x95, 0x3f,                    //  Report Count (63)                  260
# 0xb1, 0x02,                    //  Feature (Data,Var,Abs)             262
# 0x85, 0xf5,                    //  Report ID (245)                    264
# 0x09, 0x36,                    //  Usage (Vendor Usage 0x36)          266
# 0x95, 0x03,                    //  Report Count (3)                   268
# 0xb1, 0x02,                    //  Feature (Data,Var,Abs)             270
# 0xc0,                          // End Collection                      272
# 
R: 273 05 01 09 05 a1 01 85 01 09 30 09 31 09 32 09 35 09 33 09 34 15 00 26 ff 00 75 08 95 06 81 02 06 00 ff 09 20 95 01 81 02 05 01 09 39 15 00 25 07 35 00 46 3b 01 65 14 75 04 95 01 81 42 65 00 05 09 19 01 29 0f 15 00 25 01 75 01 95 0f 81 02 06 00 ff 09 21 95 0d 81 02 06 00 ff 09 22 15 00 26 ff 00 75 08 95 34 81 02 85 02 09 23 95 2f 91 02 85 05 09 33 95 28 b1 02 85 08 09 34 95 2f b1 02 85 09 09 24 95 13 b1 02 85 0a 09 25 95 1a b1 02 85 20 09 26 95 3f b1 02 85 21 09 27 95 04 b1 02 85 22 09 40 95 3f b1 02 85 80 09 28 95 3f b1 02 85 81 09 29 95 3f b1 02 85 82 09 2a 95 09 b1 02 85 83 09 2b 95 3f b1 02 85 84 09 2c 95 3f b1 02 85 85 09 2d 95 02 b1 02 85 a0 09 2e 95 01 b1 02 85 e0 09 2f 95 3f b1 02 85 f0 09 30 95 3f b1 02 85 f1 09 31 95 3f b1 02 85 f2 09 32 95 0f b1 02 85 f4 09 35 95 3f b1 02 85 f5 09 36 95 03 b1 02 c0
N: Sony Interactive Entertainment DualSense Wireless Controller
I: 3 054c 0ce6
# ReportID: 1 / X:  129 | Y:  127 | Z:  128 | Rz:  129 | Rx:    0 | Ry:    0 | 0xff000020:   87 | Hat switch:   8 | Button: 0  0  0  0  0  0  0  0  0  0  0  0  0  0  0 | 0xff000021: 0 , 0 , 0 , 0 , 0 , 0 , 0 , 0 , 0 , 0 , 0 , 0 , 0 | 0xff000022:   52 ,  252 ,   41 ,  235 ,  250 ,  255 ,  240 ,  255 ,   10 ,    0 ,   55 ,    0 ,  184 ,   30 ,   48 ,    5 ,  197 ,  102 ,  171 ,  195 ,    7 ,  128 ,    0 ,    0 ,    0 ,  128 ,    0 ,    0 ,    0 ,    0 ,    9 ,    9 ,    0 ,    0 ,    0 ,    0 ,    0 ,  105 ,  121 ,  171 ,  195 ,   40 ,    8 ,    0 ,  159 ,   48 ,  103 ,  146 ,  101 ,  187 ,  189 ,  175 
E: 000000.000000 64 01 81 7f 80 81 00 00 57 08 00 00 00 34 fc 29 eb fa ff f0 ff 0a 00 37 00 b8 1e 30 05 c5 66 ab c3 07 80 00 00 00 80 00 00 00 00 09 09 00 00 00 00 00 69 79 ab c3 28 08 00 9f 30 67 92 65 bb bd af
# ReportID: 1 / X:  129 | Y:  127 | Z:  128 | Rz:  129 | Rx:    0 | Ry:    0 | 0xff000020:   88 | Hat switch:   8 | Button: 0  0  0  0  0  0  0  0  0  0  0  0  0  0  0 | 0xff000021: 0 , 0 , 0 , 0 , 0 , 0 , 0 , 0 , 0 , 0 , 0 , 0 , 0 | 0xff000022:   53 ,  252 ,   41 ,  235 ,  252 ,  255 ,  240 ,  255 ,   11 ,    0 ,   39 ,    0 ,  117 ,   31 ,   66 ,    5 ,  184 ,  149 ,  171 ,  195 ,    7 ,  128 ,    0 ,    0 ,    0 ,  128 ,    0 ,    0 ,    0 ,    0 ,    9 ,    9 ,    0 ,    0 ,    0 ,    0 ,    0 ,   73 ,  168 ,  171 ,  195 ,   40 ,    8 ,    0 ,   62 ,  222 ,  169 ,   40 ,   11 ,  124 ,   84 ,    1 
E: 000000.001013 64 01 81 7f 80 81 00 00 58 08 00 00 00 35 fc 29 eb fc ff f0 ff 0b 00 27 00 75 1f 42 05 b8 95 ab c3 07 80 00 00 00 80 00 00 00 00 09 09 00 00 00 00 00 49 a8 ab c3 28 08 00 3e de a9 28 0b 7c 54 01
# ReportID: 1 / X:  129 | Y:  127 | Z:  128 | Rz:  129 | Rx:    0 | Ry:    0 | 0xff000020:   89 | Hat switch:   8 | Button: 0  0  0  0  0  0  0  0  0  0  0  0  0  0  0 | 0xff000021: 0 , 0 , 0 , 0 , 0 , 0 , 0 , 0 , 0 , 0 , 0 , 0 , 0 | 0xff000022:   54 ,  252 ,   41 ,  235 ,  247 ,  255 ,  240 ,  255 ,   10 ,    0 ,   49 ,    0 ,   56 ,   32 ,   58 ,    5 ,  171 ,  196 ,  171 ,  195 ,    7 ,  128 ,    0 ,    0 ,    0 ,  128 ,    0 ,    0 ,    0 ,    0 ,    9 ,    9 ,    0 ,    0 ,    0 ,    0 ,    0 ,   41 ,  215 ,  171 ,  195 ,   40 ,    8 ,    0 ,  210 ,  252 ,  138 ,  132 ,    7 ,  107 ,   28 ,   49 
E: 000000.005056 64 01 81 7f 80 81 00 00 59 08 00 00 00 36 fc 29 eb f7 ff f0 ff 0a 00 31 00 38 20 3a 05 ab c4 ab c3 07 80 00 00 00 80 00 00 00 00 09 09 00 00 00 00 00 29 d7 ab c3 28 08 00 d2 fc 8a 84 07 6b 1c 31
# ReportID: 1 / X:  129 | Y:  127 | Z:  128 | Rz:  129 | Rx:    0 | Ry:    0 | 0xff000020:   90 | Hat switch:   8 | Button: 0  0  0  0  0  0  0  0  0  0  0  0  0  0  0 | 0xff000021: 0 , 0 , 0 , 0 , 0 , 0 , 0 , 0 , 0 , 0 , 0 , 0 , 0 | 0xff000022:   55 ,  252 ,   41 ,  235 ,  245 ,  255 ,  240 ,  255 ,   10 ,    0 ,   19 ,    0 ,  198 ,   31 ,   40 ,    5 ,  158 ,  243 ,  171 ,  195 ,    7 ,  128 ,    0 ,    0 ,    0 ,  128 ,    0 ,    0 ,    0 ,    0 ,    9 ,    9 ,    0 ,    0 ,    0 ,    0 ,    0 ,    9 ,    6 ,  172 ,  195 ,   40 ,    8 ,    0 ,  146 ,   38 ,  158 ,  126 ,   51 ,  255 ,  228 ,  127 
E: 000000.008848 64 01 81 7f 80 81 00 00 5a 08 00 00 00 37 fc 29 eb f5 ff f0 ff 0a 00 13 00 c6 1f 28 05 9e f3 ab c3 07 80 00 00 00 80 00 00 00 00 09 09 00 00 00 00 00 09 06 ac c3 28 08 00 92 26 9e 7e 33 ff e4 7f
# ReportID: 1 / X:  129 | Y:  127 | Z:  128 | Rz:  129 | Rx:    0 | Ry:    0 | 0xff000020:   91 | Hat switch:   8 | Button: 0  0  0  0  0  0  0  0  0  0  0  0  0  0  0 | 0xff000021: 0 , 0 , 0 , 0 , 0 , 0 , 0 , 0 , 0 , 0 , 0 , 0 , 0 | 0xff000022:   56 ,  252 ,   41 ,  235 ,  247 ,  255 ,  239 ,  255 ,   11 ,    0 ,    8 ,    0 ,   99 ,   31 ,  248 ,    4 ,  145 ,   34 ,  172 ,  195 ,    7 ,  128 ,    0 ,    0 ,    0 ,  128 ,    0 ,    0 ,    0 ,    0 ,    9 ,    9 ,    0 ,    0 ,    0 ,    0 ,    0 ,  233 ,   52 ,  172 ,  195 ,   40 ,    8 ,    0 ,   24 ,  104 ,    0 ,   75 ,   16 ,  163 ,   63 ,   13 
E: 000000.013253 64 01 81 7f 80 81 00 00 5b 08 00 00 00 38 fc 29 eb f7 ff ef ff 0b 00 08 00 63 1f f8 04 91 22 ac c3 07 80 00 00 00 80 00 00 00 00 09 09 00 00 00 00 00 e9 34 ac c3 28 08 00 18 68 00 4b 10 a3 3f 0d
# ReportID: 1 / X:  129 | Y:  127 | Z:  128 | Rz:  129 | Rx:    0 | Ry:    0 | 0xff000020:   92 | Hat switch:   8 | Button: 0  0  0  0  0  0  0  0  0  0  0  0  0  0  0 | 0xff000021: 0 , 0 , 0 , 0 , 0 , 0 , 0 , 0 , 0 , 0 , 0 , 0 , 0 | 0xff000022:   57 ,  252 ,   41 ,  235 ,  245 ,  255 ,  239 ,  255 ,   10 ,    0 ,   24 ,    0 ,   54 ,   31 ,  237 ,    4 ,  132 ,   81 ,  172 ,  195 ,    7 ,  128 ,    0 ,    0 ,    0 ,  128 ,    0 ,    0 ,    0 ,    0 ,    9 ,    9 ,    0 ,    0 ,    0 ,    0 ,    0 ,  201 ,   99 ,  172 ,  195 ,   40 ,    8 ,    0 ,  172 ,  119 ,  174 ,   12 ,  142 ,  168 ,  140 ,  138 
E: 000000.017766 64 01 81 7f 80 81 00 00 5c 08 00 00 00 39 fc 29 eb f5 ff ef ff 0a 00 18 00 36 1f ed 04 84 51 ac c3 07 80 00 00 00 80 00 00 00 00 09 09 00 00 00 00 00 c9 63 ac c3 28 08 00 ac 77 ae 0c 8e a8 8c 8a
# ReportID: 1 / X:  129 | Y:  127 | Z:  128 | Rz:  129 | Rx:    0 | Ry:    0 | 0xff000020:   93 | Hat switch:   8 | Button: 0  0  0  0  0  0  0  0  0  0  0  0  0  0  0 | 0xff000021: 0 , 0 , 0 , 0 , 0 , 0 , 0 , 0 , 0 , 0 , 0 , 0 , 0 | 0xff000022:   58 ,  252 ,   41 ,  235 ,  246 ,  255 ,  239 ,  255 ,   11 ,    0 ,   20 ,    0 ,   28 ,   31 ,  241 ,    4 ,  119 ,  128 ,  172 ,  195 ,    7 ,  128 ,    0 ,    0 ,    0 ,  128 ,    0 ,    0 ,    0 ,    0 ,    9 ,    9 ,    0 ,    0 ,    0 ,    0 ,    0 ,  169 ,  146 ,  172 ,  195 ,   40 ,    8 ,    0 ,   89 ,   61 ,  246 ,  179 ,  223 ,  247 ,   52 ,   87 
E: 000000.021199 64 01 81 7f 80 81 00 00 5d 08 00 00 00 3a fc 29 eb f6 ff ef ff 0b 00 14 00 1c 1f f1 04 77 80 ac c3 07 80 00 00 00 80 00 00 00 00 09 09 00 00 00 00 00 a9 92 ac c3 28 08 00 59 3d f6 b3 df f7 34 57
# ReportID: 1 / X:  129 | Y:  127 | Z:  128 | Rz:  129 | Rx:    0 | Ry:    0 | 0xff000020:   94 | Hat switch:   8 | Button: 0  0  0  0  0  0  0  0  0  0  0  0  0  0  0 | 0xff000021: 0 , 0 , 0 , 0 , 0 , 0 , 0 , 0 , 0 , 0 , 0 , 0 , 0 | 0xff000022:   59 ,  252 ,   41 ,  235 ,  248 ,  255 ,  239 ,  255 ,   10 ,    0 ,   11 ,    0 ,    9 ,   31 ,    0 ,    5 ,  106 ,  175 ,  172 ,  195 ,    7 ,  128 ,    0 ,    0 ,    0 ,  128 ,    0 ,    0 ,    0 ,    0 ,    9 ,    9 ,    0 ,    0 ,    0 ,    0 ,    0 ,  137 ,  193 ,  172 ,  195 ,   40 ,    8 ,    0 ,  190 ,  237 ,  179 ,   15 ,   49 ,   54 ,  241 ,    7 
E: 000000.026103 64 01 81 7f 80 81 00 00 5e 08 00 00 00 3b fc 29 eb f8 ff ef ff 0a 00 0b 00 09 1f 00 05 6a af ac c3 07 80 00 00 00 80 00 00 00 00 09 09 00 00 00 00 00 89 c1 ac c3 28 08 00 be ed b3 0f 31 36 f1 07
# ReportID: 1 / X:  129 | Y:  127 | Z:  128 | Rz:  129 | Rx:    0 | Ry:    0 | 0xff000020:   95 | Hat switch:   8 | Button: 0  0  0  0  0  0  0  0  0  0  0  0  0  0  0 | 0xff000021: 0 , 0 , 0 , 0 , 0 , 0 , 0 , 0 , 0 , 0 , 0 , 0 , 0 | 0xff000022:   60 ,  252 ,   41 ,  235 ,  247 ,  255 ,  238 ,  255 ,   11 ,    0 ,   16 ,    0 ,  159 ,   31 ,  250 ,    4 ,   93 ,  222 ,  172 ,  195 ,    7 ,  128 ,    0 ,    0 ,    0 ,  128 ,    0 ,    0 ,    0 ,    0 ,    9 ,    9 ,    0 ,    0 ,    0 ,    0 ,    0 ,  105 ,  240 ,  172 ,  195 ,   40 ,    8 ,    0 ,  114 ,  164 ,   62 ,   45 ,   32 ,    6 ,  208 ,   99 
E: 000000.029172 64 01 81 7f 80 81 00 00 5f 08 00 00 00 3c fc 29 eb f7 ff ee ff 0b 00 10 00 9f 1f fa 04 5d de ac c3 07 80 00 00 00 80 00 00 00 00 09 09 00 00 00 00 00 69 f0 ac c3 28 08 00 72 a4 3e 2d 20 06 d0 63
# ReportID: 1 / X:  129 | Y:  127 | Z:  128 | Rz:  129 | Rx:    0 | Ry:    0 | 0xff000020:   96 | Hat switch:   8 | Button: 0  0  0  0  0  0  0  0  0  0  0  0  0  0  0 | 0xff000021: 0 , 0 , 0 , 0 , 0 , 0 , 0 , 0 , 0 , 0 , 0 , 0 , 0 | 0xff000022:   61 ,  252 ,   41 ,  235 ,  246 ,  255 ,  238 ,  255 ,   10 ,    0 ,    2 ,    0 ,  233 ,   31 ,   16 ,    5 ,   80 ,   13 ,  173 ,  195 ,    7 ,  128 ,    0 ,    0 ,    0 ,  128 ,    0 ,    0 ,    0 ,    0 ,    9 ,    9 ,    0 ,    0 ,    0 ,    0 ,    0 ,   73 ,   31 ,  173 ,  195 ,   40 ,    8 ,    0 ,   75 ,   51 ,  212 ,   41 ,  175 ,   28 ,   41 ,   27 
E: 000000.033205 64 01 81 7f 80 81 00 00 60 08 00 00 00 3d fc 29 eb f6 ff ee ff 0a 00 02 00 e9 1f 10 05 50 0d ad c3 07 80 00 00 00 80 00 00 00 00 09 09 00 00 00 00 00 49 1f ad c3 28 08 00 4b 33 d4 29 af 1c 29 1b
# ReportID: 1 / X:  129 | Y:  127 | Z:  128 | Rz:  129 | Rx:    0 | Ry:    0 | 0xff000020:   97 | Hat switch:   8 | Button: 0  0  0  0  0  0  0  0  0  0  0  0  0  0  0 | 0xff000021: 0 , 0 , 0 , 0 , 0 , 0 , 0 , 0 , 0 , 0 , 0 , 0 , 0 | 0xff000022:   62 ,  252 ,   41 ,  235 ,  245 ,  255 ,  237 ,  255 ,   11 ,    0 ,    7 ,    0 ,  170 ,   31 ,   30 ,    5 ,   67 ,   60 ,  173 ,  195 ,    7 ,  128 ,    0 ,    0 ,    0 ,  128 ,    0 ,    0 ,    0 ,    0 ,    9 ,    9 ,    0 ,    0 ,    0 ,    0 ,    0 ,   41 ,   78 ,  173 ,  195 ,   40 ,    8 ,    0 ,  123 ,  163 ,   80 ,  218 ,  239 ,  175 ,  254 ,  103 
E: 000000.037188 64 01 81 7f 80 81 00 00 61 08 00 00 00 3e fc 29 eb f5 ff ed ff 0b 00 07 00 aa 1f 1e 05 43 3c ad c3 07 80 00 00 00 80 00 00 00 00 09 09 00 00 00 00 00 29 4e ad c3 28 08 00 7b a3 50 da ef af fe 67
# ReportID: 1 / X:  129 | Y:  127 | Z:  128 | Rz:  129 | Rx:    0 | Ry:    0 | 0xff000020:   98 | Hat switch:   8 | Button: 0  0  0  0  0  0  0  0  0  0  0  0  0  0  0 | 0xff000021: 0 , 0 , 0 , 0 , 0 , 0 , 0 , 0 , 0 , 0 , 0 , 0 , 0 | 0xff000022:   63 ,  252 ,   41 ,  235 ,  244 ,  255 ,  237 ,  255 ,   10 ,    0 ,   11 ,    0 ,   88 ,   31 ,   17 ,    5 ,   54 ,  107 ,  173 ,  195 ,    7 ,  128 ,    0 ,    0 ,    0 ,  128 ,    0 ,    0 ,    0 ,    0 ,    9 ,    9 ,    0 ,    0 ,    0 ,    0 ,    0 ,    9 ,  125 ,  173 ,  195 ,   40 ,    8 ,    0 ,  104 ,   90 ,  209 ,  102 ,   73 ,  141 ,  213 ,   33 
E: 000000.041188 64 01 81 7f 80 81 00 00 62 08 00 00 00 3f fc 29 eb f4 ff ed ff 0a 00 0b 00 58 1f 11 05 36 6b ad c3 07 80 00 00 00 80 00 00 00 00 09 09 00 00 00 00 00 09 7d ad c3 28 08 00 68 5a d1 66 49 8d d5 21
# ReportID: 1 / X:  129 | Y:  127 | Z:  128 | Rz:  129 | Rx:    0 | Ry:    0 | 0xff000020:   99 | Hat switch:   8 | Button: 0  0  0  0  0  0  0  0  0  0  0  0  0  0  0 | 0xff000021: 0 , 0 , 0 , 0 , 0 , 0 , 0 , 0 , 0 , 0 , 0 , 0 , 0 | 0xff000022:   64 ,  252 ,   41 ,  235 ,  245 ,  255 ,  238 ,  255 ,   12 ,    0 ,   27 ,    0 ,   18 ,   31 ,   43 ,    5 ,   41 ,  154 ,  173 ,  195 ,    7 ,  128 ,    0 ,    0 ,    0 ,  128 ,    0 ,    0 ,    0 ,    0 ,    9 ,    9 ,    0 ,    0 ,    0 ,    0 ,    0 ,  233 ,  171 ,  173 ,  195 ,   40 ,    8 ,    0 ,  211 ,  158 ,  148 ,   54 ,   98 ,  181 ,   78 ,  150 
E: 000000.045228 64 01 81 7f 80 81 00 00 63 08 00 00 00 40 fc 29 eb f5 ff ee ff 0c 00 1b 00 12 1f 2b 05 29 9a ad c3 07 80 00 00 00 80 00 00 00 00 09 09 00 00 00 00 00 e9 ab ad c3 28 08 00 d3 9e 94 36 62 b5 4e 96
# ReportID: 1 / X:  129 | Y:  127 | Z:  128 | Rz:  129 | Rx:    0 | Ry:    0 | 0xff000020:  100 | Hat switch:   8 | Button: 0  0  0  0  0  0  0  0  0  0  0  0  0  0  0 | 0xff000021: 0 , 0 , 0 , 0 , 0 , 0 , 0 , 0 , 0 , 0 , 0 , 0 , 0 | 0xff000022:   65 ,  252 ,   41 ,  235 ,  245 ,  255 ,  237 ,  255 ,   11 ,    0 ,   66 ,    0 ,   10 ,   31 ,   59 ,    5 ,   28 ,  201 ,  173 ,  195 ,    7 ,  128 ,    0 ,    0 ,    0 ,  128 ,    0 ,    0 ,    0 ,    0 ,    9 ,    9 ,    0 ,    0 ,    0 ,    0 ,    0 ,  201 ,  218 ,  173 ,  195 ,   40 ,    8 ,    0 ,  151 ,  136 ,  112 ,   63 ,   41 ,  192 ,   15 ,   40 
E: 000000.048889 64 01 81 7f 80 81 00 00 64 08 00 00 00 41 fc 29 eb f5 ff ed ff 0b 00 42 00 0a 1f 3b 05 1c c9 ad c3 07 80 00 00 00 80 00 00 00 00 09 09 00 00 00 00 00 c9 da ad c3 28 08 00 97 88 70 3f 29 c0 0f 28
# ReportID: 1 / X:  129 | Y:  126 | Z:  128 | Rz:  129 | Rx:    0 | Ry:    0 | 0xff000020:  101 | Hat switch:   8 | Button: 0  0  0  0  0  0  0  0  0  0  0  0  0  0  0 | 0xff000021: 0 , 0 , 0 , 0 , 0 , 0 , 0 , 0 , 0 , 0 , 0 , 0 , 0 | 0xff000022:   66 ,  252 ,   41 ,  235 ,  247 ,  255 ,  238 ,  255 ,   11 ,    0 ,   54 ,    0 ,   41 ,   31 ,   85 ,    5 ,   15 ,  248 ,  173 ,  195 ,    7 ,  128 ,    0 ,    0 ,    0 ,  128 ,    0 ,    0 ,    0 ,    0 ,    9 ,    9 ,    0 ,    0 ,    0 ,    0 ,    0 ,  169 ,    9 ,  174 ,  195 ,   40 ,    8 ,    0 ,  136 ,  154 ,  195 ,   96 ,   75 ,  111 ,  248 ,   36 
E: 000000.053172 64 01 81 7e 80 81 00 00 65 08 00 00 00 42 fc 29 eb f7 ff ee ff 0b 00 36 00 29 1f 55 05 0f f8 ad c3 07 80 00 00 00 80 00 00 00 00 09 09 00 00 00 00 00 a9 09 ae c3 28 08 00 88 9a c3 60 4b 6f f8 24
# ReportID: 1 / X:  129 | Y:  127 | Z:  128 | Rz:  129 | Rx:    0 | Ry:    0 | 0xff000020:  102 | Hat switch:   8 | Button: 0  0  0  0  0  0  0  0  0  0  0  0  0  0  0 | 0xff000021: 0 , 0 , 0 , 0 , 0 , 0 , 0 , 0 , 0 , 0 , 0 , 0 , 0 | 0xff000022:   67 ,  252 ,   41 ,  235 ,  245 ,  255 ,  236 ,  255 ,   10 ,    0 ,   65 ,    0 ,  115 ,   31 ,   92 ,    5 ,    2 ,   39 ,  174 ,  195 ,    7 ,  128 ,    0 ,    0 ,    0 ,  128 ,    0 ,    0 ,    0 ,    0 ,    9 ,    9 ,    0 ,    0 ,    0 ,    0 ,    0 ,  137 ,   56 ,  174 ,  195 ,   40 ,    8 ,    0 ,   39 ,  214 ,  227 ,  170 ,  235 ,   36 ,   19 ,  106 
E: 000000.057173 64 01 81 7f 80 81 00 00 66 08 00 00 00 43 fc 29 eb f5 ff ec ff 0a 00 41 00 73 1f 5c 05 02 27 ae c3 07 80 00 00 00 80 00 00 00 00 09 09 00 00 00 00 00 89 38 ae c3 28 08 00 27 d6 e3 aa eb 24 13 6a
# ReportID: 1 / X:  129 | Y:  127 | Z:  128 | Rz:  129 | Rx:    0 | Ry:    0 | 0xff000020:  103 | Hat switch:   8 | Button: 0  0  0  0  0  0  0  0  0  0  0  0  0  0  0 | 0xff000021: 0 , 0 , 0 , 0 , 0 , 0 , 0 , 0 , 0 , 0 , 0 , 0 , 0 | 0xff000022:   68 ,  252 ,   41 ,  235 ,  246 ,  255 ,  237 ,  255 ,   10 ,    0 ,   83 ,    0 ,  133 ,   31 ,   93 ,    5 ,  245 ,   85 ,  174 ,  195 ,    7 ,  128 ,    0 ,    0 ,    0 ,  128 ,    0 ,    0 ,    0 ,    0 ,    9 ,    9 ,    0 ,    0 ,    0 ,    0 ,    0 ,  105 ,  103 ,  174 ,  195 ,   40 ,    8 ,    0 ,   32 ,  212 ,  119 ,  150 ,  189 ,  195 ,  133 ,  171 
E: 000000.061820 64 01 81 7f 80 81 00 00 67 08 00 00 00 44 fc 29 eb f6 ff ed ff 0a 00 53 00 85 1f 5d 05 f5 55 ae c3 07 80 00 00 00 80 00 00 00 00 09 09 00 00 00 00 00 69 67 ae c3 28 08 00 20 d4 77 96 bd c3 85 ab
# ReportID: 1 / X:  129 | Y:  127 | Z:  128 | Rz:  129 | Rx:    0 | Ry:    0 | 0xff000020:  104 | Hat switch:   8 | Button: 0  0  0  0  0  0  0  0  0  0  0  0  0  0  0 | 0xff000021: 0 , 0 , 0 , 0 , 0 , 0 , 0 , 0 , 0 , 0 , 0 , 0 , 0 | 0xff000022:   69 ,  252 ,   41 ,  235 ,  246 ,  255 ,  238 ,  255 ,   11 ,    0 ,   81 ,    0 ,  103 ,   31 ,  103 ,    5 ,  232 ,  132 ,  174 ,  195 ,    7 ,  128 ,    0 ,    0 ,    0 ,  128 ,    0 ,    0 ,    0 ,    0 ,    9 ,    9 ,    0 ,    0 ,    0 ,    0 ,    0 ,   73 ,  150 ,  174 ,  195 ,   40 ,    8 ,    0 ,  176 ,  140 ,   52 ,  195 ,   29 ,  123 ,   84 ,  192 
E: 000000.065375 64 01 81 7f 80 81 00 00 68 08 00 00 00 45 fc 29 eb f6 ff ee ff 0b 00 51 00 67 1f 67 05 e8 84 ae c3 07 80 00 00 00 80 00 00 00 00 09 09 00 00 00 00 00 49 96 ae c3 28 08 00 b0 8c 34 c3 1d 7b 54 c0
# ReportID: 1 / X:  129 | Y:  127 | Z:  128 | Rz:  129 | Rx:    0 | Ry:    0 | 0xff000020:  105 | Hat switch:   8 | Button: 0  0  0  0  0  0  0  0  0  0  0  0  0  0  0 | 0xff000021: 0 , 0 , 0 , 0 , 0 , 0 , 0 , 0 , 0 , 0 , 0 , 0 , 0 | 0xff000022:   70 ,  252 ,   41 ,  235 ,  245 ,  255 ,  238 ,  255 ,   10 ,    0 ,   83 ,    0 ,   41 ,   31 ,  100 ,    5 ,  219 ,  179 ,  174 ,  195 ,    7 ,  128 ,    0 ,    0 ,    0 ,  128 ,    0 ,    0 ,    0 ,    0 ,    9 ,    9 ,    0 ,    0 ,    0 ,    0 ,    0 ,   41 ,  197 ,  174 ,  195 ,   40 ,    8 ,    0 ,  118 ,  248 ,  168 ,  162 ,  196 ,   83 ,   22 ,   82 
E: 000000.070148 64 01 81 7f 80 81 00 00 69 08 00 00 00 46 fc 29 eb f5 ff ee ff 0a 00 53 00 29 1f 64 05 db b3 ae c3 07 80 00 00 00 80 00 00 00 00 09 09 00 00 00 00 00 29 c5 ae c3 28 08 00 76 f8 a8 a2 c4 53 16 52
# ReportID: 1 / X:  129 | Y:  127 | Z:  128 | Rz:  129 | Rx:    0 | Ry:    0 | 0xff000020:  106 | Hat switch:   8 | Button: 0  0  0  0  0  0  0  0  0  0  0  0  0  0  0 | 0xff000021: 0 , 0 , 0 , 0 , 0 , 0 , 0 , 0 , 0 , 0 , 0 , 0 , 0 | 0xff000022:   71 ,  252 ,   41 ,  235 ,  248 ,  255 ,  238 ,  255 ,   10 ,    0 ,   83 ,    0 ,    1 ,   31 ,   89 ,    5 ,  206 ,  226 ,  174 ,  195 ,    7 ,  128 ,    0 ,    0 ,    0 ,  128 ,    0 ,    0 ,    0 ,    0 ,    9 ,    9 ,    0 ,    0 ,    0 ,    0 ,    0 ,    9 ,  244 ,  174 ,  195 ,   40 ,    8 ,    0 ,   92 ,  208 ,  186 ,  159 ,  137 ,  122 ,  238 ,  133 
E: 000000.073752 64 01 81 7f 80 81 00 00 6a 08 00 00 00 47 fc 29 eb f8 ff ee ff 0a 00 53 00 01 1f 59 05 ce e2 ae c3 07 80 00 00 00 80 00 00 00 00 09 09 00 00 00 00 00 09 f4 ae c3 28 08 00 5c d0 ba 9f 89 7a ee 85
# ReportID: 1 / X:  129 | Y:  127 | Z:  128 | Rz:  129 | Rx:    0 | Ry:    0 | 0xff000020:  107 | Hat switch:   8 | Button: 0  0  0  0  0  0  0  0  0  0  0  0  0  0  0 | 0xff000021: 0 , 0 , 0 , 0 , 0 , 0 , 0 , 0 , 0 , 0 , 0 , 0 , 0 | 0xff000022:   72 ,  252 ,   41 ,  235 ,  248 ,  255 ,  238 ,  255 ,   11 ,    0 ,   98 ,    0 ,   43 ,   31 ,   86 ,    5 ,  193 ,   17 ,  175 ,  195 ,    7 ,  128 ,    0 ,    0 ,    0 ,  128 ,    0 ,    0 ,    0 ,    0 ,    9 ,    9 ,    0 ,    0 ,    0 ,    0 ,    0 ,  233 ,   34 ,  175 ,  195 ,   40 ,    8 ,    0 ,  156 ,   12 ,  175 ,  136 ,  234 ,  176 ,   74 ,  197 
E: 000000.077467 64 01 81 7f 80 81 00 00 6b 08 00 00 00 48 fc 29 eb f8 ff ee ff 0b 00 62 00 2b 1f 56 05 c1 11 af c3 07 80 00 00 00 80 00 00 00 00 09 09 00 00 00 00 00 e9 22 af c3 28 08 00 9c 0c af 88 ea b0 4a c5
# ReportID: 1 / X:  129 | Y:  127 | Z:  128 | Rz:  129 | Rx:    0 | Ry:    0 | 0xff000020:  108 | Hat switch:   8 | Button: 0  0  0  0  0  0  0  0  0  0  0  0  0  0  0 | 0xff000021: 0 , 0 , 0 , 0 , 0 , 0 , 0 , 0 , 0 , 0 , 0 , 0 , 0 | 0xff000022:   73 ,  252 ,   41 ,  235 ,  247 ,  255 ,  239 ,  255 ,   10 ,    0 ,  100 ,    0 ,   64 ,   31 ,   78 ,    5 ,  180 ,   64 ,  175 ,  195 ,    7 ,  128 ,    0 ,    0 ,    0 ,  128 ,    0 ,    0 ,    0 ,    0 ,    9 ,    9 ,    0 ,    0 ,    0 ,    0 ,    0 ,  201 ,   81 ,  175 ,  195 ,   40 ,    8 ,    0 ,  158 ,  160 ,  168 ,  106 ,   31 ,  223 ,  214 ,  141 
E: 000000.082682 64 01 81 7f 80 81 00 00 6c 08 00 00 00 49 fc 29 eb f7 ff ef ff 0a 00 64 00 40 1f 4e 05 b4 40 af c3 07 80 00 00 00 80 00 00 00 00 09 09 00 00 00 00 00 c9 51 af c3 28 08 00 9e a0 a8 6a 1f df d6 8d
# ReportID: 1 / X:  129 | Y:  127 | Z:  128 | Rz:  129 | Rx:    0 | Ry:    0 | 0xff000020:  109 | Hat switch:   8 | Button: 0  0  0  0  0  0  0  0  0  0  0  0  0  0  0 | 0xff000021: 0 , 0 , 0 , 0 , 0 , 0 , 0 , 0 , 0 , 0 , 0 , 0 , 0 | 0xff000022:   74 ,  252 ,   41 ,  235 ,  246 ,  255 ,  239 ,  255 ,   11 ,    0 ,   91 ,    0 ,   73 ,   31 ,   75 ,    5 ,  167 ,  111 ,  175 ,  195 ,    7 ,  128 ,    0 ,    0 ,    0 ,  128 ,    0 ,    0 ,    0 ,    0 ,    9 ,    9 ,    0 ,    0 ,    0 ,    0 ,    0 ,  169 ,  128 ,  175 ,  195 ,   40 ,    8 ,    0 ,   68 ,  172 ,  149 ,   12 ,  176 ,  179 ,   75 ,  241 
E: 000000.085721 64 01 81 7f 80 81 00 00 6d 08 00 00 00 4a fc 29 eb f6 ff ef ff 0b 00 5b 00 49 1f 4b 05 a7 6f af c3 07 80 00 00 00 80 00 00 00 00 09 09 00 00 00 00 00 a9 80 af c3 28 08 00 44 ac 95 0c b0 b3 4b f1
# ReportID: 1 / X:  129 | Y:  127 | Z:  128 | Rz:  129 | Rx:    0 | Ry:    0 | 0xff000020:  110 | Hat switch:   8 | Button: 0  0  0  0  0  0  0  0  0  0  0  0  0  0  0 | 0xff000021: 0 , 0 , 0 , 0 , 0 , 0 , 0 , 0 , 0 , 0 , 0 , 0 , 0 | 0xff000022:   75 ,  252 ,   41 ,  235 ,  247 ,  255 ,  239 ,  255 ,   11 ,    0 ,   68 ,    0 ,   98 ,   31 ,   73 ,    5 ,  154 ,  158 ,  175 ,  195 ,    7 ,  128 ,    0 ,    0 ,    0 ,  128 ,    0 ,    0 ,    0 ,    0 ,    9 ,    9 ,    0 ,    0 ,    0 ,    0 ,    0 ,  137 ,  175 ,  175 ,  195 ,   40 ,    8 ,    0 ,  240 ,  156 ,   31 ,   68 ,  199 ,   15 ,  112 ,  159 
E: 000000.088915 64 01 81 7f 80 81 00 00 6e 08 00 00 00 4b fc 29 eb f7 ff ef ff 0b 00 44 00 62 1f 49 05 9a 9e af c3 07 80 00 00 00 80 00 00 00 00 09 09 00 00 00 00 00 89 af af c3 28 08 00 f0 9c 1f 44 c7 0f 70 9f
# ReportID: 1 / X:  129 | Y:  127 | Z:  128 | Rz:  129 | Rx:    0 | Ry:    0 | 0xff000020:  111 | Hat switch:   8 | Button: 0  0  0  0  0  0  0  0  0  0  0  0  0  0  0 | 0xff000021: 0 , 0 , 0 , 0 , 0 , 0 , 0 , 0 , 0 , 0 , 0 , 0 , 0 | 0xff000022:   76 ,  252 ,   41 ,  235 ,  247 ,  255 ,  239 ,  255 ,   10 ,    0 ,   59 ,    0 ,  116 ,   31 ,   49 ,    5 ,  141 ,  205 ,  175 ,  195 ,    7 ,  128 ,    0 ,    0 ,    0 ,  128 ,    0 ,    0 ,    0 ,    0 ,    9 ,    9 ,    0 ,    0 ,    0 ,    0 ,    0 ,  105 ,  222 ,  175 ,  195 ,   40 ,    8 ,    0 ,   19 ,   75 ,  145 ,  228 ,   89 ,   53 ,  173 ,   28 
E: 000000.094701 64 01 81 7f 80 81 00 00 6f 08 00 00 00 4c fc 29 eb f7 ff ef ff 0a 00 3b 00 74 1f 31 05 8d cd af c3 07 80 00 00 00 80 00 00 00 00 09 09 00 00 00 00 00 69 de af c3 28 08 00 13 4b 91 e4 59 35 ad 1c
# ReportID: 1 / X:  129 | Y:  127 | Z:  128 | Rz:  129 | Rx:    0 | Ry:    0 | 0xff000020:  112 | Hat switch:   8 | Button: 0  0  0  0  0  0  0  0  0  0  0  0  0  0  0 | 0xff000021: 0 , 0 , 0 , 0 , 0 , 0 , 0 , 0 , 0 , 0 , 0 , 0 , 0 | 0xff000022:   77 ,  252 ,   41 ,  235 ,  247 ,  255 ,  239 ,  255 ,   12 ,    0 ,   56 ,    0 ,   94 ,   31 ,   31 ,    5 ,  128 ,  252 ,  175 ,  195 ,    7 ,  128 ,    0 ,    0 ,    0 ,  128 ,    0 ,    0 ,    0 ,    0 ,    9 ,    9 ,    0 ,    0 ,    0 ,    0 ,    0 ,   73 ,   13 ,  176 ,  195 ,   40 ,    8 ,    0 ,   51 ,   61 ,  167 ,  206 ,  147 ,  136 ,  105 ,  195 
E: 000000.097900 64 01 81 7f 80 81 00 00 70 08 00 00 00 4d fc 29 eb f7 ff ef ff 0c 00 38 00 5e 1f 1f 05 80 fc af c3 07 80 00 00 00 80 00 00 00 00 09 09 00 00 00 00 00 49 0d b0 c3 28 08 00 33 3d a7 ce 93 88 69 c3
# ReportID: 1 / X:  129 | Y:  127 | Z:  128 | Rz:  129 | Rx:    0 | Ry:    0 | 0xff000020:  113 | Hat switch:   8 | Button: 0  0  0  0  0  0  0  0  0  0  0  0  0  0  0 | 0xff000021: 0 , 0 , 0 , 0 , 0 , 0 , 0 , 0 , 0 , 0 , 0 , 0 , 0 | 0xff000022:   78 ,  252 ,   41 ,  235 ,  246 ,  255 ,  240 ,  255 ,   10 ,    0 ,   45 ,    0 ,   82 ,   31 ,   15 ,    5 ,  115 ,   43 ,  176 ,  195 ,    7 ,  128 ,    0 ,    0 ,    0 ,  128 ,    0 ,    0 ,    0 ,    0 ,    9 ,    9 ,    0 ,    0 ,    0 ,    0 ,    0 ,   41 ,   60 ,  176 ,  195 ,   40 ,    8 ,    0 ,  195 ,  213 ,  134 ,  166 ,   38 ,    2 ,  213 ,  215 
E: 000000.101687 64 01 81 7f 80 81 00 00 71 08 00 00 00 4e fc 29 eb f6 ff f0 ff 0a 00 2d 00 52 1f 0f 05 73 2b b0 c3 07 80 00 00 00 80 00 00 00 00 09 09 00 00 00 00 00 29 3c b0 c3 28 08 00 c3 d5 86 a6 26 02 d5 d7
# ReportID: 1 / X:  129 | Y:  127 | Z:  128 | Rz:  129 | Rx:    0 | Ry:    0 | 0xff000020:  114 | Hat switch:   8 | Button: 0  0  0  0  0  0  0  0  0  0  0  0  0  0  0 | 0xff000021: 0 , 0 , 0 , 0 , 0 , 0 , 0 , 0 , 0 , 0 , 0 , 0 , 0 | 0xff000022:   79 ,  252 ,   41 ,  235 ,  247 ,  255 ,  240 ,  255 ,   11 ,    0 ,   31 ,    0 ,   81 ,   31 ,    9 ,    5 ,  102 ,   90 ,  176 ,  195 ,    7 ,  128 ,    0 ,    0 ,    0 ,  128 ,    0 ,    0 ,    0 ,    0 ,    9 ,    9 ,    0 ,    0 ,    0 ,    0 ,    0 ,    9 ,  107 ,  176 ,  195 ,   40 ,    8 ,    0 ,   23 ,    7 ,  255 ,  252 ,  240 ,    6 ,  244 ,  200 
E: 000000.105335 64 01 81 7f 80 81 00 00 72 08 00 00 00 4f fc 29 eb f7 ff f0 ff 0b 00 1f 00 51 1f 09 05 66 5a b0 c3 07 80 00 00 00 80 00 00 00 00 09 09 00 00 00 00 00 09 6b b0 c3 28 08 00 17 07 ff fc f0 06 f4 c8
# ReportID: 1 / X:  129 | Y:  126 | Z:  128 | Rz:  129 | Rx:    0 | Ry:    0 | 0xff000020:  115 | Hat switch:   8 | Button: 0  0  0  0  0  0  0  0  0  0  0  0  0  0  0 | 0xff000021: 0 , 0 , 0 , 0 , 0 , 0 , 0 , 0 , 0 , 0 , 0 , 0 , 0 | 0xff000022:   80 ,  252 ,   41 ,  235 ,  247 ,  255 ,  240 ,  255 ,   10 ,    0 ,   32 ,    0 ,   72 ,   31 ,    8 ,    5 ,   89 ,  137 ,  176 ,  195 ,    7 ,  128 ,    0 ,    0 ,    0 ,  128 ,    0 ,    0 ,    0 ,    0 ,    9 ,    9 ,    0 ,    0 ,    0 ,    0 ,    0 ,  233 ,  153 ,  176 ,  195 ,   40 ,    8 ,    0 ,  241 ,   77 ,  220 ,  167 ,  197 ,  194 ,  195 ,  217 
E: 000000.108999 64 01 81 7e 80 81 00 00 73 08 00 00 00 50 fc 29 eb f7 ff f0 ff 0a 00 20 00 48 1f 08 05 59 89 b0 c3 07 80 00 00 00 80 00 00 00 00 09 09 00 00 00 00 00 e9 99 b0 c3 28 08 00 f1 4d dc a7 c5 c2 c3 d9
# ReportID: 1 / X:  129 | Y:  127 | Z:  128 | Rz:  129 | Rx:    0 | Ry:    0 | 0xff000020:  116 | Hat switch:   8 | Button: 0  0  0  0  0  0  0  0  0  0  0  0  0  0  0 | 0xff000021: 0 , 0 , 0 , 0 , 0 , 0 , 0 , 0 , 0 , 0 , 0 , 0 , 0 | 0xff000022:   81 ,  252 ,   41 ,  235 ,  247 ,  255 ,  239 ,  255 ,   11 ,    0 ,   24 ,    0 ,   88 ,   31 ,   14 ,    5 ,   76 ,  184 ,  176 ,  195 ,    7 ,  128 ,    0 ,    0 ,    0 ,  128 ,    0 ,    0 ,    0 ,    0 ,    9 ,    9 ,    0 ,    0 ,    0 ,    0 ,    0 ,  201 ,  200 ,  176 ,  195 ,   40 ,    8 ,    0 ,  175 ,  240 ,   12 ,   29 ,  129 ,  147 ,  162 ,  242 
E: 000000.113165 64 01 81 7f 80 81 00 00 74 08 00 00 00 51 fc 29 eb f7 ff ef ff 0b 00 18 00 58 1f 0e 05 4c b8 b0 c3 07 80 00 00 00 80 00 00 00 00 09 09 00 00 00 00 00 c9 c8 b0 c3 28 08 00 af f0 0c 1d 81 93 a2 f2
# ReportID: 1 / X:  129 | Y:  127 | Z:  128 | Rz:  129 | Rx:    0 | Ry:    0 | 0xff000020:  117 | Hat switch:   8 | Button: 0  0  0  0  0  0  0  0  0  0  0  0  0  0  0 | 0xff000021: 0 , 0 , 0 , 0 , 0 , 0 , 0 , 0 , 0 , 0 , 0 , 0 , 0 | 0xff000022:   82 ,  252 ,   41 ,  235 ,  245 ,  255 ,  239 ,  255 ,   10 ,    0 ,    8 ,    0 ,  114 ,   31 ,   30 ,    5 ,   63 ,  231 ,  176 ,  195 ,    7 ,  128 ,    0 ,    0 ,    0 ,  128 ,    0 ,    0 ,    0 ,    0 ,    9 ,    9 ,    0 ,    0 ,    0 ,    0 ,    0 ,  169 ,  247 ,  176 ,  195 ,   40 ,    8 ,    0 ,  103 ,  224 ,   58 ,  134 ,    4 ,   69 ,  171 ,  113 
E: 000000.117490 64 01 81 7f 80 81 00 00 75 08 00 00 00 52 fc 29 eb f5 ff ef ff 0a 00 08 00 72 1f 1e 05 3f e7 b0 c3 07 80 00 00 00 80 00 00 00 00 09 09 00 00 00 00 00 a9 f7 b0 c3 28 08 00 67 e0 3a 86 04 45 ab 71
# ReportID: 1 / X:  129 | Y:  127 | Z:  128 | Rz:  129 | Rx:    0 | Ry:    0 | 0xff000020:  118 | Hat switch:   8 | Button: 0  0  0  0  0  0  0  0  0  0  0  0  0  0  0 | 0xff000021: 0 , 0 , 0 , 0 , 0 , 0 , 0 , 0 , 0 , 0 , 0 , 0 , 0 | 0xff000022:   83 ,  252 ,   41 ,  235 ,  246 ,  255 ,  239 ,  255 ,   10 ,    0 ,    6 ,    0 ,  113 ,   31 ,   34 ,    5 ,   50 ,   22 ,  177 ,  195 ,    7 ,  128 ,    0 ,    0 ,    0 ,  128 ,    0 ,    0 ,    0 ,    0 ,    9 ,    9 ,    0 ,    0 ,    0 ,    0 ,    0 ,  137 ,   38 ,  177 ,  195 ,   40 ,    8 ,    0 ,  182 ,   93 ,  132 ,   23 ,   14 ,   22 ,   70 ,   13 
E: 000000.122820 64 01 81 7f 80 81 00 00 76 08 00 00 00 53 fc 29 eb f6 ff ef ff 0a 00 06 00 71 1f 22 05 32 16 b1 c3 07 80 00 00 00 80 00 00 00 00 09 09 00 00 00 00 00 89 26 b1 c3 28 08 00 b6 5d 84 17 0e 16 46 0d
# ReportID: 1 / X:  129 | Y:  127 | Z:  128 | Rz:  129 | Rx:    0 | Ry:    0 | 0xff000020:  119 | Hat switch:   8 | Button: 0  0  0  0  0  0  0  0  0  0  0  0  0  0  0 | 0xff000021: 0 , 0 , 0 , 0 , 0 , 0 , 0 , 0 , 0 , 0 , 0 , 0 , 0 | 0xff000022:   84 ,  252 ,   41 ,  235 ,  246 ,  255 ,  238 ,  255 ,   10 ,    0 ,    6 ,    0 ,   90 ,   31 ,   36 ,    5 ,   37 ,   69 ,  177 ,  195 ,    7 ,  128 ,    0 ,    0 ,    0 ,  128 ,    0 ,    0 ,    0 ,    0 ,    9 ,    9 ,    0 ,    0 ,    0 ,    0 ,    0 ,  105 ,   85 ,  177 ,  195 ,   40 ,    8 ,    0 ,   17 ,  134 ,  101 ,  231 ,  255 ,    9 ,  116 ,   62 
E: 000000.126553 64 01 81 7f 80 81 00 00 77 08 00 00 00 54 fc 29 eb f6 ff ee ff 0a 00 06 00 5a 1f 24 05 25 45 b1 c3 07 80 00 00 00 80 00 00 00 00 09 09 00 00 00 00 00 69 55 b1 c3 28 08 00 11 86 65 e7 ff 09 74 3e
# ReportID: 1 / X:  129 | Y:  127 | Z:  128 | Rz:  129 | Rx:    0 | Ry:    0 | 0xff000020:  120 | Hat switch:   8 | Button: 0  0  0  0  0  0  0  0  0  0  0  0  0  0  0 | 0xff000021: 0 , 0 , 0 , 0 , 0 , 0 , 0 , 0 , 0 , 0 , 0 , 0 , 0 | 0xff000022:   85 ,  252 ,   41 ,  235 ,  246 ,  255 ,  238 ,  255 ,   10 ,    0 ,    6 ,    0 ,   85 ,   31 ,   40 ,    5 ,   24 ,  116 ,  177 ,  195 ,    7 ,  128 ,    0 ,    0 ,    0 ,  128 ,    0 ,    0 ,    0 ,    0 ,    9 ,    9 ,    0 ,    0 ,    0 ,    0 ,    0 ,   73 ,  132 ,  177 ,  195 ,   40 ,    8 ,    0 ,  206 ,    9 ,  247 ,  151 ,   55 ,   73 ,  208 ,  146 
E: 000000.130423 64 01 81 7f 80 81 00 00 78 08 00 00 00 55 fc 29 eb f6 ff ee ff 0a 00 06 00 55 1f 28 05 18 74 b1 c3 07 80 00 00 00 80 00 00 00 00 09 09 00 00 00 00 00 49 84 b1 c3 28 08 00 ce 09 f7 97 37 49 d0 92
# ReportID: 1 / X:  129 | Y:  127 | Z:  128 | Rz:  129 | Rx:    0 | Ry:    0 | 0xff000020:  121 | Hat switch:   8 | Button: 0  0  0  0  0  0  0  0  0  0  0  0  0  0  0 | 0xff000021: 0 , 0 , 0 , 0 , 0 , 0 , 0 , 0 , 0 , 0 , 0 , 0 , 0 | 0xff000022:   86 ,  252 ,   41 ,  235 ,  247 ,  255 ,  237 ,  255 ,   10 ,    0 ,   15 ,    0 ,   85 ,   31 ,   43 ,    5 ,   11 ,  163 ,  177 ,  195 ,    7 ,  128 ,    0 ,    0 ,    0 ,  128 ,    0 ,    0 ,    0 ,    0 ,    9 ,    9 ,    0 ,    0 ,    0 ,    0 ,    0 ,   41 ,  179 ,  177 ,  195 ,   40 ,    8 ,    0 ,  173 ,   79 ,  208 ,   77 ,  168 ,  139 ,  224 ,  208 
E: 000000.132997 64 01 81 7f 80 81 00 00 79 08 00 00 00 56 fc 29 eb f7 ff ed ff 0a 00 0f 00 55 1f 2b 05 0b a3 b1 c3 07 80 00 00 00 80 00 00 00 00 09 09 00 00 00 00 00 29 b3 b1 c3 28 08 00 ad 4f d0 4d a8 8b e0 d0
# ReportID: 1 / X:  129 | Y:  126 | Z:  128 | Rz:  129 | Rx:    0 | Ry:    0 | 0xff000020:  122 | Hat switch:   8 | Button: 0  0  0  0  0  0  0  0  0  0  0  0  0  0  0 | 0xff000021: 0 , 0 , 0 , 0 , 0 , 0 , 0 , 0 , 0 , 0 , 0 , 0 , 0 | 0xff000022:   87 ,  252 ,   41 ,  235 ,  246 ,  255 ,  237 ,  255 ,   10 ,    0 ,   20 ,    0 ,   79 ,   31 ,   41 ,    5 ,  254 ,  209 ,  177 ,  195 ,    7 ,  128 ,    0 ,    0 ,    0 ,  128 ,    0 ,    0 ,    0 ,    0 ,    9 ,    9 ,    0 ,    0 ,    0 ,    0 ,    0 ,    9 ,  226 ,  177 ,  195 ,   40 ,    8 ,    0 ,  230 ,  229 ,  139 ,  236 ,   52 ,  220 ,  218 ,   15 
E: 000000.138836 64 01 81 7e 80 81 00 00 7a 08 00 00 00 57 fc 29 eb f6 ff ed ff 0a 00 14 00 4f 1f 29 05 fe d1 b1 c3 07 80 00 00 00 80 00 00 00 00 09 09 00 00 00 00 00 09 e2 b1 c3 28 08 00 e6 e5 8b ec 34 dc da 0f
# ReportID: 1 / X:  129 | Y:  126 | Z:  128 | Rz:  129 | Rx:    0 | Ry:    0 | 0xff000020:  123 | Hat switch:   8 | Button: 0  0  0  0  0  0  0  0  0  0  0  0  0  0  0 | 0xff000021: 0 , 0 , 0 , 0 , 0 , 0 , 0 , 0 , 0 , 0 , 0 , 0 , 0 | 0xff000022:   88 ,  252 ,   41 ,  235 ,  245 ,  255 ,  238 ,  255 ,    9 ,    0 ,   25 ,    0 ,   71 ,   31 ,   66 ,    5 ,  241 ,    0 ,  178 ,  195 ,    7 ,  128 ,    0 ,    0 ,    0 ,  128 ,    0 ,    0 ,    0 ,    0 ,    9 ,    9 ,    0 ,    0 ,    0 ,    0 ,    0 ,  233 ,   16 ,  178 ,  195 ,   40 ,    8 ,    0 ,   14 ,   31 ,   72 ,   55 ,  192 ,  156 ,   45 ,   11 
E: 000000.140816 64 01 81 7e 80 81 00 00 7b 08 00 00 00 58 fc 29 eb f5 ff ee ff 09 00 19 00 47 1f 42 05 f1 00 b2 c3 07 80 00 00 00 80 00 00 00 00 09 09 00 00 00 00 00 e9 10 b2 c3 28 08 00 0e 1f 48 37 c0 9c 2d 0b
# ReportID: 1 / X:  129 | Y:  126 | Z:  128 | Rz:  129 | Rx:    0 | Ry:    0 | 0xff000020:  124 | Hat switch:   8 | Button: 0  0  0  0  0  0  0  0  0  0  0  0  0  0  0 | 0xff000021: 0 , 0 , 0 , 0 , 0 , 0 , 0 , 0 , 0 , 0 , 0 , 0 , 0 | 0xff000022:   89 ,  252 ,   41 ,  235 ,  245 ,  255 ,  237 ,  255 ,   10 ,    0 ,   31 ,    0 ,   82 ,   31 ,   70 ,    5 ,  228 ,   47 ,  178 ,  195 ,    7 ,  128 ,    0 ,    0 ,    0 ,  128 ,    0 ,    0 ,    0 ,    0 ,    9 ,    9 ,    0 ,    0 ,    0 ,    0 ,    0 ,  201 ,   63 ,  178 ,  195 ,   40 ,    8 ,    0 ,   59 ,  161 ,  103 ,   32 ,  214 ,   31 ,   12 ,  132 
E: 000000.145975 64 01 81 7e 80 81 00 00 7c 08 00 00 00 59 fc 29 eb f5 ff ed ff 0a 00 1f 00 52 1f 46 05 e4 2f b2 c3 07 80 00 00 00 80 00 00 00 00 09 09 00 00 00 00 00 c9 3f b2 c3 28 08 00 3b a1 67 20 d6 1f 0c 84
# ReportID: 1 / X:  129 | Y:  127 | Z:  128 | Rz:  129 | Rx:    0 | Ry:    0 | 0xff000020:  125 | Hat switch:   8 | Button: 0  0  0  0  0  0  0  0  0  0  0  0  0  0  0 | 0xff000021: 0 , 0 , 0 , 0 , 0 , 0 , 0 , 0 , 0 , 0 , 0 , 0 , 0 | 0xff000022:   90 ,  252 ,   41 ,  235 ,  245 ,  255 ,  238 ,  255 ,   10 ,    0 ,   31 ,    0 ,   86 ,   31 ,   73 ,    5 ,  215 ,   94 ,  178 ,  195 ,    7 ,  128 ,    0 ,    0 ,    0 ,  128 ,    0 ,    0 ,    0 ,    0 ,    9 ,    9 ,    0 ,    0 ,    0 ,    0 ,    0 ,  169 ,  110 ,  178 ,  195 ,   40 ,    8 ,    0 ,   55 ,  130 ,   26 ,  110 ,   56 ,  219 ,  213 ,  107 
E: 000000.149854 64 01 81 7f 80 81 00 00 7d 08 00 00 00 5a fc 29 eb f5 ff ee ff 0a 00 1f 00 56 1f 49 05 d7 5e b2 c3 07 80 00 00 00 80 00 00 00 00 09 09 00 00 00 00 00 a9 6e b2 c3 28 08 00 37 82 1a 6e 38 db d5 6b
# ReportID: 1 / X:  129 | Y:  127 | Z:  128 | Rz:  129 | Rx:    0 | Ry:    0 | 0xff000020:  126 | Hat switch:   8 | Button: 0  0  0  0  0  0  0  0  0  0  0  0  0  0  0 | 0xff000021: 0 , 0 , 0 , 0 , 0 , 0 , 0 , 0 , 0 , 0 , 0 , 0 , 0 | 0xff000022:   91 ,  252 ,   41 ,  235 ,  245 ,  255 ,  238 ,  255 ,    9 ,    0 ,   44 ,    0 ,   80 ,   31 ,   77 ,    5 ,  202 ,  141 ,  178 ,  195 ,    7 ,  128 ,    0 ,    0 ,    0 ,  128 ,    0 ,    0 ,    0 ,    0 ,    9 ,    9 ,    0 ,    0 ,    0 ,    0 ,    0 ,  137 ,  157 ,  178 ,  195 ,   40 ,    8 ,    0 ,  202 ,   51 ,  158 ,  162 ,  122 ,  230 ,   85 ,   16 
E: 000000.153579 64 01 81 7f 80 81 00 00 7e 08 00 00 00 5b fc 29 eb f5 ff ee ff 09 00 2c 00 50 1f 4d 05 ca 8d b2 c3 07 80 00 00 00 80 00 00 00 00 09 09 00 00 00 00 00 89 9d b2 c3 28 08 00 ca 33 9e a2 7a e6 55 10
# ReportID: 1 / X:  129 | Y:  127 | Z:  128 | Rz:  129 | Rx:    0 | Ry:    0 | 0xff000020:  127 | Hat switch:   8 | Button: 0  0  0  0  0  0  0  0  0  0  0  0  0  0  0 | 0xff000021: 0 , 0 , 0 , 0 , 0 , 0 , 0 , 0 , 0 , 0 , 0 , 0 , 0 | 0xff000022:   92 ,  252 ,   41 ,  235 ,  245 ,  255 ,  238 ,  255 ,   11 ,    0 ,   54 ,    0 ,   71 ,   31 ,   75 ,    5 ,  189 ,  188 ,  178 ,  195 ,    7 ,  128 ,    0 ,    0 ,    0 ,  128 ,    0 ,    0 ,    0 ,    0 ,    9 ,    9 ,    0 ,    0 ,    0 ,    0 ,    0 ,  105 ,  204 ,  178 ,  195 ,   40 ,    8 ,    0 ,  240 ,   57 ,  174 ,  110 ,  112 ,    6 ,   33 ,   53 
E: 000000.157041 64 01 81 7f 80 81 00 00 7f 08 00 00 00 5c fc 29 eb f5 ff ee ff 0b 00 36 00 47 1f 4b 05 bd bc b2 c3 07 80 00 00 00 80 00 00 00 00 09 09 00 00 00 00 00 69 cc b2 c3 28 08 00 f0 39 ae 6e 70 06 21 35
# ReportID: 1 / X:  129 | Y:  126 | Z:  128 | Rz:  129 | Rx:    0 | Ry:    0 | 0xff000020:  128 | Hat switch:   8 | Button: 0  0  0  0  0  0  0  0  0  0  0  0  0  0  0 | 0xff000021: 0 , 0 , 0 , 0 , 0 , 0 , 0 , 0 , 0 , 0 , 0 , 0 , 0 | 0xff000022:   93 ,  252 ,   41 ,  235 ,  245 ,  255 ,  238 ,  255 ,   10 ,    0 ,   70 ,    0 ,   76 ,   31 ,   68 ,    5 ,  176 ,  235 ,  178 ,  195 ,    7 ,  128 ,    0 ,    0 ,    0 ,  128 ,    0 ,    0 ,    0 ,    0 ,    9 ,    9 ,    0 ,    0 ,    0 ,    0 ,    0 ,   73 ,  251 ,  178 ,  195 ,   40 ,    8 ,    0 ,   18 ,   35 ,  150 ,   33 ,  223 ,  213 ,  177 ,   27 
E: 000000.162799 64 01 81 7e 80 81 00 00 80 08 00 00 00 5d fc 29 eb f5 ff ee ff 0a 00 46 00 4c 1f 44 05 b0 eb b2 c3 07 80 00 00 00 80 00 00 00 00 09 09 00 00 00 00 00 49 fb b2 c3 28 08 00 12 23 96 21 df d5 b1 1b
# ReportID: 1 / X:  129 | Y:  127 | Z:  128 | Rz:  129 | Rx:    0 | Ry:    0 | 0xff000020:  129 | Hat switch:   8 | Button: 0  0  0  0  0  0  0  0  0  0  0  0  0  0  0 | 0xff000021: 0 , 0 , 0 , 0 , 0 , 0 , 0 , 0 , 0 , 0 , 0 , 0 , 0 | 0xff000022:   94 ,  252 ,   41 ,  235 ,  247 ,  255 ,  238 ,  255 ,    9 ,    0 ,   74 ,    0 ,   78 ,   31 ,   64 ,    5 ,  163 ,   26 ,  179 ,  195 ,    7 ,  128 ,    0 ,    0 ,    0 ,  128 ,    0 ,    0 ,    0 ,    0 ,    9 ,    9 ,    0 ,    0 ,    0 ,    0 ,    0 ,   41 ,   42 ,  179 ,  195 ,   40 ,    8 ,    0 ,  204 ,  175 ,  226 ,  109 ,  144 ,  231 ,    1 ,  223 
E: 000000.166366 64 01 81 7f 80 81 00 00 81 08 00 00 00 5e fc 29 eb f7 ff ee ff 09 00 4a 00 4e 1f 40 05 a3 1a b3 c3 07 80 00 00 00 80 00 00 00 00 09 09 00 00 00 00 00 29 2a b3 c3 28 08 00 cc af e2 6d 90 e7 01 df
# ReportID: 1 / X:  129 | Y:  127 | Z:  128 | Rz:  129 | Rx:    0 | Ry:    0 | 0xff000020:  130 | Hat switch:   8 | Button: 0  0  0  0  0  0  0  0  0  0  0  0  0  0  0 | 0xff000021: 0 , 0 , 0 , 0 , 0 , 0 , 0 , 0 , 0 , 0 , 0 , 0 , 0 | 0xff000022:   95 ,  252 ,   41 ,  235 ,  246 ,  255 ,  239 ,  255 ,   10 ,    0 ,   78 ,    0 ,   57 ,   31 ,   79 ,    5 ,  150 ,   73 ,  179 ,  195 ,    7 ,  128 ,    0 ,    0 ,    0 ,  128 ,    0 ,    0 ,    0 ,    0 ,    9 ,    9 ,    0 ,    0 ,    0 ,    0 ,    0 ,    9 ,   89 ,  179 ,  195 ,   40 ,    8 ,    0 ,  140 ,   20 ,   38 ,  139 ,  252 ,   50 ,   81 ,  202 
E: 000000.170840 64 01 81 7f 80 81 00 00 82 08 00 00 00 5f fc 29 eb f6 ff ef ff 0a 00 4e 00 39 1f 4f 05 96 49 b3 c3 07 80 00 00 00 80 00 00 00 00 09 09 00 00 00 00 00 09 59 b3 c3 28 08 00 8c 14 26 8b fc 32 51 ca
# ReportID: 1 / X:  129 | Y:  127 | Z:  128 | Rz:  129 | Rx:    0 | Ry:    0 | 0xff000020:  131 | Hat switch:   8 | Button: 0  0  0  0  0  0  0  0  0  0  0  0  0  0  0 | 0xff000021: 0 , 0 , 0 , 0 , 0 , 0 , 0 , 0 , 0 , 0 , 0 , 0 , 0 | 0xff000022:   96 ,  252 ,   41 ,  235 ,  246 ,  255 ,  238 ,  255 ,    9 ,    0 ,   77 ,    0 ,   50 ,   31 ,   75 ,    5 ,  137 ,  120 ,  179 ,  195 ,    7 ,  128 ,    0 ,    0 ,    0 ,  128 ,    0 ,    0 ,    0 ,    0 ,    9 ,    9 ,    0 ,    0 ,    0 ,    0 ,    0 ,  233 ,  135 ,  179 ,  195 ,   40 ,    8 ,    0 ,  141 ,  193 ,   80 ,  191 ,  154 ,   30 ,  109 ,    2 
E: 000000.174490 64 01 81 7f 80 81 00 00 83 08 00 00 00 60 fc 29 eb f6 ff ee ff 09 00 4d 00 32 1f 4b 05 89 78 b3 c3 07 80 00 00 00 80 00 00 00 00 09 09 00 00 00 00 00 e9 87 b3 c3 28 08 00 8d c1 50 bf 9a 1e 6d 02
# ReportID: 1 / X:  129 | Y:  127 | Z:  128 | Rz:  129 | Rx:    0 | Ry:    0 | 0xff000020:  132 | Hat switch:   8 | Button: 0  0  0  0  0  0  0  0  0  0  0  0  0  0  0 | 0xff000021: 0 , 0 , 0 , 0 , 0 , 0 , 0 , 0 , 0 , 0 , 0 , 0 , 0 | 0xff000022:   97 ,  252 ,   41 ,  235 ,  246 ,  255 ,  239 ,  255 ,   10 ,    0 ,   72 ,    0 ,   81 ,   31 ,   66 ,    5 ,  124 ,  167 ,  179 ,  195 ,    7 ,  128 ,    0 ,    0 ,    0 ,  128 ,    0 ,    0 ,    0 ,    0 ,    9 ,    9 ,    0 ,    0 ,    0 ,    0 ,    0 ,  201 ,  182 ,  179 ,  195 ,   40 ,    8 ,    0 ,   67 ,  170 ,  168 ,   38 ,  235 ,  159 ,  175 ,   74 
E: 000000.177847 64 01 81 7f 80 81 00 00 84 08 00 00 00 61 fc 29 eb f6 ff ef ff 0a 00 48 00 51 1f 42 05 7c a7 b3 c3 07 80 00 00 00 80 00 00 00 00 09 09 00 00 00 00 00 c9 b6 b3 c3 28 08 00 43 aa a8 26 eb 9f af 4a
# ReportID: 1 / X:  129 | Y:  127 | Z:  128 | Rz:  129 | Rx:    0 | Ry:    0 | 0xff000020:  133 | Hat switch:   8 | Button: 0  0  0  0  0  0  0  0  0  0  0  0  0  0  0 | 0xff000021: 0 , 0 , 0 , 0 , 0 , 0 , 0 , 0 , 0 , 0 , 0 , 0 , 0 | 0xff000022:   98 ,  252 ,   41 ,  235 ,  247 ,  255 ,  238 ,  255 ,   10 ,    0 ,   85 ,    0 ,  100 ,   31 ,   80 ,    5 ,  111 ,  214 ,  179 ,  195 ,    7 ,  128 ,    0 ,    0 ,    0 ,  128 ,    0 ,    0 ,    0 ,    0 ,    9 ,    9 ,    0 ,    0 ,    0 ,    0 ,    0 ,  169 ,  229 ,  179 ,  195 ,   40 ,    8 ,    0 ,  255 ,   50 ,  185 ,   48 ,   56 ,  153 ,    9 ,   17 
E: 000000.180921 64 01 81 7f 80 81 00 00 85 08 00 00 00 62 fc 29 eb f7 ff ee ff 0a 00 55 00 64 1f 50 05 6f d6 b3 c3 07 80 00 00 00 80 00 00 00 00 09 09 00 00 00 00 00 a9 e5 b3 c3 28 08 00 ff 32 b9 30 38 99 09 11
# ReportID: 1 / X:  129 | Y:  126 | Z:  128 | Rz:  129 | Rx:    0 | Ry:    0 | 0xff000020:  134 | Hat switch:   8 | Button: 0  0  0  0  0  0  0  0  0  0  0  0  0  0  0 | 0xff000021: 0 , 0 , 0 , 0 , 0 , 0 , 0 , 0 , 0 , 0 , 0 , 0 , 0 | 0xff000022:   99 ,  252 ,   41 ,  235 ,  246 ,  255 ,  238 ,  255 ,    9 ,    0 ,   85 ,    0 ,  104 ,   31 ,   78 ,    5 ,   98 ,    5 ,  180 ,  195 ,    7 ,  128 ,    0 ,    0 ,    0 ,  128 ,    0 ,    0 ,    0 ,    0 ,    9 ,    9 ,    0 ,    0 ,    0 ,    0 ,    0 ,  137 ,   20 ,  180 ,  195 ,   40 ,    8 ,    0 ,   70 ,   14 ,   10 ,   26 ,   27 ,    7 ,  171 ,  180 
E: 000000.186628 64 01 81 7e 80 81 00 00 86 08 00 00 00 63 fc 29 eb f6 ff ee ff 09 00 55 00 68 1f 4e 05 62 05 b4 c3 07 80 00 00 00 80 00 00 00 00 09 09 00 00 00 00 00 89 14 b4 c3 28 08 00 46 0e 0a 1a 1b 07 ab b4
# ReportID: 1 / X:  129 | Y:  127 | Z:  128 | Rz:  129 | Rx:    0 | Ry:    0 | 0xff000020:  135 | Hat switch:   8 | Button: 0  0  0  0  0  0  0  0  0  0  0  0  0  0  0 | 0xff000021: 0 , 0 , 0 , 0 , 0 , 0 , 0 , 0 , 0 , 0 , 0 , 0 , 0 | 0xff000022:  100 ,  252 ,   41 ,  235 ,  246 ,  255 ,  239 ,  255 ,    9 ,    0 ,   77 ,    0 ,   92 ,   31 ,   64 ,    5 ,   85 ,   52 ,  180 ,  195 ,    7 ,  128 ,    0 ,    0 ,    0 ,  128 ,    0 ,    0 ,    0 ,    0 ,    9 ,    9 ,    0 ,    0 ,    0 ,    0 ,    0 ,  105 ,   67 ,  180 ,  195 ,   40 ,    8 ,    0 ,   98 ,  159 ,  143 ,  191 ,   19 ,  189 ,   92 ,  155 
E: 000000.189713 64 01 81 7f 80 81 00 00 87 08 00 00 00 64 fc 29 eb f6 ff ef ff 09 00 4d 00 5c 1f 40 05 55 34 b4 c3 07 80 00 00 00 80 00 00 00 00 09 09 00 00 00 00 00 69 43 b4 c3 28 08 00 62 9f 8f bf 13 bd 5c 9b
# ReportID: 1 / X:  129 | Y:  127 | Z:  128 | Rz:  129 | Rx:    0 | Ry:    0 | 0xff000020:  136 | Hat switch:   8 | Button: 0  0  0  0  0  0  0  0  0  0  0  0  0  0  0 | 0xff000021: 0 , 0 , 0 , 0 , 0 , 0 , 0 , 0 , 0 , 0 , 0 , 0 , 0 | 0xff000022:  101 ,  252 ,   41 ,  235 ,  245 ,  255 ,  238 ,  255 ,   10 ,    0 ,   73 ,    0 ,   91 ,   31 ,   49 ,    5 ,   72 ,   99 ,  180 ,  195 ,    7 ,  128 ,    0 ,    0 ,    0 ,  128 ,    0 ,    0 ,    0 ,    0 ,    9 ,    9 ,    0 ,    0 ,    0 ,    0 ,    0 ,   73 ,  114 ,  180 ,  195 ,   40 ,    8 ,    0 ,   41 ,  160 ,   58 ,   48 ,   39 ,   21 ,   29 ,  188 
E: 000000.193707 64 01 81 7f 80 81 00 00 88 08 00 00 00 65 fc 29 eb f5 ff ee ff 0a 00 49 00 5b 1f 31 05 48 63 b4 c3 07 80 00 00 00 80 00 00 00 00 09 09 00 00 00 00 00 49 72 b4 c3 28 08 00 29 a0 3a 30 27 15 1d bc
# ReportID: 1 / X:  129 | Y:  127 | Z:  128 | Rz:  129 | Rx:    0 | Ry:    0 | 0xff000020:  137 | Hat switch:   8 | Button: 0  0  0  0  0  0  0  0  0  0  0  0  0  0  0 | 0xff000021: 0 , 0 , 0 , 0 , 0 , 0 , 0 , 0 , 0 , 0 , 0 , 0 , 0 | 0xff000022:  102 ,  252 ,   41 ,  235 ,  246 ,  255 ,  239 ,  255 ,    9 ,    0 ,   68 ,    0 ,   73 ,   31 ,   45 ,    5 ,   59 ,  146 ,  180 ,  195 ,    7 ,  128 ,    0 ,    0 ,    0 ,  128 ,    0 ,    0 ,    0 ,    0 ,    9 ,    9 ,    0 ,    0 ,    0 ,    0 ,    0 ,   41 ,  161 ,  180 ,  195 ,   40 ,    8 ,    0 ,  125 ,  130 ,  159 ,  194 ,  118 ,  196 ,  212 ,   93 
E: 000000.197350 64 01 81 7f 80 81 00 00 89 08 00 00 00 66 fc 29 eb f6 ff ef ff 09 00 44 00 49 1f 2d 05 3b 92 b4 c3 07 80 00 00 00 80 00 00 00 00 09 09 00 00 00 00 00 29 a1 b4 c3 28 08 00 7d 82 9f c2 76 c4 d4 5d
# ReportID: 1 / X:  129 | Y:  127 | Z:  128 | Rz:  129 | Rx:    0 | Ry:    0 | 0xff000020:  138 | Hat switch:   8 | Button: 0  0  0  0  0  0  0  0  0  0  0  0  0  0  0 | 0xff000021: 0 , 0 , 0 , 0 , 0 , 0 , 0 , 0 , 0 , 0 , 0 , 0 , 0 | 0xff000022:  103 ,  252 ,   41 ,  235 ,  246 ,  255 ,  240 ,  255 ,    8 ,    0 ,   47 ,    0 ,   81 ,   31 ,   37 ,    5 ,   46 ,  193 ,  180 ,  195 ,    7 ,  128 ,    0 ,    0 ,    0 ,  128 ,    0 ,    0 ,    0 ,    0 ,    9 ,    9 ,    0 ,    0 ,    0 ,    0 ,    0 ,    9 ,  208 ,  180 ,  195 ,   40 ,    8 ,    0 ,   62 ,  165 ,   29 ,   21 ,  233 ,  194 ,  168 ,   90 
E: 000000.201703 64 01 81 7f 80 81 00 00 8a 08 00 00 00 67 fc 29 eb f6 ff f0 ff 08 00 2f 00 51 1f 25 05 2e c1 b4 c3 07 80 00 00 00 80 00 00 00 00 09 09 00 00 00 00 00 09 d0 b4 c3 28 08 00 3e a5 1d 15 e9 c2 a8 5a
# ReportID: 1 / X:  129 | Y:  127 | Z:  128 | Rz:  129 | Rx:    0 | Ry:    0 | 0xff000020:  139 | Hat switch:   8 | Button: 0  0  0  0  0  0  0  0  0  0  0  0  0  0  0 | 0xff000021: 0 , 0 , 0 , 0 , 0 , 0 , 0 , 0 , 0 , 0 , 0 , 0 , 0 | 0xff000022:  104 ,  252 ,   41 ,  235 ,  246 ,  255 ,  239 ,  255 ,    9 ,    0 ,   44 ,    0 ,   97 ,   31 ,   31 ,    5 ,   33 ,  240 ,  180 ,  195 ,    7 ,  128 ,    0 ,    0 ,    0 ,  128 ,    0 ,    0 ,    0 ,    0 ,    9 ,    9 ,    0 ,    0 ,    0 ,    0 ,    0 ,  233 ,  254 ,  180 ,  195 ,   40 ,    8 ,    0 ,  226 ,  116 ,    7 ,  113 ,  137 ,  137 ,   55 ,  231 
E: 000000.206788 64 01 81 7f 80 81 00 00 8b 08 00 00 00 68 fc 29 eb f6 ff ef ff 09 00 2c 00 61 1f 1f 05 21 f0 b4 c3 07 80 00 00 00 80 00 00 00 00 09 09 00 00 00 00 00 e9 fe b4 c3 28 08 00 e2 74 07 71 89 89 37 e7
# ReportID: 1 / X:  129 | Y:  127 | Z:  128 | Rz:  129 | Rx:    0 | Ry:    0 | 0xff000020:  140 | Hat switch:   8 | Button: 0  0  0  0  0  0  0  0  0  0  0  0  0  0  0 | 0xff000021: 0 , 0 , 0 , 0 , 0 , 0 , 0 , 0 , 0 , 0 , 0 , 0 , 0 | 0xff000022:  105 ,  252 ,   41 ,  235 ,  245 ,  255 ,  240 ,  255 ,    9 ,    0 ,   36 ,    0 ,  117 ,   31 ,   15 ,    5 ,   20 ,   31 ,  181 ,  195 ,    7 ,  128 ,    0 ,    0 ,    0 ,  128 ,    0 ,    0 ,    0 ,    0 ,    9 ,    9 ,    0 ,    0 ,    0 ,    0 ,    0 ,  201 ,   45 ,  181 ,  195 ,   40 ,    8 ,    0 ,  243 ,  121 ,  242 ,   15 ,   75 ,  148 ,  127 ,   92 
E: 000000.210303 64 01 81 7f 80 81 00 00 8c 08 00 00 00 69 fc 29 eb f5 ff f0 ff 09 00 24 00 75 1f 0f 05 14 1f b5 c3 07 80 00 00 00 80 00 00 00 00 09 09 00 00 00 00 00 c9 2d b5 c3 28 08 00 f3 79 f2 0f 4b 94 7f 5c
# ReportID: 1 / X:  129 | Y:  127 | Z:  128 | Rz:  129 | Rx:    0 | Ry:    0 | 0xff000020:  141 | Hat switch:   8 | Button: 0  0  0  0  0  0  0  0  0  0  0  0  0  0  0 | 0xff000021: 0 , 0 , 0 , 0 , 0 , 0 , 0 , 0 , 0 , 0 , 0 , 0 , 0 | 0xff000022:  106 ,  252 ,   41 ,  235 ,  245 ,  255 ,  240 ,  255 ,    9 ,    0 ,   40 ,    0 ,  114 ,   31 ,    9 ,    5 ,    7 ,   78 ,  181 ,  195 ,    7 ,  128 ,    0 ,    0 ,    0 ,  128 ,    0 ,    0 ,    0 ,    0 ,    9 ,    9 ,    0 ,    0 ,    0 ,    0 ,    0 ,  169 ,   92 ,  181 ,  195 ,   40 ,    8 ,    0 ,  171 ,  235 ,  101 ,  194 ,  128 ,   27 ,   90 ,  249 
E: 000000.214029 64 01 81 7f 80 81 00 00 8d 08 00 00 00 6a fc 29 eb f5 ff f0 ff 09 00 28 00 72 1f 09 05 07 4e b5 c3 07 80 00 00 00 80 00 00 00 00 09 09 00 00 00 00 00 a9 5c b5 c3 28 08 00 ab eb 65 c2 80 1b 5a f9
# ReportID: 1 / X:  129 | Y:  127 | Z:  128 | Rz:  129 | Rx:    0 | Ry:    0 | 0xff000020:  142 | Hat switch:   8 | Button: 0  0  0  0  0  0  0  0  0  0  0  0  0  0  0 | 0xff000021: 0 , 0 , 0 , 0 , 0 , 0 , 0 , 0 , 0 , 0 , 0 , 0 , 0 | 0xff000022:  107 ,  252 ,   41 ,  235 ,  244 ,  255 ,  239 ,  255 ,    9 ,    0 ,   39 ,    0 ,  110 ,   31 ,    6 ,    5 ,  250 ,  124 ,  181 ,  195 ,    7 ,  128 ,    0 ,    0 ,    0 ,  128 ,    0 ,    0 ,    0 ,    0 ,    9 ,    9 ,    0 ,    0 ,    0 ,    0 ,    0 ,  137 ,  139 ,  181 ,  195 ,   40 ,    8 ,    0 ,   39 ,   42 ,    0 ,   63 ,  204 ,  238 ,   75 ,  148 
E: 000000.217505 64 01 81 7f 80 81 00 00 8e 08 00 00 00 6b fc 29 eb f4 ff ef ff 09 00 27 00 6e 1f 06 05 fa 7c b5 c3 07 80 00 00 00 80 00 00 00 00 09 09 00 00 00 00 00 89 8b b5 c3 28 08 00 27 2a 00 3f cc ee 4b 94
# ReportID: 1 / X:  129 | Y:  127 | Z:  128 | Rz:  129 | Rx:    0 | Ry:    0 | 0xff000020:  143 | Hat switch:   8 | Button: 0  0  0  0  0  0  0  0  0  0  0  0  0  0  0 | 0xff000021: 0 , 0 , 0 , 0 , 0 , 0 , 0 , 0 , 0 , 0 , 0 , 0 , 0 | 0xff000022:  108 ,  252 ,   41 ,  235 ,  244 ,  255 ,  239 ,  255 ,    8 ,    0 ,   26 ,    0 ,  102 ,   31 ,  253 ,    4 ,  237 ,  171 ,  181 ,  195 ,    7 ,  128 ,    0 ,    0 ,    0 ,  128 ,    0 ,    0 ,    0 ,    0 ,    9 ,    9 ,    0 ,    0 ,    0 ,    0 ,    0 ,  105 ,  186 ,  181 ,  195 ,   40 ,    8 ,    0 ,  109 ,  144 ,    4 ,  183 ,  189 ,  208 ,  159 ,   43 
E: 000000.220899 64 01 81 7f 80 81 00 00 8f 08 00 00 00 6c fc 29 eb f4 ff ef ff 08 00 1a 00 66 1f fd 04 ed ab b5 c3 07 80 00 00 00 80 00 00 00 00 09 09 00 00 00 00 00 69 ba b5 c3 28 08 00 6d 90 04 b7 bd d0 9f 2b
# ReportID: 1 / X:  129 | Y:  127 | Z:  128 | Rz:  129 | Rx:    0 | Ry:    0 | 0xff000020:  144 | Hat switch:   8 | Button: 0  0  0  0  0  0  0  0  0  0  0  0  0  0  0 | 0xff000021: 0 , 0 , 0 , 0 , 0 , 0 , 0 , 0 , 0 , 0 , 0 , 0 , 0 | 0xff000022:  109 ,  252 ,   41 ,  235 ,  244 ,  255 ,  239 ,  255 ,    9 ,    0 ,   22 ,    0 ,  101 ,   31 ,    8 ,    5 ,  224 ,  218 ,  181 ,  195 ,    7 ,  128 ,    0 ,    0 ,    0 ,  128 ,    0 ,    0 ,    0 ,    0 ,    9 ,    9 ,    0 ,    0 ,    0 ,    0 ,    0 ,   73 ,  233 ,  181 ,  195 ,   40 ,    8 ,    0 ,   95 ,  216 ,  238 ,  239 ,    5 ,  127 ,  197 ,  203 
E: 000000.227219 64 01 81 7f 80 81 00 00 90 08 00 00 00 6d fc 29 eb f4 ff ef ff 09 00 16 00 65 1f 08 05 e0 da b5 c3 07 80 00 00 00 80 00 00 00 00 09 09 00 00 00 00 00 49 e9 b5 c3 28 08 00 5f d8 ee ef 05 7f c5 cb
# ReportID: 1 / X:  129 | Y:  127 | Z:  128 | Rz:  129 | Rx:    0 | Ry:    0 | 0xff000020:  145 | Hat switch:   8 | Button: 0  0  0  0  0  0  0  0  0  0  0  0  0  0  0 | 0xff000021: 0 , 0 , 0 , 0 , 0 , 0 , 0 , 0 , 0 , 0 , 0 , 0 , 0 | 0xff000022:  110 ,  252 ,   41 ,  235 ,  243 ,  255 ,  239 ,  255 ,    8 ,    0 ,   15 ,    0 ,   98 ,   31 ,   16 ,    5 ,  211 ,    9 ,  182 ,  195 ,    7 ,  128 ,    0 ,    0 ,    0 ,  128 ,    0 ,    0 ,    0 ,    0 ,    9 ,    9 ,    0 ,    0 ,    0 ,    0 ,    0 ,   41 ,   24 ,  182 ,  195 ,   40 ,    8 ,    0 ,   85 ,  105 ,   69 ,  175 ,  182 ,   42 ,  122 ,  251 
E: 000000.228920 64 01 81 7f 80 81 00 00 91 08 00 00 00 6e fc 29 eb f3 ff ef ff 08 00 0f 00 62 1f 10 05 d3 09 b6 c3 07 80 00 00 00 80 00 00 00 00 09 09 00 00 00 00 00 29 18 b6 c3 28 08 00 55 69 45 af b6 2a 7a fb
# ReportID: 1 / X:  129 | Y:  127 | Z:  128 | Rz:  129 | Rx:    0 | Ry:    0 | 0xff000020:  146 | Hat switch:   8 | Button: 0  0  0  0  0  0  0  0  0  0  0  0  0  0  0 | 0xff000021: 0 , 0 , 0 , 0 , 0 , 0 , 0 , 0 , 0 , 0 , 0 , 0 , 0 | 0xff000022:  111 ,  252 ,   41 ,  235 ,  244 ,  255 ,  239 ,  255 ,    8 ,    0 ,   20 ,    0 ,  102 ,   31 ,   13 ,    5 ,  198 ,   56 ,  182 ,  195 ,    7 ,  128 ,    0 ,    0 ,    0 ,  128 ,    0 ,    0 ,    0 ,    0 ,    9 ,    9 ,    0 ,    0 ,    0 ,    0 ,    0 ,    9 ,   71 ,  182 ,  195 ,   40 ,    8 ,    0 ,  164 ,   54 ,   73 ,  209 ,  112 ,   58 ,  120 ,  136 
E: 000000.233840 64 01 81 7f 80 81 00 00 92 08 00 00 00 6f fc 29 eb f4 ff ef ff 08 00 14 00 66 1f 0d 05 c6 38 b6 c3 07 80 00 00 00 80 00 00 00 00 09 09 00 00 00 00 00 09 47 b6 c3 28 08 00 a4 36 49 d1 70 3a 78 88
# ReportID: 1 / X:  129 | Y:  127 | Z:  128 | Rz:  129 | Rx:    0 | Ry:    0 | 0xff000020:  147 | Hat switch:   8 | Button: 0  0  0  0  0  0  0  0  0  0  0  0  0  0  0 | 0xff000021: 0 , 0 , 0 , 0 , 0 , 0 , 0 , 0 , 0 , 0 , 0 , 0 , 0 | 0xff000022:  112 ,  252 ,   41 ,  235 ,  244 ,  255 ,  239 ,  255 ,    9 ,    0 ,   33 ,    0 ,  121 ,   31 ,   31 ,    5 ,  219 ,   97 ,  182 ,  195 ,    7 ,  128 ,    0 ,    0 ,    0 ,  128 ,    0 ,    0 ,    0 ,    0 ,    9 ,    9 ,    0 ,    0 ,    0 ,    0 ,    0 ,  233 ,  117 ,  182 ,  195 ,   40 ,    8 ,    0 ,   25 ,   16 ,   90 ,   88 ,   72 ,  162 ,   33 ,   13 
E: 000000.237539 64 01 81 7f 80 81 00 00 93 08 00 00 00 70 fc 29 eb f4 ff ef ff 09 00 21 00 79 1f 1f 05 db 61 b6 c3 07 80 00 00 00 80 00 00 00 00 09 09 00 00 00 00 00 e9 75 b6 c3 28 08 00 19 10 5a 58 48 a2 21 0d
# ReportID: 1 / X:  129 | Y:  127 | Z:  128 | Rz:  129 | Rx:    0 | Ry:    0 | 0xff000020:  148 | Hat switch:   8 | Button: 0  0  1  0  0  0  0  0  0  0  0  0  0  0  0 | 0xff000021: 0 , 0 , 0 , 0 , 0 , 0 , 0 , 0 , 0 , 0 , 0 , 0 , 0 | 0xff000022:  113 ,  252 ,   41 ,  235 ,  245 ,  255 ,  237 ,  255 ,   10 ,    0 ,   44 ,    0 ,  247 ,   31 ,   91 ,    5 ,  239 ,  138 ,  182 ,  195 ,    7 ,  128 ,    0 ,    0 ,    0 ,  128 ,    0 ,    0 ,    0 ,    0 ,    9 ,    9 ,    0 ,    0 ,    0 ,    0 ,    0 ,  200 ,  164 ,  182 ,  195 ,   40 ,    8 ,    0 ,  218 ,  214 ,  100 ,  142 ,  132 ,  199 ,   86 ,  197 
E: 000000.241008 64 01 81 7f 80 81 00 00 94 48 00 00 00 71 fc 29 eb f5 ff ed ff 0a 00 2c 00 f7 1f 5b 05 ef 8a b6 c3 07 80 00 00 00 80 00 00 00 00 09 09 00 00 00 00 00 c8 a4 b6 c3 28 08 00 da d6 64 8e 84 c7 56 c5
# ReportID: 1 / X:  129 | Y:  127 | Z:  128 | Rz:  129 | Rx:    0 | Ry:    0 | 0xff000020:  149 | Hat switch:   8 | Button: 0  0  1  0  0  0  0  0  0  0  0  0  0  0  0 | 0xff000021: 0 , 0 , 0 , 0 , 0 , 0 , 0 , 0 , 0 , 0 , 0 , 0 , 0 | 0xff000022:  114 ,  252 ,   41 ,  235 ,  235 ,  255 ,  241 ,  255 ,    2 ,    0 ,  225 ,  255 ,   88 ,   29 ,  111 ,    3 ,  226 ,  185 ,  182 ,  195 ,    7 ,  128 ,    0 ,    0 ,    0 ,  128 ,    0 ,    0 ,    0 ,    0 ,    9 ,    9 ,    0 ,    0 ,    0 ,    0 ,    0 ,  168 ,  211 ,  182 ,  195 ,   40 ,    8 ,    0 ,  221 ,  176 ,  189 ,  212 ,   40 ,  193 ,    2 ,  123 
E: 000000.245011 64 01 81 7f 80 81 00 00 95 48 00 00 00 72 fc 29 eb eb ff f1 ff 02 00 e1 ff 58 1d 6f 03 e2 b9 b6 c3 07 80 00 00 00 80 00 00 00 00 09 09 00 00 00 00 00 a8 d3 b6 c3 28 08 00 dd b0 bd d4 28 c1 02 7b
# ReportID: 1 / X:  129 | Y:  127 | Z:  128 | Rz:  129 | Rx:    0 | Ry:    0 | 0xff000020:  150 | Hat switch:   8 | Button: 0  0  1  0  0  0  0  0  0  0  0  0  0  0  0 | 0xff000021: 0 , 0 , 0 , 0 , 0 , 0 , 0 , 0 , 0 , 0 , 0 , 0 , 0 | 0xff000022:  115 ,  252 ,   41 ,  235 ,  239 ,  255 ,  242 ,  255 ,   10 ,    0 ,   22 ,    0 ,  207 ,   32 ,  251 ,    6 ,  213 ,  232 ,  182 ,  195 ,    7 ,  128 ,    0 ,    0 ,    0 ,  128 ,    0 ,    0 ,    0 ,    0 ,    9 ,    9 ,    0 ,    0 ,    0 ,    0 ,    0 ,  136 ,    2 ,  183 ,  195 ,   40 ,    8 ,    0 ,  223 ,  173 ,  109 ,  251 ,  253 ,  136 ,   39 ,  218 
E: 000000.249004 64 01 81 7f 80 81 00 00 96 48 00 00 00 73 fc 29 eb ef ff f2 ff 0a 00 16 00 cf 20 fb 06 d5 e8 b6 c3 07 80 00 00 00 80 00 00 00 00 09 09 00 00 00 00 00 88 02 b7 c3 28 08 00 df ad 6d fb fd 88 27 da
# ReportID: 1 / X:  129 | Y:  127 | Z:  128 | Rz:  129 | Rx:    0 | Ry:    0 | 0xff000020:  151 | Hat switch:   8 | Button: 0  0  1  0  0  0  0  0  0  0  0  0  0  0  0 | 0xff000021: 0 , 0 , 0 , 0 , 0 , 0 , 0 , 0 , 0 , 0 , 0 , 0 , 0 | 0xff000022:  116 ,  252 ,   41 ,  235 ,  245 ,  255 ,  240 ,  255 ,   11 ,    0 ,    9 ,    1 ,  137 ,   31 ,  231 ,    4 ,  200 ,   23 ,  183 ,  195 ,    7 ,  128 ,    0 ,    0 ,    0 ,  128 ,    0 ,    0 ,    0 ,    0 ,    9 ,    9 ,    0 ,    0 ,    0 ,    0 ,    0 ,  104 ,   49 ,  183 ,  195 ,   40 ,    8 ,    0 ,   30 ,  122 ,  127 ,  190 ,  165 ,  232 ,   54 ,  143 
E: 000000.253357 64 01 81 7f 80 81 00 00 97 48 00 00 00 74 fc 29 eb f5 ff f0 ff 0b 00 09 01 89 1f e7 04 c8 17 b7 c3 07 80 00 00 00 80 00 00 00 00 09 09 00 00 00 00 00 68 31 b7 c3 28 08 00 1e 7a 7f be a5 e8 36 8f
# ReportID: 1 / X:  129 | Y:  127 | Z:  128 | Rz:  129 | Rx:    0 | Ry:    0 | 0xff000020:  152 | Hat switch:   8 | Button: 0  0  1  0  0  0  0  0  0  0  0  0  0  0  0 | 0xff000021: 0 , 0 , 0 , 0 , 0 , 0 , 0 , 0 , 0 , 0 , 0 , 0 , 0 | 0xff000022:  117 ,  252 ,   41 ,  235 ,  244 ,  255 ,  234 ,  255 ,    6 ,    0 ,   16 ,    0 ,  102 ,   31 ,   67 ,    5 ,  187 ,   70 ,  183 ,  195 ,    7 ,  128 ,    0 ,    0 ,    0 ,  128 ,    0 ,    0 ,    0 ,    0 ,    9 ,    9 ,    0 ,    0 ,    0 ,    0 ,    0 ,   72 ,   96 ,  183 ,  195 ,   40 ,    8 ,    0 ,   73 ,  172 ,   69 ,   89 ,  188 ,  237 ,  153 ,  206 
E: 000000.258000 64 01 81 7f 80 81 00 00 98 48 00 00 00 75 fc 29 eb f4 ff ea ff 06 00 10 00 66 1f 43 05 bb 46 b7 c3 07 80 00 00 00 80 00 00 00 00 09 09 00 00 00 00 00 48 60 b7 c3 28 08 00 49 ac 45 59 bc ed 99 ce
# ReportID: 1 / X:  129 | Y:  127 | Z:  128 | Rz:  129 | Rx:    0 | Ry:    0 | 0xff000020:  153 | Hat switch:   8 | Button: 0  0  1  0  0  0  0  0  0  0  0  0  0  0  0 | 0xff000021: 0 , 0 , 0 , 0 , 0 , 0 , 0 , 0 , 0 , 0 , 0 , 0 , 0 | 0xff000022:  118 ,  252 ,   41 ,  235 ,  244 ,  255 ,  239 ,  255 ,    9 ,    0 ,    8 ,    0 ,    2 ,   31 ,   79 ,    5 ,  174 ,  117 ,  183 ,  195 ,    7 ,  128 ,    0 ,    0 ,    0 ,  128 ,    0 ,    0 ,    0 ,    0 ,    9 ,    9 ,    0 ,    0 ,    0 ,    0 ,    0 ,   40 ,  143 ,  183 ,  195 ,   40 ,    8 ,    0 ,  215 ,   83 ,   40 ,   51 ,  135 ,   51 ,  175 ,  186 
E: 000000.261182 64 01 81 7f 80 81 00 00 99 48 00 00 00 76 fc 29 eb f4 ff ef ff 09 00 08 00 02 1f 4f 05 ae 75 b7 c3 07 80 00 00 00 80 00 00 00 00 09 09 00 00 00 00 00 28 8f b7 c3 28 08 00 d7 53 28 33 87 33 af ba
# ReportID: 1 / X:  129 | Y:  127 | Z:  128 | Rz:  129 | Rx:    0 | Ry:    0 | 0xff000020:  154 | Hat switch:   8 | Button: 0  0  1  0  0  0  0  0  0  0  0  0  0  0  0 | 0xff000021: 0 , 0 , 0 , 0 , 0 , 0 , 0 , 0 , 0 , 0 , 0 , 0 , 0 | 0xff000022:  119 ,  252 ,   41 ,  235 ,  244 ,  255 ,  238 ,  255 ,   10 ,    0 ,  105 ,    0 ,   76 ,   31 ,   49 ,    5 ,  161 ,  164 ,  183 ,  195 ,    7 ,  128 ,    0 ,    0 ,    0 ,  128 ,    0 ,    0 ,    0 ,    0 ,    9 ,    9 ,    0 ,    0 ,    0 ,    0 ,    0 ,    8 ,  190 ,  183 ,  195 ,   40 ,    8 ,    0 ,  213 ,  167 ,  186 ,  176 ,   18 ,  145 ,    6 ,  211 
E: 000000.265184 64 01 81 7f 80 81 00 00 9a 48 00 00 00 77 fc 29 eb f4 ff ee ff 0a 00 69 00 4c 1f 31 05 a1 a4 b7 c3 07 80 00 00 00 80 00 00 00 00 09 09 00 00 00 00 00 08 be b7 c3 28 08 00 d5 a7 ba b0 12 91 06 d3
# ReportID: 1 / X:  129 | Y:  127 | Z:  128 | Rz:  129 | Rx:    0 | Ry:    0 | 0xff000020:  155 | Hat switch:   8 | Button: 0  0  1  0  0  0  0  0  0  0  0  0  0  0  0 | 0xff000021: 0 , 0 , 0 , 0 , 0 , 0 , 0 , 0 , 0 , 0 , 0 , 0 , 0 | 0xff000022:  120 ,  252 ,   41 ,  235 ,  243 ,  255 ,  238 ,  255 ,    9 ,    0 ,   59 ,    0 ,  102 ,   31 ,   94 ,    5 ,  148 ,  211 ,  183 ,  195 ,    7 ,  128 ,    0 ,    0 ,    0 ,  128 ,    0 ,    0 ,    0 ,    0 ,    9 ,    9 ,    0 ,    0 ,    0 ,    0 ,    0 ,  232 ,  236 ,  183 ,  195 ,   40 ,    8 ,    0 ,   16 ,   92 ,  160 ,  238 ,  218 ,   13 ,  141 ,   31 
E: 000000.268967 64 01 81 7f 80 81 00 00 9b 48 00 00 00 78 fc 29 eb f3 ff ee ff 09 00 3b 00 66 1f 5e 05 94 d3 b7 c3 07 80 00 00 00 80 00 00 00 00 09 09 00 00 00 00 00 e8 ec b7 c3 28 08 00 10 5c a0 ee da 0d 8d 1f
# ReportID: 1 / X:  129 | Y:  126 | Z:  128 | Rz:  129 | Rx:    0 | Ry:    0 | 0xff000020:  156 | Hat switch:   8 | Button: 0  0  1  0  0  0  0  0  0  0  0  0  0  0  0 | 0xff000021: 0 , 0 , 0 , 0 , 0 , 0 , 0 , 0 , 0 , 0 , 0 , 0 , 0 | 0xff000022:  121 ,  252 ,   41 ,  235 ,  246 ,  255 ,  239 ,  255 ,    9 ,    0 ,   70 ,    0 ,   76 ,   31 ,   92 ,    5 ,  135 ,    2 ,  184 ,  195 ,    7 ,  128 ,    0 ,    0 ,    0 ,  128 ,    0 ,    0 ,    0 ,    0 ,    9 ,    9 ,    0 ,    0 ,    0 ,    0 ,    0 ,  216 ,   27 ,  184 ,  195 ,   40 ,    8 ,    0 ,  201 ,  142 ,   61 ,   62 ,   20 ,   67 ,  146 ,  139 
E: 000000.273418 64 01 81 7e 80 81 00 00 9c 48 00 00 00 79 fc 29 eb f6 ff ef ff 09 00 46 00 4c 1f 5c 05 87 02 b8 c3 07 80 00 00 00 80 00 00 00 00 09 09 00 00 00 00 00 d8 1b b8 c3 28 08 00 c9 8e 3d 3e 14 43 92 8b
# ReportID: 1 / X:  129 | Y:  126 | Z:  128 | Rz:  129 | Rx:    0 | Ry:    0 | 0xff000020:  157 | Hat switch:   8 | Button: 0  0  1  0  0  0  0  0  0  0  0  0  0  0  0 | 0xff000021: 0 , 0 , 0 , 0 , 0 , 0 , 0 , 0 , 0 , 0 , 0 , 0 , 0 | 0xff000022:  122 ,  252 ,   41 ,  235 ,  246 ,  255 ,  239 ,  255 ,    9 ,    0 ,  106 ,    0 ,   97 ,   31 ,   56 ,    5 ,  122 ,   49 ,  184 ,  195 ,    7 ,  128 ,    0 ,    0 ,    0 ,  128 ,    0 ,    0 ,    0 ,    0 ,    9 ,    9 ,    0 ,    0 ,    0 ,    0 ,    0 ,  202 ,   74 ,  184 ,  195 ,   40 ,    8 ,    0 ,  148 ,  204 ,   88 ,  109 ,  146 ,   59 ,   94 ,  165 
E: 000000.277323 64 01 81 7e 80 81 00 00 9d 48 00 00 00 7a fc 29 eb f6 ff ef ff 09 00 6a 00 61 1f 38 05 7a 31 b8 c3 07 80 00 00 00 80 00 00 00 00 09 09 00 00 00 00 00 ca 4a b8 c3 28 08 00 94 cc 58 6d 92 3b 5e a5
# ReportID: 1 / X:  129 | Y:  127 | Z:  128 | Rz:  129 | Rx:    0 | Ry:    0 | 0xff000020:  158 | Hat switch:   8 | Button: 0  0  1  0  0  0  0  0  0  0  0  0  0  0  0 | 0xff000021: 0 , 0 , 0 , 0 , 0 , 0 , 0 , 0 , 0 , 0 , 0 , 0 , 0 | 0xff000022:  123 ,  252 ,   41 ,  235 ,  245 ,  255 ,  239 ,  255 ,    7 ,    0 ,   67 ,    0 ,   81 ,   31 ,   84 ,    5 ,  109 ,   96 ,  184 ,  195 ,    7 ,  128 ,    0 ,    0 ,    0 ,  128 ,    0 ,    0 ,    0 ,    0 ,    9 ,    9 ,    0 ,    0 ,    0 ,    0 ,    0 ,  143 ,  121 ,  184 ,  195 ,   40 ,    8 ,    0 ,   88 ,   54 ,    9 ,  147 ,  101 ,  152 ,  177 ,  133 
E: 000000.282049 64 01 81 7f 80 81 00 00 9e 48 00 00 00 7b fc 29 eb f5 ff ef ff 07 00 43 00 51 1f 54 05 6d 60 b8 c3 07 80 00 00 00 80 00 00 00 00 09 09 00 00 00 00 00 8f 79 b8 c3 28 08 00 58 36 09 93 65 98 b1 85
# ReportID: 1 / X:  129 | Y:  127 | Z:  128 | Rz:  129 | Rx:    0 | Ry:    0 | 0xff000020:  159 | Hat switch:   8 | Button: 0  0  1  0  0  0  0  0  0  0  0  0  0  0  0 | 0xff000021: 0 , 0 , 0 , 0 , 0 , 0 , 0 , 0 , 0 , 0 , 0 , 0 , 0 | 0xff000022:  124 ,  252 ,   41 ,  235 ,  244 ,  255 ,  239 ,  255 ,   10 ,    0 ,   71 ,    0 ,  103 ,   31 ,   80 ,    5 ,   96 ,  143 ,  184 ,  195 ,    7 ,  128 ,    0 ,    0 ,    0 ,  128 ,    0 ,    0 ,    0 ,    0 ,    9 ,    9 ,    0 ,    0 ,    0 ,    0 ,    0 ,  113 ,  168 ,  184 ,  195 ,   40 ,    8 ,    0 ,   14 ,    1 ,   75 ,   86 ,   89 ,   54 ,  118 ,   56 
E: 000000.285157 64 01 81 7f 80 81 00 00 9f 48 00 00 00 7c fc 29 eb f4 ff ef ff 0a 00 47 00 67 1f 50 05 60 8f b8 c3 07 80 00 00 00 80 00 00 00 00 09 09 00 00 00 00 00 71 a8 b8 c3 28 08 00 0e 01 4b 56 59 36 76 38
# ReportID: 1 / X:  129 | Y:  127 | Z:  128 | Rz:  129 | Rx:    0 | Ry:    0 | 0xff000020:  160 | Hat switch:   8 | Button: 0  0  1  0  0  0  0  0  0  0  0  0  0  0  0 | 0xff000021: 0 , 0 , 0 , 0 , 0 , 0 , 0 , 0 , 0 , 0 , 0 , 0 , 0 | 0xff000022:  125 ,  252 ,   41 ,  235 ,  244 ,  255 ,  240 ,  255 ,    9 ,    0 ,   76 ,    0 ,   78 ,   31 ,   46 ,    5 ,   83 ,  190 ,  184 ,  195 ,    7 ,  128 ,    0 ,    0 ,    0 ,  128 ,    0 ,    0 ,    0 ,    0 ,    9 ,    9 ,    0 ,    0 ,    0 ,    0 ,    0 ,   81 ,  215 ,  184 ,  195 ,   40 ,    8 ,    0 ,  246 ,   21 ,  239 ,  174 ,   24 ,    5 ,   14 ,   82 
E: 000000.289176 64 01 81 7f 80 81 00 00 a0 48 00 00 00 7d fc 29 eb f4 ff f0 ff 09 00 4c 00 4e 1f 2e 05 53 be b8 c3 07 80 00 00 00 80 00 00 00 00 09 09 00 00 00 00 00 51 d7 b8 c3 28 08 00 f6 15 ef ae 18 05 0e 52
# ReportID: 1 / X:  129 | Y:  127 | Z:  128 | Rz:  129 | Rx:    0 | Ry:    0 | 0xff000020:  161 | Hat switch:   8 | Button: 0  0  1  0  0  0  0  0  0  0  0  0  0  0  0 | 0xff000021: 0 , 0 , 0 , 0 , 0 , 0 , 0 , 0 , 0 , 0 , 0 , 0 , 0 | 0xff000022:  126 ,  252 ,   41 ,  235 ,  243 ,  255 ,  239 ,  255 ,    9 ,    0 ,   43 ,    0 ,   63 ,   31 ,   64 ,    5 ,   70 ,  237 ,  184 ,  195 ,    7 ,  128 ,    0 ,    0 ,    0 ,  128 ,    0 ,    0 ,    0 ,    0 ,    9 ,    9 ,    0 ,    0 ,    0 ,    0 ,    0 ,   40 ,    6 ,  185 ,  195 ,   40 ,    8 ,    0 ,  212 ,   30 ,  233 ,   50 ,  171 ,  191 ,   98 ,  161 
E: 000000.293969 64 01 81 7f 80 81 00 00 a1 48 00 00 00 7e fc 29 eb f3 ff ef ff 09 00 2b 00 3f 1f 40 05 46 ed b8 c3 07 80 00 00 00 80 00 00 00 00 09 09 00 00 00 00 00 28 06 b9 c3 28 08 00 d4 1e e9 32 ab bf 62 a1
# ReportID: 1 / X:  129 | Y:  127 | Z:  128 | Rz:  129 | Rx:    0 | Ry:    0 | 0xff000020:  162 | Hat switch:   8 | Button: 0  0  1  0  0  0  0  0  0  0  0  0  0  0  0 | 0xff000021: 0 , 0 , 0 , 0 , 0 , 0 , 0 , 0 , 0 , 0 , 0 , 0 , 0 | 0xff000022:  127 ,  252 ,   41 ,  235 ,  245 ,  255 ,  239 ,  255 ,    9 ,    0 ,   95 ,    0 ,   53 ,   31 ,   37 ,    5 ,   57 ,   28 ,  185 ,  195 ,    7 ,  128 ,    0 ,    0 ,    0 ,  128 ,    0 ,    0 ,    0 ,    0 ,    9 ,    9 ,    0 ,    0 ,    0 ,    0 ,    0 ,    8 ,   53 ,  185 ,  195 ,   40 ,    8 ,    0 ,  220 ,   41 ,  111 ,  235 ,   76 ,  170 ,   78 ,    3 
E: 000000.297510 64 01 81 7f 80 81 00 00 a2 48 00 00 00 7f fc 29 eb f5 ff ef ff 09 00 5f 00 35 1f 25 05 39 1c b9 c3 07 80 00 00 00 80 00 00 00 00 09 09 00 00 00 00 00 08 35 b9 c3 28 08 00 dc 29 6f eb 4c aa 4e 03
# ReportID: 1 / X:  129 | Y:  126 | Z:  128 | Rz:  129 | Rx:    0 | Ry:    0 | 0xff000020:  163 | Hat switch:   8 | Button: 0  0  1  0  0  0  0  0  0  0  0  0  0  0  0 | 0xff000021: 0 , 0 , 0 , 0 , 0 , 0 , 0 , 0 , 0 , 0 , 0 , 0 , 0 | 0xff000022:  128 ,  252 ,   41 ,  235 ,  243 ,  255 ,  239 ,  255 ,    8 ,    0 ,   21 ,    0 ,   64 ,   31 ,   58 ,    5 ,   44 ,   75 ,  185 ,  195 ,    7 ,  128 ,    0 ,    0 ,    0 ,  128 ,    0 ,    0 ,    0 ,    0 ,    9 ,    9 ,    0 ,    0 ,    0 ,    0 ,    0 ,  232 ,   99 ,  185 ,  195 ,   40 ,    8 ,    0 ,   79 ,   47 ,  158 ,  125 ,  145 ,    9 ,  102 ,   48 
E: 000000.300894 64 01 81 7e 80 81 00 00 a3 48 00 00 00 80 fc 29 eb f3 ff ef ff 08 00 15 00 40 1f 3a 05 2c 4b b9 c3 07 80 00 00 00 80 00 00 00 00 09 09 00 00 00 00 00 e8 63 b9 c3 28 08 00 4f 2f 9e 7d 91 09 66 30
# ReportID: 1 / X:  129 | Y:  127 | Z:  128 | Rz:  129 | Rx:    0 | Ry:    0 | 0xff000020:  164 | Hat switch:   8 | Button: 0  0  1  0  0  0  0  0  0  0  0  0  0  0  0 | 0xff000021: 0 , 0 , 0 , 0 , 0 , 0 , 0 , 0 , 0 , 0 , 0 , 0 , 0 | 0xff000022:  129 ,  252 ,   41 ,  235 ,  243 ,  255 ,  240 ,  255 ,    8 ,    0 ,   43 ,    0 ,   70 ,   31 ,   48 ,    5 ,   31 ,  122 ,  185 ,  195 ,    7 ,  128 ,    0 ,    0 ,    0 ,  128 ,    0 ,    0 ,    0 ,    0 ,    9 ,    9 ,    0 ,    0 ,    0 ,    0 ,    0 ,  201 ,  146 ,  185 ,  195 ,   40 ,    8 ,    0 ,   31 ,   15 ,   85 ,   96 ,    5 ,  114 ,   89 ,   98 
E: 000000.305404 64 01 81 7f 80 81 00 00 a4 48 00 00 00 81 fc 29 eb f3 ff f0 ff 08 00 2b 00 46 1f 30 05 1f 7a b9 c3 07 80 00 00 00 80 00 00 00 00 09 09 00 00 00 00 00 c9 92 b9 c3 28 08 00 1f 0f 55 60 05 72 59 62
# ReportID: 1 / X:  129 | Y:  127 | Z:  128 | Rz:  129 | Rx:    0 | Ry:    0 | 0xff000020:  165 | Hat switch:   8 | Button: 0  0  1  0  0  0  0  0  0  0  0  0  0  0  0 | 0xff000021: 0 , 0 , 0 , 0 , 0 , 0 , 0 , 0 , 0 , 0 , 0 , 0 , 0 | 0xff000022:  130 ,  252 ,   41 ,  235 ,  243 ,  255 ,  239 ,  255 ,    8 ,    0 ,   46 ,    0 ,   68 ,   31 ,   52 ,    5 ,   18 ,  169 ,  185 ,  195 ,    7 ,  128 ,    0 ,    0 ,    0 ,  128 ,    0 ,    0 ,    0 ,    0 ,    9 ,    9 ,    0 ,    0 ,    0 ,    0 ,    0 ,  168 ,  193 ,  185 ,  195 ,   40 ,    8 ,    0 ,   39 ,   64 ,   78 ,   40 ,  108 ,   69 ,  114 ,   79 
E: 000000.309426 64 01 81 7f 80 81 00 00 a5 48 00 00 00 82 fc 29 eb f3 ff ef ff 08 00 2e 00 44 1f 34 05 12 a9 b9 c3 07 80 00 00 00 80 00 00 00 00 09 09 00 00 00 00 00 a8 c1 b9 c3 28 08 00 27 40 4e 28 6c 45 72 4f
# ReportID: 1 / X:  129 | Y:  127 | Z:  128 | Rz:  129 | Rx:    0 | Ry:    0 | 0xff000020:  166 | Hat switch:   8 | Button: 0  0  1  0  0  0  0  0  0  0  0  0  0  0  0 | 0xff000021: 0 , 0 , 0 , 0 , 0 , 0 , 0 , 0 , 0 , 0 , 0 , 0 , 0 | 0xff000022:  131 ,  252 ,   41 ,  235 ,  241 ,  255 ,  239 ,  255 ,    6 ,    0 ,   41 ,    0 ,   65 ,   31 ,   40 ,    5 ,    5 ,  216 ,  185 ,  195 ,    7 ,  128 ,    0 ,    0 ,    0 ,  128 ,    0 ,    0 ,    0 ,    0 ,    9 ,    9 ,    0 ,    0 ,    0 ,    0 ,    0 ,  136 ,  240 ,  185 ,  195 ,   40 ,    8 ,    0 ,  207 ,  115 ,   94 ,   96 ,  115 ,   29 ,  166 ,  110 
E: 000000.314748 64 01 81 7f 80 81 00 00 a6 48 00 00 00 83 fc 29 eb f1 ff ef ff 06 00 29 00 41 1f 28 05 05 d8 b9 c3 07 80 00 00 00 80 00 00 00 00 09 09 00 00 00 00 00 88 f0 b9 c3 28 08 00 cf 73 5e 60 73 1d a6 6e
# ReportID: 1 / X:  129 | Y:  127 | Z:  128 | Rz:  129 | Rx:    0 | Ry:    0 | 0xff000020:  167 | Hat switch:   8 | Button: 0  0  1  0  0  0  0  0  0  0  0  0  0  0  0 | 0xff000021: 0 , 0 , 0 , 0 , 0 , 0 , 0 , 0 , 0 , 0 , 0 , 0 , 0 | 0xff000022:  132 ,  252 ,   41 ,  235 ,  241 ,  255 ,  238 ,  255 ,    6 ,    0 ,   17 ,    0 ,   88 ,   31 ,   60 ,    5 ,  248 ,    6 ,  186 ,  195 ,    7 ,  128 ,    0 ,    0 ,    0 ,  128 ,    0 ,    0 ,    0 ,    0 ,    9 ,    9 ,    0 ,    0 ,    0 ,    0 ,    0 ,  104 ,   31 ,  186 ,  195 ,   40 ,    8 ,    0 ,  166 ,   91 ,  109 ,  224 ,   41 ,  255 ,  150 ,  194 
E: 000000.317769 64 01 81 7f 80 81 00 00 a7 48 00 00 00 84 fc 29 eb f1 ff ee ff 06 00 11 00 58 1f 3c 05 f8 06 ba c3 07 80 00 00 00 80 00 00 00 00 09 09 00 00 00 00 00 68 1f ba c3 28 08 00 a6 5b 6d e0 29 ff 96 c2
# ReportID: 1 / X:  129 | Y:  127 | Z:  128 | Rz:  129 | Rx:    0 | Ry:    0 | 0xff000020:  168 | Hat switch:   8 | Button: 0  0  1  0  0  0  0  0  0  0  0  0  0  0  0 | 0xff000021: 0 , 0 , 0 , 0 , 0 , 0 , 0 , 0 , 0 , 0 , 0 , 0 , 0 | 0xff000022:  133 ,  252 ,   41 ,  235 ,  241 ,  255 ,  239 ,  255 ,    6 ,    0 ,  226 ,  255 ,   95 ,   31 ,  104 ,    5 ,  235 ,   53 ,  186 ,  195 ,    7 ,  128 ,    0 ,    0 ,    0 ,  128 ,    0 ,    0 ,    0 ,    0 ,    9 ,    9 ,    0 ,    0 ,    0 ,    0 ,    0 ,   72 ,   78 ,  186 ,  195 ,   40 ,    8 ,    0 ,   50 ,   88 ,  213 ,   28 ,   75 ,  175 ,  146 ,  232 
E: 000000.320912 64 01 81 7f 80 81 00 00 a8 48 00 00 00 85 fc 29 eb f1 ff ef ff 06 00 e2 ff 5f 1f 68 05 eb 35 ba c3 07 80 00 00 00 80 00 00 00 00 09 09 00 00 00 00 00 48 4e ba c3 28 08 00 32 58 d5 1c 4b af 92 e8
# ReportID: 1 / X:  129 | Y:  127 | Z:  128 | Rz:  129 | Rx:    0 | Ry:    0 | 0xff000020:  169 | Hat switch:   8 | Button: 0  0  1  0  0  0  0  0  0  0  0  0  0  0  0 | 0xff000021: 0 , 0 , 0 , 0 , 0 , 0 , 0 , 0 , 0 , 0 , 0 , 0 , 0 | 0xff000022:  134 ,  252 ,   41 ,  235 ,  243 ,  255 ,  240 ,  255 ,    8 ,    0 ,    0 ,    0 ,   94 ,   31 ,   84 ,    5 ,  222 ,  100 ,  186 ,  195 ,    7 ,  128 ,    0 ,    0 ,    0 ,  128 ,    0 ,    0 ,    0 ,    0 ,    9 ,    9 ,    0 ,    0 ,    0 ,    0 ,    0 ,   40 ,  125 ,  186 ,  195 ,   40 ,    8 ,    0 ,   90 ,  133 ,  218 ,  194 ,   10 ,  127 ,  199 ,   15 
E: 000000.326793 64 01 81 7f 80 81 00 00 a9 48 00 00 00 86 fc 29 eb f3 ff f0 ff 08 00 00 00 5e 1f 54 05 de 64 ba c3 07 80 00 00 00 80 00 00 00 00 09 09 00 00 00 00 00 28 7d ba c3 28 08 00 5a 85 da c2 0a 7f c7 0f
# ReportID: 1 / X:  129 | Y:  127 | Z:  128 | Rz:  129 | Rx:    0 | Ry:    0 | 0xff000020:  170 | Hat switch:   8 | Button: 0  0  1  0  0  0  0  0  0  0  0  0  0  0  0 | 0xff000021: 0 , 0 , 0 , 0 , 0 , 0 , 0 , 0 , 0 , 0 , 0 , 0 , 0 | 0xff000022:  135 ,  252 ,   41 ,  235 ,  246 ,  255 ,  239 ,  255 ,    9 ,    0 ,   47 ,    0 ,  101 ,   31 ,   39 ,    5 ,  209 ,  147 ,  186 ,  195 ,    7 ,  128 ,    0 ,    0 ,    0 ,  128 ,    0 ,    0 ,    0 ,    0 ,    9 ,    9 ,    0 ,    0 ,    0 ,    0 ,    0 ,    8 ,  172 ,  186 ,  195 ,   40 ,    8 ,    0 ,  196 ,  119 ,   21 ,  236 ,   27 ,    0 ,  241 ,  171 
E: 000000.330558 64 01 81 7f 80 81 00 00 aa 48 00 00 00 87 fc 29 eb f6 ff ef ff 09 00 2f 00 65 1f 27 05 d1 93 ba c3 07 80 00 00 00 80 00 00 00 00 09 09 00 00 00 00 00 08 ac ba c3 28 08 00 c4 77 15 ec 1b 00 f1 ab
# ReportID: 1 / X:  129 | Y:  127 | Z:  128 | Rz:  129 | Rx:    0 | Ry:    0 | 0xff000020:  171 | Hat switch:   8 | Button: 0  0  1  0  0  0  0  0  0  0  0  0  0  0  0 | 0xff000021: 0 , 0 , 0 , 0 , 0 , 0 , 0 , 0 , 0 , 0 , 0 , 0 , 0 | 0xff000022:  136 ,  252 ,   41 ,  235 ,  244 ,  255 ,  237 ,  255 ,    6 ,    0 ,   53 ,    0 ,   81 ,   31 ,   41 ,    5 ,  196 ,  194 ,  186 ,  195 ,    7 ,  128 ,    0 ,    0 ,    0 ,  128 ,    0 ,    0 ,    0 ,    0 ,    9 ,    9 ,    0 ,    0 ,    0 ,    0 ,    0 ,  232 ,  218 ,  186 ,  195 ,   40 ,    8 ,    0 ,  103 ,   23 ,   49 ,  127 ,  217 ,   61 ,  130 ,  192 
E: 000000.334348 64 01 81 7f 80 81 00 00 ab 48 00 00 00 88 fc 29 eb f4 ff ed ff 06 00 35 00 51 1f 29 05 c4 c2 ba c3 07 80 00 00 00 80 00 00 00 00 09 09 00 00 00 00 00 e8 da ba c3 28 08 00 67 17 31 7f d9 3d 82 c0
# ReportID: 1 / X:  129 | Y:  127 | Z:  128 | Rz:  129 | Rx:    0 | Ry:    0 | 0xff000020:  172 | Hat switch:   8 | Button: 0  0  1  0  0  0  0  0  0  0  0  0  0  0  0 | 0xff000021: 0 , 0 , 0 , 0 , 0 , 0 , 0 , 0 , 0 , 0 , 0 , 0 , 0 | 0xff000022:  137 ,  252 ,   41 ,  235 ,  242 ,  255 ,  237 ,  255 ,    7 ,    0 ,    5 ,    0 ,   89 ,   31 ,   88 ,    5 ,  183 ,  241 ,  186 ,  195 ,    7 ,  128 ,    0 ,    0 ,    0 ,  128 ,    0 ,    0 ,    0 ,    0 ,    9 ,    9 ,    0 ,    0 ,    0 ,    0 ,    0 ,  200 ,    9 ,  187 ,  195 ,   40 ,    8 ,    0 ,   53 ,  217 ,   13 ,   81 ,  230 ,  100 ,   97 ,  239 
E: 000000.337885 64 01 81 7f 80 81 00 00 ac 48 00 00 00 89 fc 29 eb f2 ff ed ff 07 00 05 00 59 1f 58 05 b7 f1 ba c3 07 80 00 00 00 80 00 00 00 00 09 09 00 00 00 00 00 c8 09 bb c3 28 08 00 35 d9 0d 51 e6 64 61 ef
# ReportID: 1 / X:  129 | Y:  127 | Z:  128 | Rz:  129 | Rx:    0 | Ry:    0 | 0xff000020:  173 | Hat switch:   8 | Button: 0  0  1  0  0  0  0  0  0  0  0  0  0  0  0 | 0xff000021: 0 , 0 , 0 , 0 , 0 , 0 , 0 , 0 , 0 , 0 , 0 , 0 , 0 | 0xff000022:  138 ,  252 ,   41 ,  235 ,  245 ,  255 ,  238 ,  255 ,    8 ,    0 ,  251 ,  255 ,   66 ,   31 ,   81 ,    5 ,  170 ,   32 ,  187 ,  195 ,    7 ,  128 ,    0 ,    0 ,    0 ,  128 ,    0 ,    0 ,    0 ,    0 ,    9 ,    9 ,    0 ,    0 ,    0 ,    0 ,    0 ,  168 ,   56 ,  187 ,  195 ,   40 ,    8 ,    0 ,   87 ,  100 ,  242 ,   92 ,  246 ,  190 ,   31 ,  146 
E: 000000.341529 64 01 81 7f 80 81 00 00 ad 48 00 00 00 8a fc 29 eb f5 ff ee ff 08 00 fb ff 42 1f 51 05 aa 20 bb c3 07 80 00 00 00 80 00 00 00 00 09 09 00 00 00 00 00 a8 38 bb c3 28 08 00 57 64 f2 5c f6 be 1f 92
# ReportID: 1 / X:  129 | Y:  127 | Z:  128 | Rz:  129 | Rx:    0 | Ry:    0 | 0xff000020:  174 | Hat switch:   8 | Button: 0  0  1  0  0  0  0  0  0  0  0  0  0  0  0 | 0xff000021: 0 , 0 , 0 , 0 , 0 , 0 , 0 , 0 , 0 , 0 , 0 , 0 , 0 | 0xff000022:  139 ,  252 ,   41 ,  235 ,  245 ,  255 ,  239 ,  255 ,   10 ,    0 ,   35 ,    0 ,   75 ,   31 ,   69 ,    5 ,  157 ,   79 ,  187 ,  195 ,    7 ,  128 ,    0 ,    0 ,    0 ,  128 ,    0 ,    0 ,    0 ,    0 ,    9 ,    9 ,    0 ,    0 ,    0 ,    0 ,    0 ,  136 ,  103 ,  187 ,  195 ,   40 ,    8 ,    0 ,   37 ,   23 ,  197 ,  245 ,  221 ,  120 ,  189 ,   13 
E: 000000.345107 64 01 81 7f 80 81 00 00 ae 48 00 00 00 8b fc 29 eb f5 ff ef ff 0a 00 23 00 4b 1f 45 05 9d 4f bb c3 07 80 00 00 00 80 00 00 00 00 09 09 00 00 00 00 00 88 67 bb c3 28 08 00 25 17 c5 f5 dd 78 bd 0d
# ReportID: 1 / X:  129 | Y:  127 | Z:  128 | Rz:  129 | Rx:    0 | Ry:    0 | 0xff000020:  175 | Hat switch:   8 | Button: 0  0  1  0  0  0  0  0  0  0  0  0  0  0  0 | 0xff000021: 0 , 0 , 0 , 0 , 0 , 0 , 0 , 0 , 0 , 0 , 0 , 0 , 0 | 0xff000022:  140 ,  252 ,   41 ,  235 ,  246 ,  255 ,  239 ,  255 ,    9 ,    0 ,   62 ,    0 ,   59 ,   31 ,   49 ,    5 ,  144 ,  126 ,  187 ,  195 ,    7 ,  128 ,    0 ,    0 ,    0 ,  128 ,    0 ,    0 ,    0 ,    0 ,    9 ,    9 ,    0 ,    0 ,    0 ,    0 ,    0 ,  104 ,  150 ,  187 ,  195 ,   40 ,    8 ,    0 ,   34 ,  235 ,  217 ,   38 ,  213 ,   34 ,   44 ,  241 
E: 000000.348934 64 01 81 7f 80 81 00 00 af 48 00 00 00 8c fc 29 eb f6 ff ef ff 09 00 3e 00 3b 1f 31 05 90 7e bb c3 07 80 00 00 00 80 00 00 00 00 09 09 00 00 00 00 00 68 96 bb c3 28 08 00 22 eb d9 26 d5 22 2c f1
# ReportID: 1 / X:  129 | Y:  126 | Z:  128 | Rz:  129 | Rx:    0 | Ry:    0 | 0xff000020:  176 | Hat switch:   8 | Button: 0  0  1  0  0  0  0  0  0  0  0  0  0  0  0 | 0xff000021: 0 , 0 , 0 , 0 , 0 , 0 , 0 , 0 , 0 , 0 , 0 , 0 , 0 | 0xff000022:  141 ,  252 ,   41 ,  235 ,  245 ,  255 ,  237 ,  255 ,    7 ,    0 ,   44 ,    0 ,   75 ,   31 ,   58 ,    5 ,  131 ,  173 ,  187 ,  195 ,    7 ,  128 ,    0 ,    0 ,    0 ,  128 ,    0 ,    0 ,    0 ,    0 ,    9 ,    9 ,    0 ,    0 ,    0 ,    0 ,    0 ,   79 ,  197 ,  187 ,  195 ,   40 ,    8 ,    0 ,  175 ,  148 ,   72 ,   33 ,   37 ,  134 ,  241 ,  100 
E: 000000.353015 64 01 81 7e 80 81 00 00 b0 48 00 00 00 8d fc 29 eb f5 ff ed ff 07 00 2c 00 4b 1f 3a 05 83 ad bb c3 07 80 00 00 00 80 00 00 00 00 09 09 00 00 00 00 00 4f c5 bb c3 28 08 00 af 94 48 21 25 86 f1 64
# ReportID: 1 / X:  129 | Y:  127 | Z:  128 | Rz:  129 | Rx:    0 | Ry:    0 | 0xff000020:  177 | Hat switch:   8 | Button: 0  0  1  0  0  0  0  0  0  0  0  0  0  0  0 | 0xff000021: 0 , 0 , 0 , 0 , 0 , 0 , 0 , 0 , 0 , 0 , 0 , 0 , 0 | 0xff000022:  142 ,  252 ,   41 ,  235 ,  243 ,  255 ,  238 ,  255 ,    8 ,    0 ,   35 ,    0 ,   84 ,   31 ,   61 ,    5 ,  118 ,  220 ,  187 ,  195 ,    7 ,  128 ,    0 ,    0 ,    0 ,  128 ,    0 ,    0 ,    0 ,    0 ,    9 ,    9 ,    0 ,    0 ,    0 ,    0 ,    0 ,   65 ,  244 ,  187 ,  195 ,   40 ,    8 ,    0 ,   13 ,  108 ,   90 ,    9 ,  177 ,   37 ,  177 ,   93 
E: 000000.357458 64 01 81 7f 80 81 00 00 b1 48 00 00 00 8e fc 29 eb f3 ff ee ff 08 00 23 00 54 1f 3d 05 76 dc bb c3 07 80 00 00 00 80 00 00 00 00 09 09 00 00 00 00 00 41 f4 bb c3 28 08 00 0d 6c 5a 09 b1 25 b1 5d
# ReportID: 1 / X:  129 | Y:  127 | Z:  128 | Rz:  129 | Rx:    0 | Ry:    0 | 0xff000020:  178 | Hat switch:   8 | Button: 0  0  1  0  0  0  0  0  0  0  0  0  0  0  0 | 0xff000021: 0 , 0 , 0 , 0 , 0 , 0 , 0 , 0 , 0 , 0 , 0 , 0 , 0 | 0xff000022:  143 ,  252 ,   41 ,  235 ,  244 ,  255 ,  238 ,  255 ,    9 ,    0 ,   55 ,    0 ,   84 ,   31 ,   62 ,    5 ,  106 ,   11 ,  188 ,  195 ,    7 ,  128 ,    0 ,    0 ,    0 ,  128 ,    0 ,    0 ,    0 ,    0 ,    9 ,    9 ,    0 ,    0 ,    0 ,    0 ,    0 ,   15 ,   35 ,  188 ,  195 ,   40 ,    8 ,    0 ,  171 ,  255 ,  212 ,   14 ,   54 ,   83 ,  149 ,  203 
E: 000000.362805 64 01 81 7f 80 81 00 00 b2 48 00 00 00 8f fc 29 eb f4 ff ee ff 09 00 37 00 54 1f 3e 05 6a 0b bc c3 07 80 00 00 00 80 00 00 00 00 09 09 00 00 00 00 00 0f 23 bc c3 28 08 00 ab ff d4 0e 36 53 95 cb
# ReportID: 1 / X:  129 | Y:  126 | Z:  128 | Rz:  129 | Rx:    0 | Ry:    0 | 0xff000020:  179 | Hat switch:   8 | Button: 0  0  1  0  0  0  0  0  0  0  0  0  0  0  0 | 0xff000021: 0 , 0 , 0 , 0 , 0 , 0 , 0 , 0 , 0 , 0 , 0 , 0 , 0 | 0xff000022:  144 ,  252 ,   41 ,  235 ,  244 ,  255 ,  238 ,  255 ,    9 ,    0 ,   39 ,    0 ,   72 ,   31 ,   57 ,    5 ,   93 ,   58 ,  188 ,  195 ,    7 ,  128 ,    0 ,    0 ,    0 ,  128 ,    0 ,    0 ,    0 ,    0 ,    9 ,    9 ,    0 ,    0 ,    0 ,    0 ,    0 ,  241 ,   81 ,  188 ,  195 ,   40 ,    8 ,    0 ,   15 ,  195 ,   82 ,  235 ,  231 ,   57 ,  108 ,    5 
E: 000000.366462 64 01 81 7e 80 81 00 00 b3 48 00 00 00 90 fc 29 eb f4 ff ee ff 09 00 27 00 48 1f 39 05 5d 3a bc c3 07 80 00 00 00 80 00 00 00 00 09 09 00 00 00 00 00 f1 51 bc c3 28 08 00 0f c3 52 eb e7 39 6c 05
# ReportID: 1 / X:  129 | Y:  127 | Z:  128 | Rz:  129 | Rx:    0 | Ry:    0 | 0xff000020:  180 | Hat switch:   8 | Button: 0  0  1  0  0  0  0  0  0  0  0  0  0  0  0 | 0xff000021: 0 , 0 , 0 , 0 , 0 , 0 , 0 , 0 , 0 , 0 , 0 , 0 , 0 | 0xff000022:  145 ,  252 ,   41 ,  235 ,  244 ,  255 ,  240 ,  255 ,    9 ,    0 ,   54 ,    0 ,   94 ,   31 ,   60 ,    5 ,   79 ,  105 ,  188 ,  195 ,    7 ,  128 ,    0 ,    0 ,    0 ,  128 ,    0 ,    0 ,    0 ,    0 ,    9 ,    9 ,    0 ,    0 ,    0 ,    0 ,    0 ,  209 ,  128 ,  188 ,  195 ,   40 ,    8 ,    0 ,  196 ,   43 ,  153 ,    3 ,  127 ,    1 ,   96 ,  169 
E: 000000.369956 64 01 81 7f 80 81 00 00 b4 48 00 00 00 91 fc 29 eb f4 ff f0 ff 09 00 36 00 5e 1f 3c 05 4f 69 bc c3 07 80 00 00 00 80 00 00 00 00 09 09 00 00 00 00 00 d1 80 bc c3 28 08 00 c4 2b 99 03 7f 01 60 a9
# ReportID: 1 / X:  129 | Y:  127 | Z:  128 | Rz:  129 | Rx:    0 | Ry:    0 | 0xff000020:  181 | Hat switch:   8 | Button: 0  0  1  0  0  0  0  0  0  0  0  0  0  0  0 | 0xff000021: 0 , 0 , 0 , 0 , 0 , 0 , 0 , 0 , 0 , 0 , 0 , 0 , 0 | 0xff000022:  146 ,  252 ,   41 ,  235 ,  244 ,  255 ,  239 ,  255 ,    9 ,    0 ,   78 ,    0 ,   74 ,   31 ,   43 ,    5 ,   66 ,  152 ,  188 ,  195 ,    7 ,  128 ,    0 ,    0 ,    0 ,  128 ,    0 ,    0 ,    0 ,    0 ,    9 ,    9 ,    0 ,    0 ,    0 ,    0 ,    0 ,  168 ,  175 ,  188 ,  195 ,   40 ,    8 ,    0 ,  175 ,  244 ,  125 ,   48 ,  150 ,   81 ,  154 ,  125 
E: 000000.373363 64 01 81 7f 80 81 00 00 b5 48 00 00 00 92 fc 29 eb f4 ff ef ff 09 00 4e 00 4a 1f 2b 05 42 98 bc c3 07 80 00 00 00 80 00 00 00 00 09 09 00 00 00 00 00 a8 af bc c3 28 08 00 af f4 7d 30 96 51 9a 7d
# ReportID: 1 / X:  129 | Y:  127 | Z:  128 | Rz:  129 | Rx:    0 | Ry:    0 | 0xff000020:  182 | Hat switch:   8 | Button: 0  0  1  0  0  0  0  0  0  0  0  0  0  0  0 | 0xff000021: 0 , 0 , 0 , 0 , 0 , 0 , 0 , 0 , 0 , 0 , 0 , 0 , 0 | 0xff000022:  147 ,  252 ,   41 ,  235 ,  242 ,  255 ,  238 ,  255 ,    7 ,    0 ,   81 ,    0 ,   80 ,   31 ,   34 ,    5 ,   53 ,  199 ,  188 ,  195 ,    7 ,  128 ,    0 ,    0 ,    0 ,  128 ,    0 ,    0 ,    0 ,    0 ,    9 ,    9 ,    0 ,    0 ,    0 ,    0 ,    0 ,  136 ,  222 ,  188 ,  195 ,   40 ,    8 ,    0 ,  151 ,   56 ,  125 ,   63 ,  117 ,  193 ,  153 ,  205 
E: 000000.378506 64 01 81 7f 80 81 00 00 b6 48 00 00 00 93 fc 29 eb f2 ff ee ff 07 00 51 00 50 1f 22 05 35 c7 bc c3 07 80 00 00 00 80 00 00 00 00 09 09 00 00 00 00 00 88 de bc c3 28 08 00 97 38 7d 3f 75 c1 99 cd
# ReportID: 1 / X:  129 | Y:  127 | Z:  128 | Rz:  129 | Rx:    0 | Ry:    0 | 0xff000020:  183 | Hat switch:   8 | Button: 0  0  1  0  0  0  0  0  0  0  0  0  0  0  0 | 0xff000021: 0 , 0 , 0 , 0 , 0 , 0 , 0 , 0 , 0 , 0 , 0 , 0 , 0 | 0xff000022:  148 ,  252 ,   41 ,  235 ,  241 ,  255 ,  238 ,  255 ,    6 ,    0 ,   41 ,    0 ,   57 ,   31 ,   47 ,    5 ,   41 ,  246 ,  188 ,  195 ,    7 ,  128 ,    0 ,    0 ,    0 ,  128 ,    0 ,    0 ,    0 ,    0 ,    9 ,    9 ,    0 ,    0 ,    0 ,    0 ,    0 ,  104 ,   13 ,  189 ,  195 ,   40 ,    8 ,    0 ,   12 ,  138 ,   97 ,   87 ,  126 ,   33 ,   38 ,    8 
E: 000000.381451 64 01 81 7f 80 81 00 00 b7 48 00 00 00 94 fc 29 eb f1 ff ee ff 06 00 29 00 39 1f 2f 05 29 f6 bc c3 07 80 00 00 00 80 00 00 00 00 09 09 00 00 00 00 00 68 0d bd c3 28 08 00 0c 8a 61 57 7e 21 26 08
# ReportID: 1 / X:  129 | Y:  127 | Z:  128 | Rz:  129 | Rx:    0 | Ry:    0 | 0xff000020:  184 | Hat switch:   8 | Button: 0  0  1  0  0  0  0  0  0  0  0  0  0  0  0 | 0xff000021: 0 , 0 , 0 , 0 , 0 , 0 , 0 , 0 , 0 , 0 , 0 , 0 , 0 | 0xff000022:  149 ,  252 ,   41 ,  235 ,  242 ,  255 ,  240 ,  255 ,    7 ,    0 ,   40 ,    0 ,   89 ,   31 ,   67 ,    5 ,   28 ,   37 ,  189 ,  195 ,    7 ,  128 ,    0 ,    0 ,    0 ,  128 ,    0 ,    0 ,    0 ,    0 ,    9 ,    9 ,    0 ,    0 ,    0 ,    0 ,    0 ,   72 ,   60 ,  189 ,  195 ,   40 ,    8 ,    0 ,  126 ,  162 ,  202 ,  214 ,  228 ,  112 ,  124 ,  225 
E: 000000.386683 64 01 81 7f 80 81 00 00 b8 48 00 00 00 95 fc 29 eb f2 ff f0 ff 07 00 28 00 59 1f 43 05 1c 25 bd c3 07 80 00 00 00 80 00 00 00 00 09 09 00 00 00 00 00 48 3c bd c3 28 08 00 7e a2 ca d6 e4 70 7c e1
# ReportID: 1 / X:  129 | Y:  127 | Z:  128 | Rz:  129 | Rx:    0 | Ry:    0 | 0xff000020:  185 | Hat switch:   8 | Button: 0  0  1  0  0  0  0  0  0  0  0  0  0  0  0 | 0xff000021: 0 , 0 , 0 , 0 , 0 , 0 , 0 , 0 , 0 , 0 , 0 , 0 , 0 | 0xff000022:  150 ,  252 ,   41 ,  235 ,  243 ,  255 ,  239 ,  255 ,    8 ,    0 ,   59 ,    0 ,   87 ,   31 ,   61 ,    5 ,   14 ,   84 ,  189 ,  195 ,    7 ,  128 ,    0 ,    0 ,    0 ,  128 ,    0 ,    0 ,    0 ,    0 ,    9 ,    9 ,    0 ,    0 ,    0 ,    0 ,    0 ,   40 ,  107 ,  189 ,  195 ,   40 ,    8 ,    0 ,  154 ,   38 ,   99 ,   16 ,   98 ,  152 ,  224 ,  128 
E: 000000.390466 64 01 81 7f 80 81 00 00 b9 48 00 00 00 96 fc 29 eb f3 ff ef ff 08 00 3b 00 57 1f 3d 05 0e 54 bd c3 07 80 00 00 00 80 00 00 00 00 09 09 00 00 00 00 00 28 6b bd c3 28 08 00 9a 26 63 10 62 98 e0 80
# ReportID: 1 / X:  129 | Y:  127 | Z:  128 | Rz:  129 | Rx:    0 | Ry:    0 | 0xff000020:  186 | Hat switch:   8 | Button: 0  0  1  0  0  0  0  0  0  0  0  0  0  0  0 | 0xff000021: 0 , 0 , 0 , 0 , 0 , 0 , 0 , 0 , 0 , 0 , 0 , 0 , 0 | 0xff000022:  151 ,  252 ,   41 ,  235 ,  244 ,  255 ,  239 ,  255 ,    8 ,    0 ,   74 ,    0 ,   82 ,   31 ,   36 ,    5 ,    1 ,  131 ,  189 ,  195 ,    7 ,  128 ,    0 ,    0 ,    0 ,  128 ,    0 ,    0 ,    0 ,    0 ,    9 ,    9 ,    0 ,    0 ,    0 ,    0 ,    0 ,    8 ,  154 ,  189 ,  195 ,   40 ,    8 ,    0 ,  234 ,   45 ,   54 ,  240 ,  207 ,  185 ,  111 ,  221 
E: 000000.393442 64 01 81 7f 80 81 00 00 ba 48 00 00 00 97 fc 29 eb f4 ff ef ff 08 00 4a 00 52 1f 24 05 01 83 bd c3 07 80 00 00 00 80 00 00 00 00 09 09 00 00 00 00 00 08 9a bd c3 28 08 00 ea 2d 36 f0 cf b9 6f dd
# ReportID: 1 / X:  129 | Y:  127 | Z:  128 | Rz:  129 | Rx:    0 | Ry:    0 | 0xff000020:  187 | Hat switch:   8 | Button: 0  0  1  0  0  0  0  0  0  0  0  0  0  0  0 | 0xff000021: 0 , 0 , 0 , 0 , 0 , 0 , 0 , 0 , 0 , 0 , 0 , 0 , 0 | 0xff000022:  152 ,  252 ,   41 ,  235 ,  242 ,  255 ,  238 ,  255 ,    6 ,    0 ,   57 ,    0 ,   87 ,   31 ,   62 ,    5 ,  245 ,  177 ,  189 ,  195 ,    7 ,  128 ,    0 ,    0 ,    0 ,  128 ,    0 ,    0 ,    0 ,    0 ,    9 ,    9 ,    0 ,    0 ,    0 ,    0 ,    0 ,  232 ,  200 ,  189 ,  195 ,   40 ,    8 ,    0 ,  164 ,   95 ,  200 ,  173 ,  159 ,  164 ,  241 ,   92 
E: 000000.397469 64 01 81 7f 80 81 00 00 bb 48 00 00 00 98 fc 29 eb f2 ff ee ff 06 00 39 00 57 1f 3e 05 f5 b1 bd c3 07 80 00 00 00 80 00 00 00 00 09 09 00 00 00 00 00 e8 c8 bd c3 28 08 00 a4 5f c8 ad 9f a4 f1 5c
# ReportID: 1 / X:  129 | Y:  127 | Z:  128 | Rz:  129 | Rx:    0 | Ry:    0 | 0xff000020:  188 | Hat switch:   8 | Button: 0  0  1  0  0  0  0  0  0  0  0  0  0  0  0 | 0xff000021: 0 , 0 , 0 , 0 , 0 , 0 , 0 , 0 , 0 , 0 , 0 , 0 , 0 | 0xff000022:  153 ,  252 ,   41 ,  235 ,  244 ,  255 ,  238 ,  255 ,    8 ,    0 ,   40 ,    0 ,   81 ,   31 ,   81 ,    5 ,  232 ,  224 ,  189 ,  195 ,    7 ,  128 ,    0 ,    0 ,    0 ,  128 ,    0 ,    0 ,    0 ,    0 ,    9 ,    9 ,    0 ,    0 ,    0 ,    0 ,    0 ,  200 ,  247 ,  189 ,  195 ,   40 ,    8 ,    0 ,   57 ,  163 ,   42 ,  142 ,  226 ,   22 ,  186 ,  164 
E: 000000.400971 64 01 81 7f 80 81 00 00 bc 48 00 00 00 99 fc 29 eb f4 ff ee ff 08 00 28 00 51 1f 51 05 e8 e0 bd c3 07 80 00 00 00 80 00 00 00 00 09 09 00 00 00 00 00 c8 f7 bd c3 28 08 00 39 a3 2a 8e e2 16 ba a4
# ReportID: 1 / X:  129 | Y:  126 | Z:  128 | Rz:  129 | Rx:    0 | Ry:    0 | 0xff000020:  189 | Hat switch:   8 | Button: 0  0  1  0  0  0  0  0  0  0  0  0  0  0  0 | 0xff000021: 0 , 0 , 0 , 0 , 0 , 0 , 0 , 0 , 0 , 0 , 0 , 0 , 0 | 0xff000022:  154 ,  252 ,   41 ,  235 ,  245 ,  255 ,  238 ,  255 ,    7 ,    0 ,   37 ,    0 ,   89 ,   31 ,   88 ,    5 ,  218 ,   15 ,  190 ,  195 ,    7 ,  128 ,    0 ,    0 ,    0 ,  128 ,    0 ,    0 ,    0 ,    0 ,    9 ,    9 ,    0 ,    0 ,    0 ,    0 ,    0 ,  168 ,   38 ,  190 ,  195 ,   40 ,    8 ,    0 ,  231 ,  134 ,  140 ,  103 ,  185 ,   30 ,  254 ,   35 
E: 000000.406146 64 01 81 7e 80 81 00 00 bd 48 00 00 00 9a fc 29 eb f5 ff ee ff 07 00 25 00 59 1f 58 05 da 0f be c3 07 80 00 00 00 80 00 00 00 00 09 09 00 00 00 00 00 a8 26 be c3 28 08 00 e7 86 8c 67 b9 1e fe 23
# ReportID: 1 / X:  129 | Y:  127 | Z:  128 | Rz:  129 | Rx:    0 | Ry:    0 | 0xff000020:  190 | Hat switch:   8 | Button: 0  0  1  0  0  0  0  0  0  0  0  0  0  0  0 | 0xff000021: 0 , 0 , 0 , 0 , 0 , 0 , 0 , 0 , 0 , 0 , 0 , 0 , 0 | 0xff000022:  155 ,  252 ,   41 ,  235 ,  245 ,  255 ,  238 ,  255 ,    8 ,    0 ,   15 ,    0 ,   59 ,   31 ,   69 ,    5 ,  205 ,   62 ,  190 ,  195 ,    7 ,  128 ,    0 ,    0 ,    0 ,  128 ,    0 ,    0 ,    0 ,    0 ,    9 ,    9 ,    0 ,    0 ,    0 ,    0 ,    0 ,  136 ,   85 ,  190 ,  195 ,   40 ,    8 ,    0 ,  217 ,  213 ,  222 ,   42 ,  146 ,   19 ,  124 ,  198 
E: 000000.410443 64 01 81 7f 80 81 00 00 be 48 00 00 00 9b fc 29 eb f5 ff ee ff 08 00 0f 00 3b 1f 45 05 cd 3e be c3 07 80 00 00 00 80 00 00 00 00 09 09 00 00 00 00 00 88 55 be c3 28 08 00 d9 d5 de 2a 92 13 7c c6
# ReportID: 1 / X:  129 | Y:  127 | Z:  128 | Rz:  129 | Rx:    0 | Ry:    0 | 0xff000020:  191 | Hat switch:   8 | Button: 0  0  1  0  0  0  0  0  0  0  0  0  0  0  0 | 0xff000021: 0 , 0 , 0 , 0 , 0 , 0 , 0 , 0 , 0 , 0 , 0 , 0 , 0 | 0xff000022:  156 ,  252 ,   41 ,  235 ,  247 ,  255 ,  239 ,  255 ,    9 ,    0 ,   54 ,    0 ,   97 ,   31 ,   73 ,    5 ,  192 ,  109 ,  190 ,  195 ,    7 ,  128 ,    0 ,    0 ,    0 ,  128 ,    0 ,    0 ,    0 ,    0 ,    9 ,    9 ,    0 ,    0 ,    0 ,    0 ,    0 ,  104 ,  132 ,  190 ,  195 ,   40 ,    8 ,    0 ,  187 ,  145 ,  205 ,  228 ,   53 ,   77 ,  235 ,   28 
E: 000000.413866 64 01 81 7f 80 81 00 00 bf 48 00 00 00 9c fc 29 eb f7 ff ef ff 09 00 36 00 61 1f 49 05 c0 6d be c3 07 80 00 00 00 80 00 00 00 00 09 09 00 00 00 00 00 68 84 be c3 28 08 00 bb 91 cd e4 35 4d eb 1c
# ReportID: 1 / X:  129 | Y:  127 | Z:  128 | Rz:  129 | Rx:    0 | Ry:    0 | 0xff000020:  192 | Hat switch:   8 | Button: 0  0  1  0  0  0  0  0  0  0  0  0  0  0  0 | 0xff000021: 0 , 0 , 0 , 0 , 0 , 0 , 0 , 0 , 0 , 0 , 0 , 0 , 0 | 0xff000022:  157 ,  252 ,   41 ,  235 ,  246 ,  255 ,  238 ,  255 ,    9 ,    0 ,   30 ,    0 ,   78 ,   31 ,   70 ,    5 ,  179 ,  156 ,  190 ,  195 ,    7 ,  128 ,    0 ,    0 ,    0 ,  128 ,    0 ,    0 ,    0 ,    0 ,    9 ,    9 ,    0 ,    0 ,    0 ,    0 ,    0 ,   72 ,  179 ,  190 ,  195 ,   40 ,    8 ,    0 ,  144 ,  122 ,  102 ,  137 ,  230 ,  131 ,  182 ,  140 
E: 000000.417403 64 01 81 7f 80 81 00 00 c0 48 00 00 00 9d fc 29 eb f6 ff ee ff 09 00 1e 00 4e 1f 46 05 b3 9c be c3 07 80 00 00 00 80 00 00 00 00 09 09 00 00 00 00 00 48 b3 be c3 28 08 00 90 7a 66 89 e6 83 b6 8c
# ReportID: 1 / X:  129 | Y:  127 | Z:  128 | Rz:  129 | Rx:    0 | Ry:    0 | 0xff000020:  193 | Hat switch:   8 | Button: 0  0  1  0  0  0  0  0  0  0  0  0  0  0  0 | 0xff000021: 0 , 0 , 0 , 0 , 0 , 0 , 0 , 0 , 0 , 0 , 0 , 0 , 0 | 0xff000022:  158 ,  252 ,   41 ,  235 ,  247 ,  255 ,  238 ,  255 ,    9 ,    0 ,   56 ,    0 ,  106 ,   31 ,   72 ,    5 ,  166 ,  203 ,  190 ,  195 ,    7 ,  128 ,    0 ,    0 ,    0 ,  128 ,    0 ,    0 ,    0 ,    0 ,    9 ,    9 ,    0 ,    0 ,    0 ,    0 ,    0 ,   40 ,  226 ,  190 ,  195 ,   40 ,    8 ,    0 ,  172 ,  122 ,  225 ,  255 ,   16 ,   82 ,  216 ,   26 
E: 000000.420900 64 01 81 7f 80 81 00 00 c1 48 00 00 00 9e fc 29 eb f7 ff ee ff 09 00 38 00 6a 1f 48 05 a6 cb be c3 07 80 00 00 00 80 00 00 00 00 09 09 00 00 00 00 00 28 e2 be c3 28 08 00 ac 7a e1 ff 10 52 d8 1a
# ReportID: 1 / X:  129 | Y:  127 | Z:  128 | Rz:  129 | Rx:    0 | Ry:    0 | 0xff000020:  194 | Hat switch:   8 | Button: 0  0  1  0  0  0  0  0  0  0  0  0  0  0  0 | 0xff000021: 0 , 0 , 0 , 0 , 0 , 0 , 0 , 0 , 0 , 0 , 0 , 0 , 0 | 0xff000022:  159 ,  252 ,   41 ,  235 ,  247 ,  255 ,  237 ,  255 ,    7 ,    0 ,   10 ,    0 ,   46 ,   31 ,   76 ,    5 ,  153 ,  250 ,  190 ,  195 ,    7 ,  128 ,    0 ,    0 ,    0 ,  128 ,    0 ,    0 ,    0 ,    0 ,    9 ,    9 ,    0 ,    0 ,    0 ,    0 ,    0 ,    8 ,   17 ,  191 ,  195 ,   40 ,    8 ,    0 ,   12 ,  178 ,  141 ,  198 ,  234 ,  152 ,   63 ,   80 
E: 000000.426787 64 01 81 7f 80 81 00 00 c2 48 00 00 00 9f fc 29 eb f7 ff ed ff 07 00 0a 00 2e 1f 4c 05 99 fa be c3 07 80 00 00 00 80 00 00 00 00 09 09 00 00 00 00 00 08 11 bf c3 28 08 00 0c b2 8d c6 ea 98 3f 50
