# Sony Interactive Entertainment DualSense Wireless Controller
# 0x05, 0x01,                    // Usage Page (Generic Desktop)        0
# 0x09, 0x05,                    // Usage (Game Pad)                    2
# 0xa1, 0x01,                    // Collection (Application)            4
# 0x85, 0x01,                    //  Report ID (1)                      6
# 0x09, 0x30,                    //  Usage (X)                          8
# 0x09, 0x31,                    //  Usage (Y)                          10
# 0x09, 0x32,                    //  Usage (Z)                          12
# 0x09, 0x35,                    //  Usage (Rz)                         14
# 0x09, 0x33,                    //  Usage (Rx)                         16
# 0x09, 0x34,                    //  Usage (Ry)                         18
# 0x15, 0x00,                    //  Logical Minimum (0)                20
# 0x26, 0xff, 0x00,              //  Logical Maximum (255)              22
# 0x75, 0x08,                    //  Report Size (8)                    25
# 0x95, 0x06,                    //  Report Count (6)                   27
# 0x81, 0x02,                    //  Input (Data,Var,Abs)               29
# 0x06, 0x00, 0xff,              //  Usage Page (Vendor Defined Page 1) 31
# 0x09, 0x20,                    //  Usage (Vendor Usage 0x20)          34
# 0x95, 0x01,                    //  Report Count (1)                   36
# 0x81, 0x02,                    //  Input (Data,Var,Abs)               38
# 0x05, 0x01,                    //  Usage Page (Generic Desktop)       40
# 0x09, 0x39,                    //  Usage (Hat switch)                 42
# 0x15, 0x00,                    //  Logical Minimum (0)                44
# 0x25, 0x07,                    //  Logical Maximum (7)                46
# 0x35, 0x00,                    //  Physical Minimum (0)               48
# 0x46, 0x3b, 0x01,              //  Physical Maximum (315)             50
# 0x65, 0x14,                    //  Unit (EnglishRotation: deg)        53
# 0x75, 0x04,                    //  Report Size (4)                    55
# 0x95, 0x01,                    //  Report Count (1)                   57
# 0x81, 0x42,                    //  Input (Data,Var,Abs,Null)          59
# 0x65, 0x00,                    //  Unit (None)                        61
# 0x05, 0x09,                    //  Usage Page (Button)                63
# 0x19, 0x01,                    //  Usage Minimum (1)                  65
# 0x29, 0x0f,                    //  Usage Maximum (15)                 67
# 0x15, 0x00,                    //  Logical Minimum (0)                69
# 0x25, 0x01,                    //  Logical Maximum (1)                71
# 0x75, 0x01,                    //  Report Size (1)                    73
# 0x95, 0x0f,                    //  Report Count (15)                  75
# 0x81, 0x02,                    //  Input (Data,Var,Abs)               77
# 0x06, 0x00, 0xff,              //  Usage Page (Vendor Defined Page 1) 79
# 0x09, 0x21,                    //  Usage (Vendor Usage 0x21)          82
# 0x95, 0x0d,                    //  Report Count (13)                  84
# 0x81, 0x02,                    //  Input (Data,Var,Abs)               86
# 0x06, 0x00, 0xff,              //  Usage Page (Vendor Defined Page 1) 88
# 0x09, 0x22,                    //  Usage (Vendor Usage 0x22)          91
# 0x15, 0x00,                    //  Logical Minimum (0)                93
# 0x26, 0xff, 0x00,              //  Logical Maximum (255)              95
# 0x75, 0x08,                    //  Report Size (8)                    98
# 0x95, 0x34,                    //  Report Count (52)                  100
# 0x81, 0x02,                    //  Input (Data,Var,Abs)               102
# 0x85, 0x02,                    //  Report ID (2)                      104
# 0x09, 0x23,                    //  Usage (Vendor Usage 0x23)          106
# 0x95, 0x2f,                    //  Report Count (47)                  108
# 0x91, 0x02,                    //  Output (Data,Var,Abs)              110
# 0x85, 0x05,                    //  Report ID (5)                      112
# 0x09, 0x33,                    //  Usage (Vendor Usage 0x33)          114
# 0x95, 0x28,                    //  Report Count (40)                  116
# 0xb1, 0x02,                    //  Feature (Data,Var,Abs)             118
# 0x85, 0x08,                    //  Report ID (8)                      120
# 0x09, 0x34,                    //  Usage (Vendor Usage 0x34)          122
# 0x95, 0x2f,                    //  Report Count (47)                  124
# 0xb1, 0x02,                    //  Feature (Data,Var,Abs)             126
# 0x85, 0x09,                    //  Report ID (9)                      128
# 0x09, 0x24,                    //  Usage (Vendor Usage 0x24)          130
# 0x95, 0x13,                    //  Report Count (19)                  132
# 0xb1, 0x02,                    //  Feature (Data,Var,Abs)             134
# 0x85, 0x0a,                    //  Report ID (10)                     136
# 0x09, 0x25,                    //  Usage (Vendor Usage 0x25)          138
# 0x95, 0x1a,                    //  Report Count (26)                  140
# 0xb1, 0x02,                    //  Feature (Data,Var,Abs)             142
# 0x85, 0x20,                    //  Report ID (32)                     144
# 0x09, 0x26,                    //  Usage (Vendor Usage 0x26)          146
# 0x95, 0x3f,                    //  Report Count (63)                  148
# 0xb1, 0x02,                    //  Feature (Data,Var,Abs)             150
# 0x85, 0x21,                    //  Report ID (33)                     152
# 0x09, 0x27,                    //  Usage (Vendor Usage 0x27)          154
# 0x95, 0x04,                    //  Report Count (4)                   156
# 0xb1, 0x02,                    //  Feature (Data,Var,Abs)             158
# 0x85, 0x22,                    //  Report ID (34)                     160
# 0x09, 0x40,                    //  Usage (Vendor Usage 0x40)          162
# 0x95, 0x3f,                    //  Report Count (63)                  164
# 0xb1, 0x02,                    //  Feature (Data,Var,Abs)             166
# 0x85, 0x80,                    //  Report ID (128)                    168
# 0x09, 0x28,                    //  Usage (Vendor Usage 0x28)          170
# 0x95, 0x3f,                    //  Report Count (63)                  172
# 0xb1, 0x02,                    //  Feature (Data,Var,Abs)             174
# 0x85, 0x81,                    //  Report ID (129)                    176
# 0x09, 0x29,                    //  Usage (Vendor Usage 0x29)          178
# 0x95, 0x3f,                    //  Report Count (63)                  180
# 0xb1, 0x02,                    //  Feature (Data,Var,Abs)             182
# 0x85, 0x82,                    //  Report ID (130)                    184
# 0x09, 0x2a,                    //  Usage (Vendor Usage 0x2a)          186
# 0x95, 0x09,                    //  Report Count (9)                   188
# 0xb1, 0x02,                    //  Feature (Data,Var,Abs)             190
# 0x85, 0x83,                    //  Report ID (131)                    192
# 0x09, 0x2b,                    //  Usage (Vendor Usage 0x2b)          194
# 0x95, 0x3f,                    //  Report Count (63)                  196
# 0xb1, 0x02,                    //  Feature (Data,Var,Abs)             198
# 0x85, 0x84,                    //  Report ID (132)                    200
# 0x09, 0x2c,                    //  Usage (Vendor Usage 0x2c)          202
# 0x95, 0x3f,                    //  Report Count (63)                  204
# 0xb1, 0x02,                    //  Feature (Data,Var,Abs)             206
# 0x85, 0x85,                    //  Report ID (133)                    208
# 0x09, 0x2d,                    //  Usage (Vendor Usage 0x2d)          210
# 0x95, 0x02,                    //  Report Count (2)                   212
# 0xb1, 0x02,                    //  Feature (Data,Var,Abs)             214
# 0x85, 0xa0,                    //  Report ID (160)                    216
# 0x09, 0x2e,                    //  Usage (Vendor Usage 0x2e)          218
# 0x95, 0x01,                    //  Report Count (1)                   220
# 0xb1, 0x02,                    //  Feature (Data,Var,Abs)             222
# 0x85, 0xe0,                    //  Report ID (224)                    224
# 0x09, 0x2f,                    //  Usage (Vendor Usage 0x2f)          226
# 0x95, 0x3f,                    //  Report Count (63)                  228
# 0xb1, 0x02,                    //  Feature (Data,Var,Abs)             230
# 0x85, 0xf0,                    //  Report ID (240)                    232
# 0x09, 0x30,                    //  Usage (Vendor Usage 0x30)          234
# 0x95, 0x3f,                    //  Report Count (63)                  236
# 0xb1, 0x02,                    //  Feature (Data,Var,Abs)             238
# 0x85, 0xf1,                    //  Report ID (241)                    240
# 0x09, 0x31,                    //  Usage (Vendor Usage 0x31)          242
# 0x95, 0x3f,                    //  Report Count (63)                  244
# 0xb1, 0x02,                    //  Feature (Data,Var,Abs)             246
# 0x85, 0xf2,                    //  Report ID (242)                    248
# 0x09, 0x32,                    //  Usage (Vendor Usage 0x32)          250
# 0x95, 0x0f,                    //  Report Count (15)                  252
# 0xb1, 0x02,                    //  Feature (Data,Var,Abs)             254
# 0x85, 0xf4,                    //  Report ID (244)                    256
# 0x09, 0x35,                    //  Usage (Vendor Usage 0x35)          258
# 0x95, 0x3f,                    //  Report Count (63)                  260
# 0xb1, 0x02,                    //  Feature (Data,Var,Abs)             262
# 0x85, 0xf5,                    //  Report ID (245)                    264
# 0x09, 0x36,                    //  Usage (Vendor Usage 0x36)          266
# 0x95, 0x03,                    //  Report Count (3)                   268
# 0xb1, 0x02,                    //  Feature (Data,Var,Abs)             270
# 0xc0,                          // End Collection                      272
# 
R: 273 05 01 09 05 a1 01 85 01 09 30 09 31 09 32 09 35 09 33 09 34 15 00 26 ff 00 75 08 95 06 81 02 06 00 ff 09 20 95 01 81 02 05 01 09 39 15 00 25 07 35 00 46 3b 01 65 14 75 04 95 01 81 42 65 00 05 09 19 01 29 0f 15 00 25 01 75 01 95 0f 81 02 06 00 ff 09 21 95 0d 81 02 06 00 ff 09 22 15 00 26 ff 00 75 08 95 34 81 02 85 02 09 23 95 2f 91 02 85 05 09 33 95 28 b1 02 85 08 09 34 95 2f b1 02 85 09 09 24 95 13 b1 02 85 0a 09 25 95 1a b1 02 85 20 09 26 95 3f b1 02 85 21 09 27 95 04 b1 02 85 22 09 40 95 3f b1 02 85 80 09 28 95 3f b1 02 85 81 09 29 95 3f b1 02 85 82 09 2a 95 09 b1 02 85 83 09 2b 95 3f b1 02 85 84 09 2c 95 3f b1 02 85 85 09 2d 95 02 b1 02 85 a0 09 2e 95 01 b1 02 85 e0 09 2f 95 3f b1 02 85 f0 09 30 95 3f b1 02 85 f1 09 31 95 3f b1 02 85 f2 09 32 95 0f b1 02 85 f4 09 35 95 3f b1 02 85 f5 09 36 95 03 b1 02 c0
N: Sony Interactive Entertainment DualSense Wireless Controller
I: 3 054c 0ce6
# ReportID: 1 / X:  131 | Y:  128 | Z:  129 | Rz:  127 | Rx:    0 | Ry:    0 | 0xff000020:  171 | Hat switch:   8 | Button: 0  0  0  0  0  0  0  0  0  0  0  0  0  0  0 | 0xff000021: 0 , 0 , 0 , 0 , 0 , 0 , 0 , 0 , 0 , 0 , 0 , 0 , 0 | 0xff000022:  136 ,   86 ,   42 ,  235 ,  246 ,  255 ,  238 ,  255 ,    9 ,    0 ,   51 ,    0 ,   84 ,   31 ,   44 ,    5 ,   68 ,  119 ,   53 ,  212 ,    8 ,  128 ,    0 ,    0 ,    0 ,  128 ,    0 ,    0 ,    0 ,    0 ,    9 ,    9 ,    0 ,    0 ,    0 ,    0 ,    0 ,   49 ,  143 ,   53 ,  212 ,   40 ,    8 ,    0 ,  121 ,  187 ,  123 ,  209 ,   10 ,  168 ,  196 ,  134 
E: 000000.000000 64 01 83 80 81 7f 00 00 ab 08 00 00 00 88 56 2a eb f6 ff ee ff 09 00 33 00 54 1f 2c 05 44 77 35 d4 08 80 00 00 00 80 00 00 00 00 09 09 00 00 00 00 00 31 8f 35 d4 28 08 00 79 bb 7b d1 0a a8 c4 86
# ReportID: 1 / X:  131 | Y:  128 | Z:  129 | Rz:  127 | Rx:    0 | Ry:    0 | 0xff000020:  172 | Hat switch:   8 | Button: 0  0  0  0  0  0  0  0  0  0  0  0  0  0  0 | 0xff000021: 0 , 0 , 0 , 0 , 0 , 0 , 0 , 0 , 0 , 0 , 0 , 0 , 0 | 0xff000022:  137 ,   86 ,   42 ,  235 ,  248 ,  255 ,  238 ,  255 ,    9 ,    0 ,   56 ,    0 ,   36 ,   31 ,   39 ,    5 ,   55 ,  166 ,   53 ,  212 ,    8 ,  128 ,    0 ,    0 ,    0 ,  128 ,    0 ,    0 ,    0 ,    0 ,    9 ,    9 ,    0 ,    0 ,    0 ,    0 ,    0 ,   17 ,  190 ,   53 ,  212 ,   40 ,    8 ,    0 ,   35 ,   11 ,  179 ,   74 ,   23 ,  211 ,   98 ,  153 
E: 000000.001214 64 01 83 80 81 7f 00 00 ac 08 00 00 00 89 56 2a eb f8 ff ee ff 09 00 38 00 24 1f 27 05 37 a6 35 d4 08 80 00 00 00 80 00 00 00 00 09 09 00 00 00 00 00 11 be 35 d4 28 08 00 23 0b b3 4a 17 d3 62 99
# ReportID: 1 / X:  131 | Y:  128 | Z:  129 | Rz:  127 | Rx:    0 | Ry:    0 | 0xff000020:  173 | Hat switch:   8 | Button: 0  0  0  0  0  0  0  0  0  0  0  0  0  0  0 | 0xff000021: 0 , 0 , 0 , 0 , 0 , 0 , 0 , 0 , 0 , 0 , 0 , 0 , 0 | 0xff000022:  138 ,   86 ,   42 ,  235 ,  249 ,  255 ,  238 ,  255 ,    9 ,    0 ,   44 ,    0 ,  245 ,   30 ,   43 ,    5 ,   42 ,  213 ,   53 ,  212 ,    8 ,  128 ,    0 ,    0 ,    0 ,  128 ,    0 ,    0 ,    0 ,    0 ,    9 ,    9 ,    0 ,    0 ,    0 ,    0 ,    0 ,  246 ,  236 ,   53 ,  212 ,   40 ,    8 ,    0 ,   38 ,  228 ,  221 ,  233 ,    0 ,  108 ,  232 ,  174 
E: 000000.006826 64 01 83 80 81 7f 00 00 ad 08 00 00 00 8a 56 2a eb f9 ff ee ff 09 00 2c 00 f5 1e 2b 05 2a d5 35 d4 08 80 00 00 00 80 00 00 00 00 09 09 00 00 00 00 00 f6 ec 35 d4 28 08 00 26 e4 dd e9 00 6c e8 ae
# ReportID: 1 / X:  131 | Y:  128 | Z:  129 | Rz:  127 | Rx:    0 | Ry:    0 | 0xff000020:  174 | Hat switch:   8 | Button: 0  0  0  0  0  0  0  0  0  0  0  0  0  0  0 | 0xff000021: 0 , 0 , 0 , 0 , 0 , 0 , 0 , 0 , 0 , 0 , 0 , 0 , 0 | 0xff000022:  139 ,   86 ,   42 ,  235 ,  247 ,  255 ,  238 ,  255 ,   10 ,    0 ,   41 ,    0 ,  158 ,   31 ,   77 ,    5 ,   30 ,    4 ,   54 ,  212 ,    8 ,  128 ,    0 ,    0 ,    0 ,  128 ,    0 ,    0 ,    0 ,    0 ,    9 ,    9 ,    0 ,    0 ,    0 ,    0 ,    0 ,  233 ,   27 ,   54 ,  212 ,   40 ,    8 ,    0 ,  169 ,   52 ,  128 ,  241 ,  249 ,  132 ,  248 ,   43 
E: 000000.008972 64 01 83 80 81 7f 00 00 ae 08 00 00 00 8b 56 2a eb f7 ff ee ff 0a 00 29 00 9e 1f 4d 05 1e 04 36 d4 08 80 00 00 00 80 00 00 00 00 09 09 00 00 00 00 00 e9 1b 36 d4 28 08 00 a9 34 80 f1 f9 84 f8 2b
# ReportID: 1 / X:  131 | Y:  128 | Z:  129 | Rz:  127 | Rx:    0 | Ry:    0 | 0xff000020:  175 | Hat switch:   8 | Button: 0  0  0  0  0  0  0  0  0  0  0  0  0  0  0 | 0xff000021: 0 , 0 , 0 , 0 , 0 , 0 , 0 , 0 , 0 , 0 , 0 , 0 , 0 | 0xff000022:  140 ,   86 ,   42 ,  235 ,  247 ,  255 ,  238 ,  255 ,   10 ,    0 ,   60 ,    0 ,  225 ,   31 ,   84 ,    5 ,   18 ,   51 ,   54 ,  212 ,    8 ,  128 ,    0 ,    0 ,    0 ,  128 ,    0 ,    0 ,    0 ,    0 ,    9 ,    9 ,    0 ,    0 ,    0 ,    0 ,    0 ,  183 ,   74 ,   54 ,  212 ,   40 ,    8 ,    0 ,  166 ,  112 ,   81 ,  216 ,  133 ,   23 ,   71 ,  235 
E: 000000.013248 64 01 83 80 81 7f 00 00 af 08 00 00 00 8c 56 2a eb f7 ff ee ff 0a 00 3c 00 e1 1f 54 05 12 33 36 d4 08 80 00 00 00 80 00 00 00 00 09 09 00 00 00 00 00 b7 4a 36 d4 28 08 00 a6 70 51 d8 85 17 47 eb
# ReportID: 1 / X:  131 | Y:  128 | Z:  129 | Rz:  127 | Rx:    0 | Ry:    0 | 0xff000020:  176 | Hat switch:   8 | Button: 0  0  0  0  0  0  0  0  0  0  0  0  0  0  0 | 0xff000021: 0 , 0 , 0 , 0 , 0 , 0 , 0 , 0 , 0 , 0 , 0 , 0 , 0 | 0xff000022:  141 ,   86 ,   42 ,  235 ,  246 ,  255 ,  238 ,  255 ,   10 ,    0 ,   36 ,    0 ,  127 ,   31 ,   57 ,    5 ,    5 ,   98 ,   54 ,  212 ,    8 ,  128 ,    0 ,    0 ,    0 ,  128 ,    0 ,    0 ,    0 ,    0 ,    9 ,    9 ,    0 ,    0 ,    0 ,    0 ,    0 ,  153 ,  121 ,   54 ,  212 ,   40 ,    8 ,    0 ,   75 ,  219 ,   91 ,   37 ,  187 ,  213 ,  216 ,   51 
E: 000000.017348 64 01 83 80 81 7f 00 00 b0 08 00 00 00 8d 56 2a eb f6 ff ee ff 0a 00 24 00 7f 1f 39 05 05 62 36 d4 08 80 00 00 00 80 00 00 00 00 09 09 00 00 00 00 00 99 79 36 d4 28 08 00 4b db 5b 25 bb d5 d8 33
# ReportID: 1 / X:  131 | Y:  128 | Z:  129 | Rz:  127 | Rx:    0 | Ry:    0 | 0xff000020:  177 | Hat switch:   8 | Button: 0  0  0  0  0  0  0  0  0  0  0  0  0  0  0 | 0xff000021: 0 , 0 , 0 , 0 , 0 , 0 , 0 , 0 , 0 , 0 , 0 , 0 , 0 | 0xff000022:  142 ,   86 ,   42 ,  235 ,  246 ,  255 ,  238 ,  255 ,   11 ,    0 ,   35 ,    0 ,   69 ,   31 ,   34 ,    5 ,  247 ,  144 ,   54 ,  212 ,    8 ,  128 ,    0 ,    0 ,    0 ,  128 ,    0 ,    0 ,    0 ,    0 ,    9 ,    9 ,    0 ,    0 ,    0 ,    0 ,    0 ,  121 ,  168 ,   54 ,  212 ,   40 ,    8 ,    0 ,   89 ,  133 ,   87 ,  138 ,  200 ,   52 ,  115 ,  185 
E: 000000.021497 64 01 83 80 81 7f 00 00 b1 08 00 00 00 8e 56 2a eb f6 ff ee ff 0b 00 23 00 45 1f 22 05 f7 90 36 d4 08 80 00 00 00 80 00 00 00 00 09 09 00 00 00 00 00 79 a8 36 d4 28 08 00 59 85 57 8a c8 34 73 b9
# ReportID: 1 / X:  131 | Y:  128 | Z:  129 | Rz:  127 | Rx:    0 | Ry:    0 | 0xff000020:  178 | Hat switch:   8 | Button: 0  0  0  0  0  0  0  0  0  0  0  0  0  0  0 | 0xff000021: 0 , 0 , 0 , 0 , 0 , 0 , 0 , 0 , 0 , 0 , 0 , 0 , 0 | 0xff000022:  143 ,   86 ,   42 ,  235 ,  246 ,  255 ,  238 ,  255 ,   10 ,    0 ,   57 ,    0 ,   38 ,   31 ,   48 ,    5 ,  234 ,  191 ,   54 ,  212 ,    8 ,  128 ,    0 ,    0 ,    0 ,  128 ,    0 ,    0 ,    0 ,    0 ,    9 ,    9 ,    0 ,    0 ,    0 ,    0 ,    0 ,   81 ,  215 ,   54 ,  212 ,   40 ,    8 ,    0 ,  251 ,  189 ,  213 ,  241 ,  182 ,  140 ,    2 ,  119 
E: 000000.025328 64 01 83 80 81 7f 00 00 b2 08 00 00 00 8f 56 2a eb f6 ff ee ff 0a 00 39 00 26 1f 30 05 ea bf 36 d4 08 80 00 00 00 80 00 00 00 00 09 09 00 00 00 00 00 51 d7 36 d4 28 08 00 fb bd d5 f1 b6 8c 02 77
# ReportID: 1 / X:  131 | Y:  128 | Z:  129 | Rz:  127 | Rx:    0 | Ry:    0 | 0xff000020:  179 | Hat switch:   8 | Button: 0  0  0  0  0  0  0  0  0  0  0  0  0  0  0 | 0xff000021: 0 , 0 , 0 , 0 , 0 , 0 , 0 , 0 , 0 , 0 , 0 , 0 , 0 | 0xff000022:  144 ,   86 ,   42 ,  235 ,  247 ,  255 ,  239 ,  255 ,   10 ,    0 ,   60 ,    0 ,  241 ,   30 ,   51 ,    5 ,  221 ,  238 ,   54 ,  212 ,    8 ,  128 ,    0 ,    0 ,    0 ,  128 ,    0 ,    0 ,    0 ,    0 ,    9 ,    9 ,    0 ,    0 ,    0 ,    0 ,    0 ,   49 ,    6 ,   55 ,  212 ,   40 ,    8 ,    0 ,  125 ,  249 ,  116 ,   67 ,  156 ,  161 ,  110 ,   22 
E: 000000.029265 64 01 83 80 81 7f 00 00 b3 08 00 00 00 90 56 2a eb f7 ff ef ff 0a 00 3c 00 f1 1e 33 05 dd ee 36 d4 08 80 00 00 00 80 00 00 00 00 09 09 00 00 00 00 00 31 06 37 d4 28 08 00 7d f9 74 43 9c a1 6e 16
# ReportID: 1 / X:  131 | Y:  128 | Z:  130 | Rz:  127 | Rx:    0 | Ry:    0 | 0xff000020:  180 | Hat switch:   8 | Button: 0  0  0  0  0  0  0  0  0  0  0  0  0  0  0 | 0xff000021: 0 , 0 , 0 , 0 , 0 , 0 , 0 , 0 , 0 , 0 , 0 , 0 , 0 | 0xff000022:  145 ,   86 ,   42 ,  235 ,  248 ,  255 ,  238 ,  255 ,   10 ,    0 ,   56 ,    0 ,    6 ,   31 ,   59 ,    5 ,  208 ,   29 ,   55 ,  212 ,    8 ,  128 ,    0 ,    0 ,    0 ,  128 ,    0 ,    0 ,    0 ,    0 ,    9 ,    9 ,    0 ,    0 ,    0 ,    0 ,    0 ,   17 ,   53 ,   55 ,  212 ,   40 ,    8 ,    0 ,   87 ,  103 ,   30 ,  140 ,  206 ,  114 ,   58 ,  198 
E: 000000.034436 64 01 83 80 82 7f 00 00 b4 08 00 00 00 91 56 2a eb f8 ff ee ff 0a 00 38 00 06 1f 3b 05 d0 1d 37 d4 08 80 00 00 00 80 00 00 00 00 09 09 00 00 00 00 00 11 35 37 d4 28 08 00 57 67 1e 8c ce 72 3a c6
# ReportID: 1 / X:  131 | Y:  128 | Z:  129 | Rz:  127 | Rx:    0 | Ry:    0 | 0xff000020:  181 | Hat switch:   8 | Button: 0  0  0  0  0  0  0  0  0  0  0  0  0  0  0 | 0xff000021: 0 , 0 , 0 , 0 , 0 , 0 , 0 , 0 , 0 , 0 , 0 , 0 , 0 | 0xff000022:  146 ,   86 ,   42 ,  235 ,  248 ,  255 ,  239 ,  255 ,   11 ,    0 ,   61 ,    0 ,  106 ,   31 ,   57 ,    5 ,  195 ,   76 ,   55 ,  212 ,    8 ,  128 ,    0 ,    0 ,    0 ,  128 ,    0 ,    0 ,    0 ,    0 ,    9 ,    9 ,    0 ,    0 ,    0 ,    0 ,    0 ,  241 ,   99 ,   55 ,  212 ,   40 ,    8 ,    0 ,  241 ,  133 ,  117 ,   70 ,  148 ,   83 ,  127 ,  251 
E: 000000.037217 64 01 83 80 81 7f 00 00 b5 08 00 00 00 92 56 2a eb f8 ff ef ff 0b 00 3d 00 6a 1f 39 05 c3 4c 37 d4 08 80 00 00 00 80 00 00 00 00 09 09 00 00 00 00 00 f1 63 37 d4 28 08 00 f1 85 75 46 94 53 7f fb
# ReportID: 1 / X:  131 | Y:  128 | Z:  129 | Rz:  127 | Rx:    0 | Ry:    0 | 0xff000020:  182 | Hat switch:   8 | Button: 0  0  0  0  0  0  0  0  0  0  0  0  0  0  0 | 0xff000021: 0 , 0 , 0 , 0 , 0 , 0 , 0 , 0 , 0 , 0 , 0 , 0 , 0 | 0xff000022:  147 ,   86 ,   42 ,  235 ,  248 ,  255 ,  238 ,  255 ,   10 ,    0 ,   55 ,    0 ,  161 ,   31 ,   61 ,    5 ,  182 ,  123 ,   55 ,  212 ,    8 ,  128 ,    0 ,    0 ,    0 ,  128 ,    0 ,    0 ,    0 ,    0 ,    9 ,    9 ,    0 ,    0 ,    0 ,    0 ,    0 ,  209 ,  146 ,   55 ,  212 ,   40 ,    8 ,    0 ,  255 ,   90 ,  164 ,  100 ,   12 ,   46 ,  155 ,  127 
E: 000000.041368 64 01 83 80 81 7f 00 00 b6 08 00 00 00 93 56 2a eb f8 ff ee ff 0a 00 37 00 a1 1f 3d 05 b6 7b 37 d4 08 80 00 00 00 80 00 00 00 00 09 09 00 00 00 00 00 d1 92 37 d4 28 08 00 ff 5a a4 64 0c 2e 9b 7f
# ReportID: 1 / X:  131 | Y:  128 | Z:  130 | Rz:  127 | Rx:    0 | Ry:    0 | 0xff000020:  183 | Hat switch:   8 | Button: 0  0  0  0  0  0  0  0  0  0  0  0  0  0  0 | 0xff000021: 0 , 0 , 0 , 0 , 0 , 0 , 0 , 0 , 0 , 0 , 0 , 0 , 0 | 0xff000022:  148 ,   86 ,   42 ,  235 ,  248 ,  255 ,  239 ,  255 ,   12 ,    0 ,   53 ,    0 ,  124 ,   31 ,   58 ,    5 ,  174 ,  170 ,   55 ,  212 ,    8 ,  128 ,    0 ,    0 ,    0 ,  128 ,    0 ,    0 ,    0 ,    0 ,    9 ,    9 ,    0 ,    0 ,    0 ,    0 ,    0 ,  177 ,  193 ,   55 ,  212 ,   40 ,    8 ,    0 ,   81 ,   16 ,   58 ,  235 ,  193 ,  236 ,  205 ,  118 
E: 000000.045375 64 01 83 80 82 7f 00 00 b7 08 00 00 00 94 56 2a eb f8 ff ef ff 0c 00 35 00 7c 1f 3a 05 ae aa 37 d4 08 80 00 00 00 80 00 00 00 00 09 09 00 00 00 00 00 b1 c1 37 d4 28 08 00 51 10 3a eb c1 ec cd 76
# ReportID: 1 / X:  131 | Y:  128 | Z:  129 | Rz:  127 | Rx:    0 | Ry:    0 | 0xff000020:  184 | Hat switch:   8 | Button: 0  0  0  0  0  0  0  0  0  0  0  0  0  0  0 | 0xff000021: 0 , 0 , 0 , 0 , 0 , 0 , 0 , 0 , 0 , 0 , 0 , 0 , 0 | 0xff000022:  149 ,   86 ,   42 ,  235 ,  247 ,  255 ,  239 ,  255 ,   11 ,    0 ,   46 ,    0 ,   97 ,   31 ,   56 ,    5 ,  161 ,  217 ,   55 ,  212 ,    8 ,  128 ,    0 ,    0 ,    0 ,  128 ,    0 ,    0 ,    0 ,    0 ,    9 ,    9 ,    0 ,    0 ,    0 ,    0 ,    0 ,  145 ,  240 ,   55 ,  212 ,   40 ,    8 ,    0 ,  101 ,  230 ,  235 ,   93 ,  135 ,   28 ,  224 ,  181 
E: 000000.049453 64 01 83 80 81 7f 00 00 b8 08 00 00 00 95 56 2a eb f7 ff ef ff 0b 00 2e 00 61 1f 38 05 a1 d9 37 d4 08 80 00 00 00 80 00 00 00 00 09 09 00 00 00 00 00 91 f0 37 d4 28 08 00 65 e6 eb 5d 87 1c e0 b5
# ReportID: 1 / X:  131 | Y:  128 | Z:  129 | Rz:  127 | Rx:    0 | Ry:    0 | 0xff000020:  185 | Hat switch:   8 | Button: 0  0  0  0  0  0  0  0  0  0  0  0  0  0  0 | 0xff000021: 0 , 0 , 0 , 0 , 0 , 0 , 0 , 0 , 0 , 0 , 0 , 0 , 0 | 0xff000022:  150 ,   86 ,   42 ,  235 ,  246 ,  255 ,  238 ,  255 ,   11 ,    0 ,   53 ,    0 ,   69 ,   31 ,   60 ,    5 ,  144 ,    8 ,   56 ,  212 ,    8 ,  128 ,    0 ,    0 ,    0 ,  128 ,    0 ,    0 ,    0 ,    0 ,    9 ,    9 ,    0 ,    0 ,    0 ,    0 ,    0 ,  113 ,   31 ,   56 ,  212 ,   40 ,    8 ,    0 ,  123 ,  127 ,  162 ,   32 ,   58 ,   39 ,  196 ,  243 
E: 000000.053343 64 01 83 80 81 7f 00 00 b9 08 00 00 00 96 56 2a eb f6 ff ee ff 0b 00 35 00 45 1f 3c 05 90 08 38 d4 08 80 00 00 00 80 00 00 00 00 09 09 00 00 00 00 00 71 1f 38 d4 28 08 00 7b 7f a2 20 3a 27 c4 f3
# ReportID: 1 / X:  131 | Y:  128 | Z:  130 | Rz:  127 | Rx:    0 | Ry:    0 | 0xff000020:  186 | Hat switch:   8 | Button: 0  0  0  0  0  0  0  0  0  0  0  0  0  0  0 | 0xff000021: 0 , 0 , 0 , 0 , 0 , 0 , 0 , 0 , 0 , 0 , 0 , 0 , 0 | 0xff000022:  151 ,   86 ,   42 ,  235 ,  247 ,  255 ,  238 ,  255 ,    9 ,    0 ,   50 ,    0 ,   63 ,   31 ,   57 ,    5 ,  131 ,   55 ,   56 ,  212 ,    8 ,  128 ,    0 ,    0 ,    0 ,  128 ,    0 ,    0 ,    0 ,    0 ,    9 ,    9 ,    0 ,    0 ,    0 ,    0 ,    0 ,   81 ,   78 ,   56 ,  212 ,   40 ,    8 ,    0 ,   35 ,  138 ,   99 ,  238 ,   82 ,   37 ,  135 ,   59 
E: 000000.058725 64 01 83 80 82 7f 00 00 ba 08 00 00 00 97 56 2a eb f7 ff ee ff 09 00 32 00 3f 1f 39 05 83 37 38 d4 08 80 00 00 00 80 00 00 00 00 09 09 00 00 00 00 00 51 4e 38 d4 28 08 00 23 8a 63 ee 52 25 87 3b
# ReportID: 1 / X:  131 | Y:  128 | Z:  129 | Rz:  127 | Rx:    0 | Ry:    0 | 0xff000020:  187 | Hat switch:   8 | Button: 0  0  0  0  0  0  0  0  0  0  0  0  0  0  0 | 0xff000021: 0 , 0 , 0 , 0 , 0 , 0 , 0 , 0 , 0 , 0 , 0 , 0 , 0 | 0xff000022:  152 ,   86 ,   42 ,  235 ,  249 ,  255 ,  239 ,  255 ,   10 ,    0 ,   53 ,    0 ,   61 ,   31 ,   63 ,    5 ,  118 ,  102 ,   56 ,  212 ,    8 ,  128 ,    0 ,    0 ,    0 ,  128 ,    0 ,    0 ,    0 ,    0 ,    9 ,    9 ,    0 ,    0 ,    0 ,    0 ,    0 ,   49 ,  125 ,   56 ,  212 ,   40 ,    8 ,    0 ,   77 ,  138 ,  156 ,  209 ,  164 ,  216 ,   98 ,  110 
E: 000000.062035 64 01 83 80 81 7f 00 00 bb 08 00 00 00 98 56 2a eb f9 ff ef ff 0a 00 35 00 3d 1f 3f 05 76 66 38 d4 08 80 00 00 00 80 00 00 00 00 09 09 00 00 00 00 00 31 7d 38 d4 28 08 00 4d 8a 9c d1 a4 d8 62 6e
# ReportID: 1 / X:  131 | Y:  128 | Z:  129 | Rz:  127 | Rx:    0 | Ry:    0 | 0xff000020:  188 | Hat switch:   8 | Button: 0  0  0  0  0  0  0  0  0  0  0  0  0  0  0 | 0xff000021: 0 , 0 , 0 , 0 , 0 , 0 , 0 , 0 , 0 , 0 , 0 , 0 , 0 | 0xff000022:  153 ,   86 ,   42 ,  235 ,  247 ,  255 ,  238 ,  255 ,   12 ,    0 ,   51 ,    0 ,  106 ,   31 ,   46 ,    5 ,  105 ,  149 ,   56 ,  212 ,    8 ,  128 ,    0 ,    0 ,    0 ,  128 ,    0 ,    0 ,    0 ,    0 ,    9 ,    9 ,    0 ,    0 ,    0 ,    0 ,    0 ,   17 ,  172 ,   56 ,  212 ,   40 ,    8 ,    0 ,   19 ,  175 ,   94 ,  205 ,  196 ,  249 ,   71 ,   31 
E: 000000.065488 64 01 83 80 81 7f 00 00 bc 08 00 00 00 99 56 2a eb f7 ff ee ff 0c 00 33 00 6a 1f 2e 05 69 95 38 d4 08 80 00 00 00 80 00 00 00 00 09 09 00 00 00 00 00 11 ac 38 d4 28 08 00 13 af 5e cd c4 f9 47 1f
# ReportID: 1 / X:  131 | Y:  128 | Z:  130 | Rz:  127 | Rx:    0 | Ry:    0 | 0xff000020:  189 | Hat switch:   8 | Button: 0  0  0  0  0  0  0  0  0  0  0  0  0  0  0 | 0xff000021: 0 , 0 , 0 , 0 , 0 , 0 , 0 , 0 , 0 , 0 , 0 , 0 , 0 | 0xff000022:  154 ,   86 ,   42 ,  235 ,  245 ,  255 ,  239 ,  255 ,   11 ,    0 ,   61 ,    0 ,  114 ,   31 ,   56 ,    5 ,   92 ,  196 ,   56 ,  212 ,    8 ,  128 ,    0 ,    0 ,    0 ,  128 ,    0 ,    0 ,    0 ,    0 ,    9 ,    9 ,    0 ,    0 ,    0 ,    0 ,    0 ,  241 ,  218 ,   56 ,  212 ,   40 ,    8 ,    0 ,  140 ,  150 ,   86 ,  126 ,   15 ,  125 ,  136 ,  144 
E: 000000.069533 64 01 83 80 82 7f 00 00 bd 08 00 00 00 9a 56 2a eb f5 ff ef ff 0b 00 3d 00 72 1f 38 05 5c c4 38 d4 08 80 00 00 00 80 00 00 00 00 09 09 00 00 00 00 00 f1 da 38 d4 28 08 00 8c 96 56 7e 0f 7d 88 90
# ReportID: 1 / X:  131 | Y:  128 | Z:  129 | Rz:  127 | Rx:    0 | Ry:    0 | 0xff000020:  190 | Hat switch:   8 | Button: 0  0  0  0  0  0  0  0  0  0  0  0  0  0  0 | 0xff000021: 0 , 0 , 0 , 0 , 0 , 0 , 0 , 0 , 0 , 0 , 0 , 0 , 0 | 0xff000022:  155 ,   86 ,   42 ,  235 ,  246 ,  255 ,  239 ,  255 ,   10 ,    0 ,   59 ,    0 ,   84 ,   31 ,   50 ,    5 ,   79 ,  243 ,   56 ,  212 ,    8 ,  128 ,    0 ,    0 ,    0 ,  128 ,    0 ,    0 ,    0 ,    0 ,    9 ,    9 ,    0 ,    0 ,    0 ,    0 ,    0 ,  209 ,    9 ,   57 ,  212 ,   40 ,    8 ,    0 ,   37 ,    3 ,   11 ,  185 ,   81 ,   78 ,   71 ,  149 
E: 000000.073124 64 01 83 80 81 7f 00 00 be 08 00 00 00 9b 56 2a eb f6 ff ef ff 0a 00 3b 00 54 1f 32 05 4f f3 38 d4 08 80 00 00 00 80 00 00 00 00 09 09 00 00 00 00 00 d1 09 39 d4 28 08 00 25 03 0b b9 51 4e 47 95
# ReportID: 1 / X:  131 | Y:  128 | Z:  130 | Rz:  127 | Rx:    0 | Ry:    0 | 0xff000020:  191 | Hat switch:   8 | Button: 0  0  0  0  0  0  0  0  0  0  0  0  0  0  0 | 0xff000021: 0 , 0 , 0 , 0 , 0 , 0 , 0 , 0 , 0 , 0 , 0 , 0 , 0 | 0xff000022:  156 ,   86 ,   42 ,  235 ,  248 ,  255 ,  239 ,  255 ,   10 ,    0 ,   43 ,    0 ,   67 ,   31 ,   45 ,    5 ,   66 ,   34 ,   57 ,  212 ,    8 ,  128 ,    0 ,    0 ,    0 ,  128 ,    0 ,    0 ,    0 ,    0 ,    9 ,    9 ,    0 ,    0 ,    0 ,    0 ,    0 ,  177 ,   56 ,   57 ,  212 ,   40 ,    8 ,    0 ,   48 ,  102 ,  191 ,  213 ,  190 ,  130 ,  126 ,  107 
E: 000000.079331 64 01 83 80 82 7f 00 00 bf 08 00 00 00 9c 56 2a eb f8 ff ef ff 0a 00 2b 00 43 1f 2d 05 42 22 39 d4 08 80 00 00 00 80 00 00 00 00 09 09 00 00 00 00 00 b1 38 39 d4 28 08 00 30 66 bf d5 be 82 7e 6b
# ReportID: 1 / X:  131 | Y:  128 | Z:  129 | Rz:  127 | Rx:    0 | Ry:    0 | 0xff000020:  192 | Hat switch:   8 | Button: 0  0  0  0  0  0  0  0  0  0  0  0  0  0  0 | 0xff000021: 0 , 0 , 0 , 0 , 0 , 0 , 0 , 0 , 0 , 0 , 0 , 0 , 0 | 0xff000022:  157 ,   86 ,   42 ,  235 ,  246 ,  255 ,  238 ,  255 ,   10 ,    0 ,   51 ,    0 ,   63 ,   31 ,   37 ,    5 ,   53 ,   81 ,   57 ,  212 ,    8 ,  128 ,    0 ,    0 ,    0 ,  128 ,    0 ,    0 ,    0 ,    0 ,    9 ,    9 ,    0 ,    0 ,    0 ,    0 ,    0 ,  145 ,  103 ,   57 ,  212 ,   40 ,    8 ,    0 ,   55 ,  161 ,  241 ,   32 ,  231 ,  115 ,   85 ,  244 
E: 000000.082866 64 01 83 80 81 7f 00 00 c0 08 00 00 00 9d 56 2a eb f6 ff ee ff 0a 00 33 00 3f 1f 25 05 35 51 39 d4 08 80 00 00 00 80 00 00 00 00 09 09 00 00 00 00 00 91 67 39 d4 28 08 00 37 a1 f1 20 e7 73 55 f4
# ReportID: 1 / X:  131 | Y:  128 | Z:  129 | Rz:  127 | Rx:    0 | Ry:    0 | 0xff000020:  193 | Hat switch:   8 | Button: 0  0  0  0  0  0  0  0  0  0  0  0  0  0  0 | 0xff000021: 0 , 0 , 0 , 0 , 0 , 0 , 0 , 0 , 0 , 0 , 0 , 0 , 0 | 0xff000022:  158 ,   86 ,   42 ,  235 ,  246 ,  255 ,  239 ,  255 ,    9 ,    0 ,   62 ,    0 ,   83 ,   31 ,   41 ,    5 ,   40 ,  128 ,   57 ,  212 ,    8 ,  128 ,    0 ,    0 ,    0 ,  128 ,    0 ,    0 ,    0 ,    0 ,    9 ,    9 ,    0 ,    0 ,    0 ,    0 ,    0 ,  113 ,  150 ,   57 ,  212 ,   40 ,    8 ,    0 ,   18 ,   26 ,  174 ,  120 ,   38 ,  154 ,   44 ,  156 
E: 000000.085910 64 01 83 80 81 7f 00 00 c1 08 00 00 00 9e 56 2a eb f6 ff ef ff 09 00 3e 00 53 1f 29 05 28 80 39 d4 08 80 00 00 00 80 00 00 00 00 09 09 00 00 00 00 00 71 96 39 d4 28 08 00 12 1a ae 78 26 9a 2c 9c
# ReportID: 1 / X:  131 | Y:  128 | Z:  130 | Rz:  127 | Rx:    0 | Ry:    0 | 0xff000020:  194 | Hat switch:   8 | Button: 0  0  0  0  0  0  0  0  0  0  0  0  0  0  0 | 0xff000021: 0 , 0 , 0 , 0 , 0 , 0 , 0 , 0 , 0 , 0 , 0 , 0 , 0 | 0xff000022:  159 ,   86 ,   42 ,  235 ,  245 ,  255 ,  238 ,  255 ,   10 ,    0 ,   54 ,    0 ,   83 ,   31 ,   37 ,    5 ,   27 ,  175 ,   57 ,  212 ,    8 ,  128 ,    0 ,    0 ,    0 ,  128 ,    0 ,    0 ,    0 ,    0 ,    9 ,    9 ,    0 ,    0 ,    0 ,    0 ,    0 ,   81 ,  197 ,   57 ,  212 ,   40 ,    8 ,    0 ,  219 ,  171 ,  233 ,   96 ,  181 ,  124 ,  100 ,   14 
E: 000000.089474 64 01 83 80 82 7f 00 00 c2 08 00 00 00 9f 56 2a eb f5 ff ee ff 0a 00 36 00 53 1f 25 05 1b af 39 d4 08 80 00 00 00 80 00 00 00 00 09 09 00 00 00 00 00 51 c5 39 d4 28 08 00 db ab e9 60 b5 7c 64 0e
# ReportID: 1 / X:  131 | Y:  128 | Z:  129 | Rz:  127 | Rx:    0 | Ry:    0 | 0xff000020:  195 | Hat switch:   8 | Button: 0  0  0  0  0  0  0  0  0  0  0  0  0  0  0 | 0xff000021: 0 , 0 , 0 , 0 , 0 , 0 , 0 , 0 , 0 , 0 , 0 , 0 , 0 | 0xff000022:  160 ,   86 ,   42 ,  235 ,  246 ,  255 ,  239 ,  255 ,   11 ,    0 ,   57 ,    0 ,   96 ,   31 ,   52 ,    5 ,   14 ,  222 ,   57 ,  212 ,    8 ,  128 ,    0 ,    0 ,    0 ,  128 ,    0 ,    0 ,    0 ,    0 ,    9 ,    9 ,    0 ,    0 ,    0 ,    0 ,    0 ,   49 ,  244 ,   57 ,  212 ,   40 ,    8 ,    0 ,   83 ,  146 ,   16 ,  168 ,  110 ,  235 ,  190 ,  188 
E: 000000.093886 64 01 83 80 81 7f 00 00 c3 08 00 00 00 a0 56 2a eb f6 ff ef ff 0b 00 39 00 60 1f 34 05 0e de 39 d4 08 80 00 00 00 80 00 00 00 00 09 09 00 00 00 00 00 31 f4 39 d4 28 08 00 53 92 10 a8 6e eb be bc
# ReportID: 1 / X:  131 | Y:  128 | Z:  129 | Rz:  127 | Rx:    0 | Ry:    0 | 0xff000020:  196 | Hat switch:   8 | Button: 0  0  0  0  0  0  0  0  0  0  0  0  0  0  0 | 0xff000021: 0 , 0 , 0 , 0 , 0 , 0 , 0 , 0 , 0 , 0 , 0 , 0 , 0 | 0xff000022:  161 ,   86 ,   42 ,  235 ,  245 ,  255 ,  239 ,  255 ,   12 ,    0 ,   42 ,    0 ,  106 ,   31 ,   44 ,    5 ,    1 ,   13 ,   58 ,  212 ,    8 ,  128 ,    0 ,    0 ,    0 ,  128 ,    0 ,    0 ,    0 ,    0 ,    9 ,    9 ,    0 ,    0 ,    0 ,    0 ,    0 ,   17 ,   35 ,   58 ,  212 ,   40 ,    8 ,    0 ,  203 ,  145 ,  181 ,    1 ,   81 ,  117 ,  154 ,    4 
E: 000000.097507 64 01 83 80 81 7f 00 00 c4 08 00 00 00 a1 56 2a eb f5 ff ef ff 0c 00 2a 00 6a 1f 2c 05 01 0d 3a d4 08 80 00 00 00 80 00 00 00 00 09 09 00 00 00 00 00 11 23 3a d4 28 08 00 cb 91 b5 01 51 75 9a 04
# ReportID: 1 / X:  131 | Y:  128 | Z:  129 | Rz:  127 | Rx:    0 | Ry:    0 | 0xff000020:  197 | Hat switch:   8 | Button: 0  0  0  0  0  0  0  0  0  0  0  0  0  0  0 | 0xff000021: 0 , 0 , 0 , 0 , 0 , 0 , 0 , 0 , 0 , 0 , 0 , 0 , 0 | 0xff000022:  162 ,   86 ,   42 ,  235 ,  247 ,  255 ,  239 ,  255 ,   11 ,    0 ,   45 ,    0 ,   93 ,   31 ,   50 ,    5 ,  245 ,   59 ,   58 ,  212 ,    8 ,  128 ,    0 ,    0 ,    0 ,  128 ,    0 ,    0 ,    0 ,    0 ,    9 ,    9 ,    0 ,    0 ,    0 ,    0 ,    0 ,  241 ,   81 ,   58 ,  212 ,   40 ,    8 ,    0 ,  253 ,   75 ,  193 ,   14 ,   68 ,  184 ,   71 ,   25 
E: 000000.102611 64 01 83 80 81 7f 00 00 c5 08 00 00 00 a2 56 2a eb f7 ff ef ff 0b 00 2d 00 5d 1f 32 05 f5 3b 3a d4 08 80 00 00 00 80 00 00 00 00 09 09 00 00 00 00 00 f1 51 3a d4 28 08 00 fd 4b c1 0e 44 b8 47 19
# ReportID: 1 / X:  131 | Y:  128 | Z:  129 | Rz:  127 | Rx:    0 | Ry:    0 | 0xff000020:  198 | Hat switch:   8 | Button: 0  0  0  0  0  0  0  0  0  0  0  0  0  0  0 | 0xff000021: 0 , 0 , 0 , 0 , 0 , 0 , 0 , 0 , 0 , 0 , 0 , 0 , 0 | 0xff000022:  163 ,   86 ,   42 ,  235 ,  247 ,  255 ,  238 ,  255 ,   11 ,    0 ,   57 ,    0 ,  103 ,   31 ,   43 ,    5 ,  232 ,  106 ,   58 ,  212 ,    8 ,  128 ,    0 ,    0 ,    0 ,  128 ,    0 ,    0 ,    0 ,    0 ,    9 ,    9 ,    0 ,    0 ,    0 ,    0 ,    0 ,  209 ,  128 ,   58 ,  212 ,   40 ,    8 ,    0 ,   78 ,  121 ,   28 ,   75 ,  114 ,   35 ,  136 ,  234 
E: 000000.105583 64 01 83 80 81 7f 00 00 c6 08 00 00 00 a3 56 2a eb f7 ff ee ff 0b 00 39 00 67 1f 2b 05 e8 6a 3a d4 08 80 00 00 00 80 00 00 00 00 09 09 00 00 00 00 00 d1 80 3a d4 28 08 00 4e 79 1c 4b 72 23 88 ea
# ReportID: 1 / X:  131 | Y:  128 | Z:  129 | Rz:  127 | Rx:    0 | Ry:    0 | 0xff000020:  199 | Hat switch:   8 | Button: 0  0  0  0  0  0  0  0  0  0  0  0  0  0  0 | 0xff000021: 0 , 0 , 0 , 0 , 0 , 0 , 0 , 0 , 0 , 0 , 0 , 0 , 0 | 0xff000022:  164 ,   86 ,   42 ,  235 ,  245 ,  255 ,  239 ,  255 ,    9 ,    0 ,   55 ,    0 ,  116 ,   31 ,   36 ,    5 ,  221 ,  153 ,   58 ,  212 ,    8 ,  128 ,    0 ,    0 ,    0 ,  128 ,    0 ,    0 ,    0 ,    0 ,    9 ,    9 ,    0 ,    0 ,    0 ,    0 ,    0 ,  177 ,  175 ,   58 ,  212 ,   40 ,    8 ,    0 ,  222 ,   96 ,   41 ,  173 ,   75 ,  217 ,  208 ,  235 
E: 000000.109067 64 01 83 80 81 7f 00 00 c7 08 00 00 00 a4 56 2a eb f5 ff ef ff 09 00 37 00 74 1f 24 05 dd 99 3a d4 08 80 00 00 00 80 00 00 00 00 09 09 00 00 00 00 00 b1 af 3a d4 28 08 00 de 60 29 ad 4b d9 d0 eb
# ReportID: 1 / X:  131 | Y:  128 | Z:  129 | Rz:  127 | Rx:    0 | Ry:    0 | 0xff000020:  200 | Hat switch:   8 | Button: 0  0  0  0  0  0  0  0  0  0  0  0  0  0  0 | 0xff000021: 0 , 0 , 0 , 0 , 0 , 0 , 0 , 0 , 0 , 0 , 0 , 0 , 0 | 0xff000022:  165 ,   86 ,   42 ,  235 ,  245 ,  255 ,  239 ,  255 ,   10 ,    0 ,   57 ,    0 ,   61 ,   31 ,   37 ,    5 ,  208 ,  200 ,   58 ,  212 ,    8 ,  128 ,    0 ,    0 ,    0 ,  128 ,    0 ,    0 ,    0 ,    0 ,    9 ,    9 ,    0 ,    0 ,    0 ,    0 ,    0 ,  145 ,  222 ,   58 ,  212 ,   40 ,    8 ,    0 ,   67 ,   83 ,    2 ,    0 ,  251 ,  171 ,   30 ,  169 
E: 000000.114766 64 01 83 80 81 7f 00 00 c8 08 00 00 00 a5 56 2a eb f5 ff ef ff 0a 00 39 00 3d 1f 25 05 d0 c8 3a d4 08 80 00 00 00 80 00 00 00 00 09 09 00 00 00 00 00 91 de 3a d4 28 08 00 43 53 02 00 fb ab 1e a9
# ReportID: 1 / X:  131 | Y:  128 | Z:  129 | Rz:  127 | Rx:    0 | Ry:    0 | 0xff000020:  201 | Hat switch:   8 | Button: 0  0  0  0  0  0  0  0  0  0  0  0  0  0  0 | 0xff000021: 0 , 0 , 0 , 0 , 0 , 0 , 0 , 0 , 0 , 0 , 0 , 0 , 0 | 0xff000022:  166 ,   86 ,   42 ,  235 ,  246 ,  255 ,  239 ,  255 ,   10 ,    0 ,   57 ,    0 ,   57 ,   31 ,   47 ,    5 ,  193 ,  247 ,   58 ,  212 ,    8 ,  128 ,    0 ,    0 ,    0 ,  128 ,    0 ,    0 ,    0 ,    0 ,    9 ,    9 ,    0 ,    0 ,    0 ,    0 ,    0 ,  113 ,   13 ,   59 ,  212 ,   40 ,    8 ,    0 ,  104 ,  196 ,   58 ,  242 ,  172 ,   56 ,   63 ,  139 
E: 000000.117808 64 01 83 80 81 7f 00 00 c9 08 00 00 00 a6 56 2a eb f6 ff ef ff 0a 00 39 00 39 1f 2f 05 c1 f7 3a d4 08 80 00 00 00 80 00 00 00 00 09 09 00 00 00 00 00 71 0d 3b d4 28 08 00 68 c4 3a f2 ac 38 3f 8b
# ReportID: 1 / X:  131 | Y:  128 | Z:  129 | Rz:  127 | Rx:    0 | Ry:    0 | 0xff000020:  202 | Hat switch:   8 | Button: 0  0  0  0  0  0  0  0  0  0  0  0  0  0  0 | 0xff000021: 0 , 0 , 0 , 0 , 0 , 0 , 0 , 0 , 0 , 0 , 0 , 0 , 0 | 0xff000022:  167 ,   86 ,   42 ,  235 ,  247 ,  255 ,  239 ,  255 ,   10 ,    0 ,   67 ,    0 ,   72 ,   31 ,   51 ,    5 ,  180 ,   38 ,   59 ,  212 ,    8 ,  128 ,    0 ,    0 ,    0 ,  128 ,    0 ,    0 ,    0 ,    0 ,    9 ,    9 ,    0 ,    0 ,    0 ,    0 ,    0 ,   81 ,   60 ,   59 ,  212 ,   40 ,    8 ,    0 ,  146 ,   94 ,  217 ,  225 ,  177 ,   23 ,  136 ,  101 
E: 000000.121274 64 01 83 80 81 7f 00 00 ca 08 00 00 00 a7 56 2a eb f7 ff ef ff 0a 00 43 00 48 1f 33 05 b4 26 3b d4 08 80 00 00 00 80 00 00 00 00 09 09 00 00 00 00 00 51 3c 3b d4 28 08 00 92 5e d9 e1 b1 17 88 65
# ReportID: 1 / X:  131 | Y:  128 | Z:  129 | Rz:  127 | Rx:    0 | Ry:    0 | 0xff000020:  203 | Hat switch:   8 | Button: 0  0  0  0  0  0  0  0  0  0  0  0  0  0  0 | 0xff000021: 0 , 0 , 0 , 0 , 0 , 0 , 0 , 0 , 0 , 0 , 0 , 0 , 0 | 0xff000022:  168 ,   86 ,   42 ,  235 ,  247 ,  255 ,  238 ,  255 ,   11 ,    0 ,   68 ,    0 ,   85 ,   31 ,   45 ,    5 ,  167 ,   85 ,   59 ,  212 ,    8 ,  128 ,    0 ,    0 ,    0 ,  128 ,    0 ,    0 ,    0 ,    0 ,    9 ,    9 ,    0 ,    0 ,    0 ,    0 ,    0 ,   49 ,  107 ,   59 ,  212 ,   40 ,    8 ,    0 ,   75 ,  220 ,  120 ,  228 ,  194 ,  118 ,   49 ,    3 
E: 000000.125200 64 01 83 80 81 7f 00 00 cb 08 00 00 00 a8 56 2a eb f7 ff ee ff 0b 00 44 00 55 1f 2d 05 a7 55 3b d4 08 80 00 00 00 80 00 00 00 00 09 09 00 00 00 00 00 31 6b 3b d4 28 08 00 4b dc 78 e4 c2 76 31 03
# ReportID: 1 / X:  131 | Y:  128 | Z:  129 | Rz:  127 | Rx:    0 | Ry:    0 | 0xff000020:  204 | Hat switch:   8 | Button: 0  0  0  0  0  0  0  0  0  0  0  0  0  0  0 | 0xff000021: 0 , 0 , 0 , 0 , 0 , 0 , 0 , 0 , 0 , 0 , 0 , 0 , 0 | 0xff000022:  169 ,   86 ,   42 ,  235 ,  246 ,  255 ,  237 ,  255 ,    9 ,    0 ,   56 ,    0 ,   79 ,   31 ,   50 ,    5 ,  154 ,  132 ,   59 ,  212 ,    8 ,  128 ,    0 ,    0 ,    0 ,  128 ,    0 ,    0 ,    0 ,    0 ,    9 ,    9 ,    0 ,    0 ,    0 ,    0 ,    0 ,   17 ,  154 ,   59 ,  212 ,   40 ,    8 ,    0 ,   17 ,  119 ,  197 ,  131 ,  162 ,   45 ,  147 ,   27 
E: 000000.129959 64 01 83 80 81 7f 00 00 cc 08 00 00 00 a9 56 2a eb f6 ff ed ff 09 00 38 00 4f 1f 32 05 9a 84 3b d4 08 80 00 00 00 80 00 00 00 00 09 09 00 00 00 00 00 11 9a 3b d4 28 08 00 11 77 c5 83 a2 2d 93 1b
# ReportID: 1 / X:  131 | Y:  128 | Z:  129 | Rz:  127 | Rx:    0 | Ry:    0 | 0xff000020:  205 | Hat switch:   8 | Button: 0  0  0  0  0  0  0  0  0  0  0  0  0  0  0 | 0xff000021: 0 , 0 , 0 , 0 , 0 , 0 , 0 , 0 , 0 , 0 , 0 , 0 , 0 | 0xff000022:  170 ,   86 ,   42 ,  235 ,  246 ,  255 ,  238 ,  255 ,   11 ,    0 ,   49 ,    0 ,   96 ,   31 ,   52 ,    5 ,  141 ,  179 ,   59 ,  212 ,    8 ,  128 ,    0 ,    0 ,    0 ,  128 ,    0 ,    0 ,    0 ,    0 ,    9 ,    9 ,    0 ,    0 ,    0 ,    0 ,    0 ,  241 ,  200 ,   59 ,  212 ,   40 ,    8 ,    0 ,  172 ,   33 ,  185 ,   79 ,   14 ,   91 ,  204 ,  159 
E: 000000.133558 64 01 83 80 81 7f 00 00 cd 08 00 00 00 aa 56 2a eb f6 ff ee ff 0b 00 31 00 60 1f 34 05 8d b3 3b d4 08 80 00 00 00 80 00 00 00 00 09 09 00 00 00 00 00 f1 c8 3b d4 28 08 00 ac 21 b9 4f 0e 5b cc 9f
# ReportID: 1 / X:  131 | Y:  128 | Z:  129 | Rz:  127 | Rx:    0 | Ry:    0 | 0xff000020:  206 | Hat switch:   8 | Button: 0  0  0  0  0  0  0  0  0  0  0  0  0  0  0 | 0xff000021: 0 , 0 , 0 , 0 , 0 , 0 , 0 , 0 , 0 , 0 , 0 , 0 , 0 | 0xff000022:  171 ,   86 ,   42 ,  235 ,  246 ,  255 ,  238 ,  255 ,   11 ,    0 ,   53 ,    0 ,   87 ,   31 ,   64 ,    5 ,  128 ,  226 ,   59 ,  212 ,    8 ,  128 ,    0 ,    0 ,    0 ,  128 ,    0 ,    0 ,    0 ,    0 ,    9 ,    9 ,    0 ,    0 ,    0 ,    0 ,    0 ,  209 ,  247 ,   59 ,  212 ,   40 ,    8 ,    0 ,  130 ,  219 ,  159 ,  158 ,   68 ,  205 ,  103 ,  202 
E: 000000.137218 64 01 83 80 81 7f 00 00 ce 08 00 00 00 ab 56 2a eb f6 ff ee ff 0b 00 35 00 57 1f 40 05 80 e2 3b d4 08 80 00 00 00 80 00 00 00 00 09 09 00 00 00 00 00 d1 f7 3b d4 28 08 00 82 db 9f 9e 44 cd 67 ca
# ReportID: 1 / X:  131 | Y:  128 | Z:  129 | Rz:  127 | Rx:    0 | Ry:    0 | 0xff000020:  207 | Hat switch:   8 | Button: 0  0  0  0  0  0  0  0  0  0  0  0  0  0  0 | 0xff000021: 0 , 0 , 0 , 0 , 0 , 0 , 0 , 0 , 0 , 0 , 0 , 0 , 0 | 0xff000022:  172 ,   86 ,   42 ,  235 ,  247 ,  255 ,  238 ,  255 ,   11 ,    0 ,   51 ,    0 ,   93 ,   31 ,   56 ,    5 ,  115 ,   17 ,   60 ,  212 ,    8 ,  128 ,    0 ,    0 ,    0 ,  128 ,    0 ,    0 ,    0 ,    0 ,    9 ,    9 ,    0 ,    0 ,    0 ,    0 ,    0 ,  177 ,   38 ,   60 ,  212 ,   40 ,    8 ,    0 ,   94 ,  148 ,   66 ,   86 ,   34 ,  134 ,  100 ,  145 
E: 000000.141258 64 01 83 80 81 7f 00 00 cf 08 00 00 00 ac 56 2a eb f7 ff ee ff 0b 00 33 00 5d 1f 38 05 73 11 3c d4 08 80 00 00 00 80 00 00 00 00 09 09 00 00 00 00 00 b1 26 3c d4 28 08 00 5e 94 42 56 22 86 64 91
# ReportID: 1 / X:  131 | Y:  128 | Z:  129 | Rz:  127 | Rx:    0 | Ry:    0 | 0xff000020:  208 | Hat switch:   8 | Button: 0  0  0  0  0  0  0  0  0  0  0  0  0  0  0 | 0xff000021: 0 , 0 , 0 , 0 , 0 , 0 , 0 , 0 , 0 , 0 , 0 , 0 , 0 | 0xff000022:  173 ,   86 ,   42 ,  235 ,  246 ,  255 ,  238 ,  255 ,   11 ,    0 ,   52 ,    0 ,   92 ,   31 ,   58 ,    5 ,  103 ,   64 ,   60 ,  212 ,    8 ,  128 ,    0 ,    0 ,    0 ,  128 ,    0 ,    0 ,    0 ,    0 ,    9 ,    9 ,    0 ,    0 ,    0 ,    0 ,    0 ,  145 ,   85 ,   60 ,  212 ,   40 ,    8 ,    0 ,  112 ,    3 ,   17 ,  178 ,   60 ,  212 ,  145 ,   37 
E: 000000.145484 64 01 83 80 81 7f 00 00 d0 08 00 00 00 ad 56 2a eb f6 ff ee ff 0b 00 34 00 5c 1f 3a 05 67 40 3c d4 08 80 00 00 00 80 00 00 00 00 09 09 00 00 00 00 00 91 55 3c d4 28 08 00 70 03 11 b2 3c d4 91 25
# ReportID: 1 / X:  131 | Y:  128 | Z:  129 | Rz:  127 | Rx:    0 | Ry:    0 | 0xff000020:  209 | Hat switch:   8 | Button: 0  0  0  0  0  0  0  0  0  0  0  0  0  0  0 | 0xff000021: 0 , 0 , 0 , 0 , 0 , 0 , 0 , 0 , 0 , 0 , 0 , 0 , 0 | 0xff000022:  174 ,   86 ,   42 ,  235 ,  246 ,  255 ,  239 ,  255 ,   10 ,    0 ,   43 ,    0 ,   80 ,   31 ,   73 ,    5 ,   90 ,  111 ,   60 ,  212 ,    8 ,  128 ,    0 ,    0 ,    0 ,  128 ,    0 ,    0 ,    0 ,    0 ,    9 ,    9 ,    0 ,    0 ,    0 ,    0 ,    0 ,  113 ,  132 ,   60 ,  212 ,   40 ,    8 ,    0 ,  237 ,   61 ,  108 ,  157 ,  178 ,  160 ,   62 ,  135 
E: 000000.149105 64 01 83 80 81 7f 00 00 d1 08 00 00 00 ae 56 2a eb f6 ff ef ff 0a 00 2b 00 50 1f 49 05 5a 6f 3c d4 08 80 00 00 00 80 00 00 00 00 09 09 00 00 00 00 00 71 84 3c d4 28 08 00 ed 3d 6c 9d b2 a0 3e 87
# ReportID: 1 / X:  131 | Y:  128 | Z:  130 | Rz:  127 | Rx:    0 | Ry:    0 | 0xff000020:  210 | Hat switch:   8 | Button: 0  0  0  0  0  0  0  0  0  0  0  0  0  0  0 | 0xff000021: 0 , 0 , 0 , 0 , 0 , 0 , 0 , 0 , 0 , 0 , 0 , 0 , 0 | 0xff000022:  175 ,   86 ,   42 ,  235 ,  246 ,  255 ,  238 ,  255 ,   11 ,    0 ,   49 ,    0 ,   71 ,   31 ,   65 ,    5 ,   77 ,  158 ,   60 ,  212 ,    8 ,  128 ,    0 ,    0 ,    0 ,  128 ,    0 ,    0 ,    0 ,    0 ,    9 ,    9 ,    0 ,    0 ,    0 ,    0 ,    0 ,   81 ,  179 ,   60 ,  212 ,   40 ,    8 ,    0 ,   88 ,  144 ,  176 ,   43 ,   42 ,  165 ,   36 ,  196 
E: 000000.153223 64 01 83 80 82 7f 00 00 d2 08 00 00 00 af 56 2a eb f6 ff ee ff 0b 00 31 00 47 1f 41 05 4d 9e 3c d4 08 80 00 00 00 80 00 00 00 00 09 09 00 00 00 00 00 51 b3 3c d4 28 08 00 58 90 b0 2b 2a a5 24 c4
# ReportID: 1 / X:  131 | Y:  128 | Z:  130 | Rz:  127 | Rx:    0 | Ry:    0 | 0xff000020:  211 | Hat switch:   8 | Button: 0  0  0  0  0  0  0  0  0  0  0  0  0  0  0 | 0xff000021: 0 , 0 , 0 , 0 , 0 , 0 , 0 , 0 , 0 , 0 , 0 , 0 , 0 | 0xff000022:  176 ,   86 ,   42 ,  235 ,  246 ,  255 ,  238 ,  255 ,   11 ,    0 ,   43 ,    0 ,   73 ,   31 ,   65 ,    5 ,   64 ,  205 ,   60 ,  212 ,    8 ,  128 ,    0 ,    0 ,    0 ,  128 ,    0 ,    0 ,    0 ,    0 ,    9 ,    9 ,    0 ,    0 ,    0 ,    0 ,    0 ,   49 ,  226 ,   60 ,  212 ,   40 ,    8 ,    0 ,   12 ,  116 ,  208 ,  146 ,  202 ,   63 ,  116 ,  218 
E: 000000.158857 64 01 83 80 82 7f 00 00 d3 08 00 00 00 b0 56 2a eb f6 ff ee ff 0b 00 2b 00 49 1f 41 05 40 cd 3c d4 08 80 00 00 00 80 00 00 00 00 09 09 00 00 00 00 00 31 e2 3c d4 28 08 00 0c 74 d0 92 ca 3f 74 da
# ReportID: 1 / X:  131 | Y:  128 | Z:  130 | Rz:  127 | Rx:    0 | Ry:    0 | 0xff000020:  212 | Hat switch:   8 | Button: 0  0  0  0  0  0  0  0  0  0  0  0  0  0  0 | 0xff000021: 0 , 0 , 0 , 0 , 0 , 0 , 0 , 0 , 0 , 0 , 0 , 0 , 0 | 0xff000022:  177 ,   86 ,   42 ,  235 ,  246 ,  255 ,  238 ,  255 ,   10 ,    0 ,   47 ,    0 ,   72 ,   31 ,   64 ,    5 ,   51 ,  252 ,   60 ,  212 ,    8 ,  128 ,    0 ,    0 ,    0 ,  128 ,    0 ,    0 ,    0 ,    0 ,    9 ,    9 ,    0 ,    0 ,    0 ,    0 ,    0 ,   17 ,   17 ,   61 ,  212 ,   40 ,    8 ,    0 ,  175 ,   75 ,   17 ,    2 ,   91 ,   38 ,  210 ,   35 
E: 000000.161947 64 01 83 80 82 7f 00 00 d4 08 00 00 00 b1 56 2a eb f6 ff ee ff 0a 00 2f 00 48 1f 40 05 33 fc 3c d4 08 80 00 00 00 80 00 00 00 00 09 09 00 00 00 00 00 11 11 3d d4 28 08 00 af 4b 11 02 5b 26 d2 23
# ReportID: 1 / X:  131 | Y:  128 | Z:  129 | Rz:  127 | Rx:    0 | Ry:    0 | 0xff000020:  213 | Hat switch:   8 | Button: 0  0  0  0  0  0  0  0  0  0  0  0  0  0  0 | 0xff000021: 0 , 0 , 0 , 0 , 0 , 0 , 0 , 0 , 0 , 0 , 0 , 0 , 0 | 0xff000022:  178 ,   86 ,   42 ,  235 ,  246 ,  255 ,  238 ,  255 ,   11 ,    0 ,   44 ,    0 ,   69 ,   31 ,   54 ,    5 ,   38 ,   43 ,   61 ,  212 ,    8 ,  128 ,    0 ,    0 ,    0 ,  128 ,    0 ,    0 ,    0 ,    0 ,    9 ,    9 ,    0 ,    0 ,    0 ,    0 ,    0 ,  241 ,   63 ,   61 ,  212 ,   40 ,    8 ,    0 ,   85 ,  145 ,  199 ,  176 ,  231 ,  195 ,  163 ,   56 
E: 000000.165559 64 01 83 80 81 7f 00 00 d5 08 00 00 00 b2 56 2a eb f6 ff ee ff 0b 00 2c 00 45 1f 36 05 26 2b 3d d4 08 80 00 00 00 80 00 00 00 00 09 09 00 00 00 00 00 f1 3f 3d d4 28 08 00 55 91 c7 b0 e7 c3 a3 38
# ReportID: 1 / X:  131 | Y:  128 | Z:  129 | Rz:  127 | Rx:    0 | Ry:    0 | 0xff000020:  214 | Hat switch:   8 | Button: 0  0  0  0  0  0  0  0  0  0  0  0  0  0  0 | 0xff000021: 0 , 0 , 0 , 0 , 0 , 0 , 0 , 0 , 0 , 0 , 0 , 0 , 0 | 0xff000022:  179 ,   86 ,   42 ,  235 ,  246 ,  255 ,  239 ,  255 ,   11 ,    0 ,   51 ,    0 ,   85 ,   31 ,   53 ,    5 ,   25 ,   90 ,   61 ,  212 ,    8 ,  128 ,    0 ,    0 ,    0 ,  128 ,    0 ,    0 ,    0 ,    0 ,    9 ,    9 ,    0 ,    0 ,    0 ,    0 ,    0 ,  209 ,  110 ,   61 ,  212 ,   40 ,    8 ,    0 ,    4 ,   98 ,   23 ,   24 ,  116 ,  177 ,  223 ,  137 
E: 000000.170675 64 01 83 80 81 7f 00 00 d6 08 00 00 00 b3 56 2a eb f6 ff ef ff 0b 00 33 00 55 1f 35 05 19 5a 3d d4 08 80 00 00 00 80 00 00 00 00 09 09 00 00 00 00 00 d1 6e 3d d4 28 08 00 04 62 17 18 74 b1 df 89
# ReportID: 1 / X:  131 | Y:  128 | Z:  130 | Rz:  127 | Rx:    0 | Ry:    0 | 0xff000020:  215 | Hat switch:   8 | Button: 0  0  0  0  0  0  0  0  0  0  0  0  0  0  0 | 0xff000021: 0 , 0 , 0 , 0 , 0 , 0 , 0 , 0 , 0 , 0 , 0 , 0 , 0 | 0xff000022:  180 ,   86 ,   42 ,  235 ,  246 ,  255 ,  239 ,  255 ,   11 ,    0 ,   44 ,    0 ,   76 ,   31 ,   52 ,    5 ,   12 ,  137 ,   61 ,  212 ,    8 ,  128 ,    0 ,    0 ,    0 ,  128 ,    0 ,    0 ,    0 ,    0 ,    9 ,    9 ,    0 ,    0 ,    0 ,    0 ,    0 ,  177 ,  157 ,   61 ,  212 ,   40 ,    8 ,    0 ,  247 ,  104 ,   91 ,  131 ,   33 ,  233 ,  211 ,    1 
E: 000000.173634 64 01 83 80 82 7f 00 00 d7 08 00 00 00 b4 56 2a eb f6 ff ef ff 0b 00 2c 00 4c 1f 34 05 0c 89 3d d4 08 80 00 00 00 80 00 00 00 00 09 09 00 00 00 00 00 b1 9d 3d d4 28 08 00 f7 68 5b 83 21 e9 d3 01
# ReportID: 1 / X:  131 | Y:  128 | Z:  129 | Rz:  127 | Rx:    0 | Ry:    0 | 0xff000020:  216 | Hat switch:   8 | Button: 0  0  0  0  0  0  0  0  0  0  0  0  0  0  0 | 0xff000021: 0 , 0 , 0 , 0 , 0 , 0 , 0 , 0 , 0 , 0 , 0 , 0 , 0 | 0xff000022:  181 ,   86 ,   42 ,  235 ,  246 ,  255 ,  239 ,  255 ,   11 ,    0 ,   48 ,    0 ,   65 ,   31 ,   54 ,    5 ,  255 ,  183 ,   61 ,  212 ,    8 ,  128 ,    0 ,    0 ,    0 ,  128 ,    0 ,    0 ,    0 ,    0 ,    9 ,    9 ,    0 ,    0 ,    0 ,    0 ,    0 ,  145 ,  204 ,   61 ,  212 ,   40 ,    8 ,    0 ,  189 ,  143 ,   27 ,  228 ,    9 ,  117 ,   73 ,  145 
E: 000000.177067 64 01 83 80 81 7f 00 00 d8 08 00 00 00 b5 56 2a eb f6 ff ef ff 0b 00 30 00 41 1f 36 05 ff b7 3d d4 08 80 00 00 00 80 00 00 00 00 09 09 00 00 00 00 00 91 cc 3d d4 28 08 00 bd 8f 1b e4 09 75 49 91
# ReportID: 1 / X:  131 | Y:  128 | Z:  129 | Rz:  127 | Rx:    0 | Ry:    0 | 0xff000020:  217 | Hat switch:   8 | Button: 0  0  0  0  0  0  0  0  0  0  0  0  0  0  0 | 0xff000021: 0 , 0 , 0 , 0 , 0 , 0 , 0 , 0 , 0 , 0 , 0 , 0 , 0 | 0xff000022:  182 ,   86 ,   42 ,  235 ,  246 ,  255 ,  240 ,  255 ,    9 ,    0 ,   52 ,    0 ,   77 ,   31 ,   58 ,    5 ,  242 ,  230 ,   61 ,  212 ,    8 ,  128 ,    0 ,    0 ,    0 ,  128 ,    0 ,    0 ,    0 ,    0 ,    9 ,    9 ,    0 ,    0 ,    0 ,    0 ,    0 ,  113 ,  251 ,   61 ,  212 ,   40 ,    8 ,    0 ,   20 ,  166 ,   21 ,   51 ,  198 ,   87 ,   36 ,  146 
E: 000000.182788 64 01 83 80 81 7f 00 00 d9 08 00 00 00 b6 56 2a eb f6 ff f0 ff 09 00 34 00 4d 1f 3a 05 f2 e6 3d d4 08 80 00 00 00 80 00 00 00 00 09 09 00 00 00 00 00 71 fb 3d d4 28 08 00 14 a6 15 33 c6 57 24 92
# ReportID: 1 / X:  131 | Y:  128 | Z:  129 | Rz:  127 | Rx:    0 | Ry:    0 | 0xff000020:  218 | Hat switch:   8 | Button: 0  0  0  0  0  0  0  0  0  0  0  0  0  0  0 | 0xff000021: 0 , 0 , 0 , 0 , 0 , 0 , 0 , 0 , 0 , 0 , 0 , 0 , 0 | 0xff000022:  183 ,   86 ,   42 ,  235 ,  247 ,  255 ,  238 ,  255 ,   10 ,    0 ,   48 ,    0 ,   92 ,   31 ,   55 ,    5 ,  229 ,   21 ,   62 ,  212 ,    8 ,  128 ,    0 ,    0 ,    0 ,  128 ,    0 ,    0 ,    0 ,    0 ,    9 ,    9 ,    0 ,    0 ,    0 ,    0 ,    0 ,   81 ,   42 ,   62 ,  212 ,   40 ,    8 ,    0 ,  250 ,  161 ,  208 ,  188 ,  181 ,  194 ,  233 ,   90 
E: 000000.185912 64 01 83 80 81 7f 00 00 da 08 00 00 00 b7 56 2a eb f7 ff ee ff 0a 00 30 00 5c 1f 37 05 e5 15 3e d4 08 80 00 00 00 80 00 00 00 00 09 09 00 00 00 00 00 51 2a 3e d4 28 08 00 fa a1 d0 bc b5 c2 e9 5a
# ReportID: 1 / X:  131 | Y:  128 | Z:  130 | Rz:  127 | Rx:    0 | Ry:    0 | 0xff000020:  219 | Hat switch:   8 | Button: 0  0  0  0  0  0  0  0  0  0  0  0  0  0  0 | 0xff000021: 0 , 0 , 0 , 0 , 0 , 0 , 0 , 0 , 0 , 0 , 0 , 0 , 0 | 0xff000022:  184 ,   86 ,   42 ,  235 ,  246 ,  255 ,  240 ,  255 ,   10 ,    0 ,   49 ,    0 ,  110 ,   31 ,   60 ,    5 ,  217 ,   68 ,   62 ,  212 ,    8 ,  128 ,    0 ,    0 ,    0 ,  128 ,    0 ,    0 ,    0 ,    0 ,    9 ,    9 ,    0 ,    0 ,    0 ,    0 ,    0 ,   49 ,   89 ,   62 ,  212 ,   40 ,    8 ,    0 ,   60 ,   54 ,   66 ,   55 ,  219 ,   14 ,  121 ,  194 
E: 000000.189289 64 01 83 80 82 7f 00 00 db 08 00 00 00 b8 56 2a eb f6 ff f0 ff 0a 00 31 00 6e 1f 3c 05 d9 44 3e d4 08 80 00 00 00 80 00 00 00 00 09 09 00 00 00 00 00 31 59 3e d4 28 08 00 3c 36 42 37 db 0e 79 c2
# ReportID: 1 / X:  131 | Y:  128 | Z:  129 | Rz:  127 | Rx:    0 | Ry:    0 | 0xff000020:  220 | Hat switch:   8 | Button: 0  0  0  0  0  0  0  0  0  0  0  0  0  0  0 | 0xff000021: 0 , 0 , 0 , 0 , 0 , 0 , 0 , 0 , 0 , 0 , 0 , 0 , 0 | 0xff000022:  185 ,   86 ,   42 ,  235 ,  247 ,  255 ,  239 ,  255 ,   11 ,    0 ,   52 ,    0 ,   86 ,   31 ,   55 ,    5 ,  204 ,  115 ,   62 ,  212 ,    8 ,  128 ,    0 ,    0 ,    0 ,  128 ,    0 ,    0 ,    0 ,    0 ,    9 ,    9 ,    0 ,    0 ,    0 ,    0 ,    0 ,   17 ,  136 ,   62 ,  212 ,   40 ,    8 ,    0 ,   37 ,   90 ,   43 ,   37 ,  248 ,   44 ,   99 ,  142 
E: 000000.193533 64 01 83 80 81 7f 00 00 dc 08 00 00 00 b9 56 2a eb f7 ff ef ff 0b 00 34 00 56 1f 37 05 cc 73 3e d4 08 80 00 00 00 80 00 00 00 00 09 09 00 00 00 00 00 11 88 3e d4 28 08 00 25 5a 2b 25 f8 2c 63 8e
# ReportID: 1 / X:  131 | Y:  128 | Z:  129 | Rz:  127 | Rx:    0 | Ry:    0 | 0xff000020:  221 | Hat switch:   8 | Button: 0  0  0  0  0  0  0  0  0  0  0  0  0  0  0 | 0xff000021: 0 , 0 , 0 , 0 , 0 , 0 , 0 , 0 , 0 , 0 , 0 , 0 , 0 | 0xff000022:  186 ,   86 ,   42 ,  235 ,  246 ,  255 ,  238 ,  255 ,   12 ,    0 ,   45 ,    0 ,   84 ,   31 ,   51 ,    5 ,  191 ,  162 ,   62 ,  212 ,    8 ,  128 ,    0 ,    0 ,    0 ,  128 ,    0 ,    0 ,    0 ,    0 ,    9 ,    9 ,    0 ,    0 ,    0 ,    0 ,    0 ,  241 ,  182 ,   62 ,  212 ,   40 ,    8 ,    0 ,   12 ,   30 ,   60 ,  129 ,  137 ,   33 ,   25 ,   11 
E: 000000.197207 64 01 83 80 81 7f 00 00 dd 08 00 00 00 ba 56 2a eb f6 ff ee ff 0c 00 2d 00 54 1f 33 05 bf a2 3e d4 08 80 00 00 00 80 00 00 00 00 09 09 00 00 00 00 00 f1 b6 3e d4 28 08 00 0c 1e 3c 81 89 21 19 0b
# ReportID: 1 / X:  131 | Y:  128 | Z:  129 | Rz:  127 | Rx:    0 | Ry:    0 | 0xff000020:  222 | Hat switch:   8 | Button: 0  0  0  0  0  0  0  0  0  0  0  0  0  0  0 | 0xff000021: 0 , 0 , 0 , 0 , 0 , 0 , 0 , 0 , 0 , 0 , 0 , 0 , 0 | 0xff000022:  187 ,   86 ,   42 ,  235 ,  247 ,  255 ,  238 ,  255 ,   10 ,    0 ,   55 ,    0 ,   74 ,   31 ,   49 ,    5 ,  178 ,  209 ,   62 ,  212 ,    8 ,  128 ,    0 ,    0 ,    0 ,  128 ,    0 ,    0 ,    0 ,    0 ,    9 ,    9 ,    0 ,    0 ,    0 ,    0 ,    0 ,  209 ,  229 ,   62 ,  212 ,   40 ,    8 ,    0 ,   80 ,  153 ,  236 ,  230 ,    3 ,  200 ,   62 ,   13 
E: 000000.202311 64 01 83 80 81 7f 00 00 de 08 00 00 00 bb 56 2a eb f7 ff ee ff 0a 00 37 00 4a 1f 31 05 b2 d1 3e d4 08 80 00 00 00 80 00 00 00 00 09 09 00 00 00 00 00 d1 e5 3e d4 28 08 00 50 99 ec e6 03 c8 3e 0d
# ReportID: 1 / X:  131 | Y:  128 | Z:  129 | Rz:  127 | Rx:    0 | Ry:    0 | 0xff000020:  223 | Hat switch:   8 | Button: 0  0  0  0  0  0  0  0  0  0  0  0  0  0  0 | 0xff000021: 0 , 0 , 0 , 0 , 0 , 0 , 0 , 0 , 0 , 0 , 0 , 0 , 0 | 0xff000022:  188 ,   86 ,   42 ,  235 ,  247 ,  255 ,  238 ,  255 ,   10 ,    0 ,   68 ,    0 ,   76 ,   31 ,   60 ,    5 ,  165 ,    0 ,   63 ,  212 ,    8 ,  128 ,    0 ,    0 ,    0 ,  128 ,    0 ,    0 ,    0 ,    0 ,    9 ,    9 ,    0 ,    0 ,    0 ,    0 ,    0 ,  177 ,   20 ,   63 ,  212 ,   40 ,    8 ,    0 ,  206 ,   17 ,   55 ,    6 ,  170 ,  115 ,  249 ,   20 
E: 000000.205993 64 01 83 80 81 7f 00 00 df 08 00 00 00 bc 56 2a eb f7 ff ee ff 0a 00 44 00 4c 1f 3c 05 a5 00 3f d4 08 80 00 00 00 80 00 00 00 00 09 09 00 00 00 00 00 b1 14 3f d4 28 08 00 ce 11 37 06 aa 73 f9 14
# ReportID: 1 / X:  131 | Y:  128 | Z:  129 | Rz:  127 | Rx:    0 | Ry:    0 | 0xff000020:  224 | Hat switch:   8 | Button: 0  0  0  0  0  0  0  0  0  0  0  0  0  0  0 | 0xff000021: 0 , 0 , 0 , 0 , 0 , 0 , 0 , 0 , 0 , 0 , 0 , 0 , 0 | 0xff000022:  189 ,   86 ,   42 ,  235 ,  248 ,  255 ,  238 ,  255 ,   11 ,    0 ,   58 ,    0 ,   62 ,   31 ,   62 ,    5 ,  152 ,   47 ,   63 ,  212 ,    8 ,  128 ,    0 ,    0 ,    0 ,  128 ,    0 ,    0 ,    0 ,    0 ,    9 ,    9 ,    0 ,    0 ,    0 ,    0 ,    0 ,  145 ,   67 ,   63 ,  212 ,   40 ,    8 ,    0 ,   97 ,   48 ,   80 ,  245 ,  163 ,  242 ,  241 ,  232 
E: 000000.209819 64 01 83 80 81 7f 00 00 e0 08 00 00 00 bd 56 2a eb f8 ff ee ff 0b 00 3a 00 3e 1f 3e 05 98 2f 3f d4 08 80 00 00 00 80 00 00 00 00 09 09 00 00 00 00 00 91 43 3f d4 28 08 00 61 30 50 f5 a3 f2 f1 e8
# ReportID: 1 / X:  131 | Y:  128 | Z:  130 | Rz:  127 | Rx:    0 | Ry:    0 | 0xff000020:  225 | Hat switch:   8 | Button: 0  0  0  0  0  0  0  0  0  0  0  0  0  0  0 | 0xff000021: 0 , 0 , 0 , 0 , 0 , 0 , 0 , 0 , 0 , 0 , 0 , 0 , 0 | 0xff000022:  190 ,   86 ,   42 ,  235 ,  246 ,  255 ,  238 ,  255 ,   11 ,    0 ,   64 ,    0 ,   77 ,   31 ,   64 ,    5 ,  139 ,   94 ,   63 ,  212 ,    8 ,  128 ,    0 ,    0 ,    0 ,  128 ,    0 ,    0 ,    0 ,    0 ,    9 ,    9 ,    0 ,    0 ,    0 ,    0 ,    0 ,  113 ,  114 ,   63 ,  212 ,   40 ,    8 ,    0 ,  242 ,   82 ,  139 ,    2 ,  232 ,  135 ,  124 ,   82 
E: 000000.214940 64 01 83 80 82 7f 00 00 e1 08 00 00 00 be 56 2a eb f6 ff ee ff 0b 00 40 00 4d 1f 40 05 8b 5e 3f d4 08 80 00 00 00 80 00 00 00 00 09 09 00 00 00 00 00 71 72 3f d4 28 08 00 f2 52 8b 02 e8 87 7c 52
# ReportID: 1 / X:  131 | Y:  128 | Z:  129 | Rz:  127 | Rx:    0 | Ry:    0 | 0xff000020:  226 | Hat switch:   8 | Button: 0  0  0  0  0  0  0  0  0  0  0  0  0  0  0 | 0xff000021: 0 , 0 , 0 , 0 , 0 , 0 , 0 , 0 , 0 , 0 , 0 , 0 , 0 | 0xff000022:  191 ,   86 ,   42 ,  235 ,  247 ,  255 ,  238 ,  255 ,   12 ,    0 ,   74 ,    0 ,   85 ,   31 ,   52 ,    5 ,  126 ,  141 ,   63 ,  212 ,    8 ,  128 ,    0 ,    0 ,    0 ,  128 ,    0 ,    0 ,    0 ,    0 ,    9 ,    9 ,    0 ,    0 ,    0 ,    0 ,    0 ,   81 ,  161 ,   63 ,  212 ,   40 ,    8 ,    0 ,  249 ,  173 ,   83 ,   99 ,   14 ,  149 ,  146 ,  250 
E: 000000.217902 64 01 83 80 81 7f 00 00 e2 08 00 00 00 bf 56 2a eb f7 ff ee ff 0c 00 4a 00 55 1f 34 05 7e 8d 3f d4 08 80 00 00 00 80 00 00 00 00 09 09 00 00 00 00 00 51 a1 3f d4 28 08 00 f9 ad 53 63 0e 95 92 fa
# ReportID: 1 / X:  131 | Y:  128 | Z:  129 | Rz:  127 | Rx:    0 | Ry:    0 | 0xff000020:  227 | Hat switch:   8 | Button: 0  0  0  0  0  0  0  0  0  0  0  0  0  0  0 | 0xff000021: 0 , 0 , 0 , 0 , 0 , 0 , 0 , 0 , 0 , 0 , 0 , 0 , 0 | 0xff000022:  192 ,   86 ,   42 ,  235 ,  247 ,  255 ,  239 ,  255 ,   11 ,    0 ,   58 ,    0 ,   94 ,   31 ,   66 ,    5 ,  113 ,  188 ,   63 ,  212 ,    8 ,  128 ,    0 ,    0 ,    0 ,  128 ,    0 ,    0 ,    0 ,    0 ,    9 ,    9 ,    0 ,    0 ,    0 ,    0 ,    0 ,   49 ,  208 ,   63 ,  212 ,   40 ,    8 ,    0 ,   19 ,   64 ,   32 ,   22 ,  226 ,  174 ,  166 ,  236 
E: 000000.221148 64 01 83 80 81 7f 00 00 e3 08 00 00 00 c0 56 2a eb f7 ff ef ff 0b 00 3a 00 5e 1f 42 05 71 bc 3f d4 08 80 00 00 00 80 00 00 00 00 09 09 00 00 00 00 00 31 d0 3f d4 28 08 00 13 40 20 16 e2 ae a6 ec
# ReportID: 1 / X:  131 | Y:  128 | Z:  129 | Rz:  127 | Rx:    0 | Ry:    0 | 0xff000020:  228 | Hat switch:   8 | Button: 0  0  0  0  0  0  0  0  0  0  0  0  0  0  0 | 0xff000021: 0 , 0 , 0 , 0 , 0 , 0 , 0 , 0 , 0 , 0 , 0 , 0 , 0 | 0xff000022:  193 ,   86 ,   42 ,  235 ,  245 ,  255 ,  239 ,  255 ,   12 ,    0 ,   59 ,    0 ,  107 ,   31 ,   65 ,    5 ,  100 ,  235 ,   63 ,  212 ,    8 ,  128 ,    0 ,    0 ,    0 ,  128 ,    0 ,    0 ,    0 ,    0 ,    9 ,    9 ,    0 ,    0 ,    0 ,    0 ,    0 ,   17 ,  255 ,   63 ,  212 ,   40 ,    8 ,    0 ,   22 ,  246 ,  118 ,  169 ,  165 ,  188 ,   63 ,  168 
E: 000000.225463 64 01 83 80 81 7f 00 00 e4 08 00 00 00 c1 56 2a eb f5 ff ef ff 0c 00 3b 00 6b 1f 41 05 64 eb 3f d4 08 80 00 00 00 80 00 00 00 00 09 09 00 00 00 00 00 11 ff 3f d4 28 08 00 16 f6 76 a9 a5 bc 3f a8
# ReportID: 1 / X:  131 | Y:  128 | Z:  130 | Rz:  127 | Rx:    0 | Ry:    0 | 0xff000020:  229 | Hat switch:   8 | Button: 0  0  0  0  0  0  0  0  0  0  0  0  0  0  0 | 0xff000021: 0 , 0 , 0 , 0 , 0 , 0 , 0 , 0 , 0 , 0 , 0 , 0 , 0 | 0xff000022:  194 ,   86 ,   42 ,  235 ,  246 ,  255 ,  238 ,  255 ,   12 ,    0 ,   56 ,    0 ,   82 ,   31 ,   37 ,    5 ,   87 ,   26 ,   64 ,  212 ,    8 ,  128 ,    0 ,    0 ,    0 ,  128 ,    0 ,    0 ,    0 ,    0 ,    9 ,    9 ,    0 ,    0 ,    0 ,    0 ,    0 ,  241 ,   45 ,   64 ,  212 ,   40 ,    8 ,    0 ,   24 ,   48 ,  236 ,  116 ,  252 ,   41 ,  112 ,    5 
E: 000000.229101 64 01 83 80 82 7f 00 00 e5 08 00 00 00 c2 56 2a eb f6 ff ee ff 0c 00 38 00 52 1f 25 05 57 1a 40 d4 08 80 00 00 00 80 00 00 00 00 09 09 00 00 00 00 00 f1 2d 40 d4 28 08 00 18 30 ec 74 fc 29 70 05
# ReportID: 1 / X:  131 | Y:  128 | Z:  129 | Rz:  127 | Rx:    0 | Ry:    0 | 0xff000020:  230 | Hat switch:   8 | Button: 0  0  0  0  0  0  0  0  0  0  0  0  0  0  0 | 0xff000021: 0 , 0 , 0 , 0 , 0 , 0 , 0 , 0 , 0 , 0 , 0 , 0 , 0 | 0xff000022:  195 ,   86 ,   42 ,  235 ,  245 ,  255 ,  239 ,  255 ,   11 ,    0 ,   41 ,    0 ,   96 ,   31 ,   49 ,    5 ,   75 ,   73 ,   64 ,  212 ,    8 ,  128 ,    0 ,    0 ,    0 ,  128 ,    0 ,    0 ,    0 ,    0 ,    9 ,    9 ,    0 ,    0 ,    0 ,    0 ,    0 ,  209 ,   92 ,   64 ,  212 ,   40 ,    8 ,    0 ,  140 ,  187 ,  151 ,   61 ,   69 ,  227 ,  244 ,    9 
E: 000000.233615 64 01 83 80 81 7f 00 00 e6 08 00 00 00 c3 56 2a eb f5 ff ef ff 0b 00 29 00 60 1f 31 05 4b 49 40 d4 08 80 00 00 00 80 00 00 00 00 09 09 00 00 00 00 00 d1 5c 40 d4 28 08 00 8c bb 97 3d 45 e3 f4 09
# ReportID: 1 / X:  131 | Y:  128 | Z:  129 | Rz:  127 | Rx:    0 | Ry:    0 | 0xff000020:  231 | Hat switch:   8 | Button: 0  0  0  0  0  0  0  0  0  0  0  0  0  0  0 | 0xff000021: 0 , 0 , 0 , 0 , 0 , 0 , 0 , 0 , 0 , 0 , 0 , 0 , 0 | 0xff000022:  196 ,   86 ,   42 ,  235 ,  245 ,  255 ,  240 ,  255 ,   12 ,    0 ,   17 ,    0 ,   90 ,   31 ,   58 ,    5 ,   62 ,  120 ,   64 ,  212 ,    8 ,  128 ,    0 ,    0 ,    0 ,  128 ,    0 ,    0 ,    0 ,    0 ,    9 ,    9 ,    0 ,    0 ,    0 ,    0 ,    0 ,  177 ,  139 ,   64 ,  212 ,   40 ,    8 ,    0 ,   19 ,   67 ,  252 ,   40 ,   36 ,  109 ,  207 ,   38 
E: 000000.237557 64 01 83 80 81 7f 00 00 e7 08 00 00 00 c4 56 2a eb f5 ff f0 ff 0c 00 11 00 5a 1f 3a 05 3e 78 40 d4 08 80 00 00 00 80 00 00 00 00 09 09 00 00 00 00 00 b1 8b 40 d4 28 08 00 13 43 fc 28 24 6d cf 26
# ReportID: 1 / X:  131 | Y:  128 | Z:  129 | Rz:  127 | Rx:    0 | Ry:    0 | 0xff000020:  232 | Hat switch:   8 | Button: 0  0  0  0  0  0  0  0  0  0  0  0  0  0  0 | 0xff000021: 0 , 0 , 0 , 0 , 0 , 0 , 0 , 0 , 0 , 0 , 0 , 0 , 0 | 0xff000022:  197 ,   86 ,   42 ,  235 ,  245 ,  255 ,  242 ,  255 ,   12 ,    0 ,   21 ,    0 ,   84 ,   31 ,   46 ,    5 ,   49 ,  167 ,   64 ,  212 ,    8 ,  128 ,    0 ,    0 ,    0 ,  128 ,    0 ,    0 ,    0 ,    0 ,    9 ,    9 ,    0 ,    0 ,    0 ,    0 ,    0 ,  145 ,  186 ,   64 ,  212 ,   40 ,    8 ,    0 ,  163 ,    7 ,  166 ,   18 ,  153 ,  217 ,  227 ,  223 
E: 000000.242802 64 01 83 80 81 7f 00 00 e8 08 00 00 00 c5 56 2a eb f5 ff f2 ff 0c 00 15 00 54 1f 2e 05 31 a7 40 d4 08 80 00 00 00 80 00 00 00 00 09 09 00 00 00 00 00 91 ba 40 d4 28 08 00 a3 07 a6 12 99 d9 e3 df
# ReportID: 1 / X:  131 | Y:  128 | Z:  130 | Rz:  127 | Rx:    0 | Ry:    0 | 0xff000020:  233 | Hat switch:   8 | Button: 0  0  0  0  0  0  0  0  0  0  0  0  0  0  0 | 0xff000021: 0 , 0 , 0 , 0 , 0 , 0 , 0 , 0 , 0 , 0 , 0 , 0 , 0 | 0xff000022:  198 ,   86 ,   42 ,  235 ,  246 ,  255 ,  240 ,  255 ,   12 ,    0 ,  111 ,    0 ,  104 ,   31 ,   18 ,    5 ,   36 ,  214 ,   64 ,  212 ,    8 ,  128 ,    0 ,    0 ,    0 ,  128 ,    0 ,    0 ,    0 ,    0 ,    9 ,    9 ,    0 ,    0 ,    0 ,    0 ,    0 ,  113 ,  233 ,   64 ,  212 ,   40 ,    8 ,    0 ,    2 ,  103 ,  194 ,   19 ,  239 ,  166 ,   39 ,  113 
E: 000000.245800 64 01 83 80 82 7f 00 00 e9 08 00 00 00 c6 56 2a eb f6 ff f0 ff 0c 00 6f 00 68 1f 12 05 24 d6 40 d4 08 80 00 00 00 80 00 00 00 00 09 09 00 00 00 00 00 71 e9 40 d4 28 08 00 02 67 c2 13 ef a6 27 71
# ReportID: 1 / X:  131 | Y:  128 | Z:  129 | Rz:  127 | Rx:    0 | Ry:    0 | 0xff000020:  234 | Hat switch:   4 | Button: 0  0  0  0  0  0  0  0  0  0  0  0  0  0  0 | 0xff000021: 0 , 0 , 0 , 0 , 0 , 0 , 0 , 0 , 0 , 0 , 0 , 0 , 0 | 0xff000022:  199 ,   86 ,   42 ,  235 ,  245 ,  255 ,  237 ,  255 ,    8 ,    0 ,   89 ,    0 ,  169 ,   31 ,   16 ,    5 ,   23 ,    5 ,   65 ,  212 ,    8 ,  128 ,    0 ,    0 ,    0 ,  128 ,    0 ,    0 ,    0 ,    0 ,    9 ,    9 ,    0 ,    0 ,    0 ,    0 ,    0 ,   80 ,   24 ,   65 ,  212 ,   40 ,    8 ,    0 ,   43 ,   91 ,  200 ,   48 ,  159 ,  134 ,   49 ,   65 
E: 000000.249265 64 01 83 80 81 7f 00 00 ea 04 00 00 00 c7 56 2a eb f5 ff ed ff 08 00 59 00 a9 1f 10 05 17 05 41 d4 08 80 00 00 00 80 00 00 00 00 09 09 00 00 00 00 00 50 18 41 d4 28 08 00 2b 5b c8 30 9f 86 31 41
# ReportID: 1 / X:  131 | Y:  128 | Z:  129 | Rz:  127 | Rx:    0 | Ry:    0 | 0xff000020:  235 | Hat switch:   4 | Button: 0  0  0  0  0  0  0  0  0  0  0  0  0  0  0 | 0xff000021: 0 , 0 , 0 , 0 , 0 , 0 , 0 , 0 , 0 , 0 , 0 , 0 , 0 | 0xff000022:  200 ,   86 ,   42 ,  235 ,  246 ,  255 ,  241 ,  255 ,   16 ,    0 ,  214 ,  255 ,  245 ,   30 ,  243 ,    4 ,   10 ,   52 ,   65 ,  212 ,    8 ,  128 ,    0 ,    0 ,    0 ,  128 ,    0 ,    0 ,    0 ,    0 ,    9 ,    9 ,    0 ,    0 ,    0 ,    0 ,    0 ,   48 ,   71 ,   65 ,  212 ,   40 ,    8 ,    0 ,   20 ,   80 ,  168 ,   41 ,  232 ,  244 ,  127 ,  144 
E: 000000.253752 64 01 83 80 81 7f 00 00 eb 04 00 00 00 c8 56 2a eb f6 ff f1 ff 10 00 d6 ff f5 1e f3 04 0a 34 41 d4 08 80 00 00 00 80 00 00 00 00 09 09 00 00 00 00 00 30 47 41 d4 28 08 00 14 50 a8 29 e8 f4 7f 90
# ReportID: 1 / X:  131 | Y:  128 | Z:  130 | Rz:  127 | Rx:    0 | Ry:    0 | 0xff000020:  236 | Hat switch:   4 | Button: 0  0  0  0  0  0  0  0  0  0  0  0  0  0  0 | 0xff000021: 0 , 0 , 0 , 0 , 0 , 0 , 0 , 0 , 0 , 0 , 0 , 0 , 0 | 0xff000022:  201 ,   86 ,   42 ,  235 ,  247 ,  255 ,  240 ,  255 ,    9 ,    0 ,   85 ,    0 ,  150 ,   31 ,   79 ,    5 ,  253 ,   98 ,   65 ,  212 ,    8 ,  128 ,    0 ,    0 ,    0 ,  128 ,    0 ,    0 ,    0 ,    0 ,    9 ,    9 ,    0 ,    0 ,    0 ,    0 ,    0 ,   16 ,  118 ,   65 ,  212 ,   40 ,    8 ,    0 ,  239 ,   66 ,   47 ,  211 ,  224 ,  180 ,   44 ,   24 
E: 000000.257493 64 01 83 80 82 7f 00 00 ec 04 00 00 00 c9 56 2a eb f7 ff f0 ff 09 00 55 00 96 1f 4f 05 fd 62 41 d4 08 80 00 00 00 80 00 00 00 00 09 09 00 00 00 00 00 10 76 41 d4 28 08 00 ef 42 2f d3 e0 b4 2c 18
# ReportID: 1 / X:  131 | Y:  128 | Z:  129 | Rz:  127 | Rx:    0 | Ry:    0 | 0xff000020:  237 | Hat switch:   4 | Button: 0  0  0  0  0  0  0  0  0  0  0  0  0  0  0 | 0xff000021: 0 , 0 , 0 , 0 , 0 , 0 , 0 , 0 , 0 , 0 , 0 , 0 , 0 | 0xff000022:  202 ,   86 ,   42 ,  235 ,  247 ,  255 ,  238 ,  255 ,   12 ,    0 ,  107 ,    0 ,   15 ,   31 ,   25 ,    5 ,  240 ,  145 ,   65 ,  212 ,    8 ,  128 ,    0 ,    0 ,    0 ,  128 ,    0 ,    0 ,    0 ,    0 ,    9 ,    9 ,    0 ,    0 ,    0 ,    0 ,    0 ,  240 ,  164 ,   65 ,  212 ,   40 ,    8 ,    0 ,  236 ,  202 ,  194 ,  237 ,  180 ,  239 ,   75 ,   64 
E: 000000.261169 64 01 83 80 81 7f 00 00 ed 04 00 00 00 ca 56 2a eb f7 ff ee ff 0c 00 6b 00 0f 1f 19 05 f0 91 41 d4 08 80 00 00 00 80 00 00 00 00 09 09 00 00 00 00 00 f0 a4 41 d4 28 08 00 ec ca c2 ed b4 ef 4b 40
# ReportID: 1 / X:  131 | Y:  128 | Z:  129 | Rz:  127 | Rx:    0 | Ry:    0 | 0xff000020:  238 | Hat switch:   4 | Button: 0  0  0  0  0  0  0  0  0  0  0  0  0  0  0 | 0xff000021: 0 , 0 , 0 , 0 , 0 , 0 , 0 , 0 , 0 , 0 , 0 , 0 , 0 | 0xff000022:  203 ,   86 ,   42 ,  235 ,  246 ,  255 ,  238 ,  255 ,   11 ,    0 ,    0 ,    0 ,   90 ,   31 ,   76 ,    5 ,  227 ,  192 ,   65 ,  212 ,    8 ,  128 ,    0 ,    0 ,    0 ,  128 ,    0 ,    0 ,    0 ,    0 ,    9 ,    9 ,    0 ,    0 ,    0 ,    0 ,    0 ,  208 ,  211 ,   65 ,  212 ,   40 ,    8 ,    0 ,  227 ,  198 ,  186 ,   67 ,   61 ,  168 ,   97 ,   10 
E: 000000.265294 64 01 83 80 81 7f 00 00 ee 04 00 00 00 cb 56 2a eb f6 ff ee ff 0b 00 00 00 5a 1f 4c 05 e3 c0 41 d4 08 80 00 00 00 80 00 00 00 00 09 09 00 00 00 00 00 d0 d3 41 d4 28 08 00 e3 c6 ba 43 3d a8 61 0a
# ReportID: 1 / X:  131 | Y:  128 | Z:  129 | Rz:  127 | Rx:    0 | Ry:    0 | 0xff000020:  239 | Hat switch:   4 | Button: 0  0  0  0  0  0  0  0  0  0  0  0  0  0  0 | 0xff000021: 0 , 0 , 0 , 0 , 0 , 0 , 0 , 0 , 0 , 0 , 0 , 0 , 0 | 0xff000022:  204 ,   86 ,   42 ,  235 ,  245 ,  255 ,  240 ,  255 ,   11 ,    0 ,   40 ,    0 ,   50 ,   31 ,   54 ,    5 ,  214 ,  239 ,   65 ,  212 ,    8 ,  128 ,    0 ,    0 ,    0 ,  128 ,    0 ,    0 ,    0 ,    0 ,    9 ,    9 ,    0 ,    0 ,    0 ,    0 ,    0 ,  176 ,    2 ,   66 ,  212 ,   40 ,    8 ,    0 ,  108 ,  204 ,  207 ,  143 ,  141 ,  110 ,    2 ,   35 
E: 000000.269102 64 01 83 80 81 7f 00 00 ef 04 00 00 00 cc 56 2a eb f5 ff f0 ff 0b 00 28 00 32 1f 36 05 d6 ef 41 d4 08 80 00 00 00 80 00 00 00 00 09 09 00 00 00 00 00 b0 02 42 d4 28 08 00 6c cc cf 8f 8d 6e 02 23
# ReportID: 1 / X:  131 | Y:  128 | Z:  129 | Rz:  127 | Rx:    0 | Ry:    0 | 0xff000020:  240 | Hat switch:   4 | Button: 0  0  0  0  0  0  0  0  0  0  0  0  0  0  0 | 0xff000021: 0 , 0 , 0 , 0 , 0 , 0 , 0 , 0 , 0 , 0 , 0 , 0 , 0 | 0xff000022:  205 ,   86 ,   42 ,  235 ,  246 ,  255 ,  240 ,  255 ,   11 ,    0 ,   94 ,    0 ,  104 ,   31 ,   63 ,    5 ,  201 ,   30 ,   66 ,  212 ,    8 ,  128 ,    0 ,    0 ,    0 ,  128 ,    0 ,    0 ,    0 ,    0 ,    9 ,    9 ,    0 ,    0 ,    0 ,    0 ,    0 ,  144 ,   49 ,   66 ,  212 ,   40 ,    8 ,    0 ,  186 ,  233 ,   71 ,  226 ,   57 ,  190 ,  176 ,   53 
E: 000000.273335 64 01 83 80 81 7f 00 00 f0 04 00 00 00 cd 56 2a eb f6 ff f0 ff 0b 00 5e 00 68 1f 3f 05 c9 1e 42 d4 08 80 00 00 00 80 00 00 00 00 09 09 00 00 00 00 00 90 31 42 d4 28 08 00 ba e9 47 e2 39 be b0 35
# ReportID: 1 / X:  131 | Y:  128 | Z:  129 | Rz:  127 | Rx:    0 | Ry:    0 | 0xff000020:  241 | Hat switch:   4 | Button: 0  0  0  0  0  0  0  0  0  0  0  0  0  0  0 | 0xff000021: 0 , 0 , 0 , 0 , 0 , 0 , 0 , 0 , 0 , 0 , 0 , 0 , 0 | 0xff000022:  206 ,   86 ,   42 ,  235 ,  246 ,  255 ,  239 ,  255 ,   10 ,    0 ,  254 ,  255 ,  255 ,   30 ,   89 ,    5 ,  189 ,   77 ,   66 ,  212 ,    8 ,  128 ,    0 ,    0 ,    0 ,  128 ,    0 ,    0 ,    0 ,    0 ,    9 ,    9 ,    0 ,    0 ,    0 ,    0 ,    0 ,  112 ,   96 ,   66 ,  212 ,   40 ,    8 ,    0 ,  251 ,  185 ,  157 ,  210 ,  190 ,  236 ,  110 ,  180 
E: 000000.277293 64 01 83 80 81 7f 00 00 f1 04 00 00 00 ce 56 2a eb f6 ff ef ff 0a 00 fe ff ff 1e 59 05 bd 4d 42 d4 08 80 00 00 00 80 00 00 00 00 09 09 00 00 00 00 00 70 60 42 d4 28 08 00 fb b9 9d d2 be ec 6e b4
# ReportID: 1 / X:  131 | Y:  128 | Z:  130 | Rz:  127 | Rx:    0 | Ry:    0 | 0xff000020:  242 | Hat switch:   4 | Button: 0  0  0  0  0  0  0  0  0  0  0  0  0  0  0 | 0xff000021: 0 , 0 , 0 , 0 , 0 , 0 , 0 , 0 , 0 , 0 , 0 , 0 , 0 | 0xff000022:  207 ,   86 ,   42 ,  235 ,  245 ,  255 ,  239 ,  255 ,   13 ,    0 ,   61 ,    0 ,  122 ,   31 ,   76 ,    5 ,  176 ,  124 ,   66 ,  212 ,    8 ,  128 ,    0 ,    0 ,    0 ,  128 ,    0 ,    0 ,    0 ,    0 ,    9 ,    9 ,    0 ,    0 ,    0 ,    0 ,    0 ,   80 ,  143 ,   66 ,  212 ,   40 ,    8 ,    0 ,   22 ,  133 ,   34 ,   10 ,   88 ,  243 ,   97 ,  242 
E: 000000.281351 64 01 83 80 82 7f 00 00 f2 04 00 00 00 cf 56 2a eb f5 ff ef ff 0d 00 3d 00 7a 1f 4c 05 b0 7c 42 d4 08 80 00 00 00 80 00 00 00 00 09 09 00 00 00 00 00 50 8f 42 d4 28 08 00 16 85 22 0a 58 f3 61 f2
# ReportID: 1 / X:  131 | Y:  128 | Z:  129 | Rz:  127 | Rx:    0 | Ry:    0 | 0xff000020:  243 | Hat switch:   4 | Button: 0  0  0  0  0  0  0  0  0  0  0  0  0  0  0 | 0xff000021: 0 , 0 , 0 , 0 , 0 , 0 , 0 , 0 , 0 , 0 , 0 , 0 , 0 | 0xff000022:  208 ,   86 ,   42 ,  235 ,  245 ,  255 ,  239 ,  255 ,   12 ,    0 ,   85 ,    0 ,   73 ,   31 ,   77 ,    5 ,  163 ,  171 ,   66 ,  212 ,    8 ,  128 ,    0 ,    0 ,    0 ,  128 ,    0 ,    0 ,    0 ,    0 ,    9 ,    9 ,    0 ,    0 ,    0 ,    0 ,    0 ,   48 ,  190 ,   66 ,  212 ,   40 ,    8 ,    0 ,  205 ,  123 ,  189 ,   74 ,  205 ,  211 ,  172 ,  179 
E: 000000.285325 64 01 83 80 81 7f 00 00 f3 04 00 00 00 d0 56 2a eb f5 ff ef ff 0c 00 55 00 49 1f 4d 05 a3 ab 42 d4 08 80 00 00 00 80 00 00 00 00 09 09 00 00 00 00 00 30 be 42 d4 28 08 00 cd 7b bd 4a cd d3 ac b3
# ReportID: 1 / X:  131 | Y:  128 | Z:  129 | Rz:  127 | Rx:    0 | Ry:    0 | 0xff000020:  244 | Hat switch:   4 | Button: 0  0  0  0  0  0  0  0  0  0  0  0  0  0  0 | 0xff000021: 0 , 0 , 0 , 0 , 0 , 0 , 0 , 0 , 0 , 0 , 0 , 0 , 0 | 0xff000022:  209 ,   86 ,   42 ,  235 ,  246 ,  255 ,  239 ,  255 ,   12 ,    0 ,   42 ,    0 ,   77 ,   31 ,   89 ,    5 ,  150 ,  218 ,   66 ,  212 ,    8 ,  128 ,    0 ,    0 ,    0 ,  128 ,    0 ,    0 ,    0 ,    0 ,    9 ,    9 ,    0 ,    0 ,    0 ,    0 ,    0 ,   16 ,  237 ,   66 ,  212 ,   40 ,    8 ,    0 ,   63 ,  220 ,   49 ,   85 ,   92 ,   35 ,   28 ,  158 
E: 000000.289260 64 01 83 80 81 7f 00 00 f4 04 00 00 00 d1 56 2a eb f6 ff ef ff 0c 00 2a 00 4d 1f 59 05 96 da 42 d4 08 80 00 00 00 80 00 00 00 00 09 09 00 00 00 00 00 10 ed 42 d4 28 08 00 3f dc 31 55 5c 23 1c 9e
# ReportID: 1 / X:  131 | Y:  128 | Z:  129 | Rz:  127 | Rx:    0 | Ry:    0 | 0xff000020:  245 | Hat switch:   4 | Button: 0  0  0  0  0  0  0  0  0  0  0  0  0  0  0 | 0xff000021: 0 , 0 , 0 , 0 , 0 , 0 , 0 , 0 , 0 , 0 , 0 , 0 , 0 | 0xff000022:  210 ,   86 ,   42 ,  235 ,  246 ,  255 ,  239 ,  255 ,   11 ,    0 ,   57 ,    0 ,   97 ,   31 ,   75 ,    5 ,  137 ,    9 ,   67 ,  212 ,    8 ,  128 ,    0 ,    0 ,    0 ,  128 ,    0 ,    0 ,    0 ,    0 ,    9 ,    9 ,    0 ,    0 ,    0 ,    0 ,    0 ,  240 ,   27 ,   67 ,  212 ,   40 ,    8 ,    0 ,  224 ,  237 ,  123 ,  114 ,  129 ,   97 ,   33 ,   23 
E: 000000.293317 64 01 83 80 81 7f 00 00 f5 04 00 00 00 d2 56 2a eb f6 ff ef ff 0b 00 39 00 61 1f 4b 05 89 09 43 d4 08 80 00 00 00 80 00 00 00 00 09 09 00 00 00 00 00 f0 1b 43 d4 28 08 00 e0 ed 7b 72 81 61 21 17
# ReportID: 1 / X:  131 | Y:  128 | Z:  129 | Rz:  127 | Rx:    0 | Ry:    0 | 0xff000020:  246 | Hat switch:   4 | Button: 0  0  0  0  0  0  0  0  0  0  0  0  0  0  0 | 0xff000021: 0 , 0 , 0 , 0 , 0 , 0 , 0 , 0 , 0 , 0 , 0 , 0 , 0 | 0xff000022:  211 ,   86 ,   42 ,  235 ,  245 ,  255 ,  240 ,  255 ,   12 ,    0 ,   42 ,    0 ,   65 ,   31 ,   72 ,    5 ,  124 ,   56 ,   67 ,  212 ,    8 ,  128 ,    0 ,    0 ,    0 ,  128 ,    0 ,    0 ,    0 ,    0 ,    9 ,    9 ,    0 ,    0 ,    0 ,    0 ,    0 ,  208 ,   74 ,   67 ,  212 ,   40 ,    8 ,    0 ,   30 ,  232 ,   74 ,   14 ,   79 ,   95 ,   23 ,   59 
E: 000000.297234 64 01 83 80 81 7f 00 00 f6 04 00 00 00 d3 56 2a eb f5 ff f0 ff 0c 00 2a 00 41 1f 48 05 7c 38 43 d4 08 80 00 00 00 80 00 00 00 00 09 09 00 00 00 00 00 d0 4a 43 d4 28 08 00 1e e8 4a 0e 4f 5f 17 3b
# ReportID: 1 / X:  131 | Y:  128 | Z:  129 | Rz:  127 | Rx:    0 | Ry:    0 | 0xff000020:  247 | Hat switch:   4 | Button: 0  0  0  0  0  0  0  0  0  0  0  0  0  0  0 | 0xff000021: 0 , 0 , 0 , 0 , 0 , 0 , 0 , 0 , 0 , 0 , 0 , 0 , 0 | 0xff000022:  212 ,   86 ,   42 ,  235 ,  246 ,  255 ,  239 ,  255 ,   11 ,    0 ,   63 ,    0 ,   70 ,   31 ,   52 ,    5 ,  111 ,  103 ,   67 ,  212 ,    8 ,  128 ,    0 ,    0 ,    0 ,  128 ,    0 ,    0 ,    0 ,    0 ,    9 ,    9 ,    0 ,    0 ,    0 ,    0 ,    0 ,  176 ,  121 ,   67 ,  212 ,   40 ,    8 ,    0 ,    6 ,   89 ,   18 ,   74 ,  136 ,  212 ,  147 ,  254 
E: 000000.301211 64 01 83 80 81 7f 00 00 f7 04 00 00 00 d4 56 2a eb f6 ff ef ff 0b 00 3f 00 46 1f 34 05 6f 67 43 d4 08 80 00 00 00 80 00 00 00 00 09 09 00 00 00 00 00 b0 79 43 d4 28 08 00 06 59 12 4a 88 d4 93 fe
# ReportID: 1 / X:  131 | Y:  128 | Z:  129 | Rz:  127 | Rx:    0 | Ry:    0 | 0xff000020:  248 | Hat switch:   4 | Button: 0  0  0  0  0  0  0  0  0  0  0  0  0  0  0 | 0xff000021: 0 , 0 , 0 , 0 , 0 , 0 , 0 , 0 , 0 , 0 , 0 , 0 , 0 | 0xff000022:  213 ,   86 ,   42 ,  235 ,  247 ,  255 ,  240 ,  255 ,   11 ,    0 ,   89 ,    0 ,   86 ,   31 ,   57 ,    5 ,   98 ,  150 ,   67 ,  212 ,    8 ,  128 ,    0 ,    0 ,    0 ,  128 ,    0 ,    0 ,    0 ,    0 ,    9 ,    9 ,    0 ,    0 ,    0 ,    0 ,    0 ,  144 ,  168 ,   67 ,  212 ,   40 ,    8 ,    0 ,  115 ,   32 ,  213 ,   85 ,  146 ,  213 ,  240 ,   72 
E: 000000.305363 64 01 83 80 81 7f 00 00 f8 04 00 00 00 d5 56 2a eb f7 ff f0 ff 0b 00 59 00 56 1f 39 05 62 96 43 d4 08 80 00 00 00 80 00 00 00 00 09 09 00 00 00 00 00 90 a8 43 d4 28 08 00 73 20 d5 55 92 d5 f0 48
# ReportID: 1 / X:  131 | Y:  128 | Z:  129 | Rz:  127 | Rx:    0 | Ry:    0 | 0xff000020:  249 | Hat switch:   4 | Button: 0  0  0  0  0  0  0  0  0  0  0  0  0  0  0 | 0xff000021: 0 , 0 , 0 , 0 , 0 , 0 , 0 , 0 , 0 , 0 , 0 , 0 , 0 | 0xff000022:  214 ,   86 ,   42 ,  235 ,  247 ,  255 ,  238 ,  255 ,   11 ,    0 ,   27 ,    0 ,   98 ,   31 ,   59 ,    5 ,   85 ,  197 ,   67 ,  212 ,    8 ,  128 ,    0 ,    0 ,    0 ,  128 ,    0 ,    0 ,    0 ,    0 ,    9 ,    9 ,    0 ,    0 ,    0 ,    0 ,    0 ,  112 ,  215 ,   67 ,  212 ,   40 ,    8 ,    0 ,  138 ,   62 ,  223 ,  158 ,  148 ,    4 ,  189 ,   84 
E: 000000.309062 64 01 83 80 81 7f 00 00 f9 04 00 00 00 d6 56 2a eb f7 ff ee ff 0b 00 1b 00 62 1f 3b 05 55 c5 43 d4 08 80 00 00 00 80 00 00 00 00 09 09 00 00 00 00 00 70 d7 43 d4 28 08 00 8a 3e df 9e 94 04 bd 54
# ReportID: 1 / X:  131 | Y:  128 | Z:  130 | Rz:  127 | Rx:    0 | Ry:    0 | 0xff000020:  250 | Hat switch:   4 | Button: 0  0  0  0  0  0  0  0  0  0  0  0  0  0  0 | 0xff000021: 0 , 0 , 0 , 0 , 0 , 0 , 0 , 0 , 0 , 0 , 0 , 0 , 0 | 0xff000022:  215 ,   86 ,   42 ,  235 ,  245 ,  255 ,  238 ,  255 ,   12 ,    0 ,   68 ,    0 ,   15 ,   31 ,   37 ,    5 ,   72 ,  244 ,   67 ,  212 ,    8 ,  128 ,    0 ,    0 ,    0 ,  128 ,    0 ,    0 ,    0 ,    0 ,    9 ,    9 ,    0 ,    0 ,    0 ,    0 ,    0 ,   80 ,    6 ,   68 ,  212 ,   40 ,    8 ,    0 ,  201 ,  181 ,   68 ,  177 ,  181 ,  103 ,  107 ,   15 
E: 000000.313229 64 01 83 80 82 7f 00 00 fa 04 00 00 00 d7 56 2a eb f5 ff ee ff 0c 00 44 00 0f 1f 25 05 48 f4 43 d4 08 80 00 00 00 80 00 00 00 00 09 09 00 00 00 00 00 50 06 44 d4 28 08 00 c9 b5 44 b1 b5 67 6b 0f
# ReportID: 1 / X:  131 | Y:  128 | Z:  129 | Rz:  127 | Rx:    0 | Ry:    0 | 0xff000020:  251 | Hat switch:   4 | Button: 0  0  0  0  0  0  0  0  0  0  0  0  0  0  0 | 0xff000021: 0 , 0 , 0 , 0 , 0 , 0 , 0 , 0 , 0 , 0 , 0 , 0 , 0 | 0xff000022:  216 ,   86 ,   42 ,  235 ,  246 ,  255 ,  236 ,  255 ,   11 ,    0 ,   64 ,    0 ,  103 ,   31 ,   37 ,    5 ,   59 ,   35 ,   68 ,  212 ,    8 ,  128 ,    0 ,    0 ,    0 ,  128 ,    0 ,    0 ,    0 ,    0 ,    9 ,    9 ,    0 ,    0 ,    0 ,    0 ,    0 ,   48 ,   53 ,   68 ,  212 ,   40 ,    8 ,    0 ,   82 ,  139 ,  177 ,  188 ,   19 ,   57 ,  190 ,  140 
E: 000000.318793 64 01 83 80 81 7f 00 00 fb 04 00 00 00 d8 56 2a eb f6 ff ec ff 0b 00 40 00 67 1f 25 05 3b 23 44 d4 08 80 00 00 00 80 00 00 00 00 09 09 00 00 00 00 00 30 35 44 d4 28 08 00 52 8b b1 bc 13 39 be 8c
# ReportID: 1 / X:  131 | Y:  128 | Z:  129 | Rz:  127 | Rx:    0 | Ry:    0 | 0xff000020:  252 | Hat switch:   4 | Button: 0  0  0  0  0  0  0  0  0  0  0  0  0  0  0 | 0xff000021: 0 , 0 , 0 , 0 , 0 , 0 , 0 , 0 , 0 , 0 , 0 , 0 , 0 | 0xff000022:  217 ,   86 ,   42 ,  235 ,  245 ,  255 ,  238 ,  255 ,   12 ,    0 ,   51 ,    0 ,   95 ,   31 ,   34 ,    5 ,   47 ,   82 ,   68 ,  212 ,    8 ,  128 ,    0 ,    0 ,    0 ,  128 ,    0 ,    0 ,    0 ,    0 ,    9 ,    9 ,    0 ,    0 ,    0 ,    0 ,    0 ,   16 ,  100 ,   68 ,  212 ,   40 ,    8 ,    0 ,  199 ,    6 ,   31 ,  160 ,   86 ,  194 ,  136 ,  141 
E: 000000.321754 64 01 83 80 81 7f 00 00 fc 04 00 00 00 d9 56 2a eb f5 ff ee ff 0c 00 33 00 5f 1f 22 05 2f 52 44 d4 08 80 00 00 00 80 00 00 00 00 09 09 00 00 00 00 00 10 64 44 d4 28 08 00 c7 06 1f a0 56 c2 88 8d
# ReportID: 1 / X:  131 | Y:  128 | Z:  129 | Rz:  127 | Rx:    0 | Ry:    0 | 0xff000020:  253 | Hat switch:   4 | Button: 0  0  0  0  0  0  0  0  0  0  0  0  0  0  0 | 0xff000021: 0 , 0 , 0 , 0 , 0 , 0 , 0 , 0 , 0 , 0 , 0 , 0 , 0 | 0xff000022:  218 ,   86 ,   42 ,  235 ,  247 ,  255 ,  238 ,  255 ,   12 ,    0 ,   50 ,    0 ,  100 ,   31 ,   34 ,    5 ,   34 ,  129 ,   68 ,  212 ,    8 ,  128 ,    0 ,    0 ,    0 ,  128 ,    0 ,    0 ,    0 ,    0 ,    9 ,    9 ,    0 ,    0 ,    0 ,    0 ,    0 ,  240 ,  146 ,   68 ,  212 ,   40 ,    8 ,    0 ,  253 ,  215 ,  181 ,  239 ,  251 ,  201 ,   56 ,  150 
E: 000000.325126 64 01 83 80 81 7f 00 00 fd 04 00 00 00 da 56 2a eb f7 ff ee ff 0c 00 32 00 64 1f 22 05 22 81 44 d4 08 80 00 00 00 80 00 00 00 00 09 09 00 00 00 00 00 f0 92 44 d4 28 08 00 fd d7 b5 ef fb c9 38 96
# ReportID: 1 / X:  131 | Y:  128 | Z:  129 | Rz:  127 | Rx:    0 | Ry:    0 | 0xff000020:  254 | Hat switch:   4 | Button: 0  0  0  0  0  0  0  0  0  0  0  0  0  0  0 | 0xff000021: 0 , 0 , 0 , 0 , 0 , 0 , 0 , 0 , 0 , 0 , 0 , 0 , 0 | 0xff000022:  219 ,   86 ,   42 ,  235 ,  247 ,  255 ,  238 ,  255 ,   12 ,    0 ,   50 ,    0 ,   97 ,   31 ,   29 ,    5 ,   21 ,  176 ,   68 ,  212 ,    8 ,  128 ,    0 ,    0 ,    0 ,  128 ,    0 ,    0 ,    0 ,    0 ,    9 ,    9 ,    0 ,    0 ,    0 ,    0 ,    0 ,  208 ,  193 ,   68 ,  212 ,   40 ,    8 ,    0 ,  144 ,  132 ,    2 ,  202 ,  218 ,  207 ,  125 ,  170 
E: 000000.329670 64 01 83 80 81 7f 00 00 fe 04 00 00 00 db 56 2a eb f7 ff ee ff 0c 00 32 00 61 1f 1d 05 15 b0 44 d4 08 80 00 00 00 80 00 00 00 00 09 09 00 00 00 00 00 d0 c1 44 d4 28 08 00 90 84 02 ca da cf 7d aa
# ReportID: 1 / X:  131 | Y:  128 | Z:  129 | Rz:  127 | Rx:    0 | Ry:    0 | 0xff000020:  255 | Hat switch:   4 | Button: 0  0  0  0  0  0  0  0  0  0  0  0  0  0  0 | 0xff000021: 0 , 0 , 0 , 0 , 0 , 0 , 0 , 0 , 0 , 0 , 0 , 0 , 0 | 0xff000022:  220 ,   86 ,   42 ,  235 ,  247 ,  255 ,  238 ,  255 ,   12 ,    0 ,   56 ,    0 ,  114 ,   31 ,   37 ,    5 ,    8 ,  223 ,   68 ,  212 ,    8 ,  128 ,    0 ,    0 ,    0 ,  128 ,    0 ,    0 ,    0 ,    0 ,    9 ,    9 ,    0 ,    0 ,    0 ,    0 ,    0 ,  176 ,  240 ,   68 ,  212 ,   40 ,    8 ,    0 ,  134 ,  105 ,  123 ,  102 ,   64 ,   76 ,   59 ,  176 
E: 000000.334316 64 01 83 80 81 7f 00 00 ff 04 00 00 00 dc 56 2a eb f7 ff ee ff 0c 00 38 00 72 1f 25 05 08 df 44 d4 08 80 00 00 00 80 00 00 00 00 09 09 00 00 00 00 00 b0 f0 44 d4 28 08 00 86 69 7b 66 40 4c 3b b0
# ReportID: 1 / X:  131 | Y:  128 | Z:  129 | Rz:  127 | Rx:    0 | Ry:    0 | 0xff000020:    0 | Hat switch:   4 | Button: 0  0  0  0  0  0  0  0  0  0  0  0  0  0  0 | 0xff000021: 0 , 0 , 0 , 0 , 0 , 0 , 0 , 0 , 0 , 0 , 0 , 0 , 0 | 0xff000022:  221 ,   86 ,   42 ,  235 ,  245 ,  255 ,  238 ,  255 ,   10 ,    0 ,   59 ,    0 ,   85 ,   31 ,   54 ,    5 ,  251 ,   13 ,   69 ,  212 ,    8 ,  128 ,    0 ,    0 ,    0 ,  128 ,    0 ,    0 ,    0 ,    0 ,    9 ,    9 ,    0 ,    0 ,    0 ,    0 ,    0 ,  144 ,   31 ,   69 ,  212 ,   40 ,    8 ,    0 ,  116 ,   98 ,   67 ,  106 ,  116 ,   40 ,  178 ,   19 
E: 000000.338322 64 01 83 80 81 7f 00 00 00 04 00 00 00 dd 56 2a eb f5 ff ee ff 0a 00 3b 00 55 1f 36 05 fb 0d 45 d4 08 80 00 00 00 80 00 00 00 00 09 09 00 00 00 00 00 90 1f 45 d4 28 08 00 74 62 43 6a 74 28 b2 13
# ReportID: 1 / X:  131 | Y:  128 | Z:  129 | Rz:  127 | Rx:    0 | Ry:    0 | 0xff000020:    1 | Hat switch:   4 | Button: 0  0  0  0  0  0  0  0  0  0  0  0  0  0  0 | 0xff000021: 0 , 0 , 0 , 0 , 0 , 0 , 0 , 0 , 0 , 0 , 0 , 0 , 0 | 0xff000022:  222 ,   86 ,   42 ,  235 ,  245 ,  255 ,  238 ,  255 ,   11 ,    0 ,   81 ,    0 ,   80 ,   31 ,   65 ,    5 ,  238 ,   60 ,   69 ,  212 ,    8 ,  128 ,    0 ,    0 ,    0 ,  128 ,    0 ,    0 ,    0 ,    0 ,    9 ,    9 ,    0 ,    0 ,    0 ,    0 ,    0 ,  112 ,   78 ,   69 ,  212 ,   40 ,    8 ,    0 ,  111 ,   18 ,   87 ,   27 ,   29 ,   47 ,  109 ,   50 
E: 000000.341930 64 01 83 80 81 7f 00 00 01 04 00 00 00 de 56 2a eb f5 ff ee ff 0b 00 51 00 50 1f 41 05 ee 3c 45 d4 08 80 00 00 00 80 00 00 00 00 09 09 00 00 00 00 00 70 4e 45 d4 28 08 00 6f 12 57 1b 1d 2f 6d 32
# ReportID: 1 / X:  131 | Y:  128 | Z:  130 | Rz:  127 | Rx:    0 | Ry:    0 | 0xff000020:    2 | Hat switch:   4 | Button: 0  0  0  0  0  0  0  0  0  0  0  0  0  0  0 | 0xff000021: 0 , 0 , 0 , 0 , 0 , 0 , 0 , 0 , 0 , 0 , 0 , 0 , 0 | 0xff000022:  223 ,   86 ,   42 ,  235 ,  244 ,  255 ,  236 ,  255 ,   10 ,    0 ,  108 ,    0 ,   72 ,   31 ,  100 ,    5 ,  225 ,  107 ,   69 ,  212 ,    8 ,  128 ,    0 ,    0 ,    0 ,  128 ,    0 ,    0 ,    0 ,    0 ,    9 ,    9 ,    0 ,    0 ,    0 ,    0 ,    0 ,   80 ,  125 ,   69 ,  212 ,   40 ,    8 ,    0 ,  206 ,  195 ,   68 ,  151 ,  230 ,  223 ,   78 ,  159 
E: 000000.345282 64 01 83 80 82 7f 00 00 02 04 00 00 00 df 56 2a eb f4 ff ec ff 0a 00 6c 00 48 1f 64 05 e1 6b 45 d4 08 80 00 00 00 80 00 00 00 00 09 09 00 00 00 00 00 50 7d 45 d4 28 08 00 ce c3 44 97 e6 df 4e 9f
# ReportID: 1 / X:  131 | Y:  128 | Z:  130 | Rz:  127 | Rx:    0 | Ry:    0 | 0xff000020:    3 | Hat switch:   4 | Button: 0  0  0  0  0  0  0  0  0  0  0  0  0  0  0 | 0xff000021: 0 , 0 , 0 , 0 , 0 , 0 , 0 , 0 , 0 , 0 , 0 , 0 , 0 | 0xff000022:  224 ,   86 ,   42 ,  235 ,  244 ,  255 ,  237 ,  255 ,   10 ,    0 ,    8 ,    0 ,   74 ,   31 ,   17 ,    5 ,  212 ,  154 ,   69 ,  212 ,    8 ,  128 ,    0 ,    0 ,    0 ,  128 ,    0 ,    0 ,    0 ,    0 ,    9 ,    9 ,    0 ,    0 ,    0 ,    0 ,    0 ,   48 ,  172 ,   69 ,  212 ,   40 ,    8 ,    0 ,    6 ,  116 ,  213 ,   97 ,   64 ,   84 ,  246 ,   76 
E: 000000.349100 64 01 83 80 82 7f 00 00 03 04 00 00 00 e0 56 2a eb f4 ff ed ff 0a 00 08 00 4a 1f 11 05 d4 9a 45 d4 08 80 00 00 00 80 00 00 00 00 09 09 00 00 00 00 00 30 ac 45 d4 28 08 00 06 74 d5 61 40 54 f6 4c
# ReportID: 1 / X:  131 | Y:  128 | Z:  129 | Rz:  127 | Rx:    0 | Ry:    0 | 0xff000020:    4 | Hat switch:   4 | Button: 0  0  0  0  0  0  0  0  0  0  0  0  0  0  0 | 0xff000021: 0 , 0 , 0 , 0 , 0 , 0 , 0 , 0 , 0 , 0 , 0 , 0 , 0 | 0xff000022:  225 ,   86 ,   42 ,  235 ,  245 ,  255 ,  238 ,  255 ,   11 ,    0 ,   41 ,    0 ,   85 ,   31 ,   54 ,    5 ,  199 ,  201 ,   69 ,  212 ,    8 ,  128 ,    0 ,    0 ,    0 ,  128 ,    0 ,    0 ,    0 ,    0 ,    9 ,    9 ,    0 ,    0 ,    0 ,    0 ,    0 ,   16 ,  219 ,   69 ,  212 ,   40 ,    8 ,    0 ,  232 ,    8 ,  116 ,   99 ,  154 ,   77 ,  196 ,  155 
E: 000000.354624 64 01 83 80 81 7f 00 00 04 04 00 00 00 e1 56 2a eb f5 ff ee ff 0b 00 29 00 55 1f 36 05 c7 c9 45 d4 08 80 00 00 00 80 00 00 00 00 09 09 00 00 00 00 00 10 db 45 d4 28 08 00 e8 08 74 63 9a 4d c4 9b
# ReportID: 1 / X:  131 | Y:  128 | Z:  129 | Rz:  127 | Rx:    0 | Ry:    0 | 0xff000020:    5 | Hat switch:   4 | Button: 0  0  0  0  0  0  0  0  0  0  0  0  0  0  0 | 0xff000021: 0 , 0 , 0 , 0 , 0 , 0 , 0 , 0 , 0 , 0 , 0 , 0 , 0 | 0xff000022:  226 ,   86 ,   42 ,  235 ,  247 ,  255 ,  239 ,  255 ,   11 ,    0 ,   68 ,    0 ,   67 ,   31 ,   80 ,    5 ,  186 ,  248 ,   69 ,  212 ,    8 ,  128 ,    0 ,    0 ,    0 ,  128 ,    0 ,    0 ,    0 ,    0 ,    9 ,    9 ,    0 ,    0 ,    0 ,    0 ,    0 ,  240 ,    9 ,   70 ,  212 ,   40 ,    8 ,    0 ,   35 ,  179 ,  208 ,   16 ,   96 ,  228 ,  142 ,  140 
E: 000000.357628 64 01 83 80 81 7f 00 00 05 04 00 00 00 e2 56 2a eb f7 ff ef ff 0b 00 44 00 43 1f 50 05 ba f8 45 d4 08 80 00 00 00 80 00 00 00 00 09 09 00 00 00 00 00 f0 09 46 d4 28 08 00 23 b3 d0 10 60 e4 8e 8c
# ReportID: 1 / X:  131 | Y:  128 | Z:  129 | Rz:  127 | Rx:    0 | Ry:    0 | 0xff000020:    6 | Hat switch:   4 | Button: 0  0  0  0  0  0  0  0  0  0  0  0  0  0  0 | 0xff000021: 0 , 0 , 0 , 0 , 0 , 0 , 0 , 0 , 0 , 0 , 0 , 0 , 0 | 0xff000022:  227 ,   86 ,   42 ,  235 ,  247 ,  255 ,  238 ,  255 ,   11 ,    0 ,   56 ,    0 ,   64 ,   31 ,   70 ,    5 ,  173 ,   39 ,   70 ,  212 ,    8 ,  128 ,    0 ,    0 ,    0 ,  128 ,    0 ,    0 ,    0 ,    0 ,    9 ,    9 ,    0 ,    0 ,    0 ,    0 ,    0 ,  208 ,   56 ,   70 ,  212 ,   40 ,    8 ,    0 ,  173 ,   89 ,  187 ,  135 ,  123 ,  174 ,  233 ,  167 
E: 000000.361229 64 01 83 80 81 7f 00 00 06 04 00 00 00 e3 56 2a eb f7 ff ee ff 0b 00 38 00 40 1f 46 05 ad 27 46 d4 08 80 00 00 00 80 00 00 00 00 09 09 00 00 00 00 00 d0 38 46 d4 28 08 00 ad 59 bb 87 7b ae e9 a7
# ReportID: 1 / X:  131 | Y:  128 | Z:  129 | Rz:  127 | Rx:    0 | Ry:    0 | 0xff000020:    7 | Hat switch:   4 | Button: 0  0  0  0  0  0  0  0  0  0  0  0  0  0  0 | 0xff000021: 0 , 0 , 0 , 0 , 0 , 0 , 0 , 0 , 0 , 0 , 0 , 0 , 0 | 0xff000022:  228 ,   86 ,   42 ,  235 ,  247 ,  255 ,  239 ,  255 ,   12 ,    0 ,   51 ,    0 ,   72 ,   31 ,   75 ,    5 ,  161 ,   86 ,   70 ,  212 ,    8 ,  128 ,    0 ,    0 ,    0 ,  128 ,    0 ,    0 ,    0 ,    0 ,    9 ,    9 ,    0 ,    0 ,    0 ,    0 ,    0 ,  176 ,  103 ,   70 ,  212 ,   40 ,    8 ,    0 ,   76 ,  129 ,  241 ,  195 ,    3 ,   64 ,  236 ,   90 
E: 000000.365202 64 01 83 80 81 7f 00 00 07 04 00 00 00 e4 56 2a eb f7 ff ef ff 0c 00 33 00 48 1f 4b 05 a1 56 46 d4 08 80 00 00 00 80 00 00 00 00 09 09 00 00 00 00 00 b0 67 46 d4 28 08 00 4c 81 f1 c3 03 40 ec 5a
# ReportID: 1 / X:  131 | Y:  128 | Z:  129 | Rz:  127 | Rx:    0 | Ry:    0 | 0xff000020:    8 | Hat switch:   4 | Button: 0  0  0  0  0  0  0  0  0  0  0  0  0  0  0 | 0xff000021: 0 , 0 , 0 , 0 , 0 , 0 , 0 , 0 , 0 , 0 , 0 , 0 , 0 | 0xff000022:  229 ,   86 ,   42 ,  235 ,  245 ,  255 ,  244 ,  255 ,   13 ,    0 ,  228 ,  255 ,   52 ,   31 ,  159 ,    5 ,  148 ,  133 ,   70 ,  212 ,    8 ,  128 ,    0 ,    0 ,    0 ,  128 ,    0 ,    0 ,    0 ,    0 ,    9 ,    9 ,    0 ,    0 ,    0 ,    0 ,    0 ,  144 ,  150 ,   70 ,  212 ,   40 ,    8 ,    0 ,  225 ,  215 ,  233 ,  153 ,  179 ,  165 ,   96 ,  253 
E: 000000.370686 64 01 83 80 81 7f 00 00 08 04 00 00 00 e5 56 2a eb f5 ff f4 ff 0d 00 e4 ff 34 1f 9f 05 94 85 46 d4 08 80 00 00 00 80 00 00 00 00 09 09 00 00 00 00 00 90 96 46 d4 28 08 00 e1 d7 e9 99 b3 a5 60 fd
# ReportID: 1 / X:  131 | Y:  128 | Z:  129 | Rz:  127 | Rx:    0 | Ry:    0 | 0xff000020:    9 | Hat switch:   4 | Button: 0  0  0  0  0  0  0  0  0  0  0  0  0  0  0 | 0xff000021: 0 , 0 , 0 , 0 , 0 , 0 , 0 , 0 , 0 , 0 , 0 , 0 , 0 | 0xff000022:  230 ,   86 ,   42 ,  235 ,  242 ,  255 ,  245 ,  255 ,   15 ,    0 ,  134 ,    0 ,   17 ,   31 ,  198 ,    5 ,  135 ,  180 ,   70 ,  212 ,    8 ,  128 ,    0 ,    0 ,    0 ,  128 ,    0 ,    0 ,    0 ,    0 ,    9 ,    9 ,    0 ,    0 ,    0 ,    0 ,    0 ,  112 ,  197 ,   70 ,  212 ,   40 ,    8 ,    0 ,  120 ,  133 ,  163 ,  179 ,  224 ,  220 ,  142 ,  168 
E: 000000.374428 64 01 83 80 81 7f 00 00 09 04 00 00 00 e6 56 2a eb f2 ff f5 ff 0f 00 86 00 11 1f c6 05 87 b4 46 d4 08 80 00 00 00 80 00 00 00 00 09 09 00 00 00 00 00 70 c5 46 d4 28 08 00 78 85 a3 b3 e0 dc 8e a8
# ReportID: 1 / X:  131 | Y:  128 | Z:  129 | Rz:  127 | Rx:    0 | Ry:    0 | 0xff000020:   10 | Hat switch:   4 | Button: 0  0  0  0  0  0  0  0  0  0  0  0  0  0  0 | 0xff000021: 0 , 0 , 0 , 0 , 0 , 0 , 0 , 0 , 0 , 0 , 0 , 0 , 0 | 0xff000022:  231 ,   86 ,   42 ,  235 ,  243 ,  255 ,  241 ,  255 ,   13 ,    0 ,  124 ,    0 ,  120 ,   31 ,    7 ,    5 ,  122 ,  227 ,   70 ,  212 ,    8 ,  128 ,    0 ,    0 ,    0 ,  128 ,    0 ,    0 ,    0 ,    0 ,    9 ,    9 ,    0 ,    0 ,    0 ,    0 ,    0 ,   80 ,  244 ,   70 ,  212 ,   40 ,    8 ,    0 ,    2 ,   30 ,   48 ,  228 ,  223 ,  226 ,   91 ,   16 
E: 000000.377587 64 01 83 80 81 7f 00 00 0a 04 00 00 00 e7 56 2a eb f3 ff f1 ff 0d 00 7c 00 78 1f 07 05 7a e3 46 d4 08 80 00 00 00 80 00 00 00 00 09 09 00 00 00 00 00 50 f4 46 d4 28 08 00 02 1e 30 e4 df e2 5b 10
# ReportID: 1 / X:  131 | Y:  128 | Z:  129 | Rz:  127 | Rx:    0 | Ry:    0 | 0xff000020:   11 | Hat switch:   4 | Button: 0  0  0  0  0  0  0  0  0  0  0  0  0  0  0 | 0xff000021: 0 , 0 , 0 , 0 , 0 , 0 , 0 , 0 , 0 , 0 , 0 , 0 , 0 | 0xff000022:  232 ,   86 ,   42 ,  235 ,  245 ,  255 ,  241 ,  255 ,   12 ,    0 ,  204 ,  255 ,  162 ,   31 ,  134 ,    4 ,  109 ,   18 ,   71 ,  212 ,    8 ,  128 ,    0 ,    0 ,    0 ,  128 ,    0 ,    0 ,    0 ,    0 ,    9 ,    9 ,    0 ,    0 ,    0 ,    0 ,    0 ,   48 ,   35 ,   71 ,  212 ,   40 ,    8 ,    0 ,   48 ,  120 ,   99 ,   94 ,    1 ,   13 ,   43 ,  110 
E: 000000.381147 64 01 83 80 81 7f 00 00 0b 04 00 00 00 e8 56 2a eb f5 ff f1 ff 0c 00 cc ff a2 1f 86 04 6d 12 47 d4 08 80 00 00 00 80 00 00 00 00 09 09 00 00 00 00 00 30 23 47 d4 28 08 00 30 78 63 5e 01 0d 2b 6e
# ReportID: 1 / X:  131 | Y:  128 | Z:  129 | Rz:  127 | Rx:    0 | Ry:    0 | 0xff000020:   12 | Hat switch:   4 | Button: 0  0  0  0  0  0  0  0  0  0  0  0  0  0  0 | 0xff000021: 0 , 0 , 0 , 0 , 0 , 0 , 0 , 0 , 0 , 0 , 0 , 0 , 0 | 0xff000022:  233 ,   86 ,   42 ,  235 ,  247 ,  255 ,  240 ,  255 ,   11 ,    0 ,  105 ,    0 ,   95 ,   31 ,   37 ,    5 ,   96 ,   65 ,   71 ,  212 ,    8 ,  128 ,    0 ,    0 ,    0 ,  128 ,    0 ,    0 ,    0 ,    0 ,    9 ,    9 ,    0 ,    0 ,    0 ,    0 ,    0 ,   16 ,   82 ,   71 ,  212 ,   40 ,    8 ,    0 ,  127 ,  242 ,  253 ,  135 ,  177 ,  137 ,  176 ,  235 
E: 000000.386855 64 01 83 80 81 7f 00 00 0c 04 00 00 00 e9 56 2a eb f7 ff f0 ff 0b 00 69 00 5f 1f 25 05 60 41 47 d4 08 80 00 00 00 80 00 00 00 00 09 09 00 00 00 00 00 10 52 47 d4 28 08 00 7f f2 fd 87 b1 89 b0 eb
# ReportID: 1 / X:  131 | Y:  128 | Z:  130 | Rz:  127 | Rx:    0 | Ry:    0 | 0xff000020:   13 | Hat switch:   4 | Button: 0  0  0  0  0  0  0  0  0  0  0  0  0  0  0 | 0xff000021: 0 , 0 , 0 , 0 , 0 , 0 , 0 , 0 , 0 , 0 , 0 , 0 , 0 | 0xff000022:  234 ,   86 ,   42 ,  235 ,  247 ,  255 ,  239 ,  255 ,   11 ,    0 ,   53 ,    0 ,   88 ,   31 ,   36 ,    5 ,   83 ,  112 ,   71 ,  212 ,    8 ,  128 ,    0 ,    0 ,    0 ,  128 ,    0 ,    0 ,    0 ,    0 ,    9 ,    9 ,    0 ,    0 ,    0 ,    0 ,    0 ,  240 ,  128 ,   71 ,  212 ,   40 ,    8 ,    0 ,  206 ,  142 ,  243 ,   71 ,  139 ,  228 ,   64 ,   41 
E: 000000.390630 64 01 83 80 82 7f 00 00 0d 04 00 00 00 ea 56 2a eb f7 ff ef ff 0b 00 35 00 58 1f 24 05 53 70 47 d4 08 80 00 00 00 80 00 00 00 00 09 09 00 00 00 00 00 f0 80 47 d4 28 08 00 ce 8e f3 47 8b e4 40 29
# ReportID: 1 / X:  131 | Y:  128 | Z:  129 | Rz:  127 | Rx:    0 | Ry:    0 | 0xff000020:   14 | Hat switch:   4 | Button: 0  0  0  0  0  0  0  0  0  0  0  0  0  0  0 | 0xff000021: 0 , 0 , 0 , 0 , 0 , 0 , 0 , 0 , 0 , 0 , 0 , 0 , 0 | 0xff000022:  235 ,   86 ,   42 ,  235 ,  246 ,  255 ,  241 ,  255 ,   10 ,    0 ,   42 ,    0 ,   97 ,   31 ,   46 ,    5 ,   70 ,  159 ,   71 ,  212 ,    8 ,  128 ,    0 ,    0 ,    0 ,  128 ,    0 ,    0 ,    0 ,    0 ,    9 ,    9 ,    0 ,    0 ,    0 ,    0 ,    0 ,  208 ,  175 ,   71 ,  212 ,   40 ,    8 ,    0 ,  174 ,  144 ,  147 ,   44 ,   73 ,   68 ,  226 ,   93 
E: 000000.393684 64 01 83 80 81 7f 00 00 0e 04 00 00 00 eb 56 2a eb f6 ff f1 ff 0a 00 2a 00 61 1f 2e 05 46 9f 47 d4 08 80 00 00 00 80 00 00 00 00 09 09 00 00 00 00 00 d0 af 47 d4 28 08 00 ae 90 93 2c 49 44 e2 5d
# ReportID: 1 / X:  131 | Y:  128 | Z:  129 | Rz:  127 | Rx:    0 | Ry:    0 | 0xff000020:   15 | Hat switch:   4 | Button: 0  0  0  0  0  0  0  0  0  0  0  0  0  0  0 | 0xff000021: 0 , 0 , 0 , 0 , 0 , 0 , 0 , 0 , 0 , 0 , 0 , 0 , 0 | 0xff000022:  236 ,   86 ,   42 ,  235 ,  246 ,  255 ,  240 ,  255 ,   11 ,    0 ,   66 ,    0 ,   70 ,   31 ,   42 ,    5 ,   57 ,  206 ,   71 ,  212 ,    8 ,  128 ,    0 ,    0 ,    0 ,  128 ,    0 ,    0 ,    0 ,    0 ,    9 ,    9 ,    0 ,    0 ,    0 ,    0 ,    0 ,  176 ,  222 ,   71 ,  212 ,   40 ,    8 ,    0 ,   52 ,   39 ,   36 ,   94 ,  216 ,   54 ,   54 ,  197 
E: 000000.397018 64 01 83 80 81 7f 00 00 0f 04 00 00 00 ec 56 2a eb f6 ff f0 ff 0b 00 42 00 46 1f 2a 05 39 ce 47 d4 08 80 00 00 00 80 00 00 00 00 09 09 00 00 00 00 00 b0 de 47 d4 28 08 00 34 27 24 5e d8 36 36 c5
# ReportID: 1 / X:  131 | Y:  128 | Z:  129 | Rz:  127 | Rx:    0 | Ry:    0 | 0xff000020:   16 | Hat switch:   4 | Button: 0  0  0  0  0  0  0  0  0  0  0  0  0  0  0 | 0xff000021: 0 , 0 , 0 , 0 , 0 , 0 , 0 , 0 , 0 , 0 , 0 , 0 , 0 | 0xff000022:  237 ,   86 ,   42 ,  235 ,  247 ,  255 ,  239 ,  255 ,   12 ,    0 ,   81 ,    0 ,   82 ,   31 ,   41 ,    5 ,   44 ,  253 ,   71 ,  212 ,    8 ,  128 ,    0 ,    0 ,    0 ,  128 ,    0 ,    0 ,    0 ,    0 ,    9 ,    9 ,    0 ,    0 ,    0 ,    0 ,    0 ,  144 ,   13 ,   72 ,  212 ,   40 ,    8 ,    0 ,   72 ,   80 ,  187 ,  232 ,   96 ,   88 ,  124 ,  121 
E: 000000.401701 64 01 83 80 81 7f 00 00 10 04 00 00 00 ed 56 2a eb f7 ff ef ff 0c 00 51 00 52 1f 29 05 2c fd 47 d4 08 80 00 00 00 80 00 00 00 00 09 09 00 00 00 00 00 90 0d 48 d4 28 08 00 48 50 bb e8 60 58 7c 79
# ReportID: 1 / X:  131 | Y:  128 | Z:  130 | Rz:  127 | Rx:    0 | Ry:    0 | 0xff000020:   17 | Hat switch:   4 | Button: 0  0  0  0  0  0  0  0  0  0  0  0  0  0  0 | 0xff000021: 0 , 0 , 0 , 0 , 0 , 0 , 0 , 0 , 0 , 0 , 0 , 0 , 0 | 0xff000022:  238 ,   86 ,   42 ,  235 ,  246 ,  255 ,  239 ,  255 ,   10 ,    0 ,    8 ,    0 ,  116 ,   31 ,  248 ,    4 ,   31 ,   44 ,   72 ,  212 ,    8 ,  128 ,    0 ,    0 ,    0 ,  128 ,    0 ,    0 ,    0 ,    0 ,    9 ,    9 ,    0 ,    0 ,    0 ,    0 ,    0 ,  112 ,   60 ,   72 ,  212 ,   40 ,    8 ,    0 ,   55 ,  148 ,  119 ,  251 ,  209 ,   78 ,  167 ,  116 
E: 000000.406316 64 01 83 80 82 7f 00 00 11 04 00 00 00 ee 56 2a eb f6 ff ef ff 0a 00 08 00 74 1f f8 04 1f 2c 48 d4 08 80 00 00 00 80 00 00 00 00 09 09 00 00 00 00 00 70 3c 48 d4 28 08 00 37 94 77 fb d1 4e a7 74
# ReportID: 1 / X:  131 | Y:  128 | Z:  129 | Rz:  127 | Rx:    0 | Ry:    0 | 0xff000020:   18 | Hat switch:   4 | Button: 0  0  0  0  0  0  0  0  0  0  0  0  0  0  0 | 0xff000021: 0 , 0 , 0 , 0 , 0 , 0 , 0 , 0 , 0 , 0 , 0 , 0 , 0 | 0xff000022:  239 ,   86 ,   42 ,  235 ,  246 ,  255 ,  239 ,  255 ,   10 ,    0 ,   46 ,    0 ,   86 ,   31 ,   25 ,    5 ,   18 ,   91 ,   72 ,  212 ,    8 ,  128 ,    0 ,    0 ,    0 ,  128 ,    0 ,    0 ,    0 ,    0 ,    9 ,    9 ,    0 ,    0 ,    0 ,    0 ,    0 ,   80 ,  107 ,   72 ,  212 ,   40 ,    8 ,    0 ,  115 ,  173 ,  121 ,   27 ,   98 ,   91 ,  133 ,  218 
E: 000000.409324 64 01 83 80 81 7f 00 00 12 04 00 00 00 ef 56 2a eb f6 ff ef ff 0a 00 2e 00 56 1f 19 05 12 5b 48 d4 08 80 00 00 00 80 00 00 00 00 09 09 00 00 00 00 00 50 6b 48 d4 28 08 00 73 ad 79 1b 62 5b 85 da
# ReportID: 1 / X:  131 | Y:  128 | Z:  130 | Rz:  127 | Rx:    0 | Ry:    0 | 0xff000020:   19 | Hat switch:   4 | Button: 0  0  0  0  0  0  0  0  0  0  0  0  0  0  0 | 0xff000021: 0 , 0 , 0 , 0 , 0 , 0 , 0 , 0 , 0 , 0 , 0 , 0 , 0 | 0xff000022:  240 ,   86 ,   42 ,  235 ,  246 ,  255 ,  239 ,  255 ,   10 ,    0 ,   45 ,    0 ,  110 ,   31 ,   35 ,    5 ,    6 ,  138 ,   72 ,  212 ,    8 ,  128 ,    0 ,    0 ,    0 ,  128 ,    0 ,    0 ,    0 ,    0 ,    9 ,    9 ,    0 ,    0 ,    0 ,    0 ,    0 ,   48 ,  154 ,   72 ,  212 ,   40 ,    8 ,    0 ,  113 ,  145 ,  156 ,  165 ,  189 ,   23 ,  233 ,   89 
E: 000000.413442 64 01 83 80 82 7f 00 00 13 04 00 00 00 f0 56 2a eb f6 ff ef ff 0a 00 2d 00 6e 1f 23 05 06 8a 48 d4 08 80 00 00 00 80 00 00 00 00 09 09 00 00 00 00 00 30 9a 48 d4 28 08 00 71 91 9c a5 bd 17 e9 59
# ReportID: 1 / X:  131 | Y:  128 | Z:  130 | Rz:  127 | Rx:    0 | Ry:    0 | 0xff000020:   20 | Hat switch:   4 | Button: 0  0  0  0  0  0  0  0  0  0  0  0  0  0  0 | 0xff000021: 0 , 0 , 0 , 0 , 0 , 0 , 0 , 0 , 0 , 0 , 0 , 0 , 0 | 0xff000022:  241 ,   86 ,   42 ,  235 ,  246 ,  255 ,  239 ,  255 ,    9 ,    0 ,   66 ,    0 ,   97 ,   31 ,   50 ,    5 ,  249 ,  184 ,   72 ,  212 ,    8 ,  128 ,    0 ,    0 ,    0 ,  128 ,    0 ,    0 ,    0 ,    0 ,    9 ,    9 ,    0 ,    0 ,    0 ,    0 ,    0 ,   16 ,  201 ,   72 ,  212 ,   40 ,    8 ,    0 ,   53 ,   65 ,   18 ,  118 ,  109 ,   11 ,  147 ,   40 
E: 000000.418287 64 01 83 80 82 7f 00 00 14 04 00 00 00 f1 56 2a eb f6 ff ef ff 09 00 42 00 61 1f 32 05 f9 b8 48 d4 08 80 00 00 00 80 00 00 00 00 09 09 00 00 00 00 00 10 c9 48 d4 28 08 00 35 41 12 76 6d 0b 93 28
# ReportID: 1 / X:  131 | Y:  128 | Z:  129 | Rz:  127 | Rx:    0 | Ry:    0 | 0xff000020:   21 | Hat switch:   4 | Button: 0  0  0  0  0  0  0  0  0  0  0  0  0  0  0 | 0xff000021: 0 , 0 , 0 , 0 , 0 , 0 , 0 , 0 , 0 , 0 , 0 , 0 , 0 | 0xff000022:  242 ,   86 ,   42 ,  235 ,  245 ,  255 ,  239 ,  255 ,   10 ,    0 ,   56 ,    0 ,   86 ,   31 ,   58 ,    5 ,   14 ,  226 ,   72 ,  212 ,    8 ,  128 ,    0 ,    0 ,    0 ,  128 ,    0 ,    0 ,    0 ,    0 ,    9 ,    9 ,    0 ,    0 ,    0 ,    0 ,    0 ,  240 ,  247 ,   72 ,  212 ,   40 ,    8 ,    0 ,   51 ,    4 ,  193 ,   39 ,  228 ,   44 ,   72 ,  176 
E: 000000.421336 64 01 83 80 81 7f 00 00 15 04 00 00 00 f2 56 2a eb f5 ff ef ff 0a 00 38 00 56 1f 3a 05 0e e2 48 d4 08 80 00 00 00 80 00 00 00 00 09 09 00 00 00 00 00 f0 f7 48 d4 28 08 00 33 04 c1 27 e4 2c 48 b0
# ReportID: 1 / X:  131 | Y:  128 | Z:  129 | Rz:  127 | Rx:    0 | Ry:    0 | 0xff000020:   22 | Hat switch:   4 | Button: 0  0  0  0  0  0  0  0  0  0  0  0  0  0  0 | 0xff000021: 0 , 0 , 0 , 0 , 0 , 0 , 0 , 0 , 0 , 0 , 0 , 0 , 0 | 0xff000022:  243 ,   86 ,   42 ,  235 ,  245 ,  255 ,  238 ,  255 ,   10 ,    0 ,   48 ,    0 ,   74 ,   31 ,   66 ,    5 ,   34 ,   11 ,   73 ,  212 ,    8 ,  128 ,    0 ,    0 ,    0 ,  128 ,    0 ,    0 ,    0 ,    0 ,    9 ,    9 ,    0 ,    0 ,    0 ,    0 ,    0 ,  208 ,   38 ,   73 ,  212 ,   40 ,    8 ,    0 ,  127 ,   53 ,   65 ,  155 ,  207 ,  178 ,  253 ,  223 
E: 000000.425405 64 01 83 80 81 7f 00 00 16 04 00 00 00 f3 56 2a eb f5 ff ee ff 0a 00 30 00 4a 1f 42 05 22 0b 49 d4 08 80 00 00 00 80 00 00 00 00 09 09 00 00 00 00 00 d0 26 49 d4 28 08 00 7f 35 41 9b cf b2 fd df
