# Sony Interactive Entertainment DualSense Wireless Controller
# 0x05, 0x01,                    // Usage Page (Generic Desktop)        0
# 0x09, 0x05,                    // Usage (Game Pad)                    2
# 0xa1, 0x01,                    // Collection (Application)            4
# 0x85, 0x01,                    //  Report ID (1)                      6
# 0x09, 0x30,                    //  Usage (X)                          8
# 0x09, 0x31,                    //  Usage (Y)                          10
# 0x09, 0x32,                    //  Usage (Z)                          12
# 0x09, 0x35,                    //  Usage (Rz)                         14
# 0x09, 0x33,                    //  Usage (Rx)                         16
# 0x09, 0x34,                    //  Usage (Ry)                         18
# 0x15, 0x00,                    //  Logical Minimum (0)                20
# 0x26, 0xff, 0x00,              //  Logical Maximum (255)              22
# 0x75, 0x08,                    //  Report Size (8)                    25
# 0x95, 0x06,                    //  Report Count (6)                   27
# 0x81, 0x02,                    //  Input (Data,Var,Abs)               29
# 0x06, 0x00, 0xff,              //  Usage Page (Vendor Defined Page 1) 31
# 0x09, 0x20,                    //  Usage (Vendor Usage 0x20)          34
# 0x95, 0x01,                    //  Report Count (1)                   36
# 0x81, 0x02,                    //  Input (Data,Var,Abs)               38
# 0x05, 0x01,                    //  Usage Page (Generic Desktop)       40
# 0x09, 0x39,                    //  Usage (Hat switch)                 42
# 0x15, 0x00,                    //  Logical Minimum (0)                44
# 0x25, 0x07,                    //  Logical Maximum (7)                46
# 0x35, 0x00,                    //  Physical Minimum (0)               48
# 0x46, 0x3b, 0x01,              //  Physical Maximum (315)             50
# 0x65, 0x14,                    //  Unit (EnglishRotation: deg)        53
# 0x75, 0x04,                    //  Report Size (4)                    55
# 0x95, 0x01,                    //  Report Count (1)                   57
# 0x81, 0x42,                    //  Input (Data,Var,Abs,Null)          59
# 0x65, 0x00,                    //  Unit (None)                        61
# 0x05, 0x09,                    //  Usage Page (Button)                63
# 0x19, 0x01,                    //  Usage Minimum (1)                  65
# 0x29, 0x0f,                    //  Usage Maximum (15)                 67
# 0x15, 0x00,                    //  Logical Minimum (0)                69
# 0x25, 0x01,                    //  Logical Maximum (1)                71
# 0x75, 0x01,                    //  Report Size (1)                    73
# 0x95, 0x0f,                    //  Report Count (15)                  75
# 0x81, 0x02,                    //  Input (Data,Var,Abs)               77
# 0x06, 0x00, 0xff,              //  Usage Page (Vendor Defined Page 1) 79
# 0x09, 0x21,                    //  Usage (Vendor Usage 0x21)          82
# 0x95, 0x0d,                    //  Report Count (13)                  84
# 0x81, 0x02,                    //  Input (Data,Var,Abs)               86
# 0x06, 0x00, 0xff,              //  Usage Page (Vendor Defined Page 1) 88
# 0x09, 0x22,                    //  Usage (Vendor Usage 0x22)          91
# 0x15, 0x00,                    //  Logical Minimum (0)                93
# 0x26, 0xff, 0x00,              //  Logical Maximum (255)              95
# 0x75, 0x08,                    //  Report Size (8)                    98
# 0x95, 0x34,                    //  Report Count (52)                  100
# 0x81, 0x02,                    //  Input (Data,Var,Abs)               102
# 0x85, 0x02,                    //  Report ID (2)                      104
# 0x09, 0x23,                    //  Usage (Vendor Usage 0x23)          106
# 0x95, 0x2f,                    //  Report Count (47)                  108
# 0x91, 0x02,                    //  Output (Data,Var,Abs)              110
# 0x85, 0x05,                    //  Report ID (5)                      112
# 0x09, 0x33,                    //  Usage (Vendor Usage 0x33)          114
# 0x95, 0x28,                    //  Report Count (40)                  116
# 0xb1, 0x02,                    //  Feature (Data,Var,Abs)             118
# 0x85, 0x08,                    //  Report ID (8)                      120
# 0x09, 0x34,                    //  Usage (Vendor Usage 0x34)          122
# 0x95, 0x2f,                    //  Report Count (47)                  124
# 0xb1, 0x02,                    //  Feature (Data,Var,Abs)             126
# 0x85, 0x09,                    //  Report ID (9)                      128
# 0x09, 0x24,                    //  Usage (Vendor Usage 0x24)          130
# 0x95, 0x13,                    //  Report Count (19)                  132
# 0xb1, 0x02,                    //  Feature (Data,Var,Abs)             134
# 0x85, 0x0a,                    //  Report ID (10)                     136
# 0x09, 0x25,                    //  Usage (Vendor Usage 0x25)          138
# 0x95, 0x1a,                    //  Report Count (26)                  140
# 0xb1, 0x02,                    //  Feature (Data,Var,Abs)             142
# 0x85, 0x20,                    //  Report ID (32)                     144
# 0x09, 0x26,                    //  Usage (Vendor Usage 0x26)          146
# 0x95, 0x3f,                    //  Report Count (63)                  148
# 0xb1, 0x02,                    //  Feature (Data,Var,Abs)             150
# 0x85, 0x21,                    //  Report ID (33)                     152
# 0x09, 0x27,                    //  Usage (Vendor Usage 0x27)          154
# 0x95, 0x04,                    //  Report Count (4)                   156
# 0xb1, 0x02,                    //  Feature (Data,Var,Abs)             158
# 0x85, 0x22,                    //  Report ID (34)                     160
# 0x09, 0x40,                    //  Usage (Vendor Usage 0x40)          162
# 0x95, 0x3f,                    //  Report Count (63)                  164
# 0xb1, 0x02,                    //  Feature (Data,Var,Abs)             166
# 0x85, 0x80,                    //  Report ID (128)                    168
# 0x09, 0x28,                    //  Usage (Vendor Usage 0x28)          170
# 0x95, 0x3f,                    //  Report Count (63)                  172
# 0xb1, 0x02,                    //  Feature (Data,Var,Abs)             174
# 0x85, 0x81,                    //  Report ID (129)                    176
# 0x09, 0x29,                    //  Usage (Vendor Usage 0x29)          178
# 0x95, 0x3f,                    //  Report Count (63)                  180
# 0xb1, 0x02,                    //  Feature (Data,Var,Abs)             182
# 0x85, 0x82,                    //  Report ID (130)                    184
# 0x09, 0x2a,                    //  Usage (Vendor Usage 0x2a)          186
# 0x95, 0x09,                    //  Report Count (9)                   188
# 0xb1, 0x02,                    //  Feature (Data,Var,Abs)             190
# 0x85, 0x83,                    //  Report ID (131)                    192
# 0x09, 0x2b,                    //  Usage (Vendor Usage 0x2b)          194
# 0x95, 0x3f,                    //  Report Count (63)                  196
# 0xb1, 0x02,                    //  Feature (Data,Var,Abs)             198
# 0x85, 0x84,                    //  Report ID (132)                    200
# 0x09, 0x2c,                    //  Usage (Vendor Usage 0x2c)          202
# 0x95, 0x3f,                    //  Report Count (63)                  204
# 0xb1, 0x02,                    //  Feature (Data,Var,Abs)             206
# 0x85, 0x85,                    //  Report ID (133)                    208
# 0x09, 0x2d,                    //  Usage (Vendor Usage 0x2d)          210
# 0x95, 0x02,                    //  Report Count (2)                   212
# 0xb1, 0x02,                    //  Feature (Data,Var,Abs)             214
# 0x85, 0xa0,                    //  Report ID (160)                    216
# 0x09, 0x2e,                    //  Usage (Vendor Usage 0x2e)          218
# 0x95, 0x01,                    //  Report Count (1)                   220
# 0xb1, 0x02,                    //  Feature (Data,Var,Abs)             222
# 0x85, 0xe0,                    //  Report ID (224)                    224
# 0x09, 0x2f,                    //  Usage (Vendor Usage 0x2f)          226
# 0x95, 0x3f,                    //  Report Count (63)                  228
# 0xb1, 0x02,                    //  Feature (Data,Var,Abs)             230
# 0x85, 0xf0,                    //  Report ID (240)                    232
# 0x09, 0x30,                    //  Usage (Vendor Usage 0x30)          234
# 0x95, 0x3f,                    //  Report Count (63)                  236
# 0xb1, 0x02,                    //  Feature (Data,Var,Abs)             238
# 0x85, 0xf1,                    //  Report ID (241)                    240
# 0x09, 0x31,                    //  Usage (Vendor Usage 0x31)          242
# 0x95, 0x3f,                    //  Report Count (63)                  244
# 0xb1, 0x02,                    //  Feature (Data,Var,Abs)             246
# 0x85, 0xf2,                    //  Report ID (242)                    248
# 0x09, 0x32,                    //  Usage (Vendor Usage 0x32)          250
# 0x95, 0x0f,                    //  Report Count (15)                  252
# 0xb1, 0x02,                    //  Feature (Data,Var,Abs)             254
# 0x85, 0xf4,                    //  Report ID (244)                    256
# 0x09, 0x35,                    //  Usage (Vendor Usage 0x35)          258
# 0x95, 0x3f,                    //  Report Count (63)                  260
# 0xb1, 0x02,                    //  Feature (Data,Var,Abs)             262
# 0x85, 0xf5,                    //  Report ID (245)                    264
# 0x09, 0x36,                    //  Usage (Vendor Usage 0x36)          266
# 0x95, 0x03,                    //  Report Count (3)                   268
# 0xb1, 0x02,                    //  Feature (Data,Var,Abs)             270
# 0xc0,                          // End Collection                      272
# 
R: 273 05 01 09 05 a1 01 85 01 09 30 09 31 09 32 09 35 09 33 09 34 15 00 26 ff 00 75 08 95 06 81 02 06 00 ff 09 20 95 01 81 02 05 01 09 39 15 00 25 07 35 00 46 3b 01 65 14 75 04 95 01 81 42 65 00 05 09 19 01 29 0f 15 00 25 01 75 01 95 0f 81 02 06 00 ff 09 21 95 0d 81 02 06 00 ff 09 22 15 00 26 ff 00 75 08 95 34 81 02 85 02 09 23 95 2f 91 02 85 05 09 33 95 28 b1 02 85 08 09 34 95 2f b1 02 85 09 09 24 95 13 b1 02 85 0a 09 25 95 1a b1 02 85 20 09 26 95 3f b1 02 85 21 09 27 95 04 b1 02 85 22 09 40 95 3f b1 02 85 80 09 28 95 3f b1 02 85 81 09 29 95 3f b1 02 85 82 09 2a 95 09 b1 02 85 83 09 2b 95 3f b1 02 85 84 09 2c 95 3f b1 02 85 85 09 2d 95 02 b1 02 85 a0 09 2e 95 01 b1 02 85 e0 09 2f 95 3f b1 02 85 f0 09 30 95 3f b1 02 85 f1 09 31 95 3f b1 02 85 f2 09 32 95 0f b1 02 85 f4 09 35 95 3f b1 02 85 f5 09 36 95 03 b1 02 c0
N: Sony Interactive Entertainment DualSense Wireless Controller
I: 3 054c 0ce6
# ReportID: 1 / X:  131 | Y:  128 | Z:  130 | Rz:  127 | Rx:    0 | Ry:    0 | 0xff000020:  171 | Hat switch:   8 | Button: 0  0  0  0  0  0  0  0  0  0  0  0  0  0  0 | 0xff000021: 0 , 0 , 0 , 0 , 0 , 0 , 0 , 0 , 0 , 0 , 0 , 0 , 0 | 0xff000022:  136 ,   77 ,   42 ,  235 ,  247 ,  255 ,  238 ,  255 ,    9 ,    0 ,   51 ,    0 ,   97 ,   31 ,   68 ,    5 ,  141 ,  155 ,  143 ,  210 ,    8 ,  128 ,    0 ,    0 ,    0 ,  128 ,    0 ,    0 ,    0 ,    0 ,    9 ,    9 ,    0 ,    0 ,    0 ,    0 ,    0 ,   49 ,  175 ,  143 ,  210 ,   40 ,    8 ,    0 ,  124 ,  170 ,  233 ,  153 ,  162 ,   97 ,  200 ,  125 
E: 000000.000000 64 01 83 80 82 7f 00 00 ab 08 00 00 00 88 4d 2a eb f7 ff ee ff 09 00 33 00 61 1f 44 05 8d 9b 8f d2 08 80 00 00 00 80 00 00 00 00 09 09 00 00 00 00 00 31 af 8f d2 28 08 00 7c aa e9 99 a2 61 c8 7d
# ReportID: 1 / X:  131 | Y:  128 | Z:  129 | Rz:  127 | Rx:    0 | Ry:    0 | 0xff000020:  172 | Hat switch:   8 | Button: 0  0  0  0  0  0  0  0  0  0  0  0  0  0  0 | 0xff000021: 0 , 0 , 0 , 0 , 0 , 0 , 0 , 0 , 0 , 0 , 0 , 0 , 0 | 0xff000022:  137 ,   77 ,   42 ,  235 ,  248 ,  255 ,  238 ,  255 ,   12 ,    0 ,   49 ,    0 ,   94 ,   31 ,   62 ,    5 ,  128 ,  202 ,  143 ,  210 ,    8 ,  128 ,    0 ,    0 ,    0 ,  128 ,    0 ,    0 ,    0 ,    0 ,    9 ,    9 ,    0 ,    0 ,    0 ,    0 ,    0 ,   17 ,  222 ,  143 ,  210 ,   40 ,    8 ,    0 ,   79 ,    3 ,  146 ,  212 ,  120 ,  101 ,    2 ,  176 
E: 000000.000504 64 01 83 80 81 7f 00 00 ac 08 00 00 00 89 4d 2a eb f8 ff ee ff 0c 00 31 00 5e 1f 3e 05 80 ca 8f d2 08 80 00 00 00 80 00 00 00 00 09 09 00 00 00 00 00 11 de 8f d2 28 08 00 4f 03 92 d4 78 65 02 b0
# ReportID: 1 / X:  131 | Y:  128 | Z:  129 | Rz:  127 | Rx:    0 | Ry:    0 | 0xff000020:  173 | Hat switch:   8 | Button: 0  0  0  0  0  0  0  0  0  0  0  0  0  0  0 | 0xff000021: 0 , 0 , 0 , 0 , 0 , 0 , 0 , 0 , 0 , 0 , 0 , 0 , 0 | 0xff000022:  138 ,   77 ,   42 ,  235 ,  248 ,  255 ,  239 ,  255 ,   10 ,    0 ,   50 ,    0 ,  116 ,   31 ,   62 ,    5 ,  115 ,  249 ,  143 ,  210 ,    8 ,  128 ,    0 ,    0 ,    0 ,  128 ,    0 ,    0 ,    0 ,    0 ,    9 ,    9 ,    0 ,    0 ,    0 ,    0 ,    0 ,  241 ,   12 ,  144 ,  210 ,   40 ,    8 ,    0 ,   49 ,  253 ,  184 ,   24 ,   91 ,   96 ,    0 ,  241 
E: 000000.005707 64 01 83 80 81 7f 00 00 ad 08 00 00 00 8a 4d 2a eb f8 ff ef ff 0a 00 32 00 74 1f 3e 05 73 f9 8f d2 08 80 00 00 00 80 00 00 00 00 09 09 00 00 00 00 00 f1 0c 90 d2 28 08 00 31 fd b8 18 5b 60 00 f1
# ReportID: 1 / X:  131 | Y:  128 | Z:  130 | Rz:  127 | Rx:    0 | Ry:    0 | 0xff000020:  174 | Hat switch:   8 | Button: 0  0  0  0  0  0  0  0  0  0  0  0  0  0  0 | 0xff000021: 0 , 0 , 0 , 0 , 0 , 0 , 0 , 0 , 0 , 0 , 0 , 0 , 0 | 0xff000022:  139 ,   77 ,   42 ,  235 ,  246 ,  255 ,  239 ,  255 ,   10 ,    0 ,   59 ,    0 ,   92 ,   31 ,   58 ,    5 ,  103 ,   40 ,  144 ,  210 ,    8 ,  128 ,    0 ,    0 ,    0 ,  128 ,    0 ,    0 ,    0 ,    0 ,    9 ,    9 ,    0 ,    0 ,    0 ,    0 ,    0 ,  209 ,   59 ,  144 ,  210 ,   40 ,    8 ,    0 ,   76 ,  127 ,  188 ,  244 ,  110 ,  109 ,  252 ,   99 
E: 000000.008523 64 01 83 80 82 7f 00 00 ae 08 00 00 00 8b 4d 2a eb f6 ff ef ff 0a 00 3b 00 5c 1f 3a 05 67 28 90 d2 08 80 00 00 00 80 00 00 00 00 09 09 00 00 00 00 00 d1 3b 90 d2 28 08 00 4c 7f bc f4 6e 6d fc 63
# ReportID: 1 / X:  131 | Y:  128 | Z:  129 | Rz:  127 | Rx:    0 | Ry:    0 | 0xff000020:  175 | Hat switch:   8 | Button: 0  0  0  0  0  0  0  0  0  0  0  0  0  0  0 | 0xff000021: 0 , 0 , 0 , 0 , 0 , 0 , 0 , 0 , 0 , 0 , 0 , 0 , 0 | 0xff000022:  140 ,   77 ,   42 ,  235 ,  247 ,  255 ,  238 ,  255 ,   11 ,    0 ,   62 ,    0 ,   40 ,   31 ,   47 ,    5 ,   90 ,   87 ,  144 ,  210 ,    8 ,  128 ,    0 ,    0 ,    0 ,  128 ,    0 ,    0 ,    0 ,    0 ,    9 ,    9 ,    0 ,    0 ,    0 ,    0 ,    0 ,  177 ,  106 ,  144 ,  210 ,   40 ,    8 ,    0 ,   82 ,   49 ,   46 ,   77 ,  188 ,  174 ,  199 ,  223 
E: 000000.012534 64 01 83 80 81 7f 00 00 af 08 00 00 00 8c 4d 2a eb f7 ff ee ff 0b 00 3e 00 28 1f 2f 05 5a 57 90 d2 08 80 00 00 00 80 00 00 00 00 09 09 00 00 00 00 00 b1 6a 90 d2 28 08 00 52 31 2e 4d bc ae c7 df
# ReportID: 1 / X:  131 | Y:  128 | Z:  130 | Rz:  127 | Rx:    0 | Ry:    0 | 0xff000020:  176 | Hat switch:   8 | Button: 0  0  0  0  0  0  0  0  0  0  0  0  0  0  0 | 0xff000021: 0 , 0 , 0 , 0 , 0 , 0 , 0 , 0 , 0 , 0 , 0 , 0 , 0 | 0xff000022:  141 ,   77 ,   42 ,  235 ,  249 ,  255 ,  239 ,  255 ,    9 ,    0 ,   68 ,    0 ,   44 ,   31 ,   45 ,    5 ,   77 ,  134 ,  144 ,  210 ,    8 ,  128 ,    0 ,    0 ,    0 ,  128 ,    0 ,    0 ,    0 ,    0 ,    9 ,    9 ,    0 ,    0 ,    0 ,    0 ,    0 ,  145 ,  153 ,  144 ,  210 ,   40 ,    8 ,    0 ,   26 ,  106 ,  195 ,  169 ,  166 ,  105 ,  108 ,   32 
E: 000000.016937 64 01 83 80 82 7f 00 00 b0 08 00 00 00 8d 4d 2a eb f9 ff ef ff 09 00 44 00 2c 1f 2d 05 4d 86 90 d2 08 80 00 00 00 80 00 00 00 00 09 09 00 00 00 00 00 91 99 90 d2 28 08 00 1a 6a c3 a9 a6 69 6c 20
# ReportID: 1 / X:  131 | Y:  128 | Z:  130 | Rz:  127 | Rx:    0 | Ry:    0 | 0xff000020:  177 | Hat switch:   8 | Button: 0  0  0  0  0  0  0  0  0  0  0  0  0  0  0 | 0xff000021: 0 , 0 , 0 , 0 , 0 , 0 , 0 , 0 , 0 , 0 , 0 , 0 , 0 | 0xff000022:  142 ,   77 ,   42 ,  235 ,  249 ,  255 ,  240 ,  255 ,    9 ,    0 ,   68 ,    0 ,   75 ,   31 ,   50 ,    5 ,   64 ,  181 ,  144 ,  210 ,    8 ,  128 ,    0 ,    0 ,    0 ,  128 ,    0 ,    0 ,    0 ,    0 ,    9 ,    9 ,    0 ,    0 ,    0 ,    0 ,    0 ,  113 ,  200 ,  144 ,  210 ,   40 ,    8 ,    0 ,   57 ,   77 ,   32 ,  229 ,  208 ,   37 ,  136 ,   56 
E: 000000.020700 64 01 83 80 82 7f 00 00 b1 08 00 00 00 8e 4d 2a eb f9 ff f0 ff 09 00 44 00 4b 1f 32 05 40 b5 90 d2 08 80 00 00 00 80 00 00 00 00 09 09 00 00 00 00 00 71 c8 90 d2 28 08 00 39 4d 20 e5 d0 25 88 38
# ReportID: 1 / X:  131 | Y:  128 | Z:  129 | Rz:  127 | Rx:    0 | Ry:    0 | 0xff000020:  178 | Hat switch:   8 | Button: 0  0  0  0  0  0  0  0  0  0  0  0  0  0  0 | 0xff000021: 0 , 0 , 0 , 0 , 0 , 0 , 0 , 0 , 0 , 0 , 0 , 0 , 0 | 0xff000022:  143 ,   77 ,   42 ,  235 ,  249 ,  255 ,  238 ,  255 ,   10 ,    0 ,   64 ,    0 ,   84 ,   31 ,   39 ,    5 ,   51 ,  228 ,  144 ,  210 ,    8 ,  128 ,    0 ,    0 ,    0 ,  128 ,    0 ,    0 ,    0 ,    0 ,    9 ,    9 ,    0 ,    0 ,    0 ,    0 ,    0 ,   81 ,  247 ,  144 ,  210 ,   40 ,    8 ,    0 ,  187 ,  140 ,   14 ,  145 ,   40 ,  107 ,   23 ,   62 
E: 000000.024762 64 01 83 80 81 7f 00 00 b2 08 00 00 00 8f 4d 2a eb f9 ff ee ff 0a 00 40 00 54 1f 27 05 33 e4 90 d2 08 80 00 00 00 80 00 00 00 00 09 09 00 00 00 00 00 51 f7 90 d2 28 08 00 bb 8c 0e 91 28 6b 17 3e
# ReportID: 1 / X:  131 | Y:  128 | Z:  129 | Rz:  127 | Rx:    0 | Ry:    0 | 0xff000020:  179 | Hat switch:   8 | Button: 0  0  0  0  0  0  0  0  0  0  0  0  0  0  0 | 0xff000021: 0 , 0 , 0 , 0 , 0 , 0 , 0 , 0 , 0 , 0 , 0 , 0 , 0 | 0xff000022:  144 ,   77 ,   42 ,  235 ,  247 ,  255 ,  238 ,  255 ,    9 ,    0 ,   58 ,    0 ,  106 ,   31 ,   45 ,    5 ,   38 ,   19 ,  145 ,  210 ,    8 ,  128 ,    0 ,    0 ,    0 ,  128 ,    0 ,    0 ,    0 ,    0 ,    9 ,    9 ,    0 ,    0 ,    0 ,    0 ,    0 ,   49 ,   38 ,  145 ,  210 ,   40 ,    8 ,    0 ,  183 ,  233 ,  170 ,  103 ,  189 ,  246 ,   30 ,  198 
E: 000000.029770 64 01 83 80 81 7f 00 00 b3 08 00 00 00 90 4d 2a eb f7 ff ee ff 09 00 3a 00 6a 1f 2d 05 26 13 91 d2 08 80 00 00 00 80 00 00 00 00 09 09 00 00 00 00 00 31 26 91 d2 28 08 00 b7 e9 aa 67 bd f6 1e c6
# ReportID: 1 / X:  131 | Y:  128 | Z:  129 | Rz:  127 | Rx:    0 | Ry:    0 | 0xff000020:  180 | Hat switch:   8 | Button: 0  0  0  0  0  0  0  0  0  0  0  0  0  0  0 | 0xff000021: 0 , 0 , 0 , 0 , 0 , 0 , 0 , 0 , 0 , 0 , 0 , 0 , 0 | 0xff000022:  145 ,   77 ,   42 ,  235 ,  247 ,  255 ,  238 ,  255 ,   11 ,    0 ,   56 ,    0 ,  124 ,   31 ,   39 ,    5 ,   25 ,   66 ,  145 ,  210 ,    8 ,  128 ,    0 ,    0 ,    0 ,  128 ,    0 ,    0 ,    0 ,    0 ,    9 ,    9 ,    0 ,    0 ,    0 ,    0 ,    0 ,   17 ,   85 ,  145 ,  210 ,   40 ,    8 ,    0 ,    7 ,  207 ,  217 ,    1 ,   55 ,  245 ,   73 ,  152 
E: 000000.032877 64 01 83 80 81 7f 00 00 b4 08 00 00 00 91 4d 2a eb f7 ff ee ff 0b 00 38 00 7c 1f 27 05 19 42 91 d2 08 80 00 00 00 80 00 00 00 00 09 09 00 00 00 00 00 11 55 91 d2 28 08 00 07 cf d9 01 37 f5 49 98
# ReportID: 1 / X:  131 | Y:  128 | Z:  129 | Rz:  127 | Rx:    0 | Ry:    0 | 0xff000020:  181 | Hat switch:   8 | Button: 0  0  0  0  0  0  0  0  0  0  0  0  0  0  0 | 0xff000021: 0 , 0 , 0 , 0 , 0 , 0 , 0 , 0 , 0 , 0 , 0 , 0 , 0 | 0xff000022:  146 ,   77 ,   42 ,  235 ,  246 ,  255 ,  239 ,  255 ,   10 ,    0 ,   65 ,    0 ,   96 ,   31 ,   45 ,    5 ,   12 ,  113 ,  145 ,  210 ,    8 ,  128 ,    0 ,    0 ,    0 ,  128 ,    0 ,    0 ,    0 ,    0 ,    9 ,    9 ,    0 ,    0 ,    0 ,    0 ,    0 ,  241 ,  131 ,  145 ,  210 ,   40 ,    8 ,    0 ,  113 ,  158 ,  182 ,    1 ,   76 ,   80 ,  134 ,  122 
E: 000000.036889 64 01 83 80 81 7f 00 00 b5 08 00 00 00 92 4d 2a eb f6 ff ef ff 0a 00 41 00 60 1f 2d 05 0c 71 91 d2 08 80 00 00 00 80 00 00 00 00 09 09 00 00 00 00 00 f1 83 91 d2 28 08 00 71 9e b6 01 4c 50 86 7a
# ReportID: 1 / X:  131 | Y:  128 | Z:  130 | Rz:  127 | Rx:    0 | Ry:    0 | 0xff000020:  182 | Hat switch:   8 | Button: 0  0  0  0  0  0  0  0  0  0  0  0  0  0  0 | 0xff000021: 0 , 0 , 0 , 0 , 0 , 0 , 0 , 0 , 0 , 0 , 0 , 0 , 0 | 0xff000022:  147 ,   77 ,   42 ,  235 ,  247 ,  255 ,  239 ,  255 ,   10 ,    0 ,   50 ,    0 ,   84 ,   31 ,   38 ,    5 ,  255 ,  159 ,  145 ,  210 ,    8 ,  128 ,    0 ,    0 ,    0 ,  128 ,    0 ,    0 ,    0 ,    0 ,    9 ,    9 ,    0 ,    0 ,    0 ,    0 ,    0 ,  209 ,  178 ,  145 ,  210 ,   40 ,    8 ,    0 ,   18 ,   21 ,   14 ,  188 ,  209 ,  212 ,   65 ,  250 
E: 000000.041753 64 01 83 80 82 7f 00 00 b6 08 00 00 00 93 4d 2a eb f7 ff ef ff 0a 00 32 00 54 1f 26 05 ff 9f 91 d2 08 80 00 00 00 80 00 00 00 00 09 09 00 00 00 00 00 d1 b2 91 d2 28 08 00 12 15 0e bc d1 d4 41 fa
# ReportID: 1 / X:  131 | Y:  128 | Z:  129 | Rz:  127 | Rx:    0 | Ry:    0 | 0xff000020:  183 | Hat switch:   8 | Button: 0  0  0  0  0  0  0  0  0  0  0  0  0  0  0 | 0xff000021: 0 , 0 , 0 , 0 , 0 , 0 , 0 , 0 , 0 , 0 , 0 , 0 , 0 | 0xff000022:  148 ,   77 ,   42 ,  235 ,  246 ,  255 ,  238 ,  255 ,   11 ,    0 ,   58 ,    0 ,   87 ,   31 ,   38 ,    5 ,  242 ,  206 ,  145 ,  210 ,    8 ,  128 ,    0 ,    0 ,    0 ,  128 ,    0 ,    0 ,    0 ,    0 ,    9 ,    9 ,    0 ,    0 ,    0 ,    0 ,    0 ,  177 ,  225 ,  145 ,  210 ,   40 ,    8 ,    0 ,  215 ,  194 ,  155 ,   93 ,  113 ,   96 ,   42 ,  220 
E: 000000.044878 64 01 83 80 81 7f 00 00 b7 08 00 00 00 94 4d 2a eb f6 ff ee ff 0b 00 3a 00 57 1f 26 05 f2 ce 91 d2 08 80 00 00 00 80 00 00 00 00 09 09 00 00 00 00 00 b1 e1 91 d2 28 08 00 d7 c2 9b 5d 71 60 2a dc
# ReportID: 1 / X:  131 | Y:  128 | Z:  129 | Rz:  127 | Rx:    0 | Ry:    0 | 0xff000020:  184 | Hat switch:   8 | Button: 0  0  0  0  0  0  0  0  0  0  0  0  0  0  0 | 0xff000021: 0 , 0 , 0 , 0 , 0 , 0 , 0 , 0 , 0 , 0 , 0 , 0 , 0 | 0xff000022:  149 ,   77 ,   42 ,  235 ,  246 ,  255 ,  239 ,  255 ,   11 ,    0 ,   67 ,    0 ,  105 ,   31 ,   36 ,    5 ,  229 ,  253 ,  145 ,  210 ,    8 ,  128 ,    0 ,    0 ,    0 ,  128 ,    0 ,    0 ,    0 ,    0 ,    9 ,    9 ,    0 ,    0 ,    0 ,    0 ,    0 ,  145 ,   16 ,  146 ,  210 ,   40 ,    8 ,    0 ,  239 ,   41 ,   47 ,  250 ,  169 ,   37 ,  190 ,   70 
E: 000000.048931 64 01 83 80 81 7f 00 00 b8 08 00 00 00 95 4d 2a eb f6 ff ef ff 0b 00 43 00 69 1f 24 05 e5 fd 91 d2 08 80 00 00 00 80 00 00 00 00 09 09 00 00 00 00 00 91 10 92 d2 28 08 00 ef 29 2f fa a9 25 be 46
# ReportID: 1 / X:  131 | Y:  128 | Z:  129 | Rz:  127 | Rx:    0 | Ry:    0 | 0xff000020:  185 | Hat switch:   8 | Button: 0  0  0  0  0  0  0  0  0  0  0  0  0  0  0 | 0xff000021: 0 , 0 , 0 , 0 , 0 , 0 , 0 , 0 , 0 , 0 , 0 , 0 , 0 | 0xff000022:  150 ,   77 ,   42 ,  235 ,  246 ,  255 ,  238 ,  255 ,   10 ,    0 ,   59 ,    0 ,  112 ,   31 ,   47 ,    5 ,  216 ,   44 ,  146 ,  210 ,    8 ,  128 ,    0 ,    0 ,    0 ,  128 ,    0 ,    0 ,    0 ,    0 ,    9 ,    9 ,    0 ,    0 ,    0 ,    0 ,    0 ,  113 ,   63 ,  146 ,  210 ,   40 ,    8 ,    0 ,  228 ,  138 ,  115 ,   49 ,  160 ,   63 ,   54 ,   40 
E: 000000.052907 64 01 83 80 81 7f 00 00 b9 08 00 00 00 96 4d 2a eb f6 ff ee ff 0a 00 3b 00 70 1f 2f 05 d8 2c 92 d2 08 80 00 00 00 80 00 00 00 00 09 09 00 00 00 00 00 71 3f 92 d2 28 08 00 e4 8a 73 31 a0 3f 36 28
# ReportID: 1 / X:  131 | Y:  128 | Z:  129 | Rz:  127 | Rx:    0 | Ry:    0 | 0xff000020:  186 | Hat switch:   8 | Button: 0  0  0  0  0  0  0  0  0  0  0  0  0  0  0 | 0xff000021: 0 , 0 , 0 , 0 , 0 , 0 , 0 , 0 , 0 , 0 , 0 , 0 , 0 | 0xff000022:  151 ,   77 ,   42 ,  235 ,  246 ,  255 ,  238 ,  255 ,   11 ,    0 ,   49 ,    0 ,   99 ,   31 ,   44 ,    5 ,  204 ,   91 ,  146 ,  210 ,    8 ,  128 ,    0 ,    0 ,    0 ,  128 ,    0 ,    0 ,    0 ,    0 ,    9 ,    9 ,    0 ,    0 ,    0 ,    0 ,    0 ,   81 ,  110 ,  146 ,  210 ,   40 ,    8 ,    0 ,   65 ,  132 ,  153 ,  248 ,  234 ,  125 ,  141 ,  101 
E: 000000.057146 64 01 83 80 81 7f 00 00 ba 08 00 00 00 97 4d 2a eb f6 ff ee ff 0b 00 31 00 63 1f 2c 05 cc 5b 92 d2 08 80 00 00 00 80 00 00 00 00 09 09 00 00 00 00 00 51 6e 92 d2 28 08 00 41 84 99 f8 ea 7d 8d 65
# ReportID: 1 / X:  131 | Y:  128 | Z:  129 | Rz:  127 | Rx:    0 | Ry:    0 | 0xff000020:  187 | Hat switch:   8 | Button: 0  0  0  0  0  0  0  0  0  0  0  0  0  0  0 | 0xff000021: 0 , 0 , 0 , 0 , 0 , 0 , 0 , 0 , 0 , 0 , 0 , 0 , 0 | 0xff000022:  152 ,   77 ,   42 ,  235 ,  247 ,  255 ,  239 ,  255 ,    9 ,    0 ,   56 ,    0 ,   86 ,   31 ,   42 ,    5 ,  191 ,  138 ,  146 ,  210 ,    8 ,  128 ,    0 ,    0 ,    0 ,  128 ,    0 ,    0 ,    0 ,    0 ,    9 ,    9 ,    0 ,    0 ,    0 ,    0 ,    0 ,   49 ,  157 ,  146 ,  210 ,   40 ,    8 ,    0 ,   67 ,   30 ,  172 ,  215 ,   94 ,  188 ,  167 ,  111 
E: 000000.060632 64 01 83 80 81 7f 00 00 bb 08 00 00 00 98 4d 2a eb f7 ff ef ff 09 00 38 00 56 1f 2a 05 bf 8a 92 d2 08 80 00 00 00 80 00 00 00 00 09 09 00 00 00 00 00 31 9d 92 d2 28 08 00 43 1e ac d7 5e bc a7 6f
# ReportID: 1 / X:  131 | Y:  128 | Z:  129 | Rz:  127 | Rx:    0 | Ry:    0 | 0xff000020:  188 | Hat switch:   8 | Button: 0  0  0  0  0  0  0  0  0  0  0  0  0  0  0 | 0xff000021: 0 , 0 , 0 , 0 , 0 , 0 , 0 , 0 , 0 , 0 , 0 , 0 , 0 | 0xff000022:  153 ,   77 ,   42 ,  235 ,  246 ,  255 ,  239 ,  255 ,   10 ,    0 ,   54 ,    0 ,   74 ,   31 ,   39 ,    5 ,  178 ,  185 ,  146 ,  210 ,    8 ,  128 ,    0 ,    0 ,    0 ,  128 ,    0 ,    0 ,    0 ,    0 ,    9 ,    9 ,    0 ,    0 ,    0 ,    0 ,    0 ,   17 ,  204 ,  146 ,  210 ,   40 ,    8 ,    0 ,    7 ,  166 ,  118 ,  174 ,   13 ,   13 ,  221 ,  180 
E: 000000.064695 64 01 83 80 81 7f 00 00 bc 08 00 00 00 99 4d 2a eb f6 ff ef ff 0a 00 36 00 4a 1f 27 05 b2 b9 92 d2 08 80 00 00 00 80 00 00 00 00 09 09 00 00 00 00 00 11 cc 92 d2 28 08 00 07 a6 76 ae 0d 0d dd b4
# ReportID: 1 / X:  131 | Y:  128 | Z:  129 | Rz:  127 | Rx:    0 | Ry:    0 | 0xff000020:  189 | Hat switch:   8 | Button: 0  0  0  0  0  0  0  0  0  0  0  0  0  0  0 | 0xff000021: 0 , 0 , 0 , 0 , 0 , 0 , 0 , 0 , 0 , 0 , 0 , 0 , 0 | 0xff000022:  154 ,   77 ,   42 ,  235 ,  247 ,  255 ,  239 ,  255 ,   11 ,    0 ,   54 ,    0 ,   84 ,   31 ,   41 ,    5 ,  165 ,  232 ,  146 ,  210 ,    8 ,  128 ,    0 ,    0 ,    0 ,  128 ,    0 ,    0 ,    0 ,    0 ,    9 ,    9 ,    0 ,    0 ,    0 ,    0 ,    0 ,  241 ,  250 ,  146 ,  210 ,   40 ,    8 ,    0 ,   36 ,  150 ,   86 ,   56 ,  151 ,   76 ,  204 ,  149 
E: 000000.070526 64 01 83 80 81 7f 00 00 bd 08 00 00 00 9a 4d 2a eb f7 ff ef ff 0b 00 36 00 54 1f 29 05 a5 e8 92 d2 08 80 00 00 00 80 00 00 00 00 09 09 00 00 00 00 00 f1 fa 92 d2 28 08 00 24 96 56 38 97 4c cc 95
# ReportID: 1 / X:  131 | Y:  128 | Z:  130 | Rz:  127 | Rx:    0 | Ry:    0 | 0xff000020:  190 | Hat switch:   8 | Button: 0  0  0  0  0  0  0  0  0  0  0  0  0  0  0 | 0xff000021: 0 , 0 , 0 , 0 , 0 , 0 , 0 , 0 , 0 , 0 , 0 , 0 , 0 | 0xff000022:  155 ,   77 ,   42 ,  235 ,  248 ,  255 ,  238 ,  255 ,   10 ,    0 ,   55 ,    0 ,   86 ,   31 ,   44 ,    5 ,  152 ,   23 ,  147 ,  210 ,    8 ,  128 ,    0 ,    0 ,    0 ,  128 ,    0 ,    0 ,    0 ,    0 ,    9 ,    9 ,    0 ,    0 ,    0 ,    0 ,    0 ,  209 ,   41 ,  147 ,  210 ,   40 ,    8 ,    0 ,  230 ,  247 ,  103 ,   97 ,  128 ,  125 ,   57 ,  152 
E: 000000.074142 64 01 83 80 82 7f 00 00 be 08 00 00 00 9b 4d 2a eb f8 ff ee ff 0a 00 37 00 56 1f 2c 05 98 17 93 d2 08 80 00 00 00 80 00 00 00 00 09 09 00 00 00 00 00 d1 29 93 d2 28 08 00 e6 f7 67 61 80 7d 39 98
# ReportID: 1 / X:  131 | Y:  128 | Z:  130 | Rz:  127 | Rx:    0 | Ry:    0 | 0xff000020:  191 | Hat switch:   8 | Button: 0  0  0  0  0  0  0  0  0  0  0  0  0  0  0 | 0xff000021: 0 , 0 , 0 , 0 , 0 , 0 , 0 , 0 , 0 , 0 , 0 , 0 , 0 | 0xff000022:  156 ,   77 ,   42 ,  235 ,  246 ,  255 ,  238 ,  255 ,   11 ,    0 ,   50 ,    0 ,   82 ,   31 ,   42 ,    5 ,  139 ,   70 ,  147 ,  210 ,    8 ,  128 ,    0 ,    0 ,    0 ,  128 ,    0 ,    0 ,    0 ,    0 ,    9 ,    9 ,    0 ,    0 ,    0 ,    0 ,    0 ,  177 ,   88 ,  147 ,  210 ,   40 ,    8 ,    0 ,  201 ,   22 ,  157 ,  110 ,  151 ,  163 ,   11 ,  131 
E: 000000.076741 64 01 83 80 82 7f 00 00 bf 08 00 00 00 9c 4d 2a eb f6 ff ee ff 0b 00 32 00 52 1f 2a 05 8b 46 93 d2 08 80 00 00 00 80 00 00 00 00 09 09 00 00 00 00 00 b1 58 93 d2 28 08 00 c9 16 9d 6e 97 a3 0b 83
# ReportID: 1 / X:  131 | Y:  128 | Z:  129 | Rz:  127 | Rx:    0 | Ry:    0 | 0xff000020:  192 | Hat switch:   8 | Button: 0  0  0  0  0  0  0  0  0  0  0  0  0  0  0 | 0xff000021: 0 , 0 , 0 , 0 , 0 , 0 , 0 , 0 , 0 , 0 , 0 , 0 , 0 | 0xff000022:  157 ,   77 ,   42 ,  235 ,  246 ,  255 ,  237 ,  255 ,   10 ,    0 ,   51 ,    0 ,   96 ,   31 ,   41 ,    5 ,  126 ,  117 ,  147 ,  210 ,    8 ,  128 ,    0 ,    0 ,    0 ,  128 ,    0 ,    0 ,    0 ,    0 ,    9 ,    9 ,    0 ,    0 ,    0 ,    0 ,    0 ,  145 ,  135 ,  147 ,  210 ,   40 ,    8 ,    0 ,   54 ,  215 ,  192 ,  160 ,   63 ,  151 ,   62 ,  236 
E: 000000.080722 64 01 83 80 81 7f 00 00 c0 08 00 00 00 9d 4d 2a eb f6 ff ed ff 0a 00 33 00 60 1f 29 05 7e 75 93 d2 08 80 00 00 00 80 00 00 00 00 09 09 00 00 00 00 00 91 87 93 d2 28 08 00 36 d7 c0 a0 3f 97 3e ec
# ReportID: 1 / X:  131 | Y:  128 | Z:  129 | Rz:  127 | Rx:    0 | Ry:    0 | 0xff000020:  193 | Hat switch:   8 | Button: 0  0  0  0  0  0  0  0  0  0  0  0  0  0  0 | 0xff000021: 0 , 0 , 0 , 0 , 0 , 0 , 0 , 0 , 0 , 0 , 0 , 0 , 0 | 0xff000022:  158 ,   77 ,   42 ,  235 ,  247 ,  255 ,  238 ,  255 ,    9 ,    0 ,   50 ,    0 ,   91 ,   31 ,   52 ,    5 ,  113 ,  164 ,  147 ,  210 ,    8 ,  128 ,    0 ,    0 ,    0 ,  128 ,    0 ,    0 ,    0 ,    0 ,    9 ,    9 ,    0 ,    0 ,    0 ,    0 ,    0 ,  113 ,  182 ,  147 ,  210 ,   40 ,    8 ,    0 ,   60 ,  119 ,   22 ,  152 ,  231 ,  147 ,   11 ,    1 
E: 000000.084966 64 01 83 80 81 7f 00 00 c1 08 00 00 00 9e 4d 2a eb f7 ff ee ff 09 00 32 00 5b 1f 34 05 71 a4 93 d2 08 80 00 00 00 80 00 00 00 00 09 09 00 00 00 00 00 71 b6 93 d2 28 08 00 3c 77 16 98 e7 93 0b 01
# ReportID: 1 / X:  131 | Y:  128 | Z:  129 | Rz:  127 | Rx:    0 | Ry:    0 | 0xff000020:  194 | Hat switch:   8 | Button: 0  0  0  0  0  0  0  0  0  0  0  0  0  0  0 | 0xff000021: 0 , 0 , 0 , 0 , 0 , 0 , 0 , 0 , 0 , 0 , 0 , 0 , 0 | 0xff000022:  159 ,   77 ,   42 ,  235 ,  245 ,  255 ,  238 ,  255 ,   10 ,    0 ,   45 ,    0 ,   95 ,   31 ,   50 ,    5 ,  100 ,  211 ,  147 ,  210 ,    8 ,  128 ,    0 ,    0 ,    0 ,  128 ,    0 ,    0 ,    0 ,    0 ,    9 ,    9 ,    0 ,    0 ,    0 ,    0 ,    0 ,   81 ,  229 ,  147 ,  210 ,   40 ,    8 ,    0 ,   87 ,   29 ,  124 ,  159 ,   76 ,  143 ,  167 ,  248 
E: 000000.088701 64 01 83 80 81 7f 00 00 c2 08 00 00 00 9f 4d 2a eb f5 ff ee ff 0a 00 2d 00 5f 1f 32 05 64 d3 93 d2 08 80 00 00 00 80 00 00 00 00 09 09 00 00 00 00 00 51 e5 93 d2 28 08 00 57 1d 7c 9f 4c 8f a7 f8
# ReportID: 1 / X:  131 | Y:  128 | Z:  130 | Rz:  127 | Rx:    0 | Ry:    0 | 0xff000020:  195 | Hat switch:   8 | Button: 0  0  0  0  0  0  0  0  0  0  0  0  0  0  0 | 0xff000021: 0 , 0 , 0 , 0 , 0 , 0 , 0 , 0 , 0 , 0 , 0 , 0 , 0 | 0xff000022:  160 ,   77 ,   42 ,  235 ,  245 ,  255 ,  239 ,  255 ,   10 ,    0 ,   55 ,    0 ,   90 ,   31 ,   47 ,    5 ,   87 ,    2 ,  148 ,  210 ,    8 ,  128 ,    0 ,    0 ,    0 ,  128 ,    0 ,    0 ,    0 ,    0 ,    9 ,    9 ,    0 ,    0 ,    0 ,    0 ,    0 ,   49 ,   20 ,  148 ,  210 ,   40 ,    8 ,    0 ,   50 ,  141 ,  151 ,  199 ,  246 ,  230 ,   62 ,   38 
E: 000000.092870 64 01 83 80 82 7f 00 00 c3 08 00 00 00 a0 4d 2a eb f5 ff ef ff 0a 00 37 00 5a 1f 2f 05 57 02 94 d2 08 80 00 00 00 80 00 00 00 00 09 09 00 00 00 00 00 31 14 94 d2 28 08 00 32 8d 97 c7 f6 e6 3e 26
# ReportID: 1 / X:  131 | Y:  128 | Z:  129 | Rz:  127 | Rx:    0 | Ry:    0 | 0xff000020:  196 | Hat switch:   8 | Button: 0  0  0  0  0  0  0  0  0  0  0  0  0  0  0 | 0xff000021: 0 , 0 , 0 , 0 , 0 , 0 , 0 , 0 , 0 , 0 , 0 , 0 , 0 | 0xff000022:  161 ,   77 ,   42 ,  235 ,  246 ,  255 ,  239 ,  255 ,   11 ,    0 ,   49 ,    0 ,   88 ,   31 ,   50 ,    5 ,   74 ,   49 ,  148 ,  210 ,    8 ,  128 ,    0 ,    0 ,    0 ,  128 ,    0 ,    0 ,    0 ,    0 ,    9 ,    9 ,    0 ,    0 ,    0 ,    0 ,    0 ,   17 ,   67 ,  148 ,  210 ,   40 ,    8 ,    0 ,  237 ,    1 ,  244 ,  168 ,  134 ,  126 ,   90 ,   14 
E: 000000.096717 64 01 83 80 81 7f 00 00 c4 08 00 00 00 a1 4d 2a eb f6 ff ef ff 0b 00 31 00 58 1f 32 05 4a 31 94 d2 08 80 00 00 00 80 00 00 00 00 09 09 00 00 00 00 00 11 43 94 d2 28 08 00 ed 01 f4 a8 86 7e 5a 0e
# ReportID: 1 / X:  131 | Y:  128 | Z:  130 | Rz:  127 | Rx:    0 | Ry:    0 | 0xff000020:  197 | Hat switch:   8 | Button: 0  0  0  0  0  0  0  0  0  0  0  0  0  0  0 | 0xff000021: 0 , 0 , 0 , 0 , 0 , 0 , 0 , 0 , 0 , 0 , 0 , 0 , 0 | 0xff000022:  162 ,   77 ,   42 ,  235 ,  246 ,  255 ,  238 ,  255 ,    9 ,    0 ,   55 ,    0 ,   76 ,   31 ,   49 ,    5 ,   61 ,   96 ,  148 ,  210 ,    8 ,  128 ,    0 ,    0 ,    0 ,  128 ,    0 ,    0 ,    0 ,    0 ,    9 ,    9 ,    0 ,    0 ,    0 ,    0 ,    0 ,  241 ,  113 ,  148 ,  210 ,   40 ,    8 ,    0 ,   27 ,   79 ,  191 ,  158 ,  249 ,   17 ,  165 ,  122 
E: 000000.102505 64 01 83 80 82 7f 00 00 c5 08 00 00 00 a2 4d 2a eb f6 ff ee ff 09 00 37 00 4c 1f 31 05 3d 60 94 d2 08 80 00 00 00 80 00 00 00 00 09 09 00 00 00 00 00 f1 71 94 d2 28 08 00 1b 4f bf 9e f9 11 a5 7a
# ReportID: 1 / X:  131 | Y:  128 | Z:  130 | Rz:  127 | Rx:    0 | Ry:    0 | 0xff000020:  198 | Hat switch:   8 | Button: 0  0  0  0  0  0  0  0  0  0  0  0  0  0  0 | 0xff000021: 0 , 0 , 0 , 0 , 0 , 0 , 0 , 0 , 0 , 0 , 0 , 0 , 0 | 0xff000022:  163 ,   77 ,   42 ,  235 ,  247 ,  255 ,  239 ,  255 ,   10 ,    0 ,   48 ,    0 ,   88 ,   31 ,   50 ,    5 ,   49 ,  143 ,  148 ,  210 ,    8 ,  128 ,    0 ,    0 ,    0 ,  128 ,    0 ,    0 ,    0 ,    0 ,    9 ,    9 ,    0 ,    0 ,    0 ,    0 ,    0 ,  209 ,  160 ,  148 ,  210 ,   40 ,    8 ,    0 ,  226 ,  115 ,  226 ,  249 ,   60 ,  222 ,  252 ,   93 
E: 000000.105893 64 01 83 80 82 7f 00 00 c6 08 00 00 00 a3 4d 2a eb f7 ff ef ff 0a 00 30 00 58 1f 32 05 31 8f 94 d2 08 80 00 00 00 80 00 00 00 00 09 09 00 00 00 00 00 d1 a0 94 d2 28 08 00 e2 73 e2 f9 3c de fc 5d
# ReportID: 1 / X:  131 | Y:  128 | Z:  129 | Rz:  127 | Rx:    0 | Ry:    0 | 0xff000020:  199 | Hat switch:   8 | Button: 0  0  0  0  0  0  0  0  0  0  0  0  0  0  0 | 0xff000021: 0 , 0 , 0 , 0 , 0 , 0 , 0 , 0 , 0 , 0 , 0 , 0 , 0 | 0xff000022:  164 ,   77 ,   42 ,  235 ,  247 ,  255 ,  239 ,  255 ,   10 ,    0 ,   46 ,    0 ,   91 ,   31 ,   50 ,    5 ,   36 ,  190 ,  148 ,  210 ,    8 ,  128 ,    0 ,    0 ,    0 ,  128 ,    0 ,    0 ,    0 ,    0 ,    9 ,    9 ,    0 ,    0 ,    0 ,    0 ,    0 ,  177 ,  207 ,  148 ,  210 ,   40 ,    8 ,    0 ,   85 ,   64 ,  175 ,  198 ,  226 ,  133 ,   85 ,  108 
E: 000000.108914 64 01 83 80 81 7f 00 00 c7 08 00 00 00 a4 4d 2a eb f7 ff ef ff 0a 00 2e 00 5b 1f 32 05 24 be 94 d2 08 80 00 00 00 80 00 00 00 00 09 09 00 00 00 00 00 b1 cf 94 d2 28 08 00 55 40 af c6 e2 85 55 6c
# ReportID: 1 / X:  131 | Y:  128 | Z:  129 | Rz:  127 | Rx:    0 | Ry:    0 | 0xff000020:  200 | Hat switch:   8 | Button: 0  0  0  0  0  0  0  0  0  0  0  0  0  0  0 | 0xff000021: 0 , 0 , 0 , 0 , 0 , 0 , 0 , 0 , 0 , 0 , 0 , 0 , 0 | 0xff000022:  165 ,   77 ,   42 ,  235 ,  246 ,  255 ,  239 ,  255 ,   10 ,    0 ,   47 ,    0 ,   80 ,   31 ,   41 ,    5 ,   23 ,  237 ,  148 ,  210 ,    8 ,  128 ,    0 ,    0 ,    0 ,  128 ,    0 ,    0 ,    0 ,    0 ,    9 ,    9 ,    0 ,    0 ,    0 ,    0 ,    0 ,  145 ,  254 ,  148 ,  210 ,   40 ,    8 ,    0 ,  208 ,  253 ,  113 ,  197 ,   35 ,   84 ,  117 ,   37 
E: 000000.114551 64 01 83 80 81 7f 00 00 c8 08 00 00 00 a5 4d 2a eb f6 ff ef ff 0a 00 2f 00 50 1f 29 05 17 ed 94 d2 08 80 00 00 00 80 00 00 00 00 09 09 00 00 00 00 00 91 fe 94 d2 28 08 00 d0 fd 71 c5 23 54 75 25
# ReportID: 1 / X:  131 | Y:  128 | Z:  129 | Rz:  127 | Rx:    0 | Ry:    0 | 0xff000020:  201 | Hat switch:   8 | Button: 0  0  0  0  0  0  0  0  0  0  0  0  0  0  0 | 0xff000021: 0 , 0 , 0 , 0 , 0 , 0 , 0 , 0 , 0 , 0 , 0 , 0 , 0 | 0xff000022:  166 ,   77 ,   42 ,  235 ,  246 ,  255 ,  238 ,  255 ,   10 ,    0 ,   51 ,    0 ,   81 ,   31 ,   46 ,    5 ,   10 ,   28 ,  149 ,  210 ,    8 ,  128 ,    0 ,    0 ,    0 ,  128 ,    0 ,    0 ,    0 ,    0 ,    9 ,    9 ,    0 ,    0 ,    0 ,    0 ,    0 ,  113 ,   45 ,  149 ,  210 ,   40 ,    8 ,    0 ,   21 ,  208 ,  255 ,   70 ,  159 ,  164 ,   89 ,  255 
E: 000000.118207 64 01 83 80 81 7f 00 00 c9 08 00 00 00 a6 4d 2a eb f6 ff ee ff 0a 00 33 00 51 1f 2e 05 0a 1c 95 d2 08 80 00 00 00 80 00 00 00 00 09 09 00 00 00 00 00 71 2d 95 d2 28 08 00 15 d0 ff 46 9f a4 59 ff
# ReportID: 1 / X:  131 | Y:  128 | Z:  129 | Rz:  127 | Rx:    0 | Ry:    0 | 0xff000020:  202 | Hat switch:   8 | Button: 0  0  0  0  0  0  0  0  0  0  0  0  0  0  0 | 0xff000021: 0 , 0 , 0 , 0 , 0 , 0 , 0 , 0 , 0 , 0 , 0 , 0 , 0 | 0xff000022:  167 ,   77 ,   42 ,  235 ,  245 ,  255 ,  238 ,  255 ,   10 ,    0 ,   45 ,    0 ,   82 ,   31 ,   53 ,    5 ,  253 ,   74 ,  149 ,  210 ,    8 ,  128 ,    0 ,    0 ,    0 ,  128 ,    0 ,    0 ,    0 ,    0 ,    9 ,    9 ,    0 ,    0 ,    0 ,    0 ,    0 ,   81 ,   92 ,  149 ,  210 ,   40 ,    8 ,    0 ,   54 ,    2 ,  117 ,   27 ,  121 ,   84 ,  116 ,   56 
E: 000000.121661 64 01 83 80 81 7f 00 00 ca 08 00 00 00 a7 4d 2a eb f5 ff ee ff 0a 00 2d 00 52 1f 35 05 fd 4a 95 d2 08 80 00 00 00 80 00 00 00 00 09 09 00 00 00 00 00 51 5c 95 d2 28 08 00 36 02 75 1b 79 54 74 38
# ReportID: 1 / X:  131 | Y:  128 | Z:  130 | Rz:  127 | Rx:    0 | Ry:    0 | 0xff000020:  203 | Hat switch:   8 | Button: 0  0  0  0  0  0  0  0  0  0  0  0  0  0  0 | 0xff000021: 0 , 0 , 0 , 0 , 0 , 0 , 0 , 0 , 0 , 0 , 0 , 0 , 0 | 0xff000022:  168 ,   77 ,   42 ,  235 ,  247 ,  255 ,  238 ,  255 ,   10 ,    0 ,   52 ,    0 ,   95 ,   31 ,   62 ,    5 ,  240 ,  121 ,  149 ,  210 ,    8 ,  128 ,    0 ,    0 ,    0 ,  128 ,    0 ,    0 ,    0 ,    0 ,    9 ,    9 ,    0 ,    0 ,    0 ,    0 ,    0 ,   49 ,  139 ,  149 ,  210 ,   40 ,    8 ,    0 ,  166 ,  204 ,   24 ,   83 ,  223 ,   99 ,  209 ,  165 
E: 000000.125096 64 01 83 80 82 7f 00 00 cb 08 00 00 00 a8 4d 2a eb f7 ff ee ff 0a 00 34 00 5f 1f 3e 05 f0 79 95 d2 08 80 00 00 00 80 00 00 00 00 09 09 00 00 00 00 00 31 8b 95 d2 28 08 00 a6 cc 18 53 df 63 d1 a5
# ReportID: 1 / X:  131 | Y:  128 | Z:  130 | Rz:  127 | Rx:    0 | Ry:    0 | 0xff000020:  204 | Hat switch:   8 | Button: 0  0  0  0  0  0  0  0  0  0  0  0  0  0  0 | 0xff000021: 0 , 0 , 0 , 0 , 0 , 0 , 0 , 0 , 0 , 0 , 0 , 0 , 0 | 0xff000022:  169 ,   77 ,   42 ,  235 ,  246 ,  255 ,  238 ,  255 ,    9 ,    0 ,   48 ,    0 ,  110 ,   31 ,   55 ,    5 ,  227 ,  168 ,  149 ,  210 ,    8 ,  128 ,    0 ,    0 ,    0 ,  128 ,    0 ,    0 ,    0 ,    0 ,    9 ,    9 ,    0 ,    0 ,    0 ,    0 ,    0 ,   17 ,  186 ,  149 ,  210 ,   40 ,    8 ,    0 ,    0 ,   19 ,  164 ,  179 ,  224 ,   66 ,   59 ,  177 
E: 000000.128637 64 01 83 80 82 7f 00 00 cc 08 00 00 00 a9 4d 2a eb f6 ff ee ff 09 00 30 00 6e 1f 37 05 e3 a8 95 d2 08 80 00 00 00 80 00 00 00 00 09 09 00 00 00 00 00 11 ba 95 d2 28 08 00 00 13 a4 b3 e0 42 3b b1
# ReportID: 1 / X:  131 | Y:  128 | Z:  129 | Rz:  127 | Rx:    0 | Ry:    0 | 0xff000020:  205 | Hat switch:   8 | Button: 0  0  0  0  0  0  0  0  0  0  0  0  0  0  0 | 0xff000021: 0 , 0 , 0 , 0 , 0 , 0 , 0 , 0 , 0 , 0 , 0 , 0 , 0 | 0xff000022:  170 ,   77 ,   42 ,  235 ,  245 ,  255 ,  238 ,  255 ,    9 ,    0 ,   45 ,    0 ,   84 ,   31 ,   54 ,    5 ,  214 ,  215 ,  149 ,  210 ,    8 ,  128 ,    0 ,    0 ,    0 ,  128 ,    0 ,    0 ,    0 ,    0 ,    9 ,    9 ,    0 ,    0 ,    0 ,    0 ,    0 ,  241 ,  232 ,  149 ,  210 ,   40 ,    8 ,    0 ,   23 ,  173 ,  155 ,   77 ,   58 ,  109 ,  180 ,  198 
E: 000000.134265 64 01 83 80 81 7f 00 00 cd 08 00 00 00 aa 4d 2a eb f5 ff ee ff 09 00 2d 00 54 1f 36 05 d6 d7 95 d2 08 80 00 00 00 80 00 00 00 00 09 09 00 00 00 00 00 f1 e8 95 d2 28 08 00 17 ad 9b 4d 3a 6d b4 c6
# ReportID: 1 / X:  131 | Y:  128 | Z:  129 | Rz:  127 | Rx:    0 | Ry:    0 | 0xff000020:  206 | Hat switch:   8 | Button: 0  0  0  0  0  0  0  0  0  0  0  0  0  0  0 | 0xff000021: 0 , 0 , 0 , 0 , 0 , 0 , 0 , 0 , 0 , 0 , 0 , 0 , 0 | 0xff000022:  171 ,   77 ,   42 ,  235 ,  246 ,  255 ,  238 ,  255 ,   11 ,    0 ,   49 ,    0 ,   63 ,   31 ,   60 ,    5 ,  201 ,    6 ,  150 ,  210 ,    8 ,  128 ,    0 ,    0 ,    0 ,  128 ,    0 ,    0 ,    0 ,    0 ,    9 ,    9 ,    0 ,    0 ,    0 ,    0 ,    0 ,  209 ,   23 ,  150 ,  210 ,   40 ,    8 ,    0 ,   43 ,  184 ,  174 ,   98 ,  121 ,   39 ,  106 ,  125 
E: 000000.137278 64 01 83 80 81 7f 00 00 ce 08 00 00 00 ab 4d 2a eb f6 ff ee ff 0b 00 31 00 3f 1f 3c 05 c9 06 96 d2 08 80 00 00 00 80 00 00 00 00 09 09 00 00 00 00 00 d1 17 96 d2 28 08 00 2b b8 ae 62 79 27 6a 7d
# ReportID: 1 / X:  131 | Y:  128 | Z:  129 | Rz:  127 | Rx:    0 | Ry:    0 | 0xff000020:  207 | Hat switch:   8 | Button: 0  0  0  0  0  0  0  0  0  0  0  0  0  0  0 | 0xff000021: 0 , 0 , 0 , 0 , 0 , 0 , 0 , 0 , 0 , 0 , 0 , 0 , 0 | 0xff000022:  172 ,   77 ,   42 ,  235 ,  245 ,  255 ,  238 ,  255 ,   10 ,    0 ,   42 ,    0 ,   59 ,   31 ,   66 ,    5 ,  188 ,   53 ,  150 ,  210 ,    8 ,  128 ,    0 ,    0 ,    0 ,  128 ,    0 ,    0 ,    0 ,    0 ,    9 ,    9 ,    0 ,    0 ,    0 ,    0 ,    0 ,  177 ,   70 ,  150 ,  210 ,   40 ,    8 ,    0 ,  241 ,   45 ,   45 ,  163 ,   61 ,   27 ,  238 ,   89 
E: 000000.140977 64 01 83 80 81 7f 00 00 cf 08 00 00 00 ac 4d 2a eb f5 ff ee ff 0a 00 2a 00 3b 1f 42 05 bc 35 96 d2 08 80 00 00 00 80 00 00 00 00 09 09 00 00 00 00 00 b1 46 96 d2 28 08 00 f1 2d 2d a3 3d 1b ee 59
# ReportID: 1 / X:  131 | Y:  128 | Z:  129 | Rz:  127 | Rx:    0 | Ry:    0 | 0xff000020:  208 | Hat switch:   8 | Button: 0  0  0  0  0  0  0  0  0  0  0  0  0  0  0 | 0xff000021: 0 , 0 , 0 , 0 , 0 , 0 , 0 , 0 , 0 , 0 , 0 , 0 , 0 | 0xff000022:  173 ,   77 ,   42 ,  235 ,  247 ,  255 ,  238 ,  255 ,   10 ,    0 ,   43 ,    0 ,   70 ,   31 ,   72 ,    5 ,  175 ,  100 ,  150 ,  210 ,    8 ,  128 ,    0 ,    0 ,    0 ,  128 ,    0 ,    0 ,    0 ,    0 ,    9 ,    9 ,    0 ,    0 ,    0 ,    0 ,    0 ,  145 ,  117 ,  150 ,  210 ,   40 ,    8 ,    0 ,  243 ,  143 ,   12 ,   37 ,   49 ,  123 ,   89 ,   61 
E: 000000.144673 64 01 83 80 81 7f 00 00 d0 08 00 00 00 ad 4d 2a eb f7 ff ee ff 0a 00 2b 00 46 1f 48 05 af 64 96 d2 08 80 00 00 00 80 00 00 00 00 09 09 00 00 00 00 00 91 75 96 d2 28 08 00 f3 8f 0c 25 31 7b 59 3d
# ReportID: 1 / X:  131 | Y:  128 | Z:  129 | Rz:  127 | Rx:    0 | Ry:    0 | 0xff000020:  209 | Hat switch:   8 | Button: 0  0  0  0  0  0  0  0  0  0  0  0  0  0  0 | 0xff000021: 0 , 0 , 0 , 0 , 0 , 0 , 0 , 0 , 0 , 0 , 0 , 0 , 0 | 0xff000022:  174 ,   77 ,   42 ,  235 ,  246 ,  255 ,  238 ,  255 ,   10 ,    0 ,   50 ,    0 ,   76 ,   31 ,   62 ,    5 ,  162 ,  147 ,  150 ,  210 ,    8 ,  128 ,    0 ,    0 ,    0 ,  128 ,    0 ,    0 ,    0 ,    0 ,    9 ,    9 ,    0 ,    0 ,    0 ,    0 ,    0 ,  113 ,  164 ,  150 ,  210 ,   40 ,    8 ,    0 ,  241 ,  245 ,  247 ,  131 ,  187 ,   64 ,  125 ,  250 
E: 000000.149185 64 01 83 80 81 7f 00 00 d1 08 00 00 00 ae 4d 2a eb f6 ff ee ff 0a 00 32 00 4c 1f 3e 05 a2 93 96 d2 08 80 00 00 00 80 00 00 00 00 09 09 00 00 00 00 00 71 a4 96 d2 28 08 00 f1 f5 f7 83 bb 40 7d fa
# ReportID: 1 / X:  131 | Y:  128 | Z:  129 | Rz:  127 | Rx:    0 | Ry:    0 | 0xff000020:  210 | Hat switch:   8 | Button: 0  0  0  0  0  0  0  0  0  0  0  0  0  0  0 | 0xff000021: 0 , 0 , 0 , 0 , 0 , 0 , 0 , 0 , 0 , 0 , 0 , 0 , 0 | 0xff000022:  175 ,   77 ,   42 ,  235 ,  247 ,  255 ,  239 ,  255 ,   10 ,    0 ,   49 ,    0 ,   94 ,   31 ,   66 ,    5 ,  149 ,  194 ,  150 ,  210 ,    8 ,  128 ,    0 ,    0 ,    0 ,  128 ,    0 ,    0 ,    0 ,    0 ,    9 ,    9 ,    0 ,    0 ,    0 ,    0 ,    0 ,   81 ,  211 ,  150 ,  210 ,   40 ,    8 ,    0 ,   60 ,  162 ,  210 ,   38 ,  131 ,  103 ,  189 ,  239 
E: 000000.152967 64 01 83 80 81 7f 00 00 d2 08 00 00 00 af 4d 2a eb f7 ff ef ff 0a 00 31 00 5e 1f 42 05 95 c2 96 d2 08 80 00 00 00 80 00 00 00 00 09 09 00 00 00 00 00 51 d3 96 d2 28 08 00 3c a2 d2 26 83 67 bd ef
# ReportID: 1 / X:  131 | Y:  128 | Z:  130 | Rz:  127 | Rx:    0 | Ry:    0 | 0xff000020:  211 | Hat switch:   8 | Button: 0  0  0  0  0  0  0  0  0  0  0  0  0  0  0 | 0xff000021: 0 , 0 , 0 , 0 , 0 , 0 , 0 , 0 , 0 , 0 , 0 , 0 , 0 | 0xff000022:  176 ,   77 ,   42 ,  235 ,  246 ,  255 ,  238 ,  255 ,    9 ,    0 ,   48 ,    0 ,  101 ,   31 ,   60 ,    5 ,  137 ,  241 ,  150 ,  210 ,    8 ,  128 ,    0 ,    0 ,    0 ,  128 ,    0 ,    0 ,    0 ,    0 ,    9 ,    9 ,    0 ,    0 ,    0 ,    0 ,    0 ,   49 ,    2 ,  151 ,  210 ,   40 ,    8 ,    0 ,   86 ,   83 ,  128 ,    0 ,  118 ,   26 ,  187 ,  191 
E: 000000.157044 64 01 83 80 82 7f 00 00 d3 08 00 00 00 b0 4d 2a eb f6 ff ee ff 09 00 30 00 65 1f 3c 05 89 f1 96 d2 08 80 00 00 00 80 00 00 00 00 09 09 00 00 00 00 00 31 02 97 d2 28 08 00 56 53 80 00 76 1a bb bf
# ReportID: 1 / X:  131 | Y:  128 | Z:  129 | Rz:  127 | Rx:    0 | Ry:    0 | 0xff000020:  212 | Hat switch:   8 | Button: 0  0  0  0  0  0  0  0  0  0  0  0  0  0  0 | 0xff000021: 0 , 0 , 0 , 0 , 0 , 0 , 0 , 0 , 0 , 0 , 0 , 0 , 0 | 0xff000022:  177 ,   77 ,   42 ,  235 ,  247 ,  255 ,  238 ,  255 ,    9 ,    0 ,   48 ,    0 ,   72 ,   31 ,   63 ,    5 ,  124 ,   32 ,  151 ,  210 ,    8 ,  128 ,    0 ,    0 ,    0 ,  128 ,    0 ,    0 ,    0 ,    0 ,    9 ,    9 ,    0 ,    0 ,    0 ,    0 ,    0 ,   17 ,   49 ,  151 ,  210 ,   40 ,    8 ,    0 ,  192 ,  165 ,   95 ,  197 ,   70 ,   93 ,  238 ,  181 
E: 000000.161289 64 01 83 80 81 7f 00 00 d4 08 00 00 00 b1 4d 2a eb f7 ff ee ff 09 00 30 00 48 1f 3f 05 7c 20 97 d2 08 80 00 00 00 80 00 00 00 00 09 09 00 00 00 00 00 11 31 97 d2 28 08 00 c0 a5 5f c5 46 5d ee b5
# ReportID: 1 / X:  131 | Y:  128 | Z:  130 | Rz:  127 | Rx:    0 | Ry:    0 | 0xff000020:  213 | Hat switch:   8 | Button: 0  0  0  0  0  0  0  0  0  0  0  0  0  0  0 | 0xff000021: 0 , 0 , 0 , 0 , 0 , 0 , 0 , 0 , 0 , 0 , 0 , 0 , 0 | 0xff000022:  178 ,   77 ,   42 ,  235 ,  247 ,  255 ,  238 ,  255 ,   10 ,    0 ,   54 ,    0 ,   65 ,   31 ,   58 ,    5 ,  111 ,   79 ,  151 ,  210 ,    8 ,  128 ,    0 ,    0 ,    0 ,  128 ,    0 ,    0 ,    0 ,    0 ,    9 ,    9 ,    0 ,    0 ,    0 ,    0 ,    0 ,  241 ,   95 ,  151 ,  210 ,   40 ,    8 ,    0 ,  180 ,  153 ,  132 ,  156 ,  164 ,   32 ,  238 ,   53 
E: 000000.164690 64 01 83 80 82 7f 00 00 d5 08 00 00 00 b2 4d 2a eb f7 ff ee ff 0a 00 36 00 41 1f 3a 05 6f 4f 97 d2 08 80 00 00 00 80 00 00 00 00 09 09 00 00 00 00 00 f1 5f 97 d2 28 08 00 b4 99 84 9c a4 20 ee 35
# ReportID: 1 / X:  131 | Y:  128 | Z:  130 | Rz:  127 | Rx:    0 | Ry:    0 | 0xff000020:  214 | Hat switch:   8 | Button: 0  0  0  0  0  0  0  0  0  0  0  0  0  0  0 | 0xff000021: 0 , 0 , 0 , 0 , 0 , 0 , 0 , 0 , 0 , 0 , 0 , 0 , 0 | 0xff000022:  179 ,   77 ,   42 ,  235 ,  247 ,  255 ,  237 ,  255 ,   10 ,    0 ,   54 ,    0 ,   69 ,   31 ,   52 ,    5 ,   98 ,  126 ,  151 ,  210 ,    8 ,  128 ,    0 ,    0 ,    0 ,  128 ,    0 ,    0 ,    0 ,    0 ,    9 ,    9 ,    0 ,    0 ,    0 ,    0 ,    0 ,  209 ,  142 ,  151 ,  210 ,   40 ,    8 ,    0 ,  255 ,  145 ,  187 ,   38 ,  177 ,  188 ,    9 ,   52 
E: 000000.168714 64 01 83 80 82 7f 00 00 d6 08 00 00 00 b3 4d 2a eb f7 ff ed ff 0a 00 36 00 45 1f 34 05 62 7e 97 d2 08 80 00 00 00 80 00 00 00 00 09 09 00 00 00 00 00 d1 8e 97 d2 28 08 00 ff 91 bb 26 b1 bc 09 34
# ReportID: 1 / X:  131 | Y:  128 | Z:  129 | Rz:  127 | Rx:    0 | Ry:    0 | 0xff000020:  215 | Hat switch:   8 | Button: 0  0  0  0  0  0  0  0  0  0  0  0  0  0  0 | 0xff000021: 0 , 0 , 0 , 0 , 0 , 0 , 0 , 0 , 0 , 0 , 0 , 0 , 0 | 0xff000022:  180 ,   77 ,   42 ,  235 ,  247 ,  255 ,  238 ,  255 ,   10 ,    0 ,   50 ,    0 ,   81 ,   31 ,   54 ,    5 ,   85 ,  173 ,  151 ,  210 ,    8 ,  128 ,    0 ,    0 ,    0 ,  128 ,    0 ,    0 ,    0 ,    0 ,    9 ,    9 ,    0 ,    0 ,    0 ,    0 ,    0 ,  177 ,  189 ,  151 ,  210 ,   40 ,    8 ,    0 ,  251 ,   15 ,  219 ,   72 ,    4 ,   76 ,  165 ,   60 
E: 000000.173130 64 01 83 80 81 7f 00 00 d7 08 00 00 00 b4 4d 2a eb f7 ff ee ff 0a 00 32 00 51 1f 36 05 55 ad 97 d2 08 80 00 00 00 80 00 00 00 00 09 09 00 00 00 00 00 b1 bd 97 d2 28 08 00 fb 0f db 48 04 4c a5 3c
# ReportID: 1 / X:  131 | Y:  128 | Z:  129 | Rz:  127 | Rx:    0 | Ry:    0 | 0xff000020:  216 | Hat switch:   8 | Button: 0  0  0  0  0  0  0  0  0  0  0  0  0  0  0 | 0xff000021: 0 , 0 , 0 , 0 , 0 , 0 , 0 , 0 , 0 , 0 , 0 , 0 , 0 | 0xff000022:  181 ,   77 ,   42 ,  235 ,  248 ,  255 ,  238 ,  255 ,   11 ,    0 ,   49 ,    0 ,   95 ,   31 ,   45 ,    5 ,   72 ,  220 ,  151 ,  210 ,    8 ,  128 ,    0 ,    0 ,    0 ,  128 ,    0 ,    0 ,    0 ,    0 ,    9 ,    9 ,    0 ,    0 ,    0 ,    0 ,    0 ,  145 ,  236 ,  151 ,  210 ,   40 ,    8 ,    0 ,  193 ,   79 ,    8 ,   48 ,  202 ,  230 ,  207 ,  254 
E: 000000.177697 64 01 83 80 81 7f 00 00 d8 08 00 00 00 b5 4d 2a eb f8 ff ee ff 0b 00 31 00 5f 1f 2d 05 48 dc 97 d2 08 80 00 00 00 80 00 00 00 00 09 09 00 00 00 00 00 91 ec 97 d2 28 08 00 c1 4f 08 30 ca e6 cf fe
# ReportID: 1 / X:  131 | Y:  128 | Z:  129 | Rz:  127 | Rx:    0 | Ry:    0 | 0xff000020:  217 | Hat switch:   8 | Button: 0  0  0  0  0  0  0  0  0  0  0  0  0  0  0 | 0xff000021: 0 , 0 , 0 , 0 , 0 , 0 , 0 , 0 , 0 , 0 , 0 , 0 , 0 | 0xff000022:  182 ,   77 ,   42 ,  235 ,  246 ,  255 ,  237 ,  255 ,   10 ,    0 ,   43 ,    0 ,  106 ,   31 ,   50 ,    5 ,   59 ,   11 ,  152 ,  210 ,    8 ,  128 ,    0 ,    0 ,    0 ,  128 ,    0 ,    0 ,    0 ,    0 ,    9 ,    9 ,    0 ,    0 ,    0 ,    0 ,    0 ,  113 ,   27 ,  152 ,  210 ,   40 ,    8 ,    0 ,   13 ,  145 ,   32 ,  129 ,  138 ,  244 ,  175 ,    3 
E: 000000.180898 64 01 83 80 81 7f 00 00 d9 08 00 00 00 b6 4d 2a eb f6 ff ed ff 0a 00 2b 00 6a 1f 32 05 3b 0b 98 d2 08 80 00 00 00 80 00 00 00 00 09 09 00 00 00 00 00 71 1b 98 d2 28 08 00 0d 91 20 81 8a f4 af 03
# ReportID: 1 / X:  131 | Y:  128 | Z:  129 | Rz:  127 | Rx:    0 | Ry:    0 | 0xff000020:  218 | Hat switch:   8 | Button: 0  0  0  0  0  0  0  0  0  0  0  0  0  0  0 | 0xff000021: 0 , 0 , 0 , 0 , 0 , 0 , 0 , 0 , 0 , 0 , 0 , 0 , 0 | 0xff000022:  183 ,   77 ,   42 ,  235 ,  245 ,  255 ,  237 ,  255 ,   10 ,    0 ,   50 ,    0 ,   91 ,   31 ,   52 ,    5 ,   46 ,   58 ,  152 ,  210 ,    8 ,  128 ,    0 ,    0 ,    0 ,  128 ,    0 ,    0 ,    0 ,    0 ,    9 ,    9 ,    0 ,    0 ,    0 ,    0 ,    0 ,   81 ,   74 ,  152 ,  210 ,   40 ,    8 ,    0 ,   55 ,  251 ,  103 ,  168 ,   36 ,  255 ,  193 ,  248 
E: 000000.184891 64 01 83 80 81 7f 00 00 da 08 00 00 00 b7 4d 2a eb f5 ff ed ff 0a 00 32 00 5b 1f 34 05 2e 3a 98 d2 08 80 00 00 00 80 00 00 00 00 09 09 00 00 00 00 00 51 4a 98 d2 28 08 00 37 fb 67 a8 24 ff c1 f8
# ReportID: 1 / X:  131 | Y:  128 | Z:  129 | Rz:  127 | Rx:    0 | Ry:    0 | 0xff000020:  219 | Hat switch:   8 | Button: 0  0  0  0  0  0  0  0  0  0  0  0  0  0  0 | 0xff000021: 0 , 0 , 0 , 0 , 0 , 0 , 0 , 0 , 0 , 0 , 0 , 0 , 0 | 0xff000022:  184 ,   77 ,   42 ,  235 ,  247 ,  255 ,  238 ,  255 ,   10 ,    0 ,   53 ,    0 ,   74 ,   31 ,   49 ,    5 ,   33 ,  105 ,  152 ,  210 ,    8 ,  128 ,    0 ,    0 ,    0 ,  128 ,    0 ,    0 ,    0 ,    0 ,    9 ,    9 ,    0 ,    0 ,    0 ,    0 ,    0 ,   49 ,  121 ,  152 ,  210 ,   40 ,    8 ,    0 ,   66 ,  133 ,  215 ,   90 ,   47 ,  112 ,  130 ,   44 
E: 000000.189791 64 01 83 80 81 7f 00 00 db 08 00 00 00 b8 4d 2a eb f7 ff ee ff 0a 00 35 00 4a 1f 31 05 21 69 98 d2 08 80 00 00 00 80 00 00 00 00 09 09 00 00 00 00 00 31 79 98 d2 28 08 00 42 85 d7 5a 2f 70 82 2c
# ReportID: 1 / X:  131 | Y:  128 | Z:  130 | Rz:  127 | Rx:    0 | Ry:    0 | 0xff000020:  220 | Hat switch:   8 | Button: 0  0  0  0  0  0  0  0  0  0  0  0  0  0  0 | 0xff000021: 0 , 0 , 0 , 0 , 0 , 0 , 0 , 0 , 0 , 0 , 0 , 0 , 0 | 0xff000022:  185 ,   77 ,   42 ,  235 ,  247 ,  255 ,  237 ,  255 ,    9 ,    0 ,   55 ,    0 ,   78 ,   31 ,   42 ,    5 ,   20 ,  152 ,  152 ,  210 ,    8 ,  128 ,    0 ,    0 ,    0 ,  128 ,    0 ,    0 ,    0 ,    0 ,    9 ,    9 ,    0 ,    0 ,    0 ,    0 ,    0 ,   17 ,  168 ,  152 ,  210 ,   40 ,    8 ,    0 ,  196 ,  236 ,  105 ,  116 ,   58 ,  146 ,   23 ,   95 
E: 000000.192838 64 01 83 80 82 7f 00 00 dc 08 00 00 00 b9 4d 2a eb f7 ff ed ff 09 00 37 00 4e 1f 2a 05 14 98 98 d2 08 80 00 00 00 80 00 00 00 00 09 09 00 00 00 00 00 11 a8 98 d2 28 08 00 c4 ec 69 74 3a 92 17 5f
# ReportID: 1 / X:  131 | Y:  128 | Z:  129 | Rz:  127 | Rx:    0 | Ry:    0 | 0xff000020:  221 | Hat switch:   8 | Button: 0  0  0  0  0  0  0  0  0  0  0  0  0  0  0 | 0xff000021: 0 , 0 , 0 , 0 , 0 , 0 , 0 , 0 , 0 , 0 , 0 , 0 , 0 | 0xff000022:  186 ,   77 ,   42 ,  235 ,  245 ,  255 ,  237 ,  255 ,   11 ,    0 ,   64 ,    0 ,   80 ,   31 ,   41 ,    5 ,    7 ,  199 ,  152 ,  210 ,    8 ,  128 ,    0 ,    0 ,    0 ,  128 ,    0 ,    0 ,    0 ,    0 ,    9 ,    9 ,    0 ,    0 ,    0 ,    0 ,    0 ,  241 ,  214 ,  152 ,  210 ,   40 ,    8 ,    0 ,   97 ,   32 ,  211 ,   68 ,   61 ,  140 ,   35 ,  169 
E: 000000.196959 64 01 83 80 81 7f 00 00 dd 08 00 00 00 ba 4d 2a eb f5 ff ed ff 0b 00 40 00 50 1f 29 05 07 c7 98 d2 08 80 00 00 00 80 00 00 00 00 09 09 00 00 00 00 00 f1 d6 98 d2 28 08 00 61 20 d3 44 3d 8c 23 a9
# ReportID: 1 / X:  131 | Y:  128 | Z:  129 | Rz:  127 | Rx:    0 | Ry:    0 | 0xff000020:  222 | Hat switch:   8 | Button: 0  0  0  0  0  0  0  0  0  0  0  0  0  0  0 | 0xff000021: 0 , 0 , 0 , 0 , 0 , 0 , 0 , 0 , 0 , 0 , 0 , 0 , 0 | 0xff000022:  187 ,   77 ,   42 ,  235 ,  246 ,  255 ,  238 ,  255 ,   10 ,    0 ,   60 ,    0 ,   82 ,   31 ,   49 ,    5 ,  250 ,  245 ,  152 ,  210 ,    8 ,  128 ,    0 ,    0 ,    0 ,  128 ,    0 ,    0 ,    0 ,    0 ,    9 ,    9 ,    0 ,    0 ,    0 ,    0 ,    0 ,  209 ,    5 ,  153 ,  210 ,   40 ,    8 ,    0 ,   66 ,  230 ,  151 ,  203 ,  247 ,  239 ,  204 ,  113 
E: 000000.201753 64 01 83 80 81 7f 00 00 de 08 00 00 00 bb 4d 2a eb f6 ff ee ff 0a 00 3c 00 52 1f 31 05 fa f5 98 d2 08 80 00 00 00 80 00 00 00 00 09 09 00 00 00 00 00 d1 05 99 d2 28 08 00 42 e6 97 cb f7 ef cc 71
# ReportID: 1 / X:  131 | Y:  128 | Z:  130 | Rz:  127 | Rx:    0 | Ry:    0 | 0xff000020:  223 | Hat switch:   8 | Button: 0  0  0  0  0  0  0  0  0  0  0  0  0  0  0 | 0xff000021: 0 , 0 , 0 , 0 , 0 , 0 , 0 , 0 , 0 , 0 , 0 , 0 , 0 | 0xff000022:  188 ,   77 ,   42 ,  235 ,  246 ,  255 ,  239 ,  255 ,   10 ,    0 ,   59 ,    0 ,   87 ,   31 ,   50 ,    5 ,  238 ,   36 ,  153 ,  210 ,    8 ,  128 ,    0 ,    0 ,    0 ,  128 ,    0 ,    0 ,    0 ,    0 ,    9 ,    9 ,    0 ,    0 ,    0 ,    0 ,    0 ,  177 ,   52 ,  153 ,  210 ,   40 ,    8 ,    0 ,  219 ,   72 ,  239 ,   18 ,   31 ,    9 ,  121 ,  109 
E: 000000.204874 64 01 83 80 82 7f 00 00 df 08 00 00 00 bc 4d 2a eb f6 ff ef ff 0a 00 3b 00 57 1f 32 05 ee 24 99 d2 08 80 00 00 00 80 00 00 00 00 09 09 00 00 00 00 00 b1 34 99 d2 28 08 00 db 48 ef 12 1f 09 79 6d
# ReportID: 1 / X:  131 | Y:  128 | Z:  129 | Rz:  127 | Rx:    0 | Ry:    0 | 0xff000020:  224 | Hat switch:   8 | Button: 0  0  0  0  0  0  0  0  0  0  0  0  0  0  0 | 0xff000021: 0 , 0 , 0 , 0 , 0 , 0 , 0 , 0 , 0 , 0 , 0 , 0 , 0 | 0xff000022:  189 ,   77 ,   42 ,  235 ,  245 ,  255 ,  238 ,  255 ,    9 ,    0 ,   58 ,    0 ,   83 ,   31 ,   60 ,    5 ,  225 ,   83 ,  153 ,  210 ,    8 ,  128 ,    0 ,    0 ,    0 ,  128 ,    0 ,    0 ,    0 ,    0 ,    9 ,    9 ,    0 ,    0 ,    0 ,    0 ,    0 ,  145 ,   99 ,  153 ,  210 ,   40 ,    8 ,    0 ,   96 ,   77 ,   74 ,  237 ,   18 ,  186 ,  199 ,  159 
E: 000000.208833 64 01 83 80 81 7f 00 00 e0 08 00 00 00 bd 4d 2a eb f5 ff ee ff 09 00 3a 00 53 1f 3c 05 e1 53 99 d2 08 80 00 00 00 80 00 00 00 00 09 09 00 00 00 00 00 91 63 99 d2 28 08 00 60 4d 4a ed 12 ba c7 9f
# ReportID: 1 / X:  131 | Y:  128 | Z:  129 | Rz:  127 | Rx:    0 | Ry:    0 | 0xff000020:  225 | Hat switch:   8 | Button: 0  0  0  0  0  0  0  0  0  0  0  0  0  0  0 | 0xff000021: 0 , 0 , 0 , 0 , 0 , 0 , 0 , 0 , 0 , 0 , 0 , 0 , 0 | 0xff000022:  190 ,   77 ,   42 ,  235 ,  245 ,  255 ,  238 ,  255 ,   10 ,    0 ,   61 ,    0 ,   79 ,   31 ,   60 ,    5 ,  212 ,  130 ,  153 ,  210 ,    8 ,  128 ,    0 ,    0 ,    0 ,  128 ,    0 ,    0 ,    0 ,    0 ,    9 ,    9 ,    0 ,    0 ,    0 ,    0 ,    0 ,  113 ,  146 ,  153 ,  210 ,   40 ,    8 ,    0 ,  210 ,  213 ,  112 ,  208 ,   58 ,   92 ,  150 ,   90 
E: 000000.212847 64 01 83 80 81 7f 00 00 e1 08 00 00 00 be 4d 2a eb f5 ff ee ff 0a 00 3d 00 4f 1f 3c 05 d4 82 99 d2 08 80 00 00 00 80 00 00 00 00 09 09 00 00 00 00 00 71 92 99 d2 28 08 00 d2 d5 70 d0 3a 5c 96 5a
# ReportID: 1 / X:  131 | Y:  128 | Z:  129 | Rz:  127 | Rx:    0 | Ry:    0 | 0xff000020:  226 | Hat switch:   8 | Button: 0  0  0  0  0  0  0  0  0  0  0  0  0  0  0 | 0xff000021: 0 , 0 , 0 , 0 , 0 , 0 , 0 , 0 , 0 , 0 , 0 , 0 , 0 | 0xff000022:  191 ,   77 ,   42 ,  235 ,  248 ,  255 ,  238 ,  255 ,   10 ,    0 ,   57 ,    0 ,   78 ,   31 ,   65 ,    5 ,  199 ,  177 ,  153 ,  210 ,    8 ,  128 ,    0 ,    0 ,    0 ,  128 ,    0 ,    0 ,    0 ,    0 ,    9 ,    9 ,    0 ,    0 ,    0 ,    0 ,    0 ,   81 ,  193 ,  153 ,  210 ,   40 ,    8 ,    0 ,  197 ,    9 ,  102 ,   89 ,   51 ,  222 ,  151 ,  183 
E: 000000.216746 64 01 83 80 81 7f 00 00 e2 08 00 00 00 bf 4d 2a eb f8 ff ee ff 0a 00 39 00 4e 1f 41 05 c7 b1 99 d2 08 80 00 00 00 80 00 00 00 00 09 09 00 00 00 00 00 51 c1 99 d2 28 08 00 c5 09 66 59 33 de 97 b7
# ReportID: 1 / X:  131 | Y:  128 | Z:  129 | Rz:  127 | Rx:    0 | Ry:    0 | 0xff000020:  227 | Hat switch:   8 | Button: 0  0  0  0  0  0  0  0  0  0  0  0  0  0  0 | 0xff000021: 0 , 0 , 0 , 0 , 0 , 0 , 0 , 0 , 0 , 0 , 0 , 0 , 0 | 0xff000022:  192 ,   77 ,   42 ,  235 ,  247 ,  255 ,  239 ,  255 ,   10 ,    0 ,   65 ,    0 ,   82 ,   31 ,   68 ,    5 ,  186 ,  224 ,  153 ,  210 ,    8 ,  128 ,    0 ,    0 ,    0 ,  128 ,    0 ,    0 ,    0 ,    0 ,    9 ,    9 ,    0 ,    0 ,    0 ,    0 ,    0 ,   49 ,  240 ,  153 ,  210 ,   40 ,    8 ,    0 ,   11 ,  203 ,  133 ,   39 ,  138 ,  224 ,   22 ,  204 
E: 000000.220691 64 01 83 80 81 7f 00 00 e3 08 00 00 00 c0 4d 2a eb f7 ff ef ff 0a 00 41 00 52 1f 44 05 ba e0 99 d2 08 80 00 00 00 80 00 00 00 00 09 09 00 00 00 00 00 31 f0 99 d2 28 08 00 0b cb 85 27 8a e0 16 cc
# ReportID: 1 / X:  131 | Y:  128 | Z:  129 | Rz:  127 | Rx:    0 | Ry:    0 | 0xff000020:  228 | Hat switch:   8 | Button: 0  0  0  0  0  0  0  0  0  0  0  0  0  0  0 | 0xff000021: 0 , 0 , 0 , 0 , 0 , 0 , 0 , 0 , 0 , 0 , 0 , 0 , 0 | 0xff000022:  193 ,   77 ,   42 ,  235 ,  246 ,  255 ,  238 ,  255 ,    9 ,    0 ,   55 ,    0 ,   74 ,   31 ,   63 ,    5 ,  173 ,   15 ,  154 ,  210 ,    8 ,  128 ,    0 ,    0 ,    0 ,  128 ,    0 ,    0 ,    0 ,    0 ,    9 ,    9 ,    0 ,    0 ,    0 ,    0 ,    0 ,   17 ,   31 ,  154 ,  210 ,   40 ,    8 ,    0 ,    7 ,  225 ,  192 ,  187 ,  255 ,    4 ,   43 ,  248 
E: 000000.226518 64 01 83 80 81 7f 00 00 e4 08 00 00 00 c1 4d 2a eb f6 ff ee ff 09 00 37 00 4a 1f 3f 05 ad 0f 9a d2 08 80 00 00 00 80 00 00 00 00 09 09 00 00 00 00 00 11 1f 9a d2 28 08 00 07 e1 c0 bb ff 04 2b f8
# ReportID: 1 / X:  131 | Y:  128 | Z:  129 | Rz:  127 | Rx:    0 | Ry:    0 | 0xff000020:  229 | Hat switch:   8 | Button: 0  0  0  0  0  0  0  0  0  0  0  0  0  0  0 | 0xff000021: 0 , 0 , 0 , 0 , 0 , 0 , 0 , 0 , 0 , 0 , 0 , 0 , 0 | 0xff000022:  194 ,   77 ,   42 ,  235 ,  246 ,  255 ,  239 ,  255 ,   10 ,    0 ,   59 ,    0 ,   72 ,   31 ,   66 ,    5 ,  160 ,   62 ,  154 ,  210 ,    8 ,  128 ,    0 ,    0 ,    0 ,  128 ,    0 ,    0 ,    0 ,    0 ,    9 ,    9 ,    0 ,    0 ,    0 ,    0 ,    0 ,  241 ,   77 ,  154 ,  210 ,   40 ,    8 ,    0 ,  173 ,  145 ,  184 ,  222 ,  167 ,  196 ,  194 ,  170 
E: 000000.230272 64 01 83 80 81 7f 00 00 e5 08 00 00 00 c2 4d 2a eb f6 ff ef ff 0a 00 3b 00 48 1f 42 05 a0 3e 9a d2 08 80 00 00 00 80 00 00 00 00 09 09 00 00 00 00 00 f1 4d 9a d2 28 08 00 ad 91 b8 de a7 c4 c2 aa
# ReportID: 1 / X:  131 | Y:  128 | Z:  130 | Rz:  127 | Rx:    0 | Ry:    0 | 0xff000020:  230 | Hat switch:   8 | Button: 0  0  0  0  0  0  0  0  0  0  0  0  0  0  0 | 0xff000021: 0 , 0 , 0 , 0 , 0 , 0 , 0 , 0 , 0 , 0 , 0 , 0 , 0 | 0xff000022:  195 ,   77 ,   42 ,  235 ,  245 ,  255 ,  239 ,  255 ,   11 ,    0 ,   56 ,    0 ,   86 ,   31 ,   62 ,    5 ,  147 ,  109 ,  154 ,  210 ,    8 ,  128 ,    0 ,    0 ,    0 ,  128 ,    0 ,    0 ,    0 ,    0 ,    9 ,    9 ,    0 ,    0 ,    0 ,    0 ,    0 ,  209 ,  124 ,  154 ,  210 ,   40 ,    8 ,    0 ,  244 ,  219 ,   71 ,    5 ,   86 ,  177 ,   26 ,   18 
E: 000000.234066 64 01 83 80 82 7f 00 00 e6 08 00 00 00 c3 4d 2a eb f5 ff ef ff 0b 00 38 00 56 1f 3e 05 93 6d 9a d2 08 80 00 00 00 80 00 00 00 00 09 09 00 00 00 00 00 d1 7c 9a d2 28 08 00 f4 db 47 05 56 b1 1a 12
# ReportID: 1 / X:  132 | Y:  128 | Z:  130 | Rz:  127 | Rx:    0 | Ry:    0 | 0xff000020:  231 | Hat switch:   8 | Button: 0  0  0  0  0  0  0  0  0  0  0  0  0  0  0 | 0xff000021: 0 , 0 , 0 , 0 , 0 , 0 , 0 , 0 , 0 , 0 , 0 , 0 , 0 | 0xff000022:  196 ,   77 ,   42 ,  235 ,  247 ,  255 ,  238 ,  255 ,    9 ,    0 ,   52 ,    0 ,   76 ,   31 ,   65 ,    5 ,  134 ,  156 ,  154 ,  210 ,    8 ,  128 ,    0 ,    0 ,    0 ,  128 ,    0 ,    0 ,    0 ,    0 ,    9 ,    9 ,    0 ,    0 ,    0 ,    0 ,    0 ,  177 ,  171 ,  154 ,  210 ,   40 ,    8 ,    0 ,   53 ,  165 ,  234 ,  126 ,   95 ,    9 ,  232 ,    3 
E: 000000.238425 64 01 84 80 82 7f 00 00 e7 08 00 00 00 c4 4d 2a eb f7 ff ee ff 09 00 34 00 4c 1f 41 05 86 9c 9a d2 08 80 00 00 00 80 00 00 00 00 09 09 00 00 00 00 00 b1 ab 9a d2 28 08 00 35 a5 ea 7e 5f 09 e8 03
# ReportID: 1 / X:  131 | Y:  128 | Z:  129 | Rz:  127 | Rx:    0 | Ry:    0 | 0xff000020:  232 | Hat switch:   8 | Button: 0  0  0  0  0  0  0  0  0  0  0  0  0  0  0 | 0xff000021: 0 , 0 , 0 , 0 , 0 , 0 , 0 , 0 , 0 , 0 , 0 , 0 , 0 | 0xff000022:  197 ,   77 ,   42 ,  235 ,  246 ,  255 ,  239 ,  255 ,   10 ,    0 ,   57 ,    0 ,   75 ,   31 ,   57 ,    5 ,  121 ,  203 ,  154 ,  210 ,    8 ,  128 ,    0 ,    0 ,    0 ,  128 ,    0 ,    0 ,    0 ,    0 ,    9 ,    9 ,    0 ,    0 ,    0 ,    0 ,    0 ,  145 ,  218 ,  154 ,  210 ,   40 ,    8 ,    0 ,  204 ,   36 ,   75 ,   42 ,  184 ,  177 ,    5 ,  181 
E: 000000.242203 64 01 83 80 81 7f 00 00 e8 08 00 00 00 c5 4d 2a eb f6 ff ef ff 0a 00 39 00 4b 1f 39 05 79 cb 9a d2 08 80 00 00 00 80 00 00 00 00 09 09 00 00 00 00 00 91 da 9a d2 28 08 00 cc 24 4b 2a b8 b1 05 b5
# ReportID: 1 / X:  131 | Y:  128 | Z:  129 | Rz:  127 | Rx:    0 | Ry:    0 | 0xff000020:  233 | Hat switch:   8 | Button: 0  0  0  0  0  0  0  0  0  0  0  0  0  0  0 | 0xff000021: 0 , 0 , 0 , 0 , 0 , 0 , 0 , 0 , 0 , 0 , 0 , 0 , 0 | 0xff000022:  198 ,   77 ,   42 ,  235 ,  247 ,  255 ,  238 ,  255 ,   11 ,    0 ,   58 ,    0 ,   73 ,   31 ,   58 ,    5 ,  108 ,  250 ,  154 ,  210 ,    8 ,  128 ,    0 ,    0 ,    0 ,  128 ,    0 ,    0 ,    0 ,    0 ,    9 ,    9 ,    0 ,    0 ,    0 ,    0 ,    0 ,  113 ,    9 ,  155 ,  210 ,   40 ,    8 ,    0 ,   10 ,  198 ,   81 ,  102 ,    5 ,  177 ,  113 ,  169 
E: 000000.245553 64 01 83 80 81 7f 00 00 e9 08 00 00 00 c6 4d 2a eb f7 ff ee ff 0b 00 3a 00 49 1f 3a 05 6c fa 9a d2 08 80 00 00 00 80 00 00 00 00 09 09 00 00 00 00 00 71 09 9b d2 28 08 00 0a c6 51 66 05 b1 71 a9
# ReportID: 1 / X:  131 | Y:  128 | Z:  129 | Rz:  127 | Rx:    0 | Ry:    0 | 0xff000020:  234 | Hat switch:   8 | Button: 0  0  0  0  0  0  0  0  0  0  0  0  0  0  0 | 0xff000021: 0 , 0 , 0 , 0 , 0 , 0 , 0 , 0 , 0 , 0 , 0 , 0 , 0 | 0xff000022:  199 ,   77 ,   42 ,  235 ,  247 ,  255 ,  239 ,  255 ,   10 ,    0 ,   50 ,    0 ,   73 ,   31 ,   48 ,    5 ,   95 ,   41 ,  155 ,  210 ,    8 ,  128 ,    0 ,    0 ,    0 ,  128 ,    0 ,    0 ,    0 ,    0 ,    9 ,    9 ,    0 ,    0 ,    0 ,    0 ,    0 ,   81 ,   56 ,  155 ,  210 ,   40 ,    8 ,    0 ,  203 ,  128 ,  133 ,  222 ,  117 ,   20 ,   58 ,   40 
E: 000000.248731 64 01 83 80 81 7f 00 00 ea 08 00 00 00 c7 4d 2a eb f7 ff ef ff 0a 00 32 00 49 1f 30 05 5f 29 9b d2 08 80 00 00 00 80 00 00 00 00 09 09 00 00 00 00 00 51 38 9b d2 28 08 00 cb 80 85 de 75 14 3a 28
# ReportID: 1 / X:  131 | Y:  128 | Z:  129 | Rz:  127 | Rx:    0 | Ry:    0 | 0xff000020:  235 | Hat switch:   8 | Button: 0  0  0  0  0  0  0  0  0  0  0  0  0  0  0 | 0xff000021: 0 , 0 , 0 , 0 , 0 , 0 , 0 , 0 , 0 , 0 , 0 , 0 , 0 | 0xff000022:  200 ,   77 ,   42 ,  235 ,  248 ,  255 ,  238 ,  255 ,   11 ,    0 ,   45 ,    0 ,   71 ,   31 ,   48 ,    5 ,   83 ,   88 ,  155 ,  210 ,    8 ,  128 ,    0 ,    0 ,    0 ,  128 ,    0 ,    0 ,    0 ,    0 ,    9 ,    9 ,    0 ,    0 ,    0 ,    0 ,    0 ,   49 ,  103 ,  155 ,  210 ,   40 ,    8 ,    0 ,  106 ,  170 ,  232 ,   79 ,  126 ,  197 ,   16 ,  150 
E: 000000.252846 64 01 83 80 81 7f 00 00 eb 08 00 00 00 c8 4d 2a eb f8 ff ee ff 0b 00 2d 00 47 1f 30 05 53 58 9b d2 08 80 00 00 00 80 00 00 00 00 09 09 00 00 00 00 00 31 67 9b d2 28 08 00 6a aa e8 4f 7e c5 10 96
# ReportID: 1 / X:  131 | Y:  128 | Z:  129 | Rz:  127 | Rx:    0 | Ry:    0 | 0xff000020:  236 | Hat switch:   8 | Button: 0  0  0  0  0  0  0  0  0  0  0  0  0  0  0 | 0xff000021: 0 , 0 , 0 , 0 , 0 , 0 , 0 , 0 , 0 , 0 , 0 , 0 , 0 | 0xff000022:  201 ,   77 ,   42 ,  235 ,  249 ,  255 ,  238 ,  255 ,   11 ,    0 ,   45 ,    0 ,   83 ,   31 ,   48 ,    5 ,   70 ,  135 ,  155 ,  210 ,    8 ,  128 ,    0 ,    0 ,    0 ,  128 ,    0 ,    0 ,    0 ,    0 ,    9 ,    9 ,    0 ,    0 ,    0 ,    0 ,    0 ,   17 ,  150 ,  155 ,  210 ,   40 ,    8 ,    0 ,  127 ,  173 ,  235 ,  205 ,  105 ,  183 ,  150 ,   48 
E: 000000.256960 64 01 83 80 81 7f 00 00 ec 08 00 00 00 c9 4d 2a eb f9 ff ee ff 0b 00 2d 00 53 1f 30 05 46 87 9b d2 08 80 00 00 00 80 00 00 00 00 09 09 00 00 00 00 00 11 96 9b d2 28 08 00 7f ad eb cd 69 b7 96 30
# ReportID: 1 / X:  131 | Y:  128 | Z:  130 | Rz:  127 | Rx:    0 | Ry:    0 | 0xff000020:  237 | Hat switch:   8 | Button: 0  0  0  0  0  0  0  0  0  0  0  0  0  0  0 | 0xff000021: 0 , 0 , 0 , 0 , 0 , 0 , 0 , 0 , 0 , 0 , 0 , 0 , 0 | 0xff000022:  202 ,   77 ,   42 ,  235 ,  247 ,  255 ,  238 ,  255 ,    9 ,    0 ,   51 ,    0 ,   84 ,   31 ,   39 ,    5 ,   57 ,  182 ,  155 ,  210 ,    8 ,  128 ,    0 ,    0 ,    0 ,  128 ,    0 ,    0 ,    0 ,    0 ,    9 ,    9 ,    0 ,    0 ,    0 ,    0 ,    0 ,  241 ,  196 ,  155 ,  210 ,   40 ,    8 ,    0 ,  254 ,  243 ,  153 ,   98 ,  139 ,    8 ,  234 ,    5 
E: 000000.260649 64 01 83 80 82 7f 00 00 ed 08 00 00 00 ca 4d 2a eb f7 ff ee ff 09 00 33 00 54 1f 27 05 39 b6 9b d2 08 80 00 00 00 80 00 00 00 00 09 09 00 00 00 00 00 f1 c4 9b d2 28 08 00 fe f3 99 62 8b 08 ea 05
# ReportID: 1 / X:  131 | Y:  128 | Z:  130 | Rz:  127 | Rx:    0 | Ry:    0 | 0xff000020:  238 | Hat switch:   8 | Button: 0  0  0  0  0  0  0  0  0  0  0  0  0  0  0 | 0xff000021: 0 , 0 , 0 , 0 , 0 , 0 , 0 , 0 , 0 , 0 , 0 , 0 , 0 | 0xff000022:  203 ,   77 ,   42 ,  235 ,  247 ,  255 ,  238 ,  255 ,   10 ,    0 ,   42 ,    0 ,   88 ,   31 ,   45 ,    5 ,   78 ,  223 ,  155 ,  210 ,    8 ,  128 ,    0 ,    0 ,    0 ,  128 ,    0 ,    0 ,    0 ,    0 ,    9 ,    9 ,    0 ,    0 ,    0 ,    0 ,    0 ,  209 ,  243 ,  155 ,  210 ,   40 ,    8 ,    0 ,  135 ,  226 ,  215 ,   82 ,  153 ,  152 ,  227 ,  140 
E: 000000.264855 64 01 83 80 82 7f 00 00 ee 08 00 00 00 cb 4d 2a eb f7 ff ee ff 0a 00 2a 00 58 1f 2d 05 4e df 9b d2 08 80 00 00 00 80 00 00 00 00 09 09 00 00 00 00 00 d1 f3 9b d2 28 08 00 87 e2 d7 52 99 98 e3 8c
# ReportID: 1 / X:  131 | Y:  128 | Z:  129 | Rz:  127 | Rx:    0 | Ry:    0 | 0xff000020:  239 | Hat switch:   8 | Button: 0  0  0  0  0  0  0  0  0  0  0  0  0  0  0 | 0xff000021: 0 , 0 , 0 , 0 , 0 , 0 , 0 , 0 , 0 , 0 , 0 , 0 , 0 | 0xff000022:  204 ,   77 ,   42 ,  235 ,  247 ,  255 ,  238 ,  255 ,   10 ,    0 ,   41 ,    0 ,   83 ,   31 ,   44 ,    5 ,   98 ,    8 ,  156 ,  210 ,    8 ,  128 ,    0 ,    0 ,    0 ,  128 ,    0 ,    0 ,    0 ,    0 ,    9 ,    9 ,    0 ,    0 ,    0 ,    0 ,    0 ,  177 ,   34 ,  156 ,  210 ,   40 ,    8 ,    0 ,   28 ,  166 ,  238 ,   90 ,  121 ,  170 ,  117 ,   68 
E: 000000.268956 64 01 83 80 81 7f 00 00 ef 08 00 00 00 cc 4d 2a eb f7 ff ee ff 0a 00 29 00 53 1f 2c 05 62 08 9c d2 08 80 00 00 00 80 00 00 00 00 09 09 00 00 00 00 00 b1 22 9c d2 28 08 00 1c a6 ee 5a 79 aa 75 44
# ReportID: 1 / X:  131 | Y:  128 | Z:  129 | Rz:  127 | Rx:    0 | Ry:    0 | 0xff000020:  240 | Hat switch:   8 | Button: 0  0  0  0  0  0  0  0  0  0  0  0  0  0  0 | 0xff000021: 0 , 0 , 0 , 0 , 0 , 0 , 0 , 0 , 0 , 0 , 0 , 0 , 0 | 0xff000022:  205 ,   77 ,   42 ,  235 ,  247 ,  255 ,  239 ,  255 ,   11 ,    0 ,   50 ,    0 ,   96 ,   31 ,   45 ,    5 ,   85 ,   55 ,  156 ,  210 ,    8 ,  128 ,    0 ,    0 ,    0 ,  128 ,    0 ,    0 ,    0 ,    0 ,    9 ,    9 ,    0 ,    0 ,    0 ,    0 ,    0 ,  145 ,   81 ,  156 ,  210 ,   40 ,    8 ,    0 ,  198 ,  179 ,  194 ,   15 ,   80 ,   32 ,  188 ,   62 
E: 000000.273767 64 01 83 80 81 7f 00 00 f0 08 00 00 00 cd 4d 2a eb f7 ff ef ff 0b 00 32 00 60 1f 2d 05 55 37 9c d2 08 80 00 00 00 80 00 00 00 00 09 09 00 00 00 00 00 91 51 9c d2 28 08 00 c6 b3 c2 0f 50 20 bc 3e
# ReportID: 1 / X:  131 | Y:  128 | Z:  130 | Rz:  127 | Rx:    0 | Ry:    0 | 0xff000020:  241 | Hat switch:   8 | Button: 0  0  0  0  0  0  0  0  0  0  0  0  0  0  0 | 0xff000021: 0 , 0 , 0 , 0 , 0 , 0 , 0 , 0 , 0 , 0 , 0 , 0 , 0 | 0xff000022:  206 ,   77 ,   42 ,  235 ,  247 ,  255 ,  239 ,  255 ,   11 ,    0 ,   44 ,    0 ,   99 ,   31 ,   46 ,    5 ,   72 ,  102 ,  156 ,  210 ,    8 ,  128 ,    0 ,    0 ,    0 ,  128 ,    0 ,    0 ,    0 ,    0 ,    9 ,    9 ,    0 ,    0 ,    0 ,    0 ,    0 ,  113 ,  128 ,  156 ,  210 ,   40 ,    8 ,    0 ,   75 ,  113 ,  127 ,  232 ,  175 ,    1 ,   17 ,  243 
E: 000000.276821 64 01 83 80 82 7f 00 00 f1 08 00 00 00 ce 4d 2a eb f7 ff ef ff 0b 00 2c 00 63 1f 2e 05 48 66 9c d2 08 80 00 00 00 80 00 00 00 00 09 09 00 00 00 00 00 71 80 9c d2 28 08 00 4b 71 7f e8 af 01 11 f3
# ReportID: 1 / X:  131 | Y:  128 | Z:  129 | Rz:  127 | Rx:    0 | Ry:    0 | 0xff000020:  242 | Hat switch:   8 | Button: 0  0  0  0  0  0  0  0  0  0  0  0  0  0  0 | 0xff000021: 0 , 0 , 0 , 0 , 0 , 0 , 0 , 0 , 0 , 0 , 0 , 0 , 0 | 0xff000022:  207 ,   77 ,   42 ,  235 ,  245 ,  255 ,  237 ,  255 ,   11 ,    0 ,   45 ,    0 ,   96 ,   31 ,   48 ,    5 ,   59 ,  149 ,  156 ,  210 ,    8 ,  128 ,    0 ,    0 ,    0 ,  128 ,    0 ,    0 ,    0 ,    0 ,    9 ,    9 ,    0 ,    0 ,    0 ,    0 ,    0 ,   81 ,  175 ,  156 ,  210 ,   40 ,    8 ,    0 ,  210 ,   73 ,  116 ,  131 ,  121 ,    0 ,  199 ,  136 
E: 000000.280803 64 01 83 80 81 7f 00 00 f2 08 00 00 00 cf 4d 2a eb f5 ff ed ff 0b 00 2d 00 60 1f 30 05 3b 95 9c d2 08 80 00 00 00 80 00 00 00 00 09 09 00 00 00 00 00 51 af 9c d2 28 08 00 d2 49 74 83 79 00 c7 88
# ReportID: 1 / X:  131 | Y:  128 | Z:  130 | Rz:  127 | Rx:    0 | Ry:    0 | 0xff000020:  243 | Hat switch:   8 | Button: 0  0  0  0  0  0  0  0  0  0  0  0  0  0  0 | 0xff000021: 0 , 0 , 0 , 0 , 0 , 0 , 0 , 0 , 0 , 0 , 0 , 0 , 0 | 0xff000022:  208 ,   77 ,   42 ,  235 ,  247 ,  255 ,  238 ,  255 ,   10 ,    0 ,   39 ,    0 ,   91 ,   31 ,   52 ,    5 ,   46 ,  196 ,  156 ,  210 ,    8 ,  128 ,    0 ,    0 ,    0 ,  128 ,    0 ,    0 ,    0 ,    0 ,    9 ,    9 ,    0 ,    0 ,    0 ,    0 ,    0 ,   49 ,  222 ,  156 ,  210 ,   40 ,    8 ,    0 ,    5 ,  185 ,   59 ,   65 ,  248 ,   95 ,   18 ,    0 
E: 000000.284873 64 01 83 80 82 7f 00 00 f3 08 00 00 00 d0 4d 2a eb f7 ff ee ff 0a 00 27 00 5b 1f 34 05 2e c4 9c d2 08 80 00 00 00 80 00 00 00 00 09 09 00 00 00 00 00 31 de 9c d2 28 08 00 05 b9 3b 41 f8 5f 12 00
# ReportID: 1 / X:  131 | Y:  128 | Z:  129 | Rz:  127 | Rx:    0 | Ry:    0 | 0xff000020:  244 | Hat switch:   8 | Button: 0  0  0  0  0  0  0  0  0  0  0  0  0  0  0 | 0xff000021: 0 , 0 , 0 , 0 , 0 , 0 , 0 , 0 , 0 , 0 , 0 , 0 , 0 | 0xff000022:  209 ,   77 ,   42 ,  235 ,  246 ,  255 ,  238 ,  255 ,    9 ,    0 ,   50 ,    0 ,   84 ,   31 ,   47 ,    5 ,   34 ,  243 ,  156 ,  210 ,    8 ,  128 ,    0 ,    0 ,    0 ,  128 ,    0 ,    0 ,    0 ,    0 ,    9 ,    9 ,    0 ,    0 ,    0 ,    0 ,    0 ,   17 ,   13 ,  157 ,  210 ,   40 ,    8 ,    0 ,   17 ,  200 ,   50 ,  186 ,  233 ,   86 ,   64 ,   81 
E: 000000.288867 64 01 83 80 81 7f 00 00 f4 08 00 00 00 d1 4d 2a eb f6 ff ee ff 09 00 32 00 54 1f 2f 05 22 f3 9c d2 08 80 00 00 00 80 00 00 00 00 09 09 00 00 00 00 00 11 0d 9d d2 28 08 00 11 c8 32 ba e9 56 40 51
# ReportID: 1 / X:  131 | Y:  128 | Z:  129 | Rz:  127 | Rx:    0 | Ry:    0 | 0xff000020:  245 | Hat switch:   8 | Button: 0  0  0  0  0  0  0  0  0  0  0  0  0  0  0 | 0xff000021: 0 , 0 , 0 , 0 , 0 , 0 , 0 , 0 , 0 , 0 , 0 , 0 , 0 | 0xff000022:  210 ,   77 ,   42 ,  235 ,  246 ,  255 ,  238 ,  255 ,   10 ,    0 ,   55 ,    0 ,   81 ,   31 ,   50 ,    5 ,   21 ,   34 ,  157 ,  210 ,    8 ,  128 ,    0 ,    0 ,    0 ,  128 ,    0 ,    0 ,    0 ,    0 ,    9 ,    9 ,    0 ,    0 ,    0 ,    0 ,    0 ,  241 ,   59 ,  157 ,  210 ,   40 ,    8 ,    0 ,  205 ,  139 ,   92 ,   63 ,   41 ,  122 ,   33 ,   62 
E: 000000.292848 64 01 83 80 81 7f 00 00 f5 08 00 00 00 d2 4d 2a eb f6 ff ee ff 0a 00 37 00 51 1f 32 05 15 22 9d d2 08 80 00 00 00 80 00 00 00 00 09 09 00 00 00 00 00 f1 3b 9d d2 28 08 00 cd 8b 5c 3f 29 7a 21 3e
# ReportID: 1 / X:  131 | Y:  128 | Z:  130 | Rz:  127 | Rx:    0 | Ry:    0 | 0xff000020:  246 | Hat switch:   8 | Button: 0  0  0  0  0  0  0  0  0  0  0  0  0  0  0 | 0xff000021: 0 , 0 , 0 , 0 , 0 , 0 , 0 , 0 , 0 , 0 , 0 , 0 , 0 | 0xff000022:  211 ,   77 ,   42 ,  235 ,  247 ,  255 ,  238 ,  255 ,   11 ,    0 ,   63 ,    0 ,   72 ,   31 ,   55 ,    5 ,    8 ,   81 ,  157 ,  210 ,    8 ,  128 ,    0 ,    0 ,    0 ,  128 ,    0 ,    0 ,    0 ,    0 ,    9 ,    9 ,    0 ,    0 ,    0 ,    0 ,    0 ,  209 ,  106 ,  157 ,  210 ,   40 ,    8 ,    0 ,  171 ,  166 ,  102 ,  118 ,   87 ,  157 ,   24 ,   92 
E: 000000.298387 64 01 83 80 82 7f 00 00 f6 08 00 00 00 d3 4d 2a eb f7 ff ee ff 0b 00 3f 00 48 1f 37 05 08 51 9d d2 08 80 00 00 00 80 00 00 00 00 09 09 00 00 00 00 00 d1 6a 9d d2 28 08 00 ab a6 66 76 57 9d 18 5c
# ReportID: 1 / X:  131 | Y:  128 | Z:  129 | Rz:  127 | Rx:    0 | Ry:    0 | 0xff000020:  247 | Hat switch:   8 | Button: 0  0  0  0  0  0  0  0  0  0  0  0  0  0  0 | 0xff000021: 0 , 0 , 0 , 0 , 0 , 0 , 0 , 0 , 0 , 0 , 0 , 0 , 0 | 0xff000022:  212 ,   77 ,   42 ,  235 ,  247 ,  255 ,  237 ,  255 ,   10 ,    0 ,   44 ,    0 ,   66 ,   31 ,   44 ,    5 ,  251 ,  127 ,  157 ,  210 ,    8 ,  128 ,    0 ,    0 ,    0 ,  128 ,    0 ,    0 ,    0 ,    0 ,    9 ,    9 ,    0 ,    0 ,    0 ,    0 ,    0 ,  177 ,  153 ,  157 ,  210 ,   40 ,    8 ,    0 ,  120 ,  245 ,   65 ,  153 ,   97 ,  169 ,  182 ,   40 
E: 000000.302516 64 01 83 80 81 7f 00 00 f7 08 00 00 00 d4 4d 2a eb f7 ff ed ff 0a 00 2c 00 42 1f 2c 05 fb 7f 9d d2 08 80 00 00 00 80 00 00 00 00 09 09 00 00 00 00 00 b1 99 9d d2 28 08 00 78 f5 41 99 61 a9 b6 28
# ReportID: 1 / X:  131 | Y:  128 | Z:  129 | Rz:  127 | Rx:    0 | Ry:    0 | 0xff000020:  248 | Hat switch:   8 | Button: 0  0  0  0  0  0  0  0  0  0  0  0  0  0  0 | 0xff000021: 0 , 0 , 0 , 0 , 0 , 0 , 0 , 0 , 0 , 0 , 0 , 0 , 0 | 0xff000022:  213 ,   77 ,   42 ,  235 ,  246 ,  255 ,  238 ,  255 ,   10 ,    0 ,   47 ,    0 ,   98 ,   31 ,   67 ,    5 ,  238 ,  174 ,  157 ,  210 ,    8 ,  128 ,    0 ,    0 ,    0 ,  128 ,    0 ,    0 ,    0 ,    0 ,    9 ,    9 ,    0 ,    0 ,    0 ,    0 ,    0 ,  145 ,  200 ,  157 ,  210 ,   40 ,    8 ,    0 ,  126 ,  174 ,   84 ,   64 ,  136 ,  208 ,  113 ,  132 
E: 000000.306003 64 01 83 80 81 7f 00 00 f8 08 00 00 00 d5 4d 2a eb f6 ff ee ff 0a 00 2f 00 62 1f 43 05 ee ae 9d d2 08 80 00 00 00 80 00 00 00 00 09 09 00 00 00 00 00 91 c8 9d d2 28 08 00 7e ae 54 40 88 d0 71 84
# ReportID: 1 / X:  131 | Y:  128 | Z:  130 | Rz:  127 | Rx:    0 | Ry:    0 | 0xff000020:  249 | Hat switch:   8 | Button: 0  0  0  0  0  0  0  0  0  0  0  0  0  0  0 | 0xff000021: 0 , 0 , 0 , 0 , 0 , 0 , 0 , 0 , 0 , 0 , 0 , 0 , 0 | 0xff000022:  214 ,   77 ,   42 ,  235 ,  246 ,  255 ,  238 ,  255 ,   10 ,    0 ,   69 ,    0 ,   78 ,   31 ,   54 ,    5 ,  225 ,  221 ,  157 ,  210 ,    8 ,  128 ,    0 ,    0 ,    0 ,  128 ,    0 ,    0 ,    0 ,    0 ,    9 ,    9 ,    0 ,    0 ,    0 ,    0 ,    0 ,  113 ,  247 ,  157 ,  210 ,   40 ,    8 ,    0 ,  243 ,   65 ,   76 ,   42 ,  129 ,   86 ,  107 ,   28 
E: 000000.309048 64 01 83 80 82 7f 00 00 f9 08 00 00 00 d6 4d 2a eb f6 ff ee ff 0a 00 45 00 4e 1f 36 05 e1 dd 9d d2 08 80 00 00 00 80 00 00 00 00 09 09 00 00 00 00 00 71 f7 9d d2 28 08 00 f3 41 4c 2a 81 56 6b 1c
# ReportID: 1 / X:  131 | Y:  128 | Z:  130 | Rz:  127 | Rx:    0 | Ry:    0 | 0xff000020:  250 | Hat switch:   8 | Button: 0  0  0  0  0  0  0  0  0  0  0  0  0  0  0 | 0xff000021: 0 , 0 , 0 , 0 , 0 , 0 , 0 , 0 , 0 , 0 , 0 , 0 , 0 | 0xff000022:  215 ,   77 ,   42 ,  235 ,  247 ,  255 ,  238 ,  255 ,   11 ,    0 ,   53 ,    0 ,   83 ,   31 ,   62 ,    5 ,  212 ,   12 ,  158 ,  210 ,    8 ,  128 ,    0 ,    0 ,    0 ,  128 ,    0 ,    0 ,    0 ,    0 ,    9 ,    9 ,    0 ,    0 ,    0 ,    0 ,    0 ,   81 ,   38 ,  158 ,  210 ,   40 ,    8 ,    0 ,  160 ,   60 ,   39 ,  148 ,   78 ,  243 ,   66 ,  108 
E: 000000.314437 64 01 83 80 82 7f 00 00 fa 08 00 00 00 d7 4d 2a eb f7 ff ee ff 0b 00 35 00 53 1f 3e 05 d4 0c 9e d2 08 80 00 00 00 80 00 00 00 00 09 09 00 00 00 00 00 51 26 9e d2 28 08 00 a0 3c 27 94 4e f3 42 6c
# ReportID: 1 / X:  131 | Y:  128 | Z:  130 | Rz:  127 | Rx:    0 | Ry:    0 | 0xff000020:  251 | Hat switch:   8 | Button: 0  0  0  0  0  0  0  0  0  0  0  0  0  0  0 | 0xff000021: 0 , 0 , 0 , 0 , 0 , 0 , 0 , 0 , 0 , 0 , 0 , 0 , 0 | 0xff000022:  216 ,   77 ,   42 ,  235 ,  247 ,  255 ,  239 ,  255 ,   11 ,    0 ,   52 ,    0 ,   78 ,   31 ,   57 ,    5 ,  199 ,   59 ,  158 ,  210 ,    8 ,  128 ,    0 ,    0 ,    0 ,  128 ,    0 ,    0 ,    0 ,    0 ,    9 ,    9 ,    0 ,    0 ,    0 ,    0 ,    0 ,   49 ,   85 ,  158 ,  210 ,   40 ,    8 ,    0 ,  113 ,  209 ,  222 ,   59 ,  102 ,    7 ,   80 ,  206 
E: 000000.318147 64 01 83 80 82 7f 00 00 fb 08 00 00 00 d8 4d 2a eb f7 ff ef ff 0b 00 34 00 4e 1f 39 05 c7 3b 9e d2 08 80 00 00 00 80 00 00 00 00 09 09 00 00 00 00 00 31 55 9e d2 28 08 00 71 d1 de 3b 66 07 50 ce
# ReportID: 1 / X:  131 | Y:  128 | Z:  130 | Rz:  127 | Rx:    0 | Ry:    0 | 0xff000020:  252 | Hat switch:   8 | Button: 0  0  0  0  0  0  0  0  0  0  0  0  0  0  0 | 0xff000021: 0 , 0 , 0 , 0 , 0 , 0 , 0 , 0 , 0 , 0 , 0 , 0 , 0 | 0xff000022:  217 ,   77 ,   42 ,  235 ,  247 ,  255 ,  237 ,  255 ,   11 ,    0 ,   64 ,    0 ,   80 ,   31 ,   52 ,    5 ,  186 ,  106 ,  158 ,  210 ,    8 ,  128 ,    0 ,    0 ,    0 ,  128 ,    0 ,    0 ,    0 ,    0 ,    9 ,    9 ,    0 ,    0 ,    0 ,    0 ,    0 ,   17 ,  132 ,  158 ,  210 ,   40 ,    8 ,    0 ,  138 ,  119 ,  204 ,   14 ,  178 ,   19 ,  210 ,   19 
E: 000000.321594 64 01 83 80 82 7f 00 00 fc 08 00 00 00 d9 4d 2a eb f7 ff ed ff 0b 00 40 00 50 1f 34 05 ba 6a 9e d2 08 80 00 00 00 80 00 00 00 00 09 09 00 00 00 00 00 11 84 9e d2 28 08 00 8a 77 cc 0e b2 13 d2 13
# ReportID: 1 / X:  131 | Y:  128 | Z:  129 | Rz:  127 | Rx:    0 | Ry:    0 | 0xff000020:  253 | Hat switch:   8 | Button: 0  0  0  0  0  0  0  0  0  0  0  0  0  0  0 | 0xff000021: 0 , 0 , 0 , 0 , 0 , 0 , 0 , 0 , 0 , 0 , 0 , 0 , 0 | 0xff000022:  218 ,   77 ,   42 ,  235 ,  246 ,  255 ,  239 ,  255 ,    9 ,    0 ,   64 ,    0 ,  105 ,   31 ,   58 ,    5 ,  173 ,  153 ,  158 ,  210 ,    8 ,  128 ,    0 ,    0 ,    0 ,  128 ,    0 ,    0 ,    0 ,    0 ,    9 ,    9 ,    0 ,    0 ,    0 ,    0 ,    0 ,  255 ,  178 ,  158 ,  210 ,   40 ,    8 ,    0 ,  125 ,  137 ,   39 ,   35 ,  244 ,  129 ,  199 ,   66 
E: 000000.325381 64 01 83 80 81 7f 00 00 fd 08 00 00 00 da 4d 2a eb f6 ff ef ff 09 00 40 00 69 1f 3a 05 ad 99 9e d2 08 80 00 00 00 80 00 00 00 00 09 09 00 00 00 00 00 ff b2 9e d2 28 08 00 7d 89 27 23 f4 81 c7 42
# ReportID: 1 / X:  131 | Y:  128 | Z:  129 | Rz:  127 | Rx:    0 | Ry:    0 | 0xff000020:  254 | Hat switch:   8 | Button: 0  0  0  0  0  0  0  0  0  0  0  0  0  0  0 | 0xff000021: 0 , 0 , 0 , 0 , 0 , 0 , 0 , 0 , 0 , 0 , 0 , 0 , 0 | 0xff000022:  219 ,   77 ,   42 ,  235 ,  247 ,  255 ,  238 ,  255 ,   11 ,    0 ,   39 ,    0 ,   93 ,   31 ,   61 ,    5 ,  160 ,  200 ,  158 ,  210 ,    8 ,  128 ,    0 ,    0 ,    0 ,  128 ,    0 ,    0 ,    0 ,    0 ,    9 ,    9 ,    0 ,    0 ,    0 ,    0 ,    0 ,  249 ,  225 ,  158 ,  210 ,   40 ,    8 ,    0 ,  228 ,   28 ,   42 ,  249 ,  221 ,   92 ,  235 ,  221 
E: 000000.328815 64 01 83 80 81 7f 00 00 fe 08 00 00 00 db 4d 2a eb f7 ff ee ff 0b 00 27 00 5d 1f 3d 05 a0 c8 9e d2 08 80 00 00 00 80 00 00 00 00 09 09 00 00 00 00 00 f9 e1 9e d2 28 08 00 e4 1c 2a f9 dd 5c eb dd
# ReportID: 1 / X:  131 | Y:  128 | Z:  130 | Rz:  127 | Rx:    0 | Ry:    0 | 0xff000020:  255 | Hat switch:   8 | Button: 0  0  0  0  0  0  0  0  0  0  0  0  0  0  0 | 0xff000021: 0 , 0 , 0 , 0 , 0 , 0 , 0 , 0 , 0 , 0 , 0 , 0 , 0 | 0xff000022:  220 ,   77 ,   42 ,  235 ,  246 ,  255 ,  238 ,  255 ,   10 ,    0 ,   67 ,    0 ,   69 ,   31 ,   47 ,    5 ,  147 ,  247 ,  158 ,  210 ,    8 ,  128 ,    0 ,    0 ,    0 ,  128 ,    0 ,    0 ,    0 ,    0 ,    9 ,    9 ,    0 ,    0 ,    0 ,    0 ,    0 ,  184 ,   16 ,  159 ,  210 ,   40 ,    8 ,    0 ,  226 ,  163 ,  223 ,  127 ,  207 ,  150 ,  186 ,   53 
E: 000000.332726 64 01 83 80 82 7f 00 00 ff 08 00 00 00 dc 4d 2a eb f6 ff ee ff 0a 00 43 00 45 1f 2f 05 93 f7 9e d2 08 80 00 00 00 80 00 00 00 00 09 09 00 00 00 00 00 b8 10 9f d2 28 08 00 e2 a3 df 7f cf 96 ba 35
# ReportID: 1 / X:  131 | Y:  128 | Z:  129 | Rz:  127 | Rx:    0 | Ry:    0 | 0xff000020:    0 | Hat switch:   8 | Button: 0  0  0  0  0  0  0  0  0  0  0  0  0  0  0 | 0xff000021: 0 , 0 , 0 , 0 , 0 , 0 , 0 , 0 , 0 , 0 , 0 , 0 , 0 | 0xff000022:  221 ,   77 ,   42 ,  235 ,  247 ,  255 ,  239 ,  255 ,   11 ,    0 ,   62 ,    0 ,   60 ,   31 ,   57 ,    5 ,  134 ,   38 ,  159 ,  210 ,    8 ,  128 ,    0 ,    0 ,    0 ,  128 ,    0 ,    0 ,    0 ,    0 ,    9 ,    9 ,    0 ,    0 ,    0 ,    0 ,    0 ,  153 ,   63 ,  159 ,  210 ,   40 ,    8 ,    0 ,   24 ,   21 ,  205 ,  104 ,  110 ,  167 ,    6 ,   41 
E: 000000.336886 64 01 83 80 81 7f 00 00 00 08 00 00 00 dd 4d 2a eb f7 ff ef ff 0b 00 3e 00 3c 1f 39 05 86 26 9f d2 08 80 00 00 00 80 00 00 00 00 09 09 00 00 00 00 00 99 3f 9f d2 28 08 00 18 15 cd 68 6e a7 06 29
# ReportID: 1 / X:  131 | Y:  128 | Z:  129 | Rz:  127 | Rx:    0 | Ry:    0 | 0xff000020:    1 | Hat switch:   8 | Button: 0  0  0  0  0  0  0  0  0  0  0  0  0  0  0 | 0xff000021: 0 , 0 , 0 , 0 , 0 , 0 , 0 , 0 , 0 , 0 , 0 , 0 , 0 | 0xff000022:  222 ,   77 ,   42 ,  235 ,  246 ,  255 ,  238 ,  255 ,   10 ,    0 ,   47 ,    0 ,   73 ,   31 ,   46 ,    5 ,  122 ,   85 ,  159 ,  210 ,    8 ,  128 ,    0 ,    0 ,    0 ,  128 ,    0 ,    0 ,    0 ,    0 ,    9 ,    9 ,    0 ,    0 ,    0 ,    0 ,    0 ,  121 ,  110 ,  159 ,  210 ,   40 ,    8 ,    0 ,  161 ,   25 ,   57 ,   90 ,  151 ,  195 ,  104 ,  173 
E: 000000.340736 64 01 83 80 81 7f 00 00 01 08 00 00 00 de 4d 2a eb f6 ff ee ff 0a 00 2f 00 49 1f 2e 05 7a 55 9f d2 08 80 00 00 00 80 00 00 00 00 09 09 00 00 00 00 00 79 6e 9f d2 28 08 00 a1 19 39 5a 97 c3 68 ad
# ReportID: 1 / X:  131 | Y:  128 | Z:  129 | Rz:  127 | Rx:    0 | Ry:    0 | 0xff000020:    2 | Hat switch:   8 | Button: 0  0  0  0  0  0  0  0  0  0  0  0  0  0  0 | 0xff000021: 0 , 0 , 0 , 0 , 0 , 0 , 0 , 0 , 0 , 0 , 0 , 0 , 0 | 0xff000022:  223 ,   77 ,   42 ,  235 ,  248 ,  255 ,  239 ,  255 ,   11 ,    0 ,   46 ,    0 ,   86 ,   31 ,   57 ,    5 ,  109 ,  132 ,  159 ,  210 ,    8 ,  128 ,    0 ,    0 ,    0 ,  128 ,    0 ,    0 ,    0 ,    0 ,    9 ,    9 ,    0 ,    0 ,    0 ,    0 ,    0 ,   81 ,  157 ,  159 ,  210 ,   40 ,    8 ,    0 ,  253 ,  179 ,   72 ,  175 ,  181 ,   75 ,   96 ,  170 
E: 000000.344708 64 01 83 80 81 7f 00 00 02 08 00 00 00 df 4d 2a eb f8 ff ef ff 0b 00 2e 00 56 1f 39 05 6d 84 9f d2 08 80 00 00 00 80 00 00 00 00 09 09 00 00 00 00 00 51 9d 9f d2 28 08 00 fd b3 48 af b5 4b 60 aa
# ReportID: 1 / X:  131 | Y:  128 | Z:  129 | Rz:  127 | Rx:    0 | Ry:    0 | 0xff000020:    3 | Hat switch:   8 | Button: 0  0  0  0  0  0  0  0  0  0  0  0  0  0  0 | 0xff000021: 0 , 0 , 0 , 0 , 0 , 0 , 0 , 0 , 0 , 0 , 0 , 0 , 0 | 0xff000022:  224 ,   77 ,   42 ,  235 ,  247 ,  255 ,  240 ,  255 ,   10 ,    0 ,   65 ,    0 ,   85 ,   31 ,   44 ,    5 ,   96 ,  179 ,  159 ,  210 ,    8 ,  128 ,    0 ,    0 ,    0 ,  128 ,    0 ,    0 ,    0 ,    0 ,    9 ,    9 ,    0 ,    0 ,    0 ,    0 ,    0 ,   49 ,  204 ,  159 ,  210 ,   40 ,    8 ,    0 ,  195 ,  155 ,  155 ,  215 ,  202 ,    1 ,   13 ,   98 
E: 000000.349880 64 01 83 80 81 7f 00 00 03 08 00 00 00 e0 4d 2a eb f7 ff f0 ff 0a 00 41 00 55 1f 2c 05 60 b3 9f d2 08 80 00 00 00 80 00 00 00 00 09 09 00 00 00 00 00 31 cc 9f d2 28 08 00 c3 9b 9b d7 ca 01 0d 62
# ReportID: 1 / X:  131 | Y:  128 | Z:  129 | Rz:  127 | Rx:    0 | Ry:    0 | 0xff000020:    4 | Hat switch:   8 | Button: 0  0  0  0  0  0  0  0  0  0  0  0  0  0  0 | 0xff000021: 0 , 0 , 0 , 0 , 0 , 0 , 0 , 0 , 0 , 0 , 0 , 0 , 0 | 0xff000022:  225 ,   77 ,   42 ,  235 ,  247 ,  255 ,  239 ,  255 ,   10 ,    0 ,   77 ,    0 ,   86 ,   31 ,   37 ,    5 ,   83 ,  226 ,  159 ,  210 ,    8 ,  128 ,    0 ,    0 ,    0 ,  128 ,    0 ,    0 ,    0 ,    0 ,    9 ,    9 ,    0 ,    0 ,    0 ,    0 ,    0 ,   17 ,  251 ,  159 ,  210 ,   40 ,    8 ,    0 ,  181 ,  156 ,  227 ,  153 ,   81 ,  205 ,  207 ,   48 
E: 000000.353470 64 01 83 80 81 7f 00 00 04 08 00 00 00 e1 4d 2a eb f7 ff ef ff 0a 00 4d 00 56 1f 25 05 53 e2 9f d2 08 80 00 00 00 80 00 00 00 00 09 09 00 00 00 00 00 11 fb 9f d2 28 08 00 b5 9c e3 99 51 cd cf 30
# ReportID: 1 / X:  131 | Y:  128 | Z:  129 | Rz:  127 | Rx:    0 | Ry:    0 | 0xff000020:    5 | Hat switch:   6 | Button: 0  0  0  0  0  0  0  0  0  0  0  0  0  0  0 | 0xff000021: 0 , 0 , 0 , 0 , 0 , 0 , 0 , 0 , 0 , 0 , 0 , 0 , 0 | 0xff000022:  226 ,   77 ,   42 ,  235 ,  248 ,  255 ,  241 ,  255 ,    8 ,    0 ,  128 ,    0 ,  155 ,   31 ,   44 ,    5 ,   70 ,   17 ,  160 ,  210 ,    8 ,  128 ,    0 ,    0 ,    0 ,  128 ,    0 ,    0 ,    0 ,    0 ,    9 ,    9 ,    0 ,    0 ,    0 ,    0 ,    0 ,  240 ,   41 ,  160 ,  210 ,   40 ,    8 ,    0 ,   70 ,  111 ,   70 ,  204 ,  249 ,   18 ,  139 ,   23 
E: 000000.357178 64 01 83 80 81 7f 00 00 05 06 00 00 00 e2 4d 2a eb f8 ff f1 ff 08 00 80 00 9b 1f 2c 05 46 11 a0 d2 08 80 00 00 00 80 00 00 00 00 09 09 00 00 00 00 00 f0 29 a0 d2 28 08 00 46 6f 46 cc f9 12 8b 17
# ReportID: 1 / X:  131 | Y:  128 | Z:  129 | Rz:  127 | Rx:    0 | Ry:    0 | 0xff000020:    6 | Hat switch:   6 | Button: 0  0  0  0  0  0  0  0  0  0  0  0  0  0  0 | 0xff000021: 0 , 0 , 0 , 0 , 0 , 0 , 0 , 0 , 0 , 0 , 0 , 0 , 0 | 0xff000022:  227 ,   77 ,   42 ,  235 ,  243 ,  255 ,  235 ,  255 ,   15 ,    0 ,  208 ,  254 ,  142 ,   30 ,   11 ,    5 ,   57 ,   64 ,  160 ,  210 ,    8 ,  128 ,    0 ,    0 ,    0 ,  128 ,    0 ,    0 ,    0 ,    0 ,    9 ,    9 ,    0 ,    0 ,    0 ,    0 ,    0 ,  208 ,   88 ,  160 ,  210 ,   40 ,    8 ,    0 ,  207 ,  164 ,  145 ,  204 ,  112 ,   10 ,  224 ,   86 
E: 000000.361033 64 01 83 80 81 7f 00 00 06 06 00 00 00 e3 4d 2a eb f3 ff eb ff 0f 00 d0 fe 8e 1e 0b 05 39 40 a0 d2 08 80 00 00 00 80 00 00 00 00 09 09 00 00 00 00 00 d0 58 a0 d2 28 08 00 cf a4 91 cc 70 0a e0 56
# ReportID: 1 / X:  131 | Y:  128 | Z:  129 | Rz:  127 | Rx:    0 | Ry:    0 | 0xff000020:    7 | Hat switch:   6 | Button: 0  0  0  0  0  0  0  0  0  0  0  0  0  0  0 | 0xff000021: 0 , 0 , 0 , 0 , 0 , 0 , 0 , 0 , 0 , 0 , 0 , 0 , 0 | 0xff000022:  228 ,   77 ,   42 ,  235 ,  250 ,  255 ,  240 ,  255 ,    5 ,    0 ,  168 ,    1 ,  171 ,   31 ,   70 ,    5 ,   44 ,  111 ,  160 ,  210 ,    8 ,  128 ,    0 ,    0 ,    0 ,  128 ,    0 ,    0 ,    0 ,    0 ,    9 ,    9 ,    0 ,    0 ,    0 ,    0 ,    0 ,  176 ,  135 ,  160 ,  210 ,   40 ,    8 ,    0 ,  148 ,  155 ,  133 ,   17 ,  252 ,  145 ,  166 ,  121 
E: 000000.364703 64 01 83 80 81 7f 00 00 07 06 00 00 00 e4 4d 2a eb fa ff f0 ff 05 00 a8 01 ab 1f 46 05 2c 6f a0 d2 08 80 00 00 00 80 00 00 00 00 09 09 00 00 00 00 00 b0 87 a0 d2 28 08 00 94 9b 85 11 fc 91 a6 79
# ReportID: 1 / X:  131 | Y:  128 | Z:  129 | Rz:  127 | Rx:    0 | Ry:    0 | 0xff000020:    8 | Hat switch:   6 | Button: 0  0  0  0  0  0  0  0  0  0  0  0  0  0  0 | 0xff000021: 0 , 0 , 0 , 0 , 0 , 0 , 0 , 0 , 0 , 0 , 0 , 0 , 0 | 0xff000022:  229 ,   77 ,   42 ,  235 ,  246 ,  255 ,  238 ,  255 ,   11 ,    0 ,  144 ,  255 ,  211 ,   31 ,   53 ,    5 ,   31 ,  158 ,  160 ,  210 ,    8 ,  128 ,    0 ,    0 ,    0 ,  128 ,    0 ,    0 ,    0 ,    0 ,    9 ,    9 ,    0 ,    0 ,    0 ,    0 ,    0 ,  144 ,  182 ,  160 ,  210 ,   40 ,    8 ,    0 ,  225 ,  232 ,  201 ,  192 ,  180 ,   94 ,  180 ,  125 
E: 000000.368647 64 01 83 80 81 7f 00 00 08 06 00 00 00 e5 4d 2a eb f6 ff ee ff 0b 00 90 ff d3 1f 35 05 1f 9e a0 d2 08 80 00 00 00 80 00 00 00 00 09 09 00 00 00 00 00 90 b6 a0 d2 28 08 00 e1 e8 c9 c0 b4 5e b4 7d
# ReportID: 1 / X:  131 | Y:  128 | Z:  129 | Rz:  127 | Rx:    0 | Ry:    0 | 0xff000020:    9 | Hat switch:   6 | Button: 0  0  0  0  0  0  0  0  0  0  0  0  0  0  0 | 0xff000021: 0 , 0 , 0 , 0 , 0 , 0 , 0 , 0 , 0 , 0 , 0 , 0 , 0 | 0xff000022:  230 ,   77 ,   42 ,  235 ,  245 ,  255 ,  239 ,  255 ,   10 ,    0 ,   51 ,    0 ,   64 ,   31 ,   27 ,    5 ,   18 ,  205 ,  160 ,  210 ,    8 ,  128 ,    0 ,    0 ,    0 ,  128 ,    0 ,    0 ,    0 ,    0 ,    9 ,    9 ,    0 ,    0 ,    0 ,    0 ,    0 ,  112 ,  229 ,  160 ,  210 ,   40 ,    8 ,    0 ,  211 ,   57 ,  168 ,  108 ,   50 ,   62 ,   95 ,  177 
E: 000000.374304 64 01 83 80 81 7f 00 00 09 06 00 00 00 e6 4d 2a eb f5 ff ef ff 0a 00 33 00 40 1f 1b 05 12 cd a0 d2 08 80 00 00 00 80 00 00 00 00 09 09 00 00 00 00 00 70 e5 a0 d2 28 08 00 d3 39 a8 6c 32 3e 5f b1
# ReportID: 1 / X:  131 | Y:  128 | Z:  130 | Rz:  127 | Rx:    0 | Ry:    0 | 0xff000020:   10 | Hat switch:   6 | Button: 0  0  0  0  0  0  0  0  0  0  0  0  0  0  0 | 0xff000021: 0 , 0 , 0 , 0 , 0 , 0 , 0 , 0 , 0 , 0 , 0 , 0 , 0 | 0xff000022:  231 ,   77 ,   42 ,  235 ,  246 ,  255 ,  238 ,  255 ,   10 ,    0 ,  123 ,    0 ,   21 ,   31 ,    1 ,    5 ,    5 ,  252 ,  160 ,  210 ,    8 ,  128 ,    0 ,    0 ,    0 ,  128 ,    0 ,    0 ,    0 ,    0 ,    9 ,    9 ,    0 ,    0 ,    0 ,    0 ,    0 ,   80 ,   20 ,  161 ,  210 ,   40 ,    8 ,    0 ,   59 ,  166 ,  166 ,  119 ,   45 ,  107 ,   59 ,  233 
E: 000000.378019 64 01 83 80 82 7f 00 00 0a 06 00 00 00 e7 4d 2a eb f6 ff ee ff 0a 00 7b 00 15 1f 01 05 05 fc a0 d2 08 80 00 00 00 80 00 00 00 00 09 09 00 00 00 00 00 50 14 a1 d2 28 08 00 3b a6 a6 77 2d 6b 3b e9
# ReportID: 1 / X:  131 | Y:  128 | Z:  130 | Rz:  127 | Rx:    0 | Ry:    0 | 0xff000020:   11 | Hat switch:   6 | Button: 0  0  0  0  0  0  0  0  0  0  0  0  0  0  0 | 0xff000021: 0 , 0 , 0 , 0 , 0 , 0 , 0 , 0 , 0 , 0 , 0 , 0 , 0 | 0xff000022:  232 ,   77 ,   42 ,  235 ,  246 ,  255 ,  238 ,  255 ,   12 ,    0 ,  237 ,  255 ,  127 ,   31 ,   50 ,    5 ,  248 ,   42 ,  161 ,  210 ,    8 ,  128 ,    0 ,    0 ,    0 ,  128 ,    0 ,    0 ,    0 ,    0 ,    9 ,    9 ,    0 ,    0 ,    0 ,    0 ,    0 ,   48 ,   67 ,  161 ,  210 ,   40 ,    8 ,    0 ,  176 ,   98 ,  100 ,  107 ,  131 ,   34 ,  166 ,  224 
E: 000000.380699 64 01 83 80 82 7f 00 00 0b 06 00 00 00 e8 4d 2a eb f6 ff ee ff 0c 00 ed ff 7f 1f 32 05 f8 2a a1 d2 08 80 00 00 00 80 00 00 00 00 09 09 00 00 00 00 00 30 43 a1 d2 28 08 00 b0 62 64 6b 83 22 a6 e0
# ReportID: 1 / X:  131 | Y:  128 | Z:  130 | Rz:  127 | Rx:    0 | Ry:    0 | 0xff000020:   12 | Hat switch:   6 | Button: 0  0  0  0  0  0  0  0  0  0  0  0  0  0  0 | 0xff000021: 0 , 0 , 0 , 0 , 0 , 0 , 0 , 0 , 0 , 0 , 0 , 0 , 0 | 0xff000022:  233 ,   77 ,   42 ,  235 ,  244 ,  255 ,  238 ,  255 ,    9 ,    0 ,   71 ,    0 ,   71 ,   31 ,   49 ,    5 ,  235 ,   89 ,  161 ,  210 ,    8 ,  128 ,    0 ,    0 ,    0 ,  128 ,    0 ,    0 ,    0 ,    0 ,    9 ,    9 ,    0 ,    0 ,    0 ,    0 ,    0 ,   16 ,  114 ,  161 ,  210 ,   40 ,    8 ,    0 ,   41 ,   71 ,  139 ,   83 ,  231 ,  221 ,  170 ,    2 
E: 000000.385532 64 01 83 80 82 7f 00 00 0c 06 00 00 00 e9 4d 2a eb f4 ff ee ff 09 00 47 00 47 1f 31 05 eb 59 a1 d2 08 80 00 00 00 80 00 00 00 00 09 09 00 00 00 00 00 10 72 a1 d2 28 08 00 29 47 8b 53 e7 dd aa 02
# ReportID: 1 / X:  131 | Y:  128 | Z:  129 | Rz:  127 | Rx:    0 | Ry:    0 | 0xff000020:   13 | Hat switch:   6 | Button: 0  0  0  0  0  0  0  0  0  0  0  0  0  0  0 | 0xff000021: 0 , 0 , 0 , 0 , 0 , 0 , 0 , 0 , 0 , 0 , 0 , 0 , 0 | 0xff000022:  234 ,   77 ,   42 ,  235 ,  247 ,  255 ,  237 ,  255 ,   11 ,    0 ,   86 ,    0 ,   51 ,   31 ,   48 ,    5 ,  223 ,  136 ,  161 ,  210 ,    8 ,  128 ,    0 ,    0 ,    0 ,  128 ,    0 ,    0 ,    0 ,    0 ,    9 ,    9 ,    0 ,    0 ,    0 ,    0 ,    0 ,  240 ,  160 ,  161 ,  210 ,   40 ,    8 ,    0 ,  177 ,  227 ,  194 ,  217 ,  119 ,  166 ,   19 ,  152 
E: 000000.389137 64 01 83 80 81 7f 00 00 0d 06 00 00 00 ea 4d 2a eb f7 ff ed ff 0b 00 56 00 33 1f 30 05 df 88 a1 d2 08 80 00 00 00 80 00 00 00 00 09 09 00 00 00 00 00 f0 a0 a1 d2 28 08 00 b1 e3 c2 d9 77 a6 13 98
# ReportID: 1 / X:  131 | Y:  128 | Z:  130 | Rz:  127 | Rx:    0 | Ry:    0 | 0xff000020:   14 | Hat switch:   6 | Button: 0  0  0  0  0  0  0  0  0  0  0  0  0  0  0 | 0xff000021: 0 , 0 , 0 , 0 , 0 , 0 , 0 , 0 , 0 , 0 , 0 , 0 , 0 | 0xff000022:  235 ,   77 ,   42 ,  235 ,  245 ,  255 ,  238 ,  255 ,   10 ,    0 ,    6 ,    0 ,  141 ,   31 ,   59 ,    5 ,  210 ,  183 ,  161 ,  210 ,    8 ,  128 ,    0 ,    0 ,    0 ,  128 ,    0 ,    0 ,    0 ,    0 ,    9 ,    9 ,    0 ,    0 ,    0 ,    0 ,    0 ,  208 ,  207 ,  161 ,  210 ,   40 ,    8 ,    0 ,  180 ,   60 ,   86 ,  133 ,   29 ,  201 ,  174 ,   72 
E: 000000.392977 64 01 83 80 82 7f 00 00 0e 06 00 00 00 eb 4d 2a eb f5 ff ee ff 0a 00 06 00 8d 1f 3b 05 d2 b7 a1 d2 08 80 00 00 00 80 00 00 00 00 09 09 00 00 00 00 00 d0 cf a1 d2 28 08 00 b4 3c 56 85 1d c9 ae 48
# ReportID: 1 / X:  131 | Y:  128 | Z:  129 | Rz:  127 | Rx:    0 | Ry:    0 | 0xff000020:   15 | Hat switch:   6 | Button: 0  0  0  0  0  0  0  0  0  0  0  0  0  0  0 | 0xff000021: 0 , 0 , 0 , 0 , 0 , 0 , 0 , 0 , 0 , 0 , 0 , 0 , 0 | 0xff000022:  236 ,   77 ,   42 ,  235 ,  245 ,  255 ,  237 ,  255 ,   10 ,    0 ,   35 ,    0 ,   46 ,   31 ,   59 ,    5 ,  197 ,  230 ,  161 ,  210 ,    8 ,  128 ,    0 ,    0 ,    0 ,  128 ,    0 ,    0 ,    0 ,    0 ,    9 ,    9 ,    0 ,    0 ,    0 ,    0 ,    0 ,  176 ,  254 ,  161 ,  210 ,   40 ,    8 ,    0 ,  168 ,  138 ,  201 ,   41 ,    3 ,  121 ,  211 ,  100 
E: 000000.396725 64 01 83 80 81 7f 00 00 0f 06 00 00 00 ec 4d 2a eb f5 ff ed ff 0a 00 23 00 2e 1f 3b 05 c5 e6 a1 d2 08 80 00 00 00 80 00 00 00 00 09 09 00 00 00 00 00 b0 fe a1 d2 28 08 00 a8 8a c9 29 03 79 d3 64
# ReportID: 1 / X:  131 | Y:  128 | Z:  129 | Rz:  127 | Rx:    0 | Ry:    0 | 0xff000020:   16 | Hat switch:   6 | Button: 0  0  0  0  0  0  0  0  0  0  0  0  0  0  0 | 0xff000021: 0 , 0 , 0 , 0 , 0 , 0 , 0 , 0 , 0 , 0 , 0 , 0 , 0 | 0xff000022:  237 ,   77 ,   42 ,  235 ,  245 ,  255 ,  238 ,  255 ,   11 ,    0 ,   86 ,    0 ,  116 ,   31 ,   41 ,    5 ,  184 ,   21 ,  162 ,  210 ,    8 ,  128 ,    0 ,    0 ,    0 ,  128 ,    0 ,    0 ,    0 ,    0 ,    9 ,    9 ,    0 ,    0 ,    0 ,    0 ,    0 ,  144 ,   45 ,  162 ,  210 ,   40 ,    8 ,    0 ,  131 ,  161 ,   27 ,  213 ,    5 ,  232 ,  222 ,   82 
E: 000000.402291 64 01 83 80 81 7f 00 00 10 06 00 00 00 ed 4d 2a eb f5 ff ee ff 0b 00 56 00 74 1f 29 05 b8 15 a2 d2 08 80 00 00 00 80 00 00 00 00 09 09 00 00 00 00 00 90 2d a2 d2 28 08 00 83 a1 1b d5 05 e8 de 52
# ReportID: 1 / X:  131 | Y:  128 | Z:  129 | Rz:  127 | Rx:    0 | Ry:    0 | 0xff000020:   17 | Hat switch:   6 | Button: 0  0  0  0  0  0  0  0  0  0  0  0  0  0  0 | 0xff000021: 0 , 0 , 0 , 0 , 0 , 0 , 0 , 0 , 0 , 0 , 0 , 0 , 0 | 0xff000022:  238 ,   77 ,   42 ,  235 ,  245 ,  255 ,  237 ,  255 ,   10 ,    0 ,   20 ,    0 ,   67 ,   31 ,   77 ,    5 ,  171 ,   68 ,  162 ,  210 ,    8 ,  128 ,    0 ,    0 ,    0 ,  128 ,    0 ,    0 ,    0 ,    0 ,    9 ,    9 ,    0 ,    0 ,    0 ,    0 ,    0 ,  119 ,   92 ,  162 ,  210 ,   40 ,    8 ,    0 ,  102 ,  182 ,  108 ,  199 ,  178 ,   60 ,  255 ,  190 
E: 000000.405311 64 01 83 80 81 7f 00 00 11 06 00 00 00 ee 4d 2a eb f5 ff ed ff 0a 00 14 00 43 1f 4d 05 ab 44 a2 d2 08 80 00 00 00 80 00 00 00 00 09 09 00 00 00 00 00 77 5c a2 d2 28 08 00 66 b6 6c c7 b2 3c ff be
# ReportID: 1 / X:  131 | Y:  128 | Z:  129 | Rz:  127 | Rx:    0 | Ry:    0 | 0xff000020:   18 | Hat switch:   6 | Button: 0  0  0  0  0  0  0  0  0  0  0  0  0  0  0 | 0xff000021: 0 , 0 , 0 , 0 , 0 , 0 , 0 , 0 , 0 , 0 , 0 , 0 , 0 | 0xff000022:  239 ,   77 ,   42 ,  235 ,  244 ,  255 ,  237 ,  255 ,   11 ,    0 ,   76 ,    0 ,   95 ,   31 ,   68 ,    5 ,  158 ,  115 ,  162 ,  210 ,    8 ,  128 ,    0 ,    0 ,    0 ,  128 ,    0 ,    0 ,    0 ,    0 ,    9 ,    9 ,    0 ,    0 ,    0 ,    0 ,    0 ,  114 ,  139 ,  162 ,  210 ,   40 ,    8 ,    0 ,  143 ,  135 ,   91 ,  150 ,  235 ,  130 ,  124 ,  215 
E: 000000.409358 64 01 83 80 81 7f 00 00 12 06 00 00 00 ef 4d 2a eb f4 ff ed ff 0b 00 4c 00 5f 1f 44 05 9e 73 a2 d2 08 80 00 00 00 80 00 00 00 00 09 09 00 00 00 00 00 72 8b a2 d2 28 08 00 8f 87 5b 96 eb 82 7c d7
# ReportID: 1 / X:  131 | Y:  128 | Z:  129 | Rz:  127 | Rx:    0 | Ry:    0 | 0xff000020:   19 | Hat switch:   6 | Button: 0  0  0  0  0  0  0  0  0  0  0  0  0  0  0 | 0xff000021: 0 , 0 , 0 , 0 , 0 , 0 , 0 , 0 , 0 , 0 , 0 , 0 , 0 | 0xff000022:  240 ,   77 ,   42 ,  235 ,  246 ,  255 ,  237 ,  255 ,   10 ,    0 ,   64 ,    0 ,   68 ,   31 ,   61 ,    5 ,  146 ,  162 ,  162 ,  210 ,    8 ,  128 ,    0 ,    0 ,    0 ,  128 ,    0 ,    0 ,    0 ,    0 ,    9 ,    9 ,    0 ,    0 ,    0 ,    0 ,    0 ,   55 ,  186 ,  162 ,  210 ,   40 ,    8 ,    0 ,   68 ,   12 ,   36 ,  205 ,   52 ,   19 ,  210 ,  122 
E: 000000.412714 64 01 83 80 81 7f 00 00 13 06 00 00 00 f0 4d 2a eb f6 ff ed ff 0a 00 40 00 44 1f 3d 05 92 a2 a2 d2 08 80 00 00 00 80 00 00 00 00 09 09 00 00 00 00 00 37 ba a2 d2 28 08 00 44 0c 24 cd 34 13 d2 7a
# ReportID: 1 / X:  131 | Y:  128 | Z:  129 | Rz:  127 | Rx:    0 | Ry:    0 | 0xff000020:   20 | Hat switch:   6 | Button: 0  0  0  0  0  0  0  0  0  0  0  0  0  0  0 | 0xff000021: 0 , 0 , 0 , 0 , 0 , 0 , 0 , 0 , 0 , 0 , 0 , 0 , 0 | 0xff000022:  241 ,   77 ,   42 ,  235 ,  245 ,  255 ,  238 ,  255 ,   11 ,    0 ,   51 ,    0 ,  100 ,   31 ,   59 ,    5 ,  133 ,  209 ,  162 ,  210 ,    8 ,  128 ,    0 ,    0 ,    0 ,  128 ,    0 ,    0 ,    0 ,    0 ,    9 ,    9 ,    0 ,    0 ,    0 ,    0 ,    0 ,   25 ,  233 ,  162 ,  210 ,   40 ,    8 ,    0 ,   15 ,   80 ,  181 ,   64 ,   15 ,   65 ,   90 ,  145 
E: 000000.417593 64 01 83 80 81 7f 00 00 14 06 00 00 00 f1 4d 2a eb f5 ff ee ff 0b 00 33 00 64 1f 3b 05 85 d1 a2 d2 08 80 00 00 00 80 00 00 00 00 09 09 00 00 00 00 00 19 e9 a2 d2 28 08 00 0f 50 b5 40 0f 41 5a 91
# ReportID: 1 / X:  131 | Y:  128 | Z:  130 | Rz:  127 | Rx:    0 | Ry:    0 | 0xff000020:   21 | Hat switch:   6 | Button: 0  0  0  0  0  0  0  0  0  0  0  0  0  0  0 | 0xff000021: 0 , 0 , 0 , 0 , 0 , 0 , 0 , 0 , 0 , 0 , 0 , 0 , 0 | 0xff000022:  242 ,   77 ,   42 ,  235 ,  246 ,  255 ,  238 ,  255 ,    9 ,    0 ,   68 ,    0 ,   57 ,   31 ,   58 ,    5 ,  119 ,    0 ,  163 ,  210 ,    8 ,  128 ,    0 ,    0 ,    0 ,  128 ,    0 ,    0 ,    0 ,    0 ,    9 ,    9 ,    0 ,    0 ,    0 ,    0 ,    0 ,  249 ,   23 ,  163 ,  210 ,   40 ,    8 ,    0 ,  113 ,    6 ,   39 ,   52 ,  105 ,  220 ,    3 ,   15 
E: 000000.422373 64 01 83 80 82 7f 00 00 15 06 00 00 00 f2 4d 2a eb f6 ff ee ff 09 00 44 00 39 1f 3a 05 77 00 a3 d2 08 80 00 00 00 80 00 00 00 00 09 09 00 00 00 00 00 f9 17 a3 d2 28 08 00 71 06 27 34 69 dc 03 0f
# ReportID: 1 / X:  131 | Y:  128 | Z:  130 | Rz:  127 | Rx:    0 | Ry:    0 | 0xff000020:   22 | Hat switch:   6 | Button: 0  0  0  0  0  0  0  0  0  0  0  0  0  0  0 | 0xff000021: 0 , 0 , 0 , 0 , 0 , 0 , 0 , 0 , 0 , 0 , 0 , 0 , 0 | 0xff000022:  243 ,   77 ,   42 ,  235 ,  245 ,  255 ,  238 ,  255 ,   12 ,    0 ,   62 ,    0 ,   63 ,   31 ,   56 ,    5 ,  106 ,   47 ,  163 ,  210 ,    8 ,  128 ,    0 ,    0 ,    0 ,  128 ,    0 ,    0 ,    0 ,    0 ,    9 ,    9 ,    0 ,    0 ,    0 ,    0 ,    0 ,  208 ,   70 ,  163 ,  210 ,   40 ,    8 ,    0 ,  249 ,  193 ,  147 ,  223 ,  152 ,  193 ,  152 ,  118 
E: 000000.425503 64 01 83 80 82 7f 00 00 16 06 00 00 00 f3 4d 2a eb f5 ff ee ff 0c 00 3e 00 3f 1f 38 05 6a 2f a3 d2 08 80 00 00 00 80 00 00 00 00 09 09 00 00 00 00 00 d0 46 a3 d2 28 08 00 f9 c1 93 df 98 c1 98 76
