# Sony Interactive Entertainment DualSense Wireless Controller
# 0x05, 0x01,                    // Usage Page (Generic Desktop)        0
# 0x09, 0x05,                    // Usage (Game Pad)                    2
# 0xa1, 0x01,                    // Collection (Application)            4
# 0x85, 0x01,                    //  Report ID (1)                      6
# 0x09, 0x30,                    //  Usage (X)                          8
# 0x09, 0x31,                    //  Usage (Y)                          10
# 0x09, 0x32,                    //  Usage (Z)                          12
# 0x09, 0x35,                    //  Usage (Rz)                         14
# 0x09, 0x33,                    //  Usage (Rx)                         16
# 0x09, 0x34,                    //  Usage (Ry)                         18
# 0x15, 0x00,                    //  Logical Minimum (0)                20
# 0x26, 0xff, 0x00,              //  Logical Maximum (255)              22
# 0x75, 0x08,                    //  Report Size (8)                    25
# 0x95, 0x06,                    //  Report Count (6)                   27
# 0x81, 0x02,                    //  Input (Data,Var,Abs)               29
# 0x06, 0x00, 0xff,              //  Usage Page (Vendor Defined Page 1) 31
# 0x09, 0x20,                    //  Usage (Vendor Usage 0x20)          34
# 0x95, 0x01,                    //  Report Count (1)                   36
# 0x81, 0x02,                    //  Input (Data,Var,Abs)               38
# 0x05, 0x01,                    //  Usage Page (Generic Desktop)       40
# 0x09, 0x39,                    //  Usage (Hat switch)                 42
# 0x15, 0x00,                    //  Logical Minimum (0)                44
# 0x25, 0x07,                    //  Logical Maximum (7)                46
# 0x35, 0x00,                    //  Physical Minimum (0)               48
# 0x46, 0x3b, 0x01,              //  Physical Maximum (315)             50
# 0x65, 0x14,                    //  Unit (EnglishRotation: deg)        53
# 0x75, 0x04,                    //  Report Size (4)                    55
# 0x95, 0x01,                    //  Report Count (1)                   57
# 0x81, 0x42,                    //  Input (Data,Var,Abs,Null)          59
# 0x65, 0x00,                    //  Unit (None)                        61
# 0x05, 0x09,                    //  Usage Page (Button)                63
# 0x19, 0x01,                    //  Usage Minimum (1)                  65
# 0x29, 0x0f,                    //  Usage Maximum (15)                 67
# 0x15, 0x00,                    //  Logical Minimum (0)                69
# 0x25, 0x01,                    //  Logical Maximum (1)                71
# 0x75, 0x01,                    //  Report Size (1)                    73
# 0x95, 0x0f,                    //  Report Count (15)                  75
# 0x81, 0x02,                    //  Input (Data,Var,Abs)               77
# 0x06, 0x00, 0xff,              //  Usage Page (Vendor Defined Page 1) 79
# 0x09, 0x21,                    //  Usage (Vendor Usage 0x21)          82
# 0x95, 0x0d,                    //  Report Count (13)                  84
# 0x81, 0x02,                    //  Input (Data,Var,Abs)               86
# 0x06, 0x00, 0xff,              //  Usage Page (Vendor Defined Page 1) 88
# 0x09, 0x22,                    //  Usage (Vendor Usage 0x22)          91
# 0x15, 0x00,                    //  Logical Minimum (0)                93
# 0x26, 0xff, 0x00,              //  Logical Maximum (255)              95
# 0x75, 0x08,                    //  Report Size (8)                    98
# 0x95, 0x34,                    //  Report Count (52)                  100
# 0x81, 0x02,                    //  Input (Data,Var,Abs)               102
# 0x85, 0x02,                    //  Report ID (2)                      104
# 0x09, 0x23,                    //  Usage (Vendor Usage 0x23)          106
# 0x95, 0x2f,                    //  Report Count (47)                  108
# 0x91, 0x02,                    //  Output (Data,Var,Abs)              110
# 0x85, 0x05,                    //  Report ID (5)                      112
# 0x09, 0x33,                    //  Usage (Vendor Usage 0x33)          114
# 0x95, 0x28,                    //  Report Count (40)                  116
# 0xb1, 0x02,                    //  Feature (Data,Var,Abs)             118
# 0x85, 0x08,                    //  Report ID (8)                      120
# 0x09, 0x34,                    //  Usage (Vendor Usage 0x34)          122
# 0x95, 0x2f,                    //  Report Count (47)                  124
# 0xb1, 0x02,                    //  Feature (Data,Var,Abs)             126
# 0x85, 0x09,                    //  Report ID (9)                      128
# 0x09, 0x24,                    //  Usage (Vendor Usage 0x24)          130
# 0x95, 0x13,                    //  Report Count (19)                  132
# 0xb1, 0x02,                    //  Feature (Data,Var,Abs)             134
# 0x85, 0x0a,                    //  Report ID (10)                     136
# 0x09, 0x25,                    //  Usage (Vendor Usage 0x25)          138
# 0x95, 0x1a,                    //  Report Count (26)                  140
# 0xb1, 0x02,                    //  Feature (Data,Var,Abs)             142
# 0x85, 0x20,                    //  Report ID (32)                     144
# 0x09, 0x26,                    //  Usage (Vendor Usage 0x26)          146
# 0x95, 0x3f,                    //  Report Count (63)                  148
# 0xb1, 0x02,                    //  Feature (Data,Var,Abs)             150
# 0x85, 0x21,                    //  Report ID (33)                     152
# 0x09, 0x27,                    //  Usage (Vendor Usage 0x27)          154
# 0x95, 0x04,                    //  Report Count (4)                   156
# 0xb1, 0x02,                    //  Feature (Data,Var,Abs)             158
# 0x85, 0x22,                    //  Report ID (34)                     160
# 0x09, 0x40,                    //  Usage (Vendor Usage 0x40)          162
# 0x95, 0x3f,                    //  Report Count (63)                  164
# 0xb1, 0x02,                    //  Feature (Data,Var,Abs)             166
# 0x85, 0x80,                    //  Report ID (128)                    168
# 0x09, 0x28,                    //  Usage (Vendor Usage 0x28)          170
# 0x95, 0x3f,                    //  Report Count (63)                  172
# 0xb1, 0x02,                    //  Feature (Data,Var,Abs)             174
# 0x85, 0x81,                    //  Report ID (129)                    176
# 0x09, 0x29,                    //  Usage (Vendor Usage 0x29)          178
# 0x95, 0x3f,                    //  Report Count (63)                  180
# 0xb1, 0x02,                    //  Feature (Data,Var,Abs)             182
# 0x85, 0x82,                    //  Report ID (130)                    184
# 0x09, 0x2a,                    //  Usage (Vendor Usage 0x2a)          186
# 0x95, 0x09,                    //  Report Count (9)                   188
# 0xb1, 0x02,                    //  Feature (Data,Var,Abs)             190
# 0x85, 0x83,                    //  Report ID (131)                    192
# 0x09, 0x2b,                    //  Usage (Vendor Usage 0x2b)          194
# 0x95, 0x3f,                    //  Report Count (63)                  196
# 0xb1, 0x02,                    //  Feature (Data,Var,Abs)             198
# 0x85, 0x84,                    //  Report ID (132)                    200
# 0x09, 0x2c,                    //  Usage (Vendor Usage 0x2c)          202
# 0x95, 0x3f,                    //  Report Count (63)                  204
# 0xb1, 0x02,                    //  Feature (Data,Var,Abs)             206
# 0x85, 0x85,                    //  Report ID (133)                    208
# 0x09, 0x2d,                    //  Usage (Vendor Usage 0x2d)          210
# 0x95, 0x02,                    //  Report Count (2)                   212
# 0xb1, 0x02,                    //  Feature (Data,Var,Abs)             214
# 0x85, 0xa0,                    //  Report ID (160)                    216
# 0x09, 0x2e,                    //  Usage (Vendor Usage 0x2e)          218
# 0x95, 0x01,                    //  Report Count (1)                   220
# 0xb1, 0x02,                    //  Feature (Data,Var,Abs)             222
# 0x85, 0xe0,                    //  Report ID (224)                    224
# 0x09, 0x2f,                    //  Usage (Vendor Usage 0x2f)          226
# 0x95, 0x3f,                    //  Report Count (63)                  228
# 0xb1, 0x02,                    //  Feature (Data,Var,Abs)             230
# 0x85, 0xf0,                    //  Report ID (240)                    232
# 0x09, 0x30,                    //  Usage (Vendor Usage 0x30)          234
# 0x95, 0x3f,                    //  Report Count (63)                  236
# 0xb1, 0x02,                    //  Feature (Data,Var,Abs)             238
# 0x85, 0xf1,                    //  Report ID (241)                    240
# 0x09, 0x31,                    //  Usage (Vendor Usage 0x31)          242
# 0x95, 0x3f,                    //  Report Count (63)                  244
# 0xb1, 0x02,                    //  Feature (Data,Var,Abs)             246
# 0x85, 0xf2,                    //  Report ID (242)                    248
# 0x09, 0x32,                    //  Usage (Vendor Usage 0x32)          250
# 0x95, 0x0f,                    //  Report Count (15)                  252
# 0xb1, 0x02,                    //  Feature (Data,Var,Abs)             254
# 0x85, 0xf4,                    //  Report ID (244)                    256
# 0x09, 0x35,                    //  Usage (Vendor Usage 0x35)          258
# 0x95, 0x3f,                    //  Report Count (63)                  260
# 0xb1, 0x02,                    //  Feature (Data,Var,Abs)             262
# 0x85, 0xf5,                    //  Report ID (245)                    264
# 0x09, 0x36,                    //  Usage (Vendor Usage 0x36)          266
# 0x95, 0x03,                    //  Report Count (3)                   268
# 0xb1, 0x02,                    //  Feature (Data,Var,Abs)             270
# 0xc0,                          // End Collection                      272
# 
R: 273 05 01 09 05 a1 01 85 01 09 30 09 31 09 32 09 35 09 33 09 34 15 00 26 ff 00 75 08 95 06 81 02 06 00 ff 09 20 95 01 81 02 05 01 09 39 15 00 25 07 35 00 46 3b 01 65 14 75 04 95 01 81 42 65 00 05 09 19 01 29 0f 15 00 25 01 75 01 95 0f 81 02 06 00 ff 09 21 95 0d 81 02 06 00 ff 09 22 15 00 26 ff 00 75 08 95 34 81 02 85 02 09 23 95 2f 91 02 85 05 09 33 95 28 b1 02 85 08 09 34 95 2f b1 02 85 09 09 24 95 13 b1 02 85 0a 09 25 95 1a b1 02 85 20 09 26 95 3f b1 02 85 21 09 27 95 04 b1 02 85 22 09 40 95 3f b1 02 85 80 09 28 95 3f b1 02 85 81 09 29 95 3f b1 02 85 82 09 2a 95 09 b1 02 85 83 09 2b 95 3f b1 02 85 84 09 2c 95 3f b1 02 85 85 09 2d 95 02 b1 02 85 a0 09 2e 95 01 b1 02 85 e0 09 2f 95 3f b1 02 85 f0 09 30 95 3f b1 02 85 f1 09 31 95 3f b1 02 85 f2 09 32 95 0f b1 02 85 f4 09 35 95 3f b1 02 85 f5 09 36 95 03 b1 02 c0
N: Sony Interactive Entertainment DualSense Wireless Controller
I: 3 054c 0ce6
# ReportID: 1 / X:  131 | Y:  128 | Z:  129 | Rz:  127 | Rx:    0 | Ry:    0 | 0xff000020:   33 | Hat switch:   8 | Button: 0  0  0  0  0  0  0  0  0  0  0  0  0  0  0 | 0xff000021: 0 , 0 , 0 , 0 , 0 , 0 , 0 , 0 , 0 , 0 , 0 , 0 , 0 | 0xff000022:  254 ,   68 ,   42 ,  235 ,  247 ,  255 ,  240 ,  255 ,    8 ,    0 ,   69 ,    0 ,   37 ,   31 ,   55 ,    5 ,   57 ,   88 ,  255 ,  208 ,    8 ,  128 ,    0 ,    0 ,    0 ,  128 ,    0 ,    0 ,    0 ,    0 ,    9 ,    9 ,    0 ,    0 ,    0 ,    0 ,    0 ,  121 ,  106 ,  255 ,  208 ,   40 ,    8 ,    0 ,  191 ,  102 ,  125 ,   68 ,   40 ,  158 ,   64 ,  234 
E: 000000.000000 64 01 83 80 81 7f 00 00 21 08 00 00 00 fe 44 2a eb f7 ff f0 ff 08 00 45 00 25 1f 37 05 39 58 ff d0 08 80 00 00 00 80 00 00 00 00 09 09 00 00 00 00 00 79 6a ff d0 28 08 00 bf 66 7d 44 28 9e 40 ea
# ReportID: 1 / X:  131 | Y:  128 | Z:  130 | Rz:  127 | Rx:    0 | Ry:    0 | 0xff000020:   34 | Hat switch:   8 | Button: 0  0  0  0  0  0  0  0  0  0  0  0  0  0  0 | 0xff000021: 0 , 0 , 0 , 0 , 0 , 0 , 0 , 0 , 0 , 0 , 0 , 0 , 0 | 0xff000022:  255 ,   68 ,   42 ,  235 ,  248 ,  255 ,  239 ,  255 ,   11 ,    0 ,   51 ,    0 ,   81 ,   31 ,   77 ,    5 ,   44 ,  135 ,  255 ,  208 ,    8 ,  128 ,    0 ,    0 ,    0 ,  128 ,    0 ,    0 ,    0 ,    0 ,    9 ,    9 ,    0 ,    0 ,    0 ,    0 ,    0 ,   89 ,  153 ,  255 ,  208 ,   40 ,    8 ,    0 ,  245 ,  165 ,   59 ,   12 ,  118 ,  248 ,   88 ,  170 
E: 000000.000471 64 01 83 80 82 7f 00 00 22 08 00 00 00 ff 44 2a eb f8 ff ef ff 0b 00 33 00 51 1f 4d 05 2c 87 ff d0 08 80 00 00 00 80 00 00 00 00 09 09 00 00 00 00 00 59 99 ff d0 28 08 00 f5 a5 3b 0c 76 f8 58 aa
# ReportID: 1 / X:  131 | Y:  128 | Z:  130 | Rz:  127 | Rx:    0 | Ry:    0 | 0xff000020:   35 | Hat switch:   8 | Button: 0  0  0  0  0  0  0  0  0  0  0  0  0  0  0 | 0xff000021: 0 , 0 , 0 , 0 , 0 , 0 , 0 , 0 , 0 , 0 , 0 , 0 , 0 | 0xff000022:    0 ,   69 ,   42 ,  235 ,  248 ,  255 ,  239 ,  255 ,   11 ,    0 ,   52 ,    0 ,  168 ,   31 ,   81 ,    5 ,   31 ,  182 ,  255 ,  208 ,    8 ,  128 ,    0 ,    0 ,    0 ,  128 ,    0 ,    0 ,    0 ,    0 ,    9 ,    9 ,    0 ,    0 ,    0 ,    0 ,    0 ,   57 ,  200 ,  255 ,  208 ,   40 ,    8 ,    0 ,   13 ,  207 ,  200 ,  133 ,    4 ,  249 ,  143 ,   23 
E: 000000.005829 64 01 83 80 82 7f 00 00 23 08 00 00 00 00 45 2a eb f8 ff ef ff 0b 00 34 00 a8 1f 51 05 1f b6 ff d0 08 80 00 00 00 80 00 00 00 00 09 09 00 00 00 00 00 39 c8 ff d0 28 08 00 0d cf c8 85 04 f9 8f 17
# ReportID: 1 / X:  131 | Y:  128 | Z:  129 | Rz:  127 | Rx:    0 | Ry:    0 | 0xff000020:   36 | Hat switch:   8 | Button: 0  0  0  0  0  0  0  0  0  0  0  0  0  0  0 | 0xff000021: 0 , 0 , 0 , 0 , 0 , 0 , 0 , 0 , 0 , 0 , 0 , 0 , 0 | 0xff000022:    1 ,   69 ,   42 ,  235 ,  245 ,  255 ,  239 ,  255 ,   11 ,    0 ,   60 ,    0 ,  159 ,   31 ,   70 ,    5 ,   18 ,  229 ,  255 ,  208 ,    8 ,  128 ,    0 ,    0 ,    0 ,  128 ,    0 ,    0 ,    0 ,    0 ,    9 ,    9 ,    0 ,    0 ,    0 ,    0 ,    0 ,   25 ,  247 ,  255 ,  208 ,   40 ,    8 ,    0 ,  106 ,   63 ,  119 ,   88 ,  161 ,  137 ,  231 ,    6 
E: 000000.007864 64 01 83 80 81 7f 00 00 24 08 00 00 00 01 45 2a eb f5 ff ef ff 0b 00 3c 00 9f 1f 46 05 12 e5 ff d0 08 80 00 00 00 80 00 00 00 00 09 09 00 00 00 00 00 19 f7 ff d0 28 08 00 6a 3f 77 58 a1 89 e7 06
# ReportID: 1 / X:  131 | Y:  128 | Z:  129 | Rz:  127 | Rx:    0 | Ry:    0 | 0xff000020:   37 | Hat switch:   8 | Button: 0  0  0  0  0  0  0  0  0  0  0  0  0  0  0 | 0xff000021: 0 , 0 , 0 , 0 , 0 , 0 , 0 , 0 , 0 , 0 , 0 , 0 , 0 | 0xff000022:    2 ,   69 ,   42 ,  235 ,  245 ,  255 ,  239 ,  255 ,   10 ,    0 ,   47 ,    0 ,  101 ,   31 ,   43 ,    5 ,    5 ,   20 ,    0 ,  209 ,    8 ,  128 ,    0 ,    0 ,    0 ,  128 ,    0 ,    0 ,    0 ,    0 ,    9 ,    9 ,    0 ,    0 ,    0 ,    0 ,    0 ,  249 ,   37 ,    0 ,  209 ,   40 ,    8 ,    0 ,  109 ,  216 ,   63 ,  211 ,   90 ,   10 ,  223 ,    1 
E: 000000.012098 64 01 83 80 81 7f 00 00 25 08 00 00 00 02 45 2a eb f5 ff ef ff 0a 00 2f 00 65 1f 2b 05 05 14 00 d1 08 80 00 00 00 80 00 00 00 00 09 09 00 00 00 00 00 f9 25 00 d1 28 08 00 6d d8 3f d3 5a 0a df 01
# ReportID: 1 / X:  131 | Y:  128 | Z:  129 | Rz:  127 | Rx:    0 | Ry:    0 | 0xff000020:   38 | Hat switch:   8 | Button: 0  0  0  0  0  0  0  0  0  0  0  0  0  0  0 | 0xff000021: 0 , 0 , 0 , 0 , 0 , 0 , 0 , 0 , 0 , 0 , 0 , 0 , 0 | 0xff000022:    3 ,   69 ,   42 ,  235 ,  245 ,  255 ,  239 ,  255 ,    9 ,    0 ,   42 ,    0 ,   65 ,   31 ,   26 ,    5 ,  248 ,   66 ,    0 ,  209 ,    8 ,  128 ,    0 ,    0 ,    0 ,  128 ,    0 ,    0 ,    0 ,    0 ,    9 ,    9 ,    0 ,    0 ,    0 ,    0 ,    0 ,  217 ,   84 ,    0 ,  209 ,   40 ,    8 ,    0 ,  208 ,  244 ,   84 ,  145 ,   86 ,  149 ,    4 ,   88 
E: 000000.016241 64 01 83 80 81 7f 00 00 26 08 00 00 00 03 45 2a eb f5 ff ef ff 09 00 2a 00 41 1f 1a 05 f8 42 00 d1 08 80 00 00 00 80 00 00 00 00 09 09 00 00 00 00 00 d9 54 00 d1 28 08 00 d0 f4 54 91 56 95 04 58
# ReportID: 1 / X:  131 | Y:  128 | Z:  129 | Rz:  127 | Rx:    0 | Ry:    0 | 0xff000020:   39 | Hat switch:   8 | Button: 0  0  0  0  0  0  0  0  0  0  0  0  0  0  0 | 0xff000021: 0 , 0 , 0 , 0 , 0 , 0 , 0 , 0 , 0 , 0 , 0 , 0 , 0 | 0xff000022:    4 ,   69 ,   42 ,  235 ,  247 ,  255 ,  240 ,  255 ,   10 ,    0 ,   45 ,    0 ,   29 ,   31 ,   25 ,    5 ,  235 ,  113 ,    0 ,  209 ,    8 ,  128 ,    0 ,    0 ,    0 ,  128 ,    0 ,    0 ,    0 ,    0 ,    9 ,    9 ,    0 ,    0 ,    0 ,    0 ,    0 ,  185 ,  131 ,    0 ,  209 ,   40 ,    8 ,    0 ,   47 ,   94 ,   57 ,   78 ,   79 ,   75 ,  225 ,  198 
E: 000000.020175 64 01 83 80 81 7f 00 00 27 08 00 00 00 04 45 2a eb f7 ff f0 ff 0a 00 2d 00 1d 1f 19 05 eb 71 00 d1 08 80 00 00 00 80 00 00 00 00 09 09 00 00 00 00 00 b9 83 00 d1 28 08 00 2f 5e 39 4e 4f 4b e1 c6
# ReportID: 1 / X:  131 | Y:  128 | Z:  129 | Rz:  127 | Rx:    0 | Ry:    0 | 0xff000020:   40 | Hat switch:   8 | Button: 0  0  0  0  0  0  0  0  0  0  0  0  0  0  0 | 0xff000021: 0 , 0 , 0 , 0 , 0 , 0 , 0 , 0 , 0 , 0 , 0 , 0 , 0 | 0xff000022:    5 ,   69 ,   42 ,  235 ,  248 ,  255 ,  239 ,  255 ,   10 ,    0 ,   43 ,    0 ,   35 ,   31 ,   43 ,    5 ,  222 ,  160 ,    0 ,  209 ,    8 ,  128 ,    0 ,    0 ,    0 ,  128 ,    0 ,    0 ,    0 ,    0 ,    9 ,    9 ,    0 ,    0 ,    0 ,    0 ,    0 ,  153 ,  178 ,    0 ,  209 ,   40 ,    8 ,    0 ,   79 ,  236 ,  137 ,  243 ,   14 ,   27 ,  248 ,    3 
E: 000000.024044 64 01 83 80 81 7f 00 00 28 08 00 00 00 05 45 2a eb f8 ff ef ff 0a 00 2b 00 23 1f 2b 05 de a0 00 d1 08 80 00 00 00 80 00 00 00 00 09 09 00 00 00 00 00 99 b2 00 d1 28 08 00 4f ec 89 f3 0e 1b f8 03
# ReportID: 1 / X:  131 | Y:  128 | Z:  129 | Rz:  127 | Rx:    0 | Ry:    0 | 0xff000020:   41 | Hat switch:   8 | Button: 0  0  0  0  0  0  0  0  0  0  0  0  0  0  0 | 0xff000021: 0 , 0 , 0 , 0 , 0 , 0 , 0 , 0 , 0 , 0 , 0 , 0 , 0 | 0xff000022:    6 ,   69 ,   42 ,  235 ,  247 ,  255 ,  238 ,  255 ,   11 ,    0 ,   34 ,    0 ,   88 ,   31 ,   42 ,    5 ,  209 ,  207 ,    0 ,  209 ,    8 ,  128 ,    0 ,    0 ,    0 ,  128 ,    0 ,    0 ,    0 ,    0 ,    9 ,    9 ,    0 ,    0 ,    0 ,    0 ,    0 ,  121 ,  225 ,    0 ,  209 ,   40 ,    8 ,    0 ,  176 ,  230 ,  164 ,  209 ,   38 ,  202 ,   80 ,  124 
E: 000000.028235 64 01 83 80 81 7f 00 00 29 08 00 00 00 06 45 2a eb f7 ff ee ff 0b 00 22 00 58 1f 2a 05 d1 cf 00 d1 08 80 00 00 00 80 00 00 00 00 09 09 00 00 00 00 00 79 e1 00 d1 28 08 00 b0 e6 a4 d1 26 ca 50 7c
# ReportID: 1 / X:  131 | Y:  128 | Z:  130 | Rz:  127 | Rx:    0 | Ry:    0 | 0xff000020:   42 | Hat switch:   8 | Button: 0  0  0  0  0  0  0  0  0  0  0  0  0  0  0 | 0xff000021: 0 , 0 , 0 , 0 , 0 , 0 , 0 , 0 , 0 , 0 , 0 , 0 , 0 | 0xff000022:    7 ,   69 ,   42 ,  235 ,  246 ,  255 ,  239 ,  255 ,    9 ,    0 ,   41 ,    0 ,  126 ,   31 ,   35 ,    5 ,  196 ,  254 ,    0 ,  209 ,    8 ,  128 ,    0 ,    0 ,    0 ,  128 ,    0 ,    0 ,    0 ,    0 ,    9 ,    9 ,    0 ,    0 ,    0 ,    0 ,    0 ,   89 ,   16 ,    1 ,  209 ,   40 ,    8 ,    0 ,   79 ,  126 ,  146 ,   43 ,  160 ,  119 ,   94 ,   30 
E: 000000.032331 64 01 83 80 82 7f 00 00 2a 08 00 00 00 07 45 2a eb f6 ff ef ff 09 00 29 00 7e 1f 23 05 c4 fe 00 d1 08 80 00 00 00 80 00 00 00 00 09 09 00 00 00 00 00 59 10 01 d1 28 08 00 4f 7e 92 2b a0 77 5e 1e
# ReportID: 1 / X:  131 | Y:  128 | Z:  129 | Rz:  127 | Rx:    0 | Ry:    0 | 0xff000020:   43 | Hat switch:   8 | Button: 0  0  0  0  0  0  0  0  0  0  0  0  0  0  0 | 0xff000021: 0 , 0 , 0 , 0 , 0 , 0 , 0 , 0 , 0 , 0 , 0 , 0 , 0 | 0xff000022:    8 ,   69 ,   42 ,  235 ,  246 ,  255 ,  238 ,  255 ,   10 ,    0 ,   28 ,    0 ,  130 ,   31 ,   38 ,    5 ,  183 ,   45 ,    1 ,  209 ,    8 ,  128 ,    0 ,    0 ,    0 ,  128 ,    0 ,    0 ,    0 ,    0 ,    9 ,    9 ,    0 ,    0 ,    0 ,    0 ,    0 ,   57 ,   63 ,    1 ,  209 ,   40 ,    8 ,    0 ,   89 ,    0 ,   80 ,    4 ,  108 ,  222 ,  143 ,   22 
E: 000000.036333 64 01 83 80 81 7f 00 00 2b 08 00 00 00 08 45 2a eb f6 ff ee ff 0a 00 1c 00 82 1f 26 05 b7 2d 01 d1 08 80 00 00 00 80 00 00 00 00 09 09 00 00 00 00 00 39 3f 01 d1 28 08 00 59 00 50 04 6c de 8f 16
# ReportID: 1 / X:  131 | Y:  128 | Z:  130 | Rz:  127 | Rx:    0 | Ry:    0 | 0xff000020:   44 | Hat switch:   8 | Button: 0  0  0  0  0  0  0  0  0  0  0  0  0  0  0 | 0xff000021: 0 , 0 , 0 , 0 , 0 , 0 , 0 , 0 , 0 , 0 , 0 , 0 , 0 | 0xff000022:    9 ,   69 ,   42 ,  235 ,  246 ,  255 ,  238 ,  255 ,    9 ,    0 ,   29 ,    0 ,  106 ,   31 ,   43 ,    5 ,  170 ,   92 ,    1 ,  209 ,    8 ,  128 ,    0 ,    0 ,    0 ,  128 ,    0 ,    0 ,    0 ,    0 ,    9 ,    9 ,    0 ,    0 ,    0 ,    0 ,    0 ,   25 ,  110 ,    1 ,  209 ,   40 ,    8 ,    0 ,  121 ,   52 ,  203 ,  197 ,   83 ,  225 ,   43 ,  254 
E: 000000.040228 64 01 83 80 82 7f 00 00 2c 08 00 00 00 09 45 2a eb f6 ff ee ff 09 00 1d 00 6a 1f 2b 05 aa 5c 01 d1 08 80 00 00 00 80 00 00 00 00 09 09 00 00 00 00 00 19 6e 01 d1 28 08 00 79 34 cb c5 53 e1 2b fe
# ReportID: 1 / X:  131 | Y:  128 | Z:  130 | Rz:  127 | Rx:    0 | Ry:    0 | 0xff000020:   45 | Hat switch:   8 | Button: 0  0  0  0  0  0  0  0  0  0  0  0  0  0  0 | 0xff000021: 0 , 0 , 0 , 0 , 0 , 0 , 0 , 0 , 0 , 0 , 0 , 0 , 0 | 0xff000022:   10 ,   69 ,   42 ,  235 ,  245 ,  255 ,  239 ,  255 ,   10 ,    0 ,   41 ,    0 ,   74 ,   31 ,   39 ,    5 ,  158 ,  139 ,    1 ,  209 ,    8 ,  128 ,    0 ,    0 ,    0 ,  128 ,    0 ,    0 ,    0 ,    0 ,    9 ,    9 ,    0 ,    0 ,    0 ,    0 ,    0 ,  249 ,  156 ,    1 ,  209 ,   40 ,    8 ,    0 ,   16 ,   36 ,  141 ,  130 ,  163 ,   85 ,  116 ,  145 
E: 000000.044242 64 01 83 80 82 7f 00 00 2d 08 00 00 00 0a 45 2a eb f5 ff ef ff 0a 00 29 00 4a 1f 27 05 9e 8b 01 d1 08 80 00 00 00 80 00 00 00 00 09 09 00 00 00 00 00 f9 9c 01 d1 28 08 00 10 24 8d 82 a3 55 74 91
# ReportID: 1 / X:  131 | Y:  128 | Z:  130 | Rz:  127 | Rx:    0 | Ry:    0 | 0xff000020:   46 | Hat switch:   8 | Button: 0  0  0  0  0  0  0  0  0  0  0  0  0  0  0 | 0xff000021: 0 , 0 , 0 , 0 , 0 , 0 , 0 , 0 , 0 , 0 , 0 , 0 , 0 | 0xff000022:   11 ,   69 ,   42 ,  235 ,  246 ,  255 ,  238 ,  255 ,   10 ,    0 ,   44 ,    0 ,   68 ,   31 ,   52 ,    5 ,  145 ,  186 ,    1 ,  209 ,    8 ,  128 ,    0 ,    0 ,    0 ,  128 ,    0 ,    0 ,    0 ,    0 ,    9 ,    9 ,    0 ,    0 ,    0 ,    0 ,    0 ,  217 ,  203 ,    1 ,  209 ,   40 ,    8 ,    0 ,  198 ,  193 ,  193 ,  204 ,  104 ,    6 ,   54 ,  238 
E: 000000.048848 64 01 83 80 82 7f 00 00 2e 08 00 00 00 0b 45 2a eb f6 ff ee ff 0a 00 2c 00 44 1f 34 05 91 ba 01 d1 08 80 00 00 00 80 00 00 00 00 09 09 00 00 00 00 00 d9 cb 01 d1 28 08 00 c6 c1 c1 cc 68 06 36 ee
# ReportID: 1 / X:  131 | Y:  128 | Z:  129 | Rz:  127 | Rx:    0 | Ry:    0 | 0xff000020:   47 | Hat switch:   8 | Button: 0  0  0  0  0  0  0  0  0  0  0  0  0  0  0 | 0xff000021: 0 , 0 , 0 , 0 , 0 , 0 , 0 , 0 , 0 , 0 , 0 , 0 , 0 | 0xff000022:   12 ,   69 ,   42 ,  235 ,  248 ,  255 ,  237 ,  255 ,   10 ,    0 ,   47 ,    0 ,   71 ,   31 ,   49 ,    5 ,  132 ,  233 ,    1 ,  209 ,    8 ,  128 ,    0 ,    0 ,    0 ,  128 ,    0 ,    0 ,    0 ,    0 ,    9 ,    9 ,    0 ,    0 ,    0 ,    0 ,    0 ,  185 ,  250 ,    1 ,  209 ,   40 ,    8 ,    0 ,  108 ,  197 ,  109 ,  124 ,  127 ,  235 ,  220 ,  190 
E: 000000.052226 64 01 83 80 81 7f 00 00 2f 08 00 00 00 0c 45 2a eb f8 ff ed ff 0a 00 2f 00 47 1f 31 05 84 e9 01 d1 08 80 00 00 00 80 00 00 00 00 09 09 00 00 00 00 00 b9 fa 01 d1 28 08 00 6c c5 6d 7c 7f eb dc be
# ReportID: 1 / X:  131 | Y:  128 | Z:  130 | Rz:  127 | Rx:    0 | Ry:    0 | 0xff000020:   48 | Hat switch:   8 | Button: 0  0  0  0  0  0  0  0  0  0  0  0  0  0  0 | 0xff000021: 0 , 0 , 0 , 0 , 0 , 0 , 0 , 0 , 0 , 0 , 0 , 0 , 0 | 0xff000022:   13 ,   69 ,   42 ,  235 ,  245 ,  255 ,  237 ,  255 ,   11 ,    0 ,   46 ,    0 ,   94 ,   31 ,   60 ,    5 ,  119 ,   24 ,    2 ,  209 ,    8 ,  128 ,    0 ,    0 ,    0 ,  128 ,    0 ,    0 ,    0 ,    0 ,    9 ,    9 ,    0 ,    0 ,    0 ,    0 ,    0 ,  153 ,   41 ,    2 ,  209 ,   40 ,    8 ,    0 ,  210 ,   25 ,  168 ,   58 ,  222 ,  172 ,  107 ,   67 
E: 000000.056077 64 01 83 80 82 7f 00 00 30 08 00 00 00 0d 45 2a eb f5 ff ed ff 0b 00 2e 00 5e 1f 3c 05 77 18 02 d1 08 80 00 00 00 80 00 00 00 00 09 09 00 00 00 00 00 99 29 02 d1 28 08 00 d2 19 a8 3a de ac 6b 43
# ReportID: 1 / X:  131 | Y:  128 | Z:  130 | Rz:  127 | Rx:    0 | Ry:    0 | 0xff000020:   49 | Hat switch:   8 | Button: 0  0  0  0  0  0  0  0  0  0  0  0  0  0  0 | 0xff000021: 0 , 0 , 0 , 0 , 0 , 0 , 0 , 0 , 0 , 0 , 0 , 0 , 0 | 0xff000022:   14 ,   69 ,   42 ,  235 ,  245 ,  255 ,  238 ,  255 ,   11 ,    0 ,   50 ,    0 ,  108 ,   31 ,   58 ,    5 ,  106 ,   71 ,    2 ,  209 ,    8 ,  128 ,    0 ,    0 ,    0 ,  128 ,    0 ,    0 ,    0 ,    0 ,    9 ,    9 ,    0 ,    0 ,    0 ,    0 ,    0 ,  121 ,   88 ,    2 ,  209 ,   40 ,    8 ,    0 ,  233 ,  242 ,  192 ,    6 ,  213 ,   92 ,   71 ,    7 
E: 000000.060006 64 01 83 80 82 7f 00 00 31 08 00 00 00 0e 45 2a eb f5 ff ee ff 0b 00 32 00 6c 1f 3a 05 6a 47 02 d1 08 80 00 00 00 80 00 00 00 00 09 09 00 00 00 00 00 79 58 02 d1 28 08 00 e9 f2 c0 06 d5 5c 47 07
# ReportID: 1 / X:  131 | Y:  128 | Z:  130 | Rz:  127 | Rx:    0 | Ry:    0 | 0xff000020:   50 | Hat switch:   8 | Button: 0  0  0  0  0  0  0  0  0  0  0  0  0  0  0 | 0xff000021: 0 , 0 , 0 , 0 , 0 , 0 , 0 , 0 , 0 , 0 , 0 , 0 , 0 | 0xff000022:   15 ,   69 ,   42 ,  235 ,  247 ,  255 ,  237 ,  255 ,    9 ,    0 ,   51 ,    0 ,   76 ,   31 ,   64 ,    5 ,   93 ,  118 ,    2 ,  209 ,    8 ,  128 ,    0 ,    0 ,    0 ,  128 ,    0 ,    0 ,    0 ,    0 ,    9 ,    9 ,    0 ,    0 ,    0 ,    0 ,    0 ,   89 ,  135 ,    2 ,  209 ,   40 ,    8 ,    0 ,   94 ,  162 ,  133 ,  220 ,  140 ,  134 ,  255 ,  231 
E: 000000.064005 64 01 83 80 82 7f 00 00 32 08 00 00 00 0f 45 2a eb f7 ff ed ff 09 00 33 00 4c 1f 40 05 5d 76 02 d1 08 80 00 00 00 80 00 00 00 00 09 09 00 00 00 00 00 59 87 02 d1 28 08 00 5e a2 85 dc 8c 86 ff e7
# ReportID: 1 / X:  131 | Y:  128 | Z:  130 | Rz:  127 | Rx:    0 | Ry:    0 | 0xff000020:   51 | Hat switch:   8 | Button: 0  0  0  0  0  0  0  0  0  0  0  0  0  0  0 | 0xff000021: 0 , 0 , 0 , 0 , 0 , 0 , 0 , 0 , 0 , 0 , 0 , 0 , 0 | 0xff000022:   16 ,   69 ,   42 ,  235 ,  246 ,  255 ,  237 ,  255 ,    9 ,    0 ,   52 ,    0 ,   42 ,   31 ,   60 ,    5 ,   80 ,  165 ,    2 ,  209 ,    8 ,  128 ,    0 ,    0 ,    0 ,  128 ,    0 ,    0 ,    0 ,    0 ,    9 ,    9 ,    0 ,    0 ,    0 ,    0 ,    0 ,   57 ,  182 ,    2 ,  209 ,   40 ,    8 ,    0 ,  176 ,  100 ,  142 ,   98 ,  161 ,   45 ,   51 ,  218 
E: 000000.069738 64 01 83 80 82 7f 00 00 33 08 00 00 00 10 45 2a eb f6 ff ed ff 09 00 34 00 2a 1f 3c 05 50 a5 02 d1 08 80 00 00 00 80 00 00 00 00 09 09 00 00 00 00 00 39 b6 02 d1 28 08 00 b0 64 8e 62 a1 2d 33 da
# ReportID: 1 / X:  131 | Y:  128 | Z:  129 | Rz:  127 | Rx:    0 | Ry:    0 | 0xff000020:   52 | Hat switch:   8 | Button: 0  0  0  0  0  0  0  0  0  0  0  0  0  0  0 | 0xff000021: 0 , 0 , 0 , 0 , 0 , 0 , 0 , 0 , 0 , 0 , 0 , 0 , 0 | 0xff000022:   17 ,   69 ,   42 ,  235 ,  247 ,  255 ,  239 ,  255 ,    9 ,    0 ,   57 ,    0 ,   41 ,   31 ,   60 ,    5 ,   67 ,  212 ,    2 ,  209 ,    8 ,  128 ,    0 ,    0 ,    0 ,  128 ,    0 ,    0 ,    0 ,    0 ,    9 ,    9 ,    0 ,    0 ,    0 ,    0 ,    0 ,   25 ,  229 ,    2 ,  209 ,   40 ,    8 ,    0 ,  107 ,   37 ,   91 ,  112 ,   23 ,  117 ,  129 ,  143 
E: 000000.073360 64 01 83 80 81 7f 00 00 34 08 00 00 00 11 45 2a eb f7 ff ef ff 09 00 39 00 29 1f 3c 05 43 d4 02 d1 08 80 00 00 00 80 00 00 00 00 09 09 00 00 00 00 00 19 e5 02 d1 28 08 00 6b 25 5b 70 17 75 81 8f
# ReportID: 1 / X:  131 | Y:  128 | Z:  129 | Rz:  127 | Rx:    0 | Ry:    0 | 0xff000020:   53 | Hat switch:   8 | Button: 0  0  0  0  0  0  0  0  0  0  0  0  0  0  0 | 0xff000021: 0 , 0 , 0 , 0 , 0 , 0 , 0 , 0 , 0 , 0 , 0 , 0 , 0 | 0xff000022:   18 ,   69 ,   42 ,  235 ,  247 ,  255 ,  238 ,  255 ,   10 ,    0 ,   60 ,    0 ,   54 ,   31 ,   59 ,    5 ,   54 ,    3 ,    3 ,  209 ,    8 ,  128 ,    0 ,    0 ,    0 ,  128 ,    0 ,    0 ,    0 ,    0 ,    9 ,    9 ,    0 ,    0 ,    0 ,    0 ,    0 ,  249 ,   19 ,    3 ,  209 ,   40 ,    8 ,    0 ,   79 ,   73 ,  129 ,   80 ,  166 ,   93 ,  215 ,  143 
E: 000000.077705 64 01 83 80 81 7f 00 00 35 08 00 00 00 12 45 2a eb f7 ff ee ff 0a 00 3c 00 36 1f 3b 05 36 03 03 d1 08 80 00 00 00 80 00 00 00 00 09 09 00 00 00 00 00 f9 13 03 d1 28 08 00 4f 49 81 50 a6 5d d7 8f
# ReportID: 1 / X:  131 | Y:  128 | Z:  130 | Rz:  127 | Rx:    0 | Ry:    0 | 0xff000020:   54 | Hat switch:   8 | Button: 0  0  0  0  0  0  0  0  0  0  0  0  0  0  0 | 0xff000021: 0 , 0 , 0 , 0 , 0 , 0 , 0 , 0 , 0 , 0 , 0 , 0 , 0 | 0xff000022:   19 ,   69 ,   42 ,  235 ,  248 ,  255 ,  240 ,  255 ,    9 ,    0 ,   75 ,    0 ,   86 ,   31 ,   63 ,    5 ,   41 ,   50 ,    3 ,  209 ,    8 ,  128 ,    0 ,    0 ,    0 ,  128 ,    0 ,    0 ,    0 ,    0 ,    9 ,    9 ,    0 ,    0 ,    0 ,    0 ,    0 ,  217 ,   66 ,    3 ,  209 ,   40 ,    8 ,    0 ,  200 ,  219 ,   25 ,  110 ,   54 ,   26 ,   92 ,  219 
E: 000000.080703 64 01 83 80 82 7f 00 00 36 08 00 00 00 13 45 2a eb f8 ff f0 ff 09 00 4b 00 56 1f 3f 05 29 32 03 d1 08 80 00 00 00 80 00 00 00 00 09 09 00 00 00 00 00 d9 42 03 d1 28 08 00 c8 db 19 6e 36 1a 5c db
# ReportID: 1 / X:  131 | Y:  128 | Z:  129 | Rz:  127 | Rx:    0 | Ry:    0 | 0xff000020:   55 | Hat switch:   8 | Button: 0  0  0  0  0  0  0  0  0  0  0  0  0  0  0 | 0xff000021: 0 , 0 , 0 , 0 , 0 , 0 , 0 , 0 , 0 , 0 , 0 , 0 , 0 | 0xff000022:   20 ,   69 ,   42 ,  235 ,  247 ,  255 ,  239 ,  255 ,   11 ,    0 ,   71 ,    0 ,   88 ,   31 ,   61 ,    5 ,   28 ,   97 ,    3 ,  209 ,    8 ,  128 ,    0 ,    0 ,    0 ,  128 ,    0 ,    0 ,    0 ,    0 ,    9 ,    9 ,    0 ,    0 ,    0 ,    0 ,    0 ,  185 ,  113 ,    3 ,  209 ,   40 ,    8 ,    0 ,   93 ,   77 ,  247 ,   84 ,  158 ,  121 ,  207 ,  255 
E: 000000.085449 64 01 83 80 81 7f 00 00 37 08 00 00 00 14 45 2a eb f7 ff ef ff 0b 00 47 00 58 1f 3d 05 1c 61 03 d1 08 80 00 00 00 80 00 00 00 00 09 09 00 00 00 00 00 b9 71 03 d1 28 08 00 5d 4d f7 54 9e 79 cf ff
# ReportID: 1 / X:  131 | Y:  128 | Z:  129 | Rz:  127 | Rx:    0 | Ry:    0 | 0xff000020:   56 | Hat switch:   8 | Button: 0  0  0  0  0  0  0  0  0  0  0  0  0  0  0 | 0xff000021: 0 , 0 , 0 , 0 , 0 , 0 , 0 , 0 , 0 , 0 , 0 , 0 , 0 | 0xff000022:   21 ,   69 ,   42 ,  235 ,  246 ,  255 ,  239 ,  255 ,   11 ,    0 ,   68 ,    0 ,  103 ,   31 ,   59 ,    5 ,   15 ,  144 ,    3 ,  209 ,    8 ,  128 ,    0 ,    0 ,    0 ,  128 ,    0 ,    0 ,    0 ,    0 ,    9 ,    9 ,    0 ,    0 ,    0 ,    0 ,    0 ,  153 ,  160 ,    3 ,  209 ,   40 ,    8 ,    0 ,  155 ,   24 ,  118 ,   71 ,  217 ,   91 ,  111 ,   10 
E: 000000.088791 64 01 83 80 81 7f 00 00 38 08 00 00 00 15 45 2a eb f6 ff ef ff 0b 00 44 00 67 1f 3b 05 0f 90 03 d1 08 80 00 00 00 80 00 00 00 00 09 09 00 00 00 00 00 99 a0 03 d1 28 08 00 9b 18 76 47 d9 5b 6f 0a
# ReportID: 1 / X:  131 | Y:  128 | Z:  129 | Rz:  127 | Rx:    0 | Ry:    0 | 0xff000020:   57 | Hat switch:   8 | Button: 0  0  0  0  0  0  0  0  0  0  0  0  0  0  0 | 0xff000021: 0 , 0 , 0 , 0 , 0 , 0 , 0 , 0 , 0 , 0 , 0 , 0 , 0 | 0xff000022:   22 ,   69 ,   42 ,  235 ,  246 ,  255 ,  239 ,  255 ,   11 ,    0 ,   67 ,    0 ,  106 ,   31 ,   51 ,    5 ,    2 ,  191 ,    3 ,  209 ,    8 ,  128 ,    0 ,    0 ,    0 ,  128 ,    0 ,    0 ,    0 ,    0 ,    9 ,    9 ,    0 ,    0 ,    0 ,    0 ,    0 ,  121 ,  207 ,    3 ,  209 ,   40 ,    8 ,    0 ,  153 ,  156 ,   36 ,   31 ,  205 ,    8 ,  162 ,  130 
E: 000000.093790 64 01 83 80 81 7f 00 00 39 08 00 00 00 16 45 2a eb f6 ff ef ff 0b 00 43 00 6a 1f 33 05 02 bf 03 d1 08 80 00 00 00 80 00 00 00 00 09 09 00 00 00 00 00 79 cf 03 d1 28 08 00 99 9c 24 1f cd 08 a2 82
# ReportID: 1 / X:  131 | Y:  128 | Z:  129 | Rz:  127 | Rx:    0 | Ry:    0 | 0xff000020:   58 | Hat switch:   8 | Button: 0  0  0  0  0  0  0  0  0  0  0  0  0  0  0 | 0xff000021: 0 , 0 , 0 , 0 , 0 , 0 , 0 , 0 , 0 , 0 , 0 , 0 , 0 | 0xff000022:   23 ,   69 ,   42 ,  235 ,  246 ,  255 ,  238 ,  255 ,   10 ,    0 ,   55 ,    0 ,   89 ,   31 ,   48 ,    5 ,  245 ,  237 ,    3 ,  209 ,    8 ,  128 ,    0 ,    0 ,    0 ,  128 ,    0 ,    0 ,    0 ,    0 ,    9 ,    9 ,    0 ,    0 ,    0 ,    0 ,    0 ,   89 ,  254 ,    3 ,  209 ,   40 ,    8 ,    0 ,  110 ,   93 ,  207 ,   13 ,   86 ,   50 ,  114 ,  119 
E: 000000.097392 64 01 83 80 81 7f 00 00 3a 08 00 00 00 17 45 2a eb f6 ff ee ff 0a 00 37 00 59 1f 30 05 f5 ed 03 d1 08 80 00 00 00 80 00 00 00 00 09 09 00 00 00 00 00 59 fe 03 d1 28 08 00 6e 5d cf 0d 56 32 72 77
# ReportID: 1 / X:  131 | Y:  128 | Z:  130 | Rz:  127 | Rx:    0 | Ry:    0 | 0xff000020:   59 | Hat switch:   8 | Button: 0  0  0  0  0  0  0  0  0  0  0  0  0  0  0 | 0xff000021: 0 , 0 , 0 , 0 , 0 , 0 , 0 , 0 , 0 , 0 , 0 , 0 , 0 | 0xff000022:   24 ,   69 ,   42 ,  235 ,  246 ,  255 ,  239 ,  255 ,   11 ,    0 ,   69 ,    0 ,  109 ,   31 ,   36 ,    5 ,  233 ,   28 ,    4 ,  209 ,    8 ,  128 ,    0 ,    0 ,    0 ,  128 ,    0 ,    0 ,    0 ,    0 ,    9 ,    9 ,    0 ,    0 ,    0 ,    0 ,    0 ,   57 ,   45 ,    4 ,  209 ,   40 ,    8 ,    0 ,  215 ,   97 ,  155 ,   10 ,   75 ,  198 ,   54 ,   95 
E: 000000.100434 64 01 83 80 82 7f 00 00 3b 08 00 00 00 18 45 2a eb f6 ff ef ff 0b 00 45 00 6d 1f 24 05 e9 1c 04 d1 08 80 00 00 00 80 00 00 00 00 09 09 00 00 00 00 00 39 2d 04 d1 28 08 00 d7 61 9b 0a 4b c6 36 5f
# ReportID: 1 / X:  131 | Y:  128 | Z:  130 | Rz:  127 | Rx:    0 | Ry:    0 | 0xff000020:   60 | Hat switch:   8 | Button: 0  0  0  0  0  0  0  0  0  0  0  0  0  0  0 | 0xff000021: 0 , 0 , 0 , 0 , 0 , 0 , 0 , 0 , 0 , 0 , 0 , 0 , 0 | 0xff000022:   25 ,   69 ,   42 ,  235 ,  246 ,  255 ,  240 ,  255 ,   11 ,    0 ,   65 ,    0 ,   95 ,   31 ,   32 ,    5 ,  220 ,   75 ,    4 ,  209 ,    8 ,  128 ,    0 ,    0 ,    0 ,  128 ,    0 ,    0 ,    0 ,    0 ,    9 ,    9 ,    0 ,    0 ,    0 ,    0 ,    0 ,   25 ,   92 ,    4 ,  209 ,   40 ,    8 ,    0 ,   21 ,  190 ,   50 ,  118 ,   80 ,  235 ,  156 ,  218 
E: 000000.104287 64 01 83 80 82 7f 00 00 3c 08 00 00 00 19 45 2a eb f6 ff f0 ff 0b 00 41 00 5f 1f 20 05 dc 4b 04 d1 08 80 00 00 00 80 00 00 00 00 09 09 00 00 00 00 00 19 5c 04 d1 28 08 00 15 be 32 76 50 eb 9c da
# ReportID: 1 / X:  131 | Y:  128 | Z:  129 | Rz:  127 | Rx:    0 | Ry:    0 | 0xff000020:   61 | Hat switch:   8 | Button: 0  0  0  0  0  0  0  0  0  0  0  0  0  0  0 | 0xff000021: 0 , 0 , 0 , 0 , 0 , 0 , 0 , 0 , 0 , 0 , 0 , 0 , 0 | 0xff000022:   26 ,   69 ,   42 ,  235 ,  246 ,  255 ,  239 ,  255 ,   11 ,    0 ,   62 ,    0 ,   71 ,   31 ,   33 ,    5 ,  207 ,  122 ,    4 ,  209 ,    8 ,  128 ,    0 ,    0 ,    0 ,  128 ,    0 ,    0 ,    0 ,    0 ,    9 ,    9 ,    0 ,    0 ,    0 ,    0 ,    0 ,  249 ,  138 ,    4 ,  209 ,   40 ,    8 ,    0 ,  133 ,  136 ,  159 ,  104 ,  228 ,  112 ,  124 ,  220 
E: 000000.108113 64 01 83 80 81 7f 00 00 3d 08 00 00 00 1a 45 2a eb f6 ff ef ff 0b 00 3e 00 47 1f 21 05 cf 7a 04 d1 08 80 00 00 00 80 00 00 00 00 09 09 00 00 00 00 00 f9 8a 04 d1 28 08 00 85 88 9f 68 e4 70 7c dc
# ReportID: 1 / X:  131 | Y:  128 | Z:  130 | Rz:  127 | Rx:    0 | Ry:    0 | 0xff000020:   62 | Hat switch:   8 | Button: 0  0  0  0  0  0  0  0  0  0  0  0  0  0  0 | 0xff000021: 0 , 0 , 0 , 0 , 0 , 0 , 0 , 0 , 0 , 0 , 0 , 0 , 0 | 0xff000022:   27 ,   69 ,   42 ,  235 ,  245 ,  255 ,  240 ,  255 ,   11 ,    0 ,   54 ,    0 ,   73 ,   31 ,   32 ,    5 ,  194 ,  169 ,    4 ,  209 ,    8 ,  128 ,    0 ,    0 ,    0 ,  128 ,    0 ,    0 ,    0 ,    0 ,    9 ,    9 ,    0 ,    0 ,    0 ,    0 ,    0 ,  217 ,  185 ,    4 ,  209 ,   40 ,    8 ,    0 ,   93 ,  237 ,   53 ,  238 ,   90 ,   53 ,   64 ,    5 
E: 000000.113749 64 01 83 80 82 7f 00 00 3e 08 00 00 00 1b 45 2a eb f5 ff f0 ff 0b 00 36 00 49 1f 20 05 c2 a9 04 d1 08 80 00 00 00 80 00 00 00 00 09 09 00 00 00 00 00 d9 b9 04 d1 28 08 00 5d ed 35 ee 5a 35 40 05
# ReportID: 1 / X:  131 | Y:  128 | Z:  130 | Rz:  127 | Rx:    0 | Ry:    0 | 0xff000020:   63 | Hat switch:   8 | Button: 0  0  0  0  0  0  0  0  0  0  0  0  0  0  0 | 0xff000021: 0 , 0 , 0 , 0 , 0 , 0 , 0 , 0 , 0 , 0 , 0 , 0 , 0 | 0xff000022:   28 ,   69 ,   42 ,  235 ,  247 ,  255 ,  240 ,  255 ,   10 ,    0 ,   66 ,    0 ,   99 ,   31 ,   32 ,    5 ,  181 ,  216 ,    4 ,  209 ,    8 ,  128 ,    0 ,    0 ,    0 ,  128 ,    0 ,    0 ,    0 ,    0 ,    9 ,    9 ,    0 ,    0 ,    0 ,    0 ,    0 ,  185 ,  232 ,    4 ,  209 ,   40 ,    8 ,    0 ,  147 ,  194 ,  105 ,   34 ,  110 ,    7 ,  104 ,   49 
E: 000000.116736 64 01 83 80 82 7f 00 00 3f 08 00 00 00 1c 45 2a eb f7 ff f0 ff 0a 00 42 00 63 1f 20 05 b5 d8 04 d1 08 80 00 00 00 80 00 00 00 00 09 09 00 00 00 00 00 b9 e8 04 d1 28 08 00 93 c2 69 22 6e 07 68 31
# ReportID: 1 / X:  131 | Y:  128 | Z:  130 | Rz:  127 | Rx:    0 | Ry:    0 | 0xff000020:   64 | Hat switch:   8 | Button: 0  0  0  0  0  0  0  0  0  0  0  0  0  0  0 | 0xff000021: 0 , 0 , 0 , 0 , 0 , 0 , 0 , 0 , 0 , 0 , 0 , 0 , 0 | 0xff000022:   29 ,   69 ,   42 ,  235 ,  246 ,  255 ,  238 ,  255 ,   11 ,    0 ,   62 ,    0 ,   92 ,   31 ,   32 ,    5 ,  168 ,    7 ,    5 ,  209 ,    8 ,  128 ,    0 ,    0 ,    0 ,  128 ,    0 ,    0 ,    0 ,    0 ,    9 ,    9 ,    0 ,    0 ,    0 ,    0 ,    0 ,  153 ,   23 ,    5 ,  209 ,   40 ,    8 ,    0 ,  229 ,   59 ,   10 ,  206 ,  231 ,   82 ,  129 ,  194 
E: 000000.120092 64 01 83 80 82 7f 00 00 40 08 00 00 00 1d 45 2a eb f6 ff ee ff 0b 00 3e 00 5c 1f 20 05 a8 07 05 d1 08 80 00 00 00 80 00 00 00 00 09 09 00 00 00 00 00 99 17 05 d1 28 08 00 e5 3b 0a ce e7 52 81 c2
# ReportID: 1 / X:  131 | Y:  128 | Z:  130 | Rz:  127 | Rx:    0 | Ry:    0 | 0xff000020:   65 | Hat switch:   8 | Button: 0  0  0  0  0  0  0  0  0  0  0  0  0  0  0 | 0xff000021: 0 , 0 , 0 , 0 , 0 , 0 , 0 , 0 , 0 , 0 , 0 , 0 , 0 | 0xff000022:   30 ,   69 ,   42 ,  235 ,  247 ,  255 ,  239 ,  255 ,   10 ,    0 ,   51 ,    0 ,   87 ,   31 ,   31 ,    5 ,  155 ,   54 ,    5 ,  209 ,    8 ,  128 ,    0 ,    0 ,    0 ,  128 ,    0 ,    0 ,    0 ,    0 ,    9 ,    9 ,    0 ,    0 ,    0 ,    0 ,    0 ,  121 ,   70 ,    5 ,  209 ,   40 ,    8 ,    0 ,  175 ,    1 ,   88 ,  195 ,  240 ,  206 ,  203 ,   92 
E: 000000.123980 64 01 83 80 82 7f 00 00 41 08 00 00 00 1e 45 2a eb f7 ff ef ff 0a 00 33 00 57 1f 1f 05 9b 36 05 d1 08 80 00 00 00 80 00 00 00 00 09 09 00 00 00 00 00 79 46 05 d1 28 08 00 af 01 58 c3 f0 ce cb 5c
# ReportID: 1 / X:  131 | Y:  128 | Z:  130 | Rz:  127 | Rx:    0 | Ry:    0 | 0xff000020:   66 | Hat switch:   8 | Button: 0  0  0  0  0  0  0  0  0  0  0  0  0  0  0 | 0xff000021: 0 , 0 , 0 , 0 , 0 , 0 , 0 , 0 , 0 , 0 , 0 , 0 , 0 | 0xff000022:   31 ,   69 ,   42 ,  235 ,  245 ,  255 ,  238 ,  255 ,   10 ,    0 ,   55 ,    0 ,  103 ,   31 ,   40 ,    5 ,  142 ,  101 ,    5 ,  209 ,    8 ,  128 ,    0 ,    0 ,    0 ,  128 ,    0 ,    0 ,    0 ,    0 ,    9 ,    9 ,    0 ,    0 ,    0 ,    0 ,    0 ,   89 ,  117 ,    5 ,  209 ,   40 ,    8 ,    0 ,    7 ,  230 ,  197 ,  152 ,  216 ,  145 ,  157 ,  223 
E: 000000.129538 64 01 83 80 82 7f 00 00 42 08 00 00 00 1f 45 2a eb f5 ff ee ff 0a 00 37 00 67 1f 28 05 8e 65 05 d1 08 80 00 00 00 80 00 00 00 00 09 09 00 00 00 00 00 59 75 05 d1 28 08 00 07 e6 c5 98 d8 91 9d df
# ReportID: 1 / X:  131 | Y:  128 | Z:  130 | Rz:  127 | Rx:    0 | Ry:    0 | 0xff000020:   67 | Hat switch:   8 | Button: 0  0  0  0  0  0  0  0  0  0  0  0  0  0  0 | 0xff000021: 0 , 0 , 0 , 0 , 0 , 0 , 0 , 0 , 0 , 0 , 0 , 0 , 0 | 0xff000022:   32 ,   69 ,   42 ,  235 ,  244 ,  255 ,  238 ,  255 ,   10 ,    0 ,   59 ,    0 ,  106 ,   31 ,   54 ,    5 ,  129 ,  148 ,    5 ,  209 ,    8 ,  128 ,    0 ,    0 ,    0 ,  128 ,    0 ,    0 ,    0 ,    0 ,    9 ,    9 ,    0 ,    0 ,    0 ,    0 ,    0 ,   57 ,  164 ,    5 ,  209 ,   40 ,    8 ,    0 ,   83 ,  116 ,  200 ,   27 ,   13 ,  142 ,  109 ,   20 
E: 000000.132561 64 01 83 80 82 7f 00 00 43 08 00 00 00 20 45 2a eb f4 ff ee ff 0a 00 3b 00 6a 1f 36 05 81 94 05 d1 08 80 00 00 00 80 00 00 00 00 09 09 00 00 00 00 00 39 a4 05 d1 28 08 00 53 74 c8 1b 0d 8e 6d 14
# ReportID: 1 / X:  131 | Y:  128 | Z:  129 | Rz:  127 | Rx:    0 | Ry:    0 | 0xff000020:   68 | Hat switch:   8 | Button: 0  0  0  0  0  0  0  0  0  0  0  0  0  0  0 | 0xff000021: 0 , 0 , 0 , 0 , 0 , 0 , 0 , 0 , 0 , 0 , 0 , 0 , 0 | 0xff000022:   33 ,   69 ,   42 ,  235 ,  247 ,  255 ,  237 ,  255 ,   10 ,    0 ,   47 ,    0 ,   95 ,   31 ,   52 ,    5 ,  116 ,  195 ,    5 ,  209 ,    8 ,  128 ,    0 ,    0 ,    0 ,  128 ,    0 ,    0 ,    0 ,    0 ,    9 ,    9 ,    0 ,    0 ,    0 ,    0 ,    0 ,   25 ,  211 ,    5 ,  209 ,   40 ,    8 ,    0 ,  148 ,  105 ,   60 ,  108 ,  139 ,  120 ,  165 ,  211 
E: 000000.137775 64 01 83 80 81 7f 00 00 44 08 00 00 00 21 45 2a eb f7 ff ed ff 0a 00 2f 00 5f 1f 34 05 74 c3 05 d1 08 80 00 00 00 80 00 00 00 00 09 09 00 00 00 00 00 19 d3 05 d1 28 08 00 94 69 3c 6c 8b 78 a5 d3
# ReportID: 1 / X:  131 | Y:  128 | Z:  129 | Rz:  127 | Rx:    0 | Ry:    0 | 0xff000020:   69 | Hat switch:   8 | Button: 0  0  0  0  0  0  0  0  0  0  0  0  0  0  0 | 0xff000021: 0 , 0 , 0 , 0 , 0 , 0 , 0 , 0 , 0 , 0 , 0 , 0 , 0 | 0xff000022:   34 ,   69 ,   42 ,  235 ,  246 ,  255 ,  238 ,  255 ,    9 ,    0 ,   50 ,    0 ,   87 ,   31 ,   52 ,    5 ,  103 ,  242 ,    5 ,  209 ,    8 ,  128 ,    0 ,    0 ,    0 ,  128 ,    0 ,    0 ,    0 ,    0 ,    9 ,    9 ,    0 ,    0 ,    0 ,    0 ,    0 ,  249 ,    1 ,    6 ,  209 ,   40 ,    8 ,    0 ,  173 ,  128 ,  169 ,  199 ,  181 ,   83 ,  139 ,  247 
E: 000000.141760 64 01 83 80 81 7f 00 00 45 08 00 00 00 22 45 2a eb f6 ff ee ff 09 00 32 00 57 1f 34 05 67 f2 05 d1 08 80 00 00 00 80 00 00 00 00 09 09 00 00 00 00 00 f9 01 06 d1 28 08 00 ad 80 a9 c7 b5 53 8b f7
# ReportID: 1 / X:  131 | Y:  128 | Z:  129 | Rz:  127 | Rx:    0 | Ry:    0 | 0xff000020:   70 | Hat switch:   8 | Button: 0  0  0  0  0  0  0  0  0  0  0  0  0  0  0 | 0xff000021: 0 , 0 , 0 , 0 , 0 , 0 , 0 , 0 , 0 , 0 , 0 , 0 , 0 | 0xff000022:   35 ,   69 ,   42 ,  235 ,  245 ,  255 ,  237 ,  255 ,    9 ,    0 ,   46 ,    0 ,   82 ,   31 ,   49 ,    5 ,   90 ,   33 ,    6 ,  209 ,    8 ,  128 ,    0 ,    0 ,    0 ,  128 ,    0 ,    0 ,    0 ,    0 ,    9 ,    9 ,    0 ,    0 ,    0 ,    0 ,    0 ,  217 ,   48 ,    6 ,  209 ,   40 ,    8 ,    0 ,  241 ,   67 ,  199 ,  138 ,  200 ,  165 ,    6 ,  153 
E: 000000.145529 64 01 83 80 81 7f 00 00 46 08 00 00 00 23 45 2a eb f5 ff ed ff 09 00 2e 00 52 1f 31 05 5a 21 06 d1 08 80 00 00 00 80 00 00 00 00 09 09 00 00 00 00 00 d9 30 06 d1 28 08 00 f1 43 c7 8a c8 a5 06 99
# ReportID: 1 / X:  131 | Y:  128 | Z:  129 | Rz:  127 | Rx:    0 | Ry:    0 | 0xff000020:   71 | Hat switch:   8 | Button: 0  0  0  0  0  0  0  0  0  0  0  0  0  0  0 | 0xff000021: 0 , 0 , 0 , 0 , 0 , 0 , 0 , 0 , 0 , 0 , 0 , 0 , 0 | 0xff000022:   36 ,   69 ,   42 ,  235 ,  246 ,  255 ,  237 ,  255 ,    9 ,    0 ,   51 ,    0 ,   53 ,   31 ,   39 ,    5 ,   77 ,   80 ,    6 ,  209 ,    8 ,  128 ,    0 ,    0 ,    0 ,  128 ,    0 ,    0 ,    0 ,    0 ,    9 ,    9 ,    0 ,    0 ,    0 ,    0 ,    0 ,  185 ,   95 ,    6 ,  209 ,   40 ,    8 ,    0 ,   44 ,   29 ,   78 ,  175 ,  102 ,   32 ,  209 ,  177 
E: 000000.149004 64 01 83 80 81 7f 00 00 47 08 00 00 00 24 45 2a eb f6 ff ed ff 09 00 33 00 35 1f 27 05 4d 50 06 d1 08 80 00 00 00 80 00 00 00 00 09 09 00 00 00 00 00 b9 5f 06 d1 28 08 00 2c 1d 4e af 66 20 d1 b1
# ReportID: 1 / X:  131 | Y:  128 | Z:  130 | Rz:  127 | Rx:    0 | Ry:    0 | 0xff000020:   72 | Hat switch:   8 | Button: 0  0  0  0  0  0  0  0  0  0  0  0  0  0  0 | 0xff000021: 0 , 0 , 0 , 0 , 0 , 0 , 0 , 0 , 0 , 0 , 0 , 0 , 0 | 0xff000022:   37 ,   69 ,   42 ,  235 ,  246 ,  255 ,  237 ,  255 ,   10 ,    0 ,   40 ,    0 ,   87 ,   31 ,   78 ,    5 ,   65 ,  127 ,    6 ,  209 ,    8 ,  128 ,    0 ,    0 ,    0 ,  128 ,    0 ,    0 ,    0 ,    0 ,    9 ,    9 ,    0 ,    0 ,    0 ,    0 ,    0 ,  153 ,  142 ,    6 ,  209 ,   40 ,    8 ,    0 ,    1 ,   36 ,  233 ,    8 ,  143 ,   95 ,   11 ,   40 
E: 000000.152574 64 01 83 80 82 7f 00 00 48 08 00 00 00 25 45 2a eb f6 ff ed ff 0a 00 28 00 57 1f 4e 05 41 7f 06 d1 08 80 00 00 00 80 00 00 00 00 09 09 00 00 00 00 00 99 8e 06 d1 28 08 00 01 24 e9 08 8f 5f 0b 28
# ReportID: 1 / X:  131 | Y:  128 | Z:  129 | Rz:  127 | Rx:    0 | Ry:    0 | 0xff000020:   73 | Hat switch:   8 | Button: 0  0  0  0  0  0  0  0  0  0  0  0  0  0  0 | 0xff000021: 0 , 0 , 0 , 0 , 0 , 0 , 0 , 0 , 0 , 0 , 0 , 0 , 0 | 0xff000022:   38 ,   69 ,   42 ,  235 ,  245 ,  255 ,  238 ,  255 ,   10 ,    0 ,   48 ,    0 ,  100 ,   31 ,   67 ,    5 ,   52 ,  174 ,    6 ,  209 ,    8 ,  128 ,    0 ,    0 ,    0 ,  128 ,    0 ,    0 ,    0 ,    0 ,    9 ,    9 ,    0 ,    0 ,    0 ,    0 ,    0 ,  121 ,  189 ,    6 ,  209 ,   40 ,    8 ,    0 ,  177 ,  105 ,   90 ,  107 ,   27 ,  130 ,  227 ,  195 
E: 000000.156025 64 01 83 80 81 7f 00 00 49 08 00 00 00 26 45 2a eb f5 ff ee ff 0a 00 30 00 64 1f 43 05 34 ae 06 d1 08 80 00 00 00 80 00 00 00 00 09 09 00 00 00 00 00 79 bd 06 d1 28 08 00 b1 69 5a 6b 1b 82 e3 c3
# ReportID: 1 / X:  131 | Y:  128 | Z:  130 | Rz:  127 | Rx:    0 | Ry:    0 | 0xff000020:   74 | Hat switch:   8 | Button: 0  0  0  0  0  0  0  0  0  0  0  0  0  0  0 | 0xff000021: 0 , 0 , 0 , 0 , 0 , 0 , 0 , 0 , 0 , 0 , 0 , 0 , 0 | 0xff000022:   39 ,   69 ,   42 ,  235 ,  245 ,  255 ,  238 ,  255 ,   10 ,    0 ,   54 ,    0 ,   77 ,   31 ,   54 ,    5 ,   39 ,  221 ,    6 ,  209 ,    8 ,  128 ,    0 ,    0 ,    0 ,  128 ,    0 ,    0 ,    0 ,    0 ,    9 ,    9 ,    0 ,    0 ,    0 ,    0 ,    0 ,   89 ,  236 ,    6 ,  209 ,   40 ,    8 ,    0 ,  199 ,   83 ,  160 ,   76 ,   67 ,  171 ,  225 ,  103 
E: 000000.161807 64 01 83 80 82 7f 00 00 4a 08 00 00 00 27 45 2a eb f5 ff ee ff 0a 00 36 00 4d 1f 36 05 27 dd 06 d1 08 80 00 00 00 80 00 00 00 00 09 09 00 00 00 00 00 59 ec 06 d1 28 08 00 c7 53 a0 4c 43 ab e1 67
# ReportID: 1 / X:  131 | Y:  128 | Z:  130 | Rz:  127 | Rx:    0 | Ry:    0 | 0xff000020:   75 | Hat switch:   8 | Button: 0  0  0  0  0  0  0  0  0  0  0  0  0  0  0 | 0xff000021: 0 , 0 , 0 , 0 , 0 , 0 , 0 , 0 , 0 , 0 , 0 , 0 , 0 | 0xff000022:   40 ,   69 ,   42 ,  235 ,  245 ,  255 ,  237 ,  255 ,    9 ,    0 ,   51 ,    0 ,   80 ,   31 ,   54 ,    5 ,   26 ,   12 ,    7 ,  209 ,    8 ,  128 ,    0 ,    0 ,    0 ,  128 ,    0 ,    0 ,    0 ,    0 ,    9 ,    9 ,    0 ,    0 ,    0 ,    0 ,    0 ,   57 ,   27 ,    7 ,  209 ,   40 ,    8 ,    0 ,    4 ,   16 ,  112 ,  117 ,   65 ,   84 ,  246 ,  127 
E: 000000.163907 64 01 83 80 82 7f 00 00 4b 08 00 00 00 28 45 2a eb f5 ff ed ff 09 00 33 00 50 1f 36 05 1a 0c 07 d1 08 80 00 00 00 80 00 00 00 00 09 09 00 00 00 00 00 39 1b 07 d1 28 08 00 04 10 70 75 41 54 f6 7f
# ReportID: 1 / X:  131 | Y:  128 | Z:  130 | Rz:  127 | Rx:    0 | Ry:    0 | 0xff000020:   76 | Hat switch:   8 | Button: 0  0  0  0  0  0  0  0  0  0  0  0  0  0  0 | 0xff000021: 0 , 0 , 0 , 0 , 0 , 0 , 0 , 0 , 0 , 0 , 0 , 0 , 0 | 0xff000022:   41 ,   69 ,   42 ,  235 ,  245 ,  255 ,  238 ,  255 ,   10 ,    0 ,   49 ,    0 ,   64 ,   31 ,   56 ,    5 ,   13 ,   59 ,    7 ,  209 ,    8 ,  128 ,    0 ,    0 ,    0 ,  128 ,    0 ,    0 ,    0 ,    0 ,    9 ,    9 ,    0 ,    0 ,    0 ,    0 ,    0 ,   25 ,   74 ,    7 ,  209 ,   40 ,    8 ,    0 ,    2 ,   63 ,  154 ,  224 ,   94 ,  125 ,   38 ,  162 
E: 000000.168838 64 01 83 80 82 7f 00 00 4c 08 00 00 00 29 45 2a eb f5 ff ee ff 0a 00 31 00 40 1f 38 05 0d 3b 07 d1 08 80 00 00 00 80 00 00 00 00 09 09 00 00 00 00 00 19 4a 07 d1 28 08 00 02 3f 9a e0 5e 7d 26 a2
# ReportID: 1 / X:  131 | Y:  128 | Z:  129 | Rz:  127 | Rx:    0 | Ry:    0 | 0xff000020:   77 | Hat switch:   8 | Button: 0  0  0  0  0  0  0  0  0  0  0  0  0  0  0 | 0xff000021: 0 , 0 , 0 , 0 , 0 , 0 , 0 , 0 , 0 , 0 , 0 , 0 , 0 | 0xff000022:   42 ,   69 ,   42 ,  235 ,  247 ,  255 ,  238 ,  255 ,   10 ,    0 ,   61 ,    0 ,   74 ,   31 ,   62 ,    5 ,    0 ,  106 ,    7 ,  209 ,    8 ,  128 ,    0 ,    0 ,    0 ,  128 ,    0 ,    0 ,    0 ,    0 ,    9 ,    9 ,    0 ,    0 ,    0 ,    0 ,    0 ,  249 ,  120 ,    7 ,  209 ,   40 ,    8 ,    0 ,  153 ,  168 ,  242 ,   81 ,  133 ,  124 ,   82 ,  206 
E: 000000.172457 64 01 83 80 81 7f 00 00 4d 08 00 00 00 2a 45 2a eb f7 ff ee ff 0a 00 3d 00 4a 1f 3e 05 00 6a 07 d1 08 80 00 00 00 80 00 00 00 00 09 09 00 00 00 00 00 f9 78 07 d1 28 08 00 99 a8 f2 51 85 7c 52 ce
# ReportID: 1 / X:  131 | Y:  128 | Z:  130 | Rz:  127 | Rx:    0 | Ry:    0 | 0xff000020:   78 | Hat switch:   8 | Button: 0  0  0  0  0  0  0  0  0  0  0  0  0  0  0 | 0xff000021: 0 , 0 , 0 , 0 , 0 , 0 , 0 , 0 , 0 , 0 , 0 , 0 , 0 | 0xff000022:   43 ,   69 ,   42 ,  235 ,  247 ,  255 ,  238 ,  255 ,   11 ,    0 ,   45 ,    0 ,   83 ,   31 ,   66 ,    5 ,  243 ,  152 ,    7 ,  209 ,    8 ,  128 ,    0 ,    0 ,    0 ,  128 ,    0 ,    0 ,    0 ,    0 ,    9 ,    9 ,    0 ,    0 ,    0 ,    0 ,    0 ,  217 ,  167 ,    7 ,  209 ,   40 ,    8 ,    0 ,  118 ,   54 ,  226 ,   91 ,    9 ,   13 ,  143 ,  237 
E: 000000.177792 64 01 83 80 82 7f 00 00 4e 08 00 00 00 2b 45 2a eb f7 ff ee ff 0b 00 2d 00 53 1f 42 05 f3 98 07 d1 08 80 00 00 00 80 00 00 00 00 09 09 00 00 00 00 00 d9 a7 07 d1 28 08 00 76 36 e2 5b 09 0d 8f ed
# ReportID: 1 / X:  131 | Y:  128 | Z:  129 | Rz:  127 | Rx:    0 | Ry:    0 | 0xff000020:   79 | Hat switch:   8 | Button: 0  0  0  0  0  0  0  0  0  0  0  0  0  0  0 | 0xff000021: 0 , 0 , 0 , 0 , 0 , 0 , 0 , 0 , 0 , 0 , 0 , 0 , 0 | 0xff000022:   44 ,   69 ,   42 ,  235 ,  247 ,  255 ,  239 ,  255 ,    9 ,    0 ,   51 ,    0 ,  104 ,   31 ,   63 ,    5 ,  230 ,  199 ,    7 ,  209 ,    8 ,  128 ,    0 ,    0 ,    0 ,  128 ,    0 ,    0 ,    0 ,    0 ,    9 ,    9 ,    0 ,    0 ,    0 ,    0 ,    0 ,  184 ,  214 ,    7 ,  209 ,   40 ,    8 ,    0 ,    7 ,  117 ,  150 ,  210 ,  230 ,   81 ,   17 ,  230 
E: 000000.180761 64 01 83 80 81 7f 00 00 4f 08 00 00 00 2c 45 2a eb f7 ff ef ff 09 00 33 00 68 1f 3f 05 e6 c7 07 d1 08 80 00 00 00 80 00 00 00 00 09 09 00 00 00 00 00 b8 d6 07 d1 28 08 00 07 75 96 d2 e6 51 11 e6
# ReportID: 1 / X:  131 | Y:  128 | Z:  129 | Rz:  127 | Rx:    0 | Ry:    0 | 0xff000020:   80 | Hat switch:   8 | Button: 0  0  0  0  0  0  0  0  0  0  0  0  0  0  0 | 0xff000021: 0 , 0 , 0 , 0 , 0 , 0 , 0 , 0 , 0 , 0 , 0 , 0 , 0 | 0xff000022:   45 ,   69 ,   42 ,  235 ,  246 ,  255 ,  238 ,  255 ,   11 ,    0 ,   52 ,    0 ,   95 ,   31 ,   50 ,    5 ,  217 ,  246 ,    7 ,  209 ,    8 ,  128 ,    0 ,    0 ,    0 ,  128 ,    0 ,    0 ,    0 ,    0 ,    9 ,    9 ,    0 ,    0 ,    0 ,    0 ,    0 ,  152 ,    5 ,    8 ,  209 ,   40 ,    8 ,    0 ,  202 ,   62 ,  107 ,  191 ,    3 ,  116 ,  209 ,  181 
E: 000000.184016 64 01 83 80 81 7f 00 00 50 08 00 00 00 2d 45 2a eb f6 ff ee ff 0b 00 34 00 5f 1f 32 05 d9 f6 07 d1 08 80 00 00 00 80 00 00 00 00 09 09 00 00 00 00 00 98 05 08 d1 28 08 00 ca 3e 6b bf 03 74 d1 b5
# ReportID: 1 / X:  131 | Y:  128 | Z:  130 | Rz:  127 | Rx:    0 | Ry:    0 | 0xff000020:   81 | Hat switch:   8 | Button: 0  0  0  0  0  0  0  0  0  0  0  0  0  0  0 | 0xff000021: 0 , 0 , 0 , 0 , 0 , 0 , 0 , 0 , 0 , 0 , 0 , 0 , 0 | 0xff000022:   46 ,   69 ,   42 ,  235 ,  245 ,  255 ,  238 ,  255 ,   11 ,    0 ,   50 ,    0 ,   91 ,   31 ,   62 ,    5 ,  204 ,   37 ,    8 ,  209 ,    8 ,  128 ,    0 ,    0 ,    0 ,  128 ,    0 ,    0 ,    0 ,    0 ,    9 ,    9 ,    0 ,    0 ,    0 ,    0 ,    0 ,  120 ,   52 ,    8 ,  209 ,   40 ,    8 ,    0 ,  236 ,  129 ,  137 ,  115 ,  103 ,   75 ,  143 ,  158 
E: 000000.188042 64 01 83 80 82 7f 00 00 51 08 00 00 00 2e 45 2a eb f5 ff ee ff 0b 00 32 00 5b 1f 3e 05 cc 25 08 d1 08 80 00 00 00 80 00 00 00 00 09 09 00 00 00 00 00 78 34 08 d1 28 08 00 ec 81 89 73 67 4b 8f 9e
# ReportID: 1 / X:  131 | Y:  128 | Z:  130 | Rz:  127 | Rx:    0 | Ry:    0 | 0xff000020:   82 | Hat switch:   8 | Button: 0  0  0  0  0  0  0  0  0  0  0  0  0  0  0 | 0xff000021: 0 , 0 , 0 , 0 , 0 , 0 , 0 , 0 , 0 , 0 , 0 , 0 , 0 | 0xff000022:   47 ,   69 ,   42 ,  235 ,  247 ,  255 ,  239 ,  255 ,   11 ,    0 ,   49 ,    0 ,   71 ,   31 ,   57 ,    5 ,  191 ,   84 ,    8 ,  209 ,    8 ,  128 ,    0 ,    0 ,    0 ,  128 ,    0 ,    0 ,    0 ,    0 ,    9 ,    9 ,    0 ,    0 ,    0 ,    0 ,    0 ,   88 ,   99 ,    8 ,  209 ,   40 ,    8 ,    0 ,   17 ,   89 ,   90 ,  254 ,  152 ,  237 ,  236 ,   58 
E: 000000.193722 64 01 83 80 82 7f 00 00 52 08 00 00 00 2f 45 2a eb f7 ff ef ff 0b 00 31 00 47 1f 39 05 bf 54 08 d1 08 80 00 00 00 80 00 00 00 00 09 09 00 00 00 00 00 58 63 08 d1 28 08 00 11 59 5a fe 98 ed ec 3a
# ReportID: 1 / X:  131 | Y:  128 | Z:  130 | Rz:  127 | Rx:    0 | Ry:    0 | 0xff000020:   83 | Hat switch:   8 | Button: 0  0  0  0  0  0  0  0  0  0  0  0  0  0  0 | 0xff000021: 0 , 0 , 0 , 0 , 0 , 0 , 0 , 0 , 0 , 0 , 0 , 0 , 0 | 0xff000022:   48 ,   69 ,   42 ,  235 ,  247 ,  255 ,  238 ,  255 ,   11 ,    0 ,   60 ,    0 ,   51 ,   31 ,   34 ,    5 ,  178 ,  131 ,    8 ,  209 ,    8 ,  128 ,    0 ,    0 ,    0 ,  128 ,    0 ,    0 ,    0 ,    0 ,    9 ,    9 ,    0 ,    0 ,    0 ,    0 ,    0 ,   56 ,  146 ,    8 ,  209 ,   40 ,    8 ,    0 ,  153 ,  154 ,  148 ,  106 ,  172 ,  132 ,  205 ,   63 
E: 000000.196680 64 01 83 80 82 7f 00 00 53 08 00 00 00 30 45 2a eb f7 ff ee ff 0b 00 3c 00 33 1f 22 05 b2 83 08 d1 08 80 00 00 00 80 00 00 00 00 09 09 00 00 00 00 00 38 92 08 d1 28 08 00 99 9a 94 6a ac 84 cd 3f
# ReportID: 1 / X:  131 | Y:  128 | Z:  129 | Rz:  127 | Rx:    0 | Ry:    0 | 0xff000020:   84 | Hat switch:   8 | Button: 0  0  0  0  0  0  0  0  0  0  0  0  0  0  0 | 0xff000021: 0 , 0 , 0 , 0 , 0 , 0 , 0 , 0 , 0 , 0 , 0 , 0 , 0 | 0xff000022:   49 ,   69 ,   42 ,  235 ,  246 ,  255 ,  238 ,  255 ,   10 ,    0 ,   51 ,    0 ,   67 ,   31 ,   78 ,    5 ,  165 ,  178 ,    8 ,  209 ,    8 ,  128 ,    0 ,    0 ,    0 ,  128 ,    0 ,    0 ,    0 ,    0 ,    9 ,    9 ,    0 ,    0 ,    0 ,    0 ,    0 ,   24 ,  193 ,    8 ,  209 ,   40 ,    8 ,    0 ,  181 ,  141 ,   89 ,  131 ,   35 ,  182 ,   33 ,  117 
E: 000000.200041 64 01 83 80 81 7f 00 00 54 08 00 00 00 31 45 2a eb f6 ff ee ff 0a 00 33 00 43 1f 4e 05 a5 b2 08 d1 08 80 00 00 00 80 00 00 00 00 09 09 00 00 00 00 00 18 c1 08 d1 28 08 00 b5 8d 59 83 23 b6 21 75
# ReportID: 1 / X:  131 | Y:  128 | Z:  130 | Rz:  127 | Rx:    0 | Ry:    0 | 0xff000020:   85 | Hat switch:   8 | Button: 0  0  0  0  0  0  0  0  0  0  0  0  0  0  0 | 0xff000021: 0 , 0 , 0 , 0 , 0 , 0 , 0 , 0 , 0 , 0 , 0 , 0 , 0 | 0xff000022:   50 ,   69 ,   42 ,  235 ,  246 ,  255 ,  238 ,  255 ,   10 ,    0 ,   45 ,    0 ,   89 ,   31 ,   55 ,    5 ,  152 ,  225 ,    8 ,  209 ,    8 ,  128 ,    0 ,    0 ,    0 ,  128 ,    0 ,    0 ,    0 ,    0 ,    9 ,    9 ,    0 ,    0 ,    0 ,    0 ,    0 ,  248 ,  239 ,    8 ,  209 ,   40 ,    8 ,    0 ,   44 ,  219 ,  136 ,    5 ,  186 ,   26 ,    1 ,  229 
E: 000000.205567 64 01 83 80 82 7f 00 00 55 08 00 00 00 32 45 2a eb f6 ff ee ff 0a 00 2d 00 59 1f 37 05 98 e1 08 d1 08 80 00 00 00 80 00 00 00 00 09 09 00 00 00 00 00 f8 ef 08 d1 28 08 00 2c db 88 05 ba 1a 01 e5
# ReportID: 1 / X:  131 | Y:  128 | Z:  130 | Rz:  127 | Rx:    0 | Ry:    0 | 0xff000020:   86 | Hat switch:   8 | Button: 0  0  0  0  0  0  0  0  0  0  0  0  0  0  0 | 0xff000021: 0 , 0 , 0 , 0 , 0 , 0 , 0 , 0 , 0 , 0 , 0 , 0 , 0 | 0xff000022:   51 ,   69 ,   42 ,  235 ,  247 ,  255 ,  239 ,  255 ,   11 ,    0 ,   58 ,    0 ,   91 ,   31 ,   53 ,    5 ,  140 ,   16 ,    9 ,  209 ,    8 ,  128 ,    0 ,    0 ,    0 ,  128 ,    0 ,    0 ,    0 ,    0 ,    9 ,    9 ,    0 ,    0 ,    0 ,    0 ,    0 ,  216 ,   30 ,    9 ,  209 ,   40 ,    8 ,    0 ,  158 ,  181 ,  202 ,  125 ,   27 ,   56 ,  112 ,  242 
E: 000000.208535 64 01 83 80 82 7f 00 00 56 08 00 00 00 33 45 2a eb f7 ff ef ff 0b 00 3a 00 5b 1f 35 05 8c 10 09 d1 08 80 00 00 00 80 00 00 00 00 09 09 00 00 00 00 00 d8 1e 09 d1 28 08 00 9e b5 ca 7d 1b 38 70 f2
# ReportID: 1 / X:  131 | Y:  128 | Z:  129 | Rz:  127 | Rx:    0 | Ry:    0 | 0xff000020:   87 | Hat switch:   8 | Button: 0  0  0  0  0  0  0  0  0  0  0  0  0  0  0 | 0xff000021: 0 , 0 , 0 , 0 , 0 , 0 , 0 , 0 , 0 , 0 , 0 , 0 , 0 | 0xff000022:   52 ,   69 ,   42 ,  235 ,  246 ,  255 ,  238 ,  255 ,   10 ,    0 ,   45 ,    0 ,   88 ,   31 ,   58 ,    5 ,  127 ,   63 ,    9 ,  209 ,    8 ,  128 ,    0 ,    0 ,    0 ,  128 ,    0 ,    0 ,    0 ,    0 ,    9 ,    9 ,    0 ,    0 ,    0 ,    0 ,    0 ,  184 ,   77 ,    9 ,  209 ,   40 ,    8 ,    0 ,  204 ,  248 ,  146 ,  179 ,   36 ,   91 ,  124 ,  250 
E: 000000.212304 64 01 83 80 81 7f 00 00 57 08 00 00 00 34 45 2a eb f6 ff ee ff 0a 00 2d 00 58 1f 3a 05 7f 3f 09 d1 08 80 00 00 00 80 00 00 00 00 09 09 00 00 00 00 00 b8 4d 09 d1 28 08 00 cc f8 92 b3 24 5b 7c fa
# ReportID: 1 / X:  131 | Y:  128 | Z:  130 | Rz:  127 | Rx:    0 | Ry:    0 | 0xff000020:   88 | Hat switch:   8 | Button: 0  0  0  0  0  0  0  0  0  0  0  0  0  0  0 | 0xff000021: 0 , 0 , 0 , 0 , 0 , 0 , 0 , 0 , 0 , 0 , 0 , 0 , 0 | 0xff000022:   53 ,   69 ,   42 ,  235 ,  247 ,  255 ,  238 ,  255 ,   10 ,    0 ,   38 ,    0 ,   82 ,   31 ,   68 ,    5 ,  114 ,  110 ,    9 ,  209 ,    8 ,  128 ,    0 ,    0 ,    0 ,  128 ,    0 ,    0 ,    0 ,    0 ,    9 ,    9 ,    0 ,    0 ,    0 ,    0 ,    0 ,  152 ,  124 ,    9 ,  209 ,   40 ,    8 ,    0 ,   87 ,   48 ,  131 ,   60 ,  211 ,  197 ,   54 ,  108 
E: 000000.216041 64 01 83 80 82 7f 00 00 58 08 00 00 00 35 45 2a eb f7 ff ee ff 0a 00 26 00 52 1f 44 05 72 6e 09 d1 08 80 00 00 00 80 00 00 00 00 09 09 00 00 00 00 00 98 7c 09 d1 28 08 00 57 30 83 3c d3 c5 36 6c
# ReportID: 1 / X:  131 | Y:  128 | Z:  129 | Rz:  127 | Rx:    0 | Ry:    0 | 0xff000020:   89 | Hat switch:   8 | Button: 0  0  0  0  0  0  0  0  0  0  0  0  0  0  0 | 0xff000021: 0 , 0 , 0 , 0 , 0 , 0 , 0 , 0 , 0 , 0 , 0 , 0 , 0 | 0xff000022:   54 ,   69 ,   42 ,  235 ,  247 ,  255 ,  239 ,  255 ,   11 ,    0 ,   48 ,    0 ,   81 ,   31 ,   51 ,    5 ,  101 ,  157 ,    9 ,  209 ,    8 ,  128 ,    0 ,    0 ,    0 ,  128 ,    0 ,    0 ,    0 ,    0 ,    9 ,    9 ,    0 ,    0 ,    0 ,    0 ,    0 ,  120 ,  171 ,    9 ,  209 ,   40 ,    8 ,    0 ,  104 ,   84 ,  223 ,  119 ,   99 ,    9 ,  134 ,   33 
E: 000000.221867 64 01 83 80 81 7f 00 00 59 08 00 00 00 36 45 2a eb f7 ff ef ff 0b 00 30 00 51 1f 33 05 65 9d 09 d1 08 80 00 00 00 80 00 00 00 00 09 09 00 00 00 00 00 78 ab 09 d1 28 08 00 68 54 df 77 63 09 86 21
# ReportID: 1 / X:  131 | Y:  128 | Z:  130 | Rz:  127 | Rx:    0 | Ry:    0 | 0xff000020:   90 | Hat switch:   8 | Button: 0  0  0  0  0  0  0  0  0  0  0  0  0  0  0 | 0xff000021: 0 , 0 , 0 , 0 , 0 , 0 , 0 , 0 , 0 , 0 , 0 , 0 , 0 | 0xff000022:   55 ,   69 ,   42 ,  235 ,  247 ,  255 ,  238 ,  255 ,    9 ,    0 ,   36 ,    0 ,   90 ,   31 ,   66 ,    5 ,   88 ,  204 ,    9 ,  209 ,    8 ,  128 ,    0 ,    0 ,    0 ,  128 ,    0 ,    0 ,    0 ,    0 ,    9 ,    9 ,    0 ,    0 ,    0 ,    0 ,    0 ,   88 ,  218 ,    9 ,  209 ,   40 ,    8 ,    0 ,    4 ,   81 ,  190 ,  155 ,   59 ,   75 ,  140 ,   40 
E: 000000.225248 64 01 83 80 82 7f 00 00 5a 08 00 00 00 37 45 2a eb f7 ff ee ff 09 00 24 00 5a 1f 42 05 58 cc 09 d1 08 80 00 00 00 80 00 00 00 00 09 09 00 00 00 00 00 58 da 09 d1 28 08 00 04 51 be 9b 3b 4b 8c 28
# ReportID: 1 / X:  131 | Y:  128 | Z:  129 | Rz:  127 | Rx:    0 | Ry:    0 | 0xff000020:   91 | Hat switch:   8 | Button: 0  0  0  0  0  0  0  0  0  0  0  0  0  0  0 | 0xff000021: 0 , 0 , 0 , 0 , 0 , 0 , 0 , 0 , 0 , 0 , 0 , 0 , 0 | 0xff000022:   56 ,   69 ,   42 ,  235 ,  246 ,  255 ,  238 ,  255 ,   10 ,    0 ,   29 ,    0 ,   79 ,   31 ,   51 ,    5 ,   75 ,  251 ,    9 ,  209 ,    8 ,  128 ,    0 ,    0 ,    0 ,  128 ,    0 ,    0 ,    0 ,    0 ,    9 ,    9 ,    0 ,    0 ,    0 ,    0 ,    0 ,   56 ,    9 ,   10 ,  209 ,   40 ,    8 ,    0 ,  132 ,  207 ,   18 ,  218 ,  178 ,    6 ,   10 ,    4 
E: 000000.229244 64 01 83 80 81 7f 00 00 5b 08 00 00 00 38 45 2a eb f6 ff ee ff 0a 00 1d 00 4f 1f 33 05 4b fb 09 d1 08 80 00 00 00 80 00 00 00 00 09 09 00 00 00 00 00 38 09 0a d1 28 08 00 84 cf 12 da b2 06 0a 04
# ReportID: 1 / X:  131 | Y:  128 | Z:  129 | Rz:  127 | Rx:    0 | Ry:    0 | 0xff000020:   92 | Hat switch:   8 | Button: 0  0  0  0  0  0  0  0  0  0  0  0  0  0  0 | 0xff000021: 0 , 0 , 0 , 0 , 0 , 0 , 0 , 0 , 0 , 0 , 0 , 0 , 0 | 0xff000022:   57 ,   69 ,   42 ,  235 ,  246 ,  255 ,  239 ,  255 ,   10 ,    0 ,   50 ,    0 ,   72 ,   31 ,   43 ,    5 ,   62 ,   42 ,   10 ,  209 ,    8 ,  128 ,    0 ,    0 ,    0 ,  128 ,    0 ,    0 ,    0 ,    0 ,    9 ,    9 ,    0 ,    0 ,    0 ,    0 ,    0 ,   24 ,   56 ,   10 ,  209 ,   40 ,    8 ,    0 ,  220 ,   42 ,  148 ,  119 ,   74 ,   86 ,   81 ,   79 
E: 000000.232865 64 01 83 80 81 7f 00 00 5c 08 00 00 00 39 45 2a eb f6 ff ef ff 0a 00 32 00 48 1f 2b 05 3e 2a 0a d1 08 80 00 00 00 80 00 00 00 00 09 09 00 00 00 00 00 18 38 0a d1 28 08 00 dc 2a 94 77 4a 56 51 4f
# ReportID: 1 / X:  131 | Y:  128 | Z:  130 | Rz:  127 | Rx:    0 | Ry:    0 | 0xff000020:   93 | Hat switch:   8 | Button: 0  0  0  0  0  0  0  0  0  0  0  0  0  0  0 | 0xff000021: 0 , 0 , 0 , 0 , 0 , 0 , 0 , 0 , 0 , 0 , 0 , 0 , 0 | 0xff000022:   58 ,   69 ,   42 ,  235 ,  247 ,  255 ,  238 ,  255 ,   10 ,    0 ,   47 ,    0 ,   87 ,   31 ,   51 ,    5 ,   49 ,   89 ,   10 ,  209 ,    8 ,  128 ,    0 ,    0 ,    0 ,  128 ,    0 ,    0 ,    0 ,    0 ,    9 ,    9 ,    0 ,    0 ,    0 ,    0 ,    0 ,  248 ,  102 ,   10 ,  209 ,   40 ,    8 ,    0 ,   69 ,   49 ,   22 ,  126 ,    0 ,    3 ,   18 ,  154 
E: 000000.235972 64 01 83 80 82 7f 00 00 5d 08 00 00 00 3a 45 2a eb f7 ff ee ff 0a 00 2f 00 57 1f 33 05 31 59 0a d1 08 80 00 00 00 80 00 00 00 00 09 09 00 00 00 00 00 f8 66 0a d1 28 08 00 45 31 16 7e 00 03 12 9a
# ReportID: 1 / X:  131 | Y:  128 | Z:  130 | Rz:  127 | Rx:    0 | Ry:    0 | 0xff000020:   94 | Hat switch:   8 | Button: 0  0  0  0  0  0  0  0  0  0  0  0  0  0  0 | 0xff000021: 0 , 0 , 0 , 0 , 0 , 0 , 0 , 0 , 0 , 0 , 0 , 0 , 0 | 0xff000022:   59 ,   69 ,   42 ,  235 ,  247 ,  255 ,  238 ,  255 ,   10 ,    0 ,   41 ,    0 ,  102 ,   31 ,   53 ,    5 ,   36 ,  136 ,   10 ,  209 ,    8 ,  128 ,    0 ,    0 ,    0 ,  128 ,    0 ,    0 ,    0 ,    0 ,    9 ,    9 ,    0 ,    0 ,    0 ,    0 ,    0 ,  216 ,  149 ,   10 ,  209 ,   40 ,    8 ,    0 ,   75 ,   49 ,  205 ,   63 ,  233 ,  247 ,  168 ,  213 
E: 000000.241705 64 01 83 80 82 7f 00 00 5e 08 00 00 00 3b 45 2a eb f7 ff ee ff 0a 00 29 00 66 1f 35 05 24 88 0a d1 08 80 00 00 00 80 00 00 00 00 09 09 00 00 00 00 00 d8 95 0a d1 28 08 00 4b 31 cd 3f e9 f7 a8 d5
# ReportID: 1 / X:  131 | Y:  128 | Z:  130 | Rz:  127 | Rx:    0 | Ry:    0 | 0xff000020:   95 | Hat switch:   8 | Button: 0  0  0  0  0  0  0  0  0  0  0  0  0  0  0 | 0xff000021: 0 , 0 , 0 , 0 , 0 , 0 , 0 , 0 , 0 , 0 , 0 , 0 , 0 | 0xff000022:   60 ,   69 ,   42 ,  235 ,  247 ,  255 ,  238 ,  255 ,    8 ,    0 ,   58 ,    0 ,   91 ,   31 ,   51 ,    5 ,   23 ,  183 ,   10 ,  209 ,    8 ,  128 ,    0 ,    0 ,    0 ,  128 ,    0 ,    0 ,    0 ,    0 ,    9 ,    9 ,    0 ,    0 ,    0 ,    0 ,    0 ,  184 ,  196 ,   10 ,  209 ,   40 ,    8 ,    0 ,  238 ,  181 ,   67 ,  156 ,  178 ,   77 ,  165 ,  121 
E: 000000.244686 64 01 83 80 82 7f 00 00 5f 08 00 00 00 3c 45 2a eb f7 ff ee ff 08 00 3a 00 5b 1f 33 05 17 b7 0a d1 08 80 00 00 00 80 00 00 00 00 09 09 00 00 00 00 00 b8 c4 0a d1 28 08 00 ee b5 43 9c b2 4d a5 79
# ReportID: 1 / X:  131 | Y:  128 | Z:  129 | Rz:  127 | Rx:    0 | Ry:    0 | 0xff000020:   96 | Hat switch:   8 | Button: 0  0  0  0  0  0  0  0  0  0  0  0  0  0  0 | 0xff000021: 0 , 0 , 0 , 0 , 0 , 0 , 0 , 0 , 0 , 0 , 0 , 0 , 0 | 0xff000022:   61 ,   69 ,   42 ,  235 ,  246 ,  255 ,  238 ,  255 ,   11 ,    0 ,   40 ,    0 ,   91 ,   31 ,   65 ,    5 ,   44 ,  224 ,   10 ,  209 ,    8 ,  128 ,    0 ,    0 ,    0 ,  128 ,    0 ,    0 ,    0 ,    0 ,    9 ,    9 ,    0 ,    0 ,    0 ,    0 ,    0 ,  166 ,  243 ,   10 ,  209 ,   40 ,    8 ,    0 ,   70 ,  191 ,  149 ,  153 ,   79 ,   14 ,   20 ,  155 
E: 000000.248081 64 01 83 80 81 7f 00 00 60 08 00 00 00 3d 45 2a eb f6 ff ee ff 0b 00 28 00 5b 1f 41 05 2c e0 0a d1 08 80 00 00 00 80 00 00 00 00 09 09 00 00 00 00 00 a6 f3 0a d1 28 08 00 46 bf 95 99 4f 0e 14 9b
# ReportID: 1 / X:  131 | Y:  128 | Z:  130 | Rz:  127 | Rx:    0 | Ry:    0 | 0xff000020:   97 | Hat switch:   8 | Button: 0  0  0  0  0  0  0  0  0  0  0  0  0  0  0 | 0xff000021: 0 , 0 , 0 , 0 , 0 , 0 , 0 , 0 , 0 , 0 , 0 , 0 , 0 | 0xff000022:   62 ,   69 ,   42 ,  235 ,  246 ,  255 ,  238 ,  255 ,   10 ,    0 ,   57 ,    0 ,   60 ,   31 ,   26 ,    5 ,   65 ,    9 ,   11 ,  209 ,    8 ,  128 ,    0 ,    0 ,    0 ,  128 ,    0 ,    0 ,    0 ,    0 ,    9 ,    9 ,    0 ,    0 ,    0 ,    0 ,    0 ,  151 ,   34 ,   11 ,  209 ,   40 ,    8 ,    0 ,   13 ,  172 ,  107 ,  167 ,  141 ,    1 ,   73 ,   66 
E: 000000.252250 64 01 83 80 82 7f 00 00 61 08 00 00 00 3e 45 2a eb f6 ff ee ff 0a 00 39 00 3c 1f 1a 05 41 09 0b d1 08 80 00 00 00 80 00 00 00 00 09 09 00 00 00 00 00 97 22 0b d1 28 08 00 0d ac 6b a7 8d 01 49 42
# ReportID: 1 / X:  131 | Y:  128 | Z:  130 | Rz:  127 | Rx:    0 | Ry:    0 | 0xff000020:   98 | Hat switch:   8 | Button: 0  0  0  0  0  0  0  0  0  0  0  0  0  0  0 | 0xff000021: 0 , 0 , 0 , 0 , 0 , 0 , 0 , 0 , 0 , 0 , 0 , 0 , 0 | 0xff000022:   63 ,   69 ,   42 ,  235 ,  248 ,  255 ,  238 ,  255 ,   11 ,    0 ,   60 ,    0 ,   71 ,   31 ,   56 ,    5 ,   52 ,   56 ,   11 ,  209 ,    8 ,  128 ,    0 ,    0 ,    0 ,  128 ,    0 ,    0 ,    0 ,    0 ,    9 ,    9 ,    0 ,    0 ,    0 ,    0 ,    0 ,   95 ,   81 ,   11 ,  209 ,   40 ,    8 ,    0 ,  111 ,  103 ,    4 ,   35 ,  127 ,   57 ,   96 ,  218 
E: 000000.256209 64 01 83 80 82 7f 00 00 62 08 00 00 00 3f 45 2a eb f8 ff ee ff 0b 00 3c 00 47 1f 38 05 34 38 0b d1 08 80 00 00 00 80 00 00 00 00 09 09 00 00 00 00 00 5f 51 0b d1 28 08 00 6f 67 04 23 7f 39 60 da
# ReportID: 1 / X:  131 | Y:  128 | Z:  130 | Rz:  127 | Rx:    0 | Ry:    0 | 0xff000020:   99 | Hat switch:   8 | Button: 0  0  0  0  0  0  0  0  0  0  0  0  0  0  0 | 0xff000021: 0 , 0 , 0 , 0 , 0 , 0 , 0 , 0 , 0 , 0 , 0 , 0 , 0 | 0xff000022:   64 ,   69 ,   42 ,  235 ,  246 ,  255 ,  239 ,  255 ,   10 ,    0 ,   49 ,    0 ,   92 ,   31 ,   58 ,    5 ,   39 ,  103 ,   11 ,  209 ,    8 ,  128 ,    0 ,    0 ,    0 ,  128 ,    0 ,    0 ,    0 ,    0 ,    9 ,    9 ,    0 ,    0 ,    0 ,    0 ,    0 ,   65 ,  128 ,   11 ,  209 ,   40 ,    8 ,    0 ,   71 ,   39 ,  214 ,  100 ,  161 ,   43 ,  234 ,  198 
E: 000000.260058 64 01 83 80 82 7f 00 00 63 08 00 00 00 40 45 2a eb f6 ff ef ff 0a 00 31 00 5c 1f 3a 05 27 67 0b d1 08 80 00 00 00 80 00 00 00 00 09 09 00 00 00 00 00 41 80 0b d1 28 08 00 47 27 d6 64 a1 2b ea c6
# ReportID: 1 / X:  131 | Y:  128 | Z:  130 | Rz:  127 | Rx:    0 | Ry:    0 | 0xff000020:  100 | Hat switch:   8 | Button: 0  0  0  0  0  0  0  0  0  0  0  0  0  0  0 | 0xff000021: 0 , 0 , 0 , 0 , 0 , 0 , 0 , 0 , 0 , 0 , 0 , 0 , 0 | 0xff000022:   65 ,   69 ,   42 ,  235 ,  246 ,  255 ,  239 ,  255 ,    9 ,    0 ,   61 ,    0 ,   83 ,   31 ,   58 ,    5 ,   26 ,  150 ,   11 ,  209 ,    8 ,  128 ,    0 ,    0 ,    0 ,  128 ,    0 ,    0 ,    0 ,    0 ,    9 ,    9 ,    0 ,    0 ,    0 ,    0 ,    0 ,   33 ,  175 ,   11 ,  209 ,   40 ,    8 ,    0 ,  137 ,  223 ,   14 ,  163 ,  119 ,   69 ,  252 ,   40 
E: 000000.264213 64 01 83 80 82 7f 00 00 64 08 00 00 00 41 45 2a eb f6 ff ef ff 09 00 3d 00 53 1f 3a 05 1a 96 0b d1 08 80 00 00 00 80 00 00 00 00 09 09 00 00 00 00 00 21 af 0b d1 28 08 00 89 df 0e a3 77 45 fc 28
# ReportID: 1 / X:  131 | Y:  128 | Z:  129 | Rz:  127 | Rx:    0 | Ry:    0 | 0xff000020:  101 | Hat switch:   8 | Button: 0  0  0  0  0  0  0  0  0  0  0  0  0  0  0 | 0xff000021: 0 , 0 , 0 , 0 , 0 , 0 , 0 , 0 , 0 , 0 , 0 , 0 , 0 | 0xff000022:   66 ,   69 ,   42 ,  235 ,  247 ,  255 ,  239 ,  255 ,   10 ,    0 ,   63 ,    0 ,   76 ,   31 ,   57 ,    5 ,   13 ,  197 ,   11 ,  209 ,    8 ,  128 ,    0 ,    0 ,    0 ,  128 ,    0 ,    0 ,    0 ,    0 ,    9 ,    9 ,    0 ,    0 ,    0 ,    0 ,    0 ,  248 ,  221 ,   11 ,  209 ,   40 ,    8 ,    0 ,  108 ,  249 ,   13 ,   19 ,  207 ,   70 ,  233 ,   54 
E: 000000.268202 64 01 83 80 81 7f 00 00 65 08 00 00 00 42 45 2a eb f7 ff ef ff 0a 00 3f 00 4c 1f 39 05 0d c5 0b d1 08 80 00 00 00 80 00 00 00 00 09 09 00 00 00 00 00 f8 dd 0b d1 28 08 00 6c f9 0d 13 cf 46 e9 36
# ReportID: 1 / X:  131 | Y:  128 | Z:  130 | Rz:  127 | Rx:    0 | Ry:    0 | 0xff000020:  102 | Hat switch:   8 | Button: 0  0  0  0  0  0  0  0  0  0  0  0  0  0  0 | 0xff000021: 0 , 0 , 0 , 0 , 0 , 0 , 0 , 0 , 0 , 0 , 0 , 0 , 0 | 0xff000022:   67 ,   69 ,   42 ,  235 ,  247 ,  255 ,  239 ,  255 ,   11 ,    0 ,   57 ,    0 ,   83 ,   31 ,   63 ,    5 ,    0 ,  244 ,   11 ,  209 ,    8 ,  128 ,    0 ,    0 ,    0 ,  128 ,    0 ,    0 ,    0 ,    0 ,    9 ,    9 ,    0 ,    0 ,    0 ,    0 ,    0 ,  216 ,   12 ,   12 ,  209 ,   40 ,    8 ,    0 ,  187 ,  205 ,  118 ,  227 ,   18 ,  198 ,  109 ,   31 
E: 000000.272081 64 01 83 80 82 7f 00 00 66 08 00 00 00 43 45 2a eb f7 ff ef ff 0b 00 39 00 53 1f 3f 05 00 f4 0b d1 08 80 00 00 00 80 00 00 00 00 09 09 00 00 00 00 00 d8 0c 0c d1 28 08 00 bb cd 76 e3 12 c6 6d 1f
# ReportID: 1 / X:  131 | Y:  128 | Z:  129 | Rz:  127 | Rx:    0 | Ry:    0 | 0xff000020:  103 | Hat switch:   8 | Button: 0  0  0  0  0  0  0  0  0  0  0  0  0  0  0 | 0xff000021: 0 , 0 , 0 , 0 , 0 , 0 , 0 , 0 , 0 , 0 , 0 , 0 , 0 | 0xff000022:   68 ,   69 ,   42 ,  235 ,  248 ,  255 ,  239 ,  255 ,   11 ,    0 ,   67 ,    0 ,   83 ,   31 ,   63 ,    5 ,  243 ,   34 ,   12 ,  209 ,    8 ,  128 ,    0 ,    0 ,    0 ,  128 ,    0 ,    0 ,    0 ,    0 ,    9 ,    9 ,    0 ,    0 ,    0 ,    0 ,    0 ,  184 ,   59 ,   12 ,  209 ,   40 ,    8 ,    0 ,   53 ,  208 ,   24 ,  122 ,   80 ,  195 ,   70 ,    9 
E: 000000.275973 64 01 83 80 81 7f 00 00 67 08 00 00 00 44 45 2a eb f8 ff ef ff 0b 00 43 00 53 1f 3f 05 f3 22 0c d1 08 80 00 00 00 80 00 00 00 00 09 09 00 00 00 00 00 b8 3b 0c d1 28 08 00 35 d0 18 7a 50 c3 46 09
# ReportID: 1 / X:  131 | Y:  128 | Z:  130 | Rz:  127 | Rx:    0 | Ry:    0 | 0xff000020:  104 | Hat switch:   8 | Button: 0  0  0  0  0  0  0  0  0  0  0  0  0  0  0 | 0xff000021: 0 , 0 , 0 , 0 , 0 , 0 , 0 , 0 , 0 , 0 , 0 , 0 , 0 | 0xff000022:   69 ,   69 ,   42 ,  235 ,  246 ,  255 ,  240 ,  255 ,   11 ,    0 ,   34 ,    0 ,   61 ,   31 ,   81 ,    5 ,  230 ,   81 ,   12 ,  209 ,    8 ,  128 ,    0 ,    0 ,    0 ,  128 ,    0 ,    0 ,    0 ,    0 ,    9 ,    9 ,    0 ,    0 ,    0 ,    0 ,    0 ,  151 ,  106 ,   12 ,  209 ,   40 ,    8 ,    0 ,  176 ,  236 ,  142 ,  192 ,  229 ,  218 ,   38 ,  177 
E: 000000.280094 64 01 83 80 82 7f 00 00 68 08 00 00 00 45 45 2a eb f6 ff f0 ff 0b 00 22 00 3d 1f 51 05 e6 51 0c d1 08 80 00 00 00 80 00 00 00 00 09 09 00 00 00 00 00 97 6a 0c d1 28 08 00 b0 ec 8e c0 e5 da 26 b1
# ReportID: 1 / X:  131 | Y:  128 | Z:  129 | Rz:  127 | Rx:    0 | Ry:    0 | 0xff000020:  105 | Hat switch:   8 | Button: 0  0  0  0  0  0  0  0  0  0  0  0  0  0  0 | 0xff000021: 0 , 0 , 0 , 0 , 0 , 0 , 0 , 0 , 0 , 0 , 0 , 0 , 0 | 0xff000022:   70 ,   69 ,   42 ,  235 ,  247 ,  255 ,  243 ,  255 ,   12 ,    0 ,    3 ,    0 ,   56 ,   31 ,   84 ,    5 ,  217 ,  128 ,   12 ,  209 ,    8 ,  128 ,    0 ,    0 ,    0 ,  128 ,    0 ,    0 ,    0 ,    0 ,    9 ,    9 ,    0 ,    0 ,    0 ,    0 ,    0 ,  119 ,  153 ,   12 ,  209 ,   40 ,    8 ,    0 ,  228 ,  244 ,  136 ,   73 ,   47 ,  104 ,   37 ,   49 
E: 000000.284201 64 01 83 80 81 7f 00 00 69 08 00 00 00 46 45 2a eb f7 ff f3 ff 0c 00 03 00 38 1f 54 05 d9 80 0c d1 08 80 00 00 00 80 00 00 00 00 09 09 00 00 00 00 00 77 99 0c d1 28 08 00 e4 f4 88 49 2f 68 25 31
# ReportID: 1 / X:  131 | Y:  128 | Z:  130 | Rz:  127 | Rx:    0 | Ry:    0 | 0xff000020:  106 | Hat switch:   8 | Button: 0  0  0  0  0  0  0  0  0  0  0  0  0  0  0 | 0xff000021: 0 , 0 , 0 , 0 , 0 , 0 , 0 , 0 , 0 , 0 , 0 , 0 , 0 | 0xff000022:   71 ,   69 ,   42 ,  235 ,  245 ,  255 ,  244 ,  255 ,   13 ,    0 ,  127 ,    0 ,   89 ,   31 ,   50 ,    5 ,  204 ,  175 ,   12 ,  209 ,    8 ,  128 ,    0 ,    0 ,    0 ,  128 ,    0 ,    0 ,    0 ,    0 ,    9 ,    9 ,    0 ,    0 ,    0 ,    0 ,    0 ,   87 ,  200 ,   12 ,  209 ,   40 ,    8 ,    0 ,  139 ,  105 ,  145 ,  101 ,   96 ,   12 ,   51 ,   94 
E: 000000.288211 64 01 83 80 82 7f 00 00 6a 08 00 00 00 47 45 2a eb f5 ff f4 ff 0d 00 7f 00 59 1f 32 05 cc af 0c d1 08 80 00 00 00 80 00 00 00 00 09 09 00 00 00 00 00 57 c8 0c d1 28 08 00 8b 69 91 65 60 0c 33 5e
# ReportID: 1 / X:  131 | Y:  128 | Z:  129 | Rz:  127 | Rx:    0 | Ry:    0 | 0xff000020:  107 | Hat switch:   8 | Button: 0  0  0  0  0  0  0  0  0  0  0  0  0  0  0 | 0xff000021: 0 , 0 , 0 , 0 , 0 , 0 , 0 , 0 , 0 , 0 , 0 , 0 , 0 | 0xff000022:   72 ,   69 ,   42 ,  235 ,  246 ,  255 ,  240 ,  255 ,   11 ,    0 ,   97 ,    0 ,   77 ,   31 ,   54 ,    5 ,  191 ,  222 ,   12 ,  209 ,    8 ,  128 ,    0 ,    0 ,    0 ,  128 ,    0 ,    0 ,    0 ,    0 ,    9 ,    9 ,    0 ,    0 ,    0 ,    0 ,    0 ,   55 ,  247 ,   12 ,  209 ,   40 ,    8 ,    0 ,   59 ,  253 ,  215 ,  142 ,  218 ,   67 ,  213 ,   61 
E: 000000.292185 64 01 83 80 81 7f 00 00 6b 08 00 00 00 48 45 2a eb f6 ff f0 ff 0b 00 61 00 4d 1f 36 05 bf de 0c d1 08 80 00 00 00 80 00 00 00 00 09 09 00 00 00 00 00 37 f7 0c d1 28 08 00 3b fd d7 8e da 43 d5 3d
# ReportID: 1 / X:  131 | Y:  128 | Z:  129 | Rz:  127 | Rx:    0 | Ry:    0 | 0xff000020:  108 | Hat switch:   8 | Button: 0  0  0  0  0  0  0  0  0  0  0  0  0  0  0 | 0xff000021: 0 , 0 , 0 , 0 , 0 , 0 , 0 , 0 , 0 , 0 , 0 , 0 , 0 | 0xff000022:   73 ,   69 ,   42 ,  235 ,  247 ,  255 ,  241 ,  255 ,   11 ,    0 ,   75 ,    0 ,   62 ,   31 ,   63 ,    5 ,  178 ,   13 ,   13 ,  209 ,    8 ,  128 ,    0 ,    0 ,    0 ,  128 ,    0 ,    0 ,    0 ,    0 ,    9 ,    9 ,    0 ,    0 ,    0 ,    0 ,    0 ,   23 ,   38 ,   13 ,  209 ,   40 ,    8 ,    0 ,  172 ,   46 ,   37 ,  120 ,  245 ,  239 ,   25 ,  200 
E: 000000.297666 64 01 83 80 81 7f 00 00 6c 08 00 00 00 49 45 2a eb f7 ff f1 ff 0b 00 4b 00 3e 1f 3f 05 b2 0d 0d d1 08 80 00 00 00 80 00 00 00 00 09 09 00 00 00 00 00 17 26 0d d1 28 08 00 ac 2e 25 78 f5 ef 19 c8
# ReportID: 1 / X:  131 | Y:  128 | Z:  130 | Rz:  127 | Rx:    0 | Ry:    0 | 0xff000020:  109 | Hat switch:   8 | Button: 0  0  0  0  0  0  0  0  0  0  0  0  0  0  0 | 0xff000021: 0 , 0 , 0 , 0 , 0 , 0 , 0 , 0 , 0 , 0 , 0 , 0 , 0 | 0xff000022:   74 ,   69 ,   42 ,  235 ,  247 ,  255 ,  240 ,  255 ,   11 ,    0 ,   83 ,    0 ,   76 ,   31 ,   87 ,    5 ,  165 ,   60 ,   13 ,  209 ,    8 ,  128 ,    0 ,    0 ,    0 ,  128 ,    0 ,    0 ,    0 ,    0 ,    9 ,    9 ,    0 ,    0 ,    0 ,    0 ,    0 ,  247 ,   84 ,   13 ,  209 ,   40 ,    8 ,    0 ,   47 ,  166 ,  147 ,  157 ,  214 ,  228 ,  139 ,   49 
E: 000000.300652 64 01 83 80 82 7f 00 00 6d 08 00 00 00 4a 45 2a eb f7 ff f0 ff 0b 00 53 00 4c 1f 57 05 a5 3c 0d d1 08 80 00 00 00 80 00 00 00 00 09 09 00 00 00 00 00 f7 54 0d d1 28 08 00 2f a6 93 9d d6 e4 8b 31
# ReportID: 1 / X:  131 | Y:  128 | Z:  130 | Rz:  127 | Rx:    0 | Ry:    0 | 0xff000020:  110 | Hat switch:   0 | Button: 0  0  0  0  0  0  0  0  0  0  0  0  0  0  0 | 0xff000021: 0 , 0 , 0 , 0 , 0 , 0 , 0 , 0 , 0 , 0 , 0 , 0 , 0 | 0xff000022:   75 ,   69 ,   42 ,  235 ,  247 ,  255 ,  243 ,  255 ,   11 ,    0 ,   81 ,    0 ,   54 ,   31 ,  149 ,    5 ,  153 ,  107 ,   13 ,  209 ,    8 ,  128 ,    0 ,    0 ,    0 ,  128 ,    0 ,    0 ,    0 ,    0 ,    9 ,    9 ,    0 ,    0 ,    0 ,    0 ,    0 ,  215 ,  131 ,   13 ,  209 ,   40 ,    8 ,    0 ,  123 ,   42 ,  195 ,  187 ,   97 ,  183 ,  177 ,  170 
E: 000000.304281 64 01 83 80 82 7f 00 00 6e 00 00 00 00 4b 45 2a eb f7 ff f3 ff 0b 00 51 00 36 1f 95 05 99 6b 0d d1 08 80 00 00 00 80 00 00 00 00 09 09 00 00 00 00 00 d7 83 0d d1 28 08 00 7b 2a c3 bb 61 b7 b1 aa
# ReportID: 1 / X:  131 | Y:  128 | Z:  130 | Rz:  127 | Rx:    0 | Ry:    0 | 0xff000020:  111 | Hat switch:   0 | Button: 0  0  0  0  0  0  0  0  0  0  0  0  0  0  0 | 0xff000021: 0 , 0 , 0 , 0 , 0 , 0 , 0 , 0 , 0 , 0 , 0 , 0 , 0 | 0xff000022:   76 ,   69 ,   42 ,  235 ,  238 ,  255 ,  254 ,  255 ,   20 ,    0 ,  119 ,    0 ,  143 ,   30 ,  117 ,    5 ,  140 ,  154 ,   13 ,  209 ,    8 ,  128 ,    0 ,    0 ,    0 ,  128 ,    0 ,    0 ,    0 ,    0 ,    9 ,    9 ,    0 ,    0 ,    0 ,    0 ,    0 ,  183 ,  178 ,   13 ,  209 ,   40 ,    8 ,    0 ,   48 ,  218 ,   36 ,   29 ,  200 ,  212 ,  178 ,   74 
E: 000000.308016 64 01 83 80 82 7f 00 00 6f 00 00 00 00 4c 45 2a eb ee ff fe ff 14 00 77 00 8f 1e 75 05 8c 9a 0d d1 08 80 00 00 00 80 00 00 00 00 09 09 00 00 00 00 00 b7 b2 0d d1 28 08 00 30 da 24 1d c8 d4 b2 4a
# ReportID: 1 / X:  131 | Y:  128 | Z:  130 | Rz:  127 | Rx:    0 | Ry:    0 | 0xff000020:  112 | Hat switch:   0 | Button: 0  0  0  0  0  0  0  0  0  0  0  0  0  0  0 | 0xff000021: 0 , 0 , 0 , 0 , 0 , 0 , 0 , 0 , 0 , 0 , 0 , 0 , 0 | 0xff000022:   77 ,   69 ,   42 ,  235 ,  245 ,  255 ,  239 ,  255 ,   12 ,    0 ,  194 ,  255 ,   55 ,   32 ,  143 ,    4 ,  127 ,  201 ,   13 ,  209 ,    8 ,  128 ,    0 ,    0 ,    0 ,  128 ,    0 ,    0 ,    0 ,    0 ,    9 ,    9 ,    0 ,    0 ,    0 ,    0 ,    0 ,  151 ,  225 ,   13 ,  209 ,   40 ,    8 ,    0 ,  243 ,  148 ,  215 ,  170 ,  208 ,   49 ,  209 ,    1 
E: 000000.313763 64 01 83 80 82 7f 00 00 70 00 00 00 00 4d 45 2a eb f5 ff ef ff 0c 00 c2 ff 37 20 8f 04 7f c9 0d d1 08 80 00 00 00 80 00 00 00 00 09 09 00 00 00 00 00 97 e1 0d d1 28 08 00 f3 94 d7 aa d0 31 d1 01
# ReportID: 1 / X:  131 | Y:  128 | Z:  130 | Rz:  127 | Rx:    0 | Ry:    0 | 0xff000020:  113 | Hat switch:   0 | Button: 0  0  0  0  0  0  0  0  0  0  0  0  0  0  0 | 0xff000021: 0 , 0 , 0 , 0 , 0 , 0 , 0 , 0 , 0 , 0 , 0 , 0 , 0 | 0xff000022:   78 ,   69 ,   42 ,  235 ,  248 ,  255 ,  240 ,  255 ,   10 ,    0 ,   86 ,    0 ,   70 ,   31 ,  253 ,    4 ,  114 ,  248 ,   13 ,  209 ,    8 ,  128 ,    0 ,    0 ,    0 ,  128 ,    0 ,    0 ,    0 ,    0 ,    9 ,    9 ,    0 ,    0 ,    0 ,    0 ,    0 ,  119 ,   16 ,   14 ,  209 ,   40 ,    8 ,    0 ,  144 ,  173 ,  107 ,   94 ,   66 ,   37 ,   92 ,  182 
E: 000000.317539 64 01 83 80 82 7f 00 00 71 00 00 00 00 4e 45 2a eb f8 ff f0 ff 0a 00 56 00 46 1f fd 04 72 f8 0d d1 08 80 00 00 00 80 00 00 00 00 09 09 00 00 00 00 00 77 10 0e d1 28 08 00 90 ad 6b 5e 42 25 5c b6
# ReportID: 1 / X:  131 | Y:  128 | Z:  129 | Rz:  127 | Rx:    0 | Ry:    0 | 0xff000020:  114 | Hat switch:   0 | Button: 0  0  0  0  0  0  0  0  0  0  0  0  0  0  0 | 0xff000021: 0 , 0 , 0 , 0 , 0 , 0 , 0 , 0 , 0 , 0 , 0 , 0 , 0 | 0xff000022:   79 ,   69 ,   42 ,  235 ,  247 ,  255 ,  239 ,  255 ,   11 ,    0 ,   33 ,    0 ,   92 ,   31 ,   53 ,    5 ,  101 ,   39 ,   14 ,  209 ,    8 ,  128 ,    0 ,    0 ,    0 ,  128 ,    0 ,    0 ,    0 ,    0 ,    9 ,    9 ,    0 ,    0 ,    0 ,    0 ,    0 ,   87 ,   63 ,   14 ,  209 ,   40 ,    8 ,    0 ,   48 ,    3 ,   41 ,   32 ,  195 ,  144 ,  219 ,  192 
E: 000000.320044 64 01 83 80 81 7f 00 00 72 00 00 00 00 4f 45 2a eb f7 ff ef ff 0b 00 21 00 5c 1f 35 05 65 27 0e d1 08 80 00 00 00 80 00 00 00 00 09 09 00 00 00 00 00 57 3f 0e d1 28 08 00 30 03 29 20 c3 90 db c0
# ReportID: 1 / X:  131 | Y:  128 | Z:  130 | Rz:  127 | Rx:    0 | Ry:    0 | 0xff000020:  115 | Hat switch:   0 | Button: 0  0  0  0  0  0  0  0  0  0  0  0  0  0  0 | 0xff000021: 0 , 0 , 0 , 0 , 0 , 0 , 0 , 0 , 0 , 0 , 0 , 0 , 0 | 0xff000022:   80 ,   69 ,   42 ,  235 ,  245 ,  255 ,  238 ,  255 ,   10 ,    0 ,   31 ,    0 ,  132 ,   31 ,   59 ,    5 ,   88 ,   86 ,   14 ,  209 ,    8 ,  128 ,    0 ,    0 ,    0 ,  128 ,    0 ,    0 ,    0 ,    0 ,    9 ,    9 ,    0 ,    0 ,    0 ,    0 ,    0 ,   55 ,  110 ,   14 ,  209 ,   40 ,    8 ,    0 ,   22 ,   11 ,   19 ,    0 ,  100 ,  117 ,  184 ,   96 
E: 000000.325614 64 01 83 80 82 7f 00 00 73 00 00 00 00 50 45 2a eb f5 ff ee ff 0a 00 1f 00 84 1f 3b 05 58 56 0e d1 08 80 00 00 00 80 00 00 00 00 09 09 00 00 00 00 00 37 6e 0e d1 28 08 00 16 0b 13 00 64 75 b8 60
# ReportID: 1 / X:  131 | Y:  128 | Z:  129 | Rz:  127 | Rx:    0 | Ry:    0 | 0xff000020:  116 | Hat switch:   0 | Button: 0  0  0  0  0  0  0  0  0  0  0  0  0  0  0 | 0xff000021: 0 , 0 , 0 , 0 , 0 , 0 , 0 , 0 , 0 , 0 , 0 , 0 , 0 | 0xff000022:   81 ,   69 ,   42 ,  235 ,  247 ,  255 ,  239 ,  255 ,   12 ,    0 ,   22 ,    0 ,   92 ,   31 ,   18 ,    5 ,   75 ,  133 ,   14 ,  209 ,    8 ,  128 ,    0 ,    0 ,    0 ,  128 ,    0 ,    0 ,    0 ,    0 ,    9 ,    9 ,    0 ,    0 ,    0 ,    0 ,    0 ,   30 ,  157 ,   14 ,  209 ,   40 ,    8 ,    0 ,  138 ,  120 ,  179 ,  214 ,  121 ,   62 ,  185 ,   41 
E: 000000.328564 64 01 83 80 81 7f 00 00 74 00 00 00 00 51 45 2a eb f7 ff ef ff 0c 00 16 00 5c 1f 12 05 4b 85 0e d1 08 80 00 00 00 80 00 00 00 00 09 09 00 00 00 00 00 1e 9d 0e d1 28 08 00 8a 78 b3 d6 79 3e b9 29
# ReportID: 1 / X:  131 | Y:  128 | Z:  129 | Rz:  127 | Rx:    0 | Ry:    0 | 0xff000020:  117 | Hat switch:   0 | Button: 0  0  0  0  0  0  0  0  0  0  0  0  0  0  0 | 0xff000021: 0 , 0 , 0 , 0 , 0 , 0 , 0 , 0 , 0 , 0 , 0 , 0 , 0 | 0xff000022:   82 ,   69 ,   42 ,  235 ,  246 ,  255 ,  238 ,  255 ,   10 ,    0 ,   78 ,    0 ,  113 ,   31 ,    4 ,    5 ,   62 ,  180 ,   14 ,  209 ,    8 ,  128 ,    0 ,    0 ,    0 ,  128 ,    0 ,    0 ,    0 ,    0 ,    9 ,    9 ,    0 ,    0 ,    0 ,    0 ,    0 ,   16 ,  204 ,   14 ,  209 ,   40 ,    8 ,    0 ,  197 ,  212 ,  250 ,   69 ,  126 ,   94 ,  128 ,   17 
E: 000000.333282 64 01 83 80 81 7f 00 00 75 00 00 00 00 52 45 2a eb f6 ff ee ff 0a 00 4e 00 71 1f 04 05 3e b4 0e d1 08 80 00 00 00 80 00 00 00 00 09 09 00 00 00 00 00 10 cc 0e d1 28 08 00 c5 d4 fa 45 7e 5e 80 11
# ReportID: 1 / X:  131 | Y:  128 | Z:  129 | Rz:  127 | Rx:    0 | Ry:    0 | 0xff000020:  118 | Hat switch:   0 | Button: 0  0  0  0  0  0  0  0  0  0  0  0  0  0  0 | 0xff000021: 0 , 0 , 0 , 0 , 0 , 0 , 0 , 0 , 0 , 0 , 0 , 0 , 0 | 0xff000022:   83 ,   69 ,   42 ,  235 ,  247 ,  255 ,  238 ,  255 ,   10 ,    0 ,   16 ,    0 ,   76 ,   31 ,   40 ,    5 ,   50 ,  227 ,   14 ,  209 ,    8 ,  128 ,    0 ,    0 ,    0 ,  128 ,    0 ,    0 ,    0 ,    0 ,    9 ,    9 ,    0 ,    0 ,    0 ,    0 ,    0 ,  222 ,  250 ,   14 ,  209 ,   40 ,    8 ,    0 ,   14 ,  195 ,   48 ,  208 ,   73 ,   68 ,    2 ,   63 
E: 000000.336815 64 01 83 80 81 7f 00 00 76 00 00 00 00 53 45 2a eb f7 ff ee ff 0a 00 10 00 4c 1f 28 05 32 e3 0e d1 08 80 00 00 00 80 00 00 00 00 09 09 00 00 00 00 00 de fa 0e d1 28 08 00 0e c3 30 d0 49 44 02 3f
# ReportID: 1 / X:  131 | Y:  128 | Z:  129 | Rz:  127 | Rx:    0 | Ry:    0 | 0xff000020:  119 | Hat switch:   0 | Button: 0  0  0  0  0  0  0  0  0  0  0  0  0  0  0 | 0xff000021: 0 , 0 , 0 , 0 , 0 , 0 , 0 , 0 , 0 , 0 , 0 , 0 , 0 | 0xff000022:   84 ,   69 ,   42 ,  235 ,  245 ,  255 ,  238 ,  255 ,   10 ,    0 ,   44 ,    0 ,  155 ,   31 ,   32 ,    5 ,   38 ,   18 ,   15 ,  209 ,    8 ,  128 ,    0 ,    0 ,    0 ,  128 ,    0 ,    0 ,    0 ,    0 ,    9 ,    9 ,    0 ,    0 ,    0 ,    0 ,    0 ,  191 ,   41 ,   15 ,  209 ,   40 ,    8 ,    0 ,   15 ,   67 ,  178 ,   43 ,  206 ,  134 ,  166 ,  249 
E: 000000.340042 64 01 83 80 81 7f 00 00 77 00 00 00 00 54 45 2a eb f5 ff ee ff 0a 00 2c 00 9b 1f 20 05 26 12 0f d1 08 80 00 00 00 80 00 00 00 00 09 09 00 00 00 00 00 bf 29 0f d1 28 08 00 0f 43 b2 2b ce 86 a6 f9
# ReportID: 1 / X:  131 | Y:  128 | Z:  130 | Rz:  127 | Rx:    0 | Ry:    0 | 0xff000020:  120 | Hat switch:   0 | Button: 0  0  0  0  0  0  0  0  0  0  0  0  0  0  0 | 0xff000021: 0 , 0 , 0 , 0 , 0 , 0 , 0 , 0 , 0 , 0 , 0 , 0 , 0 | 0xff000022:   85 ,   69 ,   42 ,  235 ,  245 ,  255 ,  238 ,  255 ,    8 ,    0 ,   59 ,    0 ,   73 ,   31 ,   35 ,    5 ,   26 ,   65 ,   15 ,  209 ,    8 ,  128 ,    0 ,    0 ,    0 ,  128 ,    0 ,    0 ,    0 ,    0 ,    9 ,    9 ,    0 ,    0 ,    0 ,    0 ,    0 ,  160 ,   88 ,   15 ,  209 ,   40 ,    8 ,    0 ,  153 ,  103 ,  156 ,  147 ,  141 ,   23 ,   69 ,   20 
E: 000000.344146 64 01 83 80 82 7f 00 00 78 00 00 00 00 55 45 2a eb f5 ff ee ff 08 00 3b 00 49 1f 23 05 1a 41 0f d1 08 80 00 00 00 80 00 00 00 00 09 09 00 00 00 00 00 a0 58 0f d1 28 08 00 99 67 9c 93 8d 17 45 14
# ReportID: 1 / X:  131 | Y:  128 | Z:  129 | Rz:  127 | Rx:    0 | Ry:    0 | 0xff000020:  121 | Hat switch:   0 | Button: 0  0  0  0  0  0  0  0  0  0  0  0  0  0  0 | 0xff000021: 0 , 0 , 0 , 0 , 0 , 0 , 0 , 0 , 0 , 0 , 0 , 0 , 0 | 0xff000022:   86 ,   69 ,   42 ,  235 ,  246 ,  255 ,  238 ,  255 ,   10 ,    0 ,   42 ,    0 ,  111 ,   31 ,   40 ,    5 ,   12 ,  112 ,   15 ,  209 ,    8 ,  128 ,    0 ,    0 ,    0 ,  128 ,    0 ,    0 ,    0 ,    0 ,    9 ,    9 ,    0 ,    0 ,    0 ,    0 ,    0 ,  119 ,  135 ,   15 ,  209 ,   40 ,    8 ,    0 ,  119 ,  193 ,   13 ,  187 ,  151 ,  234 ,   52 ,   61 
E: 000000.348491 64 01 83 80 81 7f 00 00 79 00 00 00 00 56 45 2a eb f6 ff ee ff 0a 00 2a 00 6f 1f 28 05 0c 70 0f d1 08 80 00 00 00 80 00 00 00 00 09 09 00 00 00 00 00 77 87 0f d1 28 08 00 77 c1 0d bb 97 ea 34 3d
# ReportID: 1 / X:  131 | Y:  128 | Z:  129 | Rz:  127 | Rx:    0 | Ry:    0 | 0xff000020:  122 | Hat switch:   0 | Button: 0  0  0  0  0  0  0  0  0  0  0  0  0  0  0 | 0xff000021: 0 , 0 , 0 , 0 , 0 , 0 , 0 , 0 , 0 , 0 , 0 , 0 , 0 | 0xff000022:   87 ,   69 ,   42 ,  235 ,  245 ,  255 ,  238 ,  255 ,    9 ,    0 ,   20 ,    0 ,   66 ,   31 ,   46 ,    5 ,  254 ,  158 ,   15 ,  209 ,    8 ,  128 ,    0 ,    0 ,    0 ,  128 ,    0 ,    0 ,    0 ,    0 ,    9 ,    9 ,    0 ,    0 ,    0 ,    0 ,    0 ,   87 ,  182 ,   15 ,  209 ,   40 ,    8 ,    0 ,  205 ,  245 ,  121 ,   21 ,  151 ,  122 ,  151 ,  123 
E: 000000.353798 64 01 83 80 81 7f 00 00 7a 00 00 00 00 57 45 2a eb f5 ff ee ff 09 00 14 00 42 1f 2e 05 fe 9e 0f d1 08 80 00 00 00 80 00 00 00 00 09 09 00 00 00 00 00 57 b6 0f d1 28 08 00 cd f5 79 15 97 7a 97 7b
# ReportID: 1 / X:  131 | Y:  128 | Z:  129 | Rz:  127 | Rx:    0 | Ry:    0 | 0xff000020:  123 | Hat switch:   0 | Button: 0  0  0  0  0  0  0  0  0  0  0  0  0  0  0 | 0xff000021: 0 , 0 , 0 , 0 , 0 , 0 , 0 , 0 , 0 , 0 , 0 , 0 , 0 | 0xff000022:   88 ,   69 ,   42 ,  235 ,  247 ,  255 ,  238 ,  255 ,    9 ,    0 ,   65 ,    0 ,   53 ,   31 ,   44 ,    5 ,  241 ,  205 ,   15 ,  209 ,    8 ,  128 ,    0 ,    0 ,    0 ,  128 ,    0 ,    0 ,    0 ,    0 ,    9 ,    9 ,    0 ,    0 ,    0 ,    0 ,    0 ,   55 ,  229 ,   15 ,  209 ,   40 ,    8 ,    0 ,  214 ,  244 ,  240 ,   31 ,   48 ,  150 ,   81 ,   86 
E: 000000.357448 64 01 83 80 81 7f 00 00 7b 00 00 00 00 58 45 2a eb f7 ff ee ff 09 00 41 00 35 1f 2c 05 f1 cd 0f d1 08 80 00 00 00 80 00 00 00 00 09 09 00 00 00 00 00 37 e5 0f d1 28 08 00 d6 f4 f0 1f 30 96 51 56
# ReportID: 1 / X:  131 | Y:  128 | Z:  130 | Rz:  127 | Rx:    0 | Ry:    0 | 0xff000020:  124 | Hat switch:   0 | Button: 0  0  0  0  0  0  0  0  0  0  0  0  0  0  0 | 0xff000021: 0 , 0 , 0 , 0 , 0 , 0 , 0 , 0 , 0 , 0 , 0 , 0 , 0 | 0xff000022:   89 ,   69 ,   42 ,  235 ,  248 ,  255 ,  237 ,  255 ,   10 ,    0 ,   45 ,    0 ,   66 ,   31 ,   50 ,    5 ,  230 ,  252 ,   15 ,  209 ,    8 ,  128 ,    0 ,    0 ,    0 ,  128 ,    0 ,    0 ,    0 ,    0 ,    9 ,    9 ,    0 ,    0 ,    0 ,    0 ,    0 ,   23 ,   20 ,   16 ,  209 ,   40 ,    8 ,    0 ,   53 ,  249 ,  125 ,  175 ,  130 ,  249 ,   13 ,   31 
E: 000000.360486 64 01 83 80 82 7f 00 00 7c 00 00 00 00 59 45 2a eb f8 ff ed ff 0a 00 2d 00 42 1f 32 05 e6 fc 0f d1 08 80 00 00 00 80 00 00 00 00 09 09 00 00 00 00 00 17 14 10 d1 28 08 00 35 f9 7d af 82 f9 0d 1f
# ReportID: 1 / X:  131 | Y:  128 | Z:  130 | Rz:  127 | Rx:    0 | Ry:    0 | 0xff000020:  125 | Hat switch:   0 | Button: 0  0  0  0  0  0  0  0  0  0  0  0  0  0  0 | 0xff000021: 0 , 0 , 0 , 0 , 0 , 0 , 0 , 0 , 0 , 0 , 0 , 0 , 0 | 0xff000022:   90 ,   69 ,   42 ,  235 ,  246 ,  255 ,  238 ,  255 ,   10 ,    0 ,   45 ,    0 ,  101 ,   31 ,   73 ,    5 ,  217 ,   43 ,   16 ,  209 ,    8 ,  128 ,    0 ,    0 ,    0 ,  128 ,    0 ,    0 ,    0 ,    0 ,    9 ,    9 ,    0 ,    0 ,    0 ,    0 ,    0 ,  247 ,   66 ,   16 ,  209 ,   40 ,    8 ,    0 ,  151 ,  122 ,   88 ,  202 ,   56 ,  129 ,   67 ,   24 
E: 000000.365844 64 01 83 80 82 7f 00 00 7d 00 00 00 00 5a 45 2a eb f6 ff ee ff 0a 00 2d 00 65 1f 49 05 d9 2b 10 d1 08 80 00 00 00 80 00 00 00 00 09 09 00 00 00 00 00 f7 42 10 d1 28 08 00 97 7a 58 ca 38 81 43 18
# ReportID: 1 / X:  131 | Y:  128 | Z:  129 | Rz:  127 | Rx:    0 | Ry:    0 | 0xff000020:  126 | Hat switch:   0 | Button: 0  0  0  0  0  0  0  0  0  0  0  0  0  0  0 | 0xff000021: 0 , 0 , 0 , 0 , 0 , 0 , 0 , 0 , 0 , 0 , 0 , 0 , 0 | 0xff000022:   91 ,   69 ,   42 ,  235 ,  246 ,  255 ,  238 ,  255 ,    9 ,    0 ,   78 ,    0 ,   83 ,   31 ,   61 ,    5 ,  205 ,   90 ,   16 ,  209 ,    8 ,  128 ,    0 ,    0 ,    0 ,  128 ,    0 ,    0 ,    0 ,    0 ,    9 ,    9 ,    0 ,    0 ,    0 ,    0 ,    0 ,  215 ,  113 ,   16 ,  209 ,   40 ,    8 ,    0 ,  163 ,  156 ,   59 ,  246 ,  194 ,  182 ,  213 ,  211 
E: 000000.369764 64 01 83 80 81 7f 00 00 7e 00 00 00 00 5b 45 2a eb f6 ff ee ff 09 00 4e 00 53 1f 3d 05 cd 5a 10 d1 08 80 00 00 00 80 00 00 00 00 09 09 00 00 00 00 00 d7 71 10 d1 28 08 00 a3 9c 3b f6 c2 b6 d5 d3
# ReportID: 1 / X:  131 | Y:  128 | Z:  130 | Rz:  127 | Rx:    0 | Ry:    0 | 0xff000020:  127 | Hat switch:   0 | Button: 0  0  0  0  0  0  0  0  0  0  0  0  0  0  0 | 0xff000021: 0 , 0 , 0 , 0 , 0 , 0 , 0 , 0 , 0 , 0 , 0 , 0 , 0 | 0xff000022:   92 ,   69 ,   42 ,  235 ,  246 ,  255 ,  239 ,  255 ,   11 ,    0 ,   61 ,    0 ,   76 ,   31 ,   62 ,    5 ,  192 ,  137 ,   16 ,  209 ,    8 ,  128 ,    0 ,    0 ,    0 ,  128 ,    0 ,    0 ,    0 ,    0 ,    9 ,    9 ,    0 ,    0 ,    0 ,    0 ,    0 ,  183 ,  160 ,   16 ,  209 ,   40 ,    8 ,    0 ,   81 ,   56 ,   26 ,   93 ,  137 ,  119 ,   87 ,   35 
E: 000000.372760 64 01 83 80 82 7f 00 00 7f 00 00 00 00 5c 45 2a eb f6 ff ef ff 0b 00 3d 00 4c 1f 3e 05 c0 89 10 d1 08 80 00 00 00 80 00 00 00 00 09 09 00 00 00 00 00 b7 a0 10 d1 28 08 00 51 38 1a 5d 89 77 57 23
# ReportID: 1 / X:  131 | Y:  128 | Z:  130 | Rz:  127 | Rx:    0 | Ry:    0 | 0xff000020:  128 | Hat switch:   0 | Button: 0  0  0  0  0  0  0  0  0  0  0  0  0  0  0 | 0xff000021: 0 , 0 , 0 , 0 , 0 , 0 , 0 , 0 , 0 , 0 , 0 , 0 , 0 | 0xff000022:   93 ,   69 ,   42 ,  235 ,  244 ,  255 ,  239 ,  255 ,   10 ,    0 ,   52 ,    0 ,  105 ,   31 ,   73 ,    5 ,  176 ,  184 ,   16 ,  209 ,    8 ,  128 ,    0 ,    0 ,    0 ,  128 ,    0 ,    0 ,    0 ,    0 ,    9 ,    9 ,    0 ,    0 ,    0 ,    0 ,    0 ,  151 ,  207 ,   16 ,  209 ,   40 ,    8 ,    0 ,  255 ,  122 ,  176 ,  206 ,  181 ,  105 ,  234 ,   92 
E: 000000.376041 64 01 83 80 82 7f 00 00 80 00 00 00 00 5d 45 2a eb f4 ff ef ff 0a 00 34 00 69 1f 49 05 b0 b8 10 d1 08 80 00 00 00 80 00 00 00 00 09 09 00 00 00 00 00 97 cf 10 d1 28 08 00 ff 7a b0 ce b5 69 ea 5c
# ReportID: 1 / X:  132 | Y:  128 | Z:  130 | Rz:  127 | Rx:    0 | Ry:    0 | 0xff000020:  129 | Hat switch:   0 | Button: 0  0  0  0  0  0  0  0  0  0  0  0  0  0  0 | 0xff000021: 0 , 0 , 0 , 0 , 0 , 0 , 0 , 0 , 0 , 0 , 0 , 0 , 0 | 0xff000022:   94 ,   69 ,   42 ,  235 ,  247 ,  255 ,  239 ,  255 ,   11 ,    0 ,   72 ,    0 ,   79 ,   31 ,   72 ,    5 ,  163 ,  231 ,   16 ,  209 ,    8 ,  128 ,    0 ,    0 ,    0 ,  128 ,    0 ,    0 ,    0 ,    0 ,    9 ,    9 ,    0 ,    0 ,    0 ,    0 ,    0 ,  119 ,  254 ,   16 ,  209 ,   40 ,    8 ,    0 ,   75 ,  235 ,  142 ,  217 ,  185 ,  108 ,   50 ,  232 
E: 000000.380637 64 01 84 80 82 7f 00 00 81 00 00 00 00 5e 45 2a eb f7 ff ef ff 0b 00 48 00 4f 1f 48 05 a3 e7 10 d1 08 80 00 00 00 80 00 00 00 00 09 09 00 00 00 00 00 77 fe 10 d1 28 08 00 4b eb 8e d9 b9 6c 32 e8
# ReportID: 1 / X:  131 | Y:  128 | Z:  129 | Rz:  127 | Rx:    0 | Ry:    0 | 0xff000020:  130 | Hat switch:   0 | Button: 0  0  0  0  0  0  0  0  0  0  0  0  0  0  0 | 0xff000021: 0 , 0 , 0 , 0 , 0 , 0 , 0 , 0 , 0 , 0 , 0 , 0 , 0 | 0xff000022:   95 ,   69 ,   42 ,  235 ,  247 ,  255 ,  238 ,  255 ,   11 ,    0 ,   80 ,    0 ,   84 ,   31 ,   69 ,    5 ,  150 ,   22 ,   17 ,  209 ,    8 ,  128 ,    0 ,    0 ,    0 ,  128 ,    0 ,    0 ,    0 ,    0 ,    9 ,    9 ,    0 ,    0 ,    0 ,    0 ,    0 ,   87 ,   45 ,   17 ,  209 ,   40 ,    8 ,    0 ,   29 ,  190 ,  220 ,  187 ,  158 ,  119 ,   83 ,   67 
E: 000000.384067 64 01 83 80 81 7f 00 00 82 00 00 00 00 5f 45 2a eb f7 ff ee ff 0b 00 50 00 54 1f 45 05 96 16 11 d1 08 80 00 00 00 80 00 00 00 00 09 09 00 00 00 00 00 57 2d 11 d1 28 08 00 1d be dc bb 9e 77 53 43
# ReportID: 1 / X:  131 | Y:  128 | Z:  130 | Rz:  127 | Rx:    0 | Ry:    0 | 0xff000020:  131 | Hat switch:   0 | Button: 0  0  0  0  0  0  0  0  0  0  0  0  0  0  0 | 0xff000021: 0 , 0 , 0 , 0 , 0 , 0 , 0 , 0 , 0 , 0 , 0 , 0 , 0 | 0xff000022:   96 ,   69 ,   42 ,  235 ,  246 ,  255 ,  239 ,  255 ,   11 ,    0 ,   53 ,    0 ,   78 ,   31 ,   72 ,    5 ,  137 ,   69 ,   17 ,  209 ,    8 ,  128 ,    0 ,    0 ,    0 ,  128 ,    0 ,    0 ,    0 ,    0 ,    9 ,    9 ,    0 ,    0 ,    0 ,    0 ,    0 ,   55 ,   92 ,   17 ,  209 ,   40 ,    8 ,    0 ,   23 ,  167 ,  128 ,   63 ,   72 ,  141 ,  151 ,  245 
E: 000000.389637 64 01 83 80 82 7f 00 00 83 00 00 00 00 60 45 2a eb f6 ff ef ff 0b 00 35 00 4e 1f 48 05 89 45 11 d1 08 80 00 00 00 80 00 00 00 00 09 09 00 00 00 00 00 37 5c 11 d1 28 08 00 17 a7 80 3f 48 8d 97 f5
# ReportID: 1 / X:  131 | Y:  128 | Z:  130 | Rz:  127 | Rx:    0 | Ry:    0 | 0xff000020:  132 | Hat switch:   0 | Button: 0  0  0  0  0  0  0  0  0  0  0  0  0  0  0 | 0xff000021: 0 , 0 , 0 , 0 , 0 , 0 , 0 , 0 , 0 , 0 , 0 , 0 , 0 | 0xff000022:   97 ,   69 ,   42 ,  235 ,  247 ,  255 ,  240 ,  255 ,   12 ,    0 ,   72 ,    0 ,   92 ,   31 ,   60 ,    5 ,  124 ,  116 ,   17 ,  209 ,    8 ,  128 ,    0 ,    0 ,    0 ,  128 ,    0 ,    0 ,    0 ,    0 ,    9 ,    9 ,    0 ,    0 ,    0 ,    0 ,    0 ,   23 ,  139 ,   17 ,  209 ,   40 ,    8 ,    0 ,   80 ,   85 ,   51 ,   27 ,  115 ,   78 ,  186 ,  179 
E: 000000.392613 64 01 83 80 82 7f 00 00 84 00 00 00 00 61 45 2a eb f7 ff f0 ff 0c 00 48 00 5c 1f 3c 05 7c 74 11 d1 08 80 00 00 00 80 00 00 00 00 09 09 00 00 00 00 00 17 8b 11 d1 28 08 00 50 55 33 1b 73 4e ba b3
# ReportID: 1 / X:  131 | Y:  128 | Z:  130 | Rz:  127 | Rx:    0 | Ry:    0 | 0xff000020:  133 | Hat switch:   0 | Button: 0  0  0  0  0  0  0  0  0  0  0  0  0  0  0 | 0xff000021: 0 , 0 , 0 , 0 , 0 , 0 , 0 , 0 , 0 , 0 , 0 , 0 , 0 | 0xff000022:   98 ,   69 ,   42 ,  235 ,  247 ,  255 ,  239 ,  255 ,   10 ,    0 ,   56 ,    0 ,   62 ,   31 ,   57 ,    5 ,  111 ,  163 ,   17 ,  209 ,    8 ,  128 ,    0 ,    0 ,    0 ,  128 ,    0 ,    0 ,    0 ,    0 ,    9 ,    9 ,    0 ,    0 ,    0 ,    0 ,    0 ,  247 ,  185 ,   17 ,  209 ,   40 ,    8 ,    0 ,  158 ,  247 ,  219 ,   40 ,  124 ,   14 ,  245 ,  162 
E: 000000.396392 64 01 83 80 82 7f 00 00 85 00 00 00 00 62 45 2a eb f7 ff ef ff 0a 00 38 00 3e 1f 39 05 6f a3 11 d1 08 80 00 00 00 80 00 00 00 00 09 09 00 00 00 00 00 f7 b9 11 d1 28 08 00 9e f7 db 28 7c 0e f5 a2
# ReportID: 1 / X:  132 | Y:  128 | Z:  130 | Rz:  127 | Rx:    0 | Ry:    0 | 0xff000020:  134 | Hat switch:   0 | Button: 0  0  0  0  0  0  0  0  0  0  0  0  0  0  0 | 0xff000021: 0 , 0 , 0 , 0 , 0 , 0 , 0 , 0 , 0 , 0 , 0 , 0 , 0 | 0xff000022:   99 ,   69 ,   42 ,  235 ,  247 ,  255 ,  239 ,  255 ,   11 ,    0 ,   63 ,    0 ,   88 ,   31 ,   49 ,    5 ,   98 ,  210 ,   17 ,  209 ,    8 ,  128 ,    0 ,    0 ,    0 ,  128 ,    0 ,    0 ,    0 ,    0 ,    9 ,    9 ,    0 ,    0 ,    0 ,    0 ,    0 ,  215 ,  232 ,   17 ,  209 ,   40 ,    8 ,    0 ,  210 ,   45 ,  201 ,  166 ,  202 ,  250 ,  121 ,   60 
E: 000000.400041 64 01 84 80 82 7f 00 00 86 00 00 00 00 63 45 2a eb f7 ff ef ff 0b 00 3f 00 58 1f 31 05 62 d2 11 d1 08 80 00 00 00 80 00 00 00 00 09 09 00 00 00 00 00 d7 e8 11 d1 28 08 00 d2 2d c9 a6 ca fa 79 3c
# ReportID: 1 / X:  131 | Y:  128 | Z:  129 | Rz:  127 | Rx:    0 | Ry:    0 | 0xff000020:  135 | Hat switch:   0 | Button: 0  0  0  0  0  0  0  0  0  0  0  0  0  0  0 | 0xff000021: 0 , 0 , 0 , 0 , 0 , 0 , 0 , 0 , 0 , 0 , 0 , 0 , 0 | 0xff000022:  100 ,   69 ,   42 ,  235 ,  246 ,  255 ,  238 ,  255 ,   10 ,    0 ,   41 ,    0 ,   95 ,   31 ,   32 ,    5 ,   85 ,    1 ,   18 ,  209 ,    8 ,  128 ,    0 ,    0 ,    0 ,  128 ,    0 ,    0 ,    0 ,    0 ,    9 ,    9 ,    0 ,    0 ,    0 ,    0 ,    0 ,  183 ,   23 ,   18 ,  209 ,   40 ,    8 ,    0 ,  232 ,  189 ,  121 ,  121 ,  104 ,  194 ,   18 ,  155 
E: 000000.404928 64 01 83 80 81 7f 00 00 87 00 00 00 00 64 45 2a eb f6 ff ee ff 0a 00 29 00 5f 1f 20 05 55 01 12 d1 08 80 00 00 00 80 00 00 00 00 09 09 00 00 00 00 00 b7 17 12 d1 28 08 00 e8 bd 79 79 68 c2 12 9b
# ReportID: 1 / X:  131 | Y:  128 | Z:  130 | Rz:  127 | Rx:    0 | Ry:    0 | 0xff000020:  136 | Hat switch:   0 | Button: 0  0  0  0  0  0  0  0  0  0  0  0  0  0  0 | 0xff000021: 0 , 0 , 0 , 0 , 0 , 0 , 0 , 0 , 0 , 0 , 0 , 0 , 0 | 0xff000022:  101 ,   69 ,   42 ,  235 ,  246 ,  255 ,  237 ,  255 ,   10 ,    0 ,   39 ,    0 ,  112 ,   31 ,   19 ,    5 ,   72 ,   48 ,   18 ,  209 ,    8 ,  128 ,    0 ,    0 ,    0 ,  128 ,    0 ,    0 ,    0 ,    0 ,    9 ,    9 ,    0 ,    0 ,    0 ,    0 ,    0 ,  151 ,   70 ,   18 ,  209 ,   40 ,    8 ,    0 ,   42 ,   80 ,  114 ,   98 ,  166 ,   34 ,   79 ,   21 
E: 000000.408012 64 01 83 80 82 7f 00 00 88 00 00 00 00 65 45 2a eb f6 ff ed ff 0a 00 27 00 70 1f 13 05 48 30 12 d1 08 80 00 00 00 80 00 00 00 00 09 09 00 00 00 00 00 97 46 12 d1 28 08 00 2a 50 72 62 a6 22 4f 15
# ReportID: 1 / X:  131 | Y:  128 | Z:  129 | Rz:  127 | Rx:    0 | Ry:    0 | 0xff000020:  137 | Hat switch:   0 | Button: 0  0  0  0  0  0  0  0  0  0  0  0  0  0  0 | 0xff000021: 0 , 0 , 0 , 0 , 0 , 0 , 0 , 0 , 0 , 0 , 0 , 0 , 0 | 0xff000022:  102 ,   69 ,   42 ,  235 ,  246 ,  255 ,  238 ,  255 ,   12 ,    0 ,   54 ,    0 ,   96 ,   31 ,   36 ,    5 ,   60 ,   95 ,   18 ,  209 ,    8 ,  128 ,    0 ,    0 ,    0 ,  128 ,    0 ,    0 ,    0 ,    0 ,    9 ,    9 ,    0 ,    0 ,    0 ,    0 ,    0 ,  119 ,  117 ,   18 ,  209 ,   40 ,    8 ,    0 ,  191 ,   52 ,  149 ,  145 ,  207 ,  196 ,   55 ,   32 
E: 000000.412019 64 01 83 80 81 7f 00 00 89 00 00 00 00 66 45 2a eb f6 ff ee ff 0c 00 36 00 60 1f 24 05 3c 5f 12 d1 08 80 00 00 00 80 00 00 00 00 09 09 00 00 00 00 00 77 75 12 d1 28 08 00 bf 34 95 91 cf c4 37 20
# ReportID: 1 / X:  131 | Y:  128 | Z:  130 | Rz:  127 | Rx:    0 | Ry:    0 | 0xff000020:  138 | Hat switch:   0 | Button: 0  0  0  0  0  0  0  0  0  0  0  0  0  0  0 | 0xff000021: 0 , 0 , 0 , 0 , 0 , 0 , 0 , 0 , 0 , 0 , 0 , 0 , 0 | 0xff000022:  103 ,   69 ,   42 ,  235 ,  246 ,  255 ,  237 ,  255 ,   10 ,    0 ,   51 ,    0 ,   96 ,   31 ,   32 ,    5 ,   47 ,  142 ,   18 ,  209 ,    8 ,  128 ,    0 ,    0 ,    0 ,  128 ,    0 ,    0 ,    0 ,    0 ,    9 ,    9 ,    0 ,    0 ,    0 ,    0 ,    0 ,   87 ,  164 ,   18 ,  209 ,   40 ,    8 ,    0 ,   24 ,  197 ,  139 ,    3 ,  133 ,  158 ,  126 ,  176 
E: 000000.416040 64 01 83 80 82 7f 00 00 8a 00 00 00 00 67 45 2a eb f6 ff ed ff 0a 00 33 00 60 1f 20 05 2f 8e 12 d1 08 80 00 00 00 80 00 00 00 00 09 09 00 00 00 00 00 57 a4 12 d1 28 08 00 18 c5 8b 03 85 9e 7e b0
# ReportID: 1 / X:  131 | Y:  128 | Z:  129 | Rz:  127 | Rx:    0 | Ry:    0 | 0xff000020:  139 | Hat switch:   0 | Button: 0  0  0  0  0  0  0  0  0  0  0  0  0  0  0 | 0xff000021: 0 , 0 , 0 , 0 , 0 , 0 , 0 , 0 , 0 , 0 , 0 , 0 , 0 | 0xff000022:  104 ,   69 ,   42 ,  235 ,  246 ,  255 ,  238 ,  255 ,   10 ,    0 ,   37 ,    0 ,   90 ,   31 ,   34 ,    5 ,   34 ,  189 ,   18 ,  209 ,    8 ,  128 ,    0 ,    0 ,    0 ,  128 ,    0 ,    0 ,    0 ,    0 ,    9 ,    9 ,    0 ,    0 ,    0 ,    0 ,    0 ,   55 ,  211 ,   18 ,  209 ,   40 ,    8 ,    0 ,  196 ,  200 ,  129 ,  149 ,   57 ,   26 ,   16 ,  127 
E: 000000.420342 64 01 83 80 81 7f 00 00 8b 00 00 00 00 68 45 2a eb f6 ff ee ff 0a 00 25 00 5a 1f 22 05 22 bd 12 d1 08 80 00 00 00 80 00 00 00 00 09 09 00 00 00 00 00 37 d3 12 d1 28 08 00 c4 c8 81 95 39 1a 10 7f
# ReportID: 1 / X:  131 | Y:  128 | Z:  129 | Rz:  127 | Rx:    0 | Ry:    0 | 0xff000020:  140 | Hat switch:   0 | Button: 0  0  0  0  0  0  0  0  0  0  0  0  0  0  0 | 0xff000021: 0 , 0 , 0 , 0 , 0 , 0 , 0 , 0 , 0 , 0 , 0 , 0 , 0 | 0xff000022:  105 ,   69 ,   42 ,  235 ,  245 ,  255 ,  238 ,  255 ,   11 ,    0 ,   31 ,    0 ,  101 ,   31 ,   17 ,    5 ,   21 ,  236 ,   18 ,  209 ,    8 ,  128 ,    0 ,    0 ,    0 ,  128 ,    0 ,    0 ,    0 ,    0 ,    9 ,    9 ,    0 ,    0 ,    0 ,    0 ,    0 ,   23 ,    2 ,   19 ,  209 ,   40 ,    8 ,    0 ,  205 ,   76 ,   30 ,   27 ,  244 ,  233 ,  201 ,  248 
E: 000000.424039 64 01 83 80 81 7f 00 00 8c 00 00 00 00 69 45 2a eb f5 ff ee ff 0b 00 1f 00 65 1f 11 05 15 ec 12 d1 08 80 00 00 00 80 00 00 00 00 09 09 00 00 00 00 00 17 02 13 d1 28 08 00 cd 4c 1e 1b f4 e9 c9 f8
