# Sony Interactive Entertainment DualSense Wireless Controller
# 0x05, 0x01,                    // Usage Page (Generic Desktop)        0
# 0x09, 0x05,                    // Usage (Game Pad)                    2
# 0xa1, 0x01,                    // Collection (Application)            4
# 0x85, 0x01,                    //  Report ID (1)                      6
# 0x09, 0x30,                    //  Usage (X)                          8
# 0x09, 0x31,                    //  Usage (Y)                          10
# 0x09, 0x32,                    //  Usage (Z)                          12
# 0x09, 0x35,                    //  Usage (Rz)                         14
# 0x09, 0x33,                    //  Usage (Rx)                         16
# 0x09, 0x34,                    //  Usage (Ry)                         18
# 0x15, 0x00,                    //  Logical Minimum (0)                20
# 0x26, 0xff, 0x00,              //  Logical Maximum (255)              22
# 0x75, 0x08,                    //  Report Size (8)                    25
# 0x95, 0x06,                    //  Report Count (6)                   27
# 0x81, 0x02,                    //  Input (Data,Var,Abs)               29
# 0x06, 0x00, 0xff,              //  Usage Page (Vendor Defined Page 1) 31
# 0x09, 0x20,                    //  Usage (Vendor Usage 0x20)          34
# 0x95, 0x01,                    //  Report Count (1)                   36
# 0x81, 0x02,                    //  Input (Data,Var,Abs)               38
# 0x05, 0x01,                    //  Usage Page (Generic Desktop)       40
# 0x09, 0x39,                    //  Usage (Hat switch)                 42
# 0x15, 0x00,                    //  Logical Minimum (0)                44
# 0x25, 0x07,                    //  Logical Maximum (7)                46
# 0x35, 0x00,                    //  Physical Minimum (0)               48
# 0x46, 0x3b, 0x01,              //  Physical Maximum (315)             50
# 0x65, 0x14,                    //  Unit (EnglishRotation: deg)        53
# 0x75, 0x04,                    //  Report Size (4)                    55
# 0x95, 0x01,                    //  Report Count (1)                   57
# 0x81, 0x42,                    //  Input (Data,Var,Abs,Null)          59
# 0x65, 0x00,                    //  Unit (None)                        61
# 0x05, 0x09,                    //  Usage Page (Button)                63
# 0x19, 0x01,                    //  Usage Minimum (1)                  65
# 0x29, 0x0f,                    //  Usage Maximum (15)                 67
# 0x15, 0x00,                    //  Logical Minimum (0)                69
# 0x25, 0x01,                    //  Logical Maximum (1)                71
# 0x75, 0x01,                    //  Report Size (1)                    73
# 0x95, 0x0f,                    //  Report Count (15)                  75
# 0x81, 0x02,                    //  Input (Data,Var,Abs)               77
# 0x06, 0x00, 0xff,              //  Usage Page (Vendor Defined Page 1) 79
# 0x09, 0x21,                    //  Usage (Vendor Usage 0x21)          82
# 0x95, 0x0d,                    //  Report Count (13)                  84
# 0x81, 0x02,                    //  Input (Data,Var,Abs)               86
# 0x06, 0x00, 0xff,              //  Usage Page (Vendor Defined Page 1) 88
# 0x09, 0x22,                    //  Usage (Vendor Usage 0x22)          91
# 0x15, 0x00,                    //  Logical Minimum (0)                93
# 0x26, 0xff, 0x00,              //  Logical Maximum (255)              95
# 0x75, 0x08,                    //  Report Size (8)                    98
# 0x95, 0x34,                    //  Report Count (52)                  100
# 0x81, 0x02,                    //  Input (Data,Var,Abs)               102
# 0x85, 0x02,                    //  Report ID (2)                      104
# 0x09, 0x23,                    //  Usage (Vendor Usage 0x23)          106
# 0x95, 0x2f,                    //  Report Count (47)                  108
# 0x91, 0x02,                    //  Output (Data,Var,Abs)              110
# 0x85, 0x05,                    //  Report ID (5)                      112
# 0x09, 0x33,                    //  Usage (Vendor Usage 0x33)          114
# 0x95, 0x28,                    //  Report Count (40)                  116
# 0xb1, 0x02,                    //  Feature (Data,Var,Abs)             118
# 0x85, 0x08,                    //  Report ID (8)                      120
# 0x09, 0x34,                    //  Usage (Vendor Usage 0x34)          122
# 0x95, 0x2f,                    //  Report Count (47)                  124
# 0xb1, 0x02,                    //  Feature (Data,Var,Abs)             126
# 0x85, 0x09,                    //  Report ID (9)                      128
# 0x09, 0x24,                    //  Usage (Vendor Usage 0x24)          130
# 0x95, 0x13,                    //  Report Count (19)                  132
# 0xb1, 0x02,                    //  Feature (Data,Var,Abs)             134
# 0x85, 0x0a,                    //  Report ID (10)                     136
# 0x09, 0x25,                    //  Usage (Vendor Usage 0x25)          138
# 0x95, 0x1a,                    //  Report Count (26)                  140
# 0xb1, 0x02,                    //  Feature (Data,Var,Abs)             142
# 0x85, 0x20,                    //  Report ID (32)                     144
# 0x09, 0x26,                    //  Usage (Vendor Usage 0x26)          146
# 0x95, 0x3f,                    //  Report Count (63)                  148
# 0xb1, 0x02,                    //  Feature (Data,Var,Abs)             150
# 0x85, 0x21,                    //  Report ID (33)                     152
# 0x09, 0x27,                    //  Usage (Vendor Usage 0x27)          154
# 0x95, 0x04,                    //  Report Count (4)                   156
# 0xb1, 0x02,                    //  Feature (Data,Var,Abs)             158
# 0x85, 0x22,                    //  Report ID (34)                     160
# 0x09, 0x40,                    //  Usage (Vendor Usage 0x40)          162
# 0x95, 0x3f,                    //  Report Count (63)                  164
# 0xb1, 0x02,                    //  Feature (Data,Var,Abs)             166
# 0x85, 0x80,                    //  Report ID (128)                    168
# 0x09, 0x28,                    //  Usage (Vendor Usage 0x28)          170
# 0x95, 0x3f,                    //  Report Count (63)                  172
# 0xb1, 0x02,                    //  Feature (Data,Var,Abs)             174
# 0x85, 0x81,                    //  Report ID (129)                    176
# 0x09, 0x29,                    //  Usage (Vendor Usage 0x29)          178
# 0x95, 0x3f,                    //  Report Count (63)                  180
# 0xb1, 0x02,                    //  Feature (Data,Var,Abs)             182
# 0x85, 0x82,                    //  Report ID (130)                    184
# 0x09, 0x2a,                    //  Usage (Vendor Usage 0x2a)          186
# 0x95, 0x09,                    //  Report Count (9)                   188
# 0xb1, 0x02,                    //  Feature (Data,Var,Abs)             190
# 0x85, 0x83,                    //  Report ID (131)                    192
# 0x09, 0x2b,                    //  Usage (Vendor Usage 0x2b)          194
# 0x95, 0x3f,                    //  Report Count (63)                  196
# 0xb1, 0x02,                    //  Feature (Data,Var,Abs)             198
# 0x85, 0x84,                    //  Report ID (132)                    200
# 0x09, 0x2c,                    //  Usage (Vendor Usage 0x2c)          202
# 0x95, 0x3f,                    //  Report Count (63)                  204
# 0xb1, 0x02,                    //  Feature (Data,Var,Abs)             206
# 0x85, 0x85,                    //  Report ID (133)                    208
# 0x09, 0x2d,                    //  Usage (Vendor Usage 0x2d)          210
# 0x95, 0x02,                    //  Report Count (2)                   212
# 0xb1, 0x02,                    //  Feature (Data,Var,Abs)             214
# 0x85, 0xa0,                    //  Report ID (160)                    216
# 0x09, 0x2e,                    //  Usage (Vendor Usage 0x2e)          218
# 0x95, 0x01,                    //  Report Count (1)                   220
# 0xb1, 0x02,                    //  Feature (Data,Var,Abs)             222
# 0x85, 0xe0,                    //  Report ID (224)                    224
# 0x09, 0x2f,                    //  Usage (Vendor Usage 0x2f)          226
# 0x95, 0x3f,                    //  Report Count (63)                  228
# 0xb1, 0x02,                    //  Feature (Data,Var,Abs)             230
# 0x85, 0xf0,                    //  Report ID (240)                    232
# 0x09, 0x30,                    //  Usage (Vendor Usage 0x30)          234
# 0x95, 0x3f,                    //  Report Count (63)                  236
# 0xb1, 0x02,                    //  Feature (Data,Var,Abs)             238
# 0x85, 0xf1,                    //  Report ID (241)                    240
# 0x09, 0x31,                    //  Usage (Vendor Usage 0x31)          242
# 0x95, 0x3f,                    //  Report Count (63)                  244
# 0xb1, 0x02,                    //  Feature (Data,Var,Abs)             246
# 0x85, 0xf2,                    //  Report ID (242)                    248
# 0x09, 0x32,                    //  Usage (Vendor Usage 0x32)          250
# 0x95, 0x0f,                    //  Report Count (15)                  252
# 0xb1, 0x02,                    //  Feature (Data,Var,Abs)             254
# 0x85, 0xf4,                    //  Report ID (244)                    256
# 0x09, 0x35,                    //  Usage (Vendor Usage 0x35)          258
# 0x95, 0x3f,                    //  Report Count (63)                  260
# 0xb1, 0x02,                    //  Feature (Data,Var,Abs)             262
# 0x85, 0xf5,                    //  Report ID (245)                    264
# 0x09, 0x36,                    //  Usage (Vendor Usage 0x36)          266
# 0x95, 0x03,                    //  Report Count (3)                   268
# 0xb1, 0x02,                    //  Feature (Data,Var,Abs)             270
# 0xc0,                          // End Collection                      272
# 
R: 273 05 01 09 05 a1 01 85 01 09 30 09 31 09 32 09 35 09 33 09 34 15 00 26 ff 00 75 08 95 06 81 02 06 00 ff 09 20 95 01 81 02 05 01 09 39 15 00 25 07 35 00 46 3b 01 65 14 75 04 95 01 81 42 65 00 05 09 19 01 29 0f 15 00 25 01 75 01 95 0f 81 02 06 00 ff 09 21 95 0d 81 02 06 00 ff 09 22 15 00 26 ff 00 75 08 95 34 81 02 85 02 09 23 95 2f 91 02 85 05 09 33 95 28 b1 02 85 08 09 34 95 2f b1 02 85 09 09 24 95 13 b1 02 85 0a 09 25 95 1a b1 02 85 20 09 26 95 3f b1 02 85 21 09 27 95 04 b1 02 85 22 09 40 95 3f b1 02 85 80 09 28 95 3f b1 02 85 81 09 29 95 3f b1 02 85 82 09 2a 95 09 b1 02 85 83 09 2b 95 3f b1 02 85 84 09 2c 95 3f b1 02 85 85 09 2d 95 02 b1 02 85 a0 09 2e 95 01 b1 02 85 e0 09 2f 95 3f b1 02 85 f0 09 30 95 3f b1 02 85 f1 09 31 95 3f b1 02 85 f2 09 32 95 0f b1 02 85 f4 09 35 95 3f b1 02 85 f5 09 36 95 03 b1 02 c0
N: Sony Interactive Entertainment DualSense Wireless Controller
I: 3 054c 0ce6
# ReportID: 1 / X:  131 | Y:  128 | Z:  129 | Rz:  127 | Rx:    0 | Ry:    0 | 0xff000020:   97 | Hat switch:   8 | Button: 0  0  0  0  0  0  0  0  0  0  0  0  0  0  0 | 0xff000021: 0 , 0 , 0 , 0 , 0 , 0 , 0 , 0 , 0 , 0 , 0 , 0 , 0 | 0xff000022:   62 ,   95 ,   42 ,  235 ,  248 ,  255 ,  239 ,  255 ,   10 ,    0 ,   48 ,    0 ,   18 ,   31 ,   52 ,    5 ,  133 ,  204 ,  205 ,  213 ,    8 ,  128 ,    0 ,    0 ,    0 ,  128 ,    0 ,    0 ,    0 ,    0 ,    9 ,    9 ,    0 ,    0 ,    0 ,    0 ,    0 ,  113 ,  226 ,  205 ,  213 ,   40 ,    8 ,    0 ,  202 ,   94 ,  102 ,  187 ,  253 ,   88 ,   30 ,   99 
E: 000000.000000 64 01 83 80 81 7f 00 00 61 08 00 00 00 3e 5f 2a eb f8 ff ef ff 0a 00 30 00 12 1f 34 05 85 cc cd d5 08 80 00 00 00 80 00 00 00 00 09 09 00 00 00 00 00 71 e2 cd d5 28 08 00 ca 5e 66 bb fd 58 1e 63
# ReportID: 1 / X:  131 | Y:  128 | Z:  129 | Rz:  127 | Rx:    0 | Ry:    0 | 0xff000020:   98 | Hat switch:   8 | Button: 0  0  0  0  0  0  0  0  0  0  0  0  0  0  0 | 0xff000021: 0 , 0 , 0 , 0 , 0 , 0 , 0 , 0 , 0 , 0 , 0 , 0 , 0 | 0xff000022:   63 ,   95 ,   42 ,  235 ,  248 ,  255 ,  238 ,  255 ,   10 ,    0 ,   52 ,    0 ,  151 ,   31 ,   66 ,    5 ,  120 ,  251 ,  205 ,  213 ,    8 ,  128 ,    0 ,    0 ,    0 ,  128 ,    0 ,    0 ,    0 ,    0 ,    9 ,    9 ,    0 ,    0 ,    0 ,    0 ,    0 ,   81 ,   17 ,  206 ,  213 ,   40 ,    8 ,    0 ,  198 ,  185 ,  194 ,  122 ,  119 ,  113 ,  242 ,   11 
E: 000000.000597 64 01 83 80 81 7f 00 00 62 08 00 00 00 3f 5f 2a eb f8 ff ee ff 0a 00 34 00 97 1f 42 05 78 fb cd d5 08 80 00 00 00 80 00 00 00 00 09 09 00 00 00 00 00 51 11 ce d5 28 08 00 c6 b9 c2 7a 77 71 f2 0b
# ReportID: 1 / X:  131 | Y:  128 | Z:  129 | Rz:  127 | Rx:    0 | Ry:    0 | 0xff000020:   99 | Hat switch:   8 | Button: 0  0  0  0  0  0  0  0  0  0  0  0  0  0  0 | 0xff000021: 0 , 0 , 0 , 0 , 0 , 0 , 0 , 0 , 0 , 0 , 0 , 0 , 0 | 0xff000022:   64 ,   95 ,   42 ,  235 ,  246 ,  255 ,  238 ,  255 ,    9 ,    0 ,   68 ,    0 ,  223 ,   31 ,   66 ,    5 ,  108 ,   42 ,  206 ,  213 ,    8 ,  128 ,    0 ,    0 ,    0 ,  128 ,    0 ,    0 ,    0 ,    0 ,    9 ,    9 ,    0 ,    0 ,    0 ,    0 ,    0 ,   49 ,   64 ,  206 ,  213 ,   40 ,    8 ,    0 ,   71 ,   27 ,   35 ,  135 ,  190 ,   14 ,  180 ,  174 
E: 000000.004811 64 01 83 80 81 7f 00 00 63 08 00 00 00 40 5f 2a eb f6 ff ee ff 09 00 44 00 df 1f 42 05 6c 2a ce d5 08 80 00 00 00 80 00 00 00 00 09 09 00 00 00 00 00 31 40 ce d5 28 08 00 47 1b 23 87 be 0e b4 ae
# ReportID: 1 / X:  131 | Y:  128 | Z:  130 | Rz:  127 | Rx:    0 | Ry:    0 | 0xff000020:  100 | Hat switch:   8 | Button: 0  0  0  0  0  0  0  0  0  0  0  0  0  0  0 | 0xff000021: 0 , 0 , 0 , 0 , 0 , 0 , 0 , 0 , 0 , 0 , 0 , 0 , 0 | 0xff000022:   65 ,   95 ,   42 ,  235 ,  244 ,  255 ,  237 ,  255 ,   10 ,    0 ,   49 ,    0 ,  118 ,   31 ,   49 ,    5 ,   95 ,   89 ,  206 ,  213 ,    8 ,  128 ,    0 ,    0 ,    0 ,  128 ,    0 ,    0 ,    0 ,    0 ,    9 ,    9 ,    0 ,    0 ,    0 ,    0 ,    0 ,   17 ,  111 ,  206 ,  213 ,   40 ,    8 ,    0 ,   27 ,  120 ,  238 ,  180 ,    8 ,  240 ,  202 ,  136 
E: 000000.008628 64 01 83 80 82 7f 00 00 64 08 00 00 00 41 5f 2a eb f4 ff ed ff 0a 00 31 00 76 1f 31 05 5f 59 ce d5 08 80 00 00 00 80 00 00 00 00 09 09 00 00 00 00 00 11 6f ce d5 28 08 00 1b 78 ee b4 08 f0 ca 88
# ReportID: 1 / X:  131 | Y:  128 | Z:  130 | Rz:  127 | Rx:    0 | Ry:    0 | 0xff000020:  101 | Hat switch:   8 | Button: 0  0  0  0  0  0  0  0  0  0  0  0  0  0  0 | 0xff000021: 0 , 0 , 0 , 0 , 0 , 0 , 0 , 0 , 0 , 0 , 0 , 0 , 0 | 0xff000022:   66 ,   95 ,   42 ,  235 ,  246 ,  255 ,  237 ,  255 ,   11 ,    0 ,   46 ,    0 ,   54 ,   31 ,   46 ,    5 ,   81 ,  136 ,  206 ,  213 ,    8 ,  128 ,    0 ,    0 ,    0 ,  128 ,    0 ,    0 ,    0 ,    0 ,    9 ,    9 ,    0 ,    0 ,    0 ,    0 ,    0 ,  241 ,  157 ,  206 ,  213 ,   40 ,    8 ,    0 ,    3 ,  237 ,  227 ,  157 ,   68 ,   14 ,   41 ,  186 
E: 000000.012609 64 01 83 80 82 7f 00 00 65 08 00 00 00 42 5f 2a eb f6 ff ed ff 0b 00 2e 00 36 1f 2e 05 51 88 ce d5 08 80 00 00 00 80 00 00 00 00 09 09 00 00 00 00 00 f1 9d ce d5 28 08 00 03 ed e3 9d 44 0e 29 ba
# ReportID: 1 / X:  131 | Y:  128 | Z:  129 | Rz:  127 | Rx:    0 | Ry:    0 | 0xff000020:  102 | Hat switch:   8 | Button: 0  0  0  0  0  0  0  0  0  0  0  0  0  0  0 | 0xff000021: 0 , 0 , 0 , 0 , 0 , 0 , 0 , 0 , 0 , 0 , 0 , 0 , 0 | 0xff000022:   67 ,   95 ,   42 ,  235 ,  245 ,  255 ,  238 ,  255 ,   10 ,    0 ,   58 ,    0 ,   45 ,   31 ,   43 ,    5 ,   68 ,  183 ,  206 ,  213 ,    8 ,  128 ,    0 ,    0 ,    0 ,  128 ,    0 ,    0 ,    0 ,    0 ,    9 ,    9 ,    0 ,    0 ,    0 ,    0 ,    0 ,  209 ,  204 ,  206 ,  213 ,   40 ,    8 ,    0 ,   84 ,  219 ,   34 ,  252 ,  144 ,  100 ,  145 ,   23 
E: 000000.017013 64 01 83 80 81 7f 00 00 66 08 00 00 00 43 5f 2a eb f5 ff ee ff 0a 00 3a 00 2d 1f 2b 05 44 b7 ce d5 08 80 00 00 00 80 00 00 00 00 09 09 00 00 00 00 00 d1 cc ce d5 28 08 00 54 db 22 fc 90 64 91 17
# ReportID: 1 / X:  131 | Y:  128 | Z:  130 | Rz:  127 | Rx:    0 | Ry:    0 | 0xff000020:  103 | Hat switch:   8 | Button: 0  0  0  0  0  0  0  0  0  0  0  0  0  0  0 | 0xff000021: 0 , 0 , 0 , 0 , 0 , 0 , 0 , 0 , 0 , 0 , 0 , 0 , 0 | 0xff000022:   68 ,   95 ,   42 ,  235 ,  247 ,  255 ,  238 ,  255 ,   11 ,    0 ,   88 ,    0 ,   13 ,   31 ,   44 ,    5 ,   55 ,  230 ,  206 ,  213 ,    8 ,  128 ,    0 ,    0 ,    0 ,  128 ,    0 ,    0 ,    0 ,    0 ,    9 ,    9 ,    0 ,    0 ,    0 ,    0 ,    0 ,  177 ,  251 ,  206 ,  213 ,   40 ,    8 ,    0 ,  116 ,  246 ,  112 ,   58 ,  249 ,  113 ,  167 ,   29 
E: 000000.020953 64 01 83 80 82 7f 00 00 67 08 00 00 00 44 5f 2a eb f7 ff ee ff 0b 00 58 00 0d 1f 2c 05 37 e6 ce d5 08 80 00 00 00 80 00 00 00 00 09 09 00 00 00 00 00 b1 fb ce d5 28 08 00 74 f6 70 3a f9 71 a7 1d
# ReportID: 1 / X:  131 | Y:  128 | Z:  129 | Rz:  127 | Rx:    0 | Ry:    0 | 0xff000020:  104 | Hat switch:   8 | Button: 0  0  0  0  0  0  0  0  0  0  0  0  0  0  0 | 0xff000021: 0 , 0 , 0 , 0 , 0 , 0 , 0 , 0 , 0 , 0 , 0 , 0 , 0 | 0xff000022:   69 ,   95 ,   42 ,  235 ,  248 ,  255 ,  239 ,  255 ,   10 ,    0 ,   52 ,    0 ,   47 ,   31 ,   66 ,    5 ,   42 ,   21 ,  207 ,  213 ,    8 ,  128 ,    0 ,    0 ,    0 ,  128 ,    0 ,    0 ,    0 ,    0 ,    9 ,    9 ,    0 ,    0 ,    0 ,    0 ,    0 ,  145 ,   42 ,  207 ,  213 ,   40 ,    8 ,    0 ,  175 ,   32 ,   63 ,  134 ,  225 ,  153 ,  229 ,   81 
E: 000000.025033 64 01 83 80 81 7f 00 00 68 08 00 00 00 45 5f 2a eb f8 ff ef ff 0a 00 34 00 2f 1f 42 05 2a 15 cf d5 08 80 00 00 00 80 00 00 00 00 09 09 00 00 00 00 00 91 2a cf d5 28 08 00 af 20 3f 86 e1 99 e5 51
# ReportID: 1 / X:  131 | Y:  128 | Z:  129 | Rz:  127 | Rx:    0 | Ry:    0 | 0xff000020:  105 | Hat switch:   8 | Button: 0  0  0  0  0  0  0  0  0  0  0  0  0  0  0 | 0xff000021: 0 , 0 , 0 , 0 , 0 , 0 , 0 , 0 , 0 , 0 , 0 , 0 , 0 | 0xff000022:   70 ,   95 ,   42 ,  235 ,  248 ,  255 ,  239 ,  255 ,   11 ,    0 ,   72 ,    0 ,  134 ,   31 ,   54 ,    5 ,   29 ,   68 ,  207 ,  213 ,    8 ,  128 ,    0 ,    0 ,    0 ,  128 ,    0 ,    0 ,    0 ,    0 ,    9 ,    9 ,    0 ,    0 ,    0 ,    0 ,    0 ,  113 ,   89 ,  207 ,  213 ,   40 ,    8 ,    0 ,   66 ,  230 ,  223 ,  191 ,   91 ,   19 ,  164 ,    6 
E: 000000.028732 64 01 83 80 81 7f 00 00 69 08 00 00 00 46 5f 2a eb f8 ff ef ff 0b 00 48 00 86 1f 36 05 1d 44 cf d5 08 80 00 00 00 80 00 00 00 00 09 09 00 00 00 00 00 71 59 cf d5 28 08 00 42 e6 df bf 5b 13 a4 06
# ReportID: 1 / X:  131 | Y:  128 | Z:  130 | Rz:  127 | Rx:    0 | Ry:    0 | 0xff000020:  106 | Hat switch:   8 | Button: 0  0  0  0  0  0  0  0  0  0  0  0  0  0  0 | 0xff000021: 0 , 0 , 0 , 0 , 0 , 0 , 0 , 0 , 0 , 0 , 0 , 0 , 0 | 0xff000022:   71 ,   95 ,   42 ,  235 ,  247 ,  255 ,  237 ,  255 ,   10 ,    0 ,   67 ,    0 ,  139 ,   31 ,   61 ,    5 ,   17 ,  115 ,  207 ,  213 ,    8 ,  128 ,    0 ,    0 ,    0 ,  128 ,    0 ,    0 ,    0 ,    0 ,    9 ,    9 ,    0 ,    0 ,    0 ,    0 ,    0 ,   81 ,  136 ,  207 ,  213 ,   40 ,    8 ,    0 ,  145 ,  234 ,  228 ,  111 ,   25 ,   24 ,  155 ,  115 
E: 000000.032955 64 01 83 80 82 7f 00 00 6a 08 00 00 00 47 5f 2a eb f7 ff ed ff 0a 00 43 00 8b 1f 3d 05 11 73 cf d5 08 80 00 00 00 80 00 00 00 00 09 09 00 00 00 00 00 51 88 cf d5 28 08 00 91 ea e4 6f 19 18 9b 73
# ReportID: 1 / X:  131 | Y:  128 | Z:  129 | Rz:  127 | Rx:    0 | Ry:    0 | 0xff000020:  107 | Hat switch:   8 | Button: 0  0  0  0  0  0  0  0  0  0  0  0  0  0  0 | 0xff000021: 0 , 0 , 0 , 0 , 0 , 0 , 0 , 0 , 0 , 0 , 0 , 0 , 0 | 0xff000022:   72 ,   95 ,   42 ,  235 ,  247 ,  255 ,  238 ,  255 ,   10 ,    0 ,   40 ,    0 ,  108 ,   31 ,   70 ,    5 ,    4 ,  162 ,  207 ,  213 ,    8 ,  128 ,    0 ,    0 ,    0 ,  128 ,    0 ,    0 ,    0 ,    0 ,    9 ,    9 ,    0 ,    0 ,    0 ,    0 ,    0 ,   49 ,  183 ,  207 ,  213 ,   40 ,    8 ,    0 ,  129 ,  161 ,   28 ,  229 ,  219 ,  163 ,  179 ,  208 
E: 000000.036797 64 01 83 80 81 7f 00 00 6b 08 00 00 00 48 5f 2a eb f7 ff ee ff 0a 00 28 00 6c 1f 46 05 04 a2 cf d5 08 80 00 00 00 80 00 00 00 00 09 09 00 00 00 00 00 31 b7 cf d5 28 08 00 81 a1 1c e5 db a3 b3 d0
# ReportID: 1 / X:  131 | Y:  128 | Z:  130 | Rz:  127 | Rx:    0 | Ry:    0 | 0xff000020:  108 | Hat switch:   8 | Button: 0  0  0  0  0  0  0  0  0  0  0  0  0  0  0 | 0xff000021: 0 , 0 , 0 , 0 , 0 , 0 , 0 , 0 , 0 , 0 , 0 , 0 , 0 | 0xff000022:   73 ,   95 ,   42 ,  235 ,  245 ,  255 ,  238 ,  255 ,   10 ,    0 ,   55 ,    0 ,   74 ,   31 ,   55 ,    5 ,  247 ,  208 ,  207 ,  213 ,    8 ,  128 ,    0 ,    0 ,    0 ,  128 ,    0 ,    0 ,    0 ,    0 ,    9 ,    9 ,    0 ,    0 ,    0 ,    0 ,    0 ,   17 ,  230 ,  207 ,  213 ,   40 ,    8 ,    0 ,  197 ,   70 ,   99 ,  105 ,  107 ,   13 ,  117 ,   18 
E: 000000.041779 64 01 83 80 82 7f 00 00 6c 08 00 00 00 49 5f 2a eb f5 ff ee ff 0a 00 37 00 4a 1f 37 05 f7 d0 cf d5 08 80 00 00 00 80 00 00 00 00 09 09 00 00 00 00 00 11 e6 cf d5 28 08 00 c5 46 63 69 6b 0d 75 12
# ReportID: 1 / X:  131 | Y:  128 | Z:  129 | Rz:  127 | Rx:    0 | Ry:    0 | 0xff000020:  109 | Hat switch:   8 | Button: 0  0  0  0  0  0  0  0  0  0  0  0  0  0  0 | 0xff000021: 0 , 0 , 0 , 0 , 0 , 0 , 0 , 0 , 0 , 0 , 0 , 0 , 0 | 0xff000022:   74 ,   95 ,   42 ,  235 ,  246 ,  255 ,  238 ,  255 ,   10 ,    0 ,   49 ,    0 ,   51 ,   31 ,   49 ,    5 ,  234 ,  255 ,  207 ,  213 ,    8 ,  128 ,    0 ,    0 ,    0 ,  128 ,    0 ,    0 ,    0 ,    0 ,    9 ,    9 ,    0 ,    0 ,    0 ,    0 ,    0 ,  241 ,   20 ,  208 ,  213 ,   40 ,    8 ,    0 ,  152 ,   67 ,    6 ,  203 ,   55 ,    7 ,   87 ,  156 
E: 000000.045429 64 01 83 80 81 7f 00 00 6d 08 00 00 00 4a 5f 2a eb f6 ff ee ff 0a 00 31 00 33 1f 31 05 ea ff cf d5 08 80 00 00 00 80 00 00 00 00 09 09 00 00 00 00 00 f1 14 d0 d5 28 08 00 98 43 06 cb 37 07 57 9c
# ReportID: 1 / X:  131 | Y:  128 | Z:  130 | Rz:  127 | Rx:    0 | Ry:    0 | 0xff000020:  110 | Hat switch:   8 | Button: 0  0  0  0  0  0  0  0  0  0  0  0  0  0  0 | 0xff000021: 0 , 0 , 0 , 0 , 0 , 0 , 0 , 0 , 0 , 0 , 0 , 0 , 0 | 0xff000022:   75 ,   95 ,   42 ,  235 ,  247 ,  255 ,  238 ,  255 ,   10 ,    0 ,   48 ,    0 ,   71 ,   31 ,   54 ,    5 ,  221 ,   46 ,  208 ,  213 ,    8 ,  128 ,    0 ,    0 ,    0 ,  128 ,    0 ,    0 ,    0 ,    0 ,    9 ,    9 ,    0 ,    0 ,    0 ,    0 ,    0 ,  209 ,   67 ,  208 ,  213 ,   40 ,    8 ,    0 ,  146 ,  212 ,   88 ,   45 ,   37 ,  145 ,  210 ,  203 
E: 000000.048830 64 01 83 80 82 7f 00 00 6e 08 00 00 00 4b 5f 2a eb f7 ff ee ff 0a 00 30 00 47 1f 36 05 dd 2e d0 d5 08 80 00 00 00 80 00 00 00 00 09 09 00 00 00 00 00 d1 43 d0 d5 28 08 00 92 d4 58 2d 25 91 d2 cb
# ReportID: 1 / X:  131 | Y:  128 | Z:  129 | Rz:  127 | Rx:    0 | Ry:    0 | 0xff000020:  111 | Hat switch:   8 | Button: 0  0  0  0  0  0  0  0  0  0  0  0  0  0  0 | 0xff000021: 0 , 0 , 0 , 0 , 0 , 0 , 0 , 0 , 0 , 0 , 0 , 0 , 0 | 0xff000022:   76 ,   95 ,   42 ,  235 ,  246 ,  255 ,  238 ,  255 ,   10 ,    0 ,   45 ,    0 ,   97 ,   31 ,   58 ,    5 ,  208 ,   93 ,  208 ,  213 ,    8 ,  128 ,    0 ,    0 ,    0 ,  128 ,    0 ,    0 ,    0 ,    0 ,    9 ,    9 ,    0 ,    0 ,    0 ,    0 ,    0 ,  177 ,  114 ,  208 ,  213 ,   40 ,    8 ,    0 ,   87 ,  158 ,  189 ,  178 ,  136 ,  197 ,   31 ,  108 
E: 000000.052809 64 01 83 80 81 7f 00 00 6f 08 00 00 00 4c 5f 2a eb f6 ff ee ff 0a 00 2d 00 61 1f 3a 05 d0 5d d0 d5 08 80 00 00 00 80 00 00 00 00 09 09 00 00 00 00 00 b1 72 d0 d5 28 08 00 57 9e bd b2 88 c5 1f 6c
# ReportID: 1 / X:  131 | Y:  128 | Z:  129 | Rz:  127 | Rx:    0 | Ry:    0 | 0xff000020:  112 | Hat switch:   8 | Button: 0  0  0  0  0  0  0  0  0  0  0  0  0  0  0 | 0xff000021: 0 , 0 , 0 , 0 , 0 , 0 , 0 , 0 , 0 , 0 , 0 , 0 , 0 | 0xff000022:   77 ,   95 ,   42 ,  235 ,  246 ,  255 ,  238 ,  255 ,   11 ,    0 ,   37 ,    0 ,  138 ,   31 ,   60 ,    5 ,  195 ,  140 ,  208 ,  213 ,    8 ,  128 ,    0 ,    0 ,    0 ,  128 ,    0 ,    0 ,    0 ,    0 ,    9 ,    9 ,    0 ,    0 ,    0 ,    0 ,    0 ,  145 ,  161 ,  208 ,  213 ,   40 ,    8 ,    0 ,   76 ,   98 ,  136 ,   72 ,  251 ,  165 ,  135 ,    6 
E: 000000.057645 64 01 83 80 81 7f 00 00 70 08 00 00 00 4d 5f 2a eb f6 ff ee ff 0b 00 25 00 8a 1f 3c 05 c3 8c d0 d5 08 80 00 00 00 80 00 00 00 00 09 09 00 00 00 00 00 91 a1 d0 d5 28 08 00 4c 62 88 48 fb a5 87 06
# ReportID: 1 / X:  131 | Y:  128 | Z:  129 | Rz:  127 | Rx:    0 | Ry:    0 | 0xff000020:  113 | Hat switch:   8 | Button: 0  0  0  0  0  0  0  0  0  0  0  0  0  0  0 | 0xff000021: 0 , 0 , 0 , 0 , 0 , 0 , 0 , 0 , 0 , 0 , 0 , 0 , 0 | 0xff000022:   78 ,   95 ,   42 ,  235 ,  246 ,  255 ,  238 ,  255 ,   11 ,    0 ,   52 ,    0 ,  112 ,   31 ,   58 ,    5 ,  182 ,  187 ,  208 ,  213 ,    8 ,  128 ,    0 ,    0 ,    0 ,  128 ,    0 ,    0 ,    0 ,    0 ,    9 ,    9 ,    0 ,    0 ,    0 ,    0 ,    0 ,  113 ,  208 ,  208 ,  213 ,   40 ,    8 ,    0 ,  160 ,   54 ,  103 ,   36 ,    8 ,   92 ,   56 ,  210 
E: 000000.060720 64 01 83 80 81 7f 00 00 71 08 00 00 00 4e 5f 2a eb f6 ff ee ff 0b 00 34 00 70 1f 3a 05 b6 bb d0 d5 08 80 00 00 00 80 00 00 00 00 09 09 00 00 00 00 00 71 d0 d0 d5 28 08 00 a0 36 67 24 08 5c 38 d2
# ReportID: 1 / X:  131 | Y:  128 | Z:  130 | Rz:  127 | Rx:    0 | Ry:    0 | 0xff000020:  114 | Hat switch:   8 | Button: 0  0  0  0  0  0  0  0  0  0  0  0  0  0  0 | 0xff000021: 0 , 0 , 0 , 0 , 0 , 0 , 0 , 0 , 0 , 0 , 0 , 0 , 0 | 0xff000022:   79 ,   95 ,   42 ,  235 ,  245 ,  255 ,  237 ,  255 ,   11 ,    0 ,   39 ,    0 ,   56 ,   31 ,   57 ,    5 ,  169 ,  234 ,  208 ,  213 ,    8 ,  128 ,    0 ,    0 ,    0 ,  128 ,    0 ,    0 ,    0 ,    0 ,    9 ,    9 ,    0 ,    0 ,    0 ,    0 ,    0 ,   81 ,  255 ,  208 ,  213 ,   40 ,    8 ,    0 ,    9 ,   84 ,   69 ,   97 ,  203 ,  217 ,   30 ,  187 
E: 000000.064703 64 01 83 80 82 7f 00 00 72 08 00 00 00 4f 5f 2a eb f5 ff ed ff 0b 00 27 00 38 1f 39 05 a9 ea d0 d5 08 80 00 00 00 80 00 00 00 00 09 09 00 00 00 00 00 51 ff d0 d5 28 08 00 09 54 45 61 cb d9 1e bb
# ReportID: 1 / X:  131 | Y:  128 | Z:  129 | Rz:  127 | Rx:    0 | Ry:    0 | 0xff000020:  115 | Hat switch:   8 | Button: 0  0  0  0  0  0  0  0  0  0  0  0  0  0  0 | 0xff000021: 0 , 0 , 0 , 0 , 0 , 0 , 0 , 0 , 0 , 0 , 0 , 0 , 0 | 0xff000022:   80 ,   95 ,   42 ,  235 ,  246 ,  255 ,  238 ,  255 ,   11 ,    0 ,   34 ,    0 ,   41 ,   31 ,   52 ,    5 ,  156 ,   25 ,  209 ,  213 ,    8 ,  128 ,    0 ,    0 ,    0 ,  128 ,    0 ,    0 ,    0 ,    0 ,    9 ,    9 ,    0 ,    0 ,    0 ,    0 ,    0 ,   49 ,   46 ,  209 ,  213 ,   40 ,    8 ,    0 ,  154 ,  234 ,  143 ,   66 ,  124 ,   68 ,  195 ,   42 
E: 000000.068664 64 01 83 80 81 7f 00 00 73 08 00 00 00 50 5f 2a eb f6 ff ee ff 0b 00 22 00 29 1f 34 05 9c 19 d1 d5 08 80 00 00 00 80 00 00 00 00 09 09 00 00 00 00 00 31 2e d1 d5 28 08 00 9a ea 8f 42 7c 44 c3 2a
# ReportID: 1 / X:  131 | Y:  128 | Z:  129 | Rz:  127 | Rx:    0 | Ry:    0 | 0xff000020:  116 | Hat switch:   8 | Button: 0  0  0  0  0  0  0  0  0  0  0  0  0  0  0 | 0xff000021: 0 , 0 , 0 , 0 , 0 , 0 , 0 , 0 , 0 , 0 , 0 , 0 , 0 | 0xff000022:   81 ,   95 ,   42 ,  235 ,  248 ,  255 ,  238 ,  255 ,   11 ,    0 ,   52 ,    0 ,   57 ,   31 ,   43 ,    5 ,  144 ,   72 ,  209 ,  213 ,    8 ,  128 ,    0 ,    0 ,    0 ,  128 ,    0 ,    0 ,    0 ,    0 ,    9 ,    9 ,    0 ,    0 ,    0 ,    0 ,    0 ,   17 ,   93 ,  209 ,  213 ,   40 ,    8 ,    0 ,    0 ,   53 ,  216 ,   78 ,  140 ,  131 ,  219 ,  164 
E: 000000.073286 64 01 83 80 81 7f 00 00 74 08 00 00 00 51 5f 2a eb f8 ff ee ff 0b 00 34 00 39 1f 2b 05 90 48 d1 d5 08 80 00 00 00 80 00 00 00 00 09 09 00 00 00 00 00 11 5d d1 d5 28 08 00 00 35 d8 4e 8c 83 db a4
# ReportID: 1 / X:  131 | Y:  128 | Z:  129 | Rz:  127 | Rx:    0 | Ry:    0 | 0xff000020:  117 | Hat switch:   8 | Button: 0  0  0  0  0  0  0  0  0  0  0  0  0  0  0 | 0xff000021: 0 , 0 , 0 , 0 , 0 , 0 , 0 , 0 , 0 , 0 , 0 , 0 , 0 | 0xff000022:   82 ,   95 ,   42 ,  235 ,  246 ,  255 ,  238 ,  255 ,   10 ,    0 ,   58 ,    0 ,   75 ,   31 ,   53 ,    5 ,  131 ,  119 ,  209 ,  213 ,    8 ,  128 ,    0 ,    0 ,    0 ,  128 ,    0 ,    0 ,    0 ,    0 ,    9 ,    9 ,    0 ,    0 ,    0 ,    0 ,    0 ,  241 ,  139 ,  209 ,  213 ,   40 ,    8 ,    0 ,  122 ,   17 ,   45 ,   51 ,  231 ,  141 ,  162 ,    4 
E: 000000.077092 64 01 83 80 81 7f 00 00 75 08 00 00 00 52 5f 2a eb f6 ff ee ff 0a 00 3a 00 4b 1f 35 05 83 77 d1 d5 08 80 00 00 00 80 00 00 00 00 09 09 00 00 00 00 00 f1 8b d1 d5 28 08 00 7a 11 2d 33 e7 8d a2 04
# ReportID: 1 / X:  131 | Y:  128 | Z:  130 | Rz:  127 | Rx:    0 | Ry:    0 | 0xff000020:  118 | Hat switch:   8 | Button: 0  0  0  0  0  0  0  0  0  0  0  0  0  0  0 | 0xff000021: 0 , 0 , 0 , 0 , 0 , 0 , 0 , 0 , 0 , 0 , 0 , 0 , 0 | 0xff000022:   83 ,   95 ,   42 ,  235 ,  246 ,  255 ,  239 ,  255 ,   10 ,    0 ,   56 ,    0 ,   99 ,   31 ,   55 ,    5 ,  118 ,  166 ,  209 ,  213 ,    8 ,  128 ,    0 ,    0 ,    0 ,  128 ,    0 ,    0 ,    0 ,    0 ,    9 ,    9 ,    0 ,    0 ,    0 ,    0 ,    0 ,  209 ,  186 ,  209 ,  213 ,   40 ,    8 ,    0 ,  254 ,   42 ,  251 ,   19 ,  216 ,  244 ,  127 ,  190 
E: 000000.080718 64 01 83 80 82 7f 00 00 76 08 00 00 00 53 5f 2a eb f6 ff ef ff 0a 00 38 00 63 1f 37 05 76 a6 d1 d5 08 80 00 00 00 80 00 00 00 00 09 09 00 00 00 00 00 d1 ba d1 d5 28 08 00 fe 2a fb 13 d8 f4 7f be
# ReportID: 1 / X:  131 | Y:  128 | Z:  129 | Rz:  127 | Rx:    0 | Ry:    0 | 0xff000020:  119 | Hat switch:   8 | Button: 0  0  0  0  0  0  0  0  0  0  0  0  0  0  0 | 0xff000021: 0 , 0 , 0 , 0 , 0 , 0 , 0 , 0 , 0 , 0 , 0 , 0 , 0 | 0xff000022:   84 ,   95 ,   42 ,  235 ,  246 ,  255 ,  238 ,  255 ,   11 ,    0 ,   45 ,    0 ,  107 ,   31 ,   62 ,    5 ,  105 ,  213 ,  209 ,  213 ,    8 ,  128 ,    0 ,    0 ,    0 ,  128 ,    0 ,    0 ,    0 ,    0 ,    9 ,    9 ,    0 ,    0 ,    0 ,    0 ,    0 ,  177 ,  233 ,  209 ,  213 ,   40 ,    8 ,    0 ,   87 ,  129 ,  173 ,  111 ,  238 ,    4 ,  115 ,  151 
E: 000000.085199 64 01 83 80 81 7f 00 00 77 08 00 00 00 54 5f 2a eb f6 ff ee ff 0b 00 2d 00 6b 1f 3e 05 69 d5 d1 d5 08 80 00 00 00 80 00 00 00 00 09 09 00 00 00 00 00 b1 e9 d1 d5 28 08 00 57 81 ad 6f ee 04 73 97
# ReportID: 1 / X:  131 | Y:  128 | Z:  129 | Rz:  127 | Rx:    0 | Ry:    0 | 0xff000020:  120 | Hat switch:   8 | Button: 0  0  0  0  0  0  0  0  0  0  0  0  0  0  0 | 0xff000021: 0 , 0 , 0 , 0 , 0 , 0 , 0 , 0 , 0 , 0 , 0 , 0 , 0 | 0xff000022:   85 ,   95 ,   42 ,  235 ,  245 ,  255 ,  239 ,  255 ,   10 ,    0 ,   49 ,    0 ,   73 ,   31 ,   51 ,    5 ,   92 ,    4 ,  210 ,  213 ,    8 ,  128 ,    0 ,    0 ,    0 ,  128 ,    0 ,    0 ,    0 ,    0 ,    9 ,    9 ,    0 ,    0 ,    0 ,    0 ,    0 ,  145 ,   24 ,  210 ,  213 ,   40 ,    8 ,    0 ,  217 ,   95 ,    2 ,   51 ,  136 ,   67 ,   21 ,   16 
E: 000000.089495 64 01 83 80 81 7f 00 00 78 08 00 00 00 55 5f 2a eb f5 ff ef ff 0a 00 31 00 49 1f 33 05 5c 04 d2 d5 08 80 00 00 00 80 00 00 00 00 09 09 00 00 00 00 00 91 18 d2 d5 28 08 00 d9 5f 02 33 88 43 15 10
# ReportID: 1 / X:  131 | Y:  128 | Z:  130 | Rz:  127 | Rx:    0 | Ry:    0 | 0xff000020:  121 | Hat switch:   8 | Button: 0  0  0  0  0  0  0  0  0  0  0  0  0  0  0 | 0xff000021: 0 , 0 , 0 , 0 , 0 , 0 , 0 , 0 , 0 , 0 , 0 , 0 , 0 | 0xff000022:   86 ,   95 ,   42 ,  235 ,  245 ,  255 ,  238 ,  255 ,   11 ,    0 ,   53 ,    0 ,   80 ,   31 ,   60 ,    5 ,   79 ,   51 ,  210 ,  213 ,    8 ,  128 ,    0 ,    0 ,    0 ,  128 ,    0 ,    0 ,    0 ,    0 ,    9 ,    9 ,    0 ,    0 ,    0 ,    0 ,    0 ,  113 ,   71 ,  210 ,  213 ,   40 ,    8 ,    0 ,   83 ,  226 ,   76 ,  136 ,  225 ,  104 ,  146 ,  104 
E: 000000.092747 64 01 83 80 82 7f 00 00 79 08 00 00 00 56 5f 2a eb f5 ff ee ff 0b 00 35 00 50 1f 3c 05 4f 33 d2 d5 08 80 00 00 00 80 00 00 00 00 09 09 00 00 00 00 00 71 47 d2 d5 28 08 00 53 e2 4c 88 e1 68 92 68
# ReportID: 1 / X:  131 | Y:  128 | Z:  130 | Rz:  127 | Rx:    0 | Ry:    0 | 0xff000020:  122 | Hat switch:   8 | Button: 0  0  0  0  0  0  0  0  0  0  0  0  0  0  0 | 0xff000021: 0 , 0 , 0 , 0 , 0 , 0 , 0 , 0 , 0 , 0 , 0 , 0 , 0 | 0xff000022:   87 ,   95 ,   42 ,  235 ,  245 ,  255 ,  239 ,  255 ,   11 ,    0 ,   38 ,    0 ,  136 ,   31 ,   67 ,    5 ,   66 ,   98 ,  210 ,  213 ,    8 ,  128 ,    0 ,    0 ,    0 ,  128 ,    0 ,    0 ,    0 ,    0 ,    9 ,    9 ,    0 ,    0 ,    0 ,    0 ,    0 ,   81 ,  118 ,  210 ,  213 ,   40 ,    8 ,    0 ,  148 ,   43 ,  104 ,  240 ,  214 ,  171 ,  100 ,   78 
E: 000000.098449 64 01 83 80 82 7f 00 00 7a 08 00 00 00 57 5f 2a eb f5 ff ef ff 0b 00 26 00 88 1f 43 05 42 62 d2 d5 08 80 00 00 00 80 00 00 00 00 09 09 00 00 00 00 00 51 76 d2 d5 28 08 00 94 2b 68 f0 d6 ab 64 4e
# ReportID: 1 / X:  131 | Y:  128 | Z:  129 | Rz:  127 | Rx:    0 | Ry:    0 | 0xff000020:  123 | Hat switch:   8 | Button: 0  0  0  0  0  0  0  0  0  0  0  0  0  0  0 | 0xff000021: 0 , 0 , 0 , 0 , 0 , 0 , 0 , 0 , 0 , 0 , 0 , 0 , 0 | 0xff000022:   88 ,   95 ,   42 ,  235 ,  246 ,  255 ,  238 ,  255 ,   11 ,    0 ,   73 ,    0 ,   87 ,   31 ,   51 ,    5 ,   53 ,  145 ,  210 ,  213 ,    8 ,  128 ,    0 ,    0 ,    0 ,  128 ,    0 ,    0 ,    0 ,    0 ,    9 ,    9 ,    0 ,    0 ,    0 ,    0 ,    0 ,   49 ,  165 ,  210 ,  213 ,   40 ,    8 ,    0 ,  253 ,   73 ,  219 ,   97 ,  150 ,  232 ,  129 ,    7 
E: 000000.102180 64 01 83 80 81 7f 00 00 7b 08 00 00 00 58 5f 2a eb f6 ff ee ff 0b 00 49 00 57 1f 33 05 35 91 d2 d5 08 80 00 00 00 80 00 00 00 00 09 09 00 00 00 00 00 31 a5 d2 d5 28 08 00 fd 49 db 61 96 e8 81 07
# ReportID: 1 / X:  131 | Y:  128 | Z:  129 | Rz:  127 | Rx:    0 | Ry:    0 | 0xff000020:  124 | Hat switch:   8 | Button: 0  0  0  0  0  0  0  0  0  0  0  0  0  0  0 | 0xff000021: 0 , 0 , 0 , 0 , 0 , 0 , 0 , 0 , 0 , 0 , 0 , 0 , 0 | 0xff000022:   89 ,   95 ,   42 ,  235 ,  247 ,  255 ,  238 ,  255 ,   11 ,    0 ,   58 ,    0 ,   45 ,   31 ,   51 ,    5 ,   40 ,  192 ,  210 ,  213 ,    8 ,  128 ,    0 ,    0 ,    0 ,  128 ,    0 ,    0 ,    0 ,    0 ,    9 ,    9 ,    0 ,    0 ,    0 ,    0 ,    0 ,   17 ,  212 ,  210 ,  213 ,   40 ,    8 ,    0 ,   52 ,  163 ,   22 ,    0 ,  107 ,  107 ,  180 ,  214 
E: 000000.105225 64 01 83 80 81 7f 00 00 7c 08 00 00 00 59 5f 2a eb f7 ff ee ff 0b 00 3a 00 2d 1f 33 05 28 c0 d2 d5 08 80 00 00 00 80 00 00 00 00 09 09 00 00 00 00 00 11 d4 d2 d5 28 08 00 34 a3 16 00 6b 6b b4 d6
# ReportID: 1 / X:  131 | Y:  128 | Z:  129 | Rz:  127 | Rx:    0 | Ry:    0 | 0xff000020:  125 | Hat switch:   8 | Button: 0  0  0  0  0  0  0  0  0  0  0  0  0  0  0 | 0xff000021: 0 , 0 , 0 , 0 , 0 , 0 , 0 , 0 , 0 , 0 , 0 , 0 , 0 | 0xff000022:   90 ,   95 ,   42 ,  235 ,  246 ,  255 ,  239 ,  255 ,   11 ,    0 ,   52 ,    0 ,   69 ,   31 ,   64 ,    5 ,   27 ,  239 ,  210 ,  213 ,    8 ,  128 ,    0 ,    0 ,    0 ,  128 ,    0 ,    0 ,    0 ,    0 ,    9 ,    9 ,    0 ,    0 ,    0 ,    0 ,    0 ,  241 ,    2 ,  211 ,  213 ,   40 ,    8 ,    0 ,  188 ,   80 ,  141 ,  180 ,  101 ,  102 ,  250 ,  189 
E: 000000.109158 64 01 83 80 81 7f 00 00 7d 08 00 00 00 5a 5f 2a eb f6 ff ef ff 0b 00 34 00 45 1f 40 05 1b ef d2 d5 08 80 00 00 00 80 00 00 00 00 09 09 00 00 00 00 00 f1 02 d3 d5 28 08 00 bc 50 8d b4 65 66 fa bd
# ReportID: 1 / X:  131 | Y:  128 | Z:  129 | Rz:  127 | Rx:    0 | Ry:    0 | 0xff000020:  126 | Hat switch:   8 | Button: 0  0  0  0  0  0  0  0  0  0  0  0  0  0  0 | 0xff000021: 0 , 0 , 0 , 0 , 0 , 0 , 0 , 0 , 0 , 0 , 0 , 0 , 0 | 0xff000022:   91 ,   95 ,   42 ,  235 ,  245 ,  255 ,  238 ,  255 ,   11 ,    0 ,   69 ,    0 ,   76 ,   31 ,   52 ,    5 ,   15 ,   30 ,  211 ,  213 ,    8 ,  128 ,    0 ,    0 ,    0 ,  128 ,    0 ,    0 ,    0 ,    0 ,    9 ,    9 ,    0 ,    0 ,    0 ,    0 ,    0 ,  209 ,   49 ,  211 ,  213 ,   40 ,    8 ,    0 ,   77 ,  176 ,  192 ,  217 ,  163 ,  196 ,  227 ,   58 
E: 000000.112782 64 01 83 80 81 7f 00 00 7e 08 00 00 00 5b 5f 2a eb f5 ff ee ff 0b 00 45 00 4c 1f 34 05 0f 1e d3 d5 08 80 00 00 00 80 00 00 00 00 09 09 00 00 00 00 00 d1 31 d3 d5 28 08 00 4d b0 c0 d9 a3 c4 e3 3a
# ReportID: 1 / X:  131 | Y:  128 | Z:  130 | Rz:  127 | Rx:    0 | Ry:    0 | 0xff000020:  127 | Hat switch:   8 | Button: 0  0  0  0  0  0  0  0  0  0  0  0  0  0  0 | 0xff000021: 0 , 0 , 0 , 0 , 0 , 0 , 0 , 0 , 0 , 0 , 0 , 0 , 0 | 0xff000022:   92 ,   95 ,   42 ,  235 ,  246 ,  255 ,  238 ,  255 ,   11 ,    0 ,   58 ,    0 ,   80 ,   31 ,   55 ,    5 ,    2 ,   77 ,  211 ,  213 ,    8 ,  128 ,    0 ,    0 ,    0 ,  128 ,    0 ,    0 ,    0 ,    0 ,    9 ,    9 ,    0 ,    0 ,    0 ,    0 ,    0 ,  177 ,   96 ,  211 ,  213 ,   40 ,    8 ,    0 ,    3 ,  187 ,   42 ,   12 ,  238 ,   18 ,  220 ,  135 
E: 000000.118994 64 01 83 80 82 7f 00 00 7f 08 00 00 00 5c 5f 2a eb f6 ff ee ff 0b 00 3a 00 50 1f 37 05 02 4d d3 d5 08 80 00 00 00 80 00 00 00 00 09 09 00 00 00 00 00 b1 60 d3 d5 28 08 00 03 bb 2a 0c ee 12 dc 87
# ReportID: 1 / X:  131 | Y:  128 | Z:  129 | Rz:  127 | Rx:    0 | Ry:    0 | 0xff000020:  128 | Hat switch:   8 | Button: 0  0  0  0  0  0  0  0  0  0  0  0  0  0  0 | 0xff000021: 0 , 0 , 0 , 0 , 0 , 0 , 0 , 0 , 0 , 0 , 0 , 0 , 0 | 0xff000022:   93 ,   95 ,   42 ,  235 ,  245 ,  255 ,  238 ,  255 ,    9 ,    0 ,   48 ,    0 ,   88 ,   31 ,   63 ,    5 ,  245 ,  123 ,  211 ,  213 ,    8 ,  128 ,    0 ,    0 ,    0 ,  128 ,    0 ,    0 ,    0 ,    0 ,    9 ,    9 ,    0 ,    0 ,    0 ,    0 ,    0 ,  145 ,  143 ,  211 ,  213 ,   40 ,    8 ,    0 ,  162 ,  106 ,  170 ,    3 ,  229 ,   26 ,  242 ,  205 
E: 000000.122524 64 01 83 80 81 7f 00 00 80 08 00 00 00 5d 5f 2a eb f5 ff ee ff 09 00 30 00 58 1f 3f 05 f5 7b d3 d5 08 80 00 00 00 80 00 00 00 00 09 09 00 00 00 00 00 91 8f d3 d5 28 08 00 a2 6a aa 03 e5 1a f2 cd
# ReportID: 1 / X:  131 | Y:  128 | Z:  129 | Rz:  127 | Rx:    0 | Ry:    0 | 0xff000020:  129 | Hat switch:   8 | Button: 0  0  0  0  0  0  0  0  0  0  0  0  0  0  0 | 0xff000021: 0 , 0 , 0 , 0 , 0 , 0 , 0 , 0 , 0 , 0 , 0 , 0 , 0 | 0xff000022:   94 ,   95 ,   42 ,  235 ,  246 ,  255 ,  238 ,  255 ,   10 ,    0 ,   51 ,    0 ,   85 ,   31 ,   64 ,    5 ,  232 ,  170 ,  211 ,  213 ,    8 ,  128 ,    0 ,    0 ,    0 ,  128 ,    0 ,    0 ,    0 ,    0 ,    9 ,    9 ,    0 ,    0 ,    0 ,    0 ,    0 ,  113 ,  190 ,  211 ,  213 ,   40 ,    8 ,    0 ,   62 ,  216 ,  198 ,  183 ,   28 ,  196 ,  126 ,   51 
E: 000000.125519 64 01 83 80 81 7f 00 00 81 08 00 00 00 5e 5f 2a eb f6 ff ee ff 0a 00 33 00 55 1f 40 05 e8 aa d3 d5 08 80 00 00 00 80 00 00 00 00 09 09 00 00 00 00 00 71 be d3 d5 28 08 00 3e d8 c6 b7 1c c4 7e 33
# ReportID: 1 / X:  131 | Y:  128 | Z:  129 | Rz:  127 | Rx:    0 | Ry:    0 | 0xff000020:  130 | Hat switch:   8 | Button: 0  0  0  0  0  0  0  0  0  0  0  0  0  0  0 | 0xff000021: 0 , 0 , 0 , 0 , 0 , 0 , 0 , 0 , 0 , 0 , 0 , 0 , 0 | 0xff000022:   95 ,   95 ,   42 ,  235 ,  245 ,  255 ,  239 ,  255 ,   11 ,    0 ,   52 ,    0 ,   78 ,   31 ,   60 ,    5 ,  219 ,  217 ,  211 ,  213 ,    8 ,  128 ,    0 ,    0 ,    0 ,  128 ,    0 ,    0 ,    0 ,    0 ,    9 ,    9 ,    0 ,    0 ,    0 ,    0 ,    0 ,   81 ,  237 ,  211 ,  213 ,   40 ,    8 ,    0 ,  233 ,   85 ,    3 ,  170 ,  101 ,  191 ,   29 ,   41 
E: 000000.129461 64 01 83 80 81 7f 00 00 82 08 00 00 00 5f 5f 2a eb f5 ff ef ff 0b 00 34 00 4e 1f 3c 05 db d9 d3 d5 08 80 00 00 00 80 00 00 00 00 09 09 00 00 00 00 00 51 ed d3 d5 28 08 00 e9 55 03 aa 65 bf 1d 29
# ReportID: 1 / X:  131 | Y:  128 | Z:  130 | Rz:  127 | Rx:    0 | Ry:    0 | 0xff000020:  131 | Hat switch:   8 | Button: 0  0  0  0  0  0  0  0  0  0  0  0  0  0  0 | 0xff000021: 0 , 0 , 0 , 0 , 0 , 0 , 0 , 0 , 0 , 0 , 0 , 0 , 0 | 0xff000022:   96 ,   95 ,   42 ,  235 ,  247 ,  255 ,  239 ,  255 ,   11 ,    0 ,   65 ,    0 ,   85 ,   31 ,   62 ,    5 ,  206 ,    8 ,  212 ,  213 ,    8 ,  128 ,    0 ,    0 ,    0 ,  128 ,    0 ,    0 ,    0 ,    0 ,    9 ,    9 ,    0 ,    0 ,    0 ,    0 ,    0 ,   49 ,   28 ,  212 ,  213 ,   40 ,    8 ,    0 ,   62 ,   94 ,   90 ,  239 ,  229 ,    2 ,  231 ,   43 
E: 000000.132678 64 01 83 80 82 7f 00 00 83 08 00 00 00 60 5f 2a eb f7 ff ef ff 0b 00 41 00 55 1f 3e 05 ce 08 d4 d5 08 80 00 00 00 80 00 00 00 00 09 09 00 00 00 00 00 31 1c d4 d5 28 08 00 3e 5e 5a ef e5 02 e7 2b
# ReportID: 1 / X:  131 | Y:  128 | Z:  129 | Rz:  127 | Rx:    0 | Ry:    0 | 0xff000020:  132 | Hat switch:   8 | Button: 0  0  0  0  0  0  0  0  0  0  0  0  0  0  0 | 0xff000021: 0 , 0 , 0 , 0 , 0 , 0 , 0 , 0 , 0 , 0 , 0 , 0 , 0 | 0xff000022:   97 ,   95 ,   42 ,  235 ,  246 ,  255 ,  238 ,  255 ,   10 ,    0 ,   55 ,    0 ,   94 ,   31 ,   56 ,    5 ,  193 ,   55 ,  212 ,  213 ,    8 ,  128 ,    0 ,    0 ,    0 ,  128 ,    0 ,    0 ,    0 ,    0 ,    9 ,    9 ,    0 ,    0 ,    0 ,    0 ,    0 ,   17 ,   75 ,  212 ,  213 ,   40 ,    8 ,    0 ,  226 ,  108 ,  227 ,  124 ,   21 ,  144 ,   78 ,  237 
E: 000000.139021 64 01 83 80 81 7f 00 00 84 08 00 00 00 61 5f 2a eb f6 ff ee ff 0a 00 37 00 5e 1f 38 05 c1 37 d4 d5 08 80 00 00 00 80 00 00 00 00 09 09 00 00 00 00 00 11 4b d4 d5 28 08 00 e2 6c e3 7c 15 90 4e ed
# ReportID: 1 / X:  131 | Y:  128 | Z:  130 | Rz:  127 | Rx:    0 | Ry:    0 | 0xff000020:  133 | Hat switch:   8 | Button: 0  0  0  0  0  0  0  0  0  0  0  0  0  0  0 | 0xff000021: 0 , 0 , 0 , 0 , 0 , 0 , 0 , 0 , 0 , 0 , 0 , 0 , 0 | 0xff000022:   98 ,   95 ,   42 ,  235 ,  248 ,  255 ,  237 ,  255 ,   10 ,    0 ,   51 ,    0 ,   79 ,   31 ,   57 ,    5 ,  180 ,  102 ,  212 ,  213 ,    8 ,  128 ,    0 ,    0 ,    0 ,  128 ,    0 ,    0 ,    0 ,    0 ,    9 ,    9 ,    0 ,    0 ,    0 ,    0 ,    0 ,  241 ,  121 ,  212 ,  213 ,   40 ,    8 ,    0 ,   93 ,    9 ,  249 ,  158 ,   69 ,   44 ,  247 ,  179 
E: 000000.142517 64 01 83 80 82 7f 00 00 85 08 00 00 00 62 5f 2a eb f8 ff ed ff 0a 00 33 00 4f 1f 39 05 b4 66 d4 d5 08 80 00 00 00 80 00 00 00 00 09 09 00 00 00 00 00 f1 79 d4 d5 28 08 00 5d 09 f9 9e 45 2c f7 b3
# ReportID: 1 / X:  131 | Y:  128 | Z:  129 | Rz:  127 | Rx:    0 | Ry:    0 | 0xff000020:  134 | Hat switch:   8 | Button: 0  0  0  0  0  0  0  0  0  0  0  0  0  0  0 | 0xff000021: 0 , 0 , 0 , 0 , 0 , 0 , 0 , 0 , 0 , 0 , 0 , 0 , 0 | 0xff000022:   99 ,   95 ,   42 ,  235 ,  247 ,  255 ,  238 ,  255 ,   12 ,    0 ,   49 ,    0 ,   74 ,   31 ,   58 ,    5 ,  167 ,  149 ,  212 ,  213 ,    8 ,  128 ,    0 ,    0 ,    0 ,  128 ,    0 ,    0 ,    0 ,    0 ,    9 ,    9 ,    0 ,    0 ,    0 ,    0 ,    0 ,  209 ,  168 ,  212 ,  213 ,   40 ,    8 ,    0 ,   98 ,   16 ,   33 ,   36 ,  110 ,   32 ,   45 ,  100 
E: 000000.146012 64 01 83 80 81 7f 00 00 86 08 00 00 00 63 5f 2a eb f7 ff ee ff 0c 00 31 00 4a 1f 3a 05 a7 95 d4 d5 08 80 00 00 00 80 00 00 00 00 09 09 00 00 00 00 00 d1 a8 d4 d5 28 08 00 62 10 21 24 6e 20 2d 64
# ReportID: 1 / X:  131 | Y:  128 | Z:  130 | Rz:  127 | Rx:    0 | Ry:    0 | 0xff000020:  135 | Hat switch:   8 | Button: 0  0  0  0  0  0  0  0  0  0  0  0  0  0  0 | 0xff000021: 0 , 0 , 0 , 0 , 0 , 0 , 0 , 0 , 0 , 0 , 0 , 0 , 0 | 0xff000022:  100 ,   95 ,   42 ,  235 ,  246 ,  255 ,  238 ,  255 ,   11 ,    0 ,   48 ,    0 ,   88 ,   31 ,   62 ,    5 ,  154 ,  196 ,  212 ,  213 ,    8 ,  128 ,    0 ,    0 ,    0 ,  128 ,    0 ,    0 ,    0 ,    0 ,    9 ,    9 ,    0 ,    0 ,    0 ,    0 ,    0 ,  177 ,  215 ,  212 ,  213 ,   40 ,    8 ,    0 ,  100 ,  106 ,  190 ,   73 ,  249 ,  149 ,  195 ,  161 
E: 000000.149952 64 01 83 80 82 7f 00 00 87 08 00 00 00 64 5f 2a eb f6 ff ee ff 0b 00 30 00 58 1f 3e 05 9a c4 d4 d5 08 80 00 00 00 80 00 00 00 00 09 09 00 00 00 00 00 b1 d7 d4 d5 28 08 00 64 6a be 49 f9 95 c3 a1
# ReportID: 1 / X:  131 | Y:  128 | Z:  129 | Rz:  127 | Rx:    0 | Ry:    0 | 0xff000020:  136 | Hat switch:   8 | Button: 0  0  0  0  0  0  0  0  0  0  0  0  0  0  0 | 0xff000021: 0 , 0 , 0 , 0 , 0 , 0 , 0 , 0 , 0 , 0 , 0 , 0 , 0 | 0xff000022:  101 ,   95 ,   42 ,  235 ,  246 ,  255 ,  239 ,  255 ,   10 ,    0 ,   47 ,    0 ,   79 ,   31 ,   63 ,    5 ,  142 ,  243 ,  212 ,  213 ,    8 ,  128 ,    0 ,    0 ,    0 ,  128 ,    0 ,    0 ,    0 ,    0 ,    9 ,    9 ,    0 ,    0 ,    0 ,    0 ,    0 ,  145 ,    6 ,  213 ,  213 ,   40 ,    8 ,    0 ,  230 ,   82 ,   77 ,  164 ,   62 ,  254 ,  155 ,   21 
E: 000000.153570 64 01 83 80 81 7f 00 00 88 08 00 00 00 65 5f 2a eb f6 ff ef ff 0a 00 2f 00 4f 1f 3f 05 8e f3 d4 d5 08 80 00 00 00 80 00 00 00 00 09 09 00 00 00 00 00 91 06 d5 d5 28 08 00 e6 52 4d a4 3e fe 9b 15
# ReportID: 1 / X:  131 | Y:  128 | Z:  129 | Rz:  127 | Rx:    0 | Ry:    0 | 0xff000020:  137 | Hat switch:   8 | Button: 0  0  0  0  0  0  0  0  0  0  0  0  0  0  0 | 0xff000021: 0 , 0 , 0 , 0 , 0 , 0 , 0 , 0 , 0 , 0 , 0 , 0 , 0 | 0xff000022:  102 ,   95 ,   42 ,  235 ,  246 ,  255 ,  238 ,  255 ,   10 ,    0 ,   46 ,    0 ,   77 ,   31 ,   48 ,    5 ,  129 ,   34 ,  213 ,  213 ,    8 ,  128 ,    0 ,    0 ,    0 ,  128 ,    0 ,    0 ,    0 ,    0 ,    9 ,    9 ,    0 ,    0 ,    0 ,    0 ,    0 ,  113 ,   53 ,  213 ,  213 ,   40 ,    8 ,    0 ,   70 ,   65 ,  163 ,  229 ,   18 ,   14 ,  198 ,  223 
E: 000000.157490 64 01 83 80 81 7f 00 00 89 08 00 00 00 66 5f 2a eb f6 ff ee ff 0a 00 2e 00 4d 1f 30 05 81 22 d5 d5 08 80 00 00 00 80 00 00 00 00 09 09 00 00 00 00 00 71 35 d5 d5 28 08 00 46 41 a3 e5 12 0e c6 df
# ReportID: 1 / X:  131 | Y:  128 | Z:  130 | Rz:  127 | Rx:    0 | Ry:    0 | 0xff000020:  138 | Hat switch:   8 | Button: 0  0  0  0  0  0  0  0  0  0  0  0  0  0  0 | 0xff000021: 0 , 0 , 0 , 0 , 0 , 0 , 0 , 0 , 0 , 0 , 0 , 0 , 0 | 0xff000022:  103 ,   95 ,   42 ,  235 ,  248 ,  255 ,  238 ,  255 ,   11 ,    0 ,   44 ,    0 ,   92 ,   31 ,   55 ,    5 ,  116 ,   81 ,  213 ,  213 ,    8 ,  128 ,    0 ,    0 ,    0 ,  128 ,    0 ,    0 ,    0 ,    0 ,    9 ,    9 ,    0 ,    0 ,    0 ,    0 ,    0 ,   81 ,  100 ,  213 ,  213 ,   40 ,    8 ,    0 ,  247 ,  191 ,  143 ,   20 ,   93 ,  247 ,   87 ,  195 
E: 000000.160787 64 01 83 80 82 7f 00 00 8a 08 00 00 00 67 5f 2a eb f8 ff ee ff 0b 00 2c 00 5c 1f 37 05 74 51 d5 d5 08 80 00 00 00 80 00 00 00 00 09 09 00 00 00 00 00 51 64 d5 d5 28 08 00 f7 bf 8f 14 5d f7 57 c3
# ReportID: 1 / X:  131 | Y:  128 | Z:  129 | Rz:  127 | Rx:    0 | Ry:    0 | 0xff000020:  139 | Hat switch:   8 | Button: 0  0  0  0  0  0  0  0  0  0  0  0  0  0  0 | 0xff000021: 0 , 0 , 0 , 0 , 0 , 0 , 0 , 0 , 0 , 0 , 0 , 0 , 0 | 0xff000022:  104 ,   95 ,   42 ,  235 ,  247 ,  255 ,  238 ,  255 ,   11 ,    0 ,   46 ,    0 ,   80 ,   31 ,   62 ,    5 ,  103 ,  128 ,  213 ,  213 ,    8 ,  128 ,    0 ,    0 ,    0 ,  128 ,    0 ,    0 ,    0 ,    0 ,    9 ,    9 ,    0 ,    0 ,    0 ,    0 ,    0 ,   49 ,  147 ,  213 ,  213 ,   40 ,    8 ,    0 ,   47 ,   46 ,  198 ,  113 ,   26 ,   40 ,   77 ,  181 
E: 000000.164662 64 01 83 80 81 7f 00 00 8b 08 00 00 00 68 5f 2a eb f7 ff ee ff 0b 00 2e 00 50 1f 3e 05 67 80 d5 d5 08 80 00 00 00 80 00 00 00 00 09 09 00 00 00 00 00 31 93 d5 d5 28 08 00 2f 2e c6 71 1a 28 4d b5
# ReportID: 1 / X:  131 | Y:  128 | Z:  130 | Rz:  127 | Rx:    0 | Ry:    0 | 0xff000020:  140 | Hat switch:   8 | Button: 0  0  0  0  0  0  0  0  0  0  0  0  0  0  0 | 0xff000021: 0 , 0 , 0 , 0 , 0 , 0 , 0 , 0 , 0 , 0 , 0 , 0 , 0 | 0xff000022:  105 ,   95 ,   42 ,  235 ,  246 ,  255 ,  238 ,  255 ,   10 ,    0 ,   59 ,    0 ,   66 ,   31 ,   67 ,    5 ,   90 ,  175 ,  213 ,  213 ,    8 ,  128 ,    0 ,    0 ,    0 ,  128 ,    0 ,    0 ,    0 ,    0 ,    9 ,    9 ,    0 ,    0 ,    0 ,    0 ,    0 ,   17 ,  194 ,  213 ,  213 ,   40 ,    8 ,    0 ,   79 ,  155 ,  198 ,  222 ,  118 ,   91 ,   64 ,  181 
E: 000000.169849 64 01 83 80 82 7f 00 00 8c 08 00 00 00 69 5f 2a eb f6 ff ee ff 0a 00 3b 00 42 1f 43 05 5a af d5 d5 08 80 00 00 00 80 00 00 00 00 09 09 00 00 00 00 00 11 c2 d5 d5 28 08 00 4f 9b c6 de 76 5b 40 b5
# ReportID: 1 / X:  131 | Y:  128 | Z:  130 | Rz:  127 | Rx:    0 | Ry:    0 | 0xff000020:  141 | Hat switch:   8 | Button: 0  0  0  0  0  0  0  0  0  0  0  0  0  0  0 | 0xff000021: 0 , 0 , 0 , 0 , 0 , 0 , 0 , 0 , 0 , 0 , 0 , 0 , 0 | 0xff000022:  106 ,   95 ,   42 ,  235 ,  246 ,  255 ,  237 ,  255 ,   11 ,    0 ,   56 ,    0 ,   64 ,   31 ,   66 ,    5 ,   77 ,  222 ,  213 ,  213 ,    8 ,  128 ,    0 ,    0 ,    0 ,  128 ,    0 ,    0 ,    0 ,    0 ,    9 ,    9 ,    0 ,    0 ,    0 ,    0 ,    0 ,  241 ,  240 ,  213 ,  213 ,   40 ,    8 ,    0 ,  177 ,  164 ,  137 ,  180 ,  134 ,  190 ,  135 ,  199 
E: 000000.173546 64 01 83 80 82 7f 00 00 8d 08 00 00 00 6a 5f 2a eb f6 ff ed ff 0b 00 38 00 40 1f 42 05 4d de d5 d5 08 80 00 00 00 80 00 00 00 00 09 09 00 00 00 00 00 f1 f0 d5 d5 28 08 00 b1 a4 89 b4 86 be 87 c7
# ReportID: 1 / X:  131 | Y:  128 | Z:  129 | Rz:  127 | Rx:    0 | Ry:    0 | 0xff000020:  142 | Hat switch:   8 | Button: 0  0  0  0  0  0  0  0  0  0  0  0  0  0  0 | 0xff000021: 0 , 0 , 0 , 0 , 0 , 0 , 0 , 0 , 0 , 0 , 0 , 0 , 0 | 0xff000022:  107 ,   95 ,   42 ,  235 ,  246 ,  255 ,  238 ,  255 ,   10 ,    0 ,   47 ,    0 ,   93 ,   31 ,   65 ,    5 ,   64 ,   13 ,  214 ,  213 ,    8 ,  128 ,    0 ,    0 ,    0 ,  128 ,    0 ,    0 ,    0 ,    0 ,    9 ,    9 ,    0 ,    0 ,    0 ,    0 ,    0 ,  209 ,   31 ,  214 ,  213 ,   40 ,    8 ,    0 ,  184 ,  147 ,  117 ,  222 ,  151 ,   36 ,   61 ,  240 
E: 000000.176725 64 01 83 80 81 7f 00 00 8e 08 00 00 00 6b 5f 2a eb f6 ff ee ff 0a 00 2f 00 5d 1f 41 05 40 0d d6 d5 08 80 00 00 00 80 00 00 00 00 09 09 00 00 00 00 00 d1 1f d6 d5 28 08 00 b8 93 75 de 97 24 3d f0
# ReportID: 1 / X:  131 | Y:  128 | Z:  129 | Rz:  127 | Rx:    0 | Ry:    0 | 0xff000020:  143 | Hat switch:   8 | Button: 0  0  0  0  0  0  0  0  0  0  0  0  0  0  0 | 0xff000021: 0 , 0 , 0 , 0 , 0 , 0 , 0 , 0 , 0 , 0 , 0 , 0 , 0 | 0xff000022:  108 ,   95 ,   42 ,  235 ,  245 ,  255 ,  238 ,  255 ,   11 ,    0 ,   51 ,    0 ,  100 ,   31 ,   62 ,    5 ,   51 ,   60 ,  214 ,  213 ,    8 ,  128 ,    0 ,    0 ,    0 ,  128 ,    0 ,    0 ,    0 ,    0 ,    9 ,    9 ,    0 ,    0 ,    0 ,    0 ,    0 ,  177 ,   78 ,  214 ,  213 ,   40 ,    8 ,    0 ,  163 ,  117 ,  212 ,   54 ,   34 ,  222 ,   85 ,   61 
E: 000000.181059 64 01 83 80 81 7f 00 00 8f 08 00 00 00 6c 5f 2a eb f5 ff ee ff 0b 00 33 00 64 1f 3e 05 33 3c d6 d5 08 80 00 00 00 80 00 00 00 00 09 09 00 00 00 00 00 b1 4e d6 d5 28 08 00 a3 75 d4 36 22 de 55 3d
# ReportID: 1 / X:  131 | Y:  128 | Z:  129 | Rz:  127 | Rx:    0 | Ry:    0 | 0xff000020:  144 | Hat switch:   8 | Button: 0  0  0  0  0  0  0  0  0  0  0  0  0  0  0 | 0xff000021: 0 , 0 , 0 , 0 , 0 , 0 , 0 , 0 , 0 , 0 , 0 , 0 , 0 | 0xff000022:  109 ,   95 ,   42 ,  235 ,  248 ,  255 ,  238 ,  255 ,   11 ,    0 ,   46 ,    0 ,  102 ,   31 ,   70 ,    5 ,   38 ,  107 ,  214 ,  213 ,    8 ,  128 ,    0 ,    0 ,    0 ,  128 ,    0 ,    0 ,    0 ,    0 ,    9 ,    9 ,    0 ,    0 ,    0 ,    0 ,    0 ,  145 ,  125 ,  214 ,  213 ,   40 ,    8 ,    0 ,   81 ,   46 ,  105 ,   44 ,  117 ,  162 ,  191 ,    4 
E: 000000.185203 64 01 83 80 81 7f 00 00 90 08 00 00 00 6d 5f 2a eb f8 ff ee ff 0b 00 2e 00 66 1f 46 05 26 6b d6 d5 08 80 00 00 00 80 00 00 00 00 09 09 00 00 00 00 00 91 7d d6 d5 28 08 00 51 2e 69 2c 75 a2 bf 04
# ReportID: 1 / X:  131 | Y:  128 | Z:  129 | Rz:  127 | Rx:    0 | Ry:    0 | 0xff000020:  145 | Hat switch:   8 | Button: 0  0  0  0  0  0  0  0  0  0  0  0  0  0  0 | 0xff000021: 0 , 0 , 0 , 0 , 0 , 0 , 0 , 0 , 0 , 0 , 0 , 0 , 0 | 0xff000022:  110 ,   95 ,   42 ,  235 ,  246 ,  255 ,  238 ,  255 ,   10 ,    0 ,   48 ,    0 ,   84 ,   31 ,   60 ,    5 ,   25 ,  154 ,  214 ,  213 ,    8 ,  128 ,    0 ,    0 ,    0 ,  128 ,    0 ,    0 ,    0 ,    0 ,    9 ,    9 ,    0 ,    0 ,    0 ,    0 ,    0 ,  113 ,  172 ,  214 ,  213 ,   40 ,    8 ,    0 ,  131 ,  227 ,  164 ,  120 ,  238 ,   99 ,   22 ,  237 
E: 000000.188735 64 01 83 80 81 7f 00 00 91 08 00 00 00 6e 5f 2a eb f6 ff ee ff 0a 00 30 00 54 1f 3c 05 19 9a d6 d5 08 80 00 00 00 80 00 00 00 00 09 09 00 00 00 00 00 71 ac d6 d5 28 08 00 83 e3 a4 78 ee 63 16 ed
# ReportID: 1 / X:  131 | Y:  128 | Z:  129 | Rz:  127 | Rx:    0 | Ry:    0 | 0xff000020:  146 | Hat switch:   8 | Button: 0  0  0  0  0  0  0  0  0  0  0  0  0  0  0 | 0xff000021: 0 , 0 , 0 , 0 , 0 , 0 , 0 , 0 , 0 , 0 , 0 , 0 , 0 | 0xff000022:  111 ,   95 ,   42 ,  235 ,  247 ,  255 ,  238 ,  255 ,   10 ,    0 ,   55 ,    0 ,   74 ,   31 ,   59 ,    5 ,   13 ,  201 ,  214 ,  213 ,    8 ,  128 ,    0 ,    0 ,    0 ,  128 ,    0 ,    0 ,    0 ,    0 ,    9 ,    9 ,    0 ,    0 ,    0 ,    0 ,    0 ,   81 ,  219 ,  214 ,  213 ,   40 ,    8 ,    0 ,  239 ,  244 ,   22 ,  209 ,  237 ,  102 ,   96 ,  118 
E: 000000.192700 64 01 83 80 81 7f 00 00 92 08 00 00 00 6f 5f 2a eb f7 ff ee ff 0a 00 37 00 4a 1f 3b 05 0d c9 d6 d5 08 80 00 00 00 80 00 00 00 00 09 09 00 00 00 00 00 51 db d6 d5 28 08 00 ef f4 16 d1 ed 66 60 76
# ReportID: 1 / X:  131 | Y:  128 | Z:  129 | Rz:  127 | Rx:    0 | Ry:    0 | 0xff000020:  147 | Hat switch:   8 | Button: 0  0  0  0  0  0  0  0  0  0  0  0  0  0  0 | 0xff000021: 0 , 0 , 0 , 0 , 0 , 0 , 0 , 0 , 0 , 0 , 0 , 0 , 0 | 0xff000022:  112 ,   95 ,   42 ,  235 ,  248 ,  255 ,  239 ,  255 ,   11 ,    0 ,   58 ,    0 ,   75 ,   31 ,   57 ,    5 ,    0 ,  248 ,  214 ,  213 ,    8 ,  128 ,    0 ,    0 ,    0 ,  128 ,    0 ,    0 ,    0 ,    0 ,    9 ,    9 ,    0 ,    0 ,    0 ,    0 ,    0 ,   49 ,   10 ,  215 ,  213 ,   40 ,    8 ,    0 ,  121 ,  203 ,   35 ,  182 ,  223 ,   42 ,  129 ,  142 
E: 000000.196790 64 01 83 80 81 7f 00 00 93 08 00 00 00 70 5f 2a eb f8 ff ef ff 0b 00 3a 00 4b 1f 39 05 00 f8 d6 d5 08 80 00 00 00 80 00 00 00 00 09 09 00 00 00 00 00 31 0a d7 d5 28 08 00 79 cb 23 b6 df 2a 81 8e
# ReportID: 1 / X:  131 | Y:  128 | Z:  130 | Rz:  127 | Rx:    0 | Ry:    0 | 0xff000020:  148 | Hat switch:   8 | Button: 0  0  0  0  0  0  0  0  0  0  0  0  0  0  0 | 0xff000021: 0 , 0 , 0 , 0 , 0 , 0 , 0 , 0 , 0 , 0 , 0 , 0 , 0 | 0xff000022:  113 ,   95 ,   42 ,  235 ,  249 ,  255 ,  238 ,  255 ,   11 ,    0 ,   55 ,    0 ,   84 ,   31 ,   60 ,    5 ,  243 ,   38 ,  215 ,  213 ,    8 ,  128 ,    0 ,    0 ,    0 ,  128 ,    0 ,    0 ,    0 ,    0 ,    9 ,    9 ,    0 ,    0 ,    0 ,    0 ,    0 ,   17 ,   57 ,  215 ,  213 ,   40 ,    8 ,    0 ,  109 ,   18 ,  119 ,  196 ,   78 ,  248 ,   24 ,   14 
E: 000000.201590 64 01 83 80 82 7f 00 00 94 08 00 00 00 71 5f 2a eb f9 ff ee ff 0b 00 37 00 54 1f 3c 05 f3 26 d7 d5 08 80 00 00 00 80 00 00 00 00 09 09 00 00 00 00 00 11 39 d7 d5 28 08 00 6d 12 77 c4 4e f8 18 0e
# ReportID: 1 / X:  131 | Y:  128 | Z:  129 | Rz:  127 | Rx:    0 | Ry:    0 | 0xff000020:  149 | Hat switch:   8 | Button: 0  0  0  0  0  0  0  0  0  0  0  0  0  0  0 | 0xff000021: 0 , 0 , 0 , 0 , 0 , 0 , 0 , 0 , 0 , 0 , 0 , 0 , 0 | 0xff000022:  114 ,   95 ,   42 ,  235 ,  246 ,  255 ,  239 ,  255 ,   11 ,    0 ,   59 ,    0 ,   87 ,   31 ,   66 ,    5 ,  230 ,   85 ,  215 ,  213 ,    8 ,  128 ,    0 ,    0 ,    0 ,  128 ,    0 ,    0 ,    0 ,    0 ,    9 ,    9 ,    0 ,    0 ,    0 ,    0 ,    0 ,  241 ,  103 ,  215 ,  213 ,   40 ,    8 ,    0 ,  131 ,   12 ,    3 ,  238 ,  251 ,  100 ,  178 ,  211 
E: 000000.204745 64 01 83 80 81 7f 00 00 95 08 00 00 00 72 5f 2a eb f6 ff ef ff 0b 00 3b 00 57 1f 42 05 e6 55 d7 d5 08 80 00 00 00 80 00 00 00 00 09 09 00 00 00 00 00 f1 67 d7 d5 28 08 00 83 0c 03 ee fb 64 b2 d3
# ReportID: 1 / X:  131 | Y:  128 | Z:  129 | Rz:  127 | Rx:    0 | Ry:    0 | 0xff000020:  150 | Hat switch:   8 | Button: 0  0  0  0  0  0  0  0  0  0  0  0  0  0  0 | 0xff000021: 0 , 0 , 0 , 0 , 0 , 0 , 0 , 0 , 0 , 0 , 0 , 0 , 0 | 0xff000022:  115 ,   95 ,   42 ,  235 ,  248 ,  255 ,  238 ,  255 ,   11 ,    0 ,   62 ,    0 ,   92 ,   31 ,   67 ,    5 ,  217 ,  132 ,  215 ,  213 ,    8 ,  128 ,    0 ,    0 ,    0 ,  128 ,    0 ,    0 ,    0 ,    0 ,    9 ,    9 ,    0 ,    0 ,    0 ,    0 ,    0 ,  209 ,  150 ,  215 ,  213 ,   40 ,    8 ,    0 ,   36 ,  135 ,   87 ,  231 ,    0 ,   52 ,  158 ,  212 
E: 000000.208808 64 01 83 80 81 7f 00 00 96 08 00 00 00 73 5f 2a eb f8 ff ee ff 0b 00 3e 00 5c 1f 43 05 d9 84 d7 d5 08 80 00 00 00 80 00 00 00 00 09 09 00 00 00 00 00 d1 96 d7 d5 28 08 00 24 87 57 e7 00 34 9e d4
# ReportID: 1 / X:  131 | Y:  128 | Z:  129 | Rz:  127 | Rx:    0 | Ry:    0 | 0xff000020:  151 | Hat switch:   8 | Button: 0  0  0  0  0  0  0  0  0  0  0  0  0  0  0 | 0xff000021: 0 , 0 , 0 , 0 , 0 , 0 , 0 , 0 , 0 , 0 , 0 , 0 , 0 | 0xff000022:  116 ,   95 ,   42 ,  235 ,  247 ,  255 ,  238 ,  255 ,   10 ,    0 ,   60 ,    0 ,   86 ,   31 ,   67 ,    5 ,  204 ,  179 ,  215 ,  213 ,    8 ,  128 ,    0 ,    0 ,    0 ,  128 ,    0 ,    0 ,    0 ,    0 ,    9 ,    9 ,    0 ,    0 ,    0 ,    0 ,    0 ,  177 ,  197 ,  215 ,  213 ,   40 ,    8 ,    0 ,   77 ,   61 ,  208 ,  114 ,   86 ,  243 ,   63 ,   61 
E: 000000.214078 64 01 83 80 81 7f 00 00 97 08 00 00 00 74 5f 2a eb f7 ff ee ff 0a 00 3c 00 56 1f 43 05 cc b3 d7 d5 08 80 00 00 00 80 00 00 00 00 09 09 00 00 00 00 00 b1 c5 d7 d5 28 08 00 4d 3d d0 72 56 f3 3f 3d
# ReportID: 1 / X:  131 | Y:  128 | Z:  129 | Rz:  127 | Rx:    0 | Ry:    0 | 0xff000020:  152 | Hat switch:   8 | Button: 0  0  0  0  0  0  0  0  0  0  0  0  0  0  0 | 0xff000021: 0 , 0 , 0 , 0 , 0 , 0 , 0 , 0 , 0 , 0 , 0 , 0 , 0 | 0xff000022:  117 ,   95 ,   42 ,  235 ,  247 ,  255 ,  238 ,  255 ,   11 ,    0 ,   59 ,    0 ,   81 ,   31 ,   60 ,    5 ,  191 ,  226 ,  215 ,  213 ,    8 ,  128 ,    0 ,    0 ,    0 ,  128 ,    0 ,    0 ,    0 ,    0 ,    9 ,    9 ,    0 ,    0 ,    0 ,    0 ,    0 ,  145 ,  244 ,  215 ,  213 ,   40 ,    8 ,    0 ,   73 ,   41 ,  160 ,    5 ,    8 ,   77 ,  178 ,  254 
E: 000000.217674 64 01 83 80 81 7f 00 00 98 08 00 00 00 75 5f 2a eb f7 ff ee ff 0b 00 3b 00 51 1f 3c 05 bf e2 d7 d5 08 80 00 00 00 80 00 00 00 00 09 09 00 00 00 00 00 91 f4 d7 d5 28 08 00 49 29 a0 05 08 4d b2 fe
# ReportID: 1 / X:  131 | Y:  128 | Z:  129 | Rz:  127 | Rx:    0 | Ry:    0 | 0xff000020:  153 | Hat switch:   8 | Button: 0  0  0  0  0  0  0  0  0  0  0  0  0  0  0 | 0xff000021: 0 , 0 , 0 , 0 , 0 , 0 , 0 , 0 , 0 , 0 , 0 , 0 , 0 | 0xff000022:  118 ,   95 ,   42 ,  235 ,  247 ,  255 ,  238 ,  255 ,   10 ,    0 ,   60 ,    0 ,   79 ,   31 ,   59 ,    5 ,  178 ,   17 ,  216 ,  213 ,    8 ,  128 ,    0 ,    0 ,    0 ,  128 ,    0 ,    0 ,    0 ,    0 ,    9 ,    9 ,    0 ,    0 ,    0 ,    0 ,    0 ,  113 ,   35 ,  216 ,  213 ,   40 ,    8 ,    0 ,  104 ,  172 ,  164 ,  123 ,  135 ,  223 ,  179 ,    5 
E: 000000.220797 64 01 83 80 81 7f 00 00 99 08 00 00 00 76 5f 2a eb f7 ff ee ff 0a 00 3c 00 4f 1f 3b 05 b2 11 d8 d5 08 80 00 00 00 80 00 00 00 00 09 09 00 00 00 00 00 71 23 d8 d5 28 08 00 68 ac a4 7b 87 df b3 05
# ReportID: 1 / X:  131 | Y:  128 | Z:  129 | Rz:  127 | Rx:    0 | Ry:    0 | 0xff000020:  154 | Hat switch:   8 | Button: 0  0  0  0  0  0  0  0  0  0  0  0  0  0  0 | 0xff000021: 0 , 0 , 0 , 0 , 0 , 0 , 0 , 0 , 0 , 0 , 0 , 0 , 0 | 0xff000022:  119 ,   95 ,   42 ,  235 ,  249 ,  255 ,  239 ,  255 ,   10 ,    0 ,   47 ,    0 ,   86 ,   31 ,   59 ,    5 ,  165 ,   64 ,  216 ,  213 ,    8 ,  128 ,    0 ,    0 ,    0 ,  128 ,    0 ,    0 ,    0 ,    0 ,    9 ,    9 ,    0 ,    0 ,    0 ,    0 ,    0 ,   81 ,   82 ,  216 ,  213 ,   40 ,    8 ,    0 ,   21 ,  109 ,  135 ,  237 ,  167 ,   16 ,   61 ,  237 
E: 000000.226593 64 01 83 80 81 7f 00 00 9a 08 00 00 00 77 5f 2a eb f9 ff ef ff 0a 00 2f 00 56 1f 3b 05 a5 40 d8 d5 08 80 00 00 00 80 00 00 00 00 09 09 00 00 00 00 00 51 52 d8 d5 28 08 00 15 6d 87 ed a7 10 3d ed
# ReportID: 1 / X:  131 | Y:  128 | Z:  129 | Rz:  127 | Rx:    0 | Ry:    0 | 0xff000020:  155 | Hat switch:   8 | Button: 0  0  0  0  0  0  0  0  0  0  0  0  0  0  0 | 0xff000021: 0 , 0 , 0 , 0 , 0 , 0 , 0 , 0 , 0 , 0 , 0 , 0 , 0 | 0xff000022:  120 ,   95 ,   42 ,  235 ,  248 ,  255 ,  239 ,  255 ,   10 ,    0 ,   73 ,    0 ,   84 ,   31 ,   48 ,    5 ,  152 ,  111 ,  216 ,  213 ,    8 ,  128 ,    0 ,    0 ,    0 ,  128 ,    0 ,    0 ,    0 ,    0 ,    9 ,    9 ,    0 ,    0 ,    0 ,    0 ,    0 ,   49 ,  129 ,  216 ,  213 ,   40 ,    8 ,    0 ,   75 ,  250 ,  133 ,   70 ,  222 ,   87 ,  102 ,  152 
E: 000000.230241 64 01 83 80 81 7f 00 00 9b 08 00 00 00 78 5f 2a eb f8 ff ef ff 0a 00 49 00 54 1f 30 05 98 6f d8 d5 08 80 00 00 00 80 00 00 00 00 09 09 00 00 00 00 00 31 81 d8 d5 28 08 00 4b fa 85 46 de 57 66 98
# ReportID: 1 / X:  131 | Y:  128 | Z:  130 | Rz:  127 | Rx:    0 | Ry:    0 | 0xff000020:  156 | Hat switch:   8 | Button: 0  0  0  0  0  0  0  0  0  0  0  0  0  0  0 | 0xff000021: 0 , 0 , 0 , 0 , 0 , 0 , 0 , 0 , 0 , 0 , 0 , 0 , 0 | 0xff000022:  121 ,   95 ,   42 ,  235 ,  249 ,  255 ,  239 ,  255 ,   11 ,    0 ,   46 ,    0 ,   99 ,   31 ,   69 ,    5 ,  139 ,  158 ,  216 ,  213 ,    8 ,  128 ,    0 ,    0 ,    0 ,  128 ,    0 ,    0 ,    0 ,    0 ,    9 ,    9 ,    0 ,    0 ,    0 ,    0 ,    0 ,   17 ,  176 ,  216 ,  213 ,   40 ,    8 ,    0 ,  171 ,  184 ,   89 ,   26 ,   77 ,  181 ,  234 ,  175 
E: 000000.234133 64 01 83 80 82 7f 00 00 9c 08 00 00 00 79 5f 2a eb f9 ff ef ff 0b 00 2e 00 63 1f 45 05 8b 9e d8 d5 08 80 00 00 00 80 00 00 00 00 09 09 00 00 00 00 00 11 b0 d8 d5 28 08 00 ab b8 59 1a 4d b5 ea af
# ReportID: 1 / X:  131 | Y:  128 | Z:  130 | Rz:  127 | Rx:    0 | Ry:    0 | 0xff000020:  157 | Hat switch:   8 | Button: 0  0  0  0  0  0  0  0  0  0  0  0  0  0  0 | 0xff000021: 0 , 0 , 0 , 0 , 0 , 0 , 0 , 0 , 0 , 0 , 0 , 0 , 0 | 0xff000022:  122 ,   95 ,   42 ,  235 ,  247 ,  255 ,  239 ,  255 ,   10 ,    0 ,   32 ,    0 ,  108 ,   31 ,   76 ,    5 ,  127 ,  205 ,  216 ,  213 ,    8 ,  128 ,    0 ,    0 ,    0 ,  128 ,    0 ,    0 ,    0 ,    0 ,    9 ,    9 ,    0 ,    0 ,    0 ,    0 ,    0 ,  241 ,  222 ,  216 ,  213 ,   40 ,    8 ,    0 ,  248 ,  122 ,  240 ,   88 ,   91 ,  179 ,  206 ,   19 
E: 000000.237632 64 01 83 80 82 7f 00 00 9d 08 00 00 00 7a 5f 2a eb f7 ff ef ff 0a 00 20 00 6c 1f 4c 05 7f cd d8 d5 08 80 00 00 00 80 00 00 00 00 09 09 00 00 00 00 00 f1 de d8 d5 28 08 00 f8 7a f0 58 5b b3 ce 13
# ReportID: 1 / X:  131 | Y:  128 | Z:  129 | Rz:  127 | Rx:    0 | Ry:    0 | 0xff000020:  158 | Hat switch:   8 | Button: 0  0  0  0  0  0  0  0  0  0  0  0  0  0  0 | 0xff000021: 0 , 0 , 0 , 0 , 0 , 0 , 0 , 0 , 0 , 0 , 0 , 0 , 0 | 0xff000022:  123 ,   95 ,   42 ,  235 ,  248 ,  255 ,  238 ,  255 ,   12 ,    0 ,   71 ,    0 ,   74 ,   31 ,   48 ,    5 ,  114 ,  252 ,  216 ,  213 ,    8 ,  128 ,    0 ,    0 ,    0 ,  128 ,    0 ,    0 ,    0 ,    0 ,    9 ,    9 ,    0 ,    0 ,    0 ,    0 ,    0 ,  209 ,   13 ,  217 ,  213 ,   40 ,    8 ,    0 ,   66 ,  118 ,  218 ,  249 ,  117 ,  195 ,  194 ,  192 
E: 000000.241144 64 01 83 80 81 7f 00 00 9e 08 00 00 00 7b 5f 2a eb f8 ff ee ff 0c 00 47 00 4a 1f 30 05 72 fc d8 d5 08 80 00 00 00 80 00 00 00 00 09 09 00 00 00 00 00 d1 0d d9 d5 28 08 00 42 76 da f9 75 c3 c2 c0
# ReportID: 1 / X:  131 | Y:  128 | Z:  129 | Rz:  127 | Rx:    0 | Ry:    0 | 0xff000020:  159 | Hat switch:   8 | Button: 0  0  0  0  0  0  0  0  0  0  0  0  0  0  0 | 0xff000021: 0 , 0 , 0 , 0 , 0 , 0 , 0 , 0 , 0 , 0 , 0 , 0 , 0 | 0xff000022:  124 ,   95 ,   42 ,  235 ,  247 ,  255 ,  238 ,  255 ,   10 ,    0 ,   13 ,    0 ,   82 ,   31 ,   45 ,    5 ,  135 ,   37 ,  217 ,  213 ,    8 ,  128 ,    0 ,    0 ,    0 ,  128 ,    0 ,    0 ,    0 ,    0 ,    9 ,    9 ,    0 ,    0 ,    0 ,    0 ,    0 ,  177 ,   60 ,  217 ,  213 ,   40 ,    8 ,    0 ,  144 ,   30 ,  101 ,   71 ,  215 ,  149 ,  162 ,  178 
E: 000000.244659 64 01 83 80 81 7f 00 00 9f 08 00 00 00 7c 5f 2a eb f7 ff ee ff 0a 00 0d 00 52 1f 2d 05 87 25 d9 d5 08 80 00 00 00 80 00 00 00 00 09 09 00 00 00 00 00 b1 3c d9 d5 28 08 00 90 1e 65 47 d7 95 a2 b2
# ReportID: 1 / X:  131 | Y:  128 | Z:  130 | Rz:  127 | Rx:    0 | Ry:    0 | 0xff000020:  160 | Hat switch:   8 | Button: 0  0  0  0  0  0  0  0  0  0  0  0  0  0  0 | 0xff000021: 0 , 0 , 0 , 0 , 0 , 0 , 0 , 0 , 0 , 0 , 0 , 0 , 0 | 0xff000022:  125 ,   95 ,   42 ,  235 ,  246 ,  255 ,  238 ,  255 ,   10 ,    0 ,   54 ,    0 ,   96 ,   31 ,   43 ,    5 ,  155 ,   78 ,  217 ,  213 ,    8 ,  128 ,    0 ,    0 ,    0 ,  128 ,    0 ,    0 ,    0 ,    0 ,    9 ,    9 ,    0 ,    0 ,    0 ,    0 ,    0 ,  145 ,  107 ,  217 ,  213 ,   40 ,    8 ,    0 ,  236 ,  206 ,  148 ,  172 ,  220 ,  211 ,  133 ,    1 
E: 000000.249246 64 01 83 80 82 7f 00 00 a0 08 00 00 00 7d 5f 2a eb f6 ff ee ff 0a 00 36 00 60 1f 2b 05 9b 4e d9 d5 08 80 00 00 00 80 00 00 00 00 09 09 00 00 00 00 00 91 6b d9 d5 28 08 00 ec ce 94 ac dc d3 85 01
# ReportID: 1 / X:  131 | Y:  128 | Z:  129 | Rz:  127 | Rx:    0 | Ry:    0 | 0xff000020:  161 | Hat switch:   8 | Button: 0  0  0  0  0  0  0  0  0  0  0  0  0  0  0 | 0xff000021: 0 , 0 , 0 , 0 , 0 , 0 , 0 , 0 , 0 , 0 , 0 , 0 , 0 | 0xff000022:  126 ,   95 ,   42 ,  235 ,  247 ,  255 ,  238 ,  255 ,   11 ,    0 ,   64 ,    0 ,   80 ,   31 ,   34 ,    5 ,  142 ,  125 ,  217 ,  213 ,    8 ,  128 ,    0 ,    0 ,    0 ,  128 ,    0 ,    0 ,    0 ,    0 ,    9 ,    9 ,    0 ,    0 ,    0 ,    0 ,    0 ,  113 ,  154 ,  217 ,  213 ,   40 ,    8 ,    0 ,   69 ,   45 ,  203 ,  118 ,   44 ,   24 ,  178 ,  156 
E: 000000.252997 64 01 83 80 81 7f 00 00 a1 08 00 00 00 7e 5f 2a eb f7 ff ee ff 0b 00 40 00 50 1f 22 05 8e 7d d9 d5 08 80 00 00 00 80 00 00 00 00 09 09 00 00 00 00 00 71 9a d9 d5 28 08 00 45 2d cb 76 2c 18 b2 9c
# ReportID: 1 / X:  131 | Y:  128 | Z:  129 | Rz:  127 | Rx:    0 | Ry:    0 | 0xff000020:  162 | Hat switch:   8 | Button: 0  0  0  0  0  0  0  0  0  0  0  0  0  0  0 | 0xff000021: 0 , 0 , 0 , 0 , 0 , 0 , 0 , 0 , 0 , 0 , 0 , 0 , 0 | 0xff000022:  127 ,   95 ,   42 ,  235 ,  247 ,  255 ,  239 ,  255 ,   11 ,    0 ,   45 ,    0 ,   84 ,   31 ,   49 ,    5 ,  129 ,  172 ,  217 ,  213 ,    8 ,  128 ,    0 ,    0 ,    0 ,  128 ,    0 ,    0 ,    0 ,    0 ,    9 ,    9 ,    0 ,    0 ,    0 ,    0 ,    0 ,   81 ,  201 ,  217 ,  213 ,   40 ,    8 ,    0 ,    7 ,  146 ,   41 ,  101 ,  116 ,   63 ,  179 ,  196 
E: 000000.256755 64 01 83 80 81 7f 00 00 a2 08 00 00 00 7f 5f 2a eb f7 ff ef ff 0b 00 2d 00 54 1f 31 05 81 ac d9 d5 08 80 00 00 00 80 00 00 00 00 09 09 00 00 00 00 00 51 c9 d9 d5 28 08 00 07 92 29 65 74 3f b3 c4
# ReportID: 1 / X:  131 | Y:  128 | Z:  129 | Rz:  127 | Rx:    0 | Ry:    0 | 0xff000020:  163 | Hat switch:   8 | Button: 0  0  0  0  0  0  0  0  0  0  0  0  0  0  0 | 0xff000021: 0 , 0 , 0 , 0 , 0 , 0 , 0 , 0 , 0 , 0 , 0 , 0 , 0 | 0xff000022:  128 ,   95 ,   42 ,  235 ,  247 ,  255 ,  239 ,  255 ,   10 ,    0 ,   50 ,    0 ,   74 ,   31 ,   50 ,    5 ,  116 ,  219 ,  217 ,  213 ,    8 ,  128 ,    0 ,    0 ,    0 ,  128 ,    0 ,    0 ,    0 ,    0 ,    9 ,    9 ,    0 ,    0 ,    0 ,    0 ,    0 ,   49 ,  248 ,  217 ,  213 ,   40 ,    8 ,    0 ,  132 ,  242 ,  110 ,  137 ,  225 ,   89 ,   94 ,  131 
E: 000000.260696 64 01 83 80 81 7f 00 00 a3 08 00 00 00 80 5f 2a eb f7 ff ef ff 0a 00 32 00 4a 1f 32 05 74 db d9 d5 08 80 00 00 00 80 00 00 00 00 09 09 00 00 00 00 00 31 f8 d9 d5 28 08 00 84 f2 6e 89 e1 59 5e 83
# ReportID: 1 / X:  131 | Y:  128 | Z:  129 | Rz:  127 | Rx:    0 | Ry:    0 | 0xff000020:  164 | Hat switch:   8 | Button: 0  0  0  0  0  0  0  0  0  0  0  0  0  0  0 | 0xff000021: 0 , 0 , 0 , 0 , 0 , 0 , 0 , 0 , 0 , 0 , 0 , 0 , 0 | 0xff000022:  129 ,   95 ,   42 ,  235 ,  247 ,  255 ,  239 ,  255 ,   10 ,    0 ,   45 ,    0 ,   76 ,   31 ,   45 ,    5 ,  104 ,   10 ,  218 ,  213 ,    8 ,  128 ,    0 ,    0 ,    0 ,  128 ,    0 ,    0 ,    0 ,    0 ,    9 ,    9 ,    0 ,    0 ,    0 ,    0 ,    0 ,   17 ,   39 ,  218 ,  213 ,   40 ,    8 ,    0 ,   73 ,   59 ,   67 ,  120 ,   23 ,  127 ,  222 ,   65 
E: 000000.266480 64 01 83 80 81 7f 00 00 a4 08 00 00 00 81 5f 2a eb f7 ff ef ff 0a 00 2d 00 4c 1f 2d 05 68 0a da d5 08 80 00 00 00 80 00 00 00 00 09 09 00 00 00 00 00 11 27 da d5 28 08 00 49 3b 43 78 17 7f de 41
# ReportID: 1 / X:  131 | Y:  128 | Z:  129 | Rz:  127 | Rx:    0 | Ry:    0 | 0xff000020:  165 | Hat switch:   8 | Button: 0  0  0  0  0  0  0  0  0  0  0  0  0  0  0 | 0xff000021: 0 , 0 , 0 , 0 , 0 , 0 , 0 , 0 , 0 , 0 , 0 , 0 , 0 | 0xff000022:  130 ,   95 ,   42 ,  235 ,  248 ,  255 ,  239 ,  255 ,   12 ,    0 ,   46 ,    0 ,   83 ,   31 ,   42 ,    5 ,   91 ,   57 ,  218 ,  213 ,    8 ,  128 ,    0 ,    0 ,    0 ,  128 ,    0 ,    0 ,    0 ,    0 ,    9 ,    9 ,    0 ,    0 ,    0 ,    0 ,    0 ,  241 ,   85 ,  218 ,  213 ,   40 ,    8 ,    0 ,  133 ,  241 ,  165 ,  243 ,  204 ,  235 ,  113 ,  154 
E: 000000.269707 64 01 83 80 81 7f 00 00 a5 08 00 00 00 82 5f 2a eb f8 ff ef ff 0c 00 2e 00 53 1f 2a 05 5b 39 da d5 08 80 00 00 00 80 00 00 00 00 09 09 00 00 00 00 00 f1 55 da d5 28 08 00 85 f1 a5 f3 cc eb 71 9a
# ReportID: 1 / X:  131 | Y:  128 | Z:  130 | Rz:  127 | Rx:    0 | Ry:    0 | 0xff000020:  166 | Hat switch:   8 | Button: 0  0  0  0  0  0  0  0  0  0  0  0  0  0  0 | 0xff000021: 0 , 0 , 0 , 0 , 0 , 0 , 0 , 0 , 0 , 0 , 0 , 0 , 0 | 0xff000022:  131 ,   95 ,   42 ,  235 ,  248 ,  255 ,  238 ,  255 ,   11 ,    0 ,   44 ,    0 ,  100 ,   31 ,   52 ,    5 ,   78 ,  104 ,  218 ,  213 ,    8 ,  128 ,    0 ,    0 ,    0 ,  128 ,    0 ,    0 ,    0 ,    0 ,    9 ,    9 ,    0 ,    0 ,    0 ,    0 ,    0 ,  209 ,  132 ,  218 ,  213 ,   40 ,    8 ,    0 ,  222 ,   43 ,  115 ,  138 ,  139 ,    7 ,   80 ,  175 
E: 000000.272589 64 01 83 80 82 7f 00 00 a6 08 00 00 00 83 5f 2a eb f8 ff ee ff 0b 00 2c 00 64 1f 34 05 4e 68 da d5 08 80 00 00 00 80 00 00 00 00 09 09 00 00 00 00 00 d1 84 da d5 28 08 00 de 2b 73 8a 8b 07 50 af
# ReportID: 1 / X:  131 | Y:  128 | Z:  129 | Rz:  127 | Rx:    0 | Ry:    0 | 0xff000020:  167 | Hat switch:   8 | Button: 0  0  0  0  0  0  0  0  0  0  0  0  0  0  0 | 0xff000021: 0 , 0 , 0 , 0 , 0 , 0 , 0 , 0 , 0 , 0 , 0 , 0 , 0 | 0xff000022:  132 ,   95 ,   42 ,  235 ,  247 ,  255 ,  239 ,  255 ,   11 ,    0 ,   97 ,    0 ,   71 ,   31 ,   94 ,    5 ,   65 ,  151 ,  218 ,  213 ,    8 ,  128 ,    0 ,    0 ,    0 ,  128 ,    0 ,    0 ,    0 ,    0 ,    9 ,    9 ,    0 ,    0 ,    0 ,    0 ,    0 ,  177 ,  179 ,  218 ,  213 ,   40 ,    8 ,    0 ,   29 ,   80 ,   55 ,   75 ,  158 ,  200 ,   99 ,  171 
E: 000000.277072 64 01 83 80 81 7f 00 00 a7 08 00 00 00 84 5f 2a eb f7 ff ef ff 0b 00 61 00 47 1f 5e 05 41 97 da d5 08 80 00 00 00 80 00 00 00 00 09 09 00 00 00 00 00 b1 b3 da d5 28 08 00 1d 50 37 4b 9e c8 63 ab
# ReportID: 1 / X:  131 | Y:  128 | Z:  130 | Rz:  127 | Rx:    0 | Ry:    0 | 0xff000020:  168 | Hat switch:   8 | Button: 0  0  0  0  0  0  0  0  0  0  0  0  0  0  0 | 0xff000021: 0 , 0 , 0 , 0 , 0 , 0 , 0 , 0 , 0 , 0 , 0 , 0 , 0 | 0xff000022:  133 ,   95 ,   42 ,  235 ,  246 ,  255 ,  239 ,  255 ,   13 ,    0 ,   86 ,    0 ,   75 ,   31 ,  144 ,    5 ,   52 ,  198 ,  218 ,  213 ,    8 ,  128 ,    0 ,    0 ,    0 ,  128 ,    0 ,    0 ,    0 ,    0 ,    9 ,    9 ,    0 ,    0 ,    0 ,    0 ,    0 ,  145 ,  226 ,  218 ,  213 ,   40 ,    8 ,    0 ,  123 ,   68 ,  170 ,  101 ,  143 ,  143 ,  127 ,    9 
E: 000000.281813 64 01 83 80 82 7f 00 00 a8 08 00 00 00 85 5f 2a eb f6 ff ef ff 0d 00 56 00 4b 1f 90 05 34 c6 da d5 08 80 00 00 00 80 00 00 00 00 09 09 00 00 00 00 00 91 e2 da d5 28 08 00 7b 44 aa 65 8f 8f 7f 09
# ReportID: 1 / X:  131 | Y:  128 | Z:  129 | Rz:  127 | Rx:    0 | Ry:    0 | 0xff000020:  169 | Hat switch:   8 | Button: 0  0  0  0  0  0  0  0  0  0  0  0  0  0  0 | 0xff000021: 0 , 0 , 0 , 0 , 0 , 0 , 0 , 0 , 0 , 0 , 0 , 0 , 0 | 0xff000022:  134 ,   95 ,   42 ,  235 ,  246 ,  255 ,  240 ,  255 ,   13 ,    0 ,   97 ,    0 ,   91 ,   31 ,   52 ,    5 ,   39 ,  245 ,  218 ,  213 ,    8 ,  128 ,    0 ,    0 ,    0 ,  128 ,    0 ,    0 ,    0 ,    0 ,    9 ,    9 ,    0 ,    0 ,    0 ,    0 ,    0 ,  113 ,   17 ,  219 ,  213 ,   40 ,    8 ,    0 ,  233 ,  124 ,   11 ,  232 ,   10 ,  157 ,  215 ,  141 
E: 000000.284924 64 01 83 80 81 7f 00 00 a9 08 00 00 00 86 5f 2a eb f6 ff f0 ff 0d 00 61 00 5b 1f 34 05 27 f5 da d5 08 80 00 00 00 80 00 00 00 00 09 09 00 00 00 00 00 71 11 db d5 28 08 00 e9 7c 0b e8 0a 9d d7 8d
# ReportID: 1 / X:  131 | Y:  128 | Z:  129 | Rz:  127 | Rx:    0 | Ry:    0 | 0xff000020:  170 | Hat switch:   8 | Button: 0  0  0  0  0  0  0  0  0  0  0  0  0  0  0 | 0xff000021: 0 , 0 , 0 , 0 , 0 , 0 , 0 , 0 , 0 , 0 , 0 , 0 , 0 | 0xff000022:  135 ,   95 ,   42 ,  235 ,  247 ,  255 ,  236 ,  255 ,   13 ,    0 ,  251 ,  255 ,  129 ,   31 ,  240 ,    4 ,   26 ,   36 ,  219 ,  213 ,    8 ,  128 ,    0 ,    0 ,    0 ,  128 ,    0 ,    0 ,    0 ,    0 ,    9 ,    9 ,    0 ,    0 ,    0 ,    0 ,    0 ,   81 ,   64 ,  219 ,  213 ,   40 ,    8 ,    0 ,   78 ,   98 ,  140 ,  155 ,  218 ,   38 ,   50 ,  203 
E: 000000.288737 64 01 83 80 81 7f 00 00 aa 08 00 00 00 87 5f 2a eb f7 ff ec ff 0d 00 fb ff 81 1f f0 04 1a 24 db d5 08 80 00 00 00 80 00 00 00 00 09 09 00 00 00 00 00 51 40 db d5 28 08 00 4e 62 8c 9b da 26 32 cb
# ReportID: 1 / X:  131 | Y:  128 | Z:  130 | Rz:  127 | Rx:    0 | Ry:    0 | 0xff000020:  171 | Hat switch:   8 | Button: 0  0  0  0  0  0  0  0  0  0  0  0  0  0  0 | 0xff000021: 0 , 0 , 0 , 0 , 0 , 0 , 0 , 0 , 0 , 0 , 0 , 0 , 0 | 0xff000022:  136 ,   95 ,   42 ,  235 ,  247 ,  255 ,  238 ,  255 ,   12 ,    0 ,    7 ,    0 ,   83 ,   31 ,    5 ,    5 ,   13 ,   83 ,  219 ,  213 ,    8 ,  128 ,    0 ,    0 ,    0 ,  128 ,    0 ,    0 ,    0 ,    0 ,    9 ,    9 ,    0 ,    0 ,    0 ,    0 ,    0 ,   49 ,  111 ,  219 ,  213 ,   40 ,    8 ,    0 ,    0 ,   58 ,  143 ,   82 ,  249 ,  238 ,  181 ,   66 
E: 000000.293818 64 01 83 80 82 7f 00 00 ab 08 00 00 00 88 5f 2a eb f7 ff ee ff 0c 00 07 00 53 1f 05 05 0d 53 db d5 08 80 00 00 00 80 00 00 00 00 09 09 00 00 00 00 00 31 6f db d5 28 08 00 00 3a 8f 52 f9 ee b5 42
# ReportID: 1 / X:  131 | Y:  128 | Z:  129 | Rz:  127 | Rx:    0 | Ry:    0 | 0xff000020:  172 | Hat switch:   8 | Button: 0  0  0  0  0  0  0  0  0  0  0  0  0  0  0 | 0xff000021: 0 , 0 , 0 , 0 , 0 , 0 , 0 , 0 , 0 , 0 , 0 , 0 , 0 | 0xff000022:  137 ,   95 ,   42 ,  235 ,  247 ,  255 ,  240 ,  255 ,   10 ,    0 ,   68 ,    0 ,   76 ,   31 ,   50 ,    5 ,    0 ,  130 ,  219 ,  213 ,    8 ,  128 ,    0 ,    0 ,    0 ,  128 ,    0 ,    0 ,    0 ,    0 ,    9 ,    9 ,    0 ,    0 ,    0 ,    0 ,    0 ,   17 ,  158 ,  219 ,  213 ,   40 ,    8 ,    0 ,   64 ,   53 ,  164 ,    6 ,  161 ,  166 ,  231 ,   22 
E: 000000.296739 64 01 83 80 81 7f 00 00 ac 08 00 00 00 89 5f 2a eb f7 ff f0 ff 0a 00 44 00 4c 1f 32 05 00 82 db d5 08 80 00 00 00 80 00 00 00 00 09 09 00 00 00 00 00 11 9e db d5 28 08 00 40 35 a4 06 a1 a6 e7 16
# ReportID: 1 / X:  131 | Y:  128 | Z:  129 | Rz:  127 | Rx:    0 | Ry:    0 | 0xff000020:  173 | Hat switch:   8 | Button: 0  0  0  0  0  0  0  0  0  0  0  0  0  0  0 | 0xff000021: 0 , 0 , 0 , 0 , 0 , 0 , 0 , 0 , 0 , 0 , 0 , 0 , 0 | 0xff000022:  138 ,   95 ,   42 ,  235 ,  248 ,  255 ,  239 ,  255 ,   11 ,    0 ,   44 ,    0 ,   88 ,   31 ,   63 ,    5 ,  243 ,  176 ,  219 ,  213 ,    8 ,  128 ,    0 ,    0 ,    0 ,  128 ,    0 ,    0 ,    0 ,    0 ,    9 ,    9 ,    0 ,    0 ,    0 ,    0 ,    0 ,  241 ,  204 ,  219 ,  213 ,   40 ,    8 ,    0 ,  150 ,  202 ,  100 ,  127 ,  215 ,   58 ,  244 ,   34 
E: 000000.300947 64 01 83 80 81 7f 00 00 ad 08 00 00 00 8a 5f 2a eb f8 ff ef ff 0b 00 2c 00 58 1f 3f 05 f3 b0 db d5 08 80 00 00 00 80 00 00 00 00 09 09 00 00 00 00 00 f1 cc db d5 28 08 00 96 ca 64 7f d7 3a f4 22
# ReportID: 1 / X:  131 | Y:  128 | Z:  130 | Rz:  127 | Rx:    0 | Ry:    0 | 0xff000020:  174 | Hat switch:   8 | Button: 0  0  0  0  0  0  0  0  0  0  0  0  0  0  0 | 0xff000021: 0 , 0 , 0 , 0 , 0 , 0 , 0 , 0 , 0 , 0 , 0 , 0 , 0 | 0xff000022:  139 ,   95 ,   42 ,  235 ,  247 ,  255 ,  239 ,  255 ,   11 ,    0 ,   60 ,    0 ,   70 ,   31 ,   72 ,    5 ,  230 ,  223 ,  219 ,  213 ,    8 ,  128 ,    0 ,    0 ,    0 ,  128 ,    0 ,    0 ,    0 ,    0 ,    9 ,    9 ,    0 ,    0 ,    0 ,    0 ,    0 ,  209 ,  251 ,  219 ,  213 ,   40 ,    8 ,    0 ,  121 ,  214 ,  139 ,  243 ,   93 ,  137 ,   40 ,  174 
E: 000000.305831 64 01 83 80 82 7f 00 00 ae 08 00 00 00 8b 5f 2a eb f7 ff ef ff 0b 00 3c 00 46 1f 48 05 e6 df db d5 08 80 00 00 00 80 00 00 00 00 09 09 00 00 00 00 00 d1 fb db d5 28 08 00 79 d6 8b f3 5d 89 28 ae
# ReportID: 1 / X:  131 | Y:  128 | Z:  130 | Rz:  127 | Rx:    0 | Ry:    0 | 0xff000020:  175 | Hat switch:   8 | Button: 0  0  0  0  0  0  0  0  0  0  0  0  0  0  0 | 0xff000021: 0 , 0 , 0 , 0 , 0 , 0 , 0 , 0 , 0 , 0 , 0 , 0 , 0 | 0xff000022:  140 ,   95 ,   42 ,  235 ,  248 ,  255 ,  240 ,  255 ,   11 ,    0 ,   53 ,    0 ,   81 ,   31 ,   72 ,    5 ,  218 ,   14 ,  220 ,  213 ,    8 ,  128 ,    0 ,    0 ,    0 ,  128 ,    0 ,    0 ,    0 ,    0 ,    9 ,    9 ,    0 ,    0 ,    0 ,    0 ,    0 ,  177 ,   42 ,  220 ,  213 ,   40 ,    8 ,    0 ,  119 ,   17 ,   14 ,  155 ,  229 ,  209 ,  100 ,  248 
E: 000000.308903 64 01 83 80 82 7f 00 00 af 08 00 00 00 8c 5f 2a eb f8 ff f0 ff 0b 00 35 00 51 1f 48 05 da 0e dc d5 08 80 00 00 00 80 00 00 00 00 09 09 00 00 00 00 00 b1 2a dc d5 28 08 00 77 11 0e 9b e5 d1 64 f8
# ReportID: 1 / X:  131 | Y:  128 | Z:  130 | Rz:  127 | Rx:    0 | Ry:    0 | 0xff000020:  176 | Hat switch:   8 | Button: 0  0  0  0  0  0  0  0  0  0  0  0  0  0  0 | 0xff000021: 0 , 0 , 0 , 0 , 0 , 0 , 0 , 0 , 0 , 0 , 0 , 0 , 0 | 0xff000022:  141 ,   95 ,   42 ,  235 ,  248 ,  255 ,  239 ,  255 ,   12 ,    0 ,   45 ,    0 ,   85 ,   31 ,   67 ,    5 ,  205 ,   61 ,  220 ,  213 ,    8 ,  128 ,    0 ,    0 ,    0 ,  128 ,    0 ,    0 ,    0 ,    0 ,    9 ,    9 ,    0 ,    0 ,    0 ,    0 ,    0 ,  145 ,   89 ,  220 ,  213 ,   40 ,    8 ,    0 ,  101 ,   70 ,   23 ,  170 ,   85 ,  193 ,  216 ,   95 
E: 000000.313287 64 01 83 80 82 7f 00 00 b0 08 00 00 00 8d 5f 2a eb f8 ff ef ff 0c 00 2d 00 55 1f 43 05 cd 3d dc d5 08 80 00 00 00 80 00 00 00 00 09 09 00 00 00 00 00 91 59 dc d5 28 08 00 65 46 17 aa 55 c1 d8 5f
# ReportID: 1 / X:  131 | Y:  128 | Z:  129 | Rz:  127 | Rx:    0 | Ry:    0 | 0xff000020:  177 | Hat switch:   8 | Button: 0  0  0  0  0  0  0  0  0  0  0  0  0  0  0 | 0xff000021: 0 , 0 , 0 , 0 , 0 , 0 , 0 , 0 , 0 , 0 , 0 , 0 , 0 | 0xff000022:  142 ,   95 ,   42 ,  235 ,  249 ,  255 ,  241 ,  255 ,   11 ,    0 ,   33 ,    0 ,  110 ,   31 ,   58 ,    5 ,  192 ,  108 ,  220 ,  213 ,    8 ,  128 ,    0 ,    0 ,    0 ,  128 ,    0 ,    0 ,    0 ,    0 ,    9 ,    9 ,    0 ,    0 ,    0 ,    0 ,    0 ,  113 ,  136 ,  220 ,  213 ,   40 ,    8 ,    0 ,  222 ,  154 ,   56 ,   89 ,   82 ,   35 ,  170 ,  111 
E: 000000.316763 64 01 83 80 81 7f 00 00 b1 08 00 00 00 8e 5f 2a eb f9 ff f1 ff 0b 00 21 00 6e 1f 3a 05 c0 6c dc d5 08 80 00 00 00 80 00 00 00 00 09 09 00 00 00 00 00 71 88 dc d5 28 08 00 de 9a 38 59 52 23 aa 6f
# ReportID: 1 / X:  131 | Y:  128 | Z:  129 | Rz:  127 | Rx:    0 | Ry:    0 | 0xff000020:  178 | Hat switch:   2 | Button: 0  0  0  0  0  0  0  0  0  0  0  0  0  0  0 | 0xff000021: 0 , 0 , 0 , 0 , 0 , 0 , 0 , 0 , 0 , 0 , 0 , 0 , 0 | 0xff000022:  143 ,   95 ,   42 ,  235 ,  248 ,  255 ,  244 ,  255 ,   12 ,    0 ,   81 ,    0 ,  226 ,   30 ,  160 ,    5 ,  179 ,  155 ,  220 ,  213 ,    8 ,  128 ,    0 ,    0 ,    0 ,  128 ,    0 ,    0 ,    0 ,    0 ,    9 ,    9 ,    0 ,    0 ,    0 ,    0 ,    0 ,   80 ,  183 ,  220 ,  213 ,   40 ,    8 ,    0 ,   30 ,  115 ,  118 ,   32 ,   96 ,  137 ,  216 ,  181 
E: 000000.320748 64 01 83 80 81 7f 00 00 b2 02 00 00 00 8f 5f 2a eb f8 ff f4 ff 0c 00 51 00 e2 1e a0 05 b3 9b dc d5 08 80 00 00 00 80 00 00 00 00 09 09 00 00 00 00 00 50 b7 dc d5 28 08 00 1e 73 76 20 60 89 d8 b5
# ReportID: 1 / X:  131 | Y:  128 | Z:  129 | Rz:  127 | Rx:    0 | Ry:    0 | 0xff000020:  179 | Hat switch:   2 | Button: 0  0  0  0  0  0  0  0  0  0  0  0  0  0  0 | 0xff000021: 0 , 0 , 0 , 0 , 0 , 0 , 0 , 0 , 0 , 0 , 0 , 0 , 0 | 0xff000022:  144 ,   95 ,   42 ,  235 ,  243 ,  255 ,  242 ,  255 ,   15 ,    0 ,   70 ,    0 ,  236 ,   31 ,  217 ,    4 ,  166 ,  202 ,  220 ,  213 ,    8 ,  128 ,    0 ,    0 ,    0 ,  128 ,    0 ,    0 ,    0 ,    0 ,    9 ,    9 ,    0 ,    0 ,    0 ,    0 ,    0 ,   48 ,  230 ,  220 ,  213 ,   40 ,    8 ,    0 ,   30 ,  109 ,  210 ,    5 ,  220 ,   37 ,  113 ,   22 
E: 000000.326380 64 01 83 80 81 7f 00 00 b3 02 00 00 00 90 5f 2a eb f3 ff f2 ff 0f 00 46 00 ec 1f d9 04 a6 ca dc d5 08 80 00 00 00 80 00 00 00 00 09 09 00 00 00 00 00 30 e6 dc d5 28 08 00 1e 6d d2 05 dc 25 71 16
# ReportID: 1 / X:  131 | Y:  128 | Z:  129 | Rz:  127 | Rx:    0 | Ry:    0 | 0xff000020:  180 | Hat switch:   2 | Button: 0  0  0  0  0  0  0  0  0  0  0  0  0  0  0 | 0xff000021: 0 , 0 , 0 , 0 , 0 , 0 , 0 , 0 , 0 , 0 , 0 , 0 , 0 | 0xff000022:  145 ,   95 ,   42 ,  235 ,  247 ,  255 ,  240 ,  255 ,   10 ,    0 ,   70 ,    0 ,   85 ,   31 ,   31 ,    5 ,  153 ,  249 ,  220 ,  213 ,    8 ,  128 ,    0 ,    0 ,    0 ,  128 ,    0 ,    0 ,    0 ,    0 ,    9 ,    9 ,    0 ,    0 ,    0 ,    0 ,    0 ,   16 ,   21 ,  221 ,  213 ,   40 ,    8 ,    0 ,  192 ,  201 ,  148 ,   96 ,  129 ,  166 ,  130 ,   82 
E: 000000.329522 64 01 83 80 81 7f 00 00 b4 02 00 00 00 91 5f 2a eb f7 ff f0 ff 0a 00 46 00 55 1f 1f 05 99 f9 dc d5 08 80 00 00 00 80 00 00 00 00 09 09 00 00 00 00 00 10 15 dd d5 28 08 00 c0 c9 94 60 81 a6 82 52
# ReportID: 1 / X:  131 | Y:  128 | Z:  129 | Rz:  127 | Rx:    0 | Ry:    0 | 0xff000020:  181 | Hat switch:   2 | Button: 0  0  0  0  0  0  0  0  0  0  0  0  0  0  0 | 0xff000021: 0 , 0 , 0 , 0 , 0 , 0 , 0 , 0 , 0 , 0 , 0 , 0 , 0 | 0xff000022:  146 ,   95 ,   42 ,  235 ,  246 ,  255 ,  239 ,  255 ,   11 ,    0 ,   40 ,    0 ,   47 ,   31 ,   51 ,    5 ,  140 ,   40 ,  221 ,  213 ,    8 ,  128 ,    0 ,    0 ,    0 ,  128 ,    0 ,    0 ,    0 ,    0 ,    9 ,    9 ,    0 ,    0 ,    0 ,    0 ,    0 ,  240 ,   67 ,  221 ,  213 ,   40 ,    8 ,    0 ,  196 ,  126 ,  205 ,  158 ,   29 ,  123 ,  235 ,  118 
E: 000000.333320 64 01 83 80 81 7f 00 00 b5 02 00 00 00 92 5f 2a eb f6 ff ef ff 0b 00 28 00 2f 1f 33 05 8c 28 dd d5 08 80 00 00 00 80 00 00 00 00 09 09 00 00 00 00 00 f0 43 dd d5 28 08 00 c4 7e cd 9e 1d 7b eb 76
# ReportID: 1 / X:  131 | Y:  128 | Z:  129 | Rz:  127 | Rx:    0 | Ry:    0 | 0xff000020:  182 | Hat switch:   2 | Button: 0  0  0  0  0  0  0  0  0  0  0  0  0  0  0 | 0xff000021: 0 , 0 , 0 , 0 , 0 , 0 , 0 , 0 , 0 , 0 , 0 , 0 , 0 | 0xff000022:  147 ,   95 ,   42 ,  235 ,  247 ,  255 ,  238 ,  255 ,   11 ,    0 ,   47 ,    0 ,   64 ,   31 ,   65 ,    5 ,  127 ,   87 ,  221 ,  213 ,    8 ,  128 ,    0 ,    0 ,    0 ,  128 ,    0 ,    0 ,    0 ,    0 ,    9 ,    9 ,    0 ,    0 ,    0 ,    0 ,    0 ,  208 ,  114 ,  221 ,  213 ,   40 ,    8 ,    0 ,  178 ,   15 ,  161 ,  224 ,  221 ,   93 ,  223 ,   14 
E: 000000.336864 64 01 83 80 81 7f 00 00 b6 02 00 00 00 93 5f 2a eb f7 ff ee ff 0b 00 2f 00 40 1f 41 05 7f 57 dd d5 08 80 00 00 00 80 00 00 00 00 09 09 00 00 00 00 00 d0 72 dd d5 28 08 00 b2 0f a1 e0 dd 5d df 0e
# ReportID: 1 / X:  131 | Y:  128 | Z:  129 | Rz:  127 | Rx:    0 | Ry:    0 | 0xff000020:  183 | Hat switch:   2 | Button: 0  0  0  0  0  0  0  0  0  0  0  0  0  0  0 | 0xff000021: 0 , 0 , 0 , 0 , 0 , 0 , 0 , 0 , 0 , 0 , 0 , 0 , 0 | 0xff000022:  148 ,   95 ,   42 ,  235 ,  247 ,  255 ,  241 ,  255 ,   11 ,    0 ,   55 ,    0 ,   54 ,   31 ,   76 ,    5 ,  114 ,  134 ,  221 ,  213 ,    8 ,  128 ,    0 ,    0 ,    0 ,  128 ,    0 ,    0 ,    0 ,    0 ,    9 ,    9 ,    0 ,    0 ,    0 ,    0 ,    0 ,  176 ,  161 ,  221 ,  213 ,   40 ,    8 ,    0 ,   49 ,  163 ,   48 ,   61 ,  170 ,  129 ,  115 ,   18 
E: 000000.340764 64 01 83 80 81 7f 00 00 b7 02 00 00 00 94 5f 2a eb f7 ff f1 ff 0b 00 37 00 36 1f 4c 05 72 86 dd d5 08 80 00 00 00 80 00 00 00 00 09 09 00 00 00 00 00 b0 a1 dd d5 28 08 00 31 a3 30 3d aa 81 73 12
# ReportID: 1 / X:  131 | Y:  128 | Z:  129 | Rz:  127 | Rx:    0 | Ry:    0 | 0xff000020:  184 | Hat switch:   2 | Button: 0  0  0  0  0  0  0  0  0  0  0  0  0  0  0 | 0xff000021: 0 , 0 , 0 , 0 , 0 , 0 , 0 , 0 , 0 , 0 , 0 , 0 , 0 | 0xff000022:  149 ,   95 ,   42 ,  235 ,  245 ,  255 ,  240 ,  255 ,   12 ,    0 ,   83 ,    0 ,   93 ,   31 ,   71 ,    5 ,  101 ,  181 ,  221 ,  213 ,    8 ,  128 ,    0 ,    0 ,    0 ,  128 ,    0 ,    0 ,    0 ,    0 ,    9 ,    9 ,    0 ,    0 ,    0 ,    0 ,    0 ,  144 ,  208 ,  221 ,  213 ,   40 ,    8 ,    0 ,   35 ,  141 ,  104 ,  186 ,   62 ,  136 ,  247 ,   41 
E: 000000.344765 64 01 83 80 81 7f 00 00 b8 02 00 00 00 95 5f 2a eb f5 ff f0 ff 0c 00 53 00 5d 1f 47 05 65 b5 dd d5 08 80 00 00 00 80 00 00 00 00 09 09 00 00 00 00 00 90 d0 dd d5 28 08 00 23 8d 68 ba 3e 88 f7 29
# ReportID: 1 / X:  131 | Y:  128 | Z:  129 | Rz:  127 | Rx:    0 | Ry:    0 | 0xff000020:  185 | Hat switch:   2 | Button: 0  0  0  0  0  0  0  0  0  0  0  0  0  0  0 | 0xff000021: 0 , 0 , 0 , 0 , 0 , 0 , 0 , 0 , 0 , 0 , 0 , 0 , 0 | 0xff000022:  150 ,   95 ,   42 ,  235 ,  246 ,  255 ,  239 ,  255 ,   11 ,    0 ,   73 ,    0 ,   49 ,   31 ,   80 ,    5 ,   89 ,  228 ,  221 ,  213 ,    8 ,  128 ,    0 ,    0 ,    0 ,  128 ,    0 ,    0 ,    0 ,    0 ,    9 ,    9 ,    0 ,    0 ,    0 ,    0 ,    0 ,  112 ,  255 ,  221 ,  213 ,   40 ,    8 ,    0 ,  194 ,  158 ,   49 ,    9 ,  183 ,   83 ,    2 ,  226 
E: 000000.349813 64 01 83 80 81 7f 00 00 b9 02 00 00 00 96 5f 2a eb f6 ff ef ff 0b 00 49 00 31 1f 50 05 59 e4 dd d5 08 80 00 00 00 80 00 00 00 00 09 09 00 00 00 00 00 70 ff dd d5 28 08 00 c2 9e 31 09 b7 53 02 e2
# ReportID: 1 / X:  131 | Y:  128 | Z:  129 | Rz:  127 | Rx:    0 | Ry:    0 | 0xff000020:  186 | Hat switch:   2 | Button: 0  0  0  0  0  0  0  0  0  0  0  0  0  0  0 | 0xff000021: 0 , 0 , 0 , 0 , 0 , 0 , 0 , 0 , 0 , 0 , 0 , 0 , 0 | 0xff000022:  151 ,   95 ,   42 ,  235 ,  249 ,  255 ,  238 ,  255 ,   11 ,    0 ,   47 ,    0 ,  143 ,   31 ,   23 ,    5 ,   76 ,   19 ,  222 ,  213 ,    8 ,  128 ,    0 ,    0 ,    0 ,  128 ,    0 ,    0 ,    0 ,    0 ,    9 ,    9 ,    0 ,    0 ,    0 ,    0 ,    0 ,   80 ,   46 ,  222 ,  213 ,   40 ,    8 ,    0 ,  156 ,   83 ,  121 ,  203 ,  126 ,  162 ,  166 ,  209 
E: 000000.353457 64 01 83 80 81 7f 00 00 ba 02 00 00 00 97 5f 2a eb f9 ff ee ff 0b 00 2f 00 8f 1f 17 05 4c 13 de d5 08 80 00 00 00 80 00 00 00 00 09 09 00 00 00 00 00 50 2e de d5 28 08 00 9c 53 79 cb 7e a2 a6 d1
# ReportID: 1 / X:  131 | Y:  128 | Z:  130 | Rz:  127 | Rx:    0 | Ry:    0 | 0xff000020:  187 | Hat switch:   2 | Button: 0  0  0  0  0  0  0  0  0  0  0  0  0  0  0 | 0xff000021: 0 , 0 , 0 , 0 , 0 , 0 , 0 , 0 , 0 , 0 , 0 , 0 , 0 | 0xff000022:  152 ,   95 ,   42 ,  235 ,  247 ,  255 ,  238 ,  255 ,   10 ,    0 ,   24 ,    0 ,  113 ,   31 ,    8 ,    5 ,   63 ,   66 ,  222 ,  213 ,    8 ,  128 ,    0 ,    0 ,    0 ,  128 ,    0 ,    0 ,    0 ,    0 ,    9 ,    9 ,    0 ,    0 ,    0 ,    0 ,    0 ,   48 ,   93 ,  222 ,  213 ,   40 ,    8 ,    0 ,  112 ,  214 ,   23 ,   78 ,   29 ,  178 ,  161 ,   21 
E: 000000.356911 64 01 83 80 82 7f 00 00 bb 02 00 00 00 98 5f 2a eb f7 ff ee ff 0a 00 18 00 71 1f 08 05 3f 42 de d5 08 80 00 00 00 80 00 00 00 00 09 09 00 00 00 00 00 30 5d de d5 28 08 00 70 d6 17 4e 1d b2 a1 15
# ReportID: 1 / X:  131 | Y:  128 | Z:  129 | Rz:  127 | Rx:    0 | Ry:    0 | 0xff000020:  188 | Hat switch:   2 | Button: 0  0  0  0  0  0  0  0  0  0  0  0  0  0  0 | 0xff000021: 0 , 0 , 0 , 0 , 0 , 0 , 0 , 0 , 0 , 0 , 0 , 0 , 0 | 0xff000022:  153 ,   95 ,   42 ,  235 ,  248 ,  255 ,  237 ,  255 ,   11 ,    0 ,   48 ,    0 ,  119 ,   31 ,   49 ,    5 ,   50 ,  113 ,  222 ,  213 ,    8 ,  128 ,    0 ,    0 ,    0 ,  128 ,    0 ,    0 ,    0 ,    0 ,    9 ,    9 ,    0 ,    0 ,    0 ,    0 ,    0 ,   16 ,  140 ,  222 ,  213 ,   40 ,    8 ,    0 ,  251 ,  238 ,   67 ,  139 ,  109 ,   92 ,  213 ,  195 
E: 000000.362572 64 01 83 80 81 7f 00 00 bc 02 00 00 00 99 5f 2a eb f8 ff ed ff 0b 00 30 00 77 1f 31 05 32 71 de d5 08 80 00 00 00 80 00 00 00 00 09 09 00 00 00 00 00 10 8c de d5 28 08 00 fb ee 43 8b 6d 5c d5 c3
# ReportID: 1 / X:  131 | Y:  128 | Z:  129 | Rz:  127 | Rx:    0 | Ry:    0 | 0xff000020:  189 | Hat switch:   2 | Button: 0  0  0  0  0  0  0  0  0  0  0  0  0  0  0 | 0xff000021: 0 , 0 , 0 , 0 , 0 , 0 , 0 , 0 , 0 , 0 , 0 , 0 , 0 | 0xff000022:  154 ,   95 ,   42 ,  235 ,  246 ,  255 ,  238 ,  255 ,   12 ,    0 ,   53 ,    0 ,  107 ,   31 ,   38 ,    5 ,   37 ,  160 ,  222 ,  213 ,    8 ,  128 ,    0 ,    0 ,    0 ,  128 ,    0 ,    0 ,    0 ,    0 ,    9 ,    9 ,    0 ,    0 ,    0 ,    0 ,    0 ,  240 ,  186 ,  222 ,  213 ,   40 ,    8 ,    0 ,   72 ,  149 ,  230 ,  228 ,  202 ,  182 ,  163 ,   93 
E: 000000.365589 64 01 83 80 81 7f 00 00 bd 02 00 00 00 9a 5f 2a eb f6 ff ee ff 0c 00 35 00 6b 1f 26 05 25 a0 de d5 08 80 00 00 00 80 00 00 00 00 09 09 00 00 00 00 00 f0 ba de d5 28 08 00 48 95 e6 e4 ca b6 a3 5d
# ReportID: 1 / X:  131 | Y:  128 | Z:  130 | Rz:  127 | Rx:    0 | Ry:    0 | 0xff000020:  190 | Hat switch:   2 | Button: 0  0  0  0  0  0  0  0  0  0  0  0  0  0  0 | 0xff000021: 0 , 0 , 0 , 0 , 0 , 0 , 0 , 0 , 0 , 0 , 0 , 0 , 0 | 0xff000022:  155 ,   95 ,   42 ,  235 ,  246 ,  255 ,  238 ,  255 ,   10 ,    0 ,   36 ,    0 ,   96 ,   31 ,   20 ,    5 ,   24 ,  207 ,  222 ,  213 ,    8 ,  128 ,    0 ,    0 ,    0 ,  128 ,    0 ,    0 ,    0 ,    0 ,    9 ,    9 ,    0 ,    0 ,    0 ,    0 ,    0 ,  208 ,  233 ,  222 ,  213 ,   40 ,    8 ,    0 ,  248 ,  251 ,  236 ,  248 ,   45 ,   14 ,   58 ,  102 
E: 000000.369208 64 01 83 80 82 7f 00 00 be 02 00 00 00 9b 5f 2a eb f6 ff ee ff 0a 00 24 00 60 1f 14 05 18 cf de d5 08 80 00 00 00 80 00 00 00 00 09 09 00 00 00 00 00 d0 e9 de d5 28 08 00 f8 fb ec f8 2d 0e 3a 66
# ReportID: 1 / X:  131 | Y:  128 | Z:  129 | Rz:  127 | Rx:    0 | Ry:    0 | 0xff000020:  191 | Hat switch:   2 | Button: 0  0  0  0  0  0  0  0  0  0  0  0  0  0  0 | 0xff000021: 0 , 0 , 0 , 0 , 0 , 0 , 0 , 0 , 0 , 0 , 0 , 0 , 0 | 0xff000022:  156 ,   95 ,   42 ,  235 ,  247 ,  255 ,  237 ,  255 ,   11 ,    0 ,   43 ,    0 ,   89 ,   31 ,   25 ,    5 ,   11 ,  254 ,  222 ,  213 ,    8 ,  128 ,    0 ,    0 ,    0 ,  128 ,    0 ,    0 ,    0 ,    0 ,    9 ,    9 ,    0 ,    0 ,    0 ,    0 ,    0 ,  176 ,   24 ,  223 ,  213 ,   40 ,    8 ,    0 ,  145 ,  172 ,  176 ,  214 ,  157 ,   99 ,  105 ,  202 
E: 000000.372765 64 01 83 80 81 7f 00 00 bf 02 00 00 00 9c 5f 2a eb f7 ff ed ff 0b 00 2b 00 59 1f 19 05 0b fe de d5 08 80 00 00 00 80 00 00 00 00 09 09 00 00 00 00 00 b0 18 df d5 28 08 00 91 ac b0 d6 9d 63 69 ca
# ReportID: 1 / X:  131 | Y:  128 | Z:  129 | Rz:  127 | Rx:    0 | Ry:    0 | 0xff000020:  192 | Hat switch:   2 | Button: 0  0  0  0  0  0  0  0  0  0  0  0  0  0  0 | 0xff000021: 0 , 0 , 0 , 0 , 0 , 0 , 0 , 0 , 0 , 0 , 0 , 0 , 0 | 0xff000022:  157 ,   95 ,   42 ,  235 ,  246 ,  255 ,  238 ,  255 ,   11 ,    0 ,   48 ,    0 ,   75 ,   31 ,   26 ,    5 ,  254 ,   44 ,  223 ,  213 ,    8 ,  128 ,    0 ,    0 ,    0 ,  128 ,    0 ,    0 ,    0 ,    0 ,    9 ,    9 ,    0 ,    0 ,    0 ,    0 ,    0 ,  144 ,   71 ,  223 ,  213 ,   40 ,    8 ,    0 ,  165 ,   19 ,   16 ,  206 ,  153 ,  180 ,  121 ,  165 
E: 000000.376681 64 01 83 80 81 7f 00 00 c0 02 00 00 00 9d 5f 2a eb f6 ff ee ff 0b 00 30 00 4b 1f 1a 05 fe 2c df d5 08 80 00 00 00 80 00 00 00 00 09 09 00 00 00 00 00 90 47 df d5 28 08 00 a5 13 10 ce 99 b4 79 a5
# ReportID: 1 / X:  131 | Y:  128 | Z:  129 | Rz:  127 | Rx:    0 | Ry:    0 | 0xff000020:  193 | Hat switch:   2 | Button: 0  0  0  0  0  0  0  0  0  0  0  0  0  0  0 | 0xff000021: 0 , 0 , 0 , 0 , 0 , 0 , 0 , 0 , 0 , 0 , 0 , 0 , 0 | 0xff000022:  158 ,   95 ,   42 ,  235 ,  246 ,  255 ,  238 ,  255 ,   10 ,    0 ,   48 ,    0 ,   96 ,   31 ,    7 ,    5 ,  241 ,   91 ,  223 ,  213 ,    8 ,  128 ,    0 ,    0 ,    0 ,  128 ,    0 ,    0 ,    0 ,    0 ,    9 ,    9 ,    0 ,    0 ,    0 ,    0 ,    0 ,  112 ,  118 ,  223 ,  213 ,   40 ,    8 ,    0 ,   99 ,  184 ,   55 ,   26 ,  215 ,    4 ,  141 ,    7 
E: 000000.382391 64 01 83 80 81 7f 00 00 c1 02 00 00 00 9e 5f 2a eb f6 ff ee ff 0a 00 30 00 60 1f 07 05 f1 5b df d5 08 80 00 00 00 80 00 00 00 00 09 09 00 00 00 00 00 70 76 df d5 28 08 00 63 b8 37 1a d7 04 8d 07
# ReportID: 1 / X:  131 | Y:  128 | Z:  129 | Rz:  127 | Rx:    0 | Ry:    0 | 0xff000020:  194 | Hat switch:   2 | Button: 0  0  0  0  0  0  0  0  0  0  0  0  0  0  0 | 0xff000021: 0 , 0 , 0 , 0 , 0 , 0 , 0 , 0 , 0 , 0 , 0 , 0 , 0 | 0xff000022:  159 ,   95 ,   42 ,  235 ,  245 ,  255 ,  238 ,  255 ,   11 ,    0 ,   39 ,    0 ,   72 ,   31 ,   24 ,    5 ,  228 ,  138 ,  223 ,  213 ,    8 ,  128 ,    0 ,    0 ,    0 ,  128 ,    0 ,    0 ,    0 ,    0 ,    9 ,    9 ,    0 ,    0 ,    0 ,    0 ,    0 ,   80 ,  165 ,  223 ,  213 ,   40 ,    8 ,    0 ,   16 ,   57 ,  235 ,   14 ,  252 ,   47 ,  211 ,  227 
E: 000000.385495 64 01 83 80 81 7f 00 00 c2 02 00 00 00 9f 5f 2a eb f5 ff ee ff 0b 00 27 00 48 1f 18 05 e4 8a df d5 08 80 00 00 00 80 00 00 00 00 09 09 00 00 00 00 00 50 a5 df d5 28 08 00 10 39 eb 0e fc 2f d3 e3
# ReportID: 1 / X:  131 | Y:  128 | Z:  129 | Rz:  127 | Rx:    0 | Ry:    0 | 0xff000020:  195 | Hat switch:   2 | Button: 0  0  0  0  0  0  0  0  0  0  0  0  0  0  0 | 0xff000021: 0 , 0 , 0 , 0 , 0 , 0 , 0 , 0 , 0 , 0 , 0 , 0 , 0 | 0xff000022:  160 ,   95 ,   42 ,  235 ,  245 ,  255 ,  238 ,  255 ,   11 ,    0 ,   48 ,    0 ,   89 ,   31 ,   46 ,    5 ,  216 ,  185 ,  223 ,  213 ,    8 ,  128 ,    0 ,    0 ,    0 ,  128 ,    0 ,    0 ,    0 ,    0 ,    9 ,    9 ,    0 ,    0 ,    0 ,    0 ,    0 ,   48 ,  212 ,  223 ,  213 ,   40 ,    8 ,    0 ,   19 ,  177 ,   44 ,   25 ,  130 ,  221 ,  171 ,   75 
E: 000000.388720 64 01 83 80 81 7f 00 00 c3 02 00 00 00 a0 5f 2a eb f5 ff ee ff 0b 00 30 00 59 1f 2e 05 d8 b9 df d5 08 80 00 00 00 80 00 00 00 00 09 09 00 00 00 00 00 30 d4 df d5 28 08 00 13 b1 2c 19 82 dd ab 4b
# ReportID: 1 / X:  131 | Y:  128 | Z:  129 | Rz:  127 | Rx:    0 | Ry:    0 | 0xff000020:  196 | Hat switch:   2 | Button: 0  0  0  0  0  0  0  0  0  0  0  0  0  0  0 | 0xff000021: 0 , 0 , 0 , 0 , 0 , 0 , 0 , 0 , 0 , 0 , 0 , 0 , 0 | 0xff000022:  161 ,   95 ,   42 ,  235 ,  246 ,  255 ,  238 ,  255 ,   10 ,    0 ,   64 ,    0 ,   74 ,   31 ,   52 ,    5 ,  203 ,  232 ,  223 ,  213 ,    8 ,  128 ,    0 ,    0 ,    0 ,  128 ,    0 ,    0 ,    0 ,    0 ,    9 ,    9 ,    0 ,    0 ,    0 ,    0 ,    0 ,   16 ,    3 ,  224 ,  213 ,   40 ,    8 ,    0 ,  105 ,   18 ,  202 ,  213 ,   49 ,  206 ,  151 ,  220 
E: 000000.394419 64 01 83 80 81 7f 00 00 c4 02 00 00 00 a1 5f 2a eb f6 ff ee ff 0a 00 40 00 4a 1f 34 05 cb e8 df d5 08 80 00 00 00 80 00 00 00 00 09 09 00 00 00 00 00 10 03 e0 d5 28 08 00 69 12 ca d5 31 ce 97 dc
# ReportID: 1 / X:  131 | Y:  128 | Z:  129 | Rz:  127 | Rx:    0 | Ry:    0 | 0xff000020:  197 | Hat switch:   2 | Button: 0  0  0  0  0  0  0  0  0  0  0  0  0  0  0 | 0xff000021: 0 , 0 , 0 , 0 , 0 , 0 , 0 , 0 , 0 , 0 , 0 , 0 , 0 | 0xff000022:  162 ,   95 ,   42 ,  235 ,  246 ,  255 ,  238 ,  255 ,   11 ,    0 ,   58 ,    0 ,   98 ,   31 ,   54 ,    5 ,  190 ,   23 ,  224 ,  213 ,    8 ,  128 ,    0 ,    0 ,    0 ,  128 ,    0 ,    0 ,    0 ,    0 ,    9 ,    9 ,    0 ,    0 ,    0 ,    0 ,    0 ,  240 ,   49 ,  224 ,  213 ,   40 ,    8 ,    0 ,   95 ,  201 ,   72 ,  240 ,   85 ,  176 ,  168 ,   81 
E: 000000.397626 64 01 83 80 81 7f 00 00 c5 02 00 00 00 a2 5f 2a eb f6 ff ee ff 0b 00 3a 00 62 1f 36 05 be 17 e0 d5 08 80 00 00 00 80 00 00 00 00 09 09 00 00 00 00 00 f0 31 e0 d5 28 08 00 5f c9 48 f0 55 b0 a8 51
# ReportID: 1 / X:  131 | Y:  128 | Z:  129 | Rz:  127 | Rx:    0 | Ry:    0 | 0xff000020:  198 | Hat switch:   2 | Button: 0  0  0  0  0  0  0  0  0  0  0  0  0  0  0 | 0xff000021: 0 , 0 , 0 , 0 , 0 , 0 , 0 , 0 , 0 , 0 , 0 , 0 , 0 | 0xff000022:  163 ,   95 ,   42 ,  235 ,  245 ,  255 ,  238 ,  255 ,   10 ,    0 ,   57 ,    0 ,   88 ,   31 ,   61 ,    5 ,  177 ,   70 ,  224 ,  213 ,    8 ,  128 ,    0 ,    0 ,    0 ,  128 ,    0 ,    0 ,    0 ,    0 ,    9 ,    9 ,    0 ,    0 ,    0 ,    0 ,    0 ,  208 ,   96 ,  224 ,  213 ,   40 ,    8 ,    0 ,  239 ,  126 ,  234 ,  250 ,  152 ,   66 ,  123 ,   12 
E: 000000.401629 64 01 83 80 81 7f 00 00 c6 02 00 00 00 a3 5f 2a eb f5 ff ee ff 0a 00 39 00 58 1f 3d 05 b1 46 e0 d5 08 80 00 00 00 80 00 00 00 00 09 09 00 00 00 00 00 d0 60 e0 d5 28 08 00 ef 7e ea fa 98 42 7b 0c
# ReportID: 1 / X:  131 | Y:  128 | Z:  129 | Rz:  127 | Rx:    0 | Ry:    0 | 0xff000020:  199 | Hat switch:   2 | Button: 0  0  0  0  0  0  0  0  0  0  0  0  0  0  0 | 0xff000021: 0 , 0 , 0 , 0 , 0 , 0 , 0 , 0 , 0 , 0 , 0 , 0 , 0 | 0xff000022:  164 ,   95 ,   42 ,  235 ,  246 ,  255 ,  238 ,  255 ,   11 ,    0 ,   61 ,    0 ,  108 ,   31 ,   66 ,    5 ,  164 ,  117 ,  224 ,  213 ,    8 ,  128 ,    0 ,    0 ,    0 ,  128 ,    0 ,    0 ,    0 ,    0 ,    9 ,    9 ,    0 ,    0 ,    0 ,    0 ,    0 ,  176 ,  143 ,  224 ,  213 ,   40 ,    8 ,    0 ,  177 ,  205 ,  135 ,  183 ,   36 ,   40 ,  189 ,  138 
E: 000000.405227 64 01 83 80 81 7f 00 00 c7 02 00 00 00 a4 5f 2a eb f6 ff ee ff 0b 00 3d 00 6c 1f 42 05 a4 75 e0 d5 08 80 00 00 00 80 00 00 00 00 09 09 00 00 00 00 00 b0 8f e0 d5 28 08 00 b1 cd 87 b7 24 28 bd 8a
# ReportID: 1 / X:  131 | Y:  128 | Z:  129 | Rz:  127 | Rx:    0 | Ry:    0 | 0xff000020:  200 | Hat switch:   2 | Button: 0  0  0  0  0  0  0  0  0  0  0  0  0  0  0 | 0xff000021: 0 , 0 , 0 , 0 , 0 , 0 , 0 , 0 , 0 , 0 , 0 , 0 , 0 | 0xff000022:  165 ,   95 ,   42 ,  235 ,  245 ,  255 ,  237 ,  255 ,   10 ,    0 ,   52 ,    0 ,   92 ,   31 ,   68 ,    5 ,  151 ,  164 ,  224 ,  213 ,    8 ,  128 ,    0 ,    0 ,    0 ,  128 ,    0 ,    0 ,    0 ,    0 ,    9 ,    9 ,    0 ,    0 ,    0 ,    0 ,    0 ,  144 ,  190 ,  224 ,  213 ,   40 ,    8 ,    0 ,  253 ,   74 ,  125 ,  171 ,  140 ,   77 ,  237 ,  227 
E: 000000.410404 64 01 83 80 81 7f 00 00 c8 02 00 00 00 a5 5f 2a eb f5 ff ed ff 0a 00 34 00 5c 1f 44 05 97 a4 e0 d5 08 80 00 00 00 80 00 00 00 00 09 09 00 00 00 00 00 90 be e0 d5 28 08 00 fd 4a 7d ab 8c 4d ed e3
# ReportID: 1 / X:  131 | Y:  128 | Z:  130 | Rz:  127 | Rx:    0 | Ry:    0 | 0xff000020:  201 | Hat switch:   2 | Button: 0  0  0  0  0  0  0  0  0  0  0  0  0  0  0 | 0xff000021: 0 , 0 , 0 , 0 , 0 , 0 , 0 , 0 , 0 , 0 , 0 , 0 , 0 | 0xff000022:  166 ,   95 ,   42 ,  235 ,  246 ,  255 ,  238 ,  255 ,   11 ,    0 ,   53 ,    0 ,   95 ,   31 ,   72 ,    5 ,  138 ,  211 ,  224 ,  213 ,    8 ,  128 ,    0 ,    0 ,    0 ,  128 ,    0 ,    0 ,    0 ,    0 ,    9 ,    9 ,    0 ,    0 ,    0 ,    0 ,    0 ,  112 ,  237 ,  224 ,  213 ,   40 ,    8 ,    0 ,  171 ,   16 ,  224 ,   18 ,  184 ,  186 ,    8 ,  126 
E: 000000.413346 64 01 83 80 82 7f 00 00 c9 02 00 00 00 a6 5f 2a eb f6 ff ee ff 0b 00 35 00 5f 1f 48 05 8a d3 e0 d5 08 80 00 00 00 80 00 00 00 00 09 09 00 00 00 00 00 70 ed e0 d5 28 08 00 ab 10 e0 12 b8 ba 08 7e
# ReportID: 1 / X:  131 | Y:  128 | Z:  129 | Rz:  127 | Rx:    0 | Ry:    0 | 0xff000020:  202 | Hat switch:   2 | Button: 0  0  0  0  0  0  0  0  0  0  0  0  0  0  0 | 0xff000021: 0 , 0 , 0 , 0 , 0 , 0 , 0 , 0 , 0 , 0 , 0 , 0 , 0 | 0xff000022:  167 ,   95 ,   42 ,  235 ,  246 ,  255 ,  239 ,  255 ,   10 ,    0 ,   59 ,    0 ,   96 ,   31 ,   69 ,    5 ,  125 ,    2 ,  225 ,  213 ,    8 ,  128 ,    0 ,    0 ,    0 ,  128 ,    0 ,    0 ,    0 ,    0 ,    9 ,    9 ,    0 ,    0 ,    0 ,    0 ,    0 ,   80 ,   28 ,  225 ,  213 ,   40 ,    8 ,    0 ,  131 ,  200 ,   57 ,  201 ,  154 ,    1 ,   92 ,  151 
E: 000000.416729 64 01 83 80 81 7f 00 00 ca 02 00 00 00 a7 5f 2a eb f6 ff ef ff 0a 00 3b 00 60 1f 45 05 7d 02 e1 d5 08 80 00 00 00 80 00 00 00 00 09 09 00 00 00 00 00 50 1c e1 d5 28 08 00 83 c8 39 c9 9a 01 5c 97
# ReportID: 1 / X:  131 | Y:  128 | Z:  129 | Rz:  127 | Rx:    0 | Ry:    0 | 0xff000020:  203 | Hat switch:   2 | Button: 0  0  0  0  0  0  0  0  0  0  0  0  0  0  0 | 0xff000021: 0 , 0 , 0 , 0 , 0 , 0 , 0 , 0 , 0 , 0 , 0 , 0 , 0 | 0xff000022:  168 ,   95 ,   42 ,  235 ,  246 ,  255 ,  238 ,  255 ,   11 ,    0 ,   56 ,    0 ,   76 ,   31 ,   73 ,    5 ,  112 ,   49 ,  225 ,  213 ,    8 ,  128 ,    0 ,    0 ,    0 ,  128 ,    0 ,    0 ,    0 ,    0 ,    9 ,    9 ,    0 ,    0 ,    0 ,    0 ,    0 ,   48 ,   75 ,  225 ,  213 ,   40 ,    8 ,    0 ,    2 ,   95 ,  223 ,   44 ,   37 ,   77 ,   72 ,  137 
E: 000000.422555 64 01 83 80 81 7f 00 00 cb 02 00 00 00 a8 5f 2a eb f6 ff ee ff 0b 00 38 00 4c 1f 49 05 70 31 e1 d5 08 80 00 00 00 80 00 00 00 00 09 09 00 00 00 00 00 30 4b e1 d5 28 08 00 02 5f df 2c 25 4d 48 89
# ReportID: 1 / X:  131 | Y:  128 | Z:  129 | Rz:  127 | Rx:    0 | Ry:    0 | 0xff000020:  204 | Hat switch:   2 | Button: 0  0  0  0  0  0  0  0  0  0  0  0  0  0  0 | 0xff000021: 0 , 0 , 0 , 0 , 0 , 0 , 0 , 0 , 0 , 0 , 0 , 0 , 0 | 0xff000022:  169 ,   95 ,   42 ,  235 ,  244 ,  255 ,  238 ,  255 ,   10 ,    0 ,   51 ,    0 ,   79 ,   31 ,   66 ,    5 ,   99 ,   96 ,  225 ,  213 ,    8 ,  128 ,    0 ,    0 ,    0 ,  128 ,    0 ,    0 ,    0 ,    0 ,    9 ,    9 ,    0 ,    0 ,    0 ,    0 ,    0 ,   16 ,  122 ,  225 ,  213 ,   40 ,    8 ,    0 ,  231 ,  169 ,  158 ,  163 ,  184 ,  222 ,  118 ,  238 
E: 000000.425506 64 01 83 80 81 7f 00 00 cc 02 00 00 00 a9 5f 2a eb f4 ff ee ff 0a 00 33 00 4f 1f 42 05 63 60 e1 d5 08 80 00 00 00 80 00 00 00 00 09 09 00 00 00 00 00 10 7a e1 d5 28 08 00 e7 a9 9e a3 b8 de 76 ee
