# Sony Interactive Entertainment DualSense Wireless Controller
# 0x05, 0x01,                    // Usage Page (Generic Desktop)        0
# 0x09, 0x05,                    // Usage (Game Pad)                    2
# 0xa1, 0x01,                    // Collection (Application)            4
# 0x85, 0x01,                    //  Report ID (1)                      6
# 0x09, 0x30,                    //  Usage (X)                          8
# 0x09, 0x31,                    //  Usage (Y)                          10
# 0x09, 0x32,                    //  Usage (Z)                          12
# 0x09, 0x35,                    //  Usage (Rz)                         14
# 0x09, 0x33,                    //  Usage (Rx)                         16
# 0x09, 0x34,                    //  Usage (Ry)                         18
# 0x15, 0x00,                    //  Logical Minimum (0)                20
# 0x26, 0xff, 0x00,              //  Logical Maximum (255)              22
# 0x75, 0x08,                    //  Report Size (8)                    25
# 0x95, 0x06,                    //  Report Count (6)                   27
# 0x81, 0x02,                    //  Input (Data,Var,Abs)               29
# 0x06, 0x00, 0xff,              //  Usage Page (Vendor Defined Page 1) 31
# 0x09, 0x20,                    //  Usage (Vendor Usage 0x20)          34
# 0x95, 0x01,                    //  Report Count (1)                   36
# 0x81, 0x02,                    //  Input (Data,Var,Abs)               38
# 0x05, 0x01,                    //  Usage Page (Generic Desktop)       40
# 0x09, 0x39,                    //  Usage (Hat switch)                 42
# 0x15, 0x00,                    //  Logical Minimum (0)                44
# 0x25, 0x07,                    //  Logical Maximum (7)                46
# 0x35, 0x00,                    //  Physical Minimum (0)               48
# 0x46, 0x3b, 0x01,              //  Physical Maximum (315)             50
# 0x65, 0x14,                    //  Unit (EnglishRotation: deg)        53
# 0x75, 0x04,                    //  Report Size (4)                    55
# 0x95, 0x01,                    //  Report Count (1)                   57
# 0x81, 0x42,                    //  Input (Data,Var,Abs,Null)          59
# 0x65, 0x00,                    //  Unit (None)                        61
# 0x05, 0x09,                    //  Usage Page (Button)                63
# 0x19, 0x01,                    //  Usage Minimum (1)                  65
# 0x29, 0x0f,                    //  Usage Maximum (15)                 67
# 0x15, 0x00,                    //  Logical Minimum (0)                69
# 0x25, 0x01,                    //  Logical Maximum (1)                71
# 0x75, 0x01,                    //  Report Size (1)                    73
# 0x95, 0x0f,                    //  Report Count (15)                  75
# 0x81, 0x02,                    //  Input (Data,Var,Abs)               77
# 0x06, 0x00, 0xff,              //  Usage Page (Vendor Defined Page 1) 79
# 0x09, 0x21,                    //  Usage (Vendor Usage 0x21)          82
# 0x95, 0x0d,                    //  Report Count (13)                  84
# 0x81, 0x02,                    //  Input (Data,Var,Abs)               86
# 0x06, 0x00, 0xff,              //  Usage Page (Vendor Defined Page 1) 88
# 0x09, 0x22,                    //  Usage (Vendor Usage 0x22)          91
# 0x15, 0x00,                    //  Logical Minimum (0)                93
# 0x26, 0xff, 0x00,              //  Logical Maximum (255)              95
# 0x75, 0x08,                    //  Report Size (8)                    98
# 0x95, 0x34,                    //  Report Count (52)                  100
# 0x81, 0x02,                    //  Input (Data,Var,Abs)               102
# 0x85, 0x02,                    //  Report ID (2)                      104
# 0x09, 0x23,                    //  Usage (Vendor Usage 0x23)          106
# 0x95, 0x2f,                    //  Report Count (47)                  108
# 0x91, 0x02,                    //  Output (Data,Var,Abs)              110
# 0x85, 0x05,                    //  Report ID (5)                      112
# 0x09, 0x33,                    //  Usage (Vendor Usage 0x33)          114
# 0x95, 0x28,                    //  Report Count (40)                  116
# 0xb1, 0x02,                    //  Feature (Data,Var,Abs)             118
# 0x85, 0x08,                    //  Report ID (8)                      120
# 0x09, 0x34,                    //  Usage (Vendor Usage 0x34)          122
# 0x95, 0x2f,                    //  Report Count (47)                  124
# 0xb1, 0x02,                    //  Feature (Data,Var,Abs)             126
# 0x85, 0x09,                    //  Report ID (9)                      128
# 0x09, 0x24,                    //  Usage (Vendor Usage 0x24)          130
# 0x95, 0x13,                    //  Report Count (19)                  132
# 0xb1, 0x02,                    //  Feature (Data,Var,Abs)             134
# 0x85, 0x0a,                    //  Report ID (10)                     136
# 0x09, 0x25,                    //  Usage (Vendor Usage 0x25)          138
# 0x95, 0x1a,                    //  Report Count (26)                  140
# 0xb1, 0x02,                    //  Feature (Data,Var,Abs)             142
# 0x85, 0x20,                    //  Report ID (32)                     144
# 0x09, 0x26,                    //  Usage (Vendor Usage 0x26)          146
# 0x95, 0x3f,                    //  Report Count (63)                  148
# 0xb1, 0x02,                    //  Feature (Data,Var,Abs)             150
# 0x85, 0x21,                    //  Report ID (33)                     152
# 0x09, 0x27,                    //  Usage (Vendor Usage 0x27)          154
# 0x95, 0x04,                    //  Report Count (4)                   156
# 0xb1, 0x02,                    //  Feature (Data,Var,Abs)             158
# 0x85, 0x22,                    //  Report ID (34)                     160
# 0x09, 0x40,                    //  Usage (Vendor Usage 0x40)          162
# 0x95, 0x3f,                    //  Report Count (63)                  164
# 0xb1, 0x02,                    //  Feature (Data,Var,Abs)             166
# 0x85, 0x80,                    //  Report ID (128)                    168
# 0x09, 0x28,                    //  Usage (Vendor Usage 0x28)          170
# 0x95, 0x3f,                    //  Report Count (63)                  172
# 0xb1, 0x02,                    //  Feature (Data,Var,Abs)             174
# 0x85, 0x81,                    //  Report ID (129)                    176
# 0x09, 0x29,                    //  Usage (Vendor Usage 0x29)          178
# 0x95, 0x3f,                    //  Report Count (63)                  180
# 0xb1, 0x02,                    //  Feature (Data,Var,Abs)             182
# 0x85, 0x82,                    //  Report ID (130)                    184
# 0x09, 0x2a,                    //  Usage (Vendor Usage 0x2a)          186
# 0x95, 0x09,                    //  Report Count (9)                   188
# 0xb1, 0x02,                    //  Feature (Data,Var,Abs)             190
# 0x85, 0x83,                    //  Report ID (131)                    192
# 0x09, 0x2b,                    //  Usage (Vendor Usage 0x2b)          194
# 0x95, 0x3f,                    //  Report Count (63)                  196
# 0xb1, 0x02,                    //  Feature (Data,Var,Abs)             198
# 0x85, 0x84,                    //  Report ID (132)                    200
# 0x09, 0x2c,                    //  Usage (Vendor Usage 0x2c)          202
# 0x95, 0x3f,                    //  Report Count (63)                  204
# 0xb1, 0x02,                    //  Feature (Data,Var,Abs)             206
# 0x85, 0x85,                    //  Report ID (133)                    208
# 0x09, 0x2d,                    //  Usage (Vendor Usage 0x2d)          210
# 0x95, 0x02,                    //  Report Count (2)                   212
# 0xb1, 0x02,                    //  Feature (Data,Var,Abs)             214
# 0x85, 0xa0,                    //  Report ID (160)                    216
# 0x09, 0x2e,                    //  Usage (Vendor Usage 0x2e)          218
# 0x95, 0x01,                    //  Report Count (1)                   220
# 0xb1, 0x02,                    //  Feature (Data,Var,Abs)             222
# 0x85, 0xe0,                    //  Report ID (224)                    224
# 0x09, 0x2f,                    //  Usage (Vendor Usage 0x2f)          226
# 0x95, 0x3f,                    //  Report Count (63)                  228
# 0xb1, 0x02,                    //  Feature (Data,Var,Abs)             230
# 0x85, 0xf0,                    //  Report ID (240)                    232
# 0x09, 0x30,                    //  Usage (Vendor Usage 0x30)          234
# 0x95, 0x3f,                    //  Report Count (63)                  236
# 0xb1, 0x02,                    //  Feature (Data,Var,Abs)             238
# 0x85, 0xf1,                    //  Report ID (241)                    240
# 0x09, 0x31,                    //  Usage (Vendor Usage 0x31)          242
# 0x95, 0x3f,                    //  Report Count (63)                  244
# 0xb1, 0x02,                    //  Feature (Data,Var,Abs)             246
# 0x85, 0xf2,                    //  Report ID (242)                    248
# 0x09, 0x32,                    //  Usage (Vendor Usage 0x32)          250
# 0x95, 0x0f,                    //  Report Count (15)                  252
# 0xb1, 0x02,                    //  Feature (Data,Var,Abs)             254
# 0x85, 0xf4,                    //  Report ID (244)                    256
# 0x09, 0x35,                    //  Usage (Vendor Usage 0x35)          258
# 0x95, 0x3f,                    //  Report Count (63)                  260
# 0xb1, 0x02,                    //  Feature (Data,Var,Abs)             262
# 0x85, 0xf5,                    //  Report ID (245)                    264
# 0x09, 0x36,                    //  Usage (Vendor Usage 0x36)          266
# 0x95, 0x03,                    //  Report Count (3)                   268
# 0xb1, 0x02,                    //  Feature (Data,Var,Abs)             270
# 0xc0,                          // End Collection                      272
# 
R: 273 05 01 09 05 a1 01 85 01 09 30 09 31 09 32 09 35 09 33 09 34 15 00 26 ff 00 75 08 95 06 81 02 06 00 ff 09 20 95 01 81 02 05 01 09 39 15 00 25 07 35 00 46 3b 01 65 14 75 04 95 01 81 42 65 00 05 09 19 01 29 0f 15 00 25 01 75 01 95 0f 81 02 06 00 ff 09 21 95 0d 81 02 06 00 ff 09 22 15 00 26 ff 00 75 08 95 34 81 02 85 02 09 23 95 2f 91 02 85 05 09 33 95 28 b1 02 85 08 09 34 95 2f b1 02 85 09 09 24 95 13 b1 02 85 0a 09 25 95 1a b1 02 85 20 09 26 95 3f b1 02 85 21 09 27 95 04 b1 02 85 22 09 40 95 3f b1 02 85 80 09 28 95 3f b1 02 85 81 09 29 95 3f b1 02 85 82 09 2a 95 09 b1 02 85 83 09 2b 95 3f b1 02 85 84 09 2c 95 3f b1 02 85 85 09 2d 95 02 b1 02 85 a0 09 2e 95 01 b1 02 85 e0 09 2f 95 3f b1 02 85 f0 09 30 95 3f b1 02 85 f1 09 31 95 3f b1 02 85 f2 09 32 95 0f b1 02 85 f4 09 35 95 3f b1 02 85 f5 09 36 95 03 b1 02 c0
N: Sony Interactive Entertainment DualSense Wireless Controller
I: 3 054c 0ce6
# ReportID: 1 / X:  129 | Y:  126 | Z:  130 | Rz:  127 | Rx:    0 | Ry:    0 | 0xff000020:  109 | Hat switch:   8 | Button: 0  0  0  0  0  0  0  0  0  0  0  0  0  0  0 | 0xff000021: 0 , 0 , 0 , 0 , 0 , 0 , 0 , 0 , 0 , 0 , 0 , 0 , 0 | 0xff000022:   74 ,   38 ,   42 ,  235 ,  246 ,  255 ,  238 ,  255 ,   11 ,    0 ,   57 ,    0 ,   39 ,   31 ,   44 ,    5 ,  128 ,   36 ,   96 ,  203 ,    8 ,  128 ,    0 ,    0 ,    0 ,  128 ,    0 ,    0 ,    0 ,    0 ,    9 ,    9 ,    0 ,    0 ,    0 ,    0 ,    0 ,  169 ,   64 ,   96 ,  203 ,   40 ,    8 ,    0 ,   37 ,  114 ,   33 ,   11 ,   88 ,   60 ,  213 ,  219 
E: 000000.000000 64 01 81 7e 82 7f 00 00 6d 08 00 00 00 4a 26 2a eb f6 ff ee ff 0b 00 39 00 27 1f 2c 05 80 24 60 cb 08 80 00 00 00 80 00 00 00 00 09 09 00 00 00 00 00 a9 40 60 cb 28 08 00 25 72 21 0b 58 3c d5 db
# ReportID: 1 / X:  129 | Y:  126 | Z:  130 | Rz:  127 | Rx:    0 | Ry:    0 | 0xff000020:  110 | Hat switch:   8 | Button: 0  0  0  0  0  0  0  0  0  0  0  0  0  0  0 | 0xff000021: 0 , 0 , 0 , 0 , 0 , 0 , 0 , 0 , 0 , 0 , 0 , 0 , 0 | 0xff000022:   75 ,   38 ,   42 ,  235 ,  248 ,  255 ,  238 ,  255 ,   10 ,    0 ,   57 ,    0 ,    3 ,   31 ,   33 ,    5 ,  116 ,   83 ,   96 ,  203 ,    8 ,  128 ,    0 ,    0 ,    0 ,  128 ,    0 ,    0 ,    0 ,    0 ,    9 ,    9 ,    0 ,    0 ,    0 ,    0 ,    0 ,  137 ,  111 ,   96 ,  203 ,   40 ,    8 ,    0 ,   63 ,   39 ,   68 ,  121 ,   48 ,   45 ,    8 ,  213 
E: 000000.001004 64 01 81 7e 82 7f 00 00 6e 08 00 00 00 4b 26 2a eb f8 ff ee ff 0a 00 39 00 03 1f 21 05 74 53 60 cb 08 80 00 00 00 80 00 00 00 00 09 09 00 00 00 00 00 89 6f 60 cb 28 08 00 3f 27 44 79 30 2d 08 d5
# ReportID: 1 / X:  129 | Y:  126 | Z:  130 | Rz:  127 | Rx:    0 | Ry:    0 | 0xff000020:  111 | Hat switch:   8 | Button: 0  0  0  0  0  0  0  0  0  0  0  0  0  0  0 | 0xff000021: 0 , 0 , 0 , 0 , 0 , 0 , 0 , 0 , 0 , 0 , 0 , 0 , 0 | 0xff000022:   76 ,   38 ,   42 ,  235 ,  247 ,  255 ,  238 ,  255 ,   10 ,    0 ,   54 ,    0 ,  138 ,   31 ,   62 ,    5 ,  103 ,  130 ,   96 ,  203 ,    8 ,  128 ,    0 ,    0 ,    0 ,  128 ,    0 ,    0 ,    0 ,    0 ,    9 ,    9 ,    0 ,    0 ,    0 ,    0 ,    0 ,  105 ,  158 ,   96 ,  203 ,   40 ,    8 ,    0 ,  147 ,   30 ,   58 ,  155 ,  230 ,  159 ,  243 ,  122 
E: 000000.004889 64 01 81 7e 82 7f 00 00 6f 08 00 00 00 4c 26 2a eb f7 ff ee ff 0a 00 36 00 8a 1f 3e 05 67 82 60 cb 08 80 00 00 00 80 00 00 00 00 09 09 00 00 00 00 00 69 9e 60 cb 28 08 00 93 1e 3a 9b e6 9f f3 7a
# ReportID: 1 / X:  129 | Y:  126 | Z:  130 | Rz:  127 | Rx:    0 | Ry:    0 | 0xff000020:  112 | Hat switch:   8 | Button: 0  0  0  0  0  0  0  0  0  0  0  0  0  0  0 | 0xff000021: 0 , 0 , 0 , 0 , 0 , 0 , 0 , 0 , 0 , 0 , 0 , 0 , 0 | 0xff000022:   77 ,   38 ,   42 ,  235 ,  247 ,  255 ,  237 ,  255 ,   10 ,    0 ,   55 ,    0 ,  154 ,   31 ,   69 ,    5 ,   90 ,  177 ,   96 ,  203 ,    8 ,  128 ,    0 ,    0 ,    0 ,  128 ,    0 ,    0 ,    0 ,    0 ,    9 ,    9 ,    0 ,    0 ,    0 ,    0 ,    0 ,   73 ,  205 ,   96 ,  203 ,   40 ,    8 ,    0 ,    5 ,   50 ,  216 ,    0 ,  228 ,   81 ,  137 ,  173 
E: 000000.008758 64 01 81 7e 82 7f 00 00 70 08 00 00 00 4d 26 2a eb f7 ff ed ff 0a 00 37 00 9a 1f 45 05 5a b1 60 cb 08 80 00 00 00 80 00 00 00 00 09 09 00 00 00 00 00 49 cd 60 cb 28 08 00 05 32 d8 00 e4 51 89 ad
# ReportID: 1 / X:  129 | Y:  126 | Z:  130 | Rz:  127 | Rx:    0 | Ry:    0 | 0xff000020:  113 | Hat switch:   8 | Button: 0  0  0  0  0  0  0  0  0  0  0  0  0  0  0 | 0xff000021: 0 , 0 , 0 , 0 , 0 , 0 , 0 , 0 , 0 , 0 , 0 , 0 , 0 | 0xff000022:   78 ,   38 ,   42 ,  235 ,  248 ,  255 ,  238 ,  255 ,   11 ,    0 ,   50 ,    0 ,   71 ,   31 ,   44 ,    5 ,   77 ,  224 ,   96 ,  203 ,    8 ,  128 ,    0 ,    0 ,    0 ,  128 ,    0 ,    0 ,    0 ,    0 ,    9 ,    9 ,    0 ,    0 ,    0 ,    0 ,    0 ,   41 ,  252 ,   96 ,  203 ,   40 ,    8 ,    0 ,   51 ,  108 ,   98 ,  188 ,  212 ,  205 ,  139 ,  246 
E: 000000.013281 64 01 81 7e 82 7f 00 00 71 08 00 00 00 4e 26 2a eb f8 ff ee ff 0b 00 32 00 47 1f 2c 05 4d e0 60 cb 08 80 00 00 00 80 00 00 00 00 09 09 00 00 00 00 00 29 fc 60 cb 28 08 00 33 6c 62 bc d4 cd 8b f6
# ReportID: 1 / X:  129 | Y:  126 | Z:  130 | Rz:  127 | Rx:    0 | Ry:    0 | 0xff000020:  114 | Hat switch:   8 | Button: 0  0  0  0  0  0  0  0  0  0  0  0  0  0  0 | 0xff000021: 0 , 0 , 0 , 0 , 0 , 0 , 0 , 0 , 0 , 0 , 0 , 0 , 0 | 0xff000022:   79 ,   38 ,   42 ,  235 ,  248 ,  255 ,  239 ,  255 ,   10 ,    0 ,   59 ,    0 ,  102 ,   31 ,   40 ,    5 ,   64 ,   15 ,   97 ,  203 ,    8 ,  128 ,    0 ,    0 ,    0 ,  128 ,    0 ,    0 ,    0 ,    0 ,    9 ,    9 ,    0 ,    0 ,    0 ,    0 ,    0 ,    9 ,   43 ,   97 ,  203 ,   40 ,    8 ,    0 ,   12 ,   74 ,  168 ,  181 ,   83 ,  251 ,  179 ,  129 
E: 000000.016959 64 01 81 7e 82 7f 00 00 72 08 00 00 00 4f 26 2a eb f8 ff ef ff 0a 00 3b 00 66 1f 28 05 40 0f 61 cb 08 80 00 00 00 80 00 00 00 00 09 09 00 00 00 00 00 09 2b 61 cb 28 08 00 0c 4a a8 b5 53 fb b3 81
# ReportID: 1 / X:  129 | Y:  126 | Z:  130 | Rz:  127 | Rx:    0 | Ry:    0 | 0xff000020:  115 | Hat switch:   8 | Button: 0  0  0  0  0  0  0  0  0  0  0  0  0  0  0 | 0xff000021: 0 , 0 , 0 , 0 , 0 , 0 , 0 , 0 , 0 , 0 , 0 , 0 , 0 | 0xff000022:   80 ,   38 ,   42 ,  235 ,  247 ,  255 ,  239 ,  255 ,   11 ,    0 ,   57 ,    0 ,  109 ,   31 ,   43 ,    5 ,   51 ,   62 ,   97 ,  203 ,    8 ,  128 ,    0 ,    0 ,    0 ,  128 ,    0 ,    0 ,    0 ,    0 ,    9 ,    9 ,    0 ,    0 ,    0 ,    0 ,    0 ,  233 ,   89 ,   97 ,  203 ,   40 ,    8 ,    0 ,  245 ,  185 ,   79 ,  176 ,  171 ,   83 ,  107 ,   39 
E: 000000.021493 64 01 81 7e 82 7f 00 00 73 08 00 00 00 50 26 2a eb f7 ff ef ff 0b 00 39 00 6d 1f 2b 05 33 3e 61 cb 08 80 00 00 00 80 00 00 00 00 09 09 00 00 00 00 00 e9 59 61 cb 28 08 00 f5 b9 4f b0 ab 53 6b 27
# ReportID: 1 / X:  129 | Y:  126 | Z:  130 | Rz:  127 | Rx:    0 | Ry:    0 | 0xff000020:  116 | Hat switch:   8 | Button: 0  0  0  0  0  0  0  0  0  0  0  0  0  0  0 | 0xff000021: 0 , 0 , 0 , 0 , 0 , 0 , 0 , 0 , 0 , 0 , 0 , 0 , 0 | 0xff000022:   81 ,   38 ,   42 ,  235 ,  246 ,  255 ,  238 ,  255 ,   10 ,    0 ,   56 ,    0 ,   30 ,   31 ,   35 ,    5 ,   38 ,  109 ,   97 ,  203 ,    8 ,  128 ,    0 ,    0 ,    0 ,  128 ,    0 ,    0 ,    0 ,    0 ,    9 ,    9 ,    0 ,    0 ,    0 ,    0 ,    0 ,  201 ,  136 ,   97 ,  203 ,   40 ,    8 ,    0 ,  133 ,   91 ,  175 ,  225 ,   84 ,  198 ,  191 ,  114 
E: 000000.024905 64 01 81 7e 82 7f 00 00 74 08 00 00 00 51 26 2a eb f6 ff ee ff 0a 00 38 00 1e 1f 23 05 26 6d 61 cb 08 80 00 00 00 80 00 00 00 00 09 09 00 00 00 00 00 c9 88 61 cb 28 08 00 85 5b af e1 54 c6 bf 72
# ReportID: 1 / X:  129 | Y:  126 | Z:  130 | Rz:  127 | Rx:    0 | Ry:    0 | 0xff000020:  117 | Hat switch:   8 | Button: 0  0  0  0  0  0  0  0  0  0  0  0  0  0  0 | 0xff000021: 0 , 0 , 0 , 0 , 0 , 0 , 0 , 0 , 0 , 0 , 0 , 0 , 0 | 0xff000022:   82 ,   38 ,   42 ,  235 ,  248 ,  255 ,  238 ,  255 ,   10 ,    0 ,   60 ,    0 ,   44 ,   31 ,   30 ,    5 ,   25 ,  156 ,   97 ,  203 ,    8 ,  128 ,    0 ,    0 ,    0 ,  128 ,    0 ,    0 ,    0 ,    0 ,    9 ,    9 ,    0 ,    0 ,    0 ,    0 ,    0 ,  169 ,  183 ,   97 ,  203 ,   40 ,    8 ,    0 ,   69 ,  184 ,   24 ,   62 ,  213 ,   56 ,  196 ,   19 
E: 000000.028965 64 01 81 7e 82 7f 00 00 75 08 00 00 00 52 26 2a eb f8 ff ee ff 0a 00 3c 00 2c 1f 1e 05 19 9c 61 cb 08 80 00 00 00 80 00 00 00 00 09 09 00 00 00 00 00 a9 b7 61 cb 28 08 00 45 b8 18 3e d5 38 c4 13
# ReportID: 1 / X:  129 | Y:  126 | Z:  130 | Rz:  127 | Rx:    0 | Ry:    0 | 0xff000020:  118 | Hat switch:   8 | Button: 0  0  0  0  0  0  0  0  0  0  0  0  0  0  0 | 0xff000021: 0 , 0 , 0 , 0 , 0 , 0 , 0 , 0 , 0 , 0 , 0 , 0 , 0 | 0xff000022:   83 ,   38 ,   42 ,  235 ,  248 ,  255 ,  238 ,  255 ,   10 ,    0 ,   65 ,    0 ,  135 ,   31 ,   47 ,    5 ,   12 ,  203 ,   97 ,  203 ,    8 ,  128 ,    0 ,    0 ,    0 ,  128 ,    0 ,    0 ,    0 ,    0 ,    9 ,    9 ,    0 ,    0 ,    0 ,    0 ,    0 ,  137 ,  230 ,   97 ,  203 ,   40 ,    8 ,    0 ,   93 ,  175 ,  206 ,  105 ,   75 ,  104 ,   15 ,  243 
E: 000000.033511 64 01 81 7e 82 7f 00 00 76 08 00 00 00 53 26 2a eb f8 ff ee ff 0a 00 41 00 87 1f 2f 05 0c cb 61 cb 08 80 00 00 00 80 00 00 00 00 09 09 00 00 00 00 00 89 e6 61 cb 28 08 00 5d af ce 69 4b 68 0f f3
# ReportID: 1 / X:  129 | Y:  126 | Z:  130 | Rz:  127 | Rx:    0 | Ry:    0 | 0xff000020:  119 | Hat switch:   8 | Button: 0  0  0  0  0  0  0  0  0  0  0  0  0  0  0 | 0xff000021: 0 , 0 , 0 , 0 , 0 , 0 , 0 , 0 , 0 , 0 , 0 , 0 , 0 | 0xff000022:   84 ,   38 ,   42 ,  235 ,  246 ,  255 ,  238 ,  255 ,   10 ,    0 ,   59 ,    0 ,  100 ,   31 ,   43 ,    5 ,  255 ,  249 ,   97 ,  203 ,    8 ,  128 ,    0 ,    0 ,    0 ,  128 ,    0 ,    0 ,    0 ,    0 ,    9 ,    9 ,    0 ,    0 ,    0 ,    0 ,    0 ,  105 ,   21 ,   98 ,  203 ,   40 ,    8 ,    0 ,  133 ,   20 ,  209 ,  118 ,   54 ,   58 ,  217 ,   84 
E: 000000.036889 64 01 81 7e 82 7f 00 00 77 08 00 00 00 54 26 2a eb f6 ff ee ff 0a 00 3b 00 64 1f 2b 05 ff f9 61 cb 08 80 00 00 00 80 00 00 00 00 09 09 00 00 00 00 00 69 15 62 cb 28 08 00 85 14 d1 76 36 3a d9 54
# ReportID: 1 / X:  129 | Y:  126 | Z:  130 | Rz:  127 | Rx:    0 | Ry:    0 | 0xff000020:  120 | Hat switch:   8 | Button: 0  0  0  0  0  0  0  0  0  0  0  0  0  0  0 | 0xff000021: 0 , 0 , 0 , 0 , 0 , 0 , 0 , 0 , 0 , 0 , 0 , 0 , 0 | 0xff000022:   85 ,   38 ,   42 ,  235 ,  246 ,  255 ,  239 ,  255 ,   10 ,    0 ,   53 ,    0 ,   84 ,   31 ,   54 ,    5 ,  242 ,   40 ,   98 ,  203 ,    8 ,  128 ,    0 ,    0 ,    0 ,  128 ,    0 ,    0 ,    0 ,    0 ,    9 ,    9 ,    0 ,    0 ,    0 ,    0 ,    0 ,   73 ,   68 ,   98 ,  203 ,   40 ,    8 ,    0 ,  201 ,  111 ,  226 ,   74 ,   67 ,   71 ,  198 ,   79 
E: 000000.041137 64 01 81 7e 82 7f 00 00 78 08 00 00 00 55 26 2a eb f6 ff ef ff 0a 00 35 00 54 1f 36 05 f2 28 62 cb 08 80 00 00 00 80 00 00 00 00 09 09 00 00 00 00 00 49 44 62 cb 28 08 00 c9 6f e2 4a 43 47 c6 4f
# ReportID: 1 / X:  129 | Y:  126 | Z:  130 | Rz:  127 | Rx:    0 | Ry:    0 | 0xff000020:  121 | Hat switch:   8 | Button: 0  0  0  0  0  0  0  0  0  0  0  0  0  0  0 | 0xff000021: 0 , 0 , 0 , 0 , 0 , 0 , 0 , 0 , 0 , 0 , 0 , 0 , 0 | 0xff000022:   86 ,   38 ,   42 ,  235 ,  247 ,  255 ,  238 ,  255 ,   10 ,    0 ,   45 ,    0 ,   93 ,   31 ,   52 ,    5 ,  229 ,   87 ,   98 ,  203 ,    8 ,  128 ,    0 ,    0 ,    0 ,  128 ,    0 ,    0 ,    0 ,    0 ,    9 ,    9 ,    0 ,    0 ,    0 ,    0 ,    0 ,   41 ,  115 ,   98 ,  203 ,   40 ,    8 ,    0 ,  186 ,  163 ,    2 ,  194 ,   64 ,  138 ,   41 ,  107 
E: 000000.045093 64 01 81 7e 82 7f 00 00 79 08 00 00 00 56 26 2a eb f7 ff ee ff 0a 00 2d 00 5d 1f 34 05 e5 57 62 cb 08 80 00 00 00 80 00 00 00 00 09 09 00 00 00 00 00 29 73 62 cb 28 08 00 ba a3 02 c2 40 8a 29 6b
# ReportID: 1 / X:  129 | Y:  126 | Z:  130 | Rz:  127 | Rx:    0 | Ry:    0 | 0xff000020:  122 | Hat switch:   8 | Button: 0  0  0  0  0  0  0  0  0  0  0  0  0  0  0 | 0xff000021: 0 , 0 , 0 , 0 , 0 , 0 , 0 , 0 , 0 , 0 , 0 , 0 , 0 | 0xff000022:   87 ,   38 ,   42 ,  235 ,  245 ,  255 ,  239 ,  255 ,    9 ,    0 ,   56 ,    0 ,   77 ,   31 ,   59 ,    5 ,  216 ,  134 ,   98 ,  203 ,    8 ,  128 ,    0 ,    0 ,    0 ,  128 ,    0 ,    0 ,    0 ,    0 ,    9 ,    9 ,    0 ,    0 ,    0 ,    0 ,    0 ,    9 ,  162 ,   98 ,  203 ,   40 ,    8 ,    0 ,   58 ,   51 ,  112 ,  112 ,  193 ,  244 ,  103 ,  182 
E: 000000.048812 64 01 81 7e 82 7f 00 00 7a 08 00 00 00 57 26 2a eb f5 ff ef ff 09 00 38 00 4d 1f 3b 05 d8 86 62 cb 08 80 00 00 00 80 00 00 00 00 09 09 00 00 00 00 00 09 a2 62 cb 28 08 00 3a 33 70 70 c1 f4 67 b6
# ReportID: 1 / X:  129 | Y:  126 | Z:  130 | Rz:  127 | Rx:    0 | Ry:    0 | 0xff000020:  123 | Hat switch:   8 | Button: 0  0  0  0  0  0  0  0  0  0  0  0  0  0  0 | 0xff000021: 0 , 0 , 0 , 0 , 0 , 0 , 0 , 0 , 0 , 0 , 0 , 0 , 0 | 0xff000022:   88 ,   38 ,   42 ,  235 ,  246 ,  255 ,  238 ,  255 ,   11 ,    0 ,   53 ,    0 ,   45 ,   31 ,   55 ,    5 ,  203 ,  181 ,   98 ,  203 ,    8 ,  128 ,    0 ,    0 ,    0 ,  128 ,    0 ,    0 ,    0 ,    0 ,    9 ,    9 ,    0 ,    0 ,    0 ,    0 ,    0 ,  233 ,  208 ,   98 ,  203 ,   40 ,    8 ,    0 ,  211 ,  217 ,  184 ,  212 ,   51 ,  106 ,  143 ,   60 
E: 000000.053012 64 01 81 7e 82 7f 00 00 7b 08 00 00 00 58 26 2a eb f6 ff ee ff 0b 00 35 00 2d 1f 37 05 cb b5 62 cb 08 80 00 00 00 80 00 00 00 00 09 09 00 00 00 00 00 e9 d0 62 cb 28 08 00 d3 d9 b8 d4 33 6a 8f 3c
# ReportID: 1 / X:  129 | Y:  126 | Z:  130 | Rz:  127 | Rx:    0 | Ry:    0 | 0xff000020:  124 | Hat switch:   8 | Button: 0  0  0  0  0  0  0  0  0  0  0  0  0  0  0 | 0xff000021: 0 , 0 , 0 , 0 , 0 , 0 , 0 , 0 , 0 , 0 , 0 , 0 , 0 | 0xff000022:   89 ,   38 ,   42 ,  235 ,  247 ,  255 ,  239 ,  255 ,    9 ,    0 ,   54 ,    0 ,  100 ,   31 ,   61 ,    5 ,  190 ,  228 ,   98 ,  203 ,    8 ,  128 ,    0 ,    0 ,    0 ,  128 ,    0 ,    0 ,    0 ,    0 ,    9 ,    9 ,    0 ,    0 ,    0 ,    0 ,    0 ,  201 ,  255 ,   98 ,  203 ,   40 ,    8 ,    0 ,   55 ,  101 ,  167 ,    8 ,   59 ,   52 ,  168 ,  220 
E: 000000.057232 64 01 81 7e 82 7f 00 00 7c 08 00 00 00 59 26 2a eb f7 ff ef ff 09 00 36 00 64 1f 3d 05 be e4 62 cb 08 80 00 00 00 80 00 00 00 00 09 09 00 00 00 00 00 c9 ff 62 cb 28 08 00 37 65 a7 08 3b 34 a8 dc
# ReportID: 1 / X:  129 | Y:  126 | Z:  130 | Rz:  127 | Rx:    0 | Ry:    0 | 0xff000020:  125 | Hat switch:   8 | Button: 0  0  0  0  0  0  0  0  0  0  0  0  0  0  0 | 0xff000021: 0 , 0 , 0 , 0 , 0 , 0 , 0 , 0 , 0 , 0 , 0 , 0 , 0 | 0xff000022:   90 ,   38 ,   42 ,  235 ,  247 ,  255 ,  239 ,  255 ,   10 ,    0 ,   52 ,    0 ,  122 ,   31 ,   61 ,    5 ,  177 ,   19 ,   99 ,  203 ,    8 ,  128 ,    0 ,    0 ,    0 ,  128 ,    0 ,    0 ,    0 ,    0 ,    9 ,    9 ,    0 ,    0 ,    0 ,    0 ,    0 ,  169 ,   46 ,   99 ,  203 ,   40 ,    8 ,    0 ,  127 ,   67 ,   31 ,   53 ,  131 ,   77 ,  106 ,  215 
E: 000000.061773 64 01 81 7e 82 7f 00 00 7d 08 00 00 00 5a 26 2a eb f7 ff ef ff 0a 00 34 00 7a 1f 3d 05 b1 13 63 cb 08 80 00 00 00 80 00 00 00 00 09 09 00 00 00 00 00 a9 2e 63 cb 28 08 00 7f 43 1f 35 83 4d 6a d7
# ReportID: 1 / X:  129 | Y:  126 | Z:  130 | Rz:  127 | Rx:    0 | Ry:    0 | 0xff000020:  126 | Hat switch:   8 | Button: 0  0  0  0  0  0  0  0  0  0  0  0  0  0  0 | 0xff000021: 0 , 0 , 0 , 0 , 0 , 0 , 0 , 0 , 0 , 0 , 0 , 0 , 0 | 0xff000022:   91 ,   38 ,   42 ,  235 ,  246 ,  255 ,  238 ,  255 ,   11 ,    0 ,   50 ,    0 ,   88 ,   31 ,   53 ,    5 ,  164 ,   66 ,   99 ,  203 ,    8 ,  128 ,    0 ,    0 ,    0 ,  128 ,    0 ,    0 ,    0 ,    0 ,    9 ,    9 ,    0 ,    0 ,    0 ,    0 ,    0 ,  137 ,   93 ,   99 ,  203 ,   40 ,    8 ,    0 ,  192 ,  154 ,  181 ,  242 ,  238 ,  160 ,  161 ,  145 
E: 000000.065664 64 01 81 7e 82 7f 00 00 7e 08 00 00 00 5b 26 2a eb f6 ff ee ff 0b 00 32 00 58 1f 35 05 a4 42 63 cb 08 80 00 00 00 80 00 00 00 00 09 09 00 00 00 00 00 89 5d 63 cb 28 08 00 c0 9a b5 f2 ee a0 a1 91
# ReportID: 1 / X:  129 | Y:  126 | Z:  130 | Rz:  127 | Rx:    0 | Ry:    0 | 0xff000020:  127 | Hat switch:   8 | Button: 0  0  0  0  0  0  0  0  0  0  0  0  0  0  0 | 0xff000021: 0 , 0 , 0 , 0 , 0 , 0 , 0 , 0 , 0 , 0 , 0 , 0 , 0 | 0xff000022:   92 ,   38 ,   42 ,  235 ,  246 ,  255 ,  237 ,  255 ,   10 ,    0 ,   46 ,    0 ,   77 ,   31 ,   50 ,    5 ,  151 ,  113 ,   99 ,  203 ,    8 ,  128 ,    0 ,    0 ,    0 ,  128 ,    0 ,    0 ,    0 ,    0 ,    9 ,    9 ,    0 ,    0 ,    0 ,    0 ,    0 ,  105 ,  140 ,   99 ,  203 ,   40 ,    8 ,    0 ,   43 ,   87 ,   14 ,  121 ,  143 ,  143 ,  246 ,   98 
E: 000000.069781 64 01 81 7e 82 7f 00 00 7f 08 00 00 00 5c 26 2a eb f6 ff ed ff 0a 00 2e 00 4d 1f 32 05 97 71 63 cb 08 80 00 00 00 80 00 00 00 00 09 09 00 00 00 00 00 69 8c 63 cb 28 08 00 2b 57 0e 79 8f 8f f6 62
# ReportID: 1 / X:  129 | Y:  126 | Z:  130 | Rz:  127 | Rx:    0 | Ry:    0 | 0xff000020:  128 | Hat switch:   8 | Button: 0  0  0  0  0  0  0  0  0  0  0  0  0  0  0 | 0xff000021: 0 , 0 , 0 , 0 , 0 , 0 , 0 , 0 , 0 , 0 , 0 , 0 , 0 | 0xff000022:   93 ,   38 ,   42 ,  235 ,  246 ,  255 ,  237 ,  255 ,   11 ,    0 ,   48 ,    0 ,   62 ,   31 ,   54 ,    5 ,  138 ,  160 ,   99 ,  203 ,    8 ,  128 ,    0 ,    0 ,    0 ,  128 ,    0 ,    0 ,    0 ,    0 ,    9 ,    9 ,    0 ,    0 ,    0 ,    0 ,    0 ,   73 ,  187 ,   99 ,  203 ,   40 ,    8 ,    0 ,  124 ,   65 ,  157 ,  104 ,  134 ,  231 ,  194 ,   48 
E: 000000.074670 64 01 81 7e 82 7f 00 00 80 08 00 00 00 5d 26 2a eb f6 ff ed ff 0b 00 30 00 3e 1f 36 05 8a a0 63 cb 08 80 00 00 00 80 00 00 00 00 09 09 00 00 00 00 00 49 bb 63 cb 28 08 00 7c 41 9d 68 86 e7 c2 30
# ReportID: 1 / X:  129 | Y:  126 | Z:  130 | Rz:  127 | Rx:    0 | Ry:    0 | 0xff000020:  129 | Hat switch:   8 | Button: 0  0  0  0  0  0  0  0  0  0  0  0  0  0  0 | 0xff000021: 0 , 0 , 0 , 0 , 0 , 0 , 0 , 0 , 0 , 0 , 0 , 0 , 0 | 0xff000022:   94 ,   38 ,   42 ,  235 ,  247 ,  255 ,  237 ,  255 ,   11 ,    0 ,   43 ,    0 ,   72 ,   31 ,   53 ,    5 ,  125 ,  207 ,   99 ,  203 ,    8 ,  128 ,    0 ,    0 ,    0 ,  128 ,    0 ,    0 ,    0 ,    0 ,    9 ,    9 ,    0 ,    0 ,    0 ,    0 ,    0 ,   41 ,  234 ,   99 ,  203 ,   40 ,    8 ,    0 ,  165 ,  176 ,  126 ,  236 ,   92 ,  197 ,  183 ,   85 
E: 000000.078498 64 01 81 7e 82 7f 00 00 81 08 00 00 00 5e 26 2a eb f7 ff ed ff 0b 00 2b 00 48 1f 35 05 7d cf 63 cb 08 80 00 00 00 80 00 00 00 00 09 09 00 00 00 00 00 29 ea 63 cb 28 08 00 a5 b0 7e ec 5c c5 b7 55
# ReportID: 1 / X:  129 | Y:  126 | Z:  130 | Rz:  127 | Rx:    0 | Ry:    0 | 0xff000020:  130 | Hat switch:   8 | Button: 0  0  0  0  0  0  0  0  0  0  0  0  0  0  0 | 0xff000021: 0 , 0 , 0 , 0 , 0 , 0 , 0 , 0 , 0 , 0 , 0 , 0 , 0 | 0xff000022:   95 ,   38 ,   42 ,  235 ,  248 ,  255 ,  239 ,  255 ,   12 ,    0 ,   51 ,    0 ,   83 ,   31 ,   40 ,    5 ,  112 ,  254 ,   99 ,  203 ,    8 ,  128 ,    0 ,    0 ,    0 ,  128 ,    0 ,    0 ,    0 ,    0 ,    9 ,    9 ,    0 ,    0 ,    0 ,    0 ,    0 ,    9 ,   25 ,  100 ,  203 ,   40 ,    8 ,    0 ,  230 ,  226 ,   79 ,  198 ,   87 ,   58 ,   32 ,  209 
E: 000000.081906 64 01 81 7e 82 7f 00 00 82 08 00 00 00 5f 26 2a eb f8 ff ef ff 0c 00 33 00 53 1f 28 05 70 fe 63 cb 08 80 00 00 00 80 00 00 00 00 09 09 00 00 00 00 00 09 19 64 cb 28 08 00 e6 e2 4f c6 57 3a 20 d1
# ReportID: 1 / X:  129 | Y:  126 | Z:  130 | Rz:  127 | Rx:    0 | Ry:    0 | 0xff000020:  131 | Hat switch:   8 | Button: 0  0  0  0  0  0  0  0  0  0  0  0  0  0  0 | 0xff000021: 0 , 0 , 0 , 0 , 0 , 0 , 0 , 0 , 0 , 0 , 0 , 0 , 0 | 0xff000022:   96 ,   38 ,   42 ,  235 ,  247 ,  255 ,  239 ,  255 ,   11 ,    0 ,   43 ,    0 ,   89 ,   31 ,   50 ,    5 ,   99 ,   45 ,  100 ,  203 ,    8 ,  128 ,    0 ,    0 ,    0 ,  128 ,    0 ,    0 ,    0 ,    0 ,    9 ,    9 ,    0 ,    0 ,    0 ,    0 ,    0 ,  233 ,   71 ,  100 ,  203 ,   40 ,    8 ,    0 ,  213 ,  244 ,  183 ,   65 ,  100 ,  161 ,  199 ,   28 
E: 000000.085333 64 01 81 7e 82 7f 00 00 83 08 00 00 00 60 26 2a eb f7 ff ef ff 0b 00 2b 00 59 1f 32 05 63 2d 64 cb 08 80 00 00 00 80 00 00 00 00 09 09 00 00 00 00 00 e9 47 64 cb 28 08 00 d5 f4 b7 41 64 a1 c7 1c
# ReportID: 1 / X:  129 | Y:  126 | Z:  130 | Rz:  127 | Rx:    0 | Ry:    0 | 0xff000020:  132 | Hat switch:   8 | Button: 0  0  0  0  0  0  0  0  0  0  0  0  0  0  0 | 0xff000021: 0 , 0 , 0 , 0 , 0 , 0 , 0 , 0 , 0 , 0 , 0 , 0 , 0 | 0xff000022:   97 ,   38 ,   42 ,  235 ,  247 ,  255 ,  238 ,  255 ,   10 ,    0 ,   40 ,    0 ,   79 ,   31 ,   49 ,    5 ,   86 ,   92 ,  100 ,  203 ,    8 ,  128 ,    0 ,    0 ,    0 ,  128 ,    0 ,    0 ,    0 ,    0 ,    9 ,    9 ,    0 ,    0 ,    0 ,    0 ,    0 ,  201 ,  118 ,  100 ,  203 ,   40 ,    8 ,    0 ,   94 ,  154 ,   45 ,  104 ,  214 ,  229 ,    2 ,  118 
E: 000000.088820 64 01 81 7e 82 7f 00 00 84 08 00 00 00 61 26 2a eb f7 ff ee ff 0a 00 28 00 4f 1f 31 05 56 5c 64 cb 08 80 00 00 00 80 00 00 00 00 09 09 00 00 00 00 00 c9 76 64 cb 28 08 00 5e 9a 2d 68 d6 e5 02 76
# ReportID: 1 / X:  129 | Y:  126 | Z:  130 | Rz:  127 | Rx:    0 | Ry:    0 | 0xff000020:  133 | Hat switch:   8 | Button: 0  0  0  0  0  0  0  0  0  0  0  0  0  0  0 | 0xff000021: 0 , 0 , 0 , 0 , 0 , 0 , 0 , 0 , 0 , 0 , 0 , 0 , 0 | 0xff000022:   98 ,   38 ,   42 ,  235 ,  246 ,  255 ,  238 ,  255 ,   11 ,    0 ,   40 ,    0 ,   96 ,   31 ,   56 ,    5 ,   73 ,  139 ,  100 ,  203 ,    8 ,  128 ,    0 ,    0 ,    0 ,  128 ,    0 ,    0 ,    0 ,    0 ,    9 ,    9 ,    0 ,    0 ,    0 ,    0 ,    0 ,  169 ,  165 ,  100 ,  203 ,   40 ,    8 ,    0 ,  192 ,  162 ,   47 ,  251 ,  160 ,  253 ,  199 ,   24 
E: 000000.092922 64 01 81 7e 82 7f 00 00 85 08 00 00 00 62 26 2a eb f6 ff ee ff 0b 00 28 00 60 1f 38 05 49 8b 64 cb 08 80 00 00 00 80 00 00 00 00 09 09 00 00 00 00 00 a9 a5 64 cb 28 08 00 c0 a2 2f fb a0 fd c7 18
# ReportID: 1 / X:  129 | Y:  126 | Z:  130 | Rz:  127 | Rx:    0 | Ry:    0 | 0xff000020:  134 | Hat switch:   8 | Button: 0  0  0  0  0  0  0  0  0  0  0  0  0  0  0 | 0xff000021: 0 , 0 , 0 , 0 , 0 , 0 , 0 , 0 , 0 , 0 , 0 , 0 , 0 | 0xff000022:   99 ,   38 ,   42 ,  235 ,  247 ,  255 ,  239 ,  255 ,   11 ,    0 ,   38 ,    0 ,   90 ,   31 ,   45 ,    5 ,   61 ,  186 ,  100 ,  203 ,    8 ,  128 ,    0 ,    0 ,    0 ,  128 ,    0 ,    0 ,    0 ,    0 ,    9 ,    9 ,    0 ,    0 ,    0 ,    0 ,    0 ,  137 ,  212 ,  100 ,  203 ,   40 ,    8 ,    0 ,  146 ,  242 ,    3 ,  227 ,  245 ,   24 ,  229 ,   57 
E: 000000.096879 64 01 81 7e 82 7f 00 00 86 08 00 00 00 63 26 2a eb f7 ff ef ff 0b 00 26 00 5a 1f 2d 05 3d ba 64 cb 08 80 00 00 00 80 00 00 00 00 09 09 00 00 00 00 00 89 d4 64 cb 28 08 00 92 f2 03 e3 f5 18 e5 39
# ReportID: 1 / X:  129 | Y:  126 | Z:  130 | Rz:  127 | Rx:    0 | Ry:    0 | 0xff000020:  135 | Hat switch:   8 | Button: 0  0  0  0  0  0  0  0  0  0  0  0  0  0  0 | 0xff000021: 0 , 0 , 0 , 0 , 0 , 0 , 0 , 0 , 0 , 0 , 0 , 0 , 0 | 0xff000022:  100 ,   38 ,   42 ,  235 ,  245 ,  255 ,  239 ,  255 ,   10 ,    0 ,   40 ,    0 ,   81 ,   31 ,   49 ,    5 ,   48 ,  233 ,  100 ,  203 ,    8 ,  128 ,    0 ,    0 ,    0 ,  128 ,    0 ,    0 ,    0 ,    0 ,    9 ,    9 ,    0 ,    0 ,    0 ,    0 ,    0 ,  105 ,    3 ,  101 ,  203 ,   40 ,    8 ,    0 ,  168 ,  254 ,  143 ,  232 ,  250 ,   76 ,   25 ,   65 
E: 000000.100878 64 01 81 7e 82 7f 00 00 87 08 00 00 00 64 26 2a eb f5 ff ef ff 0a 00 28 00 51 1f 31 05 30 e9 64 cb 08 80 00 00 00 80 00 00 00 00 09 09 00 00 00 00 00 69 03 65 cb 28 08 00 a8 fe 8f e8 fa 4c 19 41
# ReportID: 1 / X:  129 | Y:  126 | Z:  130 | Rz:  127 | Rx:    0 | Ry:    0 | 0xff000020:  136 | Hat switch:   8 | Button: 0  0  0  0  0  0  0  0  0  0  0  0  0  0  0 | 0xff000021: 0 , 0 , 0 , 0 , 0 , 0 , 0 , 0 , 0 , 0 , 0 , 0 , 0 | 0xff000022:  101 ,   38 ,   42 ,  235 ,  246 ,  255 ,  238 ,  255 ,    9 ,    0 ,   39 ,    0 ,   89 ,   31 ,   46 ,    5 ,   35 ,   24 ,  101 ,  203 ,    8 ,  128 ,    0 ,    0 ,    0 ,  128 ,    0 ,    0 ,    0 ,    0 ,    9 ,    9 ,    0 ,    0 ,    0 ,    0 ,    0 ,   73 ,   50 ,  101 ,  203 ,   40 ,    8 ,    0 ,  160 ,    8 ,  179 ,  150 ,  224 ,   32 ,  130 ,   72 
E: 000000.104979 64 01 81 7e 82 7f 00 00 88 08 00 00 00 65 26 2a eb f6 ff ee ff 09 00 27 00 59 1f 2e 05 23 18 65 cb 08 80 00 00 00 80 00 00 00 00 09 09 00 00 00 00 00 49 32 65 cb 28 08 00 a0 08 b3 96 e0 20 82 48
# ReportID: 1 / X:  129 | Y:  126 | Z:  130 | Rz:  127 | Rx:    0 | Ry:    0 | 0xff000020:  137 | Hat switch:   8 | Button: 0  0  0  0  0  0  0  0  0  0  0  0  0  0  0 | 0xff000021: 0 , 0 , 0 , 0 , 0 , 0 , 0 , 0 , 0 , 0 , 0 , 0 , 0 | 0xff000022:  102 ,   38 ,   42 ,  235 ,  246 ,  255 ,  239 ,  255 ,    9 ,    0 ,   38 ,    0 ,   88 ,   31 ,   55 ,    5 ,   22 ,   71 ,  101 ,  203 ,    8 ,  128 ,    0 ,    0 ,    0 ,  128 ,    0 ,    0 ,    0 ,    0 ,    9 ,    9 ,    0 ,    0 ,    0 ,    0 ,    0 ,   41 ,   97 ,  101 ,  203 ,   40 ,    8 ,    0 ,  158 ,  117 ,  112 ,  175 ,  238 ,   12 ,  178 ,  253 
E: 000000.109957 64 01 81 7e 82 7f 00 00 89 08 00 00 00 66 26 2a eb f6 ff ef ff 09 00 26 00 58 1f 37 05 16 47 65 cb 08 80 00 00 00 80 00 00 00 00 09 09 00 00 00 00 00 29 61 65 cb 28 08 00 9e 75 70 af ee 0c b2 fd
# ReportID: 1 / X:  129 | Y:  126 | Z:  130 | Rz:  127 | Rx:    0 | Ry:    0 | 0xff000020:  138 | Hat switch:   8 | Button: 0  0  0  0  0  0  0  0  0  0  0  0  0  0  0 | 0xff000021: 0 , 0 , 0 , 0 , 0 , 0 , 0 , 0 , 0 , 0 , 0 , 0 , 0 | 0xff000022:  103 ,   38 ,   42 ,  235 ,  245 ,  255 ,  238 ,  255 ,   11 ,    0 ,   45 ,    0 ,  102 ,   31 ,   49 ,    5 ,    9 ,  118 ,  101 ,  203 ,    8 ,  128 ,    0 ,    0 ,    0 ,  128 ,    0 ,    0 ,    0 ,    0 ,    9 ,    9 ,    0 ,    0 ,    0 ,    0 ,    0 ,    9 ,  144 ,  101 ,  203 ,   40 ,    8 ,    0 ,  129 ,  226 ,  224 ,   35 ,  124 ,   21 ,  127 ,  159 
E: 000000.114336 64 01 81 7e 82 7f 00 00 8a 08 00 00 00 67 26 2a eb f5 ff ee ff 0b 00 2d 00 66 1f 31 05 09 76 65 cb 08 80 00 00 00 80 00 00 00 00 09 09 00 00 00 00 00 09 90 65 cb 28 08 00 81 e2 e0 23 7c 15 7f 9f
# ReportID: 1 / X:  129 | Y:  126 | Z:  130 | Rz:  127 | Rx:    0 | Ry:    0 | 0xff000020:  139 | Hat switch:   8 | Button: 0  0  0  0  0  0  0  0  0  0  0  0  0  0  0 | 0xff000021: 0 , 0 , 0 , 0 , 0 , 0 , 0 , 0 , 0 , 0 , 0 , 0 , 0 | 0xff000022:  104 ,   38 ,   42 ,  235 ,  245 ,  255 ,  238 ,  255 ,   10 ,    0 ,   53 ,    0 ,   82 ,   31 ,   47 ,    5 ,  252 ,  164 ,  101 ,  203 ,    8 ,  128 ,    0 ,    0 ,    0 ,  128 ,    0 ,    0 ,    0 ,    0 ,    9 ,    9 ,    0 ,    0 ,    0 ,    0 ,    0 ,  233 ,  190 ,  101 ,  203 ,   40 ,    8 ,    0 ,  197 ,  196 ,  124 ,  133 ,  242 ,  164 ,   85 ,   27 
E: 000000.118386 64 01 81 7e 82 7f 00 00 8b 08 00 00 00 68 26 2a eb f5 ff ee ff 0a 00 35 00 52 1f 2f 05 fc a4 65 cb 08 80 00 00 00 80 00 00 00 00 09 09 00 00 00 00 00 e9 be 65 cb 28 08 00 c5 c4 7c 85 f2 a4 55 1b
# ReportID: 1 / X:  129 | Y:  126 | Z:  130 | Rz:  127 | Rx:    0 | Ry:    0 | 0xff000020:  140 | Hat switch:   8 | Button: 0  0  0  0  0  0  0  0  0  0  0  0  0  0  0 | 0xff000021: 0 , 0 , 0 , 0 , 0 , 0 , 0 , 0 , 0 , 0 , 0 , 0 , 0 | 0xff000022:  105 ,   38 ,   42 ,  235 ,  247 ,  255 ,  238 ,  255 ,   10 ,    0 ,   52 ,    0 ,   62 ,   31 ,   52 ,    5 ,  239 ,  211 ,  101 ,  203 ,    8 ,  128 ,    0 ,    0 ,    0 ,  128 ,    0 ,    0 ,    0 ,    0 ,    9 ,    9 ,    0 ,    0 ,    0 ,    0 ,    0 ,  201 ,  237 ,  101 ,  203 ,   40 ,    8 ,    0 ,  179 ,  131 ,  168 ,  144 ,   94 ,   60 ,  193 ,   65 
E: 000000.122195 64 01 81 7e 82 7f 00 00 8c 08 00 00 00 69 26 2a eb f7 ff ee ff 0a 00 34 00 3e 1f 34 05 ef d3 65 cb 08 80 00 00 00 80 00 00 00 00 09 09 00 00 00 00 00 c9 ed 65 cb 28 08 00 b3 83 a8 90 5e 3c c1 41
# ReportID: 1 / X:  129 | Y:  126 | Z:  130 | Rz:  127 | Rx:    0 | Ry:    0 | 0xff000020:  141 | Hat switch:   8 | Button: 0  0  0  0  0  0  0  0  0  0  0  0  0  0  0 | 0xff000021: 0 , 0 , 0 , 0 , 0 , 0 , 0 , 0 , 0 , 0 , 0 , 0 , 0 | 0xff000022:  106 ,   38 ,   42 ,  235 ,  247 ,  255 ,  238 ,  255 ,   10 ,    0 ,   59 ,    0 ,   95 ,   31 ,   54 ,    5 ,  226 ,    2 ,  102 ,  203 ,    8 ,  128 ,    0 ,    0 ,    0 ,  128 ,    0 ,    0 ,    0 ,    0 ,    9 ,    9 ,    0 ,    0 ,    0 ,    0 ,    0 ,  169 ,   28 ,  102 ,  203 ,   40 ,    8 ,    0 ,  165 ,   63 ,   68 ,  127 ,  253 ,  217 ,   32 ,  126 
E: 000000.126262 64 01 81 7e 82 7f 00 00 8d 08 00 00 00 6a 26 2a eb f7 ff ee ff 0a 00 3b 00 5f 1f 36 05 e2 02 66 cb 08 80 00 00 00 80 00 00 00 00 09 09 00 00 00 00 00 a9 1c 66 cb 28 08 00 a5 3f 44 7f fd d9 20 7e
# ReportID: 1 / X:  129 | Y:  126 | Z:  130 | Rz:  127 | Rx:    0 | Ry:    0 | 0xff000020:  142 | Hat switch:   8 | Button: 0  0  0  0  0  0  0  0  0  0  0  0  0  0  0 | 0xff000021: 0 , 0 , 0 , 0 , 0 , 0 , 0 , 0 , 0 , 0 , 0 , 0 , 0 | 0xff000022:  107 ,   38 ,   42 ,  235 ,  246 ,  255 ,  238 ,  255 ,   11 ,    0 ,   53 ,    0 ,  118 ,   31 ,   72 ,    5 ,  213 ,   49 ,  102 ,  203 ,    8 ,  128 ,    0 ,    0 ,    0 ,  128 ,    0 ,    0 ,    0 ,    0 ,    9 ,    9 ,    0 ,    0 ,    0 ,    0 ,    0 ,  137 ,   75 ,  102 ,  203 ,   40 ,    8 ,    0 ,  210 ,   10 ,   77 ,   58 ,   14 ,   19 ,   13 ,  127 
E: 000000.128762 64 01 81 7e 82 7f 00 00 8e 08 00 00 00 6b 26 2a eb f6 ff ee ff 0b 00 35 00 76 1f 48 05 d5 31 66 cb 08 80 00 00 00 80 00 00 00 00 09 09 00 00 00 00 00 89 4b 66 cb 28 08 00 d2 0a 4d 3a 0e 13 0d 7f
# ReportID: 1 / X:  129 | Y:  126 | Z:  130 | Rz:  127 | Rx:    0 | Ry:    0 | 0xff000020:  143 | Hat switch:   8 | Button: 0  0  0  0  0  0  0  0  0  0  0  0  0  0  0 | 0xff000021: 0 , 0 , 0 , 0 , 0 , 0 , 0 , 0 , 0 , 0 , 0 , 0 , 0 | 0xff000022:  108 ,   38 ,   42 ,  235 ,  247 ,  255 ,  238 ,  255 ,   10 ,    0 ,   54 ,    0 ,   70 ,   31 ,   57 ,    5 ,  200 ,   96 ,  102 ,  203 ,    8 ,  128 ,    0 ,    0 ,    0 ,  128 ,    0 ,    0 ,    0 ,    0 ,    9 ,    9 ,    0 ,    0 ,    0 ,    0 ,    0 ,  105 ,  122 ,  102 ,  203 ,   40 ,    8 ,    0 ,  210 ,  196 ,   24 ,   14 ,   52 ,  174 ,  187 ,  142 
E: 000000.133900 64 01 81 7e 82 7f 00 00 8f 08 00 00 00 6c 26 2a eb f7 ff ee ff 0a 00 36 00 46 1f 39 05 c8 60 66 cb 08 80 00 00 00 80 00 00 00 00 09 09 00 00 00 00 00 69 7a 66 cb 28 08 00 d2 c4 18 0e 34 ae bb 8e
# ReportID: 1 / X:  129 | Y:  126 | Z:  130 | Rz:  127 | Rx:    0 | Ry:    0 | 0xff000020:  144 | Hat switch:   8 | Button: 0  0  0  0  0  0  0  0  0  0  0  0  0  0  0 | 0xff000021: 0 , 0 , 0 , 0 , 0 , 0 , 0 , 0 , 0 , 0 , 0 , 0 , 0 | 0xff000022:  109 ,   38 ,   42 ,  235 ,  247 ,  255 ,  238 ,  255 ,    9 ,    0 ,   69 ,    0 ,   77 ,   31 ,   59 ,    5 ,  187 ,  143 ,  102 ,  203 ,    8 ,  128 ,    0 ,    0 ,    0 ,  128 ,    0 ,    0 ,    0 ,    0 ,    9 ,    9 ,    0 ,    0 ,    0 ,    0 ,    0 ,   73 ,  169 ,  102 ,  203 ,   40 ,    8 ,    0 ,   52 ,   65 ,   64 ,  124 ,  174 ,  243 ,  248 ,  157 
E: 000000.137935 64 01 81 7e 82 7f 00 00 90 08 00 00 00 6d 26 2a eb f7 ff ee ff 09 00 45 00 4d 1f 3b 05 bb 8f 66 cb 08 80 00 00 00 80 00 00 00 00 09 09 00 00 00 00 00 49 a9 66 cb 28 08 00 34 41 40 7c ae f3 f8 9d
# ReportID: 1 / X:  129 | Y:  126 | Z:  130 | Rz:  127 | Rx:    0 | Ry:    0 | 0xff000020:  145 | Hat switch:   8 | Button: 0  0  0  0  0  0  0  0  0  0  0  0  0  0  0 | 0xff000021: 0 , 0 , 0 , 0 , 0 , 0 , 0 , 0 , 0 , 0 , 0 , 0 , 0 | 0xff000022:  110 ,   38 ,   42 ,  235 ,  245 ,  255 ,  238 ,  255 ,   10 ,    0 ,   63 ,    0 ,   78 ,   31 ,   63 ,    5 ,  174 ,  190 ,  102 ,  203 ,    7 ,  128 ,    0 ,    0 ,    0 ,  128 ,    0 ,    0 ,    0 ,    0 ,    9 ,    9 ,    0 ,    0 ,    0 ,    0 ,    0 ,   41 ,  216 ,  102 ,  203 ,   40 ,    8 ,    0 ,   19 ,   28 ,  206 ,   24 ,  242 ,   52 ,  178 ,  112 
E: 000000.141401 64 01 81 7e 82 7f 00 00 91 08 00 00 00 6e 26 2a eb f5 ff ee ff 0a 00 3f 00 4e 1f 3f 05 ae be 66 cb 07 80 00 00 00 80 00 00 00 00 09 09 00 00 00 00 00 29 d8 66 cb 28 08 00 13 1c ce 18 f2 34 b2 70
# ReportID: 1 / X:  129 | Y:  126 | Z:  130 | Rz:  127 | Rx:    0 | Ry:    0 | 0xff000020:  146 | Hat switch:   8 | Button: 0  0  0  0  0  0  0  0  0  0  0  0  0  0  0 | 0xff000021: 0 , 0 , 0 , 0 , 0 , 0 , 0 , 0 , 0 , 0 , 0 , 0 , 0 | 0xff000022:  111 ,   38 ,   42 ,  235 ,  247 ,  255 ,  239 ,  255 ,   11 ,    0 ,   58 ,    0 ,   70 ,   31 ,   52 ,    5 ,  161 ,  237 ,  102 ,  203 ,    8 ,  128 ,    0 ,    0 ,    0 ,  128 ,    0 ,    0 ,    0 ,    0 ,    9 ,    9 ,    0 ,    0 ,    0 ,    0 ,    0 ,    9 ,    7 ,  103 ,  203 ,   40 ,    8 ,    0 ,  246 ,  233 ,  209 ,  141 ,   92 ,  235 ,  149 ,  137 
E: 000000.145073 64 01 81 7e 82 7f 00 00 92 08 00 00 00 6f 26 2a eb f7 ff ef ff 0b 00 3a 00 46 1f 34 05 a1 ed 66 cb 08 80 00 00 00 80 00 00 00 00 09 09 00 00 00 00 00 09 07 67 cb 28 08 00 f6 e9 d1 8d 5c eb 95 89
# ReportID: 1 / X:  129 | Y:  126 | Z:  130 | Rz:  127 | Rx:    0 | Ry:    0 | 0xff000020:  147 | Hat switch:   8 | Button: 0  0  0  0  0  0  0  0  0  0  0  0  0  0  0 | 0xff000021: 0 , 0 , 0 , 0 , 0 , 0 , 0 , 0 , 0 , 0 , 0 , 0 , 0 | 0xff000022:  112 ,   38 ,   42 ,  235 ,  247 ,  255 ,  239 ,  255 ,   10 ,    0 ,   65 ,    0 ,   85 ,   31 ,   42 ,    5 ,  148 ,   28 ,  103 ,  203 ,    8 ,  128 ,    0 ,    0 ,    0 ,  128 ,    0 ,    0 ,    0 ,    0 ,    9 ,    9 ,    0 ,    0 ,    0 ,    0 ,    0 ,  233 ,   53 ,  103 ,  203 ,   40 ,    8 ,    0 ,  159 ,  109 ,  136 ,  125 ,  188 ,  105 ,  208 ,  231 
E: 000000.148860 64 01 81 7e 82 7f 00 00 93 08 00 00 00 70 26 2a eb f7 ff ef ff 0a 00 41 00 55 1f 2a 05 94 1c 67 cb 08 80 00 00 00 80 00 00 00 00 09 09 00 00 00 00 00 e9 35 67 cb 28 08 00 9f 6d 88 7d bc 69 d0 e7
# ReportID: 1 / X:  129 | Y:  126 | Z:  130 | Rz:  127 | Rx:    0 | Ry:    0 | 0xff000020:  148 | Hat switch:   8 | Button: 0  0  0  0  0  0  0  0  0  0  0  0  0  0  0 | 0xff000021: 0 , 0 , 0 , 0 , 0 , 0 , 0 , 0 , 0 , 0 , 0 , 0 , 0 | 0xff000022:  113 ,   38 ,   42 ,  235 ,  247 ,  255 ,  239 ,  255 ,   11 ,    0 ,   60 ,    0 ,  116 ,   31 ,   59 ,    5 ,  135 ,   75 ,  103 ,  203 ,    8 ,  128 ,    0 ,    0 ,    0 ,  128 ,    0 ,    0 ,    0 ,    0 ,    9 ,    9 ,    0 ,    0 ,    0 ,    0 ,    0 ,  216 ,  100 ,  103 ,  203 ,   40 ,    8 ,    0 ,  223 ,   17 ,   44 ,   68 ,  208 ,  211 ,  141 ,  128 
E: 000000.152968 64 01 81 7e 82 7f 00 00 94 08 00 00 00 71 26 2a eb f7 ff ef ff 0b 00 3c 00 74 1f 3b 05 87 4b 67 cb 08 80 00 00 00 80 00 00 00 00 09 09 00 00 00 00 00 d8 64 67 cb 28 08 00 df 11 2c 44 d0 d3 8d 80
# ReportID: 1 / X:  129 | Y:  126 | Z:  130 | Rz:  127 | Rx:    0 | Ry:    0 | 0xff000020:  149 | Hat switch:   8 | Button: 0  0  0  0  0  0  0  0  0  0  0  0  0  0  0 | 0xff000021: 0 , 0 , 0 , 0 , 0 , 0 , 0 , 0 , 0 , 0 , 0 , 0 , 0 | 0xff000022:  114 ,   38 ,   42 ,  235 ,  246 ,  255 ,  238 ,  255 ,   10 ,    0 ,   49 ,    0 ,   97 ,   31 ,   47 ,    5 ,  122 ,  122 ,  103 ,  203 ,    8 ,  128 ,    0 ,    0 ,    0 ,  128 ,    0 ,    0 ,    0 ,    0 ,    9 ,    9 ,    0 ,    0 ,    0 ,    0 ,    0 ,  211 ,  147 ,  103 ,  203 ,   40 ,    8 ,    0 ,  244 ,   81 ,  252 ,  169 ,   99 ,   67 ,  113 ,   67 
E: 000000.157374 64 01 81 7e 82 7f 00 00 95 08 00 00 00 72 26 2a eb f6 ff ee ff 0a 00 31 00 61 1f 2f 05 7a 7a 67 cb 08 80 00 00 00 80 00 00 00 00 09 09 00 00 00 00 00 d3 93 67 cb 28 08 00 f4 51 fc a9 63 43 71 43
# ReportID: 1 / X:  129 | Y:  126 | Z:  130 | Rz:  127 | Rx:    0 | Ry:    0 | 0xff000020:  150 | Hat switch:   8 | Button: 0  0  0  0  0  0  0  0  0  0  0  0  0  0  0 | 0xff000021: 0 , 0 , 0 , 0 , 0 , 0 , 0 , 0 , 0 , 0 , 0 , 0 , 0 | 0xff000022:  115 ,   38 ,   42 ,  235 ,  247 ,  255 ,  239 ,  255 ,   10 ,    0 ,   49 ,    0 ,   75 ,   31 ,   55 ,    5 ,  109 ,  169 ,  103 ,  203 ,    8 ,  128 ,    0 ,    0 ,    0 ,  128 ,    0 ,    0 ,    0 ,    0 ,    9 ,    9 ,    0 ,    0 ,    0 ,    0 ,    0 ,  144 ,  194 ,  103 ,  203 ,   40 ,    8 ,    0 ,   87 ,  224 ,  246 ,  203 ,  234 ,  217 ,  227 ,  126 
E: 000000.160929 64 01 81 7e 82 7f 00 00 96 08 00 00 00 73 26 2a eb f7 ff ef ff 0a 00 31 00 4b 1f 37 05 6d a9 67 cb 08 80 00 00 00 80 00 00 00 00 09 09 00 00 00 00 00 90 c2 67 cb 28 08 00 57 e0 f6 cb ea d9 e3 7e
# ReportID: 1 / X:  129 | Y:  126 | Z:  130 | Rz:  127 | Rx:    0 | Ry:    0 | 0xff000020:  151 | Hat switch:   8 | Button: 0  0  0  0  0  0  0  0  0  0  0  0  0  0  0 | 0xff000021: 0 , 0 , 0 , 0 , 0 , 0 , 0 , 0 , 0 , 0 , 0 , 0 , 0 | 0xff000022:  116 ,   38 ,   42 ,  235 ,  247 ,  255 ,  239 ,  255 ,   11 ,    0 ,   58 ,    0 ,   97 ,   31 ,   52 ,    5 ,   96 ,  216 ,  103 ,  203 ,    8 ,  128 ,    0 ,    0 ,    0 ,  128 ,    0 ,    0 ,    0 ,    0 ,    9 ,    9 ,    0 ,    0 ,    0 ,    0 ,    0 ,  114 ,  241 ,  103 ,  203 ,   40 ,    8 ,    0 ,   41 ,  126 ,  196 ,  147 ,  240 ,  249 ,   56 ,   20 
E: 000000.164901 64 01 81 7e 82 7f 00 00 97 08 00 00 00 74 26 2a eb f7 ff ef ff 0b 00 3a 00 61 1f 34 05 60 d8 67 cb 08 80 00 00 00 80 00 00 00 00 09 09 00 00 00 00 00 72 f1 67 cb 28 08 00 29 7e c4 93 f0 f9 38 14
# ReportID: 1 / X:  129 | Y:  126 | Z:  130 | Rz:  127 | Rx:    0 | Ry:    0 | 0xff000020:  152 | Hat switch:   8 | Button: 0  0  0  0  0  0  0  0  0  0  0  0  0  0  0 | 0xff000021: 0 , 0 , 0 , 0 , 0 , 0 , 0 , 0 , 0 , 0 , 0 , 0 , 0 | 0xff000022:  117 ,   38 ,   42 ,  235 ,  246 ,  255 ,  239 ,  255 ,   10 ,    0 ,   60 ,    0 ,   77 ,   31 ,   45 ,    5 ,   83 ,    7 ,  104 ,  203 ,    8 ,  128 ,    0 ,    0 ,    0 ,  128 ,    0 ,    0 ,    0 ,    0 ,    9 ,    9 ,    0 ,    0 ,    0 ,    0 ,    0 ,   82 ,   32 ,  104 ,  203 ,   40 ,    8 ,    0 ,   76 ,    6 ,  119 ,  196 ,  132 ,    8 ,  233 ,   23 
E: 000000.168825 64 01 81 7e 82 7f 00 00 98 08 00 00 00 75 26 2a eb f6 ff ef ff 0a 00 3c 00 4d 1f 2d 05 53 07 68 cb 08 80 00 00 00 80 00 00 00 00 09 09 00 00 00 00 00 52 20 68 cb 28 08 00 4c 06 77 c4 84 08 e9 17
# ReportID: 1 / X:  129 | Y:  126 | Z:  130 | Rz:  127 | Rx:    0 | Ry:    0 | 0xff000020:  153 | Hat switch:   8 | Button: 0  0  0  0  0  0  0  0  0  0  0  0  0  0  0 | 0xff000021: 0 , 0 , 0 , 0 , 0 , 0 , 0 , 0 , 0 , 0 , 0 , 0 , 0 | 0xff000022:  118 ,   38 ,   42 ,  235 ,  247 ,  255 ,  239 ,  255 ,   10 ,    0 ,   51 ,    0 ,   68 ,   31 ,   45 ,    5 ,   70 ,   54 ,  104 ,  203 ,    8 ,  128 ,    0 ,    0 ,    0 ,  128 ,    0 ,    0 ,    0 ,    0 ,    9 ,    9 ,    0 ,    0 ,    0 ,    0 ,    0 ,   41 ,   79 ,  104 ,  203 ,   40 ,    8 ,    0 ,   88 ,  171 ,  121 ,  113 ,  197 ,  236 ,  124 ,   48 
E: 000000.172983 64 01 81 7e 82 7f 00 00 99 08 00 00 00 76 26 2a eb f7 ff ef ff 0a 00 33 00 44 1f 2d 05 46 36 68 cb 08 80 00 00 00 80 00 00 00 00 09 09 00 00 00 00 00 29 4f 68 cb 28 08 00 58 ab 79 71 c5 ec 7c 30
# ReportID: 1 / X:  129 | Y:  126 | Z:  130 | Rz:  127 | Rx:    0 | Ry:    0 | 0xff000020:  154 | Hat switch:   8 | Button: 0  0  0  0  0  0  0  0  0  0  0  0  0  0  0 | 0xff000021: 0 , 0 , 0 , 0 , 0 , 0 , 0 , 0 , 0 , 0 , 0 , 0 , 0 | 0xff000022:  119 ,   38 ,   42 ,  235 ,  247 ,  255 ,  238 ,  255 ,   11 ,    0 ,   50 ,    0 ,   87 ,   31 ,   46 ,    5 ,   58 ,  101 ,  104 ,  203 ,    8 ,  128 ,    0 ,    0 ,    0 ,  128 ,    0 ,    0 ,    0 ,    0 ,    9 ,    9 ,    0 ,    0 ,    0 ,    0 ,    0 ,    9 ,  126 ,  104 ,  203 ,   40 ,    8 ,    0 ,  225 ,   45 ,   32 ,  220 ,   46 ,  102 ,  227 ,   37 
E: 000000.177034 64 01 81 7e 82 7f 00 00 9a 08 00 00 00 77 26 2a eb f7 ff ee ff 0b 00 32 00 57 1f 2e 05 3a 65 68 cb 08 80 00 00 00 80 00 00 00 00 09 09 00 00 00 00 00 09 7e 68 cb 28 08 00 e1 2d 20 dc 2e 66 e3 25
# ReportID: 1 / X:  129 | Y:  126 | Z:  130 | Rz:  127 | Rx:    0 | Ry:    0 | 0xff000020:  155 | Hat switch:   8 | Button: 0  0  0  0  0  0  0  0  0  0  0  0  0  0  0 | 0xff000021: 0 , 0 , 0 , 0 , 0 , 0 , 0 , 0 , 0 , 0 , 0 , 0 , 0 | 0xff000022:  120 ,   38 ,   42 ,  235 ,  247 ,  255 ,  238 ,  255 ,   10 ,    0 ,   51 ,    0 ,  104 ,   31 ,   51 ,    5 ,   45 ,  148 ,  104 ,  203 ,    8 ,  128 ,    0 ,    0 ,    0 ,  128 ,    0 ,    0 ,    0 ,    0 ,    9 ,    9 ,    0 ,    0 ,    0 ,    0 ,    0 ,  233 ,  172 ,  104 ,  203 ,   40 ,    8 ,    0 ,  245 ,   81 ,   61 ,  144 ,   48 ,  232 ,   61 ,  254 
E: 000000.180861 64 01 81 7e 82 7f 00 00 9b 08 00 00 00 78 26 2a eb f7 ff ee ff 0a 00 33 00 68 1f 33 05 2d 94 68 cb 08 80 00 00 00 80 00 00 00 00 09 09 00 00 00 00 00 e9 ac 68 cb 28 08 00 f5 51 3d 90 30 e8 3d fe
# ReportID: 1 / X:  129 | Y:  126 | Z:  130 | Rz:  127 | Rx:    0 | Ry:    0 | 0xff000020:  156 | Hat switch:   8 | Button: 0  0  0  0  0  0  0  0  0  0  0  0  0  0  0 | 0xff000021: 0 , 0 , 0 , 0 , 0 , 0 , 0 , 0 , 0 , 0 , 0 , 0 , 0 | 0xff000022:  121 ,   38 ,   42 ,  235 ,  247 ,  255 ,  239 ,  255 ,   10 ,    0 ,   55 ,    0 ,   81 ,   31 ,   47 ,    5 ,   31 ,  195 ,  104 ,  203 ,    8 ,  128 ,    0 ,    0 ,    0 ,  128 ,    0 ,    0 ,    0 ,    0 ,    9 ,    9 ,    0 ,    0 ,    0 ,    0 ,    0 ,  201 ,  219 ,  104 ,  203 ,   40 ,    8 ,    0 ,  123 ,  233 ,  137 ,  140 ,   82 ,  182 ,  174 ,  139 
E: 000000.185084 64 01 81 7e 82 7f 00 00 9c 08 00 00 00 79 26 2a eb f7 ff ef ff 0a 00 37 00 51 1f 2f 05 1f c3 68 cb 08 80 00 00 00 80 00 00 00 00 09 09 00 00 00 00 00 c9 db 68 cb 28 08 00 7b e9 89 8c 52 b6 ae 8b
# ReportID: 1 / X:  129 | Y:  126 | Z:  130 | Rz:  127 | Rx:    0 | Ry:    0 | 0xff000020:  157 | Hat switch:   8 | Button: 0  0  0  0  0  0  0  0  0  0  0  0  0  0  0 | 0xff000021: 0 , 0 , 0 , 0 , 0 , 0 , 0 , 0 , 0 , 0 , 0 , 0 , 0 | 0xff000022:  122 ,   38 ,   42 ,  235 ,  246 ,  255 ,  239 ,  255 ,   11 ,    0 ,   52 ,    0 ,   75 ,   31 ,   48 ,    5 ,   18 ,  242 ,  104 ,  203 ,    8 ,  128 ,    0 ,    0 ,    0 ,  128 ,    0 ,    0 ,    0 ,    0 ,    9 ,    9 ,    0 ,    0 ,    0 ,    0 ,    0 ,  169 ,   10 ,  105 ,  203 ,   40 ,    8 ,    0 ,   84 ,   57 ,   65 ,  115 ,  224 ,   19 ,  227 ,  131 
E: 000000.188910 64 01 81 7e 82 7f 00 00 9d 08 00 00 00 7a 26 2a eb f6 ff ef ff 0b 00 34 00 4b 1f 30 05 12 f2 68 cb 08 80 00 00 00 80 00 00 00 00 09 09 00 00 00 00 00 a9 0a 69 cb 28 08 00 54 39 41 73 e0 13 e3 83
# ReportID: 1 / X:  129 | Y:  126 | Z:  130 | Rz:  127 | Rx:    0 | Ry:    0 | 0xff000020:  158 | Hat switch:   8 | Button: 0  0  0  0  0  0  0  0  0  0  0  0  0  0  0 | 0xff000021: 0 , 0 , 0 , 0 , 0 , 0 , 0 , 0 , 0 , 0 , 0 , 0 , 0 | 0xff000022:  123 ,   38 ,   42 ,  235 ,  246 ,  255 ,  238 ,  255 ,   10 ,    0 ,   46 ,    0 ,   88 ,   31 ,   55 ,    5 ,    6 ,   33 ,  105 ,  203 ,    8 ,  128 ,    0 ,    0 ,    0 ,  128 ,    0 ,    0 ,    0 ,    0 ,    9 ,    9 ,    0 ,    0 ,    0 ,    0 ,    0 ,  137 ,   57 ,  105 ,  203 ,   40 ,    8 ,    0 ,    9 ,   89 ,  121 ,   87 ,   32 ,  239 ,  201 ,  232 
E: 000000.194042 64 01 81 7e 82 7f 00 00 9e 08 00 00 00 7b 26 2a eb f6 ff ee ff 0a 00 2e 00 58 1f 37 05 06 21 69 cb 08 80 00 00 00 80 00 00 00 00 09 09 00 00 00 00 00 89 39 69 cb 28 08 00 09 59 79 57 20 ef c9 e8
# ReportID: 1 / X:  129 | Y:  126 | Z:  130 | Rz:  127 | Rx:    0 | Ry:    0 | 0xff000020:  159 | Hat switch:   8 | Button: 0  0  0  0  0  0  0  0  0  0  0  0  0  0  0 | 0xff000021: 0 , 0 , 0 , 0 , 0 , 0 , 0 , 0 , 0 , 0 , 0 , 0 , 0 | 0xff000022:  124 ,   38 ,   42 ,  235 ,  246 ,  255 ,  238 ,  255 ,   10 ,    0 ,   63 ,    0 ,   94 ,   31 ,   51 ,    5 ,  249 ,   79 ,  105 ,  203 ,    8 ,  128 ,    0 ,    0 ,    0 ,  128 ,    0 ,    0 ,    0 ,    0 ,    9 ,    9 ,    0 ,    0 ,    0 ,    0 ,    0 ,  105 ,  104 ,  105 ,  203 ,   40 ,    8 ,    0 ,   85 ,    0 ,  211 ,   22 ,   36 ,   45 ,  119 ,  131 
E: 000000.198500 64 01 81 7e 82 7f 00 00 9f 08 00 00 00 7c 26 2a eb f6 ff ee ff 0a 00 3f 00 5e 1f 33 05 f9 4f 69 cb 08 80 00 00 00 80 00 00 00 00 09 09 00 00 00 00 00 69 68 69 cb 28 08 00 55 00 d3 16 24 2d 77 83
# ReportID: 1 / X:  129 | Y:  126 | Z:  130 | Rz:  127 | Rx:    0 | Ry:    0 | 0xff000020:  160 | Hat switch:   8 | Button: 0  0  0  0  0  0  0  0  0  0  0  0  0  0  0 | 0xff000021: 0 , 0 , 0 , 0 , 0 , 0 , 0 , 0 , 0 , 0 , 0 , 0 , 0 | 0xff000022:  125 ,   38 ,   42 ,  235 ,  247 ,  255 ,  238 ,  255 ,   10 ,    0 ,   55 ,    0 ,   79 ,   31 ,   49 ,    5 ,  236 ,  126 ,  105 ,  203 ,    8 ,  128 ,    0 ,    0 ,    0 ,  128 ,    0 ,    0 ,    0 ,    0 ,    9 ,    9 ,    0 ,    0 ,    0 ,    0 ,    0 ,   73 ,  151 ,  105 ,  203 ,   40 ,    8 ,    0 ,   34 ,   66 ,  218 ,  102 ,  242 ,  134 ,  121 ,  177 
E: 000000.202343 64 01 81 7e 82 7f 00 00 a0 08 00 00 00 7d 26 2a eb f7 ff ee ff 0a 00 37 00 4f 1f 31 05 ec 7e 69 cb 08 80 00 00 00 80 00 00 00 00 09 09 00 00 00 00 00 49 97 69 cb 28 08 00 22 42 da 66 f2 86 79 b1
# ReportID: 1 / X:  129 | Y:  126 | Z:  130 | Rz:  127 | Rx:    0 | Ry:    0 | 0xff000020:  161 | Hat switch:   8 | Button: 0  0  0  0  0  0  0  0  0  0  0  0  0  0  0 | 0xff000021: 0 , 0 , 0 , 0 , 0 , 0 , 0 , 0 , 0 , 0 , 0 , 0 , 0 | 0xff000022:  126 ,   38 ,   42 ,  235 ,  246 ,  255 ,  238 ,  255 ,    9 ,    0 ,   57 ,    0 ,   85 ,   31 ,   54 ,    5 ,  223 ,  173 ,  105 ,  203 ,    7 ,  128 ,    0 ,    0 ,    0 ,  128 ,    0 ,    0 ,    0 ,    0 ,    9 ,    9 ,    0 ,    0 ,    0 ,    0 ,    0 ,   41 ,  198 ,  105 ,  203 ,   40 ,    8 ,    0 ,  127 ,  186 ,  253 ,   13 ,  100 ,  242 ,  115 ,  201 
E: 000000.206287 64 01 81 7e 82 7f 00 00 a1 08 00 00 00 7e 26 2a eb f6 ff ee ff 09 00 39 00 55 1f 36 05 df ad 69 cb 07 80 00 00 00 80 00 00 00 00 09 09 00 00 00 00 00 29 c6 69 cb 28 08 00 7f ba fd 0d 64 f2 73 c9
# ReportID: 1 / X:  129 | Y:  126 | Z:  130 | Rz:  127 | Rx:    0 | Ry:    0 | 0xff000020:  162 | Hat switch:   8 | Button: 0  0  0  0  0  0  0  0  0  0  0  0  0  0  0 | 0xff000021: 0 , 0 , 0 , 0 , 0 , 0 , 0 , 0 , 0 , 0 , 0 , 0 , 0 | 0xff000022:  127 ,   38 ,   42 ,  235 ,  246 ,  255 ,  238 ,  255 ,    9 ,    0 ,   53 ,    0 ,   86 ,   31 ,   58 ,    5 ,  210 ,  220 ,  105 ,  203 ,    8 ,  128 ,    0 ,    0 ,    0 ,  128 ,    0 ,    0 ,    0 ,    0 ,    9 ,    9 ,    0 ,    0 ,    0 ,    0 ,    0 ,    9 ,  245 ,  105 ,  203 ,   40 ,    8 ,    0 ,  104 ,  224 ,   49 ,   42 ,  168 ,  236 ,   39 ,   69 
E: 000000.208882 64 01 81 7e 82 7f 00 00 a2 08 00 00 00 7f 26 2a eb f6 ff ee ff 09 00 35 00 56 1f 3a 05 d2 dc 69 cb 08 80 00 00 00 80 00 00 00 00 09 09 00 00 00 00 00 09 f5 69 cb 28 08 00 68 e0 31 2a a8 ec 27 45
# ReportID: 1 / X:  129 | Y:  126 | Z:  130 | Rz:  127 | Rx:    0 | Ry:    0 | 0xff000020:  163 | Hat switch:   8 | Button: 0  0  0  0  0  0  0  0  0  0  0  0  0  0  0 | 0xff000021: 0 , 0 , 0 , 0 , 0 , 0 , 0 , 0 , 0 , 0 , 0 , 0 , 0 | 0xff000022:  128 ,   38 ,   42 ,  235 ,  247 ,  255 ,  238 ,  255 ,   10 ,    0 ,   55 ,    0 ,   88 ,   31 ,   52 ,    5 ,  197 ,   11 ,  106 ,  203 ,    8 ,  128 ,    0 ,    0 ,    0 ,  128 ,    0 ,    0 ,    0 ,    0 ,    9 ,    9 ,    0 ,    0 ,    0 ,    0 ,    0 ,  233 ,   35 ,  106 ,  203 ,   40 ,    8 ,    0 ,  169 ,  233 ,  127 ,  229 ,   48 ,  148 ,   73 ,  196 
E: 000000.213017 64 01 81 7e 82 7f 00 00 a3 08 00 00 00 80 26 2a eb f7 ff ee ff 0a 00 37 00 58 1f 34 05 c5 0b 6a cb 08 80 00 00 00 80 00 00 00 00 09 09 00 00 00 00 00 e9 23 6a cb 28 08 00 a9 e9 7f e5 30 94 49 c4
# ReportID: 1 / X:  129 | Y:  126 | Z:  130 | Rz:  127 | Rx:    0 | Ry:    0 | 0xff000020:  164 | Hat switch:   8 | Button: 0  0  0  0  0  0  0  0  0  0  0  0  0  0  0 | 0xff000021: 0 , 0 , 0 , 0 , 0 , 0 , 0 , 0 , 0 , 0 , 0 , 0 , 0 | 0xff000022:  129 ,   38 ,   42 ,  235 ,  246 ,  255 ,  238 ,  255 ,   10 ,    0 ,   59 ,    0 ,   79 ,   31 ,   62 ,    5 ,  184 ,   58 ,  106 ,  203 ,    8 ,  128 ,    0 ,    0 ,    0 ,  128 ,    0 ,    0 ,    0 ,    0 ,    9 ,    9 ,    0 ,    0 ,    0 ,    0 ,    0 ,  201 ,   82 ,  106 ,  203 ,   40 ,    8 ,    0 ,   23 ,  112 ,  130 ,  197 ,  131 ,  127 ,  199 ,  124 
E: 000000.216862 64 01 81 7e 82 7f 00 00 a4 08 00 00 00 81 26 2a eb f6 ff ee ff 0a 00 3b 00 4f 1f 3e 05 b8 3a 6a cb 08 80 00 00 00 80 00 00 00 00 09 09 00 00 00 00 00 c9 52 6a cb 28 08 00 17 70 82 c5 83 7f c7 7c
# ReportID: 1 / X:  129 | Y:  126 | Z:  130 | Rz:  127 | Rx:    0 | Ry:    0 | 0xff000020:  165 | Hat switch:   8 | Button: 0  0  0  0  0  0  0  0  0  0  0  0  0  0  0 | 0xff000021: 0 , 0 , 0 , 0 , 0 , 0 , 0 , 0 , 0 , 0 , 0 , 0 , 0 | 0xff000022:  130 ,   38 ,   42 ,  235 ,  245 ,  255 ,  238 ,  255 ,   10 ,    0 ,   56 ,    0 ,   68 ,   31 ,   64 ,    5 ,  171 ,  105 ,  106 ,  203 ,    8 ,  128 ,    0 ,    0 ,    0 ,  128 ,    0 ,    0 ,    0 ,    0 ,    9 ,    9 ,    0 ,    0 ,    0 ,    0 ,    0 ,  169 ,  129 ,  106 ,  203 ,   40 ,    8 ,    0 ,   61 ,  154 ,    0 ,  200 ,  186 ,  111 ,  164 ,  113 
E: 000000.220865 64 01 81 7e 82 7f 00 00 a5 08 00 00 00 82 26 2a eb f5 ff ee ff 0a 00 38 00 44 1f 40 05 ab 69 6a cb 08 80 00 00 00 80 00 00 00 00 09 09 00 00 00 00 00 a9 81 6a cb 28 08 00 3d 9a 00 c8 ba 6f a4 71
# ReportID: 1 / X:  129 | Y:  126 | Z:  130 | Rz:  127 | Rx:    0 | Ry:    0 | 0xff000020:  166 | Hat switch:   8 | Button: 0  0  0  0  0  0  0  0  0  0  0  0  0  0  0 | 0xff000021: 0 , 0 , 0 , 0 , 0 , 0 , 0 , 0 , 0 , 0 , 0 , 0 , 0 | 0xff000022:  131 ,   38 ,   42 ,  235 ,  246 ,  255 ,  238 ,  255 ,   11 ,    0 ,   51 ,    0 ,   73 ,   31 ,   64 ,    5 ,  158 ,  152 ,  106 ,  203 ,    8 ,  128 ,    0 ,    0 ,    0 ,  128 ,    0 ,    0 ,    0 ,    0 ,    9 ,    9 ,    0 ,    0 ,    0 ,    0 ,    0 ,  137 ,  176 ,  106 ,  203 ,   40 ,    8 ,    0 ,  103 ,  215 ,   21 ,  245 ,  248 ,  146 ,  105 ,  235 
E: 000000.224866 64 01 81 7e 82 7f 00 00 a6 08 00 00 00 83 26 2a eb f6 ff ee ff 0b 00 33 00 49 1f 40 05 9e 98 6a cb 08 80 00 00 00 80 00 00 00 00 09 09 00 00 00 00 00 89 b0 6a cb 28 08 00 67 d7 15 f5 f8 92 69 eb
# ReportID: 1 / X:  129 | Y:  126 | Z:  130 | Rz:  127 | Rx:    0 | Ry:    0 | 0xff000020:  167 | Hat switch:   8 | Button: 0  0  0  0  0  0  0  0  0  0  0  0  0  0  0 | 0xff000021: 0 , 0 , 0 , 0 , 0 , 0 , 0 , 0 , 0 , 0 , 0 , 0 , 0 | 0xff000022:  132 ,   38 ,   42 ,  235 ,  246 ,  255 ,  238 ,  255 ,   10 ,    0 ,   53 ,    0 ,   77 ,   31 ,   58 ,    5 ,  145 ,  199 ,  106 ,  203 ,    8 ,  128 ,    0 ,    0 ,    0 ,  128 ,    0 ,    0 ,    0 ,    0 ,    9 ,    9 ,    0 ,    0 ,    0 ,    0 ,    0 ,  105 ,  223 ,  106 ,  203 ,   40 ,    8 ,    0 ,   34 ,  154 ,  232 ,  236 ,  180 ,  240 ,  255 ,  180 
E: 000000.229565 64 01 81 7e 82 7f 00 00 a7 08 00 00 00 84 26 2a eb f6 ff ee ff 0a 00 35 00 4d 1f 3a 05 91 c7 6a cb 08 80 00 00 00 80 00 00 00 00 09 09 00 00 00 00 00 69 df 6a cb 28 08 00 22 9a e8 ec b4 f0 ff b4
# ReportID: 1 / X:  129 | Y:  126 | Z:  130 | Rz:  127 | Rx:    0 | Ry:    0 | 0xff000020:  168 | Hat switch:   8 | Button: 0  0  0  0  0  0  0  0  0  0  0  0  0  0  0 | 0xff000021: 0 , 0 , 0 , 0 , 0 , 0 , 0 , 0 , 0 , 0 , 0 , 0 , 0 | 0xff000022:  133 ,   38 ,   42 ,  235 ,  245 ,  255 ,  239 ,  255 ,   11 ,    0 ,   56 ,    0 ,   73 ,   31 ,   57 ,    5 ,  132 ,  246 ,  106 ,  203 ,    8 ,  128 ,    0 ,    0 ,    0 ,  128 ,    0 ,    0 ,    0 ,    0 ,    9 ,    9 ,    0 ,    0 ,    0 ,    0 ,    0 ,   81 ,   14 ,  107 ,  203 ,   40 ,    8 ,    0 ,  180 ,   40 ,   30 ,  209 ,  226 ,  158 ,   18 ,   37 
E: 000000.233194 64 01 81 7e 82 7f 00 00 a8 08 00 00 00 85 26 2a eb f5 ff ef ff 0b 00 38 00 49 1f 39 05 84 f6 6a cb 08 80 00 00 00 80 00 00 00 00 09 09 00 00 00 00 00 51 0e 6b cb 28 08 00 b4 28 1e d1 e2 9e 12 25
# ReportID: 1 / X:  129 | Y:  126 | Z:  130 | Rz:  127 | Rx:    0 | Ry:    0 | 0xff000020:  169 | Hat switch:   8 | Button: 0  0  0  0  0  0  0  0  0  0  0  0  0  0  0 | 0xff000021: 0 , 0 , 0 , 0 , 0 , 0 , 0 , 0 , 0 , 0 , 0 , 0 , 0 | 0xff000022:  134 ,   38 ,   42 ,  235 ,  245 ,  255 ,  238 ,  255 ,    9 ,    0 ,   60 ,    0 ,   81 ,   31 ,   63 ,    5 ,  119 ,   37 ,  107 ,  203 ,    8 ,  128 ,    0 ,    0 ,    0 ,  128 ,    0 ,    0 ,    0 ,    0 ,    9 ,    9 ,    0 ,    0 ,    0 ,    0 ,    0 ,   73 ,   61 ,  107 ,  203 ,   40 ,    8 ,    0 ,   11 ,  140 ,   37 ,  208 ,  110 ,   18 ,   51 ,  194 
E: 000000.236840 64 01 81 7e 82 7f 00 00 a9 08 00 00 00 86 26 2a eb f5 ff ee ff 09 00 3c 00 51 1f 3f 05 77 25 6b cb 08 80 00 00 00 80 00 00 00 00 09 09 00 00 00 00 00 49 3d 6b cb 28 08 00 0b 8c 25 d0 6e 12 33 c2
# ReportID: 1 / X:  129 | Y:  126 | Z:  130 | Rz:  127 | Rx:    0 | Ry:    0 | 0xff000020:  170 | Hat switch:   8 | Button: 0  0  0  0  0  0  0  0  0  0  0  0  0  0  0 | 0xff000021: 0 , 0 , 0 , 0 , 0 , 0 , 0 , 0 , 0 , 0 , 0 , 0 , 0 | 0xff000022:  135 ,   38 ,   42 ,  235 ,  247 ,  255 ,  239 ,  255 ,    9 ,    0 ,   46 ,    0 ,   89 ,   31 ,   67 ,    5 ,  106 ,   84 ,  107 ,  203 ,    7 ,  128 ,    0 ,    0 ,    0 ,  128 ,    0 ,    0 ,    0 ,    0 ,    9 ,    9 ,    0 ,    0 ,    0 ,    0 ,    0 ,   15 ,  108 ,  107 ,  203 ,   40 ,    8 ,    0 ,  210 ,   73 ,  196 ,  123 ,  205 ,   78 ,  181 ,  108 
E: 000000.242163 64 01 81 7e 82 7f 00 00 aa 08 00 00 00 87 26 2a eb f7 ff ef ff 09 00 2e 00 59 1f 43 05 6a 54 6b cb 07 80 00 00 00 80 00 00 00 00 09 09 00 00 00 00 00 0f 6c 6b cb 28 08 00 d2 49 c4 7b cd 4e b5 6c
# ReportID: 1 / X:  129 | Y:  126 | Z:  130 | Rz:  127 | Rx:    0 | Ry:    0 | 0xff000020:  171 | Hat switch:   8 | Button: 0  0  0  0  0  0  0  0  0  0  0  0  0  0  0 | 0xff000021: 0 , 0 , 0 , 0 , 0 , 0 , 0 , 0 , 0 , 0 , 0 , 0 , 0 | 0xff000022:  136 ,   38 ,   42 ,  235 ,  246 ,  255 ,  239 ,  255 ,   10 ,    0 ,   48 ,    0 ,   78 ,   31 ,   57 ,    5 ,   93 ,  131 ,  107 ,  203 ,    7 ,  128 ,    0 ,    0 ,    0 ,  128 ,    0 ,    0 ,    0 ,    0 ,    9 ,    9 ,    0 ,    0 ,    0 ,    0 ,    0 ,  241 ,  154 ,  107 ,  203 ,   40 ,    8 ,    0 ,   97 ,  192 ,   33 ,  179 ,  200 ,  240 ,   76 ,   72 
E: 000000.245795 64 01 81 7e 82 7f 00 00 ab 08 00 00 00 88 26 2a eb f6 ff ef ff 0a 00 30 00 4e 1f 39 05 5d 83 6b cb 07 80 00 00 00 80 00 00 00 00 09 09 00 00 00 00 00 f1 9a 6b cb 28 08 00 61 c0 21 b3 c8 f0 4c 48
# ReportID: 1 / X:  129 | Y:  126 | Z:  130 | Rz:  127 | Rx:    0 | Ry:    0 | 0xff000020:  172 | Hat switch:   8 | Button: 0  0  0  0  0  0  0  0  0  0  0  0  0  0  0 | 0xff000021: 0 , 0 , 0 , 0 , 0 , 0 , 0 , 0 , 0 , 0 , 0 , 0 , 0 | 0xff000022:  137 ,   38 ,   42 ,  235 ,  247 ,  255 ,  238 ,  255 ,    9 ,    0 ,   48 ,    0 ,   89 ,   31 ,   61 ,    5 ,   80 ,  178 ,  107 ,  203 ,    8 ,  128 ,    0 ,    0 ,    0 ,  128 ,    0 ,    0 ,    0 ,    0 ,    9 ,    9 ,    0 ,    0 ,    0 ,    0 ,    0 ,  201 ,  201 ,  107 ,  203 ,   40 ,    8 ,    0 ,   83 ,   61 ,   81 ,  132 ,  193 ,   82 ,  142 ,  113 
E: 000000.249171 64 01 81 7e 82 7f 00 00 ac 08 00 00 00 89 26 2a eb f7 ff ee ff 09 00 30 00 59 1f 3d 05 50 b2 6b cb 08 80 00 00 00 80 00 00 00 00 09 09 00 00 00 00 00 c9 c9 6b cb 28 08 00 53 3d 51 84 c1 52 8e 71
# ReportID: 1 / X:  129 | Y:  126 | Z:  130 | Rz:  127 | Rx:    0 | Ry:    0 | 0xff000020:  173 | Hat switch:   8 | Button: 0  0  0  0  0  0  0  0  0  0  0  0  0  0  0 | 0xff000021: 0 , 0 , 0 , 0 , 0 , 0 , 0 , 0 , 0 , 0 , 0 , 0 , 0 | 0xff000022:  138 ,   38 ,   42 ,  235 ,  247 ,  255 ,  239 ,  255 ,   10 ,    0 ,   46 ,    0 ,   91 ,   31 ,   51 ,    5 ,   67 ,  225 ,  107 ,  203 ,    8 ,  128 ,    0 ,    0 ,    0 ,  128 ,    0 ,    0 ,    0 ,    0 ,    9 ,    9 ,    0 ,    0 ,    0 ,    0 ,    0 ,  169 ,  248 ,  107 ,  203 ,   40 ,    8 ,    0 ,  159 ,  148 ,  120 ,  150 ,  110 ,   83 ,  209 ,  125 
E: 000000.252941 64 01 81 7e 82 7f 00 00 ad 08 00 00 00 8a 26 2a eb f7 ff ef ff 0a 00 2e 00 5b 1f 33 05 43 e1 6b cb 08 80 00 00 00 80 00 00 00 00 09 09 00 00 00 00 00 a9 f8 6b cb 28 08 00 9f 94 78 96 6e 53 d1 7d
# ReportID: 1 / X:  129 | Y:  126 | Z:  130 | Rz:  127 | Rx:    0 | Ry:    0 | 0xff000020:  174 | Hat switch:   8 | Button: 0  0  0  0  0  0  0  0  0  0  0  0  0  0  0 | 0xff000021: 0 , 0 , 0 , 0 , 0 , 0 , 0 , 0 , 0 , 0 , 0 , 0 , 0 | 0xff000022:  139 ,   38 ,   42 ,  235 ,  247 ,  255 ,  237 ,  255 ,   10 ,    0 ,   43 ,    0 ,   89 ,   31 ,   57 ,    5 ,   54 ,   16 ,  108 ,  203 ,    8 ,  128 ,    0 ,    0 ,    0 ,  128 ,    0 ,    0 ,    0 ,    0 ,    9 ,    9 ,    0 ,    0 ,    0 ,    0 ,    0 ,  137 ,   39 ,  108 ,  203 ,   40 ,    8 ,    0 ,  242 ,   69 ,  230 ,   72 ,  117 ,   35 ,  247 ,  102 
E: 000000.258013 64 01 81 7e 82 7f 00 00 ae 08 00 00 00 8b 26 2a eb f7 ff ed ff 0a 00 2b 00 59 1f 39 05 36 10 6c cb 08 80 00 00 00 80 00 00 00 00 09 09 00 00 00 00 00 89 27 6c cb 28 08 00 f2 45 e6 48 75 23 f7 66
# ReportID: 1 / X:  129 | Y:  126 | Z:  130 | Rz:  127 | Rx:    0 | Ry:    0 | 0xff000020:  175 | Hat switch:   8 | Button: 0  0  0  0  0  0  0  0  0  0  0  0  0  0  0 | 0xff000021: 0 , 0 , 0 , 0 , 0 , 0 , 0 , 0 , 0 , 0 , 0 , 0 , 0 | 0xff000022:  140 ,   38 ,   42 ,  235 ,  246 ,  255 ,  238 ,  255 ,   10 ,    0 ,   36 ,    0 ,   87 ,   31 ,   58 ,    5 ,   41 ,   63 ,  108 ,  203 ,    8 ,  128 ,    0 ,    0 ,    0 ,  128 ,    0 ,    0 ,    0 ,    0 ,    9 ,    9 ,    0 ,    0 ,    0 ,    0 ,    0 ,  105 ,   86 ,  108 ,  203 ,   40 ,    8 ,    0 ,    1 ,   46 ,  205 ,  167 ,   42 ,    0 ,  238 ,   80 
E: 000000.261717 64 01 81 7e 82 7f 00 00 af 08 00 00 00 8c 26 2a eb f6 ff ee ff 0a 00 24 00 57 1f 3a 05 29 3f 6c cb 08 80 00 00 00 80 00 00 00 00 09 09 00 00 00 00 00 69 56 6c cb 28 08 00 01 2e cd a7 2a 00 ee 50
# ReportID: 1 / X:  129 | Y:  126 | Z:  130 | Rz:  127 | Rx:    0 | Ry:    0 | 0xff000020:  176 | Hat switch:   8 | Button: 0  0  0  0  0  0  0  0  0  0  0  0  0  0  0 | 0xff000021: 0 , 0 , 0 , 0 , 0 , 0 , 0 , 0 , 0 , 0 , 0 , 0 , 0 | 0xff000022:  141 ,   38 ,   42 ,  235 ,  247 ,  255 ,  237 ,  255 ,   10 ,    0 ,   44 ,    0 ,   73 ,   31 ,   50 ,    5 ,   31 ,  110 ,  108 ,  203 ,    8 ,  128 ,    0 ,    0 ,    0 ,  128 ,    0 ,    0 ,    0 ,    0 ,    9 ,    9 ,    0 ,    0 ,    0 ,    0 ,    0 ,   73 ,  133 ,  108 ,  203 ,   40 ,    8 ,    0 ,   82 ,  180 ,   46 ,   55 ,  198 ,  189 ,   84 ,  147 
E: 000000.265112 64 01 81 7e 82 7f 00 00 b0 08 00 00 00 8d 26 2a eb f7 ff ed ff 0a 00 2c 00 49 1f 32 05 1f 6e 6c cb 08 80 00 00 00 80 00 00 00 00 09 09 00 00 00 00 00 49 85 6c cb 28 08 00 52 b4 2e 37 c6 bd 54 93
# ReportID: 1 / X:  129 | Y:  126 | Z:  130 | Rz:  127 | Rx:    0 | Ry:    0 | 0xff000020:  177 | Hat switch:   8 | Button: 0  0  0  0  0  0  0  0  0  0  0  0  0  0  0 | 0xff000021: 0 , 0 , 0 , 0 , 0 , 0 , 0 , 0 , 0 , 0 , 0 , 0 , 0 | 0xff000022:  142 ,   38 ,   42 ,  235 ,  247 ,  255 ,  239 ,  255 ,    9 ,    0 ,   51 ,    0 ,   72 ,   31 ,   43 ,    5 ,   18 ,  157 ,  108 ,  203 ,    8 ,  128 ,    0 ,    0 ,    0 ,  128 ,    0 ,    0 ,    0 ,    0 ,    9 ,    9 ,    0 ,    0 ,    0 ,    0 ,    0 ,   41 ,  180 ,  108 ,  203 ,   40 ,    8 ,    0 ,  152 ,  134 ,   52 ,    8 ,  186 ,  153 ,  157 ,   96 
E: 000000.268890 64 01 81 7e 82 7f 00 00 b1 08 00 00 00 8e 26 2a eb f7 ff ef ff 09 00 33 00 48 1f 2b 05 12 9d 6c cb 08 80 00 00 00 80 00 00 00 00 09 09 00 00 00 00 00 29 b4 6c cb 28 08 00 98 86 34 08 ba 99 9d 60
# ReportID: 1 / X:  129 | Y:  126 | Z:  130 | Rz:  127 | Rx:    0 | Ry:    0 | 0xff000020:  178 | Hat switch:   8 | Button: 0  0  0  0  0  0  0  0  0  0  0  0  0  0  0 | 0xff000021: 0 , 0 , 0 , 0 , 0 , 0 , 0 , 0 , 0 , 0 , 0 , 0 , 0 | 0xff000022:  143 ,   38 ,   42 ,  235 ,  246 ,  255 ,  238 ,  255 ,   10 ,    0 ,   45 ,    0 ,   77 ,   31 ,   49 ,    5 ,    6 ,  204 ,  108 ,  203 ,    8 ,  128 ,    0 ,    0 ,    0 ,  128 ,    0 ,    0 ,    0 ,    0 ,    9 ,    9 ,    0 ,    0 ,    0 ,    0 ,    0 ,    9 ,  227 ,  108 ,  203 ,   40 ,    8 ,    0 ,  101 ,  161 ,  166 ,   74 ,  174 ,  123 ,  177 ,  175 
E: 000000.272875 64 01 81 7e 82 7f 00 00 b2 08 00 00 00 8f 26 2a eb f6 ff ee ff 0a 00 2d 00 4d 1f 31 05 06 cc 6c cb 08 80 00 00 00 80 00 00 00 00 09 09 00 00 00 00 00 09 e3 6c cb 28 08 00 65 a1 a6 4a ae 7b b1 af
# ReportID: 1 / X:  129 | Y:  126 | Z:  130 | Rz:  127 | Rx:    0 | Ry:    0 | 0xff000020:  179 | Hat switch:   8 | Button: 0  0  0  0  0  0  0  0  0  0  0  0  0  0  0 | 0xff000021: 0 , 0 , 0 , 0 , 0 , 0 , 0 , 0 , 0 , 0 , 0 , 0 , 0 | 0xff000022:  144 ,   38 ,   42 ,  235 ,  248 ,  255 ,  238 ,  255 ,   10 ,    0 ,   52 ,    0 ,   79 ,   31 ,   50 ,    5 ,  249 ,  250 ,  108 ,  203 ,    8 ,  128 ,    0 ,    0 ,    0 ,  128 ,    0 ,    0 ,    0 ,    0 ,    9 ,    9 ,    0 ,    0 ,    0 ,    0 ,    0 ,  233 ,   17 ,  109 ,  203 ,   40 ,    8 ,    0 ,  172 ,  201 ,   85 ,   36 ,  180 ,   94 ,  205 ,   52 
E: 000000.277097 64 01 81 7e 82 7f 00 00 b3 08 00 00 00 90 26 2a eb f8 ff ee ff 0a 00 34 00 4f 1f 32 05 f9 fa 6c cb 08 80 00 00 00 80 00 00 00 00 09 09 00 00 00 00 00 e9 11 6d cb 28 08 00 ac c9 55 24 b4 5e cd 34
# ReportID: 1 / X:  129 | Y:  126 | Z:  130 | Rz:  127 | Rx:    0 | Ry:    0 | 0xff000020:  180 | Hat switch:   8 | Button: 0  0  0  0  0  0  0  0  0  0  0  0  0  0  0 | 0xff000021: 0 , 0 , 0 , 0 , 0 , 0 , 0 , 0 , 0 , 0 , 0 , 0 , 0 | 0xff000022:  145 ,   38 ,   42 ,  235 ,  247 ,  255 ,  238 ,  255 ,   11 ,    0 ,   41 ,    0 ,   89 ,   31 ,   55 ,    5 ,  233 ,   41 ,  109 ,  203 ,    8 ,  128 ,    0 ,    0 ,    0 ,  128 ,    0 ,    0 ,    0 ,    0 ,    9 ,    9 ,    0 ,    0 ,    0 ,    0 ,    0 ,  201 ,   64 ,  109 ,  203 ,   40 ,    8 ,    0 ,   71 ,   58 ,    7 ,   31 ,  209 ,  122 ,  172 ,  187 
E: 000000.281794 64 01 81 7e 82 7f 00 00 b4 08 00 00 00 91 26 2a eb f7 ff ee ff 0b 00 29 00 59 1f 37 05 e9 29 6d cb 08 80 00 00 00 80 00 00 00 00 09 09 00 00 00 00 00 c9 40 6d cb 28 08 00 47 3a 07 1f d1 7a ac bb
# ReportID: 1 / X:  129 | Y:  126 | Z:  130 | Rz:  127 | Rx:    0 | Ry:    0 | 0xff000020:  181 | Hat switch:   8 | Button: 0  0  0  0  0  0  0  0  0  0  0  0  0  0  0 | 0xff000021: 0 , 0 , 0 , 0 , 0 , 0 , 0 , 0 , 0 , 0 , 0 , 0 , 0 | 0xff000022:  146 ,   38 ,   42 ,  235 ,  245 ,  255 ,  239 ,  255 ,   11 ,    0 ,   34 ,    0 ,  105 ,   31 ,   56 ,    5 ,  219 ,   88 ,  109 ,  203 ,    8 ,  128 ,    0 ,    0 ,    0 ,  128 ,    0 ,    0 ,    0 ,    0 ,    9 ,    9 ,    0 ,    0 ,    0 ,    0 ,    0 ,  169 ,  111 ,  109 ,  203 ,   40 ,    8 ,    0 ,   95 ,   52 ,  234 ,   73 ,  147 ,  187 ,  216 ,  216 
E: 000000.284894 64 01 81 7e 82 7f 00 00 b5 08 00 00 00 92 26 2a eb f5 ff ef ff 0b 00 22 00 69 1f 38 05 db 58 6d cb 08 80 00 00 00 80 00 00 00 00 09 09 00 00 00 00 00 a9 6f 6d cb 28 08 00 5f 34 ea 49 93 bb d8 d8
# ReportID: 1 / X:  129 | Y:  126 | Z:  130 | Rz:  127 | Rx:    0 | Ry:    0 | 0xff000020:  182 | Hat switch:   8 | Button: 0  0  0  0  0  0  0  0  0  0  0  0  0  0  0 | 0xff000021: 0 , 0 , 0 , 0 , 0 , 0 , 0 , 0 , 0 , 0 , 0 , 0 , 0 | 0xff000022:  147 ,   38 ,   42 ,  235 ,  247 ,  255 ,  239 ,  255 ,    9 ,    0 ,   40 ,    0 ,   87 ,   31 ,   50 ,    5 ,  206 ,  135 ,  109 ,  203 ,    8 ,  128 ,    0 ,    0 ,    0 ,  128 ,    0 ,    0 ,    0 ,    0 ,    9 ,    9 ,    0 ,    0 ,    0 ,    0 ,    0 ,  137 ,  158 ,  109 ,  203 ,   40 ,    8 ,    0 ,   37 ,  254 ,  184 ,  112 ,  141 ,  160 ,   90 ,  194 
E: 000000.289273 64 01 81 7e 82 7f 00 00 b6 08 00 00 00 93 26 2a eb f7 ff ef ff 09 00 28 00 57 1f 32 05 ce 87 6d cb 08 80 00 00 00 80 00 00 00 00 09 09 00 00 00 00 00 89 9e 6d cb 28 08 00 25 fe b8 70 8d a0 5a c2
# ReportID: 1 / X:  129 | Y:  126 | Z:  130 | Rz:  127 | Rx:    0 | Ry:    0 | 0xff000020:  183 | Hat switch:   8 | Button: 0  0  0  0  0  0  0  0  0  0  0  0  0  0  0 | 0xff000021: 0 , 0 , 0 , 0 , 0 , 0 , 0 , 0 , 0 , 0 , 0 , 0 , 0 | 0xff000022:  148 ,   38 ,   42 ,  235 ,  247 ,  255 ,  238 ,  255 ,    9 ,    0 ,   49 ,    0 ,   90 ,   31 ,   51 ,    5 ,  194 ,  182 ,  109 ,  203 ,    8 ,  128 ,    0 ,    0 ,    0 ,  128 ,    0 ,    0 ,    0 ,    0 ,    9 ,    9 ,    0 ,    0 ,    0 ,    0 ,    0 ,  105 ,  205 ,  109 ,  203 ,   40 ,    8 ,    0 ,   78 ,   44 ,   50 ,  199 ,  215 ,  105 ,  201 ,   68 
E: 000000.293126 64 01 81 7e 82 7f 00 00 b7 08 00 00 00 94 26 2a eb f7 ff ee ff 09 00 31 00 5a 1f 33 05 c2 b6 6d cb 08 80 00 00 00 80 00 00 00 00 09 09 00 00 00 00 00 69 cd 6d cb 28 08 00 4e 2c 32 c7 d7 69 c9 44
# ReportID: 1 / X:  129 | Y:  126 | Z:  130 | Rz:  127 | Rx:    0 | Ry:    0 | 0xff000020:  184 | Hat switch:   8 | Button: 0  0  0  0  0  0  0  0  0  0  0  0  0  0  0 | 0xff000021: 0 , 0 , 0 , 0 , 0 , 0 , 0 , 0 , 0 , 0 , 0 , 0 , 0 | 0xff000022:  149 ,   38 ,   42 ,  235 ,  247 ,  255 ,  238 ,  255 ,   10 ,    0 ,   52 ,    0 ,   79 ,   31 ,   57 ,    5 ,  181 ,  229 ,  109 ,  203 ,    8 ,  128 ,    0 ,    0 ,    0 ,  128 ,    0 ,    0 ,    0 ,    0 ,    9 ,    9 ,    0 ,    0 ,    0 ,    0 ,    0 ,   73 ,  252 ,  109 ,  203 ,   40 ,    8 ,    0 ,  213 ,  237 ,  193 ,  210 ,  194 ,  161 ,  157 ,   55 
E: 000000.297080 64 01 81 7e 82 7f 00 00 b8 08 00 00 00 95 26 2a eb f7 ff ee ff 0a 00 34 00 4f 1f 39 05 b5 e5 6d cb 08 80 00 00 00 80 00 00 00 00 09 09 00 00 00 00 00 49 fc 6d cb 28 08 00 d5 ed c1 d2 c2 a1 9d 37
# ReportID: 1 / X:  129 | Y:  126 | Z:  130 | Rz:  127 | Rx:    0 | Ry:    0 | 0xff000020:  185 | Hat switch:   8 | Button: 0  0  0  0  0  0  0  0  0  0  0  0  0  0  0 | 0xff000021: 0 , 0 , 0 , 0 , 0 , 0 , 0 , 0 , 0 , 0 , 0 , 0 , 0 | 0xff000022:  150 ,   38 ,   42 ,  235 ,  246 ,  255 ,  239 ,  255 ,   10 ,    0 ,   45 ,    0 ,   89 ,   31 ,   59 ,    5 ,  168 ,   20 ,  110 ,  203 ,    8 ,  128 ,    0 ,    0 ,    0 ,  128 ,    0 ,    0 ,    0 ,    0 ,    9 ,    9 ,    0 ,    0 ,    0 ,    0 ,    0 ,   41 ,   43 ,  110 ,  203 ,   40 ,    8 ,    0 ,   45 ,  120 ,   16 ,  100 ,   57 ,  179 ,  204 ,  226 
E: 000000.300895 64 01 81 7e 82 7f 00 00 b9 08 00 00 00 96 26 2a eb f6 ff ef ff 0a 00 2d 00 59 1f 3b 05 a8 14 6e cb 08 80 00 00 00 80 00 00 00 00 09 09 00 00 00 00 00 29 2b 6e cb 28 08 00 2d 78 10 64 39 b3 cc e2
# ReportID: 1 / X:  129 | Y:  126 | Z:  130 | Rz:  127 | Rx:    0 | Ry:    0 | 0xff000020:  186 | Hat switch:   8 | Button: 0  0  0  0  0  0  0  0  0  0  0  0  0  0  0 | 0xff000021: 0 , 0 , 0 , 0 , 0 , 0 , 0 , 0 , 0 , 0 , 0 , 0 , 0 | 0xff000022:  151 ,   38 ,   42 ,  235 ,  247 ,  255 ,  239 ,  255 ,    9 ,    0 ,   53 ,    0 ,   92 ,   31 ,   59 ,    5 ,  155 ,   67 ,  110 ,  203 ,    8 ,  128 ,    0 ,    0 ,    0 ,  128 ,    0 ,    0 ,    0 ,    0 ,    9 ,    9 ,    0 ,    0 ,    0 ,    0 ,    0 ,    9 ,   90 ,  110 ,  203 ,   40 ,    8 ,    0 ,  150 ,   42 ,   73 ,  245 ,   64 ,  209 ,  213 ,   12 
E: 000000.305996 64 01 81 7e 82 7f 00 00 ba 08 00 00 00 97 26 2a eb f7 ff ef ff 09 00 35 00 5c 1f 3b 05 9b 43 6e cb 08 80 00 00 00 80 00 00 00 00 09 09 00 00 00 00 00 09 5a 6e cb 28 08 00 96 2a 49 f5 40 d1 d5 0c
# ReportID: 1 / X:  129 | Y:  126 | Z:  130 | Rz:  127 | Rx:    0 | Ry:    0 | 0xff000020:  187 | Hat switch:   8 | Button: 0  0  0  0  0  0  0  0  0  0  0  0  0  0  0 | 0xff000021: 0 , 0 , 0 , 0 , 0 , 0 , 0 , 0 , 0 , 0 , 0 , 0 , 0 | 0xff000022:  152 ,   38 ,   42 ,  235 ,  246 ,  255 ,  238 ,  255 ,   10 ,    0 ,   49 ,    0 ,   71 ,   31 ,   62 ,    5 ,  142 ,  114 ,  110 ,  203 ,    8 ,  128 ,    0 ,    0 ,    0 ,  128 ,    0 ,    0 ,    0 ,    0 ,    9 ,    9 ,    0 ,    0 ,    0 ,    0 ,    0 ,  233 ,  136 ,  110 ,  203 ,   40 ,    8 ,    0 ,  159 ,  164 ,  230 ,  102 ,   83 ,  135 ,  115 ,  168 
E: 000000.309071 64 01 81 7e 82 7f 00 00 bb 08 00 00 00 98 26 2a eb f6 ff ee ff 0a 00 31 00 47 1f 3e 05 8e 72 6e cb 08 80 00 00 00 80 00 00 00 00 09 09 00 00 00 00 00 e9 88 6e cb 28 08 00 9f a4 e6 66 53 87 73 a8
# ReportID: 1 / X:  129 | Y:  126 | Z:  130 | Rz:  127 | Rx:    0 | Ry:    0 | 0xff000020:  188 | Hat switch:   8 | Button: 0  0  0  0  0  0  0  0  0  0  0  0  0  0  0 | 0xff000021: 0 , 0 , 0 , 0 , 0 , 0 , 0 , 0 , 0 , 0 , 0 , 0 , 0 | 0xff000022:  153 ,   38 ,   42 ,  235 ,  246 ,  255 ,  239 ,  255 ,   10 ,    0 ,   55 ,    0 ,   79 ,   31 ,   55 ,    5 ,  129 ,  161 ,  110 ,  203 ,    8 ,  128 ,    0 ,    0 ,    0 ,  128 ,    0 ,    0 ,    0 ,    0 ,    9 ,    9 ,    0 ,    0 ,    0 ,    0 ,    0 ,  201 ,  183 ,  110 ,  203 ,   40 ,    8 ,    0 ,  255 ,  189 ,  164 ,    8 ,   36 ,   22 ,  136 ,  245 
E: 000000.312911 64 01 81 7e 82 7f 00 00 bc 08 00 00 00 99 26 2a eb f6 ff ef ff 0a 00 37 00 4f 1f 37 05 81 a1 6e cb 08 80 00 00 00 80 00 00 00 00 09 09 00 00 00 00 00 c9 b7 6e cb 28 08 00 ff bd a4 08 24 16 88 f5
# ReportID: 1 / X:  129 | Y:  126 | Z:  130 | Rz:  127 | Rx:    0 | Ry:    0 | 0xff000020:  189 | Hat switch:   8 | Button: 0  0  0  0  0  0  0  0  0  0  0  0  0  0  0 | 0xff000021: 0 , 0 , 0 , 0 , 0 , 0 , 0 , 0 , 0 , 0 , 0 , 0 , 0 | 0xff000022:  154 ,   38 ,   42 ,  235 ,  248 ,  255 ,  238 ,  255 ,    9 ,    0 ,   57 ,    0 ,   86 ,   31 ,   64 ,    5 ,  116 ,  208 ,  110 ,  203 ,    8 ,  128 ,    0 ,    0 ,    0 ,  128 ,    0 ,    0 ,    0 ,    0 ,    9 ,    9 ,    0 ,    0 ,    0 ,    0 ,    0 ,  169 ,  230 ,  110 ,  203 ,   40 ,    8 ,    0 ,   40 ,  177 ,   89 ,   28 ,   25 ,  251 ,  181 ,   31 
E: 000000.317853 64 01 81 7e 82 7f 00 00 bd 08 00 00 00 9a 26 2a eb f8 ff ee ff 09 00 39 00 56 1f 40 05 74 d0 6e cb 08 80 00 00 00 80 00 00 00 00 09 09 00 00 00 00 00 a9 e6 6e cb 28 08 00 28 b1 59 1c 19 fb b5 1f
# ReportID: 1 / X:  129 | Y:  126 | Z:  130 | Rz:  127 | Rx:    0 | Ry:    0 | 0xff000020:  190 | Hat switch:   8 | Button: 0  0  0  0  0  0  0  0  0  0  0  0  0  0  0 | 0xff000021: 0 , 0 , 0 , 0 , 0 , 0 , 0 , 0 , 0 , 0 , 0 , 0 , 0 | 0xff000022:  155 ,   38 ,   42 ,  235 ,  248 ,  255 ,  237 ,  255 ,    9 ,    0 ,   62 ,    0 ,   76 ,   31 ,   57 ,    5 ,  103 ,  255 ,  110 ,  203 ,    8 ,  128 ,    0 ,    0 ,    0 ,  128 ,    0 ,    0 ,    0 ,    0 ,    9 ,    9 ,    0 ,    0 ,    0 ,    0 ,    0 ,  137 ,   21 ,  111 ,  203 ,   40 ,    8 ,    0 ,  105 ,   28 ,  140 ,  216 ,  101 ,   87 ,  103 ,  199 
E: 000000.321755 64 01 81 7e 82 7f 00 00 be 08 00 00 00 9b 26 2a eb f8 ff ed ff 09 00 3e 00 4c 1f 39 05 67 ff 6e cb 08 80 00 00 00 80 00 00 00 00 09 09 00 00 00 00 00 89 15 6f cb 28 08 00 69 1c 8c d8 65 57 67 c7
# ReportID: 1 / X:  129 | Y:  126 | Z:  130 | Rz:  127 | Rx:    0 | Ry:    0 | 0xff000020:  191 | Hat switch:   8 | Button: 0  0  0  0  0  0  0  0  0  0  0  0  0  0  0 | 0xff000021: 0 , 0 , 0 , 0 , 0 , 0 , 0 , 0 , 0 , 0 , 0 , 0 , 0 | 0xff000022:  156 ,   38 ,   42 ,  235 ,  246 ,  255 ,  238 ,  255 ,   11 ,    0 ,   64 ,    0 ,   75 ,   31 ,   62 ,    5 ,   90 ,   46 ,  111 ,  203 ,    8 ,  128 ,    0 ,    0 ,    0 ,  128 ,    0 ,    0 ,    0 ,    0 ,    9 ,    9 ,    0 ,    0 ,    0 ,    0 ,    0 ,  105 ,   68 ,  111 ,  203 ,   40 ,    8 ,    0 ,   69 ,  205 ,   18 ,  115 ,  147 ,  124 ,  162 ,   45 
E: 000000.325139 64 01 81 7e 82 7f 00 00 bf 08 00 00 00 9c 26 2a eb f6 ff ee ff 0b 00 40 00 4b 1f 3e 05 5a 2e 6f cb 08 80 00 00 00 80 00 00 00 00 09 09 00 00 00 00 00 69 44 6f cb 28 08 00 45 cd 12 73 93 7c a2 2d
# ReportID: 1 / X:  129 | Y:  126 | Z:  130 | Rz:  127 | Rx:    0 | Ry:    0 | 0xff000020:  192 | Hat switch:   8 | Button: 0  0  0  0  0  0  0  0  0  0  0  0  0  0  0 | 0xff000021: 0 , 0 , 0 , 0 , 0 , 0 , 0 , 0 , 0 , 0 , 0 , 0 , 0 | 0xff000022:  157 ,   38 ,   42 ,  235 ,  247 ,  255 ,  238 ,  255 ,    9 ,    0 ,   60 ,    0 ,  103 ,   31 ,   50 ,    5 ,   77 ,   93 ,  111 ,  203 ,    8 ,  128 ,    0 ,    0 ,    0 ,  128 ,    0 ,    0 ,    0 ,    0 ,    9 ,    9 ,    0 ,    0 ,    0 ,    0 ,    0 ,   73 ,  115 ,  111 ,  203 ,   40 ,    8 ,    0 ,  230 ,  197 ,  238 ,  154 ,   93 ,  230 ,   49 ,   14 
E: 000000.328858 64 01 81 7e 82 7f 00 00 c0 08 00 00 00 9d 26 2a eb f7 ff ee ff 09 00 3c 00 67 1f 32 05 4d 5d 6f cb 08 80 00 00 00 80 00 00 00 00 09 09 00 00 00 00 00 49 73 6f cb 28 08 00 e6 c5 ee 9a 5d e6 31 0e
# ReportID: 1 / X:  129 | Y:  126 | Z:  130 | Rz:  127 | Rx:    0 | Ry:    0 | 0xff000020:  193 | Hat switch:   8 | Button: 0  0  0  0  0  0  0  0  0  0  0  0  0  0  0 | 0xff000021: 0 , 0 , 0 , 0 , 0 , 0 , 0 , 0 , 0 , 0 , 0 , 0 , 0 | 0xff000022:  158 ,   38 ,   42 ,  235 ,  247 ,  255 ,  238 ,  255 ,   11 ,    0 ,   61 ,    0 ,  103 ,   31 ,   55 ,    5 ,   64 ,  140 ,  111 ,  203 ,    8 ,  128 ,    0 ,    0 ,    0 ,  128 ,    0 ,    0 ,    0 ,    0 ,    9 ,    9 ,    0 ,    0 ,    0 ,    0 ,    0 ,   41 ,  162 ,  111 ,  203 ,   40 ,    8 ,    0 ,  103 ,  203 ,  117 ,  184 ,  108 ,   62 ,  227 ,  119 
E: 000000.333967 64 01 81 7e 82 7f 00 00 c1 08 00 00 00 9e 26 2a eb f7 ff ee ff 0b 00 3d 00 67 1f 37 05 40 8c 6f cb 08 80 00 00 00 80 00 00 00 00 09 09 00 00 00 00 00 29 a2 6f cb 28 08 00 67 cb 75 b8 6c 3e e3 77
# ReportID: 1 / X:  129 | Y:  126 | Z:  130 | Rz:  127 | Rx:    0 | Ry:    0 | 0xff000020:  194 | Hat switch:   8 | Button: 0  0  0  0  0  0  0  0  0  0  0  0  0  0  0 | 0xff000021: 0 , 0 , 0 , 0 , 0 , 0 , 0 , 0 , 0 , 0 , 0 , 0 , 0 | 0xff000022:  159 ,   38 ,   42 ,  235 ,  248 ,  255 ,  237 ,  255 ,   11 ,    0 ,   54 ,    0 ,   85 ,   31 ,   58 ,    5 ,   56 ,  187 ,  111 ,  203 ,    8 ,  128 ,    0 ,    0 ,    0 ,  128 ,    0 ,    0 ,    0 ,    0 ,    9 ,    9 ,    0 ,    0 ,    0 ,    0 ,    0 ,    9 ,  209 ,  111 ,  203 ,   40 ,    8 ,    0 ,   81 ,  224 ,  220 ,  254 ,  231 ,   24 ,  180 ,  109 
E: 000000.337692 64 01 81 7e 82 7f 00 00 c2 08 00 00 00 9f 26 2a eb f8 ff ed ff 0b 00 36 00 55 1f 3a 05 38 bb 6f cb 08 80 00 00 00 80 00 00 00 00 09 09 00 00 00 00 00 09 d1 6f cb 28 08 00 51 e0 dc fe e7 18 b4 6d
# ReportID: 1 / X:  129 | Y:  126 | Z:  130 | Rz:  127 | Rx:    0 | Ry:    0 | 0xff000020:  195 | Hat switch:   8 | Button: 0  0  0  0  0  0  0  0  0  0  0  0  0  0  0 | 0xff000021: 0 , 0 , 0 , 0 , 0 , 0 , 0 , 0 , 0 , 0 , 0 , 0 , 0 | 0xff000022:  160 ,   38 ,   42 ,  235 ,  247 ,  255 ,  238 ,  255 ,   11 ,    0 ,   58 ,    0 ,   74 ,   31 ,   48 ,    5 ,   43 ,  234 ,  111 ,  203 ,    8 ,  128 ,    0 ,    0 ,    0 ,  128 ,    0 ,    0 ,    0 ,    0 ,    9 ,    9 ,    0 ,    0 ,    0 ,    0 ,    0 ,  233 ,  255 ,  111 ,  203 ,   40 ,    8 ,    0 ,  209 ,   93 ,  220 ,   26 ,   68 ,  127 ,  149 ,  111 
E: 000000.341222 64 01 81 7e 82 7f 00 00 c3 08 00 00 00 a0 26 2a eb f7 ff ee ff 0b 00 3a 00 4a 1f 30 05 2b ea 6f cb 08 80 00 00 00 80 00 00 00 00 09 09 00 00 00 00 00 e9 ff 6f cb 28 08 00 d1 5d dc 1a 44 7f 95 6f
# ReportID: 1 / X:  129 | Y:  126 | Z:  130 | Rz:  127 | Rx:    0 | Ry:    0 | 0xff000020:  196 | Hat switch:   8 | Button: 0  0  0  0  0  0  0  0  0  0  0  0  0  0  0 | 0xff000021: 0 , 0 , 0 , 0 , 0 , 0 , 0 , 0 , 0 , 0 , 0 , 0 , 0 | 0xff000022:  161 ,   38 ,   42 ,  235 ,  246 ,  255 ,  237 ,  255 ,   10 ,    0 ,   55 ,    0 ,   91 ,   31 ,   51 ,    5 ,   26 ,   25 ,  112 ,  203 ,    8 ,  128 ,    0 ,    0 ,    0 ,  128 ,    0 ,    0 ,    0 ,    0 ,    9 ,    9 ,    0 ,    0 ,    0 ,    0 ,    0 ,  201 ,   46 ,  112 ,  203 ,   40 ,    8 ,    0 ,   69 ,   54 ,  118 ,  122 ,  212 ,  198 ,  160 ,  106 
E: 000000.345132 64 01 81 7e 82 7f 00 00 c4 08 00 00 00 a1 26 2a eb f6 ff ed ff 0a 00 37 00 5b 1f 33 05 1a 19 70 cb 08 80 00 00 00 80 00 00 00 00 09 09 00 00 00 00 00 c9 2e 70 cb 28 08 00 45 36 76 7a d4 c6 a0 6a
# ReportID: 1 / X:  129 | Y:  126 | Z:  130 | Rz:  127 | Rx:    0 | Ry:    0 | 0xff000020:  197 | Hat switch:   8 | Button: 0  0  0  0  0  0  0  0  0  0  0  0  0  0  0 | 0xff000021: 0 , 0 , 0 , 0 , 0 , 0 , 0 , 0 , 0 , 0 , 0 , 0 , 0 | 0xff000022:  162 ,   38 ,   42 ,  235 ,  247 ,  255 ,  239 ,  255 ,   10 ,    0 ,   58 ,    0 ,   78 ,   31 ,   50 ,    5 ,   12 ,   72 ,  112 ,  203 ,    8 ,  128 ,    0 ,    0 ,    0 ,  128 ,    0 ,    0 ,    0 ,    0 ,    9 ,    9 ,    0 ,    0 ,    0 ,    0 ,    0 ,  169 ,   93 ,  112 ,  203 ,   40 ,    8 ,    0 ,   14 ,  137 ,  145 ,  237 ,   53 ,  130 ,  113 ,   47 
E: 000000.348938 64 01 81 7e 82 7f 00 00 c5 08 00 00 00 a2 26 2a eb f7 ff ef ff 0a 00 3a 00 4e 1f 32 05 0c 48 70 cb 08 80 00 00 00 80 00 00 00 00 09 09 00 00 00 00 00 a9 5d 70 cb 28 08 00 0e 89 91 ed 35 82 71 2f
# ReportID: 1 / X:  129 | Y:  126 | Z:  130 | Rz:  127 | Rx:    0 | Ry:    0 | 0xff000020:  198 | Hat switch:   8 | Button: 0  0  0  0  0  0  0  0  0  0  0  0  0  0  0 | 0xff000021: 0 , 0 , 0 , 0 , 0 , 0 , 0 , 0 , 0 , 0 , 0 , 0 , 0 | 0xff000022:  163 ,   38 ,   42 ,  235 ,  247 ,  255 ,  238 ,  255 ,   10 ,    0 ,   56 ,    0 ,   76 ,   31 ,   53 ,    5 ,  255 ,  118 ,  112 ,  203 ,    8 ,  128 ,    0 ,    0 ,    0 ,  128 ,    0 ,    0 ,    0 ,    0 ,    9 ,    9 ,    0 ,    0 ,    0 ,    0 ,    0 ,  137 ,  140 ,  112 ,  203 ,   40 ,    8 ,    0 ,   69 ,   65 ,   23 ,  229 ,  126 ,   44 ,  201 ,  144 
E: 000000.352809 64 01 81 7e 82 7f 00 00 c6 08 00 00 00 a3 26 2a eb f7 ff ee ff 0a 00 38 00 4c 1f 35 05 ff 76 70 cb 08 80 00 00 00 80 00 00 00 00 09 09 00 00 00 00 00 89 8c 70 cb 28 08 00 45 41 17 e5 7e 2c c9 90
# ReportID: 1 / X:  129 | Y:  126 | Z:  130 | Rz:  127 | Rx:    0 | Ry:    0 | 0xff000020:  199 | Hat switch:   8 | Button: 0  0  0  0  0  0  0  0  0  0  0  0  0  0  0 | 0xff000021: 0 , 0 , 0 , 0 , 0 , 0 , 0 , 0 , 0 , 0 , 0 , 0 , 0 | 0xff000022:  164 ,   38 ,   42 ,  235 ,  248 ,  255 ,  239 ,  255 ,   10 ,    0 ,   45 ,    0 ,   87 ,   31 ,   54 ,    5 ,  242 ,  165 ,  112 ,  203 ,    8 ,  128 ,    0 ,    0 ,    0 ,  128 ,    0 ,    0 ,    0 ,    0 ,    9 ,    9 ,    0 ,    0 ,    0 ,    0 ,    0 ,  105 ,  187 ,  112 ,  203 ,   40 ,    8 ,    0 ,  204 ,  149 ,  200 ,  238 ,  177 ,   80 ,   37 ,  156 
E: 000000.356937 64 01 81 7e 82 7f 00 00 c7 08 00 00 00 a4 26 2a eb f8 ff ef ff 0a 00 2d 00 57 1f 36 05 f2 a5 70 cb 08 80 00 00 00 80 00 00 00 00 09 09 00 00 00 00 00 69 bb 70 cb 28 08 00 cc 95 c8 ee b1 50 25 9c
# ReportID: 1 / X:  129 | Y:  126 | Z:  130 | Rz:  127 | Rx:    0 | Ry:    0 | 0xff000020:  200 | Hat switch:   8 | Button: 0  0  0  0  0  0  0  0  0  0  0  0  0  0  0 | 0xff000021: 0 , 0 , 0 , 0 , 0 , 0 , 0 , 0 , 0 , 0 , 0 , 0 , 0 | 0xff000022:  165 ,   38 ,   42 ,  235 ,  247 ,  255 ,  239 ,  255 ,   10 ,    0 ,   53 ,    0 ,   89 ,   31 ,   48 ,    5 ,  229 ,  212 ,  112 ,  203 ,    7 ,  128 ,    0 ,    0 ,    0 ,  128 ,    0 ,    0 ,    0 ,    0 ,    9 ,    9 ,    0 ,    0 ,    0 ,    0 ,    0 ,   73 ,  234 ,  112 ,  203 ,   40 ,    8 ,    0 ,   65 ,  162 ,  231 ,  132 ,  101 ,   77 ,  230 ,   38 
E: 000000.360753 64 01 81 7e 82 7f 00 00 c8 08 00 00 00 a5 26 2a eb f7 ff ef ff 0a 00 35 00 59 1f 30 05 e5 d4 70 cb 07 80 00 00 00 80 00 00 00 00 09 09 00 00 00 00 00 49 ea 70 cb 28 08 00 41 a2 e7 84 65 4d e6 26
# ReportID: 1 / X:  129 | Y:  126 | Z:  130 | Rz:  127 | Rx:    0 | Ry:    0 | 0xff000020:  201 | Hat switch:   8 | Button: 0  0  0  0  0  0  0  0  0  0  0  0  0  0  0 | 0xff000021: 0 , 0 , 0 , 0 , 0 , 0 , 0 , 0 , 0 , 0 , 0 , 0 , 0 | 0xff000022:  166 ,   38 ,   42 ,  235 ,  247 ,  255 ,  238 ,  255 ,   10 ,    0 ,   55 ,    0 ,   93 ,   31 ,   44 ,    5 ,  216 ,    3 ,  113 ,  203 ,    8 ,  128 ,    0 ,    0 ,    0 ,  128 ,    0 ,    0 ,    0 ,    0 ,    9 ,    9 ,    0 ,    0 ,    0 ,    0 ,    0 ,   41 ,   25 ,  113 ,  203 ,   40 ,    8 ,    0 ,  177 ,  171 ,  115 ,  220 ,    6 ,  180 ,  200 ,  110 
E: 000000.365012 64 01 81 7e 82 7f 00 00 c9 08 00 00 00 a6 26 2a eb f7 ff ee ff 0a 00 37 00 5d 1f 2c 05 d8 03 71 cb 08 80 00 00 00 80 00 00 00 00 09 09 00 00 00 00 00 29 19 71 cb 28 08 00 b1 ab 73 dc 06 b4 c8 6e
# ReportID: 1 / X:  129 | Y:  126 | Z:  130 | Rz:  127 | Rx:    0 | Ry:    0 | 0xff000020:  202 | Hat switch:   8 | Button: 0  0  0  0  0  0  0  0  0  0  0  0  0  0  0 | 0xff000021: 0 , 0 , 0 , 0 , 0 , 0 , 0 , 0 , 0 , 0 , 0 , 0 , 0 | 0xff000022:  167 ,   38 ,   42 ,  235 ,  247 ,  255 ,  239 ,  255 ,   10 ,    0 ,   53 ,    0 ,   87 ,   31 ,   48 ,    5 ,  203 ,   50 ,  113 ,  203 ,    8 ,  128 ,    0 ,    0 ,    0 ,  128 ,    0 ,    0 ,    0 ,    0 ,    9 ,    9 ,    0 ,    0 ,    0 ,    0 ,    0 ,    9 ,   72 ,  113 ,  203 ,   40 ,    8 ,    0 ,   45 ,  135 ,  188 ,   86 ,  102 ,  218 ,  168 ,  127 
E: 000000.368926 64 01 81 7e 82 7f 00 00 ca 08 00 00 00 a7 26 2a eb f7 ff ef ff 0a 00 35 00 57 1f 30 05 cb 32 71 cb 08 80 00 00 00 80 00 00 00 00 09 09 00 00 00 00 00 09 48 71 cb 28 08 00 2d 87 bc 56 66 da a8 7f
# ReportID: 1 / X:  129 | Y:  126 | Z:  130 | Rz:  127 | Rx:    0 | Ry:    0 | 0xff000020:  203 | Hat switch:   8 | Button: 0  0  0  0  0  0  0  0  0  0  0  0  0  0  0 | 0xff000021: 0 , 0 , 0 , 0 , 0 , 0 , 0 , 0 , 0 , 0 , 0 , 0 , 0 | 0xff000022:  168 ,   38 ,   42 ,  235 ,  247 ,  255 ,  239 ,  255 ,   10 ,    0 ,   38 ,    0 ,   88 ,   31 ,   52 ,    5 ,  190 ,   97 ,  113 ,  203 ,    8 ,  128 ,    0 ,    0 ,    0 ,  128 ,    0 ,    0 ,    0 ,    0 ,    9 ,    9 ,    0 ,    0 ,    0 ,    0 ,    0 ,  233 ,  118 ,  113 ,  203 ,   40 ,    8 ,    0 ,   45 ,  129 ,   91 ,   94 ,   72 ,  186 ,  145 ,  194 
E: 000000.374314 64 01 81 7e 82 7f 00 00 cb 08 00 00 00 a8 26 2a eb f7 ff ef ff 0a 00 26 00 58 1f 34 05 be 61 71 cb 08 80 00 00 00 80 00 00 00 00 09 09 00 00 00 00 00 e9 76 71 cb 28 08 00 2d 81 5b 5e 48 ba 91 c2
# ReportID: 1 / X:  129 | Y:  126 | Z:  130 | Rz:  127 | Rx:    0 | Ry:    0 | 0xff000020:  204 | Hat switch:   8 | Button: 0  0  0  0  0  0  0  0  0  0  0  0  0  0  0 | 0xff000021: 0 , 0 , 0 , 0 , 0 , 0 , 0 , 0 , 0 , 0 , 0 , 0 , 0 | 0xff000022:  169 ,   38 ,   42 ,  235 ,  248 ,  255 ,  238 ,  255 ,   11 ,    0 ,   48 ,    0 ,   88 ,   31 ,   50 ,    5 ,  177 ,  144 ,  113 ,  203 ,    8 ,  128 ,    0 ,    0 ,    0 ,  128 ,    0 ,    0 ,    0 ,    0 ,    9 ,    9 ,    0 ,    0 ,    0 ,    0 ,    0 ,  201 ,  165 ,  113 ,  203 ,   40 ,    8 ,    0 ,   47 ,  144 ,  102 ,  204 ,  208 ,  239 ,  253 ,  121 
E: 000000.377391 64 01 81 7e 82 7f 00 00 cc 08 00 00 00 a9 26 2a eb f8 ff ee ff 0b 00 30 00 58 1f 32 05 b1 90 71 cb 08 80 00 00 00 80 00 00 00 00 09 09 00 00 00 00 00 c9 a5 71 cb 28 08 00 2f 90 66 cc d0 ef fd 79
# ReportID: 1 / X:  129 | Y:  126 | Z:  130 | Rz:  127 | Rx:    0 | Ry:    0 | 0xff000020:  205 | Hat switch:   8 | Button: 0  0  0  0  0  0  0  0  0  0  0  0  0  0  0 | 0xff000021: 0 , 0 , 0 , 0 , 0 , 0 , 0 , 0 , 0 , 0 , 0 , 0 , 0 | 0xff000022:  170 ,   38 ,   42 ,  235 ,  247 ,  255 ,  238 ,  255 ,   10 ,    0 ,   41 ,    0 ,   78 ,   31 ,   52 ,    5 ,  164 ,  191 ,  113 ,  203 ,    8 ,  128 ,    0 ,    0 ,    0 ,  128 ,    0 ,    0 ,    0 ,    0 ,    9 ,    9 ,    0 ,    0 ,    0 ,    0 ,    0 ,  169 ,  212 ,  113 ,  203 ,   40 ,    8 ,    0 ,  210 ,   78 ,  205 ,  156 ,  206 ,  246 ,  201 ,    2 
E: 000000.380909 64 01 81 7e 82 7f 00 00 cd 08 00 00 00 aa 26 2a eb f7 ff ee ff 0a 00 29 00 4e 1f 34 05 a4 bf 71 cb 08 80 00 00 00 80 00 00 00 00 09 09 00 00 00 00 00 a9 d4 71 cb 28 08 00 d2 4e cd 9c ce f6 c9 02
# ReportID: 1 / X:  129 | Y:  126 | Z:  130 | Rz:  127 | Rx:    0 | Ry:    0 | 0xff000020:  206 | Hat switch:   8 | Button: 0  0  0  0  0  0  0  0  0  0  0  0  0  0  0 | 0xff000021: 0 , 0 , 0 , 0 , 0 , 0 , 0 , 0 , 0 , 0 , 0 , 0 , 0 | 0xff000022:  171 ,   38 ,   42 ,  235 ,  246 ,  255 ,  239 ,  255 ,    9 ,    0 ,   41 ,    0 ,   83 ,   31 ,   49 ,    5 ,  151 ,  238 ,  113 ,  203 ,    8 ,  128 ,    0 ,    0 ,    0 ,  128 ,    0 ,    0 ,    0 ,    0 ,    9 ,    9 ,    0 ,    0 ,    0 ,    0 ,    0 ,  137 ,    3 ,  114 ,  203 ,   40 ,    8 ,    0 ,  136 ,  183 ,  102 ,   43 ,  141 ,  152 ,  240 ,   25 
E: 000000.384840 64 01 81 7e 82 7f 00 00 ce 08 00 00 00 ab 26 2a eb f6 ff ef ff 09 00 29 00 53 1f 31 05 97 ee 71 cb 08 80 00 00 00 80 00 00 00 00 09 09 00 00 00 00 00 89 03 72 cb 28 08 00 88 b7 66 2b 8d 98 f0 19
# ReportID: 1 / X:  129 | Y:  126 | Z:  130 | Rz:  127 | Rx:    0 | Ry:    0 | 0xff000020:  207 | Hat switch:   8 | Button: 0  0  0  0  0  0  0  0  0  0  0  0  0  0  0 | 0xff000021: 0 , 0 , 0 , 0 , 0 , 0 , 0 , 0 , 0 , 0 , 0 , 0 , 0 | 0xff000022:  172 ,   38 ,   42 ,  235 ,  246 ,  255 ,  238 ,  255 ,   10 ,    0 ,   45 ,    0 ,   87 ,   31 ,   55 ,    5 ,  139 ,   29 ,  114 ,  203 ,    8 ,  128 ,    0 ,    0 ,    0 ,  128 ,    0 ,    0 ,    0 ,    0 ,    9 ,    9 ,    0 ,    0 ,    0 ,    0 ,    0 ,  105 ,   50 ,  114 ,  203 ,   40 ,    8 ,    0 ,  173 ,  191 ,    8 ,    1 ,  229 ,  115 ,  255 ,  146 
E: 000000.388936 64 01 81 7e 82 7f 00 00 cf 08 00 00 00 ac 26 2a eb f6 ff ee ff 0a 00 2d 00 57 1f 37 05 8b 1d 72 cb 08 80 00 00 00 80 00 00 00 00 09 09 00 00 00 00 00 69 32 72 cb 28 08 00 ad bf 08 01 e5 73 ff 92
# ReportID: 1 / X:  129 | Y:  126 | Z:  130 | Rz:  127 | Rx:    0 | Ry:    0 | 0xff000020:  208 | Hat switch:   8 | Button: 0  0  0  0  0  0  0  0  0  0  0  0  0  0  0 | 0xff000021: 0 , 0 , 0 , 0 , 0 , 0 , 0 , 0 , 0 , 0 , 0 , 0 , 0 | 0xff000022:  173 ,   38 ,   42 ,  235 ,  246 ,  255 ,  238 ,  255 ,   11 ,    0 ,   48 ,    0 ,   89 ,   31 ,   57 ,    5 ,  126 ,   76 ,  114 ,  203 ,    8 ,  128 ,    0 ,    0 ,    0 ,  128 ,    0 ,    0 ,    0 ,    0 ,    9 ,    9 ,    0 ,    0 ,    0 ,    0 ,    0 ,   73 ,   97 ,  114 ,  203 ,   40 ,    8 ,    0 ,   75 ,  189 ,  223 ,   13 ,   15 ,  189 ,   22 ,  105 
E: 000000.392859 64 01 81 7e 82 7f 00 00 d0 08 00 00 00 ad 26 2a eb f6 ff ee ff 0b 00 30 00 59 1f 39 05 7e 4c 72 cb 08 80 00 00 00 80 00 00 00 00 09 09 00 00 00 00 00 49 61 72 cb 28 08 00 4b bd df 0d 0f bd 16 69
# ReportID: 1 / X:  129 | Y:  126 | Z:  130 | Rz:  127 | Rx:    0 | Ry:    0 | 0xff000020:  209 | Hat switch:   8 | Button: 0  0  0  0  0  0  0  0  0  0  0  0  0  0  0 | 0xff000021: 0 , 0 , 0 , 0 , 0 , 0 , 0 , 0 , 0 , 0 , 0 , 0 , 0 | 0xff000022:  174 ,   38 ,   42 ,  235 ,  246 ,  255 ,  238 ,  255 ,   10 ,    0 ,   43 ,    0 ,   93 ,   31 ,   53 ,    5 ,  113 ,  123 ,  114 ,  203 ,    8 ,  128 ,    0 ,    0 ,    0 ,  128 ,    0 ,    0 ,    0 ,    0 ,    9 ,    9 ,    0 ,    0 ,    0 ,    0 ,    0 ,   41 ,  144 ,  114 ,  203 ,   40 ,    8 ,    0 ,  173 ,  212 ,   96 ,  214 ,    6 ,  216 ,  199 ,  119 
E: 000000.398099 64 01 81 7e 82 7f 00 00 d1 08 00 00 00 ae 26 2a eb f6 ff ee ff 0a 00 2b 00 5d 1f 35 05 71 7b 72 cb 08 80 00 00 00 80 00 00 00 00 09 09 00 00 00 00 00 29 90 72 cb 28 08 00 ad d4 60 d6 06 d8 c7 77
# ReportID: 1 / X:  129 | Y:  126 | Z:  130 | Rz:  127 | Rx:    0 | Ry:    0 | 0xff000020:  210 | Hat switch:   8 | Button: 0  0  0  0  0  0  0  0  0  0  0  0  0  0  0 | 0xff000021: 0 , 0 , 0 , 0 , 0 , 0 , 0 , 0 , 0 , 0 , 0 , 0 , 0 | 0xff000022:  175 ,   38 ,   42 ,  235 ,  246 ,  255 ,  238 ,  255 ,   10 ,    0 ,   41 ,    0 ,   99 ,   31 ,   60 ,    5 ,  100 ,  170 ,  114 ,  203 ,    8 ,  128 ,    0 ,    0 ,    0 ,  128 ,    0 ,    0 ,    0 ,    0 ,    9 ,    9 ,    0 ,    0 ,    0 ,    0 ,    0 ,    9 ,  191 ,  114 ,  203 ,   40 ,    8 ,    0 ,  152 ,  141 ,  138 ,   64 ,  184 ,  232 ,  140 ,  189 
E: 000000.401641 64 01 81 7e 82 7f 00 00 d2 08 00 00 00 af 26 2a eb f6 ff ee ff 0a 00 29 00 63 1f 3c 05 64 aa 72 cb 08 80 00 00 00 80 00 00 00 00 09 09 00 00 00 00 00 09 bf 72 cb 28 08 00 98 8d 8a 40 b8 e8 8c bd
# ReportID: 1 / X:  129 | Y:  126 | Z:  130 | Rz:  127 | Rx:    0 | Ry:    0 | 0xff000020:  211 | Hat switch:   8 | Button: 0  0  0  0  0  0  0  0  0  0  0  0  0  0  0 | 0xff000021: 0 , 0 , 0 , 0 , 0 , 0 , 0 , 0 , 0 , 0 , 0 , 0 , 0 | 0xff000022:  176 ,   38 ,   42 ,  235 ,  247 ,  255 ,  239 ,  255 ,   10 ,    0 ,   47 ,    0 ,   88 ,   31 ,   58 ,    5 ,   87 ,  217 ,  114 ,  203 ,    8 ,  128 ,    0 ,    0 ,    0 ,  128 ,    0 ,    0 ,    0 ,    0 ,    9 ,    9 ,    0 ,    0 ,    0 ,    0 ,    0 ,  233 ,  237 ,  114 ,  203 ,   40 ,    8 ,    0 ,  218 ,   22 ,   26 ,   25 ,  250 ,  190 ,   77 ,   79 
E: 000000.405237 64 01 81 7e 82 7f 00 00 d3 08 00 00 00 b0 26 2a eb f7 ff ef ff 0a 00 2f 00 58 1f 3a 05 57 d9 72 cb 08 80 00 00 00 80 00 00 00 00 09 09 00 00 00 00 00 e9 ed 72 cb 28 08 00 da 16 1a 19 fa be 4d 4f
# ReportID: 1 / X:  129 | Y:  126 | Z:  130 | Rz:  127 | Rx:    0 | Ry:    0 | 0xff000020:  212 | Hat switch:   8 | Button: 0  0  0  0  0  0  0  0  0  0  0  0  0  0  0 | 0xff000021: 0 , 0 , 0 , 0 , 0 , 0 , 0 , 0 , 0 , 0 , 0 , 0 , 0 | 0xff000022:  177 ,   38 ,   42 ,  235 ,  247 ,  255 ,  238 ,  255 ,   11 ,    0 ,   54 ,    0 ,   86 ,   31 ,   58 ,    5 ,  108 ,    2 ,  115 ,  203 ,    8 ,  128 ,    0 ,    0 ,    0 ,  128 ,    0 ,    0 ,    0 ,    0 ,    9 ,    9 ,    0 ,    0 ,    0 ,    0 ,    0 ,  201 ,   28 ,  115 ,  203 ,   40 ,    8 ,    0 ,  232 ,   12 ,   76 ,  194 ,  230 ,  128 ,    9 ,  239 
E: 000000.408966 64 01 81 7e 82 7f 00 00 d4 08 00 00 00 b1 26 2a eb f7 ff ee ff 0b 00 36 00 56 1f 3a 05 6c 02 73 cb 08 80 00 00 00 80 00 00 00 00 09 09 00 00 00 00 00 c9 1c 73 cb 28 08 00 e8 0c 4c c2 e6 80 09 ef
# ReportID: 1 / X:  129 | Y:  126 | Z:  130 | Rz:  127 | Rx:    0 | Ry:    0 | 0xff000020:  213 | Hat switch:   8 | Button: 0  0  0  0  0  0  0  0  0  0  0  0  0  0  0 | 0xff000021: 0 , 0 , 0 , 0 , 0 , 0 , 0 , 0 , 0 , 0 , 0 , 0 , 0 | 0xff000022:  178 ,   38 ,   42 ,  235 ,  246 ,  255 ,  239 ,  255 ,   10 ,    0 ,   49 ,    0 ,   94 ,   31 ,   49 ,    5 ,  128 ,   43 ,  115 ,  203 ,    8 ,  128 ,    0 ,    0 ,    0 ,  128 ,    0 ,    0 ,    0 ,    0 ,    9 ,    9 ,    0 ,    0 ,    0 ,    0 ,    0 ,  169 ,   75 ,  115 ,  203 ,   40 ,    8 ,    0 ,   21 ,  119 ,   97 ,  198 ,  129 ,  204 ,  228 ,    3 
E: 000000.412867 64 01 81 7e 82 7f 00 00 d5 08 00 00 00 b2 26 2a eb f6 ff ef ff 0a 00 31 00 5e 1f 31 05 80 2b 73 cb 08 80 00 00 00 80 00 00 00 00 09 09 00 00 00 00 00 a9 4b 73 cb 28 08 00 15 77 61 c6 81 cc e4 03
# ReportID: 1 / X:  129 | Y:  126 | Z:  130 | Rz:  127 | Rx:    0 | Ry:    0 | 0xff000020:  214 | Hat switch:   8 | Button: 0  0  0  0  0  0  0  0  0  0  0  0  0  0  0 | 0xff000021: 0 , 0 , 0 , 0 , 0 , 0 , 0 , 0 , 0 , 0 , 0 , 0 , 0 | 0xff000022:  179 ,   38 ,   42 ,  235 ,  246 ,  255 ,  237 ,  255 ,    9 ,    0 ,   54 ,    0 ,   82 ,   31 ,   51 ,    5 ,  115 ,   90 ,  115 ,  203 ,    8 ,  128 ,    0 ,    0 ,    0 ,  128 ,    0 ,    0 ,    0 ,    0 ,    9 ,    9 ,    0 ,    0 ,    0 ,    0 ,    0 ,  137 ,  122 ,  115 ,  203 ,   40 ,    8 ,    0 ,  139 ,  200 ,  171 ,   99 ,  146 ,   99 ,   41 ,  175 
E: 000000.417007 64 01 81 7e 82 7f 00 00 d6 08 00 00 00 b3 26 2a eb f6 ff ed ff 09 00 36 00 52 1f 33 05 73 5a 73 cb 08 80 00 00 00 80 00 00 00 00 09 09 00 00 00 00 00 89 7a 73 cb 28 08 00 8b c8 ab 63 92 63 29 af
# ReportID: 1 / X:  129 | Y:  126 | Z:  130 | Rz:  127 | Rx:    0 | Ry:    0 | 0xff000020:  215 | Hat switch:   8 | Button: 0  0  0  0  0  0  0  0  0  0  0  0  0  0  0 | 0xff000021: 0 , 0 , 0 , 0 , 0 , 0 , 0 , 0 , 0 , 0 , 0 , 0 , 0 | 0xff000022:  180 ,   38 ,   42 ,  235 ,  247 ,  255 ,  238 ,  255 ,   10 ,    0 ,   53 ,    0 ,   77 ,   31 ,   51 ,    5 ,  102 ,  137 ,  115 ,  203 ,    8 ,  128 ,    0 ,    0 ,    0 ,  128 ,    0 ,    0 ,    0 ,    0 ,    9 ,    9 ,    0 ,    0 ,    0 ,    0 ,    0 ,  105 ,  169 ,  115 ,  203 ,   40 ,    8 ,    0 ,  237 ,   34 ,  139 ,  205 ,  242 ,   62 ,  140 ,   70 
E: 000000.421908 64 01 81 7e 82 7f 00 00 d7 08 00 00 00 b4 26 2a eb f7 ff ee ff 0a 00 35 00 4d 1f 33 05 66 89 73 cb 08 80 00 00 00 80 00 00 00 00 09 09 00 00 00 00 00 69 a9 73 cb 28 08 00 ed 22 8b cd f2 3e 8c 46
# ReportID: 1 / X:  129 | Y:  126 | Z:  130 | Rz:  127 | Rx:    0 | Ry:    0 | 0xff000020:  216 | Hat switch:   8 | Button: 0  0  0  0  0  0  0  0  0  0  0  0  0  0  0 | 0xff000021: 0 , 0 , 0 , 0 , 0 , 0 , 0 , 0 , 0 , 0 , 0 , 0 , 0 | 0xff000022:  181 ,   38 ,   42 ,  235 ,  247 ,  255 ,  238 ,  255 ,   10 ,    0 ,   50 ,    0 ,   91 ,   31 ,   49 ,    5 ,   89 ,  184 ,  115 ,  203 ,    8 ,  128 ,    0 ,    0 ,    0 ,  128 ,    0 ,    0 ,    0 ,    0 ,    9 ,    9 ,    0 ,    0 ,    0 ,    0 ,    0 ,   73 ,  216 ,  115 ,  203 ,   40 ,    8 ,    0 ,  238 ,  161 ,   85 ,  159 ,  145 ,  134 ,   95 ,   15 
E: 000000.425238 64 01 81 7e 82 7f 00 00 d8 08 00 00 00 b5 26 2a eb f7 ff ee ff 0a 00 32 00 5b 1f 31 05 59 b8 73 cb 08 80 00 00 00 80 00 00 00 00 09 09 00 00 00 00 00 49 d8 73 cb 28 08 00 ee a1 55 9f 91 86 5f 0f
