# Sony Interactive Entertainment DualSense Wireless Controller
# 0x05, 0x01,                    // Usage Page (Generic Desktop)        0
# 0x09, 0x05,                    // Usage (Game Pad)                    2
# 0xa1, 0x01,                    // Collection (Application)            4
# 0x85, 0x01,                    //  Report ID (1)                      6
# 0x09, 0x30,                    //  Usage (X)                          8
# 0x09, 0x31,                    //  Usage (Y)                          10
# 0x09, 0x32,                    //  Usage (Z)                          12
# 0x09, 0x35,                    //  Usage (Rz)                         14
# 0x09, 0x33,                    //  Usage (Rx)                         16
# 0x09, 0x34,                    //  Usage (Ry)                         18
# 0x15, 0x00,                    //  Logical Minimum (0)                20
# 0x26, 0xff, 0x00,              //  Logical Maximum (255)              22
# 0x75, 0x08,                    //  Report Size (8)                    25
# 0x95, 0x06,                    //  Report Count (6)                   27
# 0x81, 0x02,                    //  Input (Data,Var,Abs)               29
# 0x06, 0x00, 0xff,              //  Usage Page (Vendor Defined Page 1) 31
# 0x09, 0x20,                    //  Usage (Vendor Usage 0x20)          34
# 0x95, 0x01,                    //  Report Count (1)                   36
# 0x81, 0x02,                    //  Input (Data,Var,Abs)               38
# 0x05, 0x01,                    //  Usage Page (Generic Desktop)       40
# 0x09, 0x39,                    //  Usage (Hat switch)                 42
# 0x15, 0x00,                    //  Logical Minimum (0)                44
# 0x25, 0x07,                    //  Logical Maximum (7)                46
# 0x35, 0x00,                    //  Physical Minimum (0)               48
# 0x46, 0x3b, 0x01,              //  Physical Maximum (315)             50
# 0x65, 0x14,                    //  Unit (EnglishRotation: deg)        53
# 0x75, 0x04,                    //  Report Size (4)                    55
# 0x95, 0x01,                    //  Report Count (1)                   57
# 0x81, 0x42,                    //  Input (Data,Var,Abs,Null)          59
# 0x65, 0x00,                    //  Unit (None)                        61
# 0x05, 0x09,                    //  Usage Page (Button)                63
# 0x19, 0x01,                    //  Usage Minimum (1)                  65
# 0x29, 0x0f,                    //  Usage Maximum (15)                 67
# 0x15, 0x00,                    //  Logical Minimum (0)                69
# 0x25, 0x01,                    //  Logical Maximum (1)                71
# 0x75, 0x01,                    //  Report Size (1)                    73
# 0x95, 0x0f,                    //  Report Count (15)                  75
# 0x81, 0x02,                    //  Input (Data,Var,Abs)               77
# 0x06, 0x00, 0xff,              //  Usage Page (Vendor Defined Page 1) 79
# 0x09, 0x21,                    //  Usage (Vendor Usage 0x21)          82
# 0x95, 0x0d,                    //  Report Count (13)                  84
# 0x81, 0x02,                    //  Input (Data,Var,Abs)               86
# 0x06, 0x00, 0xff,              //  Usage Page (Vendor Defined Page 1) 88
# 0x09, 0x22,                    //  Usage (Vendor Usage 0x22)          91
# 0x15, 0x00,                    //  Logical Minimum (0)                93
# 0x26, 0xff, 0x00,              //  Logical Maximum (255)              95
# 0x75, 0x08,                    //  Report Size (8)                    98
# 0x95, 0x34,                    //  Report Count (52)                  100
# 0x81, 0x02,                    //  Input (Data,Var,Abs)               102
# 0x85, 0x02,                    //  Report ID (2)                      104
# 0x09, 0x23,                    //  Usage (Vendor Usage 0x23)          106
# 0x95, 0x2f,                    //  Report Count (47)                  108
# 0x91, 0x02,                    //  Output (Data,Var,Abs)              110
# 0x85, 0x05,                    //  Report ID (5)                      112
# 0x09, 0x33,                    //  Usage (Vendor Usage 0x33)          114
# 0x95, 0x28,                    //  Report Count (40)                  116
# 0xb1, 0x02,                    //  Feature (Data,Var,Abs)             118
# 0x85, 0x08,                    //  Report ID (8)                      120
# 0x09, 0x34,                    //  Usage (Vendor Usage 0x34)          122
# 0x95, 0x2f,                    //  Report Count (47)                  124
# 0xb1, 0x02,                    //  Feature (Data,Var,Abs)             126
# 0x85, 0x09,                    //  Report ID (9)                      128
# 0x09, 0x24,                    //  Usage (Vendor Usage 0x24)          130
# 0x95, 0x13,                    //  Report Count (19)                  132
# 0xb1, 0x02,                    //  Feature (Data,Var,Abs)             134
# 0x85, 0x0a,                    //  Report ID (10)                     136
# 0x09, 0x25,                    //  Usage (Vendor Usage 0x25)          138
# 0x95, 0x1a,                    //  Report Count (26)                  140
# 0xb1, 0x02,                    //  Feature (Data,Var,Abs)             142
# 0x85, 0x20,                    //  Report ID (32)                     144
# 0x09, 0x26,                    //  Usage (Vendor Usage 0x26)          146
# 0x95, 0x3f,                    //  Report Count (63)                  148
# 0xb1, 0x02,                    //  Feature (Data,Var,Abs)             150
# 0x85, 0x21,                    //  Report ID (33)                     152
# 0x09, 0x27,                    //  Usage (Vendor Usage 0x27)          154
# 0x95, 0x04,                    //  Report Count (4)                   156
# 0xb1, 0x02,                    //  Feature (Data,Var,Abs)             158
# 0x85, 0x22,                    //  Report ID (34)                     160
# 0x09, 0x40,                    //  Usage (Vendor Usage 0x40)          162
# 0x95, 0x3f,                    //  Report Count (63)                  164
# 0xb1, 0x02,                    //  Feature (Data,Var,Abs)             166
# 0x85, 0x80,                    //  Report ID (128)                    168
# 0x09, 0x28,                    //  Usage (Vendor Usage 0x28)          170
# 0x95, 0x3f,                    //  Report Count (63)                  172
# 0xb1, 0x02,                    //  Feature (Data,Var,Abs)             174
# 0x85, 0x81,                    //  Report ID (129)                    176
# 0x09, 0x29,                    //  Usage (Vendor Usage 0x29)          178
# 0x95, 0x3f,                    //  Report Count (63)                  180
# 0xb1, 0x02,                    //  Feature (Data,Var,Abs)             182
# 0x85, 0x82,                    //  Report ID (130)                    184
# 0x09, 0x2a,                    //  Usage (Vendor Usage 0x2a)          186
# 0x95, 0x09,                    //  Report Count (9)                   188
# 0xb1, 0x02,                    //  Feature (Data,Var,Abs)             190
# 0x85, 0x83,                    //  Report ID (131)                    192
# 0x09, 0x2b,                    //  Usage (Vendor Usage 0x2b)          194
# 0x95, 0x3f,                    //  Report Count (63)                  196
# 0xb1, 0x02,                    //  Feature (Data,Var,Abs)             198
# 0x85, 0x84,                    //  Report ID (132)                    200
# 0x09, 0x2c,                    //  Usage (Vendor Usage 0x2c)          202
# 0x95, 0x3f,                    //  Report Count (63)                  204
# 0xb1, 0x02,                    //  Feature (Data,Var,Abs)             206
# 0x85, 0x85,                    //  Report ID (133)                    208
# 0x09, 0x2d,                    //  Usage (Vendor Usage 0x2d)          210
# 0x95, 0x02,                    //  Report Count (2)                   212
# 0xb1, 0x02,                    //  Feature (Data,Var,Abs)             214
# 0x85, 0xa0,                    //  Report ID (160)                    216
# 0x09, 0x2e,                    //  Usage (Vendor Usage 0x2e)          218
# 0x95, 0x01,                    //  Report Count (1)                   220
# 0xb1, 0x02,                    //  Feature (Data,Var,Abs)             222
# 0x85, 0xe0,                    //  Report ID (224)                    224
# 0x09, 0x2f,                    //  Usage (Vendor Usage 0x2f)          226
# 0x95, 0x3f,                    //  Report Count (63)                  228
# 0xb1, 0x02,                    //  Feature (Data,Var,Abs)             230
# 0x85, 0xf0,                    //  Report ID (240)                    232
# 0x09, 0x30,                    //  Usage (Vendor Usage 0x30)          234
# 0x95, 0x3f,                    //  Report Count (63)                  236
# 0xb1, 0x02,                    //  Feature (Data,Var,Abs)             238
# 0x85, 0xf1,                    //  Report ID (241)                    240
# 0x09, 0x31,                    //  Usage (Vendor Usage 0x31)          242
# 0x95, 0x3f,                    //  Report Count (63)                  244
# 0xb1, 0x02,                    //  Feature (Data,Var,Abs)             246
# 0x85, 0xf2,                    //  Report ID (242)                    248
# 0x09, 0x32,                    //  Usage (Vendor Usage 0x32)          250
# 0x95, 0x0f,                    //  Report Count (15)                  252
# 0xb1, 0x02,                    //  Feature (Data,Var,Abs)             254
# 0x85, 0xf4,                    //  Report ID (244)                    256
# 0x09, 0x35,                    //  Usage (Vendor Usage 0x35)          258
# 0x95, 0x3f,                    //  Report Count (63)                  260
# 0xb1, 0x02,                    //  Feature (Data,Var,Abs)             262
# 0x85, 0xf5,                    //  Report ID (245)                    264
# 0x09, 0x36,                    //  Usage (Vendor Usage 0x36)          266
# 0x95, 0x03,                    //  Report Count (3)                   268
# 0xb1, 0x02,                    //  Feature (Data,Var,Abs)             270
# 0xc0,                          // End Collection                      272
# 
R: 273 05 01 09 05 a1 01 85 01 09 30 09 31 09 32 09 35 09 33 09 34 15 00 26 ff 00 75 08 95 06 81 02 06 00 ff 09 20 95 01 81 02 05 01 09 39 15 00 25 07 35 00 46 3b 01 65 14 75 04 95 01 81 42 65 00 05 09 19 01 29 0f 15 00 25 01 75 01 95 0f 81 02 06 00 ff 09 21 95 0d 81 02 06 00 ff 09 22 15 00 26 ff 00 75 08 95 34 81 02 85 02 09 23 95 2f 91 02 85 05 09 33 95 28 b1 02 85 08 09 34 95 2f b1 02 85 09 09 24 95 13 b1 02 85 0a 09 25 95 1a b1 02 85 20 09 26 95 3f b1 02 85 21 09 27 95 04 b1 02 85 22 09 40 95 3f b1 02 85 80 09 28 95 3f b1 02 85 81 09 29 95 3f b1 02 85 82 09 2a 95 09 b1 02 85 83 09 2b 95 3f b1 02 85 84 09 2c 95 3f b1 02 85 85 09 2d 95 02 b1 02 85 a0 09 2e 95 01 b1 02 85 e0 09 2f 95 3f b1 02 85 f0 09 30 95 3f b1 02 85 f1 09 31 95 3f b1 02 85 f2 09 32 95 0f b1 02 85 f4 09 35 95 3f b1 02 85 f5 09 36 95 03 b1 02 c0
N: Sony Interactive Entertainment DualSense Wireless Controller
I: 3 054c 0ce6
# ReportID: 1 / X:  132 | Y:  127 | Z:  130 | Rz:  127 | Rx:    0 | Ry:    0 | 0xff000020:  217 | Hat switch:   8 | Button: 0  0  0  0  0  0  0  0  0  0  0  0  0  0  0 | 0xff000021: 0 , 0 , 0 , 0 , 0 , 0 , 0 , 0 , 0 , 0 , 0 , 0 , 0 | 0xff000022:  182 ,   47 ,   42 ,  235 ,  246 ,  255 ,  240 ,  255 ,   10 ,    0 ,   63 ,    0 ,   29 ,   31 ,   50 ,    5 ,   99 ,  206 ,   25 ,  205 ,    8 ,  128 ,    0 ,    0 ,    0 ,  128 ,    0 ,    0 ,    0 ,    0 ,    9 ,    9 ,    0 ,    0 ,    0 ,    0 ,    0 ,   41 ,  231 ,   25 ,  205 ,   40 ,    8 ,    0 ,   75 ,  221 ,   17 ,   75 ,  245 ,   29 ,  115 ,  142 
E: 000000.000000 64 01 84 7f 82 7f 00 00 d9 08 00 00 00 b6 2f 2a eb f6 ff f0 ff 0a 00 3f 00 1d 1f 32 05 63 ce 19 cd 08 80 00 00 00 80 00 00 00 00 09 09 00 00 00 00 00 29 e7 19 cd 28 08 00 4b dd 11 4b f5 1d 73 8e
# ReportID: 1 / X:  132 | Y:  127 | Z:  130 | Rz:  127 | Rx:    0 | Ry:    0 | 0xff000020:  218 | Hat switch:   8 | Button: 0  0  0  0  0  0  0  0  0  0  0  0  0  0  0 | 0xff000021: 0 , 0 , 0 , 0 , 0 , 0 , 0 , 0 , 0 , 0 , 0 , 0 , 0 | 0xff000022:  183 ,   47 ,   42 ,  235 ,  247 ,  255 ,  239 ,  255 ,   10 ,    0 ,   63 ,    0 ,   83 ,   31 ,   60 ,    5 ,   86 ,  253 ,   25 ,  205 ,    8 ,  128 ,    0 ,    0 ,    0 ,  128 ,    0 ,    0 ,    0 ,    0 ,    9 ,    9 ,    0 ,    0 ,    0 ,    0 ,    0 ,    9 ,   22 ,   26 ,  205 ,   40 ,    8 ,    0 ,  155 ,   91 ,   62 ,   71 ,  188 ,   47 ,  189 ,  220 
E: 000000.000479 64 01 84 7f 82 7f 00 00 da 08 00 00 00 b7 2f 2a eb f7 ff ef ff 0a 00 3f 00 53 1f 3c 05 56 fd 19 cd 08 80 00 00 00 80 00 00 00 00 09 09 00 00 00 00 00 09 16 1a cd 28 08 00 9b 5b 3e 47 bc 2f bd dc
# ReportID: 1 / X:  132 | Y:  127 | Z:  129 | Rz:  127 | Rx:    0 | Ry:    0 | 0xff000020:  219 | Hat switch:   8 | Button: 0  0  0  0  0  0  0  0  0  0  0  0  0  0  0 | 0xff000021: 0 , 0 , 0 , 0 , 0 , 0 , 0 , 0 , 0 , 0 , 0 , 0 , 0 | 0xff000022:  184 ,   47 ,   42 ,  235 ,  247 ,  255 ,  239 ,  255 ,   11 ,    0 ,   59 ,    0 ,  123 ,   31 ,   72 ,    5 ,   73 ,   44 ,   26 ,  205 ,    8 ,  128 ,    0 ,    0 ,    0 ,  128 ,    0 ,    0 ,    0 ,    0 ,    9 ,    9 ,    0 ,    0 ,    0 ,    0 ,    0 ,  233 ,   68 ,   26 ,  205 ,   40 ,    8 ,    0 ,  187 ,  132 ,   46 ,  218 ,  134 ,   91 ,   81 ,  160 
E: 000000.004827 64 01 84 7f 81 7f 00 00 db 08 00 00 00 b8 2f 2a eb f7 ff ef ff 0b 00 3b 00 7b 1f 48 05 49 2c 1a cd 08 80 00 00 00 80 00 00 00 00 09 09 00 00 00 00 00 e9 44 1a cd 28 08 00 bb 84 2e da 86 5b 51 a0
# ReportID: 1 / X:  132 | Y:  127 | Z:  130 | Rz:  127 | Rx:    0 | Ry:    0 | 0xff000020:  220 | Hat switch:   8 | Button: 0  0  0  0  0  0  0  0  0  0  0  0  0  0  0 | 0xff000021: 0 , 0 , 0 , 0 , 0 , 0 , 0 , 0 , 0 , 0 , 0 , 0 , 0 | 0xff000022:  185 ,   47 ,   42 ,  235 ,  247 ,  255 ,  239 ,  255 ,   11 ,    0 ,   49 ,    0 ,  168 ,   31 ,   60 ,    5 ,   60 ,   91 ,   26 ,  205 ,    8 ,  128 ,    0 ,    0 ,    0 ,  128 ,    0 ,    0 ,    0 ,    0 ,    9 ,    9 ,    0 ,    0 ,    0 ,    0 ,    0 ,  201 ,  115 ,   26 ,  205 ,   40 ,    8 ,    0 ,   67 ,  154 ,  221 ,   24 ,   80 ,   92 ,  109 ,   12 
E: 000000.008405 64 01 84 7f 82 7f 00 00 dc 08 00 00 00 b9 2f 2a eb f7 ff ef ff 0b 00 31 00 a8 1f 3c 05 3c 5b 1a cd 08 80 00 00 00 80 00 00 00 00 09 09 00 00 00 00 00 c9 73 1a cd 28 08 00 43 9a dd 18 50 5c 6d 0c
# ReportID: 1 / X:  132 | Y:  127 | Z:  130 | Rz:  127 | Rx:    0 | Ry:    0 | 0xff000020:  221 | Hat switch:   8 | Button: 0  0  0  0  0  0  0  0  0  0  0  0  0  0  0 | 0xff000021: 0 , 0 , 0 , 0 , 0 , 0 , 0 , 0 , 0 , 0 , 0 , 0 , 0 | 0xff000022:  186 ,   47 ,   42 ,  235 ,  246 ,  255 ,  239 ,  255 ,   11 ,    0 ,   50 ,    0 ,  117 ,   31 ,   47 ,    5 ,   47 ,  138 ,   26 ,  205 ,    8 ,  128 ,    0 ,    0 ,    0 ,  128 ,    0 ,    0 ,    0 ,    0 ,    9 ,    9 ,    0 ,    0 ,    0 ,    0 ,    0 ,  169 ,  162 ,   26 ,  205 ,   40 ,    8 ,    0 ,  202 ,  172 ,   35 ,  112 ,  120 ,   79 ,  222 ,   32 
E: 000000.012535 64 01 84 7f 82 7f 00 00 dd 08 00 00 00 ba 2f 2a eb f6 ff ef ff 0b 00 32 00 75 1f 2f 05 2f 8a 1a cd 08 80 00 00 00 80 00 00 00 00 09 09 00 00 00 00 00 a9 a2 1a cd 28 08 00 ca ac 23 70 78 4f de 20
# ReportID: 1 / X:  132 | Y:  127 | Z:  130 | Rz:  127 | Rx:    0 | Ry:    0 | 0xff000020:  222 | Hat switch:   8 | Button: 0  0  0  0  0  0  0  0  0  0  0  0  0  0  0 | 0xff000021: 0 , 0 , 0 , 0 , 0 , 0 , 0 , 0 , 0 , 0 , 0 , 0 , 0 | 0xff000022:  187 ,   47 ,   42 ,  235 ,  247 ,  255 ,  239 ,  255 ,   10 ,    0 ,   42 ,    0 ,   42 ,   31 ,   30 ,    5 ,   34 ,  185 ,   26 ,  205 ,    8 ,  128 ,    0 ,    0 ,    0 ,  128 ,    0 ,    0 ,    0 ,    0 ,    9 ,    9 ,    0 ,    0 ,    0 ,    0 ,    0 ,  137 ,  209 ,   26 ,  205 ,   40 ,    8 ,    0 ,  139 ,  200 ,  155 ,  150 ,   18 ,   70 ,   71 ,  240 
E: 000000.017009 64 01 84 7f 82 7f 00 00 de 08 00 00 00 bb 2f 2a eb f7 ff ef ff 0a 00 2a 00 2a 1f 1e 05 22 b9 1a cd 08 80 00 00 00 80 00 00 00 00 09 09 00 00 00 00 00 89 d1 1a cd 28 08 00 8b c8 9b 96 12 46 47 f0
# ReportID: 1 / X:  132 | Y:  127 | Z:  130 | Rz:  127 | Rx:    0 | Ry:    0 | 0xff000020:  223 | Hat switch:   8 | Button: 0  0  0  0  0  0  0  0  0  0  0  0  0  0  0 | 0xff000021: 0 , 0 , 0 , 0 , 0 , 0 , 0 , 0 , 0 , 0 , 0 , 0 , 0 | 0xff000022:  188 ,   47 ,   42 ,  235 ,  246 ,  255 ,  239 ,  255 ,   11 ,    0 ,   57 ,    0 ,   34 ,   31 ,   42 ,    5 ,   21 ,  232 ,   26 ,  205 ,    8 ,  128 ,    0 ,    0 ,    0 ,  128 ,    0 ,    0 ,    0 ,    0 ,    9 ,    9 ,    0 ,    0 ,    0 ,    0 ,    0 ,  105 ,    0 ,   27 ,  205 ,   40 ,    8 ,    0 ,   60 ,  197 ,   97 ,  236 ,  187 ,  154 ,  138 ,  204 
E: 000000.021486 64 01 84 7f 82 7f 00 00 df 08 00 00 00 bc 2f 2a eb f6 ff ef ff 0b 00 39 00 22 1f 2a 05 15 e8 1a cd 08 80 00 00 00 80 00 00 00 00 09 09 00 00 00 00 00 69 00 1b cd 28 08 00 3c c5 61 ec bb 9a 8a cc
# ReportID: 1 / X:  132 | Y:  127 | Z:  130 | Rz:  127 | Rx:    0 | Ry:    0 | 0xff000020:  224 | Hat switch:   8 | Button: 0  0  0  0  0  0  0  0  0  0  0  0  0  0  0 | 0xff000021: 0 , 0 , 0 , 0 , 0 , 0 , 0 , 0 , 0 , 0 , 0 , 0 , 0 | 0xff000022:  189 ,   47 ,   42 ,  235 ,  246 ,  255 ,  238 ,  255 ,   10 ,    0 ,   44 ,    0 ,   69 ,   31 ,   40 ,    5 ,    8 ,   23 ,   27 ,  205 ,    8 ,  128 ,    0 ,    0 ,    0 ,  128 ,    0 ,    0 ,    0 ,    0 ,    9 ,    9 ,    0 ,    0 ,    0 ,    0 ,    0 ,   73 ,   47 ,   27 ,  205 ,   40 ,    8 ,    0 ,    4 ,  108 ,   25 ,   33 ,   88 ,  130 ,   55 ,   37 
E: 000000.024606 64 01 84 7f 82 7f 00 00 e0 08 00 00 00 bd 2f 2a eb f6 ff ee ff 0a 00 2c 00 45 1f 28 05 08 17 1b cd 08 80 00 00 00 80 00 00 00 00 09 09 00 00 00 00 00 49 2f 1b cd 28 08 00 04 6c 19 21 58 82 37 25
# ReportID: 1 / X:  132 | Y:  127 | Z:  130 | Rz:  127 | Rx:    0 | Ry:    0 | 0xff000020:  225 | Hat switch:   8 | Button: 0  0  0  0  0  0  0  0  0  0  0  0  0  0  0 | 0xff000021: 0 , 0 , 0 , 0 , 0 , 0 , 0 , 0 , 0 , 0 , 0 , 0 , 0 | 0xff000022:  190 ,   47 ,   42 ,  235 ,  246 ,  255 ,  240 ,  255 ,   10 ,    0 ,   43 ,    0 ,   85 ,   31 ,   50 ,    5 ,  251 ,   69 ,   27 ,  205 ,    7 ,  128 ,    0 ,    0 ,    0 ,  128 ,    0 ,    0 ,    0 ,    0 ,    9 ,    9 ,    0 ,    0 ,    0 ,    0 ,    0 ,   41 ,   94 ,   27 ,  205 ,   40 ,    8 ,    0 ,   86 ,  206 ,  177 ,  164 ,  154 ,   33 ,  221 ,   61 
E: 000000.028516 64 01 84 7f 82 7f 00 00 e1 08 00 00 00 be 2f 2a eb f6 ff f0 ff 0a 00 2b 00 55 1f 32 05 fb 45 1b cd 07 80 00 00 00 80 00 00 00 00 09 09 00 00 00 00 00 29 5e 1b cd 28 08 00 56 ce b1 a4 9a 21 dd 3d
# ReportID: 1 / X:  132 | Y:  127 | Z:  130 | Rz:  127 | Rx:    0 | Ry:    0 | 0xff000020:  226 | Hat switch:   8 | Button: 0  0  0  0  0  0  0  0  0  0  0  0  0  0  0 | 0xff000021: 0 , 0 , 0 , 0 , 0 , 0 , 0 , 0 , 0 , 0 , 0 , 0 , 0 | 0xff000022:  191 ,   47 ,   42 ,  235 ,  247 ,  255 ,  239 ,  255 ,   10 ,    0 ,   33 ,    0 ,  115 ,   31 ,   51 ,    5 ,  239 ,  116 ,   27 ,  205 ,    8 ,  128 ,    0 ,    0 ,    0 ,  128 ,    0 ,    0 ,    0 ,    0 ,    9 ,    9 ,    0 ,    0 ,    0 ,    0 ,    0 ,    9 ,  141 ,   27 ,  205 ,   40 ,    8 ,    0 ,   65 ,   51 ,   74 ,   15 ,  153 ,  177 ,   99 ,  114 
E: 000000.032623 64 01 84 7f 82 7f 00 00 e2 08 00 00 00 bf 2f 2a eb f7 ff ef ff 0a 00 21 00 73 1f 33 05 ef 74 1b cd 08 80 00 00 00 80 00 00 00 00 09 09 00 00 00 00 00 09 8d 1b cd 28 08 00 41 33 4a 0f 99 b1 63 72
# ReportID: 1 / X:  132 | Y:  127 | Z:  130 | Rz:  127 | Rx:    0 | Ry:    0 | 0xff000020:  227 | Hat switch:   8 | Button: 0  0  0  0  0  0  0  0  0  0  0  0  0  0  0 | 0xff000021: 0 , 0 , 0 , 0 , 0 , 0 , 0 , 0 , 0 , 0 , 0 , 0 , 0 | 0xff000022:  192 ,   47 ,   42 ,  235 ,  244 ,  255 ,  238 ,  255 ,   11 ,    0 ,   31 ,    0 ,  137 ,   31 ,   51 ,    5 ,  226 ,  163 ,   27 ,  205 ,    8 ,  128 ,    0 ,    0 ,    0 ,  128 ,    0 ,    0 ,    0 ,    0 ,    9 ,    9 ,    0 ,    0 ,    0 ,    0 ,    0 ,  233 ,  187 ,   27 ,  205 ,   40 ,    8 ,    0 ,  138 ,  201 ,    3 ,   32 ,  163 ,   14 ,  143 ,  192 
E: 000000.036609 64 01 84 7f 82 7f 00 00 e3 08 00 00 00 c0 2f 2a eb f4 ff ee ff 0b 00 1f 00 89 1f 33 05 e2 a3 1b cd 08 80 00 00 00 80 00 00 00 00 09 09 00 00 00 00 00 e9 bb 1b cd 28 08 00 8a c9 03 20 a3 0e 8f c0
# ReportID: 1 / X:  132 | Y:  127 | Z:  130 | Rz:  127 | Rx:    0 | Ry:    0 | 0xff000020:  228 | Hat switch:   8 | Button: 0  0  0  0  0  0  0  0  0  0  0  0  0  0  0 | 0xff000021: 0 , 0 , 0 , 0 , 0 , 0 , 0 , 0 , 0 , 0 , 0 , 0 , 0 | 0xff000022:  193 ,   47 ,   42 ,  235 ,  245 ,  255 ,  238 ,  255 ,    9 ,    0 ,   39 ,    0 ,   89 ,   31 ,   45 ,    5 ,  213 ,  210 ,   27 ,  205 ,    8 ,  128 ,    0 ,    0 ,    0 ,  128 ,    0 ,    0 ,    0 ,    0 ,    9 ,    9 ,    0 ,    0 ,    0 ,    0 ,    0 ,  201 ,  234 ,   27 ,  205 ,   40 ,    8 ,    0 ,  130 ,  206 ,   82 ,  154 ,   47 ,  162 ,   78 ,   39 
E: 000000.040552 64 01 84 7f 82 7f 00 00 e4 08 00 00 00 c1 2f 2a eb f5 ff ee ff 09 00 27 00 59 1f 2d 05 d5 d2 1b cd 08 80 00 00 00 80 00 00 00 00 09 09 00 00 00 00 00 c9 ea 1b cd 28 08 00 82 ce 52 9a 2f a2 4e 27
# ReportID: 1 / X:  132 | Y:  127 | Z:  130 | Rz:  127 | Rx:    0 | Ry:    0 | 0xff000020:  229 | Hat switch:   8 | Button: 0  0  0  0  0  0  0  0  0  0  0  0  0  0  0 | 0xff000021: 0 , 0 , 0 , 0 , 0 , 0 , 0 , 0 , 0 , 0 , 0 , 0 , 0 | 0xff000022:  194 ,   47 ,   42 ,  235 ,  247 ,  255 ,  238 ,  255 ,   10 ,    0 ,   41 ,    0 ,   46 ,   31 ,   48 ,    5 ,  200 ,    1 ,   28 ,  205 ,    8 ,  128 ,    0 ,    0 ,    0 ,  128 ,    0 ,    0 ,    0 ,    0 ,    9 ,    9 ,    0 ,    0 ,    0 ,    0 ,    0 ,  169 ,   25 ,   28 ,  205 ,   40 ,    8 ,    0 ,   19 ,   70 ,   25 ,  116 ,   48 ,   12 ,  122 ,   35 
E: 000000.045452 64 01 84 7f 82 7f 00 00 e5 08 00 00 00 c2 2f 2a eb f7 ff ee ff 0a 00 29 00 2e 1f 30 05 c8 01 1c cd 08 80 00 00 00 80 00 00 00 00 09 09 00 00 00 00 00 a9 19 1c cd 28 08 00 13 46 19 74 30 0c 7a 23
# ReportID: 1 / X:  132 | Y:  127 | Z:  130 | Rz:  127 | Rx:    0 | Ry:    0 | 0xff000020:  230 | Hat switch:   8 | Button: 0  0  0  0  0  0  0  0  0  0  0  0  0  0  0 | 0xff000021: 0 , 0 , 0 , 0 , 0 , 0 , 0 , 0 , 0 , 0 , 0 , 0 , 0 | 0xff000022:  195 ,   47 ,   42 ,  235 ,  246 ,  255 ,  238 ,  255 ,    9 ,    0 ,   42 ,    0 ,   57 ,   31 ,   45 ,    5 ,  187 ,   48 ,   28 ,  205 ,    8 ,  128 ,    0 ,    0 ,    0 ,  128 ,    0 ,    0 ,    0 ,    0 ,    9 ,    9 ,    0 ,    0 ,    0 ,    0 ,    0 ,  137 ,   72 ,   28 ,  205 ,   40 ,    8 ,    0 ,  132 ,  103 ,  196 ,  202 ,  255 ,  250 ,   92 ,  234 
E: 000000.048550 64 01 84 7f 82 7f 00 00 e6 08 00 00 00 c3 2f 2a eb f6 ff ee ff 09 00 2a 00 39 1f 2d 05 bb 30 1c cd 08 80 00 00 00 80 00 00 00 00 09 09 00 00 00 00 00 89 48 1c cd 28 08 00 84 67 c4 ca ff fa 5c ea
# ReportID: 1 / X:  132 | Y:  127 | Z:  130 | Rz:  127 | Rx:    0 | Ry:    0 | 0xff000020:  231 | Hat switch:   8 | Button: 0  0  0  0  0  0  0  0  0  0  0  0  0  0  0 | 0xff000021: 0 , 0 , 0 , 0 , 0 , 0 , 0 , 0 , 0 , 0 , 0 , 0 , 0 | 0xff000022:  196 ,   47 ,   42 ,  235 ,  246 ,  255 ,  238 ,  255 ,   10 ,    0 ,   46 ,    0 ,   76 ,   31 ,   49 ,    5 ,  174 ,   95 ,   28 ,  205 ,    8 ,  128 ,    0 ,    0 ,    0 ,  128 ,    0 ,    0 ,    0 ,    0 ,    9 ,    9 ,    0 ,    0 ,    0 ,    0 ,    0 ,  122 ,  119 ,   28 ,  205 ,   40 ,    8 ,    0 ,  119 ,  223 ,   41 ,  199 ,   19 ,   95 ,  132 ,  188 
E: 000000.052627 64 01 84 7f 82 7f 00 00 e7 08 00 00 00 c4 2f 2a eb f6 ff ee ff 0a 00 2e 00 4c 1f 31 05 ae 5f 1c cd 08 80 00 00 00 80 00 00 00 00 09 09 00 00 00 00 00 7a 77 1c cd 28 08 00 77 df 29 c7 13 5f 84 bc
# ReportID: 1 / X:  132 | Y:  127 | Z:  130 | Rz:  127 | Rx:    0 | Ry:    0 | 0xff000020:  232 | Hat switch:   8 | Button: 0  0  0  0  0  0  0  0  0  0  0  0  0  0  0 | 0xff000021: 0 , 0 , 0 , 0 , 0 , 0 , 0 , 0 , 0 , 0 , 0 , 0 , 0 | 0xff000022:  197 ,   47 ,   42 ,  235 ,  246 ,  255 ,  239 ,  255 ,   10 ,    0 ,   43 ,    0 ,  108 ,   31 ,   62 ,    5 ,  161 ,  142 ,   28 ,  205 ,    8 ,  128 ,    0 ,    0 ,    0 ,  128 ,    0 ,    0 ,    0 ,    0 ,    9 ,    9 ,    0 ,    0 ,    0 ,    0 ,    0 ,   97 ,  166 ,   28 ,  205 ,   40 ,    8 ,    0 ,   76 ,  244 ,   41 ,   71 ,  166 ,  218 ,  110 ,   89 
E: 000000.057395 64 01 84 7f 82 7f 00 00 e8 08 00 00 00 c5 2f 2a eb f6 ff ef ff 0a 00 2b 00 6c 1f 3e 05 a1 8e 1c cd 08 80 00 00 00 80 00 00 00 00 09 09 00 00 00 00 00 61 a6 1c cd 28 08 00 4c f4 29 47 a6 da 6e 59
# ReportID: 1 / X:  132 | Y:  127 | Z:  130 | Rz:  127 | Rx:    0 | Ry:    0 | 0xff000020:  233 | Hat switch:   8 | Button: 0  0  0  0  0  0  0  0  0  0  0  0  0  0  0 | 0xff000021: 0 , 0 , 0 , 0 , 0 , 0 , 0 , 0 , 0 , 0 , 0 , 0 , 0 | 0xff000022:  198 ,   47 ,   42 ,  235 ,  246 ,  255 ,  238 ,  255 ,   10 ,    0 ,   50 ,    0 ,  114 ,   31 ,   61 ,    5 ,  148 ,  189 ,   28 ,  205 ,    8 ,  128 ,    0 ,    0 ,    0 ,  128 ,    0 ,    0 ,    0 ,    0 ,    9 ,    9 ,    0 ,    0 ,    0 ,    0 ,    0 ,   47 ,  213 ,   28 ,  205 ,   40 ,    8 ,    0 ,   10 ,  159 ,   88 ,   13 ,  178 ,   13 ,    5 ,   65 
E: 000000.060992 64 01 84 7f 82 7f 00 00 e9 08 00 00 00 c6 2f 2a eb f6 ff ee ff 0a 00 32 00 72 1f 3d 05 94 bd 1c cd 08 80 00 00 00 80 00 00 00 00 09 09 00 00 00 00 00 2f d5 1c cd 28 08 00 0a 9f 58 0d b2 0d 05 41
# ReportID: 1 / X:  132 | Y:  127 | Z:  130 | Rz:  127 | Rx:    0 | Ry:    0 | 0xff000020:  234 | Hat switch:   8 | Button: 0  0  0  0  0  0  0  0  0  0  0  0  0  0  0 | 0xff000021: 0 , 0 , 0 , 0 , 0 , 0 , 0 , 0 , 0 , 0 , 0 , 0 , 0 | 0xff000022:  199 ,   47 ,   42 ,  235 ,  245 ,  255 ,  239 ,  255 ,   10 ,    0 ,   44 ,    0 ,   87 ,   31 ,   60 ,    5 ,  135 ,  236 ,   28 ,  205 ,    8 ,  128 ,    0 ,    0 ,    0 ,  128 ,    0 ,    0 ,    0 ,    0 ,    9 ,    9 ,    0 ,    0 ,    0 ,    0 ,    0 ,   17 ,    4 ,   29 ,  205 ,   40 ,    8 ,    0 ,  147 ,   93 ,  141 ,  225 ,    7 ,  223 ,  252 ,   81 
E: 000000.065665 64 01 84 7f 82 7f 00 00 ea 08 00 00 00 c7 2f 2a eb f5 ff ef ff 0a 00 2c 00 57 1f 3c 05 87 ec 1c cd 08 80 00 00 00 80 00 00 00 00 09 09 00 00 00 00 00 11 04 1d cd 28 08 00 93 5d 8d e1 07 df fc 51
# ReportID: 1 / X:  132 | Y:  126 | Z:  130 | Rz:  127 | Rx:    0 | Ry:    0 | 0xff000020:  235 | Hat switch:   8 | Button: 0  0  0  0  0  0  0  0  0  0  0  0  0  0  0 | 0xff000021: 0 , 0 , 0 , 0 , 0 , 0 , 0 , 0 , 0 , 0 , 0 , 0 , 0 | 0xff000022:  200 ,   47 ,   42 ,  235 ,  247 ,  255 ,  238 ,  255 ,   11 ,    0 ,   61 ,    0 ,   35 ,   31 ,   72 ,    5 ,  124 ,   27 ,   29 ,  205 ,    8 ,  128 ,    0 ,    0 ,    0 ,  128 ,    0 ,    0 ,    0 ,    0 ,    9 ,    9 ,    0 ,    0 ,    0 ,    0 ,    0 ,  233 ,   50 ,   29 ,  205 ,   40 ,    8 ,    0 ,  129 ,  154 ,  105 ,   84 ,    7 ,   58 ,  176 ,   22 
E: 000000.069586 64 01 84 7e 82 7f 00 00 eb 08 00 00 00 c8 2f 2a eb f7 ff ee ff 0b 00 3d 00 23 1f 48 05 7c 1b 1d cd 08 80 00 00 00 80 00 00 00 00 09 09 00 00 00 00 00 e9 32 1d cd 28 08 00 81 9a 69 54 07 3a b0 16
# ReportID: 1 / X:  132 | Y:  127 | Z:  130 | Rz:  127 | Rx:    0 | Ry:    0 | 0xff000020:  236 | Hat switch:   8 | Button: 0  0  0  0  0  0  0  0  0  0  0  0  0  0  0 | 0xff000021: 0 , 0 , 0 , 0 , 0 , 0 , 0 , 0 , 0 , 0 , 0 , 0 , 0 | 0xff000022:  201 ,   47 ,   42 ,  235 ,  247 ,  255 ,  238 ,  255 ,   11 ,    0 ,   58 ,    0 ,   41 ,   31 ,   61 ,    5 ,  111 ,   74 ,   29 ,  205 ,    8 ,  128 ,    0 ,    0 ,    0 ,  128 ,    0 ,    0 ,    0 ,    0 ,    9 ,    9 ,    0 ,    0 ,    0 ,    0 ,    0 ,  201 ,   97 ,   29 ,  205 ,   40 ,    8 ,    0 ,  240 ,  109 ,  200 ,  249 ,  166 ,  254 ,  181 ,  252 
E: 000000.073060 64 01 84 7f 82 7f 00 00 ec 08 00 00 00 c9 2f 2a eb f7 ff ee ff 0b 00 3a 00 29 1f 3d 05 6f 4a 1d cd 08 80 00 00 00 80 00 00 00 00 09 09 00 00 00 00 00 c9 61 1d cd 28 08 00 f0 6d c8 f9 a6 fe b5 fc
# ReportID: 1 / X:  132 | Y:  127 | Z:  130 | Rz:  127 | Rx:    0 | Ry:    0 | 0xff000020:  237 | Hat switch:   8 | Button: 0  0  0  0  0  0  0  0  0  0  0  0  0  0  0 | 0xff000021: 0 , 0 , 0 , 0 , 0 , 0 , 0 , 0 , 0 , 0 , 0 , 0 , 0 | 0xff000022:  202 ,   47 ,   42 ,  235 ,  246 ,  255 ,  239 ,  255 ,   10 ,    0 ,   64 ,    0 ,   62 ,   31 ,   62 ,    5 ,   96 ,  121 ,   29 ,  205 ,    8 ,  128 ,    0 ,    0 ,    0 ,  128 ,    0 ,    0 ,    0 ,    0 ,    9 ,    9 ,    0 ,    0 ,    0 ,    0 ,    0 ,  169 ,  144 ,   29 ,  205 ,   40 ,    8 ,    0 ,   89 ,   10 ,   20 ,   73 ,   76 ,  194 ,   22 ,  235 
E: 000000.076537 64 01 84 7f 82 7f 00 00 ed 08 00 00 00 ca 2f 2a eb f6 ff ef ff 0a 00 40 00 3e 1f 3e 05 60 79 1d cd 08 80 00 00 00 80 00 00 00 00 09 09 00 00 00 00 00 a9 90 1d cd 28 08 00 59 0a 14 49 4c c2 16 eb
# ReportID: 1 / X:  132 | Y:  127 | Z:  130 | Rz:  127 | Rx:    0 | Ry:    0 | 0xff000020:  238 | Hat switch:   8 | Button: 0  0  0  0  0  0  0  0  0  0  0  0  0  0  0 | 0xff000021: 0 , 0 , 0 , 0 , 0 , 0 , 0 , 0 , 0 , 0 , 0 , 0 , 0 | 0xff000022:  203 ,   47 ,   42 ,  235 ,  247 ,  255 ,  239 ,  255 ,   10 ,    0 ,   73 ,    0 ,   80 ,   31 ,   63 ,    5 ,   83 ,  168 ,   29 ,  205 ,    8 ,  128 ,    0 ,    0 ,    0 ,  128 ,    0 ,    0 ,    0 ,    0 ,    9 ,    9 ,    0 ,    0 ,    0 ,    0 ,    0 ,  137 ,  191 ,   29 ,  205 ,   40 ,    8 ,    0 ,   35 ,  236 ,  200 ,  210 ,  144 ,  255 ,   64 ,  182 
E: 000000.081838 64 01 84 7f 82 7f 00 00 ee 08 00 00 00 cb 2f 2a eb f7 ff ef ff 0a 00 49 00 50 1f 3f 05 53 a8 1d cd 08 80 00 00 00 80 00 00 00 00 09 09 00 00 00 00 00 89 bf 1d cd 28 08 00 23 ec c8 d2 90 ff 40 b6
# ReportID: 1 / X:  132 | Y:  127 | Z:  130 | Rz:  127 | Rx:    0 | Ry:    0 | 0xff000020:  239 | Hat switch:   8 | Button: 0  0  0  0  0  0  0  0  0  0  0  0  0  0  0 | 0xff000021: 0 , 0 , 0 , 0 , 0 , 0 , 0 , 0 , 0 , 0 , 0 , 0 , 0 | 0xff000022:  204 ,   47 ,   42 ,  235 ,  247 ,  255 ,  239 ,  255 ,   10 ,    0 ,   61 ,    0 ,   95 ,   31 ,   66 ,    5 ,   70 ,  215 ,   29 ,  205 ,    8 ,  128 ,    0 ,    0 ,    0 ,  128 ,    0 ,    0 ,    0 ,    0 ,    9 ,    9 ,    0 ,    0 ,    0 ,    0 ,    0 ,  105 ,  238 ,   29 ,  205 ,   40 ,    8 ,    0 ,  238 ,   92 ,  179 ,  219 ,  224 ,  185 ,   93 ,  181 
E: 000000.084585 64 01 84 7f 82 7f 00 00 ef 08 00 00 00 cc 2f 2a eb f7 ff ef ff 0a 00 3d 00 5f 1f 42 05 46 d7 1d cd 08 80 00 00 00 80 00 00 00 00 09 09 00 00 00 00 00 69 ee 1d cd 28 08 00 ee 5c b3 db e0 b9 5d b5
# ReportID: 1 / X:  132 | Y:  127 | Z:  129 | Rz:  127 | Rx:    0 | Ry:    0 | 0xff000020:  240 | Hat switch:   8 | Button: 0  0  0  0  0  0  0  0  0  0  0  0  0  0  0 | 0xff000021: 0 , 0 , 0 , 0 , 0 , 0 , 0 , 0 , 0 , 0 , 0 , 0 , 0 | 0xff000022:  205 ,   47 ,   42 ,  235 ,  246 ,  255 ,  238 ,  255 ,   10 ,    0 ,   55 ,    0 ,  105 ,   31 ,   65 ,    5 ,   58 ,    6 ,   30 ,  205 ,    8 ,  128 ,    0 ,    0 ,    0 ,  128 ,    0 ,    0 ,    0 ,    0 ,    9 ,    9 ,    0 ,    0 ,    0 ,    0 ,    0 ,   73 ,   29 ,   30 ,  205 ,   40 ,    8 ,    0 ,  151 ,  192 ,  122 ,   77 ,  251 ,  167 ,   74 ,   92 
E: 000000.088455 64 01 84 7f 81 7f 00 00 f0 08 00 00 00 cd 2f 2a eb f6 ff ee ff 0a 00 37 00 69 1f 41 05 3a 06 1e cd 08 80 00 00 00 80 00 00 00 00 09 09 00 00 00 00 00 49 1d 1e cd 28 08 00 97 c0 7a 4d fb a7 4a 5c
# ReportID: 1 / X:  132 | Y:  126 | Z:  130 | Rz:  127 | Rx:    0 | Ry:    0 | 0xff000020:  241 | Hat switch:   8 | Button: 0  0  0  0  0  0  0  0  0  0  0  0  0  0  0 | 0xff000021: 0 , 0 , 0 , 0 , 0 , 0 , 0 , 0 , 0 , 0 , 0 , 0 , 0 | 0xff000022:  206 ,   47 ,   42 ,  235 ,  246 ,  255 ,  238 ,  255 ,   11 ,    0 ,   53 ,    0 ,   94 ,   31 ,   60 ,    5 ,   45 ,   53 ,   30 ,  205 ,    8 ,  128 ,    0 ,    0 ,    0 ,  128 ,    0 ,    0 ,    0 ,    0 ,    9 ,    9 ,    0 ,    0 ,    0 ,    0 ,    0 ,   41 ,   76 ,   30 ,  205 ,   40 ,    8 ,    0 ,   73 ,  118 ,   72 ,  111 ,  136 ,   34 ,   47 ,   61 
E: 000000.094114 64 01 84 7e 82 7f 00 00 f1 08 00 00 00 ce 2f 2a eb f6 ff ee ff 0b 00 35 00 5e 1f 3c 05 2d 35 1e cd 08 80 00 00 00 80 00 00 00 00 09 09 00 00 00 00 00 29 4c 1e cd 28 08 00 49 76 48 6f 88 22 2f 3d
# ReportID: 1 / X:  132 | Y:  127 | Z:  130 | Rz:  127 | Rx:    0 | Ry:    0 | 0xff000020:  242 | Hat switch:   8 | Button: 0  0  0  0  0  0  0  0  0  0  0  0  0  0  0 | 0xff000021: 0 , 0 , 0 , 0 , 0 , 0 , 0 , 0 , 0 , 0 , 0 , 0 , 0 | 0xff000022:  207 ,   47 ,   42 ,  235 ,  246 ,  255 ,  238 ,  255 ,   10 ,    0 ,   57 ,    0 ,   84 ,   31 ,   52 ,    5 ,   32 ,  100 ,   30 ,  205 ,    8 ,  128 ,    0 ,    0 ,    0 ,  128 ,    0 ,    0 ,    0 ,    0 ,    9 ,    9 ,    0 ,    0 ,    0 ,    0 ,    0 ,    9 ,  123 ,   30 ,  205 ,   40 ,    8 ,    0 ,   95 ,  229 ,    8 ,  134 ,  222 ,   68 ,  140 ,   19 
E: 000000.096478 64 01 84 7f 82 7f 00 00 f2 08 00 00 00 cf 2f 2a eb f6 ff ee ff 0a 00 39 00 54 1f 34 05 20 64 1e cd 08 80 00 00 00 80 00 00 00 00 09 09 00 00 00 00 00 09 7b 1e cd 28 08 00 5f e5 08 86 de 44 8c 13
# ReportID: 1 / X:  132 | Y:  127 | Z:  130 | Rz:  127 | Rx:    0 | Ry:    0 | 0xff000020:  243 | Hat switch:   8 | Button: 0  0  0  0  0  0  0  0  0  0  0  0  0  0  0 | 0xff000021: 0 , 0 , 0 , 0 , 0 , 0 , 0 , 0 , 0 , 0 , 0 , 0 , 0 | 0xff000022:  208 ,   47 ,   42 ,  235 ,  246 ,  255 ,  238 ,  255 ,   11 ,    0 ,   57 ,    0 ,   90 ,   31 ,   44 ,    5 ,   18 ,  147 ,   30 ,  205 ,    8 ,  128 ,    0 ,    0 ,    0 ,  128 ,    0 ,    0 ,    0 ,    0 ,    9 ,    9 ,    0 ,    0 ,    0 ,    0 ,    0 ,  233 ,  169 ,   30 ,  205 ,   40 ,    8 ,    0 ,   97 ,  149 ,  110 ,   31 ,  227 ,  242 ,  185 ,  140 
E: 000000.100720 64 01 84 7f 82 7f 00 00 f3 08 00 00 00 d0 2f 2a eb f6 ff ee ff 0b 00 39 00 5a 1f 2c 05 12 93 1e cd 08 80 00 00 00 80 00 00 00 00 09 09 00 00 00 00 00 e9 a9 1e cd 28 08 00 61 95 6e 1f e3 f2 b9 8c
# ReportID: 1 / X:  132 | Y:  126 | Z:  129 | Rz:  127 | Rx:    0 | Ry:    0 | 0xff000020:  244 | Hat switch:   8 | Button: 0  0  0  0  0  0  0  0  0  0  0  0  0  0  0 | 0xff000021: 0 , 0 , 0 , 0 , 0 , 0 , 0 , 0 , 0 , 0 , 0 , 0 , 0 | 0xff000022:  209 ,   47 ,   42 ,  235 ,  246 ,  255 ,  239 ,  255 ,   10 ,    0 ,   57 ,    0 ,   81 ,   31 ,   47 ,    5 ,    5 ,  194 ,   30 ,  205 ,    8 ,  128 ,    0 ,    0 ,    0 ,  128 ,    0 ,    0 ,    0 ,    0 ,    9 ,    9 ,    0 ,    0 ,    0 ,    0 ,    0 ,  201 ,  216 ,   30 ,  205 ,   40 ,    8 ,    0 ,  239 ,  101 ,  198 ,   50 ,  249 ,  162 ,  124 ,  120 
E: 000000.104741 64 01 84 7e 81 7f 00 00 f4 08 00 00 00 d1 2f 2a eb f6 ff ef ff 0a 00 39 00 51 1f 2f 05 05 c2 1e cd 08 80 00 00 00 80 00 00 00 00 09 09 00 00 00 00 00 c9 d8 1e cd 28 08 00 ef 65 c6 32 f9 a2 7c 78
# ReportID: 1 / X:  132 | Y:  127 | Z:  130 | Rz:  127 | Rx:    0 | Ry:    0 | 0xff000020:  245 | Hat switch:   8 | Button: 0  0  0  0  0  0  0  0  0  0  0  0  0  0  0 | 0xff000021: 0 , 0 , 0 , 0 , 0 , 0 , 0 , 0 , 0 , 0 , 0 , 0 , 0 | 0xff000022:  210 ,   47 ,   42 ,  235 ,  247 ,  255 ,  239 ,  255 ,   11 ,    0 ,   55 ,    0 ,   72 ,   31 ,   43 ,    5 ,  248 ,  240 ,   30 ,  205 ,    8 ,  128 ,    0 ,    0 ,    0 ,  128 ,    0 ,    0 ,    0 ,    0 ,    9 ,    9 ,    0 ,    0 ,    0 ,    0 ,    0 ,  169 ,    7 ,   31 ,  205 ,   40 ,    8 ,    0 ,  224 ,  129 ,   65 ,  197 ,   52 ,   79 ,    4 ,  166 
E: 000000.108995 64 01 84 7f 82 7f 00 00 f5 08 00 00 00 d2 2f 2a eb f7 ff ef ff 0b 00 37 00 48 1f 2b 05 f8 f0 1e cd 08 80 00 00 00 80 00 00 00 00 09 09 00 00 00 00 00 a9 07 1f cd 28 08 00 e0 81 41 c5 34 4f 04 a6
# ReportID: 1 / X:  132 | Y:  127 | Z:  130 | Rz:  127 | Rx:    0 | Ry:    0 | 0xff000020:  246 | Hat switch:   8 | Button: 0  0  0  0  0  0  0  0  0  0  0  0  0  0  0 | 0xff000021: 0 , 0 , 0 , 0 , 0 , 0 , 0 , 0 , 0 , 0 , 0 , 0 , 0 | 0xff000022:  211 ,   47 ,   42 ,  235 ,  247 ,  255 ,  238 ,  255 ,   12 ,    0 ,   57 ,    0 ,   92 ,   31 ,   48 ,    5 ,  236 ,   31 ,   31 ,  205 ,    8 ,  128 ,    0 ,    0 ,    0 ,  128 ,    0 ,    0 ,    0 ,    0 ,    9 ,    9 ,    0 ,    0 ,    0 ,    0 ,    0 ,  137 ,   54 ,   31 ,  205 ,   40 ,    8 ,    0 ,  174 ,  182 ,  205 ,  236 ,  237 ,  164 ,   52 ,  198 
E: 000000.112518 64 01 84 7f 82 7f 00 00 f6 08 00 00 00 d3 2f 2a eb f7 ff ee ff 0c 00 39 00 5c 1f 30 05 ec 1f 1f cd 08 80 00 00 00 80 00 00 00 00 09 09 00 00 00 00 00 89 36 1f cd 28 08 00 ae b6 cd ec ed a4 34 c6
# ReportID: 1 / X:  132 | Y:  127 | Z:  130 | Rz:  127 | Rx:    0 | Ry:    0 | 0xff000020:  247 | Hat switch:   8 | Button: 0  0  0  0  0  0  0  0  0  0  0  0  0  0  0 | 0xff000021: 0 , 0 , 0 , 0 , 0 , 0 , 0 , 0 , 0 , 0 , 0 , 0 , 0 | 0xff000022:  212 ,   47 ,   42 ,  235 ,  246 ,  255 ,  238 ,  255 ,   10 ,    0 ,   58 ,    0 ,  120 ,   31 ,   45 ,    5 ,  223 ,   78 ,   31 ,  205 ,    8 ,  128 ,    0 ,    0 ,    0 ,  128 ,    0 ,    0 ,    0 ,    0 ,    9 ,    9 ,    0 ,    0 ,    0 ,    0 ,    0 ,  105 ,  101 ,   31 ,  205 ,   40 ,    8 ,    0 ,   67 ,   47 ,  147 ,   77 ,   77 ,  252 ,  182 ,  224 
E: 000000.117392 64 01 84 7f 82 7f 00 00 f7 08 00 00 00 d4 2f 2a eb f6 ff ee ff 0a 00 3a 00 78 1f 2d 05 df 4e 1f cd 08 80 00 00 00 80 00 00 00 00 09 09 00 00 00 00 00 69 65 1f cd 28 08 00 43 2f 93 4d 4d fc b6 e0
# ReportID: 1 / X:  132 | Y:  127 | Z:  130 | Rz:  127 | Rx:    0 | Ry:    0 | 0xff000020:  248 | Hat switch:   8 | Button: 0  0  0  0  0  0  0  0  0  0  0  0  0  0  0 | 0xff000021: 0 , 0 , 0 , 0 , 0 , 0 , 0 , 0 , 0 , 0 , 0 , 0 , 0 | 0xff000022:  213 ,   47 ,   42 ,  235 ,  245 ,  255 ,  238 ,  255 ,   10 ,    0 ,   53 ,    0 ,   91 ,   31 ,   34 ,    5 ,  210 ,  125 ,   31 ,  205 ,    8 ,  128 ,    0 ,    0 ,    0 ,  128 ,    0 ,    0 ,    0 ,    0 ,    9 ,    9 ,    0 ,    0 ,    0 ,    0 ,    0 ,   73 ,  148 ,   31 ,  205 ,   40 ,    8 ,    0 ,  241 ,  165 ,  229 ,   10 ,   27 ,   41 ,  175 ,  229 
E: 000000.121501 64 01 84 7f 82 7f 00 00 f8 08 00 00 00 d5 2f 2a eb f5 ff ee ff 0a 00 35 00 5b 1f 22 05 d2 7d 1f cd 08 80 00 00 00 80 00 00 00 00 09 09 00 00 00 00 00 49 94 1f cd 28 08 00 f1 a5 e5 0a 1b 29 af e5
# ReportID: 1 / X:  132 | Y:  127 | Z:  130 | Rz:  127 | Rx:    0 | Ry:    0 | 0xff000020:  249 | Hat switch:   8 | Button: 0  0  0  0  0  0  0  0  0  0  0  0  0  0  0 | 0xff000021: 0 , 0 , 0 , 0 , 0 , 0 , 0 , 0 , 0 , 0 , 0 , 0 , 0 | 0xff000022:  214 ,   47 ,   42 ,  235 ,  246 ,  255 ,  238 ,  255 ,   11 ,    0 ,   44 ,    0 ,   66 ,   31 ,   26 ,    5 ,  197 ,  172 ,   31 ,  205 ,    8 ,  128 ,    0 ,    0 ,    0 ,  128 ,    0 ,    0 ,    0 ,    0 ,    9 ,    9 ,    0 ,    0 ,    0 ,    0 ,    0 ,   41 ,  195 ,   31 ,  205 ,   40 ,    8 ,    0 ,  128 ,   77 ,   13 ,  140 ,  192 ,   10 ,  221 ,   64 
E: 000000.125989 64 01 84 7f 82 7f 00 00 f9 08 00 00 00 d6 2f 2a eb f6 ff ee ff 0b 00 2c 00 42 1f 1a 05 c5 ac 1f cd 08 80 00 00 00 80 00 00 00 00 09 09 00 00 00 00 00 29 c3 1f cd 28 08 00 80 4d 0d 8c c0 0a dd 40
# ReportID: 1 / X:  132 | Y:  126 | Z:  130 | Rz:  127 | Rx:    0 | Ry:    0 | 0xff000020:  250 | Hat switch:   8 | Button: 0  0  0  0  0  0  0  0  0  0  0  0  0  0  0 | 0xff000021: 0 , 0 , 0 , 0 , 0 , 0 , 0 , 0 , 0 , 0 , 0 , 0 , 0 | 0xff000022:  215 ,   47 ,   42 ,  235 ,  246 ,  255 ,  238 ,  255 ,   11 ,    0 ,   39 ,    0 ,   66 ,   31 ,   35 ,    5 ,  184 ,  219 ,   31 ,  205 ,    8 ,  128 ,    0 ,    0 ,    0 ,  128 ,    0 ,    0 ,    0 ,    0 ,    9 ,    9 ,    0 ,    0 ,    0 ,    0 ,    0 ,    9 ,  242 ,   31 ,  205 ,   40 ,    8 ,    0 ,  112 ,  251 ,  210 ,  111 ,  251 ,  236 ,   29 ,   19 
E: 000000.130219 64 01 84 7e 82 7f 00 00 fa 08 00 00 00 d7 2f 2a eb f6 ff ee ff 0b 00 27 00 42 1f 23 05 b8 db 1f cd 08 80 00 00 00 80 00 00 00 00 09 09 00 00 00 00 00 09 f2 1f cd 28 08 00 70 fb d2 6f fb ec 1d 13
# ReportID: 1 / X:  132 | Y:  127 | Z:  129 | Rz:  127 | Rx:    0 | Ry:    0 | 0xff000020:  251 | Hat switch:   8 | Button: 0  0  0  0  0  0  0  0  0  0  0  0  0  0  0 | 0xff000021: 0 , 0 , 0 , 0 , 0 , 0 , 0 , 0 , 0 , 0 , 0 , 0 , 0 | 0xff000022:  216 ,   47 ,   42 ,  235 ,  246 ,  255 ,  238 ,  255 ,   11 ,    0 ,   56 ,    0 ,   72 ,   31 ,   41 ,    5 ,  171 ,   10 ,   32 ,  205 ,    8 ,  128 ,    0 ,    0 ,    0 ,  128 ,    0 ,    0 ,    0 ,    0 ,    9 ,    9 ,    0 ,    0 ,    0 ,    0 ,    0 ,  233 ,   32 ,   32 ,  205 ,   40 ,    8 ,    0 ,   44 ,   98 ,  246 ,  162 ,  100 ,  106 ,  163 ,   64 
E: 000000.133952 64 01 84 7f 81 7f 00 00 fb 08 00 00 00 d8 2f 2a eb f6 ff ee ff 0b 00 38 00 48 1f 29 05 ab 0a 20 cd 08 80 00 00 00 80 00 00 00 00 09 09 00 00 00 00 00 e9 20 20 cd 28 08 00 2c 62 f6 a2 64 6a a3 40
# ReportID: 1 / X:  132 | Y:  127 | Z:  130 | Rz:  127 | Rx:    0 | Ry:    0 | 0xff000020:  252 | Hat switch:   8 | Button: 0  0  0  0  0  0  0  0  0  0  0  0  0  0  0 | 0xff000021: 0 , 0 , 0 , 0 , 0 , 0 , 0 , 0 , 0 , 0 , 0 , 0 , 0 | 0xff000022:  217 ,   47 ,   42 ,  235 ,  246 ,  255 ,  239 ,  255 ,   11 ,    0 ,   44 ,    0 ,   82 ,   31 ,   44 ,    5 ,  158 ,   57 ,   32 ,  205 ,    8 ,  128 ,    0 ,    0 ,    0 ,  128 ,    0 ,    0 ,    0 ,    0 ,    9 ,    9 ,    0 ,    0 ,    0 ,    0 ,    0 ,  201 ,   79 ,   32 ,  205 ,   40 ,    8 ,    0 ,  214 ,  169 ,   42 ,  229 ,   43 ,   79 ,   40 ,  222 
E: 000000.137365 64 01 84 7f 82 7f 00 00 fc 08 00 00 00 d9 2f 2a eb f6 ff ef ff 0b 00 2c 00 52 1f 2c 05 9e 39 20 cd 08 80 00 00 00 80 00 00 00 00 09 09 00 00 00 00 00 c9 4f 20 cd 28 08 00 d6 a9 2a e5 2b 4f 28 de
# ReportID: 1 / X:  132 | Y:  127 | Z:  130 | Rz:  127 | Rx:    0 | Ry:    0 | 0xff000020:  253 | Hat switch:   8 | Button: 0  0  0  0  0  0  0  0  0  0  0  0  0  0  0 | 0xff000021: 0 , 0 , 0 , 0 , 0 , 0 , 0 , 0 , 0 , 0 , 0 , 0 , 0 | 0xff000022:  218 ,   47 ,   42 ,  235 ,  245 ,  255 ,  238 ,  255 ,   11 ,    0 ,   43 ,    0 ,  126 ,   31 ,   46 ,    5 ,  145 ,  104 ,   32 ,  205 ,    8 ,  128 ,    0 ,    0 ,    0 ,  128 ,    0 ,    0 ,    0 ,    0 ,    9 ,    9 ,    0 ,    0 ,    0 ,    0 ,    0 ,  169 ,  126 ,   32 ,  205 ,   40 ,    8 ,    0 ,  249 ,  165 ,   32 ,   25 ,  219 ,  180 ,   18 ,   29 
E: 000000.140491 64 01 84 7f 82 7f 00 00 fd 08 00 00 00 da 2f 2a eb f5 ff ee ff 0b 00 2b 00 7e 1f 2e 05 91 68 20 cd 08 80 00 00 00 80 00 00 00 00 09 09 00 00 00 00 00 a9 7e 20 cd 28 08 00 f9 a5 20 19 db b4 12 1d
# ReportID: 1 / X:  132 | Y:  127 | Z:  130 | Rz:  127 | Rx:    0 | Ry:    0 | 0xff000020:  254 | Hat switch:   8 | Button: 0  0  0  0  0  0  0  0  0  0  0  0  0  0  0 | 0xff000021: 0 , 0 , 0 , 0 , 0 , 0 , 0 , 0 , 0 , 0 , 0 , 0 , 0 | 0xff000022:  219 ,   47 ,   42 ,  235 ,  244 ,  255 ,  238 ,  255 ,   11 ,    0 ,   45 ,    0 ,  116 ,   31 ,   61 ,    5 ,  132 ,  151 ,   32 ,  205 ,    8 ,  128 ,    0 ,    0 ,    0 ,  128 ,    0 ,    0 ,    0 ,    0 ,    9 ,    9 ,    0 ,    0 ,    0 ,    0 ,    0 ,  137 ,  173 ,   32 ,  205 ,   40 ,    8 ,    0 ,  124 ,   40 ,  138 ,  193 ,  157 ,  231 ,   40 ,    8 
E: 000000.146924 64 01 84 7f 82 7f 00 00 fe 08 00 00 00 db 2f 2a eb f4 ff ee ff 0b 00 2d 00 74 1f 3d 05 84 97 20 cd 08 80 00 00 00 80 00 00 00 00 09 09 00 00 00 00 00 89 ad 20 cd 28 08 00 7c 28 8a c1 9d e7 28 08
# ReportID: 1 / X:  132 | Y:  127 | Z:  129 | Rz:  127 | Rx:    0 | Ry:    0 | 0xff000020:  255 | Hat switch:   8 | Button: 0  0  0  0  0  0  0  0  0  0  0  0  0  0  0 | 0xff000021: 0 , 0 , 0 , 0 , 0 , 0 , 0 , 0 , 0 , 0 , 0 , 0 , 0 | 0xff000022:  220 ,   47 ,   42 ,  235 ,  245 ,  255 ,  236 ,  255 ,   10 ,    0 ,   56 ,    0 ,   71 ,   31 ,   50 ,    5 ,  119 ,  198 ,   32 ,  205 ,    8 ,  128 ,    0 ,    0 ,    0 ,  128 ,    0 ,    0 ,    0 ,    0 ,    9 ,    9 ,    0 ,    0 ,    0 ,    0 ,    0 ,  105 ,  220 ,   32 ,  205 ,   40 ,    8 ,    0 ,  179 ,   24 ,   80 ,   67 ,  125 ,  161 ,   45 ,  217 
E: 000000.149967 64 01 84 7f 81 7f 00 00 ff 08 00 00 00 dc 2f 2a eb f5 ff ec ff 0a 00 38 00 47 1f 32 05 77 c6 20 cd 08 80 00 00 00 80 00 00 00 00 09 09 00 00 00 00 00 69 dc 20 cd 28 08 00 b3 18 50 43 7d a1 2d d9
# ReportID: 1 / X:  132 | Y:  127 | Z:  130 | Rz:  127 | Rx:    0 | Ry:    0 | 0xff000020:    0 | Hat switch:   8 | Button: 0  0  0  0  0  0  0  0  0  0  0  0  0  0  0 | 0xff000021: 0 , 0 , 0 , 0 , 0 , 0 , 0 , 0 , 0 , 0 , 0 , 0 , 0 | 0xff000022:  221 ,   47 ,   42 ,  235 ,  245 ,  255 ,  239 ,  255 ,    9 ,    0 ,   50 ,    0 ,   57 ,   31 ,   54 ,    5 ,  140 ,  239 ,   32 ,  205 ,    8 ,  128 ,    0 ,    0 ,    0 ,  128 ,    0 ,    0 ,    0 ,    0 ,    9 ,    9 ,    0 ,    0 ,    0 ,    0 ,    0 ,   73 ,   11 ,   33 ,  205 ,   40 ,    8 ,    0 ,  170 ,   74 ,  208 ,  193 ,  212 ,  108 ,  165 ,  117 
E: 000000.153399 64 01 84 7f 82 7f 00 00 00 08 00 00 00 dd 2f 2a eb f5 ff ef ff 09 00 32 00 39 1f 36 05 8c ef 20 cd 08 80 00 00 00 80 00 00 00 00 09 09 00 00 00 00 00 49 0b 21 cd 28 08 00 aa 4a d0 c1 d4 6c a5 75
# ReportID: 1 / X:  132 | Y:  127 | Z:  130 | Rz:  127 | Rx:    0 | Ry:    0 | 0xff000020:    1 | Hat switch:   8 | Button: 0  0  0  0  0  0  0  0  0  0  0  0  0  0  0 | 0xff000021: 0 , 0 , 0 , 0 , 0 , 0 , 0 , 0 , 0 , 0 , 0 , 0 , 0 | 0xff000022:  222 ,   47 ,   42 ,  235 ,  246 ,  255 ,  238 ,  255 ,   10 ,    0 ,   62 ,    0 ,   65 ,   31 ,   57 ,    5 ,  161 ,   24 ,   33 ,  205 ,    8 ,  128 ,    0 ,    0 ,    0 ,  128 ,    0 ,    0 ,    0 ,    0 ,    9 ,    9 ,    0 ,    0 ,    0 ,    0 ,    0 ,   41 ,   58 ,   33 ,  205 ,   40 ,    8 ,    0 ,   74 ,  176 ,   50 ,   95 ,  103 ,  112 ,  222 ,   59 
E: 000000.157037 64 01 84 7f 82 7f 00 00 01 08 00 00 00 de 2f 2a eb f6 ff ee ff 0a 00 3e 00 41 1f 39 05 a1 18 21 cd 08 80 00 00 00 80 00 00 00 00 09 09 00 00 00 00 00 29 3a 21 cd 28 08 00 4a b0 32 5f 67 70 de 3b
# ReportID: 1 / X:  132 | Y:  127 | Z:  130 | Rz:  127 | Rx:    0 | Ry:    0 | 0xff000020:    2 | Hat switch:   8 | Button: 0  0  0  0  0  0  0  0  0  0  0  0  0  0  0 | 0xff000021: 0 , 0 , 0 , 0 , 0 , 0 , 0 , 0 , 0 , 0 , 0 , 0 , 0 | 0xff000022:  223 ,   47 ,   42 ,  235 ,  247 ,  255 ,  238 ,  255 ,   10 ,    0 ,   68 ,    0 ,   71 ,   31 ,   60 ,    5 ,  148 ,   71 ,   33 ,  205 ,    8 ,  128 ,    0 ,    0 ,    0 ,  128 ,    0 ,    0 ,    0 ,    0 ,    9 ,    9 ,    0 ,    0 ,    0 ,    0 ,    0 ,    9 ,  105 ,   33 ,  205 ,   40 ,    8 ,    0 ,  238 ,   81 ,  144 ,  220 ,  229 ,   39 ,   25 ,   91 
E: 000000.160584 64 01 84 7f 82 7f 00 00 02 08 00 00 00 df 2f 2a eb f7 ff ee ff 0a 00 44 00 47 1f 3c 05 94 47 21 cd 08 80 00 00 00 80 00 00 00 00 09 09 00 00 00 00 00 09 69 21 cd 28 08 00 ee 51 90 dc e5 27 19 5b
# ReportID: 1 / X:  132 | Y:  127 | Z:  130 | Rz:  127 | Rx:    0 | Ry:    0 | 0xff000020:    3 | Hat switch:   8 | Button: 0  0  0  0  0  0  0  0  0  0  0  0  0  0  0 | 0xff000021: 0 , 0 , 0 , 0 , 0 , 0 , 0 , 0 , 0 , 0 , 0 , 0 , 0 | 0xff000022:  224 ,   47 ,   42 ,  235 ,  246 ,  255 ,  239 ,  255 ,   10 ,    0 ,   67 ,    0 ,   81 ,   31 ,   66 ,    5 ,  135 ,  118 ,   33 ,  205 ,    8 ,  128 ,    0 ,    0 ,    0 ,  128 ,    0 ,    0 ,    0 ,    0 ,    9 ,    9 ,    0 ,    0 ,    0 ,    0 ,    0 ,  233 ,  151 ,   33 ,  205 ,   40 ,    8 ,    0 ,  184 ,  141 ,   33 ,  120 ,   34 ,  154 ,  111 ,  158 
E: 000000.164523 64 01 84 7f 82 7f 00 00 03 08 00 00 00 e0 2f 2a eb f6 ff ef ff 0a 00 43 00 51 1f 42 05 87 76 21 cd 08 80 00 00 00 80 00 00 00 00 09 09 00 00 00 00 00 e9 97 21 cd 28 08 00 b8 8d 21 78 22 9a 6f 9e
# ReportID: 1 / X:  132 | Y:  127 | Z:  130 | Rz:  127 | Rx:    0 | Ry:    0 | 0xff000020:    4 | Hat switch:   8 | Button: 0  0  0  0  0  0  0  0  0  0  0  0  0  0  0 | 0xff000021: 0 , 0 , 0 , 0 , 0 , 0 , 0 , 0 , 0 , 0 , 0 , 0 , 0 | 0xff000022:  225 ,   47 ,   42 ,  235 ,  245 ,  255 ,  238 ,  255 ,   11 ,    0 ,   57 ,    0 ,   95 ,   31 ,   63 ,    5 ,  121 ,  165 ,   33 ,  205 ,    8 ,  128 ,    0 ,    0 ,    0 ,  128 ,    0 ,    0 ,    0 ,    0 ,    9 ,    9 ,    0 ,    0 ,    0 ,    0 ,    0 ,  201 ,  198 ,   33 ,  205 ,   40 ,    8 ,    0 ,  217 ,  177 ,  169 ,  189 ,  214 ,  188 ,  180 ,  121 
E: 000000.168465 64 01 84 7f 82 7f 00 00 04 08 00 00 00 e1 2f 2a eb f5 ff ee ff 0b 00 39 00 5f 1f 3f 05 79 a5 21 cd 08 80 00 00 00 80 00 00 00 00 09 09 00 00 00 00 00 c9 c6 21 cd 28 08 00 d9 b1 a9 bd d6 bc b4 79
# ReportID: 1 / X:  132 | Y:  127 | Z:  130 | Rz:  127 | Rx:    0 | Ry:    0 | 0xff000020:    5 | Hat switch:   8 | Button: 0  0  0  0  0  0  0  0  0  0  0  0  0  0  0 | 0xff000021: 0 , 0 , 0 , 0 , 0 , 0 , 0 , 0 , 0 , 0 , 0 , 0 , 0 | 0xff000022:  226 ,   47 ,   42 ,  235 ,  246 ,  255 ,  238 ,  255 ,   12 ,    0 ,   58 ,    0 ,   73 ,   31 ,   66 ,    5 ,  109 ,  212 ,   33 ,  205 ,    8 ,  128 ,    0 ,    0 ,    0 ,  128 ,    0 ,    0 ,    0 ,    0 ,    9 ,    9 ,    0 ,    0 ,    0 ,    0 ,    0 ,  169 ,  245 ,   33 ,  205 ,   40 ,    8 ,    0 ,  157 ,  110 ,  165 ,   21 ,  166 ,  146 ,  199 ,  105 
E: 000000.174262 64 01 84 7f 82 7f 00 00 05 08 00 00 00 e2 2f 2a eb f6 ff ee ff 0c 00 3a 00 49 1f 42 05 6d d4 21 cd 08 80 00 00 00 80 00 00 00 00 09 09 00 00 00 00 00 a9 f5 21 cd 28 08 00 9d 6e a5 15 a6 92 c7 69
# ReportID: 1 / X:  132 | Y:  127 | Z:  130 | Rz:  127 | Rx:    0 | Ry:    0 | 0xff000020:    6 | Hat switch:   8 | Button: 0  0  0  0  0  0  0  0  0  0  0  0  0  0  0 | 0xff000021: 0 , 0 , 0 , 0 , 0 , 0 , 0 , 0 , 0 , 0 , 0 , 0 , 0 | 0xff000022:  227 ,   47 ,   42 ,  235 ,  246 ,  255 ,  238 ,  255 ,   12 ,    0 ,   59 ,    0 ,   61 ,   31 ,   67 ,    5 ,   96 ,    3 ,   34 ,  205 ,    8 ,  128 ,    0 ,    0 ,    0 ,  128 ,    0 ,    0 ,    0 ,    0 ,    9 ,    9 ,    0 ,    0 ,    0 ,    0 ,    0 ,  137 ,   36 ,   34 ,  205 ,   40 ,    8 ,    0 ,  113 ,   34 ,  247 ,  232 ,  116 ,  134 ,  107 ,  109 
E: 000000.177589 64 01 84 7f 82 7f 00 00 06 08 00 00 00 e3 2f 2a eb f6 ff ee ff 0c 00 3b 00 3d 1f 43 05 60 03 22 cd 08 80 00 00 00 80 00 00 00 00 09 09 00 00 00 00 00 89 24 22 cd 28 08 00 71 22 f7 e8 74 86 6b 6d
# ReportID: 1 / X:  132 | Y:  127 | Z:  130 | Rz:  127 | Rx:    0 | Ry:    0 | 0xff000020:    7 | Hat switch:   8 | Button: 0  0  0  0  0  0  0  0  0  0  0  0  0  0  0 | 0xff000021: 0 , 0 , 0 , 0 , 0 , 0 , 0 , 0 , 0 , 0 , 0 , 0 , 0 | 0xff000022:  228 ,   47 ,   42 ,  235 ,  246 ,  255 ,  238 ,  255 ,   10 ,    0 ,   53 ,    0 ,   67 ,   31 ,   66 ,    5 ,   83 ,   50 ,   34 ,  205 ,    8 ,  128 ,    0 ,    0 ,    0 ,  128 ,    0 ,    0 ,    0 ,    0 ,    9 ,    9 ,    0 ,    0 ,    0 ,    0 ,    0 ,  105 ,   83 ,   34 ,  205 ,   40 ,    8 ,    0 ,  186 ,  225 ,  121 ,   67 ,  205 ,    4 ,  146 ,  106 
E: 000000.181444 64 01 84 7f 82 7f 00 00 07 08 00 00 00 e4 2f 2a eb f6 ff ee ff 0a 00 35 00 43 1f 42 05 53 32 22 cd 08 80 00 00 00 80 00 00 00 00 09 09 00 00 00 00 00 69 53 22 cd 28 08 00 ba e1 79 43 cd 04 92 6a
# ReportID: 1 / X:  132 | Y:  127 | Z:  130 | Rz:  127 | Rx:    0 | Ry:    0 | 0xff000020:    8 | Hat switch:   8 | Button: 0  0  0  0  0  0  0  0  0  0  0  0  0  0  0 | 0xff000021: 0 , 0 , 0 , 0 , 0 , 0 , 0 , 0 , 0 , 0 , 0 , 0 , 0 | 0xff000022:  229 ,   47 ,   42 ,  235 ,  247 ,  255 ,  238 ,  255 ,   11 ,    0 ,   61 ,    0 ,   96 ,   31 ,   61 ,    5 ,   70 ,   97 ,   34 ,  205 ,    8 ,  128 ,    0 ,    0 ,    0 ,  128 ,    0 ,    0 ,    0 ,    0 ,    9 ,    9 ,    0 ,    0 ,    0 ,    0 ,    0 ,   73 ,  130 ,   34 ,  205 ,   40 ,    8 ,    0 ,  118 ,  148 ,   46 ,  244 ,   68 ,  112 ,   21 ,   74 
E: 000000.185146 64 01 84 7f 82 7f 00 00 08 08 00 00 00 e5 2f 2a eb f7 ff ee ff 0b 00 3d 00 60 1f 3d 05 46 61 22 cd 08 80 00 00 00 80 00 00 00 00 09 09 00 00 00 00 00 49 82 22 cd 28 08 00 76 94 2e f4 44 70 15 4a
# ReportID: 1 / X:  132 | Y:  127 | Z:  130 | Rz:  127 | Rx:    0 | Ry:    0 | 0xff000020:    9 | Hat switch:   8 | Button: 0  0  0  0  0  0  0  0  0  0  0  0  0  0  0 | 0xff000021: 0 , 0 , 0 , 0 , 0 , 0 , 0 , 0 , 0 , 0 , 0 , 0 , 0 | 0xff000022:  230 ,   47 ,   42 ,  235 ,  247 ,  255 ,  238 ,  255 ,   11 ,    0 ,   59 ,    0 ,   93 ,   31 ,   58 ,    5 ,   57 ,  144 ,   34 ,  205 ,    8 ,  128 ,    0 ,    0 ,    0 ,  128 ,    0 ,    0 ,    0 ,    0 ,    9 ,    9 ,    0 ,    0 ,    0 ,    0 ,    0 ,   41 ,  177 ,   34 ,  205 ,   40 ,    8 ,    0 ,  152 ,    0 ,  189 ,  244 ,  193 ,  190 ,   44 ,  111 
E: 000000.188595 64 01 84 7f 82 7f 00 00 09 08 00 00 00 e6 2f 2a eb f7 ff ee ff 0b 00 3b 00 5d 1f 3a 05 39 90 22 cd 08 80 00 00 00 80 00 00 00 00 09 09 00 00 00 00 00 29 b1 22 cd 28 08 00 98 00 bd f4 c1 be 2c 6f
# ReportID: 1 / X:  132 | Y:  126 | Z:  130 | Rz:  127 | Rx:    0 | Ry:    0 | 0xff000020:   10 | Hat switch:   8 | Button: 0  0  0  0  0  0  0  0  0  0  0  0  0  0  0 | 0xff000021: 0 , 0 , 0 , 0 , 0 , 0 , 0 , 0 , 0 , 0 , 0 , 0 , 0 | 0xff000022:  231 ,   47 ,   42 ,  235 ,  247 ,  255 ,  238 ,  255 ,   10 ,    0 ,   56 ,    0 ,   77 ,   31 ,   59 ,    5 ,   44 ,  191 ,   34 ,  205 ,    8 ,  128 ,    0 ,    0 ,    0 ,  128 ,    0 ,    0 ,    0 ,    0 ,    9 ,    9 ,    0 ,    0 ,    0 ,    0 ,    0 ,    9 ,  224 ,   34 ,  205 ,   40 ,    8 ,    0 ,  103 ,  255 ,   71 ,  255 ,  255 ,  238 ,   96 ,  104 
E: 000000.193996 64 01 84 7e 82 7f 00 00 0a 08 00 00 00 e7 2f 2a eb f7 ff ee ff 0a 00 38 00 4d 1f 3b 05 2c bf 22 cd 08 80 00 00 00 80 00 00 00 00 09 09 00 00 00 00 00 09 e0 22 cd 28 08 00 67 ff 47 ff ff ee 60 68
# ReportID: 1 / X:  132 | Y:  127 | Z:  130 | Rz:  127 | Rx:    0 | Ry:    0 | 0xff000020:   11 | Hat switch:   8 | Button: 0  0  0  0  0  0  0  0  0  0  0  0  0  0  0 | 0xff000021: 0 , 0 , 0 , 0 , 0 , 0 , 0 , 0 , 0 , 0 , 0 , 0 , 0 | 0xff000022:  232 ,   47 ,   42 ,  235 ,  247 ,  255 ,  239 ,  255 ,   10 ,    0 ,   58 ,    0 ,   84 ,   31 ,   53 ,    5 ,   31 ,  238 ,   34 ,  205 ,    8 ,  128 ,    0 ,    0 ,    0 ,  128 ,    0 ,    0 ,    0 ,    0 ,    9 ,    9 ,    0 ,    0 ,    0 ,    0 ,    0 ,  233 ,   14 ,   35 ,  205 ,   40 ,    8 ,    0 ,  177 ,   11 ,   61 ,  174 ,    8 ,  248 ,  151 ,  250 
E: 000000.197066 64 01 84 7f 82 7f 00 00 0b 08 00 00 00 e8 2f 2a eb f7 ff ef ff 0a 00 3a 00 54 1f 35 05 1f ee 22 cd 08 80 00 00 00 80 00 00 00 00 09 09 00 00 00 00 00 e9 0e 23 cd 28 08 00 b1 0b 3d ae 08 f8 97 fa
# ReportID: 1 / X:  132 | Y:  127 | Z:  130 | Rz:  127 | Rx:    0 | Ry:    0 | 0xff000020:   12 | Hat switch:   8 | Button: 0  0  0  0  0  0  0  0  0  0  0  0  0  0  0 | 0xff000021: 0 , 0 , 0 , 0 , 0 , 0 , 0 , 0 , 0 , 0 , 0 , 0 , 0 | 0xff000022:  233 ,   47 ,   42 ,  235 ,  246 ,  255 ,  238 ,  255 ,   12 ,    0 ,   62 ,    0 ,   79 ,   31 ,   48 ,    5 ,   18 ,   29 ,   35 ,  205 ,    8 ,  128 ,    0 ,    0 ,    0 ,  128 ,    0 ,    0 ,    0 ,    0 ,    9 ,    9 ,    0 ,    0 ,    0 ,    0 ,    0 ,  201 ,   61 ,   35 ,  205 ,   40 ,    8 ,    0 ,  130 ,  241 ,   21 ,   51 ,  126 ,  245 ,   47 ,  245 
E: 000000.200674 64 01 84 7f 82 7f 00 00 0c 08 00 00 00 e9 2f 2a eb f6 ff ee ff 0c 00 3e 00 4f 1f 30 05 12 1d 23 cd 08 80 00 00 00 80 00 00 00 00 09 09 00 00 00 00 00 c9 3d 23 cd 28 08 00 82 f1 15 33 7e f5 2f f5
# ReportID: 1 / X:  132 | Y:  127 | Z:  130 | Rz:  127 | Rx:    0 | Ry:    0 | 0xff000020:   13 | Hat switch:   8 | Button: 0  0  0  0  0  0  0  0  0  0  0  0  0  0  0 | 0xff000021: 0 , 0 , 0 , 0 , 0 , 0 , 0 , 0 , 0 , 0 , 0 , 0 , 0 | 0xff000022:  234 ,   47 ,   42 ,  235 ,  246 ,  255 ,  238 ,  255 ,   11 ,    0 ,   51 ,    0 ,   58 ,   31 ,   45 ,    5 ,    5 ,   76 ,   35 ,  205 ,    8 ,  128 ,    0 ,    0 ,    0 ,  128 ,    0 ,    0 ,    0 ,    0 ,    9 ,    9 ,    0 ,    0 ,    0 ,    0 ,    0 ,  169 ,  108 ,   35 ,  205 ,   40 ,    8 ,    0 ,  166 ,  173 ,   81 ,   22 ,   34 ,   59 ,  173 ,  186 
E: 000000.204584 64 01 84 7f 82 7f 00 00 0d 08 00 00 00 ea 2f 2a eb f6 ff ee ff 0b 00 33 00 3a 1f 2d 05 05 4c 23 cd 08 80 00 00 00 80 00 00 00 00 09 09 00 00 00 00 00 a9 6c 23 cd 28 08 00 a6 ad 51 16 22 3b ad ba
# ReportID: 1 / X:  132 | Y:  127 | Z:  130 | Rz:  127 | Rx:    0 | Ry:    0 | 0xff000020:   14 | Hat switch:   8 | Button: 0  0  0  0  0  0  0  0  0  0  0  0  0  0  0 | 0xff000021: 0 , 0 , 0 , 0 , 0 , 0 , 0 , 0 , 0 , 0 , 0 , 0 , 0 | 0xff000022:  235 ,   47 ,   42 ,  235 ,  246 ,  255 ,  238 ,  255 ,   11 ,    0 ,   52 ,    0 ,  124 ,   31 ,   97 ,    5 ,  248 ,  122 ,   35 ,  205 ,    8 ,  128 ,    0 ,    0 ,    0 ,  128 ,    0 ,    0 ,    0 ,    0 ,    9 ,    9 ,    0 ,    0 ,    0 ,    0 ,    0 ,  137 ,  155 ,   35 ,  205 ,   40 ,    8 ,    0 ,  220 ,  226 ,   39 ,  228 ,  122 ,   42 ,   87 ,   50 
E: 000000.208483 64 01 84 7f 82 7f 00 00 0e 08 00 00 00 eb 2f 2a eb f6 ff ee ff 0b 00 34 00 7c 1f 61 05 f8 7a 23 cd 08 80 00 00 00 80 00 00 00 00 09 09 00 00 00 00 00 89 9b 23 cd 28 08 00 dc e2 27 e4 7a 2a 57 32
# ReportID: 1 / X:  132 | Y:  127 | Z:  130 | Rz:  127 | Rx:    0 | Ry:    0 | 0xff000020:   15 | Hat switch:   8 | Button: 0  0  0  0  0  0  0  0  0  0  0  0  0  0  0 | 0xff000021: 0 , 0 , 0 , 0 , 0 , 0 , 0 , 0 , 0 , 0 , 0 , 0 , 0 | 0xff000022:  236 ,   47 ,   42 ,  235 ,  247 ,  255 ,  238 ,  255 ,   11 ,    0 ,   49 ,    0 ,   61 ,   31 ,   22 ,    5 ,  235 ,  169 ,   35 ,  205 ,    8 ,  128 ,    0 ,    0 ,    0 ,  128 ,    0 ,    0 ,    0 ,    0 ,    9 ,    9 ,    0 ,    0 ,    0 ,    0 ,    0 ,  105 ,  202 ,   35 ,  205 ,   40 ,    8 ,    0 ,  242 ,  175 ,  108 ,  177 ,  228 ,   83 ,   33 ,  160 
E: 000000.212585 64 01 84 7f 82 7f 00 00 0f 08 00 00 00 ec 2f 2a eb f7 ff ee ff 0b 00 31 00 3d 1f 16 05 eb a9 23 cd 08 80 00 00 00 80 00 00 00 00 09 09 00 00 00 00 00 69 ca 23 cd 28 08 00 f2 af 6c b1 e4 53 21 a0
# ReportID: 1 / X:  132 | Y:  127 | Z:  130 | Rz:  127 | Rx:    0 | Ry:    0 | 0xff000020:   16 | Hat switch:   8 | Button: 0  0  0  0  0  0  0  0  0  0  0  0  0  0  0 | 0xff000021: 0 , 0 , 0 , 0 , 0 , 0 , 0 , 0 , 0 , 0 , 0 , 0 , 0 | 0xff000022:  237 ,   47 ,   42 ,  235 ,  245 ,  255 ,  239 ,  255 ,   10 ,    0 ,   47 ,    0 ,   86 ,   31 ,   40 ,    5 ,  222 ,  216 ,   35 ,  205 ,    8 ,  128 ,    0 ,    0 ,    0 ,  128 ,    0 ,    0 ,    0 ,    0 ,    9 ,    9 ,    0 ,    0 ,    0 ,    0 ,    0 ,   73 ,  249 ,   35 ,  205 ,   40 ,    8 ,    0 ,  237 ,  205 ,  185 ,  211 ,  182 ,   21 ,  250 ,   11 
E: 000000.216766 64 01 84 7f 82 7f 00 00 10 08 00 00 00 ed 2f 2a eb f5 ff ef ff 0a 00 2f 00 56 1f 28 05 de d8 23 cd 08 80 00 00 00 80 00 00 00 00 09 09 00 00 00 00 00 49 f9 23 cd 28 08 00 ed cd b9 d3 b6 15 fa 0b
# ReportID: 1 / X:  132 | Y:  126 | Z:  130 | Rz:  127 | Rx:    0 | Ry:    0 | 0xff000020:   17 | Hat switch:   8 | Button: 0  0  0  0  0  0  0  0  0  0  0  0  0  0  0 | 0xff000021: 0 , 0 , 0 , 0 , 0 , 0 , 0 , 0 , 0 , 0 , 0 , 0 , 0 | 0xff000022:  238 ,   47 ,   42 ,  235 ,  246 ,  255 ,  238 ,  255 ,   11 ,    0 ,   35 ,    0 ,   92 ,   31 ,   60 ,    5 ,  209 ,    7 ,   36 ,  205 ,    8 ,  128 ,    0 ,    0 ,    0 ,  128 ,    0 ,    0 ,    0 ,    0 ,    9 ,    9 ,    0 ,    0 ,    0 ,    0 ,    0 ,   41 ,   40 ,   36 ,  205 ,   40 ,    8 ,    0 ,  200 ,  227 ,   78 ,   59 ,   57 ,  120 ,   31 ,  133 
E: 000000.220552 64 01 84 7e 82 7f 00 00 11 08 00 00 00 ee 2f 2a eb f6 ff ee ff 0b 00 23 00 5c 1f 3c 05 d1 07 24 cd 08 80 00 00 00 80 00 00 00 00 09 09 00 00 00 00 00 29 28 24 cd 28 08 00 c8 e3 4e 3b 39 78 1f 85
# ReportID: 1 / X:  132 | Y:  126 | Z:  130 | Rz:  127 | Rx:    0 | Ry:    0 | 0xff000020:   18 | Hat switch:   8 | Button: 0  0  0  0  0  0  0  0  0  0  0  0  0  0  0 | 0xff000021: 0 , 0 , 0 , 0 , 0 , 0 , 0 , 0 , 0 , 0 , 0 , 0 , 0 | 0xff000022:  239 ,   47 ,   42 ,  235 ,  246 ,  255 ,  239 ,  255 ,   10 ,    0 ,   40 ,    0 ,   97 ,   31 ,   57 ,    5 ,  196 ,   54 ,   36 ,  205 ,    8 ,  128 ,    0 ,    0 ,    0 ,  128 ,    0 ,    0 ,    0 ,    0 ,    9 ,    9 ,    0 ,    0 ,    0 ,    0 ,    0 ,    9 ,   87 ,   36 ,  205 ,   40 ,    8 ,    0 ,  230 ,   36 ,   12 ,   94 ,  140 ,  253 ,  133 ,  190 
E: 000000.225078 64 01 84 7e 82 7f 00 00 12 08 00 00 00 ef 2f 2a eb f6 ff ef ff 0a 00 28 00 61 1f 39 05 c4 36 24 cd 08 80 00 00 00 80 00 00 00 00 09 09 00 00 00 00 00 09 57 24 cd 28 08 00 e6 24 0c 5e 8c fd 85 be
# ReportID: 1 / X:  132 | Y:  127 | Z:  130 | Rz:  127 | Rx:    0 | Ry:    0 | 0xff000020:   19 | Hat switch:   8 | Button: 0  0  0  0  0  0  0  0  0  0  0  0  0  0  0 | 0xff000021: 0 , 0 , 0 , 0 , 0 , 0 , 0 , 0 , 0 , 0 , 0 , 0 , 0 | 0xff000022:  240 ,   47 ,   42 ,  235 ,  246 ,  255 ,  238 ,  255 ,   10 ,    0 ,   56 ,    0 ,  104 ,   31 ,   43 ,    5 ,  183 ,  101 ,   36 ,  205 ,    8 ,  128 ,    0 ,    0 ,    0 ,  128 ,    0 ,    0 ,    0 ,    0 ,    9 ,    9 ,    0 ,    0 ,    0 ,    0 ,    0 ,  233 ,  133 ,   36 ,  205 ,   40 ,    8 ,    0 ,  253 ,  210 ,  117 ,   14 ,   12 ,   14 ,   56 ,  195 
E: 000000.228646 64 01 84 7f 82 7f 00 00 13 08 00 00 00 f0 2f 2a eb f6 ff ee ff 0a 00 38 00 68 1f 2b 05 b7 65 24 cd 08 80 00 00 00 80 00 00 00 00 09 09 00 00 00 00 00 e9 85 24 cd 28 08 00 fd d2 75 0e 0c 0e 38 c3
# ReportID: 1 / X:  132 | Y:  127 | Z:  130 | Rz:  127 | Rx:    0 | Ry:    0 | 0xff000020:   20 | Hat switch:   8 | Button: 0  0  0  0  0  0  0  0  0  0  0  0  0  0  0 | 0xff000021: 0 , 0 , 0 , 0 , 0 , 0 , 0 , 0 , 0 , 0 , 0 , 0 , 0 | 0xff000022:  241 ,   47 ,   42 ,  235 ,  246 ,  255 ,  239 ,  255 ,   10 ,    0 ,   38 ,    0 ,   84 ,   31 ,   45 ,    5 ,  170 ,  148 ,   36 ,  205 ,    7 ,  128 ,    0 ,    0 ,    0 ,  128 ,    0 ,    0 ,    0 ,    0 ,    9 ,    9 ,    0 ,    0 ,    0 ,    0 ,    0 ,  201 ,  180 ,   36 ,  205 ,   40 ,    8 ,    0 ,   28 ,  184 ,   32 ,  105 ,  159 ,  168 ,  137 ,  252 
E: 000000.232871 64 01 84 7f 82 7f 00 00 14 08 00 00 00 f1 2f 2a eb f6 ff ef ff 0a 00 26 00 54 1f 2d 05 aa 94 24 cd 07 80 00 00 00 80 00 00 00 00 09 09 00 00 00 00 00 c9 b4 24 cd 28 08 00 1c b8 20 69 9f a8 89 fc
# ReportID: 1 / X:  132 | Y:  127 | Z:  130 | Rz:  127 | Rx:    0 | Ry:    0 | 0xff000020:   21 | Hat switch:   8 | Button: 0  0  0  0  0  0  0  0  0  0  0  0  0  0  0 | 0xff000021: 0 , 0 , 0 , 0 , 0 , 0 , 0 , 0 , 0 , 0 , 0 , 0 , 0 | 0xff000022:  242 ,   47 ,   42 ,  235 ,  246 ,  255 ,  239 ,  255 ,   10 ,    0 ,   48 ,    0 ,   90 ,   31 ,   47 ,    5 ,  157 ,  195 ,   36 ,  205 ,    8 ,  128 ,    0 ,    0 ,    0 ,  128 ,    0 ,    0 ,    0 ,    0 ,    9 ,    9 ,    0 ,    0 ,    0 ,    0 ,    0 ,  169 ,  227 ,   36 ,  205 ,   40 ,    8 ,    0 ,  202 ,   38 ,   78 ,  116 ,  146 ,   88 ,   54 ,   42 
E: 000000.236898 64 01 84 7f 82 7f 00 00 15 08 00 00 00 f2 2f 2a eb f6 ff ef ff 0a 00 30 00 5a 1f 2f 05 9d c3 24 cd 08 80 00 00 00 80 00 00 00 00 09 09 00 00 00 00 00 a9 e3 24 cd 28 08 00 ca 26 4e 74 92 58 36 2a
# ReportID: 1 / X:  132 | Y:  127 | Z:  130 | Rz:  127 | Rx:    0 | Ry:    0 | 0xff000020:   22 | Hat switch:   8 | Button: 0  0  0  0  0  0  0  0  0  0  0  0  0  0  0 | 0xff000021: 0 , 0 , 0 , 0 , 0 , 0 , 0 , 0 , 0 , 0 , 0 , 0 , 0 | 0xff000022:  243 ,   47 ,   42 ,  235 ,  246 ,  255 ,  238 ,  255 ,   11 ,    0 ,   48 ,    0 ,   90 ,   31 ,   50 ,    5 ,  144 ,  242 ,   36 ,  205 ,    8 ,  128 ,    0 ,    0 ,    0 ,  128 ,    0 ,    0 ,    0 ,    0 ,    9 ,    9 ,    0 ,    0 ,    0 ,    0 ,    0 ,  137 ,   18 ,   37 ,  205 ,   40 ,    8 ,    0 ,  190 ,   96 ,   87 ,   33 ,  117 ,  102 ,  169 ,   81 
E: 000000.242147 64 01 84 7f 82 7f 00 00 16 08 00 00 00 f3 2f 2a eb f6 ff ee ff 0b 00 30 00 5a 1f 32 05 90 f2 24 cd 08 80 00 00 00 80 00 00 00 00 09 09 00 00 00 00 00 89 12 25 cd 28 08 00 be 60 57 21 75 66 a9 51
# ReportID: 1 / X:  132 | Y:  127 | Z:  130 | Rz:  127 | Rx:    0 | Ry:    0 | 0xff000020:   23 | Hat switch:   8 | Button: 0  0  0  0  0  0  0  0  0  0  0  0  0  0  0 | 0xff000021: 0 , 0 , 0 , 0 , 0 , 0 , 0 , 0 , 0 , 0 , 0 , 0 , 0 | 0xff000022:  244 ,   47 ,   42 ,  235 ,  247 ,  255 ,  238 ,  255 ,   12 ,    0 ,   47 ,    0 ,   94 ,   31 ,   50 ,    5 ,  131 ,   33 ,   37 ,  205 ,    8 ,  128 ,    0 ,    0 ,    0 ,  128 ,    0 ,    0 ,    0 ,    0 ,    9 ,    9 ,    0 ,    0 ,    0 ,    0 ,    0 ,  105 ,   65 ,   37 ,  205 ,   40 ,    8 ,    0 ,   90 ,   77 ,  142 ,   92 ,   58 ,   38 ,  152 ,   60 
E: 000000.245842 64 01 84 7f 82 7f 00 00 17 08 00 00 00 f4 2f 2a eb f7 ff ee ff 0c 00 2f 00 5e 1f 32 05 83 21 25 cd 08 80 00 00 00 80 00 00 00 00 09 09 00 00 00 00 00 69 41 25 cd 28 08 00 5a 4d 8e 5c 3a 26 98 3c
# ReportID: 1 / X:  132 | Y:  127 | Z:  130 | Rz:  127 | Rx:    0 | Ry:    0 | 0xff000020:   24 | Hat switch:   8 | Button: 0  0  0  0  0  0  0  0  0  0  0  0  0  0  0 | 0xff000021: 0 , 0 , 0 , 0 , 0 , 0 , 0 , 0 , 0 , 0 , 0 , 0 , 0 | 0xff000022:  245 ,   47 ,   42 ,  235 ,  246 ,  255 ,  238 ,  255 ,   11 ,    0 ,   43 ,    0 ,   83 ,   31 ,   49 ,    5 ,  119 ,   80 ,   37 ,  205 ,    8 ,  128 ,    0 ,    0 ,    0 ,  128 ,    0 ,    0 ,    0 ,    0 ,    9 ,    9 ,    0 ,    0 ,    0 ,    0 ,    0 ,   73 ,  112 ,   37 ,  205 ,   40 ,    8 ,    0 ,   41 ,  242 ,  133 ,   59 ,   48 ,  175 ,  203 ,  249 
E: 000000.248414 64 01 84 7f 82 7f 00 00 18 08 00 00 00 f5 2f 2a eb f6 ff ee ff 0b 00 2b 00 53 1f 31 05 77 50 25 cd 08 80 00 00 00 80 00 00 00 00 09 09 00 00 00 00 00 49 70 25 cd 28 08 00 29 f2 85 3b 30 af cb f9
# ReportID: 1 / X:  132 | Y:  127 | Z:  130 | Rz:  127 | Rx:    0 | Ry:    0 | 0xff000020:   25 | Hat switch:   8 | Button: 0  0  0  0  0  0  0  0  0  0  0  0  0  0  0 | 0xff000021: 0 , 0 , 0 , 0 , 0 , 0 , 0 , 0 , 0 , 0 , 0 , 0 , 0 | 0xff000022:  246 ,   47 ,   42 ,  235 ,  247 ,  255 ,  239 ,  255 ,   10 ,    0 ,   46 ,    0 ,   94 ,   31 ,   46 ,    5 ,  106 ,  127 ,   37 ,  205 ,    8 ,  128 ,    0 ,    0 ,    0 ,  128 ,    0 ,    0 ,    0 ,    0 ,    9 ,    9 ,    0 ,    0 ,    0 ,    0 ,    0 ,   41 ,  159 ,   37 ,  205 ,   40 ,    8 ,    0 ,   84 ,  231 ,  248 ,  163 ,  236 ,  113 ,  235 ,  172 
E: 000000.252613 64 01 84 7f 82 7f 00 00 19 08 00 00 00 f6 2f 2a eb f7 ff ef ff 0a 00 2e 00 5e 1f 2e 05 6a 7f 25 cd 08 80 00 00 00 80 00 00 00 00 09 09 00 00 00 00 00 29 9f 25 cd 28 08 00 54 e7 f8 a3 ec 71 eb ac
# ReportID: 1 / X:  132 | Y:  127 | Z:  130 | Rz:  127 | Rx:    0 | Ry:    0 | 0xff000020:   26 | Hat switch:   8 | Button: 0  0  0  0  0  0  0  0  0  0  0  0  0  0  0 | 0xff000021: 0 , 0 , 0 , 0 , 0 , 0 , 0 , 0 , 0 , 0 , 0 , 0 , 0 | 0xff000022:  247 ,   47 ,   42 ,  235 ,  246 ,  255 ,  238 ,  255 ,   10 ,    0 ,   52 ,    0 ,   83 ,   31 ,   47 ,    5 ,   93 ,  174 ,   37 ,  205 ,    8 ,  128 ,    0 ,    0 ,    0 ,  128 ,    0 ,    0 ,    0 ,    0 ,    9 ,    9 ,    0 ,    0 ,    0 ,    0 ,    0 ,    9 ,  206 ,   37 ,  205 ,   40 ,    8 ,    0 ,   70 ,  200 ,  197 ,  242 ,  129 ,   47 ,    2 ,  253 
E: 000000.256578 64 01 84 7f 82 7f 00 00 1a 08 00 00 00 f7 2f 2a eb f6 ff ee ff 0a 00 34 00 53 1f 2f 05 5d ae 25 cd 08 80 00 00 00 80 00 00 00 00 09 09 00 00 00 00 00 09 ce 25 cd 28 08 00 46 c8 c5 f2 81 2f 02 fd
# ReportID: 1 / X:  132 | Y:  127 | Z:  130 | Rz:  127 | Rx:    0 | Ry:    0 | 0xff000020:   27 | Hat switch:   8 | Button: 0  0  0  0  0  0  0  0  0  0  0  0  0  0  0 | 0xff000021: 0 , 0 , 0 , 0 , 0 , 0 , 0 , 0 , 0 , 0 , 0 , 0 , 0 | 0xff000022:  248 ,   47 ,   42 ,  235 ,  245 ,  255 ,  239 ,  255 ,   10 ,    0 ,   43 ,    0 ,   71 ,   31 ,   50 ,    5 ,   80 ,  221 ,   37 ,  205 ,    8 ,  128 ,    0 ,    0 ,    0 ,  128 ,    0 ,    0 ,    0 ,    0 ,    9 ,    9 ,    0 ,    0 ,    0 ,    0 ,    0 ,  233 ,  252 ,   37 ,  205 ,   40 ,    8 ,    0 ,   29 ,   54 ,   28 ,   28 ,  132 ,  122 ,  106 ,  151 
E: 000000.260513 64 01 84 7f 82 7f 00 00 1b 08 00 00 00 f8 2f 2a eb f5 ff ef ff 0a 00 2b 00 47 1f 32 05 50 dd 25 cd 08 80 00 00 00 80 00 00 00 00 09 09 00 00 00 00 00 e9 fc 25 cd 28 08 00 1d 36 1c 1c 84 7a 6a 97
# ReportID: 1 / X:  132 | Y:  127 | Z:  129 | Rz:  127 | Rx:    0 | Ry:    0 | 0xff000020:   28 | Hat switch:   8 | Button: 0  0  0  0  0  0  0  0  0  0  0  0  0  0  0 | 0xff000021: 0 , 0 , 0 , 0 , 0 , 0 , 0 , 0 , 0 , 0 , 0 , 0 , 0 | 0xff000022:  249 ,   47 ,   42 ,  235 ,  248 ,  255 ,  238 ,  255 ,   10 ,    0 ,   57 ,    0 ,   76 ,   31 ,   50 ,    5 ,   67 ,   12 ,   38 ,  205 ,    8 ,  128 ,    0 ,    0 ,    0 ,  128 ,    0 ,    0 ,    0 ,    0 ,    9 ,    9 ,    0 ,    0 ,    0 ,    0 ,    0 ,  201 ,   43 ,   38 ,  205 ,   40 ,    8 ,    0 ,   66 ,  227 ,   61 ,  213 ,   69 ,  235 ,   45 ,  216 
E: 000000.264589 64 01 84 7f 81 7f 00 00 1c 08 00 00 00 f9 2f 2a eb f8 ff ee ff 0a 00 39 00 4c 1f 32 05 43 0c 26 cd 08 80 00 00 00 80 00 00 00 00 09 09 00 00 00 00 00 c9 2b 26 cd 28 08 00 42 e3 3d d5 45 eb 2d d8
# ReportID: 1 / X:  132 | Y:  127 | Z:  130 | Rz:  127 | Rx:    0 | Ry:    0 | 0xff000020:   29 | Hat switch:   8 | Button: 0  0  0  0  0  0  0  0  0  0  0  0  0  0  0 | 0xff000021: 0 , 0 , 0 , 0 , 0 , 0 , 0 , 0 , 0 , 0 , 0 , 0 , 0 | 0xff000022:  250 ,   47 ,   42 ,  235 ,  247 ,  255 ,  239 ,  255 ,   10 ,    0 ,   55 ,    0 ,   87 ,   31 ,   49 ,    5 ,   54 ,   59 ,   38 ,  205 ,    8 ,  128 ,    0 ,    0 ,    0 ,  128 ,    0 ,    0 ,    0 ,    0 ,    9 ,    9 ,    0 ,    0 ,    0 ,    0 ,    0 ,  169 ,   90 ,   38 ,  205 ,   40 ,    8 ,    0 ,  194 ,  217 ,  189 ,   48 ,   31 ,   58 ,  215 ,  196 
E: 000000.268739 64 01 84 7f 82 7f 00 00 1d 08 00 00 00 fa 2f 2a eb f7 ff ef ff 0a 00 37 00 57 1f 31 05 36 3b 26 cd 08 80 00 00 00 80 00 00 00 00 09 09 00 00 00 00 00 a9 5a 26 cd 28 08 00 c2 d9 bd 30 1f 3a d7 c4
# ReportID: 1 / X:  132 | Y:  127 | Z:  130 | Rz:  127 | Rx:    0 | Ry:    0 | 0xff000020:   30 | Hat switch:   8 | Button: 0  0  0  0  0  0  0  0  0  0  0  0  0  0  0 | 0xff000021: 0 , 0 , 0 , 0 , 0 , 0 , 0 , 0 , 0 , 0 , 0 , 0 , 0 | 0xff000022:  251 ,   47 ,   42 ,  235 ,  245 ,  255 ,  239 ,  255 ,   10 ,    0 ,   55 ,    0 ,   91 ,   31 ,   57 ,    5 ,   41 ,  106 ,   38 ,  205 ,    8 ,  128 ,    0 ,    0 ,    0 ,  128 ,    0 ,    0 ,    0 ,    0 ,    9 ,    9 ,    0 ,    0 ,    0 ,    0 ,    0 ,  137 ,  137 ,   38 ,  205 ,   40 ,    8 ,    0 ,  123 ,   69 ,  237 ,  104 ,   90 ,  139 ,  132 ,  225 
E: 000000.273603 64 01 84 7f 82 7f 00 00 1e 08 00 00 00 fb 2f 2a eb f5 ff ef ff 0a 00 37 00 5b 1f 39 05 29 6a 26 cd 08 80 00 00 00 80 00 00 00 00 09 09 00 00 00 00 00 89 89 26 cd 28 08 00 7b 45 ed 68 5a 8b 84 e1
# ReportID: 1 / X:  132 | Y:  127 | Z:  130 | Rz:  127 | Rx:    0 | Ry:    0 | 0xff000020:   31 | Hat switch:   8 | Button: 0  0  0  0  0  0  0  0  0  0  0  0  0  0  0 | 0xff000021: 0 , 0 , 0 , 0 , 0 , 0 , 0 , 0 , 0 , 0 , 0 , 0 , 0 | 0xff000022:  252 ,   47 ,   42 ,  235 ,  246 ,  255 ,  239 ,  255 ,   10 ,    0 ,   53 ,    0 ,   91 ,   31 ,   56 ,    5 ,   28 ,  153 ,   38 ,  205 ,    8 ,  128 ,    0 ,    0 ,    0 ,  128 ,    0 ,    0 ,    0 ,    0 ,    9 ,    9 ,    0 ,    0 ,    0 ,    0 ,    0 ,  105 ,  184 ,   38 ,  205 ,   40 ,    8 ,    0 ,  187 ,  174 ,  202 ,  168 ,  172 ,   48 ,   72 ,  229 
E: 000000.277036 64 01 84 7f 82 7f 00 00 1f 08 00 00 00 fc 2f 2a eb f6 ff ef ff 0a 00 35 00 5b 1f 38 05 1c 99 26 cd 08 80 00 00 00 80 00 00 00 00 09 09 00 00 00 00 00 69 b8 26 cd 28 08 00 bb ae ca a8 ac 30 48 e5
# ReportID: 1 / X:  132 | Y:  126 | Z:  130 | Rz:  127 | Rx:    0 | Ry:    0 | 0xff000020:   32 | Hat switch:   8 | Button: 0  0  0  0  0  0  0  0  0  0  0  0  0  0  0 | 0xff000021: 0 , 0 , 0 , 0 , 0 , 0 , 0 , 0 , 0 , 0 , 0 , 0 , 0 | 0xff000022:  253 ,   47 ,   42 ,  235 ,  247 ,  255 ,  238 ,  255 ,   10 ,    0 ,   59 ,    0 ,   84 ,   31 ,   59 ,    5 ,   15 ,  200 ,   38 ,  205 ,    8 ,  128 ,    0 ,    0 ,    0 ,  128 ,    0 ,    0 ,    0 ,    0 ,    9 ,    9 ,    0 ,    0 ,    0 ,    0 ,    0 ,   73 ,  231 ,   38 ,  205 ,   40 ,    8 ,    0 ,  150 ,  161 ,   99 ,   86 ,   56 ,   93 ,  228 ,  150 
E: 000000.280763 64 01 84 7e 82 7f 00 00 20 08 00 00 00 fd 2f 2a eb f7 ff ee ff 0a 00 3b 00 54 1f 3b 05 0f c8 26 cd 08 80 00 00 00 80 00 00 00 00 09 09 00 00 00 00 00 49 e7 26 cd 28 08 00 96 a1 63 56 38 5d e4 96
# ReportID: 1 / X:  132 | Y:  127 | Z:  130 | Rz:  127 | Rx:    0 | Ry:    0 | 0xff000020:   33 | Hat switch:   8 | Button: 0  0  0  0  0  0  0  0  0  0  0  0  0  0  0 | 0xff000021: 0 , 0 , 0 , 0 , 0 , 0 , 0 , 0 , 0 , 0 , 0 , 0 , 0 | 0xff000022:  254 ,   47 ,   42 ,  235 ,  246 ,  255 ,  239 ,  255 ,   10 ,    0 ,   53 ,    0 ,   76 ,   31 ,   61 ,    5 ,    2 ,  247 ,   38 ,  205 ,    8 ,  128 ,    0 ,    0 ,    0 ,  128 ,    0 ,    0 ,    0 ,    0 ,    9 ,    9 ,    0 ,    0 ,    0 ,    0 ,    0 ,   41 ,   22 ,   39 ,  205 ,   40 ,    8 ,    0 ,   72 ,   35 ,   58 ,  158 ,  196 ,  120 ,   30 ,   67 
E: 000000.285657 64 01 84 7f 82 7f 00 00 21 08 00 00 00 fe 2f 2a eb f6 ff ef ff 0a 00 35 00 4c 1f 3d 05 02 f7 26 cd 08 80 00 00 00 80 00 00 00 00 09 09 00 00 00 00 00 29 16 27 cd 28 08 00 48 23 3a 9e c4 78 1e 43
# ReportID: 1 / X:  132 | Y:  127 | Z:  130 | Rz:  127 | Rx:    0 | Ry:    0 | 0xff000020:   34 | Hat switch:   8 | Button: 0  0  0  0  0  0  0  0  0  0  0  0  0  0  0 | 0xff000021: 0 , 0 , 0 , 0 , 0 , 0 , 0 , 0 , 0 , 0 , 0 , 0 , 0 | 0xff000022:  255 ,   47 ,   42 ,  235 ,  248 ,  255 ,  238 ,  255 ,   10 ,    0 ,   58 ,    0 ,   75 ,   31 ,   58 ,    5 ,  245 ,   37 ,   39 ,  205 ,    8 ,  128 ,    0 ,    0 ,    0 ,  128 ,    0 ,    0 ,    0 ,    0 ,    9 ,    9 ,    0 ,    0 ,    0 ,    0 ,    0 ,    9 ,   69 ,   39 ,  205 ,   40 ,    8 ,    0 ,   66 ,   33 ,  199 ,  105 ,  228 ,  151 ,   74 ,   75 
E: 000000.288606 64 01 84 7f 82 7f 00 00 22 08 00 00 00 ff 2f 2a eb f8 ff ee ff 0a 00 3a 00 4b 1f 3a 05 f5 25 27 cd 08 80 00 00 00 80 00 00 00 00 09 09 00 00 00 00 00 09 45 27 cd 28 08 00 42 21 c7 69 e4 97 4a 4b
# ReportID: 1 / X:  132 | Y:  127 | Z:  130 | Rz:  127 | Rx:    0 | Ry:    0 | 0xff000020:   35 | Hat switch:   8 | Button: 0  0  0  0  0  0  0  0  0  0  0  0  0  0  0 | 0xff000021: 0 , 0 , 0 , 0 , 0 , 0 , 0 , 0 , 0 , 0 , 0 , 0 , 0 | 0xff000022:    0 ,   48 ,   42 ,  235 ,  248 ,  255 ,  238 ,  255 ,   11 ,    0 ,   54 ,    0 ,   86 ,   31 ,   55 ,    5 ,  232 ,   84 ,   39 ,  205 ,    8 ,  128 ,    0 ,    0 ,    0 ,  128 ,    0 ,    0 ,    0 ,    0 ,    9 ,    9 ,    0 ,    0 ,    0 ,    0 ,    0 ,  233 ,  115 ,   39 ,  205 ,   40 ,    8 ,    0 ,   68 ,  132 ,  121 ,  161 ,   86 ,   54 ,  134 ,  118 
E: 000000.292656 64 01 84 7f 82 7f 00 00 23 08 00 00 00 00 30 2a eb f8 ff ee ff 0b 00 36 00 56 1f 37 05 e8 54 27 cd 08 80 00 00 00 80 00 00 00 00 09 09 00 00 00 00 00 e9 73 27 cd 28 08 00 44 84 79 a1 56 36 86 76
# ReportID: 1 / X:  132 | Y:  127 | Z:  129 | Rz:  127 | Rx:    0 | Ry:    0 | 0xff000020:   36 | Hat switch:   8 | Button: 0  0  0  0  0  0  0  0  0  0  0  0  0  0  0 | 0xff000021: 0 , 0 , 0 , 0 , 0 , 0 , 0 , 0 , 0 , 0 , 0 , 0 , 0 | 0xff000022:    1 ,   48 ,   42 ,  235 ,  247 ,  255 ,  238 ,  255 ,   11 ,    0 ,   50 ,    0 ,   89 ,   31 ,   63 ,    5 ,  219 ,  131 ,   39 ,  205 ,    8 ,  128 ,    0 ,    0 ,    0 ,  128 ,    0 ,    0 ,    0 ,    0 ,    9 ,    9 ,    0 ,    0 ,    0 ,    0 ,    0 ,  201 ,  162 ,   39 ,  205 ,   40 ,    8 ,    0 ,  236 ,  107 ,   14 ,   83 ,   79 ,  136 ,   24 ,   51 
E: 000000.296963 64 01 84 7f 81 7f 00 00 24 08 00 00 00 01 30 2a eb f7 ff ee ff 0b 00 32 00 59 1f 3f 05 db 83 27 cd 08 80 00 00 00 80 00 00 00 00 09 09 00 00 00 00 00 c9 a2 27 cd 28 08 00 ec 6b 0e 53 4f 88 18 33
# ReportID: 1 / X:  132 | Y:  127 | Z:  130 | Rz:  127 | Rx:    0 | Ry:    0 | 0xff000020:   37 | Hat switch:   8 | Button: 0  0  0  0  0  0  0  0  0  0  0  0  0  0  0 | 0xff000021: 0 , 0 , 0 , 0 , 0 , 0 , 0 , 0 , 0 , 0 , 0 , 0 , 0 | 0xff000022:    2 ,   48 ,   42 ,  235 ,  246 ,  255 ,  239 ,  255 ,   11 ,    0 ,   51 ,    0 ,   74 ,   31 ,   52 ,    5 ,  206 ,  178 ,   39 ,  205 ,    8 ,  128 ,    0 ,    0 ,    0 ,  128 ,    0 ,    0 ,    0 ,    0 ,    9 ,    9 ,    0 ,    0 ,    0 ,    0 ,    0 ,  169 ,  209 ,   39 ,  205 ,   40 ,    8 ,    0 ,  143 ,   67 ,   42 ,  159 ,   62 ,   55 ,  132 ,  140 
E: 000000.300578 64 01 84 7f 82 7f 00 00 25 08 00 00 00 02 30 2a eb f6 ff ef ff 0b 00 33 00 4a 1f 34 05 ce b2 27 cd 08 80 00 00 00 80 00 00 00 00 09 09 00 00 00 00 00 a9 d1 27 cd 28 08 00 8f 43 2a 9f 3e 37 84 8c
# ReportID: 1 / X:  132 | Y:  127 | Z:  130 | Rz:  127 | Rx:    0 | Ry:    0 | 0xff000020:   38 | Hat switch:   8 | Button: 0  0  0  0  0  0  0  0  0  0  0  0  0  0  0 | 0xff000021: 0 , 0 , 0 , 0 , 0 , 0 , 0 , 0 , 0 , 0 , 0 , 0 , 0 | 0xff000022:    3 ,   48 ,   42 ,  235 ,  246 ,  255 ,  239 ,  255 ,   11 ,    0 ,   49 ,    0 ,   69 ,   31 ,   54 ,    5 ,  193 ,  225 ,   39 ,  205 ,    8 ,  128 ,    0 ,    0 ,    0 ,  128 ,    0 ,    0 ,    0 ,    0 ,    9 ,    9 ,    0 ,    0 ,    0 ,    0 ,    0 ,  137 ,    0 ,   40 ,  205 ,   40 ,    8 ,    0 ,  138 ,  120 ,   46 ,  221 ,  195 ,  205 ,  230 ,  165 
E: 000000.304532 64 01 84 7f 82 7f 00 00 26 08 00 00 00 03 30 2a eb f6 ff ef ff 0b 00 31 00 45 1f 36 05 c1 e1 27 cd 08 80 00 00 00 80 00 00 00 00 09 09 00 00 00 00 00 89 00 28 cd 28 08 00 8a 78 2e dd c3 cd e6 a5
# ReportID: 1 / X:  132 | Y:  127 | Z:  130 | Rz:  127 | Rx:    0 | Ry:    0 | 0xff000020:   39 | Hat switch:   8 | Button: 0  0  0  0  0  0  0  0  0  0  0  0  0  0  0 | 0xff000021: 0 , 0 , 0 , 0 , 0 , 0 , 0 , 0 , 0 , 0 , 0 , 0 , 0 | 0xff000022:    4 ,   48 ,   42 ,  235 ,  247 ,  255 ,  239 ,  255 ,   11 ,    0 ,   50 ,    0 ,   76 ,   31 ,   54 ,    5 ,  180 ,   16 ,   40 ,  205 ,    8 ,  128 ,    0 ,    0 ,    0 ,  128 ,    0 ,    0 ,    0 ,    0 ,    9 ,    9 ,    0 ,    0 ,    0 ,    0 ,    0 ,  105 ,   47 ,   40 ,  205 ,   40 ,    8 ,    0 ,  160 ,  106 ,   84 ,  168 ,  100 ,  254 ,  255 ,  105 
E: 000000.309647 64 01 84 7f 82 7f 00 00 27 08 00 00 00 04 30 2a eb f7 ff ef ff 0b 00 32 00 4c 1f 36 05 b4 10 28 cd 08 80 00 00 00 80 00 00 00 00 09 09 00 00 00 00 00 69 2f 28 cd 28 08 00 a0 6a 54 a8 64 fe ff 69
# ReportID: 1 / X:  132 | Y:  127 | Z:  129 | Rz:  127 | Rx:    0 | Ry:    0 | 0xff000020:   40 | Hat switch:   8 | Button: 0  0  0  0  0  0  0  0  0  0  0  0  0  0  0 | 0xff000021: 0 , 0 , 0 , 0 , 0 , 0 , 0 , 0 , 0 , 0 , 0 , 0 , 0 | 0xff000022:    5 ,   48 ,   42 ,  235 ,  247 ,  255 ,  239 ,  255 ,   11 ,    0 ,   56 ,    0 ,   72 ,   31 ,   55 ,    5 ,  168 ,   63 ,   40 ,  205 ,    8 ,  128 ,    0 ,    0 ,    0 ,  128 ,    0 ,    0 ,    0 ,    0 ,    9 ,    9 ,    0 ,    0 ,    0 ,    0 ,    0 ,   73 ,   94 ,   40 ,  205 ,   40 ,    8 ,    0 ,   41 ,    2 ,  126 ,  108 ,  218 ,  233 ,  217 ,   60 
E: 000000.313357 64 01 84 7f 81 7f 00 00 28 08 00 00 00 05 30 2a eb f7 ff ef ff 0b 00 38 00 48 1f 37 05 a8 3f 28 cd 08 80 00 00 00 80 00 00 00 00 09 09 00 00 00 00 00 49 5e 28 cd 28 08 00 29 02 7e 6c da e9 d9 3c
# ReportID: 1 / X:  132 | Y:  127 | Z:  130 | Rz:  127 | Rx:    0 | Ry:    0 | 0xff000020:   41 | Hat switch:   8 | Button: 0  0  0  0  0  0  0  0  0  0  0  0  0  0  0 | 0xff000021: 0 , 0 , 0 , 0 , 0 , 0 , 0 , 0 , 0 , 0 , 0 , 0 , 0 | 0xff000022:    6 ,   48 ,   42 ,  235 ,  247 ,  255 ,  240 ,  255 ,   11 ,    0 ,   58 ,    0 ,   70 ,   31 ,   55 ,    5 ,  155 ,  110 ,   40 ,  205 ,    8 ,  128 ,    0 ,    0 ,    0 ,  128 ,    0 ,    0 ,    0 ,    0 ,    9 ,    9 ,    0 ,    0 ,    0 ,    0 ,    0 ,   41 ,  141 ,   40 ,  205 ,   40 ,    8 ,    0 ,  213 ,   59 ,  242 ,   66 ,  112 ,  117 ,  213 ,    2 
E: 000000.316813 64 01 84 7f 82 7f 00 00 29 08 00 00 00 06 30 2a eb f7 ff f0 ff 0b 00 3a 00 46 1f 37 05 9b 6e 28 cd 08 80 00 00 00 80 00 00 00 00 09 09 00 00 00 00 00 29 8d 28 cd 28 08 00 d5 3b f2 42 70 75 d5 02
# ReportID: 1 / X:  132 | Y:  127 | Z:  130 | Rz:  127 | Rx:    0 | Ry:    0 | 0xff000020:   42 | Hat switch:   8 | Button: 0  0  0  0  0  0  0  0  0  0  0  0  0  0  0 | 0xff000021: 0 , 0 , 0 , 0 , 0 , 0 , 0 , 0 , 0 , 0 , 0 , 0 , 0 | 0xff000022:    7 ,   48 ,   42 ,  235 ,  247 ,  255 ,  238 ,  255 ,   11 ,    0 ,   46 ,    0 ,   86 ,   31 ,   51 ,    5 ,  141 ,  157 ,   40 ,  205 ,    8 ,  128 ,    0 ,    0 ,    0 ,  128 ,    0 ,    0 ,    0 ,    0 ,    9 ,    9 ,    0 ,    0 ,    0 ,    0 ,    0 ,    9 ,  188 ,   40 ,  205 ,   40 ,    8 ,    0 ,  248 ,  108 ,  190 ,  192 ,   56 ,  234 ,  183 ,   75 
E: 000000.322211 64 01 84 7f 82 7f 00 00 2a 08 00 00 00 07 30 2a eb f7 ff ee ff 0b 00 2e 00 56 1f 33 05 8d 9d 28 cd 08 80 00 00 00 80 00 00 00 00 09 09 00 00 00 00 00 09 bc 28 cd 28 08 00 f8 6c be c0 38 ea b7 4b
# ReportID: 1 / X:  132 | Y:  126 | Z:  130 | Rz:  127 | Rx:    0 | Ry:    0 | 0xff000020:   43 | Hat switch:   8 | Button: 0  0  0  0  0  0  0  0  0  0  0  0  0  0  0 | 0xff000021: 0 , 0 , 0 , 0 , 0 , 0 , 0 , 0 , 0 , 0 , 0 , 0 , 0 | 0xff000022:    8 ,   48 ,   42 ,  235 ,  246 ,  255 ,  238 ,  255 ,   11 ,    0 ,   48 ,    0 ,   86 ,   31 ,   43 ,    5 ,  129 ,  204 ,   40 ,  205 ,    8 ,  128 ,    0 ,    0 ,    0 ,  128 ,    0 ,    0 ,    0 ,    0 ,    9 ,    9 ,    0 ,    0 ,    0 ,    0 ,    0 ,  233 ,  234 ,   40 ,  205 ,   40 ,    8 ,    0 ,   56 ,   22 ,  212 ,  155 ,   35 ,  209 ,  103 ,  186 
E: 000000.325964 64 01 84 7e 82 7f 00 00 2b 08 00 00 00 08 30 2a eb f6 ff ee ff 0b 00 30 00 56 1f 2b 05 81 cc 28 cd 08 80 00 00 00 80 00 00 00 00 09 09 00 00 00 00 00 e9 ea 28 cd 28 08 00 38 16 d4 9b 23 d1 67 ba
# ReportID: 1 / X:  132 | Y:  127 | Z:  130 | Rz:  127 | Rx:    0 | Ry:    0 | 0xff000020:   44 | Hat switch:   8 | Button: 0  0  0  0  0  0  0  0  0  0  0  0  0  0  0 | 0xff000021: 0 , 0 , 0 , 0 , 0 , 0 , 0 , 0 , 0 , 0 , 0 , 0 , 0 | 0xff000022:    9 ,   48 ,   42 ,  235 ,  247 ,  255 ,  238 ,  255 ,   11 ,    0 ,   43 ,    0 ,   82 ,   31 ,   50 ,    5 ,  116 ,  251 ,   40 ,  205 ,    8 ,  128 ,    0 ,    0 ,    0 ,  128 ,    0 ,    0 ,    0 ,    0 ,    9 ,    9 ,    0 ,    0 ,    0 ,    0 ,    0 ,  201 ,   25 ,   41 ,  205 ,   40 ,    8 ,    0 ,   28 ,  203 ,   20 ,    8 ,   23 ,  127 ,   43 ,    8 
E: 000000.329642 64 01 84 7f 82 7f 00 00 2c 08 00 00 00 09 30 2a eb f7 ff ee ff 0b 00 2b 00 52 1f 32 05 74 fb 28 cd 08 80 00 00 00 80 00 00 00 00 09 09 00 00 00 00 00 c9 19 29 cd 28 08 00 1c cb 14 08 17 7f 2b 08
# ReportID: 1 / X:  132 | Y:  127 | Z:  129 | Rz:  127 | Rx:    0 | Ry:    0 | 0xff000020:   45 | Hat switch:   8 | Button: 0  0  0  0  0  0  0  0  0  0  0  0  0  0  0 | 0xff000021: 0 , 0 , 0 , 0 , 0 , 0 , 0 , 0 , 0 , 0 , 0 , 0 , 0 | 0xff000022:   10 ,   48 ,   42 ,  235 ,  245 ,  255 ,  238 ,  255 ,   12 ,    0 ,   49 ,    0 ,   89 ,   31 ,   48 ,    5 ,  103 ,   42 ,   41 ,  205 ,    8 ,  128 ,    0 ,    0 ,    0 ,  128 ,    0 ,    0 ,    0 ,    0 ,    9 ,    9 ,    0 ,    0 ,    0 ,    0 ,    0 ,  169 ,   72 ,   41 ,  205 ,   40 ,    8 ,    0 ,   89 ,  234 ,   87 ,   37 ,  201 ,  106 ,  130 ,    3 
E: 000000.333094 64 01 84 7f 81 7f 00 00 2d 08 00 00 00 0a 30 2a eb f5 ff ee ff 0c 00 31 00 59 1f 30 05 67 2a 29 cd 08 80 00 00 00 80 00 00 00 00 09 09 00 00 00 00 00 a9 48 29 cd 28 08 00 59 ea 57 25 c9 6a 82 03
# ReportID: 1 / X:  132 | Y:  127 | Z:  130 | Rz:  127 | Rx:    0 | Ry:    0 | 0xff000020:   46 | Hat switch:   8 | Button: 0  0  0  0  0  0  0  0  0  0  0  0  0  0  0 | 0xff000021: 0 , 0 , 0 , 0 , 0 , 0 , 0 , 0 , 0 , 0 , 0 , 0 , 0 | 0xff000022:   11 ,   48 ,   42 ,  235 ,  246 ,  255 ,  238 ,  255 ,   12 ,    0 ,   45 ,    0 ,   84 ,   31 ,   44 ,    5 ,   90 ,   89 ,   41 ,  205 ,    8 ,  128 ,    0 ,    0 ,    0 ,  128 ,    0 ,    0 ,    0 ,    0 ,    9 ,    9 ,    0 ,    0 ,    0 ,    0 ,    0 ,  137 ,  119 ,   41 ,  205 ,   40 ,    8 ,    0 ,  109 ,  163 ,  175 ,  240 ,  165 ,   46 ,  236 ,   80 
E: 000000.336546 64 01 84 7f 82 7f 00 00 2e 08 00 00 00 0b 30 2a eb f6 ff ee ff 0c 00 2d 00 54 1f 2c 05 5a 59 29 cd 08 80 00 00 00 80 00 00 00 00 09 09 00 00 00 00 00 89 77 29 cd 28 08 00 6d a3 af f0 a5 2e ec 50
# ReportID: 1 / X:  132 | Y:  127 | Z:  130 | Rz:  127 | Rx:    0 | Ry:    0 | 0xff000020:   47 | Hat switch:   8 | Button: 0  0  0  0  0  0  0  0  0  0  0  0  0  0  0 | 0xff000021: 0 , 0 , 0 , 0 , 0 , 0 , 0 , 0 , 0 , 0 , 0 , 0 , 0 | 0xff000022:   12 ,   48 ,   42 ,  235 ,  247 ,  255 ,  238 ,  255 ,   11 ,    0 ,   50 ,    0 ,   76 ,   31 ,   57 ,    5 ,   77 ,  136 ,   41 ,  205 ,    8 ,  128 ,    0 ,    0 ,    0 ,  128 ,    0 ,    0 ,    0 ,    0 ,    9 ,    9 ,    0 ,    0 ,    0 ,    0 ,    0 ,  105 ,  166 ,   41 ,  205 ,   40 ,    8 ,    0 ,   92 ,   40 ,  236 ,  218 ,  244 ,  235 ,  203 ,  123 
E: 000000.340481 64 01 84 7f 82 7f 00 00 2f 08 00 00 00 0c 30 2a eb f7 ff ee ff 0b 00 32 00 4c 1f 39 05 4d 88 29 cd 08 80 00 00 00 80 00 00 00 00 09 09 00 00 00 00 00 69 a6 29 cd 28 08 00 5c 28 ec da f4 eb cb 7b
# ReportID: 1 / X:  132 | Y:  127 | Z:  130 | Rz:  127 | Rx:    0 | Ry:    0 | 0xff000020:   48 | Hat switch:   8 | Button: 0  0  0  0  0  0  0  0  0  0  0  0  0  0  0 | 0xff000021: 0 , 0 , 0 , 0 , 0 , 0 , 0 , 0 , 0 , 0 , 0 , 0 , 0 | 0xff000022:   13 ,   48 ,   42 ,  235 ,  246 ,  255 ,  238 ,  255 ,   12 ,    0 ,   57 ,    0 ,   78 ,   31 ,   59 ,    5 ,   64 ,  183 ,   41 ,  205 ,    8 ,  128 ,    0 ,    0 ,    0 ,  128 ,    0 ,    0 ,    0 ,    0 ,    9 ,    9 ,    0 ,    0 ,    0 ,    0 ,    0 ,   73 ,  213 ,   41 ,  205 ,   40 ,    8 ,    0 ,  232 ,  227 ,   59 ,  244 ,  180 ,   94 ,   89 ,  147 
E: 000000.346014 64 01 84 7f 82 7f 00 00 30 08 00 00 00 0d 30 2a eb f6 ff ee ff 0c 00 39 00 4e 1f 3b 05 40 b7 29 cd 08 80 00 00 00 80 00 00 00 00 09 09 00 00 00 00 00 49 d5 29 cd 28 08 00 e8 e3 3b f4 b4 5e 59 93
# ReportID: 1 / X:  132 | Y:  127 | Z:  130 | Rz:  127 | Rx:    0 | Ry:    0 | 0xff000020:   49 | Hat switch:   8 | Button: 0  0  0  0  0  0  0  0  0  0  0  0  0  0  0 | 0xff000021: 0 , 0 , 0 , 0 , 0 , 0 , 0 , 0 , 0 , 0 , 0 , 0 , 0 | 0xff000022:   14 ,   48 ,   42 ,  235 ,  246 ,  255 ,  238 ,  255 ,   11 ,    0 ,   58 ,    0 ,   79 ,   31 ,   60 ,    5 ,   51 ,  230 ,   41 ,  205 ,    8 ,  128 ,    0 ,    0 ,    0 ,  128 ,    0 ,    0 ,    0 ,    0 ,    9 ,    9 ,    0 ,    0 ,    0 ,    0 ,    0 ,   41 ,    4 ,   42 ,  205 ,   40 ,    8 ,    0 ,   72 ,   59 ,  164 ,   44 ,   56 ,  194 ,  111 ,   88 
E: 000000.350016 64 01 84 7f 82 7f 00 00 31 08 00 00 00 0e 30 2a eb f6 ff ee ff 0b 00 3a 00 4f 1f 3c 05 33 e6 29 cd 08 80 00 00 00 80 00 00 00 00 09 09 00 00 00 00 00 29 04 2a cd 28 08 00 48 3b a4 2c 38 c2 6f 58
# ReportID: 1 / X:  132 | Y:  127 | Z:  129 | Rz:  127 | Rx:    0 | Ry:    0 | 0xff000020:   50 | Hat switch:   8 | Button: 0  0  0  0  0  0  0  0  0  0  0  0  0  0  0 | 0xff000021: 0 , 0 , 0 , 0 , 0 , 0 , 0 , 0 , 0 , 0 , 0 , 0 , 0 | 0xff000022:   15 ,   48 ,   42 ,  235 ,  248 ,  255 ,  238 ,  255 ,   10 ,    0 ,   60 ,    0 ,   77 ,   31 ,   59 ,    5 ,   38 ,   21 ,   42 ,  205 ,    8 ,  128 ,    0 ,    0 ,    0 ,  128 ,    0 ,    0 ,    0 ,    0 ,    9 ,    9 ,    0 ,    0 ,    0 ,    0 ,    0 ,    9 ,   51 ,   42 ,  205 ,   40 ,    8 ,    0 ,  193 ,  133 ,  125 ,  109 ,   21 ,   45 ,  160 ,  174 
E: 000000.352576 64 01 84 7f 81 7f 00 00 32 08 00 00 00 0f 30 2a eb f8 ff ee ff 0a 00 3c 00 4d 1f 3b 05 26 15 2a cd 08 80 00 00 00 80 00 00 00 00 09 09 00 00 00 00 00 09 33 2a cd 28 08 00 c1 85 7d 6d 15 2d a0 ae
# ReportID: 1 / X:  132 | Y:  127 | Z:  130 | Rz:  127 | Rx:    0 | Ry:    0 | 0xff000020:   51 | Hat switch:   8 | Button: 0  0  0  0  0  0  0  0  0  0  0  0  0  0  0 | 0xff000021: 0 , 0 , 0 , 0 , 0 , 0 , 0 , 0 , 0 , 0 , 0 , 0 , 0 | 0xff000022:   16 ,   48 ,   42 ,  235 ,  246 ,  255 ,  238 ,  255 ,   11 ,    0 ,   61 ,    0 ,   82 ,   31 ,   55 ,    5 ,   25 ,   68 ,   42 ,  205 ,    8 ,  128 ,    0 ,    0 ,    0 ,  128 ,    0 ,    0 ,    0 ,    0 ,    9 ,    9 ,    0 ,    0 ,    0 ,    0 ,    0 ,  233 ,   97 ,   42 ,  205 ,   40 ,    8 ,    0 ,   11 ,  178 ,   31 ,  252 ,  254 ,  207 ,   94 ,  143 
E: 000000.357972 64 01 84 7f 82 7f 00 00 33 08 00 00 00 10 30 2a eb f6 ff ee ff 0b 00 3d 00 52 1f 37 05 19 44 2a cd 08 80 00 00 00 80 00 00 00 00 09 09 00 00 00 00 00 e9 61 2a cd 28 08 00 0b b2 1f fc fe cf 5e 8f
# ReportID: 1 / X:  132 | Y:  127 | Z:  130 | Rz:  127 | Rx:    0 | Ry:    0 | 0xff000020:   52 | Hat switch:   8 | Button: 0  0  0  0  0  0  0  0  0  0  0  0  0  0  0 | 0xff000021: 0 , 0 , 0 , 0 , 0 , 0 , 0 , 0 , 0 , 0 , 0 , 0 , 0 | 0xff000022:   17 ,   48 ,   42 ,  235 ,  248 ,  255 ,  238 ,  255 ,   12 ,    0 ,   68 ,    0 ,   75 ,   31 ,   60 ,    5 ,   12 ,  115 ,   42 ,  205 ,    8 ,  128 ,    0 ,    0 ,    0 ,  128 ,    0 ,    0 ,    0 ,    0 ,    9 ,    9 ,    0 ,    0 ,    0 ,    0 ,    0 ,  201 ,  144 ,   42 ,  205 ,   40 ,    8 ,    0 ,  237 ,    4 ,  152 ,  153 ,  150 ,   25 ,   65 ,  226 
E: 000000.361553 64 01 84 7f 82 7f 00 00 34 08 00 00 00 11 30 2a eb f8 ff ee ff 0c 00 44 00 4b 1f 3c 05 0c 73 2a cd 08 80 00 00 00 80 00 00 00 00 09 09 00 00 00 00 00 c9 90 2a cd 28 08 00 ed 04 98 99 96 19 41 e2
# ReportID: 1 / X:  132 | Y:  127 | Z:  130 | Rz:  127 | Rx:    0 | Ry:    0 | 0xff000020:   53 | Hat switch:   8 | Button: 0  0  0  0  0  0  0  0  0  0  0  0  0  0  0 | 0xff000021: 0 , 0 , 0 , 0 , 0 , 0 , 0 , 0 , 0 , 0 , 0 , 0 , 0 | 0xff000022:   18 ,   48 ,   42 ,  235 ,  245 ,  255 ,  237 ,  255 ,   12 ,    0 ,   58 ,    0 ,   54 ,   31 ,   18 ,    5 ,  255 ,  161 ,   42 ,  205 ,    8 ,  128 ,    0 ,    0 ,    0 ,  128 ,    0 ,    0 ,    0 ,    0 ,    9 ,    9 ,    0 ,    0 ,    0 ,    0 ,    0 ,  169 ,  191 ,   42 ,  205 ,   40 ,    8 ,    0 ,  142 ,  143 ,  164 ,  117 ,   98 ,  187 ,  157 ,   39 
E: 000000.365057 64 01 84 7f 82 7f 00 00 35 08 00 00 00 12 30 2a eb f5 ff ed ff 0c 00 3a 00 36 1f 12 05 ff a1 2a cd 08 80 00 00 00 80 00 00 00 00 09 09 00 00 00 00 00 a9 bf 2a cd 28 08 00 8e 8f a4 75 62 bb 9d 27
# ReportID: 1 / X:  132 | Y:  127 | Z:  130 | Rz:  127 | Rx:    0 | Ry:    0 | 0xff000020:   54 | Hat switch:   8 | Button: 0  0  0  0  0  0  0  0  0  0  0  0  0  0  0 | 0xff000021: 0 , 0 , 0 , 0 , 0 , 0 , 0 , 0 , 0 , 0 , 0 , 0 , 0 | 0xff000022:   19 ,   48 ,   42 ,  235 ,  248 ,  255 ,  238 ,  255 ,   11 ,    0 ,   69 ,    0 ,  115 ,   31 ,   69 ,    5 ,  242 ,  208 ,   42 ,  205 ,    8 ,  128 ,    0 ,    0 ,    0 ,  128 ,    0 ,    0 ,    0 ,    0 ,    9 ,    9 ,    0 ,    0 ,    0 ,    0 ,    0 ,  137 ,  238 ,   42 ,  205 ,   40 ,    8 ,    0 ,  162 ,  232 ,  232 ,  163 ,  145 ,  229 ,   30 ,   97 
E: 000000.368812 64 01 84 7f 82 7f 00 00 36 08 00 00 00 13 30 2a eb f8 ff ee ff 0b 00 45 00 73 1f 45 05 f2 d0 2a cd 08 80 00 00 00 80 00 00 00 00 09 09 00 00 00 00 00 89 ee 2a cd 28 08 00 a2 e8 e8 a3 91 e5 1e 61
# ReportID: 1 / X:  132 | Y:  127 | Z:  130 | Rz:  127 | Rx:    0 | Ry:    0 | 0xff000020:   55 | Hat switch:   8 | Button: 0  0  0  0  0  0  0  0  0  0  0  0  0  0  0 | 0xff000021: 0 , 0 , 0 , 0 , 0 , 0 , 0 , 0 , 0 , 0 , 0 , 0 , 0 | 0xff000022:   20 ,   48 ,   42 ,  235 ,  247 ,  255 ,  238 ,  255 ,   11 ,    0 ,   63 ,    0 ,  130 ,   31 ,   95 ,    5 ,  229 ,  255 ,   42 ,  205 ,    8 ,  128 ,    0 ,    0 ,    0 ,  128 ,    0 ,    0 ,    0 ,    0 ,    9 ,    9 ,    0 ,    0 ,    0 ,    0 ,    0 ,  105 ,   29 ,   43 ,  205 ,   40 ,    8 ,    0 ,   79 ,   60 ,   49 ,  168 ,  100 ,  106 ,   40 ,   43 
E: 000000.372613 64 01 84 7f 82 7f 00 00 37 08 00 00 00 14 30 2a eb f7 ff ee ff 0b 00 3f 00 82 1f 5f 05 e5 ff 2a cd 08 80 00 00 00 80 00 00 00 00 09 09 00 00 00 00 00 69 1d 2b cd 28 08 00 4f 3c 31 a8 64 6a 28 2b
# ReportID: 1 / X:  132 | Y:  126 | Z:  129 | Rz:  127 | Rx:    0 | Ry:    0 | 0xff000020:   56 | Hat switch:   8 | Button: 0  0  0  0  0  0  0  0  0  0  0  0  0  0  0 | 0xff000021: 0 , 0 , 0 , 0 , 0 , 0 , 0 , 0 , 0 , 0 , 0 , 0 , 0 | 0xff000022:   21 ,   48 ,   42 ,  235 ,  248 ,  255 ,  240 ,  255 ,    8 ,    0 ,   73 ,    0 ,  110 ,   31 ,   54 ,    5 ,  216 ,   46 ,   43 ,  205 ,    8 ,  128 ,    0 ,    0 ,    0 ,  128 ,    0 ,    0 ,    0 ,    0 ,    9 ,    9 ,    0 ,    0 ,    0 ,    0 ,    0 ,   73 ,   76 ,   43 ,  205 ,   40 ,    8 ,    0 ,  195 ,  108 ,  192 ,   97 ,  121 ,    1 ,   33 ,   42 
E: 000000.376544 64 01 84 7e 81 7f 00 00 38 08 00 00 00 15 30 2a eb f8 ff f0 ff 08 00 49 00 6e 1f 36 05 d8 2e 2b cd 08 80 00 00 00 80 00 00 00 00 09 09 00 00 00 00 00 49 4c 2b cd 28 08 00 c3 6c c0 61 79 01 21 2a
# ReportID: 1 / X:  132 | Y:  127 | Z:  130 | Rz:  127 | Rx:    0 | Ry:    0 | 0xff000020:   57 | Hat switch:   8 | Button: 0  0  0  0  0  0  0  0  0  0  0  0  0  0  0 | 0xff000021: 0 , 0 , 0 , 0 , 0 , 0 , 0 , 0 , 0 , 0 , 0 , 0 , 0 | 0xff000022:   22 ,   48 ,   42 ,  235 ,  250 ,  255 ,  240 ,  255 ,    7 ,    0 ,   58 ,    0 ,   55 ,   31 ,    5 ,    5 ,  203 ,   93 ,   43 ,  205 ,    8 ,  128 ,    0 ,    0 ,    0 ,  128 ,    0 ,    0 ,    0 ,    0 ,    9 ,    9 ,    0 ,    0 ,    0 ,    0 ,    0 ,   41 ,  123 ,   43 ,  205 ,   40 ,    8 ,    0 ,  226 ,  118 ,   79 ,  126 ,  169 ,  135 ,   19 ,  198 
E: 000000.380460 64 01 84 7f 82 7f 00 00 39 08 00 00 00 16 30 2a eb fa ff f0 ff 07 00 3a 00 37 1f 05 05 cb 5d 2b cd 08 80 00 00 00 80 00 00 00 00 09 09 00 00 00 00 00 29 7b 2b cd 28 08 00 e2 76 4f 7e a9 87 13 c6
# ReportID: 1 / X:  132 | Y:  127 | Z:  130 | Rz:  127 | Rx:    0 | Ry:    0 | 0xff000020:   58 | Hat switch:   8 | Button: 0  0  0  0  0  0  0  0  0  0  0  0  0  0  0 | 0xff000021: 0 , 0 , 0 , 0 , 0 , 0 , 0 , 0 , 0 , 0 , 0 , 0 , 0 | 0xff000022:   23 ,   48 ,   42 ,  235 ,  251 ,  255 ,  240 ,  255 ,    7 ,    0 ,   66 ,    0 ,  146 ,   31 ,   71 ,    5 ,  190 ,  140 ,   43 ,  205 ,    8 ,  128 ,    0 ,    0 ,    0 ,  128 ,    0 ,    0 ,    0 ,    0 ,    9 ,    9 ,    0 ,    0 ,    0 ,    0 ,    0 ,    9 ,  170 ,   43 ,  205 ,   40 ,    8 ,    0 ,   63 ,   79 ,  161 ,  168 ,  211 ,   48 ,   91 ,  117 
E: 000000.385412 64 01 84 7f 82 7f 00 00 3a 08 00 00 00 17 30 2a eb fb ff f0 ff 07 00 42 00 92 1f 47 05 be 8c 2b cd 08 80 00 00 00 80 00 00 00 00 09 09 00 00 00 00 00 09 aa 2b cd 28 08 00 3f 4f a1 a8 d3 30 5b 75
# ReportID: 1 / X:  132 | Y:  127 | Z:  130 | Rz:  127 | Rx:    0 | Ry:    0 | 0xff000020:   59 | Hat switch:   8 | Button: 0  0  0  0  0  0  0  0  0  0  0  0  0  0  0 | 0xff000021: 0 , 0 , 0 , 0 , 0 , 0 , 0 , 0 , 0 , 0 , 0 , 0 , 0 | 0xff000022:   24 ,   48 ,   42 ,  235 ,  248 ,  255 ,  240 ,  255 ,    8 ,    0 ,   71 ,    0 ,   89 ,   31 ,   47 ,    5 ,  177 ,  187 ,   43 ,  205 ,    8 ,  128 ,    0 ,    0 ,    0 ,  128 ,    0 ,    0 ,    0 ,    0 ,    9 ,    9 ,    0 ,    0 ,    0 ,    0 ,    0 ,  233 ,  216 ,   43 ,  205 ,   40 ,    8 ,    0 ,  161 ,  206 ,   60 ,  112 ,  157 ,   16 ,   56 ,  171 
E: 000000.389133 64 01 84 7f 82 7f 00 00 3b 08 00 00 00 18 30 2a eb f8 ff f0 ff 08 00 47 00 59 1f 2f 05 b1 bb 2b cd 08 80 00 00 00 80 00 00 00 00 09 09 00 00 00 00 00 e9 d8 2b cd 28 08 00 a1 ce 3c 70 9d 10 38 ab
# ReportID: 1 / X:  132 | Y:  127 | Z:  130 | Rz:  127 | Rx:    0 | Ry:    0 | 0xff000020:   60 | Hat switch:   8 | Button: 0  0  0  0  0  0  0  0  0  0  0  0  0  0  0 | 0xff000021: 0 , 0 , 0 , 0 , 0 , 0 , 0 , 0 , 0 , 0 , 0 , 0 , 0 | 0xff000022:   25 ,   48 ,   42 ,  235 ,  248 ,  255 ,  240 ,  255 ,    8 ,    0 ,   57 ,    0 ,   97 ,   31 ,   34 ,    5 ,  164 ,  234 ,   43 ,  205 ,    8 ,  128 ,    0 ,    0 ,    0 ,  128 ,    0 ,    0 ,    0 ,    0 ,    9 ,    9 ,    0 ,    0 ,    0 ,    0 ,    0 ,  201 ,    7 ,   44 ,  205 ,   40 ,    8 ,    0 ,  113 ,   23 ,  183 ,    5 ,  102 ,   32 ,  145 ,   28 
E: 000000.392610 64 01 84 7f 82 7f 00 00 3c 08 00 00 00 19 30 2a eb f8 ff f0 ff 08 00 39 00 61 1f 22 05 a4 ea 2b cd 08 80 00 00 00 80 00 00 00 00 09 09 00 00 00 00 00 c9 07 2c cd 28 08 00 71 17 b7 05 66 20 91 1c
# ReportID: 1 / X:  132 | Y:  127 | Z:  130 | Rz:  127 | Rx:    0 | Ry:    0 | 0xff000020:   61 | Hat switch:   8 | Button: 0  0  0  0  0  0  0  0  0  0  0  0  0  0  0 | 0xff000021: 0 , 0 , 0 , 0 , 0 , 0 , 0 , 0 , 0 , 0 , 0 , 0 , 0 | 0xff000022:   26 ,   48 ,   42 ,  235 ,  250 ,  255 ,  240 ,  255 ,    8 ,    0 ,   42 ,    0 ,   68 ,   31 ,    5 ,    5 ,  151 ,   25 ,   44 ,  205 ,    8 ,  128 ,    0 ,    0 ,    0 ,  128 ,    0 ,    0 ,    0 ,    0 ,    9 ,    9 ,    0 ,    0 ,    0 ,    0 ,    0 ,  169 ,   54 ,   44 ,  205 ,   40 ,    8 ,    0 ,  140 ,  105 ,  148 ,  125 ,  234 ,  112 ,  149 ,   97 
E: 000000.397534 64 01 84 7f 82 7f 00 00 3d 08 00 00 00 1a 30 2a eb fa ff f0 ff 08 00 2a 00 44 1f 05 05 97 19 2c cd 08 80 00 00 00 80 00 00 00 00 09 09 00 00 00 00 00 a9 36 2c cd 28 08 00 8c 69 94 7d ea 70 95 61
# ReportID: 1 / X:  132 | Y:  127 | Z:  130 | Rz:  127 | Rx:    0 | Ry:    0 | 0xff000020:   62 | Hat switch:   8 | Button: 0  0  0  0  0  0  0  0  0  0  0  0  0  0  0 | 0xff000021: 0 , 0 , 0 , 0 , 0 , 0 , 0 , 0 , 0 , 0 , 0 , 0 , 0 | 0xff000022:   27 ,   48 ,   42 ,  235 ,  248 ,  255 ,  238 ,  255 ,   10 ,    0 ,   43 ,    0 ,   88 ,   31 ,   28 ,    5 ,  139 ,   72 ,   44 ,  205 ,    8 ,  128 ,    0 ,    0 ,    0 ,  128 ,    0 ,    0 ,    0 ,    0 ,    9 ,    9 ,    0 ,    0 ,    0 ,    0 ,    0 ,  137 ,  101 ,   44 ,  205 ,   40 ,    8 ,    0 ,  102 ,   82 ,   46 ,  176 ,   24 ,  220 ,  145 ,  122 
E: 000000.401045 64 01 84 7f 82 7f 00 00 3e 08 00 00 00 1b 30 2a eb f8 ff ee ff 0a 00 2b 00 58 1f 1c 05 8b 48 2c cd 08 80 00 00 00 80 00 00 00 00 09 09 00 00 00 00 00 89 65 2c cd 28 08 00 66 52 2e b0 18 dc 91 7a
# ReportID: 1 / X:  132 | Y:  126 | Z:  130 | Rz:  127 | Rx:    0 | Ry:    0 | 0xff000020:   63 | Hat switch:   8 | Button: 0  0  0  0  0  0  0  0  0  0  0  0  0  0  0 | 0xff000021: 0 , 0 , 0 , 0 , 0 , 0 , 0 , 0 , 0 , 0 , 0 , 0 , 0 | 0xff000022:   28 ,   48 ,   42 ,  235 ,  247 ,  255 ,  238 ,  255 ,   10 ,    0 ,   57 ,    0 ,  109 ,   31 ,   39 ,    5 ,  126 ,  119 ,   44 ,  205 ,    8 ,  128 ,    0 ,    0 ,    0 ,  128 ,    0 ,    0 ,    0 ,    0 ,    9 ,    9 ,    0 ,    0 ,    0 ,    0 ,    0 ,  105 ,  148 ,   44 ,  205 ,   40 ,    8 ,    0 ,  198 ,   25 ,  162 ,   95 ,  189 ,  205 ,  152 ,  250 
E: 000000.406158 64 01 84 7e 82 7f 00 00 3f 08 00 00 00 1c 30 2a eb f7 ff ee ff 0a 00 39 00 6d 1f 27 05 7e 77 2c cd 08 80 00 00 00 80 00 00 00 00 09 09 00 00 00 00 00 69 94 2c cd 28 08 00 c6 19 a2 5f bd cd 98 fa
# ReportID: 1 / X:  132 | Y:  126 | Z:  130 | Rz:  127 | Rx:    0 | Ry:    0 | 0xff000020:   64 | Hat switch:   8 | Button: 0  0  0  0  0  0  0  0  0  0  0  0  0  0  0 | 0xff000021: 0 , 0 , 0 , 0 , 0 , 0 , 0 , 0 , 0 , 0 , 0 , 0 , 0 | 0xff000022:   29 ,   48 ,   42 ,  235 ,  246 ,  255 ,  238 ,  255 ,    9 ,    0 ,   43 ,    0 ,   98 ,   31 ,   40 ,    5 ,  113 ,  166 ,   44 ,  205 ,    8 ,  128 ,    0 ,    0 ,    0 ,  128 ,    0 ,    0 ,    0 ,    0 ,    9 ,    9 ,    0 ,    0 ,    0 ,    0 ,    0 ,   73 ,  195 ,   44 ,  205 ,   40 ,    8 ,    0 ,  250 ,  170 ,   52 ,  210 ,  144 ,  170 ,  216 ,   71 
E: 000000.409873 64 01 84 7e 82 7f 00 00 40 08 00 00 00 1d 30 2a eb f6 ff ee ff 09 00 2b 00 62 1f 28 05 71 a6 2c cd 08 80 00 00 00 80 00 00 00 00 09 09 00 00 00 00 00 49 c3 2c cd 28 08 00 fa aa 34 d2 90 aa d8 47
# ReportID: 1 / X:  132 | Y:  126 | Z:  129 | Rz:  127 | Rx:    0 | Ry:    0 | 0xff000020:   65 | Hat switch:   8 | Button: 0  0  0  0  0  0  0  0  0  0  0  0  0  0  0 | 0xff000021: 0 , 0 , 0 , 0 , 0 , 0 , 0 , 0 , 0 , 0 , 0 , 0 , 0 | 0xff000022:   30 ,   48 ,   42 ,  235 ,  246 ,  255 ,  238 ,  255 ,    9 ,    0 ,   45 ,    0 ,   88 ,   31 ,   50 ,    5 ,  100 ,  213 ,   44 ,  205 ,    8 ,  128 ,    0 ,    0 ,    0 ,  128 ,    0 ,    0 ,    0 ,    0 ,    9 ,    9 ,    0 ,    0 ,    0 ,    0 ,    0 ,   41 ,  242 ,   44 ,  205 ,   40 ,    8 ,    0 ,   33 ,   56 ,   85 ,   77 ,  119 ,    1 ,  188 ,    7 
E: 000000.413423 64 01 84 7e 81 7f 00 00 41 08 00 00 00 1e 30 2a eb f6 ff ee ff 09 00 2d 00 58 1f 32 05 64 d5 2c cd 08 80 00 00 00 80 00 00 00 00 09 09 00 00 00 00 00 29 f2 2c cd 28 08 00 21 38 55 4d 77 01 bc 07
# ReportID: 1 / X:  132 | Y:  127 | Z:  130 | Rz:  127 | Rx:    0 | Ry:    0 | 0xff000020:   66 | Hat switch:   8 | Button: 0  0  0  0  0  0  0  0  0  0  0  0  0  0  0 | 0xff000021: 0 , 0 , 0 , 0 , 0 , 0 , 0 , 0 , 0 , 0 , 0 , 0 , 0 | 0xff000022:   31 ,   48 ,   42 ,  235 ,  248 ,  255 ,  240 ,  255 ,    8 ,    0 ,   54 ,    0 ,  109 ,   31 ,   76 ,    5 ,   87 ,    4 ,   45 ,  205 ,    8 ,  128 ,    0 ,    0 ,    0 ,  128 ,    0 ,    0 ,    0 ,    0 ,    9 ,    9 ,    0 ,    0 ,    0 ,    0 ,    0 ,    9 ,   33 ,   45 ,  205 ,   40 ,    8 ,    0 ,   18 ,  183 ,  150 ,  132 ,    2 ,   71 ,  129 ,   16 
E: 000000.417074 64 01 84 7f 82 7f 00 00 42 08 00 00 00 1f 30 2a eb f8 ff f0 ff 08 00 36 00 6d 1f 4c 05 57 04 2d cd 08 80 00 00 00 80 00 00 00 00 09 09 00 00 00 00 00 09 21 2d cd 28 08 00 12 b7 96 84 02 47 81 10
# ReportID: 1 / X:  132 | Y:  127 | Z:  130 | Rz:  127 | Rx:    0 | Ry:    0 | 0xff000020:   67 | Hat switch:   8 | Button: 0  0  0  0  0  0  0  0  0  0  0  0  0  0  0 | 0xff000021: 0 , 0 , 0 , 0 , 0 , 0 , 0 , 0 , 0 , 0 , 0 , 0 , 0 | 0xff000022:   32 ,   48 ,   42 ,  235 ,  247 ,  255 ,  240 ,  255 ,    8 ,    0 ,   50 ,    0 ,   59 ,   31 ,   40 ,    5 ,   74 ,   51 ,   45 ,  205 ,    8 ,  128 ,    0 ,    0 ,    0 ,  128 ,    0 ,    0 ,    0 ,    0 ,    9 ,    9 ,    0 ,    0 ,    0 ,    0 ,    0 ,  233 ,   79 ,   45 ,  205 ,   40 ,    8 ,    0 ,  201 ,  228 ,   45 ,  150 ,  113 ,  187 ,  133 ,  197 
E: 000000.420534 64 01 84 7f 82 7f 00 00 43 08 00 00 00 20 30 2a eb f7 ff f0 ff 08 00 32 00 3b 1f 28 05 4a 33 2d cd 08 80 00 00 00 80 00 00 00 00 09 09 00 00 00 00 00 e9 4f 2d cd 28 08 00 c9 e4 2d 96 71 bb 85 c5
# ReportID: 1 / X:  132 | Y:  127 | Z:  130 | Rz:  127 | Rx:    0 | Ry:    0 | 0xff000020:   68 | Hat switch:   8 | Button: 0  0  0  0  0  0  0  0  0  0  0  0  0  0  0 | 0xff000021: 0 , 0 , 0 , 0 , 0 , 0 , 0 , 0 , 0 , 0 , 0 , 0 , 0 | 0xff000022:   33 ,   48 ,   42 ,  235 ,  248 ,  255 ,  240 ,  255 ,    8 ,    0 ,   46 ,    0 ,   72 ,   31 ,   66 ,    5 ,   61 ,   98 ,   45 ,  205 ,    8 ,  128 ,    0 ,    0 ,    0 ,  128 ,    0 ,    0 ,    0 ,    0 ,    9 ,    9 ,    0 ,    0 ,    0 ,    0 ,    0 ,  201 ,  126 ,   45 ,  205 ,   40 ,    8 ,    0 ,  145 ,  127 ,  217 ,  104 ,  142 ,  254 ,   81 ,   11 
E: 000000.424538 64 01 84 7f 82 7f 00 00 44 08 00 00 00 21 30 2a eb f8 ff f0 ff 08 00 2e 00 48 1f 42 05 3d 62 2d cd 08 80 00 00 00 80 00 00 00 00 09 09 00 00 00 00 00 c9 7e 2d cd 28 08 00 91 7f d9 68 8e fe 51 0b
