# Sony Interactive Entertainment DualSense Wireless Controller
# 0x05, 0x01,                    // Usage Page (Generic Desktop)        0
# 0x09, 0x05,                    // Usage (Game Pad)                    2
# 0xa1, 0x01,                    // Collection (Application)            4
# 0x85, 0x01,                    //  Report ID (1)                      6
# 0x09, 0x30,                    //  Usage (X)                          8
# 0x09, 0x31,                    //  Usage (Y)                          10
# 0x09, 0x32,                    //  Usage (Z)                          12
# 0x09, 0x35,                    //  Usage (Rz)                         14
# 0x09, 0x33,                    //  Usage (Rx)                         16
# 0x09, 0x34,                    //  Usage (Ry)                         18
# 0x15, 0x00,                    //  Logical Minimum (0)                20
# 0x26, 0xff, 0x00,              //  Logical Maximum (255)              22
# 0x75, 0x08,                    //  Report Size (8)                    25
# 0x95, 0x06,                    //  Report Count (6)                   27
# 0x81, 0x02,                    //  Input (Data,Var,Abs)               29
# 0x06, 0x00, 0xff,              //  Usage Page (Vendor Defined Page 1) 31
# 0x09, 0x20,                    //  Usage (Vendor Usage 0x20)          34
# 0x95, 0x01,                    //  Report Count (1)                   36
# 0x81, 0x02,                    //  Input (Data,Var,Abs)               38
# 0x05, 0x01,                    //  Usage Page (Generic Desktop)       40
# 0x09, 0x39,                    //  Usage (Hat switch)                 42
# 0x15, 0x00,                    //  Logical Minimum (0)                44
# 0x25, 0x07,                    //  Logical Maximum (7)                46
# 0x35, 0x00,                    //  Physical Minimum (0)               48
# 0x46, 0x3b, 0x01,              //  Physical Maximum (315)             50
# 0x65, 0x14,                    //  Unit (EnglishRotation: deg)        53
# 0x75, 0x04,                    //  Report Size (4)                    55
# 0x95, 0x01,                    //  Report Count (1)                   57
# 0x81, 0x42,                    //  Input (Data,Var,Abs,Null)          59
# 0x65, 0x00,                    //  Unit (None)                        61
# 0x05, 0x09,                    //  Usage Page (Button)                63
# 0x19, 0x01,                    //  Usage Minimum (1)                  65
# 0x29, 0x0f,                    //  Usage Maximum (15)                 67
# 0x15, 0x00,                    //  Logical Minimum (0)                69
# 0x25, 0x01,                    //  Logical Maximum (1)                71
# 0x75, 0x01,                    //  Report Size (1)                    73
# 0x95, 0x0f,                    //  Report Count (15)                  75
# 0x81, 0x02,                    //  Input (Data,Var,Abs)               77
# 0x06, 0x00, 0xff,              //  Usage Page (Vendor Defined Page 1) 79
# 0x09, 0x21,                    //  Usage (Vendor Usage 0x21)          82
# 0x95, 0x0d,                    //  Report Count (13)                  84
# 0x81, 0x02,                    //  Input (Data,Var,Abs)               86
# 0x06, 0x00, 0xff,              //  Usage Page (Vendor Defined Page 1) 88
# 0x09, 0x22,                    //  Usage (Vendor Usage 0x22)          91
# 0x15, 0x00,                    //  Logical Minimum (0)                93
# 0x26, 0xff, 0x00,              //  Logical Maximum (255)              95
# 0x75, 0x08,                    //  Report Size (8)                    98
# 0x95, 0x34,                    //  Report Count (52)                  100
# 0x81, 0x02,                    //  Input (Data,Var,Abs)               102
# 0x85, 0x02,                    //  Report ID (2)                      104
# 0x09, 0x23,                    //  Usage (Vendor Usage 0x23)          106
# 0x95, 0x2f,                    //  Report Count (47)                  108
# 0x91, 0x02,                    //  Output (Data,Var,Abs)              110
# 0x85, 0x05,                    //  Report ID (5)                      112
# 0x09, 0x33,                    //  Usage (Vendor Usage 0x33)          114
# 0x95, 0x28,                    //  Report Count (40)                  116
# 0xb1, 0x02,                    //  Feature (Data,Var,Abs)             118
# 0x85, 0x08,                    //  Report ID (8)                      120
# 0x09, 0x34,                    //  Usage (Vendor Usage 0x34)          122
# 0x95, 0x2f,                    //  Report Count (47)                  124
# 0xb1, 0x02,                    //  Feature (Data,Var,Abs)             126
# 0x85, 0x09,                    //  Report ID (9)                      128
# 0x09, 0x24,                    //  Usage (Vendor Usage 0x24)          130
# 0x95, 0x13,                    //  Report Count (19)                  132
# 0xb1, 0x02,                    //  Feature (Data,Var,Abs)             134
# 0x85, 0x0a,                    //  Report ID (10)                     136
# 0x09, 0x25,                    //  Usage (Vendor Usage 0x25)          138
# 0x95, 0x1a,                    //  Report Count (26)                  140
# 0xb1, 0x02,                    //  Feature (Data,Var,Abs)             142
# 0x85, 0x20,                    //  Report ID (32)                     144
# 0x09, 0x26,                    //  Usage (Vendor Usage 0x26)          146
# 0x95, 0x3f,                    //  Report Count (63)                  148
# 0xb1, 0x02,                    //  Feature (Data,Var,Abs)             150
# 0x85, 0x21,                    //  Report ID (33)                     152
# 0x09, 0x27,                    //  Usage (Vendor Usage 0x27)          154
# 0x95, 0x04,                    //  Report Count (4)                   156
# 0xb1, 0x02,                    //  Feature (Data,Var,Abs)             158
# 0x85, 0x22,                    //  Report ID (34)                     160
# 0x09, 0x40,                    //  Usage (Vendor Usage 0x40)          162
# 0x95, 0x3f,                    //  Report Count (63)                  164
# 0xb1, 0x02,                    //  Feature (Data,Var,Abs)             166
# 0x85, 0x80,                    //  Report ID (128)                    168
# 0x09, 0x28,                    //  Usage (Vendor Usage 0x28)          170
# 0x95, 0x3f,                    //  Report Count (63)                  172
# 0xb1, 0x02,                    //  Feature (Data,Var,Abs)             174
# 0x85, 0x81,                    //  Report ID (129)                    176
# 0x09, 0x29,                    //  Usage (Vendor Usage 0x29)          178
# 0x95, 0x3f,                    //  Report Count (63)                  180
# 0xb1, 0x02,                    //  Feature (Data,Var,Abs)             182
# 0x85, 0x82,                    //  Report ID (130)                    184
# 0x09, 0x2a,                    //  Usage (Vendor Usage 0x2a)          186
# 0x95, 0x09,                    //  Report Count (9)                   188
# 0xb1, 0x02,                    //  Feature (Data,Var,Abs)             190
# 0x85, 0x83,                    //  Report ID (131)                    192
# 0x09, 0x2b,                    //  Usage (Vendor Usage 0x2b)          194
# 0x95, 0x3f,                    //  Report Count (63)                  196
# 0xb1, 0x02,                    //  Feature (Data,Var,Abs)             198
# 0x85, 0x84,                    //  Report ID (132)                    200
# 0x09, 0x2c,                    //  Usage (Vendor Usage 0x2c)          202
# 0x95, 0x3f,                    //  Report Count (63)                  204
# 0xb1, 0x02,                    //  Feature (Data,Var,Abs)             206
# 0x85, 0x85,                    //  Report ID (133)                    208
# 0x09, 0x2d,                    //  Usage (Vendor Usage 0x2d)          210
# 0x95, 0x02,                    //  Report Count (2)                   212
# 0xb1, 0x02,                    //  Feature (Data,Var,Abs)             214
# 0x85, 0xa0,                    //  Report ID (160)                    216
# 0x09, 0x2e,                    //  Usage (Vendor Usage 0x2e)          218
# 0x95, 0x01,                    //  Report Count (1)                   220
# 0xb1, 0x02,                    //  Feature (Data,Var,Abs)             222
# 0x85, 0xe0,                    //  Report ID (224)                    224
# 0x09, 0x2f,                    //  Usage (Vendor Usage 0x2f)          226
# 0x95, 0x3f,                    //  Report Count (63)                  228
# 0xb1, 0x02,                    //  Feature (Data,Var,Abs)             230
# 0x85, 0xf0,                    //  Report ID (240)                    232
# 0x09, 0x30,                    //  Usage (Vendor Usage 0x30)          234
# 0x95, 0x3f,                    //  Report Count (63)                  236
# 0xb1, 0x02,                    //  Feature (Data,Var,Abs)             238
# 0x85, 0xf1,                    //  Report ID (241)                    240
# 0x09, 0x31,                    //  Usage (Vendor Usage 0x31)          242
# 0x95, 0x3f,                    //  Report Count (63)                  244
# 0xb1, 0x02,                    //  Feature (Data,Var,Abs)             246
# 0x85, 0xf2,                    //  Report ID (242)                    248
# 0x09, 0x32,                    //  Usage (Vendor Usage 0x32)          250
# 0x95, 0x0f,                    //  Report Count (15)                  252
# 0xb1, 0x02,                    //  Feature (Data,Var,Abs)             254
# 0x85, 0xf4,                    //  Report ID (244)                    256
# 0x09, 0x35,                    //  Usage (Vendor Usage 0x35)          258
# 0x95, 0x3f,                    //  Report Count (63)                  260
# 0xb1, 0x02,                    //  Feature (Data,Var,Abs)             262
# 0x85, 0xf5,                    //  Report ID (245)                    264
# 0x09, 0x36,                    //  Usage (Vendor Usage 0x36)          266
# 0x95, 0x03,                    //  Report Count (3)                   268
# 0xb1, 0x02,                    //  Feature (Data,Var,Abs)             270
# 0xc0,                          // End Collection                      272
# 
R: 273 05 01 09 05 a1 01 85 01 09 30 09 31 09 32 09 35 09 33 09 34 15 00 26 ff 00 75 08 95 06 81 02 06 00 ff 09 20 95 01 81 02 05 01 09 39 15 00 25 07 35 00 46 3b 01 65 14 75 04 95 01 81 42 65 00 05 09 19 01 29 0f 15 00 25 01 75 01 95 0f 81 02 06 00 ff 09 21 95 0d 81 02 06 00 ff 09 22 15 00 26 ff 00 75 08 95 34 81 02 85 02 09 23 95 2f 91 02 85 05 09 33 95 28 b1 02 85 08 09 34 95 2f b1 02 85 09 09 24 95 13 b1 02 85 0a 09 25 95 1a b1 02 85 20 09 26 95 3f b1 02 85 21 09 27 95 04 b1 02 85 22 09 40 95 3f b1 02 85 80 09 28 95 3f b1 02 85 81 09 29 95 3f b1 02 85 82 09 2a 95 09 b1 02 85 83 09 2b 95 3f b1 02 85 84 09 2c 95 3f b1 02 85 85 09 2d 95 02 b1 02 85 a0 09 2e 95 01 b1 02 85 e0 09 2f 95 3f b1 02 85 f0 09 30 95 3f b1 02 85 f1 09 31 95 3f b1 02 85 f2 09 32 95 0f b1 02 85 f4 09 35 95 3f b1 02 85 f5 09 36 95 03 b1 02 c0
N: Sony Interactive Entertainment DualSense Wireless Controller
I: 3 054c 0ce6
# ReportID: 1 / X:  134 | Y:  127 | Z:  129 | Rz:  127 | Rx:    0 | Ry:    0 | 0xff000020:   75 | Hat switch:   8 | Button: 0  0  0  0  0  0  0  0  0  0  0  0  0  0  0 | 0xff000021: 0 , 0 , 0 , 0 , 0 , 0 , 0 , 0 , 0 , 0 , 0 , 0 , 0 | 0xff000022:   40 ,   58 ,   42 ,  235 ,  246 ,  255 ,  238 ,  255 ,   10 ,    0 ,   61 ,    0 ,  112 ,   31 ,   51 ,    5 ,  170 ,  109 ,    3 ,  207 ,    8 ,  128 ,    0 ,    0 ,    0 ,  128 ,    0 ,    0 ,    0 ,    0 ,    9 ,    9 ,    0 ,    0 ,    0 ,    0 ,    0 ,  251 ,  134 ,    3 ,  207 ,   40 ,    8 ,    0 ,  197 ,  186 ,  105 ,  222 ,  111 ,   60 ,   84 ,   35 
E: 000000.000000 64 01 86 7f 81 7f 00 00 4b 08 00 00 00 28 3a 2a eb f6 ff ee ff 0a 00 3d 00 70 1f 33 05 aa 6d 03 cf 08 80 00 00 00 80 00 00 00 00 09 09 00 00 00 00 00 fb 86 03 cf 28 08 00 c5 ba 69 de 6f 3c 54 23
# ReportID: 1 / X:  134 | Y:  128 | Z:  129 | Rz:  127 | Rx:    0 | Ry:    0 | 0xff000020:   76 | Hat switch:   8 | Button: 0  0  0  0  0  0  0  0  0  0  0  0  0  0  0 | 0xff000021: 0 , 0 , 0 , 0 , 0 , 0 , 0 , 0 , 0 , 0 , 0 , 0 , 0 | 0xff000022:   41 ,   58 ,   42 ,  235 ,  247 ,  255 ,  238 ,  255 ,    9 ,    0 ,   49 ,    0 ,   67 ,   31 ,   36 ,    5 ,  157 ,  156 ,    3 ,  207 ,    8 ,  128 ,    0 ,    0 ,    0 ,  128 ,    0 ,    0 ,    0 ,    0 ,    9 ,    9 ,    0 ,    0 ,    0 ,    0 ,    0 ,  242 ,  181 ,    3 ,  207 ,   40 ,    8 ,    0 ,  218 ,  153 ,    7 ,  228 ,  232 ,   60 ,   27 ,  142 
E: 000000.003177 64 01 86 80 81 7f 00 00 4c 08 00 00 00 29 3a 2a eb f7 ff ee ff 09 00 31 00 43 1f 24 05 9d 9c 03 cf 08 80 00 00 00 80 00 00 00 00 09 09 00 00 00 00 00 f2 b5 03 cf 28 08 00 da 99 07 e4 e8 3c 1b 8e
# ReportID: 1 / X:  134 | Y:  127 | Z:  130 | Rz:  127 | Rx:    0 | Ry:    0 | 0xff000020:   77 | Hat switch:   8 | Button: 0  0  0  0  0  0  0  0  0  0  0  0  0  0  0 | 0xff000021: 0 , 0 , 0 , 0 , 0 , 0 , 0 , 0 , 0 , 0 , 0 , 0 , 0 | 0xff000022:   42 ,   58 ,   42 ,  235 ,  246 ,  255 ,  239 ,  255 ,   10 ,    0 ,   58 ,    0 ,   42 ,   31 ,   35 ,    5 ,  144 ,  203 ,    3 ,  207 ,    8 ,  128 ,    0 ,    0 ,    0 ,  128 ,    0 ,    0 ,    0 ,    0 ,    9 ,    9 ,    0 ,    0 ,    0 ,    0 ,    0 ,  176 ,  228 ,    3 ,  207 ,   40 ,    8 ,    0 ,  148 ,  232 ,  139 ,  193 ,  102 ,   96 ,  181 ,  221 
E: 000000.006148 64 01 86 7f 82 7f 00 00 4d 08 00 00 00 2a 3a 2a eb f6 ff ef ff 0a 00 3a 00 2a 1f 23 05 90 cb 03 cf 08 80 00 00 00 80 00 00 00 00 09 09 00 00 00 00 00 b0 e4 03 cf 28 08 00 94 e8 8b c1 66 60 b5 dd
# ReportID: 1 / X:  134 | Y:  127 | Z:  130 | Rz:  127 | Rx:    0 | Ry:    0 | 0xff000020:   78 | Hat switch:   8 | Button: 0  0  0  0  0  0  0  0  0  0  0  0  0  0  0 | 0xff000021: 0 , 0 , 0 , 0 , 0 , 0 , 0 , 0 , 0 , 0 , 0 , 0 , 0 | 0xff000022:   43 ,   58 ,   42 ,  235 ,  246 ,  255 ,  238 ,  255 ,    9 ,    0 ,   63 ,    0 ,  119 ,   31 ,   72 ,    5 ,  131 ,  250 ,    3 ,  207 ,    8 ,  128 ,    0 ,    0 ,    0 ,  128 ,    0 ,    0 ,    0 ,    0 ,    9 ,    9 ,    0 ,    0 ,    0 ,    0 ,    0 ,  145 ,   19 ,    4 ,  207 ,   40 ,    8 ,    0 ,  130 ,  183 ,   83 ,   26 ,  209 ,  112 ,  185 ,    6 
E: 000000.009606 64 01 86 7f 82 7f 00 00 4e 08 00 00 00 2b 3a 2a eb f6 ff ee ff 09 00 3f 00 77 1f 48 05 83 fa 03 cf 08 80 00 00 00 80 00 00 00 00 09 09 00 00 00 00 00 91 13 04 cf 28 08 00 82 b7 53 1a d1 70 b9 06
# ReportID: 1 / X:  134 | Y:  127 | Z:  130 | Rz:  127 | Rx:    0 | Ry:    0 | 0xff000020:   79 | Hat switch:   8 | Button: 0  0  0  0  0  0  0  0  0  0  0  0  0  0  0 | 0xff000021: 0 , 0 , 0 , 0 , 0 , 0 , 0 , 0 , 0 , 0 , 0 , 0 , 0 | 0xff000022:   44 ,   58 ,   42 ,  235 ,  247 ,  255 ,  238 ,  255 ,   10 ,    0 ,   54 ,    0 ,  105 ,   31 ,   71 ,    5 ,  118 ,   41 ,    4 ,  207 ,    8 ,  128 ,    0 ,    0 ,    0 ,  128 ,    0 ,    0 ,    0 ,    0 ,    9 ,    9 ,    0 ,    0 ,    0 ,    0 ,    0 ,  105 ,   66 ,    4 ,  207 ,   40 ,    8 ,    0 ,  186 ,  132 ,    6 ,  121 ,   41 ,    2 ,  224 ,   12 
E: 000000.013797 64 01 86 7f 82 7f 00 00 4f 08 00 00 00 2c 3a 2a eb f7 ff ee ff 0a 00 36 00 69 1f 47 05 76 29 04 cf 08 80 00 00 00 80 00 00 00 00 09 09 00 00 00 00 00 69 42 04 cf 28 08 00 ba 84 06 79 29 02 e0 0c
# ReportID: 1 / X:  134 | Y:  127 | Z:  129 | Rz:  127 | Rx:    0 | Ry:    0 | 0xff000020:   80 | Hat switch:   8 | Button: 0  0  0  0  0  0  0  0  0  0  0  0  0  0  0 | 0xff000021: 0 , 0 , 0 , 0 , 0 , 0 , 0 , 0 , 0 , 0 , 0 , 0 , 0 | 0xff000022:   45 ,   58 ,   42 ,  235 ,  246 ,  255 ,  239 ,  255 ,   11 ,    0 ,   67 ,    0 ,   81 ,   31 ,   56 ,    5 ,  105 ,   88 ,    4 ,  207 ,    8 ,  128 ,    0 ,    0 ,    0 ,  128 ,    0 ,    0 ,    0 ,    0 ,    9 ,    9 ,    0 ,    0 ,    0 ,    0 ,    0 ,   73 ,  113 ,    4 ,  207 ,   40 ,    8 ,    0 ,  243 ,   78 ,  130 ,  200 ,  202 ,  151 ,  161 ,  155 
E: 000000.017634 64 01 86 7f 81 7f 00 00 50 08 00 00 00 2d 3a 2a eb f6 ff ef ff 0b 00 43 00 51 1f 38 05 69 58 04 cf 08 80 00 00 00 80 00 00 00 00 09 09 00 00 00 00 00 49 71 04 cf 28 08 00 f3 4e 82 c8 ca 97 a1 9b
# ReportID: 1 / X:  134 | Y:  127 | Z:  129 | Rz:  127 | Rx:    0 | Ry:    0 | 0xff000020:   81 | Hat switch:   8 | Button: 0  0  0  0  0  0  0  0  0  0  0  0  0  0  0 | 0xff000021: 0 , 0 , 0 , 0 , 0 , 0 , 0 , 0 , 0 , 0 , 0 , 0 , 0 | 0xff000022:   46 ,   58 ,   42 ,  235 ,  245 ,  255 ,  238 ,  255 ,   10 ,    0 ,   63 ,    0 ,   99 ,   31 ,   60 ,    5 ,   92 ,  135 ,    4 ,  207 ,    8 ,  128 ,    0 ,    0 ,    0 ,  128 ,    0 ,    0 ,    0 ,    0 ,    9 ,    9 ,    0 ,    0 ,    0 ,    0 ,    0 ,   41 ,  160 ,    4 ,  207 ,   40 ,    8 ,    0 ,  213 ,  151 ,   43 ,  203 ,  190 ,  101 ,   74 ,   61 
E: 000000.021806 64 01 86 7f 81 7f 00 00 51 08 00 00 00 2e 3a 2a eb f5 ff ee ff 0a 00 3f 00 63 1f 3c 05 5c 87 04 cf 08 80 00 00 00 80 00 00 00 00 09 09 00 00 00 00 00 29 a0 04 cf 28 08 00 d5 97 2b cb be 65 4a 3d
# ReportID: 1 / X:  134 | Y:  128 | Z:  130 | Rz:  127 | Rx:    0 | Ry:    0 | 0xff000020:   82 | Hat switch:   8 | Button: 0  0  0  0  0  0  0  0  0  0  0  0  0  0  0 | 0xff000021: 0 , 0 , 0 , 0 , 0 , 0 , 0 , 0 , 0 , 0 , 0 , 0 , 0 | 0xff000022:   47 ,   58 ,   42 ,  235 ,  245 ,  255 ,  238 ,  255 ,   10 ,    0 ,   65 ,    0 ,   92 ,   31 ,   63 ,    5 ,   79 ,  182 ,    4 ,  207 ,    8 ,  128 ,    0 ,    0 ,    0 ,  128 ,    0 ,    0 ,    0 ,    0 ,    9 ,    9 ,    0 ,    0 ,    0 ,    0 ,    0 ,    9 ,  207 ,    4 ,  207 ,   40 ,    8 ,    0 ,   58 ,  226 ,  136 ,  161 ,  174 ,  128 ,  125 ,  132 
E: 000000.025880 64 01 86 80 82 7f 00 00 52 08 00 00 00 2f 3a 2a eb f5 ff ee ff 0a 00 41 00 5c 1f 3f 05 4f b6 04 cf 08 80 00 00 00 80 00 00 00 00 09 09 00 00 00 00 00 09 cf 04 cf 28 08 00 3a e2 88 a1 ae 80 7d 84
# ReportID: 1 / X:  134 | Y:  127 | Z:  130 | Rz:  127 | Rx:    0 | Ry:    0 | 0xff000020:   83 | Hat switch:   8 | Button: 0  0  0  0  0  0  0  0  0  0  0  0  0  0  0 | 0xff000021: 0 , 0 , 0 , 0 , 0 , 0 , 0 , 0 , 0 , 0 , 0 , 0 , 0 | 0xff000022:   48 ,   58 ,   42 ,  235 ,  247 ,  255 ,  239 ,  255 ,   10 ,    0 ,   60 ,    0 ,   52 ,   31 ,   58 ,    5 ,   66 ,  229 ,    4 ,  207 ,    8 ,  128 ,    0 ,    0 ,    0 ,  128 ,    0 ,    0 ,    0 ,    0 ,    9 ,    9 ,    0 ,    0 ,    0 ,    0 ,    0 ,  233 ,  253 ,    4 ,  207 ,   40 ,    8 ,    0 ,   67 ,  228 ,  164 ,   98 ,   31 ,   62 ,  231 ,   49 
E: 000000.029961 64 01 86 7f 82 7f 00 00 53 08 00 00 00 30 3a 2a eb f7 ff ef ff 0a 00 3c 00 34 1f 3a 05 42 e5 04 cf 08 80 00 00 00 80 00 00 00 00 09 09 00 00 00 00 00 e9 fd 04 cf 28 08 00 43 e4 a4 62 1f 3e e7 31
# ReportID: 1 / X:  134 | Y:  127 | Z:  129 | Rz:  127 | Rx:    0 | Ry:    0 | 0xff000020:   84 | Hat switch:   8 | Button: 0  0  0  0  0  0  0  0  0  0  0  0  0  0  0 | 0xff000021: 0 , 0 , 0 , 0 , 0 , 0 , 0 , 0 , 0 , 0 , 0 , 0 , 0 | 0xff000022:   49 ,   58 ,   42 ,  235 ,  246 ,  255 ,  238 ,  255 ,    9 ,    0 ,   57 ,    0 ,   64 ,   31 ,   58 ,    5 ,   53 ,   20 ,    5 ,  207 ,    8 ,  128 ,    0 ,    0 ,    0 ,  128 ,    0 ,    0 ,    0 ,    0 ,    9 ,    9 ,    0 ,    0 ,    0 ,    0 ,    0 ,  201 ,   44 ,    5 ,  207 ,   40 ,    8 ,    0 ,  133 ,   75 ,  161 ,   75 ,  158 ,  206 ,   81 ,   27 
E: 000000.033961 64 01 86 7f 81 7f 00 00 54 08 00 00 00 31 3a 2a eb f6 ff ee ff 09 00 39 00 40 1f 3a 05 35 14 05 cf 08 80 00 00 00 80 00 00 00 00 09 09 00 00 00 00 00 c9 2c 05 cf 28 08 00 85 4b a1 4b 9e ce 51 1b
# ReportID: 1 / X:  134 | Y:  127 | Z:  130 | Rz:  127 | Rx:    0 | Ry:    0 | 0xff000020:   85 | Hat switch:   8 | Button: 0  0  0  0  0  0  0  0  0  0  0  0  0  0  0 | 0xff000021: 0 , 0 , 0 , 0 , 0 , 0 , 0 , 0 , 0 , 0 , 0 , 0 , 0 | 0xff000022:   50 ,   58 ,   42 ,  235 ,  247 ,  255 ,  239 ,  255 ,   11 ,    0 ,   56 ,    0 ,  109 ,   31 ,   59 ,    5 ,   40 ,   67 ,    5 ,  207 ,    8 ,  128 ,    0 ,    0 ,    0 ,  128 ,    0 ,    0 ,    0 ,    0 ,    9 ,    9 ,    0 ,    0 ,    0 ,    0 ,    0 ,  169 ,   91 ,    5 ,  207 ,   40 ,    8 ,    0 ,    9 ,  146 ,   43 ,  180 ,  201 ,   17 ,   28 ,   88 
E: 000000.037815 64 01 86 7f 82 7f 00 00 55 08 00 00 00 32 3a 2a eb f7 ff ef ff 0b 00 38 00 6d 1f 3b 05 28 43 05 cf 08 80 00 00 00 80 00 00 00 00 09 09 00 00 00 00 00 a9 5b 05 cf 28 08 00 09 92 2b b4 c9 11 1c 58
# ReportID: 1 / X:  134 | Y:  127 | Z:  129 | Rz:  127 | Rx:    0 | Ry:    0 | 0xff000020:   86 | Hat switch:   8 | Button: 0  0  0  0  0  0  0  0  0  0  0  0  0  0  0 | 0xff000021: 0 , 0 , 0 , 0 , 0 , 0 , 0 , 0 , 0 , 0 , 0 , 0 , 0 | 0xff000022:   51 ,   58 ,   42 ,  235 ,  246 ,  255 ,  240 ,  255 ,   11 ,    0 ,   60 ,    0 ,  100 ,   31 ,   53 ,    5 ,   27 ,  114 ,    5 ,  207 ,    8 ,  128 ,    0 ,    0 ,    0 ,  128 ,    0 ,    0 ,    0 ,    0 ,    9 ,    9 ,    0 ,    0 ,    0 ,    0 ,    0 ,  137 ,  138 ,    5 ,  207 ,   40 ,    8 ,    0 ,  255 ,   94 ,   66 ,  142 ,  155 ,  193 ,  232 ,  184 
E: 000000.042330 64 01 86 7f 81 7f 00 00 56 08 00 00 00 33 3a 2a eb f6 ff f0 ff 0b 00 3c 00 64 1f 35 05 1b 72 05 cf 08 80 00 00 00 80 00 00 00 00 09 09 00 00 00 00 00 89 8a 05 cf 28 08 00 ff 5e 42 8e 9b c1 e8 b8
# ReportID: 1 / X:  134 | Y:  127 | Z:  130 | Rz:  127 | Rx:    0 | Ry:    0 | 0xff000020:   87 | Hat switch:   8 | Button: 0  0  0  0  0  0  0  0  0  0  0  0  0  0  0 | 0xff000021: 0 , 0 , 0 , 0 , 0 , 0 , 0 , 0 , 0 , 0 , 0 , 0 , 0 | 0xff000022:   52 ,   58 ,   42 ,  235 ,  247 ,  255 ,  239 ,  255 ,   11 ,    0 ,   56 ,    0 ,   93 ,   31 ,   60 ,    5 ,   14 ,  161 ,    5 ,  207 ,    8 ,  128 ,    0 ,    0 ,    0 ,  128 ,    0 ,    0 ,    0 ,    0 ,    9 ,    9 ,    0 ,    0 ,    0 ,    0 ,    0 ,  105 ,  185 ,    5 ,  207 ,   40 ,    8 ,    0 ,   74 ,   44 ,   34 ,  137 ,   35 ,  175 ,  208 ,  252 
E: 000000.045996 64 01 86 7f 82 7f 00 00 57 08 00 00 00 34 3a 2a eb f7 ff ef ff 0b 00 38 00 5d 1f 3c 05 0e a1 05 cf 08 80 00 00 00 80 00 00 00 00 09 09 00 00 00 00 00 69 b9 05 cf 28 08 00 4a 2c 22 89 23 af d0 fc
# ReportID: 1 / X:  134 | Y:  127 | Z:  129 | Rz:  127 | Rx:    0 | Ry:    0 | 0xff000020:   88 | Hat switch:   8 | Button: 0  0  0  0  0  0  0  0  0  0  0  0  0  0  0 | 0xff000021: 0 , 0 , 0 , 0 , 0 , 0 , 0 , 0 , 0 , 0 , 0 , 0 , 0 | 0xff000022:   53 ,   58 ,   42 ,  235 ,  246 ,  255 ,  239 ,  255 ,   10 ,    0 ,   45 ,    0 ,   84 ,   31 ,   55 ,    5 ,    1 ,  208 ,    5 ,  207 ,    8 ,  128 ,    0 ,    0 ,    0 ,  128 ,    0 ,    0 ,    0 ,    0 ,    9 ,    9 ,    0 ,    0 ,    0 ,    0 ,    0 ,   73 ,  232 ,    5 ,  207 ,   40 ,    8 ,    0 ,  223 ,   21 ,  172 ,   19 ,   34 ,  205 ,    1 ,  171 
E: 000000.049916 64 01 86 7f 81 7f 00 00 58 08 00 00 00 35 3a 2a eb f6 ff ef ff 0a 00 2d 00 54 1f 37 05 01 d0 05 cf 08 80 00 00 00 80 00 00 00 00 09 09 00 00 00 00 00 49 e8 05 cf 28 08 00 df 15 ac 13 22 cd 01 ab
# ReportID: 1 / X:  134 | Y:  127 | Z:  129 | Rz:  127 | Rx:    0 | Ry:    0 | 0xff000020:   89 | Hat switch:   8 | Button: 0  0  0  0  0  0  0  0  0  0  0  0  0  0  0 | 0xff000021: 0 , 0 , 0 , 0 , 0 , 0 , 0 , 0 , 0 , 0 , 0 , 0 , 0 | 0xff000022:   54 ,   58 ,   42 ,  235 ,  246 ,  255 ,  238 ,  255 ,   11 ,    0 ,   45 ,    0 ,   75 ,   31 ,   57 ,    5 ,  244 ,  254 ,    5 ,  207 ,    8 ,  128 ,    0 ,    0 ,    0 ,  128 ,    0 ,    0 ,    0 ,    0 ,    9 ,    9 ,    0 ,    0 ,    0 ,    0 ,    0 ,   41 ,   23 ,    6 ,  207 ,   40 ,    8 ,    0 ,  136 ,  253 ,  168 ,   94 ,   80 ,   57 ,  190 ,    9 
E: 000000.053901 64 01 86 7f 81 7f 00 00 59 08 00 00 00 36 3a 2a eb f6 ff ee ff 0b 00 2d 00 4b 1f 39 05 f4 fe 05 cf 08 80 00 00 00 80 00 00 00 00 09 09 00 00 00 00 00 29 17 06 cf 28 08 00 88 fd a8 5e 50 39 be 09
# ReportID: 1 / X:  134 | Y:  127 | Z:  130 | Rz:  127 | Rx:    0 | Ry:    0 | 0xff000020:   90 | Hat switch:   8 | Button: 0  0  0  0  0  0  0  0  0  0  0  0  0  0  0 | 0xff000021: 0 , 0 , 0 , 0 , 0 , 0 , 0 , 0 , 0 , 0 , 0 , 0 , 0 | 0xff000022:   55 ,   58 ,   42 ,  235 ,  246 ,  255 ,  238 ,  255 ,   11 ,    0 ,   44 ,    0 ,   53 ,   31 ,   44 ,    5 ,  231 ,   45 ,    6 ,  207 ,    8 ,  128 ,    0 ,    0 ,    0 ,  128 ,    0 ,    0 ,    0 ,    0 ,    9 ,    9 ,    0 ,    0 ,    0 ,    0 ,    0 ,    9 ,   70 ,    6 ,  207 ,   40 ,    8 ,    0 ,   20 ,  119 ,   54 ,  124 ,  234 ,   29 ,  232 ,  130 
E: 000000.058340 64 01 86 7f 82 7f 00 00 5a 08 00 00 00 37 3a 2a eb f6 ff ee ff 0b 00 2c 00 35 1f 2c 05 e7 2d 06 cf 08 80 00 00 00 80 00 00 00 00 09 09 00 00 00 00 00 09 46 06 cf 28 08 00 14 77 36 7c ea 1d e8 82
# ReportID: 1 / X:  134 | Y:  127 | Z:  129 | Rz:  127 | Rx:    0 | Ry:    0 | 0xff000020:   91 | Hat switch:   8 | Button: 0  0  0  0  0  0  0  0  0  0  0  0  0  0  0 | 0xff000021: 0 , 0 , 0 , 0 , 0 , 0 , 0 , 0 , 0 , 0 , 0 , 0 , 0 | 0xff000022:   56 ,   58 ,   42 ,  235 ,  247 ,  255 ,  239 ,  255 ,   11 ,    0 ,   50 ,    0 ,   94 ,   31 ,   46 ,    5 ,  219 ,   92 ,    6 ,  207 ,    8 ,  128 ,    0 ,    0 ,    0 ,  128 ,    0 ,    0 ,    0 ,    0 ,    9 ,    9 ,    0 ,    0 ,    0 ,    0 ,    0 ,  233 ,  116 ,    6 ,  207 ,   40 ,    8 ,    0 ,  187 ,   65 ,   27 ,  157 ,  134 ,   88 ,  189 ,  115 
E: 000000.061749 64 01 86 7f 81 7f 00 00 5b 08 00 00 00 38 3a 2a eb f7 ff ef ff 0b 00 32 00 5e 1f 2e 05 db 5c 06 cf 08 80 00 00 00 80 00 00 00 00 09 09 00 00 00 00 00 e9 74 06 cf 28 08 00 bb 41 1b 9d 86 58 bd 73
# ReportID: 1 / X:  134 | Y:  127 | Z:  130 | Rz:  127 | Rx:    0 | Ry:    0 | 0xff000020:   92 | Hat switch:   8 | Button: 0  0  0  0  0  0  0  0  0  0  0  0  0  0  0 | 0xff000021: 0 , 0 , 0 , 0 , 0 , 0 , 0 , 0 , 0 , 0 , 0 , 0 , 0 | 0xff000022:   57 ,   58 ,   42 ,  235 ,  249 ,  255 ,  238 ,  255 ,   10 ,    0 ,   52 ,    0 ,   95 ,   31 ,   46 ,    5 ,  206 ,  139 ,    6 ,  207 ,    8 ,  128 ,    0 ,    0 ,    0 ,  128 ,    0 ,    0 ,    0 ,    0 ,    9 ,    9 ,    0 ,    0 ,    0 ,    0 ,    0 ,  201 ,  163 ,    6 ,  207 ,   40 ,    8 ,    0 ,  115 ,   97 ,   21 ,  146 ,  118 ,  124 ,  125 ,  192 
E: 000000.065962 64 01 86 7f 82 7f 00 00 5c 08 00 00 00 39 3a 2a eb f9 ff ee ff 0a 00 34 00 5f 1f 2e 05 ce 8b 06 cf 08 80 00 00 00 80 00 00 00 00 09 09 00 00 00 00 00 c9 a3 06 cf 28 08 00 73 61 15 92 76 7c 7d c0
# ReportID: 1 / X:  134 | Y:  127 | Z:  130 | Rz:  127 | Rx:    0 | Ry:    0 | 0xff000020:   93 | Hat switch:   8 | Button: 0  0  0  0  0  0  0  0  0  0  0  0  0  0  0 | 0xff000021: 0 , 0 , 0 , 0 , 0 , 0 , 0 , 0 , 0 , 0 , 0 , 0 , 0 | 0xff000022:   58 ,   58 ,   42 ,  235 ,  247 ,  255 ,  238 ,  255 ,   10 ,    0 ,   46 ,    0 ,   91 ,   31 ,   46 ,    5 ,  193 ,  186 ,    6 ,  207 ,    8 ,  128 ,    0 ,    0 ,    0 ,  128 ,    0 ,    0 ,    0 ,    0 ,    9 ,    9 ,    0 ,    0 ,    0 ,    0 ,    0 ,  169 ,  210 ,    6 ,  207 ,   40 ,    8 ,    0 ,  136 ,  204 ,   23 ,  141 ,  208 ,   22 ,   76 ,  179 
E: 000000.071599 64 01 86 7f 82 7f 00 00 5d 08 00 00 00 3a 3a 2a eb f7 ff ee ff 0a 00 2e 00 5b 1f 2e 05 c1 ba 06 cf 08 80 00 00 00 80 00 00 00 00 09 09 00 00 00 00 00 a9 d2 06 cf 28 08 00 88 cc 17 8d d0 16 4c b3
# ReportID: 1 / X:  134 | Y:  127 | Z:  130 | Rz:  127 | Rx:    0 | Ry:    0 | 0xff000020:   94 | Hat switch:   8 | Button: 0  0  0  0  0  0  0  0  0  0  0  0  0  0  0 | 0xff000021: 0 , 0 , 0 , 0 , 0 , 0 , 0 , 0 , 0 , 0 , 0 , 0 , 0 | 0xff000022:   59 ,   58 ,   42 ,  235 ,  247 ,  255 ,  238 ,  255 ,   10 ,    0 ,   46 ,    0 ,   77 ,   31 ,   44 ,    5 ,  180 ,  233 ,    6 ,  207 ,    8 ,  128 ,    0 ,    0 ,    0 ,  128 ,    0 ,    0 ,    0 ,    0 ,    9 ,    9 ,    0 ,    0 ,    0 ,    0 ,    0 ,  137 ,    1 ,    7 ,  207 ,   40 ,    8 ,    0 ,  245 ,  209 ,  152 ,   54 ,  109 ,  103 ,   57 ,   94 
E: 000000.075127 64 01 86 7f 82 7f 00 00 5e 08 00 00 00 3b 3a 2a eb f7 ff ee ff 0a 00 2e 00 4d 1f 2c 05 b4 e9 06 cf 08 80 00 00 00 80 00 00 00 00 09 09 00 00 00 00 00 89 01 07 cf 28 08 00 f5 d1 98 36 6d 67 39 5e
# ReportID: 1 / X:  134 | Y:  127 | Z:  130 | Rz:  127 | Rx:    0 | Ry:    0 | 0xff000020:   95 | Hat switch:   8 | Button: 0  0  0  0  0  0  0  0  0  0  0  0  0  0  0 | 0xff000021: 0 , 0 , 0 , 0 , 0 , 0 , 0 , 0 , 0 , 0 , 0 , 0 , 0 | 0xff000022:   60 ,   58 ,   42 ,  235 ,  247 ,  255 ,  238 ,  255 ,   10 ,    0 ,   43 ,    0 ,   88 ,   31 ,   40 ,    5 ,  167 ,   24 ,    7 ,  207 ,    8 ,  128 ,    0 ,    0 ,    0 ,  128 ,    0 ,    0 ,    0 ,    0 ,    9 ,    9 ,    0 ,    0 ,    0 ,    0 ,    0 ,  116 ,   48 ,    7 ,  207 ,   40 ,    8 ,    0 ,  189 ,  163 ,   47 ,  119 ,  223 ,  106 ,  214 ,   21 
E: 000000.077758 64 01 86 7f 82 7f 00 00 5f 08 00 00 00 3c 3a 2a eb f7 ff ee ff 0a 00 2b 00 58 1f 28 05 a7 18 07 cf 08 80 00 00 00 80 00 00 00 00 09 09 00 00 00 00 00 74 30 07 cf 28 08 00 bd a3 2f 77 df 6a d6 15
# ReportID: 1 / X:  134 | Y:  127 | Z:  130 | Rz:  127 | Rx:    0 | Ry:    0 | 0xff000020:   96 | Hat switch:   8 | Button: 0  0  0  0  0  0  0  0  0  0  0  0  0  0  0 | 0xff000021: 0 , 0 , 0 , 0 , 0 , 0 , 0 , 0 , 0 , 0 , 0 , 0 , 0 | 0xff000022:   61 ,   58 ,   42 ,  235 ,  247 ,  255 ,  239 ,  255 ,   10 ,    0 ,   56 ,    0 ,   82 ,   31 ,   47 ,    5 ,  155 ,   71 ,    7 ,  207 ,    8 ,  128 ,    0 ,    0 ,    0 ,  128 ,    0 ,    0 ,    0 ,    0 ,    9 ,    9 ,    0 ,    0 ,    0 ,    0 ,    0 ,  106 ,   95 ,    7 ,  207 ,   40 ,    8 ,    0 ,  189 ,  179 ,  101 ,   54 ,    0 ,  124 ,  198 ,   20 
E: 000000.081766 64 01 86 7f 82 7f 00 00 60 08 00 00 00 3d 3a 2a eb f7 ff ef ff 0a 00 38 00 52 1f 2f 05 9b 47 07 cf 08 80 00 00 00 80 00 00 00 00 09 09 00 00 00 00 00 6a 5f 07 cf 28 08 00 bd b3 65 36 00 7c c6 14
# ReportID: 1 / X:  134 | Y:  127 | Z:  130 | Rz:  127 | Rx:    0 | Ry:    0 | 0xff000020:   97 | Hat switch:   8 | Button: 0  0  0  0  0  0  0  0  0  0  0  0  0  0  0 | 0xff000021: 0 , 0 , 0 , 0 , 0 , 0 , 0 , 0 , 0 , 0 , 0 , 0 , 0 | 0xff000022:   62 ,   58 ,   42 ,  235 ,  246 ,  255 ,  238 ,  255 ,   10 ,    0 ,   64 ,    0 ,   97 ,   31 ,   40 ,    5 ,  177 ,  112 ,    7 ,  207 ,    8 ,  128 ,    0 ,    0 ,    0 ,  128 ,    0 ,    0 ,    0 ,    0 ,    9 ,    9 ,    0 ,    0 ,    0 ,    0 ,    0 ,   47 ,  142 ,    7 ,  207 ,   40 ,    8 ,    0 ,   78 ,  143 ,  110 ,   39 ,  246 ,  197 ,   80 ,   76 
E: 000000.086100 64 01 86 7f 82 7f 00 00 61 08 00 00 00 3e 3a 2a eb f6 ff ee ff 0a 00 40 00 61 1f 28 05 b1 70 07 cf 08 80 00 00 00 80 00 00 00 00 09 09 00 00 00 00 00 2f 8e 07 cf 28 08 00 4e 8f 6e 27 f6 c5 50 4c
# ReportID: 1 / X:  134 | Y:  127 | Z:  130 | Rz:  127 | Rx:    0 | Ry:    0 | 0xff000020:   98 | Hat switch:   8 | Button: 0  0  0  0  0  0  0  0  0  0  0  0  0  0  0 | 0xff000021: 0 , 0 , 0 , 0 , 0 , 0 , 0 , 0 , 0 , 0 , 0 , 0 , 0 | 0xff000022:   63 ,   58 ,   42 ,  235 ,  246 ,  255 ,  239 ,  255 ,   11 ,    0 ,   59 ,    0 ,   92 ,   31 ,   50 ,    5 ,  196 ,  153 ,    7 ,  207 ,    8 ,  128 ,    0 ,    0 ,    0 ,  128 ,    0 ,    0 ,    0 ,    0 ,    9 ,    9 ,    0 ,    0 ,    0 ,    0 ,    0 ,   17 ,  189 ,    7 ,  207 ,   40 ,    8 ,    0 ,   72 ,  187 ,    5 ,    3 ,  156 ,  160 ,   64 ,  251 
E: 000000.089699 64 01 86 7f 82 7f 00 00 62 08 00 00 00 3f 3a 2a eb f6 ff ef ff 0b 00 3b 00 5c 1f 32 05 c4 99 07 cf 08 80 00 00 00 80 00 00 00 00 09 09 00 00 00 00 00 11 bd 07 cf 28 08 00 48 bb 05 03 9c a0 40 fb
# ReportID: 1 / X:  134 | Y:  127 | Z:  130 | Rz:  127 | Rx:    0 | Ry:    0 | 0xff000020:   99 | Hat switch:   8 | Button: 0  0  0  0  0  0  0  0  0  0  0  0  0  0  0 | 0xff000021: 0 , 0 , 0 , 0 , 0 , 0 , 0 , 0 , 0 , 0 , 0 , 0 , 0 | 0xff000022:   64 ,   58 ,   42 ,  235 ,  247 ,  255 ,  238 ,  255 ,   10 ,    0 ,   64 ,    0 ,   93 ,   31 ,   50 ,    5 ,  182 ,  200 ,    7 ,  207 ,    8 ,  128 ,    0 ,    0 ,    0 ,  128 ,    0 ,    0 ,    0 ,    0 ,    9 ,    9 ,    0 ,    0 ,    0 ,    0 ,    0 ,  233 ,  235 ,    7 ,  207 ,   40 ,    8 ,    0 ,   91 ,  137 ,  170 ,  133 ,   78 ,  174 ,  160 ,  223 
E: 000000.095404 64 01 86 7f 82 7f 00 00 63 08 00 00 00 40 3a 2a eb f7 ff ee ff 0a 00 40 00 5d 1f 32 05 b6 c8 07 cf 08 80 00 00 00 80 00 00 00 00 09 09 00 00 00 00 00 e9 eb 07 cf 28 08 00 5b 89 aa 85 4e ae a0 df
# ReportID: 1 / X:  134 | Y:  127 | Z:  130 | Rz:  127 | Rx:    0 | Ry:    0 | 0xff000020:  100 | Hat switch:   8 | Button: 0  0  0  0  0  0  0  0  0  0  0  0  0  0  0 | 0xff000021: 0 , 0 , 0 , 0 , 0 , 0 , 0 , 0 , 0 , 0 , 0 , 0 , 0 | 0xff000022:   65 ,   58 ,   42 ,  235 ,  247 ,  255 ,  238 ,  255 ,   10 ,    0 ,   57 ,    0 ,   96 ,   31 ,   47 ,    5 ,  169 ,  247 ,    7 ,  207 ,    8 ,  128 ,    0 ,    0 ,    0 ,  128 ,    0 ,    0 ,    0 ,    0 ,    9 ,    9 ,    0 ,    0 ,    0 ,    0 ,    0 ,  201 ,   26 ,    8 ,  207 ,   40 ,    8 ,    0 ,  214 ,   37 ,  228 ,  121 ,  164 ,  239 ,  198 ,   67 
E: 000000.099171 64 01 86 7f 82 7f 00 00 64 08 00 00 00 41 3a 2a eb f7 ff ee ff 0a 00 39 00 60 1f 2f 05 a9 f7 07 cf 08 80 00 00 00 80 00 00 00 00 09 09 00 00 00 00 00 c9 1a 08 cf 28 08 00 d6 25 e4 79 a4 ef c6 43
# ReportID: 1 / X:  134 | Y:  127 | Z:  130 | Rz:  127 | Rx:    0 | Ry:    0 | 0xff000020:  101 | Hat switch:   8 | Button: 0  0  0  0  0  0  0  0  0  0  0  0  0  0  0 | 0xff000021: 0 , 0 , 0 , 0 , 0 , 0 , 0 , 0 , 0 , 0 , 0 , 0 , 0 | 0xff000022:   66 ,   58 ,   42 ,  235 ,  246 ,  255 ,  237 ,  255 ,   11 ,    0 ,   63 ,    0 ,   87 ,   31 ,   52 ,    5 ,  157 ,   38 ,    8 ,  207 ,    8 ,  128 ,    0 ,    0 ,    0 ,  128 ,    0 ,    0 ,    0 ,    0 ,    9 ,    9 ,    0 ,    0 ,    0 ,    0 ,    0 ,  169 ,   73 ,    8 ,  207 ,   40 ,    8 ,    0 ,   59 ,  183 ,  135 ,  213 ,  163 ,   56 ,  165 ,    5 
E: 000000.102134 64 01 86 7f 82 7f 00 00 65 08 00 00 00 42 3a 2a eb f6 ff ed ff 0b 00 3f 00 57 1f 34 05 9d 26 08 cf 08 80 00 00 00 80 00 00 00 00 09 09 00 00 00 00 00 a9 49 08 cf 28 08 00 3b b7 87 d5 a3 38 a5 05
# ReportID: 1 / X:  134 | Y:  128 | Z:  130 | Rz:  127 | Rx:    0 | Ry:    0 | 0xff000020:  102 | Hat switch:   8 | Button: 0  0  0  0  0  0  0  0  0  0  0  0  0  0  0 | 0xff000021: 0 , 0 , 0 , 0 , 0 , 0 , 0 , 0 , 0 , 0 , 0 , 0 , 0 | 0xff000022:   67 ,   58 ,   42 ,  235 ,  246 ,  255 ,  238 ,  255 ,   10 ,    0 ,   59 ,    0 ,   79 ,   31 ,   55 ,    5 ,  146 ,   85 ,    8 ,  207 ,    8 ,  128 ,    0 ,    0 ,    0 ,  128 ,    0 ,    0 ,    0 ,    0 ,    9 ,    9 ,    0 ,    0 ,    0 ,    0 ,    0 ,  137 ,  120 ,    8 ,  207 ,   40 ,    8 ,    0 ,  245 ,   89 ,   91 ,   89 ,   56 ,  225 ,  194 ,  241 
E: 000000.105983 64 01 86 80 82 7f 00 00 66 08 00 00 00 43 3a 2a eb f6 ff ee ff 0a 00 3b 00 4f 1f 37 05 92 55 08 cf 08 80 00 00 00 80 00 00 00 00 09 09 00 00 00 00 00 89 78 08 cf 28 08 00 f5 59 5b 59 38 e1 c2 f1
# ReportID: 1 / X:  134 | Y:  127 | Z:  130 | Rz:  127 | Rx:    0 | Ry:    0 | 0xff000020:  103 | Hat switch:   8 | Button: 0  0  0  0  0  0  0  0  0  0  0  0  0  0  0 | 0xff000021: 0 , 0 , 0 , 0 , 0 , 0 , 0 , 0 , 0 , 0 , 0 , 0 , 0 | 0xff000022:   68 ,   58 ,   42 ,  235 ,  246 ,  255 ,  239 ,  255 ,   10 ,    0 ,   59 ,    0 ,   86 ,   31 ,   48 ,    5 ,  133 ,  132 ,    8 ,  207 ,    8 ,  128 ,    0 ,    0 ,    0 ,  128 ,    0 ,    0 ,    0 ,    0 ,    9 ,    9 ,    0 ,    0 ,    0 ,    0 ,    0 ,  105 ,  167 ,    8 ,  207 ,   40 ,    8 ,    0 ,  250 ,  141 ,   17 ,  206 ,   35 ,  137 ,  187 ,   80 
E: 000000.111252 64 01 86 7f 82 7f 00 00 67 08 00 00 00 44 3a 2a eb f6 ff ef ff 0a 00 3b 00 56 1f 30 05 85 84 08 cf 08 80 00 00 00 80 00 00 00 00 09 09 00 00 00 00 00 69 a7 08 cf 28 08 00 fa 8d 11 ce 23 89 bb 50
# ReportID: 1 / X:  134 | Y:  128 | Z:  130 | Rz:  127 | Rx:    0 | Ry:    0 | 0xff000020:  104 | Hat switch:   8 | Button: 0  0  0  0  0  0  0  0  0  0  0  0  0  0  0 | 0xff000021: 0 , 0 , 0 , 0 , 0 , 0 , 0 , 0 , 0 , 0 , 0 , 0 , 0 | 0xff000022:   69 ,   58 ,   42 ,  235 ,  247 ,  255 ,  238 ,  255 ,   11 ,    0 ,   67 ,    0 ,   91 ,   31 ,   42 ,    5 ,  118 ,  179 ,    8 ,  207 ,    8 ,  128 ,    0 ,    0 ,    0 ,  128 ,    0 ,    0 ,    0 ,    0 ,    9 ,    9 ,    0 ,    0 ,    0 ,    0 ,    0 ,   73 ,  214 ,    8 ,  207 ,   40 ,    8 ,    0 ,  137 ,  226 ,  165 ,  170 ,  167 ,  136 ,  115 ,  132 
E: 000000.114291 64 01 86 80 82 7f 00 00 68 08 00 00 00 45 3a 2a eb f7 ff ee ff 0b 00 43 00 5b 1f 2a 05 76 b3 08 cf 08 80 00 00 00 80 00 00 00 00 09 09 00 00 00 00 00 49 d6 08 cf 28 08 00 89 e2 a5 aa a7 88 73 84
# ReportID: 1 / X:  134 | Y:  127 | Z:  129 | Rz:  127 | Rx:    0 | Ry:    0 | 0xff000020:  105 | Hat switch:   8 | Button: 0  0  0  0  0  0  0  0  0  0  0  0  0  0  0 | 0xff000021: 0 , 0 , 0 , 0 , 0 , 0 , 0 , 0 , 0 , 0 , 0 , 0 , 0 | 0xff000022:   70 ,   58 ,   42 ,  235 ,  245 ,  255 ,  239 ,  255 ,   11 ,    0 ,   69 ,    0 ,   95 ,   31 ,   53 ,    5 ,  109 ,  226 ,    8 ,  207 ,    8 ,  128 ,    0 ,    0 ,    0 ,  128 ,    0 ,    0 ,    0 ,    0 ,    9 ,    9 ,    0 ,    0 ,    0 ,    0 ,    0 ,   41 ,    5 ,    9 ,  207 ,   40 ,    8 ,    0 ,   80 ,   31 ,   28 ,  249 ,  161 ,  225 ,  182 ,    9 
E: 000000.119094 64 01 86 7f 81 7f 00 00 69 08 00 00 00 46 3a 2a eb f5 ff ef ff 0b 00 45 00 5f 1f 35 05 6d e2 08 cf 08 80 00 00 00 80 00 00 00 00 09 09 00 00 00 00 00 29 05 09 cf 28 08 00 50 1f 1c f9 a1 e1 b6 09
# ReportID: 1 / X:  133 | Y:  128 | Z:  130 | Rz:  127 | Rx:    0 | Ry:    0 | 0xff000020:  106 | Hat switch:   8 | Button: 0  0  0  0  0  0  0  0  0  0  0  0  0  0  0 | 0xff000021: 0 , 0 , 0 , 0 , 0 , 0 , 0 , 0 , 0 , 0 , 0 , 0 , 0 | 0xff000022:   71 ,   58 ,   42 ,  235 ,  247 ,  255 ,  239 ,  255 ,   10 ,    0 ,   55 ,    0 ,  104 ,   31 ,   42 ,    5 ,   96 ,   17 ,    9 ,  207 ,    8 ,  128 ,    0 ,    0 ,    0 ,  128 ,    0 ,    0 ,    0 ,    0 ,    9 ,    9 ,    0 ,    0 ,    0 ,    0 ,    0 ,    9 ,   52 ,    9 ,  207 ,   40 ,    8 ,    0 ,  118 ,  109 ,  197 ,   19 ,    0 ,  217 ,  117 ,   15 
E: 000000.123278 64 01 85 80 82 7f 00 00 6a 08 00 00 00 47 3a 2a eb f7 ff ef ff 0a 00 37 00 68 1f 2a 05 60 11 09 cf 08 80 00 00 00 80 00 00 00 00 09 09 00 00 00 00 00 09 34 09 cf 28 08 00 76 6d c5 13 00 d9 75 0f
# ReportID: 1 / X:  133 | Y:  128 | Z:  130 | Rz:  127 | Rx:    0 | Ry:    0 | 0xff000020:  107 | Hat switch:   8 | Button: 0  0  0  0  0  0  0  0  0  0  0  0  0  0  0 | 0xff000021: 0 , 0 , 0 , 0 , 0 , 0 , 0 , 0 , 0 , 0 , 0 , 0 , 0 | 0xff000022:   72 ,   58 ,   42 ,  235 ,  246 ,  255 ,  239 ,  255 ,    9 ,    0 ,   61 ,    0 ,   88 ,   31 ,   38 ,    5 ,   79 ,   64 ,    9 ,  207 ,    8 ,  128 ,    0 ,    0 ,    0 ,  128 ,    0 ,    0 ,    0 ,    0 ,    9 ,    9 ,    0 ,    0 ,    0 ,    0 ,    0 ,  233 ,   98 ,    9 ,  207 ,   40 ,    8 ,    0 ,  247 ,  151 ,   47 ,   96 ,  213 ,  245 ,   23 ,  136 
E: 000000.127094 64 01 85 80 82 7f 00 00 6b 08 00 00 00 48 3a 2a eb f6 ff ef ff 09 00 3d 00 58 1f 26 05 4f 40 09 cf 08 80 00 00 00 80 00 00 00 00 09 09 00 00 00 00 00 e9 62 09 cf 28 08 00 f7 97 2f 60 d5 f5 17 88
# ReportID: 1 / X:  133 | Y:  127 | Z:  129 | Rz:  127 | Rx:    0 | Ry:    0 | 0xff000020:  108 | Hat switch:   8 | Button: 0  0  0  0  0  0  0  0  0  0  0  0  0  0  0 | 0xff000021: 0 , 0 , 0 , 0 , 0 , 0 , 0 , 0 , 0 , 0 , 0 , 0 , 0 | 0xff000022:   73 ,   58 ,   42 ,  235 ,  246 ,  255 ,  239 ,  255 ,   11 ,    0 ,   51 ,    0 ,   59 ,   31 ,   46 ,    5 ,   66 ,  111 ,    9 ,  207 ,    8 ,  128 ,    0 ,    0 ,    0 ,  128 ,    0 ,    0 ,    0 ,    0 ,    9 ,    9 ,    0 ,    0 ,    0 ,    0 ,    0 ,  201 ,  145 ,    9 ,  207 ,   40 ,    8 ,    0 ,  149 ,  238 ,   62 ,  192 ,  217 ,  219 ,  246 ,  206 
E: 000000.130986 64 01 85 7f 81 7f 00 00 6c 08 00 00 00 49 3a 2a eb f6 ff ef ff 0b 00 33 00 3b 1f 2e 05 42 6f 09 cf 08 80 00 00 00 80 00 00 00 00 09 09 00 00 00 00 00 c9 91 09 cf 28 08 00 95 ee 3e c0 d9 db f6 ce
# ReportID: 1 / X:  133 | Y:  127 | Z:  130 | Rz:  127 | Rx:    0 | Ry:    0 | 0xff000020:  109 | Hat switch:   8 | Button: 0  0  0  0  0  0  0  0  0  0  0  0  0  0  0 | 0xff000021: 0 , 0 , 0 , 0 , 0 , 0 , 0 , 0 , 0 , 0 , 0 , 0 , 0 | 0xff000022:   74 ,   58 ,   42 ,  235 ,  246 ,  255 ,  238 ,  255 ,   10 ,    0 ,   55 ,    0 ,   96 ,   31 ,   58 ,    5 ,   53 ,  158 ,    9 ,  207 ,    8 ,  128 ,    0 ,    0 ,    0 ,  128 ,    0 ,    0 ,    0 ,    0 ,    9 ,    9 ,    0 ,    0 ,    0 ,    0 ,    0 ,  169 ,  192 ,    9 ,  207 ,   40 ,    8 ,    0 ,  242 ,   78 ,   56 ,   66 ,   75 ,  196 ,  114 ,  203 
E: 000000.135485 64 01 85 7f 82 7f 00 00 6d 08 00 00 00 4a 3a 2a eb f6 ff ee ff 0a 00 37 00 60 1f 3a 05 35 9e 09 cf 08 80 00 00 00 80 00 00 00 00 09 09 00 00 00 00 00 a9 c0 09 cf 28 08 00 f2 4e 38 42 4b c4 72 cb
# ReportID: 1 / X:  133 | Y:  127 | Z:  130 | Rz:  127 | Rx:    0 | Ry:    0 | 0xff000020:  110 | Hat switch:   8 | Button: 0  0  0  0  0  0  0  0  0  0  0  0  0  0  0 | 0xff000021: 0 , 0 , 0 , 0 , 0 , 0 , 0 , 0 , 0 , 0 , 0 , 0 , 0 | 0xff000022:   75 ,   58 ,   42 ,  235 ,  246 ,  255 ,  239 ,  255 ,   10 ,    0 ,   61 ,    0 ,  116 ,   31 ,   53 ,    5 ,   40 ,  205 ,    9 ,  207 ,    8 ,  128 ,    0 ,    0 ,    0 ,  128 ,    0 ,    0 ,    0 ,    0 ,    9 ,    9 ,    0 ,    0 ,    0 ,    0 ,    0 ,  137 ,  239 ,    9 ,  207 ,   40 ,    8 ,    0 ,   14 ,  196 ,  229 ,  160 ,  159 ,  115 ,  155 ,  210 
E: 000000.139217 64 01 85 7f 82 7f 00 00 6e 08 00 00 00 4b 3a 2a eb f6 ff ef ff 0a 00 3d 00 74 1f 35 05 28 cd 09 cf 08 80 00 00 00 80 00 00 00 00 09 09 00 00 00 00 00 89 ef 09 cf 28 08 00 0e c4 e5 a0 9f 73 9b d2
# ReportID: 1 / X:  133 | Y:  127 | Z:  129 | Rz:  127 | Rx:    0 | Ry:    0 | 0xff000020:  111 | Hat switch:   8 | Button: 0  0  0  0  0  0  0  0  0  0  0  0  0  0  0 | 0xff000021: 0 , 0 , 0 , 0 , 0 , 0 , 0 , 0 , 0 , 0 , 0 , 0 , 0 | 0xff000022:   76 ,   58 ,   42 ,  235 ,  245 ,  255 ,  238 ,  255 ,   11 ,    0 ,   48 ,    0 ,   76 ,   31 ,   45 ,    5 ,   27 ,  252 ,    9 ,  207 ,    8 ,  128 ,    0 ,    0 ,    0 ,  128 ,    0 ,    0 ,    0 ,    0 ,    9 ,    9 ,    0 ,    0 ,    0 ,    0 ,    0 ,  105 ,   30 ,   10 ,  207 ,   40 ,    8 ,    0 ,  186 ,    9 ,   80 ,  176 ,   49 ,  198 ,   55 ,  184 
E: 000000.142293 64 01 85 7f 81 7f 00 00 6f 08 00 00 00 4c 3a 2a eb f5 ff ee ff 0b 00 30 00 4c 1f 2d 05 1b fc 09 cf 08 80 00 00 00 80 00 00 00 00 09 09 00 00 00 00 00 69 1e 0a cf 28 08 00 ba 09 50 b0 31 c6 37 b8
# ReportID: 1 / X:  133 | Y:  127 | Z:  129 | Rz:  127 | Rx:    0 | Ry:    0 | 0xff000020:  112 | Hat switch:   8 | Button: 0  0  0  0  0  0  0  0  0  0  0  0  0  0  0 | 0xff000021: 0 , 0 , 0 , 0 , 0 , 0 , 0 , 0 , 0 , 0 , 0 , 0 , 0 | 0xff000022:   77 ,   58 ,   42 ,  235 ,  247 ,  255 ,  239 ,  255 ,   10 ,    0 ,   58 ,    0 ,   54 ,   31 ,   53 ,    5 ,   14 ,   43 ,   10 ,  207 ,    8 ,  128 ,    0 ,    0 ,    0 ,  128 ,    0 ,    0 ,    0 ,    0 ,    9 ,    9 ,    0 ,    0 ,    0 ,    0 ,    0 ,   73 ,   77 ,   10 ,  207 ,   40 ,    8 ,    0 ,  253 ,  201 ,   12 ,  230 ,    1 ,  231 ,  215 ,    9 
E: 000000.145897 64 01 85 7f 81 7f 00 00 70 08 00 00 00 4d 3a 2a eb f7 ff ef ff 0a 00 3a 00 36 1f 35 05 0e 2b 0a cf 08 80 00 00 00 80 00 00 00 00 09 09 00 00 00 00 00 49 4d 0a cf 28 08 00 fd c9 0c e6 01 e7 d7 09
# ReportID: 1 / X:  133 | Y:  127 | Z:  130 | Rz:  127 | Rx:    0 | Ry:    0 | 0xff000020:  113 | Hat switch:   8 | Button: 0  0  0  0  0  0  0  0  0  0  0  0  0  0  0 | 0xff000021: 0 , 0 , 0 , 0 , 0 , 0 , 0 , 0 , 0 , 0 , 0 , 0 , 0 | 0xff000022:   78 ,   58 ,   42 ,  235 ,  246 ,  255 ,  239 ,  255 ,   11 ,    0 ,   50 ,    0 ,   62 ,   31 ,   53 ,    5 ,    1 ,   90 ,   10 ,  207 ,    8 ,  128 ,    0 ,    0 ,    0 ,  128 ,    0 ,    0 ,    0 ,    0 ,    9 ,    9 ,    0 ,    0 ,    0 ,    0 ,    0 ,   41 ,  124 ,   10 ,  207 ,   40 ,    8 ,    0 ,  127 ,  167 ,  144 ,  170 ,    9 ,  163 ,  103 ,  206 
E: 000000.149757 64 01 85 7f 82 7f 00 00 71 08 00 00 00 4e 3a 2a eb f6 ff ef ff 0b 00 32 00 3e 1f 35 05 01 5a 0a cf 08 80 00 00 00 80 00 00 00 00 09 09 00 00 00 00 00 29 7c 0a cf 28 08 00 7f a7 90 aa 09 a3 67 ce
# ReportID: 1 / X:  133 | Y:  127 | Z:  130 | Rz:  127 | Rx:    0 | Ry:    0 | 0xff000020:  114 | Hat switch:   8 | Button: 0  0  0  0  0  0  0  0  0  0  0  0  0  0  0 | 0xff000021: 0 , 0 , 0 , 0 , 0 , 0 , 0 , 0 , 0 , 0 , 0 , 0 , 0 | 0xff000022:   79 ,   58 ,   42 ,  235 ,  246 ,  255 ,  240 ,  255 ,   11 ,    0 ,   53 ,    0 ,   65 ,   31 ,   60 ,    5 ,  244 ,  136 ,   10 ,  207 ,    8 ,  128 ,    0 ,    0 ,    0 ,  128 ,    0 ,    0 ,    0 ,    0 ,    9 ,    9 ,    0 ,    0 ,    0 ,    0 ,    0 ,    9 ,  171 ,   10 ,  207 ,   40 ,    8 ,    0 ,  219 ,  175 ,   21 ,  132 ,  224 ,    2 ,   94 ,  160 
E: 000000.155252 64 01 85 7f 82 7f 00 00 72 08 00 00 00 4f 3a 2a eb f6 ff f0 ff 0b 00 35 00 41 1f 3c 05 f4 88 0a cf 08 80 00 00 00 80 00 00 00 00 09 09 00 00 00 00 00 09 ab 0a cf 28 08 00 db af 15 84 e0 02 5e a0
# ReportID: 1 / X:  133 | Y:  128 | Z:  129 | Rz:  127 | Rx:    0 | Ry:    0 | 0xff000020:  115 | Hat switch:   8 | Button: 0  0  0  0  0  0  0  0  0  0  0  0  0  0  0 | 0xff000021: 0 , 0 , 0 , 0 , 0 , 0 , 0 , 0 , 0 , 0 , 0 , 0 , 0 | 0xff000022:   80 ,   58 ,   42 ,  235 ,  246 ,  255 ,  238 ,  255 ,   10 ,    0 ,   37 ,    0 ,   72 ,   31 ,   50 ,    5 ,  231 ,  183 ,   10 ,  207 ,    8 ,  128 ,    0 ,    0 ,    0 ,  128 ,    0 ,    0 ,    0 ,    0 ,    9 ,    9 ,    0 ,    0 ,    0 ,    0 ,    0 ,  233 ,  217 ,   10 ,  207 ,   40 ,    8 ,    0 ,  148 ,  168 ,   41 ,  117 ,   95 ,  192 ,   84 ,  217 
E: 000000.159218 64 01 85 80 81 7f 00 00 73 08 00 00 00 50 3a 2a eb f6 ff ee ff 0a 00 25 00 48 1f 32 05 e7 b7 0a cf 08 80 00 00 00 80 00 00 00 00 09 09 00 00 00 00 00 e9 d9 0a cf 28 08 00 94 a8 29 75 5f c0 54 d9
# ReportID: 1 / X:  133 | Y:  128 | Z:  129 | Rz:  127 | Rx:    0 | Ry:    0 | 0xff000020:  116 | Hat switch:   8 | Button: 0  0  0  0  0  0  0  0  0  0  0  0  0  0  0 | 0xff000021: 0 , 0 , 0 , 0 , 0 , 0 , 0 , 0 , 0 , 0 , 0 , 0 , 0 | 0xff000022:   81 ,   58 ,   42 ,  235 ,  247 ,  255 ,  238 ,  255 ,   10 ,    0 ,   37 ,    0 ,   95 ,   31 ,   57 ,    5 ,  218 ,  230 ,   10 ,  207 ,    8 ,  128 ,    0 ,    0 ,    0 ,  128 ,    0 ,    0 ,    0 ,    0 ,    9 ,    9 ,    0 ,    0 ,    0 ,    0 ,    0 ,  201 ,    8 ,   11 ,  207 ,   40 ,    8 ,    0 ,   74 ,  210 ,  132 ,  158 ,   19 ,   27 ,  214 ,  236 
E: 000000.163099 64 01 85 80 81 7f 00 00 74 08 00 00 00 51 3a 2a eb f7 ff ee ff 0a 00 25 00 5f 1f 39 05 da e6 0a cf 08 80 00 00 00 80 00 00 00 00 09 09 00 00 00 00 00 c9 08 0b cf 28 08 00 4a d2 84 9e 13 1b d6 ec
# ReportID: 1 / X:  133 | Y:  128 | Z:  129 | Rz:  127 | Rx:    0 | Ry:    0 | 0xff000020:  117 | Hat switch:   8 | Button: 0  0  0  0  0  0  0  0  0  0  0  0  0  0  0 | 0xff000021: 0 , 0 , 0 , 0 , 0 , 0 , 0 , 0 , 0 , 0 , 0 , 0 , 0 | 0xff000022:   82 ,   58 ,   42 ,  235 ,  246 ,  255 ,  239 ,  255 ,   10 ,    0 ,   34 ,    0 ,   97 ,   31 ,   53 ,    5 ,  205 ,   21 ,   11 ,  207 ,    8 ,  128 ,    0 ,    0 ,    0 ,  128 ,    0 ,    0 ,    0 ,    0 ,    9 ,    9 ,    0 ,    0 ,    0 ,    0 ,    0 ,  169 ,   55 ,   11 ,  207 ,   40 ,    8 ,    0 ,   71 ,  245 ,  219 ,  164 ,   10 ,    2 ,    4 ,  198 
E: 000000.167553 64 01 85 80 81 7f 00 00 75 08 00 00 00 52 3a 2a eb f6 ff ef ff 0a 00 22 00 61 1f 35 05 cd 15 0b cf 08 80 00 00 00 80 00 00 00 00 09 09 00 00 00 00 00 a9 37 0b cf 28 08 00 47 f5 db a4 0a 02 04 c6
# ReportID: 1 / X:  133 | Y:  127 | Z:  129 | Rz:  127 | Rx:    0 | Ry:    0 | 0xff000020:  118 | Hat switch:   8 | Button: 0  0  0  0  0  0  0  0  0  0  0  0  0  0  0 | 0xff000021: 0 , 0 , 0 , 0 , 0 , 0 , 0 , 0 , 0 , 0 , 0 , 0 , 0 | 0xff000022:   83 ,   58 ,   42 ,  235 ,  246 ,  255 ,  238 ,  255 ,   10 ,    0 ,   48 ,    0 ,   74 ,   31 ,   61 ,    5 ,  192 ,   68 ,   11 ,  207 ,    8 ,  128 ,    0 ,    0 ,    0 ,  128 ,    0 ,    0 ,    0 ,    0 ,    9 ,    9 ,    0 ,    0 ,    0 ,    0 ,    0 ,  137 ,  102 ,   11 ,  207 ,   40 ,    8 ,    0 ,   40 ,  249 ,  204 ,   43 ,   98 ,  171 ,  235 ,  170 
E: 000000.171341 64 01 85 7f 81 7f 00 00 76 08 00 00 00 53 3a 2a eb f6 ff ee ff 0a 00 30 00 4a 1f 3d 05 c0 44 0b cf 08 80 00 00 00 80 00 00 00 00 09 09 00 00 00 00 00 89 66 0b cf 28 08 00 28 f9 cc 2b 62 ab eb aa
# ReportID: 1 / X:  133 | Y:  127 | Z:  130 | Rz:  127 | Rx:    0 | Ry:    0 | 0xff000020:  119 | Hat switch:   8 | Button: 0  0  0  0  0  0  0  0  0  0  0  0  0  0  0 | 0xff000021: 0 , 0 , 0 , 0 , 0 , 0 , 0 , 0 , 0 , 0 , 0 , 0 , 0 | 0xff000022:   84 ,   58 ,   42 ,  235 ,  247 ,  255 ,  238 ,  255 ,   10 ,    0 ,   44 ,    0 ,   82 ,   31 ,   63 ,    5 ,  179 ,  115 ,   11 ,  207 ,    8 ,  128 ,    0 ,    0 ,    0 ,  128 ,    0 ,    0 ,    0 ,    0 ,    9 ,    9 ,    0 ,    0 ,    0 ,    0 ,    0 ,  105 ,  149 ,   11 ,  207 ,   40 ,    8 ,    0 ,  197 ,  218 ,   92 ,   74 ,   15 ,  235 ,  190 ,  192 
E: 000000.173801 64 01 85 7f 82 7f 00 00 77 08 00 00 00 54 3a 2a eb f7 ff ee ff 0a 00 2c 00 52 1f 3f 05 b3 73 0b cf 08 80 00 00 00 80 00 00 00 00 09 09 00 00 00 00 00 69 95 0b cf 28 08 00 c5 da 5c 4a 0f eb be c0
# ReportID: 1 / X:  133 | Y:  127 | Z:  130 | Rz:  127 | Rx:    0 | Ry:    0 | 0xff000020:  120 | Hat switch:   8 | Button: 0  0  0  0  0  0  0  0  0  0  0  0  0  0  0 | 0xff000021: 0 , 0 , 0 , 0 , 0 , 0 , 0 , 0 , 0 , 0 , 0 , 0 , 0 | 0xff000022:   85 ,   58 ,   42 ,  235 ,  248 ,  255 ,  238 ,  255 ,    9 ,    0 ,   45 ,    0 ,   63 ,   31 ,   54 ,    5 ,  167 ,  162 ,   11 ,  207 ,    8 ,  128 ,    0 ,    0 ,    0 ,  128 ,    0 ,    0 ,    0 ,    0 ,    9 ,    9 ,    0 ,    0 ,    0 ,    0 ,    0 ,   73 ,  196 ,   11 ,  207 ,   40 ,    8 ,    0 ,   10 ,   25 ,   60 ,  252 ,  101 ,  141 ,  171 ,   80 
E: 000000.179596 64 01 85 7f 82 7f 00 00 78 08 00 00 00 55 3a 2a eb f8 ff ee ff 09 00 2d 00 3f 1f 36 05 a7 a2 0b cf 08 80 00 00 00 80 00 00 00 00 09 09 00 00 00 00 00 49 c4 0b cf 28 08 00 0a 19 3c fc 65 8d ab 50
# ReportID: 1 / X:  133 | Y:  127 | Z:  129 | Rz:  127 | Rx:    0 | Ry:    0 | 0xff000020:  121 | Hat switch:   8 | Button: 0  0  0  0  0  0  0  0  0  0  0  0  0  0  0 | 0xff000021: 0 , 0 , 0 , 0 , 0 , 0 , 0 , 0 , 0 , 0 , 0 , 0 , 0 | 0xff000022:   86 ,   58 ,   42 ,  235 ,  248 ,  255 ,  238 ,  255 ,   10 ,    0 ,   42 ,    0 ,   64 ,   31 ,   57 ,    5 ,  154 ,  209 ,   11 ,  207 ,    8 ,  128 ,    0 ,    0 ,    0 ,  128 ,    0 ,    0 ,    0 ,    0 ,    9 ,    9 ,    0 ,    0 ,    0 ,    0 ,    0 ,   41 ,  243 ,   11 ,  207 ,   40 ,    8 ,    0 ,   99 ,  156 ,   34 ,  217 ,  161 ,  249 ,  138 ,  136 
E: 000000.181635 64 01 85 7f 81 7f 00 00 79 08 00 00 00 56 3a 2a eb f8 ff ee ff 0a 00 2a 00 40 1f 39 05 9a d1 0b cf 08 80 00 00 00 80 00 00 00 00 09 09 00 00 00 00 00 29 f3 0b cf 28 08 00 63 9c 22 d9 a1 f9 8a 88
# ReportID: 1 / X:  133 | Y:  127 | Z:  129 | Rz:  127 | Rx:    0 | Ry:    0 | 0xff000020:  122 | Hat switch:   8 | Button: 0  0  0  0  0  0  0  0  0  0  0  0  0  0  0 | 0xff000021: 0 , 0 , 0 , 0 , 0 , 0 , 0 , 0 , 0 , 0 , 0 , 0 , 0 | 0xff000022:   87 ,   58 ,   42 ,  235 ,  248 ,  255 ,  238 ,  255 ,    9 ,    0 ,   43 ,    0 ,   90 ,   31 ,   64 ,    5 ,  141 ,    0 ,   12 ,  207 ,    8 ,  128 ,    0 ,    0 ,    0 ,  128 ,    0 ,    0 ,    0 ,    0 ,    9 ,    9 ,    0 ,    0 ,    0 ,    0 ,    0 ,    9 ,   34 ,   12 ,  207 ,   40 ,    8 ,    0 ,   34 ,  173 ,   85 ,   45 ,  115 ,   60 ,  188 ,  145 
E: 000000.187064 64 01 85 7f 81 7f 00 00 7a 08 00 00 00 57 3a 2a eb f8 ff ee ff 09 00 2b 00 5a 1f 40 05 8d 00 0c cf 08 80 00 00 00 80 00 00 00 00 09 09 00 00 00 00 00 09 22 0c cf 28 08 00 22 ad 55 2d 73 3c bc 91
# ReportID: 1 / X:  133 | Y:  127 | Z:  130 | Rz:  127 | Rx:    0 | Ry:    0 | 0xff000020:  123 | Hat switch:   8 | Button: 0  0  0  0  0  0  0  0  0  0  0  0  0  0  0 | 0xff000021: 0 , 0 , 0 , 0 , 0 , 0 , 0 , 0 , 0 , 0 , 0 , 0 , 0 | 0xff000022:   88 ,   58 ,   42 ,  235 ,  247 ,  255 ,  238 ,  255 ,   10 ,    0 ,   48 ,    0 ,  101 ,   31 ,   62 ,    5 ,  128 ,   47 ,   12 ,  207 ,    8 ,  128 ,    0 ,    0 ,    0 ,  128 ,    0 ,    0 ,    0 ,    0 ,    9 ,    9 ,    0 ,    0 ,    0 ,    0 ,    0 ,  233 ,   80 ,   12 ,  207 ,   40 ,    8 ,    0 ,   62 ,  126 ,   53 ,   46 ,  244 ,  227 ,  221 ,   83 
E: 000000.191305 64 01 85 7f 82 7f 00 00 7b 08 00 00 00 58 3a 2a eb f7 ff ee ff 0a 00 30 00 65 1f 3e 05 80 2f 0c cf 08 80 00 00 00 80 00 00 00 00 09 09 00 00 00 00 00 e9 50 0c cf 28 08 00 3e 7e 35 2e f4 e3 dd 53
# ReportID: 1 / X:  133 | Y:  127 | Z:  130 | Rz:  127 | Rx:    0 | Ry:    0 | 0xff000020:  124 | Hat switch:   8 | Button: 0  0  0  0  0  0  0  0  0  0  0  0  0  0  0 | 0xff000021: 0 , 0 , 0 , 0 , 0 , 0 , 0 , 0 , 0 , 0 , 0 , 0 , 0 | 0xff000022:   89 ,   58 ,   42 ,  235 ,  247 ,  255 ,  238 ,  255 ,    9 ,    0 ,   40 ,    0 ,   71 ,   31 ,   60 ,    5 ,  115 ,   94 ,   12 ,  207 ,    8 ,  128 ,    0 ,    0 ,    0 ,  128 ,    0 ,    0 ,    0 ,    0 ,    9 ,    9 ,    0 ,    0 ,    0 ,    0 ,    0 ,  201 ,  127 ,   12 ,  207 ,   40 ,    8 ,    0 ,   47 ,  192 ,  158 ,   52 ,  211 ,  116 ,  255 ,   48 
E: 000000.195270 64 01 85 7f 82 7f 00 00 7c 08 00 00 00 59 3a 2a eb f7 ff ee ff 09 00 28 00 47 1f 3c 05 73 5e 0c cf 08 80 00 00 00 80 00 00 00 00 09 09 00 00 00 00 00 c9 7f 0c cf 28 08 00 2f c0 9e 34 d3 74 ff 30
# ReportID: 1 / X:  133 | Y:  127 | Z:  129 | Rz:  127 | Rx:    0 | Ry:    0 | 0xff000020:  125 | Hat switch:   8 | Button: 0  0  0  0  0  0  0  0  0  0  0  0  0  0  0 | 0xff000021: 0 , 0 , 0 , 0 , 0 , 0 , 0 , 0 , 0 , 0 , 0 , 0 , 0 | 0xff000022:   90 ,   58 ,   42 ,  235 ,  246 ,  255 ,  239 ,  255 ,   11 ,    0 ,   52 ,    0 ,   64 ,   31 ,   63 ,    5 ,  102 ,  141 ,   12 ,  207 ,    8 ,  128 ,    0 ,    0 ,    0 ,  128 ,    0 ,    0 ,    0 ,    0 ,    9 ,    9 ,    0 ,    0 ,    0 ,    0 ,    0 ,  169 ,  174 ,   12 ,  207 ,   40 ,    8 ,    0 ,  137 ,  206 ,  157 ,  120 ,  111 ,  213 ,   82 ,   55 
E: 000000.197743 64 01 85 7f 81 7f 00 00 7d 08 00 00 00 5a 3a 2a eb f6 ff ef ff 0b 00 34 00 40 1f 3f 05 66 8d 0c cf 08 80 00 00 00 80 00 00 00 00 09 09 00 00 00 00 00 a9 ae 0c cf 28 08 00 89 ce 9d 78 6f d5 52 37
# ReportID: 1 / X:  133 | Y:  127 | Z:  130 | Rz:  127 | Rx:    0 | Ry:    0 | 0xff000020:  126 | Hat switch:   8 | Button: 0  0  0  0  0  0  0  0  0  0  0  0  0  0  0 | 0xff000021: 0 , 0 , 0 , 0 , 0 , 0 , 0 , 0 , 0 , 0 , 0 , 0 , 0 | 0xff000022:   91 ,   58 ,   42 ,  235 ,  248 ,  255 ,  238 ,  255 ,   10 ,    0 ,   50 ,    0 ,   75 ,   31 ,   66 ,    5 ,   89 ,  188 ,   12 ,  207 ,    8 ,  128 ,    0 ,    0 ,    0 ,  128 ,    0 ,    0 ,    0 ,    0 ,    9 ,    9 ,    0 ,    0 ,    0 ,    0 ,    0 ,  137 ,  221 ,   12 ,  207 ,   40 ,    8 ,    0 ,   18 ,  199 ,  167 ,   48 ,  114 ,  202 ,  211 ,  190 
E: 000000.203102 64 01 85 7f 82 7f 00 00 7e 08 00 00 00 5b 3a 2a eb f8 ff ee ff 0a 00 32 00 4b 1f 42 05 59 bc 0c cf 08 80 00 00 00 80 00 00 00 00 09 09 00 00 00 00 00 89 dd 0c cf 28 08 00 12 c7 a7 30 72 ca d3 be
# ReportID: 1 / X:  133 | Y:  127 | Z:  129 | Rz:  127 | Rx:    0 | Ry:    0 | 0xff000020:  127 | Hat switch:   8 | Button: 0  0  0  0  0  0  0  0  0  0  0  0  0  0  0 | 0xff000021: 0 , 0 , 0 , 0 , 0 , 0 , 0 , 0 , 0 , 0 , 0 , 0 , 0 | 0xff000022:   92 ,   58 ,   42 ,  235 ,  248 ,  255 ,  238 ,  255 ,   10 ,    0 ,   59 ,    0 ,   74 ,   31 ,   64 ,    5 ,   76 ,  235 ,   12 ,  207 ,    8 ,  128 ,    0 ,    0 ,    0 ,  128 ,    0 ,    0 ,    0 ,    0 ,    9 ,    9 ,    0 ,    0 ,    0 ,    0 ,    0 ,  105 ,   12 ,   13 ,  207 ,   40 ,    8 ,    0 ,   93 ,  122 ,   67 ,  230 ,  138 ,  107 ,  253 ,   52 
E: 000000.207515 64 01 85 7f 81 7f 00 00 7f 08 00 00 00 5c 3a 2a eb f8 ff ee ff 0a 00 3b 00 4a 1f 40 05 4c eb 0c cf 08 80 00 00 00 80 00 00 00 00 09 09 00 00 00 00 00 69 0c 0d cf 28 08 00 5d 7a 43 e6 8a 6b fd 34
# ReportID: 1 / X:  133 | Y:  127 | Z:  129 | Rz:  127 | Rx:    0 | Ry:    0 | 0xff000020:  128 | Hat switch:   8 | Button: 0  0  0  0  0  0  0  0  0  0  0  0  0  0  0 | 0xff000021: 0 , 0 , 0 , 0 , 0 , 0 , 0 , 0 , 0 , 0 , 0 , 0 , 0 | 0xff000022:   93 ,   58 ,   42 ,  235 ,  249 ,  255 ,  238 ,  255 ,   10 ,    0 ,   55 ,    0 ,   75 ,   31 ,   62 ,    5 ,   63 ,   26 ,   13 ,  207 ,    8 ,  128 ,    0 ,    0 ,    0 ,  128 ,    0 ,    0 ,    0 ,    0 ,    9 ,    9 ,    0 ,    0 ,    0 ,    0 ,    0 ,   73 ,   59 ,   13 ,  207 ,   40 ,    8 ,    0 ,  200 ,  113 ,  201 ,  162 ,  161 ,  116 ,   76 ,   65 
E: 000000.211218 64 01 85 7f 81 7f 00 00 80 08 00 00 00 5d 3a 2a eb f9 ff ee ff 0a 00 37 00 4b 1f 3e 05 3f 1a 0d cf 08 80 00 00 00 80 00 00 00 00 09 09 00 00 00 00 00 49 3b 0d cf 28 08 00 c8 71 c9 a2 a1 74 4c 41
# ReportID: 1 / X:  133 | Y:  127 | Z:  130 | Rz:  127 | Rx:    0 | Ry:    0 | 0xff000020:  129 | Hat switch:   8 | Button: 0  0  0  0  0  0  0  0  0  0  0  0  0  0  0 | 0xff000021: 0 , 0 , 0 , 0 , 0 , 0 , 0 , 0 , 0 , 0 , 0 , 0 , 0 | 0xff000022:   94 ,   58 ,   42 ,  235 ,  248 ,  255 ,  238 ,  255 ,   10 ,    0 ,   58 ,    0 ,   83 ,   31 ,   59 ,    5 ,   50 ,   73 ,   13 ,  207 ,    8 ,  128 ,    0 ,    0 ,    0 ,  128 ,    0 ,    0 ,    0 ,    0 ,    9 ,    9 ,    0 ,    0 ,    0 ,    0 ,    0 ,   41 ,  106 ,   13 ,  207 ,   40 ,    8 ,    0 ,  186 ,  121 ,  108 ,   36 ,  232 ,  211 ,   29 ,  197 
E: 000000.214322 64 01 85 7f 82 7f 00 00 81 08 00 00 00 5e 3a 2a eb f8 ff ee ff 0a 00 3a 00 53 1f 3b 05 32 49 0d cf 08 80 00 00 00 80 00 00 00 00 09 09 00 00 00 00 00 29 6a 0d cf 28 08 00 ba 79 6c 24 e8 d3 1d c5
# ReportID: 1 / X:  133 | Y:  127 | Z:  130 | Rz:  127 | Rx:    0 | Ry:    0 | 0xff000020:  130 | Hat switch:   8 | Button: 0  0  0  0  0  0  0  0  0  0  0  0  0  0  0 | 0xff000021: 0 , 0 , 0 , 0 , 0 , 0 , 0 , 0 , 0 , 0 , 0 , 0 , 0 | 0xff000022:   95 ,   58 ,   42 ,  235 ,  249 ,  255 ,  238 ,  255 ,   10 ,    0 ,   58 ,    0 ,   89 ,   31 ,   64 ,    5 ,   37 ,  120 ,   13 ,  207 ,    8 ,  128 ,    0 ,    0 ,    0 ,  128 ,    0 ,    0 ,    0 ,    0 ,    9 ,    9 ,    0 ,    0 ,    0 ,    0 ,    0 ,    9 ,  153 ,   13 ,  207 ,   40 ,    8 ,    0 ,  231 ,  176 ,  137 ,  180 ,  216 ,   28 ,   54 ,   83 
E: 000000.217741 64 01 85 7f 82 7f 00 00 82 08 00 00 00 5f 3a 2a eb f9 ff ee ff 0a 00 3a 00 59 1f 40 05 25 78 0d cf 08 80 00 00 00 80 00 00 00 00 09 09 00 00 00 00 00 09 99 0d cf 28 08 00 e7 b0 89 b4 d8 1c 36 53
# ReportID: 1 / X:  133 | Y:  127 | Z:  130 | Rz:  127 | Rx:    0 | Ry:    0 | 0xff000020:  131 | Hat switch:   8 | Button: 0  0  0  0  0  0  0  0  0  0  0  0  0  0  0 | 0xff000021: 0 , 0 , 0 , 0 , 0 , 0 , 0 , 0 , 0 , 0 , 0 , 0 , 0 | 0xff000022:   96 ,   58 ,   42 ,  235 ,  248 ,  255 ,  239 ,  255 ,   10 ,    0 ,   52 ,    0 ,   91 ,   31 ,   57 ,    5 ,   24 ,  167 ,   13 ,  207 ,    8 ,  128 ,    0 ,    0 ,    0 ,  128 ,    0 ,    0 ,    0 ,    0 ,    9 ,    9 ,    0 ,    0 ,    0 ,    0 ,    0 ,  233 ,  199 ,   13 ,  207 ,   40 ,    8 ,    0 ,   59 ,  160 ,  204 ,  133 ,  188 ,  176 ,  108 ,   39 
E: 000000.221754 64 01 85 7f 82 7f 00 00 83 08 00 00 00 60 3a 2a eb f8 ff ef ff 0a 00 34 00 5b 1f 39 05 18 a7 0d cf 08 80 00 00 00 80 00 00 00 00 09 09 00 00 00 00 00 e9 c7 0d cf 28 08 00 3b a0 cc 85 bc b0 6c 27
# ReportID: 1 / X:  133 | Y:  128 | Z:  130 | Rz:  127 | Rx:    0 | Ry:    0 | 0xff000020:  132 | Hat switch:   8 | Button: 0  0  0  0  0  0  0  0  0  0  0  0  0  0  0 | 0xff000021: 0 , 0 , 0 , 0 , 0 , 0 , 0 , 0 , 0 , 0 , 0 , 0 , 0 | 0xff000022:   97 ,   58 ,   42 ,  235 ,  249 ,  255 ,  239 ,  255 ,   10 ,    0 ,   51 ,    0 ,   85 ,   31 ,   45 ,    5 ,   11 ,  214 ,   13 ,  207 ,    8 ,  128 ,    0 ,    0 ,    0 ,  128 ,    0 ,    0 ,    0 ,    0 ,    9 ,    9 ,    0 ,    0 ,    0 ,    0 ,    0 ,  201 ,  246 ,   13 ,  207 ,   40 ,    8 ,    0 ,  176 ,  204 ,  104 ,  203 ,  204 ,  134 ,   58 ,  141 
E: 000000.225757 64 01 85 80 82 7f 00 00 84 08 00 00 00 61 3a 2a eb f9 ff ef ff 0a 00 33 00 55 1f 2d 05 0b d6 0d cf 08 80 00 00 00 80 00 00 00 00 09 09 00 00 00 00 00 c9 f6 0d cf 28 08 00 b0 cc 68 cb cc 86 3a 8d
# ReportID: 1 / X:  133 | Y:  128 | Z:  129 | Rz:  127 | Rx:    0 | Ry:    0 | 0xff000020:  133 | Hat switch:   8 | Button: 0  0  0  0  0  0  0  0  0  0  0  0  0  0  0 | 0xff000021: 0 , 0 , 0 , 0 , 0 , 0 , 0 , 0 , 0 , 0 , 0 , 0 , 0 | 0xff000022:   98 ,   58 ,   42 ,  235 ,  246 ,  255 ,  240 ,  255 ,   11 ,    0 ,   57 ,    0 ,   82 ,   31 ,   52 ,    5 ,  254 ,    4 ,   14 ,  207 ,    8 ,  128 ,    0 ,    0 ,    0 ,  128 ,    0 ,    0 ,    0 ,    0 ,    9 ,    9 ,    0 ,    0 ,    0 ,    0 ,    0 ,  169 ,   37 ,   14 ,  207 ,   40 ,    8 ,    0 ,    7 ,   18 ,  242 ,  211 ,  178 ,  232 ,   56 ,   16 
E: 000000.231233 64 01 85 80 81 7f 00 00 85 08 00 00 00 62 3a 2a eb f6 ff f0 ff 0b 00 39 00 52 1f 34 05 fe 04 0e cf 08 80 00 00 00 80 00 00 00 00 09 09 00 00 00 00 00 a9 25 0e cf 28 08 00 07 12 f2 d3 b2 e8 38 10
# ReportID: 1 / X:  133 | Y:  127 | Z:  130 | Rz:  127 | Rx:    0 | Ry:    0 | 0xff000020:  134 | Hat switch:   8 | Button: 0  0  0  0  0  0  0  0  0  0  0  0  0  0  0 | 0xff000021: 0 , 0 , 0 , 0 , 0 , 0 , 0 , 0 , 0 , 0 , 0 , 0 , 0 | 0xff000022:   99 ,   58 ,   42 ,  235 ,  249 ,  255 ,  238 ,  255 ,   10 ,    0 ,   59 ,    0 ,   84 ,   31 ,   49 ,    5 ,  241 ,   51 ,   14 ,  207 ,    8 ,  128 ,    0 ,    0 ,    0 ,  128 ,    0 ,    0 ,    0 ,    0 ,    9 ,    9 ,    0 ,    0 ,    0 ,    0 ,    0 ,  137 ,   84 ,   14 ,  207 ,   40 ,    8 ,    0 ,   44 ,  192 ,   94 ,   60 ,   83 ,  255 ,  200 ,   32 
E: 000000.235300 64 01 85 7f 82 7f 00 00 86 08 00 00 00 63 3a 2a eb f9 ff ee ff 0a 00 3b 00 54 1f 31 05 f1 33 0e cf 08 80 00 00 00 80 00 00 00 00 09 09 00 00 00 00 00 89 54 0e cf 28 08 00 2c c0 5e 3c 53 ff c8 20
# ReportID: 1 / X:  133 | Y:  127 | Z:  129 | Rz:  127 | Rx:    0 | Ry:    0 | 0xff000020:  135 | Hat switch:   8 | Button: 0  0  0  0  0  0  0  0  0  0  0  0  0  0  0 | 0xff000021: 0 , 0 , 0 , 0 , 0 , 0 , 0 , 0 , 0 , 0 , 0 , 0 , 0 | 0xff000022:  100 ,   58 ,   42 ,  235 ,  247 ,  255 ,  239 ,  255 ,   10 ,    0 ,   61 ,    0 ,   90 ,   31 ,   40 ,    5 ,  228 ,   98 ,   14 ,  207 ,    8 ,  128 ,    0 ,    0 ,    0 ,  128 ,    0 ,    0 ,    0 ,    0 ,    9 ,    9 ,    0 ,    0 ,    0 ,    0 ,    0 ,  105 ,  131 ,   14 ,  207 ,   40 ,    8 ,    0 ,  212 ,   86 ,   73 ,  226 ,  114 ,  216 ,  179 ,   22 
E: 000000.238358 64 01 85 7f 81 7f 00 00 87 08 00 00 00 64 3a 2a eb f7 ff ef ff 0a 00 3d 00 5a 1f 28 05 e4 62 0e cf 08 80 00 00 00 80 00 00 00 00 09 09 00 00 00 00 00 69 83 0e cf 28 08 00 d4 56 49 e2 72 d8 b3 16
# ReportID: 1 / X:  133 | Y:  128 | Z:  130 | Rz:  127 | Rx:    0 | Ry:    0 | 0xff000020:  136 | Hat switch:   8 | Button: 0  0  0  0  0  0  0  0  0  0  0  0  0  0  0 | 0xff000021: 0 , 0 , 0 , 0 , 0 , 0 , 0 , 0 , 0 , 0 , 0 , 0 , 0 | 0xff000022:  101 ,   58 ,   42 ,  235 ,  248 ,  255 ,  240 ,  255 ,   11 ,    0 ,   61 ,    0 ,   83 ,   31 ,   44 ,    5 ,  216 ,  145 ,   14 ,  207 ,    8 ,  128 ,    0 ,    0 ,    0 ,  128 ,    0 ,    0 ,    0 ,    0 ,    9 ,    9 ,    0 ,    0 ,    0 ,    0 ,    0 ,   73 ,  178 ,   14 ,  207 ,   40 ,    8 ,    0 ,  135 ,  231 ,  160 ,  199 ,   22 ,  146 ,  221 ,  158 
E: 000000.241807 64 01 85 80 82 7f 00 00 88 08 00 00 00 65 3a 2a eb f8 ff f0 ff 0b 00 3d 00 53 1f 2c 05 d8 91 0e cf 08 80 00 00 00 80 00 00 00 00 09 09 00 00 00 00 00 49 b2 0e cf 28 08 00 87 e7 a0 c7 16 92 dd 9e
# ReportID: 1 / X:  133 | Y:  127 | Z:  129 | Rz:  127 | Rx:    0 | Ry:    0 | 0xff000020:  137 | Hat switch:   8 | Button: 0  0  0  0  0  0  0  0  0  0  0  0  0  0  0 | 0xff000021: 0 , 0 , 0 , 0 , 0 , 0 , 0 , 0 , 0 , 0 , 0 , 0 , 0 | 0xff000022:  102 ,   58 ,   42 ,  235 ,  246 ,  255 ,  238 ,  255 ,   11 ,    0 ,   56 ,    0 ,   89 ,   31 ,   44 ,    5 ,  203 ,  192 ,   14 ,  207 ,    8 ,  128 ,    0 ,    0 ,    0 ,  128 ,    0 ,    0 ,    0 ,    0 ,    9 ,    9 ,    0 ,    0 ,    0 ,    0 ,    0 ,   41 ,  225 ,   14 ,  207 ,   40 ,    8 ,    0 ,   19 ,  199 ,    9 ,   96 ,   70 ,   49 ,  235 ,  221 
E: 000000.246951 64 01 85 7f 81 7f 00 00 89 08 00 00 00 66 3a 2a eb f6 ff ee ff 0b 00 38 00 59 1f 2c 05 cb c0 0e cf 08 80 00 00 00 80 00 00 00 00 09 09 00 00 00 00 00 29 e1 0e cf 28 08 00 13 c7 09 60 46 31 eb dd
# ReportID: 1 / X:  133 | Y:  127 | Z:  130 | Rz:  127 | Rx:    0 | Ry:    0 | 0xff000020:  138 | Hat switch:   8 | Button: 0  0  0  0  0  0  0  0  0  0  0  0  0  0  0 | 0xff000021: 0 , 0 , 0 , 0 , 0 , 0 , 0 , 0 , 0 , 0 , 0 , 0 , 0 | 0xff000022:  103 ,   58 ,   42 ,  235 ,  247 ,  255 ,  238 ,  255 ,   10 ,    0 ,   57 ,    0 ,   84 ,   31 ,   46 ,    5 ,  190 ,  239 ,   14 ,  207 ,    8 ,  128 ,    0 ,    0 ,    0 ,  128 ,    0 ,    0 ,    0 ,    0 ,    9 ,    9 ,    0 ,    0 ,    0 ,    0 ,    0 ,    9 ,   16 ,   15 ,  207 ,   40 ,    8 ,    0 ,   74 ,   84 ,   95 ,  181 ,   73 ,   34 ,   63 ,  217 
E: 000000.249619 64 01 85 7f 82 7f 00 00 8a 08 00 00 00 67 3a 2a eb f7 ff ee ff 0a 00 39 00 54 1f 2e 05 be ef 0e cf 08 80 00 00 00 80 00 00 00 00 09 09 00 00 00 00 00 09 10 0f cf 28 08 00 4a 54 5f b5 49 22 3f d9
# ReportID: 1 / X:  133 | Y:  127 | Z:  130 | Rz:  127 | Rx:    0 | Ry:    0 | 0xff000020:  139 | Hat switch:   8 | Button: 0  0  0  0  0  0  0  0  0  0  0  0  0  0  0 | 0xff000021: 0 , 0 , 0 , 0 , 0 , 0 , 0 , 0 , 0 , 0 , 0 , 0 , 0 | 0xff000022:  104 ,   58 ,   42 ,  235 ,  247 ,  255 ,  239 ,  255 ,   11 ,    0 ,   51 ,    0 ,   87 ,   31 ,   39 ,    5 ,  177 ,   30 ,   15 ,  207 ,    8 ,  128 ,    0 ,    0 ,    0 ,  128 ,    0 ,    0 ,    0 ,    0 ,    9 ,    9 ,    0 ,    0 ,    0 ,    0 ,    0 ,  233 ,   62 ,   15 ,  207 ,   40 ,    8 ,    0 ,   99 ,  183 ,  105 ,  117 ,  236 ,  158 ,   77 ,  156 
E: 000000.254576 64 01 85 7f 82 7f 00 00 8b 08 00 00 00 68 3a 2a eb f7 ff ef ff 0b 00 33 00 57 1f 27 05 b1 1e 0f cf 08 80 00 00 00 80 00 00 00 00 09 09 00 00 00 00 00 e9 3e 0f cf 28 08 00 63 b7 69 75 ec 9e 4d 9c
# ReportID: 1 / X:  133 | Y:  128 | Z:  130 | Rz:  127 | Rx:    0 | Ry:    0 | 0xff000020:  140 | Hat switch:   8 | Button: 0  0  0  0  0  0  0  0  0  0  0  0  0  0  0 | 0xff000021: 0 , 0 , 0 , 0 , 0 , 0 , 0 , 0 , 0 , 0 , 0 , 0 , 0 | 0xff000022:  105 ,   58 ,   42 ,  235 ,  248 ,  255 ,  239 ,  255 ,   11 ,    0 ,   47 ,    0 ,   86 ,   31 ,   34 ,    5 ,  164 ,   77 ,   15 ,  207 ,    8 ,  128 ,    0 ,    0 ,    0 ,  128 ,    0 ,    0 ,    0 ,    0 ,    9 ,    9 ,    0 ,    0 ,    0 ,    0 ,    0 ,  201 ,  109 ,   15 ,  207 ,   40 ,    8 ,    0 ,  173 ,   35 ,  101 ,  185 ,   24 ,  250 ,  192 ,  149 
E: 000000.257847 64 01 85 80 82 7f 00 00 8c 08 00 00 00 69 3a 2a eb f8 ff ef ff 0b 00 2f 00 56 1f 22 05 a4 4d 0f cf 08 80 00 00 00 80 00 00 00 00 09 09 00 00 00 00 00 c9 6d 0f cf 28 08 00 ad 23 65 b9 18 fa c0 95
# ReportID: 1 / X:  133 | Y:  127 | Z:  130 | Rz:  127 | Rx:    0 | Ry:    0 | 0xff000020:  141 | Hat switch:   8 | Button: 0  0  0  0  0  0  0  0  0  0  0  0  0  0  0 | 0xff000021: 0 , 0 , 0 , 0 , 0 , 0 , 0 , 0 , 0 , 0 , 0 , 0 , 0 | 0xff000022:  106 ,   58 ,   42 ,  235 ,  247 ,  255 ,  239 ,  255 ,   10 ,    0 ,   43 ,    0 ,   95 ,   31 ,   41 ,    5 ,  151 ,  124 ,   15 ,  207 ,    8 ,  128 ,    0 ,    0 ,    0 ,  128 ,    0 ,    0 ,    0 ,    0 ,    9 ,    9 ,    0 ,    0 ,    0 ,    0 ,    0 ,  169 ,  156 ,   15 ,  207 ,   40 ,    8 ,    0 ,  176 ,   20 ,  195 ,  245 ,  110 ,   95 ,   68 ,   78 
E: 000000.261660 64 01 85 7f 82 7f 00 00 8d 08 00 00 00 6a 3a 2a eb f7 ff ef ff 0a 00 2b 00 5f 1f 29 05 97 7c 0f cf 08 80 00 00 00 80 00 00 00 00 09 09 00 00 00 00 00 a9 9c 0f cf 28 08 00 b0 14 c3 f5 6e 5f 44 4e
# ReportID: 1 / X:  133 | Y:  128 | Z:  130 | Rz:  127 | Rx:    0 | Ry:    0 | 0xff000020:  142 | Hat switch:   8 | Button: 0  0  0  0  0  0  0  0  0  0  0  0  0  0  0 | 0xff000021: 0 , 0 , 0 , 0 , 0 , 0 , 0 , 0 , 0 , 0 , 0 , 0 , 0 | 0xff000022:  107 ,   58 ,   42 ,  235 ,  248 ,  255 ,  238 ,  255 ,   10 ,    0 ,   48 ,    0 ,   90 ,   31 ,   48 ,    5 ,  138 ,  171 ,   15 ,  207 ,    8 ,  128 ,    0 ,    0 ,    0 ,  128 ,    0 ,    0 ,    0 ,    0 ,    9 ,    9 ,    0 ,    0 ,    0 ,    0 ,    0 ,  137 ,  203 ,   15 ,  207 ,   40 ,    8 ,    0 ,  159 ,   59 ,   46 ,  155 ,  146 ,   41 ,  246 ,  166 
E: 000000.265886 64 01 85 80 82 7f 00 00 8e 08 00 00 00 6b 3a 2a eb f8 ff ee ff 0a 00 30 00 5a 1f 30 05 8a ab 0f cf 08 80 00 00 00 80 00 00 00 00 09 09 00 00 00 00 00 89 cb 0f cf 28 08 00 9f 3b 2e 9b 92 29 f6 a6
# ReportID: 1 / X:  133 | Y:  128 | Z:  130 | Rz:  127 | Rx:    0 | Ry:    0 | 0xff000020:  143 | Hat switch:   8 | Button: 0  0  0  0  0  0  0  0  0  0  0  0  0  0  0 | 0xff000021: 0 , 0 , 0 , 0 , 0 , 0 , 0 , 0 , 0 , 0 , 0 , 0 , 0 | 0xff000022:  108 ,   58 ,   42 ,  235 ,  247 ,  255 ,  239 ,  255 ,    9 ,    0 ,   44 ,    0 ,   91 ,   31 ,   42 ,    5 ,  125 ,  218 ,   15 ,  207 ,    8 ,  128 ,    0 ,    0 ,    0 ,  128 ,    0 ,    0 ,    0 ,    0 ,    9 ,    9 ,    0 ,    0 ,    0 ,    0 ,    0 ,  105 ,  250 ,   15 ,  207 ,   40 ,    8 ,    0 ,   78 ,  144 ,    1 ,  219 ,   25 ,  149 ,  155 ,    7 
E: 000000.270709 64 01 85 80 82 7f 00 00 8f 08 00 00 00 6c 3a 2a eb f7 ff ef ff 09 00 2c 00 5b 1f 2a 05 7d da 0f cf 08 80 00 00 00 80 00 00 00 00 09 09 00 00 00 00 00 69 fa 0f cf 28 08 00 4e 90 01 db 19 95 9b 07
# ReportID: 1 / X:  133 | Y:  128 | Z:  129 | Rz:  127 | Rx:    0 | Ry:    0 | 0xff000020:  144 | Hat switch:   8 | Button: 0  0  0  0  0  0  0  0  0  0  0  0  0  0  0 | 0xff000021: 0 , 0 , 0 , 0 , 0 , 0 , 0 , 0 , 0 , 0 , 0 , 0 , 0 | 0xff000022:  109 ,   58 ,   42 ,  235 ,  246 ,  255 ,  239 ,  255 ,   11 ,    0 ,   49 ,    0 ,   93 ,   31 ,   41 ,    5 ,  112 ,    9 ,   16 ,  207 ,    8 ,  128 ,    0 ,    0 ,    0 ,  128 ,    0 ,    0 ,    0 ,    0 ,    9 ,    9 ,    0 ,    0 ,    0 ,    0 ,    0 ,   73 ,   41 ,   16 ,  207 ,   40 ,    8 ,    0 ,  245 ,  127 ,  233 ,  210 ,  110 ,  237 ,  242 ,   75 
E: 000000.273901 64 01 85 80 81 7f 00 00 90 08 00 00 00 6d 3a 2a eb f6 ff ef ff 0b 00 31 00 5d 1f 29 05 70 09 10 cf 08 80 00 00 00 80 00 00 00 00 09 09 00 00 00 00 00 49 29 10 cf 28 08 00 f5 7f e9 d2 6e ed f2 4b
# ReportID: 1 / X:  133 | Y:  129 | Z:  130 | Rz:  127 | Rx:    0 | Ry:    0 | 0xff000020:  145 | Hat switch:   8 | Button: 0  0  0  0  0  0  0  0  0  0  0  0  0  0  0 | 0xff000021: 0 , 0 , 0 , 0 , 0 , 0 , 0 , 0 , 0 , 0 , 0 , 0 , 0 | 0xff000022:  110 ,   58 ,   42 ,  235 ,  247 ,  255 ,  239 ,  255 ,   10 ,    0 ,   46 ,    0 ,   81 ,   31 ,   44 ,    5 ,   99 ,   56 ,   16 ,  207 ,    8 ,  128 ,    0 ,    0 ,    0 ,  128 ,    0 ,    0 ,    0 ,    0 ,    9 ,    9 ,    0 ,    0 ,    0 ,    0 ,    0 ,   41 ,   88 ,   16 ,  207 ,   40 ,    8 ,    0 ,  141 ,  169 ,   61 ,   97 ,  241 ,   60 ,   11 ,  209 
E: 000000.277814 64 01 85 81 82 7f 00 00 91 08 00 00 00 6e 3a 2a eb f7 ff ef ff 0a 00 2e 00 51 1f 2c 05 63 38 10 cf 08 80 00 00 00 80 00 00 00 00 09 09 00 00 00 00 00 29 58 10 cf 28 08 00 8d a9 3d 61 f1 3c 0b d1
# ReportID: 1 / X:  133 | Y:  129 | Z:  130 | Rz:  127 | Rx:    0 | Ry:    0 | 0xff000020:  146 | Hat switch:   8 | Button: 0  0  0  0  0  0  0  0  0  0  0  0  0  0  0 | 0xff000021: 0 , 0 , 0 , 0 , 0 , 0 , 0 , 0 , 0 , 0 , 0 , 0 , 0 | 0xff000022:  111 ,   58 ,   42 ,  235 ,  247 ,  255 ,  239 ,  255 ,   11 ,    0 ,   50 ,    0 ,   79 ,   31 ,   44 ,    5 ,   86 ,  103 ,   16 ,  207 ,    8 ,  128 ,    0 ,    0 ,    0 ,  128 ,    0 ,    0 ,    0 ,    0 ,    9 ,    9 ,    0 ,    0 ,    0 ,    0 ,    0 ,    9 ,  135 ,   16 ,  207 ,   40 ,    8 ,    0 ,   58 ,   68 ,  208 ,  211 ,   37 ,   45 ,   79 ,   35 
E: 000000.282638 64 01 85 81 82 7f 00 00 92 08 00 00 00 6f 3a 2a eb f7 ff ef ff 0b 00 32 00 4f 1f 2c 05 56 67 10 cf 08 80 00 00 00 80 00 00 00 00 09 09 00 00 00 00 00 09 87 10 cf 28 08 00 3a 44 d0 d3 25 2d 4f 23
# ReportID: 1 / X:  132 | Y:  129 | Z:  130 | Rz:  127 | Rx:    0 | Ry:    0 | 0xff000020:  147 | Hat switch:   8 | Button: 0  0  0  0  0  0  0  0  0  0  0  0  0  0  0 | 0xff000021: 0 , 0 , 0 , 0 , 0 , 0 , 0 , 0 , 0 , 0 , 0 , 0 , 0 | 0xff000022:  112 ,   58 ,   42 ,  235 ,  247 ,  255 ,  239 ,  255 ,   11 ,    0 ,   46 ,    0 ,   76 ,   31 ,   42 ,    5 ,   73 ,  150 ,   16 ,  207 ,    8 ,  128 ,    0 ,    0 ,    0 ,  128 ,    0 ,    0 ,    0 ,    0 ,    9 ,    9 ,    0 ,    0 ,    0 ,    0 ,    0 ,  233 ,  181 ,   16 ,  207 ,   40 ,    8 ,    0 ,  198 ,  126 ,  223 ,   31 ,  112 ,  155 ,  189 ,   46 
E: 000000.285952 64 01 84 81 82 7f 00 00 93 08 00 00 00 70 3a 2a eb f7 ff ef ff 0b 00 2e 00 4c 1f 2a 05 49 96 10 cf 08 80 00 00 00 80 00 00 00 00 09 09 00 00 00 00 00 e9 b5 10 cf 28 08 00 c6 7e df 1f 70 9b bd 2e
# ReportID: 1 / X:  133 | Y:  129 | Z:  130 | Rz:  127 | Rx:    0 | Ry:    0 | 0xff000020:  148 | Hat switch:   8 | Button: 0  0  0  0  0  0  0  0  0  0  0  0  0  0  0 | 0xff000021: 0 , 0 , 0 , 0 , 0 , 0 , 0 , 0 , 0 , 0 , 0 , 0 , 0 | 0xff000022:  113 ,   58 ,   42 ,  235 ,  247 ,  255 ,  239 ,  255 ,   11 ,    0 ,   50 ,    0 ,   77 ,   31 ,   49 ,    5 ,   60 ,  197 ,   16 ,  207 ,    8 ,  128 ,    0 ,    0 ,    0 ,  128 ,    0 ,    0 ,    0 ,    0 ,    9 ,    9 ,    0 ,    0 ,    0 ,    0 ,    0 ,  201 ,  228 ,   16 ,  207 ,   40 ,    8 ,    0 ,   50 ,   65 ,  195 ,   41 ,  157 ,   98 ,  182 ,   69 
E: 000000.290000 64 01 85 81 82 7f 00 00 94 08 00 00 00 71 3a 2a eb f7 ff ef ff 0b 00 32 00 4d 1f 31 05 3c c5 10 cf 08 80 00 00 00 80 00 00 00 00 09 09 00 00 00 00 00 c9 e4 10 cf 28 08 00 32 41 c3 29 9d 62 b6 45
# ReportID: 1 / X:  132 | Y:  129 | Z:  129 | Rz:  127 | Rx:    0 | Ry:    0 | 0xff000020:  149 | Hat switch:   8 | Button: 0  0  0  0  0  0  0  0  0  0  0  0  0  0  0 | 0xff000021: 0 , 0 , 0 , 0 , 0 , 0 , 0 , 0 , 0 , 0 , 0 , 0 , 0 | 0xff000022:  114 ,   58 ,   42 ,  235 ,  248 ,  255 ,  239 ,  255 ,   10 ,    0 ,   51 ,    0 ,   77 ,   31 ,   52 ,    5 ,   47 ,  244 ,   16 ,  207 ,    8 ,  128 ,    0 ,    0 ,    0 ,  128 ,    0 ,    0 ,    0 ,    0 ,    9 ,    9 ,    0 ,    0 ,    0 ,    0 ,    0 ,  169 ,   19 ,   17 ,  207 ,   40 ,    8 ,    0 ,  190 ,   59 ,   92 ,  182 ,  206 ,  233 ,  181 ,  233 
E: 000000.294124 64 01 84 81 81 7f 00 00 95 08 00 00 00 72 3a 2a eb f8 ff ef ff 0a 00 33 00 4d 1f 34 05 2f f4 10 cf 08 80 00 00 00 80 00 00 00 00 09 09 00 00 00 00 00 a9 13 11 cf 28 08 00 be 3b 5c b6 ce e9 b5 e9
# ReportID: 1 / X:  133 | Y:  129 | Z:  130 | Rz:  127 | Rx:    0 | Ry:    0 | 0xff000020:  150 | Hat switch:   8 | Button: 0  0  0  0  0  0  0  0  0  0  0  0  0  0  0 | 0xff000021: 0 , 0 , 0 , 0 , 0 , 0 , 0 , 0 , 0 , 0 , 0 , 0 , 0 | 0xff000022:  115 ,   58 ,   42 ,  235 ,  246 ,  255 ,  240 ,  255 ,   11 ,    0 ,   58 ,    0 ,   86 ,   31 ,   55 ,    5 ,   34 ,   35 ,   17 ,  207 ,    8 ,  128 ,    0 ,    0 ,    0 ,  128 ,    0 ,    0 ,    0 ,    0 ,    9 ,    9 ,    0 ,    0 ,    0 ,    0 ,    0 ,  137 ,   66 ,   17 ,  207 ,   40 ,    8 ,    0 ,  242 ,  191 ,   66 ,  231 ,  160 ,   51 ,   27 ,  244 
E: 000000.297954 64 01 85 81 82 7f 00 00 96 08 00 00 00 73 3a 2a eb f6 ff f0 ff 0b 00 3a 00 56 1f 37 05 22 23 11 cf 08 80 00 00 00 80 00 00 00 00 09 09 00 00 00 00 00 89 42 11 cf 28 08 00 f2 bf 42 e7 a0 33 1b f4
# ReportID: 1 / X:  132 | Y:  129 | Z:  130 | Rz:  127 | Rx:    0 | Ry:    0 | 0xff000020:  151 | Hat switch:   8 | Button: 0  0  0  0  0  0  0  0  0  0  0  0  0  0  0 | 0xff000021: 0 , 0 , 0 , 0 , 0 , 0 , 0 , 0 , 0 , 0 , 0 , 0 , 0 | 0xff000022:  116 ,   58 ,   42 ,  235 ,  248 ,  255 ,  239 ,  255 ,   11 ,    0 ,   64 ,    0 ,   90 ,   31 ,   57 ,    5 ,   21 ,   82 ,   17 ,  207 ,    8 ,  128 ,    0 ,    0 ,    0 ,  128 ,    0 ,    0 ,    0 ,    0 ,    9 ,    9 ,    0 ,    0 ,    0 ,    0 ,    0 ,  105 ,  113 ,   17 ,  207 ,   40 ,    8 ,    0 ,   39 ,    9 ,  212 ,  254 ,   23 ,   76 ,   95 ,   51 
E: 000000.301768 64 01 84 81 82 7f 00 00 97 08 00 00 00 74 3a 2a eb f8 ff ef ff 0b 00 40 00 5a 1f 39 05 15 52 11 cf 08 80 00 00 00 80 00 00 00 00 09 09 00 00 00 00 00 69 71 11 cf 28 08 00 27 09 d4 fe 17 4c 5f 33
# ReportID: 1 / X:  132 | Y:  129 | Z:  130 | Rz:  127 | Rx:    0 | Ry:    0 | 0xff000020:  152 | Hat switch:   8 | Button: 0  0  0  0  0  0  0  0  0  0  0  0  0  0  0 | 0xff000021: 0 , 0 , 0 , 0 , 0 , 0 , 0 , 0 , 0 , 0 , 0 , 0 , 0 | 0xff000022:  117 ,   58 ,   42 ,  235 ,  247 ,  255 ,  238 ,  255 ,   10 ,    0 ,   57 ,    0 ,   85 ,   31 ,   53 ,    5 ,    8 ,  129 ,   17 ,  207 ,    8 ,  128 ,    0 ,    0 ,    0 ,  128 ,    0 ,    0 ,    0 ,    0 ,    9 ,    9 ,    0 ,    0 ,    0 ,    0 ,    0 ,   73 ,  160 ,   17 ,  207 ,   40 ,    8 ,    0 ,  249 ,    4 ,  172 ,  148 ,   55 ,  215 ,  173 ,  187 
E: 000000.305795 64 01 84 81 82 7f 00 00 98 08 00 00 00 75 3a 2a eb f7 ff ee ff 0a 00 39 00 55 1f 35 05 08 81 11 cf 08 80 00 00 00 80 00 00 00 00 09 09 00 00 00 00 00 49 a0 11 cf 28 08 00 f9 04 ac 94 37 d7 ad bb
# ReportID: 1 / X:  132 | Y:  129 | Z:  129 | Rz:  127 | Rx:    0 | Ry:    0 | 0xff000020:  153 | Hat switch:   8 | Button: 0  0  0  0  0  0  0  0  0  0  0  0  0  0  0 | 0xff000021: 0 , 0 , 0 , 0 , 0 , 0 , 0 , 0 , 0 , 0 , 0 , 0 , 0 | 0xff000022:  118 ,   58 ,   42 ,  235 ,  246 ,  255 ,  238 ,  255 ,   11 ,    0 ,   55 ,    0 ,   97 ,   31 ,   58 ,    5 ,  252 ,  175 ,   17 ,  207 ,    8 ,  128 ,    0 ,    0 ,    0 ,  128 ,    0 ,    0 ,    0 ,    0 ,    9 ,    9 ,    0 ,    0 ,    0 ,    0 ,    0 ,   41 ,  207 ,   17 ,  207 ,   40 ,    8 ,    0 ,  159 ,   69 ,  145 ,    2 ,   41 ,    6 ,   27 ,  180 
E: 000000.311966 64 01 84 81 81 7f 00 00 99 08 00 00 00 76 3a 2a eb f6 ff ee ff 0b 00 37 00 61 1f 3a 05 fc af 11 cf 08 80 00 00 00 80 00 00 00 00 09 09 00 00 00 00 00 29 cf 11 cf 28 08 00 9f 45 91 02 29 06 1b b4
# ReportID: 1 / X:  132 | Y:  129 | Z:  130 | Rz:  127 | Rx:    0 | Ry:    0 | 0xff000020:  154 | Hat switch:   8 | Button: 0  0  0  0  0  0  0  0  0  0  0  0  0  0  0 | 0xff000021: 0 , 0 , 0 , 0 , 0 , 0 , 0 , 0 , 0 , 0 , 0 , 0 , 0 | 0xff000022:  119 ,   58 ,   42 ,  235 ,  247 ,  255 ,  238 ,  255 ,   11 ,    0 ,   54 ,    0 ,   88 ,   31 ,   59 ,    5 ,  239 ,  222 ,   17 ,  207 ,    8 ,  128 ,    0 ,    0 ,    0 ,  128 ,    0 ,    0 ,    0 ,    0 ,    9 ,    9 ,    0 ,    0 ,    0 ,    0 ,    0 ,    9 ,  254 ,   17 ,  207 ,   40 ,    8 ,    0 ,  236 ,   59 ,   47 ,   15 ,  232 ,  183 ,   76 ,  230 
E: 000000.313624 64 01 84 81 82 7f 00 00 9a 08 00 00 00 77 3a 2a eb f7 ff ee ff 0b 00 36 00 58 1f 3b 05 ef de 11 cf 08 80 00 00 00 80 00 00 00 00 09 09 00 00 00 00 00 09 fe 11 cf 28 08 00 ec 3b 2f 0f e8 b7 4c e6
# ReportID: 1 / X:  132 | Y:  129 | Z:  129 | Rz:  127 | Rx:    0 | Ry:    0 | 0xff000020:  155 | Hat switch:   8 | Button: 0  0  0  0  0  0  0  0  0  0  0  0  0  0  0 | 0xff000021: 0 , 0 , 0 , 0 , 0 , 0 , 0 , 0 , 0 , 0 , 0 , 0 , 0 | 0xff000022:  120 ,   58 ,   42 ,  235 ,  246 ,  255 ,  239 ,  255 ,   10 ,    0 ,   58 ,    0 ,   80 ,   31 ,   63 ,    5 ,  226 ,   13 ,   18 ,  207 ,    8 ,  128 ,    0 ,    0 ,    0 ,  128 ,    0 ,    0 ,    0 ,    0 ,    9 ,    9 ,    0 ,    0 ,    0 ,    0 ,    0 ,  233 ,   44 ,   18 ,  207 ,   40 ,    8 ,    0 ,   55 ,    8 ,  172 ,  118 ,   75 ,  196 ,  129 ,  143 
E: 000000.317814 64 01 84 81 81 7f 00 00 9b 08 00 00 00 78 3a 2a eb f6 ff ef ff 0a 00 3a 00 50 1f 3f 05 e2 0d 12 cf 08 80 00 00 00 80 00 00 00 00 09 09 00 00 00 00 00 e9 2c 12 cf 28 08 00 37 08 ac 76 4b c4 81 8f
# ReportID: 1 / X:  132 | Y:  129 | Z:  130 | Rz:  127 | Rx:    0 | Ry:    0 | 0xff000020:  156 | Hat switch:   8 | Button: 0  0  0  0  0  0  0  0  0  0  0  0  0  0  0 | 0xff000021: 0 , 0 , 0 , 0 , 0 , 0 , 0 , 0 , 0 , 0 , 0 , 0 , 0 | 0xff000022:  121 ,   58 ,   42 ,  235 ,  248 ,  255 ,  239 ,  255 ,   10 ,    0 ,   53 ,    0 ,   86 ,   31 ,   57 ,    5 ,  213 ,   60 ,   18 ,  207 ,    8 ,  128 ,    0 ,    0 ,    0 ,  128 ,    0 ,    0 ,    0 ,    0 ,    9 ,    9 ,    0 ,    0 ,    0 ,    0 ,    0 ,  201 ,   91 ,   18 ,  207 ,   40 ,    8 ,    0 ,  186 ,   23 ,  226 ,  234 ,  192 ,   26 ,   11 ,  103 
E: 000000.321753 64 01 84 81 82 7f 00 00 9c 08 00 00 00 79 3a 2a eb f8 ff ef ff 0a 00 35 00 56 1f 39 05 d5 3c 12 cf 08 80 00 00 00 80 00 00 00 00 09 09 00 00 00 00 00 c9 5b 12 cf 28 08 00 ba 17 e2 ea c0 1a 0b 67
# ReportID: 1 / X:  132 | Y:  129 | Z:  129 | Rz:  127 | Rx:    0 | Ry:    0 | 0xff000020:  157 | Hat switch:   8 | Button: 0  0  0  0  0  0  0  0  0  0  0  0  0  0  0 | 0xff000021: 0 , 0 , 0 , 0 , 0 , 0 , 0 , 0 , 0 , 0 , 0 , 0 , 0 | 0xff000022:  122 ,   58 ,   42 ,  235 ,  247 ,  255 ,  238 ,  255 ,    9 ,    0 ,   58 ,    0 ,   83 ,   31 ,   64 ,    5 ,  200 ,  107 ,   18 ,  207 ,    8 ,  128 ,    0 ,    0 ,    0 ,  128 ,    0 ,    0 ,    0 ,    0 ,    9 ,    9 ,    0 ,    0 ,    0 ,    0 ,    0 ,  169 ,  138 ,   18 ,  207 ,   40 ,    8 ,    0 ,  141 ,  107 ,  183 ,    6 ,  125 ,   72 ,  119 ,   34 
E: 000000.326136 64 01 84 81 81 7f 00 00 9d 08 00 00 00 7a 3a 2a eb f7 ff ee ff 09 00 3a 00 53 1f 40 05 c8 6b 12 cf 08 80 00 00 00 80 00 00 00 00 09 09 00 00 00 00 00 a9 8a 12 cf 28 08 00 8d 6b b7 06 7d 48 77 22
# ReportID: 1 / X:  132 | Y:  129 | Z:  130 | Rz:  127 | Rx:    0 | Ry:    0 | 0xff000020:  158 | Hat switch:   8 | Button: 0  0  0  0  0  0  0  0  0  0  0  0  0  0  0 | 0xff000021: 0 , 0 , 0 , 0 , 0 , 0 , 0 , 0 , 0 , 0 , 0 , 0 , 0 | 0xff000022:  123 ,   58 ,   42 ,  235 ,  247 ,  255 ,  239 ,  255 ,   11 ,    0 ,   55 ,    0 ,   85 ,   31 ,   52 ,    5 ,  187 ,  154 ,   18 ,  207 ,    8 ,  128 ,    0 ,    0 ,    0 ,  128 ,    0 ,    0 ,    0 ,    0 ,    9 ,    9 ,    0 ,    0 ,    0 ,    0 ,    0 ,  137 ,  185 ,   18 ,  207 ,   40 ,    8 ,    0 ,   94 ,   74 ,  217 ,   48 ,   19 ,    5 ,   40 ,  169 
E: 000000.329758 64 01 84 81 82 7f 00 00 9e 08 00 00 00 7b 3a 2a eb f7 ff ef ff 0b 00 37 00 55 1f 34 05 bb 9a 12 cf 08 80 00 00 00 80 00 00 00 00 09 09 00 00 00 00 00 89 b9 12 cf 28 08 00 5e 4a d9 30 13 05 28 a9
# ReportID: 1 / X:  133 | Y:  129 | Z:  130 | Rz:  127 | Rx:    0 | Ry:    0 | 0xff000020:  159 | Hat switch:   8 | Button: 0  0  0  0  0  0  0  0  0  0  0  0  0  0  0 | 0xff000021: 0 , 0 , 0 , 0 , 0 , 0 , 0 , 0 , 0 , 0 , 0 , 0 , 0 | 0xff000022:  124 ,   58 ,   42 ,  235 ,  247 ,  255 ,  238 ,  255 ,   10 ,    0 ,   51 ,    0 ,   95 ,   31 ,   59 ,    5 ,  175 ,  201 ,   18 ,  207 ,    8 ,  128 ,    0 ,    0 ,    0 ,  128 ,    0 ,    0 ,    0 ,    0 ,    9 ,    9 ,    0 ,    0 ,    0 ,    0 ,    0 ,  105 ,  232 ,   18 ,  207 ,   40 ,    8 ,    0 ,  141 ,  187 ,  227 ,   58 ,  223 ,  222 ,  186 ,   85 
E: 000000.333923 64 01 85 81 82 7f 00 00 9f 08 00 00 00 7c 3a 2a eb f7 ff ee ff 0a 00 33 00 5f 1f 3b 05 af c9 12 cf 08 80 00 00 00 80 00 00 00 00 09 09 00 00 00 00 00 69 e8 12 cf 28 08 00 8d bb e3 3a df de ba 55
# ReportID: 1 / X:  132 | Y:  129 | Z:  130 | Rz:  127 | Rx:    0 | Ry:    0 | 0xff000020:  160 | Hat switch:   8 | Button: 0  0  0  0  0  0  0  0  0  0  0  0  0  0  0 | 0xff000021: 0 , 0 , 0 , 0 , 0 , 0 , 0 , 0 , 0 , 0 , 0 , 0 , 0 | 0xff000022:  125 ,   58 ,   42 ,  235 ,  247 ,  255 ,  238 ,  255 ,   10 ,    0 ,   42 ,    0 ,   96 ,   31 ,   57 ,    5 ,  162 ,  248 ,   18 ,  207 ,    8 ,  128 ,    0 ,    0 ,    0 ,  128 ,    0 ,    0 ,    0 ,    0 ,    9 ,    9 ,    0 ,    0 ,    0 ,    0 ,    0 ,   73 ,   23 ,   19 ,  207 ,   40 ,    8 ,    0 ,  149 ,   40 ,  226 ,   70 ,  223 ,    8 ,  189 ,  168 
E: 000000.337783 64 01 84 81 82 7f 00 00 a0 08 00 00 00 7d 3a 2a eb f7 ff ee ff 0a 00 2a 00 60 1f 39 05 a2 f8 12 cf 08 80 00 00 00 80 00 00 00 00 09 09 00 00 00 00 00 49 17 13 cf 28 08 00 95 28 e2 46 df 08 bd a8
# ReportID: 1 / X:  132 | Y:  129 | Z:  130 | Rz:  127 | Rx:    0 | Ry:    0 | 0xff000020:  161 | Hat switch:   8 | Button: 0  0  0  0  0  0  0  0  0  0  0  0  0  0  0 | 0xff000021: 0 , 0 , 0 , 0 , 0 , 0 , 0 , 0 , 0 , 0 , 0 , 0 , 0 | 0xff000022:  126 ,   58 ,   42 ,  235 ,  246 ,  255 ,  239 ,  255 ,   11 ,    0 ,   51 ,    0 ,   85 ,   31 ,   62 ,    5 ,  148 ,   39 ,   19 ,  207 ,    8 ,  128 ,    0 ,    0 ,    0 ,  128 ,    0 ,    0 ,    0 ,    0 ,    9 ,    9 ,    0 ,    0 ,    0 ,    0 ,    0 ,   41 ,   70 ,   19 ,  207 ,   40 ,    8 ,    0 ,   80 ,  119 ,  136 ,  154 ,  101 ,  250 ,  103 ,  221 
E: 000000.343980 64 01 84 81 82 7f 00 00 a1 08 00 00 00 7e 3a 2a eb f6 ff ef ff 0b 00 33 00 55 1f 3e 05 94 27 13 cf 08 80 00 00 00 80 00 00 00 00 09 09 00 00 00 00 00 29 46 13 cf 28 08 00 50 77 88 9a 65 fa 67 dd
# ReportID: 1 / X:  132 | Y:  129 | Z:  129 | Rz:  127 | Rx:    0 | Ry:    0 | 0xff000020:  162 | Hat switch:   8 | Button: 0  0  0  0  0  0  0  0  0  0  0  0  0  0  0 | 0xff000021: 0 , 0 , 0 , 0 , 0 , 0 , 0 , 0 , 0 , 0 , 0 , 0 , 0 | 0xff000022:  127 ,   58 ,   42 ,  235 ,  247 ,  255 ,  239 ,  255 ,   11 ,    0 ,   45 ,    0 ,   81 ,   31 ,   54 ,    5 ,  135 ,   86 ,   19 ,  207 ,    8 ,  128 ,    0 ,    0 ,    0 ,  128 ,    0 ,    0 ,    0 ,    0 ,    9 ,    9 ,    0 ,    0 ,    0 ,    0 ,    0 ,    9 ,  117 ,   19 ,  207 ,   40 ,    8 ,    0 ,  225 ,  176 ,  187 ,  136 ,  153 ,  229 ,  218 ,   19 
E: 000000.345631 64 01 84 81 81 7f 00 00 a2 08 00 00 00 7f 3a 2a eb f7 ff ef ff 0b 00 2d 00 51 1f 36 05 87 56 13 cf 08 80 00 00 00 80 00 00 00 00 09 09 00 00 00 00 00 09 75 13 cf 28 08 00 e1 b0 bb 88 99 e5 da 13
# ReportID: 1 / X:  131 | Y:  129 | Z:  129 | Rz:  127 | Rx:    0 | Ry:    0 | 0xff000020:  163 | Hat switch:   8 | Button: 0  0  0  0  0  0  0  0  0  0  0  0  0  0  0 | 0xff000021: 0 , 0 , 0 , 0 , 0 , 0 , 0 , 0 , 0 , 0 , 0 , 0 , 0 | 0xff000022:  128 ,   58 ,   42 ,  235 ,  247 ,  255 ,  239 ,  255 ,   10 ,    0 ,   55 ,    0 ,   86 ,   31 ,   50 ,    5 ,  122 ,  133 ,   19 ,  207 ,    8 ,  128 ,    0 ,    0 ,    0 ,  128 ,    0 ,    0 ,    0 ,    0 ,    9 ,    9 ,    0 ,    0 ,    0 ,    0 ,    0 ,  233 ,  163 ,   19 ,  207 ,   40 ,    8 ,    0 ,  208 ,  212 ,  174 ,   77 ,  141 ,  154 ,   88 ,   44 
E: 000000.349899 64 01 83 81 81 7f 00 00 a3 08 00 00 00 80 3a 2a eb f7 ff ef ff 0a 00 37 00 56 1f 32 05 7a 85 13 cf 08 80 00 00 00 80 00 00 00 00 09 09 00 00 00 00 00 e9 a3 13 cf 28 08 00 d0 d4 ae 4d 8d 9a 58 2c
# ReportID: 1 / X:  131 | Y:  129 | Z:  129 | Rz:  127 | Rx:    0 | Ry:    0 | 0xff000020:  164 | Hat switch:   8 | Button: 0  0  0  0  0  0  0  0  0  0  0  0  0  0  0 | 0xff000021: 0 , 0 , 0 , 0 , 0 , 0 , 0 , 0 , 0 , 0 , 0 , 0 , 0 | 0xff000022:  129 ,   58 ,   42 ,  235 ,  246 ,  255 ,  239 ,  255 ,   10 ,    0 ,   55 ,    0 ,   81 ,   31 ,   47 ,    5 ,  109 ,  180 ,   19 ,  207 ,    8 ,  128 ,    0 ,    0 ,    0 ,  128 ,    0 ,    0 ,    0 ,    0 ,    9 ,    9 ,    0 ,    0 ,    0 ,    0 ,    0 ,  201 ,  210 ,   19 ,  207 ,   40 ,    8 ,    0 ,  165 ,    6 ,  199 ,   75 ,  154 ,   75 ,  135 ,  144 
E: 000000.354168 64 01 83 81 81 7f 00 00 a4 08 00 00 00 81 3a 2a eb f6 ff ef ff 0a 00 37 00 51 1f 2f 05 6d b4 13 cf 08 80 00 00 00 80 00 00 00 00 09 09 00 00 00 00 00 c9 d2 13 cf 28 08 00 a5 06 c7 4b 9a 4b 87 90
# ReportID: 1 / X:  130 | Y:  129 | Z:  130 | Rz:  127 | Rx:    0 | Ry:    0 | 0xff000020:  165 | Hat switch:   8 | Button: 0  0  0  0  0  0  0  0  0  0  0  0  0  0  0 | 0xff000021: 0 , 0 , 0 , 0 , 0 , 0 , 0 , 0 , 0 , 0 , 0 , 0 , 0 | 0xff000022:  130 ,   58 ,   42 ,  235 ,  246 ,  255 ,  239 ,  255 ,   10 ,    0 ,   52 ,    0 ,   84 ,   31 ,   57 ,    5 ,   96 ,  227 ,   19 ,  207 ,    8 ,  128 ,    0 ,    0 ,    0 ,  128 ,    0 ,    0 ,    0 ,    0 ,    9 ,    9 ,    0 ,    0 ,    0 ,    0 ,    0 ,  169 ,    1 ,   20 ,  207 ,   40 ,    8 ,    0 ,  213 ,   26 ,  157 ,   16 ,  247 ,  169 ,    8 ,  204 
E: 000000.357830 64 01 82 81 82 7f 00 00 a5 08 00 00 00 82 3a 2a eb f6 ff ef ff 0a 00 34 00 54 1f 39 05 60 e3 13 cf 08 80 00 00 00 80 00 00 00 00 09 09 00 00 00 00 00 a9 01 14 cf 28 08 00 d5 1a 9d 10 f7 a9 08 cc
# ReportID: 1 / X:  130 | Y:  129 | Z:  129 | Rz:  127 | Rx:    0 | Ry:    0 | 0xff000020:  166 | Hat switch:   8 | Button: 0  0  0  0  0  0  0  0  0  0  0  0  0  0  0 | 0xff000021: 0 , 0 , 0 , 0 , 0 , 0 , 0 , 0 , 0 , 0 , 0 , 0 , 0 | 0xff000022:  131 ,   58 ,   42 ,  235 ,  247 ,  255 ,  239 ,  255 ,   10 ,    0 ,   60 ,    0 ,   85 ,   31 ,   48 ,    5 ,   83 ,   18 ,   20 ,  207 ,    8 ,  128 ,    0 ,    0 ,    0 ,  128 ,    0 ,    0 ,    0 ,    0 ,    9 ,    9 ,    0 ,    0 ,    0 ,    0 ,    0 ,  137 ,   48 ,   20 ,  207 ,   40 ,    8 ,    0 ,  247 ,   41 ,  225 ,    4 ,   59 ,   80 ,  115 ,  227 
E: 000000.361801 64 01 82 81 81 7f 00 00 a6 08 00 00 00 83 3a 2a eb f7 ff ef ff 0a 00 3c 00 55 1f 30 05 53 12 14 cf 08 80 00 00 00 80 00 00 00 00 09 09 00 00 00 00 00 89 30 14 cf 28 08 00 f7 29 e1 04 3b 50 73 e3
# ReportID: 1 / X:  129 | Y:  129 | Z:  130 | Rz:  127 | Rx:    0 | Ry:    0 | 0xff000020:  167 | Hat switch:   8 | Button: 0  0  0  0  0  0  0  0  0  0  0  0  0  0  0 | 0xff000021: 0 , 0 , 0 , 0 , 0 , 0 , 0 , 0 , 0 , 0 , 0 , 0 , 0 | 0xff000022:  132 ,   58 ,   42 ,  235 ,  247 ,  255 ,  238 ,  255 ,   10 ,    0 ,   60 ,    0 ,   90 ,   31 ,   48 ,    5 ,   70 ,   65 ,   20 ,  207 ,    8 ,  128 ,    0 ,    0 ,    0 ,  128 ,    0 ,    0 ,    0 ,    0 ,    9 ,    9 ,    0 ,    0 ,    0 ,    0 ,    0 ,  105 ,   95 ,   20 ,  207 ,   40 ,    8 ,    0 ,  169 ,  118 ,  254 ,  252 ,  191 ,  163 ,   87 ,   23 
E: 000000.365847 64 01 81 81 82 7f 00 00 a7 08 00 00 00 84 3a 2a eb f7 ff ee ff 0a 00 3c 00 5a 1f 30 05 46 41 14 cf 08 80 00 00 00 80 00 00 00 00 09 09 00 00 00 00 00 69 5f 14 cf 28 08 00 a9 76 fe fc bf a3 57 17
# ReportID: 1 / X:  130 | Y:  129 | Z:  130 | Rz:  127 | Rx:    0 | Ry:    0 | 0xff000020:  168 | Hat switch:   8 | Button: 0  0  0  0  0  0  0  0  0  0  0  0  0  0  0 | 0xff000021: 0 , 0 , 0 , 0 , 0 , 0 , 0 , 0 , 0 , 0 , 0 , 0 , 0 | 0xff000022:  133 ,   58 ,   42 ,  235 ,  247 ,  255 ,  238 ,  255 ,   11 ,    0 ,   59 ,    0 ,  101 ,   31 ,   59 ,    5 ,   57 ,  112 ,   20 ,  207 ,    8 ,  128 ,    0 ,    0 ,    0 ,  128 ,    0 ,    0 ,    0 ,    0 ,    9 ,    9 ,    0 ,    0 ,    0 ,    0 ,    0 ,   73 ,  142 ,   20 ,  207 ,   40 ,    8 ,    0 ,   45 ,  124 ,   29 ,   78 ,  104 ,   66 ,  164 ,   39 
E: 000000.371191 64 01 82 81 82 7f 00 00 a8 08 00 00 00 85 3a 2a eb f7 ff ee ff 0b 00 3b 00 65 1f 3b 05 39 70 14 cf 08 80 00 00 00 80 00 00 00 00 09 09 00 00 00 00 00 49 8e 14 cf 28 08 00 2d 7c 1d 4e 68 42 a4 27
# ReportID: 1 / X:  129 | Y:  129 | Z:  130 | Rz:  127 | Rx:    0 | Ry:    0 | 0xff000020:  169 | Hat switch:   8 | Button: 0  0  0  0  0  0  0  0  0  0  0  0  0  0  0 | 0xff000021: 0 , 0 , 0 , 0 , 0 , 0 , 0 , 0 , 0 , 0 , 0 , 0 , 0 | 0xff000022:  134 ,   58 ,   42 ,  235 ,  246 ,  255 ,  238 ,  255 ,   11 ,    0 ,   58 ,    0 ,   99 ,   31 ,   57 ,    5 ,   45 ,  159 ,   20 ,  207 ,    8 ,  128 ,    0 ,    0 ,    0 ,  128 ,    0 ,    0 ,    0 ,    0 ,    9 ,    9 ,    0 ,    0 ,    0 ,    0 ,    0 ,   41 ,  189 ,   20 ,  207 ,   40 ,    8 ,    0 ,   14 ,  161 ,  169 ,  146 ,   33 ,   20 ,   74 ,  111 
E: 000000.375241 64 01 81 81 82 7f 00 00 a9 08 00 00 00 86 3a 2a eb f6 ff ee ff 0b 00 3a 00 63 1f 39 05 2d 9f 14 cf 08 80 00 00 00 80 00 00 00 00 09 09 00 00 00 00 00 29 bd 14 cf 28 08 00 0e a1 a9 92 21 14 4a 6f
# ReportID: 1 / X:  129 | Y:  129 | Z:  130 | Rz:  127 | Rx:    0 | Ry:    0 | 0xff000020:  170 | Hat switch:   8 | Button: 0  0  0  0  0  0  0  0  0  0  0  0  0  0  0 | 0xff000021: 0 , 0 , 0 , 0 , 0 , 0 , 0 , 0 , 0 , 0 , 0 , 0 , 0 | 0xff000022:  135 ,   58 ,   42 ,  235 ,  247 ,  255 ,  238 ,  255 ,   10 ,    0 ,   55 ,    0 ,   94 ,   31 ,   43 ,    5 ,   32 ,  206 ,   20 ,  207 ,    8 ,  128 ,    0 ,    0 ,    0 ,  128 ,    0 ,    0 ,    0 ,    0 ,    9 ,    9 ,    0 ,    0 ,    0 ,    0 ,    0 ,    9 ,  236 ,   20 ,  207 ,   40 ,    8 ,    0 ,  244 ,  101 ,  230 ,   49 ,  187 ,  232 ,    7 ,  245 
E: 000000.378347 64 01 81 81 82 7f 00 00 aa 08 00 00 00 87 3a 2a eb f7 ff ee ff 0a 00 37 00 5e 1f 2b 05 20 ce 14 cf 08 80 00 00 00 80 00 00 00 00 09 09 00 00 00 00 00 09 ec 14 cf 28 08 00 f4 65 e6 31 bb e8 07 f5
# ReportID: 1 / X:  129 | Y:  130 | Z:  129 | Rz:  127 | Rx:    0 | Ry:    0 | 0xff000020:  171 | Hat switch:   8 | Button: 0  0  0  0  0  0  0  0  0  0  0  0  0  0  0 | 0xff000021: 0 , 0 , 0 , 0 , 0 , 0 , 0 , 0 , 0 , 0 , 0 , 0 , 0 | 0xff000022:  136 ,   58 ,   42 ,  235 ,  246 ,  255 ,  238 ,  255 ,    9 ,    0 ,   66 ,    0 ,   86 ,   31 ,   52 ,    5 ,   19 ,  253 ,   20 ,  207 ,    8 ,  128 ,    0 ,    0 ,    0 ,  128 ,    0 ,    0 ,    0 ,    0 ,    9 ,    9 ,    0 ,    0 ,    0 ,    0 ,    0 ,  233 ,   26 ,   21 ,  207 ,   40 ,    8 ,    0 ,   87 ,  122 ,   58 ,  148 ,  105 ,   85 ,   16 ,  244 
E: 000000.381789 64 01 81 82 81 7f 00 00 ab 08 00 00 00 88 3a 2a eb f6 ff ee ff 09 00 42 00 56 1f 34 05 13 fd 14 cf 08 80 00 00 00 80 00 00 00 00 09 09 00 00 00 00 00 e9 1a 15 cf 28 08 00 57 7a 3a 94 69 55 10 f4
# ReportID: 1 / X:  129 | Y:  130 | Z:  130 | Rz:  127 | Rx:    0 | Ry:    0 | 0xff000020:  172 | Hat switch:   8 | Button: 0  0  0  0  0  0  0  0  0  0  0  0  0  0  0 | 0xff000021: 0 , 0 , 0 , 0 , 0 , 0 , 0 , 0 , 0 , 0 , 0 , 0 , 0 | 0xff000022:  137 ,   58 ,   42 ,  235 ,  246 ,  255 ,  237 ,  255 ,   10 ,    0 ,   69 ,    0 ,   89 ,   31 ,   46 ,    5 ,    6 ,   44 ,   21 ,  207 ,    8 ,  128 ,    0 ,    0 ,    0 ,  128 ,    0 ,    0 ,    0 ,    0 ,    9 ,    9 ,    0 ,    0 ,    0 ,    0 ,    0 ,  201 ,   73 ,   21 ,  207 ,   40 ,    8 ,    0 ,  202 ,   95 ,   60 ,  111 ,  120 ,  179 ,  220 ,   35 
E: 000000.385759 64 01 81 82 82 7f 00 00 ac 08 00 00 00 89 3a 2a eb f6 ff ed ff 0a 00 45 00 59 1f 2e 05 06 2c 15 cf 08 80 00 00 00 80 00 00 00 00 09 09 00 00 00 00 00 c9 49 15 cf 28 08 00 ca 5f 3c 6f 78 b3 dc 23
# ReportID: 1 / X:  129 | Y:  130 | Z:  130 | Rz:  127 | Rx:    0 | Ry:    0 | 0xff000020:  173 | Hat switch:   8 | Button: 0  0  0  0  0  0  0  0  0  0  0  0  0  0  0 | 0xff000021: 0 , 0 , 0 , 0 , 0 , 0 , 0 , 0 , 0 , 0 , 0 , 0 , 0 | 0xff000022:  138 ,   58 ,   42 ,  235 ,  247 ,  255 ,  237 ,  255 ,   11 ,    0 ,   56 ,    0 ,  102 ,   31 ,   25 ,    5 ,  249 ,   90 ,   21 ,  207 ,    8 ,  128 ,    0 ,    0 ,    0 ,  128 ,    0 ,    0 ,    0 ,    0 ,    9 ,    9 ,    0 ,    0 ,    0 ,    0 ,    0 ,  169 ,  120 ,   21 ,  207 ,   40 ,    8 ,    0 ,   80 ,  121 ,   17 ,  255 ,  119 ,  210 ,   39 ,  208 
E: 000000.389898 64 01 81 82 82 7f 00 00 ad 08 00 00 00 8a 3a 2a eb f7 ff ed ff 0b 00 38 00 66 1f 19 05 f9 5a 15 cf 08 80 00 00 00 80 00 00 00 00 09 09 00 00 00 00 00 a9 78 15 cf 28 08 00 50 79 11 ff 77 d2 27 d0
# ReportID: 1 / X:  129 | Y:  130 | Z:  130 | Rz:  127 | Rx:    0 | Ry:    0 | 0xff000020:  174 | Hat switch:   8 | Button: 0  0  0  0  0  0  0  0  0  0  0  0  0  0  0 | 0xff000021: 0 , 0 , 0 , 0 , 0 , 0 , 0 , 0 , 0 , 0 , 0 , 0 , 0 | 0xff000022:  139 ,   58 ,   42 ,  235 ,  246 ,  255 ,  237 ,  255 ,   10 ,    0 ,   39 ,    0 ,   97 ,   31 ,   19 ,    5 ,  236 ,  137 ,   21 ,  207 ,    8 ,  128 ,    0 ,    0 ,    0 ,  128 ,    0 ,    0 ,    0 ,    0 ,    9 ,    9 ,    0 ,    0 ,    0 ,    0 ,    0 ,  137 ,  167 ,   21 ,  207 ,   40 ,    8 ,    0 ,   45 ,  132 ,   21 ,  104 ,  102 ,  185 ,  175 ,  200 
E: 000000.394104 64 01 81 82 82 7f 00 00 ae 08 00 00 00 8b 3a 2a eb f6 ff ed ff 0a 00 27 00 61 1f 13 05 ec 89 15 cf 08 80 00 00 00 80 00 00 00 00 09 09 00 00 00 00 00 89 a7 15 cf 28 08 00 2d 84 15 68 66 b9 af c8
# ReportID: 1 / X:  130 | Y:  130 | Z:  129 | Rz:  127 | Rx:    0 | Ry:    0 | 0xff000020:  175 | Hat switch:   8 | Button: 0  0  0  0  0  0  0  0  0  0  0  0  0  0  0 | 0xff000021: 0 , 0 , 0 , 0 , 0 , 0 , 0 , 0 , 0 , 0 , 0 , 0 , 0 | 0xff000022:  140 ,   58 ,   42 ,  235 ,  247 ,  255 ,  237 ,  255 ,   11 ,    0 ,   47 ,    0 ,   94 ,   31 ,   21 ,    5 ,  223 ,  184 ,   21 ,  207 ,    8 ,  128 ,    0 ,    0 ,    0 ,  128 ,    0 ,    0 ,    0 ,    0 ,    9 ,    9 ,    0 ,    0 ,    0 ,    0 ,    0 ,  105 ,  214 ,   21 ,  207 ,   40 ,    8 ,    0 ,  180 ,  197 ,  215 ,  120 ,  106 ,  252 ,  125 ,   16 
E: 000000.398008 64 01 82 82 81 7f 00 00 af 08 00 00 00 8c 3a 2a eb f7 ff ed ff 0b 00 2f 00 5e 1f 15 05 df b8 15 cf 08 80 00 00 00 80 00 00 00 00 09 09 00 00 00 00 00 69 d6 15 cf 28 08 00 b4 c5 d7 78 6a fc 7d 10
# ReportID: 1 / X:  130 | Y:  130 | Z:  130 | Rz:  127 | Rx:    0 | Ry:    0 | 0xff000020:  176 | Hat switch:   8 | Button: 0  0  0  0  0  0  0  0  0  0  0  0  0  0  0 | 0xff000021: 0 , 0 , 0 , 0 , 0 , 0 , 0 , 0 , 0 , 0 , 0 , 0 , 0 | 0xff000022:  141 ,   58 ,   42 ,  235 ,  245 ,  255 ,  239 ,  255 ,   10 ,    0 ,   41 ,    0 ,   85 ,   31 ,   30 ,    5 ,  210 ,  231 ,   21 ,  207 ,    8 ,  128 ,    0 ,    0 ,    0 ,  128 ,    0 ,    0 ,    0 ,    0 ,    9 ,    9 ,    0 ,    0 ,    0 ,    0 ,    0 ,   73 ,    5 ,   22 ,  207 ,   40 ,    8 ,    0 ,   96 ,   64 ,  140 ,  153 ,  127 ,  210 ,  165 ,  198 
E: 000000.403226 64 01 82 82 82 7f 00 00 b0 08 00 00 00 8d 3a 2a eb f5 ff ef ff 0a 00 29 00 55 1f 1e 05 d2 e7 15 cf 08 80 00 00 00 80 00 00 00 00 09 09 00 00 00 00 00 49 05 16 cf 28 08 00 60 40 8c 99 7f d2 a5 c6
# ReportID: 1 / X:  130 | Y:  130 | Z:  129 | Rz:  127 | Rx:    0 | Ry:    0 | 0xff000020:  177 | Hat switch:   8 | Button: 0  0  0  0  0  0  0  0  0  0  0  0  0  0  0 | 0xff000021: 0 , 0 , 0 , 0 , 0 , 0 , 0 , 0 , 0 , 0 , 0 , 0 , 0 | 0xff000022:  142 ,   58 ,   42 ,  235 ,  245 ,  255 ,  239 ,  255 ,   11 ,    0 ,   60 ,    0 ,   94 ,   31 ,   47 ,    5 ,  197 ,   22 ,   22 ,  207 ,    8 ,  128 ,    0 ,    0 ,    0 ,  128 ,    0 ,    0 ,    0 ,    0 ,    9 ,    9 ,    0 ,    0 ,    0 ,    0 ,    0 ,   41 ,   52 ,   22 ,  207 ,   40 ,    8 ,    0 ,  103 ,  140 ,  156 ,  112 ,  170 ,   10 ,  189 ,   99 
E: 000000.406329 64 01 82 82 81 7f 00 00 b1 08 00 00 00 8e 3a 2a eb f5 ff ef ff 0b 00 3c 00 5e 1f 2f 05 c5 16 16 cf 08 80 00 00 00 80 00 00 00 00 09 09 00 00 00 00 00 29 34 16 cf 28 08 00 67 8c 9c 70 aa 0a bd 63
# ReportID: 1 / X:  130 | Y:  130 | Z:  130 | Rz:  127 | Rx:    0 | Ry:    0 | 0xff000020:  178 | Hat switch:   8 | Button: 0  0  0  0  0  0  0  0  0  0  0  0  0  0  0 | 0xff000021: 0 , 0 , 0 , 0 , 0 , 0 , 0 , 0 , 0 , 0 , 0 , 0 , 0 | 0xff000022:  143 ,   58 ,   42 ,  235 ,  247 ,  255 ,  238 ,  255 ,   10 ,    0 ,   58 ,    0 ,   94 ,   31 ,   51 ,    5 ,  184 ,   69 ,   22 ,  207 ,    8 ,  128 ,    0 ,    0 ,    0 ,  128 ,    0 ,    0 ,    0 ,    0 ,    9 ,    9 ,    0 ,    0 ,    0 ,    0 ,    0 ,    9 ,   99 ,   22 ,  207 ,   40 ,    8 ,    0 ,  128 ,  114 ,   33 ,  138 ,  238 ,   77 ,   49 ,  203 
E: 000000.410156 64 01 82 82 82 7f 00 00 b2 08 00 00 00 8f 3a 2a eb f7 ff ee ff 0a 00 3a 00 5e 1f 33 05 b8 45 16 cf 08 80 00 00 00 80 00 00 00 00 09 09 00 00 00 00 00 09 63 16 cf 28 08 00 80 72 21 8a ee 4d 31 cb
# ReportID: 1 / X:  130 | Y:  130 | Z:  129 | Rz:  127 | Rx:    0 | Ry:    0 | 0xff000020:  179 | Hat switch:   8 | Button: 0  0  0  0  0  0  0  0  0  0  0  0  0  0  0 | 0xff000021: 0 , 0 , 0 , 0 , 0 , 0 , 0 , 0 , 0 , 0 , 0 , 0 , 0 | 0xff000022:  144 ,   58 ,   42 ,  235 ,  247 ,  255 ,  238 ,  255 ,    9 ,    0 ,   51 ,    0 ,   92 ,   31 ,   53 ,    5 ,  171 ,  116 ,   22 ,  207 ,    8 ,  128 ,    0 ,    0 ,    0 ,  128 ,    0 ,    0 ,    0 ,    0 ,    9 ,    9 ,    0 ,    0 ,    0 ,    0 ,    0 ,  233 ,  145 ,   22 ,  207 ,   40 ,    8 ,    0 ,   34 ,  188 ,   98 ,  115 ,  253 ,  202 ,   81 ,  145 
E: 000000.413932 64 01 82 82 81 7f 00 00 b3 08 00 00 00 90 3a 2a eb f7 ff ee ff 09 00 33 00 5c 1f 35 05 ab 74 16 cf 08 80 00 00 00 80 00 00 00 00 09 09 00 00 00 00 00 e9 91 16 cf 28 08 00 22 bc 62 73 fd ca 51 91
# ReportID: 1 / X:  130 | Y:  130 | Z:  130 | Rz:  127 | Rx:    0 | Ry:    0 | 0xff000020:  180 | Hat switch:   8 | Button: 0  0  0  0  0  0  0  0  0  0  0  0  0  0  0 | 0xff000021: 0 , 0 , 0 , 0 , 0 , 0 , 0 , 0 , 0 , 0 , 0 , 0 , 0 | 0xff000022:  145 ,   58 ,   42 ,  235 ,  246 ,  255 ,  237 ,  255 ,   10 ,    0 ,   49 ,    0 ,   89 ,   31 ,   60 ,    5 ,  158 ,  163 ,   22 ,  207 ,    8 ,  128 ,    0 ,    0 ,    0 ,  128 ,    0 ,    0 ,    0 ,    0 ,    9 ,    9 ,    0 ,    0 ,    0 ,    0 ,    0 ,  201 ,  192 ,   22 ,  207 ,   40 ,    8 ,    0 ,   83 ,  117 ,  106 ,   95 ,  130 ,  154 ,   78 ,   55 
E: 000000.419556 64 01 82 82 82 7f 00 00 b4 08 00 00 00 91 3a 2a eb f6 ff ed ff 0a 00 31 00 59 1f 3c 05 9e a3 16 cf 08 80 00 00 00 80 00 00 00 00 09 09 00 00 00 00 00 c9 c0 16 cf 28 08 00 53 75 6a 5f 82 9a 4e 37
# ReportID: 1 / X:  130 | Y:  130 | Z:  130 | Rz:  127 | Rx:    0 | Ry:    0 | 0xff000020:  181 | Hat switch:   8 | Button: 0  0  0  0  0  0  0  0  0  0  0  0  0  0  0 | 0xff000021: 0 , 0 , 0 , 0 , 0 , 0 , 0 , 0 , 0 , 0 , 0 , 0 , 0 | 0xff000022:  146 ,   58 ,   42 ,  235 ,  246 ,  255 ,  238 ,  255 ,    9 ,    0 ,   51 ,    0 ,   84 ,   31 ,   62 ,    5 ,  145 ,  210 ,   22 ,  207 ,    8 ,  128 ,    0 ,    0 ,    0 ,  128 ,    0 ,    0 ,    0 ,    0 ,    9 ,    9 ,    0 ,    0 ,    0 ,    0 ,    0 ,  169 ,  239 ,   22 ,  207 ,   40 ,    8 ,    0 ,  195 ,   56 ,  196 ,   44 ,  186 ,  212 ,  218 ,   12 
E: 000000.423136 64 01 82 82 82 7f 00 00 b5 08 00 00 00 92 3a 2a eb f6 ff ee ff 09 00 33 00 54 1f 3e 05 91 d2 16 cf 08 80 00 00 00 80 00 00 00 00 09 09 00 00 00 00 00 a9 ef 16 cf 28 08 00 c3 38 c4 2c ba d4 da 0c
# ReportID: 1 / X:  130 | Y:  130 | Z:  130 | Rz:  127 | Rx:    0 | Ry:    0 | 0xff000020:  182 | Hat switch:   8 | Button: 0  0  0  0  0  0  0  0  0  0  0  0  0  0  0 | 0xff000021: 0 , 0 , 0 , 0 , 0 , 0 , 0 , 0 , 0 , 0 , 0 , 0 , 0 | 0xff000022:  147 ,   58 ,   42 ,  235 ,  245 ,  255 ,  239 ,  255 ,    9 ,    0 ,   48 ,    0 ,   82 ,   31 ,   66 ,    5 ,  132 ,    1 ,   23 ,  207 ,    8 ,  128 ,    0 ,    0 ,    0 ,  128 ,    0 ,    0 ,    0 ,    0 ,    9 ,    9 ,    0 ,    0 ,    0 ,    0 ,    0 ,  137 ,   30 ,   23 ,  207 ,   40 ,    8 ,    0 ,  167 ,  183 ,  205 ,  138 ,  112 ,  208 ,  174 ,  175 
E: 000000.427223 64 01 82 82 82 7f 00 00 b6 08 00 00 00 93 3a 2a eb f5 ff ef ff 09 00 30 00 52 1f 42 05 84 01 17 cf 08 80 00 00 00 80 00 00 00 00 09 09 00 00 00 00 00 89 1e 17 cf 28 08 00 a7 b7 cd 8a 70 d0 ae af
