# Sony Interactive Entertainment DualSense Wireless Controller
# 0x05, 0x01,                    // Usage Page (Generic Desktop)        0
# 0x09, 0x05,                    // Usage (Game Pad)                    2
# 0xa1, 0x01,                    // Collection (Application)            4
# 0x85, 0x01,                    //  Report ID (1)                      6
# 0x09, 0x30,                    //  Usage (X)                          8
# 0x09, 0x31,                    //  Usage (Y)                          10
# 0x09, 0x32,                    //  Usage (Z)                          12
# 0x09, 0x35,                    //  Usage (Rz)                         14
# 0x09, 0x33,                    //  Usage (Rx)                         16
# 0x09, 0x34,                    //  Usage (Ry)                         18
# 0x15, 0x00,                    //  Logical Minimum (0)                20
# 0x26, 0xff, 0x00,              //  Logical Maximum (255)              22
# 0x75, 0x08,                    //  Report Size (8)                    25
# 0x95, 0x06,                    //  Report Count (6)                   27
# 0x81, 0x02,                    //  Input (Data,Var,Abs)               29
# 0x06, 0x00, 0xff,              //  Usage Page (Vendor Defined Page 1) 31
# 0x09, 0x20,                    //  Usage (Vendor Usage 0x20)          34
# 0x95, 0x01,                    //  Report Count (1)                   36
# 0x81, 0x02,                    //  Input (Data,Var,Abs)               38
# 0x05, 0x01,                    //  Usage Page (Generic Desktop)       40
# 0x09, 0x39,                    //  Usage (Hat switch)                 42
# 0x15, 0x00,                    //  Logical Minimum (0)                44
# 0x25, 0x07,                    //  Logical Maximum (7)                46
# 0x35, 0x00,                    //  Physical Minimum (0)               48
# 0x46, 0x3b, 0x01,              //  Physical Maximum (315)             50
# 0x65, 0x14,                    //  Unit (EnglishRotation: deg)        53
# 0x75, 0x04,                    //  Report Size (4)                    55
# 0x95, 0x01,                    //  Report Count (1)                   57
# 0x81, 0x42,                    //  Input (Data,Var,Abs,Null)          59
# 0x65, 0x00,                    //  Unit (None)                        61
# 0x05, 0x09,                    //  Usage Page (Button)                63
# 0x19, 0x01,                    //  Usage Minimum (1)                  65
# 0x29, 0x0f,                    //  Usage Maximum (15)                 67
# 0x15, 0x00,                    //  Logical Minimum (0)                69
# 0x25, 0x01,                    //  Logical Maximum (1)                71
# 0x75, 0x01,                    //  Report Size (1)                    73
# 0x95, 0x0f,                    //  Report Count (15)                  75
# 0x81, 0x02,                    //  Input (Data,Var,Abs)               77
# 0x06, 0x00, 0xff,              //  Usage Page (Vendor Defined Page 1) 79
# 0x09, 0x21,                    //  Usage (Vendor Usage 0x21)          82
# 0x95, 0x0d,                    //  Report Count (13)                  84
# 0x81, 0x02,                    //  Input (Data,Var,Abs)               86
# 0x06, 0x00, 0xff,              //  Usage Page (Vendor Defined Page 1) 88
# 0x09, 0x22,                    //  Usage (Vendor Usage 0x22)          91
# 0x15, 0x00,                    //  Logical Minimum (0)                93
# 0x26, 0xff, 0x00,              //  Logical Maximum (255)              95
# 0x75, 0x08,                    //  Report Size (8)                    98
# 0x95, 0x34,                    //  Report Count (52)                  100
# 0x81, 0x02,                    //  Input (Data,Var,Abs)               102
# 0x85, 0x02,                    //  Report ID (2)                      104
# 0x09, 0x23,                    //  Usage (Vendor Usage 0x23)          106
# 0x95, 0x2f,                    //  Report Count (47)                  108
# 0x91, 0x02,                    //  Output (Data,Var,Abs)              110
# 0x85, 0x05,                    //  Report ID (5)                      112
# 0x09, 0x33,                    //  Usage (Vendor Usage 0x33)          114
# 0x95, 0x28,                    //  Report Count (40)                  116
# 0xb1, 0x02,                    //  Feature (Data,Var,Abs)             118
# 0x85, 0x08,                    //  Report ID (8)                      120
# 0x09, 0x34,                    //  Usage (Vendor Usage 0x34)          122
# 0x95, 0x2f,                    //  Report Count (47)                  124
# 0xb1, 0x02,                    //  Feature (Data,Var,Abs)             126
# 0x85, 0x09,                    //  Report ID (9)                      128
# 0x09, 0x24,                    //  Usage (Vendor Usage 0x24)          130
# 0x95, 0x13,                    //  Report Count (19)                  132
# 0xb1, 0x02,                    //  Feature (Data,Var,Abs)             134
# 0x85, 0x0a,                    //  Report ID (10)                     136
# 0x09, 0x25,                    //  Usage (Vendor Usage 0x25)          138
# 0x95, 0x1a,                    //  Report Count (26)                  140
# 0xb1, 0x02,                    //  Feature (Data,Var,Abs)             142
# 0x85, 0x20,                    //  Report ID (32)                     144
# 0x09, 0x26,                    //  Usage (Vendor Usage 0x26)          146
# 0x95, 0x3f,                    //  Report Count (63)                  148
# 0xb1, 0x02,                    //  Feature (Data,Var,Abs)             150
# 0x85, 0x21,                    //  Report ID (33)                     152
# 0x09, 0x27,                    //  Usage (Vendor Usage 0x27)          154
# 0x95, 0x04,                    //  Report Count (4)                   156
# 0xb1, 0x02,                    //  Feature (Data,Var,Abs)             158
# 0x85, 0x22,                    //  Report ID (34)                     160
# 0x09, 0x40,                    //  Usage (Vendor Usage 0x40)          162
# 0x95, 0x3f,                    //  Report Count (63)                  164
# 0xb1, 0x02,                    //  Feature (Data,Var,Abs)             166
# 0x85, 0x80,                    //  Report ID (128)                    168
# 0x09, 0x28,                    //  Usage (Vendor Usage 0x28)          170
# 0x95, 0x3f,                    //  Report Count (63)                  172
# 0xb1, 0x02,                    //  Feature (Data,Var,Abs)             174
# 0x85, 0x81,                    //  Report ID (129)                    176
# 0x09, 0x29,                    //  Usage (Vendor Usage 0x29)          178
# 0x95, 0x3f,                    //  Report Count (63)                  180
# 0xb1, 0x02,                    //  Feature (Data,Var,Abs)             182
# 0x85, 0x82,                    //  Report ID (130)                    184
# 0x09, 0x2a,                    //  Usage (Vendor Usage 0x2a)          186
# 0x95, 0x09,                    //  Report Count (9)                   188
# 0xb1, 0x02,                    //  Feature (Data,Var,Abs)             190
# 0x85, 0x83,                    //  Report ID (131)                    192
# 0x09, 0x2b,                    //  Usage (Vendor Usage 0x2b)          194
# 0x95, 0x3f,                    //  Report Count (63)                  196
# 0xb1, 0x02,                    //  Feature (Data,Var,Abs)             198
# 0x85, 0x84,                    //  Report ID (132)                    200
# 0x09, 0x2c,                    //  Usage (Vendor Usage 0x2c)          202
# 0x95, 0x3f,                    //  Report Count (63)                  204
# 0xb1, 0x02,                    //  Feature (Data,Var,Abs)             206
# 0x85, 0x85,                    //  Report ID (133)                    208
# 0x09, 0x2d,                    //  Usage (Vendor Usage 0x2d)          210
# 0x95, 0x02,                    //  Report Count (2)                   212
# 0xb1, 0x02,                    //  Feature (Data,Var,Abs)             214
# 0x85, 0xa0,                    //  Report ID (160)                    216
# 0x09, 0x2e,                    //  Usage (Vendor Usage 0x2e)          218
# 0x95, 0x01,                    //  Report Count (1)                   220
# 0xb1, 0x02,                    //  Feature (Data,Var,Abs)             222
# 0x85, 0xe0,                    //  Report ID (224)                    224
# 0x09, 0x2f,                    //  Usage (Vendor Usage 0x2f)          226
# 0x95, 0x3f,                    //  Report Count (63)                  228
# 0xb1, 0x02,                    //  Feature (Data,Var,Abs)             230
# 0x85, 0xf0,                    //  Report ID (240)                    232
# 0x09, 0x30,                    //  Usage (Vendor Usage 0x30)          234
# 0x95, 0x3f,                    //  Report Count (63)                  236
# 0xb1, 0x02,                    //  Feature (Data,Var,Abs)             238
# 0x85, 0xf1,                    //  Report ID (241)                    240
# 0x09, 0x31,                    //  Usage (Vendor Usage 0x31)          242
# 0x95, 0x3f,                    //  Report Count (63)                  244
# 0xb1, 0x02,                    //  Feature (Data,Var,Abs)             246
# 0x85, 0xf2,                    //  Report ID (242)                    248
# 0x09, 0x32,                    //  Usage (Vendor Usage 0x32)          250
# 0x95, 0x0f,                    //  Report Count (15)                  252
# 0xb1, 0x02,                    //  Feature (Data,Var,Abs)             254
# 0x85, 0xf4,                    //  Report ID (244)                    256
# 0x09, 0x35,                    //  Usage (Vendor Usage 0x35)          258
# 0x95, 0x3f,                    //  Report Count (63)                  260
# 0xb1, 0x02,                    //  Feature (Data,Var,Abs)             262
# 0x85, 0xf5,                    //  Report ID (245)                    264
# 0x09, 0x36,                    //  Usage (Vendor Usage 0x36)          266
# 0x95, 0x03,                    //  Report Count (3)                   268
# 0xb1, 0x02,                    //  Feature (Data,Var,Abs)             270
# 0xc0,                          // End Collection                      272
# 
R: 273 05 01 09 05 a1 01 85 01 09 30 09 31 09 32 09 35 09 33 09 34 15 00 26 ff 00 75 08 95 06 81 02 06 00 ff 09 20 95 01 81 02 05 01 09 39 15 00 25 07 35 00 46 3b 01 65 14 75 04 95 01 81 42 65 00 05 09 19 01 29 0f 15 00 25 01 75 01 95 0f 81 02 06 00 ff 09 21 95 0d 81 02 06 00 ff 09 22 15 00 26 ff 00 75 08 95 34 81 02 85 02 09 23 95 2f 91 02 85 05 09 33 95 28 b1 02 85 08 09 34 95 2f b1 02 85 09 09 24 95 13 b1 02 85 0a 09 25 95 1a b1 02 85 20 09 26 95 3f b1 02 85 21 09 27 95 04 b1 02 85 22 09 40 95 3f b1 02 85 80 09 28 95 3f b1 02 85 81 09 29 95 3f b1 02 85 82 09 2a 95 09 b1 02 85 83 09 2b 95 3f b1 02 85 84 09 2c 95 3f b1 02 85 85 09 2d 95 02 b1 02 85 a0 09 2e 95 01 b1 02 85 e0 09 2f 95 3f b1 02 85 f0 09 30 95 3f b1 02 85 f1 09 31 95 3f b1 02 85 f2 09 32 95 0f b1 02 85 f4 09 35 95 3f b1 02 85 f5 09 36 95 03 b1 02 c0
N: Sony Interactive Entertainment DualSense Wireless Controller
I: 3 054c 0ce6
# ReportID: 1 / X:  131 | Y:  128 | Z:  130 | Rz:  127 | Rx:    0 | Ry:    0 | 0xff000020:   67 | Hat switch:   8 | Button: 0  0  0  0  0  0  0  0  0  0  0  0  0  0  0 | 0xff000021: 0 , 0 , 0 , 0 , 0 , 0 , 0 , 0 , 0 , 0 , 0 , 0 , 0 | 0xff000022:   32 ,  152 ,   42 ,  235 ,  246 ,  255 ,  239 ,  255 ,   11 ,    0 ,   50 ,    0 ,   78 ,   31 ,   52 ,    5 ,  144 ,   36 ,   56 ,  224 ,    8 ,  128 ,    0 ,    0 ,    0 ,  128 ,    0 ,    0 ,    0 ,    0 ,    9 ,    9 ,    0 ,    0 ,    0 ,    0 ,    0 ,  121 ,   56 ,   56 ,  224 ,   40 ,    8 ,    0 ,  110 ,   19 ,  217 ,  204 ,  229 ,   69 ,    3 ,   60 
E: 000000.000000 64 01 83 80 82 7f 00 00 43 08 00 00 00 20 98 2a eb f6 ff ef ff 0b 00 32 00 4e 1f 34 05 90 24 38 e0 08 80 00 00 00 80 00 00 00 00 09 09 00 00 00 00 00 79 38 38 e0 28 08 00 6e 13 d9 cc e5 45 03 3c
# ReportID: 1 / X:  131 | Y:  128 | Z:  130 | Rz:  127 | Rx:    0 | Ry:    0 | 0xff000020:   68 | Hat switch:   8 | Button: 0  0  0  0  0  0  0  0  0  0  0  0  0  0  0 | 0xff000021: 0 , 0 , 0 , 0 , 0 , 0 , 0 , 0 , 0 , 0 , 0 , 0 , 0 | 0xff000022:   33 ,  152 ,   42 ,  235 ,  246 ,  255 ,  239 ,  255 ,   10 ,    0 ,   49 ,    0 ,   16 ,   31 ,   47 ,    5 ,  164 ,   77 ,   56 ,  224 ,    8 ,  128 ,    0 ,    0 ,    0 ,  128 ,    0 ,    0 ,    0 ,    0 ,    9 ,    9 ,    0 ,    0 ,    0 ,    0 ,    0 ,   89 ,  103 ,   56 ,  224 ,   40 ,    8 ,    0 ,  160 ,  117 ,   78 ,  119 ,   31 ,  193 ,  207 ,  108 
E: 000000.000670 64 01 83 80 82 7f 00 00 44 08 00 00 00 21 98 2a eb f6 ff ef ff 0a 00 31 00 10 1f 2f 05 a4 4d 38 e0 08 80 00 00 00 80 00 00 00 00 09 09 00 00 00 00 00 59 67 38 e0 28 08 00 a0 75 4e 77 1f c1 cf 6c
# ReportID: 1 / X:  131 | Y:  128 | Z:  129 | Rz:  127 | Rx:    0 | Ry:    0 | 0xff000020:   69 | Hat switch:   8 | Button: 0  0  0  0  0  0  0  0  0  0  0  0  0  0  0 | 0xff000021: 0 , 0 , 0 , 0 , 0 , 0 , 0 , 0 , 0 , 0 , 0 , 0 , 0 | 0xff000022:   34 ,  152 ,   42 ,  235 ,  247 ,  255 ,  238 ,  255 ,   11 ,    0 ,   50 ,    0 ,   66 ,   31 ,   70 ,    5 ,  152 ,  124 ,   56 ,  224 ,    8 ,  128 ,    0 ,    0 ,    0 ,  128 ,    0 ,    0 ,    0 ,    0 ,    9 ,    9 ,    0 ,    0 ,    0 ,    0 ,    0 ,   57 ,  150 ,   56 ,  224 ,   40 ,    8 ,    0 ,  226 ,   22 ,  101 ,   79 ,  118 ,  217 ,  210 ,  181 
E: 000000.004875 64 01 83 80 81 7f 00 00 45 08 00 00 00 22 98 2a eb f7 ff ee ff 0b 00 32 00 42 1f 46 05 98 7c 38 e0 08 80 00 00 00 80 00 00 00 00 09 09 00 00 00 00 00 39 96 38 e0 28 08 00 e2 16 65 4f 76 d9 d2 b5
# ReportID: 1 / X:  131 | Y:  128 | Z:  129 | Rz:  127 | Rx:    0 | Ry:    0 | 0xff000020:   70 | Hat switch:   8 | Button: 0  0  0  0  0  0  0  0  0  0  0  0  0  0  0 | 0xff000021: 0 , 0 , 0 , 0 , 0 , 0 , 0 , 0 , 0 , 0 , 0 , 0 , 0 | 0xff000022:   35 ,  152 ,   42 ,  235 ,  246 ,  255 ,  238 ,  255 ,   11 ,    0 ,   57 ,    0 ,  141 ,   31 ,   73 ,    5 ,  139 ,  171 ,   56 ,  224 ,    8 ,  128 ,    0 ,    0 ,    0 ,  128 ,    0 ,    0 ,    0 ,    0 ,    9 ,    9 ,    0 ,    0 ,    0 ,    0 ,    0 ,   25 ,  197 ,   56 ,  224 ,   40 ,    8 ,    0 ,  170 ,  228 ,  243 ,  226 ,   93 ,  181 ,  108 ,  160 
E: 000000.008655 64 01 83 80 81 7f 00 00 46 08 00 00 00 23 98 2a eb f6 ff ee ff 0b 00 39 00 8d 1f 49 05 8b ab 38 e0 08 80 00 00 00 80 00 00 00 00 09 09 00 00 00 00 00 19 c5 38 e0 28 08 00 aa e4 f3 e2 5d b5 6c a0
# ReportID: 1 / X:  131 | Y:  128 | Z:  129 | Rz:  127 | Rx:    0 | Ry:    0 | 0xff000020:   71 | Hat switch:   8 | Button: 0  0  0  0  0  0  0  0  0  0  0  0  0  0  0 | 0xff000021: 0 , 0 , 0 , 0 , 0 , 0 , 0 , 0 , 0 , 0 , 0 , 0 , 0 | 0xff000022:   36 ,  152 ,   42 ,  235 ,  245 ,  255 ,  239 ,  255 ,   10 ,    0 ,   49 ,    0 ,   91 ,   31 ,   73 ,    5 ,  126 ,  218 ,   56 ,  224 ,    8 ,  128 ,    0 ,    0 ,    0 ,  128 ,    0 ,    0 ,    0 ,    0 ,    9 ,    9 ,    0 ,    0 ,    0 ,    0 ,    0 ,  249 ,  243 ,   56 ,  224 ,   40 ,    8 ,    0 ,  203 ,  119 ,   92 ,  135 ,  224 ,   46 ,  180 ,  253 
E: 000000.012641 64 01 83 80 81 7f 00 00 47 08 00 00 00 24 98 2a eb f5 ff ef ff 0a 00 31 00 5b 1f 49 05 7e da 38 e0 08 80 00 00 00 80 00 00 00 00 09 09 00 00 00 00 00 f9 f3 38 e0 28 08 00 cb 77 5c 87 e0 2e b4 fd
# ReportID: 1 / X:  131 | Y:  128 | Z:  130 | Rz:  127 | Rx:    0 | Ry:    0 | 0xff000020:   72 | Hat switch:   8 | Button: 0  0  0  0  0  0  0  0  0  0  0  0  0  0  0 | 0xff000021: 0 , 0 , 0 , 0 , 0 , 0 , 0 , 0 , 0 , 0 , 0 , 0 , 0 | 0xff000022:   37 ,  152 ,   42 ,  235 ,  247 ,  255 ,  237 ,  255 ,   10 ,    0 ,   40 ,    0 ,   78 ,   31 ,   63 ,    5 ,  113 ,    9 ,   57 ,  224 ,    8 ,  128 ,    0 ,    0 ,    0 ,  128 ,    0 ,    0 ,    0 ,    0 ,    9 ,    9 ,    0 ,    0 ,    0 ,    0 ,    0 ,  217 ,   34 ,   57 ,  224 ,   40 ,    8 ,    0 ,  165 ,   45 ,  251 ,  112 ,  152 ,    3 ,  210 ,  252 
E: 000000.017802 64 01 83 80 82 7f 00 00 48 08 00 00 00 25 98 2a eb f7 ff ed ff 0a 00 28 00 4e 1f 3f 05 71 09 39 e0 08 80 00 00 00 80 00 00 00 00 09 09 00 00 00 00 00 d9 22 39 e0 28 08 00 a5 2d fb 70 98 03 d2 fc
# ReportID: 1 / X:  131 | Y:  128 | Z:  129 | Rz:  127 | Rx:    0 | Ry:    0 | 0xff000020:   73 | Hat switch:   8 | Button: 0  0  0  0  0  0  0  0  0  0  0  0  0  0  0 | 0xff000021: 0 , 0 , 0 , 0 , 0 , 0 , 0 , 0 , 0 , 0 , 0 , 0 , 0 | 0xff000022:   38 ,  152 ,   42 ,  235 ,  248 ,  255 ,  238 ,  255 ,   11 ,    0 ,   54 ,    0 ,   88 ,   31 ,   61 ,    5 ,  100 ,   56 ,   57 ,  224 ,    8 ,  128 ,    0 ,    0 ,    0 ,  128 ,    0 ,    0 ,    0 ,    0 ,    9 ,    9 ,    0 ,    0 ,    0 ,    0 ,    0 ,  185 ,   81 ,   57 ,  224 ,   40 ,    8 ,    0 ,  188 ,   91 ,  160 ,  177 ,  238 ,  187 ,   89 ,  223 
E: 000000.021661 64 01 83 80 81 7f 00 00 49 08 00 00 00 26 98 2a eb f8 ff ee ff 0b 00 36 00 58 1f 3d 05 64 38 39 e0 08 80 00 00 00 80 00 00 00 00 09 09 00 00 00 00 00 b9 51 39 e0 28 08 00 bc 5b a0 b1 ee bb 59 df
# ReportID: 1 / X:  131 | Y:  128 | Z:  130 | Rz:  127 | Rx:    0 | Ry:    0 | 0xff000020:   74 | Hat switch:   8 | Button: 0  0  0  0  0  0  0  0  0  0  0  0  0  0  0 | 0xff000021: 0 , 0 , 0 , 0 , 0 , 0 , 0 , 0 , 0 , 0 , 0 , 0 , 0 | 0xff000022:   39 ,  152 ,   42 ,  235 ,  247 ,  255 ,  238 ,  255 ,   10 ,    0 ,   60 ,    0 ,   58 ,   31 ,   77 ,    5 ,   87 ,  103 ,   57 ,  224 ,    8 ,  128 ,    0 ,    0 ,    0 ,  128 ,    0 ,    0 ,    0 ,    0 ,    9 ,    9 ,    0 ,    0 ,    0 ,    0 ,    0 ,  169 ,  128 ,   57 ,  224 ,   40 ,    8 ,    0 ,  172 ,   39 ,   20 ,  102 ,  154 ,  177 ,  132 ,  212 
E: 000000.024941 64 01 83 80 82 7f 00 00 4a 08 00 00 00 27 98 2a eb f7 ff ee ff 0a 00 3c 00 3a 1f 4d 05 57 67 39 e0 08 80 00 00 00 80 00 00 00 00 09 09 00 00 00 00 00 a9 80 39 e0 28 08 00 ac 27 14 66 9a b1 84 d4
# ReportID: 1 / X:  131 | Y:  128 | Z:  129 | Rz:  127 | Rx:    0 | Ry:    0 | 0xff000020:   75 | Hat switch:   8 | Button: 0  0  0  0  0  0  0  0  0  0  0  0  0  0  0 | 0xff000021: 0 , 0 , 0 , 0 , 0 , 0 , 0 , 0 , 0 , 0 , 0 , 0 , 0 | 0xff000022:   40 ,  152 ,   42 ,  235 ,  247 ,  255 ,  238 ,  255 ,   11 ,    0 ,   46 ,    0 ,   31 ,   31 ,   67 ,    5 ,   75 ,  150 ,   57 ,  224 ,    8 ,  128 ,    0 ,    0 ,    0 ,  128 ,    0 ,    0 ,    0 ,    0 ,    9 ,    9 ,    0 ,    0 ,    0 ,    0 ,    0 ,  154 ,  175 ,   57 ,  224 ,   40 ,    8 ,    0 ,    5 ,  223 ,  244 ,   69 ,   35 ,   37 ,   49 ,  238 
E: 000000.029925 64 01 83 80 81 7f 00 00 4b 08 00 00 00 28 98 2a eb f7 ff ee ff 0b 00 2e 00 1f 1f 43 05 4b 96 39 e0 08 80 00 00 00 80 00 00 00 00 09 09 00 00 00 00 00 9a af 39 e0 28 08 00 05 df f4 45 23 25 31 ee
# ReportID: 1 / X:  131 | Y:  128 | Z:  129 | Rz:  127 | Rx:    0 | Ry:    0 | 0xff000020:   76 | Hat switch:   8 | Button: 0  0  0  0  0  0  0  0  0  0  0  0  0  0  0 | 0xff000021: 0 , 0 , 0 , 0 , 0 , 0 , 0 , 0 , 0 , 0 , 0 , 0 , 0 | 0xff000022:   41 ,  152 ,   42 ,  235 ,  247 ,  255 ,  237 ,  255 ,   11 ,    0 ,   54 ,    0 ,   93 ,   31 ,   67 ,    5 ,   62 ,  197 ,   57 ,  224 ,    8 ,  128 ,    0 ,    0 ,    0 ,  128 ,    0 ,    0 ,    0 ,    0 ,    9 ,    9 ,    0 ,    0 ,    0 ,    0 ,    0 ,   96 ,  222 ,   57 ,  224 ,   40 ,    8 ,    0 ,  216 ,   53 ,  117 ,  252 ,  210 ,  113 ,  194 ,   37 
E: 000000.032893 64 01 83 80 81 7f 00 00 4c 08 00 00 00 29 98 2a eb f7 ff ed ff 0b 00 36 00 5d 1f 43 05 3e c5 39 e0 08 80 00 00 00 80 00 00 00 00 09 09 00 00 00 00 00 60 de 39 e0 28 08 00 d8 35 75 fc d2 71 c2 25
# ReportID: 1 / X:  131 | Y:  128 | Z:  129 | Rz:  127 | Rx:    0 | Ry:    0 | 0xff000020:   77 | Hat switch:   8 | Button: 0  0  0  0  0  0  0  0  0  0  0  0  0  0  0 | 0xff000021: 0 , 0 , 0 , 0 , 0 , 0 , 0 , 0 , 0 , 0 , 0 , 0 , 0 | 0xff000022:   42 ,  152 ,   42 ,  235 ,  246 ,  255 ,  239 ,  255 ,   10 ,    0 ,   58 ,    0 ,  112 ,   31 ,   61 ,    5 ,   49 ,  244 ,   57 ,  224 ,    8 ,  128 ,    0 ,    0 ,    0 ,  128 ,    0 ,    0 ,    0 ,    0 ,    9 ,    9 ,    0 ,    0 ,    0 ,    0 ,    0 ,   65 ,   13 ,   58 ,  224 ,   40 ,    8 ,    0 ,  179 ,  240 ,  219 ,   45 ,  132 ,  197 ,   62 ,  100 
E: 000000.037191 64 01 83 80 81 7f 00 00 4d 08 00 00 00 2a 98 2a eb f6 ff ef ff 0a 00 3a 00 70 1f 3d 05 31 f4 39 e0 08 80 00 00 00 80 00 00 00 00 09 09 00 00 00 00 00 41 0d 3a e0 28 08 00 b3 f0 db 2d 84 c5 3e 64
# ReportID: 1 / X:  131 | Y:  128 | Z:  130 | Rz:  127 | Rx:    0 | Ry:    0 | 0xff000020:   78 | Hat switch:   8 | Button: 0  0  0  0  0  0  0  0  0  0  0  0  0  0  0 | 0xff000021: 0 , 0 , 0 , 0 , 0 , 0 , 0 , 0 , 0 , 0 , 0 , 0 , 0 | 0xff000022:   43 ,  152 ,   42 ,  235 ,  247 ,  255 ,  238 ,  255 ,   11 ,    0 ,   52 ,    0 ,   89 ,   31 ,   61 ,    5 ,   36 ,   35 ,   58 ,  224 ,    8 ,  128 ,    0 ,    0 ,    0 ,  128 ,    0 ,    0 ,    0 ,    0 ,    9 ,    9 ,    0 ,    0 ,    0 ,    0 ,    0 ,   25 ,   60 ,   58 ,  224 ,   40 ,    8 ,    0 ,  230 ,   34 ,  239 ,  170 ,   41 ,  238 ,   47 ,  214 
E: 000000.041853 64 01 83 80 82 7f 00 00 4e 08 00 00 00 2b 98 2a eb f7 ff ee ff 0b 00 34 00 59 1f 3d 05 24 23 3a e0 08 80 00 00 00 80 00 00 00 00 09 09 00 00 00 00 00 19 3c 3a e0 28 08 00 e6 22 ef aa 29 ee 2f d6
# ReportID: 1 / X:  131 | Y:  128 | Z:  129 | Rz:  127 | Rx:    0 | Ry:    0 | 0xff000020:   79 | Hat switch:   8 | Button: 0  0  0  0  0  0  0  0  0  0  0  0  0  0  0 | 0xff000021: 0 , 0 , 0 , 0 , 0 , 0 , 0 , 0 , 0 , 0 , 0 , 0 , 0 | 0xff000022:   44 ,  152 ,   42 ,  235 ,  247 ,  255 ,  238 ,  255 ,   10 ,    0 ,   53 ,    0 ,   88 ,   31 ,   56 ,    5 ,   23 ,   82 ,   58 ,  224 ,    8 ,  128 ,    0 ,    0 ,    0 ,  128 ,    0 ,    0 ,    0 ,    0 ,    9 ,    9 ,    0 ,    0 ,    0 ,    0 ,    0 ,  249 ,  106 ,   58 ,  224 ,   40 ,    8 ,    0 ,  225 ,   98 ,  126 ,  182 ,    6 ,    9 ,  160 ,  197 
E: 000000.044766 64 01 83 80 81 7f 00 00 4f 08 00 00 00 2c 98 2a eb f7 ff ee ff 0a 00 35 00 58 1f 38 05 17 52 3a e0 08 80 00 00 00 80 00 00 00 00 09 09 00 00 00 00 00 f9 6a 3a e0 28 08 00 e1 62 7e b6 06 09 a0 c5
# ReportID: 1 / X:  131 | Y:  128 | Z:  129 | Rz:  127 | Rx:    0 | Ry:    0 | 0xff000020:   80 | Hat switch:   8 | Button: 0  0  0  0  0  0  0  0  0  0  0  0  0  0  0 | 0xff000021: 0 , 0 , 0 , 0 , 0 , 0 , 0 , 0 , 0 , 0 , 0 , 0 , 0 | 0xff000022:   45 ,  152 ,   42 ,  235 ,  247 ,  255 ,  238 ,  255 ,   10 ,    0 ,   59 ,    0 ,   79 ,   31 ,   54 ,    5 ,   10 ,  129 ,   58 ,  224 ,    8 ,  128 ,    0 ,    0 ,    0 ,  128 ,    0 ,    0 ,    0 ,    0 ,    9 ,    9 ,    0 ,    0 ,    0 ,    0 ,    0 ,  217 ,  153 ,   58 ,  224 ,   40 ,    8 ,    0 ,    4 ,  146 ,  135 ,  110 ,  115 ,  223 ,  120 ,    0 
E: 000000.049142 64 01 83 80 81 7f 00 00 50 08 00 00 00 2d 98 2a eb f7 ff ee ff 0a 00 3b 00 4f 1f 36 05 0a 81 3a e0 08 80 00 00 00 80 00 00 00 00 09 09 00 00 00 00 00 d9 99 3a e0 28 08 00 04 92 87 6e 73 df 78 00
# ReportID: 1 / X:  131 | Y:  128 | Z:  129 | Rz:  127 | Rx:    0 | Ry:    0 | 0xff000020:   81 | Hat switch:   8 | Button: 0  0  0  0  0  0  0  0  0  0  0  0  0  0  0 | 0xff000021: 0 , 0 , 0 , 0 , 0 , 0 , 0 , 0 , 0 , 0 , 0 , 0 , 0 | 0xff000022:   46 ,  152 ,   42 ,  235 ,  246 ,  255 ,  237 ,  255 ,   10 ,    0 ,   48 ,    0 ,   64 ,   31 ,   54 ,    5 ,  253 ,  175 ,   58 ,  224 ,    8 ,  128 ,    0 ,    0 ,    0 ,  128 ,    0 ,    0 ,    0 ,    0 ,    9 ,    9 ,    0 ,    0 ,    0 ,    0 ,    0 ,  185 ,  200 ,   58 ,  224 ,   40 ,    8 ,    0 ,   77 ,  229 ,    8 ,  243 ,  200 ,   37 ,  205 ,  122 
E: 000000.053719 64 01 83 80 81 7f 00 00 51 08 00 00 00 2e 98 2a eb f6 ff ed ff 0a 00 30 00 40 1f 36 05 fd af 3a e0 08 80 00 00 00 80 00 00 00 00 09 09 00 00 00 00 00 b9 c8 3a e0 28 08 00 4d e5 08 f3 c8 25 cd 7a
# ReportID: 1 / X:  131 | Y:  128 | Z:  130 | Rz:  127 | Rx:    0 | Ry:    0 | 0xff000020:   82 | Hat switch:   8 | Button: 0  0  0  0  0  0  0  0  0  0  0  0  0  0  0 | 0xff000021: 0 , 0 , 0 , 0 , 0 , 0 , 0 , 0 , 0 , 0 , 0 , 0 , 0 | 0xff000022:   47 ,  152 ,   42 ,  235 ,  247 ,  255 ,  237 ,  255 ,    9 ,    0 ,   45 ,    0 ,   82 ,   31 ,   46 ,    5 ,  241 ,  222 ,   58 ,  224 ,    8 ,  128 ,    0 ,    0 ,    0 ,  128 ,    0 ,    0 ,    0 ,    0 ,    9 ,    9 ,    0 ,    0 ,    0 ,    0 ,    0 ,  153 ,  247 ,   58 ,  224 ,   40 ,    8 ,    0 ,  208 ,    4 ,  103 ,  181 ,  129 ,  221 ,  224 ,  130 
E: 000000.057397 64 01 83 80 82 7f 00 00 52 08 00 00 00 2f 98 2a eb f7 ff ed ff 09 00 2d 00 52 1f 2e 05 f1 de 3a e0 08 80 00 00 00 80 00 00 00 00 09 09 00 00 00 00 00 99 f7 3a e0 28 08 00 d0 04 67 b5 81 dd e0 82
# ReportID: 1 / X:  131 | Y:  128 | Z:  129 | Rz:  127 | Rx:    0 | Ry:    0 | 0xff000020:   83 | Hat switch:   8 | Button: 0  0  0  0  0  0  0  0  0  0  0  0  0  0  0 | 0xff000021: 0 , 0 , 0 , 0 , 0 , 0 , 0 , 0 , 0 , 0 , 0 , 0 , 0 | 0xff000022:   48 ,  152 ,   42 ,  235 ,  247 ,  255 ,  238 ,  255 ,    9 ,    0 ,   51 ,    0 ,  106 ,   31 ,   52 ,    5 ,  228 ,   13 ,   59 ,  224 ,    8 ,  128 ,    0 ,    0 ,    0 ,  128 ,    0 ,    0 ,    0 ,    0 ,    9 ,    9 ,    0 ,    0 ,    0 ,    0 ,    0 ,  121 ,   38 ,   59 ,  224 ,   40 ,    8 ,    0 ,   34 ,  115 ,  228 ,  161 ,  201 ,  243 ,  219 ,  227 
E: 000000.060822 64 01 83 80 81 7f 00 00 53 08 00 00 00 30 98 2a eb f7 ff ee ff 09 00 33 00 6a 1f 34 05 e4 0d 3b e0 08 80 00 00 00 80 00 00 00 00 09 09 00 00 00 00 00 79 26 3b e0 28 08 00 22 73 e4 a1 c9 f3 db e3
# ReportID: 1 / X:  131 | Y:  128 | Z:  129 | Rz:  127 | Rx:    0 | Ry:    0 | 0xff000020:   84 | Hat switch:   8 | Button: 0  0  0  0  0  0  0  0  0  0  0  0  0  0  0 | 0xff000021: 0 , 0 , 0 , 0 , 0 , 0 , 0 , 0 , 0 , 0 , 0 , 0 , 0 | 0xff000022:   49 ,  152 ,   42 ,  235 ,  246 ,  255 ,  238 ,  255 ,   10 ,    0 ,   50 ,    0 ,  103 ,   31 ,   47 ,    5 ,  215 ,   60 ,   59 ,  224 ,    8 ,  128 ,    0 ,    0 ,    0 ,  128 ,    0 ,    0 ,    0 ,    0 ,    9 ,    9 ,    0 ,    0 ,    0 ,    0 ,    0 ,   89 ,   85 ,   59 ,  224 ,   40 ,    8 ,    0 ,  213 ,   41 ,   97 ,  209 ,  162 ,  206 ,  183 ,  241 
E: 000000.066373 64 01 83 80 81 7f 00 00 54 08 00 00 00 31 98 2a eb f6 ff ee ff 0a 00 32 00 67 1f 2f 05 d7 3c 3b e0 08 80 00 00 00 80 00 00 00 00 09 09 00 00 00 00 00 59 55 3b e0 28 08 00 d5 29 61 d1 a2 ce b7 f1
# ReportID: 1 / X:  131 | Y:  128 | Z:  130 | Rz:  127 | Rx:    0 | Ry:    0 | 0xff000020:   85 | Hat switch:   8 | Button: 0  0  0  0  0  0  0  0  0  0  0  0  0  0  0 | 0xff000021: 0 , 0 , 0 , 0 , 0 , 0 , 0 , 0 , 0 , 0 , 0 , 0 , 0 | 0xff000022:   50 ,  152 ,   42 ,  235 ,  246 ,  255 ,  239 ,  255 ,    9 ,    0 ,   54 ,    0 ,   82 ,   31 ,   42 ,    5 ,  202 ,  107 ,   59 ,  224 ,    8 ,  128 ,    0 ,    0 ,    0 ,  128 ,    0 ,    0 ,    0 ,    0 ,    9 ,    9 ,    0 ,    0 ,    0 ,    0 ,    0 ,   57 ,  132 ,   59 ,  224 ,   40 ,    8 ,    0 ,  146 ,  149 ,  249 ,  187 ,  101 ,  169 ,   87 ,   94 
E: 000000.069774 64 01 83 80 82 7f 00 00 55 08 00 00 00 32 98 2a eb f6 ff ef ff 09 00 36 00 52 1f 2a 05 ca 6b 3b e0 08 80 00 00 00 80 00 00 00 00 09 09 00 00 00 00 00 39 84 3b e0 28 08 00 92 95 f9 bb 65 a9 57 5e
# ReportID: 1 / X:  131 | Y:  128 | Z:  129 | Rz:  127 | Rx:    0 | Ry:    0 | 0xff000020:   86 | Hat switch:   8 | Button: 0  0  0  0  0  0  0  0  0  0  0  0  0  0  0 | 0xff000021: 0 , 0 , 0 , 0 , 0 , 0 , 0 , 0 , 0 , 0 , 0 , 0 , 0 | 0xff000022:   51 ,  152 ,   42 ,  235 ,  246 ,  255 ,  238 ,  255 ,   10 ,    0 ,   59 ,    0 ,   82 ,   31 ,   43 ,    5 ,  189 ,  154 ,   59 ,  224 ,    8 ,  128 ,    0 ,    0 ,    0 ,  128 ,    0 ,    0 ,    0 ,    0 ,    9 ,    9 ,    0 ,    0 ,    0 ,    0 ,    0 ,   25 ,  179 ,   59 ,  224 ,   40 ,    8 ,    0 ,  189 ,  151 ,   77 ,  179 ,   86 ,  249 ,  103 ,  162 
E: 000000.073445 64 01 83 80 81 7f 00 00 56 08 00 00 00 33 98 2a eb f6 ff ee ff 0a 00 3b 00 52 1f 2b 05 bd 9a 3b e0 08 80 00 00 00 80 00 00 00 00 09 09 00 00 00 00 00 19 b3 3b e0 28 08 00 bd 97 4d b3 56 f9 67 a2
# ReportID: 1 / X:  131 | Y:  128 | Z:  129 | Rz:  127 | Rx:    0 | Ry:    0 | 0xff000020:   87 | Hat switch:   8 | Button: 0  0  0  0  0  0  0  0  0  0  0  0  0  0  0 | 0xff000021: 0 , 0 , 0 , 0 , 0 , 0 , 0 , 0 , 0 , 0 , 0 , 0 , 0 | 0xff000022:   52 ,  152 ,   42 ,  235 ,  247 ,  255 ,  237 ,  255 ,    9 ,    0 ,   55 ,    0 ,   84 ,   31 ,   40 ,    5 ,  176 ,  201 ,   59 ,  224 ,    8 ,  128 ,    0 ,    0 ,    0 ,  128 ,    0 ,    0 ,    0 ,    0 ,    9 ,    9 ,    0 ,    0 ,    0 ,    0 ,    0 ,  249 ,  225 ,   59 ,  224 ,   40 ,    8 ,    0 ,   71 ,  140 ,  115 ,  163 ,   52 ,  231 ,  175 ,  118 
E: 000000.078210 64 01 83 80 81 7f 00 00 57 08 00 00 00 34 98 2a eb f7 ff ed ff 09 00 37 00 54 1f 28 05 b0 c9 3b e0 08 80 00 00 00 80 00 00 00 00 09 09 00 00 00 00 00 f9 e1 3b e0 28 08 00 47 8c 73 a3 34 e7 af 76
# ReportID: 1 / X:  131 | Y:  128 | Z:  129 | Rz:  127 | Rx:    0 | Ry:    0 | 0xff000020:   88 | Hat switch:   8 | Button: 0  0  0  0  0  0  0  0  0  0  0  0  0  0  0 | 0xff000021: 0 , 0 , 0 , 0 , 0 , 0 , 0 , 0 , 0 , 0 , 0 , 0 , 0 | 0xff000022:   53 ,  152 ,   42 ,  235 ,  248 ,  255 ,  237 ,  255 ,    9 ,    0 ,   63 ,    0 ,   70 ,   31 ,   42 ,    5 ,  163 ,  248 ,   59 ,  224 ,    8 ,  128 ,    0 ,    0 ,    0 ,  128 ,    0 ,    0 ,    0 ,    0 ,    9 ,    9 ,    0 ,    0 ,    0 ,    0 ,    0 ,  217 ,   16 ,   60 ,  224 ,   40 ,    8 ,    0 ,  135 ,  147 ,  187 ,   69 ,  142 ,  221 ,  139 ,  233 
E: 000000.081658 64 01 83 80 81 7f 00 00 58 08 00 00 00 35 98 2a eb f8 ff ed ff 09 00 3f 00 46 1f 2a 05 a3 f8 3b e0 08 80 00 00 00 80 00 00 00 00 09 09 00 00 00 00 00 d9 10 3c e0 28 08 00 87 93 bb 45 8e dd 8b e9
# ReportID: 1 / X:  131 | Y:  128 | Z:  130 | Rz:  127 | Rx:    0 | Ry:    0 | 0xff000020:   89 | Hat switch:   8 | Button: 0  0  0  0  0  0  0  0  0  0  0  0  0  0  0 | 0xff000021: 0 , 0 , 0 , 0 , 0 , 0 , 0 , 0 , 0 , 0 , 0 , 0 , 0 | 0xff000022:   54 ,  152 ,   42 ,  235 ,  247 ,  255 ,  237 ,  255 ,   10 ,    0 ,   67 ,    0 ,   91 ,   31 ,   42 ,    5 ,  151 ,   39 ,   60 ,  224 ,    8 ,  128 ,    0 ,    0 ,    0 ,  128 ,    0 ,    0 ,    0 ,    0 ,    9 ,    9 ,    0 ,    0 ,    0 ,    0 ,    0 ,  185 ,   63 ,   60 ,  224 ,   40 ,    8 ,    0 ,  221 ,  145 ,  127 ,   35 ,   46 ,   69 ,  201 ,   41 
E: 000000.086264 64 01 83 80 82 7f 00 00 59 08 00 00 00 36 98 2a eb f7 ff ed ff 0a 00 43 00 5b 1f 2a 05 97 27 3c e0 08 80 00 00 00 80 00 00 00 00 09 09 00 00 00 00 00 b9 3f 3c e0 28 08 00 dd 91 7f 23 2e 45 c9 29
# ReportID: 1 / X:  131 | Y:  128 | Z:  130 | Rz:  127 | Rx:    0 | Ry:    0 | 0xff000020:   90 | Hat switch:   8 | Button: 0  0  0  0  0  0  0  0  0  0  0  0  0  0  0 | 0xff000021: 0 , 0 , 0 , 0 , 0 , 0 , 0 , 0 , 0 , 0 , 0 , 0 , 0 | 0xff000022:   55 ,  152 ,   42 ,  235 ,  245 ,  255 ,  238 ,  255 ,    9 ,    0 ,   64 ,    0 ,  125 ,   31 ,   44 ,    5 ,  138 ,   86 ,   60 ,  224 ,    8 ,  128 ,    0 ,    0 ,    0 ,  128 ,    0 ,    0 ,    0 ,    0 ,    9 ,    9 ,    0 ,    0 ,    0 ,    0 ,    0 ,  153 ,  110 ,   60 ,  224 ,   40 ,    8 ,    0 ,  166 ,  130 ,  214 ,    2 ,    9 ,  139 ,  132 ,   12 
E: 000000.089378 64 01 83 80 82 7f 00 00 5a 08 00 00 00 37 98 2a eb f5 ff ee ff 09 00 40 00 7d 1f 2c 05 8a 56 3c e0 08 80 00 00 00 80 00 00 00 00 09 09 00 00 00 00 00 99 6e 3c e0 28 08 00 a6 82 d6 02 09 8b 84 0c
# ReportID: 1 / X:  131 | Y:  128 | Z:  129 | Rz:  127 | Rx:    0 | Ry:    0 | 0xff000020:   91 | Hat switch:   8 | Button: 0  0  0  0  0  0  0  0  0  0  0  0  0  0  0 | 0xff000021: 0 , 0 , 0 , 0 , 0 , 0 , 0 , 0 , 0 , 0 , 0 , 0 , 0 | 0xff000022:   56 ,  152 ,   42 ,  235 ,  246 ,  255 ,  238 ,  255 ,   10 ,    0 ,   63 ,    0 ,   88 ,   31 ,   54 ,    5 ,  125 ,  133 ,   60 ,  224 ,    8 ,  128 ,    0 ,    0 ,    0 ,  128 ,    0 ,    0 ,    0 ,    0 ,    9 ,    9 ,    0 ,    0 ,    0 ,    0 ,    0 ,  121 ,  157 ,   60 ,  224 ,   40 ,    8 ,    0 ,  215 ,  156 ,  208 ,  253 ,  127 ,  214 ,  113 ,  236 
E: 000000.092865 64 01 83 80 81 7f 00 00 5b 08 00 00 00 38 98 2a eb f6 ff ee ff 0a 00 3f 00 58 1f 36 05 7d 85 3c e0 08 80 00 00 00 80 00 00 00 00 09 09 00 00 00 00 00 79 9d 3c e0 28 08 00 d7 9c d0 fd 7f d6 71 ec
# ReportID: 1 / X:  131 | Y:  128 | Z:  129 | Rz:  127 | Rx:    0 | Ry:    0 | 0xff000020:   92 | Hat switch:   8 | Button: 0  0  0  0  0  0  0  0  0  0  0  0  0  0  0 | 0xff000021: 0 , 0 , 0 , 0 , 0 , 0 , 0 , 0 , 0 , 0 , 0 , 0 , 0 | 0xff000022:   57 ,  152 ,   42 ,  235 ,  246 ,  255 ,  239 ,  255 ,   11 ,    0 ,   64 ,    0 ,   69 ,   31 ,   59 ,    5 ,  112 ,  180 ,   60 ,  224 ,    8 ,  128 ,    0 ,    0 ,    0 ,  128 ,    0 ,    0 ,    0 ,    0 ,    9 ,    9 ,    0 ,    0 ,    0 ,    0 ,    0 ,   89 ,  204 ,   60 ,  224 ,   40 ,    8 ,    0 ,  163 ,   49 ,  222 ,   43 ,   15 ,   16 ,  243 ,  108 
E: 000000.096800 64 01 83 80 81 7f 00 00 5c 08 00 00 00 39 98 2a eb f6 ff ef ff 0b 00 40 00 45 1f 3b 05 70 b4 3c e0 08 80 00 00 00 80 00 00 00 00 09 09 00 00 00 00 00 59 cc 3c e0 28 08 00 a3 31 de 2b 0f 10 f3 6c
# ReportID: 1 / X:  131 | Y:  128 | Z:  130 | Rz:  127 | Rx:    0 | Ry:    0 | 0xff000020:   93 | Hat switch:   8 | Button: 0  0  0  0  0  0  0  0  0  0  0  0  0  0  0 | 0xff000021: 0 , 0 , 0 , 0 , 0 , 0 , 0 , 0 , 0 , 0 , 0 , 0 , 0 | 0xff000022:   58 ,  152 ,   42 ,  235 ,  247 ,  255 ,  238 ,  255 ,   10 ,    0 ,   64 ,    0 ,   84 ,   31 ,   52 ,    5 ,   99 ,  227 ,   60 ,  224 ,    8 ,  128 ,    0 ,    0 ,    0 ,  128 ,    0 ,    0 ,    0 ,    0 ,    9 ,    9 ,    0 ,    0 ,    0 ,    0 ,    0 ,   57 ,  251 ,   60 ,  224 ,   40 ,    8 ,    0 ,  156 ,   50 ,    3 ,   64 ,  155 ,  150 ,   28 ,   30 
E: 000000.102442 64 01 83 80 82 7f 00 00 5d 08 00 00 00 3a 98 2a eb f7 ff ee ff 0a 00 40 00 54 1f 34 05 63 e3 3c e0 08 80 00 00 00 80 00 00 00 00 09 09 00 00 00 00 00 39 fb 3c e0 28 08 00 9c 32 03 40 9b 96 1c 1e
# ReportID: 1 / X:  131 | Y:  128 | Z:  129 | Rz:  127 | Rx:    0 | Ry:    0 | 0xff000020:   94 | Hat switch:   8 | Button: 0  0  0  0  0  0  0  0  0  0  0  0  0  0  0 | 0xff000021: 0 , 0 , 0 , 0 , 0 , 0 , 0 , 0 , 0 , 0 , 0 , 0 , 0 | 0xff000022:   59 ,  152 ,   42 ,  235 ,  247 ,  255 ,  239 ,  255 ,   10 ,    0 ,   71 ,    0 ,   79 ,   31 ,   51 ,    5 ,   86 ,   18 ,   61 ,  224 ,    8 ,  128 ,    0 ,    0 ,    0 ,  128 ,    0 ,    0 ,    0 ,    0 ,    9 ,    9 ,    0 ,    0 ,    0 ,    0 ,    0 ,   35 ,   42 ,   61 ,  224 ,   40 ,    8 ,    0 ,  187 ,  215 ,   59 ,  249 ,  237 ,   29 ,  143 ,   76 
E: 000000.106233 64 01 83 80 81 7f 00 00 5e 08 00 00 00 3b 98 2a eb f7 ff ef ff 0a 00 47 00 4f 1f 33 05 56 12 3d e0 08 80 00 00 00 80 00 00 00 00 09 09 00 00 00 00 00 23 2a 3d e0 28 08 00 bb d7 3b f9 ed 1d 8f 4c
# ReportID: 1 / X:  131 | Y:  128 | Z:  130 | Rz:  127 | Rx:    0 | Ry:    0 | 0xff000020:   95 | Hat switch:   8 | Button: 0  0  0  0  0  0  0  0  0  0  0  0  0  0  0 | 0xff000021: 0 , 0 , 0 , 0 , 0 , 0 , 0 , 0 , 0 , 0 , 0 , 0 , 0 | 0xff000022:   60 ,  152 ,   42 ,  235 ,  247 ,  255 ,  238 ,  255 ,   10 ,    0 ,   64 ,    0 ,   70 ,   31 ,   53 ,    5 ,   75 ,   65 ,   61 ,  224 ,    8 ,  128 ,    0 ,    0 ,    0 ,  128 ,    0 ,    0 ,    0 ,    0 ,    9 ,    9 ,    0 ,    0 ,    0 ,    0 ,    0 ,   17 ,   89 ,   61 ,  224 ,   40 ,    8 ,    0 ,  104 ,    2 ,   14 ,   28 ,   87 ,   36 ,   15 ,   69 
E: 000000.109646 64 01 83 80 82 7f 00 00 5f 08 00 00 00 3c 98 2a eb f7 ff ee ff 0a 00 40 00 46 1f 35 05 4b 41 3d e0 08 80 00 00 00 80 00 00 00 00 09 09 00 00 00 00 00 11 59 3d e0 28 08 00 68 02 0e 1c 57 24 0f 45
# ReportID: 1 / X:  131 | Y:  128 | Z:  130 | Rz:  127 | Rx:    0 | Ry:    0 | 0xff000020:   96 | Hat switch:   8 | Button: 0  0  0  0  0  0  0  0  0  0  0  0  0  0  0 | 0xff000021: 0 , 0 , 0 , 0 , 0 , 0 , 0 , 0 , 0 , 0 , 0 , 0 , 0 | 0xff000022:   61 ,  152 ,   42 ,  235 ,  247 ,  255 ,  239 ,  255 ,   11 ,    0 ,   49 ,    0 ,   99 ,   31 ,   55 ,    5 ,   63 ,  112 ,   61 ,  224 ,    8 ,  128 ,    0 ,    0 ,    0 ,  128 ,    0 ,    0 ,    0 ,    0 ,    9 ,    9 ,    0 ,    0 ,    0 ,    0 ,    0 ,  223 ,  135 ,   61 ,  224 ,   40 ,    8 ,    0 ,   33 ,  214 ,   94 ,   32 ,  214 ,  181 ,  149 ,  212 
E: 000000.113168 64 01 83 80 82 7f 00 00 60 08 00 00 00 3d 98 2a eb f7 ff ef ff 0b 00 31 00 63 1f 37 05 3f 70 3d e0 08 80 00 00 00 80 00 00 00 00 09 09 00 00 00 00 00 df 87 3d e0 28 08 00 21 d6 5e 20 d6 b5 95 d4
# ReportID: 1 / X:  131 | Y:  128 | Z:  129 | Rz:  127 | Rx:    0 | Ry:    0 | 0xff000020:   97 | Hat switch:   8 | Button: 0  0  0  0  0  0  0  0  0  0  0  0  0  0  0 | 0xff000021: 0 , 0 , 0 , 0 , 0 , 0 , 0 , 0 , 0 , 0 , 0 , 0 , 0 | 0xff000022:   62 ,  152 ,   42 ,  235 ,  245 ,  255 ,  239 ,  255 ,   10 ,    0 ,   60 ,    0 ,  102 ,   31 ,   50 ,    5 ,   50 ,  159 ,   61 ,  224 ,    8 ,  128 ,    0 ,    0 ,    0 ,  128 ,    0 ,    0 ,    0 ,    0 ,    9 ,    9 ,    0 ,    0 ,    0 ,    0 ,    0 ,  193 ,  182 ,   61 ,  224 ,   40 ,    8 ,    0 ,  120 ,   13 ,  219 ,  123 ,  159 ,   46 ,  176 ,  203 
E: 000000.118368 64 01 83 80 81 7f 00 00 61 08 00 00 00 3e 98 2a eb f5 ff ef ff 0a 00 3c 00 66 1f 32 05 32 9f 3d e0 08 80 00 00 00 80 00 00 00 00 09 09 00 00 00 00 00 c1 b6 3d e0 28 08 00 78 0d db 7b 9f 2e b0 cb
# ReportID: 1 / X:  131 | Y:  128 | Z:  129 | Rz:  127 | Rx:    0 | Ry:    0 | 0xff000020:   98 | Hat switch:   8 | Button: 0  0  0  0  0  0  0  0  0  0  0  0  0  0  0 | 0xff000021: 0 , 0 , 0 , 0 , 0 , 0 , 0 , 0 , 0 , 0 , 0 , 0 , 0 | 0xff000022:   63 ,  152 ,   42 ,  235 ,  247 ,  255 ,  239 ,  255 ,   10 ,    0 ,   61 ,    0 ,   98 ,   31 ,   61 ,    5 ,   36 ,  206 ,   61 ,  224 ,    8 ,  128 ,    0 ,    0 ,    0 ,  128 ,    0 ,    0 ,    0 ,    0 ,    9 ,    9 ,    0 ,    0 ,    0 ,    0 ,    0 ,  153 ,  229 ,   61 ,  224 ,   40 ,    8 ,    0 ,  103 ,   52 ,  136 ,   99 ,   13 ,  216 ,  176 ,   37 
E: 000000.121382 64 01 83 80 81 7f 00 00 62 08 00 00 00 3f 98 2a eb f7 ff ef ff 0a 00 3d 00 62 1f 3d 05 24 ce 3d e0 08 80 00 00 00 80 00 00 00 00 09 09 00 00 00 00 00 99 e5 3d e0 28 08 00 67 34 88 63 0d d8 b0 25
# ReportID: 1 / X:  131 | Y:  128 | Z:  129 | Rz:  127 | Rx:    0 | Ry:    0 | 0xff000020:   99 | Hat switch:   8 | Button: 0  0  0  0  0  0  0  0  0  0  0  0  0  0  0 | 0xff000021: 0 , 0 , 0 , 0 , 0 , 0 , 0 , 0 , 0 , 0 , 0 , 0 , 0 | 0xff000022:   64 ,  152 ,   42 ,  235 ,  246 ,  255 ,  239 ,  255 ,   10 ,    0 ,   54 ,    0 ,   89 ,   31 ,   60 ,    5 ,   22 ,  253 ,   61 ,  224 ,    8 ,  128 ,    0 ,    0 ,    0 ,  128 ,    0 ,    0 ,    0 ,    0 ,    9 ,    9 ,    0 ,    0 ,    0 ,    0 ,    0 ,  121 ,   20 ,   62 ,  224 ,   40 ,    8 ,    0 ,  183 ,  235 ,   71 ,   97 ,   76 ,  254 ,   26 ,  146 
E: 000000.125578 64 01 83 80 81 7f 00 00 63 08 00 00 00 40 98 2a eb f6 ff ef ff 0a 00 36 00 59 1f 3c 05 16 fd 3d e0 08 80 00 00 00 80 00 00 00 00 09 09 00 00 00 00 00 79 14 3e e0 28 08 00 b7 eb 47 61 4c fe 1a 92
# ReportID: 1 / X:  131 | Y:  128 | Z:  129 | Rz:  127 | Rx:    0 | Ry:    0 | 0xff000020:  100 | Hat switch:   8 | Button: 0  0  0  0  0  0  0  0  0  0  0  0  0  0  0 | 0xff000021: 0 , 0 , 0 , 0 , 0 , 0 , 0 , 0 , 0 , 0 , 0 , 0 , 0 | 0xff000022:   65 ,  152 ,   42 ,  235 ,  247 ,  255 ,  239 ,  255 ,   11 ,    0 ,   39 ,    0 ,   72 ,   31 ,   53 ,    5 ,    9 ,   44 ,   62 ,  224 ,    8 ,  128 ,    0 ,    0 ,    0 ,  128 ,    0 ,    0 ,    0 ,    0 ,    9 ,    9 ,    0 ,    0 ,    0 ,    0 ,    0 ,   89 ,   67 ,   62 ,  224 ,   40 ,    8 ,    0 ,  182 ,  154 ,  203 ,   59 ,   42 ,   63 ,   79 ,  245 
E: 000000.129442 64 01 83 80 81 7f 00 00 64 08 00 00 00 41 98 2a eb f7 ff ef ff 0b 00 27 00 48 1f 35 05 09 2c 3e e0 08 80 00 00 00 80 00 00 00 00 09 09 00 00 00 00 00 59 43 3e e0 28 08 00 b6 9a cb 3b 2a 3f 4f f5
# ReportID: 1 / X:  131 | Y:  128 | Z:  129 | Rz:  127 | Rx:    0 | Ry:    0 | 0xff000020:  101 | Hat switch:   8 | Button: 0  0  0  0  0  0  0  0  0  0  0  0  0  0  0 | 0xff000021: 0 , 0 , 0 , 0 , 0 , 0 , 0 , 0 , 0 , 0 , 0 , 0 , 0 | 0xff000022:   66 ,  152 ,   42 ,  235 ,  246 ,  255 ,  239 ,  255 ,   10 ,    0 ,   36 ,    0 ,   65 ,   31 ,   54 ,    5 ,  253 ,   90 ,   62 ,  224 ,    8 ,  128 ,    0 ,    0 ,    0 ,  128 ,    0 ,    0 ,    0 ,    0 ,    9 ,    9 ,    0 ,    0 ,    0 ,    0 ,    0 ,   57 ,  114 ,   62 ,  224 ,   40 ,    8 ,    0 ,   86 ,   31 ,  190 ,   46 ,  107 ,  200 ,  247 ,   25 
E: 000000.133010 64 01 83 80 81 7f 00 00 65 08 00 00 00 42 98 2a eb f6 ff ef ff 0a 00 24 00 41 1f 36 05 fd 5a 3e e0 08 80 00 00 00 80 00 00 00 00 09 09 00 00 00 00 00 39 72 3e e0 28 08 00 56 1f be 2e 6b c8 f7 19
# ReportID: 1 / X:  131 | Y:  128 | Z:  129 | Rz:  127 | Rx:    0 | Ry:    0 | 0xff000020:  102 | Hat switch:   8 | Button: 0  0  0  0  0  0  0  0  0  0  0  0  0  0  0 | 0xff000021: 0 , 0 , 0 , 0 , 0 , 0 , 0 , 0 , 0 , 0 , 0 , 0 , 0 | 0xff000022:   67 ,  152 ,   42 ,  235 ,  246 ,  255 ,  239 ,  255 ,   10 ,    0 ,   37 ,    0 ,   85 ,   31 ,   61 ,    5 ,  240 ,  137 ,   62 ,  224 ,    8 ,  128 ,    0 ,    0 ,    0 ,  128 ,    0 ,    0 ,    0 ,    0 ,    9 ,    9 ,    0 ,    0 ,    0 ,    0 ,    0 ,   25 ,  161 ,   62 ,  224 ,   40 ,    8 ,    0 ,  176 ,  127 ,   88 ,  140 ,  224 ,  211 ,  222 ,    8 
E: 000000.136744 64 01 83 80 81 7f 00 00 66 08 00 00 00 43 98 2a eb f6 ff ef ff 0a 00 25 00 55 1f 3d 05 f0 89 3e e0 08 80 00 00 00 80 00 00 00 00 09 09 00 00 00 00 00 19 a1 3e e0 28 08 00 b0 7f 58 8c e0 d3 de 08
# ReportID: 1 / X:  131 | Y:  128 | Z:  129 | Rz:  127 | Rx:    0 | Ry:    0 | 0xff000020:  103 | Hat switch:   8 | Button: 0  0  0  0  0  0  0  0  0  0  0  0  0  0  0 | 0xff000021: 0 , 0 , 0 , 0 , 0 , 0 , 0 , 0 , 0 , 0 , 0 , 0 , 0 | 0xff000022:   68 ,  152 ,   42 ,  235 ,  246 ,  255 ,  237 ,  255 ,   10 ,    0 ,   45 ,    0 ,   86 ,   31 ,   69 ,    5 ,  227 ,  184 ,   62 ,  224 ,    8 ,  128 ,    0 ,    0 ,    0 ,  128 ,    0 ,    0 ,    0 ,    0 ,    9 ,    9 ,    0 ,    0 ,    0 ,    0 ,    0 ,  249 ,  207 ,   62 ,  224 ,   40 ,    8 ,    0 ,  214 ,   69 ,   81 ,   81 ,   42 ,  125 ,   70 ,   91 
E: 000000.141978 64 01 83 80 81 7f 00 00 67 08 00 00 00 44 98 2a eb f6 ff ed ff 0a 00 2d 00 56 1f 45 05 e3 b8 3e e0 08 80 00 00 00 80 00 00 00 00 09 09 00 00 00 00 00 f9 cf 3e e0 28 08 00 d6 45 51 51 2a 7d 46 5b
# ReportID: 1 / X:  131 | Y:  128 | Z:  129 | Rz:  127 | Rx:    0 | Ry:    0 | 0xff000020:  104 | Hat switch:   8 | Button: 0  0  0  0  0  0  0  0  0  0  0  0  0  0  0 | 0xff000021: 0 , 0 , 0 , 0 , 0 , 0 , 0 , 0 , 0 , 0 , 0 , 0 , 0 | 0xff000022:   69 ,  152 ,   42 ,  235 ,  245 ,  255 ,  238 ,  255 ,   10 ,    0 ,   43 ,    0 ,   79 ,   31 ,   60 ,    5 ,  214 ,  231 ,   62 ,  224 ,    8 ,  128 ,    0 ,    0 ,    0 ,  128 ,    0 ,    0 ,    0 ,    0 ,    9 ,    9 ,    0 ,    0 ,    0 ,    0 ,    0 ,  217 ,  254 ,   62 ,  224 ,   40 ,    8 ,    0 ,  248 ,  101 ,  235 ,  230 ,    6 ,   95 ,  156 ,  163 
E: 000000.145419 64 01 83 80 81 7f 00 00 68 08 00 00 00 45 98 2a eb f5 ff ee ff 0a 00 2b 00 4f 1f 3c 05 d6 e7 3e e0 08 80 00 00 00 80 00 00 00 00 09 09 00 00 00 00 00 d9 fe 3e e0 28 08 00 f8 65 eb e6 06 5f 9c a3
# ReportID: 1 / X:  131 | Y:  128 | Z:  129 | Rz:  127 | Rx:    0 | Ry:    0 | 0xff000020:  105 | Hat switch:   8 | Button: 0  0  0  0  0  0  0  0  0  0  0  0  0  0  0 | 0xff000021: 0 , 0 , 0 , 0 , 0 , 0 , 0 , 0 , 0 , 0 , 0 , 0 , 0 | 0xff000022:   70 ,  152 ,   42 ,  235 ,  245 ,  255 ,  239 ,  255 ,    8 ,    0 ,   37 ,    0 ,   81 ,   31 ,   60 ,    5 ,  201 ,   22 ,   63 ,  224 ,    8 ,  128 ,    0 ,    0 ,    0 ,  128 ,    0 ,    0 ,    0 ,    0 ,    9 ,    9 ,    0 ,    0 ,    0 ,    0 ,    0 ,  185 ,   45 ,   63 ,  224 ,   40 ,    8 ,    0 ,  215 ,   52 ,  153 ,  158 ,  117 ,  199 ,  181 ,  127 
E: 000000.149126 64 01 83 80 81 7f 00 00 69 08 00 00 00 46 98 2a eb f5 ff ef ff 08 00 25 00 51 1f 3c 05 c9 16 3f e0 08 80 00 00 00 80 00 00 00 00 09 09 00 00 00 00 00 b9 2d 3f e0 28 08 00 d7 34 99 9e 75 c7 b5 7f
# ReportID: 1 / X:  131 | Y:  128 | Z:  129 | Rz:  127 | Rx:    0 | Ry:    0 | 0xff000020:  106 | Hat switch:   8 | Button: 0  0  0  0  0  0  0  0  0  0  0  0  0  0  0 | 0xff000021: 0 , 0 , 0 , 0 , 0 , 0 , 0 , 0 , 0 , 0 , 0 , 0 , 0 | 0xff000022:   71 ,  152 ,   42 ,  235 ,  247 ,  255 ,  238 ,  255 ,   11 ,    0 ,   37 ,    0 ,   80 ,   31 ,   66 ,    5 ,  188 ,   69 ,   63 ,  224 ,    8 ,  128 ,    0 ,    0 ,    0 ,  128 ,    0 ,    0 ,    0 ,    0 ,    9 ,    9 ,    0 ,    0 ,    0 ,    0 ,    0 ,  153 ,   92 ,   63 ,  224 ,   40 ,    8 ,    0 ,  119 ,  136 ,   45 ,   49 ,  163 ,  173 ,  170 ,  131 
E: 000000.154269 64 01 83 80 81 7f 00 00 6a 08 00 00 00 47 98 2a eb f7 ff ee ff 0b 00 25 00 50 1f 42 05 bc 45 3f e0 08 80 00 00 00 80 00 00 00 00 09 09 00 00 00 00 00 99 5c 3f e0 28 08 00 77 88 2d 31 a3 ad aa 83
# ReportID: 1 / X:  131 | Y:  128 | Z:  129 | Rz:  127 | Rx:    0 | Ry:    0 | 0xff000020:  107 | Hat switch:   8 | Button: 0  0  0  0  0  0  0  0  0  0  0  0  0  0  0 | 0xff000021: 0 , 0 , 0 , 0 , 0 , 0 , 0 , 0 , 0 , 0 , 0 , 0 , 0 | 0xff000022:   72 ,  152 ,   42 ,  235 ,  246 ,  255 ,  238 ,  255 ,   10 ,    0 ,   38 ,    0 ,   74 ,   31 ,   68 ,    5 ,  175 ,  116 ,   63 ,  224 ,    8 ,  128 ,    0 ,    0 ,    0 ,  128 ,    0 ,    0 ,    0 ,    0 ,    9 ,    9 ,    0 ,    0 ,    0 ,    0 ,    0 ,  121 ,  139 ,   63 ,  224 ,   40 ,    8 ,    0 ,  244 ,  214 ,   29 ,  219 ,  187 ,  157 ,   80 ,  131 
E: 000000.156653 64 01 83 80 81 7f 00 00 6b 08 00 00 00 48 98 2a eb f6 ff ee ff 0a 00 26 00 4a 1f 44 05 af 74 3f e0 08 80 00 00 00 80 00 00 00 00 09 09 00 00 00 00 00 79 8b 3f e0 28 08 00 f4 d6 1d db bb 9d 50 83
# ReportID: 1 / X:  131 | Y:  128 | Z:  129 | Rz:  127 | Rx:    0 | Ry:    0 | 0xff000020:  108 | Hat switch:   8 | Button: 0  0  0  0  0  0  0  0  0  0  0  0  0  0  0 | 0xff000021: 0 , 0 , 0 , 0 , 0 , 0 , 0 , 0 , 0 , 0 , 0 , 0 , 0 | 0xff000022:   73 ,  152 ,   42 ,  235 ,  247 ,  255 ,  238 ,  255 ,    9 ,    0 ,   35 ,    0 ,   72 ,   31 ,   70 ,    5 ,  162 ,  163 ,   63 ,  224 ,    8 ,  128 ,    0 ,    0 ,    0 ,  128 ,    0 ,    0 ,    0 ,    0 ,    9 ,    9 ,    0 ,    0 ,    0 ,    0 ,    0 ,   89 ,  186 ,   63 ,  224 ,   40 ,    8 ,    0 ,  142 ,  134 ,  107 ,  175 ,  219 ,   43 ,   85 ,   96 
E: 000000.160939 64 01 83 80 81 7f 00 00 6c 08 00 00 00 49 98 2a eb f7 ff ee ff 09 00 23 00 48 1f 46 05 a2 a3 3f e0 08 80 00 00 00 80 00 00 00 00 09 09 00 00 00 00 00 59 ba 3f e0 28 08 00 8e 86 6b af db 2b 55 60
# ReportID: 1 / X:  131 | Y:  128 | Z:  129 | Rz:  127 | Rx:    0 | Ry:    0 | 0xff000020:  109 | Hat switch:   8 | Button: 0  0  0  0  0  0  0  0  0  0  0  0  0  0  0 | 0xff000021: 0 , 0 , 0 , 0 , 0 , 0 , 0 , 0 , 0 , 0 , 0 , 0 , 0 | 0xff000022:   74 ,  152 ,   42 ,  235 ,  246 ,  255 ,  238 ,  255 ,    9 ,    0 ,   41 ,    0 ,   93 ,   31 ,   72 ,    5 ,  149 ,  210 ,   63 ,  224 ,    8 ,  128 ,    0 ,    0 ,    0 ,  128 ,    0 ,    0 ,    0 ,    0 ,    9 ,    9 ,    0 ,    0 ,    0 ,    0 ,    0 ,   57 ,  233 ,   63 ,  224 ,   40 ,    8 ,    0 ,  215 ,   26 ,   83 ,  119 ,  179 ,   95 ,   72 ,  225 
E: 000000.164917 64 01 83 80 81 7f 00 00 6d 08 00 00 00 4a 98 2a eb f6 ff ee ff 09 00 29 00 5d 1f 48 05 95 d2 3f e0 08 80 00 00 00 80 00 00 00 00 09 09 00 00 00 00 00 39 e9 3f e0 28 08 00 d7 1a 53 77 b3 5f 48 e1
# ReportID: 1 / X:  131 | Y:  128 | Z:  130 | Rz:  127 | Rx:    0 | Ry:    0 | 0xff000020:  110 | Hat switch:   8 | Button: 0  0  0  0  0  0  0  0  0  0  0  0  0  0  0 | 0xff000021: 0 , 0 , 0 , 0 , 0 , 0 , 0 , 0 , 0 , 0 , 0 , 0 , 0 | 0xff000022:   75 ,  152 ,   42 ,  235 ,  246 ,  255 ,  238 ,  255 ,   10 ,    0 ,   48 ,    0 ,   93 ,   31 ,   77 ,    5 ,  137 ,    1 ,   64 ,  224 ,    8 ,  128 ,    0 ,    0 ,    0 ,  128 ,    0 ,    0 ,    0 ,    0 ,    9 ,    9 ,    0 ,    0 ,    0 ,    0 ,    0 ,   25 ,   24 ,   64 ,  224 ,   40 ,    8 ,    0 ,  113 ,  210 ,  241 ,    2 ,  123 ,   15 ,  126 ,   54 
E: 000000.170361 64 01 83 80 82 7f 00 00 6e 08 00 00 00 4b 98 2a eb f6 ff ee ff 0a 00 30 00 5d 1f 4d 05 89 01 40 e0 08 80 00 00 00 80 00 00 00 00 09 09 00 00 00 00 00 19 18 40 e0 28 08 00 71 d2 f1 02 7b 0f 7e 36
# ReportID: 1 / X:  131 | Y:  128 | Z:  129 | Rz:  127 | Rx:    0 | Ry:    0 | 0xff000020:  111 | Hat switch:   8 | Button: 0  0  0  0  0  0  0  0  0  0  0  0  0  0  0 | 0xff000021: 0 , 0 , 0 , 0 , 0 , 0 , 0 , 0 , 0 , 0 , 0 , 0 , 0 | 0xff000022:   76 ,  152 ,   42 ,  235 ,  246 ,  255 ,  238 ,  255 ,   10 ,    0 ,   44 ,    0 ,   76 ,   31 ,   73 ,    5 ,  124 ,   48 ,   64 ,  224 ,    8 ,  128 ,    0 ,    0 ,    0 ,  128 ,    0 ,    0 ,    0 ,    0 ,    9 ,    9 ,    0 ,    0 ,    0 ,    0 ,    0 ,  249 ,   70 ,   64 ,  224 ,   40 ,    8 ,    0 ,   40 ,  121 ,  172 ,  113 ,  184 ,  138 ,  136 ,  118 
E: 000000.174117 64 01 83 80 81 7f 00 00 6f 08 00 00 00 4c 98 2a eb f6 ff ee ff 0a 00 2c 00 4c 1f 49 05 7c 30 40 e0 08 80 00 00 00 80 00 00 00 00 09 09 00 00 00 00 00 f9 46 40 e0 28 08 00 28 79 ac 71 b8 8a 88 76
# ReportID: 1 / X:  131 | Y:  128 | Z:  130 | Rz:  127 | Rx:    0 | Ry:    0 | 0xff000020:  112 | Hat switch:   8 | Button: 0  0  0  0  0  0  0  0  0  0  0  0  0  0  0 | 0xff000021: 0 , 0 , 0 , 0 , 0 , 0 , 0 , 0 , 0 , 0 , 0 , 0 , 0 | 0xff000022:   77 ,  152 ,   42 ,  235 ,  247 ,  255 ,  239 ,  255 ,   10 ,    0 ,   45 ,    0 ,   67 ,   31 ,   80 ,    5 ,  111 ,   95 ,   64 ,  224 ,    8 ,  128 ,    0 ,    0 ,    0 ,  128 ,    0 ,    0 ,    0 ,    0 ,    9 ,    9 ,    0 ,    0 ,    0 ,    0 ,    0 ,  217 ,  117 ,   64 ,  224 ,   40 ,    8 ,    0 ,  200 ,  101 ,   47 ,    7 ,  180 ,  139 ,   96 ,  142 
E: 000000.176816 64 01 83 80 82 7f 00 00 70 08 00 00 00 4d 98 2a eb f7 ff ef ff 0a 00 2d 00 43 1f 50 05 6f 5f 40 e0 08 80 00 00 00 80 00 00 00 00 09 09 00 00 00 00 00 d9 75 40 e0 28 08 00 c8 65 2f 07 b4 8b 60 8e
# ReportID: 1 / X:  131 | Y:  128 | Z:  129 | Rz:  127 | Rx:    0 | Ry:    0 | 0xff000020:  113 | Hat switch:   8 | Button: 0  0  0  0  0  0  0  0  0  0  0  0  0  0  0 | 0xff000021: 0 , 0 , 0 , 0 , 0 , 0 , 0 , 0 , 0 , 0 , 0 , 0 , 0 | 0xff000022:   78 ,  152 ,   42 ,  235 ,  247 ,  255 ,  238 ,  255 ,   11 ,    0 ,   57 ,    0 ,   64 ,   31 ,   73 ,    5 ,   98 ,  142 ,   64 ,  224 ,    8 ,  128 ,    0 ,    0 ,    0 ,  128 ,    0 ,    0 ,    0 ,    0 ,    9 ,    9 ,    0 ,    0 ,    0 ,    0 ,    0 ,  185 ,  164 ,   64 ,  224 ,   40 ,    8 ,    0 ,   43 ,  125 ,   74 ,   39 ,   95 ,  192 ,   80 ,   27 
E: 000000.180868 64 01 83 80 81 7f 00 00 71 08 00 00 00 4e 98 2a eb f7 ff ee ff 0b 00 39 00 40 1f 49 05 62 8e 40 e0 08 80 00 00 00 80 00 00 00 00 09 09 00 00 00 00 00 b9 a4 40 e0 28 08 00 2b 7d 4a 27 5f c0 50 1b
# ReportID: 1 / X:  131 | Y:  128 | Z:  130 | Rz:  127 | Rx:    0 | Ry:    0 | 0xff000020:  114 | Hat switch:   8 | Button: 0  0  0  0  0  0  0  0  0  0  0  0  0  0  0 | 0xff000021: 0 , 0 , 0 , 0 , 0 , 0 , 0 , 0 , 0 , 0 , 0 , 0 , 0 | 0xff000022:   79 ,  152 ,   42 ,  235 ,  248 ,  255 ,  239 ,  255 ,   10 ,    0 ,   58 ,    0 ,   62 ,   31 ,   67 ,    5 ,   85 ,  189 ,   64 ,  224 ,    8 ,  128 ,    0 ,    0 ,    0 ,  128 ,    0 ,    0 ,    0 ,    0 ,    9 ,    9 ,    0 ,    0 ,    0 ,    0 ,    0 ,  153 ,  211 ,   64 ,  224 ,   40 ,    8 ,    0 ,  202 ,  208 ,   21 ,  172 ,  143 ,  242 ,  223 ,   35 
E: 000000.185977 64 01 83 80 82 7f 00 00 72 08 00 00 00 4f 98 2a eb f8 ff ef ff 0a 00 3a 00 3e 1f 43 05 55 bd 40 e0 08 80 00 00 00 80 00 00 00 00 09 09 00 00 00 00 00 99 d3 40 e0 28 08 00 ca d0 15 ac 8f f2 df 23
# ReportID: 1 / X:  131 | Y:  128 | Z:  129 | Rz:  127 | Rx:    0 | Ry:    0 | 0xff000020:  115 | Hat switch:   8 | Button: 0  0  0  0  0  0  0  0  0  0  0  0  0  0  0 | 0xff000021: 0 , 0 , 0 , 0 , 0 , 0 , 0 , 0 , 0 , 0 , 0 , 0 , 0 | 0xff000022:   80 ,  152 ,   42 ,  235 ,  248 ,  255 ,  239 ,  255 ,   11 ,    0 ,   52 ,    0 ,   76 ,   31 ,   73 ,    5 ,   72 ,  236 ,   64 ,  224 ,    8 ,  128 ,    0 ,    0 ,    0 ,  128 ,    0 ,    0 ,    0 ,    0 ,    9 ,    9 ,    0 ,    0 ,    0 ,    0 ,    0 ,  121 ,    2 ,   65 ,  224 ,   40 ,    8 ,    0 ,   84 ,  127 ,  201 ,  245 ,    4 ,   73 ,   93 ,  206 
E: 000000.189570 64 01 83 80 81 7f 00 00 73 08 00 00 00 50 98 2a eb f8 ff ef ff 0b 00 34 00 4c 1f 49 05 48 ec 40 e0 08 80 00 00 00 80 00 00 00 00 09 09 00 00 00 00 00 79 02 41 e0 28 08 00 54 7f c9 f5 04 49 5d ce
# ReportID: 1 / X:  131 | Y:  128 | Z:  129 | Rz:  127 | Rx:    0 | Ry:    0 | 0xff000020:  116 | Hat switch:   8 | Button: 0  0  0  0  0  0  0  0  0  0  0  0  0  0  0 | 0xff000021: 0 , 0 , 0 , 0 , 0 , 0 , 0 , 0 , 0 , 0 , 0 , 0 , 0 | 0xff000022:   81 ,  152 ,   42 ,  235 ,  248 ,  255 ,  237 ,  255 ,    9 ,    0 ,   56 ,    0 ,   81 ,   31 ,   65 ,    5 ,   60 ,   27 ,   65 ,  224 ,    8 ,  128 ,    0 ,    0 ,    0 ,  128 ,    0 ,    0 ,    0 ,    0 ,    9 ,    9 ,    0 ,    0 ,    0 ,    0 ,    0 ,   89 ,   49 ,   65 ,  224 ,   40 ,    8 ,    0 ,   16 ,  191 ,   57 ,    3 ,  240 ,   64 ,   41 ,  193 
E: 000000.192993 64 01 83 80 81 7f 00 00 74 08 00 00 00 51 98 2a eb f8 ff ed ff 09 00 38 00 51 1f 41 05 3c 1b 41 e0 08 80 00 00 00 80 00 00 00 00 09 09 00 00 00 00 00 59 31 41 e0 28 08 00 10 bf 39 03 f0 40 29 c1
# ReportID: 1 / X:  131 | Y:  128 | Z:  129 | Rz:  127 | Rx:    0 | Ry:    0 | 0xff000020:  117 | Hat switch:   8 | Button: 0  0  0  0  0  0  0  0  0  0  0  0  0  0  0 | 0xff000021: 0 , 0 , 0 , 0 , 0 , 0 , 0 , 0 , 0 , 0 , 0 , 0 , 0 | 0xff000022:   82 ,  152 ,   42 ,  235 ,  246 ,  255 ,  239 ,  255 ,   10 ,    0 ,   59 ,    0 ,   84 ,   31 ,   64 ,    5 ,   47 ,   74 ,   65 ,  224 ,    8 ,  128 ,    0 ,    0 ,    0 ,  128 ,    0 ,    0 ,    0 ,    0 ,    9 ,    9 ,    0 ,    0 ,    0 ,    0 ,    0 ,   57 ,   96 ,   65 ,  224 ,   40 ,    8 ,    0 ,   41 ,   17 ,  205 ,  239 ,   66 ,  157 ,  203 ,  159 
E: 000000.198582 64 01 83 80 81 7f 00 00 75 08 00 00 00 52 98 2a eb f6 ff ef ff 0a 00 3b 00 54 1f 40 05 2f 4a 41 e0 08 80 00 00 00 80 00 00 00 00 09 09 00 00 00 00 00 39 60 41 e0 28 08 00 29 11 cd ef 42 9d cb 9f
# ReportID: 1 / X:  131 | Y:  128 | Z:  129 | Rz:  127 | Rx:    0 | Ry:    0 | 0xff000020:  118 | Hat switch:   8 | Button: 0  0  0  0  0  0  0  0  0  0  0  0  0  0  0 | 0xff000021: 0 , 0 , 0 , 0 , 0 , 0 , 0 , 0 , 0 , 0 , 0 , 0 , 0 | 0xff000022:   83 ,  152 ,   42 ,  235 ,  248 ,  255 ,  238 ,  255 ,   11 ,    0 ,   57 ,    0 ,   82 ,   31 ,   59 ,    5 ,   36 ,  121 ,   65 ,  224 ,    8 ,  128 ,    0 ,    0 ,    0 ,  128 ,    0 ,    0 ,    0 ,    0 ,    9 ,    9 ,    0 ,    0 ,    0 ,    0 ,    0 ,   25 ,  143 ,   65 ,  224 ,   40 ,    8 ,    0 ,  234 ,   54 ,  144 ,  183 ,   22 ,   38 ,  247 ,  140 
E: 000000.202161 64 01 83 80 81 7f 00 00 76 08 00 00 00 53 98 2a eb f8 ff ee ff 0b 00 39 00 52 1f 3b 05 24 79 41 e0 08 80 00 00 00 80 00 00 00 00 09 09 00 00 00 00 00 19 8f 41 e0 28 08 00 ea 36 90 b7 16 26 f7 8c
# ReportID: 1 / X:  131 | Y:  128 | Z:  129 | Rz:  127 | Rx:    0 | Ry:    0 | 0xff000020:  119 | Hat switch:   8 | Button: 0  0  0  0  0  0  0  0  0  0  0  0  0  0  0 | 0xff000021: 0 , 0 , 0 , 0 , 0 , 0 , 0 , 0 , 0 , 0 , 0 , 0 , 0 | 0xff000022:   84 ,  152 ,   42 ,  235 ,  247 ,  255 ,  238 ,  255 ,   11 ,    0 ,   59 ,    0 ,   68 ,   31 ,   62 ,    5 ,   26 ,  168 ,   65 ,  224 ,    8 ,  128 ,    0 ,    0 ,    0 ,  128 ,    0 ,    0 ,    0 ,    0 ,    9 ,    9 ,    0 ,    0 ,    0 ,    0 ,    0 ,  249 ,  189 ,   65 ,  224 ,   40 ,    8 ,    0 ,   35 ,   52 ,  113 ,  155 ,   57 ,   84 ,  121 ,  250 
E: 000000.205295 64 01 83 80 81 7f 00 00 77 08 00 00 00 54 98 2a eb f7 ff ee ff 0b 00 3b 00 44 1f 3e 05 1a a8 41 e0 08 80 00 00 00 80 00 00 00 00 09 09 00 00 00 00 00 f9 bd 41 e0 28 08 00 23 34 71 9b 39 54 79 fa
# ReportID: 1 / X:  131 | Y:  128 | Z:  129 | Rz:  127 | Rx:    0 | Ry:    0 | 0xff000020:  120 | Hat switch:   8 | Button: 0  0  0  0  0  0  0  0  0  0  0  0  0  0  0 | 0xff000021: 0 , 0 , 0 , 0 , 0 , 0 , 0 , 0 , 0 , 0 , 0 , 0 , 0 | 0xff000022:   85 ,  152 ,   42 ,  235 ,  247 ,  255 ,  238 ,  255 ,   10 ,    0 ,   57 ,    0 ,   82 ,   31 ,   57 ,    5 ,   12 ,  215 ,   65 ,  224 ,    8 ,  128 ,    0 ,    0 ,    0 ,  128 ,    0 ,    0 ,    0 ,    0 ,    9 ,    9 ,    0 ,    0 ,    0 ,    0 ,    0 ,  217 ,  236 ,   65 ,  224 ,   40 ,    8 ,    0 ,  175 ,   93 ,  225 ,   75 ,  146 ,   22 ,  189 ,   36 
E: 000000.208885 64 01 83 80 81 7f 00 00 78 08 00 00 00 55 98 2a eb f7 ff ee ff 0a 00 39 00 52 1f 39 05 0c d7 41 e0 08 80 00 00 00 80 00 00 00 00 09 09 00 00 00 00 00 d9 ec 41 e0 28 08 00 af 5d e1 4b 92 16 bd 24
# ReportID: 1 / X:  131 | Y:  128 | Z:  130 | Rz:  127 | Rx:    0 | Ry:    0 | 0xff000020:  121 | Hat switch:   8 | Button: 0  0  0  0  0  0  0  0  0  0  0  0  0  0  0 | 0xff000021: 0 , 0 , 0 , 0 , 0 , 0 , 0 , 0 , 0 , 0 , 0 , 0 , 0 | 0xff000022:   86 ,  152 ,   42 ,  235 ,  248 ,  255 ,  239 ,  255 ,   10 ,    0 ,   57 ,    0 ,   97 ,   31 ,   60 ,    5 ,  251 ,    5 ,   66 ,  224 ,    8 ,  128 ,    0 ,    0 ,    0 ,  128 ,    0 ,    0 ,    0 ,    0 ,    9 ,    9 ,    0 ,    0 ,    0 ,    0 ,    0 ,  185 ,   27 ,   66 ,  224 ,   40 ,    8 ,    0 ,  137 ,  197 ,    1 ,  245 ,    8 ,  154 ,  150 ,  149 
E: 000000.212808 64 01 83 80 82 7f 00 00 79 08 00 00 00 56 98 2a eb f8 ff ef ff 0a 00 39 00 61 1f 3c 05 fb 05 42 e0 08 80 00 00 00 80 00 00 00 00 09 09 00 00 00 00 00 b9 1b 42 e0 28 08 00 89 c5 01 f5 08 9a 96 95
# ReportID: 1 / X:  131 | Y:  128 | Z:  129 | Rz:  127 | Rx:    0 | Ry:    0 | 0xff000020:  122 | Hat switch:   8 | Button: 0  0  0  0  0  0  0  0  0  0  0  0  0  0  0 | 0xff000021: 0 , 0 , 0 , 0 , 0 , 0 , 0 , 0 , 0 , 0 , 0 , 0 , 0 | 0xff000022:   87 ,  152 ,   42 ,  235 ,  247 ,  255 ,  237 ,  255 ,   10 ,    0 ,   64 ,    0 ,   89 ,   31 ,   50 ,    5 ,  239 ,   52 ,   66 ,  224 ,    8 ,  128 ,    0 ,    0 ,    0 ,  128 ,    0 ,    0 ,    0 ,    0 ,    9 ,    9 ,    0 ,    0 ,    0 ,    0 ,    0 ,  153 ,   74 ,   66 ,  224 ,   40 ,    8 ,    0 ,   56 ,   25 ,  209 ,  240 ,  144 ,   93 ,  188 ,    6 
E: 000000.216751 64 01 83 80 81 7f 00 00 7a 08 00 00 00 57 98 2a eb f7 ff ed ff 0a 00 40 00 59 1f 32 05 ef 34 42 e0 08 80 00 00 00 80 00 00 00 00 09 09 00 00 00 00 00 99 4a 42 e0 28 08 00 38 19 d1 f0 90 5d bc 06
# ReportID: 1 / X:  131 | Y:  128 | Z:  129 | Rz:  127 | Rx:    0 | Ry:    0 | 0xff000020:  123 | Hat switch:   8 | Button: 0  0  0  0  0  0  0  0  0  0  0  0  0  0  0 | 0xff000021: 0 , 0 , 0 , 0 , 0 , 0 , 0 , 0 , 0 , 0 , 0 , 0 , 0 | 0xff000022:   88 ,  152 ,   42 ,  235 ,  247 ,  255 ,  237 ,  255 ,   10 ,    0 ,   63 ,    0 ,   90 ,   31 ,   49 ,    5 ,  226 ,   99 ,   66 ,  224 ,    8 ,  128 ,    0 ,    0 ,    0 ,  128 ,    0 ,    0 ,    0 ,    0 ,    9 ,    9 ,    0 ,    0 ,    0 ,    0 ,    0 ,  121 ,  121 ,   66 ,  224 ,   40 ,    8 ,    0 ,  106 ,  187 ,  171 ,  242 ,    7 ,   87 ,  141 ,  109 
E: 000000.220860 64 01 83 80 81 7f 00 00 7b 08 00 00 00 58 98 2a eb f7 ff ed ff 0a 00 3f 00 5a 1f 31 05 e2 63 42 e0 08 80 00 00 00 80 00 00 00 00 09 09 00 00 00 00 00 79 79 42 e0 28 08 00 6a bb ab f2 07 57 8d 6d
# ReportID: 1 / X:  131 | Y:  128 | Z:  130 | Rz:  127 | Rx:    0 | Ry:    0 | 0xff000020:  124 | Hat switch:   8 | Button: 0  0  0  0  0  0  0  0  0  0  0  0  0  0  0 | 0xff000021: 0 , 0 , 0 , 0 , 0 , 0 , 0 , 0 , 0 , 0 , 0 , 0 , 0 | 0xff000022:   89 ,  152 ,   42 ,  235 ,  247 ,  255 ,  238 ,  255 ,   10 ,    0 ,   68 ,    0 ,   89 ,   31 ,   47 ,    5 ,  213 ,  146 ,   66 ,  224 ,    8 ,  128 ,    0 ,    0 ,    0 ,  128 ,    0 ,    0 ,    0 ,    0 ,    9 ,    9 ,    0 ,    0 ,    0 ,    0 ,    0 ,   89 ,  168 ,   66 ,  224 ,   40 ,    8 ,    0 ,  210 ,  230 ,   54 ,  143 ,   49 ,  180 ,   80 ,   35 
E: 000000.224860 64 01 83 80 82 7f 00 00 7c 08 00 00 00 59 98 2a eb f7 ff ee ff 0a 00 44 00 59 1f 2f 05 d5 92 42 e0 08 80 00 00 00 80 00 00 00 00 09 09 00 00 00 00 00 59 a8 42 e0 28 08 00 d2 e6 36 8f 31 b4 50 23
# ReportID: 1 / X:  131 | Y:  128 | Z:  129 | Rz:  127 | Rx:    0 | Ry:    0 | 0xff000020:  125 | Hat switch:   8 | Button: 0  0  0  0  0  0  0  0  0  0  0  0  0  0  0 | 0xff000021: 0 , 0 , 0 , 0 , 0 , 0 , 0 , 0 , 0 , 0 , 0 , 0 , 0 | 0xff000022:   90 ,  152 ,   42 ,  235 ,  247 ,  255 ,  240 ,  255 ,   10 ,    0 ,   55 ,    0 ,   85 ,   31 ,   39 ,    5 ,  200 ,  193 ,   66 ,  224 ,    8 ,  128 ,    0 ,    0 ,    0 ,  128 ,    0 ,    0 ,    0 ,    0 ,    9 ,    9 ,    0 ,    0 ,    0 ,    0 ,    0 ,   57 ,  215 ,   66 ,  224 ,   40 ,    8 ,    0 ,  164 ,  105 ,  250 ,  110 ,   32 ,  140 ,   30 ,  143 
E: 000000.229865 64 01 83 80 81 7f 00 00 7d 08 00 00 00 5a 98 2a eb f7 ff f0 ff 0a 00 37 00 55 1f 27 05 c8 c1 42 e0 08 80 00 00 00 80 00 00 00 00 09 09 00 00 00 00 00 39 d7 42 e0 28 08 00 a4 69 fa 6e 20 8c 1e 8f
# ReportID: 1 / X:  131 | Y:  128 | Z:  129 | Rz:  127 | Rx:    0 | Ry:    0 | 0xff000020:  126 | Hat switch:   8 | Button: 0  0  0  0  0  0  0  0  0  0  0  0  0  0  0 | 0xff000021: 0 , 0 , 0 , 0 , 0 , 0 , 0 , 0 , 0 , 0 , 0 , 0 , 0 | 0xff000022:   91 ,  152 ,   42 ,  235 ,  247 ,  255 ,  239 ,  255 ,   10 ,    0 ,   53 ,    0 ,   87 ,   31 ,   39 ,    5 ,  187 ,  240 ,   66 ,  224 ,    8 ,  128 ,    0 ,    0 ,    0 ,  128 ,    0 ,    0 ,    0 ,    0 ,    9 ,    9 ,    0 ,    0 ,    0 ,    0 ,    0 ,   25 ,    6 ,   67 ,  224 ,   40 ,    8 ,    0 ,  143 ,  146 ,  116 ,   59 ,  154 ,   70 ,   26 ,   55 
E: 000000.233456 64 01 83 80 81 7f 00 00 7e 08 00 00 00 5b 98 2a eb f7 ff ef ff 0a 00 35 00 57 1f 27 05 bb f0 42 e0 08 80 00 00 00 80 00 00 00 00 09 09 00 00 00 00 00 19 06 43 e0 28 08 00 8f 92 74 3b 9a 46 1a 37
# ReportID: 1 / X:  131 | Y:  128 | Z:  129 | Rz:  127 | Rx:    0 | Ry:    0 | 0xff000020:  127 | Hat switch:   8 | Button: 0  0  0  0  0  0  0  0  0  0  0  0  0  0  0 | 0xff000021: 0 , 0 , 0 , 0 , 0 , 0 , 0 , 0 , 0 , 0 , 0 , 0 , 0 | 0xff000022:   92 ,  152 ,   42 ,  235 ,  247 ,  255 ,  238 ,  255 ,   10 ,    0 ,   53 ,    0 ,   95 ,   31 ,   43 ,    5 ,  174 ,   31 ,   67 ,  224 ,    8 ,  128 ,    0 ,    0 ,    0 ,  128 ,    0 ,    0 ,    0 ,    0 ,    9 ,    9 ,    0 ,    0 ,    0 ,    0 ,    0 ,  249 ,   52 ,   67 ,  224 ,   40 ,    8 ,    0 ,   54 ,   94 ,   62 ,  168 ,  162 ,   11 ,  214 ,  163 
E: 000000.237190 64 01 83 80 81 7f 00 00 7f 08 00 00 00 5c 98 2a eb f7 ff ee ff 0a 00 35 00 5f 1f 2b 05 ae 1f 43 e0 08 80 00 00 00 80 00 00 00 00 09 09 00 00 00 00 00 f9 34 43 e0 28 08 00 36 5e 3e a8 a2 0b d6 a3
# ReportID: 1 / X:  131 | Y:  128 | Z:  129 | Rz:  127 | Rx:    0 | Ry:    0 | 0xff000020:  128 | Hat switch:   8 | Button: 0  0  0  0  0  0  0  0  0  0  0  0  0  0  0 | 0xff000021: 0 , 0 , 0 , 0 , 0 , 0 , 0 , 0 , 0 , 0 , 0 , 0 , 0 | 0xff000022:   93 ,  152 ,   42 ,  235 ,  246 ,  255 ,  239 ,  255 ,   10 ,    0 ,   50 ,    0 ,   88 ,   31 ,   38 ,    5 ,  161 ,   78 ,   67 ,  224 ,    8 ,  128 ,    0 ,    0 ,    0 ,  128 ,    0 ,    0 ,    0 ,    0 ,    9 ,    9 ,    0 ,    0 ,    0 ,    0 ,    0 ,  217 ,   99 ,   67 ,  224 ,   40 ,    8 ,    0 ,   84 ,   55 ,   93 ,  172 ,  137 ,  218 ,   95 ,  105 
E: 000000.240904 64 01 83 80 81 7f 00 00 80 08 00 00 00 5d 98 2a eb f6 ff ef ff 0a 00 32 00 58 1f 26 05 a1 4e 43 e0 08 80 00 00 00 80 00 00 00 00 09 09 00 00 00 00 00 d9 63 43 e0 28 08 00 54 37 5d ac 89 da 5f 69
# ReportID: 1 / X:  131 | Y:  128 | Z:  129 | Rz:  127 | Rx:    0 | Ry:    0 | 0xff000020:  129 | Hat switch:   8 | Button: 0  0  0  0  0  0  0  0  0  0  0  0  0  0  0 | 0xff000021: 0 , 0 , 0 , 0 , 0 , 0 , 0 , 0 , 0 , 0 , 0 , 0 , 0 | 0xff000022:   94 ,  152 ,   42 ,  235 ,  247 ,  255 ,  239 ,  255 ,   10 ,    0 ,   60 ,    0 ,   91 ,   31 ,   38 ,    5 ,  148 ,  125 ,   67 ,  224 ,    8 ,  128 ,    0 ,    0 ,    0 ,  128 ,    0 ,    0 ,    0 ,    0 ,    9 ,    9 ,    0 ,    0 ,    0 ,    0 ,    0 ,  185 ,  146 ,   67 ,  224 ,   40 ,    8 ,    0 ,  106 ,   28 ,  251 ,  200 ,   65 ,  155 ,  178 ,  155 
E: 000000.245427 64 01 83 80 81 7f 00 00 81 08 00 00 00 5e 98 2a eb f7 ff ef ff 0a 00 3c 00 5b 1f 26 05 94 7d 43 e0 08 80 00 00 00 80 00 00 00 00 09 09 00 00 00 00 00 b9 92 43 e0 28 08 00 6a 1c fb c8 41 9b b2 9b
# ReportID: 1 / X:  131 | Y:  128 | Z:  129 | Rz:  127 | Rx:    0 | Ry:    0 | 0xff000020:  130 | Hat switch:   8 | Button: 0  0  0  0  0  0  0  0  0  0  0  0  0  0  0 | 0xff000021: 0 , 0 , 0 , 0 , 0 , 0 , 0 , 0 , 0 , 0 , 0 , 0 , 0 | 0xff000022:   95 ,  152 ,   42 ,  235 ,  247 ,  255 ,  238 ,  255 ,    9 ,    0 ,   53 ,    0 ,   88 ,   31 ,   48 ,    5 ,  136 ,  172 ,   67 ,  224 ,    8 ,  128 ,    0 ,    0 ,    0 ,  128 ,    0 ,    0 ,    0 ,    0 ,    9 ,    9 ,    0 ,    0 ,    0 ,    0 ,    0 ,  153 ,  193 ,   67 ,  224 ,   40 ,    8 ,    0 ,  140 ,  251 ,  102 ,  187 ,  130 ,  182 ,   73 ,  197 
E: 000000.248852 64 01 83 80 81 7f 00 00 82 08 00 00 00 5f 98 2a eb f7 ff ee ff 09 00 35 00 58 1f 30 05 88 ac 43 e0 08 80 00 00 00 80 00 00 00 00 09 09 00 00 00 00 00 99 c1 43 e0 28 08 00 8c fb 66 bb 82 b6 49 c5
# ReportID: 1 / X:  131 | Y:  128 | Z:  129 | Rz:  127 | Rx:    0 | Ry:    0 | 0xff000020:  131 | Hat switch:   8 | Button: 0  0  0  0  0  0  0  0  0  0  0  0  0  0  0 | 0xff000021: 0 , 0 , 0 , 0 , 0 , 0 , 0 , 0 , 0 , 0 , 0 , 0 , 0 | 0xff000022:   96 ,  152 ,   42 ,  235 ,  248 ,  255 ,  239 ,  255 ,   11 ,    0 ,   45 ,    0 ,   87 ,   31 ,   38 ,    5 ,  123 ,  219 ,   67 ,  224 ,    8 ,  128 ,    0 ,    0 ,    0 ,  128 ,    0 ,    0 ,    0 ,    0 ,    9 ,    9 ,    0 ,    0 ,    0 ,    0 ,    0 ,  121 ,  240 ,   67 ,  224 ,   40 ,    8 ,    0 ,  204 ,  200 ,   18 ,   34 ,  189 ,  156 ,   49 ,  255 
E: 000000.252857 64 01 83 80 81 7f 00 00 83 08 00 00 00 60 98 2a eb f8 ff ef ff 0b 00 2d 00 57 1f 26 05 7b db 43 e0 08 80 00 00 00 80 00 00 00 00 09 09 00 00 00 00 00 79 f0 43 e0 28 08 00 cc c8 12 22 bd 9c 31 ff
# ReportID: 1 / X:  131 | Y:  128 | Z:  129 | Rz:  127 | Rx:    0 | Ry:    0 | 0xff000020:  132 | Hat switch:   8 | Button: 0  0  0  0  0  0  0  0  0  0  0  0  0  0  0 | 0xff000021: 0 , 0 , 0 , 0 , 0 , 0 , 0 , 0 , 0 , 0 , 0 , 0 , 0 | 0xff000022:   97 ,  152 ,   42 ,  235 ,  247 ,  255 ,  238 ,  255 ,   10 ,    0 ,   48 ,    0 ,   92 ,   31 ,   43 ,    5 ,  110 ,   10 ,   68 ,  224 ,    8 ,  128 ,    0 ,    0 ,    0 ,  128 ,    0 ,    0 ,    0 ,    0 ,    9 ,    9 ,    0 ,    0 ,    0 ,    0 ,    0 ,   89 ,   31 ,   68 ,  224 ,   40 ,    8 ,    0 ,  242 ,    2 ,   56 ,  158 ,    5 ,  173 ,    8 ,   65 
E: 000000.256766 64 01 83 80 81 7f 00 00 84 08 00 00 00 61 98 2a eb f7 ff ee ff 0a 00 30 00 5c 1f 2b 05 6e 0a 44 e0 08 80 00 00 00 80 00 00 00 00 09 09 00 00 00 00 00 59 1f 44 e0 28 08 00 f2 02 38 9e 05 ad 08 41
# ReportID: 1 / X:  131 | Y:  128 | Z:  129 | Rz:  127 | Rx:    0 | Ry:    0 | 0xff000020:  133 | Hat switch:   8 | Button: 0  0  0  0  0  0  0  0  0  0  0  0  0  0  0 | 0xff000021: 0 , 0 , 0 , 0 , 0 , 0 , 0 , 0 , 0 , 0 , 0 , 0 , 0 | 0xff000022:   98 ,  152 ,   42 ,  235 ,  246 ,  255 ,  239 ,  255 ,    9 ,    0 ,   49 ,    0 ,   84 ,   31 ,   52 ,    5 ,   97 ,   57 ,   68 ,  224 ,    8 ,  128 ,    0 ,    0 ,    0 ,  128 ,    0 ,    0 ,    0 ,    0 ,    9 ,    9 ,    0 ,    0 ,    0 ,    0 ,    0 ,   57 ,   78 ,   68 ,  224 ,   40 ,    8 ,    0 ,   53 ,  112 ,  137 ,  145 ,  168 ,  139 ,  247 ,  119 
E: 000000.260802 64 01 83 80 81 7f 00 00 85 08 00 00 00 62 98 2a eb f6 ff ef ff 09 00 31 00 54 1f 34 05 61 39 44 e0 08 80 00 00 00 80 00 00 00 00 09 09 00 00 00 00 00 39 4e 44 e0 28 08 00 35 70 89 91 a8 8b f7 77
# ReportID: 1 / X:  131 | Y:  128 | Z:  129 | Rz:  127 | Rx:    0 | Ry:    0 | 0xff000020:  134 | Hat switch:   8 | Button: 0  0  0  0  0  0  0  0  0  0  0  0  0  0  0 | 0xff000021: 0 , 0 , 0 , 0 , 0 , 0 , 0 , 0 , 0 , 0 , 0 , 0 , 0 | 0xff000022:   99 ,  152 ,   42 ,  235 ,  246 ,  255 ,  238 ,  255 ,   10 ,    0 ,   47 ,    0 ,   90 ,   31 ,   46 ,    5 ,   84 ,  104 ,   68 ,  224 ,    8 ,  128 ,    0 ,    0 ,    0 ,  128 ,    0 ,    0 ,    0 ,    0 ,    9 ,    9 ,    0 ,    0 ,    0 ,    0 ,    0 ,   25 ,  125 ,   68 ,  224 ,   40 ,    8 ,    0 ,    2 ,   80 ,  102 ,   22 ,  145 ,   73 ,  241 ,   49 
E: 000000.265089 64 01 83 80 81 7f 00 00 86 08 00 00 00 63 98 2a eb f6 ff ee ff 0a 00 2f 00 5a 1f 2e 05 54 68 44 e0 08 80 00 00 00 80 00 00 00 00 09 09 00 00 00 00 00 19 7d 44 e0 28 08 00 02 50 66 16 91 49 f1 31
# ReportID: 1 / X:  131 | Y:  128 | Z:  129 | Rz:  127 | Rx:    0 | Ry:    0 | 0xff000020:  135 | Hat switch:   8 | Button: 0  0  0  0  0  0  0  0  0  0  0  0  0  0  0 | 0xff000021: 0 , 0 , 0 , 0 , 0 , 0 , 0 , 0 , 0 , 0 , 0 , 0 , 0 | 0xff000022:  100 ,  152 ,   42 ,  235 ,  247 ,  255 ,  239 ,  255 ,   10 ,    0 ,   54 ,    0 ,   78 ,   31 ,   54 ,    5 ,   71 ,  151 ,   68 ,  224 ,    8 ,  128 ,    0 ,    0 ,    0 ,  128 ,    0 ,    0 ,    0 ,    0 ,    9 ,    9 ,    0 ,    0 ,    0 ,    0 ,    0 ,  249 ,  171 ,   68 ,  224 ,   40 ,    8 ,    0 ,  174 ,   91 ,  208 ,  232 ,   45 ,  136 ,   55 ,   66 
E: 000000.268806 64 01 83 80 81 7f 00 00 87 08 00 00 00 64 98 2a eb f7 ff ef ff 0a 00 36 00 4e 1f 36 05 47 97 44 e0 08 80 00 00 00 80 00 00 00 00 09 09 00 00 00 00 00 f9 ab 44 e0 28 08 00 ae 5b d0 e8 2d 88 37 42
# ReportID: 1 / X:  131 | Y:  128 | Z:  130 | Rz:  127 | Rx:    0 | Ry:    0 | 0xff000020:  136 | Hat switch:   8 | Button: 0  0  0  0  0  0  0  0  0  0  0  0  0  0  0 | 0xff000021: 0 , 0 , 0 , 0 , 0 , 0 , 0 , 0 , 0 , 0 , 0 , 0 , 0 | 0xff000022:  101 ,  152 ,   42 ,  235 ,  247 ,  255 ,  239 ,  255 ,   10 ,    0 ,   52 ,    0 ,   78 ,   31 ,   59 ,    5 ,   58 ,  198 ,   68 ,  224 ,    8 ,  128 ,    0 ,    0 ,    0 ,  128 ,    0 ,    0 ,    0 ,    0 ,    9 ,    9 ,    0 ,    0 ,    0 ,    0 ,    0 ,  217 ,  218 ,   68 ,  224 ,   40 ,    8 ,    0 ,  117 ,  250 ,  112 ,   23 ,  138 ,   55 ,  106 ,  217 
E: 000000.272810 64 01 83 80 82 7f 00 00 88 08 00 00 00 65 98 2a eb f7 ff ef ff 0a 00 34 00 4e 1f 3b 05 3a c6 44 e0 08 80 00 00 00 80 00 00 00 00 09 09 00 00 00 00 00 d9 da 44 e0 28 08 00 75 fa 70 17 8a 37 6a d9
# ReportID: 1 / X:  131 | Y:  128 | Z:  129 | Rz:  127 | Rx:    0 | Ry:    0 | 0xff000020:  137 | Hat switch:   8 | Button: 0  0  0  0  0  0  0  0  0  0  0  0  0  0  0 | 0xff000021: 0 , 0 , 0 , 0 , 0 , 0 , 0 , 0 , 0 , 0 , 0 , 0 , 0 | 0xff000022:  102 ,  152 ,   42 ,  235 ,  246 ,  255 ,  238 ,  255 ,   10 ,    0 ,   50 ,    0 ,   84 ,   31 ,   58 ,    5 ,   46 ,  245 ,   68 ,  224 ,    8 ,  128 ,    0 ,    0 ,    0 ,  128 ,    0 ,    0 ,    0 ,    0 ,    9 ,    9 ,    0 ,    0 ,    0 ,    0 ,    0 ,  185 ,    9 ,   69 ,  224 ,   40 ,    8 ,    0 ,  245 ,  240 ,  104 ,  100 ,   15 ,  186 ,  111 ,   38 
E: 000000.276943 64 01 83 80 81 7f 00 00 89 08 00 00 00 66 98 2a eb f6 ff ee ff 0a 00 32 00 54 1f 3a 05 2e f5 44 e0 08 80 00 00 00 80 00 00 00 00 09 09 00 00 00 00 00 b9 09 45 e0 28 08 00 f5 f0 68 64 0f ba 6f 26
# ReportID: 1 / X:  131 | Y:  128 | Z:  129 | Rz:  127 | Rx:    0 | Ry:    0 | 0xff000020:  138 | Hat switch:   8 | Button: 0  0  0  0  0  0  0  0  0  0  0  0  0  0  0 | 0xff000021: 0 , 0 , 0 , 0 , 0 , 0 , 0 , 0 , 0 , 0 , 0 , 0 , 0 | 0xff000022:  103 ,  152 ,   42 ,  235 ,  246 ,  255 ,  239 ,  255 ,   10 ,    0 ,   44 ,    0 ,   78 ,   31 ,   53 ,    5 ,   33 ,   36 ,   69 ,  224 ,    8 ,  128 ,    0 ,    0 ,    0 ,  128 ,    0 ,    0 ,    0 ,    0 ,    9 ,    9 ,    0 ,    0 ,    0 ,    0 ,    0 ,  153 ,   56 ,   69 ,  224 ,   40 ,    8 ,    0 ,  253 ,  134 ,  232 ,   95 ,   15 ,   37 ,  187 ,  130 
E: 000000.280832 64 01 83 80 81 7f 00 00 8a 08 00 00 00 67 98 2a eb f6 ff ef ff 0a 00 2c 00 4e 1f 35 05 21 24 45 e0 08 80 00 00 00 80 00 00 00 00 09 09 00 00 00 00 00 99 38 45 e0 28 08 00 fd 86 e8 5f 0f 25 bb 82
# ReportID: 1 / X:  131 | Y:  128 | Z:  129 | Rz:  127 | Rx:    0 | Ry:    0 | 0xff000020:  139 | Hat switch:   8 | Button: 0  0  0  0  0  0  0  0  0  0  0  0  0  0  0 | 0xff000021: 0 , 0 , 0 , 0 , 0 , 0 , 0 , 0 , 0 , 0 , 0 , 0 , 0 | 0xff000022:  104 ,  152 ,   42 ,  235 ,  246 ,  255 ,  238 ,  255 ,   10 ,    0 ,   53 ,    0 ,   80 ,   31 ,   54 ,    5 ,   20 ,   83 ,   69 ,  224 ,    8 ,  128 ,    0 ,    0 ,    0 ,  128 ,    0 ,    0 ,    0 ,    0 ,    9 ,    9 ,    0 ,    0 ,    0 ,    0 ,    0 ,  121 ,  103 ,   69 ,  224 ,   40 ,    8 ,    0 ,  182 ,  198 ,  133 ,   18 ,   24 ,   18 ,  196 ,   71 
E: 000000.284909 64 01 83 80 81 7f 00 00 8b 08 00 00 00 68 98 2a eb f6 ff ee ff 0a 00 35 00 50 1f 36 05 14 53 45 e0 08 80 00 00 00 80 00 00 00 00 09 09 00 00 00 00 00 79 67 45 e0 28 08 00 b6 c6 85 12 18 12 c4 47
# ReportID: 1 / X:  131 | Y:  128 | Z:  129 | Rz:  127 | Rx:    0 | Ry:    0 | 0xff000020:  140 | Hat switch:   8 | Button: 0  0  0  0  0  0  0  0  0  0  0  0  0  0  0 | 0xff000021: 0 , 0 , 0 , 0 , 0 , 0 , 0 , 0 , 0 , 0 , 0 , 0 , 0 | 0xff000022:  105 ,  152 ,   42 ,  235 ,  247 ,  255 ,  239 ,  255 ,   11 ,    0 ,   49 ,    0 ,   84 ,   31 ,   63 ,    5 ,    7 ,  130 ,   69 ,  224 ,    8 ,  128 ,    0 ,    0 ,    0 ,  128 ,    0 ,    0 ,    0 ,    0 ,    9 ,    9 ,    0 ,    0 ,    0 ,    0 ,    0 ,   89 ,  150 ,   69 ,  224 ,   40 ,    8 ,    0 ,  241 ,  122 ,   81 ,  232 ,  128 ,   97 ,    5 ,  252 
E: 000000.288866 64 01 83 80 81 7f 00 00 8c 08 00 00 00 69 98 2a eb f7 ff ef ff 0b 00 31 00 54 1f 3f 05 07 82 45 e0 08 80 00 00 00 80 00 00 00 00 09 09 00 00 00 00 00 59 96 45 e0 28 08 00 f1 7a 51 e8 80 61 05 fc
# ReportID: 1 / X:  131 | Y:  128 | Z:  129 | Rz:  127 | Rx:    0 | Ry:    0 | 0xff000020:  141 | Hat switch:   8 | Button: 0  0  0  0  0  0  0  0  0  0  0  0  0  0  0 | 0xff000021: 0 , 0 , 0 , 0 , 0 , 0 , 0 , 0 , 0 , 0 , 0 , 0 , 0 | 0xff000022:  106 ,  152 ,   42 ,  235 ,  247 ,  255 ,  239 ,  255 ,    9 ,    0 ,   55 ,    0 ,   90 ,   31 ,   59 ,    5 ,  250 ,  176 ,   69 ,  224 ,    8 ,  128 ,    0 ,    0 ,    0 ,  128 ,    0 ,    0 ,    0 ,    0 ,    9 ,    9 ,    0 ,    0 ,    0 ,    0 ,    0 ,   57 ,  197 ,   69 ,  224 ,   40 ,    8 ,    0 ,  194 ,  169 ,  221 ,    2 ,  213 ,  219 ,  170 ,   78 
E: 000000.292806 64 01 83 80 81 7f 00 00 8d 08 00 00 00 6a 98 2a eb f7 ff ef ff 09 00 37 00 5a 1f 3b 05 fa b0 45 e0 08 80 00 00 00 80 00 00 00 00 09 09 00 00 00 00 00 39 c5 45 e0 28 08 00 c2 a9 dd 02 d5 db aa 4e
# ReportID: 1 / X:  131 | Y:  128 | Z:  129 | Rz:  127 | Rx:    0 | Ry:    0 | 0xff000020:  142 | Hat switch:   8 | Button: 0  0  0  0  0  0  0  0  0  0  0  0  0  0  0 | 0xff000021: 0 , 0 , 0 , 0 , 0 , 0 , 0 , 0 , 0 , 0 , 0 , 0 , 0 | 0xff000022:  107 ,  152 ,   42 ,  235 ,  246 ,  255 ,  238 ,  255 ,   10 ,    0 ,   53 ,    0 ,   79 ,   31 ,   59 ,    5 ,  237 ,  223 ,   69 ,  224 ,    8 ,  128 ,    0 ,    0 ,    0 ,  128 ,    0 ,    0 ,    0 ,    0 ,    9 ,    9 ,    0 ,    0 ,    0 ,    0 ,    0 ,   25 ,  244 ,   69 ,  224 ,   40 ,    8 ,    0 ,  130 ,   59 ,   75 ,   96 ,  140 ,   80 ,  193 ,  138 
E: 000000.296824 64 01 83 80 81 7f 00 00 8e 08 00 00 00 6b 98 2a eb f6 ff ee ff 0a 00 35 00 4f 1f 3b 05 ed df 45 e0 08 80 00 00 00 80 00 00 00 00 09 09 00 00 00 00 00 19 f4 45 e0 28 08 00 82 3b 4b 60 8c 50 c1 8a
# ReportID: 1 / X:  131 | Y:  128 | Z:  130 | Rz:  127 | Rx:    0 | Ry:    0 | 0xff000020:  143 | Hat switch:   8 | Button: 0  0  0  0  0  0  0  0  0  0  0  0  0  0  0 | 0xff000021: 0 , 0 , 0 , 0 , 0 , 0 , 0 , 0 , 0 , 0 , 0 , 0 , 0 | 0xff000022:  108 ,  152 ,   42 ,  235 ,  246 ,  255 ,  238 ,  255 ,   10 ,    0 ,   54 ,    0 ,   83 ,   31 ,   60 ,    5 ,  224 ,   14 ,   70 ,  224 ,    8 ,  128 ,    0 ,    0 ,    0 ,  128 ,    0 ,    0 ,    0 ,    0 ,    9 ,    9 ,    0 ,    0 ,    0 ,    0 ,    0 ,  249 ,   34 ,   70 ,  224 ,   40 ,    8 ,    0 ,  178 ,  204 ,   84 ,   39 ,  143 ,  172 ,  252 ,  155 
E: 000000.300914 64 01 83 80 82 7f 00 00 8f 08 00 00 00 6c 98 2a eb f6 ff ee ff 0a 00 36 00 53 1f 3c 05 e0 0e 46 e0 08 80 00 00 00 80 00 00 00 00 09 09 00 00 00 00 00 f9 22 46 e0 28 08 00 b2 cc 54 27 8f ac fc 9b
# ReportID: 1 / X:  131 | Y:  128 | Z:  129 | Rz:  127 | Rx:    0 | Ry:    0 | 0xff000020:  144 | Hat switch:   8 | Button: 0  0  0  0  0  0  0  0  0  0  0  0  0  0  0 | 0xff000021: 0 , 0 , 0 , 0 , 0 , 0 , 0 , 0 , 0 , 0 , 0 , 0 , 0 | 0xff000022:  109 ,  152 ,   42 ,  235 ,  247 ,  255 ,  239 ,  255 ,   11 ,    0 ,   52 ,    0 ,   76 ,   31 ,   52 ,    5 ,  212 ,   61 ,   70 ,  224 ,    8 ,  128 ,    0 ,    0 ,    0 ,  128 ,    0 ,    0 ,    0 ,    0 ,    9 ,    9 ,    0 ,    0 ,    0 ,    0 ,    0 ,  217 ,   81 ,   70 ,  224 ,   40 ,    8 ,    0 ,  107 ,  215 ,   78 ,  241 ,  250 ,  145 ,   66 ,   69 
E: 000000.304728 64 01 83 80 81 7f 00 00 90 08 00 00 00 6d 98 2a eb f7 ff ef ff 0b 00 34 00 4c 1f 34 05 d4 3d 46 e0 08 80 00 00 00 80 00 00 00 00 09 09 00 00 00 00 00 d9 51 46 e0 28 08 00 6b d7 4e f1 fa 91 42 45
# ReportID: 1 / X:  131 | Y:  128 | Z:  129 | Rz:  127 | Rx:    0 | Ry:    0 | 0xff000020:  145 | Hat switch:   8 | Button: 0  0  0  0  0  0  0  0  0  0  0  0  0  0  0 | 0xff000021: 0 , 0 , 0 , 0 , 0 , 0 , 0 , 0 , 0 , 0 , 0 , 0 , 0 | 0xff000022:  110 ,  152 ,   42 ,  235 ,  248 ,  255 ,  238 ,  255 ,   10 ,    0 ,   61 ,    0 ,   80 ,   31 ,   58 ,    5 ,  199 ,  108 ,   70 ,  224 ,    8 ,  128 ,    0 ,    0 ,    0 ,  128 ,    0 ,    0 ,    0 ,    0 ,    9 ,    9 ,    0 ,    0 ,    0 ,    0 ,    0 ,  185 ,  128 ,   70 ,  224 ,   40 ,    8 ,    0 ,   23 ,    2 ,   85 ,   91 ,  139 ,  101 ,  252 ,   57 
E: 000000.308739 64 01 83 80 81 7f 00 00 91 08 00 00 00 6e 98 2a eb f8 ff ee ff 0a 00 3d 00 50 1f 3a 05 c7 6c 46 e0 08 80 00 00 00 80 00 00 00 00 09 09 00 00 00 00 00 b9 80 46 e0 28 08 00 17 02 55 5b 8b 65 fc 39
# ReportID: 1 / X:  131 | Y:  128 | Z:  129 | Rz:  127 | Rx:    0 | Ry:    0 | 0xff000020:  146 | Hat switch:   8 | Button: 0  0  0  0  0  0  0  0  0  0  0  0  0  0  0 | 0xff000021: 0 , 0 , 0 , 0 , 0 , 0 , 0 , 0 , 0 , 0 , 0 , 0 , 0 | 0xff000022:  111 ,  152 ,   42 ,  235 ,  247 ,  255 ,  238 ,  255 ,   10 ,    0 ,   56 ,    0 ,   82 ,   31 ,   64 ,    5 ,  186 ,  155 ,   70 ,  224 ,    8 ,  128 ,    0 ,    0 ,    0 ,  128 ,    0 ,    0 ,    0 ,    0 ,    9 ,    9 ,    0 ,    0 ,    0 ,    0 ,    0 ,  153 ,  175 ,   70 ,  224 ,   40 ,    8 ,    0 ,   47 ,  249 ,  123 ,  217 ,   43 ,  152 ,  119 ,  172 
E: 000000.313144 64 01 83 80 81 7f 00 00 92 08 00 00 00 6f 98 2a eb f7 ff ee ff 0a 00 38 00 52 1f 40 05 ba 9b 46 e0 08 80 00 00 00 80 00 00 00 00 09 09 00 00 00 00 00 99 af 46 e0 28 08 00 2f f9 7b d9 2b 98 77 ac
# ReportID: 1 / X:  131 | Y:  128 | Z:  129 | Rz:  127 | Rx:    0 | Ry:    0 | 0xff000020:  147 | Hat switch:   8 | Button: 0  0  0  0  0  0  0  0  0  0  0  0  0  0  0 | 0xff000021: 0 , 0 , 0 , 0 , 0 , 0 , 0 , 0 , 0 , 0 , 0 , 0 , 0 | 0xff000022:  112 ,  152 ,   42 ,  235 ,  247 ,  255 ,  239 ,  255 ,   10 ,    0 ,   51 ,    0 ,   76 ,   31 ,   58 ,    5 ,  173 ,  202 ,   70 ,  224 ,    8 ,  128 ,    0 ,    0 ,    0 ,  128 ,    0 ,    0 ,    0 ,    0 ,    9 ,    9 ,    0 ,    0 ,    0 ,    0 ,    0 ,  121 ,  222 ,   70 ,  224 ,   40 ,    8 ,    0 ,  224 ,    3 ,   62 ,  133 ,  213 ,   85 ,   69 ,  188 
E: 000000.316829 64 01 83 80 81 7f 00 00 93 08 00 00 00 70 98 2a eb f7 ff ef ff 0a 00 33 00 4c 1f 3a 05 ad ca 46 e0 08 80 00 00 00 80 00 00 00 00 09 09 00 00 00 00 00 79 de 46 e0 28 08 00 e0 03 3e 85 d5 55 45 bc
# ReportID: 1 / X:  131 | Y:  128 | Z:  129 | Rz:  127 | Rx:    0 | Ry:    0 | 0xff000020:  148 | Hat switch:   8 | Button: 0  0  0  0  0  0  0  0  0  0  0  0  0  0  0 | 0xff000021: 0 , 0 , 0 , 0 , 0 , 0 , 0 , 0 , 0 , 0 , 0 , 0 , 0 | 0xff000022:  113 ,  152 ,   42 ,  235 ,  247 ,  255 ,  239 ,  255 ,   10 ,    0 ,   49 ,    0 ,   79 ,   31 ,   57 ,    5 ,  160 ,  249 ,   70 ,  224 ,    8 ,  128 ,    0 ,    0 ,    0 ,  128 ,    0 ,    0 ,    0 ,    0 ,    9 ,    9 ,    0 ,    0 ,    0 ,    0 ,    0 ,   89 ,   13 ,   71 ,  224 ,   40 ,    8 ,    0 ,  199 ,   25 ,  238 ,   86 ,  247 ,  221 ,  160 ,  156 
E: 000000.320771 64 01 83 80 81 7f 00 00 94 08 00 00 00 71 98 2a eb f7 ff ef ff 0a 00 31 00 4f 1f 39 05 a0 f9 46 e0 08 80 00 00 00 80 00 00 00 00 09 09 00 00 00 00 00 59 0d 47 e0 28 08 00 c7 19 ee 56 f7 dd a0 9c
# ReportID: 1 / X:  131 | Y:  128 | Z:  130 | Rz:  127 | Rx:    0 | Ry:    0 | 0xff000020:  149 | Hat switch:   8 | Button: 0  0  0  0  0  0  0  0  0  0  0  0  0  0  0 | 0xff000021: 0 , 0 , 0 , 0 , 0 , 0 , 0 , 0 , 0 , 0 , 0 , 0 , 0 | 0xff000022:  114 ,  152 ,   42 ,  235 ,  247 ,  255 ,  238 ,  255 ,   10 ,    0 ,   58 ,    0 ,   88 ,   31 ,   63 ,    5 ,  147 ,   40 ,   71 ,  224 ,    8 ,  128 ,    0 ,    0 ,    0 ,  128 ,    0 ,    0 ,    0 ,    0 ,    9 ,    9 ,    0 ,    0 ,    0 ,    0 ,    0 ,   57 ,   60 ,   71 ,  224 ,   40 ,    8 ,    0 ,   42 ,   12 ,  250 ,  204 ,   28 ,  106 ,  101 ,  239 
E: 000000.326584 64 01 83 80 82 7f 00 00 95 08 00 00 00 72 98 2a eb f7 ff ee ff 0a 00 3a 00 58 1f 3f 05 93 28 47 e0 08 80 00 00 00 80 00 00 00 00 09 09 00 00 00 00 00 39 3c 47 e0 28 08 00 2a 0c fa cc 1c 6a 65 ef
# ReportID: 1 / X:  131 | Y:  128 | Z:  130 | Rz:  127 | Rx:    0 | Ry:    0 | 0xff000020:  150 | Hat switch:   8 | Button: 0  0  0  0  0  0  0  0  0  0  0  0  0  0  0 | 0xff000021: 0 , 0 , 0 , 0 , 0 , 0 , 0 , 0 , 0 , 0 , 0 , 0 , 0 | 0xff000022:  115 ,  152 ,   42 ,  235 ,  247 ,  255 ,  238 ,  255 ,   11 ,    0 ,   55 ,    0 ,   87 ,   31 ,   57 ,    5 ,  134 ,   87 ,   71 ,  224 ,    8 ,  128 ,    0 ,    0 ,    0 ,  128 ,    0 ,    0 ,    0 ,    0 ,    9 ,    9 ,    0 ,    0 ,    0 ,    0 ,    0 ,   25 ,  107 ,   71 ,  224 ,   40 ,    8 ,    0 ,  162 ,   73 ,  198 ,   81 ,   97 ,  114 ,  204 ,  192 
E: 000000.330056 64 01 83 80 82 7f 00 00 96 08 00 00 00 73 98 2a eb f7 ff ee ff 0b 00 37 00 57 1f 39 05 86 57 47 e0 08 80 00 00 00 80 00 00 00 00 09 09 00 00 00 00 00 19 6b 47 e0 28 08 00 a2 49 c6 51 61 72 cc c0
# ReportID: 1 / X:  131 | Y:  128 | Z:  129 | Rz:  127 | Rx:    0 | Ry:    0 | 0xff000020:  151 | Hat switch:   8 | Button: 0  0  0  0  0  0  0  0  0  0  0  0  0  0  0 | 0xff000021: 0 , 0 , 0 , 0 , 0 , 0 , 0 , 0 , 0 , 0 , 0 , 0 , 0 | 0xff000022:  116 ,  152 ,   42 ,  235 ,  248 ,  255 ,  237 ,  255 ,   10 ,    0 ,   51 ,    0 ,   87 ,   31 ,   57 ,    5 ,  122 ,  134 ,   71 ,  224 ,    8 ,  128 ,    0 ,    0 ,    0 ,  128 ,    0 ,    0 ,    0 ,    0 ,    9 ,    9 ,    0 ,    0 ,    0 ,    0 ,    0 ,  249 ,  153 ,   71 ,  224 ,   40 ,    8 ,    0 ,  128 ,   97 ,  162 ,   14 ,  143 ,  228 ,  130 ,  237 
E: 000000.333747 64 01 83 80 81 7f 00 00 97 08 00 00 00 74 98 2a eb f8 ff ed ff 0a 00 33 00 57 1f 39 05 7a 86 47 e0 08 80 00 00 00 80 00 00 00 00 09 09 00 00 00 00 00 f9 99 47 e0 28 08 00 80 61 a2 0e 8f e4 82 ed
# ReportID: 1 / X:  131 | Y:  128 | Z:  129 | Rz:  127 | Rx:    0 | Ry:    0 | 0xff000020:  152 | Hat switch:   8 | Button: 0  0  0  0  0  0  0  0  0  0  0  0  0  0  0 | 0xff000021: 0 , 0 , 0 , 0 , 0 , 0 , 0 , 0 , 0 , 0 , 0 , 0 , 0 | 0xff000022:  117 ,  152 ,   42 ,  235 ,  247 ,  255 ,  238 ,  255 ,   11 ,    0 ,   51 ,    0 ,   94 ,   31 ,   50 ,    5 ,  109 ,  181 ,   71 ,  224 ,    8 ,  128 ,    0 ,    0 ,    0 ,  128 ,    0 ,    0 ,    0 ,    0 ,    9 ,    9 ,    0 ,    0 ,    0 ,    0 ,    0 ,  217 ,  200 ,   71 ,  224 ,   40 ,    8 ,    0 ,   42 ,  202 ,  188 ,   64 ,   97 ,   27 ,  186 ,  109 
E: 000000.337367 64 01 83 80 81 7f 00 00 98 08 00 00 00 75 98 2a eb f7 ff ee ff 0b 00 33 00 5e 1f 32 05 6d b5 47 e0 08 80 00 00 00 80 00 00 00 00 09 09 00 00 00 00 00 d9 c8 47 e0 28 08 00 2a ca bc 40 61 1b ba 6d
# ReportID: 1 / X:  131 | Y:  128 | Z:  129 | Rz:  127 | Rx:    0 | Ry:    0 | 0xff000020:  153 | Hat switch:   8 | Button: 0  0  0  0  0  0  0  0  0  0  0  0  0  0  0 | 0xff000021: 0 , 0 , 0 , 0 , 0 , 0 , 0 , 0 , 0 , 0 , 0 , 0 , 0 | 0xff000022:  118 ,  152 ,   42 ,  235 ,  247 ,  255 ,  238 ,  255 ,   10 ,    0 ,   51 ,    0 ,   86 ,   31 ,   46 ,    5 ,   96 ,  228 ,   71 ,  224 ,    8 ,  128 ,    0 ,    0 ,    0 ,  128 ,    0 ,    0 ,    0 ,    0 ,    9 ,    9 ,    0 ,    0 ,    0 ,    0 ,    0 ,  185 ,  247 ,   71 ,  224 ,   40 ,    8 ,    0 ,  201 ,   29 ,  188 ,   34 ,   65 ,   84 ,    8 ,    4 
E: 000000.341134 64 01 83 80 81 7f 00 00 99 08 00 00 00 76 98 2a eb f7 ff ee ff 0a 00 33 00 56 1f 2e 05 60 e4 47 e0 08 80 00 00 00 80 00 00 00 00 09 09 00 00 00 00 00 b9 f7 47 e0 28 08 00 c9 1d bc 22 41 54 08 04
# ReportID: 1 / X:  131 | Y:  128 | Z:  129 | Rz:  127 | Rx:    0 | Ry:    0 | 0xff000020:  154 | Hat switch:   8 | Button: 0  0  0  0  0  0  0  0  0  0  0  0  0  0  0 | 0xff000021: 0 , 0 , 0 , 0 , 0 , 0 , 0 , 0 , 0 , 0 , 0 , 0 , 0 | 0xff000022:  119 ,  152 ,   42 ,  235 ,  247 ,  255 ,  238 ,  255 ,   10 ,    0 ,   45 ,    0 ,   85 ,   31 ,   45 ,    5 ,   83 ,   19 ,   72 ,  224 ,    8 ,  128 ,    0 ,    0 ,    0 ,  128 ,    0 ,    0 ,    0 ,    0 ,    9 ,    9 ,    0 ,    0 ,    0 ,    0 ,    0 ,  153 ,   38 ,   72 ,  224 ,   40 ,    8 ,    0 ,  243 ,  231 ,   93 ,  252 ,  187 ,  101 ,  238 ,  187 
E: 000000.344803 64 01 83 80 81 7f 00 00 9a 08 00 00 00 77 98 2a eb f7 ff ee ff 0a 00 2d 00 55 1f 2d 05 53 13 48 e0 08 80 00 00 00 80 00 00 00 00 09 09 00 00 00 00 00 99 26 48 e0 28 08 00 f3 e7 5d fc bb 65 ee bb
# ReportID: 1 / X:  131 | Y:  128 | Z:  130 | Rz:  127 | Rx:    0 | Ry:    0 | 0xff000020:  155 | Hat switch:   8 | Button: 0  0  0  0  0  0  0  0  0  0  0  0  0  0  0 | 0xff000021: 0 , 0 , 0 , 0 , 0 , 0 , 0 , 0 , 0 , 0 , 0 , 0 , 0 | 0xff000022:  120 ,  152 ,   42 ,  235 ,  247 ,  255 ,  239 ,  255 ,   10 ,    0 ,   47 ,    0 ,   88 ,   31 ,   38 ,    5 ,   70 ,   66 ,   72 ,  224 ,    8 ,  128 ,    0 ,    0 ,    0 ,  128 ,    0 ,    0 ,    0 ,    0 ,    9 ,    9 ,    0 ,    0 ,    0 ,    0 ,    0 ,  121 ,   85 ,   72 ,  224 ,   40 ,    8 ,    0 ,   69 ,  125 ,  126 ,   99 ,   41 ,  244 ,  238 ,  176 
E: 000000.350971 64 01 83 80 82 7f 00 00 9b 08 00 00 00 78 98 2a eb f7 ff ef ff 0a 00 2f 00 58 1f 26 05 46 42 48 e0 08 80 00 00 00 80 00 00 00 00 09 09 00 00 00 00 00 79 55 48 e0 28 08 00 45 7d 7e 63 29 f4 ee b0
# ReportID: 1 / X:  131 | Y:  128 | Z:  129 | Rz:  127 | Rx:    0 | Ry:    0 | 0xff000020:  156 | Hat switch:   8 | Button: 0  0  0  0  0  0  0  0  0  0  0  0  0  0  0 | 0xff000021: 0 , 0 , 0 , 0 , 0 , 0 , 0 , 0 , 0 , 0 , 0 , 0 , 0 | 0xff000022:  121 ,  152 ,   42 ,  235 ,  248 ,  255 ,  238 ,  255 ,   11 ,    0 ,   54 ,    0 ,   88 ,   31 ,   50 ,    5 ,   57 ,  113 ,   72 ,  224 ,    8 ,  128 ,    0 ,    0 ,    0 ,  128 ,    0 ,    0 ,    0 ,    0 ,    9 ,    9 ,    0 ,    0 ,    0 ,    0 ,    0 ,   89 ,  132 ,   72 ,  224 ,   40 ,    8 ,    0 ,   16 ,   51 ,    2 ,  246 ,  108 ,  146 ,   10 ,   93 
E: 000000.352683 64 01 83 80 81 7f 00 00 9c 08 00 00 00 79 98 2a eb f8 ff ee ff 0b 00 36 00 58 1f 32 05 39 71 48 e0 08 80 00 00 00 80 00 00 00 00 09 09 00 00 00 00 00 59 84 48 e0 28 08 00 10 33 02 f6 6c 92 0a 5d
# ReportID: 1 / X:  131 | Y:  128 | Z:  130 | Rz:  127 | Rx:    0 | Ry:    0 | 0xff000020:  157 | Hat switch:   8 | Button: 0  0  0  0  0  0  0  0  0  0  0  0  0  0  0 | 0xff000021: 0 , 0 , 0 , 0 , 0 , 0 , 0 , 0 , 0 , 0 , 0 , 0 , 0 | 0xff000022:  122 ,  152 ,   42 ,  235 ,  245 ,  255 ,  237 ,  255 ,   10 ,    0 ,   52 ,    0 ,  102 ,   31 ,   41 ,    5 ,   44 ,  160 ,   72 ,  224 ,    8 ,  128 ,    0 ,    0 ,    0 ,  128 ,    0 ,    0 ,    0 ,    0 ,    9 ,    9 ,    0 ,    0 ,    0 ,    0 ,    0 ,   57 ,  179 ,   72 ,  224 ,   40 ,    8 ,    0 ,   28 ,  209 ,  160 ,  132 ,   86 ,  123 ,  178 ,  160 
E: 000000.358617 64 01 83 80 82 7f 00 00 9d 08 00 00 00 7a 98 2a eb f5 ff ed ff 0a 00 34 00 66 1f 29 05 2c a0 48 e0 08 80 00 00 00 80 00 00 00 00 09 09 00 00 00 00 00 39 b3 48 e0 28 08 00 1c d1 a0 84 56 7b b2 a0
# ReportID: 1 / X:  131 | Y:  128 | Z:  129 | Rz:  127 | Rx:    0 | Ry:    0 | 0xff000020:  158 | Hat switch:   8 | Button: 0  0  0  0  0  0  0  0  0  0  0  0  0  0  0 | 0xff000021: 0 , 0 , 0 , 0 , 0 , 0 , 0 , 0 , 0 , 0 , 0 , 0 , 0 | 0xff000022:  123 ,  152 ,   42 ,  235 ,  247 ,  255 ,  238 ,  255 ,   11 ,    0 ,   54 ,    0 ,   95 ,   31 ,   41 ,    5 ,   32 ,  207 ,   72 ,  224 ,    8 ,  128 ,    0 ,    0 ,    0 ,  128 ,    0 ,    0 ,    0 ,    0 ,    9 ,    9 ,    0 ,    0 ,    0 ,    0 ,    0 ,   25 ,  226 ,   72 ,  224 ,   40 ,    8 ,    0 ,  226 ,  173 ,   10 ,  252 ,  107 ,  177 ,  169 ,   12 
E: 000000.362296 64 01 83 80 81 7f 00 00 9e 08 00 00 00 7b 98 2a eb f7 ff ee ff 0b 00 36 00 5f 1f 29 05 20 cf 48 e0 08 80 00 00 00 80 00 00 00 00 09 09 00 00 00 00 00 19 e2 48 e0 28 08 00 e2 ad 0a fc 6b b1 a9 0c
# ReportID: 1 / X:  131 | Y:  128 | Z:  129 | Rz:  127 | Rx:    0 | Ry:    0 | 0xff000020:  159 | Hat switch:   8 | Button: 0  0  0  0  0  0  0  0  0  0  0  0  0  0  0 | 0xff000021: 0 , 0 , 0 , 0 , 0 , 0 , 0 , 0 , 0 , 0 , 0 , 0 , 0 | 0xff000022:  124 ,  152 ,   42 ,  235 ,  247 ,  255 ,  238 ,  255 ,   10 ,    0 ,   50 ,    0 ,   91 ,   31 ,   43 ,    5 ,   19 ,  254 ,   72 ,  224 ,    8 ,  128 ,    0 ,    0 ,    0 ,  128 ,    0 ,    0 ,    0 ,    0 ,    9 ,    9 ,    0 ,    0 ,    0 ,    0 ,    0 ,  249 ,   16 ,   73 ,  224 ,   40 ,    8 ,    0 ,   67 ,   72 ,  167 ,  124 ,  110 ,  154 ,  238 ,  216 
E: 000000.365349 64 01 83 80 81 7f 00 00 9f 08 00 00 00 7c 98 2a eb f7 ff ee ff 0a 00 32 00 5b 1f 2b 05 13 fe 48 e0 08 80 00 00 00 80 00 00 00 00 09 09 00 00 00 00 00 f9 10 49 e0 28 08 00 43 48 a7 7c 6e 9a ee d8
# ReportID: 1 / X:  131 | Y:  128 | Z:  129 | Rz:  127 | Rx:    0 | Ry:    0 | 0xff000020:  160 | Hat switch:   8 | Button: 0  0  0  0  0  0  0  0  0  0  0  0  0  0  0 | 0xff000021: 0 , 0 , 0 , 0 , 0 , 0 , 0 , 0 , 0 , 0 , 0 , 0 , 0 | 0xff000022:  125 ,  152 ,   42 ,  235 ,  247 ,  255 ,  239 ,  255 ,   10 ,    0 ,   51 ,    0 ,   98 ,   31 ,   47 ,    5 ,    6 ,   45 ,   73 ,  224 ,    8 ,  128 ,    0 ,    0 ,    0 ,  128 ,    0 ,    0 ,    0 ,    0 ,    9 ,    9 ,    0 ,    0 ,    0 ,    0 ,    0 ,  220 ,   63 ,   73 ,  224 ,   40 ,    8 ,    0 ,  190 ,  110 ,   96 ,   71 ,  228 ,  112 ,  249 ,  253 
E: 000000.368806 64 01 83 80 81 7f 00 00 a0 08 00 00 00 7d 98 2a eb f7 ff ef ff 0a 00 33 00 62 1f 2f 05 06 2d 49 e0 08 80 00 00 00 80 00 00 00 00 09 09 00 00 00 00 00 dc 3f 49 e0 28 08 00 be 6e 60 47 e4 70 f9 fd
# ReportID: 1 / X:  131 | Y:  128 | Z:  129 | Rz:  127 | Rx:    0 | Ry:    0 | 0xff000020:  161 | Hat switch:   8 | Button: 0  0  0  0  0  0  0  0  0  0  0  0  0  0  0 | 0xff000021: 0 , 0 , 0 , 0 , 0 , 0 , 0 , 0 , 0 , 0 , 0 , 0 , 0 | 0xff000022:  126 ,  152 ,   42 ,  235 ,  246 ,  255 ,  239 ,  255 ,   12 ,    0 ,   51 ,    0 ,   99 ,   31 ,   43 ,    5 ,  249 ,   91 ,   73 ,  224 ,    8 ,  128 ,    0 ,    0 ,    0 ,  128 ,    0 ,    0 ,    0 ,    0 ,    9 ,    9 ,    0 ,    0 ,    0 ,    0 ,    0 ,  185 ,  110 ,   73 ,  224 ,   40 ,    8 ,    0 ,   39 ,  245 ,   67 ,  196 ,    8 ,  171 ,  204 ,   37 
E: 000000.372858 64 01 83 80 81 7f 00 00 a1 08 00 00 00 7e 98 2a eb f6 ff ef ff 0c 00 33 00 63 1f 2b 05 f9 5b 49 e0 08 80 00 00 00 80 00 00 00 00 09 09 00 00 00 00 00 b9 6e 49 e0 28 08 00 27 f5 43 c4 08 ab cc 25
# ReportID: 1 / X:  131 | Y:  128 | Z:  129 | Rz:  127 | Rx:    0 | Ry:    0 | 0xff000020:  162 | Hat switch:   8 | Button: 0  0  0  0  0  0  0  0  0  0  0  0  0  0  0 | 0xff000021: 0 , 0 , 0 , 0 , 0 , 0 , 0 , 0 , 0 , 0 , 0 , 0 , 0 | 0xff000022:  127 ,  152 ,   42 ,  235 ,  246 ,  255 ,  238 ,  255 ,   10 ,    0 ,   50 ,    0 ,   92 ,   31 ,   43 ,    5 ,  236 ,  138 ,   73 ,  224 ,    8 ,  128 ,    0 ,    0 ,    0 ,  128 ,    0 ,    0 ,    0 ,    0 ,    9 ,    9 ,    0 ,    0 ,    0 ,    0 ,    0 ,  153 ,  157 ,   73 ,  224 ,   40 ,    8 ,    0 ,  151 ,   99 ,   43 ,  151 ,  128 ,   39 ,  117 ,   85 
E: 000000.376721 64 01 83 80 81 7f 00 00 a2 08 00 00 00 7f 98 2a eb f6 ff ee ff 0a 00 32 00 5c 1f 2b 05 ec 8a 49 e0 08 80 00 00 00 80 00 00 00 00 09 09 00 00 00 00 00 99 9d 49 e0 28 08 00 97 63 2b 97 80 27 75 55
# ReportID: 1 / X:  131 | Y:  128 | Z:  129 | Rz:  127 | Rx:    0 | Ry:    0 | 0xff000020:  163 | Hat switch:   8 | Button: 0  0  0  0  0  0  0  0  0  0  0  0  0  0  0 | 0xff000021: 0 , 0 , 0 , 0 , 0 , 0 , 0 , 0 , 0 , 0 , 0 , 0 , 0 | 0xff000022:  128 ,  152 ,   42 ,  235 ,  246 ,  255 ,  237 ,  255 ,   11 ,    0 ,   58 ,    0 ,   94 ,   31 ,   42 ,    5 ,  223 ,  185 ,   73 ,  224 ,    8 ,  128 ,    0 ,    0 ,    0 ,  128 ,    0 ,    0 ,    0 ,    0 ,    9 ,    9 ,    0 ,    0 ,    0 ,    0 ,    0 ,  121 ,  204 ,   73 ,  224 ,   40 ,    8 ,    0 ,  150 ,  168 ,  205 ,  198 ,   31 ,  120 ,   17 ,   84 
E: 000000.382430 64 01 83 80 81 7f 00 00 a3 08 00 00 00 80 98 2a eb f6 ff ed ff 0b 00 3a 00 5e 1f 2a 05 df b9 49 e0 08 80 00 00 00 80 00 00 00 00 09 09 00 00 00 00 00 79 cc 49 e0 28 08 00 96 a8 cd c6 1f 78 11 54
# ReportID: 1 / X:  131 | Y:  128 | Z:  129 | Rz:  127 | Rx:    0 | Ry:    0 | 0xff000020:  164 | Hat switch:   8 | Button: 0  0  0  0  0  0  0  0  0  0  0  0  0  0  0 | 0xff000021: 0 , 0 , 0 , 0 , 0 , 0 , 0 , 0 , 0 , 0 , 0 , 0 , 0 | 0xff000022:  129 ,  152 ,   42 ,  235 ,  247 ,  255 ,  238 ,  255 ,   10 ,    0 ,   58 ,    0 ,   90 ,   31 ,   52 ,    5 ,  210 ,  232 ,   73 ,  224 ,    8 ,  128 ,    0 ,    0 ,    0 ,  128 ,    0 ,    0 ,    0 ,    0 ,    9 ,    9 ,    0 ,    0 ,    0 ,    0 ,    0 ,   89 ,  251 ,   73 ,  224 ,   40 ,    8 ,    0 ,  109 ,  146 ,  101 ,  228 ,   99 ,  172 ,  131 ,   80 
E: 000000.385597 64 01 83 80 81 7f 00 00 a4 08 00 00 00 81 98 2a eb f7 ff ee ff 0a 00 3a 00 5a 1f 34 05 d2 e8 49 e0 08 80 00 00 00 80 00 00 00 00 09 09 00 00 00 00 00 59 fb 49 e0 28 08 00 6d 92 65 e4 63 ac 83 50
# ReportID: 1 / X:  131 | Y:  128 | Z:  129 | Rz:  127 | Rx:    0 | Ry:    0 | 0xff000020:  165 | Hat switch:   8 | Button: 0  0  0  0  0  0  0  0  0  0  0  0  0  0  0 | 0xff000021: 0 , 0 , 0 , 0 , 0 , 0 , 0 , 0 , 0 , 0 , 0 , 0 , 0 | 0xff000022:  130 ,  152 ,   42 ,  235 ,  246 ,  255 ,  238 ,  255 ,   11 ,    0 ,   55 ,    0 ,   92 ,   31 ,   55 ,    5 ,  198 ,   23 ,   74 ,  224 ,    8 ,  128 ,    0 ,    0 ,    0 ,  128 ,    0 ,    0 ,    0 ,    0 ,    9 ,    9 ,    0 ,    0 ,    0 ,    0 ,    0 ,   57 ,   42 ,   74 ,  224 ,   40 ,    8 ,    0 ,   91 ,  103 ,  240 ,  138 ,   36 ,  180 ,  116 ,  200 
E: 000000.389042 64 01 83 80 81 7f 00 00 a5 08 00 00 00 82 98 2a eb f6 ff ee ff 0b 00 37 00 5c 1f 37 05 c6 17 4a e0 08 80 00 00 00 80 00 00 00 00 09 09 00 00 00 00 00 39 2a 4a e0 28 08 00 5b 67 f0 8a 24 b4 74 c8
# ReportID: 1 / X:  131 | Y:  128 | Z:  129 | Rz:  127 | Rx:    0 | Ry:    0 | 0xff000020:  166 | Hat switch:   8 | Button: 0  0  0  0  0  0  0  0  0  0  0  0  0  0  0 | 0xff000021: 0 , 0 , 0 , 0 , 0 , 0 , 0 , 0 , 0 , 0 , 0 , 0 , 0 | 0xff000022:  131 ,  152 ,   42 ,  235 ,  245 ,  255 ,  238 ,  255 ,   11 ,    0 ,   64 ,    0 ,   81 ,   31 ,   51 ,    5 ,  185 ,   70 ,   74 ,  224 ,    8 ,  128 ,    0 ,    0 ,    0 ,  128 ,    0 ,    0 ,    0 ,    0 ,    9 ,    9 ,    0 ,    0 ,    0 ,    0 ,    0 ,   25 ,   89 ,   74 ,  224 ,   40 ,    8 ,    0 ,  240 ,    0 ,   66 ,  160 ,  250 ,  200 ,   67 ,  114 
E: 000000.392933 64 01 83 80 81 7f 00 00 a6 08 00 00 00 83 98 2a eb f5 ff ee ff 0b 00 40 00 51 1f 33 05 b9 46 4a e0 08 80 00 00 00 80 00 00 00 00 09 09 00 00 00 00 00 19 59 4a e0 28 08 00 f0 00 42 a0 fa c8 43 72
# ReportID: 1 / X:  131 | Y:  128 | Z:  129 | Rz:  127 | Rx:    0 | Ry:    0 | 0xff000020:  167 | Hat switch:   8 | Button: 0  0  0  0  0  0  0  0  0  0  0  0  0  0  0 | 0xff000021: 0 , 0 , 0 , 0 , 0 , 0 , 0 , 0 , 0 , 0 , 0 , 0 , 0 | 0xff000022:  132 ,  152 ,   42 ,  235 ,  246 ,  255 ,  238 ,  255 ,   10 ,    0 ,   61 ,    0 ,   83 ,   31 ,   59 ,    5 ,  172 ,  117 ,   74 ,  224 ,    8 ,  128 ,    0 ,    0 ,    0 ,  128 ,    0 ,    0 ,    0 ,    0 ,    9 ,    9 ,    0 ,    0 ,    0 ,    0 ,    0 ,  249 ,  135 ,   74 ,  224 ,   40 ,    8 ,    0 ,  105 ,  164 ,  148 ,  255 ,  211 ,  253 ,  101 ,  203 
E: 000000.396789 64 01 83 80 81 7f 00 00 a7 08 00 00 00 84 98 2a eb f6 ff ee ff 0a 00 3d 00 53 1f 3b 05 ac 75 4a e0 08 80 00 00 00 80 00 00 00 00 09 09 00 00 00 00 00 f9 87 4a e0 28 08 00 69 a4 94 ff d3 fd 65 cb
# ReportID: 1 / X:  131 | Y:  128 | Z:  129 | Rz:  127 | Rx:    0 | Ry:    0 | 0xff000020:  168 | Hat switch:   8 | Button: 0  0  0  0  0  0  0  0  0  0  0  0  0  0  0 | 0xff000021: 0 , 0 , 0 , 0 , 0 , 0 , 0 , 0 , 0 , 0 , 0 , 0 , 0 | 0xff000022:  133 ,  152 ,   42 ,  235 ,  245 ,  255 ,  239 ,  255 ,   10 ,    0 ,   57 ,    0 ,   88 ,   31 ,   56 ,    5 ,  159 ,  164 ,   74 ,  224 ,    8 ,  128 ,    0 ,    0 ,    0 ,  128 ,    0 ,    0 ,    0 ,    0 ,    9 ,    9 ,    0 ,    0 ,    0 ,    0 ,    0 ,  217 ,  182 ,   74 ,  224 ,   40 ,    8 ,    0 ,  153 ,  223 ,   50 ,   67 ,  132 ,  228 ,    5 ,   67 
E: 000000.402616 64 01 83 80 81 7f 00 00 a8 08 00 00 00 85 98 2a eb f5 ff ef ff 0a 00 39 00 58 1f 38 05 9f a4 4a e0 08 80 00 00 00 80 00 00 00 00 09 09 00 00 00 00 00 d9 b6 4a e0 28 08 00 99 df 32 43 84 e4 05 43
# ReportID: 1 / X:  131 | Y:  128 | Z:  130 | Rz:  127 | Rx:    0 | Ry:    0 | 0xff000020:  169 | Hat switch:   8 | Button: 0  0  0  0  0  0  0  0  0  0  0  0  0  0  0 | 0xff000021: 0 , 0 , 0 , 0 , 0 , 0 , 0 , 0 , 0 , 0 , 0 , 0 , 0 | 0xff000022:  134 ,  152 ,   42 ,  235 ,  246 ,  255 ,  239 ,  255 ,   10 ,    0 ,   49 ,    0 ,   82 ,   31 ,   69 ,    5 ,  146 ,  211 ,   74 ,  224 ,    8 ,  128 ,    0 ,    0 ,    0 ,  128 ,    0 ,    0 ,    0 ,    0 ,    9 ,    9 ,    0 ,    0 ,    0 ,    0 ,    0 ,  185 ,  229 ,   74 ,  224 ,   40 ,    8 ,    0 ,   33 ,  175 ,   42 ,  128 ,  255 ,  255 ,   37 ,  118 
E: 000000.406236 64 01 83 80 82 7f 00 00 a9 08 00 00 00 86 98 2a eb f6 ff ef ff 0a 00 31 00 52 1f 45 05 92 d3 4a e0 08 80 00 00 00 80 00 00 00 00 09 09 00 00 00 00 00 b9 e5 4a e0 28 08 00 21 af 2a 80 ff ff 25 76
# ReportID: 1 / X:  131 | Y:  128 | Z:  129 | Rz:  127 | Rx:    0 | Ry:    0 | 0xff000020:  170 | Hat switch:   8 | Button: 0  0  0  0  0  0  0  0  0  0  0  0  0  0  0 | 0xff000021: 0 , 0 , 0 , 0 , 0 , 0 , 0 , 0 , 0 , 0 , 0 , 0 , 0 | 0xff000022:  135 ,  152 ,   42 ,  235 ,  246 ,  255 ,  239 ,  255 ,   10 ,    0 ,   56 ,    0 ,   72 ,   31 ,   65 ,    5 ,  133 ,    2 ,   75 ,  224 ,    8 ,  128 ,    0 ,    0 ,    0 ,  128 ,    0 ,    0 ,    0 ,    0 ,    9 ,    9 ,    0 ,    0 ,    0 ,    0 ,    0 ,  153 ,   20 ,   75 ,  224 ,   40 ,    8 ,    0 ,  130 ,  168 ,  128 ,  159 ,   74 ,   12 ,   89 ,   17 
E: 000000.408686 64 01 83 80 81 7f 00 00 aa 08 00 00 00 87 98 2a eb f6 ff ef ff 0a 00 38 00 48 1f 41 05 85 02 4b e0 08 80 00 00 00 80 00 00 00 00 09 09 00 00 00 00 00 99 14 4b e0 28 08 00 82 a8 80 9f 4a 0c 59 11
# ReportID: 1 / X:  131 | Y:  128 | Z:  130 | Rz:  127 | Rx:    0 | Ry:    0 | 0xff000020:  171 | Hat switch:   8 | Button: 0  0  0  0  0  0  0  0  0  0  0  0  0  0  0 | 0xff000021: 0 , 0 , 0 , 0 , 0 , 0 , 0 , 0 , 0 , 0 , 0 , 0 , 0 | 0xff000022:  136 ,  152 ,   42 ,  235 ,  246 ,  255 ,  239 ,  255 ,    9 ,    0 ,   55 ,    0 ,   82 ,   31 ,   66 ,    5 ,  121 ,   49 ,   75 ,  224 ,    8 ,  128 ,    0 ,    0 ,    0 ,  128 ,    0 ,    0 ,    0 ,    0 ,    9 ,    9 ,    0 ,    0 ,    0 ,    0 ,    0 ,  121 ,   67 ,   75 ,  224 ,   40 ,    8 ,    0 ,  225 ,  127 ,  225 ,  219 ,   11 ,  101 ,   35 ,  247 
E: 000000.412825 64 01 83 80 82 7f 00 00 ab 08 00 00 00 88 98 2a eb f6 ff ef ff 09 00 37 00 52 1f 42 05 79 31 4b e0 08 80 00 00 00 80 00 00 00 00 09 09 00 00 00 00 00 79 43 4b e0 28 08 00 e1 7f e1 db 0b 65 23 f7
# ReportID: 1 / X:  131 | Y:  128 | Z:  129 | Rz:  127 | Rx:    0 | Ry:    0 | 0xff000020:  172 | Hat switch:   8 | Button: 0  0  0  0  0  0  0  0  0  0  0  0  0  0  0 | 0xff000021: 0 , 0 , 0 , 0 , 0 , 0 , 0 , 0 , 0 , 0 , 0 , 0 , 0 | 0xff000022:  137 ,  152 ,   42 ,  235 ,  246 ,  255 ,  239 ,  255 ,   10 ,    0 ,   50 ,    0 ,   83 ,   31 ,   66 ,    5 ,  108 ,   96 ,   75 ,  224 ,    8 ,  128 ,    0 ,    0 ,    0 ,  128 ,    0 ,    0 ,    0 ,    0 ,    9 ,    9 ,    0 ,    0 ,    0 ,    0 ,    0 ,   89 ,  114 ,   75 ,  224 ,   40 ,    8 ,    0 ,  247 ,  179 ,  149 ,  202 ,   53 ,    2 ,  169 ,  145 
E: 000000.416763 64 01 83 80 81 7f 00 00 ac 08 00 00 00 89 98 2a eb f6 ff ef ff 0a 00 32 00 53 1f 42 05 6c 60 4b e0 08 80 00 00 00 80 00 00 00 00 09 09 00 00 00 00 00 59 72 4b e0 28 08 00 f7 b3 95 ca 35 02 a9 91
# ReportID: 1 / X:  131 | Y:  128 | Z:  129 | Rz:  127 | Rx:    0 | Ry:    0 | 0xff000020:  173 | Hat switch:   8 | Button: 0  0  0  0  0  0  0  0  0  0  0  0  0  0  0 | 0xff000021: 0 , 0 , 0 , 0 , 0 , 0 , 0 , 0 , 0 , 0 , 0 , 0 , 0 | 0xff000022:  138 ,  152 ,   42 ,  235 ,  246 ,  255 ,  237 ,  255 ,   10 ,    0 ,   43 ,    0 ,   73 ,   31 ,   62 ,    5 ,   95 ,  143 ,   75 ,  224 ,    8 ,  128 ,    0 ,    0 ,    0 ,  128 ,    0 ,    0 ,    0 ,    0 ,    9 ,    9 ,    0 ,    0 ,    0 ,    0 ,    0 ,   57 ,  161 ,   75 ,  224 ,   40 ,    8 ,    0 ,  130 ,  224 ,    6 ,   17 ,   13 ,  158 ,  178 ,   29 
E: 000000.421887 64 01 83 80 81 7f 00 00 ad 08 00 00 00 8a 98 2a eb f6 ff ed ff 0a 00 2b 00 49 1f 3e 05 5f 8f 4b e0 08 80 00 00 00 80 00 00 00 00 09 09 00 00 00 00 00 39 a1 4b e0 28 08 00 82 e0 06 11 0d 9e b2 1d
# ReportID: 1 / X:  131 | Y:  128 | Z:  129 | Rz:  127 | Rx:    0 | Ry:    0 | 0xff000020:  174 | Hat switch:   8 | Button: 0  0  0  0  0  0  0  0  0  0  0  0  0  0  0 | 0xff000021: 0 , 0 , 0 , 0 , 0 , 0 , 0 , 0 , 0 , 0 , 0 , 0 , 0 | 0xff000022:  139 ,  152 ,   42 ,  235 ,  246 ,  255 ,  237 ,  255 ,   10 ,    0 ,   46 ,    0 ,   74 ,   31 ,   63 ,    5 ,   82 ,  190 ,   75 ,  224 ,    8 ,  128 ,    0 ,    0 ,    0 ,  128 ,    0 ,    0 ,    0 ,    0 ,    9 ,    9 ,    0 ,    0 ,    0 ,    0 ,    0 ,   25 ,  208 ,   75 ,  224 ,   40 ,    8 ,    0 ,    9 ,  148 ,   56 ,  169 ,   39 ,  200 ,   85 ,   22 
E: 000000.426255 64 01 83 80 81 7f 00 00 ae 08 00 00 00 8b 98 2a eb f6 ff ed ff 0a 00 2e 00 4a 1f 3f 05 52 be 4b e0 08 80 00 00 00 80 00 00 00 00 09 09 00 00 00 00 00 19 d0 4b e0 28 08 00 09 94 38 a9 27 c8 55 16
