# Sony Interactive Entertainment DualSense Wireless Controller
# 0x05, 0x01,                    // Usage Page (Generic Desktop)        0
# 0x09, 0x05,                    // Usage (Game Pad)                    2
# 0xa1, 0x01,                    // Collection (Application)            4
# 0x85, 0x01,                    //  Report ID (1)                      6
# 0x09, 0x30,                    //  Usage (X)                          8
# 0x09, 0x31,                    //  Usage (Y)                          10
# 0x09, 0x32,                    //  Usage (Z)                          12
# 0x09, 0x35,                    //  Usage (Rz)                         14
# 0x09, 0x33,                    //  Usage (Rx)                         16
# 0x09, 0x34,                    //  Usage (Ry)                         18
# 0x15, 0x00,                    //  Logical Minimum (0)                20
# 0x26, 0xff, 0x00,              //  Logical Maximum (255)              22
# 0x75, 0x08,                    //  Report Size (8)                    25
# 0x95, 0x06,                    //  Report Count (6)                   27
# 0x81, 0x02,                    //  Input (Data,Var,Abs)               29
# 0x06, 0x00, 0xff,              //  Usage Page (Vendor Defined Page 1) 31
# 0x09, 0x20,                    //  Usage (Vendor Usage 0x20)          34
# 0x95, 0x01,                    //  Report Count (1)                   36
# 0x81, 0x02,                    //  Input (Data,Var,Abs)               38
# 0x05, 0x01,                    //  Usage Page (Generic Desktop)       40
# 0x09, 0x39,                    //  Usage (Hat switch)                 42
# 0x15, 0x00,                    //  Logical Minimum (0)                44
# 0x25, 0x07,                    //  Logical Maximum (7)                46
# 0x35, 0x00,                    //  Physical Minimum (0)               48
# 0x46, 0x3b, 0x01,              //  Physical Maximum (315)             50
# 0x65, 0x14,                    //  Unit (EnglishRotation: deg)        53
# 0x75, 0x04,                    //  Report Size (4)                    55
# 0x95, 0x01,                    //  Report Count (1)                   57
# 0x81, 0x42,                    //  Input (Data,Var,Abs,Null)          59
# 0x65, 0x00,                    //  Unit (None)                        61
# 0x05, 0x09,                    //  Usage Page (Button)                63
# 0x19, 0x01,                    //  Usage Minimum (1)                  65
# 0x29, 0x0f,                    //  Usage Maximum (15)                 67
# 0x15, 0x00,                    //  Logical Minimum (0)                69
# 0x25, 0x01,                    //  Logical Maximum (1)                71
# 0x75, 0x01,                    //  Report Size (1)                    73
# 0x95, 0x0f,                    //  Report Count (15)                  75
# 0x81, 0x02,                    //  Input (Data,Var,Abs)               77
# 0x06, 0x00, 0xff,              //  Usage Page (Vendor Defined Page 1) 79
# 0x09, 0x21,                    //  Usage (Vendor Usage 0x21)          82
# 0x95, 0x0d,                    //  Report Count (13)                  84
# 0x81, 0x02,                    //  Input (Data,Var,Abs)               86
# 0x06, 0x00, 0xff,              //  Usage Page (Vendor Defined Page 1) 88
# 0x09, 0x22,                    //  Usage (Vendor Usage 0x22)          91
# 0x15, 0x00,                    //  Logical Minimum (0)                93
# 0x26, 0xff, 0x00,              //  Logical Maximum (255)              95
# 0x75, 0x08,                    //  Report Size (8)                    98
# 0x95, 0x34,                    //  Report Count (52)                  100
# 0x81, 0x02,                    //  Input (Data,Var,Abs)               102
# 0x85, 0x02,                    //  Report ID (2)                      104
# 0x09, 0x23,                    //  Usage (Vendor Usage 0x23)          106
# 0x95, 0x2f,                    //  Report Count (47)                  108
# 0x91, 0x02,                    //  Output (Data,Var,Abs)              110
# 0x85, 0x05,                    //  Report ID (5)                      112
# 0x09, 0x33,                    //  Usage (Vendor Usage 0x33)          114
# 0x95, 0x28,                    //  Report Count (40)                  116
# 0xb1, 0x02,                    //  Feature (Data,Var,Abs)             118
# 0x85, 0x08,                    //  Report ID (8)                      120
# 0x09, 0x34,                    //  Usage (Vendor Usage 0x34)          122
# 0x95, 0x2f,                    //  Report Count (47)                  124
# 0xb1, 0x02,                    //  Feature (Data,Var,Abs)             126
# 0x85, 0x09,                    //  Report ID (9)                      128
# 0x09, 0x24,                    //  Usage (Vendor Usage 0x24)          130
# 0x95, 0x13,                    //  Report Count (19)                  132
# 0xb1, 0x02,                    //  Feature (Data,Var,Abs)             134
# 0x85, 0x0a,                    //  Report ID (10)                     136
# 0x09, 0x25,                    //  Usage (Vendor Usage 0x25)          138
# 0x95, 0x1a,                    //  Report Count (26)                  140
# 0xb1, 0x02,                    //  Feature (Data,Var,Abs)             142
# 0x85, 0x20,                    //  Report ID (32)                     144
# 0x09, 0x26,                    //  Usage (Vendor Usage 0x26)          146
# 0x95, 0x3f,                    //  Report Count (63)                  148
# 0xb1, 0x02,                    //  Feature (Data,Var,Abs)             150
# 0x85, 0x21,                    //  Report ID (33)                     152
# 0x09, 0x27,                    //  Usage (Vendor Usage 0x27)          154
# 0x95, 0x04,                    //  Report Count (4)                   156
# 0xb1, 0x02,                    //  Feature (Data,Var,Abs)             158
# 0x85, 0x22,                    //  Report ID (34)                     160
# 0x09, 0x40,                    //  Usage (Vendor Usage 0x40)          162
# 0x95, 0x3f,                    //  Report Count (63)                  164
# 0xb1, 0x02,                    //  Feature (Data,Var,Abs)             166
# 0x85, 0x80,                    //  Report ID (128)                    168
# 0x09, 0x28,                    //  Usage (Vendor Usage 0x28)          170
# 0x95, 0x3f,                    //  Report Count (63)                  172
# 0xb1, 0x02,                    //  Feature (Data,Var,Abs)             174
# 0x85, 0x81,                    //  Report ID (129)                    176
# 0x09, 0x29,                    //  Usage (Vendor Usage 0x29)          178
# 0x95, 0x3f,                    //  Report Count (63)                  180
# 0xb1, 0x02,                    //  Feature (Data,Var,Abs)             182
# 0x85, 0x82,                    //  Report ID (130)                    184
# 0x09, 0x2a,                    //  Usage (Vendor Usage 0x2a)          186
# 0x95, 0x09,                    //  Report Count (9)                   188
# 0xb1, 0x02,                    //  Feature (Data,Var,Abs)             190
# 0x85, 0x83,                    //  Report ID (131)                    192
# 0x09, 0x2b,                    //  Usage (Vendor Usage 0x2b)          194
# 0x95, 0x3f,                    //  Report Count (63)                  196
# 0xb1, 0x02,                    //  Feature (Data,Var,Abs)             198
# 0x85, 0x84,                    //  Report ID (132)                    200
# 0x09, 0x2c,                    //  Usage (Vendor Usage 0x2c)          202
# 0x95, 0x3f,                    //  Report Count (63)                  204
# 0xb1, 0x02,                    //  Feature (Data,Var,Abs)             206
# 0x85, 0x85,                    //  Report ID (133)                    208
# 0x09, 0x2d,                    //  Usage (Vendor Usage 0x2d)          210
# 0x95, 0x02,                    //  Report Count (2)                   212
# 0xb1, 0x02,                    //  Feature (Data,Var,Abs)             214
# 0x85, 0xa0,                    //  Report ID (160)                    216
# 0x09, 0x2e,                    //  Usage (Vendor Usage 0x2e)          218
# 0x95, 0x01,                    //  Report Count (1)                   220
# 0xb1, 0x02,                    //  Feature (Data,Var,Abs)             222
# 0x85, 0xe0,                    //  Report ID (224)                    224
# 0x09, 0x2f,                    //  Usage (Vendor Usage 0x2f)          226
# 0x95, 0x3f,                    //  Report Count (63)                  228
# 0xb1, 0x02,                    //  Feature (Data,Var,Abs)             230
# 0x85, 0xf0,                    //  Report ID (240)                    232
# 0x09, 0x30,                    //  Usage (Vendor Usage 0x30)          234
# 0x95, 0x3f,                    //  Report Count (63)                  236
# 0xb1, 0x02,                    //  Feature (Data,Var,Abs)             238
# 0x85, 0xf1,                    //  Report ID (241)                    240
# 0x09, 0x31,                    //  Usage (Vendor Usage 0x31)          242
# 0x95, 0x3f,                    //  Report Count (63)                  244
# 0xb1, 0x02,                    //  Feature (Data,Var,Abs)             246
# 0x85, 0xf2,                    //  Report ID (242)                    248
# 0x09, 0x32,                    //  Usage (Vendor Usage 0x32)          250
# 0x95, 0x0f,                    //  Report Count (15)                  252
# 0xb1, 0x02,                    //  Feature (Data,Var,Abs)             254
# 0x85, 0xf4,                    //  Report ID (244)                    256
# 0x09, 0x35,                    //  Usage (Vendor Usage 0x35)          258
# 0x95, 0x3f,                    //  Report Count (63)                  260
# 0xb1, 0x02,                    //  Feature (Data,Var,Abs)             262
# 0x85, 0xf5,                    //  Report ID (245)                    264
# 0x09, 0x36,                    //  Usage (Vendor Usage 0x36)          266
# 0x95, 0x03,                    //  Report Count (3)                   268
# 0xb1, 0x02,                    //  Feature (Data,Var,Abs)             270
# 0xc0,                          // End Collection                      272
# 
R: 273 05 01 09 05 a1 01 85 01 09 30 09 31 09 32 09 35 09 33 09 34 15 00 26 ff 00 75 08 95 06 81 02 06 00 ff 09 20 95 01 81 02 05 01 09 39 15 00 25 07 35 00 46 3b 01 65 14 75 04 95 01 81 42 65 00 05 09 19 01 29 0f 15 00 25 01 75 01 95 0f 81 02 06 00 ff 09 21 95 0d 81 02 06 00 ff 09 22 15 00 26 ff 00 75 08 95 34 81 02 85 02 09 23 95 2f 91 02 85 05 09 33 95 28 b1 02 85 08 09 34 95 2f b1 02 85 09 09 24 95 13 b1 02 85 0a 09 25 95 1a b1 02 85 20 09 26 95 3f b1 02 85 21 09 27 95 04 b1 02 85 22 09 40 95 3f b1 02 85 80 09 28 95 3f b1 02 85 81 09 29 95 3f b1 02 85 82 09 2a 95 09 b1 02 85 83 09 2b 95 3f b1 02 85 84 09 2c 95 3f b1 02 85 85 09 2d 95 02 b1 02 85 a0 09 2e 95 01 b1 02 85 e0 09 2f 95 3f b1 02 85 f0 09 30 95 3f b1 02 85 f1 09 31 95 3f b1 02 85 f2 09 32 95 0f b1 02 85 f4 09 35 95 3f b1 02 85 f5 09 36 95 03 b1 02 c0
N: Sony Interactive Entertainment DualSense Wireless Controller
I: 3 054c 0ce6
# ReportID: 1 / X:  128 | Y:  126 | Z:  129 | Rz:  128 | Rx:    0 | Ry:    0 | 0xff000020:  157 | Hat switch:   8 | Button: 0  0  0  0  0  0  0  0  0  0  0  0  0  0  0 | 0xff000021: 0 , 0 , 0 , 0 , 0 , 0 , 0 , 0 , 0 , 0 , 0 , 0 , 0 | 0xff000022:  122 ,   17 ,   43 ,  235 ,  249 ,  255 ,  239 ,  255 ,   10 ,    0 ,   54 ,    0 ,   53 ,   31 ,   39 ,    5 ,  144 ,  114 ,  112 ,  246 ,    9 ,  139 ,   88 ,  199 ,   47 ,  128 ,    0 ,    0 ,    0 ,  147 ,    9 ,    9 ,    0 ,    0 ,    0 ,    0 ,    0 ,  129 ,  135 ,  112 ,  246 ,   40 ,    8 ,    0 ,  108 ,   92 ,    8 ,  105 ,  120 ,    7 ,  105 ,  140 
E: 000000.000000 64 01 80 7e 81 80 00 00 9d 08 00 00 00 7a 11 2b eb f9 ff ef ff 0a 00 36 00 35 1f 27 05 90 72 70 f6 09 8b 58 c7 2f 80 00 00 00 93 09 09 00 00 00 00 00 81 87 70 f6 28 08 00 6c 5c 08 69 78 07 69 8c
# ReportID: 1 / X:  128 | Y:  126 | Z:  129 | Rz:  128 | Rx:    0 | Ry:    0 | 0xff000020:  158 | Hat switch:   8 | Button: 0  0  0  0  0  0  0  0  0  0  0  0  0  0  0 | 0xff000021: 0 , 0 , 0 , 0 , 0 , 0 , 0 , 0 , 0 , 0 , 0 , 0 , 0 | 0xff000022:  123 ,   17 ,   43 ,  235 ,  248 ,  255 ,  239 ,  255 ,   10 ,    0 ,   51 ,    0 ,   36 ,   31 ,   27 ,    5 ,  131 ,  161 ,  112 ,  246 ,    9 ,  139 ,   88 ,  199 ,   47 ,  128 ,    0 ,    0 ,    0 ,  147 ,    9 ,    9 ,    0 ,    0 ,    0 ,    0 ,    0 ,   97 ,  182 ,  112 ,  246 ,   40 ,    8 ,    0 ,  196 ,  163 ,   73 ,  240 ,  197 ,  232 ,    7 ,   36 
E: 000000.002988 64 01 80 7e 81 80 00 00 9e 08 00 00 00 7b 11 2b eb f8 ff ef ff 0a 00 33 00 24 1f 1b 05 83 a1 70 f6 09 8b 58 c7 2f 80 00 00 00 93 09 09 00 00 00 00 00 61 b6 70 f6 28 08 00 c4 a3 49 f0 c5 e8 07 24
# ReportID: 1 / X:  128 | Y:  126 | Z:  129 | Rz:  128 | Rx:    0 | Ry:    0 | 0xff000020:  159 | Hat switch:   8 | Button: 0  0  0  0  0  0  0  0  0  0  0  0  0  0  0 | 0xff000021: 0 , 0 , 0 , 0 , 0 , 0 , 0 , 0 , 0 , 0 , 0 , 0 , 0 | 0xff000022:  124 ,   17 ,   43 ,  235 ,  248 ,  255 ,  238 ,  255 ,   11 ,    0 ,   57 ,    0 ,  137 ,   31 ,   54 ,    5 ,  118 ,  208 ,  112 ,  246 ,    9 ,  139 ,   88 ,  199 ,   47 ,  128 ,    0 ,    0 ,    0 ,  147 ,    9 ,    9 ,    0 ,    0 ,    0 ,    0 ,    0 ,   65 ,  229 ,  112 ,  246 ,   40 ,    8 ,    0 ,  110 ,   78 ,  153 ,  198 ,  161 ,   21 ,  225 ,  255 
E: 000000.006236 64 01 80 7e 81 80 00 00 9f 08 00 00 00 7c 11 2b eb f8 ff ee ff 0b 00 39 00 89 1f 36 05 76 d0 70 f6 09 8b 58 c7 2f 80 00 00 00 93 09 09 00 00 00 00 00 41 e5 70 f6 28 08 00 6e 4e 99 c6 a1 15 e1 ff
# ReportID: 1 / X:  128 | Y:  126 | Z:  129 | Rz:  128 | Rx:    0 | Ry:    0 | 0xff000020:  160 | Hat switch:   8 | Button: 0  0  0  0  0  0  0  0  0  0  0  0  0  0  0 | 0xff000021: 0 , 0 , 0 , 0 , 0 , 0 , 0 , 0 , 0 , 0 , 0 , 0 , 0 | 0xff000022:  125 ,   17 ,   43 ,  235 ,  248 ,  255 ,  238 ,  255 ,   10 ,    0 ,   50 ,    0 ,  135 ,   31 ,   59 ,    5 ,  106 ,  255 ,  112 ,  246 ,    9 ,  139 ,   88 ,  199 ,   47 ,  128 ,    0 ,    0 ,    0 ,  147 ,    9 ,    9 ,    0 ,    0 ,    0 ,    0 ,    0 ,   33 ,   20 ,  113 ,  246 ,   40 ,    8 ,    0 ,   37 ,  110 ,   10 ,  127 ,  163 ,   75 ,   66 ,  255 
E: 000000.010047 64 01 80 7e 81 80 00 00 a0 08 00 00 00 7d 11 2b eb f8 ff ee ff 0a 00 32 00 87 1f 3b 05 6a ff 70 f6 09 8b 58 c7 2f 80 00 00 00 93 09 09 00 00 00 00 00 21 14 71 f6 28 08 00 25 6e 0a 7f a3 4b 42 ff
# ReportID: 1 / X:  128 | Y:  126 | Z:  129 | Rz:  128 | Rx:    0 | Ry:    0 | 0xff000020:  161 | Hat switch:   8 | Button: 0  0  0  0  0  0  0  0  0  0  0  0  0  0  0 | 0xff000021: 0 , 0 , 0 , 0 , 0 , 0 , 0 , 0 , 0 , 0 , 0 , 0 , 0 | 0xff000022:  126 ,   17 ,   43 ,  235 ,  248 ,  255 ,  238 ,  255 ,   11 ,    0 ,   50 ,    0 ,   75 ,   31 ,   41 ,    5 ,   93 ,   46 ,  113 ,  246 ,    9 ,  139 ,   88 ,  199 ,   47 ,  128 ,    0 ,    0 ,    0 ,  147 ,    9 ,    9 ,    0 ,    0 ,    0 ,    0 ,    0 ,    1 ,   67 ,  113 ,  246 ,   40 ,    8 ,    0 ,  123 ,  173 ,   59 ,  234 ,   94 ,  218 ,  230 ,  220 
E: 000000.014081 64 01 80 7e 81 80 00 00 a1 08 00 00 00 7e 11 2b eb f8 ff ee ff 0b 00 32 00 4b 1f 29 05 5d 2e 71 f6 09 8b 58 c7 2f 80 00 00 00 93 09 09 00 00 00 00 00 01 43 71 f6 28 08 00 7b ad 3b ea 5e da e6 dc
# ReportID: 1 / X:  128 | Y:  126 | Z:  129 | Rz:  128 | Rx:    0 | Ry:    0 | 0xff000020:  162 | Hat switch:   8 | Button: 0  0  0  0  0  0  0  0  0  0  0  0  0  0  0 | 0xff000021: 0 , 0 , 0 , 0 , 0 , 0 , 0 , 0 , 0 , 0 , 0 , 0 , 0 | 0xff000022:  127 ,   17 ,   43 ,  235 ,  248 ,  255 ,  238 ,  255 ,   12 ,    0 ,   55 ,    0 ,   84 ,   31 ,   38 ,    5 ,  114 ,   87 ,  113 ,  246 ,    9 ,  139 ,   88 ,  199 ,   47 ,  128 ,    0 ,    0 ,    0 ,  147 ,    9 ,    9 ,    0 ,    0 ,    0 ,    0 ,    0 ,  225 ,  113 ,  113 ,  246 ,   40 ,    8 ,    0 ,   86 ,  142 ,  119 ,   57 ,  137 ,   14 ,  207 ,   33 
E: 000000.018529 64 01 80 7e 81 80 00 00 a2 08 00 00 00 7f 11 2b eb f8 ff ee ff 0c 00 37 00 54 1f 26 05 72 57 71 f6 09 8b 58 c7 2f 80 00 00 00 93 09 09 00 00 00 00 00 e1 71 71 f6 28 08 00 56 8e 77 39 89 0e cf 21
# ReportID: 1 / X:  128 | Y:  126 | Z:  129 | Rz:  128 | Rx:    0 | Ry:    0 | 0xff000020:  163 | Hat switch:   8 | Button: 0  0  0  0  0  0  0  0  0  0  0  0  0  0  0 | 0xff000021: 0 , 0 , 0 , 0 , 0 , 0 , 0 , 0 , 0 , 0 , 0 , 0 , 0 | 0xff000022:  128 ,   17 ,   43 ,  235 ,  246 ,  255 ,  238 ,  255 ,   11 ,    0 ,   48 ,    0 ,  102 ,   31 ,   46 ,    5 ,  135 ,  128 ,  113 ,  246 ,    9 ,  139 ,   88 ,  199 ,   47 ,  128 ,    0 ,    0 ,    0 ,  147 ,    9 ,    9 ,    0 ,    0 ,    0 ,    0 ,    0 ,  193 ,  160 ,  113 ,  246 ,   40 ,    8 ,    0 ,  147 ,  149 ,  199 ,  190 ,  235 ,  152 ,  129 ,   94 
E: 000000.022197 64 01 80 7e 81 80 00 00 a3 08 00 00 00 80 11 2b eb f6 ff ee ff 0b 00 30 00 66 1f 2e 05 87 80 71 f6 09 8b 58 c7 2f 80 00 00 00 93 09 09 00 00 00 00 00 c1 a0 71 f6 28 08 00 93 95 c7 be eb 98 81 5e
# ReportID: 1 / X:  128 | Y:  126 | Z:  129 | Rz:  128 | Rx:    0 | Ry:    0 | 0xff000020:  164 | Hat switch:   8 | Button: 0  0  0  0  0  0  0  0  0  0  0  0  0  0  0 | 0xff000021: 0 , 0 , 0 , 0 , 0 , 0 , 0 , 0 , 0 , 0 , 0 , 0 , 0 | 0xff000022:  129 ,   17 ,   43 ,  235 ,  248 ,  255 ,  237 ,  255 ,   10 ,    0 ,   63 ,    0 ,   63 ,   31 ,   46 ,    5 ,  122 ,  175 ,  113 ,  246 ,    9 ,  139 ,   88 ,  199 ,   47 ,  128 ,    0 ,    0 ,    0 ,  147 ,    9 ,    9 ,    0 ,    0 ,    0 ,    0 ,    0 ,  161 ,  207 ,  113 ,  246 ,   40 ,    8 ,    0 ,  199 ,  236 ,  221 ,  140 ,   27 ,  191 ,  188 ,  103 
E: 000000.026400 64 01 80 7e 81 80 00 00 a4 08 00 00 00 81 11 2b eb f8 ff ed ff 0a 00 3f 00 3f 1f 2e 05 7a af 71 f6 09 8b 58 c7 2f 80 00 00 00 93 09 09 00 00 00 00 00 a1 cf 71 f6 28 08 00 c7 ec dd 8c 1b bf bc 67
# ReportID: 1 / X:  128 | Y:  126 | Z:  129 | Rz:  128 | Rx:    0 | Ry:    0 | 0xff000020:  165 | Hat switch:   8 | Button: 0  0  0  0  0  0  0  0  0  0  0  0  0  0  0 | 0xff000021: 0 , 0 , 0 , 0 , 0 , 0 , 0 , 0 , 0 , 0 , 0 , 0 , 0 | 0xff000022:  130 ,   17 ,   43 ,  235 ,  249 ,  255 ,  237 ,  255 ,   11 ,    0 ,   60 ,    0 ,   51 ,   31 ,   39 ,    5 ,  109 ,  222 ,  113 ,  246 ,    9 ,  139 ,   88 ,  199 ,   47 ,  128 ,    0 ,    0 ,    0 ,  147 ,    9 ,    9 ,    0 ,    0 ,    0 ,    0 ,    0 ,  129 ,  254 ,  113 ,  246 ,   40 ,    8 ,    0 ,  114 ,  239 ,  110 ,   59 ,   82 ,  217 ,  187 ,  105 
E: 000000.030423 64 01 80 7e 81 80 00 00 a5 08 00 00 00 82 11 2b eb f9 ff ed ff 0b 00 3c 00 33 1f 27 05 6d de 71 f6 09 8b 58 c7 2f 80 00 00 00 93 09 09 00 00 00 00 00 81 fe 71 f6 28 08 00 72 ef 6e 3b 52 d9 bb 69
# ReportID: 1 / X:  128 | Y:  126 | Z:  129 | Rz:  128 | Rx:    0 | Ry:    0 | 0xff000020:  166 | Hat switch:   8 | Button: 0  0  0  0  0  0  0  0  0  0  0  0  0  0  0 | 0xff000021: 0 , 0 , 0 , 0 , 0 , 0 , 0 , 0 , 0 , 0 , 0 , 0 , 0 | 0xff000022:  131 ,   17 ,   43 ,  235 ,  248 ,  255 ,  239 ,  255 ,   10 ,    0 ,   55 ,    0 ,  118 ,   31 ,   49 ,    5 ,   96 ,   13 ,  114 ,  246 ,    9 ,  139 ,   88 ,  199 ,   47 ,  128 ,    0 ,    0 ,    0 ,  147 ,    9 ,    9 ,    0 ,    0 ,    0 ,    0 ,    0 ,   97 ,   45 ,  114 ,  246 ,   40 ,    8 ,    0 ,  203 ,  171 ,  202 ,   33 ,  137 ,  172 ,  228 ,  253 
E: 000000.034480 64 01 80 7e 81 80 00 00 a6 08 00 00 00 83 11 2b eb f8 ff ef ff 0a 00 37 00 76 1f 31 05 60 0d 72 f6 09 8b 58 c7 2f 80 00 00 00 93 09 09 00 00 00 00 00 61 2d 72 f6 28 08 00 cb ab ca 21 89 ac e4 fd
# ReportID: 1 / X:  128 | Y:  126 | Z:  129 | Rz:  128 | Rx:    0 | Ry:    0 | 0xff000020:  167 | Hat switch:   8 | Button: 0  0  0  0  0  0  0  0  0  0  0  0  0  0  0 | 0xff000021: 0 , 0 , 0 , 0 , 0 , 0 , 0 , 0 , 0 , 0 , 0 , 0 , 0 | 0xff000022:  132 ,   17 ,   43 ,  235 ,  247 ,  255 ,  238 ,  255 ,   10 ,    0 ,   67 ,    0 ,  121 ,   31 ,   48 ,    5 ,   83 ,   60 ,  114 ,  246 ,    9 ,  139 ,   88 ,  199 ,   47 ,  128 ,    0 ,    0 ,    0 ,  147 ,    9 ,    9 ,    0 ,    0 ,    0 ,    0 ,    0 ,   65 ,   92 ,  114 ,  246 ,   40 ,    8 ,    0 ,   34 ,   45 ,   65 ,   59 ,   18 ,  145 ,  155 ,  192 
E: 000000.038394 64 01 80 7e 81 80 00 00 a7 08 00 00 00 84 11 2b eb f7 ff ee ff 0a 00 43 00 79 1f 30 05 53 3c 72 f6 09 8b 58 c7 2f 80 00 00 00 93 09 09 00 00 00 00 00 41 5c 72 f6 28 08 00 22 2d 41 3b 12 91 9b c0
# ReportID: 1 / X:  128 | Y:  126 | Z:  129 | Rz:  128 | Rx:    0 | Ry:    0 | 0xff000020:  168 | Hat switch:   8 | Button: 0  0  0  0  0  0  0  0  0  0  0  0  0  0  0 | 0xff000021: 0 , 0 , 0 , 0 , 0 , 0 , 0 , 0 , 0 , 0 , 0 , 0 , 0 | 0xff000022:  133 ,   17 ,   43 ,  235 ,  248 ,  255 ,  237 ,  255 ,   11 ,    0 ,   63 ,    0 ,   91 ,   31 ,   48 ,    5 ,   71 ,  107 ,  114 ,  246 ,    9 ,  139 ,   88 ,  199 ,   47 ,  128 ,    0 ,    0 ,    0 ,  147 ,    9 ,    9 ,    0 ,    0 ,    0 ,    0 ,    0 ,   33 ,  139 ,  114 ,  246 ,   40 ,    8 ,    0 ,  151 ,  255 ,  105 ,  114 ,  108 ,  122 ,   16 ,  104 
E: 000000.042380 64 01 80 7e 81 80 00 00 a8 08 00 00 00 85 11 2b eb f8 ff ed ff 0b 00 3f 00 5b 1f 30 05 47 6b 72 f6 09 8b 58 c7 2f 80 00 00 00 93 09 09 00 00 00 00 00 21 8b 72 f6 28 08 00 97 ff 69 72 6c 7a 10 68
# ReportID: 1 / X:  128 | Y:  126 | Z:  129 | Rz:  128 | Rx:    0 | Ry:    0 | 0xff000020:  169 | Hat switch:   8 | Button: 0  0  0  0  0  0  0  0  0  0  0  0  0  0  0 | 0xff000021: 0 , 0 , 0 , 0 , 0 , 0 , 0 , 0 , 0 , 0 , 0 , 0 , 0 | 0xff000022:  134 ,   17 ,   43 ,  235 ,  247 ,  255 ,  239 ,  255 ,   10 ,    0 ,   56 ,    0 ,   86 ,   31 ,   55 ,    5 ,   58 ,  154 ,  114 ,  246 ,    9 ,  139 ,   88 ,  199 ,   47 ,  128 ,    0 ,    0 ,    0 ,  147 ,    9 ,    9 ,    0 ,    0 ,    0 ,    0 ,    0 ,    1 ,  186 ,  114 ,  246 ,   40 ,    8 ,    0 ,  145 ,  145 ,   32 ,  134 ,   24 ,   57 ,  120 ,  209 
E: 000000.046226 64 01 80 7e 81 80 00 00 a9 08 00 00 00 86 11 2b eb f7 ff ef ff 0a 00 38 00 56 1f 37 05 3a 9a 72 f6 09 8b 58 c7 2f 80 00 00 00 93 09 09 00 00 00 00 00 01 ba 72 f6 28 08 00 91 91 20 86 18 39 78 d1
# ReportID: 1 / X:  128 | Y:  126 | Z:  129 | Rz:  128 | Rx:    0 | Ry:    0 | 0xff000020:  170 | Hat switch:   8 | Button: 0  0  0  0  0  0  0  0  0  0  0  0  0  0  0 | 0xff000021: 0 , 0 , 0 , 0 , 0 , 0 , 0 , 0 , 0 , 0 , 0 , 0 , 0 | 0xff000022:  135 ,   17 ,   43 ,  235 ,  247 ,  255 ,  238 ,  255 ,   10 ,    0 ,   49 ,    0 ,   81 ,   31 ,   55 ,    5 ,   45 ,  201 ,  114 ,  246 ,    9 ,  139 ,   88 ,  199 ,   47 ,  128 ,    0 ,    0 ,    0 ,  147 ,    9 ,    9 ,    0 ,    0 ,    0 ,    0 ,    0 ,  225 ,  232 ,  114 ,  246 ,   40 ,    8 ,    0 ,  116 ,  222 ,  132 ,   52 ,   96 ,   80 ,   26 ,  114 
E: 000000.050392 64 01 80 7e 81 80 00 00 aa 08 00 00 00 87 11 2b eb f7 ff ee ff 0a 00 31 00 51 1f 37 05 2d c9 72 f6 09 8b 58 c7 2f 80 00 00 00 93 09 09 00 00 00 00 00 e1 e8 72 f6 28 08 00 74 de 84 34 60 50 1a 72
# ReportID: 1 / X:  128 | Y:  126 | Z:  129 | Rz:  128 | Rx:    0 | Ry:    0 | 0xff000020:  171 | Hat switch:   8 | Button: 0  0  0  0  0  0  0  0  0  0  0  0  0  0  0 | 0xff000021: 0 , 0 , 0 , 0 , 0 , 0 , 0 , 0 , 0 , 0 , 0 , 0 , 0 | 0xff000022:  136 ,   17 ,   43 ,  235 ,  248 ,  255 ,  238 ,  255 ,   11 ,    0 ,   58 ,    0 ,   55 ,   31 ,   50 ,    5 ,   32 ,  248 ,  114 ,  246 ,    9 ,  139 ,   88 ,  199 ,   47 ,  128 ,    0 ,    0 ,    0 ,  147 ,    9 ,    9 ,    0 ,    0 ,    0 ,    0 ,    0 ,  193 ,   23 ,  115 ,  246 ,   40 ,    8 ,    0 ,  167 ,  174 ,    2 ,   49 ,   21 ,   41 ,   97 ,   82 
E: 000000.054361 64 01 80 7e 81 80 00 00 ab 08 00 00 00 88 11 2b eb f8 ff ee ff 0b 00 3a 00 37 1f 32 05 20 f8 72 f6 09 8b 58 c7 2f 80 00 00 00 93 09 09 00 00 00 00 00 c1 17 73 f6 28 08 00 a7 ae 02 31 15 29 61 52
# ReportID: 1 / X:  128 | Y:  126 | Z:  129 | Rz:  128 | Rx:    0 | Ry:    0 | 0xff000020:  172 | Hat switch:   8 | Button: 0  0  0  0  0  0  0  0  0  0  0  0  0  0  0 | 0xff000021: 0 , 0 , 0 , 0 , 0 , 0 , 0 , 0 , 0 , 0 , 0 , 0 , 0 | 0xff000022:  137 ,   17 ,   43 ,  235 ,  247 ,  255 ,  238 ,  255 ,   10 ,    0 ,   54 ,    0 ,   90 ,   31 ,   39 ,    5 ,   20 ,   39 ,  115 ,  246 ,    9 ,  139 ,   88 ,  199 ,   47 ,  128 ,    0 ,    0 ,    0 ,  147 ,    9 ,    9 ,    0 ,    0 ,    0 ,    0 ,    0 ,  161 ,   70 ,  115 ,  246 ,   40 ,    8 ,    0 ,  223 ,   22 ,  210 ,   80 ,  119 ,  220 ,  118 ,  155 
E: 000000.058289 64 01 80 7e 81 80 00 00 ac 08 00 00 00 89 11 2b eb f7 ff ee ff 0a 00 36 00 5a 1f 27 05 14 27 73 f6 09 8b 58 c7 2f 80 00 00 00 93 09 09 00 00 00 00 00 a1 46 73 f6 28 08 00 df 16 d2 50 77 dc 76 9b
# ReportID: 1 / X:  128 | Y:  126 | Z:  129 | Rz:  128 | Rx:    0 | Ry:    0 | 0xff000020:  173 | Hat switch:   8 | Button: 0  0  0  0  0  0  0  0  0  0  0  0  0  0  0 | 0xff000021: 0 , 0 , 0 , 0 , 0 , 0 , 0 , 0 , 0 , 0 , 0 , 0 , 0 | 0xff000022:  138 ,   17 ,   43 ,  235 ,  248 ,  255 ,  239 ,  255 ,   10 ,    0 ,   54 ,    0 ,  108 ,   31 ,   47 ,    5 ,    7 ,   86 ,  115 ,  246 ,    9 ,  139 ,   88 ,  199 ,   47 ,  128 ,    0 ,    0 ,    0 ,  147 ,    9 ,    9 ,    0 ,    0 ,    0 ,    0 ,    0 ,  129 ,  117 ,  115 ,  246 ,   40 ,    8 ,    0 ,  213 ,  205 ,   70 ,   64 ,  155 ,   72 ,  134 ,   92 
E: 000000.062237 64 01 80 7e 81 80 00 00 ad 08 00 00 00 8a 11 2b eb f8 ff ef ff 0a 00 36 00 6c 1f 2f 05 07 56 73 f6 09 8b 58 c7 2f 80 00 00 00 93 09 09 00 00 00 00 00 81 75 73 f6 28 08 00 d5 cd 46 40 9b 48 86 5c
# ReportID: 1 / X:  128 | Y:  126 | Z:  129 | Rz:  128 | Rx:    0 | Ry:    0 | 0xff000020:  174 | Hat switch:   8 | Button: 0  0  0  0  0  0  0  0  0  0  0  0  0  0  0 | 0xff000021: 0 , 0 , 0 , 0 , 0 , 0 , 0 , 0 , 0 , 0 , 0 , 0 , 0 | 0xff000022:  139 ,   17 ,   43 ,  235 ,  247 ,  255 ,  238 ,  255 ,   11 ,    0 ,   49 ,    0 ,   96 ,   31 ,   48 ,    5 ,  250 ,  132 ,  115 ,  246 ,    9 ,  139 ,   88 ,  199 ,   47 ,  128 ,    0 ,    0 ,    0 ,  147 ,    9 ,    9 ,    0 ,    0 ,    0 ,    0 ,    0 ,   97 ,  164 ,  115 ,  246 ,   40 ,    8 ,    0 ,  195 ,  191 ,   69 ,  156 ,    3 ,  183 ,  235 ,  138 
E: 000000.066466 64 01 80 7e 81 80 00 00 ae 08 00 00 00 8b 11 2b eb f7 ff ee ff 0b 00 31 00 60 1f 30 05 fa 84 73 f6 09 8b 58 c7 2f 80 00 00 00 93 09 09 00 00 00 00 00 61 a4 73 f6 28 08 00 c3 bf 45 9c 03 b7 eb 8a
# ReportID: 1 / X:  128 | Y:  126 | Z:  129 | Rz:  128 | Rx:    0 | Ry:    0 | 0xff000020:  175 | Hat switch:   8 | Button: 0  0  0  0  0  0  0  0  0  0  0  0  0  0  0 | 0xff000021: 0 , 0 , 0 , 0 , 0 , 0 , 0 , 0 , 0 , 0 , 0 , 0 , 0 | 0xff000022:  140 ,   17 ,   43 ,  235 ,  247 ,  255 ,  238 ,  255 ,   10 ,    0 ,   56 ,    0 ,   88 ,   31 ,   48 ,    5 ,  237 ,  179 ,  115 ,  246 ,    9 ,  139 ,   88 ,  199 ,   47 ,  128 ,    0 ,    0 ,    0 ,  147 ,    9 ,    9 ,    0 ,    0 ,    0 ,    0 ,    0 ,   65 ,  211 ,  115 ,  246 ,   40 ,    8 ,    0 ,   17 ,  139 ,   49 ,   33 ,   94 ,   71 ,  170 ,   90 
E: 000000.070238 64 01 80 7e 81 80 00 00 af 08 00 00 00 8c 11 2b eb f7 ff ee ff 0a 00 38 00 58 1f 30 05 ed b3 73 f6 09 8b 58 c7 2f 80 00 00 00 93 09 09 00 00 00 00 00 41 d3 73 f6 28 08 00 11 8b 31 21 5e 47 aa 5a
# ReportID: 1 / X:  128 | Y:  126 | Z:  129 | Rz:  128 | Rx:    0 | Ry:    0 | 0xff000020:  176 | Hat switch:   8 | Button: 0  0  0  0  0  0  0  0  0  0  0  0  0  0  0 | 0xff000021: 0 , 0 , 0 , 0 , 0 , 0 , 0 , 0 , 0 , 0 , 0 , 0 , 0 | 0xff000022:  141 ,   17 ,   43 ,  235 ,  247 ,  255 ,  238 ,  255 ,   10 ,    0 ,   52 ,    0 ,   79 ,   31 ,   41 ,    5 ,  225 ,  226 ,  115 ,  246 ,    9 ,  139 ,   88 ,  199 ,   47 ,  128 ,    0 ,    0 ,    0 ,  147 ,    9 ,    9 ,    0 ,    0 ,    0 ,    0 ,    0 ,   33 ,    2 ,  116 ,  246 ,   40 ,    8 ,    0 ,  153 ,  214 ,   86 ,  211 ,  201 ,  228 ,  186 ,   93 
E: 000000.075571 64 01 80 7e 81 80 00 00 b0 08 00 00 00 8d 11 2b eb f7 ff ee ff 0a 00 34 00 4f 1f 29 05 e1 e2 73 f6 09 8b 58 c7 2f 80 00 00 00 93 09 09 00 00 00 00 00 21 02 74 f6 28 08 00 99 d6 56 d3 c9 e4 ba 5d
# ReportID: 1 / X:  128 | Y:  126 | Z:  129 | Rz:  128 | Rx:    0 | Ry:    0 | 0xff000020:  177 | Hat switch:   8 | Button: 0  0  0  0  0  0  0  0  0  0  0  0  0  0  0 | 0xff000021: 0 , 0 , 0 , 0 , 0 , 0 , 0 , 0 , 0 , 0 , 0 , 0 , 0 | 0xff000022:  142 ,   17 ,   43 ,  235 ,  248 ,  255 ,  239 ,  255 ,   11 ,    0 ,   47 ,    0 ,   92 ,   31 ,   36 ,    5 ,  212 ,   17 ,  116 ,  246 ,    9 ,  139 ,   88 ,  199 ,   47 ,  128 ,    0 ,    0 ,    0 ,  147 ,    9 ,    9 ,    0 ,    0 ,    0 ,    0 ,    0 ,    1 ,   49 ,  116 ,  246 ,   40 ,    8 ,    0 ,  125 ,   78 ,  241 ,  226 ,  164 ,   28 ,  168 ,   24 
E: 000000.079521 64 01 80 7e 81 80 00 00 b1 08 00 00 00 8e 11 2b eb f8 ff ef ff 0b 00 2f 00 5c 1f 24 05 d4 11 74 f6 09 8b 58 c7 2f 80 00 00 00 93 09 09 00 00 00 00 00 01 31 74 f6 28 08 00 7d 4e f1 e2 a4 1c a8 18
# ReportID: 1 / X:  128 | Y:  126 | Z:  129 | Rz:  128 | Rx:    0 | Ry:    0 | 0xff000020:  178 | Hat switch:   8 | Button: 0  0  0  0  0  0  0  0  0  0  0  0  0  0  0 | 0xff000021: 0 , 0 , 0 , 0 , 0 , 0 , 0 , 0 , 0 , 0 , 0 , 0 , 0 | 0xff000022:  143 ,   17 ,   43 ,  235 ,  246 ,  255 ,  238 ,  255 ,   11 ,    0 ,   51 ,    0 ,   90 ,   31 ,   38 ,    5 ,  199 ,   64 ,  116 ,  246 ,    9 ,  139 ,   88 ,  199 ,   47 ,  128 ,    0 ,    0 ,    0 ,  147 ,    9 ,    9 ,    0 ,    0 ,    0 ,    0 ,    0 ,  225 ,   95 ,  116 ,  246 ,   40 ,    8 ,    0 ,  201 ,  246 ,   75 ,  200 ,  124 ,  222 ,  112 ,  153 
E: 000000.082491 64 01 80 7e 81 80 00 00 b2 08 00 00 00 8f 11 2b eb f6 ff ee ff 0b 00 33 00 5a 1f 26 05 c7 40 74 f6 09 8b 58 c7 2f 80 00 00 00 93 09 09 00 00 00 00 00 e1 5f 74 f6 28 08 00 c9 f6 4b c8 7c de 70 99
# ReportID: 1 / X:  128 | Y:  126 | Z:  129 | Rz:  128 | Rx:    0 | Ry:    0 | 0xff000020:  179 | Hat switch:   8 | Button: 0  0  0  0  0  0  0  0  0  0  0  0  0  0  0 | 0xff000021: 0 , 0 , 0 , 0 , 0 , 0 , 0 , 0 , 0 , 0 , 0 , 0 , 0 | 0xff000022:  144 ,   17 ,   43 ,  235 ,  247 ,  255 ,  239 ,  255 ,    9 ,    0 ,   47 ,    0 ,   88 ,   31 ,   33 ,    5 ,  186 ,  111 ,  116 ,  246 ,    9 ,  139 ,   88 ,  199 ,   47 ,  128 ,    0 ,    0 ,    0 ,  147 ,    9 ,    9 ,    0 ,    0 ,    0 ,    0 ,    0 ,  193 ,  142 ,  116 ,  246 ,   40 ,    8 ,    0 ,  243 ,  252 ,  226 ,  210 ,  155 ,  183 ,   17 ,  101 
E: 000000.086487 64 01 80 7e 81 80 00 00 b3 08 00 00 00 90 11 2b eb f7 ff ef ff 09 00 2f 00 58 1f 21 05 ba 6f 74 f6 09 8b 58 c7 2f 80 00 00 00 93 09 09 00 00 00 00 00 c1 8e 74 f6 28 08 00 f3 fc e2 d2 9b b7 11 65
# ReportID: 1 / X:  128 | Y:  126 | Z:  129 | Rz:  128 | Rx:    0 | Ry:    0 | 0xff000020:  180 | Hat switch:   8 | Button: 0  0  0  0  0  0  0  0  0  0  0  0  0  0  0 | 0xff000021: 0 , 0 , 0 , 0 , 0 , 0 , 0 , 0 , 0 , 0 , 0 , 0 , 0 | 0xff000022:  145 ,   17 ,   43 ,  235 ,  248 ,  255 ,  238 ,  255 ,   10 ,    0 ,   48 ,    0 ,   90 ,   31 ,   37 ,    5 ,  174 ,  158 ,  116 ,  246 ,    9 ,  139 ,   88 ,  199 ,   47 ,  128 ,    0 ,    0 ,    0 ,  147 ,    9 ,    9 ,    0 ,    0 ,    0 ,    0 ,    0 ,  161 ,  189 ,  116 ,  246 ,   40 ,    8 ,    0 ,   59 ,   64 ,   82 ,   37 ,  223 ,    6 ,  230 ,  132 
E: 000000.091084 64 01 80 7e 81 80 00 00 b4 08 00 00 00 91 11 2b eb f8 ff ee ff 0a 00 30 00 5a 1f 25 05 ae 9e 74 f6 09 8b 58 c7 2f 80 00 00 00 93 09 09 00 00 00 00 00 a1 bd 74 f6 28 08 00 3b 40 52 25 df 06 e6 84
# ReportID: 1 / X:  128 | Y:  126 | Z:  129 | Rz:  128 | Rx:    0 | Ry:    0 | 0xff000020:  181 | Hat switch:   8 | Button: 0  0  0  0  0  0  0  0  0  0  0  0  0  0  0 | 0xff000021: 0 , 0 , 0 , 0 , 0 , 0 , 0 , 0 , 0 , 0 , 0 , 0 , 0 | 0xff000022:  146 ,   17 ,   43 ,  235 ,  248 ,  255 ,  238 ,  255 ,   11 ,    0 ,   53 ,    0 ,  100 ,   31 ,   43 ,    5 ,  161 ,  205 ,  116 ,  246 ,    9 ,  139 ,   88 ,  199 ,   47 ,  128 ,    0 ,    0 ,    0 ,  147 ,    9 ,    9 ,    0 ,    0 ,    0 ,    0 ,    0 ,  129 ,  236 ,  116 ,  246 ,   40 ,    8 ,    0 ,  103 ,   24 ,   94 ,   11 ,   74 ,  204 ,   56 ,  192 
E: 000000.094755 64 01 80 7e 81 80 00 00 b5 08 00 00 00 92 11 2b eb f8 ff ee ff 0b 00 35 00 64 1f 2b 05 a1 cd 74 f6 09 8b 58 c7 2f 80 00 00 00 93 09 09 00 00 00 00 00 81 ec 74 f6 28 08 00 67 18 5e 0b 4a cc 38 c0
# ReportID: 1 / X:  128 | Y:  126 | Z:  129 | Rz:  128 | Rx:    0 | Ry:    0 | 0xff000020:  182 | Hat switch:   8 | Button: 0  0  0  0  0  0  0  0  0  0  0  0  0  0  0 | 0xff000021: 0 , 0 , 0 , 0 , 0 , 0 , 0 , 0 , 0 , 0 , 0 , 0 , 0 | 0xff000022:  147 ,   17 ,   43 ,  235 ,  246 ,  255 ,  239 ,  255 ,   11 ,    0 ,   53 ,    0 ,   89 ,   31 ,   48 ,    5 ,  148 ,  252 ,  116 ,  246 ,    9 ,  139 ,   88 ,  199 ,   47 ,  128 ,    0 ,    0 ,    0 ,  147 ,    9 ,    9 ,    0 ,    0 ,    0 ,    0 ,    0 ,   97 ,   27 ,  117 ,  246 ,   40 ,    8 ,    0 ,   13 ,  201 ,  240 ,  165 ,  205 ,  165 ,  135 ,  248 
E: 000000.098226 64 01 80 7e 81 80 00 00 b6 08 00 00 00 93 11 2b eb f6 ff ef ff 0b 00 35 00 59 1f 30 05 94 fc 74 f6 09 8b 58 c7 2f 80 00 00 00 93 09 09 00 00 00 00 00 61 1b 75 f6 28 08 00 0d c9 f0 a5 cd a5 87 f8
# ReportID: 1 / X:  128 | Y:  126 | Z:  129 | Rz:  128 | Rx:    0 | Ry:    0 | 0xff000020:  183 | Hat switch:   8 | Button: 0  0  0  0  0  0  0  0  0  0  0  0  0  0  0 | 0xff000021: 0 , 0 , 0 , 0 , 0 , 0 , 0 , 0 , 0 , 0 , 0 , 0 , 0 | 0xff000022:  148 ,   17 ,   43 ,  235 ,  246 ,  255 ,  239 ,  255 ,   10 ,    0 ,   45 ,    0 ,   95 ,   31 ,   47 ,    5 ,  135 ,   43 ,  117 ,  246 ,    9 ,  139 ,   88 ,  199 ,   47 ,  128 ,    0 ,    0 ,    0 ,  147 ,    9 ,    9 ,    0 ,    0 ,    0 ,    0 ,    0 ,   65 ,   74 ,  117 ,  246 ,   40 ,    8 ,    0 ,  161 ,  230 ,  227 ,  218 ,  247 ,   61 ,  164 ,   39 
E: 000000.102239 64 01 80 7e 81 80 00 00 b7 08 00 00 00 94 11 2b eb f6 ff ef ff 0a 00 2d 00 5f 1f 2f 05 87 2b 75 f6 09 8b 58 c7 2f 80 00 00 00 93 09 09 00 00 00 00 00 41 4a 75 f6 28 08 00 a1 e6 e3 da f7 3d a4 27
# ReportID: 1 / X:  128 | Y:  126 | Z:  129 | Rz:  128 | Rx:    0 | Ry:    0 | 0xff000020:  184 | Hat switch:   8 | Button: 0  0  0  0  0  0  0  0  0  0  0  0  0  0  0 | 0xff000021: 0 , 0 , 0 , 0 , 0 , 0 , 0 , 0 , 0 , 0 , 0 , 0 , 0 | 0xff000022:  149 ,   17 ,   43 ,  235 ,  246 ,  255 ,  239 ,  255 ,   11 ,    0 ,   49 ,    0 ,   85 ,   31 ,   45 ,    5 ,  122 ,   90 ,  117 ,  246 ,    9 ,  139 ,   88 ,  199 ,   47 ,  128 ,    0 ,    0 ,    0 ,  147 ,    9 ,    9 ,    0 ,    0 ,    0 ,    0 ,    0 ,   33 ,  121 ,  117 ,  246 ,   40 ,    8 ,    0 ,  235 ,   20 ,  130 ,   98 ,   19 ,  138 ,   55 ,  131 
E: 000000.106180 64 01 80 7e 81 80 00 00 b8 08 00 00 00 95 11 2b eb f6 ff ef ff 0b 00 31 00 55 1f 2d 05 7a 5a 75 f6 09 8b 58 c7 2f 80 00 00 00 93 09 09 00 00 00 00 00 21 79 75 f6 28 08 00 eb 14 82 62 13 8a 37 83
# ReportID: 1 / X:  128 | Y:  126 | Z:  129 | Rz:  128 | Rx:    0 | Ry:    0 | 0xff000020:  185 | Hat switch:   8 | Button: 0  0  0  0  0  0  0  0  0  0  0  0  0  0  0 | 0xff000021: 0 , 0 , 0 , 0 , 0 , 0 , 0 , 0 , 0 , 0 , 0 , 0 , 0 | 0xff000022:  150 ,   17 ,   43 ,  235 ,  245 ,  255 ,  238 ,  255 ,   10 ,    0 ,   47 ,    0 ,   71 ,   31 ,   63 ,    5 ,  110 ,  137 ,  117 ,  246 ,    9 ,  139 ,   88 ,  199 ,   47 ,  128 ,    0 ,    0 ,    0 ,  147 ,    9 ,    9 ,    0 ,    0 ,    0 ,    0 ,    0 ,    1 ,  168 ,  117 ,  246 ,   40 ,    8 ,    0 ,   83 ,  216 ,  159 ,  205 ,  244 ,  109 ,    8 ,   91 
E: 000000.110684 64 01 80 7e 81 80 00 00 b9 08 00 00 00 96 11 2b eb f5 ff ee ff 0a 00 2f 00 47 1f 3f 05 6e 89 75 f6 09 8b 58 c7 2f 80 00 00 00 93 09 09 00 00 00 00 00 01 a8 75 f6 28 08 00 53 d8 9f cd f4 6d 08 5b
# ReportID: 1 / X:  128 | Y:  126 | Z:  129 | Rz:  128 | Rx:    0 | Ry:    0 | 0xff000020:  186 | Hat switch:   8 | Button: 0  0  0  0  0  0  0  0  0  0  0  0  0  0  0 | 0xff000021: 0 , 0 , 0 , 0 , 0 , 0 , 0 , 0 , 0 , 0 , 0 , 0 , 0 | 0xff000022:  151 ,   17 ,   43 ,  235 ,  246 ,  255 ,  239 ,  255 ,   11 ,    0 ,   50 ,    0 ,   74 ,   31 ,   57 ,    5 ,   97 ,  184 ,  117 ,  246 ,    9 ,  139 ,   88 ,  199 ,   47 ,  128 ,    0 ,    0 ,    0 ,  147 ,    9 ,    9 ,    0 ,    0 ,    0 ,    0 ,    0 ,  225 ,  214 ,  117 ,  246 ,   40 ,    8 ,    0 ,    7 ,  222 ,  227 ,   46 ,   58 ,  148 ,   99 ,  248 
E: 000000.114149 64 01 80 7e 81 80 00 00 ba 08 00 00 00 97 11 2b eb f6 ff ef ff 0b 00 32 00 4a 1f 39 05 61 b8 75 f6 09 8b 58 c7 2f 80 00 00 00 93 09 09 00 00 00 00 00 e1 d6 75 f6 28 08 00 07 de e3 2e 3a 94 63 f8
# ReportID: 1 / X:  128 | Y:  126 | Z:  129 | Rz:  128 | Rx:    0 | Ry:    0 | 0xff000020:  187 | Hat switch:   8 | Button: 0  0  0  0  0  0  0  0  0  0  0  0  0  0  0 | 0xff000021: 0 , 0 , 0 , 0 , 0 , 0 , 0 , 0 , 0 , 0 , 0 , 0 , 0 | 0xff000022:  152 ,   17 ,   43 ,  235 ,  248 ,  255 ,  238 ,  255 ,   11 ,    0 ,   52 ,    0 ,   71 ,   31 ,   56 ,    5 ,   84 ,  231 ,  117 ,  246 ,    9 ,  139 ,   88 ,  199 ,   47 ,  128 ,    0 ,    0 ,    0 ,  147 ,    9 ,    9 ,    0 ,    0 ,    0 ,    0 ,    0 ,  193 ,    5 ,  118 ,  246 ,   40 ,    8 ,    0 ,    5 ,  122 ,  189 ,  159 ,    1 ,  248 ,  212 ,  223 
E: 000000.119954 64 01 80 7e 81 80 00 00 bb 08 00 00 00 98 11 2b eb f8 ff ee ff 0b 00 34 00 47 1f 38 05 54 e7 75 f6 09 8b 58 c7 2f 80 00 00 00 93 09 09 00 00 00 00 00 c1 05 76 f6 28 08 00 05 7a bd 9f 01 f8 d4 df
# ReportID: 1 / X:  128 | Y:  126 | Z:  129 | Rz:  128 | Rx:    0 | Ry:    0 | 0xff000020:  188 | Hat switch:   8 | Button: 0  0  0  0  0  0  0  0  0  0  0  0  0  0  0 | 0xff000021: 0 , 0 , 0 , 0 , 0 , 0 , 0 , 0 , 0 , 0 , 0 , 0 , 0 | 0xff000022:  153 ,   17 ,   43 ,  235 ,  247 ,  255 ,  238 ,  255 ,   11 ,    0 ,   51 ,    0 ,   83 ,   31 ,   67 ,    5 ,   71 ,   22 ,  118 ,  246 ,    9 ,  139 ,   88 ,  199 ,   47 ,  128 ,    0 ,    0 ,    0 ,  147 ,    9 ,    9 ,    0 ,    0 ,    0 ,    0 ,    0 ,  161 ,   52 ,  118 ,  246 ,   40 ,    8 ,    0 ,  247 ,   23 ,   87 ,   24 ,   57 ,  171 ,   66 ,  117 
E: 000000.123753 64 01 80 7e 81 80 00 00 bc 08 00 00 00 99 11 2b eb f7 ff ee ff 0b 00 33 00 53 1f 43 05 47 16 76 f6 09 8b 58 c7 2f 80 00 00 00 93 09 09 00 00 00 00 00 a1 34 76 f6 28 08 00 f7 17 57 18 39 ab 42 75
# ReportID: 1 / X:  128 | Y:  126 | Z:  129 | Rz:  128 | Rx:    0 | Ry:    0 | 0xff000020:  189 | Hat switch:   8 | Button: 0  0  0  0  0  0  0  0  0  0  0  0  0  0  0 | 0xff000021: 0 , 0 , 0 , 0 , 0 , 0 , 0 , 0 , 0 , 0 , 0 , 0 , 0 | 0xff000022:  154 ,   17 ,   43 ,  235 ,  246 ,  255 ,  239 ,  255 ,   10 ,    0 ,   53 ,    0 ,  114 ,   31 ,   78 ,    5 ,   59 ,   69 ,  118 ,  246 ,    9 ,  139 ,   88 ,  199 ,   47 ,  128 ,    0 ,    0 ,    0 ,  147 ,    9 ,    9 ,    0 ,    0 ,    0 ,    0 ,    0 ,  129 ,   99 ,  118 ,  246 ,   40 ,    8 ,    0 ,  174 ,  159 ,  146 ,   34 ,  232 ,   26 ,  228 ,  244 
E: 000000.127625 64 01 80 7e 81 80 00 00 bd 08 00 00 00 9a 11 2b eb f6 ff ef ff 0a 00 35 00 72 1f 4e 05 3b 45 76 f6 09 8b 58 c7 2f 80 00 00 00 93 09 09 00 00 00 00 00 81 63 76 f6 28 08 00 ae 9f 92 22 e8 1a e4 f4
# ReportID: 1 / X:  128 | Y:  126 | Z:  129 | Rz:  128 | Rx:    0 | Ry:    0 | 0xff000020:  190 | Hat switch:   8 | Button: 0  0  0  0  0  0  0  0  0  0  0  0  0  0  0 | 0xff000021: 0 , 0 , 0 , 0 , 0 , 0 , 0 , 0 , 0 , 0 , 0 , 0 , 0 | 0xff000022:  155 ,   17 ,   43 ,  235 ,  247 ,  255 ,  238 ,  255 ,   11 ,    0 ,   59 ,    0 ,   73 ,   31 ,   64 ,    5 ,   46 ,  116 ,  118 ,  246 ,    9 ,  139 ,   88 ,  199 ,   47 ,  128 ,    0 ,    0 ,    0 ,  147 ,    9 ,    9 ,    0 ,    0 ,    0 ,    0 ,    0 ,   97 ,  146 ,  118 ,  246 ,   40 ,    8 ,    0 ,   36 ,  110 ,  186 ,  233 ,  121 ,   30 ,    6 ,   94 
E: 000000.131873 64 01 80 7e 81 80 00 00 be 08 00 00 00 9b 11 2b eb f7 ff ee ff 0b 00 3b 00 49 1f 40 05 2e 74 76 f6 09 8b 58 c7 2f 80 00 00 00 93 09 09 00 00 00 00 00 61 92 76 f6 28 08 00 24 6e ba e9 79 1e 06 5e
# ReportID: 1 / X:  128 | Y:  126 | Z:  129 | Rz:  128 | Rx:    0 | Ry:    0 | 0xff000020:  191 | Hat switch:   8 | Button: 0  0  0  0  0  0  0  0  0  0  0  0  0  0  0 | 0xff000021: 0 , 0 , 0 , 0 , 0 , 0 , 0 , 0 , 0 , 0 , 0 , 0 , 0 | 0xff000022:  156 ,   17 ,   43 ,  235 ,  247 ,  255 ,  239 ,  255 ,   11 ,    0 ,   48 ,    0 ,   51 ,   31 ,   62 ,    5 ,   33 ,  163 ,  118 ,  246 ,    9 ,  139 ,   88 ,  199 ,   47 ,  128 ,    0 ,    0 ,    0 ,  147 ,    9 ,    9 ,    0 ,    0 ,    0 ,    0 ,    0 ,   65 ,  193 ,  118 ,  246 ,   40 ,    8 ,    0 ,   40 ,   98 ,   74 ,  254 ,  173 ,   84 ,   72 ,   70 
E: 000000.135296 64 01 80 7e 81 80 00 00 bf 08 00 00 00 9c 11 2b eb f7 ff ef ff 0b 00 30 00 33 1f 3e 05 21 a3 76 f6 09 8b 58 c7 2f 80 00 00 00 93 09 09 00 00 00 00 00 41 c1 76 f6 28 08 00 28 62 4a fe ad 54 48 46
# ReportID: 1 / X:  128 | Y:  126 | Z:  129 | Rz:  128 | Rx:    0 | Ry:    0 | 0xff000020:  192 | Hat switch:   8 | Button: 0  0  0  0  0  0  0  0  0  0  0  0  0  0  0 | 0xff000021: 0 , 0 , 0 , 0 , 0 , 0 , 0 , 0 , 0 , 0 , 0 , 0 , 0 | 0xff000022:  157 ,   17 ,   43 ,  235 ,  246 ,  255 ,  239 ,  255 ,   10 ,    0 ,   57 ,    0 ,   70 ,   31 ,   66 ,    5 ,   20 ,  210 ,  118 ,  246 ,    9 ,  139 ,   88 ,  199 ,   47 ,  128 ,    0 ,    0 ,    0 ,  147 ,    9 ,    9 ,    0 ,    0 ,    0 ,    0 ,    0 ,   33 ,  240 ,  118 ,  246 ,   40 ,    8 ,    0 ,   59 ,   14 ,  158 ,   54 ,  191 ,  227 ,  100 ,  236 
E: 000000.138593 64 01 80 7e 81 80 00 00 c0 08 00 00 00 9d 11 2b eb f6 ff ef ff 0a 00 39 00 46 1f 42 05 14 d2 76 f6 09 8b 58 c7 2f 80 00 00 00 93 09 09 00 00 00 00 00 21 f0 76 f6 28 08 00 3b 0e 9e 36 bf e3 64 ec
# ReportID: 1 / X:  128 | Y:  126 | Z:  129 | Rz:  128 | Rx:    0 | Ry:    0 | 0xff000020:  193 | Hat switch:   8 | Button: 0  0  0  0  0  0  0  0  0  0  0  0  0  0  0 | 0xff000021: 0 , 0 , 0 , 0 , 0 , 0 , 0 , 0 , 0 , 0 , 0 , 0 , 0 | 0xff000022:  158 ,   17 ,   43 ,  235 ,  247 ,  255 ,  239 ,  255 ,   10 ,    0 ,   60 ,    0 ,   64 ,   31 ,   71 ,    5 ,    8 ,    1 ,  119 ,  246 ,    9 ,  139 ,   88 ,  199 ,   47 ,  128 ,    0 ,    0 ,    0 ,  147 ,    9 ,    9 ,    0 ,    0 ,    0 ,    0 ,    0 ,    1 ,   31 ,  119 ,  246 ,   40 ,    8 ,    0 ,  100 ,   21 ,   90 ,  199 ,  149 ,  113 ,  153 ,   79 
E: 000000.142291 64 01 80 7e 81 80 00 00 c1 08 00 00 00 9e 11 2b eb f7 ff ef ff 0a 00 3c 00 40 1f 47 05 08 01 77 f6 09 8b 58 c7 2f 80 00 00 00 93 09 09 00 00 00 00 00 01 1f 77 f6 28 08 00 64 15 5a c7 95 71 99 4f
# ReportID: 1 / X:  128 | Y:  126 | Z:  129 | Rz:  128 | Rx:    0 | Ry:    0 | 0xff000020:  194 | Hat switch:   8 | Button: 0  0  0  0  0  0  0  0  0  0  0  0  0  0  0 | 0xff000021: 0 , 0 , 0 , 0 , 0 , 0 , 0 , 0 , 0 , 0 , 0 , 0 , 0 | 0xff000022:  159 ,   17 ,   43 ,  235 ,  247 ,  255 ,  239 ,  255 ,    9 ,    0 ,   57 ,    0 ,   62 ,   31 ,   68 ,    5 ,  251 ,   47 ,  119 ,  246 ,    9 ,  139 ,   88 ,  199 ,   47 ,  128 ,    0 ,    0 ,    0 ,  147 ,    9 ,    9 ,    0 ,    0 ,    0 ,    0 ,    0 ,  225 ,   77 ,  119 ,  246 ,   40 ,    8 ,    0 ,  205 ,   66 ,   80 ,   96 ,  238 ,   20 ,  106 ,    2 
E: 000000.146259 64 01 80 7e 81 80 00 00 c2 08 00 00 00 9f 11 2b eb f7 ff ef ff 09 00 39 00 3e 1f 44 05 fb 2f 77 f6 09 8b 58 c7 2f 80 00 00 00 93 09 09 00 00 00 00 00 e1 4d 77 f6 28 08 00 cd 42 50 60 ee 14 6a 02
# ReportID: 1 / X:  128 | Y:  126 | Z:  129 | Rz:  128 | Rx:    0 | Ry:    0 | 0xff000020:  195 | Hat switch:   8 | Button: 0  0  0  0  0  0  0  0  0  0  0  0  0  0  0 | 0xff000021: 0 , 0 , 0 , 0 , 0 , 0 , 0 , 0 , 0 , 0 , 0 , 0 , 0 | 0xff000022:  160 ,   17 ,   43 ,  235 ,  247 ,  255 ,  238 ,  255 ,   10 ,    0 ,   56 ,    0 ,   90 ,   31 ,   50 ,    5 ,  238 ,   94 ,  119 ,  246 ,    9 ,  139 ,   88 ,  199 ,   47 ,  128 ,    0 ,    0 ,    0 ,  147 ,    9 ,    9 ,    0 ,    0 ,    0 ,    0 ,    0 ,  193 ,  124 ,  119 ,  246 ,   40 ,    8 ,    0 ,  114 ,   21 ,  146 ,  130 ,  232 ,   56 ,  182 ,  137 
E: 000000.150252 64 01 80 7e 81 80 00 00 c3 08 00 00 00 a0 11 2b eb f7 ff ee ff 0a 00 38 00 5a 1f 32 05 ee 5e 77 f6 09 8b 58 c7 2f 80 00 00 00 93 09 09 00 00 00 00 00 c1 7c 77 f6 28 08 00 72 15 92 82 e8 38 b6 89
# ReportID: 1 / X:  128 | Y:  126 | Z:  129 | Rz:  128 | Rx:    0 | Ry:    0 | 0xff000020:  196 | Hat switch:   8 | Button: 0  0  0  0  0  0  0  0  0  0  0  0  0  0  0 | 0xff000021: 0 , 0 , 0 , 0 , 0 , 0 , 0 , 0 , 0 , 0 , 0 , 0 , 0 | 0xff000022:  161 ,   17 ,   43 ,  235 ,  247 ,  255 ,  238 ,  255 ,   11 ,    0 ,   51 ,    0 ,  119 ,   31 ,   62 ,    5 ,  225 ,  141 ,  119 ,  246 ,    9 ,  139 ,   88 ,  199 ,   47 ,  128 ,    0 ,    0 ,    0 ,  147 ,    9 ,    9 ,    0 ,    0 ,    0 ,    0 ,    0 ,  161 ,  171 ,  119 ,  246 ,   40 ,    8 ,    0 ,  101 ,   95 ,   35 ,    6 ,  253 ,   29 ,  148 ,  129 
E: 000000.155147 64 01 80 7e 81 80 00 00 c4 08 00 00 00 a1 11 2b eb f7 ff ee ff 0b 00 33 00 77 1f 3e 05 e1 8d 77 f6 09 8b 58 c7 2f 80 00 00 00 93 09 09 00 00 00 00 00 a1 ab 77 f6 28 08 00 65 5f 23 06 fd 1d 94 81
# ReportID: 1 / X:  128 | Y:  126 | Z:  129 | Rz:  128 | Rx:    0 | Ry:    0 | 0xff000020:  197 | Hat switch:   8 | Button: 0  0  0  0  0  0  0  0  0  0  0  0  0  0  0 | 0xff000021: 0 , 0 , 0 , 0 , 0 , 0 , 0 , 0 , 0 , 0 , 0 , 0 , 0 | 0xff000022:  162 ,   17 ,   43 ,  235 ,  247 ,  255 ,  237 ,  255 ,    9 ,    0 ,   48 ,    0 ,   78 ,   31 ,   48 ,    5 ,  212 ,  188 ,  119 ,  246 ,    9 ,  139 ,   88 ,  199 ,   47 ,  128 ,    0 ,    0 ,    0 ,  147 ,    9 ,    9 ,    0 ,    0 ,    0 ,    0 ,    0 ,  129 ,  218 ,  119 ,  246 ,   40 ,    8 ,    0 ,   23 ,   17 ,  200 ,   20 ,   40 ,  245 ,  170 ,  216 
E: 000000.158764 64 01 80 7e 81 80 00 00 c5 08 00 00 00 a2 11 2b eb f7 ff ed ff 09 00 30 00 4e 1f 30 05 d4 bc 77 f6 09 8b 58 c7 2f 80 00 00 00 93 09 09 00 00 00 00 00 81 da 77 f6 28 08 00 17 11 c8 14 28 f5 aa d8
# ReportID: 1 / X:  128 | Y:  126 | Z:  129 | Rz:  128 | Rx:    0 | Ry:    0 | 0xff000020:  198 | Hat switch:   8 | Button: 0  0  0  0  0  0  0  0  0  0  0  0  0  0  0 | 0xff000021: 0 , 0 , 0 , 0 , 0 , 0 , 0 , 0 , 0 , 0 , 0 , 0 , 0 | 0xff000022:  163 ,   17 ,   43 ,  235 ,  248 ,  255 ,  238 ,  255 ,   10 ,    0 ,   52 ,    0 ,   81 ,   31 ,   42 ,    5 ,  200 ,  235 ,  119 ,  246 ,    9 ,  139 ,   88 ,  199 ,   47 ,  128 ,    0 ,    0 ,    0 ,  147 ,    9 ,    9 ,    0 ,    0 ,    0 ,    0 ,    0 ,   97 ,    9 ,  120 ,  246 ,   40 ,    8 ,    0 ,  176 ,   26 ,  216 ,  133 ,  157 ,   82 ,  100 ,  245 
E: 000000.163334 64 01 80 7e 81 80 00 00 c6 08 00 00 00 a3 11 2b eb f8 ff ee ff 0a 00 34 00 51 1f 2a 05 c8 eb 77 f6 09 8b 58 c7 2f 80 00 00 00 93 09 09 00 00 00 00 00 61 09 78 f6 28 08 00 b0 1a d8 85 9d 52 64 f5
# ReportID: 1 / X:  128 | Y:  126 | Z:  129 | Rz:  128 | Rx:    0 | Ry:    0 | 0xff000020:  199 | Hat switch:   8 | Button: 0  0  0  0  0  0  0  0  0  0  0  0  0  0  0 | 0xff000021: 0 , 0 , 0 , 0 , 0 , 0 , 0 , 0 , 0 , 0 , 0 , 0 , 0 | 0xff000022:  164 ,   17 ,   43 ,  235 ,  246 ,  255 ,  239 ,  255 ,   11 ,    0 ,   53 ,    0 ,   99 ,   31 ,   45 ,    5 ,  187 ,   26 ,  120 ,  246 ,    9 ,  139 ,   88 ,  199 ,   47 ,  128 ,    0 ,    0 ,    0 ,  147 ,    9 ,    9 ,    0 ,    0 ,    0 ,    0 ,    0 ,   65 ,   56 ,  120 ,  246 ,   40 ,    8 ,    0 ,  143 ,   60 ,   72 ,  246 ,   21 ,  124 ,   72 ,   96 
E: 000000.166637 64 01 80 7e 81 80 00 00 c7 08 00 00 00 a4 11 2b eb f6 ff ef ff 0b 00 35 00 63 1f 2d 05 bb 1a 78 f6 09 8b 58 c7 2f 80 00 00 00 93 09 09 00 00 00 00 00 41 38 78 f6 28 08 00 8f 3c 48 f6 15 7c 48 60
# ReportID: 1 / X:  128 | Y:  126 | Z:  129 | Rz:  128 | Rx:    0 | Ry:    0 | 0xff000020:  200 | Hat switch:   8 | Button: 0  0  0  0  0  0  0  0  0  0  0  0  0  0  0 | 0xff000021: 0 , 0 , 0 , 0 , 0 , 0 , 0 , 0 , 0 , 0 , 0 , 0 , 0 | 0xff000022:  165 ,   17 ,   43 ,  235 ,  247 ,  255 ,  238 ,  255 ,   11 ,    0 ,   58 ,    0 ,   81 ,   31 ,   37 ,    5 ,  174 ,   73 ,  120 ,  246 ,    9 ,  139 ,   88 ,  199 ,   47 ,  128 ,    0 ,    0 ,    0 ,  147 ,    9 ,    9 ,    0 ,    0 ,    0 ,    0 ,    0 ,   33 ,  103 ,  120 ,  246 ,   40 ,    8 ,    0 ,  239 ,  167 ,   53 ,  195 ,   23 ,   38 ,  220 ,   13 
E: 000000.170150 64 01 80 7e 81 80 00 00 c8 08 00 00 00 a5 11 2b eb f7 ff ee ff 0b 00 3a 00 51 1f 25 05 ae 49 78 f6 09 8b 58 c7 2f 80 00 00 00 93 09 09 00 00 00 00 00 21 67 78 f6 28 08 00 ef a7 35 c3 17 26 dc 0d
# ReportID: 1 / X:  128 | Y:  126 | Z:  129 | Rz:  128 | Rx:    0 | Ry:    0 | 0xff000020:  201 | Hat switch:   8 | Button: 0  0  0  0  0  0  0  0  0  0  0  0  0  0  0 | 0xff000021: 0 , 0 , 0 , 0 , 0 , 0 , 0 , 0 , 0 , 0 , 0 , 0 , 0 | 0xff000022:  166 ,   17 ,   43 ,  235 ,  248 ,  255 ,  238 ,  255 ,   12 ,    0 ,   53 ,    0 ,   80 ,   31 ,   37 ,    5 ,  161 ,  120 ,  120 ,  246 ,    9 ,  139 ,   88 ,  199 ,   47 ,  128 ,    0 ,    0 ,    0 ,  147 ,    9 ,    9 ,    0 ,    0 ,    0 ,    0 ,    0 ,    1 ,  150 ,  120 ,  246 ,   40 ,    8 ,    0 ,  155 ,    0 ,  197 ,   27 ,  122 ,  240 ,   35 ,   26 
E: 000000.175905 64 01 80 7e 81 80 00 00 c9 08 00 00 00 a6 11 2b eb f8 ff ee ff 0c 00 35 00 50 1f 25 05 a1 78 78 f6 09 8b 58 c7 2f 80 00 00 00 93 09 09 00 00 00 00 00 01 96 78 f6 28 08 00 9b 00 c5 1b 7a f0 23 1a
# ReportID: 1 / X:  128 | Y:  126 | Z:  129 | Rz:  128 | Rx:    0 | Ry:    0 | 0xff000020:  202 | Hat switch:   8 | Button: 0  0  0  0  0  0  0  0  0  0  0  0  0  0  0 | 0xff000021: 0 , 0 , 0 , 0 , 0 , 0 , 0 , 0 , 0 , 0 , 0 , 0 , 0 | 0xff000022:  167 ,   17 ,   43 ,  235 ,  248 ,  255 ,  238 ,  255 ,   10 ,    0 ,   54 ,    0 ,   78 ,   31 ,   44 ,    5 ,  149 ,  167 ,  120 ,  246 ,    9 ,  139 ,   88 ,  199 ,   47 ,  128 ,    0 ,    0 ,    0 ,  147 ,    9 ,    9 ,    0 ,    0 ,    0 ,    0 ,    0 ,  225 ,  196 ,  120 ,  246 ,   40 ,    8 ,    0 ,   17 ,   11 ,  242 ,  144 ,  137 ,  128 ,   75 ,    6 
E: 000000.178859 64 01 80 7e 81 80 00 00 ca 08 00 00 00 a7 11 2b eb f8 ff ee ff 0a 00 36 00 4e 1f 2c 05 95 a7 78 f6 09 8b 58 c7 2f 80 00 00 00 93 09 09 00 00 00 00 00 e1 c4 78 f6 28 08 00 11 0b f2 90 89 80 4b 06
# ReportID: 1 / X:  128 | Y:  126 | Z:  129 | Rz:  128 | Rx:    0 | Ry:    0 | 0xff000020:  203 | Hat switch:   8 | Button: 0  0  0  0  0  0  0  0  0  0  0  0  0  0  0 | 0xff000021: 0 , 0 , 0 , 0 , 0 , 0 , 0 , 0 , 0 , 0 , 0 , 0 , 0 | 0xff000022:  168 ,   17 ,   43 ,  235 ,  246 ,  255 ,  237 ,  255 ,   11 ,    0 ,   55 ,    0 ,   91 ,   31 ,   47 ,    5 ,  136 ,  214 ,  120 ,  246 ,    9 ,  139 ,   88 ,  199 ,   47 ,  128 ,    0 ,    0 ,    0 ,  147 ,    9 ,    9 ,    0 ,    0 ,    0 ,    0 ,    0 ,  196 ,  243 ,  120 ,  246 ,   40 ,    8 ,    0 ,  210 ,   63 ,   50 ,  252 ,  107 ,  154 ,  136 ,  169 
E: 000000.182289 64 01 80 7e 81 80 00 00 cb 08 00 00 00 a8 11 2b eb f6 ff ed ff 0b 00 37 00 5b 1f 2f 05 88 d6 78 f6 09 8b 58 c7 2f 80 00 00 00 93 09 09 00 00 00 00 00 c4 f3 78 f6 28 08 00 d2 3f 32 fc 6b 9a 88 a9
# ReportID: 1 / X:  128 | Y:  126 | Z:  129 | Rz:  128 | Rx:    0 | Ry:    0 | 0xff000020:  204 | Hat switch:   8 | Button: 0  0  0  0  0  0  0  0  0  0  0  0  0  0  0 | 0xff000021: 0 , 0 , 0 , 0 , 0 , 0 , 0 , 0 , 0 , 0 , 0 , 0 , 0 | 0xff000022:  169 ,   17 ,   43 ,  235 ,  247 ,  255 ,  237 ,  255 ,   11 ,    0 ,   57 ,    0 ,   87 ,   31 ,   39 ,    5 ,  123 ,    5 ,  121 ,  246 ,    9 ,  139 ,   88 ,  199 ,   47 ,  128 ,    0 ,    0 ,    0 ,  147 ,    9 ,    9 ,    0 ,    0 ,    0 ,    0 ,    0 ,  161 ,   34 ,  121 ,  246 ,   40 ,    8 ,    0 ,  191 ,  203 ,  142 ,   71 ,  180 ,   34 ,   32 ,  245 
E: 000000.186250 64 01 80 7e 81 80 00 00 cc 08 00 00 00 a9 11 2b eb f7 ff ed ff 0b 00 39 00 57 1f 27 05 7b 05 79 f6 09 8b 58 c7 2f 80 00 00 00 93 09 09 00 00 00 00 00 a1 22 79 f6 28 08 00 bf cb 8e 47 b4 22 20 f5
# ReportID: 1 / X:  128 | Y:  126 | Z:  129 | Rz:  128 | Rx:    0 | Ry:    0 | 0xff000020:  205 | Hat switch:   8 | Button: 0  0  0  0  0  0  0  0  0  0  0  0  0  0  0 | 0xff000021: 0 , 0 , 0 , 0 , 0 , 0 , 0 , 0 , 0 , 0 , 0 , 0 , 0 | 0xff000022:  170 ,   17 ,   43 ,  235 ,  249 ,  255 ,  238 ,  255 ,   11 ,    0 ,   49 ,    0 ,   91 ,   31 ,   46 ,    5 ,  110 ,   52 ,  121 ,  246 ,    9 ,  139 ,   88 ,  199 ,   47 ,  128 ,    0 ,    0 ,    0 ,  147 ,    9 ,    9 ,    0 ,    0 ,    0 ,    0 ,    0 ,  129 ,   81 ,  121 ,  246 ,   40 ,    8 ,    0 ,   15 ,   30 ,   83 ,   29 ,  255 ,  103 ,   33 ,    7 
E: 000000.191264 64 01 80 7e 81 80 00 00 cd 08 00 00 00 aa 11 2b eb f9 ff ee ff 0b 00 31 00 5b 1f 2e 05 6e 34 79 f6 09 8b 58 c7 2f 80 00 00 00 93 09 09 00 00 00 00 00 81 51 79 f6 28 08 00 0f 1e 53 1d ff 67 21 07
# ReportID: 1 / X:  128 | Y:  126 | Z:  129 | Rz:  128 | Rx:    0 | Ry:    0 | 0xff000020:  206 | Hat switch:   8 | Button: 0  0  0  0  0  0  0  0  0  0  0  0  0  0  0 | 0xff000021: 0 , 0 , 0 , 0 , 0 , 0 , 0 , 0 , 0 , 0 , 0 , 0 , 0 | 0xff000022:  171 ,   17 ,   43 ,  235 ,  248 ,  255 ,  237 ,  255 ,   11 ,    0 ,   53 ,    0 ,   94 ,   31 ,   42 ,    5 ,   98 ,   99 ,  121 ,  246 ,    9 ,  139 ,   88 ,  199 ,   47 ,  128 ,    0 ,    0 ,    0 ,  147 ,    9 ,    9 ,    0 ,    0 ,    0 ,    0 ,    0 ,   97 ,  128 ,  121 ,  246 ,   40 ,    8 ,    0 ,   50 ,  159 ,   21 ,   86 ,  254 ,  242 ,   60 ,   43 
E: 000000.194692 64 01 80 7e 81 80 00 00 ce 08 00 00 00 ab 11 2b eb f8 ff ed ff 0b 00 35 00 5e 1f 2a 05 62 63 79 f6 09 8b 58 c7 2f 80 00 00 00 93 09 09 00 00 00 00 00 61 80 79 f6 28 08 00 32 9f 15 56 fe f2 3c 2b
# ReportID: 1 / X:  128 | Y:  126 | Z:  129 | Rz:  128 | Rx:    0 | Ry:    0 | 0xff000020:  207 | Hat switch:   8 | Button: 0  0  0  0  0  0  0  0  0  0  0  0  0  0  0 | 0xff000021: 0 , 0 , 0 , 0 , 0 , 0 , 0 , 0 , 0 , 0 , 0 , 0 , 0 | 0xff000022:  172 ,   17 ,   43 ,  235 ,  246 ,  255 ,  238 ,  255 ,   10 ,    0 ,   63 ,    0 ,   87 ,   31 ,   47 ,    5 ,   85 ,  146 ,  121 ,  246 ,    9 ,  139 ,   88 ,  199 ,   47 ,  128 ,    0 ,    0 ,    0 ,  147 ,    9 ,    9 ,    0 ,    0 ,    0 ,    0 ,    0 ,   65 ,  175 ,  121 ,  246 ,   40 ,    8 ,    0 ,   80 ,   25 ,  153 ,  111 ,  255 ,  233 ,  231 ,  145 
E: 000000.198192 64 01 80 7e 81 80 00 00 cf 08 00 00 00 ac 11 2b eb f6 ff ee ff 0a 00 3f 00 57 1f 2f 05 55 92 79 f6 09 8b 58 c7 2f 80 00 00 00 93 09 09 00 00 00 00 00 41 af 79 f6 28 08 00 50 19 99 6f ff e9 e7 91
# ReportID: 1 / X:  128 | Y:  126 | Z:  129 | Rz:  128 | Rx:    0 | Ry:    0 | 0xff000020:  208 | Hat switch:   8 | Button: 0  0  0  0  0  0  0  0  0  0  0  0  0  0  0 | 0xff000021: 0 , 0 , 0 , 0 , 0 , 0 , 0 , 0 , 0 , 0 , 0 , 0 , 0 | 0xff000022:  173 ,   17 ,   43 ,  235 ,  247 ,  255 ,  238 ,  255 ,   10 ,    0 ,   60 ,    0 ,   75 ,   31 ,   53 ,    5 ,   72 ,  193 ,  121 ,  246 ,    9 ,  139 ,   88 ,  199 ,   47 ,  128 ,    0 ,    0 ,    0 ,  147 ,    9 ,    9 ,    0 ,    0 ,    0 ,    0 ,    0 ,   33 ,  222 ,  121 ,  246 ,   40 ,    8 ,    0 ,   54 ,  110 ,   46 ,   22 ,  244 ,   91 ,  105 ,  107 
E: 000000.202282 64 01 80 7e 81 80 00 00 d0 08 00 00 00 ad 11 2b eb f7 ff ee ff 0a 00 3c 00 4b 1f 35 05 48 c1 79 f6 09 8b 58 c7 2f 80 00 00 00 93 09 09 00 00 00 00 00 21 de 79 f6 28 08 00 36 6e 2e 16 f4 5b 69 6b
# ReportID: 1 / X:  128 | Y:  126 | Z:  129 | Rz:  128 | Rx:    0 | Ry:    0 | 0xff000020:  209 | Hat switch:   8 | Button: 0  0  0  0  0  0  0  0  0  0  0  0  0  0  0 | 0xff000021: 0 , 0 , 0 , 0 , 0 , 0 , 0 , 0 , 0 , 0 , 0 , 0 , 0 | 0xff000022:  174 ,   17 ,   43 ,  235 ,  247 ,  255 ,  239 ,  255 ,   10 ,    0 ,   63 ,    0 ,   83 ,   31 ,   49 ,    5 ,   59 ,  240 ,  121 ,  246 ,    9 ,  139 ,   88 ,  199 ,   47 ,  128 ,    0 ,    0 ,    0 ,  147 ,    9 ,    9 ,    0 ,    0 ,    0 ,    0 ,    0 ,    1 ,   13 ,  122 ,  246 ,   40 ,    8 ,    0 ,  130 ,   43 ,   45 ,  235 ,   99 ,  248 ,   17 ,   44 
E: 000000.206175 64 01 80 7e 81 80 00 00 d1 08 00 00 00 ae 11 2b eb f7 ff ef ff 0a 00 3f 00 53 1f 31 05 3b f0 79 f6 09 8b 58 c7 2f 80 00 00 00 93 09 09 00 00 00 00 00 01 0d 7a f6 28 08 00 82 2b 2d eb 63 f8 11 2c
# ReportID: 1 / X:  128 | Y:  126 | Z:  129 | Rz:  128 | Rx:    0 | Ry:    0 | 0xff000020:  210 | Hat switch:   8 | Button: 0  0  0  0  0  0  0  0  0  0  0  0  0  0  0 | 0xff000021: 0 , 0 , 0 , 0 , 0 , 0 , 0 , 0 , 0 , 0 , 0 , 0 , 0 | 0xff000022:  175 ,   17 ,   43 ,  235 ,  248 ,  255 ,  238 ,  255 ,   10 ,    0 ,   66 ,    0 ,   98 ,   31 ,   53 ,    5 ,   46 ,   31 ,  122 ,  246 ,    9 ,  139 ,   88 ,  199 ,   47 ,  128 ,    0 ,    0 ,    0 ,  147 ,    9 ,    9 ,    0 ,    0 ,    0 ,    0 ,    0 ,  225 ,   59 ,  122 ,  246 ,   40 ,    8 ,    0 ,  225 ,  248 ,  252 ,  163 ,   74 ,  169 ,  218 ,  109 
E: 000000.212413 64 01 80 7e 81 80 00 00 d2 08 00 00 00 af 11 2b eb f8 ff ee ff 0a 00 42 00 62 1f 35 05 2e 1f 7a f6 09 8b 58 c7 2f 80 00 00 00 93 09 09 00 00 00 00 00 e1 3b 7a f6 28 08 00 e1 f8 fc a3 4a a9 da 6d
# ReportID: 1 / X:  128 | Y:  126 | Z:  129 | Rz:  128 | Rx:    0 | Ry:    0 | 0xff000020:  211 | Hat switch:   8 | Button: 0  0  0  0  0  0  0  0  0  0  0  0  0  0  0 | 0xff000021: 0 , 0 , 0 , 0 , 0 , 0 , 0 , 0 , 0 , 0 , 0 , 0 , 0 | 0xff000022:  176 ,   17 ,   43 ,  235 ,  246 ,  255 ,  237 ,  255 ,   10 ,    0 ,   58 ,    0 ,   95 ,   31 ,   49 ,    5 ,   34 ,   78 ,  122 ,  246 ,    9 ,  139 ,   88 ,  199 ,   47 ,  128 ,    0 ,    0 ,    0 ,  147 ,    9 ,    9 ,    0 ,    0 ,    0 ,    0 ,    0 ,  193 ,  106 ,  122 ,  246 ,   40 ,    8 ,    0 ,   88 ,   49 ,   82 ,  126 ,  105 ,  125 ,   13 ,  228 
E: 000000.214107 64 01 80 7e 81 80 00 00 d3 08 00 00 00 b0 11 2b eb f6 ff ed ff 0a 00 3a 00 5f 1f 31 05 22 4e 7a f6 09 8b 58 c7 2f 80 00 00 00 93 09 09 00 00 00 00 00 c1 6a 7a f6 28 08 00 58 31 52 7e 69 7d 0d e4
# ReportID: 1 / X:  128 | Y:  126 | Z:  129 | Rz:  128 | Rx:    0 | Ry:    0 | 0xff000020:  212 | Hat switch:   8 | Button: 0  0  0  0  0  0  0  0  0  0  0  0  0  0  0 | 0xff000021: 0 , 0 , 0 , 0 , 0 , 0 , 0 , 0 , 0 , 0 , 0 , 0 , 0 | 0xff000022:  177 ,   17 ,   43 ,  235 ,  247 ,  255 ,  237 ,  255 ,   10 ,    0 ,   55 ,    0 ,   73 ,   31 ,   54 ,    5 ,   21 ,  125 ,  122 ,  246 ,    9 ,  139 ,   88 ,  199 ,   47 ,  128 ,    0 ,    0 ,    0 ,  147 ,    9 ,    9 ,    0 ,    0 ,    0 ,    0 ,    0 ,  161 ,  153 ,  122 ,  246 ,   40 ,    8 ,    0 ,  119 ,  112 ,   99 ,  127 ,  237 ,  235 ,  115 ,   71 
E: 000000.218430 64 01 80 7e 81 80 00 00 d4 08 00 00 00 b1 11 2b eb f7 ff ed ff 0a 00 37 00 49 1f 36 05 15 7d 7a f6 09 8b 58 c7 2f 80 00 00 00 93 09 09 00 00 00 00 00 a1 99 7a f6 28 08 00 77 70 63 7f ed eb 73 47
# ReportID: 1 / X:  128 | Y:  126 | Z:  129 | Rz:  128 | Rx:    0 | Ry:    0 | 0xff000020:  213 | Hat switch:   8 | Button: 0  0  0  0  0  0  0  0  0  0  0  0  0  0  0 | 0xff000021: 0 , 0 , 0 , 0 , 0 , 0 , 0 , 0 , 0 , 0 , 0 , 0 , 0 | 0xff000022:  178 ,   17 ,   43 ,  235 ,  246 ,  255 ,  238 ,  255 ,   10 ,    0 ,   60 ,    0 ,   81 ,   31 ,   55 ,    5 ,    8 ,  172 ,  122 ,  246 ,    9 ,  139 ,   88 ,  199 ,   47 ,  128 ,    0 ,    0 ,    0 ,  147 ,    9 ,    9 ,    0 ,    0 ,    0 ,    0 ,    0 ,  129 ,  200 ,  122 ,  246 ,   40 ,    8 ,    0 ,   82 ,  183 ,  135 ,  165 ,  132 ,   81 ,   54 ,   49 
E: 000000.222693 64 01 80 7e 81 80 00 00 d5 08 00 00 00 b2 11 2b eb f6 ff ee ff 0a 00 3c 00 51 1f 37 05 08 ac 7a f6 09 8b 58 c7 2f 80 00 00 00 93 09 09 00 00 00 00 00 81 c8 7a f6 28 08 00 52 b7 87 a5 84 51 36 31
# ReportID: 1 / X:  128 | Y:  126 | Z:  129 | Rz:  128 | Rx:    0 | Ry:    0 | 0xff000020:  214 | Hat switch:   8 | Button: 0  0  0  0  0  0  0  0  0  0  0  0  0  0  0 | 0xff000021: 0 , 0 , 0 , 0 , 0 , 0 , 0 , 0 , 0 , 0 , 0 , 0 , 0 | 0xff000022:  179 ,   17 ,   43 ,  235 ,  246 ,  255 ,  237 ,  255 ,   11 ,    0 ,   62 ,    0 ,   85 ,   31 ,   46 ,    5 ,  251 ,  218 ,  122 ,  246 ,    9 ,  139 ,   88 ,  199 ,   47 ,  128 ,    0 ,    0 ,    0 ,  147 ,    9 ,    9 ,    0 ,    0 ,    0 ,    0 ,    0 ,   97 ,  247 ,  122 ,  246 ,   40 ,    8 ,    0 ,  171 ,   35 ,   73 ,  168 ,   54 ,  108 ,   85 ,  106 
E: 000000.226255 64 01 80 7e 81 80 00 00 d6 08 00 00 00 b3 11 2b eb f6 ff ed ff 0b 00 3e 00 55 1f 2e 05 fb da 7a f6 09 8b 58 c7 2f 80 00 00 00 93 09 09 00 00 00 00 00 61 f7 7a f6 28 08 00 ab 23 49 a8 36 6c 55 6a
# ReportID: 1 / X:  128 | Y:  126 | Z:  129 | Rz:  128 | Rx:    0 | Ry:    0 | 0xff000020:  215 | Hat switch:   8 | Button: 0  0  0  0  0  0  0  0  0  0  0  0  0  0  0 | 0xff000021: 0 , 0 , 0 , 0 , 0 , 0 , 0 , 0 , 0 , 0 , 0 , 0 , 0 | 0xff000022:  180 ,   17 ,   43 ,  235 ,  247 ,  255 ,  239 ,  255 ,   10 ,    0 ,   53 ,    0 ,   78 ,   31 ,   52 ,    5 ,  239 ,    9 ,  123 ,  246 ,    9 ,  139 ,   88 ,  199 ,   47 ,  128 ,    0 ,    0 ,    0 ,  147 ,    9 ,    9 ,    0 ,    0 ,    0 ,    0 ,    0 ,   65 ,   38 ,  123 ,  246 ,   40 ,    8 ,    0 ,   62 ,   16 ,   71 ,  125 ,   21 ,  235 ,   76 ,  172 
E: 000000.230252 64 01 80 7e 81 80 00 00 d7 08 00 00 00 b4 11 2b eb f7 ff ef ff 0a 00 35 00 4e 1f 34 05 ef 09 7b f6 09 8b 58 c7 2f 80 00 00 00 93 09 09 00 00 00 00 00 41 26 7b f6 28 08 00 3e 10 47 7d 15 eb 4c ac
# ReportID: 1 / X:  128 | Y:  126 | Z:  129 | Rz:  128 | Rx:    0 | Ry:    0 | 0xff000020:  216 | Hat switch:   8 | Button: 0  0  0  0  0  0  0  0  0  0  0  0  0  0  0 | 0xff000021: 0 , 0 , 0 , 0 , 0 , 0 , 0 , 0 , 0 , 0 , 0 , 0 , 0 | 0xff000022:  181 ,   17 ,   43 ,  235 ,  248 ,  255 ,  239 ,  255 ,    9 ,    0 ,   52 ,    0 ,   80 ,   31 ,   49 ,    5 ,  226 ,   56 ,  123 ,  246 ,    9 ,  139 ,   88 ,  199 ,   47 ,  128 ,    0 ,    0 ,    0 ,  147 ,    9 ,    9 ,    0 ,    0 ,    0 ,    0 ,    0 ,   33 ,   85 ,  123 ,  246 ,   40 ,    8 ,    0 ,  146 ,   40 ,   15 ,    3 ,  147 ,  208 ,   65 ,  202 
E: 000000.234287 64 01 80 7e 81 80 00 00 d8 08 00 00 00 b5 11 2b eb f8 ff ef ff 09 00 34 00 50 1f 31 05 e2 38 7b f6 09 8b 58 c7 2f 80 00 00 00 93 09 09 00 00 00 00 00 21 55 7b f6 28 08 00 92 28 0f 03 93 d0 41 ca
# ReportID: 1 / X:  128 | Y:  126 | Z:  129 | Rz:  128 | Rx:    0 | Ry:    0 | 0xff000020:  217 | Hat switch:   8 | Button: 0  0  0  0  0  0  0  0  0  0  0  0  0  0  0 | 0xff000021: 0 , 0 , 0 , 0 , 0 , 0 , 0 , 0 , 0 , 0 , 0 , 0 , 0 | 0xff000022:  182 ,   17 ,   43 ,  235 ,  246 ,  255 ,  238 ,  255 ,   11 ,    0 ,   57 ,    0 ,   96 ,   31 ,   48 ,    5 ,  213 ,  103 ,  123 ,  246 ,    9 ,  139 ,   88 ,  199 ,   47 ,  128 ,    0 ,    0 ,    0 ,  147 ,    9 ,    9 ,    0 ,    0 ,    0 ,    0 ,    0 ,    1 ,  132 ,  123 ,  246 ,   40 ,    8 ,    0 ,    8 ,  114 ,  116 ,  121 ,  175 ,   37 ,  246 ,   22 
E: 000000.238639 64 01 80 7e 81 80 00 00 d9 08 00 00 00 b6 11 2b eb f6 ff ee ff 0b 00 39 00 60 1f 30 05 d5 67 7b f6 09 8b 58 c7 2f 80 00 00 00 93 09 09 00 00 00 00 00 01 84 7b f6 28 08 00 08 72 74 79 af 25 f6 16
# ReportID: 1 / X:  128 | Y:  126 | Z:  129 | Rz:  128 | Rx:    0 | Ry:    0 | 0xff000020:  218 | Hat switch:   8 | Button: 0  0  0  0  0  0  0  0  0  0  0  0  0  0  0 | 0xff000021: 0 , 0 , 0 , 0 , 0 , 0 , 0 , 0 , 0 , 0 , 0 , 0 , 0 | 0xff000022:  183 ,   17 ,   43 ,  235 ,  246 ,  255 ,  238 ,  255 ,   10 ,    0 ,   56 ,    0 ,   88 ,   31 ,   50 ,    5 ,  200 ,  150 ,  123 ,  246 ,    9 ,  139 ,   88 ,  199 ,   47 ,  128 ,    0 ,    0 ,    0 ,  147 ,    9 ,    9 ,    0 ,    0 ,    0 ,    0 ,    0 ,  225 ,  178 ,  123 ,  246 ,   40 ,    8 ,    0 ,   49 ,   81 ,  142 ,   95 ,   54 ,   69 ,   52 ,  109 
E: 000000.242544 64 01 80 7e 81 80 00 00 da 08 00 00 00 b7 11 2b eb f6 ff ee ff 0a 00 38 00 58 1f 32 05 c8 96 7b f6 09 8b 58 c7 2f 80 00 00 00 93 09 09 00 00 00 00 00 e1 b2 7b f6 28 08 00 31 51 8e 5f 36 45 34 6d
# ReportID: 1 / X:  128 | Y:  126 | Z:  129 | Rz:  128 | Rx:    0 | Ry:    0 | 0xff000020:  219 | Hat switch:   8 | Button: 0  0  0  0  0  0  0  0  0  0  0  0  0  0  0 | 0xff000021: 0 , 0 , 0 , 0 , 0 , 0 , 0 , 0 , 0 , 0 , 0 , 0 , 0 | 0xff000022:  184 ,   17 ,   43 ,  235 ,  247 ,  255 ,  239 ,  255 ,   11 ,    0 ,   46 ,    0 ,   78 ,   31 ,   42 ,    5 ,  188 ,  197 ,  123 ,  246 ,    9 ,  139 ,   88 ,  199 ,   47 ,  128 ,    0 ,    0 ,    0 ,  147 ,    9 ,    9 ,    0 ,    0 ,    0 ,    0 ,    0 ,  193 ,  225 ,  123 ,  246 ,   40 ,    8 ,    0 ,  134 ,  187 ,  150 ,   26 ,  244 ,  238 ,   53 ,   96 
E: 000000.247384 64 01 80 7e 81 80 00 00 db 08 00 00 00 b8 11 2b eb f7 ff ef ff 0b 00 2e 00 4e 1f 2a 05 bc c5 7b f6 09 8b 58 c7 2f 80 00 00 00 93 09 09 00 00 00 00 00 c1 e1 7b f6 28 08 00 86 bb 96 1a f4 ee 35 60
# ReportID: 1 / X:  128 | Y:  126 | Z:  129 | Rz:  128 | Rx:    0 | Ry:    0 | 0xff000020:  220 | Hat switch:   8 | Button: 0  0  0  0  0  0  0  0  0  0  0  0  0  0  0 | 0xff000021: 0 , 0 , 0 , 0 , 0 , 0 , 0 , 0 , 0 , 0 , 0 , 0 , 0 | 0xff000022:  185 ,   17 ,   43 ,  235 ,  247 ,  255 ,  239 ,  255 ,   10 ,    0 ,   44 ,    0 ,   81 ,   31 ,   39 ,    5 ,  175 ,  244 ,  123 ,  246 ,    9 ,  139 ,   88 ,  199 ,   47 ,  128 ,    0 ,    0 ,    0 ,  147 ,    9 ,    9 ,    0 ,    0 ,    0 ,    0 ,    0 ,  161 ,   16 ,  124 ,  246 ,   40 ,    8 ,    0 ,  143 ,  135 ,   47 ,  123 ,  209 ,   76 ,  233 ,  214 
E: 000000.251099 64 01 80 7e 81 80 00 00 dc 08 00 00 00 b9 11 2b eb f7 ff ef ff 0a 00 2c 00 51 1f 27 05 af f4 7b f6 09 8b 58 c7 2f 80 00 00 00 93 09 09 00 00 00 00 00 a1 10 7c f6 28 08 00 8f 87 2f 7b d1 4c e9 d6
# ReportID: 1 / X:  128 | Y:  126 | Z:  129 | Rz:  128 | Rx:    0 | Ry:    0 | 0xff000020:  221 | Hat switch:   8 | Button: 0  0  0  0  0  0  0  0  0  0  0  0  0  0  0 | 0xff000021: 0 , 0 , 0 , 0 , 0 , 0 , 0 , 0 , 0 , 0 , 0 , 0 , 0 | 0xff000022:  186 ,   17 ,   43 ,  235 ,  247 ,  255 ,  238 ,  255 ,   10 ,    0 ,   50 ,    0 ,   90 ,   31 ,   45 ,    5 ,  162 ,   35 ,  124 ,  246 ,    9 ,  139 ,   88 ,  199 ,   47 ,  128 ,    0 ,    0 ,    0 ,  147 ,    9 ,    9 ,    0 ,    0 ,    0 ,    0 ,    0 ,  129 ,   63 ,  124 ,  246 ,   40 ,    8 ,    0 ,  252 ,  215 ,  217 ,  240 ,   70 ,   11 ,   51 ,  129 
E: 000000.254569 64 01 80 7e 81 80 00 00 dd 08 00 00 00 ba 11 2b eb f7 ff ee ff 0a 00 32 00 5a 1f 2d 05 a2 23 7c f6 09 8b 58 c7 2f 80 00 00 00 93 09 09 00 00 00 00 00 81 3f 7c f6 28 08 00 fc d7 d9 f0 46 0b 33 81
# ReportID: 1 / X:  128 | Y:  126 | Z:  129 | Rz:  128 | Rx:    0 | Ry:    0 | 0xff000020:  222 | Hat switch:   8 | Button: 0  0  0  0  0  0  0  0  0  0  0  0  0  0  0 | 0xff000021: 0 , 0 , 0 , 0 , 0 , 0 , 0 , 0 , 0 , 0 , 0 , 0 , 0 | 0xff000022:  187 ,   17 ,   43 ,  235 ,  247 ,  255 ,  238 ,  255 ,   10 ,    0 ,   47 ,    0 ,   92 ,   31 ,   51 ,    5 ,  149 ,   82 ,  124 ,  246 ,    9 ,  139 ,   88 ,  199 ,   47 ,  128 ,    0 ,    0 ,    0 ,  147 ,    9 ,    9 ,    0 ,    0 ,    0 ,    0 ,    0 ,   97 ,  110 ,  124 ,  246 ,   40 ,    8 ,    0 ,  248 ,   18 ,  188 ,   45 ,  203 ,   75 ,  118 ,  249 
E: 000000.258481 64 01 80 7e 81 80 00 00 de 08 00 00 00 bb 11 2b eb f7 ff ee ff 0a 00 2f 00 5c 1f 33 05 95 52 7c f6 09 8b 58 c7 2f 80 00 00 00 93 09 09 00 00 00 00 00 61 6e 7c f6 28 08 00 f8 12 bc 2d cb 4b 76 f9
# ReportID: 1 / X:  128 | Y:  126 | Z:  129 | Rz:  128 | Rx:    0 | Ry:    0 | 0xff000020:  223 | Hat switch:   8 | Button: 0  0  0  0  0  0  0  0  0  0  0  0  0  0  0 | 0xff000021: 0 , 0 , 0 , 0 , 0 , 0 , 0 , 0 , 0 , 0 , 0 , 0 , 0 | 0xff000022:  188 ,   17 ,   43 ,  235 ,  246 ,  255 ,  238 ,  255 ,   10 ,    0 ,   44 ,    0 ,   86 ,   31 ,   54 ,    5 ,  136 ,  129 ,  124 ,  246 ,    9 ,  139 ,   88 ,  199 ,   47 ,  128 ,    0 ,    0 ,    0 ,  147 ,    9 ,    9 ,    0 ,    0 ,    0 ,    0 ,    0 ,   65 ,  157 ,  124 ,  246 ,   40 ,    8 ,    0 ,  192 ,  186 ,  254 ,   89 ,  152 ,  198 ,   23 ,  195 
E: 000000.262152 64 01 80 7e 81 80 00 00 df 08 00 00 00 bc 11 2b eb f6 ff ee ff 0a 00 2c 00 56 1f 36 05 88 81 7c f6 09 8b 58 c7 2f 80 00 00 00 93 09 09 00 00 00 00 00 41 9d 7c f6 28 08 00 c0 ba fe 59 98 c6 17 c3
# ReportID: 1 / X:  128 | Y:  126 | Z:  129 | Rz:  128 | Rx:    0 | Ry:    0 | 0xff000020:  224 | Hat switch:   8 | Button: 0  0  0  0  0  0  0  0  0  0  0  0  0  0  0 | 0xff000021: 0 , 0 , 0 , 0 , 0 , 0 , 0 , 0 , 0 , 0 , 0 , 0 , 0 | 0xff000022:  189 ,   17 ,   43 ,  235 ,  246 ,  255 ,  238 ,  255 ,   10 ,    0 ,   48 ,    0 ,   87 ,   31 ,   48 ,    5 ,  124 ,  176 ,  124 ,  246 ,    9 ,  139 ,   88 ,  199 ,   47 ,  128 ,    0 ,    0 ,    0 ,  147 ,    9 ,    9 ,    0 ,    0 ,    0 ,    0 ,    0 ,   33 ,  204 ,  124 ,  246 ,   40 ,    8 ,    0 ,   41 ,  222 ,  255 ,   27 ,  238 ,  240 ,   72 ,  177 
E: 000000.266281 64 01 80 7e 81 80 00 00 e0 08 00 00 00 bd 11 2b eb f6 ff ee ff 0a 00 30 00 57 1f 30 05 7c b0 7c f6 09 8b 58 c7 2f 80 00 00 00 93 09 09 00 00 00 00 00 21 cc 7c f6 28 08 00 29 de ff 1b ee f0 48 b1
# ReportID: 1 / X:  128 | Y:  126 | Z:  129 | Rz:  128 | Rx:    0 | Ry:    0 | 0xff000020:  225 | Hat switch:   8 | Button: 0  0  0  0  0  0  0  0  0  0  0  0  0  0  0 | 0xff000021: 0 , 0 , 0 , 0 , 0 , 0 , 0 , 0 , 0 , 0 , 0 , 0 , 0 | 0xff000022:  190 ,   17 ,   43 ,  235 ,  247 ,  255 ,  238 ,  255 ,   10 ,    0 ,   42 ,    0 ,   85 ,   31 ,   56 ,    5 ,  111 ,  223 ,  124 ,  246 ,    9 ,  139 ,   88 ,  199 ,   47 ,  128 ,    0 ,    0 ,    0 ,  147 ,    9 ,    9 ,    0 ,    0 ,    0 ,    0 ,    0 ,    1 ,  251 ,  124 ,  246 ,   40 ,    8 ,    0 ,   59 ,  151 ,  151 ,  108 ,  139 ,  242 ,   71 ,   50 
E: 000000.270223 64 01 80 7e 81 80 00 00 e1 08 00 00 00 be 11 2b eb f7 ff ee ff 0a 00 2a 00 55 1f 38 05 6f df 7c f6 09 8b 58 c7 2f 80 00 00 00 93 09 09 00 00 00 00 00 01 fb 7c f6 28 08 00 3b 97 97 6c 8b f2 47 32
# ReportID: 1 / X:  128 | Y:  126 | Z:  129 | Rz:  128 | Rx:    0 | Ry:    0 | 0xff000020:  226 | Hat switch:   8 | Button: 0  0  0  0  0  0  0  0  0  0  0  0  0  0  0 | 0xff000021: 0 , 0 , 0 , 0 , 0 , 0 , 0 , 0 , 0 , 0 , 0 , 0 , 0 | 0xff000022:  191 ,   17 ,   43 ,  235 ,  246 ,  255 ,  238 ,  255 ,   10 ,    0 ,   43 ,    0 ,   79 ,   31 ,   58 ,    5 ,   98 ,   14 ,  125 ,  246 ,    9 ,  139 ,   88 ,  199 ,   47 ,  128 ,    0 ,    0 ,    0 ,  147 ,    9 ,    9 ,    0 ,    0 ,    0 ,    0 ,    0 ,  225 ,   41 ,  125 ,  246 ,   40 ,    8 ,    0 ,   12 ,  117 ,   24 ,  154 ,  199 ,  187 ,  209 ,   91 
E: 000000.274251 64 01 80 7e 81 80 00 00 e2 08 00 00 00 bf 11 2b eb f6 ff ee ff 0a 00 2b 00 4f 1f 3a 05 62 0e 7d f6 09 8b 58 c7 2f 80 00 00 00 93 09 09 00 00 00 00 00 e1 29 7d f6 28 08 00 0c 75 18 9a c7 bb d1 5b
# ReportID: 1 / X:  128 | Y:  127 | Z:  129 | Rz:  128 | Rx:    0 | Ry:    0 | 0xff000020:  227 | Hat switch:   8 | Button: 0  0  0  0  0  0  0  0  0  0  0  0  0  0  0 | 0xff000021: 0 , 0 , 0 , 0 , 0 , 0 , 0 , 0 , 0 , 0 , 0 , 0 , 0 | 0xff000022:  192 ,   17 ,   43 ,  235 ,  248 ,  255 ,  237 ,  255 ,   10 ,    0 ,   43 ,    0 ,   87 ,   31 ,   64 ,    5 ,   85 ,   61 ,  125 ,  246 ,    9 ,  139 ,   88 ,  199 ,   47 ,  128 ,    0 ,    0 ,    0 ,  147 ,    9 ,    9 ,    0 ,    0 ,    0 ,    0 ,    0 ,  193 ,   88 ,  125 ,  246 ,   40 ,    8 ,    0 ,  159 ,   16 ,  150 ,   40 ,  131 ,  129 ,   96 ,   56 
E: 000000.278537 64 01 80 7f 81 80 00 00 e3 08 00 00 00 c0 11 2b eb f8 ff ed ff 0a 00 2b 00 57 1f 40 05 55 3d 7d f6 09 8b 58 c7 2f 80 00 00 00 93 09 09 00 00 00 00 00 c1 58 7d f6 28 08 00 9f 10 96 28 83 81 60 38
# ReportID: 1 / X:  128 | Y:  126 | Z:  129 | Rz:  128 | Rx:    0 | Ry:    0 | 0xff000020:  228 | Hat switch:   8 | Button: 0  0  0  0  0  0  0  0  0  0  0  0  0  0  0 | 0xff000021: 0 , 0 , 0 , 0 , 0 , 0 , 0 , 0 , 0 , 0 , 0 , 0 , 0 | 0xff000022:  193 ,   17 ,   43 ,  235 ,  246 ,  255 ,  238 ,  255 ,    9 ,    0 ,   38 ,    0 ,   83 ,   31 ,   57 ,    5 ,   73 ,  108 ,  125 ,  246 ,    9 ,  139 ,   88 ,  199 ,   47 ,  128 ,    0 ,    0 ,    0 ,  147 ,    9 ,    9 ,    0 ,    0 ,    0 ,    0 ,    0 ,  161 ,  135 ,  125 ,  246 ,   40 ,    8 ,    0 ,   40 ,  159 ,   52 ,   91 ,   18 ,    4 ,   23 ,  240 
E: 000000.283306 64 01 80 7e 81 80 00 00 e4 08 00 00 00 c1 11 2b eb f6 ff ee ff 09 00 26 00 53 1f 39 05 49 6c 7d f6 09 8b 58 c7 2f 80 00 00 00 93 09 09 00 00 00 00 00 a1 87 7d f6 28 08 00 28 9f 34 5b 12 04 17 f0
# ReportID: 1 / X:  128 | Y:  126 | Z:  129 | Rz:  128 | Rx:    0 | Ry:    0 | 0xff000020:  229 | Hat switch:   8 | Button: 0  0  0  0  0  0  0  0  0  0  0  0  0  0  0 | 0xff000021: 0 , 0 , 0 , 0 , 0 , 0 , 0 , 0 , 0 , 0 , 0 , 0 , 0 | 0xff000022:  194 ,   17 ,   43 ,  235 ,  248 ,  255 ,  238 ,  255 ,   10 ,    0 ,   47 ,    0 ,   79 ,   31 ,   70 ,    5 ,   60 ,  155 ,  125 ,  246 ,    9 ,  139 ,   88 ,  199 ,   47 ,  128 ,    0 ,    0 ,    0 ,  147 ,    9 ,    9 ,    0 ,    0 ,    0 ,    0 ,    0 ,  129 ,  182 ,  125 ,  246 ,   40 ,    8 ,    0 ,   67 ,  185 ,  217 ,   27 ,   63 ,   93 ,  233 ,  105 
E: 000000.286396 64 01 80 7e 81 80 00 00 e5 08 00 00 00 c2 11 2b eb f8 ff ee ff 0a 00 2f 00 4f 1f 46 05 3c 9b 7d f6 09 8b 58 c7 2f 80 00 00 00 93 09 09 00 00 00 00 00 81 b6 7d f6 28 08 00 43 b9 d9 1b 3f 5d e9 69
# ReportID: 1 / X:  128 | Y:  126 | Z:  129 | Rz:  128 | Rx:    0 | Ry:    0 | 0xff000020:  230 | Hat switch:   8 | Button: 0  0  0  0  0  0  0  0  0  0  0  0  0  0  0 | 0xff000021: 0 , 0 , 0 , 0 , 0 , 0 , 0 , 0 , 0 , 0 , 0 , 0 , 0 | 0xff000022:  195 ,   17 ,   43 ,  235 ,  247 ,  255 ,  238 ,  255 ,   10 ,    0 ,   48 ,    0 ,   66 ,   31 ,   67 ,    5 ,   47 ,  202 ,  125 ,  246 ,    9 ,  139 ,   88 ,  199 ,   47 ,  128 ,    0 ,    0 ,    0 ,  147 ,    9 ,    9 ,    0 ,    0 ,    0 ,    0 ,    0 ,   97 ,  229 ,  125 ,  246 ,   40 ,    8 ,    0 ,  171 ,  185 ,  242 ,   33 ,  248 ,  201 ,   66 ,  252 
E: 000000.290977 64 01 80 7e 81 80 00 00 e6 08 00 00 00 c3 11 2b eb f7 ff ee ff 0a 00 30 00 42 1f 43 05 2f ca 7d f6 09 8b 58 c7 2f 80 00 00 00 93 09 09 00 00 00 00 00 61 e5 7d f6 28 08 00 ab b9 f2 21 f8 c9 42 fc
# ReportID: 1 / X:  128 | Y:  126 | Z:  129 | Rz:  128 | Rx:    0 | Ry:    0 | 0xff000020:  231 | Hat switch:   8 | Button: 0  0  0  0  0  0  0  0  0  0  0  0  0  0  0 | 0xff000021: 0 , 0 , 0 , 0 , 0 , 0 , 0 , 0 , 0 , 0 , 0 , 0 , 0 | 0xff000022:  196 ,   17 ,   43 ,  235 ,  247 ,  255 ,  238 ,  255 ,   10 ,    0 ,   48 ,    0 ,   64 ,   31 ,   62 ,    5 ,   34 ,  249 ,  125 ,  246 ,    9 ,  139 ,   88 ,  199 ,   47 ,  128 ,    0 ,    0 ,    0 ,  147 ,    9 ,    9 ,    0 ,    0 ,    0 ,    0 ,    0 ,   65 ,   20 ,  126 ,  246 ,   40 ,    8 ,    0 ,   38 ,   87 ,  196 ,  247 ,   38 ,   38 ,   19 ,  173 
E: 000000.295281 64 01 80 7e 81 80 00 00 e7 08 00 00 00 c4 11 2b eb f7 ff ee ff 0a 00 30 00 40 1f 3e 05 22 f9 7d f6 09 8b 58 c7 2f 80 00 00 00 93 09 09 00 00 00 00 00 41 14 7e f6 28 08 00 26 57 c4 f7 26 26 13 ad
# ReportID: 1 / X:  128 | Y:  126 | Z:  129 | Rz:  128 | Rx:    0 | Ry:    0 | 0xff000020:  232 | Hat switch:   8 | Button: 0  0  0  0  0  0  0  0  0  0  0  0  0  0  0 | 0xff000021: 0 , 0 , 0 , 0 , 0 , 0 , 0 , 0 , 0 , 0 , 0 , 0 , 0 | 0xff000022:  197 ,   17 ,   43 ,  235 ,  247 ,  255 ,  238 ,  255 ,   11 ,    0 ,   42 ,    0 ,   78 ,   31 ,   70 ,    5 ,   22 ,   40 ,  126 ,  246 ,    9 ,  139 ,   88 ,  199 ,   47 ,  128 ,    0 ,    0 ,    0 ,  147 ,    9 ,    9 ,    0 ,    0 ,    0 ,    0 ,    0 ,   33 ,   67 ,  126 ,  246 ,   40 ,    8 ,    0 ,  192 ,  133 ,  247 ,   17 ,  253 ,   47 ,  134 ,   60 
E: 000000.298391 64 01 80 7e 81 80 00 00 e8 08 00 00 00 c5 11 2b eb f7 ff ee ff 0b 00 2a 00 4e 1f 46 05 16 28 7e f6 09 8b 58 c7 2f 80 00 00 00 93 09 09 00 00 00 00 00 21 43 7e f6 28 08 00 c0 85 f7 11 fd 2f 86 3c
# ReportID: 1 / X:  128 | Y:  126 | Z:  129 | Rz:  128 | Rx:    0 | Ry:    0 | 0xff000020:  233 | Hat switch:   8 | Button: 0  0  0  0  0  0  0  0  0  0  0  0  0  0  0 | 0xff000021: 0 , 0 , 0 , 0 , 0 , 0 , 0 , 0 , 0 , 0 , 0 , 0 , 0 | 0xff000022:  198 ,   17 ,   43 ,  235 ,  247 ,  255 ,  238 ,  255 ,   11 ,    0 ,   53 ,    0 ,   76 ,   31 ,   71 ,    5 ,    9 ,   87 ,  126 ,  246 ,    9 ,  139 ,   88 ,  199 ,   47 ,  128 ,    0 ,    0 ,    0 ,  147 ,    9 ,    9 ,    0 ,    0 ,    0 ,    0 ,    0 ,    9 ,  114 ,  126 ,  246 ,   40 ,    8 ,    0 ,  214 ,  114 ,   43 ,   21 ,  189 ,  231 ,   49 ,  217 
E: 000000.302287 64 01 80 7e 81 80 00 00 e9 08 00 00 00 c6 11 2b eb f7 ff ee ff 0b 00 35 00 4c 1f 47 05 09 57 7e f6 09 8b 58 c7 2f 80 00 00 00 93 09 09 00 00 00 00 00 09 72 7e f6 28 08 00 d6 72 2b 15 bd e7 31 d9
# ReportID: 1 / X:  128 | Y:  126 | Z:  129 | Rz:  128 | Rx:    0 | Ry:    0 | 0xff000020:  234 | Hat switch:   8 | Button: 0  0  0  0  0  0  0  0  0  0  0  0  0  0  0 | 0xff000021: 0 , 0 , 0 , 0 , 0 , 0 , 0 , 0 , 0 , 0 , 0 , 0 , 0 | 0xff000022:  199 ,   17 ,   43 ,  235 ,  247 ,  255 ,  237 ,  255 ,   11 ,    0 ,   53 ,    0 ,   81 ,   31 ,   76 ,    5 ,  252 ,  133 ,  126 ,  246 ,    9 ,  139 ,   88 ,  199 ,   47 ,  128 ,    0 ,    0 ,    0 ,  147 ,    9 ,    9 ,    0 ,    0 ,    0 ,    0 ,    0 ,  233 ,  160 ,  126 ,  246 ,   40 ,    8 ,    0 ,  200 ,  219 ,  191 ,  118 ,   16 ,   90 ,  211 ,  248 
E: 000000.307111 64 01 80 7e 81 80 00 00 ea 08 00 00 00 c7 11 2b eb f7 ff ed ff 0b 00 35 00 51 1f 4c 05 fc 85 7e f6 09 8b 58 c7 2f 80 00 00 00 93 09 09 00 00 00 00 00 e9 a0 7e f6 28 08 00 c8 db bf 76 10 5a d3 f8
# ReportID: 1 / X:  128 | Y:  126 | Z:  129 | Rz:  128 | Rx:    0 | Ry:    0 | 0xff000020:  235 | Hat switch:   8 | Button: 0  0  0  0  0  0  0  0  0  0  0  0  0  0  0 | 0xff000021: 0 , 0 , 0 , 0 , 0 , 0 , 0 , 0 , 0 , 0 , 0 , 0 , 0 | 0xff000022:  200 ,   17 ,   43 ,  235 ,  247 ,  255 ,  238 ,  255 ,   10 ,    0 ,   53 ,    0 ,   89 ,   31 ,   63 ,    5 ,  239 ,  180 ,  126 ,  246 ,    9 ,  139 ,   88 ,  199 ,   47 ,  128 ,    0 ,    0 ,    0 ,  147 ,    9 ,    9 ,    0 ,    0 ,    0 ,    0 ,    0 ,  201 ,  207 ,  126 ,  246 ,   40 ,    8 ,    0 ,    9 ,  187 ,  157 ,  106 ,  128 ,  175 ,  233 ,  196 
E: 000000.310392 64 01 80 7e 81 80 00 00 eb 08 00 00 00 c8 11 2b eb f7 ff ee ff 0a 00 35 00 59 1f 3f 05 ef b4 7e f6 09 8b 58 c7 2f 80 00 00 00 93 09 09 00 00 00 00 00 c9 cf 7e f6 28 08 00 09 bb 9d 6a 80 af e9 c4
# ReportID: 1 / X:  128 | Y:  126 | Z:  129 | Rz:  128 | Rx:    0 | Ry:    0 | 0xff000020:  236 | Hat switch:   8 | Button: 0  0  0  0  0  0  0  0  0  0  0  0  0  0  0 | 0xff000021: 0 , 0 , 0 , 0 , 0 , 0 , 0 , 0 , 0 , 0 , 0 , 0 , 0 | 0xff000022:  201 ,   17 ,   43 ,  235 ,  246 ,  255 ,  239 ,  255 ,   10 ,    0 ,   57 ,    0 ,   73 ,   31 ,   63 ,    5 ,  226 ,  227 ,  126 ,  246 ,    9 ,  139 ,   88 ,  199 ,   47 ,  128 ,    0 ,    0 ,    0 ,  147 ,    9 ,    9 ,    0 ,    0 ,    0 ,    0 ,    0 ,  169 ,  254 ,  126 ,  246 ,   40 ,    8 ,    0 ,  156 ,  113 ,  191 ,   13 ,  218 ,  233 ,  108 ,  203 
E: 000000.314302 64 01 80 7e 81 80 00 00 ec 08 00 00 00 c9 11 2b eb f6 ff ef ff 0a 00 39 00 49 1f 3f 05 e2 e3 7e f6 09 8b 58 c7 2f 80 00 00 00 93 09 09 00 00 00 00 00 a9 fe 7e f6 28 08 00 9c 71 bf 0d da e9 6c cb
# ReportID: 1 / X:  128 | Y:  126 | Z:  129 | Rz:  128 | Rx:    0 | Ry:    0 | 0xff000020:  237 | Hat switch:   8 | Button: 0  0  0  0  0  0  0  0  0  0  0  0  0  0  0 | 0xff000021: 0 , 0 , 0 , 0 , 0 , 0 , 0 , 0 , 0 , 0 , 0 , 0 , 0 | 0xff000022:  202 ,   17 ,   43 ,  235 ,  248 ,  255 ,  238 ,  255 ,   12 ,    0 ,   60 ,    0 ,   76 ,   31 ,   59 ,    5 ,  214 ,   18 ,  127 ,  246 ,    9 ,  139 ,   88 ,  199 ,   47 ,  128 ,    0 ,    0 ,    0 ,  147 ,    9 ,    9 ,    0 ,    0 ,    0 ,    0 ,    0 ,  137 ,   45 ,  127 ,  246 ,   40 ,    8 ,    0 ,  141 ,   42 ,   48 ,    0 ,  114 ,  225 ,   32 ,  116 
E: 000000.319252 64 01 80 7e 81 80 00 00 ed 08 00 00 00 ca 11 2b eb f8 ff ee ff 0c 00 3c 00 4c 1f 3b 05 d6 12 7f f6 09 8b 58 c7 2f 80 00 00 00 93 09 09 00 00 00 00 00 89 2d 7f f6 28 08 00 8d 2a 30 00 72 e1 20 74
# ReportID: 1 / X:  128 | Y:  126 | Z:  129 | Rz:  128 | Rx:    0 | Ry:    0 | 0xff000020:  238 | Hat switch:   8 | Button: 0  0  0  0  0  0  0  0  0  0  0  0  0  0  0 | 0xff000021: 0 , 0 , 0 , 0 , 0 , 0 , 0 , 0 , 0 , 0 , 0 , 0 , 0 | 0xff000022:  203 ,   17 ,   43 ,  235 ,  248 ,  255 ,  239 ,  255 ,   10 ,    0 ,   55 ,    0 ,   74 ,   31 ,   55 ,    5 ,  201 ,   65 ,  127 ,  246 ,    9 ,  139 ,   88 ,  199 ,   47 ,  128 ,    0 ,    0 ,    0 ,  147 ,    9 ,    9 ,    0 ,    0 ,    0 ,    0 ,    0 ,  105 ,   92 ,  127 ,  246 ,   40 ,    8 ,    0 ,   96 ,  101 ,   98 ,  196 ,  107 ,   32 ,  144 ,   28 
E: 000000.322887 64 01 80 7e 81 80 00 00 ee 08 00 00 00 cb 11 2b eb f8 ff ef ff 0a 00 37 00 4a 1f 37 05 c9 41 7f f6 09 8b 58 c7 2f 80 00 00 00 93 09 09 00 00 00 00 00 69 5c 7f f6 28 08 00 60 65 62 c4 6b 20 90 1c
# ReportID: 1 / X:  128 | Y:  126 | Z:  129 | Rz:  128 | Rx:    0 | Ry:    0 | 0xff000020:  239 | Hat switch:   8 | Button: 0  0  0  0  0  0  0  0  0  0  0  0  0  0  0 | 0xff000021: 0 , 0 , 0 , 0 , 0 , 0 , 0 , 0 , 0 , 0 , 0 , 0 , 0 | 0xff000022:  204 ,   17 ,   43 ,  235 ,  248 ,  255 ,  239 ,  255 ,   10 ,    0 ,   53 ,    0 ,   87 ,   31 ,   52 ,    5 ,  188 ,  112 ,  127 ,  246 ,    9 ,  139 ,   88 ,  199 ,   47 ,  128 ,    0 ,    0 ,    0 ,  147 ,    9 ,    9 ,    0 ,    0 ,    0 ,    0 ,    0 ,   73 ,  139 ,  127 ,  246 ,   40 ,    8 ,    0 ,  178 ,  203 ,  251 ,   92 ,  119 ,   37 ,  113 ,  221 
E: 000000.326252 64 01 80 7e 81 80 00 00 ef 08 00 00 00 cc 11 2b eb f8 ff ef ff 0a 00 35 00 57 1f 34 05 bc 70 7f f6 09 8b 58 c7 2f 80 00 00 00 93 09 09 00 00 00 00 00 49 8b 7f f6 28 08 00 b2 cb fb 5c 77 25 71 dd
# ReportID: 1 / X:  128 | Y:  126 | Z:  129 | Rz:  128 | Rx:    0 | Ry:    0 | 0xff000020:  240 | Hat switch:   8 | Button: 0  0  0  0  0  0  0  0  0  0  0  0  0  0  0 | 0xff000021: 0 , 0 , 0 , 0 , 0 , 0 , 0 , 0 , 0 , 0 , 0 , 0 , 0 | 0xff000022:  205 ,   17 ,   43 ,  235 ,  248 ,  255 ,  237 ,  255 ,   11 ,    0 ,   59 ,    0 ,   90 ,   31 ,   54 ,    5 ,  175 ,  159 ,  127 ,  246 ,    9 ,  139 ,   88 ,  199 ,   47 ,  128 ,    0 ,    0 ,    0 ,  147 ,    9 ,    9 ,    0 ,    0 ,    0 ,    0 ,    0 ,   41 ,  186 ,  127 ,  246 ,   40 ,    8 ,    0 ,  251 ,  168 ,  152 ,  189 ,  177 ,  109 ,  142 ,  133 
E: 000000.330143 64 01 80 7e 81 80 00 00 f0 08 00 00 00 cd 11 2b eb f8 ff ed ff 0b 00 3b 00 5a 1f 36 05 af 9f 7f f6 09 8b 58 c7 2f 80 00 00 00 93 09 09 00 00 00 00 00 29 ba 7f f6 28 08 00 fb a8 98 bd b1 6d 8e 85
# ReportID: 1 / X:  128 | Y:  126 | Z:  129 | Rz:  128 | Rx:    0 | Ry:    0 | 0xff000020:  241 | Hat switch:   8 | Button: 0  0  0  0  0  0  0  0  0  0  0  0  0  0  0 | 0xff000021: 0 , 0 , 0 , 0 , 0 , 0 , 0 , 0 , 0 , 0 , 0 , 0 , 0 | 0xff000022:  206 ,   17 ,   43 ,  235 ,  247 ,  255 ,  238 ,  255 ,   10 ,    0 ,   53 ,    0 ,   84 ,   31 ,   45 ,    5 ,  163 ,  206 ,  127 ,  246 ,    9 ,  139 ,   88 ,  199 ,   47 ,  128 ,    0 ,    0 ,    0 ,  147 ,    9 ,    9 ,    0 ,    0 ,    0 ,    0 ,    0 ,    9 ,  233 ,  127 ,  246 ,   40 ,    8 ,    0 ,  167 ,   27 ,  190 ,    9 ,   10 ,  220 ,  111 ,  195 
E: 000000.336351 64 01 80 7e 81 80 00 00 f1 08 00 00 00 ce 11 2b eb f7 ff ee ff 0a 00 35 00 54 1f 2d 05 a3 ce 7f f6 09 8b 58 c7 2f 80 00 00 00 93 09 09 00 00 00 00 00 09 e9 7f f6 28 08 00 a7 1b be 09 0a dc 6f c3
# ReportID: 1 / X:  128 | Y:  126 | Z:  129 | Rz:  128 | Rx:    0 | Ry:    0 | 0xff000020:  242 | Hat switch:   8 | Button: 0  0  0  0  0  0  0  0  0  0  0  0  0  0  0 | 0xff000021: 0 , 0 , 0 , 0 , 0 , 0 , 0 , 0 , 0 , 0 , 0 , 0 , 0 | 0xff000022:  207 ,   17 ,   43 ,  235 ,  248 ,  255 ,  238 ,  255 ,   10 ,    0 ,   49 ,    0 ,   85 ,   31 ,   47 ,    5 ,  150 ,  253 ,  127 ,  246 ,    9 ,  139 ,   88 ,  199 ,   47 ,  128 ,    0 ,    0 ,    0 ,  147 ,    9 ,    9 ,    0 ,    0 ,    0 ,    0 ,    0 ,  233 ,   23 ,  128 ,  246 ,   40 ,    8 ,    0 ,   97 ,   67 ,  161 ,   28 ,   16 ,  114 ,   44 ,  176 
E: 000000.338480 64 01 80 7e 81 80 00 00 f2 08 00 00 00 cf 11 2b eb f8 ff ee ff 0a 00 31 00 55 1f 2f 05 96 fd 7f f6 09 8b 58 c7 2f 80 00 00 00 93 09 09 00 00 00 00 00 e9 17 80 f6 28 08 00 61 43 a1 1c 10 72 2c b0
# ReportID: 1 / X:  128 | Y:  126 | Z:  129 | Rz:  128 | Rx:    0 | Ry:    0 | 0xff000020:  243 | Hat switch:   8 | Button: 0  0  0  0  0  0  0  0  0  0  0  0  0  0  0 | 0xff000021: 0 , 0 , 0 , 0 , 0 , 0 , 0 , 0 , 0 , 0 , 0 , 0 , 0 | 0xff000022:  208 ,   17 ,   43 ,  235 ,  247 ,  255 ,  237 ,  255 ,   10 ,    0 ,   58 ,    0 ,   93 ,   31 ,   45 ,    5 ,  137 ,   44 ,  128 ,  246 ,    9 ,  139 ,   88 ,  199 ,   47 ,  128 ,    0 ,    0 ,    0 ,  147 ,    9 ,    9 ,    0 ,    0 ,    0 ,    0 ,    0 ,  201 ,   70 ,  128 ,  246 ,   40 ,    8 ,    0 ,   32 ,   75 ,  202 ,   47 ,   93 ,   15 ,  143 ,  251 
E: 000000.343689 64 01 80 7e 81 80 00 00 f3 08 00 00 00 d0 11 2b eb f7 ff ed ff 0a 00 3a 00 5d 1f 2d 05 89 2c 80 f6 09 8b 58 c7 2f 80 00 00 00 93 09 09 00 00 00 00 00 c9 46 80 f6 28 08 00 20 4b ca 2f 5d 0f 8f fb
# ReportID: 1 / X:  128 | Y:  126 | Z:  129 | Rz:  128 | Rx:    0 | Ry:    0 | 0xff000020:  244 | Hat switch:   8 | Button: 0  0  0  0  0  0  0  0  0  0  0  0  0  0  0 | 0xff000021: 0 , 0 , 0 , 0 , 0 , 0 , 0 , 0 , 0 , 0 , 0 , 0 , 0 | 0xff000022:  209 ,   17 ,   43 ,  235 ,  249 ,  255 ,  238 ,  255 ,   10 ,    0 ,   62 ,    0 ,   86 ,   31 ,   52 ,    5 ,  124 ,   91 ,  128 ,  246 ,    9 ,  139 ,   88 ,  199 ,   47 ,  128 ,    0 ,    0 ,    0 ,  147 ,    9 ,    9 ,    0 ,    0 ,    0 ,    0 ,    0 ,  169 ,  117 ,  128 ,  246 ,   40 ,    8 ,    0 ,  189 ,  244 ,  188 ,  194 ,  196 ,  144 ,  226 ,   64 
E: 000000.346721 64 01 80 7e 81 80 00 00 f4 08 00 00 00 d1 11 2b eb f9 ff ee ff 0a 00 3e 00 56 1f 34 05 7c 5b 80 f6 09 8b 58 c7 2f 80 00 00 00 93 09 09 00 00 00 00 00 a9 75 80 f6 28 08 00 bd f4 bc c2 c4 90 e2 40
# ReportID: 1 / X:  128 | Y:  126 | Z:  129 | Rz:  128 | Rx:    0 | Ry:    0 | 0xff000020:  245 | Hat switch:   8 | Button: 0  0  0  0  0  0  0  0  0  0  0  0  0  0  0 | 0xff000021: 0 , 0 , 0 , 0 , 0 , 0 , 0 , 0 , 0 , 0 , 0 , 0 , 0 | 0xff000022:  210 ,   17 ,   43 ,  235 ,  249 ,  255 ,  239 ,  255 ,    9 ,    0 ,   56 ,    0 ,   92 ,   31 ,   49 ,    5 ,  112 ,  138 ,  128 ,  246 ,    9 ,  139 ,   88 ,  199 ,   47 ,  128 ,    0 ,    0 ,    0 ,  147 ,    9 ,    9 ,    0 ,    0 ,    0 ,    0 ,    0 ,  137 ,  164 ,  128 ,  246 ,   40 ,    8 ,    0 ,   78 ,  231 ,   20 ,  194 ,  234 ,  145 ,   67 ,  144 
E: 000000.351942 64 01 80 7e 81 80 00 00 f5 08 00 00 00 d2 11 2b eb f9 ff ef ff 09 00 38 00 5c 1f 31 05 70 8a 80 f6 09 8b 58 c7 2f 80 00 00 00 93 09 09 00 00 00 00 00 89 a4 80 f6 28 08 00 4e e7 14 c2 ea 91 43 90
# ReportID: 1 / X:  128 | Y:  126 | Z:  129 | Rz:  128 | Rx:    0 | Ry:    0 | 0xff000020:  246 | Hat switch:   8 | Button: 0  0  0  0  0  0  0  0  0  0  0  0  0  0  0 | 0xff000021: 0 , 0 , 0 , 0 , 0 , 0 , 0 , 0 , 0 , 0 , 0 , 0 , 0 | 0xff000022:  211 ,   17 ,   43 ,  235 ,  248 ,  255 ,  238 ,  255 ,   12 ,    0 ,   50 ,    0 ,   87 ,   31 ,   42 ,    5 ,   99 ,  185 ,  128 ,  246 ,    9 ,  139 ,   88 ,  199 ,   47 ,  128 ,    0 ,    0 ,    0 ,  147 ,    9 ,    9 ,    0 ,    0 ,    0 ,    0 ,    0 ,  105 ,  211 ,  128 ,  246 ,   40 ,    8 ,    0 ,   34 ,   67 ,  125 ,   78 ,   84 ,  234 ,   64 ,  147 
E: 000000.354234 64 01 80 7e 81 80 00 00 f6 08 00 00 00 d3 11 2b eb f8 ff ee ff 0c 00 32 00 57 1f 2a 05 63 b9 80 f6 09 8b 58 c7 2f 80 00 00 00 93 09 09 00 00 00 00 00 69 d3 80 f6 28 08 00 22 43 7d 4e 54 ea 40 93
# ReportID: 1 / X:  128 | Y:  126 | Z:  129 | Rz:  128 | Rx:    0 | Ry:    0 | 0xff000020:  247 | Hat switch:   8 | Button: 0  0  0  0  0  0  0  0  0  0  0  0  0  0  0 | 0xff000021: 0 , 0 , 0 , 0 , 0 , 0 , 0 , 0 , 0 , 0 , 0 , 0 , 0 | 0xff000022:  212 ,   17 ,   43 ,  235 ,  248 ,  255 ,  238 ,  255 ,   12 ,    0 ,   55 ,    0 ,   83 ,   31 ,   50 ,    5 ,   86 ,  232 ,  128 ,  246 ,    9 ,  139 ,   88 ,  199 ,   47 ,  128 ,    0 ,    0 ,    0 ,  147 ,    9 ,    9 ,    0 ,    0 ,    0 ,    0 ,    0 ,   73 ,    2 ,  129 ,  246 ,   40 ,    8 ,    0 ,  225 ,  150 ,    3 ,  149 ,  122 ,   71 ,  162 ,   81 
E: 000000.358136 64 01 80 7e 81 80 00 00 f7 08 00 00 00 d4 11 2b eb f8 ff ee ff 0c 00 37 00 53 1f 32 05 56 e8 80 f6 09 8b 58 c7 2f 80 00 00 00 93 09 09 00 00 00 00 00 49 02 81 f6 28 08 00 e1 96 03 95 7a 47 a2 51
# ReportID: 1 / X:  128 | Y:  126 | Z:  129 | Rz:  128 | Rx:    0 | Ry:    0 | 0xff000020:  248 | Hat switch:   8 | Button: 0  0  0  0  0  0  0  0  0  0  0  0  0  0  0 | 0xff000021: 0 , 0 , 0 , 0 , 0 , 0 , 0 , 0 , 0 , 0 , 0 , 0 , 0 | 0xff000022:  213 ,   17 ,   43 ,  235 ,  248 ,  255 ,  238 ,  255 ,   10 ,    0 ,   53 ,    0 ,   85 ,   31 ,   55 ,    5 ,   73 ,   23 ,  129 ,  246 ,    9 ,  139 ,   88 ,  199 ,   47 ,  128 ,    0 ,    0 ,    0 ,  147 ,    9 ,    9 ,    0 ,    0 ,    0 ,    0 ,    0 ,   41 ,   49 ,  129 ,  246 ,   40 ,    8 ,    0 ,   91 ,   61 ,  221 ,   25 ,  135 ,  184 ,  230 ,  255 
E: 000000.363920 64 01 80 7e 81 80 00 00 f8 08 00 00 00 d5 11 2b eb f8 ff ee ff 0a 00 35 00 55 1f 37 05 49 17 81 f6 09 8b 58 c7 2f 80 00 00 00 93 09 09 00 00 00 00 00 29 31 81 f6 28 08 00 5b 3d dd 19 87 b8 e6 ff
# ReportID: 1 / X:  128 | Y:  126 | Z:  129 | Rz:  128 | Rx:    0 | Ry:    0 | 0xff000020:  249 | Hat switch:   8 | Button: 0  0  0  0  0  0  0  0  0  0  0  0  0  0  0 | 0xff000021: 0 , 0 , 0 , 0 , 0 , 0 , 0 , 0 , 0 , 0 , 0 , 0 , 0 | 0xff000022:  214 ,   17 ,   43 ,  235 ,  247 ,  255 ,  239 ,  255 ,   10 ,    0 ,   61 ,    0 ,   83 ,   31 ,   53 ,    5 ,   60 ,   70 ,  129 ,  246 ,    9 ,  139 ,   88 ,  199 ,   47 ,  128 ,    0 ,    0 ,    0 ,  147 ,    9 ,    9 ,    0 ,    0 ,    0 ,    0 ,    0 ,    9 ,   96 ,  129 ,  246 ,   40 ,    8 ,    0 ,  243 ,  171 ,  214 ,   20 ,  147 ,  200 ,  151 ,   89 
E: 000000.367490 64 01 80 7e 81 80 00 00 f9 08 00 00 00 d6 11 2b eb f7 ff ef ff 0a 00 3d 00 53 1f 35 05 3c 46 81 f6 09 8b 58 c7 2f 80 00 00 00 93 09 09 00 00 00 00 00 09 60 81 f6 28 08 00 f3 ab d6 14 93 c8 97 59
# ReportID: 1 / X:  128 | Y:  126 | Z:  129 | Rz:  128 | Rx:    0 | Ry:    0 | 0xff000020:  250 | Hat switch:   8 | Button: 0  0  0  0  0  0  0  0  0  0  0  0  0  0  0 | 0xff000021: 0 , 0 , 0 , 0 , 0 , 0 , 0 , 0 , 0 , 0 , 0 , 0 , 0 | 0xff000022:  215 ,   17 ,   43 ,  235 ,  247 ,  255 ,  238 ,  255 ,   11 ,    0 ,   56 ,    0 ,   76 ,   31 ,   56 ,    5 ,   48 ,  117 ,  129 ,  246 ,    9 ,  139 ,   88 ,  199 ,   47 ,  128 ,    0 ,    0 ,    0 ,  147 ,    9 ,    9 ,    0 ,    0 ,    0 ,    0 ,    0 ,  233 ,  142 ,  129 ,  246 ,   40 ,    8 ,    0 ,    5 ,   55 ,   21 ,   44 ,   85 ,  112 ,   72 ,  171 
E: 000000.370450 64 01 80 7e 81 80 00 00 fa 08 00 00 00 d7 11 2b eb f7 ff ee ff 0b 00 38 00 4c 1f 38 05 30 75 81 f6 09 8b 58 c7 2f 80 00 00 00 93 09 09 00 00 00 00 00 e9 8e 81 f6 28 08 00 05 37 15 2c 55 70 48 ab
# ReportID: 1 / X:  128 | Y:  126 | Z:  129 | Rz:  128 | Rx:    0 | Ry:    0 | 0xff000020:  251 | Hat switch:   8 | Button: 0  0  0  0  0  0  0  0  0  0  0  0  0  0  0 | 0xff000021: 0 , 0 , 0 , 0 , 0 , 0 , 0 , 0 , 0 , 0 , 0 , 0 , 0 | 0xff000022:  216 ,   17 ,   43 ,  235 ,  248 ,  255 ,  238 ,  255 ,   10 ,    0 ,   49 ,    0 ,   89 ,   31 ,   53 ,    5 ,   35 ,  164 ,  129 ,  246 ,    9 ,  139 ,   88 ,  199 ,   47 ,  128 ,    0 ,    0 ,    0 ,  147 ,    9 ,    9 ,    0 ,    0 ,    0 ,    0 ,    0 ,  201 ,  189 ,  129 ,  246 ,   40 ,    8 ,    0 ,  197 ,  170 ,   43 ,   91 ,  129 ,  129 ,  126 ,   24 
E: 000000.375654 64 01 80 7e 81 80 00 00 fb 08 00 00 00 d8 11 2b eb f8 ff ee ff 0a 00 31 00 59 1f 35 05 23 a4 81 f6 09 8b 58 c7 2f 80 00 00 00 93 09 09 00 00 00 00 00 c9 bd 81 f6 28 08 00 c5 aa 2b 5b 81 81 7e 18
# ReportID: 1 / X:  128 | Y:  126 | Z:  129 | Rz:  128 | Rx:    0 | Ry:    0 | 0xff000020:  252 | Hat switch:   8 | Button: 0  0  0  0  0  0  0  0  0  0  0  0  0  0  0 | 0xff000021: 0 , 0 , 0 , 0 , 0 , 0 , 0 , 0 , 0 , 0 , 0 , 0 , 0 | 0xff000022:  217 ,   17 ,   43 ,  235 ,  248 ,  255 ,  239 ,  255 ,   10 ,    0 ,   52 ,    0 ,   80 ,   31 ,   58 ,    5 ,   22 ,  211 ,  129 ,  246 ,    9 ,  139 ,   88 ,  199 ,   47 ,  128 ,    0 ,    0 ,    0 ,  147 ,    9 ,    9 ,    0 ,    0 ,    0 ,    0 ,    0 ,  169 ,  236 ,  129 ,  246 ,   40 ,    8 ,    0 ,   22 ,  240 ,    9 ,  133 ,  124 ,   42 ,   27 ,   32 
E: 000000.378681 64 01 80 7e 81 80 00 00 fc 08 00 00 00 d9 11 2b eb f8 ff ef ff 0a 00 34 00 50 1f 3a 05 16 d3 81 f6 09 8b 58 c7 2f 80 00 00 00 93 09 09 00 00 00 00 00 a9 ec 81 f6 28 08 00 16 f0 09 85 7c 2a 1b 20
# ReportID: 1 / X:  128 | Y:  126 | Z:  129 | Rz:  128 | Rx:    0 | Ry:    0 | 0xff000020:  253 | Hat switch:   8 | Button: 0  0  0  0  0  0  0  0  0  0  0  0  0  0  0 | 0xff000021: 0 , 0 , 0 , 0 , 0 , 0 , 0 , 0 , 0 , 0 , 0 , 0 , 0 | 0xff000022:  218 ,   17 ,   43 ,  235 ,  247 ,  255 ,  238 ,  255 ,   11 ,    0 ,   57 ,    0 ,   80 ,   31 ,   60 ,    5 ,    9 ,    2 ,  130 ,  246 ,    9 ,  139 ,   88 ,  199 ,   47 ,  128 ,    0 ,    0 ,    0 ,  147 ,    9 ,    9 ,    0 ,    0 ,    0 ,    0 ,    0 ,  140 ,   27 ,  130 ,  246 ,   40 ,    8 ,    0 ,   52 ,   85 ,   74 ,  190 ,  138 ,    8 ,   38 ,   18 
E: 000000.382419 64 01 80 7e 81 80 00 00 fd 08 00 00 00 da 11 2b eb f7 ff ee ff 0b 00 39 00 50 1f 3c 05 09 02 82 f6 09 8b 58 c7 2f 80 00 00 00 93 09 09 00 00 00 00 00 8c 1b 82 f6 28 08 00 34 55 4a be 8a 08 26 12
# ReportID: 1 / X:  128 | Y:  126 | Z:  129 | Rz:  128 | Rx:    0 | Ry:    0 | 0xff000020:  254 | Hat switch:   8 | Button: 0  0  0  0  0  0  0  0  0  0  0  0  0  0  0 | 0xff000021: 0 , 0 , 0 , 0 , 0 , 0 , 0 , 0 , 0 , 0 , 0 , 0 , 0 | 0xff000022:  219 ,   17 ,   43 ,  235 ,  246 ,  255 ,  239 ,  255 ,   10 ,    0 ,   54 ,    0 ,   82 ,   31 ,   61 ,    5 ,  253 ,   48 ,  130 ,  246 ,    9 ,  139 ,   88 ,  199 ,   47 ,  128 ,    0 ,    0 ,    0 ,  147 ,    9 ,    9 ,    0 ,    0 ,    0 ,    0 ,    0 ,  105 ,   74 ,  130 ,  246 ,   40 ,    8 ,    0 ,   47 ,   16 ,  143 ,  159 ,   14 ,  175 ,  131 ,  166 
E: 000000.386612 64 01 80 7e 81 80 00 00 fe 08 00 00 00 db 11 2b eb f6 ff ef ff 0a 00 36 00 52 1f 3d 05 fd 30 82 f6 09 8b 58 c7 2f 80 00 00 00 93 09 09 00 00 00 00 00 69 4a 82 f6 28 08 00 2f 10 8f 9f 0e af 83 a6
# ReportID: 1 / X:  128 | Y:  126 | Z:  129 | Rz:  128 | Rx:    0 | Ry:    0 | 0xff000020:  255 | Hat switch:   8 | Button: 0  0  0  0  0  0  0  0  0  0  0  0  0  0  0 | 0xff000021: 0 , 0 , 0 , 0 , 0 , 0 , 0 , 0 , 0 , 0 , 0 , 0 , 0 | 0xff000022:  220 ,   17 ,   43 ,  235 ,  248 ,  255 ,  237 ,  255 ,   11 ,    0 ,   54 ,    0 ,   83 ,   31 ,   61 ,    5 ,  240 ,   95 ,  130 ,  246 ,    9 ,  139 ,   88 ,  199 ,   47 ,  128 ,    0 ,    0 ,    0 ,  147 ,    9 ,    9 ,    0 ,    0 ,    0 ,    0 ,    0 ,   73 ,  121 ,  130 ,  246 ,   40 ,    8 ,    0 ,  121 ,  112 ,   59 ,   58 ,  161 ,  108 ,   89 ,  105 
E: 000000.392472 64 01 80 7e 81 80 00 00 ff 08 00 00 00 dc 11 2b eb f8 ff ed ff 0b 00 36 00 53 1f 3d 05 f0 5f 82 f6 09 8b 58 c7 2f 80 00 00 00 93 09 09 00 00 00 00 00 49 79 82 f6 28 08 00 79 70 3b 3a a1 6c 59 69
# ReportID: 1 / X:  128 | Y:  126 | Z:  129 | Rz:  128 | Rx:    0 | Ry:    0 | 0xff000020:    0 | Hat switch:   8 | Button: 0  0  0  0  0  0  0  0  0  0  0  0  0  0  0 | 0xff000021: 0 , 0 , 0 , 0 , 0 , 0 , 0 , 0 , 0 , 0 , 0 , 0 , 0 | 0xff000022:  221 ,   17 ,   43 ,  235 ,  248 ,  255 ,  238 ,  255 ,   11 ,    0 ,   52 ,    0 ,   82 ,   31 ,   63 ,    5 ,  227 ,  142 ,  130 ,  246 ,    9 ,  139 ,   88 ,  199 ,   47 ,  128 ,    0 ,    0 ,    0 ,  147 ,    9 ,    9 ,    0 ,    0 ,    0 ,    0 ,    0 ,   60 ,  168 ,  130 ,  246 ,   40 ,    8 ,    0 ,  158 ,   26 ,  222 ,   89 ,  203 ,  180 ,  226 ,  195 
E: 000000.394095 64 01 80 7e 81 80 00 00 00 08 00 00 00 dd 11 2b eb f8 ff ee ff 0b 00 34 00 52 1f 3f 05 e3 8e 82 f6 09 8b 58 c7 2f 80 00 00 00 93 09 09 00 00 00 00 00 3c a8 82 f6 28 08 00 9e 1a de 59 cb b4 e2 c3
# ReportID: 1 / X:  128 | Y:  126 | Z:  129 | Rz:  128 | Rx:    0 | Ry:    0 | 0xff000020:    1 | Hat switch:   8 | Button: 0  0  0  0  0  0  0  0  0  0  0  0  0  0  0 | 0xff000021: 0 , 0 , 0 , 0 , 0 , 0 , 0 , 0 , 0 , 0 , 0 , 0 , 0 | 0xff000022:  222 ,   17 ,   43 ,  235 ,  247 ,  255 ,  237 ,  255 ,   11 ,    0 ,   45 ,    0 ,   86 ,   31 ,   55 ,    5 ,  214 ,  189 ,  130 ,  246 ,    9 ,  139 ,   88 ,  199 ,   47 ,  128 ,    0 ,    0 ,    0 ,  147 ,    9 ,    9 ,    0 ,    0 ,    0 ,    0 ,    0 ,   43 ,  215 ,  130 ,  246 ,   40 ,    8 ,    0 ,   84 ,   74 ,  175 ,  255 ,   42 ,  163 ,  119 ,  107 
E: 000000.399606 64 01 80 7e 81 80 00 00 01 08 00 00 00 de 11 2b eb f7 ff ed ff 0b 00 2d 00 56 1f 37 05 d6 bd 82 f6 09 8b 58 c7 2f 80 00 00 00 93 09 09 00 00 00 00 00 2b d7 82 f6 28 08 00 54 4a af ff 2a a3 77 6b
# ReportID: 1 / X:  128 | Y:  126 | Z:  129 | Rz:  128 | Rx:    0 | Ry:    0 | 0xff000020:    2 | Hat switch:   8 | Button: 0  0  0  0  0  0  0  0  0  0  0  0  0  0  0 | 0xff000021: 0 , 0 , 0 , 0 , 0 , 0 , 0 , 0 , 0 , 0 , 0 , 0 , 0 | 0xff000022:  223 ,   17 ,   43 ,  235 ,  247 ,  255 ,  239 ,  255 ,   10 ,    0 ,   50 ,    0 ,   77 ,   31 ,   60 ,    5 ,  202 ,  236 ,  130 ,  246 ,    9 ,  139 ,   88 ,  199 ,   47 ,  128 ,    0 ,    0 ,    0 ,  147 ,    9 ,    9 ,    0 ,    0 ,    0 ,    0 ,    0 ,  240 ,    5 ,  131 ,  246 ,   40 ,    8 ,    0 ,  123 ,  156 ,   83 ,   74 ,  185 ,   88 ,  237 ,  148 
E: 000000.403021 64 01 80 7e 81 80 00 00 02 08 00 00 00 df 11 2b eb f7 ff ef ff 0a 00 32 00 4d 1f 3c 05 ca ec 82 f6 09 8b 58 c7 2f 80 00 00 00 93 09 09 00 00 00 00 00 f0 05 83 f6 28 08 00 7b 9c 53 4a b9 58 ed 94
# ReportID: 1 / X:  128 | Y:  126 | Z:  129 | Rz:  128 | Rx:    0 | Ry:    0 | 0xff000020:    3 | Hat switch:   8 | Button: 0  0  0  0  0  0  0  0  0  0  0  0  0  0  0 | 0xff000021: 0 , 0 , 0 , 0 , 0 , 0 , 0 , 0 , 0 , 0 , 0 , 0 , 0 | 0xff000022:  224 ,   17 ,   43 ,  235 ,  249 ,  255 ,  238 ,  255 ,   11 ,    0 ,   57 ,    0 ,   78 ,   31 ,   59 ,    5 ,  189 ,   27 ,  131 ,  246 ,    9 ,  139 ,   88 ,  199 ,   47 ,  128 ,    0 ,    0 ,    0 ,  147 ,    9 ,    9 ,    0 ,    0 ,    0 ,    0 ,    0 ,  210 ,   52 ,  131 ,  246 ,   40 ,    8 ,    0 ,  134 ,  236 ,  188 ,   42 ,   59 ,   85 ,  229 ,  209 
E: 000000.406764 64 01 80 7e 81 80 00 00 03 08 00 00 00 e0 11 2b eb f9 ff ee ff 0b 00 39 00 4e 1f 3b 05 bd 1b 83 f6 09 8b 58 c7 2f 80 00 00 00 93 09 09 00 00 00 00 00 d2 34 83 f6 28 08 00 86 ec bc 2a 3b 55 e5 d1
# ReportID: 1 / X:  128 | Y:  126 | Z:  129 | Rz:  128 | Rx:    0 | Ry:    0 | 0xff000020:    4 | Hat switch:   8 | Button: 0  0  0  0  0  0  0  0  0  0  0  0  0  0  0 | 0xff000021: 0 , 0 , 0 , 0 , 0 , 0 , 0 , 0 , 0 , 0 , 0 , 0 , 0 | 0xff000022:  225 ,   17 ,   43 ,  235 ,  249 ,  255 ,  237 ,  255 ,   10 ,    0 ,   53 ,    0 ,   78 ,   31 ,   46 ,    5 ,  176 ,   74 ,  131 ,  246 ,    9 ,  139 ,   88 ,  199 ,   47 ,  128 ,    0 ,    0 ,    0 ,  147 ,    9 ,    9 ,    0 ,    0 ,    0 ,    0 ,    0 ,  169 ,   99 ,  131 ,  246 ,   40 ,    8 ,    0 ,  192 ,   28 ,   57 ,   87 ,  132 ,  143 ,   83 ,  236 
E: 000000.410230 64 01 80 7e 81 80 00 00 04 08 00 00 00 e1 11 2b eb f9 ff ed ff 0a 00 35 00 4e 1f 2e 05 b0 4a 83 f6 09 8b 58 c7 2f 80 00 00 00 93 09 09 00 00 00 00 00 a9 63 83 f6 28 08 00 c0 1c 39 57 84 8f 53 ec
# ReportID: 1 / X:  128 | Y:  126 | Z:  129 | Rz:  128 | Rx:    0 | Ry:    0 | 0xff000020:    5 | Hat switch:   8 | Button: 0  0  0  0  0  0  0  0  0  0  0  0  0  0  0 | 0xff000021: 0 , 0 , 0 , 0 , 0 , 0 , 0 , 0 , 0 , 0 , 0 , 0 , 0 | 0xff000022:  226 ,   17 ,   43 ,  235 ,  248 ,  255 ,  239 ,  255 ,   10 ,    0 ,   51 ,    0 ,   87 ,   31 ,   48 ,    5 ,  163 ,  121 ,  131 ,  246 ,    9 ,  139 ,   88 ,  199 ,   47 ,  128 ,    0 ,    0 ,    0 ,  147 ,    9 ,    9 ,    0 ,    0 ,    0 ,    0 ,    0 ,  137 ,  146 ,  131 ,  246 ,   40 ,    8 ,    0 ,  179 ,   38 ,   90 ,   48 ,  142 ,  238 ,  110 ,    2 
E: 000000.414204 64 01 80 7e 81 80 00 00 05 08 00 00 00 e2 11 2b eb f8 ff ef ff 0a 00 33 00 57 1f 30 05 a3 79 83 f6 09 8b 58 c7 2f 80 00 00 00 93 09 09 00 00 00 00 00 89 92 83 f6 28 08 00 b3 26 5a 30 8e ee 6e 02
# ReportID: 1 / X:  128 | Y:  126 | Z:  129 | Rz:  128 | Rx:    0 | Ry:    0 | 0xff000020:    6 | Hat switch:   8 | Button: 0  0  0  0  0  0  0  0  0  0  0  0  0  0  0 | 0xff000021: 0 , 0 , 0 , 0 , 0 , 0 , 0 , 0 , 0 , 0 , 0 , 0 , 0 | 0xff000022:  227 ,   17 ,   43 ,  235 ,  248 ,  255 ,  238 ,  255 ,   10 ,    0 ,   57 ,    0 ,   87 ,   31 ,   50 ,    5 ,  150 ,  168 ,  131 ,  246 ,    9 ,  139 ,   88 ,  199 ,   47 ,  128 ,    0 ,    0 ,    0 ,  147 ,    9 ,    9 ,    0 ,    0 ,    0 ,    0 ,    0 ,  105 ,  193 ,  131 ,  246 ,   40 ,    8 ,    0 ,   77 ,  196 ,   22 ,  174 ,  134 ,  115 ,  172 ,  255 
E: 000000.418435 64 01 80 7e 81 80 00 00 06 08 00 00 00 e3 11 2b eb f8 ff ee ff 0a 00 39 00 57 1f 32 05 96 a8 83 f6 09 8b 58 c7 2f 80 00 00 00 93 09 09 00 00 00 00 00 69 c1 83 f6 28 08 00 4d c4 16 ae 86 73 ac ff
# ReportID: 1 / X:  128 | Y:  126 | Z:  129 | Rz:  128 | Rx:    0 | Ry:    0 | 0xff000020:    7 | Hat switch:   8 | Button: 0  0  0  0  0  0  0  0  0  0  0  0  0  0  0 | 0xff000021: 0 , 0 , 0 , 0 , 0 , 0 , 0 , 0 , 0 , 0 , 0 , 0 , 0 | 0xff000022:  228 ,   17 ,   43 ,  235 ,  248 ,  255 ,  237 ,  255 ,    9 ,    0 ,   54 ,    0 ,   83 ,   31 ,   56 ,    5 ,  138 ,  215 ,  131 ,  246 ,    9 ,  139 ,   88 ,  199 ,   47 ,  128 ,    0 ,    0 ,    0 ,  147 ,    9 ,    9 ,    0 ,    0 ,    0 ,    0 ,    0 ,   73 ,  240 ,  131 ,  246 ,   40 ,    8 ,    0 ,  228 ,  162 ,  148 ,  242 ,   85 ,   35 ,  175 ,  254 
E: 000000.424012 64 01 80 7e 81 80 00 00 07 08 00 00 00 e4 11 2b eb f8 ff ed ff 09 00 36 00 53 1f 38 05 8a d7 83 f6 09 8b 58 c7 2f 80 00 00 00 93 09 09 00 00 00 00 00 49 f0 83 f6 28 08 00 e4 a2 94 f2 55 23 af fe
# ReportID: 1 / X:  128 | Y:  126 | Z:  129 | Rz:  128 | Rx:    0 | Ry:    0 | 0xff000020:    8 | Hat switch:   8 | Button: 0  0  0  0  0  0  0  0  0  0  0  0  0  0  0 | 0xff000021: 0 , 0 , 0 , 0 , 0 , 0 , 0 , 0 , 0 , 0 , 0 , 0 , 0 | 0xff000022:  229 ,   17 ,   43 ,  235 ,  247 ,  255 ,  238 ,  255 ,   10 ,    0 ,   55 ,    0 ,   87 ,   31 ,   56 ,    5 ,  125 ,    6 ,  132 ,  246 ,    9 ,  139 ,   88 ,  199 ,   47 ,  128 ,    0 ,    0 ,    0 ,  147 ,    9 ,    9 ,    0 ,    0 ,    0 ,    0 ,    0 ,   41 ,   31 ,  132 ,  246 ,   40 ,    8 ,    0 ,  232 ,  181 ,   39 ,  249 ,   19 ,   66 ,   34 ,   74 
E: 000000.427847 64 01 80 7e 81 80 00 00 08 08 00 00 00 e5 11 2b eb f7 ff ee ff 0a 00 37 00 57 1f 38 05 7d 06 84 f6 09 8b 58 c7 2f 80 00 00 00 93 09 09 00 00 00 00 00 29 1f 84 f6 28 08 00 e8 b5 27 f9 13 42 22 4a
