# Sony Interactive Entertainment DualSense Wireless Controller
# 0x05, 0x01,                    // Usage Page (Generic Desktop)        0
# 0x09, 0x05,                    // Usage (Game Pad)                    2
# 0xa1, 0x01,                    // Collection (Application)            4
# 0x85, 0x01,                    //  Report ID (1)                      6
# 0x09, 0x30,                    //  Usage (X)                          8
# 0x09, 0x31,                    //  Usage (Y)                          10
# 0x09, 0x32,                    //  Usage (Z)                          12
# 0x09, 0x35,                    //  Usage (Rz)                         14
# 0x09, 0x33,                    //  Usage (Rx)                         16
# 0x09, 0x34,                    //  Usage (Ry)                         18
# 0x15, 0x00,                    //  Logical Minimum (0)                20
# 0x26, 0xff, 0x00,              //  Logical Maximum (255)              22
# 0x75, 0x08,                    //  Report Size (8)                    25
# 0x95, 0x06,                    //  Report Count (6)                   27
# 0x81, 0x02,                    //  Input (Data,Var,Abs)               29
# 0x06, 0x00, 0xff,              //  Usage Page (Vendor Defined Page 1) 31
# 0x09, 0x20,                    //  Usage (Vendor Usage 0x20)          34
# 0x95, 0x01,                    //  Report Count (1)                   36
# 0x81, 0x02,                    //  Input (Data,Var,Abs)               38
# 0x05, 0x01,                    //  Usage Page (Generic Desktop)       40
# 0x09, 0x39,                    //  Usage (Hat switch)                 42
# 0x15, 0x00,                    //  Logical Minimum (0)                44
# 0x25, 0x07,                    //  Logical Maximum (7)                46
# 0x35, 0x00,                    //  Physical Minimum (0)               48
# 0x46, 0x3b, 0x01,              //  Physical Maximum (315)             50
# 0x65, 0x14,                    //  Unit (EnglishRotation: deg)        53
# 0x75, 0x04,                    //  Report Size (4)                    55
# 0x95, 0x01,                    //  Report Count (1)                   57
# 0x81, 0x42,                    //  Input (Data,Var,Abs,Null)          59
# 0x65, 0x00,                    //  Unit (None)                        61
# 0x05, 0x09,                    //  Usage Page (Button)                63
# 0x19, 0x01,                    //  Usage Minimum (1)                  65
# 0x29, 0x0f,                    //  Usage Maximum (15)                 67
# 0x15, 0x00,                    //  Logical Minimum (0)                69
# 0x25, 0x01,                    //  Logical Maximum (1)                71
# 0x75, 0x01,                    //  Report Size (1)                    73
# 0x95, 0x0f,                    //  Report Count (15)                  75
# 0x81, 0x02,                    //  Input (Data,Var,Abs)               77
# 0x06, 0x00, 0xff,              //  Usage Page (Vendor Defined Page 1) 79
# 0x09, 0x21,                    //  Usage (Vendor Usage 0x21)          82
# 0x95, 0x0d,                    //  Report Count (13)                  84
# 0x81, 0x02,                    //  Input (Data,Var,Abs)               86
# 0x06, 0x00, 0xff,              //  Usage Page (Vendor Defined Page 1) 88
# 0x09, 0x22,                    //  Usage (Vendor Usage 0x22)          91
# 0x15, 0x00,                    //  Logical Minimum (0)                93
# 0x26, 0xff, 0x00,              //  Logical Maximum (255)              95
# 0x75, 0x08,                    //  Report Size (8)                    98
# 0x95, 0x34,                    //  Report Count (52)                  100
# 0x81, 0x02,                    //  Input (Data,Var,Abs)               102
# 0x85, 0x02,                    //  Report ID (2)                      104
# 0x09, 0x23,                    //  Usage (Vendor Usage 0x23)          106
# 0x95, 0x2f,                    //  Report Count (47)                  108
# 0x91, 0x02,                    //  Output (Data,Var,Abs)              110
# 0x85, 0x05,                    //  Report ID (5)                      112
# 0x09, 0x33,                    //  Usage (Vendor Usage 0x33)          114
# 0x95, 0x28,                    //  Report Count (40)                  116
# 0xb1, 0x02,                    //  Feature (Data,Var,Abs)             118
# 0x85, 0x08,                    //  Report ID (8)                      120
# 0x09, 0x34,                    //  Usage (Vendor Usage 0x34)          122
# 0x95, 0x2f,                    //  Report Count (47)                  124
# 0xb1, 0x02,                    //  Feature (Data,Var,Abs)             126
# 0x85, 0x09,                    //  Report ID (9)                      128
# 0x09, 0x24,                    //  Usage (Vendor Usage 0x24)          130
# 0x95, 0x13,                    //  Report Count (19)                  132
# 0xb1, 0x02,                    //  Feature (Data,Var,Abs)             134
# 0x85, 0x0a,                    //  Report ID (10)                     136
# 0x09, 0x25,                    //  Usage (Vendor Usage 0x25)          138
# 0x95, 0x1a,                    //  Report Count (26)                  140
# 0xb1, 0x02,                    //  Feature (Data,Var,Abs)             142
# 0x85, 0x20,                    //  Report ID (32)                     144
# 0x09, 0x26,                    //  Usage (Vendor Usage 0x26)          146
# 0x95, 0x3f,                    //  Report Count (63)                  148
# 0xb1, 0x02,                    //  Feature (Data,Var,Abs)             150
# 0x85, 0x21,                    //  Report ID (33)                     152
# 0x09, 0x27,                    //  Usage (Vendor Usage 0x27)          154
# 0x95, 0x04,                    //  Report Count (4)                   156
# 0xb1, 0x02,                    //  Feature (Data,Var,Abs)             158
# 0x85, 0x22,                    //  Report ID (34)                     160
# 0x09, 0x40,                    //  Usage (Vendor Usage 0x40)          162
# 0x95, 0x3f,                    //  Report Count (63)                  164
# 0xb1, 0x02,                    //  Feature (Data,Var,Abs)             166
# 0x85, 0x80,                    //  Report ID (128)                    168
# 0x09, 0x28,                    //  Usage (Vendor Usage 0x28)          170
# 0x95, 0x3f,                    //  Report Count (63)                  172
# 0xb1, 0x02,                    //  Feature (Data,Var,Abs)             174
# 0x85, 0x81,                    //  Report ID (129)                    176
# 0x09, 0x29,                    //  Usage (Vendor Usage 0x29)          178
# 0x95, 0x3f,                    //  Report Count (63)                  180
# 0xb1, 0x02,                    //  Feature (Data,Var,Abs)             182
# 0x85, 0x82,                    //  Report ID (130)                    184
# 0x09, 0x2a,                    //  Usage (Vendor Usage 0x2a)          186
# 0x95, 0x09,                    //  Report Count (9)                   188
# 0xb1, 0x02,                    //  Feature (Data,Var,Abs)             190
# 0x85, 0x83,                    //  Report ID (131)                    192
# 0x09, 0x2b,                    //  Usage (Vendor Usage 0x2b)          194
# 0x95, 0x3f,                    //  Report Count (63)                  196
# 0xb1, 0x02,                    //  Feature (Data,Var,Abs)             198
# 0x85, 0x84,                    //  Report ID (132)                    200
# 0x09, 0x2c,                    //  Usage (Vendor Usage 0x2c)          202
# 0x95, 0x3f,                    //  Report Count (63)                  204
# 0xb1, 0x02,                    //  Feature (Data,Var,Abs)             206
# 0x85, 0x85,                    //  Report ID (133)                    208
# 0x09, 0x2d,                    //  Usage (Vendor Usage 0x2d)          210
# 0x95, 0x02,                    //  Report Count (2)                   212
# 0xb1, 0x02,                    //  Feature (Data,Var,Abs)             214
# 0x85, 0xa0,                    //  Report ID (160)                    216
# 0x09, 0x2e,                    //  Usage (Vendor Usage 0x2e)          218
# 0x95, 0x01,                    //  Report Count (1)                   220
# 0xb1, 0x02,                    //  Feature (Data,Var,Abs)             222
# 0x85, 0xe0,                    //  Report ID (224)                    224
# 0x09, 0x2f,                    //  Usage (Vendor Usage 0x2f)          226
# 0x95, 0x3f,                    //  Report Count (63)                  228
# 0xb1, 0x02,                    //  Feature (Data,Var,Abs)             230
# 0x85, 0xf0,                    //  Report ID (240)                    232
# 0x09, 0x30,                    //  Usage (Vendor Usage 0x30)          234
# 0x95, 0x3f,                    //  Report Count (63)                  236
# 0xb1, 0x02,                    //  Feature (Data,Var,Abs)             238
# 0x85, 0xf1,                    //  Report ID (241)                    240
# 0x09, 0x31,                    //  Usage (Vendor Usage 0x31)          242
# 0x95, 0x3f,                    //  Report Count (63)                  244
# 0xb1, 0x02,                    //  Feature (Data,Var,Abs)             246
# 0x85, 0xf2,                    //  Report ID (242)                    248
# 0x09, 0x32,                    //  Usage (Vendor Usage 0x32)          250
# 0x95, 0x0f,                    //  Report Count (15)                  252
# 0xb1, 0x02,                    //  Feature (Data,Var,Abs)             254
# 0x85, 0xf4,                    //  Report ID (244)                    256
# 0x09, 0x35,                    //  Usage (Vendor Usage 0x35)          258
# 0x95, 0x3f,                    //  Report Count (63)                  260
# 0xb1, 0x02,                    //  Feature (Data,Var,Abs)             262
# 0x85, 0xf5,                    //  Report ID (245)                    264
# 0x09, 0x36,                    //  Usage (Vendor Usage 0x36)          266
# 0x95, 0x03,                    //  Report Count (3)                   268
# 0xb1, 0x02,                    //  Feature (Data,Var,Abs)             270
# 0xc0,                          // End Collection                      272
# 
R: 273 05 01 09 05 a1 01 85 01 09 30 09 31 09 32 09 35 09 33 09 34 15 00 26 ff 00 75 08 95 06 81 02 06 00 ff 09 20 95 01 81 02 05 01 09 39 15 00 25 07 35 00 46 3b 01 65 14 75 04 95 01 81 42 65 00 05 09 19 01 29 0f 15 00 25 01 75 01 95 0f 81 02 06 00 ff 09 21 95 0d 81 02 06 00 ff 09 22 15 00 26 ff 00 75 08 95 34 81 02 85 02 09 23 95 2f 91 02 85 05 09 33 95 28 b1 02 85 08 09 34 95 2f b1 02 85 09 09 24 95 13 b1 02 85 0a 09 25 95 1a b1 02 85 20 09 26 95 3f b1 02 85 21 09 27 95 04 b1 02 85 22 09 40 95 3f b1 02 85 80 09 28 95 3f b1 02 85 81 09 29 95 3f b1 02 85 82 09 2a 95 09 b1 02 85 83 09 2b 95 3f b1 02 85 84 09 2c 95 3f b1 02 85 85 09 2d 95 02 b1 02 85 a0 09 2e 95 01 b1 02 85 e0 09 2f 95 3f b1 02 85 f0 09 30 95 3f b1 02 85 f1 09 31 95 3f b1 02 85 f2 09 32 95 0f b1 02 85 f4 09 35 95 3f b1 02 85 f5 09 36 95 03 b1 02 c0
N: Sony Interactive Entertainment DualSense Wireless Controller
I: 3 054c 0ce6
# ReportID: 1 / X:  131 | Y:  128 | Z:  129 | Rz:  127 | Rx:    0 | Ry:    0 | 0xff000020:   22 | Hat switch:   8 | Button: 0  0  0  0  0  0  0  0  0  0  0  0  0  0  0 | 0xff000021: 0 , 0 , 0 , 0 , 0 , 0 , 0 , 0 , 0 , 0 , 0 , 0 , 0 | 0xff000022:  243 ,  127 ,   42 ,  235 ,  246 ,  255 ,  237 ,  255 ,   11 ,    0 ,   46 ,    0 ,  114 ,   31 ,   59 ,    5 ,   57 ,  232 ,  202 ,  219 ,    8 ,  128 ,    0 ,    0 ,    0 ,  128 ,    0 ,    0 ,    0 ,    0 ,    9 ,    9 ,    0 ,    0 ,    0 ,    0 ,    0 ,  216 ,    6 ,  203 ,  219 ,   40 ,    8 ,    0 ,   28 ,  157 ,  180 ,   83 ,   33 ,  238 ,   25 ,   47 
E: 000000.000000 64 01 83 80 81 7f 00 00 16 08 00 00 00 f3 7f 2a eb f6 ff ed ff 0b 00 2e 00 72 1f 3b 05 39 e8 ca db 08 80 00 00 00 80 00 00 00 00 09 09 00 00 00 00 00 d8 06 cb db 28 08 00 1c 9d b4 53 21 ee 19 2f
# ReportID: 1 / X:  131 | Y:  128 | Z:  129 | Rz:  127 | Rx:    0 | Ry:    0 | 0xff000020:   23 | Hat switch:   8 | Button: 0  0  0  0  0  0  0  0  0  0  0  0  0  0  0 | 0xff000021: 0 , 0 , 0 , 0 , 0 , 0 , 0 , 0 , 0 , 0 , 0 , 0 , 0 | 0xff000022:  244 ,  127 ,   42 ,  235 ,  247 ,  255 ,  238 ,  255 ,   11 ,    0 ,   56 ,    0 ,  118 ,   31 ,   67 ,    5 ,   44 ,   23 ,  203 ,  219 ,    8 ,  128 ,    0 ,    0 ,    0 ,  128 ,    0 ,    0 ,    0 ,    0 ,    9 ,    9 ,    0 ,    0 ,    0 ,    0 ,    0 ,  184 ,   53 ,  203 ,  219 ,   40 ,    8 ,    0 ,  138 ,   68 ,  238 ,  101 ,  155 ,  236 ,  205 ,  125 
E: 000000.004223 64 01 83 80 81 7f 00 00 17 08 00 00 00 f4 7f 2a eb f7 ff ee ff 0b 00 38 00 76 1f 43 05 2c 17 cb db 08 80 00 00 00 80 00 00 00 00 09 09 00 00 00 00 00 b8 35 cb db 28 08 00 8a 44 ee 65 9b ec cd 7d
# ReportID: 1 / X:  131 | Y:  128 | Z:  129 | Rz:  127 | Rx:    0 | Ry:    0 | 0xff000020:   24 | Hat switch:   8 | Button: 0  0  0  0  0  0  0  0  0  0  0  0  0  0  0 | 0xff000021: 0 , 0 , 0 , 0 , 0 , 0 , 0 , 0 , 0 , 0 , 0 , 0 , 0 | 0xff000022:  245 ,  127 ,   42 ,  235 ,  247 ,  255 ,  238 ,  255 ,   11 ,    0 ,   63 ,    0 ,   80 ,   31 ,   61 ,    5 ,   32 ,   70 ,  203 ,  219 ,    8 ,  128 ,    0 ,    0 ,    0 ,  128 ,    0 ,    0 ,    0 ,    0 ,    9 ,    9 ,    0 ,    0 ,    0 ,    0 ,    0 ,  152 ,  100 ,  203 ,  219 ,   40 ,    8 ,    0 ,  156 ,   20 ,   14 ,  222 ,   31 ,    6 ,   14 ,  180 
E: 000000.008137 64 01 83 80 81 7f 00 00 18 08 00 00 00 f5 7f 2a eb f7 ff ee ff 0b 00 3f 00 50 1f 3d 05 20 46 cb db 08 80 00 00 00 80 00 00 00 00 09 09 00 00 00 00 00 98 64 cb db 28 08 00 9c 14 0e de 1f 06 0e b4
# ReportID: 1 / X:  131 | Y:  128 | Z:  130 | Rz:  127 | Rx:    0 | Ry:    0 | 0xff000020:   25 | Hat switch:   8 | Button: 0  0  0  0  0  0  0  0  0  0  0  0  0  0  0 | 0xff000021: 0 , 0 , 0 , 0 , 0 , 0 , 0 , 0 , 0 , 0 , 0 , 0 , 0 | 0xff000022:  246 ,  127 ,   42 ,  235 ,  246 ,  255 ,  238 ,  255 ,   11 ,    0 ,   57 ,    0 ,   91 ,   31 ,   59 ,    5 ,   19 ,  117 ,  203 ,  219 ,    8 ,  128 ,    0 ,    0 ,    0 ,  128 ,    0 ,    0 ,    0 ,    0 ,    9 ,    9 ,    0 ,    0 ,    0 ,    0 ,    0 ,  120 ,  147 ,  203 ,  219 ,   40 ,    8 ,    0 ,  247 ,  187 ,   86 ,  109 ,  153 ,  218 ,   25 ,   27 
E: 000000.011997 64 01 83 80 82 7f 00 00 19 08 00 00 00 f6 7f 2a eb f6 ff ee ff 0b 00 39 00 5b 1f 3b 05 13 75 cb db 08 80 00 00 00 80 00 00 00 00 09 09 00 00 00 00 00 78 93 cb db 28 08 00 f7 bb 56 6d 99 da 19 1b
# ReportID: 1 / X:  131 | Y:  128 | Z:  129 | Rz:  127 | Rx:    0 | Ry:    0 | 0xff000020:   26 | Hat switch:   8 | Button: 0  0  0  0  0  0  0  0  0  0  0  0  0  0  0 | 0xff000021: 0 , 0 , 0 , 0 , 0 , 0 , 0 , 0 , 0 , 0 , 0 , 0 , 0 | 0xff000022:  247 ,  127 ,   42 ,  235 ,  246 ,  255 ,  239 ,  255 ,   12 ,    0 ,   60 ,    0 ,   77 ,   31 ,   63 ,    5 ,    6 ,  164 ,  203 ,  219 ,    8 ,  128 ,    0 ,    0 ,    0 ,  128 ,    0 ,    0 ,    0 ,    0 ,    9 ,    9 ,    0 ,    0 ,    0 ,    0 ,    0 ,   88 ,  194 ,  203 ,  219 ,   40 ,    8 ,    0 ,  170 ,  212 ,  105 ,  161 ,  239 ,   96 ,  105 ,  130 
E: 000000.016097 64 01 83 80 81 7f 00 00 1a 08 00 00 00 f7 7f 2a eb f6 ff ef ff 0c 00 3c 00 4d 1f 3f 05 06 a4 cb db 08 80 00 00 00 80 00 00 00 00 09 09 00 00 00 00 00 58 c2 cb db 28 08 00 aa d4 69 a1 ef 60 69 82
# ReportID: 1 / X:  131 | Y:  128 | Z:  130 | Rz:  127 | Rx:    0 | Ry:    0 | 0xff000020:   27 | Hat switch:   8 | Button: 0  0  0  0  0  0  0  0  0  0  0  0  0  0  0 | 0xff000021: 0 , 0 , 0 , 0 , 0 , 0 , 0 , 0 , 0 , 0 , 0 , 0 , 0 | 0xff000022:  248 ,  127 ,   42 ,  235 ,  247 ,  255 ,  239 ,  255 ,   11 ,    0 ,   67 ,    0 ,   52 ,   31 ,   64 ,    5 ,  249 ,  210 ,  203 ,  219 ,    8 ,  128 ,    0 ,    0 ,    0 ,  128 ,    0 ,    0 ,    0 ,    0 ,    9 ,    9 ,    0 ,    0 ,    0 ,    0 ,    0 ,   56 ,  241 ,  203 ,  219 ,   40 ,    8 ,    0 ,   42 ,  138 ,  128 ,   46 ,    5 ,   18 ,  156 ,  102 
E: 000000.020197 64 01 83 80 82 7f 00 00 1b 08 00 00 00 f8 7f 2a eb f7 ff ef ff 0b 00 43 00 34 1f 40 05 f9 d2 cb db 08 80 00 00 00 80 00 00 00 00 09 09 00 00 00 00 00 38 f1 cb db 28 08 00 2a 8a 80 2e 05 12 9c 66
# ReportID: 1 / X:  131 | Y:  128 | Z:  130 | Rz:  127 | Rx:    0 | Ry:    0 | 0xff000020:   28 | Hat switch:   8 | Button: 0  0  0  0  0  0  0  0  0  0  0  0  0  0  0 | 0xff000021: 0 , 0 , 0 , 0 , 0 , 0 , 0 , 0 , 0 , 0 , 0 , 0 , 0 | 0xff000022:  249 ,  127 ,   42 ,  235 ,  248 ,  255 ,  238 ,  255 ,   11 ,    0 ,   65 ,    0 ,   69 ,   31 ,   62 ,    5 ,  236 ,    1 ,  204 ,  219 ,    8 ,  128 ,    0 ,    0 ,    0 ,  128 ,    0 ,    0 ,    0 ,    0 ,    9 ,    9 ,    0 ,    0 ,    0 ,    0 ,    0 ,   24 ,   32 ,  204 ,  219 ,   40 ,    8 ,    0 ,   18 ,   78 ,  181 ,  210 ,   98 ,   41 ,   72 ,    2 
E: 000000.024191 64 01 83 80 82 7f 00 00 1c 08 00 00 00 f9 7f 2a eb f8 ff ee ff 0b 00 41 00 45 1f 3e 05 ec 01 cc db 08 80 00 00 00 80 00 00 00 00 09 09 00 00 00 00 00 18 20 cc db 28 08 00 12 4e b5 d2 62 29 48 02
# ReportID: 1 / X:  131 | Y:  128 | Z:  129 | Rz:  127 | Rx:    0 | Ry:    0 | 0xff000020:   29 | Hat switch:   8 | Button: 0  0  0  0  0  0  0  0  0  0  0  0  0  0  0 | 0xff000021: 0 , 0 , 0 , 0 , 0 , 0 , 0 , 0 , 0 , 0 , 0 , 0 , 0 | 0xff000022:  250 ,  127 ,   42 ,  235 ,  246 ,  255 ,  238 ,  255 ,   11 ,    0 ,   74 ,    0 ,  101 ,   31 ,   56 ,    5 ,  223 ,   48 ,  204 ,  219 ,    8 ,  128 ,    0 ,    0 ,    0 ,  128 ,    0 ,    0 ,    0 ,    0 ,    9 ,    9 ,    0 ,    0 ,    0 ,    0 ,    0 ,  248 ,   78 ,  204 ,  219 ,   40 ,    8 ,    0 ,  151 ,   60 ,  184 ,   21 ,   54 ,  206 ,  166 ,  110 
E: 000000.028104 64 01 83 80 81 7f 00 00 1d 08 00 00 00 fa 7f 2a eb f6 ff ee ff 0b 00 4a 00 65 1f 38 05 df 30 cc db 08 80 00 00 00 80 00 00 00 00 09 09 00 00 00 00 00 f8 4e cc db 28 08 00 97 3c b8 15 36 ce a6 6e
# ReportID: 1 / X:  131 | Y:  128 | Z:  129 | Rz:  127 | Rx:    0 | Ry:    0 | 0xff000020:   30 | Hat switch:   8 | Button: 0  0  0  0  0  0  0  0  0  0  0  0  0  0  0 | 0xff000021: 0 , 0 , 0 , 0 , 0 , 0 , 0 , 0 , 0 , 0 , 0 , 0 , 0 | 0xff000022:  251 ,  127 ,   42 ,  235 ,  246 ,  255 ,  238 ,  255 ,   11 ,    0 ,   72 ,    0 ,   93 ,   31 ,   58 ,    5 ,  210 ,   95 ,  204 ,  219 ,    8 ,  128 ,    0 ,    0 ,    0 ,  128 ,    0 ,    0 ,    0 ,    0 ,    9 ,    9 ,    0 ,    0 ,    0 ,    0 ,    0 ,  216 ,  125 ,  204 ,  219 ,   40 ,    8 ,    0 ,  201 ,   86 ,  202 ,  103 ,  122 ,   26 ,    0 ,   58 
E: 000000.033084 64 01 83 80 81 7f 00 00 1e 08 00 00 00 fb 7f 2a eb f6 ff ee ff 0b 00 48 00 5d 1f 3a 05 d2 5f cc db 08 80 00 00 00 80 00 00 00 00 09 09 00 00 00 00 00 d8 7d cc db 28 08 00 c9 56 ca 67 7a 1a 00 3a
# ReportID: 1 / X:  131 | Y:  128 | Z:  129 | Rz:  127 | Rx:    0 | Ry:    0 | 0xff000020:   31 | Hat switch:   8 | Button: 0  0  0  0  0  0  0  0  0  0  0  0  0  0  0 | 0xff000021: 0 , 0 , 0 , 0 , 0 , 0 , 0 , 0 , 0 , 0 , 0 , 0 , 0 | 0xff000022:  252 ,  127 ,   42 ,  235 ,  246 ,  255 ,  239 ,  255 ,   10 ,    0 ,   67 ,    0 ,   83 ,   31 ,   65 ,    5 ,  197 ,  142 ,  204 ,  219 ,    8 ,  128 ,    0 ,    0 ,    0 ,  128 ,    0 ,    0 ,    0 ,    0 ,    9 ,    9 ,    0 ,    0 ,    0 ,    0 ,    0 ,  184 ,  172 ,  204 ,  219 ,   40 ,    8 ,    0 ,  249 ,  221 ,   93 ,  202 ,   33 ,  215 ,   12 ,   43 
E: 000000.036000 64 01 83 80 81 7f 00 00 1f 08 00 00 00 fc 7f 2a eb f6 ff ef ff 0a 00 43 00 53 1f 41 05 c5 8e cc db 08 80 00 00 00 80 00 00 00 00 09 09 00 00 00 00 00 b8 ac cc db 28 08 00 f9 dd 5d ca 21 d7 0c 2b
# ReportID: 1 / X:  131 | Y:  128 | Z:  129 | Rz:  127 | Rx:    0 | Ry:    0 | 0xff000020:   32 | Hat switch:   8 | Button: 0  0  0  0  0  0  0  0  0  0  0  0  0  0  0 | 0xff000021: 0 , 0 , 0 , 0 , 0 , 0 , 0 , 0 , 0 , 0 , 0 , 0 , 0 | 0xff000022:  253 ,  127 ,   42 ,  235 ,  247 ,  255 ,  238 ,  255 ,   10 ,    0 ,   66 ,    0 ,   89 ,   31 ,   53 ,    5 ,  185 ,  189 ,  204 ,  219 ,    8 ,  128 ,    0 ,    0 ,    0 ,  128 ,    0 ,    0 ,    0 ,    0 ,    9 ,    9 ,    0 ,    0 ,    0 ,    0 ,    0 ,  152 ,  219 ,  204 ,  219 ,   40 ,    8 ,    0 ,  159 ,   63 ,   39 ,  209 ,  222 ,   89 ,   95 ,  155 
E: 000000.040108 64 01 83 80 81 7f 00 00 20 08 00 00 00 fd 7f 2a eb f7 ff ee ff 0a 00 42 00 59 1f 35 05 b9 bd cc db 08 80 00 00 00 80 00 00 00 00 09 09 00 00 00 00 00 98 db cc db 28 08 00 9f 3f 27 d1 de 59 5f 9b
# ReportID: 1 / X:  131 | Y:  128 | Z:  129 | Rz:  127 | Rx:    0 | Ry:    0 | 0xff000020:   33 | Hat switch:   8 | Button: 0  0  0  0  0  0  0  0  0  0  0  0  0  0  0 | 0xff000021: 0 , 0 , 0 , 0 , 0 , 0 , 0 , 0 , 0 , 0 , 0 , 0 , 0 | 0xff000022:  254 ,  127 ,   42 ,  235 ,  248 ,  255 ,  238 ,  255 ,   10 ,    0 ,   61 ,    0 ,   87 ,   31 ,   55 ,    5 ,  172 ,  236 ,  204 ,  219 ,    8 ,  128 ,    0 ,    0 ,    0 ,  128 ,    0 ,    0 ,    0 ,    0 ,    9 ,    9 ,    0 ,    0 ,    0 ,    0 ,    0 ,  120 ,   10 ,  205 ,  219 ,   40 ,    8 ,    0 ,   67 ,  132 ,   41 ,   96 ,   80 ,  205 ,  184 ,   99 
E: 000000.045126 64 01 83 80 81 7f 00 00 21 08 00 00 00 fe 7f 2a eb f8 ff ee ff 0a 00 3d 00 57 1f 37 05 ac ec cc db 08 80 00 00 00 80 00 00 00 00 09 09 00 00 00 00 00 78 0a cd db 28 08 00 43 84 29 60 50 cd b8 63
# ReportID: 1 / X:  131 | Y:  128 | Z:  129 | Rz:  127 | Rx:    0 | Ry:    0 | 0xff000020:   34 | Hat switch:   8 | Button: 0  0  0  0  0  0  0  0  0  0  0  0  0  0  0 | 0xff000021: 0 , 0 , 0 , 0 , 0 , 0 , 0 , 0 , 0 , 0 , 0 , 0 , 0 | 0xff000022:  255 ,  127 ,   42 ,  235 ,  248 ,  255 ,  238 ,  255 ,   11 ,    0 ,   61 ,    0 ,   81 ,   31 ,   59 ,    5 ,  159 ,   27 ,  205 ,  219 ,    8 ,  128 ,    0 ,    0 ,    0 ,  128 ,    0 ,    0 ,    0 ,    0 ,    9 ,    9 ,    0 ,    0 ,    0 ,    0 ,    0 ,   88 ,   57 ,  205 ,  219 ,   40 ,    8 ,    0 ,  116 ,   95 ,  190 ,  179 ,  195 ,  231 ,   61 ,   13 
E: 000000.048316 64 01 83 80 81 7f 00 00 22 08 00 00 00 ff 7f 2a eb f8 ff ee ff 0b 00 3d 00 51 1f 3b 05 9f 1b cd db 08 80 00 00 00 80 00 00 00 00 09 09 00 00 00 00 00 58 39 cd db 28 08 00 74 5f be b3 c3 e7 3d 0d
# ReportID: 1 / X:  131 | Y:  128 | Z:  129 | Rz:  127 | Rx:    0 | Ry:    0 | 0xff000020:   35 | Hat switch:   8 | Button: 0  0  0  0  0  0  0  0  0  0  0  0  0  0  0 | 0xff000021: 0 , 0 , 0 , 0 , 0 , 0 , 0 , 0 , 0 , 0 , 0 , 0 , 0 | 0xff000022:    0 ,  128 ,   42 ,  235 ,  247 ,  255 ,  239 ,  255 ,   11 ,    0 ,   59 ,    0 ,   96 ,   31 ,   59 ,    5 ,  146 ,   74 ,  205 ,  219 ,    8 ,  128 ,    0 ,    0 ,    0 ,  128 ,    0 ,    0 ,    0 ,    0 ,    9 ,    9 ,    0 ,    0 ,    0 ,    0 ,    0 ,   56 ,  104 ,  205 ,  219 ,   40 ,    8 ,    0 ,    3 ,  103 ,   51 ,  122 ,  129 ,  136 ,   95 ,  236 
E: 000000.052129 64 01 83 80 81 7f 00 00 23 08 00 00 00 00 80 2a eb f7 ff ef ff 0b 00 3b 00 60 1f 3b 05 92 4a cd db 08 80 00 00 00 80 00 00 00 00 09 09 00 00 00 00 00 38 68 cd db 28 08 00 03 67 33 7a 81 88 5f ec
# ReportID: 1 / X:  131 | Y:  128 | Z:  129 | Rz:  127 | Rx:    0 | Ry:    0 | 0xff000020:   36 | Hat switch:   8 | Button: 0  0  0  0  0  0  0  0  0  0  0  0  0  0  0 | 0xff000021: 0 , 0 , 0 , 0 , 0 , 0 , 0 , 0 , 0 , 0 , 0 , 0 , 0 | 0xff000022:    1 ,  128 ,   42 ,  235 ,  247 ,  255 ,  238 ,  255 ,   11 ,    0 ,   57 ,    0 ,  101 ,   31 ,   59 ,    5 ,  133 ,  121 ,  205 ,  219 ,    8 ,  128 ,    0 ,    0 ,    0 ,  128 ,    0 ,    0 ,    0 ,    0 ,    9 ,    9 ,    0 ,    0 ,    0 ,    0 ,    0 ,   24 ,  151 ,  205 ,  219 ,   40 ,    8 ,    0 ,  229 ,   32 ,   63 ,  182 ,   84 ,  177 ,  235 ,   25 
E: 000000.056155 64 01 83 80 81 7f 00 00 24 08 00 00 00 01 80 2a eb f7 ff ee ff 0b 00 39 00 65 1f 3b 05 85 79 cd db 08 80 00 00 00 80 00 00 00 00 09 09 00 00 00 00 00 18 97 cd db 28 08 00 e5 20 3f b6 54 b1 eb 19
# ReportID: 1 / X:  131 | Y:  128 | Z:  130 | Rz:  127 | Rx:    0 | Ry:    0 | 0xff000020:   37 | Hat switch:   8 | Button: 0  0  0  0  0  0  0  0  0  0  0  0  0  0  0 | 0xff000021: 0 , 0 , 0 , 0 , 0 , 0 , 0 , 0 , 0 , 0 , 0 , 0 , 0 | 0xff000022:    2 ,  128 ,   42 ,  235 ,  248 ,  255 ,  239 ,  255 ,   11 ,    0 ,   57 ,    0 ,   95 ,   31 ,   49 ,    5 ,  120 ,  168 ,  205 ,  219 ,    8 ,  128 ,    0 ,    0 ,    0 ,  128 ,    0 ,    0 ,    0 ,    0 ,    9 ,    9 ,    0 ,    0 ,    0 ,    0 ,    0 ,  248 ,  197 ,  205 ,  219 ,   40 ,    8 ,    0 ,  144 ,  221 ,    7 ,   73 ,   38 ,  233 ,  209 ,  222 
E: 000000.061907 64 01 83 80 82 7f 00 00 25 08 00 00 00 02 80 2a eb f8 ff ef ff 0b 00 39 00 5f 1f 31 05 78 a8 cd db 08 80 00 00 00 80 00 00 00 00 09 09 00 00 00 00 00 f8 c5 cd db 28 08 00 90 dd 07 49 26 e9 d1 de
# ReportID: 1 / X:  131 | Y:  128 | Z:  129 | Rz:  127 | Rx:    0 | Ry:    0 | 0xff000020:   38 | Hat switch:   8 | Button: 0  0  0  0  0  0  0  0  0  0  0  0  0  0  0 | 0xff000021: 0 , 0 , 0 , 0 , 0 , 0 , 0 , 0 , 0 , 0 , 0 , 0 , 0 | 0xff000022:    3 ,  128 ,   42 ,  235 ,  247 ,  255 ,  238 ,  255 ,   11 ,    0 ,   52 ,    0 ,   76 ,   31 ,   50 ,    5 ,  107 ,  215 ,  205 ,  219 ,    8 ,  128 ,    0 ,    0 ,    0 ,  128 ,    0 ,    0 ,    0 ,    0 ,    9 ,    9 ,    0 ,    0 ,    0 ,    0 ,    0 ,  216 ,  244 ,  205 ,  219 ,   40 ,    8 ,    0 ,   94 ,    7 ,   54 ,  109 ,  239 ,  208 ,  177 ,  217 
E: 000000.065518 64 01 83 80 81 7f 00 00 26 08 00 00 00 03 80 2a eb f7 ff ee ff 0b 00 34 00 4c 1f 32 05 6b d7 cd db 08 80 00 00 00 80 00 00 00 00 09 09 00 00 00 00 00 d8 f4 cd db 28 08 00 5e 07 36 6d ef d0 b1 d9
# ReportID: 1 / X:  131 | Y:  128 | Z:  129 | Rz:  127 | Rx:    0 | Ry:    0 | 0xff000020:   39 | Hat switch:   8 | Button: 0  0  0  0  0  0  0  0  0  0  0  0  0  0  0 | 0xff000021: 0 , 0 , 0 , 0 , 0 , 0 , 0 , 0 , 0 , 0 , 0 , 0 , 0 | 0xff000022:    4 ,  128 ,   42 ,  235 ,  246 ,  255 ,  237 ,  255 ,   10 ,    0 ,   48 ,    0 ,   81 ,   31 ,   41 ,    5 ,   94 ,    6 ,  206 ,  219 ,    8 ,  128 ,    0 ,    0 ,    0 ,  128 ,    0 ,    0 ,    0 ,    0 ,    9 ,    9 ,    0 ,    0 ,    0 ,    0 ,    0 ,  184 ,   35 ,  206 ,  219 ,   40 ,    8 ,    0 ,  135 ,   86 ,  166 ,  110 ,  109 ,  198 ,   40 ,  141 
E: 000000.068607 64 01 83 80 81 7f 00 00 27 08 00 00 00 04 80 2a eb f6 ff ed ff 0a 00 30 00 51 1f 29 05 5e 06 ce db 08 80 00 00 00 80 00 00 00 00 09 09 00 00 00 00 00 b8 23 ce db 28 08 00 87 56 a6 6e 6d c6 28 8d
# ReportID: 1 / X:  131 | Y:  128 | Z:  129 | Rz:  127 | Rx:    0 | Ry:    0 | 0xff000020:   40 | Hat switch:   8 | Button: 0  0  0  0  0  0  0  0  0  0  0  0  0  0  0 | 0xff000021: 0 , 0 , 0 , 0 , 0 , 0 , 0 , 0 , 0 , 0 , 0 , 0 , 0 | 0xff000022:    5 ,  128 ,   42 ,  235 ,  246 ,  255 ,  238 ,  255 ,   11 ,    0 ,   41 ,    0 ,   79 ,   31 ,   35 ,    5 ,   82 ,   53 ,  206 ,  219 ,    8 ,  128 ,    0 ,    0 ,    0 ,  128 ,    0 ,    0 ,    0 ,    0 ,    9 ,    9 ,    0 ,    0 ,    0 ,    0 ,    0 ,  151 ,   82 ,  206 ,  219 ,   40 ,    8 ,    0 ,  206 ,   64 ,  154 ,   99 ,   51 ,    7 ,  101 ,   97 
E: 000000.072115 64 01 83 80 81 7f 00 00 28 08 00 00 00 05 80 2a eb f6 ff ee ff 0b 00 29 00 4f 1f 23 05 52 35 ce db 08 80 00 00 00 80 00 00 00 00 09 09 00 00 00 00 00 97 52 ce db 28 08 00 ce 40 9a 63 33 07 65 61
# ReportID: 1 / X:  131 | Y:  128 | Z:  129 | Rz:  127 | Rx:    0 | Ry:    0 | 0xff000020:   41 | Hat switch:   8 | Button: 0  0  0  0  0  0  0  0  0  0  0  0  0  0  0 | 0xff000021: 0 , 0 , 0 , 0 , 0 , 0 , 0 , 0 , 0 , 0 , 0 , 0 , 0 | 0xff000022:    6 ,  128 ,   42 ,  235 ,  247 ,  255 ,  239 ,  255 ,   11 ,    0 ,   38 ,    0 ,   90 ,   31 ,   49 ,    5 ,   69 ,  100 ,  206 ,  219 ,    8 ,  128 ,    0 ,    0 ,    0 ,  128 ,    0 ,    0 ,    0 ,    0 ,    9 ,    9 ,    0 ,    0 ,    0 ,    0 ,    0 ,  119 ,  129 ,  206 ,  219 ,   40 ,    8 ,    0 ,  112 ,  149 ,  194 ,   96 ,   36 ,  211 ,  203 ,  218 
E: 000000.076105 64 01 83 80 81 7f 00 00 29 08 00 00 00 06 80 2a eb f7 ff ef ff 0b 00 26 00 5a 1f 31 05 45 64 ce db 08 80 00 00 00 80 00 00 00 00 09 09 00 00 00 00 00 77 81 ce db 28 08 00 70 95 c2 60 24 d3 cb da
# ReportID: 1 / X:  131 | Y:  128 | Z:  129 | Rz:  127 | Rx:    0 | Ry:    0 | 0xff000020:   42 | Hat switch:   8 | Button: 0  0  0  0  0  0  0  0  0  0  0  0  0  0  0 | 0xff000021: 0 , 0 , 0 , 0 , 0 , 0 , 0 , 0 , 0 , 0 , 0 , 0 , 0 | 0xff000022:    7 ,  128 ,   42 ,  235 ,  247 ,  255 ,  238 ,  255 ,   10 ,    0 ,   39 ,    0 ,   88 ,   31 ,   37 ,    5 ,   56 ,  147 ,  206 ,  219 ,    8 ,  128 ,    0 ,    0 ,    0 ,  128 ,    0 ,    0 ,    0 ,    0 ,    9 ,    9 ,    0 ,    0 ,    0 ,    0 ,    0 ,   87 ,  176 ,  206 ,  219 ,   40 ,    8 ,    0 ,   70 ,    1 ,   12 ,  109 ,  246 ,   74 ,  212 ,  151 
E: 000000.081865 64 01 83 80 81 7f 00 00 2a 08 00 00 00 07 80 2a eb f7 ff ee ff 0a 00 27 00 58 1f 25 05 38 93 ce db 08 80 00 00 00 80 00 00 00 00 09 09 00 00 00 00 00 57 b0 ce db 28 08 00 46 01 0c 6d f6 4a d4 97
# ReportID: 1 / X:  131 | Y:  128 | Z:  129 | Rz:  127 | Rx:    0 | Ry:    0 | 0xff000020:   43 | Hat switch:   8 | Button: 0  0  0  0  0  0  0  0  0  0  0  0  0  0  0 | 0xff000021: 0 , 0 , 0 , 0 , 0 , 0 , 0 , 0 , 0 , 0 , 0 , 0 , 0 | 0xff000022:    8 ,  128 ,   42 ,  235 ,  246 ,  255 ,  238 ,  255 ,   11 ,    0 ,   32 ,    0 ,   95 ,   31 ,   50 ,    5 ,   43 ,  194 ,  206 ,  219 ,    8 ,  128 ,    0 ,    0 ,    0 ,  128 ,    0 ,    0 ,    0 ,    0 ,    9 ,    9 ,    0 ,    0 ,    0 ,    0 ,    0 ,   55 ,  223 ,  206 ,  219 ,   40 ,    8 ,    0 ,    5 ,  188 ,  208 ,   77 ,  170 ,   21 ,  188 ,    6 
E: 000000.084184 64 01 83 80 81 7f 00 00 2b 08 00 00 00 08 80 2a eb f6 ff ee ff 0b 00 20 00 5f 1f 32 05 2b c2 ce db 08 80 00 00 00 80 00 00 00 00 09 09 00 00 00 00 00 37 df ce db 28 08 00 05 bc d0 4d aa 15 bc 06
# ReportID: 1 / X:  131 | Y:  128 | Z:  130 | Rz:  127 | Rx:    0 | Ry:    0 | 0xff000020:   44 | Hat switch:   8 | Button: 0  0  0  0  0  0  0  0  0  0  0  0  0  0  0 | 0xff000021: 0 , 0 , 0 , 0 , 0 , 0 , 0 , 0 , 0 , 0 , 0 , 0 , 0 | 0xff000022:    9 ,  128 ,   42 ,  235 ,  247 ,  255 ,  238 ,  255 ,    9 ,    0 ,   40 ,    0 ,   98 ,   31 ,   46 ,    5 ,   30 ,  241 ,  206 ,  219 ,    8 ,  128 ,    0 ,    0 ,    0 ,  128 ,    0 ,    0 ,    0 ,    0 ,    9 ,    9 ,    0 ,    0 ,    0 ,    0 ,    0 ,   23 ,   14 ,  207 ,  219 ,   40 ,    8 ,    0 ,   99 ,  222 ,   36 ,  195 ,  130 ,    3 ,  156 ,  208 
E: 000000.088479 64 01 83 80 82 7f 00 00 2c 08 00 00 00 09 80 2a eb f7 ff ee ff 09 00 28 00 62 1f 2e 05 1e f1 ce db 08 80 00 00 00 80 00 00 00 00 09 09 00 00 00 00 00 17 0e cf db 28 08 00 63 de 24 c3 82 03 9c d0
# ReportID: 1 / X:  131 | Y:  128 | Z:  129 | Rz:  127 | Rx:    0 | Ry:    0 | 0xff000020:   45 | Hat switch:   8 | Button: 0  0  0  0  0  0  0  0  0  0  0  0  0  0  0 | 0xff000021: 0 , 0 , 0 , 0 , 0 , 0 , 0 , 0 , 0 , 0 , 0 , 0 , 0 | 0xff000022:   10 ,  128 ,   42 ,  235 ,  248 ,  255 ,  238 ,  255 ,   10 ,    0 ,   43 ,    0 ,   87 ,   31 ,   55 ,    5 ,   17 ,   32 ,  207 ,  219 ,    8 ,  128 ,    0 ,    0 ,    0 ,  128 ,    0 ,    0 ,    0 ,    0 ,    9 ,    9 ,    0 ,    0 ,    0 ,    0 ,    0 ,  247 ,   60 ,  207 ,  219 ,   40 ,    8 ,    0 ,   48 ,  224 ,   36 ,  198 ,  139 ,   96 ,  190 ,  100 
E: 000000.092479 64 01 83 80 81 7f 00 00 2d 08 00 00 00 0a 80 2a eb f8 ff ee ff 0a 00 2b 00 57 1f 37 05 11 20 cf db 08 80 00 00 00 80 00 00 00 00 09 09 00 00 00 00 00 f7 3c cf db 28 08 00 30 e0 24 c6 8b 60 be 64
# ReportID: 1 / X:  131 | Y:  128 | Z:  129 | Rz:  127 | Rx:    0 | Ry:    0 | 0xff000020:   46 | Hat switch:   8 | Button: 0  0  0  0  0  0  0  0  0  0  0  0  0  0  0 | 0xff000021: 0 , 0 , 0 , 0 , 0 , 0 , 0 , 0 , 0 , 0 , 0 , 0 , 0 | 0xff000022:   11 ,  128 ,   42 ,  235 ,  247 ,  255 ,  238 ,  255 ,   10 ,    0 ,   43 ,    0 ,   87 ,   31 ,   42 ,    5 ,    4 ,   79 ,  207 ,  219 ,    8 ,  128 ,    0 ,    0 ,    0 ,  128 ,    0 ,    0 ,    0 ,    0 ,    9 ,    9 ,    0 ,    0 ,    0 ,    0 ,    0 ,  215 ,  107 ,  207 ,  219 ,   40 ,    8 ,    0 ,  238 ,   14 ,  153 ,  252 ,   75 ,  122 ,  205 ,   44 
E: 000000.096271 64 01 83 80 81 7f 00 00 2e 08 00 00 00 0b 80 2a eb f7 ff ee ff 0a 00 2b 00 57 1f 2a 05 04 4f cf db 08 80 00 00 00 80 00 00 00 00 09 09 00 00 00 00 00 d7 6b cf db 28 08 00 ee 0e 99 fc 4b 7a cd 2c
# ReportID: 1 / X:  131 | Y:  128 | Z:  130 | Rz:  127 | Rx:    0 | Ry:    0 | 0xff000020:   47 | Hat switch:   8 | Button: 0  0  0  0  0  0  0  0  0  0  0  0  0  0  0 | 0xff000021: 0 , 0 , 0 , 0 , 0 , 0 , 0 , 0 , 0 , 0 , 0 , 0 , 0 | 0xff000022:   12 ,  128 ,   42 ,  235 ,  247 ,  255 ,  239 ,  255 ,   10 ,    0 ,   57 ,    0 ,   87 ,   31 ,   50 ,    5 ,  247 ,  125 ,  207 ,  219 ,    8 ,  128 ,    0 ,    0 ,    0 ,  128 ,    0 ,    0 ,    0 ,    0 ,    9 ,    9 ,    0 ,    0 ,    0 ,    0 ,    0 ,  183 ,  154 ,  207 ,  219 ,   40 ,    8 ,    0 ,  244 ,  217 ,  221 ,  154 ,  167 ,  103 ,    8 ,  179 
E: 000000.100167 64 01 83 80 82 7f 00 00 2f 08 00 00 00 0c 80 2a eb f7 ff ef ff 0a 00 39 00 57 1f 32 05 f7 7d cf db 08 80 00 00 00 80 00 00 00 00 09 09 00 00 00 00 00 b7 9a cf db 28 08 00 f4 d9 dd 9a a7 67 08 b3
# ReportID: 1 / X:  131 | Y:  128 | Z:  129 | Rz:  127 | Rx:    0 | Ry:    0 | 0xff000020:   48 | Hat switch:   8 | Button: 0  0  0  0  0  0  0  0  0  0  0  0  0  0  0 | 0xff000021: 0 , 0 , 0 , 0 , 0 , 0 , 0 , 0 , 0 , 0 , 0 , 0 , 0 | 0xff000022:   13 ,  128 ,   42 ,  235 ,  246 ,  255 ,  237 ,  255 ,   11 ,    0 ,   51 ,    0 ,   80 ,   31 ,   53 ,    5 ,  235 ,  172 ,  207 ,  219 ,    8 ,  128 ,    0 ,    0 ,    0 ,  128 ,    0 ,    0 ,    0 ,    0 ,    9 ,    9 ,    0 ,    0 ,    0 ,    0 ,    0 ,  151 ,  201 ,  207 ,  219 ,   40 ,    8 ,    0 ,   61 ,  201 ,   44 ,   58 ,  149 ,  109 ,  218 ,   90 
E: 000000.104233 64 01 83 80 81 7f 00 00 30 08 00 00 00 0d 80 2a eb f6 ff ed ff 0b 00 33 00 50 1f 35 05 eb ac cf db 08 80 00 00 00 80 00 00 00 00 09 09 00 00 00 00 00 97 c9 cf db 28 08 00 3d c9 2c 3a 95 6d da 5a
# ReportID: 1 / X:  131 | Y:  128 | Z:  129 | Rz:  127 | Rx:    0 | Ry:    0 | 0xff000020:   49 | Hat switch:   8 | Button: 0  0  0  0  0  0  0  0  0  0  0  0  0  0  0 | 0xff000021: 0 , 0 , 0 , 0 , 0 , 0 , 0 , 0 , 0 , 0 , 0 , 0 , 0 | 0xff000022:   14 ,  128 ,   42 ,  235 ,  247 ,  255 ,  237 ,  255 ,   10 ,    0 ,   60 ,    0 ,   88 ,   31 ,   56 ,    5 ,  222 ,  219 ,  207 ,  219 ,    8 ,  128 ,    0 ,    0 ,    0 ,  128 ,    0 ,    0 ,    0 ,    0 ,    9 ,    9 ,    0 ,    0 ,    0 ,    0 ,    0 ,  119 ,  248 ,  207 ,  219 ,   40 ,    8 ,    0 ,  248 ,   83 ,   97 ,    0 ,  238 ,   88 ,  164 ,  183 
E: 000000.108953 64 01 83 80 81 7f 00 00 31 08 00 00 00 0e 80 2a eb f7 ff ed ff 0a 00 3c 00 58 1f 38 05 de db cf db 08 80 00 00 00 80 00 00 00 00 09 09 00 00 00 00 00 77 f8 cf db 28 08 00 f8 53 61 00 ee 58 a4 b7
# ReportID: 1 / X:  131 | Y:  128 | Z:  129 | Rz:  127 | Rx:    0 | Ry:    0 | 0xff000020:   50 | Hat switch:   8 | Button: 0  0  0  0  0  0  0  0  0  0  0  0  0  0  0 | 0xff000021: 0 , 0 , 0 , 0 , 0 , 0 , 0 , 0 , 0 , 0 , 0 , 0 , 0 | 0xff000022:   15 ,  128 ,   42 ,  235 ,  247 ,  255 ,  237 ,  255 ,   11 ,    0 ,   65 ,    0 ,   68 ,   31 ,   50 ,    5 ,  209 ,   10 ,  208 ,  219 ,    8 ,  128 ,    0 ,    0 ,    0 ,  128 ,    0 ,    0 ,    0 ,    0 ,    9 ,    9 ,    0 ,    0 ,    0 ,    0 ,    0 ,   87 ,   39 ,  208 ,  219 ,   40 ,    8 ,    0 ,   97 ,   86 ,  189 ,   87 ,  128 ,    9 ,  151 ,  226 
E: 000000.112351 64 01 83 80 81 7f 00 00 32 08 00 00 00 0f 80 2a eb f7 ff ed ff 0b 00 41 00 44 1f 32 05 d1 0a d0 db 08 80 00 00 00 80 00 00 00 00 09 09 00 00 00 00 00 57 27 d0 db 28 08 00 61 56 bd 57 80 09 97 e2
# ReportID: 1 / X:  131 | Y:  128 | Z:  129 | Rz:  127 | Rx:    0 | Ry:    0 | 0xff000020:   51 | Hat switch:   8 | Button: 0  0  0  0  0  0  0  0  0  0  0  0  0  0  0 | 0xff000021: 0 , 0 , 0 , 0 , 0 , 0 , 0 , 0 , 0 , 0 , 0 , 0 , 0 | 0xff000022:   16 ,  128 ,   42 ,  235 ,  247 ,  255 ,  238 ,  255 ,   11 ,    0 ,   65 ,    0 ,  106 ,   31 ,   56 ,    5 ,  196 ,   57 ,  208 ,  219 ,    8 ,  128 ,    0 ,    0 ,    0 ,  128 ,    0 ,    0 ,    0 ,    0 ,    9 ,    9 ,    0 ,    0 ,    0 ,    0 ,    0 ,   55 ,   86 ,  208 ,  219 ,   40 ,    8 ,    0 ,  199 ,   46 ,   48 ,  192 ,  108 ,  193 ,  237 ,  247 
E: 000000.116143 64 01 83 80 81 7f 00 00 33 08 00 00 00 10 80 2a eb f7 ff ee ff 0b 00 41 00 6a 1f 38 05 c4 39 d0 db 08 80 00 00 00 80 00 00 00 00 09 09 00 00 00 00 00 37 56 d0 db 28 08 00 c7 2e 30 c0 6c c1 ed f7
# ReportID: 1 / X:  131 | Y:  128 | Z:  129 | Rz:  127 | Rx:    0 | Ry:    0 | 0xff000020:   52 | Hat switch:   8 | Button: 0  0  0  0  0  0  0  0  0  0  0  0  0  0  0 | 0xff000021: 0 , 0 , 0 , 0 , 0 , 0 , 0 , 0 , 0 , 0 , 0 , 0 , 0 | 0xff000022:   17 ,  128 ,   42 ,  235 ,  246 ,  255 ,  238 ,  255 ,   11 ,    0 ,   66 ,    0 ,   97 ,   31 ,   57 ,    5 ,  183 ,  104 ,  208 ,  219 ,    8 ,  128 ,    0 ,    0 ,    0 ,  128 ,    0 ,    0 ,    0 ,    0 ,    9 ,    9 ,    0 ,    0 ,    0 ,    0 ,    0 ,   23 ,  133 ,  208 ,  219 ,   40 ,    8 ,    0 ,  154 ,   59 ,  219 ,  218 ,   60 ,  133 ,  130 ,   65 
E: 000000.121565 64 01 83 80 81 7f 00 00 34 08 00 00 00 11 80 2a eb f6 ff ee ff 0b 00 42 00 61 1f 39 05 b7 68 d0 db 08 80 00 00 00 80 00 00 00 00 09 09 00 00 00 00 00 17 85 d0 db 28 08 00 9a 3b db da 3c 85 82 41
# ReportID: 1 / X:  131 | Y:  128 | Z:  129 | Rz:  127 | Rx:    0 | Ry:    0 | 0xff000020:   53 | Hat switch:   8 | Button: 0  0  0  0  0  0  0  0  0  0  0  0  0  0  0 | 0xff000021: 0 , 0 , 0 , 0 , 0 , 0 , 0 , 0 , 0 , 0 , 0 , 0 , 0 | 0xff000022:   18 ,  128 ,   42 ,  235 ,  248 ,  255 ,  238 ,  255 ,   11 ,    0 ,   63 ,    0 ,   70 ,   31 ,   50 ,    5 ,  170 ,  151 ,  208 ,  219 ,    8 ,  128 ,    0 ,    0 ,    0 ,  128 ,    0 ,    0 ,    0 ,    0 ,    9 ,    9 ,    0 ,    0 ,    0 ,    0 ,    0 ,  247 ,  179 ,  208 ,  219 ,   40 ,    8 ,    0 ,  136 ,  168 ,  220 ,   95 ,  190 ,   49 ,    0 ,  146 
E: 000000.124937 64 01 83 80 81 7f 00 00 35 08 00 00 00 12 80 2a eb f8 ff ee ff 0b 00 3f 00 46 1f 32 05 aa 97 d0 db 08 80 00 00 00 80 00 00 00 00 09 09 00 00 00 00 00 f7 b3 d0 db 28 08 00 88 a8 dc 5f be 31 00 92
# ReportID: 1 / X:  131 | Y:  128 | Z:  129 | Rz:  127 | Rx:    0 | Ry:    0 | 0xff000020:   54 | Hat switch:   8 | Button: 0  0  0  0  0  0  0  0  0  0  0  0  0  0  0 | 0xff000021: 0 , 0 , 0 , 0 , 0 , 0 , 0 , 0 , 0 , 0 , 0 , 0 , 0 | 0xff000022:   19 ,  128 ,   42 ,  235 ,  247 ,  255 ,  238 ,  255 ,   11 ,    0 ,   59 ,    0 ,   65 ,   31 ,   53 ,    5 ,  157 ,  198 ,  208 ,  219 ,    8 ,  128 ,    0 ,    0 ,    0 ,  128 ,    0 ,    0 ,    0 ,    0 ,    9 ,    9 ,    0 ,    0 ,    0 ,    0 ,    0 ,  215 ,  226 ,  208 ,  219 ,   40 ,    8 ,    0 ,   57 ,  223 ,   84 ,   10 ,  117 ,  113 ,  136 ,   81 
E: 000000.128726 64 01 83 80 81 7f 00 00 36 08 00 00 00 13 80 2a eb f7 ff ee ff 0b 00 3b 00 41 1f 35 05 9d c6 d0 db 08 80 00 00 00 80 00 00 00 00 09 09 00 00 00 00 00 d7 e2 d0 db 28 08 00 39 df 54 0a 75 71 88 51
# ReportID: 1 / X:  131 | Y:  128 | Z:  129 | Rz:  127 | Rx:    0 | Ry:    0 | 0xff000020:   55 | Hat switch:   8 | Button: 0  0  0  0  0  0  0  0  0  0  0  0  0  0  0 | 0xff000021: 0 , 0 , 0 , 0 , 0 , 0 , 0 , 0 , 0 , 0 , 0 , 0 , 0 | 0xff000022:   20 ,  128 ,   42 ,  235 ,  248 ,  255 ,  239 ,  255 ,   11 ,    0 ,   65 ,    0 ,   81 ,   31 ,   52 ,    5 ,  144 ,  245 ,  208 ,  219 ,    8 ,  128 ,    0 ,    0 ,    0 ,  128 ,    0 ,    0 ,    0 ,    0 ,    9 ,    9 ,    0 ,    0 ,    0 ,    0 ,    0 ,  183 ,   17 ,  209 ,  219 ,   40 ,    8 ,    0 ,   51 ,  250 ,   86 ,  247 ,  152 ,  135 ,  179 ,  165 
E: 000000.132561 64 01 83 80 81 7f 00 00 37 08 00 00 00 14 80 2a eb f8 ff ef ff 0b 00 41 00 51 1f 34 05 90 f5 d0 db 08 80 00 00 00 80 00 00 00 00 09 09 00 00 00 00 00 b7 11 d1 db 28 08 00 33 fa 56 f7 98 87 b3 a5
# ReportID: 1 / X:  131 | Y:  128 | Z:  129 | Rz:  127 | Rx:    0 | Ry:    0 | 0xff000020:   56 | Hat switch:   8 | Button: 0  0  0  0  0  0  0  0  0  0  0  0  0  0  0 | 0xff000021: 0 , 0 , 0 , 0 , 0 , 0 , 0 , 0 , 0 , 0 , 0 , 0 , 0 | 0xff000022:   21 ,  128 ,   42 ,  235 ,  248 ,  255 ,  238 ,  255 ,   11 ,    0 ,   61 ,    0 ,   80 ,   31 ,   50 ,    5 ,  132 ,   36 ,  209 ,  219 ,    8 ,  128 ,    0 ,    0 ,    0 ,  128 ,    0 ,    0 ,    0 ,    0 ,    9 ,    9 ,    0 ,    0 ,    0 ,    0 ,    0 ,  151 ,   64 ,  209 ,  219 ,   40 ,    8 ,    0 ,   29 ,   81 ,  206 ,  138 ,  174 ,   10 ,  234 ,  252 
E: 000000.136336 64 01 83 80 81 7f 00 00 38 08 00 00 00 15 80 2a eb f8 ff ee ff 0b 00 3d 00 50 1f 32 05 84 24 d1 db 08 80 00 00 00 80 00 00 00 00 09 09 00 00 00 00 00 97 40 d1 db 28 08 00 1d 51 ce 8a ae 0a ea fc
# ReportID: 1 / X:  131 | Y:  128 | Z:  129 | Rz:  127 | Rx:    0 | Ry:    0 | 0xff000020:   57 | Hat switch:   8 | Button: 0  0  0  0  0  0  0  0  0  0  0  0  0  0  0 | 0xff000021: 0 , 0 , 0 , 0 , 0 , 0 , 0 , 0 , 0 , 0 , 0 , 0 , 0 | 0xff000022:   22 ,  128 ,   42 ,  235 ,  246 ,  255 ,  239 ,  255 ,   10 ,    0 ,   63 ,    0 ,   89 ,   31 ,   55 ,    5 ,  119 ,   83 ,  209 ,  219 ,    8 ,  128 ,    0 ,    0 ,    0 ,  128 ,    0 ,    0 ,    0 ,    0 ,    9 ,    9 ,    0 ,    0 ,    0 ,    0 ,    0 ,  119 ,  111 ,  209 ,  219 ,   40 ,    8 ,    0 ,  103 ,  253 ,  253 ,  171 ,  108 ,  234 ,  144 ,  182 
E: 000000.140160 64 01 83 80 81 7f 00 00 39 08 00 00 00 16 80 2a eb f6 ff ef ff 0a 00 3f 00 59 1f 37 05 77 53 d1 db 08 80 00 00 00 80 00 00 00 00 09 09 00 00 00 00 00 77 6f d1 db 28 08 00 67 fd fd ab 6c ea 90 b6
# ReportID: 1 / X:  131 | Y:  128 | Z:  129 | Rz:  127 | Rx:    0 | Ry:    0 | 0xff000020:   58 | Hat switch:   8 | Button: 0  0  0  0  0  0  0  0  0  0  0  0  0  0  0 | 0xff000021: 0 , 0 , 0 , 0 , 0 , 0 , 0 , 0 , 0 , 0 , 0 , 0 , 0 | 0xff000022:   23 ,  128 ,   42 ,  235 ,  246 ,  255 ,  240 ,  255 ,   11 ,    0 ,   59 ,    0 ,  109 ,   31 ,   55 ,    5 ,  106 ,  130 ,  209 ,  219 ,    8 ,  128 ,    0 ,    0 ,    0 ,  128 ,    0 ,    0 ,    0 ,    0 ,    9 ,    9 ,    0 ,    0 ,    0 ,    0 ,    0 ,   87 ,  158 ,  209 ,  219 ,   40 ,    8 ,    0 ,  207 ,  143 ,  150 ,  180 ,  170 ,  177 ,  133 ,   31 
E: 000000.144998 64 01 83 80 81 7f 00 00 3a 08 00 00 00 17 80 2a eb f6 ff f0 ff 0b 00 3b 00 6d 1f 37 05 6a 82 d1 db 08 80 00 00 00 80 00 00 00 00 09 09 00 00 00 00 00 57 9e d1 db 28 08 00 cf 8f 96 b4 aa b1 85 1f
# ReportID: 1 / X:  131 | Y:  128 | Z:  129 | Rz:  127 | Rx:    0 | Ry:    0 | 0xff000020:   59 | Hat switch:   8 | Button: 0  0  0  0  0  0  0  0  0  0  0  0  0  0  0 | 0xff000021: 0 , 0 , 0 , 0 , 0 , 0 , 0 , 0 , 0 , 0 , 0 , 0 , 0 | 0xff000022:   24 ,  128 ,   42 ,  235 ,  245 ,  255 ,  239 ,  255 ,   10 ,    0 ,   47 ,    0 ,   91 ,   31 ,   54 ,    5 ,   93 ,  177 ,  209 ,  219 ,    8 ,  128 ,    0 ,    0 ,    0 ,  128 ,    0 ,    0 ,    0 ,    0 ,    9 ,    9 ,    0 ,    0 ,    0 ,    0 ,    0 ,   55 ,  205 ,  209 ,  219 ,   40 ,    8 ,    0 ,   21 ,  112 ,   18 ,  221 ,  208 ,  106 ,  253 ,  239 
E: 000000.148853 64 01 83 80 81 7f 00 00 3b 08 00 00 00 18 80 2a eb f5 ff ef ff 0a 00 2f 00 5b 1f 36 05 5d b1 d1 db 08 80 00 00 00 80 00 00 00 00 09 09 00 00 00 00 00 37 cd d1 db 28 08 00 15 70 12 dd d0 6a fd ef
# ReportID: 1 / X:  131 | Y:  128 | Z:  129 | Rz:  127 | Rx:    0 | Ry:    0 | 0xff000020:   60 | Hat switch:   8 | Button: 0  0  0  0  0  0  0  0  0  0  0  0  0  0  0 | 0xff000021: 0 , 0 , 0 , 0 , 0 , 0 , 0 , 0 , 0 , 0 , 0 , 0 , 0 | 0xff000022:   25 ,  128 ,   42 ,  235 ,  245 ,  255 ,  238 ,  255 ,   10 ,    0 ,   49 ,    0 ,   72 ,   31 ,   47 ,    5 ,   80 ,  224 ,  209 ,  219 ,    8 ,  128 ,    0 ,    0 ,    0 ,  128 ,    0 ,    0 ,    0 ,    0 ,    9 ,    9 ,    0 ,    0 ,    0 ,    0 ,    0 ,   23 ,  252 ,  209 ,  219 ,   40 ,    8 ,    0 ,  114 ,   23 ,  153 ,   75 ,  142 ,   83 ,  218 ,   81 
E: 000000.152857 64 01 83 80 81 7f 00 00 3c 08 00 00 00 19 80 2a eb f5 ff ee ff 0a 00 31 00 48 1f 2f 05 50 e0 d1 db 08 80 00 00 00 80 00 00 00 00 09 09 00 00 00 00 00 17 fc d1 db 28 08 00 72 17 99 4b 8e 53 da 51
# ReportID: 1 / X:  131 | Y:  128 | Z:  130 | Rz:  127 | Rx:    0 | Ry:    0 | 0xff000020:   61 | Hat switch:   8 | Button: 0  0  0  0  0  0  0  0  0  0  0  0  0  0  0 | 0xff000021: 0 , 0 , 0 , 0 , 0 , 0 , 0 , 0 , 0 , 0 , 0 , 0 , 0 | 0xff000022:   26 ,  128 ,   42 ,  235 ,  247 ,  255 ,  239 ,  255 ,   11 ,    0 ,   46 ,    0 ,   77 ,   31 ,   47 ,    5 ,   67 ,   15 ,  210 ,  219 ,    8 ,  128 ,    0 ,    0 ,    0 ,  128 ,    0 ,    0 ,    0 ,    0 ,    9 ,    9 ,    0 ,    0 ,    0 ,    0 ,    0 ,  247 ,   42 ,  210 ,  219 ,   40 ,    8 ,    0 ,   17 ,  203 ,   41 ,  147 ,    8 ,   49 ,  136 ,  220 
E: 000000.157126 64 01 83 80 82 7f 00 00 3d 08 00 00 00 1a 80 2a eb f7 ff ef ff 0b 00 2e 00 4d 1f 2f 05 43 0f d2 db 08 80 00 00 00 80 00 00 00 00 09 09 00 00 00 00 00 f7 2a d2 db 28 08 00 11 cb 29 93 08 31 88 dc
# ReportID: 1 / X:  131 | Y:  128 | Z:  129 | Rz:  127 | Rx:    0 | Ry:    0 | 0xff000020:   62 | Hat switch:   8 | Button: 0  0  0  0  0  0  0  0  0  0  0  0  0  0  0 | 0xff000021: 0 , 0 , 0 , 0 , 0 , 0 , 0 , 0 , 0 , 0 , 0 , 0 , 0 | 0xff000022:   27 ,  128 ,   42 ,  235 ,  246 ,  255 ,  238 ,  255 ,   11 ,    0 ,   44 ,    0 ,   80 ,   31 ,   45 ,    5 ,   54 ,   62 ,  210 ,  219 ,    8 ,  128 ,    0 ,    0 ,    0 ,  128 ,    0 ,    0 ,    0 ,    0 ,    9 ,    9 ,    0 ,    0 ,    0 ,    0 ,    0 ,  215 ,   89 ,  210 ,  219 ,   40 ,    8 ,    0 ,   85 ,  199 ,   35 ,  217 ,  228 ,   90 ,  199 ,   32 
E: 000000.160087 64 01 83 80 81 7f 00 00 3e 08 00 00 00 1b 80 2a eb f6 ff ee ff 0b 00 2c 00 50 1f 2d 05 36 3e d2 db 08 80 00 00 00 80 00 00 00 00 09 09 00 00 00 00 00 d7 59 d2 db 28 08 00 55 c7 23 d9 e4 5a c7 20
# ReportID: 1 / X:  131 | Y:  128 | Z:  129 | Rz:  127 | Rx:    0 | Ry:    0 | 0xff000020:   63 | Hat switch:   8 | Button: 0  0  0  0  0  0  0  0  0  0  0  0  0  0  0 | 0xff000021: 0 , 0 , 0 , 0 , 0 , 0 , 0 , 0 , 0 , 0 , 0 , 0 , 0 | 0xff000022:   28 ,  128 ,   42 ,  235 ,  246 ,  255 ,  238 ,  255 ,   11 ,    0 ,   40 ,    0 ,   86 ,   31 ,   51 ,    5 ,   41 ,  109 ,  210 ,  219 ,    8 ,  128 ,    0 ,    0 ,    0 ,  128 ,    0 ,    0 ,    0 ,    0 ,    9 ,    9 ,    0 ,    0 ,    0 ,    0 ,    0 ,  183 ,  136 ,  210 ,  219 ,   40 ,    8 ,    0 ,  169 ,  199 ,  185 ,   77 ,   55 ,   52 ,  194 ,   44 
E: 000000.164551 64 01 83 80 81 7f 00 00 3f 08 00 00 00 1c 80 2a eb f6 ff ee ff 0b 00 28 00 56 1f 33 05 29 6d d2 db 08 80 00 00 00 80 00 00 00 00 09 09 00 00 00 00 00 b7 88 d2 db 28 08 00 a9 c7 b9 4d 37 34 c2 2c
# ReportID: 1 / X:  131 | Y:  128 | Z:  129 | Rz:  127 | Rx:    0 | Ry:    0 | 0xff000020:   64 | Hat switch:   8 | Button: 0  0  0  0  0  0  0  0  0  0  0  0  0  0  0 | 0xff000021: 0 , 0 , 0 , 0 , 0 , 0 , 0 , 0 , 0 , 0 , 0 , 0 , 0 | 0xff000022:   29 ,  128 ,   42 ,  235 ,  246 ,  255 ,  238 ,  255 ,   10 ,    0 ,   44 ,    0 ,   87 ,   31 ,   55 ,    5 ,   29 ,  156 ,  210 ,  219 ,    8 ,  128 ,    0 ,    0 ,    0 ,  128 ,    0 ,    0 ,    0 ,    0 ,    9 ,    9 ,    0 ,    0 ,    0 ,    0 ,    0 ,  151 ,  183 ,  210 ,  219 ,   40 ,    8 ,    0 ,  179 ,  150 ,   19 ,  141 ,   68 ,  239 ,    2 ,  217 
E: 000000.168787 64 01 83 80 81 7f 00 00 40 08 00 00 00 1d 80 2a eb f6 ff ee ff 0a 00 2c 00 57 1f 37 05 1d 9c d2 db 08 80 00 00 00 80 00 00 00 00 09 09 00 00 00 00 00 97 b7 d2 db 28 08 00 b3 96 13 8d 44 ef 02 d9
# ReportID: 1 / X:  131 | Y:  128 | Z:  130 | Rz:  127 | Rx:    0 | Ry:    0 | 0xff000020:   65 | Hat switch:   8 | Button: 0  0  0  0  0  0  0  0  0  0  0  0  0  0  0 | 0xff000021: 0 , 0 , 0 , 0 , 0 , 0 , 0 , 0 , 0 , 0 , 0 , 0 , 0 | 0xff000022:   30 ,  128 ,   42 ,  235 ,  245 ,  255 ,  238 ,  255 ,   11 ,    0 ,   44 ,    0 ,   87 ,   31 ,   48 ,    5 ,   16 ,  203 ,  210 ,  219 ,    8 ,  128 ,    0 ,    0 ,    0 ,  128 ,    0 ,    0 ,    0 ,    0 ,    9 ,    9 ,    0 ,    0 ,    0 ,    0 ,    0 ,  119 ,  230 ,  210 ,  219 ,   40 ,    8 ,    0 ,   55 ,  146 ,  142 ,   68 ,   15 ,  198 ,   11 ,  123 
E: 000000.172073 64 01 83 80 82 7f 00 00 41 08 00 00 00 1e 80 2a eb f5 ff ee ff 0b 00 2c 00 57 1f 30 05 10 cb d2 db 08 80 00 00 00 80 00 00 00 00 09 09 00 00 00 00 00 77 e6 d2 db 28 08 00 37 92 8e 44 0f c6 0b 7b
# ReportID: 1 / X:  131 | Y:  128 | Z:  129 | Rz:  127 | Rx:    0 | Ry:    0 | 0xff000020:   66 | Hat switch:   8 | Button: 0  0  0  0  0  0  0  0  0  0  0  0  0  0  0 | 0xff000021: 0 , 0 , 0 , 0 , 0 , 0 , 0 , 0 , 0 , 0 , 0 , 0 , 0 | 0xff000022:   31 ,  128 ,   42 ,  235 ,  244 ,  255 ,  238 ,  255 ,   10 ,    0 ,   39 ,    0 ,   65 ,   31 ,   52 ,    5 ,    3 ,  250 ,  210 ,  219 ,    8 ,  128 ,    0 ,    0 ,    0 ,  128 ,    0 ,    0 ,    0 ,    0 ,    9 ,    9 ,    0 ,    0 ,    0 ,    0 ,    0 ,   87 ,   21 ,  211 ,  219 ,   40 ,    8 ,    0 ,   55 ,  198 ,  221 ,   20 ,  255 ,   54 ,    7 ,   15 
E: 000000.177036 64 01 83 80 81 7f 00 00 42 08 00 00 00 1f 80 2a eb f4 ff ee ff 0a 00 27 00 41 1f 34 05 03 fa d2 db 08 80 00 00 00 80 00 00 00 00 09 09 00 00 00 00 00 57 15 d3 db 28 08 00 37 c6 dd 14 ff 36 07 0f
# ReportID: 1 / X:  131 | Y:  128 | Z:  129 | Rz:  127 | Rx:    0 | Ry:    0 | 0xff000020:   67 | Hat switch:   8 | Button: 0  0  0  0  0  0  0  0  0  0  0  0  0  0  0 | 0xff000021: 0 , 0 , 0 , 0 , 0 , 0 , 0 , 0 , 0 , 0 , 0 , 0 , 0 | 0xff000022:   32 ,  128 ,   42 ,  235 ,  246 ,  255 ,  238 ,  255 ,   11 ,    0 ,   48 ,    0 ,   78 ,   31 ,   53 ,    5 ,  246 ,   40 ,  211 ,  219 ,    8 ,  128 ,    0 ,    0 ,    0 ,  128 ,    0 ,    0 ,    0 ,    0 ,    9 ,    9 ,    0 ,    0 ,    0 ,    0 ,    0 ,   55 ,   68 ,  211 ,  219 ,   40 ,    8 ,    0 ,  188 ,   21 ,  138 ,  242 ,  190 ,   51 ,   19 ,  193 
E: 000000.180987 64 01 83 80 81 7f 00 00 43 08 00 00 00 20 80 2a eb f6 ff ee ff 0b 00 30 00 4e 1f 35 05 f6 28 d3 db 08 80 00 00 00 80 00 00 00 00 09 09 00 00 00 00 00 37 44 d3 db 28 08 00 bc 15 8a f2 be 33 13 c1
# ReportID: 1 / X:  131 | Y:  128 | Z:  129 | Rz:  127 | Rx:    0 | Ry:    0 | 0xff000020:   68 | Hat switch:   8 | Button: 0  0  0  0  0  0  0  0  0  0  0  0  0  0  0 | 0xff000021: 0 , 0 , 0 , 0 , 0 , 0 , 0 , 0 , 0 , 0 , 0 , 0 , 0 | 0xff000022:   33 ,  128 ,   42 ,  235 ,  246 ,  255 ,  239 ,  255 ,   11 ,    0 ,   47 ,    0 ,   82 ,   31 ,   61 ,    5 ,  233 ,   87 ,  211 ,  219 ,    8 ,  128 ,    0 ,    0 ,    0 ,  128 ,    0 ,    0 ,    0 ,    0 ,    9 ,    9 ,    0 ,    0 ,    0 ,    0 ,    0 ,   23 ,  115 ,  211 ,  219 ,   40 ,    8 ,    0 ,   90 ,  235 ,  101 ,   26 ,    9 ,  138 ,   24 ,  105 
E: 000000.184102 64 01 83 80 81 7f 00 00 44 08 00 00 00 21 80 2a eb f6 ff ef ff 0b 00 2f 00 52 1f 3d 05 e9 57 d3 db 08 80 00 00 00 80 00 00 00 00 09 09 00 00 00 00 00 17 73 d3 db 28 08 00 5a eb 65 1a 09 8a 18 69
# ReportID: 1 / X:  131 | Y:  128 | Z:  129 | Rz:  127 | Rx:    0 | Ry:    0 | 0xff000020:   69 | Hat switch:   8 | Button: 0  0  0  0  0  0  0  0  0  0  0  0  0  0  0 | 0xff000021: 0 , 0 , 0 , 0 , 0 , 0 , 0 , 0 , 0 , 0 , 0 , 0 , 0 | 0xff000022:   34 ,  128 ,   42 ,  235 ,  247 ,  255 ,  238 ,  255 ,   11 ,    0 ,   47 ,    0 ,   82 ,   31 ,   61 ,    5 ,  220 ,  134 ,  211 ,  219 ,    8 ,  128 ,    0 ,    0 ,    0 ,  128 ,    0 ,    0 ,    0 ,    0 ,    9 ,    9 ,    0 ,    0 ,    0 ,    0 ,    0 ,  247 ,  161 ,  211 ,  219 ,   40 ,    8 ,    0 ,    2 ,  130 ,  148 ,   35 ,   68 ,  239 ,  140 ,  148 
E: 000000.189873 64 01 83 80 81 7f 00 00 45 08 00 00 00 22 80 2a eb f7 ff ee ff 0b 00 2f 00 52 1f 3d 05 dc 86 d3 db 08 80 00 00 00 80 00 00 00 00 09 09 00 00 00 00 00 f7 a1 d3 db 28 08 00 02 82 94 23 44 ef 8c 94
# ReportID: 1 / X:  131 | Y:  128 | Z:  130 | Rz:  127 | Rx:    0 | Ry:    0 | 0xff000020:   70 | Hat switch:   8 | Button: 0  0  0  0  0  0  0  0  0  0  0  0  0  0  0 | 0xff000021: 0 , 0 , 0 , 0 , 0 , 0 , 0 , 0 , 0 , 0 , 0 , 0 , 0 | 0xff000022:   35 ,  128 ,   42 ,  235 ,  246 ,  255 ,  238 ,  255 ,    9 ,    0 ,   54 ,    0 ,   90 ,   31 ,   54 ,    5 ,  207 ,  181 ,  211 ,  219 ,    8 ,  128 ,    0 ,    0 ,    0 ,  128 ,    0 ,    0 ,    0 ,    0 ,    9 ,    9 ,    0 ,    0 ,    0 ,    0 ,    0 ,  215 ,  208 ,  211 ,  219 ,   40 ,    8 ,    0 ,   69 ,  143 ,  178 ,    1 ,  244 ,  231 ,  201 ,  250 
E: 000000.192869 64 01 83 80 82 7f 00 00 46 08 00 00 00 23 80 2a eb f6 ff ee ff 09 00 36 00 5a 1f 36 05 cf b5 d3 db 08 80 00 00 00 80 00 00 00 00 09 09 00 00 00 00 00 d7 d0 d3 db 28 08 00 45 8f b2 01 f4 e7 c9 fa
# ReportID: 1 / X:  131 | Y:  128 | Z:  129 | Rz:  127 | Rx:    0 | Ry:    0 | 0xff000020:   71 | Hat switch:   8 | Button: 0  0  0  0  0  0  0  0  0  0  0  0  0  0  0 | 0xff000021: 0 , 0 , 0 , 0 , 0 , 0 , 0 , 0 , 0 , 0 , 0 , 0 , 0 | 0xff000022:   36 ,  128 ,   42 ,  235 ,  246 ,  255 ,  238 ,  255 ,   10 ,    0 ,   53 ,    0 ,   76 ,   31 ,   56 ,    5 ,  194 ,  228 ,  211 ,  219 ,    8 ,  128 ,    0 ,    0 ,    0 ,  128 ,    0 ,    0 ,    0 ,    0 ,    9 ,    9 ,    0 ,    0 ,    0 ,    0 ,    0 ,  183 ,  255 ,  211 ,  219 ,   40 ,    8 ,    0 ,  150 ,  116 ,  147 ,   85 ,  192 ,   87 ,  158 ,   22 
E: 000000.196823 64 01 83 80 81 7f 00 00 47 08 00 00 00 24 80 2a eb f6 ff ee ff 0a 00 35 00 4c 1f 38 05 c2 e4 d3 db 08 80 00 00 00 80 00 00 00 00 09 09 00 00 00 00 00 b7 ff d3 db 28 08 00 96 74 93 55 c0 57 9e 16
# ReportID: 1 / X:  131 | Y:  128 | Z:  129 | Rz:  127 | Rx:    0 | Ry:    0 | 0xff000020:   72 | Hat switch:   8 | Button: 0  0  0  0  0  0  0  0  0  0  0  0  0  0  0 | 0xff000021: 0 , 0 , 0 , 0 , 0 , 0 , 0 , 0 , 0 , 0 , 0 , 0 , 0 | 0xff000022:   37 ,  128 ,   42 ,  235 ,  247 ,  255 ,  236 ,  255 ,   11 ,    0 ,   58 ,    0 ,   73 ,   31 ,   69 ,    5 ,  182 ,   19 ,  212 ,  219 ,    8 ,  128 ,    0 ,    0 ,    0 ,  128 ,    0 ,    0 ,    0 ,    0 ,    9 ,    9 ,    0 ,    0 ,    0 ,    0 ,    0 ,  151 ,   46 ,  212 ,  219 ,   40 ,    8 ,    0 ,  149 ,   29 ,  129 ,  205 ,   95 ,  254 ,  165 ,   26 
E: 000000.200846 64 01 83 80 81 7f 00 00 48 08 00 00 00 25 80 2a eb f7 ff ec ff 0b 00 3a 00 49 1f 45 05 b6 13 d4 db 08 80 00 00 00 80 00 00 00 00 09 09 00 00 00 00 00 97 2e d4 db 28 08 00 95 1d 81 cd 5f fe a5 1a
# ReportID: 1 / X:  131 | Y:  128 | Z:  129 | Rz:  127 | Rx:    0 | Ry:    0 | 0xff000020:   73 | Hat switch:   8 | Button: 0  0  0  0  0  0  0  0  0  0  0  0  0  0  0 | 0xff000021: 0 , 0 , 0 , 0 , 0 , 0 , 0 , 0 , 0 , 0 , 0 , 0 , 0 | 0xff000022:   38 ,  128 ,   42 ,  235 ,  246 ,  255 ,  237 ,  255 ,   11 ,    0 ,   59 ,    0 ,   75 ,   31 ,   64 ,    5 ,  169 ,   66 ,  212 ,  219 ,    8 ,  128 ,    0 ,    0 ,    0 ,  128 ,    0 ,    0 ,    0 ,    0 ,    9 ,    9 ,    0 ,    0 ,    0 ,    0 ,    0 ,  119 ,   93 ,  212 ,  219 ,   40 ,    8 ,    0 ,   93 ,   93 ,   91 ,  185 ,  222 ,   57 ,   79 ,  101 
E: 000000.204407 64 01 83 80 81 7f 00 00 49 08 00 00 00 26 80 2a eb f6 ff ed ff 0b 00 3b 00 4b 1f 40 05 a9 42 d4 db 08 80 00 00 00 80 00 00 00 00 09 09 00 00 00 00 00 77 5d d4 db 28 08 00 5d 5d 5b b9 de 39 4f 65
# ReportID: 1 / X:  131 | Y:  128 | Z:  130 | Rz:  127 | Rx:    0 | Ry:    0 | 0xff000020:   74 | Hat switch:   8 | Button: 0  0  0  0  0  0  0  0  0  0  0  0  0  0  0 | 0xff000021: 0 , 0 , 0 , 0 , 0 , 0 , 0 , 0 , 0 , 0 , 0 , 0 , 0 | 0xff000022:   39 ,  128 ,   42 ,  235 ,  247 ,  255 ,  238 ,  255 ,   10 ,    0 ,   54 ,    0 ,   82 ,   31 ,   65 ,    5 ,  156 ,  113 ,  212 ,  219 ,    8 ,  128 ,    0 ,    0 ,    0 ,  128 ,    0 ,    0 ,    0 ,    0 ,    9 ,    9 ,    0 ,    0 ,    0 ,    0 ,    0 ,   87 ,  140 ,  212 ,  219 ,   40 ,    8 ,    0 ,  182 ,    6 ,  173 ,   57 ,  229 ,  162 ,  106 ,   88 
E: 000000.208407 64 01 83 80 82 7f 00 00 4a 08 00 00 00 27 80 2a eb f7 ff ee ff 0a 00 36 00 52 1f 41 05 9c 71 d4 db 08 80 00 00 00 80 00 00 00 00 09 09 00 00 00 00 00 57 8c d4 db 28 08 00 b6 06 ad 39 e5 a2 6a 58
# ReportID: 1 / X:  131 | Y:  128 | Z:  129 | Rz:  127 | Rx:    0 | Ry:    0 | 0xff000020:   75 | Hat switch:   8 | Button: 0  0  0  0  0  0  0  0  0  0  0  0  0  0  0 | 0xff000021: 0 , 0 , 0 , 0 , 0 , 0 , 0 , 0 , 0 , 0 , 0 , 0 , 0 | 0xff000022:   40 ,  128 ,   42 ,  235 ,  246 ,  255 ,  238 ,  255 ,   11 ,    0 ,   65 ,    0 ,   75 ,   31 ,   67 ,    5 ,  143 ,  160 ,  212 ,  219 ,    8 ,  128 ,    0 ,    0 ,    0 ,  128 ,    0 ,    0 ,    0 ,    0 ,    9 ,    9 ,    0 ,    0 ,    0 ,    0 ,    0 ,   55 ,  187 ,  212 ,  219 ,   40 ,    8 ,    0 ,   79 ,  143 ,  154 ,  194 ,  252 ,  206 ,   92 ,   24 
E: 000000.213043 64 01 83 80 81 7f 00 00 4b 08 00 00 00 28 80 2a eb f6 ff ee ff 0b 00 41 00 4b 1f 43 05 8f a0 d4 db 08 80 00 00 00 80 00 00 00 00 09 09 00 00 00 00 00 37 bb d4 db 28 08 00 4f 8f 9a c2 fc ce 5c 18
# ReportID: 1 / X:  131 | Y:  128 | Z:  129 | Rz:  127 | Rx:    0 | Ry:    0 | 0xff000020:   76 | Hat switch:   8 | Button: 0  0  0  0  0  0  0  0  0  0  0  0  0  0  0 | 0xff000021: 0 , 0 , 0 , 0 , 0 , 0 , 0 , 0 , 0 , 0 , 0 , 0 , 0 | 0xff000022:   41 ,  128 ,   42 ,  235 ,  246 ,  255 ,  239 ,  255 ,   10 ,    0 ,   64 ,    0 ,   84 ,   31 ,   70 ,    5 ,  130 ,  207 ,  212 ,  219 ,    8 ,  128 ,    0 ,    0 ,    0 ,  128 ,    0 ,    0 ,    0 ,    0 ,    9 ,    9 ,    0 ,    0 ,    0 ,    0 ,    0 ,   23 ,  234 ,  212 ,  219 ,   40 ,    8 ,    0 ,  153 ,   99 ,  178 ,  145 ,   51 ,   50 ,  151 ,  254 
E: 000000.216109 64 01 83 80 81 7f 00 00 4c 08 00 00 00 29 80 2a eb f6 ff ef ff 0a 00 40 00 54 1f 46 05 82 cf d4 db 08 80 00 00 00 80 00 00 00 00 09 09 00 00 00 00 00 17 ea d4 db 28 08 00 99 63 b2 91 33 32 97 fe
# ReportID: 1 / X:  131 | Y:  128 | Z:  129 | Rz:  127 | Rx:    0 | Ry:    0 | 0xff000020:   77 | Hat switch:   8 | Button: 0  0  0  0  0  0  0  0  0  0  0  0  0  0  0 | 0xff000021: 0 , 0 , 0 , 0 , 0 , 0 , 0 , 0 , 0 , 0 , 0 , 0 , 0 | 0xff000022:   42 ,  128 ,   42 ,  235 ,  247 ,  255 ,  238 ,  255 ,   11 ,    0 ,   70 ,    0 ,   78 ,   31 ,   66 ,    5 ,  117 ,  254 ,  212 ,  219 ,    8 ,  128 ,    0 ,    0 ,    0 ,  128 ,    0 ,    0 ,    0 ,    0 ,    9 ,    9 ,    0 ,    0 ,    0 ,    0 ,    0 ,  247 ,   24 ,  213 ,  219 ,   40 ,    8 ,    0 ,   38 ,  211 ,  183 ,    7 ,  195 ,  151 ,   76 ,  180 
E: 000000.221845 64 01 83 80 81 7f 00 00 4d 08 00 00 00 2a 80 2a eb f7 ff ee ff 0b 00 46 00 4e 1f 42 05 75 fe d4 db 08 80 00 00 00 80 00 00 00 00 09 09 00 00 00 00 00 f7 18 d5 db 28 08 00 26 d3 b7 07 c3 97 4c b4
# ReportID: 1 / X:  131 | Y:  128 | Z:  129 | Rz:  127 | Rx:    0 | Ry:    0 | 0xff000020:   78 | Hat switch:   8 | Button: 0  0  0  0  0  0  0  0  0  0  0  0  0  0  0 | 0xff000021: 0 , 0 , 0 , 0 , 0 , 0 , 0 , 0 , 0 , 0 , 0 , 0 , 0 | 0xff000022:   43 ,  128 ,   42 ,  235 ,  246 ,  255 ,  239 ,  255 ,   10 ,    0 ,   58 ,    0 ,   72 ,   31 ,   64 ,    5 ,  104 ,   45 ,  213 ,  219 ,    8 ,  128 ,    0 ,    0 ,    0 ,  128 ,    0 ,    0 ,    0 ,    0 ,    9 ,    9 ,    0 ,    0 ,    0 ,    0 ,    0 ,  215 ,   71 ,  213 ,  219 ,   40 ,    8 ,    0 ,   85 ,   88 ,   67 ,  209 ,  251 ,   34 ,   59 ,  103 
E: 000000.224021 64 01 83 80 81 7f 00 00 4e 08 00 00 00 2b 80 2a eb f6 ff ef ff 0a 00 3a 00 48 1f 40 05 68 2d d5 db 08 80 00 00 00 80 00 00 00 00 09 09 00 00 00 00 00 d7 47 d5 db 28 08 00 55 58 43 d1 fb 22 3b 67
# ReportID: 1 / X:  131 | Y:  128 | Z:  129 | Rz:  127 | Rx:    0 | Ry:    0 | 0xff000020:   79 | Hat switch:   8 | Button: 0  0  0  0  0  0  0  0  0  0  0  0  0  0  0 | 0xff000021: 0 , 0 , 0 , 0 , 0 , 0 , 0 , 0 , 0 , 0 , 0 , 0 , 0 | 0xff000022:   44 ,  128 ,   42 ,  235 ,  248 ,  255 ,  239 ,  255 ,   11 ,    0 ,   58 ,    0 ,   66 ,   31 ,   71 ,    5 ,   91 ,   92 ,  213 ,  219 ,    8 ,  128 ,    0 ,    0 ,    0 ,  128 ,    0 ,    0 ,    0 ,    0 ,    9 ,    9 ,    0 ,    0 ,    0 ,    0 ,    0 ,  183 ,  118 ,  213 ,  219 ,   40 ,    8 ,    0 ,  163 ,   71 ,  188 ,   42 ,   65 ,  194 ,  167 ,   30 
E: 000000.229031 64 01 83 80 81 7f 00 00 4f 08 00 00 00 2c 80 2a eb f8 ff ef ff 0b 00 3a 00 42 1f 47 05 5b 5c d5 db 08 80 00 00 00 80 00 00 00 00 09 09 00 00 00 00 00 b7 76 d5 db 28 08 00 a3 47 bc 2a 41 c2 a7 1e
# ReportID: 1 / X:  131 | Y:  128 | Z:  129 | Rz:  127 | Rx:    0 | Ry:    0 | 0xff000020:   80 | Hat switch:   8 | Button: 0  0  0  0  0  0  0  0  0  0  0  0  0  0  0 | 0xff000021: 0 , 0 , 0 , 0 , 0 , 0 , 0 , 0 , 0 , 0 , 0 , 0 , 0 | 0xff000022:   45 ,  128 ,   42 ,  235 ,  247 ,  255 ,  238 ,  255 ,   10 ,    0 ,   57 ,    0 ,   85 ,   31 ,   62 ,    5 ,   79 ,  139 ,  213 ,  219 ,    8 ,  128 ,    0 ,    0 ,    0 ,  128 ,    0 ,    0 ,    0 ,    0 ,    9 ,    9 ,    0 ,    0 ,    0 ,    0 ,    0 ,  151 ,  165 ,  213 ,  219 ,   40 ,    8 ,    0 ,   75 ,   79 ,   88 ,  116 ,  145 ,  214 ,   48 ,   40 
E: 000000.232094 64 01 83 80 81 7f 00 00 50 08 00 00 00 2d 80 2a eb f7 ff ee ff 0a 00 39 00 55 1f 3e 05 4f 8b d5 db 08 80 00 00 00 80 00 00 00 00 09 09 00 00 00 00 00 97 a5 d5 db 28 08 00 4b 4f 58 74 91 d6 30 28
# ReportID: 1 / X:  131 | Y:  128 | Z:  129 | Rz:  127 | Rx:    0 | Ry:    0 | 0xff000020:   81 | Hat switch:   8 | Button: 0  0  0  0  0  0  0  0  0  0  0  0  0  0  0 | 0xff000021: 0 , 0 , 0 , 0 , 0 , 0 , 0 , 0 , 0 , 0 , 0 , 0 , 0 | 0xff000022:   46 ,  128 ,   42 ,  235 ,  247 ,  255 ,  238 ,  255 ,   11 ,    0 ,   48 ,    0 ,   79 ,   31 ,   60 ,    5 ,   66 ,  186 ,  213 ,  219 ,    8 ,  128 ,    0 ,    0 ,    0 ,  128 ,    0 ,    0 ,    0 ,    0 ,    9 ,    9 ,    0 ,    0 ,    0 ,    0 ,    0 ,  119 ,  212 ,  213 ,  219 ,   40 ,    8 ,    0 ,  102 ,  227 ,   36 ,  139 ,  242 ,  103 ,   10 ,  210 
E: 000000.236211 64 01 83 80 81 7f 00 00 51 08 00 00 00 2e 80 2a eb f7 ff ee ff 0b 00 30 00 4f 1f 3c 05 42 ba d5 db 08 80 00 00 00 80 00 00 00 00 09 09 00 00 00 00 00 77 d4 d5 db 28 08 00 66 e3 24 8b f2 67 0a d2
# ReportID: 1 / X:  131 | Y:  128 | Z:  130 | Rz:  127 | Rx:    0 | Ry:    0 | 0xff000020:   82 | Hat switch:   8 | Button: 0  0  0  0  0  0  0  0  0  0  0  0  0  0  0 | 0xff000021: 0 , 0 , 0 , 0 , 0 , 0 , 0 , 0 , 0 , 0 , 0 , 0 , 0 | 0xff000022:   47 ,  128 ,   42 ,  235 ,  248 ,  255 ,  238 ,  255 ,   11 ,    0 ,   51 ,    0 ,   78 ,   31 ,   58 ,    5 ,   53 ,  233 ,  213 ,  219 ,    8 ,  128 ,    0 ,    0 ,    0 ,  128 ,    0 ,    0 ,    0 ,    0 ,    9 ,    9 ,    0 ,    0 ,    0 ,    0 ,    0 ,   87 ,    3 ,  214 ,  219 ,   40 ,    8 ,    0 ,   15 ,  231 ,    8 ,  176 ,   55 ,  212 ,  102 ,    9 
E: 000000.240308 64 01 83 80 82 7f 00 00 52 08 00 00 00 2f 80 2a eb f8 ff ee ff 0b 00 33 00 4e 1f 3a 05 35 e9 d5 db 08 80 00 00 00 80 00 00 00 00 09 09 00 00 00 00 00 57 03 d6 db 28 08 00 0f e7 08 b0 37 d4 66 09
# ReportID: 1 / X:  131 | Y:  128 | Z:  129 | Rz:  127 | Rx:    0 | Ry:    0 | 0xff000020:   83 | Hat switch:   8 | Button: 0  0  0  0  0  0  0  0  0  0  0  0  0  0  0 | 0xff000021: 0 , 0 , 0 , 0 , 0 , 0 , 0 , 0 , 0 , 0 , 0 , 0 , 0 | 0xff000022:   48 ,  128 ,   42 ,  235 ,  247 ,  255 ,  238 ,  255 ,   11 ,    0 ,   46 ,    0 ,   88 ,   31 ,   58 ,    5 ,   40 ,   24 ,  214 ,  219 ,    8 ,  128 ,    0 ,    0 ,    0 ,  128 ,    0 ,    0 ,    0 ,    0 ,    9 ,    9 ,    0 ,    0 ,    0 ,    0 ,    0 ,   55 ,   50 ,  214 ,  219 ,   40 ,    8 ,    0 ,  139 ,   47 ,  220 ,   54 ,   42 ,  133 ,  249 ,  100 
E: 000000.244238 64 01 83 80 81 7f 00 00 53 08 00 00 00 30 80 2a eb f7 ff ee ff 0b 00 2e 00 58 1f 3a 05 28 18 d6 db 08 80 00 00 00 80 00 00 00 00 09 09 00 00 00 00 00 37 32 d6 db 28 08 00 8b 2f dc 36 2a 85 f9 64
# ReportID: 1 / X:  131 | Y:  128 | Z:  129 | Rz:  127 | Rx:    0 | Ry:    0 | 0xff000020:   84 | Hat switch:   8 | Button: 0  0  0  0  0  0  0  0  0  0  0  0  0  0  0 | 0xff000021: 0 , 0 , 0 , 0 , 0 , 0 , 0 , 0 , 0 , 0 , 0 , 0 , 0 | 0xff000022:   49 ,  128 ,   42 ,  235 ,  247 ,  255 ,  238 ,  255 ,   10 ,    0 ,   47 ,    0 ,   90 ,   31 ,   55 ,    5 ,   27 ,   71 ,  214 ,  219 ,    8 ,  128 ,    0 ,    0 ,    0 ,  128 ,    0 ,    0 ,    0 ,    0 ,    9 ,    9 ,    0 ,    0 ,    0 ,    0 ,    0 ,   23 ,   97 ,  214 ,  219 ,   40 ,    8 ,    0 ,   24 ,   59 ,  213 ,  116 ,  109 ,   62 ,  140 ,  144 
E: 000000.249481 64 01 83 80 81 7f 00 00 54 08 00 00 00 31 80 2a eb f7 ff ee ff 0a 00 2f 00 5a 1f 37 05 1b 47 d6 db 08 80 00 00 00 80 00 00 00 00 09 09 00 00 00 00 00 17 61 d6 db 28 08 00 18 3b d5 74 6d 3e 8c 90
# ReportID: 1 / X:  131 | Y:  128 | Z:  129 | Rz:  127 | Rx:    0 | Ry:    0 | 0xff000020:   85 | Hat switch:   8 | Button: 0  0  0  0  0  0  0  0  0  0  0  0  0  0  0 | 0xff000021: 0 , 0 , 0 , 0 , 0 , 0 , 0 , 0 , 0 , 0 , 0 , 0 , 0 | 0xff000022:   50 ,  128 ,   42 ,  235 ,  248 ,  255 ,  239 ,  255 ,   10 ,    0 ,   44 ,    0 ,   90 ,   31 ,   58 ,    5 ,   14 ,  118 ,  214 ,  219 ,    8 ,  128 ,    0 ,    0 ,    0 ,  128 ,    0 ,    0 ,    0 ,    0 ,    9 ,    9 ,    0 ,    0 ,    0 ,    0 ,    0 ,  247 ,  143 ,  214 ,  219 ,   40 ,    8 ,    0 ,   15 ,    1 ,   59 ,  146 ,  163 ,   16 ,   88 ,  253 
E: 000000.252455 64 01 83 80 81 7f 00 00 55 08 00 00 00 32 80 2a eb f8 ff ef ff 0a 00 2c 00 5a 1f 3a 05 0e 76 d6 db 08 80 00 00 00 80 00 00 00 00 09 09 00 00 00 00 00 f7 8f d6 db 28 08 00 0f 01 3b 92 a3 10 58 fd
# ReportID: 1 / X:  131 | Y:  128 | Z:  129 | Rz:  127 | Rx:    0 | Ry:    0 | 0xff000020:   86 | Hat switch:   8 | Button: 0  0  0  0  0  0  0  0  0  0  0  0  0  0  0 | 0xff000021: 0 , 0 , 0 , 0 , 0 , 0 , 0 , 0 , 0 , 0 , 0 , 0 , 0 | 0xff000022:   51 ,  128 ,   42 ,  235 ,  247 ,  255 ,  239 ,  255 ,   11 ,    0 ,   42 ,    0 ,  101 ,   31 ,   41 ,    5 ,    1 ,  165 ,  214 ,  219 ,    8 ,  128 ,    0 ,    0 ,    0 ,  128 ,    0 ,    0 ,    0 ,    0 ,    9 ,    9 ,    0 ,    0 ,    0 ,    0 ,    0 ,  215 ,  190 ,  214 ,  219 ,   40 ,    8 ,    0 ,  200 ,  210 ,  121 ,   61 ,   93 ,  209 ,   51 ,   32 
E: 000000.257033 64 01 83 80 81 7f 00 00 56 08 00 00 00 33 80 2a eb f7 ff ef ff 0b 00 2a 00 65 1f 29 05 01 a5 d6 db 08 80 00 00 00 80 00 00 00 00 09 09 00 00 00 00 00 d7 be d6 db 28 08 00 c8 d2 79 3d 5d d1 33 20
# ReportID: 1 / X:  131 | Y:  128 | Z:  129 | Rz:  127 | Rx:    0 | Ry:    0 | 0xff000020:   87 | Hat switch:   8 | Button: 0  0  0  0  0  0  0  0  0  0  0  0  0  0  0 | 0xff000021: 0 , 0 , 0 , 0 , 0 , 0 , 0 , 0 , 0 , 0 , 0 , 0 , 0 | 0xff000022:   52 ,  128 ,   42 ,  235 ,  246 ,  255 ,  239 ,  255 ,   11 ,    0 ,   33 ,    0 ,   88 ,   31 ,   36 ,    5 ,  244 ,  211 ,  214 ,  219 ,    8 ,  128 ,    0 ,    0 ,    0 ,  128 ,    0 ,    0 ,    0 ,    0 ,    9 ,    9 ,    0 ,    0 ,    0 ,    0 ,    0 ,  183 ,  237 ,  214 ,  219 ,   40 ,    8 ,    0 ,  195 ,   79 ,    1 ,  210 ,  166 ,   16 ,   71 ,   81 
E: 000000.260891 64 01 83 80 81 7f 00 00 57 08 00 00 00 34 80 2a eb f6 ff ef ff 0b 00 21 00 58 1f 24 05 f4 d3 d6 db 08 80 00 00 00 80 00 00 00 00 09 09 00 00 00 00 00 b7 ed d6 db 28 08 00 c3 4f 01 d2 a6 10 47 51
# ReportID: 1 / X:  131 | Y:  128 | Z:  129 | Rz:  127 | Rx:    0 | Ry:    0 | 0xff000020:   88 | Hat switch:   8 | Button: 0  0  0  0  0  0  0  0  0  0  0  0  0  0  0 | 0xff000021: 0 , 0 , 0 , 0 , 0 , 0 , 0 , 0 , 0 , 0 , 0 , 0 , 0 | 0xff000022:   53 ,  128 ,   42 ,  235 ,  246 ,  255 ,  239 ,  255 ,   10 ,    0 ,   36 ,    0 ,   87 ,   31 ,   42 ,    5 ,  232 ,    2 ,  215 ,  219 ,    8 ,  128 ,    0 ,    0 ,    0 ,  128 ,    0 ,    0 ,    0 ,    0 ,    9 ,    9 ,    0 ,    0 ,    0 ,    0 ,    0 ,  151 ,   28 ,  215 ,  219 ,   40 ,    8 ,    0 ,  228 ,  223 ,  169 ,   39 ,  135 ,  139 ,  222 ,   80 
E: 000000.264329 64 01 83 80 81 7f 00 00 58 08 00 00 00 35 80 2a eb f6 ff ef ff 0a 00 24 00 57 1f 2a 05 e8 02 d7 db 08 80 00 00 00 80 00 00 00 00 09 09 00 00 00 00 00 97 1c d7 db 28 08 00 e4 df a9 27 87 8b de 50
# ReportID: 1 / X:  131 | Y:  128 | Z:  129 | Rz:  127 | Rx:    0 | Ry:    0 | 0xff000020:   89 | Hat switch:   8 | Button: 0  0  0  0  0  0  0  0  0  0  0  0  0  0  0 | 0xff000021: 0 , 0 , 0 , 0 , 0 , 0 , 0 , 0 , 0 , 0 , 0 , 0 , 0 | 0xff000022:   54 ,  128 ,   42 ,  235 ,  248 ,  255 ,  238 ,  255 ,   11 ,    0 ,   37 ,    0 ,   85 ,   31 ,   41 ,    5 ,  219 ,   49 ,  215 ,  219 ,    8 ,  128 ,    0 ,    0 ,    0 ,  128 ,    0 ,    0 ,    0 ,    0 ,    9 ,    9 ,    0 ,    0 ,    0 ,    0 ,    0 ,  119 ,   75 ,  215 ,  219 ,   40 ,    8 ,    0 ,  202 ,   99 ,   49 ,  169 ,  184 ,    2 ,   54 ,  138 
E: 000000.268160 64 01 83 80 81 7f 00 00 59 08 00 00 00 36 80 2a eb f8 ff ee ff 0b 00 25 00 55 1f 29 05 db 31 d7 db 08 80 00 00 00 80 00 00 00 00 09 09 00 00 00 00 00 77 4b d7 db 28 08 00 ca 63 31 a9 b8 02 36 8a
# ReportID: 1 / X:  131 | Y:  128 | Z:  130 | Rz:  127 | Rx:    0 | Ry:    0 | 0xff000020:   90 | Hat switch:   8 | Button: 0  0  0  0  0  0  0  0  0  0  0  0  0  0  0 | 0xff000021: 0 , 0 , 0 , 0 , 0 , 0 , 0 , 0 , 0 , 0 , 0 , 0 , 0 | 0xff000022:   55 ,  128 ,   42 ,  235 ,  247 ,  255 ,  239 ,  255 ,   11 ,    0 ,   38 ,    0 ,   85 ,   31 ,   42 ,    5 ,  206 ,   96 ,  215 ,  219 ,    8 ,  128 ,    0 ,    0 ,    0 ,  128 ,    0 ,    0 ,    0 ,    0 ,    9 ,    9 ,    0 ,    0 ,    0 ,    0 ,    0 ,   87 ,  122 ,  215 ,  219 ,   40 ,    8 ,    0 ,   29 ,   63 ,   41 ,  161 ,  159 ,  115 ,  160 ,    2 
E: 000000.272104 64 01 83 80 82 7f 00 00 5a 08 00 00 00 37 80 2a eb f7 ff ef ff 0b 00 26 00 55 1f 2a 05 ce 60 d7 db 08 80 00 00 00 80 00 00 00 00 09 09 00 00 00 00 00 57 7a d7 db 28 08 00 1d 3f 29 a1 9f 73 a0 02
# ReportID: 1 / X:  131 | Y:  128 | Z:  130 | Rz:  127 | Rx:    0 | Ry:    0 | 0xff000020:   91 | Hat switch:   8 | Button: 0  0  0  0  0  0  0  0  0  0  0  0  0  0  0 | 0xff000021: 0 , 0 , 0 , 0 , 0 , 0 , 0 , 0 , 0 , 0 , 0 , 0 , 0 | 0xff000022:   56 ,  128 ,   42 ,  235 ,  246 ,  255 ,  239 ,  255 ,   11 ,    0 ,   37 ,    0 ,   91 ,   31 ,   40 ,    5 ,  193 ,  143 ,  215 ,  219 ,    8 ,  128 ,    0 ,    0 ,    0 ,  128 ,    0 ,    0 ,    0 ,    0 ,    9 ,    9 ,    0 ,    0 ,    0 ,    0 ,    0 ,   55 ,  169 ,  215 ,  219 ,   40 ,    8 ,    0 ,  118 ,  206 ,    8 ,  190 ,   29 ,  161 ,  252 ,  160 
E: 000000.276170 64 01 83 80 82 7f 00 00 5b 08 00 00 00 38 80 2a eb f6 ff ef ff 0b 00 25 00 5b 1f 28 05 c1 8f d7 db 08 80 00 00 00 80 00 00 00 00 09 09 00 00 00 00 00 37 a9 d7 db 28 08 00 76 ce 08 be 1d a1 fc a0
# ReportID: 1 / X:  131 | Y:  128 | Z:  130 | Rz:  127 | Rx:    0 | Ry:    0 | 0xff000020:   92 | Hat switch:   8 | Button: 0  0  0  0  0  0  0  0  0  0  0  0  0  0  0 | 0xff000021: 0 , 0 , 0 , 0 , 0 , 0 , 0 , 0 , 0 , 0 , 0 , 0 , 0 | 0xff000022:   57 ,  128 ,   42 ,  235 ,  246 ,  255 ,  238 ,  255 ,   11 ,    0 ,   47 ,    0 ,   83 ,   31 ,   51 ,    5 ,  180 ,  190 ,  215 ,  219 ,    8 ,  128 ,    0 ,    0 ,    0 ,  128 ,    0 ,    0 ,    0 ,    0 ,    9 ,    9 ,    0 ,    0 ,    0 ,    0 ,    0 ,   23 ,  216 ,  215 ,  219 ,   40 ,    8 ,    0 ,  243 ,  152 ,  114 ,  226 ,  115 ,   27 ,  162 ,   42 
E: 000000.280153 64 01 83 80 82 7f 00 00 5c 08 00 00 00 39 80 2a eb f6 ff ee ff 0b 00 2f 00 53 1f 33 05 b4 be d7 db 08 80 00 00 00 80 00 00 00 00 09 09 00 00 00 00 00 17 d8 d7 db 28 08 00 f3 98 72 e2 73 1b a2 2a
# ReportID: 1 / X:  131 | Y:  128 | Z:  129 | Rz:  127 | Rx:    0 | Ry:    0 | 0xff000020:   93 | Hat switch:   8 | Button: 0  0  0  0  0  0  0  0  0  0  0  0  0  0  0 | 0xff000021: 0 , 0 , 0 , 0 , 0 , 0 , 0 , 0 , 0 , 0 , 0 , 0 , 0 | 0xff000022:   58 ,  128 ,   42 ,  235 ,  247 ,  255 ,  238 ,  255 ,   10 ,    0 ,   43 ,    0 ,   63 ,   31 ,   41 ,    5 ,  167 ,  237 ,  215 ,  219 ,    8 ,  128 ,    0 ,    0 ,    0 ,  128 ,    0 ,    0 ,    0 ,    0 ,    9 ,    9 ,    0 ,    0 ,    0 ,    0 ,    0 ,    0 ,    7 ,  216 ,  219 ,   40 ,    8 ,    0 ,   12 ,  230 ,   72 ,  164 ,  234 ,   55 ,  223 ,   14 
E: 000000.284851 64 01 83 80 81 7f 00 00 5d 08 00 00 00 3a 80 2a eb f7 ff ee ff 0a 00 2b 00 3f 1f 29 05 a7 ed d7 db 08 80 00 00 00 80 00 00 00 00 09 09 00 00 00 00 00 00 07 d8 db 28 08 00 0c e6 48 a4 ea 37 df 0e
# ReportID: 1 / X:  131 | Y:  128 | Z:  129 | Rz:  127 | Rx:    0 | Ry:    0 | 0xff000020:   94 | Hat switch:   8 | Button: 0  0  0  0  0  0  0  0  0  0  0  0  0  0  0 | 0xff000021: 0 , 0 , 0 , 0 , 0 , 0 , 0 , 0 , 0 , 0 , 0 , 0 , 0 | 0xff000022:   59 ,  128 ,   42 ,  235 ,  245 ,  255 ,  238 ,  255 ,   11 ,    0 ,   35 ,    0 ,   72 ,   31 ,   41 ,    5 ,  154 ,   28 ,  216 ,  219 ,    8 ,  128 ,    0 ,    0 ,    0 ,  128 ,    0 ,    0 ,    0 ,    0 ,    9 ,    9 ,    0 ,    0 ,    0 ,    0 ,    0 ,  241 ,   53 ,  216 ,  219 ,   40 ,    8 ,    0 ,  205 ,   24 ,  137 ,  185 ,  134 ,   59 ,  138 ,  254 
E: 000000.288385 64 01 83 80 81 7f 00 00 5e 08 00 00 00 3b 80 2a eb f5 ff ee ff 0b 00 23 00 48 1f 29 05 9a 1c d8 db 08 80 00 00 00 80 00 00 00 00 09 09 00 00 00 00 00 f1 35 d8 db 28 08 00 cd 18 89 b9 86 3b 8a fe
# ReportID: 1 / X:  131 | Y:  128 | Z:  129 | Rz:  127 | Rx:    0 | Ry:    0 | 0xff000020:   95 | Hat switch:   8 | Button: 0  0  0  0  0  0  0  0  0  0  0  0  0  0  0 | 0xff000021: 0 , 0 , 0 , 0 , 0 , 0 , 0 , 0 , 0 , 0 , 0 , 0 , 0 | 0xff000022:   60 ,  128 ,   42 ,  235 ,  245 ,  255 ,  238 ,  255 ,   11 ,    0 ,   35 ,    0 ,  109 ,   31 ,   68 ,    5 ,  141 ,   75 ,  216 ,  219 ,    8 ,  128 ,    0 ,    0 ,    0 ,  128 ,    0 ,    0 ,    0 ,    0 ,    9 ,    9 ,    0 ,    0 ,    0 ,    0 ,    0 ,  190 ,  100 ,  216 ,  219 ,   40 ,    8 ,    0 ,   89 ,  163 ,   35 ,  151 ,   17 ,   97 ,  109 ,  142 
E: 000000.293437 64 01 83 80 81 7f 00 00 5f 08 00 00 00 3c 80 2a eb f5 ff ee ff 0b 00 23 00 6d 1f 44 05 8d 4b d8 db 08 80 00 00 00 80 00 00 00 00 09 09 00 00 00 00 00 be 64 d8 db 28 08 00 59 a3 23 97 11 61 6d 8e
# ReportID: 1 / X:  131 | Y:  128 | Z:  129 | Rz:  127 | Rx:    0 | Ry:    0 | 0xff000020:   96 | Hat switch:   8 | Button: 0  0  0  0  0  0  0  0  0  0  0  0  0  0  0 | 0xff000021: 0 , 0 , 0 , 0 , 0 , 0 , 0 , 0 , 0 , 0 , 0 , 0 , 0 | 0xff000022:   61 ,  128 ,   42 ,  235 ,  247 ,  255 ,  238 ,  255 ,   10 ,    0 ,   59 ,    0 ,  109 ,   31 ,   63 ,    5 ,  129 ,  122 ,  216 ,  219 ,    8 ,  128 ,    0 ,    0 ,    0 ,  128 ,    0 ,    0 ,    0 ,    0 ,    9 ,    9 ,    0 ,    0 ,    0 ,    0 ,    0 ,  159 ,  147 ,  216 ,  219 ,   40 ,    8 ,    0 ,  179 ,   24 ,  119 ,   47 ,   88 ,  152 ,  123 ,  222 
E: 000000.297077 64 01 83 80 81 7f 00 00 60 08 00 00 00 3d 80 2a eb f7 ff ee ff 0a 00 3b 00 6d 1f 3f 05 81 7a d8 db 08 80 00 00 00 80 00 00 00 00 09 09 00 00 00 00 00 9f 93 d8 db 28 08 00 b3 18 77 2f 58 98 7b de
# ReportID: 1 / X:  131 | Y:  128 | Z:  129 | Rz:  127 | Rx:    0 | Ry:    0 | 0xff000020:   97 | Hat switch:   8 | Button: 0  0  0  0  0  0  0  0  0  0  0  0  0  0  0 | 0xff000021: 0 , 0 , 0 , 0 , 0 , 0 , 0 , 0 , 0 , 0 , 0 , 0 , 0 | 0xff000022:   62 ,  128 ,   42 ,  235 ,  246 ,  255 ,  238 ,  255 ,   11 ,    0 ,   51 ,    0 ,   91 ,   31 ,   63 ,    5 ,  116 ,  169 ,  216 ,  219 ,    8 ,  128 ,    0 ,    0 ,    0 ,  128 ,    0 ,    0 ,    0 ,    0 ,    9 ,    9 ,    0 ,    0 ,    0 ,    0 ,    0 ,  128 ,  194 ,  216 ,  219 ,   40 ,    8 ,    0 ,  238 ,  141 ,   20 ,  240 ,   21 ,    7 ,    0 ,  235 
E: 000000.300472 64 01 83 80 81 7f 00 00 61 08 00 00 00 3e 80 2a eb f6 ff ee ff 0b 00 33 00 5b 1f 3f 05 74 a9 d8 db 08 80 00 00 00 80 00 00 00 00 09 09 00 00 00 00 00 80 c2 d8 db 28 08 00 ee 8d 14 f0 15 07 00 eb
# ReportID: 1 / X:  131 | Y:  128 | Z:  129 | Rz:  127 | Rx:    0 | Ry:    0 | 0xff000020:   98 | Hat switch:   8 | Button: 0  0  0  0  0  0  0  0  0  0  0  0  0  0  0 | 0xff000021: 0 , 0 , 0 , 0 , 0 , 0 , 0 , 0 , 0 , 0 , 0 , 0 , 0 | 0xff000022:   63 ,  128 ,   42 ,  235 ,  247 ,  255 ,  238 ,  255 ,   10 ,    0 ,   54 ,    0 ,   85 ,   31 ,   64 ,    5 ,  103 ,  216 ,  216 ,  219 ,    8 ,  128 ,    0 ,    0 ,    0 ,  128 ,    0 ,    0 ,    0 ,    0 ,    9 ,    9 ,    0 ,    0 ,    0 ,    0 ,    0 ,   87 ,  241 ,  216 ,  219 ,   40 ,    8 ,    0 ,   48 ,  150 ,   81 ,   72 ,  158 ,   67 ,   13 ,  173 
E: 000000.304127 64 01 83 80 81 7f 00 00 62 08 00 00 00 3f 80 2a eb f7 ff ee ff 0a 00 36 00 55 1f 40 05 67 d8 d8 db 08 80 00 00 00 80 00 00 00 00 09 09 00 00 00 00 00 57 f1 d8 db 28 08 00 30 96 51 48 9e 43 0d ad
# ReportID: 1 / X:  131 | Y:  128 | Z:  130 | Rz:  127 | Rx:    0 | Ry:    0 | 0xff000020:   99 | Hat switch:   8 | Button: 0  0  0  0  0  0  0  0  0  0  0  0  0  0  0 | 0xff000021: 0 , 0 , 0 , 0 , 0 , 0 , 0 , 0 , 0 , 0 , 0 , 0 , 0 | 0xff000022:   64 ,  128 ,   42 ,  235 ,  246 ,  255 ,  238 ,  255 ,   10 ,    0 ,   65 ,    0 ,   81 ,   31 ,   71 ,    5 ,   90 ,    7 ,  217 ,  219 ,    8 ,  128 ,    0 ,    0 ,    0 ,  128 ,    0 ,    0 ,    0 ,    0 ,    9 ,    9 ,    0 ,    0 ,    0 ,    0 ,    0 ,   55 ,   32 ,  217 ,  219 ,   40 ,    8 ,    0 ,  235 ,  191 ,    9 ,  100 ,  126 ,   26 ,  199 ,   10 
E: 000000.308683 64 01 83 80 82 7f 00 00 63 08 00 00 00 40 80 2a eb f6 ff ee ff 0a 00 41 00 51 1f 47 05 5a 07 d9 db 08 80 00 00 00 80 00 00 00 00 09 09 00 00 00 00 00 37 20 d9 db 28 08 00 eb bf 09 64 7e 1a c7 0a
# ReportID: 1 / X:  131 | Y:  128 | Z:  129 | Rz:  127 | Rx:    0 | Ry:    0 | 0xff000020:  100 | Hat switch:   8 | Button: 0  0  0  0  0  0  0  0  0  0  0  0  0  0  0 | 0xff000021: 0 , 0 , 0 , 0 , 0 , 0 , 0 , 0 , 0 , 0 , 0 , 0 , 0 | 0xff000022:   65 ,  128 ,   42 ,  235 ,  246 ,  255 ,  239 ,  255 ,   11 ,    0 ,   52 ,    0 ,   59 ,   31 ,   55 ,    5 ,   77 ,   54 ,  217 ,  219 ,    8 ,  128 ,    0 ,    0 ,    0 ,  128 ,    0 ,    0 ,    0 ,    0 ,    9 ,    9 ,    0 ,    0 ,    0 ,    0 ,    0 ,   23 ,   79 ,  217 ,  219 ,   40 ,    8 ,    0 ,    0 ,  145 ,   21 ,  195 ,  106 ,  172 ,  191 ,   53 
E: 000000.312526 64 01 83 80 81 7f 00 00 64 08 00 00 00 41 80 2a eb f6 ff ef ff 0b 00 34 00 3b 1f 37 05 4d 36 d9 db 08 80 00 00 00 80 00 00 00 00 09 09 00 00 00 00 00 17 4f d9 db 28 08 00 00 91 15 c3 6a ac bf 35
# ReportID: 1 / X:  131 | Y:  128 | Z:  129 | Rz:  127 | Rx:    0 | Ry:    0 | 0xff000020:  101 | Hat switch:   8 | Button: 0  0  0  0  0  0  0  0  0  0  0  0  0  0  0 | 0xff000021: 0 , 0 , 0 , 0 , 0 , 0 , 0 , 0 , 0 , 0 , 0 , 0 , 0 | 0xff000022:   66 ,  128 ,   42 ,  235 ,  246 ,  255 ,  238 ,  255 ,   10 ,    0 ,   57 ,    0 ,   64 ,   31 ,   81 ,    5 ,   64 ,  101 ,  217 ,  219 ,    8 ,  128 ,    0 ,    0 ,    0 ,  128 ,    0 ,    0 ,    0 ,    0 ,    9 ,    9 ,    0 ,    0 ,    0 ,    0 ,    0 ,  247 ,  125 ,  217 ,  219 ,   40 ,    8 ,    0 ,   21 ,  236 ,  189 ,  228 ,  143 ,  147 ,  207 ,  125 
E: 000000.317268 64 01 83 80 81 7f 00 00 65 08 00 00 00 42 80 2a eb f6 ff ee ff 0a 00 39 00 40 1f 51 05 40 65 d9 db 08 80 00 00 00 80 00 00 00 00 09 09 00 00 00 00 00 f7 7d d9 db 28 08 00 15 ec bd e4 8f 93 cf 7d
# ReportID: 1 / X:  131 | Y:  128 | Z:  129 | Rz:  127 | Rx:    0 | Ry:    0 | 0xff000020:  102 | Hat switch:   8 | Button: 0  0  0  0  0  0  0  0  0  0  0  0  0  0  0 | 0xff000021: 0 , 0 , 0 , 0 , 0 , 0 , 0 , 0 , 0 , 0 , 0 , 0 , 0 | 0xff000022:   67 ,  128 ,   42 ,  235 ,  246 ,  255 ,  239 ,  255 ,   11 ,    0 ,   73 ,    0 ,   79 ,   31 ,   74 ,    5 ,   51 ,  148 ,  217 ,  219 ,    8 ,  128 ,    0 ,    0 ,    0 ,  128 ,    0 ,    0 ,    0 ,    0 ,    9 ,    9 ,    0 ,    0 ,    0 ,    0 ,    0 ,  215 ,  172 ,  217 ,  219 ,   40 ,    8 ,    0 ,   30 ,  109 ,  230 ,   35 ,   24 ,    5 ,  160 ,  174 
E: 000000.321856 64 01 83 80 81 7f 00 00 66 08 00 00 00 43 80 2a eb f6 ff ef ff 0b 00 49 00 4f 1f 4a 05 33 94 d9 db 08 80 00 00 00 80 00 00 00 00 09 09 00 00 00 00 00 d7 ac d9 db 28 08 00 1e 6d e6 23 18 05 a0 ae
# ReportID: 1 / X:  131 | Y:  128 | Z:  129 | Rz:  127 | Rx:    0 | Ry:    0 | 0xff000020:  103 | Hat switch:   8 | Button: 0  0  0  0  0  0  0  0  0  0  0  0  0  0  0 | 0xff000021: 0 , 0 , 0 , 0 , 0 , 0 , 0 , 0 , 0 , 0 , 0 , 0 , 0 | 0xff000022:   68 ,  128 ,   42 ,  235 ,  248 ,  255 ,  237 ,  255 ,   12 ,    0 ,   54 ,    0 ,   92 ,   31 ,   75 ,    5 ,   38 ,  195 ,  217 ,  219 ,    8 ,  128 ,    0 ,    0 ,    0 ,  128 ,    0 ,    0 ,    0 ,    0 ,    9 ,    9 ,    0 ,    0 ,    0 ,    0 ,    0 ,  183 ,  219 ,  217 ,  219 ,   40 ,    8 ,    0 ,  216 ,  189 ,  167 ,   73 ,    5 ,   88 ,  123 ,   34 
E: 000000.325375 64 01 83 80 81 7f 00 00 67 08 00 00 00 44 80 2a eb f8 ff ed ff 0c 00 36 00 5c 1f 4b 05 26 c3 d9 db 08 80 00 00 00 80 00 00 00 00 09 09 00 00 00 00 00 b7 db d9 db 28 08 00 d8 bd a7 49 05 58 7b 22
# ReportID: 1 / X:  131 | Y:  128 | Z:  129 | Rz:  127 | Rx:    0 | Ry:    0 | 0xff000020:  104 | Hat switch:   8 | Button: 0  0  0  0  0  0  0  0  0  0  0  0  0  0  0 | 0xff000021: 0 , 0 , 0 , 0 , 0 , 0 , 0 , 0 , 0 , 0 , 0 , 0 , 0 | 0xff000022:   69 ,  128 ,   42 ,  235 ,  247 ,  255 ,  238 ,  255 ,   11 ,    0 ,   60 ,    0 ,   85 ,   31 ,   67 ,    5 ,   26 ,  242 ,  217 ,  219 ,    8 ,  128 ,    0 ,    0 ,    0 ,  128 ,    0 ,    0 ,    0 ,    0 ,    9 ,    9 ,    0 ,    0 ,    0 ,    0 ,    0 ,  151 ,   10 ,  218 ,  219 ,   40 ,    8 ,    0 ,   65 ,  139 ,   38 ,   11 ,  204 ,   18 ,   54 ,  141 
E: 000000.329334 64 01 83 80 81 7f 00 00 68 08 00 00 00 45 80 2a eb f7 ff ee ff 0b 00 3c 00 55 1f 43 05 1a f2 d9 db 08 80 00 00 00 80 00 00 00 00 09 09 00 00 00 00 00 97 0a da db 28 08 00 41 8b 26 0b cc 12 36 8d
# ReportID: 1 / X:  131 | Y:  128 | Z:  130 | Rz:  127 | Rx:    0 | Ry:    0 | 0xff000020:  105 | Hat switch:   8 | Button: 0  0  0  0  0  0  0  0  0  0  0  0  0  0  0 | 0xff000021: 0 , 0 , 0 , 0 , 0 , 0 , 0 , 0 , 0 , 0 , 0 , 0 , 0 | 0xff000022:   70 ,  128 ,   42 ,  235 ,  247 ,  255 ,  240 ,  255 ,   11 ,    0 ,   57 ,    0 ,   69 ,   31 ,   67 ,    5 ,   13 ,   33 ,  218 ,  219 ,    8 ,  128 ,    0 ,    0 ,    0 ,  128 ,    0 ,    0 ,    0 ,    0 ,    9 ,    9 ,    0 ,    0 ,    0 ,    0 ,    0 ,  119 ,   57 ,  218 ,  219 ,   40 ,    8 ,    0 ,  250 ,  152 ,  125 ,  220 ,  154 ,  146 ,  225 ,  206 
E: 000000.332915 64 01 83 80 82 7f 00 00 69 08 00 00 00 46 80 2a eb f7 ff f0 ff 0b 00 39 00 45 1f 43 05 0d 21 da db 08 80 00 00 00 80 00 00 00 00 09 09 00 00 00 00 00 77 39 da db 28 08 00 fa 98 7d dc 9a 92 e1 ce
# ReportID: 1 / X:  131 | Y:  128 | Z:  130 | Rz:  127 | Rx:    0 | Ry:    0 | 0xff000020:  106 | Hat switch:   8 | Button: 0  0  0  0  0  0  0  0  0  0  0  0  0  0  0 | 0xff000021: 0 , 0 , 0 , 0 , 0 , 0 , 0 , 0 , 0 , 0 , 0 , 0 , 0 | 0xff000022:   71 ,  128 ,   42 ,  235 ,  247 ,  255 ,  239 ,  255 ,   12 ,    0 ,   55 ,    0 ,   78 ,   31 ,   62 ,    5 ,    0 ,   80 ,  218 ,  219 ,    8 ,  128 ,    0 ,    0 ,    0 ,  128 ,    0 ,    0 ,    0 ,    0 ,    9 ,    9 ,    0 ,    0 ,    0 ,    0 ,    0 ,   87 ,  104 ,  218 ,  219 ,   40 ,    8 ,    0 ,  233 ,  219 ,   73 ,  222 ,  181 ,  123 ,   19 ,  134 
E: 000000.336339 64 01 83 80 82 7f 00 00 6a 08 00 00 00 47 80 2a eb f7 ff ef ff 0c 00 37 00 4e 1f 3e 05 00 50 da db 08 80 00 00 00 80 00 00 00 00 09 09 00 00 00 00 00 57 68 da db 28 08 00 e9 db 49 de b5 7b 13 86
# ReportID: 1 / X:  131 | Y:  128 | Z:  129 | Rz:  127 | Rx:    0 | Ry:    0 | 0xff000020:  107 | Hat switch:   8 | Button: 0  0  0  0  0  0  0  0  0  0  0  0  0  0  0 | 0xff000021: 0 , 0 , 0 , 0 , 0 , 0 , 0 , 0 , 0 , 0 , 0 , 0 , 0 | 0xff000022:   72 ,  128 ,   42 ,  235 ,  247 ,  255 ,  238 ,  255 ,   12 ,    0 ,   59 ,    0 ,   94 ,   31 ,   63 ,    5 ,  243 ,  126 ,  218 ,  219 ,    8 ,  128 ,    0 ,    0 ,    0 ,  128 ,    0 ,    0 ,    0 ,    0 ,    9 ,    9 ,    0 ,    0 ,    0 ,    0 ,    0 ,   55 ,  151 ,  218 ,  219 ,   40 ,    8 ,    0 ,  116 ,  125 ,   81 ,   52 ,  209 ,  202 ,  165 ,   64 
E: 000000.340170 64 01 83 80 81 7f 00 00 6b 08 00 00 00 48 80 2a eb f7 ff ee ff 0c 00 3b 00 5e 1f 3f 05 f3 7e da db 08 80 00 00 00 80 00 00 00 00 09 09 00 00 00 00 00 37 97 da db 28 08 00 74 7d 51 34 d1 ca a5 40
# ReportID: 1 / X:  131 | Y:  128 | Z:  129 | Rz:  127 | Rx:    0 | Ry:    0 | 0xff000020:  108 | Hat switch:   8 | Button: 0  0  0  0  0  0  0  0  0  0  0  0  0  0  0 | 0xff000021: 0 , 0 , 0 , 0 , 0 , 0 , 0 , 0 , 0 , 0 , 0 , 0 , 0 | 0xff000022:   73 ,  128 ,   42 ,  235 ,  248 ,  255 ,  238 ,  255 ,   11 ,    0 ,   44 ,    0 ,   95 ,   31 ,   53 ,    5 ,  230 ,  173 ,  218 ,  219 ,    8 ,  128 ,    0 ,    0 ,    0 ,  128 ,    0 ,    0 ,    0 ,    0 ,    9 ,    9 ,    0 ,    0 ,    0 ,    0 ,    0 ,   23 ,  198 ,  218 ,  219 ,   40 ,    8 ,    0 ,  189 ,   24 ,  167 ,   68 ,  129 ,  204 ,   51 ,  184 
E: 000000.344063 64 01 83 80 81 7f 00 00 6c 08 00 00 00 49 80 2a eb f8 ff ee ff 0b 00 2c 00 5f 1f 35 05 e6 ad da db 08 80 00 00 00 80 00 00 00 00 09 09 00 00 00 00 00 17 c6 da db 28 08 00 bd 18 a7 44 81 cc 33 b8
# ReportID: 1 / X:  131 | Y:  128 | Z:  129 | Rz:  127 | Rx:    0 | Ry:    0 | 0xff000020:  109 | Hat switch:   8 | Button: 0  0  0  0  0  0  0  0  0  0  0  0  0  0  0 | 0xff000021: 0 , 0 , 0 , 0 , 0 , 0 , 0 , 0 , 0 , 0 , 0 , 0 , 0 | 0xff000022:   74 ,  128 ,   42 ,  235 ,  248 ,  255 ,  238 ,  255 ,   11 ,    0 ,   54 ,    0 ,   90 ,   31 ,   50 ,    5 ,  217 ,  220 ,  218 ,  219 ,    8 ,  128 ,    0 ,    0 ,    0 ,  128 ,    0 ,    0 ,    0 ,    0 ,    9 ,    9 ,    0 ,    0 ,    0 ,    0 ,    0 ,  247 ,  244 ,  218 ,  219 ,   40 ,    8 ,    0 ,  187 ,  110 ,  183 ,  195 ,  163 ,  139 ,   74 ,  228 
E: 000000.349378 64 01 83 80 81 7f 00 00 6d 08 00 00 00 4a 80 2a eb f8 ff ee ff 0b 00 36 00 5a 1f 32 05 d9 dc da db 08 80 00 00 00 80 00 00 00 00 09 09 00 00 00 00 00 f7 f4 da db 28 08 00 bb 6e b7 c3 a3 8b 4a e4
# ReportID: 1 / X:  131 | Y:  128 | Z:  129 | Rz:  127 | Rx:    0 | Ry:    0 | 0xff000020:  110 | Hat switch:   8 | Button: 0  0  0  0  0  0  0  0  0  0  0  0  0  0  0 | 0xff000021: 0 , 0 , 0 , 0 , 0 , 0 , 0 , 0 , 0 , 0 , 0 , 0 , 0 | 0xff000022:   75 ,  128 ,   42 ,  235 ,  248 ,  255 ,  239 ,  255 ,   10 ,    0 ,   53 ,    0 ,   84 ,   31 ,   47 ,    5 ,  204 ,   11 ,  219 ,  219 ,    8 ,  128 ,    0 ,    0 ,    0 ,  128 ,    0 ,    0 ,    0 ,    0 ,    9 ,    9 ,    0 ,    0 ,    0 ,    0 ,    0 ,  215 ,   35 ,  219 ,  219 ,   40 ,    8 ,    0 ,  150 ,   75 ,   69 ,  211 ,   39 ,   43 ,  170 ,  201 
E: 000000.352350 64 01 83 80 81 7f 00 00 6e 08 00 00 00 4b 80 2a eb f8 ff ef ff 0a 00 35 00 54 1f 2f 05 cc 0b db db 08 80 00 00 00 80 00 00 00 00 09 09 00 00 00 00 00 d7 23 db db 28 08 00 96 4b 45 d3 27 2b aa c9
# ReportID: 1 / X:  131 | Y:  128 | Z:  129 | Rz:  127 | Rx:    0 | Ry:    0 | 0xff000020:  111 | Hat switch:   8 | Button: 0  0  0  0  0  0  0  0  0  0  0  0  0  0  0 | 0xff000021: 0 , 0 , 0 , 0 , 0 , 0 , 0 , 0 , 0 , 0 , 0 , 0 , 0 | 0xff000022:   76 ,  128 ,   42 ,  235 ,  247 ,  255 ,  239 ,  255 ,   10 ,    0 ,   48 ,    0 ,   84 ,   31 ,   47 ,    5 ,  191 ,   58 ,  219 ,  219 ,    8 ,  128 ,    0 ,    0 ,    0 ,  128 ,    0 ,    0 ,    0 ,    0 ,    9 ,    9 ,    0 ,    0 ,    0 ,    0 ,    0 ,  183 ,   82 ,  219 ,  219 ,   40 ,    8 ,    0 ,  156 ,  184 ,  156 ,  116 ,   91 ,  182 ,  104 ,  196 
E: 000000.356942 64 01 83 80 81 7f 00 00 6f 08 00 00 00 4c 80 2a eb f7 ff ef ff 0a 00 30 00 54 1f 2f 05 bf 3a db db 08 80 00 00 00 80 00 00 00 00 09 09 00 00 00 00 00 b7 52 db db 28 08 00 9c b8 9c 74 5b b6 68 c4
# ReportID: 1 / X:  131 | Y:  128 | Z:  130 | Rz:  127 | Rx:    0 | Ry:    0 | 0xff000020:  112 | Hat switch:   8 | Button: 0  0  0  0  0  0  0  0  0  0  0  0  0  0  0 | 0xff000021: 0 , 0 , 0 , 0 , 0 , 0 , 0 , 0 , 0 , 0 , 0 , 0 , 0 | 0xff000022:   77 ,  128 ,   42 ,  235 ,  248 ,  255 ,  238 ,  255 ,   11 ,    0 ,   41 ,    0 ,   92 ,   31 ,   32 ,    5 ,  179 ,  105 ,  219 ,  219 ,    8 ,  128 ,    0 ,    0 ,    0 ,  128 ,    0 ,    0 ,    0 ,    0 ,    9 ,    9 ,    0 ,    0 ,    0 ,    0 ,    0 ,  151 ,  129 ,  219 ,  219 ,   40 ,    8 ,    0 ,   91 ,   56 ,   86 ,  234 ,  158 ,   68 ,  215 ,   50 
E: 000000.360948 64 01 83 80 82 7f 00 00 70 08 00 00 00 4d 80 2a eb f8 ff ee ff 0b 00 29 00 5c 1f 20 05 b3 69 db db 08 80 00 00 00 80 00 00 00 00 09 09 00 00 00 00 00 97 81 db db 28 08 00 5b 38 56 ea 9e 44 d7 32
# ReportID: 1 / X:  131 | Y:  128 | Z:  129 | Rz:  127 | Rx:    0 | Ry:    0 | 0xff000020:  113 | Hat switch:   8 | Button: 0  0  0  0  0  0  0  0  0  0  0  0  0  0  0 | 0xff000021: 0 , 0 , 0 , 0 , 0 , 0 , 0 , 0 , 0 , 0 , 0 , 0 , 0 | 0xff000022:   78 ,  128 ,   42 ,  235 ,  249 ,  255 ,  238 ,  255 ,   11 ,    0 ,   43 ,    0 ,  105 ,   31 ,   43 ,    5 ,  166 ,  152 ,  219 ,  219 ,    8 ,  128 ,    0 ,    0 ,    0 ,  128 ,    0 ,    0 ,    0 ,    0 ,    9 ,    9 ,    0 ,    0 ,    0 ,    0 ,    0 ,  121 ,  176 ,  219 ,  219 ,   40 ,    8 ,    0 ,  213 ,  149 ,    2 ,  188 ,   71 ,   47 ,  128 ,  220 
E: 000000.364178 64 01 83 80 81 7f 00 00 71 08 00 00 00 4e 80 2a eb f9 ff ee ff 0b 00 2b 00 69 1f 2b 05 a6 98 db db 08 80 00 00 00 80 00 00 00 00 09 09 00 00 00 00 00 79 b0 db db 28 08 00 d5 95 02 bc 47 2f 80 dc
# ReportID: 1 / X:  131 | Y:  128 | Z:  129 | Rz:  127 | Rx:    0 | Ry:    0 | 0xff000020:  114 | Hat switch:   8 | Button: 0  0  0  0  0  0  0  0  0  0  0  0  0  0  0 | 0xff000021: 0 , 0 , 0 , 0 , 0 , 0 , 0 , 0 , 0 , 0 , 0 , 0 , 0 | 0xff000022:   79 ,  128 ,   42 ,  235 ,  247 ,  255 ,  237 ,  255 ,   11 ,    0 ,   40 ,    0 ,   91 ,   31 ,   37 ,    5 ,  153 ,  199 ,  219 ,  219 ,    8 ,  128 ,    0 ,    0 ,    0 ,  128 ,    0 ,    0 ,    0 ,    0 ,    9 ,    9 ,    0 ,    0 ,    0 ,    0 ,    0 ,  107 ,  223 ,  219 ,  219 ,   40 ,    8 ,    0 ,  253 ,   39 ,    9 ,  243 ,   90 ,   27 ,  221 ,   41 
E: 000000.368061 64 01 83 80 81 7f 00 00 72 08 00 00 00 4f 80 2a eb f7 ff ed ff 0b 00 28 00 5b 1f 25 05 99 c7 db db 08 80 00 00 00 80 00 00 00 00 09 09 00 00 00 00 00 6b df db db 28 08 00 fd 27 09 f3 5a 1b dd 29
# ReportID: 1 / X:  131 | Y:  128 | Z:  129 | Rz:  127 | Rx:    0 | Ry:    0 | 0xff000020:  115 | Hat switch:   8 | Button: 0  0  0  0  0  0  0  0  0  0  0  0  0  0  0 | 0xff000021: 0 , 0 , 0 , 0 , 0 , 0 , 0 , 0 , 0 , 0 , 0 , 0 , 0 | 0xff000022:   80 ,  128 ,   42 ,  235 ,  246 ,  255 ,  238 ,  255 ,   10 ,    0 ,   45 ,    0 ,   86 ,   31 ,   42 ,    5 ,  141 ,  246 ,  219 ,  219 ,    8 ,  128 ,    0 ,    0 ,    0 ,  128 ,    0 ,    0 ,    0 ,    0 ,    9 ,    9 ,    0 ,    0 ,    0 ,    0 ,    0 ,   62 ,   14 ,  220 ,  219 ,   40 ,    8 ,    0 ,  222 ,   14 ,  123 ,  167 ,   43 ,  115 ,    5 ,  126 
E: 000000.372247 64 01 83 80 81 7f 00 00 73 08 00 00 00 50 80 2a eb f6 ff ee ff 0a 00 2d 00 56 1f 2a 05 8d f6 db db 08 80 00 00 00 80 00 00 00 00 09 09 00 00 00 00 00 3e 0e dc db 28 08 00 de 0e 7b a7 2b 73 05 7e
# ReportID: 1 / X:  131 | Y:  128 | Z:  129 | Rz:  127 | Rx:    0 | Ry:    0 | 0xff000020:  116 | Hat switch:   8 | Button: 0  0  0  0  0  0  0  0  0  0  0  0  0  0  0 | 0xff000021: 0 , 0 , 0 , 0 , 0 , 0 , 0 , 0 , 0 , 0 , 0 , 0 , 0 | 0xff000022:   81 ,  128 ,   42 ,  235 ,  246 ,  255 ,  238 ,  255 ,   10 ,    0 ,   51 ,    0 ,  101 ,   31 ,   38 ,    5 ,  128 ,   37 ,  220 ,  219 ,    8 ,  128 ,    0 ,    0 ,    0 ,  128 ,    0 ,    0 ,    0 ,    0 ,    9 ,    9 ,    0 ,    0 ,    0 ,    0 ,    0 ,   30 ,   61 ,  220 ,  219 ,   40 ,    8 ,    0 ,   71 ,  214 ,  233 ,  214 ,  241 ,   22 ,  221 ,  231 
E: 000000.376174 64 01 83 80 81 7f 00 00 74 08 00 00 00 51 80 2a eb f6 ff ee ff 0a 00 33 00 65 1f 26 05 80 25 dc db 08 80 00 00 00 80 00 00 00 00 09 09 00 00 00 00 00 1e 3d dc db 28 08 00 47 d6 e9 d6 f1 16 dd e7
# ReportID: 1 / X:  131 | Y:  128 | Z:  129 | Rz:  127 | Rx:    0 | Ry:    0 | 0xff000020:  117 | Hat switch:   8 | Button: 0  0  0  0  0  0  0  0  0  0  0  0  0  0  0 | 0xff000021: 0 , 0 , 0 , 0 , 0 , 0 , 0 , 0 , 0 , 0 , 0 , 0 , 0 | 0xff000022:   82 ,  128 ,   42 ,  235 ,  247 ,  255 ,  238 ,  255 ,   11 ,    0 ,   59 ,    0 ,   97 ,   31 ,   41 ,    5 ,  116 ,   84 ,  220 ,  219 ,    8 ,  128 ,    0 ,    0 ,    0 ,  128 ,    0 ,    0 ,    0 ,    0 ,    9 ,    9 ,    0 ,    0 ,    0 ,    0 ,    0 ,    0 ,  108 ,  220 ,  219 ,   40 ,    8 ,    0 ,   34 ,  118 ,   21 ,  186 ,  140 ,   10 ,  240 ,    7 
E: 000000.381923 64 01 83 80 81 7f 00 00 75 08 00 00 00 52 80 2a eb f7 ff ee ff 0b 00 3b 00 61 1f 29 05 74 54 dc db 08 80 00 00 00 80 00 00 00 00 09 09 00 00 00 00 00 00 6c dc db 28 08 00 22 76 15 ba 8c 0a f0 07
# ReportID: 1 / X:  131 | Y:  128 | Z:  129 | Rz:  127 | Rx:    0 | Ry:    0 | 0xff000020:  118 | Hat switch:   8 | Button: 0  0  0  0  0  0  0  0  0  0  0  0  0  0  0 | 0xff000021: 0 , 0 , 0 , 0 , 0 , 0 , 0 , 0 , 0 , 0 , 0 , 0 , 0 | 0xff000022:   83 ,  128 ,   42 ,  235 ,  247 ,  255 ,  238 ,  255 ,   10 ,    0 ,   61 ,    0 ,   94 ,   31 ,   53 ,    5 ,  103 ,  131 ,  220 ,  219 ,    8 ,  128 ,    0 ,    0 ,    0 ,  128 ,    0 ,    0 ,    0 ,    0 ,    9 ,    9 ,    0 ,    0 ,    0 ,    0 ,    0 ,  215 ,  154 ,  220 ,  219 ,   40 ,    8 ,    0 ,   43 ,  191 ,  227 ,   54 ,  231 ,   82 ,  249 ,   11 
E: 000000.385464 64 01 83 80 81 7f 00 00 76 08 00 00 00 53 80 2a eb f7 ff ee ff 0a 00 3d 00 5e 1f 35 05 67 83 dc db 08 80 00 00 00 80 00 00 00 00 09 09 00 00 00 00 00 d7 9a dc db 28 08 00 2b bf e3 36 e7 52 f9 0b
# ReportID: 1 / X:  131 | Y:  128 | Z:  129 | Rz:  127 | Rx:    0 | Ry:    0 | 0xff000020:  119 | Hat switch:   8 | Button: 0  0  0  0  0  0  0  0  0  0  0  0  0  0  0 | 0xff000021: 0 , 0 , 0 , 0 , 0 , 0 , 0 , 0 , 0 , 0 , 0 , 0 , 0 | 0xff000022:   84 ,  128 ,   42 ,  235 ,  247 ,  255 ,  238 ,  255 ,    9 ,    0 ,   53 ,    0 ,  100 ,   31 ,   54 ,    5 ,   88 ,  178 ,  220 ,  219 ,    8 ,  128 ,    0 ,    0 ,    0 ,  128 ,    0 ,    0 ,    0 ,    0 ,    9 ,    9 ,    0 ,    0 ,    0 ,    0 ,    0 ,  183 ,  201 ,  220 ,  219 ,   40 ,    8 ,    0 ,   49 ,   30 ,    0 ,   23 ,   12 ,   46 ,   68 ,  161 
E: 000000.389453 64 01 83 80 81 7f 00 00 77 08 00 00 00 54 80 2a eb f7 ff ee ff 09 00 35 00 64 1f 36 05 58 b2 dc db 08 80 00 00 00 80 00 00 00 00 09 09 00 00 00 00 00 b7 c9 dc db 28 08 00 31 1e 00 17 0c 2e 44 a1
# ReportID: 1 / X:  131 | Y:  128 | Z:  129 | Rz:  127 | Rx:    0 | Ry:    0 | 0xff000020:  120 | Hat switch:   8 | Button: 0  0  0  0  0  0  0  0  0  0  0  0  0  0  0 | 0xff000021: 0 , 0 , 0 , 0 , 0 , 0 , 0 , 0 , 0 , 0 , 0 , 0 , 0 | 0xff000022:   85 ,  128 ,   42 ,  235 ,  246 ,  255 ,  238 ,  255 ,   11 ,    0 ,   48 ,    0 ,   87 ,   31 ,   55 ,    5 ,   76 ,  225 ,  220 ,  219 ,    8 ,  128 ,    0 ,    0 ,    0 ,  128 ,    0 ,    0 ,    0 ,    0 ,    9 ,    9 ,    0 ,    0 ,    0 ,    0 ,    0 ,  151 ,  248 ,  220 ,  219 ,   40 ,    8 ,    0 ,   89 ,  249 ,   35 ,  137 ,   71 ,   22 ,   35 ,  196 
E: 000000.393036 64 01 83 80 81 7f 00 00 78 08 00 00 00 55 80 2a eb f6 ff ee ff 0b 00 30 00 57 1f 37 05 4c e1 dc db 08 80 00 00 00 80 00 00 00 00 09 09 00 00 00 00 00 97 f8 dc db 28 08 00 59 f9 23 89 47 16 23 c4
# ReportID: 1 / X:  131 | Y:  128 | Z:  129 | Rz:  127 | Rx:    0 | Ry:    0 | 0xff000020:  121 | Hat switch:   8 | Button: 0  0  0  0  0  0  0  0  0  0  0  0  0  0  0 | 0xff000021: 0 , 0 , 0 , 0 , 0 , 0 , 0 , 0 , 0 , 0 , 0 , 0 , 0 | 0xff000022:   86 ,  128 ,   42 ,  235 ,  246 ,  255 ,  238 ,  255 ,   11 ,    0 ,   65 ,    0 ,   84 ,   31 ,   54 ,    5 ,   63 ,   16 ,  221 ,  219 ,    8 ,  128 ,    0 ,    0 ,    0 ,  128 ,    0 ,    0 ,    0 ,    0 ,    9 ,    9 ,    0 ,    0 ,    0 ,    0 ,    0 ,  119 ,   39 ,  221 ,  219 ,   40 ,    8 ,    0 ,   42 ,   16 ,   63 ,  126 ,   51 ,  232 ,  120 ,  200 
E: 000000.396514 64 01 83 80 81 7f 00 00 79 08 00 00 00 56 80 2a eb f6 ff ee ff 0b 00 41 00 54 1f 36 05 3f 10 dd db 08 80 00 00 00 80 00 00 00 00 09 09 00 00 00 00 00 77 27 dd db 28 08 00 2a 10 3f 7e 33 e8 78 c8
# ReportID: 1 / X:  131 | Y:  128 | Z:  129 | Rz:  127 | Rx:    0 | Ry:    0 | 0xff000020:  122 | Hat switch:   8 | Button: 0  0  0  0  0  0  0  0  0  0  0  0  0  0  0 | 0xff000021: 0 , 0 , 0 , 0 , 0 , 0 , 0 , 0 , 0 , 0 , 0 , 0 , 0 | 0xff000022:   87 ,  128 ,   42 ,  235 ,  246 ,  255 ,  237 ,  255 ,   11 ,    0 ,   66 ,    0 ,   75 ,   31 ,   54 ,    5 ,   51 ,   63 ,  221 ,  219 ,    8 ,  128 ,    0 ,    0 ,    0 ,  128 ,    0 ,    0 ,    0 ,    0 ,    9 ,    9 ,    0 ,    0 ,    0 ,    0 ,    0 ,   87 ,   86 ,  221 ,  219 ,   40 ,    8 ,    0 ,   29 ,   96 ,  160 ,  185 ,    7 ,  119 ,   37 ,   49 
E: 000000.400103 64 01 83 80 81 7f 00 00 7a 08 00 00 00 57 80 2a eb f6 ff ed ff 0b 00 42 00 4b 1f 36 05 33 3f dd db 08 80 00 00 00 80 00 00 00 00 09 09 00 00 00 00 00 57 56 dd db 28 08 00 1d 60 a0 b9 07 77 25 31
# ReportID: 1 / X:  131 | Y:  128 | Z:  129 | Rz:  127 | Rx:    0 | Ry:    0 | 0xff000020:  123 | Hat switch:   8 | Button: 0  0  0  0  0  0  0  0  0  0  0  0  0  0  0 | 0xff000021: 0 , 0 , 0 , 0 , 0 , 0 , 0 , 0 , 0 , 0 , 0 , 0 , 0 | 0xff000022:   88 ,  128 ,   42 ,  235 ,  247 ,  255 ,  237 ,  255 ,   11 ,    0 ,   64 ,    0 ,   81 ,   31 ,   63 ,    5 ,   43 ,  110 ,  221 ,  219 ,    8 ,  128 ,    0 ,    0 ,    0 ,  128 ,    0 ,    0 ,    0 ,    0 ,    9 ,    9 ,    0 ,    0 ,    0 ,    0 ,    0 ,   55 ,  133 ,  221 ,  219 ,   40 ,    8 ,    0 ,   61 ,   11 ,  142 ,   90 ,   60 ,   44 ,  107 ,  117 
E: 000000.405536 64 01 83 80 81 7f 00 00 7b 08 00 00 00 58 80 2a eb f7 ff ed ff 0b 00 40 00 51 1f 3f 05 2b 6e dd db 08 80 00 00 00 80 00 00 00 00 09 09 00 00 00 00 00 37 85 dd db 28 08 00 3d 0b 8e 5a 3c 2c 6b 75
# ReportID: 1 / X:  131 | Y:  128 | Z:  129 | Rz:  127 | Rx:    0 | Ry:    0 | 0xff000020:  124 | Hat switch:   8 | Button: 0  0  0  0  0  0  0  0  0  0  0  0  0  0  0 | 0xff000021: 0 , 0 , 0 , 0 , 0 , 0 , 0 , 0 , 0 , 0 , 0 , 0 , 0 | 0xff000022:   89 ,  128 ,   42 ,  235 ,  246 ,  255 ,  239 ,  255 ,   10 ,    0 ,   72 ,    0 ,   80 ,   31 ,   66 ,    5 ,   29 ,  157 ,  221 ,  219 ,    8 ,  128 ,    0 ,    0 ,    0 ,  128 ,    0 ,    0 ,    0 ,    0 ,    9 ,    9 ,    0 ,    0 ,    0 ,    0 ,    0 ,   23 ,  180 ,  221 ,  219 ,   40 ,    8 ,    0 ,   83 ,  187 ,  136 ,   40 ,    7 ,   41 ,   52 ,   95 
E: 000000.408569 64 01 83 80 81 7f 00 00 7c 08 00 00 00 59 80 2a eb f6 ff ef ff 0a 00 48 00 50 1f 42 05 1d 9d dd db 08 80 00 00 00 80 00 00 00 00 09 09 00 00 00 00 00 17 b4 dd db 28 08 00 53 bb 88 28 07 29 34 5f
# ReportID: 1 / X:  131 | Y:  128 | Z:  129 | Rz:  127 | Rx:    0 | Ry:    0 | 0xff000020:  125 | Hat switch:   8 | Button: 0  0  0  0  0  0  0  0  0  0  0  0  0  0  0 | 0xff000021: 0 , 0 , 0 , 0 , 0 , 0 , 0 , 0 , 0 , 0 , 0 , 0 , 0 | 0xff000022:   90 ,  128 ,   42 ,  235 ,  247 ,  255 ,  239 ,  255 ,   10 ,    0 ,   70 ,    0 ,   86 ,   31 ,   63 ,    5 ,   11 ,  204 ,  221 ,  219 ,    8 ,  128 ,    0 ,    0 ,    0 ,  128 ,    0 ,    0 ,    0 ,    0 ,    9 ,    9 ,    0 ,    0 ,    0 ,    0 ,    0 ,  247 ,  226 ,  221 ,  219 ,   40 ,    8 ,    0 ,   77 ,  201 ,   26 ,  187 ,  100 ,  172 ,  103 ,  124 
E: 000000.412101 64 01 83 80 81 7f 00 00 7d 08 00 00 00 5a 80 2a eb f7 ff ef ff 0a 00 46 00 56 1f 3f 05 0b cc dd db 08 80 00 00 00 80 00 00 00 00 09 09 00 00 00 00 00 f7 e2 dd db 28 08 00 4d c9 1a bb 64 ac 67 7c
# ReportID: 1 / X:  131 | Y:  128 | Z:  129 | Rz:  127 | Rx:    0 | Ry:    0 | 0xff000020:  126 | Hat switch:   8 | Button: 0  0  0  0  0  0  0  0  0  0  0  0  0  0  0 | 0xff000021: 0 , 0 , 0 , 0 , 0 , 0 , 0 , 0 , 0 , 0 , 0 , 0 , 0 | 0xff000022:   91 ,  128 ,   42 ,  235 ,  246 ,  255 ,  238 ,  255 ,   10 ,    0 ,   64 ,    0 ,   89 ,   31 ,   58 ,    5 ,  254 ,  250 ,  221 ,  219 ,    8 ,  128 ,    0 ,    0 ,    0 ,  128 ,    0 ,    0 ,    0 ,    0 ,    9 ,    9 ,    0 ,    0 ,    0 ,    0 ,    0 ,  215 ,   17 ,  222 ,  219 ,   40 ,    8 ,    0 ,   28 ,  192 ,   73 ,   19 ,   49 ,  115 ,   26 ,   15 
E: 000000.417186 64 01 83 80 81 7f 00 00 7e 08 00 00 00 5b 80 2a eb f6 ff ee ff 0a 00 40 00 59 1f 3a 05 fe fa dd db 08 80 00 00 00 80 00 00 00 00 09 09 00 00 00 00 00 d7 11 de db 28 08 00 1c c0 49 13 31 73 1a 0f
# ReportID: 1 / X:  131 | Y:  128 | Z:  129 | Rz:  127 | Rx:    0 | Ry:    0 | 0xff000020:  127 | Hat switch:   8 | Button: 0  0  0  0  0  0  0  0  0  0  0  0  0  0  0 | 0xff000021: 0 , 0 , 0 , 0 , 0 , 0 , 0 , 0 , 0 , 0 , 0 , 0 , 0 | 0xff000022:   92 ,  128 ,   42 ,  235 ,  247 ,  255 ,  239 ,  255 ,   11 ,    0 ,   70 ,    0 ,   88 ,   31 ,   65 ,    5 ,  241 ,   41 ,  222 ,  219 ,    8 ,  128 ,    0 ,    0 ,    0 ,  128 ,    0 ,    0 ,    0 ,    0 ,    9 ,    9 ,    0 ,    0 ,    0 ,    0 ,    0 ,  183 ,   64 ,  222 ,  219 ,   40 ,    8 ,    0 ,    9 ,   31 ,   62 ,   80 ,  212 ,  238 ,  231 ,   86 
E: 000000.420924 64 01 83 80 81 7f 00 00 7f 08 00 00 00 5c 80 2a eb f7 ff ef ff 0b 00 46 00 58 1f 41 05 f1 29 de db 08 80 00 00 00 80 00 00 00 00 09 09 00 00 00 00 00 b7 40 de db 28 08 00 09 1f 3e 50 d4 ee e7 56
# ReportID: 1 / X:  131 | Y:  128 | Z:  129 | Rz:  127 | Rx:    0 | Ry:    0 | 0xff000020:  128 | Hat switch:   8 | Button: 0  0  0  0  0  0  0  0  0  0  0  0  0  0  0 | 0xff000021: 0 , 0 , 0 , 0 , 0 , 0 , 0 , 0 , 0 , 0 , 0 , 0 , 0 | 0xff000022:   93 ,  128 ,   42 ,  235 ,  246 ,  255 ,  239 ,  255 ,   11 ,    0 ,   55 ,    0 ,   86 ,   31 ,   51 ,    5 ,  229 ,   88 ,  222 ,  219 ,    8 ,  128 ,    0 ,    0 ,    0 ,  128 ,    0 ,    0 ,    0 ,    0 ,    9 ,    9 ,    0 ,    0 ,    0 ,    0 ,    0 ,  151 ,  111 ,  222 ,  219 ,   40 ,    8 ,    0 ,  169 ,  246 ,   97 ,   34 ,  163 ,  128 ,   45 ,   79 
E: 000000.424065 64 01 83 80 81 7f 00 00 80 08 00 00 00 5d 80 2a eb f6 ff ef ff 0b 00 37 00 56 1f 33 05 e5 58 de db 08 80 00 00 00 80 00 00 00 00 09 09 00 00 00 00 00 97 6f de db 28 08 00 a9 f6 61 22 a3 80 2d 4f
# ReportID: 1 / X:  131 | Y:  128 | Z:  129 | Rz:  127 | Rx:    0 | Ry:    0 | 0xff000020:  129 | Hat switch:   8 | Button: 0  0  0  0  0  0  0  0  0  0  0  0  0  0  0 | 0xff000021: 0 , 0 , 0 , 0 , 0 , 0 , 0 , 0 , 0 , 0 , 0 , 0 , 0 | 0xff000022:   94 ,  128 ,   42 ,  235 ,  247 ,  255 ,  238 ,  255 ,   11 ,    0 ,   55 ,    0 ,   90 ,   31 ,   56 ,    5 ,  216 ,  135 ,  222 ,  219 ,    8 ,  128 ,    0 ,    0 ,    0 ,  128 ,    0 ,    0 ,    0 ,    0 ,    9 ,    9 ,    0 ,    0 ,    0 ,    0 ,    0 ,  119 ,  158 ,  222 ,  219 ,   40 ,    8 ,    0 ,   97 ,  165 ,  253 ,   66 ,  231 ,   27 ,   15 ,   70 
E: 000000.429911 64 01 83 80 81 7f 00 00 81 08 00 00 00 5e 80 2a eb f7 ff ee ff 0b 00 37 00 5a 1f 38 05 d8 87 de db 08 80 00 00 00 80 00 00 00 00 09 09 00 00 00 00 00 77 9e de db 28 08 00 61 a5 fd 42 e7 1b 0f 46
