# Sony Interactive Entertainment DualSense Wireless Controller
# 0x05, 0x01,                    // Usage Page (Generic Desktop)        0
# 0x09, 0x05,                    // Usage (Game Pad)                    2
# 0xa1, 0x01,                    // Collection (Application)            4
# 0x85, 0x01,                    //  Report ID (1)                      6
# 0x09, 0x30,                    //  Usage (X)                          8
# 0x09, 0x31,                    //  Usage (Y)                          10
# 0x09, 0x32,                    //  Usage (Z)                          12
# 0x09, 0x35,                    //  Usage (Rz)                         14
# 0x09, 0x33,                    //  Usage (Rx)                         16
# 0x09, 0x34,                    //  Usage (Ry)                         18
# 0x15, 0x00,                    //  Logical Minimum (0)                20
# 0x26, 0xff, 0x00,              //  Logical Maximum (255)              22
# 0x75, 0x08,                    //  Report Size (8)                    25
# 0x95, 0x06,                    //  Report Count (6)                   27
# 0x81, 0x02,                    //  Input (Data,Var,Abs)               29
# 0x06, 0x00, 0xff,              //  Usage Page (Vendor Defined Page 1) 31
# 0x09, 0x20,                    //  Usage (Vendor Usage 0x20)          34
# 0x95, 0x01,                    //  Report Count (1)                   36
# 0x81, 0x02,                    //  Input (Data,Var,Abs)               38
# 0x05, 0x01,                    //  Usage Page (Generic Desktop)       40
# 0x09, 0x39,                    //  Usage (Hat switch)                 42
# 0x15, 0x00,                    //  Logical Minimum (0)                44
# 0x25, 0x07,                    //  Logical Maximum (7)                46
# 0x35, 0x00,                    //  Physical Minimum (0)               48
# 0x46, 0x3b, 0x01,              //  Physical Maximum (315)             50
# 0x65, 0x14,                    //  Unit (EnglishRotation: deg)        53
# 0x75, 0x04,                    //  Report Size (4)                    55
# 0x95, 0x01,                    //  Report Count (1)                   57
# 0x81, 0x42,                    //  Input (Data,Var,Abs,Null)          59
# 0x65, 0x00,                    //  Unit (None)                        61
# 0x05, 0x09,                    //  Usage Page (Button)                63
# 0x19, 0x01,                    //  Usage Minimum (1)                  65
# 0x29, 0x0f,                    //  Usage Maximum (15)                 67
# 0x15, 0x00,                    //  Logical Minimum (0)                69
# 0x25, 0x01,                    //  Logical Maximum (1)                71
# 0x75, 0x01,                    //  Report Size (1)                    73
# 0x95, 0x0f,                    //  Report Count (15)                  75
# 0x81, 0x02,                    //  Input (Data,Var,Abs)               77
# 0x06, 0x00, 0xff,              //  Usage Page (Vendor Defined Page 1) 79
# 0x09, 0x21,                    //  Usage (Vendor Usage 0x21)          82
# 0x95, 0x0d,                    //  Report Count (13)                  84
# 0x81, 0x02,                    //  Input (Data,Var,Abs)               86
# 0x06, 0x00, 0xff,              //  Usage Page (Vendor Defined Page 1) 88
# 0x09, 0x22,                    //  Usage (Vendor Usage 0x22)          91
# 0x15, 0x00,                    //  Logical Minimum (0)                93
# 0x26, 0xff, 0x00,              //  Logical Maximum (255)              95
# 0x75, 0x08,                    //  Report Size (8)                    98
# 0x95, 0x34,                    //  Report Count (52)                  100
# 0x81, 0x02,                    //  Input (Data,Var,Abs)               102
# 0x85, 0x02,                    //  Report ID (2)                      104
# 0x09, 0x23,                    //  Usage (Vendor Usage 0x23)          106
# 0x95, 0x2f,                    //  Report Count (47)                  108
# 0x91, 0x02,                    //  Output (Data,Var,Abs)              110
# 0x85, 0x05,                    //  Report ID (5)                      112
# 0x09, 0x33,                    //  Usage (Vendor Usage 0x33)          114
# 0x95, 0x28,                    //  Report Count (40)                  116
# 0xb1, 0x02,                    //  Feature (Data,Var,Abs)             118
# 0x85, 0x08,                    //  Report ID (8)                      120
# 0x09, 0x34,                    //  Usage (Vendor Usage 0x34)          122
# 0x95, 0x2f,                    //  Report Count (47)                  124
# 0xb1, 0x02,                    //  Feature (Data,Var,Abs)             126
# 0x85, 0x09,                    //  Report ID (9)                      128
# 0x09, 0x24,                    //  Usage (Vendor Usage 0x24)          130
# 0x95, 0x13,                    //  Report Count (19)                  132
# 0xb1, 0x02,                    //  Feature (Data,Var,Abs)             134
# 0x85, 0x0a,                    //  Report ID (10)                     136
# 0x09, 0x25,                    //  Usage (Vendor Usage 0x25)          138
# 0x95, 0x1a,                    //  Report Count (26)                  140
# 0xb1, 0x02,                    //  Feature (Data,Var,Abs)             142
# 0x85, 0x20,                    //  Report ID (32)                     144
# 0x09, 0x26,                    //  Usage (Vendor Usage 0x26)          146
# 0x95, 0x3f,                    //  Report Count (63)                  148
# 0xb1, 0x02,                    //  Feature (Data,Var,Abs)             150
# 0x85, 0x21,                    //  Report ID (33)                     152
# 0x09, 0x27,                    //  Usage (Vendor Usage 0x27)          154
# 0x95, 0x04,                    //  Report Count (4)                   156
# 0xb1, 0x02,                    //  Feature (Data,Var,Abs)             158
# 0x85, 0x22,                    //  Report ID (34)                     160
# 0x09, 0x40,                    //  Usage (Vendor Usage 0x40)          162
# 0x95, 0x3f,                    //  Report Count (63)                  164
# 0xb1, 0x02,                    //  Feature (Data,Var,Abs)             166
# 0x85, 0x80,                    //  Report ID (128)                    168
# 0x09, 0x28,                    //  Usage (Vendor Usage 0x28)          170
# 0x95, 0x3f,                    //  Report Count (63)                  172
# 0xb1, 0x02,                    //  Feature (Data,Var,Abs)             174
# 0x85, 0x81,                    //  Report ID (129)                    176
# 0x09, 0x29,                    //  Usage (Vendor Usage 0x29)          178
# 0x95, 0x3f,                    //  Report Count (63)                  180
# 0xb1, 0x02,                    //  Feature (Data,Var,Abs)             182
# 0x85, 0x82,                    //  Report ID (130)                    184
# 0x09, 0x2a,                    //  Usage (Vendor Usage 0x2a)          186
# 0x95, 0x09,                    //  Report Count (9)                   188
# 0xb1, 0x02,                    //  Feature (Data,Var,Abs)             190
# 0x85, 0x83,                    //  Report ID (131)                    192
# 0x09, 0x2b,                    //  Usage (Vendor Usage 0x2b)          194
# 0x95, 0x3f,                    //  Report Count (63)                  196
# 0xb1, 0x02,                    //  Feature (Data,Var,Abs)             198
# 0x85, 0x84,                    //  Report ID (132)                    200
# 0x09, 0x2c,                    //  Usage (Vendor Usage 0x2c)          202
# 0x95, 0x3f,                    //  Report Count (63)                  204
# 0xb1, 0x02,                    //  Feature (Data,Var,Abs)             206
# 0x85, 0x85,                    //  Report ID (133)                    208
# 0x09, 0x2d,                    //  Usage (Vendor Usage 0x2d)          210
# 0x95, 0x02,                    //  Report Count (2)                   212
# 0xb1, 0x02,                    //  Feature (Data,Var,Abs)             214
# 0x85, 0xa0,                    //  Report ID (160)                    216
# 0x09, 0x2e,                    //  Usage (Vendor Usage 0x2e)          218
# 0x95, 0x01,                    //  Report Count (1)                   220
# 0xb1, 0x02,                    //  Feature (Data,Var,Abs)             222
# 0x85, 0xe0,                    //  Report ID (224)                    224
# 0x09, 0x2f,                    //  Usage (Vendor Usage 0x2f)          226
# 0x95, 0x3f,                    //  Report Count (63)                  228
# 0xb1, 0x02,                    //  Feature (Data,Var,Abs)             230
# 0x85, 0xf0,                    //  Report ID (240)                    232
# 0x09, 0x30,                    //  Usage (Vendor Usage 0x30)          234
# 0x95, 0x3f,                    //  Report Count (63)                  236
# 0xb1, 0x02,                    //  Feature (Data,Var,Abs)             238
# 0x85, 0xf1,                    //  Report ID (241)                    240
# 0x09, 0x31,                    //  Usage (Vendor Usage 0x31)          242
# 0x95, 0x3f,                    //  Report Count (63)                  244
# 0xb1, 0x02,                    //  Feature (Data,Var,Abs)             246
# 0x85, 0xf2,                    //  Report ID (242)                    248
# 0x09, 0x32,                    //  Usage (Vendor Usage 0x32)          250
# 0x95, 0x0f,                    //  Report Count (15)                  252
# 0xb1, 0x02,                    //  Feature (Data,Var,Abs)             254
# 0x85, 0xf4,                    //  Report ID (244)                    256
# 0x09, 0x35,                    //  Usage (Vendor Usage 0x35)          258
# 0x95, 0x3f,                    //  Report Count (63)                  260
# 0xb1, 0x02,                    //  Feature (Data,Var,Abs)             262
# 0x85, 0xf5,                    //  Report ID (245)                    264
# 0x09, 0x36,                    //  Usage (Vendor Usage 0x36)          266
# 0x95, 0x03,                    //  Report Count (3)                   268
# 0xb1, 0x02,                    //  Feature (Data,Var,Abs)             270
# 0xc0,                          // End Collection                      272
# 
R: 273 05 01 09 05 a1 01 85 01 09 30 09 31 09 32 09 35 09 33 09 34 15 00 26 ff 00 75 08 95 06 81 02 06 00 ff 09 20 95 01 81 02 05 01 09 39 15 00 25 07 35 00 46 3b 01 65 14 75 04 95 01 81 42 65 00 05 09 19 01 29 0f 15 00 25 01 75 01 95 0f 81 02 06 00 ff 09 21 95 0d 81 02 06 00 ff 09 22 15 00 26 ff 00 75 08 95 34 81 02 85 02 09 23 95 2f 91 02 85 05 09 33 95 28 b1 02 85 08 09 34 95 2f b1 02 85 09 09 24 95 13 b1 02 85 0a 09 25 95 1a b1 02 85 20 09 26 95 3f b1 02 85 21 09 27 95 04 b1 02 85 22 09 40 95 3f b1 02 85 80 09 28 95 3f b1 02 85 81 09 29 95 3f b1 02 85 82 09 2a 95 09 b1 02 85 83 09 2b 95 3f b1 02 85 84 09 2c 95 3f b1 02 85 85 09 2d 95 02 b1 02 85 a0 09 2e 95 01 b1 02 85 e0 09 2f 95 3f b1 02 85 f0 09 30 95 3f b1 02 85 f1 09 31 95 3f b1 02 85 f2 09 32 95 0f b1 02 85 f4 09 35 95 3f b1 02 85 f5 09 36 95 03 b1 02 c0
N: Sony Interactive Entertainment DualSense Wireless Controller
I: 3 054c 0ce6
# ReportID: 1 / X:  129 | Y:  127 | Z:  129 | Rz:  129 | Rx:    0 | Ry:    0 | 0xff000020:    5 | Hat switch:   8 | Button: 0  0  0  0  0  0  0  0  0  0  0  0  0  0  0 | 0xff000021: 0 , 0 , 0 , 0 , 0 , 0 , 0 , 0 , 0 , 0 , 0 , 0 , 0 | 0xff000022:  226 ,    7 ,   42 ,  235 ,  245 ,  255 ,  239 ,  255 ,    9 ,    0 ,   47 ,    0 ,   85 ,   31 ,   37 ,    5 ,  245 ,  225 ,  206 ,  197 ,    7 ,  128 ,    0 ,    0 ,    0 ,  128 ,    0 ,    0 ,    0 ,    0 ,    9 ,    9 ,    0 ,    0 ,    0 ,    0 ,    0 ,  169 ,  245 ,  206 ,  197 ,   40 ,    8 ,    0 ,   98 ,   18 ,   37 ,  192 ,  101 ,  169 ,   31 ,  209 
E: 000000.000000 64 01 81 7f 81 81 00 00 05 08 00 00 00 e2 07 2a eb f5 ff ef ff 09 00 2f 00 55 1f 25 05 f5 e1 ce c5 07 80 00 00 00 80 00 00 00 00 09 09 00 00 00 00 00 a9 f5 ce c5 28 08 00 62 12 25 c0 65 a9 1f d1
# ReportID: 1 / X:  129 | Y:  127 | Z:  129 | Rz:  129 | Rx:    0 | Ry:    0 | 0xff000020:    6 | Hat switch:   8 | Button: 0  0  0  0  0  0  0  0  0  0  0  0  0  0  0 | 0xff000021: 0 , 0 , 0 , 0 , 0 , 0 , 0 , 0 , 0 , 0 , 0 , 0 , 0 | 0xff000022:  227 ,    7 ,   42 ,  235 ,  247 ,  255 ,  238 ,  255 ,    9 ,    0 ,   34 ,    0 ,   28 ,   31 ,   38 ,    5 ,  232 ,   16 ,  207 ,  197 ,    7 ,  128 ,    0 ,    0 ,    0 ,  128 ,    0 ,    0 ,    0 ,    0 ,    9 ,    9 ,    0 ,    0 ,    0 ,    0 ,    0 ,  137 ,   36 ,  207 ,  197 ,   40 ,    8 ,    0 ,  249 ,   17 ,   90 ,  156 ,  100 ,  164 ,  222 ,  177 
E: 000000.002106 64 01 81 7f 81 81 00 00 06 08 00 00 00 e3 07 2a eb f7 ff ee ff 09 00 22 00 1c 1f 26 05 e8 10 cf c5 07 80 00 00 00 80 00 00 00 00 09 09 00 00 00 00 00 89 24 cf c5 28 08 00 f9 11 5a 9c 64 a4 de b1
# ReportID: 1 / X:  129 | Y:  127 | Z:  129 | Rz:  129 | Rx:    0 | Ry:    0 | 0xff000020:    7 | Hat switch:   8 | Button: 0  0  0  0  0  0  0  0  0  0  0  0  0  0  0 | 0xff000021: 0 , 0 , 0 , 0 , 0 , 0 , 0 , 0 , 0 , 0 , 0 , 0 , 0 | 0xff000022:  228 ,    7 ,   42 ,  235 ,  247 ,  255 ,  238 ,  255 ,   10 ,    0 ,   51 ,    0 ,   92 ,   31 ,   48 ,    5 ,  219 ,   63 ,  207 ,  197 ,    7 ,  128 ,    0 ,    0 ,    0 ,  128 ,    0 ,    0 ,    0 ,    0 ,    9 ,    9 ,    0 ,    0 ,    0 ,    0 ,    0 ,  105 ,   83 ,  207 ,  197 ,   40 ,    8 ,    0 ,  153 ,  120 ,   65 ,  172 ,  198 ,  104 ,  138 ,   92 
E: 000000.005973 64 01 81 7f 81 81 00 00 07 08 00 00 00 e4 07 2a eb f7 ff ee ff 0a 00 33 00 5c 1f 30 05 db 3f cf c5 07 80 00 00 00 80 00 00 00 00 09 09 00 00 00 00 00 69 53 cf c5 28 08 00 99 78 41 ac c6 68 8a 5c
# ReportID: 1 / X:  129 | Y:  126 | Z:  129 | Rz:  129 | Rx:    0 | Ry:    0 | 0xff000020:    8 | Hat switch:   8 | Button: 0  0  0  0  0  0  0  0  0  0  0  0  0  0  0 | 0xff000021: 0 , 0 , 0 , 0 , 0 , 0 , 0 , 0 , 0 , 0 , 0 , 0 , 0 | 0xff000022:  229 ,    7 ,   42 ,  235 ,  246 ,  255 ,  239 ,  255 ,    9 ,    0 ,   55 ,    0 ,  135 ,   31 ,   65 ,    5 ,  206 ,  110 ,  207 ,  197 ,    7 ,  128 ,    0 ,    0 ,    0 ,  128 ,    0 ,    0 ,    0 ,    0 ,    9 ,    9 ,    0 ,    0 ,    0 ,    0 ,    0 ,   73 ,  130 ,  207 ,  197 ,   40 ,    8 ,    0 ,    3 ,   77 ,  190 ,   34 ,  157 ,  199 ,   95 ,  106 
E: 000000.009753 64 01 81 7e 81 81 00 00 08 08 00 00 00 e5 07 2a eb f6 ff ef ff 09 00 37 00 87 1f 41 05 ce 6e cf c5 07 80 00 00 00 80 00 00 00 00 09 09 00 00 00 00 00 49 82 cf c5 28 08 00 03 4d be 22 9d c7 5f 6a
# ReportID: 1 / X:  129 | Y:  127 | Z:  129 | Rz:  129 | Rx:    0 | Ry:    0 | 0xff000020:    9 | Hat switch:   8 | Button: 0  0  0  0  0  0  0  0  0  0  0  0  0  0  0 | 0xff000021: 0 , 0 , 0 , 0 , 0 , 0 , 0 , 0 , 0 , 0 , 0 , 0 , 0 | 0xff000022:  230 ,    7 ,   42 ,  235 ,  246 ,  255 ,  238 ,  255 ,    9 ,    0 ,   42 ,    0 ,   80 ,   31 ,   70 ,    5 ,  193 ,  157 ,  207 ,  197 ,    7 ,  128 ,    0 ,    0 ,    0 ,  128 ,    0 ,    0 ,    0 ,    0 ,    9 ,    9 ,    0 ,    0 ,    0 ,    0 ,    0 ,   41 ,  177 ,  207 ,  197 ,   40 ,    8 ,    0 ,  113 ,  167 ,   93 ,  171 ,   41 ,   43 ,  200 ,   21 
E: 000000.014095 64 01 81 7f 81 81 00 00 09 08 00 00 00 e6 07 2a eb f6 ff ee ff 09 00 2a 00 50 1f 46 05 c1 9d cf c5 07 80 00 00 00 80 00 00 00 00 09 09 00 00 00 00 00 29 b1 cf c5 28 08 00 71 a7 5d ab 29 2b c8 15
# ReportID: 1 / X:  129 | Y:  127 | Z:  129 | Rz:  129 | Rx:    0 | Ry:    0 | 0xff000020:   10 | Hat switch:   8 | Button: 0  0  0  0  0  0  0  0  0  0  0  0  0  0  0 | 0xff000021: 0 , 0 , 0 , 0 , 0 , 0 , 0 , 0 , 0 , 0 , 0 , 0 , 0 | 0xff000022:  231 ,    7 ,   42 ,  235 ,  246 ,  255 ,  238 ,  255 ,   10 ,    0 ,   47 ,    0 ,   96 ,   31 ,   50 ,    5 ,  180 ,  204 ,  207 ,  197 ,    7 ,  128 ,    0 ,    0 ,    0 ,  128 ,    0 ,    0 ,    0 ,    0 ,    9 ,    9 ,    0 ,    0 ,    0 ,    0 ,    0 ,    9 ,  224 ,  207 ,  197 ,   40 ,    8 ,    0 ,   15 ,  161 ,   37 ,  112 ,  130 ,  215 ,  111 ,   31 
E: 000000.018053 64 01 81 7f 81 81 00 00 0a 08 00 00 00 e7 07 2a eb f6 ff ee ff 0a 00 2f 00 60 1f 32 05 b4 cc cf c5 07 80 00 00 00 80 00 00 00 00 09 09 00 00 00 00 00 09 e0 cf c5 28 08 00 0f a1 25 70 82 d7 6f 1f
# ReportID: 1 / X:  129 | Y:  127 | Z:  129 | Rz:  129 | Rx:    0 | Ry:    0 | 0xff000020:   11 | Hat switch:   8 | Button: 0  0  0  0  0  0  0  0  0  0  0  0  0  0  0 | 0xff000021: 0 , 0 , 0 , 0 , 0 , 0 , 0 , 0 , 0 , 0 , 0 , 0 , 0 | 0xff000022:  232 ,    7 ,   42 ,  235 ,  246 ,  255 ,  238 ,  255 ,    9 ,    0 ,   48 ,    0 ,  101 ,   31 ,   51 ,    5 ,  167 ,  251 ,  207 ,  197 ,    7 ,  128 ,    0 ,    0 ,    0 ,  128 ,    0 ,    0 ,    0 ,    0 ,    9 ,    9 ,    0 ,    0 ,    0 ,    0 ,    0 ,  233 ,   14 ,  208 ,  197 ,   40 ,    8 ,    0 ,  131 ,  232 ,  120 ,  150 ,  122 ,  206 ,   17 ,  156 
E: 000000.023103 64 01 81 7f 81 81 00 00 0b 08 00 00 00 e8 07 2a eb f6 ff ee ff 09 00 30 00 65 1f 33 05 a7 fb cf c5 07 80 00 00 00 80 00 00 00 00 09 09 00 00 00 00 00 e9 0e d0 c5 28 08 00 83 e8 78 96 7a ce 11 9c
# ReportID: 1 / X:  129 | Y:  127 | Z:  129 | Rz:  129 | Rx:    0 | Ry:    0 | 0xff000020:   12 | Hat switch:   8 | Button: 0  0  0  0  0  0  0  0  0  0  0  0  0  0  0 | 0xff000021: 0 , 0 , 0 , 0 , 0 , 0 , 0 , 0 , 0 , 0 , 0 , 0 , 0 | 0xff000022:  233 ,    7 ,   42 ,  235 ,  246 ,  255 ,  238 ,  255 ,    9 ,    0 ,   60 ,    0 ,   40 ,   31 ,   69 ,    5 ,  154 ,   42 ,  208 ,  197 ,    7 ,  128 ,    0 ,    0 ,    0 ,  128 ,    0 ,    0 ,    0 ,    0 ,    9 ,    9 ,    0 ,    0 ,    0 ,    0 ,    0 ,  201 ,   61 ,  208 ,  197 ,   40 ,    8 ,    0 ,   11 ,   20 ,   19 ,  196 ,   32 ,   69 ,   59 ,  173 
E: 000000.026967 64 01 81 7f 81 81 00 00 0c 08 00 00 00 e9 07 2a eb f6 ff ee ff 09 00 3c 00 28 1f 45 05 9a 2a d0 c5 07 80 00 00 00 80 00 00 00 00 09 09 00 00 00 00 00 c9 3d d0 c5 28 08 00 0b 14 13 c4 20 45 3b ad
# ReportID: 1 / X:  129 | Y:  127 | Z:  129 | Rz:  129 | Rx:    0 | Ry:    0 | 0xff000020:   13 | Hat switch:   8 | Button: 0  0  0  0  0  0  0  0  0  0  0  0  0  0  0 | 0xff000021: 0 , 0 , 0 , 0 , 0 , 0 , 0 , 0 , 0 , 0 , 0 , 0 , 0 | 0xff000022:  234 ,    7 ,   42 ,  235 ,  246 ,  255 ,  238 ,  255 ,   10 ,    0 ,   39 ,    0 ,   32 ,   31 ,   63 ,    5 ,  141 ,   89 ,  208 ,  197 ,    7 ,  128 ,    0 ,    0 ,    0 ,  128 ,    0 ,    0 ,    0 ,    0 ,    9 ,    9 ,    0 ,    0 ,    0 ,    0 ,    0 ,  169 ,  108 ,  208 ,  197 ,   40 ,    8 ,    0 ,   37 ,   66 ,  130 ,  118 ,  104 ,   32 ,   44 ,  141 
E: 000000.030098 64 01 81 7f 81 81 00 00 0d 08 00 00 00 ea 07 2a eb f6 ff ee ff 0a 00 27 00 20 1f 3f 05 8d 59 d0 c5 07 80 00 00 00 80 00 00 00 00 09 09 00 00 00 00 00 a9 6c d0 c5 28 08 00 25 42 82 76 68 20 2c 8d
# ReportID: 1 / X:  129 | Y:  127 | Z:  129 | Rz:  129 | Rx:    0 | Ry:    0 | 0xff000020:   14 | Hat switch:   8 | Button: 0  0  0  0  0  0  0  0  0  0  0  0  0  0  0 | 0xff000021: 0 , 0 , 0 , 0 , 0 , 0 , 0 , 0 , 0 , 0 , 0 , 0 , 0 | 0xff000022:  235 ,    7 ,   42 ,  235 ,  247 ,  255 ,  239 ,  255 ,   10 ,    0 ,   60 ,    0 ,   98 ,   31 ,   61 ,    5 ,  128 ,  136 ,  208 ,  197 ,    7 ,  128 ,    0 ,    0 ,    0 ,  128 ,    0 ,    0 ,    0 ,    0 ,    9 ,    9 ,    0 ,    0 ,    0 ,    0 ,    0 ,  137 ,  155 ,  208 ,  197 ,   40 ,    8 ,    0 ,  210 ,  168 ,  103 ,  204 ,  185 ,  222 ,   88 ,  162 
E: 000000.034996 64 01 81 7f 81 81 00 00 0e 08 00 00 00 eb 07 2a eb f7 ff ef ff 0a 00 3c 00 62 1f 3d 05 80 88 d0 c5 07 80 00 00 00 80 00 00 00 00 09 09 00 00 00 00 00 89 9b d0 c5 28 08 00 d2 a8 67 cc b9 de 58 a2
# ReportID: 1 / X:  129 | Y:  127 | Z:  129 | Rz:  129 | Rx:    0 | Ry:    0 | 0xff000020:   15 | Hat switch:   8 | Button: 0  0  0  0  0  0  0  0  0  0  0  0  0  0  0 | 0xff000021: 0 , 0 , 0 , 0 , 0 , 0 , 0 , 0 , 0 , 0 , 0 , 0 , 0 | 0xff000022:  236 ,    7 ,   42 ,  235 ,  246 ,  255 ,  238 ,  255 ,    9 ,    0 ,   54 ,    0 ,  102 ,   31 ,   69 ,    5 ,  115 ,  183 ,  208 ,  197 ,    7 ,  128 ,    0 ,    0 ,    0 ,  128 ,    0 ,    0 ,    0 ,    0 ,    9 ,    9 ,    0 ,    0 ,    0 ,    0 ,    0 ,  105 ,  202 ,  208 ,  197 ,   40 ,    8 ,    0 ,  170 ,  211 ,   88 ,   63 ,  217 ,  207 ,  220 ,  138 
E: 000000.038099 64 01 81 7f 81 81 00 00 0f 08 00 00 00 ec 07 2a eb f6 ff ee ff 09 00 36 00 66 1f 45 05 73 b7 d0 c5 07 80 00 00 00 80 00 00 00 00 09 09 00 00 00 00 00 69 ca d0 c5 28 08 00 aa d3 58 3f d9 cf dc 8a
# ReportID: 1 / X:  129 | Y:  127 | Z:  129 | Rz:  129 | Rx:    0 | Ry:    0 | 0xff000020:   16 | Hat switch:   8 | Button: 0  0  0  0  0  0  0  0  0  0  0  0  0  0  0 | 0xff000021: 0 , 0 , 0 , 0 , 0 , 0 , 0 , 0 , 0 , 0 , 0 , 0 , 0 | 0xff000022:  237 ,    7 ,   42 ,  235 ,  246 ,  255 ,  238 ,  255 ,   11 ,    0 ,   41 ,    0 ,   97 ,   31 ,   69 ,    5 ,  102 ,  230 ,  208 ,  197 ,    7 ,  128 ,    0 ,    0 ,    0 ,  128 ,    0 ,    0 ,    0 ,    0 ,    9 ,    9 ,    0 ,    0 ,    0 ,    0 ,    0 ,   73 ,  249 ,  208 ,  197 ,   40 ,    8 ,    0 ,   20 ,  233 ,  140 ,  156 ,  173 ,  113 ,   74 ,  157 
E: 000000.041985 64 01 81 7f 81 81 00 00 10 08 00 00 00 ed 07 2a eb f6 ff ee ff 0b 00 29 00 61 1f 45 05 66 e6 d0 c5 07 80 00 00 00 80 00 00 00 00 09 09 00 00 00 00 00 49 f9 d0 c5 28 08 00 14 e9 8c 9c ad 71 4a 9d
# ReportID: 1 / X:  129 | Y:  127 | Z:  129 | Rz:  129 | Rx:    0 | Ry:    0 | 0xff000020:   17 | Hat switch:   8 | Button: 0  0  0  0  0  0  0  0  0  0  0  0  0  0  0 | 0xff000021: 0 , 0 , 0 , 0 , 0 , 0 , 0 , 0 , 0 , 0 , 0 , 0 , 0 | 0xff000022:  238 ,    7 ,   42 ,  235 ,  246 ,  255 ,  239 ,  255 ,   10 ,    0 ,   45 ,    0 ,   83 ,   31 ,   60 ,    5 ,   89 ,   21 ,  209 ,  197 ,    7 ,  128 ,    0 ,    0 ,    0 ,  128 ,    0 ,    0 ,    0 ,    0 ,    9 ,    9 ,    0 ,    0 ,    0 ,    0 ,    0 ,   41 ,   40 ,  209 ,  197 ,   40 ,    8 ,    0 ,  143 ,  175 ,  112 ,  165 ,  230 ,   65 ,   27 ,  142 
E: 000000.045970 64 01 81 7f 81 81 00 00 11 08 00 00 00 ee 07 2a eb f6 ff ef ff 0a 00 2d 00 53 1f 3c 05 59 15 d1 c5 07 80 00 00 00 80 00 00 00 00 09 09 00 00 00 00 00 29 28 d1 c5 28 08 00 8f af 70 a5 e6 41 1b 8e
# ReportID: 1 / X:  129 | Y:  127 | Z:  129 | Rz:  129 | Rx:    0 | Ry:    0 | 0xff000020:   18 | Hat switch:   8 | Button: 0  0  0  0  0  0  0  0  0  0  0  0  0  0  0 | 0xff000021: 0 , 0 , 0 , 0 , 0 , 0 , 0 , 0 , 0 , 0 , 0 , 0 , 0 | 0xff000022:  239 ,    7 ,   42 ,  235 ,  246 ,  255 ,  238 ,  255 ,    9 ,    0 ,   51 ,    0 ,   56 ,   31 ,   59 ,    5 ,   76 ,   68 ,  209 ,  197 ,    7 ,  128 ,    0 ,    0 ,    0 ,  128 ,    0 ,    0 ,    0 ,    0 ,    9 ,    9 ,    0 ,    0 ,    0 ,    0 ,    0 ,    9 ,   87 ,  209 ,  197 ,   40 ,    8 ,    0 ,   12 ,   53 ,  198 ,   63 ,  176 ,   63 ,  187 ,  160 
E: 000000.050097 64 01 81 7f 81 81 00 00 12 08 00 00 00 ef 07 2a eb f6 ff ee ff 09 00 33 00 38 1f 3b 05 4c 44 d1 c5 07 80 00 00 00 80 00 00 00 00 09 09 00 00 00 00 00 09 57 d1 c5 28 08 00 0c 35 c6 3f b0 3f bb a0
# ReportID: 1 / X:  129 | Y:  127 | Z:  129 | Rz:  129 | Rx:    0 | Ry:    0 | 0xff000020:   19 | Hat switch:   8 | Button: 0  0  0  0  0  0  0  0  0  0  0  0  0  0  0 | 0xff000021: 0 , 0 , 0 , 0 , 0 , 0 , 0 , 0 , 0 , 0 , 0 , 0 , 0 | 0xff000022:  240 ,    7 ,   42 ,  235 ,  246 ,  255 ,  238 ,  255 ,    9 ,    0 ,   41 ,    0 ,   51 ,   31 ,   50 ,    5 ,   63 ,  115 ,  209 ,  197 ,    7 ,  128 ,    0 ,    0 ,    0 ,  128 ,    0 ,    0 ,    0 ,    0 ,    9 ,    9 ,    0 ,    0 ,    0 ,    0 ,    0 ,  233 ,  133 ,  209 ,  197 ,   40 ,    8 ,    0 ,  178 ,  230 ,  234 ,  133 ,   98 ,   56 ,  200 ,   80 
E: 000000.054064 64 01 81 7f 81 81 00 00 13 08 00 00 00 f0 07 2a eb f6 ff ee ff 09 00 29 00 33 1f 32 05 3f 73 d1 c5 07 80 00 00 00 80 00 00 00 00 09 09 00 00 00 00 00 e9 85 d1 c5 28 08 00 b2 e6 ea 85 62 38 c8 50
# ReportID: 1 / X:  129 | Y:  127 | Z:  129 | Rz:  129 | Rx:    0 | Ry:    0 | 0xff000020:   20 | Hat switch:   8 | Button: 0  0  0  0  0  0  0  0  0  0  0  0  0  0  0 | 0xff000021: 0 , 0 , 0 , 0 , 0 , 0 , 0 , 0 , 0 , 0 , 0 , 0 , 0 | 0xff000022:  241 ,    7 ,   42 ,  235 ,  246 ,  255 ,  239 ,  255 ,    9 ,    0 ,   47 ,    0 ,   72 ,   31 ,   62 ,    5 ,   50 ,  162 ,  209 ,  197 ,    7 ,  128 ,    0 ,    0 ,    0 ,  128 ,    0 ,    0 ,    0 ,    0 ,    9 ,    9 ,    0 ,    0 ,    0 ,    0 ,    0 ,  201 ,  180 ,  209 ,  197 ,   40 ,    8 ,    0 ,  232 ,  130 ,  140 ,   66 ,   37 ,   84 ,  118 ,  135 
E: 000000.057849 64 01 81 7f 81 81 00 00 14 08 00 00 00 f1 07 2a eb f6 ff ef ff 09 00 2f 00 48 1f 3e 05 32 a2 d1 c5 07 80 00 00 00 80 00 00 00 00 09 09 00 00 00 00 00 c9 b4 d1 c5 28 08 00 e8 82 8c 42 25 54 76 87
# ReportID: 1 / X:  129 | Y:  127 | Z:  129 | Rz:  129 | Rx:    0 | Ry:    0 | 0xff000020:   21 | Hat switch:   8 | Button: 0  0  0  0  0  0  0  0  0  0  0  0  0  0  0 | 0xff000021: 0 , 0 , 0 , 0 , 0 , 0 , 0 , 0 , 0 , 0 , 0 , 0 , 0 | 0xff000022:  242 ,    7 ,   42 ,  235 ,  247 ,  255 ,  238 ,  255 ,    9 ,    0 ,   39 ,    0 ,  103 ,   31 ,   63 ,    5 ,   37 ,  209 ,  209 ,  197 ,    7 ,  128 ,    0 ,    0 ,    0 ,  128 ,    0 ,    0 ,    0 ,    0 ,    9 ,    9 ,    0 ,    0 ,    0 ,    0 ,    0 ,  169 ,  227 ,  209 ,  197 ,   40 ,    8 ,    0 ,   10 ,  125 ,  130 ,  198 ,  244 ,    8 ,  241 ,  202 
E: 000000.061939 64 01 81 7f 81 81 00 00 15 08 00 00 00 f2 07 2a eb f7 ff ee ff 09 00 27 00 67 1f 3f 05 25 d1 d1 c5 07 80 00 00 00 80 00 00 00 00 09 09 00 00 00 00 00 a9 e3 d1 c5 28 08 00 0a 7d 82 c6 f4 08 f1 ca
# ReportID: 1 / X:  129 | Y:  127 | Z:  129 | Rz:  129 | Rx:    0 | Ry:    0 | 0xff000020:   22 | Hat switch:   8 | Button: 0  0  0  0  0  0  0  0  0  0  0  0  0  0  0 | 0xff000021: 0 , 0 , 0 , 0 , 0 , 0 , 0 , 0 , 0 , 0 , 0 , 0 , 0 | 0xff000022:  243 ,    7 ,   42 ,  235 ,  246 ,  255 ,  238 ,  255 ,   10 ,    0 ,   48 ,    0 ,   89 ,   31 ,   55 ,    5 ,   24 ,    0 ,  210 ,  197 ,    7 ,  128 ,    0 ,    0 ,    0 ,  128 ,    0 ,    0 ,    0 ,    0 ,    9 ,    9 ,    0 ,    0 ,    0 ,    0 ,    0 ,  137 ,   18 ,  210 ,  197 ,   40 ,    8 ,    0 ,  198 ,   92 ,  174 ,    1 ,   82 ,   63 ,   58 ,  104 
E: 000000.067579 64 01 81 7f 81 81 00 00 16 08 00 00 00 f3 07 2a eb f6 ff ee ff 0a 00 30 00 59 1f 37 05 18 00 d2 c5 07 80 00 00 00 80 00 00 00 00 09 09 00 00 00 00 00 89 12 d2 c5 28 08 00 c6 5c ae 01 52 3f 3a 68
# ReportID: 1 / X:  129 | Y:  127 | Z:  129 | Rz:  129 | Rx:    0 | Ry:    0 | 0xff000020:   23 | Hat switch:   8 | Button: 0  0  0  0  0  0  0  0  0  0  0  0  0  0  0 | 0xff000021: 0 , 0 , 0 , 0 , 0 , 0 , 0 , 0 , 0 , 0 , 0 , 0 , 0 | 0xff000022:  244 ,    7 ,   42 ,  235 ,  247 ,  255 ,  238 ,  255 ,   10 ,    0 ,   46 ,    0 ,   77 ,   31 ,   52 ,    5 ,   11 ,   47 ,  210 ,  197 ,    7 ,  128 ,    0 ,    0 ,    0 ,  128 ,    0 ,    0 ,    0 ,    0 ,    9 ,    9 ,    0 ,    0 ,    0 ,    0 ,    0 ,  105 ,   65 ,  210 ,  197 ,   40 ,    8 ,    0 ,  181 ,  107 ,  217 ,   49 ,  144 ,   81 ,   88 ,  127 
E: 000000.071343 64 01 81 7f 81 81 00 00 17 08 00 00 00 f4 07 2a eb f7 ff ee ff 0a 00 2e 00 4d 1f 34 05 0b 2f d2 c5 07 80 00 00 00 80 00 00 00 00 09 09 00 00 00 00 00 69 41 d2 c5 28 08 00 b5 6b d9 31 90 51 58 7f
# ReportID: 1 / X:  129 | Y:  127 | Z:  129 | Rz:  129 | Rx:    0 | Ry:    0 | 0xff000020:   24 | Hat switch:   8 | Button: 0  0  0  0  0  0  0  0  0  0  0  0  0  0  0 | 0xff000021: 0 , 0 , 0 , 0 , 0 , 0 , 0 , 0 , 0 , 0 , 0 , 0 , 0 | 0xff000022:  245 ,    7 ,   42 ,  235 ,  247 ,  255 ,  238 ,  255 ,   10 ,    0 ,   46 ,    0 ,   79 ,   31 ,   50 ,    5 ,  254 ,   93 ,  210 ,  197 ,    7 ,  128 ,    0 ,    0 ,    0 ,  128 ,    0 ,    0 ,    0 ,    0 ,    9 ,    9 ,    0 ,    0 ,    0 ,    0 ,    0 ,   73 ,  112 ,  210 ,  197 ,   40 ,    8 ,    0 ,    4 ,   35 ,   80 ,  223 ,   15 ,   15 ,   98 ,   93 
E: 000000.074737 64 01 81 7f 81 81 00 00 18 08 00 00 00 f5 07 2a eb f7 ff ee ff 0a 00 2e 00 4f 1f 32 05 fe 5d d2 c5 07 80 00 00 00 80 00 00 00 00 09 09 00 00 00 00 00 49 70 d2 c5 28 08 00 04 23 50 df 0f 0f 62 5d
# ReportID: 1 / X:  129 | Y:  127 | Z:  129 | Rz:  129 | Rx:    0 | Ry:    0 | 0xff000020:   25 | Hat switch:   8 | Button: 0  0  0  0  0  0  0  0  0  0  0  0  0  0  0 | 0xff000021: 0 , 0 , 0 , 0 , 0 , 0 , 0 , 0 , 0 , 0 , 0 , 0 , 0 | 0xff000022:  246 ,    7 ,   42 ,  235 ,  247 ,  255 ,  238 ,  255 ,   10 ,    0 ,   45 ,    0 ,   81 ,   31 ,   53 ,    5 ,  241 ,  140 ,  210 ,  197 ,    7 ,  128 ,    0 ,    0 ,    0 ,  128 ,    0 ,    0 ,    0 ,    0 ,    9 ,    9 ,    0 ,    0 ,    0 ,    0 ,    0 ,   41 ,  159 ,  210 ,  197 ,   40 ,    8 ,    0 ,  227 ,  208 ,  226 ,  242 ,   78 ,  161 ,   70 ,  159 
E: 000000.077908 64 01 81 7f 81 81 00 00 19 08 00 00 00 f6 07 2a eb f7 ff ee ff 0a 00 2d 00 51 1f 35 05 f1 8c d2 c5 07 80 00 00 00 80 00 00 00 00 09 09 00 00 00 00 00 29 9f d2 c5 28 08 00 e3 d0 e2 f2 4e a1 46 9f
# ReportID: 1 / X:  129 | Y:  127 | Z:  129 | Rz:  129 | Rx:    0 | Ry:    0 | 0xff000020:   26 | Hat switch:   8 | Button: 0  0  0  0  0  0  0  0  0  0  0  0  0  0  0 | 0xff000021: 0 , 0 , 0 , 0 , 0 , 0 , 0 , 0 , 0 , 0 , 0 , 0 , 0 | 0xff000022:  247 ,    7 ,   42 ,  235 ,  247 ,  255 ,  238 ,  255 ,   10 ,    0 ,   52 ,    0 ,   89 ,   31 ,   48 ,    5 ,  228 ,  187 ,  210 ,  197 ,    7 ,  128 ,    0 ,    0 ,    0 ,  128 ,    0 ,    0 ,    0 ,    0 ,    9 ,    9 ,    0 ,    0 ,    0 ,    0 ,    0 ,    9 ,  206 ,  210 ,  197 ,   40 ,    8 ,    0 ,   89 ,  230 ,  141 ,  175 ,  144 ,  208 ,   45 ,  109 
E: 000000.083505 64 01 81 7f 81 81 00 00 1a 08 00 00 00 f7 07 2a eb f7 ff ee ff 0a 00 34 00 59 1f 30 05 e4 bb d2 c5 07 80 00 00 00 80 00 00 00 00 09 09 00 00 00 00 00 09 ce d2 c5 28 08 00 59 e6 8d af 90 d0 2d 6d
# ReportID: 1 / X:  129 | Y:  127 | Z:  129 | Rz:  129 | Rx:    0 | Ry:    0 | 0xff000020:   27 | Hat switch:   8 | Button: 0  0  0  0  0  0  0  0  0  0  0  0  0  0  0 | 0xff000021: 0 , 0 , 0 , 0 , 0 , 0 , 0 , 0 , 0 , 0 , 0 , 0 , 0 | 0xff000022:  248 ,    7 ,   42 ,  235 ,  249 ,  255 ,  239 ,  255 ,    9 ,    0 ,   53 ,    0 ,   90 ,   31 ,   50 ,    5 ,  215 ,  234 ,  210 ,  197 ,    7 ,  128 ,    0 ,    0 ,    0 ,  128 ,    0 ,    0 ,    0 ,    0 ,    9 ,    9 ,    0 ,    0 ,    0 ,    0 ,    0 ,  233 ,  252 ,  210 ,  197 ,   40 ,    8 ,    0 ,  214 ,   57 ,  213 ,   43 ,  210 ,  201 ,   91 ,  137 
E: 000000.085948 64 01 81 7f 81 81 00 00 1b 08 00 00 00 f8 07 2a eb f9 ff ef ff 09 00 35 00 5a 1f 32 05 d7 ea d2 c5 07 80 00 00 00 80 00 00 00 00 09 09 00 00 00 00 00 e9 fc d2 c5 28 08 00 d6 39 d5 2b d2 c9 5b 89
# ReportID: 1 / X:  129 | Y:  127 | Z:  129 | Rz:  129 | Rx:    0 | Ry:    0 | 0xff000020:   28 | Hat switch:   8 | Button: 0  0  0  0  0  0  0  0  0  0  0  0  0  0  0 | 0xff000021: 0 , 0 , 0 , 0 , 0 , 0 , 0 , 0 , 0 , 0 , 0 , 0 , 0 | 0xff000022:  249 ,    7 ,   42 ,  235 ,  247 ,  255 ,  238 ,  255 ,   10 ,    0 ,   41 ,    0 ,   85 ,   31 ,   54 ,    5 ,  202 ,   25 ,  211 ,  197 ,    7 ,  128 ,    0 ,    0 ,    0 ,  128 ,    0 ,    0 ,    0 ,    0 ,    9 ,    9 ,    0 ,    0 ,    0 ,    0 ,    0 ,  201 ,   43 ,  211 ,  197 ,   40 ,    8 ,    0 ,   19 ,  204 ,   31 ,   51 ,   12 ,  139 ,  153 ,   71 
E: 000000.089922 64 01 81 7f 81 81 00 00 1c 08 00 00 00 f9 07 2a eb f7 ff ee ff 0a 00 29 00 55 1f 36 05 ca 19 d3 c5 07 80 00 00 00 80 00 00 00 00 09 09 00 00 00 00 00 c9 2b d3 c5 28 08 00 13 cc 1f 33 0c 8b 99 47
# ReportID: 1 / X:  129 | Y:  127 | Z:  129 | Rz:  129 | Rx:    0 | Ry:    0 | 0xff000020:   29 | Hat switch:   8 | Button: 0  0  0  0  0  0  0  0  0  0  0  0  0  0  0 | 0xff000021: 0 , 0 , 0 , 0 , 0 , 0 , 0 , 0 , 0 , 0 , 0 , 0 , 0 | 0xff000022:  250 ,    7 ,   42 ,  235 ,  246 ,  255 ,  238 ,  255 ,   10 ,    0 ,   49 ,    0 ,   91 ,   31 ,   54 ,    5 ,  189 ,   72 ,  211 ,  197 ,    7 ,  128 ,    0 ,    0 ,    0 ,  128 ,    0 ,    0 ,    0 ,    0 ,    9 ,    9 ,    0 ,    0 ,    0 ,    0 ,    0 ,  169 ,   90 ,  211 ,  197 ,   40 ,    8 ,    0 ,   11 ,   63 ,  211 ,   91 ,  104 ,   19 ,  186 ,  211 
E: 000000.095545 64 01 81 7f 81 81 00 00 1d 08 00 00 00 fa 07 2a eb f6 ff ee ff 0a 00 31 00 5b 1f 36 05 bd 48 d3 c5 07 80 00 00 00 80 00 00 00 00 09 09 00 00 00 00 00 a9 5a d3 c5 28 08 00 0b 3f d3 5b 68 13 ba d3
# ReportID: 1 / X:  129 | Y:  127 | Z:  129 | Rz:  129 | Rx:    0 | Ry:    0 | 0xff000020:   30 | Hat switch:   8 | Button: 0  0  0  0  0  0  0  0  0  0  0  0  0  0  0 | 0xff000021: 0 , 0 , 0 , 0 , 0 , 0 , 0 , 0 , 0 , 0 , 0 , 0 , 0 | 0xff000022:  251 ,    7 ,   42 ,  235 ,  246 ,  255 ,  238 ,  255 ,    8 ,    0 ,   45 ,    0 ,   88 ,   31 ,   53 ,    5 ,  176 ,  119 ,  211 ,  197 ,    7 ,  128 ,    0 ,    0 ,    0 ,  128 ,    0 ,    0 ,    0 ,    0 ,    9 ,    9 ,    0 ,    0 ,    0 ,    0 ,    0 ,  137 ,  137 ,  211 ,  197 ,   40 ,    8 ,    0 ,  242 ,  231 ,   47 ,  135 ,    9 ,  124 ,  194 ,  150 
E: 000000.098718 64 01 81 7f 81 81 00 00 1e 08 00 00 00 fb 07 2a eb f6 ff ee ff 08 00 2d 00 58 1f 35 05 b0 77 d3 c5 07 80 00 00 00 80 00 00 00 00 09 09 00 00 00 00 00 89 89 d3 c5 28 08 00 f2 e7 2f 87 09 7c c2 96
# ReportID: 1 / X:  129 | Y:  127 | Z:  129 | Rz:  129 | Rx:    0 | Ry:    0 | 0xff000020:   31 | Hat switch:   8 | Button: 0  0  0  0  0  0  0  0  0  0  0  0  0  0  0 | 0xff000021: 0 , 0 , 0 , 0 , 0 , 0 , 0 , 0 , 0 , 0 , 0 , 0 , 0 | 0xff000022:  252 ,    7 ,   42 ,  235 ,  246 ,  255 ,  239 ,  255 ,    9 ,    0 ,   47 ,    0 ,   85 ,   31 ,   55 ,    5 ,  163 ,  166 ,  211 ,  197 ,    7 ,  128 ,    0 ,    0 ,    0 ,  128 ,    0 ,    0 ,    0 ,    0 ,    9 ,    9 ,    0 ,    0 ,    0 ,    0 ,    0 ,  105 ,  184 ,  211 ,  197 ,   40 ,    8 ,    0 ,   10 ,   64 ,  249 ,  251 ,  169 ,  138 ,  129 ,  162 
E: 000000.102703 64 01 81 7f 81 81 00 00 1f 08 00 00 00 fc 07 2a eb f6 ff ef ff 09 00 2f 00 55 1f 37 05 a3 a6 d3 c5 07 80 00 00 00 80 00 00 00 00 09 09 00 00 00 00 00 69 b8 d3 c5 28 08 00 0a 40 f9 fb a9 8a 81 a2
# ReportID: 1 / X:  129 | Y:  127 | Z:  129 | Rz:  129 | Rx:    0 | Ry:    0 | 0xff000020:   32 | Hat switch:   8 | Button: 0  0  0  0  0  0  0  0  0  0  0  0  0  0  0 | 0xff000021: 0 , 0 , 0 , 0 , 0 , 0 , 0 , 0 , 0 , 0 , 0 , 0 , 0 | 0xff000022:  253 ,    7 ,   42 ,  235 ,  246 ,  255 ,  238 ,  255 ,    9 ,    0 ,   46 ,    0 ,   88 ,   31 ,   55 ,    5 ,  150 ,  213 ,  211 ,  197 ,    7 ,  128 ,    0 ,    0 ,    0 ,  128 ,    0 ,    0 ,    0 ,    0 ,    9 ,    9 ,    0 ,    0 ,    0 ,    0 ,    0 ,   73 ,  231 ,  211 ,  197 ,   40 ,    8 ,    0 ,   84 ,  158 ,   49 ,   63 ,   90 ,   41 ,    8 ,  107 
E: 000000.105903 64 01 81 7f 81 81 00 00 20 08 00 00 00 fd 07 2a eb f6 ff ee ff 09 00 2e 00 58 1f 37 05 96 d5 d3 c5 07 80 00 00 00 80 00 00 00 00 09 09 00 00 00 00 00 49 e7 d3 c5 28 08 00 54 9e 31 3f 5a 29 08 6b
# ReportID: 1 / X:  129 | Y:  126 | Z:  129 | Rz:  129 | Rx:    0 | Ry:    0 | 0xff000020:   33 | Hat switch:   8 | Button: 0  0  0  0  0  0  0  0  0  0  0  0  0  0  0 | 0xff000021: 0 , 0 , 0 , 0 , 0 , 0 , 0 , 0 , 0 , 0 , 0 , 0 , 0 | 0xff000022:  254 ,    7 ,   42 ,  235 ,  247 ,  255 ,  238 ,  255 ,    9 ,    0 ,   49 ,    0 ,   97 ,   31 ,   56 ,    5 ,  137 ,    4 ,  212 ,  197 ,    7 ,  128 ,    0 ,    0 ,    0 ,  128 ,    0 ,    0 ,    0 ,    0 ,    9 ,    9 ,    0 ,    0 ,    0 ,    0 ,    0 ,   41 ,   22 ,  212 ,  197 ,   40 ,    8 ,    0 ,  119 ,   34 ,   57 ,   44 ,   99 ,  182 ,  148 ,  212 
E: 000000.111722 64 01 81 7e 81 81 00 00 21 08 00 00 00 fe 07 2a eb f7 ff ee ff 09 00 31 00 61 1f 38 05 89 04 d4 c5 07 80 00 00 00 80 00 00 00 00 09 09 00 00 00 00 00 29 16 d4 c5 28 08 00 77 22 39 2c 63 b6 94 d4
# ReportID: 1 / X:  129 | Y:  127 | Z:  129 | Rz:  129 | Rx:    0 | Ry:    0 | 0xff000020:   34 | Hat switch:   8 | Button: 0  0  0  0  0  0  0  0  0  0  0  0  0  0  0 | 0xff000021: 0 , 0 , 0 , 0 , 0 , 0 , 0 , 0 , 0 , 0 , 0 , 0 , 0 | 0xff000022:  255 ,    7 ,   42 ,  235 ,  247 ,  255 ,  237 ,  255 ,   10 ,    0 ,   53 ,    0 ,   93 ,   31 ,   54 ,    5 ,  124 ,   51 ,  212 ,  197 ,    7 ,  128 ,    0 ,    0 ,    0 ,  128 ,    0 ,    0 ,    0 ,    0 ,    9 ,    9 ,    0 ,    0 ,    0 ,    0 ,    0 ,    9 ,   69 ,  212 ,  197 ,   40 ,    8 ,    0 ,   14 ,  119 ,  232 ,  253 ,  145 ,  117 ,  215 ,   81 
E: 000000.115370 64 01 81 7f 81 81 00 00 22 08 00 00 00 ff 07 2a eb f7 ff ed ff 0a 00 35 00 5d 1f 36 05 7c 33 d4 c5 07 80 00 00 00 80 00 00 00 00 09 09 00 00 00 00 00 09 45 d4 c5 28 08 00 0e 77 e8 fd 91 75 d7 51
# ReportID: 1 / X:  129 | Y:  127 | Z:  129 | Rz:  129 | Rx:    0 | Ry:    0 | 0xff000020:   35 | Hat switch:   8 | Button: 0  0  0  0  0  0  0  0  0  0  0  0  0  0  0 | 0xff000021: 0 , 0 , 0 , 0 , 0 , 0 , 0 , 0 , 0 , 0 , 0 , 0 , 0 | 0xff000022:    0 ,    8 ,   42 ,  235 ,  247 ,  255 ,  238 ,  255 ,   11 ,    0 ,   56 ,    0 ,   94 ,   31 ,   56 ,    5 ,  111 ,   98 ,  212 ,  197 ,    7 ,  128 ,    0 ,    0 ,    0 ,  128 ,    0 ,    0 ,    0 ,    0 ,    9 ,    9 ,    0 ,    0 ,    0 ,    0 ,    0 ,  233 ,  115 ,  212 ,  197 ,   40 ,    8 ,    0 ,   44 ,   47 ,   17 ,   93 ,   85 ,  245 ,  174 ,   27 
E: 000000.119322 64 01 81 7f 81 81 00 00 23 08 00 00 00 00 08 2a eb f7 ff ee ff 0b 00 38 00 5e 1f 38 05 6f 62 d4 c5 07 80 00 00 00 80 00 00 00 00 09 09 00 00 00 00 00 e9 73 d4 c5 28 08 00 2c 2f 11 5d 55 f5 ae 1b
# ReportID: 1 / X:  129 | Y:  127 | Z:  129 | Rz:  129 | Rx:    0 | Ry:    0 | 0xff000020:   36 | Hat switch:   8 | Button: 0  0  0  0  0  0  0  0  0  0  0  0  0  0  0 | 0xff000021: 0 , 0 , 0 , 0 , 0 , 0 , 0 , 0 , 0 , 0 , 0 , 0 , 0 | 0xff000022:    1 ,    8 ,   42 ,  235 ,  247 ,  255 ,  238 ,  255 ,   10 ,    0 ,   53 ,    0 ,   92 ,   31 ,   54 ,    5 ,   98 ,  145 ,  212 ,  197 ,    7 ,  128 ,    0 ,    0 ,    0 ,  128 ,    0 ,    0 ,    0 ,    0 ,    9 ,    9 ,    0 ,    0 ,    0 ,    0 ,    0 ,  201 ,  162 ,  212 ,  197 ,   40 ,    8 ,    0 ,  224 ,   85 ,  125 ,  187 ,   56 ,  181 ,   94 ,  130 
E: 000000.123446 64 01 81 7f 81 81 00 00 24 08 00 00 00 01 08 2a eb f7 ff ee ff 0a 00 35 00 5c 1f 36 05 62 91 d4 c5 07 80 00 00 00 80 00 00 00 00 09 09 00 00 00 00 00 c9 a2 d4 c5 28 08 00 e0 55 7d bb 38 b5 5e 82
# ReportID: 1 / X:  129 | Y:  127 | Z:  129 | Rz:  129 | Rx:    0 | Ry:    0 | 0xff000020:   37 | Hat switch:   8 | Button: 0  0  0  0  0  0  0  0  0  0  0  0  0  0  0 | 0xff000021: 0 , 0 , 0 , 0 , 0 , 0 , 0 , 0 , 0 , 0 , 0 , 0 , 0 | 0xff000022:    2 ,    8 ,   42 ,  235 ,  246 ,  255 ,  238 ,  255 ,   10 ,    0 ,   49 ,    0 ,   87 ,   31 ,   54 ,    5 ,   85 ,  192 ,  212 ,  197 ,    7 ,  128 ,    0 ,    0 ,    0 ,  128 ,    0 ,    0 ,    0 ,    0 ,    9 ,    9 ,    0 ,    0 ,    0 ,    0 ,    0 ,  169 ,  209 ,  212 ,  197 ,   40 ,    8 ,    0 ,  178 ,   44 ,  103 ,  113 ,  103 ,  241 ,   55 ,   89 
E: 000000.125880 64 01 81 7f 81 81 00 00 25 08 00 00 00 02 08 2a eb f6 ff ee ff 0a 00 31 00 57 1f 36 05 55 c0 d4 c5 07 80 00 00 00 80 00 00 00 00 09 09 00 00 00 00 00 a9 d1 d4 c5 28 08 00 b2 2c 67 71 67 f1 37 59
# ReportID: 1 / X:  129 | Y:  127 | Z:  129 | Rz:  129 | Rx:    0 | Ry:    0 | 0xff000020:   38 | Hat switch:   8 | Button: 0  0  0  0  0  0  0  0  0  0  0  0  0  0  0 | 0xff000021: 0 , 0 , 0 , 0 , 0 , 0 , 0 , 0 , 0 , 0 , 0 , 0 , 0 | 0xff000022:    3 ,    8 ,   42 ,  235 ,  247 ,  255 ,  238 ,  255 ,   10 ,    0 ,   48 ,    0 ,   86 ,   31 ,   52 ,    5 ,   72 ,  239 ,  212 ,  197 ,    7 ,  128 ,    0 ,    0 ,    0 ,  128 ,    0 ,    0 ,    0 ,    0 ,    9 ,    9 ,    0 ,    0 ,    0 ,    0 ,    0 ,  137 ,    0 ,  213 ,  197 ,   40 ,    8 ,    0 ,   62 ,  102 ,   80 ,   56 ,  116 ,  235 ,  244 ,  110 
E: 000000.130822 64 01 81 7f 81 81 00 00 26 08 00 00 00 03 08 2a eb f7 ff ee ff 0a 00 30 00 56 1f 34 05 48 ef d4 c5 07 80 00 00 00 80 00 00 00 00 09 09 00 00 00 00 00 89 00 d5 c5 28 08 00 3e 66 50 38 74 eb f4 6e
# ReportID: 1 / X:  129 | Y:  126 | Z:  129 | Rz:  129 | Rx:    0 | Ry:    0 | 0xff000020:   39 | Hat switch:   8 | Button: 0  0  0  0  0  0  0  0  0  0  0  0  0  0  0 | 0xff000021: 0 , 0 , 0 , 0 , 0 , 0 , 0 , 0 , 0 , 0 , 0 , 0 , 0 | 0xff000022:    4 ,    8 ,   42 ,  235 ,  248 ,  255 ,  239 ,  255 ,    9 ,    0 ,   56 ,    0 ,   71 ,   31 ,   52 ,    5 ,   59 ,   30 ,  213 ,  197 ,    7 ,  128 ,    0 ,    0 ,    0 ,  128 ,    0 ,    0 ,    0 ,    0 ,    9 ,    9 ,    0 ,    0 ,    0 ,    0 ,    0 ,  105 ,   47 ,  213 ,  197 ,   40 ,    8 ,    0 ,  131 ,  245 ,  169 ,  173 ,  201 ,  112 ,   43 ,   97 
E: 000000.134402 64 01 81 7e 81 81 00 00 27 08 00 00 00 04 08 2a eb f8 ff ef ff 09 00 38 00 47 1f 34 05 3b 1e d5 c5 07 80 00 00 00 80 00 00 00 00 09 09 00 00 00 00 00 69 2f d5 c5 28 08 00 83 f5 a9 ad c9 70 2b 61
# ReportID: 1 / X:  129 | Y:  127 | Z:  129 | Rz:  129 | Rx:    0 | Ry:    0 | 0xff000020:   40 | Hat switch:   8 | Button: 0  0  0  0  0  0  0  0  0  0  0  0  0  0  0 | 0xff000021: 0 , 0 , 0 , 0 , 0 , 0 , 0 , 0 , 0 , 0 , 0 , 0 , 0 | 0xff000022:    5 ,    8 ,   42 ,  235 ,  247 ,  255 ,  238 ,  255 ,    9 ,    0 ,   51 ,    0 ,   95 ,   31 ,   54 ,    5 ,   46 ,   77 ,  213 ,  197 ,    7 ,  128 ,    0 ,    0 ,    0 ,  128 ,    0 ,    0 ,    0 ,    0 ,    9 ,    9 ,    0 ,    0 ,    0 ,    0 ,    0 ,   73 ,   94 ,  213 ,  197 ,   40 ,    8 ,    0 ,   91 ,  195 ,   97 ,  111 ,  107 ,   35 ,   44 ,  114 
E: 000000.138166 64 01 81 7f 81 81 00 00 28 08 00 00 00 05 08 2a eb f7 ff ee ff 09 00 33 00 5f 1f 36 05 2e 4d d5 c5 07 80 00 00 00 80 00 00 00 00 09 09 00 00 00 00 00 49 5e d5 c5 28 08 00 5b c3 61 6f 6b 23 2c 72
# ReportID: 1 / X:  129 | Y:  127 | Z:  129 | Rz:  129 | Rx:    0 | Ry:    0 | 0xff000020:   41 | Hat switch:   8 | Button: 0  0  0  0  0  0  0  0  0  0  0  0  0  0  0 | 0xff000021: 0 , 0 , 0 , 0 , 0 , 0 , 0 , 0 , 0 , 0 , 0 , 0 , 0 | 0xff000022:    6 ,    8 ,   42 ,  235 ,  246 ,  255 ,  238 ,  255 ,   10 ,    0 ,   50 ,    0 ,   98 ,   31 ,   53 ,    5 ,   33 ,  124 ,  213 ,  197 ,    7 ,  128 ,    0 ,    0 ,    0 ,  128 ,    0 ,    0 ,    0 ,    0 ,    9 ,    9 ,    0 ,    0 ,    0 ,    0 ,    0 ,   41 ,  141 ,  213 ,  197 ,   40 ,    8 ,    0 ,   32 ,  245 ,  166 ,  189 ,  229 ,  129 ,   53 ,  208 
E: 000000.142470 64 01 81 7f 81 81 00 00 29 08 00 00 00 06 08 2a eb f6 ff ee ff 0a 00 32 00 62 1f 35 05 21 7c d5 c5 07 80 00 00 00 80 00 00 00 00 09 09 00 00 00 00 00 29 8d d5 c5 28 08 00 20 f5 a6 bd e5 81 35 d0
# ReportID: 1 / X:  129 | Y:  127 | Z:  129 | Rz:  129 | Rx:    0 | Ry:    0 | 0xff000020:   42 | Hat switch:   8 | Button: 0  0  0  0  0  0  0  0  0  0  0  0  0  0  0 | 0xff000021: 0 , 0 , 0 , 0 , 0 , 0 , 0 , 0 , 0 , 0 , 0 , 0 , 0 | 0xff000022:    7 ,    8 ,   42 ,  235 ,  246 ,  255 ,  239 ,  255 ,   11 ,    0 ,   63 ,    0 ,   86 ,   31 ,   60 ,    5 ,   20 ,  171 ,  213 ,  197 ,    8 ,  128 ,    0 ,    0 ,    0 ,  128 ,    0 ,    0 ,    0 ,    0 ,    9 ,    9 ,    0 ,    0 ,    0 ,    0 ,    0 ,    9 ,  188 ,  213 ,  197 ,   40 ,    8 ,    0 ,  171 ,   40 ,   78 ,   64 ,  106 ,  209 ,  230 ,  130 
E: 000000.146403 64 01 81 7f 81 81 00 00 2a 08 00 00 00 07 08 2a eb f6 ff ef ff 0b 00 3f 00 56 1f 3c 05 14 ab d5 c5 08 80 00 00 00 80 00 00 00 00 09 09 00 00 00 00 00 09 bc d5 c5 28 08 00 ab 28 4e 40 6a d1 e6 82
# ReportID: 1 / X:  129 | Y:  127 | Z:  129 | Rz:  129 | Rx:    0 | Ry:    0 | 0xff000020:   43 | Hat switch:   8 | Button: 0  0  0  0  0  0  0  0  0  0  0  0  0  0  0 | 0xff000021: 0 , 0 , 0 , 0 , 0 , 0 , 0 , 0 , 0 , 0 , 0 , 0 , 0 | 0xff000022:    8 ,    8 ,   42 ,  235 ,  246 ,  255 ,  238 ,  255 ,   10 ,    0 ,   46 ,    0 ,   91 ,   31 ,   55 ,    5 ,    7 ,  218 ,  213 ,  197 ,    7 ,  128 ,    0 ,    0 ,    0 ,  128 ,    0 ,    0 ,    0 ,    0 ,    9 ,    9 ,    0 ,    0 ,    0 ,    0 ,    0 ,  233 ,  234 ,  213 ,  197 ,   40 ,    8 ,    0 ,   94 ,   66 ,   23 ,   23 ,  117 ,  168 ,  194 ,  137 
E: 000000.150893 64 01 81 7f 81 81 00 00 2b 08 00 00 00 08 08 2a eb f6 ff ee ff 0a 00 2e 00 5b 1f 37 05 07 da d5 c5 07 80 00 00 00 80 00 00 00 00 09 09 00 00 00 00 00 e9 ea d5 c5 28 08 00 5e 42 17 17 75 a8 c2 89
# ReportID: 1 / X:  129 | Y:  126 | Z:  129 | Rz:  129 | Rx:    0 | Ry:    0 | 0xff000020:   44 | Hat switch:   8 | Button: 0  0  0  0  0  0  0  0  0  0  0  0  0  0  0 | 0xff000021: 0 , 0 , 0 , 0 , 0 , 0 , 0 , 0 , 0 , 0 , 0 , 0 , 0 | 0xff000022:    9 ,    8 ,   42 ,  235 ,  247 ,  255 ,  239 ,  255 ,   10 ,    0 ,   48 ,    0 ,   82 ,   31 ,   53 ,    5 ,  250 ,    8 ,  214 ,  197 ,    7 ,  128 ,    0 ,    0 ,    0 ,  128 ,    0 ,    0 ,    0 ,    0 ,    9 ,    9 ,    0 ,    0 ,    0 ,    0 ,    0 ,  201 ,   25 ,  214 ,  197 ,   40 ,    8 ,    0 ,  253 ,  116 ,  149 ,   21 ,  249 ,   54 ,   17 ,  185 
E: 000000.154719 64 01 81 7e 81 81 00 00 2c 08 00 00 00 09 08 2a eb f7 ff ef ff 0a 00 30 00 52 1f 35 05 fa 08 d6 c5 07 80 00 00 00 80 00 00 00 00 09 09 00 00 00 00 00 c9 19 d6 c5 28 08 00 fd 74 95 15 f9 36 11 b9
# ReportID: 1 / X:  129 | Y:  127 | Z:  129 | Rz:  129 | Rx:    0 | Ry:    0 | 0xff000020:   45 | Hat switch:   8 | Button: 0  0  0  0  0  0  0  0  0  0  0  0  0  0  0 | 0xff000021: 0 , 0 , 0 , 0 , 0 , 0 , 0 , 0 , 0 , 0 , 0 , 0 , 0 | 0xff000022:   10 ,    8 ,   42 ,  235 ,  245 ,  255 ,  238 ,  255 ,    9 ,    0 ,   40 ,    0 ,   52 ,   31 ,   51 ,    5 ,  237 ,   55 ,  214 ,  197 ,    7 ,  128 ,    0 ,    0 ,    0 ,  128 ,    0 ,    0 ,    0 ,    0 ,    9 ,    9 ,    0 ,    0 ,    0 ,    0 ,    0 ,  169 ,   72 ,  214 ,  197 ,   40 ,    8 ,    0 ,  210 ,   58 ,  149 ,  185 ,  175 ,  159 ,  185 ,  133 
E: 000000.158579 64 01 81 7f 81 81 00 00 2d 08 00 00 00 0a 08 2a eb f5 ff ee ff 09 00 28 00 34 1f 33 05 ed 37 d6 c5 07 80 00 00 00 80 00 00 00 00 09 09 00 00 00 00 00 a9 48 d6 c5 28 08 00 d2 3a 95 b9 af 9f b9 85
# ReportID: 1 / X:  129 | Y:  127 | Z:  129 | Rz:  129 | Rx:    0 | Ry:    0 | 0xff000020:   46 | Hat switch:   8 | Button: 0  0  0  0  0  0  0  0  0  0  0  0  0  0  0 | 0xff000021: 0 , 0 , 0 , 0 , 0 , 0 , 0 , 0 , 0 , 0 , 0 , 0 , 0 | 0xff000022:   11 ,    8 ,   42 ,  235 ,  247 ,  255 ,  237 ,  255 ,   10 ,    0 ,   46 ,    0 ,   89 ,   31 ,   58 ,    5 ,  224 ,  102 ,  214 ,  197 ,    7 ,  128 ,    0 ,    0 ,    0 ,  128 ,    0 ,    0 ,    0 ,    0 ,    9 ,    9 ,    0 ,    0 ,    0 ,    0 ,    0 ,  137 ,  119 ,  214 ,  197 ,   40 ,    8 ,    0 ,  213 ,  153 ,  193 ,   62 ,   91 ,   13 ,  209 ,   88 
E: 000000.162469 64 01 81 7f 81 81 00 00 2e 08 00 00 00 0b 08 2a eb f7 ff ed ff 0a 00 2e 00 59 1f 3a 05 e0 66 d6 c5 07 80 00 00 00 80 00 00 00 00 09 09 00 00 00 00 00 89 77 d6 c5 28 08 00 d5 99 c1 3e 5b 0d d1 58
# ReportID: 1 / X:  129 | Y:  127 | Z:  129 | Rz:  129 | Rx:    0 | Ry:    0 | 0xff000020:   47 | Hat switch:   8 | Button: 0  0  0  0  0  0  0  0  0  0  0  0  0  0  0 | 0xff000021: 0 , 0 , 0 , 0 , 0 , 0 , 0 , 0 , 0 , 0 , 0 , 0 , 0 | 0xff000022:   12 ,    8 ,   42 ,  235 ,  246 ,  255 ,  238 ,  255 ,    9 ,    0 ,   42 ,    0 ,  132 ,   31 ,   59 ,    5 ,  211 ,  149 ,  214 ,  197 ,    7 ,  128 ,    0 ,    0 ,    0 ,  128 ,    0 ,    0 ,    0 ,    0 ,    9 ,    9 ,    0 ,    0 ,    0 ,    0 ,    0 ,  105 ,  166 ,  214 ,  197 ,   40 ,    8 ,    0 ,  206 ,  246 ,   67 ,  138 ,  185 ,   68 ,  120 ,  153 
E: 000000.165904 64 01 81 7f 81 81 00 00 2f 08 00 00 00 0c 08 2a eb f6 ff ee ff 09 00 2a 00 84 1f 3b 05 d3 95 d6 c5 07 80 00 00 00 80 00 00 00 00 09 09 00 00 00 00 00 69 a6 d6 c5 28 08 00 ce f6 43 8a b9 44 78 99
# ReportID: 1 / X:  129 | Y:  127 | Z:  129 | Rz:  129 | Rx:    0 | Ry:    0 | 0xff000020:   48 | Hat switch:   8 | Button: 0  0  0  0  0  0  0  0  0  0  0  0  0  0  0 | 0xff000021: 0 , 0 , 0 , 0 , 0 , 0 , 0 , 0 , 0 , 0 , 0 , 0 , 0 | 0xff000022:   13 ,    8 ,   42 ,  235 ,  246 ,  255 ,  238 ,  255 ,   10 ,    0 ,   45 ,    0 ,   83 ,   31 ,   61 ,    5 ,  198 ,  196 ,  214 ,  197 ,    7 ,  128 ,    0 ,    0 ,    0 ,  128 ,    0 ,    0 ,    0 ,    0 ,    9 ,    9 ,    0 ,    0 ,    0 ,    0 ,    0 ,   73 ,  213 ,  214 ,  197 ,   40 ,    8 ,    0 ,  178 ,  165 ,   69 ,   54 ,  190 ,   30 ,  126 ,  205 
E: 000000.169922 64 01 81 7f 81 81 00 00 30 08 00 00 00 0d 08 2a eb f6 ff ee ff 0a 00 2d 00 53 1f 3d 05 c6 c4 d6 c5 07 80 00 00 00 80 00 00 00 00 09 09 00 00 00 00 00 49 d5 d6 c5 28 08 00 b2 a5 45 36 be 1e 7e cd
# ReportID: 1 / X:  129 | Y:  127 | Z:  129 | Rz:  129 | Rx:    0 | Ry:    0 | 0xff000020:   49 | Hat switch:   8 | Button: 0  0  0  0  0  0  0  0  0  0  0  0  0  0  0 | 0xff000021: 0 , 0 , 0 , 0 , 0 , 0 , 0 , 0 , 0 , 0 , 0 , 0 , 0 | 0xff000022:   14 ,    8 ,   42 ,  235 ,  247 ,  255 ,  239 ,  255 ,   10 ,    0 ,   45 ,    0 ,   63 ,   31 ,   57 ,    5 ,  185 ,  243 ,  214 ,  197 ,    7 ,  128 ,    0 ,    0 ,    0 ,  128 ,    0 ,    0 ,    0 ,    0 ,    9 ,    9 ,    0 ,    0 ,    0 ,    0 ,    0 ,   41 ,    4 ,  215 ,  197 ,   40 ,    8 ,    0 ,  246 ,  195 ,   58 ,  114 ,  147 ,   89 ,  183 ,  218 
E: 000000.173949 64 01 81 7f 81 81 00 00 31 08 00 00 00 0e 08 2a eb f7 ff ef ff 0a 00 2d 00 3f 1f 39 05 b9 f3 d6 c5 07 80 00 00 00 80 00 00 00 00 09 09 00 00 00 00 00 29 04 d7 c5 28 08 00 f6 c3 3a 72 93 59 b7 da
# ReportID: 1 / X:  129 | Y:  126 | Z:  129 | Rz:  129 | Rx:    0 | Ry:    0 | 0xff000020:   50 | Hat switch:   8 | Button: 0  0  0  0  0  0  0  0  0  0  0  0  0  0  0 | 0xff000021: 0 , 0 , 0 , 0 , 0 , 0 , 0 , 0 , 0 , 0 , 0 , 0 , 0 | 0xff000022:   15 ,    8 ,   42 ,  235 ,  246 ,  255 ,  239 ,  255 ,   10 ,    0 ,   42 ,    0 ,   59 ,   31 ,   58 ,    5 ,  172 ,   34 ,  215 ,  197 ,    7 ,  128 ,    0 ,    0 ,    0 ,  128 ,    0 ,    0 ,    0 ,    0 ,    9 ,    9 ,    0 ,    0 ,    0 ,    0 ,    0 ,    9 ,   51 ,  215 ,  197 ,   40 ,    8 ,    0 ,   99 ,  174 ,   81 ,  200 ,  200 ,   66 ,   26 ,  237 
E: 000000.179062 64 01 81 7e 81 81 00 00 32 08 00 00 00 0f 08 2a eb f6 ff ef ff 0a 00 2a 00 3b 1f 3a 05 ac 22 d7 c5 07 80 00 00 00 80 00 00 00 00 09 09 00 00 00 00 00 09 33 d7 c5 28 08 00 63 ae 51 c8 c8 42 1a ed
# ReportID: 1 / X:  129 | Y:  127 | Z:  129 | Rz:  129 | Rx:    0 | Ry:    0 | 0xff000020:   51 | Hat switch:   8 | Button: 0  0  0  0  0  0  0  0  0  0  0  0  0  0  0 | 0xff000021: 0 , 0 , 0 , 0 , 0 , 0 , 0 , 0 , 0 , 0 , 0 , 0 , 0 | 0xff000022:   16 ,    8 ,   42 ,  235 ,  248 ,  255 ,  238 ,  255 ,    9 ,    0 ,   48 ,    0 ,   69 ,   31 ,   61 ,    5 ,  159 ,   81 ,  215 ,  197 ,    7 ,  128 ,    0 ,    0 ,    0 ,  128 ,    0 ,    0 ,    0 ,    0 ,    9 ,    9 ,    0 ,    0 ,    0 ,    0 ,    0 ,  233 ,   97 ,  215 ,  197 ,   40 ,    8 ,    0 ,  126 ,   57 ,  244 ,   92 ,  164 ,   27 ,  143 ,  187 
E: 000000.183510 64 01 81 7f 81 81 00 00 33 08 00 00 00 10 08 2a eb f8 ff ee ff 09 00 30 00 45 1f 3d 05 9f 51 d7 c5 07 80 00 00 00 80 00 00 00 00 09 09 00 00 00 00 00 e9 61 d7 c5 28 08 00 7e 39 f4 5c a4 1b 8f bb
# ReportID: 1 / X:  129 | Y:  127 | Z:  129 | Rz:  129 | Rx:    0 | Ry:    0 | 0xff000020:   52 | Hat switch:   8 | Button: 0  0  0  0  0  0  0  0  0  0  0  0  0  0  0 | 0xff000021: 0 , 0 , 0 , 0 , 0 , 0 , 0 , 0 , 0 , 0 , 0 , 0 , 0 | 0xff000022:   17 ,    8 ,   42 ,  235 ,  247 ,  255 ,  238 ,  255 ,   10 ,    0 ,   43 ,    0 ,   72 ,   31 ,   70 ,    5 ,  146 ,  128 ,  215 ,  197 ,    7 ,  128 ,    0 ,    0 ,    0 ,  128 ,    0 ,    0 ,    0 ,    0 ,    9 ,    9 ,    0 ,    0 ,    0 ,    0 ,    0 ,  201 ,  144 ,  215 ,  197 ,   40 ,    8 ,    0 ,  224 ,  230 ,  214 ,   69 ,   52 ,   45 ,  189 ,  141 
E: 000000.186860 64 01 81 7f 81 81 00 00 34 08 00 00 00 11 08 2a eb f7 ff ee ff 0a 00 2b 00 48 1f 46 05 92 80 d7 c5 07 80 00 00 00 80 00 00 00 00 09 09 00 00 00 00 00 c9 90 d7 c5 28 08 00 e0 e6 d6 45 34 2d bd 8d
# ReportID: 1 / X:  129 | Y:  127 | Z:  129 | Rz:  129 | Rx:    0 | Ry:    0 | 0xff000020:   53 | Hat switch:   8 | Button: 0  0  0  0  0  0  0  0  0  0  0  0  0  0  0 | 0xff000021: 0 , 0 , 0 , 0 , 0 , 0 , 0 , 0 , 0 , 0 , 0 , 0 , 0 | 0xff000022:   18 ,    8 ,   42 ,  235 ,  246 ,  255 ,  238 ,  255 ,    8 ,    0 ,   40 ,    0 ,  106 ,   31 ,   58 ,    5 ,  133 ,  175 ,  215 ,  197 ,    7 ,  128 ,    0 ,    0 ,    0 ,  128 ,    0 ,    0 ,    0 ,    0 ,    9 ,    9 ,    0 ,    0 ,    0 ,    0 ,    0 ,  169 ,  191 ,  215 ,  197 ,   40 ,    8 ,    0 ,  101 ,  222 ,  214 ,  174 ,  248 ,  166 ,    3 ,  233 
E: 000000.190602 64 01 81 7f 81 81 00 00 35 08 00 00 00 12 08 2a eb f6 ff ee ff 08 00 28 00 6a 1f 3a 05 85 af d7 c5 07 80 00 00 00 80 00 00 00 00 09 09 00 00 00 00 00 a9 bf d7 c5 28 08 00 65 de d6 ae f8 a6 03 e9
# ReportID: 1 / X:  129 | Y:  127 | Z:  129 | Rz:  129 | Rx:    0 | Ry:    0 | 0xff000020:   54 | Hat switch:   8 | Button: 0  0  0  0  0  0  0  0  0  0  0  0  0  0  0 | 0xff000021: 0 , 0 , 0 , 0 , 0 , 0 , 0 , 0 , 0 , 0 , 0 , 0 , 0 | 0xff000022:   19 ,    8 ,   42 ,  235 ,  246 ,  255 ,  238 ,  255 ,    9 ,    0 ,   51 ,    0 ,  109 ,   31 ,   65 ,    5 ,  120 ,  222 ,  215 ,  197 ,    7 ,  128 ,    0 ,    0 ,    0 ,  128 ,    0 ,    0 ,    0 ,    0 ,    9 ,    9 ,    0 ,    0 ,    0 ,    0 ,    0 ,  137 ,  238 ,  215 ,  197 ,   40 ,    8 ,    0 ,  106 ,   29 ,   41 ,   52 ,   55 ,  154 ,   65 ,  186 
E: 000000.194028 64 01 81 7f 81 81 00 00 36 08 00 00 00 13 08 2a eb f6 ff ee ff 09 00 33 00 6d 1f 41 05 78 de d7 c5 07 80 00 00 00 80 00 00 00 00 09 09 00 00 00 00 00 89 ee d7 c5 28 08 00 6a 1d 29 34 37 9a 41 ba
# ReportID: 1 / X:  129 | Y:  127 | Z:  129 | Rz:  129 | Rx:    0 | Ry:    0 | 0xff000020:   55 | Hat switch:   8 | Button: 0  0  0  0  0  0  0  0  0  0  0  0  0  0  0 | 0xff000021: 0 , 0 , 0 , 0 , 0 , 0 , 0 , 0 , 0 , 0 , 0 , 0 , 0 | 0xff000022:   20 ,    8 ,   42 ,  235 ,  246 ,  255 ,  238 ,  255 ,    9 ,    0 ,   58 ,    0 ,   71 ,   31 ,   76 ,    5 ,  107 ,   13 ,  216 ,  197 ,    7 ,  128 ,    0 ,    0 ,    0 ,  128 ,    0 ,    0 ,    0 ,    0 ,    9 ,    9 ,    0 ,    0 ,    0 ,    0 ,    0 ,  105 ,   29 ,  216 ,  197 ,   40 ,    8 ,    0 ,  131 ,   52 ,  234 ,   20 ,  234 ,   37 ,  232 ,   94 
E: 000000.197924 64 01 81 7f 81 81 00 00 37 08 00 00 00 14 08 2a eb f6 ff ee ff 09 00 3a 00 47 1f 4c 05 6b 0d d8 c5 07 80 00 00 00 80 00 00 00 00 09 09 00 00 00 00 00 69 1d d8 c5 28 08 00 83 34 ea 14 ea 25 e8 5e
# ReportID: 1 / X:  129 | Y:  127 | Z:  129 | Rz:  129 | Rx:    0 | Ry:    0 | 0xff000020:   56 | Hat switch:   8 | Button: 0  0  0  0  0  0  0  0  0  0  0  0  0  0  0 | 0xff000021: 0 , 0 , 0 , 0 , 0 , 0 , 0 , 0 , 0 , 0 , 0 , 0 , 0 | 0xff000022:   21 ,    8 ,   42 ,  235 ,  246 ,  255 ,  238 ,  255 ,    9 ,    0 ,   52 ,    0 ,   73 ,   31 ,   58 ,    5 ,  128 ,   54 ,  216 ,  197 ,    7 ,  128 ,    0 ,    0 ,    0 ,  128 ,    0 ,    0 ,    0 ,    0 ,    9 ,    9 ,    0 ,    0 ,    0 ,    0 ,    0 ,   73 ,   76 ,  216 ,  197 ,   40 ,    8 ,    0 ,  111 ,  191 ,  234 ,  218 ,  154 ,  115 ,   22 ,  165 
E: 000000.201935 64 01 81 7f 81 81 00 00 38 08 00 00 00 15 08 2a eb f6 ff ee ff 09 00 34 00 49 1f 3a 05 80 36 d8 c5 07 80 00 00 00 80 00 00 00 00 09 09 00 00 00 00 00 49 4c d8 c5 28 08 00 6f bf ea da 9a 73 16 a5
# ReportID: 1 / X:  129 | Y:  127 | Z:  129 | Rz:  129 | Rx:    0 | Ry:    0 | 0xff000020:   57 | Hat switch:   8 | Button: 0  0  0  0  0  0  0  0  0  0  0  0  0  0  0 | 0xff000021: 0 , 0 , 0 , 0 , 0 , 0 , 0 , 0 , 0 , 0 , 0 , 0 , 0 | 0xff000022:   22 ,    8 ,   42 ,  235 ,  246 ,  255 ,  238 ,  255 ,    9 ,    0 ,   47 ,    0 ,   66 ,   31 ,   61 ,    5 ,  149 ,   95 ,  216 ,  197 ,    7 ,  128 ,    0 ,    0 ,    0 ,  128 ,    0 ,    0 ,    0 ,    0 ,    9 ,    9 ,    0 ,    0 ,    0 ,    0 ,    0 ,   41 ,  123 ,  216 ,  197 ,   40 ,    8 ,    0 ,  173 ,   85 ,  176 ,  205 ,  159 ,  186 ,  179 ,  181 
E: 000000.206899 64 01 81 7f 81 81 00 00 39 08 00 00 00 16 08 2a eb f6 ff ee ff 09 00 2f 00 42 1f 3d 05 95 5f d8 c5 07 80 00 00 00 80 00 00 00 00 09 09 00 00 00 00 00 29 7b d8 c5 28 08 00 ad 55 b0 cd 9f ba b3 b5
# ReportID: 1 / X:  129 | Y:  127 | Z:  129 | Rz:  129 | Rx:    0 | Ry:    0 | 0xff000020:   58 | Hat switch:   8 | Button: 0  0  0  0  0  0  0  0  0  0  0  0  0  0  0 | 0xff000021: 0 , 0 , 0 , 0 , 0 , 0 , 0 , 0 , 0 , 0 , 0 , 0 , 0 | 0xff000022:   23 ,    8 ,   42 ,  235 ,  246 ,  255 ,  238 ,  255 ,    9 ,    0 ,   41 ,    0 ,   73 ,   31 ,   63 ,    5 ,  136 ,  142 ,  216 ,  197 ,    7 ,  128 ,    0 ,    0 ,    0 ,  128 ,    0 ,    0 ,    0 ,    0 ,    9 ,    9 ,    0 ,    0 ,    0 ,    0 ,    0 ,    9 ,  170 ,  216 ,  197 ,   40 ,    8 ,    0 ,   43 ,  127 ,    8 ,  134 ,  152 ,  156 ,   61 ,  115 
E: 000000.210657 64 01 81 7f 81 81 00 00 3a 08 00 00 00 17 08 2a eb f6 ff ee ff 09 00 29 00 49 1f 3f 05 88 8e d8 c5 07 80 00 00 00 80 00 00 00 00 09 09 00 00 00 00 00 09 aa d8 c5 28 08 00 2b 7f 08 86 98 9c 3d 73
# ReportID: 1 / X:  129 | Y:  127 | Z:  129 | Rz:  129 | Rx:    0 | Ry:    0 | 0xff000020:   59 | Hat switch:   8 | Button: 0  0  0  0  0  0  0  0  0  0  0  0  0  0  0 | 0xff000021: 0 , 0 , 0 , 0 , 0 , 0 , 0 , 0 , 0 , 0 , 0 , 0 , 0 | 0xff000022:   24 ,    8 ,   42 ,  235 ,  247 ,  255 ,  239 ,  255 ,   10 ,    0 ,   46 ,    0 ,   83 ,   31 ,   60 ,    5 ,  123 ,  189 ,  216 ,  197 ,    7 ,  128 ,    0 ,    0 ,    0 ,  128 ,    0 ,    0 ,    0 ,    0 ,    9 ,    9 ,    0 ,    0 ,    0 ,    0 ,    0 ,  233 ,  216 ,  216 ,  197 ,   40 ,    8 ,    0 ,  234 ,   46 ,  217 ,   68 ,   39 ,  104 ,  196 ,  109 
E: 000000.213921 64 01 81 7f 81 81 00 00 3b 08 00 00 00 18 08 2a eb f7 ff ef ff 0a 00 2e 00 53 1f 3c 05 7b bd d8 c5 07 80 00 00 00 80 00 00 00 00 09 09 00 00 00 00 00 e9 d8 d8 c5 28 08 00 ea 2e d9 44 27 68 c4 6d
# ReportID: 1 / X:  129 | Y:  127 | Z:  129 | Rz:  129 | Rx:    0 | Ry:    0 | 0xff000020:   60 | Hat switch:   8 | Button: 0  0  0  0  0  0  0  0  0  0  0  0  0  0  0 | 0xff000021: 0 , 0 , 0 , 0 , 0 , 0 , 0 , 0 , 0 , 0 , 0 , 0 , 0 | 0xff000022:   25 ,    8 ,   42 ,  235 ,  247 ,  255 ,  239 ,  255 ,   10 ,    0 ,   50 ,    0 ,   94 ,   31 ,   52 ,    5 ,  110 ,  236 ,  216 ,  197 ,    7 ,  128 ,    0 ,    0 ,    0 ,  128 ,    0 ,    0 ,    0 ,    0 ,    9 ,    9 ,    0 ,    0 ,    0 ,    0 ,    0 ,  201 ,    7 ,  217 ,  197 ,   40 ,    8 ,    0 ,    9 ,  181 ,  248 ,   30 ,  203 ,  215 ,  198 ,  230 
E: 000000.217961 64 01 81 7f 81 81 00 00 3c 08 00 00 00 19 08 2a eb f7 ff ef ff 0a 00 32 00 5e 1f 34 05 6e ec d8 c5 07 80 00 00 00 80 00 00 00 00 09 09 00 00 00 00 00 c9 07 d9 c5 28 08 00 09 b5 f8 1e cb d7 c6 e6
# ReportID: 1 / X:  129 | Y:  127 | Z:  129 | Rz:  129 | Rx:    0 | Ry:    0 | 0xff000020:   61 | Hat switch:   8 | Button: 0  0  0  0  0  0  0  0  0  0  0  0  0  0  0 | 0xff000021: 0 , 0 , 0 , 0 , 0 , 0 , 0 , 0 , 0 , 0 , 0 , 0 , 0 | 0xff000022:   26 ,    8 ,   42 ,  235 ,  246 ,  255 ,  238 ,  255 ,   10 ,    0 ,   53 ,    0 ,   87 ,   31 ,   58 ,    5 ,   97 ,   27 ,  217 ,  197 ,    7 ,  128 ,    0 ,    0 ,    0 ,  128 ,    0 ,    0 ,    0 ,    0 ,    9 ,    9 ,    0 ,    0 ,    0 ,    0 ,    0 ,  169 ,   54 ,  217 ,  197 ,   40 ,    8 ,    0 ,  122 ,  160 ,  242 ,  158 ,  198 ,   79 ,  149 ,  225 
E: 000000.223753 64 01 81 7f 81 81 00 00 3d 08 00 00 00 1a 08 2a eb f6 ff ee ff 0a 00 35 00 57 1f 3a 05 61 1b d9 c5 07 80 00 00 00 80 00 00 00 00 09 09 00 00 00 00 00 a9 36 d9 c5 28 08 00 7a a0 f2 9e c6 4f 95 e1
# ReportID: 1 / X:  129 | Y:  127 | Z:  129 | Rz:  129 | Rx:    0 | Ry:    0 | 0xff000020:   62 | Hat switch:   8 | Button: 0  0  0  0  0  0  0  0  0  0  0  0  0  0  0 | 0xff000021: 0 , 0 , 0 , 0 , 0 , 0 , 0 , 0 , 0 , 0 , 0 , 0 , 0 | 0xff000022:   27 ,    8 ,   42 ,  235 ,  246 ,  255 ,  238 ,  255 ,    9 ,    0 ,   57 ,    0 ,   71 ,   31 ,   60 ,    5 ,   84 ,   74 ,  217 ,  197 ,    7 ,  128 ,    0 ,    0 ,    0 ,  128 ,    0 ,    0 ,    0 ,    0 ,    9 ,    9 ,    0 ,    0 ,    0 ,    0 ,    0 ,  137 ,  101 ,  217 ,  197 ,   40 ,    8 ,    0 ,  159 ,   53 ,  179 ,   49 ,    2 ,   77 ,  159 ,   63 
E: 000000.227540 64 01 81 7f 81 81 00 00 3e 08 00 00 00 1b 08 2a eb f6 ff ee ff 09 00 39 00 47 1f 3c 05 54 4a d9 c5 07 80 00 00 00 80 00 00 00 00 09 09 00 00 00 00 00 89 65 d9 c5 28 08 00 9f 35 b3 31 02 4d 9f 3f
# ReportID: 1 / X:  129 | Y:  127 | Z:  129 | Rz:  129 | Rx:    0 | Ry:    0 | 0xff000020:   63 | Hat switch:   8 | Button: 0  0  0  0  0  0  0  0  0  0  0  0  0  0  0 | 0xff000021: 0 , 0 , 0 , 0 , 0 , 0 , 0 , 0 , 0 , 0 , 0 , 0 , 0 | 0xff000022:   28 ,    8 ,   42 ,  235 ,  246 ,  255 ,  238 ,  255 ,    9 ,    0 ,   58 ,    0 ,   79 ,   31 ,   57 ,    5 ,   71 ,  121 ,  217 ,  197 ,    7 ,  128 ,    0 ,    0 ,    0 ,  128 ,    0 ,    0 ,    0 ,    0 ,    9 ,    9 ,    0 ,    0 ,    0 ,    0 ,    0 ,  105 ,  148 ,  217 ,  197 ,   40 ,    8 ,    0 ,  153 ,  251 ,   68 ,  175 ,  193 ,  197 ,  155 ,   81 
E: 000000.230865 64 01 81 7f 81 81 00 00 3f 08 00 00 00 1c 08 2a eb f6 ff ee ff 09 00 3a 00 4f 1f 39 05 47 79 d9 c5 07 80 00 00 00 80 00 00 00 00 09 09 00 00 00 00 00 69 94 d9 c5 28 08 00 99 fb 44 af c1 c5 9b 51
# ReportID: 1 / X:  129 | Y:  127 | Z:  129 | Rz:  129 | Rx:    0 | Ry:    0 | 0xff000020:   64 | Hat switch:   8 | Button: 0  0  0  0  0  0  0  0  0  0  0  0  0  0  0 | 0xff000021: 0 , 0 , 0 , 0 , 0 , 0 , 0 , 0 , 0 , 0 , 0 , 0 , 0 | 0xff000022:   29 ,    8 ,   42 ,  235 ,  247 ,  255 ,  239 ,  255 ,   10 ,    0 ,   52 ,    0 ,   70 ,   31 ,   50 ,    5 ,   58 ,  168 ,  217 ,  197 ,    7 ,  128 ,    0 ,    0 ,    0 ,  128 ,    0 ,    0 ,    0 ,    0 ,    9 ,    9 ,    0 ,    0 ,    0 ,    0 ,    0 ,   73 ,  195 ,  217 ,  197 ,   40 ,    8 ,    0 ,  142 ,  125 ,  227 ,  164 ,  122 ,  173 ,   69 ,  122 
E: 000000.234692 64 01 81 7f 81 81 00 00 40 08 00 00 00 1d 08 2a eb f7 ff ef ff 0a 00 34 00 46 1f 32 05 3a a8 d9 c5 07 80 00 00 00 80 00 00 00 00 09 09 00 00 00 00 00 49 c3 d9 c5 28 08 00 8e 7d e3 a4 7a ad 45 7a
# ReportID: 1 / X:  129 | Y:  127 | Z:  129 | Rz:  129 | Rx:    0 | Ry:    0 | 0xff000020:   65 | Hat switch:   8 | Button: 0  0  0  0  0  0  0  0  0  0  0  0  0  0  0 | 0xff000021: 0 , 0 , 0 , 0 , 0 , 0 , 0 , 0 , 0 , 0 , 0 , 0 , 0 | 0xff000022:   30 ,    8 ,   42 ,  235 ,  247 ,  255 ,  238 ,  255 ,    8 ,    0 ,   52 ,    0 ,   84 ,   31 ,   54 ,    5 ,   45 ,  215 ,  217 ,  197 ,    7 ,  128 ,    0 ,    0 ,    0 ,  128 ,    0 ,    0 ,    0 ,    0 ,    9 ,    9 ,    0 ,    0 ,    0 ,    0 ,    0 ,   41 ,  242 ,  217 ,  197 ,   40 ,    8 ,    0 ,  226 ,   43 ,  100 ,  195 ,  186 ,  124 ,   43 ,   70 
E: 000000.238509 64 01 81 7f 81 81 00 00 41 08 00 00 00 1e 08 2a eb f7 ff ee ff 08 00 34 00 54 1f 36 05 2d d7 d9 c5 07 80 00 00 00 80 00 00 00 00 09 09 00 00 00 00 00 29 f2 d9 c5 28 08 00 e2 2b 64 c3 ba 7c 2b 46
# ReportID: 1 / X:  129 | Y:  127 | Z:  129 | Rz:  129 | Rx:    0 | Ry:    0 | 0xff000020:   66 | Hat switch:   8 | Button: 0  0  0  0  0  0  0  0  0  0  0  0  0  0  0 | 0xff000021: 0 , 0 , 0 , 0 , 0 , 0 , 0 , 0 , 0 , 0 , 0 , 0 , 0 | 0xff000022:   31 ,    8 ,   42 ,  235 ,  247 ,  255 ,  239 ,  255 ,   10 ,    0 ,   54 ,    0 ,   98 ,   31 ,   53 ,    5 ,   32 ,    6 ,  218 ,  197 ,    7 ,  128 ,    0 ,    0 ,    0 ,  128 ,    0 ,    0 ,    0 ,    0 ,    9 ,    9 ,    0 ,    0 ,    0 ,    0 ,    0 ,    9 ,   33 ,  218 ,  197 ,   40 ,    8 ,    0 ,   57 ,  102 ,  141 ,  139 ,  190 ,  108 ,   67 ,   94 
E: 000000.241981 64 01 81 7f 81 81 00 00 42 08 00 00 00 1f 08 2a eb f7 ff ef ff 0a 00 36 00 62 1f 35 05 20 06 da c5 07 80 00 00 00 80 00 00 00 00 09 09 00 00 00 00 00 09 21 da c5 28 08 00 39 66 8d 8b be 6c 43 5e
# ReportID: 1 / X:  129 | Y:  127 | Z:  129 | Rz:  129 | Rx:    0 | Ry:    0 | 0xff000020:   67 | Hat switch:   8 | Button: 0  0  0  0  0  0  0  0  0  0  0  0  0  0  0 | 0xff000021: 0 , 0 , 0 , 0 , 0 , 0 , 0 , 0 , 0 , 0 , 0 , 0 , 0 | 0xff000022:   32 ,    8 ,   42 ,  235 ,  247 ,  255 ,  238 ,  255 ,   11 ,    0 ,   45 ,    0 ,  100 ,   31 ,   52 ,    5 ,   19 ,   53 ,  218 ,  197 ,    8 ,  128 ,    0 ,    0 ,    0 ,  128 ,    0 ,    0 ,    0 ,    0 ,    9 ,    9 ,    0 ,    0 ,    0 ,    0 ,    0 ,  233 ,   79 ,  218 ,  197 ,   40 ,    8 ,    0 ,  171 ,   16 ,   80 ,  124 ,  241 ,   22 ,   28 ,  210 
E: 000000.245958 64 01 81 7f 81 81 00 00 43 08 00 00 00 20 08 2a eb f7 ff ee ff 0b 00 2d 00 64 1f 34 05 13 35 da c5 08 80 00 00 00 80 00 00 00 00 09 09 00 00 00 00 00 e9 4f da c5 28 08 00 ab 10 50 7c f1 16 1c d2
# ReportID: 1 / X:  129 | Y:  126 | Z:  129 | Rz:  129 | Rx:    0 | Ry:    0 | 0xff000020:   68 | Hat switch:   8 | Button: 0  0  0  0  0  0  0  0  0  0  0  0  0  0  0 | 0xff000021: 0 , 0 , 0 , 0 , 0 , 0 , 0 , 0 , 0 , 0 , 0 , 0 , 0 | 0xff000022:   33 ,    8 ,   42 ,  235 ,  248 ,  255 ,  238 ,  255 ,   10 ,    0 ,   43 ,    0 ,  100 ,   31 ,   55 ,    5 ,    6 ,  100 ,  218 ,  197 ,    7 ,  128 ,    0 ,    0 ,    0 ,  128 ,    0 ,    0 ,    0 ,    0 ,    9 ,    9 ,    0 ,    0 ,    0 ,    0 ,    0 ,  201 ,  126 ,  218 ,  197 ,   40 ,    8 ,    0 ,    5 ,  136 ,  150 ,  182 ,   29 ,   27 ,   52 ,   30 
E: 000000.249940 64 01 81 7e 81 81 00 00 44 08 00 00 00 21 08 2a eb f8 ff ee ff 0a 00 2b 00 64 1f 37 05 06 64 da c5 07 80 00 00 00 80 00 00 00 00 09 09 00 00 00 00 00 c9 7e da c5 28 08 00 05 88 96 b6 1d 1b 34 1e
# ReportID: 1 / X:  129 | Y:  127 | Z:  129 | Rz:  129 | Rx:    0 | Ry:    0 | 0xff000020:   69 | Hat switch:   8 | Button: 0  0  0  0  0  0  0  0  0  0  0  0  0  0  0 | 0xff000021: 0 , 0 , 0 , 0 , 0 , 0 , 0 , 0 , 0 , 0 , 0 , 0 , 0 | 0xff000022:   34 ,    8 ,   42 ,  235 ,  247 ,  255 ,  238 ,  255 ,    9 ,    0 ,   45 ,    0 ,   89 ,   31 ,   41 ,    5 ,  249 ,  146 ,  218 ,  197 ,    7 ,  128 ,    0 ,    0 ,    0 ,  128 ,    0 ,    0 ,    0 ,    0 ,    9 ,    9 ,    0 ,    0 ,    0 ,    0 ,    0 ,  169 ,  173 ,  218 ,  197 ,   40 ,    8 ,    0 ,  216 ,  178 ,  158 ,   36 ,  129 ,   94 ,  220 ,  246 
E: 000000.253998 64 01 81 7f 81 81 00 00 45 08 00 00 00 22 08 2a eb f7 ff ee ff 09 00 2d 00 59 1f 29 05 f9 92 da c5 07 80 00 00 00 80 00 00 00 00 09 09 00 00 00 00 00 a9 ad da c5 28 08 00 d8 b2 9e 24 81 5e dc f6
# ReportID: 1 / X:  129 | Y:  127 | Z:  129 | Rz:  129 | Rx:    0 | Ry:    0 | 0xff000020:   70 | Hat switch:   8 | Button: 0  0  0  0  0  0  0  0  0  0  0  0  0  0  0 | 0xff000021: 0 , 0 , 0 , 0 , 0 , 0 , 0 , 0 , 0 , 0 , 0 , 0 , 0 | 0xff000022:   35 ,    8 ,   42 ,  235 ,  246 ,  255 ,  238 ,  255 ,    9 ,    0 ,   52 ,    0 ,   89 ,   31 ,   42 ,    5 ,  236 ,  193 ,  218 ,  197 ,    7 ,  128 ,    0 ,    0 ,    0 ,  128 ,    0 ,    0 ,    0 ,    0 ,    9 ,    9 ,    0 ,    0 ,    0 ,    0 ,    0 ,  137 ,  220 ,  218 ,  197 ,   40 ,    8 ,    0 ,  167 ,  129 ,  114 ,  125 ,  188 ,  101 ,  121 ,   53 
E: 000000.258939 64 01 81 7f 81 81 00 00 46 08 00 00 00 23 08 2a eb f6 ff ee ff 09 00 34 00 59 1f 2a 05 ec c1 da c5 07 80 00 00 00 80 00 00 00 00 09 09 00 00 00 00 00 89 dc da c5 28 08 00 a7 81 72 7d bc 65 79 35
# ReportID: 1 / X:  129 | Y:  127 | Z:  129 | Rz:  129 | Rx:    0 | Ry:    0 | 0xff000020:   71 | Hat switch:   8 | Button: 0  0  0  0  0  0  0  0  0  0  0  0  0  0  0 | 0xff000021: 0 , 0 , 0 , 0 , 0 , 0 , 0 , 0 , 0 , 0 , 0 , 0 , 0 | 0xff000022:   36 ,    8 ,   42 ,  235 ,  247 ,  255 ,  238 ,  255 ,   11 ,    0 ,   45 ,    0 ,   87 ,   31 ,   50 ,    5 ,  223 ,  240 ,  218 ,  197 ,    7 ,  128 ,    0 ,    0 ,    0 ,  128 ,    0 ,    0 ,    0 ,    0 ,    9 ,    9 ,    0 ,    0 ,    0 ,    0 ,    0 ,  105 ,   11 ,  219 ,  197 ,   40 ,    8 ,    0 ,    1 ,  171 ,  124 ,  179 ,  176 ,  155 ,  135 ,   66 
E: 000000.262097 64 01 81 7f 81 81 00 00 47 08 00 00 00 24 08 2a eb f7 ff ee ff 0b 00 2d 00 57 1f 32 05 df f0 da c5 07 80 00 00 00 80 00 00 00 00 09 09 00 00 00 00 00 69 0b db c5 28 08 00 01 ab 7c b3 b0 9b 87 42
# ReportID: 1 / X:  129 | Y:  126 | Z:  129 | Rz:  129 | Rx:    0 | Ry:    0 | 0xff000020:   72 | Hat switch:   8 | Button: 0  0  0  0  0  0  0  0  0  0  0  0  0  0  0 | 0xff000021: 0 , 0 , 0 , 0 , 0 , 0 , 0 , 0 , 0 , 0 , 0 , 0 , 0 | 0xff000022:   37 ,    8 ,   42 ,  235 ,  247 ,  255 ,  239 ,  255 ,   10 ,    0 ,   47 ,    0 ,   88 ,   31 ,   46 ,    5 ,  210 ,   31 ,  219 ,  197 ,    7 ,  128 ,    0 ,    0 ,    0 ,  128 ,    0 ,    0 ,    0 ,    0 ,    9 ,    9 ,    0 ,    0 ,    0 ,    0 ,    0 ,   73 ,   58 ,  219 ,  197 ,   40 ,    8 ,    0 ,  100 ,  255 ,  128 ,  226 ,  182 ,  222 ,  207 ,   76 
E: 000000.265996 64 01 81 7e 81 81 00 00 48 08 00 00 00 25 08 2a eb f7 ff ef ff 0a 00 2f 00 58 1f 2e 05 d2 1f db c5 07 80 00 00 00 80 00 00 00 00 09 09 00 00 00 00 00 49 3a db c5 28 08 00 64 ff 80 e2 b6 de cf 4c
# ReportID: 1 / X:  129 | Y:  127 | Z:  129 | Rz:  129 | Rx:    0 | Ry:    0 | 0xff000020:   73 | Hat switch:   8 | Button: 0  0  0  0  0  0  0  0  0  0  0  0  0  0  0 | 0xff000021: 0 , 0 , 0 , 0 , 0 , 0 , 0 , 0 , 0 , 0 , 0 , 0 , 0 | 0xff000022:   38 ,    8 ,   42 ,  235 ,  247 ,  255 ,  238 ,  255 ,   10 ,    0 ,   36 ,    0 ,   91 ,   31 ,   46 ,    5 ,  197 ,   78 ,  219 ,  197 ,    7 ,  128 ,    0 ,    0 ,    0 ,  128 ,    0 ,    0 ,    0 ,    0 ,    9 ,    9 ,    0 ,    0 ,    0 ,    0 ,    0 ,   41 ,  105 ,  219 ,  197 ,   40 ,    8 ,    0 ,   20 ,  246 ,  151 ,  182 ,  151 ,   19 ,   51 ,   96 
E: 000000.270379 64 01 81 7f 81 81 00 00 49 08 00 00 00 26 08 2a eb f7 ff ee ff 0a 00 24 00 5b 1f 2e 05 c5 4e db c5 07 80 00 00 00 80 00 00 00 00 09 09 00 00 00 00 00 29 69 db c5 28 08 00 14 f6 97 b6 97 13 33 60
# ReportID: 1 / X:  129 | Y:  127 | Z:  129 | Rz:  129 | Rx:    0 | Ry:    0 | 0xff000020:   74 | Hat switch:   8 | Button: 0  0  0  0  0  0  0  0  0  0  0  0  0  0  0 | 0xff000021: 0 , 0 , 0 , 0 , 0 , 0 , 0 , 0 , 0 , 0 , 0 , 0 , 0 | 0xff000022:   39 ,    8 ,   42 ,  235 ,  247 ,  255 ,  238 ,  255 ,   10 ,    0 ,   53 ,    0 ,   94 ,   31 ,   47 ,    5 ,  184 ,  125 ,  219 ,  197 ,    7 ,  128 ,    0 ,    0 ,    0 ,  128 ,    0 ,    0 ,    0 ,    0 ,    9 ,    9 ,    0 ,    0 ,    0 ,    0 ,    0 ,    9 ,  152 ,  219 ,  197 ,   40 ,    8 ,    0 ,   10 ,  106 ,  244 ,  144 ,    5 ,  233 ,   19 ,  207 
E: 000000.273809 64 01 81 7f 81 81 00 00 4a 08 00 00 00 27 08 2a eb f7 ff ee ff 0a 00 35 00 5e 1f 2f 05 b8 7d db c5 07 80 00 00 00 80 00 00 00 00 09 09 00 00 00 00 00 09 98 db c5 28 08 00 0a 6a f4 90 05 e9 13 cf
# ReportID: 1 / X:  129 | Y:  127 | Z:  129 | Rz:  129 | Rx:    0 | Ry:    0 | 0xff000020:   75 | Hat switch:   8 | Button: 0  0  0  0  0  0  0  0  0  0  0  0  0  0  0 | 0xff000021: 0 , 0 , 0 , 0 , 0 , 0 , 0 , 0 , 0 , 0 , 0 , 0 , 0 | 0xff000022:   40 ,    8 ,   42 ,  235 ,  246 ,  255 ,  239 ,  255 ,    9 ,    0 ,   40 ,    0 ,   88 ,   31 ,   48 ,    5 ,  171 ,  172 ,  219 ,  197 ,    7 ,  128 ,    0 ,    0 ,    0 ,  128 ,    0 ,    0 ,    0 ,    0 ,    9 ,    9 ,    0 ,    0 ,    0 ,    0 ,    0 ,  233 ,  198 ,  219 ,  197 ,   40 ,    8 ,    0 ,  221 ,   48 ,  169 ,  178 ,  208 ,  223 ,  157 ,  179 
E: 000000.277988 64 01 81 7f 81 81 00 00 4b 08 00 00 00 28 08 2a eb f6 ff ef ff 09 00 28 00 58 1f 30 05 ab ac db c5 07 80 00 00 00 80 00 00 00 00 09 09 00 00 00 00 00 e9 c6 db c5 28 08 00 dd 30 a9 b2 d0 df 9d b3
# ReportID: 1 / X:  129 | Y:  127 | Z:  129 | Rz:  129 | Rx:    0 | Ry:    0 | 0xff000020:   76 | Hat switch:   8 | Button: 0  0  0  0  0  0  0  0  0  0  0  0  0  0  0 | 0xff000021: 0 , 0 , 0 , 0 , 0 , 0 , 0 , 0 , 0 , 0 , 0 , 0 , 0 | 0xff000022:   41 ,    8 ,   42 ,  235 ,  246 ,  255 ,  238 ,  255 ,    9 ,    0 ,   41 ,    0 ,   75 ,   31 ,   50 ,    5 ,  158 ,  219 ,  219 ,  197 ,    7 ,  128 ,    0 ,    0 ,    0 ,  128 ,    0 ,    0 ,    0 ,    0 ,    9 ,    9 ,    0 ,    0 ,    0 ,    0 ,    0 ,  201 ,  245 ,  219 ,  197 ,   40 ,    8 ,    0 ,  137 ,  139 ,   19 ,  223 ,  248 ,   86 ,   62 ,   94 
E: 000000.283018 64 01 81 7f 81 81 00 00 4c 08 00 00 00 29 08 2a eb f6 ff ee ff 09 00 29 00 4b 1f 32 05 9e db db c5 07 80 00 00 00 80 00 00 00 00 09 09 00 00 00 00 00 c9 f5 db c5 28 08 00 89 8b 13 df f8 56 3e 5e
# ReportID: 1 / X:  129 | Y:  127 | Z:  129 | Rz:  129 | Rx:    0 | Ry:    0 | 0xff000020:   77 | Hat switch:   8 | Button: 0  0  0  0  0  0  0  0  0  0  0  0  0  0  0 | 0xff000021: 0 , 0 , 0 , 0 , 0 , 0 , 0 , 0 , 0 , 0 , 0 , 0 , 0 | 0xff000022:   42 ,    8 ,   42 ,  235 ,  247 ,  255 ,  238 ,  255 ,    9 ,    0 ,   44 ,    0 ,   76 ,   31 ,   51 ,    5 ,  145 ,   10 ,  220 ,  197 ,    7 ,  128 ,    0 ,    0 ,    0 ,  128 ,    0 ,    0 ,    0 ,    0 ,    9 ,    9 ,    0 ,    0 ,    0 ,    0 ,    0 ,  169 ,   36 ,  220 ,  197 ,   40 ,    8 ,    0 ,  174 ,  116 ,   10 ,  170 ,   24 ,   28 ,  159 ,   47 
E: 000000.286095 64 01 81 7f 81 81 00 00 4d 08 00 00 00 2a 08 2a eb f7 ff ee ff 09 00 2c 00 4c 1f 33 05 91 0a dc c5 07 80 00 00 00 80 00 00 00 00 09 09 00 00 00 00 00 a9 24 dc c5 28 08 00 ae 74 0a aa 18 1c 9f 2f
# ReportID: 1 / X:  129 | Y:  127 | Z:  129 | Rz:  129 | Rx:    0 | Ry:    0 | 0xff000020:   78 | Hat switch:   8 | Button: 0  0  0  0  0  0  0  0  0  0  0  0  0  0  0 | 0xff000021: 0 , 0 , 0 , 0 , 0 , 0 , 0 , 0 , 0 , 0 , 0 , 0 , 0 | 0xff000022:   43 ,    8 ,   42 ,  235 ,  247 ,  255 ,  239 ,  255 ,    9 ,    0 ,   49 ,    0 ,   78 ,   31 ,   60 ,    5 ,  132 ,   57 ,  220 ,  197 ,    7 ,  128 ,    0 ,    0 ,    0 ,  128 ,    0 ,    0 ,    0 ,    0 ,    9 ,    9 ,    0 ,    0 ,    0 ,    0 ,    0 ,  137 ,   83 ,  220 ,  197 ,   40 ,    8 ,    0 ,   25 ,  234 ,   37 ,  104 ,  193 ,  119 ,   19 ,  235 
E: 000000.290175 64 01 81 7f 81 81 00 00 4e 08 00 00 00 2b 08 2a eb f7 ff ef ff 09 00 31 00 4e 1f 3c 05 84 39 dc c5 07 80 00 00 00 80 00 00 00 00 09 09 00 00 00 00 00 89 53 dc c5 28 08 00 19 ea 25 68 c1 77 13 eb
# ReportID: 1 / X:  129 | Y:  127 | Z:  129 | Rz:  129 | Rx:    0 | Ry:    0 | 0xff000020:   79 | Hat switch:   8 | Button: 0  0  0  0  0  0  0  0  0  0  0  0  0  0  0 | 0xff000021: 0 , 0 , 0 , 0 , 0 , 0 , 0 , 0 , 0 , 0 , 0 , 0 , 0 | 0xff000022:   44 ,    8 ,   42 ,  235 ,  247 ,  255 ,  239 ,  255 ,    9 ,    0 ,   39 ,    0 ,   82 ,   31 ,   55 ,    5 ,  119 ,  104 ,  220 ,  197 ,    7 ,  128 ,    0 ,    0 ,    0 ,  128 ,    0 ,    0 ,    0 ,    0 ,    9 ,    9 ,    0 ,    0 ,    0 ,    0 ,    0 ,  105 ,  130 ,  220 ,  197 ,   40 ,    8 ,    0 ,  244 ,   93 ,   12 ,  153 ,  222 ,  145 ,   79 ,   87 
E: 000000.294592 64 01 81 7f 81 81 00 00 4f 08 00 00 00 2c 08 2a eb f7 ff ef ff 09 00 27 00 52 1f 37 05 77 68 dc c5 07 80 00 00 00 80 00 00 00 00 09 09 00 00 00 00 00 69 82 dc c5 28 08 00 f4 5d 0c 99 de 91 4f 57
# ReportID: 1 / X:  129 | Y:  127 | Z:  129 | Rz:  129 | Rx:    0 | Ry:    0 | 0xff000020:   80 | Hat switch:   8 | Button: 0  0  0  0  0  0  0  0  0  0  0  0  0  0  0 | 0xff000021: 0 , 0 , 0 , 0 , 0 , 0 , 0 , 0 , 0 , 0 , 0 , 0 , 0 | 0xff000022:   45 ,    8 ,   42 ,  235 ,  247 ,  255 ,  238 ,  255 ,   10 ,    0 ,   45 ,    0 ,   82 ,   31 ,   55 ,    5 ,  106 ,  151 ,  220 ,  197 ,    7 ,  128 ,    0 ,    0 ,    0 ,  128 ,    0 ,    0 ,    0 ,    0 ,    9 ,    9 ,    0 ,    0 ,    0 ,    0 ,    0 ,   73 ,  177 ,  220 ,  197 ,   40 ,    8 ,    0 ,  224 ,  183 ,  123 ,   59 ,  182 ,  153 ,  254 ,  199 
E: 000000.298293 64 01 81 7f 81 81 00 00 50 08 00 00 00 2d 08 2a eb f7 ff ee ff 0a 00 2d 00 52 1f 37 05 6a 97 dc c5 07 80 00 00 00 80 00 00 00 00 09 09 00 00 00 00 00 49 b1 dc c5 28 08 00 e0 b7 7b 3b b6 99 fe c7
# ReportID: 1 / X:  129 | Y:  127 | Z:  129 | Rz:  129 | Rx:    0 | Ry:    0 | 0xff000020:   81 | Hat switch:   8 | Button: 0  0  0  0  0  0  0  0  0  0  0  0  0  0  0 | 0xff000021: 0 , 0 , 0 , 0 , 0 , 0 , 0 , 0 , 0 , 0 , 0 , 0 , 0 | 0xff000022:   46 ,    8 ,   42 ,  235 ,  245 ,  255 ,  238 ,  255 ,    9 ,    0 ,   48 ,    0 ,   79 ,   31 ,   53 ,    5 ,   93 ,  198 ,  220 ,  197 ,    7 ,  128 ,    0 ,    0 ,    0 ,  128 ,    0 ,    0 ,    0 ,    0 ,    9 ,    9 ,    0 ,    0 ,    0 ,    0 ,    0 ,   41 ,  224 ,  220 ,  197 ,   40 ,    8 ,    0 ,   32 ,  110 ,   85 ,  191 ,  226 ,  191 ,   47 ,  146 
E: 000000.301915 64 01 81 7f 81 81 00 00 51 08 00 00 00 2e 08 2a eb f5 ff ee ff 09 00 30 00 4f 1f 35 05 5d c6 dc c5 07 80 00 00 00 80 00 00 00 00 09 09 00 00 00 00 00 29 e0 dc c5 28 08 00 20 6e 55 bf e2 bf 2f 92
# ReportID: 1 / X:  129 | Y:  127 | Z:  129 | Rz:  129 | Rx:    0 | Ry:    0 | 0xff000020:   82 | Hat switch:   8 | Button: 0  0  0  0  0  0  0  0  0  0  0  0  0  0  0 | 0xff000021: 0 , 0 , 0 , 0 , 0 , 0 , 0 , 0 , 0 , 0 , 0 , 0 , 0 | 0xff000022:   47 ,    8 ,   42 ,  235 ,  248 ,  255 ,  238 ,  255 ,   10 ,    0 ,   46 ,    0 ,   83 ,   31 ,   64 ,    5 ,   80 ,  245 ,  220 ,  197 ,    7 ,  128 ,    0 ,    0 ,    0 ,  128 ,    0 ,    0 ,    0 ,    0 ,    9 ,    9 ,    0 ,    0 ,    0 ,    0 ,    0 ,    9 ,   15 ,  221 ,  197 ,   40 ,    8 ,    0 ,   45 ,   22 ,  142 ,  107 ,   20 ,  234 ,  133 ,   25 
E: 000000.305896 64 01 81 7f 81 81 00 00 52 08 00 00 00 2f 08 2a eb f8 ff ee ff 0a 00 2e 00 53 1f 40 05 50 f5 dc c5 07 80 00 00 00 80 00 00 00 00 09 09 00 00 00 00 00 09 0f dd c5 28 08 00 2d 16 8e 6b 14 ea 85 19
# ReportID: 1 / X:  129 | Y:  126 | Z:  129 | Rz:  129 | Rx:    0 | Ry:    0 | 0xff000020:   83 | Hat switch:   8 | Button: 0  0  0  0  0  0  0  0  0  0  0  0  0  0  0 | 0xff000021: 0 , 0 , 0 , 0 , 0 , 0 , 0 , 0 , 0 , 0 , 0 , 0 , 0 | 0xff000022:   48 ,    8 ,   42 ,  235 ,  246 ,  255 ,  239 ,  255 ,    9 ,    0 ,   44 ,    0 ,   72 ,   31 ,   70 ,    5 ,   67 ,   36 ,  221 ,  197 ,    7 ,  128 ,    0 ,    0 ,    0 ,  128 ,    0 ,    0 ,    0 ,    0 ,    9 ,    9 ,    0 ,    0 ,    0 ,    0 ,    0 ,  233 ,   61 ,  221 ,  197 ,   40 ,    8 ,    0 ,  153 ,   44 ,   74 ,   42 ,  136 ,   59 ,   97 ,   90 
E: 000000.311095 64 01 81 7e 81 81 00 00 53 08 00 00 00 30 08 2a eb f6 ff ef ff 09 00 2c 00 48 1f 46 05 43 24 dd c5 07 80 00 00 00 80 00 00 00 00 09 09 00 00 00 00 00 e9 3d dd c5 28 08 00 99 2c 4a 2a 88 3b 61 5a
# ReportID: 1 / X:  129 | Y:  127 | Z:  129 | Rz:  129 | Rx:    0 | Ry:    0 | 0xff000020:   84 | Hat switch:   8 | Button: 0  0  0  0  0  0  0  0  0  0  0  0  0  0  0 | 0xff000021: 0 , 0 , 0 , 0 , 0 , 0 , 0 , 0 , 0 , 0 , 0 , 0 , 0 | 0xff000022:   49 ,    8 ,   42 ,  235 ,  246 ,  255 ,  238 ,  255 ,    9 ,    0 ,   46 ,    0 ,   78 ,   31 ,   62 ,    5 ,   54 ,   83 ,  221 ,  197 ,    7 ,  128 ,    0 ,    0 ,    0 ,  128 ,    0 ,    0 ,    0 ,    0 ,    9 ,    9 ,    0 ,    0 ,    0 ,    0 ,    0 ,  201 ,  108 ,  221 ,  197 ,   40 ,    8 ,    0 ,   93 ,  219 ,  221 ,  132 ,  168 ,   78 ,   95 ,   66 
E: 000000.314809 64 01 81 7f 81 81 00 00 54 08 00 00 00 31 08 2a eb f6 ff ee ff 09 00 2e 00 4e 1f 3e 05 36 53 dd c5 07 80 00 00 00 80 00 00 00 00 09 09 00 00 00 00 00 c9 6c dd c5 28 08 00 5d db dd 84 a8 4e 5f 42
# ReportID: 1 / X:  129 | Y:  127 | Z:  129 | Rz:  129 | Rx:    0 | Ry:    0 | 0xff000020:   85 | Hat switch:   8 | Button: 0  0  0  0  0  0  0  0  0  0  0  0  0  0  0 | 0xff000021: 0 , 0 , 0 , 0 , 0 , 0 , 0 , 0 , 0 , 0 , 0 , 0 , 0 | 0xff000022:   50 ,    8 ,   42 ,  235 ,  248 ,  255 ,  239 ,  255 ,   10 ,    0 ,   54 ,    0 ,   74 ,   31 ,   62 ,    5 ,   41 ,  130 ,  221 ,  197 ,    7 ,  128 ,    0 ,    0 ,    0 ,  128 ,    0 ,    0 ,    0 ,    0 ,    9 ,    9 ,    0 ,    0 ,    0 ,    0 ,    0 ,  169 ,  155 ,  221 ,  197 ,   40 ,    8 ,    0 ,  225 ,  114 ,   31 ,   77 ,  136 ,  128 ,   95 ,   16 
E: 000000.318402 64 01 81 7f 81 81 00 00 55 08 00 00 00 32 08 2a eb f8 ff ef ff 0a 00 36 00 4a 1f 3e 05 29 82 dd c5 07 80 00 00 00 80 00 00 00 00 09 09 00 00 00 00 00 a9 9b dd c5 28 08 00 e1 72 1f 4d 88 80 5f 10
# ReportID: 1 / X:  129 | Y:  127 | Z:  129 | Rz:  129 | Rx:    0 | Ry:    0 | 0xff000020:   86 | Hat switch:   8 | Button: 0  0  0  0  0  0  0  0  0  0  0  0  0  0  0 | 0xff000021: 0 , 0 , 0 , 0 , 0 , 0 , 0 , 0 , 0 , 0 , 0 , 0 , 0 | 0xff000022:   51 ,    8 ,   42 ,  235 ,  248 ,  255 ,  238 ,  255 ,   10 ,    0 ,   43 ,    0 ,   85 ,   31 ,   66 ,    5 ,   28 ,  177 ,  221 ,  197 ,    7 ,  128 ,    0 ,    0 ,    0 ,  128 ,    0 ,    0 ,    0 ,    0 ,    9 ,    9 ,    0 ,    0 ,    0 ,    0 ,    0 ,  137 ,  202 ,  221 ,  197 ,   40 ,    8 ,    0 ,   19 ,  139 ,  138 ,  179 ,  178 ,  214 ,  113 ,  219 
E: 000000.322224 64 01 81 7f 81 81 00 00 56 08 00 00 00 33 08 2a eb f8 ff ee ff 0a 00 2b 00 55 1f 42 05 1c b1 dd c5 07 80 00 00 00 80 00 00 00 00 09 09 00 00 00 00 00 89 ca dd c5 28 08 00 13 8b 8a b3 b2 d6 71 db
# ReportID: 1 / X:  129 | Y:  127 | Z:  129 | Rz:  129 | Rx:    0 | Ry:    0 | 0xff000020:   87 | Hat switch:   8 | Button: 0  0  0  0  0  0  0  0  0  0  0  0  0  0  0 | 0xff000021: 0 , 0 , 0 , 0 , 0 , 0 , 0 , 0 , 0 , 0 , 0 , 0 , 0 | 0xff000022:   52 ,    8 ,   42 ,  235 ,  248 ,  255 ,  239 ,  255 ,   10 ,    0 ,   42 ,    0 ,   85 ,   31 ,   67 ,    5 ,   15 ,  224 ,  221 ,  197 ,    7 ,  128 ,    0 ,    0 ,    0 ,  128 ,    0 ,    0 ,    0 ,    0 ,    9 ,    9 ,    0 ,    0 ,    0 ,    0 ,    0 ,  105 ,  249 ,  221 ,  197 ,   40 ,    8 ,    0 ,  169 ,   77 ,  234 ,  220 ,  149 ,  122 ,   46 ,  136 
E: 000000.326014 64 01 81 7f 81 81 00 00 57 08 00 00 00 34 08 2a eb f8 ff ef ff 0a 00 2a 00 55 1f 43 05 0f e0 dd c5 07 80 00 00 00 80 00 00 00 00 09 09 00 00 00 00 00 69 f9 dd c5 28 08 00 a9 4d ea dc 95 7a 2e 88
# ReportID: 1 / X:  129 | Y:  127 | Z:  129 | Rz:  129 | Rx:    0 | Ry:    0 | 0xff000020:   88 | Hat switch:   8 | Button: 0  0  0  0  0  0  0  0  0  0  0  0  0  0  0 | 0xff000021: 0 , 0 , 0 , 0 , 0 , 0 , 0 , 0 , 0 , 0 , 0 , 0 , 0 | 0xff000022:   53 ,    8 ,   42 ,  235 ,  248 ,  255 ,  240 ,  255 ,   11 ,    0 ,   42 ,    0 ,   82 ,   31 ,   64 ,    5 ,    2 ,   15 ,  222 ,  197 ,    7 ,  128 ,    0 ,    0 ,    0 ,  128 ,    0 ,    0 ,    0 ,    0 ,    9 ,    9 ,    0 ,    0 ,    0 ,    0 ,    0 ,   83 ,   40 ,  222 ,  197 ,   40 ,    8 ,    0 ,  183 ,  236 ,  222 ,  170 ,  122 ,   38 ,   42 ,  125 
E: 000000.329894 64 01 81 7f 81 81 00 00 58 08 00 00 00 35 08 2a eb f8 ff f0 ff 0b 00 2a 00 52 1f 40 05 02 0f de c5 07 80 00 00 00 80 00 00 00 00 09 09 00 00 00 00 00 53 28 de c5 28 08 00 b7 ec de aa 7a 26 2a 7d
# ReportID: 1 / X:  129 | Y:  127 | Z:  129 | Rz:  129 | Rx:    0 | Ry:    0 | 0xff000020:   89 | Hat switch:   8 | Button: 0  0  0  0  0  0  0  0  0  0  0  0  0  0  0 | 0xff000021: 0 , 0 , 0 , 0 , 0 , 0 , 0 , 0 , 0 , 0 , 0 , 0 , 0 | 0xff000022:   54 ,    8 ,   42 ,  235 ,  248 ,  255 ,  239 ,  255 ,   11 ,    0 ,   49 ,    0 ,   80 ,   31 ,   58 ,    5 ,  245 ,   61 ,  222 ,  197 ,    7 ,  128 ,    0 ,    0 ,    0 ,  128 ,    0 ,    0 ,    0 ,    0 ,    9 ,    9 ,    0 ,    0 ,    0 ,    0 ,    0 ,   69 ,   87 ,  222 ,  197 ,   40 ,    8 ,    0 ,  171 ,  169 ,   12 ,  139 ,   49 ,  145 ,  173 ,   52 
E: 000000.335099 64 01 81 7f 81 81 00 00 59 08 00 00 00 36 08 2a eb f8 ff ef ff 0b 00 31 00 50 1f 3a 05 f5 3d de c5 07 80 00 00 00 80 00 00 00 00 09 09 00 00 00 00 00 45 57 de c5 28 08 00 ab a9 0c 8b 31 91 ad 34
# ReportID: 1 / X:  129 | Y:  127 | Z:  129 | Rz:  129 | Rx:    0 | Ry:    0 | 0xff000020:   90 | Hat switch:   8 | Button: 0  0  0  0  0  0  0  0  0  0  0  0  0  0  0 | 0xff000021: 0 , 0 , 0 , 0 , 0 , 0 , 0 , 0 , 0 , 0 , 0 , 0 , 0 | 0xff000022:   55 ,    8 ,   42 ,  235 ,  248 ,  255 ,  238 ,  255 ,   10 ,    0 ,   48 ,    0 ,   85 ,   31 ,   83 ,    5 ,  232 ,  108 ,  222 ,  197 ,    7 ,  128 ,    0 ,    0 ,    0 ,  128 ,    0 ,    0 ,    0 ,    0 ,    9 ,    9 ,    0 ,    0 ,    0 ,    0 ,    0 ,   16 ,  134 ,  222 ,  197 ,   40 ,    8 ,    0 ,   28 ,   65 ,  188 ,  176 ,  116 ,  220 ,  209 ,   91 
E: 000000.338945 64 01 81 7f 81 81 00 00 5a 08 00 00 00 37 08 2a eb f8 ff ee ff 0a 00 30 00 55 1f 53 05 e8 6c de c5 07 80 00 00 00 80 00 00 00 00 09 09 00 00 00 00 00 10 86 de c5 28 08 00 1c 41 bc b0 74 dc d1 5b
# ReportID: 1 / X:  129 | Y:  127 | Z:  129 | Rz:  129 | Rx:    0 | Ry:    0 | 0xff000020:   91 | Hat switch:   8 | Button: 0  0  0  0  0  0  0  0  0  0  0  0  0  0  0 | 0xff000021: 0 , 0 , 0 , 0 , 0 , 0 , 0 , 0 , 0 , 0 , 0 , 0 , 0 | 0xff000022:   56 ,    8 ,   42 ,  235 ,  248 ,  255 ,  238 ,  255 ,   10 ,    0 ,   35 ,    0 ,   71 ,   31 ,   39 ,    5 ,  219 ,  155 ,  222 ,  197 ,    7 ,  128 ,    0 ,    0 ,    0 ,  128 ,    0 ,    0 ,    0 ,    0 ,    9 ,    9 ,    0 ,    0 ,    0 ,    0 ,    0 ,  240 ,  180 ,  222 ,  197 ,   40 ,    8 ,    0 ,  198 ,   13 ,   46 ,  199 ,  218 ,   77 ,  160 ,  163 
E: 000000.342566 64 01 81 7f 81 81 00 00 5b 08 00 00 00 38 08 2a eb f8 ff ee ff 0a 00 23 00 47 1f 27 05 db 9b de c5 07 80 00 00 00 80 00 00 00 00 09 09 00 00 00 00 00 f0 b4 de c5 28 08 00 c6 0d 2e c7 da 4d a0 a3
# ReportID: 1 / X:  129 | Y:  127 | Z:  129 | Rz:  129 | Rx:    0 | Ry:    0 | 0xff000020:   92 | Hat switch:   8 | Button: 0  0  0  0  0  0  0  0  0  0  0  0  0  0  0 | 0xff000021: 0 , 0 , 0 , 0 , 0 , 0 , 0 , 0 , 0 , 0 , 0 , 0 , 0 | 0xff000022:   57 ,    8 ,   42 ,  235 ,  247 ,  255 ,  239 ,  255 ,   11 ,    0 ,   48 ,    0 ,   99 ,   31 ,   59 ,    5 ,  206 ,  202 ,  222 ,  197 ,    7 ,  128 ,    0 ,    0 ,    0 ,  128 ,    0 ,    0 ,    0 ,    0 ,    9 ,    9 ,    0 ,    0 ,    0 ,    0 ,    0 ,  210 ,  227 ,  222 ,  197 ,   40 ,    8 ,    0 ,  194 ,  162 ,  159 ,  239 ,  120 ,  109 ,  183 ,   22 
E: 000000.346013 64 01 81 7f 81 81 00 00 5c 08 00 00 00 39 08 2a eb f7 ff ef ff 0b 00 30 00 63 1f 3b 05 ce ca de c5 07 80 00 00 00 80 00 00 00 00 09 09 00 00 00 00 00 d2 e3 de c5 28 08 00 c2 a2 9f ef 78 6d b7 16
# ReportID: 1 / X:  129 | Y:  127 | Z:  129 | Rz:  129 | Rx:    0 | Ry:    0 | 0xff000020:   93 | Hat switch:   8 | Button: 0  0  0  0  0  0  0  0  0  0  0  0  0  0  0 | 0xff000021: 0 , 0 , 0 , 0 , 0 , 0 , 0 , 0 , 0 , 0 , 0 , 0 , 0 | 0xff000022:   58 ,    8 ,   42 ,  235 ,  247 ,  255 ,  239 ,  255 ,   10 ,    0 ,   43 ,    0 ,   87 ,   31 ,   52 ,    5 ,  193 ,  249 ,  222 ,  197 ,    7 ,  128 ,    0 ,    0 ,    0 ,  128 ,    0 ,    0 ,    0 ,    0 ,    9 ,    9 ,    0 ,    0 ,    0 ,    0 ,    0 ,  169 ,   18 ,  223 ,  197 ,   40 ,    8 ,    0 ,   97 ,  227 ,   35 ,  101 ,  107 ,   69 ,  236 ,  253 
E: 000000.350099 64 01 81 7f 81 81 00 00 5d 08 00 00 00 3a 08 2a eb f7 ff ef ff 0a 00 2b 00 57 1f 34 05 c1 f9 de c5 07 80 00 00 00 80 00 00 00 00 09 09 00 00 00 00 00 a9 12 df c5 28 08 00 61 e3 23 65 6b 45 ec fd
# ReportID: 1 / X:  129 | Y:  127 | Z:  129 | Rz:  129 | Rx:    0 | Ry:    0 | 0xff000020:   94 | Hat switch:   8 | Button: 0  0  0  0  0  0  0  0  0  0  0  0  0  0  0 | 0xff000021: 0 , 0 , 0 , 0 , 0 , 0 , 0 , 0 , 0 , 0 , 0 , 0 , 0 | 0xff000022:   59 ,    8 ,   42 ,  235 ,  246 ,  255 ,  239 ,  255 ,   10 ,    0 ,   52 ,    0 ,   80 ,   31 ,   52 ,    5 ,  180 ,   40 ,  223 ,  197 ,    7 ,  128 ,    0 ,    0 ,    0 ,  128 ,    0 ,    0 ,    0 ,    0 ,    9 ,    9 ,    0 ,    0 ,    0 ,    0 ,    0 ,  137 ,   65 ,  223 ,  197 ,   40 ,    8 ,    0 ,  167 ,   60 ,  254 ,  189 ,  240 ,  147 ,  204 ,   12 
E: 000000.353797 64 01 81 7f 81 81 00 00 5e 08 00 00 00 3b 08 2a eb f6 ff ef ff 0a 00 34 00 50 1f 34 05 b4 28 df c5 07 80 00 00 00 80 00 00 00 00 09 09 00 00 00 00 00 89 41 df c5 28 08 00 a7 3c fe bd f0 93 cc 0c
# ReportID: 1 / X:  129 | Y:  127 | Z:  129 | Rz:  129 | Rx:    0 | Ry:    0 | 0xff000020:   95 | Hat switch:   8 | Button: 0  0  0  0  0  0  0  0  0  0  0  0  0  0  0 | 0xff000021: 0 , 0 , 0 , 0 , 0 , 0 , 0 , 0 , 0 , 0 , 0 , 0 , 0 | 0xff000022:   60 ,    8 ,   42 ,  235 ,  247 ,  255 ,  239 ,  255 ,   10 ,    0 ,   47 ,    0 ,   83 ,   31 ,   49 ,    5 ,  167 ,   87 ,  223 ,  197 ,    7 ,  128 ,    0 ,    0 ,    0 ,  128 ,    0 ,    0 ,    0 ,    0 ,    9 ,    9 ,    0 ,    0 ,    0 ,    0 ,    0 ,  105 ,  112 ,  223 ,  197 ,   40 ,    8 ,    0 ,   15 ,  220 ,   22 ,  172 ,  114 ,  154 ,  118 ,  244 
E: 000000.358847 64 01 81 7f 81 81 00 00 5f 08 00 00 00 3c 08 2a eb f7 ff ef ff 0a 00 2f 00 53 1f 31 05 a7 57 df c5 07 80 00 00 00 80 00 00 00 00 09 09 00 00 00 00 00 69 70 df c5 28 08 00 0f dc 16 ac 72 9a 76 f4
# ReportID: 1 / X:  129 | Y:  126 | Z:  129 | Rz:  129 | Rx:    0 | Ry:    0 | 0xff000020:   96 | Hat switch:   8 | Button: 0  0  0  0  0  0  0  0  0  0  0  0  0  0  0 | 0xff000021: 0 , 0 , 0 , 0 , 0 , 0 , 0 , 0 , 0 , 0 , 0 , 0 , 0 | 0xff000022:   61 ,    8 ,   42 ,  235 ,  247 ,  255 ,  239 ,  255 ,   10 ,    0 ,   40 ,    0 ,   94 ,   31 ,   44 ,    5 ,  154 ,  134 ,  223 ,  197 ,    7 ,  128 ,    0 ,    0 ,    0 ,  128 ,    0 ,    0 ,    0 ,    0 ,    9 ,    9 ,    0 ,    0 ,    0 ,    0 ,    0 ,   73 ,  159 ,  223 ,  197 ,   40 ,    8 ,    0 ,  126 ,  120 ,  141 ,  211 ,  128 ,   14 ,  218 ,  158 
E: 000000.361950 64 01 81 7e 81 81 00 00 60 08 00 00 00 3d 08 2a eb f7 ff ef ff 0a 00 28 00 5e 1f 2c 05 9a 86 df c5 07 80 00 00 00 80 00 00 00 00 09 09 00 00 00 00 00 49 9f df c5 28 08 00 7e 78 8d d3 80 0e da 9e
# ReportID: 1 / X:  129 | Y:  127 | Z:  129 | Rz:  129 | Rx:    0 | Ry:    0 | 0xff000020:   97 | Hat switch:   8 | Button: 0  0  0  0  0  0  0  0  0  0  0  0  0  0  0 | 0xff000021: 0 , 0 , 0 , 0 , 0 , 0 , 0 , 0 , 0 , 0 , 0 , 0 , 0 | 0xff000022:   62 ,    8 ,   42 ,  235 ,  247 ,  255 ,  238 ,  255 ,   11 ,    0 ,   41 ,    0 ,   91 ,   31 ,   38 ,    5 ,  141 ,  181 ,  223 ,  197 ,    7 ,  128 ,    0 ,    0 ,    0 ,  128 ,    0 ,    0 ,    0 ,    0 ,    9 ,    9 ,    0 ,    0 ,    0 ,    0 ,    0 ,   41 ,  206 ,  223 ,  197 ,   40 ,    8 ,    0 ,  158 ,   31 ,  212 ,  175 ,  190 ,   78 ,  131 ,  136 
E: 000000.365942 64 01 81 7f 81 81 00 00 61 08 00 00 00 3e 08 2a eb f7 ff ee ff 0b 00 29 00 5b 1f 26 05 8d b5 df c5 07 80 00 00 00 80 00 00 00 00 09 09 00 00 00 00 00 29 ce df c5 28 08 00 9e 1f d4 af be 4e 83 88
# ReportID: 1 / X:  129 | Y:  127 | Z:  129 | Rz:  129 | Rx:    0 | Ry:    0 | 0xff000020:   98 | Hat switch:   8 | Button: 0  0  0  0  0  0  0  0  0  0  0  0  0  0  0 | 0xff000021: 0 , 0 , 0 , 0 , 0 , 0 , 0 , 0 , 0 , 0 , 0 , 0 , 0 | 0xff000022:   63 ,    8 ,   42 ,  235 ,  248 ,  255 ,  238 ,  255 ,    9 ,    0 ,   54 ,    0 ,   92 ,   31 ,   36 ,    5 ,  128 ,  228 ,  223 ,  197 ,    7 ,  128 ,    0 ,    0 ,    0 ,  128 ,    0 ,    0 ,    0 ,    0 ,    9 ,    9 ,    0 ,    0 ,    0 ,    0 ,    0 ,    9 ,  253 ,  223 ,  197 ,   40 ,    8 ,    0 ,   97 ,  187 ,   43 ,   24 ,   50 ,   64 ,  130 ,  177 
E: 000000.369960 64 01 81 7f 81 81 00 00 62 08 00 00 00 3f 08 2a eb f8 ff ee ff 09 00 36 00 5c 1f 24 05 80 e4 df c5 07 80 00 00 00 80 00 00 00 00 09 09 00 00 00 00 00 09 fd df c5 28 08 00 61 bb 2b 18 32 40 82 b1
# ReportID: 1 / X:  129 | Y:  127 | Z:  129 | Rz:  129 | Rx:    0 | Ry:    0 | 0xff000020:   99 | Hat switch:   8 | Button: 0  0  0  0  0  0  0  0  0  0  0  0  0  0  0 | 0xff000021: 0 , 0 , 0 , 0 , 0 , 0 , 0 , 0 , 0 , 0 , 0 , 0 , 0 | 0xff000022:   64 ,    8 ,   42 ,  235 ,  248 ,  255 ,  239 ,  255 ,   11 ,    0 ,   51 ,    0 ,  103 ,   31 ,   38 ,    5 ,  115 ,   19 ,  224 ,  197 ,    7 ,  128 ,    0 ,    0 ,    0 ,  128 ,    0 ,    0 ,    0 ,    0 ,    9 ,    9 ,    0 ,    0 ,    0 ,    0 ,    0 ,  233 ,   43 ,  224 ,  197 ,   40 ,    8 ,    0 ,  202 ,  113 ,  243 ,  236 ,  106 ,   37 ,  255 ,   60 
E: 000000.375360 64 01 81 7f 81 81 00 00 63 08 00 00 00 40 08 2a eb f8 ff ef ff 0b 00 33 00 67 1f 26 05 73 13 e0 c5 07 80 00 00 00 80 00 00 00 00 09 09 00 00 00 00 00 e9 2b e0 c5 28 08 00 ca 71 f3 ec 6a 25 ff 3c
# ReportID: 1 / X:  129 | Y:  127 | Z:  129 | Rz:  129 | Rx:    0 | Ry:    0 | 0xff000020:  100 | Hat switch:   8 | Button: 0  0  0  0  0  0  0  0  0  0  0  0  0  0  0 | 0xff000021: 0 , 0 , 0 , 0 , 0 , 0 , 0 , 0 , 0 , 0 , 0 , 0 , 0 | 0xff000022:   65 ,    8 ,   42 ,  235 ,  247 ,  255 ,  238 ,  255 ,   10 ,    0 ,   49 ,    0 ,   81 ,   31 ,   34 ,    5 ,  102 ,   66 ,  224 ,  197 ,    7 ,  128 ,    0 ,    0 ,    0 ,  128 ,    0 ,    0 ,    0 ,    0 ,    9 ,    9 ,    0 ,    0 ,    0 ,    0 ,    0 ,  201 ,   90 ,  224 ,  197 ,   40 ,    8 ,    0 ,   78 ,  250 ,   57 ,  252 ,   32 ,  112 ,  156 ,  168 
E: 000000.378445 64 01 81 7f 81 81 00 00 64 08 00 00 00 41 08 2a eb f7 ff ee ff 0a 00 31 00 51 1f 22 05 66 42 e0 c5 07 80 00 00 00 80 00 00 00 00 09 09 00 00 00 00 00 c9 5a e0 c5 28 08 00 4e fa 39 fc 20 70 9c a8
# ReportID: 1 / X:  129 | Y:  126 | Z:  129 | Rz:  129 | Rx:    0 | Ry:    0 | 0xff000020:  101 | Hat switch:   8 | Button: 0  0  0  0  0  0  0  0  0  0  0  0  0  0  0 | 0xff000021: 0 , 0 , 0 , 0 , 0 , 0 , 0 , 0 , 0 , 0 , 0 , 0 , 0 | 0xff000022:   66 ,    8 ,   42 ,  235 ,  247 ,  255 ,  238 ,  255 ,    9 ,    0 ,   51 ,    0 ,   86 ,   31 ,   42 ,    5 ,   89 ,  113 ,  224 ,  197 ,    8 ,  128 ,    0 ,    0 ,    0 ,  128 ,    0 ,    0 ,    0 ,    0 ,    9 ,    9 ,    0 ,    0 ,    0 ,    0 ,    0 ,  169 ,  137 ,  224 ,  197 ,   40 ,    8 ,    0 ,   86 ,  157 ,    5 ,   67 ,   12 ,   30 ,   22 ,   73 
E: 000000.382703 64 01 81 7e 81 81 00 00 65 08 00 00 00 42 08 2a eb f7 ff ee ff 09 00 33 00 56 1f 2a 05 59 71 e0 c5 08 80 00 00 00 80 00 00 00 00 09 09 00 00 00 00 00 a9 89 e0 c5 28 08 00 56 9d 05 43 0c 1e 16 49
# ReportID: 1 / X:  129 | Y:  127 | Z:  129 | Rz:  129 | Rx:    0 | Ry:    0 | 0xff000020:  102 | Hat switch:   8 | Button: 0  0  0  0  0  0  0  0  0  0  0  0  0  0  0 | 0xff000021: 0 , 0 , 0 , 0 , 0 , 0 , 0 , 0 , 0 , 0 , 0 , 0 , 0 | 0xff000022:   67 ,    8 ,   42 ,  235 ,  247 ,  255 ,  239 ,  255 ,    9 ,    0 ,   51 ,    0 ,   90 ,   31 ,   39 ,    5 ,   76 ,  160 ,  224 ,  197 ,    7 ,  128 ,    0 ,    0 ,    0 ,  128 ,    0 ,    0 ,    0 ,    0 ,    9 ,    9 ,    0 ,    0 ,    0 ,    0 ,    0 ,  137 ,  184 ,  224 ,  197 ,   40 ,    8 ,    0 ,  249 ,  237 ,  220 ,   10 ,  234 ,   69 ,  124 ,  181 
E: 000000.387519 64 01 81 7f 81 81 00 00 66 08 00 00 00 43 08 2a eb f7 ff ef ff 09 00 33 00 5a 1f 27 05 4c a0 e0 c5 07 80 00 00 00 80 00 00 00 00 09 09 00 00 00 00 00 89 b8 e0 c5 28 08 00 f9 ed dc 0a ea 45 7c b5
# ReportID: 1 / X:  129 | Y:  127 | Z:  129 | Rz:  129 | Rx:    0 | Ry:    0 | 0xff000020:  103 | Hat switch:   8 | Button: 0  0  0  0  0  0  0  0  0  0  0  0  0  0  0 | 0xff000021: 0 , 0 , 0 , 0 , 0 , 0 , 0 , 0 , 0 , 0 , 0 , 0 , 0 | 0xff000022:   68 ,    8 ,   42 ,  235 ,  247 ,  255 ,  238 ,  255 ,    9 ,    0 ,   54 ,    0 ,   83 ,   31 ,   40 ,    5 ,   63 ,  207 ,  224 ,  197 ,    7 ,  128 ,    0 ,    0 ,    0 ,  128 ,    0 ,    0 ,    0 ,    0 ,    9 ,    9 ,    0 ,    0 ,    0 ,    0 ,    0 ,  105 ,  231 ,  224 ,  197 ,   40 ,    8 ,    0 ,  131 ,   42 ,   43 ,   26 ,    0 ,  167 ,  172 ,  227 
E: 000000.391317 64 01 81 7f 81 81 00 00 67 08 00 00 00 44 08 2a eb f7 ff ee ff 09 00 36 00 53 1f 28 05 3f cf e0 c5 07 80 00 00 00 80 00 00 00 00 09 09 00 00 00 00 00 69 e7 e0 c5 28 08 00 83 2a 2b 1a 00 a7 ac e3
# ReportID: 1 / X:  129 | Y:  127 | Z:  129 | Rz:  129 | Rx:    0 | Ry:    0 | 0xff000020:  104 | Hat switch:   8 | Button: 0  0  0  0  0  0  0  0  0  0  0  0  0  0  0 | 0xff000021: 0 , 0 , 0 , 0 , 0 , 0 , 0 , 0 , 0 , 0 , 0 , 0 , 0 | 0xff000022:   69 ,    8 ,   42 ,  235 ,  247 ,  255 ,  237 ,  255 ,   10 ,    0 ,   61 ,    0 ,   94 ,   31 ,   48 ,    5 ,   50 ,  254 ,  224 ,  197 ,    8 ,  128 ,    0 ,    0 ,    0 ,  128 ,    0 ,    0 ,    0 ,    0 ,    9 ,    9 ,    0 ,    0 ,    0 ,    0 ,    0 ,   73 ,   22 ,  225 ,  197 ,   40 ,    8 ,    0 ,  153 ,   59 ,  235 ,   79 ,  194 ,   40 ,   16 ,  254 
E: 000000.394721 64 01 81 7f 81 81 00 00 68 08 00 00 00 45 08 2a eb f7 ff ed ff 0a 00 3d 00 5e 1f 30 05 32 fe e0 c5 08 80 00 00 00 80 00 00 00 00 09 09 00 00 00 00 00 49 16 e1 c5 28 08 00 99 3b eb 4f c2 28 10 fe
# ReportID: 1 / X:  129 | Y:  127 | Z:  129 | Rz:  129 | Rx:    0 | Ry:    0 | 0xff000020:  105 | Hat switch:   8 | Button: 0  0  0  0  0  0  0  0  0  0  0  0  0  0  0 | 0xff000021: 0 , 0 , 0 , 0 , 0 , 0 , 0 , 0 , 0 , 0 , 0 , 0 , 0 | 0xff000022:   70 ,    8 ,   42 ,  235 ,  246 ,  255 ,  239 ,  255 ,   10 ,    0 ,   53 ,    0 ,   89 ,   31 ,   47 ,    5 ,   37 ,   45 ,  225 ,  197 ,    7 ,  128 ,    0 ,    0 ,    0 ,  128 ,    0 ,    0 ,    0 ,    0 ,    9 ,    9 ,    0 ,    0 ,    0 ,    0 ,    0 ,   41 ,   69 ,  225 ,  197 ,   40 ,    8 ,    0 ,   28 ,  177 ,  203 ,  197 ,  106 ,   81 ,   96 ,    4 
E: 000000.397883 64 01 81 7f 81 81 00 00 69 08 00 00 00 46 08 2a eb f6 ff ef ff 0a 00 35 00 59 1f 2f 05 25 2d e1 c5 07 80 00 00 00 80 00 00 00 00 09 09 00 00 00 00 00 29 45 e1 c5 28 08 00 1c b1 cb c5 6a 51 60 04
# ReportID: 1 / X:  129 | Y:  127 | Z:  129 | Rz:  129 | Rx:    0 | Ry:    0 | 0xff000020:  106 | Hat switch:   8 | Button: 0  0  0  0  0  0  0  0  0  0  0  0  0  0  0 | 0xff000021: 0 , 0 , 0 , 0 , 0 , 0 , 0 , 0 , 0 , 0 , 0 , 0 , 0 | 0xff000022:   71 ,    8 ,   42 ,  235 ,  247 ,  255 ,  238 ,  255 ,    9 ,    0 ,   55 ,    0 ,  101 ,   31 ,   55 ,    5 ,   24 ,   92 ,  225 ,  197 ,    7 ,  128 ,    0 ,    0 ,    0 ,  128 ,    0 ,    0 ,    0 ,    0 ,    9 ,    9 ,    0 ,    0 ,    0 ,    0 ,    0 ,    9 ,  116 ,  225 ,  197 ,   40 ,    8 ,    0 ,  186 ,   93 ,  235 ,  204 ,  228 ,  229 ,  175 ,  212 
E: 000000.401919 64 01 81 7f 81 81 00 00 6a 08 00 00 00 47 08 2a eb f7 ff ee ff 09 00 37 00 65 1f 37 05 18 5c e1 c5 07 80 00 00 00 80 00 00 00 00 09 09 00 00 00 00 00 09 74 e1 c5 28 08 00 ba 5d eb cc e4 e5 af d4
# ReportID: 1 / X:  129 | Y:  127 | Z:  129 | Rz:  129 | Rx:    0 | Ry:    0 | 0xff000020:  107 | Hat switch:   8 | Button: 0  0  0  0  0  0  0  0  0  0  0  0  0  0  0 | 0xff000021: 0 , 0 , 0 , 0 , 0 , 0 , 0 , 0 , 0 , 0 , 0 , 0 , 0 | 0xff000022:   72 ,    8 ,   42 ,  235 ,  249 ,  255 ,  238 ,  255 ,    9 ,    0 ,   61 ,    0 ,   92 ,   31 ,   52 ,    5 ,   11 ,  139 ,  225 ,  197 ,    7 ,  128 ,    0 ,    0 ,    0 ,  128 ,    0 ,    0 ,    0 ,    0 ,    9 ,    9 ,    0 ,    0 ,    0 ,    0 ,    0 ,  233 ,  162 ,  225 ,  197 ,   40 ,    8 ,    0 ,   43 ,   76 ,  189 ,   93 ,   86 ,   37 ,  211 ,    7 
E: 000000.405804 64 01 81 7f 81 81 00 00 6b 08 00 00 00 48 08 2a eb f9 ff ee ff 09 00 3d 00 5c 1f 34 05 0b 8b e1 c5 07 80 00 00 00 80 00 00 00 00 09 09 00 00 00 00 00 e9 a2 e1 c5 28 08 00 2b 4c bd 5d 56 25 d3 07
# ReportID: 1 / X:  129 | Y:  127 | Z:  129 | Rz:  129 | Rx:    0 | Ry:    0 | 0xff000020:  108 | Hat switch:   8 | Button: 0  0  0  0  0  0  0  0  0  0  0  0  0  0  0 | 0xff000021: 0 , 0 , 0 , 0 , 0 , 0 , 0 , 0 , 0 , 0 , 0 , 0 , 0 | 0xff000022:   73 ,    8 ,   42 ,  235 ,  249 ,  255 ,  238 ,  255 ,   10 ,    0 ,   56 ,    0 ,   96 ,   31 ,   48 ,    5 ,  254 ,  185 ,  225 ,  197 ,    7 ,  128 ,    0 ,    0 ,    0 ,  128 ,    0 ,    0 ,    0 ,    0 ,    9 ,    9 ,    0 ,    0 ,    0 ,    0 ,    0 ,  202 ,  209 ,  225 ,  197 ,   40 ,    8 ,    0 ,   97 ,  215 ,   25 ,   11 ,   98 ,   65 ,   65 ,  118 
E: 000000.410949 64 01 81 7f 81 81 00 00 6c 08 00 00 00 49 08 2a eb f9 ff ee ff 0a 00 38 00 60 1f 30 05 fe b9 e1 c5 07 80 00 00 00 80 00 00 00 00 09 09 00 00 00 00 00 ca d1 e1 c5 28 08 00 61 d7 19 0b 62 41 41 76
# ReportID: 1 / X:  129 | Y:  127 | Z:  129 | Rz:  129 | Rx:    0 | Ry:    0 | 0xff000020:  109 | Hat switch:   8 | Button: 0  0  0  0  0  0  0  0  0  0  0  0  0  0  0 | 0xff000021: 0 , 0 , 0 , 0 , 0 , 0 , 0 , 0 , 0 , 0 , 0 , 0 , 0 | 0xff000022:   74 ,    8 ,   42 ,  235 ,  247 ,  255 ,  238 ,  255 ,   10 ,    0 ,   59 ,    0 ,  104 ,   31 ,   57 ,    5 ,  241 ,  232 ,  225 ,  197 ,    7 ,  128 ,    0 ,    0 ,    0 ,  128 ,    0 ,    0 ,    0 ,    0 ,    9 ,    9 ,    0 ,    0 ,    0 ,    0 ,    0 ,  188 ,    0 ,  226 ,  197 ,   40 ,    8 ,    0 ,  135 ,   95 ,  216 ,   10 ,   84 ,   99 ,  230 ,   42 
E: 000000.414800 64 01 81 7f 81 81 00 00 6d 08 00 00 00 4a 08 2a eb f7 ff ee ff 0a 00 3b 00 68 1f 39 05 f1 e8 e1 c5 07 80 00 00 00 80 00 00 00 00 09 09 00 00 00 00 00 bc 00 e2 c5 28 08 00 87 5f d8 0a 54 63 e6 2a
# ReportID: 1 / X:  129 | Y:  127 | Z:  129 | Rz:  129 | Rx:    0 | Ry:    0 | 0xff000020:  110 | Hat switch:   8 | Button: 0  0  0  0  0  1  0  0  0  0  0  0  0  0  0 | 0xff000021: 0 , 0 , 0 , 0 , 0 , 0 , 0 , 0 , 0 , 0 , 0 , 0 , 0 | 0xff000022:   75 ,    8 ,   42 ,  235 ,  244 ,  255 ,  240 ,  255 ,   12 ,    0 ,   87 ,    0 ,  117 ,   31 ,   54 ,    5 ,  229 ,   23 ,  226 ,  197 ,    7 ,  128 ,    0 ,    0 ,    0 ,  128 ,    0 ,    0 ,    0 ,    0 ,    9 ,    9 ,    0 ,    0 ,    0 ,    0 ,    0 ,  143 ,   47 ,  226 ,  197 ,   40 ,    8 ,    0 ,  254 ,  112 ,  225 ,    0 ,  179 ,  164 ,  232 ,    1 
E: 000000.418604 64 01 81 7f 81 81 00 00 6e 08 02 00 00 4b 08 2a eb f4 ff f0 ff 0c 00 57 00 75 1f 36 05 e5 17 e2 c5 07 80 00 00 00 80 00 00 00 00 09 09 00 00 00 00 00 8f 2f e2 c5 28 08 00 fe 70 e1 00 b3 a4 e8 01
# ReportID: 1 / X:  129 | Y:  127 | Z:  129 | Rz:  129 | Rx:    0 | Ry:    0 | 0xff000020:  111 | Hat switch:   8 | Button: 0  0  0  0  0  1  0  0  0  0  0  0  0  0  0 | 0xff000021: 0 , 0 , 0 , 0 , 0 , 0 , 0 , 0 , 0 , 0 , 0 , 0 , 0 | 0xff000022:   76 ,    8 ,   42 ,  235 ,    0 ,    0 ,  233 ,  255 ,   18 ,    0 ,  143 ,  255 ,   45 ,   30 ,  118 ,    4 ,  216 ,   70 ,  226 ,  197 ,    7 ,  128 ,    0 ,    0 ,    0 ,  128 ,    0 ,    0 ,    0 ,    0 ,    9 ,    9 ,    0 ,    0 ,    0 ,    0 ,    0 ,  112 ,   94 ,  226 ,  197 ,   40 ,    8 ,    0 ,  253 ,  205 ,  205 ,   49 ,  239 ,  215 ,  173 ,  148 
E: 000000.422473 64 01 81 7f 81 81 00 00 6f 08 02 00 00 4c 08 2a eb 00 00 e9 ff 12 00 8f ff 2d 1e 76 04 d8 46 e2 c5 07 80 00 00 00 80 00 00 00 00 09 09 00 00 00 00 00 70 5e e2 c5 28 08 00 fd cd cd 31 ef d7 ad 94
# ReportID: 1 / X:  129 | Y:  127 | Z:  129 | Rz:  129 | Rx:    0 | Ry:    0 | 0xff000020:  112 | Hat switch:   8 | Button: 0  0  0  0  0  1  0  0  0  0  0  0  0  0  0 | 0xff000021: 0 , 0 , 0 , 0 , 0 , 0 , 0 , 0 , 0 , 0 , 0 , 0 , 0 | 0xff000022:   77 ,    8 ,   42 ,  235 ,  244 ,  255 ,  240 ,  255 ,    9 ,    0 ,  255 ,    0 ,  203 ,   32 ,   14 ,    6 ,  203 ,  117 ,  226 ,  197 ,    7 ,  128 ,    0 ,    0 ,    0 ,  128 ,    0 ,    0 ,    0 ,    0 ,    9 ,    9 ,    0 ,    0 ,    0 ,    0 ,    0 ,   81 ,  141 ,  226 ,  197 ,   40 ,    8 ,    0 ,  153 ,   63 ,  185 ,   45 ,   81 ,  204 ,  132 ,  147 
E: 000000.425938 64 01 81 7f 81 81 00 00 70 08 02 00 00 4d 08 2a eb f4 ff f0 ff 09 00 ff 00 cb 20 0e 06 cb 75 e2 c5 07 80 00 00 00 80 00 00 00 00 09 09 00 00 00 00 00 51 8d e2 c5 28 08 00 99 3f b9 2d 51 cc 84 93
