# Sony Interactive Entertainment DualSense Wireless Controller
# 0x05, 0x01,                    // Usage Page (Generic Desktop)        0
# 0x09, 0x05,                    // Usage (Game Pad)                    2
# 0xa1, 0x01,                    // Collection (Application)            4
# 0x85, 0x01,                    //  Report ID (1)                      6
# 0x09, 0x30,                    //  Usage (X)                          8
# 0x09, 0x31,                    //  Usage (Y)                          10
# 0x09, 0x32,                    //  Usage (Z)                          12
# 0x09, 0x35,                    //  Usage (Rz)                         14
# 0x09, 0x33,                    //  Usage (Rx)                         16
# 0x09, 0x34,                    //  Usage (Ry)                         18
# 0x15, 0x00,                    //  Logical Minimum (0)                20
# 0x26, 0xff, 0x00,              //  Logical Maximum (255)              22
# 0x75, 0x08,                    //  Report Size (8)                    25
# 0x95, 0x06,                    //  Report Count (6)                   27
# 0x81, 0x02,                    //  Input (Data,Var,Abs)               29
# 0x06, 0x00, 0xff,              //  Usage Page (Vendor Defined Page 1) 31
# 0x09, 0x20,                    //  Usage (Vendor Usage 0x20)          34
# 0x95, 0x01,                    //  Report Count (1)                   36
# 0x81, 0x02,                    //  Input (Data,Var,Abs)               38
# 0x05, 0x01,                    //  Usage Page (Generic Desktop)       40
# 0x09, 0x39,                    //  Usage (Hat switch)                 42
# 0x15, 0x00,                    //  Logical Minimum (0)                44
# 0x25, 0x07,                    //  Logical Maximum (7)                46
# 0x35, 0x00,                    //  Physical Minimum (0)               48
# 0x46, 0x3b, 0x01,              //  Physical Maximum (315)             50
# 0x65, 0x14,                    //  Unit (EnglishRotation: deg)        53
# 0x75, 0x04,                    //  Report Size (4)                    55
# 0x95, 0x01,                    //  Report Count (1)                   57
# 0x81, 0x42,                    //  Input (Data,Var,Abs,Null)          59
# 0x65, 0x00,                    //  Unit (None)                        61
# 0x05, 0x09,                    //  Usage Page (Button)                63
# 0x19, 0x01,                    //  Usage Minimum (1)                  65
# 0x29, 0x0f,                    //  Usage Maximum (15)                 67
# 0x15, 0x00,                    //  Logical Minimum (0)                69
# 0x25, 0x01,                    //  Logical Maximum (1)                71
# 0x75, 0x01,                    //  Report Size (1)                    73
# 0x95, 0x0f,                    //  Report Count (15)                  75
# 0x81, 0x02,                    //  Input (Data,Var,Abs)               77
# 0x06, 0x00, 0xff,              //  Usage Page (Vendor Defined Page 1) 79
# 0x09, 0x21,                    //  Usage (Vendor Usage 0x21)          82
# 0x95, 0x0d,                    //  Report Count (13)                  84
# 0x81, 0x02,                    //  Input (Data,Var,Abs)               86
# 0x06, 0x00, 0xff,              //  Usage Page (Vendor Defined Page 1) 88
# 0x09, 0x22,                    //  Usage (Vendor Usage 0x22)          91
# 0x15, 0x00,                    //  Logical Minimum (0)                93
# 0x26, 0xff, 0x00,              //  Logical Maximum (255)              95
# 0x75, 0x08,                    //  Report Size (8)                    98
# 0x95, 0x34,                    //  Report Count (52)                  100
# 0x81, 0x02,                    //  Input (Data,Var,Abs)               102
# 0x85, 0x02,                    //  Report ID (2)                      104
# 0x09, 0x23,                    //  Usage (Vendor Usage 0x23)          106
# 0x95, 0x2f,                    //  Report Count (47)                  108
# 0x91, 0x02,                    //  Output (Data,Var,Abs)              110
# 0x85, 0x05,                    //  Report ID (5)                      112
# 0x09, 0x33,                    //  Usage (Vendor Usage 0x33)          114
# 0x95, 0x28,                    //  Report Count (40)                  116
# 0xb1, 0x02,                    //  Feature (Data,Var,Abs)             118
# 0x85, 0x08,                    //  Report ID (8)                      120
# 0x09, 0x34,                    //  Usage (Vendor Usage 0x34)          122
# 0x95, 0x2f,                    //  Report Count (47)                  124
# 0xb1, 0x02,                    //  Feature (Data,Var,Abs)             126
# 0x85, 0x09,                    //  Report ID (9)                      128
# 0x09, 0x24,                    //  Usage (Vendor Usage 0x24)          130
# 0x95, 0x13,                    //  Report Count (19)                  132
# 0xb1, 0x02,                    //  Feature (Data,Var,Abs)             134
# 0x85, 0x0a,                    //  Report ID (10)                     136
# 0x09, 0x25,                    //  Usage (Vendor Usage 0x25)          138
# 0x95, 0x1a,                    //  Report Count (26)                  140
# 0xb1, 0x02,                    //  Feature (Data,Var,Abs)             142
# 0x85, 0x20,                    //  Report ID (32)                     144
# 0x09, 0x26,                    //  Usage (Vendor Usage 0x26)          146
# 0x95, 0x3f,                    //  Report Count (63)                  148
# 0xb1, 0x02,                    //  Feature (Data,Var,Abs)             150
# 0x85, 0x21,                    //  Report ID (33)                     152
# 0x09, 0x27,                    //  Usage (Vendor Usage 0x27)          154
# 0x95, 0x04,                    //  Report Count (4)                   156
# 0xb1, 0x02,                    //  Feature (Data,Var,Abs)             158
# 0x85, 0x22,                    //  Report ID (34)                     160
# 0x09, 0x40,                    //  Usage (Vendor Usage 0x40)          162
# 0x95, 0x3f,                    //  Report Count (63)                  164
# 0xb1, 0x02,                    //  Feature (Data,Var,Abs)             166
# 0x85, 0x80,                    //  Report ID (128)                    168
# 0x09, 0x28,                    //  Usage (Vendor Usage 0x28)          170
# 0x95, 0x3f,                    //  Report Count (63)                  172
# 0xb1, 0x02,                    //  Feature (Data,Var,Abs)             174
# 0x85, 0x81,                    //  Report ID (129)                    176
# 0x09, 0x29,                    //  Usage (Vendor Usage 0x29)          178
# 0x95, 0x3f,                    //  Report Count (63)                  180
# 0xb1, 0x02,                    //  Feature (Data,Var,Abs)             182
# 0x85, 0x82,                    //  Report ID (130)                    184
# 0x09, 0x2a,                    //  Usage (Vendor Usage 0x2a)          186
# 0x95, 0x09,                    //  Report Count (9)                   188
# 0xb1, 0x02,                    //  Feature (Data,Var,Abs)             190
# 0x85, 0x83,                    //  Report ID (131)                    192
# 0x09, 0x2b,                    //  Usage (Vendor Usage 0x2b)          194
# 0x95, 0x3f,                    //  Report Count (63)                  196
# 0xb1, 0x02,                    //  Feature (Data,Var,Abs)             198
# 0x85, 0x84,                    //  Report ID (132)                    200
# 0x09, 0x2c,                    //  Usage (Vendor Usage 0x2c)          202
# 0x95, 0x3f,                    //  Report Count (63)                  204
# 0xb1, 0x02,                    //  Feature (Data,Var,Abs)             206
# 0x85, 0x85,                    //  Report ID (133)                    208
# 0x09, 0x2d,                    //  Usage (Vendor Usage 0x2d)          210
# 0x95, 0x02,                    //  Report Count (2)                   212
# 0xb1, 0x02,                    //  Feature (Data,Var,Abs)             214
# 0x85, 0xa0,                    //  Report ID (160)                    216
# 0x09, 0x2e,                    //  Usage (Vendor Usage 0x2e)          218
# 0x95, 0x01,                    //  Report Count (1)                   220
# 0xb1, 0x02,                    //  Feature (Data,Var,Abs)             222
# 0x85, 0xe0,                    //  Report ID (224)                    224
# 0x09, 0x2f,                    //  Usage (Vendor Usage 0x2f)          226
# 0x95, 0x3f,                    //  Report Count (63)                  228
# 0xb1, 0x02,                    //  Feature (Data,Var,Abs)             230
# 0x85, 0xf0,                    //  Report ID (240)                    232
# 0x09, 0x30,                    //  Usage (Vendor Usage 0x30)          234
# 0x95, 0x3f,                    //  Report Count (63)                  236
# 0xb1, 0x02,                    //  Feature (Data,Var,Abs)             238
# 0x85, 0xf1,                    //  Report ID (241)                    240
# 0x09, 0x31,                    //  Usage (Vendor Usage 0x31)          242
# 0x95, 0x3f,                    //  Report Count (63)                  244
# 0xb1, 0x02,                    //  Feature (Data,Var,Abs)             246
# 0x85, 0xf2,                    //  Report ID (242)                    248
# 0x09, 0x32,                    //  Usage (Vendor Usage 0x32)          250
# 0x95, 0x0f,                    //  Report Count (15)                  252
# 0xb1, 0x02,                    //  Feature (Data,Var,Abs)             254
# 0x85, 0xf4,                    //  Report ID (244)                    256
# 0x09, 0x35,                    //  Usage (Vendor Usage 0x35)          258
# 0x95, 0x3f,                    //  Report Count (63)                  260
# 0xb1, 0x02,                    //  Feature (Data,Var,Abs)             262
# 0x85, 0xf5,                    //  Report ID (245)                    264
# 0x09, 0x36,                    //  Usage (Vendor Usage 0x36)          266
# 0x95, 0x03,                    //  Report Count (3)                   268
# 0xb1, 0x02,                    //  Feature (Data,Var,Abs)             270
# 0xc0,                          // End Collection                      272
# 
R: 273 05 01 09 05 a1 01 85 01 09 30 09 31 09 32 09 35 09 33 09 34 15 00 26 ff 00 75 08 95 06 81 02 06 00 ff 09 20 95 01 81 02 05 01 09 39 15 00 25 07 35 00 46 3b 01 65 14 75 04 95 01 81 42 65 00 05 09 19 01 29 0f 15 00 25 01 75 01 95 0f 81 02 06 00 ff 09 21 95 0d 81 02 06 00 ff 09 22 15 00 26 ff 00 75 08 95 34 81 02 85 02 09 23 95 2f 91 02 85 05 09 33 95 28 b1 02 85 08 09 34 95 2f b1 02 85 09 09 24 95 13 b1 02 85 0a 09 25 95 1a b1 02 85 20 09 26 95 3f b1 02 85 21 09 27 95 04 b1 02 85 22 09 40 95 3f b1 02 85 80 09 28 95 3f b1 02 85 81 09 29 95 3f b1 02 85 82 09 2a 95 09 b1 02 85 83 09 2b 95 3f b1 02 85 84 09 2c 95 3f b1 02 85 85 09 2d 95 02 b1 02 85 a0 09 2e 95 01 b1 02 85 e0 09 2f 95 3f b1 02 85 f0 09 30 95 3f b1 02 85 f1 09 31 95 3f b1 02 85 f2 09 32 95 0f b1 02 85 f4 09 35 95 3f b1 02 85 f5 09 36 95 03 b1 02 c0
N: Sony Interactive Entertainment DualSense Wireless Controller
I: 3 054c 0ce6
# ReportID: 1 / X:  129 | Y:  126 | Z:  129 | Rz:  128 | Rx:    0 | Ry:    0 | 0xff000020:   54 | Hat switch:   8 | Button: 0  0  0  0  0  0  0  0  0  0  0  0  0  0  0 | 0xff000021: 0 , 0 , 0 , 0 , 0 , 0 , 0 , 0 , 0 , 0 , 0 , 0 , 0 | 0xff000022:   19 ,   18 ,   42 ,  235 ,  248 ,  255 ,  238 ,  255 ,   10 ,    0 ,   31 ,    0 ,  112 ,   31 ,   54 ,    5 ,   21 ,  149 ,  172 ,  199 ,    7 ,  128 ,    0 ,    0 ,    0 ,  128 ,    0 ,    0 ,    0 ,    0 ,    9 ,    9 ,    0 ,    0 ,    0 ,    0 ,    0 ,  137 ,  174 ,  172 ,  199 ,   40 ,    8 ,    0 ,  254 ,   84 ,   25 ,  174 ,   73 ,    0 ,   39 ,  158 
E: 000000.000000 64 01 81 7e 81 80 00 00 36 08 00 00 00 13 12 2a eb f8 ff ee ff 0a 00 1f 00 70 1f 36 05 15 95 ac c7 07 80 00 00 00 80 00 00 00 00 09 09 00 00 00 00 00 89 ae ac c7 28 08 00 fe 54 19 ae 49 00 27 9e
# ReportID: 1 / X:  129 | Y:  126 | Z:  129 | Rz:  128 | Rx:    0 | Ry:    0 | 0xff000020:   55 | Hat switch:   8 | Button: 0  0  0  0  0  0  0  0  0  0  0  0  0  0  0 | 0xff000021: 0 , 0 , 0 , 0 , 0 , 0 , 0 , 0 , 0 , 0 , 0 , 0 , 0 | 0xff000022:   20 ,   18 ,   42 ,  235 ,  247 ,  255 ,  238 ,  255 ,    9 ,    0 ,   41 ,    0 ,  201 ,   31 ,   69 ,    5 ,    8 ,  196 ,  172 ,  199 ,    7 ,  128 ,    0 ,    0 ,    0 ,  128 ,    0 ,    0 ,    0 ,    0 ,    9 ,    9 ,    0 ,    0 ,    0 ,    0 ,    0 ,  105 ,  221 ,  172 ,  199 ,   40 ,    8 ,    0 ,  178 ,   52 ,   35 ,  119 ,  254 ,  255 ,    2 ,   66 
E: 000000.004719 64 01 81 7e 81 80 00 00 37 08 00 00 00 14 12 2a eb f7 ff ee ff 09 00 29 00 c9 1f 45 05 08 c4 ac c7 07 80 00 00 00 80 00 00 00 00 09 09 00 00 00 00 00 69 dd ac c7 28 08 00 b2 34 23 77 fe ff 02 42
# ReportID: 1 / X:  129 | Y:  126 | Z:  129 | Rz:  128 | Rx:    0 | Ry:    0 | 0xff000020:   56 | Hat switch:   8 | Button: 0  0  0  0  0  0  0  0  0  0  0  0  0  0  0 | 0xff000021: 0 , 0 , 0 , 0 , 0 , 0 , 0 , 0 , 0 , 0 , 0 , 0 , 0 | 0xff000022:   21 ,   18 ,   42 ,  235 ,  245 ,  255 ,  237 ,  255 ,    9 ,    0 ,   36 ,    0 ,  143 ,   31 ,   68 ,    5 ,  251 ,  242 ,  172 ,  199 ,    8 ,  128 ,    0 ,    0 ,    0 ,  128 ,    0 ,    0 ,    0 ,    0 ,    9 ,    9 ,    0 ,    0 ,    0 ,    0 ,    0 ,   75 ,   12 ,  173 ,  199 ,   40 ,    8 ,    0 ,    9 ,   70 ,    2 ,  195 ,   10 ,  108 ,  176 ,   88 
E: 000000.007753 64 01 81 7e 81 80 00 00 38 08 00 00 00 15 12 2a eb f5 ff ed ff 09 00 24 00 8f 1f 44 05 fb f2 ac c7 08 80 00 00 00 80 00 00 00 00 09 09 00 00 00 00 00 4b 0c ad c7 28 08 00 09 46 02 c3 0a 6c b0 58
# ReportID: 1 / X:  129 | Y:  126 | Z:  129 | Rz:  128 | Rx:    0 | Ry:    0 | 0xff000020:   57 | Hat switch:   8 | Button: 0  0  0  0  0  0  0  0  0  0  0  0  0  0  0 | 0xff000021: 0 , 0 , 0 , 0 , 0 , 0 , 0 , 0 , 0 , 0 , 0 , 0 , 0 | 0xff000022:   22 ,   18 ,   42 ,  235 ,  244 ,  255 ,  238 ,  255 ,   10 ,    0 ,   37 ,    0 ,   61 ,   31 ,   42 ,    5 ,  238 ,   33 ,  173 ,  199 ,    7 ,  128 ,    0 ,    0 ,    0 ,  128 ,    0 ,    0 ,    0 ,    0 ,    9 ,    9 ,    0 ,    0 ,    0 ,    0 ,    0 ,   63 ,   59 ,  173 ,  199 ,   40 ,    8 ,    0 ,   63 ,  147 ,  191 ,  239 ,  154 ,   49 ,   75 ,  142 
E: 000000.011972 64 01 81 7e 81 80 00 00 39 08 00 00 00 16 12 2a eb f4 ff ee ff 0a 00 25 00 3d 1f 2a 05 ee 21 ad c7 07 80 00 00 00 80 00 00 00 00 09 09 00 00 00 00 00 3f 3b ad c7 28 08 00 3f 93 bf ef 9a 31 4b 8e
# ReportID: 1 / X:  129 | Y:  126 | Z:  129 | Rz:  128 | Rx:    0 | Ry:    0 | 0xff000020:   58 | Hat switch:   8 | Button: 0  0  0  0  0  0  0  0  0  0  0  0  0  0  0 | 0xff000021: 0 , 0 , 0 , 0 , 0 , 0 , 0 , 0 , 0 , 0 , 0 , 0 , 0 | 0xff000022:   23 ,   18 ,   42 ,  235 ,  246 ,  255 ,  237 ,  255 ,   10 ,    0 ,   46 ,    0 ,   38 ,   31 ,   46 ,    5 ,  225 ,   80 ,  173 ,  199 ,    8 ,  128 ,    0 ,    0 ,    0 ,  128 ,    0 ,    0 ,    0 ,    0 ,    9 ,    9 ,    0 ,    0 ,    0 ,    0 ,    0 ,   42 ,  106 ,  173 ,  199 ,   40 ,    8 ,    0 ,    3 ,   91 ,  233 ,   34 ,  168 ,  172 ,   85 ,  145 
E: 000000.016420 64 01 81 7e 81 80 00 00 3a 08 00 00 00 17 12 2a eb f6 ff ed ff 0a 00 2e 00 26 1f 2e 05 e1 50 ad c7 08 80 00 00 00 80 00 00 00 00 09 09 00 00 00 00 00 2a 6a ad c7 28 08 00 03 5b e9 22 a8 ac 55 91
# ReportID: 1 / X:  129 | Y:  126 | Z:  129 | Rz:  128 | Rx:    0 | Ry:    0 | 0xff000020:   59 | Hat switch:   8 | Button: 0  0  0  0  0  0  0  0  0  0  0  0  0  0  0 | 0xff000021: 0 , 0 , 0 , 0 , 0 , 0 , 0 , 0 , 0 , 0 , 0 , 0 , 0 | 0xff000022:   24 ,   18 ,   42 ,  235 ,  248 ,  255 ,  238 ,  255 ,   10 ,    0 ,   54 ,    0 ,   13 ,   31 ,   51 ,    5 ,  212 ,  127 ,  173 ,  199 ,    8 ,  128 ,    0 ,    0 ,    0 ,  128 ,    0 ,    0 ,    0 ,    0 ,    9 ,    9 ,    0 ,    0 ,    0 ,    0 ,    0 ,  240 ,  152 ,  173 ,  199 ,   40 ,    8 ,    0 ,   52 ,  109 ,  198 ,   25 ,   74 ,  220 ,  135 ,    5 
E: 000000.020075 64 01 81 7e 81 80 00 00 3b 08 00 00 00 18 12 2a eb f8 ff ee ff 0a 00 36 00 0d 1f 33 05 d4 7f ad c7 08 80 00 00 00 80 00 00 00 00 09 09 00 00 00 00 00 f0 98 ad c7 28 08 00 34 6d c6 19 4a dc 87 05
# ReportID: 1 / X:  129 | Y:  126 | Z:  129 | Rz:  128 | Rx:    0 | Ry:    0 | 0xff000020:   60 | Hat switch:   8 | Button: 0  0  0  0  0  0  0  0  0  0  0  0  0  0  0 | 0xff000021: 0 , 0 , 0 , 0 , 0 , 0 , 0 , 0 , 0 , 0 , 0 , 0 , 0 | 0xff000022:   25 ,   18 ,   42 ,  235 ,  249 ,  255 ,  237 ,  255 ,    9 ,    0 ,   64 ,    0 ,   23 ,   31 ,   63 ,    5 ,  199 ,  174 ,  173 ,  199 ,    7 ,  128 ,    0 ,    0 ,    0 ,  128 ,    0 ,    0 ,    0 ,    0 ,    9 ,    9 ,    0 ,    0 ,    0 ,    0 ,    0 ,  210 ,  199 ,  173 ,  199 ,   40 ,    8 ,    0 ,   54 ,   79 ,   35 ,   21 ,  206 ,   82 ,  210 ,   87 
E: 000000.025059 64 01 81 7e 81 80 00 00 3c 08 00 00 00 19 12 2a eb f9 ff ed ff 09 00 40 00 17 1f 3f 05 c7 ae ad c7 07 80 00 00 00 80 00 00 00 00 09 09 00 00 00 00 00 d2 c7 ad c7 28 08 00 36 4f 23 15 ce 52 d2 57
# ReportID: 1 / X:  129 | Y:  126 | Z:  129 | Rz:  128 | Rx:    0 | Ry:    0 | 0xff000020:   61 | Hat switch:   8 | Button: 0  0  0  0  0  0  0  0  0  0  0  0  0  0  0 | 0xff000021: 0 , 0 , 0 , 0 , 0 , 0 , 0 , 0 , 0 , 0 , 0 , 0 , 0 | 0xff000022:   26 ,   18 ,   42 ,  235 ,  249 ,  255 ,  238 ,  255 ,   10 ,    0 ,   55 ,    0 ,   99 ,   31 ,   71 ,    5 ,  186 ,  221 ,  173 ,  199 ,    7 ,  128 ,    0 ,    0 ,    0 ,  128 ,    0 ,    0 ,    0 ,    0 ,    9 ,    9 ,    0 ,    0 ,    0 ,    0 ,    0 ,  169 ,  246 ,  173 ,  199 ,   40 ,    8 ,    0 ,  253 ,  176 ,  213 ,  174 ,  246 ,   79 ,   85 ,  194 
E: 000000.028125 64 01 81 7e 81 80 00 00 3d 08 00 00 00 1a 12 2a eb f9 ff ee ff 0a 00 37 00 63 1f 47 05 ba dd ad c7 07 80 00 00 00 80 00 00 00 00 09 09 00 00 00 00 00 a9 f6 ad c7 28 08 00 fd b0 d5 ae f6 4f 55 c2
# ReportID: 1 / X:  129 | Y:  126 | Z:  129 | Rz:  128 | Rx:    0 | Ry:    0 | 0xff000020:   62 | Hat switch:   8 | Button: 0  0  0  0  0  0  0  0  0  0  0  0  0  0  0 | 0xff000021: 0 , 0 , 0 , 0 , 0 , 0 , 0 , 0 , 0 , 0 , 0 , 0 , 0 | 0xff000022:   27 ,   18 ,   42 ,  235 ,  248 ,  255 ,  236 ,  255 ,   11 ,    0 ,   62 ,    0 ,  150 ,   31 ,   69 ,    5 ,  173 ,   12 ,  174 ,  199 ,    7 ,  128 ,    0 ,    0 ,    0 ,  128 ,    0 ,    0 ,    0 ,    0 ,    9 ,    9 ,    0 ,    0 ,    0 ,    0 ,    0 ,  137 ,   37 ,  174 ,  199 ,   40 ,    8 ,    0 ,  157 ,  147 ,   72 ,  133 ,   37 ,  255 ,   72 ,   98 
E: 000000.033218 64 01 81 7e 81 80 00 00 3e 08 00 00 00 1b 12 2a eb f8 ff ec ff 0b 00 3e 00 96 1f 45 05 ad 0c ae c7 07 80 00 00 00 80 00 00 00 00 09 09 00 00 00 00 00 89 25 ae c7 28 08 00 9d 93 48 85 25 ff 48 62
# ReportID: 1 / X:  129 | Y:  126 | Z:  129 | Rz:  128 | Rx:    0 | Ry:    0 | 0xff000020:   63 | Hat switch:   8 | Button: 0  0  0  0  0  0  0  0  0  0  0  0  0  0  0 | 0xff000021: 0 , 0 , 0 , 0 , 0 , 0 , 0 , 0 , 0 , 0 , 0 , 0 , 0 | 0xff000022:   28 ,   18 ,   42 ,  235 ,  246 ,  255 ,  238 ,  255 ,   11 ,    0 ,   57 ,    0 ,  115 ,   31 ,   70 ,    5 ,  160 ,   59 ,  174 ,  199 ,    7 ,  128 ,    0 ,    0 ,    0 ,  128 ,    0 ,    0 ,    0 ,    0 ,    9 ,    9 ,    0 ,    0 ,    0 ,    0 ,    0 ,  105 ,   84 ,  174 ,  199 ,   40 ,    8 ,    0 ,  250 ,   25 ,   19 ,  104 ,   56 ,  115 ,  216 ,   32 
E: 000000.035958 64 01 81 7e 81 80 00 00 3f 08 00 00 00 1c 12 2a eb f6 ff ee ff 0b 00 39 00 73 1f 46 05 a0 3b ae c7 07 80 00 00 00 80 00 00 00 00 09 09 00 00 00 00 00 69 54 ae c7 28 08 00 fa 19 13 68 38 73 d8 20
# ReportID: 1 / X:  129 | Y:  126 | Z:  129 | Rz:  128 | Rx:    0 | Ry:    0 | 0xff000020:   64 | Hat switch:   8 | Button: 0  0  0  0  0  0  0  0  0  0  0  0  0  0  0 | 0xff000021: 0 , 0 , 0 , 0 , 0 , 0 , 0 , 0 , 0 , 0 , 0 , 0 , 0 | 0xff000022:   29 ,   18 ,   42 ,  235 ,  247 ,  255 ,  239 ,  255 ,    9 ,    0 ,   57 ,    0 ,   71 ,   31 ,   62 ,    5 ,  147 ,  106 ,  174 ,  199 ,    7 ,  128 ,    0 ,    0 ,    0 ,  128 ,    0 ,    0 ,    0 ,    0 ,    9 ,    9 ,    0 ,    0 ,    0 ,    0 ,    0 ,   73 ,  131 ,  174 ,  199 ,   40 ,    8 ,    0 ,  188 ,    4 ,   12 ,   63 ,  122 ,   18 ,  102 ,   65 
E: 000000.040117 64 01 81 7e 81 80 00 00 40 08 00 00 00 1d 12 2a eb f7 ff ef ff 09 00 39 00 47 1f 3e 05 93 6a ae c7 07 80 00 00 00 80 00 00 00 00 09 09 00 00 00 00 00 49 83 ae c7 28 08 00 bc 04 0c 3f 7a 12 66 41
# ReportID: 1 / X:  129 | Y:  126 | Z:  129 | Rz:  128 | Rx:    0 | Ry:    0 | 0xff000020:   65 | Hat switch:   8 | Button: 0  0  0  0  0  0  0  0  0  0  0  0  0  0  0 | 0xff000021: 0 , 0 , 0 , 0 , 0 , 0 , 0 , 0 , 0 , 0 , 0 , 0 , 0 | 0xff000022:   30 ,   18 ,   42 ,  235 ,  248 ,  255 ,  239 ,  255 ,   11 ,    0 ,   58 ,    0 ,   52 ,   31 ,   62 ,    5 ,  134 ,  153 ,  174 ,  199 ,    7 ,  128 ,    0 ,    0 ,    0 ,  128 ,    0 ,    0 ,    0 ,    0 ,    9 ,    9 ,    0 ,    0 ,    0 ,    0 ,    0 ,   41 ,  178 ,  174 ,  199 ,   40 ,    8 ,    0 ,   55 ,  178 ,  117 ,  163 ,  238 ,  112 ,  228 ,   61 
E: 000000.045227 64 01 81 7e 81 80 00 00 41 08 00 00 00 1e 12 2a eb f8 ff ef ff 0b 00 3a 00 34 1f 3e 05 86 99 ae c7 07 80 00 00 00 80 00 00 00 00 09 09 00 00 00 00 00 29 b2 ae c7 28 08 00 37 b2 75 a3 ee 70 e4 3d
# ReportID: 1 / X:  129 | Y:  126 | Z:  129 | Rz:  128 | Rx:    0 | Ry:    0 | 0xff000020:   66 | Hat switch:   8 | Button: 0  0  0  0  0  0  0  0  0  0  0  0  0  0  0 | 0xff000021: 0 , 0 , 0 , 0 , 0 , 0 , 0 , 0 , 0 , 0 , 0 , 0 , 0 | 0xff000022:   31 ,   18 ,   42 ,  235 ,  250 ,  255 ,  240 ,  255 ,   11 ,    0 ,   65 ,    0 ,   47 ,   31 ,   53 ,    5 ,  121 ,  200 ,  174 ,  199 ,    7 ,  128 ,    0 ,    0 ,    0 ,  128 ,    0 ,    0 ,    0 ,    0 ,    9 ,    9 ,    0 ,    0 ,    0 ,    0 ,    0 ,    9 ,  225 ,  174 ,  199 ,   40 ,    8 ,    0 ,  125 ,  255 ,   99 ,  127 ,  175 ,  210 ,  238 ,   89 
E: 000000.047858 64 01 81 7e 81 80 00 00 42 08 00 00 00 1f 12 2a eb fa ff f0 ff 0b 00 41 00 2f 1f 35 05 79 c8 ae c7 07 80 00 00 00 80 00 00 00 00 09 09 00 00 00 00 00 09 e1 ae c7 28 08 00 7d ff 63 7f af d2 ee 59
# ReportID: 1 / X:  129 | Y:  126 | Z:  129 | Rz:  128 | Rx:    0 | Ry:    0 | 0xff000020:   67 | Hat switch:   8 | Button: 0  0  0  0  0  0  0  0  0  0  0  0  0  0  0 | 0xff000021: 0 , 0 , 0 , 0 , 0 , 0 , 0 , 0 , 0 , 0 , 0 , 0 , 0 | 0xff000022:   32 ,   18 ,   42 ,  235 ,  248 ,  255 ,  238 ,  255 ,   11 ,    0 ,   68 ,    0 ,   89 ,   31 ,   50 ,    5 ,  108 ,  247 ,  174 ,  199 ,    7 ,  128 ,    0 ,    0 ,    0 ,  128 ,    0 ,    0 ,    0 ,    0 ,    9 ,    9 ,    0 ,    0 ,    0 ,    0 ,    0 ,  233 ,   15 ,  175 ,  199 ,   40 ,    8 ,    0 ,  207 ,    3 ,  111 ,   96 ,  181 ,   72 ,  136 ,  173 
E: 000000.052030 64 01 81 7e 81 80 00 00 43 08 00 00 00 20 12 2a eb f8 ff ee ff 0b 00 44 00 59 1f 32 05 6c f7 ae c7 07 80 00 00 00 80 00 00 00 00 09 09 00 00 00 00 00 e9 0f af c7 28 08 00 cf 03 6f 60 b5 48 88 ad
# ReportID: 1 / X:  129 | Y:  126 | Z:  129 | Rz:  128 | Rx:    0 | Ry:    0 | 0xff000020:   68 | Hat switch:   8 | Button: 0  0  0  0  0  0  0  0  0  0  0  0  0  0  0 | 0xff000021: 0 , 0 , 0 , 0 , 0 , 0 , 0 , 0 , 0 , 0 , 0 , 0 , 0 | 0xff000022:   33 ,   18 ,   42 ,  235 ,  247 ,  255 ,  239 ,  255 ,   10 ,    0 ,   58 ,    0 ,  127 ,   31 ,   60 ,    5 ,   95 ,   38 ,  175 ,  199 ,    7 ,  128 ,    0 ,    0 ,    0 ,  128 ,    0 ,    0 ,    0 ,    0 ,    9 ,    9 ,    0 ,    0 ,    0 ,    0 ,    0 ,  201 ,   62 ,  175 ,  199 ,   40 ,    8 ,    0 ,   28 ,   26 ,    5 ,  200 ,  127 ,  165 ,   98 ,   55 
E: 000000.057618 64 01 81 7e 81 80 00 00 44 08 00 00 00 21 12 2a eb f7 ff ef ff 0a 00 3a 00 7f 1f 3c 05 5f 26 af c7 07 80 00 00 00 80 00 00 00 00 09 09 00 00 00 00 00 c9 3e af c7 28 08 00 1c 1a 05 c8 7f a5 62 37
# ReportID: 1 / X:  129 | Y:  126 | Z:  129 | Rz:  128 | Rx:    0 | Ry:    0 | 0xff000020:   69 | Hat switch:   8 | Button: 0  0  0  0  0  0  0  0  0  0  0  0  0  0  0 | 0xff000021: 0 , 0 , 0 , 0 , 0 , 0 , 0 , 0 , 0 , 0 , 0 , 0 , 0 | 0xff000022:   34 ,   18 ,   42 ,  235 ,  248 ,  255 ,  239 ,  255 ,   10 ,    0 ,   57 ,    0 ,  112 ,   31 ,   56 ,    5 ,   82 ,   85 ,  175 ,  199 ,    7 ,  128 ,    0 ,    0 ,    0 ,  128 ,    0 ,    0 ,    0 ,    0 ,    9 ,    9 ,    0 ,    0 ,    0 ,    0 ,    0 ,  169 ,  109 ,  175 ,  199 ,   40 ,    8 ,    0 ,  132 ,   27 ,   64 ,  253 ,  133 ,  219 ,  143 ,   11 
E: 000000.061066 64 01 81 7e 81 80 00 00 45 08 00 00 00 22 12 2a eb f8 ff ef ff 0a 00 39 00 70 1f 38 05 52 55 af c7 07 80 00 00 00 80 00 00 00 00 09 09 00 00 00 00 00 a9 6d af c7 28 08 00 84 1b 40 fd 85 db 8f 0b
# ReportID: 1 / X:  129 | Y:  126 | Z:  129 | Rz:  128 | Rx:    0 | Ry:    0 | 0xff000020:   70 | Hat switch:   8 | Button: 0  0  0  0  0  0  0  0  0  0  0  0  0  0  0 | 0xff000021: 0 , 0 , 0 , 0 , 0 , 0 , 0 , 0 , 0 , 0 , 0 , 0 , 0 | 0xff000022:   35 ,   18 ,   42 ,  235 ,  247 ,  255 ,  239 ,  255 ,   11 ,    0 ,   49 ,    0 ,   69 ,   31 ,   51 ,    5 ,   69 ,  132 ,  175 ,  199 ,    7 ,  128 ,    0 ,    0 ,    0 ,  128 ,    0 ,    0 ,    0 ,    0 ,    9 ,    9 ,    0 ,    0 ,    0 ,    0 ,    0 ,  137 ,  156 ,  175 ,  199 ,   40 ,    8 ,    0 ,  252 ,    1 ,    5 ,  100 ,   58 ,  208 ,  114 ,  246 
E: 000000.064796 64 01 81 7e 81 80 00 00 46 08 00 00 00 23 12 2a eb f7 ff ef ff 0b 00 31 00 45 1f 33 05 45 84 af c7 07 80 00 00 00 80 00 00 00 00 09 09 00 00 00 00 00 89 9c af c7 28 08 00 fc 01 05 64 3a d0 72 f6
# ReportID: 1 / X:  129 | Y:  126 | Z:  129 | Rz:  128 | Rx:    0 | Ry:    0 | 0xff000020:   71 | Hat switch:   8 | Button: 0  0  0  0  0  0  0  0  0  0  0  0  0  0  0 | 0xff000021: 0 , 0 , 0 , 0 , 0 , 0 , 0 , 0 , 0 , 0 , 0 , 0 , 0 | 0xff000022:   36 ,   18 ,   42 ,  235 ,  249 ,  255 ,  238 ,  255 ,    9 ,    0 ,   49 ,    0 ,   45 ,   31 ,   40 ,    5 ,   56 ,  179 ,  175 ,  199 ,    7 ,  128 ,    0 ,    0 ,    0 ,  128 ,    0 ,    0 ,    0 ,    0 ,    9 ,    9 ,    0 ,    0 ,    0 ,    0 ,    0 ,  105 ,  203 ,  175 ,  199 ,   40 ,    8 ,    0 ,  130 ,  209 ,   73 ,  180 ,   97 ,  189 ,  168 ,   76 
E: 000000.068018 64 01 81 7e 81 80 00 00 47 08 00 00 00 24 12 2a eb f9 ff ee ff 09 00 31 00 2d 1f 28 05 38 b3 af c7 07 80 00 00 00 80 00 00 00 00 09 09 00 00 00 00 00 69 cb af c7 28 08 00 82 d1 49 b4 61 bd a8 4c
# ReportID: 1 / X:  129 | Y:  126 | Z:  129 | Rz:  128 | Rx:    0 | Ry:    0 | 0xff000020:   72 | Hat switch:   8 | Button: 0  0  0  0  0  0  0  0  0  0  0  0  0  0  0 | 0xff000021: 0 , 0 , 0 , 0 , 0 , 0 , 0 , 0 , 0 , 0 , 0 , 0 , 0 | 0xff000022:   37 ,   18 ,   42 ,  235 ,  249 ,  255 ,  239 ,  255 ,   10 ,    0 ,   43 ,    0 ,   62 ,   31 ,   37 ,    5 ,   43 ,  226 ,  175 ,  199 ,    7 ,  128 ,    0 ,    0 ,    0 ,  128 ,    0 ,    0 ,    0 ,    0 ,    9 ,    9 ,    0 ,    0 ,    0 ,    0 ,    0 ,   73 ,  250 ,  175 ,  199 ,   40 ,    8 ,    0 ,   46 ,   48 ,  121 ,  157 ,  196 ,   22 ,  101 ,   13 
E: 000000.071964 64 01 81 7e 81 80 00 00 48 08 00 00 00 25 12 2a eb f9 ff ef ff 0a 00 2b 00 3e 1f 25 05 2b e2 af c7 07 80 00 00 00 80 00 00 00 00 09 09 00 00 00 00 00 49 fa af c7 28 08 00 2e 30 79 9d c4 16 65 0d
# ReportID: 1 / X:  129 | Y:  126 | Z:  129 | Rz:  128 | Rx:    0 | Ry:    0 | 0xff000020:   73 | Hat switch:   8 | Button: 0  0  0  0  0  0  0  0  0  0  0  0  0  0  0 | 0xff000021: 0 , 0 , 0 , 0 , 0 , 0 , 0 , 0 , 0 , 0 , 0 , 0 , 0 | 0xff000022:   38 ,   18 ,   42 ,  235 ,  249 ,  255 ,  239 ,  255 ,   12 ,    0 ,   46 ,    0 ,   97 ,   31 ,   48 ,    5 ,   30 ,   17 ,  176 ,  199 ,    7 ,  128 ,    0 ,    0 ,    0 ,  128 ,    0 ,    0 ,    0 ,    0 ,    9 ,    9 ,    0 ,    0 ,    0 ,    0 ,    0 ,   41 ,   41 ,  176 ,  199 ,   40 ,    8 ,    0 ,   55 ,  151 ,  125 ,  142 ,  100 ,   65 ,  150 ,   40 
E: 000000.077743 64 01 81 7e 81 80 00 00 49 08 00 00 00 26 12 2a eb f9 ff ef ff 0c 00 2e 00 61 1f 30 05 1e 11 b0 c7 07 80 00 00 00 80 00 00 00 00 09 09 00 00 00 00 00 29 29 b0 c7 28 08 00 37 97 7d 8e 64 41 96 28
# ReportID: 1 / X:  129 | Y:  127 | Z:  129 | Rz:  128 | Rx:    0 | Ry:    0 | 0xff000020:   74 | Hat switch:   8 | Button: 0  0  0  0  0  0  0  0  0  0  0  0  0  0  0 | 0xff000021: 0 , 0 , 0 , 0 , 0 , 0 , 0 , 0 , 0 , 0 , 0 , 0 , 0 | 0xff000022:   39 ,   18 ,   42 ,  235 ,  248 ,  255 ,  237 ,  255 ,   11 ,    0 ,   39 ,    0 ,  110 ,   31 ,   41 ,    5 ,   17 ,   64 ,  176 ,  199 ,    7 ,  128 ,    0 ,    0 ,    0 ,  128 ,    0 ,    0 ,    0 ,    0 ,    9 ,    9 ,    0 ,    0 ,    0 ,    0 ,    0 ,    9 ,   88 ,  176 ,  199 ,   40 ,    8 ,    0 ,   15 ,   61 ,  167 ,  183 ,  111 ,   75 ,   69 ,   74 
E: 000000.081581 64 01 81 7f 81 80 00 00 4a 08 00 00 00 27 12 2a eb f8 ff ed ff 0b 00 27 00 6e 1f 29 05 11 40 b0 c7 07 80 00 00 00 80 00 00 00 00 09 09 00 00 00 00 00 09 58 b0 c7 28 08 00 0f 3d a7 b7 6f 4b 45 4a
# ReportID: 1 / X:  129 | Y:  126 | Z:  129 | Rz:  128 | Rx:    0 | Ry:    0 | 0xff000020:   75 | Hat switch:   8 | Button: 0  0  0  0  0  0  0  0  0  0  0  0  0  0  0 | 0xff000021: 0 , 0 , 0 , 0 , 0 , 0 , 0 , 0 , 0 , 0 , 0 , 0 , 0 | 0xff000022:   40 ,   18 ,   42 ,  235 ,  248 ,  255 ,  239 ,  255 ,   10 ,    0 ,   38 ,    0 ,  123 ,   31 ,   48 ,    5 ,    4 ,  111 ,  176 ,  199 ,    7 ,  128 ,    0 ,    0 ,    0 ,  128 ,    0 ,    0 ,    0 ,    0 ,    9 ,    9 ,    0 ,    0 ,    0 ,    0 ,    0 ,  233 ,  134 ,  176 ,  199 ,   40 ,    8 ,    0 ,  151 ,  150 ,  254 ,  151 ,   69 ,  153 ,  150 ,  236 
E: 000000.085142 64 01 81 7e 81 80 00 00 4b 08 00 00 00 28 12 2a eb f8 ff ef ff 0a 00 26 00 7b 1f 30 05 04 6f b0 c7 07 80 00 00 00 80 00 00 00 00 09 09 00 00 00 00 00 e9 86 b0 c7 28 08 00 97 96 fe 97 45 99 96 ec
# ReportID: 1 / X:  129 | Y:  126 | Z:  129 | Rz:  128 | Rx:    0 | Ry:    0 | 0xff000020:   76 | Hat switch:   8 | Button: 0  0  0  0  0  0  0  0  0  0  0  0  0  0  0 | 0xff000021: 0 , 0 , 0 , 0 , 0 , 0 , 0 , 0 , 0 , 0 , 0 , 0 , 0 | 0xff000022:   41 ,   18 ,   42 ,  235 ,  246 ,  255 ,  238 ,  255 ,   10 ,    0 ,   31 ,    0 ,  118 ,   31 ,   56 ,    5 ,  247 ,  157 ,  176 ,  199 ,    7 ,  128 ,    0 ,    0 ,    0 ,  128 ,    0 ,    0 ,    0 ,    0 ,    9 ,    9 ,    0 ,    0 ,    0 ,    0 ,    0 ,  201 ,  181 ,  176 ,  199 ,   40 ,    8 ,    0 ,  188 ,  201 ,   55 ,  253 ,   56 ,   61 ,  210 ,   97 
E: 000000.089220 64 01 81 7e 81 80 00 00 4c 08 00 00 00 29 12 2a eb f6 ff ee ff 0a 00 1f 00 76 1f 38 05 f7 9d b0 c7 07 80 00 00 00 80 00 00 00 00 09 09 00 00 00 00 00 c9 b5 b0 c7 28 08 00 bc c9 37 fd 38 3d d2 61
# ReportID: 1 / X:  129 | Y:  126 | Z:  129 | Rz:  128 | Rx:    0 | Ry:    0 | 0xff000020:   77 | Hat switch:   8 | Button: 0  0  0  0  0  0  0  0  0  0  0  0  0  0  0 | 0xff000021: 0 , 0 , 0 , 0 , 0 , 0 , 0 , 0 , 0 , 0 , 0 , 0 , 0 | 0xff000022:   42 ,   18 ,   42 ,  235 ,  247 ,  255 ,  238 ,  255 ,   11 ,    0 ,   31 ,    0 ,  102 ,   31 ,   48 ,    5 ,  234 ,  204 ,  176 ,  199 ,    7 ,  128 ,    0 ,    0 ,    0 ,  128 ,    0 ,    0 ,    0 ,    0 ,    9 ,    9 ,    0 ,    0 ,    0 ,    0 ,    0 ,  184 ,  228 ,  176 ,  199 ,   40 ,    8 ,    0 ,  109 ,  232 ,  179 ,  245 ,  223 ,   97 ,  134 ,    6 
E: 000000.092691 64 01 81 7e 81 80 00 00 4d 08 00 00 00 2a 12 2a eb f7 ff ee ff 0b 00 1f 00 66 1f 30 05 ea cc b0 c7 07 80 00 00 00 80 00 00 00 00 09 09 00 00 00 00 00 b8 e4 b0 c7 28 08 00 6d e8 b3 f5 df 61 86 06
# ReportID: 1 / X:  129 | Y:  126 | Z:  129 | Rz:  128 | Rx:    0 | Ry:    0 | 0xff000020:   78 | Hat switch:   8 | Button: 0  0  0  0  0  0  0  0  0  0  0  0  0  0  0 | 0xff000021: 0 , 0 , 0 , 0 , 0 , 0 , 0 , 0 , 0 , 0 , 0 , 0 , 0 | 0xff000022:   43 ,   18 ,   42 ,  235 ,  247 ,  255 ,  239 ,  255 ,   11 ,    0 ,   27 ,    0 ,   88 ,   31 ,   41 ,    5 ,  223 ,  251 ,  176 ,  199 ,    7 ,  128 ,    0 ,    0 ,    0 ,  128 ,    0 ,    0 ,    0 ,    0 ,    9 ,    9 ,    0 ,    0 ,    0 ,    0 ,    0 ,  161 ,   19 ,  177 ,  199 ,   40 ,    8 ,    0 ,   33 ,   84 ,  199 ,   96 ,   75 ,  161 ,   71 ,  154 
E: 000000.096663 64 01 81 7e 81 80 00 00 4e 08 00 00 00 2b 12 2a eb f7 ff ef ff 0b 00 1b 00 58 1f 29 05 df fb b0 c7 07 80 00 00 00 80 00 00 00 00 09 09 00 00 00 00 00 a1 13 b1 c7 28 08 00 21 54 c7 60 4b a1 47 9a
# ReportID: 1 / X:  129 | Y:  126 | Z:  129 | Rz:  128 | Rx:    0 | Ry:    0 | 0xff000020:   79 | Hat switch:   8 | Button: 0  0  0  0  0  0  0  0  0  0  0  0  0  0  0 | 0xff000021: 0 , 0 , 0 , 0 , 0 , 0 , 0 , 0 , 0 , 0 , 0 , 0 , 0 | 0xff000022:   44 ,   18 ,   42 ,  235 ,  246 ,  255 ,  238 ,  255 ,   10 ,    0 ,   33 ,    0 ,   72 ,   31 ,   48 ,    5 ,  210 ,   42 ,  177 ,  199 ,    7 ,  128 ,    0 ,    0 ,    0 ,  128 ,    0 ,    0 ,    0 ,    0 ,    9 ,    9 ,    0 ,    0 ,    0 ,    0 ,    0 ,  111 ,   66 ,  177 ,  199 ,   40 ,    8 ,    0 ,   48 ,   75 ,  160 ,   13 ,  248 ,   42 ,  252 ,   73 
E: 000000.100157 64 01 81 7e 81 80 00 00 4f 08 00 00 00 2c 12 2a eb f6 ff ee ff 0a 00 21 00 48 1f 30 05 d2 2a b1 c7 07 80 00 00 00 80 00 00 00 00 09 09 00 00 00 00 00 6f 42 b1 c7 28 08 00 30 4b a0 0d f8 2a fc 49
# ReportID: 1 / X:  129 | Y:  126 | Z:  129 | Rz:  128 | Rx:    0 | Ry:    0 | 0xff000020:   80 | Hat switch:   8 | Button: 0  0  0  0  0  0  0  0  0  0  0  0  0  0  0 | 0xff000021: 0 , 0 , 0 , 0 , 0 , 0 , 0 , 0 , 0 , 0 , 0 , 0 , 0 | 0xff000022:   45 ,   18 ,   42 ,  235 ,  248 ,  255 ,  237 ,  255 ,   10 ,    0 ,   35 ,    0 ,   71 ,   31 ,   48 ,    5 ,  197 ,   89 ,  177 ,  199 ,    8 ,  128 ,    0 ,    0 ,    0 ,  128 ,    0 ,    0 ,    0 ,    0 ,    9 ,    9 ,    0 ,    0 ,    0 ,    0 ,    0 ,   81 ,  113 ,  177 ,  199 ,   40 ,    8 ,    0 ,  195 ,   55 ,  249 ,   12 ,   99 ,   75 ,  138 ,  167 
E: 000000.103886 64 01 81 7e 81 80 00 00 50 08 00 00 00 2d 12 2a eb f8 ff ed ff 0a 00 23 00 47 1f 30 05 c5 59 b1 c7 08 80 00 00 00 80 00 00 00 00 09 09 00 00 00 00 00 51 71 b1 c7 28 08 00 c3 37 f9 0c 63 4b 8a a7
# ReportID: 1 / X:  129 | Y:  126 | Z:  129 | Rz:  128 | Rx:    0 | Ry:    0 | 0xff000020:   81 | Hat switch:   8 | Button: 0  0  0  0  0  0  0  0  0  0  0  0  0  0  0 | 0xff000021: 0 , 0 , 0 , 0 , 0 , 0 , 0 , 0 , 0 , 0 , 0 , 0 , 0 | 0xff000022:   46 ,   18 ,   42 ,  235 ,  248 ,  255 ,  238 ,  255 ,   10 ,    0 ,   41 ,    0 ,   79 ,   31 ,   58 ,    5 ,  184 ,  136 ,  177 ,  199 ,    8 ,  128 ,    0 ,    0 ,    0 ,  128 ,    0 ,    0 ,    0 ,    0 ,    9 ,    9 ,    0 ,    0 ,    0 ,    0 ,    0 ,   41 ,  160 ,  177 ,  199 ,   40 ,    8 ,    0 ,  152 ,   95 ,  146 ,  140 ,  233 ,  203 ,  177 ,  209 
E: 000000.108720 64 01 81 7e 81 80 00 00 51 08 00 00 00 2e 12 2a eb f8 ff ee ff 0a 00 29 00 4f 1f 3a 05 b8 88 b1 c7 08 80 00 00 00 80 00 00 00 00 09 09 00 00 00 00 00 29 a0 b1 c7 28 08 00 98 5f 92 8c e9 cb b1 d1
# ReportID: 1 / X:  129 | Y:  126 | Z:  129 | Rz:  128 | Rx:    0 | Ry:    0 | 0xff000020:   82 | Hat switch:   8 | Button: 0  0  0  0  0  0  0  0  0  0  0  0  0  0  0 | 0xff000021: 0 , 0 , 0 , 0 , 0 , 0 , 0 , 0 , 0 , 0 , 0 , 0 , 0 | 0xff000022:   47 ,   18 ,   42 ,  235 ,  246 ,  255 ,  239 ,  255 ,   10 ,    0 ,   52 ,    0 ,   85 ,   31 ,   58 ,    5 ,  170 ,  183 ,  177 ,  199 ,    7 ,  128 ,    0 ,    0 ,    0 ,  128 ,    0 ,    0 ,    0 ,    0 ,    9 ,    9 ,    0 ,    0 ,    0 ,    0 ,    0 ,    9 ,  207 ,  177 ,  199 ,   40 ,    8 ,    0 ,   97 ,  201 ,  121 ,   30 ,  144 ,   42 ,   48 ,  160 
E: 000000.112100 64 01 81 7e 81 80 00 00 52 08 00 00 00 2f 12 2a eb f6 ff ef ff 0a 00 34 00 55 1f 3a 05 aa b7 b1 c7 07 80 00 00 00 80 00 00 00 00 09 09 00 00 00 00 00 09 cf b1 c7 28 08 00 61 c9 79 1e 90 2a 30 a0
# ReportID: 1 / X:  129 | Y:  126 | Z:  129 | Rz:  128 | Rx:    0 | Ry:    0 | 0xff000020:   83 | Hat switch:   8 | Button: 0  0  0  0  0  0  0  0  0  0  0  0  0  0  0 | 0xff000021: 0 , 0 , 0 , 0 , 0 , 0 , 0 , 0 , 0 , 0 , 0 , 0 , 0 | 0xff000022:   48 ,   18 ,   42 ,  235 ,  248 ,  255 ,  239 ,  255 ,   10 ,    0 ,   48 ,    0 ,   97 ,   31 ,   56 ,    5 ,  157 ,  230 ,  177 ,  199 ,    7 ,  128 ,    0 ,    0 ,    0 ,  128 ,    0 ,    0 ,    0 ,    0 ,    9 ,    9 ,    0 ,    0 ,    0 ,    0 ,    0 ,  233 ,  253 ,  177 ,  199 ,   40 ,    8 ,    0 ,   19 ,  113 ,   54 ,   75 ,   88 ,   88 ,  143 ,   28 
E: 000000.115954 64 01 81 7e 81 80 00 00 53 08 00 00 00 30 12 2a eb f8 ff ef ff 0a 00 30 00 61 1f 38 05 9d e6 b1 c7 07 80 00 00 00 80 00 00 00 00 09 09 00 00 00 00 00 e9 fd b1 c7 28 08 00 13 71 36 4b 58 58 8f 1c
# ReportID: 1 / X:  129 | Y:  126 | Z:  129 | Rz:  128 | Rx:    0 | Ry:    0 | 0xff000020:   84 | Hat switch:   8 | Button: 0  0  0  0  0  0  0  0  0  0  0  0  0  0  0 | 0xff000021: 0 , 0 , 0 , 0 , 0 , 0 , 0 , 0 , 0 , 0 , 0 , 0 , 0 | 0xff000022:   49 ,   18 ,   42 ,  235 ,  247 ,  255 ,  239 ,  255 ,    8 ,    0 ,   47 ,    0 ,   73 ,   31 ,   64 ,    5 ,  144 ,   21 ,  178 ,  199 ,    7 ,  128 ,    0 ,    0 ,    0 ,  128 ,    0 ,    0 ,    0 ,    0 ,    9 ,    9 ,    0 ,    0 ,    0 ,    0 ,    0 ,  201 ,   44 ,  178 ,  199 ,   40 ,    8 ,    0 ,   99 ,  217 ,  222 ,  250 ,  182 ,   94 ,  228 ,  246 
E: 000000.120028 64 01 81 7e 81 80 00 00 54 08 00 00 00 31 12 2a eb f7 ff ef ff 08 00 2f 00 49 1f 40 05 90 15 b2 c7 07 80 00 00 00 80 00 00 00 00 09 09 00 00 00 00 00 c9 2c b2 c7 28 08 00 63 d9 de fa b6 5e e4 f6
# ReportID: 1 / X:  129 | Y:  126 | Z:  129 | Rz:  128 | Rx:    0 | Ry:    0 | 0xff000020:   85 | Hat switch:   8 | Button: 0  0  0  0  0  0  0  0  0  0  0  0  0  0  0 | 0xff000021: 0 , 0 , 0 , 0 , 0 , 0 , 0 , 0 , 0 , 0 , 0 , 0 , 0 | 0xff000022:   50 ,   18 ,   42 ,  235 ,  246 ,  255 ,  239 ,  255 ,    9 ,    0 ,   51 ,    0 ,   55 ,   31 ,   64 ,    5 ,  131 ,   68 ,  178 ,  199 ,    7 ,  128 ,    0 ,    0 ,    0 ,  128 ,    0 ,    0 ,    0 ,    0 ,    9 ,    9 ,    0 ,    0 ,    0 ,    0 ,    0 ,  169 ,   91 ,  178 ,  199 ,   40 ,    8 ,    0 ,  101 ,   53 ,   71 ,   17 ,   55 ,   67 ,   10 ,  198 
E: 000000.123963 64 01 81 7e 81 80 00 00 55 08 00 00 00 32 12 2a eb f6 ff ef ff 09 00 33 00 37 1f 40 05 83 44 b2 c7 07 80 00 00 00 80 00 00 00 00 09 09 00 00 00 00 00 a9 5b b2 c7 28 08 00 65 35 47 11 37 43 0a c6
# ReportID: 1 / X:  129 | Y:  126 | Z:  129 | Rz:  128 | Rx:    0 | Ry:    0 | 0xff000020:   86 | Hat switch:   8 | Button: 0  0  0  0  0  0  0  0  0  0  0  0  0  0  0 | 0xff000021: 0 , 0 , 0 , 0 , 0 , 0 , 0 , 0 , 0 , 0 , 0 , 0 , 0 | 0xff000022:   51 ,   18 ,   42 ,  235 ,  247 ,  255 ,  238 ,  255 ,   11 ,    0 ,   64 ,    0 ,  109 ,   31 ,   64 ,    5 ,  118 ,  115 ,  178 ,  199 ,    7 ,  128 ,    0 ,    0 ,    0 ,  128 ,    0 ,    0 ,    0 ,    0 ,    9 ,    9 ,    0 ,    0 ,    0 ,    0 ,    0 ,  137 ,  138 ,  178 ,  199 ,   40 ,    8 ,    0 ,  190 ,   45 ,   56 ,   67 ,  101 ,   35 ,  242 ,  243 
E: 000000.127928 64 01 81 7e 81 80 00 00 56 08 00 00 00 33 12 2a eb f7 ff ee ff 0b 00 40 00 6d 1f 40 05 76 73 b2 c7 07 80 00 00 00 80 00 00 00 00 09 09 00 00 00 00 00 89 8a b2 c7 28 08 00 be 2d 38 43 65 23 f2 f3
# ReportID: 1 / X:  129 | Y:  126 | Z:  129 | Rz:  128 | Rx:    0 | Ry:    0 | 0xff000020:   87 | Hat switch:   8 | Button: 0  0  0  0  0  0  0  0  0  0  0  0  0  0  0 | 0xff000021: 0 , 0 , 0 , 0 , 0 , 0 , 0 , 0 , 0 , 0 , 0 , 0 , 0 | 0xff000022:   52 ,   18 ,   42 ,  235 ,  248 ,  255 ,  238 ,  255 ,   11 ,    0 ,   68 ,    0 ,  108 ,   31 ,   57 ,    5 ,  107 ,  162 ,  178 ,  199 ,    7 ,  128 ,    0 ,    0 ,    0 ,  128 ,    0 ,    0 ,    0 ,    0 ,    9 ,    9 ,    0 ,    0 ,    0 ,    0 ,    0 ,  105 ,  185 ,  178 ,  199 ,   40 ,    8 ,    0 ,   72 ,   19 ,   99 ,  252 ,  184 ,  152 ,   77 ,   41 
E: 000000.133321 64 01 81 7e 81 80 00 00 57 08 00 00 00 34 12 2a eb f8 ff ee ff 0b 00 44 00 6c 1f 39 05 6b a2 b2 c7 07 80 00 00 00 80 00 00 00 00 09 09 00 00 00 00 00 69 b9 b2 c7 28 08 00 48 13 63 fc b8 98 4d 29
# ReportID: 1 / X:  129 | Y:  126 | Z:  129 | Rz:  128 | Rx:    0 | Ry:    0 | 0xff000020:   88 | Hat switch:   8 | Button: 0  0  0  0  0  0  0  0  0  0  0  0  0  0  0 | 0xff000021: 0 , 0 , 0 , 0 , 0 , 0 , 0 , 0 , 0 , 0 , 0 , 0 , 0 | 0xff000022:   53 ,   18 ,   42 ,  235 ,  246 ,  255 ,  240 ,  255 ,   11 ,    0 ,   61 ,    0 ,   98 ,   31 ,   58 ,    5 ,   94 ,  209 ,  178 ,  199 ,    7 ,  128 ,    0 ,    0 ,    0 ,  128 ,    0 ,    0 ,    0 ,    0 ,    9 ,    9 ,    0 ,    0 ,    0 ,    0 ,    0 ,   73 ,  232 ,  178 ,  199 ,   40 ,    8 ,    0 ,   39 ,  109 ,   34 ,   95 ,  183 ,   82 ,   61 ,   89 
E: 000000.136754 64 01 81 7e 81 80 00 00 58 08 00 00 00 35 12 2a eb f6 ff f0 ff 0b 00 3d 00 62 1f 3a 05 5e d1 b2 c7 07 80 00 00 00 80 00 00 00 00 09 09 00 00 00 00 00 49 e8 b2 c7 28 08 00 27 6d 22 5f b7 52 3d 59
# ReportID: 1 / X:  129 | Y:  126 | Z:  129 | Rz:  128 | Rx:    0 | Ry:    0 | 0xff000020:   89 | Hat switch:   8 | Button: 0  0  0  0  0  0  0  0  0  0  0  0  0  0  0 | 0xff000021: 0 , 0 , 0 , 0 , 0 , 0 , 0 , 0 , 0 , 0 , 0 , 0 , 0 | 0xff000022:   54 ,   18 ,   42 ,  235 ,  247 ,  255 ,  239 ,  255 ,   10 ,    0 ,   59 ,    0 ,   92 ,   31 ,   51 ,    5 ,   79 ,    0 ,  179 ,  199 ,    8 ,  128 ,    0 ,    0 ,    0 ,  128 ,    0 ,    0 ,    0 ,    0 ,    9 ,    9 ,    0 ,    0 ,    0 ,    0 ,    0 ,   41 ,   23 ,  179 ,  199 ,   40 ,    8 ,    0 ,  138 ,   36 ,   99 ,   76 ,  212 ,  112 ,  202 ,  206 
E: 000000.139905 64 01 81 7e 81 80 00 00 59 08 00 00 00 36 12 2a eb f7 ff ef ff 0a 00 3b 00 5c 1f 33 05 4f 00 b3 c7 08 80 00 00 00 80 00 00 00 00 09 09 00 00 00 00 00 29 17 b3 c7 28 08 00 8a 24 63 4c d4 70 ca ce
# ReportID: 1 / X:  129 | Y:  126 | Z:  129 | Rz:  128 | Rx:    0 | Ry:    0 | 0xff000020:   90 | Hat switch:   8 | Button: 0  0  0  0  0  0  0  0  0  0  0  0  0  0  0 | 0xff000021: 0 , 0 , 0 , 0 , 0 , 0 , 0 , 0 , 0 , 0 , 0 , 0 , 0 | 0xff000022:   55 ,   18 ,   42 ,  235 ,  248 ,  255 ,  239 ,  255 ,   10 ,    0 ,   73 ,    0 ,   59 ,   31 ,   55 ,    5 ,   66 ,   47 ,  179 ,  199 ,    8 ,  128 ,    0 ,    0 ,    0 ,  128 ,    0 ,    0 ,    0 ,    0 ,    9 ,    9 ,    0 ,    0 ,    0 ,    0 ,    0 ,    9 ,   70 ,  179 ,  199 ,   40 ,    8 ,    0 ,   15 ,   60 ,  208 ,   57 ,   82 ,  134 ,    4 ,  119 
E: 000000.144010 64 01 81 7e 81 80 00 00 5a 08 00 00 00 37 12 2a eb f8 ff ef ff 0a 00 49 00 3b 1f 37 05 42 2f b3 c7 08 80 00 00 00 80 00 00 00 00 09 09 00 00 00 00 00 09 46 b3 c7 28 08 00 0f 3c d0 39 52 86 04 77
# ReportID: 1 / X:  129 | Y:  126 | Z:  129 | Rz:  128 | Rx:    0 | Ry:    0 | 0xff000020:   91 | Hat switch:   8 | Button: 0  0  0  0  0  0  0  0  0  0  0  0  0  0  0 | 0xff000021: 0 , 0 , 0 , 0 , 0 , 0 , 0 , 0 , 0 , 0 , 0 , 0 , 0 | 0xff000022:   56 ,   18 ,   42 ,  235 ,  248 ,  255 ,  239 ,  255 ,   11 ,    0 ,   70 ,    0 ,   62 ,   31 ,   48 ,    5 ,   53 ,   94 ,  179 ,  199 ,    8 ,  128 ,    0 ,    0 ,    0 ,  128 ,    0 ,    0 ,    0 ,    0 ,    9 ,    9 ,    0 ,    0 ,    0 ,    0 ,    0 ,  233 ,  116 ,  179 ,  199 ,   40 ,    8 ,    0 ,  152 ,   36 ,  130 ,  217 ,  193 ,  147 ,    0 ,  237 
E: 000000.147865 64 01 81 7e 81 80 00 00 5b 08 00 00 00 38 12 2a eb f8 ff ef ff 0b 00 46 00 3e 1f 30 05 35 5e b3 c7 08 80 00 00 00 80 00 00 00 00 09 09 00 00 00 00 00 e9 74 b3 c7 28 08 00 98 24 82 d9 c1 93 00 ed
# ReportID: 1 / X:  129 | Y:  126 | Z:  129 | Rz:  128 | Rx:    0 | Ry:    0 | 0xff000020:   92 | Hat switch:   8 | Button: 0  0  0  0  0  0  0  0  0  0  0  0  0  0  0 | 0xff000021: 0 , 0 , 0 , 0 , 0 , 0 , 0 , 0 , 0 , 0 , 0 , 0 , 0 | 0xff000022:   57 ,   18 ,   42 ,  235 ,  248 ,  255 ,  239 ,  255 ,   11 ,    0 ,   66 ,    0 ,   89 ,   31 ,   50 ,    5 ,   40 ,  141 ,  179 ,  199 ,    7 ,  128 ,    0 ,    0 ,    0 ,  128 ,    0 ,    0 ,    0 ,    0 ,    9 ,    9 ,    0 ,    0 ,    0 ,    0 ,    0 ,  201 ,  163 ,  179 ,  199 ,   40 ,    8 ,    0 ,   14 ,  154 ,  226 ,   83 ,  163 ,  148 ,  148 ,  245 
E: 000000.153567 64 01 81 7e 81 80 00 00 5c 08 00 00 00 39 12 2a eb f8 ff ef ff 0b 00 42 00 59 1f 32 05 28 8d b3 c7 07 80 00 00 00 80 00 00 00 00 09 09 00 00 00 00 00 c9 a3 b3 c7 28 08 00 0e 9a e2 53 a3 94 94 f5
# ReportID: 1 / X:  129 | Y:  126 | Z:  129 | Rz:  128 | Rx:    0 | Ry:    0 | 0xff000020:   93 | Hat switch:   8 | Button: 0  0  0  0  0  0  0  0  0  0  0  0  0  0  0 | 0xff000021: 0 , 0 , 0 , 0 , 0 , 0 , 0 , 0 , 0 , 0 , 0 , 0 , 0 | 0xff000022:   58 ,   18 ,   42 ,  235 ,  247 ,  255 ,  238 ,  255 ,   11 ,    0 ,   71 ,    0 ,  115 ,   31 ,   46 ,    5 ,   27 ,  188 ,  179 ,  199 ,    7 ,  128 ,    0 ,    0 ,    0 ,  128 ,    0 ,    0 ,    0 ,    0 ,    9 ,    9 ,    0 ,    0 ,    0 ,    0 ,    0 ,  169 ,  210 ,  179 ,  199 ,   40 ,    8 ,    0 ,  158 ,   19 ,   51 ,  241 ,  195 ,   96 ,   58 ,   33 
E: 000000.156600 64 01 81 7e 81 80 00 00 5d 08 00 00 00 3a 12 2a eb f7 ff ee ff 0b 00 47 00 73 1f 2e 05 1b bc b3 c7 07 80 00 00 00 80 00 00 00 00 09 09 00 00 00 00 00 a9 d2 b3 c7 28 08 00 9e 13 33 f1 c3 60 3a 21
# ReportID: 1 / X:  129 | Y:  126 | Z:  129 | Rz:  128 | Rx:    0 | Ry:    0 | 0xff000020:   94 | Hat switch:   8 | Button: 0  0  0  0  0  0  0  0  0  0  0  0  0  0  0 | 0xff000021: 0 , 0 , 0 , 0 , 0 , 0 , 0 , 0 , 0 , 0 , 0 , 0 , 0 | 0xff000022:   59 ,   18 ,   42 ,  235 ,  248 ,  255 ,  239 ,  255 ,    9 ,    0 ,   73 ,    0 ,   99 ,   31 ,   56 ,    5 ,   14 ,  235 ,  179 ,  199 ,    8 ,  128 ,    0 ,    0 ,    0 ,  128 ,    0 ,    0 ,    0 ,    0 ,    9 ,    9 ,    0 ,    0 ,    0 ,    0 ,    0 ,  137 ,    1 ,  180 ,  199 ,   40 ,    8 ,    0 ,   24 ,    4 ,  143 ,    5 ,  105 ,   90 ,   75 ,  102 
E: 000000.160868 64 01 81 7e 81 80 00 00 5e 08 00 00 00 3b 12 2a eb f8 ff ef ff 09 00 49 00 63 1f 38 05 0e eb b3 c7 08 80 00 00 00 80 00 00 00 00 09 09 00 00 00 00 00 89 01 b4 c7 28 08 00 18 04 8f 05 69 5a 4b 66
# ReportID: 1 / X:  129 | Y:  126 | Z:  129 | Rz:  128 | Rx:    0 | Ry:    0 | 0xff000020:   95 | Hat switch:   8 | Button: 0  0  0  0  0  0  0  0  0  0  0  0  0  0  0 | 0xff000021: 0 , 0 , 0 , 0 , 0 , 0 , 0 , 0 , 0 , 0 , 0 , 0 , 0 | 0xff000022:   60 ,   18 ,   42 ,  235 ,  247 ,  255 ,  238 ,  255 ,   10 ,    0 ,   66 ,    0 ,   80 ,   31 ,   47 ,    5 ,    1 ,   26 ,  180 ,  199 ,    8 ,  128 ,    0 ,    0 ,    0 ,  128 ,    0 ,    0 ,    0 ,    0 ,    9 ,    9 ,    0 ,    0 ,    0 ,    0 ,    0 ,  105 ,   48 ,  180 ,  199 ,   40 ,    8 ,    0 ,   88 ,   91 ,  195 ,   97 ,  174 ,  221 ,  178 ,  168 
E: 000000.164759 64 01 81 7e 81 80 00 00 5f 08 00 00 00 3c 12 2a eb f7 ff ee ff 0a 00 42 00 50 1f 2f 05 01 1a b4 c7 08 80 00 00 00 80 00 00 00 00 09 09 00 00 00 00 00 69 30 b4 c7 28 08 00 58 5b c3 61 ae dd b2 a8
# ReportID: 1 / X:  129 | Y:  126 | Z:  129 | Rz:  128 | Rx:    0 | Ry:    0 | 0xff000020:   96 | Hat switch:   8 | Button: 0  0  0  0  0  0  0  0  0  0  0  0  0  0  0 | 0xff000021: 0 , 0 , 0 , 0 , 0 , 0 , 0 , 0 , 0 , 0 , 0 , 0 , 0 | 0xff000022:   61 ,   18 ,   42 ,  235 ,  247 ,  255 ,  240 ,  255 ,    9 ,    0 ,   60 ,    0 ,   72 ,   31 ,   47 ,    5 ,  244 ,   72 ,  180 ,  199 ,    7 ,  128 ,    0 ,    0 ,    0 ,  128 ,    0 ,    0 ,    0 ,    0 ,    9 ,    9 ,    0 ,    0 ,    0 ,    0 ,    0 ,   73 ,   95 ,  180 ,  199 ,   40 ,    8 ,    0 ,  135 ,  123 ,    5 ,  233 ,  181 ,   46 ,  167 ,  214 
E: 000000.168012 64 01 81 7e 81 80 00 00 60 08 00 00 00 3d 12 2a eb f7 ff f0 ff 09 00 3c 00 48 1f 2f 05 f4 48 b4 c7 07 80 00 00 00 80 00 00 00 00 09 09 00 00 00 00 00 49 5f b4 c7 28 08 00 87 7b 05 e9 b5 2e a7 d6
# ReportID: 1 / X:  129 | Y:  126 | Z:  129 | Rz:  128 | Rx:    0 | Ry:    0 | 0xff000020:   97 | Hat switch:   8 | Button: 0  0  0  0  0  0  0  0  0  0  0  0  0  0  0 | 0xff000021: 0 , 0 , 0 , 0 , 0 , 0 , 0 , 0 , 0 , 0 , 0 , 0 , 0 | 0xff000022:   62 ,   18 ,   42 ,  235 ,  248 ,  255 ,  239 ,  255 ,   10 ,    0 ,   57 ,    0 ,   79 ,   31 ,   47 ,    5 ,  231 ,  119 ,  180 ,  199 ,    7 ,  128 ,    0 ,    0 ,    0 ,  128 ,    0 ,    0 ,    0 ,    0 ,    9 ,    9 ,    0 ,    0 ,    0 ,    0 ,    0 ,   41 ,  142 ,  180 ,  199 ,   40 ,    8 ,    0 ,   80 ,   61 ,  159 ,   51 ,  158 ,  212 ,   27 ,  109 
E: 000000.172114 64 01 81 7e 81 80 00 00 61 08 00 00 00 3e 12 2a eb f8 ff ef ff 0a 00 39 00 4f 1f 2f 05 e7 77 b4 c7 07 80 00 00 00 80 00 00 00 00 09 09 00 00 00 00 00 29 8e b4 c7 28 08 00 50 3d 9f 33 9e d4 1b 6d
# ReportID: 1 / X:  129 | Y:  126 | Z:  129 | Rz:  128 | Rx:    0 | Ry:    0 | 0xff000020:   98 | Hat switch:   8 | Button: 0  0  0  0  0  0  0  0  0  0  0  0  0  0  0 | 0xff000021: 0 , 0 , 0 , 0 , 0 , 0 , 0 , 0 , 0 , 0 , 0 , 0 , 0 | 0xff000022:   63 ,   18 ,   42 ,  235 ,  248 ,  255 ,  237 ,  255 ,   10 ,    0 ,   46 ,    0 ,   86 ,   31 ,   53 ,    5 ,  218 ,  166 ,  180 ,  199 ,    7 ,  128 ,    0 ,    0 ,    0 ,  128 ,    0 ,    0 ,    0 ,    0 ,    9 ,    9 ,    0 ,    0 ,    0 ,    0 ,    0 ,    9 ,  189 ,  180 ,  199 ,   40 ,    8 ,    0 ,  179 ,   91 ,    8 ,    5 ,   80 ,  115 ,  143 ,   38 
E: 000000.175860 64 01 81 7e 81 80 00 00 62 08 00 00 00 3f 12 2a eb f8 ff ed ff 0a 00 2e 00 56 1f 35 05 da a6 b4 c7 07 80 00 00 00 80 00 00 00 00 09 09 00 00 00 00 00 09 bd b4 c7 28 08 00 b3 5b 08 05 50 73 8f 26
# ReportID: 1 / X:  129 | Y:  126 | Z:  129 | Rz:  128 | Rx:    0 | Ry:    0 | 0xff000020:   99 | Hat switch:   8 | Button: 0  0  0  0  0  0  0  0  0  0  0  0  0  0  0 | 0xff000021: 0 , 0 , 0 , 0 , 0 , 0 , 0 , 0 , 0 , 0 , 0 , 0 , 0 | 0xff000022:   64 ,   18 ,   42 ,  235 ,  248 ,  255 ,  238 ,  255 ,   11 ,    0 ,   39 ,    0 ,  116 ,   31 ,   53 ,    5 ,  205 ,  213 ,  180 ,  199 ,    7 ,  128 ,    0 ,    0 ,    0 ,  128 ,    0 ,    0 ,    0 ,    0 ,    9 ,    9 ,    0 ,    0 ,    0 ,    0 ,    0 ,  233 ,  235 ,  180 ,  199 ,   40 ,    8 ,    0 ,  135 ,   87 ,   77 ,  160 ,    9 ,  200 ,  118 ,   84 
E: 000000.180983 64 01 81 7e 81 80 00 00 63 08 00 00 00 40 12 2a eb f8 ff ee ff 0b 00 27 00 74 1f 35 05 cd d5 b4 c7 07 80 00 00 00 80 00 00 00 00 09 09 00 00 00 00 00 e9 eb b4 c7 28 08 00 87 57 4d a0 09 c8 76 54
# ReportID: 1 / X:  129 | Y:  126 | Z:  129 | Rz:  128 | Rx:    0 | Ry:    0 | 0xff000020:  100 | Hat switch:   8 | Button: 0  0  0  0  0  0  0  0  0  0  0  0  0  0  0 | 0xff000021: 0 , 0 , 0 , 0 , 0 , 0 , 0 , 0 , 0 , 0 , 0 , 0 , 0 | 0xff000022:   65 ,   18 ,   42 ,  235 ,  246 ,  255 ,  239 ,  255 ,   11 ,    0 ,   41 ,    0 ,  106 ,   31 ,   55 ,    5 ,  192 ,    4 ,  181 ,  199 ,    8 ,  128 ,    0 ,    0 ,    0 ,  128 ,    0 ,    0 ,    0 ,    0 ,    9 ,    9 ,    0 ,    0 ,    0 ,    0 ,    0 ,  201 ,   26 ,  181 ,  199 ,   40 ,    8 ,    0 ,  103 ,   29 ,    3 ,  106 ,   11 ,   54 ,  225 ,  141 
E: 000000.184758 64 01 81 7e 81 80 00 00 64 08 00 00 00 41 12 2a eb f6 ff ef ff 0b 00 29 00 6a 1f 37 05 c0 04 b5 c7 08 80 00 00 00 80 00 00 00 00 09 09 00 00 00 00 00 c9 1a b5 c7 28 08 00 67 1d 03 6a 0b 36 e1 8d
# ReportID: 1 / X:  129 | Y:  126 | Z:  129 | Rz:  128 | Rx:    0 | Ry:    0 | 0xff000020:  101 | Hat switch:   8 | Button: 0  0  0  0  0  0  0  0  0  0  0  0  0  0  0 | 0xff000021: 0 , 0 , 0 , 0 , 0 , 0 , 0 , 0 , 0 , 0 , 0 , 0 , 0 | 0xff000022:   66 ,   18 ,   42 ,  235 ,  246 ,  255 ,  237 ,  255 ,   11 ,    0 ,   39 ,    0 ,   93 ,   31 ,   48 ,    5 ,  179 ,   51 ,  181 ,  199 ,    7 ,  128 ,    0 ,    0 ,    0 ,  128 ,    0 ,    0 ,    0 ,    0 ,    9 ,    9 ,    0 ,    0 ,    0 ,    0 ,    0 ,  169 ,   73 ,  181 ,  199 ,   40 ,    8 ,    0 ,   23 ,  209 ,   40 ,  218 ,  138 ,  138 ,  159 ,  168 
E: 000000.188324 64 01 81 7e 81 80 00 00 65 08 00 00 00 42 12 2a eb f6 ff ed ff 0b 00 27 00 5d 1f 30 05 b3 33 b5 c7 07 80 00 00 00 80 00 00 00 00 09 09 00 00 00 00 00 a9 49 b5 c7 28 08 00 17 d1 28 da 8a 8a 9f a8
# ReportID: 1 / X:  129 | Y:  126 | Z:  129 | Rz:  128 | Rx:    0 | Ry:    0 | 0xff000020:  102 | Hat switch:   8 | Button: 0  0  0  0  0  0  0  0  0  0  0  0  0  0  0 | 0xff000021: 0 , 0 , 0 , 0 , 0 , 0 , 0 , 0 , 0 , 0 , 0 , 0 , 0 | 0xff000022:   67 ,   18 ,   42 ,  235 ,  248 ,  255 ,  238 ,  255 ,   11 ,    0 ,   41 ,    0 ,   66 ,   31 ,   39 ,    5 ,  168 ,   98 ,  181 ,  199 ,    8 ,  128 ,    0 ,    0 ,    0 ,  128 ,    0 ,    0 ,    0 ,    0 ,    9 ,    9 ,    0 ,    0 ,    0 ,    0 ,    0 ,  137 ,  120 ,  181 ,  199 ,   40 ,    8 ,    0 ,  115 ,   15 ,  149 ,   49 ,   61 ,   32 ,    8 ,  206 
E: 000000.191995 64 01 81 7e 81 80 00 00 66 08 00 00 00 43 12 2a eb f8 ff ee ff 0b 00 29 00 42 1f 27 05 a8 62 b5 c7 08 80 00 00 00 80 00 00 00 00 09 09 00 00 00 00 00 89 78 b5 c7 28 08 00 73 0f 95 31 3d 20 08 ce
# ReportID: 1 / X:  129 | Y:  126 | Z:  129 | Rz:  128 | Rx:    0 | Ry:    0 | 0xff000020:  103 | Hat switch:   8 | Button: 0  0  0  0  0  0  0  0  0  0  0  0  0  0  0 | 0xff000021: 0 , 0 , 0 , 0 , 0 , 0 , 0 , 0 , 0 , 0 , 0 , 0 , 0 | 0xff000022:   68 ,   18 ,   42 ,  235 ,  247 ,  255 ,  237 ,  255 ,   10 ,    0 ,   28 ,    0 ,   71 ,   31 ,   42 ,    5 ,  155 ,  145 ,  181 ,  199 ,    7 ,  128 ,    0 ,    0 ,    0 ,  128 ,    0 ,    0 ,    0 ,    0 ,    9 ,    9 ,    0 ,    0 ,    0 ,    0 ,    0 ,  105 ,  167 ,  181 ,  199 ,   40 ,    8 ,    0 ,  234 ,  158 ,  156 ,  205 ,   97 ,  182 ,   14 ,   28 
E: 000000.197726 64 01 81 7e 81 80 00 00 67 08 00 00 00 44 12 2a eb f7 ff ed ff 0a 00 1c 00 47 1f 2a 05 9b 91 b5 c7 07 80 00 00 00 80 00 00 00 00 09 09 00 00 00 00 00 69 a7 b5 c7 28 08 00 ea 9e 9c cd 61 b6 0e 1c
# ReportID: 1 / X:  129 | Y:  126 | Z:  129 | Rz:  128 | Rx:    0 | Ry:    0 | 0xff000020:  104 | Hat switch:   8 | Button: 0  0  0  0  0  0  0  0  0  0  0  0  0  0  0 | 0xff000021: 0 , 0 , 0 , 0 , 0 , 0 , 0 , 0 , 0 , 0 , 0 , 0 , 0 | 0xff000022:   69 ,   18 ,   42 ,  235 ,  248 ,  255 ,  238 ,  255 ,   11 ,    0 ,   37 ,    0 ,   84 ,   31 ,   44 ,    5 ,  140 ,  192 ,  181 ,  199 ,    8 ,  128 ,    0 ,    0 ,    0 ,  128 ,    0 ,    0 ,    0 ,    0 ,    9 ,    9 ,    0 ,    0 ,    0 ,    0 ,    0 ,   73 ,  214 ,  181 ,  199 ,   40 ,    8 ,    0 ,   73 ,   67 ,  243 ,  182 ,   23 ,   51 ,  254 ,   56 
E: 000000.201340 64 01 81 7e 81 80 00 00 68 08 00 00 00 45 12 2a eb f8 ff ee ff 0b 00 25 00 54 1f 2c 05 8c c0 b5 c7 08 80 00 00 00 80 00 00 00 00 09 09 00 00 00 00 00 49 d6 b5 c7 28 08 00 49 43 f3 b6 17 33 fe 38
# ReportID: 1 / X:  129 | Y:  126 | Z:  129 | Rz:  128 | Rx:    0 | Ry:    0 | 0xff000020:  105 | Hat switch:   8 | Button: 0  0  0  0  0  0  0  0  0  0  0  0  0  0  0 | 0xff000021: 0 , 0 , 0 , 0 , 0 , 0 , 0 , 0 , 0 , 0 , 0 , 0 , 0 | 0xff000022:   70 ,   18 ,   42 ,  235 ,  248 ,  255 ,  237 ,  255 ,   12 ,    0 ,   31 ,    0 ,  101 ,   31 ,   45 ,    5 ,  129 ,  239 ,  181 ,  199 ,    7 ,  128 ,    0 ,    0 ,    0 ,  128 ,    0 ,    0 ,    0 ,    0 ,    9 ,    9 ,    0 ,    0 ,    0 ,    0 ,    0 ,   41 ,    5 ,  182 ,  199 ,   40 ,    8 ,    0 ,  119 ,   85 ,  250 ,   30 ,  100 ,   39 ,  254 ,   42 
E: 000000.204838 64 01 81 7e 81 80 00 00 69 08 00 00 00 46 12 2a eb f8 ff ed ff 0c 00 1f 00 65 1f 2d 05 81 ef b5 c7 07 80 00 00 00 80 00 00 00 00 09 09 00 00 00 00 00 29 05 b6 c7 28 08 00 77 55 fa 1e 64 27 fe 2a
# ReportID: 1 / X:  129 | Y:  126 | Z:  129 | Rz:  128 | Rx:    0 | Ry:    0 | 0xff000020:  106 | Hat switch:   8 | Button: 0  0  0  0  0  0  0  0  0  0  0  0  0  0  0 | 0xff000021: 0 , 0 , 0 , 0 , 0 , 0 , 0 , 0 , 0 , 0 , 0 , 0 , 0 | 0xff000022:   71 ,   18 ,   42 ,  235 ,  248 ,  255 ,  237 ,  255 ,   13 ,    0 ,   39 ,    0 ,  134 ,   31 ,   54 ,    5 ,  116 ,   30 ,  182 ,  199 ,    7 ,  128 ,    0 ,    0 ,    0 ,  128 ,    0 ,    0 ,    0 ,    0 ,    9 ,    9 ,    0 ,    0 ,    0 ,    0 ,    0 ,    9 ,   52 ,  182 ,  199 ,   40 ,    8 ,    0 ,  146 ,  182 ,   70 ,  232 ,  130 ,  249 ,  225 ,  155 
E: 000000.208305 64 01 81 7e 81 80 00 00 6a 08 00 00 00 47 12 2a eb f8 ff ed ff 0d 00 27 00 86 1f 36 05 74 1e b6 c7 07 80 00 00 00 80 00 00 00 00 09 09 00 00 00 00 00 09 34 b6 c7 28 08 00 92 b6 46 e8 82 f9 e1 9b
# ReportID: 1 / X:  129 | Y:  126 | Z:  129 | Rz:  128 | Rx:    0 | Ry:    0 | 0xff000020:  107 | Hat switch:   8 | Button: 0  0  0  0  0  0  0  0  0  0  0  0  0  0  0 | 0xff000021: 0 , 0 , 0 , 0 , 0 , 0 , 0 , 0 , 0 , 0 , 0 , 0 , 0 | 0xff000022:   72 ,   18 ,   42 ,  235 ,  247 ,  255 ,  237 ,  255 ,   11 ,    0 ,   50 ,    0 ,   93 ,   31 ,   37 ,    5 ,  101 ,   77 ,  182 ,  199 ,    7 ,  128 ,    0 ,    0 ,    0 ,  128 ,    0 ,    0 ,    0 ,    0 ,    9 ,    9 ,    0 ,    0 ,    0 ,    0 ,    0 ,  233 ,   98 ,  182 ,  199 ,   40 ,    8 ,    0 ,   46 ,   56 ,  229 ,   96 ,  110 ,  254 ,  251 ,  192 
E: 000000.211957 64 01 81 7e 81 80 00 00 6b 08 00 00 00 48 12 2a eb f7 ff ed ff 0b 00 32 00 5d 1f 25 05 65 4d b6 c7 07 80 00 00 00 80 00 00 00 00 09 09 00 00 00 00 00 e9 62 b6 c7 28 08 00 2e 38 e5 60 6e fe fb c0
# ReportID: 1 / X:  129 | Y:  126 | Z:  129 | Rz:  128 | Rx:    0 | Ry:    0 | 0xff000020:  108 | Hat switch:   8 | Button: 0  0  0  0  0  0  0  0  0  0  0  0  0  0  0 | 0xff000021: 0 , 0 , 0 , 0 , 0 , 0 , 0 , 0 , 0 , 0 , 0 , 0 , 0 | 0xff000022:   73 ,   18 ,   42 ,  235 ,  247 ,  255 ,  238 ,  255 ,   11 ,    0 ,   40 ,    0 ,   79 ,   31 ,   47 ,    5 ,   88 ,  124 ,  182 ,  199 ,    7 ,  128 ,    0 ,    0 ,    0 ,  128 ,    0 ,    0 ,    0 ,    0 ,    9 ,    9 ,    0 ,    0 ,    0 ,    0 ,    0 ,  201 ,  145 ,  182 ,  199 ,   40 ,    8 ,    0 ,  192 ,  231 ,  160 ,  251 ,  224 ,  130 ,   93 ,   74 
E: 000000.218120 64 01 81 7e 81 80 00 00 6c 08 00 00 00 49 12 2a eb f7 ff ee ff 0b 00 28 00 4f 1f 2f 05 58 7c b6 c7 07 80 00 00 00 80 00 00 00 00 09 09 00 00 00 00 00 c9 91 b6 c7 28 08 00 c0 e7 a0 fb e0 82 5d 4a
# ReportID: 1 / X:  129 | Y:  126 | Z:  129 | Rz:  128 | Rx:    0 | Ry:    0 | 0xff000020:  109 | Hat switch:   8 | Button: 0  0  0  0  0  0  0  0  0  0  0  0  0  0  0 | 0xff000021: 0 , 0 , 0 , 0 , 0 , 0 , 0 , 0 , 0 , 0 , 0 , 0 , 0 | 0xff000022:   74 ,   18 ,   42 ,  235 ,  246 ,  255 ,  237 ,  255 ,   11 ,    0 ,   40 ,    0 ,   76 ,   31 ,   49 ,    5 ,   75 ,  171 ,  182 ,  199 ,    7 ,  128 ,    0 ,    0 ,    0 ,  128 ,    0 ,    0 ,    0 ,    0 ,    9 ,    9 ,    0 ,    0 ,    0 ,    0 ,    0 ,  169 ,  192 ,  182 ,  199 ,   40 ,    8 ,    0 ,  110 ,  111 ,  209 ,  202 ,    5 ,  129 ,  139 ,    1 
E: 000000.219833 64 01 81 7e 81 80 00 00 6d 08 00 00 00 4a 12 2a eb f6 ff ed ff 0b 00 28 00 4c 1f 31 05 4b ab b6 c7 07 80 00 00 00 80 00 00 00 00 09 09 00 00 00 00 00 a9 c0 b6 c7 28 08 00 6e 6f d1 ca 05 81 8b 01
# ReportID: 1 / X:  129 | Y:  126 | Z:  129 | Rz:  128 | Rx:    0 | Ry:    0 | 0xff000020:  110 | Hat switch:   8 | Button: 0  0  0  0  0  0  0  0  0  0  0  0  0  0  0 | 0xff000021: 0 , 0 , 0 , 0 , 0 , 0 , 0 , 0 , 0 , 0 , 0 , 0 , 0 | 0xff000022:   75 ,   18 ,   42 ,  235 ,  246 ,  255 ,  238 ,  255 ,   10 ,    0 ,   48 ,    0 ,   65 ,   31 ,   53 ,    5 ,   62 ,  218 ,  182 ,  199 ,    7 ,  128 ,    0 ,    0 ,    0 ,  128 ,    0 ,    0 ,    0 ,    0 ,    9 ,    9 ,    0 ,    0 ,    0 ,    0 ,    0 ,  137 ,  239 ,  182 ,  199 ,   40 ,    8 ,    0 ,  121 ,   70 ,  247 ,  122 ,   57 ,   93 ,   45 ,  176 
E: 000000.224215 64 01 81 7e 81 80 00 00 6e 08 00 00 00 4b 12 2a eb f6 ff ee ff 0a 00 30 00 41 1f 35 05 3e da b6 c7 07 80 00 00 00 80 00 00 00 00 09 09 00 00 00 00 00 89 ef b6 c7 28 08 00 79 46 f7 7a 39 5d 2d b0
# ReportID: 1 / X:  129 | Y:  126 | Z:  129 | Rz:  128 | Rx:    0 | Ry:    0 | 0xff000020:  111 | Hat switch:   8 | Button: 0  0  0  0  0  0  0  0  0  0  0  0  0  0  0 | 0xff000021: 0 , 0 , 0 , 0 , 0 , 0 , 0 , 0 , 0 , 0 , 0 , 0 , 0 | 0xff000022:   76 ,   18 ,   42 ,  235 ,  247 ,  255 ,  237 ,  255 ,   11 ,    0 ,   55 ,    0 ,   95 ,   31 ,   47 ,    5 ,   49 ,    9 ,  183 ,  199 ,    8 ,  128 ,    0 ,    0 ,    0 ,  128 ,    0 ,    0 ,    0 ,    0 ,    9 ,    9 ,    0 ,    0 ,    0 ,    0 ,    0 ,  105 ,   30 ,  183 ,  199 ,   40 ,    8 ,    0 ,  168 ,  176 ,   72 ,  176 ,   28 ,   13 ,  214 ,   98 
E: 000000.228592 64 01 81 7e 81 80 00 00 6f 08 00 00 00 4c 12 2a eb f7 ff ed ff 0b 00 37 00 5f 1f 2f 05 31 09 b7 c7 08 80 00 00 00 80 00 00 00 00 09 09 00 00 00 00 00 69 1e b7 c7 28 08 00 a8 b0 48 b0 1c 0d d6 62
# ReportID: 1 / X:  129 | Y:  126 | Z:  129 | Rz:  128 | Rx:    0 | Ry:    0 | 0xff000020:  112 | Hat switch:   8 | Button: 0  0  0  0  0  0  0  0  0  0  0  0  0  0  0 | 0xff000021: 0 , 0 , 0 , 0 , 0 , 0 , 0 , 0 , 0 , 0 , 0 , 0 , 0 | 0xff000022:   77 ,   18 ,   42 ,  235 ,  248 ,  255 ,  238 ,  255 ,   11 ,    0 ,   64 ,    0 ,   93 ,   31 ,   59 ,    5 ,   36 ,   56 ,  183 ,  199 ,    8 ,  128 ,    0 ,    0 ,    0 ,  128 ,    0 ,    0 ,    0 ,    0 ,    9 ,    9 ,    0 ,    0 ,    0 ,    0 ,    0 ,   73 ,   77 ,  183 ,  199 ,   40 ,    8 ,    0 ,   64 ,  182 ,   44 ,   38 ,  106 ,  177 ,  180 ,   39 
E: 000000.231935 64 01 81 7e 81 80 00 00 70 08 00 00 00 4d 12 2a eb f8 ff ee ff 0b 00 40 00 5d 1f 3b 05 24 38 b7 c7 08 80 00 00 00 80 00 00 00 00 09 09 00 00 00 00 00 49 4d b7 c7 28 08 00 40 b6 2c 26 6a b1 b4 27
# ReportID: 1 / X:  129 | Y:  126 | Z:  129 | Rz:  128 | Rx:    0 | Ry:    0 | 0xff000020:  113 | Hat switch:   8 | Button: 0  0  0  0  0  0  0  0  0  0  0  0  0  0  0 | 0xff000021: 0 , 0 , 0 , 0 , 0 , 0 , 0 , 0 , 0 , 0 , 0 , 0 , 0 | 0xff000022:   78 ,   18 ,   42 ,  235 ,  249 ,  255 ,  238 ,  255 ,   11 ,    0 ,   69 ,    0 ,  106 ,   31 ,   69 ,    5 ,   23 ,  103 ,  183 ,  199 ,    8 ,  128 ,    0 ,    0 ,    0 ,  128 ,    0 ,    0 ,    0 ,    0 ,    9 ,    9 ,    0 ,    0 ,    0 ,    0 ,    0 ,   41 ,  124 ,  183 ,  199 ,   40 ,    8 ,    0 ,  215 ,   79 ,  110 ,  196 ,   17 ,  185 ,  226 ,   75 
E: 000000.235958 64 01 81 7e 81 80 00 00 71 08 00 00 00 4e 12 2a eb f9 ff ee ff 0b 00 45 00 6a 1f 45 05 17 67 b7 c7 08 80 00 00 00 80 00 00 00 00 09 09 00 00 00 00 00 29 7c b7 c7 28 08 00 d7 4f 6e c4 11 b9 e2 4b
# ReportID: 1 / X:  129 | Y:  126 | Z:  129 | Rz:  128 | Rx:    0 | Ry:    0 | 0xff000020:  114 | Hat switch:   8 | Button: 0  0  0  0  0  0  0  0  0  0  0  0  0  0  0 | 0xff000021: 0 , 0 , 0 , 0 , 0 , 0 , 0 , 0 , 0 , 0 , 0 , 0 , 0 | 0xff000022:   79 ,   18 ,   42 ,  235 ,  247 ,  255 ,  238 ,  255 ,   11 ,    0 ,   70 ,    0 ,   66 ,   31 ,   55 ,    5 ,   10 ,  150 ,  183 ,  199 ,    8 ,  128 ,    0 ,    0 ,    0 ,  128 ,    0 ,    0 ,    0 ,    0 ,    9 ,    9 ,    0 ,    0 ,    0 ,    0 ,    0 ,    9 ,  171 ,  183 ,  199 ,   40 ,    8 ,    0 ,  236 ,   95 ,   67 ,   90 ,   11 ,  124 ,   44 ,  125 
E: 000000.240135 64 01 81 7e 81 80 00 00 72 08 00 00 00 4f 12 2a eb f7 ff ee ff 0b 00 46 00 42 1f 37 05 0a 96 b7 c7 08 80 00 00 00 80 00 00 00 00 09 09 00 00 00 00 00 09 ab b7 c7 28 08 00 ec 5f 43 5a 0b 7c 2c 7d
# ReportID: 1 / X:  129 | Y:  126 | Z:  129 | Rz:  128 | Rx:    0 | Ry:    0 | 0xff000020:  115 | Hat switch:   8 | Button: 0  0  0  0  0  0  0  0  0  0  0  0  0  0  0 | 0xff000021: 0 , 0 , 0 , 0 , 0 , 0 , 0 , 0 , 0 , 0 , 0 , 0 , 0 | 0xff000022:   80 ,   18 ,   42 ,  235 ,  247 ,  255 ,  238 ,  255 ,   10 ,    0 ,   57 ,    0 ,   77 ,   31 ,   67 ,    5 ,  253 ,  196 ,  183 ,  199 ,    8 ,  128 ,    0 ,    0 ,    0 ,  128 ,    0 ,    0 ,    0 ,    0 ,    9 ,    9 ,    0 ,    0 ,    0 ,    0 ,    0 ,  233 ,  217 ,  183 ,  199 ,   40 ,    8 ,    0 ,  239 ,   66 ,   47 ,  124 ,   72 ,  173 ,  205 ,  200 
E: 000000.244322 64 01 81 7e 81 80 00 00 73 08 00 00 00 50 12 2a eb f7 ff ee ff 0a 00 39 00 4d 1f 43 05 fd c4 b7 c7 08 80 00 00 00 80 00 00 00 00 09 09 00 00 00 00 00 e9 d9 b7 c7 28 08 00 ef 42 2f 7c 48 ad cd c8
# ReportID: 1 / X:  129 | Y:  126 | Z:  129 | Rz:  128 | Rx:    0 | Ry:    0 | 0xff000020:  116 | Hat switch:   8 | Button: 0  0  0  0  0  0  0  0  0  0  0  0  0  0  0 | 0xff000021: 0 , 0 , 0 , 0 , 0 , 0 , 0 , 0 , 0 , 0 , 0 , 0 , 0 | 0xff000022:   81 ,   18 ,   42 ,  235 ,  246 ,  255 ,  239 ,  255 ,   11 ,    0 ,   66 ,    0 ,   76 ,   31 ,   67 ,    5 ,  240 ,  243 ,  183 ,  199 ,    7 ,  128 ,    0 ,    0 ,    0 ,  128 ,    0 ,    0 ,    0 ,    0 ,    9 ,    9 ,    0 ,    0 ,    0 ,    0 ,    0 ,  201 ,    8 ,  184 ,  199 ,   40 ,    8 ,    0 ,  165 ,   58 ,  112 ,   67 ,  146 ,  243 ,  147 ,  180 
E: 000000.248161 64 01 81 7e 81 80 00 00 74 08 00 00 00 51 12 2a eb f6 ff ef ff 0b 00 42 00 4c 1f 43 05 f0 f3 b7 c7 07 80 00 00 00 80 00 00 00 00 09 09 00 00 00 00 00 c9 08 b8 c7 28 08 00 a5 3a 70 43 92 f3 93 b4
# ReportID: 1 / X:  129 | Y:  126 | Z:  129 | Rz:  128 | Rx:    0 | Ry:    0 | 0xff000020:  117 | Hat switch:   8 | Button: 0  0  0  0  0  0  0  0  0  0  0  0  0  0  0 | 0xff000021: 0 , 0 , 0 , 0 , 0 , 0 , 0 , 0 , 0 , 0 , 0 , 0 , 0 | 0xff000022:   82 ,   18 ,   42 ,  235 ,  247 ,  255 ,  238 ,  255 ,   10 ,    0 ,   61 ,    0 ,   83 ,   31 ,   62 ,    5 ,  227 ,   34 ,  184 ,  199 ,    7 ,  128 ,    0 ,    0 ,    0 ,  128 ,    0 ,    0 ,    0 ,    0 ,    9 ,    9 ,    0 ,    0 ,    0 ,    0 ,    0 ,  169 ,   55 ,  184 ,  199 ,   40 ,    8 ,    0 ,  208 ,  141 ,  240 ,  115 ,   39 ,  204 ,    8 ,  191 
E: 000000.251891 64 01 81 7e 81 80 00 00 75 08 00 00 00 52 12 2a eb f7 ff ee ff 0a 00 3d 00 53 1f 3e 05 e3 22 b8 c7 07 80 00 00 00 80 00 00 00 00 09 09 00 00 00 00 00 a9 37 b8 c7 28 08 00 d0 8d f0 73 27 cc 08 bf
# ReportID: 1 / X:  129 | Y:  126 | Z:  129 | Rz:  128 | Rx:    0 | Ry:    0 | 0xff000020:  118 | Hat switch:   8 | Button: 0  0  0  0  0  0  0  0  0  0  0  0  0  0  0 | 0xff000021: 0 , 0 , 0 , 0 , 0 , 0 , 0 , 0 , 0 , 0 , 0 , 0 , 0 | 0xff000022:   83 ,   18 ,   42 ,  235 ,  248 ,  255 ,  238 ,  255 ,   10 ,    0 ,   62 ,    0 ,   87 ,   31 ,   67 ,    5 ,  214 ,   81 ,  184 ,  199 ,    7 ,  128 ,    0 ,    0 ,    0 ,  128 ,    0 ,    0 ,    0 ,    0 ,    9 ,    9 ,    0 ,    0 ,    0 ,    0 ,    0 ,  137 ,  102 ,  184 ,  199 ,   40 ,    8 ,    0 ,   99 ,   92 ,  248 ,  202 ,  194 ,  125 ,  238 ,  227 
E: 000000.258199 64 01 81 7e 81 80 00 00 76 08 00 00 00 53 12 2a eb f8 ff ee ff 0a 00 3e 00 57 1f 43 05 d6 51 b8 c7 07 80 00 00 00 80 00 00 00 00 09 09 00 00 00 00 00 89 66 b8 c7 28 08 00 63 5c f8 ca c2 7d ee e3
# ReportID: 1 / X:  129 | Y:  126 | Z:  129 | Rz:  128 | Rx:    0 | Ry:    0 | 0xff000020:  119 | Hat switch:   8 | Button: 0  0  0  0  0  0  0  0  0  0  0  0  0  0  0 | 0xff000021: 0 , 0 , 0 , 0 , 0 , 0 , 0 , 0 , 0 , 0 , 0 , 0 , 0 | 0xff000022:   84 ,   18 ,   42 ,  235 ,  248 ,  255 ,  240 ,  255 ,   11 ,    0 ,   69 ,    0 ,   78 ,   31 ,   57 ,    5 ,  201 ,  128 ,  184 ,  199 ,    7 ,  128 ,    0 ,    0 ,    0 ,  128 ,    0 ,    0 ,    0 ,    0 ,    9 ,    9 ,    0 ,    0 ,    0 ,    0 ,    0 ,  105 ,  149 ,  184 ,  199 ,   40 ,    8 ,    0 ,  163 ,  255 ,   97 ,   11 ,  128 ,  159 ,   64 ,  160 
E: 000000.259840 64 01 81 7e 81 80 00 00 77 08 00 00 00 54 12 2a eb f8 ff f0 ff 0b 00 45 00 4e 1f 39 05 c9 80 b8 c7 07 80 00 00 00 80 00 00 00 00 09 09 00 00 00 00 00 69 95 b8 c7 28 08 00 a3 ff 61 0b 80 9f 40 a0
# ReportID: 1 / X:  129 | Y:  126 | Z:  129 | Rz:  128 | Rx:    0 | Ry:    0 | 0xff000020:  120 | Hat switch:   8 | Button: 0  0  0  0  0  0  0  0  0  0  0  0  0  0  0 | 0xff000021: 0 , 0 , 0 , 0 , 0 , 0 , 0 , 0 , 0 , 0 , 0 , 0 , 0 | 0xff000022:   85 ,   18 ,   42 ,  235 ,  248 ,  255 ,  238 ,  255 ,   10 ,    0 ,   54 ,    0 ,   86 ,   31 ,   62 ,    5 ,  188 ,  175 ,  184 ,  199 ,    7 ,  128 ,    0 ,    0 ,    0 ,  128 ,    0 ,    0 ,    0 ,    0 ,    9 ,    9 ,    0 ,    0 ,    0 ,    0 ,    0 ,   73 ,  196 ,  184 ,  199 ,   40 ,    8 ,    0 ,  228 ,  209 ,  214 ,  234 ,   79 ,  164 ,   34 ,  129 
E: 000000.265747 64 01 81 7e 81 80 00 00 78 08 00 00 00 55 12 2a eb f8 ff ee ff 0a 00 36 00 56 1f 3e 05 bc af b8 c7 07 80 00 00 00 80 00 00 00 00 09 09 00 00 00 00 00 49 c4 b8 c7 28 08 00 e4 d1 d6 ea 4f a4 22 81
# ReportID: 1 / X:  129 | Y:  126 | Z:  129 | Rz:  128 | Rx:    0 | Ry:    0 | 0xff000020:  121 | Hat switch:   8 | Button: 0  0  0  0  0  0  0  0  0  0  0  0  0  0  0 | 0xff000021: 0 , 0 , 0 , 0 , 0 , 0 , 0 , 0 , 0 , 0 , 0 , 0 , 0 | 0xff000022:   86 ,   18 ,   42 ,  235 ,  248 ,  255 ,  240 ,  255 ,   11 ,    0 ,   52 ,    0 ,   83 ,   31 ,   59 ,    5 ,  175 ,  222 ,  184 ,  199 ,    7 ,  128 ,    0 ,    0 ,    0 ,  128 ,    0 ,    0 ,    0 ,    0 ,    9 ,    9 ,    0 ,    0 ,    0 ,    0 ,    0 ,   41 ,  243 ,  184 ,  199 ,   40 ,    8 ,    0 ,  174 ,  102 ,  147 ,  243 ,   38 ,  171 ,  122 ,   56 
E: 000000.269308 64 01 81 7e 81 80 00 00 79 08 00 00 00 56 12 2a eb f8 ff f0 ff 0b 00 34 00 53 1f 3b 05 af de b8 c7 07 80 00 00 00 80 00 00 00 00 09 09 00 00 00 00 00 29 f3 b8 c7 28 08 00 ae 66 93 f3 26 ab 7a 38
# ReportID: 1 / X:  129 | Y:  126 | Z:  129 | Rz:  128 | Rx:    0 | Ry:    0 | 0xff000020:  122 | Hat switch:   8 | Button: 0  0  0  0  0  0  0  0  0  0  0  0  0  0  0 | 0xff000021: 0 , 0 , 0 , 0 , 0 , 0 , 0 , 0 , 0 , 0 , 0 , 0 , 0 | 0xff000022:   87 ,   18 ,   42 ,  235 ,  248 ,  255 ,  240 ,  255 ,   10 ,    0 ,   51 ,    0 ,   89 ,   31 ,   50 ,    5 ,  162 ,   13 ,  185 ,  199 ,    7 ,  128 ,    0 ,    0 ,    0 ,  128 ,    0 ,    0 ,    0 ,    0 ,    9 ,    9 ,    0 ,    0 ,    0 ,    0 ,    0 ,    9 ,   34 ,  185 ,  199 ,   40 ,    8 ,    0 ,  149 ,    1 ,    5 ,  212 ,  153 ,   49 ,  218 ,  115 
E: 000000.271987 64 01 81 7e 81 80 00 00 7a 08 00 00 00 57 12 2a eb f8 ff f0 ff 0a 00 33 00 59 1f 32 05 a2 0d b9 c7 07 80 00 00 00 80 00 00 00 00 09 09 00 00 00 00 00 09 22 b9 c7 28 08 00 95 01 05 d4 99 31 da 73
# ReportID: 1 / X:  129 | Y:  126 | Z:  129 | Rz:  128 | Rx:    0 | Ry:    0 | 0xff000020:  123 | Hat switch:   8 | Button: 0  0  0  0  0  0  0  0  0  0  0  0  0  0  0 | 0xff000021: 0 , 0 , 0 , 0 , 0 , 0 , 0 , 0 , 0 , 0 , 0 , 0 , 0 | 0xff000022:   88 ,   18 ,   42 ,  235 ,  247 ,  255 ,  238 ,  255 ,   10 ,    0 ,   54 ,    0 ,   91 ,   31 ,   53 ,    5 ,  149 ,   60 ,  185 ,  199 ,    7 ,  128 ,    0 ,    0 ,    0 ,  128 ,    0 ,    0 ,    0 ,    0 ,    9 ,    9 ,    0 ,    0 ,    0 ,    0 ,    0 ,  233 ,   80 ,  185 ,  199 ,   40 ,    8 ,    0 ,  226 ,   49 ,   54 ,  143 ,   54 ,  231 ,   11 ,   39 
E: 000000.276423 64 01 81 7e 81 80 00 00 7b 08 00 00 00 58 12 2a eb f7 ff ee ff 0a 00 36 00 5b 1f 35 05 95 3c b9 c7 07 80 00 00 00 80 00 00 00 00 09 09 00 00 00 00 00 e9 50 b9 c7 28 08 00 e2 31 36 8f 36 e7 0b 27
# ReportID: 1 / X:  129 | Y:  126 | Z:  129 | Rz:  128 | Rx:    0 | Ry:    0 | 0xff000020:  124 | Hat switch:   8 | Button: 0  0  0  0  0  0  0  0  0  0  0  0  0  0  0 | 0xff000021: 0 , 0 , 0 , 0 , 0 , 0 , 0 , 0 , 0 , 0 , 0 , 0 , 0 | 0xff000022:   89 ,   18 ,   42 ,  235 ,  247 ,  255 ,  238 ,  255 ,   10 ,    0 ,   40 ,    0 ,  108 ,   31 ,   58 ,    5 ,  136 ,  107 ,  185 ,  199 ,    8 ,  128 ,    0 ,    0 ,    0 ,  128 ,    0 ,    0 ,    0 ,    0 ,    9 ,    9 ,    0 ,    0 ,    0 ,    0 ,    0 ,  201 ,  127 ,  185 ,  199 ,   40 ,    8 ,    0 ,  119 ,   69 ,   33 ,   81 ,  178 ,   27 ,   72 ,   58 
E: 000000.279926 64 01 81 7e 81 80 00 00 7c 08 00 00 00 59 12 2a eb f7 ff ee ff 0a 00 28 00 6c 1f 3a 05 88 6b b9 c7 08 80 00 00 00 80 00 00 00 00 09 09 00 00 00 00 00 c9 7f b9 c7 28 08 00 77 45 21 51 b2 1b 48 3a
# ReportID: 1 / X:  129 | Y:  126 | Z:  129 | Rz:  128 | Rx:    0 | Ry:    0 | 0xff000020:  125 | Hat switch:   8 | Button: 0  0  0  0  0  0  0  0  0  0  0  0  0  0  0 | 0xff000021: 0 , 0 , 0 , 0 , 0 , 0 , 0 , 0 , 0 , 0 , 0 , 0 , 0 | 0xff000022:   90 ,   18 ,   42 ,  235 ,  250 ,  255 ,  237 ,  255 ,   13 ,    0 ,   40 ,    0 ,  129 ,   31 ,   68 ,    5 ,  123 ,  154 ,  185 ,  199 ,    8 ,  128 ,    0 ,    0 ,    0 ,  128 ,    0 ,    0 ,    0 ,    0 ,    9 ,    9 ,    0 ,    0 ,    0 ,    0 ,    0 ,  169 ,  174 ,  185 ,  199 ,   40 ,    8 ,    0 ,  254 ,    9 ,  251 ,    7 ,   33 ,  144 ,  185 ,  212 
E: 000000.284133 64 01 81 7e 81 80 00 00 7d 08 00 00 00 5a 12 2a eb fa ff ed ff 0d 00 28 00 81 1f 44 05 7b 9a b9 c7 08 80 00 00 00 80 00 00 00 00 09 09 00 00 00 00 00 a9 ae b9 c7 28 08 00 fe 09 fb 07 21 90 b9 d4
# ReportID: 1 / X:  129 | Y:  126 | Z:  129 | Rz:  128 | Rx:    0 | Ry:    0 | 0xff000020:  126 | Hat switch:   8 | Button: 0  0  0  0  0  0  0  0  0  0  0  0  0  0  0 | 0xff000021: 0 , 0 , 0 , 0 , 0 , 0 , 0 , 0 , 0 , 0 , 0 , 0 , 0 | 0xff000022:   91 ,   18 ,   42 ,  235 ,  253 ,  255 ,  235 ,  255 ,   18 ,    0 ,   39 ,    0 ,  140 ,   31 ,   72 ,    5 ,  110 ,  201 ,  185 ,  199 ,    7 ,  128 ,    0 ,    0 ,    0 ,  128 ,    0 ,    0 ,    0 ,    0 ,    9 ,    9 ,    0 ,    0 ,    0 ,    0 ,    0 ,  137 ,  221 ,  185 ,  199 ,   40 ,    8 ,    0 ,  141 ,  109 ,  156 ,  189 ,   81 ,  194 ,  254 ,  218 
E: 000000.289060 64 01 81 7e 81 80 00 00 7e 08 00 00 00 5b 12 2a eb fd ff eb ff 12 00 27 00 8c 1f 48 05 6e c9 b9 c7 07 80 00 00 00 80 00 00 00 00 09 09 00 00 00 00 00 89 dd b9 c7 28 08 00 8d 6d 9c bd 51 c2 fe da
# ReportID: 1 / X:  129 | Y:  126 | Z:  129 | Rz:  128 | Rx:    0 | Ry:    0 | 0xff000020:  127 | Hat switch:   8 | Button: 0  0  0  0  0  0  0  0  0  0  0  0  0  0  0 | 0xff000021: 0 , 0 , 0 , 0 , 0 , 0 , 0 , 0 , 0 , 0 , 0 , 0 , 0 | 0xff000022:   92 ,   18 ,   42 ,  235 ,  251 ,  255 ,  237 ,  255 ,   14 ,    0 ,   45 ,    0 ,   10 ,   31 ,  255 ,    4 ,   97 ,  248 ,  185 ,  199 ,    7 ,  128 ,    0 ,    0 ,    0 ,  128 ,    0 ,    0 ,    0 ,    0 ,    9 ,    9 ,    0 ,    0 ,    0 ,    0 ,    0 ,  105 ,   12 ,  186 ,  199 ,   40 ,    8 ,    0 ,  114 ,   63 ,   84 ,   78 ,  254 ,  153 ,  195 ,  186 
E: 000000.292433 64 01 81 7e 81 80 00 00 7f 08 00 00 00 5c 12 2a eb fb ff ed ff 0e 00 2d 00 0a 1f ff 04 61 f8 b9 c7 07 80 00 00 00 80 00 00 00 00 09 09 00 00 00 00 00 69 0c ba c7 28 08 00 72 3f 54 4e fe 99 c3 ba
# ReportID: 1 / X:  129 | Y:  126 | Z:  129 | Rz:  128 | Rx:    0 | Ry:    0 | 0xff000020:  128 | Hat switch:   8 | Button: 0  0  0  0  0  0  0  0  0  0  0  0  0  0  0 | 0xff000021: 0 , 0 , 0 , 0 , 0 , 0 , 0 , 0 , 0 , 0 , 0 , 0 , 0 | 0xff000022:   93 ,   18 ,   42 ,  235 ,  248 ,  255 ,  238 ,  255 ,   11 ,    0 ,   38 ,    0 ,   79 ,   31 ,   30 ,    5 ,   84 ,   39 ,  186 ,  199 ,    8 ,  128 ,    0 ,    0 ,    0 ,  128 ,    0 ,    0 ,    0 ,    0 ,    9 ,    9 ,    0 ,    0 ,    0 ,    0 ,    0 ,   73 ,   59 ,  186 ,  199 ,   40 ,    8 ,    0 ,  142 ,  222 ,  186 ,   89 ,  242 ,    4 ,   34 ,  106 
E: 000000.295859 64 01 81 7e 81 80 00 00 80 08 00 00 00 5d 12 2a eb f8 ff ee ff 0b 00 26 00 4f 1f 1e 05 54 27 ba c7 08 80 00 00 00 80 00 00 00 00 09 09 00 00 00 00 00 49 3b ba c7 28 08 00 8e de ba 59 f2 04 22 6a
# ReportID: 1 / X:  129 | Y:  126 | Z:  129 | Rz:  128 | Rx:    0 | Ry:    0 | 0xff000020:  129 | Hat switch:   8 | Button: 0  0  0  0  0  0  0  0  0  0  0  0  0  0  0 | 0xff000021: 0 , 0 , 0 , 0 , 0 , 0 , 0 , 0 , 0 , 0 , 0 , 0 , 0 | 0xff000022:   94 ,   18 ,   42 ,  235 ,  250 ,  255 ,  236 ,  255 ,   13 ,    0 ,   37 ,    0 ,  144 ,   31 ,   69 ,    5 ,   72 ,   86 ,  186 ,  199 ,    8 ,  128 ,    0 ,    0 ,    0 ,  128 ,    0 ,    0 ,    0 ,    0 ,    9 ,    9 ,    0 ,    0 ,    0 ,    0 ,    0 ,   41 ,  106 ,  186 ,  199 ,   40 ,    8 ,    0 ,  237 ,   50 ,   35 ,  248 ,   64 ,    6 ,  107 ,  255 
E: 000000.300441 64 01 81 7e 81 80 00 00 81 08 00 00 00 5e 12 2a eb fa ff ec ff 0d 00 25 00 90 1f 45 05 48 56 ba c7 08 80 00 00 00 80 00 00 00 00 09 09 00 00 00 00 00 29 6a ba c7 28 08 00 ed 32 23 f8 40 06 6b ff
# ReportID: 1 / X:  129 | Y:  126 | Z:  129 | Rz:  128 | Rx:    0 | Ry:    0 | 0xff000020:  130 | Hat switch:   8 | Button: 0  0  0  0  0  0  0  0  0  0  0  0  0  0  0 | 0xff000021: 0 , 0 , 0 , 0 , 0 , 0 , 0 , 0 , 0 , 0 , 0 , 0 , 0 | 0xff000022:   95 ,   18 ,   42 ,  235 ,  254 ,  255 ,  236 ,  255 ,   15 ,    0 ,   40 ,    0 ,  130 ,   31 ,   64 ,    5 ,   59 ,  133 ,  186 ,  199 ,    7 ,  128 ,    0 ,    0 ,    0 ,  128 ,    0 ,    0 ,    0 ,    0 ,    9 ,    9 ,    0 ,    0 ,    0 ,    0 ,    0 ,    9 ,  153 ,  186 ,  199 ,   40 ,    8 ,    0 ,   97 ,   16 ,  176 ,  251 ,   44 ,  234 ,   15 ,  113 
E: 000000.304116 64 01 81 7e 81 80 00 00 82 08 00 00 00 5f 12 2a eb fe ff ec ff 0f 00 28 00 82 1f 40 05 3b 85 ba c7 07 80 00 00 00 80 00 00 00 00 09 09 00 00 00 00 00 09 99 ba c7 28 08 00 61 10 b0 fb 2c ea 0f 71
# ReportID: 1 / X:  129 | Y:  126 | Z:  129 | Rz:  128 | Rx:    0 | Ry:    0 | 0xff000020:  131 | Hat switch:   8 | Button: 0  0  0  0  0  0  0  0  0  0  0  0  0  0  0 | 0xff000021: 0 , 0 , 0 , 0 , 0 , 0 , 0 , 0 , 0 , 0 , 0 , 0 , 0 | 0xff000022:   96 ,   18 ,   42 ,  235 ,  252 ,  255 ,  236 ,  255 ,   15 ,    0 ,   36 ,    0 ,   34 ,   31 ,    9 ,    5 ,   46 ,  180 ,  186 ,  199 ,    7 ,  128 ,    0 ,    0 ,    0 ,  128 ,    0 ,    0 ,    0 ,    0 ,    9 ,    9 ,    0 ,    0 ,    0 ,    0 ,    0 ,  233 ,  199 ,  186 ,  199 ,   40 ,    8 ,    0 ,  177 ,  156 ,  255 ,  223 ,   18 ,  111 ,   35 ,  105 
E: 000000.308112 64 01 81 7e 81 80 00 00 83 08 00 00 00 60 12 2a eb fc ff ec ff 0f 00 24 00 22 1f 09 05 2e b4 ba c7 07 80 00 00 00 80 00 00 00 00 09 09 00 00 00 00 00 e9 c7 ba c7 28 08 00 b1 9c ff df 12 6f 23 69
# ReportID: 1 / X:  129 | Y:  126 | Z:  129 | Rz:  128 | Rx:    0 | Ry:    0 | 0xff000020:  132 | Hat switch:   8 | Button: 0  0  0  0  0  0  0  0  0  0  0  0  0  0  0 | 0xff000021: 0 , 0 , 0 , 0 , 0 , 0 , 0 , 0 , 0 , 0 , 0 , 0 , 0 | 0xff000022:   97 ,   18 ,   42 ,  235 ,  252 ,  255 ,  236 ,  255 ,   15 ,    0 ,   46 ,    0 ,  133 ,   31 ,   74 ,    5 ,   33 ,  227 ,  186 ,  199 ,    7 ,  128 ,    0 ,    0 ,    0 ,  128 ,    0 ,    0 ,    0 ,    0 ,    9 ,    9 ,    0 ,    0 ,    0 ,    0 ,    0 ,  201 ,  246 ,  186 ,  199 ,   40 ,    8 ,    0 ,  170 ,   16 ,  199 ,   59 ,   19 ,   96 ,   80 ,   15 
E: 000000.313093 64 01 81 7e 81 80 00 00 84 08 00 00 00 61 12 2a eb fc ff ec ff 0f 00 2e 00 85 1f 4a 05 21 e3 ba c7 07 80 00 00 00 80 00 00 00 00 09 09 00 00 00 00 00 c9 f6 ba c7 28 08 00 aa 10 c7 3b 13 60 50 0f
# ReportID: 1 / X:  129 | Y:  126 | Z:  129 | Rz:  128 | Rx:    0 | Ry:    0 | 0xff000020:  133 | Hat switch:   8 | Button: 0  0  0  0  0  0  0  0  0  0  0  0  0  0  0 | 0xff000021: 0 , 0 , 0 , 0 , 0 , 0 , 0 , 0 , 0 , 0 , 0 , 0 , 0 | 0xff000022:   98 ,   18 ,   42 ,  235 ,  250 ,  255 ,  236 ,  255 ,   15 ,    0 ,   64 ,    0 ,   92 ,   31 ,   34 ,    5 ,   20 ,   18 ,  187 ,  199 ,    7 ,  128 ,    0 ,    0 ,    0 ,  128 ,    0 ,    0 ,    0 ,    0 ,    9 ,    9 ,    0 ,    0 ,    0 ,    0 ,    0 ,  169 ,   37 ,  187 ,  199 ,   40 ,    8 ,    0 ,  217 ,  147 ,   66 ,  186 ,   54 ,   37 ,  248 ,  219 
E: 000000.316432 64 01 81 7e 81 80 00 00 85 08 00 00 00 62 12 2a eb fa ff ec ff 0f 00 40 00 5c 1f 22 05 14 12 bb c7 07 80 00 00 00 80 00 00 00 00 09 09 00 00 00 00 00 a9 25 bb c7 28 08 00 d9 93 42 ba 36 25 f8 db
# ReportID: 1 / X:  129 | Y:  126 | Z:  129 | Rz:  128 | Rx:    0 | Ry:    0 | 0xff000020:  134 | Hat switch:   8 | Button: 0  0  0  0  0  0  0  0  0  0  0  0  0  0  0 | 0xff000021: 0 , 0 , 0 , 0 , 0 , 0 , 0 , 0 , 0 , 0 , 0 , 0 , 0 | 0xff000022:   99 ,   18 ,   42 ,  235 ,  251 ,  255 ,  236 ,  255 ,   13 ,    0 ,   63 ,    0 ,   22 ,   31 ,    8 ,    5 ,    7 ,   65 ,  187 ,  199 ,    8 ,  128 ,    0 ,    0 ,    0 ,  128 ,    0 ,    0 ,    0 ,    0 ,    9 ,    9 ,    0 ,    0 ,    0 ,    0 ,    0 ,  137 ,   84 ,  187 ,  199 ,   40 ,    8 ,    0 ,  104 ,  213 ,   30 ,  190 ,  198 ,  236 ,   58 ,   93 
E: 000000.320194 64 01 81 7e 81 80 00 00 86 08 00 00 00 63 12 2a eb fb ff ec ff 0d 00 3f 00 16 1f 08 05 07 41 bb c7 08 80 00 00 00 80 00 00 00 00 09 09 00 00 00 00 00 89 54 bb c7 28 08 00 68 d5 1e be c6 ec 3a 5d
# ReportID: 1 / X:  129 | Y:  126 | Z:  129 | Rz:  128 | Rx:    0 | Ry:    0 | 0xff000020:  135 | Hat switch:   8 | Button: 0  0  0  0  0  0  0  0  0  0  0  0  0  0  0 | 0xff000021: 0 , 0 , 0 , 0 , 0 , 0 , 0 , 0 , 0 , 0 , 0 , 0 , 0 | 0xff000022:  100 ,   18 ,   42 ,  235 ,  248 ,  255 ,  237 ,  255 ,   13 ,    0 ,   64 ,    0 ,  127 ,   31 ,   85 ,    5 ,  250 ,  111 ,  187 ,  199 ,    8 ,  128 ,    0 ,    0 ,    0 ,  128 ,    0 ,    0 ,    0 ,    0 ,    9 ,    9 ,    0 ,    0 ,    0 ,    0 ,    0 ,  105 ,  131 ,  187 ,  199 ,   40 ,    8 ,    0 ,  192 ,  221 ,  136 ,   87 ,    2 ,  157 ,  118 ,  206 
E: 000000.323892 64 01 81 7e 81 80 00 00 87 08 00 00 00 64 12 2a eb f8 ff ed ff 0d 00 40 00 7f 1f 55 05 fa 6f bb c7 08 80 00 00 00 80 00 00 00 00 09 09 00 00 00 00 00 69 83 bb c7 28 08 00 c0 dd 88 57 02 9d 76 ce
# ReportID: 1 / X:  129 | Y:  126 | Z:  129 | Rz:  128 | Rx:    0 | Ry:    0 | 0xff000020:  136 | Hat switch:   8 | Button: 0  0  0  0  0  0  0  0  0  0  0  0  0  0  0 | 0xff000021: 0 , 0 , 0 , 0 , 0 , 0 , 0 , 0 , 0 , 0 , 0 , 0 , 0 | 0xff000022:  101 ,   18 ,   42 ,  235 ,  248 ,  255 ,  236 ,  255 ,   14 ,    0 ,   75 ,    0 ,   49 ,   31 ,   31 ,    5 ,  237 ,  158 ,  187 ,  199 ,    7 ,  128 ,    0 ,    0 ,    0 ,  128 ,    0 ,    0 ,    0 ,    0 ,    9 ,    9 ,    0 ,    0 ,    0 ,    0 ,    0 ,   73 ,  178 ,  187 ,  199 ,   40 ,    8 ,    0 ,   87 ,  204 ,  113 ,   87 ,  215 ,   38 ,   34 ,   80 
E: 000000.330091 64 01 81 7e 81 80 00 00 88 08 00 00 00 65 12 2a eb f8 ff ec ff 0e 00 4b 00 31 1f 1f 05 ed 9e bb c7 07 80 00 00 00 80 00 00 00 00 09 09 00 00 00 00 00 49 b2 bb c7 28 08 00 57 cc 71 57 d7 26 22 50
# ReportID: 1 / X:  129 | Y:  126 | Z:  129 | Rz:  128 | Rx:    0 | Ry:    0 | 0xff000020:  137 | Hat switch:   8 | Button: 0  0  0  0  0  0  0  0  0  0  0  0  0  0  0 | 0xff000021: 0 , 0 , 0 , 0 , 0 , 0 , 0 , 0 , 0 , 0 , 0 , 0 , 0 | 0xff000022:  102 ,   18 ,   42 ,  235 ,  249 ,  255 ,  238 ,  255 ,   13 ,    0 ,   57 ,    0 ,  105 ,   31 ,   74 ,    5 ,  224 ,  205 ,  187 ,  199 ,    7 ,  128 ,    0 ,    0 ,    0 ,  128 ,    0 ,    0 ,    0 ,    0 ,    9 ,    9 ,    0 ,    0 ,    0 ,    0 ,    0 ,   41 ,  225 ,  187 ,  199 ,   40 ,    8 ,    0 ,  248 ,  246 ,   21 ,   16 ,  167 ,   24 ,  173 ,   92 
E: 000000.331937 64 01 81 7e 81 80 00 00 89 08 00 00 00 66 12 2a eb f9 ff ee ff 0d 00 39 00 69 1f 4a 05 e0 cd bb c7 07 80 00 00 00 80 00 00 00 00 09 09 00 00 00 00 00 29 e1 bb c7 28 08 00 f8 f6 15 10 a7 18 ad 5c
# ReportID: 1 / X:  129 | Y:  126 | Z:  129 | Rz:  128 | Rx:    0 | Ry:    0 | 0xff000020:  138 | Hat switch:   8 | Button: 0  0  0  0  0  0  0  0  0  0  0  0  0  0  0 | 0xff000021: 0 , 0 , 0 , 0 , 0 , 0 , 0 , 0 , 0 , 0 , 0 , 0 , 0 | 0xff000022:  103 ,   18 ,   42 ,  235 ,  249 ,  255 ,  237 ,  255 ,   12 ,    0 ,   76 ,    0 ,   66 ,   31 ,   51 ,    5 ,  211 ,  252 ,  187 ,  199 ,    7 ,  128 ,    0 ,    0 ,    0 ,  128 ,    0 ,    0 ,    0 ,    0 ,    9 ,    9 ,    0 ,    0 ,    0 ,    0 ,    0 ,    9 ,   16 ,  188 ,  199 ,   40 ,    8 ,    0 ,  162 ,   36 ,  196 ,  120 ,  132 ,  149 ,  124 ,   55 
E: 000000.338129 64 01 81 7e 81 80 00 00 8a 08 00 00 00 67 12 2a eb f9 ff ed ff 0c 00 4c 00 42 1f 33 05 d3 fc bb c7 07 80 00 00 00 80 00 00 00 00 09 09 00 00 00 00 00 09 10 bc c7 28 08 00 a2 24 c4 78 84 95 7c 37
# ReportID: 1 / X:  129 | Y:  126 | Z:  129 | Rz:  128 | Rx:    0 | Ry:    0 | 0xff000020:  139 | Hat switch:   8 | Button: 0  0  0  0  0  0  0  0  0  0  0  0  0  0  0 | 0xff000021: 0 , 0 , 0 , 0 , 0 , 0 , 0 , 0 , 0 , 0 , 0 , 0 , 0 | 0xff000022:  104 ,   18 ,   42 ,  235 ,  247 ,  255 ,  237 ,  255 ,   12 ,    0 ,   70 ,    0 ,   55 ,   31 ,   51 ,    5 ,  198 ,   43 ,  188 ,  199 ,    7 ,  128 ,    0 ,    0 ,    0 ,  128 ,    0 ,    0 ,    0 ,    0 ,    9 ,    9 ,    0 ,    0 ,    0 ,    0 ,    0 ,  233 ,   62 ,  188 ,  199 ,   40 ,    8 ,    0 ,  195 ,  178 ,  176 ,  110 ,    2 ,   87 ,  125 ,  168 
E: 000000.339791 64 01 81 7e 81 80 00 00 8b 08 00 00 00 68 12 2a eb f7 ff ed ff 0c 00 46 00 37 1f 33 05 c6 2b bc c7 07 80 00 00 00 80 00 00 00 00 09 09 00 00 00 00 00 e9 3e bc c7 28 08 00 c3 b2 b0 6e 02 57 7d a8
# ReportID: 1 / X:  129 | Y:  127 | Z:  129 | Rz:  128 | Rx:    0 | Ry:    0 | 0xff000020:  140 | Hat switch:   8 | Button: 0  0  0  0  0  0  0  0  0  0  0  0  0  0  0 | 0xff000021: 0 , 0 , 0 , 0 , 0 , 0 , 0 , 0 , 0 , 0 , 0 , 0 , 0 | 0xff000022:  105 ,   18 ,   42 ,  235 ,  246 ,  255 ,  237 ,  255 ,   11 ,    0 ,   72 ,    0 ,   77 ,   31 ,   59 ,    5 ,  185 ,   90 ,  188 ,  199 ,    7 ,  128 ,    0 ,    0 ,    0 ,  128 ,    0 ,    0 ,    0 ,    0 ,    9 ,    9 ,    0 ,    0 ,    0 ,    0 ,    0 ,  201 ,  109 ,  188 ,  199 ,   40 ,    8 ,    0 ,  204 ,  225 ,  218 ,  135 ,  169 ,  121 ,  162 ,    4 
E: 000000.344766 64 01 81 7f 81 80 00 00 8c 08 00 00 00 69 12 2a eb f6 ff ed ff 0b 00 48 00 4d 1f 3b 05 b9 5a bc c7 07 80 00 00 00 80 00 00 00 00 09 09 00 00 00 00 00 c9 6d bc c7 28 08 00 cc e1 da 87 a9 79 a2 04
# ReportID: 1 / X:  129 | Y:  126 | Z:  129 | Rz:  128 | Rx:    0 | Ry:    0 | 0xff000020:  141 | Hat switch:   8 | Button: 0  0  0  0  0  0  0  0  0  0  0  0  0  0  0 | 0xff000021: 0 , 0 , 0 , 0 , 0 , 0 , 0 , 0 , 0 , 0 , 0 , 0 , 0 | 0xff000022:  106 ,   18 ,   42 ,  235 ,  248 ,  255 ,  238 ,  255 ,   11 ,    0 ,   75 ,    0 ,   74 ,   31 ,   67 ,    5 ,  172 ,  137 ,  188 ,  199 ,    7 ,  128 ,    0 ,    0 ,    0 ,  128 ,    0 ,    0 ,    0 ,    0 ,    9 ,    9 ,    0 ,    0 ,    0 ,    0 ,    0 ,  169 ,  156 ,  188 ,  199 ,   40 ,    8 ,    0 ,  249 ,   80 ,  233 ,  158 ,  132 ,  141 ,  110 ,  253 
E: 000000.348360 64 01 81 7e 81 80 00 00 8d 08 00 00 00 6a 12 2a eb f8 ff ee ff 0b 00 4b 00 4a 1f 43 05 ac 89 bc c7 07 80 00 00 00 80 00 00 00 00 09 09 00 00 00 00 00 a9 9c bc c7 28 08 00 f9 50 e9 9e 84 8d 6e fd
# ReportID: 1 / X:  129 | Y:  126 | Z:  129 | Rz:  128 | Rx:    0 | Ry:    0 | 0xff000020:  142 | Hat switch:   8 | Button: 0  0  0  0  0  0  0  0  0  0  0  0  0  0  0 | 0xff000021: 0 , 0 , 0 , 0 , 0 , 0 , 0 , 0 , 0 , 0 , 0 , 0 , 0 | 0xff000022:  107 ,   18 ,   42 ,  235 ,  249 ,  255 ,  239 ,  255 ,   11 ,    0 ,   67 ,    0 ,   70 ,   31 ,   60 ,    5 ,  159 ,  184 ,  188 ,  199 ,    7 ,  128 ,    0 ,    0 ,    0 ,  128 ,    0 ,    0 ,    0 ,    0 ,    9 ,    9 ,    0 ,    0 ,    0 ,    0 ,    0 ,  137 ,  203 ,  188 ,  199 ,   40 ,    8 ,    0 ,   88 ,   87 ,   99 ,   82 ,   79 ,  122 ,   13 ,  118 
E: 000000.351881 64 01 81 7e 81 80 00 00 8e 08 00 00 00 6b 12 2a eb f9 ff ef ff 0b 00 43 00 46 1f 3c 05 9f b8 bc c7 07 80 00 00 00 80 00 00 00 00 09 09 00 00 00 00 00 89 cb bc c7 28 08 00 58 57 63 52 4f 7a 0d 76
# ReportID: 1 / X:  129 | Y:  126 | Z:  129 | Rz:  128 | Rx:    0 | Ry:    0 | 0xff000020:  143 | Hat switch:   8 | Button: 0  0  0  0  0  0  0  0  0  0  0  0  0  0  0 | 0xff000021: 0 , 0 , 0 , 0 , 0 , 0 , 0 , 0 , 0 , 0 , 0 , 0 , 0 | 0xff000022:  108 ,   18 ,   42 ,  235 ,  246 ,  255 ,  240 ,  255 ,   11 ,    0 ,   69 ,    0 ,   93 ,   31 ,   56 ,    5 ,  146 ,  231 ,  188 ,  199 ,    7 ,  128 ,    0 ,    0 ,    0 ,  128 ,    0 ,    0 ,    0 ,    0 ,    9 ,    9 ,    0 ,    0 ,    0 ,    0 ,    0 ,  105 ,  250 ,  188 ,  199 ,   40 ,    8 ,    0 ,  226 ,  211 ,  119 ,   54 ,  218 ,  133 ,  117 ,  172 
E: 000000.357122 64 01 81 7e 81 80 00 00 8f 08 00 00 00 6c 12 2a eb f6 ff f0 ff 0b 00 45 00 5d 1f 38 05 92 e7 bc c7 07 80 00 00 00 80 00 00 00 00 09 09 00 00 00 00 00 69 fa bc c7 28 08 00 e2 d3 77 36 da 85 75 ac
# ReportID: 1 / X:  129 | Y:  126 | Z:  129 | Rz:  128 | Rx:    0 | Ry:    0 | 0xff000020:  144 | Hat switch:   8 | Button: 0  0  0  0  0  0  0  0  0  0  0  0  0  0  0 | 0xff000021: 0 , 0 , 0 , 0 , 0 , 0 , 0 , 0 , 0 , 0 , 0 , 0 , 0 | 0xff000022:  109 ,   18 ,   42 ,  235 ,  247 ,  255 ,  239 ,  255 ,   11 ,    0 ,   60 ,    0 ,  112 ,   31 ,   67 ,    5 ,  133 ,   22 ,  189 ,  199 ,    7 ,  128 ,    0 ,    0 ,    0 ,  128 ,    0 ,    0 ,    0 ,    0 ,    9 ,    9 ,    0 ,    0 ,    0 ,    0 ,    0 ,   73 ,   41 ,  189 ,  199 ,   40 ,    8 ,    0 ,  150 ,   19 ,  139 ,  194 ,  194 ,    5 ,  199 ,   76 
E: 000000.360783 64 01 81 7e 81 80 00 00 90 08 00 00 00 6d 12 2a eb f7 ff ef ff 0b 00 3c 00 70 1f 43 05 85 16 bd c7 07 80 00 00 00 80 00 00 00 00 09 09 00 00 00 00 00 49 29 bd c7 28 08 00 96 13 8b c2 c2 05 c7 4c
# ReportID: 1 / X:  129 | Y:  126 | Z:  129 | Rz:  128 | Rx:    0 | Ry:    0 | 0xff000020:  145 | Hat switch:   8 | Button: 0  0  0  0  0  0  0  0  0  0  0  0  0  0  0 | 0xff000021: 0 , 0 , 0 , 0 , 0 , 0 , 0 , 0 , 0 , 0 , 0 , 0 , 0 | 0xff000022:  110 ,   18 ,   42 ,  235 ,  249 ,  255 ,  237 ,  255 ,   13 ,    0 ,   52 ,    0 ,   96 ,   31 ,   52 ,    5 ,  120 ,   69 ,  189 ,  199 ,    8 ,  128 ,    0 ,    0 ,    0 ,  128 ,    0 ,    0 ,    0 ,    0 ,    9 ,    9 ,    0 ,    0 ,    0 ,    0 ,    0 ,   41 ,   88 ,  189 ,  199 ,   40 ,    8 ,    0 ,  107 ,  233 ,  101 ,   59 ,   38 ,  231 ,   59 ,  127 
E: 000000.365622 64 01 81 7e 81 80 00 00 91 08 00 00 00 6e 12 2a eb f9 ff ed ff 0d 00 34 00 60 1f 34 05 78 45 bd c7 08 80 00 00 00 80 00 00 00 00 09 09 00 00 00 00 00 29 58 bd c7 28 08 00 6b e9 65 3b 26 e7 3b 7f
# ReportID: 1 / X:  129 | Y:  126 | Z:  129 | Rz:  128 | Rx:    0 | Ry:    0 | 0xff000020:  146 | Hat switch:   8 | Button: 0  0  0  0  0  0  0  0  0  0  0  0  0  0  0 | 0xff000021: 0 , 0 , 0 , 0 , 0 , 0 , 0 , 0 , 0 , 0 , 0 , 0 , 0 | 0xff000022:  111 ,   18 ,   42 ,  235 ,  247 ,  255 ,  239 ,  255 ,   12 ,    0 ,   48 ,    0 ,   67 ,   31 ,   44 ,    5 ,  107 ,  116 ,  189 ,  199 ,    7 ,  128 ,    0 ,    0 ,    0 ,  128 ,    0 ,    0 ,    0 ,    0 ,    9 ,    9 ,    0 ,    0 ,    0 ,    0 ,    0 ,    9 ,  135 ,  189 ,  199 ,   40 ,    8 ,    0 ,   10 ,   83 ,  222 ,  211 ,    7 ,   36 ,   66 ,  155 
E: 000000.367866 64 01 81 7e 81 80 00 00 92 08 00 00 00 6f 12 2a eb f7 ff ef ff 0c 00 30 00 43 1f 2c 05 6b 74 bd c7 07 80 00 00 00 80 00 00 00 00 09 09 00 00 00 00 00 09 87 bd c7 28 08 00 0a 53 de d3 07 24 42 9b
# ReportID: 1 / X:  129 | Y:  126 | Z:  129 | Rz:  128 | Rx:    0 | Ry:    0 | 0xff000020:  147 | Hat switch:   8 | Button: 0  0  0  0  0  0  0  0  0  0  0  0  0  0  0 | 0xff000021: 0 , 0 , 0 , 0 , 0 , 0 , 0 , 0 , 0 , 0 , 0 , 0 , 0 | 0xff000022:  112 ,   18 ,   42 ,  235 ,  248 ,  255 ,  238 ,  255 ,   11 ,    0 ,   45 ,    0 ,   91 ,   31 ,   40 ,    5 ,   94 ,  163 ,  189 ,  199 ,    7 ,  128 ,    0 ,    0 ,    0 ,  128 ,    0 ,    0 ,    0 ,    0 ,    9 ,    9 ,    0 ,    0 ,    0 ,    0 ,    0 ,  233 ,  181 ,  189 ,  199 ,   40 ,    8 ,    0 ,  250 ,  158 ,   73 ,  254 ,   37 ,   32 ,  133 ,  187 
E: 000000.372175 64 01 81 7e 81 80 00 00 93 08 00 00 00 70 12 2a eb f8 ff ee ff 0b 00 2d 00 5b 1f 28 05 5e a3 bd c7 07 80 00 00 00 80 00 00 00 00 09 09 00 00 00 00 00 e9 b5 bd c7 28 08 00 fa 9e 49 fe 25 20 85 bb
# ReportID: 1 / X:  129 | Y:  126 | Z:  129 | Rz:  128 | Rx:    0 | Ry:    0 | 0xff000020:  148 | Hat switch:   8 | Button: 0  0  0  0  0  0  0  0  0  0  0  0  0  0  0 | 0xff000021: 0 , 0 , 0 , 0 , 0 , 0 , 0 , 0 , 0 , 0 , 0 , 0 , 0 | 0xff000022:  113 ,   18 ,   42 ,  235 ,  248 ,  255 ,  237 ,  255 ,   12 ,    0 ,   39 ,    0 ,  101 ,   31 ,   49 ,    5 ,   81 ,  210 ,  189 ,  199 ,    7 ,  128 ,    0 ,    0 ,    0 ,  128 ,    0 ,    0 ,    0 ,    0 ,    9 ,    9 ,    0 ,    0 ,    0 ,    0 ,    0 ,  201 ,  228 ,  189 ,  199 ,   40 ,    8 ,    0 ,  235 ,  134 ,  203 ,   33 ,  160 ,  119 ,  213 ,  100 
E: 000000.375996 64 01 81 7e 81 80 00 00 94 08 00 00 00 71 12 2a eb f8 ff ed ff 0c 00 27 00 65 1f 31 05 51 d2 bd c7 07 80 00 00 00 80 00 00 00 00 09 09 00 00 00 00 00 c9 e4 bd c7 28 08 00 eb 86 cb 21 a0 77 d5 64
# ReportID: 1 / X:  129 | Y:  126 | Z:  129 | Rz:  128 | Rx:    0 | Ry:    0 | 0xff000020:  149 | Hat switch:   8 | Button: 0  0  0  0  0  0  0  0  0  0  0  0  0  0  0 | 0xff000021: 0 , 0 , 0 , 0 , 0 , 0 , 0 , 0 , 0 , 0 , 0 , 0 , 0 | 0xff000022:  114 ,   18 ,   42 ,  235 ,  250 ,  255 ,  237 ,  255 ,   12 ,    0 ,   38 ,    0 ,  134 ,   31 ,   76 ,    5 ,   68 ,    1 ,  190 ,  199 ,    7 ,  128 ,    0 ,    0 ,    0 ,  128 ,    0 ,    0 ,    0 ,    0 ,    9 ,    9 ,    0 ,    0 ,    0 ,    0 ,    0 ,  169 ,   19 ,  190 ,  199 ,   40 ,    8 ,    0 ,  222 ,  100 ,  104 ,    9 ,  198 ,  172 ,  251 ,  178 
E: 000000.379956 64 01 81 7e 81 80 00 00 95 08 00 00 00 72 12 2a eb fa ff ed ff 0c 00 26 00 86 1f 4c 05 44 01 be c7 07 80 00 00 00 80 00 00 00 00 09 09 00 00 00 00 00 a9 13 be c7 28 08 00 de 64 68 09 c6 ac fb b2
# ReportID: 1 / X:  129 | Y:  126 | Z:  129 | Rz:  128 | Rx:    0 | Ry:    0 | 0xff000020:  150 | Hat switch:   8 | Button: 0  0  0  0  0  0  0  0  0  0  0  0  0  0  0 | 0xff000021: 0 , 0 , 0 , 0 , 0 , 0 , 0 , 0 , 0 , 0 , 0 , 0 , 0 | 0xff000022:  115 ,   18 ,   42 ,  235 ,  254 ,  255 ,  235 ,  255 ,   20 ,    0 ,   77 ,    0 ,  237 ,   31 ,  132 ,    5 ,   55 ,   48 ,  190 ,  199 ,    7 ,  128 ,    0 ,    0 ,    0 ,  128 ,    0 ,    0 ,    0 ,    0 ,    9 ,    9 ,    0 ,    0 ,    0 ,    0 ,    0 ,  137 ,   66 ,  190 ,  199 ,   40 ,    8 ,    0 ,  175 ,  214 ,  196 ,   66 ,   85 ,   95 ,   68 ,   93 
E: 000000.384295 64 01 81 7e 81 80 00 00 96 08 00 00 00 73 12 2a eb fe ff eb ff 14 00 4d 00 ed 1f 84 05 37 30 be c7 07 80 00 00 00 80 00 00 00 00 09 09 00 00 00 00 00 89 42 be c7 28 08 00 af d6 c4 42 55 5f 44 5d
# ReportID: 1 / X:  129 | Y:  126 | Z:  129 | Rz:  128 | Rx:    0 | Ry:    0 | 0xff000020:  151 | Hat switch:   8 | Button: 0  0  0  0  0  0  0  0  0  0  0  0  0  0  0 | 0xff000021: 0 , 0 , 0 , 0 , 0 , 0 , 0 , 0 , 0 , 0 , 0 , 0 , 0 | 0xff000022:  116 ,   18 ,   42 ,  235 ,    5 ,    0 ,  230 ,  255 ,   24 ,    0 ,  239 ,  255 ,   81 ,   31 ,   36 ,    5 ,   42 ,   95 ,  190 ,  199 ,    7 ,  128 ,    0 ,    0 ,    0 ,  128 ,    0 ,    0 ,    0 ,    0 ,    9 ,    9 ,    0 ,    0 ,    0 ,    0 ,    0 ,  105 ,  113 ,  190 ,  199 ,   40 ,    8 ,    0 ,   98 ,   49 ,  252 ,  238 ,  178 ,   59 ,  195 ,   31 
E: 000000.387907 64 01 81 7e 81 80 00 00 97 08 00 00 00 74 12 2a eb 05 00 e6 ff 18 00 ef ff 51 1f 24 05 2a 5f be c7 07 80 00 00 00 80 00 00 00 00 09 09 00 00 00 00 00 69 71 be c7 28 08 00 62 31 fc ee b2 3b c3 1f
# ReportID: 1 / X:  129 | Y:  126 | Z:  129 | Rz:  128 | Rx:    0 | Ry:    0 | 0xff000020:  152 | Hat switch:   8 | Button: 0  0  0  0  0  0  0  0  0  0  0  0  0  0  0 | 0xff000021: 0 , 0 , 0 , 0 , 0 , 0 , 0 , 0 , 0 , 0 , 0 , 0 , 0 | 0xff000022:  117 ,   18 ,   42 ,  235 ,    4 ,    0 ,  233 ,  255 ,   22 ,    0 ,  247 ,  255 ,   48 ,   31 ,   42 ,    5 ,   29 ,  142 ,  190 ,  199 ,    8 ,  128 ,    0 ,    0 ,    0 ,  128 ,    0 ,    0 ,    0 ,    0 ,    9 ,    9 ,    0 ,    0 ,    0 ,    0 ,    0 ,   73 ,  160 ,  190 ,  199 ,   40 ,    8 ,    0 ,  202 ,  195 ,   34 ,  117 ,   77 ,  247 ,  228 ,  142 
E: 000000.391955 64 01 81 7e 81 80 00 00 98 08 00 00 00 75 12 2a eb 04 00 e9 ff 16 00 f7 ff 30 1f 2a 05 1d 8e be c7 08 80 00 00 00 80 00 00 00 00 09 09 00 00 00 00 00 49 a0 be c7 28 08 00 ca c3 22 75 4d f7 e4 8e
# ReportID: 1 / X:  129 | Y:  126 | Z:  129 | Rz:  128 | Rx:    0 | Ry:    0 | 0xff000020:  153 | Hat switch:   8 | Button: 0  0  0  0  0  0  0  0  0  0  0  0  0  0  0 | 0xff000021: 0 , 0 , 0 , 0 , 0 , 0 , 0 , 0 , 0 , 0 , 0 , 0 , 0 | 0xff000022:  118 ,   18 ,   42 ,  235 ,    1 ,    0 ,  233 ,  255 ,   21 ,    0 ,  105 ,    0 ,   37 ,   31 ,    0 ,    5 ,   16 ,  189 ,  190 ,  199 ,    7 ,  128 ,    0 ,    0 ,    0 ,  128 ,    0 ,    0 ,    0 ,    0 ,    9 ,    9 ,    0 ,    0 ,    0 ,    0 ,    0 ,   41 ,  207 ,  190 ,  199 ,   40 ,    8 ,    0 ,  108 ,   73 ,  127 ,   80 ,    5 ,  153 ,   14 ,  227 
E: 000000.396009 64 01 81 7e 81 80 00 00 99 08 00 00 00 76 12 2a eb 01 00 e9 ff 15 00 69 00 25 1f 00 05 10 bd be c7 07 80 00 00 00 80 00 00 00 00 09 09 00 00 00 00 00 29 cf be c7 28 08 00 6c 49 7f 50 05 99 0e e3
# ReportID: 1 / X:  129 | Y:  126 | Z:  129 | Rz:  128 | Rx:    0 | Ry:    0 | 0xff000020:  154 | Hat switch:   8 | Button: 0  0  0  0  0  0  0  0  0  0  0  0  0  0  0 | 0xff000021: 0 , 0 , 0 , 0 , 0 , 0 , 0 , 0 , 0 , 0 , 0 , 0 , 0 | 0xff000022:  119 ,   18 ,   42 ,  235 ,  255 ,  255 ,  234 ,  255 ,   20 ,    0 ,   37 ,    0 ,  161 ,   31 ,   97 ,    5 ,    3 ,  236 ,  190 ,  199 ,    7 ,  128 ,    0 ,    0 ,    0 ,  128 ,    0 ,    0 ,    0 ,    0 ,    9 ,    9 ,    0 ,    0 ,    0 ,    0 ,    0 ,    9 ,  254 ,  190 ,  199 ,   40 ,    8 ,    0 ,  241 ,   58 ,  149 ,  116 ,  194 ,  146 ,   53 ,  191 
E: 000000.399904 64 01 81 7e 81 80 00 00 9a 08 00 00 00 77 12 2a eb ff ff ea ff 14 00 25 00 a1 1f 61 05 03 ec be c7 07 80 00 00 00 80 00 00 00 00 09 09 00 00 00 00 00 09 fe be c7 28 08 00 f1 3a 95 74 c2 92 35 bf
# ReportID: 1 / X:  129 | Y:  126 | Z:  129 | Rz:  128 | Rx:    0 | Ry:    0 | 0xff000020:  155 | Hat switch:   8 | Button: 0  0  0  0  0  0  0  0  0  0  0  0  0  0  0 | 0xff000021: 0 , 0 , 0 , 0 , 0 , 0 , 0 , 0 , 0 , 0 , 0 , 0 , 0 | 0xff000022:  120 ,   18 ,   42 ,  235 ,    3 ,    0 ,  234 ,  255 ,   23 ,    0 ,   74 ,    0 ,  180 ,   31 ,   99 ,    5 ,  246 ,   26 ,  191 ,  199 ,    7 ,  128 ,    0 ,    0 ,    0 ,  128 ,    0 ,    0 ,    0 ,    0 ,    9 ,    9 ,    0 ,    0 ,    0 ,    0 ,    0 ,  233 ,   44 ,  191 ,  199 ,   40 ,    8 ,    0 ,   89 ,  236 ,   19 ,  152 ,   90 ,  191 ,    1 ,  250 
E: 000000.406173 64 01 81 7e 81 80 00 00 9b 08 00 00 00 78 12 2a eb 03 00 ea ff 17 00 4a 00 b4 1f 63 05 f6 1a bf c7 07 80 00 00 00 80 00 00 00 00 09 09 00 00 00 00 00 e9 2c bf c7 28 08 00 59 ec 13 98 5a bf 01 fa
# ReportID: 1 / X:  129 | Y:  126 | Z:  129 | Rz:  128 | Rx:    0 | Ry:    0 | 0xff000020:  156 | Hat switch:   8 | Button: 0  0  0  0  0  0  0  0  0  0  0  0  0  0  0 | 0xff000021: 0 , 0 , 0 , 0 , 0 , 0 , 0 , 0 , 0 , 0 , 0 , 0 , 0 | 0xff000022:  121 ,   18 ,   42 ,  235 ,   12 ,    0 ,  231 ,  255 ,   26 ,    0 ,   17 ,    0 ,  133 ,   31 ,   82 ,    5 ,  233 ,   73 ,  191 ,  199 ,    7 ,  128 ,    0 ,    0 ,    0 ,  128 ,    0 ,    0 ,    0 ,    0 ,    9 ,    9 ,    0 ,    0 ,    0 ,    0 ,    0 ,  201 ,   91 ,  191 ,  199 ,   40 ,    8 ,    0 ,   88 ,   25 ,  203 ,  116 ,   47 ,  243 ,  250 ,  254 
E: 000000.407848 64 01 81 7e 81 80 00 00 9c 08 00 00 00 79 12 2a eb 0c 00 e7 ff 1a 00 11 00 85 1f 52 05 e9 49 bf c7 07 80 00 00 00 80 00 00 00 00 09 09 00 00 00 00 00 c9 5b bf c7 28 08 00 58 19 cb 74 2f f3 fa fe
# ReportID: 1 / X:  129 | Y:  126 | Z:  129 | Rz:  128 | Rx:    0 | Ry:    0 | 0xff000020:  157 | Hat switch:   8 | Button: 0  0  0  0  0  0  0  0  0  0  0  0  0  0  0 | 0xff000021: 0 , 0 , 0 , 0 , 0 , 0 , 0 , 0 , 0 , 0 , 0 , 0 , 0 | 0xff000022:  122 ,   18 ,   42 ,  235 ,    8 ,    0 ,  235 ,  255 ,   18 ,    0 ,   43 ,    0 ,  221 ,   30 ,  232 ,    4 ,  220 ,  120 ,  191 ,  199 ,    7 ,  128 ,    0 ,    0 ,    0 ,  128 ,    0 ,    0 ,    0 ,    0 ,    9 ,    9 ,    0 ,    0 ,    0 ,    0 ,    0 ,  169 ,  138 ,  191 ,  199 ,   40 ,    8 ,    0 ,  161 ,   99 ,  235 ,  249 ,  109 ,  217 ,   50 ,  179 
E: 000000.412779 64 01 81 7e 81 80 00 00 9d 08 00 00 00 7a 12 2a eb 08 00 eb ff 12 00 2b 00 dd 1e e8 04 dc 78 bf c7 07 80 00 00 00 80 00 00 00 00 09 09 00 00 00 00 00 a9 8a bf c7 28 08 00 a1 63 eb f9 6d d9 32 b3
# ReportID: 1 / X:  129 | Y:  126 | Z:  129 | Rz:  128 | Rx:    0 | Ry:    0 | 0xff000020:  158 | Hat switch:   8 | Button: 0  0  0  0  0  0  0  0  0  0  0  0  0  0  0 | 0xff000021: 0 , 0 , 0 , 0 , 0 , 0 , 0 , 0 , 0 , 0 , 0 , 0 , 0 | 0xff000022:  123 ,   18 ,   42 ,  235 ,  255 ,  255 ,  236 ,  255 ,   18 ,    0 ,   90 ,    0 ,   74 ,   31 ,   40 ,    5 ,  207 ,  167 ,  191 ,  199 ,    7 ,  128 ,    0 ,    0 ,    0 ,  128 ,    0 ,    0 ,    0 ,    0 ,    9 ,    9 ,    0 ,    0 ,    0 ,    0 ,    0 ,  137 ,  185 ,  191 ,  199 ,   40 ,    8 ,    0 ,  147 ,  137 ,  249 ,   98 ,   74 ,  228 ,  123 ,  104 
E: 000000.415876 64 01 81 7e 81 80 00 00 9e 08 00 00 00 7b 12 2a eb ff ff ec ff 12 00 5a 00 4a 1f 28 05 cf a7 bf c7 07 80 00 00 00 80 00 00 00 00 09 09 00 00 00 00 00 89 b9 bf c7 28 08 00 93 89 f9 62 4a e4 7b 68
# ReportID: 1 / X:  129 | Y:  126 | Z:  129 | Rz:  128 | Rx:    0 | Ry:    0 | 0xff000020:  159 | Hat switch:   8 | Button: 0  0  0  0  0  0  0  0  0  0  0  0  0  0  0 | 0xff000021: 0 , 0 , 0 , 0 , 0 , 0 , 0 , 0 , 0 , 0 , 0 , 0 , 0 | 0xff000022:  124 ,   18 ,   42 ,  235 ,    2 ,    0 ,  235 ,  255 ,   20 ,    0 ,   65 ,    0 ,  196 ,   31 ,  138 ,    5 ,  194 ,  214 ,  191 ,  199 ,    7 ,  128 ,    0 ,    0 ,    0 ,  128 ,    0 ,    0 ,    0 ,    0 ,    9 ,    9 ,    0 ,    0 ,    0 ,    0 ,    0 ,  105 ,  232 ,  191 ,  199 ,   40 ,    8 ,    0 ,   53 ,   42 ,  137 ,  219 ,  128 ,  190 ,   70 ,  201 
E: 000000.422117 64 01 81 7e 81 80 00 00 9f 08 00 00 00 7c 12 2a eb 02 00 eb ff 14 00 41 00 c4 1f 8a 05 c2 d6 bf c7 07 80 00 00 00 80 00 00 00 00 09 09 00 00 00 00 00 69 e8 bf c7 28 08 00 35 2a 89 db 80 be 46 c9
# ReportID: 1 / X:  129 | Y:  126 | Z:  129 | Rz:  128 | Rx:    0 | Ry:    0 | 0xff000020:  160 | Hat switch:   8 | Button: 0  0  0  0  0  0  0  0  0  0  0  0  0  0  0 | 0xff000021: 0 , 0 , 0 , 0 , 0 , 0 , 0 , 0 , 0 , 0 , 0 , 0 , 0 | 0xff000022:  125 ,   18 ,   42 ,  235 ,   15 ,    0 ,  235 ,  255 ,   21 ,    0 ,   49 ,    0 ,   75 ,   31 ,   48 ,    5 ,  181 ,    5 ,  192 ,  199 ,    7 ,  128 ,    0 ,    0 ,    0 ,  128 ,    0 ,    0 ,    0 ,    0 ,    9 ,    9 ,    0 ,    0 ,    0 ,    0 ,    0 ,   73 ,   23 ,  192 ,  199 ,   40 ,    8 ,    0 ,   83 ,  181 ,  111 ,   26 ,    5 ,   14 ,   45 ,   51 
E: 000000.425763 64 01 81 7e 81 80 00 00 a0 08 00 00 00 7d 12 2a eb 0f 00 eb ff 15 00 31 00 4b 1f 30 05 b5 05 c0 c7 07 80 00 00 00 80 00 00 00 00 09 09 00 00 00 00 00 49 17 c0 c7 28 08 00 53 b5 6f 1a 05 0e 2d 33
# ReportID: 1 / X:  129 | Y:  126 | Z:  129 | Rz:  128 | Rx:    0 | Ry:    0 | 0xff000020:  161 | Hat switch:   8 | Button: 0  0  0  0  0  0  0  0  0  0  0  0  0  0  0 | 0xff000021: 0 , 0 , 0 , 0 , 0 , 0 , 0 , 0 , 0 , 0 , 0 , 0 , 0 | 0xff000022:  126 ,   18 ,   42 ,  235 ,    6 ,    0 ,  237 ,  255 ,   18 ,    0 ,   66 ,    0 ,  139 ,   30 ,  157 ,    4 ,  202 ,   46 ,  192 ,  199 ,    8 ,  128 ,    0 ,    0 ,    0 ,  128 ,    0 ,    0 ,    0 ,    0 ,    9 ,    9 ,    0 ,    0 ,    0 ,    0 ,    0 ,   41 ,   70 ,  192 ,  199 ,   40 ,    8 ,    0 ,  171 ,  115 ,  141 ,  245 ,  226 ,   21 ,  147 ,    1 
E: 000000.429367 64 01 81 7e 81 80 00 00 a1 08 00 00 00 7e 12 2a eb 06 00 ed ff 12 00 42 00 8b 1e 9d 04 ca 2e c0 c7 08 80 00 00 00 80 00 00 00 00 09 09 00 00 00 00 00 29 46 c0 c7 28 08 00 ab 73 8d f5 e2 15 93 01
