# Sony Interactive Entertainment DualSense Wireless Controller
# 0x05, 0x01,                    // Usage Page (Generic Desktop)        0
# 0x09, 0x05,                    // Usage (Game Pad)                    2
# 0xa1, 0x01,                    // Collection (Application)            4
# 0x85, 0x01,                    //  Report ID (1)                      6
# 0x09, 0x30,                    //  Usage (X)                          8
# 0x09, 0x31,                    //  Usage (Y)                          10
# 0x09, 0x32,                    //  Usage (Z)                          12
# 0x09, 0x35,                    //  Usage (Rz)                         14
# 0x09, 0x33,                    //  Usage (Rx)                         16
# 0x09, 0x34,                    //  Usage (Ry)                         18
# 0x15, 0x00,                    //  Logical Minimum (0)                20
# 0x26, 0xff, 0x00,              //  Logical Maximum (255)              22
# 0x75, 0x08,                    //  Report Size (8)                    25
# 0x95, 0x06,                    //  Report Count (6)                   27
# 0x81, 0x02,                    //  Input (Data,Var,Abs)               29
# 0x06, 0x00, 0xff,              //  Usage Page (Vendor Defined Page 1) 31
# 0x09, 0x20,                    //  Usage (Vendor Usage 0x20)          34
# 0x95, 0x01,                    //  Report Count (1)                   36
# 0x81, 0x02,                    //  Input (Data,Var,Abs)               38
# 0x05, 0x01,                    //  Usage Page (Generic Desktop)       40
# 0x09, 0x39,                    //  Usage (Hat switch)                 42
# 0x15, 0x00,                    //  Logical Minimum (0)                44
# 0x25, 0x07,                    //  Logical Maximum (7)                46
# 0x35, 0x00,                    //  Physical Minimum (0)               48
# 0x46, 0x3b, 0x01,              //  Physical Maximum (315)             50
# 0x65, 0x14,                    //  Unit (EnglishRotation: deg)        53
# 0x75, 0x04,                    //  Report Size (4)                    55
# 0x95, 0x01,                    //  Report Count (1)                   57
# 0x81, 0x42,                    //  Input (Data,Var,Abs,Null)          59
# 0x65, 0x00,                    //  Unit (None)                        61
# 0x05, 0x09,                    //  Usage Page (Button)                63
# 0x19, 0x01,                    //  Usage Minimum (1)                  65
# 0x29, 0x0f,                    //  Usage Maximum (15)                 67
# 0x15, 0x00,                    //  Logical Minimum (0)                69
# 0x25, 0x01,                    //  Logical Maximum (1)                71
# 0x75, 0x01,                    //  Report Size (1)                    73
# 0x95, 0x0f,                    //  Report Count (15)                  75
# 0x81, 0x02,                    //  Input (Data,Var,Abs)               77
# 0x06, 0x00, 0xff,              //  Usage Page (Vendor Defined Page 1) 79
# 0x09, 0x21,                    //  Usage (Vendor Usage 0x21)          82
# 0x95, 0x0d,                    //  Report Count (13)                  84
# 0x81, 0x02,                    //  Input (Data,Var,Abs)               86
# 0x06, 0x00, 0xff,              //  Usage Page (Vendor Defined Page 1) 88
# 0x09, 0x22,                    //  Usage (Vendor Usage 0x22)          91
# 0x15, 0x00,                    //  Logical Minimum (0)                93
# 0x26, 0xff, 0x00,              //  Logical Maximum (255)              95
# 0x75, 0x08,                    //  Report Size (8)                    98
# 0x95, 0x34,                    //  Report Count (52)                  100
# 0x81, 0x02,                    //  Input (Data,Var,Abs)               102
# 0x85, 0x02,                    //  Report ID (2)                      104
# 0x09, 0x23,                    //  Usage (Vendor Usage 0x23)          106
# 0x95, 0x2f,                    //  Report Count (47)                  108
# 0x91, 0x02,                    //  Output (Data,Var,Abs)              110
# 0x85, 0x05,                    //  Report ID (5)                      112
# 0x09, 0x33,                    //  Usage (Vendor Usage 0x33)          114
# 0x95, 0x28,                    //  Report Count (40)                  116
# 0xb1, 0x02,                    //  Feature (Data,Var,Abs)             118
# 0x85, 0x08,                    //  Report ID (8)                      120
# 0x09, 0x34,                    //  Usage (Vendor Usage 0x34)          122
# 0x95, 0x2f,                    //  Report Count (47)                  124
# 0xb1, 0x02,                    //  Feature (Data,Var,Abs)             126
# 0x85, 0x09,                    //  Report ID (9)                      128
# 0x09, 0x24,                    //  Usage (Vendor Usage 0x24)          130
# 0x95, 0x13,                    //  Report Count (19)                  132
# 0xb1, 0x02,                    //  Feature (Data,Var,Abs)             134
# 0x85, 0x0a,                    //  Report ID (10)                     136
# 0x09, 0x25,                    //  Usage (Vendor Usage 0x25)          138
# 0x95, 0x1a,                    //  Report Count (26)                  140
# 0xb1, 0x02,                    //  Feature (Data,Var,Abs)             142
# 0x85, 0x20,                    //  Report ID (32)                     144
# 0x09, 0x26,                    //  Usage (Vendor Usage 0x26)          146
# 0x95, 0x3f,                    //  Report Count (63)                  148
# 0xb1, 0x02,                    //  Feature (Data,Var,Abs)             150
# 0x85, 0x21,                    //  Report ID (33)                     152
# 0x09, 0x27,                    //  Usage (Vendor Usage 0x27)          154
# 0x95, 0x04,                    //  Report Count (4)                   156
# 0xb1, 0x02,                    //  Feature (Data,Var,Abs)             158
# 0x85, 0x22,                    //  Report ID (34)                     160
# 0x09, 0x40,                    //  Usage (Vendor Usage 0x40)          162
# 0x95, 0x3f,                    //  Report Count (63)                  164
# 0xb1, 0x02,                    //  Feature (Data,Var,Abs)             166
# 0x85, 0x80,                    //  Report ID (128)                    168
# 0x09, 0x28,                    //  Usage (Vendor Usage 0x28)          170
# 0x95, 0x3f,                    //  Report Count (63)                  172
# 0xb1, 0x02,                    //  Feature (Data,Var,Abs)             174
# 0x85, 0x81,                    //  Report ID (129)                    176
# 0x09, 0x29,                    //  Usage (Vendor Usage 0x29)          178
# 0x95, 0x3f,                    //  Report Count (63)                  180
# 0xb1, 0x02,                    //  Feature (Data,Var,Abs)             182
# 0x85, 0x82,                    //  Report ID (130)                    184
# 0x09, 0x2a,                    //  Usage (Vendor Usage 0x2a)          186
# 0x95, 0x09,                    //  Report Count (9)                   188
# 0xb1, 0x02,                    //  Feature (Data,Var,Abs)             190
# 0x85, 0x83,                    //  Report ID (131)                    192
# 0x09, 0x2b,                    //  Usage (Vendor Usage 0x2b)          194
# 0x95, 0x3f,                    //  Report Count (63)                  196
# 0xb1, 0x02,                    //  Feature (Data,Var,Abs)             198
# 0x85, 0x84,                    //  Report ID (132)                    200
# 0x09, 0x2c,                    //  Usage (Vendor Usage 0x2c)          202
# 0x95, 0x3f,                    //  Report Count (63)                  204
# 0xb1, 0x02,                    //  Feature (Data,Var,Abs)             206
# 0x85, 0x85,                    //  Report ID (133)                    208
# 0x09, 0x2d,                    //  Usage (Vendor Usage 0x2d)          210
# 0x95, 0x02,                    //  Report Count (2)                   212
# 0xb1, 0x02,                    //  Feature (Data,Var,Abs)             214
# 0x85, 0xa0,                    //  Report ID (160)                    216
# 0x09, 0x2e,                    //  Usage (Vendor Usage 0x2e)          218
# 0x95, 0x01,                    //  Report Count (1)                   220
# 0xb1, 0x02,                    //  Feature (Data,Var,Abs)             222
# 0x85, 0xe0,                    //  Report ID (224)                    224
# 0x09, 0x2f,                    //  Usage (Vendor Usage 0x2f)          226
# 0x95, 0x3f,                    //  Report Count (63)                  228
# 0xb1, 0x02,                    //  Feature (Data,Var,Abs)             230
# 0x85, 0xf0,                    //  Report ID (240)                    232
# 0x09, 0x30,                    //  Usage (Vendor Usage 0x30)          234
# 0x95, 0x3f,                    //  Report Count (63)                  236
# 0xb1, 0x02,                    //  Feature (Data,Var,Abs)             238
# 0x85, 0xf1,                    //  Report ID (241)                    240
# 0x09, 0x31,                    //  Usage (Vendor Usage 0x31)          242
# 0x95, 0x3f,                    //  Report Count (63)                  244
# 0xb1, 0x02,                    //  Feature (Data,Var,Abs)             246
# 0x85, 0xf2,                    //  Report ID (242)                    248
# 0x09, 0x32,                    //  Usage (Vendor Usage 0x32)          250
# 0x95, 0x0f,                    //  Report Count (15)                  252
# 0xb1, 0x02,                    //  Feature (Data,Var,Abs)             254
# 0x85, 0xf4,                    //  Report ID (244)                    256
# 0x09, 0x35,                    //  Usage (Vendor Usage 0x35)          258
# 0x95, 0x3f,                    //  Report Count (63)                  260
# 0xb1, 0x02,                    //  Feature (Data,Var,Abs)             262
# 0x85, 0xf5,                    //  Report ID (245)                    264
# 0x09, 0x36,                    //  Usage (Vendor Usage 0x36)          266
# 0x95, 0x03,                    //  Report Count (3)                   268
# 0xb1, 0x02,                    //  Feature (Data,Var,Abs)             270
# 0xc0,                          // End Collection                      272
# 
R: 273 05 01 09 05 a1 01 85 01 09 30 09 31 09 32 09 35 09 33 09 34 15 00 26 ff 00 75 08 95 06 81 02 06 00 ff 09 20 95 01 81 02 05 01 09 39 15 00 25 07 35 00 46 3b 01 65 14 75 04 95 01 81 42 65 00 05 09 19 01 29 0f 15 00 25 01 75 01 95 0f 81 02 06 00 ff 09 21 95 0d 81 02 06 00 ff 09 22 15 00 26 ff 00 75 08 95 34 81 02 85 02 09 23 95 2f 91 02 85 05 09 33 95 28 b1 02 85 08 09 34 95 2f b1 02 85 09 09 24 95 13 b1 02 85 0a 09 25 95 1a b1 02 85 20 09 26 95 3f b1 02 85 21 09 27 95 04 b1 02 85 22 09 40 95 3f b1 02 85 80 09 28 95 3f b1 02 85 81 09 29 95 3f b1 02 85 82 09 2a 95 09 b1 02 85 83 09 2b 95 3f b1 02 85 84 09 2c 95 3f b1 02 85 85 09 2d 95 02 b1 02 85 a0 09 2e 95 01 b1 02 85 e0 09 2f 95 3f b1 02 85 f0 09 30 95 3f b1 02 85 f1 09 31 95 3f b1 02 85 f2 09 32 95 0f b1 02 85 f4 09 35 95 3f b1 02 85 f5 09 36 95 03 b1 02 c0
N: Sony Interactive Entertainment DualSense Wireless Controller
I: 3 054c 0ce6
# ReportID: 1 / X:  129 | Y:  126 | Z:  129 | Rz:  128 | Rx:    0 | Ry:    0 | 0xff000020:  183 | Hat switch:   8 | Button: 0  0  0  0  0  0  0  0  0  0  0  0  0  0  0 | 0xff000021: 0 , 0 , 0 , 0 , 0 , 0 , 0 , 0 , 0 , 0 , 0 , 0 , 0 | 0xff000022:  148 ,   27 ,   42 ,  235 ,  248 ,  255 ,  239 ,  255 ,    9 ,    0 ,   38 ,    0 ,  243 ,   30 ,   56 ,    5 ,  173 ,   24 ,  106 ,  201 ,    8 ,  128 ,    0 ,    0 ,    0 ,  128 ,    0 ,    0 ,    0 ,    0 ,    9 ,    9 ,    0 ,    0 ,    0 ,    0 ,    0 ,  105 ,   45 ,  106 ,  201 ,   40 ,    8 ,    0 ,  166 ,  186 ,  251 ,  212 ,  197 ,  134 ,   84 ,   88 
E: 000000.000000 64 01 81 7e 81 80 00 00 b7 08 00 00 00 94 1b 2a eb f8 ff ef ff 09 00 26 00 f3 1e 38 05 ad 18 6a c9 08 80 00 00 00 80 00 00 00 00 09 09 00 00 00 00 00 69 2d 6a c9 28 08 00 a6 ba fb d4 c5 86 54 58
# ReportID: 1 / X:  129 | Y:  126 | Z:  129 | Rz:  128 | Rx:    0 | Ry:    0 | 0xff000020:  184 | Hat switch:   8 | Button: 0  0  0  0  0  0  0  0  0  0  0  0  0  0  0 | 0xff000021: 0 , 0 , 0 , 0 , 0 , 0 , 0 , 0 , 0 , 0 , 0 , 0 , 0 | 0xff000022:  149 ,   27 ,   42 ,  235 ,  247 ,  255 ,  239 ,  255 ,    9 ,    0 ,   35 ,    0 ,    5 ,   31 ,   51 ,    5 ,  160 ,   71 ,  106 ,  201 ,    8 ,  128 ,    0 ,    0 ,    0 ,  128 ,    0 ,    0 ,    0 ,    0 ,    9 ,    9 ,    0 ,    0 ,    0 ,    0 ,    0 ,   73 ,   92 ,  106 ,  201 ,   40 ,    8 ,    0 ,   65 ,  157 ,  175 ,  191 ,  115 ,  251 ,  160 ,  196 
E: 000000.000481 64 01 81 7e 81 80 00 00 b8 08 00 00 00 95 1b 2a eb f7 ff ef ff 09 00 23 00 05 1f 33 05 a0 47 6a c9 08 80 00 00 00 80 00 00 00 00 09 09 00 00 00 00 00 49 5c 6a c9 28 08 00 41 9d af bf 73 fb a0 c4
# ReportID: 1 / X:  129 | Y:  126 | Z:  129 | Rz:  128 | Rx:    0 | Ry:    0 | 0xff000020:  185 | Hat switch:   8 | Button: 0  0  0  0  0  0  0  0  0  0  0  0  0  0  0 | 0xff000021: 0 , 0 , 0 , 0 , 0 , 0 , 0 , 0 , 0 , 0 , 0 , 0 , 0 | 0xff000022:  150 ,   27 ,   42 ,  235 ,  246 ,  255 ,  240 ,  255 ,   11 ,    0 ,   55 ,    0 ,  252 ,   31 ,  112 ,    5 ,  147 ,  118 ,  106 ,  201 ,    8 ,  128 ,    0 ,    0 ,    0 ,  128 ,    0 ,    0 ,    0 ,    0 ,    9 ,    9 ,    0 ,    0 ,    0 ,    0 ,    0 ,   41 ,  139 ,  106 ,  201 ,   40 ,    8 ,    0 ,  202 ,   82 ,    0 ,  217 ,  117 ,  227 ,  164 ,  252 
E: 000000.005899 64 01 81 7e 81 80 00 00 b9 08 00 00 00 96 1b 2a eb f6 ff f0 ff 0b 00 37 00 fc 1f 70 05 93 76 6a c9 08 80 00 00 00 80 00 00 00 00 09 09 00 00 00 00 00 29 8b 6a c9 28 08 00 ca 52 00 d9 75 e3 a4 fc
# ReportID: 1 / X:  129 | Y:  126 | Z:  129 | Rz:  128 | Rx:    0 | Ry:    0 | 0xff000020:  186 | Hat switch:   8 | Button: 0  0  0  0  0  0  0  0  0  0  0  0  0  0  0 | 0xff000021: 0 , 0 , 0 , 0 , 0 , 0 , 0 , 0 , 0 , 0 , 0 , 0 , 0 | 0xff000022:  151 ,   27 ,   42 ,  235 ,  246 ,  255 ,  238 ,  255 ,   10 ,    0 ,   52 ,    0 ,  227 ,   31 ,   91 ,    5 ,  134 ,  165 ,  106 ,  201 ,    7 ,  128 ,    0 ,    0 ,    0 ,  128 ,    0 ,    0 ,    0 ,    0 ,    9 ,    9 ,    0 ,    0 ,    0 ,    0 ,    0 ,    9 ,  186 ,  106 ,  201 ,   40 ,    8 ,    0 ,  192 ,  222 ,  179 ,   73 ,    3 ,   72 ,  146 ,   47 
E: 000000.008364 64 01 81 7e 81 80 00 00 ba 08 00 00 00 97 1b 2a eb f6 ff ee ff 0a 00 34 00 e3 1f 5b 05 86 a5 6a c9 07 80 00 00 00 80 00 00 00 00 09 09 00 00 00 00 00 09 ba 6a c9 28 08 00 c0 de b3 49 03 48 92 2f
# ReportID: 1 / X:  129 | Y:  126 | Z:  129 | Rz:  128 | Rx:    0 | Ry:    0 | 0xff000020:  187 | Hat switch:   8 | Button: 0  0  0  0  0  0  0  0  0  0  0  0  0  0  0 | 0xff000021: 0 , 0 , 0 , 0 , 0 , 0 , 0 , 0 , 0 , 0 , 0 , 0 , 0 | 0xff000022:  152 ,   27 ,   42 ,  235 ,  245 ,  255 ,  239 ,  255 ,   11 ,    0 ,   28 ,    0 ,   62 ,   31 ,   43 ,    5 ,  121 ,  212 ,  106 ,  201 ,    8 ,  128 ,    0 ,    0 ,    0 ,  128 ,    0 ,    0 ,    0 ,    0 ,    9 ,    9 ,    0 ,    0 ,    0 ,    0 ,    0 ,  233 ,  232 ,  106 ,  201 ,   40 ,    8 ,    0 ,  170 ,  200 ,  208 ,    9 ,   89 ,   66 ,   69 ,  167 
E: 000000.012373 64 01 81 7e 81 80 00 00 bb 08 00 00 00 98 1b 2a eb f5 ff ef ff 0b 00 1c 00 3e 1f 2b 05 79 d4 6a c9 08 80 00 00 00 80 00 00 00 00 09 09 00 00 00 00 00 e9 e8 6a c9 28 08 00 aa c8 d0 09 59 42 45 a7
# ReportID: 1 / X:  129 | Y:  126 | Z:  129 | Rz:  128 | Rx:    0 | Ry:    0 | 0xff000020:  188 | Hat switch:   8 | Button: 0  0  0  0  0  0  0  0  0  0  0  0  0  0  0 | 0xff000021: 0 , 0 , 0 , 0 , 0 , 0 , 0 , 0 , 0 , 0 , 0 , 0 , 0 | 0xff000022:  153 ,   27 ,   42 ,  235 ,  245 ,  255 ,  238 ,  255 ,   10 ,    0 ,   39 ,    0 ,   53 ,   31 ,   26 ,    5 ,  108 ,    3 ,  107 ,  201 ,    7 ,  128 ,    0 ,    0 ,    0 ,  128 ,    0 ,    0 ,    0 ,    0 ,    9 ,    9 ,    0 ,    0 ,    0 ,    0 ,    0 ,  201 ,   23 ,  107 ,  201 ,   40 ,    8 ,    0 ,    4 ,  130 ,  224 ,  114 ,  157 ,  155 ,   25 ,  212 
E: 000000.017526 64 01 81 7e 81 80 00 00 bc 08 00 00 00 99 1b 2a eb f5 ff ee ff 0a 00 27 00 35 1f 1a 05 6c 03 6b c9 07 80 00 00 00 80 00 00 00 00 09 09 00 00 00 00 00 c9 17 6b c9 28 08 00 04 82 e0 72 9d 9b 19 d4
# ReportID: 1 / X:  129 | Y:  126 | Z:  129 | Rz:  128 | Rx:    0 | Ry:    0 | 0xff000020:  189 | Hat switch:   8 | Button: 0  0  0  0  0  0  0  0  0  0  0  0  0  0  0 | 0xff000021: 0 , 0 , 0 , 0 , 0 , 0 , 0 , 0 , 0 , 0 , 0 , 0 , 0 | 0xff000022:  154 ,   27 ,   42 ,  235 ,  245 ,  255 ,  238 ,  255 ,   10 ,    0 ,   48 ,    0 ,   21 ,   31 ,   37 ,    5 ,   95 ,   50 ,  107 ,  201 ,    7 ,  128 ,    0 ,    0 ,    0 ,  128 ,    0 ,    0 ,    0 ,    0 ,    9 ,    9 ,    0 ,    0 ,    0 ,    0 ,    0 ,  169 ,   70 ,  107 ,  201 ,   40 ,    8 ,    0 ,   94 ,  124 ,   38 ,  179 ,  146 ,  162 ,  155 ,  233 
E: 000000.020741 64 01 81 7e 81 80 00 00 bd 08 00 00 00 9a 1b 2a eb f5 ff ee ff 0a 00 30 00 15 1f 25 05 5f 32 6b c9 07 80 00 00 00 80 00 00 00 00 09 09 00 00 00 00 00 a9 46 6b c9 28 08 00 5e 7c 26 b3 92 a2 9b e9
# ReportID: 1 / X:  129 | Y:  126 | Z:  129 | Rz:  128 | Rx:    0 | Ry:    0 | 0xff000020:  190 | Hat switch:   8 | Button: 0  0  0  0  0  0  0  0  0  0  0  0  0  0  0 | 0xff000021: 0 , 0 , 0 , 0 , 0 , 0 , 0 , 0 , 0 , 0 , 0 , 0 , 0 | 0xff000022:  155 ,   27 ,   42 ,  235 ,  247 ,  255 ,  238 ,  255 ,   10 ,    0 ,   60 ,    0 ,  248 ,   30 ,   44 ,    5 ,   82 ,   97 ,  107 ,  201 ,    8 ,  128 ,    0 ,    0 ,    0 ,  128 ,    0 ,    0 ,    0 ,    0 ,    9 ,    9 ,    0 ,    0 ,    0 ,    0 ,    0 ,  137 ,  117 ,  107 ,  201 ,   40 ,    8 ,    0 ,  102 ,  117 ,   58 ,   98 ,  188 ,   36 ,   72 ,  135 
E: 000000.024586 64 01 81 7e 81 80 00 00 be 08 00 00 00 9b 1b 2a eb f7 ff ee ff 0a 00 3c 00 f8 1e 2c 05 52 61 6b c9 08 80 00 00 00 80 00 00 00 00 09 09 00 00 00 00 00 89 75 6b c9 28 08 00 66 75 3a 62 bc 24 48 87
# ReportID: 1 / X:  129 | Y:  126 | Z:  129 | Rz:  128 | Rx:    0 | Ry:    0 | 0xff000020:  191 | Hat switch:   8 | Button: 0  0  0  0  0  0  0  0  0  0  0  0  0  0  0 | 0xff000021: 0 , 0 , 0 , 0 , 0 , 0 , 0 , 0 , 0 , 0 , 0 , 0 , 0 | 0xff000022:  156 ,   27 ,   42 ,  235 ,  247 ,  255 ,  238 ,  255 ,   10 ,    0 ,   34 ,    0 ,   29 ,   31 ,   35 ,    5 ,   69 ,  144 ,  107 ,  201 ,    8 ,  128 ,    0 ,    0 ,    0 ,  128 ,    0 ,    0 ,    0 ,    0 ,    9 ,    9 ,    0 ,    0 ,    0 ,    0 ,    0 ,  105 ,  164 ,  107 ,  201 ,   40 ,    8 ,    0 ,   27 ,  117 ,  193 ,  201 ,  193 ,  253 ,   78 ,  117 
E: 000000.029939 64 01 81 7e 81 80 00 00 bf 08 00 00 00 9c 1b 2a eb f7 ff ee ff 0a 00 22 00 1d 1f 23 05 45 90 6b c9 08 80 00 00 00 80 00 00 00 00 09 09 00 00 00 00 00 69 a4 6b c9 28 08 00 1b 75 c1 c9 c1 fd 4e 75
# ReportID: 1 / X:  129 | Y:  126 | Z:  129 | Rz:  128 | Rx:    0 | Ry:    0 | 0xff000020:  192 | Hat switch:   8 | Button: 0  0  0  0  0  0  0  0  0  0  0  0  0  0  0 | 0xff000021: 0 , 0 , 0 , 0 , 0 , 0 , 0 , 0 , 0 , 0 , 0 , 0 , 0 | 0xff000022:  157 ,   27 ,   42 ,  235 ,  247 ,  255 ,  238 ,  255 ,   10 ,    0 ,   46 ,    0 ,  150 ,   31 ,   54 ,    5 ,   56 ,  191 ,  107 ,  201 ,    7 ,  128 ,    0 ,    0 ,    0 ,  128 ,    0 ,    0 ,    0 ,    0 ,    9 ,    9 ,    0 ,    0 ,    0 ,    0 ,    0 ,   73 ,  211 ,  107 ,  201 ,   40 ,    8 ,    0 ,  195 ,   97 ,   42 ,   73 ,  141 ,  248 ,   16 ,  233 
E: 000000.032556 64 01 81 7e 81 80 00 00 c0 08 00 00 00 9d 1b 2a eb f7 ff ee ff 0a 00 2e 00 96 1f 36 05 38 bf 6b c9 07 80 00 00 00 80 00 00 00 00 09 09 00 00 00 00 00 49 d3 6b c9 28 08 00 c3 61 2a 49 8d f8 10 e9
# ReportID: 1 / X:  129 | Y:  126 | Z:  129 | Rz:  128 | Rx:    0 | Ry:    0 | 0xff000020:  193 | Hat switch:   8 | Button: 0  0  0  0  0  0  0  0  0  0  0  0  0  0  0 | 0xff000021: 0 , 0 , 0 , 0 , 0 , 0 , 0 , 0 , 0 , 0 , 0 , 0 , 0 | 0xff000022:  158 ,   27 ,   42 ,  235 ,  246 ,  255 ,  239 ,  255 ,   10 ,    0 ,   45 ,    0 ,  158 ,   31 ,   61 ,    5 ,   43 ,  238 ,  107 ,  201 ,    8 ,  128 ,    0 ,    0 ,    0 ,  128 ,    0 ,    0 ,    0 ,    0 ,    9 ,    9 ,    0 ,    0 ,    0 ,    0 ,    0 ,   41 ,    2 ,  108 ,  201 ,   40 ,    8 ,    0 ,    6 ,   81 ,  253 ,   17 ,   12 ,   67 ,   64 ,   94 
E: 000000.037080 64 01 81 7e 81 80 00 00 c1 08 00 00 00 9e 1b 2a eb f6 ff ef ff 0a 00 2d 00 9e 1f 3d 05 2b ee 6b c9 08 80 00 00 00 80 00 00 00 00 09 09 00 00 00 00 00 29 02 6c c9 28 08 00 06 51 fd 11 0c 43 40 5e
# ReportID: 1 / X:  129 | Y:  126 | Z:  129 | Rz:  128 | Rx:    0 | Ry:    0 | 0xff000020:  194 | Hat switch:   8 | Button: 0  0  0  0  0  0  0  0  0  0  0  0  0  0  0 | 0xff000021: 0 , 0 , 0 , 0 , 0 , 0 , 0 , 0 , 0 , 0 , 0 , 0 , 0 | 0xff000022:  159 ,   27 ,   42 ,  235 ,  247 ,  255 ,  238 ,  255 ,   11 ,    0 ,   38 ,    0 ,  116 ,   31 ,   55 ,    5 ,   30 ,   29 ,  108 ,  201 ,    7 ,  128 ,    0 ,    0 ,    0 ,  128 ,    0 ,    0 ,    0 ,    0 ,    9 ,    9 ,    0 ,    0 ,    0 ,    0 ,    0 ,    9 ,   49 ,  108 ,  201 ,   40 ,    8 ,    0 ,  110 ,   40 ,  214 ,  171 ,   80 ,   33 ,   41 ,  125 
E: 000000.040597 64 01 81 7e 81 80 00 00 c2 08 00 00 00 9f 1b 2a eb f7 ff ee ff 0b 00 26 00 74 1f 37 05 1e 1d 6c c9 07 80 00 00 00 80 00 00 00 00 09 09 00 00 00 00 00 09 31 6c c9 28 08 00 6e 28 d6 ab 50 21 29 7d
# ReportID: 1 / X:  129 | Y:  126 | Z:  129 | Rz:  128 | Rx:    0 | Ry:    0 | 0xff000020:  195 | Hat switch:   8 | Button: 0  0  0  0  0  0  0  0  0  0  0  0  0  0  0 | 0xff000021: 0 , 0 , 0 , 0 , 0 , 0 , 0 , 0 , 0 , 0 , 0 , 0 , 0 | 0xff000022:  160 ,   27 ,   42 ,  235 ,  246 ,  255 ,  238 ,  255 ,   10 ,    0 ,   39 ,    0 ,   69 ,   31 ,   49 ,    5 ,   17 ,   76 ,  108 ,  201 ,    8 ,  128 ,    0 ,    0 ,    0 ,  128 ,    0 ,    0 ,    0 ,    0 ,    9 ,    9 ,    0 ,    0 ,    0 ,    0 ,    0 ,  233 ,   95 ,  108 ,  201 ,   40 ,    8 ,    0 ,  114 ,  228 ,   84 ,    4 ,  230 ,  185 ,   54 ,  160 
E: 000000.044733 64 01 81 7e 81 80 00 00 c3 08 00 00 00 a0 1b 2a eb f6 ff ee ff 0a 00 27 00 45 1f 31 05 11 4c 6c c9 08 80 00 00 00 80 00 00 00 00 09 09 00 00 00 00 00 e9 5f 6c c9 28 08 00 72 e4 54 04 e6 b9 36 a0
# ReportID: 1 / X:  129 | Y:  126 | Z:  129 | Rz:  128 | Rx:    0 | Ry:    0 | 0xff000020:  196 | Hat switch:   8 | Button: 0  0  0  0  0  0  0  0  0  0  0  0  0  0  0 | 0xff000021: 0 , 0 , 0 , 0 , 0 , 0 , 0 , 0 , 0 , 0 , 0 , 0 , 0 | 0xff000022:  161 ,   27 ,   42 ,  235 ,  245 ,  255 ,  237 ,  255 ,   10 ,    0 ,   49 ,    0 ,   50 ,   31 ,   45 ,    5 ,    4 ,  123 ,  108 ,  201 ,    8 ,  128 ,    0 ,    0 ,    0 ,  128 ,    0 ,    0 ,    0 ,    0 ,    9 ,    9 ,    0 ,    0 ,    0 ,    0 ,    0 ,  201 ,  142 ,  108 ,  201 ,   40 ,    8 ,    0 ,  133 ,   27 ,  251 ,  248 ,  203 ,   57 ,  234 ,  125 
E: 000000.048580 64 01 81 7e 81 80 00 00 c4 08 00 00 00 a1 1b 2a eb f5 ff ed ff 0a 00 31 00 32 1f 2d 05 04 7b 6c c9 08 80 00 00 00 80 00 00 00 00 09 09 00 00 00 00 00 c9 8e 6c c9 28 08 00 85 1b fb f8 cb 39 ea 7d
# ReportID: 1 / X:  129 | Y:  126 | Z:  129 | Rz:  128 | Rx:    0 | Ry:    0 | 0xff000020:  197 | Hat switch:   8 | Button: 0  0  0  0  0  0  0  0  0  0  0  0  0  0  0 | 0xff000021: 0 , 0 , 0 , 0 , 0 , 0 , 0 , 0 , 0 , 0 , 0 , 0 , 0 | 0xff000022:  162 ,   27 ,   42 ,  235 ,  246 ,  255 ,  237 ,  255 ,   11 ,    0 ,   52 ,    0 ,   50 ,   31 ,   56 ,    5 ,  247 ,  169 ,  108 ,  201 ,    8 ,  128 ,    0 ,    0 ,    0 ,  128 ,    0 ,    0 ,    0 ,    0 ,    9 ,    9 ,    0 ,    0 ,    0 ,    0 ,    0 ,  169 ,  189 ,  108 ,  201 ,   40 ,    8 ,    0 ,  210 ,  218 ,  162 ,   92 ,  130 ,  157 ,  219 ,   23 
E: 000000.052570 64 01 81 7e 81 80 00 00 c5 08 00 00 00 a2 1b 2a eb f6 ff ed ff 0b 00 34 00 32 1f 38 05 f7 a9 6c c9 08 80 00 00 00 80 00 00 00 00 09 09 00 00 00 00 00 a9 bd 6c c9 28 08 00 d2 da a2 5c 82 9d db 17
# ReportID: 1 / X:  129 | Y:  126 | Z:  129 | Rz:  128 | Rx:    0 | Ry:    0 | 0xff000020:  198 | Hat switch:   8 | Button: 0  0  0  0  0  0  0  0  0  0  0  0  0  0  0 | 0xff000021: 0 , 0 , 0 , 0 , 0 , 0 , 0 , 0 , 0 , 0 , 0 , 0 , 0 | 0xff000022:  163 ,   27 ,   42 ,  235 ,  246 ,  255 ,  238 ,  255 ,   11 ,    0 ,   49 ,    0 ,   83 ,   31 ,   43 ,    5 ,  234 ,  216 ,  108 ,  201 ,    8 ,  128 ,    0 ,    0 ,    0 ,  128 ,    0 ,    0 ,    0 ,    0 ,    9 ,    9 ,    0 ,    0 ,    0 ,    0 ,    0 ,  137 ,  236 ,  108 ,  201 ,   40 ,    8 ,    0 ,  172 ,  186 ,   69 ,  103 ,   20 ,  165 ,  103 ,  150 
E: 000000.057462 64 01 81 7e 81 80 00 00 c6 08 00 00 00 a3 1b 2a eb f6 ff ee ff 0b 00 31 00 53 1f 2b 05 ea d8 6c c9 08 80 00 00 00 80 00 00 00 00 09 09 00 00 00 00 00 89 ec 6c c9 28 08 00 ac ba 45 67 14 a5 67 96
# ReportID: 1 / X:  129 | Y:  126 | Z:  129 | Rz:  128 | Rx:    0 | Ry:    0 | 0xff000020:  199 | Hat switch:   8 | Button: 0  0  0  0  0  0  0  0  0  0  0  0  0  0  0 | 0xff000021: 0 , 0 , 0 , 0 , 0 , 0 , 0 , 0 , 0 , 0 , 0 , 0 , 0 | 0xff000022:  164 ,   27 ,   42 ,  235 ,  245 ,  255 ,  237 ,  255 ,   11 ,    0 ,   58 ,    0 ,  145 ,   31 ,   68 ,    5 ,  221 ,    7 ,  109 ,  201 ,    7 ,  128 ,    0 ,    0 ,    0 ,  128 ,    0 ,    0 ,    0 ,    0 ,    9 ,    9 ,    0 ,    0 ,    0 ,    0 ,    0 ,  105 ,   27 ,  109 ,  201 ,   40 ,    8 ,    0 ,  194 ,   83 ,  146 ,   17 ,   55 ,  162 ,  222 ,   34 
E: 000000.060877 64 01 81 7e 81 80 00 00 c7 08 00 00 00 a4 1b 2a eb f5 ff ed ff 0b 00 3a 00 91 1f 44 05 dd 07 6d c9 07 80 00 00 00 80 00 00 00 00 09 09 00 00 00 00 00 69 1b 6d c9 28 08 00 c2 53 92 11 37 a2 de 22
# ReportID: 1 / X:  129 | Y:  126 | Z:  129 | Rz:  127 | Rx:    0 | Ry:    0 | 0xff000020:  200 | Hat switch:   8 | Button: 0  0  0  0  0  0  0  0  0  0  0  0  0  0  0 | 0xff000021: 0 , 0 , 0 , 0 , 0 , 0 , 0 , 0 , 0 , 0 , 0 , 0 , 0 | 0xff000022:  165 ,   27 ,   42 ,  235 ,  245 ,  255 ,  238 ,  255 ,   11 ,    0 ,   57 ,    0 ,  110 ,   31 ,   55 ,    5 ,  209 ,   54 ,  109 ,  201 ,    7 ,  128 ,    0 ,    0 ,    0 ,  128 ,    0 ,    0 ,    0 ,    0 ,    9 ,    9 ,    0 ,    0 ,    0 ,    0 ,    0 ,   73 ,   74 ,  109 ,  201 ,   40 ,    8 ,    0 ,  196 ,  107 ,  246 ,   58 ,  140 ,  211 ,   95 ,   28 
E: 000000.064569 64 01 81 7e 81 7f 00 00 c8 08 00 00 00 a5 1b 2a eb f5 ff ee ff 0b 00 39 00 6e 1f 37 05 d1 36 6d c9 07 80 00 00 00 80 00 00 00 00 09 09 00 00 00 00 00 49 4a 6d c9 28 08 00 c4 6b f6 3a 8c d3 5f 1c
# ReportID: 1 / X:  129 | Y:  126 | Z:  129 | Rz:  127 | Rx:    0 | Ry:    0 | 0xff000020:  201 | Hat switch:   8 | Button: 0  0  0  0  0  0  0  0  0  0  0  0  0  0  0 | 0xff000021: 0 , 0 , 0 , 0 , 0 , 0 , 0 , 0 , 0 , 0 , 0 , 0 , 0 | 0xff000022:  166 ,   27 ,   42 ,  235 ,  246 ,  255 ,  239 ,  255 ,    9 ,    0 ,   57 ,    0 ,   56 ,   31 ,   52 ,    5 ,  196 ,  101 ,  109 ,  201 ,    7 ,  128 ,    0 ,    0 ,    0 ,  128 ,    0 ,    0 ,    0 ,    0 ,    9 ,    9 ,    0 ,    0 ,    0 ,    0 ,    0 ,   41 ,  121 ,  109 ,  201 ,   40 ,    8 ,    0 ,  243 ,  195 ,  203 ,  132 ,  244 ,  240 ,   49 ,  138 
E: 000000.068764 64 01 81 7e 81 7f 00 00 c9 08 00 00 00 a6 1b 2a eb f6 ff ef ff 09 00 39 00 38 1f 34 05 c4 65 6d c9 07 80 00 00 00 80 00 00 00 00 09 09 00 00 00 00 00 29 79 6d c9 28 08 00 f3 c3 cb 84 f4 f0 31 8a
# ReportID: 1 / X:  129 | Y:  126 | Z:  129 | Rz:  127 | Rx:    0 | Ry:    0 | 0xff000020:  202 | Hat switch:   8 | Button: 0  0  0  0  0  0  0  0  0  0  0  0  0  0  0 | 0xff000021: 0 , 0 , 0 , 0 , 0 , 0 , 0 , 0 , 0 , 0 , 0 , 0 , 0 | 0xff000022:  167 ,   27 ,   42 ,  235 ,  248 ,  255 ,  239 ,  255 ,    9 ,    0 ,   60 ,    0 ,   31 ,   31 ,   43 ,    5 ,  183 ,  148 ,  109 ,  201 ,    7 ,  128 ,    0 ,    0 ,    0 ,  128 ,    0 ,    0 ,    0 ,    0 ,    9 ,    9 ,    0 ,    0 ,    0 ,    0 ,    0 ,    9 ,  168 ,  109 ,  201 ,   40 ,    8 ,    0 ,  214 ,  183 ,  101 ,  184 ,  194 ,   58 ,  200 ,  121 
E: 000000.073077 64 01 81 7e 81 7f 00 00 ca 08 00 00 00 a7 1b 2a eb f8 ff ef ff 09 00 3c 00 1f 1f 2b 05 b7 94 6d c9 07 80 00 00 00 80 00 00 00 00 09 09 00 00 00 00 00 09 a8 6d c9 28 08 00 d6 b7 65 b8 c2 3a c8 79
# ReportID: 1 / X:  129 | Y:  126 | Z:  129 | Rz:  127 | Rx:    0 | Ry:    0 | 0xff000020:  203 | Hat switch:   8 | Button: 0  0  0  0  0  0  0  0  0  0  0  0  0  0  0 | 0xff000021: 0 , 0 , 0 , 0 , 0 , 0 , 0 , 0 , 0 , 0 , 0 , 0 , 0 | 0xff000022:  168 ,   27 ,   42 ,  235 ,  249 ,  255 ,  239 ,  255 ,   11 ,    0 ,   59 ,    0 ,   61 ,   31 ,   35 ,    5 ,  170 ,  195 ,  109 ,  201 ,    8 ,  128 ,    0 ,    0 ,    0 ,  128 ,    0 ,    0 ,    0 ,    0 ,    9 ,    9 ,    0 ,    0 ,    0 ,    0 ,    0 ,  233 ,  214 ,  109 ,  201 ,   40 ,    8 ,    0 ,   32 ,  196 ,  107 ,   54 ,   14 ,  171 ,   88 ,   29 
E: 000000.077920 64 01 81 7e 81 7f 00 00 cb 08 00 00 00 a8 1b 2a eb f9 ff ef ff 0b 00 3b 00 3d 1f 23 05 aa c3 6d c9 08 80 00 00 00 80 00 00 00 00 09 09 00 00 00 00 00 e9 d6 6d c9 28 08 00 20 c4 6b 36 0e ab 58 1d
# ReportID: 1 / X:  129 | Y:  126 | Z:  129 | Rz:  127 | Rx:    0 | Ry:    0 | 0xff000020:  204 | Hat switch:   8 | Button: 0  0  0  0  0  0  0  0  0  0  0  0  0  0  0 | 0xff000021: 0 , 0 , 0 , 0 , 0 , 0 , 0 , 0 , 0 , 0 , 0 , 0 , 0 | 0xff000022:  169 ,   27 ,   42 ,  235 ,  247 ,  255 ,  239 ,  255 ,   11 ,    0 ,   69 ,    0 ,   84 ,   31 ,   42 ,    5 ,  157 ,  242 ,  109 ,  201 ,    8 ,  128 ,    0 ,    0 ,    0 ,  128 ,    0 ,    0 ,    0 ,    0 ,    9 ,    9 ,    0 ,    0 ,    0 ,    0 ,    0 ,  201 ,    5 ,  110 ,  201 ,   40 ,    8 ,    0 ,  101 ,  105 ,   47 ,  182 ,  153 ,  136 ,   38 ,  172 
E: 000000.081549 64 01 81 7e 81 7f 00 00 cc 08 00 00 00 a9 1b 2a eb f7 ff ef ff 0b 00 45 00 54 1f 2a 05 9d f2 6d c9 08 80 00 00 00 80 00 00 00 00 09 09 00 00 00 00 00 c9 05 6e c9 28 08 00 65 69 2f b6 99 88 26 ac
# ReportID: 1 / X:  129 | Y:  126 | Z:  129 | Rz:  127 | Rx:    0 | Ry:    0 | 0xff000020:  205 | Hat switch:   8 | Button: 0  0  0  0  0  0  0  0  0  0  0  0  0  0  0 | 0xff000021: 0 , 0 , 0 , 0 , 0 , 0 , 0 , 0 , 0 , 0 , 0 , 0 , 0 | 0xff000022:  170 ,   27 ,   42 ,  235 ,  248 ,  255 ,  239 ,  255 ,   11 ,    0 ,   56 ,    0 ,   93 ,   31 ,   49 ,    5 ,  144 ,   33 ,  110 ,  201 ,    8 ,  128 ,    0 ,    0 ,    0 ,  128 ,    0 ,    0 ,    0 ,    0 ,    9 ,    9 ,    0 ,    0 ,    0 ,    0 ,    0 ,  169 ,   52 ,  110 ,  201 ,   40 ,    8 ,    0 ,  204 ,   21 ,   15 ,  151 ,   98 ,   60 ,   88 ,  190 
E: 000000.085507 64 01 81 7e 81 7f 00 00 cd 08 00 00 00 aa 1b 2a eb f8 ff ef ff 0b 00 38 00 5d 1f 31 05 90 21 6e c9 08 80 00 00 00 80 00 00 00 00 09 09 00 00 00 00 00 a9 34 6e c9 28 08 00 cc 15 0f 97 62 3c 58 be
# ReportID: 1 / X:  129 | Y:  126 | Z:  129 | Rz:  127 | Rx:    0 | Ry:    0 | 0xff000020:  206 | Hat switch:   8 | Button: 0  0  0  0  0  0  0  0  0  0  0  0  0  0  0 | 0xff000021: 0 , 0 , 0 , 0 , 0 , 0 , 0 , 0 , 0 , 0 , 0 , 0 , 0 | 0xff000022:  171 ,   27 ,   42 ,  235 ,  247 ,  255 ,  239 ,  255 ,   10 ,    0 ,   57 ,    0 ,  143 ,   31 ,   55 ,    5 ,  131 ,   80 ,  110 ,  201 ,    8 ,  128 ,    0 ,    0 ,    0 ,  128 ,    0 ,    0 ,    0 ,    0 ,    9 ,    9 ,    0 ,    0 ,    0 ,    0 ,    0 ,  137 ,   99 ,  110 ,  201 ,   40 ,    8 ,    0 ,  110 ,  150 ,   68 ,  119 ,   88 ,  175 ,   69 ,  195 
E: 000000.089414 64 01 81 7e 81 7f 00 00 ce 08 00 00 00 ab 1b 2a eb f7 ff ef ff 0a 00 39 00 8f 1f 37 05 83 50 6e c9 08 80 00 00 00 80 00 00 00 00 09 09 00 00 00 00 00 89 63 6e c9 28 08 00 6e 96 44 77 58 af 45 c3
# ReportID: 1 / X:  129 | Y:  126 | Z:  129 | Rz:  127 | Rx:    0 | Ry:    0 | 0xff000020:  207 | Hat switch:   8 | Button: 0  0  0  0  0  0  0  0  0  0  0  0  0  0  0 | 0xff000021: 0 , 0 , 0 , 0 , 0 , 0 , 0 , 0 , 0 , 0 , 0 , 0 , 0 | 0xff000022:  172 ,   27 ,   42 ,  235 ,  246 ,  255 ,  238 ,  255 ,   10 ,    0 ,   61 ,    0 ,  151 ,   31 ,   55 ,    5 ,  118 ,  127 ,  110 ,  201 ,    8 ,  128 ,    0 ,    0 ,    0 ,  128 ,    0 ,    0 ,    0 ,    0 ,    9 ,    9 ,    0 ,    0 ,    0 ,    0 ,    0 ,  105 ,  146 ,  110 ,  201 ,   40 ,    8 ,    0 ,  188 ,  107 ,   57 ,  145 ,   10 ,  240 ,   87 ,   36 
E: 000000.092899 64 01 81 7e 81 7f 00 00 cf 08 00 00 00 ac 1b 2a eb f6 ff ee ff 0a 00 3d 00 97 1f 37 05 76 7f 6e c9 08 80 00 00 00 80 00 00 00 00 09 09 00 00 00 00 00 69 92 6e c9 28 08 00 bc 6b 39 91 0a f0 57 24
# ReportID: 1 / X:  129 | Y:  126 | Z:  129 | Rz:  127 | Rx:    0 | Ry:    0 | 0xff000020:  208 | Hat switch:   8 | Button: 0  0  0  0  0  0  0  0  0  0  0  0  0  0  0 | 0xff000021: 0 , 0 , 0 , 0 , 0 , 0 , 0 , 0 , 0 , 0 , 0 , 0 , 0 | 0xff000022:  173 ,   27 ,   42 ,  235 ,  246 ,  255 ,  239 ,  255 ,   10 ,    0 ,   47 ,    0 ,   91 ,   31 ,   45 ,    5 ,  139 ,  168 ,  110 ,  201 ,    7 ,  128 ,    0 ,    0 ,    0 ,  128 ,    0 ,    0 ,    0 ,    0 ,    9 ,    9 ,    0 ,    0 ,    0 ,    0 ,    0 ,   73 ,  193 ,  110 ,  201 ,   40 ,    8 ,    0 ,  111 ,  237 ,  250 ,  116 ,   86 ,  193 ,  191 ,  254 
E: 000000.096490 64 01 81 7e 81 7f 00 00 d0 08 00 00 00 ad 1b 2a eb f6 ff ef ff 0a 00 2f 00 5b 1f 2d 05 8b a8 6e c9 07 80 00 00 00 80 00 00 00 00 09 09 00 00 00 00 00 49 c1 6e c9 28 08 00 6f ed fa 74 56 c1 bf fe
# ReportID: 1 / X:  129 | Y:  126 | Z:  129 | Rz:  127 | Rx:    0 | Ry:    0 | 0xff000020:  209 | Hat switch:   8 | Button: 0  0  0  0  0  0  0  0  0  0  0  0  0  0  0 | 0xff000021: 0 , 0 , 0 , 0 , 0 , 0 , 0 , 0 , 0 , 0 , 0 , 0 , 0 | 0xff000022:  174 ,   27 ,   42 ,  235 ,  247 ,  255 ,  239 ,  255 ,   11 ,    0 ,   46 ,    0 ,   81 ,   31 ,   35 ,    5 ,  159 ,  209 ,  110 ,  201 ,    8 ,  128 ,    0 ,    0 ,    0 ,  128 ,    0 ,    0 ,    0 ,    0 ,    9 ,    9 ,    0 ,    0 ,    0 ,    0 ,    0 ,   41 ,  240 ,  110 ,  201 ,   40 ,    8 ,    0 ,   38 ,  238 ,  150 ,  239 ,  213 ,   85 ,  104 ,  105 
E: 000000.100528 64 01 81 7e 81 7f 00 00 d1 08 00 00 00 ae 1b 2a eb f7 ff ef ff 0b 00 2e 00 51 1f 23 05 9f d1 6e c9 08 80 00 00 00 80 00 00 00 00 09 09 00 00 00 00 00 29 f0 6e c9 28 08 00 26 ee 96 ef d5 55 68 69
# ReportID: 1 / X:  129 | Y:  126 | Z:  129 | Rz:  126 | Rx:    0 | Ry:    0 | 0xff000020:  210 | Hat switch:   8 | Button: 0  0  0  0  0  0  0  0  0  0  0  0  0  0  0 | 0xff000021: 0 , 0 , 0 , 0 , 0 , 0 , 0 , 0 , 0 , 0 , 0 , 0 , 0 | 0xff000022:  175 ,   27 ,   42 ,  235 ,  247 ,  255 ,  238 ,  255 ,   11 ,    0 ,   58 ,    0 ,   84 ,   31 ,   34 ,    5 ,  146 ,    0 ,  111 ,  201 ,    7 ,  128 ,    0 ,    0 ,    0 ,  128 ,    0 ,    0 ,    0 ,    0 ,    9 ,    9 ,    0 ,    0 ,    0 ,    0 ,    0 ,    9 ,   31 ,  111 ,  201 ,   40 ,    8 ,    0 ,  195 ,  107 ,   55 ,  180 ,  153 ,   32 ,  151 ,   29 
E: 000000.104599 64 01 81 7e 81 7e 00 00 d2 08 00 00 00 af 1b 2a eb f7 ff ee ff 0b 00 3a 00 54 1f 22 05 92 00 6f c9 07 80 00 00 00 80 00 00 00 00 09 09 00 00 00 00 00 09 1f 6f c9 28 08 00 c3 6b 37 b4 99 20 97 1d
# ReportID: 1 / X:  129 | Y:  126 | Z:  129 | Rz:  126 | Rx:    0 | Ry:    0 | 0xff000020:  211 | Hat switch:   8 | Button: 0  0  0  0  0  0  0  0  0  0  0  0  0  0  0 | 0xff000021: 0 , 0 , 0 , 0 , 0 , 0 , 0 , 0 , 0 , 0 , 0 , 0 , 0 | 0xff000022:  176 ,   27 ,   42 ,  235 ,  247 ,  255 ,  239 ,  255 ,   12 ,    0 ,   68 ,    0 ,   68 ,   31 ,   33 ,    5 ,  133 ,   47 ,  111 ,  201 ,    8 ,  128 ,    0 ,    0 ,    0 ,  128 ,    0 ,    0 ,    0 ,    0 ,    9 ,    9 ,    0 ,    0 ,    0 ,    0 ,    0 ,  233 ,   77 ,  111 ,  201 ,   40 ,    8 ,    0 ,   49 ,   87 ,  232 ,  218 ,  246 ,  147 ,   11 ,  113 
E: 000000.108948 64 01 81 7e 81 7e 00 00 d3 08 00 00 00 b0 1b 2a eb f7 ff ef ff 0c 00 44 00 44 1f 21 05 85 2f 6f c9 08 80 00 00 00 80 00 00 00 00 09 09 00 00 00 00 00 e9 4d 6f c9 28 08 00 31 57 e8 da f6 93 0b 71
# ReportID: 1 / X:  129 | Y:  126 | Z:  129 | Rz:  126 | Rx:    0 | Ry:    0 | 0xff000020:  212 | Hat switch:   8 | Button: 0  0  0  0  0  0  0  0  0  0  0  0  0  0  0 | 0xff000021: 0 , 0 , 0 , 0 , 0 , 0 , 0 , 0 , 0 , 0 , 0 , 0 , 0 | 0xff000022:  177 ,   27 ,   42 ,  235 ,  247 ,  255 ,  238 ,  255 ,   12 ,    0 ,   55 ,    0 ,   68 ,   31 ,   36 ,    5 ,  120 ,   94 ,  111 ,  201 ,    8 ,  128 ,    0 ,    0 ,    0 ,  128 ,    0 ,    0 ,    0 ,    0 ,    9 ,    9 ,    0 ,    0 ,    0 ,    0 ,    0 ,  201 ,  124 ,  111 ,  201 ,   40 ,    8 ,    0 ,  166 ,  146 ,   64 ,  165 ,  135 ,  172 ,   88 ,  138 
E: 000000.112535 64 01 81 7e 81 7e 00 00 d4 08 00 00 00 b1 1b 2a eb f7 ff ee ff 0c 00 37 00 44 1f 24 05 78 5e 6f c9 08 80 00 00 00 80 00 00 00 00 09 09 00 00 00 00 00 c9 7c 6f c9 28 08 00 a6 92 40 a5 87 ac 58 8a
# ReportID: 1 / X:  129 | Y:  126 | Z:  129 | Rz:  126 | Rx:    0 | Ry:    0 | 0xff000020:  213 | Hat switch:   8 | Button: 0  0  0  0  0  0  0  0  0  0  0  0  0  0  0 | 0xff000021: 0 , 0 , 0 , 0 , 0 , 0 , 0 , 0 , 0 , 0 , 0 , 0 , 0 | 0xff000022:  178 ,   27 ,   42 ,  235 ,  246 ,  255 ,  238 ,  255 ,   11 ,    0 ,   44 ,    0 ,  110 ,   31 ,   41 ,    5 ,  107 ,  141 ,  111 ,  201 ,    8 ,  128 ,    0 ,    0 ,    0 ,  128 ,    0 ,    0 ,    0 ,    0 ,    9 ,    9 ,    0 ,    0 ,    0 ,    0 ,    0 ,  169 ,  171 ,  111 ,  201 ,   40 ,    8 ,    0 ,   19 ,  226 ,  228 ,  189 ,   76 ,  220 ,  212 ,   11 
E: 000000.116628 64 01 81 7e 81 7e 00 00 d5 08 00 00 00 b2 1b 2a eb f6 ff ee ff 0b 00 2c 00 6e 1f 29 05 6b 8d 6f c9 08 80 00 00 00 80 00 00 00 00 09 09 00 00 00 00 00 a9 ab 6f c9 28 08 00 13 e2 e4 bd 4c dc d4 0b
# ReportID: 1 / X:  129 | Y:  126 | Z:  129 | Rz:  126 | Rx:    0 | Ry:    0 | 0xff000020:  214 | Hat switch:   8 | Button: 0  0  0  0  0  0  0  0  0  0  0  0  0  0  0 | 0xff000021: 0 , 0 , 0 , 0 , 0 , 0 , 0 , 0 , 0 , 0 , 0 , 0 , 0 | 0xff000022:  179 ,   27 ,   42 ,  235 ,  247 ,  255 ,  238 ,  255 ,    9 ,    0 ,   53 ,    0 ,  100 ,   31 ,   50 ,    5 ,   94 ,  188 ,  111 ,  201 ,    7 ,  128 ,    0 ,    0 ,    0 ,  128 ,    0 ,    0 ,    0 ,    0 ,    9 ,    9 ,    0 ,    0 ,    0 ,    0 ,    0 ,  137 ,  218 ,  111 ,  201 ,   40 ,    8 ,    0 ,  163 ,  247 ,   98 ,    0 ,  192 ,   15 ,  114 ,  202 
E: 000000.120554 64 01 81 7e 81 7e 00 00 d6 08 00 00 00 b3 1b 2a eb f7 ff ee ff 09 00 35 00 64 1f 32 05 5e bc 6f c9 07 80 00 00 00 80 00 00 00 00 09 09 00 00 00 00 00 89 da 6f c9 28 08 00 a3 f7 62 00 c0 0f 72 ca
# ReportID: 1 / X:  129 | Y:  126 | Z:  129 | Rz:  126 | Rx:    0 | Ry:    0 | 0xff000020:  215 | Hat switch:   8 | Button: 0  0  0  0  0  0  0  0  0  0  0  0  0  0  0 | 0xff000021: 0 , 0 , 0 , 0 , 0 , 0 , 0 , 0 , 0 , 0 , 0 , 0 , 0 | 0xff000022:  180 ,   27 ,   42 ,  235 ,  246 ,  255 ,  238 ,  255 ,   10 ,    0 ,   37 ,    0 ,   77 ,   31 ,   45 ,    5 ,   81 ,  235 ,  111 ,  201 ,    8 ,  128 ,    0 ,    0 ,    0 ,  128 ,    0 ,    0 ,    0 ,    0 ,    9 ,    9 ,    0 ,    0 ,    0 ,    0 ,    0 ,  105 ,    9 ,  112 ,  201 ,   40 ,    8 ,    0 ,  223 ,   80 ,   21 ,   86 ,   20 ,    9 ,  147 ,    5 
E: 000000.126019 64 01 81 7e 81 7e 00 00 d7 08 00 00 00 b4 1b 2a eb f6 ff ee ff 0a 00 25 00 4d 1f 2d 05 51 eb 6f c9 08 80 00 00 00 80 00 00 00 00 09 09 00 00 00 00 00 69 09 70 c9 28 08 00 df 50 15 56 14 09 93 05
# ReportID: 1 / X:  129 | Y:  126 | Z:  129 | Rz:  126 | Rx:    0 | Ry:    0 | 0xff000020:  216 | Hat switch:   8 | Button: 0  0  0  0  0  0  0  0  0  0  0  0  0  0  0 | 0xff000021: 0 , 0 , 0 , 0 , 0 , 0 , 0 , 0 , 0 , 0 , 0 , 0 , 0 | 0xff000022:  181 ,   27 ,   42 ,  235 ,  247 ,  255 ,  238 ,  255 ,   11 ,    0 ,   33 ,    0 ,   65 ,   31 ,   56 ,    5 ,   68 ,   26 ,  112 ,  201 ,    8 ,  128 ,    0 ,    0 ,    0 ,  128 ,    0 ,    0 ,    0 ,    0 ,    9 ,    9 ,    0 ,    0 ,    0 ,    0 ,    0 ,   73 ,   56 ,  112 ,  201 ,   40 ,    8 ,    0 ,  144 ,  133 ,  235 ,    4 ,  111 ,  191 ,  195 ,  228 
E: 000000.129465 64 01 81 7e 81 7e 00 00 d8 08 00 00 00 b5 1b 2a eb f7 ff ee ff 0b 00 21 00 41 1f 38 05 44 1a 70 c9 08 80 00 00 00 80 00 00 00 00 09 09 00 00 00 00 00 49 38 70 c9 28 08 00 90 85 eb 04 6f bf c3 e4
# ReportID: 1 / X:  129 | Y:  126 | Z:  129 | Rz:  126 | Rx:    0 | Ry:    0 | 0xff000020:  217 | Hat switch:   8 | Button: 0  0  0  0  0  0  0  0  0  0  0  0  0  0  0 | 0xff000021: 0 , 0 , 0 , 0 , 0 , 0 , 0 , 0 , 0 , 0 , 0 , 0 , 0 | 0xff000022:  182 ,   27 ,   42 ,  235 ,  247 ,  255 ,  238 ,  255 ,   10 ,    0 ,   39 ,    0 ,   75 ,   31 ,   59 ,    5 ,   55 ,   73 ,  112 ,  201 ,    7 ,  128 ,    0 ,    0 ,    0 ,  128 ,    0 ,    0 ,    0 ,    0 ,    9 ,    9 ,    0 ,    0 ,    0 ,    0 ,    0 ,   41 ,  103 ,  112 ,  201 ,   40 ,    8 ,    0 ,   22 ,  230 ,   26 ,   87 ,  147 ,  130 ,  180 ,  134 
E: 000000.132593 64 01 81 7e 81 7e 00 00 d9 08 00 00 00 b6 1b 2a eb f7 ff ee ff 0a 00 27 00 4b 1f 3b 05 37 49 70 c9 07 80 00 00 00 80 00 00 00 00 09 09 00 00 00 00 00 29 67 70 c9 28 08 00 16 e6 1a 57 93 82 b4 86
# ReportID: 1 / X:  129 | Y:  126 | Z:  129 | Rz:  126 | Rx:    0 | Ry:    0 | 0xff000020:  218 | Hat switch:   8 | Button: 0  0  0  0  0  0  0  0  0  0  0  0  0  0  0 | 0xff000021: 0 , 0 , 0 , 0 , 0 , 0 , 0 , 0 , 0 , 0 , 0 , 0 , 0 | 0xff000022:  183 ,   27 ,   42 ,  235 ,  247 ,  255 ,  239 ,  255 ,   10 ,    0 ,   48 ,    0 ,   95 ,   31 ,   70 ,    5 ,   42 ,  120 ,  112 ,  201 ,    8 ,  128 ,    0 ,    0 ,    0 ,  128 ,    0 ,    0 ,    0 ,    0 ,    9 ,    9 ,    0 ,    0 ,    0 ,    0 ,    0 ,    9 ,  150 ,  112 ,  201 ,   40 ,    8 ,    0 ,   12 ,  198 ,  235 ,  173 ,  233 ,  144 ,    7 ,  203 
E: 000000.137813 64 01 81 7e 81 7e 00 00 da 08 00 00 00 b7 1b 2a eb f7 ff ef ff 0a 00 30 00 5f 1f 46 05 2a 78 70 c9 08 80 00 00 00 80 00 00 00 00 09 09 00 00 00 00 00 09 96 70 c9 28 08 00 0c c6 eb ad e9 90 07 cb
# ReportID: 1 / X:  129 | Y:  126 | Z:  129 | Rz:  126 | Rx:    0 | Ry:    0 | 0xff000020:  219 | Hat switch:   8 | Button: 0  0  0  0  0  0  0  0  0  0  0  0  0  0  0 | 0xff000021: 0 , 0 , 0 , 0 , 0 , 0 , 0 , 0 , 0 , 0 , 0 , 0 , 0 | 0xff000022:  184 ,   27 ,   42 ,  235 ,  247 ,  255 ,  239 ,  255 ,   10 ,    0 ,   49 ,    0 ,   91 ,   31 ,   66 ,    5 ,   29 ,  167 ,  112 ,  201 ,    8 ,  128 ,    0 ,    0 ,    0 ,  128 ,    0 ,    0 ,    0 ,    0 ,    9 ,    9 ,    0 ,    0 ,    0 ,    0 ,    0 ,  233 ,  196 ,  112 ,  201 ,   40 ,    8 ,    0 ,   89 ,   58 ,   89 ,  107 ,  189 ,  212 ,  228 ,  208 
E: 000000.141546 64 01 81 7e 81 7e 00 00 db 08 00 00 00 b8 1b 2a eb f7 ff ef ff 0a 00 31 00 5b 1f 42 05 1d a7 70 c9 08 80 00 00 00 80 00 00 00 00 09 09 00 00 00 00 00 e9 c4 70 c9 28 08 00 59 3a 59 6b bd d4 e4 d0
# ReportID: 1 / X:  129 | Y:  126 | Z:  129 | Rz:  126 | Rx:    0 | Ry:    0 | 0xff000020:  220 | Hat switch:   8 | Button: 0  0  0  0  0  0  0  0  0  0  0  0  0  0  0 | 0xff000021: 0 , 0 , 0 , 0 , 0 , 0 , 0 , 0 , 0 , 0 , 0 , 0 , 0 | 0xff000022:  185 ,   27 ,   42 ,  235 ,  248 ,  255 ,  239 ,  255 ,    9 ,    0 ,   52 ,    0 ,   81 ,   31 ,   76 ,    5 ,   16 ,  214 ,  112 ,  201 ,    8 ,  128 ,    0 ,    0 ,    0 ,  128 ,    0 ,    0 ,    0 ,    0 ,    9 ,    9 ,    0 ,    0 ,    0 ,    0 ,    0 ,  201 ,  243 ,  112 ,  201 ,   40 ,    8 ,    0 ,   31 ,   80 ,  137 ,   47 ,    5 ,  173 ,  245 ,  212 
E: 000000.145063 64 01 81 7e 81 7e 00 00 dc 08 00 00 00 b9 1b 2a eb f8 ff ef ff 09 00 34 00 51 1f 4c 05 10 d6 70 c9 08 80 00 00 00 80 00 00 00 00 09 09 00 00 00 00 00 c9 f3 70 c9 28 08 00 1f 50 89 2f 05 ad f5 d4
# ReportID: 1 / X:  129 | Y:  126 | Z:  129 | Rz:  126 | Rx:    0 | Ry:    0 | 0xff000020:  221 | Hat switch:   8 | Button: 0  0  0  0  0  0  0  0  0  0  0  0  0  0  0 | 0xff000021: 0 , 0 , 0 , 0 , 0 , 0 , 0 , 0 , 0 , 0 , 0 , 0 , 0 | 0xff000022:  186 ,   27 ,   42 ,  235 ,  246 ,  255 ,  239 ,  255 ,   10 ,    0 ,   48 ,    0 ,   77 ,   31 ,   73 ,    5 ,    3 ,    5 ,  113 ,  201 ,    8 ,  128 ,    0 ,    0 ,    0 ,  128 ,    0 ,    0 ,    0 ,    0 ,    9 ,    9 ,    0 ,    0 ,    0 ,    0 ,    0 ,  169 ,   34 ,  113 ,  201 ,   40 ,    8 ,    0 ,  118 ,  113 ,    8 ,  231 ,   30 ,   58 ,  202 ,  187 
E: 000000.149103 64 01 81 7e 81 7e 00 00 dd 08 00 00 00 ba 1b 2a eb f6 ff ef ff 0a 00 30 00 4d 1f 49 05 03 05 71 c9 08 80 00 00 00 80 00 00 00 00 09 09 00 00 00 00 00 a9 22 71 c9 28 08 00 76 71 08 e7 1e 3a ca bb
# ReportID: 1 / X:  129 | Y:  126 | Z:  129 | Rz:  126 | Rx:    0 | Ry:    0 | 0xff000020:  222 | Hat switch:   8 | Button: 0  0  0  0  0  0  0  0  0  0  0  0  0  0  0 | 0xff000021: 0 , 0 , 0 , 0 , 0 , 0 , 0 , 0 , 0 , 0 , 0 , 0 , 0 | 0xff000022:  187 ,   27 ,   42 ,  235 ,  248 ,  255 ,  238 ,  255 ,   10 ,    0 ,   45 ,    0 ,   66 ,   31 ,   62 ,    5 ,  246 ,   51 ,  113 ,  201 ,    7 ,  128 ,    0 ,    0 ,    0 ,  128 ,    0 ,    0 ,    0 ,    0 ,    9 ,    9 ,    0 ,    0 ,    0 ,    0 ,    0 ,  137 ,   81 ,  113 ,  201 ,   40 ,    8 ,    0 ,   72 ,  218 ,  240 ,  200 ,  149 ,  238 ,   26 ,   35 
E: 000000.152844 64 01 81 7e 81 7e 00 00 de 08 00 00 00 bb 1b 2a eb f8 ff ee ff 0a 00 2d 00 42 1f 3e 05 f6 33 71 c9 07 80 00 00 00 80 00 00 00 00 09 09 00 00 00 00 00 89 51 71 c9 28 08 00 48 da f0 c8 95 ee 1a 23
# ReportID: 1 / X:  129 | Y:  126 | Z:  129 | Rz:  126 | Rx:    0 | Ry:    0 | 0xff000020:  223 | Hat switch:   8 | Button: 0  0  0  0  0  0  0  0  0  0  0  0  0  0  0 | 0xff000021: 0 , 0 , 0 , 0 , 0 , 0 , 0 , 0 , 0 , 0 , 0 , 0 , 0 | 0xff000022:  188 ,   27 ,   42 ,  235 ,  247 ,  255 ,  238 ,  255 ,   11 ,    0 ,   39 ,    0 ,   57 ,   31 ,   77 ,    5 ,  233 ,   98 ,  113 ,  201 ,    7 ,  128 ,    0 ,    0 ,    0 ,  128 ,    0 ,    0 ,    0 ,    0 ,    9 ,    9 ,    0 ,    0 ,    0 ,    0 ,    0 ,  105 ,  128 ,  113 ,  201 ,   40 ,    8 ,    0 ,   97 ,  219 ,  143 ,    9 ,  205 ,  103 ,  170 ,  217 
E: 000000.156647 64 01 81 7e 81 7e 00 00 df 08 00 00 00 bc 1b 2a eb f7 ff ee ff 0b 00 27 00 39 1f 4d 05 e9 62 71 c9 07 80 00 00 00 80 00 00 00 00 09 09 00 00 00 00 00 69 80 71 c9 28 08 00 61 db 8f 09 cd 67 aa d9
# ReportID: 1 / X:  129 | Y:  126 | Z:  129 | Rz:  126 | Rx:    0 | Ry:    0 | 0xff000020:  224 | Hat switch:   8 | Button: 0  0  0  0  0  0  0  0  0  0  0  0  0  0  0 | 0xff000021: 0 , 0 , 0 , 0 , 0 , 0 , 0 , 0 , 0 , 0 , 0 , 0 , 0 | 0xff000022:  189 ,   27 ,   42 ,  235 ,  251 ,  255 ,  239 ,  255 ,   10 ,    0 ,   53 ,    0 ,   68 ,   31 ,   68 ,    5 ,  220 ,  145 ,  113 ,  201 ,    7 ,  128 ,    0 ,    0 ,    0 ,  128 ,    0 ,    0 ,    0 ,    0 ,    9 ,    9 ,    0 ,    0 ,    0 ,    0 ,    0 ,   73 ,  175 ,  113 ,  201 ,   40 ,    8 ,    0 ,  153 ,  221 ,   55 ,   61 ,  163 ,  141 ,  241 ,  166 
E: 000000.160441 64 01 81 7e 81 7e 00 00 e0 08 00 00 00 bd 1b 2a eb fb ff ef ff 0a 00 35 00 44 1f 44 05 dc 91 71 c9 07 80 00 00 00 80 00 00 00 00 09 09 00 00 00 00 00 49 af 71 c9 28 08 00 99 dd 37 3d a3 8d f1 a6
# ReportID: 1 / X:  129 | Y:  126 | Z:  129 | Rz:  126 | Rx:    0 | Ry:    0 | 0xff000020:  225 | Hat switch:   8 | Button: 0  0  0  0  0  0  0  0  0  0  0  0  0  0  0 | 0xff000021: 0 , 0 , 0 , 0 , 0 , 0 , 0 , 0 , 0 , 0 , 0 , 0 , 0 | 0xff000022:  190 ,   27 ,   42 ,  235 ,  249 ,  255 ,  239 ,  255 ,    9 ,    0 ,   58 ,    0 ,   59 ,   31 ,   67 ,    5 ,  207 ,  192 ,  113 ,  201 ,    7 ,  128 ,    0 ,    0 ,    0 ,  128 ,    0 ,    0 ,    0 ,    0 ,    9 ,    9 ,    0 ,    0 ,    0 ,    0 ,    0 ,   41 ,  222 ,  113 ,  201 ,   40 ,    8 ,    0 ,  200 ,   63 ,  207 ,  217 ,  111 ,  158 ,   19 ,  190 
E: 000000.166314 64 01 81 7e 81 7e 00 00 e1 08 00 00 00 be 1b 2a eb f9 ff ef ff 09 00 3a 00 3b 1f 43 05 cf c0 71 c9 07 80 00 00 00 80 00 00 00 00 09 09 00 00 00 00 00 29 de 71 c9 28 08 00 c8 3f cf d9 6f 9e 13 be
# ReportID: 1 / X:  129 | Y:  126 | Z:  129 | Rz:  126 | Rx:    0 | Ry:    0 | 0xff000020:  226 | Hat switch:   8 | Button: 0  0  0  0  0  0  0  0  0  0  0  0  0  0  0 | 0xff000021: 0 , 0 , 0 , 0 , 0 , 0 , 0 , 0 , 0 , 0 , 0 , 0 , 0 | 0xff000022:  191 ,   27 ,   42 ,  235 ,  250 ,  255 ,  239 ,  255 ,    9 ,    0 ,   60 ,    0 ,   78 ,   31 ,   64 ,    5 ,  194 ,  239 ,  113 ,  201 ,    8 ,  128 ,    0 ,    0 ,    0 ,  128 ,    0 ,    0 ,    0 ,    0 ,    9 ,    9 ,    0 ,    0 ,    0 ,    0 ,    0 ,    9 ,   13 ,  114 ,  201 ,   40 ,    8 ,    0 ,  126 ,   78 ,  218 ,  120 ,  176 ,   82 ,   72 ,  141 
E: 000000.169797 64 01 81 7e 81 7e 00 00 e2 08 00 00 00 bf 1b 2a eb fa ff ef ff 09 00 3c 00 4e 1f 40 05 c2 ef 71 c9 08 80 00 00 00 80 00 00 00 00 09 09 00 00 00 00 00 09 0d 72 c9 28 08 00 7e 4e da 78 b0 52 48 8d
# ReportID: 1 / X:  129 | Y:  126 | Z:  129 | Rz:  126 | Rx:    0 | Ry:    0 | 0xff000020:  227 | Hat switch:   8 | Button: 0  0  0  0  0  0  0  0  0  0  0  0  0  0  0 | 0xff000021: 0 , 0 , 0 , 0 , 0 , 0 , 0 , 0 , 0 , 0 , 0 , 0 , 0 | 0xff000022:  192 ,   27 ,   42 ,  235 ,  248 ,  255 ,  238 ,  255 ,   10 ,    0 ,   51 ,    0 ,   72 ,   31 ,   62 ,    5 ,  181 ,   30 ,  114 ,  201 ,    7 ,  128 ,    0 ,    0 ,    0 ,  128 ,    0 ,    0 ,    0 ,    0 ,    9 ,    9 ,    0 ,    0 ,    0 ,    0 ,    0 ,  233 ,   59 ,  114 ,  201 ,   40 ,    8 ,    0 ,  155 ,  122 ,  205 ,   16 ,  203 ,   74 ,  100 ,   21 
E: 000000.173331 64 01 81 7e 81 7e 00 00 e3 08 00 00 00 c0 1b 2a eb f8 ff ee ff 0a 00 33 00 48 1f 3e 05 b5 1e 72 c9 07 80 00 00 00 80 00 00 00 00 09 09 00 00 00 00 00 e9 3b 72 c9 28 08 00 9b 7a cd 10 cb 4a 64 15
# ReportID: 1 / X:  129 | Y:  126 | Z:  129 | Rz:  126 | Rx:    0 | Ry:    0 | 0xff000020:  228 | Hat switch:   8 | Button: 0  0  0  0  0  0  0  0  0  0  0  0  0  0  0 | 0xff000021: 0 , 0 , 0 , 0 , 0 , 0 , 0 , 0 , 0 , 0 , 0 , 0 , 0 | 0xff000022:  193 ,   27 ,   42 ,  235 ,  248 ,  255 ,  239 ,  255 ,    9 ,    0 ,   54 ,    0 ,   80 ,   31 ,   62 ,    5 ,  168 ,   77 ,  114 ,  201 ,    7 ,  128 ,    0 ,    0 ,    0 ,  128 ,    0 ,    0 ,    0 ,    0 ,    9 ,    9 ,    0 ,    0 ,    0 ,    0 ,    0 ,  201 ,  106 ,  114 ,  201 ,   40 ,    8 ,    0 ,  134 ,  163 ,   53 ,  218 ,  171 ,  138 ,  191 ,  180 
E: 000000.176566 64 01 81 7e 81 7e 00 00 e4 08 00 00 00 c1 1b 2a eb f8 ff ef ff 09 00 36 00 50 1f 3e 05 a8 4d 72 c9 07 80 00 00 00 80 00 00 00 00 09 09 00 00 00 00 00 c9 6a 72 c9 28 08 00 86 a3 35 da ab 8a bf b4
# ReportID: 1 / X:  129 | Y:  126 | Z:  129 | Rz:  126 | Rx:    0 | Ry:    0 | 0xff000020:  229 | Hat switch:   8 | Button: 0  0  0  0  0  0  0  0  0  0  0  0  0  0  0 | 0xff000021: 0 , 0 , 0 , 0 , 0 , 0 , 0 , 0 , 0 , 0 , 0 , 0 , 0 | 0xff000022:  194 ,   27 ,   42 ,  235 ,  248 ,  255 ,  238 ,  255 ,   10 ,    0 ,   57 ,    0 ,   88 ,   31 ,   57 ,    5 ,  155 ,  124 ,  114 ,  201 ,    8 ,  128 ,    0 ,    0 ,    0 ,  128 ,    0 ,    0 ,    0 ,    0 ,    9 ,    9 ,    0 ,    0 ,    0 ,    0 ,    0 ,  169 ,  153 ,  114 ,  201 ,   40 ,    8 ,    0 ,   16 ,   33 ,  217 ,  227 ,  155 ,  206 ,  143 ,  167 
E: 000000.180468 64 01 81 7e 81 7e 00 00 e5 08 00 00 00 c2 1b 2a eb f8 ff ee ff 0a 00 39 00 58 1f 39 05 9b 7c 72 c9 08 80 00 00 00 80 00 00 00 00 09 09 00 00 00 00 00 a9 99 72 c9 28 08 00 10 21 d9 e3 9b ce 8f a7
# ReportID: 1 / X:  129 | Y:  126 | Z:  129 | Rz:  126 | Rx:    0 | Ry:    0 | 0xff000020:  230 | Hat switch:   8 | Button: 0  0  0  0  0  0  0  0  0  0  0  0  0  0  0 | 0xff000021: 0 , 0 , 0 , 0 , 0 , 0 , 0 , 0 , 0 , 0 , 0 , 0 , 0 | 0xff000022:  195 ,   27 ,   42 ,  235 ,  249 ,  255 ,  238 ,  255 ,    9 ,    0 ,   51 ,    0 ,  102 ,   31 ,   55 ,    5 ,  142 ,  171 ,  114 ,  201 ,    7 ,  128 ,    0 ,    0 ,    0 ,  128 ,    0 ,    0 ,    0 ,    0 ,    9 ,    9 ,    0 ,    0 ,    0 ,    0 ,    0 ,  137 ,  200 ,  114 ,  201 ,   40 ,    8 ,    0 ,  128 ,  239 ,   24 ,   70 ,   30 ,  255 ,  225 ,  205 
E: 000000.184560 64 01 81 7e 81 7e 00 00 e6 08 00 00 00 c3 1b 2a eb f9 ff ee ff 09 00 33 00 66 1f 37 05 8e ab 72 c9 07 80 00 00 00 80 00 00 00 00 09 09 00 00 00 00 00 89 c8 72 c9 28 08 00 80 ef 18 46 1e ff e1 cd
# ReportID: 1 / X:  129 | Y:  126 | Z:  129 | Rz:  126 | Rx:    0 | Ry:    0 | 0xff000020:  231 | Hat switch:   8 | Button: 0  0  0  0  0  0  0  0  0  0  0  0  0  0  0 | 0xff000021: 0 , 0 , 0 , 0 , 0 , 0 , 0 , 0 , 0 , 0 , 0 , 0 , 0 | 0xff000022:  196 ,   27 ,   42 ,  235 ,  248 ,  255 ,  238 ,  255 ,   10 ,    0 ,   44 ,    0 ,   99 ,   31 ,   54 ,    5 ,  130 ,  218 ,  114 ,  201 ,    8 ,  128 ,    0 ,    0 ,    0 ,  128 ,    0 ,    0 ,    0 ,    0 ,    9 ,    9 ,    0 ,    0 ,    0 ,    0 ,    0 ,  105 ,  247 ,  114 ,  201 ,   40 ,    8 ,    0 ,  251 ,   18 ,  218 ,  161 ,   77 ,  241 ,   27 ,  183 
E: 000000.188534 64 01 81 7e 81 7e 00 00 e7 08 00 00 00 c4 1b 2a eb f8 ff ee ff 0a 00 2c 00 63 1f 36 05 82 da 72 c9 08 80 00 00 00 80 00 00 00 00 09 09 00 00 00 00 00 69 f7 72 c9 28 08 00 fb 12 da a1 4d f1 1b b7
# ReportID: 1 / X:  129 | Y:  126 | Z:  129 | Rz:  126 | Rx:    0 | Ry:    0 | 0xff000020:  232 | Hat switch:   8 | Button: 0  0  0  0  0  0  0  0  0  0  0  0  0  0  0 | 0xff000021: 0 , 0 , 0 , 0 , 0 , 0 , 0 , 0 , 0 , 0 , 0 , 0 , 0 | 0xff000022:  197 ,   27 ,   42 ,  235 ,  248 ,  255 ,  240 ,  255 ,   10 ,    0 ,   55 ,    0 ,   89 ,   31 ,   41 ,    5 ,  117 ,    9 ,  115 ,  201 ,    8 ,  128 ,    0 ,    0 ,    0 ,  128 ,    0 ,    0 ,    0 ,    0 ,    9 ,    9 ,    0 ,    0 ,    0 ,    0 ,    0 ,   73 ,   38 ,  115 ,  201 ,   40 ,    8 ,    0 ,  194 ,   14 ,  132 ,   42 ,   16 ,   82 ,   54 ,    4 
E: 000000.192647 64 01 81 7e 81 7e 00 00 e8 08 00 00 00 c5 1b 2a eb f8 ff f0 ff 0a 00 37 00 59 1f 29 05 75 09 73 c9 08 80 00 00 00 80 00 00 00 00 09 09 00 00 00 00 00 49 26 73 c9 28 08 00 c2 0e 84 2a 10 52 36 04
# ReportID: 1 / X:  129 | Y:  126 | Z:  129 | Rz:  126 | Rx:    0 | Ry:    0 | 0xff000020:  233 | Hat switch:   8 | Button: 0  0  0  0  0  0  0  0  0  0  0  0  0  0  0 | 0xff000021: 0 , 0 , 0 , 0 , 0 , 0 , 0 , 0 , 0 , 0 , 0 , 0 , 0 | 0xff000022:  198 ,   27 ,   42 ,  235 ,  248 ,  255 ,  239 ,  255 ,   11 ,    0 ,   67 ,    0 ,   85 ,   31 ,   37 ,    5 ,  104 ,   56 ,  115 ,  201 ,    8 ,  128 ,    0 ,    0 ,    0 ,  128 ,    0 ,    0 ,    0 ,    0 ,    9 ,    9 ,    0 ,    0 ,    0 ,    0 ,    0 ,   41 ,   85 ,  115 ,  201 ,   40 ,    8 ,    0 ,  244 ,  191 ,  190 ,   26 ,  185 ,    7 ,  254 ,  236 
E: 000000.196589 64 01 81 7e 81 7e 00 00 e9 08 00 00 00 c6 1b 2a eb f8 ff ef ff 0b 00 43 00 55 1f 25 05 68 38 73 c9 08 80 00 00 00 80 00 00 00 00 09 09 00 00 00 00 00 29 55 73 c9 28 08 00 f4 bf be 1a b9 07 fe ec
# ReportID: 1 / X:  129 | Y:  126 | Z:  129 | Rz:  126 | Rx:    0 | Ry:    0 | 0xff000020:  234 | Hat switch:   8 | Button: 0  0  0  0  0  0  0  0  0  0  0  0  0  0  0 | 0xff000021: 0 , 0 , 0 , 0 , 0 , 0 , 0 , 0 , 0 , 0 , 0 , 0 , 0 | 0xff000022:  199 ,   27 ,   42 ,  235 ,  247 ,  255 ,  238 ,  255 ,   11 ,    0 ,   53 ,    0 ,   78 ,   31 ,   41 ,    5 ,   91 ,  103 ,  115 ,  201 ,    8 ,  128 ,    0 ,    0 ,    0 ,  128 ,    0 ,    0 ,    0 ,    0 ,    9 ,    9 ,    0 ,    0 ,    0 ,    0 ,    0 ,    9 ,  132 ,  115 ,  201 ,   40 ,    8 ,    0 ,  131 ,  152 ,   69 ,  249 ,  101 ,   86 ,  231 ,  239 
E: 000000.201685 64 01 81 7e 81 7e 00 00 ea 08 00 00 00 c7 1b 2a eb f7 ff ee ff 0b 00 35 00 4e 1f 29 05 5b 67 73 c9 08 80 00 00 00 80 00 00 00 00 09 09 00 00 00 00 00 09 84 73 c9 28 08 00 83 98 45 f9 65 56 e7 ef
# ReportID: 1 / X:  129 | Y:  126 | Z:  129 | Rz:  126 | Rx:    0 | Ry:    0 | 0xff000020:  235 | Hat switch:   8 | Button: 0  0  0  0  0  0  0  0  0  0  0  0  0  0  0 | 0xff000021: 0 , 0 , 0 , 0 , 0 , 0 , 0 , 0 , 0 , 0 , 0 , 0 , 0 | 0xff000022:  200 ,   27 ,   42 ,  235 ,  248 ,  255 ,  238 ,  255 ,   10 ,    0 ,   60 ,    0 ,   67 ,   31 ,   42 ,    5 ,   78 ,  150 ,  115 ,  201 ,    7 ,  128 ,    0 ,    0 ,    0 ,  128 ,    0 ,    0 ,    0 ,    0 ,    9 ,    9 ,    0 ,    0 ,    0 ,    0 ,    0 ,  233 ,  178 ,  115 ,  201 ,   40 ,    8 ,    0 ,   87 ,  132 ,  228 ,  156 ,  109 ,   23 ,  162 ,  192 
E: 000000.205250 64 01 81 7e 81 7e 00 00 eb 08 00 00 00 c8 1b 2a eb f8 ff ee ff 0a 00 3c 00 43 1f 2a 05 4e 96 73 c9 07 80 00 00 00 80 00 00 00 00 09 09 00 00 00 00 00 e9 b2 73 c9 28 08 00 57 84 e4 9c 6d 17 a2 c0
# ReportID: 1 / X:  129 | Y:  126 | Z:  129 | Rz:  126 | Rx:    0 | Ry:    0 | 0xff000020:  236 | Hat switch:   8 | Button: 0  0  0  0  0  0  0  0  0  0  0  0  0  0  0 | 0xff000021: 0 , 0 , 0 , 0 , 0 , 0 , 0 , 0 , 0 , 0 , 0 , 0 , 0 | 0xff000022:  201 ,   27 ,   42 ,  235 ,  249 ,  255 ,  239 ,  255 ,   10 ,    0 ,   54 ,    0 ,   95 ,   31 ,   51 ,    5 ,   65 ,  197 ,  115 ,  201 ,    7 ,  128 ,    0 ,    0 ,    0 ,  128 ,    0 ,    0 ,    0 ,    0 ,    9 ,    9 ,    0 ,    0 ,    0 ,    0 ,    0 ,  201 ,  225 ,  115 ,  201 ,   40 ,    8 ,    0 ,  246 ,  108 ,  243 ,   56 ,  164 ,  129 ,  215 ,  235 
E: 000000.208587 64 01 81 7e 81 7e 00 00 ec 08 00 00 00 c9 1b 2a eb f9 ff ef ff 0a 00 36 00 5f 1f 33 05 41 c5 73 c9 07 80 00 00 00 80 00 00 00 00 09 09 00 00 00 00 00 c9 e1 73 c9 28 08 00 f6 6c f3 38 a4 81 d7 eb
# ReportID: 1 / X:  129 | Y:  126 | Z:  129 | Rz:  126 | Rx:    0 | Ry:    0 | 0xff000020:  237 | Hat switch:   8 | Button: 0  0  0  0  0  0  0  0  0  0  0  0  0  0  0 | 0xff000021: 0 , 0 , 0 , 0 , 0 , 0 , 0 , 0 , 0 , 0 , 0 , 0 , 0 | 0xff000022:  202 ,   27 ,   42 ,  235 ,  249 ,  255 ,  239 ,  255 ,   10 ,    0 ,   49 ,    0 ,   97 ,   31 ,   42 ,    5 ,   52 ,  244 ,  115 ,  201 ,    7 ,  128 ,    0 ,    0 ,    0 ,  128 ,    0 ,    0 ,    0 ,    0 ,    9 ,    9 ,    0 ,    0 ,    0 ,    0 ,    0 ,  169 ,   16 ,  116 ,  201 ,   40 ,    8 ,    0 ,  119 ,  172 ,   91 ,   79 ,   39 ,   60 ,   69 ,  102 
E: 000000.212547 64 01 81 7e 81 7e 00 00 ed 08 00 00 00 ca 1b 2a eb f9 ff ef ff 0a 00 31 00 61 1f 2a 05 34 f4 73 c9 07 80 00 00 00 80 00 00 00 00 09 09 00 00 00 00 00 a9 10 74 c9 28 08 00 77 ac 5b 4f 27 3c 45 66
# ReportID: 1 / X:  129 | Y:  126 | Z:  129 | Rz:  126 | Rx:    0 | Ry:    0 | 0xff000020:  238 | Hat switch:   8 | Button: 0  0  0  0  0  0  0  0  0  0  0  0  0  0  0 | 0xff000021: 0 , 0 , 0 , 0 , 0 , 0 , 0 , 0 , 0 , 0 , 0 , 0 , 0 | 0xff000022:  203 ,   27 ,   42 ,  235 ,  249 ,  255 ,  238 ,  255 ,   10 ,    0 ,   58 ,    0 ,   99 ,   31 ,   37 ,    5 ,   39 ,   35 ,  116 ,  201 ,    7 ,  128 ,    0 ,    0 ,    0 ,  128 ,    0 ,    0 ,    0 ,    0 ,    9 ,    9 ,    0 ,    0 ,    0 ,    0 ,    0 ,  137 ,   63 ,  116 ,  201 ,   40 ,    8 ,    0 ,   11 ,   31 ,   80 ,  148 ,  167 ,   58 ,  208 ,    1 
E: 000000.216593 64 01 81 7e 81 7e 00 00 ee 08 00 00 00 cb 1b 2a eb f9 ff ee ff 0a 00 3a 00 63 1f 25 05 27 23 74 c9 07 80 00 00 00 80 00 00 00 00 09 09 00 00 00 00 00 89 3f 74 c9 28 08 00 0b 1f 50 94 a7 3a d0 01
# ReportID: 1 / X:  129 | Y:  126 | Z:  129 | Rz:  126 | Rx:    0 | Ry:    0 | 0xff000020:  239 | Hat switch:   8 | Button: 0  0  0  0  0  0  0  0  0  0  0  0  0  0  0 | 0xff000021: 0 , 0 , 0 , 0 , 0 , 0 , 0 , 0 , 0 , 0 , 0 , 0 , 0 | 0xff000022:  204 ,   27 ,   42 ,  235 ,  248 ,  255 ,  239 ,  255 ,   10 ,    0 ,   56 ,    0 ,   95 ,   31 ,   47 ,    5 ,   26 ,   82 ,  116 ,  201 ,    7 ,  128 ,    0 ,    0 ,    0 ,  128 ,    0 ,    0 ,    0 ,    0 ,    9 ,    9 ,    0 ,    0 ,    0 ,    0 ,    0 ,  105 ,  110 ,  116 ,  201 ,   40 ,    8 ,    0 ,  173 ,   78 ,  107 ,  244 ,    0 ,   95 ,   30 ,   52 
E: 000000.220474 64 01 81 7e 81 7e 00 00 ef 08 00 00 00 cc 1b 2a eb f8 ff ef ff 0a 00 38 00 5f 1f 2f 05 1a 52 74 c9 07 80 00 00 00 80 00 00 00 00 09 09 00 00 00 00 00 69 6e 74 c9 28 08 00 ad 4e 6b f4 00 5f 1e 34
# ReportID: 1 / X:  129 | Y:  126 | Z:  129 | Rz:  126 | Rx:    0 | Ry:    0 | 0xff000020:  240 | Hat switch:   8 | Button: 0  0  0  0  0  0  0  0  0  0  0  0  0  0  0 | 0xff000021: 0 , 0 , 0 , 0 , 0 , 0 , 0 , 0 , 0 , 0 , 0 , 0 , 0 | 0xff000022:  205 ,   27 ,   42 ,  235 ,  249 ,  255 ,  240 ,  255 ,   10 ,    0 ,   47 ,    0 ,   82 ,   31 ,   43 ,    5 ,   13 ,  129 ,  116 ,  201 ,    8 ,  128 ,    0 ,    0 ,    0 ,  128 ,    0 ,    0 ,    0 ,    0 ,    9 ,    9 ,    0 ,    0 ,    0 ,    0 ,    0 ,   73 ,  157 ,  116 ,  201 ,   40 ,    8 ,    0 ,  201 ,  113 ,  245 ,   93 ,  123 ,  226 ,  179 ,   20 
E: 000000.226216 64 01 81 7e 81 7e 00 00 f0 08 00 00 00 cd 1b 2a eb f9 ff f0 ff 0a 00 2f 00 52 1f 2b 05 0d 81 74 c9 08 80 00 00 00 80 00 00 00 00 09 09 00 00 00 00 00 49 9d 74 c9 28 08 00 c9 71 f5 5d 7b e2 b3 14
# ReportID: 1 / X:  129 | Y:  127 | Z:  129 | Rz:  126 | Rx:    0 | Ry:    0 | 0xff000020:  241 | Hat switch:   8 | Button: 0  0  0  0  0  0  0  0  0  0  0  0  0  0  0 | 0xff000021: 0 , 0 , 0 , 0 , 0 , 0 , 0 , 0 , 0 , 0 , 0 , 0 , 0 | 0xff000022:  206 ,   27 ,   42 ,  235 ,  249 ,  255 ,  239 ,  255 ,    9 ,    0 ,   47 ,    0 ,   88 ,   31 ,   39 ,    5 ,    0 ,  176 ,  116 ,  201 ,    8 ,  128 ,    0 ,    0 ,    0 ,  128 ,    0 ,    0 ,    0 ,    0 ,    9 ,    9 ,    0 ,    0 ,    0 ,    0 ,    0 ,   41 ,  204 ,  116 ,  201 ,   40 ,    8 ,    0 ,   58 ,  213 ,   42 ,  200 ,  137 ,  228 ,  219 ,  173 
E: 000000.229326 64 01 81 7f 81 7e 00 00 f1 08 00 00 00 ce 1b 2a eb f9 ff ef ff 09 00 2f 00 58 1f 27 05 00 b0 74 c9 08 80 00 00 00 80 00 00 00 00 09 09 00 00 00 00 00 29 cc 74 c9 28 08 00 3a d5 2a c8 89 e4 db ad
# ReportID: 1 / X:  129 | Y:  126 | Z:  129 | Rz:  126 | Rx:    0 | Ry:    0 | 0xff000020:  242 | Hat switch:   8 | Button: 0  0  0  0  0  0  0  0  0  0  0  0  0  0  0 | 0xff000021: 0 , 0 , 0 , 0 , 0 , 0 , 0 , 0 , 0 , 0 , 0 , 0 , 0 | 0xff000022:  207 ,   27 ,   42 ,  235 ,  249 ,  255 ,  240 ,  255 ,   10 ,    0 ,   48 ,    0 ,   83 ,   31 ,   35 ,    5 ,  243 ,  222 ,  116 ,  201 ,    8 ,  128 ,    0 ,    0 ,    0 ,  128 ,    0 ,    0 ,    0 ,    0 ,    9 ,    9 ,    0 ,    0 ,    0 ,    0 ,    0 ,    9 ,  251 ,  116 ,  201 ,   40 ,    8 ,    0 ,  215 ,   17 ,   40 ,  112 ,  232 ,  225 ,   88 ,  166 
E: 000000.232622 64 01 81 7e 81 7e 00 00 f2 08 00 00 00 cf 1b 2a eb f9 ff f0 ff 0a 00 30 00 53 1f 23 05 f3 de 74 c9 08 80 00 00 00 80 00 00 00 00 09 09 00 00 00 00 00 09 fb 74 c9 28 08 00 d7 11 28 70 e8 e1 58 a6
# ReportID: 1 / X:  129 | Y:  126 | Z:  129 | Rz:  126 | Rx:    0 | Ry:    0 | 0xff000020:  243 | Hat switch:   8 | Button: 0  0  0  0  0  0  0  0  0  0  0  0  0  0  0 | 0xff000021: 0 , 0 , 0 , 0 , 0 , 0 , 0 , 0 , 0 , 0 , 0 , 0 , 0 | 0xff000022:  208 ,   27 ,   42 ,  235 ,  251 ,  255 ,  239 ,  255 ,   10 ,    0 ,   49 ,    0 ,   95 ,   31 ,   39 ,    5 ,  230 ,   13 ,  117 ,  201 ,    8 ,  128 ,    0 ,    0 ,    0 ,  128 ,    0 ,    0 ,    0 ,    0 ,    9 ,    9 ,    0 ,    0 ,    0 ,    0 ,    0 ,  233 ,   41 ,  117 ,  201 ,   40 ,    8 ,    0 ,  241 ,   86 ,  223 ,  224 ,   68 ,  117 ,  178 ,   93 
E: 000000.236514 64 01 81 7e 81 7e 00 00 f3 08 00 00 00 d0 1b 2a eb fb ff ef ff 0a 00 31 00 5f 1f 27 05 e6 0d 75 c9 08 80 00 00 00 80 00 00 00 00 09 09 00 00 00 00 00 e9 29 75 c9 28 08 00 f1 56 df e0 44 75 b2 5d
# ReportID: 1 / X:  129 | Y:  126 | Z:  129 | Rz:  126 | Rx:    0 | Ry:    0 | 0xff000020:  244 | Hat switch:   8 | Button: 0  0  0  0  0  0  0  0  0  0  0  0  0  0  0 | 0xff000021: 0 , 0 , 0 , 0 , 0 , 0 , 0 , 0 , 0 , 0 , 0 , 0 , 0 | 0xff000022:  209 ,   27 ,   42 ,  235 ,  252 ,  255 ,  239 ,  255 ,    9 ,    0 ,   49 ,    0 ,   96 ,   31 ,   38 ,    5 ,  217 ,   60 ,  117 ,  201 ,    8 ,  128 ,    0 ,    0 ,    0 ,  128 ,    0 ,    0 ,    0 ,    0 ,    9 ,    9 ,    0 ,    0 ,    0 ,    0 ,    0 ,  201 ,   88 ,  117 ,  201 ,   40 ,    8 ,    0 ,  175 ,   98 ,  110 ,  151 ,   80 ,   14 ,  217 ,   93 
E: 000000.241799 64 01 81 7e 81 7e 00 00 f4 08 00 00 00 d1 1b 2a eb fc ff ef ff 09 00 31 00 60 1f 26 05 d9 3c 75 c9 08 80 00 00 00 80 00 00 00 00 09 09 00 00 00 00 00 c9 58 75 c9 28 08 00 af 62 6e 97 50 0e d9 5d
# ReportID: 1 / X:  129 | Y:  126 | Z:  129 | Rz:  126 | Rx:    0 | Ry:    0 | 0xff000020:  245 | Hat switch:   8 | Button: 0  0  0  0  0  0  0  0  0  0  0  0  0  0  0 | 0xff000021: 0 , 0 , 0 , 0 , 0 , 0 , 0 , 0 , 0 , 0 , 0 , 0 , 0 | 0xff000022:  210 ,   27 ,   42 ,  235 ,  252 ,  255 ,  238 ,  255 ,    8 ,    0 ,   53 ,    0 ,   91 ,   31 ,   43 ,    5 ,  204 ,  107 ,  117 ,  201 ,    8 ,  128 ,    0 ,    0 ,    0 ,  128 ,    0 ,    0 ,    0 ,    0 ,    9 ,    9 ,    0 ,    0 ,    0 ,    0 ,    0 ,  169 ,  135 ,  117 ,  201 ,   40 ,    8 ,    0 ,  187 ,  228 ,  232 ,  174 ,  100 ,   91 ,  219 ,  254 
E: 000000.245157 64 01 81 7e 81 7e 00 00 f5 08 00 00 00 d2 1b 2a eb fc ff ee ff 08 00 35 00 5b 1f 2b 05 cc 6b 75 c9 08 80 00 00 00 80 00 00 00 00 09 09 00 00 00 00 00 a9 87 75 c9 28 08 00 bb e4 e8 ae 64 5b db fe
# ReportID: 1 / X:  129 | Y:  126 | Z:  129 | Rz:  126 | Rx:    0 | Ry:    0 | 0xff000020:  246 | Hat switch:   8 | Button: 0  0  0  0  0  0  0  0  0  0  0  0  0  0  0 | 0xff000021: 0 , 0 , 0 , 0 , 0 , 0 , 0 , 0 , 0 , 0 , 0 , 0 , 0 | 0xff000022:  211 ,   27 ,   42 ,  235 ,  251 ,  255 ,  239 ,  255 ,    9 ,    0 ,   52 ,    0 ,   98 ,   31 ,   44 ,    5 ,  191 ,  154 ,  117 ,  201 ,    7 ,  128 ,    0 ,    0 ,    0 ,  128 ,    0 ,    0 ,    0 ,    0 ,    9 ,    9 ,    0 ,    0 ,    0 ,    0 ,    0 ,  137 ,  182 ,  117 ,  201 ,   40 ,    8 ,    0 ,  217 ,  228 ,   36 ,  118 ,  173 ,  185 ,  119 ,  178 
E: 000000.248898 64 01 81 7e 81 7e 00 00 f6 08 00 00 00 d3 1b 2a eb fb ff ef ff 09 00 34 00 62 1f 2c 05 bf 9a 75 c9 07 80 00 00 00 80 00 00 00 00 09 09 00 00 00 00 00 89 b6 75 c9 28 08 00 d9 e4 24 76 ad b9 77 b2
# ReportID: 1 / X:  129 | Y:  126 | Z:  129 | Rz:  126 | Rx:    0 | Ry:    0 | 0xff000020:  247 | Hat switch:   8 | Button: 0  0  0  0  0  0  0  0  0  0  0  0  0  0  0 | 0xff000021: 0 , 0 , 0 , 0 , 0 , 0 , 0 , 0 , 0 , 0 , 0 , 0 , 0 | 0xff000022:  212 ,   27 ,   42 ,  235 ,  253 ,  255 ,  238 ,  255 ,    8 ,    0 ,   53 ,    0 ,   93 ,   31 ,   36 ,    5 ,  178 ,  201 ,  117 ,  201 ,    7 ,  128 ,    0 ,    0 ,    0 ,  128 ,    0 ,    0 ,    0 ,    0 ,    9 ,    9 ,    0 ,    0 ,    0 ,    0 ,    0 ,  105 ,  229 ,  117 ,  201 ,   40 ,    8 ,    0 ,  111 ,  125 ,  196 ,  182 ,  117 ,  121 ,  217 ,   60 
E: 000000.254781 64 01 81 7e 81 7e 00 00 f7 08 00 00 00 d4 1b 2a eb fd ff ee ff 08 00 35 00 5d 1f 24 05 b2 c9 75 c9 07 80 00 00 00 80 00 00 00 00 09 09 00 00 00 00 00 69 e5 75 c9 28 08 00 6f 7d c4 b6 75 79 d9 3c
# ReportID: 1 / X:  129 | Y:  127 | Z:  130 | Rz:  126 | Rx:    0 | Ry:    0 | 0xff000020:  248 | Hat switch:   8 | Button: 0  0  0  0  0  0  0  0  0  0  0  0  0  0  0 | 0xff000021: 0 , 0 , 0 , 0 , 0 , 0 , 0 , 0 , 0 , 0 , 0 , 0 , 0 | 0xff000022:  213 ,   27 ,   42 ,  235 ,  252 ,  255 ,  239 ,  255 ,    9 ,    0 ,   43 ,    0 ,   89 ,   31 ,   38 ,    5 ,  165 ,  248 ,  117 ,  201 ,    8 ,  128 ,    0 ,    0 ,    0 ,  128 ,    0 ,    0 ,    0 ,    0 ,    9 ,    9 ,    0 ,    0 ,    0 ,    0 ,    0 ,   73 ,   20 ,  118 ,  201 ,   40 ,    8 ,    0 ,  238 ,  117 ,   68 ,  108 ,  103 ,  163 ,   43 ,   88 
E: 000000.258365 64 01 81 7f 82 7e 00 00 f8 08 00 00 00 d5 1b 2a eb fc ff ef ff 09 00 2b 00 59 1f 26 05 a5 f8 75 c9 08 80 00 00 00 80 00 00 00 00 09 09 00 00 00 00 00 49 14 76 c9 28 08 00 ee 75 44 6c 67 a3 2b 58
# ReportID: 1 / X:  129 | Y:  126 | Z:  130 | Rz:  126 | Rx:    0 | Ry:    0 | 0xff000020:  249 | Hat switch:   8 | Button: 0  0  0  0  0  0  0  0  0  0  0  0  0  0  0 | 0xff000021: 0 , 0 , 0 , 0 , 0 , 0 , 0 , 0 , 0 , 0 , 0 , 0 , 0 | 0xff000022:  214 ,   27 ,   42 ,  235 ,  252 ,  255 ,  238 ,  255 ,    9 ,    0 ,   41 ,    0 ,   87 ,   31 ,   35 ,    5 ,  152 ,   39 ,  118 ,  201 ,    8 ,  128 ,    0 ,    0 ,    0 ,  128 ,    0 ,    0 ,    0 ,    0 ,    9 ,    9 ,    0 ,    0 ,    0 ,    0 ,    0 ,   41 ,   67 ,  118 ,  201 ,   40 ,    8 ,    0 ,  121 ,   53 ,   23 ,  169 ,  240 ,  113 ,  234 ,   78 
E: 000000.261893 64 01 81 7e 82 7e 00 00 f9 08 00 00 00 d6 1b 2a eb fc ff ee ff 09 00 29 00 57 1f 23 05 98 27 76 c9 08 80 00 00 00 80 00 00 00 00 09 09 00 00 00 00 00 29 43 76 c9 28 08 00 79 35 17 a9 f0 71 ea 4e
# ReportID: 1 / X:  129 | Y:  126 | Z:  131 | Rz:  126 | Rx:    0 | Ry:    0 | 0xff000020:  250 | Hat switch:   8 | Button: 0  0  0  0  0  0  0  0  0  0  0  0  0  0  0 | 0xff000021: 0 , 0 , 0 , 0 , 0 , 0 , 0 , 0 , 0 , 0 , 0 , 0 , 0 | 0xff000022:  215 ,   27 ,   42 ,  235 ,  249 ,  255 ,  239 ,  255 ,    9 ,    0 ,   47 ,    0 ,   71 ,   31 ,   37 ,    5 ,  139 ,   86 ,  118 ,  201 ,    8 ,  128 ,    0 ,    0 ,    0 ,  128 ,    0 ,    0 ,    0 ,    0 ,    9 ,    9 ,    0 ,    0 ,    0 ,    0 ,    0 ,    9 ,  114 ,  118 ,  201 ,   40 ,    8 ,    0 ,   94 ,   77 ,  136 ,   67 ,  239 ,  194 ,    9 ,  227 
E: 000000.264959 64 01 81 7e 83 7e 00 00 fa 08 00 00 00 d7 1b 2a eb f9 ff ef ff 09 00 2f 00 47 1f 25 05 8b 56 76 c9 08 80 00 00 00 80 00 00 00 00 09 09 00 00 00 00 00 09 72 76 c9 28 08 00 5e 4d 88 43 ef c2 09 e3
# ReportID: 1 / X:  129 | Y:  126 | Z:  131 | Rz:  126 | Rx:    0 | Ry:    0 | 0xff000020:  251 | Hat switch:   8 | Button: 0  0  0  0  0  0  0  0  0  0  0  0  0  0  0 | 0xff000021: 0 , 0 , 0 , 0 , 0 , 0 , 0 , 0 , 0 , 0 , 0 , 0 , 0 | 0xff000022:  216 ,   27 ,   42 ,  235 ,  251 ,  255 ,  239 ,  255 ,    9 ,    0 ,   48 ,    0 ,   86 ,   31 ,   41 ,    5 ,  126 ,  133 ,  118 ,  201 ,    7 ,  128 ,    0 ,    0 ,    0 ,  128 ,    0 ,    0 ,    0 ,    0 ,    9 ,    9 ,    0 ,    0 ,    0 ,    0 ,    0 ,  233 ,  160 ,  118 ,  201 ,   40 ,    8 ,    0 ,  139 ,  119 ,    1 ,  104 ,   45 ,  161 ,  238 ,   47 
E: 000000.268663 64 01 81 7e 83 7e 00 00 fb 08 00 00 00 d8 1b 2a eb fb ff ef ff 09 00 30 00 56 1f 29 05 7e 85 76 c9 07 80 00 00 00 80 00 00 00 00 09 09 00 00 00 00 00 e9 a0 76 c9 28 08 00 8b 77 01 68 2d a1 ee 2f
# ReportID: 1 / X:  129 | Y:  126 | Z:  132 | Rz:  126 | Rx:    0 | Ry:    0 | 0xff000020:  252 | Hat switch:   8 | Button: 0  0  0  0  0  0  0  0  0  0  0  0  0  0  0 | 0xff000021: 0 , 0 , 0 , 0 , 0 , 0 , 0 , 0 , 0 , 0 , 0 , 0 , 0 | 0xff000022:  217 ,   27 ,   42 ,  235 ,  252 ,  255 ,  238 ,  255 ,    9 ,    0 ,   50 ,    0 ,   94 ,   31 ,   49 ,    5 ,  113 ,  180 ,  118 ,  201 ,    8 ,  128 ,    0 ,    0 ,    0 ,  128 ,    0 ,    0 ,    0 ,    0 ,    9 ,    9 ,    0 ,    0 ,    0 ,    0 ,    0 ,  201 ,  207 ,  118 ,  201 ,   40 ,    8 ,    0 ,  130 ,    2 ,    9 ,  138 ,  235 ,    0 ,  211 ,  134 
E: 000000.272577 64 01 81 7e 84 7e 00 00 fc 08 00 00 00 d9 1b 2a eb fc ff ee ff 09 00 32 00 5e 1f 31 05 71 b4 76 c9 08 80 00 00 00 80 00 00 00 00 09 09 00 00 00 00 00 c9 cf 76 c9 28 08 00 82 02 09 8a eb 00 d3 86
# ReportID: 1 / X:  129 | Y:  126 | Z:  132 | Rz:  126 | Rx:    0 | Ry:    0 | 0xff000020:  253 | Hat switch:   8 | Button: 0  0  0  0  0  0  0  0  0  0  0  0  0  0  0 | 0xff000021: 0 , 0 , 0 , 0 , 0 , 0 , 0 , 0 , 0 , 0 , 0 , 0 , 0 | 0xff000022:  218 ,   27 ,   42 ,  235 ,  252 ,  255 ,  239 ,  255 ,    9 ,    0 ,   45 ,    0 ,   93 ,   31 ,   48 ,    5 ,  100 ,  227 ,  118 ,  201 ,    7 ,  128 ,    0 ,    0 ,    0 ,  128 ,    0 ,    0 ,    0 ,    0 ,    9 ,    9 ,    0 ,    0 ,    0 ,    0 ,    0 ,  169 ,  254 ,  118 ,  201 ,   40 ,    8 ,    0 ,  161 ,  214 ,   97 ,  203 ,  202 ,  193 ,  194 ,  190 
E: 000000.277059 64 01 81 7e 84 7e 00 00 fd 08 00 00 00 da 1b 2a eb fc ff ef ff 09 00 2d 00 5d 1f 30 05 64 e3 76 c9 07 80 00 00 00 80 00 00 00 00 09 09 00 00 00 00 00 a9 fe 76 c9 28 08 00 a1 d6 61 cb ca c1 c2 be
# ReportID: 1 / X:  129 | Y:  126 | Z:  132 | Rz:  126 | Rx:    0 | Ry:    0 | 0xff000020:  254 | Hat switch:   8 | Button: 0  0  0  0  0  0  0  0  0  0  0  0  0  0  0 | 0xff000021: 0 , 0 , 0 , 0 , 0 , 0 , 0 , 0 , 0 , 0 , 0 , 0 , 0 | 0xff000022:  219 ,   27 ,   42 ,  235 ,  252 ,  255 ,  238 ,  255 ,   10 ,    0 ,   43 ,    0 ,   98 ,   31 ,   54 ,    5 ,   87 ,   18 ,  119 ,  201 ,    8 ,  128 ,    0 ,    0 ,    0 ,  128 ,    0 ,    0 ,    0 ,    0 ,    9 ,    9 ,    0 ,    0 ,    0 ,    0 ,    0 ,  137 ,   45 ,  119 ,  201 ,   40 ,    8 ,    0 ,  137 ,  237 ,   20 ,  206 ,  127 ,   26 ,  189 ,   45 
E: 000000.281062 64 01 81 7e 84 7e 00 00 fe 08 00 00 00 db 1b 2a eb fc ff ee ff 0a 00 2b 00 62 1f 36 05 57 12 77 c9 08 80 00 00 00 80 00 00 00 00 09 09 00 00 00 00 00 89 2d 77 c9 28 08 00 89 ed 14 ce 7f 1a bd 2d
# ReportID: 1 / X:  129 | Y:  126 | Z:  133 | Rz:  126 | Rx:    0 | Ry:    0 | 0xff000020:  255 | Hat switch:   8 | Button: 0  0  0  0  0  0  0  0  0  0  0  0  0  0  0 | 0xff000021: 0 , 0 , 0 , 0 , 0 , 0 , 0 , 0 , 0 , 0 , 0 , 0 , 0 | 0xff000022:  220 ,   27 ,   42 ,  235 ,  253 ,  255 ,  238 ,  255 ,    8 ,    0 ,   53 ,    0 ,   91 ,   31 ,   64 ,    5 ,   74 ,   65 ,  119 ,  201 ,    7 ,  128 ,    0 ,    0 ,    0 ,  128 ,    0 ,    0 ,    0 ,    0 ,    9 ,    9 ,    0 ,    0 ,    0 ,    0 ,    0 ,  105 ,   92 ,  119 ,  201 ,   40 ,    8 ,    0 ,  147 ,  233 ,   28 ,  175 ,  142 ,   44 ,  204 ,  206 
E: 000000.285551 64 01 81 7e 85 7e 00 00 ff 08 00 00 00 dc 1b 2a eb fd ff ee ff 08 00 35 00 5b 1f 40 05 4a 41 77 c9 07 80 00 00 00 80 00 00 00 00 09 09 00 00 00 00 00 69 5c 77 c9 28 08 00 93 e9 1c af 8e 2c cc ce
# ReportID: 1 / X:  129 | Y:  126 | Z:  133 | Rz:  126 | Rx:    0 | Ry:    0 | 0xff000020:    0 | Hat switch:   8 | Button: 0  0  0  0  0  0  0  0  0  0  0  0  0  0  0 | 0xff000021: 0 , 0 , 0 , 0 , 0 , 0 , 0 , 0 , 0 , 0 , 0 , 0 , 0 | 0xff000022:  221 ,   27 ,   42 ,  235 ,  251 ,  255 ,  238 ,  255 ,    9 ,    0 ,   53 ,    0 ,   92 ,   31 ,   59 ,    5 ,   61 ,  112 ,  119 ,  201 ,    7 ,  128 ,    0 ,    0 ,    0 ,  128 ,    0 ,    0 ,    0 ,    0 ,    9 ,    9 ,    0 ,    0 ,    0 ,    0 ,    0 ,   73 ,  139 ,  119 ,  201 ,   40 ,    8 ,    0 ,  117 ,   81 ,  133 ,  199 ,   65 ,   50 ,   54 ,   18 
E: 000000.288511 64 01 81 7e 85 7e 00 00 00 08 00 00 00 dd 1b 2a eb fb ff ee ff 09 00 35 00 5c 1f 3b 05 3d 70 77 c9 07 80 00 00 00 80 00 00 00 00 09 09 00 00 00 00 00 49 8b 77 c9 28 08 00 75 51 85 c7 41 32 36 12
# ReportID: 1 / X:  129 | Y:  126 | Z:  133 | Rz:  126 | Rx:    0 | Ry:    0 | 0xff000020:    1 | Hat switch:   8 | Button: 0  0  0  0  0  0  0  0  0  0  0  0  0  0  0 | 0xff000021: 0 , 0 , 0 , 0 , 0 , 0 , 0 , 0 , 0 , 0 , 0 , 0 , 0 | 0xff000022:  222 ,   27 ,   42 ,  235 ,  251 ,  255 ,  238 ,  255 ,   10 ,    0 ,   52 ,    0 ,   81 ,   31 ,   58 ,    5 ,   48 ,  159 ,  119 ,  201 ,    8 ,  128 ,    0 ,    0 ,    0 ,  128 ,    0 ,    0 ,    0 ,    0 ,    9 ,    9 ,    0 ,    0 ,    0 ,    0 ,    0 ,   41 ,  186 ,  119 ,  201 ,   40 ,    8 ,    0 ,   96 ,  235 ,   93 ,  165 ,    5 ,   16 ,  127 ,  127 
E: 000000.293060 64 01 81 7e 85 7e 00 00 01 08 00 00 00 de 1b 2a eb fb ff ee ff 0a 00 34 00 51 1f 3a 05 30 9f 77 c9 08 80 00 00 00 80 00 00 00 00 09 09 00 00 00 00 00 29 ba 77 c9 28 08 00 60 eb 5d a5 05 10 7f 7f
# ReportID: 1 / X:  129 | Y:  126 | Z:  133 | Rz:  126 | Rx:    0 | Ry:    0 | 0xff000020:    2 | Hat switch:   8 | Button: 0  0  0  0  0  0  0  0  0  0  0  0  0  0  0 | 0xff000021: 0 , 0 , 0 , 0 , 0 , 0 , 0 , 0 , 0 , 0 , 0 , 0 , 0 | 0xff000022:  223 ,   27 ,   42 ,  235 ,  250 ,  255 ,  238 ,  255 ,   10 ,    0 ,   56 ,    0 ,   76 ,   31 ,   61 ,    5 ,   35 ,  206 ,  119 ,  201 ,    7 ,  128 ,    0 ,    0 ,    0 ,  128 ,    0 ,    0 ,    0 ,    0 ,    9 ,    9 ,    0 ,    0 ,    0 ,    0 ,    0 ,    9 ,  233 ,  119 ,  201 ,   40 ,    8 ,    0 ,  122 ,  189 ,   30 ,  208 ,  132 ,  154 ,  164 ,  157 
E: 000000.296583 64 01 81 7e 85 7e 00 00 02 08 00 00 00 df 1b 2a eb fa ff ee ff 0a 00 38 00 4c 1f 3d 05 23 ce 77 c9 07 80 00 00 00 80 00 00 00 00 09 09 00 00 00 00 00 09 e9 77 c9 28 08 00 7a bd 1e d0 84 9a a4 9d
# ReportID: 1 / X:  129 | Y:  126 | Z:  133 | Rz:  126 | Rx:    0 | Ry:    0 | 0xff000020:    3 | Hat switch:   8 | Button: 0  0  0  0  0  0  0  0  0  0  0  0  0  0  0 | 0xff000021: 0 , 0 , 0 , 0 , 0 , 0 , 0 , 0 , 0 , 0 , 0 , 0 , 0 | 0xff000022:  224 ,   27 ,   42 ,  235 ,  249 ,  255 ,  239 ,  255 ,   10 ,    0 ,   55 ,    0 ,   76 ,   31 ,   48 ,    5 ,   22 ,  253 ,  119 ,  201 ,    8 ,  128 ,    0 ,    0 ,    0 ,  128 ,    0 ,    0 ,    0 ,    0 ,    9 ,    9 ,    0 ,    0 ,    0 ,    0 ,    0 ,  233 ,   23 ,  120 ,  201 ,   40 ,    8 ,    0 ,   61 ,   35 ,  146 ,  188 ,  186 ,  123 ,  153 ,   54 
E: 000000.300702 64 01 81 7e 85 7e 00 00 03 08 00 00 00 e0 1b 2a eb f9 ff ef ff 0a 00 37 00 4c 1f 30 05 16 fd 77 c9 08 80 00 00 00 80 00 00 00 00 09 09 00 00 00 00 00 e9 17 78 c9 28 08 00 3d 23 92 bc ba 7b 99 36
# ReportID: 1 / X:  129 | Y:  126 | Z:  133 | Rz:  126 | Rx:    0 | Ry:    0 | 0xff000020:    4 | Hat switch:   8 | Button: 0  0  0  0  0  0  0  0  0  0  0  0  0  0  0 | 0xff000021: 0 , 0 , 0 , 0 , 0 , 0 , 0 , 0 , 0 , 0 , 0 , 0 , 0 | 0xff000022:  225 ,   27 ,   42 ,  235 ,  249 ,  255 ,  238 ,  255 ,   10 ,    0 ,   53 ,    0 ,   69 ,   31 ,   60 ,    5 ,    9 ,   44 ,  120 ,  201 ,    8 ,  128 ,    0 ,    0 ,    0 ,  128 ,    0 ,    0 ,    0 ,    0 ,    9 ,    9 ,    0 ,    0 ,    0 ,    0 ,    0 ,  201 ,   70 ,  120 ,  201 ,   40 ,    8 ,    0 ,  210 ,   14 ,  138 ,  147 ,  187 ,   41 ,  109 ,   13 
E: 000000.304588 64 01 81 7e 85 7e 00 00 04 08 00 00 00 e1 1b 2a eb f9 ff ee ff 0a 00 35 00 45 1f 3c 05 09 2c 78 c9 08 80 00 00 00 80 00 00 00 00 09 09 00 00 00 00 00 c9 46 78 c9 28 08 00 d2 0e 8a 93 bb 29 6d 0d
# ReportID: 1 / X:  129 | Y:  126 | Z:  134 | Rz:  126 | Rx:    0 | Ry:    0 | 0xff000020:    5 | Hat switch:   8 | Button: 0  0  0  0  0  0  0  0  0  0  0  0  0  0  0 | 0xff000021: 0 , 0 , 0 , 0 , 0 , 0 , 0 , 0 , 0 , 0 , 0 , 0 , 0 | 0xff000022:  226 ,   27 ,   42 ,  235 ,  249 ,  255 ,  238 ,  255 ,   11 ,    0 ,   48 ,    0 ,   79 ,   31 ,   58 ,    5 ,  252 ,   90 ,  120 ,  201 ,    8 ,  128 ,    0 ,    0 ,    0 ,  128 ,    0 ,    0 ,    0 ,    0 ,    9 ,    9 ,    0 ,    0 ,    0 ,    0 ,    0 ,  169 ,  117 ,  120 ,  201 ,   40 ,    8 ,    0 ,  211 ,   58 ,  190 ,   18 ,  221 ,  197 ,   88 ,  105 
E: 000000.308709 64 01 81 7e 86 7e 00 00 05 08 00 00 00 e2 1b 2a eb f9 ff ee ff 0b 00 30 00 4f 1f 3a 05 fc 5a 78 c9 08 80 00 00 00 80 00 00 00 00 09 09 00 00 00 00 00 a9 75 78 c9 28 08 00 d3 3a be 12 dd c5 58 69
# ReportID: 1 / X:  129 | Y:  126 | Z:  134 | Rz:  126 | Rx:    0 | Ry:    0 | 0xff000020:    6 | Hat switch:   8 | Button: 0  0  0  0  0  0  0  0  0  0  0  0  0  0  0 | 0xff000021: 0 , 0 , 0 , 0 , 0 , 0 , 0 , 0 , 0 , 0 , 0 , 0 , 0 | 0xff000022:  227 ,   27 ,   42 ,  235 ,  250 ,  255 ,  239 ,  255 ,   10 ,    0 ,   51 ,    0 ,   85 ,   31 ,   56 ,    5 ,  239 ,  137 ,  120 ,  201 ,    8 ,  128 ,    0 ,    0 ,    0 ,  128 ,    0 ,    0 ,    0 ,    0 ,    9 ,    9 ,    0 ,    0 ,    0 ,    0 ,    0 ,  137 ,  164 ,  120 ,  201 ,   40 ,    8 ,    0 ,  198 ,  130 ,  209 ,   64 ,   51 ,  209 ,  179 ,  234 
E: 000000.312740 64 01 81 7e 86 7e 00 00 06 08 00 00 00 e3 1b 2a eb fa ff ef ff 0a 00 33 00 55 1f 38 05 ef 89 78 c9 08 80 00 00 00 80 00 00 00 00 09 09 00 00 00 00 00 89 a4 78 c9 28 08 00 c6 82 d1 40 33 d1 b3 ea
# ReportID: 1 / X:  129 | Y:  126 | Z:  134 | Rz:  126 | Rx:    0 | Ry:    0 | 0xff000020:    7 | Hat switch:   8 | Button: 0  0  0  0  0  0  0  0  0  0  0  0  0  0  0 | 0xff000021: 0 , 0 , 0 , 0 , 0 , 0 , 0 , 0 , 0 , 0 , 0 , 0 , 0 | 0xff000022:  228 ,   27 ,   42 ,  235 ,  249 ,  255 ,  239 ,  255 ,   10 ,    0 ,   46 ,    0 ,   81 ,   31 ,   49 ,    5 ,  226 ,  184 ,  120 ,  201 ,    7 ,  128 ,    0 ,    0 ,    0 ,  128 ,    0 ,    0 ,    0 ,    0 ,    9 ,    9 ,    0 ,    0 ,    0 ,    0 ,    0 ,  105 ,  211 ,  120 ,  201 ,   40 ,    8 ,    0 ,   81 ,   56 ,   18 ,   67 ,   49 ,  203 ,   74 ,  244 
E: 000000.316570 64 01 81 7e 86 7e 00 00 07 08 00 00 00 e4 1b 2a eb f9 ff ef ff 0a 00 2e 00 51 1f 31 05 e2 b8 78 c9 07 80 00 00 00 80 00 00 00 00 09 09 00 00 00 00 00 69 d3 78 c9 28 08 00 51 38 12 43 31 cb 4a f4
# ReportID: 1 / X:  129 | Y:  126 | Z:  134 | Rz:  126 | Rx:    0 | Ry:    0 | 0xff000020:    8 | Hat switch:   8 | Button: 0  0  0  0  0  0  0  0  0  0  0  0  0  0  0 | 0xff000021: 0 , 0 , 0 , 0 , 0 , 0 , 0 , 0 , 0 , 0 , 0 , 0 , 0 | 0xff000022:  229 ,   27 ,   42 ,  235 ,  249 ,  255 ,  239 ,  255 ,   10 ,    0 ,   51 ,    0 ,   92 ,   31 ,   49 ,    5 ,  213 ,  231 ,  120 ,  201 ,    7 ,  128 ,    0 ,    0 ,    0 ,  128 ,    0 ,    0 ,    0 ,    0 ,    9 ,    9 ,    0 ,    0 ,    0 ,    0 ,    0 ,   73 ,    2 ,  121 ,  201 ,   40 ,    8 ,    0 ,  127 ,  213 ,  165 ,  117 ,  108 ,  216 ,  109 ,  114 
E: 000000.320880 64 01 81 7e 86 7e 00 00 08 08 00 00 00 e5 1b 2a eb f9 ff ef ff 0a 00 33 00 5c 1f 31 05 d5 e7 78 c9 07 80 00 00 00 80 00 00 00 00 09 09 00 00 00 00 00 49 02 79 c9 28 08 00 7f d5 a5 75 6c d8 6d 72
# ReportID: 1 / X:  129 | Y:  126 | Z:  134 | Rz:  126 | Rx:    0 | Ry:    0 | 0xff000020:    9 | Hat switch:   8 | Button: 0  0  0  0  0  0  0  0  0  0  0  0  0  0  0 | 0xff000021: 0 , 0 , 0 , 0 , 0 , 0 , 0 , 0 , 0 , 0 , 0 , 0 , 0 | 0xff000022:  230 ,   27 ,   42 ,  235 ,  248 ,  255 ,  239 ,  255 ,   11 ,    0 ,   55 ,    0 ,   92 ,   31 ,   46 ,    5 ,  200 ,   22 ,  121 ,  201 ,    8 ,  128 ,    0 ,    0 ,    0 ,  128 ,    0 ,    0 ,    0 ,    0 ,    9 ,    9 ,    0 ,    0 ,    0 ,    0 ,    0 ,   41 ,   49 ,  121 ,  201 ,   40 ,    8 ,    0 ,  252 ,   58 ,    5 ,  191 ,   57 ,  200 ,  174 ,  160 
E: 000000.324478 64 01 81 7e 86 7e 00 00 09 08 00 00 00 e6 1b 2a eb f8 ff ef ff 0b 00 37 00 5c 1f 2e 05 c8 16 79 c9 08 80 00 00 00 80 00 00 00 00 09 09 00 00 00 00 00 29 31 79 c9 28 08 00 fc 3a 05 bf 39 c8 ae a0
# ReportID: 1 / X:  129 | Y:  126 | Z:  134 | Rz:  126 | Rx:    0 | Ry:    0 | 0xff000020:   10 | Hat switch:   8 | Button: 0  0  0  0  0  0  0  0  0  0  0  0  0  0  0 | 0xff000021: 0 , 0 , 0 , 0 , 0 , 0 , 0 , 0 , 0 , 0 , 0 , 0 , 0 | 0xff000022:  231 ,   27 ,   42 ,  235 ,  250 ,  255 ,  237 ,  255 ,   11 ,    0 ,   53 ,    0 ,  101 ,   31 ,   34 ,    5 ,  187 ,   69 ,  121 ,  201 ,    8 ,  128 ,    0 ,    0 ,    0 ,  128 ,    0 ,    0 ,    0 ,    0 ,    9 ,    9 ,    0 ,    0 ,    0 ,    0 ,    0 ,    9 ,   96 ,  121 ,  201 ,   40 ,    8 ,    0 ,   15 ,   65 ,  112 ,   51 ,   45 ,   96 ,  229 ,  221 
E: 000000.330248 64 01 81 7e 86 7e 00 00 0a 08 00 00 00 e7 1b 2a eb fa ff ed ff 0b 00 35 00 65 1f 22 05 bb 45 79 c9 08 80 00 00 00 80 00 00 00 00 09 09 00 00 00 00 00 09 60 79 c9 28 08 00 0f 41 70 33 2d 60 e5 dd
# ReportID: 1 / X:  129 | Y:  126 | Z:  134 | Rz:  126 | Rx:    0 | Ry:    0 | 0xff000020:   11 | Hat switch:   8 | Button: 0  0  0  0  0  0  0  0  0  0  0  0  0  0  0 | 0xff000021: 0 , 0 , 0 , 0 , 0 , 0 , 0 , 0 , 0 , 0 , 0 , 0 , 0 | 0xff000022:  232 ,   27 ,   42 ,  235 ,  249 ,  255 ,  238 ,  255 ,   11 ,    0 ,   49 ,    0 ,   92 ,   31 ,   39 ,    5 ,  174 ,  116 ,  121 ,  201 ,    8 ,  128 ,    0 ,    0 ,    0 ,  128 ,    0 ,    0 ,    0 ,    0 ,    9 ,    9 ,    0 ,    0 ,    0 ,    0 ,    0 ,  233 ,  142 ,  121 ,  201 ,   40 ,    8 ,    0 ,   73 ,  148 ,  153 ,  229 ,  204 ,  101 ,  107 ,  112 
E: 000000.333240 64 01 81 7e 86 7e 00 00 0b 08 00 00 00 e8 1b 2a eb f9 ff ee ff 0b 00 31 00 5c 1f 27 05 ae 74 79 c9 08 80 00 00 00 80 00 00 00 00 09 09 00 00 00 00 00 e9 8e 79 c9 28 08 00 49 94 99 e5 cc 65 6b 70
# ReportID: 1 / X:  129 | Y:  126 | Z:  134 | Rz:  126 | Rx:    0 | Ry:    0 | 0xff000020:   12 | Hat switch:   8 | Button: 0  0  0  0  0  0  0  0  0  0  0  0  0  0  0 | 0xff000021: 0 , 0 , 0 , 0 , 0 , 0 , 0 , 0 , 0 , 0 , 0 , 0 , 0 | 0xff000022:  233 ,   27 ,   42 ,  235 ,  248 ,  255 ,  238 ,  255 ,   11 ,    0 ,   58 ,    0 ,   96 ,   31 ,   38 ,    5 ,  161 ,  163 ,  121 ,  201 ,    8 ,  128 ,    0 ,    0 ,    0 ,  128 ,    0 ,    0 ,    0 ,    0 ,    9 ,    9 ,    0 ,    0 ,    0 ,    0 ,    0 ,  201 ,  189 ,  121 ,  201 ,   40 ,    8 ,    0 ,  203 ,  125 ,  126 ,  108 ,   52 ,  225 ,  166 ,   98 
E: 000000.336692 64 01 81 7e 86 7e 00 00 0c 08 00 00 00 e9 1b 2a eb f8 ff ee ff 0b 00 3a 00 60 1f 26 05 a1 a3 79 c9 08 80 00 00 00 80 00 00 00 00 09 09 00 00 00 00 00 c9 bd 79 c9 28 08 00 cb 7d 7e 6c 34 e1 a6 62
# ReportID: 1 / X:  129 | Y:  126 | Z:  134 | Rz:  126 | Rx:    0 | Ry:    0 | 0xff000020:   13 | Hat switch:   8 | Button: 0  0  0  0  0  0  0  0  0  0  0  0  0  0  0 | 0xff000021: 0 , 0 , 0 , 0 , 0 , 0 , 0 , 0 , 0 , 0 , 0 , 0 , 0 | 0xff000022:  234 ,   27 ,   42 ,  235 ,  248 ,  255 ,  238 ,  255 ,   11 ,    0 ,   51 ,    0 ,   91 ,   31 ,   35 ,    5 ,  148 ,  210 ,  121 ,  201 ,    8 ,  128 ,    0 ,    0 ,    0 ,  128 ,    0 ,    0 ,    0 ,    0 ,    9 ,    9 ,    0 ,    0 ,    0 ,    0 ,    0 ,  169 ,  236 ,  121 ,  201 ,   40 ,    8 ,    0 ,  111 ,  251 ,   60 ,  194 ,   41 ,   16 ,   59 ,   99 
E: 000000.340513 64 01 81 7e 86 7e 00 00 0d 08 00 00 00 ea 1b 2a eb f8 ff ee ff 0b 00 33 00 5b 1f 23 05 94 d2 79 c9 08 80 00 00 00 80 00 00 00 00 09 09 00 00 00 00 00 a9 ec 79 c9 28 08 00 6f fb 3c c2 29 10 3b 63
# ReportID: 1 / X:  129 | Y:  126 | Z:  134 | Rz:  126 | Rx:    0 | Ry:    0 | 0xff000020:   14 | Hat switch:   8 | Button: 0  0  0  0  0  0  0  0  0  0  0  0  0  0  0 | 0xff000021: 0 , 0 , 0 , 0 , 0 , 0 , 0 , 0 , 0 , 0 , 0 , 0 , 0 | 0xff000022:  235 ,   27 ,   42 ,  235 ,  248 ,  255 ,  238 ,  255 ,   11 ,    0 ,   51 ,    0 ,   86 ,   31 ,   26 ,    5 ,  135 ,    1 ,  122 ,  201 ,    7 ,  128 ,    0 ,    0 ,    0 ,  128 ,    0 ,    0 ,    0 ,    0 ,    9 ,    9 ,    0 ,    0 ,    0 ,    0 ,    0 ,  137 ,   27 ,  122 ,  201 ,   40 ,    8 ,    0 ,  163 ,   87 ,   80 ,  212 ,   96 ,  195 ,  207 ,  215 
E: 000000.345637 64 01 81 7e 86 7e 00 00 0e 08 00 00 00 eb 1b 2a eb f8 ff ee ff 0b 00 33 00 56 1f 1a 05 87 01 7a c9 07 80 00 00 00 80 00 00 00 00 09 09 00 00 00 00 00 89 1b 7a c9 28 08 00 a3 57 50 d4 60 c3 cf d7
# ReportID: 1 / X:  129 | Y:  126 | Z:  134 | Rz:  126 | Rx:    0 | Ry:    0 | 0xff000020:   15 | Hat switch:   8 | Button: 0  0  0  0  0  0  0  0  0  0  0  0  0  0  0 | 0xff000021: 0 , 0 , 0 , 0 , 0 , 0 , 0 , 0 , 0 , 0 , 0 , 0 , 0 | 0xff000022:  236 ,   27 ,   42 ,  235 ,  248 ,  255 ,  238 ,  255 ,   11 ,    0 ,   56 ,    0 ,   88 ,   31 ,   28 ,    5 ,  122 ,   48 ,  122 ,  201 ,    7 ,  128 ,    0 ,    0 ,    0 ,  128 ,    0 ,    0 ,    0 ,    0 ,    9 ,    9 ,    0 ,    0 ,    0 ,    0 ,    0 ,  105 ,   74 ,  122 ,  201 ,   40 ,    8 ,    0 ,  210 ,  202 ,   32 ,   19 ,  157 ,   55 ,   57 ,  203 
E: 000000.349368 64 01 81 7e 86 7e 00 00 0f 08 00 00 00 ec 1b 2a eb f8 ff ee ff 0b 00 38 00 58 1f 1c 05 7a 30 7a c9 07 80 00 00 00 80 00 00 00 00 09 09 00 00 00 00 00 69 4a 7a c9 28 08 00 d2 ca 20 13 9d 37 39 cb
# ReportID: 1 / X:  129 | Y:  126 | Z:  134 | Rz:  126 | Rx:    0 | Ry:    0 | 0xff000020:   16 | Hat switch:   8 | Button: 0  0  0  0  0  0  0  0  0  0  0  0  0  0  0 | 0xff000021: 0 , 0 , 0 , 0 , 0 , 0 , 0 , 0 , 0 , 0 , 0 , 0 , 0 | 0xff000022:  237 ,   27 ,   42 ,  235 ,  248 ,  255 ,  238 ,  255 ,   11 ,    0 ,   52 ,    0 ,   92 ,   31 ,   20 ,    5 ,  109 ,   95 ,  122 ,  201 ,    7 ,  128 ,    0 ,    0 ,    0 ,  128 ,    0 ,    0 ,    0 ,    0 ,    9 ,    9 ,    0 ,    0 ,    0 ,    0 ,    0 ,   73 ,  121 ,  122 ,  201 ,   40 ,    8 ,    0 ,  110 ,   10 ,  171 ,  150 ,  123 ,  198 ,   36 ,  242 
E: 000000.352997 64 01 81 7e 86 7e 00 00 10 08 00 00 00 ed 1b 2a eb f8 ff ee ff 0b 00 34 00 5c 1f 14 05 6d 5f 7a c9 07 80 00 00 00 80 00 00 00 00 09 09 00 00 00 00 00 49 79 7a c9 28 08 00 6e 0a ab 96 7b c6 24 f2
# ReportID: 1 / X:  129 | Y:  126 | Z:  134 | Rz:  126 | Rx:    0 | Ry:    0 | 0xff000020:   17 | Hat switch:   8 | Button: 0  0  0  0  0  0  0  0  0  0  0  0  0  0  0 | 0xff000021: 0 , 0 , 0 , 0 , 0 , 0 , 0 , 0 , 0 , 0 , 0 , 0 , 0 | 0xff000022:  238 ,   27 ,   42 ,  235 ,  249 ,  255 ,  238 ,  255 ,   11 ,    0 ,   54 ,    0 ,   97 ,   31 ,   29 ,    5 ,   96 ,  142 ,  122 ,  201 ,    7 ,  128 ,    0 ,    0 ,    0 ,  128 ,    0 ,    0 ,    0 ,    0 ,    9 ,    9 ,    0 ,    0 ,    0 ,    0 ,    0 ,   41 ,  168 ,  122 ,  201 ,   40 ,    8 ,    0 ,   65 ,  126 ,   27 ,   82 ,   64 ,  254 ,  151 ,   59 
E: 000000.356833 64 01 81 7e 86 7e 00 00 11 08 00 00 00 ee 1b 2a eb f9 ff ee ff 0b 00 36 00 61 1f 1d 05 60 8e 7a c9 07 80 00 00 00 80 00 00 00 00 09 09 00 00 00 00 00 29 a8 7a c9 28 08 00 41 7e 1b 52 40 fe 97 3b
# ReportID: 1 / X:  129 | Y:  126 | Z:  134 | Rz:  126 | Rx:    0 | Ry:    0 | 0xff000020:   18 | Hat switch:   8 | Button: 0  0  0  0  0  0  0  0  0  0  0  0  0  0  0 | 0xff000021: 0 , 0 , 0 , 0 , 0 , 0 , 0 , 0 , 0 , 0 , 0 , 0 , 0 | 0xff000022:  239 ,   27 ,   42 ,  235 ,  250 ,  255 ,  238 ,  255 ,   11 ,    0 ,   53 ,    0 ,  108 ,   31 ,   36 ,    5 ,   83 ,  189 ,  122 ,  201 ,    7 ,  128 ,    0 ,    0 ,    0 ,  128 ,    0 ,    0 ,    0 ,    0 ,    9 ,    9 ,    0 ,    0 ,    0 ,    0 ,    0 ,    9 ,  215 ,  122 ,  201 ,   40 ,    8 ,    0 ,  252 ,  192 ,  163 ,   44 ,  253 ,    4 ,   48 ,  133 
E: 000000.360488 64 01 81 7e 86 7e 00 00 12 08 00 00 00 ef 1b 2a eb fa ff ee ff 0b 00 35 00 6c 1f 24 05 53 bd 7a c9 07 80 00 00 00 80 00 00 00 00 09 09 00 00 00 00 00 09 d7 7a c9 28 08 00 fc c0 a3 2c fd 04 30 85
# ReportID: 1 / X:  129 | Y:  126 | Z:  134 | Rz:  126 | Rx:    0 | Ry:    0 | 0xff000020:   19 | Hat switch:   8 | Button: 0  0  0  0  0  0  0  0  0  0  0  0  0  0  0 | 0xff000021: 0 , 0 , 0 , 0 , 0 , 0 , 0 , 0 , 0 , 0 , 0 , 0 , 0 | 0xff000022:  240 ,   27 ,   42 ,  235 ,  249 ,  255 ,  238 ,  255 ,   11 ,    0 ,   57 ,    0 ,  105 ,   31 ,   33 ,    5 ,   70 ,  236 ,  122 ,  201 ,    8 ,  128 ,    0 ,    0 ,    0 ,  128 ,    0 ,    0 ,    0 ,    0 ,    9 ,    9 ,    0 ,    0 ,    0 ,    0 ,    0 ,  233 ,    5 ,  123 ,  201 ,   40 ,    8 ,    0 ,   87 ,   57 ,  205 ,   31 ,  120 ,  171 ,  142 ,  240 
E: 000000.364449 64 01 81 7e 86 7e 00 00 13 08 00 00 00 f0 1b 2a eb f9 ff ee ff 0b 00 39 00 69 1f 21 05 46 ec 7a c9 08 80 00 00 00 80 00 00 00 00 09 09 00 00 00 00 00 e9 05 7b c9 28 08 00 57 39 cd 1f 78 ab 8e f0
# ReportID: 1 / X:  129 | Y:  126 | Z:  134 | Rz:  126 | Rx:    0 | Ry:    0 | 0xff000020:   20 | Hat switch:   8 | Button: 0  0  0  0  0  0  0  0  0  0  0  0  0  0  0 | 0xff000021: 0 , 0 , 0 , 0 , 0 , 0 , 0 , 0 , 0 , 0 , 0 , 0 , 0 | 0xff000022:  241 ,   27 ,   42 ,  235 ,  248 ,  255 ,  238 ,  255 ,   11 ,    0 ,   49 ,    0 ,  101 ,   31 ,   34 ,    5 ,   57 ,   27 ,  123 ,  201 ,    8 ,  128 ,    0 ,    0 ,    0 ,  128 ,    0 ,    0 ,    0 ,    0 ,    9 ,    9 ,    0 ,    0 ,    0 ,    0 ,    0 ,  201 ,   52 ,  123 ,  201 ,   40 ,    8 ,    0 ,  109 ,  255 ,  203 ,  138 ,  216 ,  247 ,  136 ,  150 
E: 000000.369406 64 01 81 7e 86 7e 00 00 14 08 00 00 00 f1 1b 2a eb f8 ff ee ff 0b 00 31 00 65 1f 22 05 39 1b 7b c9 08 80 00 00 00 80 00 00 00 00 09 09 00 00 00 00 00 c9 34 7b c9 28 08 00 6d ff cb 8a d8 f7 88 96
# ReportID: 1 / X:  129 | Y:  126 | Z:  134 | Rz:  126 | Rx:    0 | Ry:    0 | 0xff000020:   21 | Hat switch:   8 | Button: 0  0  0  0  0  0  0  0  0  0  0  0  0  0  0 | 0xff000021: 0 , 0 , 0 , 0 , 0 , 0 , 0 , 0 , 0 , 0 , 0 , 0 , 0 | 0xff000022:  242 ,   27 ,   42 ,  235 ,  248 ,  255 ,  238 ,  255 ,   11 ,    0 ,   51 ,    0 ,   89 ,   31 ,   38 ,    5 ,   44 ,   74 ,  123 ,  201 ,    7 ,  128 ,    0 ,    0 ,    0 ,  128 ,    0 ,    0 ,    0 ,    0 ,    9 ,    9 ,    0 ,    0 ,    0 ,    0 ,    0 ,  169 ,   99 ,  123 ,  201 ,   40 ,    8 ,    0 ,   77 ,  169 ,  138 ,  219 ,  242 ,  126 ,  184 ,   76 
E: 000000.372702 64 01 81 7e 86 7e 00 00 15 08 00 00 00 f2 1b 2a eb f8 ff ee ff 0b 00 33 00 59 1f 26 05 2c 4a 7b c9 07 80 00 00 00 80 00 00 00 00 09 09 00 00 00 00 00 a9 63 7b c9 28 08 00 4d a9 8a db f2 7e b8 4c
# ReportID: 1 / X:  129 | Y:  126 | Z:  134 | Rz:  126 | Rx:    0 | Ry:    0 | 0xff000020:   22 | Hat switch:   8 | Button: 0  0  0  0  0  0  0  0  0  0  0  0  0  0  0 | 0xff000021: 0 , 0 , 0 , 0 , 0 , 0 , 0 , 0 , 0 , 0 , 0 , 0 , 0 | 0xff000022:  243 ,   27 ,   42 ,  235 ,  247 ,  255 ,  238 ,  255 ,   11 ,    0 ,   56 ,    0 ,   88 ,   31 ,   44 ,    5 ,   31 ,  121 ,  123 ,  201 ,    8 ,  128 ,    0 ,    0 ,    0 ,  128 ,    0 ,    0 ,    0 ,    0 ,    9 ,    9 ,    0 ,    0 ,    0 ,    0 ,    0 ,  137 ,  146 ,  123 ,  201 ,   40 ,    8 ,    0 ,  221 ,   31 ,  216 ,  182 ,   75 ,   43 ,  241 ,  141 
E: 000000.376457 64 01 81 7e 86 7e 00 00 16 08 00 00 00 f3 1b 2a eb f7 ff ee ff 0b 00 38 00 58 1f 2c 05 1f 79 7b c9 08 80 00 00 00 80 00 00 00 00 09 09 00 00 00 00 00 89 92 7b c9 28 08 00 dd 1f d8 b6 4b 2b f1 8d
# ReportID: 1 / X:  129 | Y:  126 | Z:  134 | Rz:  126 | Rx:    0 | Ry:    0 | 0xff000020:   23 | Hat switch:   8 | Button: 0  0  0  0  0  0  0  0  0  0  0  0  0  0  0 | 0xff000021: 0 , 0 , 0 , 0 , 0 , 0 , 0 , 0 , 0 , 0 , 0 , 0 , 0 | 0xff000022:  244 ,   27 ,   42 ,  235 ,  247 ,  255 ,  237 ,  255 ,   11 ,    0 ,   57 ,    0 ,   81 ,   31 ,   48 ,    5 ,   18 ,  168 ,  123 ,  201 ,    8 ,  128 ,    0 ,    0 ,    0 ,  128 ,    0 ,    0 ,    0 ,    0 ,    9 ,    9 ,    0 ,    0 ,    0 ,    0 ,    0 ,  105 ,  193 ,  123 ,  201 ,   40 ,    8 ,    0 ,   73 ,   84 ,  157 ,   14 ,   83 ,   89 ,   48 ,   86 
E: 000000.382796 64 01 81 7e 86 7e 00 00 17 08 00 00 00 f4 1b 2a eb f7 ff ed ff 0b 00 39 00 51 1f 30 05 12 a8 7b c9 08 80 00 00 00 80 00 00 00 00 09 09 00 00 00 00 00 69 c1 7b c9 28 08 00 49 54 9d 0e 53 59 30 56
# ReportID: 1 / X:  129 | Y:  126 | Z:  134 | Rz:  126 | Rx:    0 | Ry:    0 | 0xff000020:   24 | Hat switch:   8 | Button: 0  0  0  0  0  0  0  0  0  0  0  0  0  0  0 | 0xff000021: 0 , 0 , 0 , 0 , 0 , 0 , 0 , 0 , 0 , 0 , 0 , 0 , 0 | 0xff000022:  245 ,   27 ,   42 ,  235 ,  247 ,  255 ,  238 ,  255 ,   11 ,    0 ,   59 ,    0 ,   78 ,   31 ,   48 ,    5 ,    6 ,  215 ,  123 ,  201 ,    8 ,  128 ,    0 ,    0 ,    0 ,  128 ,    0 ,    0 ,    0 ,    0 ,    9 ,    9 ,    0 ,    0 ,    0 ,    0 ,    0 ,   87 ,  240 ,  123 ,  201 ,   40 ,    8 ,    0 ,  207 ,  131 ,  103 ,  117 ,  142 ,  103 ,   83 ,  121 
E: 000000.385923 64 01 81 7e 86 7e 00 00 18 08 00 00 00 f5 1b 2a eb f7 ff ee ff 0b 00 3b 00 4e 1f 30 05 06 d7 7b c9 08 80 00 00 00 80 00 00 00 00 09 09 00 00 00 00 00 57 f0 7b c9 28 08 00 cf 83 67 75 8e 67 53 79
# ReportID: 1 / X:  129 | Y:  126 | Z:  134 | Rz:  126 | Rx:    0 | Ry:    0 | 0xff000020:   25 | Hat switch:   8 | Button: 0  0  0  0  0  0  0  0  0  0  0  0  0  0  0 | 0xff000021: 0 , 0 , 0 , 0 , 0 , 0 , 0 , 0 , 0 , 0 , 0 , 0 , 0 | 0xff000022:  246 ,   27 ,   42 ,  235 ,  249 ,  255 ,  239 ,  255 ,   12 ,    0 ,   56 ,    0 ,   75 ,   31 ,   45 ,    5 ,  249 ,    5 ,  124 ,  201 ,    8 ,  128 ,    0 ,    0 ,    0 ,  128 ,    0 ,    0 ,    0 ,    0 ,    9 ,    9 ,    0 ,    0 ,    0 ,    0 ,    0 ,   72 ,   31 ,  124 ,  201 ,   40 ,    8 ,    0 ,   84 ,   31 ,    7 ,   40 ,  204 ,   94 ,  245 ,  117 
E: 000000.389458 64 01 81 7e 86 7e 00 00 19 08 00 00 00 f6 1b 2a eb f9 ff ef ff 0c 00 38 00 4b 1f 2d 05 f9 05 7c c9 08 80 00 00 00 80 00 00 00 00 09 09 00 00 00 00 00 48 1f 7c c9 28 08 00 54 1f 07 28 cc 5e f5 75
# ReportID: 1 / X:  129 | Y:  126 | Z:  134 | Rz:  126 | Rx:    0 | Ry:    0 | 0xff000020:   26 | Hat switch:   8 | Button: 0  0  0  0  0  0  0  0  0  0  0  0  0  0  0 | 0xff000021: 0 , 0 , 0 , 0 , 0 , 0 , 0 , 0 , 0 , 0 , 0 , 0 , 0 | 0xff000022:  247 ,   27 ,   42 ,  235 ,  247 ,  255 ,  238 ,  255 ,   11 ,    0 ,   49 ,    0 ,   76 ,   31 ,   50 ,    5 ,  236 ,   52 ,  124 ,  201 ,    8 ,  128 ,    0 ,    0 ,    0 ,  128 ,    0 ,    0 ,    0 ,    0 ,    9 ,    9 ,    0 ,    0 ,    0 ,    0 ,    0 ,   16 ,   78 ,  124 ,  201 ,   40 ,    8 ,    0 ,   53 ,  212 ,   56 ,  238 ,  209 ,  243 ,  105 ,   10 
E: 000000.392592 64 01 81 7e 86 7e 00 00 1a 08 00 00 00 f7 1b 2a eb f7 ff ee ff 0b 00 31 00 4c 1f 32 05 ec 34 7c c9 08 80 00 00 00 80 00 00 00 00 09 09 00 00 00 00 00 10 4e 7c c9 28 08 00 35 d4 38 ee d1 f3 69 0a
# ReportID: 1 / X:  129 | Y:  126 | Z:  134 | Rz:  126 | Rx:    0 | Ry:    0 | 0xff000020:   27 | Hat switch:   8 | Button: 0  0  0  0  0  0  0  0  0  0  0  0  0  0  0 | 0xff000021: 0 , 0 , 0 , 0 , 0 , 0 , 0 , 0 , 0 , 0 , 0 , 0 , 0 | 0xff000022:  248 ,   27 ,   42 ,  235 ,  248 ,  255 ,  237 ,  255 ,   11 ,    0 ,   49 ,    0 ,   88 ,   31 ,   48 ,    5 ,  223 ,   99 ,  124 ,  201 ,    8 ,  128 ,    0 ,    0 ,    0 ,  128 ,    0 ,    0 ,    0 ,    0 ,    9 ,    9 ,    0 ,    0 ,    0 ,    0 ,    0 ,  241 ,  124 ,  124 ,  201 ,   40 ,    8 ,    0 ,  184 ,  190 ,  162 ,   93 ,  188 ,  107 ,    6 ,  193 
E: 000000.398271 64 01 81 7e 86 7e 00 00 1b 08 00 00 00 f8 1b 2a eb f8 ff ed ff 0b 00 31 00 58 1f 30 05 df 63 7c c9 08 80 00 00 00 80 00 00 00 00 09 09 00 00 00 00 00 f1 7c 7c c9 28 08 00 b8 be a2 5d bc 6b 06 c1
# ReportID: 1 / X:  129 | Y:  126 | Z:  134 | Rz:  126 | Rx:    0 | Ry:    0 | 0xff000020:   28 | Hat switch:   8 | Button: 0  0  0  0  0  0  0  0  0  0  0  0  0  0  0 | 0xff000021: 0 , 0 , 0 , 0 , 0 , 0 , 0 , 0 , 0 , 0 , 0 , 0 , 0 | 0xff000022:  249 ,   27 ,   42 ,  235 ,  247 ,  255 ,  238 ,  255 ,   10 ,    0 ,   52 ,    0 ,   87 ,   31 ,   49 ,    5 ,  210 ,  146 ,  124 ,  201 ,    8 ,  128 ,    0 ,    0 ,    0 ,  128 ,    0 ,    0 ,    0 ,    0 ,    9 ,    9 ,    0 ,    0 ,    0 ,    0 ,    0 ,  209 ,  171 ,  124 ,  201 ,   40 ,    8 ,    0 ,  116 ,   44 ,   48 ,  199 ,  171 ,  130 ,    3 ,  235 
E: 000000.401463 64 01 81 7e 86 7e 00 00 1c 08 00 00 00 f9 1b 2a eb f7 ff ee ff 0a 00 34 00 57 1f 31 05 d2 92 7c c9 08 80 00 00 00 80 00 00 00 00 09 09 00 00 00 00 00 d1 ab 7c c9 28 08 00 74 2c 30 c7 ab 82 03 eb
# ReportID: 1 / X:  129 | Y:  127 | Z:  134 | Rz:  126 | Rx:    0 | Ry:    0 | 0xff000020:   29 | Hat switch:   8 | Button: 0  0  0  0  0  0  0  0  0  0  0  0  0  0  0 | 0xff000021: 0 , 0 , 0 , 0 , 0 , 0 , 0 , 0 , 0 , 0 , 0 , 0 , 0 | 0xff000022:  250 ,   27 ,   42 ,  235 ,  248 ,  255 ,  238 ,  255 ,   10 ,    0 ,   43 ,    0 ,   89 ,   31 ,   52 ,    5 ,  197 ,  193 ,  124 ,  201 ,    7 ,  128 ,    0 ,    0 ,    0 ,  128 ,    0 ,    0 ,    0 ,    0 ,    9 ,    9 ,    0 ,    0 ,    0 ,    0 ,    0 ,  169 ,  218 ,  124 ,  201 ,   40 ,    8 ,    0 ,  100 ,   75 ,  196 ,   59 ,  124 ,    6 ,  237 ,  208 
E: 000000.405442 64 01 81 7f 86 7e 00 00 1d 08 00 00 00 fa 1b 2a eb f8 ff ee ff 0a 00 2b 00 59 1f 34 05 c5 c1 7c c9 07 80 00 00 00 80 00 00 00 00 09 09 00 00 00 00 00 a9 da 7c c9 28 08 00 64 4b c4 3b 7c 06 ed d0
# ReportID: 1 / X:  129 | Y:  126 | Z:  134 | Rz:  126 | Rx:    0 | Ry:    0 | 0xff000020:   30 | Hat switch:   8 | Button: 0  0  0  0  0  0  0  0  0  0  0  0  0  0  0 | 0xff000021: 0 , 0 , 0 , 0 , 0 , 0 , 0 , 0 , 0 , 0 , 0 , 0 , 0 | 0xff000022:  251 ,   27 ,   42 ,  235 ,  247 ,  255 ,  238 ,  255 ,   10 ,    0 ,   44 ,    0 ,   86 ,   31 ,   46 ,    5 ,  184 ,  240 ,  124 ,  201 ,    8 ,  128 ,    0 ,    0 ,    0 ,  128 ,    0 ,    0 ,    0 ,    0 ,    9 ,    9 ,    0 ,    0 ,    0 ,    0 ,    0 ,  137 ,    9 ,  125 ,  201 ,   40 ,    8 ,    0 ,  230 ,  153 ,  113 ,   73 ,   28 ,   31 ,   89 ,  252 
E: 000000.408545 64 01 81 7e 86 7e 00 00 1e 08 00 00 00 fb 1b 2a eb f7 ff ee ff 0a 00 2c 00 56 1f 2e 05 b8 f0 7c c9 08 80 00 00 00 80 00 00 00 00 09 09 00 00 00 00 00 89 09 7d c9 28 08 00 e6 99 71 49 1c 1f 59 fc
# ReportID: 1 / X:  129 | Y:  126 | Z:  134 | Rz:  126 | Rx:    0 | Ry:    0 | 0xff000020:   31 | Hat switch:   8 | Button: 0  0  0  0  0  0  0  0  0  0  0  0  0  0  0 | 0xff000021: 0 , 0 , 0 , 0 , 0 , 0 , 0 , 0 , 0 , 0 , 0 , 0 , 0 | 0xff000022:  252 ,   27 ,   42 ,  235 ,  248 ,  255 ,  237 ,  255 ,   11 ,    0 ,   45 ,    0 ,   86 ,   31 ,   48 ,    5 ,  171 ,   31 ,  125 ,  201 ,    8 ,  128 ,    0 ,    0 ,    0 ,  128 ,    0 ,    0 ,    0 ,    0 ,    9 ,    9 ,    0 ,    0 ,    0 ,    0 ,    0 ,  105 ,   56 ,  125 ,  201 ,   40 ,    8 ,    0 ,    2 ,   41 ,  207 ,  185 ,   95 ,   39 ,  136 ,  133 
E: 000000.413692 64 01 81 7e 86 7e 00 00 1f 08 00 00 00 fc 1b 2a eb f8 ff ed ff 0b 00 2d 00 56 1f 30 05 ab 1f 7d c9 08 80 00 00 00 80 00 00 00 00 09 09 00 00 00 00 00 69 38 7d c9 28 08 00 02 29 cf b9 5f 27 88 85
# ReportID: 1 / X:  129 | Y:  126 | Z:  134 | Rz:  126 | Rx:    0 | Ry:    0 | 0xff000020:   32 | Hat switch:   8 | Button: 0  0  0  0  0  0  0  0  0  0  0  0  0  0  0 | 0xff000021: 0 , 0 , 0 , 0 , 0 , 0 , 0 , 0 , 0 , 0 , 0 , 0 , 0 | 0xff000022:  253 ,   27 ,   42 ,  235 ,  248 ,  255 ,  238 ,  255 ,   12 ,    0 ,   39 ,    0 ,   80 ,   31 ,   52 ,    5 ,  158 ,   78 ,  125 ,  201 ,    8 ,  128 ,    0 ,    0 ,    0 ,  128 ,    0 ,    0 ,    0 ,    0 ,    9 ,    9 ,    0 ,    0 ,    0 ,    0 ,    0 ,   73 ,  103 ,  125 ,  201 ,   40 ,    8 ,    0 ,   84 ,  252 ,  203 ,   49 ,   14 ,  173 ,  110 ,  214 
E: 000000.417042 64 01 81 7e 86 7e 00 00 20 08 00 00 00 fd 1b 2a eb f8 ff ee ff 0c 00 27 00 50 1f 34 05 9e 4e 7d c9 08 80 00 00 00 80 00 00 00 00 09 09 00 00 00 00 00 49 67 7d c9 28 08 00 54 fc cb 31 0e ad 6e d6
# ReportID: 1 / X:  129 | Y:  126 | Z:  134 | Rz:  126 | Rx:    0 | Ry:    0 | 0xff000020:   33 | Hat switch:   8 | Button: 0  0  0  0  0  0  0  0  0  0  0  0  0  0  0 | 0xff000021: 0 , 0 , 0 , 0 , 0 , 0 , 0 , 0 , 0 , 0 , 0 , 0 , 0 | 0xff000022:  254 ,   27 ,   42 ,  235 ,  247 ,  255 ,  237 ,  255 ,   11 ,    0 ,   44 ,    0 ,   80 ,   31 ,   48 ,    5 ,  145 ,  125 ,  125 ,  201 ,    7 ,  128 ,    0 ,    0 ,    0 ,  128 ,    0 ,    0 ,    0 ,    0 ,    9 ,    9 ,    0 ,    0 ,    0 ,    0 ,    0 ,   41 ,  150 ,  125 ,  201 ,   40 ,    8 ,    0 ,   36 ,  183 ,  188 ,  207 ,   23 ,   43 ,   32 ,  247 
E: 000000.420574 64 01 81 7e 86 7e 00 00 21 08 00 00 00 fe 1b 2a eb f7 ff ed ff 0b 00 2c 00 50 1f 30 05 91 7d 7d c9 07 80 00 00 00 80 00 00 00 00 09 09 00 00 00 00 00 29 96 7d c9 28 08 00 24 b7 bc cf 17 2b 20 f7
# ReportID: 1 / X:  129 | Y:  126 | Z:  134 | Rz:  126 | Rx:    0 | Ry:    0 | 0xff000020:   34 | Hat switch:   8 | Button: 0  0  0  0  0  0  0  0  0  0  0  0  0  0  0 | 0xff000021: 0 , 0 , 0 , 0 , 0 , 0 , 0 , 0 , 0 , 0 , 0 , 0 , 0 | 0xff000022:  255 ,   27 ,   42 ,  235 ,  247 ,  255 ,  238 ,  255 ,   10 ,    0 ,   36 ,    0 ,   69 ,   31 ,   41 ,    5 ,  132 ,  172 ,  125 ,  201 ,    8 ,  128 ,    0 ,    0 ,    0 ,  128 ,    0 ,    0 ,    0 ,    0 ,    9 ,    9 ,    0 ,    0 ,    0 ,    0 ,    0 ,    9 ,  197 ,  125 ,  201 ,   40 ,    8 ,    0 ,  116 ,  198 ,   98 ,  140 ,   17 ,  248 ,   91 ,  164 
E: 000000.424878 64 01 81 7e 86 7e 00 00 22 08 00 00 00 ff 1b 2a eb f7 ff ee ff 0a 00 24 00 45 1f 29 05 84 ac 7d c9 08 80 00 00 00 80 00 00 00 00 09 09 00 00 00 00 00 09 c5 7d c9 28 08 00 74 c6 62 8c 11 f8 5b a4
