# Sony Interactive Entertainment DualSense Wireless Controller
# 0x05, 0x01,                    // Usage Page (Generic Desktop)        0
# 0x09, 0x05,                    // Usage (Game Pad)                    2
# 0xa1, 0x01,                    // Collection (Application)            4
# 0x85, 0x01,                    //  Report ID (1)                      6
# 0x09, 0x30,                    //  Usage (X)                          8
# 0x09, 0x31,                    //  Usage (Y)                          10
# 0x09, 0x32,                    //  Usage (Z)                          12
# 0x09, 0x35,                    //  Usage (Rz)                         14
# 0x09, 0x33,                    //  Usage (Rx)                         16
# 0x09, 0x34,                    //  Usage (Ry)                         18
# 0x15, 0x00,                    //  Logical Minimum (0)                20
# 0x26, 0xff, 0x00,              //  Logical Maximum (255)              22
# 0x75, 0x08,                    //  Report Size (8)                    25
# 0x95, 0x06,                    //  Report Count (6)                   27
# 0x81, 0x02,                    //  Input (Data,Var,Abs)               29
# 0x06, 0x00, 0xff,              //  Usage Page (Vendor Defined Page 1) 31
# 0x09, 0x20,                    //  Usage (Vendor Usage 0x20)          34
# 0x95, 0x01,                    //  Report Count (1)                   36
# 0x81, 0x02,                    //  Input (Data,Var,Abs)               38
# 0x05, 0x01,                    //  Usage Page (Generic Desktop)       40
# 0x09, 0x39,                    //  Usage (Hat switch)                 42
# 0x15, 0x00,                    //  Logical Minimum (0)                44
# 0x25, 0x07,                    //  Logical Maximum (7)                46
# 0x35, 0x00,                    //  Physical Minimum (0)               48
# 0x46, 0x3b, 0x01,              //  Physical Maximum (315)             50
# 0x65, 0x14,                    //  Unit (EnglishRotation: deg)        53
# 0x75, 0x04,                    //  Report Size (4)                    55
# 0x95, 0x01,                    //  Report Count (1)                   57
# 0x81, 0x42,                    //  Input (Data,Var,Abs,Null)          59
# 0x65, 0x00,                    //  Unit (None)                        61
# 0x05, 0x09,                    //  Usage Page (Button)                63
# 0x19, 0x01,                    //  Usage Minimum (1)                  65
# 0x29, 0x0f,                    //  Usage Maximum (15)                 67
# 0x15, 0x00,                    //  Logical Minimum (0)                69
# 0x25, 0x01,                    //  Logical Maximum (1)                71
# 0x75, 0x01,                    //  Report Size (1)                    73
# 0x95, 0x0f,                    //  Report Count (15)                  75
# 0x81, 0x02,                    //  Input (Data,Var,Abs)               77
# 0x06, 0x00, 0xff,              //  Usage Page (Vendor Defined Page 1) 79
# 0x09, 0x21,                    //  Usage (Vendor Usage 0x21)          82
# 0x95, 0x0d,                    //  Report Count (13)                  84
# 0x81, 0x02,                    //  Input (Data,Var,Abs)               86
# 0x06, 0x00, 0xff,              //  Usage Page (Vendor Defined Page 1) 88
# 0x09, 0x22,                    //  Usage (Vendor Usage 0x22)          91
# 0x15, 0x00,                    //  Logical Minimum (0)                93
# 0x26, 0xff, 0x00,              //  Logical Maximum (255)              95
# 0x75, 0x08,                    //  Report Size (8)                    98
# 0x95, 0x34,                    //  Report Count (52)                  100
# 0x81, 0x02,                    //  Input (Data,Var,Abs)               102
# 0x85, 0x02,                    //  Report ID (2)                      104
# 0x09, 0x23,                    //  Usage (Vendor Usage 0x23)          106
# 0x95, 0x2f,                    //  Report Count (47)                  108
# 0x91, 0x02,                    //  Output (Data,Var,Abs)              110
# 0x85, 0x05,                    //  Report ID (5)                      112
# 0x09, 0x33,                    //  Usage (Vendor Usage 0x33)          114
# 0x95, 0x28,                    //  Report Count (40)                  116
# 0xb1, 0x02,                    //  Feature (Data,Var,Abs)             118
# 0x85, 0x08,                    //  Report ID (8)                      120
# 0x09, 0x34,                    //  Usage (Vendor Usage 0x34)          122
# 0x95, 0x2f,                    //  Report Count (47)                  124
# 0xb1, 0x02,                    //  Feature (Data,Var,Abs)             126
# 0x85, 0x09,                    //  Report ID (9)                      128
# 0x09, 0x24,                    //  Usage (Vendor Usage 0x24)          130
# 0x95, 0x13,                    //  Report Count (19)                  132
# 0xb1, 0x02,                    //  Feature (Data,Var,Abs)             134
# 0x85, 0x0a,                    //  Report ID (10)                     136
# 0x09, 0x25,                    //  Usage (Vendor Usage 0x25)          138
# 0x95, 0x1a,                    //  Report Count (26)                  140
# 0xb1, 0x02,                    //  Feature (Data,Var,Abs)             142
# 0x85, 0x20,                    //  Report ID (32)                     144
# 0x09, 0x26,                    //  Usage (Vendor Usage 0x26)          146
# 0x95, 0x3f,                    //  Report Count (63)                  148
# 0xb1, 0x02,                    //  Feature (Data,Var,Abs)             150
# 0x85, 0x21,                    //  Report ID (33)                     152
# 0x09, 0x27,                    //  Usage (Vendor Usage 0x27)          154
# 0x95, 0x04,                    //  Report Count (4)                   156
# 0xb1, 0x02,                    //  Feature (Data,Var,Abs)             158
# 0x85, 0x22,                    //  Report ID (34)                     160
# 0x09, 0x40,                    //  Usage (Vendor Usage 0x40)          162
# 0x95, 0x3f,                    //  Report Count (63)                  164
# 0xb1, 0x02,                    //  Feature (Data,Var,Abs)             166
# 0x85, 0x80,                    //  Report ID (128)                    168
# 0x09, 0x28,                    //  Usage (Vendor Usage 0x28)          170
# 0x95, 0x3f,                    //  Report Count (63)                  172
# 0xb1, 0x02,                    //  Feature (Data,Var,Abs)             174
# 0x85, 0x81,                    //  Report ID (129)                    176
# 0x09, 0x29,                    //  Usage (Vendor Usage 0x29)          178
# 0x95, 0x3f,                    //  Report Count (63)                  180
# 0xb1, 0x02,                    //  Feature (Data,Var,Abs)             182
# 0x85, 0x82,                    //  Report ID (130)                    184
# 0x09, 0x2a,                    //  Usage (Vendor Usage 0x2a)          186
# 0x95, 0x09,                    //  Report Count (9)                   188
# 0xb1, 0x02,                    //  Feature (Data,Var,Abs)             190
# 0x85, 0x83,                    //  Report ID (131)                    192
# 0x09, 0x2b,                    //  Usage (Vendor Usage 0x2b)          194
# 0x95, 0x3f,                    //  Report Count (63)                  196
# 0xb1, 0x02,                    //  Feature (Data,Var,Abs)             198
# 0x85, 0x84,                    //  Report ID (132)                    200
# 0x09, 0x2c,                    //  Usage (Vendor Usage 0x2c)          202
# 0x95, 0x3f,                    //  Report Count (63)                  204
# 0xb1, 0x02,                    //  Feature (Data,Var,Abs)             206
# 0x85, 0x85,                    //  Report ID (133)                    208
# 0x09, 0x2d,                    //  Usage (Vendor Usage 0x2d)          210
# 0x95, 0x02,                    //  Report Count (2)                   212
# 0xb1, 0x02,                    //  Feature (Data,Var,Abs)             214
# 0x85, 0xa0,                    //  Report ID (160)                    216
# 0x09, 0x2e,                    //  Usage (Vendor Usage 0x2e)          218
# 0x95, 0x01,                    //  Report Count (1)                   220
# 0xb1, 0x02,                    //  Feature (Data,Var,Abs)             222
# 0x85, 0xe0,                    //  Report ID (224)                    224
# 0x09, 0x2f,                    //  Usage (Vendor Usage 0x2f)          226
# 0x95, 0x3f,                    //  Report Count (63)                  228
# 0xb1, 0x02,                    //  Feature (Data,Var,Abs)             230
# 0x85, 0xf0,                    //  Report ID (240)                    232
# 0x09, 0x30,                    //  Usage (Vendor Usage 0x30)          234
# 0x95, 0x3f,                    //  Report Count (63)                  236
# 0xb1, 0x02,                    //  Feature (Data,Var,Abs)             238
# 0x85, 0xf1,                    //  Report ID (241)                    240
# 0x09, 0x31,                    //  Usage (Vendor Usage 0x31)          242
# 0x95, 0x3f,                    //  Report Count (63)                  244
# 0xb1, 0x02,                    //  Feature (Data,Var,Abs)             246
# 0x85, 0xf2,                    //  Report ID (242)                    248
# 0x09, 0x32,                    //  Usage (Vendor Usage 0x32)          250
# 0x95, 0x0f,                    //  Report Count (15)                  252
# 0xb1, 0x02,                    //  Feature (Data,Var,Abs)             254
# 0x85, 0xf4,                    //  Report ID (244)                    256
# 0x09, 0x35,                    //  Usage (Vendor Usage 0x35)          258
# 0x95, 0x3f,                    //  Report Count (63)                  260
# 0xb1, 0x02,                    //  Feature (Data,Var,Abs)             262
# 0x85, 0xf5,                    //  Report ID (245)                    264
# 0x09, 0x36,                    //  Usage (Vendor Usage 0x36)          266
# 0x95, 0x03,                    //  Report Count (3)                   268
# 0xb1, 0x02,                    //  Feature (Data,Var,Abs)             270
# 0xc0,                          // End Collection                      272
# 
R: 273 05 01 09 05 a1 01 85 01 09 30 09 31 09 32 09 35 09 33 09 34 15 00 26 ff 00 75 08 95 06 81 02 06 00 ff 09 20 95 01 81 02 05 01 09 39 15 00 25 07 35 00 46 3b 01 65 14 75 04 95 01 81 42 65 00 05 09 19 01 29 0f 15 00 25 01 75 01 95 0f 81 02 06 00 ff 09 21 95 0d 81 02 06 00 ff 09 22 15 00 26 ff 00 75 08 95 34 81 02 85 02 09 23 95 2f 91 02 85 05 09 33 95 28 b1 02 85 08 09 34 95 2f b1 02 85 09 09 24 95 13 b1 02 85 0a 09 25 95 1a b1 02 85 20 09 26 95 3f b1 02 85 21 09 27 95 04 b1 02 85 22 09 40 95 3f b1 02 85 80 09 28 95 3f b1 02 85 81 09 29 95 3f b1 02 85 82 09 2a 95 09 b1 02 85 83 09 2b 95 3f b1 02 85 84 09 2c 95 3f b1 02 85 85 09 2d 95 02 b1 02 85 a0 09 2e 95 01 b1 02 85 e0 09 2f 95 3f b1 02 85 f0 09 30 95 3f b1 02 85 f1 09 31 95 3f b1 02 85 f2 09 32 95 0f b1 02 85 f4 09 35 95 3f b1 02 85 f5 09 36 95 03 b1 02 c0
N: Sony Interactive Entertainment DualSense Wireless Controller
I: 3 054c 0ce6
# ReportID: 1 / X:  128 | Y:  126 | Z:  130 | Rz:  127 | Rx:    0 | Ry:    0 | 0xff000020:   41 | Hat switch:   8 | Button: 0  0  0  0  0  0  0  0  0  0  0  0  0  0  0 | 0xff000021: 0 , 0 , 0 , 0 , 0 , 0 , 0 , 0 , 0 , 0 , 0 , 0 , 0 | 0xff000022:    6 ,  166 ,   42 ,  235 ,  246 ,  255 ,  238 ,  255 ,   10 ,    0 ,   58 ,    0 ,   99 ,   31 ,   77 ,    5 ,  221 ,  163 ,  195 ,  226 ,    8 ,  129 ,   50 ,  240 ,   60 ,  128 ,    0 ,    0 ,    0 ,  118 ,    9 ,    9 ,    0 ,    0 ,    0 ,    0 ,    0 ,  185 ,  181 ,  195 ,  226 ,   40 ,    8 ,    0 ,   17 ,  131 ,  102 ,  232 ,   17 ,  194 ,  190 ,   70 
E: 000000.000000 64 01 80 7e 82 7f 00 00 29 08 00 00 00 06 a6 2a eb f6 ff ee ff 0a 00 3a 00 63 1f 4d 05 dd a3 c3 e2 08 81 32 f0 3c 80 00 00 00 76 09 09 00 00 00 00 00 b9 b5 c3 e2 28 08 00 11 83 66 e8 11 c2 be 46
# ReportID: 1 / X:  128 | Y:  126 | Z:  129 | Rz:  127 | Rx:    0 | Ry:    0 | 0xff000020:   42 | Hat switch:   8 | Button: 0  0  0  0  0  0  0  0  0  0  0  0  0  0  0 | 0xff000021: 0 , 0 , 0 , 0 , 0 , 0 , 0 , 0 , 0 , 0 , 0 , 0 , 0 | 0xff000022:    7 ,  166 ,   42 ,  235 ,  247 ,  255 ,  239 ,  255 ,   10 ,    0 ,   47 ,    0 ,   76 ,   31 ,   70 ,    5 ,  208 ,  210 ,  195 ,  226 ,    8 ,  129 ,   50 ,  240 ,   60 ,  128 ,    0 ,    0 ,    0 ,  118 ,    9 ,    9 ,    0 ,    0 ,    0 ,    0 ,    0 ,  153 ,  228 ,  195 ,  226 ,   40 ,    8 ,    0 ,  129 ,   93 ,  135 ,  163 ,  167 ,  195 ,    5 ,  169 
E: 000000.002941 64 01 80 7e 81 7f 00 00 2a 08 00 00 00 07 a6 2a eb f7 ff ef ff 0a 00 2f 00 4c 1f 46 05 d0 d2 c3 e2 08 81 32 f0 3c 80 00 00 00 76 09 09 00 00 00 00 00 99 e4 c3 e2 28 08 00 81 5d 87 a3 a7 c3 05 a9
# ReportID: 1 / X:  128 | Y:  126 | Z:  129 | Rz:  127 | Rx:    0 | Ry:    0 | 0xff000020:   43 | Hat switch:   8 | Button: 0  0  0  0  0  0  0  0  0  0  0  0  0  0  0 | 0xff000021: 0 , 0 , 0 , 0 , 0 , 0 , 0 , 0 , 0 , 0 , 0 , 0 , 0 | 0xff000022:    8 ,  166 ,   42 ,  235 ,  248 ,  255 ,  238 ,  255 ,   10 ,    0 ,   54 ,    0 ,   35 ,   31 ,   59 ,    5 ,  195 ,    1 ,  196 ,  226 ,    8 ,  129 ,   50 ,  240 ,   60 ,  128 ,    0 ,    0 ,    0 ,  118 ,    9 ,    9 ,    0 ,    0 ,    0 ,    0 ,    0 ,  121 ,   19 ,  196 ,  226 ,   40 ,    8 ,    0 ,  253 ,  223 ,   12 ,  177 ,  219 ,  202 ,  163 ,   14 
E: 000000.006130 64 01 80 7e 81 7f 00 00 2b 08 00 00 00 08 a6 2a eb f8 ff ee ff 0a 00 36 00 23 1f 3b 05 c3 01 c4 e2 08 81 32 f0 3c 80 00 00 00 76 09 09 00 00 00 00 00 79 13 c4 e2 28 08 00 fd df 0c b1 db ca a3 0e
# ReportID: 1 / X:  128 | Y:  126 | Z:  129 | Rz:  127 | Rx:    0 | Ry:    0 | 0xff000020:   44 | Hat switch:   8 | Button: 0  0  0  0  0  0  0  0  0  0  0  0  0  0  0 | 0xff000021: 0 , 0 , 0 , 0 , 0 , 0 , 0 , 0 , 0 , 0 , 0 , 0 , 0 | 0xff000022:    9 ,  166 ,   42 ,  235 ,  247 ,  255 ,  238 ,  255 ,   10 ,    0 ,   58 ,    0 ,   87 ,   31 ,   63 ,    5 ,  183 ,   48 ,  196 ,  226 ,    8 ,  129 ,   50 ,  240 ,   60 ,  128 ,    0 ,    0 ,    0 ,  118 ,    9 ,    9 ,    0 ,    0 ,    0 ,    0 ,    0 ,   89 ,   66 ,  196 ,  226 ,   40 ,    8 ,    0 ,    8 ,    3 ,   50 ,  183 ,  235 ,   83 ,  136 ,  214 
E: 000000.009269 64 01 80 7e 81 7f 00 00 2c 08 00 00 00 09 a6 2a eb f7 ff ee ff 0a 00 3a 00 57 1f 3f 05 b7 30 c4 e2 08 81 32 f0 3c 80 00 00 00 76 09 09 00 00 00 00 00 59 42 c4 e2 28 08 00 08 03 32 b7 eb 53 88 d6
# ReportID: 1 / X:  128 | Y:  126 | Z:  129 | Rz:  127 | Rx:    0 | Ry:    0 | 0xff000020:   45 | Hat switch:   8 | Button: 0  0  0  0  0  0  0  0  0  0  0  0  0  0  0 | 0xff000021: 0 , 0 , 0 , 0 , 0 , 0 , 0 , 0 , 0 , 0 , 0 , 0 , 0 | 0xff000022:   10 ,  166 ,   42 ,  235 ,  247 ,  255 ,  239 ,  255 ,   10 ,    0 ,   54 ,    0 ,  123 ,   31 ,   51 ,    5 ,  170 ,   95 ,  196 ,  226 ,    8 ,  129 ,   50 ,  240 ,   60 ,  128 ,    0 ,    0 ,    0 ,  118 ,    9 ,    9 ,    0 ,    0 ,    0 ,    0 ,    0 ,   57 ,  113 ,  196 ,  226 ,   40 ,    8 ,    0 ,  196 ,  131 ,   49 ,  227 ,  193 ,  175 ,  233 ,  188 
E: 000000.013277 64 01 80 7e 81 7f 00 00 2d 08 00 00 00 0a a6 2a eb f7 ff ef ff 0a 00 36 00 7b 1f 33 05 aa 5f c4 e2 08 81 32 f0 3c 80 00 00 00 76 09 09 00 00 00 00 00 39 71 c4 e2 28 08 00 c4 83 31 e3 c1 af e9 bc
# ReportID: 1 / X:  128 | Y:  126 | Z:  129 | Rz:  127 | Rx:    0 | Ry:    0 | 0xff000020:   46 | Hat switch:   8 | Button: 0  0  0  0  0  0  0  0  0  0  0  0  0  0  0 | 0xff000021: 0 , 0 , 0 , 0 , 0 , 0 , 0 , 0 , 0 , 0 , 0 , 0 , 0 | 0xff000022:   11 ,  166 ,   42 ,  235 ,  248 ,  255 ,  238 ,  255 ,   10 ,    0 ,   54 ,    0 ,   79 ,   31 ,   63 ,    5 ,  157 ,  142 ,  196 ,  226 ,    9 ,  129 ,   50 ,  240 ,   60 ,  128 ,    0 ,    0 ,    0 ,  118 ,    9 ,    9 ,    0 ,    0 ,    0 ,    0 ,    0 ,   25 ,  160 ,  196 ,  226 ,   40 ,    8 ,    0 ,   25 ,  246 ,  212 ,   79 ,    3 ,  177 ,   83 ,   37 
E: 000000.017798 64 01 80 7e 81 7f 00 00 2e 08 00 00 00 0b a6 2a eb f8 ff ee ff 0a 00 36 00 4f 1f 3f 05 9d 8e c4 e2 09 81 32 f0 3c 80 00 00 00 76 09 09 00 00 00 00 00 19 a0 c4 e2 28 08 00 19 f6 d4 4f 03 b1 53 25
# ReportID: 1 / X:  128 | Y:  126 | Z:  129 | Rz:  127 | Rx:    0 | Ry:    0 | 0xff000020:   47 | Hat switch:   8 | Button: 0  0  0  0  0  0  0  0  0  0  0  0  0  0  0 | 0xff000021: 0 , 0 , 0 , 0 , 0 , 0 , 0 , 0 , 0 , 0 , 0 , 0 , 0 | 0xff000022:   12 ,  166 ,   42 ,  235 ,  247 ,  255 ,  239 ,  255 ,   10 ,    0 ,   47 ,    0 ,   86 ,   31 ,   52 ,    5 ,  144 ,  189 ,  196 ,  226 ,    9 ,  129 ,   50 ,  240 ,   60 ,  128 ,    0 ,    0 ,    0 ,  118 ,    9 ,    9 ,    0 ,    0 ,    0 ,    0 ,    0 ,  249 ,  206 ,  196 ,  226 ,   40 ,    8 ,    0 ,    5 ,  125 ,  201 ,    3 ,   41 ,  236 ,  155 ,  224 
E: 000000.021639 64 01 80 7e 81 7f 00 00 2f 08 00 00 00 0c a6 2a eb f7 ff ef ff 0a 00 2f 00 56 1f 34 05 90 bd c4 e2 09 81 32 f0 3c 80 00 00 00 76 09 09 00 00 00 00 00 f9 ce c4 e2 28 08 00 05 7d c9 03 29 ec 9b e0
# ReportID: 1 / X:  128 | Y:  126 | Z:  129 | Rz:  127 | Rx:    0 | Ry:    0 | 0xff000020:   48 | Hat switch:   8 | Button: 0  0  0  0  0  0  0  0  0  0  0  0  0  0  0 | 0xff000021: 0 , 0 , 0 , 0 , 0 , 0 , 0 , 0 , 0 , 0 , 0 , 0 , 0 | 0xff000022:   13 ,  166 ,   42 ,  235 ,  246 ,  255 ,  238 ,  255 ,   10 ,    0 ,   52 ,    0 ,  109 ,   31 ,   58 ,    5 ,  131 ,  236 ,  196 ,  226 ,    8 ,  129 ,   50 ,  240 ,   60 ,  128 ,    0 ,    0 ,    0 ,  118 ,    9 ,    9 ,    0 ,    0 ,    0 ,    0 ,    0 ,  217 ,  253 ,  196 ,  226 ,   40 ,    8 ,    0 ,   39 ,  224 ,  116 ,   18 ,  149 ,  128 ,  116 ,  210 
E: 000000.025435 64 01 80 7e 81 7f 00 00 30 08 00 00 00 0d a6 2a eb f6 ff ee ff 0a 00 34 00 6d 1f 3a 05 83 ec c4 e2 08 81 32 f0 3c 80 00 00 00 76 09 09 00 00 00 00 00 d9 fd c4 e2 28 08 00 27 e0 74 12 95 80 74 d2
# ReportID: 1 / X:  128 | Y:  126 | Z:  130 | Rz:  127 | Rx:    0 | Ry:    0 | 0xff000020:   49 | Hat switch:   8 | Button: 0  0  0  0  0  0  0  0  0  0  0  0  0  0  0 | 0xff000021: 0 , 0 , 0 , 0 , 0 , 0 , 0 , 0 , 0 , 0 , 0 , 0 , 0 | 0xff000022:   14 ,  166 ,   42 ,  235 ,  246 ,  255 ,  239 ,  255 ,   11 ,    0 ,   56 ,    0 ,   70 ,   31 ,   57 ,    5 ,  118 ,   27 ,  197 ,  226 ,    9 ,  129 ,   50 ,  240 ,   60 ,  128 ,    0 ,    0 ,    0 ,  118 ,    9 ,    9 ,    0 ,    0 ,    0 ,    0 ,    0 ,  185 ,   44 ,  197 ,  226 ,   40 ,    8 ,    0 ,  217 ,  255 ,   12 ,  122 ,  159 ,  158 ,   18 ,   65 
E: 000000.030392 64 01 80 7e 82 7f 00 00 31 08 00 00 00 0e a6 2a eb f6 ff ef ff 0b 00 38 00 46 1f 39 05 76 1b c5 e2 09 81 32 f0 3c 80 00 00 00 76 09 09 00 00 00 00 00 b9 2c c5 e2 28 08 00 d9 ff 0c 7a 9f 9e 12 41
# ReportID: 1 / X:  128 | Y:  126 | Z:  129 | Rz:  127 | Rx:    0 | Ry:    0 | 0xff000020:   50 | Hat switch:   8 | Button: 0  0  0  0  0  0  0  0  0  0  0  0  0  0  0 | 0xff000021: 0 , 0 , 0 , 0 , 0 , 0 , 0 , 0 , 0 , 0 , 0 , 0 , 0 | 0xff000022:   15 ,  166 ,   42 ,  235 ,  247 ,  255 ,  238 ,  255 ,   10 ,    0 ,   54 ,    0 ,   48 ,   31 ,   50 ,    5 ,  106 ,   74 ,  197 ,  226 ,    8 ,  129 ,   50 ,  240 ,   60 ,  128 ,    0 ,    0 ,    0 ,  118 ,    9 ,    9 ,    0 ,    0 ,    0 ,    0 ,    0 ,  153 ,   91 ,  197 ,  226 ,   40 ,    8 ,    0 ,  190 ,   20 ,  147 ,  237 ,  179 ,  171 ,  130 ,  150 
E: 000000.033615 64 01 80 7e 81 7f 00 00 32 08 00 00 00 0f a6 2a eb f7 ff ee ff 0a 00 36 00 30 1f 32 05 6a 4a c5 e2 08 81 32 f0 3c 80 00 00 00 76 09 09 00 00 00 00 00 99 5b c5 e2 28 08 00 be 14 93 ed b3 ab 82 96
# ReportID: 1 / X:  128 | Y:  126 | Z:  129 | Rz:  127 | Rx:    0 | Ry:    0 | 0xff000020:   51 | Hat switch:   8 | Button: 0  0  0  0  0  0  0  0  0  0  0  0  0  0  0 | 0xff000021: 0 , 0 , 0 , 0 , 0 , 0 , 0 , 0 , 0 , 0 , 0 , 0 , 0 | 0xff000022:   16 ,  166 ,   42 ,  235 ,  246 ,  255 ,  237 ,  255 ,   11 ,    0 ,   48 ,    0 ,   94 ,   31 ,   52 ,    5 ,   93 ,  121 ,  197 ,  226 ,    8 ,  129 ,   50 ,  240 ,   60 ,  128 ,    0 ,    0 ,    0 ,  118 ,    9 ,    9 ,    0 ,    0 ,    0 ,    0 ,    0 ,  121 ,  138 ,  197 ,  226 ,   40 ,    8 ,    0 ,   29 ,   96 ,  222 ,   41 ,  136 ,   98 ,   82 ,  111 
E: 000000.037422 64 01 80 7e 81 7f 00 00 33 08 00 00 00 10 a6 2a eb f6 ff ed ff 0b 00 30 00 5e 1f 34 05 5d 79 c5 e2 08 81 32 f0 3c 80 00 00 00 76 09 09 00 00 00 00 00 79 8a c5 e2 28 08 00 1d 60 de 29 88 62 52 6f
# ReportID: 1 / X:  128 | Y:  126 | Z:  129 | Rz:  127 | Rx:    0 | Ry:    0 | 0xff000020:   52 | Hat switch:   8 | Button: 0  0  0  0  0  0  0  0  0  0  0  0  0  0  0 | 0xff000021: 0 , 0 , 0 , 0 , 0 , 0 , 0 , 0 , 0 , 0 , 0 , 0 , 0 | 0xff000022:   17 ,  166 ,   42 ,  235 ,  245 ,  255 ,  238 ,  255 ,   10 ,    0 ,   54 ,    0 ,  106 ,   31 ,   51 ,    5 ,   80 ,  168 ,  197 ,  226 ,    8 ,  129 ,   50 ,  240 ,   60 ,  128 ,    0 ,    0 ,    0 ,  118 ,    9 ,    9 ,    0 ,    0 ,    0 ,    0 ,    0 ,   89 ,  185 ,  197 ,  226 ,   40 ,    8 ,    0 ,   31 ,   26 ,   70 ,  102 ,  241 ,  156 ,  248 ,  147 
E: 000000.041451 64 01 80 7e 81 7f 00 00 34 08 00 00 00 11 a6 2a eb f5 ff ee ff 0a 00 36 00 6a 1f 33 05 50 a8 c5 e2 08 81 32 f0 3c 80 00 00 00 76 09 09 00 00 00 00 00 59 b9 c5 e2 28 08 00 1f 1a 46 66 f1 9c f8 93
# ReportID: 1 / X:  128 | Y:  126 | Z:  129 | Rz:  127 | Rx:    0 | Ry:    0 | 0xff000020:   53 | Hat switch:   8 | Button: 0  0  0  0  0  0  0  0  0  0  0  0  0  0  0 | 0xff000021: 0 , 0 , 0 , 0 , 0 , 0 , 0 , 0 , 0 , 0 , 0 , 0 , 0 | 0xff000022:   18 ,  166 ,   42 ,  235 ,  248 ,  255 ,  238 ,  255 ,   10 ,    0 ,   52 ,    0 ,   95 ,   31 ,   55 ,    5 ,   67 ,  215 ,  197 ,  226 ,    9 ,  129 ,   50 ,  240 ,   60 ,  128 ,    0 ,    0 ,    0 ,  118 ,    9 ,    9 ,    0 ,    0 ,    0 ,    0 ,    0 ,   57 ,  232 ,  197 ,  226 ,   40 ,    8 ,    0 ,   78 ,   26 ,  249 ,  126 ,   57 ,  108 ,   44 ,  169 
E: 000000.045610 64 01 80 7e 81 7f 00 00 35 08 00 00 00 12 a6 2a eb f8 ff ee ff 0a 00 34 00 5f 1f 37 05 43 d7 c5 e2 09 81 32 f0 3c 80 00 00 00 76 09 09 00 00 00 00 00 39 e8 c5 e2 28 08 00 4e 1a f9 7e 39 6c 2c a9
# ReportID: 1 / X:  128 | Y:  126 | Z:  130 | Rz:  127 | Rx:    0 | Ry:    0 | 0xff000020:   54 | Hat switch:   8 | Button: 0  0  0  0  0  0  0  0  0  0  0  0  0  0  0 | 0xff000021: 0 , 0 , 0 , 0 , 0 , 0 , 0 , 0 , 0 , 0 , 0 , 0 , 0 | 0xff000022:   19 ,  166 ,   42 ,  235 ,  247 ,  255 ,  238 ,  255 ,   11 ,    0 ,   49 ,    0 ,   88 ,   31 ,   66 ,    5 ,   54 ,    6 ,  198 ,  226 ,    8 ,  129 ,   50 ,  240 ,   60 ,  128 ,    0 ,    0 ,    0 ,  118 ,    9 ,    9 ,    0 ,    0 ,    0 ,    0 ,    0 ,   25 ,   23 ,  198 ,  226 ,   40 ,    8 ,    0 ,  125 ,  207 ,   35 ,   93 ,   35 ,    0 ,  173 ,   99 
E: 000000.049500 64 01 80 7e 82 7f 00 00 36 08 00 00 00 13 a6 2a eb f7 ff ee ff 0b 00 31 00 58 1f 42 05 36 06 c6 e2 08 81 32 f0 3c 80 00 00 00 76 09 09 00 00 00 00 00 19 17 c6 e2 28 08 00 7d cf 23 5d 23 00 ad 63
# ReportID: 1 / X:  128 | Y:  126 | Z:  129 | Rz:  127 | Rx:    0 | Ry:    0 | 0xff000020:   55 | Hat switch:   8 | Button: 0  0  0  0  0  0  0  0  0  0  0  0  0  0  0 | 0xff000021: 0 , 0 , 0 , 0 , 0 , 0 , 0 , 0 , 0 , 0 , 0 , 0 , 0 | 0xff000022:   20 ,  166 ,   42 ,  235 ,  247 ,  255 ,  239 ,  255 ,   10 ,    0 ,   56 ,    0 ,   80 ,   31 ,   61 ,    5 ,   41 ,   53 ,  198 ,  226 ,    8 ,  129 ,   50 ,  240 ,   60 ,  128 ,    0 ,    0 ,    0 ,  118 ,    9 ,    9 ,    0 ,    0 ,    0 ,    0 ,    0 ,  249 ,   69 ,  198 ,  226 ,   40 ,    8 ,    0 ,  151 ,   93 ,  217 ,   95 ,  189 ,  217 ,  148 ,  178 
E: 000000.054397 64 01 80 7e 81 7f 00 00 37 08 00 00 00 14 a6 2a eb f7 ff ef ff 0a 00 38 00 50 1f 3d 05 29 35 c6 e2 08 81 32 f0 3c 80 00 00 00 76 09 09 00 00 00 00 00 f9 45 c6 e2 28 08 00 97 5d d9 5f bd d9 94 b2
# ReportID: 1 / X:  128 | Y:  126 | Z:  130 | Rz:  127 | Rx:    0 | Ry:    0 | 0xff000020:   56 | Hat switch:   8 | Button: 0  0  0  0  0  0  0  0  0  0  0  0  0  0  0 | 0xff000021: 0 , 0 , 0 , 0 , 0 , 0 , 0 , 0 , 0 , 0 , 0 , 0 , 0 | 0xff000022:   21 ,  166 ,   42 ,  235 ,  247 ,  255 ,  238 ,  255 ,   11 ,    0 ,   51 ,    0 ,   64 ,   31 ,   62 ,    5 ,   28 ,  100 ,  198 ,  226 ,    8 ,  129 ,   50 ,  240 ,   60 ,  128 ,    0 ,    0 ,    0 ,  118 ,    9 ,    9 ,    0 ,    0 ,    0 ,    0 ,    0 ,  217 ,  116 ,  198 ,  226 ,   40 ,    8 ,    0 ,  156 ,   62 ,  180 ,  133 ,   48 ,  203 ,    8 ,  207 
E: 000000.058093 64 01 80 7e 82 7f 00 00 38 08 00 00 00 15 a6 2a eb f7 ff ee ff 0b 00 33 00 40 1f 3e 05 1c 64 c6 e2 08 81 32 f0 3c 80 00 00 00 76 09 09 00 00 00 00 00 d9 74 c6 e2 28 08 00 9c 3e b4 85 30 cb 08 cf
# ReportID: 1 / X:  128 | Y:  126 | Z:  130 | Rz:  127 | Rx:    0 | Ry:    0 | 0xff000020:   57 | Hat switch:   8 | Button: 0  0  0  0  0  0  0  0  0  0  0  0  0  0  0 | 0xff000021: 0 , 0 , 0 , 0 , 0 , 0 , 0 , 0 , 0 , 0 , 0 , 0 , 0 | 0xff000022:   22 ,  166 ,   42 ,  235 ,  248 ,  255 ,  238 ,  255 ,   10 ,    0 ,   51 ,    0 ,   72 ,   31 ,   55 ,    5 ,   16 ,  147 ,  198 ,  226 ,    9 ,  129 ,   50 ,  240 ,   60 ,  128 ,    0 ,    0 ,    0 ,  118 ,    9 ,    9 ,    0 ,    0 ,    0 ,    0 ,    0 ,  185 ,  163 ,  198 ,  226 ,   40 ,    8 ,    0 ,    9 ,  196 ,  226 ,  218 ,  123 ,  112 ,    4 ,  122 
E: 000000.061575 64 01 80 7e 82 7f 00 00 39 08 00 00 00 16 a6 2a eb f8 ff ee ff 0a 00 33 00 48 1f 37 05 10 93 c6 e2 09 81 32 f0 3c 80 00 00 00 76 09 09 00 00 00 00 00 b9 a3 c6 e2 28 08 00 09 c4 e2 da 7b 70 04 7a
# ReportID: 1 / X:  128 | Y:  126 | Z:  129 | Rz:  127 | Rx:    0 | Ry:    0 | 0xff000020:   58 | Hat switch:   8 | Button: 0  0  0  0  0  0  0  0  0  0  0  0  0  0  0 | 0xff000021: 0 , 0 , 0 , 0 , 0 , 0 , 0 , 0 , 0 , 0 , 0 , 0 , 0 | 0xff000022:   23 ,  166 ,   42 ,  235 ,  248 ,  255 ,  237 ,  255 ,   11 ,    0 ,   55 ,    0 ,  106 ,   31 ,   62 ,    5 ,    3 ,  194 ,  198 ,  226 ,    8 ,  129 ,   50 ,  240 ,   60 ,  128 ,    0 ,    0 ,    0 ,  118 ,    9 ,    9 ,    0 ,    0 ,    0 ,    0 ,    0 ,  153 ,  210 ,  198 ,  226 ,   40 ,    8 ,    0 ,   94 ,  115 ,   85 ,  248 ,  213 ,   18 ,  246 ,   28 
E: 000000.066202 64 01 80 7e 81 7f 00 00 3a 08 00 00 00 17 a6 2a eb f8 ff ed ff 0b 00 37 00 6a 1f 3e 05 03 c2 c6 e2 08 81 32 f0 3c 80 00 00 00 76 09 09 00 00 00 00 00 99 d2 c6 e2 28 08 00 5e 73 55 f8 d5 12 f6 1c
# ReportID: 1 / X:  128 | Y:  126 | Z:  129 | Rz:  127 | Rx:    0 | Ry:    0 | 0xff000020:   59 | Hat switch:   8 | Button: 0  0  0  0  0  0  0  0  0  0  0  0  0  0  0 | 0xff000021: 0 , 0 , 0 , 0 , 0 , 0 , 0 , 0 , 0 , 0 , 0 , 0 , 0 | 0xff000022:   24 ,  166 ,   42 ,  235 ,  247 ,  255 ,  238 ,  255 ,   10 ,    0 ,   46 ,    0 ,   94 ,   31 ,   61 ,    5 ,  246 ,  240 ,  198 ,  226 ,    8 ,  129 ,   50 ,  240 ,   60 ,  128 ,    0 ,    0 ,    0 ,  118 ,    9 ,    9 ,    0 ,    0 ,    0 ,    0 ,    0 ,  121 ,    1 ,  199 ,  226 ,   40 ,    8 ,    0 ,  173 ,  201 ,   58 ,  108 ,  133 ,   49 ,  163 ,  163 
E: 000000.069735 64 01 80 7e 81 7f 00 00 3b 08 00 00 00 18 a6 2a eb f7 ff ee ff 0a 00 2e 00 5e 1f 3d 05 f6 f0 c6 e2 08 81 32 f0 3c 80 00 00 00 76 09 09 00 00 00 00 00 79 01 c7 e2 28 08 00 ad c9 3a 6c 85 31 a3 a3
# ReportID: 1 / X:  128 | Y:  126 | Z:  129 | Rz:  127 | Rx:    0 | Ry:    0 | 0xff000020:   60 | Hat switch:   8 | Button: 0  0  0  0  0  0  0  0  0  0  0  0  0  0  0 | 0xff000021: 0 , 0 , 0 , 0 , 0 , 0 , 0 , 0 , 0 , 0 , 0 , 0 , 0 | 0xff000022:   25 ,  166 ,   42 ,  235 ,  247 ,  255 ,  238 ,  255 ,   10 ,    0 ,   50 ,    0 ,   77 ,   31 ,   62 ,    5 ,  233 ,   31 ,  199 ,  226 ,    8 ,  129 ,   50 ,  240 ,   60 ,  128 ,    0 ,    0 ,    0 ,  118 ,    9 ,    9 ,    0 ,    0 ,    0 ,    0 ,    0 ,   89 ,   48 ,  199 ,  226 ,   40 ,    8 ,    0 ,  165 ,  186 ,  173 ,  206 ,   28 ,  170 ,  182 ,  137 
E: 000000.073425 64 01 80 7e 81 7f 00 00 3c 08 00 00 00 19 a6 2a eb f7 ff ee ff 0a 00 32 00 4d 1f 3e 05 e9 1f c7 e2 08 81 32 f0 3c 80 00 00 00 76 09 09 00 00 00 00 00 59 30 c7 e2 28 08 00 a5 ba ad ce 1c aa b6 89
# ReportID: 1 / X:  128 | Y:  126 | Z:  129 | Rz:  127 | Rx:    0 | Ry:    0 | 0xff000020:   61 | Hat switch:   8 | Button: 0  0  0  0  0  0  0  0  0  0  0  0  0  0  0 | 0xff000021: 0 , 0 , 0 , 0 , 0 , 0 , 0 , 0 , 0 , 0 , 0 , 0 , 0 | 0xff000022:   26 ,  166 ,   42 ,  235 ,  246 ,  255 ,  238 ,  255 ,   11 ,    0 ,   53 ,    0 ,   82 ,   31 ,   71 ,    5 ,  220 ,   78 ,  199 ,  226 ,    8 ,  129 ,   50 ,  240 ,   60 ,  128 ,    0 ,    0 ,    0 ,  118 ,    9 ,    9 ,    0 ,    0 ,    0 ,    0 ,    0 ,   57 ,   95 ,  199 ,  226 ,   40 ,    8 ,    0 ,  158 ,  145 ,   23 ,   54 ,  112 ,  132 ,  192 ,  223 
E: 000000.077528 64 01 80 7e 81 7f 00 00 3d 08 00 00 00 1a a6 2a eb f6 ff ee ff 0b 00 35 00 52 1f 47 05 dc 4e c7 e2 08 81 32 f0 3c 80 00 00 00 76 09 09 00 00 00 00 00 39 5f c7 e2 28 08 00 9e 91 17 36 70 84 c0 df
# ReportID: 1 / X:  128 | Y:  126 | Z:  130 | Rz:  127 | Rx:    0 | Ry:    0 | 0xff000020:   62 | Hat switch:   8 | Button: 0  0  0  0  0  0  0  0  0  0  0  0  0  0  0 | 0xff000021: 0 , 0 , 0 , 0 , 0 , 0 , 0 , 0 , 0 , 0 , 0 , 0 , 0 | 0xff000022:   27 ,  166 ,   42 ,  235 ,  247 ,  255 ,  238 ,  255 ,   11 ,    0 ,   48 ,    0 ,   71 ,   31 ,   57 ,    5 ,  207 ,  125 ,  199 ,  226 ,    8 ,  129 ,   50 ,  240 ,   60 ,  128 ,    0 ,    0 ,    0 ,  118 ,    9 ,    9 ,    0 ,    0 ,    0 ,    0 ,    0 ,   25 ,  142 ,  199 ,  226 ,   40 ,    8 ,    0 ,  115 ,   73 ,   87 ,  107 ,   99 ,  116 ,   48 ,   81 
E: 000000.081433 64 01 80 7e 82 7f 00 00 3e 08 00 00 00 1b a6 2a eb f7 ff ee ff 0b 00 30 00 47 1f 39 05 cf 7d c7 e2 08 81 32 f0 3c 80 00 00 00 76 09 09 00 00 00 00 00 19 8e c7 e2 28 08 00 73 49 57 6b 63 74 30 51
# ReportID: 1 / X:  128 | Y:  126 | Z:  129 | Rz:  127 | Rx:    0 | Ry:    0 | 0xff000020:   63 | Hat switch:   8 | Button: 0  0  0  0  0  0  0  0  0  0  0  0  0  0  0 | 0xff000021: 0 , 0 , 0 , 0 , 0 , 0 , 0 , 0 , 0 , 0 , 0 , 0 , 0 | 0xff000022:   28 ,  166 ,   42 ,  235 ,  248 ,  255 ,  238 ,  255 ,   10 ,    0 ,   42 ,    0 ,   85 ,   31 ,   55 ,    5 ,  195 ,  172 ,  199 ,  226 ,    8 ,  129 ,   50 ,  240 ,   60 ,  128 ,    0 ,    0 ,    0 ,  118 ,    9 ,    9 ,    0 ,    0 ,    0 ,    0 ,    0 ,  249 ,  188 ,  199 ,  226 ,   40 ,    8 ,    0 ,   75 ,  101 ,  108 ,   92 ,   73 ,  164 ,  120 ,  107 
E: 000000.085399 64 01 80 7e 81 7f 00 00 3f 08 00 00 00 1c a6 2a eb f8 ff ee ff 0a 00 2a 00 55 1f 37 05 c3 ac c7 e2 08 81 32 f0 3c 80 00 00 00 76 09 09 00 00 00 00 00 f9 bc c7 e2 28 08 00 4b 65 6c 5c 49 a4 78 6b
# ReportID: 1 / X:  128 | Y:  126 | Z:  129 | Rz:  127 | Rx:    0 | Ry:    0 | 0xff000020:   64 | Hat switch:   8 | Button: 0  0  0  0  0  0  0  0  0  0  0  0  0  0  0 | 0xff000021: 0 , 0 , 0 , 0 , 0 , 0 , 0 , 0 , 0 , 0 , 0 , 0 , 0 | 0xff000022:   29 ,  166 ,   42 ,  235 ,  247 ,  255 ,  238 ,  255 ,    9 ,    0 ,   45 ,    0 ,   89 ,   31 ,   52 ,    5 ,  216 ,  213 ,  199 ,  226 ,    8 ,  129 ,   50 ,  240 ,   60 ,  128 ,    0 ,    0 ,    0 ,  118 ,    9 ,    9 ,    0 ,    0 ,    0 ,    0 ,    0 ,  217 ,  235 ,  199 ,  226 ,   40 ,    8 ,    0 ,  101 ,  180 ,  157 ,   30 ,  182 ,  132 ,   74 ,  121 
E: 000000.090858 64 01 80 7e 81 7f 00 00 40 08 00 00 00 1d a6 2a eb f7 ff ee ff 09 00 2d 00 59 1f 34 05 d8 d5 c7 e2 08 81 32 f0 3c 80 00 00 00 76 09 09 00 00 00 00 00 d9 eb c7 e2 28 08 00 65 b4 9d 1e b6 84 4a 79
# ReportID: 1 / X:  128 | Y:  126 | Z:  129 | Rz:  127 | Rx:    0 | Ry:    0 | 0xff000020:   65 | Hat switch:   8 | Button: 0  0  0  0  0  0  0  0  0  0  0  0  0  0  0 | 0xff000021: 0 , 0 , 0 , 0 , 0 , 0 , 0 , 0 , 0 , 0 , 0 , 0 , 0 | 0xff000022:   30 ,  166 ,   42 ,  235 ,  247 ,  255 ,  239 ,  255 ,   10 ,    0 ,   47 ,    0 ,   83 ,   31 ,   45 ,    5 ,  236 ,  254 ,  199 ,  226 ,    8 ,  129 ,   50 ,  240 ,   60 ,  128 ,    0 ,    0 ,    0 ,  118 ,    9 ,    9 ,    0 ,    0 ,    0 ,    0 ,    0 ,  185 ,   26 ,  200 ,  226 ,   40 ,    8 ,    0 ,  102 ,   13 ,   50 ,  207 ,  216 ,   59 ,   50 ,   34 
E: 000000.095184 64 01 80 7e 81 7f 00 00 41 08 00 00 00 1e a6 2a eb f7 ff ef ff 0a 00 2f 00 53 1f 2d 05 ec fe c7 e2 08 81 32 f0 3c 80 00 00 00 76 09 09 00 00 00 00 00 b9 1a c8 e2 28 08 00 66 0d 32 cf d8 3b 32 22
# ReportID: 1 / X:  128 | Y:  126 | Z:  129 | Rz:  127 | Rx:    0 | Ry:    0 | 0xff000020:   66 | Hat switch:   8 | Button: 0  0  0  0  0  0  0  0  0  0  0  0  0  0  0 | 0xff000021: 0 , 0 , 0 , 0 , 0 , 0 , 0 , 0 , 0 , 0 , 0 , 0 , 0 | 0xff000022:   31 ,  166 ,   42 ,  235 ,  247 ,  255 ,  239 ,  255 ,   11 ,    0 ,   46 ,    0 ,   93 ,   31 ,   43 ,    5 ,  223 ,   45 ,  200 ,  226 ,    8 ,  129 ,   50 ,  240 ,   60 ,  128 ,    0 ,    0 ,    0 ,  118 ,    9 ,    9 ,    0 ,    0 ,    0 ,    0 ,    0 ,  153 ,   73 ,  200 ,  226 ,   40 ,    8 ,    0 ,  112 ,  244 ,  148 ,  119 ,   89 ,  191 ,  184 ,  206 
E: 000000.098653 64 01 80 7e 81 7f 00 00 42 08 00 00 00 1f a6 2a eb f7 ff ef ff 0b 00 2e 00 5d 1f 2b 05 df 2d c8 e2 08 81 32 f0 3c 80 00 00 00 76 09 09 00 00 00 00 00 99 49 c8 e2 28 08 00 70 f4 94 77 59 bf b8 ce
# ReportID: 1 / X:  128 | Y:  126 | Z:  130 | Rz:  127 | Rx:    0 | Ry:    0 | 0xff000020:   67 | Hat switch:   8 | Button: 0  0  0  0  0  0  0  0  0  0  0  0  0  0  0 | 0xff000021: 0 , 0 , 0 , 0 , 0 , 0 , 0 , 0 , 0 , 0 , 0 , 0 , 0 | 0xff000022:   32 ,  166 ,   42 ,  235 ,  248 ,  255 ,  238 ,  255 ,   13 ,    0 ,   38 ,    0 ,   87 ,   31 ,   37 ,    5 ,  210 ,   92 ,  200 ,  226 ,    8 ,  129 ,   50 ,  240 ,   60 ,  128 ,    0 ,    0 ,    0 ,  118 ,    9 ,    9 ,    0 ,    0 ,    0 ,    0 ,    0 ,  121 ,  120 ,  200 ,  226 ,   40 ,    8 ,    0 ,  244 ,   62 ,  161 ,   30 ,   47 ,   78 ,   82 ,  252 
E: 000000.102837 64 01 80 7e 82 7f 00 00 43 08 00 00 00 20 a6 2a eb f8 ff ee ff 0d 00 26 00 57 1f 25 05 d2 5c c8 e2 08 81 32 f0 3c 80 00 00 00 76 09 09 00 00 00 00 00 79 78 c8 e2 28 08 00 f4 3e a1 1e 2f 4e 52 fc
# ReportID: 1 / X:  128 | Y:  126 | Z:  129 | Rz:  127 | Rx:    0 | Ry:    0 | 0xff000020:   68 | Hat switch:   8 | Button: 0  0  0  0  0  0  0  0  0  0  0  0  0  0  0 | 0xff000021: 0 , 0 , 0 , 0 , 0 , 0 , 0 , 0 , 0 , 0 , 0 , 0 , 0 | 0xff000022:   33 ,  166 ,   42 ,  235 ,  248 ,  255 ,  238 ,  255 ,   10 ,    0 ,   46 ,    0 ,   81 ,   31 ,   43 ,    5 ,  198 ,  139 ,  200 ,  226 ,    8 ,  129 ,   50 ,  240 ,   60 ,  128 ,    0 ,    0 ,    0 ,  118 ,    9 ,    9 ,    0 ,    0 ,    0 ,    0 ,    0 ,   89 ,  167 ,  200 ,  226 ,   40 ,    8 ,    0 ,  203 ,   93 ,  206 ,   24 ,   58 ,  123 ,   42 ,  246 
E: 000000.106241 64 01 80 7e 81 7f 00 00 44 08 00 00 00 21 a6 2a eb f8 ff ee ff 0a 00 2e 00 51 1f 2b 05 c6 8b c8 e2 08 81 32 f0 3c 80 00 00 00 76 09 09 00 00 00 00 00 59 a7 c8 e2 28 08 00 cb 5d ce 18 3a 7b 2a f6
# ReportID: 1 / X:  128 | Y:  126 | Z:  129 | Rz:  127 | Rx:    0 | Ry:    0 | 0xff000020:   69 | Hat switch:   8 | Button: 0  0  0  0  0  0  0  0  0  0  0  0  0  0  0 | 0xff000021: 0 , 0 , 0 , 0 , 0 , 0 , 0 , 0 , 0 , 0 , 0 , 0 , 0 | 0xff000022:   34 ,  166 ,   42 ,  235 ,  247 ,  255 ,  238 ,  255 ,   11 ,    0 ,   43 ,    0 ,   93 ,   31 ,   49 ,    5 ,  185 ,  186 ,  200 ,  226 ,    8 ,  129 ,   50 ,  240 ,   60 ,  128 ,    0 ,    0 ,    0 ,  118 ,    9 ,    9 ,    0 ,    0 ,    0 ,    0 ,    0 ,   57 ,  214 ,  200 ,  226 ,   40 ,    8 ,    0 ,  252 ,  203 ,  140 ,   29 ,  172 ,  236 ,   39 ,  229 
E: 000000.110820 64 01 80 7e 81 7f 00 00 45 08 00 00 00 22 a6 2a eb f7 ff ee ff 0b 00 2b 00 5d 1f 31 05 b9 ba c8 e2 08 81 32 f0 3c 80 00 00 00 76 09 09 00 00 00 00 00 39 d6 c8 e2 28 08 00 fc cb 8c 1d ac ec 27 e5
# ReportID: 1 / X:  128 | Y:  126 | Z:  129 | Rz:  127 | Rx:    0 | Ry:    0 | 0xff000020:   70 | Hat switch:   8 | Button: 0  0  0  0  0  0  0  0  0  0  0  0  0  0  0 | 0xff000021: 0 , 0 , 0 , 0 , 0 , 0 , 0 , 0 , 0 , 0 , 0 , 0 , 0 | 0xff000022:   35 ,  166 ,   42 ,  235 ,  247 ,  255 ,  238 ,  255 ,    9 ,    0 ,   47 ,    0 ,   98 ,   31 ,   48 ,    5 ,  172 ,  233 ,  200 ,  226 ,    8 ,  129 ,   50 ,  240 ,   60 ,  128 ,    0 ,    0 ,    0 ,  118 ,    9 ,    9 ,    0 ,    0 ,    0 ,    0 ,    0 ,   25 ,    5 ,  201 ,  226 ,   40 ,    8 ,    0 ,   49 ,  226 ,   28 ,  151 ,   31 ,  251 ,  100 ,   42 
E: 000000.114344 64 01 80 7e 81 7f 00 00 46 08 00 00 00 23 a6 2a eb f7 ff ee ff 09 00 2f 00 62 1f 30 05 ac e9 c8 e2 08 81 32 f0 3c 80 00 00 00 76 09 09 00 00 00 00 00 19 05 c9 e2 28 08 00 31 e2 1c 97 1f fb 64 2a
# ReportID: 1 / X:  128 | Y:  126 | Z:  129 | Rz:  127 | Rx:    0 | Ry:    0 | 0xff000020:   71 | Hat switch:   8 | Button: 0  0  0  0  0  0  0  0  0  0  0  0  0  0  0 | 0xff000021: 0 , 0 , 0 , 0 , 0 , 0 , 0 , 0 , 0 , 0 , 0 , 0 , 0 | 0xff000022:   36 ,  166 ,   42 ,  235 ,  247 ,  255 ,  238 ,  255 ,   10 ,    0 ,   53 ,    0 ,   88 ,   31 ,   50 ,    5 ,  159 ,   24 ,  201 ,  226 ,    8 ,  129 ,   50 ,  240 ,   60 ,  128 ,    0 ,    0 ,    0 ,  118 ,    9 ,    9 ,    0 ,    0 ,    0 ,    0 ,    0 ,  249 ,   51 ,  201 ,  226 ,   40 ,    8 ,    0 ,  144 ,   30 ,  116 ,  120 ,   30 ,   75 ,  246 ,  147 
E: 000000.118068 64 01 80 7e 81 7f 00 00 47 08 00 00 00 24 a6 2a eb f7 ff ee ff 0a 00 35 00 58 1f 32 05 9f 18 c9 e2 08 81 32 f0 3c 80 00 00 00 76 09 09 00 00 00 00 00 f9 33 c9 e2 28 08 00 90 1e 74 78 1e 4b f6 93
# ReportID: 1 / X:  128 | Y:  126 | Z:  130 | Rz:  127 | Rx:    0 | Ry:    0 | 0xff000020:   72 | Hat switch:   8 | Button: 0  0  0  0  0  0  0  0  0  0  0  0  0  0  0 | 0xff000021: 0 , 0 , 0 , 0 , 0 , 0 , 0 , 0 , 0 , 0 , 0 , 0 , 0 | 0xff000022:   37 ,  166 ,   42 ,  235 ,  247 ,  255 ,  239 ,  255 ,   11 ,    0 ,   58 ,    0 ,   98 ,   31 ,   56 ,    5 ,  146 ,   71 ,  201 ,  226 ,    8 ,  129 ,   50 ,  240 ,   60 ,  128 ,    0 ,    0 ,    0 ,  118 ,    9 ,    9 ,    0 ,    0 ,    0 ,    0 ,    0 ,  217 ,   98 ,  201 ,  226 ,   40 ,    8 ,    0 ,  129 ,  255 ,  110 ,  139 ,   91 ,   31 ,  193 ,   97 
E: 000000.121588 64 01 80 7e 82 7f 00 00 48 08 00 00 00 25 a6 2a eb f7 ff ef ff 0b 00 3a 00 62 1f 38 05 92 47 c9 e2 08 81 32 f0 3c 80 00 00 00 76 09 09 00 00 00 00 00 d9 62 c9 e2 28 08 00 81 ff 6e 8b 5b 1f c1 61
# ReportID: 1 / X:  128 | Y:  126 | Z:  129 | Rz:  127 | Rx:    0 | Ry:    0 | 0xff000020:   73 | Hat switch:   8 | Button: 0  0  0  0  0  0  0  0  0  0  0  0  0  0  0 | 0xff000021: 0 , 0 , 0 , 0 , 0 , 0 , 0 , 0 , 0 , 0 , 0 , 0 , 0 | 0xff000022:   38 ,  166 ,   42 ,  235 ,  247 ,  255 ,  239 ,  255 ,   10 ,    0 ,   67 ,    0 ,  120 ,   31 ,   62 ,    5 ,  133 ,  118 ,  201 ,  226 ,    8 ,  129 ,   50 ,  240 ,   60 ,  128 ,    0 ,    0 ,    0 ,  118 ,    9 ,    9 ,    0 ,    0 ,    0 ,    0 ,    0 ,  185 ,  145 ,  201 ,  226 ,   40 ,    8 ,    0 ,   33 ,  237 ,  235 ,   38 ,   83 ,   71 ,  235 ,   99 
E: 000000.125648 64 01 80 7e 81 7f 00 00 49 08 00 00 00 26 a6 2a eb f7 ff ef ff 0a 00 43 00 78 1f 3e 05 85 76 c9 e2 08 81 32 f0 3c 80 00 00 00 76 09 09 00 00 00 00 00 b9 91 c9 e2 28 08 00 21 ed eb 26 53 47 eb 63
# ReportID: 1 / X:  128 | Y:  126 | Z:  130 | Rz:  127 | Rx:    0 | Ry:    0 | 0xff000020:   74 | Hat switch:   8 | Button: 0  0  0  0  0  0  0  0  0  0  0  0  0  0  0 | 0xff000021: 0 , 0 , 0 , 0 , 0 , 0 , 0 , 0 , 0 , 0 , 0 , 0 , 0 | 0xff000022:   39 ,  166 ,   42 ,  235 ,  247 ,  255 ,  239 ,  255 ,   10 ,    0 ,   52 ,    0 ,   78 ,   31 ,   53 ,    5 ,  120 ,  165 ,  201 ,  226 ,    8 ,  129 ,   50 ,  240 ,   60 ,  128 ,    0 ,    0 ,    0 ,  118 ,    9 ,    9 ,    0 ,    0 ,    0 ,    0 ,    0 ,  153 ,  192 ,  201 ,  226 ,   40 ,    8 ,    0 ,   53 ,  221 ,   26 ,  222 ,  227 ,   54 ,   46 ,   78 
E: 000000.129633 64 01 80 7e 82 7f 00 00 4a 08 00 00 00 27 a6 2a eb f7 ff ef ff 0a 00 34 00 4e 1f 35 05 78 a5 c9 e2 08 81 32 f0 3c 80 00 00 00 76 09 09 00 00 00 00 00 99 c0 c9 e2 28 08 00 35 dd 1a de e3 36 2e 4e
# ReportID: 1 / X:  128 | Y:  126 | Z:  130 | Rz:  127 | Rx:    0 | Ry:    0 | 0xff000020:   75 | Hat switch:   8 | Button: 0  0  0  0  0  0  0  0  0  0  0  0  0  0  0 | 0xff000021: 0 , 0 , 0 , 0 , 0 , 0 , 0 , 0 , 0 , 0 , 0 , 0 , 0 | 0xff000022:   40 ,  166 ,   42 ,  235 ,  247 ,  255 ,  238 ,  255 ,   10 ,    0 ,   54 ,    0 ,   49 ,   31 ,   60 ,    5 ,  108 ,  212 ,  201 ,  226 ,    9 ,  129 ,   50 ,  240 ,   60 ,  128 ,    0 ,    0 ,    0 ,  118 ,    9 ,    9 ,    0 ,    0 ,    0 ,    0 ,    0 ,  121 ,  239 ,  201 ,  226 ,   40 ,    8 ,    0 ,   28 ,   69 ,   34 ,   39 ,  181 ,  152 ,   73 ,   11 
E: 000000.133372 64 01 80 7e 82 7f 00 00 4b 08 00 00 00 28 a6 2a eb f7 ff ee ff 0a 00 36 00 31 1f 3c 05 6c d4 c9 e2 09 81 32 f0 3c 80 00 00 00 76 09 09 00 00 00 00 00 79 ef c9 e2 28 08 00 1c 45 22 27 b5 98 49 0b
# ReportID: 1 / X:  128 | Y:  126 | Z:  129 | Rz:  127 | Rx:    0 | Ry:    0 | 0xff000020:   76 | Hat switch:   8 | Button: 0  0  0  0  0  0  0  0  0  0  0  0  0  0  0 | 0xff000021: 0 , 0 , 0 , 0 , 0 , 0 , 0 , 0 , 0 , 0 , 0 , 0 , 0 | 0xff000022:   41 ,  166 ,   42 ,  235 ,  247 ,  255 ,  239 ,  255 ,   11 ,    0 ,   55 ,    0 ,   69 ,   31 ,   60 ,    5 ,   95 ,    3 ,  202 ,  226 ,    8 ,  129 ,   50 ,  240 ,   60 ,  128 ,    0 ,    0 ,    0 ,  118 ,    9 ,    9 ,    0 ,    0 ,    0 ,    0 ,    0 ,   89 ,   30 ,  202 ,  226 ,   40 ,    8 ,    0 ,  225 ,  193 ,  127 ,  246 ,   11 ,   49 ,  110 ,  224 
E: 000000.138536 64 01 80 7e 81 7f 00 00 4c 08 00 00 00 29 a6 2a eb f7 ff ef ff 0b 00 37 00 45 1f 3c 05 5f 03 ca e2 08 81 32 f0 3c 80 00 00 00 76 09 09 00 00 00 00 00 59 1e ca e2 28 08 00 e1 c1 7f f6 0b 31 6e e0
# ReportID: 1 / X:  128 | Y:  126 | Z:  129 | Rz:  127 | Rx:    0 | Ry:    0 | 0xff000020:   77 | Hat switch:   8 | Button: 0  0  0  0  0  0  0  0  0  0  0  0  0  0  0 | 0xff000021: 0 , 0 , 0 , 0 , 0 , 0 , 0 , 0 , 0 , 0 , 0 , 0 , 0 | 0xff000022:   42 ,  166 ,   42 ,  235 ,  246 ,  255 ,  238 ,  255 ,   10 ,    0 ,   59 ,    0 ,   80 ,   31 ,   52 ,    5 ,   82 ,   50 ,  202 ,  226 ,    8 ,  129 ,   50 ,  240 ,   60 ,  128 ,    0 ,    0 ,    0 ,  118 ,    9 ,    9 ,    0 ,    0 ,    0 ,    0 ,    0 ,   57 ,   77 ,  202 ,  226 ,   40 ,    8 ,    0 ,   62 ,   68 ,   87 ,   14 ,   37 ,   58 ,   74 ,  231 
E: 000000.142330 64 01 80 7e 81 7f 00 00 4d 08 00 00 00 2a a6 2a eb f6 ff ee ff 0a 00 3b 00 50 1f 34 05 52 32 ca e2 08 81 32 f0 3c 80 00 00 00 76 09 09 00 00 00 00 00 39 4d ca e2 28 08 00 3e 44 57 0e 25 3a 4a e7
# ReportID: 1 / X:  128 | Y:  126 | Z:  129 | Rz:  127 | Rx:    0 | Ry:    0 | 0xff000020:   78 | Hat switch:   8 | Button: 0  0  0  0  0  0  0  0  0  0  0  0  0  0  0 | 0xff000021: 0 , 0 , 0 , 0 , 0 , 0 , 0 , 0 , 0 , 0 , 0 , 0 , 0 | 0xff000022:   43 ,  166 ,   42 ,  235 ,  246 ,  255 ,  239 ,  255 ,   10 ,    0 ,   54 ,    0 ,  102 ,   31 ,   57 ,    5 ,   69 ,   97 ,  202 ,  226 ,    8 ,  129 ,   50 ,  240 ,   60 ,  128 ,    0 ,    0 ,    0 ,  118 ,    9 ,    9 ,    0 ,    0 ,    0 ,    0 ,    0 ,   25 ,  124 ,  202 ,  226 ,   40 ,    8 ,    0 ,  192 ,  140 ,   37 ,   34 ,   33 ,  207 ,   19 ,  165 
E: 000000.146158 64 01 80 7e 81 7f 00 00 4e 08 00 00 00 2b a6 2a eb f6 ff ef ff 0a 00 36 00 66 1f 39 05 45 61 ca e2 08 81 32 f0 3c 80 00 00 00 76 09 09 00 00 00 00 00 19 7c ca e2 28 08 00 c0 8c 25 22 21 cf 13 a5
# ReportID: 1 / X:  128 | Y:  126 | Z:  129 | Rz:  127 | Rx:    0 | Ry:    0 | 0xff000020:   79 | Hat switch:   8 | Button: 0  0  0  0  0  0  0  0  0  0  0  0  0  0  0 | 0xff000021: 0 , 0 , 0 , 0 , 0 , 0 , 0 , 0 , 0 , 0 , 0 , 0 , 0 | 0xff000022:   44 ,  166 ,   42 ,  235 ,  247 ,  255 ,  239 ,  255 ,   10 ,    0 ,   49 ,    0 ,  114 ,   31 ,   55 ,    5 ,   56 ,  144 ,  202 ,  226 ,    8 ,  129 ,   50 ,  240 ,   60 ,  128 ,    0 ,    0 ,    0 ,  118 ,    9 ,    9 ,    0 ,    0 ,    0 ,    0 ,    0 ,  249 ,  170 ,  202 ,  226 ,   40 ,    8 ,    0 ,   95 ,  244 ,  170 ,  122 ,  213 ,   91 ,  124 ,   24 
E: 000000.149875 64 01 80 7e 81 7f 00 00 4f 08 00 00 00 2c a6 2a eb f7 ff ef ff 0a 00 31 00 72 1f 37 05 38 90 ca e2 08 81 32 f0 3c 80 00 00 00 76 09 09 00 00 00 00 00 f9 aa ca e2 28 08 00 5f f4 aa 7a d5 5b 7c 18
# ReportID: 1 / X:  128 | Y:  126 | Z:  129 | Rz:  127 | Rx:    0 | Ry:    0 | 0xff000020:   80 | Hat switch:   8 | Button: 0  0  0  0  0  0  0  0  0  0  0  0  0  0  0 | 0xff000021: 0 , 0 , 0 , 0 , 0 , 0 , 0 , 0 , 0 , 0 , 0 , 0 , 0 | 0xff000022:   45 ,  166 ,   42 ,  235 ,  247 ,  255 ,  238 ,  255 ,   10 ,    0 ,   46 ,    0 ,  104 ,   31 ,   57 ,    5 ,   43 ,  191 ,  202 ,  226 ,    8 ,  129 ,   50 ,  240 ,   60 ,  128 ,    0 ,    0 ,    0 ,  118 ,    9 ,    9 ,    0 ,    0 ,    0 ,    0 ,    0 ,  217 ,  217 ,  202 ,  226 ,   40 ,    8 ,    0 ,  228 ,  123 ,   79 ,  118 ,   18 ,  183 ,  170 ,  160 
E: 000000.153441 64 01 80 7e 81 7f 00 00 50 08 00 00 00 2d a6 2a eb f7 ff ee ff 0a 00 2e 00 68 1f 39 05 2b bf ca e2 08 81 32 f0 3c 80 00 00 00 76 09 09 00 00 00 00 00 d9 d9 ca e2 28 08 00 e4 7b 4f 76 12 b7 aa a0
# ReportID: 1 / X:  128 | Y:  126 | Z:  130 | Rz:  127 | Rx:    0 | Ry:    0 | 0xff000020:   81 | Hat switch:   8 | Button: 0  0  0  0  0  0  0  0  0  0  0  0  0  0  0 | 0xff000021: 0 , 0 , 0 , 0 , 0 , 0 , 0 , 0 , 0 , 0 , 0 , 0 , 0 | 0xff000022:   46 ,  166 ,   42 ,  235 ,  247 ,  255 ,  237 ,  255 ,   11 ,    0 ,   45 ,    0 ,   76 ,   31 ,   51 ,    5 ,   31 ,  238 ,  202 ,  226 ,    8 ,  129 ,   50 ,  240 ,   60 ,  128 ,    0 ,    0 ,    0 ,  118 ,    9 ,    9 ,    0 ,    0 ,    0 ,    0 ,    0 ,  185 ,    8 ,  203 ,  226 ,   40 ,    8 ,    0 ,   12 ,  205 ,   61 ,  203 ,  134 ,  111 ,  138 ,  119 
E: 000000.157905 64 01 80 7e 82 7f 00 00 51 08 00 00 00 2e a6 2a eb f7 ff ed ff 0b 00 2d 00 4c 1f 33 05 1f ee ca e2 08 81 32 f0 3c 80 00 00 00 76 09 09 00 00 00 00 00 b9 08 cb e2 28 08 00 0c cd 3d cb 86 6f 8a 77
# ReportID: 1 / X:  128 | Y:  126 | Z:  129 | Rz:  127 | Rx:    0 | Ry:    0 | 0xff000020:   82 | Hat switch:   8 | Button: 0  0  0  0  0  0  0  0  0  0  0  0  0  0  0 | 0xff000021: 0 , 0 , 0 , 0 , 0 , 0 , 0 , 0 , 0 , 0 , 0 , 0 , 0 | 0xff000022:   47 ,  166 ,   42 ,  235 ,  245 ,  255 ,  238 ,  255 ,   11 ,    0 ,   40 ,    0 ,   70 ,   31 ,   50 ,    5 ,   18 ,   29 ,  203 ,  226 ,    8 ,  129 ,   50 ,  240 ,   60 ,  128 ,    0 ,    0 ,    0 ,  118 ,    9 ,    9 ,    0 ,    0 ,    0 ,    0 ,    0 ,  153 ,   55 ,  203 ,  226 ,   40 ,    8 ,    0 ,  223 ,  108 ,  242 ,  118 ,   99 ,  216 ,   95 ,  254 
E: 000000.161779 64 01 80 7e 81 7f 00 00 52 08 00 00 00 2f a6 2a eb f5 ff ee ff 0b 00 28 00 46 1f 32 05 12 1d cb e2 08 81 32 f0 3c 80 00 00 00 76 09 09 00 00 00 00 00 99 37 cb e2 28 08 00 df 6c f2 76 63 d8 5f fe
# ReportID: 1 / X:  128 | Y:  126 | Z:  129 | Rz:  127 | Rx:    0 | Ry:    0 | 0xff000020:   83 | Hat switch:   8 | Button: 0  0  0  0  0  0  0  0  0  0  0  0  0  0  0 | 0xff000021: 0 , 0 , 0 , 0 , 0 , 0 , 0 , 0 , 0 , 0 , 0 , 0 , 0 | 0xff000022:   48 ,  166 ,   42 ,  235 ,  249 ,  255 ,  238 ,  255 ,   11 ,    0 ,   46 ,    0 ,   74 ,   31 ,   45 ,    5 ,    5 ,   76 ,  203 ,  226 ,    8 ,  129 ,   50 ,  240 ,   60 ,  128 ,    0 ,    0 ,    0 ,  118 ,    9 ,    9 ,    0 ,    0 ,    0 ,    0 ,    0 ,  121 ,  102 ,  203 ,  226 ,   40 ,    8 ,    0 ,  145 ,  197 ,  238 ,  160 ,  130 ,  117 ,  168 ,  121 
E: 000000.166398 64 01 80 7e 81 7f 00 00 53 08 00 00 00 30 a6 2a eb f9 ff ee ff 0b 00 2e 00 4a 1f 2d 05 05 4c cb e2 08 81 32 f0 3c 80 00 00 00 76 09 09 00 00 00 00 00 79 66 cb e2 28 08 00 91 c5 ee a0 82 75 a8 79
# ReportID: 1 / X:  128 | Y:  126 | Z:  129 | Rz:  127 | Rx:    0 | Ry:    0 | 0xff000020:   84 | Hat switch:   8 | Button: 0  0  0  0  0  0  0  0  0  0  0  0  0  0  0 | 0xff000021: 0 , 0 , 0 , 0 , 0 , 0 , 0 , 0 , 0 , 0 , 0 , 0 , 0 | 0xff000022:   49 ,  166 ,   42 ,  235 ,  247 ,  255 ,  238 ,  255 ,   10 ,    0 ,   47 ,    0 ,   96 ,   31 ,   52 ,    5 ,  248 ,  122 ,  203 ,  226 ,    9 ,  129 ,   50 ,  240 ,   60 ,  128 ,    0 ,    0 ,    0 ,  118 ,    9 ,    9 ,    0 ,    0 ,    0 ,    0 ,    0 ,   89 ,  149 ,  203 ,  226 ,   40 ,    8 ,    0 ,  113 ,  248 ,  240 ,   32 ,   61 ,  135 ,   15 ,  255 
E: 000000.170100 64 01 80 7e 81 7f 00 00 54 08 00 00 00 31 a6 2a eb f7 ff ee ff 0a 00 2f 00 60 1f 34 05 f8 7a cb e2 09 81 32 f0 3c 80 00 00 00 76 09 09 00 00 00 00 00 59 95 cb e2 28 08 00 71 f8 f0 20 3d 87 0f ff
# ReportID: 1 / X:  128 | Y:  126 | Z:  129 | Rz:  127 | Rx:    0 | Ry:    0 | 0xff000020:   85 | Hat switch:   8 | Button: 0  0  0  0  0  0  0  0  0  0  0  0  0  0  0 | 0xff000021: 0 , 0 , 0 , 0 , 0 , 0 , 0 , 0 , 0 , 0 , 0 , 0 , 0 | 0xff000022:   50 ,  166 ,   42 ,  235 ,  247 ,  255 ,  239 ,  255 ,   10 ,    0 ,   55 ,    0 ,   93 ,   31 ,   56 ,    5 ,  235 ,  169 ,  203 ,  226 ,    8 ,  129 ,   50 ,  240 ,   60 ,  128 ,    0 ,    0 ,    0 ,  118 ,    9 ,    9 ,    0 ,    0 ,    0 ,    0 ,    0 ,   57 ,  196 ,  203 ,  226 ,   40 ,    8 ,    0 ,  195 ,  115 ,    3 ,   70 ,  117 ,   77 ,  223 ,   51 
E: 000000.173360 64 01 80 7e 81 7f 00 00 55 08 00 00 00 32 a6 2a eb f7 ff ef ff 0a 00 37 00 5d 1f 38 05 eb a9 cb e2 08 81 32 f0 3c 80 00 00 00 76 09 09 00 00 00 00 00 39 c4 cb e2 28 08 00 c3 73 03 46 75 4d df 33
# ReportID: 1 / X:  128 | Y:  126 | Z:  129 | Rz:  127 | Rx:    0 | Ry:    0 | 0xff000020:   86 | Hat switch:   8 | Button: 0  0  0  0  0  0  0  0  0  0  0  0  0  0  0 | 0xff000021: 0 , 0 , 0 , 0 , 0 , 0 , 0 , 0 , 0 , 0 , 0 , 0 , 0 | 0xff000022:   51 ,  166 ,   42 ,  235 ,  246 ,  255 ,  239 ,  255 ,   10 ,    0 ,   57 ,    0 ,   99 ,   31 ,   55 ,    5 ,  222 ,  216 ,  203 ,  226 ,    8 ,  129 ,   50 ,  240 ,   60 ,  128 ,    0 ,    0 ,    0 ,  118 ,    9 ,    9 ,    0 ,    0 ,    0 ,    0 ,    0 ,   25 ,  243 ,  203 ,  226 ,   40 ,    8 ,    0 ,  182 ,  193 ,   40 ,   32 ,  133 ,   54 ,   63 ,   56 
E: 000000.179120 64 01 80 7e 81 7f 00 00 56 08 00 00 00 33 a6 2a eb f6 ff ef ff 0a 00 39 00 63 1f 37 05 de d8 cb e2 08 81 32 f0 3c 80 00 00 00 76 09 09 00 00 00 00 00 19 f3 cb e2 28 08 00 b6 c1 28 20 85 36 3f 38
# ReportID: 1 / X:  128 | Y:  126 | Z:  129 | Rz:  127 | Rx:    0 | Ry:    0 | 0xff000020:   87 | Hat switch:   8 | Button: 0  0  0  0  0  0  0  0  0  0  0  0  0  0  0 | 0xff000021: 0 , 0 , 0 , 0 , 0 , 0 , 0 , 0 , 0 , 0 , 0 , 0 , 0 | 0xff000022:   52 ,  166 ,   42 ,  235 ,  246 ,  255 ,  237 ,  255 ,   11 ,    0 ,   47 ,    0 ,   74 ,   31 ,   51 ,    5 ,  210 ,    7 ,  204 ,  226 ,    8 ,  129 ,   50 ,  240 ,   60 ,  128 ,    0 ,    0 ,    0 ,  118 ,    9 ,    9 ,    0 ,    0 ,    0 ,    0 ,    0 ,  249 ,   33 ,  204 ,  226 ,   40 ,    8 ,    0 ,   63 ,   74 ,   69 ,   71 ,    2 ,  181 ,  131 ,   78 
E: 000000.182175 64 01 80 7e 81 7f 00 00 57 08 00 00 00 34 a6 2a eb f6 ff ed ff 0b 00 2f 00 4a 1f 33 05 d2 07 cc e2 08 81 32 f0 3c 80 00 00 00 76 09 09 00 00 00 00 00 f9 21 cc e2 28 08 00 3f 4a 45 47 02 b5 83 4e
# ReportID: 1 / X:  128 | Y:  126 | Z:  129 | Rz:  127 | Rx:    0 | Ry:    0 | 0xff000020:   88 | Hat switch:   8 | Button: 0  0  0  0  0  0  0  0  0  0  0  0  0  0  0 | 0xff000021: 0 , 0 , 0 , 0 , 0 , 0 , 0 , 0 , 0 , 0 , 0 , 0 , 0 | 0xff000022:   53 ,  166 ,   42 ,  235 ,  246 ,  255 ,  239 ,  255 ,    9 ,    0 ,   54 ,    0 ,   64 ,   31 ,   51 ,    5 ,  197 ,   54 ,  204 ,  226 ,    8 ,  129 ,   50 ,  240 ,   60 ,  128 ,    0 ,    0 ,    0 ,  118 ,    9 ,    9 ,    0 ,    0 ,    0 ,    0 ,    0 ,  217 ,   80 ,  204 ,  226 ,   40 ,    8 ,    0 ,   84 ,  239 ,  116 ,  106 ,  104 ,  108 ,  104 ,   37 
E: 000000.185649 64 01 80 7e 81 7f 00 00 58 08 00 00 00 35 a6 2a eb f6 ff ef ff 09 00 36 00 40 1f 33 05 c5 36 cc e2 08 81 32 f0 3c 80 00 00 00 76 09 09 00 00 00 00 00 d9 50 cc e2 28 08 00 54 ef 74 6a 68 6c 68 25
# ReportID: 1 / X:  128 | Y:  126 | Z:  129 | Rz:  127 | Rx:    0 | Ry:    0 | 0xff000020:   89 | Hat switch:   8 | Button: 0  0  0  0  0  0  0  0  0  0  0  0  0  0  0 | 0xff000021: 0 , 0 , 0 , 0 , 0 , 0 , 0 , 0 , 0 , 0 , 0 , 0 , 0 | 0xff000022:   54 ,  166 ,   42 ,  235 ,  247 ,  255 ,  238 ,  255 ,   10 ,    0 ,   48 ,    0 ,   85 ,   31 ,   56 ,    5 ,  184 ,  101 ,  204 ,  226 ,    8 ,  129 ,   50 ,  240 ,   60 ,  128 ,    0 ,    0 ,    0 ,  118 ,    9 ,    9 ,    0 ,    0 ,    0 ,    0 ,    0 ,  185 ,  127 ,  204 ,  226 ,   40 ,    8 ,    0 ,  107 ,  248 ,   93 ,   21 ,  235 ,  117 ,  236 ,  161 
E: 000000.190907 64 01 80 7e 81 7f 00 00 59 08 00 00 00 36 a6 2a eb f7 ff ee ff 0a 00 30 00 55 1f 38 05 b8 65 cc e2 08 81 32 f0 3c 80 00 00 00 76 09 09 00 00 00 00 00 b9 7f cc e2 28 08 00 6b f8 5d 15 eb 75 ec a1
# ReportID: 1 / X:  128 | Y:  126 | Z:  129 | Rz:  127 | Rx:    0 | Ry:    0 | 0xff000020:   90 | Hat switch:   8 | Button: 0  0  0  0  0  0  0  0  0  0  0  0  0  0  0 | 0xff000021: 0 , 0 , 0 , 0 , 0 , 0 , 0 , 0 , 0 , 0 , 0 , 0 , 0 | 0xff000022:   55 ,  166 ,   42 ,  235 ,  247 ,  255 ,  238 ,  255 ,   10 ,    0 ,   52 ,    0 ,  104 ,   31 ,   53 ,    5 ,  171 ,  148 ,  204 ,  226 ,    9 ,  129 ,   50 ,  240 ,   60 ,  128 ,    0 ,    0 ,    0 ,  118 ,    9 ,    9 ,    0 ,    0 ,    0 ,    0 ,    0 ,  153 ,  174 ,  204 ,  226 ,   40 ,    8 ,    0 ,   96 ,   17 ,  136 ,   42 ,  177 ,  142 ,  188 ,   86 
E: 000000.193959 64 01 80 7e 81 7f 00 00 5a 08 00 00 00 37 a6 2a eb f7 ff ee ff 0a 00 34 00 68 1f 35 05 ab 94 cc e2 09 81 32 f0 3c 80 00 00 00 76 09 09 00 00 00 00 00 99 ae cc e2 28 08 00 60 11 88 2a b1 8e bc 56
# ReportID: 1 / X:  128 | Y:  126 | Z:  129 | Rz:  127 | Rx:    0 | Ry:    0 | 0xff000020:   91 | Hat switch:   8 | Button: 0  0  0  0  0  0  0  0  0  0  0  0  0  0  0 | 0xff000021: 0 , 0 , 0 , 0 , 0 , 0 , 0 , 0 , 0 , 0 , 0 , 0 , 0 | 0xff000022:   56 ,  166 ,   42 ,  235 ,  247 ,  255 ,  237 ,  255 ,   10 ,    0 ,   53 ,    0 ,  100 ,   31 ,   62 ,    5 ,  158 ,  195 ,  204 ,  226 ,    9 ,  129 ,   50 ,  240 ,   60 ,  128 ,    0 ,    0 ,    0 ,  118 ,    9 ,    9 ,    0 ,    0 ,    0 ,    0 ,    0 ,  121 ,  221 ,  204 ,  226 ,   40 ,    8 ,    0 ,   65 ,  221 ,  187 ,  125 ,   70 ,  104 ,  171 ,  138 
E: 000000.198618 64 01 80 7e 81 7f 00 00 5b 08 00 00 00 38 a6 2a eb f7 ff ed ff 0a 00 35 00 64 1f 3e 05 9e c3 cc e2 09 81 32 f0 3c 80 00 00 00 76 09 09 00 00 00 00 00 79 dd cc e2 28 08 00 41 dd bb 7d 46 68 ab 8a
# ReportID: 1 / X:  128 | Y:  126 | Z:  129 | Rz:  127 | Rx:    0 | Ry:    0 | 0xff000020:   92 | Hat switch:   8 | Button: 0  0  0  0  0  0  0  0  0  0  0  0  0  0  0 | 0xff000021: 0 , 0 , 0 , 0 , 0 , 0 , 0 , 0 , 0 , 0 , 0 , 0 , 0 | 0xff000022:   57 ,  166 ,   42 ,  235 ,  247 ,  255 ,  238 ,  255 ,   10 ,    0 ,   55 ,    0 ,   95 ,   31 ,   55 ,    5 ,  145 ,  242 ,  204 ,  226 ,    8 ,  129 ,   50 ,  240 ,   60 ,  128 ,    0 ,    0 ,    0 ,  118 ,    9 ,    9 ,    0 ,    0 ,    0 ,    0 ,    0 ,   89 ,   12 ,  205 ,  226 ,   40 ,    8 ,    0 ,  166 ,    2 ,  101 ,  138 ,   16 ,   47 ,  141 ,   74 
E: 000000.203035 64 01 80 7e 81 7f 00 00 5c 08 00 00 00 39 a6 2a eb f7 ff ee ff 0a 00 37 00 5f 1f 37 05 91 f2 cc e2 08 81 32 f0 3c 80 00 00 00 76 09 09 00 00 00 00 00 59 0c cd e2 28 08 00 a6 02 65 8a 10 2f 8d 4a
# ReportID: 1 / X:  128 | Y:  126 | Z:  129 | Rz:  127 | Rx:    0 | Ry:    0 | 0xff000020:   93 | Hat switch:   8 | Button: 0  0  0  0  0  0  0  0  0  0  0  0  0  0  0 | 0xff000021: 0 , 0 , 0 , 0 , 0 , 0 , 0 , 0 , 0 , 0 , 0 , 0 , 0 | 0xff000022:   58 ,  166 ,   42 ,  235 ,  246 ,  255 ,  238 ,  255 ,   10 ,    0 ,   55 ,    0 ,   96 ,   31 ,   62 ,    5 ,  132 ,   33 ,  205 ,  226 ,    8 ,  129 ,   50 ,  240 ,   60 ,  128 ,    0 ,    0 ,    0 ,  118 ,    9 ,    9 ,    0 ,    0 ,    0 ,    0 ,    0 ,   57 ,   59 ,  205 ,  226 ,   40 ,    8 ,    0 ,  215 ,  145 ,  205 ,  139 ,  215 ,   44 ,  192 ,  229 
E: 000000.206133 64 01 80 7e 81 7f 00 00 5d 08 00 00 00 3a a6 2a eb f6 ff ee ff 0a 00 37 00 60 1f 3e 05 84 21 cd e2 08 81 32 f0 3c 80 00 00 00 76 09 09 00 00 00 00 00 39 3b cd e2 28 08 00 d7 91 cd 8b d7 2c c0 e5
# ReportID: 1 / X:  128 | Y:  126 | Z:  129 | Rz:  127 | Rx:    0 | Ry:    0 | 0xff000020:   94 | Hat switch:   8 | Button: 0  0  0  0  0  0  0  0  0  0  0  0  0  0  0 | 0xff000021: 0 , 0 , 0 , 0 , 0 , 0 , 0 , 0 , 0 , 0 , 0 , 0 , 0 | 0xff000022:   59 ,  166 ,   42 ,  235 ,  246 ,  255 ,  238 ,  255 ,   10 ,    0 ,   53 ,    0 ,   75 ,   31 ,   62 ,    5 ,  120 ,   80 ,  205 ,  226 ,    9 ,  129 ,   50 ,  240 ,   60 ,  128 ,    0 ,    0 ,    0 ,  118 ,    9 ,    9 ,    0 ,    0 ,    0 ,    0 ,    0 ,   25 ,  106 ,  205 ,  226 ,   40 ,    8 ,    0 ,   99 ,  219 ,   50 ,  194 ,    3 ,   92 ,  214 ,   51 
E: 000000.209560 64 01 80 7e 81 7f 00 00 5e 08 00 00 00 3b a6 2a eb f6 ff ee ff 0a 00 35 00 4b 1f 3e 05 78 50 cd e2 09 81 32 f0 3c 80 00 00 00 76 09 09 00 00 00 00 00 19 6a cd e2 28 08 00 63 db 32 c2 03 5c d6 33
# ReportID: 1 / X:  128 | Y:  126 | Z:  129 | Rz:  127 | Rx:    0 | Ry:    0 | 0xff000020:   95 | Hat switch:   8 | Button: 0  0  0  0  0  0  0  0  0  0  0  0  0  0  0 | 0xff000021: 0 , 0 , 0 , 0 , 0 , 0 , 0 , 0 , 0 , 0 , 0 , 0 , 0 | 0xff000022:   60 ,  166 ,   42 ,  235 ,  246 ,  255 ,  238 ,  255 ,   11 ,    0 ,   49 ,    0 ,   75 ,   31 ,   57 ,    5 ,  107 ,  127 ,  205 ,  226 ,    8 ,  129 ,   50 ,  240 ,   60 ,  128 ,    0 ,    0 ,    0 ,  118 ,    9 ,    9 ,    0 ,    0 ,    0 ,    0 ,    0 ,  249 ,  152 ,  205 ,  226 ,   40 ,    8 ,    0 ,  185 ,    6 ,  213 ,  231 ,   95 ,  235 ,  219 ,  103 
E: 000000.213330 64 01 80 7e 81 7f 00 00 5f 08 00 00 00 3c a6 2a eb f6 ff ee ff 0b 00 31 00 4b 1f 39 05 6b 7f cd e2 08 81 32 f0 3c 80 00 00 00 76 09 09 00 00 00 00 00 f9 98 cd e2 28 08 00 b9 06 d5 e7 5f eb db 67
# ReportID: 1 / X:  128 | Y:  126 | Z:  129 | Rz:  127 | Rx:    0 | Ry:    0 | 0xff000020:   96 | Hat switch:   8 | Button: 0  0  0  0  0  0  0  0  0  0  0  0  0  0  0 | 0xff000021: 0 , 0 , 0 , 0 , 0 , 0 , 0 , 0 , 0 , 0 , 0 , 0 , 0 | 0xff000022:   61 ,  166 ,   42 ,  235 ,  248 ,  255 ,  238 ,  255 ,   10 ,    0 ,   57 ,    0 ,   77 ,   31 ,   66 ,    5 ,   94 ,  174 ,  205 ,  226 ,    8 ,  129 ,   50 ,  240 ,   60 ,  128 ,    0 ,    0 ,    0 ,  118 ,    9 ,    9 ,    0 ,    0 ,    0 ,    0 ,    0 ,  217 ,  199 ,  205 ,  226 ,   40 ,    8 ,    0 ,  217 ,   42 ,   76 ,    2 ,   38 ,  230 ,   66 ,  210 
E: 000000.218877 64 01 80 7e 81 7f 00 00 60 08 00 00 00 3d a6 2a eb f8 ff ee ff 0a 00 39 00 4d 1f 42 05 5e ae cd e2 08 81 32 f0 3c 80 00 00 00 76 09 09 00 00 00 00 00 d9 c7 cd e2 28 08 00 d9 2a 4c 02 26 e6 42 d2
# ReportID: 1 / X:  128 | Y:  126 | Z:  130 | Rz:  127 | Rx:    0 | Ry:    0 | 0xff000020:   97 | Hat switch:   8 | Button: 0  0  0  0  0  0  0  0  0  0  0  0  0  0  0 | 0xff000021: 0 , 0 , 0 , 0 , 0 , 0 , 0 , 0 , 0 , 0 , 0 , 0 , 0 | 0xff000022:   62 ,  166 ,   42 ,  235 ,  247 ,  255 ,  238 ,  255 ,   11 ,    0 ,   56 ,    0 ,   71 ,   31 ,   54 ,    5 ,   81 ,  221 ,  205 ,  226 ,    8 ,  129 ,   50 ,  240 ,   60 ,  128 ,    0 ,    0 ,    0 ,  118 ,    9 ,    9 ,    0 ,    0 ,    0 ,    0 ,    0 ,  185 ,  246 ,  205 ,  226 ,   40 ,    8 ,    0 ,   53 ,  169 ,  244 ,  114 ,   80 ,    8 ,  240 ,   54 
E: 000000.221893 64 01 80 7e 82 7f 00 00 61 08 00 00 00 3e a6 2a eb f7 ff ee ff 0b 00 38 00 47 1f 36 05 51 dd cd e2 08 81 32 f0 3c 80 00 00 00 76 09 09 00 00 00 00 00 b9 f6 cd e2 28 08 00 35 a9 f4 72 50 08 f0 36
# ReportID: 1 / X:  128 | Y:  126 | Z:  129 | Rz:  127 | Rx:    0 | Ry:    0 | 0xff000020:   98 | Hat switch:   8 | Button: 0  0  0  0  0  0  0  0  0  0  0  0  0  0  0 | 0xff000021: 0 , 0 , 0 , 0 , 0 , 0 , 0 , 0 , 0 , 0 , 0 , 0 , 0 | 0xff000022:   63 ,  166 ,   42 ,  235 ,  247 ,  255 ,  239 ,  255 ,   10 ,    0 ,   63 ,    0 ,   88 ,   31 ,   50 ,    5 ,   68 ,   12 ,  206 ,  226 ,    8 ,  129 ,   50 ,  240 ,   60 ,  128 ,    0 ,    0 ,    0 ,  118 ,    9 ,    9 ,    0 ,    0 ,    0 ,    0 ,    0 ,  153 ,   37 ,  206 ,  226 ,   40 ,    8 ,    0 ,  101 ,   89 ,   59 ,  139 ,  224 ,   57 ,  202 ,   50 
E: 000000.227136 64 01 80 7e 81 7f 00 00 62 08 00 00 00 3f a6 2a eb f7 ff ef ff 0a 00 3f 00 58 1f 32 05 44 0c ce e2 08 81 32 f0 3c 80 00 00 00 76 09 09 00 00 00 00 00 99 25 ce e2 28 08 00 65 59 3b 8b e0 39 ca 32
# ReportID: 1 / X:  128 | Y:  126 | Z:  129 | Rz:  127 | Rx:    0 | Ry:    0 | 0xff000020:   99 | Hat switch:   8 | Button: 0  0  0  0  0  0  0  0  0  0  0  0  0  0  0 | 0xff000021: 0 , 0 , 0 , 0 , 0 , 0 , 0 , 0 , 0 , 0 , 0 , 0 , 0 | 0xff000022:   64 ,  166 ,   42 ,  235 ,  246 ,  255 ,  238 ,  255 ,   11 ,    0 ,   54 ,    0 ,   97 ,   31 ,   55 ,    5 ,   55 ,   59 ,  206 ,  226 ,    8 ,  129 ,   50 ,  240 ,   60 ,  128 ,    0 ,    0 ,    0 ,  118 ,    9 ,    9 ,    0 ,    0 ,    0 ,    0 ,    0 ,  145 ,   84 ,  206 ,  226 ,   40 ,    8 ,    0 ,   89 ,  130 ,  126 ,   26 ,    3 ,  205 ,  230 ,   35 
E: 000000.231142 64 01 80 7e 81 7f 00 00 63 08 00 00 00 40 a6 2a eb f6 ff ee ff 0b 00 36 00 61 1f 37 05 37 3b ce e2 08 81 32 f0 3c 80 00 00 00 76 09 09 00 00 00 00 00 91 54 ce e2 28 08 00 59 82 7e 1a 03 cd e6 23
# ReportID: 1 / X:  128 | Y:  126 | Z:  129 | Rz:  127 | Rx:    0 | Ry:    0 | 0xff000020:  100 | Hat switch:   8 | Button: 0  0  0  0  0  0  0  0  0  0  0  0  0  0  0 | 0xff000021: 0 , 0 , 0 , 0 , 0 , 0 , 0 , 0 , 0 , 0 , 0 , 0 , 0 | 0xff000022:   65 ,  166 ,   42 ,  235 ,  245 ,  255 ,  237 ,  255 ,   11 ,    0 ,   49 ,    0 ,   85 ,   31 ,   57 ,    5 ,   43 ,  106 ,  206 ,  226 ,    8 ,  129 ,   50 ,  240 ,   60 ,  128 ,    0 ,    0 ,    0 ,  118 ,    9 ,    9 ,    0 ,    0 ,    0 ,    0 ,    0 ,  129 ,  131 ,  206 ,  226 ,   40 ,    8 ,    0 ,  184 ,  254 ,  175 ,  162 ,   67 ,  195 ,    3 ,   30 
E: 000000.234713 64 01 80 7e 81 7f 00 00 64 08 00 00 00 41 a6 2a eb f5 ff ed ff 0b 00 31 00 55 1f 39 05 2b 6a ce e2 08 81 32 f0 3c 80 00 00 00 76 09 09 00 00 00 00 00 81 83 ce e2 28 08 00 b8 fe af a2 43 c3 03 1e
# ReportID: 1 / X:  128 | Y:  126 | Z:  129 | Rz:  127 | Rx:    0 | Ry:    0 | 0xff000020:  101 | Hat switch:   8 | Button: 0  0  0  0  0  0  0  0  0  0  0  0  0  0  0 | 0xff000021: 0 , 0 , 0 , 0 , 0 , 0 , 0 , 0 , 0 , 0 , 0 , 0 , 0 | 0xff000022:   66 ,  166 ,   42 ,  235 ,  246 ,  255 ,  238 ,  255 ,   11 ,    0 ,   51 ,    0 ,   78 ,   31 ,   57 ,    5 ,   30 ,  153 ,  206 ,  226 ,    8 ,  129 ,   50 ,  240 ,   60 ,  128 ,    0 ,    0 ,    0 ,  118 ,    9 ,    9 ,    0 ,    0 ,    0 ,    0 ,    0 ,   72 ,  178 ,  206 ,  226 ,   40 ,    8 ,    0 ,  224 ,  185 ,   25 ,   46 ,   47 ,    9 ,  198 ,   19 
E: 000000.238162 64 01 80 7e 81 7f 00 00 65 08 00 00 00 42 a6 2a eb f6 ff ee ff 0b 00 33 00 4e 1f 39 05 1e 99 ce e2 08 81 32 f0 3c 80 00 00 00 76 09 09 00 00 00 00 00 48 b2 ce e2 28 08 00 e0 b9 19 2e 2f 09 c6 13
# ReportID: 1 / X:  128 | Y:  126 | Z:  129 | Rz:  127 | Rx:    0 | Ry:    0 | 0xff000020:  102 | Hat switch:   8 | Button: 0  0  0  0  0  0  0  0  0  0  0  0  0  0  0 | 0xff000021: 0 , 0 , 0 , 0 , 0 , 0 , 0 , 0 , 0 , 0 , 0 , 0 , 0 | 0xff000022:   67 ,  166 ,   42 ,  235 ,  247 ,  255 ,  239 ,  255 ,   10 ,    0 ,   42 ,    0 ,   82 ,   31 ,   42 ,    5 ,   17 ,  200 ,  206 ,  226 ,    9 ,  129 ,   50 ,  240 ,   60 ,  128 ,    0 ,    0 ,    0 ,  118 ,    9 ,    9 ,    0 ,    0 ,    0 ,    0 ,    0 ,   42 ,  225 ,  206 ,  226 ,   40 ,    8 ,    0 ,  225 ,  221 ,   63 ,    4 ,   67 ,   38 ,   62 ,  155 
E: 000000.241688 64 01 80 7e 81 7f 00 00 66 08 00 00 00 43 a6 2a eb f7 ff ef ff 0a 00 2a 00 52 1f 2a 05 11 c8 ce e2 09 81 32 f0 3c 80 00 00 00 76 09 09 00 00 00 00 00 2a e1 ce e2 28 08 00 e1 dd 3f 04 43 26 3e 9b
# ReportID: 1 / X:  128 | Y:  126 | Z:  129 | Rz:  127 | Rx:    0 | Ry:    0 | 0xff000020:  103 | Hat switch:   8 | Button: 0  0  0  0  0  0  0  0  0  0  0  0  0  0  0 | 0xff000021: 0 , 0 , 0 , 0 , 0 , 0 , 0 , 0 , 0 , 0 , 0 , 0 , 0 | 0xff000022:   68 ,  166 ,   42 ,  235 ,  247 ,  255 ,  239 ,  255 ,   11 ,    0 ,   46 ,    0 ,   91 ,   31 ,   57 ,    5 ,    4 ,  247 ,  206 ,  226 ,    8 ,  129 ,   50 ,  240 ,   60 ,  128 ,    0 ,    0 ,    0 ,  118 ,    9 ,    9 ,    0 ,    0 ,    0 ,    0 ,    0 ,  249 ,   15 ,  207 ,  226 ,   40 ,    8 ,    0 ,  109 ,   20 ,   75 ,   27 ,   82 ,   36 ,   65 ,  112 
E: 000000.246999 64 01 80 7e 81 7f 00 00 67 08 00 00 00 44 a6 2a eb f7 ff ef ff 0b 00 2e 00 5b 1f 39 05 04 f7 ce e2 08 81 32 f0 3c 80 00 00 00 76 09 09 00 00 00 00 00 f9 0f cf e2 28 08 00 6d 14 4b 1b 52 24 41 70
# ReportID: 1 / X:  128 | Y:  126 | Z:  130 | Rz:  127 | Rx:    0 | Ry:    0 | 0xff000020:  104 | Hat switch:   8 | Button: 0  0  0  0  0  0  0  0  0  0  0  0  0  0  0 | 0xff000021: 0 , 0 , 0 , 0 , 0 , 0 , 0 , 0 , 0 , 0 , 0 , 0 , 0 | 0xff000022:   69 ,  166 ,   42 ,  235 ,  248 ,  255 ,  239 ,  255 ,   11 ,    0 ,   44 ,    0 ,   94 ,   31 ,   43 ,    5 ,  247 ,   37 ,  207 ,  226 ,    8 ,  129 ,   50 ,  240 ,   60 ,  128 ,    0 ,    0 ,    0 ,  118 ,    9 ,    9 ,    0 ,    0 ,    0 ,    0 ,    0 ,  217 ,   62 ,  207 ,  226 ,   40 ,    8 ,    0 ,  228 ,  210 ,  209 ,   86 ,   99 ,  196 ,   73 ,  184 
E: 000000.250724 64 01 80 7e 82 7f 00 00 68 08 00 00 00 45 a6 2a eb f8 ff ef ff 0b 00 2c 00 5e 1f 2b 05 f7 25 cf e2 08 81 32 f0 3c 80 00 00 00 76 09 09 00 00 00 00 00 d9 3e cf e2 28 08 00 e4 d2 d1 56 63 c4 49 b8
# ReportID: 1 / X:  128 | Y:  126 | Z:  129 | Rz:  127 | Rx:    0 | Ry:    0 | 0xff000020:  105 | Hat switch:   8 | Button: 0  0  0  0  0  0  0  0  0  0  0  0  0  0  0 | 0xff000021: 0 , 0 , 0 , 0 , 0 , 0 , 0 , 0 , 0 , 0 , 0 , 0 , 0 | 0xff000022:   70 ,  166 ,   42 ,  235 ,  247 ,  255 ,  238 ,  255 ,   11 ,    0 ,   49 ,    0 ,   97 ,   31 ,   48 ,    5 ,  234 ,   84 ,  207 ,  226 ,    8 ,  129 ,   50 ,  240 ,   60 ,  128 ,    0 ,    0 ,    0 ,  118 ,    9 ,    9 ,    0 ,    0 ,    0 ,    0 ,    0 ,  185 ,  109 ,  207 ,  226 ,   40 ,    8 ,    0 ,   21 ,    8 ,  198 ,   50 ,  241 ,  166 ,   40 ,  119 
E: 000000.254769 64 01 80 7e 81 7f 00 00 69 08 00 00 00 46 a6 2a eb f7 ff ee ff 0b 00 31 00 61 1f 30 05 ea 54 cf e2 08 81 32 f0 3c 80 00 00 00 76 09 09 00 00 00 00 00 b9 6d cf e2 28 08 00 15 08 c6 32 f1 a6 28 77
# ReportID: 1 / X:  128 | Y:  126 | Z:  129 | Rz:  127 | Rx:    0 | Ry:    0 | 0xff000020:  106 | Hat switch:   8 | Button: 0  0  0  0  0  0  0  0  0  0  0  0  0  0  0 | 0xff000021: 0 , 0 , 0 , 0 , 0 , 0 , 0 , 0 , 0 , 0 , 0 , 0 , 0 | 0xff000022:   71 ,  166 ,   42 ,  235 ,  246 ,  255 ,  238 ,  255 ,   11 ,    0 ,   47 ,    0 ,   99 ,   31 ,   54 ,    5 ,  222 ,  131 ,  207 ,  226 ,    8 ,  129 ,   50 ,  240 ,   60 ,  128 ,    0 ,    0 ,    0 ,  118 ,    9 ,    9 ,    0 ,    0 ,    0 ,    0 ,    0 ,  153 ,  156 ,  207 ,  226 ,   40 ,    8 ,    0 ,  247 ,  187 ,   18 ,   44 ,  223 ,   65 ,  112 ,  122 
E: 000000.257757 64 01 80 7e 81 7f 00 00 6a 08 00 00 00 47 a6 2a eb f6 ff ee ff 0b 00 2f 00 63 1f 36 05 de 83 cf e2 08 81 32 f0 3c 80 00 00 00 76 09 09 00 00 00 00 00 99 9c cf e2 28 08 00 f7 bb 12 2c df 41 70 7a
# ReportID: 1 / X:  128 | Y:  126 | Z:  129 | Rz:  127 | Rx:    0 | Ry:    0 | 0xff000020:  107 | Hat switch:   8 | Button: 0  0  0  0  0  0  0  0  0  0  0  0  0  0  0 | 0xff000021: 0 , 0 , 0 , 0 , 0 , 0 , 0 , 0 , 0 , 0 , 0 , 0 , 0 | 0xff000022:   72 ,  166 ,   42 ,  235 ,  246 ,  255 ,  239 ,  255 ,   11 ,    0 ,   40 ,    0 ,   86 ,   31 ,   46 ,    5 ,  209 ,  178 ,  207 ,  226 ,    8 ,  129 ,   50 ,  240 ,   60 ,  128 ,    0 ,    0 ,    0 ,  118 ,    9 ,    9 ,    0 ,    0 ,    0 ,    0 ,    0 ,  121 ,  203 ,  207 ,  226 ,   40 ,    8 ,    0 ,   47 ,  132 ,  210 ,  186 ,    2 ,  124 ,  186 ,   36 
E: 000000.261435 64 01 80 7e 81 7f 00 00 6b 08 00 00 00 48 a6 2a eb f6 ff ef ff 0b 00 28 00 56 1f 2e 05 d1 b2 cf e2 08 81 32 f0 3c 80 00 00 00 76 09 09 00 00 00 00 00 79 cb cf e2 28 08 00 2f 84 d2 ba 02 7c ba 24
# ReportID: 1 / X:  128 | Y:  126 | Z:  130 | Rz:  127 | Rx:    0 | Ry:    0 | 0xff000020:  108 | Hat switch:   8 | Button: 0  0  0  0  0  0  0  0  0  0  0  0  0  0  0 | 0xff000021: 0 , 0 , 0 , 0 , 0 , 0 , 0 , 0 , 0 , 0 , 0 , 0 , 0 | 0xff000022:   73 ,  166 ,   42 ,  235 ,  246 ,  255 ,  238 ,  255 ,   11 ,    0 ,   43 ,    0 ,   75 ,   31 ,   52 ,    5 ,  196 ,  225 ,  207 ,  226 ,    8 ,  129 ,   50 ,  240 ,   60 ,  128 ,    0 ,    0 ,    0 ,  118 ,    9 ,    9 ,    0 ,    0 ,    0 ,    0 ,    0 ,   89 ,  250 ,  207 ,  226 ,   40 ,    8 ,    0 ,   30 ,  117 ,  236 ,   67 ,  103 ,   72 ,  123 ,  184 
E: 000000.266477 64 01 80 7e 82 7f 00 00 6c 08 00 00 00 49 a6 2a eb f6 ff ee ff 0b 00 2b 00 4b 1f 34 05 c4 e1 cf e2 08 81 32 f0 3c 80 00 00 00 76 09 09 00 00 00 00 00 59 fa cf e2 28 08 00 1e 75 ec 43 67 48 7b b8
# ReportID: 1 / X:  128 | Y:  126 | Z:  129 | Rz:  127 | Rx:    0 | Ry:    0 | 0xff000020:  109 | Hat switch:   8 | Button: 0  0  0  0  0  0  0  0  0  0  0  0  0  0  0 | 0xff000021: 0 , 0 , 0 , 0 , 0 , 0 , 0 , 0 , 0 , 0 , 0 , 0 , 0 | 0xff000022:   74 ,  166 ,   42 ,  235 ,  246 ,  255 ,  238 ,  255 ,   11 ,    0 ,   43 ,    0 ,   76 ,   31 ,   50 ,    5 ,  183 ,   16 ,  208 ,  226 ,    8 ,  129 ,   50 ,  240 ,   60 ,  128 ,    0 ,    0 ,    0 ,  118 ,    9 ,    9 ,    0 ,    0 ,    0 ,    0 ,    0 ,   57 ,   41 ,  208 ,  226 ,   40 ,    8 ,    0 ,  122 ,   73 ,  238 ,  180 ,   86 ,   53 ,    8 ,  152 
E: 000000.269215 64 01 80 7e 81 7f 00 00 6d 08 00 00 00 4a a6 2a eb f6 ff ee ff 0b 00 2b 00 4c 1f 32 05 b7 10 d0 e2 08 81 32 f0 3c 80 00 00 00 76 09 09 00 00 00 00 00 39 29 d0 e2 28 08 00 7a 49 ee b4 56 35 08 98
# ReportID: 1 / X:  128 | Y:  126 | Z:  129 | Rz:  127 | Rx:    0 | Ry:    0 | 0xff000020:  110 | Hat switch:   8 | Button: 0  0  0  0  0  0  0  0  0  0  0  0  0  0  0 | 0xff000021: 0 , 0 , 0 , 0 , 0 , 0 , 0 , 0 , 0 , 0 , 0 , 0 , 0 | 0xff000022:   75 ,  166 ,   42 ,  235 ,  247 ,  255 ,  238 ,  255 ,    9 ,    0 ,   46 ,    0 ,   93 ,   31 ,   54 ,    5 ,  170 ,   63 ,  208 ,  226 ,    8 ,  129 ,   50 ,  240 ,   60 ,  128 ,    0 ,    0 ,    0 ,  118 ,    9 ,    9 ,    0 ,    0 ,    0 ,    0 ,    0 ,   25 ,   88 ,  208 ,  226 ,   40 ,    8 ,    0 ,  151 ,  218 ,   19 ,   23 ,  230 ,   34 ,  170 ,  165 
E: 000000.273471 64 01 80 7e 81 7f 00 00 6e 08 00 00 00 4b a6 2a eb f7 ff ee ff 09 00 2e 00 5d 1f 36 05 aa 3f d0 e2 08 81 32 f0 3c 80 00 00 00 76 09 09 00 00 00 00 00 19 58 d0 e2 28 08 00 97 da 13 17 e6 22 aa a5
# ReportID: 1 / X:  128 | Y:  126 | Z:  129 | Rz:  127 | Rx:    0 | Ry:    0 | 0xff000020:  111 | Hat switch:   8 | Button: 0  0  0  0  0  0  0  0  0  0  0  0  0  0  0 | 0xff000021: 0 , 0 , 0 , 0 , 0 , 0 , 0 , 0 , 0 , 0 , 0 , 0 , 0 | 0xff000022:   76 ,  166 ,   42 ,  235 ,  245 ,  255 ,  238 ,  255 ,   11 ,    0 ,   45 ,    0 ,   84 ,   31 ,   51 ,    5 ,  157 ,  110 ,  208 ,  226 ,    8 ,  129 ,   50 ,  240 ,   60 ,  128 ,    0 ,    0 ,    0 ,  118 ,    9 ,    9 ,    0 ,    0 ,    0 ,    0 ,    0 ,  249 ,  134 ,  208 ,  226 ,   40 ,    8 ,    0 ,  158 ,   21 ,   47 ,  225 ,   90 ,   38 ,   88 ,   29 
E: 000000.277577 64 01 80 7e 81 7f 00 00 6f 08 00 00 00 4c a6 2a eb f5 ff ee ff 0b 00 2d 00 54 1f 33 05 9d 6e d0 e2 08 81 32 f0 3c 80 00 00 00 76 09 09 00 00 00 00 00 f9 86 d0 e2 28 08 00 9e 15 2f e1 5a 26 58 1d
# ReportID: 1 / X:  128 | Y:  126 | Z:  129 | Rz:  127 | Rx:    0 | Ry:    0 | 0xff000020:  112 | Hat switch:   8 | Button: 0  0  0  0  0  0  0  0  0  0  0  0  0  0  0 | 0xff000021: 0 , 0 , 0 , 0 , 0 , 0 , 0 , 0 , 0 , 0 , 0 , 0 , 0 | 0xff000022:   77 ,  166 ,   42 ,  235 ,  245 ,  255 ,  238 ,  255 ,   11 ,    0 ,   51 ,    0 ,   91 ,   31 ,   58 ,    5 ,  144 ,  157 ,  208 ,  226 ,    8 ,  129 ,   50 ,  240 ,   60 ,  128 ,    0 ,    0 ,    0 ,  118 ,    9 ,    9 ,    0 ,    0 ,    0 ,    0 ,    0 ,  217 ,  181 ,  208 ,  226 ,   40 ,    8 ,    0 ,  142 ,   83 ,    1 ,   79 ,  162 ,    5 ,   38 ,  149 
E: 000000.281372 64 01 80 7e 81 7f 00 00 70 08 00 00 00 4d a6 2a eb f5 ff ee ff 0b 00 33 00 5b 1f 3a 05 90 9d d0 e2 08 81 32 f0 3c 80 00 00 00 76 09 09 00 00 00 00 00 d9 b5 d0 e2 28 08 00 8e 53 01 4f a2 05 26 95
# ReportID: 1 / X:  128 | Y:  126 | Z:  129 | Rz:  127 | Rx:    0 | Ry:    0 | 0xff000020:  113 | Hat switch:   8 | Button: 0  0  0  0  0  0  0  0  0  0  0  0  0  0  0 | 0xff000021: 0 , 0 , 0 , 0 , 0 , 0 , 0 , 0 , 0 , 0 , 0 , 0 , 0 | 0xff000022:   78 ,  166 ,   42 ,  235 ,  244 ,  255 ,  238 ,  255 ,   11 ,    0 ,   56 ,    0 ,   90 ,   31 ,   64 ,    5 ,  132 ,  204 ,  208 ,  226 ,    8 ,  129 ,   50 ,  240 ,   60 ,  128 ,    0 ,    0 ,    0 ,  118 ,    9 ,    9 ,    0 ,    0 ,    0 ,    0 ,    0 ,  185 ,  228 ,  208 ,  226 ,   40 ,    8 ,    0 ,  213 ,  155 ,   97 ,  183 ,   48 ,  211 ,   81 ,   62 
E: 000000.286401 64 01 80 7e 81 7f 00 00 71 08 00 00 00 4e a6 2a eb f4 ff ee ff 0b 00 38 00 5a 1f 40 05 84 cc d0 e2 08 81 32 f0 3c 80 00 00 00 76 09 09 00 00 00 00 00 b9 e4 d0 e2 28 08 00 d5 9b 61 b7 30 d3 51 3e
# ReportID: 1 / X:  128 | Y:  126 | Z:  129 | Rz:  127 | Rx:    0 | Ry:    0 | 0xff000020:  114 | Hat switch:   8 | Button: 0  0  0  0  0  0  0  0  0  0  0  0  0  0  0 | 0xff000021: 0 , 0 , 0 , 0 , 0 , 0 , 0 , 0 , 0 , 0 , 0 , 0 , 0 | 0xff000022:   79 ,  166 ,   42 ,  235 ,  247 ,  255 ,  238 ,  255 ,   10 ,    0 ,   53 ,    0 ,   70 ,   31 ,   70 ,    5 ,  119 ,  251 ,  208 ,  226 ,    8 ,  129 ,   50 ,  240 ,   60 ,  128 ,    0 ,    0 ,    0 ,  118 ,    9 ,    9 ,    0 ,    0 ,    0 ,    0 ,    0 ,  153 ,   19 ,  209 ,  226 ,   40 ,    8 ,    0 ,    5 ,  131 ,  219 ,  108 ,   65 ,   98 ,  143 ,  194 
E: 000000.289565 64 01 80 7e 81 7f 00 00 72 08 00 00 00 4f a6 2a eb f7 ff ee ff 0a 00 35 00 46 1f 46 05 77 fb d0 e2 08 81 32 f0 3c 80 00 00 00 76 09 09 00 00 00 00 00 99 13 d1 e2 28 08 00 05 83 db 6c 41 62 8f c2
# ReportID: 1 / X:  128 | Y:  126 | Z:  130 | Rz:  127 | Rx:    0 | Ry:    0 | 0xff000020:  115 | Hat switch:   8 | Button: 0  0  0  0  0  0  0  0  0  0  0  0  0  0  0 | 0xff000021: 0 , 0 , 0 , 0 , 0 , 0 , 0 , 0 , 0 , 0 , 0 , 0 , 0 | 0xff000022:   80 ,  166 ,   42 ,  235 ,  247 ,  255 ,  238 ,  255 ,   11 ,    0 ,   52 ,    0 ,   72 ,   31 ,   64 ,    5 ,  106 ,   42 ,  209 ,  226 ,    8 ,  129 ,   50 ,  240 ,   60 ,  128 ,    0 ,    0 ,    0 ,  118 ,    9 ,    9 ,    0 ,    0 ,    0 ,    0 ,    0 ,  121 ,   66 ,  209 ,  226 ,   40 ,    8 ,    0 ,  230 ,  144 ,   59 ,  189 ,  180 ,   23 ,  240 ,  230 
E: 000000.293556 64 01 80 7e 82 7f 00 00 73 08 00 00 00 50 a6 2a eb f7 ff ee ff 0b 00 34 00 48 1f 40 05 6a 2a d1 e2 08 81 32 f0 3c 80 00 00 00 76 09 09 00 00 00 00 00 79 42 d1 e2 28 08 00 e6 90 3b bd b4 17 f0 e6
# ReportID: 1 / X:  128 | Y:  126 | Z:  130 | Rz:  127 | Rx:    0 | Ry:    0 | 0xff000020:  116 | Hat switch:   8 | Button: 0  0  0  0  0  0  0  0  0  0  0  0  0  0  0 | 0xff000021: 0 , 0 , 0 , 0 , 0 , 0 , 0 , 0 , 0 , 0 , 0 , 0 , 0 | 0xff000022:   81 ,  166 ,   42 ,  235 ,  246 ,  255 ,  237 ,  255 ,   11 ,    0 ,   51 ,    0 ,   90 ,   31 ,   58 ,    5 ,   93 ,   89 ,  209 ,  226 ,    8 ,  129 ,   50 ,  240 ,   60 ,  128 ,    0 ,    0 ,    0 ,  118 ,    9 ,    9 ,    0 ,    0 ,    0 ,    0 ,    0 ,   89 ,  113 ,  209 ,  226 ,   40 ,    8 ,    0 ,  138 ,  173 ,  252 ,  147 ,   39 ,   66 ,  194 ,  134 
E: 000000.298374 64 01 80 7e 82 7f 00 00 74 08 00 00 00 51 a6 2a eb f6 ff ed ff 0b 00 33 00 5a 1f 3a 05 5d 59 d1 e2 08 81 32 f0 3c 80 00 00 00 76 09 09 00 00 00 00 00 59 71 d1 e2 28 08 00 8a ad fc 93 27 42 c2 86
# ReportID: 1 / X:  128 | Y:  126 | Z:  129 | Rz:  127 | Rx:    0 | Ry:    0 | 0xff000020:  117 | Hat switch:   8 | Button: 0  0  0  0  0  0  0  0  0  0  0  0  0  0  0 | 0xff000021: 0 , 0 , 0 , 0 , 0 , 0 , 0 , 0 , 0 , 0 , 0 , 0 , 0 | 0xff000022:   82 ,  166 ,   42 ,  235 ,  247 ,  255 ,  239 ,  255 ,   11 ,    0 ,   49 ,    0 ,   80 ,   31 ,   65 ,    5 ,   80 ,  136 ,  209 ,  226 ,    8 ,  129 ,   50 ,  240 ,   60 ,  128 ,    0 ,    0 ,    0 ,  118 ,    9 ,    9 ,    0 ,    0 ,    0 ,    0 ,    0 ,   57 ,  160 ,  209 ,  226 ,   40 ,    8 ,    0 ,   60 ,  205 ,   93 ,   97 ,   71 ,  213 ,  100 ,  194 
E: 000000.301748 64 01 80 7e 81 7f 00 00 75 08 00 00 00 52 a6 2a eb f7 ff ef ff 0b 00 31 00 50 1f 41 05 50 88 d1 e2 08 81 32 f0 3c 80 00 00 00 76 09 09 00 00 00 00 00 39 a0 d1 e2 28 08 00 3c cd 5d 61 47 d5 64 c2
# ReportID: 1 / X:  128 | Y:  126 | Z:  129 | Rz:  127 | Rx:    0 | Ry:    0 | 0xff000020:  118 | Hat switch:   8 | Button: 0  0  0  0  0  0  0  0  0  0  0  0  0  0  0 | 0xff000021: 0 , 0 , 0 , 0 , 0 , 0 , 0 , 0 , 0 , 0 , 0 , 0 , 0 | 0xff000022:   83 ,  166 ,   42 ,  235 ,  246 ,  255 ,  238 ,  255 ,   11 ,    0 ,   55 ,    0 ,   80 ,   31 ,   69 ,    5 ,   67 ,  183 ,  209 ,  226 ,    8 ,  129 ,   50 ,  240 ,   60 ,  128 ,    0 ,    0 ,    0 ,  118 ,    9 ,    9 ,    0 ,    0 ,    0 ,    0 ,    0 ,   25 ,  207 ,  209 ,  226 ,   40 ,    8 ,    0 ,  250 ,  165 ,   60 ,  162 ,  192 ,  124 ,  148 ,    7 
E: 000000.305574 64 01 80 7e 81 7f 00 00 76 08 00 00 00 53 a6 2a eb f6 ff ee ff 0b 00 37 00 50 1f 45 05 43 b7 d1 e2 08 81 32 f0 3c 80 00 00 00 76 09 09 00 00 00 00 00 19 cf d1 e2 28 08 00 fa a5 3c a2 c0 7c 94 07
# ReportID: 1 / X:  128 | Y:  126 | Z:  129 | Rz:  127 | Rx:    0 | Ry:    0 | 0xff000020:  119 | Hat switch:   8 | Button: 0  0  0  0  0  0  0  0  0  0  0  0  0  0  0 | 0xff000021: 0 , 0 , 0 , 0 , 0 , 0 , 0 , 0 , 0 , 0 , 0 , 0 , 0 | 0xff000022:   84 ,  166 ,   42 ,  235 ,  248 ,  255 ,  237 ,  255 ,   10 ,    0 ,   53 ,    0 ,   75 ,   31 ,   59 ,    5 ,   55 ,  230 ,  209 ,  226 ,    8 ,  129 ,   50 ,  240 ,   60 ,  128 ,    0 ,    0 ,    0 ,  118 ,    9 ,    9 ,    0 ,    0 ,    0 ,    0 ,    0 ,   12 ,  254 ,  209 ,  226 ,   40 ,    8 ,    0 ,    1 ,  240 ,  162 ,   73 ,  119 ,   62 ,   50 ,  127 
E: 000000.309602 64 01 80 7e 81 7f 00 00 77 08 00 00 00 54 a6 2a eb f8 ff ed ff 0a 00 35 00 4b 1f 3b 05 37 e6 d1 e2 08 81 32 f0 3c 80 00 00 00 76 09 09 00 00 00 00 00 0c fe d1 e2 28 08 00 01 f0 a2 49 77 3e 32 7f
# ReportID: 1 / X:  128 | Y:  126 | Z:  129 | Rz:  127 | Rx:    0 | Ry:    0 | 0xff000020:  120 | Hat switch:   8 | Button: 0  0  0  0  0  0  0  0  0  0  0  0  0  0  0 | 0xff000021: 0 , 0 , 0 , 0 , 0 , 0 , 0 , 0 , 0 , 0 , 0 , 0 , 0 | 0xff000022:   85 ,  166 ,   42 ,  235 ,  246 ,  255 ,  238 ,  255 ,   11 ,    0 ,   53 ,    0 ,   68 ,   31 ,   69 ,    5 ,   43 ,   21 ,  210 ,  226 ,    8 ,  129 ,   50 ,  240 ,   60 ,  128 ,    0 ,    0 ,    0 ,  118 ,    9 ,    9 ,    0 ,    0 ,    0 ,    0 ,    0 ,  250 ,   44 ,  210 ,  226 ,   40 ,    8 ,    0 ,  148 ,  178 ,  232 ,   21 ,  122 ,  244 ,  192 ,  169 
E: 000000.313575 64 01 80 7e 81 7f 00 00 78 08 00 00 00 55 a6 2a eb f6 ff ee ff 0b 00 35 00 44 1f 45 05 2b 15 d2 e2 08 81 32 f0 3c 80 00 00 00 76 09 09 00 00 00 00 00 fa 2c d2 e2 28 08 00 94 b2 e8 15 7a f4 c0 a9
# ReportID: 1 / X:  128 | Y:  126 | Z:  129 | Rz:  127 | Rx:    0 | Ry:    0 | 0xff000020:  121 | Hat switch:   8 | Button: 0  0  0  0  0  0  0  0  0  0  0  0  0  0  0 | 0xff000021: 0 , 0 , 0 , 0 , 0 , 0 , 0 , 0 , 0 , 0 , 0 , 0 , 0 | 0xff000022:   86 ,  166 ,   42 ,  235 ,  246 ,  255 ,  238 ,  255 ,   11 ,    0 ,   50 ,    0 ,   77 ,   31 ,   58 ,    5 ,   31 ,   68 ,  210 ,  226 ,    8 ,  129 ,   50 ,  240 ,   60 ,  128 ,    0 ,    0 ,    0 ,  118 ,    9 ,    9 ,    0 ,    0 ,    0 ,    0 ,    0 ,  200 ,   91 ,  210 ,  226 ,   40 ,    8 ,    0 ,   87 ,   19 ,  169 ,   70 ,  106 ,  158 ,   14 ,  166 
E: 000000.318075 64 01 80 7e 81 7f 00 00 79 08 00 00 00 56 a6 2a eb f6 ff ee ff 0b 00 32 00 4d 1f 3a 05 1f 44 d2 e2 08 81 32 f0 3c 80 00 00 00 76 09 09 00 00 00 00 00 c8 5b d2 e2 28 08 00 57 13 a9 46 6a 9e 0e a6
# ReportID: 1 / X:  128 | Y:  126 | Z:  129 | Rz:  127 | Rx:    0 | Ry:    0 | 0xff000020:  122 | Hat switch:   8 | Button: 0  0  0  0  0  0  0  0  0  0  0  0  0  0  0 | 0xff000021: 0 , 0 , 0 , 0 , 0 , 0 , 0 , 0 , 0 , 0 , 0 , 0 , 0 | 0xff000022:   87 ,  166 ,   42 ,  235 ,  247 ,  255 ,  238 ,  255 ,   10 ,    0 ,   53 ,    0 ,   83 ,   31 ,   57 ,    5 ,   18 ,  115 ,  210 ,  226 ,    8 ,  129 ,   50 ,  240 ,   60 ,  128 ,    0 ,    0 ,    0 ,  118 ,    9 ,    9 ,    0 ,    0 ,    0 ,    0 ,    0 ,  170 ,  138 ,  210 ,  226 ,   40 ,    8 ,    0 ,   37 ,   71 ,  148 ,  196 ,  214 ,    7 ,  177 ,  238 
E: 000000.321339 64 01 80 7e 81 7f 00 00 7a 08 00 00 00 57 a6 2a eb f7 ff ee ff 0a 00 35 00 53 1f 39 05 12 73 d2 e2 08 81 32 f0 3c 80 00 00 00 76 09 09 00 00 00 00 00 aa 8a d2 e2 28 08 00 25 47 94 c4 d6 07 b1 ee
# ReportID: 1 / X:  128 | Y:  126 | Z:  129 | Rz:  127 | Rx:    0 | Ry:    0 | 0xff000020:  123 | Hat switch:   8 | Button: 0  0  0  0  0  0  0  0  0  0  0  0  0  0  0 | 0xff000021: 0 , 0 , 0 , 0 , 0 , 0 , 0 , 0 , 0 , 0 , 0 , 0 , 0 | 0xff000022:   88 ,  166 ,   42 ,  235 ,  247 ,  255 ,  239 ,  255 ,   11 ,    0 ,   49 ,    0 ,   79 ,   31 ,   60 ,    5 ,    4 ,  162 ,  210 ,  226 ,    8 ,  129 ,   50 ,  240 ,   60 ,  128 ,    0 ,    0 ,    0 ,  118 ,    9 ,    9 ,    0 ,    0 ,    0 ,    0 ,    0 ,  121 ,  185 ,  210 ,  226 ,   40 ,    8 ,    0 ,   88 ,  124 ,   16 ,   75 ,  123 ,   91 ,  127 ,   17 
E: 000000.326866 64 01 80 7e 81 7f 00 00 7b 08 00 00 00 58 a6 2a eb f7 ff ef ff 0b 00 31 00 4f 1f 3c 05 04 a2 d2 e2 08 81 32 f0 3c 80 00 00 00 76 09 09 00 00 00 00 00 79 b9 d2 e2 28 08 00 58 7c 10 4b 7b 5b 7f 11
# ReportID: 1 / X:  128 | Y:  126 | Z:  130 | Rz:  127 | Rx:    0 | Ry:    0 | 0xff000020:  124 | Hat switch:   8 | Button: 0  0  0  0  0  0  0  0  0  0  0  0  0  0  0 | 0xff000021: 0 , 0 , 0 , 0 , 0 , 0 , 0 , 0 , 0 , 0 , 0 , 0 , 0 | 0xff000022:   89 ,  166 ,   42 ,  235 ,  247 ,  255 ,  238 ,  255 ,    9 ,    0 ,   54 ,    0 ,   85 ,   31 ,   52 ,    5 ,  246 ,  208 ,  210 ,  226 ,    8 ,  129 ,   50 ,  240 ,   60 ,  128 ,    0 ,    0 ,    0 ,  118 ,    9 ,    9 ,    0 ,    0 ,    0 ,    0 ,    0 ,   89 ,  232 ,  210 ,  226 ,   40 ,    8 ,    0 ,  104 ,  166 ,  175 ,   36 ,  250 ,  129 ,  108 ,  193 
E: 000000.329867 64 01 80 7e 82 7f 00 00 7c 08 00 00 00 59 a6 2a eb f7 ff ee ff 09 00 36 00 55 1f 34 05 f6 d0 d2 e2 08 81 32 f0 3c 80 00 00 00 76 09 09 00 00 00 00 00 59 e8 d2 e2 28 08 00 68 a6 af 24 fa 81 6c c1
# ReportID: 1 / X:  128 | Y:  126 | Z:  129 | Rz:  127 | Rx:    0 | Ry:    0 | 0xff000020:  125 | Hat switch:   8 | Button: 0  0  0  0  0  0  0  0  0  0  0  0  0  0  0 | 0xff000021: 0 , 0 , 0 , 0 , 0 , 0 , 0 , 0 , 0 , 0 , 0 , 0 , 0 | 0xff000022:   90 ,  166 ,   42 ,  235 ,  248 ,  255 ,  238 ,  255 ,    9 ,    0 ,   51 ,    0 ,   78 ,   31 ,   64 ,    5 ,  233 ,  255 ,  210 ,  226 ,    8 ,  129 ,   50 ,  240 ,   60 ,  128 ,    0 ,    0 ,    0 ,  118 ,    9 ,    9 ,    0 ,    0 ,    0 ,    0 ,    0 ,   57 ,   23 ,  211 ,  226 ,   40 ,    8 ,    0 ,   94 ,  249 ,  205 ,   80 ,  215 ,   14 ,   17 ,   34 
E: 000000.335093 64 01 80 7e 81 7f 00 00 7d 08 00 00 00 5a a6 2a eb f8 ff ee ff 09 00 33 00 4e 1f 40 05 e9 ff d2 e2 08 81 32 f0 3c 80 00 00 00 76 09 09 00 00 00 00 00 39 17 d3 e2 28 08 00 5e f9 cd 50 d7 0e 11 22
# ReportID: 1 / X:  128 | Y:  126 | Z:  129 | Rz:  127 | Rx:    0 | Ry:    0 | 0xff000020:  126 | Hat switch:   8 | Button: 0  0  0  0  0  0  0  0  0  0  0  0  0  0  0 | 0xff000021: 0 , 0 , 0 , 0 , 0 , 0 , 0 , 0 , 0 , 0 , 0 , 0 , 0 | 0xff000022:   91 ,  166 ,   42 ,  235 ,  246 ,  255 ,  238 ,  255 ,   10 ,    0 ,   45 ,    0 ,   90 ,   31 ,   60 ,    5 ,  221 ,   46 ,  211 ,  226 ,    8 ,  129 ,   50 ,  240 ,   60 ,  128 ,    0 ,    0 ,    0 ,  118 ,    9 ,    9 ,    0 ,    0 ,    0 ,    0 ,    0 ,   25 ,   70 ,  211 ,  226 ,   40 ,    8 ,    0 ,   31 ,   44 ,  173 ,   62 ,    0 ,   74 ,   80 ,  234 
E: 000000.339108 64 01 80 7e 81 7f 00 00 7e 08 00 00 00 5b a6 2a eb f6 ff ee ff 0a 00 2d 00 5a 1f 3c 05 dd 2e d3 e2 08 81 32 f0 3c 80 00 00 00 76 09 09 00 00 00 00 00 19 46 d3 e2 28 08 00 1f 2c ad 3e 00 4a 50 ea
# ReportID: 1 / X:  128 | Y:  126 | Z:  129 | Rz:  127 | Rx:    0 | Ry:    0 | 0xff000020:  127 | Hat switch:   8 | Button: 0  0  0  0  0  0  0  0  0  0  0  0  0  0  0 | 0xff000021: 0 , 0 , 0 , 0 , 0 , 0 , 0 , 0 , 0 , 0 , 0 , 0 , 0 | 0xff000022:   92 ,  166 ,   42 ,  235 ,  248 ,  255 ,  238 ,  255 ,   10 ,    0 ,   54 ,    0 ,   83 ,   31 ,   49 ,    5 ,  209 ,   93 ,  211 ,  226 ,    8 ,  129 ,   50 ,  240 ,   60 ,  128 ,    0 ,    0 ,    0 ,  118 ,    9 ,    9 ,    0 ,    0 ,    0 ,    0 ,    0 ,  249 ,  116 ,  211 ,  226 ,   40 ,    8 ,    0 ,  162 ,   86 ,  114 ,  135 ,  127 ,   19 ,  140 ,   18 
E: 000000.342690 64 01 80 7e 81 7f 00 00 7f 08 00 00 00 5c a6 2a eb f8 ff ee ff 0a 00 36 00 53 1f 31 05 d1 5d d3 e2 08 81 32 f0 3c 80 00 00 00 76 09 09 00 00 00 00 00 f9 74 d3 e2 28 08 00 a2 56 72 87 7f 13 8c 12
# ReportID: 1 / X:  128 | Y:  126 | Z:  130 | Rz:  127 | Rx:    0 | Ry:    0 | 0xff000020:  128 | Hat switch:   8 | Button: 0  0  0  0  0  0  0  0  0  0  0  0  0  0  0 | 0xff000021: 0 , 0 , 0 , 0 , 0 , 0 , 0 , 0 , 0 , 0 , 0 , 0 , 0 | 0xff000022:   93 ,  166 ,   42 ,  235 ,  247 ,  255 ,  239 ,  255 ,   11 ,    0 ,   53 ,    0 ,   87 ,   31 ,   46 ,    5 ,  196 ,  140 ,  211 ,  226 ,    8 ,  129 ,   50 ,  240 ,   60 ,  128 ,    0 ,    0 ,    0 ,  118 ,    9 ,    9 ,    0 ,    0 ,    0 ,    0 ,    0 ,  217 ,  163 ,  211 ,  226 ,   40 ,    8 ,    0 ,   59 ,  244 ,  217 ,  123 ,   41 ,  153 ,   17 ,   71 
E: 000000.345702 64 01 80 7e 82 7f 00 00 80 08 00 00 00 5d a6 2a eb f7 ff ef ff 0b 00 35 00 57 1f 2e 05 c4 8c d3 e2 08 81 32 f0 3c 80 00 00 00 76 09 09 00 00 00 00 00 d9 a3 d3 e2 28 08 00 3b f4 d9 7b 29 99 11 47
# ReportID: 1 / X:  128 | Y:  126 | Z:  129 | Rz:  127 | Rx:    0 | Ry:    0 | 0xff000020:  129 | Hat switch:   8 | Button: 0  0  0  0  0  0  0  0  0  0  0  0  0  0  0 | 0xff000021: 0 , 0 , 0 , 0 , 0 , 0 , 0 , 0 , 0 , 0 , 0 , 0 , 0 | 0xff000022:   94 ,  166 ,   42 ,  235 ,  247 ,  255 ,  239 ,  255 ,   11 ,    0 ,   46 ,    0 ,   78 ,   31 ,   50 ,    5 ,  184 ,  187 ,  211 ,  226 ,    8 ,  129 ,   50 ,  240 ,   60 ,  128 ,    0 ,    0 ,    0 ,  118 ,    9 ,    9 ,    0 ,    0 ,    0 ,    0 ,    0 ,  185 ,  210 ,  211 ,  226 ,   40 ,    8 ,    0 ,   69 ,   60 ,   28 ,  188 ,   55 ,   20 ,  210 ,  251 
E: 000000.349316 64 01 80 7e 81 7f 00 00 81 08 00 00 00 5e a6 2a eb f7 ff ef ff 0b 00 2e 00 4e 1f 32 05 b8 bb d3 e2 08 81 32 f0 3c 80 00 00 00 76 09 09 00 00 00 00 00 b9 d2 d3 e2 28 08 00 45 3c 1c bc 37 14 d2 fb
# ReportID: 1 / X:  128 | Y:  126 | Z:  129 | Rz:  127 | Rx:    0 | Ry:    0 | 0xff000020:  130 | Hat switch:   8 | Button: 0  0  0  0  0  0  0  0  0  0  0  0  0  0  0 | 0xff000021: 0 , 0 , 0 , 0 , 0 , 0 , 0 , 0 , 0 , 0 , 0 , 0 , 0 | 0xff000022:   95 ,  166 ,   42 ,  235 ,  248 ,  255 ,  238 ,  255 ,   11 ,    0 ,   48 ,    0 ,   85 ,   31 ,   49 ,    5 ,  171 ,  234 ,  211 ,  226 ,    8 ,  129 ,   50 ,  240 ,   60 ,  128 ,    0 ,    0 ,    0 ,  118 ,    9 ,    9 ,    0 ,    0 ,    0 ,    0 ,    0 ,  153 ,    1 ,  212 ,  226 ,   40 ,    8 ,    0 ,   71 ,  113 ,  120 ,  155 ,  185 ,  106 ,  247 ,  185 
E: 000000.354992 64 01 80 7e 81 7f 00 00 82 08 00 00 00 5f a6 2a eb f8 ff ee ff 0b 00 30 00 55 1f 31 05 ab ea d3 e2 08 81 32 f0 3c 80 00 00 00 76 09 09 00 00 00 00 00 99 01 d4 e2 28 08 00 47 71 78 9b b9 6a f7 b9
# ReportID: 1 / X:  128 | Y:  126 | Z:  129 | Rz:  127 | Rx:    0 | Ry:    0 | 0xff000020:  131 | Hat switch:   8 | Button: 0  0  0  0  0  0  0  0  0  0  0  0  0  0  0 | 0xff000021: 0 , 0 , 0 , 0 , 0 , 0 , 0 , 0 , 0 , 0 , 0 , 0 , 0 | 0xff000022:   96 ,  166 ,   42 ,  235 ,  246 ,  255 ,  238 ,  255 ,   11 ,    0 ,   47 ,    0 ,   90 ,   31 ,   55 ,    5 ,  157 ,   25 ,  212 ,  226 ,    8 ,  129 ,   50 ,  240 ,   60 ,  128 ,    0 ,    0 ,    0 ,  118 ,    9 ,    9 ,    0 ,    0 ,    0 ,    0 ,    0 ,  121 ,   48 ,  212 ,  226 ,   40 ,    8 ,    0 ,  139 ,   91 ,  219 ,  190 ,  161 ,  222 ,  225 ,   69 
E: 000000.358724 64 01 80 7e 81 7f 00 00 83 08 00 00 00 60 a6 2a eb f6 ff ee ff 0b 00 2f 00 5a 1f 37 05 9d 19 d4 e2 08 81 32 f0 3c 80 00 00 00 76 09 09 00 00 00 00 00 79 30 d4 e2 28 08 00 8b 5b db be a1 de e1 45
# ReportID: 1 / X:  128 | Y:  126 | Z:  129 | Rz:  127 | Rx:    0 | Ry:    0 | 0xff000020:  132 | Hat switch:   8 | Button: 0  0  0  0  0  0  0  0  0  0  0  0  0  0  0 | 0xff000021: 0 , 0 , 0 , 0 , 0 , 0 , 0 , 0 , 0 , 0 , 0 , 0 , 0 | 0xff000022:   97 ,  166 ,   42 ,  235 ,  247 ,  255 ,  238 ,  255 ,   10 ,    0 ,   45 ,    0 ,   88 ,   31 ,   46 ,    5 ,  144 ,   72 ,  212 ,  226 ,    8 ,  129 ,   50 ,  240 ,   60 ,  128 ,    0 ,    0 ,    0 ,  118 ,    9 ,    9 ,    0 ,    0 ,    0 ,    0 ,    0 ,   89 ,   95 ,  212 ,  226 ,   40 ,    8 ,    0 ,   30 ,   18 ,  230 ,  147 ,   52 ,  101 ,  109 ,   61 
E: 000000.361637 64 01 80 7e 81 7f 00 00 84 08 00 00 00 61 a6 2a eb f7 ff ee ff 0a 00 2d 00 58 1f 2e 05 90 48 d4 e2 08 81 32 f0 3c 80 00 00 00 76 09 09 00 00 00 00 00 59 5f d4 e2 28 08 00 1e 12 e6 93 34 65 6d 3d
# ReportID: 1 / X:  128 | Y:  126 | Z:  130 | Rz:  127 | Rx:    0 | Ry:    0 | 0xff000020:  133 | Hat switch:   8 | Button: 0  0  0  0  0  0  0  0  0  0  0  0  0  0  0 | 0xff000021: 0 , 0 , 0 , 0 , 0 , 0 , 0 , 0 , 0 , 0 , 0 , 0 , 0 | 0xff000022:   98 ,  166 ,   42 ,  235 ,  247 ,  255 ,  238 ,  255 ,   11 ,    0 ,   45 ,    0 ,   95 ,   31 ,   55 ,    5 ,  131 ,  119 ,  212 ,  226 ,    9 ,  129 ,   50 ,  240 ,   60 ,  128 ,    0 ,    0 ,    0 ,  118 ,    9 ,    9 ,    0 ,    0 ,    0 ,    0 ,    0 ,   57 ,  142 ,  212 ,  226 ,   40 ,    8 ,    0 ,   61 ,   38 ,   26 ,  223 ,  122 ,   78 ,   12 ,   25 
E: 000000.365364 64 01 80 7e 82 7f 00 00 85 08 00 00 00 62 a6 2a eb f7 ff ee ff 0b 00 2d 00 5f 1f 37 05 83 77 d4 e2 09 81 32 f0 3c 80 00 00 00 76 09 09 00 00 00 00 00 39 8e d4 e2 28 08 00 3d 26 1a df 7a 4e 0c 19
# ReportID: 1 / X:  128 | Y:  126 | Z:  129 | Rz:  127 | Rx:    0 | Ry:    0 | 0xff000020:  134 | Hat switch:   8 | Button: 0  0  0  0  0  0  0  0  0  0  0  0  0  0  0 | 0xff000021: 0 , 0 , 0 , 0 , 0 , 0 , 0 , 0 , 0 , 0 , 0 , 0 , 0 | 0xff000022:   99 ,  166 ,   42 ,  235 ,  248 ,  255 ,  239 ,  255 ,   10 ,    0 ,   54 ,    0 ,   81 ,   31 ,   44 ,    5 ,  118 ,  166 ,  212 ,  226 ,    8 ,  129 ,   50 ,  240 ,   60 ,  128 ,    0 ,    0 ,    0 ,  118 ,    9 ,    9 ,    0 ,    0 ,    0 ,    0 ,    0 ,   25 ,  189 ,  212 ,  226 ,   40 ,    8 ,    0 ,  163 ,  210 ,  188 ,  250 ,   22 ,   66 ,  142 ,    5 
E: 000000.369844 64 01 80 7e 81 7f 00 00 86 08 00 00 00 63 a6 2a eb f8 ff ef ff 0a 00 36 00 51 1f 2c 05 76 a6 d4 e2 08 81 32 f0 3c 80 00 00 00 76 09 09 00 00 00 00 00 19 bd d4 e2 28 08 00 a3 d2 bc fa 16 42 8e 05
# ReportID: 1 / X:  128 | Y:  126 | Z:  129 | Rz:  127 | Rx:    0 | Ry:    0 | 0xff000020:  135 | Hat switch:   8 | Button: 0  0  0  0  0  0  0  0  0  0  0  0  0  0  0 | 0xff000021: 0 , 0 , 0 , 0 , 0 , 0 , 0 , 0 , 0 , 0 , 0 , 0 , 0 | 0xff000022:  100 ,  166 ,   42 ,  235 ,  246 ,  255 ,  237 ,  255 ,   10 ,    0 ,   44 ,    0 ,   86 ,   31 ,   52 ,    5 ,  105 ,  213 ,  212 ,  226 ,    8 ,  129 ,   50 ,  240 ,   60 ,  128 ,    0 ,    0 ,    0 ,  118 ,    9 ,    9 ,    0 ,    0 ,    0 ,    0 ,    0 ,  249 ,  235 ,  212 ,  226 ,   40 ,    8 ,    0 ,  189 ,  236 ,   61 ,  235 ,  221 ,   78 ,  249 ,   89 
E: 000000.373358 64 01 80 7e 81 7f 00 00 87 08 00 00 00 64 a6 2a eb f6 ff ed ff 0a 00 2c 00 56 1f 34 05 69 d5 d4 e2 08 81 32 f0 3c 80 00 00 00 76 09 09 00 00 00 00 00 f9 eb d4 e2 28 08 00 bd ec 3d eb dd 4e f9 59
# ReportID: 1 / X:  128 | Y:  126 | Z:  129 | Rz:  127 | Rx:    0 | Ry:    0 | 0xff000020:  136 | Hat switch:   8 | Button: 0  0  0  0  0  0  0  0  0  0  0  0  0  0  0 | 0xff000021: 0 , 0 , 0 , 0 , 0 , 0 , 0 , 0 , 0 , 0 , 0 , 0 , 0 | 0xff000022:  101 ,  166 ,   42 ,  235 ,  247 ,  255 ,  238 ,  255 ,   10 ,    0 ,   52 ,    0 ,   85 ,   31 ,   53 ,    5 ,   92 ,    4 ,  213 ,  226 ,    8 ,  129 ,   50 ,  240 ,   60 ,  128 ,    0 ,    0 ,    0 ,  118 ,    9 ,    9 ,    0 ,    0 ,    0 ,    0 ,    0 ,  217 ,   26 ,  213 ,  226 ,   40 ,    8 ,    0 ,  190 ,  120 ,  175 ,   22 ,  171 ,  196 ,  143 ,  190 
E: 000000.379427 64 01 80 7e 81 7f 00 00 88 08 00 00 00 65 a6 2a eb f7 ff ee ff 0a 00 34 00 55 1f 35 05 5c 04 d5 e2 08 81 32 f0 3c 80 00 00 00 76 09 09 00 00 00 00 00 d9 1a d5 e2 28 08 00 be 78 af 16 ab c4 8f be
# ReportID: 1 / X:  128 | Y:  126 | Z:  129 | Rz:  127 | Rx:    0 | Ry:    0 | 0xff000020:  137 | Hat switch:   8 | Button: 0  0  0  0  0  0  0  0  0  0  0  0  0  0  0 | 0xff000021: 0 , 0 , 0 , 0 , 0 , 0 , 0 , 0 , 0 , 0 , 0 , 0 , 0 | 0xff000022:  102 ,  166 ,   42 ,  235 ,  246 ,  255 ,  238 ,  255 ,   11 ,    0 ,   49 ,    0 ,   89 ,   31 ,   56 ,    5 ,   79 ,   51 ,  213 ,  226 ,    8 ,  129 ,   50 ,  240 ,   60 ,  128 ,    0 ,    0 ,    0 ,  118 ,    9 ,    9 ,    0 ,    0 ,    0 ,    0 ,    0 ,  185 ,   73 ,  213 ,  226 ,   40 ,    8 ,    0 ,  236 ,  141 ,  206 ,   90 ,  112 ,  177 ,  124 ,   58 
E: 000000.382954 64 01 80 7e 81 7f 00 00 89 08 00 00 00 66 a6 2a eb f6 ff ee ff 0b 00 31 00 59 1f 38 05 4f 33 d5 e2 08 81 32 f0 3c 80 00 00 00 76 09 09 00 00 00 00 00 b9 49 d5 e2 28 08 00 ec 8d ce 5a 70 b1 7c 3a
# ReportID: 1 / X:  128 | Y:  126 | Z:  129 | Rz:  127 | Rx:    0 | Ry:    0 | 0xff000020:  138 | Hat switch:   8 | Button: 0  0  0  0  0  0  0  0  0  0  0  0  0  0  0 | 0xff000021: 0 , 0 , 0 , 0 , 0 , 0 , 0 , 0 , 0 , 0 , 0 , 0 , 0 | 0xff000022:  103 ,  166 ,   42 ,  235 ,  247 ,  255 ,  238 ,  255 ,   10 ,    0 ,   54 ,    0 ,   86 ,   31 ,   59 ,    5 ,   67 ,   98 ,  213 ,  226 ,    8 ,  129 ,   50 ,  240 ,   60 ,  128 ,    0 ,    0 ,    0 ,  118 ,    9 ,    9 ,    0 ,    0 ,    0 ,    0 ,    0 ,  153 ,  120 ,  213 ,  226 ,   40 ,    8 ,    0 ,  102 ,  221 ,   33 ,    9 ,  144 ,  224 ,  112 ,  147 
E: 000000.385990 64 01 80 7e 81 7f 00 00 8a 08 00 00 00 67 a6 2a eb f7 ff ee ff 0a 00 36 00 56 1f 3b 05 43 62 d5 e2 08 81 32 f0 3c 80 00 00 00 76 09 09 00 00 00 00 00 99 78 d5 e2 28 08 00 66 dd 21 09 90 e0 70 93
# ReportID: 1 / X:  128 | Y:  126 | Z:  129 | Rz:  127 | Rx:    0 | Ry:    0 | 0xff000020:  139 | Hat switch:   8 | Button: 0  0  0  0  0  0  0  0  0  0  0  0  0  0  0 | 0xff000021: 0 , 0 , 0 , 0 , 0 , 0 , 0 , 0 , 0 , 0 , 0 , 0 , 0 | 0xff000022:  104 ,  166 ,   42 ,  235 ,  247 ,  255 ,  238 ,  255 ,   10 ,    0 ,   56 ,    0 ,   83 ,   31 ,   57 ,    5 ,   54 ,  145 ,  213 ,  226 ,    8 ,  129 ,   50 ,  240 ,   60 ,  128 ,    0 ,    0 ,    0 ,  118 ,    9 ,    9 ,    0 ,    0 ,    0 ,    0 ,    0 ,  121 ,  167 ,  213 ,  226 ,   40 ,    8 ,    0 ,   33 ,  198 ,   74 ,  247 ,  112 ,  193 ,   42 ,  176 
E: 000000.389337 64 01 80 7e 81 7f 00 00 8b 08 00 00 00 68 a6 2a eb f7 ff ee ff 0a 00 38 00 53 1f 39 05 36 91 d5 e2 08 81 32 f0 3c 80 00 00 00 76 09 09 00 00 00 00 00 79 a7 d5 e2 28 08 00 21 c6 4a f7 70 c1 2a b0
# ReportID: 1 / X:  128 | Y:  126 | Z:  129 | Rz:  127 | Rx:    0 | Ry:    0 | 0xff000020:  140 | Hat switch:   8 | Button: 0  0  0  0  0  0  0  0  0  0  0  0  0  0  0 | 0xff000021: 0 , 0 , 0 , 0 , 0 , 0 , 0 , 0 , 0 , 0 , 0 , 0 , 0 | 0xff000022:  105 ,  166 ,   42 ,  235 ,  246 ,  255 ,  237 ,  255 ,    9 ,    0 ,   58 ,    0 ,   81 ,   31 ,   52 ,    5 ,   41 ,  192 ,  213 ,  226 ,    8 ,  129 ,   50 ,  240 ,   60 ,  128 ,    0 ,    0 ,    0 ,  118 ,    9 ,    9 ,    0 ,    0 ,    0 ,    0 ,    0 ,   89 ,  214 ,  213 ,  226 ,   40 ,    8 ,    0 ,  238 ,  239 ,  193 ,   86 ,   66 ,  195 ,  115 ,  125 
E: 000000.395148 64 01 80 7e 81 7f 00 00 8c 08 00 00 00 69 a6 2a eb f6 ff ed ff 09 00 3a 00 51 1f 34 05 29 c0 d5 e2 08 81 32 f0 3c 80 00 00 00 76 09 09 00 00 00 00 00 59 d6 d5 e2 28 08 00 ee ef c1 56 42 c3 73 7d
# ReportID: 1 / X:  128 | Y:  126 | Z:  129 | Rz:  127 | Rx:    0 | Ry:    0 | 0xff000020:  141 | Hat switch:   8 | Button: 0  0  0  0  0  0  0  0  0  0  0  0  0  0  0 | 0xff000021: 0 , 0 , 0 , 0 , 0 , 0 , 0 , 0 , 0 , 0 , 0 , 0 , 0 | 0xff000022:  106 ,  166 ,   42 ,  235 ,  247 ,  255 ,  238 ,  255 ,   11 ,    0 ,   54 ,    0 ,   79 ,   31 ,   48 ,    5 ,   28 ,  239 ,  213 ,  226 ,    8 ,  129 ,   50 ,  240 ,   60 ,  128 ,    0 ,    0 ,    0 ,  118 ,    9 ,    9 ,    0 ,    0 ,    0 ,    0 ,    0 ,   57 ,    5 ,  214 ,  226 ,   40 ,    8 ,    0 ,   15 ,   62 ,   91 ,  189 ,    3 ,  214 ,  233 ,  225 
E: 000000.398145 64 01 80 7e 81 7f 00 00 8d 08 00 00 00 6a a6 2a eb f7 ff ee ff 0b 00 36 00 4f 1f 30 05 1c ef d5 e2 08 81 32 f0 3c 80 00 00 00 76 09 09 00 00 00 00 00 39 05 d6 e2 28 08 00 0f 3e 5b bd 03 d6 e9 e1
# ReportID: 1 / X:  128 | Y:  126 | Z:  130 | Rz:  127 | Rx:    0 | Ry:    0 | 0xff000020:  142 | Hat switch:   8 | Button: 0  0  0  0  0  0  0  0  0  0  0  0  0  0  0 | 0xff000021: 0 , 0 , 0 , 0 , 0 , 0 , 0 , 0 , 0 , 0 , 0 , 0 , 0 | 0xff000022:  107 ,  166 ,   42 ,  235 ,  247 ,  255 ,  238 ,  255 ,   11 ,    0 ,   52 ,    0 ,   66 ,   31 ,   54 ,    5 ,   15 ,   30 ,  214 ,  226 ,    8 ,  129 ,   50 ,  240 ,   60 ,  128 ,    0 ,    0 ,    0 ,  118 ,    9 ,    9 ,    0 ,    0 ,    0 ,    0 ,    0 ,   25 ,   52 ,  214 ,  226 ,   40 ,    8 ,    0 ,   89 ,  112 ,   95 ,  125 ,   50 ,   37 ,  216 ,   24 
E: 000000.401381 64 01 80 7e 82 7f 00 00 8e 08 00 00 00 6b a6 2a eb f7 ff ee ff 0b 00 34 00 42 1f 36 05 0f 1e d6 e2 08 81 32 f0 3c 80 00 00 00 76 09 09 00 00 00 00 00 19 34 d6 e2 28 08 00 59 70 5f 7d 32 25 d8 18
# ReportID: 1 / X:  128 | Y:  126 | Z:  130 | Rz:  127 | Rx:    0 | Ry:    0 | 0xff000020:  143 | Hat switch:   8 | Button: 0  0  0  0  0  0  0  0  0  0  0  0  0  0  0 | 0xff000021: 0 , 0 , 0 , 0 , 0 , 0 , 0 , 0 , 0 , 0 , 0 , 0 , 0 | 0xff000022:  108 ,  166 ,   42 ,  235 ,  247 ,  255 ,  238 ,  255 ,   10 ,    0 ,   49 ,    0 ,   89 ,   31 ,   50 ,    5 ,    2 ,   77 ,  214 ,  226 ,    8 ,  129 ,   50 ,  240 ,   60 ,  128 ,    0 ,    0 ,    0 ,  118 ,    9 ,    9 ,    0 ,    0 ,    0 ,    0 ,    0 ,  249 ,   98 ,  214 ,  226 ,   40 ,    8 ,    0 ,  116 ,  130 ,  121 ,  138 ,  187 ,  127 ,  140 ,   19 
E: 000000.405756 64 01 80 7e 82 7f 00 00 8f 08 00 00 00 6c a6 2a eb f7 ff ee ff 0a 00 31 00 59 1f 32 05 02 4d d6 e2 08 81 32 f0 3c 80 00 00 00 76 09 09 00 00 00 00 00 f9 62 d6 e2 28 08 00 74 82 79 8a bb 7f 8c 13
# ReportID: 1 / X:  128 | Y:  126 | Z:  129 | Rz:  127 | Rx:    0 | Ry:    0 | 0xff000020:  144 | Hat switch:   8 | Button: 0  0  0  0  0  0  0  0  0  0  0  0  0  0  0 | 0xff000021: 0 , 0 , 0 , 0 , 0 , 0 , 0 , 0 , 0 , 0 , 0 , 0 , 0 | 0xff000022:  109 ,  166 ,   42 ,  235 ,  247 ,  255 ,  238 ,  255 ,   11 ,    0 ,   50 ,    0 ,   76 ,   31 ,   53 ,    5 ,  246 ,  123 ,  214 ,  226 ,    8 ,  129 ,   50 ,  240 ,   60 ,  128 ,    0 ,    0 ,    0 ,  118 ,    9 ,    9 ,    0 ,    0 ,    0 ,    0 ,    0 ,  217 ,  145 ,  214 ,  226 ,   40 ,    8 ,    0 ,  132 ,  171 ,  124 ,  223 ,  175 ,  192 ,   83 ,   95 
E: 000000.409922 64 01 80 7e 81 7f 00 00 90 08 00 00 00 6d a6 2a eb f7 ff ee ff 0b 00 32 00 4c 1f 35 05 f6 7b d6 e2 08 81 32 f0 3c 80 00 00 00 76 09 09 00 00 00 00 00 d9 91 d6 e2 28 08 00 84 ab 7c df af c0 53 5f
# ReportID: 1 / X:  128 | Y:  126 | Z:  129 | Rz:  127 | Rx:    0 | Ry:    0 | 0xff000020:  145 | Hat switch:   8 | Button: 0  0  0  0  0  0  0  0  0  0  0  0  0  0  0 | 0xff000021: 0 , 0 , 0 , 0 , 0 , 0 , 0 , 0 , 0 , 0 , 0 , 0 , 0 | 0xff000022:  110 ,  166 ,   42 ,  235 ,  248 ,  255 ,  238 ,  255 ,   11 ,    0 ,   48 ,    0 ,   80 ,   31 ,   53 ,    5 ,  233 ,  170 ,  214 ,  226 ,    8 ,  129 ,   50 ,  240 ,   60 ,  128 ,    0 ,    0 ,    0 ,  118 ,    9 ,    9 ,    0 ,    0 ,    0 ,    0 ,    0 ,  185 ,  192 ,  214 ,  226 ,   40 ,    8 ,    0 ,  203 ,   99 ,    1 ,  186 ,  173 ,  118 ,  203 ,  222 
E: 000000.414872 64 01 80 7e 81 7f 00 00 91 08 00 00 00 6e a6 2a eb f8 ff ee ff 0b 00 30 00 50 1f 35 05 e9 aa d6 e2 08 81 32 f0 3c 80 00 00 00 76 09 09 00 00 00 00 00 b9 c0 d6 e2 28 08 00 cb 63 01 ba ad 76 cb de
# ReportID: 1 / X:  128 | Y:  126 | Z:  129 | Rz:  127 | Rx:    0 | Ry:    0 | 0xff000020:  146 | Hat switch:   8 | Button: 0  0  0  0  0  0  0  0  0  0  0  0  0  0  0 | 0xff000021: 0 , 0 , 0 , 0 , 0 , 0 , 0 , 0 , 0 , 0 , 0 , 0 , 0 | 0xff000022:  111 ,  166 ,   42 ,  235 ,  248 ,  255 ,  239 ,  255 ,   11 ,    0 ,   49 ,    0 ,   88 ,   31 ,   55 ,    5 ,  220 ,  217 ,  214 ,  226 ,    8 ,  129 ,   50 ,  240 ,   60 ,  128 ,    0 ,    0 ,    0 ,  118 ,    9 ,    9 ,    0 ,    0 ,    0 ,    0 ,    0 ,  161 ,  239 ,  214 ,  226 ,   40 ,    8 ,    0 ,  222 ,  112 ,  207 ,  242 ,  187 ,  175 ,    0 ,   14 
E: 000000.418206 64 01 80 7e 81 7f 00 00 92 08 00 00 00 6f a6 2a eb f8 ff ef ff 0b 00 31 00 58 1f 37 05 dc d9 d6 e2 08 81 32 f0 3c 80 00 00 00 76 09 09 00 00 00 00 00 a1 ef d6 e2 28 08 00 de 70 cf f2 bb af 00 0e
# ReportID: 1 / X:  128 | Y:  126 | Z:  129 | Rz:  127 | Rx:    0 | Ry:    0 | 0xff000020:  147 | Hat switch:   8 | Button: 0  0  0  0  0  0  0  0  0  0  0  0  0  0  0 | 0xff000021: 0 , 0 , 0 , 0 , 0 , 0 , 0 , 0 , 0 , 0 , 0 , 0 , 0 | 0xff000022:  112 ,  166 ,   42 ,  235 ,  247 ,  255 ,  239 ,  255 ,   10 ,    0 ,   47 ,    0 ,   84 ,   31 ,   50 ,    5 ,  207 ,    8 ,  215 ,  226 ,    8 ,  129 ,   50 ,  240 ,   60 ,  128 ,    0 ,    0 ,    0 ,  118 ,    9 ,    9 ,    0 ,    0 ,    0 ,    0 ,    0 ,  129 ,   30 ,  215 ,  226 ,   40 ,    8 ,    0 ,  169 ,   12 ,  136 ,   22 ,   18 ,  245 ,  159 ,   61 
E: 000000.421371 64 01 80 7e 81 7f 00 00 93 08 00 00 00 70 a6 2a eb f7 ff ef ff 0a 00 2f 00 54 1f 32 05 cf 08 d7 e2 08 81 32 f0 3c 80 00 00 00 76 09 09 00 00 00 00 00 81 1e d7 e2 28 08 00 a9 0c 88 16 12 f5 9f 3d
# ReportID: 1 / X:  128 | Y:  126 | Z:  129 | Rz:  127 | Rx:    0 | Ry:    0 | 0xff000020:  148 | Hat switch:   8 | Button: 0  0  0  0  0  0  0  0  0  0  0  0  0  0  0 | 0xff000021: 0 , 0 , 0 , 0 , 0 , 0 , 0 , 0 , 0 , 0 , 0 , 0 , 0 | 0xff000022:  113 ,  166 ,   42 ,  235 ,  247 ,  255 ,  238 ,  255 ,   11 ,    0 ,   46 ,    0 ,   89 ,   31 ,   62 ,    5 ,  194 ,   55 ,  215 ,  226 ,    8 ,  129 ,   50 ,  240 ,   60 ,  128 ,    0 ,    0 ,    0 ,  118 ,    9 ,    9 ,    0 ,    0 ,    0 ,    0 ,    0 ,   97 ,   77 ,  215 ,  226 ,   40 ,    8 ,    0 ,   83 ,  126 ,  248 ,   64 ,  133 ,   79 ,  158 ,   95 
E: 000000.426512 64 01 80 7e 81 7f 00 00 94 08 00 00 00 71 a6 2a eb f7 ff ee ff 0b 00 2e 00 59 1f 3e 05 c2 37 d7 e2 08 81 32 f0 3c 80 00 00 00 76 09 09 00 00 00 00 00 61 4d d7 e2 28 08 00 53 7e f8 40 85 4f 9e 5f
