# Sony Interactive Entertainment DualSense Wireless Controller
# 0x05, 0x01,                    // Usage Page (Generic Desktop)        0
# 0x09, 0x05,                    // Usage (Game Pad)                    2
# 0xa1, 0x01,                    // Collection (Application)            4
# 0x85, 0x01,                    //  Report ID (1)                      6
# 0x09, 0x30,                    //  Usage (X)                          8
# 0x09, 0x31,                    //  Usage (Y)                          10
# 0x09, 0x32,                    //  Usage (Z)                          12
# 0x09, 0x35,                    //  Usage (Rz)                         14
# 0x09, 0x33,                    //  Usage (Rx)                         16
# 0x09, 0x34,                    //  Usage (Ry)                         18
# 0x15, 0x00,                    //  Logical Minimum (0)                20
# 0x26, 0xff, 0x00,              //  Logical Maximum (255)              22
# 0x75, 0x08,                    //  Report Size (8)                    25
# 0x95, 0x06,                    //  Report Count (6)                   27
# 0x81, 0x02,                    //  Input (Data,Var,Abs)               29
# 0x06, 0x00, 0xff,              //  Usage Page (Vendor Defined Page 1) 31
# 0x09, 0x20,                    //  Usage (Vendor Usage 0x20)          34
# 0x95, 0x01,                    //  Report Count (1)                   36
# 0x81, 0x02,                    //  Input (Data,Var,Abs)               38
# 0x05, 0x01,                    //  Usage Page (Generic Desktop)       40
# 0x09, 0x39,                    //  Usage (Hat switch)                 42
# 0x15, 0x00,                    //  Logical Minimum (0)                44
# 0x25, 0x07,                    //  Logical Maximum (7)                46
# 0x35, 0x00,                    //  Physical Minimum (0)               48
# 0x46, 0x3b, 0x01,              //  Physical Maximum (315)             50
# 0x65, 0x14,                    //  Unit (EnglishRotation: deg)        53
# 0x75, 0x04,                    //  Report Size (4)                    55
# 0x95, 0x01,                    //  Report Count (1)                   57
# 0x81, 0x42,                    //  Input (Data,Var,Abs,Null)          59
# 0x65, 0x00,                    //  Unit (None)                        61
# 0x05, 0x09,                    //  Usage Page (Button)                63
# 0x19, 0x01,                    //  Usage Minimum (1)                  65
# 0x29, 0x0f,                    //  Usage Maximum (15)                 67
# 0x15, 0x00,                    //  Logical Minimum (0)                69
# 0x25, 0x01,                    //  Logical Maximum (1)                71
# 0x75, 0x01,                    //  Report Size (1)                    73
# 0x95, 0x0f,                    //  Report Count (15)                  75
# 0x81, 0x02,                    //  Input (Data,Var,Abs)               77
# 0x06, 0x00, 0xff,              //  Usage Page (Vendor Defined Page 1) 79
# 0x09, 0x21,                    //  Usage (Vendor Usage 0x21)          82
# 0x95, 0x0d,                    //  Report Count (13)                  84
# 0x81, 0x02,                    //  Input (Data,Var,Abs)               86
# 0x06, 0x00, 0xff,              //  Usage Page (Vendor Defined Page 1) 88
# 0x09, 0x22,                    //  Usage (Vendor Usage 0x22)          91
# 0x15, 0x00,                    //  Logical Minimum (0)                93
# 0x26, 0xff, 0x00,              //  Logical Maximum (255)              95
# 0x75, 0x08,                    //  Report Size (8)                    98
# 0x95, 0x34,                    //  Report Count (52)                  100
# 0x81, 0x02,                    //  Input (Data,Var,Abs)               102
# 0x85, 0x02,                    //  Report ID (2)                      104
# 0x09, 0x23,                    //  Usage (Vendor Usage 0x23)          106
# 0x95, 0x2f,                    //  Report Count (47)                  108
# 0x91, 0x02,                    //  Output (Data,Var,Abs)              110
# 0x85, 0x05,                    //  Report ID (5)                      112
# 0x09, 0x33,                    //  Usage (Vendor Usage 0x33)          114
# 0x95, 0x28,                    //  Report Count (40)                  116
# 0xb1, 0x02,                    //  Feature (Data,Var,Abs)             118
# 0x85, 0x08,                    //  Report ID (8)                      120
# 0x09, 0x34,                    //  Usage (Vendor Usage 0x34)          122
# 0x95, 0x2f,                    //  Report Count (47)                  124
# 0xb1, 0x02,                    //  Feature (Data,Var,Abs)             126
# 0x85, 0x09,                    //  Report ID (9)                      128
# 0x09, 0x24,                    //  Usage (Vendor Usage 0x24)          130
# 0x95, 0x13,                    //  Report Count (19)                  132
# 0xb1, 0x02,                    //  Feature (Data,Var,Abs)             134
# 0x85, 0x0a,                    //  Report ID (10)                     136
# 0x09, 0x25,                    //  Usage (Vendor Usage 0x25)          138
# 0x95, 0x1a,                    //  Report Count (26)                  140
# 0xb1, 0x02,                    //  Feature (Data,Var,Abs)             142
# 0x85, 0x20,                    //  Report ID (32)                     144
# 0x09, 0x26,                    //  Usage (Vendor Usage 0x26)          146
# 0x95, 0x3f,                    //  Report Count (63)                  148
# 0xb1, 0x02,                    //  Feature (Data,Var,Abs)             150
# 0x85, 0x21,                    //  Report ID (33)                     152
# 0x09, 0x27,                    //  Usage (Vendor Usage 0x27)          154
# 0x95, 0x04,                    //  Report Count (4)                   156
# 0xb1, 0x02,                    //  Feature (Data,Var,Abs)             158
# 0x85, 0x22,                    //  Report ID (34)                     160
# 0x09, 0x40,                    //  Usage (Vendor Usage 0x40)          162
# 0x95, 0x3f,                    //  Report Count (63)                  164
# 0xb1, 0x02,                    //  Feature (Data,Var,Abs)             166
# 0x85, 0x80,                    //  Report ID (128)                    168
# 0x09, 0x28,                    //  Usage (Vendor Usage 0x28)          170
# 0x95, 0x3f,                    //  Report Count (63)                  172
# 0xb1, 0x02,                    //  Feature (Data,Var,Abs)             174
# 0x85, 0x81,                    //  Report ID (129)                    176
# 0x09, 0x29,                    //  Usage (Vendor Usage 0x29)          178
# 0x95, 0x3f,                    //  Report Count (63)                  180
# 0xb1, 0x02,                    //  Feature (Data,Var,Abs)             182
# 0x85, 0x82,                    //  Report ID (130)                    184
# 0x09, 0x2a,                    //  Usage (Vendor Usage 0x2a)          186
# 0x95, 0x09,                    //  Report Count (9)                   188
# 0xb1, 0x02,                    //  Feature (Data,Var,Abs)             190
# 0x85, 0x83,                    //  Report ID (131)                    192
# 0x09, 0x2b,                    //  Usage (Vendor Usage 0x2b)          194
# 0x95, 0x3f,                    //  Report Count (63)                  196
# 0xb1, 0x02,                    //  Feature (Data,Var,Abs)             198
# 0x85, 0x84,                    //  Report ID (132)                    200
# 0x09, 0x2c,                    //  Usage (Vendor Usage 0x2c)          202
# 0x95, 0x3f,                    //  Report Count (63)                  204
# 0xb1, 0x02,                    //  Feature (Data,Var,Abs)             206
# 0x85, 0x85,                    //  Report ID (133)                    208
# 0x09, 0x2d,                    //  Usage (Vendor Usage 0x2d)          210
# 0x95, 0x02,                    //  Report Count (2)                   212
# 0xb1, 0x02,                    //  Feature (Data,Var,Abs)             214
# 0x85, 0xa0,                    //  Report ID (160)                    216
# 0x09, 0x2e,                    //  Usage (Vendor Usage 0x2e)          218
# 0x95, 0x01,                    //  Report Count (1)                   220
# 0xb1, 0x02,                    //  Feature (Data,Var,Abs)             222
# 0x85, 0xe0,                    //  Report ID (224)                    224
# 0x09, 0x2f,                    //  Usage (Vendor Usage 0x2f)          226
# 0x95, 0x3f,                    //  Report Count (63)                  228
# 0xb1, 0x02,                    //  Feature (Data,Var,Abs)             230
# 0x85, 0xf0,                    //  Report ID (240)                    232
# 0x09, 0x30,                    //  Usage (Vendor Usage 0x30)          234
# 0x95, 0x3f,                    //  Report Count (63)                  236
# 0xb1, 0x02,                    //  Feature (Data,Var,Abs)             238
# 0x85, 0xf1,                    //  Report ID (241)                    240
# 0x09, 0x31,                    //  Usage (Vendor Usage 0x31)          242
# 0x95, 0x3f,                    //  Report Count (63)                  244
# 0xb1, 0x02,                    //  Feature (Data,Var,Abs)             246
# 0x85, 0xf2,                    //  Report ID (242)                    248
# 0x09, 0x32,                    //  Usage (Vendor Usage 0x32)          250
# 0x95, 0x0f,                    //  Report Count (15)                  252
# 0xb1, 0x02,                    //  Feature (Data,Var,Abs)             254
# 0x85, 0xf4,                    //  Report ID (244)                    256
# 0x09, 0x35,                    //  Usage (Vendor Usage 0x35)          258
# 0x95, 0x3f,                    //  Report Count (63)                  260
# 0xb1, 0x02,                    //  Feature (Data,Var,Abs)             262
# 0x85, 0xf5,                    //  Report ID (245)                    264
# 0x09, 0x36,                    //  Usage (Vendor Usage 0x36)          266
# 0x95, 0x03,                    //  Report Count (3)                   268
# 0xb1, 0x02,                    //  Feature (Data,Var,Abs)             270
# 0xc0,                          // End Collection                      272
# 
R: 273 05 01 09 05 a1 01 85 01 09 30 09 31 09 32 09 35 09 33 09 34 15 00 26 ff 00 75 08 95 06 81 02 06 00 ff 09 20 95 01 81 02 05 01 09 39 15 00 25 07 35 00 46 3b 01 65 14 75 04 95 01 81 42 65 00 05 09 19 01 29 0f 15 00 25 01 75 01 95 0f 81 02 06 00 ff 09 21 95 0d 81 02 06 00 ff 09 22 15 00 26 ff 00 75 08 95 34 81 02 85 02 09 23 95 2f 91 02 85 05 09 33 95 28 b1 02 85 08 09 34 95 2f b1 02 85 09 09 24 95 13 b1 02 85 0a 09 25 95 1a b1 02 85 20 09 26 95 3f b1 02 85 21 09 27 95 04 b1 02 85 22 09 40 95 3f b1 02 85 80 09 28 95 3f b1 02 85 81 09 29 95 3f b1 02 85 82 09 2a 95 09 b1 02 85 83 09 2b 95 3f b1 02 85 84 09 2c 95 3f b1 02 85 85 09 2d 95 02 b1 02 85 a0 09 2e 95 01 b1 02 85 e0 09 2f 95 3f b1 02 85 f0 09 30 95 3f b1 02 85 f1 09 31 95 3f b1 02 85 f2 09 32 95 0f b1 02 85 f4 09 35 95 3f b1 02 85 f5 09 36 95 03 b1 02 c0
N: Sony Interactive Entertainment DualSense Wireless Controller
I: 3 054c 0ce6
# ReportID: 1 / X:  131 | Y:  128 | Z:  129 | Rz:  127 | Rx:    0 | Ry:    0 | 0xff000020:  233 | Hat switch:   8 | Button: 0  0  0  0  0  0  0  0  0  0  0  0  0  0  0 | 0xff000021: 0 , 0 , 0 , 0 , 0 , 0 , 0 , 0 , 0 , 0 , 0 , 0 , 0 | 0xff000022:  198 ,  117 ,   42 ,  235 ,  246 ,  255 ,  237 ,  255 ,   10 ,    0 ,   43 ,    0 ,   95 ,   31 ,   64 ,    5 ,  207 ,  239 ,  237 ,  217 ,    8 ,  128 ,    0 ,    0 ,    0 ,  128 ,    0 ,    0 ,    0 ,    0 ,    9 ,    9 ,    0 ,    0 ,    0 ,    0 ,    0 ,  121 ,    9 ,  238 ,  217 ,   40 ,    8 ,    0 ,   29 ,  198 ,  248 ,   45 ,  134 ,  125 ,  211 ,   84 
E: 000000.000000 64 01 83 80 81 7f 00 00 e9 08 00 00 00 c6 75 2a eb f6 ff ed ff 0a 00 2b 00 5f 1f 40 05 cf ef ed d9 08 80 00 00 00 80 00 00 00 00 09 09 00 00 00 00 00 79 09 ee d9 28 08 00 1d c6 f8 2d 86 7d d3 54
# ReportID: 1 / X:  131 | Y:  128 | Z:  130 | Rz:  127 | Rx:    0 | Ry:    0 | 0xff000020:  234 | Hat switch:   8 | Button: 0  0  0  0  0  0  0  0  0  0  0  0  0  0  0 | 0xff000021: 0 , 0 , 0 , 0 , 0 , 0 , 0 , 0 , 0 , 0 , 0 , 0 , 0 | 0xff000022:  199 ,  117 ,   42 ,  235 ,  248 ,  255 ,  238 ,  255 ,   10 ,    0 ,   64 ,    0 ,  240 ,   30 ,   24 ,    5 ,  194 ,   30 ,  238 ,  217 ,    8 ,  128 ,    0 ,    0 ,    0 ,  128 ,    0 ,    0 ,    0 ,    0 ,    9 ,    9 ,    0 ,    0 ,    0 ,    0 ,    0 ,   89 ,   56 ,  238 ,  217 ,   40 ,    8 ,    0 ,   40 ,   56 ,  177 ,   25 ,  132 ,  213 ,  206 ,  200 
E: 000000.003457 64 01 83 80 82 7f 00 00 ea 08 00 00 00 c7 75 2a eb f8 ff ee ff 0a 00 40 00 f0 1e 18 05 c2 1e ee d9 08 80 00 00 00 80 00 00 00 00 09 09 00 00 00 00 00 59 38 ee d9 28 08 00 28 38 b1 19 84 d5 ce c8
# ReportID: 1 / X:  131 | Y:  128 | Z:  129 | Rz:  127 | Rx:    0 | Ry:    0 | 0xff000020:  235 | Hat switch:   8 | Button: 0  0  0  0  0  0  0  0  0  0  0  0  0  0  0 | 0xff000021: 0 , 0 , 0 , 0 , 0 , 0 , 0 , 0 , 0 , 0 , 0 , 0 , 0 | 0xff000022:  200 ,  117 ,   42 ,  235 ,  249 ,  255 ,  239 ,  255 ,    9 ,    0 ,   49 ,    0 ,   25 ,   31 ,   55 ,    5 ,  181 ,   77 ,  238 ,  217 ,    8 ,  128 ,    0 ,    0 ,    0 ,  128 ,    0 ,    0 ,    0 ,    0 ,    9 ,    9 ,    0 ,    0 ,    0 ,    0 ,    0 ,   57 ,  103 ,  238 ,  217 ,   40 ,    8 ,    0 ,   84 ,  239 ,   71 ,  123 ,   84 ,  104 ,   53 ,   48 
E: 000000.007406 64 01 83 80 81 7f 00 00 eb 08 00 00 00 c8 75 2a eb f9 ff ef ff 09 00 31 00 19 1f 37 05 b5 4d ee d9 08 80 00 00 00 80 00 00 00 00 09 09 00 00 00 00 00 39 67 ee d9 28 08 00 54 ef 47 7b 54 68 35 30
# ReportID: 1 / X:  131 | Y:  128 | Z:  129 | Rz:  127 | Rx:    0 | Ry:    0 | 0xff000020:  236 | Hat switch:   8 | Button: 0  0  0  0  0  0  0  0  0  0  0  0  0  0  0 | 0xff000021: 0 , 0 , 0 , 0 , 0 , 0 , 0 , 0 , 0 , 0 , 0 , 0 , 0 | 0xff000022:  201 ,  117 ,   42 ,  235 ,  247 ,  255 ,  239 ,  255 ,   11 ,    0 ,   54 ,    0 ,  168 ,   31 ,   56 ,    5 ,  168 ,  124 ,  238 ,  217 ,    8 ,  128 ,    0 ,    0 ,    0 ,  128 ,    0 ,    0 ,    0 ,    0 ,    9 ,    9 ,    0 ,    0 ,    0 ,    0 ,    0 ,   25 ,  150 ,  238 ,  217 ,   40 ,    8 ,    0 ,   76 ,  171 ,  165 ,   93 ,  153 ,  169 ,  103 ,  217 
E: 000000.009408 64 01 83 80 81 7f 00 00 ec 08 00 00 00 c9 75 2a eb f7 ff ef ff 0b 00 36 00 a8 1f 38 05 a8 7c ee d9 08 80 00 00 00 80 00 00 00 00 09 09 00 00 00 00 00 19 96 ee d9 28 08 00 4c ab a5 5d 99 a9 67 d9
# ReportID: 1 / X:  131 | Y:  128 | Z:  129 | Rz:  127 | Rx:    0 | Ry:    0 | 0xff000020:  237 | Hat switch:   8 | Button: 0  0  0  0  0  0  0  0  0  0  0  0  0  0  0 | 0xff000021: 0 , 0 , 0 , 0 , 0 , 0 , 0 , 0 , 0 , 0 , 0 , 0 , 0 | 0xff000022:  202 ,  117 ,   42 ,  235 ,  248 ,  255 ,  238 ,  255 ,   11 ,    0 ,   58 ,    0 ,   36 ,   32 ,  106 ,    5 ,  155 ,  171 ,  238 ,  217 ,    8 ,  128 ,    0 ,    0 ,    0 ,  128 ,    0 ,    0 ,    0 ,    0 ,    9 ,    9 ,    0 ,    0 ,    0 ,    0 ,    0 ,  249 ,  196 ,  238 ,  217 ,   40 ,    8 ,    0 ,  119 ,  230 ,  224 ,  230 ,  222 ,  119 ,  243 ,  216 
E: 000000.013644 64 01 83 80 81 7f 00 00 ed 08 00 00 00 ca 75 2a eb f8 ff ee ff 0b 00 3a 00 24 20 6a 05 9b ab ee d9 08 80 00 00 00 80 00 00 00 00 09 09 00 00 00 00 00 f9 c4 ee d9 28 08 00 77 e6 e0 e6 de 77 f3 d8
# ReportID: 1 / X:  131 | Y:  128 | Z:  129 | Rz:  127 | Rx:    0 | Ry:    0 | 0xff000020:  238 | Hat switch:   8 | Button: 0  0  0  0  0  0  0  0  0  0  0  0  0  0  0 | 0xff000021: 0 , 0 , 0 , 0 , 0 , 0 , 0 , 0 , 0 , 0 , 0 , 0 , 0 | 0xff000022:  203 ,  117 ,   42 ,  235 ,  246 ,  255 ,  237 ,  255 ,   13 ,    0 ,   44 ,    0 ,  104 ,   31 ,   39 ,    5 ,  143 ,  218 ,  238 ,  217 ,    8 ,  128 ,    0 ,    0 ,    0 ,  128 ,    0 ,    0 ,    0 ,    0 ,    9 ,    9 ,    0 ,    0 ,    0 ,    0 ,    0 ,  231 ,  243 ,  238 ,  217 ,   40 ,    8 ,    0 ,   24 ,  116 ,    6 ,  250 ,  241 ,  141 ,  152 ,  204 
E: 000000.017896 64 01 83 80 81 7f 00 00 ee 08 00 00 00 cb 75 2a eb f6 ff ed ff 0d 00 2c 00 68 1f 27 05 8f da ee d9 08 80 00 00 00 80 00 00 00 00 09 09 00 00 00 00 00 e7 f3 ee d9 28 08 00 18 74 06 fa f1 8d 98 cc
# ReportID: 1 / X:  131 | Y:  128 | Z:  129 | Rz:  127 | Rx:    0 | Ry:    0 | 0xff000020:  239 | Hat switch:   8 | Button: 0  0  0  0  0  0  0  0  0  0  0  0  0  0  0 | 0xff000021: 0 , 0 , 0 , 0 , 0 , 0 , 0 , 0 , 0 , 0 , 0 , 0 , 0 | 0xff000022:  204 ,  117 ,   42 ,  235 ,  245 ,  255 ,  238 ,  255 ,   10 ,    0 ,   37 ,    0 ,   39 ,   31 ,   32 ,    5 ,  130 ,    9 ,  239 ,  217 ,    8 ,  128 ,    0 ,    0 ,    0 ,  128 ,    0 ,    0 ,    0 ,    0 ,    9 ,    9 ,    0 ,    0 ,    0 ,    0 ,    0 ,  219 ,   34 ,  239 ,  217 ,   40 ,    8 ,    0 ,   37 ,  216 ,  167 ,  164 ,  143 ,   14 ,  106 ,  205 
E: 000000.022290 64 01 83 80 81 7f 00 00 ef 08 00 00 00 cc 75 2a eb f5 ff ee ff 0a 00 25 00 27 1f 20 05 82 09 ef d9 08 80 00 00 00 80 00 00 00 00 09 09 00 00 00 00 00 db 22 ef d9 28 08 00 25 d8 a7 a4 8f 0e 6a cd
# ReportID: 1 / X:  131 | Y:  128 | Z:  129 | Rz:  127 | Rx:    0 | Ry:    0 | 0xff000020:  240 | Hat switch:   8 | Button: 0  0  0  0  0  0  0  0  0  0  0  0  0  0  0 | 0xff000021: 0 , 0 , 0 , 0 , 0 , 0 , 0 , 0 , 0 , 0 , 0 , 0 , 0 | 0xff000022:  205 ,  117 ,   42 ,  235 ,  248 ,  255 ,  238 ,  255 ,   11 ,    0 ,   67 ,    0 ,   27 ,   31 ,   26 ,    5 ,  117 ,   56 ,  239 ,  217 ,    8 ,  128 ,    0 ,    0 ,    0 ,  128 ,    0 ,    0 ,    0 ,    0 ,    9 ,    9 ,    0 ,    0 ,    0 ,    0 ,    0 ,  160 ,   81 ,  239 ,  217 ,   40 ,    8 ,    0 ,   63 ,    7 ,  139 ,   22 ,  244 ,   19 ,  200 ,   29 
E: 000000.025794 64 01 83 80 81 7f 00 00 f0 08 00 00 00 cd 75 2a eb f8 ff ee ff 0b 00 43 00 1b 1f 1a 05 75 38 ef d9 08 80 00 00 00 80 00 00 00 00 09 09 00 00 00 00 00 a0 51 ef d9 28 08 00 3f 07 8b 16 f4 13 c8 1d
# ReportID: 1 / X:  131 | Y:  128 | Z:  129 | Rz:  127 | Rx:    0 | Ry:    0 | 0xff000020:  241 | Hat switch:   8 | Button: 0  0  0  0  0  0  0  0  0  0  0  0  0  0  0 | 0xff000021: 0 , 0 , 0 , 0 , 0 , 0 , 0 , 0 , 0 , 0 , 0 , 0 , 0 | 0xff000022:  206 ,  117 ,   42 ,  235 ,  246 ,  255 ,  239 ,  255 ,   11 ,    0 ,   55 ,    0 ,    2 ,   31 ,   45 ,    5 ,  104 ,  103 ,  239 ,  217 ,    8 ,  128 ,    0 ,    0 ,    0 ,  128 ,    0 ,    0 ,    0 ,    0 ,    9 ,    9 ,    0 ,    0 ,    0 ,    0 ,    0 ,  130 ,  128 ,  239 ,  217 ,   40 ,    8 ,    0 ,  253 ,  137 ,   93 ,  138 ,  109 ,   35 ,   25 ,  248 
E: 000000.030850 64 01 83 80 81 7f 00 00 f1 08 00 00 00 ce 75 2a eb f6 ff ef ff 0b 00 37 00 02 1f 2d 05 68 67 ef d9 08 80 00 00 00 80 00 00 00 00 09 09 00 00 00 00 00 82 80 ef d9 28 08 00 fd 89 5d 8a 6d 23 19 f8
# ReportID: 1 / X:  131 | Y:  128 | Z:  129 | Rz:  127 | Rx:    0 | Ry:    0 | 0xff000020:  242 | Hat switch:   8 | Button: 0  0  0  0  0  0  0  0  0  0  0  0  0  0  0 | 0xff000021: 0 , 0 , 0 , 0 , 0 , 0 , 0 , 0 , 0 , 0 , 0 , 0 , 0 | 0xff000022:  207 ,  117 ,   42 ,  235 ,  248 ,  255 ,  238 ,  255 ,   11 ,    0 ,   52 ,    0 ,   18 ,   31 ,   43 ,    5 ,   91 ,  150 ,  239 ,  217 ,    8 ,  128 ,    0 ,    0 ,    0 ,  128 ,    0 ,    0 ,    0 ,    0 ,    9 ,    9 ,    0 ,    0 ,    0 ,    0 ,    0 ,   89 ,  175 ,  239 ,  217 ,   40 ,    8 ,    0 ,  250 ,  199 ,   83 ,    2 ,   29 ,   75 ,   32 ,   97 
E: 000000.033475 64 01 83 80 81 7f 00 00 f2 08 00 00 00 cf 75 2a eb f8 ff ee ff 0b 00 34 00 12 1f 2b 05 5b 96 ef d9 08 80 00 00 00 80 00 00 00 00 09 09 00 00 00 00 00 59 af ef d9 28 08 00 fa c7 53 02 1d 4b 20 61
# ReportID: 1 / X:  131 | Y:  128 | Z:  129 | Rz:  127 | Rx:    0 | Ry:    0 | 0xff000020:  243 | Hat switch:   8 | Button: 0  0  0  0  0  0  0  0  0  0  0  0  0  0  0 | 0xff000021: 0 , 0 , 0 , 0 , 0 , 0 , 0 , 0 , 0 , 0 , 0 , 0 , 0 | 0xff000022:  208 ,  117 ,   42 ,  235 ,  246 ,  255 ,  239 ,  255 ,   11 ,    0 ,   58 ,    0 ,  143 ,   31 ,   42 ,    5 ,   78 ,  197 ,  239 ,  217 ,    8 ,  128 ,    0 ,    0 ,    0 ,  128 ,    0 ,    0 ,    0 ,    0 ,    9 ,    9 ,    0 ,    0 ,    0 ,    0 ,    0 ,   57 ,  222 ,  239 ,  217 ,   40 ,    8 ,    0 ,  175 ,   48 ,  119 ,   28 ,  183 ,   51 ,  144 ,   93 
E: 000000.037657 64 01 83 80 81 7f 00 00 f3 08 00 00 00 d0 75 2a eb f6 ff ef ff 0b 00 3a 00 8f 1f 2a 05 4e c5 ef d9 08 80 00 00 00 80 00 00 00 00 09 09 00 00 00 00 00 39 de ef d9 28 08 00 af 30 77 1c b7 33 90 5d
# ReportID: 1 / X:  131 | Y:  128 | Z:  129 | Rz:  127 | Rx:    0 | Ry:    0 | 0xff000020:  244 | Hat switch:   8 | Button: 0  0  0  0  0  0  0  0  0  0  0  0  0  0  0 | 0xff000021: 0 , 0 , 0 , 0 , 0 , 0 , 0 , 0 , 0 , 0 , 0 , 0 , 0 | 0xff000022:  209 ,  117 ,   42 ,  235 ,  246 ,  255 ,  238 ,  255 ,   11 ,    0 ,   50 ,    0 ,  193 ,   31 ,   72 ,    5 ,   65 ,  244 ,  239 ,  217 ,    8 ,  128 ,    0 ,    0 ,    0 ,  128 ,    0 ,    0 ,    0 ,    0 ,    9 ,    9 ,    0 ,    0 ,    0 ,    0 ,    0 ,   25 ,   13 ,  240 ,  217 ,   40 ,    8 ,    0 ,   98 ,  223 ,  236 ,  131 ,  175 ,   79 ,   91 ,   39 
E: 000000.042098 64 01 83 80 81 7f 00 00 f4 08 00 00 00 d1 75 2a eb f6 ff ee ff 0b 00 32 00 c1 1f 48 05 41 f4 ef d9 08 80 00 00 00 80 00 00 00 00 09 09 00 00 00 00 00 19 0d f0 d9 28 08 00 62 df ec 83 af 4f 5b 27
# ReportID: 1 / X:  131 | Y:  128 | Z:  129 | Rz:  127 | Rx:    0 | Ry:    0 | 0xff000020:  245 | Hat switch:   8 | Button: 0  0  0  0  0  0  0  0  0  0  0  0  0  0  0 | 0xff000021: 0 , 0 , 0 , 0 , 0 , 0 , 0 , 0 , 0 , 0 , 0 , 0 , 0 | 0xff000022:  210 ,  117 ,   42 ,  235 ,  246 ,  255 ,  238 ,  255 ,   11 ,    0 ,   45 ,    0 ,   83 ,   31 ,   55 ,    5 ,   52 ,   35 ,  240 ,  217 ,    8 ,  128 ,    0 ,    0 ,    0 ,  128 ,    0 ,    0 ,    0 ,    0 ,    9 ,    9 ,    0 ,    0 ,    0 ,    0 ,    0 ,  249 ,   59 ,  240 ,  217 ,   40 ,    8 ,    0 ,  162 ,   71 ,  148 ,  219 ,   27 ,  107 ,  197 ,  164 
E: 000000.046681 64 01 83 80 81 7f 00 00 f5 08 00 00 00 d2 75 2a eb f6 ff ee ff 0b 00 2d 00 53 1f 37 05 34 23 f0 d9 08 80 00 00 00 80 00 00 00 00 09 09 00 00 00 00 00 f9 3b f0 d9 28 08 00 a2 47 94 db 1b 6b c5 a4
# ReportID: 1 / X:  131 | Y:  128 | Z:  130 | Rz:  127 | Rx:    0 | Ry:    0 | 0xff000020:  246 | Hat switch:   8 | Button: 0  0  0  0  0  0  0  0  0  0  0  0  0  0  0 | 0xff000021: 0 , 0 , 0 , 0 , 0 , 0 , 0 , 0 , 0 , 0 , 0 , 0 , 0 | 0xff000022:  211 ,  117 ,   42 ,  235 ,  247 ,  255 ,  238 ,  255 ,   11 ,    0 ,   46 ,    0 ,   62 ,   31 ,   67 ,    5 ,   39 ,   82 ,  240 ,  217 ,    8 ,  128 ,    0 ,    0 ,    0 ,  128 ,    0 ,    0 ,    0 ,    0 ,    9 ,    9 ,    0 ,    0 ,    0 ,    0 ,    0 ,  217 ,  106 ,  240 ,  217 ,   40 ,    8 ,    0 ,   72 ,   16 ,  235 ,  197 ,  239 ,   26 ,   45 ,   98 
E: 000000.049780 64 01 83 80 82 7f 00 00 f6 08 00 00 00 d3 75 2a eb f7 ff ee ff 0b 00 2e 00 3e 1f 43 05 27 52 f0 d9 08 80 00 00 00 80 00 00 00 00 09 09 00 00 00 00 00 d9 6a f0 d9 28 08 00 48 10 eb c5 ef 1a 2d 62
# ReportID: 1 / X:  131 | Y:  128 | Z:  129 | Rz:  127 | Rx:    0 | Ry:    0 | 0xff000020:  247 | Hat switch:   8 | Button: 0  0  0  0  0  0  0  0  0  0  0  0  0  0  0 | 0xff000021: 0 , 0 , 0 , 0 , 0 , 0 , 0 , 0 , 0 , 0 , 0 , 0 , 0 | 0xff000022:  212 ,  117 ,   42 ,  235 ,  247 ,  255 ,  238 ,  255 ,   10 ,    0 ,   47 ,    0 ,   27 ,   31 ,   52 ,    5 ,   27 ,  129 ,  240 ,  217 ,    8 ,  128 ,    0 ,    0 ,    0 ,  128 ,    0 ,    0 ,    0 ,    0 ,    9 ,    9 ,    0 ,    0 ,    0 ,    0 ,    0 ,  185 ,  153 ,  240 ,  217 ,   40 ,    8 ,    0 ,   68 ,  255 ,   23 ,  186 ,  136 ,  227 ,   32 ,  204 
E: 000000.053785 64 01 83 80 81 7f 00 00 f7 08 00 00 00 d4 75 2a eb f7 ff ee ff 0a 00 2f 00 1b 1f 34 05 1b 81 f0 d9 08 80 00 00 00 80 00 00 00 00 09 09 00 00 00 00 00 b9 99 f0 d9 28 08 00 44 ff 17 ba 88 e3 20 cc
# ReportID: 1 / X:  131 | Y:  128 | Z:  129 | Rz:  127 | Rx:    0 | Ry:    0 | 0xff000020:  248 | Hat switch:   8 | Button: 0  0  0  0  0  0  0  0  0  0  0  0  0  0  0 | 0xff000021: 0 , 0 , 0 , 0 , 0 , 0 , 0 , 0 , 0 , 0 , 0 , 0 , 0 | 0xff000022:  213 ,  117 ,   42 ,  235 ,  248 ,  255 ,  238 ,  255 ,   11 ,    0 ,   45 ,    0 ,   70 ,   31 ,   75 ,    5 ,   14 ,  176 ,  240 ,  217 ,    8 ,  128 ,    0 ,    0 ,    0 ,  128 ,    0 ,    0 ,    0 ,    0 ,    9 ,    9 ,    0 ,    0 ,    0 ,    0 ,    0 ,  153 ,  200 ,  240 ,  217 ,   40 ,    8 ,    0 ,  197 ,  236 ,   63 ,  105 ,   35 ,   52 ,   42 ,   91 
E: 000000.059236 64 01 83 80 81 7f 00 00 f8 08 00 00 00 d5 75 2a eb f8 ff ee ff 0b 00 2d 00 46 1f 4b 05 0e b0 f0 d9 08 80 00 00 00 80 00 00 00 00 09 09 00 00 00 00 00 99 c8 f0 d9 28 08 00 c5 ec 3f 69 23 34 2a 5b
# ReportID: 1 / X:  131 | Y:  128 | Z:  129 | Rz:  127 | Rx:    0 | Ry:    0 | 0xff000020:  249 | Hat switch:   8 | Button: 0  0  0  0  0  0  0  0  0  0  0  0  0  0  0 | 0xff000021: 0 , 0 , 0 , 0 , 0 , 0 , 0 , 0 , 0 , 0 , 0 , 0 , 0 | 0xff000022:  214 ,  117 ,   42 ,  235 ,  248 ,  255 ,  238 ,  255 ,   11 ,    0 ,   46 ,    0 ,   77 ,   31 ,   56 ,    5 ,    1 ,  223 ,  240 ,  217 ,    8 ,  128 ,    0 ,    0 ,    0 ,  128 ,    0 ,    0 ,    0 ,    0 ,    9 ,    9 ,    0 ,    0 ,    0 ,    0 ,    0 ,  121 ,  247 ,  240 ,  217 ,   40 ,    8 ,    0 ,   53 ,  212 ,  106 ,  102 ,   20 ,  194 ,  143 ,   92 
E: 000000.062908 64 01 83 80 81 7f 00 00 f9 08 00 00 00 d6 75 2a eb f8 ff ee ff 0b 00 2e 00 4d 1f 38 05 01 df f0 d9 08 80 00 00 00 80 00 00 00 00 09 09 00 00 00 00 00 79 f7 f0 d9 28 08 00 35 d4 6a 66 14 c2 8f 5c
# ReportID: 1 / X:  131 | Y:  128 | Z:  129 | Rz:  127 | Rx:    0 | Ry:    0 | 0xff000020:  250 | Hat switch:   8 | Button: 0  0  0  0  0  0  0  0  0  0  0  0  0  0  0 | 0xff000021: 0 , 0 , 0 , 0 , 0 , 0 , 0 , 0 , 0 , 0 , 0 , 0 , 0 | 0xff000022:  215 ,  117 ,   42 ,  235 ,  246 ,  255 ,  238 ,  255 ,   11 ,    0 ,   38 ,    0 ,  160 ,   31 ,   79 ,    5 ,  244 ,   13 ,  241 ,  217 ,    8 ,  128 ,    0 ,    0 ,    0 ,  128 ,    0 ,    0 ,    0 ,    0 ,    9 ,    9 ,    0 ,    0 ,    0 ,    0 ,    0 ,   89 ,   38 ,  241 ,  217 ,   40 ,    8 ,    0 ,   90 ,  131 ,   97 ,   89 ,  232 ,   63 ,   22 ,   74 
E: 000000.065583 64 01 83 80 81 7f 00 00 fa 08 00 00 00 d7 75 2a eb f6 ff ee ff 0b 00 26 00 a0 1f 4f 05 f4 0d f1 d9 08 80 00 00 00 80 00 00 00 00 09 09 00 00 00 00 00 59 26 f1 d9 28 08 00 5a 83 61 59 e8 3f 16 4a
# ReportID: 1 / X:  131 | Y:  128 | Z:  129 | Rz:  127 | Rx:    0 | Ry:    0 | 0xff000020:  251 | Hat switch:   8 | Button: 0  0  0  0  0  0  0  0  0  0  0  0  0  0  0 | 0xff000021: 0 , 0 , 0 , 0 , 0 , 0 , 0 , 0 , 0 , 0 , 0 , 0 , 0 | 0xff000022:  216 ,  117 ,   42 ,  235 ,  246 ,  255 ,  238 ,  255 ,   11 ,    0 ,   51 ,    0 ,  106 ,   31 ,   63 ,    5 ,  231 ,   60 ,  241 ,  217 ,    8 ,  128 ,    0 ,    0 ,    0 ,  128 ,    0 ,    0 ,    0 ,    0 ,    9 ,    9 ,    0 ,    0 ,    0 ,    0 ,    0 ,   57 ,   85 ,  241 ,  217 ,   40 ,    8 ,    0 ,  153 ,  201 ,  184 ,  235 ,  153 ,  127 ,  104 ,  157 
E: 000000.071308 64 01 83 80 81 7f 00 00 fb 08 00 00 00 d8 75 2a eb f6 ff ee ff 0b 00 33 00 6a 1f 3f 05 e7 3c f1 d9 08 80 00 00 00 80 00 00 00 00 09 09 00 00 00 00 00 39 55 f1 d9 28 08 00 99 c9 b8 eb 99 7f 68 9d
# ReportID: 1 / X:  131 | Y:  128 | Z:  130 | Rz:  127 | Rx:    0 | Ry:    0 | 0xff000020:  252 | Hat switch:   8 | Button: 0  0  0  0  0  0  0  0  0  0  0  0  0  0  0 | 0xff000021: 0 , 0 , 0 , 0 , 0 , 0 , 0 , 0 , 0 , 0 , 0 , 0 , 0 | 0xff000022:  217 ,  117 ,   42 ,  235 ,  246 ,  255 ,  239 ,  255 ,   11 ,    0 ,   53 ,    0 ,   53 ,   31 ,   72 ,    5 ,  218 ,  107 ,  241 ,  217 ,    8 ,  128 ,    0 ,    0 ,    0 ,  128 ,    0 ,    0 ,    0 ,    0 ,    9 ,    9 ,    0 ,    0 ,    0 ,    0 ,    0 ,   25 ,  132 ,  241 ,  217 ,   40 ,    8 ,    0 ,  211 ,   46 ,  170 ,  202 ,  249 ,   75 ,  131 ,  157 
E: 000000.074328 64 01 83 80 82 7f 00 00 fc 08 00 00 00 d9 75 2a eb f6 ff ef ff 0b 00 35 00 35 1f 48 05 da 6b f1 d9 08 80 00 00 00 80 00 00 00 00 09 09 00 00 00 00 00 19 84 f1 d9 28 08 00 d3 2e aa ca f9 4b 83 9d
# ReportID: 1 / X:  131 | Y:  128 | Z:  129 | Rz:  127 | Rx:    0 | Ry:    0 | 0xff000020:  253 | Hat switch:   8 | Button: 0  0  0  0  0  0  0  0  0  0  0  0  0  0  0 | 0xff000021: 0 , 0 , 0 , 0 , 0 , 0 , 0 , 0 , 0 , 0 , 0 , 0 , 0 | 0xff000022:  218 ,  117 ,   42 ,  235 ,  246 ,  255 ,  239 ,  255 ,   11 ,    0 ,   43 ,    0 ,  193 ,   30 ,   21 ,    5 ,  205 ,  154 ,  241 ,  217 ,    8 ,  128 ,    0 ,    0 ,    0 ,  128 ,    0 ,    0 ,    0 ,    0 ,    9 ,    9 ,    0 ,    0 ,    0 ,    0 ,    0 ,  249 ,  178 ,  241 ,  217 ,   40 ,    8 ,    0 ,   28 ,  111 ,  188 ,   53 ,   87 ,   78 ,   70 ,   22 
E: 000000.077803 64 01 83 80 81 7f 00 00 fd 08 00 00 00 da 75 2a eb f6 ff ef ff 0b 00 2b 00 c1 1e 15 05 cd 9a f1 d9 08 80 00 00 00 80 00 00 00 00 09 09 00 00 00 00 00 f9 b2 f1 d9 28 08 00 1c 6f bc 35 57 4e 46 16
# ReportID: 1 / X:  131 | Y:  128 | Z:  129 | Rz:  127 | Rx:    0 | Ry:    0 | 0xff000020:  254 | Hat switch:   8 | Button: 0  0  0  0  0  0  0  0  0  0  0  0  0  0  0 | 0xff000021: 0 , 0 , 0 , 0 , 0 , 0 , 0 , 0 , 0 , 0 , 0 , 0 , 0 | 0xff000022:  219 ,  117 ,   42 ,  235 ,  247 ,  255 ,  238 ,  255 ,    9 ,    0 ,   49 ,    0 ,  143 ,   31 ,  109 ,    5 ,  192 ,  201 ,  241 ,  217 ,    8 ,  128 ,    0 ,    0 ,    0 ,  128 ,    0 ,    0 ,    0 ,    0 ,    9 ,    9 ,    0 ,    0 ,    0 ,    0 ,    0 ,  217 ,  225 ,  241 ,  217 ,   40 ,    8 ,    0 ,  118 ,   29 ,  170 ,   27 ,   56 ,  183 ,   64 ,  176 
E: 000000.081726 64 01 83 80 81 7f 00 00 fe 08 00 00 00 db 75 2a eb f7 ff ee ff 09 00 31 00 8f 1f 6d 05 c0 c9 f1 d9 08 80 00 00 00 80 00 00 00 00 09 09 00 00 00 00 00 d9 e1 f1 d9 28 08 00 76 1d aa 1b 38 b7 40 b0
# ReportID: 1 / X:  131 | Y:  128 | Z:  129 | Rz:  127 | Rx:    0 | Ry:    0 | 0xff000020:  255 | Hat switch:   8 | Button: 0  0  0  0  0  0  0  0  0  0  0  0  0  0  0 | 0xff000021: 0 , 0 , 0 , 0 , 0 , 0 , 0 , 0 , 0 , 0 , 0 , 0 , 0 | 0xff000022:  220 ,  117 ,   42 ,  235 ,  251 ,  255 ,  237 ,  255 ,   12 ,    0 ,   63 ,    0 ,   60 ,   31 ,   37 ,    5 ,  180 ,  248 ,  241 ,  217 ,    8 ,  128 ,    0 ,    0 ,    0 ,  128 ,    0 ,    0 ,    0 ,    0 ,    9 ,    9 ,    0 ,    0 ,    0 ,    0 ,    0 ,  185 ,   16 ,  242 ,  217 ,   40 ,    8 ,    0 ,  196 ,   20 ,  206 ,  215 ,  177 ,   31 ,   54 ,  243 
E: 000000.086415 64 01 83 80 81 7f 00 00 ff 08 00 00 00 dc 75 2a eb fb ff ed ff 0c 00 3f 00 3c 1f 25 05 b4 f8 f1 d9 08 80 00 00 00 80 00 00 00 00 09 09 00 00 00 00 00 b9 10 f2 d9 28 08 00 c4 14 ce d7 b1 1f 36 f3
# ReportID: 1 / X:  131 | Y:  128 | Z:  129 | Rz:  127 | Rx:    0 | Ry:    0 | 0xff000020:    0 | Hat switch:   8 | Button: 0  0  0  0  0  0  0  0  0  0  0  0  0  0  0 | 0xff000021: 0 , 0 , 0 , 0 , 0 , 0 , 0 , 0 , 0 , 0 , 0 , 0 , 0 | 0xff000022:  221 ,  117 ,   42 ,  235 ,  246 ,  255 ,  239 ,  255 ,   11 ,    0 ,   40 ,    0 ,  101 ,   31 ,   81 ,    5 ,  167 ,   39 ,  242 ,  217 ,    8 ,  128 ,    0 ,    0 ,    0 ,  128 ,    0 ,    0 ,    0 ,    0 ,    9 ,    9 ,    0 ,    0 ,    0 ,    0 ,    0 ,  153 ,   63 ,  242 ,  217 ,   40 ,    8 ,    0 ,   18 ,  237 ,  184 ,   14 ,   51 ,    1 ,   50 ,    7 
E: 000000.089877 64 01 83 80 81 7f 00 00 00 08 00 00 00 dd 75 2a eb f6 ff ef ff 0b 00 28 00 65 1f 51 05 a7 27 f2 d9 08 80 00 00 00 80 00 00 00 00 09 09 00 00 00 00 00 99 3f f2 d9 28 08 00 12 ed b8 0e 33 01 32 07
# ReportID: 1 / X:  131 | Y:  128 | Z:  129 | Rz:  127 | Rx:    0 | Ry:    0 | 0xff000020:    1 | Hat switch:   8 | Button: 0  0  0  0  0  0  0  0  0  0  0  0  0  0  0 | 0xff000021: 0 , 0 , 0 , 0 , 0 , 0 , 0 , 0 , 0 , 0 , 0 , 0 , 0 | 0xff000022:  222 ,  117 ,   42 ,  235 ,  249 ,  255 ,  238 ,  255 ,   11 ,    0 ,   45 ,    0 ,   89 ,   31 ,   51 ,    5 ,  154 ,   86 ,  242 ,  217 ,    8 ,  128 ,    0 ,    0 ,    0 ,  128 ,    0 ,    0 ,    0 ,    0 ,    9 ,    9 ,    0 ,    0 ,    0 ,    0 ,    0 ,  121 ,  110 ,  242 ,  217 ,   40 ,    8 ,    0 ,  250 ,  198 ,  213 ,  174 ,  235 ,  194 ,  194 ,  215 
E: 000000.093598 64 01 83 80 81 7f 00 00 01 08 00 00 00 de 75 2a eb f9 ff ee ff 0b 00 2d 00 59 1f 33 05 9a 56 f2 d9 08 80 00 00 00 80 00 00 00 00 09 09 00 00 00 00 00 79 6e f2 d9 28 08 00 fa c6 d5 ae eb c2 c2 d7
# ReportID: 1 / X:  131 | Y:  128 | Z:  129 | Rz:  127 | Rx:    0 | Ry:    0 | 0xff000020:    2 | Hat switch:   8 | Button: 0  0  0  0  0  0  0  0  0  0  0  0  0  0  0 | 0xff000021: 0 , 0 , 0 , 0 , 0 , 0 , 0 , 0 , 0 , 0 , 0 , 0 , 0 | 0xff000022:  223 ,  117 ,   42 ,  235 ,  246 ,  255 ,  239 ,  255 ,   11 ,    0 ,   49 ,    0 ,  122 ,   31 ,   75 ,    5 ,  141 ,  133 ,  242 ,  217 ,    8 ,  128 ,    0 ,    0 ,    0 ,  128 ,    0 ,    0 ,    0 ,    0 ,    9 ,    9 ,    0 ,    0 ,    0 ,    0 ,    0 ,   99 ,  157 ,  242 ,  217 ,   40 ,    8 ,    0 ,  156 ,  231 ,   82 ,  117 ,  137 ,  119 ,  110 ,   81 
E: 000000.097564 64 01 83 80 81 7f 00 00 02 08 00 00 00 df 75 2a eb f6 ff ef ff 0b 00 31 00 7a 1f 4b 05 8d 85 f2 d9 08 80 00 00 00 80 00 00 00 00 09 09 00 00 00 00 00 63 9d f2 d9 28 08 00 9c e7 52 75 89 77 6e 51
# ReportID: 1 / X:  131 | Y:  128 | Z:  130 | Rz:  127 | Rx:    0 | Ry:    0 | 0xff000020:    3 | Hat switch:   8 | Button: 0  0  0  0  0  0  0  0  0  0  0  0  0  0  0 | 0xff000021: 0 , 0 , 0 , 0 , 0 , 0 , 0 , 0 , 0 , 0 , 0 , 0 , 0 | 0xff000022:  224 ,  117 ,   42 ,  235 ,  249 ,  255 ,  238 ,  255 ,   12 ,    0 ,   55 ,    0 ,   73 ,   31 ,   45 ,    5 ,  128 ,  180 ,  242 ,  217 ,    8 ,  128 ,    0 ,    0 ,    0 ,  128 ,    0 ,    0 ,    0 ,    0 ,    9 ,    9 ,    0 ,    0 ,    0 ,    0 ,    0 ,   82 ,  204 ,  242 ,  217 ,   40 ,    8 ,    0 ,  105 ,   97 ,  152 ,   37 ,  240 ,  121 ,  183 ,   65 
E: 000000.102635 64 01 83 80 82 7f 00 00 03 08 00 00 00 e0 75 2a eb f9 ff ee ff 0c 00 37 00 49 1f 2d 05 80 b4 f2 d9 08 80 00 00 00 80 00 00 00 00 09 09 00 00 00 00 00 52 cc f2 d9 28 08 00 69 61 98 25 f0 79 b7 41
# ReportID: 1 / X:  131 | Y:  128 | Z:  129 | Rz:  127 | Rx:    0 | Ry:    0 | 0xff000020:    4 | Hat switch:   8 | Button: 0  0  0  0  0  0  0  0  0  0  0  0  0  0  0 | 0xff000021: 0 , 0 , 0 , 0 , 0 , 0 , 0 , 0 , 0 , 0 , 0 , 0 , 0 | 0xff000022:  225 ,  117 ,   42 ,  235 ,  245 ,  255 ,  239 ,  255 ,   10 ,    0 ,   55 ,    0 ,   60 ,   31 ,   44 ,    5 ,  115 ,  227 ,  242 ,  217 ,    8 ,  128 ,    0 ,    0 ,    0 ,  128 ,    0 ,    0 ,    0 ,    0 ,    9 ,    9 ,    0 ,    0 ,    0 ,    0 ,    0 ,   32 ,  251 ,  242 ,  217 ,   40 ,    8 ,    0 ,  110 ,  234 ,  181 ,  191 ,  169 ,  170 ,  243 ,  178 
E: 000000.106279 64 01 83 80 81 7f 00 00 04 08 00 00 00 e1 75 2a eb f5 ff ef ff 0a 00 37 00 3c 1f 2c 05 73 e3 f2 d9 08 80 00 00 00 80 00 00 00 00 09 09 00 00 00 00 00 20 fb f2 d9 28 08 00 6e ea b5 bf a9 aa f3 b2
# ReportID: 1 / X:  131 | Y:  128 | Z:  129 | Rz:  127 | Rx:    0 | Ry:    0 | 0xff000020:    5 | Hat switch:   8 | Button: 0  0  0  0  0  0  0  0  0  0  0  0  0  0  0 | 0xff000021: 0 , 0 , 0 , 0 , 0 , 0 , 0 , 0 , 0 , 0 , 0 , 0 , 0 | 0xff000022:  226 ,  117 ,   42 ,  235 ,  249 ,  255 ,  237 ,  255 ,   12 ,    0 ,   56 ,    0 ,  105 ,   31 ,   45 ,    5 ,  104 ,   18 ,  243 ,  217 ,    8 ,  128 ,    0 ,    0 ,    0 ,  128 ,    0 ,    0 ,    0 ,    0 ,    9 ,    9 ,    0 ,    0 ,    0 ,    0 ,    0 ,    2 ,   42 ,  243 ,  217 ,   40 ,    8 ,    0 ,   78 ,  132 ,    8 ,   16 ,   52 ,   67 ,  193 ,   94 
E: 000000.109804 64 01 83 80 81 7f 00 00 05 08 00 00 00 e2 75 2a eb f9 ff ed ff 0c 00 38 00 69 1f 2d 05 68 12 f3 d9 08 80 00 00 00 80 00 00 00 00 09 09 00 00 00 00 00 02 2a f3 d9 28 08 00 4e 84 08 10 34 43 c1 5e
# ReportID: 1 / X:  131 | Y:  128 | Z:  129 | Rz:  127 | Rx:    0 | Ry:    0 | 0xff000020:    6 | Hat switch:   8 | Button: 0  0  0  0  0  0  0  0  0  0  0  0  0  0  0 | 0xff000021: 0 , 0 , 0 , 0 , 0 , 0 , 0 , 0 , 0 , 0 , 0 , 0 , 0 | 0xff000022:  227 ,  117 ,   42 ,  235 ,  247 ,  255 ,  238 ,  255 ,   10 ,    0 ,   55 ,    0 ,   39 ,   31 ,   27 ,    5 ,   92 ,   65 ,  243 ,  217 ,    8 ,  128 ,    0 ,    0 ,    0 ,  128 ,    0 ,    0 ,    0 ,    0 ,    9 ,    9 ,    0 ,    0 ,    0 ,    0 ,    0 ,  226 ,   88 ,  243 ,  217 ,   40 ,    8 ,    0 ,  182 ,  234 ,   32 ,    6 ,  252 ,  190 ,   22 ,   78 
E: 000000.113586 64 01 83 80 81 7f 00 00 06 08 00 00 00 e3 75 2a eb f7 ff ee ff 0a 00 37 00 27 1f 1b 05 5c 41 f3 d9 08 80 00 00 00 80 00 00 00 00 09 09 00 00 00 00 00 e2 58 f3 d9 28 08 00 b6 ea 20 06 fc be 16 4e
# ReportID: 1 / X:  131 | Y:  128 | Z:  129 | Rz:  127 | Rx:    0 | Ry:    0 | 0xff000020:    7 | Hat switch:   8 | Button: 0  0  0  0  0  0  0  0  0  0  0  0  0  0  0 | 0xff000021: 0 , 0 , 0 , 0 , 0 , 0 , 0 , 0 , 0 , 0 , 0 , 0 , 0 | 0xff000022:  228 ,  117 ,   42 ,  235 ,  248 ,  255 ,  238 ,  255 ,   10 ,    0 ,   56 ,    0 ,  126 ,   31 ,   53 ,    5 ,   78 ,  112 ,  243 ,  217 ,    8 ,  128 ,    0 ,    0 ,    0 ,  128 ,    0 ,    0 ,    0 ,    0 ,    9 ,    9 ,    0 ,    0 ,    0 ,    0 ,    0 ,  185 ,  135 ,  243 ,  217 ,   40 ,    8 ,    0 ,  112 ,   72 ,  120 ,  220 ,   77 ,  226 ,  157 ,   56 
E: 000000.117588 64 01 83 80 81 7f 00 00 07 08 00 00 00 e4 75 2a eb f8 ff ee ff 0a 00 38 00 7e 1f 35 05 4e 70 f3 d9 08 80 00 00 00 80 00 00 00 00 09 09 00 00 00 00 00 b9 87 f3 d9 28 08 00 70 48 78 dc 4d e2 9d 38
# ReportID: 1 / X:  131 | Y:  128 | Z:  129 | Rz:  127 | Rx:    0 | Ry:    0 | 0xff000020:    8 | Hat switch:   8 | Button: 0  0  0  0  0  0  0  0  0  0  0  0  0  0  0 | 0xff000021: 0 , 0 , 0 , 0 , 0 , 0 , 0 , 0 , 0 , 0 , 0 , 0 , 0 | 0xff000022:  229 ,  117 ,   42 ,  235 ,  245 ,  255 ,  239 ,  255 ,   11 ,    0 ,   59 ,    0 ,  110 ,   31 ,   40 ,    5 ,   65 ,  159 ,  243 ,  217 ,    8 ,  128 ,    0 ,    0 ,    0 ,  128 ,    0 ,    0 ,    0 ,    0 ,    9 ,    9 ,    0 ,    0 ,    0 ,    0 ,    0 ,  153 ,  182 ,  243 ,  217 ,   40 ,    8 ,    0 ,  131 ,    6 ,  153 ,  109 ,   65 ,  139 ,   36 ,   30 
E: 000000.122803 64 01 83 80 81 7f 00 00 08 08 00 00 00 e5 75 2a eb f5 ff ef ff 0b 00 3b 00 6e 1f 28 05 41 9f f3 d9 08 80 00 00 00 80 00 00 00 00 09 09 00 00 00 00 00 99 b6 f3 d9 28 08 00 83 06 99 6d 41 8b 24 1e
# ReportID: 1 / X:  131 | Y:  128 | Z:  129 | Rz:  127 | Rx:    0 | Ry:    0 | 0xff000020:    9 | Hat switch:   8 | Button: 0  0  0  0  0  0  0  0  0  0  0  0  0  0  0 | 0xff000021: 0 , 0 , 0 , 0 , 0 , 0 , 0 , 0 , 0 , 0 , 0 , 0 , 0 | 0xff000022:  230 ,  117 ,   42 ,  235 ,  248 ,  255 ,  237 ,  255 ,   12 ,    0 ,   41 ,    0 ,  118 ,   31 ,   61 ,    5 ,   51 ,  206 ,  243 ,  217 ,    8 ,  128 ,    0 ,    0 ,    0 ,  128 ,    0 ,    0 ,    0 ,    0 ,    9 ,    9 ,    0 ,    0 ,    0 ,    0 ,    0 ,  121 ,  229 ,  243 ,  217 ,   40 ,    8 ,    0 ,   55 ,  211 ,   44 ,  223 ,   53 ,  233 ,  195 ,  114 
E: 000000.126546 64 01 83 80 81 7f 00 00 09 08 00 00 00 e6 75 2a eb f8 ff ed ff 0c 00 29 00 76 1f 3d 05 33 ce f3 d9 08 80 00 00 00 80 00 00 00 00 09 09 00 00 00 00 00 79 e5 f3 d9 28 08 00 37 d3 2c df 35 e9 c3 72
# ReportID: 1 / X:  131 | Y:  128 | Z:  129 | Rz:  127 | Rx:    0 | Ry:    0 | 0xff000020:   10 | Hat switch:   8 | Button: 0  0  0  0  0  0  0  0  0  0  0  0  0  0  0 | 0xff000021: 0 , 0 , 0 , 0 , 0 , 0 , 0 , 0 , 0 , 0 , 0 , 0 , 0 | 0xff000022:  231 ,  117 ,   42 ,  235 ,  246 ,  255 ,  238 ,  255 ,    9 ,    0 ,   59 ,    0 ,   46 ,   31 ,   20 ,    5 ,   40 ,  253 ,  243 ,  217 ,    8 ,  128 ,    0 ,    0 ,    0 ,  128 ,    0 ,    0 ,    0 ,    0 ,    9 ,    9 ,    0 ,    0 ,    0 ,    0 ,    0 ,   89 ,   20 ,  244 ,  217 ,   40 ,    8 ,    0 ,  172 ,   86 ,   46 ,  133 ,  129 ,   96 ,  115 ,  154 
E: 000000.129635 64 01 83 80 81 7f 00 00 0a 08 00 00 00 e7 75 2a eb f6 ff ee ff 09 00 3b 00 2e 1f 14 05 28 fd f3 d9 08 80 00 00 00 80 00 00 00 00 09 09 00 00 00 00 00 59 14 f4 d9 28 08 00 ac 56 2e 85 81 60 73 9a
# ReportID: 1 / X:  131 | Y:  128 | Z:  129 | Rz:  127 | Rx:    0 | Ry:    0 | 0xff000020:   11 | Hat switch:   8 | Button: 0  0  0  0  0  0  0  0  0  0  0  0  0  0  0 | 0xff000021: 0 , 0 , 0 , 0 , 0 , 0 , 0 , 0 , 0 , 0 , 0 , 0 , 0 | 0xff000022:  232 ,  117 ,   42 ,  235 ,  246 ,  255 ,  238 ,  255 ,   11 ,    0 ,   49 ,    0 ,   66 ,   31 ,   45 ,    5 ,   27 ,   44 ,  244 ,  217 ,    8 ,  128 ,    0 ,    0 ,    0 ,  128 ,    0 ,    0 ,    0 ,    0 ,    9 ,    9 ,    0 ,    0 ,    0 ,    0 ,    0 ,   57 ,   67 ,  244 ,  217 ,   40 ,    8 ,    0 ,  253 ,  104 ,  119 ,    5 ,  220 ,  249 ,   56 ,   21 
E: 000000.135422 64 01 83 80 81 7f 00 00 0b 08 00 00 00 e8 75 2a eb f6 ff ee ff 0b 00 31 00 42 1f 2d 05 1b 2c f4 d9 08 80 00 00 00 80 00 00 00 00 09 09 00 00 00 00 00 39 43 f4 d9 28 08 00 fd 68 77 05 dc f9 38 15
# ReportID: 1 / X:  131 | Y:  128 | Z:  129 | Rz:  127 | Rx:    0 | Ry:    0 | 0xff000020:   12 | Hat switch:   8 | Button: 0  0  0  0  0  0  0  0  0  0  0  0  0  0  0 | 0xff000021: 0 , 0 , 0 , 0 , 0 , 0 , 0 , 0 , 0 , 0 , 0 , 0 , 0 | 0xff000022:  233 ,  117 ,   42 ,  235 ,  247 ,  255 ,  238 ,  255 ,   11 ,    0 ,   56 ,    0 ,   77 ,   31 ,   52 ,    5 ,   15 ,   91 ,  244 ,  217 ,    8 ,  128 ,    0 ,    0 ,    0 ,  128 ,    0 ,    0 ,    0 ,    0 ,    9 ,    9 ,    0 ,    0 ,    0 ,    0 ,    0 ,   25 ,  114 ,  244 ,  217 ,   40 ,    8 ,    0 ,  147 ,   32 ,   91 ,  194 ,  213 ,  189 ,   96 ,  103 
E: 000000.138706 64 01 83 80 81 7f 00 00 0c 08 00 00 00 e9 75 2a eb f7 ff ee ff 0b 00 38 00 4d 1f 34 05 0f 5b f4 d9 08 80 00 00 00 80 00 00 00 00 09 09 00 00 00 00 00 19 72 f4 d9 28 08 00 93 20 5b c2 d5 bd 60 67
# ReportID: 1 / X:  131 | Y:  128 | Z:  129 | Rz:  127 | Rx:    0 | Ry:    0 | 0xff000020:   13 | Hat switch:   8 | Button: 0  0  0  0  0  0  0  0  0  0  0  0  0  0  0 | 0xff000021: 0 , 0 , 0 , 0 , 0 , 0 , 0 , 0 , 0 , 0 , 0 , 0 , 0 | 0xff000022:  234 ,  117 ,   42 ,  235 ,  248 ,  255 ,  238 ,  255 ,   10 ,    0 ,   63 ,    0 ,   81 ,   31 ,   40 ,    5 ,    2 ,  138 ,  244 ,  217 ,    8 ,  128 ,    0 ,    0 ,    0 ,  128 ,    0 ,    0 ,    0 ,    0 ,    9 ,    9 ,    0 ,    0 ,    0 ,    0 ,    0 ,  249 ,  160 ,  244 ,  217 ,   40 ,    8 ,    0 ,  161 ,   86 ,  171 ,  141 ,   55 ,   65 ,   41 ,   42 
E: 000000.142366 64 01 83 80 81 7f 00 00 0d 08 00 00 00 ea 75 2a eb f8 ff ee ff 0a 00 3f 00 51 1f 28 05 02 8a f4 d9 08 80 00 00 00 80 00 00 00 00 09 09 00 00 00 00 00 f9 a0 f4 d9 28 08 00 a1 56 ab 8d 37 41 29 2a
# ReportID: 1 / X:  131 | Y:  128 | Z:  130 | Rz:  127 | Rx:    0 | Ry:    0 | 0xff000020:   14 | Hat switch:   8 | Button: 0  0  0  0  0  0  0  0  0  0  0  0  0  0  0 | 0xff000021: 0 , 0 , 0 , 0 , 0 , 0 , 0 , 0 , 0 , 0 , 0 , 0 , 0 | 0xff000022:  235 ,  117 ,   42 ,  235 ,  246 ,  255 ,  238 ,  255 ,   11 ,    0 ,   51 ,    0 ,  154 ,   31 ,   71 ,    5 ,  242 ,  184 ,  244 ,  217 ,    8 ,  128 ,    0 ,    0 ,    0 ,  128 ,    0 ,    0 ,    0 ,    0 ,    9 ,    9 ,    0 ,    0 ,    0 ,    0 ,    0 ,  217 ,  207 ,  244 ,  217 ,   40 ,    8 ,    0 ,   13 ,  163 ,   69 ,  120 ,  228 ,   30 ,  137 ,   26 
E: 000000.145658 64 01 83 80 82 7f 00 00 0e 08 00 00 00 eb 75 2a eb f6 ff ee ff 0b 00 33 00 9a 1f 47 05 f2 b8 f4 d9 08 80 00 00 00 80 00 00 00 00 09 09 00 00 00 00 00 d9 cf f4 d9 28 08 00 0d a3 45 78 e4 1e 89 1a
# ReportID: 1 / X:  131 | Y:  128 | Z:  129 | Rz:  127 | Rx:    0 | Ry:    0 | 0xff000020:   15 | Hat switch:   8 | Button: 0  0  0  0  0  0  0  0  0  0  0  0  0  0  0 | 0xff000021: 0 , 0 , 0 , 0 , 0 , 0 , 0 , 0 , 0 , 0 , 0 , 0 , 0 | 0xff000022:  236 ,  117 ,   42 ,  235 ,  245 ,  255 ,  238 ,  255 ,   11 ,    0 ,   65 ,    0 ,   95 ,   31 ,   45 ,    5 ,  229 ,  231 ,  244 ,  217 ,    8 ,  128 ,    0 ,    0 ,    0 ,  128 ,    0 ,    0 ,    0 ,    0 ,    9 ,    9 ,    0 ,    0 ,    0 ,    0 ,    0 ,  185 ,  254 ,  244 ,  217 ,   40 ,    8 ,    0 ,  232 ,  126 ,   98 ,  205 ,  218 ,  137 ,  111 ,  194 
E: 000000.149620 64 01 83 80 81 7f 00 00 0f 08 00 00 00 ec 75 2a eb f5 ff ee ff 0b 00 41 00 5f 1f 2d 05 e5 e7 f4 d9 08 80 00 00 00 80 00 00 00 00 09 09 00 00 00 00 00 b9 fe f4 d9 28 08 00 e8 7e 62 cd da 89 6f c2
# ReportID: 1 / X:  131 | Y:  128 | Z:  129 | Rz:  127 | Rx:    0 | Ry:    0 | 0xff000020:   16 | Hat switch:   8 | Button: 0  0  0  0  0  0  0  0  0  0  0  0  0  0  0 | 0xff000021: 0 , 0 , 0 , 0 , 0 , 0 , 0 , 0 , 0 , 0 , 0 , 0 , 0 | 0xff000022:  237 ,  117 ,   42 ,  235 ,  246 ,  255 ,  237 ,  255 ,   11 ,    0 ,   45 ,    0 ,   86 ,   31 ,   50 ,    5 ,  217 ,   22 ,  245 ,  217 ,    8 ,  128 ,    0 ,    0 ,    0 ,  128 ,    0 ,    0 ,    0 ,    0 ,    9 ,    9 ,    0 ,    0 ,    0 ,    0 ,    0 ,  153 ,   45 ,  245 ,  217 ,   40 ,    8 ,    0 ,   49 ,   24 ,  145 ,    3 ,   23 ,  249 ,  203 ,   54 
E: 000000.155891 64 01 83 80 81 7f 00 00 10 08 00 00 00 ed 75 2a eb f6 ff ed ff 0b 00 2d 00 56 1f 32 05 d9 16 f5 d9 08 80 00 00 00 80 00 00 00 00 09 09 00 00 00 00 00 99 2d f5 d9 28 08 00 31 18 91 03 17 f9 cb 36
# ReportID: 1 / X:  131 | Y:  128 | Z:  129 | Rz:  127 | Rx:    0 | Ry:    0 | 0xff000020:   17 | Hat switch:   8 | Button: 0  0  0  0  0  0  0  0  0  0  0  0  0  0  0 | 0xff000021: 0 , 0 , 0 , 0 , 0 , 0 , 0 , 0 , 0 , 0 , 0 , 0 , 0 | 0xff000022:  238 ,  117 ,   42 ,  235 ,  247 ,  255 ,  238 ,  255 ,   11 ,    0 ,   54 ,    0 ,   80 ,   31 ,   48 ,    5 ,  204 ,   69 ,  245 ,  217 ,    8 ,  128 ,    0 ,    0 ,    0 ,  128 ,    0 ,    0 ,    0 ,    0 ,    9 ,    9 ,    0 ,    0 ,    0 ,    0 ,    0 ,  121 ,   92 ,  245 ,  217 ,   40 ,    8 ,    0 ,    1 ,  174 ,  196 ,  114 ,   66 ,   86 ,  220 ,  104 
E: 000000.157463 64 01 83 80 81 7f 00 00 11 08 00 00 00 ee 75 2a eb f7 ff ee ff 0b 00 36 00 50 1f 30 05 cc 45 f5 d9 08 80 00 00 00 80 00 00 00 00 09 09 00 00 00 00 00 79 5c f5 d9 28 08 00 01 ae c4 72 42 56 dc 68
# ReportID: 1 / X:  131 | Y:  128 | Z:  129 | Rz:  127 | Rx:    0 | Ry:    0 | 0xff000020:   18 | Hat switch:   8 | Button: 0  0  0  0  0  0  0  0  0  0  0  0  0  0  0 | 0xff000021: 0 , 0 , 0 , 0 , 0 , 0 , 0 , 0 , 0 , 0 , 0 , 0 , 0 | 0xff000022:  239 ,  117 ,   42 ,  235 ,  247 ,  255 ,  239 ,  255 ,   11 ,    0 ,   62 ,    0 ,   70 ,   31 ,   48 ,    5 ,  191 ,  116 ,  245 ,  217 ,    8 ,  128 ,    0 ,    0 ,    0 ,  128 ,    0 ,    0 ,    0 ,    0 ,    9 ,    9 ,    0 ,    0 ,    0 ,    0 ,    0 ,   89 ,  139 ,  245 ,  217 ,   40 ,    8 ,    0 ,  135 ,  194 ,  245 ,   70 ,  108 ,  143 ,  254 ,  152 
E: 000000.161801 64 01 83 80 81 7f 00 00 12 08 00 00 00 ef 75 2a eb f7 ff ef ff 0b 00 3e 00 46 1f 30 05 bf 74 f5 d9 08 80 00 00 00 80 00 00 00 00 09 09 00 00 00 00 00 59 8b f5 d9 28 08 00 87 c2 f5 46 6c 8f fe 98
# ReportID: 1 / X:  131 | Y:  128 | Z:  130 | Rz:  127 | Rx:    0 | Ry:    0 | 0xff000020:   19 | Hat switch:   8 | Button: 0  0  0  0  0  0  0  0  0  0  0  0  0  0  0 | 0xff000021: 0 , 0 , 0 , 0 , 0 , 0 , 0 , 0 , 0 , 0 , 0 , 0 , 0 | 0xff000022:  240 ,  117 ,   42 ,  235 ,  247 ,  255 ,  238 ,  255 ,   11 ,    0 ,   59 ,    0 ,   74 ,   31 ,   53 ,    5 ,  178 ,  163 ,  245 ,  217 ,    8 ,  128 ,    0 ,    0 ,    0 ,  128 ,    0 ,    0 ,    0 ,    0 ,    9 ,    9 ,    0 ,    0 ,    0 ,    0 ,    0 ,   57 ,  186 ,  245 ,  217 ,   40 ,    8 ,    0 ,  217 ,  243 ,  185 ,  218 ,   63 ,   26 ,  232 ,  195 
E: 000000.165602 64 01 83 80 82 7f 00 00 13 08 00 00 00 f0 75 2a eb f7 ff ee ff 0b 00 3b 00 4a 1f 35 05 b2 a3 f5 d9 08 80 00 00 00 80 00 00 00 00 09 09 00 00 00 00 00 39 ba f5 d9 28 08 00 d9 f3 b9 da 3f 1a e8 c3
# ReportID: 1 / X:  131 | Y:  128 | Z:  129 | Rz:  127 | Rx:    0 | Ry:    0 | 0xff000020:   20 | Hat switch:   8 | Button: 0  0  0  0  0  0  0  0  0  0  0  0  0  0  0 | 0xff000021: 0 , 0 , 0 , 0 , 0 , 0 , 0 , 0 , 0 , 0 , 0 , 0 , 0 | 0xff000022:  241 ,  117 ,   42 ,  235 ,  247 ,  255 ,  239 ,  255 ,   11 ,    0 ,   64 ,    0 ,  101 ,   31 ,   56 ,    5 ,  165 ,  210 ,  245 ,  217 ,    8 ,  128 ,    0 ,    0 ,    0 ,  128 ,    0 ,    0 ,    0 ,    0 ,    9 ,    9 ,    0 ,    0 ,    0 ,    0 ,    0 ,   25 ,  233 ,  245 ,  217 ,   40 ,    8 ,    0 ,  121 ,    5 ,  183 ,  135 ,  122 ,  234 ,  143 ,   25 
E: 000000.171430 64 01 83 80 81 7f 00 00 14 08 00 00 00 f1 75 2a eb f7 ff ef ff 0b 00 40 00 65 1f 38 05 a5 d2 f5 d9 08 80 00 00 00 80 00 00 00 00 09 09 00 00 00 00 00 19 e9 f5 d9 28 08 00 79 05 b7 87 7a ea 8f 19
# ReportID: 1 / X:  131 | Y:  128 | Z:  130 | Rz:  127 | Rx:    0 | Ry:    0 | 0xff000020:   21 | Hat switch:   8 | Button: 0  0  0  0  0  0  0  0  0  0  0  0  0  0  0 | 0xff000021: 0 , 0 , 0 , 0 , 0 , 0 , 0 , 0 , 0 , 0 , 0 , 0 , 0 | 0xff000022:  242 ,  117 ,   42 ,  235 ,  248 ,  255 ,  239 ,  255 ,   10 ,    0 ,   63 ,    0 ,  103 ,   31 ,   51 ,    5 ,  152 ,    1 ,  246 ,  217 ,    8 ,  128 ,    0 ,    0 ,    0 ,  128 ,    0 ,    0 ,    0 ,    0 ,    9 ,    9 ,    0 ,    0 ,    0 ,    0 ,    0 ,  249 ,   23 ,  246 ,  217 ,   40 ,    8 ,    0 ,   12 ,  122 ,  146 ,  160 ,   87 ,   69 ,  203 ,  242 
E: 000000.175301 64 01 83 80 82 7f 00 00 15 08 00 00 00 f2 75 2a eb f8 ff ef ff 0a 00 3f 00 67 1f 33 05 98 01 f6 d9 08 80 00 00 00 80 00 00 00 00 09 09 00 00 00 00 00 f9 17 f6 d9 28 08 00 0c 7a 92 a0 57 45 cb f2
# ReportID: 1 / X:  131 | Y:  128 | Z:  129 | Rz:  127 | Rx:    0 | Ry:    0 | 0xff000020:   22 | Hat switch:   8 | Button: 0  0  0  0  0  0  0  0  0  0  0  0  0  0  0 | 0xff000021: 0 , 0 , 0 , 0 , 0 , 0 , 0 , 0 , 0 , 0 , 0 , 0 , 0 | 0xff000022:  243 ,  117 ,   42 ,  235 ,  246 ,  255 ,  239 ,  255 ,   10 ,    0 ,   56 ,    0 ,   69 ,   31 ,   64 ,    5 ,  139 ,   48 ,  246 ,  217 ,    8 ,  128 ,    0 ,    0 ,    0 ,  128 ,    0 ,    0 ,    0 ,    0 ,    9 ,    9 ,    0 ,    0 ,    0 ,    0 ,    0 ,  217 ,   70 ,  246 ,  217 ,   40 ,    8 ,    0 ,   76 ,   20 ,   99 ,    8 ,  200 ,   99 ,   41 ,   36 
E: 000000.177541 64 01 83 80 81 7f 00 00 16 08 00 00 00 f3 75 2a eb f6 ff ef ff 0a 00 38 00 45 1f 40 05 8b 30 f6 d9 08 80 00 00 00 80 00 00 00 00 09 09 00 00 00 00 00 d9 46 f6 d9 28 08 00 4c 14 63 08 c8 63 29 24
# ReportID: 1 / X:  131 | Y:  128 | Z:  129 | Rz:  127 | Rx:    0 | Ry:    0 | 0xff000020:   23 | Hat switch:   8 | Button: 0  0  0  0  0  0  0  0  0  0  0  0  0  0  0 | 0xff000021: 0 , 0 , 0 , 0 , 0 , 0 , 0 , 0 , 0 , 0 , 0 , 0 , 0 | 0xff000022:  244 ,  117 ,   42 ,  235 ,  246 ,  255 ,  238 ,  255 ,   10 ,    0 ,   57 ,    0 ,   54 ,   31 ,   59 ,    5 ,  126 ,   95 ,  246 ,  217 ,    8 ,  128 ,    0 ,    0 ,    0 ,  128 ,    0 ,    0 ,    0 ,    0 ,    9 ,    9 ,    0 ,    0 ,    0 ,    0 ,    0 ,  185 ,  117 ,  246 ,  217 ,   40 ,    8 ,    0 ,  159 ,  108 ,  246 ,  130 ,   37 ,  228 ,   83 ,  238 
E: 000000.182379 64 01 83 80 81 7f 00 00 17 08 00 00 00 f4 75 2a eb f6 ff ee ff 0a 00 39 00 36 1f 3b 05 7e 5f f6 d9 08 80 00 00 00 80 00 00 00 00 09 09 00 00 00 00 00 b9 75 f6 d9 28 08 00 9f 6c f6 82 25 e4 53 ee
# ReportID: 1 / X:  131 | Y:  128 | Z:  129 | Rz:  127 | Rx:    0 | Ry:    0 | 0xff000020:   24 | Hat switch:   8 | Button: 0  0  0  0  0  0  0  0  0  0  0  0  0  0  0 | 0xff000021: 0 , 0 , 0 , 0 , 0 , 0 , 0 , 0 , 0 , 0 , 0 , 0 , 0 | 0xff000022:  245 ,  117 ,   42 ,  235 ,  248 ,  255 ,  239 ,  255 ,   11 ,    0 ,   42 ,    0 ,   85 ,   31 ,   52 ,    5 ,  113 ,  142 ,  246 ,  217 ,    8 ,  128 ,    0 ,    0 ,    0 ,  128 ,    0 ,    0 ,    0 ,    0 ,    9 ,    9 ,    0 ,    0 ,    0 ,    0 ,    0 ,  153 ,  164 ,  246 ,  217 ,   40 ,    8 ,    0 ,  166 ,   95 ,   29 ,  253 ,  252 ,  102 ,  118 ,  232 
E: 000000.186637 64 01 83 80 81 7f 00 00 18 08 00 00 00 f5 75 2a eb f8 ff ef ff 0b 00 2a 00 55 1f 34 05 71 8e f6 d9 08 80 00 00 00 80 00 00 00 00 09 09 00 00 00 00 00 99 a4 f6 d9 28 08 00 a6 5f 1d fd fc 66 76 e8
# ReportID: 1 / X:  131 | Y:  128 | Z:  129 | Rz:  127 | Rx:    0 | Ry:    0 | 0xff000020:   25 | Hat switch:   8 | Button: 0  0  0  0  0  0  0  0  0  0  0  0  0  0  0 | 0xff000021: 0 , 0 , 0 , 0 , 0 , 0 , 0 , 0 , 0 , 0 , 0 , 0 , 0 | 0xff000022:  246 ,  117 ,   42 ,  235 ,  247 ,  255 ,  238 ,  255 ,   11 ,    0 ,   45 ,    0 ,  111 ,   31 ,   54 ,    5 ,  100 ,  189 ,  246 ,  217 ,    8 ,  128 ,    0 ,    0 ,    0 ,  128 ,    0 ,    0 ,    0 ,    0 ,    9 ,    9 ,    0 ,    0 ,    0 ,    0 ,    0 ,  121 ,  211 ,  246 ,  217 ,   40 ,    8 ,    0 ,  131 ,  225 ,   38 ,   59 ,  183 ,  116 ,   40 ,  188 
E: 000000.190097 64 01 83 80 81 7f 00 00 19 08 00 00 00 f6 75 2a eb f7 ff ee ff 0b 00 2d 00 6f 1f 36 05 64 bd f6 d9 08 80 00 00 00 80 00 00 00 00 09 09 00 00 00 00 00 79 d3 f6 d9 28 08 00 83 e1 26 3b b7 74 28 bc
# ReportID: 1 / X:  131 | Y:  128 | Z:  129 | Rz:  127 | Rx:    0 | Ry:    0 | 0xff000020:   26 | Hat switch:   8 | Button: 0  0  0  0  0  0  0  0  0  0  0  0  0  0  0 | 0xff000021: 0 , 0 , 0 , 0 , 0 , 0 , 0 , 0 , 0 , 0 , 0 , 0 , 0 | 0xff000022:  247 ,  117 ,   42 ,  235 ,  245 ,  255 ,  239 ,  255 ,   11 ,    0 ,   51 ,    0 ,   97 ,   31 ,   58 ,    5 ,   88 ,  236 ,  246 ,  217 ,    8 ,  128 ,    0 ,    0 ,    0 ,  128 ,    0 ,    0 ,    0 ,    0 ,    9 ,    9 ,    0 ,    0 ,    0 ,    0 ,    0 ,   89 ,    2 ,  247 ,  217 ,   40 ,    8 ,    0 ,  204 ,  107 ,  174 ,  159 ,  120 ,  148 ,  171 ,  198 
E: 000000.193570 64 01 83 80 81 7f 00 00 1a 08 00 00 00 f7 75 2a eb f5 ff ef ff 0b 00 33 00 61 1f 3a 05 58 ec f6 d9 08 80 00 00 00 80 00 00 00 00 09 09 00 00 00 00 00 59 02 f7 d9 28 08 00 cc 6b ae 9f 78 94 ab c6
# ReportID: 1 / X:  131 | Y:  128 | Z:  129 | Rz:  127 | Rx:    0 | Ry:    0 | 0xff000020:   27 | Hat switch:   8 | Button: 0  0  0  0  0  0  0  0  0  0  0  0  0  0  0 | 0xff000021: 0 , 0 , 0 , 0 , 0 , 0 , 0 , 0 , 0 , 0 , 0 , 0 , 0 | 0xff000022:  248 ,  117 ,   42 ,  235 ,  247 ,  255 ,  238 ,  255 ,   11 ,    0 ,   52 ,    0 ,   91 ,   31 ,   52 ,    5 ,   75 ,   27 ,  247 ,  217 ,    8 ,  128 ,    0 ,    0 ,    0 ,  128 ,    0 ,    0 ,    0 ,    0 ,    9 ,    9 ,    0 ,    0 ,    0 ,    0 ,    0 ,   57 ,   49 ,  247 ,  217 ,   40 ,    8 ,    0 ,  237 ,   13 ,   13 ,   60 ,   53 ,   13 ,   56 ,  184 
E: 000000.197676 64 01 83 80 81 7f 00 00 1b 08 00 00 00 f8 75 2a eb f7 ff ee ff 0b 00 34 00 5b 1f 34 05 4b 1b f7 d9 08 80 00 00 00 80 00 00 00 00 09 09 00 00 00 00 00 39 31 f7 d9 28 08 00 ed 0d 0d 3c 35 0d 38 b8
# ReportID: 1 / X:  131 | Y:  128 | Z:  129 | Rz:  127 | Rx:    0 | Ry:    0 | 0xff000020:   28 | Hat switch:   8 | Button: 0  0  0  0  0  0  0  0  0  0  0  0  0  0  0 | 0xff000021: 0 , 0 , 0 , 0 , 0 , 0 , 0 , 0 , 0 , 0 , 0 , 0 , 0 | 0xff000022:  249 ,  117 ,   42 ,  235 ,  247 ,  255 ,  238 ,  255 ,   10 ,    0 ,   46 ,    0 ,   79 ,   31 ,   53 ,    5 ,   63 ,   74 ,  247 ,  217 ,    8 ,  128 ,    0 ,    0 ,    0 ,  128 ,    0 ,    0 ,    0 ,    0 ,    9 ,    9 ,    0 ,    0 ,    0 ,    0 ,    0 ,   25 ,   96 ,  247 ,  217 ,   40 ,    8 ,    0 ,   90 ,  234 ,  158 ,  251 ,   86 ,  168 ,   16 ,  119 
E: 000000.203283 64 01 83 80 81 7f 00 00 1c 08 00 00 00 f9 75 2a eb f7 ff ee ff 0a 00 2e 00 4f 1f 35 05 3f 4a f7 d9 08 80 00 00 00 80 00 00 00 00 09 09 00 00 00 00 00 19 60 f7 d9 28 08 00 5a ea 9e fb 56 a8 10 77
# ReportID: 1 / X:  131 | Y:  128 | Z:  129 | Rz:  127 | Rx:    0 | Ry:    0 | 0xff000020:   29 | Hat switch:   8 | Button: 0  0  0  0  0  0  0  0  0  0  0  0  0  0  0 | 0xff000021: 0 , 0 , 0 , 0 , 0 , 0 , 0 , 0 , 0 , 0 , 0 , 0 , 0 | 0xff000022:  250 ,  117 ,   42 ,  235 ,  245 ,  255 ,  239 ,  255 ,   11 ,    0 ,   53 ,    0 ,   70 ,   31 ,   50 ,    5 ,   52 ,  121 ,  247 ,  217 ,    8 ,  128 ,    0 ,    0 ,    0 ,  128 ,    0 ,    0 ,    0 ,    0 ,    9 ,    9 ,    0 ,    0 ,    0 ,    0 ,    0 ,  249 ,  142 ,  247 ,  217 ,   40 ,    8 ,    0 ,  238 ,  223 ,  164 ,  131 ,   30 ,   56 ,  165 ,  163 
E: 000000.206388 64 01 83 80 81 7f 00 00 1d 08 00 00 00 fa 75 2a eb f5 ff ef ff 0b 00 35 00 46 1f 32 05 34 79 f7 d9 08 80 00 00 00 80 00 00 00 00 09 09 00 00 00 00 00 f9 8e f7 d9 28 08 00 ee df a4 83 1e 38 a5 a3
# ReportID: 1 / X:  131 | Y:  128 | Z:  129 | Rz:  127 | Rx:    0 | Ry:    0 | 0xff000020:   30 | Hat switch:   8 | Button: 0  0  0  0  0  0  0  0  0  0  0  0  0  0  0 | 0xff000021: 0 , 0 , 0 , 0 , 0 , 0 , 0 , 0 , 0 , 0 , 0 , 0 , 0 | 0xff000022:  251 ,  117 ,   42 ,  235 ,  246 ,  255 ,  238 ,  255 ,   11 ,    0 ,   44 ,    0 ,   67 ,   31 ,   53 ,    5 ,   39 ,  168 ,  247 ,  217 ,    8 ,  128 ,    0 ,    0 ,    0 ,  128 ,    0 ,    0 ,    0 ,    0 ,    9 ,    9 ,    0 ,    0 ,    0 ,    0 ,    0 ,  217 ,  189 ,  247 ,  217 ,   40 ,    8 ,    0 ,  219 ,  193 ,  242 ,  243 ,  131 ,   19 ,  254 ,  255 
E: 000000.209881 64 01 83 80 81 7f 00 00 1e 08 00 00 00 fb 75 2a eb f6 ff ee ff 0b 00 2c 00 43 1f 35 05 27 a8 f7 d9 08 80 00 00 00 80 00 00 00 00 09 09 00 00 00 00 00 d9 bd f7 d9 28 08 00 db c1 f2 f3 83 13 fe ff
# ReportID: 1 / X:  131 | Y:  128 | Z:  129 | Rz:  127 | Rx:    0 | Ry:    0 | 0xff000020:   31 | Hat switch:   8 | Button: 0  0  0  0  0  0  0  0  0  0  0  0  0  0  0 | 0xff000021: 0 , 0 , 0 , 0 , 0 , 0 , 0 , 0 , 0 , 0 , 0 , 0 , 0 | 0xff000022:  252 ,  117 ,   42 ,  235 ,  246 ,  255 ,  238 ,  255 ,   11 ,    0 ,   37 ,    0 ,   88 ,   31 ,   54 ,    5 ,   23 ,  215 ,  247 ,  217 ,    8 ,  128 ,    0 ,    0 ,    0 ,  128 ,    0 ,    0 ,    0 ,    0 ,    9 ,    9 ,    0 ,    0 ,    0 ,    0 ,    0 ,  185 ,  236 ,  247 ,  217 ,   40 ,    8 ,    0 ,   67 ,   67 ,   89 ,  157 ,  140 ,  242 ,    5 ,    6 
E: 000000.213700 64 01 83 80 81 7f 00 00 1f 08 00 00 00 fc 75 2a eb f6 ff ee ff 0b 00 25 00 58 1f 36 05 17 d7 f7 d9 08 80 00 00 00 80 00 00 00 00 09 09 00 00 00 00 00 b9 ec f7 d9 28 08 00 43 43 59 9d 8c f2 05 06
# ReportID: 1 / X:  131 | Y:  128 | Z:  129 | Rz:  127 | Rx:    0 | Ry:    0 | 0xff000020:   32 | Hat switch:   8 | Button: 0  0  0  0  0  0  0  0  0  0  0  0  0  0  0 | 0xff000021: 0 , 0 , 0 , 0 , 0 , 0 , 0 , 0 , 0 , 0 , 0 , 0 , 0 | 0xff000022:  253 ,  117 ,   42 ,  235 ,  246 ,  255 ,  239 ,  255 ,   11 ,    0 ,   42 ,    0 ,   97 ,   31 ,   62 ,    5 ,   10 ,    6 ,  248 ,  217 ,    8 ,  128 ,    0 ,    0 ,    0 ,  128 ,    0 ,    0 ,    0 ,    0 ,    9 ,    9 ,    0 ,    0 ,    0 ,    0 ,    0 ,  153 ,   27 ,  248 ,  217 ,   40 ,    8 ,    0 ,  253 ,  154 ,  201 ,  197 ,  190 ,    9 ,   64 ,  231 
E: 000000.218331 64 01 83 80 81 7f 00 00 20 08 00 00 00 fd 75 2a eb f6 ff ef ff 0b 00 2a 00 61 1f 3e 05 0a 06 f8 d9 08 80 00 00 00 80 00 00 00 00 09 09 00 00 00 00 00 99 1b f8 d9 28 08 00 fd 9a c9 c5 be 09 40 e7
# ReportID: 1 / X:  131 | Y:  128 | Z:  130 | Rz:  127 | Rx:    0 | Ry:    0 | 0xff000020:   33 | Hat switch:   8 | Button: 0  0  0  0  0  0  0  0  0  0  0  0  0  0  0 | 0xff000021: 0 , 0 , 0 , 0 , 0 , 0 , 0 , 0 , 0 , 0 , 0 , 0 , 0 | 0xff000022:  254 ,  117 ,   42 ,  235 ,  247 ,  255 ,  239 ,  255 ,   10 ,    0 ,   50 ,    0 ,   85 ,   31 ,   62 ,    5 ,  254 ,   52 ,  248 ,  217 ,    8 ,  128 ,    0 ,    0 ,    0 ,  128 ,    0 ,    0 ,    0 ,    0 ,    9 ,    9 ,    0 ,    0 ,    0 ,    0 ,    0 ,  121 ,   74 ,  248 ,  217 ,   40 ,    8 ,    0 ,  128 ,   73 ,   76 ,   12 ,    6 ,   55 ,  199 ,   99 
E: 000000.222434 64 01 83 80 82 7f 00 00 21 08 00 00 00 fe 75 2a eb f7 ff ef ff 0a 00 32 00 55 1f 3e 05 fe 34 f8 d9 08 80 00 00 00 80 00 00 00 00 09 09 00 00 00 00 00 79 4a f8 d9 28 08 00 80 49 4c 0c 06 37 c7 63
# ReportID: 1 / X:  131 | Y:  128 | Z:  129 | Rz:  127 | Rx:    0 | Ry:    0 | 0xff000020:   34 | Hat switch:   8 | Button: 0  0  0  0  0  0  0  0  0  0  0  0  0  0  0 | 0xff000021: 0 , 0 , 0 , 0 , 0 , 0 , 0 , 0 , 0 , 0 , 0 , 0 , 0 | 0xff000022:  255 ,  117 ,   42 ,  235 ,  248 ,  255 ,  238 ,  255 ,   12 ,    0 ,   47 ,    0 ,   80 ,   31 ,   61 ,    5 ,  241 ,   99 ,  248 ,  217 ,    8 ,  128 ,    0 ,    0 ,    0 ,  128 ,    0 ,    0 ,    0 ,    0 ,    9 ,    9 ,    0 ,    0 ,    0 ,    0 ,    0 ,   89 ,  121 ,  248 ,  217 ,   40 ,    8 ,    0 ,   95 ,  143 ,  209 ,   52 ,   31 ,   41 ,  146 ,   26 
E: 000000.225564 64 01 83 80 81 7f 00 00 22 08 00 00 00 ff 75 2a eb f8 ff ee ff 0c 00 2f 00 50 1f 3d 05 f1 63 f8 d9 08 80 00 00 00 80 00 00 00 00 09 09 00 00 00 00 00 59 79 f8 d9 28 08 00 5f 8f d1 34 1f 29 92 1a
# ReportID: 1 / X:  131 | Y:  128 | Z:  129 | Rz:  127 | Rx:    0 | Ry:    0 | 0xff000020:   35 | Hat switch:   8 | Button: 0  0  0  0  0  0  0  0  0  0  0  0  0  0  0 | 0xff000021: 0 , 0 , 0 , 0 , 0 , 0 , 0 , 0 , 0 , 0 , 0 , 0 , 0 | 0xff000022:    0 ,  118 ,   42 ,  235 ,  248 ,  255 ,  238 ,  255 ,   11 ,    0 ,   46 ,    0 ,   66 ,   31 ,   61 ,    5 ,  228 ,  146 ,  248 ,  217 ,    8 ,  128 ,    0 ,    0 ,    0 ,  128 ,    0 ,    0 ,    0 ,    0 ,    9 ,    9 ,    0 ,    0 ,    0 ,    0 ,    0 ,   57 ,  168 ,  248 ,  217 ,   40 ,    8 ,    0 ,  246 ,   28 ,  201 ,   84 ,   88 ,   63 ,   54 ,   37 
E: 000000.229621 64 01 83 80 81 7f 00 00 23 08 00 00 00 00 76 2a eb f8 ff ee ff 0b 00 2e 00 42 1f 3d 05 e4 92 f8 d9 08 80 00 00 00 80 00 00 00 00 09 09 00 00 00 00 00 39 a8 f8 d9 28 08 00 f6 1c c9 54 58 3f 36 25
# ReportID: 1 / X:  131 | Y:  128 | Z:  129 | Rz:  127 | Rx:    0 | Ry:    0 | 0xff000020:   36 | Hat switch:   8 | Button: 0  0  0  0  0  0  0  0  0  0  0  0  0  0  0 | 0xff000021: 0 , 0 , 0 , 0 , 0 , 0 , 0 , 0 , 0 , 0 , 0 , 0 , 0 | 0xff000022:    1 ,  118 ,   42 ,  235 ,  248 ,  255 ,  238 ,  255 ,   10 ,    0 ,   40 ,    0 ,   73 ,   31 ,   58 ,    5 ,  215 ,  193 ,  248 ,  217 ,    8 ,  128 ,    0 ,    0 ,    0 ,  128 ,    0 ,    0 ,    0 ,    0 ,    9 ,    9 ,    0 ,    0 ,    0 ,    0 ,    0 ,   25 ,  215 ,  248 ,  217 ,   40 ,    8 ,    0 ,  206 ,  155 ,  231 ,  201 ,  150 ,  228 ,   70 ,  102 
E: 000000.233560 64 01 83 80 81 7f 00 00 24 08 00 00 00 01 76 2a eb f8 ff ee ff 0a 00 28 00 49 1f 3a 05 d7 c1 f8 d9 08 80 00 00 00 80 00 00 00 00 09 09 00 00 00 00 00 19 d7 f8 d9 28 08 00 ce 9b e7 c9 96 e4 46 66
# ReportID: 1 / X:  131 | Y:  128 | Z:  129 | Rz:  127 | Rx:    0 | Ry:    0 | 0xff000020:   37 | Hat switch:   8 | Button: 0  0  0  0  0  0  0  0  0  0  0  0  0  0  0 | 0xff000021: 0 , 0 , 0 , 0 , 0 , 0 , 0 , 0 , 0 , 0 , 0 , 0 , 0 | 0xff000022:    2 ,  118 ,   42 ,  235 ,  246 ,  255 ,  238 ,  255 ,   12 ,    0 ,   42 ,    0 ,   92 ,   31 ,   68 ,    5 ,  202 ,  240 ,  248 ,  217 ,    8 ,  128 ,    0 ,    0 ,    0 ,  128 ,    0 ,    0 ,    0 ,    0 ,    9 ,    9 ,    0 ,    0 ,    0 ,    0 ,    0 ,  249 ,    5 ,  249 ,  217 ,   40 ,    8 ,    0 ,   84 ,    8 ,   58 ,   34 ,   11 ,   21 ,  130 ,  196 
E: 000000.237799 64 01 83 80 81 7f 00 00 25 08 00 00 00 02 76 2a eb f6 ff ee ff 0c 00 2a 00 5c 1f 44 05 ca f0 f8 d9 08 80 00 00 00 80 00 00 00 00 09 09 00 00 00 00 00 f9 05 f9 d9 28 08 00 54 08 3a 22 0b 15 82 c4
# ReportID: 1 / X:  131 | Y:  128 | Z:  130 | Rz:  127 | Rx:    0 | Ry:    0 | 0xff000020:   38 | Hat switch:   8 | Button: 0  0  0  0  0  0  0  0  0  0  0  0  0  0  0 | 0xff000021: 0 , 0 , 0 , 0 , 0 , 0 , 0 , 0 , 0 , 0 , 0 , 0 , 0 | 0xff000022:    3 ,  118 ,   42 ,  235 ,  247 ,  255 ,  238 ,  255 ,   11 ,    0 ,   46 ,    0 ,   78 ,   31 ,   58 ,    5 ,  189 ,   31 ,  249 ,  217 ,    8 ,  128 ,    0 ,    0 ,    0 ,  128 ,    0 ,    0 ,    0 ,    0 ,    9 ,    9 ,    0 ,    0 ,    0 ,    0 ,    0 ,  217 ,   52 ,  249 ,  217 ,   40 ,    8 ,    0 ,  238 ,  253 ,  198 ,   21 ,  222 ,   58 ,  196 ,  197 
E: 000000.243443 64 01 83 80 82 7f 00 00 26 08 00 00 00 03 76 2a eb f7 ff ee ff 0b 00 2e 00 4e 1f 3a 05 bd 1f f9 d9 08 80 00 00 00 80 00 00 00 00 09 09 00 00 00 00 00 d9 34 f9 d9 28 08 00 ee fd c6 15 de 3a c4 c5
# ReportID: 1 / X:  131 | Y:  128 | Z:  129 | Rz:  127 | Rx:    0 | Ry:    0 | 0xff000020:   39 | Hat switch:   8 | Button: 0  0  0  0  0  0  0  0  0  0  0  0  0  0  0 | 0xff000021: 0 , 0 , 0 , 0 , 0 , 0 , 0 , 0 , 0 , 0 , 0 , 0 , 0 | 0xff000022:    4 ,  118 ,   42 ,  235 ,  247 ,  255 ,  238 ,  255 ,   11 ,    0 ,   47 ,    0 ,   87 ,   31 ,   64 ,    5 ,  176 ,   78 ,  249 ,  217 ,    8 ,  128 ,    0 ,    0 ,    0 ,  128 ,    0 ,    0 ,    0 ,    0 ,    9 ,    9 ,    0 ,    0 ,    0 ,    0 ,    0 ,  185 ,   99 ,  249 ,  217 ,   40 ,    8 ,    0 ,   75 ,   95 ,  209 ,   32 ,   68 ,  199 ,  223 ,    5 
E: 000000.245460 64 01 83 80 81 7f 00 00 27 08 00 00 00 04 76 2a eb f7 ff ee ff 0b 00 2f 00 57 1f 40 05 b0 4e f9 d9 08 80 00 00 00 80 00 00 00 00 09 09 00 00 00 00 00 b9 63 f9 d9 28 08 00 4b 5f d1 20 44 c7 df 05
# ReportID: 1 / X:  131 | Y:  128 | Z:  130 | Rz:  127 | Rx:    0 | Ry:    0 | 0xff000020:   40 | Hat switch:   8 | Button: 0  0  0  0  0  0  0  0  0  0  0  0  0  0  0 | 0xff000021: 0 , 0 , 0 , 0 , 0 , 0 , 0 , 0 , 0 , 0 , 0 , 0 , 0 | 0xff000022:    5 ,  118 ,   42 ,  235 ,  247 ,  255 ,  238 ,  255 ,   10 ,    0 ,   47 ,    0 ,   89 ,   31 ,   68 ,    5 ,  163 ,  125 ,  249 ,  217 ,    8 ,  128 ,    0 ,    0 ,    0 ,  128 ,    0 ,    0 ,    0 ,    0 ,    9 ,    9 ,    0 ,    0 ,    0 ,    0 ,    0 ,  153 ,  146 ,  249 ,  217 ,   40 ,    8 ,    0 ,  109 ,  188 ,   55 ,  114 ,  252 ,  178 ,  113 ,   38 
E: 000000.249639 64 01 83 80 82 7f 00 00 28 08 00 00 00 05 76 2a eb f7 ff ee ff 0a 00 2f 00 59 1f 44 05 a3 7d f9 d9 08 80 00 00 00 80 00 00 00 00 09 09 00 00 00 00 00 99 92 f9 d9 28 08 00 6d bc 37 72 fc b2 71 26
# ReportID: 1 / X:  131 | Y:  128 | Z:  129 | Rz:  127 | Rx:    0 | Ry:    0 | 0xff000020:   41 | Hat switch:   8 | Button: 0  0  0  0  0  0  0  0  0  0  0  0  0  0  0 | 0xff000021: 0 , 0 , 0 , 0 , 0 , 0 , 0 , 0 , 0 , 0 , 0 , 0 , 0 | 0xff000022:    6 ,  118 ,   42 ,  235 ,  246 ,  255 ,  237 ,  255 ,   11 ,    0 ,   56 ,    0 ,   85 ,   31 ,   56 ,    5 ,  150 ,  172 ,  249 ,  217 ,    8 ,  128 ,    0 ,    0 ,    0 ,  128 ,    0 ,    0 ,    0 ,    0 ,    9 ,    9 ,    0 ,    0 ,    0 ,    0 ,    0 ,  121 ,  193 ,  249 ,  217 ,   40 ,    8 ,    0 ,   69 ,   12 ,   18 ,  192 ,  136 ,  158 ,   88 ,  203 
E: 000000.253719 64 01 83 80 81 7f 00 00 29 08 00 00 00 06 76 2a eb f6 ff ed ff 0b 00 38 00 55 1f 38 05 96 ac f9 d9 08 80 00 00 00 80 00 00 00 00 09 09 00 00 00 00 00 79 c1 f9 d9 28 08 00 45 0c 12 c0 88 9e 58 cb
# ReportID: 1 / X:  131 | Y:  128 | Z:  129 | Rz:  127 | Rx:    0 | Ry:    0 | 0xff000020:   42 | Hat switch:   8 | Button: 0  0  0  0  0  0  0  0  0  0  0  0  0  0  0 | 0xff000021: 0 , 0 , 0 , 0 , 0 , 0 , 0 , 0 , 0 , 0 , 0 , 0 , 0 | 0xff000022:    7 ,  118 ,   42 ,  235 ,  247 ,  255 ,  238 ,  255 ,   11 ,    0 ,   51 ,    0 ,   89 ,   31 ,   55 ,    5 ,  138 ,  219 ,  249 ,  217 ,    8 ,  128 ,    0 ,    0 ,    0 ,  128 ,    0 ,    0 ,    0 ,    0 ,    9 ,    9 ,    0 ,    0 ,    0 ,    0 ,    0 ,   89 ,  240 ,  249 ,  217 ,   40 ,    8 ,    0 ,   98 ,   46 ,  222 ,   15 ,   16 ,   71 ,  196 ,  215 
E: 000000.257592 64 01 83 80 81 7f 00 00 2a 08 00 00 00 07 76 2a eb f7 ff ee ff 0b 00 33 00 59 1f 37 05 8a db f9 d9 08 80 00 00 00 80 00 00 00 00 09 09 00 00 00 00 00 59 f0 f9 d9 28 08 00 62 2e de 0f 10 47 c4 d7
# ReportID: 1 / X:  131 | Y:  128 | Z:  129 | Rz:  127 | Rx:    0 | Ry:    0 | 0xff000020:   43 | Hat switch:   8 | Button: 0  0  0  0  0  0  0  0  0  0  0  0  0  0  0 | 0xff000021: 0 , 0 , 0 , 0 , 0 , 0 , 0 , 0 , 0 , 0 , 0 , 0 , 0 | 0xff000022:    8 ,  118 ,   42 ,  235 ,  247 ,  255 ,  238 ,  255 ,   12 ,    0 ,   47 ,    0 ,   78 ,   31 ,   54 ,    5 ,  125 ,   10 ,  250 ,  217 ,    8 ,  128 ,    0 ,    0 ,    0 ,  128 ,    0 ,    0 ,    0 ,    0 ,    9 ,    9 ,    0 ,    0 ,    0 ,    0 ,    0 ,   57 ,   31 ,  250 ,  217 ,   40 ,    8 ,    0 ,  136 ,  223 ,  153 ,  198 ,  230 ,  229 ,   53 ,   85 
E: 000000.261549 64 01 83 80 81 7f 00 00 2b 08 00 00 00 08 76 2a eb f7 ff ee ff 0c 00 2f 00 4e 1f 36 05 7d 0a fa d9 08 80 00 00 00 80 00 00 00 00 09 09 00 00 00 00 00 39 1f fa d9 28 08 00 88 df 99 c6 e6 e5 35 55
# ReportID: 1 / X:  131 | Y:  128 | Z:  130 | Rz:  127 | Rx:    0 | Ry:    0 | 0xff000020:   44 | Hat switch:   8 | Button: 0  0  0  0  0  0  0  0  0  0  0  0  0  0  0 | 0xff000021: 0 , 0 , 0 , 0 , 0 , 0 , 0 , 0 , 0 , 0 , 0 , 0 , 0 | 0xff000022:    9 ,  118 ,   42 ,  235 ,  248 ,  255 ,  238 ,  255 ,   12 ,    0 ,   50 ,    0 ,   79 ,   31 ,   43 ,    5 ,  146 ,   51 ,  250 ,  217 ,    8 ,  128 ,    0 ,    0 ,    0 ,  128 ,    0 ,    0 ,    0 ,    0 ,    9 ,    9 ,    0 ,    0 ,    0 ,    0 ,    0 ,   25 ,   78 ,  250 ,  217 ,   40 ,    8 ,    0 ,  254 ,  173 ,  207 ,  116 ,   60 ,   85 ,   15 ,   30 
E: 000000.266730 64 01 83 80 82 7f 00 00 2c 08 00 00 00 09 76 2a eb f8 ff ee ff 0c 00 32 00 4f 1f 2b 05 92 33 fa d9 08 80 00 00 00 80 00 00 00 00 09 09 00 00 00 00 00 19 4e fa d9 28 08 00 fe ad cf 74 3c 55 0f 1e
# ReportID: 1 / X:  131 | Y:  128 | Z:  130 | Rz:  127 | Rx:    0 | Ry:    0 | 0xff000020:   45 | Hat switch:   8 | Button: 0  0  0  0  0  0  0  0  0  0  0  0  0  0  0 | 0xff000021: 0 , 0 , 0 , 0 , 0 , 0 , 0 , 0 , 0 , 0 , 0 , 0 , 0 | 0xff000022:   10 ,  118 ,   42 ,  235 ,  247 ,  255 ,  239 ,  255 ,   11 ,    0 ,   52 ,    0 ,   82 ,   31 ,   47 ,    5 ,  166 ,   92 ,  250 ,  217 ,    8 ,  128 ,    0 ,    0 ,    0 ,  128 ,    0 ,    0 ,    0 ,    0 ,    9 ,    9 ,    0 ,    0 ,    0 ,    0 ,    0 ,  249 ,  124 ,  250 ,  217 ,   40 ,    8 ,    0 ,   78 ,  208 ,  252 ,  156 ,  200 ,  150 ,  146 ,   85 
E: 000000.269775 64 01 83 80 82 7f 00 00 2d 08 00 00 00 0a 76 2a eb f7 ff ef ff 0b 00 34 00 52 1f 2f 05 a6 5c fa d9 08 80 00 00 00 80 00 00 00 00 09 09 00 00 00 00 00 f9 7c fa d9 28 08 00 4e d0 fc 9c c8 96 92 55
# ReportID: 1 / X:  131 | Y:  128 | Z:  129 | Rz:  127 | Rx:    0 | Ry:    0 | 0xff000020:   46 | Hat switch:   8 | Button: 0  0  0  0  0  0  0  0  0  0  0  0  0  0  0 | 0xff000021: 0 , 0 , 0 , 0 , 0 , 0 , 0 , 0 , 0 , 0 , 0 , 0 , 0 | 0xff000022:   11 ,  118 ,   42 ,  235 ,  248 ,  255 ,  239 ,  255 ,   12 ,    0 ,   56 ,    0 ,   81 ,   31 ,   50 ,    5 ,  153 ,  139 ,  250 ,  217 ,    8 ,  128 ,    0 ,    0 ,    0 ,  128 ,    0 ,    0 ,    0 ,    0 ,    9 ,    9 ,    0 ,    0 ,    0 ,    0 ,    0 ,  217 ,  171 ,  250 ,  217 ,   40 ,    8 ,    0 ,  243 ,   47 ,   26 ,  236 ,  133 ,  199 ,  158 ,   71 
E: 000000.273617 64 01 83 80 81 7f 00 00 2e 08 00 00 00 0b 76 2a eb f8 ff ef ff 0c 00 38 00 51 1f 32 05 99 8b fa d9 08 80 00 00 00 80 00 00 00 00 09 09 00 00 00 00 00 d9 ab fa d9 28 08 00 f3 2f 1a ec 85 c7 9e 47
# ReportID: 1 / X:  131 | Y:  128 | Z:  129 | Rz:  127 | Rx:    0 | Ry:    0 | 0xff000020:   47 | Hat switch:   8 | Button: 0  0  0  0  0  0  0  0  0  0  0  0  0  0  0 | 0xff000021: 0 , 0 , 0 , 0 , 0 , 0 , 0 , 0 , 0 , 0 , 0 , 0 , 0 | 0xff000022:   12 ,  118 ,   42 ,  235 ,  247 ,  255 ,  238 ,  255 ,   11 ,    0 ,   55 ,    0 ,   88 ,   31 ,   48 ,    5 ,  140 ,  186 ,  250 ,  217 ,    8 ,  128 ,    0 ,    0 ,    0 ,  128 ,    0 ,    0 ,    0 ,    0 ,    9 ,    9 ,    0 ,    0 ,    0 ,    0 ,    0 ,  185 ,  218 ,  250 ,  217 ,   40 ,    8 ,    0 ,  191 ,   96 ,   21 ,   88 ,  164 ,  142 ,  108 ,  228 
E: 000000.278746 64 01 83 80 81 7f 00 00 2f 08 00 00 00 0c 76 2a eb f7 ff ee ff 0b 00 37 00 58 1f 30 05 8c ba fa d9 08 80 00 00 00 80 00 00 00 00 09 09 00 00 00 00 00 b9 da fa d9 28 08 00 bf 60 15 58 a4 8e 6c e4
# ReportID: 1 / X:  131 | Y:  128 | Z:  129 | Rz:  127 | Rx:    0 | Ry:    0 | 0xff000020:   48 | Hat switch:   8 | Button: 0  0  0  0  0  0  0  0  0  0  0  0  0  0  0 | 0xff000021: 0 , 0 , 0 , 0 , 0 , 0 , 0 , 0 , 0 , 0 , 0 , 0 , 0 | 0xff000022:   13 ,  118 ,   42 ,  235 ,  246 ,  255 ,  238 ,  255 ,   10 ,    0 ,   54 ,    0 ,  100 ,   31 ,   47 ,    5 ,  128 ,  233 ,  250 ,  217 ,    8 ,  128 ,    0 ,    0 ,    0 ,  128 ,    0 ,    0 ,    0 ,    0 ,    9 ,    9 ,    0 ,    0 ,    0 ,    0 ,    0 ,  153 ,    9 ,  251 ,  217 ,   40 ,    8 ,    0 ,    9 ,   35 ,  176 ,  102 ,  169 ,   25 ,  235 ,  161 
E: 000000.281763 64 01 83 80 81 7f 00 00 30 08 00 00 00 0d 76 2a eb f6 ff ee ff 0a 00 36 00 64 1f 2f 05 80 e9 fa d9 08 80 00 00 00 80 00 00 00 00 09 09 00 00 00 00 00 99 09 fb d9 28 08 00 09 23 b0 66 a9 19 eb a1
# ReportID: 1 / X:  131 | Y:  128 | Z:  129 | Rz:  127 | Rx:    0 | Ry:    0 | 0xff000020:   49 | Hat switch:   8 | Button: 0  0  0  0  0  0  0  0  0  0  0  0  0  0  0 | 0xff000021: 0 , 0 , 0 , 0 , 0 , 0 , 0 , 0 , 0 , 0 , 0 , 0 , 0 | 0xff000022:   14 ,  118 ,   42 ,  235 ,  247 ,  255 ,  239 ,  255 ,   11 ,    0 ,   54 ,    0 ,   98 ,   31 ,   45 ,    5 ,  115 ,   24 ,  251 ,  217 ,    8 ,  128 ,    0 ,    0 ,    0 ,  128 ,    0 ,    0 ,    0 ,    0 ,    9 ,    9 ,    0 ,    0 ,    0 ,    0 ,    0 ,  121 ,   56 ,  251 ,  217 ,   40 ,    8 ,    0 ,    3 ,  162 ,  107 ,  237 ,   31 ,  206 ,  128 ,  148 
E: 000000.285781 64 01 83 80 81 7f 00 00 31 08 00 00 00 0e 76 2a eb f7 ff ef ff 0b 00 36 00 62 1f 2d 05 73 18 fb d9 08 80 00 00 00 80 00 00 00 00 09 09 00 00 00 00 00 79 38 fb d9 28 08 00 03 a2 6b ed 1f ce 80 94
# ReportID: 1 / X:  131 | Y:  128 | Z:  129 | Rz:  127 | Rx:    0 | Ry:    0 | 0xff000020:   50 | Hat switch:   8 | Button: 0  0  0  0  0  0  0  0  0  0  0  0  0  0  0 | 0xff000021: 0 , 0 , 0 , 0 , 0 , 0 , 0 , 0 , 0 , 0 , 0 , 0 , 0 | 0xff000022:   15 ,  118 ,   42 ,  235 ,  247 ,  255 ,  239 ,  255 ,   11 ,    0 ,   57 ,    0 ,   88 ,   31 ,   53 ,    5 ,  102 ,   71 ,  251 ,  217 ,    8 ,  128 ,    0 ,    0 ,    0 ,  128 ,    0 ,    0 ,    0 ,    0 ,    9 ,    9 ,    0 ,    0 ,    0 ,    0 ,    0 ,   89 ,  103 ,  251 ,  217 ,   40 ,    8 ,    0 ,   16 ,   55 ,   82 ,  171 ,  210 ,   55 ,  134 ,  165 
E: 000000.289543 64 01 83 80 81 7f 00 00 32 08 00 00 00 0f 76 2a eb f7 ff ef ff 0b 00 39 00 58 1f 35 05 66 47 fb d9 08 80 00 00 00 80 00 00 00 00 09 09 00 00 00 00 00 59 67 fb d9 28 08 00 10 37 52 ab d2 37 86 a5
# ReportID: 1 / X:  131 | Y:  128 | Z:  130 | Rz:  127 | Rx:    0 | Ry:    0 | 0xff000020:   51 | Hat switch:   8 | Button: 0  0  0  0  0  0  0  0  0  0  0  0  0  0  0 | 0xff000021: 0 , 0 , 0 , 0 , 0 , 0 , 0 , 0 , 0 , 0 , 0 , 0 , 0 | 0xff000022:   16 ,  118 ,   42 ,  235 ,  246 ,  255 ,  238 ,  255 ,   11 ,    0 ,   49 ,    0 ,   95 ,   31 ,   51 ,    5 ,   89 ,  118 ,  251 ,  217 ,    8 ,  128 ,    0 ,    0 ,    0 ,  128 ,    0 ,    0 ,    0 ,    0 ,    9 ,    9 ,    0 ,    0 ,    0 ,    0 ,    0 ,   57 ,  150 ,  251 ,  217 ,   40 ,    8 ,    0 ,  101 ,  232 ,  123 ,  157 ,  122 ,  183 ,  176 ,   54 
E: 000000.295282 64 01 83 80 82 7f 00 00 33 08 00 00 00 10 76 2a eb f6 ff ee ff 0b 00 31 00 5f 1f 33 05 59 76 fb d9 08 80 00 00 00 80 00 00 00 00 09 09 00 00 00 00 00 39 96 fb d9 28 08 00 65 e8 7b 9d 7a b7 b0 36
# ReportID: 1 / X:  131 | Y:  128 | Z:  129 | Rz:  127 | Rx:    0 | Ry:    0 | 0xff000020:   52 | Hat switch:   8 | Button: 0  0  0  0  0  0  0  0  0  0  0  0  0  0  0 | 0xff000021: 0 , 0 , 0 , 0 , 0 , 0 , 0 , 0 , 0 , 0 , 0 , 0 , 0 | 0xff000022:   17 ,  118 ,   42 ,  235 ,  246 ,  255 ,  237 ,  255 ,   12 ,    0 ,   53 ,    0 ,   86 ,   31 ,   44 ,    5 ,   76 ,  165 ,  251 ,  217 ,    8 ,  128 ,    0 ,    0 ,    0 ,  128 ,    0 ,    0 ,    0 ,    0 ,    9 ,    9 ,    0 ,    0 ,    0 ,    0 ,    0 ,   25 ,  197 ,  251 ,  217 ,   40 ,    8 ,    0 ,   84 ,  243 ,   68 ,  125 ,  207 ,   64 ,  172 ,   90 
E: 000000.298460 64 01 83 80 81 7f 00 00 34 08 00 00 00 11 76 2a eb f6 ff ed ff 0c 00 35 00 56 1f 2c 05 4c a5 fb d9 08 80 00 00 00 80 00 00 00 00 09 09 00 00 00 00 00 19 c5 fb d9 28 08 00 54 f3 44 7d cf 40 ac 5a
# ReportID: 1 / X:  131 | Y:  128 | Z:  129 | Rz:  127 | Rx:    0 | Ry:    0 | 0xff000020:   53 | Hat switch:   8 | Button: 0  0  0  0  0  0  0  0  0  0  0  0  0  0  0 | 0xff000021: 0 , 0 , 0 , 0 , 0 , 0 , 0 , 0 , 0 , 0 , 0 , 0 , 0 | 0xff000022:   18 ,  118 ,   42 ,  235 ,  246 ,  255 ,  238 ,  255 ,   12 ,    0 ,   55 ,    0 ,   80 ,   31 ,   56 ,    5 ,   63 ,  212 ,  251 ,  217 ,    8 ,  128 ,    0 ,    0 ,    0 ,  128 ,    0 ,    0 ,    0 ,    0 ,    9 ,    9 ,    0 ,    0 ,    0 ,    0 ,    0 ,  249 ,  243 ,  251 ,  217 ,   40 ,    8 ,    0 ,  154 ,   23 ,  120 ,  111 ,  119 ,   78 ,  142 ,   68 
E: 000000.302560 64 01 83 80 81 7f 00 00 35 08 00 00 00 12 76 2a eb f6 ff ee ff 0c 00 37 00 50 1f 38 05 3f d4 fb d9 08 80 00 00 00 80 00 00 00 00 09 09 00 00 00 00 00 f9 f3 fb d9 28 08 00 9a 17 78 6f 77 4e 8e 44
# ReportID: 1 / X:  131 | Y:  128 | Z:  129 | Rz:  127 | Rx:    0 | Ry:    0 | 0xff000020:   54 | Hat switch:   8 | Button: 0  0  0  0  0  0  0  0  0  0  0  0  0  0  0 | 0xff000021: 0 , 0 , 0 , 0 , 0 , 0 , 0 , 0 , 0 , 0 , 0 , 0 , 0 | 0xff000022:   19 ,  118 ,   42 ,  235 ,  247 ,  255 ,  238 ,  255 ,   11 ,    0 ,   55 ,    0 ,   79 ,   31 ,   56 ,    5 ,   50 ,    3 ,  252 ,  217 ,    8 ,  128 ,    0 ,    0 ,    0 ,  128 ,    0 ,    0 ,    0 ,    0 ,    9 ,    9 ,    0 ,    0 ,    0 ,    0 ,    0 ,  217 ,   34 ,  252 ,  217 ,   40 ,    8 ,    0 ,  204 ,   65 ,   92 ,  163 ,  132 ,   44 ,  185 ,  113 
E: 000000.305847 64 01 83 80 81 7f 00 00 36 08 00 00 00 13 76 2a eb f7 ff ee ff 0b 00 37 00 4f 1f 38 05 32 03 fc d9 08 80 00 00 00 80 00 00 00 00 09 09 00 00 00 00 00 d9 22 fc d9 28 08 00 cc 41 5c a3 84 2c b9 71
# ReportID: 1 / X:  131 | Y:  128 | Z:  129 | Rz:  127 | Rx:    0 | Ry:    0 | 0xff000020:   55 | Hat switch:   8 | Button: 0  0  0  0  0  0  0  0  0  0  0  0  0  0  0 | 0xff000021: 0 , 0 , 0 , 0 , 0 , 0 , 0 , 0 , 0 , 0 , 0 , 0 , 0 | 0xff000022:   20 ,  118 ,   42 ,  235 ,  247 ,  255 ,  238 ,  255 ,   12 ,    0 ,   58 ,    0 ,   80 ,   31 ,   55 ,    5 ,   37 ,   50 ,  252 ,  217 ,    8 ,  128 ,    0 ,    0 ,    0 ,  128 ,    0 ,    0 ,    0 ,    0 ,    9 ,    9 ,    0 ,    0 ,    0 ,    0 ,    0 ,  185 ,   81 ,  252 ,  217 ,   40 ,    8 ,    0 ,   90 ,   61 ,  222 ,  166 ,   30 ,  108 ,  107 ,  213 
E: 000000.309681 64 01 83 80 81 7f 00 00 37 08 00 00 00 14 76 2a eb f7 ff ee ff 0c 00 3a 00 50 1f 37 05 25 32 fc d9 08 80 00 00 00 80 00 00 00 00 09 09 00 00 00 00 00 b9 51 fc d9 28 08 00 5a 3d de a6 1e 6c 6b d5
# ReportID: 1 / X:  131 | Y:  128 | Z:  129 | Rz:  127 | Rx:    0 | Ry:    0 | 0xff000020:   56 | Hat switch:   8 | Button: 0  0  0  0  0  0  0  0  0  0  0  0  0  0  0 | 0xff000021: 0 , 0 , 0 , 0 , 0 , 0 , 0 , 0 , 0 , 0 , 0 , 0 , 0 | 0xff000022:   21 ,  118 ,   42 ,  235 ,  247 ,  255 ,  238 ,  255 ,   11 ,    0 ,   46 ,    0 ,   65 ,   31 ,   62 ,    5 ,   24 ,   97 ,  252 ,  217 ,    8 ,  128 ,    0 ,    0 ,    0 ,  128 ,    0 ,    0 ,    0 ,    0 ,    9 ,    9 ,    0 ,    0 ,    0 ,    0 ,    0 ,  153 ,  128 ,  252 ,  217 ,   40 ,    8 ,    0 ,   18 ,   16 ,  132 ,   37 ,  126 ,  250 ,  254 ,   26 
E: 000000.313540 64 01 83 80 81 7f 00 00 38 08 00 00 00 15 76 2a eb f7 ff ee ff 0b 00 2e 00 41 1f 3e 05 18 61 fc d9 08 80 00 00 00 80 00 00 00 00 09 09 00 00 00 00 00 99 80 fc d9 28 08 00 12 10 84 25 7e fa fe 1a
# ReportID: 1 / X:  131 | Y:  128 | Z:  129 | Rz:  127 | Rx:    0 | Ry:    0 | 0xff000020:   57 | Hat switch:   8 | Button: 0  0  0  0  0  0  0  0  0  0  0  0  0  0  0 | 0xff000021: 0 , 0 , 0 , 0 , 0 , 0 , 0 , 0 , 0 , 0 , 0 , 0 , 0 | 0xff000022:   22 ,  118 ,   42 ,  235 ,  246 ,  255 ,  238 ,  255 ,   11 ,    0 ,   48 ,    0 ,   68 ,   31 ,   59 ,    5 ,   12 ,  144 ,  252 ,  217 ,    8 ,  128 ,    0 ,    0 ,    0 ,  128 ,    0 ,    0 ,    0 ,    0 ,    9 ,    9 ,    0 ,    0 ,    0 ,    0 ,    0 ,  121 ,  175 ,  252 ,  217 ,   40 ,    8 ,    0 ,   46 ,  201 ,   74 ,    8 ,  205 ,  239 ,  234 ,  198 
E: 000000.317543 64 01 83 80 81 7f 00 00 39 08 00 00 00 16 76 2a eb f6 ff ee ff 0b 00 30 00 44 1f 3b 05 0c 90 fc d9 08 80 00 00 00 80 00 00 00 00 09 09 00 00 00 00 00 79 af fc d9 28 08 00 2e c9 4a 08 cd ef ea c6
# ReportID: 1 / X:  131 | Y:  128 | Z:  129 | Rz:  127 | Rx:    0 | Ry:    0 | 0xff000020:   58 | Hat switch:   8 | Button: 0  0  0  0  0  0  0  0  0  0  0  0  0  0  0 | 0xff000021: 0 , 0 , 0 , 0 , 0 , 0 , 0 , 0 , 0 , 0 , 0 , 0 , 0 | 0xff000022:   23 ,  118 ,   42 ,  235 ,  247 ,  255 ,  239 ,  255 ,   11 ,    0 ,   52 ,    0 ,   61 ,   31 ,   61 ,    5 ,  255 ,  190 ,  252 ,  217 ,    8 ,  128 ,    0 ,    0 ,    0 ,  128 ,    0 ,    0 ,    0 ,    0 ,    9 ,    9 ,    0 ,    0 ,    0 ,    0 ,    0 ,   89 ,  222 ,  252 ,  217 ,   40 ,    8 ,    0 ,   57 ,  167 ,   82 ,  207 ,  212 ,    3 ,   71 ,  140 
E: 000000.321592 64 01 83 80 81 7f 00 00 3a 08 00 00 00 17 76 2a eb f7 ff ef ff 0b 00 34 00 3d 1f 3d 05 ff be fc d9 08 80 00 00 00 80 00 00 00 00 09 09 00 00 00 00 00 59 de fc d9 28 08 00 39 a7 52 cf d4 03 47 8c
# ReportID: 1 / X:  131 | Y:  128 | Z:  130 | Rz:  127 | Rx:    0 | Ry:    0 | 0xff000020:   59 | Hat switch:   8 | Button: 0  0  0  0  0  0  0  0  0  0  0  0  0  0  0 | 0xff000021: 0 , 0 , 0 , 0 , 0 , 0 , 0 , 0 , 0 , 0 , 0 , 0 , 0 | 0xff000022:   24 ,  118 ,   42 ,  235 ,  247 ,  255 ,  238 ,  255 ,   10 ,    0 ,   53 ,    0 ,  106 ,   31 ,   83 ,    5 ,  242 ,  237 ,  252 ,  217 ,    8 ,  128 ,    0 ,    0 ,    0 ,  128 ,    0 ,    0 ,    0 ,    0 ,    9 ,    9 ,    0 ,    0 ,    0 ,    0 ,    0 ,   57 ,   13 ,  253 ,  217 ,   40 ,    8 ,    0 ,   43 ,  160 ,  113 ,  169 ,  195 ,   55 ,  181 ,  110 
E: 000000.327392 64 01 83 80 82 7f 00 00 3b 08 00 00 00 18 76 2a eb f7 ff ee ff 0a 00 35 00 6a 1f 53 05 f2 ed fc d9 08 80 00 00 00 80 00 00 00 00 09 09 00 00 00 00 00 39 0d fd d9 28 08 00 2b a0 71 a9 c3 37 b5 6e
# ReportID: 1 / X:  131 | Y:  128 | Z:  129 | Rz:  127 | Rx:    0 | Ry:    0 | 0xff000020:   60 | Hat switch:   8 | Button: 0  0  0  0  0  0  0  0  0  0  0  0  0  0  0 | 0xff000021: 0 , 0 , 0 , 0 , 0 , 0 , 0 , 0 , 0 , 0 , 0 , 0 , 0 | 0xff000022:   25 ,  118 ,   42 ,  235 ,  248 ,  255 ,  238 ,  255 ,   11 ,    0 ,   52 ,    0 ,   72 ,   31 ,   59 ,    5 ,  229 ,   28 ,  253 ,  217 ,    8 ,  128 ,    0 ,    0 ,    0 ,  128 ,    0 ,    0 ,    0 ,    0 ,    9 ,    9 ,    0 ,    0 ,    0 ,    0 ,    0 ,   25 ,   60 ,  253 ,  217 ,   40 ,    8 ,    0 ,   67 ,   37 ,  255 ,  110 ,  199 ,   95 ,  148 ,   64 
E: 000000.330886 64 01 83 80 81 7f 00 00 3c 08 00 00 00 19 76 2a eb f8 ff ee ff 0b 00 34 00 48 1f 3b 05 e5 1c fd d9 08 80 00 00 00 80 00 00 00 00 09 09 00 00 00 00 00 19 3c fd d9 28 08 00 43 25 ff 6e c7 5f 94 40
# ReportID: 1 / X:  131 | Y:  128 | Z:  129 | Rz:  127 | Rx:    0 | Ry:    0 | 0xff000020:   61 | Hat switch:   8 | Button: 0  0  0  0  0  0  0  0  0  0  0  0  0  0  0 | 0xff000021: 0 , 0 , 0 , 0 , 0 , 0 , 0 , 0 , 0 , 0 , 0 , 0 , 0 | 0xff000022:   26 ,  118 ,   42 ,  235 ,  247 ,  255 ,  239 ,  255 ,   11 ,    0 ,   53 ,    0 ,   94 ,   31 ,   73 ,    5 ,  216 ,   75 ,  253 ,  217 ,    8 ,  128 ,    0 ,    0 ,    0 ,  128 ,    0 ,    0 ,    0 ,    0 ,    9 ,    9 ,    0 ,    0 ,    0 ,    0 ,    0 ,  249 ,  106 ,  253 ,  217 ,   40 ,    8 ,    0 ,   95 ,   16 ,  212 ,  204 ,   84 ,    1 ,  222 ,  169 
E: 000000.334347 64 01 83 80 81 7f 00 00 3d 08 00 00 00 1a 76 2a eb f7 ff ef ff 0b 00 35 00 5e 1f 49 05 d8 4b fd d9 08 80 00 00 00 80 00 00 00 00 09 09 00 00 00 00 00 f9 6a fd d9 28 08 00 5f 10 d4 cc 54 01 de a9
# ReportID: 1 / X:  131 | Y:  128 | Z:  130 | Rz:  127 | Rx:    0 | Ry:    0 | 0xff000020:   62 | Hat switch:   8 | Button: 0  0  0  0  0  0  0  0  0  0  0  0  0  0  0 | 0xff000021: 0 , 0 , 0 , 0 , 0 , 0 , 0 , 0 , 0 , 0 , 0 , 0 , 0 | 0xff000022:   27 ,  118 ,   42 ,  235 ,  247 ,  255 ,  238 ,  255 ,   13 ,    0 ,   48 ,    0 ,   81 ,   31 ,   58 ,    5 ,  203 ,  122 ,  253 ,  217 ,    8 ,  128 ,    0 ,    0 ,    0 ,  128 ,    0 ,    0 ,    0 ,    0 ,    9 ,    9 ,    0 ,    0 ,    0 ,    0 ,    0 ,  217 ,  153 ,  253 ,  217 ,   40 ,    8 ,    0 ,  214 ,  118 ,   24 ,   88 ,   67 ,  167 ,  167 ,   72 
E: 000000.337608 64 01 83 80 82 7f 00 00 3e 08 00 00 00 1b 76 2a eb f7 ff ee ff 0d 00 30 00 51 1f 3a 05 cb 7a fd d9 08 80 00 00 00 80 00 00 00 00 09 09 00 00 00 00 00 d9 99 fd d9 28 08 00 d6 76 18 58 43 a7 a7 48
# ReportID: 1 / X:  131 | Y:  128 | Z:  129 | Rz:  127 | Rx:    0 | Ry:    0 | 0xff000020:   63 | Hat switch:   8 | Button: 0  0  0  0  0  0  0  0  0  0  0  0  0  0  0 | 0xff000021: 0 , 0 , 0 , 0 , 0 , 0 , 0 , 0 , 0 , 0 , 0 , 0 , 0 | 0xff000022:   28 ,  118 ,   42 ,  235 ,  247 ,  255 ,  239 ,  255 ,   11 ,    0 ,   54 ,    0 ,   90 ,   31 ,   67 ,    5 ,  190 ,  169 ,  253 ,  217 ,    8 ,  128 ,    0 ,    0 ,    0 ,  128 ,    0 ,    0 ,    0 ,    0 ,    9 ,    9 ,    0 ,    0 ,    0 ,    0 ,    0 ,  185 ,  200 ,  253 ,  217 ,   40 ,    8 ,    0 ,   96 ,   82 ,  134 ,  106 ,  151 ,   98 ,  182 ,  109 
E: 000000.341515 64 01 83 80 81 7f 00 00 3f 08 00 00 00 1c 76 2a eb f7 ff ef ff 0b 00 36 00 5a 1f 43 05 be a9 fd d9 08 80 00 00 00 80 00 00 00 00 09 09 00 00 00 00 00 b9 c8 fd d9 28 08 00 60 52 86 6a 97 62 b6 6d
# ReportID: 1 / X:  131 | Y:  128 | Z:  130 | Rz:  127 | Rx:    0 | Ry:    0 | 0xff000020:   64 | Hat switch:   8 | Button: 0  0  0  0  0  0  0  0  0  0  0  0  0  0  0 | 0xff000021: 0 , 0 , 0 , 0 , 0 , 0 , 0 , 0 , 0 , 0 , 0 , 0 , 0 | 0xff000022:   29 ,  118 ,   42 ,  235 ,  248 ,  255 ,  238 ,  255 ,   12 ,    0 ,   54 ,    0 ,   64 ,   31 ,   52 ,    5 ,  177 ,  216 ,  253 ,  217 ,    8 ,  128 ,    0 ,    0 ,    0 ,  128 ,    0 ,    0 ,    0 ,    0 ,    9 ,    9 ,    0 ,    0 ,    0 ,    0 ,    0 ,  153 ,  247 ,  253 ,  217 ,   40 ,    8 ,    0 ,   88 ,  235 ,   15 ,   17 ,  243 ,   25 ,   10 ,   58 
E: 000000.346749 64 01 83 80 82 7f 00 00 40 08 00 00 00 1d 76 2a eb f8 ff ee ff 0c 00 36 00 40 1f 34 05 b1 d8 fd d9 08 80 00 00 00 80 00 00 00 00 09 09 00 00 00 00 00 99 f7 fd d9 28 08 00 58 eb 0f 11 f3 19 0a 3a
# ReportID: 1 / X:  131 | Y:  128 | Z:  129 | Rz:  127 | Rx:    0 | Ry:    0 | 0xff000020:   65 | Hat switch:   8 | Button: 0  0  0  0  0  0  0  0  0  0  0  0  0  0  0 | 0xff000021: 0 , 0 , 0 , 0 , 0 , 0 , 0 , 0 , 0 , 0 , 0 , 0 , 0 | 0xff000022:   30 ,  118 ,   42 ,  235 ,  247 ,  255 ,  239 ,  255 ,   11 ,    0 ,   42 ,    0 ,   84 ,   31 ,   61 ,    5 ,  165 ,    7 ,  254 ,  217 ,    8 ,  128 ,    0 ,    0 ,    0 ,  128 ,    0 ,    0 ,    0 ,    0 ,    9 ,    9 ,    0 ,    0 ,    0 ,    0 ,    0 ,  121 ,   38 ,  254 ,  217 ,   40 ,    8 ,    0 ,  177 ,  216 ,   16 ,  143 ,  245 ,  254 ,   77 ,  123 
E: 000000.350372 64 01 83 80 81 7f 00 00 41 08 00 00 00 1e 76 2a eb f7 ff ef ff 0b 00 2a 00 54 1f 3d 05 a5 07 fe d9 08 80 00 00 00 80 00 00 00 00 09 09 00 00 00 00 00 79 26 fe d9 28 08 00 b1 d8 10 8f f5 fe 4d 7b
# ReportID: 1 / X:  131 | Y:  128 | Z:  129 | Rz:  127 | Rx:    0 | Ry:    0 | 0xff000020:   66 | Hat switch:   8 | Button: 0  0  0  0  0  0  0  0  0  0  0  0  0  0  0 | 0xff000021: 0 , 0 , 0 , 0 , 0 , 0 , 0 , 0 , 0 , 0 , 0 , 0 , 0 | 0xff000022:   31 ,  118 ,   42 ,  235 ,  248 ,  255 ,  238 ,  255 ,   10 ,    0 ,   57 ,    0 ,   54 ,   31 ,   45 ,    5 ,  152 ,   54 ,  254 ,  217 ,    8 ,  128 ,    0 ,    0 ,    0 ,  128 ,    0 ,    0 ,    0 ,    0 ,    9 ,    9 ,    0 ,    0 ,    0 ,    0 ,    0 ,   89 ,   85 ,  254 ,  217 ,   40 ,    8 ,    0 ,   23 ,   23 ,  251 ,  229 ,   70 ,  174 ,   34 ,  217 
E: 000000.354084 64 01 83 80 81 7f 00 00 42 08 00 00 00 1f 76 2a eb f8 ff ee ff 0a 00 39 00 36 1f 2d 05 98 36 fe d9 08 80 00 00 00 80 00 00 00 00 09 09 00 00 00 00 00 59 55 fe d9 28 08 00 17 17 fb e5 46 ae 22 d9
# ReportID: 1 / X:  131 | Y:  128 | Z:  129 | Rz:  127 | Rx:    0 | Ry:    0 | 0xff000020:   67 | Hat switch:   8 | Button: 0  0  0  0  0  0  0  0  0  0  0  0  0  0  0 | 0xff000021: 0 , 0 , 0 , 0 , 0 , 0 , 0 , 0 , 0 , 0 , 0 , 0 , 0 | 0xff000022:   32 ,  118 ,   42 ,  235 ,  248 ,  255 ,  239 ,  255 ,   10 ,    0 ,   39 ,    0 ,   81 ,   31 ,   59 ,    5 ,  139 ,  101 ,  254 ,  217 ,    8 ,  128 ,    0 ,    0 ,    0 ,  128 ,    0 ,    0 ,    0 ,    0 ,    9 ,    9 ,    0 ,    0 ,    0 ,    0 ,    0 ,   57 ,  132 ,  254 ,  217 ,   40 ,    8 ,    0 ,  171 ,  216 ,   12 ,  208 ,   54 ,   74 ,  250 ,   27 
E: 000000.358022 64 01 83 80 81 7f 00 00 43 08 00 00 00 20 76 2a eb f8 ff ef ff 0a 00 27 00 51 1f 3b 05 8b 65 fe d9 08 80 00 00 00 80 00 00 00 00 09 09 00 00 00 00 00 39 84 fe d9 28 08 00 ab d8 0c d0 36 4a fa 1b
# ReportID: 1 / X:  131 | Y:  128 | Z:  129 | Rz:  127 | Rx:    0 | Ry:    0 | 0xff000020:   68 | Hat switch:   8 | Button: 0  0  0  0  0  0  0  0  0  0  0  0  0  0  0 | 0xff000021: 0 , 0 , 0 , 0 , 0 , 0 , 0 , 0 , 0 , 0 , 0 , 0 , 0 | 0xff000022:   33 ,  118 ,   42 ,  235 ,  249 ,  255 ,  238 ,  255 ,   11 ,    0 ,   50 ,    0 ,   78 ,   31 ,   43 ,    5 ,  126 ,  148 ,  254 ,  217 ,    8 ,  128 ,    0 ,    0 ,    0 ,  128 ,    0 ,    0 ,    0 ,    0 ,    9 ,    9 ,    0 ,    0 ,    0 ,    0 ,    0 ,   25 ,  179 ,  254 ,  217 ,   40 ,    8 ,    0 ,  138 ,  104 ,  118 ,  234 ,  240 ,  178 ,  217 ,   80 
E: 000000.361689 64 01 83 80 81 7f 00 00 44 08 00 00 00 21 76 2a eb f9 ff ee ff 0b 00 32 00 4e 1f 2b 05 7e 94 fe d9 08 80 00 00 00 80 00 00 00 00 09 09 00 00 00 00 00 19 b3 fe d9 28 08 00 8a 68 76 ea f0 b2 d9 50
# ReportID: 1 / X:  131 | Y:  128 | Z:  129 | Rz:  127 | Rx:    0 | Ry:    0 | 0xff000020:   69 | Hat switch:   8 | Button: 0  0  0  0  0  0  0  0  0  0  0  0  0  0  0 | 0xff000021: 0 , 0 , 0 , 0 , 0 , 0 , 0 , 0 , 0 , 0 , 0 , 0 , 0 | 0xff000022:   34 ,  118 ,   42 ,  235 ,  246 ,  255 ,  239 ,  255 ,   10 ,    0 ,   46 ,    0 ,   99 ,   31 ,   54 ,    5 ,  113 ,  195 ,  254 ,  217 ,    8 ,  128 ,    0 ,    0 ,    0 ,  128 ,    0 ,    0 ,    0 ,    0 ,    9 ,    9 ,    0 ,    0 ,    0 ,    0 ,    0 ,  249 ,  225 ,  254 ,  217 ,   40 ,    8 ,    0 ,  139 ,   19 ,  133 ,  195 ,  179 ,  227 ,  228 ,  212 
E: 000000.367010 64 01 83 80 81 7f 00 00 45 08 00 00 00 22 76 2a eb f6 ff ef ff 0a 00 2e 00 63 1f 36 05 71 c3 fe d9 08 80 00 00 00 80 00 00 00 00 09 09 00 00 00 00 00 f9 e1 fe d9 28 08 00 8b 13 85 c3 b3 e3 e4 d4
# ReportID: 1 / X:  131 | Y:  128 | Z:  129 | Rz:  127 | Rx:    0 | Ry:    0 | 0xff000020:   70 | Hat switch:   8 | Button: 0  0  0  0  0  0  0  0  0  0  0  0  0  0  0 | 0xff000021: 0 , 0 , 0 , 0 , 0 , 0 , 0 , 0 , 0 , 0 , 0 , 0 , 0 | 0xff000022:   35 ,  118 ,   42 ,  235 ,  247 ,  255 ,  238 ,  255 ,   11 ,    0 ,   59 ,    0 ,   87 ,   31 ,   40 ,    5 ,  100 ,  242 ,  254 ,  217 ,    8 ,  128 ,    0 ,    0 ,    0 ,  128 ,    0 ,    0 ,    0 ,    0 ,    9 ,    9 ,    0 ,    0 ,    0 ,    0 ,    0 ,  217 ,   16 ,  255 ,  217 ,   40 ,    8 ,    0 ,   13 ,  187 ,  220 ,  140 ,  119 ,    4 ,  130 ,   30 
E: 000000.370904 64 01 83 80 81 7f 00 00 46 08 00 00 00 23 76 2a eb f7 ff ee ff 0b 00 3b 00 57 1f 28 05 64 f2 fe d9 08 80 00 00 00 80 00 00 00 00 09 09 00 00 00 00 00 d9 10 ff d9 28 08 00 0d bb dc 8c 77 04 82 1e
# ReportID: 1 / X:  131 | Y:  128 | Z:  130 | Rz:  127 | Rx:    0 | Ry:    0 | 0xff000020:   71 | Hat switch:   8 | Button: 0  0  0  0  0  0  0  0  0  0  0  0  0  0  0 | 0xff000021: 0 , 0 , 0 , 0 , 0 , 0 , 0 , 0 , 0 , 0 , 0 , 0 , 0 | 0xff000022:   36 ,  118 ,   42 ,  235 ,  247 ,  255 ,  238 ,  255 ,   11 ,    0 ,   47 ,    0 ,  103 ,   31 ,   77 ,    5 ,   87 ,   33 ,  255 ,  217 ,    8 ,  128 ,    0 ,    0 ,    0 ,  128 ,    0 ,    0 ,    0 ,    0 ,    9 ,    9 ,    0 ,    0 ,    0 ,    0 ,    0 ,  184 ,   63 ,  255 ,  217 ,   40 ,    8 ,    0 ,   82 ,  224 ,   59 ,  113 ,  220 ,  163 ,  216 ,  125 
E: 000000.374334 64 01 83 80 82 7f 00 00 47 08 00 00 00 24 76 2a eb f7 ff ee ff 0b 00 2f 00 67 1f 4d 05 57 21 ff d9 08 80 00 00 00 80 00 00 00 00 09 09 00 00 00 00 00 b8 3f ff d9 28 08 00 52 e0 3b 71 dc a3 d8 7d
# ReportID: 1 / X:  131 | Y:  128 | Z:  130 | Rz:  127 | Rx:    0 | Ry:    0 | 0xff000020:   72 | Hat switch:   8 | Button: 0  0  0  0  0  0  0  0  0  0  0  0  0  0  0 | 0xff000021: 0 , 0 , 0 , 0 , 0 , 0 , 0 , 0 , 0 , 0 , 0 , 0 , 0 | 0xff000022:   37 ,  118 ,   42 ,  235 ,  248 ,  255 ,  238 ,  255 ,   12 ,    0 ,   51 ,    0 ,   69 ,   31 ,   38 ,    5 ,   74 ,   80 ,  255 ,  217 ,    8 ,  128 ,    0 ,    0 ,    0 ,  128 ,    0 ,    0 ,    0 ,    0 ,    9 ,    9 ,    0 ,    0 ,    0 ,    0 ,    0 ,  152 ,  110 ,  255 ,  217 ,   40 ,    8 ,    0 ,   52 ,  145 ,  164 ,   43 ,  126 ,   74 ,  163 ,  231 
E: 000000.377598 64 01 83 80 82 7f 00 00 48 08 00 00 00 25 76 2a eb f8 ff ee ff 0c 00 33 00 45 1f 26 05 4a 50 ff d9 08 80 00 00 00 80 00 00 00 00 09 09 00 00 00 00 00 98 6e ff d9 28 08 00 34 91 a4 2b 7e 4a a3 e7
# ReportID: 1 / X:  131 | Y:  128 | Z:  129 | Rz:  127 | Rx:    0 | Ry:    0 | 0xff000020:   73 | Hat switch:   8 | Button: 0  0  0  0  0  0  0  0  0  0  0  0  0  0  0 | 0xff000021: 0 , 0 , 0 , 0 , 0 , 0 , 0 , 0 , 0 , 0 , 0 , 0 , 0 | 0xff000022:   38 ,  118 ,   42 ,  235 ,  246 ,  255 ,  238 ,  255 ,   10 ,    0 ,   44 ,    0 ,  100 ,   31 ,   68 ,    5 ,   61 ,  127 ,  255 ,  217 ,    8 ,  128 ,    0 ,    0 ,    0 ,  128 ,    0 ,    0 ,    0 ,    0 ,    9 ,    9 ,    0 ,    0 ,    0 ,    0 ,    0 ,  120 ,  157 ,  255 ,  217 ,   40 ,    8 ,    0 ,   71 ,  131 ,  239 ,   59 ,   54 ,  155 ,  195 ,  220 
E: 000000.381572 64 01 83 80 81 7f 00 00 49 08 00 00 00 26 76 2a eb f6 ff ee ff 0a 00 2c 00 64 1f 44 05 3d 7f ff d9 08 80 00 00 00 80 00 00 00 00 09 09 00 00 00 00 00 78 9d ff d9 28 08 00 47 83 ef 3b 36 9b c3 dc
# ReportID: 1 / X:  131 | Y:  128 | Z:  129 | Rz:  127 | Rx:    0 | Ry:    0 | 0xff000020:   74 | Hat switch:   8 | Button: 0  0  0  0  0  0  0  0  0  0  0  0  0  0  0 | 0xff000021: 0 , 0 , 0 , 0 , 0 , 0 , 0 , 0 , 0 , 0 , 0 , 0 , 0 | 0xff000022:   39 ,  118 ,   42 ,  235 ,  247 ,  255 ,  237 ,  255 ,   11 ,    0 ,   66 ,    0 ,   72 ,   31 ,   42 ,    5 ,   49 ,  174 ,  255 ,  217 ,    8 ,  128 ,    0 ,    0 ,    0 ,  128 ,    0 ,    0 ,    0 ,    0 ,    9 ,    9 ,    0 ,    0 ,    0 ,    0 ,    0 ,   88 ,  204 ,  255 ,  217 ,   40 ,    8 ,    0 ,   72 ,  251 ,  148 ,  209 ,  204 ,  141 ,   59 ,  250 
E: 000000.387206 64 01 83 80 81 7f 00 00 4a 08 00 00 00 27 76 2a eb f7 ff ed ff 0b 00 42 00 48 1f 2a 05 31 ae ff d9 08 80 00 00 00 80 00 00 00 00 09 09 00 00 00 00 00 58 cc ff d9 28 08 00 48 fb 94 d1 cc 8d 3b fa
# ReportID: 1 / X:  131 | Y:  128 | Z:  129 | Rz:  127 | Rx:    0 | Ry:    0 | 0xff000020:   75 | Hat switch:   8 | Button: 0  0  0  0  0  0  0  0  0  0  0  0  0  0  0 | 0xff000021: 0 , 0 , 0 , 0 , 0 , 0 , 0 , 0 , 0 , 0 , 0 , 0 , 0 | 0xff000022:   40 ,  118 ,   42 ,  235 ,  246 ,  255 ,  238 ,  255 ,   10 ,    0 ,   53 ,    0 ,   91 ,   31 ,   59 ,    5 ,   36 ,  221 ,  255 ,  217 ,    8 ,  128 ,    0 ,    0 ,    0 ,  128 ,    0 ,    0 ,    0 ,    0 ,    9 ,    9 ,    0 ,    0 ,    0 ,    0 ,    0 ,   56 ,  251 ,  255 ,  217 ,   40 ,    8 ,    0 ,  247 ,  139 ,  152 ,  237 ,  142 ,   53 ,  111 ,   26 
E: 000000.390868 64 01 83 80 81 7f 00 00 4b 08 00 00 00 28 76 2a eb f6 ff ee ff 0a 00 35 00 5b 1f 3b 05 24 dd ff d9 08 80 00 00 00 80 00 00 00 00 09 09 00 00 00 00 00 38 fb ff d9 28 08 00 f7 8b 98 ed 8e 35 6f 1a
# ReportID: 1 / X:  131 | Y:  128 | Z:  129 | Rz:  127 | Rx:    0 | Ry:    0 | 0xff000020:   76 | Hat switch:   8 | Button: 0  0  0  0  0  0  0  0  0  0  0  0  0  0  0 | 0xff000021: 0 , 0 , 0 , 0 , 0 , 0 , 0 , 0 , 0 , 0 , 0 , 0 , 0 | 0xff000022:   41 ,  118 ,   42 ,  235 ,  248 ,  255 ,  237 ,  255 ,   11 ,    0 ,   58 ,    0 ,   79 ,   31 ,   47 ,    5 ,   23 ,   12 ,    0 ,  218 ,    8 ,  128 ,    0 ,    0 ,    0 ,  128 ,    0 ,    0 ,    0 ,    0 ,    9 ,    9 ,    0 ,    0 ,    0 ,    0 ,    0 ,   24 ,   42 ,    0 ,  218 ,   40 ,    8 ,    0 ,   52 ,  251 ,  117 ,   20 ,  103 ,  187 ,  117 ,  178 
E: 000000.394515 64 01 83 80 81 7f 00 00 4c 08 00 00 00 29 76 2a eb f8 ff ed ff 0b 00 3a 00 4f 1f 2f 05 17 0c 00 da 08 80 00 00 00 80 00 00 00 00 09 09 00 00 00 00 00 18 2a 00 da 28 08 00 34 fb 75 14 67 bb 75 b2
# ReportID: 1 / X:  131 | Y:  128 | Z:  129 | Rz:  127 | Rx:    0 | Ry:    0 | 0xff000020:   77 | Hat switch:   8 | Button: 0  0  0  0  0  0  0  0  0  0  0  0  0  0  0 | 0xff000021: 0 , 0 , 0 , 0 , 0 , 0 , 0 , 0 , 0 , 0 , 0 , 0 , 0 | 0xff000022:   42 ,  118 ,   42 ,  235 ,  247 ,  255 ,  238 ,  255 ,   10 ,    0 ,   53 ,    0 ,   75 ,   31 ,   56 ,    5 ,   10 ,   59 ,    0 ,  218 ,    8 ,  128 ,    0 ,    0 ,    0 ,  128 ,    0 ,    0 ,    0 ,    0 ,    9 ,    9 ,    0 ,    0 ,    0 ,    0 ,    0 ,  248 ,   88 ,    0 ,  218 ,   40 ,    8 ,    0 ,  142 ,   10 ,    5 ,  142 ,   50 ,   94 ,   10 ,  183 
E: 000000.398446 64 01 83 80 81 7f 00 00 4d 08 00 00 00 2a 76 2a eb f7 ff ee ff 0a 00 35 00 4b 1f 38 05 0a 3b 00 da 08 80 00 00 00 80 00 00 00 00 09 09 00 00 00 00 00 f8 58 00 da 28 08 00 8e 0a 05 8e 32 5e 0a b7
# ReportID: 1 / X:  131 | Y:  128 | Z:  129 | Rz:  127 | Rx:    0 | Ry:    0 | 0xff000020:   78 | Hat switch:   8 | Button: 0  0  0  0  0  0  0  0  0  0  0  0  0  0  0 | 0xff000021: 0 , 0 , 0 , 0 , 0 , 0 , 0 , 0 , 0 , 0 , 0 , 0 , 0 | 0xff000022:   43 ,  118 ,   42 ,  235 ,  248 ,  255 ,  239 ,  255 ,   11 ,    0 ,   57 ,    0 ,   74 ,   31 ,   56 ,    5 ,  253 ,  105 ,    0 ,  218 ,    8 ,  128 ,    0 ,    0 ,    0 ,  128 ,    0 ,    0 ,    0 ,    0 ,    9 ,    9 ,    0 ,    0 ,    0 ,    0 ,    0 ,  216 ,  135 ,    0 ,  218 ,   40 ,    8 ,    0 ,   55 ,  167 ,  193 ,   66 ,  178 ,  144 ,   86 ,  143 
E: 000000.401921 64 01 83 80 81 7f 00 00 4e 08 00 00 00 2b 76 2a eb f8 ff ef ff 0b 00 39 00 4a 1f 38 05 fd 69 00 da 08 80 00 00 00 80 00 00 00 00 09 09 00 00 00 00 00 d8 87 00 da 28 08 00 37 a7 c1 42 b2 90 56 8f
# ReportID: 1 / X:  131 | Y:  128 | Z:  129 | Rz:  127 | Rx:    0 | Ry:    0 | 0xff000020:   79 | Hat switch:   8 | Button: 0  0  0  0  0  0  0  0  0  0  0  0  0  0  0 | 0xff000021: 0 , 0 , 0 , 0 , 0 , 0 , 0 , 0 , 0 , 0 , 0 , 0 , 0 | 0xff000022:   44 ,  118 ,   42 ,  235 ,  246 ,  255 ,  237 ,  255 ,   10 ,    0 ,   55 ,    0 ,   86 ,   31 ,   59 ,    5 ,  240 ,  152 ,    0 ,  218 ,    8 ,  128 ,    0 ,    0 ,    0 ,  128 ,    0 ,    0 ,    0 ,    0 ,    9 ,    9 ,    0 ,    0 ,    0 ,    0 ,    0 ,  184 ,  182 ,    0 ,  218 ,   40 ,    8 ,    0 ,  126 ,  124 ,  212 ,  194 ,  182 ,  242 ,  129 ,  191 
E: 000000.405617 64 01 83 80 81 7f 00 00 4f 08 00 00 00 2c 76 2a eb f6 ff ed ff 0a 00 37 00 56 1f 3b 05 f0 98 00 da 08 80 00 00 00 80 00 00 00 00 09 09 00 00 00 00 00 b8 b6 00 da 28 08 00 7e 7c d4 c2 b6 f2 81 bf
# ReportID: 1 / X:  131 | Y:  128 | Z:  130 | Rz:  127 | Rx:    0 | Ry:    0 | 0xff000020:   80 | Hat switch:   8 | Button: 0  0  0  0  0  0  0  0  0  0  0  0  0  0  0 | 0xff000021: 0 , 0 , 0 , 0 , 0 , 0 , 0 , 0 , 0 , 0 , 0 , 0 , 0 | 0xff000022:   45 ,  118 ,   42 ,  235 ,  247 ,  255 ,  239 ,  255 ,   12 ,    0 ,   60 ,    0 ,   91 ,   31 ,   51 ,    5 ,  227 ,  199 ,    0 ,  218 ,    8 ,  128 ,    0 ,    0 ,    0 ,  128 ,    0 ,    0 ,    0 ,    0 ,    9 ,    9 ,    0 ,    0 ,    0 ,    0 ,    0 ,  152 ,  229 ,    0 ,  218 ,   40 ,    8 ,    0 ,  232 ,  154 ,  242 ,  208 ,  232 ,  127 ,  233 ,  228 
E: 000000.409571 64 01 83 80 82 7f 00 00 50 08 00 00 00 2d 76 2a eb f7 ff ef ff 0c 00 3c 00 5b 1f 33 05 e3 c7 00 da 08 80 00 00 00 80 00 00 00 00 09 09 00 00 00 00 00 98 e5 00 da 28 08 00 e8 9a f2 d0 e8 7f e9 e4
# ReportID: 1 / X:  131 | Y:  128 | Z:  129 | Rz:  127 | Rx:    0 | Ry:    0 | 0xff000020:   81 | Hat switch:   8 | Button: 0  0  0  0  0  0  0  0  0  0  0  0  0  0  0 | 0xff000021: 0 , 0 , 0 , 0 , 0 , 0 , 0 , 0 , 0 , 0 , 0 , 0 , 0 | 0xff000022:   46 ,  118 ,   42 ,  235 ,  247 ,  255 ,  238 ,  255 ,   12 ,    0 ,   49 ,    0 ,  103 ,   31 ,   74 ,    5 ,  214 ,  246 ,    0 ,  218 ,    8 ,  128 ,    0 ,    0 ,    0 ,  128 ,    0 ,    0 ,    0 ,    0 ,    9 ,    9 ,    0 ,    0 ,    0 ,    0 ,    0 ,  120 ,   20 ,    1 ,  218 ,   40 ,    8 ,    0 ,  155 ,  114 ,  242 ,  162 ,  113 ,   89 ,  119 ,  213 
E: 000000.413717 64 01 83 80 81 7f 00 00 51 08 00 00 00 2e 76 2a eb f7 ff ee ff 0c 00 31 00 67 1f 4a 05 d6 f6 00 da 08 80 00 00 00 80 00 00 00 00 09 09 00 00 00 00 00 78 14 01 da 28 08 00 9b 72 f2 a2 71 59 77 d5
# ReportID: 1 / X:  131 | Y:  128 | Z:  129 | Rz:  127 | Rx:    0 | Ry:    0 | 0xff000020:   82 | Hat switch:   8 | Button: 0  0  0  0  0  0  0  0  0  0  0  0  0  0  0 | 0xff000021: 0 , 0 , 0 , 0 , 0 , 0 , 0 , 0 , 0 , 0 , 0 , 0 , 0 | 0xff000022:   47 ,  118 ,   42 ,  235 ,  244 ,  255 ,  239 ,  255 ,   11 ,    0 ,   54 ,    0 ,   88 ,   31 ,   53 ,    5 ,  202 ,   37 ,    1 ,  218 ,    8 ,  128 ,    0 ,    0 ,    0 ,  128 ,    0 ,    0 ,    0 ,    0 ,    9 ,    9 ,    0 ,    0 ,    0 ,    0 ,    0 ,   88 ,   67 ,    1 ,  218 ,   40 ,    8 ,    0 ,  143 ,  104 ,  195 ,   48 ,  225 ,   17 ,  164 ,   12 
E: 000000.417540 64 01 83 80 81 7f 00 00 52 08 00 00 00 2f 76 2a eb f4 ff ef ff 0b 00 36 00 58 1f 35 05 ca 25 01 da 08 80 00 00 00 80 00 00 00 00 09 09 00 00 00 00 00 58 43 01 da 28 08 00 8f 68 c3 30 e1 11 a4 0c
# ReportID: 1 / X:  131 | Y:  128 | Z:  129 | Rz:  127 | Rx:    0 | Ry:    0 | 0xff000020:   83 | Hat switch:   8 | Button: 0  0  0  0  0  0  0  0  0  0  0  0  0  0  0 | 0xff000021: 0 , 0 , 0 , 0 , 0 , 0 , 0 , 0 , 0 , 0 , 0 , 0 , 0 | 0xff000022:   48 ,  118 ,   42 ,  235 ,  247 ,  255 ,  239 ,  255 ,   10 ,    0 ,   55 ,    0 ,   77 ,   31 ,   38 ,    5 ,  189 ,   84 ,    1 ,  218 ,    8 ,  128 ,    0 ,    0 ,    0 ,  128 ,    0 ,    0 ,    0 ,    0 ,    9 ,    9 ,    0 ,    0 ,    0 ,    0 ,    0 ,   56 ,  114 ,    1 ,  218 ,   40 ,    8 ,    0 ,  161 ,  121 ,    5 ,   18 ,  163 ,   42 ,  150 ,  124 
E: 000000.421640 64 01 83 80 81 7f 00 00 53 08 00 00 00 30 76 2a eb f7 ff ef ff 0a 00 37 00 4d 1f 26 05 bd 54 01 da 08 80 00 00 00 80 00 00 00 00 09 09 00 00 00 00 00 38 72 01 da 28 08 00 a1 79 05 12 a3 2a 96 7c
# ReportID: 1 / X:  131 | Y:  128 | Z:  129 | Rz:  127 | Rx:    0 | Ry:    0 | 0xff000020:   84 | Hat switch:   8 | Button: 0  0  0  0  0  0  0  0  0  0  0  0  0  0  0 | 0xff000021: 0 , 0 , 0 , 0 , 0 , 0 , 0 , 0 , 0 , 0 , 0 , 0 , 0 | 0xff000022:   49 ,  118 ,   42 ,  235 ,  247 ,  255 ,  239 ,  255 ,   12 ,    0 ,   39 ,    0 ,  116 ,   31 ,   72 ,    5 ,  176 ,  131 ,    1 ,  218 ,    8 ,  128 ,    0 ,    0 ,    0 ,  128 ,    0 ,    0 ,    0 ,    0 ,    9 ,    9 ,    0 ,    0 ,    0 ,    0 ,    0 ,   24 ,  161 ,    1 ,  218 ,   40 ,    8 ,    0 ,   84 ,  184 ,  253 ,  218 ,   39 ,   30 ,  233 ,  203 
E: 000000.426424 64 01 83 80 81 7f 00 00 54 08 00 00 00 31 76 2a eb f7 ff ef ff 0c 00 27 00 74 1f 48 05 b0 83 01 da 08 80 00 00 00 80 00 00 00 00 09 09 00 00 00 00 00 18 a1 01 da 28 08 00 54 b8 fd da 27 1e e9 cb
