# Sony Interactive Entertainment DualSense Wireless Controller
# 0x05, 0x01,                    // Usage Page (Generic Desktop)        0
# 0x09, 0x05,                    // Usage (Game Pad)                    2
# 0xa1, 0x01,                    // Collection (Application)            4
# 0x85, 0x01,                    //  Report ID (1)                      6
# 0x09, 0x30,                    //  Usage (X)                          8
# 0x09, 0x31,                    //  Usage (Y)                          10
# 0x09, 0x32,                    //  Usage (Z)                          12
# 0x09, 0x35,                    //  Usage (Rz)                         14
# 0x09, 0x33,                    //  Usage (Rx)                         16
# 0x09, 0x34,                    //  Usage (Ry)                         18
# 0x15, 0x00,                    //  Logical Minimum (0)                20
# 0x26, 0xff, 0x00,              //  Logical Maximum (255)              22
# 0x75, 0x08,                    //  Report Size (8)                    25
# 0x95, 0x06,                    //  Report Count (6)                   27
# 0x81, 0x02,                    //  Input (Data,Var,Abs)               29
# 0x06, 0x00, 0xff,              //  Usage Page (Vendor Defined Page 1) 31
# 0x09, 0x20,                    //  Usage (Vendor Usage 0x20)          34
# 0x95, 0x01,                    //  Report Count (1)                   36
# 0x81, 0x02,                    //  Input (Data,Var,Abs)               38
# 0x05, 0x01,                    //  Usage Page (Generic Desktop)       40
# 0x09, 0x39,                    //  Usage (Hat switch)                 42
# 0x15, 0x00,                    //  Logical Minimum (0)                44
# 0x25, 0x07,                    //  Logical Maximum (7)                46
# 0x35, 0x00,                    //  Physical Minimum (0)               48
# 0x46, 0x3b, 0x01,              //  Physical Maximum (315)             50
# 0x65, 0x14,                    //  Unit (EnglishRotation: deg)        53
# 0x75, 0x04,                    //  Report Size (4)                    55
# 0x95, 0x01,                    //  Report Count (1)                   57
# 0x81, 0x42,                    //  Input (Data,Var,Abs,Null)          59
# 0x65, 0x00,                    //  Unit (None)                        61
# 0x05, 0x09,                    //  Usage Page (Button)                63
# 0x19, 0x01,                    //  Usage Minimum (1)                  65
# 0x29, 0x0f,                    //  Usage Maximum (15)                 67
# 0x15, 0x00,                    //  Logical Minimum (0)                69
# 0x25, 0x01,                    //  Logical Maximum (1)                71
# 0x75, 0x01,                    //  Report Size (1)                    73
# 0x95, 0x0f,                    //  Report Count (15)                  75
# 0x81, 0x02,                    //  Input (Data,Var,Abs)               77
# 0x06, 0x00, 0xff,              //  Usage Page (Vendor Defined Page 1) 79
# 0x09, 0x21,                    //  Usage (Vendor Usage 0x21)          82
# 0x95, 0x0d,                    //  Report Count (13)                  84
# 0x81, 0x02,                    //  Input (Data,Var,Abs)               86
# 0x06, 0x00, 0xff,              //  Usage Page (Vendor Defined Page 1) 88
# 0x09, 0x22,                    //  Usage (Vendor Usage 0x22)          91
# 0x15, 0x00,                    //  Logical Minimum (0)                93
# 0x26, 0xff, 0x00,              //  Logical Maximum (255)              95
# 0x75, 0x08,                    //  Report Size (8)                    98
# 0x95, 0x34,                    //  Report Count (52)                  100
# 0x81, 0x02,                    //  Input (Data,Var,Abs)               102
# 0x85, 0x02,                    //  Report ID (2)                      104
# 0x09, 0x23,                    //  Usage (Vendor Usage 0x23)          106
# 0x95, 0x2f,                    //  Report Count (47)                  108
# 0x91, 0x02,                    //  Output (Data,Var,Abs)              110
# 0x85, 0x05,                    //  Report ID (5)                      112
# 0x09, 0x33,                    //  Usage (Vendor Usage 0x33)          114
# 0x95, 0x28,                    //  Report Count (40)                  116
# 0xb1, 0x02,                    //  Feature (Data,Var,Abs)             118
# 0x85, 0x08,                    //  Report ID (8)                      120
# 0x09, 0x34,                    //  Usage (Vendor Usage 0x34)          122
# 0x95, 0x2f,                    //  Report Count (47)                  124
# 0xb1, 0x02,                    //  Feature (Data,Var,Abs)             126
# 0x85, 0x09,                    //  Report ID (9)                      128
# 0x09, 0x24,                    //  Usage (Vendor Usage 0x24)          130
# 0x95, 0x13,                    //  Report Count (19)                  132
# 0xb1, 0x02,                    //  Feature (Data,Var,Abs)             134
# 0x85, 0x0a,                    //  Report ID (10)                     136
# 0x09, 0x25,                    //  Usage (Vendor Usage 0x25)          138
# 0x95, 0x1a,                    //  Report Count (26)                  140
# 0xb1, 0x02,                    //  Feature (Data,Var,Abs)             142
# 0x85, 0x20,                    //  Report ID (32)                     144
# 0x09, 0x26,                    //  Usage (Vendor Usage 0x26)          146
# 0x95, 0x3f,                    //  Report Count (63)                  148
# 0xb1, 0x02,                    //  Feature (Data,Var,Abs)             150
# 0x85, 0x21,                    //  Report ID (33)                     152
# 0x09, 0x27,                    //  Usage (Vendor Usage 0x27)          154
# 0x95, 0x04,                    //  Report Count (4)                   156
# 0xb1, 0x02,                    //  Feature (Data,Var,Abs)             158
# 0x85, 0x22,                    //  Report ID (34)                     160
# 0x09, 0x40,                    //  Usage (Vendor Usage 0x40)          162
# 0x95, 0x3f,                    //  Report Count (63)                  164
# 0xb1, 0x02,                    //  Feature (Data,Var,Abs)             166
# 0x85, 0x80,                    //  Report ID (128)                    168
# 0x09, 0x28,                    //  Usage (Vendor Usage 0x28)          170
# 0x95, 0x3f,                    //  Report Count (63)                  172
# 0xb1, 0x02,                    //  Feature (Data,Var,Abs)             174
# 0x85, 0x81,                    //  Report ID (129)                    176
# 0x09, 0x29,                    //  Usage (Vendor Usage 0x29)          178
# 0x95, 0x3f,                    //  Report Count (63)                  180
# 0xb1, 0x02,                    //  Feature (Data,Var,Abs)             182
# 0x85, 0x82,                    //  Report ID (130)                    184
# 0x09, 0x2a,                    //  Usage (Vendor Usage 0x2a)          186
# 0x95, 0x09,                    //  Report Count (9)                   188
# 0xb1, 0x02,                    //  Feature (Data,Var,Abs)             190
# 0x85, 0x83,                    //  Report ID (131)                    192
# 0x09, 0x2b,                    //  Usage (Vendor Usage 0x2b)          194
# 0x95, 0x3f,                    //  Report Count (63)                  196
# 0xb1, 0x02,                    //  Feature (Data,Var,Abs)             198
# 0x85, 0x84,                    //  Report ID (132)                    200
# 0x09, 0x2c,                    //  Usage (Vendor Usage 0x2c)          202
# 0x95, 0x3f,                    //  Report Count (63)                  204
# 0xb1, 0x02,                    //  Feature (Data,Var,Abs)             206
# 0x85, 0x85,                    //  Report ID (133)                    208
# 0x09, 0x2d,                    //  Usage (Vendor Usage 0x2d)          210
# 0x95, 0x02,                    //  Report Count (2)                   212
# 0xb1, 0x02,                    //  Feature (Data,Var,Abs)             214
# 0x85, 0xa0,                    //  Report ID (160)                    216
# 0x09, 0x2e,                    //  Usage (Vendor Usage 0x2e)          218
# 0x95, 0x01,                    //  Report Count (1)                   220
# 0xb1, 0x02,                    //  Feature (Data,Var,Abs)             222
# 0x85, 0xe0,                    //  Report ID (224)                    224
# 0x09, 0x2f,                    //  Usage (Vendor Usage 0x2f)          226
# 0x95, 0x3f,                    //  Report Count (63)                  228
# 0xb1, 0x02,                    //  Feature (Data,Var,Abs)             230
# 0x85, 0xf0,                    //  Report ID (240)                    232
# 0x09, 0x30,                    //  Usage (Vendor Usage 0x30)          234
# 0x95, 0x3f,                    //  Report Count (63)                  236
# 0xb1, 0x02,                    //  Feature (Data,Var,Abs)             238
# 0x85, 0xf1,                    //  Report ID (241)                    240
# 0x09, 0x31,                    //  Usage (Vendor Usage 0x31)          242
# 0x95, 0x3f,                    //  Report Count (63)                  244
# 0xb1, 0x02,                    //  Feature (Data,Var,Abs)             246
# 0x85, 0xf2,                    //  Report ID (242)                    248
# 0x09, 0x32,                    //  Usage (Vendor Usage 0x32)          250
# 0x95, 0x0f,                    //  Report Count (15)                  252
# 0xb1, 0x02,                    //  Feature (Data,Var,Abs)             254
# 0x85, 0xf4,                    //  Report ID (244)                    256
# 0x09, 0x35,                    //  Usage (Vendor Usage 0x35)          258
# 0x95, 0x3f,                    //  Report Count (63)                  260
# 0xb1, 0x02,                    //  Feature (Data,Var,Abs)             262
# 0x85, 0xf5,                    //  Report ID (245)                    264
# 0x09, 0x36,                    //  Usage (Vendor Usage 0x36)          266
# 0x95, 0x03,                    //  Report Count (3)                   268
# 0xb1, 0x02,                    //  Feature (Data,Var,Abs)             270
# 0xc0,                          // End Collection                      272
# 
R: 273 05 01 09 05 a1 01 85 01 09 30 09 31 09 32 09 35 09 33 09 34 15 00 26 ff 00 75 08 95 06 81 02 06 00 ff 09 20 95 01 81 02 05 01 09 39 15 00 25 07 35 00 46 3b 01 65 14 75 04 95 01 81 42 65 00 05 09 19 01 29 0f 15 00 25 01 75 01 95 0f 81 02 06 00 ff 09 21 95 0d 81 02 06 00 ff 09 22 15 00 26 ff 00 75 08 95 34 81 02 85 02 09 23 95 2f 91 02 85 05 09 33 95 28 b1 02 85 08 09 34 95 2f b1 02 85 09 09 24 95 13 b1 02 85 0a 09 25 95 1a b1 02 85 20 09 26 95 3f b1 02 85 21 09 27 95 04 b1 02 85 22 09 40 95 3f b1 02 85 80 09 28 95 3f b1 02 85 81 09 29 95 3f b1 02 85 82 09 2a 95 09 b1 02 85 83 09 2b 95 3f b1 02 85 84 09 2c 95 3f b1 02 85 85 09 2d 95 02 b1 02 85 a0 09 2e 95 01 b1 02 85 e0 09 2f 95 3f b1 02 85 f0 09 30 95 3f b1 02 85 f1 09 31 95 3f b1 02 85 f2 09 32 95 0f b1 02 85 f4 09 35 95 3f b1 02 85 f5 09 36 95 03 b1 02 c0
N: Sony Interactive Entertainment DualSense Wireless Controller
I: 3 054c 0ce6
# ReportID: 1 / X:  129 | Y:  127 | Z:  127 | Rz:  129 | Rx:    0 | Ry:    0 | 0xff000020:   73 | Hat switch:   8 | Button: 0  0  0  0  0  0  0  0  0  0  0  0  0  0  0 | 0xff000021: 0 , 0 , 0 , 0 , 0 , 0 , 0 , 0 , 0 , 0 , 0 , 0 , 0 | 0xff000022:   38 ,  231 ,   41 ,  235 ,  248 ,  255 ,  239 ,  255 ,    9 ,    0 ,   61 ,    0 ,   36 ,   31 ,   45 ,    5 ,  216 ,  117 ,  208 ,  191 ,    7 ,  128 ,    0 ,    0 ,    0 ,  128 ,    0 ,    0 ,    0 ,    0 ,    9 ,    9 ,    0 ,    0 ,    0 ,    0 ,    0 ,  225 ,  148 ,  208 ,  191 ,   40 ,    8 ,    0 ,   56 ,  138 ,  219 ,  184 ,  193 ,  253 ,  207 ,  240 
E: 000000.000000 64 01 81 7f 7f 81 00 00 49 08 00 00 00 26 e7 29 eb f8 ff ef ff 09 00 3d 00 24 1f 2d 05 d8 75 d0 bf 07 80 00 00 00 80 00 00 00 00 09 09 00 00 00 00 00 e1 94 d0 bf 28 08 00 38 8a db b8 c1 fd cf f0
# ReportID: 1 / X:  129 | Y:  127 | Z:  127 | Rz:  129 | Rx:    0 | Ry:    0 | 0xff000020:   74 | Hat switch:   8 | Button: 0  0  0  0  0  0  0  0  0  0  0  0  0  0  0 | 0xff000021: 0 , 0 , 0 , 0 , 0 , 0 , 0 , 0 , 0 , 0 , 0 , 0 , 0 | 0xff000022:   39 ,  231 ,   41 ,  235 ,  249 ,  255 ,  238 ,  255 ,   12 ,    0 ,   48 ,    0 ,   40 ,   31 ,   58 ,    5 ,  203 ,  164 ,  208 ,  191 ,    7 ,  128 ,    0 ,    0 ,    0 ,  128 ,    0 ,    0 ,    0 ,    0 ,    9 ,    9 ,    0 ,    0 ,    0 ,    0 ,    0 ,  193 ,  195 ,  208 ,  191 ,   40 ,    8 ,    0 ,   90 ,   20 ,  115 ,  105 ,  109 ,  242 ,  165 ,   18 
E: 000000.002960 64 01 81 7f 7f 81 00 00 4a 08 00 00 00 27 e7 29 eb f9 ff ee ff 0c 00 30 00 28 1f 3a 05 cb a4 d0 bf 07 80 00 00 00 80 00 00 00 00 09 09 00 00 00 00 00 c1 c3 d0 bf 28 08 00 5a 14 73 69 6d f2 a5 12
# ReportID: 1 / X:  129 | Y:  127 | Z:  127 | Rz:  129 | Rx:    0 | Ry:    0 | 0xff000020:   75 | Hat switch:   8 | Button: 0  0  0  0  0  0  0  0  0  0  0  0  0  0  0 | 0xff000021: 0 , 0 , 0 , 0 , 0 , 0 , 0 , 0 , 0 , 0 , 0 , 0 , 0 | 0xff000022:   40 ,  231 ,   41 ,  235 ,  248 ,  255 ,  238 ,  255 ,   12 ,    0 ,   55 ,    0 ,  142 ,   31 ,   67 ,    5 ,  190 ,  211 ,  208 ,  191 ,    7 ,  128 ,    0 ,    0 ,    0 ,  128 ,    0 ,    0 ,    0 ,    0 ,    9 ,    9 ,    0 ,    0 ,    0 ,    0 ,    0 ,  161 ,  242 ,  208 ,  191 ,   40 ,    8 ,    0 ,   86 ,  126 ,   36 ,   66 ,   85 ,  154 ,  254 ,  120 
E: 000000.006116 64 01 81 7f 7f 81 00 00 4b 08 00 00 00 28 e7 29 eb f8 ff ee ff 0c 00 37 00 8e 1f 43 05 be d3 d0 bf 07 80 00 00 00 80 00 00 00 00 09 09 00 00 00 00 00 a1 f2 d0 bf 28 08 00 56 7e 24 42 55 9a fe 78
# ReportID: 1 / X:  129 | Y:  127 | Z:  127 | Rz:  129 | Rx:    0 | Ry:    0 | 0xff000020:   76 | Hat switch:   8 | Button: 0  0  0  0  0  0  0  0  0  0  0  0  0  0  0 | 0xff000021: 0 , 0 , 0 , 0 , 0 , 0 , 0 , 0 , 0 , 0 , 0 , 0 , 0 | 0xff000022:   41 ,  231 ,   41 ,  235 ,  247 ,  255 ,  239 ,  255 ,   11 ,    0 ,   51 ,    0 ,  200 ,   31 ,   76 ,    5 ,  177 ,    2 ,  209 ,  191 ,    7 ,  128 ,    0 ,    0 ,    0 ,  128 ,    0 ,    0 ,    0 ,    0 ,    9 ,    9 ,    0 ,    0 ,    0 ,    0 ,    0 ,  129 ,   33 ,  209 ,  191 ,   40 ,    8 ,    0 ,  214 ,  124 ,  202 ,  105 ,  193 ,   73 ,   59 ,  218 
E: 000000.009385 64 01 81 7f 7f 81 00 00 4c 08 00 00 00 29 e7 29 eb f7 ff ef ff 0b 00 33 00 c8 1f 4c 05 b1 02 d1 bf 07 80 00 00 00 80 00 00 00 00 09 09 00 00 00 00 00 81 21 d1 bf 28 08 00 d6 7c ca 69 c1 49 3b da
# ReportID: 1 / X:  129 | Y:  126 | Z:  127 | Rz:  129 | Rx:    0 | Ry:    0 | 0xff000020:   77 | Hat switch:   8 | Button: 0  0  0  0  0  0  0  0  0  0  0  0  0  0  0 | 0xff000021: 0 , 0 , 0 , 0 , 0 , 0 , 0 , 0 , 0 , 0 , 0 , 0 , 0 | 0xff000022:   42 ,  231 ,   41 ,  235 ,  245 ,  255 ,  237 ,  255 ,   11 ,    0 ,   40 ,    0 ,  129 ,   31 ,   49 ,    5 ,  164 ,   49 ,  209 ,  191 ,    7 ,  128 ,    0 ,    0 ,    0 ,  128 ,    0 ,    0 ,    0 ,    0 ,    9 ,    9 ,    0 ,    0 ,    0 ,    0 ,    0 ,   97 ,   80 ,  209 ,  191 ,   40 ,    8 ,    0 ,  221 ,   18 ,   54 ,  173 ,   27 ,  137 ,  166 ,  197 
E: 000000.013857 64 01 81 7e 7f 81 00 00 4d 08 00 00 00 2a e7 29 eb f5 ff ed ff 0b 00 28 00 81 1f 31 05 a4 31 d1 bf 07 80 00 00 00 80 00 00 00 00 09 09 00 00 00 00 00 61 50 d1 bf 28 08 00 dd 12 36 ad 1b 89 a6 c5
# ReportID: 1 / X:  129 | Y:  127 | Z:  127 | Rz:  129 | Rx:    0 | Ry:    0 | 0xff000020:   78 | Hat switch:   8 | Button: 0  0  0  0  0  0  0  0  0  0  0  0  0  0  0 | 0xff000021: 0 , 0 , 0 , 0 , 0 , 0 , 0 , 0 , 0 , 0 , 0 , 0 , 0 | 0xff000022:   43 ,  231 ,   41 ,  235 ,  246 ,  255 ,  237 ,  255 ,   10 ,    0 ,   48 ,    0 ,   63 ,   31 ,   33 ,    5 ,  151 ,   96 ,  209 ,  191 ,    7 ,  128 ,    0 ,    0 ,    0 ,  128 ,    0 ,    0 ,    0 ,    0 ,    9 ,    9 ,    0 ,    0 ,    0 ,    0 ,    0 ,   65 ,  127 ,  209 ,  191 ,   40 ,    8 ,    0 ,  204 ,   87 ,  208 ,  160 ,  166 ,   59 ,  182 ,   18 
E: 000000.017541 64 01 81 7f 7f 81 00 00 4e 08 00 00 00 2b e7 29 eb f6 ff ed ff 0a 00 30 00 3f 1f 21 05 97 60 d1 bf 07 80 00 00 00 80 00 00 00 00 09 09 00 00 00 00 00 41 7f d1 bf 28 08 00 cc 57 d0 a0 a6 3b b6 12
# ReportID: 1 / X:  129 | Y:  127 | Z:  127 | Rz:  129 | Rx:    0 | Ry:    0 | 0xff000020:   79 | Hat switch:   8 | Button: 0  0  0  0  0  0  0  0  0  0  0  0  0  0  0 | 0xff000021: 0 , 0 , 0 , 0 , 0 , 0 , 0 , 0 , 0 , 0 , 0 , 0 , 0 | 0xff000022:   44 ,  231 ,   41 ,  235 ,  245 ,  255 ,  239 ,  255 ,   11 ,    0 ,   51 ,    0 ,   49 ,   31 ,   33 ,    5 ,  138 ,  143 ,  209 ,  191 ,    7 ,  128 ,    0 ,    0 ,    0 ,  128 ,    0 ,    0 ,    0 ,    0 ,    9 ,    9 ,    0 ,    0 ,    0 ,    0 ,    0 ,   33 ,  174 ,  209 ,  191 ,   40 ,    8 ,    0 ,  139 ,  243 ,  118 ,   43 ,  133 ,   85 ,   33 ,  161 
E: 000000.021593 64 01 81 7f 7f 81 00 00 4f 08 00 00 00 2c e7 29 eb f5 ff ef ff 0b 00 33 00 31 1f 21 05 8a 8f d1 bf 07 80 00 00 00 80 00 00 00 00 09 09 00 00 00 00 00 21 ae d1 bf 28 08 00 8b f3 76 2b 85 55 21 a1
# ReportID: 1 / X:  129 | Y:  127 | Z:  127 | Rz:  129 | Rx:    0 | Ry:    0 | 0xff000020:   80 | Hat switch:   8 | Button: 0  0  0  0  0  0  0  0  0  0  0  0  0  0  0 | 0xff000021: 0 , 0 , 0 , 0 , 0 , 0 , 0 , 0 , 0 , 0 , 0 , 0 , 0 | 0xff000022:   45 ,  231 ,   41 ,  235 ,  245 ,  255 ,  238 ,  255 ,   11 ,    0 ,   46 ,    0 ,   20 ,   31 ,   46 ,    5 ,  125 ,  190 ,  209 ,  191 ,    7 ,  128 ,    0 ,    0 ,    0 ,  128 ,    0 ,    0 ,    0 ,    0 ,    9 ,    9 ,    0 ,    0 ,    0 ,    0 ,    0 ,    1 ,  221 ,  209 ,  191 ,   40 ,    8 ,    0 ,  253 ,   43 ,   18 ,  179 ,  238 ,   77 ,   16 ,   91 
E: 000000.025858 64 01 81 7f 7f 81 00 00 50 08 00 00 00 2d e7 29 eb f5 ff ee ff 0b 00 2e 00 14 1f 2e 05 7d be d1 bf 07 80 00 00 00 80 00 00 00 00 09 09 00 00 00 00 00 01 dd d1 bf 28 08 00 fd 2b 12 b3 ee 4d 10 5b
# ReportID: 1 / X:  129 | Y:  127 | Z:  127 | Rz:  129 | Rx:    0 | Ry:    0 | 0xff000020:   81 | Hat switch:   8 | Button: 0  0  0  0  0  0  0  0  0  0  0  0  0  0  0 | 0xff000021: 0 , 0 , 0 , 0 , 0 , 0 , 0 , 0 , 0 , 0 , 0 , 0 , 0 | 0xff000022:   46 ,  231 ,   41 ,  235 ,  248 ,  255 ,  238 ,  255 ,   11 ,    0 ,   56 ,    0 ,   51 ,   31 ,   37 ,    5 ,  112 ,  237 ,  209 ,  191 ,    7 ,  128 ,    0 ,    0 ,    0 ,  128 ,    0 ,    0 ,    0 ,    0 ,    9 ,    9 ,    0 ,    0 ,    0 ,    0 ,    0 ,  225 ,   11 ,  210 ,  191 ,   40 ,    8 ,    0 ,  106 ,   75 ,  171 ,  143 ,  134 ,  219 ,   94 ,  124 
E: 000000.029721 64 01 81 7f 7f 81 00 00 51 08 00 00 00 2e e7 29 eb f8 ff ee ff 0b 00 38 00 33 1f 25 05 70 ed d1 bf 07 80 00 00 00 80 00 00 00 00 09 09 00 00 00 00 00 e1 0b d2 bf 28 08 00 6a 4b ab 8f 86 db 5e 7c
# ReportID: 1 / X:  129 | Y:  127 | Z:  127 | Rz:  129 | Rx:    0 | Ry:    0 | 0xff000020:   82 | Hat switch:   8 | Button: 0  0  0  0  0  0  0  0  0  0  0  0  0  0  0 | 0xff000021: 0 , 0 , 0 , 0 , 0 , 0 , 0 , 0 , 0 , 0 , 0 , 0 , 0 | 0xff000022:   47 ,  231 ,   41 ,  235 ,  247 ,  255 ,  238 ,  255 ,   11 ,    0 ,   52 ,    0 ,  127 ,   31 ,   49 ,    5 ,   99 ,   28 ,  210 ,  191 ,    7 ,  128 ,    0 ,    0 ,    0 ,  128 ,    0 ,    0 ,    0 ,    0 ,    9 ,    9 ,    0 ,    0 ,    0 ,    0 ,    0 ,  193 ,   58 ,  210 ,  191 ,   40 ,    8 ,    0 ,  185 ,  139 ,  145 ,  154 ,   43 ,   85 ,  181 ,  121 
E: 000000.033435 64 01 81 7f 7f 81 00 00 52 08 00 00 00 2f e7 29 eb f7 ff ee ff 0b 00 34 00 7f 1f 31 05 63 1c d2 bf 07 80 00 00 00 80 00 00 00 00 09 09 00 00 00 00 00 c1 3a d2 bf 28 08 00 b9 8b 91 9a 2b 55 b5 79
# ReportID: 1 / X:  129 | Y:  127 | Z:  127 | Rz:  129 | Rx:    0 | Ry:    0 | 0xff000020:   83 | Hat switch:   8 | Button: 0  0  0  0  0  0  0  0  0  0  0  0  0  0  0 | 0xff000021: 0 , 0 , 0 , 0 , 0 , 0 , 0 , 0 , 0 , 0 , 0 , 0 , 0 | 0xff000022:   48 ,  231 ,   41 ,  235 ,  246 ,  255 ,  237 ,  255 ,   10 ,    0 ,   49 ,    0 ,  151 ,   31 ,   50 ,    5 ,   86 ,   75 ,  210 ,  191 ,    7 ,  128 ,    0 ,    0 ,    0 ,  128 ,    0 ,    0 ,    0 ,    0 ,    9 ,    9 ,    0 ,    0 ,    0 ,    0 ,    0 ,  161 ,  105 ,  210 ,  191 ,   40 ,    8 ,    0 ,  193 ,   64 ,   58 ,   93 ,    1 ,   11 ,  122 ,   13 
E: 000000.037838 64 01 81 7f 7f 81 00 00 53 08 00 00 00 30 e7 29 eb f6 ff ed ff 0a 00 31 00 97 1f 32 05 56 4b d2 bf 07 80 00 00 00 80 00 00 00 00 09 09 00 00 00 00 00 a1 69 d2 bf 28 08 00 c1 40 3a 5d 01 0b 7a 0d
# ReportID: 1 / X:  129 | Y:  127 | Z:  127 | Rz:  129 | Rx:    0 | Ry:    0 | 0xff000020:   84 | Hat switch:   8 | Button: 0  0  0  0  0  0  0  0  0  0  0  0  0  0  0 | 0xff000021: 0 , 0 , 0 , 0 , 0 , 0 , 0 , 0 , 0 , 0 , 0 , 0 , 0 | 0xff000022:   49 ,  231 ,   41 ,  235 ,  248 ,  255 ,  238 ,  255 ,   10 ,    0 ,   51 ,    0 ,  115 ,   31 ,   47 ,    5 ,   73 ,  122 ,  210 ,  191 ,    7 ,  128 ,    0 ,    0 ,    0 ,  128 ,    0 ,    0 ,    0 ,    0 ,    9 ,    9 ,    0 ,    0 ,    0 ,    0 ,    0 ,  129 ,  152 ,  210 ,  191 ,   40 ,    8 ,    0 ,  154 ,  247 ,  183 ,  164 ,  191 ,   36 ,  154 ,   77 
E: 000000.041723 64 01 81 7f 7f 81 00 00 54 08 00 00 00 31 e7 29 eb f8 ff ee ff 0a 00 33 00 73 1f 2f 05 49 7a d2 bf 07 80 00 00 00 80 00 00 00 00 09 09 00 00 00 00 00 81 98 d2 bf 28 08 00 9a f7 b7 a4 bf 24 9a 4d
# ReportID: 1 / X:  129 | Y:  126 | Z:  127 | Rz:  129 | Rx:    0 | Ry:    0 | 0xff000020:   85 | Hat switch:   8 | Button: 0  0  0  0  0  0  0  0  0  0  0  0  0  0  0 | 0xff000021: 0 , 0 , 0 , 0 , 0 , 0 , 0 , 0 , 0 , 0 , 0 , 0 , 0 | 0xff000022:   50 ,  231 ,   41 ,  235 ,  246 ,  255 ,  238 ,  255 ,   10 ,    0 ,   41 ,    0 ,   76 ,   31 ,   49 ,    5 ,   60 ,  169 ,  210 ,  191 ,    7 ,  128 ,    0 ,    0 ,    0 ,  128 ,    0 ,    0 ,    0 ,    0 ,    9 ,    9 ,    0 ,    0 ,    0 ,    0 ,    0 ,   97 ,  199 ,  210 ,  191 ,   40 ,    8 ,    0 ,  185 ,  169 ,  141 ,   87 ,  191 ,  239 ,  225 ,  181 
E: 000000.045471 64 01 81 7e 7f 81 00 00 55 08 00 00 00 32 e7 29 eb f6 ff ee ff 0a 00 29 00 4c 1f 31 05 3c a9 d2 bf 07 80 00 00 00 80 00 00 00 00 09 09 00 00 00 00 00 61 c7 d2 bf 28 08 00 b9 a9 8d 57 bf ef e1 b5
# ReportID: 1 / X:  129 | Y:  127 | Z:  127 | Rz:  129 | Rx:    0 | Ry:    0 | 0xff000020:   86 | Hat switch:   8 | Button: 0  0  0  0  0  0  0  0  0  0  0  0  0  0  0 | 0xff000021: 0 , 0 , 0 , 0 , 0 , 0 , 0 , 0 , 0 , 0 , 0 , 0 , 0 | 0xff000022:   51 ,  231 ,   41 ,  235 ,  245 ,  255 ,  238 ,  255 ,   11 ,    0 ,   37 ,    0 ,   68 ,   31 ,   51 ,    5 ,   47 ,  216 ,  210 ,  191 ,    7 ,  128 ,    0 ,    0 ,    0 ,  128 ,    0 ,    0 ,    0 ,    0 ,    9 ,    9 ,    0 ,    0 ,    0 ,    0 ,    0 ,   65 ,  246 ,  210 ,  191 ,   40 ,    8 ,    0 ,  101 ,  228 ,   26 ,   60 ,   24 ,  215 ,  188 ,  164 
E: 000000.049555 64 01 81 7f 7f 81 00 00 56 08 00 00 00 33 e7 29 eb f5 ff ee ff 0b 00 25 00 44 1f 33 05 2f d8 d2 bf 07 80 00 00 00 80 00 00 00 00 09 09 00 00 00 00 00 41 f6 d2 bf 28 08 00 65 e4 1a 3c 18 d7 bc a4
# ReportID: 1 / X:  129 | Y:  127 | Z:  127 | Rz:  129 | Rx:    0 | Ry:    0 | 0xff000020:   87 | Hat switch:   8 | Button: 0  0  0  0  0  0  0  0  0  0  0  0  0  0  0 | 0xff000021: 0 , 0 , 0 , 0 , 0 , 0 , 0 , 0 , 0 , 0 , 0 , 0 , 0 | 0xff000022:   52 ,  231 ,   41 ,  235 ,  246 ,  255 ,  238 ,  255 ,   11 ,    0 ,   53 ,    0 ,   62 ,   31 ,   56 ,    5 ,   34 ,    7 ,  211 ,  191 ,    7 ,  128 ,    0 ,    0 ,    0 ,  128 ,    0 ,    0 ,    0 ,    0 ,    9 ,    9 ,    0 ,    0 ,    0 ,    0 ,    0 ,   33 ,   37 ,  211 ,  191 ,   40 ,    8 ,    0 ,  234 ,  192 ,   64 ,   32 ,   10 ,    6 ,  180 ,   49 
E: 000000.054551 64 01 81 7f 7f 81 00 00 57 08 00 00 00 34 e7 29 eb f6 ff ee ff 0b 00 35 00 3e 1f 38 05 22 07 d3 bf 07 80 00 00 00 80 00 00 00 00 09 09 00 00 00 00 00 21 25 d3 bf 28 08 00 ea c0 40 20 0a 06 b4 31
# ReportID: 1 / X:  129 | Y:  127 | Z:  128 | Rz:  129 | Rx:    0 | Ry:    0 | 0xff000020:   88 | Hat switch:   8 | Button: 0  0  0  0  0  0  0  0  0  0  0  0  0  0  0 | 0xff000021: 0 , 0 , 0 , 0 , 0 , 0 , 0 , 0 , 0 , 0 , 0 , 0 , 0 | 0xff000022:   53 ,  231 ,   41 ,  235 ,  247 ,  255 ,  238 ,  255 ,   10 ,    0 ,   48 ,    0 ,  100 ,   31 ,   57 ,    5 ,   21 ,   54 ,  211 ,  191 ,    7 ,  128 ,    0 ,    0 ,    0 ,  128 ,    0 ,    0 ,    0 ,    0 ,    9 ,    9 ,    0 ,    0 ,    0 ,    0 ,    0 ,    1 ,   84 ,  211 ,  191 ,   40 ,    8 ,    0 ,  212 ,   96 ,  134 ,   39 ,  242 ,   92 ,   47 ,   74 
E: 000000.057722 64 01 81 7f 80 81 00 00 58 08 00 00 00 35 e7 29 eb f7 ff ee ff 0a 00 30 00 64 1f 39 05 15 36 d3 bf 07 80 00 00 00 80 00 00 00 00 09 09 00 00 00 00 00 01 54 d3 bf 28 08 00 d4 60 86 27 f2 5c 2f 4a
# ReportID: 1 / X:  129 | Y:  127 | Z:  127 | Rz:  129 | Rx:    0 | Ry:    0 | 0xff000020:   89 | Hat switch:   8 | Button: 0  0  0  0  0  0  0  0  0  0  0  0  0  0  0 | 0xff000021: 0 , 0 , 0 , 0 , 0 , 0 , 0 , 0 , 0 , 0 , 0 , 0 , 0 | 0xff000022:   54 ,  231 ,   41 ,  235 ,  245 ,  255 ,  238 ,  255 ,   11 ,    0 ,   50 ,    0 ,  121 ,   31 ,   54 ,    5 ,    8 ,  101 ,  211 ,  191 ,    7 ,  128 ,    0 ,    0 ,    0 ,  128 ,    0 ,    0 ,    0 ,    0 ,    9 ,    9 ,    0 ,    0 ,    0 ,    0 ,    0 ,  225 ,  130 ,  211 ,  191 ,   40 ,    8 ,    0 ,   86 ,  223 ,  232 ,  246 ,  230 ,  138 ,    0 ,  248 
E: 000000.061729 64 01 81 7f 7f 81 00 00 59 08 00 00 00 36 e7 29 eb f5 ff ee ff 0b 00 32 00 79 1f 36 05 08 65 d3 bf 07 80 00 00 00 80 00 00 00 00 09 09 00 00 00 00 00 e1 82 d3 bf 28 08 00 56 df e8 f6 e6 8a 00 f8
# ReportID: 1 / X:  129 | Y:  127 | Z:  127 | Rz:  129 | Rx:    0 | Ry:    0 | 0xff000020:   90 | Hat switch:   8 | Button: 0  0  0  0  0  0  0  0  0  0  0  0  0  0  0 | 0xff000021: 0 , 0 , 0 , 0 , 0 , 0 , 0 , 0 , 0 , 0 , 0 , 0 , 0 | 0xff000022:   55 ,  231 ,   41 ,  235 ,  244 ,  255 ,  238 ,  255 ,   10 ,    0 ,   52 ,    0 ,   96 ,   31 ,   60 ,    5 ,  251 ,  147 ,  211 ,  191 ,    7 ,  128 ,    0 ,    0 ,    0 ,  128 ,    0 ,    0 ,    0 ,    0 ,    9 ,    9 ,    0 ,    0 ,    0 ,    0 ,    0 ,  196 ,  177 ,  211 ,  191 ,   40 ,    8 ,    0 ,  167 ,  205 ,   43 ,  172 ,  101 ,  126 ,  192 ,  255 
E: 000000.065555 64 01 81 7f 7f 81 00 00 5a 08 00 00 00 37 e7 29 eb f4 ff ee ff 0a 00 34 00 60 1f 3c 05 fb 93 d3 bf 07 80 00 00 00 80 00 00 00 00 09 09 00 00 00 00 00 c4 b1 d3 bf 28 08 00 a7 cd 2b ac 65 7e c0 ff
# ReportID: 1 / X:  129 | Y:  127 | Z:  127 | Rz:  129 | Rx:    0 | Ry:    0 | 0xff000020:   91 | Hat switch:   8 | Button: 0  0  0  0  0  0  0  0  0  0  0  0  0  0  0 | 0xff000021: 0 , 0 , 0 , 0 , 0 , 0 , 0 , 0 , 0 , 0 , 0 , 0 , 0 | 0xff000022:   56 ,  231 ,   41 ,  235 ,  246 ,  255 ,  238 ,  255 ,    9 ,    0 ,   48 ,    0 ,   51 ,   31 ,   58 ,    5 ,  238 ,  194 ,  211 ,  191 ,    7 ,  128 ,    0 ,    0 ,    0 ,  128 ,    0 ,    0 ,    0 ,    0 ,    9 ,    9 ,    0 ,    0 ,    0 ,    0 ,    0 ,  161 ,  224 ,  211 ,  191 ,   40 ,    8 ,    0 ,   32 ,   74 ,    5 ,  116 ,  183 ,  228 ,  221 ,    4 
E: 000000.070952 64 01 81 7f 7f 81 00 00 5b 08 00 00 00 38 e7 29 eb f6 ff ee ff 09 00 30 00 33 1f 3a 05 ee c2 d3 bf 07 80 00 00 00 80 00 00 00 00 09 09 00 00 00 00 00 a1 e0 d3 bf 28 08 00 20 4a 05 74 b7 e4 dd 04
# ReportID: 1 / X:  129 | Y:  127 | Z:  127 | Rz:  129 | Rx:    0 | Ry:    0 | 0xff000020:   92 | Hat switch:   8 | Button: 0  0  0  0  0  0  0  0  0  0  0  0  0  0  0 | 0xff000021: 0 , 0 , 0 , 0 , 0 , 0 , 0 , 0 , 0 , 0 , 0 , 0 , 0 | 0xff000022:   57 ,  231 ,   41 ,  235 ,  246 ,  255 ,  239 ,  255 ,   10 ,    0 ,   44 ,    0 ,   34 ,   31 ,   54 ,    5 ,  225 ,  241 ,  211 ,  191 ,    7 ,  128 ,    0 ,    0 ,    0 ,  128 ,    0 ,    0 ,    0 ,    0 ,    9 ,    9 ,    0 ,    0 ,    0 ,    0 ,    0 ,  129 ,   15 ,  212 ,  191 ,   40 ,    8 ,    0 ,  133 ,  170 ,  219 ,   36 ,  206 ,  167 ,    9 ,  145 
E: 000000.074007 64 01 81 7f 7f 81 00 00 5c 08 00 00 00 39 e7 29 eb f6 ff ef ff 0a 00 2c 00 22 1f 36 05 e1 f1 d3 bf 07 80 00 00 00 80 00 00 00 00 09 09 00 00 00 00 00 81 0f d4 bf 28 08 00 85 aa db 24 ce a7 09 91
# ReportID: 1 / X:  129 | Y:  127 | Z:  127 | Rz:  129 | Rx:    0 | Ry:    0 | 0xff000020:   93 | Hat switch:   8 | Button: 0  0  0  0  0  0  0  0  0  0  0  0  0  0  0 | 0xff000021: 0 , 0 , 0 , 0 , 0 , 0 , 0 , 0 , 0 , 0 , 0 , 0 , 0 | 0xff000022:   58 ,  231 ,   41 ,  235 ,  248 ,  255 ,  239 ,  255 ,    9 ,    0 ,   48 ,    0 ,   60 ,   31 ,   48 ,    5 ,  212 ,   32 ,  212 ,  191 ,    7 ,  128 ,    0 ,    0 ,    0 ,  128 ,    0 ,    0 ,    0 ,    0 ,    9 ,    9 ,    0 ,    0 ,    0 ,    0 ,    0 ,   97 ,   62 ,  212 ,  191 ,   40 ,    8 ,    0 ,  148 ,  139 ,  124 ,    2 ,    2 ,  119 ,   74 ,   79 
E: 000000.077849 64 01 81 7f 7f 81 00 00 5d 08 00 00 00 3a e7 29 eb f8 ff ef ff 09 00 30 00 3c 1f 30 05 d4 20 d4 bf 07 80 00 00 00 80 00 00 00 00 09 09 00 00 00 00 00 61 3e d4 bf 28 08 00 94 8b 7c 02 02 77 4a 4f
# ReportID: 1 / X:  129 | Y:  127 | Z:  127 | Rz:  129 | Rx:    0 | Ry:    0 | 0xff000020:   94 | Hat switch:   8 | Button: 0  0  0  0  0  0  0  0  0  0  0  0  0  0  0 | 0xff000021: 0 , 0 , 0 , 0 , 0 , 0 , 0 , 0 , 0 , 0 , 0 , 0 , 0 | 0xff000022:   59 ,  231 ,   41 ,  235 ,  246 ,  255 ,  238 ,  255 ,   10 ,    0 ,   54 ,    0 ,   76 ,   31 ,   60 ,    5 ,  199 ,   79 ,  212 ,  191 ,    7 ,  128 ,    0 ,    0 ,    0 ,  128 ,    0 ,    0 ,    0 ,    0 ,    9 ,    9 ,    0 ,    0 ,    0 ,    0 ,    0 ,   65 ,  109 ,  212 ,  191 ,   40 ,    8 ,    0 ,   27 ,  189 ,  157 ,  138 ,   64 ,  170 ,  223 ,   98 
E: 000000.081633 64 01 81 7f 7f 81 00 00 5e 08 00 00 00 3b e7 29 eb f6 ff ee ff 0a 00 36 00 4c 1f 3c 05 c7 4f d4 bf 07 80 00 00 00 80 00 00 00 00 09 09 00 00 00 00 00 41 6d d4 bf 28 08 00 1b bd 9d 8a 40 aa df 62
# ReportID: 1 / X:  129 | Y:  127 | Z:  127 | Rz:  129 | Rx:    0 | Ry:    0 | 0xff000020:   95 | Hat switch:   8 | Button: 0  0  0  0  0  0  0  0  0  0  0  0  0  0  0 | 0xff000021: 0 , 0 , 0 , 0 , 0 , 0 , 0 , 0 , 0 , 0 , 0 , 0 , 0 | 0xff000022:   60 ,  231 ,   41 ,  235 ,  246 ,  255 ,  239 ,  255 ,   10 ,    0 ,   54 ,    0 ,   96 ,   31 ,   58 ,    5 ,  186 ,  126 ,  212 ,  191 ,    7 ,  128 ,    0 ,    0 ,    0 ,  128 ,    0 ,    0 ,    0 ,    0 ,    9 ,    9 ,    0 ,    0 ,    0 ,    0 ,    0 ,   33 ,  156 ,  212 ,  191 ,   40 ,    8 ,    0 ,  185 ,  124 ,  235 ,  100 ,   21 ,  254 ,   84 ,  208 
E: 000000.085478 64 01 81 7f 7f 81 00 00 5f 08 00 00 00 3c e7 29 eb f6 ff ef ff 0a 00 36 00 60 1f 3a 05 ba 7e d4 bf 07 80 00 00 00 80 00 00 00 00 09 09 00 00 00 00 00 21 9c d4 bf 28 08 00 b9 7c eb 64 15 fe 54 d0
# ReportID: 1 / X:  129 | Y:  127 | Z:  127 | Rz:  129 | Rx:    0 | Ry:    0 | 0xff000020:   96 | Hat switch:   8 | Button: 0  0  0  0  0  0  0  0  0  0  0  0  0  0  0 | 0xff000021: 0 , 0 , 0 , 0 , 0 , 0 , 0 , 0 , 0 , 0 , 0 , 0 , 0 | 0xff000022:   61 ,  231 ,   41 ,  235 ,  247 ,  255 ,  239 ,  255 ,   10 ,    0 ,   42 ,    0 ,  107 ,   31 ,   58 ,    5 ,  173 ,  173 ,  212 ,  191 ,    7 ,  128 ,    0 ,    0 ,    0 ,  128 ,    0 ,    0 ,    0 ,    0 ,    9 ,    9 ,    0 ,    0 ,    0 ,    0 ,    0 ,    1 ,  203 ,  212 ,  191 ,   40 ,    8 ,    0 ,  231 ,  218 ,   91 ,  133 ,  148 ,  163 ,   23 ,  179 
E: 000000.089545 64 01 81 7f 7f 81 00 00 60 08 00 00 00 3d e7 29 eb f7 ff ef ff 0a 00 2a 00 6b 1f 3a 05 ad ad d4 bf 07 80 00 00 00 80 00 00 00 00 09 09 00 00 00 00 00 01 cb d4 bf 28 08 00 e7 da 5b 85 94 a3 17 b3
# ReportID: 1 / X:  129 | Y:  127 | Z:  127 | Rz:  129 | Rx:    0 | Ry:    0 | 0xff000020:   97 | Hat switch:   8 | Button: 0  0  0  0  0  0  0  0  0  0  0  0  0  0  0 | 0xff000021: 0 , 0 , 0 , 0 , 0 , 0 , 0 , 0 , 0 , 0 , 0 , 0 , 0 | 0xff000022:   62 ,  231 ,   41 ,  235 ,  246 ,  255 ,  238 ,  255 ,    9 ,    0 ,   48 ,    0 ,  107 ,   31 ,   62 ,    5 ,  160 ,  220 ,  212 ,  191 ,    7 ,  128 ,    0 ,    0 ,    0 ,  128 ,    0 ,    0 ,    0 ,    0 ,    9 ,    9 ,    0 ,    0 ,    0 ,    0 ,    0 ,  225 ,  249 ,  212 ,  191 ,   40 ,    8 ,    0 ,  211 ,    3 ,  147 ,  250 ,   83 ,  175 ,  144 ,  175 
E: 000000.094249 64 01 81 7f 7f 81 00 00 61 08 00 00 00 3e e7 29 eb f6 ff ee ff 09 00 30 00 6b 1f 3e 05 a0 dc d4 bf 07 80 00 00 00 80 00 00 00 00 09 09 00 00 00 00 00 e1 f9 d4 bf 28 08 00 d3 03 93 fa 53 af 90 af
# ReportID: 1 / X:  129 | Y:  127 | Z:  127 | Rz:  129 | Rx:    0 | Ry:    0 | 0xff000020:   98 | Hat switch:   8 | Button: 0  0  0  0  0  0  0  0  0  0  0  0  0  0  0 | 0xff000021: 0 , 0 , 0 , 0 , 0 , 0 , 0 , 0 , 0 , 0 , 0 , 0 , 0 | 0xff000022:   63 ,  231 ,   41 ,  235 ,  245 ,  255 ,  238 ,  255 ,   10 ,    0 ,   45 ,    0 ,   99 ,   31 ,   52 ,    5 ,  147 ,   11 ,  213 ,  191 ,    7 ,  128 ,    0 ,    0 ,    0 ,  128 ,    0 ,    0 ,    0 ,    0 ,    9 ,    9 ,    0 ,    0 ,    0 ,    0 ,    0 ,  193 ,   40 ,  213 ,  191 ,   40 ,    8 ,    0 ,    1 ,  251 ,  163 ,   20 ,   91 ,   73 ,  109 ,  147 
E: 000000.097552 64 01 81 7f 7f 81 00 00 62 08 00 00 00 3f e7 29 eb f5 ff ee ff 0a 00 2d 00 63 1f 34 05 93 0b d5 bf 07 80 00 00 00 80 00 00 00 00 09 09 00 00 00 00 00 c1 28 d5 bf 28 08 00 01 fb a3 14 5b 49 6d 93
# ReportID: 1 / X:  129 | Y:  127 | Z:  127 | Rz:  129 | Rx:    0 | Ry:    0 | 0xff000020:   99 | Hat switch:   8 | Button: 0  0  0  0  0  0  0  0  0  0  0  0  0  0  0 | 0xff000021: 0 , 0 , 0 , 0 , 0 , 0 , 0 , 0 , 0 , 0 , 0 , 0 , 0 | 0xff000022:   64 ,  231 ,   41 ,  235 ,  247 ,  255 ,  238 ,  255 ,   10 ,    0 ,   47 ,    0 ,   89 ,   31 ,   46 ,    5 ,  134 ,   58 ,  213 ,  191 ,    7 ,  128 ,    0 ,    0 ,    0 ,  128 ,    0 ,    0 ,    0 ,    0 ,    9 ,    9 ,    0 ,    0 ,    0 ,    0 ,    0 ,  161 ,   87 ,  213 ,  191 ,   40 ,    8 ,    0 ,  125 ,  147 ,  218 ,  254 ,  249 ,  228 ,  211 ,  137 
E: 000000.102047 64 01 81 7f 7f 81 00 00 63 08 00 00 00 40 e7 29 eb f7 ff ee ff 0a 00 2f 00 59 1f 2e 05 86 3a d5 bf 07 80 00 00 00 80 00 00 00 00 09 09 00 00 00 00 00 a1 57 d5 bf 28 08 00 7d 93 da fe f9 e4 d3 89
# ReportID: 1 / X:  129 | Y:  127 | Z:  127 | Rz:  129 | Rx:    0 | Ry:    0 | 0xff000020:  100 | Hat switch:   8 | Button: 0  0  0  0  0  0  0  0  0  0  0  0  0  0  0 | 0xff000021: 0 , 0 , 0 , 0 , 0 , 0 , 0 , 0 , 0 , 0 , 0 , 0 , 0 | 0xff000022:   65 ,  231 ,   41 ,  235 ,  246 ,  255 ,  237 ,  255 ,   11 ,    0 ,   44 ,    0 ,   66 ,   31 ,   48 ,    5 ,  121 ,  105 ,  213 ,  191 ,    7 ,  128 ,    0 ,    0 ,    0 ,  128 ,    0 ,    0 ,    0 ,    0 ,    9 ,    9 ,    0 ,    0 ,    0 ,    0 ,    0 ,  129 ,  134 ,  213 ,  191 ,   40 ,    8 ,    0 ,  105 ,  144 ,  128 ,  210 ,  100 ,    8 ,  119 ,  217 
E: 000000.105945 64 01 81 7f 7f 81 00 00 64 08 00 00 00 41 e7 29 eb f6 ff ed ff 0b 00 2c 00 42 1f 30 05 79 69 d5 bf 07 80 00 00 00 80 00 00 00 00 09 09 00 00 00 00 00 81 86 d5 bf 28 08 00 69 90 80 d2 64 08 77 d9
# ReportID: 1 / X:  129 | Y:  126 | Z:  127 | Rz:  129 | Rx:    0 | Ry:    0 | 0xff000020:  101 | Hat switch:   8 | Button: 0  0  0  0  0  0  0  0  0  0  0  0  0  0  0 | 0xff000021: 0 , 0 , 0 , 0 , 0 , 0 , 0 , 0 , 0 , 0 , 0 , 0 , 0 | 0xff000022:   66 ,  231 ,   41 ,  235 ,  246 ,  255 ,  238 ,  255 ,   11 ,    0 ,   53 ,    0 ,   93 ,   31 ,   45 ,    5 ,  108 ,  152 ,  213 ,  191 ,    7 ,  128 ,    0 ,    0 ,    0 ,  128 ,    0 ,    0 ,    0 ,    0 ,    9 ,    9 ,    0 ,    0 ,    0 ,    0 ,    0 ,   97 ,  181 ,  213 ,  191 ,   40 ,    8 ,    0 ,  131 ,   52 ,   58 ,  141 ,  174 ,  209 ,   99 ,  185 
E: 000000.109986 64 01 81 7e 7f 81 00 00 65 08 00 00 00 42 e7 29 eb f6 ff ee ff 0b 00 35 00 5d 1f 2d 05 6c 98 d5 bf 07 80 00 00 00 80 00 00 00 00 09 09 00 00 00 00 00 61 b5 d5 bf 28 08 00 83 34 3a 8d ae d1 63 b9
# ReportID: 1 / X:  129 | Y:  127 | Z:  127 | Rz:  129 | Rx:    0 | Ry:    0 | 0xff000020:  102 | Hat switch:   8 | Button: 0  0  0  0  0  0  0  0  0  0  0  0  0  0  0 | 0xff000021: 0 , 0 , 0 , 0 , 0 , 0 , 0 , 0 , 0 , 0 , 0 , 0 , 0 | 0xff000022:   67 ,  231 ,   41 ,  235 ,  246 ,  255 ,  238 ,  255 ,   10 ,    0 ,   58 ,    0 ,   91 ,   31 ,   54 ,    5 ,   95 ,  199 ,  213 ,  191 ,    7 ,  128 ,    0 ,    0 ,    0 ,  128 ,    0 ,    0 ,    0 ,    0 ,    9 ,    9 ,    0 ,    0 ,    0 ,    0 ,    0 ,   65 ,  228 ,  213 ,  191 ,   40 ,    8 ,    0 ,  173 ,  188 ,  101 ,  209 ,   26 ,  198 ,  213 ,   37 
E: 000000.113495 64 01 81 7f 7f 81 00 00 66 08 00 00 00 43 e7 29 eb f6 ff ee ff 0a 00 3a 00 5b 1f 36 05 5f c7 d5 bf 07 80 00 00 00 80 00 00 00 00 09 09 00 00 00 00 00 41 e4 d5 bf 28 08 00 ad bc 65 d1 1a c6 d5 25
# ReportID: 1 / X:  129 | Y:  127 | Z:  128 | Rz:  129 | Rx:    0 | Ry:    0 | 0xff000020:  103 | Hat switch:   8 | Button: 0  0  0  0  0  0  0  0  0  0  0  0  0  0  0 | 0xff000021: 0 , 0 , 0 , 0 , 0 , 0 , 0 , 0 , 0 , 0 , 0 , 0 , 0 | 0xff000022:   68 ,  231 ,   41 ,  235 ,  246 ,  255 ,  238 ,  255 ,    9 ,    0 ,   43 ,    0 ,   64 ,   31 ,   52 ,    5 ,   82 ,  246 ,  213 ,  191 ,    7 ,  128 ,    0 ,    0 ,    0 ,  128 ,    0 ,    0 ,    0 ,    0 ,    9 ,    9 ,    0 ,    0 ,    0 ,    0 ,    0 ,   33 ,   19 ,  214 ,  191 ,   40 ,    8 ,    0 ,  112 ,   53 ,   19 ,   66 ,  177 ,   96 ,   65 ,   78 
E: 000000.117552 64 01 81 7f 80 81 00 00 67 08 00 00 00 44 e7 29 eb f6 ff ee ff 09 00 2b 00 40 1f 34 05 52 f6 d5 bf 07 80 00 00 00 80 00 00 00 00 09 09 00 00 00 00 00 21 13 d6 bf 28 08 00 70 35 13 42 b1 60 41 4e
# ReportID: 1 / X:  129 | Y:  127 | Z:  127 | Rz:  129 | Rx:    0 | Ry:    0 | 0xff000020:  104 | Hat switch:   8 | Button: 0  0  0  0  0  0  0  0  0  0  0  0  0  0  0 | 0xff000021: 0 , 0 , 0 , 0 , 0 , 0 , 0 , 0 , 0 , 0 , 0 , 0 , 0 | 0xff000022:   69 ,  231 ,   41 ,  235 ,  246 ,  255 ,  239 ,  255 ,   10 ,    0 ,   51 ,    0 ,   83 ,   31 ,   43 ,    5 ,   69 ,   37 ,  214 ,  191 ,    7 ,  128 ,    0 ,    0 ,    0 ,  128 ,    0 ,    0 ,    0 ,    0 ,    9 ,    9 ,    0 ,    0 ,    0 ,    0 ,    0 ,    1 ,   66 ,  214 ,  191 ,   40 ,    8 ,    0 ,   33 ,   49 ,  153 ,  182 ,  107 ,  235 ,   45 ,  247 
E: 000000.121572 64 01 81 7f 7f 81 00 00 68 08 00 00 00 45 e7 29 eb f6 ff ef ff 0a 00 33 00 53 1f 2b 05 45 25 d6 bf 07 80 00 00 00 80 00 00 00 00 09 09 00 00 00 00 00 01 42 d6 bf 28 08 00 21 31 99 b6 6b eb 2d f7
# ReportID: 1 / X:  129 | Y:  126 | Z:  127 | Rz:  129 | Rx:    0 | Ry:    0 | 0xff000020:  105 | Hat switch:   8 | Button: 0  0  0  0  0  0  0  0  0  0  0  0  0  0  0 | 0xff000021: 0 , 0 , 0 , 0 , 0 , 0 , 0 , 0 , 0 , 0 , 0 , 0 , 0 | 0xff000022:   70 ,  231 ,   41 ,  235 ,  247 ,  255 ,  239 ,  255 ,   11 ,    0 ,   51 ,    0 ,   78 ,   31 ,   62 ,    5 ,   56 ,   84 ,  214 ,  191 ,    7 ,  128 ,    0 ,    0 ,    0 ,  128 ,    0 ,    0 ,    0 ,    0 ,    9 ,    9 ,    0 ,    0 ,    0 ,    0 ,    0 ,  225 ,  112 ,  214 ,  191 ,   40 ,    8 ,    0 ,   79 ,  219 ,   39 ,  148 ,   88 ,  223 ,  242 ,  246 
E: 000000.125610 64 01 81 7e 7f 81 00 00 69 08 00 00 00 46 e7 29 eb f7 ff ef ff 0b 00 33 00 4e 1f 3e 05 38 54 d6 bf 07 80 00 00 00 80 00 00 00 00 09 09 00 00 00 00 00 e1 70 d6 bf 28 08 00 4f db 27 94 58 df f2 f6
# ReportID: 1 / X:  129 | Y:  127 | Z:  127 | Rz:  129 | Rx:    0 | Ry:    0 | 0xff000020:  106 | Hat switch:   8 | Button: 0  0  0  0  0  0  0  0  0  0  0  0  0  0  0 | 0xff000021: 0 , 0 , 0 , 0 , 0 , 0 , 0 , 0 , 0 , 0 , 0 , 0 , 0 | 0xff000022:   71 ,  231 ,   41 ,  235 ,  247 ,  255 ,  238 ,  255 ,   10 ,    0 ,   45 ,    0 ,   67 ,   31 ,   61 ,    5 ,   43 ,  131 ,  214 ,  191 ,    7 ,  128 ,    0 ,    0 ,    0 ,  128 ,    0 ,    0 ,    0 ,    0 ,    9 ,    9 ,    0 ,    0 ,    0 ,    0 ,    0 ,  193 ,  159 ,  214 ,  191 ,   40 ,    8 ,    0 ,   62 ,   75 ,  209 ,  150 ,  240 ,   12 ,  208 ,  152 
E: 000000.129523 64 01 81 7f 7f 81 00 00 6a 08 00 00 00 47 e7 29 eb f7 ff ee ff 0a 00 2d 00 43 1f 3d 05 2b 83 d6 bf 07 80 00 00 00 80 00 00 00 00 09 09 00 00 00 00 00 c1 9f d6 bf 28 08 00 3e 4b d1 96 f0 0c d0 98
# ReportID: 1 / X:  129 | Y:  127 | Z:  127 | Rz:  129 | Rx:    0 | Ry:    0 | 0xff000020:  107 | Hat switch:   8 | Button: 0  0  0  0  0  0  0  0  0  0  0  0  0  0  0 | 0xff000021: 0 , 0 , 0 , 0 , 0 , 0 , 0 , 0 , 0 , 0 , 0 , 0 , 0 | 0xff000022:   72 ,  231 ,   41 ,  235 ,  247 ,  255 ,  238 ,  255 ,   10 ,    0 ,   50 ,    0 ,   81 ,   31 ,   55 ,    5 ,   30 ,  178 ,  214 ,  191 ,    7 ,  128 ,    0 ,    0 ,    0 ,  128 ,    0 ,    0 ,    0 ,    0 ,    9 ,    9 ,    0 ,    0 ,    0 ,    0 ,    0 ,  161 ,  206 ,  214 ,  191 ,   40 ,    8 ,    0 ,  190 ,   96 ,  215 ,  168 ,  174 ,  161 ,  166 ,  241 
E: 000000.133725 64 01 81 7f 7f 81 00 00 6b 08 00 00 00 48 e7 29 eb f7 ff ee ff 0a 00 32 00 51 1f 37 05 1e b2 d6 bf 07 80 00 00 00 80 00 00 00 00 09 09 00 00 00 00 00 a1 ce d6 bf 28 08 00 be 60 d7 a8 ae a1 a6 f1
# ReportID: 1 / X:  129 | Y:  126 | Z:  127 | Rz:  129 | Rx:    0 | Ry:    0 | 0xff000020:  108 | Hat switch:   8 | Button: 0  0  0  0  0  0  0  0  0  0  0  0  0  0  0 | 0xff000021: 0 , 0 , 0 , 0 , 0 , 0 , 0 , 0 , 0 , 0 , 0 , 0 , 0 | 0xff000022:   73 ,  231 ,   41 ,  235 ,  247 ,  255 ,  238 ,  255 ,   10 ,    0 ,   51 ,    0 ,  106 ,   31 ,   59 ,    5 ,   16 ,  225 ,  214 ,  191 ,    7 ,  128 ,    0 ,    0 ,    0 ,  128 ,    0 ,    0 ,    0 ,    0 ,    9 ,    9 ,    0 ,    0 ,    0 ,    0 ,    0 ,  129 ,  253 ,  214 ,  191 ,   40 ,    8 ,    0 ,  127 ,  206 ,   14 ,  254 ,   67 ,  166 ,  210 ,    3 
E: 000000.137535 64 01 81 7e 7f 81 00 00 6c 08 00 00 00 49 e7 29 eb f7 ff ee ff 0a 00 33 00 6a 1f 3b 05 10 e1 d6 bf 07 80 00 00 00 80 00 00 00 00 09 09 00 00 00 00 00 81 fd d6 bf 28 08 00 7f ce 0e fe 43 a6 d2 03
# ReportID: 1 / X:  129 | Y:  127 | Z:  127 | Rz:  129 | Rx:    0 | Ry:    0 | 0xff000020:  109 | Hat switch:   8 | Button: 0  0  0  0  0  0  0  0  0  0  0  0  0  0  0 | 0xff000021: 0 , 0 , 0 , 0 , 0 , 0 , 0 , 0 , 0 , 0 , 0 , 0 , 0 | 0xff000022:   74 ,  231 ,   41 ,  235 ,  246 ,  255 ,  238 ,  255 ,   10 ,    0 ,   48 ,    0 ,   86 ,   31 ,   60 ,    5 ,    3 ,   16 ,  215 ,  191 ,    7 ,  128 ,    0 ,    0 ,    0 ,  128 ,    0 ,    0 ,    0 ,    0 ,    9 ,    9 ,    0 ,    0 ,    0 ,    0 ,    0 ,   97 ,   44 ,  215 ,  191 ,   40 ,    8 ,    0 ,    2 ,   12 ,   20 ,  162 ,   10 ,  180 ,  142 ,   69 
E: 000000.141983 64 01 81 7f 7f 81 00 00 6d 08 00 00 00 4a e7 29 eb f6 ff ee ff 0a 00 30 00 56 1f 3c 05 03 10 d7 bf 07 80 00 00 00 80 00 00 00 00 09 09 00 00 00 00 00 61 2c d7 bf 28 08 00 02 0c 14 a2 0a b4 8e 45
# ReportID: 1 / X:  129 | Y:  127 | Z:  127 | Rz:  129 | Rx:    0 | Ry:    0 | 0xff000020:  110 | Hat switch:   8 | Button: 0  0  0  0  0  0  0  0  0  0  0  0  0  0  0 | 0xff000021: 0 , 0 , 0 , 0 , 0 , 0 , 0 , 0 , 0 , 0 , 0 , 0 , 0 | 0xff000022:   75 ,  231 ,   41 ,  235 ,  246 ,  255 ,  238 ,  255 ,   10 ,    0 ,   49 ,    0 ,   73 ,   31 ,   55 ,    5 ,  246 ,   62 ,  215 ,  191 ,    7 ,  128 ,    0 ,    0 ,    0 ,  128 ,    0 ,    0 ,    0 ,    0 ,    9 ,    9 ,    0 ,    0 ,    0 ,    0 ,    0 ,   65 ,   91 ,  215 ,  191 ,   40 ,    8 ,    0 ,   69 ,   30 ,  159 ,  193 ,   36 ,  103 ,  146 ,   11 
E: 000000.145792 64 01 81 7f 7f 81 00 00 6e 08 00 00 00 4b e7 29 eb f6 ff ee ff 0a 00 31 00 49 1f 37 05 f6 3e d7 bf 07 80 00 00 00 80 00 00 00 00 09 09 00 00 00 00 00 41 5b d7 bf 28 08 00 45 1e 9f c1 24 67 92 0b
# ReportID: 1 / X:  129 | Y:  127 | Z:  127 | Rz:  129 | Rx:    0 | Ry:    0 | 0xff000020:  111 | Hat switch:   8 | Button: 0  0  0  0  0  0  0  0  0  0  0  0  0  0  0 | 0xff000021: 0 , 0 , 0 , 0 , 0 , 0 , 0 , 0 , 0 , 0 , 0 , 0 , 0 | 0xff000022:   76 ,  231 ,   41 ,  235 ,  245 ,  255 ,  238 ,  255 ,   10 ,    0 ,   46 ,    0 ,   76 ,   31 ,   62 ,    5 ,  233 ,  109 ,  215 ,  191 ,    7 ,  128 ,    0 ,    0 ,    0 ,  128 ,    0 ,    0 ,    0 ,    0 ,    9 ,    9 ,    0 ,    0 ,    0 ,    0 ,    0 ,   33 ,  138 ,  215 ,  191 ,   40 ,    8 ,    0 ,   33 ,   62 ,  225 ,   70 ,  254 ,  228 ,  229 ,   97 
E: 000000.151397 64 01 81 7f 7f 81 00 00 6f 08 00 00 00 4c e7 29 eb f5 ff ee ff 0a 00 2e 00 4c 1f 3e 05 e9 6d d7 bf 07 80 00 00 00 80 00 00 00 00 09 09 00 00 00 00 00 21 8a d7 bf 28 08 00 21 3e e1 46 fe e4 e5 61
# ReportID: 1 / X:  129 | Y:  127 | Z:  128 | Rz:  129 | Rx:    0 | Ry:    0 | 0xff000020:  112 | Hat switch:   8 | Button: 0  0  0  0  0  0  0  0  0  0  0  0  0  0  0 | 0xff000021: 0 , 0 , 0 , 0 , 0 , 0 , 0 , 0 , 0 , 0 , 0 , 0 , 0 | 0xff000022:   77 ,  231 ,   41 ,  235 ,  246 ,  255 ,  238 ,  255 ,   10 ,    0 ,   43 ,    0 ,   81 ,   31 ,   66 ,    5 ,  220 ,  156 ,  215 ,  191 ,    7 ,  128 ,    0 ,    0 ,    0 ,  128 ,    0 ,    0 ,    0 ,    0 ,    9 ,    9 ,    0 ,    0 ,    0 ,    0 ,    0 ,    1 ,  185 ,  215 ,  191 ,   40 ,    8 ,    0 ,   26 ,  229 ,  140 ,  206 ,  131 ,   69 ,   37 ,  152 
E: 000000.154884 64 01 81 7f 80 81 00 00 70 08 00 00 00 4d e7 29 eb f6 ff ee ff 0a 00 2b 00 51 1f 42 05 dc 9c d7 bf 07 80 00 00 00 80 00 00 00 00 09 09 00 00 00 00 00 01 b9 d7 bf 28 08 00 1a e5 8c ce 83 45 25 98
# ReportID: 1 / X:  129 | Y:  127 | Z:  127 | Rz:  129 | Rx:    0 | Ry:    0 | 0xff000020:  113 | Hat switch:   8 | Button: 0  0  0  0  0  0  0  0  0  0  0  0  0  0  0 | 0xff000021: 0 , 0 , 0 , 0 , 0 , 0 , 0 , 0 , 0 , 0 , 0 , 0 , 0 | 0xff000022:   78 ,  231 ,   41 ,  235 ,  247 ,  255 ,  238 ,  255 ,   10 ,    0 ,   48 ,    0 ,   74 ,   31 ,   43 ,    5 ,  207 ,  203 ,  215 ,  191 ,    7 ,  128 ,    0 ,    0 ,    0 ,  128 ,    0 ,    0 ,    0 ,    0 ,    9 ,    9 ,    0 ,    0 ,    0 ,    0 ,    0 ,  225 ,  231 ,  215 ,  191 ,   40 ,    8 ,    0 ,   68 ,  218 ,   98 ,  199 ,  126 ,  161 ,    5 ,   80 
E: 000000.159009 64 01 81 7f 7f 81 00 00 71 08 00 00 00 4e e7 29 eb f7 ff ee ff 0a 00 30 00 4a 1f 2b 05 cf cb d7 bf 07 80 00 00 00 80 00 00 00 00 09 09 00 00 00 00 00 e1 e7 d7 bf 28 08 00 44 da 62 c7 7e a1 05 50
# ReportID: 1 / X:  129 | Y:  127 | Z:  127 | Rz:  129 | Rx:    0 | Ry:    0 | 0xff000020:  114 | Hat switch:   8 | Button: 0  0  0  0  0  0  0  0  0  0  0  0  0  0  0 | 0xff000021: 0 , 0 , 0 , 0 , 0 , 0 , 0 , 0 , 0 , 0 , 0 , 0 , 0 | 0xff000022:   79 ,  231 ,   41 ,  235 ,  247 ,  255 ,  238 ,  255 ,   12 ,    0 ,   43 ,    0 ,   97 ,   31 ,   49 ,    5 ,  194 ,  250 ,  215 ,  191 ,    7 ,  128 ,    0 ,    0 ,    0 ,  128 ,    0 ,    0 ,    0 ,    0 ,    9 ,    9 ,    0 ,    0 ,    0 ,    0 ,    0 ,  193 ,   22 ,  216 ,  191 ,   40 ,    8 ,    0 ,  131 ,   44 ,   49 ,  182 ,  224 ,  246 ,  186 ,  233 
E: 000000.162095 64 01 81 7f 7f 81 00 00 72 08 00 00 00 4f e7 29 eb f7 ff ee ff 0c 00 2b 00 61 1f 31 05 c2 fa d7 bf 07 80 00 00 00 80 00 00 00 00 09 09 00 00 00 00 00 c1 16 d8 bf 28 08 00 83 2c 31 b6 e0 f6 ba e9
# ReportID: 1 / X:  129 | Y:  127 | Z:  127 | Rz:  129 | Rx:    0 | Ry:    0 | 0xff000020:  115 | Hat switch:   8 | Button: 0  0  0  0  0  0  0  0  0  0  0  0  0  0  0 | 0xff000021: 0 , 0 , 0 , 0 , 0 , 0 , 0 , 0 , 0 , 0 , 0 , 0 , 0 | 0xff000022:   80 ,  231 ,   41 ,  235 ,  245 ,  255 ,  238 ,  255 ,   10 ,    0 ,   56 ,    0 ,   91 ,   31 ,   54 ,    5 ,  181 ,   41 ,  216 ,  191 ,    7 ,  128 ,    0 ,    0 ,    0 ,  128 ,    0 ,    0 ,    0 ,    0 ,    9 ,    9 ,    0 ,    0 ,    0 ,    0 ,    0 ,  161 ,   69 ,  216 ,  191 ,   40 ,    8 ,    0 ,  250 ,   41 ,  143 ,   76 ,  187 ,  182 ,  115 ,   96 
E: 000000.165484 64 01 81 7f 7f 81 00 00 73 08 00 00 00 50 e7 29 eb f5 ff ee ff 0a 00 38 00 5b 1f 36 05 b5 29 d8 bf 07 80 00 00 00 80 00 00 00 00 09 09 00 00 00 00 00 a1 45 d8 bf 28 08 00 fa 29 8f 4c bb b6 73 60
# ReportID: 1 / X:  129 | Y:  127 | Z:  127 | Rz:  129 | Rx:    0 | Ry:    0 | 0xff000020:  116 | Hat switch:   8 | Button: 0  0  0  0  0  0  0  0  0  0  0  0  0  0  0 | 0xff000021: 0 , 0 , 0 , 0 , 0 , 0 , 0 , 0 , 0 , 0 , 0 , 0 , 0 | 0xff000022:   81 ,  231 ,   41 ,  235 ,  245 ,  255 ,  240 ,  255 ,   10 ,    0 ,   56 ,    0 ,   74 ,   31 ,   48 ,    5 ,  168 ,   88 ,  216 ,  191 ,    7 ,  128 ,    0 ,    0 ,    0 ,  128 ,    0 ,    0 ,    0 ,    0 ,    9 ,    9 ,    0 ,    0 ,    0 ,    0 ,    0 ,  129 ,  116 ,  216 ,  191 ,   40 ,    8 ,    0 ,  185 ,  184 ,  154 ,   78 ,  199 ,  253 ,   84 ,  144 
E: 000000.170541 64 01 81 7f 7f 81 00 00 74 08 00 00 00 51 e7 29 eb f5 ff f0 ff 0a 00 38 00 4a 1f 30 05 a8 58 d8 bf 07 80 00 00 00 80 00 00 00 00 09 09 00 00 00 00 00 81 74 d8 bf 28 08 00 b9 b8 9a 4e c7 fd 54 90
# ReportID: 1 / X:  129 | Y:  127 | Z:  128 | Rz:  129 | Rx:    0 | Ry:    0 | 0xff000020:  117 | Hat switch:   8 | Button: 0  0  0  0  0  0  0  0  0  0  0  0  0  0  0 | 0xff000021: 0 , 0 , 0 , 0 , 0 , 0 , 0 , 0 , 0 , 0 , 0 , 0 , 0 | 0xff000022:   82 ,  231 ,   41 ,  235 ,  246 ,  255 ,  238 ,  255 ,   11 ,    0 ,   51 ,    0 ,   69 ,   31 ,   53 ,    5 ,  155 ,  135 ,  216 ,  191 ,    7 ,  128 ,    0 ,    0 ,    0 ,  128 ,    0 ,    0 ,    0 ,    0 ,    9 ,    9 ,    0 ,    0 ,    0 ,    0 ,    0 ,   97 ,  163 ,  216 ,  191 ,   40 ,    8 ,    0 ,   31 ,   89 ,  245 ,  252 ,   66 ,   95 ,  146 ,  240 
E: 000000.174856 64 01 81 7f 80 81 00 00 75 08 00 00 00 52 e7 29 eb f6 ff ee ff 0b 00 33 00 45 1f 35 05 9b 87 d8 bf 07 80 00 00 00 80 00 00 00 00 09 09 00 00 00 00 00 61 a3 d8 bf 28 08 00 1f 59 f5 fc 42 5f 92 f0
# ReportID: 1 / X:  129 | Y:  127 | Z:  127 | Rz:  129 | Rx:    0 | Ry:    0 | 0xff000020:  118 | Hat switch:   8 | Button: 0  0  0  0  0  0  0  0  0  0  0  0  0  0  0 | 0xff000021: 0 , 0 , 0 , 0 , 0 , 0 , 0 , 0 , 0 , 0 , 0 , 0 , 0 | 0xff000022:   83 ,  231 ,   41 ,  235 ,  246 ,  255 ,  237 ,  255 ,    9 ,    0 ,   51 ,    0 ,   78 ,   31 ,   51 ,    5 ,  142 ,  182 ,  216 ,  191 ,    7 ,  128 ,    0 ,    0 ,    0 ,  128 ,    0 ,    0 ,    0 ,    0 ,    9 ,    9 ,    0 ,    0 ,    0 ,    0 ,    0 ,   65 ,  210 ,  216 ,  191 ,   40 ,    8 ,    0 ,  148 ,  127 ,   99 ,   60 ,  169 ,  224 ,  117 ,   16 
E: 000000.177555 64 01 81 7f 7f 81 00 00 76 08 00 00 00 53 e7 29 eb f6 ff ed ff 09 00 33 00 4e 1f 33 05 8e b6 d8 bf 07 80 00 00 00 80 00 00 00 00 09 09 00 00 00 00 00 41 d2 d8 bf 28 08 00 94 7f 63 3c a9 e0 75 10
# ReportID: 1 / X:  129 | Y:  127 | Z:  127 | Rz:  129 | Rx:    0 | Ry:    0 | 0xff000020:  119 | Hat switch:   8 | Button: 0  0  0  0  0  0  0  0  0  0  0  0  0  0  0 | 0xff000021: 0 , 0 , 0 , 0 , 0 , 0 , 0 , 0 , 0 , 0 , 0 , 0 , 0 | 0xff000022:   84 ,  231 ,   41 ,  235 ,  246 ,  255 ,  239 ,  255 ,   11 ,    0 ,   52 ,    0 ,   83 ,   31 ,   50 ,    5 ,  129 ,  229 ,  216 ,  191 ,    7 ,  128 ,    0 ,    0 ,    0 ,  128 ,    0 ,    0 ,    0 ,    0 ,    9 ,    9 ,    0 ,    0 ,    0 ,    0 ,    0 ,   33 ,    1 ,  217 ,  191 ,   40 ,    8 ,    0 ,  183 ,  125 ,   84 ,  233 ,  193 ,  196 ,  133 ,  135 
E: 000000.182029 64 01 81 7f 7f 81 00 00 77 08 00 00 00 54 e7 29 eb f6 ff ef ff 0b 00 34 00 53 1f 32 05 81 e5 d8 bf 07 80 00 00 00 80 00 00 00 00 09 09 00 00 00 00 00 21 01 d9 bf 28 08 00 b7 7d 54 e9 c1 c4 85 87
# ReportID: 1 / X:  129 | Y:  127 | Z:  127 | Rz:  129 | Rx:    0 | Ry:    0 | 0xff000020:  120 | Hat switch:   8 | Button: 0  0  0  0  0  0  0  0  0  0  0  0  0  0  0 | 0xff000021: 0 , 0 , 0 , 0 , 0 , 0 , 0 , 0 , 0 , 0 , 0 , 0 , 0 | 0xff000022:   85 ,  231 ,   41 ,  235 ,  246 ,  255 ,  239 ,  255 ,   10 ,    0 ,   52 ,    0 ,   99 ,   31 ,   54 ,    5 ,  116 ,   20 ,  217 ,  191 ,    7 ,  128 ,    0 ,    0 ,    0 ,  128 ,    0 ,    0 ,    0 ,    0 ,    9 ,    9 ,    0 ,    0 ,    0 ,    0 ,    0 ,    1 ,   48 ,  217 ,  191 ,   40 ,    8 ,    0 ,   96 ,  216 ,   26 ,   32 ,  202 ,  145 ,  211 ,  155 
E: 000000.185537 64 01 81 7f 7f 81 00 00 78 08 00 00 00 55 e7 29 eb f6 ff ef ff 0a 00 34 00 63 1f 36 05 74 14 d9 bf 07 80 00 00 00 80 00 00 00 00 09 09 00 00 00 00 00 01 30 d9 bf 28 08 00 60 d8 1a 20 ca 91 d3 9b
# ReportID: 1 / X:  129 | Y:  127 | Z:  127 | Rz:  129 | Rx:    0 | Ry:    0 | 0xff000020:  121 | Hat switch:   8 | Button: 0  0  0  0  0  0  0  0  0  0  0  0  0  0  0 | 0xff000021: 0 , 0 , 0 , 0 , 0 , 0 , 0 , 0 , 0 , 0 , 0 , 0 , 0 | 0xff000022:   86 ,  231 ,   41 ,  235 ,  246 ,  255 ,  238 ,  255 ,   10 ,    0 ,   50 ,    0 ,  102 ,   31 ,   57 ,    5 ,  103 ,   67 ,  217 ,  191 ,    7 ,  128 ,    0 ,    0 ,    0 ,  128 ,    0 ,    0 ,    0 ,    0 ,    9 ,    9 ,    0 ,    0 ,    0 ,    0 ,    0 ,  225 ,   94 ,  217 ,  191 ,   40 ,    8 ,    0 ,   59 ,   67 ,  149 ,  116 ,   87 ,   30 ,  203 ,  191 
E: 000000.191312 64 01 81 7f 7f 81 00 00 79 08 00 00 00 56 e7 29 eb f6 ff ee ff 0a 00 32 00 66 1f 39 05 67 43 d9 bf 07 80 00 00 00 80 00 00 00 00 09 09 00 00 00 00 00 e1 5e d9 bf 28 08 00 3b 43 95 74 57 1e cb bf
# ReportID: 1 / X:  129 | Y:  127 | Z:  127 | Rz:  129 | Rx:    0 | Ry:    0 | 0xff000020:  122 | Hat switch:   8 | Button: 0  0  0  0  0  0  0  0  0  0  0  0  0  0  0 | 0xff000021: 0 , 0 , 0 , 0 , 0 , 0 , 0 , 0 , 0 , 0 , 0 , 0 , 0 | 0xff000022:   87 ,  231 ,   41 ,  235 ,  246 ,  255 ,  238 ,  255 ,   11 ,    0 ,   45 ,    0 ,   91 ,   31 ,   55 ,    5 ,   90 ,  114 ,  217 ,  191 ,    7 ,  128 ,    0 ,    0 ,    0 ,  128 ,    0 ,    0 ,    0 ,    0 ,    9 ,    9 ,    0 ,    0 ,    0 ,    0 ,    0 ,  193 ,  141 ,  217 ,  191 ,   40 ,    8 ,    0 ,  162 ,  225 ,  145 ,  247 ,   86 ,  206 ,  195 ,  127 
E: 000000.194919 64 01 81 7f 7f 81 00 00 7a 08 00 00 00 57 e7 29 eb f6 ff ee ff 0b 00 2d 00 5b 1f 37 05 5a 72 d9 bf 07 80 00 00 00 80 00 00 00 00 09 09 00 00 00 00 00 c1 8d d9 bf 28 08 00 a2 e1 91 f7 56 ce c3 7f
# ReportID: 1 / X:  129 | Y:  126 | Z:  127 | Rz:  129 | Rx:    0 | Ry:    0 | 0xff000020:  123 | Hat switch:   8 | Button: 0  0  0  0  0  0  0  0  0  0  0  0  0  0  0 | 0xff000021: 0 , 0 , 0 , 0 , 0 , 0 , 0 , 0 , 0 , 0 , 0 , 0 , 0 | 0xff000022:   88 ,  231 ,   41 ,  235 ,  246 ,  255 ,  239 ,  255 ,    9 ,    0 ,   49 ,    0 ,   80 ,   31 ,   53 ,    5 ,   77 ,  161 ,  217 ,  191 ,    7 ,  128 ,    0 ,    0 ,    0 ,  128 ,    0 ,    0 ,    0 ,    0 ,    9 ,    9 ,    0 ,    0 ,    0 ,    0 ,    0 ,  161 ,  188 ,  217 ,  191 ,   40 ,    8 ,    0 ,  190 ,  171 ,   12 ,  198 ,  201 ,   75 ,   44 ,   62 
E: 000000.198844 64 01 81 7e 7f 81 00 00 7b 08 00 00 00 58 e7 29 eb f6 ff ef ff 09 00 31 00 50 1f 35 05 4d a1 d9 bf 07 80 00 00 00 80 00 00 00 00 09 09 00 00 00 00 00 a1 bc d9 bf 28 08 00 be ab 0c c6 c9 4b 2c 3e
# ReportID: 1 / X:  129 | Y:  127 | Z:  127 | Rz:  129 | Rx:    0 | Ry:    0 | 0xff000020:  124 | Hat switch:   8 | Button: 0  0  0  0  0  0  0  0  0  0  0  0  0  0  0 | 0xff000021: 0 , 0 , 0 , 0 , 0 , 0 , 0 , 0 , 0 , 0 , 0 , 0 , 0 | 0xff000022:   89 ,  231 ,   41 ,  235 ,  247 ,  255 ,  239 ,  255 ,   10 ,    0 ,   56 ,    0 ,   75 ,   31 ,   58 ,    5 ,   64 ,  208 ,  217 ,  191 ,    7 ,  128 ,    0 ,    0 ,    0 ,  128 ,    0 ,    0 ,    0 ,    0 ,    9 ,    9 ,    0 ,    0 ,    0 ,    0 ,    0 ,  129 ,  235 ,  217 ,  191 ,   40 ,    8 ,    0 ,   55 ,  180 ,   46 ,  151 ,  216 ,  131 ,   55 ,   54 
E: 000000.202656 64 01 81 7f 7f 81 00 00 7c 08 00 00 00 59 e7 29 eb f7 ff ef ff 0a 00 38 00 4b 1f 3a 05 40 d0 d9 bf 07 80 00 00 00 80 00 00 00 00 09 09 00 00 00 00 00 81 eb d9 bf 28 08 00 37 b4 2e 97 d8 83 37 36
# ReportID: 1 / X:  129 | Y:  127 | Z:  128 | Rz:  129 | Rx:    0 | Ry:    0 | 0xff000020:  125 | Hat switch:   8 | Button: 0  0  0  0  0  0  0  0  0  0  0  0  0  0  0 | 0xff000021: 0 , 0 , 0 , 0 , 0 , 0 , 0 , 0 , 0 , 0 , 0 , 0 , 0 | 0xff000022:   90 ,  231 ,   41 ,  235 ,  247 ,  255 ,  239 ,  255 ,   10 ,    0 ,   51 ,    0 ,   67 ,   31 ,   62 ,    5 ,   51 ,  255 ,  217 ,  191 ,    7 ,  128 ,    0 ,    0 ,    0 ,  128 ,    0 ,    0 ,    0 ,    0 ,    9 ,    9 ,    0 ,    0 ,    0 ,    0 ,    0 ,   97 ,   26 ,  218 ,  191 ,   40 ,    8 ,    0 ,   10 ,  107 ,  169 ,  102 ,   92 ,   62 ,  182 ,   71 
E: 000000.206002 64 01 81 7f 80 81 00 00 7d 08 00 00 00 5a e7 29 eb f7 ff ef ff 0a 00 33 00 43 1f 3e 05 33 ff d9 bf 07 80 00 00 00 80 00 00 00 00 09 09 00 00 00 00 00 61 1a da bf 28 08 00 0a 6b a9 66 5c 3e b6 47
# ReportID: 1 / X:  129 | Y:  127 | Z:  127 | Rz:  129 | Rx:    0 | Ry:    0 | 0xff000020:  126 | Hat switch:   8 | Button: 0  0  0  0  0  0  0  0  0  0  0  0  0  0  0 | 0xff000021: 0 , 0 , 0 , 0 , 0 , 0 , 0 , 0 , 0 , 0 , 0 , 0 , 0 | 0xff000022:   91 ,  231 ,   41 ,  235 ,  247 ,  255 ,  238 ,  255 ,   11 ,    0 ,   46 ,    0 ,   85 ,   31 ,   58 ,    5 ,   38 ,   46 ,  218 ,  191 ,    7 ,  128 ,    0 ,    0 ,    0 ,  128 ,    0 ,    0 ,    0 ,    0 ,    9 ,    9 ,    0 ,    0 ,    0 ,    0 ,    0 ,   65 ,   73 ,  218 ,  191 ,   40 ,    8 ,    0 ,  150 ,   69 ,  202 ,  124 ,  173 ,  158 ,  216 ,  109 
E: 000000.209686 64 01 81 7f 7f 81 00 00 7e 08 00 00 00 5b e7 29 eb f7 ff ee ff 0b 00 2e 00 55 1f 3a 05 26 2e da bf 07 80 00 00 00 80 00 00 00 00 09 09 00 00 00 00 00 41 49 da bf 28 08 00 96 45 ca 7c ad 9e d8 6d
# ReportID: 1 / X:  129 | Y:  126 | Z:  127 | Rz:  129 | Rx:    0 | Ry:    0 | 0xff000020:  127 | Hat switch:   8 | Button: 0  0  0  0  0  0  0  0  0  0  0  0  0  0  0 | 0xff000021: 0 , 0 , 0 , 0 , 0 , 0 , 0 , 0 , 0 , 0 , 0 , 0 , 0 | 0xff000022:   92 ,  231 ,   41 ,  235 ,  248 ,  255 ,  238 ,  255 ,   11 ,    0 ,   49 ,    0 ,   85 ,   31 ,   62 ,    5 ,   25 ,   93 ,  218 ,  191 ,    7 ,  128 ,    0 ,    0 ,    0 ,  128 ,    0 ,    0 ,    0 ,    0 ,    9 ,    9 ,    0 ,    0 ,    0 ,    0 ,    0 ,   33 ,  120 ,  218 ,  191 ,   40 ,    8 ,    0 ,  164 ,   37 ,  220 ,  163 ,   90 ,  209 ,   28 ,  236 
E: 000000.213716 64 01 81 7e 7f 81 00 00 7f 08 00 00 00 5c e7 29 eb f8 ff ee ff 0b 00 31 00 55 1f 3e 05 19 5d da bf 07 80 00 00 00 80 00 00 00 00 09 09 00 00 00 00 00 21 78 da bf 28 08 00 a4 25 dc a3 5a d1 1c ec
# ReportID: 1 / X:  129 | Y:  127 | Z:  127 | Rz:  129 | Rx:    0 | Ry:    0 | 0xff000020:  128 | Hat switch:   8 | Button: 0  0  0  0  0  0  0  0  0  0  0  0  0  0  0 | 0xff000021: 0 , 0 , 0 , 0 , 0 , 0 , 0 , 0 , 0 , 0 , 0 , 0 , 0 | 0xff000022:   93 ,  231 ,   41 ,  235 ,  246 ,  255 ,  237 ,  255 ,   10 ,    0 ,   46 ,    0 ,   81 ,   31 ,   63 ,    5 ,   12 ,  140 ,  218 ,  191 ,    7 ,  128 ,    0 ,    0 ,    0 ,  128 ,    0 ,    0 ,    0 ,    0 ,    9 ,    9 ,    0 ,    0 ,    0 ,    0 ,    0 ,    1 ,  167 ,  218 ,  191 ,   40 ,    8 ,    0 ,  144 ,   37 ,   41 ,   69 ,  124 ,   78 ,  217 ,  194 
E: 000000.217773 64 01 81 7f 7f 81 00 00 80 08 00 00 00 5d e7 29 eb f6 ff ed ff 0a 00 2e 00 51 1f 3f 05 0c 8c da bf 07 80 00 00 00 80 00 00 00 00 09 09 00 00 00 00 00 01 a7 da bf 28 08 00 90 25 29 45 7c 4e d9 c2
# ReportID: 1 / X:  129 | Y:  127 | Z:  127 | Rz:  129 | Rx:    0 | Ry:    0 | 0xff000020:  129 | Hat switch:   8 | Button: 0  0  0  0  0  0  0  0  0  0  0  0  0  0  0 | 0xff000021: 0 , 0 , 0 , 0 , 0 , 0 , 0 , 0 , 0 , 0 , 0 , 0 , 0 | 0xff000022:   94 ,  231 ,   41 ,  235 ,  248 ,  255 ,  238 ,  255 ,   10 ,    0 ,   53 ,    0 ,   70 ,   31 ,   57 ,    5 ,  255 ,  186 ,  218 ,  191 ,    7 ,  128 ,    0 ,    0 ,    0 ,  128 ,    0 ,    0 ,    0 ,    0 ,    9 ,    9 ,    0 ,    0 ,    0 ,    0 ,    0 ,  225 ,  213 ,  218 ,  191 ,   40 ,    8 ,    0 ,  181 ,  138 ,  250 ,   72 ,  236 ,  131 ,  102 ,   50 
E: 000000.221732 64 01 81 7f 7f 81 00 00 81 08 00 00 00 5e e7 29 eb f8 ff ee ff 0a 00 35 00 46 1f 39 05 ff ba da bf 07 80 00 00 00 80 00 00 00 00 09 09 00 00 00 00 00 e1 d5 da bf 28 08 00 b5 8a fa 48 ec 83 66 32
# ReportID: 1 / X:  129 | Y:  126 | Z:  127 | Rz:  129 | Rx:    0 | Ry:    0 | 0xff000020:  130 | Hat switch:   8 | Button: 0  0  0  0  0  0  0  0  0  0  0  0  0  0  0 | 0xff000021: 0 , 0 , 0 , 0 , 0 , 0 , 0 , 0 , 0 , 0 , 0 , 0 , 0 | 0xff000022:   95 ,  231 ,   41 ,  235 ,  248 ,  255 ,  238 ,  255 ,    9 ,    0 ,   41 ,    0 ,   68 ,   31 ,   56 ,    5 ,  242 ,  233 ,  218 ,  191 ,    7 ,  128 ,    0 ,    0 ,    0 ,  128 ,    0 ,    0 ,    0 ,    0 ,    9 ,    9 ,    0 ,    0 ,    0 ,    0 ,    0 ,  193 ,    4 ,  219 ,  191 ,   40 ,    8 ,    0 ,   43 ,  252 ,  200 ,   78 ,  105 ,   95 ,   89 ,  121 
E: 000000.225793 64 01 81 7e 7f 81 00 00 82 08 00 00 00 5f e7 29 eb f8 ff ee ff 09 00 29 00 44 1f 38 05 f2 e9 da bf 07 80 00 00 00 80 00 00 00 00 09 09 00 00 00 00 00 c1 04 db bf 28 08 00 2b fc c8 4e 69 5f 59 79
# ReportID: 1 / X:  129 | Y:  126 | Z:  127 | Rz:  129 | Rx:    0 | Ry:    0 | 0xff000020:  131 | Hat switch:   8 | Button: 0  0  0  0  0  0  0  0  0  0  0  0  0  0  0 | 0xff000021: 0 , 0 , 0 , 0 , 0 , 0 , 0 , 0 , 0 , 0 , 0 , 0 , 0 | 0xff000022:   96 ,  231 ,   41 ,  235 ,  248 ,  255 ,  238 ,  255 ,   10 ,    0 ,   44 ,    0 ,   76 ,   31 ,   57 ,    5 ,  229 ,   24 ,  219 ,  191 ,    7 ,  128 ,    0 ,    0 ,    0 ,  128 ,    0 ,    0 ,    0 ,    0 ,    9 ,    9 ,    0 ,    0 ,    0 ,    0 ,    0 ,  161 ,   51 ,  219 ,  191 ,   40 ,    8 ,    0 ,   67 ,  243 ,  226 ,  102 ,  226 ,  170 ,  173 ,  213 
E: 000000.230293 64 01 81 7e 7f 81 00 00 83 08 00 00 00 60 e7 29 eb f8 ff ee ff 0a 00 2c 00 4c 1f 39 05 e5 18 db bf 07 80 00 00 00 80 00 00 00 00 09 09 00 00 00 00 00 a1 33 db bf 28 08 00 43 f3 e2 66 e2 aa ad d5
# ReportID: 1 / X:  129 | Y:  127 | Z:  127 | Rz:  129 | Rx:    0 | Ry:    0 | 0xff000020:  132 | Hat switch:   8 | Button: 0  0  0  0  0  0  0  0  0  0  0  0  0  0  0 | 0xff000021: 0 , 0 , 0 , 0 , 0 , 0 , 0 , 0 , 0 , 0 , 0 , 0 , 0 | 0xff000022:   97 ,  231 ,   41 ,  235 ,  248 ,  255 ,  239 ,  255 ,   10 ,    0 ,   46 ,    0 ,   84 ,   31 ,   57 ,    5 ,  216 ,   71 ,  219 ,  191 ,    7 ,  128 ,    0 ,    0 ,    0 ,  128 ,    0 ,    0 ,    0 ,    0 ,    9 ,    9 ,    0 ,    0 ,    0 ,    0 ,    0 ,  129 ,   98 ,  219 ,  191 ,   40 ,    8 ,    0 ,   57 ,  154 ,  102 ,  157 ,   23 ,  252 ,  251 ,  108 
E: 000000.235218 64 01 81 7f 7f 81 00 00 84 08 00 00 00 61 e7 29 eb f8 ff ef ff 0a 00 2e 00 54 1f 39 05 d8 47 db bf 07 80 00 00 00 80 00 00 00 00 09 09 00 00 00 00 00 81 62 db bf 28 08 00 39 9a 66 9d 17 fc fb 6c
# ReportID: 1 / X:  129 | Y:  127 | Z:  127 | Rz:  129 | Rx:    0 | Ry:    0 | 0xff000020:  133 | Hat switch:   8 | Button: 0  0  0  0  0  0  0  0  0  0  0  0  0  0  0 | 0xff000021: 0 , 0 , 0 , 0 , 0 , 0 , 0 , 0 , 0 , 0 , 0 , 0 , 0 | 0xff000022:   98 ,  231 ,   41 ,  235 ,  246 ,  255 ,  238 ,  255 ,   10 ,    0 ,   46 ,    0 ,   88 ,   31 ,   56 ,    5 ,  203 ,  118 ,  219 ,  191 ,    7 ,  128 ,    0 ,    0 ,    0 ,  128 ,    0 ,    0 ,    0 ,    0 ,    9 ,    9 ,    0 ,    0 ,    0 ,    0 ,    0 ,   97 ,  145 ,  219 ,  191 ,   40 ,    8 ,    0 ,   17 ,  152 ,  153 ,    7 ,   76 ,  159 ,  166 ,  168 
E: 000000.238214 64 01 81 7f 7f 81 00 00 85 08 00 00 00 62 e7 29 eb f6 ff ee ff 0a 00 2e 00 58 1f 38 05 cb 76 db bf 07 80 00 00 00 80 00 00 00 00 09 09 00 00 00 00 00 61 91 db bf 28 08 00 11 98 99 07 4c 9f a6 a8
# ReportID: 1 / X:  129 | Y:  127 | Z:  127 | Rz:  129 | Rx:    0 | Ry:    0 | 0xff000020:  134 | Hat switch:   8 | Button: 0  0  0  0  0  0  0  0  0  0  0  0  0  0  0 | 0xff000021: 0 , 0 , 0 , 0 , 0 , 0 , 0 , 0 , 0 , 0 , 0 , 0 , 0 | 0xff000022:   99 ,  231 ,   41 ,  235 ,  248 ,  255 ,  239 ,  255 ,   10 ,    0 ,   44 ,    0 ,   99 ,   31 ,   60 ,    5 ,  190 ,  165 ,  219 ,  191 ,    7 ,  128 ,    0 ,    0 ,    0 ,  128 ,    0 ,    0 ,    0 ,    0 ,    9 ,    9 ,    0 ,    0 ,    0 ,    0 ,    0 ,   65 ,  192 ,  219 ,  191 ,   40 ,    8 ,    0 ,  230 ,   30 ,  168 ,  129 ,  145 ,   25 ,   53 ,  238 
E: 000000.241815 64 01 81 7f 7f 81 00 00 86 08 00 00 00 63 e7 29 eb f8 ff ef ff 0a 00 2c 00 63 1f 3c 05 be a5 db bf 07 80 00 00 00 80 00 00 00 00 09 09 00 00 00 00 00 41 c0 db bf 28 08 00 e6 1e a8 81 91 19 35 ee
# ReportID: 1 / X:  129 | Y:  127 | Z:  127 | Rz:  129 | Rx:    0 | Ry:    0 | 0xff000020:  135 | Hat switch:   8 | Button: 0  0  0  0  0  0  0  0  0  0  0  0  0  0  0 | 0xff000021: 0 , 0 , 0 , 0 , 0 , 0 , 0 , 0 , 0 , 0 , 0 , 0 , 0 | 0xff000022:  100 ,  231 ,   41 ,  235 ,  247 ,  255 ,  238 ,  255 ,   10 ,    0 ,   36 ,    0 ,   92 ,   31 ,   59 ,    5 ,  177 ,  212 ,  219 ,  191 ,    7 ,  128 ,    0 ,    0 ,    0 ,  128 ,    0 ,    0 ,    0 ,    0 ,    9 ,    9 ,    0 ,    0 ,    0 ,    0 ,    0 ,   33 ,  239 ,  219 ,  191 ,   40 ,    8 ,    0 ,  250 ,  108 ,  232 ,   52 ,  104 ,   38 ,   75 ,  183 
E: 000000.245478 64 01 81 7f 7f 81 00 00 87 08 00 00 00 64 e7 29 eb f7 ff ee ff 0a 00 24 00 5c 1f 3b 05 b1 d4 db bf 07 80 00 00 00 80 00 00 00 00 09 09 00 00 00 00 00 21 ef db bf 28 08 00 fa 6c e8 34 68 26 4b b7
# ReportID: 1 / X:  129 | Y:  126 | Z:  127 | Rz:  129 | Rx:    0 | Ry:    0 | 0xff000020:  136 | Hat switch:   8 | Button: 0  0  0  0  0  0  0  0  0  0  0  0  0  0  0 | 0xff000021: 0 , 0 , 0 , 0 , 0 , 0 , 0 , 0 , 0 , 0 , 0 , 0 , 0 | 0xff000022:  101 ,  231 ,   41 ,  235 ,  246 ,  255 ,  238 ,  255 ,   11 ,    0 ,   49 ,    0 ,   85 ,   31 ,   55 ,    5 ,  164 ,    3 ,  220 ,  191 ,    7 ,  128 ,    0 ,    0 ,    0 ,  128 ,    0 ,    0 ,    0 ,    0 ,    9 ,    9 ,    0 ,    0 ,    0 ,    0 ,    0 ,    1 ,   30 ,  220 ,  191 ,   40 ,    8 ,    0 ,  123 ,  217 ,    6 ,   81 ,   82 ,  168 ,   44 ,  204 
E: 000000.250943 64 01 81 7e 7f 81 00 00 88 08 00 00 00 65 e7 29 eb f6 ff ee ff 0b 00 31 00 55 1f 37 05 a4 03 dc bf 07 80 00 00 00 80 00 00 00 00 09 09 00 00 00 00 00 01 1e dc bf 28 08 00 7b d9 06 51 52 a8 2c cc
# ReportID: 1 / X:  129 | Y:  127 | Z:  127 | Rz:  129 | Rx:    0 | Ry:    0 | 0xff000020:  137 | Hat switch:   8 | Button: 0  0  0  0  0  0  0  0  0  0  0  0  0  0  0 | 0xff000021: 0 , 0 , 0 , 0 , 0 , 0 , 0 , 0 , 0 , 0 , 0 , 0 , 0 | 0xff000022:  102 ,  231 ,   41 ,  235 ,  247 ,  255 ,  238 ,  255 ,   11 ,    0 ,   44 ,    0 ,   87 ,   31 ,   51 ,    5 ,  151 ,   50 ,  220 ,  191 ,    7 ,  128 ,    0 ,    0 ,    0 ,  128 ,    0 ,    0 ,    0 ,    0 ,    9 ,    9 ,    0 ,    0 ,    0 ,    0 ,    0 ,  225 ,   76 ,  220 ,  191 ,   40 ,    8 ,    0 ,   42 ,   96 ,  239 ,  164 ,  199 ,  207 ,  237 ,  234 
E: 000000.254007 64 01 81 7f 7f 81 00 00 89 08 00 00 00 66 e7 29 eb f7 ff ee ff 0b 00 2c 00 57 1f 33 05 97 32 dc bf 07 80 00 00 00 80 00 00 00 00 09 09 00 00 00 00 00 e1 4c dc bf 28 08 00 2a 60 ef a4 c7 cf ed ea
# ReportID: 1 / X:  129 | Y:  127 | Z:  127 | Rz:  129 | Rx:    0 | Ry:    0 | 0xff000020:  138 | Hat switch:   8 | Button: 0  0  0  0  0  0  0  0  0  0  0  0  0  0  0 | 0xff000021: 0 , 0 , 0 , 0 , 0 , 0 , 0 , 0 , 0 , 0 , 0 , 0 , 0 | 0xff000022:  103 ,  231 ,   41 ,  235 ,  248 ,  255 ,  238 ,  255 ,    9 ,    0 ,   41 ,    0 ,   80 ,   31 ,   49 ,    5 ,  138 ,   97 ,  220 ,  191 ,    7 ,  128 ,    0 ,    0 ,    0 ,  128 ,    0 ,    0 ,    0 ,    0 ,    9 ,    9 ,    0 ,    0 ,    0 ,    0 ,    0 ,  193 ,  123 ,  220 ,  191 ,   40 ,    8 ,    0 ,  244 ,   90 ,   73 ,  217 ,  139 ,  235 ,  181 ,  100 
E: 000000.257633 64 01 81 7f 7f 81 00 00 8a 08 00 00 00 67 e7 29 eb f8 ff ee ff 09 00 29 00 50 1f 31 05 8a 61 dc bf 07 80 00 00 00 80 00 00 00 00 09 09 00 00 00 00 00 c1 7b dc bf 28 08 00 f4 5a 49 d9 8b eb b5 64
# ReportID: 1 / X:  129 | Y:  127 | Z:  127 | Rz:  129 | Rx:    0 | Ry:    0 | 0xff000020:  139 | Hat switch:   8 | Button: 0  0  0  0  0  0  0  0  0  0  0  0  0  0  0 | 0xff000021: 0 , 0 , 0 , 0 , 0 , 0 , 0 , 0 , 0 , 0 , 0 , 0 , 0 | 0xff000022:  104 ,  231 ,   41 ,  235 ,  247 ,  255 ,  238 ,  255 ,   10 ,    0 ,   37 ,    0 ,   82 ,   31 ,   48 ,    5 ,  125 ,  144 ,  220 ,  191 ,    7 ,  128 ,    0 ,    0 ,    0 ,  128 ,    0 ,    0 ,    0 ,    0 ,    9 ,    9 ,    0 ,    0 ,    0 ,    0 ,    0 ,  161 ,  170 ,  220 ,  191 ,   40 ,    8 ,    0 ,   44 ,   21 ,  117 ,  227 ,  234 ,  149 ,   11 ,  110 
E: 000000.261860 64 01 81 7f 7f 81 00 00 8b 08 00 00 00 68 e7 29 eb f7 ff ee ff 0a 00 25 00 52 1f 30 05 7d 90 dc bf 07 80 00 00 00 80 00 00 00 00 09 09 00 00 00 00 00 a1 aa dc bf 28 08 00 2c 15 75 e3 ea 95 0b 6e
# ReportID: 1 / X:  129 | Y:  127 | Z:  127 | Rz:  129 | Rx:    0 | Ry:    0 | 0xff000020:  140 | Hat switch:   8 | Button: 0  0  0  0  0  0  0  0  0  0  0  0  0  0  0 | 0xff000021: 0 , 0 , 0 , 0 , 0 , 0 , 0 , 0 , 0 , 0 , 0 , 0 , 0 | 0xff000022:  105 ,  231 ,   41 ,  235 ,  246 ,  255 ,  238 ,  255 ,   11 ,    0 ,   49 ,    0 ,   81 ,   31 ,   45 ,    5 ,  112 ,  191 ,  220 ,  191 ,    7 ,  128 ,    0 ,    0 ,    0 ,  128 ,    0 ,    0 ,    0 ,    0 ,    9 ,    9 ,    0 ,    0 ,    0 ,    0 ,    0 ,  132 ,  217 ,  220 ,  191 ,   40 ,    8 ,    0 ,  109 ,  163 ,   15 ,   95 ,  233 ,  199 ,  172 ,   72 
E: 000000.265749 64 01 81 7f 7f 81 00 00 8c 08 00 00 00 69 e7 29 eb f6 ff ee ff 0b 00 31 00 51 1f 2d 05 70 bf dc bf 07 80 00 00 00 80 00 00 00 00 09 09 00 00 00 00 00 84 d9 dc bf 28 08 00 6d a3 0f 5f e9 c7 ac 48
# ReportID: 1 / X:  129 | Y:  127 | Z:  127 | Rz:  129 | Rx:    0 | Ry:    0 | 0xff000020:  141 | Hat switch:   8 | Button: 0  0  0  0  0  0  0  0  0  0  0  0  0  0  0 | 0xff000021: 0 , 0 , 0 , 0 , 0 , 0 , 0 , 0 , 0 , 0 , 0 , 0 , 0 | 0xff000022:  106 ,  231 ,   41 ,  235 ,  247 ,  255 ,  238 ,  255 ,   11 ,    0 ,   51 ,    0 ,   81 ,   31 ,   49 ,    5 ,   99 ,  238 ,  220 ,  191 ,    7 ,  128 ,    0 ,    0 ,    0 ,  128 ,    0 ,    0 ,    0 ,    0 ,    9 ,    9 ,    0 ,    0 ,    0 ,    0 ,    0 ,   97 ,    8 ,  221 ,  191 ,   40 ,    8 ,    0 ,  174 ,  199 ,   97 ,   92 ,   76 ,   45 ,  228 ,  222 
E: 000000.269705 64 01 81 7f 7f 81 00 00 8d 08 00 00 00 6a e7 29 eb f7 ff ee ff 0b 00 33 00 51 1f 31 05 63 ee dc bf 07 80 00 00 00 80 00 00 00 00 09 09 00 00 00 00 00 61 08 dd bf 28 08 00 ae c7 61 5c 4c 2d e4 de
# ReportID: 1 / X:  129 | Y:  127 | Z:  127 | Rz:  129 | Rx:    0 | Ry:    0 | 0xff000020:  142 | Hat switch:   8 | Button: 0  0  0  0  0  0  0  0  0  0  0  0  0  0  0 | 0xff000021: 0 , 0 , 0 , 0 , 0 , 0 , 0 , 0 , 0 , 0 , 0 , 0 , 0 | 0xff000022:  107 ,  231 ,   41 ,  235 ,  248 ,  255 ,  238 ,  255 ,   10 ,    0 ,   48 ,    0 ,   86 ,   31 ,   43 ,    5 ,   86 ,   29 ,  221 ,  191 ,    7 ,  128 ,    0 ,    0 ,    0 ,  128 ,    0 ,    0 ,    0 ,    0 ,    9 ,    9 ,    0 ,    0 ,    0 ,    0 ,    0 ,   65 ,   55 ,  221 ,  191 ,   40 ,    8 ,    0 ,  214 ,  235 ,  180 ,  171 ,  178 ,   32 ,  214 ,   51 
E: 000000.274385 64 01 81 7f 7f 81 00 00 8e 08 00 00 00 6b e7 29 eb f8 ff ee ff 0a 00 30 00 56 1f 2b 05 56 1d dd bf 07 80 00 00 00 80 00 00 00 00 09 09 00 00 00 00 00 41 37 dd bf 28 08 00 d6 eb b4 ab b2 20 d6 33
# ReportID: 1 / X:  129 | Y:  127 | Z:  128 | Rz:  129 | Rx:    0 | Ry:    0 | 0xff000020:  143 | Hat switch:   8 | Button: 0  0  0  0  0  0  0  0  0  0  0  0  0  0  0 | 0xff000021: 0 , 0 , 0 , 0 , 0 , 0 , 0 , 0 , 0 , 0 , 0 , 0 , 0 | 0xff000022:  108 ,  231 ,   41 ,  235 ,  247 ,  255 ,  238 ,  255 ,   10 ,    0 ,   51 ,    0 ,   91 ,   31 ,   53 ,    5 ,   72 ,   76 ,  221 ,  191 ,    7 ,  128 ,    0 ,    0 ,    0 ,  128 ,    0 ,    0 ,    0 ,    0 ,    9 ,    9 ,    0 ,    0 ,    0 ,    0 ,    0 ,   33 ,  102 ,  221 ,  191 ,   40 ,    8 ,    0 ,  232 ,  253 ,  254 ,   79 ,  251 ,   27 ,  106 ,  131 
E: 000000.277717 64 01 81 7f 80 81 00 00 8f 08 00 00 00 6c e7 29 eb f7 ff ee ff 0a 00 33 00 5b 1f 35 05 48 4c dd bf 07 80 00 00 00 80 00 00 00 00 09 09 00 00 00 00 00 21 66 dd bf 28 08 00 e8 fd fe 4f fb 1b 6a 83
# ReportID: 1 / X:  129 | Y:  127 | Z:  127 | Rz:  129 | Rx:    0 | Ry:    0 | 0xff000020:  144 | Hat switch:   8 | Button: 0  0  0  0  0  0  0  0  0  0  0  0  0  0  0 | 0xff000021: 0 , 0 , 0 , 0 , 0 , 0 , 0 , 0 , 0 , 0 , 0 , 0 , 0 | 0xff000022:  109 ,  231 ,   41 ,  235 ,  247 ,  255 ,  237 ,  255 ,   10 ,    0 ,   61 ,    0 ,   95 ,   31 ,   57 ,    5 ,   59 ,  123 ,  221 ,  191 ,    7 ,  128 ,    0 ,    0 ,    0 ,  128 ,    0 ,    0 ,    0 ,    0 ,    9 ,    9 ,    0 ,    0 ,    0 ,    0 ,    0 ,    1 ,  149 ,  221 ,  191 ,   40 ,    8 ,    0 ,  209 ,  244 ,   92 ,   71 ,  247 ,  245 ,   32 ,  185 
E: 000000.281729 64 01 81 7f 7f 81 00 00 90 08 00 00 00 6d e7 29 eb f7 ff ed ff 0a 00 3d 00 5f 1f 39 05 3b 7b dd bf 07 80 00 00 00 80 00 00 00 00 09 09 00 00 00 00 00 01 95 dd bf 28 08 00 d1 f4 5c 47 f7 f5 20 b9
# ReportID: 1 / X:  129 | Y:  127 | Z:  127 | Rz:  129 | Rx:    0 | Ry:    0 | 0xff000020:  145 | Hat switch:   8 | Button: 0  0  0  0  0  0  0  0  0  0  0  0  0  0  0 | 0xff000021: 0 , 0 , 0 , 0 , 0 , 0 , 0 , 0 , 0 , 0 , 0 , 0 , 0 | 0xff000022:  110 ,  231 ,   41 ,  235 ,  248 ,  255 ,  238 ,  255 ,   11 ,    0 ,   51 ,    0 ,   98 ,   31 ,   55 ,    5 ,   46 ,  170 ,  221 ,  191 ,    7 ,  128 ,    0 ,    0 ,    0 ,  128 ,    0 ,    0 ,    0 ,    0 ,    9 ,    9 ,    0 ,    0 ,    0 ,    0 ,    0 ,  225 ,  195 ,  221 ,  191 ,   40 ,    8 ,    0 ,  146 ,   62 ,   83 ,   50 ,  223 ,  216 ,  177 ,   55 
E: 000000.285522 64 01 81 7f 7f 81 00 00 91 08 00 00 00 6e e7 29 eb f8 ff ee ff 0b 00 33 00 62 1f 37 05 2e aa dd bf 07 80 00 00 00 80 00 00 00 00 09 09 00 00 00 00 00 e1 c3 dd bf 28 08 00 92 3e 53 32 df d8 b1 37
# ReportID: 1 / X:  129 | Y:  127 | Z:  127 | Rz:  129 | Rx:    0 | Ry:    0 | 0xff000020:  146 | Hat switch:   8 | Button: 0  0  0  0  0  0  0  0  0  0  0  0  0  0  0 | 0xff000021: 0 , 0 , 0 , 0 , 0 , 0 , 0 , 0 , 0 , 0 , 0 , 0 , 0 | 0xff000022:  111 ,  231 ,   41 ,  235 ,  247 ,  255 ,  238 ,  255 ,   11 ,    0 ,   43 ,    0 ,   88 ,   31 ,   54 ,    5 ,   33 ,  217 ,  221 ,  191 ,    7 ,  128 ,    0 ,    0 ,    0 ,  128 ,    0 ,    0 ,    0 ,    0 ,    9 ,    9 ,    0 ,    0 ,    0 ,    0 ,    0 ,  193 ,  242 ,  221 ,  191 ,   40 ,    8 ,    0 ,   93 ,  228 ,  151 ,  247 ,  195 ,   26 ,  160 ,  124 
E: 000000.289711 64 01 81 7f 7f 81 00 00 92 08 00 00 00 6f e7 29 eb f7 ff ee ff 0b 00 2b 00 58 1f 36 05 21 d9 dd bf 07 80 00 00 00 80 00 00 00 00 09 09 00 00 00 00 00 c1 f2 dd bf 28 08 00 5d e4 97 f7 c3 1a a0 7c
# ReportID: 1 / X:  129 | Y:  127 | Z:  128 | Rz:  129 | Rx:    0 | Ry:    0 | 0xff000020:  147 | Hat switch:   8 | Button: 0  0  0  0  0  0  0  0  0  0  0  0  0  0  0 | 0xff000021: 0 , 0 , 0 , 0 , 0 , 0 , 0 , 0 , 0 , 0 , 0 , 0 , 0 | 0xff000022:  112 ,  231 ,   41 ,  235 ,  247 ,  255 ,  238 ,  255 ,   10 ,    0 ,   55 ,    0 ,   77 ,   31 ,   51 ,    5 ,   20 ,    8 ,  222 ,  191 ,    7 ,  128 ,    0 ,    0 ,    0 ,  128 ,    0 ,    0 ,    0 ,    0 ,    9 ,    9 ,    0 ,    0 ,    0 ,    0 ,    0 ,  161 ,   33 ,  222 ,  191 ,   40 ,    8 ,    0 ,   84 ,  249 ,   23 ,  144 ,  111 ,   43 ,  202 ,  120 
E: 000000.293730 64 01 81 7f 80 81 00 00 93 08 00 00 00 70 e7 29 eb f7 ff ee ff 0a 00 37 00 4d 1f 33 05 14 08 de bf 07 80 00 00 00 80 00 00 00 00 09 09 00 00 00 00 00 a1 21 de bf 28 08 00 54 f9 17 90 6f 2b ca 78
# ReportID: 1 / X:  129 | Y:  127 | Z:  127 | Rz:  129 | Rx:    0 | Ry:    0 | 0xff000020:  148 | Hat switch:   8 | Button: 0  0  0  0  0  0  0  0  0  0  0  0  0  0  0 | 0xff000021: 0 , 0 , 0 , 0 , 0 , 0 , 0 , 0 , 0 , 0 , 0 , 0 , 0 | 0xff000022:  113 ,  231 ,   41 ,  235 ,  247 ,  255 ,  239 ,  255 ,   10 ,    0 ,   55 ,    0 ,   83 ,   31 ,   50 ,    5 ,    7 ,   55 ,  222 ,  191 ,    7 ,  128 ,    0 ,    0 ,    0 ,  128 ,    0 ,    0 ,    0 ,    0 ,    9 ,    9 ,    0 ,    0 ,    0 ,    0 ,    0 ,  129 ,   80 ,  222 ,  191 ,   40 ,    8 ,    0 ,  121 ,   64 ,  145 ,  242 ,  102 ,    4 ,   61 ,  221 
E: 000000.298455 64 01 81 7f 7f 81 00 00 94 08 00 00 00 71 e7 29 eb f7 ff ef ff 0a 00 37 00 53 1f 32 05 07 37 de bf 07 80 00 00 00 80 00 00 00 00 09 09 00 00 00 00 00 81 50 de bf 28 08 00 79 40 91 f2 66 04 3d dd
# ReportID: 1 / X:  129 | Y:  127 | Z:  127 | Rz:  129 | Rx:    0 | Ry:    0 | 0xff000020:  149 | Hat switch:   8 | Button: 0  0  0  0  0  0  0  0  0  0  0  0  0  0  0 | 0xff000021: 0 , 0 , 0 , 0 , 0 , 0 , 0 , 0 , 0 , 0 , 0 , 0 , 0 | 0xff000022:  114 ,  231 ,   41 ,  235 ,  247 ,  255 ,  238 ,  255 ,   10 ,    0 ,   55 ,    0 ,   76 ,   31 ,   48 ,    5 ,  250 ,  101 ,  222 ,  191 ,    7 ,  128 ,    0 ,    0 ,    0 ,  128 ,    0 ,    0 ,    0 ,    0 ,    9 ,    9 ,    0 ,    0 ,    0 ,    0 ,    0 ,   97 ,  127 ,  222 ,  191 ,   40 ,    8 ,    0 ,   96 ,  165 ,  182 ,  133 ,  216 ,   56 ,   35 ,   92 
E: 000000.301691 64 01 81 7f 7f 81 00 00 95 08 00 00 00 72 e7 29 eb f7 ff ee ff 0a 00 37 00 4c 1f 30 05 fa 65 de bf 07 80 00 00 00 80 00 00 00 00 09 09 00 00 00 00 00 61 7f de bf 28 08 00 60 a5 b6 85 d8 38 23 5c
# ReportID: 1 / X:  129 | Y:  127 | Z:  128 | Rz:  129 | Rx:    0 | Ry:    0 | 0xff000020:  150 | Hat switch:   8 | Button: 0  0  0  0  0  0  0  0  0  0  0  0  0  0  0 | 0xff000021: 0 , 0 , 0 , 0 , 0 , 0 , 0 , 0 , 0 , 0 , 0 , 0 , 0 | 0xff000022:  115 ,  231 ,   41 ,  235 ,  247 ,  255 ,  238 ,  255 ,   10 ,    0 ,   52 ,    0 ,   80 ,   31 ,   53 ,    5 ,  237 ,  148 ,  222 ,  191 ,    7 ,  128 ,    0 ,    0 ,    0 ,  128 ,    0 ,    0 ,    0 ,    0 ,    9 ,    9 ,    0 ,    0 ,    0 ,    0 ,    0 ,   65 ,  174 ,  222 ,  191 ,   40 ,    8 ,    0 ,  190 ,  244 ,   64 ,   82 ,  122 ,  232 ,  111 ,  101 
E: 000000.307774 64 01 81 7f 80 81 00 00 96 08 00 00 00 73 e7 29 eb f7 ff ee ff 0a 00 34 00 50 1f 35 05 ed 94 de bf 07 80 00 00 00 80 00 00 00 00 09 09 00 00 00 00 00 41 ae de bf 28 08 00 be f4 40 52 7a e8 6f 65
# ReportID: 1 / X:  129 | Y:  126 | Z:  128 | Rz:  129 | Rx:    0 | Ry:    0 | 0xff000020:  151 | Hat switch:   8 | Button: 0  0  0  0  0  0  0  0  0  0  0  0  0  0  0 | 0xff000021: 0 , 0 , 0 , 0 , 0 , 0 , 0 , 0 , 0 , 0 , 0 , 0 , 0 | 0xff000022:  116 ,  231 ,   41 ,  235 ,  246 ,  255 ,  238 ,  255 ,   10 ,    0 ,   58 ,    0 ,   78 ,   31 ,   52 ,    5 ,  224 ,  195 ,  222 ,  191 ,    7 ,  128 ,    0 ,    0 ,    0 ,  128 ,    0 ,    0 ,    0 ,    0 ,    9 ,    9 ,    0 ,    0 ,    0 ,    0 ,    0 ,   50 ,  221 ,  222 ,  191 ,   40 ,    8 ,    0 ,  129 ,   94 ,  183 ,   17 ,    5 ,  142 ,  241 ,  110 
E: 000000.309418 64 01 81 7e 80 81 00 00 97 08 00 00 00 74 e7 29 eb f6 ff ee ff 0a 00 3a 00 4e 1f 34 05 e0 c3 de bf 07 80 00 00 00 80 00 00 00 00 09 09 00 00 00 00 00 32 dd de bf 28 08 00 81 5e b7 11 05 8e f1 6e
# ReportID: 1 / X:  129 | Y:  127 | Z:  127 | Rz:  129 | Rx:    0 | Ry:    0 | 0xff000020:  152 | Hat switch:   8 | Button: 0  0  0  0  0  0  0  0  0  0  0  0  0  0  0 | 0xff000021: 0 , 0 , 0 , 0 , 0 , 0 , 0 , 0 , 0 , 0 , 0 , 0 , 0 | 0xff000022:  117 ,  231 ,   41 ,  235 ,  247 ,  255 ,  238 ,  255 ,   10 ,    0 ,   54 ,    0 ,   80 ,   31 ,   54 ,    5 ,  211 ,  242 ,  222 ,  191 ,    7 ,  128 ,    0 ,    0 ,    0 ,  128 ,    0 ,    0 ,    0 ,    0 ,    9 ,    9 ,    0 ,    0 ,    0 ,    0 ,    0 ,   34 ,   12 ,  223 ,  191 ,   40 ,    8 ,    0 ,   54 ,   28 ,   89 ,  113 ,   84 ,   86 ,  209 ,   73 
E: 000000.315428 64 01 81 7f 7f 81 00 00 98 08 00 00 00 75 e7 29 eb f7 ff ee ff 0a 00 36 00 50 1f 36 05 d3 f2 de bf 07 80 00 00 00 80 00 00 00 00 09 09 00 00 00 00 00 22 0c df bf 28 08 00 36 1c 59 71 54 56 d1 49
# ReportID: 1 / X:  129 | Y:  126 | Z:  127 | Rz:  129 | Rx:    0 | Ry:    0 | 0xff000020:  153 | Hat switch:   8 | Button: 0  0  0  0  0  0  0  0  0  0  0  0  0  0  0 | 0xff000021: 0 , 0 , 0 , 0 , 0 , 0 , 0 , 0 , 0 , 0 , 0 , 0 , 0 | 0xff000022:  118 ,  231 ,   41 ,  235 ,  247 ,  255 ,  239 ,  255 ,    9 ,    0 ,   53 ,    0 ,   80 ,   31 ,   63 ,    5 ,  198 ,   33 ,  223 ,  191 ,    7 ,  128 ,    0 ,    0 ,    0 ,  128 ,    0 ,    0 ,    0 ,    0 ,    9 ,    9 ,    0 ,    0 ,    0 ,    0 ,    0 ,  232 ,   58 ,  223 ,  191 ,   40 ,    8 ,    0 ,  229 ,  235 ,   41 ,  129 ,  140 ,  189 ,  118 ,   42 
E: 000000.317392 64 01 81 7e 7f 81 00 00 99 08 00 00 00 76 e7 29 eb f7 ff ef ff 09 00 35 00 50 1f 3f 05 c6 21 df bf 07 80 00 00 00 80 00 00 00 00 09 09 00 00 00 00 00 e8 3a df bf 28 08 00 e5 eb 29 81 8c bd 76 2a
# ReportID: 1 / X:  129 | Y:  127 | Z:  128 | Rz:  129 | Rx:    0 | Ry:    0 | 0xff000020:  154 | Hat switch:   8 | Button: 0  0  0  0  0  0  0  0  0  0  0  0  0  0  0 | 0xff000021: 0 , 0 , 0 , 0 , 0 , 0 , 0 , 0 , 0 , 0 , 0 , 0 , 0 | 0xff000022:  119 ,  231 ,   41 ,  235 ,  248 ,  255 ,  238 ,  255 ,   10 ,    0 ,   56 ,    0 ,   88 ,   31 ,   57 ,    5 ,  185 ,   80 ,  223 ,  191 ,    7 ,  128 ,    0 ,    0 ,    0 ,  128 ,    0 ,    0 ,    0 ,    0 ,    9 ,    9 ,    0 ,    0 ,    0 ,    0 ,    0 ,  202 ,  105 ,  223 ,  191 ,   40 ,    8 ,    0 ,  193 ,  224 ,  182 ,  151 ,  170 ,   70 ,  153 ,  152 
E: 000000.321605 64 01 81 7f 80 81 00 00 9a 08 00 00 00 77 e7 29 eb f8 ff ee ff 0a 00 38 00 58 1f 39 05 b9 50 df bf 07 80 00 00 00 80 00 00 00 00 09 09 00 00 00 00 00 ca 69 df bf 28 08 00 c1 e0 b6 97 aa 46 99 98
# ReportID: 1 / X:  129 | Y:  127 | Z:  127 | Rz:  129 | Rx:    0 | Ry:    0 | 0xff000020:  155 | Hat switch:   8 | Button: 0  0  0  0  0  0  0  0  0  0  0  0  0  0  0 | 0xff000021: 0 , 0 , 0 , 0 , 0 , 0 , 0 , 0 , 0 , 0 , 0 , 0 , 0 | 0xff000022:  120 ,  231 ,   41 ,  235 ,  248 ,  255 ,  238 ,  255 ,    9 ,    0 ,   52 ,    0 ,   85 ,   31 ,   53 ,    5 ,  172 ,  127 ,  223 ,  191 ,    7 ,  128 ,    0 ,    0 ,    0 ,  128 ,    0 ,    0 ,    0 ,    0 ,    9 ,    9 ,    0 ,    0 ,    0 ,    0 ,    0 ,  161 ,  152 ,  223 ,  191 ,   40 ,    8 ,    0 ,  195 ,  226 ,   53 ,   51 ,   26 ,  158 ,  233 ,  222 
E: 000000.326025 64 01 81 7f 7f 81 00 00 9b 08 00 00 00 78 e7 29 eb f8 ff ee ff 09 00 34 00 55 1f 35 05 ac 7f df bf 07 80 00 00 00 80 00 00 00 00 09 09 00 00 00 00 00 a1 98 df bf 28 08 00 c3 e2 35 33 1a 9e e9 de
# ReportID: 1 / X:  129 | Y:  127 | Z:  127 | Rz:  129 | Rx:    0 | Ry:    0 | 0xff000020:  156 | Hat switch:   8 | Button: 0  0  0  0  0  0  0  0  0  0  0  0  0  0  0 | 0xff000021: 0 , 0 , 0 , 0 , 0 , 0 , 0 , 0 , 0 , 0 , 0 , 0 , 0 | 0xff000022:  121 ,  231 ,   41 ,  235 ,  249 ,  255 ,  238 ,  255 ,    9 ,    0 ,   45 ,    0 ,   95 ,   31 ,   50 ,    5 ,  159 ,  174 ,  223 ,  191 ,    7 ,  128 ,    0 ,    0 ,    0 ,  128 ,    0 ,    0 ,    0 ,    0 ,    9 ,    9 ,    0 ,    0 ,    0 ,    0 ,    0 ,  129 ,  199 ,  223 ,  191 ,   40 ,    8 ,    0 ,  188 ,   99 ,  183 ,   65 ,  113 ,  242 ,   40 ,    7 
E: 000000.331330 64 01 81 7f 7f 81 00 00 9c 08 00 00 00 79 e7 29 eb f9 ff ee ff 09 00 2d 00 5f 1f 32 05 9f ae df bf 07 80 00 00 00 80 00 00 00 00 09 09 00 00 00 00 00 81 c7 df bf 28 08 00 bc 63 b7 41 71 f2 28 07
# ReportID: 1 / X:  129 | Y:  127 | Z:  127 | Rz:  129 | Rx:    0 | Ry:    0 | 0xff000020:  157 | Hat switch:   8 | Button: 0  0  0  0  0  0  0  0  0  0  0  0  0  0  0 | 0xff000021: 0 , 0 , 0 , 0 , 0 , 0 , 0 , 0 , 0 , 0 , 0 , 0 , 0 | 0xff000022:  122 ,  231 ,   41 ,  235 ,  246 ,  255 ,  238 ,  255 ,    9 ,    0 ,   41 ,    0 ,   93 ,   31 ,   49 ,    5 ,  146 ,  221 ,  223 ,  191 ,    7 ,  128 ,    0 ,    0 ,    0 ,  128 ,    0 ,    0 ,    0 ,    0 ,    9 ,    9 ,    0 ,    0 ,    0 ,    0 ,    0 ,   97 ,  246 ,  223 ,  191 ,   40 ,    8 ,    0 ,   90 ,  131 ,   71 ,  246 ,  171 ,  165 ,  121 ,   86 
E: 000000.335088 64 01 81 7f 7f 81 00 00 9d 08 00 00 00 7a e7 29 eb f6 ff ee ff 09 00 29 00 5d 1f 31 05 92 dd df bf 07 80 00 00 00 80 00 00 00 00 09 09 00 00 00 00 00 61 f6 df bf 28 08 00 5a 83 47 f6 ab a5 79 56
# ReportID: 1 / X:  129 | Y:  127 | Z:  127 | Rz:  129 | Rx:    0 | Ry:    0 | 0xff000020:  158 | Hat switch:   8 | Button: 0  0  0  0  0  0  0  0  0  0  0  0  0  0  0 | 0xff000021: 0 , 0 , 0 , 0 , 0 , 0 , 0 , 0 , 0 , 0 , 0 , 0 , 0 | 0xff000022:  123 ,  231 ,   41 ,  235 ,  245 ,  255 ,  239 ,  255 ,    9 ,    0 ,   44 ,    0 ,   85 ,   31 ,   40 ,    5 ,  133 ,   12 ,  224 ,  191 ,    7 ,  128 ,    0 ,    0 ,    0 ,  128 ,    0 ,    0 ,    0 ,    0 ,    9 ,    9 ,    0 ,    0 ,    0 ,    0 ,    0 ,   65 ,   37 ,  224 ,  191 ,   40 ,    8 ,    0 ,  180 ,  101 ,   98 ,   50 ,  110 ,  101 ,   46 ,   89 
E: 000000.339025 64 01 81 7f 7f 81 00 00 9e 08 00 00 00 7b e7 29 eb f5 ff ef ff 09 00 2c 00 55 1f 28 05 85 0c e0 bf 07 80 00 00 00 80 00 00 00 00 09 09 00 00 00 00 00 41 25 e0 bf 28 08 00 b4 65 62 32 6e 65 2e 59
# ReportID: 1 / X:  129 | Y:  127 | Z:  127 | Rz:  129 | Rx:    0 | Ry:    0 | 0xff000020:  159 | Hat switch:   8 | Button: 0  0  0  0  0  0  0  0  0  0  0  0  0  0  0 | 0xff000021: 0 , 0 , 0 , 0 , 0 , 0 , 0 , 0 , 0 , 0 , 0 , 0 , 0 | 0xff000022:  124 ,  231 ,   41 ,  235 ,  246 ,  255 ,  238 ,  255 ,    9 ,    0 ,   45 ,    0 ,   83 ,   31 ,   45 ,    5 ,  120 ,   59 ,  224 ,  191 ,    7 ,  128 ,    0 ,    0 ,    0 ,  128 ,    0 ,    0 ,    0 ,    0 ,    9 ,    9 ,    0 ,    0 ,    0 ,    0 ,    0 ,   33 ,   84 ,  224 ,  191 ,   40 ,    8 ,    0 ,   96 ,  202 ,   49 ,  116 ,  101 ,  207 ,   32 ,  122 
E: 000000.343001 64 01 81 7f 7f 81 00 00 9f 08 00 00 00 7c e7 29 eb f6 ff ee ff 09 00 2d 00 53 1f 2d 05 78 3b e0 bf 07 80 00 00 00 80 00 00 00 00 09 09 00 00 00 00 00 21 54 e0 bf 28 08 00 60 ca 31 74 65 cf 20 7a
# ReportID: 1 / X:  129 | Y:  127 | Z:  127 | Rz:  129 | Rx:    0 | Ry:    0 | 0xff000020:  160 | Hat switch:   8 | Button: 0  0  0  0  0  0  0  0  0  0  0  0  0  0  0 | 0xff000021: 0 , 0 , 0 , 0 , 0 , 0 , 0 , 0 , 0 , 0 , 0 , 0 , 0 | 0xff000022:  125 ,  231 ,   41 ,  235 ,  247 ,  255 ,  238 ,  255 ,   11 ,    0 ,   47 ,    0 ,   88 ,   31 ,   48 ,    5 ,  107 ,  106 ,  224 ,  191 ,    7 ,  128 ,    0 ,    0 ,    0 ,  128 ,    0 ,    0 ,    0 ,    0 ,    9 ,    9 ,    0 ,    0 ,    0 ,    0 ,    0 ,    1 ,  131 ,  224 ,  191 ,   40 ,    8 ,    0 ,   64 ,  106 ,   64 ,  121 ,    8 ,  169 ,   21 ,  165 
E: 000000.346395 64 01 81 7f 7f 81 00 00 a0 08 00 00 00 7d e7 29 eb f7 ff ee ff 0b 00 2f 00 58 1f 30 05 6b 6a e0 bf 07 80 00 00 00 80 00 00 00 00 09 09 00 00 00 00 00 01 83 e0 bf 28 08 00 40 6a 40 79 08 a9 15 a5
# ReportID: 1 / X:  129 | Y:  127 | Z:  127 | Rz:  129 | Rx:    0 | Ry:    0 | 0xff000020:  161 | Hat switch:   8 | Button: 0  0  0  0  0  0  0  0  0  0  0  0  0  0  0 | 0xff000021: 0 , 0 , 0 , 0 , 0 , 0 , 0 , 0 , 0 , 0 , 0 , 0 , 0 | 0xff000022:  126 ,  231 ,   41 ,  235 ,  246 ,  255 ,  239 ,  255 ,    9 ,    0 ,   41 ,    0 ,   82 ,   31 ,   44 ,    5 ,   94 ,  153 ,  224 ,  191 ,    7 ,  128 ,    0 ,    0 ,    0 ,  128 ,    0 ,    0 ,    0 ,    0 ,    9 ,    9 ,    0 ,    0 ,    0 ,    0 ,    0 ,  225 ,  177 ,  224 ,  191 ,   40 ,    8 ,    0 ,  204 ,   68 ,  191 ,  202 ,  149 ,  186 ,  217 ,  165 
E: 000000.350238 64 01 81 7f 7f 81 00 00 a1 08 00 00 00 7e e7 29 eb f6 ff ef ff 09 00 29 00 52 1f 2c 05 5e 99 e0 bf 07 80 00 00 00 80 00 00 00 00 09 09 00 00 00 00 00 e1 b1 e0 bf 28 08 00 cc 44 bf ca 95 ba d9 a5
# ReportID: 1 / X:  129 | Y:  127 | Z:  127 | Rz:  129 | Rx:    0 | Ry:    0 | 0xff000020:  162 | Hat switch:   8 | Button: 0  0  0  0  0  0  0  0  0  0  0  0  0  0  0 | 0xff000021: 0 , 0 , 0 , 0 , 0 , 0 , 0 , 0 , 0 , 0 , 0 , 0 , 0 | 0xff000022:  127 ,  231 ,   41 ,  235 ,  246 ,  255 ,  239 ,  255 ,    9 ,    0 ,   47 ,    0 ,   88 ,   31 ,   45 ,    5 ,   81 ,  200 ,  224 ,  191 ,    7 ,  128 ,    0 ,    0 ,    0 ,  128 ,    0 ,    0 ,    0 ,    0 ,    9 ,    9 ,    0 ,    0 ,    0 ,    0 ,    0 ,  193 ,  224 ,  224 ,  191 ,   40 ,    8 ,    0 ,  205 ,  194 ,  122 ,   42 ,  179 ,  204 ,    3 ,  244 
E: 000000.354002 64 01 81 7f 7f 81 00 00 a2 08 00 00 00 7f e7 29 eb f6 ff ef ff 09 00 2f 00 58 1f 2d 05 51 c8 e0 bf 07 80 00 00 00 80 00 00 00 00 09 09 00 00 00 00 00 c1 e0 e0 bf 28 08 00 cd c2 7a 2a b3 cc 03 f4
# ReportID: 1 / X:  129 | Y:  127 | Z:  127 | Rz:  129 | Rx:    0 | Ry:    0 | 0xff000020:  163 | Hat switch:   8 | Button: 0  0  0  0  0  0  0  0  0  0  0  0  0  0  0 | 0xff000021: 0 , 0 , 0 , 0 , 0 , 0 , 0 , 0 , 0 , 0 , 0 , 0 , 0 | 0xff000022:  128 ,  231 ,   41 ,  235 ,  248 ,  255 ,  238 ,  255 ,    9 ,    0 ,   48 ,    0 ,   75 ,   31 ,   45 ,    5 ,   68 ,  247 ,  224 ,  191 ,    7 ,  128 ,    0 ,    0 ,    0 ,  128 ,    0 ,    0 ,    0 ,    0 ,    9 ,    9 ,    0 ,    0 ,    0 ,    0 ,    0 ,  161 ,   15 ,  225 ,  191 ,   40 ,    8 ,    0 ,  222 ,  168 ,   31 ,  167 ,  207 ,  223 ,   89 ,  141 
E: 000000.357511 64 01 81 7f 7f 81 00 00 a3 08 00 00 00 80 e7 29 eb f8 ff ee ff 09 00 30 00 4b 1f 2d 05 44 f7 e0 bf 07 80 00 00 00 80 00 00 00 00 09 09 00 00 00 00 00 a1 0f e1 bf 28 08 00 de a8 1f a7 cf df 59 8d
# ReportID: 1 / X:  129 | Y:  126 | Z:  127 | Rz:  129 | Rx:    0 | Ry:    0 | 0xff000020:  164 | Hat switch:   8 | Button: 0  0  0  0  0  0  0  0  0  0  0  0  0  0  0 | 0xff000021: 0 , 0 , 0 , 0 , 0 , 0 , 0 , 0 , 0 , 0 , 0 , 0 , 0 | 0xff000022:  129 ,  231 ,   41 ,  235 ,  247 ,  255 ,  239 ,  255 ,    9 ,    0 ,   52 ,    0 ,   85 ,   31 ,   41 ,    5 ,   55 ,   38 ,  225 ,  191 ,    7 ,  128 ,    0 ,    0 ,    0 ,  128 ,    0 ,    0 ,    0 ,    0 ,    9 ,    9 ,    0 ,    0 ,    0 ,    0 ,    0 ,  129 ,   62 ,  225 ,  191 ,   40 ,    8 ,    0 ,  128 ,  252 ,  183 ,   97 ,  235 ,  151 ,  103 ,  114 
E: 000000.361582 64 01 81 7e 7f 81 00 00 a4 08 00 00 00 81 e7 29 eb f7 ff ef ff 09 00 34 00 55 1f 29 05 37 26 e1 bf 07 80 00 00 00 80 00 00 00 00 09 09 00 00 00 00 00 81 3e e1 bf 28 08 00 80 fc b7 61 eb 97 67 72
# ReportID: 1 / X:  129 | Y:  127 | Z:  127 | Rz:  129 | Rx:    0 | Ry:    0 | 0xff000020:  165 | Hat switch:   8 | Button: 0  0  0  0  0  0  0  0  0  0  0  0  0  0  0 | 0xff000021: 0 , 0 , 0 , 0 , 0 , 0 , 0 , 0 , 0 , 0 , 0 , 0 , 0 | 0xff000022:  130 ,  231 ,   41 ,  235 ,  248 ,  255 ,  238 ,  255 ,    9 ,    0 ,   48 ,    0 ,   90 ,   31 ,   55 ,    5 ,   42 ,   85 ,  225 ,  191 ,    7 ,  128 ,    0 ,    0 ,    0 ,  128 ,    0 ,    0 ,    0 ,    0 ,    9 ,    9 ,    0 ,    0 ,    0 ,    0 ,    0 ,   97 ,  109 ,  225 ,  191 ,   40 ,    8 ,    0 ,   34 ,  127 ,   22 ,   29 ,   49 ,    3 ,  210 ,   72 
E: 000000.366459 64 01 81 7f 7f 81 00 00 a5 08 00 00 00 82 e7 29 eb f8 ff ee ff 09 00 30 00 5a 1f 37 05 2a 55 e1 bf 07 80 00 00 00 80 00 00 00 00 09 09 00 00 00 00 00 61 6d e1 bf 28 08 00 22 7f 16 1d 31 03 d2 48
# ReportID: 1 / X:  129 | Y:  127 | Z:  127 | Rz:  129 | Rx:    0 | Ry:    0 | 0xff000020:  166 | Hat switch:   8 | Button: 0  0  0  0  0  0  0  0  0  0  0  0  0  0  0 | 0xff000021: 0 , 0 , 0 , 0 , 0 , 0 , 0 , 0 , 0 , 0 , 0 , 0 , 0 | 0xff000022:  131 ,  231 ,   41 ,  235 ,  248 ,  255 ,  237 ,  255 ,    8 ,    0 ,   46 ,    0 ,   96 ,   31 ,   45 ,    5 ,   29 ,  132 ,  225 ,  191 ,    7 ,  128 ,    0 ,    0 ,    0 ,  128 ,    0 ,    0 ,    0 ,    0 ,    9 ,    9 ,    0 ,    0 ,    0 ,    0 ,    0 ,   65 ,  156 ,  225 ,  191 ,   40 ,    8 ,    0 ,  116 ,  199 ,  186 ,  172 ,  199 ,   68 ,  152 ,  200 
E: 000000.370189 64 01 81 7f 7f 81 00 00 a6 08 00 00 00 83 e7 29 eb f8 ff ed ff 08 00 2e 00 60 1f 2d 05 1d 84 e1 bf 07 80 00 00 00 80 00 00 00 00 09 09 00 00 00 00 00 41 9c e1 bf 28 08 00 74 c7 ba ac c7 44 98 c8
# ReportID: 1 / X:  129 | Y:  127 | Z:  127 | Rz:  129 | Rx:    0 | Ry:    0 | 0xff000020:  167 | Hat switch:   8 | Button: 0  0  0  0  0  0  0  0  0  0  0  0  0  0  0 | 0xff000021: 0 , 0 , 0 , 0 , 0 , 0 , 0 , 0 , 0 , 0 , 0 , 0 , 0 | 0xff000022:  132 ,  231 ,   41 ,  235 ,  248 ,  255 ,  238 ,  255 ,    9 ,    0 ,   55 ,    0 ,   92 ,   31 ,   49 ,    5 ,   16 ,  179 ,  225 ,  191 ,    7 ,  128 ,    0 ,    0 ,    0 ,  128 ,    0 ,    0 ,    0 ,    0 ,    9 ,    9 ,    0 ,    0 ,    0 ,    0 ,    0 ,   33 ,  203 ,  225 ,  191 ,   40 ,    8 ,    0 ,   50 ,  161 ,  222 ,  146 ,  137 ,  112 ,  132 ,  222 
E: 000000.373790 64 01 81 7f 7f 81 00 00 a7 08 00 00 00 84 e7 29 eb f8 ff ee ff 09 00 37 00 5c 1f 31 05 10 b3 e1 bf 07 80 00 00 00 80 00 00 00 00 09 09 00 00 00 00 00 21 cb e1 bf 28 08 00 32 a1 de 92 89 70 84 de
# ReportID: 1 / X:  129 | Y:  127 | Z:  127 | Rz:  129 | Rx:    0 | Ry:    0 | 0xff000020:  168 | Hat switch:   8 | Button: 0  0  0  0  0  0  0  0  0  0  0  0  0  0  0 | 0xff000021: 0 , 0 , 0 , 0 , 0 , 0 , 0 , 0 , 0 , 0 , 0 , 0 , 0 | 0xff000022:  133 ,  231 ,   41 ,  235 ,  246 ,  255 ,  238 ,  255 ,   10 ,    0 ,   46 ,    0 ,   94 ,   31 ,   70 ,    5 ,    3 ,  226 ,  225 ,  191 ,    7 ,  128 ,    0 ,    0 ,    0 ,  128 ,    0 ,    0 ,    0 ,    0 ,    9 ,    9 ,    0 ,    0 ,    0 ,    0 ,    0 ,    1 ,  250 ,  225 ,  191 ,   40 ,    8 ,    0 ,  140 ,   83 ,   15 ,  193 ,   70 ,  101 ,  227 ,   50 
E: 000000.379047 64 01 81 7f 7f 81 00 00 a8 08 00 00 00 85 e7 29 eb f6 ff ee ff 0a 00 2e 00 5e 1f 46 05 03 e2 e1 bf 07 80 00 00 00 80 00 00 00 00 09 09 00 00 00 00 00 01 fa e1 bf 28 08 00 8c 53 0f c1 46 65 e3 32
# ReportID: 1 / X:  129 | Y:  127 | Z:  127 | Rz:  129 | Rx:    0 | Ry:    0 | 0xff000020:  169 | Hat switch:   8 | Button: 0  0  0  0  0  0  0  0  0  0  0  0  0  0  0 | 0xff000021: 0 , 0 , 0 , 0 , 0 , 0 , 0 , 0 , 0 , 0 , 0 , 0 , 0 | 0xff000022:  134 ,  231 ,   41 ,  235 ,  246 ,  255 ,  239 ,  255 ,    9 ,    0 ,   56 ,    0 ,   90 ,   31 ,   44 ,    5 ,  246 ,   16 ,  226 ,  191 ,    7 ,  128 ,    0 ,    0 ,    0 ,  128 ,    0 ,    0 ,    0 ,    0 ,    9 ,    9 ,    0 ,    0 ,    0 ,    0 ,    0 ,  225 ,   40 ,  226 ,  191 ,   40 ,    8 ,    0 ,  105 ,  100 ,   79 ,    0 ,  210 ,  240 ,  127 ,   46 
E: 000000.382966 64 01 81 7f 7f 81 00 00 a9 08 00 00 00 86 e7 29 eb f6 ff ef ff 09 00 38 00 5a 1f 2c 05 f6 10 e2 bf 07 80 00 00 00 80 00 00 00 00 09 09 00 00 00 00 00 e1 28 e2 bf 28 08 00 69 64 4f 00 d2 f0 7f 2e
# ReportID: 1 / X:  129 | Y:  127 | Z:  127 | Rz:  129 | Rx:    0 | Ry:    0 | 0xff000020:  170 | Hat switch:   8 | Button: 0  0  0  0  0  0  0  0  0  0  0  0  0  0  0 | 0xff000021: 0 , 0 , 0 , 0 , 0 , 0 , 0 , 0 , 0 , 0 , 0 , 0 , 0 | 0xff000022:  135 ,  231 ,   41 ,  235 ,  246 ,  255 ,  238 ,  255 ,    9 ,    0 ,   53 ,    0 ,   80 ,   31 ,   53 ,    5 ,  233 ,   63 ,  226 ,  191 ,    7 ,  128 ,    0 ,    0 ,    0 ,  128 ,    0 ,    0 ,    0 ,    0 ,    9 ,    9 ,    0 ,    0 ,    0 ,    0 ,    0 ,  193 ,   87 ,  226 ,  191 ,   40 ,    8 ,    0 ,  149 ,    7 ,  109 ,   40 ,  240 ,  145 ,  126 ,   37 
E: 000000.386505 64 01 81 7f 7f 81 00 00 aa 08 00 00 00 87 e7 29 eb f6 ff ee ff 09 00 35 00 50 1f 35 05 e9 3f e2 bf 07 80 00 00 00 80 00 00 00 00 09 09 00 00 00 00 00 c1 57 e2 bf 28 08 00 95 07 6d 28 f0 91 7e 25
# ReportID: 1 / X:  129 | Y:  126 | Z:  128 | Rz:  129 | Rx:    0 | Ry:    0 | 0xff000020:  171 | Hat switch:   8 | Button: 0  0  0  0  0  0  0  0  0  0  0  0  0  0  0 | 0xff000021: 0 , 0 , 0 , 0 , 0 , 0 , 0 , 0 , 0 , 0 , 0 , 0 , 0 | 0xff000022:  136 ,  231 ,   41 ,  235 ,  244 ,  255 ,  238 ,  255 ,   12 ,    0 ,   67 ,    0 ,  174 ,   31 ,   67 ,    5 ,  220 ,  110 ,  226 ,  191 ,    7 ,  128 ,    0 ,    0 ,    0 ,  128 ,    0 ,    0 ,    0 ,    0 ,    9 ,    9 ,    0 ,    0 ,    0 ,    0 ,    0 ,  169 ,  134 ,  226 ,  191 ,   40 ,    8 ,    0 ,    4 ,  127 ,  113 ,  189 ,  248 ,  125 ,  113 ,   85 
E: 000000.390233 64 01 81 7e 80 81 00 00 ab 08 00 00 00 88 e7 29 eb f4 ff ee ff 0c 00 43 00 ae 1f 43 05 dc 6e e2 bf 07 80 00 00 00 80 00 00 00 00 09 09 00 00 00 00 00 a9 86 e2 bf 28 08 00 04 7f 71 bd f8 7d 71 55
# ReportID: 1 / X:  129 | Y:  127 | Z:  128 | Rz:  129 | Rx:    0 | Ry:    0 | 0xff000020:  172 | Hat switch:   8 | Button: 1  0  0  0  0  0  0  0  0  0  0  0  0  0  0 | 0xff000021: 0 , 0 , 0 , 0 , 0 , 0 , 0 , 0 , 0 , 0 , 0 , 0 , 0 | 0xff000022:  137 ,  231 ,   41 ,  235 ,  253 ,  255 ,  236 ,  255 ,    2 ,    0 ,   63 ,    0 ,  153 ,   28 ,   37 ,    5 ,  207 ,  157 ,  226 ,  191 ,    7 ,  128 ,    0 ,    0 ,    0 ,  128 ,    0 ,    0 ,    0 ,    0 ,    9 ,    9 ,    0 ,    0 ,    0 ,    0 ,    0 ,  153 ,  181 ,  226 ,  191 ,   40 ,    8 ,    0 ,   45 ,  104 ,   72 ,  179 ,   56 ,  237 ,  210 ,  197 
E: 000000.393666 64 01 81 7f 80 81 00 00 ac 18 00 00 00 89 e7 29 eb fd ff ec ff 02 00 3f 00 99 1c 25 05 cf 9d e2 bf 07 80 00 00 00 80 00 00 00 00 09 09 00 00 00 00 00 99 b5 e2 bf 28 08 00 2d 68 48 b3 38 ed d2 c5
# ReportID: 1 / X:  129 | Y:  126 | Z:  128 | Rz:  129 | Rx:    0 | Ry:    0 | 0xff000020:  173 | Hat switch:   8 | Button: 1  0  0  0  0  0  0  0  0  0  0  0  0  0  0 | 0xff000021: 0 , 0 , 0 , 0 , 0 , 0 , 0 , 0 , 0 , 0 , 0 , 0 , 0 | 0xff000022:  138 ,  231 ,   41 ,  235 ,  234 ,  255 ,  241 ,  255 ,    7 ,    0 ,   48 ,    0 ,  235 ,   33 ,  161 ,    5 ,  194 ,  204 ,  226 ,  191 ,    7 ,  128 ,    0 ,    0 ,    0 ,  128 ,    0 ,    0 ,    0 ,    0 ,    9 ,    9 ,    0 ,    0 ,    0 ,    0 ,    0 ,  103 ,  228 ,  226 ,  191 ,   40 ,    8 ,    0 ,  137 ,   53 ,  242 ,  223 ,   82 ,   86 ,   99 ,   83 
E: 000000.397550 64 01 81 7e 80 81 00 00 ad 18 00 00 00 8a e7 29 eb ea ff f1 ff 07 00 30 00 eb 21 a1 05 c2 cc e2 bf 07 80 00 00 00 80 00 00 00 00 09 09 00 00 00 00 00 67 e4 e2 bf 28 08 00 89 35 f2 df 52 56 63 53
# ReportID: 1 / X:  129 | Y:  126 | Z:  127 | Rz:  129 | Rx:    0 | Ry:    0 | 0xff000020:  174 | Hat switch:   8 | Button: 1  0  0  0  0  0  0  0  0  0  0  0  0  0  0 | 0xff000021: 0 , 0 , 0 , 0 , 0 , 0 , 0 , 0 , 0 , 0 , 0 , 0 , 0 | 0xff000022:  139 ,  231 ,   41 ,  235 ,  248 ,  255 ,  240 ,  255 ,   11 ,    0 ,   11 ,    0 ,  146 ,   31 ,   49 ,    5 ,  181 ,  251 ,  226 ,  191 ,    7 ,  128 ,    0 ,    0 ,    0 ,  128 ,    0 ,    0 ,    0 ,    0 ,    9 ,    9 ,    0 ,    0 ,    0 ,    0 ,    0 ,   73 ,   19 ,  227 ,  191 ,   40 ,    8 ,    0 ,   89 ,  187 ,  215 ,  194 ,  177 ,  159 ,   49 ,  165 
E: 000000.402451 64 01 81 7e 7f 81 00 00 ae 18 00 00 00 8b e7 29 eb f8 ff f0 ff 0b 00 0b 00 92 1f 31 05 b5 fb e2 bf 07 80 00 00 00 80 00 00 00 00 09 09 00 00 00 00 00 49 13 e3 bf 28 08 00 59 bb d7 c2 b1 9f 31 a5
# ReportID: 1 / X:  129 | Y:  127 | Z:  127 | Rz:  129 | Rx:    0 | Ry:    0 | 0xff000020:  175 | Hat switch:   8 | Button: 1  0  0  0  0  0  0  0  0  0  0  0  0  0  0 | 0xff000021: 0 , 0 , 0 , 0 , 0 , 0 , 0 , 0 , 0 , 0 , 0 , 0 , 0 | 0xff000022:  140 ,  231 ,   41 ,  235 ,  248 ,  255 ,  236 ,  255 ,    9 ,    0 ,   92 ,    0 ,  224 ,   30 ,  201 ,    4 ,  168 ,   42 ,  227 ,  191 ,    7 ,  128 ,    0 ,    0 ,    0 ,  128 ,    0 ,    0 ,    0 ,    0 ,    9 ,    9 ,    0 ,    0 ,    0 ,    0 ,    0 ,   32 ,   66 ,  227 ,  191 ,   40 ,    8 ,    0 ,  118 ,  139 ,   84 ,    0 ,  127 ,   63 ,  249 ,  161 
E: 000000.406854 64 01 81 7f 7f 81 00 00 af 18 00 00 00 8c e7 29 eb f8 ff ec ff 09 00 5c 00 e0 1e c9 04 a8 2a e3 bf 07 80 00 00 00 80 00 00 00 00 09 09 00 00 00 00 00 20 42 e3 bf 28 08 00 76 8b 54 00 7f 3f f9 a1
# ReportID: 1 / X:  129 | Y:  127 | Z:  127 | Rz:  129 | Rx:    0 | Ry:    0 | 0xff000020:  176 | Hat switch:   8 | Button: 1  0  0  0  0  0  0  0  0  0  0  0  0  0  0 | 0xff000021: 0 , 0 , 0 , 0 , 0 , 0 , 0 , 0 , 0 , 0 , 0 , 0 , 0 | 0xff000022:  141 ,  231 ,   41 ,  235 ,  247 ,  255 ,  239 ,  255 ,    7 ,    0 ,  242 ,  255 ,   16 ,   31 ,   40 ,    5 ,  155 ,   89 ,  227 ,  191 ,    7 ,  128 ,    0 ,    0 ,    0 ,  128 ,    0 ,    0 ,    0 ,    0 ,    9 ,    9 ,    0 ,    0 ,    0 ,    0 ,    0 ,    0 ,  113 ,  227 ,  191 ,   40 ,    8 ,    0 ,   21 ,   34 ,   45 ,   80 ,    1 ,  238 ,  176 ,   57 
E: 000000.410303 64 01 81 7f 7f 81 00 00 b0 18 00 00 00 8d e7 29 eb f7 ff ef ff 07 00 f2 ff 10 1f 28 05 9b 59 e3 bf 07 80 00 00 00 80 00 00 00 00 09 09 00 00 00 00 00 00 71 e3 bf 28 08 00 15 22 2d 50 01 ee b0 39
# ReportID: 1 / X:  129 | Y:  127 | Z:  127 | Rz:  129 | Rx:    0 | Ry:    0 | 0xff000020:  177 | Hat switch:   8 | Button: 1  0  0  0  0  0  0  0  0  0  0  0  0  0  0 | 0xff000021: 0 , 0 , 0 , 0 , 0 , 0 , 0 , 0 , 0 , 0 , 0 , 0 , 0 | 0xff000022:  142 ,  231 ,   41 ,  235 ,  248 ,  255 ,  238 ,  255 ,    9 ,    0 ,   69 ,    0 ,   94 ,   31 ,   24 ,    5 ,  142 ,  136 ,  227 ,  191 ,    7 ,  128 ,    0 ,    0 ,    0 ,  128 ,    0 ,    0 ,    0 ,    0 ,    9 ,    9 ,    0 ,    0 ,    0 ,    0 ,    0 ,  224 ,  159 ,  227 ,  191 ,   40 ,    8 ,    0 ,  110 ,  203 ,   99 ,   34 ,  122 ,  153 ,   89 ,  245 
E: 000000.414054 64 01 81 7f 7f 81 00 00 b1 18 00 00 00 8e e7 29 eb f8 ff ee ff 09 00 45 00 5e 1f 18 05 8e 88 e3 bf 07 80 00 00 00 80 00 00 00 00 09 09 00 00 00 00 00 e0 9f e3 bf 28 08 00 6e cb 63 22 7a 99 59 f5
# ReportID: 1 / X:  129 | Y:  127 | Z:  127 | Rz:  129 | Rx:    0 | Ry:    0 | 0xff000020:  178 | Hat switch:   8 | Button: 1  0  0  0  0  0  0  0  0  0  0  0  0  0  0 | 0xff000021: 0 , 0 , 0 , 0 , 0 , 0 , 0 , 0 , 0 , 0 , 0 , 0 , 0 | 0xff000022:  143 ,  231 ,   41 ,  235 ,  248 ,  255 ,  238 ,  255 ,    8 ,    0 ,   73 ,    0 ,  177 ,   31 ,   55 ,    5 ,  129 ,  183 ,  227 ,  191 ,    7 ,  128 ,    0 ,    0 ,    0 ,  128 ,    0 ,    0 ,    0 ,    0 ,    9 ,    9 ,    0 ,    0 ,    0 ,    0 ,    0 ,  192 ,  206 ,  227 ,  191 ,   40 ,    8 ,    0 ,  163 ,  211 ,  233 ,  236 ,  133 ,   92 ,  179 ,  111 
E: 000000.418574 64 01 81 7f 7f 81 00 00 b2 18 00 00 00 8f e7 29 eb f8 ff ee ff 08 00 49 00 b1 1f 37 05 81 b7 e3 bf 07 80 00 00 00 80 00 00 00 00 09 09 00 00 00 00 00 c0 ce e3 bf 28 08 00 a3 d3 e9 ec 85 5c b3 6f
# ReportID: 1 / X:  129 | Y:  127 | Z:  127 | Rz:  129 | Rx:    0 | Ry:    0 | 0xff000020:  179 | Hat switch:   8 | Button: 1  0  0  0  0  0  0  0  0  0  0  0  0  0  0 | 0xff000021: 0 , 0 , 0 , 0 , 0 , 0 , 0 , 0 , 0 , 0 , 0 , 0 , 0 | 0xff000022:  144 ,  231 ,   41 ,  235 ,  247 ,  255 ,  238 ,  255 ,    7 ,    0 ,   45 ,    0 ,   17 ,   31 ,   59 ,    5 ,  116 ,  230 ,  227 ,  191 ,    7 ,  128 ,    0 ,    0 ,    0 ,  128 ,    0 ,    0 ,    0 ,    0 ,    9 ,    9 ,    0 ,    0 ,    0 ,    0 ,    0 ,  160 ,  253 ,  227 ,  191 ,   40 ,    8 ,    0 ,  185 ,  122 ,   81 ,  179 ,  178 ,  147 ,    3 ,   89 
E: 000000.422436 64 01 81 7f 7f 81 00 00 b3 18 00 00 00 90 e7 29 eb f7 ff ee ff 07 00 2d 00 11 1f 3b 05 74 e6 e3 bf 07 80 00 00 00 80 00 00 00 00 09 09 00 00 00 00 00 a0 fd e3 bf 28 08 00 b9 7a 51 b3 b2 93 03 59
# ReportID: 1 / X:  129 | Y:  127 | Z:  128 | Rz:  129 | Rx:    0 | Ry:    0 | 0xff000020:  180 | Hat switch:   8 | Button: 1  0  0  0  0  0  0  0  0  0  0  0  0  0  0 | 0xff000021: 0 , 0 , 0 , 0 , 0 , 0 , 0 , 0 , 0 , 0 , 0 , 0 , 0 | 0xff000022:  145 ,  231 ,   41 ,  235 ,  248 ,  255 ,  239 ,  255 ,   10 ,    0 ,   53 ,    0 ,   95 ,   31 ,   43 ,    5 ,  103 ,   21 ,  228 ,  191 ,    7 ,  128 ,    0 ,    0 ,    0 ,  128 ,    0 ,    0 ,    0 ,    0 ,    9 ,    9 ,    0 ,    0 ,    0 ,    0 ,    0 ,  128 ,   44 ,  228 ,  191 ,   40 ,    8 ,    0 ,    4 ,   31 ,  197 ,  238 ,  241 ,  213 ,  187 ,  128 
E: 000000.425838 64 01 81 7f 80 81 00 00 b4 18 00 00 00 91 e7 29 eb f8 ff ef ff 0a 00 35 00 5f 1f 2b 05 67 15 e4 bf 07 80 00 00 00 80 00 00 00 00 09 09 00 00 00 00 00 80 2c e4 bf 28 08 00 04 1f c5 ee f1 d5 bb 80
