# Sony Interactive Entertainment DualSense Wireless Controller
# 0x05, 0x01,                    // Usage Page (Generic Desktop)        0
# 0x09, 0x05,                    // Usage (Game Pad)                    2
# 0xa1, 0x01,                    // Collection (Application)            4
# 0x85, 0x01,                    //  Report ID (1)                      6
# 0x09, 0x30,                    //  Usage (X)                          8
# 0x09, 0x31,                    //  Usage (Y)                          10
# 0x09, 0x32,                    //  Usage (Z)                          12
# 0x09, 0x35,                    //  Usage (Rz)                         14
# 0x09, 0x33,                    //  Usage (Rx)                         16
# 0x09, 0x34,                    //  Usage (Ry)                         18
# 0x15, 0x00,                    //  Logical Minimum (0)                20
# 0x26, 0xff, 0x00,              //  Logical Maximum (255)              22
# 0x75, 0x08,                    //  Report Size (8)                    25
# 0x95, 0x06,                    //  Report Count (6)                   27
# 0x81, 0x02,                    //  Input (Data,Var,Abs)               29
# 0x06, 0x00, 0xff,              //  Usage Page (Vendor Defined Page 1) 31
# 0x09, 0x20,                    //  Usage (Vendor Usage 0x20)          34
# 0x95, 0x01,                    //  Report Count (1)                   36
# 0x81, 0x02,                    //  Input (Data,Var,Abs)               38
# 0x05, 0x01,                    //  Usage Page (Generic Desktop)       40
# 0x09, 0x39,                    //  Usage (Hat switch)                 42
# 0x15, 0x00,                    //  Logical Minimum (0)                44
# 0x25, 0x07,                    //  Logical Maximum (7)                46
# 0x35, 0x00,                    //  Physical Minimum (0)               48
# 0x46, 0x3b, 0x01,              //  Physical Maximum (315)             50
# 0x65, 0x14,                    //  Unit (EnglishRotation: deg)        53
# 0x75, 0x04,                    //  Report Size (4)                    55
# 0x95, 0x01,                    //  Report Count (1)                   57
# 0x81, 0x42,                    //  Input (Data,Var,Abs,Null)          59
# 0x65, 0x00,                    //  Unit (None)                        61
# 0x05, 0x09,                    //  Usage Page (Button)                63
# 0x19, 0x01,                    //  Usage Minimum (1)                  65
# 0x29, 0x0f,                    //  Usage Maximum (15)                 67
# 0x15, 0x00,                    //  Logical Minimum (0)                69
# 0x25, 0x01,                    //  Logical Maximum (1)                71
# 0x75, 0x01,                    //  Report Size (1)                    73
# 0x95, 0x0f,                    //  Report Count (15)                  75
# 0x81, 0x02,                    //  Input (Data,Var,Abs)               77
# 0x06, 0x00, 0xff,              //  Usage Page (Vendor Defined Page 1) 79
# 0x09, 0x21,                    //  Usage (Vendor Usage 0x21)          82
# 0x95, 0x0d,                    //  Report Count (13)                  84
# 0x81, 0x02,                    //  Input (Data,Var,Abs)               86
# 0x06, 0x00, 0xff,              //  Usage Page (Vendor Defined Page 1) 88
# 0x09, 0x22,                    //  Usage (Vendor Usage 0x22)          91
# 0x15, 0x00,                    //  Logical Minimum (0)                93
# 0x26, 0xff, 0x00,              //  Logical Maximum (255)              95
# 0x75, 0x08,                    //  Report Size (8)                    98
# 0x95, 0x34,                    //  Report Count (52)                  100
# 0x81, 0x02,                    //  Input (Data,Var,Abs)               102
# 0x85, 0x02,                    //  Report ID (2)                      104
# 0x09, 0x23,                    //  Usage (Vendor Usage 0x23)          106
# 0x95, 0x2f,                    //  Report Count (47)                  108
# 0x91, 0x02,                    //  Output (Data,Var,Abs)              110
# 0x85, 0x05,                    //  Report ID (5)                      112
# 0x09, 0x33,                    //  Usage (Vendor Usage 0x33)          114
# 0x95, 0x28,                    //  Report Count (40)                  116
# 0xb1, 0x02,                    //  Feature (Data,Var,Abs)             118
# 0x85, 0x08,                    //  Report ID (8)                      120
# 0x09, 0x34,                    //  Usage (Vendor Usage 0x34)          122
# 0x95, 0x2f,                    //  Report Count (47)                  124
# 0xb1, 0x02,                    //  Feature (Data,Var,Abs)             126
# 0x85, 0x09,                    //  Report ID (9)                      128
# 0x09, 0x24,                    //  Usage (Vendor Usage 0x24)          130
# 0x95, 0x13,                    //  Report Count (19)                  132
# 0xb1, 0x02,                    //  Feature (Data,Var,Abs)             134
# 0x85, 0x0a,                    //  Report ID (10)                     136
# 0x09, 0x25,                    //  Usage (Vendor Usage 0x25)          138
# 0x95, 0x1a,                    //  Report Count (26)                  140
# 0xb1, 0x02,                    //  Feature (Data,Var,Abs)             142
# 0x85, 0x20,                    //  Report ID (32)                     144
# 0x09, 0x26,                    //  Usage (Vendor Usage 0x26)          146
# 0x95, 0x3f,                    //  Report Count (63)                  148
# 0xb1, 0x02,                    //  Feature (Data,Var,Abs)             150
# 0x85, 0x21,                    //  Report ID (33)                     152
# 0x09, 0x27,                    //  Usage (Vendor Usage 0x27)          154
# 0x95, 0x04,                    //  Report Count (4)                   156
# 0xb1, 0x02,                    //  Feature (Data,Var,Abs)             158
# 0x85, 0x22,                    //  Report ID (34)                     160
# 0x09, 0x40,                    //  Usage (Vendor Usage 0x40)          162
# 0x95, 0x3f,                    //  Report Count (63)                  164
# 0xb1, 0x02,                    //  Feature (Data,Var,Abs)             166
# 0x85, 0x80,                    //  Report ID (128)                    168
# 0x09, 0x28,                    //  Usage (Vendor Usage 0x28)          170
# 0x95, 0x3f,                    //  Report Count (63)                  172
# 0xb1, 0x02,                    //  Feature (Data,Var,Abs)             174
# 0x85, 0x81,                    //  Report ID (129)                    176
# 0x09, 0x29,                    //  Usage (Vendor Usage 0x29)          178
# 0x95, 0x3f,                    //  Report Count (63)                  180
# 0xb1, 0x02,                    //  Feature (Data,Var,Abs)             182
# 0x85, 0x82,                    //  Report ID (130)                    184
# 0x09, 0x2a,                    //  Usage (Vendor Usage 0x2a)          186
# 0x95, 0x09,                    //  Report Count (9)                   188
# 0xb1, 0x02,                    //  Feature (Data,Var,Abs)             190
# 0x85, 0x83,                    //  Report ID (131)                    192
# 0x09, 0x2b,                    //  Usage (Vendor Usage 0x2b)          194
# 0x95, 0x3f,                    //  Report Count (63)                  196
# 0xb1, 0x02,                    //  Feature (Data,Var,Abs)             198
# 0x85, 0x84,                    //  Report ID (132)                    200
# 0x09, 0x2c,                    //  Usage (Vendor Usage 0x2c)          202
# 0x95, 0x3f,                    //  Report Count (63)                  204
# 0xb1, 0x02,                    //  Feature (Data,Var,Abs)             206
# 0x85, 0x85,                    //  Report ID (133)                    208
# 0x09, 0x2d,                    //  Usage (Vendor Usage 0x2d)          210
# 0x95, 0x02,                    //  Report Count (2)                   212
# 0xb1, 0x02,                    //  Feature (Data,Var,Abs)             214
# 0x85, 0xa0,                    //  Report ID (160)                    216
# 0x09, 0x2e,                    //  Usage (Vendor Usage 0x2e)          218
# 0x95, 0x01,                    //  Report Count (1)                   220
# 0xb1, 0x02,                    //  Feature (Data,Var,Abs)             222
# 0x85, 0xe0,                    //  Report ID (224)                    224
# 0x09, 0x2f,                    //  Usage (Vendor Usage 0x2f)          226
# 0x95, 0x3f,                    //  Report Count (63)                  228
# 0xb1, 0x02,                    //  Feature (Data,Var,Abs)             230
# 0x85, 0xf0,                    //  Report ID (240)                    232
# 0x09, 0x30,                    //  Usage (Vendor Usage 0x30)          234
# 0x95, 0x3f,                    //  Report Count (63)                  236
# 0xb1, 0x02,                    //  Feature (Data,Var,Abs)             238
# 0x85, 0xf1,                    //  Report ID (241)                    240
# 0x09, 0x31,                    //  Usage (Vendor Usage 0x31)          242
# 0x95, 0x3f,                    //  Report Count (63)                  244
# 0xb1, 0x02,                    //  Feature (Data,Var,Abs)             246
# 0x85, 0xf2,                    //  Report ID (242)                    248
# 0x09, 0x32,                    //  Usage (Vendor Usage 0x32)          250
# 0x95, 0x0f,                    //  Report Count (15)                  252
# 0xb1, 0x02,                    //  Feature (Data,Var,Abs)             254
# 0x85, 0xf4,                    //  Report ID (244)                    256
# 0x09, 0x35,                    //  Usage (Vendor Usage 0x35)          258
# 0x95, 0x3f,                    //  Report Count (63)                  260
# 0xb1, 0x02,                    //  Feature (Data,Var,Abs)             262
# 0x85, 0xf5,                    //  Report ID (245)                    264
# 0x09, 0x36,                    //  Usage (Vendor Usage 0x36)          266
# 0x95, 0x03,                    //  Report Count (3)                   268
# 0xb1, 0x02,                    //  Feature (Data,Var,Abs)             270
# 0xc0,                          // End Collection                      272
# 
R: 273 05 01 09 05 a1 01 85 01 09 30 09 31 09 32 09 35 09 33 09 34 15 00 26 ff 00 75 08 95 06 81 02 06 00 ff 09 20 95 01 81 02 05 01 09 39 15 00 25 07 35 00 46 3b 01 65 14 75 04 95 01 81 42 65 00 05 09 19 01 29 0f 15 00 25 01 75 01 95 0f 81 02 06 00 ff 09 21 95 0d 81 02 06 00 ff 09 22 15 00 26 ff 00 75 08 95 34 81 02 85 02 09 23 95 2f 91 02 85 05 09 33 95 28 b1 02 85 08 09 34 95 2f b1 02 85 09 09 24 95 13 b1 02 85 0a 09 25 95 1a b1 02 85 20 09 26 95 3f b1 02 85 21 09 27 95 04 b1 02 85 22 09 40 95 3f b1 02 85 80 09 28 95 3f b1 02 85 81 09 29 95 3f b1 02 85 82 09 2a 95 09 b1 02 85 83 09 2b 95 3f b1 02 85 84 09 2c 95 3f b1 02 85 85 09 2d 95 02 b1 02 85 a0 09 2e 95 01 b1 02 85 e0 09 2f 95 3f b1 02 85 f0 09 30 95 3f b1 02 85 f1 09 31 95 3f b1 02 85 f2 09 32 95 0f b1 02 85 f4 09 35 95 3f b1 02 85 f5 09 36 95 03 b1 02 c0
N: Sony Interactive Entertainment DualSense Wireless Controller
I: 3 054c 0ce6
# ReportID: 1 / X:  131 | Y:  128 | Z:  130 | Rz:  127 | Rx:    0 | Ry:    0 | 0xff000020:  227 | Hat switch:   8 | Button: 0  0  0  0  0  0  0  0  0  0  0  0  0  0  0 | 0xff000021: 0 , 0 , 0 , 0 , 0 , 0 , 0 , 0 , 0 , 0 , 0 , 0 , 0 | 0xff000022:  192 ,  107 ,   42 ,  235 ,  248 ,  255 ,  238 ,  255 ,   11 ,    0 ,   57 ,    0 ,   53 ,   31 ,   62 ,    5 ,  185 ,   18 ,   24 ,  216 ,    8 ,  128 ,    0 ,    0 ,    0 ,  128 ,    0 ,    0 ,    0 ,    0 ,    9 ,    9 ,    0 ,    0 ,    0 ,    0 ,    0 ,   69 ,   48 ,   24 ,  216 ,   40 ,    8 ,    0 ,   36 ,  128 ,   28 ,   73 ,  140 ,  124 ,  152 ,  224 
E: 000000.000000 64 01 83 80 82 7f 00 00 e3 08 00 00 00 c0 6b 2a eb f8 ff ee ff 0b 00 39 00 35 1f 3e 05 b9 12 18 d8 08 80 00 00 00 80 00 00 00 00 09 09 00 00 00 00 00 45 30 18 d8 28 08 00 24 80 1c 49 8c 7c 98 e0
# ReportID: 1 / X:  131 | Y:  128 | Z:  129 | Rz:  127 | Rx:    0 | Ry:    0 | 0xff000020:  228 | Hat switch:   8 | Button: 0  0  0  0  0  0  0  0  0  0  0  0  0  0  0 | 0xff000021: 0 , 0 , 0 , 0 , 0 , 0 , 0 , 0 , 0 , 0 , 0 , 0 , 0 | 0xff000022:  193 ,  107 ,   42 ,  235 ,  248 ,  255 ,  238 ,  255 ,   10 ,    0 ,   52 ,    0 ,   86 ,   31 ,   76 ,    5 ,  172 ,   65 ,   24 ,  216 ,    8 ,  128 ,    0 ,    0 ,    0 ,  128 ,    0 ,    0 ,    0 ,    0 ,    9 ,    9 ,    0 ,    0 ,    0 ,    0 ,    0 ,   38 ,   95 ,   24 ,  216 ,   40 ,    8 ,    0 ,  176 ,  249 ,  212 ,  167 ,   31 ,  217 ,   85 ,  104 
E: 000000.002061 64 01 83 80 81 7f 00 00 e4 08 00 00 00 c1 6b 2a eb f8 ff ee ff 0a 00 34 00 56 1f 4c 05 ac 41 18 d8 08 80 00 00 00 80 00 00 00 00 09 09 00 00 00 00 00 26 5f 18 d8 28 08 00 b0 f9 d4 a7 1f d9 55 68
# ReportID: 1 / X:  131 | Y:  128 | Z:  129 | Rz:  127 | Rx:    0 | Ry:    0 | 0xff000020:  229 | Hat switch:   8 | Button: 0  0  0  0  0  0  0  0  0  0  0  0  0  0  0 | 0xff000021: 0 , 0 , 0 , 0 , 0 , 0 , 0 , 0 , 0 , 0 , 0 , 0 , 0 | 0xff000022:  194 ,  107 ,   42 ,  235 ,  247 ,  255 ,  239 ,  255 ,   11 ,    0 ,   43 ,    0 ,  124 ,   31 ,   82 ,    5 ,  159 ,  112 ,   24 ,  216 ,    8 ,  128 ,    0 ,    0 ,    0 ,  128 ,    0 ,    0 ,    0 ,    0 ,    9 ,    9 ,    0 ,    0 ,    0 ,    0 ,    0 ,    5 ,  142 ,   24 ,  216 ,   40 ,    8 ,    0 ,  234 ,   52 ,   83 ,   28 ,  221 ,   73 ,  189 ,  170 
E: 000000.006014 64 01 83 80 81 7f 00 00 e5 08 00 00 00 c2 6b 2a eb f7 ff ef ff 0b 00 2b 00 7c 1f 52 05 9f 70 18 d8 08 80 00 00 00 80 00 00 00 00 09 09 00 00 00 00 00 05 8e 18 d8 28 08 00 ea 34 53 1c dd 49 bd aa
# ReportID: 1 / X:  131 | Y:  128 | Z:  129 | Rz:  127 | Rx:    0 | Ry:    0 | 0xff000020:  230 | Hat switch:   8 | Button: 0  0  0  0  0  0  0  0  0  0  0  0  0  0  0 | 0xff000021: 0 , 0 , 0 , 0 , 0 , 0 , 0 , 0 , 0 , 0 , 0 , 0 , 0 | 0xff000022:  195 ,  107 ,   42 ,  235 ,  247 ,  255 ,  238 ,  255 ,   10 ,    0 ,   53 ,    0 ,  136 ,   31 ,   69 ,    5 ,  147 ,  159 ,   24 ,  216 ,    8 ,  128 ,    0 ,    0 ,    0 ,  128 ,    0 ,    0 ,    0 ,    0 ,    9 ,    9 ,    0 ,    0 ,    0 ,    0 ,    0 ,  229 ,  188 ,   24 ,  216 ,   40 ,    8 ,    0 ,  202 ,  115 ,  254 ,  236 ,   70 ,   33 ,  214 ,  160 
E: 000000.009868 64 01 83 80 81 7f 00 00 e6 08 00 00 00 c3 6b 2a eb f7 ff ee ff 0a 00 35 00 88 1f 45 05 93 9f 18 d8 08 80 00 00 00 80 00 00 00 00 09 09 00 00 00 00 00 e5 bc 18 d8 28 08 00 ca 73 fe ec 46 21 d6 a0
# ReportID: 1 / X:  131 | Y:  128 | Z:  129 | Rz:  127 | Rx:    0 | Ry:    0 | 0xff000020:  231 | Hat switch:   8 | Button: 0  0  0  0  0  0  0  0  0  0  0  0  0  0  0 | 0xff000021: 0 , 0 , 0 , 0 , 0 , 0 , 0 , 0 , 0 , 0 , 0 , 0 , 0 | 0xff000022:  196 ,  107 ,   42 ,  235 ,  246 ,  255 ,  238 ,  255 ,   10 ,    0 ,   36 ,    0 ,   89 ,   31 ,   59 ,    5 ,  134 ,  206 ,   24 ,  216 ,    8 ,  128 ,    0 ,    0 ,    0 ,  128 ,    0 ,    0 ,    0 ,    0 ,    9 ,    9 ,    0 ,    0 ,    0 ,    0 ,    0 ,  197 ,  235 ,   24 ,  216 ,   40 ,    8 ,    0 ,   11 ,  154 ,  246 ,  142 ,   62 ,   30 ,   32 ,  192 
E: 000000.014071 64 01 83 80 81 7f 00 00 e7 08 00 00 00 c4 6b 2a eb f6 ff ee ff 0a 00 24 00 59 1f 3b 05 86 ce 18 d8 08 80 00 00 00 80 00 00 00 00 09 09 00 00 00 00 00 c5 eb 18 d8 28 08 00 0b 9a f6 8e 3e 1e 20 c0
# ReportID: 1 / X:  131 | Y:  128 | Z:  129 | Rz:  127 | Rx:    0 | Ry:    0 | 0xff000020:  232 | Hat switch:   8 | Button: 0  0  0  0  0  0  0  0  0  0  0  0  0  0  0 | 0xff000021: 0 , 0 , 0 , 0 , 0 , 0 , 0 , 0 , 0 , 0 , 0 , 0 , 0 | 0xff000022:  197 ,  107 ,   42 ,  235 ,  248 ,  255 ,  238 ,  255 ,   10 ,    0 ,   41 ,    0 ,   29 ,   31 ,   53 ,    5 ,  121 ,  253 ,   24 ,  216 ,    8 ,  128 ,    0 ,    0 ,    0 ,  128 ,    0 ,    0 ,    0 ,    0 ,    9 ,    9 ,    0 ,    0 ,    0 ,    0 ,    0 ,  166 ,   26 ,   25 ,  216 ,   40 ,    8 ,    0 ,   36 ,  123 ,  105 ,  180 ,  241 ,  230 ,  244 ,   26 
E: 000000.018234 64 01 83 80 81 7f 00 00 e8 08 00 00 00 c5 6b 2a eb f8 ff ee ff 0a 00 29 00 1d 1f 35 05 79 fd 18 d8 08 80 00 00 00 80 00 00 00 00 09 09 00 00 00 00 00 a6 1a 19 d8 28 08 00 24 7b 69 b4 f1 e6 f4 1a
# ReportID: 1 / X:  131 | Y:  128 | Z:  130 | Rz:  127 | Rx:    0 | Ry:    0 | 0xff000020:  233 | Hat switch:   8 | Button: 0  0  0  0  0  0  0  0  0  0  0  0  0  0  0 | 0xff000021: 0 , 0 , 0 , 0 , 0 , 0 , 0 , 0 , 0 , 0 , 0 , 0 , 0 | 0xff000022:  198 ,  107 ,   42 ,  235 ,  248 ,  255 ,  238 ,  255 ,   11 ,    0 ,   47 ,    0 ,   33 ,   31 ,   48 ,    5 ,  108 ,   44 ,   25 ,  216 ,    8 ,  128 ,    0 ,    0 ,    0 ,  128 ,    0 ,    0 ,    0 ,    0 ,    9 ,    9 ,    0 ,    0 ,    0 ,    0 ,    0 ,  133 ,   73 ,   25 ,  216 ,   40 ,    8 ,    0 ,   55 ,  115 ,  243 ,   39 ,   75 ,  248 ,  196 ,  163 
E: 000000.022047 64 01 83 80 82 7f 00 00 e9 08 00 00 00 c6 6b 2a eb f8 ff ee ff 0b 00 2f 00 21 1f 30 05 6c 2c 19 d8 08 80 00 00 00 80 00 00 00 00 09 09 00 00 00 00 00 85 49 19 d8 28 08 00 37 73 f3 27 4b f8 c4 a3
# ReportID: 1 / X:  131 | Y:  128 | Z:  130 | Rz:  127 | Rx:    0 | Ry:    0 | 0xff000020:  234 | Hat switch:   8 | Button: 0  0  0  0  0  0  0  0  0  0  0  0  0  0  0 | 0xff000021: 0 , 0 , 0 , 0 , 0 , 0 , 0 , 0 , 0 , 0 , 0 , 0 , 0 | 0xff000022:  199 ,  107 ,   42 ,  235 ,  249 ,  255 ,  239 ,  255 ,   10 ,    0 ,   50 ,    0 ,   55 ,   31 ,   65 ,    5 ,   95 ,   91 ,   25 ,  216 ,    8 ,  128 ,    0 ,    0 ,    0 ,  128 ,    0 ,    0 ,    0 ,    0 ,    9 ,    9 ,    0 ,    0 ,    0 ,    0 ,    0 ,  101 ,  120 ,   25 ,  216 ,   40 ,    8 ,    0 ,   56 ,    9 ,  249 ,  150 ,  182 ,   19 ,  105 ,   85 
E: 000000.026048 64 01 83 80 82 7f 00 00 ea 08 00 00 00 c7 6b 2a eb f9 ff ef ff 0a 00 32 00 37 1f 41 05 5f 5b 19 d8 08 80 00 00 00 80 00 00 00 00 09 09 00 00 00 00 00 65 78 19 d8 28 08 00 38 09 f9 96 b6 13 69 55
# ReportID: 1 / X:  131 | Y:  128 | Z:  129 | Rz:  127 | Rx:    0 | Ry:    0 | 0xff000020:  235 | Hat switch:   8 | Button: 0  0  0  0  0  0  0  0  0  0  0  0  0  0  0 | 0xff000021: 0 , 0 , 0 , 0 , 0 , 0 , 0 , 0 , 0 , 0 , 0 , 0 , 0 | 0xff000022:  200 ,  107 ,   42 ,  235 ,  249 ,  255 ,  238 ,  255 ,   11 ,    0 ,   40 ,    0 ,   97 ,   31 ,   61 ,    5 ,   82 ,  138 ,   25 ,  216 ,    8 ,  128 ,    0 ,    0 ,    0 ,  128 ,    0 ,    0 ,    0 ,    0 ,    9 ,    9 ,    0 ,    0 ,    0 ,    0 ,    0 ,   69 ,  167 ,   25 ,  216 ,   40 ,    8 ,    0 ,  118 ,  237 ,   28 ,  111 ,  226 ,  198 ,  111 ,  205 
E: 000000.030224 64 01 83 80 81 7f 00 00 eb 08 00 00 00 c8 6b 2a eb f9 ff ee ff 0b 00 28 00 61 1f 3d 05 52 8a 19 d8 08 80 00 00 00 80 00 00 00 00 09 09 00 00 00 00 00 45 a7 19 d8 28 08 00 76 ed 1c 6f e2 c6 6f cd
# ReportID: 1 / X:  131 | Y:  128 | Z:  129 | Rz:  127 | Rx:    0 | Ry:    0 | 0xff000020:  236 | Hat switch:   8 | Button: 0  0  0  0  0  0  0  0  0  0  0  0  0  0  0 | 0xff000021: 0 , 0 , 0 , 0 , 0 , 0 , 0 , 0 , 0 , 0 , 0 , 0 , 0 | 0xff000022:  201 ,  107 ,   42 ,  235 ,  248 ,  255 ,  238 ,  255 ,   10 ,    0 ,   50 ,    0 ,  135 ,   31 ,   60 ,    5 ,   69 ,  185 ,   25 ,  216 ,    8 ,  128 ,    0 ,    0 ,    0 ,  128 ,    0 ,    0 ,    0 ,    0 ,    9 ,    9 ,    0 ,    0 ,    0 ,    0 ,    0 ,   37 ,  214 ,   25 ,  216 ,   40 ,    8 ,    0 ,  222 ,  115 ,  240 ,    9 ,    6 ,  146 ,   84 ,  175 
E: 000000.034341 64 01 83 80 81 7f 00 00 ec 08 00 00 00 c9 6b 2a eb f8 ff ee ff 0a 00 32 00 87 1f 3c 05 45 b9 19 d8 08 80 00 00 00 80 00 00 00 00 09 09 00 00 00 00 00 25 d6 19 d8 28 08 00 de 73 f0 09 06 92 54 af
# ReportID: 1 / X:  131 | Y:  128 | Z:  129 | Rz:  127 | Rx:    0 | Ry:    0 | 0xff000020:  237 | Hat switch:   8 | Button: 0  0  0  0  0  0  0  0  0  0  0  0  0  0  0 | 0xff000021: 0 , 0 , 0 , 0 , 0 , 0 , 0 , 0 , 0 , 0 , 0 , 0 , 0 | 0xff000022:  202 ,  107 ,   42 ,  235 ,  247 ,  255 ,  238 ,  255 ,   11 ,    0 ,   46 ,    0 ,  130 ,   31 ,   58 ,    5 ,   56 ,  232 ,   25 ,  216 ,    8 ,  128 ,    0 ,    0 ,    0 ,  128 ,    0 ,    0 ,    0 ,    0 ,    9 ,    9 ,    0 ,    0 ,    0 ,    0 ,    0 ,    5 ,    5 ,   26 ,  216 ,   40 ,    8 ,    0 ,  219 ,   14 ,  210 ,    9 ,  174 ,  136 ,  251 ,  143 
E: 000000.039151 64 01 83 80 81 7f 00 00 ed 08 00 00 00 ca 6b 2a eb f7 ff ee ff 0b 00 2e 00 82 1f 3a 05 38 e8 19 d8 08 80 00 00 00 80 00 00 00 00 09 09 00 00 00 00 00 05 05 1a d8 28 08 00 db 0e d2 09 ae 88 fb 8f
# ReportID: 1 / X:  131 | Y:  128 | Z:  130 | Rz:  127 | Rx:    0 | Ry:    0 | 0xff000020:  238 | Hat switch:   8 | Button: 0  0  0  0  0  0  0  0  0  0  0  0  0  0  0 | 0xff000021: 0 , 0 , 0 , 0 , 0 , 0 , 0 , 0 , 0 , 0 , 0 , 0 , 0 | 0xff000022:  203 ,  107 ,   42 ,  235 ,  247 ,  255 ,  239 ,  255 ,   10 ,    0 ,   46 ,    0 ,   87 ,   31 ,   61 ,    5 ,   44 ,   23 ,   26 ,  216 ,    8 ,  128 ,    0 ,    0 ,    0 ,  128 ,    0 ,    0 ,    0 ,    0 ,    9 ,    9 ,    0 ,    0 ,    0 ,    0 ,    0 ,  230 ,   51 ,   26 ,  216 ,   40 ,    8 ,    0 ,  177 ,   19 ,   84 ,  243 ,  123 ,  197 ,  252 ,  217 
E: 000000.042223 64 01 83 80 82 7f 00 00 ee 08 00 00 00 cb 6b 2a eb f7 ff ef ff 0a 00 2e 00 57 1f 3d 05 2c 17 1a d8 08 80 00 00 00 80 00 00 00 00 09 09 00 00 00 00 00 e6 33 1a d8 28 08 00 b1 13 54 f3 7b c5 fc d9
# ReportID: 1 / X:  131 | Y:  128 | Z:  129 | Rz:  127 | Rx:    0 | Ry:    0 | 0xff000020:  239 | Hat switch:   8 | Button: 0  0  0  0  0  0  0  0  0  0  0  0  0  0  0 | 0xff000021: 0 , 0 , 0 , 0 , 0 , 0 , 0 , 0 , 0 , 0 , 0 , 0 , 0 | 0xff000022:  204 ,  107 ,   42 ,  235 ,  248 ,  255 ,  238 ,  255 ,   10 ,    0 ,   48 ,    0 ,   56 ,   31 ,   56 ,    5 ,   31 ,   70 ,   26 ,  216 ,    8 ,  128 ,    0 ,    0 ,    0 ,  128 ,    0 ,    0 ,    0 ,    0 ,    9 ,    9 ,    0 ,    0 ,    0 ,    0 ,    0 ,  197 ,   98 ,   26 ,  216 ,   40 ,    8 ,    0 ,   44 ,  122 ,  243 ,  241 ,   15 ,  221 ,  247 ,  130 
E: 000000.046394 64 01 83 80 81 7f 00 00 ef 08 00 00 00 cc 6b 2a eb f8 ff ee ff 0a 00 30 00 38 1f 38 05 1f 46 1a d8 08 80 00 00 00 80 00 00 00 00 09 09 00 00 00 00 00 c5 62 1a d8 28 08 00 2c 7a f3 f1 0f dd f7 82
# ReportID: 1 / X:  131 | Y:  128 | Z:  129 | Rz:  127 | Rx:    0 | Ry:    0 | 0xff000020:  240 | Hat switch:   8 | Button: 0  0  0  0  0  0  0  0  0  0  0  0  0  0  0 | 0xff000021: 0 , 0 , 0 , 0 , 0 , 0 , 0 , 0 , 0 , 0 , 0 , 0 , 0 | 0xff000022:  205 ,  107 ,   42 ,  235 ,  246 ,  255 ,  238 ,  255 ,   11 ,    0 ,   54 ,    0 ,   68 ,   31 ,   57 ,    5 ,   18 ,  117 ,   26 ,  216 ,    8 ,  128 ,    0 ,    0 ,    0 ,  128 ,    0 ,    0 ,    0 ,    0 ,    9 ,    9 ,    0 ,    0 ,    0 ,    0 ,    0 ,  165 ,  145 ,   26 ,  216 ,   40 ,    8 ,    0 ,  115 ,    9 ,   64 ,  166 ,  219 ,  240 ,  129 ,  124 
E: 000000.050464 64 01 83 80 81 7f 00 00 f0 08 00 00 00 cd 6b 2a eb f6 ff ee ff 0b 00 36 00 44 1f 39 05 12 75 1a d8 08 80 00 00 00 80 00 00 00 00 09 09 00 00 00 00 00 a5 91 1a d8 28 08 00 73 09 40 a6 db f0 81 7c
# ReportID: 1 / X:  131 | Y:  128 | Z:  129 | Rz:  127 | Rx:    0 | Ry:    0 | 0xff000020:  241 | Hat switch:   8 | Button: 0  0  0  0  0  0  0  0  0  0  0  0  0  0  0 | 0xff000021: 0 , 0 , 0 , 0 , 0 , 0 , 0 , 0 , 0 , 0 , 0 , 0 , 0 | 0xff000022:  206 ,  107 ,   42 ,  235 ,  247 ,  255 ,  239 ,  255 ,    9 ,    0 ,   62 ,    0 ,   92 ,   31 ,   56 ,    5 ,    5 ,  164 ,   26 ,  216 ,    8 ,  128 ,    0 ,    0 ,    0 ,  128 ,    0 ,    0 ,    0 ,    0 ,    9 ,    9 ,    0 ,    0 ,    0 ,    0 ,    0 ,  133 ,  192 ,   26 ,  216 ,   40 ,    8 ,    0 ,   94 ,   19 ,    4 ,   40 ,   90 ,  155 ,  118 ,  227 
E: 000000.054209 64 01 83 80 81 7f 00 00 f1 08 00 00 00 ce 6b 2a eb f7 ff ef ff 09 00 3e 00 5c 1f 38 05 05 a4 1a d8 08 80 00 00 00 80 00 00 00 00 09 09 00 00 00 00 00 85 c0 1a d8 28 08 00 5e 13 04 28 5a 9b 76 e3
# ReportID: 1 / X:  131 | Y:  128 | Z:  129 | Rz:  127 | Rx:    0 | Ry:    0 | 0xff000020:  242 | Hat switch:   8 | Button: 0  0  0  0  0  0  0  0  0  0  0  0  0  0  0 | 0xff000021: 0 , 0 , 0 , 0 , 0 , 0 , 0 , 0 , 0 , 0 , 0 , 0 , 0 | 0xff000022:  207 ,  107 ,   42 ,  235 ,  248 ,  255 ,  238 ,  255 ,   11 ,    0 ,   60 ,    0 ,  116 ,   31 ,   60 ,    5 ,  248 ,  210 ,   26 ,  216 ,    8 ,  128 ,    0 ,    0 ,    0 ,  128 ,    0 ,    0 ,    0 ,    0 ,    9 ,    9 ,    0 ,    0 ,    0 ,    0 ,    0 ,  101 ,  239 ,   26 ,  216 ,   40 ,    8 ,    0 ,   82 ,   11 ,   60 ,  132 ,   30 ,   25 ,  253 ,  210 
E: 000000.057952 64 01 83 80 81 7f 00 00 f2 08 00 00 00 cf 6b 2a eb f8 ff ee ff 0b 00 3c 00 74 1f 3c 05 f8 d2 1a d8 08 80 00 00 00 80 00 00 00 00 09 09 00 00 00 00 00 65 ef 1a d8 28 08 00 52 0b 3c 84 1e 19 fd d2
# ReportID: 1 / X:  131 | Y:  128 | Z:  129 | Rz:  127 | Rx:    0 | Ry:    0 | 0xff000020:  243 | Hat switch:   8 | Button: 0  0  0  0  0  0  0  0  0  0  0  0  0  0  0 | 0xff000021: 0 , 0 , 0 , 0 , 0 , 0 , 0 , 0 , 0 , 0 , 0 , 0 , 0 | 0xff000022:  208 ,  107 ,   42 ,  235 ,  246 ,  255 ,  238 ,  255 ,    9 ,    0 ,   54 ,    0 ,  114 ,   31 ,   59 ,    5 ,  235 ,    1 ,   27 ,  216 ,    8 ,  128 ,    0 ,    0 ,    0 ,  128 ,    0 ,    0 ,    0 ,    0 ,    9 ,    9 ,    0 ,    0 ,    0 ,    0 ,    0 ,   69 ,   30 ,   27 ,  216 ,   40 ,    8 ,    0 ,  202 ,  149 ,  135 ,   54 ,   79 ,  199 ,  250 ,   13 
E: 000000.061972 64 01 83 80 81 7f 00 00 f3 08 00 00 00 d0 6b 2a eb f6 ff ee ff 09 00 36 00 72 1f 3b 05 eb 01 1b d8 08 80 00 00 00 80 00 00 00 00 09 09 00 00 00 00 00 45 1e 1b d8 28 08 00 ca 95 87 36 4f c7 fa 0d
# ReportID: 1 / X:  131 | Y:  128 | Z:  130 | Rz:  127 | Rx:    0 | Ry:    0 | 0xff000020:  244 | Hat switch:   8 | Button: 0  0  0  0  0  0  0  0  0  0  0  0  0  0  0 | 0xff000021: 0 , 0 , 0 , 0 , 0 , 0 , 0 , 0 , 0 , 0 , 0 , 0 , 0 | 0xff000022:  209 ,  107 ,   42 ,  235 ,  246 ,  255 ,  238 ,  255 ,   10 ,    0 ,   59 ,    0 ,   76 ,   31 ,   53 ,    5 ,  222 ,   48 ,   27 ,  216 ,    8 ,  128 ,    0 ,    0 ,    0 ,  128 ,    0 ,    0 ,    0 ,    0 ,    9 ,    9 ,    0 ,    0 ,    0 ,    0 ,    0 ,   38 ,   77 ,   27 ,  216 ,   40 ,    8 ,    0 ,  193 ,  117 ,  210 ,  119 ,   80 ,   16 ,  232 ,  124 
E: 000000.067162 64 01 83 80 82 7f 00 00 f4 08 00 00 00 d1 6b 2a eb f6 ff ee ff 0a 00 3b 00 4c 1f 35 05 de 30 1b d8 08 80 00 00 00 80 00 00 00 00 09 09 00 00 00 00 00 26 4d 1b d8 28 08 00 c1 75 d2 77 50 10 e8 7c
# ReportID: 1 / X:  131 | Y:  128 | Z:  129 | Rz:  127 | Rx:    0 | Ry:    0 | 0xff000020:  245 | Hat switch:   8 | Button: 0  0  0  0  0  0  0  0  0  0  0  0  0  0  0 | 0xff000021: 0 , 0 , 0 , 0 , 0 , 0 , 0 , 0 , 0 , 0 , 0 , 0 , 0 | 0xff000022:  210 ,  107 ,   42 ,  235 ,  247 ,  255 ,  237 ,  255 ,   10 ,    0 ,   59 ,    0 ,   61 ,   31 ,   55 ,    5 ,  209 ,   95 ,   27 ,  216 ,    8 ,  128 ,    0 ,    0 ,    0 ,  128 ,    0 ,    0 ,    0 ,    0 ,    9 ,    9 ,    0 ,    0 ,    0 ,    0 ,    0 ,    5 ,  124 ,   27 ,  216 ,   40 ,    8 ,    0 ,  208 ,  229 ,  153 ,  206 ,  154 ,  148 ,  227 ,  236 
E: 000000.070685 64 01 83 80 81 7f 00 00 f5 08 00 00 00 d2 6b 2a eb f7 ff ed ff 0a 00 3b 00 3d 1f 37 05 d1 5f 1b d8 08 80 00 00 00 80 00 00 00 00 09 09 00 00 00 00 00 05 7c 1b d8 28 08 00 d0 e5 99 ce 9a 94 e3 ec
# ReportID: 1 / X:  131 | Y:  128 | Z:  129 | Rz:  127 | Rx:    0 | Ry:    0 | 0xff000020:  246 | Hat switch:   8 | Button: 0  0  0  0  0  0  0  0  0  0  0  0  0  0  0 | 0xff000021: 0 , 0 , 0 , 0 , 0 , 0 , 0 , 0 , 0 , 0 , 0 , 0 , 0 | 0xff000022:  211 ,  107 ,   42 ,  235 ,  248 ,  255 ,  238 ,  255 ,   10 ,    0 ,   57 ,    0 ,   70 ,   31 ,   40 ,    5 ,  196 ,  142 ,   27 ,  216 ,    8 ,  128 ,    0 ,    0 ,    0 ,  128 ,    0 ,    0 ,    0 ,    0 ,    9 ,    9 ,    0 ,    0 ,    0 ,    0 ,    0 ,  230 ,  170 ,   27 ,  216 ,   40 ,    8 ,    0 ,   62 ,  179 ,   69 ,   88 ,  163 ,   21 ,  239 ,  189 
E: 000000.074653 64 01 83 80 81 7f 00 00 f6 08 00 00 00 d3 6b 2a eb f8 ff ee ff 0a 00 39 00 46 1f 28 05 c4 8e 1b d8 08 80 00 00 00 80 00 00 00 00 09 09 00 00 00 00 00 e6 aa 1b d8 28 08 00 3e b3 45 58 a3 15 ef bd
# ReportID: 1 / X:  131 | Y:  128 | Z:  129 | Rz:  127 | Rx:    0 | Ry:    0 | 0xff000020:  247 | Hat switch:   8 | Button: 0  0  0  0  0  0  0  0  0  0  0  0  0  0  0 | 0xff000021: 0 , 0 , 0 , 0 , 0 , 0 , 0 , 0 , 0 , 0 , 0 , 0 , 0 | 0xff000022:  212 ,  107 ,   42 ,  235 ,  248 ,  255 ,  238 ,  255 ,    9 ,    0 ,   56 ,    0 ,   96 ,   31 ,   40 ,    5 ,  183 ,  189 ,   27 ,  216 ,    8 ,  128 ,    0 ,    0 ,    0 ,  128 ,    0 ,    0 ,    0 ,    0 ,    9 ,    9 ,    0 ,    0 ,    0 ,    0 ,    0 ,  197 ,  217 ,   27 ,  216 ,   40 ,    8 ,    0 ,  164 ,   24 ,  126 ,  102 ,   67 ,    7 ,  100 ,  227 
E: 000000.078262 64 01 83 80 81 7f 00 00 f7 08 00 00 00 d4 6b 2a eb f8 ff ee ff 09 00 38 00 60 1f 28 05 b7 bd 1b d8 08 80 00 00 00 80 00 00 00 00 09 09 00 00 00 00 00 c5 d9 1b d8 28 08 00 a4 18 7e 66 43 07 64 e3
# ReportID: 1 / X:  131 | Y:  128 | Z:  129 | Rz:  127 | Rx:    0 | Ry:    0 | 0xff000020:  248 | Hat switch:   8 | Button: 0  0  0  0  0  0  0  0  0  0  0  0  0  0  0 | 0xff000021: 0 , 0 , 0 , 0 , 0 , 0 , 0 , 0 , 0 , 0 , 0 , 0 , 0 | 0xff000022:  213 ,  107 ,   42 ,  235 ,  247 ,  255 ,  237 ,  255 ,   10 ,    0 ,   56 ,    0 ,  106 ,   31 ,   49 ,    5 ,  171 ,  236 ,   27 ,  216 ,    8 ,  128 ,    0 ,    0 ,    0 ,  128 ,    0 ,    0 ,    0 ,    0 ,    9 ,    9 ,    0 ,    0 ,    0 ,    0 ,    0 ,  165 ,    8 ,   28 ,  216 ,   40 ,    8 ,    0 ,   64 ,  129 ,  184 ,  107 ,   35 ,   99 ,   43 ,   75 
E: 000000.083797 64 01 83 80 81 7f 00 00 f8 08 00 00 00 d5 6b 2a eb f7 ff ed ff 0a 00 38 00 6a 1f 31 05 ab ec 1b d8 08 80 00 00 00 80 00 00 00 00 09 09 00 00 00 00 00 a5 08 1c d8 28 08 00 40 81 b8 6b 23 63 2b 4b
# ReportID: 1 / X:  131 | Y:  128 | Z:  129 | Rz:  127 | Rx:    0 | Ry:    0 | 0xff000020:  249 | Hat switch:   8 | Button: 0  0  0  0  0  0  0  0  0  0  0  0  0  0  0 | 0xff000021: 0 , 0 , 0 , 0 , 0 , 0 , 0 , 0 , 0 , 0 , 0 , 0 , 0 | 0xff000022:  214 ,  107 ,   42 ,  235 ,  246 ,  255 ,  237 ,  255 ,   11 ,    0 ,   51 ,    0 ,  111 ,   31 ,   45 ,    5 ,  158 ,   27 ,   28 ,  216 ,    8 ,  128 ,    0 ,    0 ,    0 ,  128 ,    0 ,    0 ,    0 ,    0 ,    9 ,    9 ,    0 ,    0 ,    0 ,    0 ,    0 ,  134 ,   55 ,   28 ,  216 ,   40 ,    8 ,    0 ,  232 ,  202 ,  146 ,    7 ,   55 ,  213 ,  100 ,  111 
E: 000000.086750 64 01 83 80 81 7f 00 00 f9 08 00 00 00 d6 6b 2a eb f6 ff ed ff 0b 00 33 00 6f 1f 2d 05 9e 1b 1c d8 08 80 00 00 00 80 00 00 00 00 09 09 00 00 00 00 00 86 37 1c d8 28 08 00 e8 ca 92 07 37 d5 64 6f
# ReportID: 1 / X:  131 | Y:  128 | Z:  129 | Rz:  127 | Rx:    0 | Ry:    0 | 0xff000020:  250 | Hat switch:   8 | Button: 0  0  0  0  0  0  0  0  0  0  0  0  0  0  0 | 0xff000021: 0 , 0 , 0 , 0 , 0 , 0 , 0 , 0 , 0 , 0 , 0 , 0 , 0 | 0xff000022:  215 ,  107 ,   42 ,  235 ,  246 ,  255 ,  239 ,  255 ,   10 ,    0 ,   59 ,    0 ,   98 ,   31 ,   47 ,    5 ,  145 ,   74 ,   28 ,  216 ,    8 ,  128 ,    0 ,    0 ,    0 ,  128 ,    0 ,    0 ,    0 ,    0 ,    9 ,    9 ,    0 ,    0 ,    0 ,    0 ,    0 ,  101 ,  102 ,   28 ,  216 ,   40 ,    8 ,    0 ,  212 ,  163 ,    4 ,   13 ,  102 ,   42 ,  197 ,   85 
E: 000000.090851 64 01 83 80 81 7f 00 00 fa 08 00 00 00 d7 6b 2a eb f6 ff ef ff 0a 00 3b 00 62 1f 2f 05 91 4a 1c d8 08 80 00 00 00 80 00 00 00 00 09 09 00 00 00 00 00 65 66 1c d8 28 08 00 d4 a3 04 0d 66 2a c5 55
# ReportID: 1 / X:  131 | Y:  128 | Z:  129 | Rz:  127 | Rx:    0 | Ry:    0 | 0xff000020:  251 | Hat switch:   8 | Button: 0  0  0  0  0  0  0  0  0  0  0  0  0  0  0 | 0xff000021: 0 , 0 , 0 , 0 , 0 , 0 , 0 , 0 , 0 , 0 , 0 , 0 , 0 | 0xff000022:  216 ,  107 ,   42 ,  235 ,  245 ,  255 ,  239 ,  255 ,   11 ,    0 ,   51 ,    0 ,   93 ,   31 ,   41 ,    5 ,  132 ,  121 ,   28 ,  216 ,    8 ,  128 ,    0 ,    0 ,    0 ,  128 ,    0 ,    0 ,    0 ,    0 ,    9 ,    9 ,    0 ,    0 ,    0 ,    0 ,    0 ,   69 ,  149 ,   28 ,  216 ,   40 ,    8 ,    0 ,  221 ,   69 ,   42 ,  191 ,  178 ,  179 ,  231 ,  133 
E: 000000.094564 64 01 83 80 81 7f 00 00 fb 08 00 00 00 d8 6b 2a eb f5 ff ef ff 0b 00 33 00 5d 1f 29 05 84 79 1c d8 08 80 00 00 00 80 00 00 00 00 09 09 00 00 00 00 00 45 95 1c d8 28 08 00 dd 45 2a bf b2 b3 e7 85
# ReportID: 1 / X:  131 | Y:  128 | Z:  129 | Rz:  127 | Rx:    0 | Ry:    0 | 0xff000020:  252 | Hat switch:   8 | Button: 0  0  0  0  0  0  0  0  0  0  0  0  0  0  0 | 0xff000021: 0 , 0 , 0 , 0 , 0 , 0 , 0 , 0 , 0 , 0 , 0 , 0 , 0 | 0xff000022:  217 ,  107 ,   42 ,  235 ,  246 ,  255 ,  239 ,  255 ,   10 ,    0 ,   47 ,    0 ,   97 ,   31 ,   47 ,    5 ,  119 ,  168 ,   28 ,  216 ,    8 ,  128 ,    0 ,    0 ,    0 ,  128 ,    0 ,    0 ,    0 ,    0 ,    9 ,    9 ,    0 ,    0 ,    0 ,    0 ,    0 ,   37 ,  196 ,   28 ,  216 ,   40 ,    8 ,    0 ,  110 ,  205 ,  102 ,  128 ,   31 ,  167 ,  187 ,  106 
E: 000000.098606 64 01 83 80 81 7f 00 00 fc 08 00 00 00 d9 6b 2a eb f6 ff ef ff 0a 00 2f 00 61 1f 2f 05 77 a8 1c d8 08 80 00 00 00 80 00 00 00 00 09 09 00 00 00 00 00 25 c4 1c d8 28 08 00 6e cd 66 80 1f a7 bb 6a
# ReportID: 1 / X:  131 | Y:  128 | Z:  130 | Rz:  127 | Rx:    0 | Ry:    0 | 0xff000020:  253 | Hat switch:   8 | Button: 0  0  0  0  0  0  0  0  0  0  0  0  0  0  0 | 0xff000021: 0 , 0 , 0 , 0 , 0 , 0 , 0 , 0 , 0 , 0 , 0 , 0 , 0 | 0xff000022:  218 ,  107 ,   42 ,  235 ,  246 ,  255 ,  240 ,  255 ,   11 ,    0 ,   52 ,    0 ,   90 ,   31 ,   43 ,    5 ,  106 ,  215 ,   28 ,  216 ,    8 ,  128 ,    0 ,    0 ,    0 ,  128 ,    0 ,    0 ,    0 ,    0 ,    9 ,    9 ,    0 ,    0 ,    0 ,    0 ,    0 ,    5 ,  243 ,   28 ,  216 ,   40 ,    8 ,    0 ,  108 ,  145 ,  204 ,   91 ,  233 ,  123 ,  160 ,  190 
E: 000000.102088 64 01 83 80 82 7f 00 00 fd 08 00 00 00 da 6b 2a eb f6 ff f0 ff 0b 00 34 00 5a 1f 2b 05 6a d7 1c d8 08 80 00 00 00 80 00 00 00 00 09 09 00 00 00 00 00 05 f3 1c d8 28 08 00 6c 91 cc 5b e9 7b a0 be
# ReportID: 1 / X:  131 | Y:  128 | Z:  129 | Rz:  127 | Rx:    0 | Ry:    0 | 0xff000020:  254 | Hat switch:   8 | Button: 0  0  0  0  0  0  0  0  0  0  0  0  0  0  0 | 0xff000021: 0 , 0 , 0 , 0 , 0 , 0 , 0 , 0 , 0 , 0 , 0 , 0 , 0 | 0xff000022:  219 ,  107 ,   42 ,  235 ,  245 ,  255 ,  238 ,  255 ,   10 ,    0 ,   50 ,    0 ,   82 ,   31 ,   35 ,    5 ,   93 ,    6 ,   29 ,  216 ,    8 ,  128 ,    0 ,    0 ,    0 ,  128 ,    0 ,    0 ,    0 ,    0 ,    9 ,    9 ,    0 ,    0 ,    0 ,    0 ,    0 ,  229 ,   33 ,   29 ,  216 ,   40 ,    8 ,    0 ,  230 ,   27 ,  253 ,   97 ,  240 ,  151 ,  226 ,    7 
E: 000000.107852 64 01 83 80 81 7f 00 00 fe 08 00 00 00 db 6b 2a eb f5 ff ee ff 0a 00 32 00 52 1f 23 05 5d 06 1d d8 08 80 00 00 00 80 00 00 00 00 09 09 00 00 00 00 00 e5 21 1d d8 28 08 00 e6 1b fd 61 f0 97 e2 07
# ReportID: 1 / X:  131 | Y:  128 | Z:  130 | Rz:  127 | Rx:    0 | Ry:    0 | 0xff000020:  255 | Hat switch:   8 | Button: 0  0  0  0  0  0  0  0  0  0  0  0  0  0  0 | 0xff000021: 0 , 0 , 0 , 0 , 0 , 0 , 0 , 0 , 0 , 0 , 0 , 0 , 0 | 0xff000022:  220 ,  107 ,   42 ,  235 ,  247 ,  255 ,  239 ,  255 ,   10 ,    0 ,   40 ,    0 ,   81 ,   31 ,   44 ,    5 ,   80 ,   53 ,   29 ,  216 ,    8 ,  128 ,    0 ,    0 ,    0 ,  128 ,    0 ,    0 ,    0 ,    0 ,    9 ,    9 ,    0 ,    0 ,    0 ,    0 ,    0 ,  197 ,   80 ,   29 ,  216 ,   40 ,    8 ,    0 ,    1 ,  191 ,  134 ,  180 ,  180 ,   57 ,   22 ,  210 
E: 000000.110918 64 01 83 80 82 7f 00 00 ff 08 00 00 00 dc 6b 2a eb f7 ff ef ff 0a 00 28 00 51 1f 2c 05 50 35 1d d8 08 80 00 00 00 80 00 00 00 00 09 09 00 00 00 00 00 c5 50 1d d8 28 08 00 01 bf 86 b4 b4 39 16 d2
# ReportID: 1 / X:  131 | Y:  128 | Z:  129 | Rz:  127 | Rx:    0 | Ry:    0 | 0xff000020:    0 | Hat switch:   8 | Button: 0  0  0  0  0  0  0  0  0  0  0  0  0  0  0 | 0xff000021: 0 , 0 , 0 , 0 , 0 , 0 , 0 , 0 , 0 , 0 , 0 , 0 , 0 | 0xff000022:  221 ,  107 ,   42 ,  235 ,  247 ,  255 ,  239 ,  255 ,   10 ,    0 ,   43 ,    0 ,   96 ,   31 ,   38 ,    5 ,   67 ,  100 ,   29 ,  216 ,    8 ,  128 ,    0 ,    0 ,    0 ,  128 ,    0 ,    0 ,    0 ,    0 ,    9 ,    9 ,    0 ,    0 ,    0 ,    0 ,    0 ,  165 ,  127 ,   29 ,  216 ,   40 ,    8 ,    0 ,  172 ,  233 ,   61 ,  234 ,  217 ,  145 ,  133 ,  130 
E: 000000.114648 64 01 83 80 81 7f 00 00 00 08 00 00 00 dd 6b 2a eb f7 ff ef ff 0a 00 2b 00 60 1f 26 05 43 64 1d d8 08 80 00 00 00 80 00 00 00 00 09 09 00 00 00 00 00 a5 7f 1d d8 28 08 00 ac e9 3d ea d9 91 85 82
# ReportID: 1 / X:  131 | Y:  128 | Z:  130 | Rz:  127 | Rx:    0 | Ry:    0 | 0xff000020:    1 | Hat switch:   8 | Button: 0  0  0  0  0  0  0  0  0  0  0  0  0  0  0 | 0xff000021: 0 , 0 , 0 , 0 , 0 , 0 , 0 , 0 , 0 , 0 , 0 , 0 , 0 | 0xff000022:  222 ,  107 ,   42 ,  235 ,  246 ,  255 ,  238 ,  255 ,   11 ,    0 ,   48 ,    0 ,   94 ,   31 ,   44 ,    5 ,   55 ,  147 ,   29 ,  216 ,    8 ,  128 ,    0 ,    0 ,    0 ,  128 ,    0 ,    0 ,    0 ,    0 ,    9 ,    9 ,    0 ,    0 ,    0 ,    0 ,    0 ,  133 ,  174 ,   29 ,  216 ,   40 ,    8 ,    0 ,  206 ,  254 ,   64 ,   29 ,  237 ,  175 ,  189 ,  136 
E: 000000.118597 64 01 83 80 82 7f 00 00 01 08 00 00 00 de 6b 2a eb f6 ff ee ff 0b 00 30 00 5e 1f 2c 05 37 93 1d d8 08 80 00 00 00 80 00 00 00 00 09 09 00 00 00 00 00 85 ae 1d d8 28 08 00 ce fe 40 1d ed af bd 88
# ReportID: 1 / X:  131 | Y:  128 | Z:  130 | Rz:  127 | Rx:    0 | Ry:    0 | 0xff000020:    2 | Hat switch:   8 | Button: 0  0  0  0  0  0  0  0  0  0  0  0  0  0  0 | 0xff000021: 0 , 0 , 0 , 0 , 0 , 0 , 0 , 0 , 0 , 0 , 0 , 0 , 0 | 0xff000022:  223 ,  107 ,   42 ,  235 ,  247 ,  255 ,  239 ,  255 ,   10 ,    0 ,   41 ,    0 ,   92 ,   31 ,   57 ,    5 ,   42 ,  194 ,   29 ,  216 ,    8 ,  128 ,    0 ,    0 ,    0 ,  128 ,    0 ,    0 ,    0 ,    0 ,    9 ,    9 ,    0 ,    0 ,    0 ,    0 ,    0 ,  102 ,  221 ,   29 ,  216 ,   40 ,    8 ,    0 ,  133 ,   38 ,  180 ,   11 ,   97 ,  171 ,  250 ,  210 
E: 000000.122011 64 01 83 80 82 7f 00 00 02 08 00 00 00 df 6b 2a eb f7 ff ef ff 0a 00 29 00 5c 1f 39 05 2a c2 1d d8 08 80 00 00 00 80 00 00 00 00 09 09 00 00 00 00 00 66 dd 1d d8 28 08 00 85 26 b4 0b 61 ab fa d2
# ReportID: 1 / X:  131 | Y:  128 | Z:  129 | Rz:  127 | Rx:    0 | Ry:    0 | 0xff000020:    3 | Hat switch:   8 | Button: 0  0  0  0  0  0  0  0  0  0  0  0  0  0  0 | 0xff000021: 0 , 0 , 0 , 0 , 0 , 0 , 0 , 0 , 0 , 0 , 0 , 0 , 0 | 0xff000022:  224 ,  107 ,   42 ,  235 ,  246 ,  255 ,  238 ,  255 ,   12 ,    0 ,   44 ,    0 ,   76 ,   31 ,   64 ,    5 ,   29 ,  241 ,   29 ,  216 ,    8 ,  128 ,    0 ,    0 ,    0 ,  128 ,    0 ,    0 ,    0 ,    0 ,    9 ,    9 ,    0 ,    0 ,    0 ,    0 ,    0 ,   69 ,   12 ,   30 ,  216 ,   40 ,    8 ,    0 ,  133 ,  137 ,  164 ,   13 ,   70 ,   89 ,  182 ,  206 
E: 000000.126463 64 01 83 80 81 7f 00 00 03 08 00 00 00 e0 6b 2a eb f6 ff ee ff 0c 00 2c 00 4c 1f 40 05 1d f1 1d d8 08 80 00 00 00 80 00 00 00 00 09 09 00 00 00 00 00 45 0c 1e d8 28 08 00 85 89 a4 0d 46 59 b6 ce
# ReportID: 1 / X:  131 | Y:  128 | Z:  130 | Rz:  127 | Rx:    0 | Ry:    0 | 0xff000020:    4 | Hat switch:   8 | Button: 0  0  0  0  0  0  0  0  0  0  0  0  0  0  0 | 0xff000021: 0 , 0 , 0 , 0 , 0 , 0 , 0 , 0 , 0 , 0 , 0 , 0 , 0 | 0xff000022:  225 ,  107 ,   42 ,  235 ,  246 ,  255 ,  238 ,  255 ,   10 ,    0 ,   45 ,    0 ,   74 ,   31 ,   69 ,    5 ,   16 ,   32 ,   30 ,  216 ,    8 ,  128 ,    0 ,    0 ,    0 ,  128 ,    0 ,    0 ,    0 ,    0 ,    9 ,    9 ,    0 ,    0 ,    0 ,    0 ,    0 ,   37 ,   59 ,   30 ,  216 ,   40 ,    8 ,    0 ,  249 ,  120 ,   91 ,  196 ,   75 ,   94 ,  146 ,  221 
E: 000000.130033 64 01 83 80 82 7f 00 00 04 08 00 00 00 e1 6b 2a eb f6 ff ee ff 0a 00 2d 00 4a 1f 45 05 10 20 1e d8 08 80 00 00 00 80 00 00 00 00 09 09 00 00 00 00 00 25 3b 1e d8 28 08 00 f9 78 5b c4 4b 5e 92 dd
# ReportID: 1 / X:  131 | Y:  128 | Z:  129 | Rz:  127 | Rx:    0 | Ry:    0 | 0xff000020:    5 | Hat switch:   8 | Button: 0  0  0  0  0  0  0  0  0  0  0  0  0  0  0 | 0xff000021: 0 , 0 , 0 , 0 , 0 , 0 , 0 , 0 , 0 , 0 , 0 , 0 , 0 | 0xff000022:  226 ,  107 ,   42 ,  235 ,  245 ,  255 ,  238 ,  255 ,   10 ,    0 ,   48 ,    0 ,   81 ,   31 ,   71 ,    5 ,    3 ,   79 ,   30 ,  216 ,    8 ,  128 ,    0 ,    0 ,    0 ,  128 ,    0 ,    0 ,    0 ,    0 ,    9 ,    9 ,    0 ,    0 ,    0 ,    0 ,    0 ,    5 ,  106 ,   30 ,  216 ,   40 ,    8 ,    0 ,  235 ,  197 ,  151 ,  255 ,   65 ,  225 ,   55 ,   97 
E: 000000.134118 64 01 83 80 81 7f 00 00 05 08 00 00 00 e2 6b 2a eb f5 ff ee ff 0a 00 30 00 51 1f 47 05 03 4f 1e d8 08 80 00 00 00 80 00 00 00 00 09 09 00 00 00 00 00 05 6a 1e d8 28 08 00 eb c5 97 ff 41 e1 37 61
# ReportID: 1 / X:  131 | Y:  128 | Z:  129 | Rz:  127 | Rx:    0 | Ry:    0 | 0xff000020:    6 | Hat switch:   8 | Button: 0  0  0  0  0  0  0  0  0  0  0  0  0  0  0 | 0xff000021: 0 , 0 , 0 , 0 , 0 , 0 , 0 , 0 , 0 , 0 , 0 , 0 , 0 | 0xff000022:  227 ,  107 ,   42 ,  235 ,  247 ,  255 ,  238 ,  255 ,   10 ,    0 ,   53 ,    0 ,  104 ,   31 ,   68 ,    5 ,  246 ,  125 ,   30 ,  216 ,    8 ,  128 ,    0 ,    0 ,    0 ,  128 ,    0 ,    0 ,    0 ,    0 ,    9 ,    9 ,    0 ,    0 ,    0 ,    0 ,    0 ,  229 ,  152 ,   30 ,  216 ,   40 ,    8 ,    0 ,   80 ,  193 ,  156 ,  186 ,  233 ,  223 ,   81 ,  115 
E: 000000.139583 64 01 83 80 81 7f 00 00 06 08 00 00 00 e3 6b 2a eb f7 ff ee ff 0a 00 35 00 68 1f 44 05 f6 7d 1e d8 08 80 00 00 00 80 00 00 00 00 09 09 00 00 00 00 00 e5 98 1e d8 28 08 00 50 c1 9c ba e9 df 51 73
# ReportID: 1 / X:  131 | Y:  128 | Z:  129 | Rz:  127 | Rx:    0 | Ry:    0 | 0xff000020:    7 | Hat switch:   8 | Button: 0  0  0  0  0  0  0  0  0  0  0  0  0  0  0 | 0xff000021: 0 , 0 , 0 , 0 , 0 , 0 , 0 , 0 , 0 , 0 , 0 , 0 , 0 | 0xff000022:  228 ,  107 ,   42 ,  235 ,  246 ,  255 ,  239 ,  255 ,   10 ,    0 ,   51 ,    0 ,   78 ,   31 ,   66 ,    5 ,  233 ,  172 ,   30 ,  216 ,    8 ,  128 ,    0 ,    0 ,    0 ,  128 ,    0 ,    0 ,    0 ,    0 ,    9 ,    9 ,    0 ,    0 ,    0 ,    0 ,    0 ,  198 ,  199 ,   30 ,  216 ,   40 ,    8 ,    0 ,  167 ,   76 ,   47 ,    8 ,  141 ,  140 ,  238 ,  103 
E: 000000.142594 64 01 83 80 81 7f 00 00 07 08 00 00 00 e4 6b 2a eb f6 ff ef ff 0a 00 33 00 4e 1f 42 05 e9 ac 1e d8 08 80 00 00 00 80 00 00 00 00 09 09 00 00 00 00 00 c6 c7 1e d8 28 08 00 a7 4c 2f 08 8d 8c ee 67
# ReportID: 1 / X:  131 | Y:  128 | Z:  130 | Rz:  127 | Rx:    0 | Ry:    0 | 0xff000020:    8 | Hat switch:   8 | Button: 0  0  0  0  0  0  0  0  0  0  0  0  0  0  0 | 0xff000021: 0 , 0 , 0 , 0 , 0 , 0 , 0 , 0 , 0 , 0 , 0 , 0 , 0 | 0xff000022:  229 ,  107 ,   42 ,  235 ,  248 ,  255 ,  239 ,  255 ,   10 ,    0 ,   37 ,    0 ,   61 ,   31 ,   72 ,    5 ,  220 ,  219 ,   30 ,  216 ,    8 ,  128 ,    0 ,    0 ,    0 ,  128 ,    0 ,    0 ,    0 ,    0 ,    9 ,    9 ,    0 ,    0 ,    0 ,    0 ,    0 ,  165 ,  246 ,   30 ,  216 ,   40 ,    8 ,    0 ,  121 ,    1 ,  127 ,  163 ,  128 ,  213 ,  227 ,  219 
E: 000000.146118 64 01 83 80 82 7f 00 00 08 08 00 00 00 e5 6b 2a eb f8 ff ef ff 0a 00 25 00 3d 1f 48 05 dc db 1e d8 08 80 00 00 00 80 00 00 00 00 09 09 00 00 00 00 00 a5 f6 1e d8 28 08 00 79 01 7f a3 80 d5 e3 db
# ReportID: 1 / X:  131 | Y:  128 | Z:  129 | Rz:  127 | Rx:    0 | Ry:    0 | 0xff000020:    9 | Hat switch:   8 | Button: 0  0  0  0  0  0  0  0  0  0  0  0  0  0  0 | 0xff000021: 0 , 0 , 0 , 0 , 0 , 0 , 0 , 0 , 0 , 0 , 0 , 0 , 0 | 0xff000022:  230 ,  107 ,   42 ,  235 ,  247 ,  255 ,  238 ,  255 ,   11 ,    0 ,   50 ,    0 ,   64 ,   31 ,   68 ,    5 ,  207 ,   10 ,   31 ,  216 ,    8 ,  128 ,    0 ,    0 ,    0 ,  128 ,    0 ,    0 ,    0 ,    0 ,    9 ,    9 ,    0 ,    0 ,    0 ,    0 ,    0 ,  133 ,   37 ,   31 ,  216 ,   40 ,    8 ,    0 ,  130 ,  114 ,  199 ,  173 ,   60 ,    9 ,   79 ,    8 
E: 000000.150540 64 01 83 80 81 7f 00 00 09 08 00 00 00 e6 6b 2a eb f7 ff ee ff 0b 00 32 00 40 1f 44 05 cf 0a 1f d8 08 80 00 00 00 80 00 00 00 00 09 09 00 00 00 00 00 85 25 1f d8 28 08 00 82 72 c7 ad 3c 09 4f 08
# ReportID: 1 / X:  131 | Y:  128 | Z:  129 | Rz:  127 | Rx:    0 | Ry:    0 | 0xff000020:   10 | Hat switch:   8 | Button: 0  0  0  0  0  0  0  0  0  0  0  0  0  0  0 | 0xff000021: 0 , 0 , 0 , 0 , 0 , 0 , 0 , 0 , 0 , 0 , 0 , 0 , 0 | 0xff000022:  231 ,  107 ,   42 ,  235 ,  247 ,  255 ,  239 ,  255 ,   11 ,    0 ,   54 ,    0 ,   68 ,   31 ,   68 ,    5 ,  195 ,   57 ,   31 ,  216 ,    8 ,  128 ,    0 ,    0 ,    0 ,  128 ,    0 ,    0 ,    0 ,    0 ,    9 ,    9 ,    0 ,    0 ,    0 ,    0 ,    0 ,  101 ,   84 ,   31 ,  216 ,   40 ,    8 ,    0 ,   52 ,   92 ,  115 ,  249 ,  166 ,   49 ,  241 ,  213 
E: 000000.153946 64 01 83 80 81 7f 00 00 0a 08 00 00 00 e7 6b 2a eb f7 ff ef ff 0b 00 36 00 44 1f 44 05 c3 39 1f d8 08 80 00 00 00 80 00 00 00 00 09 09 00 00 00 00 00 65 54 1f d8 28 08 00 34 5c 73 f9 a6 31 f1 d5
# ReportID: 1 / X:  131 | Y:  128 | Z:  129 | Rz:  127 | Rx:    0 | Ry:    0 | 0xff000020:   11 | Hat switch:   8 | Button: 0  0  0  0  0  0  0  0  0  0  0  0  0  0  0 | 0xff000021: 0 , 0 , 0 , 0 , 0 , 0 , 0 , 0 , 0 , 0 , 0 , 0 , 0 | 0xff000022:  232 ,  107 ,   42 ,  235 ,  246 ,  255 ,  238 ,  255 ,   10 ,    0 ,   51 ,    0 ,   83 ,   31 ,   62 ,    5 ,  182 ,  104 ,   31 ,  216 ,    8 ,  128 ,    0 ,    0 ,    0 ,  128 ,    0 ,    0 ,    0 ,    0 ,    9 ,    9 ,    0 ,    0 ,    0 ,    0 ,    0 ,   69 ,  131 ,   31 ,  216 ,   40 ,    8 ,    0 ,  196 ,  123 ,   47 ,  100 ,  236 ,   91 ,   33 ,  146 
E: 000000.157972 64 01 83 80 81 7f 00 00 0b 08 00 00 00 e8 6b 2a eb f6 ff ee ff 0a 00 33 00 53 1f 3e 05 b6 68 1f d8 08 80 00 00 00 80 00 00 00 00 09 09 00 00 00 00 00 45 83 1f d8 28 08 00 c4 7b 2f 64 ec 5b 21 92
# ReportID: 1 / X:  131 | Y:  128 | Z:  129 | Rz:  127 | Rx:    0 | Ry:    0 | 0xff000020:   12 | Hat switch:   8 | Button: 0  0  0  0  0  0  0  0  0  0  0  0  0  0  0 | 0xff000021: 0 , 0 , 0 , 0 , 0 , 0 , 0 , 0 , 0 , 0 , 0 , 0 , 0 | 0xff000022:  233 ,  107 ,   42 ,  235 ,  247 ,  255 ,  239 ,  255 ,   11 ,    0 ,   50 ,    0 ,   99 ,   31 ,   67 ,    5 ,  169 ,  151 ,   31 ,  216 ,    8 ,  128 ,    0 ,    0 ,    0 ,  128 ,    0 ,    0 ,    0 ,    0 ,    9 ,    9 ,    0 ,    0 ,    0 ,    0 ,    0 ,   37 ,  178 ,   31 ,  216 ,   40 ,    8 ,    0 ,   49 ,   58 ,  125 ,  158 ,  196 ,  228 ,   21 ,  106 
E: 000000.163191 64 01 83 80 81 7f 00 00 0c 08 00 00 00 e9 6b 2a eb f7 ff ef ff 0b 00 32 00 63 1f 43 05 a9 97 1f d8 08 80 00 00 00 80 00 00 00 00 09 09 00 00 00 00 00 25 b2 1f d8 28 08 00 31 3a 7d 9e c4 e4 15 6a
# ReportID: 1 / X:  131 | Y:  128 | Z:  129 | Rz:  127 | Rx:    0 | Ry:    0 | 0xff000020:   13 | Hat switch:   8 | Button: 0  0  0  0  0  0  0  0  0  0  0  0  0  0  0 | 0xff000021: 0 , 0 , 0 , 0 , 0 , 0 , 0 , 0 , 0 , 0 , 0 , 0 , 0 | 0xff000022:  234 ,  107 ,   42 ,  235 ,  247 ,  255 ,  237 ,  255 ,   11 ,    0 ,   61 ,    0 ,   96 ,   31 ,   68 ,    5 ,  156 ,  198 ,   31 ,  216 ,    8 ,  128 ,    0 ,    0 ,    0 ,  128 ,    0 ,    0 ,    0 ,    0 ,    9 ,    9 ,    0 ,    0 ,    0 ,    0 ,    0 ,    5 ,  225 ,   31 ,  216 ,   40 ,    8 ,    0 ,   27 ,  208 ,    4 ,   79 ,   69 ,   62 ,  235 ,  167 
E: 000000.166940 64 01 83 80 81 7f 00 00 0d 08 00 00 00 ea 6b 2a eb f7 ff ed ff 0b 00 3d 00 60 1f 44 05 9c c6 1f d8 08 80 00 00 00 80 00 00 00 00 09 09 00 00 00 00 00 05 e1 1f d8 28 08 00 1b d0 04 4f 45 3e eb a7
# ReportID: 1 / X:  131 | Y:  128 | Z:  130 | Rz:  127 | Rx:    0 | Ry:    0 | 0xff000020:   14 | Hat switch:   8 | Button: 0  0  0  0  0  0  0  0  0  0  0  0  0  0  0 | 0xff000021: 0 , 0 , 0 , 0 , 0 , 0 , 0 , 0 , 0 , 0 , 0 , 0 , 0 | 0xff000022:  235 ,  107 ,   42 ,  235 ,  246 ,  255 ,  238 ,  255 ,   10 ,    0 ,   51 ,    0 ,   72 ,   31 ,   46 ,    5 ,  143 ,  245 ,   31 ,  216 ,    8 ,  128 ,    0 ,    0 ,    0 ,  128 ,    0 ,    0 ,    0 ,    0 ,    9 ,    9 ,    0 ,    0 ,    0 ,    0 ,    0 ,  229 ,   15 ,   32 ,  216 ,   40 ,    8 ,    0 ,  243 ,   70 ,   54 ,   58 ,  114 ,  159 ,  138 ,   46 
E: 000000.170162 64 01 83 80 82 7f 00 00 0e 08 00 00 00 eb 6b 2a eb f6 ff ee ff 0a 00 33 00 48 1f 2e 05 8f f5 1f d8 08 80 00 00 00 80 00 00 00 00 09 09 00 00 00 00 00 e5 0f 20 d8 28 08 00 f3 46 36 3a 72 9f 8a 2e
# ReportID: 1 / X:  131 | Y:  128 | Z:  129 | Rz:  127 | Rx:    0 | Ry:    0 | 0xff000020:   15 | Hat switch:   8 | Button: 0  0  0  0  0  0  0  0  0  0  0  0  0  0  0 | 0xff000021: 0 , 0 , 0 , 0 , 0 , 0 , 0 , 0 , 0 , 0 , 0 , 0 , 0 | 0xff000022:  236 ,  107 ,   42 ,  235 ,  248 ,  255 ,  240 ,  255 ,    9 ,    0 ,   54 ,    0 ,   69 ,   31 ,   49 ,    5 ,  130 ,   36 ,   32 ,  216 ,    8 ,  128 ,    0 ,    0 ,    0 ,  128 ,    0 ,    0 ,    0 ,    0 ,    9 ,    9 ,    0 ,    0 ,    0 ,    0 ,    0 ,  198 ,   62 ,   32 ,  216 ,   40 ,    8 ,    0 ,  120 ,   26 ,  120 ,  214 ,   46 ,   47 ,  246 ,  204 
E: 000000.174066 64 01 83 80 81 7f 00 00 0f 08 00 00 00 ec 6b 2a eb f8 ff f0 ff 09 00 36 00 45 1f 31 05 82 24 20 d8 08 80 00 00 00 80 00 00 00 00 09 09 00 00 00 00 00 c6 3e 20 d8 28 08 00 78 1a 78 d6 2e 2f f6 cc
# ReportID: 1 / X:  131 | Y:  128 | Z:  129 | Rz:  127 | Rx:    0 | Ry:    0 | 0xff000020:   16 | Hat switch:   8 | Button: 0  0  0  0  0  0  0  0  0  0  0  0  0  0  0 | 0xff000021: 0 , 0 , 0 , 0 , 0 , 0 , 0 , 0 , 0 , 0 , 0 , 0 , 0 | 0xff000022:  237 ,  107 ,   42 ,  235 ,  248 ,  255 ,  237 ,  255 ,   10 ,    0 ,   54 ,    0 ,   84 ,   31 ,   46 ,    5 ,  117 ,   83 ,   32 ,  216 ,    8 ,  128 ,    0 ,    0 ,    0 ,  128 ,    0 ,    0 ,    0 ,    0 ,    9 ,    9 ,    0 ,    0 ,    0 ,    0 ,    0 ,  165 ,  109 ,   32 ,  216 ,   40 ,    8 ,    0 ,   91 ,  159 ,  239 ,  168 ,   56 ,  247 ,   11 ,    7 
E: 000000.177982 64 01 83 80 81 7f 00 00 10 08 00 00 00 ed 6b 2a eb f8 ff ed ff 0a 00 36 00 54 1f 2e 05 75 53 20 d8 08 80 00 00 00 80 00 00 00 00 09 09 00 00 00 00 00 a5 6d 20 d8 28 08 00 5b 9f ef a8 38 f7 0b 07
# ReportID: 1 / X:  131 | Y:  128 | Z:  129 | Rz:  127 | Rx:    0 | Ry:    0 | 0xff000020:   17 | Hat switch:   8 | Button: 0  0  0  0  0  0  0  0  0  0  0  0  0  0  0 | 0xff000021: 0 , 0 , 0 , 0 , 0 , 0 , 0 , 0 , 0 , 0 , 0 , 0 , 0 | 0xff000022:  238 ,  107 ,   42 ,  235 ,  247 ,  255 ,  237 ,  255 ,   10 ,    0 ,   53 ,    0 ,   84 ,   31 ,   45 ,    5 ,  104 ,  130 ,   32 ,  216 ,    8 ,  128 ,    0 ,    0 ,    0 ,  128 ,    0 ,    0 ,    0 ,    0 ,    9 ,    9 ,    0 ,    0 ,    0 ,    0 ,    0 ,  134 ,  156 ,   32 ,  216 ,   40 ,    8 ,    0 ,  213 ,   33 ,  159 ,  178 ,   59 ,  128 ,   99 ,  120 
E: 000000.182049 64 01 83 80 81 7f 00 00 11 08 00 00 00 ee 6b 2a eb f7 ff ed ff 0a 00 35 00 54 1f 2d 05 68 82 20 d8 08 80 00 00 00 80 00 00 00 00 09 09 00 00 00 00 00 86 9c 20 d8 28 08 00 d5 21 9f b2 3b 80 63 78
# ReportID: 1 / X:  131 | Y:  128 | Z:  129 | Rz:  127 | Rx:    0 | Ry:    0 | 0xff000020:   18 | Hat switch:   8 | Button: 0  0  0  0  0  0  0  0  0  0  0  0  0  0  0 | 0xff000021: 0 , 0 , 0 , 0 , 0 , 0 , 0 , 0 , 0 , 0 , 0 , 0 , 0 | 0xff000022:  239 ,  107 ,   42 ,  235 ,  247 ,  255 ,  239 ,  255 ,   10 ,    0 ,   52 ,    0 ,   90 ,   31 ,   46 ,    5 ,   91 ,  177 ,   32 ,  216 ,    8 ,  128 ,    0 ,    0 ,    0 ,  128 ,    0 ,    0 ,    0 ,    0 ,    9 ,    9 ,    0 ,    0 ,    0 ,    0 ,    0 ,  102 ,  203 ,   32 ,  216 ,   40 ,    8 ,    0 ,  168 ,    0 ,  182 ,  142 ,  206 ,  230 ,  120 ,  168 
E: 000000.185955 64 01 83 80 81 7f 00 00 12 08 00 00 00 ef 6b 2a eb f7 ff ef ff 0a 00 34 00 5a 1f 2e 05 5b b1 20 d8 08 80 00 00 00 80 00 00 00 00 09 09 00 00 00 00 00 66 cb 20 d8 28 08 00 a8 00 b6 8e ce e6 78 a8
# ReportID: 1 / X:  131 | Y:  128 | Z:  129 | Rz:  127 | Rx:    0 | Ry:    0 | 0xff000020:   19 | Hat switch:   8 | Button: 0  0  0  0  0  0  0  0  0  0  0  0  0  0  0 | 0xff000021: 0 , 0 , 0 , 0 , 0 , 0 , 0 , 0 , 0 , 0 , 0 , 0 , 0 | 0xff000022:  240 ,  107 ,   42 ,  235 ,  246 ,  255 ,  239 ,  255 ,   10 ,    0 ,   61 ,    0 ,  104 ,   31 ,   40 ,    5 ,   79 ,  224 ,   32 ,  216 ,    8 ,  128 ,    0 ,    0 ,    0 ,  128 ,    0 ,    0 ,    0 ,    0 ,    9 ,    9 ,    0 ,    0 ,    0 ,    0 ,    0 ,   69 ,  250 ,   32 ,  216 ,   40 ,    8 ,    0 ,  108 ,  235 ,   56 ,   44 ,    4 ,   81 ,  130 ,   47 
E: 000000.191261 64 01 83 80 81 7f 00 00 13 08 00 00 00 f0 6b 2a eb f6 ff ef ff 0a 00 3d 00 68 1f 28 05 4f e0 20 d8 08 80 00 00 00 80 00 00 00 00 09 09 00 00 00 00 00 45 fa 20 d8 28 08 00 6c eb 38 2c 04 51 82 2f
# ReportID: 1 / X:  131 | Y:  128 | Z:  129 | Rz:  127 | Rx:    0 | Ry:    0 | 0xff000020:   20 | Hat switch:   8 | Button: 0  0  0  0  0  0  0  0  0  0  0  0  0  0  0 | 0xff000021: 0 , 0 , 0 , 0 , 0 , 0 , 0 , 0 , 0 , 0 , 0 , 0 , 0 | 0xff000022:  241 ,  107 ,   42 ,  235 ,  245 ,  255 ,  238 ,  255 ,   10 ,    0 ,   57 ,    0 ,   93 ,   31 ,   40 ,    5 ,   66 ,   15 ,   33 ,  216 ,    8 ,  128 ,    0 ,    0 ,    0 ,  128 ,    0 ,    0 ,    0 ,    0 ,    9 ,    9 ,    0 ,    0 ,    0 ,    0 ,    0 ,   37 ,   41 ,   33 ,  216 ,   40 ,    8 ,    0 ,   28 ,   92 ,  179 ,  158 ,   45 ,  228 ,   96 ,   72 
E: 000000.195084 64 01 83 80 81 7f 00 00 14 08 00 00 00 f1 6b 2a eb f5 ff ee ff 0a 00 39 00 5d 1f 28 05 42 0f 21 d8 08 80 00 00 00 80 00 00 00 00 09 09 00 00 00 00 00 25 29 21 d8 28 08 00 1c 5c b3 9e 2d e4 60 48
# ReportID: 1 / X:  131 | Y:  128 | Z:  129 | Rz:  127 | Rx:    0 | Ry:    0 | 0xff000020:   21 | Hat switch:   8 | Button: 0  0  0  0  0  0  0  0  0  0  0  0  0  0  0 | 0xff000021: 0 , 0 , 0 , 0 , 0 , 0 , 0 , 0 , 0 , 0 , 0 , 0 , 0 | 0xff000022:  242 ,  107 ,   42 ,  235 ,  246 ,  255 ,  238 ,  255 ,   10 ,    0 ,   64 ,    0 ,   77 ,   31 ,   30 ,    5 ,   53 ,   62 ,   33 ,  216 ,    8 ,  128 ,    0 ,    0 ,    0 ,  128 ,    0 ,    0 ,    0 ,    0 ,    9 ,    9 ,    0 ,    0 ,    0 ,    0 ,    0 ,    5 ,   88 ,   33 ,  216 ,   40 ,    8 ,    0 ,   61 ,  158 ,  242 ,   70 ,   18 ,  157 ,  127 ,   26 
E: 000000.198641 64 01 83 80 81 7f 00 00 15 08 00 00 00 f2 6b 2a eb f6 ff ee ff 0a 00 40 00 4d 1f 1e 05 35 3e 21 d8 08 80 00 00 00 80 00 00 00 00 09 09 00 00 00 00 00 05 58 21 d8 28 08 00 3d 9e f2 46 12 9d 7f 1a
# ReportID: 1 / X:  131 | Y:  128 | Z:  130 | Rz:  127 | Rx:    0 | Ry:    0 | 0xff000020:   22 | Hat switch:   8 | Button: 0  0  0  0  0  0  0  0  0  0  0  0  0  0  0 | 0xff000021: 0 , 0 , 0 , 0 , 0 , 0 , 0 , 0 , 0 , 0 , 0 , 0 , 0 | 0xff000022:  243 ,  107 ,   42 ,  235 ,  245 ,  255 ,  237 ,  255 ,   11 ,    0 ,   62 ,    0 ,   88 ,   31 ,   46 ,    5 ,   40 ,  109 ,   33 ,  216 ,    8 ,  128 ,    0 ,    0 ,    0 ,  128 ,    0 ,    0 ,    0 ,    0 ,    9 ,    9 ,    0 ,    0 ,    0 ,    0 ,    0 ,  229 ,  134 ,   33 ,  216 ,   40 ,    8 ,    0 ,   23 ,  184 ,  186 ,    3 ,  201 ,    5 ,  127 ,  223 
E: 000000.202306 64 01 83 80 82 7f 00 00 16 08 00 00 00 f3 6b 2a eb f5 ff ed ff 0b 00 3e 00 58 1f 2e 05 28 6d 21 d8 08 80 00 00 00 80 00 00 00 00 09 09 00 00 00 00 00 e5 86 21 d8 28 08 00 17 b8 ba 03 c9 05 7f df
# ReportID: 1 / X:  131 | Y:  128 | Z:  129 | Rz:  127 | Rx:    0 | Ry:    0 | 0xff000020:   23 | Hat switch:   8 | Button: 0  0  0  0  0  0  0  0  0  0  0  0  0  0  0 | 0xff000021: 0 , 0 , 0 , 0 , 0 , 0 , 0 , 0 , 0 , 0 , 0 , 0 , 0 | 0xff000022:  244 ,  107 ,   42 ,  235 ,  246 ,  255 ,  238 ,  255 ,   10 ,    0 ,   61 ,    0 ,   90 ,   31 ,   42 ,    5 ,   27 ,  156 ,   33 ,  216 ,    8 ,  128 ,    0 ,    0 ,    0 ,  128 ,    0 ,    0 ,    0 ,    0 ,    9 ,    9 ,    0 ,    0 ,    0 ,    0 ,    0 ,  197 ,  181 ,   33 ,  216 ,   40 ,    8 ,    0 ,  143 ,  199 ,  150 ,  166 ,   82 ,  186 ,    5 ,  142 
E: 000000.207218 64 01 83 80 81 7f 00 00 17 08 00 00 00 f4 6b 2a eb f6 ff ee ff 0a 00 3d 00 5a 1f 2a 05 1b 9c 21 d8 08 80 00 00 00 80 00 00 00 00 09 09 00 00 00 00 00 c5 b5 21 d8 28 08 00 8f c7 96 a6 52 ba 05 8e
# ReportID: 1 / X:  131 | Y:  128 | Z:  130 | Rz:  127 | Rx:    0 | Ry:    0 | 0xff000020:   24 | Hat switch:   8 | Button: 0  0  0  0  0  0  0  0  0  0  0  0  0  0  0 | 0xff000021: 0 , 0 , 0 , 0 , 0 , 0 , 0 , 0 , 0 , 0 , 0 , 0 , 0 | 0xff000022:  245 ,  107 ,   42 ,  235 ,  247 ,  255 ,  238 ,  255 ,   10 ,    0 ,   60 ,    0 ,  102 ,   31 ,   48 ,    5 ,   14 ,  203 ,   33 ,  216 ,    8 ,  128 ,    0 ,    0 ,    0 ,  128 ,    0 ,    0 ,    0 ,    0 ,    9 ,    9 ,    0 ,    0 ,    0 ,    0 ,    0 ,  165 ,  228 ,   33 ,  216 ,   40 ,    8 ,    0 ,  199 ,  196 ,   31 ,   95 ,  226 ,   77 ,  116 ,  206 
E: 000000.211645 64 01 83 80 82 7f 00 00 18 08 00 00 00 f5 6b 2a eb f7 ff ee ff 0a 00 3c 00 66 1f 30 05 0e cb 21 d8 08 80 00 00 00 80 00 00 00 00 09 09 00 00 00 00 00 a5 e4 21 d8 28 08 00 c7 c4 1f 5f e2 4d 74 ce
# ReportID: 1 / X:  131 | Y:  128 | Z:  129 | Rz:  127 | Rx:    0 | Ry:    0 | 0xff000020:   25 | Hat switch:   8 | Button: 0  0  0  0  0  0  0  0  0  0  0  0  0  0  0 | 0xff000021: 0 , 0 , 0 , 0 , 0 , 0 , 0 , 0 , 0 , 0 , 0 , 0 , 0 | 0xff000022:  246 ,  107 ,   42 ,  235 ,  247 ,  255 ,  238 ,  255 ,   11 ,    0 ,   54 ,    0 ,  102 ,   31 ,   43 ,    5 ,    1 ,  250 ,   33 ,  216 ,    8 ,  128 ,    0 ,    0 ,    0 ,  128 ,    0 ,    0 ,    0 ,    0 ,    9 ,    9 ,    0 ,    0 ,    0 ,    0 ,    0 ,  133 ,   19 ,   34 ,  216 ,   40 ,    8 ,    0 ,  248 ,    6 ,   79 ,  217 ,  219 ,  194 ,  192 ,  205 
E: 000000.214612 64 01 83 80 81 7f 00 00 19 08 00 00 00 f6 6b 2a eb f7 ff ee ff 0b 00 36 00 66 1f 2b 05 01 fa 21 d8 08 80 00 00 00 80 00 00 00 00 09 09 00 00 00 00 00 85 13 22 d8 28 08 00 f8 06 4f d9 db c2 c0 cd
# ReportID: 1 / X:  131 | Y:  128 | Z:  129 | Rz:  127 | Rx:    0 | Ry:    0 | 0xff000020:   26 | Hat switch:   8 | Button: 0  0  0  0  0  0  0  0  0  0  0  0  0  0  0 | 0xff000021: 0 , 0 , 0 , 0 , 0 , 0 , 0 , 0 , 0 , 0 , 0 , 0 , 0 | 0xff000022:  247 ,  107 ,   42 ,  235 ,  245 ,  255 ,  238 ,  255 ,   10 ,    0 ,   56 ,    0 ,   98 ,   31 ,   53 ,    5 ,  244 ,   40 ,   34 ,  216 ,    8 ,  128 ,    0 ,    0 ,    0 ,  128 ,    0 ,    0 ,    0 ,    0 ,    9 ,    9 ,    0 ,    0 ,    0 ,    0 ,    0 ,  101 ,   66 ,   34 ,  216 ,   40 ,    8 ,    0 ,  163 ,  190 ,  137 ,   13 ,  148 ,  253 ,  239 ,  113 
E: 000000.217960 64 01 83 80 81 7f 00 00 1a 08 00 00 00 f7 6b 2a eb f5 ff ee ff 0a 00 38 00 62 1f 35 05 f4 28 22 d8 08 80 00 00 00 80 00 00 00 00 09 09 00 00 00 00 00 65 42 22 d8 28 08 00 a3 be 89 0d 94 fd ef 71
# ReportID: 1 / X:  131 | Y:  128 | Z:  130 | Rz:  127 | Rx:    0 | Ry:    0 | 0xff000020:   27 | Hat switch:   8 | Button: 0  0  0  0  0  0  0  0  0  0  0  0  0  0  0 | 0xff000021: 0 , 0 , 0 , 0 , 0 , 0 , 0 , 0 , 0 , 0 , 0 , 0 , 0 | 0xff000022:  248 ,  107 ,   42 ,  235 ,  246 ,  255 ,  239 ,  255 ,   10 ,    0 ,   60 ,    0 ,   85 ,   31 ,   42 ,    5 ,  231 ,   87 ,   34 ,  216 ,    8 ,  128 ,    0 ,    0 ,    0 ,  128 ,    0 ,    0 ,    0 ,    0 ,    9 ,    9 ,    0 ,    0 ,    0 ,    0 ,    0 ,   78 ,  113 ,   34 ,  216 ,   40 ,    8 ,    0 ,  239 ,  168 ,   82 ,  230 ,  157 ,   33 ,   29 ,   16 
E: 000000.221988 64 01 83 80 82 7f 00 00 1b 08 00 00 00 f8 6b 2a eb f6 ff ef ff 0a 00 3c 00 55 1f 2a 05 e7 57 22 d8 08 80 00 00 00 80 00 00 00 00 09 09 00 00 00 00 00 4e 71 22 d8 28 08 00 ef a8 52 e6 9d 21 1d 10
# ReportID: 1 / X:  131 | Y:  128 | Z:  129 | Rz:  127 | Rx:    0 | Ry:    0 | 0xff000020:   28 | Hat switch:   8 | Button: 0  0  0  0  0  0  0  0  0  0  0  0  0  0  0 | 0xff000021: 0 , 0 , 0 , 0 , 0 , 0 , 0 , 0 , 0 , 0 , 0 , 0 , 0 | 0xff000022:  249 ,  107 ,   42 ,  235 ,  246 ,  255 ,  239 ,  255 ,   11 ,    0 ,   57 ,    0 ,   84 ,   31 ,   52 ,    5 ,  219 ,  134 ,   34 ,  216 ,    8 ,  128 ,    0 ,    0 ,    0 ,  128 ,    0 ,    0 ,    0 ,    0 ,    9 ,    9 ,    0 ,    0 ,    0 ,    0 ,    0 ,   64 ,  160 ,   34 ,  216 ,   40 ,    8 ,    0 ,  221 ,   30 ,   81 ,   16 ,   82 ,  100 ,  109 ,  204 
E: 000000.227687 64 01 83 80 81 7f 00 00 1c 08 00 00 00 f9 6b 2a eb f6 ff ef ff 0b 00 39 00 54 1f 34 05 db 86 22 d8 08 80 00 00 00 80 00 00 00 00 09 09 00 00 00 00 00 40 a0 22 d8 28 08 00 dd 1e 51 10 52 64 6d cc
# ReportID: 1 / X:  131 | Y:  128 | Z:  129 | Rz:  127 | Rx:    0 | Ry:    0 | 0xff000020:   29 | Hat switch:   8 | Button: 0  0  0  0  0  0  0  0  0  0  0  0  0  0  0 | 0xff000021: 0 , 0 , 0 , 0 , 0 , 0 , 0 , 0 , 0 , 0 , 0 , 0 , 0 | 0xff000022:  250 ,  107 ,   42 ,  235 ,  246 ,  255 ,  239 ,  255 ,   11 ,    0 ,   61 ,    0 ,   89 ,   31 ,   48 ,    5 ,  206 ,  181 ,   34 ,  216 ,    8 ,  128 ,    0 ,    0 ,    0 ,  128 ,    0 ,    0 ,    0 ,    0 ,    9 ,    9 ,    0 ,    0 ,    0 ,    0 ,    0 ,   39 ,  207 ,   34 ,  216 ,   40 ,    8 ,    0 ,    5 ,  164 ,   45 ,  149 ,  191 ,   99 ,   32 ,  210 
E: 000000.230731 64 01 83 80 81 7f 00 00 1d 08 00 00 00 fa 6b 2a eb f6 ff ef ff 0b 00 3d 00 59 1f 30 05 ce b5 22 d8 08 80 00 00 00 80 00 00 00 00 09 09 00 00 00 00 00 27 cf 22 d8 28 08 00 05 a4 2d 95 bf 63 20 d2
# ReportID: 1 / X:  131 | Y:  128 | Z:  129 | Rz:  127 | Rx:    0 | Ry:    0 | 0xff000020:   30 | Hat switch:   8 | Button: 0  0  0  0  0  0  0  0  0  0  0  0  0  0  0 | 0xff000021: 0 , 0 , 0 , 0 , 0 , 0 , 0 , 0 , 0 , 0 , 0 , 0 , 0 | 0xff000022:  251 ,  107 ,   42 ,  235 ,  247 ,  255 ,  239 ,  255 ,   10 ,    0 ,   48 ,    0 ,   86 ,   31 ,   55 ,    5 ,  193 ,  228 ,   34 ,  216 ,    8 ,  128 ,    0 ,    0 ,    0 ,  128 ,    0 ,    0 ,    0 ,    0 ,    9 ,    9 ,    0 ,    0 ,    0 ,    0 ,    0 ,  236 ,  253 ,   34 ,  216 ,   40 ,    8 ,    0 ,  245 ,   23 ,   24 ,  110 ,   59 ,   20 ,   61 ,  116 
E: 000000.234029 64 01 83 80 81 7f 00 00 1e 08 00 00 00 fb 6b 2a eb f7 ff ef ff 0a 00 30 00 56 1f 37 05 c1 e4 22 d8 08 80 00 00 00 80 00 00 00 00 09 09 00 00 00 00 00 ec fd 22 d8 28 08 00 f5 17 18 6e 3b 14 3d 74
# ReportID: 1 / X:  131 | Y:  128 | Z:  129 | Rz:  127 | Rx:    0 | Ry:    0 | 0xff000020:   31 | Hat switch:   8 | Button: 0  0  0  0  0  0  0  0  0  0  0  0  0  0  0 | 0xff000021: 0 , 0 , 0 , 0 , 0 , 0 , 0 , 0 , 0 , 0 , 0 , 0 , 0 | 0xff000022:  252 ,  107 ,   42 ,  235 ,  246 ,  255 ,  238 ,  255 ,   11 ,    0 ,   48 ,    0 ,   93 ,   31 ,   55 ,    5 ,  180 ,   19 ,   35 ,  216 ,    8 ,  128 ,    0 ,    0 ,    0 ,  128 ,    0 ,    0 ,    0 ,    0 ,    9 ,    9 ,    0 ,    0 ,    0 ,    0 ,    0 ,  206 ,   44 ,   35 ,  216 ,   40 ,    8 ,    0 ,   72 ,   15 ,   16 ,   78 ,   50 ,  233 ,   72 ,  104 
E: 000000.238060 64 01 83 80 81 7f 00 00 1f 08 00 00 00 fc 6b 2a eb f6 ff ee ff 0b 00 30 00 5d 1f 37 05 b4 13 23 d8 08 80 00 00 00 80 00 00 00 00 09 09 00 00 00 00 00 ce 2c 23 d8 28 08 00 48 0f 10 4e 32 e9 48 68
# ReportID: 1 / X:  131 | Y:  128 | Z:  129 | Rz:  127 | Rx:    0 | Ry:    0 | 0xff000020:   32 | Hat switch:   8 | Button: 0  0  0  0  0  0  0  0  0  0  0  0  0  0  0 | 0xff000021: 0 , 0 , 0 , 0 , 0 , 0 , 0 , 0 , 0 , 0 , 0 , 0 , 0 | 0xff000022:  253 ,  107 ,   42 ,  235 ,  247 ,  255 ,  238 ,  255 ,   10 ,    0 ,   47 ,    0 ,   84 ,   31 ,   64 ,    5 ,  167 ,   66 ,   35 ,  216 ,    8 ,  128 ,    0 ,    0 ,    0 ,  128 ,    0 ,    0 ,    0 ,    0 ,    9 ,    9 ,    0 ,    0 ,    0 ,    0 ,    0 ,  174 ,   91 ,   35 ,  216 ,   40 ,    8 ,    0 ,   16 ,   32 ,  249 ,  198 ,   99 ,  205 ,  223 ,   17 
E: 000000.243351 64 01 83 80 81 7f 00 00 20 08 00 00 00 fd 6b 2a eb f7 ff ee ff 0a 00 2f 00 54 1f 40 05 a7 42 23 d8 08 80 00 00 00 80 00 00 00 00 09 09 00 00 00 00 00 ae 5b 23 d8 28 08 00 10 20 f9 c6 63 cd df 11
# ReportID: 1 / X:  131 | Y:  128 | Z:  129 | Rz:  127 | Rx:    0 | Ry:    0 | 0xff000020:   33 | Hat switch:   8 | Button: 0  0  0  0  0  0  0  0  0  0  0  0  0  0  0 | 0xff000021: 0 , 0 , 0 , 0 , 0 , 0 , 0 , 0 , 0 , 0 , 0 , 0 , 0 | 0xff000022:  254 ,  107 ,   42 ,  235 ,  246 ,  255 ,  238 ,  255 ,   10 ,    0 ,   48 ,    0 ,   91 ,   31 ,   52 ,    5 ,  154 ,  113 ,   35 ,  216 ,    8 ,  128 ,    0 ,    0 ,    0 ,  128 ,    0 ,    0 ,    0 ,    0 ,    9 ,    9 ,    0 ,    0 ,    0 ,    0 ,    0 ,  133 ,  138 ,   35 ,  216 ,   40 ,    8 ,    0 ,  115 ,   49 ,  127 ,  186 ,  161 ,   16 ,  112 ,   55 
E: 000000.246837 64 01 83 80 81 7f 00 00 21 08 00 00 00 fe 6b 2a eb f6 ff ee ff 0a 00 30 00 5b 1f 34 05 9a 71 23 d8 08 80 00 00 00 80 00 00 00 00 09 09 00 00 00 00 00 85 8a 23 d8 28 08 00 73 31 7f ba a1 10 70 37
# ReportID: 1 / X:  131 | Y:  128 | Z:  129 | Rz:  127 | Rx:    0 | Ry:    0 | 0xff000020:   34 | Hat switch:   8 | Button: 0  0  0  0  0  0  0  0  0  0  0  0  0  0  0 | 0xff000021: 0 , 0 , 0 , 0 , 0 , 0 , 0 , 0 , 0 , 0 , 0 , 0 , 0 | 0xff000022:  255 ,  107 ,   42 ,  235 ,  246 ,  255 ,  238 ,  255 ,   10 ,    0 ,   50 ,    0 ,   85 ,   31 ,   59 ,    5 ,  141 ,  160 ,   35 ,  216 ,    8 ,  128 ,    0 ,    0 ,    0 ,  128 ,    0 ,    0 ,    0 ,    0 ,    9 ,    9 ,    0 ,    0 ,    0 ,    0 ,    0 ,  101 ,  185 ,   35 ,  216 ,   40 ,    8 ,    0 ,  122 ,  211 ,   60 ,  104 ,   91 ,  220 ,  244 ,  160 
E: 000000.250098 64 01 83 80 81 7f 00 00 22 08 00 00 00 ff 6b 2a eb f6 ff ee ff 0a 00 32 00 55 1f 3b 05 8d a0 23 d8 08 80 00 00 00 80 00 00 00 00 09 09 00 00 00 00 00 65 b9 23 d8 28 08 00 7a d3 3c 68 5b dc f4 a0
# ReportID: 1 / X:  131 | Y:  128 | Z:  129 | Rz:  127 | Rx:    0 | Ry:    0 | 0xff000020:   35 | Hat switch:   8 | Button: 0  0  0  0  0  0  0  0  0  0  0  0  0  0  0 | 0xff000021: 0 , 0 , 0 , 0 , 0 , 0 , 0 , 0 , 0 , 0 , 0 , 0 , 0 | 0xff000022:    0 ,  108 ,   42 ,  235 ,  246 ,  255 ,  239 ,  255 ,    9 ,    0 ,   42 ,    0 ,   83 ,   31 ,   56 ,    5 ,  128 ,  207 ,   35 ,  216 ,    8 ,  128 ,    0 ,    0 ,    0 ,  128 ,    0 ,    0 ,    0 ,    0 ,    9 ,    9 ,    0 ,    0 ,    0 ,    0 ,    0 ,   70 ,  232 ,   35 ,  216 ,   40 ,    8 ,    0 ,  223 ,  122 ,    1 ,  232 ,  143 ,  197 ,   91 ,   91 
E: 000000.255209 64 01 83 80 81 7f 00 00 23 08 00 00 00 00 6c 2a eb f6 ff ef ff 09 00 2a 00 53 1f 38 05 80 cf 23 d8 08 80 00 00 00 80 00 00 00 00 09 09 00 00 00 00 00 46 e8 23 d8 28 08 00 df 7a 01 e8 8f c5 5b 5b
# ReportID: 1 / X:  131 | Y:  128 | Z:  129 | Rz:  127 | Rx:    0 | Ry:    0 | 0xff000020:   36 | Hat switch:   8 | Button: 0  0  0  0  0  0  0  0  0  0  0  0  0  0  0 | 0xff000021: 0 , 0 , 0 , 0 , 0 , 0 , 0 , 0 , 0 , 0 , 0 , 0 , 0 | 0xff000022:    1 ,  108 ,   42 ,  235 ,  247 ,  255 ,  238 ,  255 ,    9 ,    0 ,   43 ,    0 ,   90 ,   31 ,   51 ,    5 ,  115 ,  254 ,   35 ,  216 ,    8 ,  128 ,    0 ,    0 ,    0 ,  128 ,    0 ,    0 ,    0 ,    0 ,    9 ,    9 ,    0 ,    0 ,    0 ,    0 ,    0 ,   37 ,   23 ,   36 ,  216 ,   40 ,    8 ,    0 ,   62 ,   68 ,  122 ,  221 ,   70 ,   48 ,  213 ,  162 
E: 000000.259136 64 01 83 80 81 7f 00 00 24 08 00 00 00 01 6c 2a eb f7 ff ee ff 09 00 2b 00 5a 1f 33 05 73 fe 23 d8 08 80 00 00 00 80 00 00 00 00 09 09 00 00 00 00 00 25 17 24 d8 28 08 00 3e 44 7a dd 46 30 d5 a2
# ReportID: 1 / X:  131 | Y:  128 | Z:  129 | Rz:  127 | Rx:    0 | Ry:    0 | 0xff000020:   37 | Hat switch:   8 | Button: 0  0  0  0  0  0  0  0  0  0  0  0  0  0  0 | 0xff000021: 0 , 0 , 0 , 0 , 0 , 0 , 0 , 0 , 0 , 0 , 0 , 0 , 0 | 0xff000022:    2 ,  108 ,   42 ,  235 ,  247 ,  255 ,  239 ,  255 ,   11 ,    0 ,   47 ,    0 ,   81 ,   31 ,   57 ,    5 ,  103 ,   45 ,   36 ,  216 ,    8 ,  128 ,    0 ,    0 ,    0 ,  128 ,    0 ,    0 ,    0 ,    0 ,    9 ,    9 ,    0 ,    0 ,    0 ,    0 ,    0 ,    5 ,   70 ,   36 ,  216 ,   40 ,    8 ,    0 ,   75 ,   39 ,  182 ,  246 ,  156 ,  152 ,  208 ,    6 
E: 000000.262225 64 01 83 80 81 7f 00 00 25 08 00 00 00 02 6c 2a eb f7 ff ef ff 0b 00 2f 00 51 1f 39 05 67 2d 24 d8 08 80 00 00 00 80 00 00 00 00 09 09 00 00 00 00 00 05 46 24 d8 28 08 00 4b 27 b6 f6 9c 98 d0 06
# ReportID: 1 / X:  131 | Y:  128 | Z:  130 | Rz:  127 | Rx:    0 | Ry:    0 | 0xff000020:   38 | Hat switch:   8 | Button: 0  0  0  0  0  0  0  0  0  0  0  0  0  0  0 | 0xff000021: 0 , 0 , 0 , 0 , 0 , 0 , 0 , 0 , 0 , 0 , 0 , 0 , 0 | 0xff000022:    3 ,  108 ,   42 ,  235 ,  246 ,  255 ,  239 ,  255 ,   10 ,    0 ,   37 ,    0 ,   66 ,   31 ,   54 ,    5 ,   90 ,   92 ,   36 ,  216 ,    8 ,  128 ,    0 ,    0 ,    0 ,  128 ,    0 ,    0 ,    0 ,    0 ,    9 ,    9 ,    0 ,    0 ,    0 ,    0 ,    0 ,  230 ,  116 ,   36 ,  216 ,   40 ,    8 ,    0 ,   31 ,   17 ,   92 ,   57 ,  179 ,  130 ,    9 ,  180 
E: 000000.266198 64 01 83 80 82 7f 00 00 26 08 00 00 00 03 6c 2a eb f6 ff ef ff 0a 00 25 00 42 1f 36 05 5a 5c 24 d8 08 80 00 00 00 80 00 00 00 00 09 09 00 00 00 00 00 e6 74 24 d8 28 08 00 1f 11 5c 39 b3 82 09 b4
# ReportID: 1 / X:  131 | Y:  128 | Z:  129 | Rz:  127 | Rx:    0 | Ry:    0 | 0xff000020:   39 | Hat switch:   8 | Button: 0  0  0  0  0  0  0  0  0  0  0  0  0  0  0 | 0xff000021: 0 , 0 , 0 , 0 , 0 , 0 , 0 , 0 , 0 , 0 , 0 , 0 , 0 | 0xff000022:    4 ,  108 ,   42 ,  235 ,  246 ,  255 ,  238 ,  255 ,   10 ,    0 ,   35 ,    0 ,  106 ,   31 ,   67 ,    5 ,   77 ,  139 ,   36 ,  216 ,    8 ,  128 ,    0 ,    0 ,    0 ,  128 ,    0 ,    0 ,    0 ,    0 ,    9 ,    9 ,    0 ,    0 ,    0 ,    0 ,    0 ,  197 ,  163 ,   36 ,  216 ,   40 ,    8 ,    0 ,   73 ,  227 ,   75 ,   63 ,  238 ,  176 ,   75 ,  240 
E: 000000.271178 64 01 83 80 81 7f 00 00 27 08 00 00 00 04 6c 2a eb f6 ff ee ff 0a 00 23 00 6a 1f 43 05 4d 8b 24 d8 08 80 00 00 00 80 00 00 00 00 09 09 00 00 00 00 00 c5 a3 24 d8 28 08 00 49 e3 4b 3f ee b0 4b f0
# ReportID: 1 / X:  131 | Y:  128 | Z:  130 | Rz:  127 | Rx:    0 | Ry:    0 | 0xff000020:   40 | Hat switch:   8 | Button: 0  0  0  0  0  0  0  0  0  0  0  0  0  0  0 | 0xff000021: 0 , 0 , 0 , 0 , 0 , 0 , 0 , 0 , 0 , 0 , 0 , 0 , 0 | 0xff000022:    5 ,  108 ,   42 ,  235 ,  245 ,  255 ,  238 ,  255 ,   10 ,    0 ,   46 ,    0 ,   76 ,   31 ,   67 ,    5 ,   64 ,  186 ,   36 ,  216 ,    8 ,  128 ,    0 ,    0 ,    0 ,  128 ,    0 ,    0 ,    0 ,    0 ,    9 ,    9 ,    0 ,    0 ,    0 ,    0 ,    0 ,  166 ,  210 ,   36 ,  216 ,   40 ,    8 ,    0 ,  201 ,   45 ,  110 ,  239 ,  247 ,  121 ,   30 ,  210 
E: 000000.273962 64 01 83 80 82 7f 00 00 28 08 00 00 00 05 6c 2a eb f5 ff ee ff 0a 00 2e 00 4c 1f 43 05 40 ba 24 d8 08 80 00 00 00 80 00 00 00 00 09 09 00 00 00 00 00 a6 d2 24 d8 28 08 00 c9 2d 6e ef f7 79 1e d2
# ReportID: 1 / X:  131 | Y:  128 | Z:  129 | Rz:  127 | Rx:    0 | Ry:    0 | 0xff000020:   41 | Hat switch:   8 | Button: 0  0  0  0  0  0  0  0  0  0  0  0  0  0  0 | 0xff000021: 0 , 0 , 0 , 0 , 0 , 0 , 0 , 0 , 0 , 0 , 0 , 0 , 0 | 0xff000022:    6 ,  108 ,   42 ,  235 ,  246 ,  255 ,  238 ,  255 ,   10 ,    0 ,   47 ,    0 ,   74 ,   31 ,   65 ,    5 ,   51 ,  233 ,   36 ,  216 ,    8 ,  128 ,    0 ,    0 ,    0 ,  128 ,    0 ,    0 ,    0 ,    0 ,    9 ,    9 ,    0 ,    0 ,    0 ,    0 ,    0 ,  133 ,    1 ,   37 ,  216 ,   40 ,    8 ,    0 ,  139 ,   75 ,  198 ,   83 ,  211 ,  194 ,   78 ,  230 
E: 000000.278319 64 01 83 80 81 7f 00 00 29 08 00 00 00 06 6c 2a eb f6 ff ee ff 0a 00 2f 00 4a 1f 41 05 33 e9 24 d8 08 80 00 00 00 80 00 00 00 00 09 09 00 00 00 00 00 85 01 25 d8 28 08 00 8b 4b c6 53 d3 c2 4e e6
# ReportID: 1 / X:  131 | Y:  128 | Z:  129 | Rz:  127 | Rx:    0 | Ry:    0 | 0xff000020:   42 | Hat switch:   8 | Button: 0  0  0  0  0  0  0  0  0  0  0  0  0  0  0 | 0xff000021: 0 , 0 , 0 , 0 , 0 , 0 , 0 , 0 , 0 , 0 , 0 , 0 , 0 | 0xff000022:    7 ,  108 ,   42 ,  235 ,  246 ,  255 ,  238 ,  255 ,   12 ,    0 ,   45 ,    0 ,   75 ,   31 ,   71 ,    5 ,   38 ,   24 ,   37 ,  216 ,    8 ,  128 ,    0 ,    0 ,    0 ,  128 ,    0 ,    0 ,    0 ,    0 ,    9 ,    9 ,    0 ,    0 ,    0 ,    0 ,    0 ,  101 ,   48 ,   37 ,  216 ,   40 ,    8 ,    0 ,   84 ,   92 ,  120 ,   69 ,  163 ,   24 ,  169 ,  221 
E: 000000.283194 64 01 83 80 81 7f 00 00 2a 08 00 00 00 07 6c 2a eb f6 ff ee ff 0c 00 2d 00 4b 1f 47 05 26 18 25 d8 08 80 00 00 00 80 00 00 00 00 09 09 00 00 00 00 00 65 30 25 d8 28 08 00 54 5c 78 45 a3 18 a9 dd
# ReportID: 1 / X:  131 | Y:  128 | Z:  129 | Rz:  127 | Rx:    0 | Ry:    0 | 0xff000020:   43 | Hat switch:   8 | Button: 0  0  0  0  0  0  0  0  0  0  0  0  0  0  0 | 0xff000021: 0 , 0 , 0 , 0 , 0 , 0 , 0 , 0 , 0 , 0 , 0 , 0 , 0 | 0xff000022:    8 ,  108 ,   42 ,  235 ,  246 ,  255 ,  238 ,  255 ,   10 ,    0 ,   46 ,    0 ,   65 ,   31 ,   66 ,    5 ,   25 ,   71 ,   37 ,  216 ,    8 ,  128 ,    0 ,    0 ,    0 ,  128 ,    0 ,    0 ,    0 ,    0 ,    9 ,    9 ,    0 ,    0 ,    0 ,    0 ,    0 ,   69 ,   95 ,   37 ,  216 ,   40 ,    8 ,    0 ,   80 ,  149 ,   53 ,    0 ,  129 ,   80 ,   23 ,   84 
E: 000000.286056 64 01 83 80 81 7f 00 00 2b 08 00 00 00 08 6c 2a eb f6 ff ee ff 0a 00 2e 00 41 1f 42 05 19 47 25 d8 08 80 00 00 00 80 00 00 00 00 09 09 00 00 00 00 00 45 5f 25 d8 28 08 00 50 95 35 00 81 50 17 54
# ReportID: 1 / X:  131 | Y:  128 | Z:  129 | Rz:  127 | Rx:    0 | Ry:    0 | 0xff000020:   44 | Hat switch:   8 | Button: 0  0  0  0  0  0  0  0  0  0  0  0  0  0  0 | 0xff000021: 0 , 0 , 0 , 0 , 0 , 0 , 0 , 0 , 0 , 0 , 0 , 0 , 0 | 0xff000022:    9 ,  108 ,   42 ,  235 ,  247 ,  255 ,  238 ,  255 ,   10 ,    0 ,   47 ,    0 ,   68 ,   31 ,   64 ,    5 ,   12 ,  118 ,   37 ,  216 ,    8 ,  128 ,    0 ,    0 ,    0 ,  128 ,    0 ,    0 ,    0 ,    0 ,    9 ,    9 ,    0 ,    0 ,    0 ,    0 ,    0 ,   37 ,  142 ,   37 ,  216 ,   40 ,    8 ,    0 ,  132 ,  100 ,   16 ,   39 ,   92 ,   45 ,   26 ,  195 
E: 000000.290388 64 01 83 80 81 7f 00 00 2c 08 00 00 00 09 6c 2a eb f7 ff ee ff 0a 00 2f 00 44 1f 40 05 0c 76 25 d8 08 80 00 00 00 80 00 00 00 00 09 09 00 00 00 00 00 25 8e 25 d8 28 08 00 84 64 10 27 5c 2d 1a c3
# ReportID: 1 / X:  131 | Y:  128 | Z:  129 | Rz:  127 | Rx:    0 | Ry:    0 | 0xff000020:   45 | Hat switch:   8 | Button: 0  0  0  0  0  0  0  0  0  0  0  0  0  0  0 | 0xff000021: 0 , 0 , 0 , 0 , 0 , 0 , 0 , 0 , 0 , 0 , 0 , 0 , 0 | 0xff000022:   10 ,  108 ,   42 ,  235 ,  246 ,  255 ,  239 ,  255 ,    8 ,    0 ,   45 ,    0 ,   82 ,   31 ,   78 ,    5 ,  255 ,  164 ,   37 ,  216 ,    8 ,  128 ,    0 ,    0 ,    0 ,  128 ,    0 ,    0 ,    0 ,    0 ,    9 ,    9 ,    0 ,    0 ,    0 ,    0 ,    0 ,    5 ,  189 ,   37 ,  216 ,   40 ,    8 ,    0 ,  222 ,  196 ,  161 ,  155 ,   80 ,  169 ,  185 ,  132 
E: 000000.295085 64 01 83 80 81 7f 00 00 2d 08 00 00 00 0a 6c 2a eb f6 ff ef ff 08 00 2d 00 52 1f 4e 05 ff a4 25 d8 08 80 00 00 00 80 00 00 00 00 09 09 00 00 00 00 00 05 bd 25 d8 28 08 00 de c4 a1 9b 50 a9 b9 84
# ReportID: 1 / X:  131 | Y:  128 | Z:  129 | Rz:  127 | Rx:    0 | Ry:    0 | 0xff000020:   46 | Hat switch:   8 | Button: 0  0  0  0  0  0  0  0  0  0  0  0  0  0  0 | 0xff000021: 0 , 0 , 0 , 0 , 0 , 0 , 0 , 0 , 0 , 0 , 0 , 0 , 0 | 0xff000022:   11 ,  108 ,   42 ,  235 ,  247 ,  255 ,  238 ,  255 ,   10 ,    0 ,   52 ,    0 ,   74 ,   31 ,   75 ,    5 ,  243 ,  211 ,   37 ,  216 ,    8 ,  128 ,    0 ,    0 ,    0 ,  128 ,    0 ,    0 ,    0 ,    0 ,    9 ,    9 ,    0 ,    0 ,    0 ,    0 ,    0 ,  229 ,  235 ,   37 ,  216 ,   40 ,    8 ,    0 ,   81 ,   83 ,  179 ,  226 ,  180 ,    6 ,   93 ,  252 
E: 000000.298744 64 01 83 80 81 7f 00 00 2e 08 00 00 00 0b 6c 2a eb f7 ff ee ff 0a 00 34 00 4a 1f 4b 05 f3 d3 25 d8 08 80 00 00 00 80 00 00 00 00 09 09 00 00 00 00 00 e5 eb 25 d8 28 08 00 51 53 b3 e2 b4 06 5d fc
# ReportID: 1 / X:  131 | Y:  128 | Z:  130 | Rz:  127 | Rx:    0 | Ry:    0 | 0xff000020:   47 | Hat switch:   8 | Button: 0  0  0  0  0  0  0  0  0  0  0  0  0  0  0 | 0xff000021: 0 , 0 , 0 , 0 , 0 , 0 , 0 , 0 , 0 , 0 , 0 , 0 , 0 | 0xff000022:   12 ,  108 ,   42 ,  235 ,  246 ,  255 ,  238 ,  255 ,    9 ,    0 ,   52 ,    0 ,   63 ,   31 ,   75 ,    5 ,  230 ,    2 ,   38 ,  216 ,    8 ,  128 ,    0 ,    0 ,    0 ,  128 ,    0 ,    0 ,    0 ,    0 ,    9 ,    9 ,    0 ,    0 ,    0 ,    0 ,    0 ,  199 ,   26 ,   38 ,  216 ,   40 ,    8 ,    0 ,  247 ,  234 ,  130 ,  247 ,  236 ,   72 ,  171 ,  238 
E: 000000.302022 64 01 83 80 82 7f 00 00 2f 08 00 00 00 0c 6c 2a eb f6 ff ee ff 09 00 34 00 3f 1f 4b 05 e6 02 26 d8 08 80 00 00 00 80 00 00 00 00 09 09 00 00 00 00 00 c7 1a 26 d8 28 08 00 f7 ea 82 f7 ec 48 ab ee
# ReportID: 1 / X:  131 | Y:  128 | Z:  130 | Rz:  127 | Rx:    0 | Ry:    0 | 0xff000020:   48 | Hat switch:   8 | Button: 0  0  0  0  0  0  0  0  0  0  0  0  0  0  0 | 0xff000021: 0 , 0 , 0 , 0 , 0 , 0 , 0 , 0 , 0 , 0 , 0 , 0 , 0 | 0xff000022:   13 ,  108 ,   42 ,  235 ,  246 ,  255 ,  238 ,  255 ,    9 ,    0 ,   51 ,    0 ,   63 ,   31 ,   69 ,    5 ,  217 ,   49 ,   38 ,  216 ,    8 ,  128 ,    0 ,    0 ,    0 ,  128 ,    0 ,    0 ,    0 ,    0 ,    9 ,    9 ,    0 ,    0 ,    0 ,    0 ,    0 ,  186 ,   73 ,   38 ,  216 ,   40 ,    8 ,    0 ,  153 ,  127 ,  101 ,  105 ,  176 ,   41 ,   10 ,  173 
E: 000000.306270 64 01 83 80 82 7f 00 00 30 08 00 00 00 0d 6c 2a eb f6 ff ee ff 09 00 33 00 3f 1f 45 05 d9 31 26 d8 08 80 00 00 00 80 00 00 00 00 09 09 00 00 00 00 00 ba 49 26 d8 28 08 00 99 7f 65 69 b0 29 0a ad
# ReportID: 1 / X:  131 | Y:  128 | Z:  129 | Rz:  127 | Rx:    0 | Ry:    0 | 0xff000020:   49 | Hat switch:   8 | Button: 0  0  0  0  0  0  0  0  0  0  0  0  0  0  0 | 0xff000021: 0 , 0 , 0 , 0 , 0 , 0 , 0 , 0 , 0 , 0 , 0 , 0 , 0 | 0xff000022:   14 ,  108 ,   42 ,  235 ,  246 ,  255 ,  238 ,  255 ,    9 ,    0 ,   59 ,    0 ,   64 ,   31 ,   71 ,    5 ,  205 ,   96 ,   38 ,  216 ,    8 ,  128 ,    0 ,    0 ,    0 ,  128 ,    0 ,    0 ,    0 ,    0 ,    9 ,    9 ,    0 ,    0 ,    0 ,    0 ,    0 ,  140 ,  120 ,   38 ,  216 ,   40 ,    8 ,    0 ,   80 ,   70 ,   29 ,  202 ,   52 ,   32 ,   66 ,  139 
E: 000000.310058 64 01 83 80 81 7f 00 00 31 08 00 00 00 0e 6c 2a eb f6 ff ee ff 09 00 3b 00 40 1f 47 05 cd 60 26 d8 08 80 00 00 00 80 00 00 00 00 09 09 00 00 00 00 00 8c 78 26 d8 28 08 00 50 46 1d ca 34 20 42 8b
# ReportID: 1 / X:  131 | Y:  128 | Z:  130 | Rz:  127 | Rx:    0 | Ry:    0 | 0xff000020:   50 | Hat switch:   8 | Button: 0  0  0  0  0  0  0  0  0  0  0  0  0  0  0 | 0xff000021: 0 , 0 , 0 , 0 , 0 , 0 , 0 , 0 , 0 , 0 , 0 , 0 , 0 | 0xff000022:   15 ,  108 ,   42 ,  235 ,  247 ,  255 ,  239 ,  255 ,    9 ,    0 ,   56 ,    0 ,   73 ,   31 ,   66 ,    5 ,  192 ,  143 ,   38 ,  216 ,    8 ,  128 ,    0 ,    0 ,    0 ,  128 ,    0 ,    0 ,    0 ,    0 ,    9 ,    9 ,    0 ,    0 ,    0 ,    0 ,    0 ,  109 ,  167 ,   38 ,  216 ,   40 ,    8 ,    0 ,  204 ,  115 ,    2 ,   41 ,  253 ,  113 ,   35 ,   32 
E: 000000.315394 64 01 83 80 82 7f 00 00 32 08 00 00 00 0f 6c 2a eb f7 ff ef ff 09 00 38 00 49 1f 42 05 c0 8f 26 d8 08 80 00 00 00 80 00 00 00 00 09 09 00 00 00 00 00 6d a7 26 d8 28 08 00 cc 73 02 29 fd 71 23 20
# ReportID: 1 / X:  131 | Y:  128 | Z:  130 | Rz:  127 | Rx:    0 | Ry:    0 | 0xff000020:   51 | Hat switch:   8 | Button: 0  0  0  0  0  0  0  0  0  0  0  0  0  0  0 | 0xff000021: 0 , 0 , 0 , 0 , 0 , 0 , 0 , 0 , 0 , 0 , 0 , 0 , 0 | 0xff000022:   16 ,  108 ,   42 ,  235 ,  246 ,  255 ,  239 ,  255 ,    9 ,    0 ,   57 ,    0 ,   86 ,   31 ,   67 ,    5 ,  179 ,  190 ,   38 ,  216 ,    8 ,  128 ,    0 ,    0 ,    0 ,  128 ,    0 ,    0 ,    0 ,    0 ,    9 ,    9 ,    0 ,    0 ,    0 ,    0 ,    0 ,   76 ,  214 ,   38 ,  216 ,   40 ,    8 ,    0 ,  110 ,  120 ,  241 ,    3 ,   18 ,  201 ,    7 ,  235 
E: 000000.318896 64 01 83 80 82 7f 00 00 33 08 00 00 00 10 6c 2a eb f6 ff ef ff 09 00 39 00 56 1f 43 05 b3 be 26 d8 08 80 00 00 00 80 00 00 00 00 09 09 00 00 00 00 00 4c d6 26 d8 28 08 00 6e 78 f1 03 12 c9 07 eb
# ReportID: 1 / X:  131 | Y:  128 | Z:  129 | Rz:  127 | Rx:    0 | Ry:    0 | 0xff000020:   52 | Hat switch:   8 | Button: 0  0  0  0  0  0  0  0  0  0  0  0  0  0  0 | 0xff000021: 0 , 0 , 0 , 0 , 0 , 0 , 0 , 0 , 0 , 0 , 0 , 0 , 0 | 0xff000022:   17 ,  108 ,   42 ,  235 ,  244 ,  255 ,  238 ,  255 ,    7 ,    0 ,   47 ,    0 ,   64 ,   31 ,   80 ,    5 ,  166 ,  237 ,   38 ,  216 ,    8 ,  128 ,    0 ,    0 ,    0 ,  128 ,    0 ,    0 ,    0 ,    0 ,    9 ,    9 ,    0 ,    0 ,    0 ,    0 ,    0 ,   46 ,    5 ,   39 ,  216 ,   40 ,    8 ,    0 ,   43 ,  232 ,  184 ,  110 ,   84 ,  231 ,   45 ,   95 
E: 000000.321967 64 01 83 80 81 7f 00 00 34 08 00 00 00 11 6c 2a eb f4 ff ee ff 07 00 2f 00 40 1f 50 05 a6 ed 26 d8 08 80 00 00 00 80 00 00 00 00 09 09 00 00 00 00 00 2e 05 27 d8 28 08 00 2b e8 b8 6e 54 e7 2d 5f
# ReportID: 1 / X:  131 | Y:  128 | Z:  129 | Rz:  127 | Rx:    0 | Ry:    0 | 0xff000020:   53 | Hat switch:   8 | Button: 0  0  0  0  0  0  0  0  0  0  0  0  0  0  0 | 0xff000021: 0 , 0 , 0 , 0 , 0 , 0 , 0 , 0 , 0 , 0 , 0 , 0 , 0 | 0xff000022:   18 ,  108 ,   42 ,  235 ,  246 ,  255 ,  239 ,  255 ,    9 ,    0 ,   54 ,    0 ,  111 ,   31 ,   44 ,    5 ,  155 ,   28 ,   39 ,  216 ,    8 ,  128 ,    0 ,    0 ,    0 ,  128 ,    0 ,    0 ,    0 ,    0 ,    9 ,    9 ,    0 ,    0 ,    0 ,    0 ,    0 ,    5 ,   52 ,   39 ,  216 ,   40 ,    8 ,    0 ,  244 ,  137 ,   15 ,  115 ,  161 ,  218 ,  186 ,   92 
E: 000000.325993 64 01 83 80 81 7f 00 00 35 08 00 00 00 12 6c 2a eb f6 ff ef ff 09 00 36 00 6f 1f 2c 05 9b 1c 27 d8 08 80 00 00 00 80 00 00 00 00 09 09 00 00 00 00 00 05 34 27 d8 28 08 00 f4 89 0f 73 a1 da ba 5c
# ReportID: 1 / X:  131 | Y:  128 | Z:  129 | Rz:  127 | Rx:    0 | Ry:    0 | 0xff000020:   54 | Hat switch:   8 | Button: 0  0  0  0  0  0  0  0  0  0  0  0  0  0  0 | 0xff000021: 0 , 0 , 0 , 0 , 0 , 0 , 0 , 0 , 0 , 0 , 0 , 0 , 0 | 0xff000022:   19 ,  108 ,   42 ,  235 ,  247 ,  255 ,  238 ,  255 ,    9 ,    0 ,   56 ,    0 ,   84 ,   31 ,   54 ,    5 ,  141 ,   75 ,   39 ,  216 ,    8 ,  128 ,    0 ,    0 ,    0 ,  128 ,    0 ,    0 ,    0 ,    0 ,    9 ,    9 ,    0 ,    0 ,    0 ,    0 ,    0 ,  230 ,   98 ,   39 ,  216 ,   40 ,    8 ,    0 ,  232 ,  158 ,  243 ,  135 ,   52 ,  190 ,   12 ,  246 
E: 000000.331845 64 01 83 80 81 7f 00 00 36 08 00 00 00 13 6c 2a eb f7 ff ee ff 09 00 38 00 54 1f 36 05 8d 4b 27 d8 08 80 00 00 00 80 00 00 00 00 09 09 00 00 00 00 00 e6 62 27 d8 28 08 00 e8 9e f3 87 34 be 0c f6
# ReportID: 1 / X:  131 | Y:  128 | Z:  129 | Rz:  127 | Rx:    0 | Ry:    0 | 0xff000020:   55 | Hat switch:   8 | Button: 0  0  0  0  0  0  0  0  0  0  0  0  0  0  0 | 0xff000021: 0 , 0 , 0 , 0 , 0 , 0 , 0 , 0 , 0 , 0 , 0 , 0 , 0 | 0xff000022:   20 ,  108 ,   42 ,  235 ,  245 ,  255 ,  239 ,  255 ,    9 ,    0 ,   49 ,    0 ,   78 ,   31 ,   48 ,    5 ,  127 ,  122 ,   39 ,  216 ,    8 ,  128 ,    0 ,    0 ,    0 ,  128 ,    0 ,    0 ,    0 ,    0 ,    9 ,    9 ,    0 ,    0 ,    0 ,    0 ,    0 ,  197 ,  145 ,   39 ,  216 ,   40 ,    8 ,    0 ,  210 ,  144 ,  105 ,  220 ,  187 ,  156 ,   52 ,   48 
E: 000000.335339 64 01 83 80 81 7f 00 00 37 08 00 00 00 14 6c 2a eb f5 ff ef ff 09 00 31 00 4e 1f 30 05 7f 7a 27 d8 08 80 00 00 00 80 00 00 00 00 09 09 00 00 00 00 00 c5 91 27 d8 28 08 00 d2 90 69 dc bb 9c 34 30
# ReportID: 1 / X:  131 | Y:  128 | Z:  129 | Rz:  127 | Rx:    0 | Ry:    0 | 0xff000020:   56 | Hat switch:   8 | Button: 0  0  0  0  0  0  0  0  0  0  0  0  0  0  0 | 0xff000021: 0 , 0 , 0 , 0 , 0 , 0 , 0 , 0 , 0 , 0 , 0 , 0 , 0 | 0xff000022:   21 ,  108 ,   42 ,  235 ,  244 ,  255 ,  239 ,  255 ,    7 ,    0 ,   50 ,    0 ,   87 ,   31 ,   52 ,    5 ,  116 ,  169 ,   39 ,  216 ,    8 ,  128 ,    0 ,    0 ,    0 ,  128 ,    0 ,    0 ,    0 ,    0 ,    9 ,    9 ,    0 ,    0 ,    0 ,    0 ,    0 ,  165 ,  192 ,   39 ,  216 ,   40 ,    8 ,    0 ,   18 ,   92 ,  166 ,  189 ,   96 ,    9 ,   64 ,    4 
E: 000000.339219 64 01 83 80 81 7f 00 00 38 08 00 00 00 15 6c 2a eb f4 ff ef ff 07 00 32 00 57 1f 34 05 74 a9 27 d8 08 80 00 00 00 80 00 00 00 00 09 09 00 00 00 00 00 a5 c0 27 d8 28 08 00 12 5c a6 bd 60 09 40 04
# ReportID: 1 / X:  131 | Y:  128 | Z:  129 | Rz:  127 | Rx:    0 | Ry:    0 | 0xff000020:   57 | Hat switch:   8 | Button: 0  0  0  0  0  0  0  0  0  0  0  0  0  0  0 | 0xff000021: 0 , 0 , 0 , 0 , 0 , 0 , 0 , 0 , 0 , 0 , 0 , 0 , 0 | 0xff000022:   22 ,  108 ,   42 ,  235 ,  245 ,  255 ,  238 ,  255 ,    8 ,    0 ,   53 ,    0 ,   89 ,   31 ,   46 ,    5 ,  103 ,  216 ,   39 ,  216 ,    8 ,  128 ,    0 ,    0 ,    0 ,  128 ,    0 ,    0 ,    0 ,    0 ,    9 ,    9 ,    0 ,    0 ,    0 ,    0 ,    0 ,  134 ,  239 ,   39 ,  216 ,   40 ,    8 ,    0 ,  222 ,   45 ,  231 ,  175 ,   25 ,  180 ,   36 ,  133 
E: 000000.342830 64 01 83 80 81 7f 00 00 39 08 00 00 00 16 6c 2a eb f5 ff ee ff 08 00 35 00 59 1f 2e 05 67 d8 27 d8 08 80 00 00 00 80 00 00 00 00 09 09 00 00 00 00 00 86 ef 27 d8 28 08 00 de 2d e7 af 19 b4 24 85
# ReportID: 1 / X:  131 | Y:  128 | Z:  129 | Rz:  127 | Rx:    0 | Ry:    0 | 0xff000020:   58 | Hat switch:   8 | Button: 0  0  0  0  0  0  0  0  0  0  0  0  0  0  0 | 0xff000021: 0 , 0 , 0 , 0 , 0 , 0 , 0 , 0 , 0 , 0 , 0 , 0 , 0 | 0xff000022:   23 ,  108 ,   42 ,  235 ,  243 ,  255 ,  238 ,  255 ,    7 ,    0 ,   53 ,    0 ,   97 ,   31 ,   38 ,    5 ,   91 ,    7 ,   40 ,  216 ,    8 ,  128 ,    0 ,    0 ,    0 ,  128 ,    0 ,    0 ,    0 ,    0 ,    9 ,    9 ,    0 ,    0 ,    0 ,    0 ,    0 ,  101 ,   30 ,   40 ,  216 ,   40 ,    8 ,    0 ,   86 ,  198 ,  231 ,  131 ,   23 ,  214 ,   42 ,  231 
E: 000000.345982 64 01 83 80 81 7f 00 00 3a 08 00 00 00 17 6c 2a eb f3 ff ee ff 07 00 35 00 61 1f 26 05 5b 07 28 d8 08 80 00 00 00 80 00 00 00 00 09 09 00 00 00 00 00 65 1e 28 d8 28 08 00 56 c6 e7 83 17 d6 2a e7
# ReportID: 1 / X:  131 | Y:  128 | Z:  130 | Rz:  127 | Rx:    0 | Ry:    0 | 0xff000020:   59 | Hat switch:   8 | Button: 0  0  0  0  0  0  0  0  0  0  0  0  0  0  0 | 0xff000021: 0 , 0 , 0 , 0 , 0 , 0 , 0 , 0 , 0 , 0 , 0 , 0 , 0 | 0xff000022:   24 ,  108 ,   42 ,  235 ,  246 ,  255 ,  239 ,  255 ,    8 ,    0 ,   51 ,    0 ,   86 ,   31 ,   44 ,    5 ,   78 ,   54 ,   40 ,  216 ,    8 ,  128 ,    0 ,    0 ,    0 ,  128 ,    0 ,    0 ,    0 ,    0 ,    9 ,    9 ,    0 ,    0 ,    0 ,    0 ,    0 ,   69 ,   77 ,   40 ,  216 ,   40 ,    8 ,    0 ,  151 ,  120 ,   31 ,  141 ,  177 ,   48 ,   80 ,   48 
E: 000000.351121 64 01 83 80 82 7f 00 00 3b 08 00 00 00 18 6c 2a eb f6 ff ef ff 08 00 33 00 56 1f 2c 05 4e 36 28 d8 08 80 00 00 00 80 00 00 00 00 09 09 00 00 00 00 00 45 4d 28 d8 28 08 00 97 78 1f 8d b1 30 50 30
# ReportID: 1 / X:  131 | Y:  128 | Z:  130 | Rz:  127 | Rx:    0 | Ry:    0 | 0xff000020:   60 | Hat switch:   8 | Button: 0  0  0  0  0  0  0  0  0  0  0  0  0  0  0 | 0xff000021: 0 , 0 , 0 , 0 , 0 , 0 , 0 , 0 , 0 , 0 , 0 , 0 , 0 | 0xff000022:   25 ,  108 ,   42 ,  235 ,  247 ,  255 ,  238 ,  255 ,    8 ,    0 ,   48 ,    0 ,   89 ,   31 ,   43 ,    5 ,   62 ,  101 ,   40 ,  216 ,    8 ,  128 ,    0 ,    0 ,    0 ,  128 ,    0 ,    0 ,    0 ,    0 ,    9 ,    9 ,    0 ,    0 ,    0 ,    0 ,    0 ,   37 ,  124 ,   40 ,  216 ,   40 ,    8 ,    0 ,  215 ,  142 ,  206 ,  139 ,   65 ,  122 ,  181 ,   87 
E: 000000.354864 64 01 83 80 82 7f 00 00 3c 08 00 00 00 19 6c 2a eb f7 ff ee ff 08 00 30 00 59 1f 2b 05 3e 65 28 d8 08 80 00 00 00 80 00 00 00 00 09 09 00 00 00 00 00 25 7c 28 d8 28 08 00 d7 8e ce 8b 41 7a b5 57
# ReportID: 1 / X:  131 | Y:  128 | Z:  129 | Rz:  127 | Rx:    0 | Ry:    0 | 0xff000020:   61 | Hat switch:   8 | Button: 0  0  0  0  0  0  0  0  0  0  0  0  0  0  0 | 0xff000021: 0 , 0 , 0 , 0 , 0 , 0 , 0 , 0 , 0 , 0 , 0 , 0 , 0 | 0xff000022:   26 ,  108 ,   42 ,  235 ,  246 ,  255 ,  238 ,  255 ,    9 ,    0 ,   52 ,    0 ,   94 ,   31 ,   46 ,    5 ,   49 ,  148 ,   40 ,  216 ,    8 ,  128 ,    0 ,    0 ,    0 ,  128 ,    0 ,    0 ,    0 ,    0 ,    9 ,    9 ,    0 ,    0 ,    0 ,    0 ,    0 ,    5 ,  171 ,   40 ,  216 ,   40 ,    8 ,    0 ,   28 ,  153 ,  210 ,  249 ,   55 ,  233 ,   91 ,  142 
E: 000000.358013 64 01 83 80 81 7f 00 00 3d 08 00 00 00 1a 6c 2a eb f6 ff ee ff 09 00 34 00 5e 1f 2e 05 31 94 28 d8 08 80 00 00 00 80 00 00 00 00 09 09 00 00 00 00 00 05 ab 28 d8 28 08 00 1c 99 d2 f9 37 e9 5b 8e
# ReportID: 1 / X:  131 | Y:  128 | Z:  129 | Rz:  127 | Rx:    0 | Ry:    0 | 0xff000020:   62 | Hat switch:   8 | Button: 0  0  0  0  0  0  0  0  0  0  0  0  0  0  0 | 0xff000021: 0 , 0 , 0 , 0 , 0 , 0 , 0 , 0 , 0 , 0 , 0 , 0 , 0 | 0xff000022:   27 ,  108 ,   42 ,  235 ,  245 ,  255 ,  238 ,  255 ,    9 ,    0 ,   50 ,    0 ,  103 ,   31 ,   45 ,    5 ,   36 ,  195 ,   40 ,  216 ,    8 ,  128 ,    0 ,    0 ,    0 ,  128 ,    0 ,    0 ,    0 ,    0 ,    9 ,    9 ,    0 ,    0 ,    0 ,    0 ,    0 ,  229 ,  217 ,   40 ,  216 ,   40 ,    8 ,    0 ,  175 ,  152 ,  202 ,   44 ,  232 ,  220 ,  246 ,   97 
E: 000000.362121 64 01 83 80 81 7f 00 00 3e 08 00 00 00 1b 6c 2a eb f5 ff ee ff 09 00 32 00 67 1f 2d 05 24 c3 28 d8 08 80 00 00 00 80 00 00 00 00 09 09 00 00 00 00 00 e5 d9 28 d8 28 08 00 af 98 ca 2c e8 dc f6 61
# ReportID: 1 / X:  131 | Y:  128 | Z:  129 | Rz:  127 | Rx:    0 | Ry:    0 | 0xff000020:   63 | Hat switch:   8 | Button: 0  0  0  0  0  0  0  0  0  0  0  0  0  0  0 | 0xff000021: 0 , 0 , 0 , 0 , 0 , 0 , 0 , 0 , 0 , 0 , 0 , 0 , 0 | 0xff000022:   28 ,  108 ,   42 ,  235 ,  245 ,  255 ,  239 ,  255 ,    9 ,    0 ,   46 ,    0 ,   90 ,   31 ,   44 ,    5 ,   23 ,  242 ,   40 ,  216 ,    8 ,  128 ,    0 ,    0 ,    0 ,  128 ,    0 ,    0 ,    0 ,    0 ,    9 ,    9 ,    0 ,    0 ,    0 ,    0 ,    0 ,  197 ,    8 ,   41 ,  216 ,   40 ,    8 ,    0 ,   51 ,   75 ,  230 ,   37 ,  192 ,   78 ,  233 ,   12 
E: 000000.365974 64 01 83 80 81 7f 00 00 3f 08 00 00 00 1c 6c 2a eb f5 ff ef ff 09 00 2e 00 5a 1f 2c 05 17 f2 28 d8 08 80 00 00 00 80 00 00 00 00 09 09 00 00 00 00 00 c5 08 29 d8 28 08 00 33 4b e6 25 c0 4e e9 0c
# ReportID: 1 / X:  131 | Y:  128 | Z:  130 | Rz:  127 | Rx:    0 | Ry:    0 | 0xff000020:   64 | Hat switch:   8 | Button: 0  0  0  0  0  0  0  0  0  0  0  0  0  0  0 | 0xff000021: 0 , 0 , 0 , 0 , 0 , 0 , 0 , 0 , 0 , 0 , 0 , 0 , 0 | 0xff000022:   29 ,  108 ,   42 ,  235 ,  245 ,  255 ,  239 ,  255 ,    9 ,    0 ,   56 ,    0 ,   89 ,   31 ,   48 ,    5 ,   11 ,   33 ,   41 ,  216 ,    8 ,  128 ,    0 ,    0 ,    0 ,  128 ,    0 ,    0 ,    0 ,    0 ,    9 ,    9 ,    0 ,    0 ,    0 ,    0 ,    0 ,  166 ,   55 ,   41 ,  216 ,   40 ,    8 ,    0 ,  186 ,  115 ,  166 ,  156 ,   83 ,  139 ,  153 ,   15 
E: 000000.370621 64 01 83 80 82 7f 00 00 40 08 00 00 00 1d 6c 2a eb f5 ff ef ff 09 00 38 00 59 1f 30 05 0b 21 29 d8 08 80 00 00 00 80 00 00 00 00 09 09 00 00 00 00 00 a6 37 29 d8 28 08 00 ba 73 a6 9c 53 8b 99 0f
# ReportID: 1 / X:  131 | Y:  128 | Z:  129 | Rz:  127 | Rx:    0 | Ry:    0 | 0xff000020:   65 | Hat switch:   8 | Button: 0  0  0  0  0  0  0  0  0  0  0  0  0  0  0 | 0xff000021: 0 , 0 , 0 , 0 , 0 , 0 , 0 , 0 , 0 , 0 , 0 , 0 , 0 | 0xff000022:   30 ,  108 ,   42 ,  235 ,  246 ,  255 ,  239 ,  255 ,    8 ,    0 ,   53 ,    0 ,   87 ,   31 ,   56 ,    5 ,  254 ,   79 ,   41 ,  216 ,    8 ,  128 ,    0 ,    0 ,    0 ,  128 ,    0 ,    0 ,    0 ,    0 ,    9 ,    9 ,    0 ,    0 ,    0 ,    0 ,    0 ,  133 ,  102 ,   41 ,  216 ,   40 ,    8 ,    0 ,  243 ,  101 ,  195 ,  163 ,  194 ,   15 ,   14 ,   74 
E: 000000.374561 64 01 83 80 81 7f 00 00 41 08 00 00 00 1e 6c 2a eb f6 ff ef ff 08 00 35 00 57 1f 38 05 fe 4f 29 d8 08 80 00 00 00 80 00 00 00 00 09 09 00 00 00 00 00 85 66 29 d8 28 08 00 f3 65 c3 a3 c2 0f 0e 4a
# ReportID: 1 / X:  131 | Y:  128 | Z:  130 | Rz:  127 | Rx:    0 | Ry:    0 | 0xff000020:   66 | Hat switch:   8 | Button: 0  0  0  0  0  0  0  0  0  0  0  0  0  0  0 | 0xff000021: 0 , 0 , 0 , 0 , 0 , 0 , 0 , 0 , 0 , 0 , 0 , 0 , 0 | 0xff000022:   31 ,  108 ,   42 ,  235 ,  245 ,  255 ,  239 ,  255 ,    8 ,    0 ,   54 ,    0 ,   71 ,   31 ,   53 ,    5 ,  241 ,  126 ,   41 ,  216 ,    8 ,  128 ,    0 ,    0 ,    0 ,  128 ,    0 ,    0 ,    0 ,    0 ,    9 ,    9 ,    0 ,    0 ,    0 ,    0 ,    0 ,  101 ,  149 ,   41 ,  216 ,   40 ,    8 ,    0 ,  167 ,   13 ,  231 ,  121 ,   38 ,  218 ,   82 ,  155 
E: 000000.377955 64 01 83 80 82 7f 00 00 42 08 00 00 00 1f 6c 2a eb f5 ff ef ff 08 00 36 00 47 1f 35 05 f1 7e 29 d8 08 80 00 00 00 80 00 00 00 00 09 09 00 00 00 00 00 65 95 29 d8 28 08 00 a7 0d e7 79 26 da 52 9b
# ReportID: 1 / X:  131 | Y:  128 | Z:  130 | Rz:  127 | Rx:    0 | Ry:    0 | 0xff000020:   67 | Hat switch:   8 | Button: 0  0  0  0  0  0  0  0  0  0  0  0  0  0  0 | 0xff000021: 0 , 0 , 0 , 0 , 0 , 0 , 0 , 0 , 0 , 0 , 0 , 0 , 0 | 0xff000022:   32 ,  108 ,   42 ,  235 ,  245 ,  255 ,  238 ,  255 ,    9 ,    0 ,   51 ,    0 ,   82 ,   31 ,   56 ,    5 ,  228 ,  173 ,   41 ,  216 ,    8 ,  128 ,    0 ,    0 ,    0 ,  128 ,    0 ,    0 ,    0 ,    0 ,    9 ,    9 ,    0 ,    0 ,    0 ,    0 ,    0 ,   69 ,  196 ,   41 ,  216 ,   40 ,    8 ,    0 ,    5 ,   46 ,  235 ,  160 ,   46 ,  124 ,  142 ,  172 
E: 000000.382035 64 01 83 80 82 7f 00 00 43 08 00 00 00 20 6c 2a eb f5 ff ee ff 09 00 33 00 52 1f 38 05 e4 ad 29 d8 08 80 00 00 00 80 00 00 00 00 09 09 00 00 00 00 00 45 c4 29 d8 28 08 00 05 2e eb a0 2e 7c 8e ac
# ReportID: 1 / X:  131 | Y:  128 | Z:  130 | Rz:  127 | Rx:    0 | Ry:    0 | 0xff000020:   68 | Hat switch:   8 | Button: 0  0  0  0  0  0  0  0  0  0  0  0  0  0  0 | 0xff000021: 0 , 0 , 0 , 0 , 0 , 0 , 0 , 0 , 0 , 0 , 0 , 0 , 0 | 0xff000022:   33 ,  108 ,   42 ,  235 ,  245 ,  255 ,  239 ,  255 ,    9 ,    0 ,   50 ,    0 ,   78 ,   31 ,   60 ,    5 ,  215 ,  220 ,   41 ,  216 ,    8 ,  128 ,    0 ,    0 ,    0 ,  128 ,    0 ,    0 ,    0 ,    0 ,    9 ,    9 ,    0 ,    0 ,    0 ,    0 ,    0 ,   37 ,  243 ,   41 ,  216 ,   40 ,    8 ,    0 ,  197 ,  187 ,  215 ,  222 ,  126 ,   66 ,  243 ,   10 
E: 000000.387265 64 01 83 80 82 7f 00 00 44 08 00 00 00 21 6c 2a eb f5 ff ef ff 09 00 32 00 4e 1f 3c 05 d7 dc 29 d8 08 80 00 00 00 80 00 00 00 00 09 09 00 00 00 00 00 25 f3 29 d8 28 08 00 c5 bb d7 de 7e 42 f3 0a
# ReportID: 1 / X:  131 | Y:  128 | Z:  129 | Rz:  127 | Rx:    0 | Ry:    0 | 0xff000020:   69 | Hat switch:   8 | Button: 0  0  0  0  0  0  0  0  0  0  0  0  0  0  0 | 0xff000021: 0 , 0 , 0 , 0 , 0 , 0 , 0 , 0 , 0 , 0 , 0 , 0 , 0 | 0xff000022:   34 ,  108 ,   42 ,  235 ,  245 ,  255 ,  239 ,  255 ,    8 ,    0 ,   49 ,    0 ,   83 ,   31 ,   63 ,    5 ,  202 ,   11 ,   42 ,  216 ,    8 ,  128 ,    0 ,    0 ,    0 ,  128 ,    0 ,    0 ,    0 ,    0 ,    9 ,    9 ,    0 ,    0 ,    0 ,    0 ,    0 ,    5 ,   34 ,   42 ,  216 ,   40 ,    8 ,    0 ,   50 ,  168 ,  133 ,  203 ,  149 ,  215 ,  249 ,   36 
E: 000000.391100 64 01 83 80 81 7f 00 00 45 08 00 00 00 22 6c 2a eb f5 ff ef ff 08 00 31 00 53 1f 3f 05 ca 0b 2a d8 08 80 00 00 00 80 00 00 00 00 09 09 00 00 00 00 00 05 22 2a d8 28 08 00 32 a8 85 cb 95 d7 f9 24
# ReportID: 1 / X:  131 | Y:  128 | Z:  129 | Rz:  127 | Rx:    0 | Ry:    0 | 0xff000020:   70 | Hat switch:   8 | Button: 0  0  0  0  0  0  0  0  0  0  0  0  0  0  0 | 0xff000021: 0 , 0 , 0 , 0 , 0 , 0 , 0 , 0 , 0 , 0 , 0 , 0 , 0 | 0xff000022:   35 ,  108 ,   42 ,  235 ,  245 ,  255 ,  239 ,  255 ,    9 ,    0 ,   53 ,    0 ,   69 ,   31 ,   62 ,    5 ,  189 ,   58 ,   42 ,  216 ,    8 ,  128 ,    0 ,    0 ,    0 ,  128 ,    0 ,    0 ,    0 ,    0 ,    9 ,    9 ,    0 ,    0 ,    0 ,    0 ,    0 ,  229 ,   80 ,   42 ,  216 ,   40 ,    8 ,    0 ,   61 ,  130 ,    7 ,   41 ,  135 ,  247 ,  134 ,   75 
E: 000000.394677 64 01 83 80 81 7f 00 00 46 08 00 00 00 23 6c 2a eb f5 ff ef ff 09 00 35 00 45 1f 3e 05 bd 3a 2a d8 08 80 00 00 00 80 00 00 00 00 09 09 00 00 00 00 00 e5 50 2a d8 28 08 00 3d 82 07 29 87 f7 86 4b
# ReportID: 1 / X:  131 | Y:  128 | Z:  129 | Rz:  127 | Rx:    0 | Ry:    0 | 0xff000020:   71 | Hat switch:   8 | Button: 0  0  0  0  0  0  0  0  0  0  0  0  0  0  0 | 0xff000021: 0 , 0 , 0 , 0 , 0 , 0 , 0 , 0 , 0 , 0 , 0 , 0 , 0 | 0xff000022:   36 ,  108 ,   42 ,  235 ,  246 ,  255 ,  238 ,  255 ,    8 ,    0 ,   44 ,    0 ,   73 ,   31 ,   67 ,    5 ,  176 ,  105 ,   42 ,  216 ,    8 ,  128 ,    0 ,    0 ,    0 ,  128 ,    0 ,    0 ,    0 ,    0 ,    9 ,    9 ,    0 ,    0 ,    0 ,    0 ,    0 ,  197 ,  127 ,   42 ,  216 ,   40 ,    8 ,    0 ,  154 ,  205 ,  117 ,   55 ,  100 ,  194 ,   97 ,   87 
E: 000000.398160 64 01 83 80 81 7f 00 00 47 08 00 00 00 24 6c 2a eb f6 ff ee ff 08 00 2c 00 49 1f 43 05 b0 69 2a d8 08 80 00 00 00 80 00 00 00 00 09 09 00 00 00 00 00 c5 7f 2a d8 28 08 00 9a cd 75 37 64 c2 61 57
# ReportID: 1 / X:  131 | Y:  128 | Z:  129 | Rz:  127 | Rx:    0 | Ry:    0 | 0xff000020:   72 | Hat switch:   8 | Button: 0  0  0  0  0  0  0  0  0  0  0  0  0  0  0 | 0xff000021: 0 , 0 , 0 , 0 , 0 , 0 , 0 , 0 , 0 , 0 , 0 , 0 , 0 | 0xff000022:   37 ,  108 ,   42 ,  235 ,  246 ,  255 ,  239 ,  255 ,    8 ,    0 ,   35 ,    0 ,   86 ,   31 ,   63 ,    5 ,  163 ,  152 ,   42 ,  216 ,    8 ,  128 ,    0 ,    0 ,    0 ,  128 ,    0 ,    0 ,    0 ,    0 ,    9 ,    9 ,    0 ,    0 ,    0 ,    0 ,    0 ,  165 ,  174 ,   42 ,  216 ,   40 ,    8 ,    0 ,  240 ,   75 ,  132 ,   51 ,  249 ,  226 ,  127 ,  200 
E: 000000.403967 64 01 83 80 81 7f 00 00 48 08 00 00 00 25 6c 2a eb f6 ff ef ff 08 00 23 00 56 1f 3f 05 a3 98 2a d8 08 80 00 00 00 80 00 00 00 00 09 09 00 00 00 00 00 a5 ae 2a d8 28 08 00 f0 4b 84 33 f9 e2 7f c8
# ReportID: 1 / X:  131 | Y:  128 | Z:  129 | Rz:  127 | Rx:    0 | Ry:    0 | 0xff000020:   73 | Hat switch:   8 | Button: 0  0  0  0  0  0  0  0  0  0  0  0  0  0  0 | 0xff000021: 0 , 0 , 0 , 0 , 0 , 0 , 0 , 0 , 0 , 0 , 0 , 0 , 0 | 0xff000022:   38 ,  108 ,   42 ,  235 ,  244 ,  255 ,  240 ,  255 ,    7 ,    0 ,   40 ,    0 ,   84 ,   31 ,   66 ,    5 ,  151 ,  199 ,   42 ,  216 ,    8 ,  128 ,    0 ,    0 ,    0 ,  128 ,    0 ,    0 ,    0 ,    0 ,    9 ,    9 ,    0 ,    0 ,    0 ,    0 ,    0 ,  133 ,  221 ,   42 ,  216 ,   40 ,    8 ,    0 ,  161 ,    2 ,   53 ,  111 ,   34 ,  201 ,  162 ,  111 
E: 000000.405932 64 01 83 80 81 7f 00 00 49 08 00 00 00 26 6c 2a eb f4 ff f0 ff 07 00 28 00 54 1f 42 05 97 c7 2a d8 08 80 00 00 00 80 00 00 00 00 09 09 00 00 00 00 00 85 dd 2a d8 28 08 00 a1 02 35 6f 22 c9 a2 6f
# ReportID: 1 / X:  131 | Y:  128 | Z:  130 | Rz:  127 | Rx:    0 | Ry:    0 | 0xff000020:   74 | Hat switch:   8 | Button: 0  0  0  0  0  0  0  0  0  0  0  0  0  0  0 | 0xff000021: 0 , 0 , 0 , 0 , 0 , 0 , 0 , 0 , 0 , 0 , 0 , 0 , 0 | 0xff000022:   39 ,  108 ,   42 ,  235 ,  243 ,  255 ,  240 ,  255 ,    8 ,    0 ,   35 ,    0 ,   88 ,   31 ,   73 ,    5 ,  139 ,  246 ,   42 ,  216 ,    8 ,  128 ,    0 ,    0 ,    0 ,  128 ,    0 ,    0 ,    0 ,    0 ,    9 ,    9 ,    0 ,    0 ,    0 ,    0 ,    0 ,  101 ,   12 ,   43 ,  216 ,   40 ,    8 ,    0 ,   43 ,  162 ,  170 ,  189 ,  185 ,  154 ,  200 ,   99 
E: 000000.411684 64 01 83 80 82 7f 00 00 4a 08 00 00 00 27 6c 2a eb f3 ff f0 ff 08 00 23 00 58 1f 49 05 8b f6 2a d8 08 80 00 00 00 80 00 00 00 00 09 09 00 00 00 00 00 65 0c 2b d8 28 08 00 2b a2 aa bd b9 9a c8 63
# ReportID: 1 / X:  131 | Y:  128 | Z:  129 | Rz:  127 | Rx:    0 | Ry:    0 | 0xff000020:   75 | Hat switch:   8 | Button: 0  0  0  0  0  0  0  0  0  0  0  0  0  0  0 | 0xff000021: 0 , 0 , 0 , 0 , 0 , 0 , 0 , 0 , 0 , 0 , 0 , 0 , 0 | 0xff000022:   40 ,  108 ,   42 ,  235 ,  244 ,  255 ,  240 ,  255 ,    7 ,    0 ,   39 ,    0 ,   79 ,   31 ,   64 ,    5 ,  128 ,   37 ,   43 ,  216 ,    8 ,  128 ,    0 ,    0 ,    0 ,  128 ,    0 ,    0 ,    0 ,    0 ,    9 ,    9 ,    0 ,    0 ,    0 ,    0 ,    0 ,   70 ,   59 ,   43 ,  216 ,   40 ,    8 ,    0 ,   60 ,  112 ,   55 ,  188 ,  144 ,   38 ,  201 ,  180 
E: 000000.415703 64 01 83 80 81 7f 00 00 4b 08 00 00 00 28 6c 2a eb f4 ff f0 ff 07 00 27 00 4f 1f 40 05 80 25 2b d8 08 80 00 00 00 80 00 00 00 00 09 09 00 00 00 00 00 46 3b 2b d8 28 08 00 3c 70 37 bc 90 26 c9 b4
# ReportID: 1 / X:  131 | Y:  128 | Z:  129 | Rz:  127 | Rx:    0 | Ry:    0 | 0xff000020:   76 | Hat switch:   8 | Button: 0  0  0  0  0  0  0  0  0  0  0  0  0  0  0 | 0xff000021: 0 , 0 , 0 , 0 , 0 , 0 , 0 , 0 , 0 , 0 , 0 , 0 , 0 | 0xff000022:   41 ,  108 ,   42 ,  235 ,  244 ,  255 ,  241 ,  255 ,    8 ,    0 ,   45 ,    0 ,   81 ,   31 ,   68 ,    5 ,  114 ,   84 ,   43 ,  216 ,    8 ,  128 ,    0 ,    0 ,    0 ,  128 ,    0 ,    0 ,    0 ,    0 ,    9 ,    9 ,    0 ,    0 ,    0 ,    0 ,    0 ,   37 ,  106 ,   43 ,  216 ,   40 ,    8 ,    0 ,  173 ,  188 ,   59 ,   37 ,   59 ,  180 ,   93 ,   57 
E: 000000.418729 64 01 83 80 81 7f 00 00 4c 08 00 00 00 29 6c 2a eb f4 ff f1 ff 08 00 2d 00 51 1f 44 05 72 54 2b d8 08 80 00 00 00 80 00 00 00 00 09 09 00 00 00 00 00 25 6a 2b d8 28 08 00 ad bc 3b 25 3b b4 5d 39
# ReportID: 1 / X:  131 | Y:  128 | Z:  129 | Rz:  127 | Rx:    0 | Ry:    0 | 0xff000020:   77 | Hat switch:   8 | Button: 0  0  0  0  0  0  0  0  0  0  0  0  0  0  0 | 0xff000021: 0 , 0 , 0 , 0 , 0 , 0 , 0 , 0 , 0 , 0 , 0 , 0 , 0 | 0xff000022:   42 ,  108 ,   42 ,  235 ,  243 ,  255 ,  240 ,  255 ,    9 ,    0 ,   34 ,    0 ,   77 ,   31 ,   67 ,    5 ,   99 ,  131 ,   43 ,  216 ,    8 ,  128 ,    0 ,    0 ,    0 ,  128 ,    0 ,    0 ,    0 ,    0 ,    9 ,    9 ,    0 ,    0 ,    0 ,    0 ,    0 ,    5 ,  153 ,   43 ,  216 ,   40 ,    8 ,    0 ,  146 ,  228 ,   89 ,   63 ,   88 ,   91 ,   71 ,   66 
E: 000000.422310 64 01 83 80 81 7f 00 00 4d 08 00 00 00 2a 6c 2a eb f3 ff f0 ff 09 00 22 00 4d 1f 43 05 63 83 2b d8 08 80 00 00 00 80 00 00 00 00 09 09 00 00 00 00 00 05 99 2b d8 28 08 00 92 e4 59 3f 58 5b 47 42
# ReportID: 1 / X:  131 | Y:  128 | Z:  130 | Rz:  127 | Rx:    0 | Ry:    0 | 0xff000020:   78 | Hat switch:   8 | Button: 0  0  0  0  0  0  0  0  0  0  0  0  0  0  0 | 0xff000021: 0 , 0 , 0 , 0 , 0 , 0 , 0 , 0 , 0 , 0 , 0 , 0 , 0 | 0xff000022:   43 ,  108 ,   42 ,  235 ,  245 ,  255 ,  240 ,  255 ,    9 ,    0 ,   48 ,    0 ,   77 ,   31 ,   60 ,    5 ,   86 ,  178 ,   43 ,  216 ,    8 ,  128 ,    0 ,    0 ,    0 ,  128 ,    0 ,    0 ,    0 ,    0 ,    9 ,    9 ,    0 ,    0 ,    0 ,    0 ,    0 ,  229 ,  199 ,   43 ,  216 ,   40 ,    8 ,    0 ,  252 ,   42 ,   35 ,  124 ,   30 ,  112 ,  205 ,    7 
E: 000000.426217 64 01 83 80 82 7f 00 00 4e 08 00 00 00 2b 6c 2a eb f5 ff f0 ff 09 00 30 00 4d 1f 3c 05 56 b2 2b d8 08 80 00 00 00 80 00 00 00 00 09 09 00 00 00 00 00 e5 c7 2b d8 28 08 00 fc 2a 23 7c 1e 70 cd 07
