# Sony Interactive Entertainment DualSense Wireless Controller
# 0x05, 0x01,                    // Usage Page (Generic Desktop)        0
# 0x09, 0x05,                    // Usage (Game Pad)                    2
# 0xa1, 0x01,                    // Collection (Application)            4
# 0x85, 0x01,                    //  Report ID (1)                      6
# 0x09, 0x30,                    //  Usage (X)                          8
# 0x09, 0x31,                    //  Usage (Y)                          10
# 0x09, 0x32,                    //  Usage (Z)                          12
# 0x09, 0x35,                    //  Usage (Rz)                         14
# 0x09, 0x33,                    //  Usage (Rx)                         16
# 0x09, 0x34,                    //  Usage (Ry)                         18
# 0x15, 0x00,                    //  Logical Minimum (0)                20
# 0x26, 0xff, 0x00,              //  Logical Maximum (255)              22
# 0x75, 0x08,                    //  Report Size (8)                    25
# 0x95, 0x06,                    //  Report Count (6)                   27
# 0x81, 0x02,                    //  Input (Data,Var,Abs)               29
# 0x06, 0x00, 0xff,              //  Usage Page (Vendor Defined Page 1) 31
# 0x09, 0x20,                    //  Usage (Vendor Usage 0x20)          34
# 0x95, 0x01,                    //  Report Count (1)                   36
# 0x81, 0x02,                    //  Input (Data,Var,Abs)               38
# 0x05, 0x01,                    //  Usage Page (Generic Desktop)       40
# 0x09, 0x39,                    //  Usage (Hat switch)                 42
# 0x15, 0x00,                    //  Logical Minimum (0)                44
# 0x25, 0x07,                    //  Logical Maximum (7)                46
# 0x35, 0x00,                    //  Physical Minimum (0)               48
# 0x46, 0x3b, 0x01,              //  Physical Maximum (315)             50
# 0x65, 0x14,                    //  Unit (EnglishRotation: deg)        53
# 0x75, 0x04,                    //  Report Size (4)                    55
# 0x95, 0x01,                    //  Report Count (1)                   57
# 0x81, 0x42,                    //  Input (Data,Var,Abs,Null)          59
# 0x65, 0x00,                    //  Unit (None)                        61
# 0x05, 0x09,                    //  Usage Page (Button)                63
# 0x19, 0x01,                    //  Usage Minimum (1)                  65
# 0x29, 0x0f,                    //  Usage Maximum (15)                 67
# 0x15, 0x00,                    //  Logical Minimum (0)                69
# 0x25, 0x01,                    //  Logical Maximum (1)                71
# 0x75, 0x01,                    //  Report Size (1)                    73
# 0x95, 0x0f,                    //  Report Count (15)                  75
# 0x81, 0x02,                    //  Input (Data,Var,Abs)               77
# 0x06, 0x00, 0xff,              //  Usage Page (Vendor Defined Page 1) 79
# 0x09, 0x21,                    //  Usage (Vendor Usage 0x21)          82
# 0x95, 0x0d,                    //  Report Count (13)                  84
# 0x81, 0x02,                    //  Input (Data,Var,Abs)               86
# 0x06, 0x00, 0xff,              //  Usage Page (Vendor Defined Page 1) 88
# 0x09, 0x22,                    //  Usage (Vendor Usage 0x22)          91
# 0x15, 0x00,                    //  Logical Minimum (0)                93
# 0x26, 0xff, 0x00,              //  Logical Maximum (255)              95
# 0x75, 0x08,                    //  Report Size (8)                    98
# 0x95, 0x34,                    //  Report Count (52)                  100
# 0x81, 0x02,                    //  Input (Data,Var,Abs)               102
# 0x85, 0x02,                    //  Report ID (2)                      104
# 0x09, 0x23,                    //  Usage (Vendor Usage 0x23)          106
# 0x95, 0x2f,                    //  Report Count (47)                  108
# 0x91, 0x02,                    //  Output (Data,Var,Abs)              110
# 0x85, 0x05,                    //  Report ID (5)                      112
# 0x09, 0x33,                    //  Usage (Vendor Usage 0x33)          114
# 0x95, 0x28,                    //  Report Count (40)                  116
# 0xb1, 0x02,                    //  Feature (Data,Var,Abs)             118
# 0x85, 0x08,                    //  Report ID (8)                      120
# 0x09, 0x34,                    //  Usage (Vendor Usage 0x34)          122
# 0x95, 0x2f,                    //  Report Count (47)                  124
# 0xb1, 0x02,                    //  Feature (Data,Var,Abs)             126
# 0x85, 0x09,                    //  Report ID (9)                      128
# 0x09, 0x24,                    //  Usage (Vendor Usage 0x24)          130
# 0x95, 0x13,                    //  Report Count (19)                  132
# 0xb1, 0x02,                    //  Feature (Data,Var,Abs)             134
# 0x85, 0x0a,                    //  Report ID (10)                     136
# 0x09, 0x25,                    //  Usage (Vendor Usage 0x25)          138
# 0x95, 0x1a,                    //  Report Count (26)                  140
# 0xb1, 0x02,                    //  Feature (Data,Var,Abs)             142
# 0x85, 0x20,                    //  Report ID (32)                     144
# 0x09, 0x26,                    //  Usage (Vendor Usage 0x26)          146
# 0x95, 0x3f,                    //  Report Count (63)                  148
# 0xb1, 0x02,                    //  Feature (Data,Var,Abs)             150
# 0x85, 0x21,                    //  Report ID (33)                     152
# 0x09, 0x27,                    //  Usage (Vendor Usage 0x27)          154
# 0x95, 0x04,                    //  Report Count (4)                   156
# 0xb1, 0x02,                    //  Feature (Data,Var,Abs)             158
# 0x85, 0x22,                    //  Report ID (34)                     160
# 0x09, 0x40,                    //  Usage (Vendor Usage 0x40)          162
# 0x95, 0x3f,                    //  Report Count (63)                  164
# 0xb1, 0x02,                    //  Feature (Data,Var,Abs)             166
# 0x85, 0x80,                    //  Report ID (128)                    168
# 0x09, 0x28,                    //  Usage (Vendor Usage 0x28)          170
# 0x95, 0x3f,                    //  Report Count (63)                  172
# 0xb1, 0x02,                    //  Feature (Data,Var,Abs)             174
# 0x85, 0x81,                    //  Report ID (129)                    176
# 0x09, 0x29,                    //  Usage (Vendor Usage 0x29)          178
# 0x95, 0x3f,                    //  Report Count (63)                  180
# 0xb1, 0x02,                    //  Feature (Data,Var,Abs)             182
# 0x85, 0x82,                    //  Report ID (130)                    184
# 0x09, 0x2a,                    //  Usage (Vendor Usage 0x2a)          186
# 0x95, 0x09,                    //  Report Count (9)                   188
# 0xb1, 0x02,                    //  Feature (Data,Var,Abs)             190
# 0x85, 0x83,                    //  Report ID (131)                    192
# 0x09, 0x2b,                    //  Usage (Vendor Usage 0x2b)          194
# 0x95, 0x3f,                    //  Report Count (63)                  196
# 0xb1, 0x02,                    //  Feature (Data,Var,Abs)             198
# 0x85, 0x84,                    //  Report ID (132)                    200
# 0x09, 0x2c,                    //  Usage (Vendor Usage 0x2c)          202
# 0x95, 0x3f,                    //  Report Count (63)                  204
# 0xb1, 0x02,                    //  Feature (Data,Var,Abs)             206
# 0x85, 0x85,                    //  Report ID (133)                    208
# 0x09, 0x2d,                    //  Usage (Vendor Usage 0x2d)          210
# 0x95, 0x02,                    //  Report Count (2)                   212
# 0xb1, 0x02,                    //  Feature (Data,Var,Abs)             214
# 0x85, 0xa0,                    //  Report ID (160)                    216
# 0x09, 0x2e,                    //  Usage (Vendor Usage 0x2e)          218
# 0x95, 0x01,                    //  Report Count (1)                   220
# 0xb1, 0x02,                    //  Feature (Data,Var,Abs)             222
# 0x85, 0xe0,                    //  Report ID (224)                    224
# 0x09, 0x2f,                    //  Usage (Vendor Usage 0x2f)          226
# 0x95, 0x3f,                    //  Report Count (63)                  228
# 0xb1, 0x02,                    //  Feature (Data,Var,Abs)             230
# 0x85, 0xf0,                    //  Report ID (240)                    232
# 0x09, 0x30,                    //  Usage (Vendor Usage 0x30)          234
# 0x95, 0x3f,                    //  Report Count (63)                  236
# 0xb1, 0x02,                    //  Feature (Data,Var,Abs)             238
# 0x85, 0xf1,                    //  Report ID (241)                    240
# 0x09, 0x31,                    //  Usage (Vendor Usage 0x31)          242
# 0x95, 0x3f,                    //  Report Count (63)                  244
# 0xb1, 0x02,                    //  Feature (Data,Var,Abs)             246
# 0x85, 0xf2,                    //  Report ID (242)                    248
# 0x09, 0x32,                    //  Usage (Vendor Usage 0x32)          250
# 0x95, 0x0f,                    //  Report Count (15)                  252
# 0xb1, 0x02,                    //  Feature (Data,Var,Abs)             254
# 0x85, 0xf4,                    //  Report ID (244)                    256
# 0x09, 0x35,                    //  Usage (Vendor Usage 0x35)          258
# 0x95, 0x3f,                    //  Report Count (63)                  260
# 0xb1, 0x02,                    //  Feature (Data,Var,Abs)             262
# 0x85, 0xf5,                    //  Report ID (245)                    264
# 0x09, 0x36,                    //  Usage (Vendor Usage 0x36)          266
# 0x95, 0x03,                    //  Report Count (3)                   268
# 0xb1, 0x02,                    //  Feature (Data,Var,Abs)             270
# 0xc0,                          // End Collection                      272
# 
R: 273 05 01 09 05 a1 01 85 01 09 30 09 31 09 32 09 35 09 33 09 34 15 00 26 ff 00 75 08 95 06 81 02 06 00 ff 09 20 95 01 81 02 05 01 09 39 15 00 25 07 35 00 46 3b 01 65 14 75 04 95 01 81 42 65 00 05 09 19 01 29 0f 15 00 25 01 75 01 95 0f 81 02 06 00 ff 09 21 95 0d 81 02 06 00 ff 09 22 15 00 26 ff 00 75 08 95 34 81 02 85 02 09 23 95 2f 91 02 85 05 09 33 95 28 b1 02 85 08 09 34 95 2f b1 02 85 09 09 24 95 13 b1 02 85 0a 09 25 95 1a b1 02 85 20 09 26 95 3f b1 02 85 21 09 27 95 04 b1 02 85 22 09 40 95 3f b1 02 85 80 09 28 95 3f b1 02 85 81 09 29 95 3f b1 02 85 82 09 2a 95 09 b1 02 85 83 09 2b 95 3f b1 02 85 84 09 2c 95 3f b1 02 85 85 09 2d 95 02 b1 02 85 a0 09 2e 95 01 b1 02 85 e0 09 2f 95 3f b1 02 85 f0 09 30 95 3f b1 02 85 f1 09 31 95 3f b1 02 85 f2 09 32 95 0f b1 02 85 f4 09 35 95 3f b1 02 85 f5 09 36 95 03 b1 02 c0
N: Sony Interactive Entertainment DualSense Wireless Controller
I: 3 054c 0ce6
# ReportID: 1 / X:  128 | Y:  126 | Z:  129 | Rz:  127 | Rx:    0 | Ry:    0 | 0xff000020:  185 | Hat switch:   8 | Button: 0  0  0  0  0  0  0  0  0  0  0  0  0  0  0 | 0xff000021: 0 , 0 , 0 , 0 , 0 , 0 , 0 , 0 , 0 , 0 , 0 , 0 , 0 | 0xff000022:  150 ,  183 ,   42 ,  235 ,  246 ,  255 ,  238 ,  255 ,   10 ,    0 ,   51 ,    0 ,  107 ,   31 ,   63 ,    5 ,  253 ,  221 ,  250 ,  229 ,    9 ,  129 ,   50 ,  240 ,   60 ,  128 ,    0 ,    0 ,    0 ,  118 ,    9 ,    9 ,    0 ,    0 ,    0 ,    0 ,    0 ,  185 ,  243 ,  250 ,  229 ,   40 ,    8 ,    0 ,   65 ,  197 ,  116 ,  115 ,  149 ,   29 ,   80 ,  140 
E: 000000.000000 64 01 80 7e 81 7f 00 00 b9 08 00 00 00 96 b7 2a eb f6 ff ee ff 0a 00 33 00 6b 1f 3f 05 fd dd fa e5 09 81 32 f0 3c 80 00 00 00 76 09 09 00 00 00 00 00 b9 f3 fa e5 28 08 00 41 c5 74 73 95 1d 50 8c
# ReportID: 1 / X:  128 | Y:  126 | Z:  129 | Rz:  127 | Rx:    0 | Ry:    0 | 0xff000020:  186 | Hat switch:   8 | Button: 0  0  0  0  0  0  0  0  0  0  0  0  0  0  0 | 0xff000021: 0 , 0 , 0 , 0 , 0 , 0 , 0 , 0 , 0 , 0 , 0 , 0 , 0 | 0xff000022:  151 ,  183 ,   42 ,  235 ,  245 ,  255 ,  238 ,  255 ,   10 ,    0 ,   67 ,    0 ,  119 ,   31 ,   60 ,    5 ,  245 ,   12 ,  251 ,  229 ,    8 ,  129 ,   50 ,  240 ,   60 ,  128 ,    0 ,    0 ,    0 ,  118 ,    9 ,    9 ,    0 ,    0 ,    0 ,    0 ,    0 ,  153 ,   34 ,  251 ,  229 ,   40 ,    8 ,    0 ,   61 ,   49 ,   13 ,  167 ,  181 ,  151 ,   87 ,   49 
E: 000000.003313 64 01 80 7e 81 7f 00 00 ba 08 00 00 00 97 b7 2a eb f5 ff ee ff 0a 00 43 00 77 1f 3c 05 f5 0c fb e5 08 81 32 f0 3c 80 00 00 00 76 09 09 00 00 00 00 00 99 22 fb e5 28 08 00 3d 31 0d a7 b5 97 57 31
# ReportID: 1 / X:  128 | Y:  126 | Z:  129 | Rz:  127 | Rx:    0 | Ry:    0 | 0xff000020:  187 | Hat switch:   8 | Button: 0  0  0  0  0  0  0  0  0  0  0  0  0  0  0 | 0xff000021: 0 , 0 , 0 , 0 , 0 , 0 , 0 , 0 , 0 , 0 , 0 , 0 , 0 | 0xff000022:  152 ,  183 ,   42 ,  235 ,  245 ,  255 ,  238 ,  255 ,    9 ,    0 ,   51 ,    0 ,   39 ,   31 ,   60 ,    5 ,  232 ,   59 ,  251 ,  229 ,    9 ,  129 ,   50 ,  240 ,   60 ,  128 ,    0 ,    0 ,    0 ,  118 ,    9 ,    9 ,    0 ,    0 ,    0 ,    0 ,    0 ,  121 ,   81 ,  251 ,  229 ,   40 ,    8 ,    0 ,   85 ,  159 ,   65 ,  134 ,  128 ,   73 ,  116 ,  211 
E: 000000.006430 64 01 80 7e 81 7f 00 00 bb 08 00 00 00 98 b7 2a eb f5 ff ee ff 09 00 33 00 27 1f 3c 05 e8 3b fb e5 09 81 32 f0 3c 80 00 00 00 76 09 09 00 00 00 00 00 79 51 fb e5 28 08 00 55 9f 41 86 80 49 74 d3
# ReportID: 1 / X:  128 | Y:  126 | Z:  129 | Rz:  127 | Rx:    0 | Ry:    0 | 0xff000020:  188 | Hat switch:   8 | Button: 0  0  0  0  0  0  0  0  0  0  0  0  0  0  0 | 0xff000021: 0 , 0 , 0 , 0 , 0 , 0 , 0 , 0 , 0 , 0 , 0 , 0 , 0 | 0xff000022:  153 ,  183 ,   42 ,  235 ,  247 ,  255 ,  238 ,  255 ,   10 ,    0 ,   42 ,    0 ,   36 ,   31 ,   52 ,    5 ,  214 ,  106 ,  251 ,  229 ,    9 ,  129 ,   50 ,  240 ,   60 ,  128 ,    0 ,    0 ,    0 ,  118 ,    9 ,    9 ,    0 ,    0 ,    0 ,    0 ,    0 ,   89 ,  128 ,  251 ,  229 ,   40 ,    8 ,    0 ,  231 ,   25 ,   47 ,  116 ,  152 ,   45 ,   76 ,   78 
E: 000000.009770 64 01 80 7e 81 7f 00 00 bc 08 00 00 00 99 b7 2a eb f7 ff ee ff 0a 00 2a 00 24 1f 34 05 d6 6a fb e5 09 81 32 f0 3c 80 00 00 00 76 09 09 00 00 00 00 00 59 80 fb e5 28 08 00 e7 19 2f 74 98 2d 4c 4e
# ReportID: 1 / X:  128 | Y:  126 | Z:  129 | Rz:  127 | Rx:    0 | Ry:    0 | 0xff000020:  189 | Hat switch:   8 | Button: 0  0  0  0  0  0  0  0  0  0  0  0  0  0  0 | 0xff000021: 0 , 0 , 0 , 0 , 0 , 0 , 0 , 0 , 0 , 0 , 0 , 0 , 0 | 0xff000022:  154 ,  183 ,   42 ,  235 ,  246 ,  255 ,  238 ,  255 ,   11 ,    0 ,   57 ,    0 ,  118 ,   31 ,   64 ,    5 ,  201 ,  153 ,  251 ,  229 ,    8 ,  129 ,   50 ,  240 ,   60 ,  128 ,    0 ,    0 ,    0 ,  118 ,    9 ,    9 ,    0 ,    0 ,    0 ,    0 ,    0 ,   57 ,  175 ,  251 ,  229 ,   40 ,    8 ,    0 ,   40 ,  132 ,  195 ,  244 ,   77 ,  156 ,  238 ,  149 
E: 000000.014006 64 01 80 7e 81 7f 00 00 bd 08 00 00 00 9a b7 2a eb f6 ff ee ff 0b 00 39 00 76 1f 40 05 c9 99 fb e5 08 81 32 f0 3c 80 00 00 00 76 09 09 00 00 00 00 00 39 af fb e5 28 08 00 28 84 c3 f4 4d 9c ee 95
# ReportID: 1 / X:  128 | Y:  126 | Z:  129 | Rz:  127 | Rx:    0 | Ry:    0 | 0xff000020:  190 | Hat switch:   8 | Button: 0  0  0  0  0  0  0  0  0  0  0  0  0  0  0 | 0xff000021: 0 , 0 , 0 , 0 , 0 , 0 , 0 , 0 , 0 , 0 , 0 , 0 , 0 | 0xff000022:  155 ,  183 ,   42 ,  235 ,  246 ,  255 ,  239 ,  255 ,    9 ,    0 ,   59 ,    0 ,  117 ,   31 ,   76 ,    5 ,  188 ,  200 ,  251 ,  229 ,    8 ,  129 ,   50 ,  240 ,   60 ,  128 ,    0 ,    0 ,    0 ,  118 ,    9 ,    9 ,    0 ,    0 ,    0 ,    0 ,    0 ,   25 ,  222 ,  251 ,  229 ,   40 ,    8 ,    0 ,  144 ,    7 ,  116 ,  176 ,  142 ,  232 ,  167 ,  156 
E: 000000.018162 64 01 80 7e 81 7f 00 00 be 08 00 00 00 9b b7 2a eb f6 ff ef ff 09 00 3b 00 75 1f 4c 05 bc c8 fb e5 08 81 32 f0 3c 80 00 00 00 76 09 09 00 00 00 00 00 19 de fb e5 28 08 00 90 07 74 b0 8e e8 a7 9c
# ReportID: 1 / X:  128 | Y:  126 | Z:  129 | Rz:  127 | Rx:    0 | Ry:    0 | 0xff000020:  191 | Hat switch:   8 | Button: 0  0  0  0  0  0  0  0  0  0  0  0  0  0  0 | 0xff000021: 0 , 0 , 0 , 0 , 0 , 0 , 0 , 0 , 0 , 0 , 0 , 0 , 0 | 0xff000022:  156 ,  183 ,   42 ,  235 ,  245 ,  255 ,  239 ,  255 ,   11 ,    0 ,   48 ,    0 ,   90 ,   31 ,   61 ,    5 ,  176 ,  247 ,  251 ,  229 ,    8 ,  129 ,   50 ,  240 ,   60 ,  128 ,    0 ,    0 ,    0 ,  118 ,    9 ,    9 ,    0 ,    0 ,    0 ,    0 ,    0 ,  249 ,   12 ,  252 ,  229 ,   40 ,    8 ,    0 ,  141 ,  250 ,   13 ,   34 ,   45 ,  255 ,   74 ,  165 
E: 000000.021875 64 01 80 7e 81 7f 00 00 bf 08 00 00 00 9c b7 2a eb f5 ff ef ff 0b 00 30 00 5a 1f 3d 05 b0 f7 fb e5 08 81 32 f0 3c 80 00 00 00 76 09 09 00 00 00 00 00 f9 0c fc e5 28 08 00 8d fa 0d 22 2d ff 4a a5
# ReportID: 1 / X:  128 | Y:  126 | Z:  129 | Rz:  127 | Rx:    0 | Ry:    0 | 0xff000020:  192 | Hat switch:   8 | Button: 0  0  0  0  0  0  0  0  0  0  0  0  0  0  0 | 0xff000021: 0 , 0 , 0 , 0 , 0 , 0 , 0 , 0 , 0 , 0 , 0 , 0 , 0 | 0xff000022:  157 ,  183 ,   42 ,  235 ,  244 ,  255 ,  238 ,  255 ,   10 ,    0 ,   51 ,    0 ,   88 ,   31 ,   55 ,    5 ,  163 ,   38 ,  252 ,  229 ,    9 ,  129 ,   50 ,  240 ,   60 ,  128 ,    0 ,    0 ,    0 ,  118 ,    9 ,    9 ,    0 ,    0 ,    0 ,    0 ,    0 ,  217 ,   59 ,  252 ,  229 ,   40 ,    8 ,    0 ,   24 ,  160 ,  115 ,  127 ,   58 ,  229 ,   36 ,    8 
E: 000000.026232 64 01 80 7e 81 7f 00 00 c0 08 00 00 00 9d b7 2a eb f4 ff ee ff 0a 00 33 00 58 1f 37 05 a3 26 fc e5 09 81 32 f0 3c 80 00 00 00 76 09 09 00 00 00 00 00 d9 3b fc e5 28 08 00 18 a0 73 7f 3a e5 24 08
# ReportID: 1 / X:  128 | Y:  126 | Z:  129 | Rz:  127 | Rx:    0 | Ry:    0 | 0xff000020:  193 | Hat switch:   8 | Button: 0  0  0  0  0  0  0  0  0  0  0  0  0  0  0 | 0xff000021: 0 , 0 , 0 , 0 , 0 , 0 , 0 , 0 , 0 , 0 , 0 , 0 , 0 | 0xff000022:  158 ,  183 ,   42 ,  235 ,  245 ,  255 ,  239 ,  255 ,   10 ,    0 ,   44 ,    0 ,   74 ,   31 ,   62 ,    5 ,  150 ,   85 ,  252 ,  229 ,    8 ,  129 ,   50 ,  240 ,   60 ,  128 ,    0 ,    0 ,    0 ,  118 ,    9 ,    9 ,    0 ,    0 ,    0 ,    0 ,    0 ,  185 ,  106 ,  252 ,  229 ,   40 ,    8 ,    0 ,  197 ,   12 ,  139 ,  128 ,  159 ,   74 ,    4 ,  116 
E: 000000.030382 64 01 80 7e 81 7f 00 00 c1 08 00 00 00 9e b7 2a eb f5 ff ef ff 0a 00 2c 00 4a 1f 3e 05 96 55 fc e5 08 81 32 f0 3c 80 00 00 00 76 09 09 00 00 00 00 00 b9 6a fc e5 28 08 00 c5 0c 8b 80 9f 4a 04 74
# ReportID: 1 / X:  128 | Y:  126 | Z:  129 | Rz:  127 | Rx:    0 | Ry:    0 | 0xff000020:  194 | Hat switch:   8 | Button: 0  0  0  0  0  0  0  0  0  0  0  0  0  0  0 | 0xff000021: 0 , 0 , 0 , 0 , 0 , 0 , 0 , 0 , 0 , 0 , 0 , 0 , 0 | 0xff000022:  159 ,  183 ,   42 ,  235 ,  247 ,  255 ,  239 ,  255 ,   10 ,    0 ,   36 ,    0 ,   51 ,   31 ,   47 ,    5 ,  137 ,  132 ,  252 ,  229 ,    8 ,  129 ,   50 ,  240 ,   60 ,  128 ,    0 ,    0 ,    0 ,  118 ,    9 ,    9 ,    0 ,    0 ,    0 ,    0 ,    0 ,  153 ,  153 ,  252 ,  229 ,   40 ,    8 ,    0 ,  122 ,    9 ,  192 ,   10 ,   24 ,  229 ,  121 ,   85 
E: 000000.034560 64 01 80 7e 81 7f 00 00 c2 08 00 00 00 9f b7 2a eb f7 ff ef ff 0a 00 24 00 33 1f 2f 05 89 84 fc e5 08 81 32 f0 3c 80 00 00 00 76 09 09 00 00 00 00 00 99 99 fc e5 28 08 00 7a 09 c0 0a 18 e5 79 55
# ReportID: 1 / X:  128 | Y:  126 | Z:  129 | Rz:  127 | Rx:    0 | Ry:    0 | 0xff000020:  195 | Hat switch:   8 | Button: 0  0  0  0  0  0  0  0  0  0  0  0  0  0  0 | 0xff000021: 0 , 0 , 0 , 0 , 0 , 0 , 0 , 0 , 0 , 0 , 0 , 0 , 0 | 0xff000022:  160 ,  183 ,   42 ,  235 ,  247 ,  255 ,  238 ,  255 ,   10 ,    0 ,   46 ,    0 ,   74 ,   31 ,   53 ,    5 ,  124 ,  179 ,  252 ,  229 ,    8 ,  129 ,   50 ,  240 ,   60 ,  128 ,    0 ,    0 ,    0 ,  118 ,    9 ,    9 ,    0 ,    0 ,    0 ,    0 ,    0 ,  121 ,  200 ,  252 ,  229 ,   40 ,    8 ,    0 ,  129 ,  117 ,  231 ,  133 ,   18 ,  186 ,  103 ,  128 
E: 000000.038176 64 01 80 7e 81 7f 00 00 c3 08 00 00 00 a0 b7 2a eb f7 ff ee ff 0a 00 2e 00 4a 1f 35 05 7c b3 fc e5 08 81 32 f0 3c 80 00 00 00 76 09 09 00 00 00 00 00 79 c8 fc e5 28 08 00 81 75 e7 85 12 ba 67 80
# ReportID: 1 / X:  128 | Y:  126 | Z:  129 | Rz:  127 | Rx:    0 | Ry:    0 | 0xff000020:  196 | Hat switch:   8 | Button: 0  0  0  0  0  0  0  0  0  0  0  0  0  0  0 | 0xff000021: 0 , 0 , 0 , 0 , 0 , 0 , 0 , 0 , 0 , 0 , 0 , 0 , 0 | 0xff000022:  161 ,  183 ,   42 ,  235 ,  246 ,  255 ,  238 ,  255 ,   11 ,    0 ,   44 ,    0 ,  103 ,   31 ,   71 ,    5 ,  112 ,  226 ,  252 ,  229 ,    8 ,  129 ,   50 ,  240 ,   60 ,  128 ,    0 ,    0 ,    0 ,  118 ,    9 ,    9 ,    0 ,    0 ,    0 ,    0 ,    0 ,   89 ,  247 ,  252 ,  229 ,   40 ,    8 ,    0 ,   55 ,  228 ,   34 ,  217 ,  216 ,  255 ,  240 ,  150 
E: 000000.041898 64 01 80 7e 81 7f 00 00 c4 08 00 00 00 a1 b7 2a eb f6 ff ee ff 0b 00 2c 00 67 1f 47 05 70 e2 fc e5 08 81 32 f0 3c 80 00 00 00 76 09 09 00 00 00 00 00 59 f7 fc e5 28 08 00 37 e4 22 d9 d8 ff f0 96
# ReportID: 1 / X:  128 | Y:  126 | Z:  129 | Rz:  127 | Rx:    0 | Ry:    0 | 0xff000020:  197 | Hat switch:   8 | Button: 0  0  0  0  0  0  0  0  0  0  0  0  0  0  0 | 0xff000021: 0 , 0 , 0 , 0 , 0 , 0 , 0 , 0 , 0 , 0 , 0 , 0 , 0 | 0xff000022:  162 ,  183 ,   42 ,  235 ,  246 ,  255 ,  238 ,  255 ,   10 ,    0 ,   36 ,    0 ,   82 ,   31 ,   52 ,    5 ,   99 ,   17 ,  253 ,  229 ,    8 ,  129 ,   50 ,  240 ,   60 ,  128 ,    0 ,    0 ,    0 ,  118 ,    9 ,    9 ,    0 ,    0 ,    0 ,    0 ,    0 ,   57 ,   38 ,  253 ,  229 ,   40 ,    8 ,    0 ,  179 ,   77 ,  145 ,   30 ,    4 ,  163 ,   95 ,   44 
E: 000000.046043 64 01 80 7e 81 7f 00 00 c5 08 00 00 00 a2 b7 2a eb f6 ff ee ff 0a 00 24 00 52 1f 34 05 63 11 fd e5 08 81 32 f0 3c 80 00 00 00 76 09 09 00 00 00 00 00 39 26 fd e5 28 08 00 b3 4d 91 1e 04 a3 5f 2c
# ReportID: 1 / X:  128 | Y:  126 | Z:  129 | Rz:  127 | Rx:    0 | Ry:    0 | 0xff000020:  198 | Hat switch:   8 | Button: 0  0  0  0  0  0  0  0  0  0  0  0  0  0  0 | 0xff000021: 0 , 0 , 0 , 0 , 0 , 0 , 0 , 0 , 0 , 0 , 0 , 0 , 0 | 0xff000022:  163 ,  183 ,   42 ,  235 ,  246 ,  255 ,  238 ,  255 ,    9 ,    0 ,   51 ,    0 ,   95 ,   31 ,   58 ,    5 ,   86 ,   64 ,  253 ,  229 ,    8 ,  129 ,   50 ,  240 ,   60 ,  128 ,    0 ,    0 ,    0 ,  118 ,    9 ,    9 ,    0 ,    0 ,    0 ,    0 ,    0 ,   25 ,   85 ,  253 ,  229 ,   40 ,    8 ,    0 ,  144 ,  134 ,   50 ,  180 ,   56 ,  228 ,   37 ,  180 
E: 000000.050198 64 01 80 7e 81 7f 00 00 c6 08 00 00 00 a3 b7 2a eb f6 ff ee ff 09 00 33 00 5f 1f 3a 05 56 40 fd e5 08 81 32 f0 3c 80 00 00 00 76 09 09 00 00 00 00 00 19 55 fd e5 28 08 00 90 86 32 b4 38 e4 25 b4
# ReportID: 1 / X:  128 | Y:  126 | Z:  129 | Rz:  127 | Rx:    0 | Ry:    0 | 0xff000020:  199 | Hat switch:   8 | Button: 0  0  0  0  0  0  0  0  0  0  0  0  0  0  0 | 0xff000021: 0 , 0 , 0 , 0 , 0 , 0 , 0 , 0 , 0 , 0 , 0 , 0 , 0 | 0xff000022:  164 ,  183 ,   42 ,  235 ,  246 ,  255 ,  238 ,  255 ,   10 ,    0 ,   35 ,    0 ,   64 ,   31 ,   62 ,    5 ,   73 ,  111 ,  253 ,  229 ,    9 ,  129 ,   50 ,  240 ,   60 ,  128 ,    0 ,    0 ,    0 ,  118 ,    9 ,    9 ,    0 ,    0 ,    0 ,    0 ,    0 ,  249 ,  131 ,  253 ,  229 ,   40 ,    8 ,    0 ,   99 ,  228 ,  177 ,   96 ,   43 ,  194 ,  222 ,  216 
E: 000000.055025 64 01 80 7e 81 7f 00 00 c7 08 00 00 00 a4 b7 2a eb f6 ff ee ff 0a 00 23 00 40 1f 3e 05 49 6f fd e5 09 81 32 f0 3c 80 00 00 00 76 09 09 00 00 00 00 00 f9 83 fd e5 28 08 00 63 e4 b1 60 2b c2 de d8
# ReportID: 1 / X:  128 | Y:  126 | Z:  129 | Rz:  127 | Rx:    0 | Ry:    0 | 0xff000020:  200 | Hat switch:   8 | Button: 0  0  0  0  0  0  0  0  0  0  0  0  0  0  0 | 0xff000021: 0 , 0 , 0 , 0 , 0 , 0 , 0 , 0 , 0 , 0 , 0 , 0 , 0 | 0xff000022:  165 ,  183 ,   42 ,  235 ,  246 ,  255 ,  238 ,  255 ,   10 ,    0 ,   38 ,    0 ,   74 ,   31 ,   55 ,    5 ,   60 ,  158 ,  253 ,  229 ,    8 ,  129 ,   50 ,  240 ,   60 ,  128 ,    0 ,    0 ,    0 ,  118 ,    9 ,    9 ,    0 ,    0 ,    0 ,    0 ,    0 ,  217 ,  178 ,  253 ,  229 ,   40 ,    8 ,    0 ,  207 ,  201 ,  209 ,    9 ,   35 ,  226 ,  200 ,   87 
E: 000000.058655 64 01 80 7e 81 7f 00 00 c8 08 00 00 00 a5 b7 2a eb f6 ff ee ff 0a 00 26 00 4a 1f 37 05 3c 9e fd e5 08 81 32 f0 3c 80 00 00 00 76 09 09 00 00 00 00 00 d9 b2 fd e5 28 08 00 cf c9 d1 09 23 e2 c8 57
# ReportID: 1 / X:  128 | Y:  126 | Z:  129 | Rz:  127 | Rx:    0 | Ry:    0 | 0xff000020:  201 | Hat switch:   8 | Button: 0  0  0  0  0  0  0  0  0  0  0  0  0  0  0 | 0xff000021: 0 , 0 , 0 , 0 , 0 , 0 , 0 , 0 , 0 , 0 , 0 , 0 , 0 | 0xff000022:  166 ,  183 ,   42 ,  235 ,  247 ,  255 ,  237 ,  255 ,   10 ,    0 ,   55 ,    0 ,   62 ,   31 ,   57 ,    5 ,   47 ,  205 ,  253 ,  229 ,    9 ,  129 ,   50 ,  240 ,   60 ,  128 ,    0 ,    0 ,    0 ,  118 ,    9 ,    9 ,    0 ,    0 ,    0 ,    0 ,    0 ,  185 ,  225 ,  253 ,  229 ,   40 ,    8 ,    0 ,   33 ,   36 ,   60 ,  196 ,   66 ,  147 ,   46 ,   34 
E: 000000.061966 64 01 80 7e 81 7f 00 00 c9 08 00 00 00 a6 b7 2a eb f7 ff ed ff 0a 00 37 00 3e 1f 39 05 2f cd fd e5 09 81 32 f0 3c 80 00 00 00 76 09 09 00 00 00 00 00 b9 e1 fd e5 28 08 00 21 24 3c c4 42 93 2e 22
# ReportID: 1 / X:  128 | Y:  126 | Z:  129 | Rz:  127 | Rx:    0 | Ry:    0 | 0xff000020:  202 | Hat switch:   8 | Button: 0  0  0  0  0  0  0  0  0  0  0  0  0  0  0 | 0xff000021: 0 , 0 , 0 , 0 , 0 , 0 , 0 , 0 , 0 , 0 , 0 , 0 , 0 | 0xff000022:  167 ,  183 ,   42 ,  235 ,  248 ,  255 ,  237 ,  255 ,    9 ,    0 ,   34 ,    0 ,   76 ,   31 ,   78 ,    5 ,   35 ,  252 ,  253 ,  229 ,    8 ,  129 ,   50 ,  240 ,   60 ,  128 ,    0 ,    0 ,    0 ,  118 ,    9 ,    9 ,    0 ,    0 ,    0 ,    0 ,    0 ,  153 ,   16 ,  254 ,  229 ,   40 ,    8 ,    0 ,  164 ,   28 ,  189 ,  179 ,   72 ,   46 ,  143 ,  201 
E: 000000.066357 64 01 80 7e 81 7f 00 00 ca 08 00 00 00 a7 b7 2a eb f8 ff ed ff 09 00 22 00 4c 1f 4e 05 23 fc fd e5 08 81 32 f0 3c 80 00 00 00 76 09 09 00 00 00 00 00 99 10 fe e5 28 08 00 a4 1c bd b3 48 2e 8f c9
# ReportID: 1 / X:  128 | Y:  126 | Z:  129 | Rz:  127 | Rx:    0 | Ry:    0 | 0xff000020:  203 | Hat switch:   8 | Button: 0  0  0  0  0  0  0  0  0  0  0  0  0  0  0 | 0xff000021: 0 , 0 , 0 , 0 , 0 , 0 , 0 , 0 , 0 , 0 , 0 , 0 , 0 | 0xff000022:  168 ,  183 ,   42 ,  235 ,  246 ,  255 ,  238 ,  255 ,   10 ,    0 ,   42 ,    0 ,   96 ,   31 ,   72 ,    5 ,   22 ,   43 ,  254 ,  229 ,    8 ,  129 ,   50 ,  240 ,   60 ,  128 ,    0 ,    0 ,    0 ,  118 ,    9 ,    9 ,    0 ,    0 ,    0 ,    0 ,    0 ,  121 ,   63 ,  254 ,  229 ,   40 ,    8 ,    0 ,   21 ,   37 ,  204 ,  232 ,  230 ,  127 ,  159 ,  204 
E: 000000.071548 64 01 80 7e 81 7f 00 00 cb 08 00 00 00 a8 b7 2a eb f6 ff ee ff 0a 00 2a 00 60 1f 48 05 16 2b fe e5 08 81 32 f0 3c 80 00 00 00 76 09 09 00 00 00 00 00 79 3f fe e5 28 08 00 15 25 cc e8 e6 7f 9f cc
# ReportID: 1 / X:  128 | Y:  126 | Z:  129 | Rz:  127 | Rx:    0 | Ry:    0 | 0xff000020:  204 | Hat switch:   8 | Button: 0  0  0  0  0  0  0  0  0  0  0  0  0  0  0 | 0xff000021: 0 , 0 , 0 , 0 , 0 , 0 , 0 , 0 , 0 , 0 , 0 , 0 , 0 | 0xff000022:  169 ,  183 ,   42 ,  235 ,  246 ,  255 ,  238 ,  255 ,   10 ,    0 ,   47 ,    0 ,   85 ,   31 ,   65 ,    5 ,    9 ,   90 ,  254 ,  229 ,    9 ,  129 ,   50 ,  240 ,   60 ,  128 ,    0 ,    0 ,    0 ,  118 ,    9 ,    9 ,    0 ,    0 ,    0 ,    0 ,    0 ,   89 ,  110 ,  254 ,  229 ,   40 ,    8 ,    0 ,   95 ,  238 ,  162 ,  234 ,   77 ,  249 ,  236 ,  164 
E: 000000.075301 64 01 80 7e 81 7f 00 00 cc 08 00 00 00 a9 b7 2a eb f6 ff ee ff 0a 00 2f 00 55 1f 41 05 09 5a fe e5 09 81 32 f0 3c 80 00 00 00 76 09 09 00 00 00 00 00 59 6e fe e5 28 08 00 5f ee a2 ea 4d f9 ec a4
# ReportID: 1 / X:  128 | Y:  126 | Z:  129 | Rz:  127 | Rx:    0 | Ry:    0 | 0xff000020:  205 | Hat switch:   8 | Button: 0  0  0  0  0  0  0  0  0  0  0  0  0  0  0 | 0xff000021: 0 , 0 , 0 , 0 , 0 , 0 , 0 , 0 , 0 , 0 , 0 , 0 , 0 | 0xff000022:  170 ,  183 ,   42 ,  235 ,  246 ,  255 ,  237 ,  255 ,   10 ,    0 ,   38 ,    0 ,   72 ,   31 ,   85 ,    5 ,  252 ,  136 ,  254 ,  229 ,    8 ,  129 ,   50 ,  240 ,   60 ,  128 ,    0 ,    0 ,    0 ,  118 ,    9 ,    9 ,    0 ,    0 ,    0 ,    0 ,    0 ,   57 ,  157 ,  254 ,  229 ,   40 ,    8 ,    0 ,   25 ,   49 ,   34 ,  141 ,  216 ,    3 ,   62 ,   90 
E: 000000.079713 64 01 80 7e 81 7f 00 00 cd 08 00 00 00 aa b7 2a eb f6 ff ed ff 0a 00 26 00 48 1f 55 05 fc 88 fe e5 08 81 32 f0 3c 80 00 00 00 76 09 09 00 00 00 00 00 39 9d fe e5 28 08 00 19 31 22 8d d8 03 3e 5a
# ReportID: 1 / X:  128 | Y:  126 | Z:  129 | Rz:  127 | Rx:    0 | Ry:    0 | 0xff000020:  206 | Hat switch:   8 | Button: 0  0  0  0  0  0  0  0  0  0  0  0  0  0  0 | 0xff000021: 0 , 0 , 0 , 0 , 0 , 0 , 0 , 0 , 0 , 0 , 0 , 0 , 0 | 0xff000022:  171 ,  183 ,   42 ,  235 ,  247 ,  255 ,  237 ,  255 ,   11 ,    0 ,   36 ,    0 ,   50 ,   31 ,   79 ,    5 ,  239 ,  183 ,  254 ,  229 ,    9 ,  129 ,   50 ,  240 ,   60 ,  128 ,    0 ,    0 ,    0 ,  118 ,    9 ,    9 ,    0 ,    0 ,    0 ,    0 ,    0 ,   25 ,  204 ,  254 ,  229 ,   40 ,    8 ,    0 ,  106 ,   43 ,  241 ,   94 ,  201 ,  246 ,  248 ,    8 
E: 000000.082790 64 01 80 7e 81 7f 00 00 ce 08 00 00 00 ab b7 2a eb f7 ff ed ff 0b 00 24 00 32 1f 4f 05 ef b7 fe e5 09 81 32 f0 3c 80 00 00 00 76 09 09 00 00 00 00 00 19 cc fe e5 28 08 00 6a 2b f1 5e c9 f6 f8 08
# ReportID: 1 / X:  128 | Y:  126 | Z:  129 | Rz:  127 | Rx:    0 | Ry:    0 | 0xff000020:  207 | Hat switch:   8 | Button: 0  0  0  0  0  0  0  0  0  0  0  0  0  0  0 | 0xff000021: 0 , 0 , 0 , 0 , 0 , 0 , 0 , 0 , 0 , 0 , 0 , 0 , 0 | 0xff000022:  172 ,  183 ,   42 ,  235 ,  247 ,  255 ,  238 ,  255 ,   11 ,    0 ,   60 ,    0 ,   84 ,   31 ,   67 ,    5 ,  226 ,  230 ,  254 ,  229 ,    9 ,  129 ,   50 ,  240 ,   60 ,  128 ,    0 ,    0 ,    0 ,  118 ,    9 ,    9 ,    0 ,    0 ,    0 ,    0 ,    0 ,  249 ,  250 ,  254 ,  229 ,   40 ,    8 ,    0 ,  149 ,   24 ,   86 ,   13 ,  209 ,  154 ,  235 ,  132 
E: 000000.086458 64 01 80 7e 81 7f 00 00 cf 08 00 00 00 ac b7 2a eb f7 ff ee ff 0b 00 3c 00 54 1f 43 05 e2 e6 fe e5 09 81 32 f0 3c 80 00 00 00 76 09 09 00 00 00 00 00 f9 fa fe e5 28 08 00 95 18 56 0d d1 9a eb 84
# ReportID: 1 / X:  128 | Y:  126 | Z:  129 | Rz:  127 | Rx:    0 | Ry:    0 | 0xff000020:  208 | Hat switch:   8 | Button: 0  0  0  0  0  0  0  0  0  0  0  0  0  0  0 | 0xff000021: 0 , 0 , 0 , 0 , 0 , 0 , 0 , 0 , 0 , 0 , 0 , 0 , 0 | 0xff000022:  173 ,  183 ,   42 ,  235 ,  247 ,  255 ,  238 ,  255 ,   10 ,    0 ,   49 ,    0 ,   81 ,   31 ,   62 ,    5 ,  214 ,   21 ,  255 ,  229 ,    9 ,  129 ,   50 ,  240 ,   60 ,  128 ,    0 ,    0 ,    0 ,  118 ,    9 ,    9 ,    0 ,    0 ,    0 ,    0 ,    0 ,  217 ,   41 ,  255 ,  229 ,   40 ,    8 ,    0 ,   46 ,   82 ,   64 ,  100 ,  202 ,   68 ,  159 ,   27 
E: 000000.089903 64 01 80 7e 81 7f 00 00 d0 08 00 00 00 ad b7 2a eb f7 ff ee ff 0a 00 31 00 51 1f 3e 05 d6 15 ff e5 09 81 32 f0 3c 80 00 00 00 76 09 09 00 00 00 00 00 d9 29 ff e5 28 08 00 2e 52 40 64 ca 44 9f 1b
# ReportID: 1 / X:  128 | Y:  126 | Z:  129 | Rz:  127 | Rx:    0 | Ry:    0 | 0xff000020:  209 | Hat switch:   8 | Button: 0  0  0  0  0  0  0  0  0  0  0  0  0  0  0 | 0xff000021: 0 , 0 , 0 , 0 , 0 , 0 , 0 , 0 , 0 , 0 , 0 , 0 , 0 | 0xff000022:  174 ,  183 ,   42 ,  235 ,  246 ,  255 ,  238 ,  255 ,   11 ,    0 ,   46 ,    0 ,   46 ,   31 ,   69 ,    5 ,  201 ,   68 ,  255 ,  229 ,    9 ,  129 ,   50 ,  240 ,   60 ,  128 ,    0 ,    0 ,    0 ,  118 ,    9 ,    9 ,    0 ,    0 ,    0 ,    0 ,    0 ,  185 ,   88 ,  255 ,  229 ,   40 ,    8 ,    0 ,  220 ,  189 ,   92 ,  160 ,  151 ,  254 ,  210 ,  131 
E: 000000.093950 64 01 80 7e 81 7f 00 00 d1 08 00 00 00 ae b7 2a eb f6 ff ee ff 0b 00 2e 00 2e 1f 45 05 c9 44 ff e5 09 81 32 f0 3c 80 00 00 00 76 09 09 00 00 00 00 00 b9 58 ff e5 28 08 00 dc bd 5c a0 97 fe d2 83
# ReportID: 1 / X:  128 | Y:  126 | Z:  129 | Rz:  127 | Rx:    0 | Ry:    0 | 0xff000020:  210 | Hat switch:   8 | Button: 0  0  0  0  0  0  0  0  0  0  0  0  0  0  0 | 0xff000021: 0 , 0 , 0 , 0 , 0 , 0 , 0 , 0 , 0 , 0 , 0 , 0 , 0 | 0xff000022:  175 ,  183 ,   42 ,  235 ,  247 ,  255 ,  238 ,  255 ,   10 ,    0 ,   56 ,    0 ,   70 ,   31 ,   61 ,    5 ,  188 ,  115 ,  255 ,  229 ,    9 ,  129 ,   50 ,  240 ,   60 ,  128 ,    0 ,    0 ,    0 ,  118 ,    9 ,    9 ,    0 ,    0 ,    0 ,    0 ,    0 ,  153 ,  135 ,  255 ,  229 ,   40 ,    8 ,    0 ,  136 ,   55 ,  107 ,  138 ,   15 ,   15 ,  207 ,   98 
E: 000000.097914 64 01 80 7e 81 7f 00 00 d2 08 00 00 00 af b7 2a eb f7 ff ee ff 0a 00 38 00 46 1f 3d 05 bc 73 ff e5 09 81 32 f0 3c 80 00 00 00 76 09 09 00 00 00 00 00 99 87 ff e5 28 08 00 88 37 6b 8a 0f 0f cf 62
# ReportID: 1 / X:  128 | Y:  126 | Z:  129 | Rz:  127 | Rx:    0 | Ry:    0 | 0xff000020:  211 | Hat switch:   8 | Button: 0  0  0  0  0  0  0  0  0  0  0  0  0  0  0 | 0xff000021: 0 , 0 , 0 , 0 , 0 , 0 , 0 , 0 , 0 , 0 , 0 , 0 , 0 | 0xff000022:  176 ,  183 ,   42 ,  235 ,  247 ,  255 ,  239 ,  255 ,   11 ,    0 ,   55 ,    0 ,   97 ,   31 ,   61 ,    5 ,  175 ,  162 ,  255 ,  229 ,    9 ,  129 ,   50 ,  240 ,   60 ,  128 ,    0 ,    0 ,    0 ,  118 ,    9 ,    9 ,    0 ,    0 ,    0 ,    0 ,    0 ,  121 ,  182 ,  255 ,  229 ,   40 ,    8 ,    0 ,   90 ,  126 ,  164 ,  134 ,  100 ,   95 ,   12 ,  186 
E: 000000.102252 64 01 80 7e 81 7f 00 00 d3 08 00 00 00 b0 b7 2a eb f7 ff ef ff 0b 00 37 00 61 1f 3d 05 af a2 ff e5 09 81 32 f0 3c 80 00 00 00 76 09 09 00 00 00 00 00 79 b6 ff e5 28 08 00 5a 7e a4 86 64 5f 0c ba
# ReportID: 1 / X:  128 | Y:  126 | Z:  129 | Rz:  127 | Rx:    0 | Ry:    0 | 0xff000020:  212 | Hat switch:   8 | Button: 0  0  0  0  0  0  0  0  0  0  0  0  0  0  0 | 0xff000021: 0 , 0 , 0 , 0 , 0 , 0 , 0 , 0 , 0 , 0 , 0 , 0 , 0 | 0xff000022:  177 ,  183 ,   42 ,  235 ,  247 ,  255 ,  238 ,  255 ,   10 ,    0 ,   61 ,    0 ,   80 ,   31 ,   62 ,    5 ,  162 ,  209 ,  255 ,  229 ,    9 ,  129 ,   50 ,  240 ,   60 ,  128 ,    0 ,    0 ,    0 ,  118 ,    9 ,    9 ,    0 ,    0 ,    0 ,    0 ,    0 ,   89 ,  229 ,  255 ,  229 ,   40 ,    8 ,    0 ,  212 ,   92 ,  219 ,   47 ,  118 ,  143 ,  174 ,  174 
E: 000000.106586 64 01 80 7e 81 7f 00 00 d4 08 00 00 00 b1 b7 2a eb f7 ff ee ff 0a 00 3d 00 50 1f 3e 05 a2 d1 ff e5 09 81 32 f0 3c 80 00 00 00 76 09 09 00 00 00 00 00 59 e5 ff e5 28 08 00 d4 5c db 2f 76 8f ae ae
# ReportID: 1 / X:  128 | Y:  126 | Z:  129 | Rz:  127 | Rx:    0 | Ry:    0 | 0xff000020:  213 | Hat switch:   8 | Button: 0  0  0  0  0  0  0  0  0  0  0  0  0  0  0 | 0xff000021: 0 , 0 , 0 , 0 , 0 , 0 , 0 , 0 , 0 , 0 , 0 , 0 , 0 | 0xff000022:  178 ,  183 ,   42 ,  235 ,  246 ,  255 ,  238 ,  255 ,   11 ,    0 ,   61 ,    0 ,   64 ,   31 ,   62 ,    5 ,  149 ,    0 ,    0 ,  230 ,    8 ,  129 ,   50 ,  240 ,   60 ,  128 ,    0 ,    0 ,    0 ,  118 ,    9 ,    9 ,    0 ,    0 ,    0 ,    0 ,    0 ,   57 ,   20 ,    0 ,  230 ,   40 ,    8 ,    0 ,  184 ,  224 ,  194 ,  160 ,  193 ,  207 ,  135 ,  104 
E: 000000.109879 64 01 80 7e 81 7f 00 00 d5 08 00 00 00 b2 b7 2a eb f6 ff ee ff 0b 00 3d 00 40 1f 3e 05 95 00 00 e6 08 81 32 f0 3c 80 00 00 00 76 09 09 00 00 00 00 00 39 14 00 e6 28 08 00 b8 e0 c2 a0 c1 cf 87 68
# ReportID: 1 / X:  128 | Y:  126 | Z:  129 | Rz:  127 | Rx:    0 | Ry:    0 | 0xff000020:  214 | Hat switch:   8 | Button: 0  0  0  0  0  0  0  0  0  0  0  0  0  0  0 | 0xff000021: 0 , 0 , 0 , 0 , 0 , 0 , 0 , 0 , 0 , 0 , 0 , 0 , 0 | 0xff000022:  179 ,  183 ,   42 ,  235 ,  247 ,  255 ,  238 ,  255 ,   10 ,    0 ,   65 ,    0 ,   99 ,   31 ,   53 ,    5 ,  137 ,   47 ,    0 ,  230 ,    8 ,  129 ,   50 ,  240 ,   60 ,  128 ,    0 ,    0 ,    0 ,  118 ,    9 ,    9 ,    0 ,    0 ,    0 ,    0 ,    0 ,   25 ,   67 ,    0 ,  230 ,   40 ,    8 ,    0 ,   83 ,  241 ,  219 ,  160 ,  107 ,  100 ,  228 ,  172 
E: 000000.113836 64 01 80 7e 81 7f 00 00 d6 08 00 00 00 b3 b7 2a eb f7 ff ee ff 0a 00 41 00 63 1f 35 05 89 2f 00 e6 08 81 32 f0 3c 80 00 00 00 76 09 09 00 00 00 00 00 19 43 00 e6 28 08 00 53 f1 db a0 6b 64 e4 ac
# ReportID: 1 / X:  128 | Y:  126 | Z:  129 | Rz:  127 | Rx:    0 | Ry:    0 | 0xff000020:  215 | Hat switch:   8 | Button: 0  0  0  0  0  0  0  0  0  0  0  0  0  0  0 | 0xff000021: 0 , 0 , 0 , 0 , 0 , 0 , 0 , 0 , 0 , 0 , 0 , 0 , 0 | 0xff000022:  180 ,  183 ,   42 ,  235 ,  246 ,  255 ,  239 ,  255 ,   10 ,    0 ,   63 ,    0 ,  106 ,   31 ,   60 ,    5 ,  124 ,   94 ,    0 ,  230 ,    9 ,  129 ,   50 ,  240 ,   60 ,  128 ,    0 ,    0 ,    0 ,  118 ,    9 ,    9 ,    0 ,    0 ,    0 ,    0 ,    0 ,  249 ,  113 ,    0 ,  230 ,   40 ,    8 ,    0 ,    1 ,   51 ,  166 ,  235 ,  237 ,  126 ,   97 ,  169 
E: 000000.119260 64 01 80 7e 81 7f 00 00 d7 08 00 00 00 b4 b7 2a eb f6 ff ef ff 0a 00 3f 00 6a 1f 3c 05 7c 5e 00 e6 09 81 32 f0 3c 80 00 00 00 76 09 09 00 00 00 00 00 f9 71 00 e6 28 08 00 01 33 a6 eb ed 7e 61 a9
# ReportID: 1 / X:  128 | Y:  126 | Z:  129 | Rz:  127 | Rx:    0 | Ry:    0 | 0xff000020:  216 | Hat switch:   8 | Button: 0  0  0  0  0  0  0  0  0  0  0  0  0  0  0 | 0xff000021: 0 , 0 , 0 , 0 , 0 , 0 , 0 , 0 , 0 , 0 , 0 , 0 , 0 | 0xff000022:  181 ,  183 ,   42 ,  235 ,  248 ,  255 ,  239 ,  255 ,   11 ,    0 ,   58 ,    0 ,   71 ,   31 ,   42 ,    5 ,  111 ,  141 ,    0 ,  230 ,    8 ,  129 ,   50 ,  240 ,   60 ,  128 ,    0 ,    0 ,    0 ,  118 ,    9 ,    9 ,    0 ,    0 ,    0 ,    0 ,    0 ,  217 ,  160 ,    0 ,  230 ,   40 ,    8 ,    0 ,  207 ,  197 ,  144 ,    4 ,  220 ,   41 ,    4 ,   98 
E: 000000.122306 64 01 80 7e 81 7f 00 00 d8 08 00 00 00 b5 b7 2a eb f8 ff ef ff 0b 00 3a 00 47 1f 2a 05 6f 8d 00 e6 08 81 32 f0 3c 80 00 00 00 76 09 09 00 00 00 00 00 d9 a0 00 e6 28 08 00 cf c5 90 04 dc 29 04 62
# ReportID: 1 / X:  128 | Y:  126 | Z:  129 | Rz:  127 | Rx:    0 | Ry:    0 | 0xff000020:  217 | Hat switch:   8 | Button: 0  0  0  0  0  0  0  0  0  0  0  0  0  0  0 | 0xff000021: 0 , 0 , 0 , 0 , 0 , 0 , 0 , 0 , 0 , 0 , 0 , 0 , 0 | 0xff000022:  182 ,  183 ,   42 ,  235 ,  247 ,  255 ,  238 ,  255 ,   10 ,    0 ,   55 ,    0 ,   66 ,   31 ,   39 ,    5 ,   98 ,  188 ,    0 ,  230 ,    8 ,  129 ,   50 ,  240 ,   60 ,  128 ,    0 ,    0 ,    0 ,  118 ,    9 ,    9 ,    0 ,    0 ,    0 ,    0 ,    0 ,  185 ,  207 ,    0 ,  230 ,   40 ,    8 ,    0 ,  146 ,   33 ,  202 ,   11 ,  151 ,  186 ,   56 ,   93 
E: 000000.127669 64 01 80 7e 81 7f 00 00 d9 08 00 00 00 b6 b7 2a eb f7 ff ee ff 0a 00 37 00 42 1f 27 05 62 bc 00 e6 08 81 32 f0 3c 80 00 00 00 76 09 09 00 00 00 00 00 b9 cf 00 e6 28 08 00 92 21 ca 0b 97 ba 38 5d
# ReportID: 1 / X:  128 | Y:  126 | Z:  129 | Rz:  127 | Rx:    0 | Ry:    0 | 0xff000020:  218 | Hat switch:   8 | Button: 0  0  0  0  0  0  0  0  0  0  0  0  0  0  0 | 0xff000021: 0 , 0 , 0 , 0 , 0 , 0 , 0 , 0 , 0 , 0 , 0 , 0 , 0 | 0xff000022:  183 ,  183 ,   42 ,  235 ,  247 ,  255 ,  238 ,  255 ,   10 ,    0 ,   58 ,    0 ,   99 ,   31 ,   48 ,    5 ,   85 ,  235 ,    0 ,  230 ,    8 ,  129 ,   50 ,  240 ,   60 ,  128 ,    0 ,    0 ,    0 ,  118 ,    9 ,    9 ,    0 ,    0 ,    0 ,    0 ,    0 ,  153 ,  254 ,    0 ,  230 ,   40 ,    8 ,    0 ,  224 ,  184 ,  182 ,    1 ,  119 ,  122 ,  219 ,  107 
E: 000000.131316 64 01 80 7e 81 7f 00 00 da 08 00 00 00 b7 b7 2a eb f7 ff ee ff 0a 00 3a 00 63 1f 30 05 55 eb 00 e6 08 81 32 f0 3c 80 00 00 00 76 09 09 00 00 00 00 00 99 fe 00 e6 28 08 00 e0 b8 b6 01 77 7a db 6b
# ReportID: 1 / X:  128 | Y:  126 | Z:  129 | Rz:  127 | Rx:    0 | Ry:    0 | 0xff000020:  219 | Hat switch:   8 | Button: 0  0  0  0  0  0  0  0  0  0  0  0  0  0  0 | 0xff000021: 0 , 0 , 0 , 0 , 0 , 0 , 0 , 0 , 0 , 0 , 0 , 0 , 0 | 0xff000022:  184 ,  183 ,   42 ,  235 ,  248 ,  255 ,  238 ,  255 ,    9 ,    0 ,   46 ,    0 ,   75 ,   31 ,   53 ,    5 ,   72 ,   26 ,    1 ,  230 ,    8 ,  129 ,   50 ,  240 ,   60 ,  128 ,    0 ,    0 ,    0 ,  118 ,    9 ,    9 ,    0 ,    0 ,    0 ,    0 ,    0 ,  121 ,   45 ,    1 ,  230 ,   40 ,    8 ,    0 ,    4 ,   70 ,  162 ,  153 ,   23 ,  128 ,   11 ,  187 
E: 000000.134770 64 01 80 7e 81 7f 00 00 db 08 00 00 00 b8 b7 2a eb f8 ff ee ff 09 00 2e 00 4b 1f 35 05 48 1a 01 e6 08 81 32 f0 3c 80 00 00 00 76 09 09 00 00 00 00 00 79 2d 01 e6 28 08 00 04 46 a2 99 17 80 0b bb
# ReportID: 1 / X:  128 | Y:  126 | Z:  129 | Rz:  127 | Rx:    0 | Ry:    0 | 0xff000020:  220 | Hat switch:   8 | Button: 0  0  0  0  0  0  0  0  0  0  0  0  0  0  0 | 0xff000021: 0 , 0 , 0 , 0 , 0 , 0 , 0 , 0 , 0 , 0 , 0 , 0 , 0 | 0xff000022:  185 ,  183 ,   42 ,  235 ,  247 ,  255 ,  238 ,  255 ,   10 ,    0 ,   50 ,    0 ,   77 ,   31 ,   49 ,    5 ,   60 ,   73 ,    1 ,  230 ,    9 ,  129 ,   50 ,  240 ,   60 ,  128 ,    0 ,    0 ,    0 ,  118 ,    9 ,    9 ,    0 ,    0 ,    0 ,    0 ,    0 ,   89 ,   92 ,    1 ,  230 ,   40 ,    8 ,    0 ,   91 ,   98 ,  194 ,  130 ,  165 ,    8 ,   30 ,  167 
E: 000000.137825 64 01 80 7e 81 7f 00 00 dc 08 00 00 00 b9 b7 2a eb f7 ff ee ff 0a 00 32 00 4d 1f 31 05 3c 49 01 e6 09 81 32 f0 3c 80 00 00 00 76 09 09 00 00 00 00 00 59 5c 01 e6 28 08 00 5b 62 c2 82 a5 08 1e a7
# ReportID: 1 / X:  128 | Y:  126 | Z:  129 | Rz:  127 | Rx:    0 | Ry:    0 | 0xff000020:  221 | Hat switch:   8 | Button: 0  0  0  0  0  0  0  0  0  0  0  0  0  0  0 | 0xff000021: 0 , 0 , 0 , 0 , 0 , 0 , 0 , 0 , 0 , 0 , 0 , 0 , 0 | 0xff000022:  186 ,  183 ,   42 ,  235 ,  246 ,  255 ,  239 ,  255 ,   10 ,    0 ,   50 ,    0 ,   92 ,   31 ,   51 ,    5 ,   47 ,  120 ,    1 ,  230 ,    8 ,  129 ,   50 ,  240 ,   60 ,  128 ,    0 ,    0 ,    0 ,  118 ,    9 ,    9 ,    0 ,    0 ,    0 ,    0 ,    0 ,   57 ,  139 ,    1 ,  230 ,   40 ,    8 ,    0 ,   61 ,   18 ,  126 ,   15 ,   78 ,   92 ,  165 ,  218 
E: 000000.141878 64 01 80 7e 81 7f 00 00 dd 08 00 00 00 ba b7 2a eb f6 ff ef ff 0a 00 32 00 5c 1f 33 05 2f 78 01 e6 08 81 32 f0 3c 80 00 00 00 76 09 09 00 00 00 00 00 39 8b 01 e6 28 08 00 3d 12 7e 0f 4e 5c a5 da
# ReportID: 1 / X:  128 | Y:  126 | Z:  129 | Rz:  127 | Rx:    0 | Ry:    0 | 0xff000020:  222 | Hat switch:   8 | Button: 0  0  0  0  0  0  0  0  0  0  0  0  0  0  0 | 0xff000021: 0 , 0 , 0 , 0 , 0 , 0 , 0 , 0 , 0 , 0 , 0 , 0 , 0 | 0xff000022:  187 ,  183 ,   42 ,  235 ,  247 ,  255 ,  238 ,  255 ,   10 ,    0 ,   57 ,    0 ,   93 ,   31 ,   46 ,    5 ,   34 ,  167 ,    1 ,  230 ,    8 ,  129 ,   50 ,  240 ,   60 ,  128 ,    0 ,    0 ,    0 ,  118 ,    9 ,    9 ,    0 ,    0 ,    0 ,    0 ,    0 ,   25 ,  186 ,    1 ,  230 ,   40 ,    8 ,    0 ,   67 ,  161 ,   85 ,  116 ,  150 ,   69 ,   40 ,  132 
E: 000000.146303 64 01 80 7e 81 7f 00 00 de 08 00 00 00 bb b7 2a eb f7 ff ee ff 0a 00 39 00 5d 1f 2e 05 22 a7 01 e6 08 81 32 f0 3c 80 00 00 00 76 09 09 00 00 00 00 00 19 ba 01 e6 28 08 00 43 a1 55 74 96 45 28 84
# ReportID: 1 / X:  128 | Y:  126 | Z:  129 | Rz:  127 | Rx:    0 | Ry:    0 | 0xff000020:  223 | Hat switch:   8 | Button: 0  0  0  0  0  0  0  0  0  0  0  0  0  0  0 | 0xff000021: 0 , 0 , 0 , 0 , 0 , 0 , 0 , 0 , 0 , 0 , 0 , 0 , 0 | 0xff000022:  188 ,  183 ,   42 ,  235 ,  247 ,  255 ,  238 ,  255 ,   10 ,    0 ,   47 ,    0 ,   74 ,   31 ,   52 ,    5 ,   21 ,  214 ,    1 ,  230 ,    9 ,  129 ,   50 ,  240 ,   60 ,  128 ,    0 ,    0 ,    0 ,  118 ,    9 ,    9 ,    0 ,    0 ,    0 ,    0 ,    0 ,  249 ,  232 ,    1 ,  230 ,   40 ,    8 ,    0 ,  243 ,  196 ,  109 ,  132 ,  120 ,   58 ,   60 ,  172 
E: 000000.150058 64 01 80 7e 81 7f 00 00 df 08 00 00 00 bc b7 2a eb f7 ff ee ff 0a 00 2f 00 4a 1f 34 05 15 d6 01 e6 09 81 32 f0 3c 80 00 00 00 76 09 09 00 00 00 00 00 f9 e8 01 e6 28 08 00 f3 c4 6d 84 78 3a 3c ac
# ReportID: 1 / X:  128 | Y:  126 | Z:  129 | Rz:  127 | Rx:    0 | Ry:    0 | 0xff000020:  224 | Hat switch:   8 | Button: 0  0  0  0  0  0  0  0  0  0  0  0  0  0  0 | 0xff000021: 0 , 0 , 0 , 0 , 0 , 0 , 0 , 0 , 0 , 0 , 0 , 0 , 0 | 0xff000022:  189 ,  183 ,   42 ,  235 ,  247 ,  255 ,  238 ,  255 ,   10 ,    0 ,   47 ,    0 ,   84 ,   31 ,   59 ,    5 ,    8 ,    5 ,    2 ,  230 ,    8 ,  129 ,   50 ,  240 ,   60 ,  128 ,    0 ,    0 ,    0 ,  118 ,    9 ,    9 ,    0 ,    0 ,    0 ,    0 ,    0 ,  217 ,   23 ,    2 ,  230 ,   40 ,    8 ,    0 ,   46 ,   11 ,  114 ,  170 ,   91 ,  128 ,    8 ,  126 
E: 000000.153911 64 01 80 7e 81 7f 00 00 e0 08 00 00 00 bd b7 2a eb f7 ff ee ff 0a 00 2f 00 54 1f 3b 05 08 05 02 e6 08 81 32 f0 3c 80 00 00 00 76 09 09 00 00 00 00 00 d9 17 02 e6 28 08 00 2e 0b 72 aa 5b 80 08 7e
# ReportID: 1 / X:  128 | Y:  126 | Z:  129 | Rz:  127 | Rx:    0 | Ry:    0 | 0xff000020:  225 | Hat switch:   8 | Button: 0  0  0  0  0  0  0  0  0  0  0  0  0  0  0 | 0xff000021: 0 , 0 , 0 , 0 , 0 , 0 , 0 , 0 , 0 , 0 , 0 , 0 , 0 | 0xff000022:  190 ,  183 ,   42 ,  235 ,  247 ,  255 ,  239 ,  255 ,   11 ,    0 ,   48 ,    0 ,   83 ,   31 ,   55 ,    5 ,   29 ,   46 ,    2 ,  230 ,    8 ,  129 ,   50 ,  240 ,   60 ,  128 ,    0 ,    0 ,    0 ,  118 ,    9 ,    9 ,    0 ,    0 ,    0 ,    0 ,    0 ,  185 ,   70 ,    2 ,  230 ,   40 ,    8 ,    0 ,    2 ,  159 ,  114 ,   56 ,  183 ,  208 ,  145 ,   56 
E: 000000.159729 64 01 80 7e 81 7f 00 00 e1 08 00 00 00 be b7 2a eb f7 ff ef ff 0b 00 30 00 53 1f 37 05 1d 2e 02 e6 08 81 32 f0 3c 80 00 00 00 76 09 09 00 00 00 00 00 b9 46 02 e6 28 08 00 02 9f 72 38 b7 d0 91 38
# ReportID: 1 / X:  128 | Y:  126 | Z:  129 | Rz:  127 | Rx:    0 | Ry:    0 | 0xff000020:  226 | Hat switch:   8 | Button: 0  0  0  0  0  0  0  0  0  0  0  0  0  0  0 | 0xff000021: 0 , 0 , 0 , 0 , 0 , 0 , 0 , 0 , 0 , 0 , 0 , 0 , 0 | 0xff000022:  191 ,  183 ,   42 ,  235 ,  247 ,  255 ,  238 ,  255 ,   11 ,    0 ,   45 ,    0 ,   79 ,   31 ,   65 ,    5 ,   50 ,   87 ,    2 ,  230 ,    8 ,  129 ,   50 ,  240 ,   60 ,  128 ,    0 ,    0 ,    0 ,  118 ,    9 ,    9 ,    0 ,    0 ,    0 ,    0 ,    0 ,  153 ,  117 ,    2 ,  230 ,   40 ,    8 ,    0 ,  232 ,  209 ,   53 ,  219 ,  211 ,   62 ,  217 ,   85 
E: 000000.163533 64 01 80 7e 81 7f 00 00 e2 08 00 00 00 bf b7 2a eb f7 ff ee ff 0b 00 2d 00 4f 1f 41 05 32 57 02 e6 08 81 32 f0 3c 80 00 00 00 76 09 09 00 00 00 00 00 99 75 02 e6 28 08 00 e8 d1 35 db d3 3e d9 55
# ReportID: 1 / X:  128 | Y:  126 | Z:  129 | Rz:  127 | Rx:    0 | Ry:    0 | 0xff000020:  227 | Hat switch:   8 | Button: 0  0  0  0  0  0  0  0  0  0  0  0  0  0  0 | 0xff000021: 0 , 0 , 0 , 0 , 0 , 0 , 0 , 0 , 0 , 0 , 0 , 0 , 0 | 0xff000022:  192 ,  183 ,   42 ,  235 ,  248 ,  255 ,  239 ,  255 ,   10 ,    0 ,   56 ,    0 ,   84 ,   31 ,   72 ,    5 ,   37 ,  134 ,    2 ,  230 ,    8 ,  129 ,   50 ,  240 ,   60 ,  128 ,    0 ,    0 ,    0 ,  118 ,    9 ,    9 ,    0 ,    0 ,    0 ,    0 ,    0 ,  121 ,  164 ,    2 ,  230 ,   40 ,    8 ,    0 ,   79 ,  180 ,   44 ,   86 ,  191 ,  204 ,  248 ,   76 
E: 000000.167161 64 01 80 7e 81 7f 00 00 e3 08 00 00 00 c0 b7 2a eb f8 ff ef ff 0a 00 38 00 54 1f 48 05 25 86 02 e6 08 81 32 f0 3c 80 00 00 00 76 09 09 00 00 00 00 00 79 a4 02 e6 28 08 00 4f b4 2c 56 bf cc f8 4c
# ReportID: 1 / X:  128 | Y:  126 | Z:  129 | Rz:  127 | Rx:    0 | Ry:    0 | 0xff000020:  228 | Hat switch:   8 | Button: 0  0  0  0  0  0  0  0  0  0  0  0  0  0  0 | 0xff000021: 0 , 0 , 0 , 0 , 0 , 0 , 0 , 0 , 0 , 0 , 0 , 0 , 0 | 0xff000022:  193 ,  183 ,   42 ,  235 ,  247 ,  255 ,  238 ,  255 ,    9 ,    0 ,   46 ,    0 ,   83 ,   31 ,   65 ,    5 ,   24 ,  181 ,    2 ,  230 ,    8 ,  129 ,   50 ,  240 ,   60 ,  128 ,    0 ,    0 ,    0 ,  118 ,    9 ,    9 ,    0 ,    0 ,    0 ,    0 ,    0 ,   89 ,  211 ,    2 ,  230 ,   40 ,    8 ,    0 ,   90 ,  134 ,  170 ,   84 ,  198 ,  194 ,  253 ,  184 
E: 000000.171510 64 01 80 7e 81 7f 00 00 e4 08 00 00 00 c1 b7 2a eb f7 ff ee ff 09 00 2e 00 53 1f 41 05 18 b5 02 e6 08 81 32 f0 3c 80 00 00 00 76 09 09 00 00 00 00 00 59 d3 02 e6 28 08 00 5a 86 aa 54 c6 c2 fd b8
# ReportID: 1 / X:  128 | Y:  126 | Z:  129 | Rz:  127 | Rx:    0 | Ry:    0 | 0xff000020:  229 | Hat switch:   8 | Button: 0  0  0  0  0  0  0  0  0  0  0  0  0  0  0 | 0xff000021: 0 , 0 , 0 , 0 , 0 , 0 , 0 , 0 , 0 , 0 , 0 , 0 , 0 | 0xff000022:  194 ,  183 ,   42 ,  235 ,  246 ,  255 ,  239 ,  255 ,   11 ,    0 ,   47 ,    0 ,   83 ,   31 ,   61 ,    5 ,   11 ,  228 ,    2 ,  230 ,    8 ,  129 ,   50 ,  240 ,   60 ,  128 ,    0 ,    0 ,    0 ,  118 ,    9 ,    9 ,    0 ,    0 ,    0 ,    0 ,    0 ,   57 ,    2 ,    3 ,  230 ,   40 ,    8 ,    0 ,   50 ,  158 ,  180 ,   70 ,   81 ,   47 ,   91 ,  110 
E: 000000.175449 64 01 80 7e 81 7f 00 00 e5 08 00 00 00 c2 b7 2a eb f6 ff ef ff 0b 00 2f 00 53 1f 3d 05 0b e4 02 e6 08 81 32 f0 3c 80 00 00 00 76 09 09 00 00 00 00 00 39 02 03 e6 28 08 00 32 9e b4 46 51 2f 5b 6e
# ReportID: 1 / X:  128 | Y:  126 | Z:  129 | Rz:  127 | Rx:    0 | Ry:    0 | 0xff000020:  230 | Hat switch:   8 | Button: 0  0  0  0  0  0  0  0  0  0  0  0  0  0  0 | 0xff000021: 0 , 0 , 0 , 0 , 0 , 0 , 0 , 0 , 0 , 0 , 0 , 0 , 0 | 0xff000022:  195 ,  183 ,   42 ,  235 ,  248 ,  255 ,  238 ,  255 ,   10 ,    0 ,   45 ,    0 ,   80 ,   31 ,   59 ,    5 ,  254 ,   18 ,    3 ,  230 ,    8 ,  129 ,   50 ,  240 ,   60 ,  128 ,    0 ,    0 ,    0 ,  118 ,    9 ,    9 ,    0 ,    0 ,    0 ,    0 ,    0 ,   25 ,   49 ,    3 ,  230 ,   40 ,    8 ,    0 ,  125 ,  246 ,   61 ,   66 ,   59 ,   66 ,  227 ,  121 
E: 000000.179312 64 01 80 7e 81 7f 00 00 e6 08 00 00 00 c3 b7 2a eb f8 ff ee ff 0a 00 2d 00 50 1f 3b 05 fe 12 03 e6 08 81 32 f0 3c 80 00 00 00 76 09 09 00 00 00 00 00 19 31 03 e6 28 08 00 7d f6 3d 42 3b 42 e3 79
# ReportID: 1 / X:  128 | Y:  126 | Z:  129 | Rz:  127 | Rx:    0 | Ry:    0 | 0xff000020:  231 | Hat switch:   8 | Button: 0  0  0  0  0  0  0  0  0  0  0  0  0  0  0 | 0xff000021: 0 , 0 , 0 , 0 , 0 , 0 , 0 , 0 , 0 , 0 , 0 , 0 , 0 | 0xff000022:  196 ,  183 ,   42 ,  235 ,  247 ,  255 ,  238 ,  255 ,   10 ,    0 ,   40 ,    0 ,   71 ,   31 ,   64 ,    5 ,  242 ,   65 ,    3 ,  230 ,    9 ,  129 ,   50 ,  240 ,   60 ,  128 ,    0 ,    0 ,    0 ,  118 ,    9 ,    9 ,    0 ,    0 ,    0 ,    0 ,    0 ,  249 ,   95 ,    3 ,  230 ,   40 ,    8 ,    0 ,  134 ,   23 ,  125 ,  170 ,   82 ,  118 ,  158 ,   55 
E: 000000.182708 64 01 80 7e 81 7f 00 00 e7 08 00 00 00 c4 b7 2a eb f7 ff ee ff 0a 00 28 00 47 1f 40 05 f2 41 03 e6 09 81 32 f0 3c 80 00 00 00 76 09 09 00 00 00 00 00 f9 5f 03 e6 28 08 00 86 17 7d aa 52 76 9e 37
# ReportID: 1 / X:  128 | Y:  126 | Z:  129 | Rz:  127 | Rx:    0 | Ry:    0 | 0xff000020:  232 | Hat switch:   8 | Button: 0  0  0  0  0  0  0  0  0  0  0  0  0  0  0 | 0xff000021: 0 , 0 , 0 , 0 , 0 , 0 , 0 , 0 , 0 , 0 , 0 , 0 , 0 | 0xff000022:  197 ,  183 ,   42 ,  235 ,  248 ,  255 ,  239 ,  255 ,   10 ,    0 ,   49 ,    0 ,   67 ,   31 ,   65 ,    5 ,  229 ,  112 ,    3 ,  230 ,    8 ,  129 ,   50 ,  240 ,   60 ,  128 ,    0 ,    0 ,    0 ,  118 ,    9 ,    9 ,    0 ,    0 ,    0 ,    0 ,    0 ,  217 ,  142 ,    3 ,  230 ,   40 ,    8 ,    0 ,  234 ,  250 ,   86 ,  123 ,  240 ,  218 ,   58 ,  189 
E: 000000.185893 64 01 80 7e 81 7f 00 00 e8 08 00 00 00 c5 b7 2a eb f8 ff ef ff 0a 00 31 00 43 1f 41 05 e5 70 03 e6 08 81 32 f0 3c 80 00 00 00 76 09 09 00 00 00 00 00 d9 8e 03 e6 28 08 00 ea fa 56 7b f0 da 3a bd
# ReportID: 1 / X:  128 | Y:  126 | Z:  129 | Rz:  127 | Rx:    0 | Ry:    0 | 0xff000020:  233 | Hat switch:   8 | Button: 0  0  0  0  0  0  0  0  0  0  0  0  0  0  0 | 0xff000021: 0 , 0 , 0 , 0 , 0 , 0 , 0 , 0 , 0 , 0 , 0 , 0 , 0 | 0xff000022:  198 ,  183 ,   42 ,  235 ,  248 ,  255 ,  239 ,  255 ,   10 ,    0 ,   49 ,    0 ,   77 ,   31 ,   64 ,    5 ,  216 ,  159 ,    3 ,  230 ,    8 ,  129 ,   50 ,  240 ,   60 ,  128 ,    0 ,    0 ,    0 ,  118 ,    9 ,    9 ,    0 ,    0 ,    0 ,    0 ,    0 ,  185 ,  189 ,    3 ,  230 ,   40 ,    8 ,    0 ,  187 ,   69 ,  249 ,  250 ,    8 ,   15 ,  203 ,   84 
E: 000000.190734 64 01 80 7e 81 7f 00 00 e9 08 00 00 00 c6 b7 2a eb f8 ff ef ff 0a 00 31 00 4d 1f 40 05 d8 9f 03 e6 08 81 32 f0 3c 80 00 00 00 76 09 09 00 00 00 00 00 b9 bd 03 e6 28 08 00 bb 45 f9 fa 08 0f cb 54
# ReportID: 1 / X:  128 | Y:  126 | Z:  129 | Rz:  127 | Rx:    0 | Ry:    0 | 0xff000020:  234 | Hat switch:   8 | Button: 0  0  0  0  0  0  0  0  0  0  0  0  0  0  0 | 0xff000021: 0 , 0 , 0 , 0 , 0 , 0 , 0 , 0 , 0 , 0 , 0 , 0 , 0 | 0xff000022:  199 ,  183 ,   42 ,  235 ,  249 ,  255 ,  238 ,  255 ,   10 ,    0 ,   55 ,    0 ,   92 ,   31 ,   69 ,    5 ,  203 ,  206 ,    3 ,  230 ,    8 ,  129 ,   50 ,  240 ,   60 ,  128 ,    0 ,    0 ,    0 ,  118 ,    9 ,    9 ,    0 ,    0 ,    0 ,    0 ,    0 ,  153 ,  236 ,    3 ,  230 ,   40 ,    8 ,    0 ,   58 ,  222 ,  202 ,  194 ,  194 ,   45 ,   12 ,  135 
E: 000000.194295 64 01 80 7e 81 7f 00 00 ea 08 00 00 00 c7 b7 2a eb f9 ff ee ff 0a 00 37 00 5c 1f 45 05 cb ce 03 e6 08 81 32 f0 3c 80 00 00 00 76 09 09 00 00 00 00 00 99 ec 03 e6 28 08 00 3a de ca c2 c2 2d 0c 87
# ReportID: 1 / X:  128 | Y:  126 | Z:  129 | Rz:  127 | Rx:    0 | Ry:    0 | 0xff000020:  235 | Hat switch:   8 | Button: 0  0  0  0  0  0  0  0  0  0  0  0  0  0  0 | 0xff000021: 0 , 0 , 0 , 0 , 0 , 0 , 0 , 0 , 0 , 0 , 0 , 0 , 0 | 0xff000022:  200 ,  183 ,   42 ,  235 ,  248 ,  255 ,  239 ,  255 ,   10 ,    0 ,   57 ,    0 ,   97 ,   31 ,   63 ,    5 ,  190 ,  253 ,    3 ,  230 ,    8 ,  129 ,   50 ,  240 ,   60 ,  128 ,    0 ,    0 ,    0 ,  118 ,    9 ,    9 ,    0 ,    0 ,    0 ,    0 ,    0 ,  121 ,   27 ,    4 ,  230 ,   40 ,    8 ,    0 ,   78 ,   59 ,   11 ,  186 ,   82 ,    4 ,    0 ,    5 
E: 000000.198603 64 01 80 7e 81 7f 00 00 eb 08 00 00 00 c8 b7 2a eb f8 ff ef ff 0a 00 39 00 61 1f 3f 05 be fd 03 e6 08 81 32 f0 3c 80 00 00 00 76 09 09 00 00 00 00 00 79 1b 04 e6 28 08 00 4e 3b 0b ba 52 04 00 05
# ReportID: 1 / X:  128 | Y:  126 | Z:  129 | Rz:  127 | Rx:    0 | Ry:    0 | 0xff000020:  236 | Hat switch:   8 | Button: 0  0  0  0  0  0  0  0  0  0  0  0  0  0  0 | 0xff000021: 0 , 0 , 0 , 0 , 0 , 0 , 0 , 0 , 0 , 0 , 0 , 0 , 0 | 0xff000022:  201 ,  183 ,   42 ,  235 ,  248 ,  255 ,  239 ,  255 ,   10 ,    0 ,   53 ,    0 ,   84 ,   31 ,   59 ,    5 ,  178 ,   44 ,    4 ,  230 ,    9 ,  129 ,   50 ,  240 ,   60 ,  128 ,    0 ,    0 ,    0 ,  118 ,    9 ,    9 ,    0 ,    0 ,    0 ,    0 ,    0 ,   89 ,   74 ,    4 ,  230 ,   40 ,    8 ,    0 ,    9 ,  211 ,  207 ,  183 ,  160 ,   29 ,  243 ,   19 
E: 000000.201984 64 01 80 7e 81 7f 00 00 ec 08 00 00 00 c9 b7 2a eb f8 ff ef ff 0a 00 35 00 54 1f 3b 05 b2 2c 04 e6 09 81 32 f0 3c 80 00 00 00 76 09 09 00 00 00 00 00 59 4a 04 e6 28 08 00 09 d3 cf b7 a0 1d f3 13
# ReportID: 1 / X:  128 | Y:  126 | Z:  129 | Rz:  127 | Rx:    0 | Ry:    0 | 0xff000020:  237 | Hat switch:   8 | Button: 0  0  0  0  0  0  0  0  0  0  0  0  0  0  0 | 0xff000021: 0 , 0 , 0 , 0 , 0 , 0 , 0 , 0 , 0 , 0 , 0 , 0 , 0 | 0xff000022:  202 ,  183 ,   42 ,  235 ,  248 ,  255 ,  239 ,  255 ,   10 ,    0 ,   44 ,    0 ,   82 ,   31 ,   54 ,    5 ,  165 ,   91 ,    4 ,  230 ,    9 ,  129 ,   50 ,  240 ,   60 ,  128 ,    0 ,    0 ,    0 ,  118 ,    9 ,    9 ,    0 ,    0 ,    0 ,    0 ,    0 ,   57 ,  121 ,    4 ,  230 ,   40 ,    8 ,    0 ,   28 ,  127 ,   70 ,  218 ,  170 ,   74 ,    4 ,   20 
E: 000000.207080 64 01 80 7e 81 7f 00 00 ed 08 00 00 00 ca b7 2a eb f8 ff ef ff 0a 00 2c 00 52 1f 36 05 a5 5b 04 e6 09 81 32 f0 3c 80 00 00 00 76 09 09 00 00 00 00 00 39 79 04 e6 28 08 00 1c 7f 46 da aa 4a 04 14
# ReportID: 1 / X:  128 | Y:  126 | Z:  129 | Rz:  127 | Rx:    0 | Ry:    0 | 0xff000020:  238 | Hat switch:   8 | Button: 0  0  0  0  0  0  0  0  0  0  0  0  0  0  0 | 0xff000021: 0 , 0 , 0 , 0 , 0 , 0 , 0 , 0 , 0 , 0 , 0 , 0 , 0 | 0xff000022:  203 ,  183 ,   42 ,  235 ,  248 ,  255 ,  238 ,  255 ,   10 ,    0 ,   51 ,    0 ,   83 ,   31 ,   51 ,    5 ,  152 ,  138 ,    4 ,  230 ,    9 ,  129 ,   50 ,  240 ,   60 ,  128 ,    0 ,    0 ,    0 ,  118 ,    9 ,    9 ,    0 ,    0 ,    0 ,    0 ,    0 ,   25 ,  168 ,    4 ,  230 ,   40 ,    8 ,    0 ,  201 ,   33 ,  219 ,  183 ,   58 ,  110 ,   59 ,   40 
E: 000000.210824 64 01 80 7e 81 7f 00 00 ee 08 00 00 00 cb b7 2a eb f8 ff ee ff 0a 00 33 00 53 1f 33 05 98 8a 04 e6 09 81 32 f0 3c 80 00 00 00 76 09 09 00 00 00 00 00 19 a8 04 e6 28 08 00 c9 21 db b7 3a 6e 3b 28
# ReportID: 1 / X:  128 | Y:  126 | Z:  129 | Rz:  127 | Rx:    0 | Ry:    0 | 0xff000020:  239 | Hat switch:   8 | Button: 0  0  0  0  0  0  0  0  0  0  0  0  0  0  0 | 0xff000021: 0 , 0 , 0 , 0 , 0 , 0 , 0 , 0 , 0 , 0 , 0 , 0 , 0 | 0xff000022:  204 ,  183 ,   42 ,  235 ,  247 ,  255 ,  238 ,  255 ,   11 ,    0 ,   54 ,    0 ,   81 ,   31 ,   51 ,    5 ,  139 ,  185 ,    4 ,  230 ,    8 ,  129 ,   50 ,  240 ,   60 ,  128 ,    0 ,    0 ,    0 ,  118 ,    9 ,    9 ,    0 ,    0 ,    0 ,    0 ,    0 ,  249 ,  214 ,    4 ,  230 ,   40 ,    8 ,    0 ,  133 ,  176 ,  107 ,  251 ,   67 ,  206 ,  226 ,  137 
E: 000000.214269 64 01 80 7e 81 7f 00 00 ef 08 00 00 00 cc b7 2a eb f7 ff ee ff 0b 00 36 00 51 1f 33 05 8b b9 04 e6 08 81 32 f0 3c 80 00 00 00 76 09 09 00 00 00 00 00 f9 d6 04 e6 28 08 00 85 b0 6b fb 43 ce e2 89
# ReportID: 1 / X:  128 | Y:  126 | Z:  129 | Rz:  127 | Rx:    0 | Ry:    0 | 0xff000020:  240 | Hat switch:   8 | Button: 0  0  0  0  0  0  0  0  0  0  0  0  0  0  0 | 0xff000021: 0 , 0 , 0 , 0 , 0 , 0 , 0 , 0 , 0 , 0 , 0 , 0 , 0 | 0xff000022:  205 ,  183 ,   42 ,  235 ,  247 ,  255 ,  238 ,  255 ,   10 ,    0 ,   49 ,    0 ,   70 ,   31 ,   53 ,    5 ,  126 ,  232 ,    4 ,  230 ,    8 ,  129 ,   50 ,  240 ,   60 ,  128 ,    0 ,    0 ,    0 ,  118 ,    9 ,    9 ,    0 ,    0 ,    0 ,    0 ,    0 ,  217 ,    5 ,    5 ,  230 ,   40 ,    8 ,    0 ,  175 ,   46 ,  244 ,  236 ,  184 ,  195 ,   37 ,  241 
E: 000000.217965 64 01 80 7e 81 7f 00 00 f0 08 00 00 00 cd b7 2a eb f7 ff ee ff 0a 00 31 00 46 1f 35 05 7e e8 04 e6 08 81 32 f0 3c 80 00 00 00 76 09 09 00 00 00 00 00 d9 05 05 e6 28 08 00 af 2e f4 ec b8 c3 25 f1
# ReportID: 1 / X:  128 | Y:  126 | Z:  129 | Rz:  127 | Rx:    0 | Ry:    0 | 0xff000020:  241 | Hat switch:   8 | Button: 0  0  0  0  0  0  0  0  0  0  0  0  0  0  0 | 0xff000021: 0 , 0 , 0 , 0 , 0 , 0 , 0 , 0 , 0 , 0 , 0 , 0 , 0 | 0xff000022:  206 ,  183 ,   42 ,  235 ,  248 ,  255 ,  239 ,  255 ,    9 ,    0 ,   49 ,    0 ,   92 ,   31 ,   52 ,    5 ,  113 ,   23 ,    5 ,  230 ,    8 ,  129 ,   50 ,  240 ,   60 ,  128 ,    0 ,    0 ,    0 ,  118 ,    9 ,    9 ,    0 ,    0 ,    0 ,    0 ,    0 ,  185 ,   52 ,    5 ,  230 ,   40 ,    8 ,    0 ,    4 ,  196 ,   16 ,  208 ,   66 ,   62 ,  145 ,  216 
E: 000000.221836 64 01 80 7e 81 7f 00 00 f1 08 00 00 00 ce b7 2a eb f8 ff ef ff 09 00 31 00 5c 1f 34 05 71 17 05 e6 08 81 32 f0 3c 80 00 00 00 76 09 09 00 00 00 00 00 b9 34 05 e6 28 08 00 04 c4 10 d0 42 3e 91 d8
# ReportID: 1 / X:  128 | Y:  126 | Z:  129 | Rz:  127 | Rx:    0 | Ry:    0 | 0xff000020:  242 | Hat switch:   8 | Button: 0  0  0  0  0  0  0  0  0  0  0  0  0  0  0 | 0xff000021: 0 , 0 , 0 , 0 , 0 , 0 , 0 , 0 , 0 , 0 , 0 , 0 , 0 | 0xff000022:  207 ,  183 ,   42 ,  235 ,  248 ,  255 ,  238 ,  255 ,    9 ,    0 ,   52 ,    0 ,   84 ,   31 ,   61 ,    5 ,  101 ,   70 ,    5 ,  230 ,    9 ,  129 ,   50 ,  240 ,   60 ,  128 ,    0 ,    0 ,    0 ,  118 ,    9 ,    9 ,    0 ,    0 ,    0 ,    0 ,    0 ,  153 ,   99 ,    5 ,  230 ,   40 ,    8 ,    0 ,  189 ,  191 ,  209 ,   28 ,  127 ,   83 ,  203 ,  207 
E: 000000.226698 64 01 80 7e 81 7f 00 00 f2 08 00 00 00 cf b7 2a eb f8 ff ee ff 09 00 34 00 54 1f 3d 05 65 46 05 e6 09 81 32 f0 3c 80 00 00 00 76 09 09 00 00 00 00 00 99 63 05 e6 28 08 00 bd bf d1 1c 7f 53 cb cf
# ReportID: 1 / X:  128 | Y:  126 | Z:  129 | Rz:  127 | Rx:    0 | Ry:    0 | 0xff000020:  243 | Hat switch:   8 | Button: 0  0  0  0  0  0  0  0  0  0  0  0  0  0  0 | 0xff000021: 0 , 0 , 0 , 0 , 0 , 0 , 0 , 0 , 0 , 0 , 0 , 0 , 0 | 0xff000022:  208 ,  183 ,   42 ,  235 ,  247 ,  255 ,  239 ,  255 ,    9 ,    0 ,   60 ,    0 ,   91 ,   31 ,   53 ,    5 ,   88 ,  117 ,    5 ,  230 ,    9 ,  129 ,   50 ,  240 ,   60 ,  128 ,    0 ,    0 ,    0 ,  118 ,    9 ,    9 ,    0 ,    0 ,    0 ,    0 ,    0 ,  121 ,  146 ,    5 ,  230 ,   40 ,    8 ,    0 ,  192 ,  191 ,  106 ,  184 ,   18 ,  103 ,  124 ,   58 
E: 000000.230523 64 01 80 7e 81 7f 00 00 f3 08 00 00 00 d0 b7 2a eb f7 ff ef ff 09 00 3c 00 5b 1f 35 05 58 75 05 e6 09 81 32 f0 3c 80 00 00 00 76 09 09 00 00 00 00 00 79 92 05 e6 28 08 00 c0 bf 6a b8 12 67 7c 3a
# ReportID: 1 / X:  128 | Y:  126 | Z:  129 | Rz:  127 | Rx:    0 | Ry:    0 | 0xff000020:  244 | Hat switch:   8 | Button: 0  0  0  0  0  0  0  0  0  0  0  0  0  0  0 | 0xff000021: 0 , 0 , 0 , 0 , 0 , 0 , 0 , 0 , 0 , 0 , 0 , 0 , 0 | 0xff000022:  209 ,  183 ,   42 ,  235 ,  248 ,  255 ,  238 ,  255 ,   10 ,    0 ,   49 ,    0 ,   94 ,   31 ,   55 ,    5 ,   75 ,  164 ,    5 ,  230 ,    8 ,  129 ,   50 ,  240 ,   60 ,  128 ,    0 ,    0 ,    0 ,  118 ,    9 ,    9 ,    0 ,    0 ,    0 ,    0 ,    0 ,   89 ,  193 ,    5 ,  230 ,   40 ,    8 ,    0 ,  149 ,   87 ,  135 ,  229 ,  151 ,  252 ,  188 ,  145 
E: 000000.233867 64 01 80 7e 81 7f 00 00 f4 08 00 00 00 d1 b7 2a eb f8 ff ee ff 0a 00 31 00 5e 1f 37 05 4b a4 05 e6 08 81 32 f0 3c 80 00 00 00 76 09 09 00 00 00 00 00 59 c1 05 e6 28 08 00 95 57 87 e5 97 fc bc 91
# ReportID: 1 / X:  128 | Y:  126 | Z:  129 | Rz:  127 | Rx:    0 | Ry:    0 | 0xff000020:  245 | Hat switch:   8 | Button: 0  0  0  0  0  0  0  0  0  0  0  0  0  0  0 | 0xff000021: 0 , 0 , 0 , 0 , 0 , 0 , 0 , 0 , 0 , 0 , 0 , 0 , 0 | 0xff000022:  210 ,  183 ,   42 ,  235 ,  249 ,  255 ,  238 ,  255 ,   10 ,    0 ,   55 ,    0 ,   81 ,   31 ,   49 ,    5 ,   62 ,  211 ,    5 ,  230 ,    9 ,  129 ,   50 ,  240 ,   60 ,  128 ,    0 ,    0 ,    0 ,  118 ,    9 ,    9 ,    0 ,    0 ,    0 ,    0 ,    0 ,   57 ,  240 ,    5 ,  230 ,   40 ,    8 ,    0 ,  122 ,  139 ,   58 ,  168 ,   31 ,   93 ,  139 ,  217 
E: 000000.239599 64 01 80 7e 81 7f 00 00 f5 08 00 00 00 d2 b7 2a eb f9 ff ee ff 0a 00 37 00 51 1f 31 05 3e d3 05 e6 09 81 32 f0 3c 80 00 00 00 76 09 09 00 00 00 00 00 39 f0 05 e6 28 08 00 7a 8b 3a a8 1f 5d 8b d9
# ReportID: 1 / X:  128 | Y:  126 | Z:  129 | Rz:  127 | Rx:    0 | Ry:    0 | 0xff000020:  246 | Hat switch:   8 | Button: 0  0  0  0  0  0  0  0  0  0  0  0  0  0  0 | 0xff000021: 0 , 0 , 0 , 0 , 0 , 0 , 0 , 0 , 0 , 0 , 0 , 0 , 0 | 0xff000022:  211 ,  183 ,   42 ,  235 ,  249 ,  255 ,  238 ,  255 ,    9 ,    0 ,   49 ,    0 ,   80 ,   31 ,   57 ,    5 ,   49 ,    2 ,    6 ,  230 ,    8 ,  129 ,   50 ,  240 ,   60 ,  128 ,    0 ,    0 ,    0 ,  118 ,    9 ,    9 ,    0 ,    0 ,    0 ,    0 ,    0 ,   25 ,   31 ,    6 ,  230 ,   40 ,    8 ,    0 ,  229 ,  248 ,  173 ,  105 ,  196 ,   72 ,   43 ,    5 
E: 000000.242576 64 01 80 7e 81 7f 00 00 f6 08 00 00 00 d3 b7 2a eb f9 ff ee ff 09 00 31 00 50 1f 39 05 31 02 06 e6 08 81 32 f0 3c 80 00 00 00 76 09 09 00 00 00 00 00 19 1f 06 e6 28 08 00 e5 f8 ad 69 c4 48 2b 05
# ReportID: 1 / X:  128 | Y:  126 | Z:  129 | Rz:  127 | Rx:    0 | Ry:    0 | 0xff000020:  247 | Hat switch:   8 | Button: 0  0  0  0  0  0  0  0  0  0  0  0  0  0  0 | 0xff000021: 0 , 0 , 0 , 0 , 0 , 0 , 0 , 0 , 0 , 0 , 0 , 0 , 0 | 0xff000022:  212 ,  183 ,   42 ,  235 ,  247 ,  255 ,  238 ,  255 ,   11 ,    0 ,   52 ,    0 ,   96 ,   31 ,   52 ,    5 ,   36 ,   49 ,    6 ,  230 ,    9 ,  129 ,   50 ,  240 ,   60 ,  128 ,    0 ,    0 ,    0 ,  118 ,    9 ,    9 ,    0 ,    0 ,    0 ,    0 ,    0 ,  249 ,   77 ,    6 ,  230 ,   40 ,    8 ,    0 ,  203 ,  159 ,  146 ,   19 ,  166 ,  146 ,  132 ,   74 
E: 000000.246256 64 01 80 7e 81 7f 00 00 f7 08 00 00 00 d4 b7 2a eb f7 ff ee ff 0b 00 34 00 60 1f 34 05 24 31 06 e6 09 81 32 f0 3c 80 00 00 00 76 09 09 00 00 00 00 00 f9 4d 06 e6 28 08 00 cb 9f 92 13 a6 92 84 4a
# ReportID: 1 / X:  128 | Y:  126 | Z:  129 | Rz:  127 | Rx:    0 | Ry:    0 | 0xff000020:  248 | Hat switch:   8 | Button: 0  0  0  0  0  0  0  0  0  0  0  0  0  0  0 | 0xff000021: 0 , 0 , 0 , 0 , 0 , 0 , 0 , 0 , 0 , 0 , 0 , 0 , 0 | 0xff000022:  213 ,  183 ,   42 ,  235 ,  247 ,  255 ,  238 ,  255 ,   10 ,    0 ,   55 ,    0 ,   89 ,   31 ,   68 ,    5 ,   24 ,   96 ,    6 ,  230 ,    8 ,  129 ,   50 ,  240 ,   60 ,  128 ,    0 ,    0 ,    0 ,  118 ,    9 ,    9 ,    0 ,    0 ,    0 ,    0 ,    0 ,  217 ,  124 ,    6 ,  230 ,   40 ,    8 ,    0 ,  229 ,  235 ,  180 ,  147 ,  241 ,  101 ,  226 ,   90 
E: 000000.250365 64 01 80 7e 81 7f 00 00 f8 08 00 00 00 d5 b7 2a eb f7 ff ee ff 0a 00 37 00 59 1f 44 05 18 60 06 e6 08 81 32 f0 3c 80 00 00 00 76 09 09 00 00 00 00 00 d9 7c 06 e6 28 08 00 e5 eb b4 93 f1 65 e2 5a
# ReportID: 1 / X:  128 | Y:  126 | Z:  129 | Rz:  127 | Rx:    0 | Ry:    0 | 0xff000020:  249 | Hat switch:   8 | Button: 0  0  0  0  0  0  0  0  0  0  0  0  0  0  0 | 0xff000021: 0 , 0 , 0 , 0 , 0 , 0 , 0 , 0 , 0 , 0 , 0 , 0 , 0 | 0xff000022:  214 ,  183 ,   42 ,  235 ,  247 ,  255 ,  239 ,  255 ,    9 ,    0 ,   47 ,    0 ,   93 ,   31 ,   51 ,    5 ,   11 ,  143 ,    6 ,  230 ,    8 ,  129 ,   50 ,  240 ,   60 ,  128 ,    0 ,    0 ,    0 ,  118 ,    9 ,    9 ,    0 ,    0 ,    0 ,    0 ,    0 ,  185 ,  171 ,    6 ,  230 ,   40 ,    8 ,    0 ,  117 ,  161 ,   10 ,  201 ,  234 ,   39 ,  109 ,  150 
E: 000000.254245 64 01 80 7e 81 7f 00 00 f9 08 00 00 00 d6 b7 2a eb f7 ff ef ff 09 00 2f 00 5d 1f 33 05 0b 8f 06 e6 08 81 32 f0 3c 80 00 00 00 76 09 09 00 00 00 00 00 b9 ab 06 e6 28 08 00 75 a1 0a c9 ea 27 6d 96
# ReportID: 1 / X:  128 | Y:  126 | Z:  129 | Rz:  127 | Rx:    0 | Ry:    0 | 0xff000020:  250 | Hat switch:   8 | Button: 0  0  0  0  0  0  0  0  0  0  0  0  0  0  0 | 0xff000021: 0 , 0 , 0 , 0 , 0 , 0 , 0 , 0 , 0 , 0 , 0 , 0 , 0 | 0xff000022:  215 ,  183 ,   42 ,  235 ,  248 ,  255 ,  238 ,  255 ,   10 ,    0 ,   50 ,    0 ,   95 ,   31 ,   55 ,    5 ,  254 ,  189 ,    6 ,  230 ,    9 ,  129 ,   50 ,  240 ,   60 ,  128 ,    0 ,    0 ,    0 ,  118 ,    9 ,    9 ,    0 ,    0 ,    0 ,    0 ,    0 ,  153 ,  218 ,    6 ,  230 ,   40 ,    8 ,    0 ,  242 ,   32 ,  150 ,   32 ,   81 ,  132 ,    8 ,  197 
E: 000000.258028 64 01 80 7e 81 7f 00 00 fa 08 00 00 00 d7 b7 2a eb f8 ff ee ff 0a 00 32 00 5f 1f 37 05 fe bd 06 e6 09 81 32 f0 3c 80 00 00 00 76 09 09 00 00 00 00 00 99 da 06 e6 28 08 00 f2 20 96 20 51 84 08 c5
# ReportID: 1 / X:  128 | Y:  126 | Z:  129 | Rz:  127 | Rx:    0 | Ry:    0 | 0xff000020:  251 | Hat switch:   8 | Button: 0  0  0  0  0  0  0  0  0  0  0  0  0  0  0 | 0xff000021: 0 , 0 , 0 , 0 , 0 , 0 , 0 , 0 , 0 , 0 , 0 , 0 , 0 | 0xff000022:  216 ,  183 ,   42 ,  235 ,  247 ,  255 ,  238 ,  255 ,   10 ,    0 ,   52 ,    0 ,   97 ,   31 ,   55 ,    5 ,  241 ,  236 ,    6 ,  230 ,    8 ,  129 ,   50 ,  240 ,   60 ,  128 ,    0 ,    0 ,    0 ,  118 ,    9 ,    9 ,    0 ,    0 ,    0 ,    0 ,    0 ,  121 ,    9 ,    7 ,  230 ,   40 ,    8 ,    0 ,   90 ,   81 ,  243 ,  245 ,   54 ,  183 ,  122 ,  129 
E: 000000.261818 64 01 80 7e 81 7f 00 00 fb 08 00 00 00 d8 b7 2a eb f7 ff ee ff 0a 00 34 00 61 1f 37 05 f1 ec 06 e6 08 81 32 f0 3c 80 00 00 00 76 09 09 00 00 00 00 00 79 09 07 e6 28 08 00 5a 51 f3 f5 36 b7 7a 81
# ReportID: 1 / X:  128 | Y:  126 | Z:  129 | Rz:  127 | Rx:    0 | Ry:    0 | 0xff000020:  252 | Hat switch:   8 | Button: 0  0  0  0  0  0  0  0  0  0  0  0  0  0  0 | 0xff000021: 0 , 0 , 0 , 0 , 0 , 0 , 0 , 0 , 0 , 0 , 0 , 0 , 0 | 0xff000022:  217 ,  183 ,   42 ,  235 ,  248 ,  255 ,  238 ,  255 ,   10 ,    0 ,   53 ,    0 ,   91 ,   31 ,   43 ,    5 ,  228 ,   27 ,    7 ,  230 ,    8 ,  129 ,   50 ,  240 ,   60 ,  128 ,    0 ,    0 ,    0 ,  118 ,    9 ,    9 ,    0 ,    0 ,    0 ,    0 ,    0 ,   89 ,   56 ,    7 ,  230 ,   40 ,    8 ,    0 ,  189 ,   58 ,  159 ,  192 ,  194 ,  157 ,   58 ,   28 
E: 000000.267579 64 01 80 7e 81 7f 00 00 fc 08 00 00 00 d9 b7 2a eb f8 ff ee ff 0a 00 35 00 5b 1f 2b 05 e4 1b 07 e6 08 81 32 f0 3c 80 00 00 00 76 09 09 00 00 00 00 00 59 38 07 e6 28 08 00 bd 3a 9f c0 c2 9d 3a 1c
# ReportID: 1 / X:  128 | Y:  126 | Z:  129 | Rz:  127 | Rx:    0 | Ry:    0 | 0xff000020:  253 | Hat switch:   8 | Button: 0  0  0  0  0  0  0  0  0  0  0  0  0  0  0 | 0xff000021: 0 , 0 , 0 , 0 , 0 , 0 , 0 , 0 , 0 , 0 , 0 , 0 , 0 | 0xff000022:  218 ,  183 ,   42 ,  235 ,  246 ,  255 ,  239 ,  255 ,   11 ,    0 ,   48 ,    0 ,  104 ,   31 ,   39 ,    5 ,  215 ,   74 ,    7 ,  230 ,    8 ,  129 ,   50 ,  240 ,   60 ,  128 ,    0 ,    0 ,    0 ,  118 ,    9 ,    9 ,    0 ,    0 ,    0 ,    0 ,    0 ,   57 ,  103 ,    7 ,  230 ,   40 ,    8 ,    0 ,   21 ,  217 ,   34 ,  190 ,  102 ,  139 ,   14 ,   12 
E: 000000.269766 64 01 80 7e 81 7f 00 00 fd 08 00 00 00 da b7 2a eb f6 ff ef ff 0b 00 30 00 68 1f 27 05 d7 4a 07 e6 08 81 32 f0 3c 80 00 00 00 76 09 09 00 00 00 00 00 39 67 07 e6 28 08 00 15 d9 22 be 66 8b 0e 0c
# ReportID: 1 / X:  128 | Y:  126 | Z:  129 | Rz:  127 | Rx:    0 | Ry:    0 | 0xff000020:  254 | Hat switch:   8 | Button: 0  0  0  0  0  0  0  0  0  0  0  0  0  0  0 | 0xff000021: 0 , 0 , 0 , 0 , 0 , 0 , 0 , 0 , 0 , 0 , 0 , 0 , 0 | 0xff000022:  219 ,  183 ,   42 ,  235 ,  246 ,  255 ,  239 ,  255 ,   11 ,    0 ,   43 ,    0 ,  104 ,   31 ,   37 ,    5 ,  203 ,  121 ,    7 ,  230 ,    8 ,  129 ,   50 ,  240 ,   60 ,  128 ,    0 ,    0 ,    0 ,  118 ,    9 ,    9 ,    0 ,    0 ,    0 ,    0 ,    0 ,   25 ,  150 ,    7 ,  230 ,   40 ,    8 ,    0 ,   78 ,  225 ,   16 ,  140 ,  217 ,  120 ,  170 ,  188 
E: 000000.273768 64 01 80 7e 81 7f 00 00 fe 08 00 00 00 db b7 2a eb f6 ff ef ff 0b 00 2b 00 68 1f 25 05 cb 79 07 e6 08 81 32 f0 3c 80 00 00 00 76 09 09 00 00 00 00 00 19 96 07 e6 28 08 00 4e e1 10 8c d9 78 aa bc
# ReportID: 1 / X:  128 | Y:  126 | Z:  129 | Rz:  127 | Rx:    0 | Ry:    0 | 0xff000020:  255 | Hat switch:   8 | Button: 0  0  0  0  0  0  0  0  0  0  0  0  0  0  0 | 0xff000021: 0 , 0 , 0 , 0 , 0 , 0 , 0 , 0 , 0 , 0 , 0 , 0 , 0 | 0xff000022:  220 ,  183 ,   42 ,  235 ,  248 ,  255 ,  238 ,  255 ,   11 ,    0 ,   51 ,    0 ,   80 ,   31 ,   40 ,    5 ,  190 ,  168 ,    7 ,  230 ,    9 ,  129 ,   50 ,  240 ,   60 ,  128 ,    0 ,    0 ,    0 ,  118 ,    9 ,    9 ,    0 ,    0 ,    0 ,    0 ,    0 ,  249 ,  196 ,    7 ,  230 ,   40 ,    8 ,    0 ,   17 ,   26 ,  156 ,  228 ,   67 ,   64 ,   75 ,  184 
E: 000000.277894 64 01 80 7e 81 7f 00 00 ff 08 00 00 00 dc b7 2a eb f8 ff ee ff 0b 00 33 00 50 1f 28 05 be a8 07 e6 09 81 32 f0 3c 80 00 00 00 76 09 09 00 00 00 00 00 f9 c4 07 e6 28 08 00 11 1a 9c e4 43 40 4b b8
# ReportID: 1 / X:  128 | Y:  126 | Z:  129 | Rz:  127 | Rx:    0 | Ry:    0 | 0xff000020:    0 | Hat switch:   8 | Button: 0  0  0  0  0  0  0  0  0  0  0  0  0  0  0 | 0xff000021: 0 , 0 , 0 , 0 , 0 , 0 , 0 , 0 , 0 , 0 , 0 , 0 , 0 | 0xff000022:  221 ,  183 ,   42 ,  235 ,  247 ,  255 ,  239 ,  255 ,    9 ,    0 ,   49 ,    0 ,   90 ,   31 ,   39 ,    5 ,  177 ,  215 ,    7 ,  230 ,    8 ,  129 ,   50 ,  240 ,   60 ,  128 ,    0 ,    0 ,    0 ,  118 ,    9 ,    9 ,    0 ,    0 ,    0 ,    0 ,    0 ,  217 ,  243 ,    7 ,  230 ,   40 ,    8 ,    0 ,  190 ,   84 ,    8 ,  163 ,  169 ,  145 ,  217 ,   63 
E: 000000.282324 64 01 80 7e 81 7f 00 00 00 08 00 00 00 dd b7 2a eb f7 ff ef ff 09 00 31 00 5a 1f 27 05 b1 d7 07 e6 08 81 32 f0 3c 80 00 00 00 76 09 09 00 00 00 00 00 d9 f3 07 e6 28 08 00 be 54 08 a3 a9 91 d9 3f
# ReportID: 1 / X:  128 | Y:  126 | Z:  129 | Rz:  127 | Rx:    0 | Ry:    0 | 0xff000020:    1 | Hat switch:   8 | Button: 0  0  0  0  0  0  0  0  0  0  0  0  0  0  0 | 0xff000021: 0 , 0 , 0 , 0 , 0 , 0 , 0 , 0 , 0 , 0 , 0 , 0 , 0 | 0xff000022:  222 ,  183 ,   42 ,  235 ,  247 ,  255 ,  238 ,  255 ,   10 ,    0 ,   45 ,    0 ,   95 ,   31 ,   44 ,    5 ,  164 ,    6 ,    8 ,  230 ,    9 ,  129 ,   50 ,  240 ,   60 ,  128 ,    0 ,    0 ,    0 ,  118 ,    9 ,    9 ,    0 ,    0 ,    0 ,    0 ,    0 ,  185 ,   34 ,    8 ,  230 ,   40 ,    8 ,    0 ,  248 ,  234 ,   19 ,   25 ,  169 ,   36 ,  183 ,   53 
E: 000000.287050 64 01 80 7e 81 7f 00 00 01 08 00 00 00 de b7 2a eb f7 ff ee ff 0a 00 2d 00 5f 1f 2c 05 a4 06 08 e6 09 81 32 f0 3c 80 00 00 00 76 09 09 00 00 00 00 00 b9 22 08 e6 28 08 00 f8 ea 13 19 a9 24 b7 35
# ReportID: 1 / X:  128 | Y:  126 | Z:  129 | Rz:  127 | Rx:    0 | Ry:    0 | 0xff000020:    2 | Hat switch:   8 | Button: 0  0  0  0  0  0  0  0  0  0  0  0  0  0  0 | 0xff000021: 0 , 0 , 0 , 0 , 0 , 0 , 0 , 0 , 0 , 0 , 0 , 0 , 0 | 0xff000022:  223 ,  183 ,   42 ,  235 ,  246 ,  255 ,  239 ,  255 ,   10 ,    0 ,   53 ,    0 ,   92 ,   31 ,   48 ,    5 ,  151 ,   53 ,    8 ,  230 ,    8 ,  129 ,   50 ,  240 ,   60 ,  128 ,    0 ,    0 ,    0 ,  118 ,    9 ,    9 ,    0 ,    0 ,    0 ,    0 ,    0 ,  153 ,   81 ,    8 ,  230 ,   40 ,    8 ,    0 ,   52 ,  194 ,  238 ,  169 ,   81 ,  148 ,   45 ,  140 
E: 000000.289963 64 01 80 7e 81 7f 00 00 02 08 00 00 00 df b7 2a eb f6 ff ef ff 0a 00 35 00 5c 1f 30 05 97 35 08 e6 08 81 32 f0 3c 80 00 00 00 76 09 09 00 00 00 00 00 99 51 08 e6 28 08 00 34 c2 ee a9 51 94 2d 8c
# ReportID: 1 / X:  128 | Y:  126 | Z:  129 | Rz:  127 | Rx:    0 | Ry:    0 | 0xff000020:    3 | Hat switch:   8 | Button: 0  0  0  0  0  0  0  0  0  0  0  0  0  0  0 | 0xff000021: 0 , 0 , 0 , 0 , 0 , 0 , 0 , 0 , 0 , 0 , 0 , 0 , 0 | 0xff000022:  224 ,  183 ,   42 ,  235 ,  246 ,  255 ,  238 ,  255 ,   10 ,    0 ,   50 ,    0 ,   92 ,   31 ,   41 ,    5 ,  138 ,  100 ,    8 ,  230 ,    8 ,  129 ,   50 ,  240 ,   60 ,  128 ,    0 ,    0 ,    0 ,  118 ,    9 ,    9 ,    0 ,    0 ,    0 ,    0 ,    0 ,  121 ,  128 ,    8 ,  230 ,   40 ,    8 ,    0 ,  195 ,   55 ,  167 ,  114 ,   27 ,    0 ,  178 ,   80 
E: 000000.294114 64 01 80 7e 81 7f 00 00 03 08 00 00 00 e0 b7 2a eb f6 ff ee ff 0a 00 32 00 5c 1f 29 05 8a 64 08 e6 08 81 32 f0 3c 80 00 00 00 76 09 09 00 00 00 00 00 79 80 08 e6 28 08 00 c3 37 a7 72 1b 00 b2 50
# ReportID: 1 / X:  128 | Y:  126 | Z:  129 | Rz:  127 | Rx:    0 | Ry:    0 | 0xff000020:    4 | Hat switch:   8 | Button: 0  0  0  0  0  0  0  0  0  0  0  0  0  0  0 | 0xff000021: 0 , 0 , 0 , 0 , 0 , 0 , 0 , 0 , 0 , 0 , 0 , 0 , 0 | 0xff000022:  225 ,  183 ,   42 ,  235 ,  247 ,  255 ,  238 ,  255 ,   10 ,    0 ,   49 ,    0 ,   91 ,   31 ,   46 ,    5 ,  126 ,  147 ,    8 ,  230 ,    8 ,  129 ,   50 ,  240 ,   60 ,  128 ,    0 ,    0 ,    0 ,  118 ,    9 ,    9 ,    0 ,    0 ,    0 ,    0 ,    0 ,   89 ,  175 ,    8 ,  230 ,   40 ,    8 ,    0 ,  236 ,  245 ,   17 ,  167 ,  251 ,   40 ,  244 ,  121 
E: 000000.298015 64 01 80 7e 81 7f 00 00 04 08 00 00 00 e1 b7 2a eb f7 ff ee ff 0a 00 31 00 5b 1f 2e 05 7e 93 08 e6 08 81 32 f0 3c 80 00 00 00 76 09 09 00 00 00 00 00 59 af 08 e6 28 08 00 ec f5 11 a7 fb 28 f4 79
# ReportID: 1 / X:  128 | Y:  126 | Z:  129 | Rz:  127 | Rx:    0 | Ry:    0 | 0xff000020:    5 | Hat switch:   8 | Button: 0  0  0  0  0  0  0  0  0  0  0  0  0  0  0 | 0xff000021: 0 , 0 , 0 , 0 , 0 , 0 , 0 , 0 , 0 , 0 , 0 , 0 , 0 | 0xff000022:  226 ,  183 ,   42 ,  235 ,  247 ,  255 ,  238 ,  255 ,   10 ,    0 ,   59 ,    0 ,   78 ,   31 ,   61 ,    5 ,  113 ,  194 ,    8 ,  230 ,    9 ,  129 ,   50 ,  240 ,   60 ,  128 ,    0 ,    0 ,    0 ,  118 ,    9 ,    9 ,    0 ,    0 ,    0 ,    0 ,    0 ,   57 ,  222 ,    8 ,  230 ,   40 ,    8 ,    0 ,    0 ,  201 ,  202 ,   71 ,   58 ,  243 ,  173 ,  212 
E: 000000.302097 64 01 80 7e 81 7f 00 00 05 08 00 00 00 e2 b7 2a eb f7 ff ee ff 0a 00 3b 00 4e 1f 3d 05 71 c2 08 e6 09 81 32 f0 3c 80 00 00 00 76 09 09 00 00 00 00 00 39 de 08 e6 28 08 00 00 c9 ca 47 3a f3 ad d4
# ReportID: 1 / X:  128 | Y:  126 | Z:  129 | Rz:  127 | Rx:    0 | Ry:    0 | 0xff000020:    6 | Hat switch:   8 | Button: 0  0  0  0  0  0  0  0  0  0  0  0  0  0  0 | 0xff000021: 0 , 0 , 0 , 0 , 0 , 0 , 0 , 0 , 0 , 0 , 0 , 0 , 0 | 0xff000022:  227 ,  183 ,   42 ,  235 ,  247 ,  255 ,  239 ,  255 ,   10 ,    0 ,   52 ,    0 ,   81 ,   31 ,   58 ,    5 ,  100 ,  241 ,    8 ,  230 ,    8 ,  129 ,   50 ,  240 ,   60 ,  128 ,    0 ,    0 ,    0 ,  118 ,    9 ,    9 ,    0 ,    0 ,    0 ,    0 ,    0 ,   25 ,   13 ,    9 ,  230 ,   40 ,    8 ,    0 ,  198 ,   13 ,  145 ,  144 ,   36 ,  221 ,  246 ,  248 
E: 000000.306056 64 01 80 7e 81 7f 00 00 06 08 00 00 00 e3 b7 2a eb f7 ff ef ff 0a 00 34 00 51 1f 3a 05 64 f1 08 e6 08 81 32 f0 3c 80 00 00 00 76 09 09 00 00 00 00 00 19 0d 09 e6 28 08 00 c6 0d 91 90 24 dd f6 f8
# ReportID: 1 / X:  128 | Y:  126 | Z:  129 | Rz:  127 | Rx:    0 | Ry:    0 | 0xff000020:    7 | Hat switch:   8 | Button: 0  0  0  0  0  0  0  0  0  0  0  0  0  0  0 | 0xff000021: 0 , 0 , 0 , 0 , 0 , 0 , 0 , 0 , 0 , 0 , 0 , 0 , 0 | 0xff000022:  228 ,  183 ,   42 ,  235 ,  248 ,  255 ,  238 ,  255 ,   11 ,    0 ,   49 ,    0 ,   79 ,   31 ,   58 ,    5 ,   87 ,   32 ,    9 ,  230 ,    8 ,  129 ,   50 ,  240 ,   60 ,  128 ,    0 ,    0 ,    0 ,  118 ,    9 ,    9 ,    0 ,    0 ,    0 ,    0 ,    0 ,  249 ,   59 ,    9 ,  230 ,   40 ,    8 ,    0 ,   10 ,    2 ,   89 ,  125 ,   75 ,    1 ,  248 ,  167 
E: 000000.310362 64 01 80 7e 81 7f 00 00 07 08 00 00 00 e4 b7 2a eb f8 ff ee ff 0b 00 31 00 4f 1f 3a 05 57 20 09 e6 08 81 32 f0 3c 80 00 00 00 76 09 09 00 00 00 00 00 f9 3b 09 e6 28 08 00 0a 02 59 7d 4b 01 f8 a7
# ReportID: 1 / X:  128 | Y:  126 | Z:  129 | Rz:  127 | Rx:    0 | Ry:    0 | 0xff000020:    8 | Hat switch:   8 | Button: 0  0  0  0  0  0  0  0  0  0  0  0  0  0  0 | 0xff000021: 0 , 0 , 0 , 0 , 0 , 0 , 0 , 0 , 0 , 0 , 0 , 0 , 0 | 0xff000022:  229 ,  183 ,   42 ,  235 ,  247 ,  255 ,  238 ,  255 ,   10 ,    0 ,   55 ,    0 ,   83 ,   31 ,   69 ,    5 ,   74 ,   79 ,    9 ,  230 ,    8 ,  129 ,   50 ,  240 ,   60 ,  128 ,    0 ,    0 ,    0 ,  118 ,    9 ,    9 ,    0 ,    0 ,    0 ,    0 ,    0 ,  217 ,  106 ,    9 ,  230 ,   40 ,    8 ,    0 ,  247 ,  150 ,  140 ,  245 ,   90 ,   76 ,   43 ,   99 
E: 000000.313819 64 01 80 7e 81 7f 00 00 08 08 00 00 00 e5 b7 2a eb f7 ff ee ff 0a 00 37 00 53 1f 45 05 4a 4f 09 e6 08 81 32 f0 3c 80 00 00 00 76 09 09 00 00 00 00 00 d9 6a 09 e6 28 08 00 f7 96 8c f5 5a 4c 2b 63
# ReportID: 1 / X:  128 | Y:  126 | Z:  129 | Rz:  127 | Rx:    0 | Ry:    0 | 0xff000020:    9 | Hat switch:   8 | Button: 0  0  0  0  0  0  0  0  0  0  0  0  0  0  0 | 0xff000021: 0 , 0 , 0 , 0 , 0 , 0 , 0 , 0 , 0 , 0 , 0 , 0 , 0 | 0xff000022:  230 ,  183 ,   42 ,  235 ,  247 ,  255 ,  238 ,  255 ,    9 ,    0 ,   57 ,    0 ,   71 ,   31 ,   79 ,    5 ,   61 ,  126 ,    9 ,  230 ,    8 ,  129 ,   50 ,  240 ,   60 ,  128 ,    0 ,    0 ,    0 ,  118 ,    9 ,    9 ,    0 ,    0 ,    0 ,    0 ,    0 ,  185 ,  153 ,    9 ,  230 ,   40 ,    8 ,    0 ,    1 ,  248 ,  240 ,   51 ,  121 ,  103 ,  239 ,   44 
E: 000000.317847 64 01 80 7e 81 7f 00 00 09 08 00 00 00 e6 b7 2a eb f7 ff ee ff 09 00 39 00 47 1f 4f 05 3d 7e 09 e6 08 81 32 f0 3c 80 00 00 00 76 09 09 00 00 00 00 00 b9 99 09 e6 28 08 00 01 f8 f0 33 79 67 ef 2c
# ReportID: 1 / X:  128 | Y:  126 | Z:  129 | Rz:  127 | Rx:    0 | Ry:    0 | 0xff000020:   10 | Hat switch:   8 | Button: 0  0  0  0  0  0  0  0  0  0  0  0  0  0  0 | 0xff000021: 0 , 0 , 0 , 0 , 0 , 0 , 0 , 0 , 0 , 0 , 0 , 0 , 0 | 0xff000022:  231 ,  183 ,   42 ,  235 ,  247 ,  255 ,  238 ,  255 ,   10 ,    0 ,   52 ,    0 ,   66 ,   31 ,   76 ,    5 ,   49 ,  173 ,    9 ,  230 ,    8 ,  129 ,   50 ,  240 ,   60 ,  128 ,    0 ,    0 ,    0 ,  118 ,    9 ,    9 ,    0 ,    0 ,    0 ,    0 ,    0 ,  153 ,  200 ,    9 ,  230 ,   40 ,    8 ,    0 ,  116 ,   12 ,   62 ,  203 ,  218 ,   47 ,  138 ,  101 
E: 000000.323666 64 01 80 7e 81 7f 00 00 0a 08 00 00 00 e7 b7 2a eb f7 ff ee ff 0a 00 34 00 42 1f 4c 05 31 ad 09 e6 08 81 32 f0 3c 80 00 00 00 76 09 09 00 00 00 00 00 99 c8 09 e6 28 08 00 74 0c 3e cb da 2f 8a 65
# ReportID: 1 / X:  128 | Y:  126 | Z:  129 | Rz:  127 | Rx:    0 | Ry:    0 | 0xff000020:   11 | Hat switch:   8 | Button: 0  0  0  0  0  0  0  0  0  0  0  0  0  0  0 | 0xff000021: 0 , 0 , 0 , 0 , 0 , 0 , 0 , 0 , 0 , 0 , 0 , 0 , 0 | 0xff000022:  232 ,  183 ,   42 ,  235 ,  248 ,  255 ,  238 ,  255 ,   11 ,    0 ,   47 ,    0 ,   70 ,   31 ,   73 ,    5 ,   36 ,  220 ,    9 ,  230 ,    9 ,  129 ,   50 ,  240 ,   60 ,  128 ,    0 ,    0 ,    0 ,  118 ,    9 ,    9 ,    0 ,    0 ,    0 ,    0 ,    0 ,  121 ,  247 ,    9 ,  230 ,   40 ,    8 ,    0 ,  233 ,  243 ,  193 ,  165 ,  248 ,  255 ,  185 ,   57 
E: 000000.327133 64 01 80 7e 81 7f 00 00 0b 08 00 00 00 e8 b7 2a eb f8 ff ee ff 0b 00 2f 00 46 1f 49 05 24 dc 09 e6 09 81 32 f0 3c 80 00 00 00 76 09 09 00 00 00 00 00 79 f7 09 e6 28 08 00 e9 f3 c1 a5 f8 ff b9 39
# ReportID: 1 / X:  128 | Y:  126 | Z:  129 | Rz:  127 | Rx:    0 | Ry:    0 | 0xff000020:   12 | Hat switch:   8 | Button: 0  0  0  0  0  0  0  0  0  0  0  0  0  0  0 | 0xff000021: 0 , 0 , 0 , 0 , 0 , 0 , 0 , 0 , 0 , 0 , 0 , 0 , 0 | 0xff000022:  233 ,  183 ,   42 ,  235 ,  248 ,  255 ,  240 ,  255 ,   11 ,    0 ,   45 ,    0 ,   74 ,   31 ,   78 ,    5 ,   23 ,   11 ,   10 ,  230 ,    9 ,  129 ,   50 ,  240 ,   60 ,  128 ,    0 ,    0 ,    0 ,  118 ,    9 ,    9 ,    0 ,    0 ,    0 ,    0 ,    0 ,   89 ,   38 ,   10 ,  230 ,   40 ,    8 ,    0 ,  202 ,  209 ,  246 ,   35 ,  184 ,  228 ,  208 ,  210 
E: 000000.331398 64 01 80 7e 81 7f 00 00 0c 08 00 00 00 e9 b7 2a eb f8 ff f0 ff 0b 00 2d 00 4a 1f 4e 05 17 0b 0a e6 09 81 32 f0 3c 80 00 00 00 76 09 09 00 00 00 00 00 59 26 0a e6 28 08 00 ca d1 f6 23 b8 e4 d0 d2
# ReportID: 1 / X:  128 | Y:  126 | Z:  129 | Rz:  127 | Rx:    0 | Ry:    0 | 0xff000020:   13 | Hat switch:   8 | Button: 0  0  0  0  0  0  0  0  0  0  0  0  0  0  0 | 0xff000021: 0 , 0 , 0 , 0 , 0 , 0 , 0 , 0 , 0 , 0 , 0 , 0 , 0 | 0xff000022:  234 ,  183 ,   42 ,  235 ,  246 ,  255 ,  239 ,  255 ,   11 ,    0 ,   45 ,    0 ,   80 ,   31 ,   69 ,    5 ,   10 ,   58 ,   10 ,  230 ,    8 ,  129 ,   50 ,  240 ,   60 ,  128 ,    0 ,    0 ,    0 ,  118 ,    9 ,    9 ,    0 ,    0 ,    0 ,    0 ,    0 ,   57 ,   85 ,   10 ,  230 ,   40 ,    8 ,    0 ,  217 ,   86 ,   63 ,  174 ,  163 ,   67 ,   75 ,  150 
E: 000000.334870 64 01 80 7e 81 7f 00 00 0d 08 00 00 00 ea b7 2a eb f6 ff ef ff 0b 00 2d 00 50 1f 45 05 0a 3a 0a e6 08 81 32 f0 3c 80 00 00 00 76 09 09 00 00 00 00 00 39 55 0a e6 28 08 00 d9 56 3f ae a3 43 4b 96
# ReportID: 1 / X:  128 | Y:  126 | Z:  129 | Rz:  127 | Rx:    0 | Ry:    0 | 0xff000020:   14 | Hat switch:   8 | Button: 0  0  0  0  0  0  0  0  0  0  0  0  0  0  0 | 0xff000021: 0 , 0 , 0 , 0 , 0 , 0 , 0 , 0 , 0 , 0 , 0 , 0 , 0 | 0xff000022:  235 ,  183 ,   42 ,  235 ,  247 ,  255 ,  238 ,  255 ,   11 ,    0 ,   43 ,    0 ,   81 ,   31 ,   65 ,    5 ,  253 ,  104 ,   10 ,  230 ,    9 ,  129 ,   50 ,  240 ,   60 ,  128 ,    0 ,    0 ,    0 ,  118 ,    9 ,    9 ,    0 ,    0 ,    0 ,    0 ,    0 ,   25 ,  132 ,   10 ,  230 ,   40 ,    8 ,    0 ,  104 ,  198 ,  235 ,  107 ,  248 ,  118 ,  131 ,   97 
E: 000000.338631 64 01 80 7e 81 7f 00 00 0e 08 00 00 00 eb b7 2a eb f7 ff ee ff 0b 00 2b 00 51 1f 41 05 fd 68 0a e6 09 81 32 f0 3c 80 00 00 00 76 09 09 00 00 00 00 00 19 84 0a e6 28 08 00 68 c6 eb 6b f8 76 83 61
# ReportID: 1 / X:  128 | Y:  126 | Z:  129 | Rz:  127 | Rx:    0 | Ry:    0 | 0xff000020:   15 | Hat switch:   8 | Button: 0  0  0  0  0  0  0  0  0  0  0  0  0  0  0 | 0xff000021: 0 , 0 , 0 , 0 , 0 , 0 , 0 , 0 , 0 , 0 , 0 , 0 , 0 | 0xff000022:  236 ,  183 ,   42 ,  235 ,  248 ,  255 ,  239 ,  255 ,   11 ,    0 ,   45 ,    0 ,   77 ,   31 ,   55 ,    5 ,  240 ,  151 ,   10 ,  230 ,    8 ,  129 ,   50 ,  240 ,   60 ,  128 ,    0 ,    0 ,    0 ,  118 ,    9 ,    9 ,    0 ,    0 ,    0 ,    0 ,    0 ,  249 ,  178 ,   10 ,  230 ,   40 ,    8 ,    0 ,  101 ,  173 ,   54 ,  145 ,   39 ,  104 ,  203 ,  233 
E: 000000.342035 64 01 80 7e 81 7f 00 00 0f 08 00 00 00 ec b7 2a eb f8 ff ef ff 0b 00 2d 00 4d 1f 37 05 f0 97 0a e6 08 81 32 f0 3c 80 00 00 00 76 09 09 00 00 00 00 00 f9 b2 0a e6 28 08 00 65 ad 36 91 27 68 cb e9
# ReportID: 1 / X:  128 | Y:  126 | Z:  129 | Rz:  127 | Rx:    0 | Ry:    0 | 0xff000020:   16 | Hat switch:   8 | Button: 0  0  0  0  0  0  0  0  0  0  0  0  0  0  0 | 0xff000021: 0 , 0 , 0 , 0 , 0 , 0 , 0 , 0 , 0 , 0 , 0 , 0 , 0 | 0xff000022:  237 ,  183 ,   42 ,  235 ,  247 ,  255 ,  238 ,  255 ,   10 ,    0 ,   45 ,    0 ,   72 ,   31 ,   55 ,    5 ,  228 ,  198 ,   10 ,  230 ,    9 ,  129 ,   50 ,  240 ,   60 ,  128 ,    0 ,    0 ,    0 ,  118 ,    9 ,    9 ,    0 ,    0 ,    0 ,    0 ,    0 ,  217 ,  225 ,   10 ,  230 ,   40 ,    8 ,    0 ,   11 ,   66 ,   76 ,  164 ,   96 ,  240 ,   36 ,  205 
E: 000000.345910 64 01 80 7e 81 7f 00 00 10 08 00 00 00 ed b7 2a eb f7 ff ee ff 0a 00 2d 00 48 1f 37 05 e4 c6 0a e6 09 81 32 f0 3c 80 00 00 00 76 09 09 00 00 00 00 00 d9 e1 0a e6 28 08 00 0b 42 4c a4 60 f0 24 cd
# ReportID: 1 / X:  128 | Y:  126 | Z:  129 | Rz:  127 | Rx:    0 | Ry:    0 | 0xff000020:   17 | Hat switch:   8 | Button: 0  0  0  0  0  0  0  0  0  0  0  0  0  0  0 | 0xff000021: 0 , 0 , 0 , 0 , 0 , 0 , 0 , 0 , 0 , 0 , 0 , 0 , 0 | 0xff000022:  238 ,  183 ,   42 ,  235 ,  248 ,  255 ,  238 ,  255 ,   10 ,    0 ,   45 ,    0 ,   81 ,   31 ,   58 ,    5 ,  215 ,  245 ,   10 ,  230 ,    8 ,  129 ,   50 ,  240 ,   60 ,  128 ,    0 ,    0 ,    0 ,  118 ,    9 ,    9 ,    0 ,    0 ,    0 ,    0 ,    0 ,  185 ,   16 ,   11 ,  230 ,   40 ,    8 ,    0 ,  251 ,   17 ,   51 ,  216 ,  135 ,   17 ,   35 ,  239 
E: 000000.349907 64 01 80 7e 81 7f 00 00 11 08 00 00 00 ee b7 2a eb f8 ff ee ff 0a 00 2d 00 51 1f 3a 05 d7 f5 0a e6 08 81 32 f0 3c 80 00 00 00 76 09 09 00 00 00 00 00 b9 10 0b e6 28 08 00 fb 11 33 d8 87 11 23 ef
# ReportID: 1 / X:  128 | Y:  126 | Z:  129 | Rz:  127 | Rx:    0 | Ry:    0 | 0xff000020:   18 | Hat switch:   8 | Button: 0  0  0  0  0  0  0  0  0  0  0  0  0  0  0 | 0xff000021: 0 , 0 , 0 , 0 , 0 , 0 , 0 , 0 , 0 , 0 , 0 , 0 , 0 | 0xff000022:  239 ,  183 ,   42 ,  235 ,  248 ,  255 ,  238 ,  255 ,    9 ,    0 ,   48 ,    0 ,   84 ,   31 ,   39 ,    5 ,  202 ,   36 ,   11 ,  230 ,    8 ,  129 ,   50 ,  240 ,   60 ,  128 ,    0 ,    0 ,    0 ,  118 ,    9 ,    9 ,    0 ,    0 ,    0 ,    0 ,    0 ,  153 ,   63 ,   11 ,  230 ,   40 ,    8 ,    0 ,  183 ,  185 ,  140 ,   97 ,  145 ,   64 ,  245 ,  140 
E: 000000.354248 64 01 80 7e 81 7f 00 00 12 08 00 00 00 ef b7 2a eb f8 ff ee ff 09 00 30 00 54 1f 27 05 ca 24 0b e6 08 81 32 f0 3c 80 00 00 00 76 09 09 00 00 00 00 00 99 3f 0b e6 28 08 00 b7 b9 8c 61 91 40 f5 8c
# ReportID: 1 / X:  128 | Y:  126 | Z:  129 | Rz:  127 | Rx:    0 | Ry:    0 | 0xff000020:   19 | Hat switch:   8 | Button: 0  0  0  0  0  0  0  0  0  0  0  0  0  0  0 | 0xff000021: 0 , 0 , 0 , 0 , 0 , 0 , 0 , 0 , 0 , 0 , 0 , 0 , 0 | 0xff000022:  240 ,  183 ,   42 ,  235 ,  248 ,  255 ,  238 ,  255 ,   10 ,    0 ,   46 ,    0 ,   96 ,   31 ,   34 ,    5 ,  189 ,   83 ,   11 ,  230 ,    8 ,  129 ,   50 ,  240 ,   60 ,  128 ,    0 ,    0 ,    0 ,  118 ,    9 ,    9 ,    0 ,    0 ,    0 ,    0 ,    0 ,  121 ,  110 ,   11 ,  230 ,   40 ,    8 ,    0 ,  226 ,  224 ,   84 ,   50 ,  142 ,  194 ,   80 ,   41 
E: 000000.358368 64 01 80 7e 81 7f 00 00 13 08 00 00 00 f0 b7 2a eb f8 ff ee ff 0a 00 2e 00 60 1f 22 05 bd 53 0b e6 08 81 32 f0 3c 80 00 00 00 76 09 09 00 00 00 00 00 79 6e 0b e6 28 08 00 e2 e0 54 32 8e c2 50 29
# ReportID: 1 / X:  128 | Y:  126 | Z:  129 | Rz:  127 | Rx:    0 | Ry:    0 | 0xff000020:   20 | Hat switch:   8 | Button: 0  0  0  0  0  0  0  0  0  0  0  0  0  0  0 | 0xff000021: 0 , 0 , 0 , 0 , 0 , 0 , 0 , 0 , 0 , 0 , 0 , 0 , 0 | 0xff000022:  241 ,  183 ,   42 ,  235 ,  246 ,  255 ,  238 ,  255 ,   10 ,    0 ,   41 ,    0 ,   93 ,   31 ,   35 ,    5 ,  176 ,  130 ,   11 ,  230 ,    8 ,  129 ,   50 ,  240 ,   60 ,  128 ,    0 ,    0 ,    0 ,  118 ,    9 ,    9 ,    0 ,    0 ,    0 ,    0 ,    0 ,   89 ,  157 ,   11 ,  230 ,   40 ,    8 ,    0 ,  230 ,   15 ,   94 ,  121 ,   33 ,  227 ,  194 ,  211 
E: 000000.362312 64 01 80 7e 81 7f 00 00 14 08 00 00 00 f1 b7 2a eb f6 ff ee ff 0a 00 29 00 5d 1f 23 05 b0 82 0b e6 08 81 32 f0 3c 80 00 00 00 76 09 09 00 00 00 00 00 59 9d 0b e6 28 08 00 e6 0f 5e 79 21 e3 c2 d3
# ReportID: 1 / X:  128 | Y:  126 | Z:  129 | Rz:  127 | Rx:    0 | Ry:    0 | 0xff000020:   21 | Hat switch:   8 | Button: 0  0  0  0  0  0  0  0  0  0  0  0  0  0  0 | 0xff000021: 0 , 0 , 0 , 0 , 0 , 0 , 0 , 0 , 0 , 0 , 0 , 0 , 0 | 0xff000022:  242 ,  183 ,   42 ,  235 ,  246 ,  255 ,  238 ,  255 ,   10 ,    0 ,   46 ,    0 ,   93 ,   31 ,   46 ,    5 ,  163 ,  177 ,   11 ,  230 ,    9 ,  129 ,   50 ,  240 ,   60 ,  128 ,    0 ,    0 ,    0 ,  118 ,    9 ,    9 ,    0 ,    0 ,    0 ,    0 ,    0 ,   57 ,  204 ,   11 ,  230 ,   40 ,    8 ,    0 ,   89 ,   71 ,   82 ,   71 ,   19 ,   47 ,   81 ,  203 
E: 000000.367713 64 01 80 7e 81 7f 00 00 15 08 00 00 00 f2 b7 2a eb f6 ff ee ff 0a 00 2e 00 5d 1f 2e 05 a3 b1 0b e6 09 81 32 f0 3c 80 00 00 00 76 09 09 00 00 00 00 00 39 cc 0b e6 28 08 00 59 47 52 47 13 2f 51 cb
# ReportID: 1 / X:  128 | Y:  126 | Z:  129 | Rz:  127 | Rx:    0 | Ry:    0 | 0xff000020:   22 | Hat switch:   8 | Button: 0  0  0  0  0  0  0  0  0  0  0  0  0  0  0 | 0xff000021: 0 , 0 , 0 , 0 , 0 , 0 , 0 , 0 , 0 , 0 , 0 , 0 , 0 | 0xff000022:  243 ,  183 ,   42 ,  235 ,  247 ,  255 ,  238 ,  255 ,    9 ,    0 ,   57 ,    0 ,   95 ,   31 ,   37 ,    5 ,  151 ,  224 ,   11 ,  230 ,    9 ,  129 ,   50 ,  240 ,   60 ,  128 ,    0 ,    0 ,    0 ,  118 ,    9 ,    9 ,    0 ,    0 ,    0 ,    0 ,    0 ,   25 ,  251 ,   11 ,  230 ,   40 ,    8 ,    0 ,   45 ,   53 ,   12 ,   79 ,  125 ,  252 ,   80 ,  100 
E: 000000.371371 64 01 80 7e 81 7f 00 00 16 08 00 00 00 f3 b7 2a eb f7 ff ee ff 09 00 39 00 5f 1f 25 05 97 e0 0b e6 09 81 32 f0 3c 80 00 00 00 76 09 09 00 00 00 00 00 19 fb 0b e6 28 08 00 2d 35 0c 4f 7d fc 50 64
# ReportID: 1 / X:  128 | Y:  126 | Z:  129 | Rz:  127 | Rx:    0 | Ry:    0 | 0xff000020:   23 | Hat switch:   8 | Button: 0  0  0  0  0  0  0  0  0  0  0  0  0  0  0 | 0xff000021: 0 , 0 , 0 , 0 , 0 , 0 , 0 , 0 , 0 , 0 , 0 , 0 , 0 | 0xff000022:  244 ,  183 ,   42 ,  235 ,  248 ,  255 ,  238 ,  255 ,   10 ,    0 ,   56 ,    0 ,   98 ,   31 ,   36 ,    5 ,  138 ,   15 ,   12 ,  230 ,    8 ,  129 ,   50 ,  240 ,   60 ,  128 ,    0 ,    0 ,    0 ,  118 ,    9 ,    9 ,    0 ,    0 ,    0 ,    0 ,    0 ,  249 ,   41 ,   12 ,  230 ,   40 ,    8 ,    0 ,   24 ,  130 ,   75 ,  177 ,   51 ,   21 ,  174 ,   57 
E: 000000.374765 64 01 80 7e 81 7f 00 00 17 08 00 00 00 f4 b7 2a eb f8 ff ee ff 0a 00 38 00 62 1f 24 05 8a 0f 0c e6 08 81 32 f0 3c 80 00 00 00 76 09 09 00 00 00 00 00 f9 29 0c e6 28 08 00 18 82 4b b1 33 15 ae 39
# ReportID: 1 / X:  128 | Y:  126 | Z:  129 | Rz:  127 | Rx:    0 | Ry:    0 | 0xff000020:   24 | Hat switch:   8 | Button: 0  0  0  0  0  0  0  0  0  0  0  0  0  0  0 | 0xff000021: 0 , 0 , 0 , 0 , 0 , 0 , 0 , 0 , 0 , 0 , 0 , 0 , 0 | 0xff000022:  245 ,  183 ,   42 ,  235 ,  247 ,  255 ,  238 ,  255 ,   10 ,    0 ,   57 ,    0 ,   90 ,   31 ,   44 ,    5 ,  125 ,   62 ,   12 ,  230 ,    8 ,  129 ,   50 ,  240 ,   60 ,  128 ,    0 ,    0 ,    0 ,  118 ,    9 ,    9 ,    0 ,    0 ,    0 ,    0 ,    0 ,  217 ,   88 ,   12 ,  230 ,   40 ,    8 ,    0 ,  227 ,   89 ,  171 ,   17 ,  103 ,  216 ,  226 ,  149 
E: 000000.377878 64 01 80 7e 81 7f 00 00 18 08 00 00 00 f5 b7 2a eb f7 ff ee ff 0a 00 39 00 5a 1f 2c 05 7d 3e 0c e6 08 81 32 f0 3c 80 00 00 00 76 09 09 00 00 00 00 00 d9 58 0c e6 28 08 00 e3 59 ab 11 67 d8 e2 95
# ReportID: 1 / X:  128 | Y:  126 | Z:  129 | Rz:  127 | Rx:    0 | Ry:    0 | 0xff000020:   25 | Hat switch:   8 | Button: 0  0  0  0  0  0  0  0  0  0  0  0  0  0  0 | 0xff000021: 0 , 0 , 0 , 0 , 0 , 0 , 0 , 0 , 0 , 0 , 0 , 0 , 0 | 0xff000022:  246 ,  183 ,   42 ,  235 ,  248 ,  255 ,  238 ,  255 ,   10 ,    0 ,   60 ,    0 ,   84 ,   31 ,   41 ,    5 ,  112 ,  109 ,   12 ,  230 ,    9 ,  129 ,   50 ,  240 ,   60 ,  128 ,    0 ,    0 ,    0 ,  118 ,    9 ,    9 ,    0 ,    0 ,    0 ,    0 ,    0 ,  185 ,  135 ,   12 ,  230 ,   40 ,    8 ,    0 ,   51 ,   62 ,    5 ,  235 ,  249 ,  210 ,   50 ,  103 
E: 000000.384113 64 01 80 7e 81 7f 00 00 19 08 00 00 00 f6 b7 2a eb f8 ff ee ff 0a 00 3c 00 54 1f 29 05 70 6d 0c e6 09 81 32 f0 3c 80 00 00 00 76 09 09 00 00 00 00 00 b9 87 0c e6 28 08 00 33 3e 05 eb f9 d2 32 67
# ReportID: 1 / X:  128 | Y:  126 | Z:  129 | Rz:  127 | Rx:    0 | Ry:    0 | 0xff000020:   26 | Hat switch:   8 | Button: 0  0  0  0  0  0  0  0  0  0  0  0  0  0  0 | 0xff000021: 0 , 0 , 0 , 0 , 0 , 0 , 0 , 0 , 0 , 0 , 0 , 0 , 0 | 0xff000022:  247 ,  183 ,   42 ,  235 ,  247 ,  255 ,  238 ,  255 ,   11 ,    0 ,   54 ,    0 ,   97 ,   31 ,   53 ,    5 ,   99 ,  156 ,   12 ,  230 ,    9 ,  129 ,   50 ,  240 ,   60 ,  128 ,    0 ,    0 ,    0 ,  118 ,    9 ,    9 ,    0 ,    0 ,    0 ,    0 ,    0 ,  153 ,  182 ,   12 ,  230 ,   40 ,    8 ,    0 ,  100 ,  151 ,  203 ,  122 ,   95 ,   93 ,  253 ,    0 
E: 000000.385781 64 01 80 7e 81 7f 00 00 1a 08 00 00 00 f7 b7 2a eb f7 ff ee ff 0b 00 36 00 61 1f 35 05 63 9c 0c e6 09 81 32 f0 3c 80 00 00 00 76 09 09 00 00 00 00 00 99 b6 0c e6 28 08 00 64 97 cb 7a 5f 5d fd 00
# ReportID: 1 / X:  128 | Y:  126 | Z:  129 | Rz:  127 | Rx:    0 | Ry:    0 | 0xff000020:   27 | Hat switch:   8 | Button: 0  0  0  0  0  0  0  0  0  0  0  0  0  0  0 | 0xff000021: 0 , 0 , 0 , 0 , 0 , 0 , 0 , 0 , 0 , 0 , 0 , 0 , 0 | 0xff000022:  248 ,  183 ,   42 ,  235 ,  248 ,  255 ,  239 ,  255 ,   10 ,    0 ,   67 ,    0 ,   90 ,   31 ,   60 ,    5 ,   86 ,  203 ,   12 ,  230 ,    9 ,  129 ,   50 ,  240 ,   60 ,  128 ,    0 ,    0 ,    0 ,  118 ,    9 ,    9 ,    0 ,    0 ,    0 ,    0 ,    0 ,  121 ,  229 ,   12 ,  230 ,   40 ,    8 ,    0 ,    4 ,  120 ,  114 ,   33 ,  193 ,  138 ,  154 ,   82 
E: 000000.390773 64 01 80 7e 81 7f 00 00 1b 08 00 00 00 f8 b7 2a eb f8 ff ef ff 0a 00 43 00 5a 1f 3c 05 56 cb 0c e6 09 81 32 f0 3c 80 00 00 00 76 09 09 00 00 00 00 00 79 e5 0c e6 28 08 00 04 78 72 21 c1 8a 9a 52
# ReportID: 1 / X:  128 | Y:  126 | Z:  129 | Rz:  127 | Rx:    0 | Ry:    0 | 0xff000020:   28 | Hat switch:   8 | Button: 0  0  0  0  0  0  0  0  0  0  0  0  0  0  0 | 0xff000021: 0 , 0 , 0 , 0 , 0 , 0 , 0 , 0 , 0 , 0 , 0 , 0 , 0 | 0xff000022:  249 ,  183 ,   42 ,  235 ,  247 ,  255 ,  238 ,  255 ,   11 ,    0 ,   65 ,    0 ,   88 ,   31 ,   62 ,    5 ,   74 ,  250 ,   12 ,  230 ,    8 ,  129 ,   50 ,  240 ,   60 ,  128 ,    0 ,    0 ,    0 ,  118 ,    9 ,    9 ,    0 ,    0 ,    0 ,    0 ,    0 ,   89 ,   20 ,   13 ,  230 ,   40 ,    8 ,    0 ,  180 ,  163 ,   74 ,   51 ,   36 ,  150 ,  146 ,  216 
E: 000000.393842 64 01 80 7e 81 7f 00 00 1c 08 00 00 00 f9 b7 2a eb f7 ff ee ff 0b 00 41 00 58 1f 3e 05 4a fa 0c e6 08 81 32 f0 3c 80 00 00 00 76 09 09 00 00 00 00 00 59 14 0d e6 28 08 00 b4 a3 4a 33 24 96 92 d8
# ReportID: 1 / X:  128 | Y:  126 | Z:  129 | Rz:  127 | Rx:    0 | Ry:    0 | 0xff000020:   29 | Hat switch:   8 | Button: 0  0  0  0  0  0  0  0  0  0  0  0  0  0  0 | 0xff000021: 0 , 0 , 0 , 0 , 0 , 0 , 0 , 0 , 0 , 0 , 0 , 0 , 0 | 0xff000022:  250 ,  183 ,   42 ,  235 ,  247 ,  255 ,  238 ,  255 ,   10 ,    0 ,   60 ,    0 ,   83 ,   31 ,   59 ,    5 ,   61 ,   41 ,   13 ,  230 ,    8 ,  129 ,   50 ,  240 ,   60 ,  128 ,    0 ,    0 ,    0 ,  118 ,    9 ,    9 ,    0 ,    0 ,    0 ,    0 ,    0 ,   57 ,   67 ,   13 ,  230 ,   40 ,    8 ,    0 ,  200 ,  124 ,  238 ,   70 ,  154 ,   45 ,   95 ,   97 
E: 000000.400017 64 01 80 7e 81 7f 00 00 1d 08 00 00 00 fa b7 2a eb f7 ff ee ff 0a 00 3c 00 53 1f 3b 05 3d 29 0d e6 08 81 32 f0 3c 80 00 00 00 76 09 09 00 00 00 00 00 39 43 0d e6 28 08 00 c8 7c ee 46 9a 2d 5f 61
# ReportID: 1 / X:  128 | Y:  126 | Z:  129 | Rz:  127 | Rx:    0 | Ry:    0 | 0xff000020:   30 | Hat switch:   8 | Button: 0  0  0  0  0  0  0  0  0  0  0  0  0  0  0 | 0xff000021: 0 , 0 , 0 , 0 , 0 , 0 , 0 , 0 , 0 , 0 , 0 , 0 , 0 | 0xff000022:  251 ,  183 ,   42 ,  235 ,  246 ,  255 ,  239 ,  255 ,   10 ,    0 ,   56 ,    0 ,   87 ,   31 ,   57 ,    5 ,   48 ,   88 ,   13 ,  230 ,    8 ,  129 ,   50 ,  240 ,   60 ,  128 ,    0 ,    0 ,    0 ,  118 ,    9 ,    9 ,    0 ,    0 ,    0 ,    0 ,    0 ,   25 ,  114 ,   13 ,  230 ,   40 ,    8 ,    0 ,  218 ,  172 ,   49 ,   57 ,  190 ,  122 ,  146 ,  107 
E: 000000.403703 64 01 80 7e 81 7f 00 00 1e 08 00 00 00 fb b7 2a eb f6 ff ef ff 0a 00 38 00 57 1f 39 05 30 58 0d e6 08 81 32 f0 3c 80 00 00 00 76 09 09 00 00 00 00 00 19 72 0d e6 28 08 00 da ac 31 39 be 7a 92 6b
# ReportID: 1 / X:  128 | Y:  126 | Z:  129 | Rz:  127 | Rx:    0 | Ry:    0 | 0xff000020:   31 | Hat switch:   8 | Button: 0  0  0  0  0  0  0  0  0  0  0  0  0  0  0 | 0xff000021: 0 , 0 , 0 , 0 , 0 , 0 , 0 , 0 , 0 , 0 , 0 , 0 , 0 | 0xff000022:  252 ,  183 ,   42 ,  235 ,  246 ,  255 ,  238 ,  255 ,   11 ,    0 ,   58 ,    0 ,   80 ,   31 ,   57 ,    5 ,   35 ,  135 ,   13 ,  230 ,    8 ,  129 ,   50 ,  240 ,   60 ,  128 ,    0 ,    0 ,    0 ,  118 ,    9 ,    9 ,    0 ,    0 ,    0 ,    0 ,    0 ,  249 ,  160 ,   13 ,  230 ,   40 ,    8 ,    0 ,    5 ,  149 ,   85 ,  115 ,  207 ,  238 ,  221 ,  238 
E: 000000.407294 64 01 80 7e 81 7f 00 00 1f 08 00 00 00 fc b7 2a eb f6 ff ee ff 0b 00 3a 00 50 1f 39 05 23 87 0d e6 08 81 32 f0 3c 80 00 00 00 76 09 09 00 00 00 00 00 f9 a0 0d e6 28 08 00 05 95 55 73 cf ee dd ee
# ReportID: 1 / X:  128 | Y:  126 | Z:  129 | Rz:  127 | Rx:    0 | Ry:    0 | 0xff000020:   32 | Hat switch:   8 | Button: 0  0  0  0  0  0  0  0  0  0  0  0  0  0  0 | 0xff000021: 0 , 0 , 0 , 0 , 0 , 0 , 0 , 0 , 0 , 0 , 0 , 0 , 0 | 0xff000022:  253 ,  183 ,   42 ,  235 ,  247 ,  255 ,  238 ,  255 ,   10 ,    0 ,   63 ,    0 ,   81 ,   31 ,   59 ,    5 ,   22 ,  182 ,   13 ,  230 ,    8 ,  129 ,   50 ,  240 ,   60 ,  128 ,    0 ,    0 ,    0 ,  118 ,    9 ,    9 ,    0 ,    0 ,    0 ,    0 ,    0 ,  217 ,  207 ,   13 ,  230 ,   40 ,    8 ,    0 ,  130 ,  109 ,   94 ,  169 ,  254 ,   65 ,  128 ,  177 
E: 000000.410776 64 01 80 7e 81 7f 00 00 20 08 00 00 00 fd b7 2a eb f7 ff ee ff 0a 00 3f 00 51 1f 3b 05 16 b6 0d e6 08 81 32 f0 3c 80 00 00 00 76 09 09 00 00 00 00 00 d9 cf 0d e6 28 08 00 82 6d 5e a9 fe 41 80 b1
# ReportID: 1 / X:  128 | Y:  126 | Z:  129 | Rz:  127 | Rx:    0 | Ry:    0 | 0xff000020:   33 | Hat switch:   8 | Button: 0  0  0  0  0  0  0  0  0  0  0  0  0  0  0 | 0xff000021: 0 , 0 , 0 , 0 , 0 , 0 , 0 , 0 , 0 , 0 , 0 , 0 , 0 | 0xff000022:  254 ,  183 ,   42 ,  235 ,  246 ,  255 ,  239 ,  255 ,   10 ,    0 ,   58 ,    0 ,   73 ,   31 ,   49 ,    5 ,   10 ,  229 ,   13 ,  230 ,    9 ,  129 ,   50 ,  240 ,   60 ,  128 ,    0 ,    0 ,    0 ,  118 ,    9 ,    9 ,    0 ,    0 ,    0 ,    0 ,    0 ,  185 ,  254 ,   13 ,  230 ,   40 ,    8 ,    0 ,  130 ,   95 ,  132 ,  101 ,  165 ,  253 ,  216 ,    0 
E: 000000.414508 64 01 80 7e 81 7f 00 00 21 08 00 00 00 fe b7 2a eb f6 ff ef ff 0a 00 3a 00 49 1f 31 05 0a e5 0d e6 09 81 32 f0 3c 80 00 00 00 76 09 09 00 00 00 00 00 b9 fe 0d e6 28 08 00 82 5f 84 65 a5 fd d8 00
# ReportID: 1 / X:  128 | Y:  126 | Z:  129 | Rz:  127 | Rx:    0 | Ry:    0 | 0xff000020:   34 | Hat switch:   8 | Button: 0  0  0  0  0  0  0  0  0  0  0  0  0  0  0 | 0xff000021: 0 , 0 , 0 , 0 , 0 , 0 , 0 , 0 , 0 , 0 , 0 , 0 , 0 | 0xff000022:  255 ,  183 ,   42 ,  235 ,  247 ,  255 ,  239 ,  255 ,   11 ,    0 ,   53 ,    0 ,   89 ,   31 ,   54 ,    5 ,  253 ,   19 ,   14 ,  230 ,    8 ,  129 ,   50 ,  240 ,   60 ,  128 ,    0 ,    0 ,    0 ,  118 ,    9 ,    9 ,    0 ,    0 ,    0 ,    0 ,    0 ,  153 ,   45 ,   14 ,  230 ,   40 ,    8 ,    0 ,  113 ,  145 ,  153 ,   26 ,  120 ,   37 ,  101 ,  139 
E: 000000.417981 64 01 80 7e 81 7f 00 00 22 08 00 00 00 ff b7 2a eb f7 ff ef ff 0b 00 35 00 59 1f 36 05 fd 13 0e e6 08 81 32 f0 3c 80 00 00 00 76 09 09 00 00 00 00 00 99 2d 0e e6 28 08 00 71 91 99 1a 78 25 65 8b
# ReportID: 1 / X:  128 | Y:  126 | Z:  129 | Rz:  127 | Rx:    0 | Ry:    0 | 0xff000020:   35 | Hat switch:   8 | Button: 0  0  0  0  0  0  0  0  0  0  0  0  0  0  0 | 0xff000021: 0 , 0 , 0 , 0 , 0 , 0 , 0 , 0 , 0 , 0 , 0 , 0 , 0 | 0xff000022:    0 ,  184 ,   42 ,  235 ,  247 ,  255 ,  239 ,  255 ,   11 ,    0 ,   46 ,    0 ,   90 ,   31 ,   51 ,    5 ,  240 ,   66 ,   14 ,  230 ,    8 ,  129 ,   50 ,  240 ,   60 ,  128 ,    0 ,    0 ,    0 ,  118 ,    9 ,    9 ,    0 ,    0 ,    0 ,    0 ,    0 ,  121 ,   92 ,   14 ,  230 ,   40 ,    8 ,    0 ,  177 ,   37 ,  139 ,  106 ,   76 ,  120 ,  165 ,  230 
E: 000000.421819 64 01 80 7e 81 7f 00 00 23 08 00 00 00 00 b8 2a eb f7 ff ef ff 0b 00 2e 00 5a 1f 33 05 f0 42 0e e6 08 81 32 f0 3c 80 00 00 00 76 09 09 00 00 00 00 00 79 5c 0e e6 28 08 00 b1 25 8b 6a 4c 78 a5 e6
# ReportID: 1 / X:  128 | Y:  126 | Z:  129 | Rz:  127 | Rx:    0 | Ry:    0 | 0xff000020:   36 | Hat switch:   8 | Button: 0  0  0  0  0  0  0  0  0  0  0  0  0  0  0 | 0xff000021: 0 , 0 , 0 , 0 , 0 , 0 , 0 , 0 , 0 , 0 , 0 , 0 , 0 | 0xff000022:    1 ,  184 ,   42 ,  235 ,  246 ,  255 ,  239 ,  255 ,   10 ,    0 ,   40 ,    0 ,   96 ,   31 ,   44 ,    5 ,  227 ,  113 ,   14 ,  230 ,    9 ,  129 ,   50 ,  240 ,   60 ,  128 ,    0 ,    0 ,    0 ,  118 ,    9 ,    9 ,    0 ,    0 ,    0 ,    0 ,    0 ,   89 ,  139 ,   14 ,  230 ,   40 ,    8 ,    0 ,  232 ,  157 ,   24 ,  252 ,  137 ,  186 ,  135 ,  149 
E: 000000.426404 64 01 80 7e 81 7f 00 00 24 08 00 00 00 01 b8 2a eb f6 ff ef ff 0a 00 28 00 60 1f 2c 05 e3 71 0e e6 09 81 32 f0 3c 80 00 00 00 76 09 09 00 00 00 00 00 59 8b 0e e6 28 08 00 e8 9d 18 fc 89 ba 87 95
