# Sony Interactive Entertainment DualSense Wireless Controller
# 0x05, 0x01,                    // Usage Page (Generic Desktop)        0
# 0x09, 0x05,                    // Usage (Game Pad)                    2
# 0xa1, 0x01,                    // Collection (Application)            4
# 0x85, 0x01,                    //  Report ID (1)                      6
# 0x09, 0x30,                    //  Usage (X)                          8
# 0x09, 0x31,                    //  Usage (Y)                          10
# 0x09, 0x32,                    //  Usage (Z)                          12
# 0x09, 0x35,                    //  Usage (Rz)                         14
# 0x09, 0x33,                    //  Usage (Rx)                         16
# 0x09, 0x34,                    //  Usage (Ry)                         18
# 0x15, 0x00,                    //  Logical Minimum (0)                20
# 0x26, 0xff, 0x00,              //  Logical Maximum (255)              22
# 0x75, 0x08,                    //  Report Size (8)                    25
# 0x95, 0x06,                    //  Report Count (6)                   27
# 0x81, 0x02,                    //  Input (Data,Var,Abs)               29
# 0x06, 0x00, 0xff,              //  Usage Page (Vendor Defined Page 1) 31
# 0x09, 0x20,                    //  Usage (Vendor Usage 0x20)          34
# 0x95, 0x01,                    //  Report Count (1)                   36
# 0x81, 0x02,                    //  Input (Data,Var,Abs)               38
# 0x05, 0x01,                    //  Usage Page (Generic Desktop)       40
# 0x09, 0x39,                    //  Usage (Hat switch)                 42
# 0x15, 0x00,                    //  Logical Minimum (0)                44
# 0x25, 0x07,                    //  Logical Maximum (7)                46
# 0x35, 0x00,                    //  Physical Minimum (0)               48
# 0x46, 0x3b, 0x01,              //  Physical Maximum (315)             50
# 0x65, 0x14,                    //  Unit (EnglishRotation: deg)        53
# 0x75, 0x04,                    //  Report Size (4)                    55
# 0x95, 0x01,                    //  Report Count (1)                   57
# 0x81, 0x42,                    //  Input (Data,Var,Abs,Null)          59
# 0x65, 0x00,                    //  Unit (None)                        61
# 0x05, 0x09,                    //  Usage Page (Button)                63
# 0x19, 0x01,                    //  Usage Minimum (1)                  65
# 0x29, 0x0f,                    //  Usage Maximum (15)                 67
# 0x15, 0x00,                    //  Logical Minimum (0)                69
# 0x25, 0x01,                    //  Logical Maximum (1)                71
# 0x75, 0x01,                    //  Report Size (1)                    73
# 0x95, 0x0f,                    //  Report Count (15)                  75
# 0x81, 0x02,                    //  Input (Data,Var,Abs)               77
# 0x06, 0x00, 0xff,              //  Usage Page (Vendor Defined Page 1) 79
# 0x09, 0x21,                    //  Usage (Vendor Usage 0x21)          82
# 0x95, 0x0d,                    //  Report Count (13)                  84
# 0x81, 0x02,                    //  Input (Data,Var,Abs)               86
# 0x06, 0x00, 0xff,              //  Usage Page (Vendor Defined Page 1) 88
# 0x09, 0x22,                    //  Usage (Vendor Usage 0x22)          91
# 0x15, 0x00,                    //  Logical Minimum (0)                93
# 0x26, 0xff, 0x00,              //  Logical Maximum (255)              95
# 0x75, 0x08,                    //  Report Size (8)                    98
# 0x95, 0x34,                    //  Report Count (52)                  100
# 0x81, 0x02,                    //  Input (Data,Var,Abs)               102
# 0x85, 0x02,                    //  Report ID (2)                      104
# 0x09, 0x23,                    //  Usage (Vendor Usage 0x23)          106
# 0x95, 0x2f,                    //  Report Count (47)                  108
# 0x91, 0x02,                    //  Output (Data,Var,Abs)              110
# 0x85, 0x05,                    //  Report ID (5)                      112
# 0x09, 0x33,                    //  Usage (Vendor Usage 0x33)          114
# 0x95, 0x28,                    //  Report Count (40)                  116
# 0xb1, 0x02,                    //  Feature (Data,Var,Abs)             118
# 0x85, 0x08,                    //  Report ID (8)                      120
# 0x09, 0x34,                    //  Usage (Vendor Usage 0x34)          122
# 0x95, 0x2f,                    //  Report Count (47)                  124
# 0xb1, 0x02,                    //  Feature (Data,Var,Abs)             126
# 0x85, 0x09,                    //  Report ID (9)                      128
# 0x09, 0x24,                    //  Usage (Vendor Usage 0x24)          130
# 0x95, 0x13,                    //  Report Count (19)                  132
# 0xb1, 0x02,                    //  Feature (Data,Var,Abs)             134
# 0x85, 0x0a,                    //  Report ID (10)                     136
# 0x09, 0x25,                    //  Usage (Vendor Usage 0x25)          138
# 0x95, 0x1a,                    //  Report Count (26)                  140
# 0xb1, 0x02,                    //  Feature (Data,Var,Abs)             142
# 0x85, 0x20,                    //  Report ID (32)                     144
# 0x09, 0x26,                    //  Usage (Vendor Usage 0x26)          146
# 0x95, 0x3f,                    //  Report Count (63)                  148
# 0xb1, 0x02,                    //  Feature (Data,Var,Abs)             150
# 0x85, 0x21,                    //  Report ID (33)                     152
# 0x09, 0x27,                    //  Usage (Vendor Usage 0x27)          154
# 0x95, 0x04,                    //  Report Count (4)                   156
# 0xb1, 0x02,                    //  Feature (Data,Var,Abs)             158
# 0x85, 0x22,                    //  Report ID (34)                     160
# 0x09, 0x40,                    //  Usage (Vendor Usage 0x40)          162
# 0x95, 0x3f,                    //  Report Count (63)                  164
# 0xb1, 0x02,                    //  Feature (Data,Var,Abs)             166
# 0x85, 0x80,                    //  Report ID (128)                    168
# 0x09, 0x28,                    //  Usage (Vendor Usage 0x28)          170
# 0x95, 0x3f,                    //  Report Count (63)                  172
# 0xb1, 0x02,                    //  Feature (Data,Var,Abs)             174
# 0x85, 0x81,                    //  Report ID (129)                    176
# 0x09, 0x29,                    //  Usage (Vendor Usage 0x29)          178
# 0x95, 0x3f,                    //  Report Count (63)                  180
# 0xb1, 0x02,                    //  Feature (Data,Var,Abs)             182
# 0x85, 0x82,                    //  Report ID (130)                    184
# 0x09, 0x2a,                    //  Usage (Vendor Usage 0x2a)          186
# 0x95, 0x09,                    //  Report Count (9)                   188
# 0xb1, 0x02,                    //  Feature (Data,Var,Abs)             190
# 0x85, 0x83,                    //  Report ID (131)                    192
# 0x09, 0x2b,                    //  Usage (Vendor Usage 0x2b)          194
# 0x95, 0x3f,                    //  Report Count (63)                  196
# 0xb1, 0x02,                    //  Feature (Data,Var,Abs)             198
# 0x85, 0x84,                    //  Report ID (132)                    200
# 0x09, 0x2c,                    //  Usage (Vendor Usage 0x2c)          202
# 0x95, 0x3f,                    //  Report Count (63)                  204
# 0xb1, 0x02,                    //  Feature (Data,Var,Abs)             206
# 0x85, 0x85,                    //  Report ID (133)                    208
# 0x09, 0x2d,                    //  Usage (Vendor Usage 0x2d)          210
# 0x95, 0x02,                    //  Report Count (2)                   212
# 0xb1, 0x02,                    //  Feature (Data,Var,Abs)             214
# 0x85, 0xa0,                    //  Report ID (160)                    216
# 0x09, 0x2e,                    //  Usage (Vendor Usage 0x2e)          218
# 0x95, 0x01,                    //  Report Count (1)                   220
# 0xb1, 0x02,                    //  Feature (Data,Var,Abs)             222
# 0x85, 0xe0,                    //  Report ID (224)                    224
# 0x09, 0x2f,                    //  Usage (Vendor Usage 0x2f)          226
# 0x95, 0x3f,                    //  Report Count (63)                  228
# 0xb1, 0x02,                    //  Feature (Data,Var,Abs)             230
# 0x85, 0xf0,                    //  Report ID (240)                    232
# 0x09, 0x30,                    //  Usage (Vendor Usage 0x30)          234
# 0x95, 0x3f,                    //  Report Count (63)                  236
# 0xb1, 0x02,                    //  Feature (Data,Var,Abs)             238
# 0x85, 0xf1,                    //  Report ID (241)                    240
# 0x09, 0x31,                    //  Usage (Vendor Usage 0x31)          242
# 0x95, 0x3f,                    //  Report Count (63)                  244
# 0xb1, 0x02,                    //  Feature (Data,Var,Abs)             246
# 0x85, 0xf2,                    //  Report ID (242)                    248
# 0x09, 0x32,                    //  Usage (Vendor Usage 0x32)          250
# 0x95, 0x0f,                    //  Report Count (15)                  252
# 0xb1, 0x02,                    //  Feature (Data,Var,Abs)             254
# 0x85, 0xf4,                    //  Report ID (244)                    256
# 0x09, 0x35,                    //  Usage (Vendor Usage 0x35)          258
# 0x95, 0x3f,                    //  Report Count (63)                  260
# 0xb1, 0x02,                    //  Feature (Data,Var,Abs)             262
# 0x85, 0xf5,                    //  Report ID (245)                    264
# 0x09, 0x36,                    //  Usage (Vendor Usage 0x36)          266
# 0x95, 0x03,                    //  Report Count (3)                   268
# 0xb1, 0x02,                    //  Feature (Data,Var,Abs)             270
# 0xc0,                          // End Collection                      272
# 
R: 273 05 01 09 05 a1 01 85 01 09 30 09 31 09 32 09 35 09 33 09 34 15 00 26 ff 00 75 08 95 06 81 02 06 00 ff 09 20 95 01 81 02 05 01 09 39 15 00 25 07 35 00 46 3b 01 65 14 75 04 95 01 81 42 65 00 05 09 19 01 29 0f 15 00 25 01 75 01 95 0f 81 02 06 00 ff 09 21 95 0d 81 02 06 00 ff 09 22 15 00 26 ff 00 75 08 95 34 81 02 85 02 09 23 95 2f 91 02 85 05 09 33 95 28 b1 02 85 08 09 34 95 2f b1 02 85 09 09 24 95 13 b1 02 85 0a 09 25 95 1a b1 02 85 20 09 26 95 3f b1 02 85 21 09 27 95 04 b1 02 85 22 09 40 95 3f b1 02 85 80 09 28 95 3f b1 02 85 81 09 29 95 3f b1 02 85 82 09 2a 95 09 b1 02 85 83 09 2b 95 3f b1 02 85 84 09 2c 95 3f b1 02 85 85 09 2d 95 02 b1 02 85 a0 09 2e 95 01 b1 02 85 e0 09 2f 95 3f b1 02 85 f0 09 30 95 3f b1 02 85 f1 09 31 95 3f b1 02 85 f2 09 32 95 0f b1 02 85 f4 09 35 95 3f b1 02 85 f5 09 36 95 03 b1 02 c0
N: Sony Interactive Entertainment DualSense Wireless Controller
I: 3 054c 0ce6
# ReportID: 1 / X:  128 | Y:  126 | Z:  128 | Rz:  129 | Rx:    0 | Ry:    0 | 0xff000020:  231 | Hat switch:   8 | Button: 0  0  0  0  0  0  0  0  0  0  0  0  0  0  0 | 0xff000021: 0 , 0 , 0 , 0 , 0 , 0 , 0 , 0 , 0 , 0 , 0 , 0 , 0 | 0xff000022:  196 ,  211 ,   42 ,  235 ,  246 ,  255 ,  238 ,  255 ,    9 ,    0 ,   57 ,    0 ,   31 ,   31 ,   49 ,    5 ,   13 ,  191 ,   35 ,  235 ,    9 ,  137 ,   28 ,  224 ,   30 ,  128 ,    0 ,    0 ,    0 ,   68 ,    9 ,    9 ,    0 ,    0 ,    0 ,    0 ,    0 ,  249 ,  223 ,   35 ,  235 ,   40 ,    8 ,    0 ,   64 ,    6 ,  112 ,  192 ,  178 ,   15 ,   21 ,   54 
E: 000000.000000 64 01 80 7e 80 81 00 00 e7 08 00 00 00 c4 d3 2a eb f6 ff ee ff 09 00 39 00 1f 1f 31 05 0d bf 23 eb 09 89 1c e0 1e 80 00 00 00 44 09 09 00 00 00 00 00 f9 df 23 eb 28 08 00 40 06 70 c0 b2 0f 15 36
# ReportID: 1 / X:  128 | Y:  126 | Z:  129 | Rz:  129 | Rx:    0 | Ry:    0 | 0xff000020:  232 | Hat switch:   8 | Button: 0  0  0  0  0  0  0  0  0  0  0  0  0  0  0 | 0xff000021: 0 , 0 , 0 , 0 , 0 , 0 , 0 , 0 , 0 , 0 , 0 , 0 , 0 | 0xff000022:  197 ,  211 ,   42 ,  235 ,  249 ,  255 ,  237 ,  255 ,    9 ,    0 ,   51 ,    0 ,   37 ,   31 ,   49 ,    5 ,    0 ,  238 ,   35 ,  235 ,    9 ,  137 ,   28 ,  224 ,   30 ,  128 ,    0 ,    0 ,    0 ,   68 ,    9 ,    9 ,    0 ,    0 ,    0 ,    0 ,    0 ,  217 ,   14 ,   36 ,  235 ,   40 ,    8 ,    0 ,  230 ,   42 ,  165 ,  212 ,  135 ,   98 ,   81 ,   69 
E: 000000.001253 64 01 80 7e 81 81 00 00 e8 08 00 00 00 c5 d3 2a eb f9 ff ed ff 09 00 33 00 25 1f 31 05 00 ee 23 eb 09 89 1c e0 1e 80 00 00 00 44 09 09 00 00 00 00 00 d9 0e 24 eb 28 08 00 e6 2a a5 d4 87 62 51 45
# ReportID: 1 / X:  128 | Y:  126 | Z:  129 | Rz:  129 | Rx:    0 | Ry:    0 | 0xff000020:  233 | Hat switch:   8 | Button: 0  0  0  0  0  0  0  0  0  0  0  0  0  0  0 | 0xff000021: 0 , 0 , 0 , 0 , 0 , 0 , 0 , 0 , 0 , 0 , 0 , 0 , 0 | 0xff000022:  198 ,  211 ,   42 ,  235 ,  247 ,  255 ,  239 ,  255 ,   10 ,    0 ,   61 ,    0 ,  120 ,   31 ,   51 ,    5 ,  243 ,   28 ,   36 ,  235 ,    9 ,  137 ,   28 ,  224 ,   30 ,  128 ,    0 ,    0 ,    0 ,   68 ,    9 ,    9 ,    0 ,    0 ,    0 ,    0 ,    0 ,  185 ,   61 ,   36 ,  235 ,   40 ,    8 ,    0 ,  189 ,  132 ,   72 ,   16 ,  170 ,   99 ,  104 ,  205 
E: 000000.006362 64 01 80 7e 81 81 00 00 e9 08 00 00 00 c6 d3 2a eb f7 ff ef ff 0a 00 3d 00 78 1f 33 05 f3 1c 24 eb 09 89 1c e0 1e 80 00 00 00 44 09 09 00 00 00 00 00 b9 3d 24 eb 28 08 00 bd 84 48 10 aa 63 68 cd
# ReportID: 1 / X:  128 | Y:  126 | Z:  129 | Rz:  129 | Rx:    0 | Ry:    0 | 0xff000020:  234 | Hat switch:   8 | Button: 0  0  0  0  0  0  0  0  0  0  0  0  0  0  0 | 0xff000021: 0 , 0 , 0 , 0 , 0 , 0 , 0 , 0 , 0 , 0 , 0 , 0 , 0 | 0xff000022:  199 ,  211 ,   42 ,  235 ,  247 ,  255 ,  237 ,  255 ,   11 ,    0 ,   54 ,    0 ,  114 ,   31 ,   63 ,    5 ,  230 ,   75 ,   36 ,  235 ,    9 ,  137 ,   28 ,  224 ,   30 ,  128 ,    0 ,    0 ,    0 ,   68 ,    9 ,    9 ,    0 ,    0 ,    0 ,    0 ,    0 ,  153 ,  108 ,   36 ,  235 ,   40 ,    8 ,    0 ,  167 ,   94 ,   83 ,   59 ,  248 ,    6 ,   97 ,   54 
E: 000000.009026 64 01 80 7e 81 81 00 00 ea 08 00 00 00 c7 d3 2a eb f7 ff ed ff 0b 00 36 00 72 1f 3f 05 e6 4b 24 eb 09 89 1c e0 1e 80 00 00 00 44 09 09 00 00 00 00 00 99 6c 24 eb 28 08 00 a7 5e 53 3b f8 06 61 36
# ReportID: 1 / X:  128 | Y:  126 | Z:  129 | Rz:  129 | Rx:    0 | Ry:    0 | 0xff000020:  235 | Hat switch:   8 | Button: 0  0  0  0  0  0  0  0  0  0  0  0  0  0  0 | 0xff000021: 0 , 0 , 0 , 0 , 0 , 0 , 0 , 0 , 0 , 0 , 0 , 0 , 0 | 0xff000022:  200 ,  211 ,   42 ,  235 ,  248 ,  255 ,  238 ,  255 ,   11 ,    0 ,   42 ,    0 ,   93 ,   31 ,   47 ,    5 ,  217 ,  122 ,   36 ,  235 ,    9 ,  137 ,   28 ,  224 ,   30 ,  128 ,    0 ,    0 ,    0 ,   68 ,    9 ,    9 ,    0 ,    0 ,    0 ,    0 ,    0 ,  121 ,  155 ,   36 ,  235 ,   40 ,    8 ,    0 ,   59 ,  224 ,  143 ,   17 ,   65 ,  116 ,  217 ,  148 
E: 000000.013035 64 01 80 7e 81 81 00 00 eb 08 00 00 00 c8 d3 2a eb f8 ff ee ff 0b 00 2a 00 5d 1f 2f 05 d9 7a 24 eb 09 89 1c e0 1e 80 00 00 00 44 09 09 00 00 00 00 00 79 9b 24 eb 28 08 00 3b e0 8f 11 41 74 d9 94
# ReportID: 1 / X:  128 | Y:  126 | Z:  128 | Rz:  129 | Rx:    0 | Ry:    0 | 0xff000020:  236 | Hat switch:   8 | Button: 0  0  0  0  0  0  0  0  0  0  0  0  0  0  0 | 0xff000021: 0 , 0 , 0 , 0 , 0 , 0 , 0 , 0 , 0 , 0 , 0 , 0 , 0 | 0xff000022:  201 ,  211 ,   42 ,  235 ,  247 ,  255 ,  238 ,  255 ,   11 ,    0 ,   53 ,    0 ,  112 ,   31 ,   44 ,    5 ,  205 ,  169 ,   36 ,  235 ,    9 ,  137 ,   28 ,  224 ,   30 ,  128 ,    0 ,    0 ,    0 ,   68 ,    9 ,    9 ,    0 ,    0 ,    0 ,    0 ,    0 ,   89 ,  202 ,   36 ,  235 ,   40 ,    8 ,    0 ,  199 ,   84 ,  218 ,  133 ,   91 ,  103 ,   38 ,   74 
E: 000000.017667 64 01 80 7e 80 81 00 00 ec 08 00 00 00 c9 d3 2a eb f7 ff ee ff 0b 00 35 00 70 1f 2c 05 cd a9 24 eb 09 89 1c e0 1e 80 00 00 00 44 09 09 00 00 00 00 00 59 ca 24 eb 28 08 00 c7 54 da 85 5b 67 26 4a
# ReportID: 1 / X:  128 | Y:  126 | Z:  129 | Rz:  129 | Rx:    0 | Ry:    0 | 0xff000020:  237 | Hat switch:   8 | Button: 0  0  0  0  0  0  0  0  0  0  0  0  0  0  0 | 0xff000021: 0 , 0 , 0 , 0 , 0 , 0 , 0 , 0 , 0 , 0 , 0 , 0 , 0 | 0xff000022:  202 ,  211 ,   42 ,  235 ,  246 ,  255 ,  237 ,  255 ,   11 ,    0 ,   56 ,    0 ,   83 ,   31 ,   58 ,    5 ,  192 ,  216 ,   36 ,  235 ,    9 ,  137 ,   28 ,  224 ,   30 ,  128 ,    0 ,    0 ,    0 ,   68 ,    9 ,    9 ,    0 ,    0 ,    0 ,    0 ,    0 ,   57 ,  249 ,   36 ,  235 ,   40 ,    8 ,    0 ,  244 ,  249 ,  110 ,   18 ,  202 ,   82 ,  150 ,  239 
E: 000000.021793 64 01 80 7e 81 81 00 00 ed 08 00 00 00 ca d3 2a eb f6 ff ed ff 0b 00 38 00 53 1f 3a 05 c0 d8 24 eb 09 89 1c e0 1e 80 00 00 00 44 09 09 00 00 00 00 00 39 f9 24 eb 28 08 00 f4 f9 6e 12 ca 52 96 ef
# ReportID: 1 / X:  128 | Y:  126 | Z:  129 | Rz:  129 | Rx:    0 | Ry:    0 | 0xff000020:  238 | Hat switch:   8 | Button: 0  0  0  0  0  0  0  0  0  0  0  0  0  0  0 | 0xff000021: 0 , 0 , 0 , 0 , 0 , 0 , 0 , 0 , 0 , 0 , 0 , 0 , 0 | 0xff000022:  203 ,  211 ,   42 ,  235 ,  248 ,  255 ,  239 ,  255 ,   10 ,    0 ,   42 ,    0 ,   31 ,   31 ,   62 ,    5 ,  179 ,    7 ,   37 ,  235 ,    9 ,  137 ,   28 ,  224 ,   30 ,  128 ,    0 ,    0 ,    0 ,   68 ,    9 ,    9 ,    0 ,    0 ,    0 ,    0 ,    0 ,   25 ,   40 ,   37 ,  235 ,   40 ,    8 ,    0 ,   72 ,   54 ,  178 ,   72 ,   99 ,   35 ,   82 ,  241 
E: 000000.025459 64 01 80 7e 81 81 00 00 ee 08 00 00 00 cb d3 2a eb f8 ff ef ff 0a 00 2a 00 1f 1f 3e 05 b3 07 25 eb 09 89 1c e0 1e 80 00 00 00 44 09 09 00 00 00 00 00 19 28 25 eb 28 08 00 48 36 b2 48 63 23 52 f1
# ReportID: 1 / X:  128 | Y:  126 | Z:  128 | Rz:  129 | Rx:    0 | Ry:    0 | 0xff000020:  239 | Hat switch:   8 | Button: 0  0  0  0  0  0  0  0  0  0  0  0  0  0  0 | 0xff000021: 0 , 0 , 0 , 0 , 0 , 0 , 0 , 0 , 0 , 0 , 0 , 0 , 0 | 0xff000022:  204 ,  211 ,   42 ,  235 ,  248 ,  255 ,  238 ,  255 ,   11 ,    0 ,   52 ,    0 ,   62 ,   31 ,   46 ,    5 ,  166 ,   54 ,   37 ,  235 ,    9 ,  137 ,   28 ,  224 ,   30 ,  128 ,    0 ,    0 ,    0 ,   68 ,    9 ,    9 ,    0 ,    0 ,    0 ,    0 ,    0 ,  249 ,   86 ,   37 ,  235 ,   40 ,    8 ,    0 ,  197 ,  194 ,   31 ,  130 ,   36 ,  144 ,   80 ,  219 
E: 000000.029344 64 01 80 7e 80 81 00 00 ef 08 00 00 00 cc d3 2a eb f8 ff ee ff 0b 00 34 00 3e 1f 2e 05 a6 36 25 eb 09 89 1c e0 1e 80 00 00 00 44 09 09 00 00 00 00 00 f9 56 25 eb 28 08 00 c5 c2 1f 82 24 90 50 db
# ReportID: 1 / X:  128 | Y:  126 | Z:  129 | Rz:  129 | Rx:    0 | Ry:    0 | 0xff000020:  240 | Hat switch:   8 | Button: 0  0  0  0  0  0  0  0  0  0  0  0  0  0  0 | 0xff000021: 0 , 0 , 0 , 0 , 0 , 0 , 0 , 0 , 0 , 0 , 0 , 0 , 0 | 0xff000022:  205 ,  211 ,   42 ,  235 ,  247 ,  255 ,  238 ,  255 ,   10 ,    0 ,   53 ,    0 ,  114 ,   31 ,   52 ,    5 ,  153 ,  101 ,   37 ,  235 ,    8 ,  137 ,   28 ,  224 ,   30 ,  128 ,    0 ,    0 ,    0 ,   68 ,    9 ,    9 ,    0 ,    0 ,    0 ,    0 ,    0 ,  217 ,  133 ,   37 ,  235 ,   40 ,    8 ,    0 ,   32 ,  142 ,  142 ,  123 ,   73 ,  226 ,   48 ,  140 
E: 000000.033410 64 01 80 7e 81 81 00 00 f0 08 00 00 00 cd d3 2a eb f7 ff ee ff 0a 00 35 00 72 1f 34 05 99 65 25 eb 08 89 1c e0 1e 80 00 00 00 44 09 09 00 00 00 00 00 d9 85 25 eb 28 08 00 20 8e 8e 7b 49 e2 30 8c
# ReportID: 1 / X:  128 | Y:  126 | Z:  129 | Rz:  129 | Rx:    0 | Ry:    0 | 0xff000020:  241 | Hat switch:   8 | Button: 0  0  0  0  0  0  0  0  0  0  0  0  0  0  0 | 0xff000021: 0 , 0 , 0 , 0 , 0 , 0 , 0 , 0 , 0 , 0 , 0 , 0 , 0 | 0xff000022:  206 ,  211 ,   42 ,  235 ,  249 ,  255 ,  238 ,  255 ,    9 ,    0 ,   47 ,    0 ,  103 ,   31 ,   74 ,    5 ,  141 ,  148 ,   37 ,  235 ,    9 ,  137 ,   28 ,  224 ,   30 ,  128 ,    0 ,    0 ,    0 ,   68 ,    9 ,    9 ,    0 ,    0 ,    0 ,    0 ,    0 ,  185 ,  180 ,   37 ,  235 ,   40 ,    8 ,    0 ,  227 ,   82 ,   64 ,  152 ,  137 ,  126 ,  190 ,  198 
E: 000000.037135 64 01 80 7e 81 81 00 00 f1 08 00 00 00 ce d3 2a eb f9 ff ee ff 09 00 2f 00 67 1f 4a 05 8d 94 25 eb 09 89 1c e0 1e 80 00 00 00 44 09 09 00 00 00 00 00 b9 b4 25 eb 28 08 00 e3 52 40 98 89 7e be c6
# ReportID: 1 / X:  128 | Y:  126 | Z:  129 | Rz:  129 | Rx:    0 | Ry:    0 | 0xff000020:  242 | Hat switch:   8 | Button: 0  0  0  0  0  0  0  0  0  0  0  0  0  0  0 | 0xff000021: 0 , 0 , 0 , 0 , 0 , 0 , 0 , 0 , 0 , 0 , 0 , 0 , 0 | 0xff000022:  207 ,  211 ,   42 ,  235 ,  248 ,  255 ,  238 ,  255 ,   10 ,    0 ,   54 ,    0 ,   98 ,   31 ,   60 ,    5 ,  128 ,  195 ,   37 ,  235 ,    9 ,  137 ,   28 ,  224 ,   30 ,  128 ,    0 ,    0 ,    0 ,   68 ,    9 ,    9 ,    0 ,    0 ,    0 ,    0 ,    0 ,  153 ,  227 ,   37 ,  235 ,   40 ,    8 ,    0 ,  163 ,  233 ,  195 ,   30 ,   59 ,   41 ,  232 ,  106 
E: 000000.041801 64 01 80 7e 81 81 00 00 f2 08 00 00 00 cf d3 2a eb f8 ff ee ff 0a 00 36 00 62 1f 3c 05 80 c3 25 eb 09 89 1c e0 1e 80 00 00 00 44 09 09 00 00 00 00 00 99 e3 25 eb 28 08 00 a3 e9 c3 1e 3b 29 e8 6a
# ReportID: 1 / X:  128 | Y:  126 | Z:  128 | Rz:  129 | Rx:    0 | Ry:    0 | 0xff000020:  243 | Hat switch:   8 | Button: 0  0  0  0  0  0  0  0  0  0  0  0  0  0  0 | 0xff000021: 0 , 0 , 0 , 0 , 0 , 0 , 0 , 0 , 0 , 0 , 0 , 0 , 0 | 0xff000022:  208 ,  211 ,   42 ,  235 ,  246 ,  255 ,  238 ,  255 ,   10 ,    0 ,   40 ,    0 ,   93 ,   31 ,   57 ,    5 ,  115 ,  242 ,   37 ,  235 ,    9 ,  137 ,   28 ,  224 ,   30 ,  128 ,    0 ,    0 ,    0 ,   68 ,    9 ,    9 ,    0 ,    0 ,    0 ,    0 ,    0 ,  121 ,   18 ,   38 ,  235 ,   40 ,    8 ,    0 ,  151 ,  186 ,    1 ,  216 ,  109 ,    0 ,  122 ,  255 
E: 000000.045358 64 01 80 7e 80 81 00 00 f3 08 00 00 00 d0 d3 2a eb f6 ff ee ff 0a 00 28 00 5d 1f 39 05 73 f2 25 eb 09 89 1c e0 1e 80 00 00 00 44 09 09 00 00 00 00 00 79 12 26 eb 28 08 00 97 ba 01 d8 6d 00 7a ff
# ReportID: 1 / X:  128 | Y:  126 | Z:  129 | Rz:  129 | Rx:    0 | Ry:    0 | 0xff000020:  244 | Hat switch:   8 | Button: 0  0  0  0  0  0  0  0  0  0  0  0  0  0  0 | 0xff000021: 0 , 0 , 0 , 0 , 0 , 0 , 0 , 0 , 0 , 0 , 0 , 0 , 0 | 0xff000022:  209 ,  211 ,   42 ,  235 ,  246 ,  255 ,  239 ,  255 ,   11 ,    0 ,   52 ,    0 ,   72 ,   31 ,   53 ,    5 ,  102 ,   33 ,   38 ,  235 ,    9 ,  137 ,   28 ,  224 ,   30 ,  128 ,    0 ,    0 ,    0 ,   68 ,    9 ,    9 ,    0 ,    0 ,    0 ,    0 ,    0 ,   89 ,   65 ,   38 ,  235 ,   40 ,    8 ,    0 ,   27 ,   88 ,   75 ,    7 ,  212 ,  138 ,   47 ,  206 
E: 000000.049390 64 01 80 7e 81 81 00 00 f4 08 00 00 00 d1 d3 2a eb f6 ff ef ff 0b 00 34 00 48 1f 35 05 66 21 26 eb 09 89 1c e0 1e 80 00 00 00 44 09 09 00 00 00 00 00 59 41 26 eb 28 08 00 1b 58 4b 07 d4 8a 2f ce
# ReportID: 1 / X:  128 | Y:  126 | Z:  128 | Rz:  129 | Rx:    0 | Ry:    0 | 0xff000020:  245 | Hat switch:   8 | Button: 0  0  0  0  0  0  0  0  0  0  0  0  0  0  0 | 0xff000021: 0 , 0 , 0 , 0 , 0 , 0 , 0 , 0 , 0 , 0 , 0 , 0 , 0 | 0xff000022:  210 ,  211 ,   42 ,  235 ,  248 ,  255 ,  238 ,  255 ,   11 ,    0 ,   47 ,    0 ,   65 ,   31 ,   54 ,    5 ,   89 ,   80 ,   38 ,  235 ,    8 ,  137 ,   28 ,  224 ,   30 ,  128 ,    0 ,    0 ,    0 ,   68 ,    9 ,    9 ,    0 ,    0 ,    0 ,    0 ,    0 ,   57 ,  112 ,   38 ,  235 ,   40 ,    8 ,    0 ,  215 ,   65 ,  227 ,   51 ,    8 ,   49 ,  149 ,  225 
E: 000000.053380 64 01 80 7e 80 81 00 00 f5 08 00 00 00 d2 d3 2a eb f8 ff ee ff 0b 00 2f 00 41 1f 36 05 59 50 26 eb 08 89 1c e0 1e 80 00 00 00 44 09 09 00 00 00 00 00 39 70 26 eb 28 08 00 d7 41 e3 33 08 31 95 e1
# ReportID: 1 / X:  128 | Y:  126 | Z:  128 | Rz:  129 | Rx:    0 | Ry:    0 | 0xff000020:  246 | Hat switch:   8 | Button: 0  0  0  0  0  0  0  0  0  0  0  0  0  0  0 | 0xff000021: 0 , 0 , 0 , 0 , 0 , 0 , 0 , 0 , 0 , 0 , 0 , 0 , 0 | 0xff000022:  211 ,  211 ,   42 ,  235 ,  247 ,  255 ,  238 ,  255 ,   10 ,    0 ,   45 ,    0 ,   91 ,   31 ,   49 ,    5 ,   76 ,  127 ,   38 ,  235 ,    9 ,  137 ,   28 ,  224 ,   30 ,  128 ,    0 ,    0 ,    0 ,   68 ,    9 ,    9 ,    0 ,    0 ,    0 ,    0 ,    0 ,   25 ,  159 ,   38 ,  235 ,   40 ,    8 ,    0 ,  230 ,   69 ,  179 ,  169 ,   33 ,   42 ,  136 ,   15 
E: 000000.058187 64 01 80 7e 80 81 00 00 f6 08 00 00 00 d3 d3 2a eb f7 ff ee ff 0a 00 2d 00 5b 1f 31 05 4c 7f 26 eb 09 89 1c e0 1e 80 00 00 00 44 09 09 00 00 00 00 00 19 9f 26 eb 28 08 00 e6 45 b3 a9 21 2a 88 0f
# ReportID: 1 / X:  128 | Y:  126 | Z:  128 | Rz:  129 | Rx:    0 | Ry:    0 | 0xff000020:  247 | Hat switch:   8 | Button: 0  0  0  0  0  0  0  0  0  0  0  0  0  0  0 | 0xff000021: 0 , 0 , 0 , 0 , 0 , 0 , 0 , 0 , 0 , 0 , 0 , 0 , 0 | 0xff000022:  212 ,  211 ,   42 ,  235 ,  247 ,  255 ,  238 ,  255 ,   10 ,    0 ,   43 ,    0 ,  102 ,   31 ,   52 ,    5 ,   64 ,  174 ,   38 ,  235 ,    9 ,  137 ,   28 ,  224 ,   30 ,  128 ,    0 ,    0 ,    0 ,   68 ,    9 ,    9 ,    0 ,    0 ,    0 ,    0 ,    0 ,  249 ,  205 ,   38 ,  235 ,   40 ,    8 ,    0 ,  140 ,  115 ,  132 ,  204 ,  112 ,  209 ,  208 ,   46 
E: 000000.061866 64 01 80 7e 80 81 00 00 f7 08 00 00 00 d4 d3 2a eb f7 ff ee ff 0a 00 2b 00 66 1f 34 05 40 ae 26 eb 09 89 1c e0 1e 80 00 00 00 44 09 09 00 00 00 00 00 f9 cd 26 eb 28 08 00 8c 73 84 cc 70 d1 d0 2e
# ReportID: 1 / X:  128 | Y:  126 | Z:  129 | Rz:  129 | Rx:    0 | Ry:    0 | 0xff000020:  248 | Hat switch:   8 | Button: 0  0  0  0  0  0  0  0  0  0  0  0  0  0  0 | 0xff000021: 0 , 0 , 0 , 0 , 0 , 0 , 0 , 0 , 0 , 0 , 0 , 0 , 0 | 0xff000022:  213 ,  211 ,   42 ,  235 ,  247 ,  255 ,  238 ,  255 ,   10 ,    0 ,   43 ,    0 ,  104 ,   31 ,   53 ,    5 ,   51 ,  221 ,   38 ,  235 ,    8 ,  137 ,   28 ,  224 ,   30 ,  128 ,    0 ,    0 ,    0 ,   68 ,    9 ,    9 ,    0 ,    0 ,    0 ,    0 ,    0 ,  217 ,  252 ,   38 ,  235 ,   40 ,    8 ,    0 ,   52 ,    5 ,  106 ,   40 ,  242 ,  236 ,  128 ,   32 
E: 000000.065691 64 01 80 7e 81 81 00 00 f8 08 00 00 00 d5 d3 2a eb f7 ff ee ff 0a 00 2b 00 68 1f 35 05 33 dd 26 eb 08 89 1c e0 1e 80 00 00 00 44 09 09 00 00 00 00 00 d9 fc 26 eb 28 08 00 34 05 6a 28 f2 ec 80 20
# ReportID: 1 / X:  128 | Y:  126 | Z:  129 | Rz:  129 | Rx:    0 | Ry:    0 | 0xff000020:  249 | Hat switch:   8 | Button: 0  0  0  0  0  0  0  0  0  0  0  0  0  0  0 | 0xff000021: 0 , 0 , 0 , 0 , 0 , 0 , 0 , 0 , 0 , 0 , 0 , 0 , 0 | 0xff000022:  214 ,  211 ,   42 ,  235 ,  247 ,  255 ,  238 ,  255 ,   10 ,    0 ,   37 ,    0 ,   88 ,   31 ,   52 ,    5 ,   38 ,   12 ,   39 ,  235 ,    9 ,  137 ,   28 ,  224 ,   30 ,  128 ,    0 ,    0 ,    0 ,   68 ,    9 ,    9 ,    0 ,    0 ,    0 ,    0 ,    0 ,  185 ,   43 ,   39 ,  235 ,   40 ,    8 ,    0 ,  151 ,   61 ,  213 ,   19 ,   91 ,  239 ,  205 ,   67 
E: 000000.069555 64 01 80 7e 81 81 00 00 f9 08 00 00 00 d6 d3 2a eb f7 ff ee ff 0a 00 25 00 58 1f 34 05 26 0c 27 eb 09 89 1c e0 1e 80 00 00 00 44 09 09 00 00 00 00 00 b9 2b 27 eb 28 08 00 97 3d d5 13 5b ef cd 43
# ReportID: 1 / X:  128 | Y:  126 | Z:  129 | Rz:  129 | Rx:    0 | Ry:    0 | 0xff000020:  250 | Hat switch:   8 | Button: 0  0  0  0  0  0  0  0  0  0  0  0  0  0  0 | 0xff000021: 0 , 0 , 0 , 0 , 0 , 0 , 0 , 0 , 0 , 0 , 0 , 0 , 0 | 0xff000022:  215 ,  211 ,   42 ,  235 ,  248 ,  255 ,  239 ,  255 ,   11 ,    0 ,   37 ,    0 ,   93 ,   31 ,   42 ,    5 ,   25 ,   59 ,   39 ,  235 ,    9 ,  137 ,   28 ,  224 ,   30 ,  128 ,    0 ,    0 ,    0 ,   68 ,    9 ,    9 ,    0 ,    0 ,    0 ,    0 ,    0 ,  153 ,   90 ,   39 ,  235 ,   40 ,    8 ,    0 ,  230 ,   12 ,    6 ,  177 ,  220 ,  203 ,  125 ,   31 
E: 000000.073224 64 01 80 7e 81 81 00 00 fa 08 00 00 00 d7 d3 2a eb f8 ff ef ff 0b 00 25 00 5d 1f 2a 05 19 3b 27 eb 09 89 1c e0 1e 80 00 00 00 44 09 09 00 00 00 00 00 99 5a 27 eb 28 08 00 e6 0c 06 b1 dc cb 7d 1f
# ReportID: 1 / X:  128 | Y:  126 | Z:  128 | Rz:  129 | Rx:    0 | Ry:    0 | 0xff000020:  251 | Hat switch:   8 | Button: 0  0  0  0  0  0  0  0  0  0  0  0  0  0  0 | 0xff000021: 0 , 0 , 0 , 0 , 0 , 0 , 0 , 0 , 0 , 0 , 0 , 0 , 0 | 0xff000022:  216 ,  211 ,   42 ,  235 ,  246 ,  255 ,  239 ,  255 ,   10 ,    0 ,   50 ,    0 ,   87 ,   31 ,   40 ,    5 ,   12 ,  106 ,   39 ,  235 ,    9 ,  137 ,   28 ,  224 ,   30 ,  128 ,    0 ,    0 ,    0 ,   68 ,    9 ,    9 ,    0 ,    0 ,    0 ,    0 ,    0 ,  121 ,  137 ,   39 ,  235 ,   40 ,    8 ,    0 ,  233 ,   37 ,   33 ,    3 ,   35 ,  103 ,   81 ,  190 
E: 000000.077197 64 01 80 7e 80 81 00 00 fb 08 00 00 00 d8 d3 2a eb f6 ff ef ff 0a 00 32 00 57 1f 28 05 0c 6a 27 eb 09 89 1c e0 1e 80 00 00 00 44 09 09 00 00 00 00 00 79 89 27 eb 28 08 00 e9 25 21 03 23 67 51 be
# ReportID: 1 / X:  128 | Y:  126 | Z:  128 | Rz:  129 | Rx:    0 | Ry:    0 | 0xff000020:  252 | Hat switch:   8 | Button: 0  0  0  0  0  0  0  0  0  0  0  0  0  0  0 | 0xff000021: 0 , 0 , 0 , 0 , 0 , 0 , 0 , 0 , 0 , 0 , 0 , 0 , 0 | 0xff000022:  217 ,  211 ,   42 ,  235 ,  247 ,  255 ,  238 ,  255 ,   10 ,    0 ,   48 ,    0 ,   82 ,   31 ,   44 ,    5 ,    0 ,  153 ,   39 ,  235 ,    9 ,  137 ,   28 ,  224 ,   30 ,  128 ,    0 ,    0 ,    0 ,   68 ,    9 ,    9 ,    0 ,    0 ,    0 ,    0 ,    0 ,   89 ,  184 ,   39 ,  235 ,   40 ,    8 ,    0 ,  123 ,   17 ,  166 ,   26 ,   57 ,   61 ,  179 ,   57 
E: 000000.081185 64 01 80 7e 80 81 00 00 fc 08 00 00 00 d9 d3 2a eb f7 ff ee ff 0a 00 30 00 52 1f 2c 05 00 99 27 eb 09 89 1c e0 1e 80 00 00 00 44 09 09 00 00 00 00 00 59 b8 27 eb 28 08 00 7b 11 a6 1a 39 3d b3 39
# ReportID: 1 / X:  128 | Y:  126 | Z:  129 | Rz:  129 | Rx:    0 | Ry:    0 | 0xff000020:  253 | Hat switch:   8 | Button: 0  0  0  0  0  0  0  0  0  0  0  0  0  0  0 | 0xff000021: 0 , 0 , 0 , 0 , 0 , 0 , 0 , 0 , 0 , 0 , 0 , 0 , 0 | 0xff000022:  218 ,  211 ,   42 ,  235 ,  247 ,  255 ,  238 ,  255 ,   11 ,    0 ,   50 ,    0 ,   74 ,   31 ,   45 ,    5 ,  243 ,  199 ,   39 ,  235 ,    8 ,  137 ,   28 ,  224 ,   30 ,  128 ,    0 ,    0 ,    0 ,   68 ,    9 ,    9 ,    0 ,    0 ,    0 ,    0 ,    0 ,   60 ,  231 ,   39 ,  235 ,   40 ,    8 ,    0 ,  132 ,  238 ,   57 ,  128 ,   68 ,  183 ,  222 ,  229 
E: 000000.085949 64 01 80 7e 81 81 00 00 fd 08 00 00 00 da d3 2a eb f7 ff ee ff 0b 00 32 00 4a 1f 2d 05 f3 c7 27 eb 08 89 1c e0 1e 80 00 00 00 44 09 09 00 00 00 00 00 3c e7 27 eb 28 08 00 84 ee 39 80 44 b7 de e5
# ReportID: 1 / X:  128 | Y:  126 | Z:  128 | Rz:  129 | Rx:    0 | Ry:    0 | 0xff000020:  254 | Hat switch:   8 | Button: 0  0  0  0  0  0  0  0  0  0  0  0  0  0  0 | 0xff000021: 0 , 0 , 0 , 0 , 0 , 0 , 0 , 0 , 0 , 0 , 0 , 0 , 0 | 0xff000022:  219 ,  211 ,   42 ,  235 ,  247 ,  255 ,  238 ,  255 ,   10 ,    0 ,   50 ,    0 ,   88 ,   31 ,   47 ,    5 ,  230 ,  246 ,   39 ,  235 ,    9 ,  137 ,   28 ,  224 ,   30 ,  128 ,    0 ,    0 ,    0 ,   68 ,    9 ,    9 ,    0 ,    0 ,    0 ,    0 ,    0 ,   25 ,   22 ,   40 ,  235 ,   40 ,    8 ,    0 ,   19 ,  172 ,  210 ,   23 ,  181 ,  169 ,  171 ,   39 
E: 000000.089502 64 01 80 7e 80 81 00 00 fe 08 00 00 00 db d3 2a eb f7 ff ee ff 0a 00 32 00 58 1f 2f 05 e6 f6 27 eb 09 89 1c e0 1e 80 00 00 00 44 09 09 00 00 00 00 00 19 16 28 eb 28 08 00 13 ac d2 17 b5 a9 ab 27
# ReportID: 1 / X:  128 | Y:  126 | Z:  128 | Rz:  129 | Rx:    0 | Ry:    0 | 0xff000020:  255 | Hat switch:   8 | Button: 0  0  0  0  0  0  0  0  0  0  0  0  0  0  0 | 0xff000021: 0 , 0 , 0 , 0 , 0 , 0 , 0 , 0 , 0 , 0 , 0 , 0 , 0 | 0xff000022:  220 ,  211 ,   42 ,  235 ,  247 ,  255 ,  239 ,  255 ,   10 ,    0 ,   52 ,    0 ,   94 ,   31 ,   50 ,    5 ,  217 ,   37 ,   40 ,  235 ,    9 ,  137 ,   28 ,  224 ,   30 ,  128 ,    0 ,    0 ,    0 ,   68 ,    9 ,    9 ,    0 ,    0 ,    0 ,    0 ,    0 ,  249 ,   68 ,   40 ,  235 ,   40 ,    8 ,    0 ,   31 ,   51 ,  168 ,  181 ,  141 ,   28 ,  144 ,  142 
E: 000000.095414 64 01 80 7e 80 81 00 00 ff 08 00 00 00 dc d3 2a eb f7 ff ef ff 0a 00 34 00 5e 1f 32 05 d9 25 28 eb 09 89 1c e0 1e 80 00 00 00 44 09 09 00 00 00 00 00 f9 44 28 eb 28 08 00 1f 33 a8 b5 8d 1c 90 8e
# ReportID: 1 / X:  128 | Y:  126 | Z:  129 | Rz:  129 | Rx:    0 | Ry:    0 | 0xff000020:    0 | Hat switch:   8 | Button: 0  0  0  0  0  0  0  0  0  0  0  0  0  0  0 | 0xff000021: 0 , 0 , 0 , 0 , 0 , 0 , 0 , 0 , 0 , 0 , 0 , 0 , 0 | 0xff000022:  221 ,  211 ,   42 ,  235 ,  247 ,  255 ,  239 ,  255 ,    9 ,    0 ,   49 ,    0 ,   80 ,   31 ,   50 ,    5 ,  204 ,   84 ,   40 ,  235 ,    9 ,  137 ,   28 ,  224 ,   30 ,  128 ,    0 ,    0 ,    0 ,   68 ,    9 ,    9 ,    0 ,    0 ,    0 ,    0 ,    0 ,  217 ,  115 ,   40 ,  235 ,   40 ,    8 ,    0 ,   64 ,   56 ,   77 ,   22 ,  244 ,    7 ,   98 ,   34 
E: 000000.097063 64 01 80 7e 81 81 00 00 00 08 00 00 00 dd d3 2a eb f7 ff ef ff 09 00 31 00 50 1f 32 05 cc 54 28 eb 09 89 1c e0 1e 80 00 00 00 44 09 09 00 00 00 00 00 d9 73 28 eb 28 08 00 40 38 4d 16 f4 07 62 22
# ReportID: 1 / X:  128 | Y:  126 | Z:  128 | Rz:  129 | Rx:    0 | Ry:    0 | 0xff000020:    1 | Hat switch:   8 | Button: 0  0  0  0  0  0  0  0  0  0  0  0  0  0  0 | 0xff000021: 0 , 0 , 0 , 0 , 0 , 0 , 0 , 0 , 0 , 0 , 0 , 0 , 0 | 0xff000022:  222 ,  211 ,   42 ,  235 ,  247 ,  255 ,  237 ,  255 ,   10 ,    0 ,   58 ,    0 ,  101 ,   31 ,   49 ,    5 ,  192 ,  131 ,   40 ,  235 ,    9 ,  137 ,   28 ,  224 ,   30 ,  128 ,    0 ,    0 ,    0 ,   68 ,    9 ,    9 ,    0 ,    0 ,    0 ,    0 ,    0 ,  185 ,  162 ,   40 ,  235 ,   40 ,    8 ,    0 ,   99 ,   95 ,  156 ,  237 ,  103 ,  122 ,  176 ,   65 
E: 000000.102370 64 01 80 7e 80 81 00 00 01 08 00 00 00 de d3 2a eb f7 ff ed ff 0a 00 3a 00 65 1f 31 05 c0 83 28 eb 09 89 1c e0 1e 80 00 00 00 44 09 09 00 00 00 00 00 b9 a2 28 eb 28 08 00 63 5f 9c ed 67 7a b0 41
# ReportID: 1 / X:  128 | Y:  126 | Z:  128 | Rz:  129 | Rx:    0 | Ry:    0 | 0xff000020:    2 | Hat switch:   8 | Button: 0  0  0  0  0  0  0  0  0  0  0  0  0  0  0 | 0xff000021: 0 , 0 , 0 , 0 , 0 , 0 , 0 , 0 , 0 , 0 , 0 , 0 , 0 | 0xff000022:  223 ,  211 ,   42 ,  235 ,  246 ,  255 ,  238 ,  255 ,   11 ,    0 ,   72 ,    0 ,  112 ,   31 ,   65 ,    5 ,  179 ,  178 ,   40 ,  235 ,    9 ,  137 ,   28 ,  224 ,   30 ,  128 ,    0 ,    0 ,    0 ,   68 ,    9 ,    9 ,    0 ,    0 ,    0 ,    0 ,    0 ,  153 ,  209 ,   40 ,  235 ,   40 ,    8 ,    0 ,  242 ,  107 ,   33 ,   10 ,   91 ,   54 ,   39 ,   97 
E: 000000.106116 64 01 80 7e 80 81 00 00 02 08 00 00 00 df d3 2a eb f6 ff ee ff 0b 00 48 00 70 1f 41 05 b3 b2 28 eb 09 89 1c e0 1e 80 00 00 00 44 09 09 00 00 00 00 00 99 d1 28 eb 28 08 00 f2 6b 21 0a 5b 36 27 61
# ReportID: 1 / X:  128 | Y:  126 | Z:  129 | Rz:  129 | Rx:    0 | Ry:    0 | 0xff000020:    3 | Hat switch:   8 | Button: 0  0  0  0  0  0  0  0  0  0  0  0  0  0  0 | 0xff000021: 0 , 0 , 0 , 0 , 0 , 0 , 0 , 0 , 0 , 0 , 0 , 0 , 0 | 0xff000022:  224 ,  211 ,   42 ,  235 ,  245 ,  255 ,  238 ,  255 ,   10 ,    0 ,   66 ,    0 ,   65 ,   31 ,   60 ,    5 ,  166 ,  225 ,   40 ,  235 ,    9 ,  137 ,   28 ,  224 ,   30 ,  128 ,    0 ,    0 ,    0 ,   68 ,    9 ,    9 ,    0 ,    0 ,    0 ,    0 ,    0 ,  121 ,    0 ,   41 ,  235 ,   40 ,    8 ,    0 ,  113 ,  162 ,  223 ,  220 ,  207 ,  251 ,   33 ,  125 
E: 000000.109941 64 01 80 7e 81 81 00 00 03 08 00 00 00 e0 d3 2a eb f5 ff ee ff 0a 00 42 00 41 1f 3c 05 a6 e1 28 eb 09 89 1c e0 1e 80 00 00 00 44 09 09 00 00 00 00 00 79 00 29 eb 28 08 00 71 a2 df dc cf fb 21 7d
# ReportID: 1 / X:  128 | Y:  126 | Z:  128 | Rz:  129 | Rx:    0 | Ry:    0 | 0xff000020:    4 | Hat switch:   8 | Button: 0  0  0  0  0  0  0  0  0  0  0  0  0  0  0 | 0xff000021: 0 , 0 , 0 , 0 , 0 , 0 , 0 , 0 , 0 , 0 , 0 , 0 , 0 | 0xff000022:  225 ,  211 ,   42 ,  235 ,  247 ,  255 ,  238 ,  255 ,   11 ,    0 ,   66 ,    0 ,   59 ,   31 ,   58 ,    5 ,  153 ,   16 ,   41 ,  235 ,    9 ,  137 ,   28 ,  224 ,   30 ,  128 ,    0 ,    0 ,    0 ,   68 ,    9 ,    9 ,    0 ,    0 ,    0 ,    0 ,    0 ,   89 ,   47 ,   41 ,  235 ,   40 ,    8 ,    0 ,  245 ,  117 ,  130 ,   13 ,  124 ,   88 ,  109 ,  141 
E: 000000.113865 64 01 80 7e 80 81 00 00 04 08 00 00 00 e1 d3 2a eb f7 ff ee ff 0b 00 42 00 3b 1f 3a 05 99 10 29 eb 09 89 1c e0 1e 80 00 00 00 44 09 09 00 00 00 00 00 59 2f 29 eb 28 08 00 f5 75 82 0d 7c 58 6d 8d
# ReportID: 1 / X:  128 | Y:  126 | Z:  128 | Rz:  129 | Rx:    0 | Ry:    0 | 0xff000020:    5 | Hat switch:   8 | Button: 0  0  0  0  0  0  0  0  0  0  0  0  0  0  0 | 0xff000021: 0 , 0 , 0 , 0 , 0 , 0 , 0 , 0 , 0 , 0 , 0 , 0 , 0 | 0xff000022:  226 ,  211 ,   42 ,  235 ,  246 ,  255 ,  237 ,  255 ,   11 ,    0 ,   66 ,    0 ,   83 ,   31 ,   58 ,    5 ,  140 ,   63 ,   41 ,  235 ,    9 ,  137 ,   28 ,  224 ,   30 ,  128 ,    0 ,    0 ,    0 ,   68 ,    9 ,    9 ,    0 ,    0 ,    0 ,    0 ,    0 ,   57 ,   94 ,   41 ,  235 ,   40 ,    8 ,    0 ,  255 ,  127 ,  200 ,  113 ,   45 ,  254 ,  195 ,  255 
E: 000000.117311 64 01 80 7e 80 81 00 00 05 08 00 00 00 e2 d3 2a eb f6 ff ed ff 0b 00 42 00 53 1f 3a 05 8c 3f 29 eb 09 89 1c e0 1e 80 00 00 00 44 09 09 00 00 00 00 00 39 5e 29 eb 28 08 00 ff 7f c8 71 2d fe c3 ff
# ReportID: 1 / X:  128 | Y:  126 | Z:  128 | Rz:  129 | Rx:    0 | Ry:    0 | 0xff000020:    6 | Hat switch:   8 | Button: 0  0  0  0  0  0  0  0  0  0  0  0  0  0  0 | 0xff000021: 0 , 0 , 0 , 0 , 0 , 0 , 0 , 0 , 0 , 0 , 0 , 0 , 0 | 0xff000022:  227 ,  211 ,   42 ,  235 ,  247 ,  255 ,  238 ,  255 ,   10 ,    0 ,   69 ,    0 ,   78 ,   31 ,   64 ,    5 ,  128 ,  110 ,   41 ,  235 ,    9 ,  137 ,   28 ,  224 ,   30 ,  128 ,    0 ,    0 ,    0 ,   68 ,    9 ,    9 ,    0 ,    0 ,    0 ,    0 ,    0 ,   25 ,  141 ,   41 ,  235 ,   40 ,    8 ,    0 ,   96 ,   92 ,  179 ,  153 ,  233 ,  198 ,  244 ,  113 
E: 000000.121188 64 01 80 7e 80 81 00 00 06 08 00 00 00 e3 d3 2a eb f7 ff ee ff 0a 00 45 00 4e 1f 40 05 80 6e 29 eb 09 89 1c e0 1e 80 00 00 00 44 09 09 00 00 00 00 00 19 8d 29 eb 28 08 00 60 5c b3 99 e9 c6 f4 71
# ReportID: 1 / X:  128 | Y:  126 | Z:  129 | Rz:  129 | Rx:    0 | Ry:    0 | 0xff000020:    7 | Hat switch:   8 | Button: 0  0  0  0  0  0  0  0  0  0  0  0  0  0  0 | 0xff000021: 0 , 0 , 0 , 0 , 0 , 0 , 0 , 0 , 0 , 0 , 0 , 0 , 0 | 0xff000022:  228 ,  211 ,   42 ,  235 ,  247 ,  255 ,  239 ,  255 ,   11 ,    0 ,   63 ,    0 ,   82 ,   31 ,   71 ,    5 ,  115 ,  157 ,   41 ,  235 ,    9 ,  137 ,   28 ,  224 ,   30 ,  128 ,    0 ,    0 ,    0 ,   68 ,    9 ,    9 ,    0 ,    0 ,    0 ,    0 ,    0 ,  249 ,  187 ,   41 ,  235 ,   40 ,    8 ,    0 ,  158 ,   12 ,  196 ,  199 ,  139 ,  207 ,  120 ,   85 
E: 000000.126673 64 01 80 7e 81 81 00 00 07 08 00 00 00 e4 d3 2a eb f7 ff ef ff 0b 00 3f 00 52 1f 47 05 73 9d 29 eb 09 89 1c e0 1e 80 00 00 00 44 09 09 00 00 00 00 00 f9 bb 29 eb 28 08 00 9e 0c c4 c7 8b cf 78 55
# ReportID: 1 / X:  128 | Y:  126 | Z:  129 | Rz:  129 | Rx:    0 | Ry:    0 | 0xff000020:    8 | Hat switch:   8 | Button: 0  0  0  0  0  0  0  0  0  0  0  0  0  0  0 | 0xff000021: 0 , 0 , 0 , 0 , 0 , 0 , 0 , 0 , 0 , 0 , 0 , 0 , 0 | 0xff000022:  229 ,  211 ,   42 ,  235 ,  248 ,  255 ,  238 ,  255 ,   11 ,    0 ,   59 ,    0 ,  108 ,   31 ,   63 ,    5 ,  102 ,  204 ,   41 ,  235 ,    9 ,  137 ,   28 ,  224 ,   30 ,  128 ,    0 ,    0 ,    0 ,   68 ,    9 ,    9 ,    0 ,    0 ,    0 ,    0 ,    0 ,  217 ,  234 ,   41 ,  235 ,   40 ,    8 ,    0 ,   54 ,  247 ,   59 ,   21 ,  123 ,  242 ,  158 ,   67 
E: 000000.130216 64 01 80 7e 81 81 00 00 08 08 00 00 00 e5 d3 2a eb f8 ff ee ff 0b 00 3b 00 6c 1f 3f 05 66 cc 29 eb 09 89 1c e0 1e 80 00 00 00 44 09 09 00 00 00 00 00 d9 ea 29 eb 28 08 00 36 f7 3b 15 7b f2 9e 43
# ReportID: 1 / X:  128 | Y:  126 | Z:  128 | Rz:  129 | Rx:    0 | Ry:    0 | 0xff000020:    9 | Hat switch:   8 | Button: 0  0  0  0  0  0  0  0  0  0  0  0  0  0  0 | 0xff000021: 0 , 0 , 0 , 0 , 0 , 0 , 0 , 0 , 0 , 0 , 0 , 0 , 0 | 0xff000022:  230 ,  211 ,   42 ,  235 ,  247 ,  255 ,  239 ,  255 ,   10 ,    0 ,   54 ,    0 ,   98 ,   31 ,   58 ,    5 ,   89 ,  251 ,   41 ,  235 ,    9 ,  137 ,   28 ,  224 ,   30 ,  128 ,    0 ,    0 ,    0 ,   68 ,    9 ,    9 ,    0 ,    0 ,    0 ,    0 ,    0 ,  185 ,   25 ,   42 ,  235 ,   40 ,    8 ,    0 ,  195 ,   41 ,  217 ,  126 ,  218 ,  181 ,  209 ,  235 
E: 000000.134048 64 01 80 7e 80 81 00 00 09 08 00 00 00 e6 d3 2a eb f7 ff ef ff 0a 00 36 00 62 1f 3a 05 59 fb 29 eb 09 89 1c e0 1e 80 00 00 00 44 09 09 00 00 00 00 00 b9 19 2a eb 28 08 00 c3 29 d9 7e da b5 d1 eb
# ReportID: 1 / X:  128 | Y:  126 | Z:  129 | Rz:  129 | Rx:    0 | Ry:    0 | 0xff000020:   10 | Hat switch:   8 | Button: 0  0  0  0  0  0  0  0  0  0  0  0  0  0  0 | 0xff000021: 0 , 0 , 0 , 0 , 0 , 0 , 0 , 0 , 0 , 0 , 0 , 0 , 0 | 0xff000022:  231 ,  211 ,   42 ,  235 ,  246 ,  255 ,  239 ,  255 ,   10 ,    0 ,   56 ,    0 ,   76 ,   31 ,   53 ,    5 ,   76 ,   42 ,   42 ,  235 ,    9 ,  137 ,   28 ,  224 ,   30 ,  128 ,    0 ,    0 ,    0 ,   68 ,    9 ,    9 ,    0 ,    0 ,    0 ,    0 ,    0 ,  153 ,   72 ,   42 ,  235 ,   40 ,    8 ,    0 ,  245 ,  213 ,  245 ,   34 ,  196 ,  208 ,  168 ,  254 
E: 000000.137560 64 01 80 7e 81 81 00 00 0a 08 00 00 00 e7 d3 2a eb f6 ff ef ff 0a 00 38 00 4c 1f 35 05 4c 2a 2a eb 09 89 1c e0 1e 80 00 00 00 44 09 09 00 00 00 00 00 99 48 2a eb 28 08 00 f5 d5 f5 22 c4 d0 a8 fe
# ReportID: 1 / X:  128 | Y:  126 | Z:  129 | Rz:  129 | Rx:    0 | Ry:    0 | 0xff000020:   11 | Hat switch:   8 | Button: 0  0  0  0  0  0  0  0  0  0  0  0  0  0  0 | 0xff000021: 0 , 0 , 0 , 0 , 0 , 0 , 0 , 0 , 0 , 0 , 0 , 0 , 0 | 0xff000022:  232 ,  211 ,   42 ,  235 ,  247 ,  255 ,  238 ,  255 ,   10 ,    0 ,   55 ,    0 ,   80 ,   31 ,   46 ,    5 ,   63 ,   89 ,   42 ,  235 ,    9 ,  137 ,   28 ,  224 ,   30 ,  128 ,    0 ,    0 ,    0 ,   68 ,    9 ,    9 ,    0 ,    0 ,    0 ,    0 ,    0 ,  121 ,  119 ,   42 ,  235 ,   40 ,    8 ,    0 ,  212 ,  198 ,   95 ,  233 ,   75 ,  112 ,   76 ,   69 
E: 000000.141387 64 01 80 7e 81 81 00 00 0b 08 00 00 00 e8 d3 2a eb f7 ff ee ff 0a 00 37 00 50 1f 2e 05 3f 59 2a eb 09 89 1c e0 1e 80 00 00 00 44 09 09 00 00 00 00 00 79 77 2a eb 28 08 00 d4 c6 5f e9 4b 70 4c 45
# ReportID: 1 / X:  128 | Y:  126 | Z:  128 | Rz:  129 | Rx:    0 | Ry:    0 | 0xff000020:   12 | Hat switch:   8 | Button: 0  0  0  0  0  0  0  0  0  0  0  0  0  0  0 | 0xff000021: 0 , 0 , 0 , 0 , 0 , 0 , 0 , 0 , 0 , 0 , 0 , 0 , 0 | 0xff000022:  233 ,  211 ,   42 ,  235 ,  247 ,  255 ,  239 ,  255 ,   10 ,    0 ,   56 ,    0 ,   80 ,   31 ,   50 ,    5 ,   51 ,  136 ,   42 ,  235 ,    9 ,  137 ,   28 ,  224 ,   30 ,  128 ,    0 ,    0 ,    0 ,   68 ,    9 ,    9 ,    0 ,    0 ,    0 ,    0 ,    0 ,   89 ,  166 ,   42 ,  235 ,   40 ,    8 ,    0 ,  226 ,  176 ,  179 ,  121 ,   16 ,   80 ,   43 ,   25 
E: 000000.145181 64 01 80 7e 80 81 00 00 0c 08 00 00 00 e9 d3 2a eb f7 ff ef ff 0a 00 38 00 50 1f 32 05 33 88 2a eb 09 89 1c e0 1e 80 00 00 00 44 09 09 00 00 00 00 00 59 a6 2a eb 28 08 00 e2 b0 b3 79 10 50 2b 19
# ReportID: 1 / X:  128 | Y:  126 | Z:  128 | Rz:  129 | Rx:    0 | Ry:    0 | 0xff000020:   13 | Hat switch:   8 | Button: 0  0  0  0  0  0  0  0  0  0  0  0  0  0  0 | 0xff000021: 0 , 0 , 0 , 0 , 0 , 0 , 0 , 0 , 0 , 0 , 0 , 0 , 0 | 0xff000022:  234 ,  211 ,   42 ,  235 ,  248 ,  255 ,  238 ,  255 ,   10 ,    0 ,   46 ,    0 ,   82 ,   31 ,   47 ,    5 ,   38 ,  183 ,   42 ,  235 ,    9 ,  137 ,   28 ,  224 ,   30 ,  128 ,    0 ,    0 ,    0 ,   68 ,    9 ,    9 ,    0 ,    0 ,    0 ,    0 ,    0 ,   57 ,  213 ,   42 ,  235 ,   40 ,    8 ,    0 ,  153 ,   78 ,    3 ,   92 ,  196 ,   26 ,   26 ,   40 
E: 000000.149136 64 01 80 7e 80 81 00 00 0d 08 00 00 00 ea d3 2a eb f8 ff ee ff 0a 00 2e 00 52 1f 2f 05 26 b7 2a eb 09 89 1c e0 1e 80 00 00 00 44 09 09 00 00 00 00 00 39 d5 2a eb 28 08 00 99 4e 03 5c c4 1a 1a 28
# ReportID: 1 / X:  128 | Y:  126 | Z:  129 | Rz:  129 | Rx:    0 | Ry:    0 | 0xff000020:   14 | Hat switch:   8 | Button: 0  0  0  0  0  0  0  0  0  0  0  0  0  0  0 | 0xff000021: 0 , 0 , 0 , 0 , 0 , 0 , 0 , 0 , 0 , 0 , 0 , 0 , 0 | 0xff000022:  235 ,  211 ,   42 ,  235 ,  247 ,  255 ,  238 ,  255 ,   10 ,    0 ,   60 ,    0 ,   90 ,   31 ,   54 ,    5 ,   25 ,  230 ,   42 ,  235 ,    9 ,  137 ,   28 ,  224 ,   30 ,  128 ,    0 ,    0 ,    0 ,   68 ,    9 ,    9 ,    0 ,    0 ,    0 ,    0 ,    0 ,   25 ,    4 ,   43 ,  235 ,   40 ,    8 ,    0 ,  110 ,  186 ,   66 ,   98 ,  216 ,   20 ,   88 ,   73 
E: 000000.154361 64 01 80 7e 81 81 00 00 0e 08 00 00 00 eb d3 2a eb f7 ff ee ff 0a 00 3c 00 5a 1f 36 05 19 e6 2a eb 09 89 1c e0 1e 80 00 00 00 44 09 09 00 00 00 00 00 19 04 2b eb 28 08 00 6e ba 42 62 d8 14 58 49
# ReportID: 1 / X:  128 | Y:  126 | Z:  129 | Rz:  129 | Rx:    0 | Ry:    0 | 0xff000020:   15 | Hat switch:   8 | Button: 0  0  0  0  0  0  0  0  0  0  0  0  0  0  0 | 0xff000021: 0 , 0 , 0 , 0 , 0 , 0 , 0 , 0 , 0 , 0 , 0 , 0 , 0 | 0xff000022:  236 ,  211 ,   42 ,  235 ,  248 ,  255 ,  238 ,  255 ,    9 ,    0 ,   44 ,    0 ,   99 ,   31 ,   48 ,    5 ,   12 ,   21 ,   43 ,  235 ,    9 ,  137 ,   28 ,  224 ,   30 ,  128 ,    0 ,    0 ,    0 ,   68 ,    9 ,    9 ,    0 ,    0 ,    0 ,    0 ,    0 ,  249 ,   50 ,   43 ,  235 ,   40 ,    8 ,    0 ,  151 ,   19 ,   28 ,   16 ,  150 ,   58 ,  130 ,   32 
E: 000000.158142 64 01 80 7e 81 81 00 00 0f 08 00 00 00 ec d3 2a eb f8 ff ee ff 09 00 2c 00 63 1f 30 05 0c 15 2b eb 09 89 1c e0 1e 80 00 00 00 44 09 09 00 00 00 00 00 f9 32 2b eb 28 08 00 97 13 1c 10 96 3a 82 20
# ReportID: 1 / X:  128 | Y:  126 | Z:  129 | Rz:  129 | Rx:    0 | Ry:    0 | 0xff000020:   16 | Hat switch:   8 | Button: 0  0  0  0  0  0  0  0  0  0  0  0  0  0  0 | 0xff000021: 0 , 0 , 0 , 0 , 0 , 0 , 0 , 0 , 0 , 0 , 0 , 0 , 0 | 0xff000022:  237 ,  211 ,   42 ,  235 ,  247 ,  255 ,  237 ,  255 ,   10 ,    0 ,   53 ,    0 ,   99 ,   31 ,   41 ,    5 ,  255 ,   67 ,   43 ,  235 ,    9 ,  137 ,   28 ,  224 ,   30 ,  128 ,    0 ,    0 ,    0 ,   68 ,    9 ,    9 ,    0 ,    0 ,    0 ,    0 ,    0 ,  217 ,   97 ,   43 ,  235 ,   40 ,    8 ,    0 ,  134 ,   43 ,    4 ,   15 ,  100 ,  221 ,  247 ,  100 
E: 000000.161999 64 01 80 7e 81 81 00 00 10 08 00 00 00 ed d3 2a eb f7 ff ed ff 0a 00 35 00 63 1f 29 05 ff 43 2b eb 09 89 1c e0 1e 80 00 00 00 44 09 09 00 00 00 00 00 d9 61 2b eb 28 08 00 86 2b 04 0f 64 dd f7 64
# ReportID: 1 / X:  128 | Y:  126 | Z:  129 | Rz:  129 | Rx:    0 | Ry:    0 | 0xff000020:   17 | Hat switch:   8 | Button: 0  0  0  0  0  0  0  0  0  0  0  0  0  0  0 | 0xff000021: 0 , 0 , 0 , 0 , 0 , 0 , 0 , 0 , 0 , 0 , 0 , 0 , 0 | 0xff000022:  238 ,  211 ,   42 ,  235 ,  247 ,  255 ,  238 ,  255 ,   10 ,    0 ,   50 ,    0 ,   88 ,   31 ,   49 ,    5 ,  243 ,  114 ,   43 ,  235 ,    9 ,  137 ,   28 ,  224 ,   30 ,  128 ,    0 ,    0 ,    0 ,   68 ,    9 ,    9 ,    0 ,    0 ,    0 ,    0 ,    0 ,  185 ,  144 ,   43 ,  235 ,   40 ,    8 ,    0 ,  152 ,  158 ,  146 ,   20 ,  248 ,  112 ,  185 ,   50 
E: 000000.165102 64 01 80 7e 81 81 00 00 11 08 00 00 00 ee d3 2a eb f7 ff ee ff 0a 00 32 00 58 1f 31 05 f3 72 2b eb 09 89 1c e0 1e 80 00 00 00 44 09 09 00 00 00 00 00 b9 90 2b eb 28 08 00 98 9e 92 14 f8 70 b9 32
# ReportID: 1 / X:  128 | Y:  126 | Z:  129 | Rz:  129 | Rx:    0 | Ry:    0 | 0xff000020:   18 | Hat switch:   8 | Button: 0  0  0  0  0  0  0  0  0  0  0  0  0  0  0 | 0xff000021: 0 , 0 , 0 , 0 , 0 , 0 , 0 , 0 , 0 , 0 , 0 , 0 , 0 | 0xff000022:  239 ,  211 ,   42 ,  235 ,  248 ,  255 ,  238 ,  255 ,   10 ,    0 ,   46 ,    0 ,   73 ,   31 ,   54 ,    5 ,  230 ,  161 ,   43 ,  235 ,    9 ,  137 ,   28 ,  224 ,   30 ,  128 ,    0 ,    0 ,    0 ,   68 ,    9 ,    9 ,    0 ,    0 ,    0 ,    0 ,    0 ,  153 ,  191 ,   43 ,  235 ,   40 ,    8 ,    0 ,  149 ,   22 ,  163 ,  170 ,  203 ,  190 ,  235 ,    9 
E: 000000.170316 64 01 80 7e 81 81 00 00 12 08 00 00 00 ef d3 2a eb f8 ff ee ff 0a 00 2e 00 49 1f 36 05 e6 a1 2b eb 09 89 1c e0 1e 80 00 00 00 44 09 09 00 00 00 00 00 99 bf 2b eb 28 08 00 95 16 a3 aa cb be eb 09
# ReportID: 1 / X:  128 | Y:  126 | Z:  128 | Rz:  129 | Rx:    0 | Ry:    0 | 0xff000020:   19 | Hat switch:   8 | Button: 0  0  0  0  0  0  0  0  0  0  0  0  0  0  0 | 0xff000021: 0 , 0 , 0 , 0 , 0 , 0 , 0 , 0 , 0 , 0 , 0 , 0 , 0 | 0xff000022:  240 ,  211 ,   42 ,  235 ,  247 ,  255 ,  238 ,  255 ,   10 ,    0 ,   51 ,    0 ,   68 ,   31 ,   51 ,    5 ,  217 ,  208 ,   43 ,  235 ,    9 ,  137 ,   28 ,  224 ,   30 ,  128 ,    0 ,    0 ,    0 ,   68 ,    9 ,    9 ,    0 ,    0 ,    0 ,    0 ,    0 ,  121 ,  238 ,   43 ,  235 ,   40 ,    8 ,    0 ,  113 ,  134 ,  183 ,  203 ,   79 ,  121 ,    1 ,  134 
E: 000000.174069 64 01 80 7e 80 81 00 00 13 08 00 00 00 f0 d3 2a eb f7 ff ee ff 0a 00 33 00 44 1f 33 05 d9 d0 2b eb 09 89 1c e0 1e 80 00 00 00 44 09 09 00 00 00 00 00 79 ee 2b eb 28 08 00 71 86 b7 cb 4f 79 01 86
# ReportID: 1 / X:  128 | Y:  126 | Z:  129 | Rz:  129 | Rx:    0 | Ry:    0 | 0xff000020:   20 | Hat switch:   8 | Button: 0  0  0  0  0  0  0  0  0  0  0  0  0  0  0 | 0xff000021: 0 , 0 , 0 , 0 , 0 , 0 , 0 , 0 , 0 , 0 , 0 , 0 , 0 | 0xff000022:  241 ,  211 ,   42 ,  235 ,  247 ,  255 ,  237 ,  255 ,   10 ,    0 ,   51 ,    0 ,   81 ,   31 ,   60 ,    5 ,  204 ,  255 ,   43 ,  235 ,    9 ,  137 ,   28 ,  224 ,   30 ,  128 ,    0 ,    0 ,    0 ,   68 ,    9 ,    9 ,    0 ,    0 ,    0 ,    0 ,    0 ,   89 ,   29 ,   44 ,  235 ,   40 ,    8 ,    0 ,  187 ,  164 ,  122 ,   62 ,   69 ,  144 ,  125 ,   69 
E: 000000.177296 64 01 80 7e 81 81 00 00 14 08 00 00 00 f1 d3 2a eb f7 ff ed ff 0a 00 33 00 51 1f 3c 05 cc ff 2b eb 09 89 1c e0 1e 80 00 00 00 44 09 09 00 00 00 00 00 59 1d 2c eb 28 08 00 bb a4 7a 3e 45 90 7d 45
# ReportID: 1 / X:  128 | Y:  126 | Z:  128 | Rz:  129 | Rx:    0 | Ry:    0 | 0xff000020:   21 | Hat switch:   8 | Button: 0  0  0  0  0  0  0  0  0  0  0  0  0  0  0 | 0xff000021: 0 , 0 , 0 , 0 , 0 , 0 , 0 , 0 , 0 , 0 , 0 , 0 , 0 | 0xff000022:  242 ,  211 ,   42 ,  235 ,  247 ,  255 ,  238 ,  255 ,   11 ,    0 ,   53 ,    0 ,  101 ,   31 ,   61 ,    5 ,  191 ,   46 ,   44 ,  235 ,    9 ,  137 ,   28 ,  224 ,   30 ,  128 ,    0 ,    0 ,    0 ,   68 ,    9 ,    9 ,    0 ,    0 ,    0 ,    0 ,    0 ,   57 ,   76 ,   44 ,  235 ,   40 ,    8 ,    0 ,   43 ,   74 ,    9 ,   93 ,   76 ,   40 ,   45 ,  194 
E: 000000.181260 64 01 80 7e 80 81 00 00 15 08 00 00 00 f2 d3 2a eb f7 ff ee ff 0b 00 35 00 65 1f 3d 05 bf 2e 2c eb 09 89 1c e0 1e 80 00 00 00 44 09 09 00 00 00 00 00 39 4c 2c eb 28 08 00 2b 4a 09 5d 4c 28 2d c2
# ReportID: 1 / X:  128 | Y:  126 | Z:  128 | Rz:  129 | Rx:    0 | Ry:    0 | 0xff000020:   22 | Hat switch:   8 | Button: 0  0  0  0  0  0  0  0  0  0  0  0  0  0  0 | 0xff000021: 0 , 0 , 0 , 0 , 0 , 0 , 0 , 0 , 0 , 0 , 0 , 0 , 0 | 0xff000022:  243 ,  211 ,   42 ,  235 ,  246 ,  255 ,  238 ,  255 ,   10 ,    0 ,   53 ,    0 ,   95 ,   31 ,   63 ,    5 ,  179 ,   93 ,   44 ,  235 ,    9 ,  137 ,   28 ,  224 ,   30 ,  128 ,    0 ,    0 ,    0 ,   68 ,    9 ,    9 ,    0 ,    0 ,    0 ,    0 ,    0 ,   25 ,  123 ,   44 ,  235 ,   40 ,    8 ,    0 ,  125 ,   69 ,  239 ,   89 ,   79 ,  130 ,   78 ,  173 
E: 000000.185125 64 01 80 7e 80 81 00 00 16 08 00 00 00 f3 d3 2a eb f6 ff ee ff 0a 00 35 00 5f 1f 3f 05 b3 5d 2c eb 09 89 1c e0 1e 80 00 00 00 44 09 09 00 00 00 00 00 19 7b 2c eb 28 08 00 7d 45 ef 59 4f 82 4e ad
# ReportID: 1 / X:  128 | Y:  126 | Z:  129 | Rz:  129 | Rx:    0 | Ry:    0 | 0xff000020:   23 | Hat switch:   8 | Button: 0  0  0  0  0  0  0  0  0  0  0  0  0  0  0 | 0xff000021: 0 , 0 , 0 , 0 , 0 , 0 , 0 , 0 , 0 , 0 , 0 , 0 , 0 | 0xff000022:  244 ,  211 ,   42 ,  235 ,  247 ,  255 ,  238 ,  255 ,   11 ,    0 ,   47 ,    0 ,   81 ,   31 ,   68 ,    5 ,  166 ,  140 ,   44 ,  235 ,    8 ,  137 ,   28 ,  224 ,   30 ,  128 ,    0 ,    0 ,    0 ,   68 ,    9 ,    9 ,    0 ,    0 ,    0 ,    0 ,    0 ,  249 ,  169 ,   44 ,  235 ,   40 ,    8 ,    0 ,   12 ,  169 ,  215 ,  192 ,    5 ,  199 ,  156 ,  160 
E: 000000.190185 64 01 80 7e 81 81 00 00 17 08 00 00 00 f4 d3 2a eb f7 ff ee ff 0b 00 2f 00 51 1f 44 05 a6 8c 2c eb 08 89 1c e0 1e 80 00 00 00 44 09 09 00 00 00 00 00 f9 a9 2c eb 28 08 00 0c a9 d7 c0 05 c7 9c a0
# ReportID: 1 / X:  128 | Y:  126 | Z:  129 | Rz:  129 | Rx:    0 | Ry:    0 | 0xff000020:   24 | Hat switch:   8 | Button: 0  0  0  0  0  0  0  0  0  0  0  0  0  0  0 | 0xff000021: 0 , 0 , 0 , 0 , 0 , 0 , 0 , 0 , 0 , 0 , 0 , 0 , 0 | 0xff000022:  245 ,  211 ,   42 ,  235 ,  247 ,  255 ,  238 ,  255 ,   10 ,    0 ,   56 ,    0 ,   79 ,   31 ,   68 ,    5 ,  153 ,  187 ,   44 ,  235 ,    9 ,  137 ,   28 ,  224 ,   30 ,  128 ,    0 ,    0 ,    0 ,   68 ,    9 ,    9 ,    0 ,    0 ,    0 ,    0 ,    0 ,  217 ,  216 ,   44 ,  235 ,   40 ,    8 ,    0 ,  102 ,   74 ,  190 ,  216 ,  137 ,    2 ,  205 ,  169 
E: 000000.194015 64 01 80 7e 81 81 00 00 18 08 00 00 00 f5 d3 2a eb f7 ff ee ff 0a 00 38 00 4f 1f 44 05 99 bb 2c eb 09 89 1c e0 1e 80 00 00 00 44 09 09 00 00 00 00 00 d9 d8 2c eb 28 08 00 66 4a be d8 89 02 cd a9
# ReportID: 1 / X:  128 | Y:  126 | Z:  129 | Rz:  129 | Rx:    0 | Ry:    0 | 0xff000020:   25 | Hat switch:   8 | Button: 0  0  0  0  0  0  0  0  0  0  0  0  0  0  0 | 0xff000021: 0 , 0 , 0 , 0 , 0 , 0 , 0 , 0 , 0 , 0 , 0 , 0 , 0 | 0xff000022:  246 ,  211 ,   42 ,  235 ,  248 ,  255 ,  238 ,  255 ,   10 ,    0 ,   56 ,    0 ,   73 ,   31 ,   63 ,    5 ,  140 ,  234 ,   44 ,  235 ,    9 ,  137 ,   28 ,  224 ,   30 ,  128 ,    0 ,    0 ,    0 ,   68 ,    9 ,    9 ,    0 ,    0 ,    0 ,    0 ,    0 ,  185 ,    7 ,   45 ,  235 ,   40 ,    8 ,    0 ,  187 ,   29 ,   48 ,  246 ,   54 ,   41 ,   25 ,  122 
E: 000000.197851 64 01 80 7e 81 81 00 00 19 08 00 00 00 f6 d3 2a eb f8 ff ee ff 0a 00 38 00 49 1f 3f 05 8c ea 2c eb 09 89 1c e0 1e 80 00 00 00 44 09 09 00 00 00 00 00 b9 07 2d eb 28 08 00 bb 1d 30 f6 36 29 19 7a
# ReportID: 1 / X:  128 | Y:  126 | Z:  128 | Rz:  129 | Rx:    0 | Ry:    0 | 0xff000020:   26 | Hat switch:   8 | Button: 0  0  0  0  0  0  0  0  0  0  0  0  0  0  0 | 0xff000021: 0 , 0 , 0 , 0 , 0 , 0 , 0 , 0 , 0 , 0 , 0 , 0 , 0 | 0xff000022:  247 ,  211 ,   42 ,  235 ,  246 ,  255 ,  237 ,  255 ,   11 ,    0 ,   52 ,    0 ,   69 ,   31 ,   64 ,    5 ,  127 ,   25 ,   45 ,  235 ,    9 ,  137 ,   28 ,  224 ,   30 ,  128 ,    0 ,    0 ,    0 ,   68 ,    9 ,    9 ,    0 ,    0 ,    0 ,    0 ,    0 ,  153 ,   54 ,   45 ,  235 ,   40 ,    8 ,    0 ,  168 ,  215 ,  102 ,   23 ,   43 ,  163 ,   69 ,  213 
E: 000000.202004 64 01 80 7e 80 81 00 00 1a 08 00 00 00 f7 d3 2a eb f6 ff ed ff 0b 00 34 00 45 1f 40 05 7f 19 2d eb 09 89 1c e0 1e 80 00 00 00 44 09 09 00 00 00 00 00 99 36 2d eb 28 08 00 a8 d7 66 17 2b a3 45 d5
# ReportID: 1 / X:  128 | Y:  126 | Z:  129 | Rz:  129 | Rx:    0 | Ry:    0 | 0xff000020:   27 | Hat switch:   8 | Button: 0  0  0  0  0  0  0  0  0  0  0  0  0  0  0 | 0xff000021: 0 , 0 , 0 , 0 , 0 , 0 , 0 , 0 , 0 , 0 , 0 , 0 , 0 | 0xff000022:  248 ,  211 ,   42 ,  235 ,  248 ,  255 ,  238 ,  255 ,   10 ,    0 ,   50 ,    0 ,   81 ,   31 ,   69 ,    5 ,  114 ,   72 ,   45 ,  235 ,    9 ,  137 ,   28 ,  224 ,   30 ,  128 ,    0 ,    0 ,    0 ,   68 ,    9 ,    9 ,    0 ,    0 ,    0 ,    0 ,    0 ,  121 ,  101 ,   45 ,  235 ,   40 ,    8 ,    0 ,  189 ,  197 ,  199 ,   98 ,  253 ,   73 ,  159 ,  176 
E: 000000.205425 64 01 80 7e 81 81 00 00 1b 08 00 00 00 f8 d3 2a eb f8 ff ee ff 0a 00 32 00 51 1f 45 05 72 48 2d eb 09 89 1c e0 1e 80 00 00 00 44 09 09 00 00 00 00 00 79 65 2d eb 28 08 00 bd c5 c7 62 fd 49 9f b0
# ReportID: 1 / X:  128 | Y:  126 | Z:  128 | Rz:  129 | Rx:    0 | Ry:    0 | 0xff000020:   28 | Hat switch:   8 | Button: 0  0  0  0  0  0  0  0  0  0  0  0  0  0  0 | 0xff000021: 0 , 0 , 0 , 0 , 0 , 0 , 0 , 0 , 0 , 0 , 0 , 0 , 0 | 0xff000022:  249 ,  211 ,   42 ,  235 ,  248 ,  255 ,  238 ,  255 ,    9 ,    0 ,   56 ,    0 ,   87 ,   31 ,   60 ,    5 ,  102 ,  119 ,   45 ,  235 ,    9 ,  137 ,   28 ,  224 ,   30 ,  128 ,    0 ,    0 ,    0 ,   68 ,    9 ,    9 ,    0 ,    0 ,    0 ,    0 ,    0 ,   89 ,  148 ,   45 ,  235 ,   40 ,    8 ,    0 ,  126 ,  112 ,    3 ,   75 ,  101 ,   54 ,  245 ,  139 
E: 000000.209569 64 01 80 7e 80 81 00 00 1c 08 00 00 00 f9 d3 2a eb f8 ff ee ff 09 00 38 00 57 1f 3c 05 66 77 2d eb 09 89 1c e0 1e 80 00 00 00 44 09 09 00 00 00 00 00 59 94 2d eb 28 08 00 7e 70 03 4b 65 36 f5 8b
# ReportID: 1 / X:  128 | Y:  126 | Z:  129 | Rz:  129 | Rx:    0 | Ry:    0 | 0xff000020:   29 | Hat switch:   8 | Button: 0  0  0  0  0  0  0  0  0  0  0  0  0  0  0 | 0xff000021: 0 , 0 , 0 , 0 , 0 , 0 , 0 , 0 , 0 , 0 , 0 , 0 , 0 | 0xff000022:  250 ,  211 ,   42 ,  235 ,  247 ,  255 ,  238 ,  255 ,   10 ,    0 ,   51 ,    0 ,   94 ,   31 ,   67 ,    5 ,   89 ,  166 ,   45 ,  235 ,    9 ,  137 ,   28 ,  224 ,   30 ,  128 ,    0 ,    0 ,    0 ,   68 ,    9 ,    9 ,    0 ,    0 ,    0 ,    0 ,    0 ,   57 ,  195 ,   45 ,  235 ,   40 ,    8 ,    0 ,   60 ,   26 ,   70 ,  122 ,  154 ,  232 ,  254 ,    4 
E: 000000.213459 64 01 80 7e 81 81 00 00 1d 08 00 00 00 fa d3 2a eb f7 ff ee ff 0a 00 33 00 5e 1f 43 05 59 a6 2d eb 09 89 1c e0 1e 80 00 00 00 44 09 09 00 00 00 00 00 39 c3 2d eb 28 08 00 3c 1a 46 7a 9a e8 fe 04
# ReportID: 1 / X:  128 | Y:  126 | Z:  129 | Rz:  129 | Rx:    0 | Ry:    0 | 0xff000020:   30 | Hat switch:   8 | Button: 0  0  0  0  0  0  0  0  0  0  0  0  0  0  0 | 0xff000021: 0 , 0 , 0 , 0 , 0 , 0 , 0 , 0 , 0 , 0 , 0 , 0 , 0 | 0xff000022:  251 ,  211 ,   42 ,  235 ,  247 ,  255 ,  238 ,  255 ,   10 ,    0 ,   51 ,    0 ,   92 ,   31 ,   55 ,    5 ,   76 ,  213 ,   45 ,  235 ,    9 ,  137 ,   28 ,  224 ,   30 ,  128 ,    0 ,    0 ,    0 ,   68 ,    9 ,    9 ,    0 ,    0 ,    0 ,    0 ,    0 ,   25 ,  242 ,   45 ,  235 ,   40 ,    8 ,    0 ,  111 ,  227 ,  114 ,  149 ,    9 ,  239 ,  170 ,  106 
E: 000000.219051 64 01 80 7e 81 81 00 00 1e 08 00 00 00 fb d3 2a eb f7 ff ee ff 0a 00 33 00 5c 1f 37 05 4c d5 2d eb 09 89 1c e0 1e 80 00 00 00 44 09 09 00 00 00 00 00 19 f2 2d eb 28 08 00 6f e3 72 95 09 ef aa 6a
# ReportID: 1 / X:  128 | Y:  126 | Z:  129 | Rz:  129 | Rx:    0 | Ry:    0 | 0xff000020:   31 | Hat switch:   8 | Button: 0  0  0  0  0  0  0  0  0  0  0  0  0  0  0 | 0xff000021: 0 , 0 , 0 , 0 , 0 , 0 , 0 , 0 , 0 , 0 , 0 , 0 , 0 | 0xff000022:  252 ,  211 ,   42 ,  235 ,  248 ,  255 ,  238 ,  255 ,    9 ,    0 ,   47 ,    0 ,   89 ,   31 ,   47 ,    5 ,   63 ,    4 ,   46 ,  235 ,    9 ,  137 ,   28 ,  224 ,   30 ,  128 ,    0 ,    0 ,    0 ,   68 ,    9 ,    9 ,    0 ,    0 ,    0 ,    0 ,    0 ,  249 ,   32 ,   46 ,  235 ,   40 ,    8 ,    0 ,   13 ,   48 ,   43 ,  185 ,   10 ,  165 ,  227 ,  167 
E: 000000.222561 64 01 80 7e 81 81 00 00 1f 08 00 00 00 fc d3 2a eb f8 ff ee ff 09 00 2f 00 59 1f 2f 05 3f 04 2e eb 09 89 1c e0 1e 80 00 00 00 44 09 09 00 00 00 00 00 f9 20 2e eb 28 08 00 0d 30 2b b9 0a a5 e3 a7
# ReportID: 1 / X:  128 | Y:  126 | Z:  129 | Rz:  129 | Rx:    0 | Ry:    0 | 0xff000020:   32 | Hat switch:   8 | Button: 0  0  0  0  0  0  0  0  0  0  0  0  0  0  0 | 0xff000021: 0 , 0 , 0 , 0 , 0 , 0 , 0 , 0 , 0 , 0 , 0 , 0 , 0 | 0xff000022:  253 ,  211 ,   42 ,  235 ,  246 ,  255 ,  238 ,  255 ,   11 ,    0 ,   44 ,    0 ,   85 ,   31 ,   55 ,    5 ,   50 ,   51 ,   46 ,  235 ,    9 ,  137 ,   28 ,  224 ,   30 ,  128 ,    0 ,    0 ,    0 ,   68 ,    9 ,    9 ,    0 ,    0 ,    0 ,    0 ,    0 ,  217 ,   79 ,   46 ,  235 ,   40 ,    8 ,    0 ,    2 ,  213 ,  181 ,  155 ,  243 ,  128 ,  144 ,  107 
E: 000000.225242 64 01 80 7e 81 81 00 00 20 08 00 00 00 fd d3 2a eb f6 ff ee ff 0b 00 2c 00 55 1f 37 05 32 33 2e eb 09 89 1c e0 1e 80 00 00 00 44 09 09 00 00 00 00 00 d9 4f 2e eb 28 08 00 02 d5 b5 9b f3 80 90 6b
# ReportID: 1 / X:  128 | Y:  126 | Z:  129 | Rz:  129 | Rx:    0 | Ry:    0 | 0xff000020:   33 | Hat switch:   8 | Button: 0  0  0  0  0  0  0  0  0  0  0  0  0  0  0 | 0xff000021: 0 , 0 , 0 , 0 , 0 , 0 , 0 , 0 , 0 , 0 , 0 , 0 , 0 | 0xff000022:  254 ,  211 ,   42 ,  235 ,  247 ,  255 ,  238 ,  255 ,   10 ,    0 ,   52 ,    0 ,   83 ,   31 ,   58 ,    5 ,   38 ,   98 ,   46 ,  235 ,    9 ,  137 ,   28 ,  224 ,   30 ,  128 ,    0 ,    0 ,    0 ,   68 ,    9 ,    9 ,    0 ,    0 ,    0 ,    0 ,    0 ,  185 ,  126 ,   46 ,  235 ,   40 ,    8 ,    0 ,   53 ,  215 ,   55 ,   94 ,   52 ,   41 ,  131 ,   83 
E: 000000.230948 64 01 80 7e 81 81 00 00 21 08 00 00 00 fe d3 2a eb f7 ff ee ff 0a 00 34 00 53 1f 3a 05 26 62 2e eb 09 89 1c e0 1e 80 00 00 00 44 09 09 00 00 00 00 00 b9 7e 2e eb 28 08 00 35 d7 37 5e 34 29 83 53
# ReportID: 1 / X:  128 | Y:  126 | Z:  129 | Rz:  129 | Rx:    0 | Ry:    0 | 0xff000020:   34 | Hat switch:   8 | Button: 0  0  0  0  0  0  0  0  0  0  0  0  0  0  0 | 0xff000021: 0 , 0 , 0 , 0 , 0 , 0 , 0 , 0 , 0 , 0 , 0 , 0 , 0 | 0xff000022:  255 ,  211 ,   42 ,  235 ,  248 ,  255 ,  238 ,  255 ,    9 ,    0 ,   48 ,    0 ,   84 ,   31 ,   51 ,    5 ,   25 ,  145 ,   46 ,  235 ,    9 ,  137 ,   28 ,  224 ,   30 ,  128 ,    0 ,    0 ,    0 ,   68 ,    9 ,    9 ,    0 ,    0 ,    0 ,    0 ,    0 ,  153 ,  173 ,   46 ,  235 ,   40 ,    8 ,    0 ,  179 ,   63 ,  226 ,  159 ,  148 ,   33 ,   78 ,  169 
E: 000000.233226 64 01 80 7e 81 81 00 00 22 08 00 00 00 ff d3 2a eb f8 ff ee ff 09 00 30 00 54 1f 33 05 19 91 2e eb 09 89 1c e0 1e 80 00 00 00 44 09 09 00 00 00 00 00 99 ad 2e eb 28 08 00 b3 3f e2 9f 94 21 4e a9
# ReportID: 1 / X:  128 | Y:  126 | Z:  128 | Rz:  129 | Rx:    0 | Ry:    0 | 0xff000020:   35 | Hat switch:   8 | Button: 0  0  0  0  0  0  0  0  0  0  0  0  0  0  0 | 0xff000021: 0 , 0 , 0 , 0 , 0 , 0 , 0 , 0 , 0 , 0 , 0 , 0 , 0 | 0xff000022:    0 ,  212 ,   42 ,  235 ,  247 ,  255 ,  238 ,  255 ,   10 ,    0 ,   41 ,    0 ,  102 ,   31 ,   45 ,    5 ,   12 ,  192 ,   46 ,  235 ,    9 ,  137 ,   28 ,  224 ,   30 ,  128 ,    0 ,    0 ,    0 ,   68 ,    9 ,    9 ,    0 ,    0 ,    0 ,    0 ,    0 ,  121 ,  220 ,   46 ,  235 ,   40 ,    8 ,    0 ,  195 ,  247 ,   25 ,  183 ,  219 ,  129 ,  244 ,  222 
E: 000000.237137 64 01 80 7e 80 81 00 00 23 08 00 00 00 00 d4 2a eb f7 ff ee ff 0a 00 29 00 66 1f 2d 05 0c c0 2e eb 09 89 1c e0 1e 80 00 00 00 44 09 09 00 00 00 00 00 79 dc 2e eb 28 08 00 c3 f7 19 b7 db 81 f4 de
# ReportID: 1 / X:  128 | Y:  126 | Z:  129 | Rz:  129 | Rx:    0 | Ry:    0 | 0xff000020:   36 | Hat switch:   8 | Button: 0  0  0  0  0  0  0  0  0  0  0  0  0  0  0 | 0xff000021: 0 , 0 , 0 , 0 , 0 , 0 , 0 , 0 , 0 , 0 , 0 , 0 , 0 | 0xff000022:    1 ,  212 ,   42 ,  235 ,  247 ,  255 ,  238 ,  255 ,   10 ,    0 ,   43 ,    0 ,   93 ,   31 ,   55 ,    5 ,  255 ,  238 ,   46 ,  235 ,    9 ,  137 ,   28 ,  224 ,   30 ,  128 ,    0 ,    0 ,    0 ,   68 ,    9 ,    9 ,    0 ,    0 ,    0 ,    0 ,    0 ,   89 ,   11 ,   47 ,  235 ,   40 ,    8 ,    0 ,  176 ,  185 ,  120 ,  130 ,    8 ,  135 ,  239 ,   22 
E: 000000.243287 64 01 80 7e 81 81 00 00 24 08 00 00 00 01 d4 2a eb f7 ff ee ff 0a 00 2b 00 5d 1f 37 05 ff ee 2e eb 09 89 1c e0 1e 80 00 00 00 44 09 09 00 00 00 00 00 59 0b 2f eb 28 08 00 b0 b9 78 82 08 87 ef 16
# ReportID: 1 / X:  128 | Y:  126 | Z:  129 | Rz:  129 | Rx:    0 | Ry:    0 | 0xff000020:   37 | Hat switch:   8 | Button: 0  0  0  0  0  0  0  0  0  0  0  0  0  0  0 | 0xff000021: 0 , 0 , 0 , 0 , 0 , 0 , 0 , 0 , 0 , 0 , 0 , 0 , 0 | 0xff000022:    2 ,  212 ,   42 ,  235 ,  248 ,  255 ,  237 ,  255 ,   11 ,    0 ,   37 ,    0 ,   80 ,   31 ,   48 ,    5 ,  242 ,   29 ,   47 ,  235 ,    9 ,  137 ,   28 ,  224 ,   30 ,  128 ,    0 ,    0 ,    0 ,   68 ,    9 ,    9 ,    0 ,    0 ,    0 ,    0 ,    0 ,   57 ,   58 ,   47 ,  235 ,   40 ,    8 ,    0 ,   94 ,  154 ,   18 ,   36 ,  217 ,   58 ,   73 ,  100 
E: 000000.245012 64 01 80 7e 81 81 00 00 25 08 00 00 00 02 d4 2a eb f8 ff ed ff 0b 00 25 00 50 1f 30 05 f2 1d 2f eb 09 89 1c e0 1e 80 00 00 00 44 09 09 00 00 00 00 00 39 3a 2f eb 28 08 00 5e 9a 12 24 d9 3a 49 64
# ReportID: 1 / X:  128 | Y:  126 | Z:  129 | Rz:  129 | Rx:    0 | Ry:    0 | 0xff000020:   38 | Hat switch:   8 | Button: 0  0  0  0  0  0  0  0  0  0  0  0  0  0  0 | 0xff000021: 0 , 0 , 0 , 0 , 0 , 0 , 0 , 0 , 0 , 0 , 0 , 0 , 0 | 0xff000022:    3 ,  212 ,   42 ,  235 ,  247 ,  255 ,  238 ,  255 ,   10 ,    0 ,   38 ,    0 ,   82 ,   31 ,   48 ,    5 ,  230 ,   76 ,   47 ,  235 ,    9 ,  137 ,   28 ,  224 ,   30 ,  128 ,    0 ,    0 ,    0 ,   68 ,    9 ,    9 ,    0 ,    0 ,    0 ,    0 ,    0 ,   25 ,  105 ,   47 ,  235 ,   40 ,    8 ,    0 ,   43 ,  236 ,  213 ,  168 ,   39 ,   97 ,   96 ,   83 
E: 000000.249039 64 01 80 7e 81 81 00 00 26 08 00 00 00 03 d4 2a eb f7 ff ee ff 0a 00 26 00 52 1f 30 05 e6 4c 2f eb 09 89 1c e0 1e 80 00 00 00 44 09 09 00 00 00 00 00 19 69 2f eb 28 08 00 2b ec d5 a8 27 61 60 53
# ReportID: 1 / X:  128 | Y:  126 | Z:  129 | Rz:  129 | Rx:    0 | Ry:    0 | 0xff000020:   39 | Hat switch:   8 | Button: 0  0  0  0  0  0  0  0  0  0  0  0  0  0  0 | 0xff000021: 0 , 0 , 0 , 0 , 0 , 0 , 0 , 0 , 0 , 0 , 0 , 0 , 0 | 0xff000022:    4 ,  212 ,   42 ,  235 ,  248 ,  255 ,  239 ,  255 ,   11 ,    0 ,   40 ,    0 ,   87 ,   31 ,   57 ,    5 ,  217 ,  123 ,   47 ,  235 ,    9 ,  137 ,   28 ,  224 ,   30 ,  128 ,    0 ,    0 ,    0 ,   68 ,    9 ,    9 ,    0 ,    0 ,    0 ,    0 ,    0 ,  249 ,  151 ,   47 ,  235 ,   40 ,    8 ,    0 ,   33 ,  238 ,  149 ,  116 ,   15 ,  249 ,  124 ,  121 
E: 000000.253369 64 01 80 7e 81 81 00 00 27 08 00 00 00 04 d4 2a eb f8 ff ef ff 0b 00 28 00 57 1f 39 05 d9 7b 2f eb 09 89 1c e0 1e 80 00 00 00 44 09 09 00 00 00 00 00 f9 97 2f eb 28 08 00 21 ee 95 74 0f f9 7c 79
# ReportID: 1 / X:  128 | Y:  126 | Z:  128 | Rz:  129 | Rx:    0 | Ry:    0 | 0xff000020:   40 | Hat switch:   8 | Button: 0  0  0  0  0  0  0  0  0  0  0  0  0  0  0 | 0xff000021: 0 , 0 , 0 , 0 , 0 , 0 , 0 , 0 , 0 , 0 , 0 , 0 , 0 | 0xff000022:    5 ,  212 ,   42 ,  235 ,  248 ,  255 ,  238 ,  255 ,   10 ,    0 ,   43 ,    0 ,   90 ,   31 ,   49 ,    5 ,  204 ,  170 ,   47 ,  235 ,    9 ,  137 ,   28 ,  224 ,   30 ,  128 ,    0 ,    0 ,    0 ,   68 ,    9 ,    9 ,    0 ,    0 ,    0 ,    0 ,    0 ,  217 ,  198 ,   47 ,  235 ,   40 ,    8 ,    0 ,  219 ,  198 ,   77 ,   14 ,   35 ,   79 ,  145 ,  215 
E: 000000.257379 64 01 80 7e 80 81 00 00 28 08 00 00 00 05 d4 2a eb f8 ff ee ff 0a 00 2b 00 5a 1f 31 05 cc aa 2f eb 09 89 1c e0 1e 80 00 00 00 44 09 09 00 00 00 00 00 d9 c6 2f eb 28 08 00 db c6 4d 0e 23 4f 91 d7
# ReportID: 1 / X:  128 | Y:  126 | Z:  129 | Rz:  129 | Rx:    0 | Ry:    0 | 0xff000020:   41 | Hat switch:   8 | Button: 0  0  0  0  0  0  0  0  0  0  0  0  0  0  0 | 0xff000021: 0 , 0 , 0 , 0 , 0 , 0 , 0 , 0 , 0 , 0 , 0 , 0 , 0 | 0xff000022:    6 ,  212 ,   42 ,  235 ,  248 ,  255 ,  237 ,  255 ,   10 ,    0 ,   36 ,    0 ,   89 ,   31 ,   48 ,    5 ,  191 ,  217 ,   47 ,  235 ,    9 ,  137 ,   28 ,  224 ,   30 ,  128 ,    0 ,    0 ,    0 ,   68 ,    9 ,    9 ,    0 ,    0 ,    0 ,    0 ,    0 ,  185 ,  245 ,   47 ,  235 ,   40 ,    8 ,    0 ,   55 ,   54 ,  186 ,  151 ,  217 ,  185 ,  238 ,  136 
E: 000000.262357 64 01 80 7e 81 81 00 00 29 08 00 00 00 06 d4 2a eb f8 ff ed ff 0a 00 24 00 59 1f 30 05 bf d9 2f eb 09 89 1c e0 1e 80 00 00 00 44 09 09 00 00 00 00 00 b9 f5 2f eb 28 08 00 37 36 ba 97 d9 b9 ee 88
# ReportID: 1 / X:  128 | Y:  126 | Z:  129 | Rz:  129 | Rx:    0 | Ry:    0 | 0xff000020:   42 | Hat switch:   8 | Button: 0  0  0  0  0  0  0  0  0  0  0  0  0  0  0 | 0xff000021: 0 , 0 , 0 , 0 , 0 , 0 , 0 , 0 , 0 , 0 , 0 , 0 , 0 | 0xff000022:    7 ,  212 ,   42 ,  235 ,  247 ,  255 ,  237 ,  255 ,    9 ,    0 ,   47 ,    0 ,   80 ,   31 ,   55 ,    5 ,  178 ,    8 ,   48 ,  235 ,    9 ,  137 ,   28 ,  224 ,   30 ,  128 ,    0 ,    0 ,    0 ,   68 ,    9 ,    9 ,    0 ,    0 ,    0 ,    0 ,    0 ,  153 ,   36 ,   48 ,  235 ,   40 ,    8 ,    0 ,    1 ,   37 ,   91 ,  115 ,  148 ,   73 ,    3 ,   57 
E: 000000.265712 64 01 80 7e 81 81 00 00 2a 08 00 00 00 07 d4 2a eb f7 ff ed ff 09 00 2f 00 50 1f 37 05 b2 08 30 eb 09 89 1c e0 1e 80 00 00 00 44 09 09 00 00 00 00 00 99 24 30 eb 28 08 00 01 25 5b 73 94 49 03 39
# ReportID: 1 / X:  128 | Y:  126 | Z:  129 | Rz:  129 | Rx:    0 | Ry:    0 | 0xff000020:   43 | Hat switch:   8 | Button: 0  0  0  0  0  0  0  0  0  0  0  0  0  0  0 | 0xff000021: 0 , 0 , 0 , 0 , 0 , 0 , 0 , 0 , 0 , 0 , 0 , 0 , 0 | 0xff000022:    8 ,  212 ,   42 ,  235 ,  247 ,  255 ,  239 ,  255 ,    9 ,    0 ,   50 ,    0 ,   84 ,   31 ,   55 ,    5 ,  166 ,   55 ,   48 ,  235 ,    9 ,  137 ,   28 ,  224 ,   30 ,  128 ,    0 ,    0 ,    0 ,   68 ,    9 ,    9 ,    0 ,    0 ,    0 ,    0 ,    0 ,  121 ,   83 ,   48 ,  235 ,   40 ,    8 ,    0 ,   41 ,   78 ,  186 ,   72 ,  184 ,   57 ,  247 ,  117 
E: 000000.269540 64 01 80 7e 81 81 00 00 2b 08 00 00 00 08 d4 2a eb f7 ff ef ff 09 00 32 00 54 1f 37 05 a6 37 30 eb 09 89 1c e0 1e 80 00 00 00 44 09 09 00 00 00 00 00 79 53 30 eb 28 08 00 29 4e ba 48 b8 39 f7 75
# ReportID: 1 / X:  128 | Y:  126 | Z:  129 | Rz:  129 | Rx:    0 | Ry:    0 | 0xff000020:   44 | Hat switch:   8 | Button: 0  0  0  0  0  0  0  0  0  0  0  0  0  0  0 | 0xff000021: 0 , 0 , 0 , 0 , 0 , 0 , 0 , 0 , 0 , 0 , 0 , 0 , 0 | 0xff000022:    9 ,  212 ,   42 ,  235 ,  247 ,  255 ,  239 ,  255 ,   11 ,    0 ,   53 ,    0 ,   80 ,   31 ,   64 ,    5 ,  153 ,  102 ,   48 ,  235 ,    9 ,  137 ,   28 ,  224 ,   30 ,  128 ,    0 ,    0 ,    0 ,   68 ,    9 ,    9 ,    0 ,    0 ,    0 ,    0 ,    0 ,   89 ,  130 ,   48 ,  235 ,   40 ,    8 ,    0 ,  157 ,   15 ,  110 ,  162 ,  233 ,   39 ,  160 ,   94 
E: 000000.274300 64 01 80 7e 81 81 00 00 2c 08 00 00 00 09 d4 2a eb f7 ff ef ff 0b 00 35 00 50 1f 40 05 99 66 30 eb 09 89 1c e0 1e 80 00 00 00 44 09 09 00 00 00 00 00 59 82 30 eb 28 08 00 9d 0f 6e a2 e9 27 a0 5e
# ReportID: 1 / X:  128 | Y:  126 | Z:  129 | Rz:  129 | Rx:    0 | Ry:    0 | 0xff000020:   45 | Hat switch:   8 | Button: 0  0  0  0  0  0  0  0  0  0  0  0  0  0  0 | 0xff000021: 0 , 0 , 0 , 0 , 0 , 0 , 0 , 0 , 0 , 0 , 0 , 0 , 0 | 0xff000022:   10 ,  212 ,   42 ,  235 ,  247 ,  255 ,  239 ,  255 ,   10 ,    0 ,   46 ,    0 ,   86 ,   31 ,   61 ,    5 ,  140 ,  149 ,   48 ,  235 ,    9 ,  137 ,   28 ,  224 ,   30 ,  128 ,    0 ,    0 ,    0 ,   68 ,    9 ,    9 ,    0 ,    0 ,    0 ,    0 ,    0 ,   57 ,  177 ,   48 ,  235 ,   40 ,    8 ,    0 ,   55 ,  160 ,  220 ,  165 ,   39 ,  190 ,   82 ,  119 
E: 000000.277320 64 01 80 7e 81 81 00 00 2d 08 00 00 00 0a d4 2a eb f7 ff ef ff 0a 00 2e 00 56 1f 3d 05 8c 95 30 eb 09 89 1c e0 1e 80 00 00 00 44 09 09 00 00 00 00 00 39 b1 30 eb 28 08 00 37 a0 dc a5 27 be 52 77
# ReportID: 1 / X:  128 | Y:  126 | Z:  128 | Rz:  129 | Rx:    0 | Ry:    0 | 0xff000020:   46 | Hat switch:   8 | Button: 0  0  0  0  0  0  0  0  0  0  0  0  0  0  0 | 0xff000021: 0 , 0 , 0 , 0 , 0 , 0 , 0 , 0 , 0 , 0 , 0 , 0 , 0 | 0xff000022:   11 ,  212 ,   42 ,  235 ,  248 ,  255 ,  238 ,  255 ,   11 ,    0 ,   59 ,    0 ,   84 ,   31 ,   66 ,    5 ,  127 ,  196 ,   48 ,  235 ,    9 ,  137 ,   28 ,  224 ,   30 ,  128 ,    0 ,    0 ,    0 ,   68 ,    9 ,    9 ,    0 ,    0 ,    0 ,    0 ,    0 ,   25 ,  224 ,   48 ,  235 ,   40 ,    8 ,    0 ,  204 ,  106 ,  185 ,  210 ,   64 ,   69 ,  180 ,   54 
E: 000000.281151 64 01 80 7e 80 81 00 00 2e 08 00 00 00 0b d4 2a eb f8 ff ee ff 0b 00 3b 00 54 1f 42 05 7f c4 30 eb 09 89 1c e0 1e 80 00 00 00 44 09 09 00 00 00 00 00 19 e0 30 eb 28 08 00 cc 6a b9 d2 40 45 b4 36
# ReportID: 1 / X:  128 | Y:  126 | Z:  128 | Rz:  129 | Rx:    0 | Ry:    0 | 0xff000020:   47 | Hat switch:   8 | Button: 0  0  0  0  0  0  0  0  0  0  0  0  0  0  0 | 0xff000021: 0 , 0 , 0 , 0 , 0 , 0 , 0 , 0 , 0 , 0 , 0 , 0 , 0 | 0xff000022:   12 ,  212 ,   42 ,  235 ,  249 ,  255 ,  238 ,  255 ,    9 ,    0 ,   54 ,    0 ,   77 ,   31 ,   59 ,    5 ,  114 ,  243 ,   48 ,  235 ,    9 ,  137 ,   28 ,  224 ,   30 ,  128 ,    0 ,    0 ,    0 ,   68 ,    9 ,    9 ,    0 ,    0 ,    0 ,    0 ,    0 ,  249 ,   14 ,   49 ,  235 ,   40 ,    8 ,    0 ,   23 ,   99 ,  184 ,   45 ,  214 ,  246 ,  112 ,  105 
E: 000000.285692 64 01 80 7e 80 81 00 00 2f 08 00 00 00 0c d4 2a eb f9 ff ee ff 09 00 36 00 4d 1f 3b 05 72 f3 30 eb 09 89 1c e0 1e 80 00 00 00 44 09 09 00 00 00 00 00 f9 0e 31 eb 28 08 00 17 63 b8 2d d6 f6 70 69
# ReportID: 1 / X:  128 | Y:  126 | Z:  129 | Rz:  129 | Rx:    0 | Ry:    0 | 0xff000020:   48 | Hat switch:   8 | Button: 0  0  0  0  0  0  0  0  0  0  0  0  0  0  0 | 0xff000021: 0 , 0 , 0 , 0 , 0 , 0 , 0 , 0 , 0 , 0 , 0 , 0 , 0 | 0xff000022:   13 ,  212 ,   42 ,  235 ,  247 ,  255 ,  238 ,  255 ,   10 ,    0 ,   57 ,    0 ,   73 ,   31 ,   65 ,    5 ,  102 ,   34 ,   49 ,  235 ,    9 ,  137 ,   28 ,  224 ,   30 ,  128 ,    0 ,    0 ,    0 ,   68 ,    9 ,    9 ,    0 ,    0 ,    0 ,    0 ,    0 ,  217 ,   61 ,   49 ,  235 ,   40 ,    8 ,    0 ,  209 ,   25 ,  124 ,  144 ,   11 ,  186 ,  223 ,  189 
E: 000000.289160 64 01 80 7e 81 81 00 00 30 08 00 00 00 0d d4 2a eb f7 ff ee ff 0a 00 39 00 49 1f 41 05 66 22 31 eb 09 89 1c e0 1e 80 00 00 00 44 09 09 00 00 00 00 00 d9 3d 31 eb 28 08 00 d1 19 7c 90 0b ba df bd
# ReportID: 1 / X:  128 | Y:  126 | Z:  129 | Rz:  129 | Rx:    0 | Ry:    0 | 0xff000020:   49 | Hat switch:   8 | Button: 0  0  0  0  0  0  0  0  0  0  0  0  0  0  0 | 0xff000021: 0 , 0 , 0 , 0 , 0 , 0 , 0 , 0 , 0 , 0 , 0 , 0 , 0 | 0xff000022:   14 ,  212 ,   42 ,  235 ,  247 ,  255 ,  238 ,  255 ,    9 ,    0 ,   64 ,    0 ,   79 ,   31 ,   57 ,    5 ,   89 ,   81 ,   49 ,  235 ,    9 ,  137 ,   28 ,  224 ,   30 ,  128 ,    0 ,    0 ,    0 ,   68 ,    9 ,    9 ,    0 ,    0 ,    0 ,    0 ,    0 ,  185 ,  108 ,   49 ,  235 ,   40 ,    8 ,    0 ,  139 ,   10 ,  183 ,  171 ,  140 ,   36 ,   26 ,  231 
E: 000000.293342 64 01 80 7e 81 81 00 00 31 08 00 00 00 0e d4 2a eb f7 ff ee ff 09 00 40 00 4f 1f 39 05 59 51 31 eb 09 89 1c e0 1e 80 00 00 00 44 09 09 00 00 00 00 00 b9 6c 31 eb 28 08 00 8b 0a b7 ab 8c 24 1a e7
# ReportID: 1 / X:  128 | Y:  126 | Z:  129 | Rz:  129 | Rx:    0 | Ry:    0 | 0xff000020:   50 | Hat switch:   8 | Button: 0  0  0  0  0  0  0  0  0  0  0  0  0  0  0 | 0xff000021: 0 , 0 , 0 , 0 , 0 , 0 , 0 , 0 , 0 , 0 , 0 , 0 , 0 | 0xff000022:   15 ,  212 ,   42 ,  235 ,  247 ,  255 ,  238 ,  255 ,    9 ,    0 ,   63 ,    0 ,   84 ,   31 ,   66 ,    5 ,   76 ,  128 ,   49 ,  235 ,    9 ,  137 ,   28 ,  224 ,   30 ,  128 ,    0 ,    0 ,    0 ,   68 ,    9 ,    9 ,    0 ,    0 ,    0 ,    0 ,    0 ,  153 ,  155 ,   49 ,  235 ,   40 ,    8 ,    0 ,   82 ,   14 ,   78 ,    4 ,   69 ,  124 ,  188 ,   77 
E: 000000.297182 64 01 80 7e 81 81 00 00 32 08 00 00 00 0f d4 2a eb f7 ff ee ff 09 00 3f 00 54 1f 42 05 4c 80 31 eb 09 89 1c e0 1e 80 00 00 00 44 09 09 00 00 00 00 00 99 9b 31 eb 28 08 00 52 0e 4e 04 45 7c bc 4d
# ReportID: 1 / X:  128 | Y:  126 | Z:  128 | Rz:  129 | Rx:    0 | Ry:    0 | 0xff000020:   51 | Hat switch:   8 | Button: 0  0  0  0  0  0  0  0  0  0  0  0  0  0  0 | 0xff000021: 0 , 0 , 0 , 0 , 0 , 0 , 0 , 0 , 0 , 0 , 0 , 0 , 0 | 0xff000022:   16 ,  212 ,   42 ,  235 ,  247 ,  255 ,  237 ,  255 ,   10 ,    0 ,   58 ,    0 ,   86 ,   31 ,   56 ,    5 ,   63 ,  175 ,   49 ,  235 ,    9 ,  137 ,   28 ,  224 ,   30 ,  128 ,    0 ,    0 ,    0 ,   68 ,    9 ,    9 ,    0 ,    0 ,    0 ,    0 ,    0 ,  121 ,  202 ,   49 ,  235 ,   40 ,    8 ,    0 ,  111 ,   78 ,  235 ,  190 ,   16 ,   16 ,  171 ,  190 
E: 000000.301185 64 01 80 7e 80 81 00 00 33 08 00 00 00 10 d4 2a eb f7 ff ed ff 0a 00 3a 00 56 1f 38 05 3f af 31 eb 09 89 1c e0 1e 80 00 00 00 44 09 09 00 00 00 00 00 79 ca 31 eb 28 08 00 6f 4e eb be 10 10 ab be
# ReportID: 1 / X:  128 | Y:  126 | Z:  129 | Rz:  129 | Rx:    0 | Ry:    0 | 0xff000020:   52 | Hat switch:   8 | Button: 0  0  0  0  0  0  0  0  0  0  0  0  0  0  0 | 0xff000021: 0 , 0 , 0 , 0 , 0 , 0 , 0 , 0 , 0 , 0 , 0 , 0 , 0 | 0xff000022:   17 ,  212 ,   42 ,  235 ,  247 ,  255 ,  239 ,  255 ,   10 ,    0 ,   64 ,    0 ,   90 ,   31 ,   64 ,    5 ,   50 ,  222 ,   49 ,  235 ,    9 ,  137 ,   28 ,  224 ,   30 ,  128 ,    0 ,    0 ,    0 ,   68 ,    9 ,    9 ,    0 ,    0 ,    0 ,    0 ,    0 ,   89 ,  249 ,   49 ,  235 ,   40 ,    8 ,    0 ,  149 ,   72 ,   19 ,  142 ,   75 ,  170 ,  124 ,  223 
E: 000000.305231 64 01 80 7e 81 81 00 00 34 08 00 00 00 11 d4 2a eb f7 ff ef ff 0a 00 40 00 5a 1f 40 05 32 de 31 eb 09 89 1c e0 1e 80 00 00 00 44 09 09 00 00 00 00 00 59 f9 31 eb 28 08 00 95 48 13 8e 4b aa 7c df
# ReportID: 1 / X:  128 | Y:  126 | Z:  129 | Rz:  129 | Rx:    0 | Ry:    0 | 0xff000020:   53 | Hat switch:   8 | Button: 0  0  0  0  0  0  0  0  0  0  0  0  0  0  0 | 0xff000021: 0 , 0 , 0 , 0 , 0 , 0 , 0 , 0 , 0 , 0 , 0 , 0 , 0 | 0xff000022:   18 ,  212 ,   42 ,  235 ,  248 ,  255 ,  238 ,  255 ,   10 ,    0 ,   66 ,    0 ,   88 ,   31 ,   56 ,    5 ,   37 ,   13 ,   50 ,  235 ,    9 ,  137 ,   28 ,  224 ,   30 ,  128 ,    0 ,    0 ,    0 ,   68 ,    9 ,    9 ,    0 ,    0 ,    0 ,    0 ,    0 ,   57 ,   40 ,   50 ,  235 ,   40 ,    8 ,    0 ,   12 ,   17 ,   95 ,  113 ,  126 ,   22 ,  142 ,  134 
E: 000000.309153 64 01 80 7e 81 81 00 00 35 08 00 00 00 12 d4 2a eb f8 ff ee ff 0a 00 42 00 58 1f 38 05 25 0d 32 eb 09 89 1c e0 1e 80 00 00 00 44 09 09 00 00 00 00 00 39 28 32 eb 28 08 00 0c 11 5f 71 7e 16 8e 86
# ReportID: 1 / X:  128 | Y:  126 | Z:  129 | Rz:  129 | Rx:    0 | Ry:    0 | 0xff000020:   54 | Hat switch:   8 | Button: 0  0  0  0  0  0  0  0  0  0  0  0  0  0  0 | 0xff000021: 0 , 0 , 0 , 0 , 0 , 0 , 0 , 0 , 0 , 0 , 0 , 0 , 0 | 0xff000022:   19 ,  212 ,   42 ,  235 ,  247 ,  255 ,  238 ,  255 ,   11 ,    0 ,   61 ,    0 ,   74 ,   31 ,   54 ,    5 ,   25 ,   60 ,   50 ,  235 ,    9 ,  137 ,   28 ,  224 ,   30 ,  128 ,    0 ,    0 ,    0 ,   68 ,    9 ,    9 ,    0 ,    0 ,    0 ,    0 ,    0 ,   25 ,   87 ,   50 ,  235 ,   40 ,    8 ,    0 ,   94 ,   98 ,  182 ,  109 ,  172 ,   72 ,  183 ,    5 
E: 000000.314904 64 01 80 7e 81 81 00 00 36 08 00 00 00 13 d4 2a eb f7 ff ee ff 0b 00 3d 00 4a 1f 36 05 19 3c 32 eb 09 89 1c e0 1e 80 00 00 00 44 09 09 00 00 00 00 00 19 57 32 eb 28 08 00 5e 62 b6 6d ac 48 b7 05
# ReportID: 1 / X:  128 | Y:  126 | Z:  129 | Rz:  129 | Rx:    0 | Ry:    0 | 0xff000020:   55 | Hat switch:   8 | Button: 0  0  0  0  0  0  0  0  0  0  0  0  0  0  0 | 0xff000021: 0 , 0 , 0 , 0 , 0 , 0 , 0 , 0 , 0 , 0 , 0 , 0 , 0 | 0xff000022:   20 ,  212 ,   42 ,  235 ,  249 ,  255 ,  239 ,  255 ,   10 ,    0 ,   62 ,    0 ,   80 ,   31 ,   55 ,    5 ,   12 ,  107 ,   50 ,  235 ,    9 ,  137 ,   28 ,  224 ,   30 ,  128 ,    0 ,    0 ,    0 ,   68 ,    9 ,    9 ,    0 ,    0 ,    0 ,    0 ,    0 ,  249 ,  133 ,   50 ,  235 ,   40 ,    8 ,    0 ,  151 ,  191 ,  214 ,  202 ,   28 ,   81 ,  149 ,   42 
E: 000000.318818 64 01 80 7e 81 81 00 00 37 08 00 00 00 14 d4 2a eb f9 ff ef ff 0a 00 3e 00 50 1f 37 05 0c 6b 32 eb 09 89 1c e0 1e 80 00 00 00 44 09 09 00 00 00 00 00 f9 85 32 eb 28 08 00 97 bf d6 ca 1c 51 95 2a
# ReportID: 1 / X:  128 | Y:  126 | Z:  129 | Rz:  129 | Rx:    0 | Ry:    0 | 0xff000020:   56 | Hat switch:   8 | Button: 0  0  0  0  0  0  0  0  0  0  0  0  0  0  0 | 0xff000021: 0 , 0 , 0 , 0 , 0 , 0 , 0 , 0 , 0 , 0 , 0 , 0 , 0 | 0xff000022:   21 ,  212 ,   42 ,  235 ,  247 ,  255 ,  238 ,  255 ,   11 ,    0 ,   52 ,    0 ,   91 ,   31 ,   47 ,    5 ,  255 ,  153 ,   50 ,  235 ,    9 ,  137 ,   28 ,  224 ,   30 ,  128 ,    0 ,    0 ,    0 ,   68 ,    9 ,    9 ,    0 ,    0 ,    0 ,    0 ,    0 ,  217 ,  180 ,   50 ,  235 ,   40 ,    8 ,    0 ,  250 ,   68 ,  163 ,  218 ,  208 ,  184 ,   48 ,  194 
E: 000000.322174 64 01 80 7e 81 81 00 00 38 08 00 00 00 15 d4 2a eb f7 ff ee ff 0b 00 34 00 5b 1f 2f 05 ff 99 32 eb 09 89 1c e0 1e 80 00 00 00 44 09 09 00 00 00 00 00 d9 b4 32 eb 28 08 00 fa 44 a3 da d0 b8 30 c2
# ReportID: 1 / X:  128 | Y:  126 | Z:  129 | Rz:  129 | Rx:    0 | Ry:    0 | 0xff000020:   57 | Hat switch:   8 | Button: 0  0  0  0  0  0  0  0  0  0  0  0  0  0  0 | 0xff000021: 0 , 0 , 0 , 0 , 0 , 0 , 0 , 0 , 0 , 0 , 0 , 0 , 0 | 0xff000022:   22 ,  212 ,   42 ,  235 ,  248 ,  255 ,  238 ,  255 ,   11 ,    0 ,   50 ,    0 ,   94 ,   31 ,   55 ,    5 ,  242 ,  200 ,   50 ,  235 ,    9 ,  137 ,   28 ,  224 ,   30 ,  128 ,    0 ,    0 ,    0 ,   68 ,    9 ,    9 ,    0 ,    0 ,    0 ,    0 ,    0 ,  185 ,  227 ,   50 ,  235 ,   40 ,    8 ,    0 ,   55 ,  132 ,   11 ,   20 ,  195 ,  174 ,   91 ,  154 
E: 000000.325751 64 01 80 7e 81 81 00 00 39 08 00 00 00 16 d4 2a eb f8 ff ee ff 0b 00 32 00 5e 1f 37 05 f2 c8 32 eb 09 89 1c e0 1e 80 00 00 00 44 09 09 00 00 00 00 00 b9 e3 32 eb 28 08 00 37 84 0b 14 c3 ae 5b 9a
# ReportID: 1 / X:  128 | Y:  126 | Z:  129 | Rz:  129 | Rx:    0 | Ry:    0 | 0xff000020:   58 | Hat switch:   8 | Button: 0  0  0  0  0  0  0  0  0  0  0  0  0  0  0 | 0xff000021: 0 , 0 , 0 , 0 , 0 , 0 , 0 , 0 , 0 , 0 , 0 , 0 , 0 | 0xff000022:   23 ,  212 ,   42 ,  235 ,  247 ,  255 ,  238 ,  255 ,   10 ,    0 ,   54 ,    0 ,   95 ,   31 ,   42 ,    5 ,  229 ,  247 ,   50 ,  235 ,    9 ,  137 ,   28 ,  224 ,   30 ,  128 ,    0 ,    0 ,    0 ,   68 ,    9 ,    9 ,    0 ,    0 ,    0 ,    0 ,    0 ,  153 ,   18 ,   51 ,  235 ,   40 ,    8 ,    0 ,   27 ,    8 ,   64 ,  181 ,   52 ,   52 ,  137 ,   81 
E: 000000.329307 64 01 80 7e 81 81 00 00 3a 08 00 00 00 17 d4 2a eb f7 ff ee ff 0a 00 36 00 5f 1f 2a 05 e5 f7 32 eb 09 89 1c e0 1e 80 00 00 00 44 09 09 00 00 00 00 00 99 12 33 eb 28 08 00 1b 08 40 b5 34 34 89 51
# ReportID: 1 / X:  128 | Y:  126 | Z:  129 | Rz:  129 | Rx:    0 | Ry:    0 | 0xff000020:   59 | Hat switch:   8 | Button: 0  0  0  0  0  0  0  0  0  0  0  0  0  0  0 | 0xff000021: 0 , 0 , 0 , 0 , 0 , 0 , 0 , 0 , 0 , 0 , 0 , 0 , 0 | 0xff000022:   24 ,  212 ,   42 ,  235 ,  248 ,  255 ,  238 ,  255 ,   10 ,    0 ,   55 ,    0 ,   91 ,   31 ,   53 ,    5 ,  217 ,   38 ,   51 ,  235 ,    9 ,  137 ,   28 ,  224 ,   30 ,  128 ,    0 ,    0 ,    0 ,   68 ,    9 ,    9 ,    0 ,    0 ,    0 ,    0 ,    0 ,  121 ,   65 ,   51 ,  235 ,   40 ,    8 ,    0 ,   12 ,  188 ,  243 ,   19 ,  135 ,  173 ,  255 ,   44 
E: 000000.333194 64 01 80 7e 81 81 00 00 3b 08 00 00 00 18 d4 2a eb f8 ff ee ff 0a 00 37 00 5b 1f 35 05 d9 26 33 eb 09 89 1c e0 1e 80 00 00 00 44 09 09 00 00 00 00 00 79 41 33 eb 28 08 00 0c bc f3 13 87 ad ff 2c
# ReportID: 1 / X:  128 | Y:  126 | Z:  129 | Rz:  129 | Rx:    0 | Ry:    0 | 0xff000020:   60 | Hat switch:   8 | Button: 0  0  0  0  0  0  0  0  0  0  0  0  0  0  0 | 0xff000021: 0 , 0 , 0 , 0 , 0 , 0 , 0 , 0 , 0 , 0 , 0 , 0 , 0 | 0xff000022:   25 ,  212 ,   42 ,  235 ,  247 ,  255 ,  238 ,  255 ,   11 ,    0 ,   45 ,    0 ,   80 ,   31 ,   47 ,    5 ,  204 ,   85 ,   51 ,  235 ,    9 ,  137 ,   28 ,  224 ,   30 ,  128 ,    0 ,    0 ,    0 ,   68 ,    9 ,    9 ,    0 ,    0 ,    0 ,    0 ,    0 ,   89 ,  112 ,   51 ,  235 ,   40 ,    8 ,    0 ,   78 ,   56 ,   60 ,  246 ,  183 ,  190 ,  146 ,  137 
E: 000000.337185 64 01 80 7e 81 81 00 00 3c 08 00 00 00 19 d4 2a eb f7 ff ee ff 0b 00 2d 00 50 1f 2f 05 cc 55 33 eb 09 89 1c e0 1e 80 00 00 00 44 09 09 00 00 00 00 00 59 70 33 eb 28 08 00 4e 38 3c f6 b7 be 92 89
# ReportID: 1 / X:  128 | Y:  126 | Z:  129 | Rz:  129 | Rx:    0 | Ry:    0 | 0xff000020:   61 | Hat switch:   8 | Button: 0  0  0  0  0  0  0  0  0  0  0  0  0  0  0 | 0xff000021: 0 , 0 , 0 , 0 , 0 , 0 , 0 , 0 , 0 , 0 , 0 , 0 , 0 | 0xff000022:   26 ,  212 ,   42 ,  235 ,  247 ,  255 ,  237 ,  255 ,   10 ,    0 ,   53 ,    0 ,   93 ,   31 ,   52 ,    5 ,  191 ,  132 ,   51 ,  235 ,    8 ,  137 ,   28 ,  224 ,   30 ,  128 ,    0 ,    0 ,    0 ,   68 ,    9 ,    9 ,    0 ,    0 ,    0 ,    0 ,    0 ,   57 ,  159 ,   51 ,  235 ,   40 ,    8 ,    0 ,  130 ,    6 ,   61 ,   46 ,   10 ,   44 ,   97 ,   95 
E: 000000.341310 64 01 80 7e 81 81 00 00 3d 08 00 00 00 1a d4 2a eb f7 ff ed ff 0a 00 35 00 5d 1f 34 05 bf 84 33 eb 08 89 1c e0 1e 80 00 00 00 44 09 09 00 00 00 00 00 39 9f 33 eb 28 08 00 82 06 3d 2e 0a 2c 61 5f
# ReportID: 1 / X:  128 | Y:  126 | Z:  128 | Rz:  129 | Rx:    0 | Ry:    0 | 0xff000020:   62 | Hat switch:   8 | Button: 0  0  0  0  0  0  0  0  0  0  0  0  0  0  0 | 0xff000021: 0 , 0 , 0 , 0 , 0 , 0 , 0 , 0 , 0 , 0 , 0 , 0 , 0 | 0xff000022:   27 ,  212 ,   42 ,  235 ,  246 ,  255 ,  238 ,  255 ,   10 ,    0 ,   39 ,    0 ,   85 ,   31 ,   51 ,    5 ,  178 ,  179 ,   51 ,  235 ,    9 ,  137 ,   28 ,  224 ,   30 ,  128 ,    0 ,    0 ,    0 ,   68 ,    9 ,    9 ,    0 ,    0 ,    0 ,    0 ,    0 ,   25 ,  206 ,   51 ,  235 ,   40 ,    8 ,    0 ,   53 ,  230 ,  172 ,   62 ,  167 ,   75 ,   42 ,  135 
E: 000000.345496 64 01 80 7e 80 81 00 00 3e 08 00 00 00 1b d4 2a eb f6 ff ee ff 0a 00 27 00 55 1f 33 05 b2 b3 33 eb 09 89 1c e0 1e 80 00 00 00 44 09 09 00 00 00 00 00 19 ce 33 eb 28 08 00 35 e6 ac 3e a7 4b 2a 87
# ReportID: 1 / X:  128 | Y:  126 | Z:  128 | Rz:  129 | Rx:    0 | Ry:    0 | 0xff000020:   63 | Hat switch:   8 | Button: 0  0  0  0  0  0  0  0  0  0  0  0  0  0  0 | 0xff000021: 0 , 0 , 0 , 0 , 0 , 0 , 0 , 0 , 0 , 0 , 0 , 0 , 0 | 0xff000022:   28 ,  212 ,   42 ,  235 ,  248 ,  255 ,  238 ,  255 ,   10 ,    0 ,   53 ,    0 ,   87 ,   31 ,   48 ,    5 ,  165 ,  226 ,   51 ,  235 ,    9 ,  137 ,   28 ,  224 ,   30 ,  128 ,    0 ,    0 ,    0 ,   68 ,    9 ,    9 ,    0 ,    0 ,    0 ,    0 ,    0 ,  249 ,  252 ,   51 ,  235 ,   40 ,    8 ,    0 ,  217 ,   88 ,  155 ,  134 ,  148 ,   19 ,  214 ,  152 
E: 000000.350759 64 01 80 7e 80 81 00 00 3f 08 00 00 00 1c d4 2a eb f8 ff ee ff 0a 00 35 00 57 1f 30 05 a5 e2 33 eb 09 89 1c e0 1e 80 00 00 00 44 09 09 00 00 00 00 00 f9 fc 33 eb 28 08 00 d9 58 9b 86 94 13 d6 98
# ReportID: 1 / X:  128 | Y:  126 | Z:  128 | Rz:  129 | Rx:    0 | Ry:    0 | 0xff000020:   64 | Hat switch:   8 | Button: 0  0  0  0  0  0  0  0  0  0  0  0  0  0  0 | 0xff000021: 0 , 0 , 0 , 0 , 0 , 0 , 0 , 0 , 0 , 0 , 0 , 0 , 0 | 0xff000022:   29 ,  212 ,   42 ,  235 ,  247 ,  255 ,  238 ,  255 ,   10 ,    0 ,   46 ,    0 ,   86 ,   31 ,   57 ,    5 ,  153 ,   17 ,   52 ,  235 ,    8 ,  137 ,   28 ,  224 ,   30 ,  128 ,    0 ,    0 ,    0 ,   68 ,    9 ,    9 ,    0 ,    0 ,    0 ,    0 ,    0 ,  217 ,   43 ,   52 ,  235 ,   40 ,    8 ,    0 ,   18 ,   23 ,  131 ,    2 ,   88 ,  117 ,   88 ,  235 
E: 000000.354053 64 01 80 7e 80 81 00 00 40 08 00 00 00 1d d4 2a eb f7 ff ee ff 0a 00 2e 00 56 1f 39 05 99 11 34 eb 08 89 1c e0 1e 80 00 00 00 44 09 09 00 00 00 00 00 d9 2b 34 eb 28 08 00 12 17 83 02 58 75 58 eb
# ReportID: 1 / X:  128 | Y:  126 | Z:  129 | Rz:  129 | Rx:    0 | Ry:    0 | 0xff000020:   65 | Hat switch:   8 | Button: 0  0  0  0  0  0  0  0  0  0  0  0  0  0  0 | 0xff000021: 0 , 0 , 0 , 0 , 0 , 0 , 0 , 0 , 0 , 0 , 0 , 0 , 0 | 0xff000022:   30 ,  212 ,   42 ,  235 ,  247 ,  255 ,  239 ,  255 ,   10 ,    0 ,   42 ,    0 ,   77 ,   31 ,   56 ,    5 ,  140 ,   64 ,   52 ,  235 ,    9 ,  137 ,   28 ,  224 ,   30 ,  128 ,    0 ,    0 ,    0 ,   68 ,    9 ,    9 ,    0 ,    0 ,    0 ,    0 ,    0 ,  185 ,   90 ,   52 ,  235 ,   40 ,    8 ,    0 ,   50 ,  221 ,  117 ,  238 ,  215 ,   21 ,   63 ,   49 
E: 000000.358147 64 01 80 7e 81 81 00 00 41 08 00 00 00 1e d4 2a eb f7 ff ef ff 0a 00 2a 00 4d 1f 38 05 8c 40 34 eb 09 89 1c e0 1e 80 00 00 00 44 09 09 00 00 00 00 00 b9 5a 34 eb 28 08 00 32 dd 75 ee d7 15 3f 31
# ReportID: 1 / X:  128 | Y:  126 | Z:  128 | Rz:  129 | Rx:    0 | Ry:    0 | 0xff000020:   66 | Hat switch:   8 | Button: 0  0  0  0  0  0  0  0  0  0  0  0  0  0  0 | 0xff000021: 0 , 0 , 0 , 0 , 0 , 0 , 0 , 0 , 0 , 0 , 0 , 0 , 0 | 0xff000022:   31 ,  212 ,   42 ,  235 ,  248 ,  255 ,  239 ,  255 ,    9 ,    0 ,   44 ,    0 ,   88 ,   31 ,   45 ,    5 ,  127 ,  111 ,   52 ,  235 ,    9 ,  137 ,   28 ,  224 ,   30 ,  128 ,    0 ,    0 ,    0 ,   68 ,    9 ,    9 ,    0 ,    0 ,    0 ,    0 ,    0 ,  153 ,  137 ,   52 ,  235 ,   40 ,    8 ,    0 ,   63 ,  158 ,  254 ,   82 ,  109 ,   34 ,  167 ,  193 
E: 000000.361929 64 01 80 7e 80 81 00 00 42 08 00 00 00 1f d4 2a eb f8 ff ef ff 09 00 2c 00 58 1f 2d 05 7f 6f 34 eb 09 89 1c e0 1e 80 00 00 00 44 09 09 00 00 00 00 00 99 89 34 eb 28 08 00 3f 9e fe 52 6d 22 a7 c1
# ReportID: 1 / X:  128 | Y:  126 | Z:  129 | Rz:  129 | Rx:    0 | Ry:    0 | 0xff000020:   67 | Hat switch:   8 | Button: 0  0  0  0  0  0  0  0  0  0  0  0  0  0  0 | 0xff000021: 0 , 0 , 0 , 0 , 0 , 0 , 0 , 0 , 0 , 0 , 0 , 0 , 0 | 0xff000022:   32 ,  212 ,   42 ,  235 ,  246 ,  255 ,  239 ,  255 ,   10 ,    0 ,   49 ,    0 ,   87 ,   31 ,   51 ,    5 ,  114 ,  158 ,   52 ,  235 ,    9 ,  137 ,   28 ,  224 ,   30 ,  128 ,    0 ,    0 ,    0 ,   68 ,    9 ,    9 ,    0 ,    0 ,    0 ,    0 ,    0 ,  121 ,  184 ,   52 ,  235 ,   40 ,    8 ,    0 ,  180 ,   69 ,  174 ,  150 ,   85 ,  117 ,  173 ,  128 
E: 000000.365456 64 01 80 7e 81 81 00 00 43 08 00 00 00 20 d4 2a eb f6 ff ef ff 0a 00 31 00 57 1f 33 05 72 9e 34 eb 09 89 1c e0 1e 80 00 00 00 44 09 09 00 00 00 00 00 79 b8 34 eb 28 08 00 b4 45 ae 96 55 75 ad 80
# ReportID: 1 / X:  128 | Y:  126 | Z:  129 | Rz:  129 | Rx:    0 | Ry:    0 | 0xff000020:   68 | Hat switch:   8 | Button: 0  0  0  0  0  0  0  0  0  0  0  0  0  0  0 | 0xff000021: 0 , 0 , 0 , 0 , 0 , 0 , 0 , 0 , 0 , 0 , 0 , 0 , 0 | 0xff000022:   33 ,  212 ,   42 ,  235 ,  246 ,  255 ,  237 ,  255 ,   11 ,    0 ,   54 ,    0 ,   84 ,   31 ,   57 ,    5 ,  101 ,  205 ,   52 ,  235 ,    9 ,  137 ,   28 ,  224 ,   30 ,  128 ,    0 ,    0 ,    0 ,   68 ,    9 ,    9 ,    0 ,    0 ,    0 ,    0 ,    0 ,   89 ,  231 ,   52 ,  235 ,   40 ,    8 ,    0 ,  193 ,  100 ,  224 ,  143 ,  107 ,  107 ,   29 ,  253 
E: 000000.369122 64 01 80 7e 81 81 00 00 44 08 00 00 00 21 d4 2a eb f6 ff ed ff 0b 00 36 00 54 1f 39 05 65 cd 34 eb 09 89 1c e0 1e 80 00 00 00 44 09 09 00 00 00 00 00 59 e7 34 eb 28 08 00 c1 64 e0 8f 6b 6b 1d fd
# ReportID: 1 / X:  128 | Y:  126 | Z:  129 | Rz:  129 | Rx:    0 | Ry:    0 | 0xff000020:   69 | Hat switch:   8 | Button: 0  0  0  0  0  0  0  0  0  0  0  0  0  0  0 | 0xff000021: 0 , 0 , 0 , 0 , 0 , 0 , 0 , 0 , 0 , 0 , 0 , 0 , 0 | 0xff000022:   34 ,  212 ,   42 ,  235 ,  247 ,  255 ,  239 ,  255 ,    9 ,    0 ,   49 ,    0 ,   92 ,   31 ,   54 ,    5 ,   89 ,  252 ,   52 ,  235 ,    9 ,  137 ,   28 ,  224 ,   30 ,  128 ,    0 ,    0 ,    0 ,   68 ,    9 ,    9 ,    0 ,    0 ,    0 ,    0 ,    0 ,   57 ,   22 ,   53 ,  235 ,   40 ,    8 ,    0 ,   69 ,   31 ,  165 ,   57 ,  203 ,   15 ,  150 ,  155 
E: 000000.373147 64 01 80 7e 81 81 00 00 45 08 00 00 00 22 d4 2a eb f7 ff ef ff 09 00 31 00 5c 1f 36 05 59 fc 34 eb 09 89 1c e0 1e 80 00 00 00 44 09 09 00 00 00 00 00 39 16 35 eb 28 08 00 45 1f a5 39 cb 0f 96 9b
# ReportID: 1 / X:  128 | Y:  126 | Z:  129 | Rz:  129 | Rx:    0 | Ry:    0 | 0xff000020:   70 | Hat switch:   8 | Button: 0  0  0  0  0  0  0  0  0  0  0  0  0  0  0 | 0xff000021: 0 , 0 , 0 , 0 , 0 , 0 , 0 , 0 , 0 , 0 , 0 , 0 , 0 | 0xff000022:   35 ,  212 ,   42 ,  235 ,  247 ,  255 ,  239 ,  255 ,   10 ,    0 ,   50 ,    0 ,   84 ,   31 ,   55 ,    5 ,   76 ,   43 ,   53 ,  235 ,    9 ,  137 ,   28 ,  224 ,   30 ,  128 ,    0 ,    0 ,    0 ,   68 ,    9 ,    9 ,    0 ,    0 ,    0 ,    0 ,    0 ,   25 ,   69 ,   53 ,  235 ,   40 ,    8 ,    0 ,  151 ,  113 ,  243 ,  202 ,  135 ,   39 ,  203 ,  216 
E: 000000.377150 64 01 80 7e 81 81 00 00 46 08 00 00 00 23 d4 2a eb f7 ff ef ff 0a 00 32 00 54 1f 37 05 4c 2b 35 eb 09 89 1c e0 1e 80 00 00 00 44 09 09 00 00 00 00 00 19 45 35 eb 28 08 00 97 71 f3 ca 87 27 cb d8
# ReportID: 1 / X:  128 | Y:  126 | Z:  129 | Rz:  129 | Rx:    0 | Ry:    0 | 0xff000020:   71 | Hat switch:   8 | Button: 0  0  0  0  0  0  0  0  0  0  0  0  0  0  0 | 0xff000021: 0 , 0 , 0 , 0 , 0 , 0 , 0 , 0 , 0 , 0 , 0 , 0 , 0 | 0xff000022:   36 ,  212 ,   42 ,  235 ,  247 ,  255 ,  238 ,  255 ,   10 ,    0 ,   55 ,    0 ,   89 ,   31 ,   49 ,    5 ,   63 ,   90 ,   53 ,  235 ,    9 ,  137 ,   28 ,  224 ,   30 ,  128 ,    0 ,    0 ,    0 ,   68 ,    9 ,    9 ,    0 ,    0 ,    0 ,    0 ,    0 ,  249 ,  115 ,   53 ,  235 ,   40 ,    8 ,    0 ,   38 ,  165 ,  189 ,  234 ,  154 ,  187 ,  170 ,  186 
E: 000000.383271 64 01 80 7e 81 81 00 00 47 08 00 00 00 24 d4 2a eb f7 ff ee ff 0a 00 37 00 59 1f 31 05 3f 5a 35 eb 09 89 1c e0 1e 80 00 00 00 44 09 09 00 00 00 00 00 f9 73 35 eb 28 08 00 26 a5 bd ea 9a bb aa ba
# ReportID: 1 / X:  128 | Y:  126 | Z:  128 | Rz:  129 | Rx:    0 | Ry:    0 | 0xff000020:   72 | Hat switch:   8 | Button: 0  0  0  0  0  0  0  0  0  0  0  0  0  0  0 | 0xff000021: 0 , 0 , 0 , 0 , 0 , 0 , 0 , 0 , 0 , 0 , 0 , 0 , 0 | 0xff000022:   37 ,  212 ,   42 ,  235 ,  247 ,  255 ,  238 ,  255 ,    9 ,    0 ,   47 ,    0 ,   81 ,   31 ,   56 ,    5 ,   50 ,  137 ,   53 ,  235 ,    9 ,  137 ,   28 ,  224 ,   30 ,  128 ,    0 ,    0 ,    0 ,   68 ,    9 ,    9 ,    0 ,    0 ,    0 ,    0 ,    0 ,  217 ,  162 ,   53 ,  235 ,   40 ,    8 ,    0 ,  159 ,   61 ,  187 ,  212 ,  109 ,  191 ,  154 ,  212 
E: 000000.386866 64 01 80 7e 80 81 00 00 48 08 00 00 00 25 d4 2a eb f7 ff ee ff 09 00 2f 00 51 1f 38 05 32 89 35 eb 09 89 1c e0 1e 80 00 00 00 44 09 09 00 00 00 00 00 d9 a2 35 eb 28 08 00 9f 3d bb d4 6d bf 9a d4
# ReportID: 1 / X:  128 | Y:  126 | Z:  129 | Rz:  129 | Rx:    0 | Ry:    0 | 0xff000020:   73 | Hat switch:   8 | Button: 0  0  0  0  0  0  0  0  0  0  0  0  0  0  0 | 0xff000021: 0 , 0 , 0 , 0 , 0 , 0 , 0 , 0 , 0 , 0 , 0 , 0 , 0 | 0xff000022:   38 ,  212 ,   42 ,  235 ,  248 ,  255 ,  239 ,  255 ,    9 ,    0 ,   48 ,    0 ,   78 ,   31 ,   56 ,    5 ,   37 ,  184 ,   53 ,  235 ,    9 ,  137 ,   28 ,  224 ,   30 ,  128 ,    0 ,    0 ,    0 ,   68 ,    9 ,    9 ,    0 ,    0 ,    0 ,    0 ,    0 ,  185 ,  209 ,   53 ,  235 ,   40 ,    8 ,    0 ,  103 ,  238 ,   32 ,  138 ,   18 ,    5 ,  213 ,  204 
E: 000000.390347 64 01 80 7e 81 81 00 00 49 08 00 00 00 26 d4 2a eb f8 ff ef ff 09 00 30 00 4e 1f 38 05 25 b8 35 eb 09 89 1c e0 1e 80 00 00 00 44 09 09 00 00 00 00 00 b9 d1 35 eb 28 08 00 67 ee 20 8a 12 05 d5 cc
# ReportID: 1 / X:  128 | Y:  126 | Z:  129 | Rz:  129 | Rx:    0 | Ry:    0 | 0xff000020:   74 | Hat switch:   8 | Button: 0  0  0  0  0  0  0  0  0  0  0  0  0  0  0 | 0xff000021: 0 , 0 , 0 , 0 , 0 , 0 , 0 , 0 , 0 , 0 , 0 , 0 , 0 | 0xff000022:   39 ,  212 ,   42 ,  235 ,  246 ,  255 ,  238 ,  255 ,    9 ,    0 ,   42 ,    0 ,   85 ,   31 ,   52 ,    5 ,   24 ,  231 ,   53 ,  235 ,    9 ,  137 ,   28 ,  224 ,   30 ,  128 ,    0 ,    0 ,    0 ,   68 ,    9 ,    9 ,    0 ,    0 ,    0 ,    0 ,    0 ,  153 ,    0 ,   54 ,  235 ,   40 ,    8 ,    0 ,  206 ,  247 ,   35 ,   91 ,   46 ,  114 ,  254 ,   84 
E: 000000.393903 64 01 80 7e 81 81 00 00 4a 08 00 00 00 27 d4 2a eb f6 ff ee ff 09 00 2a 00 55 1f 34 05 18 e7 35 eb 09 89 1c e0 1e 80 00 00 00 44 09 09 00 00 00 00 00 99 00 36 eb 28 08 00 ce f7 23 5b 2e 72 fe 54
# ReportID: 1 / X:  128 | Y:  126 | Z:  128 | Rz:  129 | Rx:    0 | Ry:    0 | 0xff000020:   75 | Hat switch:   8 | Button: 0  0  0  0  0  0  0  0  0  0  0  0  0  0  0 | 0xff000021: 0 , 0 , 0 , 0 , 0 , 0 , 0 , 0 , 0 , 0 , 0 , 0 , 0 | 0xff000022:   40 ,  212 ,   42 ,  235 ,  247 ,  255 ,  238 ,  255 ,   10 ,    0 ,   54 ,    0 ,   81 ,   31 ,   53 ,    5 ,   12 ,   22 ,   54 ,  235 ,    9 ,  137 ,   28 ,  224 ,   30 ,  128 ,    0 ,    0 ,    0 ,   68 ,    9 ,    9 ,    0 ,    0 ,    0 ,    0 ,    0 ,  121 ,   47 ,   54 ,  235 ,   40 ,    8 ,    0 ,   48 ,  187 ,  182 ,  198 ,  147 ,   17 ,  171 ,   86 
E: 000000.397306 64 01 80 7e 80 81 00 00 4b 08 00 00 00 28 d4 2a eb f7 ff ee ff 0a 00 36 00 51 1f 35 05 0c 16 36 eb 09 89 1c e0 1e 80 00 00 00 44 09 09 00 00 00 00 00 79 2f 36 eb 28 08 00 30 bb b6 c6 93 11 ab 56
# ReportID: 1 / X:  128 | Y:  126 | Z:  128 | Rz:  129 | Rx:    0 | Ry:    0 | 0xff000020:   76 | Hat switch:   8 | Button: 0  0  0  0  0  0  0  0  0  0  0  0  0  0  0 | 0xff000021: 0 , 0 , 0 , 0 , 0 , 0 , 0 , 0 , 0 , 0 , 0 , 0 , 0 | 0xff000022:   41 ,  212 ,   42 ,  235 ,  247 ,  255 ,  239 ,  255 ,    9 ,    0 ,   49 ,    0 ,   80 ,   31 ,   48 ,    5 ,  255 ,   68 ,   54 ,  235 ,    9 ,  137 ,   28 ,  224 ,   30 ,  128 ,    0 ,    0 ,    0 ,   68 ,    9 ,    9 ,    0 ,    0 ,    0 ,    0 ,    0 ,   89 ,   94 ,   54 ,  235 ,   40 ,    8 ,    0 ,  122 ,    6 ,   18 ,   27 ,  238 ,  235 ,   59 ,  190 
E: 000000.402988 64 01 80 7e 80 81 00 00 4c 08 00 00 00 29 d4 2a eb f7 ff ef ff 09 00 31 00 50 1f 30 05 ff 44 36 eb 09 89 1c e0 1e 80 00 00 00 44 09 09 00 00 00 00 00 59 5e 36 eb 28 08 00 7a 06 12 1b ee eb 3b be
# ReportID: 1 / X:  128 | Y:  126 | Z:  129 | Rz:  129 | Rx:    0 | Ry:    0 | 0xff000020:   77 | Hat switch:   8 | Button: 0  0  0  0  0  0  0  0  0  0  0  0  0  0  0 | 0xff000021: 0 , 0 , 0 , 0 , 0 , 0 , 0 , 0 , 0 , 0 , 0 , 0 , 0 | 0xff000022:   42 ,  212 ,   42 ,  235 ,  246 ,  255 ,  238 ,  255 ,   10 ,    0 ,   54 ,    0 ,   86 ,   31 ,   52 ,    5 ,  242 ,  115 ,   54 ,  235 ,    9 ,  137 ,   28 ,  224 ,   30 ,  128 ,    0 ,    0 ,    0 ,   68 ,    9 ,    9 ,    0 ,    0 ,    0 ,    0 ,    0 ,   67 ,  141 ,   54 ,  235 ,   40 ,    8 ,    0 ,  220 ,   97 ,  120 ,  224 ,  222 ,  128 ,   57 ,  100 
E: 000000.405952 64 01 80 7e 81 81 00 00 4d 08 00 00 00 2a d4 2a eb f6 ff ee ff 0a 00 36 00 56 1f 34 05 f2 73 36 eb 09 89 1c e0 1e 80 00 00 00 44 09 09 00 00 00 00 00 43 8d 36 eb 28 08 00 dc 61 78 e0 de 80 39 64
# ReportID: 1 / X:  128 | Y:  126 | Z:  128 | Rz:  129 | Rx:    0 | Ry:    0 | 0xff000020:   78 | Hat switch:   8 | Button: 0  0  0  0  0  0  0  0  0  0  0  0  0  0  0 | 0xff000021: 0 , 0 , 0 , 0 , 0 , 0 , 0 , 0 , 0 , 0 , 0 , 0 , 0 | 0xff000022:   43 ,  212 ,   42 ,  235 ,  248 ,  255 ,  238 ,  255 ,    9 ,    0 ,   52 ,    0 ,   80 ,   31 ,   55 ,    5 ,  229 ,  162 ,   54 ,  235 ,    9 ,  137 ,   28 ,  224 ,   30 ,  128 ,    0 ,    0 ,    0 ,   68 ,    9 ,    9 ,    0 ,    0 ,    0 ,    0 ,    0 ,   53 ,  188 ,   54 ,  235 ,   40 ,    8 ,    0 ,   55 ,   39 ,  110 ,  140 ,   41 ,   96 ,  209 ,  217 
E: 000000.409247 64 01 80 7e 80 81 00 00 4e 08 00 00 00 2b d4 2a eb f8 ff ee ff 09 00 34 00 50 1f 37 05 e5 a2 36 eb 09 89 1c e0 1e 80 00 00 00 44 09 09 00 00 00 00 00 35 bc 36 eb 28 08 00 37 27 6e 8c 29 60 d1 d9
# ReportID: 1 / X:  128 | Y:  126 | Z:  128 | Rz:  129 | Rx:    0 | Ry:    0 | 0xff000020:   79 | Hat switch:   8 | Button: 0  0  0  0  0  0  0  0  0  0  0  0  0  0  0 | 0xff000021: 0 , 0 , 0 , 0 , 0 , 0 , 0 , 0 , 0 , 0 , 0 , 0 , 0 | 0xff000022:   44 ,  212 ,   42 ,  235 ,  248 ,  255 ,  238 ,  255 ,   10 ,    0 ,   46 ,    0 ,   86 ,   31 ,   57 ,    5 ,  216 ,  209 ,   54 ,  235 ,    9 ,  137 ,   28 ,  224 ,   30 ,  128 ,    0 ,    0 ,    0 ,   68 ,    9 ,    9 ,    0 ,    0 ,    0 ,    0 ,    0 ,    0 ,  235 ,   54 ,  235 ,   40 ,    8 ,    0 ,   92 ,  215 ,   40 ,  120 ,  129 ,  181 ,  103 ,  100 
E: 000000.414992 64 01 80 7e 80 81 00 00 4f 08 00 00 00 2c d4 2a eb f8 ff ee ff 0a 00 2e 00 56 1f 39 05 d8 d1 36 eb 09 89 1c e0 1e 80 00 00 00 44 09 09 00 00 00 00 00 00 eb 36 eb 28 08 00 5c d7 28 78 81 b5 67 64
# ReportID: 1 / X:  128 | Y:  126 | Z:  128 | Rz:  129 | Rx:    0 | Ry:    0 | 0xff000020:   80 | Hat switch:   8 | Button: 0  0  0  0  0  0  0  0  0  0  0  0  0  0  0 | 0xff000021: 0 , 0 , 0 , 0 , 0 , 0 , 0 , 0 , 0 , 0 , 0 , 0 , 0 | 0xff000022:   45 ,  212 ,   42 ,  235 ,  247 ,  255 ,  238 ,  255 ,   10 ,    0 ,   42 ,    0 ,   90 ,   31 ,   60 ,    5 ,  204 ,    0 ,   55 ,  235 ,    9 ,  137 ,   28 ,  224 ,   30 ,  128 ,    0 ,    0 ,    0 ,   68 ,    9 ,    9 ,    0 ,    0 ,    0 ,    0 ,    0 ,  224 ,   25 ,   55 ,  235 ,   40 ,    8 ,    0 ,   79 ,  164 ,   13 ,  228 ,  229 ,  187 ,  132 ,   61 
E: 000000.418017 64 01 80 7e 80 81 00 00 50 08 00 00 00 2d d4 2a eb f7 ff ee ff 0a 00 2a 00 5a 1f 3c 05 cc 00 37 eb 09 89 1c e0 1e 80 00 00 00 44 09 09 00 00 00 00 00 e0 19 37 eb 28 08 00 4f a4 0d e4 e5 bb 84 3d
# ReportID: 1 / X:  128 | Y:  126 | Z:  129 | Rz:  129 | Rx:    0 | Ry:    0 | 0xff000020:   81 | Hat switch:   8 | Button: 0  0  0  0  0  0  0  0  0  0  0  0  0  0  0 | 0xff000021: 0 , 0 , 0 , 0 , 0 , 0 , 0 , 0 , 0 , 0 , 0 , 0 , 0 | 0xff000022:   46 ,  212 ,   42 ,  235 ,  247 ,  255 ,  238 ,  255 ,   10 ,    0 ,   42 ,    0 ,   80 ,   31 ,   61 ,    5 ,  191 ,   47 ,   55 ,  235 ,    9 ,  137 ,   28 ,  224 ,   30 ,  128 ,    0 ,    0 ,    0 ,   68 ,    9 ,    9 ,    0 ,    0 ,    0 ,    0 ,    0 ,  193 ,   72 ,   55 ,  235 ,   40 ,    8 ,    0 ,  181 ,   79 ,  231 ,  159 ,  103 ,  231 ,    1 ,   18 
E: 000000.421129 64 01 80 7e 81 81 00 00 51 08 00 00 00 2e d4 2a eb f7 ff ee ff 0a 00 2a 00 50 1f 3d 05 bf 2f 37 eb 09 89 1c e0 1e 80 00 00 00 44 09 09 00 00 00 00 00 c1 48 37 eb 28 08 00 b5 4f e7 9f 67 e7 01 12
# ReportID: 1 / X:  128 | Y:  126 | Z:  129 | Rz:  129 | Rx:    0 | Ry:    0 | 0xff000020:   82 | Hat switch:   8 | Button: 0  0  0  0  0  0  0  0  0  0  0  0  0  0  0 | 0xff000021: 0 , 0 , 0 , 0 , 0 , 0 , 0 , 0 , 0 , 0 , 0 , 0 , 0 | 0xff000022:   47 ,  212 ,   42 ,  235 ,  248 ,  255 ,  239 ,  255 ,   10 ,    0 ,   48 ,    0 ,   83 ,   31 ,   50 ,    5 ,  178 ,   94 ,   55 ,  235 ,    9 ,  137 ,   28 ,  224 ,   30 ,  128 ,    0 ,    0 ,    0 ,   68 ,    9 ,    9 ,    0 ,    0 ,    0 ,    0 ,    0 ,  153 ,  119 ,   55 ,  235 ,   40 ,    8 ,    0 ,   14 ,  201 ,    0 ,  241 ,  184 ,  201 ,   46 ,  201 
E: 000000.426890 64 01 80 7e 81 81 00 00 52 08 00 00 00 2f d4 2a eb f8 ff ef ff 0a 00 30 00 53 1f 32 05 b2 5e 37 eb 09 89 1c e0 1e 80 00 00 00 44 09 09 00 00 00 00 00 99 77 37 eb 28 08 00 0e c9 00 f1 b8 c9 2e c9
