# Sony Interactive Entertainment DualSense Wireless Controller
# 0x05, 0x01,                    // Usage Page (Generic Desktop)        0
# 0x09, 0x05,                    // Usage (Game Pad)                    2
# 0xa1, 0x01,                    // Collection (Application)            4
# 0x85, 0x01,                    //  Report ID (1)                      6
# 0x09, 0x30,                    //  Usage (X)                          8
# 0x09, 0x31,                    //  Usage (Y)                          10
# 0x09, 0x32,                    //  Usage (Z)                          12
# 0x09, 0x35,                    //  Usage (Rz)                         14
# 0x09, 0x33,                    //  Usage (Rx)                         16
# 0x09, 0x34,                    //  Usage (Ry)                         18
# 0x15, 0x00,                    //  Logical Minimum (0)                20
# 0x26, 0xff, 0x00,              //  Logical Maximum (255)              22
# 0x75, 0x08,                    //  Report Size (8)                    25
# 0x95, 0x06,                    //  Report Count (6)                   27
# 0x81, 0x02,                    //  Input (Data,Var,Abs)               29
# 0x06, 0x00, 0xff,              //  Usage Page (Vendor Defined Page 1) 31
# 0x09, 0x20,                    //  Usage (Vendor Usage 0x20)          34
# 0x95, 0x01,                    //  Report Count (1)                   36
# 0x81, 0x02,                    //  Input (Data,Var,Abs)               38
# 0x05, 0x01,                    //  Usage Page (Generic Desktop)       40
# 0x09, 0x39,                    //  Usage (Hat switch)                 42
# 0x15, 0x00,                    //  Logical Minimum (0)                44
# 0x25, 0x07,                    //  Logical Maximum (7)                46
# 0x35, 0x00,                    //  Physical Minimum (0)               48
# 0x46, 0x3b, 0x01,              //  Physical Maximum (315)             50
# 0x65, 0x14,                    //  Unit (EnglishRotation: deg)        53
# 0x75, 0x04,                    //  Report Size (4)                    55
# 0x95, 0x01,                    //  Report Count (1)                   57
# 0x81, 0x42,                    //  Input (Data,Var,Abs,Null)          59
# 0x65, 0x00,                    //  Unit (None)                        61
# 0x05, 0x09,                    //  Usage Page (Button)                63
# 0x19, 0x01,                    //  Usage Minimum (1)                  65
# 0x29, 0x0f,                    //  Usage Maximum (15)                 67
# 0x15, 0x00,                    //  Logical Minimum (0)                69
# 0x25, 0x01,                    //  Logical Maximum (1)                71
# 0x75, 0x01,                    //  Report Size (1)                    73
# 0x95, 0x0f,                    //  Report Count (15)                  75
# 0x81, 0x02,                    //  Input (Data,Var,Abs)               77
# 0x06, 0x00, 0xff,              //  Usage Page (Vendor Defined Page 1) 79
# 0x09, 0x21,                    //  Usage (Vendor Usage 0x21)          82
# 0x95, 0x0d,                    //  Report Count (13)                  84
# 0x81, 0x02,                    //  Input (Data,Var,Abs)               86
# 0x06, 0x00, 0xff,              //  Usage Page (Vendor Defined Page 1) 88
# 0x09, 0x22,                    //  Usage (Vendor Usage 0x22)          91
# 0x15, 0x00,                    //  Logical Minimum (0)                93
# 0x26, 0xff, 0x00,              //  Logical Maximum (255)              95
# 0x75, 0x08,                    //  Report Size (8)                    98
# 0x95, 0x34,                    //  Report Count (52)                  100
# 0x81, 0x02,                    //  Input (Data,Var,Abs)               102
# 0x85, 0x02,                    //  Report ID (2)                      104
# 0x09, 0x23,                    //  Usage (Vendor Usage 0x23)          106
# 0x95, 0x2f,                    //  Report Count (47)                  108
# 0x91, 0x02,                    //  Output (Data,Var,Abs)              110
# 0x85, 0x05,                    //  Report ID (5)                      112
# 0x09, 0x33,                    //  Usage (Vendor Usage 0x33)          114
# 0x95, 0x28,                    //  Report Count (40)                  116
# 0xb1, 0x02,                    //  Feature (Data,Var,Abs)             118
# 0x85, 0x08,                    //  Report ID (8)                      120
# 0x09, 0x34,                    //  Usage (Vendor Usage 0x34)          122
# 0x95, 0x2f,                    //  Report Count (47)                  124
# 0xb1, 0x02,                    //  Feature (Data,Var,Abs)             126
# 0x85, 0x09,                    //  Report ID (9)                      128
# 0x09, 0x24,                    //  Usage (Vendor Usage 0x24)          130
# 0x95, 0x13,                    //  Report Count (19)                  132
# 0xb1, 0x02,                    //  Feature (Data,Var,Abs)             134
# 0x85, 0x0a,                    //  Report ID (10)                     136
# 0x09, 0x25,                    //  Usage (Vendor Usage 0x25)          138
# 0x95, 0x1a,                    //  Report Count (26)                  140
# 0xb1, 0x02,                    //  Feature (Data,Var,Abs)             142
# 0x85, 0x20,                    //  Report ID (32)                     144
# 0x09, 0x26,                    //  Usage (Vendor Usage 0x26)          146
# 0x95, 0x3f,                    //  Report Count (63)                  148
# 0xb1, 0x02,                    //  Feature (Data,Var,Abs)             150
# 0x85, 0x21,                    //  Report ID (33)                     152
# 0x09, 0x27,                    //  Usage (Vendor Usage 0x27)          154
# 0x95, 0x04,                    //  Report Count (4)                   156
# 0xb1, 0x02,                    //  Feature (Data,Var,Abs)             158
# 0x85, 0x22,                    //  Report ID (34)                     160
# 0x09, 0x40,                    //  Usage (Vendor Usage 0x40)          162
# 0x95, 0x3f,                    //  Report Count (63)                  164
# 0xb1, 0x02,                    //  Feature (Data,Var,Abs)             166
# 0x85, 0x80,                    //  Report ID (128)                    168
# 0x09, 0x28,                    //  Usage (Vendor Usage 0x28)          170
# 0x95, 0x3f,                    //  Report Count (63)                  172
# 0xb1, 0x02,                    //  Feature (Data,Var,Abs)             174
# 0x85, 0x81,                    //  Report ID (129)                    176
# 0x09, 0x29,                    //  Usage (Vendor Usage 0x29)          178
# 0x95, 0x3f,                    //  Report Count (63)                  180
# 0xb1, 0x02,                    //  Feature (Data,Var,Abs)             182
# 0x85, 0x82,                    //  Report ID (130)                    184
# 0x09, 0x2a,                    //  Usage (Vendor Usage 0x2a)          186
# 0x95, 0x09,                    //  Report Count (9)                   188
# 0xb1, 0x02,                    //  Feature (Data,Var,Abs)             190
# 0x85, 0x83,                    //  Report ID (131)                    192
# 0x09, 0x2b,                    //  Usage (Vendor Usage 0x2b)          194
# 0x95, 0x3f,                    //  Report Count (63)                  196
# 0xb1, 0x02,                    //  Feature (Data,Var,Abs)             198
# 0x85, 0x84,                    //  Report ID (132)                    200
# 0x09, 0x2c,                    //  Usage (Vendor Usage 0x2c)          202
# 0x95, 0x3f,                    //  Report Count (63)                  204
# 0xb1, 0x02,                    //  Feature (Data,Var,Abs)             206
# 0x85, 0x85,                    //  Report ID (133)                    208
# 0x09, 0x2d,                    //  Usage (Vendor Usage 0x2d)          210
# 0x95, 0x02,                    //  Report Count (2)                   212
# 0xb1, 0x02,                    //  Feature (Data,Var,Abs)             214
# 0x85, 0xa0,                    //  Report ID (160)                    216
# 0x09, 0x2e,                    //  Usage (Vendor Usage 0x2e)          218
# 0x95, 0x01,                    //  Report Count (1)                   220
# 0xb1, 0x02,                    //  Feature (Data,Var,Abs)             222
# 0x85, 0xe0,                    //  Report ID (224)                    224
# 0x09, 0x2f,                    //  Usage (Vendor Usage 0x2f)          226
# 0x95, 0x3f,                    //  Report Count (63)                  228
# 0xb1, 0x02,                    //  Feature (Data,Var,Abs)             230
# 0x85, 0xf0,                    //  Report ID (240)                    232
# 0x09, 0x30,                    //  Usage (Vendor Usage 0x30)          234
# 0x95, 0x3f,                    //  Report Count (63)                  236
# 0xb1, 0x02,                    //  Feature (Data,Var,Abs)             238
# 0x85, 0xf1,                    //  Report ID (241)                    240
# 0x09, 0x31,                    //  Usage (Vendor Usage 0x31)          242
# 0x95, 0x3f,                    //  Report Count (63)                  244
# 0xb1, 0x02,                    //  Feature (Data,Var,Abs)             246
# 0x85, 0xf2,                    //  Report ID (242)                    248
# 0x09, 0x32,                    //  Usage (Vendor Usage 0x32)          250
# 0x95, 0x0f,                    //  Report Count (15)                  252
# 0xb1, 0x02,                    //  Feature (Data,Var,Abs)             254
# 0x85, 0xf4,                    //  Report ID (244)                    256
# 0x09, 0x35,                    //  Usage (Vendor Usage 0x35)          258
# 0x95, 0x3f,                    //  Report Count (63)                  260
# 0xb1, 0x02,                    //  Feature (Data,Var,Abs)             262
# 0x85, 0xf5,                    //  Report ID (245)                    264
# 0x09, 0x36,                    //  Usage (Vendor Usage 0x36)          266
# 0x95, 0x03,                    //  Report Count (3)                   268
# 0xb1, 0x02,                    //  Feature (Data,Var,Abs)             270
# 0xc0,                          // End Collection                      272
# 
R: 273 05 01 09 05 a1 01 85 01 09 30 09 31 09 32 09 35 09 33 09 34 15 00 26 ff 00 75 08 95 06 81 02 06 00 ff 09 20 95 01 81 02 05 01 09 39 15 00 25 07 35 00 46 3b 01 65 14 75 04 95 01 81 42 65 00 05 09 19 01 29 0f 15 00 25 01 75 01 95 0f 81 02 06 00 ff 09 21 95 0d 81 02 06 00 ff 09 22 15 00 26 ff 00 75 08 95 34 81 02 85 02 09 23 95 2f 91 02 85 05 09 33 95 28 b1 02 85 08 09 34 95 2f b1 02 85 09 09 24 95 13 b1 02 85 0a 09 25 95 1a b1 02 85 20 09 26 95 3f b1 02 85 21 09 27 95 04 b1 02 85 22 09 40 95 3f b1 02 85 80 09 28 95 3f b1 02 85 81 09 29 95 3f b1 02 85 82 09 2a 95 09 b1 02 85 83 09 2b 95 3f b1 02 85 84 09 2c 95 3f b1 02 85 85 09 2d 95 02 b1 02 85 a0 09 2e 95 01 b1 02 85 e0 09 2f 95 3f b1 02 85 f0 09 30 95 3f b1 02 85 f1 09 31 95 3f b1 02 85 f2 09 32 95 0f b1 02 85 f4 09 35 95 3f b1 02 85 f5 09 36 95 03 b1 02 c0
N: Sony Interactive Entertainment DualSense Wireless Controller
I: 3 054c 0ce6
# ReportID: 1 / X:  129 | Y:  127 | Z:  127 | Rz:  129 | Rx:    0 | Ry:    0 | 0xff000020:   81 | Hat switch:   8 | Button: 0  0  0  0  0  0  0  0  0  0  0  0  0  0  0 | 0xff000021: 0 , 0 , 0 , 0 , 0 , 0 , 0 , 0 , 0 , 0 , 0 , 0 , 0 | 0xff000022:   46 ,  240 ,   41 ,  235 ,  247 ,  255 ,  239 ,  255 ,    9 ,    0 ,   43 ,    0 ,   67 ,   31 ,    6 ,    5 ,   52 ,  200 ,  119 ,  193 ,    7 ,  128 ,    0 ,    0 ,    0 ,  128 ,    0 ,    0 ,    0 ,    0 ,    9 ,    9 ,    0 ,    0 ,    0 ,    0 ,    0 ,  225 ,  235 ,  119 ,  193 ,   40 ,    8 ,    0 ,  254 ,    1 ,  111 ,   33 ,   75 ,  186 ,  112 ,   54 
E: 000000.000000 64 01 81 7f 7f 81 00 00 51 08 00 00 00 2e f0 29 eb f7 ff ef ff 09 00 2b 00 43 1f 06 05 34 c8 77 c1 07 80 00 00 00 80 00 00 00 00 09 09 00 00 00 00 00 e1 eb 77 c1 28 08 00 fe 01 6f 21 4b ba 70 36
# ReportID: 1 / X:  129 | Y:  127 | Z:  127 | Rz:  129 | Rx:    0 | Ry:    0 | 0xff000020:   82 | Hat switch:   8 | Button: 0  0  0  0  0  0  0  0  0  0  0  0  0  0  0 | 0xff000021: 0 , 0 , 0 , 0 , 0 , 0 , 0 , 0 , 0 , 0 , 0 , 0 , 0 | 0xff000022:   47 ,  240 ,   41 ,  235 ,  248 ,  255 ,  239 ,  255 ,    8 ,    0 ,   25 ,    0 ,  229 ,   30 ,   20 ,    5 ,   39 ,  247 ,  119 ,  193 ,    7 ,  128 ,    0 ,    0 ,    0 ,  128 ,    0 ,    0 ,    0 ,    0 ,    9 ,    9 ,    0 ,    0 ,    0 ,    0 ,    0 ,  193 ,   26 ,  120 ,  193 ,   40 ,    8 ,    0 ,   32 ,  203 ,   40 ,   14 ,  231 ,  112 ,   85 ,  230 
E: 000000.002786 64 01 81 7f 7f 81 00 00 52 08 00 00 00 2f f0 29 eb f8 ff ef ff 08 00 19 00 e5 1e 14 05 27 f7 77 c1 07 80 00 00 00 80 00 00 00 00 09 09 00 00 00 00 00 c1 1a 78 c1 28 08 00 20 cb 28 0e e7 70 55 e6
# ReportID: 1 / X:  129 | Y:  127 | Z:  127 | Rz:  129 | Rx:    0 | Ry:    0 | 0xff000020:   83 | Hat switch:   8 | Button: 0  0  0  0  0  0  0  0  0  0  0  0  0  0  0 | 0xff000021: 0 , 0 , 0 , 0 , 0 , 0 , 0 , 0 , 0 , 0 , 0 , 0 , 0 | 0xff000022:   48 ,  240 ,   41 ,  235 ,  248 ,  255 ,  239 ,  255 ,   10 ,    0 ,   30 ,    0 ,  120 ,   31 ,   43 ,    5 ,   26 ,   38 ,  120 ,  193 ,    7 ,  128 ,    0 ,    0 ,    0 ,  128 ,    0 ,    0 ,    0 ,    0 ,    9 ,    9 ,    0 ,    0 ,    0 ,    0 ,    0 ,  163 ,   73 ,  120 ,  193 ,   40 ,    8 ,    0 ,  100 ,   88 ,  192 ,  119 ,   86 ,  251 ,   20 ,  170 
E: 000000.006532 64 01 81 7f 7f 81 00 00 53 08 00 00 00 30 f0 29 eb f8 ff ef ff 0a 00 1e 00 78 1f 2b 05 1a 26 78 c1 07 80 00 00 00 80 00 00 00 00 09 09 00 00 00 00 00 a3 49 78 c1 28 08 00 64 58 c0 77 56 fb 14 aa
# ReportID: 1 / X:  129 | Y:  127 | Z:  127 | Rz:  129 | Rx:    0 | Ry:    0 | 0xff000020:   84 | Hat switch:   8 | Button: 0  0  0  0  0  0  0  0  0  0  0  0  0  0  0 | 0xff000021: 0 , 0 , 0 , 0 , 0 , 0 , 0 , 0 , 0 , 0 , 0 , 0 , 0 | 0xff000022:   49 ,  240 ,   41 ,  235 ,  247 ,  255 ,  238 ,  255 ,   10 ,    0 ,   59 ,    0 ,   41 ,   32 ,   73 ,    5 ,   13 ,   85 ,  120 ,  193 ,    7 ,  128 ,    0 ,    0 ,    0 ,  128 ,    0 ,    0 ,    0 ,    0 ,    9 ,    9 ,    0 ,    0 ,    0 ,    0 ,    0 ,  150 ,  120 ,  120 ,  193 ,   40 ,    8 ,    0 ,  199 ,  217 ,  128 ,  240 ,  117 ,   54 ,  150 ,  161 
E: 000000.008967 64 01 81 7f 7f 81 00 00 54 08 00 00 00 31 f0 29 eb f7 ff ee ff 0a 00 3b 00 29 20 49 05 0d 55 78 c1 07 80 00 00 00 80 00 00 00 00 09 09 00 00 00 00 00 96 78 78 c1 28 08 00 c7 d9 80 f0 75 36 96 a1
# ReportID: 1 / X:  129 | Y:  127 | Z:  127 | Rz:  129 | Rx:    0 | Ry:    0 | 0xff000020:   85 | Hat switch:   8 | Button: 0  0  0  0  0  0  0  0  0  0  0  0  0  0  0 | 0xff000021: 0 , 0 , 0 , 0 , 0 , 0 , 0 , 0 , 0 , 0 , 0 , 0 , 0 | 0xff000022:   50 ,  240 ,   41 ,  235 ,  242 ,  255 ,  239 ,  255 ,   11 ,    0 ,   32 ,    0 ,  199 ,   31 ,   70 ,    5 ,    0 ,  132 ,  120 ,  193 ,    7 ,  128 ,    0 ,    0 ,    0 ,  128 ,    0 ,    0 ,    0 ,    0 ,    9 ,    9 ,    0 ,    0 ,    0 ,    0 ,    0 ,  103 ,  167 ,  120 ,  193 ,   40 ,    8 ,    0 ,  104 ,   79 ,  198 ,  142 ,   81 ,   90 ,   11 ,  139 
E: 000000.012992 64 01 81 7f 7f 81 00 00 55 08 00 00 00 32 f0 29 eb f2 ff ef ff 0b 00 20 00 c7 1f 46 05 00 84 78 c1 07 80 00 00 00 80 00 00 00 00 09 09 00 00 00 00 00 67 a7 78 c1 28 08 00 68 4f c6 8e 51 5a 0b 8b
# ReportID: 1 / X:  129 | Y:  127 | Z:  127 | Rz:  129 | Rx:    0 | Ry:    0 | 0xff000020:   86 | Hat switch:   8 | Button: 0  0  0  0  0  0  0  0  0  0  0  0  0  0  0 | 0xff000021: 0 , 0 , 0 , 0 , 0 , 0 , 0 , 0 , 0 , 0 , 0 , 0 , 0 | 0xff000022:   51 ,  240 ,   41 ,  235 ,  244 ,  255 ,  238 ,  255 ,   10 ,    0 ,   26 ,    0 ,   73 ,   31 ,   42 ,    5 ,  244 ,  178 ,  120 ,  193 ,    7 ,  128 ,    0 ,    0 ,    0 ,  128 ,    0 ,    0 ,    0 ,    0 ,    9 ,    9 ,    0 ,    0 ,    0 ,    0 ,    0 ,   75 ,  214 ,  120 ,  193 ,   40 ,    8 ,    0 ,  126 ,   38 ,   31 ,  247 ,   51 ,  235 ,  126 ,  253 
E: 000000.017368 64 01 81 7f 7f 81 00 00 56 08 00 00 00 33 f0 29 eb f4 ff ee ff 0a 00 1a 00 49 1f 2a 05 f4 b2 78 c1 07 80 00 00 00 80 00 00 00 00 09 09 00 00 00 00 00 4b d6 78 c1 28 08 00 7e 26 1f f7 33 eb 7e fd
# ReportID: 1 / X:  129 | Y:  127 | Z:  127 | Rz:  129 | Rx:    0 | Ry:    0 | 0xff000020:   87 | Hat switch:   8 | Button: 0  0  0  0  0  0  0  0  0  0  0  0  0  0  0 | 0xff000021: 0 , 0 , 0 , 0 , 0 , 0 , 0 , 0 , 0 , 0 , 0 , 0 , 0 | 0xff000022:   52 ,  240 ,   41 ,  235 ,  243 ,  255 ,  237 ,  255 ,   11 ,    0 ,   50 ,    0 ,   61 ,   31 ,   24 ,    5 ,  231 ,  225 ,  120 ,  193 ,    7 ,  128 ,    0 ,    0 ,    0 ,  128 ,    0 ,    0 ,    0 ,    0 ,    9 ,    9 ,    0 ,    0 ,    0 ,    0 ,    0 ,   41 ,    5 ,  121 ,  193 ,   40 ,    8 ,    0 ,   12 ,   60 ,   69 ,   57 ,   28 ,  126 ,  212 ,   73 
E: 000000.021457 64 01 81 7f 7f 81 00 00 57 08 00 00 00 34 f0 29 eb f3 ff ed ff 0b 00 32 00 3d 1f 18 05 e7 e1 78 c1 07 80 00 00 00 80 00 00 00 00 09 09 00 00 00 00 00 29 05 79 c1 28 08 00 0c 3c 45 39 1c 7e d4 49
# ReportID: 1 / X:  129 | Y:  126 | Z:  127 | Rz:  129 | Rx:    0 | Ry:    0 | 0xff000020:   88 | Hat switch:   8 | Button: 0  0  0  0  0  0  0  0  0  0  0  0  0  0  0 | 0xff000021: 0 , 0 , 0 , 0 , 0 , 0 , 0 , 0 , 0 , 0 , 0 , 0 , 0 | 0xff000022:   53 ,  240 ,   41 ,  235 ,  243 ,  255 ,  238 ,  255 ,   11 ,    0 ,   54 ,    0 ,   11 ,   31 ,   46 ,    5 ,  217 ,   16 ,  121 ,  193 ,    7 ,  128 ,    0 ,    0 ,    0 ,  128 ,    0 ,    0 ,    0 ,    0 ,    9 ,    9 ,    0 ,    0 ,    0 ,    0 ,    0 ,    1 ,   52 ,  121 ,  193 ,   40 ,    8 ,    0 ,  107 ,   82 ,   55 ,  113 ,  187 ,  177 ,  196 ,  103 
E: 000000.026289 64 01 81 7e 7f 81 00 00 58 08 00 00 00 35 f0 29 eb f3 ff ee ff 0b 00 36 00 0b 1f 2e 05 d9 10 79 c1 07 80 00 00 00 80 00 00 00 00 09 09 00 00 00 00 00 01 34 79 c1 28 08 00 6b 52 37 71 bb b1 c4 67
# ReportID: 1 / X:  129 | Y:  127 | Z:  127 | Rz:  129 | Rx:    0 | Ry:    0 | 0xff000020:   89 | Hat switch:   8 | Button: 0  0  0  0  0  0  0  0  0  0  0  0  0  0  0 | 0xff000021: 0 , 0 , 0 , 0 , 0 , 0 , 0 , 0 , 0 , 0 , 0 , 0 , 0 | 0xff000022:   54 ,  240 ,   41 ,  235 ,  245 ,  255 ,  238 ,  255 ,    9 ,    0 ,   65 ,    0 ,  231 ,   30 ,   54 ,    5 ,  205 ,   63 ,  121 ,  193 ,    7 ,  128 ,    0 ,    0 ,    0 ,  128 ,    0 ,    0 ,    0 ,    0 ,    9 ,    9 ,    0 ,    0 ,    0 ,    0 ,    0 ,  225 ,   98 ,  121 ,  193 ,   40 ,    8 ,    0 ,   25 ,   59 ,  219 ,  163 ,   90 ,   89 ,  243 ,   23 
E: 000000.029343 64 01 81 7f 7f 81 00 00 59 08 00 00 00 36 f0 29 eb f5 ff ee ff 09 00 41 00 e7 1e 36 05 cd 3f 79 c1 07 80 00 00 00 80 00 00 00 00 09 09 00 00 00 00 00 e1 62 79 c1 28 08 00 19 3b db a3 5a 59 f3 17
# ReportID: 1 / X:  129 | Y:  127 | Z:  127 | Rz:  129 | Rx:    0 | Ry:    0 | 0xff000020:   90 | Hat switch:   8 | Button: 0  0  0  0  0  0  0  0  0  0  0  0  0  0  0 | 0xff000021: 0 , 0 , 0 , 0 , 0 , 0 , 0 , 0 , 0 , 0 , 0 , 0 , 0 | 0xff000022:   55 ,  240 ,   41 ,  235 ,  247 ,  255 ,  237 ,  255 ,   10 ,    0 ,   68 ,    0 ,   58 ,   31 ,   61 ,    5 ,  193 ,  110 ,  121 ,  193 ,    7 ,  128 ,    0 ,    0 ,    0 ,  128 ,    0 ,    0 ,    0 ,    0 ,    9 ,    9 ,    0 ,    0 ,    0 ,    0 ,    0 ,  193 ,  145 ,  121 ,  193 ,   40 ,    8 ,    0 ,  190 ,  152 ,  141 ,   37 ,  233 ,   82 ,  133 ,   58 
E: 000000.033161 64 01 81 7f 7f 81 00 00 5a 08 00 00 00 37 f0 29 eb f7 ff ed ff 0a 00 44 00 3a 1f 3d 05 c1 6e 79 c1 07 80 00 00 00 80 00 00 00 00 09 09 00 00 00 00 00 c1 91 79 c1 28 08 00 be 98 8d 25 e9 52 85 3a
# ReportID: 1 / X:  129 | Y:  127 | Z:  127 | Rz:  129 | Rx:    0 | Ry:    0 | 0xff000020:   91 | Hat switch:   8 | Button: 0  0  0  0  0  0  0  0  0  0  0  0  0  0  0 | 0xff000021: 0 , 0 , 0 , 0 , 0 , 0 , 0 , 0 , 0 , 0 , 0 , 0 , 0 | 0xff000022:   56 ,  240 ,   41 ,  235 ,  245 ,  255 ,  238 ,  255 ,    9 ,    0 ,   60 ,    0 ,  160 ,   31 ,   71 ,    5 ,  183 ,  157 ,  121 ,  193 ,    7 ,  128 ,    0 ,    0 ,    0 ,  128 ,    0 ,    0 ,    0 ,    0 ,    9 ,    9 ,    0 ,    0 ,    0 ,    0 ,    0 ,  161 ,  192 ,  121 ,  193 ,   40 ,    8 ,    0 ,  233 ,  111 ,  245 ,  112 ,  106 ,   71 ,  194 ,  167 
E: 000000.037256 64 01 81 7f 7f 81 00 00 5b 08 00 00 00 38 f0 29 eb f5 ff ee ff 09 00 3c 00 a0 1f 47 05 b7 9d 79 c1 07 80 00 00 00 80 00 00 00 00 09 09 00 00 00 00 00 a1 c0 79 c1 28 08 00 e9 6f f5 70 6a 47 c2 a7
# ReportID: 1 / X:  129 | Y:  127 | Z:  127 | Rz:  129 | Rx:    0 | Ry:    0 | 0xff000020:   92 | Hat switch:   8 | Button: 0  0  0  0  0  0  0  0  0  0  0  0  0  0  0 | 0xff000021: 0 , 0 , 0 , 0 , 0 , 0 , 0 , 0 , 0 , 0 , 0 , 0 , 0 | 0xff000022:   57 ,  240 ,   41 ,  235 ,  246 ,  255 ,  238 ,  255 ,    9 ,    0 ,   68 ,    0 ,  123 ,   31 ,   87 ,    5 ,  168 ,  204 ,  121 ,  193 ,    7 ,  128 ,    0 ,    0 ,    0 ,  128 ,    0 ,    0 ,    0 ,    0 ,    9 ,    9 ,    0 ,    0 ,    0 ,    0 ,    0 ,  129 ,  239 ,  121 ,  193 ,   40 ,    8 ,    0 ,   16 ,   34 ,  220 ,  111 ,  239 ,  162 ,  168 ,   53 
E: 000000.041329 64 01 81 7f 7f 81 00 00 5c 08 00 00 00 39 f0 29 eb f6 ff ee ff 09 00 44 00 7b 1f 57 05 a8 cc 79 c1 07 80 00 00 00 80 00 00 00 00 09 09 00 00 00 00 00 81 ef 79 c1 28 08 00 10 22 dc 6f ef a2 a8 35
# ReportID: 1 / X:  129 | Y:  126 | Z:  127 | Rz:  129 | Rx:    0 | Ry:    0 | 0xff000020:   93 | Hat switch:   8 | Button: 0  0  0  0  0  0  0  0  0  0  0  0  0  0  0 | 0xff000021: 0 , 0 , 0 , 0 , 0 , 0 , 0 , 0 , 0 , 0 , 0 , 0 , 0 | 0xff000022:   58 ,  240 ,   41 ,  235 ,  245 ,  255 ,  238 ,  255 ,   10 ,    0 ,   61 ,    0 ,   73 ,   31 ,   87 ,    5 ,  156 ,  251 ,  121 ,  193 ,    7 ,  128 ,    0 ,    0 ,    0 ,  128 ,    0 ,    0 ,    0 ,    0 ,    9 ,    9 ,    0 ,    0 ,    0 ,    0 ,    0 ,   97 ,   30 ,  122 ,  193 ,   40 ,    8 ,    0 ,   29 ,  103 ,   91 ,   14 ,   27 ,   39 ,  227 ,   58 
E: 000000.045463 64 01 81 7e 7f 81 00 00 5d 08 00 00 00 3a f0 29 eb f5 ff ee ff 0a 00 3d 00 49 1f 57 05 9c fb 79 c1 07 80 00 00 00 80 00 00 00 00 09 09 00 00 00 00 00 61 1e 7a c1 28 08 00 1d 67 5b 0e 1b 27 e3 3a
# ReportID: 1 / X:  129 | Y:  126 | Z:  127 | Rz:  129 | Rx:    0 | Ry:    0 | 0xff000020:   94 | Hat switch:   8 | Button: 0  0  0  0  0  0  0  0  0  0  0  0  0  0  0 | 0xff000021: 0 , 0 , 0 , 0 , 0 , 0 , 0 , 0 , 0 , 0 , 0 , 0 , 0 | 0xff000022:   59 ,  240 ,   41 ,  235 ,  246 ,  255 ,  238 ,  255 ,   10 ,    0 ,   57 ,    0 ,   40 ,   31 ,   86 ,    5 ,  144 ,   42 ,  122 ,  193 ,    7 ,  128 ,    0 ,    0 ,    0 ,  128 ,    0 ,    0 ,    0 ,    0 ,    9 ,    9 ,    0 ,    0 ,    0 ,    0 ,    0 ,   65 ,   77 ,  122 ,  193 ,   40 ,    8 ,    0 ,   58 ,  112 ,  168 ,  166 ,  217 ,  153 ,  136 ,  125 
E: 000000.050293 64 01 81 7e 7f 81 00 00 5e 08 00 00 00 3b f0 29 eb f6 ff ee ff 0a 00 39 00 28 1f 56 05 90 2a 7a c1 07 80 00 00 00 80 00 00 00 00 09 09 00 00 00 00 00 41 4d 7a c1 28 08 00 3a 70 a8 a6 d9 99 88 7d
# ReportID: 1 / X:  129 | Y:  126 | Z:  127 | Rz:  129 | Rx:    0 | Ry:    0 | 0xff000020:   95 | Hat switch:   8 | Button: 0  0  0  0  0  0  0  0  0  0  0  0  0  0  0 | 0xff000021: 0 , 0 , 0 , 0 , 0 , 0 , 0 , 0 , 0 , 0 , 0 , 0 , 0 | 0xff000022:   60 ,  240 ,   41 ,  235 ,  247 ,  255 ,  238 ,  255 ,   10 ,    0 ,   66 ,    0 ,   43 ,   31 ,   83 ,    5 ,  127 ,   89 ,  122 ,  193 ,    7 ,  128 ,    0 ,    0 ,    0 ,  128 ,    0 ,    0 ,    0 ,    0 ,    9 ,    9 ,    0 ,    0 ,    0 ,    0 ,    0 ,   33 ,  124 ,  122 ,  193 ,   40 ,    8 ,    0 ,  145 ,  233 ,   85 ,  198 ,   39 ,  172 ,  161 ,  185 
E: 000000.053632 64 01 81 7e 7f 81 00 00 5f 08 00 00 00 3c f0 29 eb f7 ff ee ff 0a 00 42 00 2b 1f 53 05 7f 59 7a c1 07 80 00 00 00 80 00 00 00 00 09 09 00 00 00 00 00 21 7c 7a c1 28 08 00 91 e9 55 c6 27 ac a1 b9
# ReportID: 1 / X:  129 | Y:  127 | Z:  127 | Rz:  129 | Rx:    0 | Ry:    0 | 0xff000020:   96 | Hat switch:   8 | Button: 0  0  0  0  0  0  0  0  0  0  0  0  0  0  0 | 0xff000021: 0 , 0 , 0 , 0 , 0 , 0 , 0 , 0 , 0 , 0 , 0 , 0 , 0 | 0xff000022:   61 ,  240 ,   41 ,  235 ,  247 ,  255 ,  238 ,  255 ,    9 ,    0 ,   53 ,    0 ,   50 ,   31 ,   83 ,    5 ,  114 ,  136 ,  122 ,  193 ,    7 ,  128 ,    0 ,    0 ,    0 ,  128 ,    0 ,    0 ,    0 ,    0 ,    9 ,    9 ,    0 ,    0 ,    0 ,    0 ,    0 ,    1 ,  171 ,  122 ,  193 ,   40 ,    8 ,    0 ,  176 ,  170 ,  148 ,   53 ,   94 ,   85 ,   21 ,   33 
E: 000000.057224 64 01 81 7f 7f 81 00 00 60 08 00 00 00 3d f0 29 eb f7 ff ee ff 09 00 35 00 32 1f 53 05 72 88 7a c1 07 80 00 00 00 80 00 00 00 00 09 09 00 00 00 00 00 01 ab 7a c1 28 08 00 b0 aa 94 35 5e 55 15 21
# ReportID: 1 / X:  129 | Y:  126 | Z:  127 | Rz:  129 | Rx:    0 | Ry:    0 | 0xff000020:   97 | Hat switch:   8 | Button: 0  0  0  0  0  0  0  0  0  0  0  0  0  0  0 | 0xff000021: 0 , 0 , 0 , 0 , 0 , 0 , 0 , 0 , 0 , 0 , 0 , 0 , 0 | 0xff000022:   62 ,  240 ,   41 ,  235 ,  247 ,  255 ,  239 ,  255 ,   11 ,    0 ,   47 ,    0 ,   95 ,   31 ,   84 ,    5 ,  100 ,  183 ,  122 ,  193 ,    7 ,  128 ,    0 ,    0 ,    0 ,  128 ,    0 ,    0 ,    0 ,    0 ,    9 ,    9 ,    0 ,    0 ,    0 ,    0 ,    0 ,  225 ,  217 ,  122 ,  193 ,   40 ,    8 ,    0 ,  251 ,    5 ,  128 ,  220 ,  114 ,  241 ,  143 ,  153 
E: 000000.061194 64 01 81 7e 7f 81 00 00 61 08 00 00 00 3e f0 29 eb f7 ff ef ff 0b 00 2f 00 5f 1f 54 05 64 b7 7a c1 07 80 00 00 00 80 00 00 00 00 09 09 00 00 00 00 00 e1 d9 7a c1 28 08 00 fb 05 80 dc 72 f1 8f 99
# ReportID: 1 / X:  129 | Y:  127 | Z:  127 | Rz:  129 | Rx:    0 | Ry:    0 | 0xff000020:   98 | Hat switch:   8 | Button: 0  0  0  0  0  0  0  0  0  0  0  0  0  0  0 | 0xff000021: 0 , 0 , 0 , 0 , 0 , 0 , 0 , 0 , 0 , 0 , 0 , 0 , 0 | 0xff000022:   63 ,  240 ,   41 ,  235 ,  245 ,  255 ,  238 ,  255 ,   11 ,    0 ,   56 ,    0 ,  123 ,   31 ,   73 ,    5 ,   87 ,  230 ,  122 ,  193 ,    7 ,  128 ,    0 ,    0 ,    0 ,  128 ,    0 ,    0 ,    0 ,    0 ,    9 ,    9 ,    0 ,    0 ,    0 ,    0 ,    0 ,  193 ,    8 ,  123 ,  193 ,   40 ,    8 ,    0 ,  129 ,   51 ,   28 ,  143 ,  124 ,  126 ,  213 ,  147 
E: 000000.066737 64 01 81 7f 7f 81 00 00 62 08 00 00 00 3f f0 29 eb f5 ff ee ff 0b 00 38 00 7b 1f 49 05 57 e6 7a c1 07 80 00 00 00 80 00 00 00 00 09 09 00 00 00 00 00 c1 08 7b c1 28 08 00 81 33 1c 8f 7c 7e d5 93
# ReportID: 1 / X:  129 | Y:  127 | Z:  127 | Rz:  129 | Rx:    0 | Ry:    0 | 0xff000020:   99 | Hat switch:   8 | Button: 0  0  0  0  0  0  0  0  0  0  0  0  0  0  0 | 0xff000021: 0 , 0 , 0 , 0 , 0 , 0 , 0 , 0 , 0 , 0 , 0 , 0 , 0 | 0xff000022:   64 ,  240 ,   41 ,  235 ,  247 ,  255 ,  238 ,  255 ,   12 ,    0 ,   47 ,    0 ,   96 ,   31 ,   74 ,    5 ,   74 ,   21 ,  123 ,  193 ,    7 ,  128 ,    0 ,    0 ,    0 ,  128 ,    0 ,    0 ,    0 ,    0 ,    9 ,    9 ,    0 ,    0 ,    0 ,    0 ,    0 ,  161 ,   55 ,  123 ,  193 ,   40 ,    8 ,    0 ,  210 ,   59 ,  177 ,  240 ,  222 ,   89 ,   33 ,  218 
E: 000000.070538 64 01 81 7f 7f 81 00 00 63 08 00 00 00 40 f0 29 eb f7 ff ee ff 0c 00 2f 00 60 1f 4a 05 4a 15 7b c1 07 80 00 00 00 80 00 00 00 00 09 09 00 00 00 00 00 a1 37 7b c1 28 08 00 d2 3b b1 f0 de 59 21 da
# ReportID: 1 / X:  129 | Y:  127 | Z:  127 | Rz:  129 | Rx:    0 | Ry:    0 | 0xff000020:  100 | Hat switch:   8 | Button: 0  0  0  0  0  0  0  0  0  0  0  0  0  0  0 | 0xff000021: 0 , 0 , 0 , 0 , 0 , 0 , 0 , 0 , 0 , 0 , 0 , 0 , 0 | 0xff000022:   65 ,  240 ,   41 ,  235 ,  246 ,  255 ,  238 ,  255 ,   11 ,    0 ,   47 ,    0 ,   38 ,   31 ,   59 ,    5 ,   61 ,   68 ,  123 ,  193 ,    7 ,  128 ,    0 ,    0 ,    0 ,  128 ,    0 ,    0 ,    0 ,    0 ,    9 ,    9 ,    0 ,    0 ,    0 ,    0 ,    0 ,  129 ,  102 ,  123 ,  193 ,   40 ,    8 ,    0 ,  143 ,   47 ,   55 ,  174 ,   68 ,   14 ,  156 ,  107 
E: 000000.074006 64 01 81 7f 7f 81 00 00 64 08 00 00 00 41 f0 29 eb f6 ff ee ff 0b 00 2f 00 26 1f 3b 05 3d 44 7b c1 07 80 00 00 00 80 00 00 00 00 09 09 00 00 00 00 00 81 66 7b c1 28 08 00 8f 2f 37 ae 44 0e 9c 6b
# ReportID: 1 / X:  129 | Y:  127 | Z:  127 | Rz:  129 | Rx:    0 | Ry:    0 | 0xff000020:  101 | Hat switch:   8 | Button: 0  0  0  0  0  0  0  0  0  0  0  0  0  0  0 | 0xff000021: 0 , 0 , 0 , 0 , 0 , 0 , 0 , 0 , 0 , 0 , 0 , 0 , 0 | 0xff000022:   66 ,  240 ,   41 ,  235 ,  249 ,  255 ,  239 ,  255 ,   11 ,    0 ,   52 ,    0 ,   36 ,   31 ,   39 ,    5 ,   48 ,  115 ,  123 ,  193 ,    7 ,  128 ,    0 ,    0 ,    0 ,  128 ,    0 ,    0 ,    0 ,    0 ,    9 ,    9 ,    0 ,    0 ,    0 ,    0 ,    0 ,   97 ,  149 ,  123 ,  193 ,   40 ,    8 ,    0 ,  144 ,  137 ,  186 ,  103 ,   44 ,   76 ,  152 ,   87 
E: 000000.077014 64 01 81 7f 7f 81 00 00 65 08 00 00 00 42 f0 29 eb f9 ff ef ff 0b 00 34 00 24 1f 27 05 30 73 7b c1 07 80 00 00 00 80 00 00 00 00 09 09 00 00 00 00 00 61 95 7b c1 28 08 00 90 89 ba 67 2c 4c 98 57
# ReportID: 1 / X:  129 | Y:  127 | Z:  127 | Rz:  129 | Rx:    0 | Ry:    0 | 0xff000020:  102 | Hat switch:   8 | Button: 0  0  0  0  0  0  0  0  0  0  0  0  0  0  0 | 0xff000021: 0 , 0 , 0 , 0 , 0 , 0 , 0 , 0 , 0 , 0 , 0 , 0 , 0 | 0xff000022:   67 ,  240 ,   41 ,  235 ,  249 ,  255 ,  239 ,  255 ,   10 ,    0 ,   42 ,    0 ,   63 ,   31 ,   32 ,    5 ,   35 ,  162 ,  123 ,  193 ,    7 ,  128 ,    0 ,    0 ,    0 ,  128 ,    0 ,    0 ,    0 ,    0 ,    9 ,    9 ,    0 ,    0 ,    0 ,    0 ,    0 ,   65 ,  196 ,  123 ,  193 ,   40 ,    8 ,    0 ,  184 ,   34 ,  181 ,  162 ,  177 ,   16 ,  120 ,  136 
E: 000000.081950 64 01 81 7f 7f 81 00 00 66 08 00 00 00 43 f0 29 eb f9 ff ef ff 0a 00 2a 00 3f 1f 20 05 23 a2 7b c1 07 80 00 00 00 80 00 00 00 00 09 09 00 00 00 00 00 41 c4 7b c1 28 08 00 b8 22 b5 a2 b1 10 78 88
# ReportID: 1 / X:  129 | Y:  127 | Z:  127 | Rz:  129 | Rx:    0 | Ry:    0 | 0xff000020:  103 | Hat switch:   8 | Button: 0  0  0  0  0  0  0  0  0  0  0  0  0  0  0 | 0xff000021: 0 , 0 , 0 , 0 , 0 , 0 , 0 , 0 , 0 , 0 , 0 , 0 , 0 | 0xff000022:   68 ,  240 ,   41 ,  235 ,  248 ,  255 ,  239 ,  255 ,   10 ,    0 ,   45 ,    0 ,   82 ,   31 ,   28 ,    5 ,   22 ,  209 ,  123 ,  193 ,    7 ,  128 ,    0 ,    0 ,    0 ,  128 ,    0 ,    0 ,    0 ,    0 ,    9 ,    9 ,    0 ,    0 ,    0 ,    0 ,    0 ,   33 ,  243 ,  123 ,  193 ,   40 ,    8 ,    0 ,  202 ,   96 ,  183 ,   91 ,   44 ,   45 ,   91 ,   78 
E: 000000.085817 64 01 81 7f 7f 81 00 00 67 08 00 00 00 44 f0 29 eb f8 ff ef ff 0a 00 2d 00 52 1f 1c 05 16 d1 7b c1 07 80 00 00 00 80 00 00 00 00 09 09 00 00 00 00 00 21 f3 7b c1 28 08 00 ca 60 b7 5b 2c 2d 5b 4e
# ReportID: 1 / X:  129 | Y:  127 | Z:  127 | Rz:  129 | Rx:    0 | Ry:    0 | 0xff000020:  104 | Hat switch:   8 | Button: 0  0  0  0  0  0  0  0  0  0  0  0  0  0  0 | 0xff000021: 0 , 0 , 0 , 0 , 0 , 0 , 0 , 0 , 0 , 0 , 0 , 0 , 0 | 0xff000022:   69 ,  240 ,   41 ,  235 ,  247 ,  255 ,  239 ,  255 ,   10 ,    0 ,   45 ,    0 ,  128 ,   31 ,   34 ,    5 ,    9 ,    0 ,  124 ,  193 ,    7 ,  128 ,    0 ,    0 ,    0 ,  128 ,    0 ,    0 ,    0 ,    0 ,    9 ,    9 ,    0 ,    0 ,    0 ,    0 ,    0 ,    1 ,   34 ,  124 ,  193 ,   40 ,    8 ,    0 ,   17 ,   52 ,   16 ,  127 ,  168 ,   88 ,  132 ,   73 
E: 000000.089302 64 01 81 7f 7f 81 00 00 68 08 00 00 00 45 f0 29 eb f7 ff ef ff 0a 00 2d 00 80 1f 22 05 09 00 7c c1 07 80 00 00 00 80 00 00 00 00 09 09 00 00 00 00 00 01 22 7c c1 28 08 00 11 34 10 7f a8 58 84 49
# ReportID: 1 / X:  129 | Y:  127 | Z:  127 | Rz:  129 | Rx:    0 | Ry:    0 | 0xff000020:  105 | Hat switch:   8 | Button: 0  0  0  0  0  0  0  0  0  0  0  0  0  0  0 | 0xff000021: 0 , 0 , 0 , 0 , 0 , 0 , 0 , 0 , 0 , 0 , 0 , 0 , 0 | 0xff000022:   70 ,  240 ,   41 ,  235 ,  246 ,  255 ,  238 ,  255 ,   10 ,    0 ,   37 ,    0 ,  147 ,   31 ,   43 ,    5 ,  252 ,   46 ,  124 ,  193 ,    7 ,  128 ,    0 ,    0 ,    0 ,  128 ,    0 ,    0 ,    0 ,    0 ,    9 ,    9 ,    0 ,    0 ,    0 ,    0 ,    0 ,  225 ,   80 ,  124 ,  193 ,   40 ,    8 ,    0 ,  169 ,  170 ,  246 ,  217 ,  157 ,  235 ,   57 ,   16 
E: 000000.093210 64 01 81 7f 7f 81 00 00 69 08 00 00 00 46 f0 29 eb f6 ff ee ff 0a 00 25 00 93 1f 2b 05 fc 2e 7c c1 07 80 00 00 00 80 00 00 00 00 09 09 00 00 00 00 00 e1 50 7c c1 28 08 00 a9 aa f6 d9 9d eb 39 10
# ReportID: 1 / X:  129 | Y:  127 | Z:  127 | Rz:  129 | Rx:    0 | Ry:    0 | 0xff000020:  106 | Hat switch:   8 | Button: 0  0  0  0  0  0  0  0  0  0  0  0  0  0  0 | 0xff000021: 0 , 0 , 0 , 0 , 0 , 0 , 0 , 0 , 0 , 0 , 0 , 0 , 0 | 0xff000022:   71 ,  240 ,   41 ,  235 ,  246 ,  255 ,  238 ,  255 ,    9 ,    0 ,   29 ,    0 ,  111 ,   31 ,   39 ,    5 ,  239 ,   93 ,  124 ,  193 ,    7 ,  128 ,    0 ,    0 ,    0 ,  128 ,    0 ,    0 ,    0 ,    0 ,    9 ,    9 ,    0 ,    0 ,    0 ,    0 ,    0 ,  193 ,  127 ,  124 ,  193 ,   40 ,    8 ,    0 ,  199 ,   22 ,  194 ,   14 ,  230 ,   17 ,   36 ,  103 
E: 000000.097975 64 01 81 7f 7f 81 00 00 6a 08 00 00 00 47 f0 29 eb f6 ff ee ff 09 00 1d 00 6f 1f 27 05 ef 5d 7c c1 07 80 00 00 00 80 00 00 00 00 09 09 00 00 00 00 00 c1 7f 7c c1 28 08 00 c7 16 c2 0e e6 11 24 67
# ReportID: 1 / X:  129 | Y:  127 | Z:  127 | Rz:  129 | Rx:    0 | Ry:    0 | 0xff000020:  107 | Hat switch:   8 | Button: 0  0  0  0  0  0  0  0  0  0  0  0  0  0  0 | 0xff000021: 0 , 0 , 0 , 0 , 0 , 0 , 0 , 0 , 0 , 0 , 0 , 0 , 0 | 0xff000022:   72 ,  240 ,   41 ,  235 ,  247 ,  255 ,  238 ,  255 ,   10 ,    0 ,   34 ,    0 ,  107 ,   31 ,   28 ,    5 ,  226 ,  140 ,  124 ,  193 ,    7 ,  128 ,    0 ,    0 ,    0 ,  128 ,    0 ,    0 ,    0 ,    0 ,    9 ,    9 ,    0 ,    0 ,    0 ,    0 ,    0 ,  161 ,  174 ,  124 ,  193 ,   40 ,    8 ,    0 ,  136 ,  175 ,  190 ,  189 ,  108 ,  112 ,  171 ,   43 
E: 000000.101634 64 01 81 7f 7f 81 00 00 6b 08 00 00 00 48 f0 29 eb f7 ff ee ff 0a 00 22 00 6b 1f 1c 05 e2 8c 7c c1 07 80 00 00 00 80 00 00 00 00 09 09 00 00 00 00 00 a1 ae 7c c1 28 08 00 88 af be bd 6c 70 ab 2b
# ReportID: 1 / X:  129 | Y:  127 | Z:  128 | Rz:  129 | Rx:    0 | Ry:    0 | 0xff000020:  108 | Hat switch:   8 | Button: 0  0  0  0  0  0  0  0  0  0  0  0  0  0  0 | 0xff000021: 0 , 0 , 0 , 0 , 0 , 0 , 0 , 0 , 0 , 0 , 0 , 0 , 0 | 0xff000022:   73 ,  240 ,   41 ,  235 ,  245 ,  255 ,  237 ,  255 ,   10 ,    0 ,   42 ,    0 ,  107 ,   31 ,   27 ,    5 ,  213 ,  187 ,  124 ,  193 ,    7 ,  128 ,    0 ,    0 ,    0 ,  128 ,    0 ,    0 ,    0 ,    0 ,    9 ,    9 ,    0 ,    0 ,    0 ,    0 ,    0 ,  129 ,  221 ,  124 ,  193 ,   40 ,    8 ,    0 ,   62 ,   20 ,   65 ,  232 ,  204 ,   88 ,  221 ,  139 
E: 000000.105507 64 01 81 7f 80 81 00 00 6c 08 00 00 00 49 f0 29 eb f5 ff ed ff 0a 00 2a 00 6b 1f 1b 05 d5 bb 7c c1 07 80 00 00 00 80 00 00 00 00 09 09 00 00 00 00 00 81 dd 7c c1 28 08 00 3e 14 41 e8 cc 58 dd 8b
# ReportID: 1 / X:  129 | Y:  127 | Z:  127 | Rz:  129 | Rx:    0 | Ry:    0 | 0xff000020:  109 | Hat switch:   8 | Button: 0  0  0  0  0  0  0  0  0  0  0  0  0  0  0 | 0xff000021: 0 , 0 , 0 , 0 , 0 , 0 , 0 , 0 , 0 , 0 , 0 , 0 , 0 | 0xff000022:   74 ,  240 ,   41 ,  235 ,  246 ,  255 ,  239 ,  255 ,   11 ,    0 ,   45 ,    0 ,   84 ,   31 ,   27 ,    5 ,  202 ,  234 ,  124 ,  193 ,    7 ,  128 ,    0 ,    0 ,    0 ,  128 ,    0 ,    0 ,    0 ,    0 ,    9 ,    9 ,    0 ,    0 ,    0 ,    0 ,    0 ,   97 ,   12 ,  125 ,  193 ,   40 ,    8 ,    0 ,   14 ,   45 ,  195 ,  232 ,   71 ,  219 ,  231 ,  238 
E: 000000.111002 64 01 81 7f 7f 81 00 00 6d 08 00 00 00 4a f0 29 eb f6 ff ef ff 0b 00 2d 00 54 1f 1b 05 ca ea 7c c1 07 80 00 00 00 80 00 00 00 00 09 09 00 00 00 00 00 61 0c 7d c1 28 08 00 0e 2d c3 e8 47 db e7 ee
# ReportID: 1 / X:  129 | Y:  126 | Z:  127 | Rz:  129 | Rx:    0 | Ry:    0 | 0xff000020:  110 | Hat switch:   8 | Button: 0  0  0  0  0  0  0  0  0  0  0  0  0  0  0 | 0xff000021: 0 , 0 , 0 , 0 , 0 , 0 , 0 , 0 , 0 , 0 , 0 , 0 , 0 | 0xff000022:   75 ,  240 ,   41 ,  235 ,  246 ,  255 ,  239 ,  255 ,   10 ,    0 ,   52 ,    0 ,   72 ,   31 ,   33 ,    5 ,  189 ,   25 ,  125 ,  193 ,    7 ,  128 ,    0 ,    0 ,    0 ,  128 ,    0 ,    0 ,    0 ,    0 ,    9 ,    9 ,    0 ,    0 ,    0 ,    0 ,    0 ,   65 ,   59 ,  125 ,  193 ,   40 ,    8 ,    0 ,  237 ,   95 ,  236 ,   98 ,   74 ,   79 ,  139 ,   46 
E: 000000.114407 64 01 81 7e 7f 81 00 00 6e 08 00 00 00 4b f0 29 eb f6 ff ef ff 0a 00 34 00 48 1f 21 05 bd 19 7d c1 07 80 00 00 00 80 00 00 00 00 09 09 00 00 00 00 00 41 3b 7d c1 28 08 00 ed 5f ec 62 4a 4f 8b 2e
# ReportID: 1 / X:  129 | Y:  127 | Z:  127 | Rz:  129 | Rx:    0 | Ry:    0 | 0xff000020:  111 | Hat switch:   8 | Button: 0  0  0  0  0  0  0  0  0  0  0  0  0  0  0 | 0xff000021: 0 , 0 , 0 , 0 , 0 , 0 , 0 , 0 , 0 , 0 , 0 , 0 , 0 | 0xff000022:   76 ,  240 ,   41 ,  235 ,  245 ,  255 ,  239 ,  255 ,   11 ,    0 ,   59 ,    0 ,  102 ,   31 ,   42 ,    5 ,  174 ,   72 ,  125 ,  193 ,    7 ,  128 ,    0 ,    0 ,    0 ,  128 ,    0 ,    0 ,    0 ,    0 ,    9 ,    9 ,    0 ,    0 ,    0 ,    0 ,    0 ,   33 ,  106 ,  125 ,  193 ,   40 ,    8 ,    0 ,   27 ,   57 ,  137 ,   20 ,  132 ,  109 ,  142 ,    8 
E: 000000.118058 64 01 81 7f 7f 81 00 00 6f 08 00 00 00 4c f0 29 eb f5 ff ef ff 0b 00 3b 00 66 1f 2a 05 ae 48 7d c1 07 80 00 00 00 80 00 00 00 00 09 09 00 00 00 00 00 21 6a 7d c1 28 08 00 1b 39 89 14 84 6d 8e 08
# ReportID: 1 / X:  129 | Y:  127 | Z:  127 | Rz:  129 | Rx:    0 | Ry:    0 | 0xff000020:  112 | Hat switch:   8 | Button: 0  0  0  0  0  0  0  0  0  0  0  0  0  0  0 | 0xff000021: 0 , 0 , 0 , 0 , 0 , 0 , 0 , 0 , 0 , 0 , 0 , 0 , 0 | 0xff000022:   77 ,  240 ,   41 ,  235 ,  246 ,  255 ,  238 ,  255 ,   10 ,    0 ,   61 ,    0 ,  106 ,   31 ,   60 ,    5 ,  161 ,  119 ,  125 ,  193 ,    7 ,  128 ,    0 ,    0 ,    0 ,  128 ,    0 ,    0 ,    0 ,    0 ,    9 ,    9 ,    0 ,    0 ,    0 ,    0 ,    0 ,    1 ,  153 ,  125 ,  193 ,   40 ,    8 ,    0 ,   63 ,  241 ,   74 ,   18 ,  202 ,  247 ,  123 ,  214 
E: 000000.121852 64 01 81 7f 7f 81 00 00 70 08 00 00 00 4d f0 29 eb f6 ff ee ff 0a 00 3d 00 6a 1f 3c 05 a1 77 7d c1 07 80 00 00 00 80 00 00 00 00 09 09 00 00 00 00 00 01 99 7d c1 28 08 00 3f f1 4a 12 ca f7 7b d6
# ReportID: 1 / X:  129 | Y:  127 | Z:  127 | Rz:  129 | Rx:    0 | Ry:    0 | 0xff000020:  113 | Hat switch:   8 | Button: 0  0  0  0  0  0  0  0  0  0  0  0  0  0  0 | 0xff000021: 0 , 0 , 0 , 0 , 0 , 0 , 0 , 0 , 0 , 0 , 0 , 0 , 0 | 0xff000022:   78 ,  240 ,   41 ,  235 ,  246 ,  255 ,  238 ,  255 ,    9 ,    0 ,   56 ,    0 ,   83 ,   31 ,   63 ,    5 ,  148 ,  166 ,  125 ,  193 ,    7 ,  128 ,    0 ,    0 ,    0 ,  128 ,    0 ,    0 ,    0 ,    0 ,    9 ,    9 ,    0 ,    0 ,    0 ,    0 ,    0 ,  225 ,  199 ,  125 ,  193 ,   40 ,    8 ,    0 ,   40 ,   17 ,  152 ,  113 ,  127 ,  116 ,  132 ,  128 
E: 000000.125287 64 01 81 7f 7f 81 00 00 71 08 00 00 00 4e f0 29 eb f6 ff ee ff 09 00 38 00 53 1f 3f 05 94 a6 7d c1 07 80 00 00 00 80 00 00 00 00 09 09 00 00 00 00 00 e1 c7 7d c1 28 08 00 28 11 98 71 7f 74 84 80
# ReportID: 1 / X:  129 | Y:  127 | Z:  128 | Rz:  129 | Rx:    0 | Ry:    0 | 0xff000020:  114 | Hat switch:   8 | Button: 0  0  0  0  0  0  0  0  0  0  0  0  0  0  0 | 0xff000021: 0 , 0 , 0 , 0 , 0 , 0 , 0 , 0 , 0 , 0 , 0 , 0 , 0 | 0xff000022:   79 ,  240 ,   41 ,  235 ,  246 ,  255 ,  238 ,  255 ,    9 ,    0 ,   49 ,    0 ,   73 ,   31 ,   53 ,    5 ,  135 ,  213 ,  125 ,  193 ,    7 ,  128 ,    0 ,    0 ,    0 ,  128 ,    0 ,    0 ,    0 ,    0 ,    9 ,    9 ,    0 ,    0 ,    0 ,    0 ,    0 ,  193 ,  246 ,  125 ,  193 ,   40 ,    8 ,    0 ,  150 ,  198 ,  104 ,  251 ,  207 ,  242 ,  254 ,   10 
E: 000000.130782 64 01 81 7f 80 81 00 00 72 08 00 00 00 4f f0 29 eb f6 ff ee ff 09 00 31 00 49 1f 35 05 87 d5 7d c1 07 80 00 00 00 80 00 00 00 00 09 09 00 00 00 00 00 c1 f6 7d c1 28 08 00 96 c6 68 fb cf f2 fe 0a
# ReportID: 1 / X:  129 | Y:  127 | Z:  127 | Rz:  129 | Rx:    0 | Ry:    0 | 0xff000020:  115 | Hat switch:   8 | Button: 0  0  0  0  0  0  0  0  0  0  0  0  0  0  0 | 0xff000021: 0 , 0 , 0 , 0 , 0 , 0 , 0 , 0 , 0 , 0 , 0 , 0 , 0 | 0xff000022:   80 ,  240 ,   41 ,  235 ,  246 ,  255 ,  238 ,  255 ,   10 ,    0 ,   54 ,    0 ,   64 ,   31 ,   62 ,    5 ,  122 ,    4 ,  126 ,  193 ,    7 ,  128 ,    0 ,    0 ,    0 ,  128 ,    0 ,    0 ,    0 ,    0 ,    9 ,    9 ,    0 ,    0 ,    0 ,    0 ,    0 ,  161 ,   37 ,  126 ,  193 ,   40 ,    8 ,    0 ,   98 ,   46 ,  191 ,  138 ,   94 ,   17 ,  151 ,  193 
E: 000000.134510 64 01 81 7f 7f 81 00 00 73 08 00 00 00 50 f0 29 eb f6 ff ee ff 0a 00 36 00 40 1f 3e 05 7a 04 7e c1 07 80 00 00 00 80 00 00 00 00 09 09 00 00 00 00 00 a1 25 7e c1 28 08 00 62 2e bf 8a 5e 11 97 c1
# ReportID: 1 / X:  129 | Y:  127 | Z:  127 | Rz:  129 | Rx:    0 | Ry:    0 | 0xff000020:  116 | Hat switch:   8 | Button: 0  0  0  0  0  0  0  0  0  0  0  0  0  0  0 | 0xff000021: 0 , 0 , 0 , 0 , 0 , 0 , 0 , 0 , 0 , 0 , 0 , 0 , 0 | 0xff000022:   81 ,  240 ,   41 ,  235 ,  246 ,  255 ,  238 ,  255 ,   10 ,    0 ,   55 ,    0 ,   91 ,   31 ,   69 ,    5 ,  109 ,   51 ,  126 ,  193 ,    7 ,  128 ,    0 ,    0 ,    0 ,  128 ,    0 ,    0 ,    0 ,    0 ,    9 ,    9 ,    0 ,    0 ,    0 ,    0 ,    0 ,  129 ,   84 ,  126 ,  193 ,   40 ,    8 ,    0 ,  152 ,   57 ,  249 ,   79 ,   55 ,   35 ,  233 ,  186 
E: 000000.138964 64 01 81 7f 7f 81 00 00 74 08 00 00 00 51 f0 29 eb f6 ff ee ff 0a 00 37 00 5b 1f 45 05 6d 33 7e c1 07 80 00 00 00 80 00 00 00 00 09 09 00 00 00 00 00 81 54 7e c1 28 08 00 98 39 f9 4f 37 23 e9 ba
# ReportID: 1 / X:  129 | Y:  127 | Z:  127 | Rz:  129 | Rx:    0 | Ry:    0 | 0xff000020:  117 | Hat switch:   8 | Button: 0  0  0  0  0  0  0  0  0  0  0  0  0  0  0 | 0xff000021: 0 , 0 , 0 , 0 , 0 , 0 , 0 , 0 , 0 , 0 , 0 , 0 , 0 | 0xff000022:   82 ,  240 ,   41 ,  235 ,  245 ,  255 ,  239 ,  255 ,   11 ,    0 ,   57 ,    0 ,  107 ,   31 ,   72 ,    5 ,   96 ,   98 ,  126 ,  193 ,    7 ,  128 ,    0 ,    0 ,    0 ,  128 ,    0 ,    0 ,    0 ,    0 ,    9 ,    9 ,    0 ,    0 ,    0 ,    0 ,    0 ,   97 ,  131 ,  126 ,  193 ,   40 ,    8 ,    0 ,  151 ,  171 ,  232 ,   42 ,  156 ,   78 ,    0 ,  149 
E: 000000.142484 64 01 81 7f 7f 81 00 00 75 08 00 00 00 52 f0 29 eb f5 ff ef ff 0b 00 39 00 6b 1f 48 05 60 62 7e c1 07 80 00 00 00 80 00 00 00 00 09 09 00 00 00 00 00 61 83 7e c1 28 08 00 97 ab e8 2a 9c 4e 00 95
# ReportID: 1 / X:  129 | Y:  126 | Z:  127 | Rz:  129 | Rx:    0 | Ry:    0 | 0xff000020:  118 | Hat switch:   8 | Button: 0  0  0  0  0  0  0  0  0  0  0  0  0  0  0 | 0xff000021: 0 , 0 , 0 , 0 , 0 , 0 , 0 , 0 , 0 , 0 , 0 , 0 , 0 | 0xff000022:   83 ,  240 ,   41 ,  235 ,  246 ,  255 ,  239 ,  255 ,   10 ,    0 ,   52 ,    0 ,   88 ,   31 ,   75 ,    5 ,   83 ,  145 ,  126 ,  193 ,    7 ,  128 ,    0 ,    0 ,    0 ,  128 ,    0 ,    0 ,    0 ,    0 ,    9 ,    9 ,    0 ,    0 ,    0 ,    0 ,    0 ,   65 ,  178 ,  126 ,  193 ,   40 ,    8 ,    0 ,  182 ,  115 ,   99 ,   85 ,   16 ,  243 ,   14 ,   46 
E: 000000.145501 64 01 81 7e 7f 81 00 00 76 08 00 00 00 53 f0 29 eb f6 ff ef ff 0a 00 34 00 58 1f 4b 05 53 91 7e c1 07 80 00 00 00 80 00 00 00 00 09 09 00 00 00 00 00 41 b2 7e c1 28 08 00 b6 73 63 55 10 f3 0e 2e
# ReportID: 1 / X:  129 | Y:  126 | Z:  127 | Rz:  129 | Rx:    0 | Ry:    0 | 0xff000020:  119 | Hat switch:   8 | Button: 0  0  0  0  0  0  0  0  0  0  0  0  0  0  0 | 0xff000021: 0 , 0 , 0 , 0 , 0 , 0 , 0 , 0 , 0 , 0 , 0 , 0 , 0 | 0xff000022:   84 ,  240 ,   41 ,  235 ,  246 ,  255 ,  238 ,  255 ,   10 ,    0 ,   59 ,    0 ,   70 ,   31 ,   72 ,    5 ,   70 ,  192 ,  126 ,  193 ,    7 ,  128 ,    0 ,    0 ,    0 ,  128 ,    0 ,    0 ,    0 ,    0 ,    9 ,    9 ,    0 ,    0 ,    0 ,    0 ,    0 ,   33 ,  225 ,  126 ,  193 ,   40 ,    8 ,    0 ,   16 ,  147 ,  185 ,   36 ,  153 ,   73 ,  205 ,   50 
E: 000000.149475 64 01 81 7e 7f 81 00 00 77 08 00 00 00 54 f0 29 eb f6 ff ee ff 0a 00 3b 00 46 1f 48 05 46 c0 7e c1 07 80 00 00 00 80 00 00 00 00 09 09 00 00 00 00 00 21 e1 7e c1 28 08 00 10 93 b9 24 99 49 cd 32
# ReportID: 1 / X:  129 | Y:  127 | Z:  127 | Rz:  129 | Rx:    0 | Ry:    0 | 0xff000020:  120 | Hat switch:   8 | Button: 0  0  0  0  0  0  0  0  0  0  0  0  0  0  0 | 0xff000021: 0 , 0 , 0 , 0 , 0 , 0 , 0 , 0 , 0 , 0 , 0 , 0 , 0 | 0xff000022:   85 ,  240 ,   41 ,  235 ,  245 ,  255 ,  238 ,  255 ,   11 ,    0 ,   55 ,    0 ,   70 ,   31 ,   70 ,    5 ,   57 ,  239 ,  126 ,  193 ,    7 ,  128 ,    0 ,    0 ,    0 ,  128 ,    0 ,    0 ,    0 ,    0 ,    9 ,    9 ,    0 ,    0 ,    0 ,    0 ,    0 ,    1 ,   16 ,  127 ,  193 ,   40 ,    8 ,    0 ,    8 ,   68 ,   41 ,   84 ,  255 ,  173 ,  133 ,  156 
E: 000000.153176 64 01 81 7f 7f 81 00 00 78 08 00 00 00 55 f0 29 eb f5 ff ee ff 0b 00 37 00 46 1f 46 05 39 ef 7e c1 07 80 00 00 00 80 00 00 00 00 09 09 00 00 00 00 00 01 10 7f c1 28 08 00 08 44 29 54 ff ad 85 9c
# ReportID: 1 / X:  129 | Y:  127 | Z:  128 | Rz:  129 | Rx:    0 | Ry:    0 | 0xff000020:  121 | Hat switch:   8 | Button: 0  0  0  0  0  0  0  0  0  0  0  0  0  0  0 | 0xff000021: 0 , 0 , 0 , 0 , 0 , 0 , 0 , 0 , 0 , 0 , 0 , 0 , 0 | 0xff000022:   86 ,  240 ,   41 ,  235 ,  246 ,  255 ,  240 ,  255 ,   10 ,    0 ,   40 ,    0 ,   65 ,   31 ,   71 ,    5 ,   44 ,   30 ,  127 ,  193 ,    7 ,  128 ,    0 ,    0 ,    0 ,  128 ,    0 ,    0 ,    0 ,    0 ,    9 ,    9 ,    0 ,    0 ,    0 ,    0 ,    0 ,  225 ,   62 ,  127 ,  193 ,   40 ,    8 ,    0 ,   44 ,   35 ,  188 ,  125 ,    8 ,  125 ,   39 ,  161 
E: 000000.157185 64 01 81 7f 80 81 00 00 79 08 00 00 00 56 f0 29 eb f6 ff f0 ff 0a 00 28 00 41 1f 47 05 2c 1e 7f c1 07 80 00 00 00 80 00 00 00 00 09 09 00 00 00 00 00 e1 3e 7f c1 28 08 00 2c 23 bc 7d 08 7d 27 a1
# ReportID: 1 / X:  129 | Y:  126 | Z:  127 | Rz:  129 | Rx:    0 | Ry:    0 | 0xff000020:  122 | Hat switch:   8 | Button: 0  0  0  0  0  0  0  0  0  0  0  0  0  0  0 | 0xff000021: 0 , 0 , 0 , 0 , 0 , 0 , 0 , 0 , 0 , 0 , 0 , 0 , 0 | 0xff000022:   87 ,  240 ,   41 ,  235 ,  246 ,  255 ,  239 ,  255 ,   10 ,    0 ,   50 ,    0 ,   69 ,   31 ,   65 ,    5 ,   31 ,   77 ,  127 ,  193 ,    7 ,  128 ,    0 ,    0 ,    0 ,  128 ,    0 ,    0 ,    0 ,    0 ,    9 ,    9 ,    0 ,    0 ,    0 ,    0 ,    0 ,  193 ,  109 ,  127 ,  193 ,   40 ,    8 ,    0 ,  221 ,  195 ,  140 ,   59 ,  206 ,   21 ,   83 ,  113 
E: 000000.162762 64 01 81 7e 7f 81 00 00 7a 08 00 00 00 57 f0 29 eb f6 ff ef ff 0a 00 32 00 45 1f 41 05 1f 4d 7f c1 07 80 00 00 00 80 00 00 00 00 09 09 00 00 00 00 00 c1 6d 7f c1 28 08 00 dd c3 8c 3b ce 15 53 71
# ReportID: 1 / X:  129 | Y:  127 | Z:  127 | Rz:  129 | Rx:    0 | Ry:    0 | 0xff000020:  123 | Hat switch:   8 | Button: 0  0  0  0  0  0  0  0  0  0  0  0  0  0  0 | 0xff000021: 0 , 0 , 0 , 0 , 0 , 0 , 0 , 0 , 0 , 0 , 0 , 0 , 0 | 0xff000022:   88 ,  240 ,   41 ,  235 ,  248 ,  255 ,  239 ,  255 ,   10 ,    0 ,   47 ,    0 ,  104 ,   31 ,   58 ,    5 ,   18 ,  124 ,  127 ,  193 ,    7 ,  128 ,    0 ,    0 ,    0 ,  128 ,    0 ,    0 ,    0 ,    0 ,    9 ,    9 ,    0 ,    0 ,    0 ,    0 ,    0 ,  161 ,  156 ,  127 ,  193 ,   40 ,    8 ,    0 ,  137 ,  185 ,    2 ,   39 ,  151 ,   28 ,  195 ,   71 
E: 000000.165814 64 01 81 7f 7f 81 00 00 7b 08 00 00 00 58 f0 29 eb f8 ff ef ff 0a 00 2f 00 68 1f 3a 05 12 7c 7f c1 07 80 00 00 00 80 00 00 00 00 09 09 00 00 00 00 00 a1 9c 7f c1 28 08 00 89 b9 02 27 97 1c c3 47
# ReportID: 1 / X:  129 | Y:  127 | Z:  127 | Rz:  129 | Rx:    0 | Ry:    0 | 0xff000020:  124 | Hat switch:   8 | Button: 0  0  0  0  0  0  0  0  0  0  0  0  0  0  0 | 0xff000021: 0 , 0 , 0 , 0 , 0 , 0 , 0 , 0 , 0 , 0 , 0 , 0 , 0 | 0xff000022:   89 ,  240 ,   41 ,  235 ,  247 ,  255 ,  238 ,  255 ,   10 ,    0 ,   42 ,    0 ,   97 ,   31 ,   55 ,    5 ,    5 ,  171 ,  127 ,  193 ,    7 ,  128 ,    0 ,    0 ,    0 ,  128 ,    0 ,    0 ,    0 ,    0 ,    9 ,    9 ,    0 ,    0 ,    0 ,    0 ,    0 ,  129 ,  203 ,  127 ,  193 ,   40 ,    8 ,    0 ,  117 ,  232 ,  196 ,   49 ,  228 ,  224 ,  225 ,  182 
E: 000000.169646 64 01 81 7f 7f 81 00 00 7c 08 00 00 00 59 f0 29 eb f7 ff ee ff 0a 00 2a 00 61 1f 37 05 05 ab 7f c1 07 80 00 00 00 80 00 00 00 00 09 09 00 00 00 00 00 81 cb 7f c1 28 08 00 75 e8 c4 31 e4 e0 e1 b6
# ReportID: 1 / X:  129 | Y:  126 | Z:  127 | Rz:  129 | Rx:    0 | Ry:    0 | 0xff000020:  125 | Hat switch:   8 | Button: 0  0  0  0  0  0  0  0  0  0  0  0  0  0  0 | 0xff000021: 0 , 0 , 0 , 0 , 0 , 0 , 0 , 0 , 0 , 0 , 0 , 0 , 0 | 0xff000022:   90 ,  240 ,   41 ,  235 ,  245 ,  255 ,  239 ,  255 ,    9 ,    0 ,   37 ,    0 ,   72 ,   31 ,   51 ,    5 ,  248 ,  217 ,  127 ,  193 ,    7 ,  128 ,    0 ,    0 ,    0 ,  128 ,    0 ,    0 ,    0 ,    0 ,    9 ,    9 ,    0 ,    0 ,    0 ,    0 ,    0 ,   97 ,  250 ,  127 ,  193 ,   40 ,    8 ,    0 ,   22 ,  239 ,  164 ,  167 ,  123 ,  238 ,   21 ,  177 
E: 000000.173153 64 01 81 7e 7f 81 00 00 7d 08 00 00 00 5a f0 29 eb f5 ff ef ff 09 00 25 00 48 1f 33 05 f8 d9 7f c1 07 80 00 00 00 80 00 00 00 00 09 09 00 00 00 00 00 61 fa 7f c1 28 08 00 16 ef a4 a7 7b ee 15 b1
# ReportID: 1 / X:  129 | Y:  127 | Z:  128 | Rz:  129 | Rx:    0 | Ry:    0 | 0xff000020:  126 | Hat switch:   8 | Button: 0  0  0  0  0  0  0  0  0  0  0  0  0  0  0 | 0xff000021: 0 , 0 , 0 , 0 , 0 , 0 , 0 , 0 , 0 , 0 , 0 , 0 , 0 | 0xff000022:   91 ,  240 ,   41 ,  235 ,  247 ,  255 ,  238 ,  255 ,   10 ,    0 ,   43 ,    0 ,   68 ,   31 ,   46 ,    5 ,  235 ,    8 ,  128 ,  193 ,    7 ,  128 ,    0 ,    0 ,    0 ,  128 ,    0 ,    0 ,    0 ,    0 ,    9 ,    9 ,    0 ,    0 ,    0 ,    0 ,    0 ,   65 ,   41 ,  128 ,  193 ,   40 ,    8 ,    0 ,  209 ,   89 ,  174 ,  215 ,   27 ,  223 ,  228 ,  222 
E: 000000.178496 64 01 81 7f 80 81 00 00 7e 08 00 00 00 5b f0 29 eb f7 ff ee ff 0a 00 2b 00 44 1f 2e 05 eb 08 80 c1 07 80 00 00 00 80 00 00 00 00 09 09 00 00 00 00 00 41 29 80 c1 28 08 00 d1 59 ae d7 1b df e4 de
# ReportID: 1 / X:  129 | Y:  127 | Z:  127 | Rz:  129 | Rx:    0 | Ry:    0 | 0xff000020:  127 | Hat switch:   8 | Button: 0  0  0  0  0  0  0  0  0  0  0  0  0  0  0 | 0xff000021: 0 , 0 , 0 , 0 , 0 , 0 , 0 , 0 , 0 , 0 , 0 , 0 , 0 | 0xff000022:   92 ,  240 ,   41 ,  235 ,  247 ,  255 ,  238 ,  255 ,   11 ,    0 ,   40 ,    0 ,   82 ,   31 ,   43 ,    5 ,  222 ,   55 ,  128 ,  193 ,    7 ,  128 ,    0 ,    0 ,    0 ,  128 ,    0 ,    0 ,    0 ,    0 ,    9 ,    9 ,    0 ,    0 ,    0 ,    0 ,    0 ,   33 ,   88 ,  128 ,  193 ,   40 ,    8 ,    0 ,   28 ,   22 ,   43 ,  183 ,   92 ,   19 ,   45 ,  140 
E: 000000.182586 64 01 81 7f 7f 81 00 00 7f 08 00 00 00 5c f0 29 eb f7 ff ee ff 0b 00 28 00 52 1f 2b 05 de 37 80 c1 07 80 00 00 00 80 00 00 00 00 09 09 00 00 00 00 00 21 58 80 c1 28 08 00 1c 16 2b b7 5c 13 2d 8c
# ReportID: 1 / X:  129 | Y:  127 | Z:  127 | Rz:  129 | Rx:    0 | Ry:    0 | 0xff000020:  128 | Hat switch:   8 | Button: 0  0  0  0  0  0  0  0  0  0  0  0  0  0  0 | 0xff000021: 0 , 0 , 0 , 0 , 0 , 0 , 0 , 0 , 0 , 0 , 0 , 0 , 0 | 0xff000022:   93 ,  240 ,   41 ,  235 ,  246 ,  255 ,  238 ,  255 ,   10 ,    0 ,   37 ,    0 ,   88 ,   31 ,   50 ,    5 ,  209 ,  102 ,  128 ,  193 ,    7 ,  128 ,    0 ,    0 ,    0 ,  128 ,    0 ,    0 ,    0 ,    0 ,    9 ,    9 ,    0 ,    0 ,    0 ,    0 ,    0 ,    1 ,  135 ,  128 ,  193 ,   40 ,    8 ,    0 ,   37 ,  250 ,   28 ,  118 ,  203 ,   16 ,  197 ,  101 
E: 000000.186049 64 01 81 7f 7f 81 00 00 80 08 00 00 00 5d f0 29 eb f6 ff ee ff 0a 00 25 00 58 1f 32 05 d1 66 80 c1 07 80 00 00 00 80 00 00 00 00 09 09 00 00 00 00 00 01 87 80 c1 28 08 00 25 fa 1c 76 cb 10 c5 65
# ReportID: 1 / X:  129 | Y:  127 | Z:  127 | Rz:  129 | Rx:    0 | Ry:    0 | 0xff000020:  129 | Hat switch:   8 | Button: 0  0  0  0  0  0  0  0  0  0  0  0  0  0  0 | 0xff000021: 0 , 0 , 0 , 0 , 0 , 0 , 0 , 0 , 0 , 0 , 0 , 0 , 0 | 0xff000022:   94 ,  240 ,   41 ,  235 ,  247 ,  255 ,  239 ,  255 ,    9 ,    0 ,   33 ,    0 ,   84 ,   31 ,   45 ,    5 ,  196 ,  149 ,  128 ,  193 ,    7 ,  128 ,    0 ,    0 ,    0 ,  128 ,    0 ,    0 ,    0 ,    0 ,    9 ,    9 ,    0 ,    0 ,    0 ,    0 ,    0 ,  225 ,  181 ,  128 ,  193 ,   40 ,    8 ,    0 ,    4 ,   69 ,   79 ,   89 ,  231 ,  155 ,   67 ,  139 
E: 000000.189527 64 01 81 7f 7f 81 00 00 81 08 00 00 00 5e f0 29 eb f7 ff ef ff 09 00 21 00 54 1f 2d 05 c4 95 80 c1 07 80 00 00 00 80 00 00 00 00 09 09 00 00 00 00 00 e1 b5 80 c1 28 08 00 04 45 4f 59 e7 9b 43 8b
# ReportID: 1 / X:  129 | Y:  126 | Z:  127 | Rz:  129 | Rx:    0 | Ry:    0 | 0xff000020:  130 | Hat switch:   8 | Button: 0  0  0  0  0  0  0  0  0  0  0  0  0  0  0 | 0xff000021: 0 , 0 , 0 , 0 , 0 , 0 , 0 , 0 , 0 , 0 , 0 , 0 , 0 | 0xff000022:   95 ,  240 ,   41 ,  235 ,  247 ,  255 ,  237 ,  255 ,   11 ,    0 ,   32 ,    0 ,   88 ,   31 ,   45 ,    5 ,  183 ,  196 ,  128 ,  193 ,    7 ,  128 ,    0 ,    0 ,    0 ,  128 ,    0 ,    0 ,    0 ,    0 ,    9 ,    9 ,    0 ,    0 ,    0 ,    0 ,    0 ,  193 ,  228 ,  128 ,  193 ,   40 ,    8 ,    0 ,  161 ,   44 ,  171 ,   49 ,   73 ,   49 ,  240 ,   84 
E: 000000.193174 64 01 81 7e 7f 81 00 00 82 08 00 00 00 5f f0 29 eb f7 ff ed ff 0b 00 20 00 58 1f 2d 05 b7 c4 80 c1 07 80 00 00 00 80 00 00 00 00 09 09 00 00 00 00 00 c1 e4 80 c1 28 08 00 a1 2c ab 31 49 31 f0 54
# ReportID: 1 / X:  129 | Y:  127 | Z:  127 | Rz:  129 | Rx:    0 | Ry:    0 | 0xff000020:  131 | Hat switch:   8 | Button: 0  0  0  0  0  0  0  0  0  0  0  0  0  0  0 | 0xff000021: 0 , 0 , 0 , 0 , 0 , 0 , 0 , 0 , 0 , 0 , 0 , 0 , 0 | 0xff000022:   96 ,  240 ,   41 ,  235 ,  247 ,  255 ,  238 ,  255 ,   10 ,    0 ,   42 ,    0 ,   95 ,   31 ,   46 ,    5 ,  170 ,  243 ,  128 ,  193 ,    7 ,  128 ,    0 ,    0 ,    0 ,  128 ,    0 ,    0 ,    0 ,    0 ,    9 ,    9 ,    0 ,    0 ,    0 ,    0 ,    0 ,  161 ,   19 ,  129 ,  193 ,   40 ,    8 ,    0 ,  252 ,  114 ,   31 ,   77 ,  121 ,  147 ,  225 ,  232 
E: 000000.198805 64 01 81 7f 7f 81 00 00 83 08 00 00 00 60 f0 29 eb f7 ff ee ff 0a 00 2a 00 5f 1f 2e 05 aa f3 80 c1 07 80 00 00 00 80 00 00 00 00 09 09 00 00 00 00 00 a1 13 81 c1 28 08 00 fc 72 1f 4d 79 93 e1 e8
# ReportID: 1 / X:  129 | Y:  127 | Z:  127 | Rz:  129 | Rx:    0 | Ry:    0 | 0xff000020:  132 | Hat switch:   8 | Button: 0  0  0  0  0  0  0  0  0  0  0  0  0  0  0 | 0xff000021: 0 , 0 , 0 , 0 , 0 , 0 , 0 , 0 , 0 , 0 , 0 , 0 , 0 | 0xff000022:   97 ,  240 ,   41 ,  235 ,  246 ,  255 ,  237 ,  255 ,    9 ,    0 ,   41 ,    0 ,   87 ,   31 ,   55 ,    5 ,  157 ,   34 ,  129 ,  193 ,    7 ,  128 ,    0 ,    0 ,    0 ,  128 ,    0 ,    0 ,    0 ,    0 ,    9 ,    9 ,    0 ,    0 ,    0 ,    0 ,    0 ,  129 ,   66 ,  129 ,  193 ,   40 ,    8 ,    0 ,   74 ,  229 ,  221 ,   28 ,   59 ,  215 ,  210 ,   57 
E: 000000.202617 64 01 81 7f 7f 81 00 00 84 08 00 00 00 61 f0 29 eb f6 ff ed ff 09 00 29 00 57 1f 37 05 9d 22 81 c1 07 80 00 00 00 80 00 00 00 00 09 09 00 00 00 00 00 81 42 81 c1 28 08 00 4a e5 dd 1c 3b d7 d2 39
# ReportID: 1 / X:  129 | Y:  127 | Z:  127 | Rz:  129 | Rx:    0 | Ry:    0 | 0xff000020:  133 | Hat switch:   8 | Button: 0  0  0  0  0  0  0  0  0  0  0  0  0  0  0 | 0xff000021: 0 , 0 , 0 , 0 , 0 , 0 , 0 , 0 , 0 , 0 , 0 , 0 , 0 | 0xff000022:   98 ,  240 ,   41 ,  235 ,  247 ,  255 ,  238 ,  255 ,   11 ,    0 ,   42 ,    0 ,   60 ,   31 ,   56 ,    5 ,  144 ,   81 ,  129 ,  193 ,    7 ,  128 ,    0 ,    0 ,    0 ,  128 ,    0 ,    0 ,    0 ,    0 ,    9 ,    9 ,    0 ,    0 ,    0 ,    0 ,    0 ,   97 ,  113 ,  129 ,  193 ,   40 ,    8 ,    0 ,   86 ,  218 ,  181 ,  198 ,  248 ,  122 ,   87 ,  119 
E: 000000.205989 64 01 81 7f 7f 81 00 00 85 08 00 00 00 62 f0 29 eb f7 ff ee ff 0b 00 2a 00 3c 1f 38 05 90 51 81 c1 07 80 00 00 00 80 00 00 00 00 09 09 00 00 00 00 00 61 71 81 c1 28 08 00 56 da b5 c6 f8 7a 57 77
# ReportID: 1 / X:  129 | Y:  126 | Z:  127 | Rz:  129 | Rx:    0 | Ry:    0 | 0xff000020:  134 | Hat switch:   8 | Button: 0  0  0  0  0  0  0  0  0  0  0  0  0  0  0 | 0xff000021: 0 , 0 , 0 , 0 , 0 , 0 , 0 , 0 , 0 , 0 , 0 , 0 , 0 | 0xff000022:   99 ,  240 ,   41 ,  235 ,  248 ,  255 ,  237 ,  255 ,   11 ,    0 ,   43 ,    0 ,   64 ,   31 ,   63 ,    5 ,  131 ,  128 ,  129 ,  193 ,    7 ,  128 ,    0 ,    0 ,    0 ,  128 ,    0 ,    0 ,    0 ,    0 ,    9 ,    9 ,    0 ,    0 ,    0 ,    0 ,    0 ,   65 ,  160 ,  129 ,  193 ,   40 ,    8 ,    0 ,   24 ,  255 ,  120 ,  166 ,   93 ,  146 ,  131 ,  112 
E: 000000.209478 64 01 81 7e 7f 81 00 00 86 08 00 00 00 63 f0 29 eb f8 ff ed ff 0b 00 2b 00 40 1f 3f 05 83 80 81 c1 07 80 00 00 00 80 00 00 00 00 09 09 00 00 00 00 00 41 a0 81 c1 28 08 00 18 ff 78 a6 5d 92 83 70
# ReportID: 1 / X:  129 | Y:  127 | Z:  127 | Rz:  129 | Rx:    0 | Ry:    0 | 0xff000020:  135 | Hat switch:   8 | Button: 0  0  0  0  0  0  0  0  0  0  0  0  0  0  0 | 0xff000021: 0 , 0 , 0 , 0 , 0 , 0 , 0 , 0 , 0 , 0 , 0 , 0 , 0 | 0xff000022:  100 ,  240 ,   41 ,  235 ,  247 ,  255 ,  236 ,  255 ,   11 ,    0 ,   49 ,    0 ,   81 ,   31 ,   60 ,    5 ,  118 ,  175 ,  129 ,  193 ,    7 ,  128 ,    0 ,    0 ,    0 ,  128 ,    0 ,    0 ,    0 ,    0 ,    9 ,    9 ,    0 ,    0 ,    0 ,    0 ,    0 ,   33 ,  207 ,  129 ,  193 ,   40 ,    8 ,    0 ,  240 ,   29 ,  149 ,  220 ,  157 ,   55 ,  179 ,   38 
E: 000000.213106 64 01 81 7f 7f 81 00 00 87 08 00 00 00 64 f0 29 eb f7 ff ec ff 0b 00 31 00 51 1f 3c 05 76 af 81 c1 07 80 00 00 00 80 00 00 00 00 09 09 00 00 00 00 00 21 cf 81 c1 28 08 00 f0 1d 95 dc 9d 37 b3 26
# ReportID: 1 / X:  129 | Y:  127 | Z:  127 | Rz:  129 | Rx:    0 | Ry:    0 | 0xff000020:  136 | Hat switch:   8 | Button: 0  0  0  0  0  0  0  0  0  0  0  0  0  0  0 | 0xff000021: 0 , 0 , 0 , 0 , 0 , 0 , 0 , 0 , 0 , 0 , 0 , 0 , 0 | 0xff000022:  101 ,  240 ,   41 ,  235 ,  246 ,  255 ,  237 ,  255 ,   11 ,    0 ,   53 ,    0 ,   81 ,   31 ,   65 ,    5 ,  105 ,  222 ,  129 ,  193 ,    7 ,  128 ,    0 ,    0 ,    0 ,  128 ,    0 ,    0 ,    0 ,    0 ,    9 ,    9 ,    0 ,    0 ,    0 ,    0 ,    0 ,    4 ,  254 ,  129 ,  193 ,   40 ,    8 ,    0 ,   78 ,  177 ,  111 ,  204 ,  127 ,  143 ,    9 ,  197 
E: 000000.218811 64 01 81 7f 7f 81 00 00 88 08 00 00 00 65 f0 29 eb f6 ff ed ff 0b 00 35 00 51 1f 41 05 69 de 81 c1 07 80 00 00 00 80 00 00 00 00 09 09 00 00 00 00 00 04 fe 81 c1 28 08 00 4e b1 6f cc 7f 8f 09 c5
# ReportID: 1 / X:  129 | Y:  127 | Z:  127 | Rz:  129 | Rx:    0 | Ry:    0 | 0xff000020:  137 | Hat switch:   8 | Button: 0  0  0  0  0  0  0  0  0  0  0  0  0  0  0 | 0xff000021: 0 , 0 , 0 , 0 , 0 , 0 , 0 , 0 , 0 , 0 , 0 , 0 , 0 | 0xff000022:  102 ,  240 ,   41 ,  235 ,  246 ,  255 ,  238 ,  255 ,   10 ,    0 ,   62 ,    0 ,   79 ,   31 ,   61 ,    5 ,   92 ,   13 ,  130 ,  193 ,    7 ,  128 ,    0 ,    0 ,    0 ,  128 ,    0 ,    0 ,    0 ,    0 ,    9 ,    9 ,    0 ,    0 ,    0 ,    0 ,    0 ,  225 ,   44 ,  130 ,  193 ,   40 ,    8 ,    0 ,   94 ,    9 ,  127 ,  191 ,  207 ,  177 ,   88 ,  129 
E: 000000.221805 64 01 81 7f 7f 81 00 00 89 08 00 00 00 66 f0 29 eb f6 ff ee ff 0a 00 3e 00 4f 1f 3d 05 5c 0d 82 c1 07 80 00 00 00 80 00 00 00 00 09 09 00 00 00 00 00 e1 2c 82 c1 28 08 00 5e 09 7f bf cf b1 58 81
# ReportID: 1 / X:  129 | Y:  126 | Z:  127 | Rz:  129 | Rx:    0 | Ry:    0 | 0xff000020:  138 | Hat switch:   8 | Button: 0  0  0  0  0  0  0  0  0  0  0  0  0  0  0 | 0xff000021: 0 , 0 , 0 , 0 , 0 , 0 , 0 , 0 , 0 , 0 , 0 , 0 , 0 | 0xff000022:  103 ,  240 ,   41 ,  235 ,  246 ,  255 ,  238 ,  255 ,    9 ,    0 ,   57 ,    0 ,   76 ,   31 ,   57 ,    5 ,   79 ,   60 ,  130 ,  193 ,    7 ,  128 ,    0 ,    0 ,    0 ,  128 ,    0 ,    0 ,    0 ,    0 ,    9 ,    9 ,    0 ,    0 ,    0 ,    0 ,    0 ,  193 ,   91 ,  130 ,  193 ,   40 ,    8 ,    0 ,  135 ,  211 ,  202 ,   79 ,   61 ,   64 ,  131 ,  185 
E: 000000.225612 64 01 81 7e 7f 81 00 00 8a 08 00 00 00 67 f0 29 eb f6 ff ee ff 09 00 39 00 4c 1f 39 05 4f 3c 82 c1 07 80 00 00 00 80 00 00 00 00 09 09 00 00 00 00 00 c1 5b 82 c1 28 08 00 87 d3 ca 4f 3d 40 83 b9
# ReportID: 1 / X:  129 | Y:  126 | Z:  127 | Rz:  129 | Rx:    0 | Ry:    0 | 0xff000020:  139 | Hat switch:   8 | Button: 0  0  0  0  0  0  0  0  0  0  0  0  0  0  0 | 0xff000021: 0 , 0 , 0 , 0 , 0 , 0 , 0 , 0 , 0 , 0 , 0 , 0 , 0 | 0xff000022:  104 ,  240 ,   41 ,  235 ,  246 ,  255 ,  237 ,  255 ,   10 ,    0 ,   62 ,    0 ,   83 ,   31 ,   51 ,    5 ,   66 ,  107 ,  130 ,  193 ,    7 ,  128 ,    0 ,    0 ,    0 ,  128 ,    0 ,    0 ,    0 ,    0 ,    9 ,    9 ,    0 ,    0 ,    0 ,    0 ,    0 ,  161 ,  138 ,  130 ,  193 ,   40 ,    8 ,    0 ,  194 ,   66 ,  241 ,   29 ,  178 ,  108 ,  139 ,   84 
E: 000000.230814 64 01 81 7e 7f 81 00 00 8b 08 00 00 00 68 f0 29 eb f6 ff ed ff 0a 00 3e 00 53 1f 33 05 42 6b 82 c1 07 80 00 00 00 80 00 00 00 00 09 09 00 00 00 00 00 a1 8a 82 c1 28 08 00 c2 42 f1 1d b2 6c 8b 54
# ReportID: 1 / X:  129 | Y:  127 | Z:  127 | Rz:  129 | Rx:    0 | Ry:    0 | 0xff000020:  140 | Hat switch:   8 | Button: 0  0  0  0  0  0  0  0  0  0  0  0  0  0  0 | 0xff000021: 0 , 0 , 0 , 0 , 0 , 0 , 0 , 0 , 0 , 0 , 0 , 0 , 0 | 0xff000022:  105 ,  240 ,   41 ,  235 ,  246 ,  255 ,  238 ,  255 ,   10 ,    0 ,   58 ,    0 ,   78 ,   31 ,   63 ,    5 ,   52 ,  154 ,  130 ,  193 ,    7 ,  128 ,    0 ,    0 ,    0 ,  128 ,    0 ,    0 ,    0 ,    0 ,    9 ,    9 ,    0 ,    0 ,    0 ,    0 ,    0 ,  129 ,  185 ,  130 ,  193 ,   40 ,    8 ,    0 ,  118 ,  190 ,   13 ,   37 ,   70 ,  240 ,  103 ,   44 
E: 000000.234491 64 01 81 7f 7f 81 00 00 8c 08 00 00 00 69 f0 29 eb f6 ff ee ff 0a 00 3a 00 4e 1f 3f 05 34 9a 82 c1 07 80 00 00 00 80 00 00 00 00 09 09 00 00 00 00 00 81 b9 82 c1 28 08 00 76 be 0d 25 46 f0 67 2c
# ReportID: 1 / X:  129 | Y:  127 | Z:  128 | Rz:  129 | Rx:    0 | Ry:    0 | 0xff000020:  141 | Hat switch:   8 | Button: 0  0  0  0  0  0  0  0  0  0  0  0  0  0  0 | 0xff000021: 0 , 0 , 0 , 0 , 0 , 0 , 0 , 0 , 0 , 0 , 0 , 0 , 0 | 0xff000022:  106 ,  240 ,   41 ,  235 ,  247 ,  255 ,  239 ,  255 ,   10 ,    0 ,   54 ,    0 ,   86 ,   31 ,   62 ,    5 ,   39 ,  201 ,  130 ,  193 ,    7 ,  128 ,    0 ,    0 ,    0 ,  128 ,    0 ,    0 ,    0 ,    0 ,    9 ,    9 ,    0 ,    0 ,    0 ,    0 ,    0 ,   97 ,  232 ,  130 ,  193 ,   40 ,    8 ,    0 ,  153 ,  164 ,  168 ,   34 ,  132 ,  203 ,   48 ,  236 
E: 000000.237556 64 01 81 7f 80 81 00 00 8d 08 00 00 00 6a f0 29 eb f7 ff ef ff 0a 00 36 00 56 1f 3e 05 27 c9 82 c1 07 80 00 00 00 80 00 00 00 00 09 09 00 00 00 00 00 61 e8 82 c1 28 08 00 99 a4 a8 22 84 cb 30 ec
# ReportID: 1 / X:  129 | Y:  126 | Z:  127 | Rz:  129 | Rx:    0 | Ry:    0 | 0xff000020:  142 | Hat switch:   8 | Button: 0  0  0  0  0  0  0  0  0  0  0  0  0  0  0 | 0xff000021: 0 , 0 , 0 , 0 , 0 , 0 , 0 , 0 , 0 , 0 , 0 , 0 , 0 | 0xff000022:  107 ,  240 ,   41 ,  235 ,  246 ,  255 ,  237 ,  255 ,    9 ,    0 ,   53 ,    0 ,   90 ,   31 ,   64 ,    5 ,   26 ,  248 ,  130 ,  193 ,    7 ,  128 ,    0 ,    0 ,    0 ,  128 ,    0 ,    0 ,    0 ,    0 ,    9 ,    9 ,    0 ,    0 ,    0 ,    0 ,    0 ,   65 ,   23 ,  131 ,  193 ,   40 ,    8 ,    0 ,  122 ,   46 ,  193 ,  140 ,   63 ,   93 ,  165 ,  121 
E: 000000.242317 64 01 81 7e 7f 81 00 00 8e 08 00 00 00 6b f0 29 eb f6 ff ed ff 09 00 35 00 5a 1f 40 05 1a f8 82 c1 07 80 00 00 00 80 00 00 00 00 09 09 00 00 00 00 00 41 17 83 c1 28 08 00 7a 2e c1 8c 3f 5d a5 79
# ReportID: 1 / X:  129 | Y:  127 | Z:  127 | Rz:  129 | Rx:    0 | Ry:    0 | 0xff000020:  143 | Hat switch:   8 | Button: 0  0  0  0  0  0  0  0  0  0  0  0  0  0  0 | 0xff000021: 0 , 0 , 0 , 0 , 0 , 0 , 0 , 0 , 0 , 0 , 0 , 0 , 0 | 0xff000022:  108 ,  240 ,   41 ,  235 ,  247 ,  255 ,  238 ,  255 ,   11 ,    0 ,   57 ,    0 ,   88 ,   31 ,   54 ,    5 ,   13 ,   39 ,  131 ,  193 ,    7 ,  128 ,    0 ,    0 ,    0 ,  128 ,    0 ,    0 ,    0 ,    0 ,    9 ,    9 ,    0 ,    0 ,    0 ,    0 ,    0 ,   33 ,   70 ,  131 ,  193 ,   40 ,    8 ,    0 ,   67 ,  160 ,  114 ,  203 ,   21 ,  202 ,  166 ,  142 
E: 000000.245993 64 01 81 7f 7f 81 00 00 8f 08 00 00 00 6c f0 29 eb f7 ff ee ff 0b 00 39 00 58 1f 36 05 0d 27 83 c1 07 80 00 00 00 80 00 00 00 00 09 09 00 00 00 00 00 21 46 83 c1 28 08 00 43 a0 72 cb 15 ca a6 8e
# ReportID: 1 / X:  129 | Y:  127 | Z:  128 | Rz:  129 | Rx:    0 | Ry:    0 | 0xff000020:  144 | Hat switch:   8 | Button: 0  0  0  0  0  0  0  0  0  0  0  0  0  0  0 | 0xff000021: 0 , 0 , 0 , 0 , 0 , 0 , 0 , 0 , 0 , 0 , 0 , 0 , 0 | 0xff000022:  109 ,  240 ,   41 ,  235 ,  247 ,  255 ,  239 ,  255 ,   11 ,    0 ,   57 ,    0 ,   94 ,   31 ,   61 ,    5 ,    0 ,   86 ,  131 ,  193 ,    7 ,  128 ,    0 ,    0 ,    0 ,  128 ,    0 ,    0 ,    0 ,    0 ,    9 ,    9 ,    0 ,    0 ,    0 ,    0 ,    0 ,    1 ,  117 ,  131 ,  193 ,   40 ,    8 ,    0 ,  150 ,   22 ,  120 ,   16 ,  157 ,   68 ,  220 ,   48 
E: 000000.249415 64 01 81 7f 80 81 00 00 90 08 00 00 00 6d f0 29 eb f7 ff ef ff 0b 00 39 00 5e 1f 3d 05 00 56 83 c1 07 80 00 00 00 80 00 00 00 00 09 09 00 00 00 00 00 01 75 83 c1 28 08 00 96 16 78 10 9d 44 dc 30
# ReportID: 1 / X:  129 | Y:  127 | Z:  127 | Rz:  129 | Rx:    0 | Ry:    0 | 0xff000020:  145 | Hat switch:   8 | Button: 0  0  0  0  0  0  0  0  0  0  0  0  0  0  0 | 0xff000021: 0 , 0 , 0 , 0 , 0 , 0 , 0 , 0 , 0 , 0 , 0 , 0 , 0 | 0xff000022:  110 ,  240 ,   41 ,  235 ,  246 ,  255 ,  238 ,  255 ,   10 ,    0 ,   55 ,    0 ,  100 ,   31 ,   44 ,    5 ,  243 ,  132 ,  131 ,  193 ,    7 ,  128 ,    0 ,    0 ,    0 ,  128 ,    0 ,    0 ,    0 ,    0 ,    9 ,    9 ,    0 ,    0 ,    0 ,    0 ,    0 ,  225 ,  163 ,  131 ,  193 ,   40 ,    8 ,    0 ,  206 ,  182 ,   18 ,   68 ,  136 ,    2 ,  117 ,   25 
E: 000000.253546 64 01 81 7f 7f 81 00 00 91 08 00 00 00 6e f0 29 eb f6 ff ee ff 0a 00 37 00 64 1f 2c 05 f3 84 83 c1 07 80 00 00 00 80 00 00 00 00 09 09 00 00 00 00 00 e1 a3 83 c1 28 08 00 ce b6 12 44 88 02 75 19
# ReportID: 1 / X:  129 | Y:  127 | Z:  127 | Rz:  129 | Rx:    0 | Ry:    0 | 0xff000020:  146 | Hat switch:   8 | Button: 0  0  0  0  0  0  0  0  0  0  0  0  0  0  0 | 0xff000021: 0 , 0 , 0 , 0 , 0 , 0 , 0 , 0 , 0 , 0 , 0 , 0 , 0 | 0xff000022:  111 ,  240 ,   41 ,  235 ,  246 ,  255 ,  238 ,  255 ,   11 ,    0 ,   55 ,    0 ,   97 ,   31 ,   51 ,    5 ,  230 ,  179 ,  131 ,  193 ,    7 ,  128 ,    0 ,    0 ,    0 ,  128 ,    0 ,    0 ,    0 ,    0 ,    9 ,    9 ,    0 ,    0 ,    0 ,    0 ,    0 ,  193 ,  210 ,  131 ,  193 ,   40 ,    8 ,    0 ,  106 ,   74 ,   76 ,   15 ,  239 ,   20 ,  133 ,    5 
E: 000000.257095 64 01 81 7f 7f 81 00 00 92 08 00 00 00 6f f0 29 eb f6 ff ee ff 0b 00 37 00 61 1f 33 05 e6 b3 83 c1 07 80 00 00 00 80 00 00 00 00 09 09 00 00 00 00 00 c1 d2 83 c1 28 08 00 6a 4a 4c 0f ef 14 85 05
# ReportID: 1 / X:  129 | Y:  127 | Z:  127 | Rz:  129 | Rx:    0 | Ry:    0 | 0xff000020:  147 | Hat switch:   8 | Button: 0  0  0  0  0  0  0  0  0  0  0  0  0  0  0 | 0xff000021: 0 , 0 , 0 , 0 , 0 , 0 , 0 , 0 , 0 , 0 , 0 , 0 , 0 | 0xff000022:  112 ,  240 ,   41 ,  235 ,  244 ,  255 ,  239 ,  255 ,    9 ,    0 ,   43 ,    0 ,   80 ,   31 ,   43 ,    5 ,  217 ,  226 ,  131 ,  193 ,    7 ,  128 ,    0 ,    0 ,    0 ,  128 ,    0 ,    0 ,    0 ,    0 ,    9 ,    9 ,    0 ,    0 ,    0 ,    0 ,    0 ,  161 ,    1 ,  132 ,  193 ,   40 ,    8 ,    0 ,   39 ,  157 ,   40 ,  234 ,  246 ,  245 ,   13 ,  133 
E: 000000.261237 64 01 81 7f 7f 81 00 00 93 08 00 00 00 70 f0 29 eb f4 ff ef ff 09 00 2b 00 50 1f 2b 05 d9 e2 83 c1 07 80 00 00 00 80 00 00 00 00 09 09 00 00 00 00 00 a1 01 84 c1 28 08 00 27 9d 28 ea f6 f5 0d 85
# ReportID: 1 / X:  129 | Y:  126 | Z:  127 | Rz:  129 | Rx:    0 | Ry:    0 | 0xff000020:  148 | Hat switch:   8 | Button: 0  0  0  0  0  0  0  0  0  0  0  0  0  0  0 | 0xff000021: 0 , 0 , 0 , 0 , 0 , 0 , 0 , 0 , 0 , 0 , 0 , 0 , 0 | 0xff000022:  113 ,  240 ,   41 ,  235 ,  246 ,  255 ,  239 ,  255 ,    9 ,    0 ,   44 ,    0 ,   85 ,   31 ,   46 ,    5 ,  204 ,   17 ,  132 ,  193 ,    7 ,  128 ,    0 ,    0 ,    0 ,  128 ,    0 ,    0 ,    0 ,    0 ,    9 ,    9 ,    0 ,    0 ,    0 ,    0 ,    0 ,  129 ,   48 ,  132 ,  193 ,   40 ,    8 ,    0 ,  139 ,   42 ,  168 ,  103 ,  113 ,  179 ,  182 ,   15 
E: 000000.265272 64 01 81 7e 7f 81 00 00 94 08 00 00 00 71 f0 29 eb f6 ff ef ff 09 00 2c 00 55 1f 2e 05 cc 11 84 c1 07 80 00 00 00 80 00 00 00 00 09 09 00 00 00 00 00 81 30 84 c1 28 08 00 8b 2a a8 67 71 b3 b6 0f
# ReportID: 1 / X:  129 | Y:  127 | Z:  127 | Rz:  129 | Rx:    0 | Ry:    0 | 0xff000020:  149 | Hat switch:   8 | Button: 0  0  0  0  0  0  0  0  0  0  0  0  0  0  0 | 0xff000021: 0 , 0 , 0 , 0 , 0 , 0 , 0 , 0 , 0 , 0 , 0 , 0 , 0 | 0xff000022:  114 ,  240 ,   41 ,  235 ,  247 ,  255 ,  238 ,  255 ,   11 ,    0 ,   46 ,    0 ,   76 ,   31 ,   41 ,    5 ,  191 ,   64 ,  132 ,  193 ,    7 ,  128 ,    0 ,    0 ,    0 ,  128 ,    0 ,    0 ,    0 ,    0 ,    9 ,    9 ,    0 ,    0 ,    0 ,    0 ,    0 ,   97 ,   95 ,  132 ,  193 ,   40 ,    8 ,    0 ,  105 ,  156 ,  141 ,    5 ,  169 ,  199 ,   48 ,  161 
E: 000000.269390 64 01 81 7f 7f 81 00 00 95 08 00 00 00 72 f0 29 eb f7 ff ee ff 0b 00 2e 00 4c 1f 29 05 bf 40 84 c1 07 80 00 00 00 80 00 00 00 00 09 09 00 00 00 00 00 61 5f 84 c1 28 08 00 69 9c 8d 05 a9 c7 30 a1
# ReportID: 1 / X:  129 | Y:  127 | Z:  127 | Rz:  129 | Rx:    0 | Ry:    0 | 0xff000020:  150 | Hat switch:   8 | Button: 0  0  0  0  0  0  0  0  0  0  0  0  0  0  0 | 0xff000021: 0 , 0 , 0 , 0 , 0 , 0 , 0 , 0 , 0 , 0 , 0 , 0 , 0 | 0xff000022:  115 ,  240 ,   41 ,  235 ,  247 ,  255 ,  239 ,  255 ,   10 ,    0 ,   41 ,    0 ,   85 ,   31 ,   43 ,    5 ,  178 ,  111 ,  132 ,  193 ,    7 ,  128 ,    0 ,    0 ,    0 ,  128 ,    0 ,    0 ,    0 ,    0 ,    9 ,    9 ,    0 ,    0 ,    0 ,    0 ,    0 ,   65 ,  142 ,  132 ,  193 ,   40 ,    8 ,    0 ,  179 ,   31 ,   30 ,  104 ,   92 ,   12 ,  116 ,  126 
E: 000000.274458 64 01 81 7f 7f 81 00 00 96 08 00 00 00 73 f0 29 eb f7 ff ef ff 0a 00 29 00 55 1f 2b 05 b2 6f 84 c1 07 80 00 00 00 80 00 00 00 00 09 09 00 00 00 00 00 41 8e 84 c1 28 08 00 b3 1f 1e 68 5c 0c 74 7e
# ReportID: 1 / X:  129 | Y:  127 | Z:  127 | Rz:  129 | Rx:    0 | Ry:    0 | 0xff000020:  151 | Hat switch:   8 | Button: 0  0  0  0  0  0  0  0  0  0  0  0  0  0  0 | 0xff000021: 0 , 0 , 0 , 0 , 0 , 0 , 0 , 0 , 0 , 0 , 0 , 0 , 0 | 0xff000022:  116 ,  240 ,   41 ,  235 ,  246 ,  255 ,  239 ,  255 ,    9 ,    0 ,   41 ,    0 ,   92 ,   31 ,   46 ,    5 ,  165 ,  158 ,  132 ,  193 ,    7 ,  128 ,    0 ,    0 ,    0 ,  128 ,    0 ,    0 ,    0 ,    0 ,    9 ,    9 ,    0 ,    0 ,    0 ,    0 ,    0 ,   33 ,  189 ,  132 ,  193 ,   40 ,    8 ,    0 ,    3 ,   85 ,  244 ,   17 ,  168 ,  133 ,   63 ,    9 
E: 000000.278228 64 01 81 7f 7f 81 00 00 97 08 00 00 00 74 f0 29 eb f6 ff ef ff 09 00 29 00 5c 1f 2e 05 a5 9e 84 c1 07 80 00 00 00 80 00 00 00 00 09 09 00 00 00 00 00 21 bd 84 c1 28 08 00 03 55 f4 11 a8 85 3f 09
# ReportID: 1 / X:  129 | Y:  127 | Z:  127 | Rz:  129 | Rx:    0 | Ry:    0 | 0xff000020:  152 | Hat switch:   8 | Button: 0  0  0  0  0  0  0  0  0  0  0  0  0  0  0 | 0xff000021: 0 , 0 , 0 , 0 , 0 , 0 , 0 , 0 , 0 , 0 , 0 , 0 , 0 | 0xff000022:  117 ,  240 ,   41 ,  235 ,  247 ,  255 ,  240 ,  255 ,    9 ,    0 ,   41 ,    0 ,   88 ,   31 ,   46 ,    5 ,  152 ,  205 ,  132 ,  193 ,    7 ,  128 ,    0 ,    0 ,    0 ,  128 ,    0 ,    0 ,    0 ,    0 ,    9 ,    9 ,    0 ,    0 ,    0 ,    0 ,    0 ,    1 ,  236 ,  132 ,  193 ,   40 ,    8 ,    0 ,  131 ,  248 ,  128 ,  158 ,   73 ,   58 ,  253 ,   73 
E: 000000.281345 64 01 81 7f 7f 81 00 00 98 08 00 00 00 75 f0 29 eb f7 ff f0 ff 09 00 29 00 58 1f 2e 05 98 cd 84 c1 07 80 00 00 00 80 00 00 00 00 09 09 00 00 00 00 00 01 ec 84 c1 28 08 00 83 f8 80 9e 49 3a fd 49
# ReportID: 1 / X:  129 | Y:  127 | Z:  127 | Rz:  129 | Rx:    0 | Ry:    0 | 0xff000020:  153 | Hat switch:   8 | Button: 0  0  0  0  0  0  0  0  0  0  0  0  0  0  0 | 0xff000021: 0 , 0 , 0 , 0 , 0 , 0 , 0 , 0 , 0 , 0 , 0 , 0 , 0 | 0xff000022:  118 ,  240 ,   41 ,  235 ,  246 ,  255 ,  239 ,  255 ,   10 ,    0 ,   32 ,    0 ,   94 ,   31 ,   46 ,    5 ,  139 ,  252 ,  132 ,  193 ,    7 ,  128 ,    0 ,    0 ,    0 ,  128 ,    0 ,    0 ,    0 ,    0 ,    9 ,    9 ,    0 ,    0 ,    0 ,    0 ,    0 ,  225 ,   26 ,  133 ,  193 ,   40 ,    8 ,    0 ,  136 ,  148 ,  147 ,  198 ,  121 ,  144 ,   88 ,    2 
E: 000000.285237 64 01 81 7f 7f 81 00 00 99 08 00 00 00 76 f0 29 eb f6 ff ef ff 0a 00 20 00 5e 1f 2e 05 8b fc 84 c1 07 80 00 00 00 80 00 00 00 00 09 09 00 00 00 00 00 e1 1a 85 c1 28 08 00 88 94 93 c6 79 90 58 02
# ReportID: 1 / X:  129 | Y:  127 | Z:  127 | Rz:  129 | Rx:    0 | Ry:    0 | 0xff000020:  154 | Hat switch:   8 | Button: 0  0  0  0  0  0  0  0  0  0  0  0  0  0  0 | 0xff000021: 0 , 0 , 0 , 0 , 0 , 0 , 0 , 0 , 0 , 0 , 0 , 0 , 0 | 0xff000022:  119 ,  240 ,   41 ,  235 ,  246 ,  255 ,  239 ,  255 ,   10 ,    0 ,   35 ,    0 ,   98 ,   31 ,   51 ,    5 ,  126 ,   43 ,  133 ,  193 ,    7 ,  128 ,    0 ,    0 ,    0 ,  128 ,    0 ,    0 ,    0 ,    0 ,    9 ,    9 ,    0 ,    0 ,    0 ,    0 ,    0 ,  193 ,   73 ,  133 ,  193 ,   40 ,    8 ,    0 ,   60 ,  231 ,  127 ,   78 ,  196 ,   41 ,   59 ,   84 
E: 000000.290274 64 01 81 7f 7f 81 00 00 9a 08 00 00 00 77 f0 29 eb f6 ff ef ff 0a 00 23 00 62 1f 33 05 7e 2b 85 c1 07 80 00 00 00 80 00 00 00 00 09 09 00 00 00 00 00 c1 49 85 c1 28 08 00 3c e7 7f 4e c4 29 3b 54
# ReportID: 1 / X:  129 | Y:  127 | Z:  128 | Rz:  129 | Rx:    0 | Ry:    0 | 0xff000020:  155 | Hat switch:   8 | Button: 0  0  0  0  0  0  0  0  0  0  0  0  0  0  0 | 0xff000021: 0 , 0 , 0 , 0 , 0 , 0 , 0 , 0 , 0 , 0 , 0 , 0 , 0 | 0xff000022:  120 ,  240 ,   41 ,  235 ,  246 ,  255 ,  238 ,  255 ,   10 ,    0 ,   27 ,    0 ,   82 ,   31 ,   54 ,    5 ,  113 ,   90 ,  133 ,  193 ,    7 ,  128 ,    0 ,    0 ,    0 ,  128 ,    0 ,    0 ,    0 ,    0 ,    9 ,    9 ,    0 ,    0 ,    0 ,    0 ,    0 ,  161 ,  120 ,  133 ,  193 ,   40 ,    8 ,    0 ,  123 ,  197 ,   38 ,  233 ,  168 ,   50 ,  184 ,  151 
E: 000000.293890 64 01 81 7f 80 81 00 00 9b 08 00 00 00 78 f0 29 eb f6 ff ee ff 0a 00 1b 00 52 1f 36 05 71 5a 85 c1 07 80 00 00 00 80 00 00 00 00 09 09 00 00 00 00 00 a1 78 85 c1 28 08 00 7b c5 26 e9 a8 32 b8 97
# ReportID: 1 / X:  129 | Y:  127 | Z:  127 | Rz:  129 | Rx:    0 | Ry:    0 | 0xff000020:  156 | Hat switch:   8 | Button: 0  0  0  0  0  0  0  0  0  0  0  0  0  0  0 | 0xff000021: 0 , 0 , 0 , 0 , 0 , 0 , 0 , 0 , 0 , 0 , 0 , 0 , 0 | 0xff000022:  121 ,  240 ,   41 ,  235 ,  246 ,  255 ,  239 ,  255 ,    9 ,    0 ,   34 ,    0 ,   85 ,   31 ,   55 ,    5 ,  100 ,  137 ,  133 ,  193 ,    7 ,  128 ,    0 ,    0 ,    0 ,  128 ,    0 ,    0 ,    0 ,    0 ,    9 ,    9 ,    0 ,    0 ,    0 ,    0 ,    0 ,  129 ,  167 ,  133 ,  193 ,   40 ,    8 ,    0 ,  101 ,  124 ,  202 ,   39 ,  107 ,   80 ,   92 ,  227 
E: 000000.297388 64 01 81 7f 7f 81 00 00 9c 08 00 00 00 79 f0 29 eb f6 ff ef ff 09 00 22 00 55 1f 37 05 64 89 85 c1 07 80 00 00 00 80 00 00 00 00 09 09 00 00 00 00 00 81 a7 85 c1 28 08 00 65 7c ca 27 6b 50 5c e3
# ReportID: 1 / X:  129 | Y:  127 | Z:  128 | Rz:  129 | Rx:    0 | Ry:    0 | 0xff000020:  157 | Hat switch:   8 | Button: 0  0  0  0  0  0  0  0  0  0  0  0  0  0  0 | 0xff000021: 0 , 0 , 0 , 0 , 0 , 0 , 0 , 0 , 0 , 0 , 0 , 0 , 0 | 0xff000022:  122 ,  240 ,   41 ,  235 ,  246 ,  255 ,  238 ,  255 ,    9 ,    0 ,   35 ,    0 ,   90 ,   31 ,   60 ,    5 ,   87 ,  184 ,  133 ,  193 ,    7 ,  128 ,    0 ,    0 ,    0 ,  128 ,    0 ,    0 ,    0 ,    0 ,    9 ,    9 ,    0 ,    0 ,    0 ,    0 ,    0 ,   97 ,  214 ,  133 ,  193 ,   40 ,    8 ,    0 ,   93 ,   67 ,  162 ,  122 ,   15 ,  239 ,  183 ,  190 
E: 000000.301818 64 01 81 7f 80 81 00 00 9d 08 00 00 00 7a f0 29 eb f6 ff ee ff 09 00 23 00 5a 1f 3c 05 57 b8 85 c1 07 80 00 00 00 80 00 00 00 00 09 09 00 00 00 00 00 61 d6 85 c1 28 08 00 5d 43 a2 7a 0f ef b7 be
# ReportID: 1 / X:  129 | Y:  127 | Z:  127 | Rz:  129 | Rx:    0 | Ry:    0 | 0xff000020:  158 | Hat switch:   8 | Button: 0  0  0  0  0  0  0  0  0  0  0  0  0  0  0 | 0xff000021: 0 , 0 , 0 , 0 , 0 , 0 , 0 , 0 , 0 , 0 , 0 , 0 , 0 | 0xff000022:  123 ,  240 ,   41 ,  235 ,  245 ,  255 ,  239 ,  255 ,   10 ,    0 ,   37 ,    0 ,   75 ,   31 ,   59 ,    5 ,   74 ,  231 ,  133 ,  193 ,    7 ,  128 ,    0 ,    0 ,    0 ,  128 ,    0 ,    0 ,    0 ,    0 ,    9 ,    9 ,    0 ,    0 ,    0 ,    0 ,    0 ,   65 ,    5 ,  134 ,  193 ,   40 ,    8 ,    0 ,   14 ,  240 ,  220 ,  252 ,   52 ,   36 ,  184 ,   85 
E: 000000.306668 64 01 81 7f 7f 81 00 00 9e 08 00 00 00 7b f0 29 eb f5 ff ef ff 0a 00 25 00 4b 1f 3b 05 4a e7 85 c1 07 80 00 00 00 80 00 00 00 00 09 09 00 00 00 00 00 41 05 86 c1 28 08 00 0e f0 dc fc 34 24 b8 55
# ReportID: 1 / X:  129 | Y:  127 | Z:  127 | Rz:  129 | Rx:    0 | Ry:    0 | 0xff000020:  159 | Hat switch:   8 | Button: 0  0  0  0  0  0  0  0  0  0  0  0  0  0  0 | 0xff000021: 0 , 0 , 0 , 0 , 0 , 0 , 0 , 0 , 0 , 0 , 0 , 0 , 0 | 0xff000022:  124 ,  240 ,   41 ,  235 ,  245 ,  255 ,  239 ,  255 ,    8 ,    0 ,   38 ,    0 ,   84 ,   31 ,   61 ,    5 ,   61 ,   22 ,  134 ,  193 ,    7 ,  128 ,    0 ,    0 ,    0 ,  128 ,    0 ,    0 ,    0 ,    0 ,    9 ,    9 ,    0 ,    0 ,    0 ,    0 ,    0 ,   33 ,   52 ,  134 ,  193 ,   40 ,    8 ,    0 ,  219 ,   69 ,  157 ,   83 ,   38 ,  210 ,  214 ,  174 
E: 000000.309734 64 01 81 7f 7f 81 00 00 9f 08 00 00 00 7c f0 29 eb f5 ff ef ff 08 00 26 00 54 1f 3d 05 3d 16 86 c1 07 80 00 00 00 80 00 00 00 00 09 09 00 00 00 00 00 21 34 86 c1 28 08 00 db 45 9d 53 26 d2 d6 ae
# ReportID: 1 / X:  129 | Y:  127 | Z:  127 | Rz:  129 | Rx:    0 | Ry:    0 | 0xff000020:  160 | Hat switch:   8 | Button: 0  0  0  0  0  0  0  0  0  0  0  0  0  0  0 | 0xff000021: 0 , 0 , 0 , 0 , 0 , 0 , 0 , 0 , 0 , 0 , 0 , 0 , 0 | 0xff000022:  125 ,  240 ,   41 ,  235 ,  245 ,  255 ,  240 ,  255 ,    9 ,    0 ,   47 ,    0 ,   77 ,   31 ,   65 ,    5 ,   48 ,   69 ,  134 ,  193 ,    7 ,  128 ,    0 ,    0 ,    0 ,  128 ,    0 ,    0 ,    0 ,    0 ,    9 ,    9 ,    0 ,    0 ,    0 ,    0 ,    0 ,    1 ,   99 ,  134 ,  193 ,   40 ,    8 ,    0 ,  154 ,  127 ,   33 ,   49 ,  155 ,   19 ,    6 ,  130 
E: 000000.313820 64 01 81 7f 7f 81 00 00 a0 08 00 00 00 7d f0 29 eb f5 ff f0 ff 09 00 2f 00 4d 1f 41 05 30 45 86 c1 07 80 00 00 00 80 00 00 00 00 09 09 00 00 00 00 00 01 63 86 c1 28 08 00 9a 7f 21 31 9b 13 06 82
# ReportID: 1 / X:  129 | Y:  127 | Z:  127 | Rz:  129 | Rx:    0 | Ry:    0 | 0xff000020:  161 | Hat switch:   8 | Button: 0  0  0  0  0  0  0  0  0  0  0  0  0  0  0 | 0xff000021: 0 , 0 , 0 , 0 , 0 , 0 , 0 , 0 , 0 , 0 , 0 , 0 , 0 | 0xff000022:  126 ,  240 ,   41 ,  235 ,  246 ,  255 ,  238 ,  255 ,    9 ,    0 ,   31 ,    0 ,   78 ,   31 ,   66 ,    5 ,   35 ,  116 ,  134 ,  193 ,    7 ,  128 ,    0 ,    0 ,    0 ,  128 ,    0 ,    0 ,    0 ,    0 ,    9 ,    9 ,    0 ,    0 ,    0 ,    0 ,    0 ,  225 ,  145 ,  134 ,  193 ,   40 ,    8 ,    0 ,   96 ,   17 ,   40 ,  110 ,  205 ,  245 ,  146 ,  143 
E: 000000.317192 64 01 81 7f 7f 81 00 00 a1 08 00 00 00 7e f0 29 eb f6 ff ee ff 09 00 1f 00 4e 1f 42 05 23 74 86 c1 07 80 00 00 00 80 00 00 00 00 09 09 00 00 00 00 00 e1 91 86 c1 28 08 00 60 11 28 6e cd f5 92 8f
# ReportID: 1 / X:  129 | Y:  126 | Z:  127 | Rz:  129 | Rx:    0 | Ry:    0 | 0xff000020:  162 | Hat switch:   8 | Button: 0  0  0  0  0  0  0  0  0  0  0  0  0  0  0 | 0xff000021: 0 , 0 , 0 , 0 , 0 , 0 , 0 , 0 , 0 , 0 , 0 , 0 , 0 | 0xff000022:  127 ,  240 ,   41 ,  235 ,  246 ,  255 ,  239 ,  255 ,    8 ,    0 ,   42 ,    0 ,   96 ,   31 ,   73 ,    5 ,   22 ,  163 ,  134 ,  193 ,    7 ,  128 ,    0 ,    0 ,    0 ,  128 ,    0 ,    0 ,    0 ,    0 ,    9 ,    9 ,    0 ,    0 ,    0 ,    0 ,    0 ,  193 ,  192 ,  134 ,  193 ,   40 ,    8 ,    0 ,   65 ,  161 ,   63 ,  103 ,   35 ,  186 ,  145 ,  233 
E: 000000.321975 64 01 81 7e 7f 81 00 00 a2 08 00 00 00 7f f0 29 eb f6 ff ef ff 08 00 2a 00 60 1f 49 05 16 a3 86 c1 07 80 00 00 00 80 00 00 00 00 09 09 00 00 00 00 00 c1 c0 86 c1 28 08 00 41 a1 3f 67 23 ba 91 e9
# ReportID: 1 / X:  129 | Y:  127 | Z:  127 | Rz:  129 | Rx:    0 | Ry:    0 | 0xff000020:  163 | Hat switch:   8 | Button: 0  0  0  1  0  0  0  0  0  0  0  0  0  0  0 | 0xff000021: 0 , 0 , 0 , 0 , 0 , 0 , 0 , 0 , 0 , 0 , 0 , 0 , 0 | 0xff000022:  128 ,  240 ,   41 ,  235 ,  246 ,  255 ,  237 ,  255 ,   11 ,    0 ,   92 ,    0 ,   29 ,   31 ,   93 ,    5 ,    9 ,  210 ,  134 ,  193 ,    7 ,  128 ,    0 ,    0 ,    0 ,  128 ,    0 ,    0 ,    0 ,    0 ,    9 ,    9 ,    0 ,    0 ,    0 ,    0 ,    0 ,  160 ,  239 ,  134 ,  193 ,   40 ,    8 ,    0 ,  212 ,   38 ,  212 ,  254 ,  205 ,  255 ,  196 ,  211 
E: 000000.325670 64 01 81 7f 7f 81 00 00 a3 88 00 00 00 80 f0 29 eb f6 ff ed ff 0b 00 5c 00 1d 1f 5d 05 09 d2 86 c1 07 80 00 00 00 80 00 00 00 00 09 09 00 00 00 00 00 a0 ef 86 c1 28 08 00 d4 26 d4 fe cd ff c4 d3
# ReportID: 1 / X:  129 | Y:  127 | Z:  127 | Rz:  129 | Rx:    0 | Ry:    0 | 0xff000020:  164 | Hat switch:   8 | Button: 0  0  0  1  0  0  0  0  0  0  0  0  0  0  0 | 0xff000021: 0 , 0 , 0 , 0 , 0 , 0 , 0 , 0 , 0 , 0 , 0 , 0 , 0 | 0xff000022:  129 ,  240 ,   41 ,  235 ,  233 ,  255 ,  240 ,  255 ,    4 ,    0 ,   73 ,    0 ,  179 ,   31 ,   82 ,    5 ,  252 ,    0 ,  135 ,  193 ,    7 ,  128 ,    0 ,    0 ,    0 ,  128 ,    0 ,    0 ,    0 ,    0 ,    9 ,    9 ,    0 ,    0 ,    0 ,    0 ,    0 ,  128 ,   30 ,  135 ,  193 ,   40 ,    8 ,    0 ,  206 ,  241 ,  246 ,  236 ,  183 ,  152 ,  109 ,  181 
E: 000000.329568 64 01 81 7f 7f 81 00 00 a4 88 00 00 00 81 f0 29 eb e9 ff f0 ff 04 00 49 00 b3 1f 52 05 fc 00 87 c1 07 80 00 00 00 80 00 00 00 00 09 09 00 00 00 00 00 80 1e 87 c1 28 08 00 ce f1 f6 ec b7 98 6d b5
# ReportID: 1 / X:  129 | Y:  127 | Z:  127 | Rz:  129 | Rx:    0 | Ry:    0 | 0xff000020:  165 | Hat switch:   8 | Button: 0  0  0  1  0  0  0  0  0  0  0  0  0  0  0 | 0xff000021: 0 , 0 , 0 , 0 , 0 , 0 , 0 , 0 , 0 , 0 , 0 , 0 , 0 | 0xff000022:  130 ,  240 ,   41 ,  235 ,  247 ,  255 ,  239 ,  255 ,   10 ,    0 ,  209 ,  255 ,   38 ,   31 ,   46 ,    5 ,  239 ,   47 ,  135 ,  193 ,    7 ,  128 ,    0 ,    0 ,    0 ,  128 ,    0 ,    0 ,    0 ,    0 ,    9 ,    9 ,    0 ,    0 ,    0 ,    0 ,    0 ,   96 ,   77 ,  135 ,  193 ,   40 ,    8 ,    0 ,  143 ,  246 ,  214 ,  202 ,  231 ,  214 ,   42 ,   93 
E: 000000.333814 64 01 81 7f 7f 81 00 00 a5 88 00 00 00 82 f0 29 eb f7 ff ef ff 0a 00 d1 ff 26 1f 2e 05 ef 2f 87 c1 07 80 00 00 00 80 00 00 00 00 09 09 00 00 00 00 00 60 4d 87 c1 28 08 00 8f f6 d6 ca e7 d6 2a 5d
# ReportID: 1 / X:  129 | Y:  127 | Z:  127 | Rz:  129 | Rx:    0 | Ry:    0 | 0xff000020:  166 | Hat switch:   8 | Button: 0  0  0  1  0  0  0  0  0  0  0  0  0  0  0 | 0xff000021: 0 , 0 , 0 , 0 , 0 , 0 , 0 , 0 , 0 , 0 , 0 , 0 , 0 | 0xff000022:  131 ,  240 ,   41 ,  235 ,  245 ,  255 ,  239 ,  255 ,    9 ,    0 ,   90 ,    0 ,   56 ,   31 ,  249 ,    4 ,  226 ,   94 ,  135 ,  193 ,    7 ,  128 ,    0 ,    0 ,    0 ,  128 ,    0 ,    0 ,    0 ,    0 ,    9 ,    9 ,    0 ,    0 ,    0 ,    0 ,    0 ,   64 ,  124 ,  135 ,  193 ,   40 ,    8 ,    0 ,  207 ,  103 ,  209 ,  138 ,  210 ,  112 ,  135 ,   17 
E: 000000.337668 64 01 81 7f 7f 81 00 00 a6 88 00 00 00 83 f0 29 eb f5 ff ef ff 09 00 5a 00 38 1f f9 04 e2 5e 87 c1 07 80 00 00 00 80 00 00 00 00 09 09 00 00 00 00 00 40 7c 87 c1 28 08 00 cf 67 d1 8a d2 70 87 11
# ReportID: 1 / X:  129 | Y:  127 | Z:  127 | Rz:  129 | Rx:    0 | Ry:    0 | 0xff000020:  167 | Hat switch:   8 | Button: 0  0  0  1  0  0  0  0  0  0  0  0  0  0  0 | 0xff000021: 0 , 0 , 0 , 0 , 0 , 0 , 0 , 0 , 0 , 0 , 0 , 0 , 0 | 0xff000022:  132 ,  240 ,   41 ,  235 ,  244 ,  255 ,  238 ,  255 ,    8 ,    0 ,   49 ,    0 ,  106 ,   31 ,   60 ,    5 ,  213 ,  141 ,  135 ,  193 ,    7 ,  128 ,    0 ,    0 ,    0 ,  128 ,    0 ,    0 ,    0 ,    0 ,    9 ,    9 ,    0 ,    0 ,    0 ,    0 ,    0 ,   33 ,  171 ,  135 ,  193 ,   40 ,    8 ,    0 ,  127 ,  213 ,  196 ,  246 ,  136 ,   60 ,   13 ,  245 
E: 000000.341508 64 01 81 7f 7f 81 00 00 a7 88 00 00 00 84 f0 29 eb f4 ff ee ff 08 00 31 00 6a 1f 3c 05 d5 8d 87 c1 07 80 00 00 00 80 00 00 00 00 09 09 00 00 00 00 00 21 ab 87 c1 28 08 00 7f d5 c4 f6 88 3c 0d f5
# ReportID: 1 / X:  129 | Y:  127 | Z:  127 | Rz:  129 | Rx:    0 | Ry:    0 | 0xff000020:  168 | Hat switch:   8 | Button: 0  0  0  1  0  0  0  0  0  0  0  0  0  0  0 | 0xff000021: 0 , 0 , 0 , 0 , 0 , 0 , 0 , 0 , 0 , 0 , 0 , 0 , 0 | 0xff000022:  133 ,  240 ,   41 ,  235 ,  245 ,  255 ,  238 ,  255 ,    9 ,    0 ,   68 ,    0 ,  108 ,   31 ,   65 ,    5 ,  200 ,  188 ,  135 ,  193 ,    7 ,  128 ,    0 ,    0 ,    0 ,  128 ,    0 ,    0 ,    0 ,    0 ,    9 ,    9 ,    0 ,    0 ,    0 ,    0 ,    0 ,    0 ,  218 ,  135 ,  193 ,   40 ,    8 ,    0 ,  200 ,   32 ,  224 ,  190 ,  191 ,  118 ,   84 ,  161 
E: 000000.346063 64 01 81 7f 7f 81 00 00 a8 88 00 00 00 85 f0 29 eb f5 ff ee ff 09 00 44 00 6c 1f 41 05 c8 bc 87 c1 07 80 00 00 00 80 00 00 00 00 09 09 00 00 00 00 00 00 da 87 c1 28 08 00 c8 20 e0 be bf 76 54 a1
# ReportID: 1 / X:  129 | Y:  127 | Z:  127 | Rz:  129 | Rx:    0 | Ry:    0 | 0xff000020:  169 | Hat switch:   8 | Button: 0  0  0  1  0  0  0  0  0  0  0  0  0  0  0 | 0xff000021: 0 , 0 , 0 , 0 , 0 , 0 , 0 , 0 , 0 , 0 , 0 , 0 , 0 | 0xff000022:  134 ,  240 ,   41 ,  235 ,  244 ,  255 ,  238 ,  255 ,    8 ,    0 ,   79 ,    0 ,  145 ,   31 ,   58 ,    5 ,  187 ,  235 ,  135 ,  193 ,    7 ,  128 ,    0 ,    0 ,    0 ,  128 ,    0 ,    0 ,    0 ,    0 ,    9 ,    9 ,    0 ,    0 ,    0 ,    0 ,    0 ,  224 ,    8 ,  136 ,  193 ,   40 ,    8 ,    0 ,   41 ,   96 ,  116 ,  144 ,   87 ,  246 ,   95 ,   58 
E: 000000.349732 64 01 81 7f 7f 81 00 00 a9 88 00 00 00 86 f0 29 eb f4 ff ee ff 08 00 4f 00 91 1f 3a 05 bb eb 87 c1 07 80 00 00 00 80 00 00 00 00 09 09 00 00 00 00 00 e0 08 88 c1 28 08 00 29 60 74 90 57 f6 5f 3a
# ReportID: 1 / X:  129 | Y:  127 | Z:  127 | Rz:  129 | Rx:    0 | Ry:    0 | 0xff000020:  170 | Hat switch:   8 | Button: 0  0  0  1  0  0  0  0  0  0  0  0  0  0  0 | 0xff000021: 0 , 0 , 0 , 0 , 0 , 0 , 0 , 0 , 0 , 0 , 0 , 0 , 0 | 0xff000022:  135 ,  240 ,   41 ,  235 ,  245 ,  255 ,  238 ,  255 ,    9 ,    0 ,   57 ,    0 ,   59 ,   31 ,   55 ,    5 ,  174 ,   26 ,  136 ,  193 ,    7 ,  128 ,    0 ,    0 ,    0 ,  128 ,    0 ,    0 ,    0 ,    0 ,    9 ,    9 ,    0 ,    0 ,    0 ,    0 ,    0 ,  192 ,   55 ,  136 ,  193 ,   40 ,    8 ,    0 ,  192 ,   35 ,   75 ,   83 ,  153 ,  155 ,  231 ,  164 
E: 000000.353168 64 01 81 7f 7f 81 00 00 aa 88 00 00 00 87 f0 29 eb f5 ff ee ff 09 00 39 00 3b 1f 37 05 ae 1a 88 c1 07 80 00 00 00 80 00 00 00 00 09 09 00 00 00 00 00 c0 37 88 c1 28 08 00 c0 23 4b 53 99 9b e7 a4
# ReportID: 1 / X:  129 | Y:  127 | Z:  127 | Rz:  129 | Rx:    0 | Ry:    0 | 0xff000020:  171 | Hat switch:   8 | Button: 0  0  0  1  0  0  0  0  0  0  0  0  0  0  0 | 0xff000021: 0 , 0 , 0 , 0 , 0 , 0 , 0 , 0 , 0 , 0 , 0 , 0 , 0 | 0xff000022:  136 ,  240 ,   41 ,  235 ,  246 ,  255 ,  239 ,  255 ,    9 ,    0 ,   20 ,    0 ,   63 ,   31 ,   60 ,    5 ,  161 ,   73 ,  136 ,  193 ,    7 ,  128 ,    0 ,    0 ,    0 ,  128 ,    0 ,    0 ,    0 ,    0 ,    9 ,    9 ,    0 ,    0 ,    0 ,    0 ,    0 ,  160 ,  102 ,  136 ,  193 ,   40 ,    8 ,    0 ,   48 ,  229 ,  122 ,    6 ,  124 ,  127 ,  183 ,  155 
E: 000000.357208 64 01 81 7f 7f 81 00 00 ab 88 00 00 00 88 f0 29 eb f6 ff ef ff 09 00 14 00 3f 1f 3c 05 a1 49 88 c1 07 80 00 00 00 80 00 00 00 00 09 09 00 00 00 00 00 a0 66 88 c1 28 08 00 30 e5 7a 06 7c 7f b7 9b
# ReportID: 1 / X:  129 | Y:  127 | Z:  127 | Rz:  129 | Rx:    0 | Ry:    0 | 0xff000020:  172 | Hat switch:   8 | Button: 0  0  0  1  0  0  0  0  0  0  0  0  0  0  0 | 0xff000021: 0 , 0 , 0 , 0 , 0 , 0 , 0 , 0 , 0 , 0 , 0 , 0 , 0 | 0xff000022:  137 ,  240 ,   41 ,  235 ,  246 ,  255 ,  238 ,  255 ,    8 ,    0 ,   86 ,    0 ,   80 ,   31 ,   26 ,    5 ,  148 ,  120 ,  136 ,  193 ,    7 ,  128 ,    0 ,    0 ,    0 ,  128 ,    0 ,    0 ,    0 ,    0 ,    9 ,    9 ,    0 ,    0 ,    0 ,    0 ,    0 ,  128 ,  149 ,  136 ,  193 ,   40 ,    8 ,    0 ,   66 ,  136 ,   58 ,  200 ,   71 ,  204 ,   84 ,   58 
E: 000000.362104 64 01 81 7f 7f 81 00 00 ac 88 00 00 00 89 f0 29 eb f6 ff ee ff 08 00 56 00 50 1f 1a 05 94 78 88 c1 07 80 00 00 00 80 00 00 00 00 09 09 00 00 00 00 00 80 95 88 c1 28 08 00 42 88 3a c8 47 cc 54 3a
# ReportID: 1 / X:  129 | Y:  127 | Z:  127 | Rz:  129 | Rx:    0 | Ry:    0 | 0xff000020:  173 | Hat switch:   8 | Button: 0  0  0  1  0  0  0  0  0  0  0  0  0  0  0 | 0xff000021: 0 , 0 , 0 , 0 , 0 , 0 , 0 , 0 , 0 , 0 , 0 , 0 , 0 | 0xff000022:  138 ,  240 ,   41 ,  235 ,  245 ,  255 ,  238 ,  255 ,    8 ,    0 ,   51 ,    0 ,  109 ,   31 ,   53 ,    5 ,  135 ,  167 ,  136 ,  193 ,    7 ,  128 ,    0 ,    0 ,    0 ,  128 ,    0 ,    0 ,    0 ,    0 ,    9 ,    9 ,    0 ,    0 ,    0 ,    0 ,    0 ,   96 ,  196 ,  136 ,  193 ,   40 ,    8 ,    0 ,   87 ,  180 ,  255 ,  210 ,  223 ,   66 ,  253 ,    7 
E: 000000.365903 64 01 81 7f 7f 81 00 00 ad 88 00 00 00 8a f0 29 eb f5 ff ee ff 08 00 33 00 6d 1f 35 05 87 a7 88 c1 07 80 00 00 00 80 00 00 00 00 09 09 00 00 00 00 00 60 c4 88 c1 28 08 00 57 b4 ff d2 df 42 fd 07
# ReportID: 1 / X:  129 | Y:  127 | Z:  128 | Rz:  129 | Rx:    0 | Ry:    0 | 0xff000020:  174 | Hat switch:   8 | Button: 0  0  0  1  0  0  0  0  0  0  0  0  0  0  0 | 0xff000021: 0 , 0 , 0 , 0 , 0 , 0 , 0 , 0 , 0 , 0 , 0 , 0 , 0 | 0xff000022:  139 ,  240 ,   41 ,  235 ,  245 ,  255 ,  238 ,  255 ,    8 ,    0 ,   65 ,    0 ,  100 ,   31 ,   27 ,    5 ,  122 ,  214 ,  136 ,  193 ,    7 ,  128 ,    0 ,    0 ,    0 ,  128 ,    0 ,    0 ,    0 ,    0 ,    9 ,    9 ,    0 ,    0 ,    0 ,    0 ,    0 ,   64 ,  243 ,  136 ,  193 ,   40 ,    8 ,    0 ,  123 ,   44 ,  181 ,    3 ,  187 ,  248 ,    3 ,  154 
E: 000000.369673 64 01 81 7f 80 81 00 00 ae 88 00 00 00 8b f0 29 eb f5 ff ee ff 08 00 41 00 64 1f 1b 05 7a d6 88 c1 07 80 00 00 00 80 00 00 00 00 09 09 00 00 00 00 00 40 f3 88 c1 28 08 00 7b 2c b5 03 bb f8 03 9a
# ReportID: 1 / X:  129 | Y:  127 | Z:  127 | Rz:  129 | Rx:    0 | Ry:    0 | 0xff000020:  175 | Hat switch:   8 | Button: 0  0  0  1  0  0  0  0  0  0  0  0  0  0  0 | 0xff000021: 0 , 0 , 0 , 0 , 0 , 0 , 0 , 0 , 0 , 0 , 0 , 0 , 0 | 0xff000022:  140 ,  240 ,   41 ,  235 ,  242 ,  255 ,  237 ,  255 ,    7 ,    0 ,   57 ,    0 ,   78 ,   31 ,   42 ,    5 ,  109 ,    5 ,  137 ,  193 ,    7 ,  128 ,    0 ,    0 ,    0 ,  128 ,    0 ,    0 ,    0 ,    0 ,    9 ,    9 ,    0 ,    0 ,    0 ,    0 ,    0 ,   32 ,   34 ,  137 ,  193 ,   40 ,    8 ,    0 ,   42 ,  212 ,   44 ,  109 ,  134 ,  188 ,  112 ,   29 
E: 000000.373153 64 01 81 7f 7f 81 00 00 af 88 00 00 00 8c f0 29 eb f2 ff ed ff 07 00 39 00 4e 1f 2a 05 6d 05 89 c1 07 80 00 00 00 80 00 00 00 00 09 09 00 00 00 00 00 20 22 89 c1 28 08 00 2a d4 2c 6d 86 bc 70 1d
# ReportID: 1 / X:  129 | Y:  127 | Z:  127 | Rz:  129 | Rx:    0 | Ry:    0 | 0xff000020:  176 | Hat switch:   8 | Button: 0  0  0  1  0  0  0  0  0  0  0  0  0  0  0 | 0xff000021: 0 , 0 , 0 , 0 , 0 , 0 , 0 , 0 , 0 , 0 , 0 , 0 , 0 | 0xff000022:  141 ,  240 ,   41 ,  235 ,  243 ,  255 ,  237 ,  255 ,    7 ,    0 ,   49 ,    0 ,  100 ,   31 ,   40 ,    5 ,   96 ,   52 ,  137 ,  193 ,    7 ,  128 ,    0 ,    0 ,    0 ,  128 ,    0 ,    0 ,    0 ,    0 ,    9 ,    9 ,    0 ,    0 ,    0 ,    0 ,    0 ,    0 ,   81 ,  137 ,  193 ,   40 ,    8 ,    0 ,  239 ,   96 ,  171 ,  209 ,  161 ,  213 ,  210 ,  219 
E: 000000.377265 64 01 81 7f 7f 81 00 00 b0 88 00 00 00 8d f0 29 eb f3 ff ed ff 07 00 31 00 64 1f 28 05 60 34 89 c1 07 80 00 00 00 80 00 00 00 00 09 09 00 00 00 00 00 00 51 89 c1 28 08 00 ef 60 ab d1 a1 d5 d2 db
# ReportID: 1 / X:  129 | Y:  127 | Z:  127 | Rz:  129 | Rx:    0 | Ry:    0 | 0xff000020:  177 | Hat switch:   8 | Button: 0  0  0  1  0  0  0  0  0  0  0  0  0  0  0 | 0xff000021: 0 , 0 , 0 , 0 , 0 , 0 , 0 , 0 , 0 , 0 , 0 , 0 , 0 | 0xff000022:  142 ,  240 ,   41 ,  235 ,  243 ,  255 ,  237 ,  255 ,    8 ,    0 ,   27 ,    0 ,   84 ,   31 ,   50 ,    5 ,   83 ,   99 ,  137 ,  193 ,    7 ,  128 ,    0 ,    0 ,    0 ,  128 ,    0 ,    0 ,    0 ,    0 ,    9 ,    9 ,    0 ,    0 ,    0 ,    0 ,    0 ,  224 ,  127 ,  137 ,  193 ,   40 ,    8 ,    0 ,   59 ,  141 ,   37 ,  201 ,  215 ,  195 ,   89 ,  181 
E: 000000.381644 64 01 81 7f 7f 81 00 00 b1 88 00 00 00 8e f0 29 eb f3 ff ed ff 08 00 1b 00 54 1f 32 05 53 63 89 c1 07 80 00 00 00 80 00 00 00 00 09 09 00 00 00 00 00 e0 7f 89 c1 28 08 00 3b 8d 25 c9 d7 c3 59 b5
# ReportID: 1 / X:  129 | Y:  127 | Z:  127 | Rz:  129 | Rx:    0 | Ry:    0 | 0xff000020:  178 | Hat switch:   8 | Button: 0  0  0  1  0  0  0  0  0  0  0  0  0  0  0 | 0xff000021: 0 , 0 , 0 , 0 , 0 , 0 , 0 , 0 , 0 , 0 , 0 , 0 , 0 | 0xff000022:  143 ,  240 ,   41 ,  235 ,  243 ,  255 ,  239 ,  255 ,    8 ,    0 ,   61 ,    0 ,  112 ,   31 ,   35 ,    5 ,   70 ,  146 ,  137 ,  193 ,    7 ,  128 ,    0 ,    0 ,    0 ,  128 ,    0 ,    0 ,    0 ,    0 ,    9 ,    9 ,    0 ,    0 ,    0 ,    0 ,    0 ,  192 ,  174 ,  137 ,  193 ,   40 ,    8 ,    0 ,  194 ,  160 ,  124 ,  149 ,   96 ,  163 ,  233 ,  212 
E: 000000.386723 64 01 81 7f 7f 81 00 00 b2 88 00 00 00 8f f0 29 eb f3 ff ef ff 08 00 3d 00 70 1f 23 05 46 92 89 c1 07 80 00 00 00 80 00 00 00 00 09 09 00 00 00 00 00 c0 ae 89 c1 28 08 00 c2 a0 7c 95 60 a3 e9 d4
# ReportID: 1 / X:  129 | Y:  127 | Z:  127 | Rz:  129 | Rx:    0 | Ry:    0 | 0xff000020:  179 | Hat switch:   8 | Button: 0  0  0  1  0  0  0  0  0  0  0  0  0  0  0 | 0xff000021: 0 , 0 , 0 , 0 , 0 , 0 , 0 , 0 , 0 , 0 , 0 , 0 , 0 | 0xff000022:  144 ,  240 ,   41 ,  235 ,  243 ,  255 ,  238 ,  255 ,    8 ,    0 ,   55 ,    0 ,   88 ,   31 ,   28 ,    5 ,   57 ,  193 ,  137 ,  193 ,    7 ,  128 ,    0 ,    0 ,    0 ,  128 ,    0 ,    0 ,    0 ,    0 ,    9 ,    9 ,    0 ,    0 ,    0 ,    0 ,    0 ,  160 ,  221 ,  137 ,  193 ,   40 ,    8 ,    0 ,   63 ,  209 ,   33 ,  255 ,   90 ,  212 ,  110 ,   72 
E: 000000.390502 64 01 81 7f 7f 81 00 00 b3 88 00 00 00 90 f0 29 eb f3 ff ee ff 08 00 37 00 58 1f 1c 05 39 c1 89 c1 07 80 00 00 00 80 00 00 00 00 09 09 00 00 00 00 00 a0 dd 89 c1 28 08 00 3f d1 21 ff 5a d4 6e 48
# ReportID: 1 / X:  129 | Y:  127 | Z:  128 | Rz:  129 | Rx:    0 | Ry:    0 | 0xff000020:  180 | Hat switch:   8 | Button: 0  0  0  1  0  0  0  0  0  0  0  0  0  0  0 | 0xff000021: 0 , 0 , 0 , 0 , 0 , 0 , 0 , 0 , 0 , 0 , 0 , 0 , 0 | 0xff000022:  145 ,  240 ,   41 ,  235 ,  243 ,  255 ,  238 ,  255 ,    8 ,    0 ,   22 ,    0 ,   97 ,   31 ,   43 ,    5 ,   44 ,  240 ,  137 ,  193 ,    7 ,  128 ,    0 ,    0 ,    0 ,  128 ,    0 ,    0 ,    0 ,    0 ,    9 ,    9 ,    0 ,    0 ,    0 ,    0 ,    0 ,  128 ,   12 ,  138 ,  193 ,   40 ,    8 ,    0 ,  226 ,   49 ,  224 ,    5 ,  234 ,   62 ,  110 ,  161 
E: 000000.394594 64 01 81 7f 80 81 00 00 b4 88 00 00 00 91 f0 29 eb f3 ff ee ff 08 00 16 00 61 1f 2b 05 2c f0 89 c1 07 80 00 00 00 80 00 00 00 00 09 09 00 00 00 00 00 80 0c 8a c1 28 08 00 e2 31 e0 05 ea 3e 6e a1
# ReportID: 1 / X:  129 | Y:  127 | Z:  127 | Rz:  129 | Rx:    0 | Ry:    0 | 0xff000020:  181 | Hat switch:   8 | Button: 0  0  0  1  0  0  0  0  0  0  0  0  0  0  0 | 0xff000021: 0 , 0 , 0 , 0 , 0 , 0 , 0 , 0 , 0 , 0 , 0 , 0 , 0 | 0xff000022:  146 ,  240 ,   41 ,  235 ,  244 ,  255 ,  237 ,  255 ,    9 ,    0 ,   42 ,    0 ,   93 ,   31 ,   41 ,    5 ,   31 ,   31 ,  138 ,  193 ,    7 ,  128 ,    0 ,    0 ,    0 ,  128 ,    0 ,    0 ,    0 ,    0 ,    9 ,    9 ,    0 ,    0 ,    0 ,    0 ,    0 ,   96 ,   59 ,  138 ,  193 ,   40 ,    8 ,    0 ,   51 ,  175 ,  181 ,  219 ,   89 ,  223 ,  248 ,  150 
E: 000000.397762 64 01 81 7f 7f 81 00 00 b5 88 00 00 00 92 f0 29 eb f4 ff ed ff 09 00 2a 00 5d 1f 29 05 1f 1f 8a c1 07 80 00 00 00 80 00 00 00 00 09 09 00 00 00 00 00 60 3b 8a c1 28 08 00 33 af b5 db 59 df f8 96
# ReportID: 1 / X:  129 | Y:  127 | Z:  127 | Rz:  129 | Rx:    0 | Ry:    0 | 0xff000020:  182 | Hat switch:   8 | Button: 0  0  0  1  0  0  0  0  0  0  0  0  0  0  0 | 0xff000021: 0 , 0 , 0 , 0 , 0 , 0 , 0 , 0 , 0 , 0 , 0 , 0 , 0 | 0xff000022:  147 ,  240 ,   41 ,  235 ,  245 ,  255 ,  237 ,  255 ,    9 ,    0 ,   52 ,    0 ,   90 ,   31 ,   37 ,    5 ,   18 ,   78 ,  138 ,  193 ,    7 ,  128 ,    0 ,    0 ,    0 ,  128 ,    0 ,    0 ,    0 ,    0 ,    9 ,    9 ,    0 ,    0 ,    0 ,    0 ,    0 ,   64 ,  106 ,  138 ,  193 ,   40 ,    8 ,    0 ,  138 ,  240 ,  215 ,  253 ,  222 ,   55 ,   88 ,    9 
E: 000000.401178 64 01 81 7f 7f 81 00 00 b6 88 00 00 00 93 f0 29 eb f5 ff ed ff 09 00 34 00 5a 1f 25 05 12 4e 8a c1 07 80 00 00 00 80 00 00 00 00 09 09 00 00 00 00 00 40 6a 8a c1 28 08 00 8a f0 d7 fd de 37 58 09
# ReportID: 1 / X:  129 | Y:  127 | Z:  127 | Rz:  129 | Rx:    0 | Ry:    0 | 0xff000020:  183 | Hat switch:   8 | Button: 0  0  0  1  0  0  0  0  0  0  0  0  0  0  0 | 0xff000021: 0 , 0 , 0 , 0 , 0 , 0 , 0 , 0 , 0 , 0 , 0 , 0 , 0 | 0xff000022:  148 ,  240 ,   41 ,  235 ,  243 ,  255 ,  237 ,  255 ,    8 ,    0 ,   37 ,    0 ,   82 ,   31 ,   45 ,    5 ,    5 ,  125 ,  138 ,  193 ,    7 ,  128 ,    0 ,    0 ,    0 ,  128 ,    0 ,    0 ,    0 ,    0 ,    9 ,    9 ,    0 ,    0 ,    0 ,    0 ,    0 ,   32 ,  153 ,  138 ,  193 ,   40 ,    8 ,    0 ,  127 ,  252 ,  212 ,  155 ,  199 ,  197 ,   86 ,  179 
E: 000000.405166 64 01 81 7f 7f 81 00 00 b7 88 00 00 00 94 f0 29 eb f3 ff ed ff 08 00 25 00 52 1f 2d 05 05 7d 8a c1 07 80 00 00 00 80 00 00 00 00 09 09 00 00 00 00 00 20 99 8a c1 28 08 00 7f fc d4 9b c7 c5 56 b3
# ReportID: 1 / X:  129 | Y:  127 | Z:  127 | Rz:  129 | Rx:    0 | Ry:    0 | 0xff000020:  184 | Hat switch:   8 | Button: 0  0  0  1  0  0  0  0  0  0  0  0  0  0  0 | 0xff000021: 0 , 0 , 0 , 0 , 0 , 0 , 0 , 0 , 0 , 0 , 0 , 0 , 0 | 0xff000022:  149 ,  240 ,   41 ,  235 ,  245 ,  255 ,  238 ,  255 ,    8 ,    0 ,   29 ,    0 ,  104 ,   31 ,   57 ,    5 ,  248 ,  171 ,  138 ,  193 ,    7 ,  128 ,    0 ,    0 ,    0 ,  128 ,    0 ,    0 ,    0 ,    0 ,    9 ,    9 ,    0 ,    0 ,    0 ,    0 ,    0 ,    0 ,  200 ,  138 ,  193 ,   40 ,    8 ,    0 ,   59 ,  147 ,  222 ,  202 ,  170 ,  198 ,  109 ,  239 
E: 000000.411472 64 01 81 7f 7f 81 00 00 b8 88 00 00 00 95 f0 29 eb f5 ff ee ff 08 00 1d 00 68 1f 39 05 f8 ab 8a c1 07 80 00 00 00 80 00 00 00 00 09 09 00 00 00 00 00 00 c8 8a c1 28 08 00 3b 93 de ca aa c6 6d ef
# ReportID: 1 / X:  129 | Y:  127 | Z:  127 | Rz:  129 | Rx:    0 | Ry:    0 | 0xff000020:  185 | Hat switch:   8 | Button: 0  0  0  1  0  0  0  0  0  0  0  0  0  0  0 | 0xff000021: 0 , 0 , 0 , 0 , 0 , 0 , 0 , 0 , 0 , 0 , 0 , 0 , 0 | 0xff000022:  150 ,  240 ,   41 ,  235 ,  244 ,  255 ,  238 ,  255 ,    8 ,    0 ,   47 ,    0 ,   98 ,   31 ,   50 ,    5 ,  235 ,  218 ,  138 ,  193 ,    7 ,  128 ,    0 ,    0 ,    0 ,  128 ,    0 ,    0 ,    0 ,    0 ,    9 ,    9 ,    0 ,    0 ,    0 ,    0 ,    0 ,  224 ,  246 ,  138 ,  193 ,   40 ,    8 ,    0 ,   42 ,  173 ,   27 ,   55 ,  199 ,  131 ,   22 ,   94 
E: 000000.413036 64 01 81 7f 7f 81 00 00 b9 88 00 00 00 96 f0 29 eb f4 ff ee ff 08 00 2f 00 62 1f 32 05 eb da 8a c1 07 80 00 00 00 80 00 00 00 00 09 09 00 00 00 00 00 e0 f6 8a c1 28 08 00 2a ad 1b 37 c7 83 16 5e
# ReportID: 1 / X:  129 | Y:  127 | Z:  127 | Rz:  129 | Rx:    0 | Ry:    0 | 0xff000020:  186 | Hat switch:   8 | Button: 0  0  0  1  0  0  0  0  0  0  0  0  0  0  0 | 0xff000021: 0 , 0 , 0 , 0 , 0 , 0 , 0 , 0 , 0 , 0 , 0 , 0 , 0 | 0xff000022:  151 ,  240 ,   41 ,  235 ,  244 ,  255 ,  238 ,  255 ,    9 ,    0 ,   51 ,    0 ,   94 ,   31 ,   57 ,    5 ,  222 ,    9 ,  139 ,  193 ,    7 ,  128 ,    0 ,    0 ,    0 ,  128 ,    0 ,    0 ,    0 ,    0 ,    9 ,    9 ,    0 ,    0 ,    0 ,    0 ,    0 ,  195 ,   37 ,  139 ,  193 ,   40 ,    8 ,    0 ,  172 ,  120 ,  145 ,  129 ,  188 ,    6 ,   60 ,  250 
E: 000000.417162 64 01 81 7f 7f 81 00 00 ba 88 00 00 00 97 f0 29 eb f4 ff ee ff 09 00 33 00 5e 1f 39 05 de 09 8b c1 07 80 00 00 00 80 00 00 00 00 09 09 00 00 00 00 00 c3 25 8b c1 28 08 00 ac 78 91 81 bc 06 3c fa
# ReportID: 1 / X:  129 | Y:  127 | Z:  127 | Rz:  129 | Rx:    0 | Ry:    0 | 0xff000020:  187 | Hat switch:   8 | Button: 0  0  0  1  0  0  0  0  0  0  0  0  0  0  0 | 0xff000021: 0 , 0 , 0 , 0 , 0 , 0 , 0 , 0 , 0 , 0 , 0 , 0 , 0 | 0xff000022:  152 ,  240 ,   41 ,  235 ,  245 ,  255 ,  236 ,  255 ,    9 ,    0 ,   32 ,    0 ,   96 ,   31 ,   69 ,    5 ,  209 ,   56 ,  139 ,  193 ,    7 ,  128 ,    0 ,    0 ,    0 ,  128 ,    0 ,    0 ,    0 ,    0 ,    9 ,    9 ,    0 ,    0 ,    0 ,    0 ,    0 ,  160 ,   84 ,  139 ,  193 ,   40 ,    8 ,    0 ,   45 ,   34 ,  146 ,  214 ,   88 ,  113 ,   31 ,  157 
E: 000000.421435 64 01 81 7f 7f 81 00 00 bb 88 00 00 00 98 f0 29 eb f5 ff ec ff 09 00 20 00 60 1f 45 05 d1 38 8b c1 07 80 00 00 00 80 00 00 00 00 09 09 00 00 00 00 00 a0 54 8b c1 28 08 00 2d 22 92 d6 58 71 1f 9d
# ReportID: 1 / X:  129 | Y:  127 | Z:  127 | Rz:  129 | Rx:    0 | Ry:    0 | 0xff000020:  188 | Hat switch:   8 | Button: 0  0  0  1  0  0  0  0  0  0  0  0  0  0  0 | 0xff000021: 0 , 0 , 0 , 0 , 0 , 0 , 0 , 0 , 0 , 0 , 0 , 0 , 0 | 0xff000022:  153 ,  240 ,   41 ,  235 ,  245 ,  255 ,  238 ,  255 ,    9 ,    0 ,   28 ,    0 ,   71 ,   31 ,   76 ,    5 ,  196 ,  103 ,  139 ,  193 ,    7 ,  128 ,    0 ,    0 ,    0 ,  128 ,    0 ,    0 ,    0 ,    0 ,    9 ,    9 ,    0 ,    0 ,    0 ,    0 ,    0 ,  128 ,  131 ,  139 ,  193 ,   40 ,    8 ,    0 ,  164 ,  217 ,  162 ,   82 ,  135 ,  150 ,  246 ,  168 
E: 000000.425471 64 01 81 7f 7f 81 00 00 bc 88 00 00 00 99 f0 29 eb f5 ff ee ff 09 00 1c 00 47 1f 4c 05 c4 67 8b c1 07 80 00 00 00 80 00 00 00 00 09 09 00 00 00 00 00 80 83 8b c1 28 08 00 a4 d9 a2 52 87 96 f6 a8
