# Sony Interactive Entertainment DualSense Wireless Controller
# 0x05, 0x01,                    // Usage Page (Generic Desktop)        0
# 0x09, 0x05,                    // Usage (Game Pad)                    2
# 0xa1, 0x01,                    // Collection (Application)            4
# 0x85, 0x01,                    //  Report ID (1)                      6
# 0x09, 0x30,                    //  Usage (X)                          8
# 0x09, 0x31,                    //  Usage (Y)                          10
# 0x09, 0x32,                    //  Usage (Z)                          12
# 0x09, 0x35,                    //  Usage (Rz)                         14
# 0x09, 0x33,                    //  Usage (Rx)                         16
# 0x09, 0x34,                    //  Usage (Ry)                         18
# 0x15, 0x00,                    //  Logical Minimum (0)                20
# 0x26, 0xff, 0x00,              //  Logical Maximum (255)              22
# 0x75, 0x08,                    //  Report Size (8)                    25
# 0x95, 0x06,                    //  Report Count (6)                   27
# 0x81, 0x02,                    //  Input (Data,Var,Abs)               29
# 0x06, 0x00, 0xff,              //  Usage Page (Vendor Defined Page 1) 31
# 0x09, 0x20,                    //  Usage (Vendor Usage 0x20)          34
# 0x95, 0x01,                    //  Report Count (1)                   36
# 0x81, 0x02,                    //  Input (Data,Var,Abs)               38
# 0x05, 0x01,                    //  Usage Page (Generic Desktop)       40
# 0x09, 0x39,                    //  Usage (Hat switch)                 42
# 0x15, 0x00,                    //  Logical Minimum (0)                44
# 0x25, 0x07,                    //  Logical Maximum (7)                46
# 0x35, 0x00,                    //  Physical Minimum (0)               48
# 0x46, 0x3b, 0x01,              //  Physical Maximum (315)             50
# 0x65, 0x14,                    //  Unit (EnglishRotation: deg)        53
# 0x75, 0x04,                    //  Report Size (4)                    55
# 0x95, 0x01,                    //  Report Count (1)                   57
# 0x81, 0x42,                    //  Input (Data,Var,Abs,Null)          59
# 0x65, 0x00,                    //  Unit (None)                        61
# 0x05, 0x09,                    //  Usage Page (Button)                63
# 0x19, 0x01,                    //  Usage Minimum (1)                  65
# 0x29, 0x0f,                    //  Usage Maximum (15)                 67
# 0x15, 0x00,                    //  Logical Minimum (0)                69
# 0x25, 0x01,                    //  Logical Maximum (1)                71
# 0x75, 0x01,                    //  Report Size (1)                    73
# 0x95, 0x0f,                    //  Report Count (15)                  75
# 0x81, 0x02,                    //  Input (Data,Var,Abs)               77
# 0x06, 0x00, 0xff,              //  Usage Page (Vendor Defined Page 1) 79
# 0x09, 0x21,                    //  Usage (Vendor Usage 0x21)          82
# 0x95, 0x0d,                    //  Report Count (13)                  84
# 0x81, 0x02,                    //  Input (Data,Var,Abs)               86
# 0x06, 0x00, 0xff,              //  Usage Page (Vendor Defined Page 1) 88
# 0x09, 0x22,                    //  Usage (Vendor Usage 0x22)          91
# 0x15, 0x00,                    //  Logical Minimum (0)                93
# 0x26, 0xff, 0x00,              //  Logical Maximum (255)              95
# 0x75, 0x08,                    //  Report Size (8)                    98
# 0x95, 0x34,                    //  Report Count (52)                  100
# 0x81, 0x02,                    //  Input (Data,Var,Abs)               102
# 0x85, 0x02,                    //  Report ID (2)                      104
# 0x09, 0x23,                    //  Usage (Vendor Usage 0x23)          106
# 0x95, 0x2f,                    //  Report Count (47)                  108
# 0x91, 0x02,                    //  Output (Data,Var,Abs)              110
# 0x85, 0x05,                    //  Report ID (5)                      112
# 0x09, 0x33,                    //  Usage (Vendor Usage 0x33)          114
# 0x95, 0x28,                    //  Report Count (40)                  116
# 0xb1, 0x02,                    //  Feature (Data,Var,Abs)             118
# 0x85, 0x08,                    //  Report ID (8)                      120
# 0x09, 0x34,                    //  Usage (Vendor Usage 0x34)          122
# 0x95, 0x2f,                    //  Report Count (47)                  124
# 0xb1, 0x02,                    //  Feature (Data,Var,Abs)             126
# 0x85, 0x09,                    //  Report ID (9)                      128
# 0x09, 0x24,                    //  Usage (Vendor Usage 0x24)          130
# 0x95, 0x13,                    //  Report Count (19)                  132
# 0xb1, 0x02,                    //  Feature (Data,Var,Abs)             134
# 0x85, 0x0a,                    //  Report ID (10)                     136
# 0x09, 0x25,                    //  Usage (Vendor Usage 0x25)          138
# 0x95, 0x1a,                    //  Report Count (26)                  140
# 0xb1, 0x02,                    //  Feature (Data,Var,Abs)             142
# 0x85, 0x20,                    //  Report ID (32)                     144
# 0x09, 0x26,                    //  Usage (Vendor Usage 0x26)          146
# 0x95, 0x3f,                    //  Report Count (63)                  148
# 0xb1, 0x02,                    //  Feature (Data,Var,Abs)             150
# 0x85, 0x21,                    //  Report ID (33)                     152
# 0x09, 0x27,                    //  Usage (Vendor Usage 0x27)          154
# 0x95, 0x04,                    //  Report Count (4)                   156
# 0xb1, 0x02,                    //  Feature (Data,Var,Abs)             158
# 0x85, 0x22,                    //  Report ID (34)                     160
# 0x09, 0x40,                    //  Usage (Vendor Usage 0x40)          162
# 0x95, 0x3f,                    //  Report Count (63)                  164
# 0xb1, 0x02,                    //  Feature (Data,Var,Abs)             166
# 0x85, 0x80,                    //  Report ID (128)                    168
# 0x09, 0x28,                    //  Usage (Vendor Usage 0x28)          170
# 0x95, 0x3f,                    //  Report Count (63)                  172
# 0xb1, 0x02,                    //  Feature (Data,Var,Abs)             174
# 0x85, 0x81,                    //  Report ID (129)                    176
# 0x09, 0x29,                    //  Usage (Vendor Usage 0x29)          178
# 0x95, 0x3f,                    //  Report Count (63)                  180
# 0xb1, 0x02,                    //  Feature (Data,Var,Abs)             182
# 0x85, 0x82,                    //  Report ID (130)                    184
# 0x09, 0x2a,                    //  Usage (Vendor Usage 0x2a)          186
# 0x95, 0x09,                    //  Report Count (9)                   188
# 0xb1, 0x02,                    //  Feature (Data,Var,Abs)             190
# 0x85, 0x83,                    //  Report ID (131)                    192
# 0x09, 0x2b,                    //  Usage (Vendor Usage 0x2b)          194
# 0x95, 0x3f,                    //  Report Count (63)                  196
# 0xb1, 0x02,                    //  Feature (Data,Var,Abs)             198
# 0x85, 0x84,                    //  Report ID (132)                    200
# 0x09, 0x2c,                    //  Usage (Vendor Usage 0x2c)          202
# 0x95, 0x3f,                    //  Report Count (63)                  204
# 0xb1, 0x02,                    //  Feature (Data,Var,Abs)             206
# 0x85, 0x85,                    //  Report ID (133)                    208
# 0x09, 0x2d,                    //  Usage (Vendor Usage 0x2d)          210
# 0x95, 0x02,                    //  Report Count (2)                   212
# 0xb1, 0x02,                    //  Feature (Data,Var,Abs)             214
# 0x85, 0xa0,                    //  Report ID (160)                    216
# 0x09, 0x2e,                    //  Usage (Vendor Usage 0x2e)          218
# 0x95, 0x01,                    //  Report Count (1)                   220
# 0xb1, 0x02,                    //  Feature (Data,Var,Abs)             222
# 0x85, 0xe0,                    //  Report ID (224)                    224
# 0x09, 0x2f,                    //  Usage (Vendor Usage 0x2f)          226
# 0x95, 0x3f,                    //  Report Count (63)                  228
# 0xb1, 0x02,                    //  Feature (Data,Var,Abs)             230
# 0x85, 0xf0,                    //  Report ID (240)                    232
# 0x09, 0x30,                    //  Usage (Vendor Usage 0x30)          234
# 0x95, 0x3f,                    //  Report Count (63)                  236
# 0xb1, 0x02,                    //  Feature (Data,Var,Abs)             238
# 0x85, 0xf1,                    //  Report ID (241)                    240
# 0x09, 0x31,                    //  Usage (Vendor Usage 0x31)          242
# 0x95, 0x3f,                    //  Report Count (63)                  244
# 0xb1, 0x02,                    //  Feature (Data,Var,Abs)             246
# 0x85, 0xf2,                    //  Report ID (242)                    248
# 0x09, 0x32,                    //  Usage (Vendor Usage 0x32)          250
# 0x95, 0x0f,                    //  Report Count (15)                  252
# 0xb1, 0x02,                    //  Feature (Data,Var,Abs)             254
# 0x85, 0xf4,                    //  Report ID (244)                    256
# 0x09, 0x35,                    //  Usage (Vendor Usage 0x35)          258
# 0x95, 0x3f,                    //  Report Count (63)                  260
# 0xb1, 0x02,                    //  Feature (Data,Var,Abs)             262
# 0x85, 0xf5,                    //  Report ID (245)                    264
# 0x09, 0x36,                    //  Usage (Vendor Usage 0x36)          266
# 0x95, 0x03,                    //  Report Count (3)                   268
# 0xb1, 0x02,                    //  Feature (Data,Var,Abs)             270
# 0xc0,                          // End Collection                      272
# 
R: 273 05 01 09 05 a1 01 85 01 09 30 09 31 09 32 09 35 09 33 09 34 15 00 26 ff 00 75 08 95 06 81 02 06 00 ff 09 20 95 01 81 02 05 01 09 39 15 00 25 07 35 00 46 3b 01 65 14 75 04 95 01 81 42 65 00 05 09 19 01 29 0f 15 00 25 01 75 01 95 0f 81 02 06 00 ff 09 21 95 0d 81 02 06 00 ff 09 22 15 00 26 ff 00 75 08 95 34 81 02 85 02 09 23 95 2f 91 02 85 05 09 33 95 28 b1 02 85 08 09 34 95 2f b1 02 85 09 09 24 95 13 b1 02 85 0a 09 25 95 1a b1 02 85 20 09 26 95 3f b1 02 85 21 09 27 95 04 b1 02 85 22 09 40 95 3f b1 02 85 80 09 28 95 3f b1 02 85 81 09 29 95 3f b1 02 85 82 09 2a 95 09 b1 02 85 83 09 2b 95 3f b1 02 85 84 09 2c 95 3f b1 02 85 85 09 2d 95 02 b1 02 85 a0 09 2e 95 01 b1 02 85 e0 09 2f 95 3f b1 02 85 f0 09 30 95 3f b1 02 85 f1 09 31 95 3f b1 02 85 f2 09 32 95 0f b1 02 85 f4 09 35 95 3f b1 02 85 f5 09 36 95 03 b1 02 c0
N: Sony Interactive Entertainment DualSense Wireless Controller
I: 3 054c 0ce6
# ReportID: 1 / X:  129 | Y:  127 | Z:  128 | Rz:  129 | Rx:    0 | Ry:    0 | 0xff000020:   69 | Hat switch:   8 | Button: 0  0  0  0  0  0  0  0  0  0  0  0  0  0  0 | 0xff000021: 0 , 0 , 0 , 0 , 0 , 0 , 0 , 0 , 0 , 0 , 0 , 0 , 0 | 0xff000022:   34 ,  221 ,   41 ,  235 ,  245 ,  255 ,  238 ,  255 ,   10 ,    0 ,   42 ,    0 ,   96 ,   31 ,   50 ,    5 ,  235 ,    3 ,  251 ,  189 ,    7 ,  128 ,    0 ,    0 ,    0 ,  128 ,    0 ,    0 ,    0 ,    0 ,    9 ,    9 ,    0 ,    0 ,    0 ,    0 ,    0 ,   97 ,   25 ,  251 ,  189 ,   40 ,    8 ,    0 ,  246 ,  145 ,    6 ,  184 ,  115 ,   64 ,   67 ,  101 
E: 000000.000000 64 01 81 7f 80 81 00 00 45 08 00 00 00 22 dd 29 eb f5 ff ee ff 0a 00 2a 00 60 1f 32 05 eb 03 fb bd 07 80 00 00 00 80 00 00 00 00 09 09 00 00 00 00 00 61 19 fb bd 28 08 00 f6 91 06 b8 73 40 43 65
# ReportID: 1 / X:  129 | Y:  126 | Z:  127 | Rz:  129 | Rx:    0 | Ry:    0 | 0xff000020:   70 | Hat switch:   8 | Button: 0  0  0  0  0  0  0  0  0  0  0  0  0  0  0 | 0xff000021: 0 , 0 , 0 , 0 , 0 , 0 , 0 , 0 , 0 , 0 , 0 , 0 , 0 | 0xff000022:   35 ,  221 ,   41 ,  235 ,  246 ,  255 ,  238 ,  255 ,   11 ,    0 ,   46 ,    0 ,   98 ,   31 ,   38 ,    5 ,  222 ,   50 ,  251 ,  189 ,    7 ,  128 ,    0 ,    0 ,    0 ,  128 ,    0 ,    0 ,    0 ,    0 ,    9 ,    9 ,    0 ,    0 ,    0 ,    0 ,    0 ,   65 ,   72 ,  251 ,  189 ,   40 ,    8 ,    0 ,    0 ,   87 ,  201 ,    0 ,  157 ,  213 ,  202 ,  223 
E: 000000.003108 64 01 81 7e 7f 81 00 00 46 08 00 00 00 23 dd 29 eb f6 ff ee ff 0b 00 2e 00 62 1f 26 05 de 32 fb bd 07 80 00 00 00 80 00 00 00 00 09 09 00 00 00 00 00 41 48 fb bd 28 08 00 00 57 c9 00 9d d5 ca df
# ReportID: 1 / X:  129 | Y:  127 | Z:  128 | Rz:  129 | Rx:    0 | Ry:    0 | 0xff000020:   71 | Hat switch:   8 | Button: 0  0  0  0  0  0  0  0  0  0  0  0  0  0  0 | 0xff000021: 0 , 0 , 0 , 0 , 0 , 0 , 0 , 0 , 0 , 0 , 0 , 0 , 0 | 0xff000022:   36 ,  221 ,   41 ,  235 ,  246 ,  255 ,  238 ,  255 ,   11 ,    0 ,   46 ,    0 ,   38 ,   31 ,   46 ,    5 ,  208 ,   97 ,  251 ,  189 ,    7 ,  128 ,    0 ,    0 ,    0 ,  128 ,    0 ,    0 ,    0 ,    0 ,    9 ,    9 ,    0 ,    0 ,    0 ,    0 ,    0 ,   33 ,  119 ,  251 ,  189 ,   40 ,    8 ,    0 ,  196 ,  227 ,  220 ,   50 ,  109 ,   36 ,  179 ,   41 
E: 000000.006251 64 01 81 7f 80 81 00 00 47 08 00 00 00 24 dd 29 eb f6 ff ee ff 0b 00 2e 00 26 1f 2e 05 d0 61 fb bd 07 80 00 00 00 80 00 00 00 00 09 09 00 00 00 00 00 21 77 fb bd 28 08 00 c4 e3 dc 32 6d 24 b3 29
# ReportID: 1 / X:  129 | Y:  127 | Z:  127 | Rz:  129 | Rx:    0 | Ry:    0 | 0xff000020:   72 | Hat switch:   8 | Button: 0  0  0  0  0  0  0  0  0  0  0  0  0  0  0 | 0xff000021: 0 , 0 , 0 , 0 , 0 , 0 , 0 , 0 , 0 , 0 , 0 , 0 , 0 | 0xff000022:   37 ,  221 ,   41 ,  235 ,  248 ,  255 ,  238 ,  255 ,   11 ,    0 ,   39 ,    0 ,   40 ,   31 ,   54 ,    5 ,  229 ,  138 ,  251 ,  189 ,    7 ,  128 ,    0 ,    0 ,    0 ,  128 ,    0 ,    0 ,    0 ,    0 ,    9 ,    9 ,    0 ,    0 ,    0 ,    0 ,    0 ,    1 ,  166 ,  251 ,  189 ,   40 ,    8 ,    0 ,  109 ,   25 ,   31 ,   38 ,   46 ,  130 ,   42 ,   87 
E: 000000.009293 64 01 81 7f 7f 81 00 00 48 08 00 00 00 25 dd 29 eb f8 ff ee ff 0b 00 27 00 28 1f 36 05 e5 8a fb bd 07 80 00 00 00 80 00 00 00 00 09 09 00 00 00 00 00 01 a6 fb bd 28 08 00 6d 19 1f 26 2e 82 2a 57
# ReportID: 1 / X:  129 | Y:  127 | Z:  127 | Rz:  129 | Rx:    0 | Ry:    0 | 0xff000020:   73 | Hat switch:   8 | Button: 0  0  0  0  0  0  0  0  0  0  0  0  0  0  0 | 0xff000021: 0 , 0 , 0 , 0 , 0 , 0 , 0 , 0 , 0 , 0 , 0 , 0 , 0 | 0xff000022:   38 ,  221 ,   41 ,  235 ,  247 ,  255 ,  239 ,  255 ,   10 ,    0 ,   61 ,    0 ,  109 ,   31 ,   68 ,    5 ,  250 ,  179 ,  251 ,  189 ,    7 ,  128 ,    0 ,    0 ,    0 ,  128 ,    0 ,    0 ,    0 ,    0 ,    9 ,    9 ,    0 ,    0 ,    0 ,    0 ,    0 ,  225 ,  212 ,  251 ,  189 ,   40 ,    8 ,    0 ,  113 ,  118 ,  121 ,   41 ,  226 ,  143 ,  235 ,  184 
E: 000000.013558 64 01 81 7f 7f 81 00 00 49 08 00 00 00 26 dd 29 eb f7 ff ef ff 0a 00 3d 00 6d 1f 44 05 fa b3 fb bd 07 80 00 00 00 80 00 00 00 00 09 09 00 00 00 00 00 e1 d4 fb bd 28 08 00 71 76 79 29 e2 8f eb b8
# ReportID: 1 / X:  129 | Y:  126 | Z:  127 | Rz:  129 | Rx:    0 | Ry:    0 | 0xff000020:   74 | Hat switch:   8 | Button: 0  0  0  0  0  0  0  0  0  0  0  0  0  0  0 | 0xff000021: 0 , 0 , 0 , 0 , 0 , 0 , 0 , 0 , 0 , 0 , 0 , 0 , 0 | 0xff000022:   39 ,  221 ,   41 ,  235 ,  245 ,  255 ,  238 ,  255 ,   12 ,    0 ,   49 ,    0 ,  120 ,   31 ,   66 ,    5 ,  237 ,  226 ,  251 ,  189 ,    7 ,  128 ,    0 ,    0 ,    0 ,  128 ,    0 ,    0 ,    0 ,    0 ,    9 ,    9 ,    0 ,    0 ,    0 ,    0 ,    0 ,  193 ,    3 ,  252 ,  189 ,   40 ,    8 ,    0 ,  253 ,  233 ,   54 ,  226 ,  156 ,  208 ,  132 ,    8 
E: 000000.017839 64 01 81 7e 7f 81 00 00 4a 08 00 00 00 27 dd 29 eb f5 ff ee ff 0c 00 31 00 78 1f 42 05 ed e2 fb bd 07 80 00 00 00 80 00 00 00 00 09 09 00 00 00 00 00 c1 03 fc bd 28 08 00 fd e9 36 e2 9c d0 84 08
# ReportID: 1 / X:  129 | Y:  126 | Z:  127 | Rz:  129 | Rx:    0 | Ry:    0 | 0xff000020:   75 | Hat switch:   8 | Button: 0  0  0  0  0  0  0  0  0  0  0  0  0  0  0 | 0xff000021: 0 , 0 , 0 , 0 , 0 , 0 , 0 , 0 , 0 , 0 , 0 , 0 , 0 | 0xff000022:   40 ,  221 ,   41 ,  235 ,  246 ,  255 ,  237 ,  255 ,   11 ,    0 ,   42 ,    0 ,   85 ,   31 ,   73 ,    5 ,  224 ,   17 ,  252 ,  189 ,    7 ,  128 ,    0 ,    0 ,    0 ,  128 ,    0 ,    0 ,    0 ,    0 ,    9 ,    9 ,    0 ,    0 ,    0 ,    0 ,    0 ,  161 ,   50 ,  252 ,  189 ,   40 ,    8 ,    0 ,  171 ,   20 ,  232 ,   77 ,  138 ,  205 ,  100 ,  123 
E: 000000.022381 64 01 81 7e 7f 81 00 00 4b 08 00 00 00 28 dd 29 eb f6 ff ed ff 0b 00 2a 00 55 1f 49 05 e0 11 fc bd 07 80 00 00 00 80 00 00 00 00 09 09 00 00 00 00 00 a1 32 fc bd 28 08 00 ab 14 e8 4d 8a cd 64 7b
# ReportID: 1 / X:  129 | Y:  127 | Z:  127 | Rz:  129 | Rx:    0 | Ry:    0 | 0xff000020:   76 | Hat switch:   8 | Button: 0  0  0  0  0  0  0  0  0  0  0  0  0  0  0 | 0xff000021: 0 , 0 , 0 , 0 , 0 , 0 , 0 , 0 , 0 , 0 , 0 , 0 , 0 | 0xff000022:   41 ,  221 ,   41 ,  235 ,  247 ,  255 ,  238 ,  255 ,   11 ,    0 ,   52 ,    0 ,   94 ,   31 ,   59 ,    5 ,  211 ,   64 ,  252 ,  189 ,    7 ,  128 ,    0 ,    0 ,    0 ,  128 ,    0 ,    0 ,    0 ,    0 ,    9 ,    9 ,    0 ,    0 ,    0 ,    0 ,    0 ,  129 ,   97 ,  252 ,  189 ,   40 ,    8 ,    0 ,  254 ,  235 ,  130 ,    5 ,  104 ,  110 ,  113 ,  221 
E: 000000.025489 64 01 81 7f 7f 81 00 00 4c 08 00 00 00 29 dd 29 eb f7 ff ee ff 0b 00 34 00 5e 1f 3b 05 d3 40 fc bd 07 80 00 00 00 80 00 00 00 00 09 09 00 00 00 00 00 81 61 fc bd 28 08 00 fe eb 82 05 68 6e 71 dd
# ReportID: 1 / X:  129 | Y:  127 | Z:  127 | Rz:  129 | Rx:    0 | Ry:    0 | 0xff000020:   77 | Hat switch:   8 | Button: 0  0  0  0  0  0  0  0  0  0  0  0  0  0  0 | 0xff000021: 0 , 0 , 0 , 0 , 0 , 0 , 0 , 0 , 0 , 0 , 0 , 0 , 0 | 0xff000022:   42 ,  221 ,   41 ,  235 ,  245 ,  255 ,  238 ,  255 ,   10 ,    0 ,   52 ,    0 ,   98 ,   31 ,   67 ,    5 ,  197 ,  111 ,  252 ,  189 ,    7 ,  128 ,    0 ,    0 ,    0 ,  128 ,    0 ,    0 ,    0 ,    0 ,    9 ,    9 ,    0 ,    0 ,    0 ,    0 ,    0 ,   97 ,  144 ,  252 ,  189 ,   40 ,    8 ,    0 ,   43 ,  214 ,  148 ,   50 ,    8 ,    5 ,   17 ,  122 
E: 000000.029722 64 01 81 7f 7f 81 00 00 4d 08 00 00 00 2a dd 29 eb f5 ff ee ff 0a 00 34 00 62 1f 43 05 c5 6f fc bd 07 80 00 00 00 80 00 00 00 00 09 09 00 00 00 00 00 61 90 fc bd 28 08 00 2b d6 94 32 08 05 11 7a
# ReportID: 1 / X:  129 | Y:  127 | Z:  128 | Rz:  129 | Rx:    0 | Ry:    0 | 0xff000020:   78 | Hat switch:   8 | Button: 0  0  0  0  0  0  0  0  0  0  0  0  0  0  0 | 0xff000021: 0 , 0 , 0 , 0 , 0 , 0 , 0 , 0 , 0 , 0 , 0 , 0 , 0 | 0xff000022:   43 ,  221 ,   41 ,  235 ,  246 ,  255 ,  238 ,  255 ,   11 ,    0 ,   45 ,    0 ,   51 ,   31 ,   54 ,    5 ,  184 ,  158 ,  252 ,  189 ,    7 ,  128 ,    0 ,    0 ,    0 ,  128 ,    0 ,    0 ,    0 ,    0 ,    9 ,    9 ,    0 ,    0 ,    0 ,    0 ,    0 ,   65 ,  191 ,  252 ,  189 ,   40 ,    8 ,    0 ,   26 ,   65 ,  152 ,   70 ,   29 ,  194 ,  174 ,  211 
E: 000000.034456 64 01 81 7f 80 81 00 00 4e 08 00 00 00 2b dd 29 eb f6 ff ee ff 0b 00 2d 00 33 1f 36 05 b8 9e fc bd 07 80 00 00 00 80 00 00 00 00 09 09 00 00 00 00 00 41 bf fc bd 28 08 00 1a 41 98 46 1d c2 ae d3
# ReportID: 1 / X:  129 | Y:  127 | Z:  127 | Rz:  129 | Rx:    0 | Ry:    0 | 0xff000020:   79 | Hat switch:   8 | Button: 0  0  0  0  0  0  0  0  0  0  0  0  0  0  0 | 0xff000021: 0 , 0 , 0 , 0 , 0 , 0 , 0 , 0 , 0 , 0 , 0 , 0 , 0 | 0xff000022:   44 ,  221 ,   41 ,  235 ,  247 ,  255 ,  238 ,  255 ,   10 ,    0 ,   55 ,    0 ,   61 ,   31 ,   46 ,    5 ,  171 ,  205 ,  252 ,  189 ,    7 ,  128 ,    0 ,    0 ,    0 ,  128 ,    0 ,    0 ,    0 ,    0 ,    9 ,    9 ,    0 ,    0 ,    0 ,    0 ,    0 ,   33 ,  238 ,  252 ,  189 ,   40 ,    8 ,    0 ,   72 ,   22 ,   76 ,  115 ,  190 ,  112 ,   40 ,   24 
E: 000000.037626 64 01 81 7f 7f 81 00 00 4f 08 00 00 00 2c dd 29 eb f7 ff ee ff 0a 00 37 00 3d 1f 2e 05 ab cd fc bd 07 80 00 00 00 80 00 00 00 00 09 09 00 00 00 00 00 21 ee fc bd 28 08 00 48 16 4c 73 be 70 28 18
# ReportID: 1 / X:  129 | Y:  127 | Z:  127 | Rz:  129 | Rx:    0 | Ry:    0 | 0xff000020:   80 | Hat switch:   8 | Button: 0  0  0  0  0  0  0  0  0  0  0  0  0  0  0 | 0xff000021: 0 , 0 , 0 , 0 , 0 , 0 , 0 , 0 , 0 , 0 , 0 , 0 , 0 | 0xff000022:   45 ,  221 ,   41 ,  235 ,  247 ,  255 ,  238 ,  255 ,   10 ,    0 ,   51 ,    0 ,  108 ,   31 ,   61 ,    5 ,  158 ,  252 ,  252 ,  189 ,    7 ,  128 ,    0 ,    0 ,    0 ,  128 ,    0 ,    0 ,    0 ,    0 ,    9 ,    9 ,    0 ,    0 ,    0 ,    0 ,    0 ,    1 ,   29 ,  253 ,  189 ,   40 ,    8 ,    0 ,  105 ,  124 ,   89 ,  244 ,   58 ,  121 ,  152 ,   67 
E: 000000.041552 64 01 81 7f 7f 81 00 00 50 08 00 00 00 2d dd 29 eb f7 ff ee ff 0a 00 33 00 6c 1f 3d 05 9e fc fc bd 07 80 00 00 00 80 00 00 00 00 09 09 00 00 00 00 00 01 1d fd bd 28 08 00 69 7c 59 f4 3a 79 98 43
# ReportID: 1 / X:  129 | Y:  127 | Z:  127 | Rz:  129 | Rx:    0 | Ry:    0 | 0xff000020:   81 | Hat switch:   8 | Button: 0  0  0  0  0  0  0  0  0  0  0  0  0  0  0 | 0xff000021: 0 , 0 , 0 , 0 , 0 , 0 , 0 , 0 , 0 , 0 , 0 , 0 , 0 | 0xff000022:   46 ,  221 ,   41 ,  235 ,  247 ,  255 ,  238 ,  255 ,   11 ,    0 ,   51 ,    0 ,   94 ,   31 ,   57 ,    5 ,  145 ,   43 ,  253 ,  189 ,    7 ,  128 ,    0 ,    0 ,    0 ,  128 ,    0 ,    0 ,    0 ,    0 ,    9 ,    9 ,    0 ,    0 ,    0 ,    0 ,    0 ,  225 ,   75 ,  253 ,  189 ,   40 ,    8 ,    0 ,  232 ,  205 ,  234 ,  167 ,  201 ,   40 ,  102 ,  201 
E: 000000.045416 64 01 81 7f 7f 81 00 00 51 08 00 00 00 2e dd 29 eb f7 ff ee ff 0b 00 33 00 5e 1f 39 05 91 2b fd bd 07 80 00 00 00 80 00 00 00 00 09 09 00 00 00 00 00 e1 4b fd bd 28 08 00 e8 cd ea a7 c9 28 66 c9
# ReportID: 1 / X:  129 | Y:  127 | Z:  128 | Rz:  129 | Rx:    0 | Ry:    0 | 0xff000020:   82 | Hat switch:   8 | Button: 0  0  0  0  0  0  0  0  0  0  0  0  0  0  0 | 0xff000021: 0 , 0 , 0 , 0 , 0 , 0 , 0 , 0 , 0 , 0 , 0 , 0 , 0 | 0xff000022:   47 ,  221 ,   41 ,  235 ,  246 ,  255 ,  239 ,  255 ,   12 ,    0 ,   47 ,    0 ,   78 ,   31 ,   55 ,    5 ,  132 ,   90 ,  253 ,  189 ,    7 ,  128 ,    0 ,    0 ,    0 ,  128 ,    0 ,    0 ,    0 ,    0 ,    9 ,    9 ,    0 ,    0 ,    0 ,    0 ,    0 ,  193 ,  122 ,  253 ,  189 ,   40 ,    8 ,    0 ,  184 ,   32 ,   54 ,   50 ,    1 ,  150 ,   28 ,  175 
E: 000000.049619 64 01 81 7f 80 81 00 00 52 08 00 00 00 2f dd 29 eb f6 ff ef ff 0c 00 2f 00 4e 1f 37 05 84 5a fd bd 07 80 00 00 00 80 00 00 00 00 09 09 00 00 00 00 00 c1 7a fd bd 28 08 00 b8 20 36 32 01 96 1c af
# ReportID: 1 / X:  129 | Y:  126 | Z:  127 | Rz:  129 | Rx:    0 | Ry:    0 | 0xff000020:   83 | Hat switch:   8 | Button: 0  0  0  0  0  0  0  0  0  0  0  0  0  0  0 | 0xff000021: 0 , 0 , 0 , 0 , 0 , 0 , 0 , 0 , 0 , 0 , 0 , 0 , 0 | 0xff000022:   48 ,  221 ,   41 ,  235 ,  246 ,  255 ,  239 ,  255 ,   11 ,    0 ,   49 ,    0 ,   85 ,   31 ,   60 ,    5 ,  119 ,  137 ,  253 ,  189 ,    7 ,  128 ,    0 ,    0 ,    0 ,  128 ,    0 ,    0 ,    0 ,    0 ,    9 ,    9 ,    0 ,    0 ,    0 ,    0 ,    0 ,  161 ,  169 ,  253 ,  189 ,   40 ,    8 ,    0 ,   32 ,   18 ,   74 ,   76 ,  251 ,   48 ,  182 ,   67 
E: 000000.053464 64 01 81 7e 7f 81 00 00 53 08 00 00 00 30 dd 29 eb f6 ff ef ff 0b 00 31 00 55 1f 3c 05 77 89 fd bd 07 80 00 00 00 80 00 00 00 00 09 09 00 00 00 00 00 a1 a9 fd bd 28 08 00 20 12 4a 4c fb 30 b6 43
# ReportID: 1 / X:  129 | Y:  126 | Z:  127 | Rz:  129 | Rx:    0 | Ry:    0 | 0xff000020:   84 | Hat switch:   8 | Button: 0  0  0  0  0  0  0  0  0  0  0  0  0  0  0 | 0xff000021: 0 , 0 , 0 , 0 , 0 , 0 , 0 , 0 , 0 , 0 , 0 , 0 , 0 | 0xff000022:   49 ,  221 ,   41 ,  235 ,  247 ,  255 ,  239 ,  255 ,   11 ,    0 ,   58 ,    0 ,   63 ,   31 ,   54 ,    5 ,  106 ,  184 ,  253 ,  189 ,    7 ,  128 ,    0 ,    0 ,    0 ,  128 ,    0 ,    0 ,    0 ,    0 ,    9 ,    9 ,    0 ,    0 ,    0 ,    0 ,    0 ,  129 ,  216 ,  253 ,  189 ,   40 ,    8 ,    0 ,   54 ,   91 ,  141 ,   34 ,   10 ,   76 ,  237 ,  208 
E: 000000.057566 64 01 81 7e 7f 81 00 00 54 08 00 00 00 31 dd 29 eb f7 ff ef ff 0b 00 3a 00 3f 1f 36 05 6a b8 fd bd 07 80 00 00 00 80 00 00 00 00 09 09 00 00 00 00 00 81 d8 fd bd 28 08 00 36 5b 8d 22 0a 4c ed d0
# ReportID: 1 / X:  129 | Y:  126 | Z:  127 | Rz:  129 | Rx:    0 | Ry:    0 | 0xff000020:   85 | Hat switch:   8 | Button: 0  0  0  0  0  0  0  0  0  0  0  0  0  0  0 | 0xff000021: 0 , 0 , 0 , 0 , 0 , 0 , 0 , 0 , 0 , 0 , 0 , 0 , 0 | 0xff000022:   50 ,  221 ,   41 ,  235 ,  247 ,  255 ,  238 ,  255 ,   11 ,    0 ,   47 ,    0 ,   74 ,   31 ,   54 ,    5 ,   93 ,  231 ,  253 ,  189 ,    7 ,  128 ,    0 ,    0 ,    0 ,  128 ,    0 ,    0 ,    0 ,    0 ,    9 ,    9 ,    0 ,    0 ,    0 ,    0 ,    0 ,   97 ,    7 ,  254 ,  189 ,   40 ,    8 ,    0 ,   14 ,  253 ,   78 ,  237 ,  164 ,  206 ,  165 ,   40 
E: 000000.061434 64 01 81 7e 7f 81 00 00 55 08 00 00 00 32 dd 29 eb f7 ff ee ff 0b 00 2f 00 4a 1f 36 05 5d e7 fd bd 07 80 00 00 00 80 00 00 00 00 09 09 00 00 00 00 00 61 07 fe bd 28 08 00 0e fd 4e ed a4 ce a5 28
# ReportID: 1 / X:  129 | Y:  127 | Z:  127 | Rz:  129 | Rx:    0 | Ry:    0 | 0xff000020:   86 | Hat switch:   8 | Button: 0  0  0  0  0  0  0  0  0  0  0  0  0  0  0 | 0xff000021: 0 , 0 , 0 , 0 , 0 , 0 , 0 , 0 , 0 , 0 , 0 , 0 , 0 | 0xff000022:   51 ,  221 ,   41 ,  235 ,  246 ,  255 ,  238 ,  255 ,   11 ,    0 ,   43 ,    0 ,   98 ,   31 ,   59 ,    5 ,   80 ,   22 ,  254 ,  189 ,    7 ,  128 ,    0 ,    0 ,    0 ,  128 ,    0 ,    0 ,    0 ,    0 ,    9 ,    9 ,    0 ,    0 ,    0 ,    0 ,    0 ,   65 ,   54 ,  254 ,  189 ,   40 ,    8 ,    0 ,  203 ,  198 ,  194 ,  211 ,  200 ,  135 ,   86 ,   11 
E: 000000.067098 64 01 81 7f 7f 81 00 00 56 08 00 00 00 33 dd 29 eb f6 ff ee ff 0b 00 2b 00 62 1f 3b 05 50 16 fe bd 07 80 00 00 00 80 00 00 00 00 09 09 00 00 00 00 00 41 36 fe bd 28 08 00 cb c6 c2 d3 c8 87 56 0b
# ReportID: 1 / X:  129 | Y:  127 | Z:  128 | Rz:  129 | Rx:    0 | Ry:    0 | 0xff000020:   87 | Hat switch:   8 | Button: 0  0  0  0  0  0  0  0  0  0  0  0  0  0  0 | 0xff000021: 0 , 0 , 0 , 0 , 0 , 0 , 0 , 0 , 0 , 0 , 0 , 0 , 0 | 0xff000022:   52 ,  221 ,   41 ,  235 ,  247 ,  255 ,  237 ,  255 ,   12 ,    0 ,   40 ,    0 ,   97 ,   31 ,   62 ,    5 ,   67 ,   69 ,  254 ,  189 ,    7 ,  128 ,    0 ,    0 ,    0 ,  128 ,    0 ,    0 ,    0 ,    0 ,    9 ,    9 ,    0 ,    0 ,    0 ,    0 ,    0 ,   33 ,  101 ,  254 ,  189 ,   40 ,    8 ,    0 ,  237 ,   26 ,  116 ,   32 ,  204 ,  118 ,    9 ,  195 
E: 000000.070726 64 01 81 7f 80 81 00 00 57 08 00 00 00 34 dd 29 eb f7 ff ed ff 0c 00 28 00 61 1f 3e 05 43 45 fe bd 07 80 00 00 00 80 00 00 00 00 09 09 00 00 00 00 00 21 65 fe bd 28 08 00 ed 1a 74 20 cc 76 09 c3
# ReportID: 1 / X:  129 | Y:  127 | Z:  127 | Rz:  129 | Rx:    0 | Ry:    0 | 0xff000020:   88 | Hat switch:   8 | Button: 0  0  0  0  0  0  0  0  0  0  0  0  0  0  0 | 0xff000021: 0 , 0 , 0 , 0 , 0 , 0 , 0 , 0 , 0 , 0 , 0 , 0 , 0 | 0xff000022:   53 ,  221 ,   41 ,  235 ,  247 ,  255 ,  238 ,  255 ,   13 ,    0 ,   44 ,    0 ,   89 ,   31 ,   64 ,    5 ,   54 ,  116 ,  254 ,  189 ,    7 ,  128 ,    0 ,    0 ,    0 ,  128 ,    0 ,    0 ,    0 ,    0 ,    9 ,    9 ,    0 ,    0 ,    0 ,    0 ,    0 ,    1 ,  148 ,  254 ,  189 ,   40 ,    8 ,    0 ,    1 ,  233 ,  253 ,  152 ,   87 ,   14 ,   92 ,  118 
E: 000000.073671 64 01 81 7f 7f 81 00 00 58 08 00 00 00 35 dd 29 eb f7 ff ee ff 0d 00 2c 00 59 1f 40 05 36 74 fe bd 07 80 00 00 00 80 00 00 00 00 09 09 00 00 00 00 00 01 94 fe bd 28 08 00 01 e9 fd 98 57 0e 5c 76
# ReportID: 1 / X:  129 | Y:  127 | Z:  127 | Rz:  129 | Rx:    0 | Ry:    0 | 0xff000020:   89 | Hat switch:   8 | Button: 0  0  0  0  0  0  0  0  0  0  0  0  0  0  0 | 0xff000021: 0 , 0 , 0 , 0 , 0 , 0 , 0 , 0 , 0 , 0 , 0 , 0 , 0 | 0xff000022:   54 ,  221 ,   41 ,  235 ,  246 ,  255 ,  238 ,  255 ,   12 ,    0 ,   44 ,    0 ,   85 ,   31 ,   64 ,    5 ,   41 ,  163 ,  254 ,  189 ,    7 ,  128 ,    0 ,    0 ,    0 ,  128 ,    0 ,    0 ,    0 ,    0 ,    9 ,    9 ,    0 ,    0 ,    0 ,    0 ,    0 ,  225 ,  194 ,  254 ,  189 ,   40 ,    8 ,    0 ,  119 ,  115 ,  213 ,  126 ,  241 ,  120 ,   10 ,  146 
E: 000000.077969 64 01 81 7f 7f 81 00 00 59 08 00 00 00 36 dd 29 eb f6 ff ee ff 0c 00 2c 00 55 1f 40 05 29 a3 fe bd 07 80 00 00 00 80 00 00 00 00 09 09 00 00 00 00 00 e1 c2 fe bd 28 08 00 77 73 d5 7e f1 78 0a 92
# ReportID: 1 / X:  129 | Y:  127 | Z:  127 | Rz:  129 | Rx:    0 | Ry:    0 | 0xff000020:   90 | Hat switch:   8 | Button: 0  0  0  0  0  0  0  0  0  0  0  0  0  0  0 | 0xff000021: 0 , 0 , 0 , 0 , 0 , 0 , 0 , 0 , 0 , 0 , 0 , 0 , 0 | 0xff000022:   55 ,  221 ,   41 ,  235 ,  247 ,  255 ,  237 ,  255 ,   12 ,    0 ,   42 ,    0 ,   70 ,   31 ,   57 ,    5 ,   28 ,  210 ,  254 ,  189 ,    7 ,  128 ,    0 ,    0 ,    0 ,  128 ,    0 ,    0 ,    0 ,    0 ,    9 ,    9 ,    0 ,    0 ,    0 ,    0 ,    0 ,  193 ,  241 ,  254 ,  189 ,   40 ,    8 ,    0 ,  146 ,  133 ,   35 ,  228 ,  249 ,   52 ,  239 ,   87 
E: 000000.081477 64 01 81 7f 7f 81 00 00 5a 08 00 00 00 37 dd 29 eb f7 ff ed ff 0c 00 2a 00 46 1f 39 05 1c d2 fe bd 07 80 00 00 00 80 00 00 00 00 09 09 00 00 00 00 00 c1 f1 fe bd 28 08 00 92 85 23 e4 f9 34 ef 57
# ReportID: 1 / X:  129 | Y:  127 | Z:  128 | Rz:  129 | Rx:    0 | Ry:    0 | 0xff000020:   91 | Hat switch:   8 | Button: 0  0  0  0  0  0  0  0  0  0  0  0  0  0  0 | 0xff000021: 0 , 0 , 0 , 0 , 0 , 0 , 0 , 0 , 0 , 0 , 0 , 0 , 0 | 0xff000022:   56 ,  221 ,   41 ,  235 ,  247 ,  255 ,  237 ,  255 ,   11 ,    0 ,   41 ,    0 ,   73 ,   31 ,   56 ,    5 ,   15 ,    1 ,  255 ,  189 ,    7 ,  128 ,    0 ,    0 ,    0 ,  128 ,    0 ,    0 ,    0 ,    0 ,    9 ,    9 ,    0 ,    0 ,    0 ,    0 ,    0 ,  161 ,   32 ,  255 ,  189 ,   40 ,    8 ,    0 ,  129 ,   74 ,  175 ,   65 ,  135 ,   94 ,  117 ,   60 
E: 000000.085378 64 01 81 7f 80 81 00 00 5b 08 00 00 00 38 dd 29 eb f7 ff ed ff 0b 00 29 00 49 1f 38 05 0f 01 ff bd 07 80 00 00 00 80 00 00 00 00 09 09 00 00 00 00 00 a1 20 ff bd 28 08 00 81 4a af 41 87 5e 75 3c
# ReportID: 1 / X:  129 | Y:  127 | Z:  127 | Rz:  129 | Rx:    0 | Ry:    0 | 0xff000020:   92 | Hat switch:   8 | Button: 0  0  0  0  0  0  0  0  0  0  0  0  0  0  0 | 0xff000021: 0 , 0 , 0 , 0 , 0 , 0 , 0 , 0 , 0 , 0 , 0 , 0 , 0 | 0xff000022:   57 ,  221 ,   41 ,  235 ,  247 ,  255 ,  238 ,  255 ,   11 ,    0 ,   43 ,    0 ,   86 ,   31 ,   64 ,    5 ,    2 ,   48 ,  255 ,  189 ,    7 ,  128 ,    0 ,    0 ,    0 ,  128 ,    0 ,    0 ,    0 ,    0 ,    9 ,    9 ,    0 ,    0 ,    0 ,    0 ,    0 ,  129 ,   79 ,  255 ,  189 ,   40 ,    8 ,    0 ,  116 ,  105 ,   51 ,  209 ,   96 ,  158 ,   54 ,  189 
E: 000000.091022 64 01 81 7f 7f 81 00 00 5c 08 00 00 00 39 dd 29 eb f7 ff ee ff 0b 00 2b 00 56 1f 40 05 02 30 ff bd 07 80 00 00 00 80 00 00 00 00 09 09 00 00 00 00 00 81 4f ff bd 28 08 00 74 69 33 d1 60 9e 36 bd
# ReportID: 1 / X:  129 | Y:  127 | Z:  127 | Rz:  129 | Rx:    0 | Ry:    0 | 0xff000020:   93 | Hat switch:   8 | Button: 0  0  0  0  0  0  0  0  0  0  0  0  0  0  0 | 0xff000021: 0 , 0 , 0 , 0 , 0 , 0 , 0 , 0 , 0 , 0 , 0 , 0 , 0 | 0xff000022:   58 ,  221 ,   41 ,  235 ,  248 ,  255 ,  238 ,  255 ,   10 ,    0 ,   49 ,    0 ,   87 ,   31 ,   60 ,    5 ,  245 ,   94 ,  255 ,  189 ,    7 ,  128 ,    0 ,    0 ,    0 ,  128 ,    0 ,    0 ,    0 ,    0 ,    9 ,    9 ,    0 ,    0 ,    0 ,    0 ,    0 ,   97 ,  126 ,  255 ,  189 ,   40 ,    8 ,    0 ,  106 ,   48 ,  108 ,  206 ,   96 ,  149 ,  109 ,   82 
E: 000000.094034 64 01 81 7f 7f 81 00 00 5d 08 00 00 00 3a dd 29 eb f8 ff ee ff 0a 00 31 00 57 1f 3c 05 f5 5e ff bd 07 80 00 00 00 80 00 00 00 00 09 09 00 00 00 00 00 61 7e ff bd 28 08 00 6a 30 6c ce 60 95 6d 52
# ReportID: 1 / X:  129 | Y:  127 | Z:  127 | Rz:  129 | Rx:    0 | Ry:    0 | 0xff000020:   94 | Hat switch:   8 | Button: 0  0  0  0  0  0  0  0  0  0  0  0  0  0  0 | 0xff000021: 0 , 0 , 0 , 0 , 0 , 0 , 0 , 0 , 0 , 0 , 0 , 0 , 0 | 0xff000022:   59 ,  221 ,   41 ,  235 ,  246 ,  255 ,  238 ,  255 ,   11 ,    0 ,   54 ,    0 ,   75 ,   31 ,   62 ,    5 ,  232 ,  141 ,  255 ,  189 ,    7 ,  128 ,    0 ,    0 ,    0 ,  128 ,    0 ,    0 ,    0 ,    0 ,    9 ,    9 ,    0 ,    0 ,    0 ,    0 ,    0 ,   65 ,  173 ,  255 ,  189 ,   40 ,    8 ,    0 ,  220 ,  252 ,  190 ,   97 ,  124 ,   38 ,   56 ,  160 
E: 000000.097655 64 01 81 7f 7f 81 00 00 5e 08 00 00 00 3b dd 29 eb f6 ff ee ff 0b 00 36 00 4b 1f 3e 05 e8 8d ff bd 07 80 00 00 00 80 00 00 00 00 09 09 00 00 00 00 00 41 ad ff bd 28 08 00 dc fc be 61 7c 26 38 a0
# ReportID: 1 / X:  129 | Y:  127 | Z:  127 | Rz:  129 | Rx:    0 | Ry:    0 | 0xff000020:   95 | Hat switch:   8 | Button: 0  0  0  0  0  0  0  0  0  0  0  0  0  0  0 | 0xff000021: 0 , 0 , 0 , 0 , 0 , 0 , 0 , 0 , 0 , 0 , 0 , 0 , 0 | 0xff000022:   60 ,  221 ,   41 ,  235 ,  247 ,  255 ,  239 ,  255 ,   10 ,    0 ,   46 ,    0 ,   81 ,   31 ,   61 ,    5 ,  219 ,  188 ,  255 ,  189 ,    7 ,  128 ,    0 ,    0 ,    0 ,  128 ,    0 ,    0 ,    0 ,    0 ,    9 ,    9 ,    0 ,    0 ,    0 ,    0 ,    0 ,   33 ,  220 ,  255 ,  189 ,   40 ,    8 ,    0 ,   61 ,  220 ,   53 ,  238 ,  206 ,  154 ,  163 ,  229 
E: 000000.101388 64 01 81 7f 7f 81 00 00 5f 08 00 00 00 3c dd 29 eb f7 ff ef ff 0a 00 2e 00 51 1f 3d 05 db bc ff bd 07 80 00 00 00 80 00 00 00 00 09 09 00 00 00 00 00 21 dc ff bd 28 08 00 3d dc 35 ee ce 9a a3 e5
# ReportID: 1 / X:  129 | Y:  127 | Z:  127 | Rz:  129 | Rx:    0 | Ry:    0 | 0xff000020:   96 | Hat switch:   8 | Button: 0  0  0  0  0  0  0  0  0  0  0  0  0  0  0 | 0xff000021: 0 , 0 , 0 , 0 , 0 , 0 , 0 , 0 , 0 , 0 , 0 , 0 , 0 | 0xff000022:   61 ,  221 ,   41 ,  235 ,  246 ,  255 ,  239 ,  255 ,   11 ,    0 ,   57 ,    0 ,   79 ,   31 ,   69 ,    5 ,  206 ,  235 ,  255 ,  189 ,    7 ,  128 ,    0 ,    0 ,    0 ,  128 ,    0 ,    0 ,    0 ,    0 ,    9 ,    9 ,    0 ,    0 ,    0 ,    0 ,    0 ,    1 ,   11 ,    0 ,  190 ,   40 ,    8 ,    0 ,  176 ,   34 ,   50 ,    0 ,   70 ,   11 ,   18 ,   97 
E: 000000.107165 64 01 81 7f 7f 81 00 00 60 08 00 00 00 3d dd 29 eb f6 ff ef ff 0b 00 39 00 4f 1f 45 05 ce eb ff bd 07 80 00 00 00 80 00 00 00 00 09 09 00 00 00 00 00 01 0b 00 be 28 08 00 b0 22 32 00 46 0b 12 61
# ReportID: 1 / X:  129 | Y:  127 | Z:  127 | Rz:  129 | Rx:    0 | Ry:    0 | 0xff000020:   97 | Hat switch:   8 | Button: 0  0  0  0  0  0  0  0  0  0  0  0  0  0  0 | 0xff000021: 0 , 0 , 0 , 0 , 0 , 0 , 0 , 0 , 0 , 0 , 0 , 0 , 0 | 0xff000022:   62 ,  221 ,   41 ,  235 ,  246 ,  255 ,  239 ,  255 ,   11 ,    0 ,   57 ,    0 ,   87 ,   31 ,   61 ,    5 ,  193 ,   26 ,    0 ,  190 ,    7 ,  128 ,    0 ,    0 ,    0 ,  128 ,    0 ,    0 ,    0 ,    0 ,    9 ,    9 ,    0 ,    0 ,    0 ,    0 ,    0 ,  225 ,   57 ,    0 ,  190 ,   40 ,    8 ,    0 ,  231 ,    4 ,  151 ,   91 ,  254 ,   62 ,  142 ,  222 
E: 000000.110957 64 01 81 7f 7f 81 00 00 61 08 00 00 00 3e dd 29 eb f6 ff ef ff 0b 00 39 00 57 1f 3d 05 c1 1a 00 be 07 80 00 00 00 80 00 00 00 00 09 09 00 00 00 00 00 e1 39 00 be 28 08 00 e7 04 97 5b fe 3e 8e de
# ReportID: 1 / X:  129 | Y:  127 | Z:  127 | Rz:  129 | Rx:    0 | Ry:    0 | 0xff000020:   98 | Hat switch:   8 | Button: 0  0  0  0  0  0  0  0  0  0  0  0  0  0  0 | 0xff000021: 0 , 0 , 0 , 0 , 0 , 0 , 0 , 0 , 0 , 0 , 0 , 0 , 0 | 0xff000022:   63 ,  221 ,   41 ,  235 ,  247 ,  255 ,  238 ,  255 ,   12 ,    0 ,   61 ,    0 ,   75 ,   31 ,   57 ,    5 ,  180 ,   73 ,    0 ,  190 ,    7 ,  128 ,    0 ,    0 ,    0 ,  128 ,    0 ,    0 ,    0 ,    0 ,    9 ,    9 ,    0 ,    0 ,    0 ,    0 ,    0 ,  193 ,  104 ,    0 ,  190 ,   40 ,    8 ,    0 ,  112 ,  221 ,  165 ,  204 ,  135 ,   13 ,  205 ,  234 
E: 000000.114040 64 01 81 7f 7f 81 00 00 62 08 00 00 00 3f dd 29 eb f7 ff ee ff 0c 00 3d 00 4b 1f 39 05 b4 49 00 be 07 80 00 00 00 80 00 00 00 00 09 09 00 00 00 00 00 c1 68 00 be 28 08 00 70 dd a5 cc 87 0d cd ea
# ReportID: 1 / X:  129 | Y:  126 | Z:  128 | Rz:  129 | Rx:    0 | Ry:    0 | 0xff000020:   99 | Hat switch:   8 | Button: 0  0  0  0  0  0  0  0  0  0  0  0  0  0  0 | 0xff000021: 0 , 0 , 0 , 0 , 0 , 0 , 0 , 0 , 0 , 0 , 0 , 0 , 0 | 0xff000022:   64 ,  221 ,   41 ,  235 ,  247 ,  255 ,  238 ,  255 ,   10 ,    0 ,   64 ,    0 ,   90 ,   31 ,   56 ,    5 ,  167 ,  120 ,    0 ,  190 ,    7 ,  128 ,    0 ,    0 ,    0 ,  128 ,    0 ,    0 ,    0 ,    0 ,    9 ,    9 ,    0 ,    0 ,    0 ,    0 ,    0 ,  161 ,  151 ,    0 ,  190 ,   40 ,    8 ,    0 ,   14 ,   68 ,  127 ,  170 ,    7 ,  240 ,  241 ,  111 
E: 000000.117756 64 01 81 7e 80 81 00 00 63 08 00 00 00 40 dd 29 eb f7 ff ee ff 0a 00 40 00 5a 1f 38 05 a7 78 00 be 07 80 00 00 00 80 00 00 00 00 09 09 00 00 00 00 00 a1 97 00 be 28 08 00 0e 44 7f aa 07 f0 f1 6f
# ReportID: 1 / X:  129 | Y:  127 | Z:  127 | Rz:  129 | Rx:    0 | Ry:    0 | 0xff000020:  100 | Hat switch:   8 | Button: 0  0  0  0  0  0  0  0  0  0  0  0  0  0  0 | 0xff000021: 0 , 0 , 0 , 0 , 0 , 0 , 0 , 0 , 0 , 0 , 0 , 0 , 0 | 0xff000022:   65 ,  221 ,   41 ,  235 ,  247 ,  255 ,  238 ,  255 ,   11 ,    0 ,   56 ,    0 ,   83 ,   31 ,   52 ,    5 ,  154 ,  167 ,    0 ,  190 ,    7 ,  128 ,    0 ,    0 ,    0 ,  128 ,    0 ,    0 ,    0 ,    0 ,    9 ,    9 ,    0 ,    0 ,    0 ,    0 ,    0 ,  132 ,  198 ,    0 ,  190 ,   40 ,    8 ,    0 ,  120 ,  252 ,  189 ,  122 ,   21 ,  188 ,  232 ,  106 
E: 000000.122287 64 01 81 7f 7f 81 00 00 64 08 00 00 00 41 dd 29 eb f7 ff ee ff 0b 00 38 00 53 1f 34 05 9a a7 00 be 07 80 00 00 00 80 00 00 00 00 09 09 00 00 00 00 00 84 c6 00 be 28 08 00 78 fc bd 7a 15 bc e8 6a
# ReportID: 1 / X:  129 | Y:  127 | Z:  127 | Rz:  129 | Rx:    0 | Ry:    0 | 0xff000020:  101 | Hat switch:   8 | Button: 0  0  0  0  0  0  0  0  0  0  0  0  0  0  0 | 0xff000021: 0 , 0 , 0 , 0 , 0 , 0 , 0 , 0 , 0 , 0 , 0 , 0 , 0 | 0xff000022:   66 ,  221 ,   41 ,  235 ,  248 ,  255 ,  238 ,  255 ,   11 ,    0 ,   58 ,    0 ,   88 ,   31 ,   50 ,    5 ,  141 ,  214 ,    0 ,  190 ,    7 ,  128 ,    0 ,    0 ,    0 ,  128 ,    0 ,    0 ,    0 ,    0 ,    9 ,    9 ,    0 ,    0 ,    0 ,    0 ,    0 ,   97 ,  245 ,    0 ,  190 ,   40 ,    8 ,    0 ,  220 ,  150 ,  131 ,   96 ,  163 ,  254 ,  244 ,  208 
E: 000000.127019 64 01 81 7f 7f 81 00 00 65 08 00 00 00 42 dd 29 eb f8 ff ee ff 0b 00 3a 00 58 1f 32 05 8d d6 00 be 07 80 00 00 00 80 00 00 00 00 09 09 00 00 00 00 00 61 f5 00 be 28 08 00 dc 96 83 60 a3 fe f4 d0
# ReportID: 1 / X:  129 | Y:  127 | Z:  127 | Rz:  129 | Rx:    0 | Ry:    0 | 0xff000020:  102 | Hat switch:   8 | Button: 0  0  0  0  0  0  0  0  0  0  0  0  0  0  0 | 0xff000021: 0 , 0 , 0 , 0 , 0 , 0 , 0 , 0 , 0 , 0 , 0 , 0 , 0 | 0xff000022:   67 ,  221 ,   41 ,  235 ,  247 ,  255 ,  239 ,  255 ,   11 ,    0 ,   56 ,    0 ,   79 ,   31 ,   55 ,    5 ,  127 ,    5 ,    1 ,  190 ,    7 ,  128 ,    0 ,    0 ,    0 ,  128 ,    0 ,    0 ,    0 ,    0 ,    9 ,    9 ,    0 ,    0 ,    0 ,    0 ,    0 ,   65 ,   36 ,    1 ,  190 ,   40 ,    8 ,    0 ,  182 ,   15 ,  163 ,   45 ,  251 ,  181 ,  172 ,   42 
E: 000000.130489 64 01 81 7f 7f 81 00 00 66 08 00 00 00 43 dd 29 eb f7 ff ef ff 0b 00 38 00 4f 1f 37 05 7f 05 01 be 07 80 00 00 00 80 00 00 00 00 09 09 00 00 00 00 00 41 24 01 be 28 08 00 b6 0f a3 2d fb b5 ac 2a
# ReportID: 1 / X:  129 | Y:  127 | Z:  127 | Rz:  129 | Rx:    0 | Ry:    0 | 0xff000020:  103 | Hat switch:   8 | Button: 0  0  0  0  0  0  0  0  0  0  0  0  0  0  0 | 0xff000021: 0 , 0 , 0 , 0 , 0 , 0 , 0 , 0 , 0 , 0 , 0 , 0 , 0 | 0xff000022:   68 ,  221 ,   41 ,  235 ,  246 ,  255 ,  238 ,  255 ,   11 ,    0 ,   58 ,    0 ,   84 ,   31 ,   43 ,    5 ,  114 ,   52 ,    1 ,  190 ,    7 ,  128 ,    0 ,    0 ,    0 ,  128 ,    0 ,    0 ,    0 ,    0 ,    9 ,    9 ,    0 ,    0 ,    0 ,    0 ,    0 ,   33 ,   83 ,    1 ,  190 ,   40 ,    8 ,    0 ,  137 ,  178 ,  243 ,  253 ,   93 ,  176 ,  135 ,   19 
E: 000000.134241 64 01 81 7f 7f 81 00 00 67 08 00 00 00 44 dd 29 eb f6 ff ee ff 0b 00 3a 00 54 1f 2b 05 72 34 01 be 07 80 00 00 00 80 00 00 00 00 09 09 00 00 00 00 00 21 53 01 be 28 08 00 89 b2 f3 fd 5d b0 87 13
# ReportID: 1 / X:  129 | Y:  127 | Z:  127 | Rz:  129 | Rx:    0 | Ry:    0 | 0xff000020:  104 | Hat switch:   8 | Button: 0  0  0  0  0  0  0  0  0  0  0  0  0  0  0 | 0xff000021: 0 , 0 , 0 , 0 , 0 , 0 , 0 , 0 , 0 , 0 , 0 , 0 , 0 | 0xff000022:   69 ,  221 ,   41 ,  235 ,  248 ,  255 ,  238 ,  255 ,   11 ,    0 ,   47 ,    0 ,   79 ,   31 ,   48 ,    5 ,  101 ,   99 ,    1 ,  190 ,    7 ,  128 ,    0 ,    0 ,    0 ,  128 ,    0 ,    0 ,    0 ,    0 ,    9 ,    9 ,    0 ,    0 ,    0 ,    0 ,    0 ,    1 ,  130 ,    1 ,  190 ,   40 ,    8 ,    0 ,   42 ,  140 ,   86 ,  196 ,   46 ,  183 ,   86 ,  142 
E: 000000.137608 64 01 81 7f 7f 81 00 00 68 08 00 00 00 45 dd 29 eb f8 ff ee ff 0b 00 2f 00 4f 1f 30 05 65 63 01 be 07 80 00 00 00 80 00 00 00 00 09 09 00 00 00 00 00 01 82 01 be 28 08 00 2a 8c 56 c4 2e b7 56 8e
# ReportID: 1 / X:  129 | Y:  126 | Z:  127 | Rz:  129 | Rx:    0 | Ry:    0 | 0xff000020:  105 | Hat switch:   8 | Button: 0  0  0  0  0  0  0  0  0  0  0  0  0  0  0 | 0xff000021: 0 , 0 , 0 , 0 , 0 , 0 , 0 , 0 , 0 , 0 , 0 , 0 , 0 | 0xff000022:   70 ,  221 ,   41 ,  235 ,  249 ,  255 ,  238 ,  255 ,   11 ,    0 ,   53 ,    0 ,   85 ,   31 ,   45 ,    5 ,   88 ,  146 ,    1 ,  190 ,    7 ,  128 ,    0 ,    0 ,    0 ,  128 ,    0 ,    0 ,    0 ,    0 ,    9 ,    9 ,    0 ,    0 ,    0 ,    0 ,    0 ,  225 ,  176 ,    1 ,  190 ,   40 ,    8 ,    0 ,  136 ,   90 ,  202 ,  242 ,  196 ,   96 ,  102 ,  130 
E: 000000.141451 64 01 81 7e 7f 81 00 00 69 08 00 00 00 46 dd 29 eb f9 ff ee ff 0b 00 35 00 55 1f 2d 05 58 92 01 be 07 80 00 00 00 80 00 00 00 00 09 09 00 00 00 00 00 e1 b0 01 be 28 08 00 88 5a ca f2 c4 60 66 82
# ReportID: 1 / X:  129 | Y:  127 | Z:  128 | Rz:  129 | Rx:    0 | Ry:    0 | 0xff000020:  106 | Hat switch:   8 | Button: 0  0  0  0  0  0  0  0  0  0  0  0  0  0  0 | 0xff000021: 0 , 0 , 0 , 0 , 0 , 0 , 0 , 0 , 0 , 0 , 0 , 0 , 0 | 0xff000022:   71 ,  221 ,   41 ,  235 ,  248 ,  255 ,  239 ,  255 ,   12 ,    0 ,   55 ,    0 ,  120 ,   31 ,   45 ,    5 ,   75 ,  193 ,    1 ,  190 ,    7 ,  128 ,    0 ,    0 ,    0 ,  128 ,    0 ,    0 ,    0 ,    0 ,    9 ,    9 ,    0 ,    0 ,    0 ,    0 ,    0 ,  193 ,  223 ,    1 ,  190 ,   40 ,    8 ,    0 ,  159 ,  243 ,    3 ,  138 ,   83 ,  127 ,  174 ,  241 
E: 000000.145923 64 01 81 7f 80 81 00 00 6a 08 00 00 00 47 dd 29 eb f8 ff ef ff 0c 00 37 00 78 1f 2d 05 4b c1 01 be 07 80 00 00 00 80 00 00 00 00 09 09 00 00 00 00 00 c1 df 01 be 28 08 00 9f f3 03 8a 53 7f ae f1
# ReportID: 1 / X:  129 | Y:  127 | Z:  127 | Rz:  129 | Rx:    0 | Ry:    0 | 0xff000020:  107 | Hat switch:   8 | Button: 0  0  0  0  0  0  0  0  0  0  0  0  0  0  0 | 0xff000021: 0 , 0 , 0 , 0 , 0 , 0 , 0 , 0 , 0 , 0 , 0 , 0 , 0 | 0xff000022:   72 ,  221 ,   41 ,  235 ,  245 ,  255 ,  239 ,  255 ,   11 ,    0 ,   49 ,    0 ,  111 ,   31 ,   37 ,    5 ,   62 ,  240 ,    1 ,  190 ,    7 ,  128 ,    0 ,    0 ,    0 ,  128 ,    0 ,    0 ,    0 ,    0 ,    9 ,    9 ,    0 ,    0 ,    0 ,    0 ,    0 ,  161 ,   14 ,    2 ,  190 ,   40 ,    8 ,    0 ,   52 ,  135 ,   86 ,   86 ,   27 ,  126 ,   25 ,   14 
E: 000000.149719 64 01 81 7f 7f 81 00 00 6b 08 00 00 00 48 dd 29 eb f5 ff ef ff 0b 00 31 00 6f 1f 25 05 3e f0 01 be 07 80 00 00 00 80 00 00 00 00 09 09 00 00 00 00 00 a1 0e 02 be 28 08 00 34 87 56 56 1b 7e 19 0e
# ReportID: 1 / X:  129 | Y:  127 | Z:  127 | Rz:  129 | Rx:    0 | Ry:    0 | 0xff000020:  108 | Hat switch:   8 | Button: 0  0  0  0  0  0  0  0  0  0  0  0  0  0  0 | 0xff000021: 0 , 0 , 0 , 0 , 0 , 0 , 0 , 0 , 0 , 0 , 0 , 0 , 0 | 0xff000022:   73 ,  221 ,   41 ,  235 ,  245 ,  255 ,  239 ,  255 ,   11 ,    0 ,   43 ,    0 ,   68 ,   31 ,   46 ,    5 ,   49 ,   31 ,    2 ,  190 ,    7 ,  128 ,    0 ,    0 ,    0 ,  128 ,    0 ,    0 ,    0 ,    0 ,    9 ,    9 ,    0 ,    0 ,    0 ,    0 ,    0 ,  129 ,   61 ,    2 ,  190 ,   40 ,    8 ,    0 ,   80 ,  176 ,  183 ,  237 ,  125 ,  119 ,  138 ,    6 
E: 000000.153446 64 01 81 7f 7f 81 00 00 6c 08 00 00 00 49 dd 29 eb f5 ff ef ff 0b 00 2b 00 44 1f 2e 05 31 1f 02 be 07 80 00 00 00 80 00 00 00 00 09 09 00 00 00 00 00 81 3d 02 be 28 08 00 50 b0 b7 ed 7d 77 8a 06
# ReportID: 1 / X:  129 | Y:  127 | Z:  127 | Rz:  129 | Rx:    0 | Ry:    0 | 0xff000020:  109 | Hat switch:   8 | Button: 0  0  0  0  0  0  0  0  0  0  0  0  0  0  0 | 0xff000021: 0 , 0 , 0 , 0 , 0 , 0 , 0 , 0 , 0 , 0 , 0 , 0 , 0 | 0xff000022:   74 ,  221 ,   41 ,  235 ,  246 ,  255 ,  238 ,  255 ,   11 ,    0 ,   52 ,    0 ,   81 ,   31 ,   35 ,    5 ,   36 ,   78 ,    2 ,  190 ,    7 ,  128 ,    0 ,    0 ,    0 ,  128 ,    0 ,    0 ,    0 ,    0 ,    9 ,    9 ,    0 ,    0 ,    0 ,    0 ,    0 ,   97 ,  108 ,    2 ,  190 ,   40 ,    8 ,    0 ,  132 ,  231 ,  155 ,  120 ,   73 ,  131 ,  158 ,   23 
E: 000000.157639 64 01 81 7f 7f 81 00 00 6d 08 00 00 00 4a dd 29 eb f6 ff ee ff 0b 00 34 00 51 1f 23 05 24 4e 02 be 07 80 00 00 00 80 00 00 00 00 09 09 00 00 00 00 00 61 6c 02 be 28 08 00 84 e7 9b 78 49 83 9e 17
# ReportID: 1 / X:  129 | Y:  127 | Z:  127 | Rz:  129 | Rx:    0 | Ry:    0 | 0xff000020:  110 | Hat switch:   8 | Button: 0  0  0  0  0  0  0  0  0  0  0  0  0  0  0 | 0xff000021: 0 , 0 , 0 , 0 , 0 , 0 , 0 , 0 , 0 , 0 , 0 , 0 , 0 | 0xff000022:   75 ,  221 ,   41 ,  235 ,  246 ,  255 ,  237 ,  255 ,   11 ,    0 ,   49 ,    0 ,   79 ,   31 ,   54 ,    5 ,   23 ,  125 ,    2 ,  190 ,    7 ,  128 ,    0 ,    0 ,    0 ,  128 ,    0 ,    0 ,    0 ,    0 ,    9 ,    9 ,    0 ,    0 ,    0 ,    0 ,    0 ,   65 ,  155 ,    2 ,  190 ,   40 ,    8 ,    0 ,  134 ,  144 ,   65 ,   60 ,   69 ,    6 ,   72 ,   13 
E: 000000.161434 64 01 81 7f 7f 81 00 00 6e 08 00 00 00 4b dd 29 eb f6 ff ed ff 0b 00 31 00 4f 1f 36 05 17 7d 02 be 07 80 00 00 00 80 00 00 00 00 09 09 00 00 00 00 00 41 9b 02 be 28 08 00 86 90 41 3c 45 06 48 0d
# ReportID: 1 / X:  129 | Y:  127 | Z:  127 | Rz:  129 | Rx:    0 | Ry:    0 | 0xff000020:  111 | Hat switch:   8 | Button: 0  0  0  0  0  0  0  0  0  0  0  0  0  0  0 | 0xff000021: 0 , 0 , 0 , 0 , 0 , 0 , 0 , 0 , 0 , 0 , 0 , 0 , 0 | 0xff000022:   76 ,  221 ,   41 ,  235 ,  247 ,  255 ,  238 ,  255 ,   10 ,    0 ,   42 ,    0 ,   78 ,   31 ,   49 ,    5 ,   10 ,  172 ,    2 ,  190 ,    7 ,  128 ,    0 ,    0 ,    0 ,  128 ,    0 ,    0 ,    0 ,    0 ,    9 ,    9 ,    0 ,    0 ,    0 ,    0 ,    0 ,   33 ,  202 ,    2 ,  190 ,   40 ,    8 ,    0 ,  247 ,   70 ,  175 ,  192 ,   46 ,  180 ,    8 ,   93 
E: 000000.165392 64 01 81 7f 7f 81 00 00 6f 08 00 00 00 4c dd 29 eb f7 ff ee ff 0a 00 2a 00 4e 1f 31 05 0a ac 02 be 07 80 00 00 00 80 00 00 00 00 09 09 00 00 00 00 00 21 ca 02 be 28 08 00 f7 46 af c0 2e b4 08 5d
# ReportID: 1 / X:  129 | Y:  127 | Z:  127 | Rz:  129 | Rx:    0 | Ry:    0 | 0xff000020:  112 | Hat switch:   8 | Button: 0  0  0  0  0  0  0  0  0  0  0  0  0  0  0 | 0xff000021: 0 , 0 , 0 , 0 , 0 , 0 , 0 , 0 , 0 , 0 , 0 , 0 , 0 | 0xff000022:   77 ,  221 ,   41 ,  235 ,  247 ,  255 ,  239 ,  255 ,   11 ,    0 ,   43 ,    0 ,   90 ,   31 ,   57 ,    5 ,  254 ,  218 ,    2 ,  190 ,    7 ,  128 ,    0 ,    0 ,    0 ,  128 ,    0 ,    0 ,    0 ,    0 ,    9 ,    9 ,    0 ,    0 ,    0 ,    0 ,    0 ,    1 ,  249 ,    2 ,  190 ,   40 ,    8 ,    0 ,   74 ,   78 ,   42 ,  177 ,   15 ,  167 ,  107 ,   78 
E: 000000.171179 64 01 81 7f 7f 81 00 00 70 08 00 00 00 4d dd 29 eb f7 ff ef ff 0b 00 2b 00 5a 1f 39 05 fe da 02 be 07 80 00 00 00 80 00 00 00 00 09 09 00 00 00 00 00 01 f9 02 be 28 08 00 4a 4e 2a b1 0f a7 6b 4e
# ReportID: 1 / X:  129 | Y:  127 | Z:  127 | Rz:  129 | Rx:    0 | Ry:    0 | 0xff000020:  113 | Hat switch:   8 | Button: 0  0  0  0  0  0  0  0  0  0  0  0  0  0  0 | 0xff000021: 0 , 0 , 0 , 0 , 0 , 0 , 0 , 0 , 0 , 0 , 0 , 0 , 0 | 0xff000022:   78 ,  221 ,   41 ,  235 ,  245 ,  255 ,  238 ,  255 ,   11 ,    0 ,   55 ,    0 ,  102 ,   31 ,   49 ,    5 ,  241 ,    9 ,    3 ,  190 ,    7 ,  128 ,    0 ,    0 ,    0 ,  128 ,    0 ,    0 ,    0 ,    0 ,    9 ,    9 ,    0 ,    0 ,    0 ,    0 ,    0 ,  225 ,   39 ,    3 ,  190 ,   40 ,    8 ,    0 ,  238 ,  115 ,   93 ,   85 ,   63 ,  233 ,  145 ,   73 
E: 000000.174476 64 01 81 7f 7f 81 00 00 71 08 00 00 00 4e dd 29 eb f5 ff ee ff 0b 00 37 00 66 1f 31 05 f1 09 03 be 07 80 00 00 00 80 00 00 00 00 09 09 00 00 00 00 00 e1 27 03 be 28 08 00 ee 73 5d 55 3f e9 91 49
# ReportID: 1 / X:  129 | Y:  127 | Z:  128 | Rz:  129 | Rx:    0 | Ry:    0 | 0xff000020:  114 | Hat switch:   8 | Button: 0  0  0  0  0  0  0  0  0  0  0  0  0  0  0 | 0xff000021: 0 , 0 , 0 , 0 , 0 , 0 , 0 , 0 , 0 , 0 , 0 , 0 , 0 | 0xff000022:   79 ,  221 ,   41 ,  235 ,  246 ,  255 ,  238 ,  255 ,   11 ,    0 ,   51 ,    0 ,   89 ,   31 ,   58 ,    5 ,  227 ,   56 ,    3 ,  190 ,    7 ,  128 ,    0 ,    0 ,    0 ,  128 ,    0 ,    0 ,    0 ,    0 ,    9 ,    9 ,    0 ,    0 ,    0 ,    0 ,    0 ,  193 ,   86 ,    3 ,  190 ,   40 ,    8 ,    0 ,   17 ,   85 ,   23 ,   17 ,  147 ,  137 ,   24 ,  183 
E: 000000.177932 64 01 81 7f 80 81 00 00 72 08 00 00 00 4f dd 29 eb f6 ff ee ff 0b 00 33 00 59 1f 3a 05 e3 38 03 be 07 80 00 00 00 80 00 00 00 00 09 09 00 00 00 00 00 c1 56 03 be 28 08 00 11 55 17 11 93 89 18 b7
# ReportID: 1 / X:  129 | Y:  127 | Z:  127 | Rz:  129 | Rx:    0 | Ry:    0 | 0xff000020:  115 | Hat switch:   8 | Button: 0  0  0  0  0  0  0  0  0  0  0  0  0  0  0 | 0xff000021: 0 , 0 , 0 , 0 , 0 , 0 , 0 , 0 , 0 , 0 , 0 , 0 , 0 | 0xff000022:   80 ,  221 ,   41 ,  235 ,  246 ,  255 ,  237 ,  255 ,   10 ,    0 ,   45 ,    0 ,   68 ,   31 ,   54 ,    5 ,  214 ,  103 ,    3 ,  190 ,    7 ,  128 ,    0 ,    0 ,    0 ,  128 ,    0 ,    0 ,    0 ,    0 ,    9 ,    9 ,    0 ,    0 ,    0 ,    0 ,    0 ,  161 ,  133 ,    3 ,  190 ,   40 ,    8 ,    0 ,  185 ,   59 ,    1 ,   94 ,  155 ,   18 ,   87 ,   62 
E: 000000.183123 64 01 81 7f 7f 81 00 00 73 08 00 00 00 50 dd 29 eb f6 ff ed ff 0a 00 2d 00 44 1f 36 05 d6 67 03 be 07 80 00 00 00 80 00 00 00 00 09 09 00 00 00 00 00 a1 85 03 be 28 08 00 b9 3b 01 5e 9b 12 57 3e
# ReportID: 1 / X:  129 | Y:  127 | Z:  127 | Rz:  129 | Rx:    0 | Ry:    0 | 0xff000020:  116 | Hat switch:   8 | Button: 0  0  0  0  0  0  0  0  0  0  0  0  0  0  0 | 0xff000021: 0 , 0 , 0 , 0 , 0 , 0 , 0 , 0 , 0 , 0 , 0 , 0 , 0 | 0xff000022:   81 ,  221 ,   41 ,  235 ,  247 ,  255 ,  238 ,  255 ,   11 ,    0 ,   36 ,    0 ,   86 ,   31 ,   46 ,    5 ,  201 ,  150 ,    3 ,  190 ,    7 ,  128 ,    0 ,    0 ,    0 ,  128 ,    0 ,    0 ,    0 ,    0 ,    9 ,    9 ,    0 ,    0 ,    0 ,    0 ,    0 ,  129 ,  180 ,    3 ,  190 ,   40 ,    8 ,    0 ,  249 ,  187 ,  241 ,  234 ,  251 ,  249 ,  111 ,  224 
E: 000000.185438 64 01 81 7f 7f 81 00 00 74 08 00 00 00 51 dd 29 eb f7 ff ee ff 0b 00 24 00 56 1f 2e 05 c9 96 03 be 07 80 00 00 00 80 00 00 00 00 09 09 00 00 00 00 00 81 b4 03 be 28 08 00 f9 bb f1 ea fb f9 6f e0
# ReportID: 1 / X:  129 | Y:  127 | Z:  127 | Rz:  129 | Rx:    0 | Ry:    0 | 0xff000020:  117 | Hat switch:   8 | Button: 0  0  0  0  0  0  0  0  0  0  0  0  0  0  0 | 0xff000021: 0 , 0 , 0 , 0 , 0 , 0 , 0 , 0 , 0 , 0 , 0 , 0 , 0 | 0xff000022:   82 ,  221 ,   41 ,  235 ,  247 ,  255 ,  238 ,  255 ,   11 ,    0 ,   47 ,    0 ,   97 ,   31 ,   54 ,    5 ,  188 ,  197 ,    3 ,  190 ,    7 ,  128 ,    0 ,    0 ,    0 ,  128 ,    0 ,    0 ,    0 ,    0 ,    9 ,    9 ,    0 ,    0 ,    0 ,    0 ,    0 ,   97 ,  227 ,    3 ,  190 ,   40 ,    8 ,    0 ,  253 ,   59 ,  240 ,   71 ,  247 ,   70 ,  106 ,    3 
E: 000000.190884 64 01 81 7f 7f 81 00 00 75 08 00 00 00 52 dd 29 eb f7 ff ee ff 0b 00 2f 00 61 1f 36 05 bc c5 03 be 07 80 00 00 00 80 00 00 00 00 09 09 00 00 00 00 00 61 e3 03 be 28 08 00 fd 3b f0 47 f7 46 6a 03
# ReportID: 1 / X:  129 | Y:  127 | Z:  127 | Rz:  129 | Rx:    0 | Ry:    0 | 0xff000020:  118 | Hat switch:   8 | Button: 0  0  0  0  0  0  0  0  0  0  0  0  0  0  0 | 0xff000021: 0 , 0 , 0 , 0 , 0 , 0 , 0 , 0 , 0 , 0 , 0 , 0 , 0 | 0xff000022:   83 ,  221 ,   41 ,  235 ,  247 ,  255 ,  238 ,  255 ,   11 ,    0 ,   43 ,    0 ,   95 ,   31 ,   46 ,    5 ,  175 ,  244 ,    3 ,  190 ,    7 ,  128 ,    0 ,    0 ,    0 ,  128 ,    0 ,    0 ,    0 ,    0 ,    9 ,    9 ,    0 ,    0 ,    0 ,    0 ,    0 ,   65 ,   18 ,    4 ,  190 ,   40 ,    8 ,    0 ,  151 ,  148 ,    1 ,  173 ,   46 ,  227 ,  116 ,   16 
E: 000000.194739 64 01 81 7f 7f 81 00 00 76 08 00 00 00 53 dd 29 eb f7 ff ee ff 0b 00 2b 00 5f 1f 2e 05 af f4 03 be 07 80 00 00 00 80 00 00 00 00 09 09 00 00 00 00 00 41 12 04 be 28 08 00 97 94 01 ad 2e e3 74 10
# ReportID: 1 / X:  129 | Y:  126 | Z:  127 | Rz:  129 | Rx:    0 | Ry:    0 | 0xff000020:  119 | Hat switch:   8 | Button: 0  0  0  0  0  0  0  0  0  0  0  0  0  0  0 | 0xff000021: 0 , 0 , 0 , 0 , 0 , 0 , 0 , 0 , 0 , 0 , 0 , 0 , 0 | 0xff000022:   84 ,  221 ,   41 ,  235 ,  247 ,  255 ,  238 ,  255 ,   11 ,    0 ,   47 ,    0 ,   96 ,   31 ,   52 ,    5 ,  162 ,   35 ,    4 ,  190 ,    7 ,  128 ,    0 ,    0 ,    0 ,  128 ,    0 ,    0 ,    0 ,    0 ,    9 ,    9 ,    0 ,    0 ,    0 ,    0 ,    0 ,   33 ,   65 ,    4 ,  190 ,   40 ,    8 ,    0 ,  113 ,   69 ,    0 ,  180 ,  170 ,  227 ,   70 ,   81 
E: 000000.198207 64 01 81 7e 7f 81 00 00 77 08 00 00 00 54 dd 29 eb f7 ff ee ff 0b 00 2f 00 60 1f 34 05 a2 23 04 be 07 80 00 00 00 80 00 00 00 00 09 09 00 00 00 00 00 21 41 04 be 28 08 00 71 45 00 b4 aa e3 46 51
# ReportID: 1 / X:  129 | Y:  126 | Z:  127 | Rz:  129 | Rx:    0 | Ry:    0 | 0xff000020:  120 | Hat switch:   8 | Button: 0  0  0  0  0  0  0  0  0  0  0  0  0  0  0 | 0xff000021: 0 , 0 , 0 , 0 , 0 , 0 , 0 , 0 , 0 , 0 , 0 , 0 , 0 | 0xff000022:   85 ,  221 ,   41 ,  235 ,  246 ,  255 ,  237 ,  255 ,   12 ,    0 ,   55 ,    0 ,   99 ,   31 ,   58 ,    5 ,  149 ,   82 ,    4 ,  190 ,    7 ,  128 ,    0 ,    0 ,    0 ,  128 ,    0 ,    0 ,    0 ,    0 ,    9 ,    9 ,    0 ,    0 ,    0 ,    0 ,    0 ,    1 ,  112 ,    4 ,  190 ,   40 ,    8 ,    0 ,  233 ,   71 ,  177 ,    4 ,  167 ,  255 ,  175 ,   24 
E: 000000.201925 64 01 81 7e 7f 81 00 00 78 08 00 00 00 55 dd 29 eb f6 ff ed ff 0c 00 37 00 63 1f 3a 05 95 52 04 be 07 80 00 00 00 80 00 00 00 00 09 09 00 00 00 00 00 01 70 04 be 28 08 00 e9 47 b1 04 a7 ff af 18
# ReportID: 1 / X:  129 | Y:  127 | Z:  127 | Rz:  129 | Rx:    0 | Ry:    0 | 0xff000020:  121 | Hat switch:   8 | Button: 0  0  0  0  0  0  0  0  0  0  0  0  0  0  0 | 0xff000021: 0 , 0 , 0 , 0 , 0 , 0 , 0 , 0 , 0 , 0 , 0 , 0 , 0 | 0xff000022:   86 ,  221 ,   41 ,  235 ,  246 ,  255 ,  238 ,  255 ,   11 ,    0 ,   55 ,    0 ,   75 ,   31 ,   53 ,    5 ,  136 ,  129 ,    4 ,  190 ,    7 ,  128 ,    0 ,    0 ,    0 ,  128 ,    0 ,    0 ,    0 ,    0 ,    9 ,    9 ,    0 ,    0 ,    0 ,    0 ,    0 ,  225 ,  158 ,    4 ,  190 ,   40 ,    8 ,    0 ,  144 ,  109 ,   88 ,    9 ,  197 ,  157 ,  176 ,   89 
E: 000000.205439 64 01 81 7f 7f 81 00 00 79 08 00 00 00 56 dd 29 eb f6 ff ee ff 0b 00 37 00 4b 1f 35 05 88 81 04 be 07 80 00 00 00 80 00 00 00 00 09 09 00 00 00 00 00 e1 9e 04 be 28 08 00 90 6d 58 09 c5 9d b0 59
# ReportID: 1 / X:  129 | Y:  127 | Z:  128 | Rz:  129 | Rx:    0 | Ry:    0 | 0xff000020:  122 | Hat switch:   8 | Button: 0  0  0  0  0  0  0  0  0  0  0  0  0  0  0 | 0xff000021: 0 , 0 , 0 , 0 , 0 , 0 , 0 , 0 , 0 , 0 , 0 , 0 , 0 | 0xff000022:   87 ,  221 ,   41 ,  235 ,  247 ,  255 ,  237 ,  255 ,   11 ,    0 ,   52 ,    0 ,   75 ,   31 ,   46 ,    5 ,  123 ,  176 ,    4 ,  190 ,    7 ,  128 ,    0 ,    0 ,    0 ,  128 ,    0 ,    0 ,    0 ,    0 ,    9 ,    9 ,    0 ,    0 ,    0 ,    0 ,    0 ,  193 ,  205 ,    4 ,  190 ,   40 ,    8 ,    0 ,  208 ,  171 ,    3 ,   27 ,    0 ,  177 ,  228 ,  147 
E: 000000.209454 64 01 81 7f 80 81 00 00 7a 08 00 00 00 57 dd 29 eb f7 ff ed ff 0b 00 34 00 4b 1f 2e 05 7b b0 04 be 07 80 00 00 00 80 00 00 00 00 09 09 00 00 00 00 00 c1 cd 04 be 28 08 00 d0 ab 03 1b 00 b1 e4 93
# ReportID: 1 / X:  129 | Y:  127 | Z:  128 | Rz:  129 | Rx:    0 | Ry:    0 | 0xff000020:  123 | Hat switch:   8 | Button: 0  0  0  0  0  0  0  0  0  0  0  0  0  0  0 | 0xff000021: 0 , 0 , 0 , 0 , 0 , 0 , 0 , 0 , 0 , 0 , 0 , 0 , 0 | 0xff000022:   88 ,  221 ,   41 ,  235 ,  247 ,  255 ,  238 ,  255 ,    9 ,    0 ,   51 ,    0 ,   73 ,   31 ,   51 ,    5 ,  110 ,  223 ,    4 ,  190 ,    7 ,  128 ,    0 ,    0 ,    0 ,  128 ,    0 ,    0 ,    0 ,    0 ,    9 ,    9 ,    0 ,    0 ,    0 ,    0 ,    0 ,  161 ,  252 ,    4 ,  190 ,   40 ,    8 ,    0 ,  166 ,  197 ,  103 ,   86 ,  100 ,  112 ,  115 ,   12 
E: 000000.214517 64 01 81 7f 80 81 00 00 7b 08 00 00 00 58 dd 29 eb f7 ff ee ff 09 00 33 00 49 1f 33 05 6e df 04 be 07 80 00 00 00 80 00 00 00 00 09 09 00 00 00 00 00 a1 fc 04 be 28 08 00 a6 c5 67 56 64 70 73 0c
# ReportID: 1 / X:  129 | Y:  127 | Z:  127 | Rz:  129 | Rx:    0 | Ry:    0 | 0xff000020:  124 | Hat switch:   8 | Button: 0  0  0  0  0  0  0  0  0  0  0  0  0  0  0 | 0xff000021: 0 , 0 , 0 , 0 , 0 , 0 , 0 , 0 , 0 , 0 , 0 , 0 , 0 | 0xff000022:   89 ,  221 ,   41 ,  235 ,  246 ,  255 ,  239 ,  255 ,   10 ,    0 ,   50 ,    0 ,   87 ,   31 ,   53 ,    5 ,   97 ,   14 ,    5 ,  190 ,    7 ,  128 ,    0 ,    0 ,    0 ,  128 ,    0 ,    0 ,    0 ,    0 ,    9 ,    9 ,    0 ,    0 ,    0 ,    0 ,    0 ,  129 ,   43 ,    5 ,  190 ,   40 ,    8 ,    0 ,   74 ,  155 ,   97 ,   38 ,  188 ,  184 ,  109 ,  223 
E: 000000.218339 64 01 81 7f 7f 81 00 00 7c 08 00 00 00 59 dd 29 eb f6 ff ef ff 0a 00 32 00 57 1f 35 05 61 0e 05 be 07 80 00 00 00 80 00 00 00 00 09 09 00 00 00 00 00 81 2b 05 be 28 08 00 4a 9b 61 26 bc b8 6d df
# ReportID: 1 / X:  129 | Y:  127 | Z:  127 | Rz:  129 | Rx:    0 | Ry:    0 | 0xff000020:  125 | Hat switch:   8 | Button: 0  0  0  0  0  0  0  0  0  0  0  0  0  0  0 | 0xff000021: 0 , 0 , 0 , 0 , 0 , 0 , 0 , 0 , 0 , 0 , 0 , 0 , 0 | 0xff000022:   90 ,  221 ,   41 ,  235 ,  246 ,  255 ,  238 ,  255 ,   11 ,    0 ,   58 ,    0 ,   88 ,   31 ,   48 ,    5 ,   84 ,   61 ,    5 ,  190 ,    7 ,  128 ,    0 ,    0 ,    0 ,  128 ,    0 ,    0 ,    0 ,    0 ,    9 ,    9 ,    0 ,    0 ,    0 ,    0 ,    0 ,   97 ,   90 ,    5 ,  190 ,   40 ,    8 ,    0 ,  207 ,  245 ,   66 ,  141 ,   66 ,  108 ,  144 ,  116 
E: 000000.222086 64 01 81 7f 7f 81 00 00 7d 08 00 00 00 5a dd 29 eb f6 ff ee ff 0b 00 3a 00 58 1f 30 05 54 3d 05 be 07 80 00 00 00 80 00 00 00 00 09 09 00 00 00 00 00 61 5a 05 be 28 08 00 cf f5 42 8d 42 6c 90 74
# ReportID: 1 / X:  129 | Y:  127 | Z:  127 | Rz:  129 | Rx:    0 | Ry:    0 | 0xff000020:  126 | Hat switch:   8 | Button: 0  0  0  0  0  0  0  0  0  0  0  0  0  0  0 | 0xff000021: 0 , 0 , 0 , 0 , 0 , 0 , 0 , 0 , 0 , 0 , 0 , 0 , 0 | 0xff000022:   91 ,  221 ,   41 ,  235 ,  246 ,  255 ,  238 ,  255 ,   11 ,    0 ,   48 ,    0 ,   98 ,   31 ,   50 ,    5 ,   71 ,  108 ,    5 ,  190 ,    7 ,  128 ,    0 ,    0 ,    0 ,  128 ,    0 ,    0 ,    0 ,    0 ,    9 ,    9 ,    0 ,    0 ,    0 ,    0 ,    0 ,   65 ,  137 ,    5 ,  190 ,   40 ,    8 ,    0 ,   72 ,   42 ,   24 ,   98 ,  152 ,   19 ,  172 ,  151 
E: 000000.226008 64 01 81 7f 7f 81 00 00 7e 08 00 00 00 5b dd 29 eb f6 ff ee ff 0b 00 30 00 62 1f 32 05 47 6c 05 be 07 80 00 00 00 80 00 00 00 00 09 09 00 00 00 00 00 41 89 05 be 28 08 00 48 2a 18 62 98 13 ac 97
# ReportID: 1 / X:  129 | Y:  127 | Z:  127 | Rz:  129 | Rx:    0 | Ry:    0 | 0xff000020:  127 | Hat switch:   8 | Button: 0  0  0  0  0  0  0  0  0  0  0  0  0  0  0 | 0xff000021: 0 , 0 , 0 , 0 , 0 , 0 , 0 , 0 , 0 , 0 , 0 , 0 , 0 | 0xff000022:   92 ,  221 ,   41 ,  235 ,  245 ,  255 ,  238 ,  255 ,   11 ,    0 ,   47 ,    0 ,   97 ,   31 ,   52 ,    5 ,   57 ,  155 ,    5 ,  190 ,    7 ,  128 ,    0 ,    0 ,    0 ,  128 ,    0 ,    0 ,    0 ,    0 ,    9 ,    9 ,    0 ,    0 ,    0 ,    0 ,    0 ,   33 ,  184 ,    5 ,  190 ,   40 ,    8 ,    0 ,  160 ,   88 ,  245 ,   75 ,  159 ,  109 ,  106 ,   60 
E: 000000.229731 64 01 81 7f 7f 81 00 00 7f 08 00 00 00 5c dd 29 eb f5 ff ee ff 0b 00 2f 00 61 1f 34 05 39 9b 05 be 07 80 00 00 00 80 00 00 00 00 09 09 00 00 00 00 00 21 b8 05 be 28 08 00 a0 58 f5 4b 9f 6d 6a 3c
# ReportID: 1 / X:  129 | Y:  127 | Z:  128 | Rz:  129 | Rx:    0 | Ry:    0 | 0xff000020:  128 | Hat switch:   8 | Button: 0  0  0  0  0  0  0  0  0  0  0  0  0  0  0 | 0xff000021: 0 , 0 , 0 , 0 , 0 , 0 , 0 , 0 , 0 , 0 , 0 , 0 , 0 | 0xff000022:   93 ,  221 ,   41 ,  235 ,  246 ,  255 ,  238 ,  255 ,   12 ,    0 ,   47 ,    0 ,   85 ,   31 ,   52 ,    5 ,   44 ,  202 ,    5 ,  190 ,    7 ,  128 ,    0 ,    0 ,    0 ,  128 ,    0 ,    0 ,    0 ,    0 ,    9 ,    9 ,    0 ,    0 ,    0 ,    0 ,    0 ,    1 ,  231 ,    5 ,  190 ,   40 ,    8 ,    0 ,  222 ,  144 ,  158 ,  222 ,   53 ,   22 ,  160 ,   98 
E: 000000.233410 64 01 81 7f 80 81 00 00 80 08 00 00 00 5d dd 29 eb f6 ff ee ff 0c 00 2f 00 55 1f 34 05 2c ca 05 be 07 80 00 00 00 80 00 00 00 00 09 09 00 00 00 00 00 01 e7 05 be 28 08 00 de 90 9e de 35 16 a0 62
# ReportID: 1 / X:  129 | Y:  127 | Z:  127 | Rz:  129 | Rx:    0 | Ry:    0 | 0xff000020:  129 | Hat switch:   8 | Button: 0  0  0  0  0  0  0  0  0  0  0  0  0  0  0 | 0xff000021: 0 , 0 , 0 , 0 , 0 , 0 , 0 , 0 , 0 , 0 , 0 , 0 , 0 | 0xff000022:   94 ,  221 ,   41 ,  235 ,  246 ,  255 ,  238 ,  255 ,   11 ,    0 ,   51 ,    0 ,   94 ,   31 ,   39 ,    5 ,   31 ,  249 ,    5 ,  190 ,    7 ,  128 ,    0 ,    0 ,    0 ,  128 ,    0 ,    0 ,    0 ,    0 ,    9 ,    9 ,    0 ,    0 ,    0 ,    0 ,    0 ,  225 ,   21 ,    6 ,  190 ,   40 ,    8 ,    0 ,  131 ,  157 ,  135 ,  235 ,  223 ,  101 ,  110 ,  147 
E: 000000.239294 64 01 81 7f 7f 81 00 00 81 08 00 00 00 5e dd 29 eb f6 ff ee ff 0b 00 33 00 5e 1f 27 05 1f f9 05 be 07 80 00 00 00 80 00 00 00 00 09 09 00 00 00 00 00 e1 15 06 be 28 08 00 83 9d 87 eb df 65 6e 93
# ReportID: 1 / X:  129 | Y:  127 | Z:  127 | Rz:  129 | Rx:    0 | Ry:    0 | 0xff000020:  130 | Hat switch:   8 | Button: 0  0  0  0  0  0  0  0  0  0  0  0  0  0  0 | 0xff000021: 0 , 0 , 0 , 0 , 0 , 0 , 0 , 0 , 0 , 0 , 0 , 0 , 0 | 0xff000022:   95 ,  221 ,   41 ,  235 ,  247 ,  255 ,  238 ,  255 ,   10 ,    0 ,   53 ,    0 ,   87 ,   31 ,   42 ,    5 ,   18 ,   40 ,    6 ,  190 ,    7 ,  128 ,    0 ,    0 ,    0 ,  128 ,    0 ,    0 ,    0 ,    0 ,    9 ,    9 ,    0 ,    0 ,    0 ,    0 ,    0 ,  193 ,   68 ,    6 ,  190 ,   40 ,    8 ,    0 ,  187 ,  144 ,  105 ,  128 ,  201 ,  220 ,    4 ,  119 
E: 000000.242925 64 01 81 7f 7f 81 00 00 82 08 00 00 00 5f dd 29 eb f7 ff ee ff 0a 00 35 00 57 1f 2a 05 12 28 06 be 07 80 00 00 00 80 00 00 00 00 09 09 00 00 00 00 00 c1 44 06 be 28 08 00 bb 90 69 80 c9 dc 04 77
# ReportID: 1 / X:  129 | Y:  127 | Z:  127 | Rz:  129 | Rx:    0 | Ry:    0 | 0xff000020:  131 | Hat switch:   8 | Button: 0  0  0  0  0  0  0  0  0  0  0  0  0  0  0 | 0xff000021: 0 , 0 , 0 , 0 , 0 , 0 , 0 , 0 , 0 , 0 , 0 , 0 , 0 | 0xff000022:   96 ,  221 ,   41 ,  235 ,  246 ,  255 ,  238 ,  255 ,   11 ,    0 ,   49 ,    0 ,   89 ,   31 ,   55 ,    5 ,    5 ,   87 ,    6 ,  190 ,    7 ,  128 ,    0 ,    0 ,    0 ,  128 ,    0 ,    0 ,    0 ,    0 ,    9 ,    9 ,    0 ,    0 ,    0 ,    0 ,    0 ,  161 ,  115 ,    6 ,  190 ,   40 ,    8 ,    0 ,   64 ,  142 ,   52 ,   82 ,  106 ,    0 ,  230 ,  148 
E: 000000.245912 64 01 81 7f 7f 81 00 00 83 08 00 00 00 60 dd 29 eb f6 ff ee ff 0b 00 31 00 59 1f 37 05 05 57 06 be 07 80 00 00 00 80 00 00 00 00 09 09 00 00 00 00 00 a1 73 06 be 28 08 00 40 8e 34 52 6a 00 e6 94
# ReportID: 1 / X:  129 | Y:  127 | Z:  128 | Rz:  129 | Rx:    0 | Ry:    0 | 0xff000020:  132 | Hat switch:   8 | Button: 0  0  0  0  0  0  0  0  0  0  0  0  0  0  0 | 0xff000021: 0 , 0 , 0 , 0 , 0 , 0 , 0 , 0 , 0 , 0 , 0 , 0 , 0 | 0xff000022:   97 ,  221 ,   41 ,  235 ,  246 ,  255 ,  238 ,  255 ,   10 ,    0 ,   54 ,    0 ,   88 ,   31 ,   46 ,    5 ,  248 ,  133 ,    6 ,  190 ,    7 ,  128 ,    0 ,    0 ,    0 ,  128 ,    0 ,    0 ,    0 ,    0 ,    9 ,    9 ,    0 ,    0 ,    0 ,    0 ,    0 ,  129 ,  162 ,    6 ,  190 ,   40 ,    8 ,    0 ,  244 ,  105 ,  120 ,  162 ,   94 ,   55 ,  233 ,  142 
E: 000000.249723 64 01 81 7f 80 81 00 00 84 08 00 00 00 61 dd 29 eb f6 ff ee ff 0a 00 36 00 58 1f 2e 05 f8 85 06 be 07 80 00 00 00 80 00 00 00 00 09 09 00 00 00 00 00 81 a2 06 be 28 08 00 f4 69 78 a2 5e 37 e9 8e
# ReportID: 1 / X:  129 | Y:  127 | Z:  127 | Rz:  129 | Rx:    0 | Ry:    0 | 0xff000020:  133 | Hat switch:   8 | Button: 0  0  0  0  0  0  0  0  0  0  0  0  0  0  0 | 0xff000021: 0 , 0 , 0 , 0 , 0 , 0 , 0 , 0 , 0 , 0 , 0 , 0 , 0 | 0xff000022:   98 ,  221 ,   41 ,  235 ,  247 ,  255 ,  237 ,  255 ,   11 ,    0 ,   47 ,    0 ,   95 ,   31 ,   41 ,    5 ,  235 ,  180 ,    6 ,  190 ,    7 ,  128 ,    0 ,    0 ,    0 ,  128 ,    0 ,    0 ,    0 ,    0 ,    9 ,    9 ,    0 ,    0 ,    0 ,    0 ,    0 ,   97 ,  209 ,    6 ,  190 ,   40 ,    8 ,    0 ,  166 ,  209 ,  241 ,   56 ,  234 ,  140 ,    7 ,  198 
E: 000000.253459 64 01 81 7f 7f 81 00 00 85 08 00 00 00 62 dd 29 eb f7 ff ed ff 0b 00 2f 00 5f 1f 29 05 eb b4 06 be 07 80 00 00 00 80 00 00 00 00 09 09 00 00 00 00 00 61 d1 06 be 28 08 00 a6 d1 f1 38 ea 8c 07 c6
# ReportID: 1 / X:  129 | Y:  127 | Z:  127 | Rz:  129 | Rx:    0 | Ry:    0 | 0xff000020:  134 | Hat switch:   8 | Button: 0  0  0  0  0  0  0  0  0  0  0  0  0  0  0 | 0xff000021: 0 , 0 , 0 , 0 , 0 , 0 , 0 , 0 , 0 , 0 , 0 , 0 , 0 | 0xff000022:   99 ,  221 ,   41 ,  235 ,  247 ,  255 ,  237 ,  255 ,   11 ,    0 ,   50 ,    0 ,   91 ,   31 ,   46 ,    5 ,  222 ,  227 ,    6 ,  190 ,    7 ,  128 ,    0 ,    0 ,    0 ,  128 ,    0 ,    0 ,    0 ,    0 ,    9 ,    9 ,    0 ,    0 ,    0 ,    0 ,    0 ,   65 ,    0 ,    7 ,  190 ,   40 ,    8 ,    0 ,  224 ,   65 ,  242 ,  180 ,  147 ,   56 ,  119 ,   73 
E: 000000.259038 64 01 81 7f 7f 81 00 00 86 08 00 00 00 63 dd 29 eb f7 ff ed ff 0b 00 32 00 5b 1f 2e 05 de e3 06 be 07 80 00 00 00 80 00 00 00 00 09 09 00 00 00 00 00 41 00 07 be 28 08 00 e0 41 f2 b4 93 38 77 49
# ReportID: 1 / X:  129 | Y:  127 | Z:  127 | Rz:  129 | Rx:    0 | Ry:    0 | 0xff000020:  135 | Hat switch:   8 | Button: 0  0  0  0  0  0  0  0  0  0  0  0  0  0  0 | 0xff000021: 0 , 0 , 0 , 0 , 0 , 0 , 0 , 0 , 0 , 0 , 0 , 0 , 0 | 0xff000022:  100 ,  221 ,   41 ,  235 ,  245 ,  255 ,  238 ,  255 ,   12 ,    0 ,   48 ,    0 ,   87 ,   31 ,   48 ,    5 ,  209 ,   18 ,    7 ,  190 ,    7 ,  128 ,    0 ,    0 ,    0 ,  128 ,    0 ,    0 ,    0 ,    0 ,    9 ,    9 ,    0 ,    0 ,    0 ,    0 ,    0 ,   33 ,   47 ,    7 ,  190 ,   40 ,    8 ,    0 ,   72 ,   90 ,  151 ,  219 ,    8 ,  170 ,  202 ,  234 
E: 000000.261262 64 01 81 7f 7f 81 00 00 87 08 00 00 00 64 dd 29 eb f5 ff ee ff 0c 00 30 00 57 1f 30 05 d1 12 07 be 07 80 00 00 00 80 00 00 00 00 09 09 00 00 00 00 00 21 2f 07 be 28 08 00 48 5a 97 db 08 aa ca ea
# ReportID: 1 / X:  129 | Y:  127 | Z:  127 | Rz:  129 | Rx:    0 | Ry:    0 | 0xff000020:  136 | Hat switch:   8 | Button: 0  0  0  0  0  0  0  0  0  0  0  0  0  0  0 | 0xff000021: 0 , 0 , 0 , 0 , 0 , 0 , 0 , 0 , 0 , 0 , 0 , 0 , 0 | 0xff000022:  101 ,  221 ,   41 ,  235 ,  245 ,  255 ,  238 ,  255 ,   11 ,    0 ,   40 ,    0 ,   90 ,   31 ,   44 ,    5 ,  196 ,   65 ,    7 ,  190 ,    7 ,  128 ,    0 ,    0 ,    0 ,  128 ,    0 ,    0 ,    0 ,    0 ,    9 ,    9 ,    0 ,    0 ,    0 ,    0 ,    0 ,    1 ,   94 ,    7 ,  190 ,   40 ,    8 ,    0 ,  159 ,  162 ,  165 ,   83 ,   68 ,  239 ,   16 ,    8 
E: 000000.265650 64 01 81 7f 7f 81 00 00 88 08 00 00 00 65 dd 29 eb f5 ff ee ff 0b 00 28 00 5a 1f 2c 05 c4 41 07 be 07 80 00 00 00 80 00 00 00 00 09 09 00 00 00 00 00 01 5e 07 be 28 08 00 9f a2 a5 53 44 ef 10 08
# ReportID: 1 / X:  129 | Y:  127 | Z:  127 | Rz:  129 | Rx:    0 | Ry:    0 | 0xff000020:  137 | Hat switch:   8 | Button: 0  0  0  0  0  0  0  0  0  0  0  0  0  0  0 | 0xff000021: 0 , 0 , 0 , 0 , 0 , 0 , 0 , 0 , 0 , 0 , 0 , 0 , 0 | 0xff000022:  102 ,  221 ,   41 ,  235 ,  246 ,  255 ,  238 ,  255 ,   11 ,    0 ,   41 ,    0 ,   91 ,   31 ,   41 ,    5 ,  183 ,  112 ,    7 ,  190 ,    7 ,  128 ,    0 ,    0 ,    0 ,  128 ,    0 ,    0 ,    0 ,    0 ,    9 ,    9 ,    0 ,    0 ,    0 ,    0 ,    0 ,  225 ,  140 ,    7 ,  190 ,   40 ,    8 ,    0 ,  122 ,  148 ,  118 ,  176 ,  208 ,  251 ,  121 ,   86 
E: 000000.269653 64 01 81 7f 7f 81 00 00 89 08 00 00 00 66 dd 29 eb f6 ff ee ff 0b 00 29 00 5b 1f 29 05 b7 70 07 be 07 80 00 00 00 80 00 00 00 00 09 09 00 00 00 00 00 e1 8c 07 be 28 08 00 7a 94 76 b0 d0 fb 79 56
# ReportID: 1 / X:  129 | Y:  127 | Z:  127 | Rz:  129 | Rx:    0 | Ry:    0 | 0xff000020:  138 | Hat switch:   8 | Button: 0  0  0  0  0  0  0  0  0  0  0  0  0  0  0 | 0xff000021: 0 , 0 , 0 , 0 , 0 , 0 , 0 , 0 , 0 , 0 , 0 , 0 , 0 | 0xff000022:  103 ,  221 ,   41 ,  235 ,  246 ,  255 ,  239 ,  255 ,   10 ,    0 ,   51 ,    0 ,   88 ,   31 ,   50 ,    5 ,  170 ,  159 ,    7 ,  190 ,    7 ,  128 ,    0 ,    0 ,    0 ,  128 ,    0 ,    0 ,    0 ,    0 ,    9 ,    9 ,    0 ,    0 ,    0 ,    0 ,    0 ,  193 ,  187 ,    7 ,  190 ,   40 ,    8 ,    0 ,   97 ,   71 ,  250 ,  157 ,  189 ,  231 ,  184 ,  139 
E: 000000.273647 64 01 81 7f 7f 81 00 00 8a 08 00 00 00 67 dd 29 eb f6 ff ef ff 0a 00 33 00 58 1f 32 05 aa 9f 07 be 07 80 00 00 00 80 00 00 00 00 09 09 00 00 00 00 00 c1 bb 07 be 28 08 00 61 47 fa 9d bd e7 b8 8b
# ReportID: 1 / X:  129 | Y:  127 | Z:  127 | Rz:  129 | Rx:    0 | Ry:    0 | 0xff000020:  139 | Hat switch:   8 | Button: 0  0  0  0  0  0  0  0  0  0  0  0  0  0  0 | 0xff000021: 0 , 0 , 0 , 0 , 0 , 0 , 0 , 0 , 0 , 0 , 0 , 0 , 0 | 0xff000022:  104 ,  221 ,   41 ,  235 ,  246 ,  255 ,  238 ,  255 ,   11 ,    0 ,   44 ,    0 ,  100 ,   31 ,   53 ,    5 ,  157 ,  206 ,    7 ,  190 ,    7 ,  128 ,    0 ,    0 ,    0 ,  128 ,    0 ,    0 ,    0 ,    0 ,    9 ,    9 ,    0 ,    0 ,    0 ,    0 ,    0 ,  161 ,  234 ,    7 ,  190 ,   40 ,    8 ,    0 ,  255 ,   25 ,   80 ,   82 ,   57 ,  196 ,  241 ,   25 
E: 000000.277527 64 01 81 7f 7f 81 00 00 8b 08 00 00 00 68 dd 29 eb f6 ff ee ff 0b 00 2c 00 64 1f 35 05 9d ce 07 be 07 80 00 00 00 80 00 00 00 00 09 09 00 00 00 00 00 a1 ea 07 be 28 08 00 ff 19 50 52 39 c4 f1 19
# ReportID: 1 / X:  129 | Y:  127 | Z:  127 | Rz:  129 | Rx:    0 | Ry:    0 | 0xff000020:  140 | Hat switch:   8 | Button: 0  0  0  0  0  0  0  0  0  0  0  0  0  0  0 | 0xff000021: 0 , 0 , 0 , 0 , 0 , 0 , 0 , 0 , 0 , 0 , 0 , 0 , 0 | 0xff000022:  105 ,  221 ,   41 ,  235 ,  246 ,  255 ,  238 ,  255 ,   12 ,    0 ,   51 ,    0 ,   93 ,   31 ,   50 ,    5 ,  144 ,  253 ,    7 ,  190 ,    7 ,  128 ,    0 ,    0 ,    0 ,  128 ,    0 ,    0 ,    0 ,    0 ,    9 ,    9 ,    0 ,    0 ,    0 ,    0 ,    0 ,  129 ,   25 ,    8 ,  190 ,   40 ,    8 ,    0 ,   76 ,  191 ,  194 ,  239 ,  199 ,  107 ,  112 ,  175 
E: 000000.282368 64 01 81 7f 7f 81 00 00 8c 08 00 00 00 69 dd 29 eb f6 ff ee ff 0c 00 33 00 5d 1f 32 05 90 fd 07 be 07 80 00 00 00 80 00 00 00 00 09 09 00 00 00 00 00 81 19 08 be 28 08 00 4c bf c2 ef c7 6b 70 af
# ReportID: 1 / X:  129 | Y:  127 | Z:  127 | Rz:  129 | Rx:    0 | Ry:    0 | 0xff000020:  141 | Hat switch:   8 | Button: 0  0  0  0  0  0  0  0  0  0  0  0  0  0  0 | 0xff000021: 0 , 0 , 0 , 0 , 0 , 0 , 0 , 0 , 0 , 0 , 0 , 0 , 0 | 0xff000022:  106 ,  221 ,   41 ,  235 ,  246 ,  255 ,  239 ,  255 ,   11 ,    0 ,   52 ,    0 ,   96 ,   31 ,   44 ,    5 ,  131 ,   44 ,    8 ,  190 ,    7 ,  128 ,    0 ,    0 ,    0 ,  128 ,    0 ,    0 ,    0 ,    0 ,    9 ,    9 ,    0 ,    0 ,    0 ,    0 ,    0 ,   97 ,   72 ,    8 ,  190 ,   40 ,    8 ,    0 ,  101 ,  222 ,   85 ,   66 ,  119 ,  158 ,  109 ,  149 
E: 000000.285723 64 01 81 7f 7f 81 00 00 8d 08 00 00 00 6a dd 29 eb f6 ff ef ff 0b 00 34 00 60 1f 2c 05 83 2c 08 be 07 80 00 00 00 80 00 00 00 00 09 09 00 00 00 00 00 61 48 08 be 28 08 00 65 de 55 42 77 9e 6d 95
# ReportID: 1 / X:  129 | Y:  126 | Z:  127 | Rz:  129 | Rx:    0 | Ry:    0 | 0xff000020:  142 | Hat switch:   8 | Button: 0  0  0  0  0  0  0  0  0  0  0  0  0  0  0 | 0xff000021: 0 , 0 , 0 , 0 , 0 , 0 , 0 , 0 , 0 , 0 , 0 , 0 , 0 | 0xff000022:  107 ,  221 ,   41 ,  235 ,  246 ,  255 ,  238 ,  255 ,   11 ,    0 ,   47 ,    0 ,   82 ,   31 ,   53 ,    5 ,  118 ,   91 ,    8 ,  190 ,    7 ,  128 ,    0 ,    0 ,    0 ,  128 ,    0 ,    0 ,    0 ,    0 ,    9 ,    9 ,    0 ,    0 ,    0 ,    0 ,    0 ,   65 ,  119 ,    8 ,  190 ,   40 ,    8 ,    0 ,   24 ,  138 ,   61 ,  211 ,   73 ,  245 ,  176 ,  241 
E: 000000.289416 64 01 81 7e 7f 81 00 00 8e 08 00 00 00 6b dd 29 eb f6 ff ee ff 0b 00 2f 00 52 1f 35 05 76 5b 08 be 07 80 00 00 00 80 00 00 00 00 09 09 00 00 00 00 00 41 77 08 be 28 08 00 18 8a 3d d3 49 f5 b0 f1
# ReportID: 1 / X:  129 | Y:  126 | Z:  127 | Rz:  129 | Rx:    0 | Ry:    0 | 0xff000020:  143 | Hat switch:   8 | Button: 0  0  0  0  0  0  0  0  0  0  0  0  0  0  0 | 0xff000021: 0 , 0 , 0 , 0 , 0 , 0 , 0 , 0 , 0 , 0 , 0 , 0 , 0 | 0xff000022:  108 ,  221 ,   41 ,  235 ,  245 ,  255 ,  238 ,  255 ,   10 ,    0 ,   45 ,    0 ,   90 ,   31 ,   46 ,    5 ,  105 ,  138 ,    8 ,  190 ,    7 ,  128 ,    0 ,    0 ,    0 ,  128 ,    0 ,    0 ,    0 ,    0 ,    9 ,    9 ,    0 ,    0 ,    0 ,    0 ,    0 ,   33 ,  166 ,    8 ,  190 ,   40 ,    8 ,    0 ,  154 ,  247 ,    0 ,  164 ,  171 ,  186 ,  253 ,   75 
E: 000000.294385 64 01 81 7e 7f 81 00 00 8f 08 00 00 00 6c dd 29 eb f5 ff ee ff 0a 00 2d 00 5a 1f 2e 05 69 8a 08 be 07 80 00 00 00 80 00 00 00 00 09 09 00 00 00 00 00 21 a6 08 be 28 08 00 9a f7 00 a4 ab ba fd 4b
# ReportID: 1 / X:  129 | Y:  127 | Z:  127 | Rz:  129 | Rx:    0 | Ry:    0 | 0xff000020:  144 | Hat switch:   8 | Button: 0  0  0  0  0  0  0  0  0  0  0  0  0  0  0 | 0xff000021: 0 , 0 , 0 , 0 , 0 , 0 , 0 , 0 , 0 , 0 , 0 , 0 , 0 | 0xff000022:  109 ,  221 ,   41 ,  235 ,  246 ,  255 ,  237 ,  255 ,   11 ,    0 ,   51 ,    0 ,   89 ,   31 ,   51 ,    5 ,   92 ,  185 ,    8 ,  190 ,    7 ,  128 ,    0 ,    0 ,    0 ,  128 ,    0 ,    0 ,    0 ,    0 ,    9 ,    9 ,    0 ,    0 ,    0 ,    0 ,    0 ,    1 ,  213 ,    8 ,  190 ,   40 ,    8 ,    0 ,  141 ,  134 ,  151 ,   68 ,   11 ,  155 ,  218 ,   16 
E: 000000.297818 64 01 81 7f 7f 81 00 00 90 08 00 00 00 6d dd 29 eb f6 ff ed ff 0b 00 33 00 59 1f 33 05 5c b9 08 be 07 80 00 00 00 80 00 00 00 00 09 09 00 00 00 00 00 01 d5 08 be 28 08 00 8d 86 97 44 0b 9b da 10
# ReportID: 1 / X:  129 | Y:  127 | Z:  127 | Rz:  129 | Rx:    0 | Ry:    0 | 0xff000020:  145 | Hat switch:   8 | Button: 0  0  0  0  0  0  0  0  0  0  0  0  0  0  0 | 0xff000021: 0 , 0 , 0 , 0 , 0 , 0 , 0 , 0 , 0 , 0 , 0 , 0 , 0 | 0xff000022:  110 ,  221 ,   41 ,  235 ,  245 ,  255 ,  239 ,  255 ,   10 ,    0 ,   55 ,    0 ,   93 ,   31 ,   49 ,    5 ,   79 ,  232 ,    8 ,  190 ,    7 ,  128 ,    0 ,    0 ,    0 ,  128 ,    0 ,    0 ,    0 ,    0 ,    9 ,    9 ,    0 ,    0 ,    0 ,    0 ,    0 ,  225 ,    3 ,    9 ,  190 ,   40 ,    8 ,    0 ,  232 ,   12 ,  105 ,   36 ,  145 ,   68 ,  213 ,  190 
E: 000000.301619 64 01 81 7f 7f 81 00 00 91 08 00 00 00 6e dd 29 eb f5 ff ef ff 0a 00 37 00 5d 1f 31 05 4f e8 08 be 07 80 00 00 00 80 00 00 00 00 09 09 00 00 00 00 00 e1 03 09 be 28 08 00 e8 0c 69 24 91 44 d5 be
# ReportID: 1 / X:  129 | Y:  126 | Z:  127 | Rz:  129 | Rx:    0 | Ry:    0 | 0xff000020:  146 | Hat switch:   8 | Button: 0  0  0  0  0  0  0  0  0  0  0  0  0  0  0 | 0xff000021: 0 , 0 , 0 , 0 , 0 , 0 , 0 , 0 , 0 , 0 , 0 , 0 , 0 | 0xff000022:  111 ,  221 ,   41 ,  235 ,  246 ,  255 ,  238 ,  255 ,   11 ,    0 ,   57 ,    0 ,   91 ,   31 ,   48 ,    5 ,   66 ,   23 ,    9 ,  190 ,    7 ,  128 ,    0 ,    0 ,    0 ,  128 ,    0 ,    0 ,    0 ,    0 ,    9 ,    9 ,    0 ,    0 ,    0 ,    0 ,    0 ,  193 ,   50 ,    9 ,  190 ,   40 ,    8 ,    0 ,  140 ,  166 ,   59 ,   93 ,  192 ,   94 ,   67 ,  110 
E: 000000.305514 64 01 81 7e 7f 81 00 00 92 08 00 00 00 6f dd 29 eb f6 ff ee ff 0b 00 39 00 5b 1f 30 05 42 17 09 be 07 80 00 00 00 80 00 00 00 00 09 09 00 00 00 00 00 c1 32 09 be 28 08 00 8c a6 3b 5d c0 5e 43 6e
# ReportID: 1 / X:  129 | Y:  127 | Z:  127 | Rz:  129 | Rx:    0 | Ry:    0 | 0xff000020:  147 | Hat switch:   8 | Button: 0  0  0  0  0  0  0  0  0  0  0  0  0  0  0 | 0xff000021: 0 , 0 , 0 , 0 , 0 , 0 , 0 , 0 , 0 , 0 , 0 , 0 , 0 | 0xff000022:  112 ,  221 ,   41 ,  235 ,  246 ,  255 ,  238 ,  255 ,   11 ,    0 ,   53 ,    0 ,   90 ,   31 ,   58 ,    5 ,   53 ,   70 ,    9 ,  190 ,    7 ,  128 ,    0 ,    0 ,    0 ,  128 ,    0 ,    0 ,    0 ,    0 ,    9 ,    9 ,    0 ,    0 ,    0 ,    0 ,    0 ,  161 ,   97 ,    9 ,  190 ,   40 ,    8 ,    0 ,  110 ,    1 ,  189 ,  164 ,   41 ,    1 ,  108 ,  185 
E: 000000.309998 64 01 81 7f 7f 81 00 00 93 08 00 00 00 70 dd 29 eb f6 ff ee ff 0b 00 35 00 5a 1f 3a 05 35 46 09 be 07 80 00 00 00 80 00 00 00 00 09 09 00 00 00 00 00 a1 61 09 be 28 08 00 6e 01 bd a4 29 01 6c b9
# ReportID: 1 / X:  129 | Y:  127 | Z:  127 | Rz:  129 | Rx:    0 | Ry:    0 | 0xff000020:  148 | Hat switch:   8 | Button: 0  0  0  0  0  0  0  0  0  0  0  0  0  0  0 | 0xff000021: 0 , 0 , 0 , 0 , 0 , 0 , 0 , 0 , 0 , 0 , 0 , 0 , 0 | 0xff000022:  113 ,  221 ,   41 ,  235 ,  246 ,  255 ,  237 ,  255 ,   11 ,    0 ,   57 ,    0 ,   81 ,   31 ,   64 ,    5 ,   40 ,  117 ,    9 ,  190 ,    7 ,  128 ,    0 ,    0 ,    0 ,  128 ,    0 ,    0 ,    0 ,    0 ,    9 ,    9 ,    0 ,    0 ,    0 ,    0 ,    0 ,  129 ,  144 ,    9 ,  190 ,   40 ,    8 ,    0 ,  144 ,   70 ,  117 ,  211 ,  131 ,  166 ,   38 ,   96 
E: 000000.313438 64 01 81 7f 7f 81 00 00 94 08 00 00 00 71 dd 29 eb f6 ff ed ff 0b 00 39 00 51 1f 40 05 28 75 09 be 07 80 00 00 00 80 00 00 00 00 09 09 00 00 00 00 00 81 90 09 be 28 08 00 90 46 75 d3 83 a6 26 60
# ReportID: 1 / X:  129 | Y:  126 | Z:  127 | Rz:  129 | Rx:    0 | Ry:    0 | 0xff000020:  149 | Hat switch:   8 | Button: 0  0  0  0  0  0  0  0  0  0  0  0  0  0  0 | 0xff000021: 0 , 0 , 0 , 0 , 0 , 0 , 0 , 0 , 0 , 0 , 0 , 0 , 0 | 0xff000022:  114 ,  221 ,   41 ,  235 ,  246 ,  255 ,  238 ,  255 ,   11 ,    0 ,   60 ,    0 ,   78 ,   31 ,   65 ,    5 ,   27 ,  164 ,    9 ,  190 ,    7 ,  128 ,    0 ,    0 ,    0 ,  128 ,    0 ,    0 ,    0 ,    0 ,    9 ,    9 ,    0 ,    0 ,    0 ,    0 ,    0 ,   97 ,  191 ,    9 ,  190 ,   40 ,    8 ,    0 ,   69 ,    3 ,  184 ,   54 ,  197 ,  100 ,  215 ,    3 
E: 000000.317452 64 01 81 7e 7f 81 00 00 95 08 00 00 00 72 dd 29 eb f6 ff ee ff 0b 00 3c 00 4e 1f 41 05 1b a4 09 be 07 80 00 00 00 80 00 00 00 00 09 09 00 00 00 00 00 61 bf 09 be 28 08 00 45 03 b8 36 c5 64 d7 03
# ReportID: 1 / X:  129 | Y:  127 | Z:  127 | Rz:  129 | Rx:    0 | Ry:    0 | 0xff000020:  150 | Hat switch:   8 | Button: 0  0  0  0  0  0  0  0  0  0  0  0  0  0  0 | 0xff000021: 0 , 0 , 0 , 0 , 0 , 0 , 0 , 0 , 0 , 0 , 0 , 0 , 0 | 0xff000022:  115 ,  221 ,   41 ,  235 ,  247 ,  255 ,  238 ,  255 ,   11 ,    0 ,   56 ,    0 ,   76 ,   31 ,   69 ,    5 ,   14 ,  211 ,    9 ,  190 ,    7 ,  128 ,    0 ,    0 ,    0 ,  128 ,    0 ,    0 ,    0 ,    0 ,    9 ,    9 ,    0 ,    0 ,    0 ,    0 ,    0 ,   68 ,  238 ,    9 ,  190 ,   40 ,    8 ,    0 ,  140 ,   86 ,  156 ,   16 ,  205 ,   12 ,  190 ,  245 
E: 000000.322338 64 01 81 7f 7f 81 00 00 96 08 00 00 00 73 dd 29 eb f7 ff ee ff 0b 00 38 00 4c 1f 45 05 0e d3 09 be 07 80 00 00 00 80 00 00 00 00 09 09 00 00 00 00 00 44 ee 09 be 28 08 00 8c 56 9c 10 cd 0c be f5
# ReportID: 1 / X:  129 | Y:  127 | Z:  128 | Rz:  129 | Rx:    0 | Ry:    0 | 0xff000020:  151 | Hat switch:   8 | Button: 0  0  0  0  0  0  0  0  0  0  0  0  0  0  0 | 0xff000021: 0 , 0 , 0 , 0 , 0 , 0 , 0 , 0 , 0 , 0 , 0 , 0 , 0 | 0xff000022:  116 ,  221 ,   41 ,  235 ,  246 ,  255 ,  238 ,  255 ,   11 ,    0 ,   59 ,    0 ,   83 ,   31 ,   65 ,    5 ,    1 ,    2 ,   10 ,  190 ,    7 ,  128 ,    0 ,    0 ,    0 ,  128 ,    0 ,    0 ,    0 ,    0 ,    9 ,    9 ,    0 ,    0 ,    0 ,    0 ,    0 ,   33 ,   29 ,   10 ,  190 ,   40 ,    8 ,    0 ,   37 ,  120 ,    4 ,   24 ,  186 ,  103 ,  133 ,  245 
E: 000000.326124 64 01 81 7f 80 81 00 00 97 08 00 00 00 74 dd 29 eb f6 ff ee ff 0b 00 3b 00 53 1f 41 05 01 02 0a be 07 80 00 00 00 80 00 00 00 00 09 09 00 00 00 00 00 21 1d 0a be 28 08 00 25 78 04 18 ba 67 85 f5
# ReportID: 1 / X:  129 | Y:  127 | Z:  127 | Rz:  129 | Rx:    0 | Ry:    0 | 0xff000020:  152 | Hat switch:   8 | Button: 0  0  0  0  0  0  0  0  0  0  0  0  0  0  0 | 0xff000021: 0 , 0 , 0 , 0 , 0 , 0 , 0 , 0 , 0 , 0 , 0 , 0 , 0 | 0xff000022:  117 ,  221 ,   41 ,  235 ,  246 ,  255 ,  238 ,  255 ,   11 ,    0 ,   52 ,    0 ,   75 ,   31 ,   65 ,    5 ,  243 ,   48 ,   10 ,  190 ,    7 ,  128 ,    0 ,    0 ,    0 ,  128 ,    0 ,    0 ,    0 ,    0 ,    9 ,    9 ,    0 ,    0 ,    0 ,    0 ,    0 ,    1 ,   76 ,   10 ,  190 ,   40 ,    8 ,    0 ,  205 ,   38 ,  112 ,  148 ,  219 ,   45 ,  168 ,  196 
E: 000000.330445 64 01 81 7f 7f 81 00 00 98 08 00 00 00 75 dd 29 eb f6 ff ee ff 0b 00 34 00 4b 1f 41 05 f3 30 0a be 07 80 00 00 00 80 00 00 00 00 09 09 00 00 00 00 00 01 4c 0a be 28 08 00 cd 26 70 94 db 2d a8 c4
# ReportID: 1 / X:  129 | Y:  126 | Z:  127 | Rz:  129 | Rx:    0 | Ry:    0 | 0xff000020:  153 | Hat switch:   8 | Button: 0  0  0  0  0  0  0  0  0  0  0  0  0  0  0 | 0xff000021: 0 , 0 , 0 , 0 , 0 , 0 , 0 , 0 , 0 , 0 , 0 , 0 , 0 | 0xff000022:  118 ,  221 ,   41 ,  235 ,  246 ,  255 ,  238 ,  255 ,   12 ,    0 ,   56 ,    0 ,   77 ,   31 ,   62 ,    5 ,  230 ,   95 ,   10 ,  190 ,    7 ,  128 ,    0 ,    0 ,    0 ,  128 ,    0 ,    0 ,    0 ,    0 ,    9 ,    9 ,    0 ,    0 ,    0 ,    0 ,    0 ,  225 ,  122 ,   10 ,  190 ,   40 ,    8 ,    0 ,  202 ,   90 ,   83 ,  113 ,  228 ,   65 ,   98 ,  231 
E: 000000.335001 64 01 81 7e 7f 81 00 00 99 08 00 00 00 76 dd 29 eb f6 ff ee ff 0c 00 38 00 4d 1f 3e 05 e6 5f 0a be 07 80 00 00 00 80 00 00 00 00 09 09 00 00 00 00 00 e1 7a 0a be 28 08 00 ca 5a 53 71 e4 41 62 e7
# ReportID: 1 / X:  129 | Y:  127 | Z:  127 | Rz:  129 | Rx:    0 | Ry:    0 | 0xff000020:  154 | Hat switch:   8 | Button: 0  0  0  0  0  0  0  0  0  0  0  0  0  0  0 | 0xff000021: 0 , 0 , 0 , 0 , 0 , 0 , 0 , 0 , 0 , 0 , 0 , 0 , 0 | 0xff000022:  119 ,  221 ,   41 ,  235 ,  247 ,  255 ,  239 ,  255 ,   11 ,    0 ,   55 ,    0 ,   80 ,   31 ,   70 ,    5 ,  217 ,  142 ,   10 ,  190 ,    7 ,  128 ,    0 ,    0 ,    0 ,  128 ,    0 ,    0 ,    0 ,    0 ,    9 ,    9 ,    0 ,    0 ,    0 ,    0 ,    0 ,  193 ,  169 ,   10 ,  190 ,   40 ,    8 ,    0 ,  167 ,  150 ,  216 ,  180 ,  237 ,  120 ,  144 ,  186 
E: 000000.339271 64 01 81 7f 7f 81 00 00 9a 08 00 00 00 77 dd 29 eb f7 ff ef ff 0b 00 37 00 50 1f 46 05 d9 8e 0a be 07 80 00 00 00 80 00 00 00 00 09 09 00 00 00 00 00 c1 a9 0a be 28 08 00 a7 96 d8 b4 ed 78 90 ba
# ReportID: 1 / X:  129 | Y:  127 | Z:  127 | Rz:  129 | Rx:    0 | Ry:    0 | 0xff000020:  155 | Hat switch:   8 | Button: 0  0  0  0  0  0  0  0  0  0  0  0  0  0  0 | 0xff000021: 0 , 0 , 0 , 0 , 0 , 0 , 0 , 0 , 0 , 0 , 0 , 0 , 0 | 0xff000022:  120 ,  221 ,   41 ,  235 ,  247 ,  255 ,  238 ,  255 ,   12 ,    0 ,   54 ,    0 ,   73 ,   31 ,   69 ,    5 ,  204 ,  189 ,   10 ,  190 ,    7 ,  128 ,    0 ,    0 ,    0 ,  128 ,    0 ,    0 ,    0 ,    0 ,    9 ,    9 ,    0 ,    0 ,    0 ,    0 ,    0 ,  161 ,  216 ,   10 ,  190 ,   40 ,    8 ,    0 ,   42 ,  125 ,  149 ,  191 ,  119 ,   18 ,  218 ,  161 
E: 000000.343054 64 01 81 7f 7f 81 00 00 9b 08 00 00 00 78 dd 29 eb f7 ff ee ff 0c 00 36 00 49 1f 45 05 cc bd 0a be 07 80 00 00 00 80 00 00 00 00 09 09 00 00 00 00 00 a1 d8 0a be 28 08 00 2a 7d 95 bf 77 12 da a1
# ReportID: 1 / X:  129 | Y:  127 | Z:  127 | Rz:  129 | Rx:    0 | Ry:    0 | 0xff000020:  156 | Hat switch:   8 | Button: 0  0  0  0  0  0  0  0  0  0  0  0  0  0  0 | 0xff000021: 0 , 0 , 0 , 0 , 0 , 0 , 0 , 0 , 0 , 0 , 0 , 0 , 0 | 0xff000022:  121 ,  221 ,   41 ,  235 ,  246 ,  255 ,  237 ,  255 ,   11 ,    0 ,   52 ,    0 ,   82 ,   31 ,   63 ,    5 ,  191 ,  236 ,   10 ,  190 ,    7 ,  128 ,    0 ,    0 ,    0 ,  128 ,    0 ,    0 ,    0 ,    0 ,    9 ,    9 ,    0 ,    0 ,    0 ,    0 ,    0 ,  129 ,    7 ,   11 ,  190 ,   40 ,    8 ,    0 ,  211 ,  182 ,  183 ,  179 ,  176 ,  172 ,   65 ,  107 
E: 000000.346888 64 01 81 7f 7f 81 00 00 9c 08 00 00 00 79 dd 29 eb f6 ff ed ff 0b 00 34 00 52 1f 3f 05 bf ec 0a be 07 80 00 00 00 80 00 00 00 00 09 09 00 00 00 00 00 81 07 0b be 28 08 00 d3 b6 b7 b3 b0 ac 41 6b
# ReportID: 1 / X:  129 | Y:  127 | Z:  127 | Rz:  129 | Rx:    0 | Ry:    0 | 0xff000020:  157 | Hat switch:   8 | Button: 0  0  0  0  0  0  0  0  0  0  0  0  0  0  0 | 0xff000021: 0 , 0 , 0 , 0 , 0 , 0 , 0 , 0 , 0 , 0 , 0 , 0 , 0 | 0xff000022:  122 ,  221 ,   41 ,  235 ,  246 ,  255 ,  238 ,  255 ,   11 ,    0 ,   49 ,    0 ,   81 ,   31 ,   53 ,    5 ,  178 ,   27 ,   11 ,  190 ,    7 ,  128 ,    0 ,    0 ,    0 ,  128 ,    0 ,    0 ,    0 ,    0 ,    9 ,    9 ,    0 ,    0 ,    0 ,    0 ,    0 ,   97 ,   54 ,   11 ,  190 ,   40 ,    8 ,    0 ,   22 ,  104 ,  100 ,  221 ,   54 ,   97 ,  105 ,  101 
E: 000000.350317 64 01 81 7f 7f 81 00 00 9d 08 00 00 00 7a dd 29 eb f6 ff ee ff 0b 00 31 00 51 1f 35 05 b2 1b 0b be 07 80 00 00 00 80 00 00 00 00 09 09 00 00 00 00 00 61 36 0b be 28 08 00 16 68 64 dd 36 61 69 65
# ReportID: 1 / X:  129 | Y:  127 | Z:  128 | Rz:  129 | Rx:    0 | Ry:    0 | 0xff000020:  158 | Hat switch:   8 | Button: 0  0  0  0  0  0  0  0  0  0  0  0  0  0  0 | 0xff000021: 0 , 0 , 0 , 0 , 0 , 0 , 0 , 0 , 0 , 0 , 0 , 0 , 0 | 0xff000022:  123 ,  221 ,   41 ,  235 ,  247 ,  255 ,  237 ,  255 ,   11 ,    0 ,   51 ,    0 ,   85 ,   31 ,   65 ,    5 ,  165 ,   74 ,   11 ,  190 ,    7 ,  128 ,    0 ,    0 ,    0 ,  128 ,    0 ,    0 ,    0 ,    0 ,    9 ,    9 ,    0 ,    0 ,    0 ,    0 ,    0 ,   65 ,  101 ,   11 ,  190 ,   40 ,    8 ,    0 ,    2 ,   80 ,   28 ,   69 ,   67 ,  234 ,   96 ,  198 
E: 000000.353845 64 01 81 7f 80 81 00 00 9e 08 00 00 00 7b dd 29 eb f7 ff ed ff 0b 00 33 00 55 1f 41 05 a5 4a 0b be 07 80 00 00 00 80 00 00 00 00 09 09 00 00 00 00 00 41 65 0b be 28 08 00 02 50 1c 45 43 ea 60 c6
# ReportID: 1 / X:  129 | Y:  127 | Z:  127 | Rz:  129 | Rx:    0 | Ry:    0 | 0xff000020:  159 | Hat switch:   8 | Button: 0  0  0  0  0  0  0  0  0  0  0  0  0  0  0 | 0xff000021: 0 , 0 , 0 , 0 , 0 , 0 , 0 , 0 , 0 , 0 , 0 , 0 , 0 | 0xff000022:  124 ,  221 ,   41 ,  235 ,  247 ,  255 ,  238 ,  255 ,   11 ,    0 ,   53 ,    0 ,   85 ,   31 ,   53 ,    5 ,  152 ,  121 ,   11 ,  190 ,    7 ,  128 ,    0 ,    0 ,    0 ,  128 ,    0 ,    0 ,    0 ,    0 ,    9 ,    9 ,    0 ,    0 ,    0 ,    0 ,    0 ,   33 ,  148 ,   11 ,  190 ,   40 ,    8 ,    0 ,  160 ,  190 ,    9 ,   51 ,   10 ,  238 ,   38 ,   37 
E: 000000.357612 64 01 81 7f 7f 81 00 00 9f 08 00 00 00 7c dd 29 eb f7 ff ee ff 0b 00 35 00 55 1f 35 05 98 79 0b be 07 80 00 00 00 80 00 00 00 00 09 09 00 00 00 00 00 21 94 0b be 28 08 00 a0 be 09 33 0a ee 26 25
# ReportID: 1 / X:  129 | Y:  127 | Z:  127 | Rz:  129 | Rx:    0 | Ry:    0 | 0xff000020:  160 | Hat switch:   8 | Button: 0  0  0  0  0  0  0  0  0  0  0  0  0  0  0 | 0xff000021: 0 , 0 , 0 , 0 , 0 , 0 , 0 , 0 , 0 , 0 , 0 , 0 , 0 | 0xff000022:  125 ,  221 ,   41 ,  235 ,  247 ,  255 ,  238 ,  255 ,   11 ,    0 ,   48 ,    0 ,   86 ,   31 ,   50 ,    5 ,  139 ,  168 ,   11 ,  190 ,    7 ,  128 ,    0 ,    0 ,    0 ,  128 ,    0 ,    0 ,    0 ,    0 ,    9 ,    9 ,    0 ,    0 ,    0 ,    0 ,    0 ,    1 ,  195 ,   11 ,  190 ,   40 ,    8 ,    0 ,   74 ,  189 ,  177 ,  159 ,   21 ,   43 ,  106 ,   23 
E: 000000.361392 64 01 81 7f 7f 81 00 00 a0 08 00 00 00 7d dd 29 eb f7 ff ee ff 0b 00 30 00 56 1f 32 05 8b a8 0b be 07 80 00 00 00 80 00 00 00 00 09 09 00 00 00 00 00 01 c3 0b be 28 08 00 4a bd b1 9f 15 2b 6a 17
# ReportID: 1 / X:  129 | Y:  126 | Z:  127 | Rz:  129 | Rx:    0 | Ry:    0 | 0xff000020:  161 | Hat switch:   8 | Button: 0  0  0  0  0  0  0  0  0  0  0  0  0  0  0 | 0xff000021: 0 , 0 , 0 , 0 , 0 , 0 , 0 , 0 , 0 , 0 , 0 , 0 , 0 | 0xff000022:  126 ,  221 ,   41 ,  235 ,  247 ,  255 ,  237 ,  255 ,   10 ,    0 ,   40 ,    0 ,   82 ,   31 ,   54 ,    5 ,  126 ,  215 ,   11 ,  190 ,    7 ,  128 ,    0 ,    0 ,    0 ,  128 ,    0 ,    0 ,    0 ,    0 ,    9 ,    9 ,    0 ,    0 ,    0 ,    0 ,    0 ,  225 ,  241 ,   11 ,  190 ,   40 ,    8 ,    0 ,  237 ,  151 ,  154 ,  163 ,  249 ,  190 ,   15 ,  193 
E: 000000.366940 64 01 81 7e 7f 81 00 00 a1 08 00 00 00 7e dd 29 eb f7 ff ed ff 0a 00 28 00 52 1f 36 05 7e d7 0b be 07 80 00 00 00 80 00 00 00 00 09 09 00 00 00 00 00 e1 f1 0b be 28 08 00 ed 97 9a a3 f9 be 0f c1
# ReportID: 1 / X:  129 | Y:  126 | Z:  127 | Rz:  129 | Rx:    0 | Ry:    0 | 0xff000020:  162 | Hat switch:   8 | Button: 0  0  0  0  0  0  0  0  0  0  0  0  0  0  0 | 0xff000021: 0 , 0 , 0 , 0 , 0 , 0 , 0 , 0 , 0 , 0 , 0 , 0 , 0 | 0xff000022:  127 ,  221 ,   41 ,  235 ,  247 ,  255 ,  238 ,  255 ,   10 ,    0 ,   34 ,    0 ,   86 ,   31 ,   54 ,    5 ,  113 ,    6 ,   12 ,  190 ,    7 ,  128 ,    0 ,    0 ,    0 ,  128 ,    0 ,    0 ,    0 ,    0 ,    9 ,    9 ,    0 ,    0 ,    0 ,    0 ,    0 ,  193 ,   32 ,   12 ,  190 ,   40 ,    8 ,    0 ,   89 ,  160 ,  249 ,  214 ,  184 ,  106 ,  108 ,  252 
E: 000000.370837 64 01 81 7e 7f 81 00 00 a2 08 00 00 00 7f dd 29 eb f7 ff ee ff 0a 00 22 00 56 1f 36 05 71 06 0c be 07 80 00 00 00 80 00 00 00 00 09 09 00 00 00 00 00 c1 20 0c be 28 08 00 59 a0 f9 d6 b8 6a 6c fc
# ReportID: 1 / X:  129 | Y:  127 | Z:  128 | Rz:  129 | Rx:    0 | Ry:    0 | 0xff000020:  163 | Hat switch:   8 | Button: 0  0  0  0  0  0  0  0  0  0  0  0  0  0  0 | 0xff000021: 0 , 0 , 0 , 0 , 0 , 0 , 0 , 0 , 0 , 0 , 0 , 0 , 0 | 0xff000022:  128 ,  221 ,   41 ,  235 ,  246 ,  255 ,  238 ,  255 ,   11 ,    0 ,   40 ,    0 ,   90 ,   31 ,   55 ,    5 ,  100 ,   53 ,   12 ,  190 ,    7 ,  128 ,    0 ,    0 ,    0 ,  128 ,    0 ,    0 ,    0 ,    0 ,    9 ,    9 ,    0 ,    0 ,    0 ,    0 ,    0 ,  161 ,   79 ,   12 ,  190 ,   40 ,    8 ,    0 ,  112 ,   61 ,  226 ,  140 ,  165 ,  108 ,  177 ,   83 
E: 000000.375161 64 01 81 7f 80 81 00 00 a3 08 00 00 00 80 dd 29 eb f6 ff ee ff 0b 00 28 00 5a 1f 37 05 64 35 0c be 07 80 00 00 00 80 00 00 00 00 09 09 00 00 00 00 00 a1 4f 0c be 28 08 00 70 3d e2 8c a5 6c b1 53
# ReportID: 1 / X:  129 | Y:  126 | Z:  127 | Rz:  129 | Rx:    0 | Ry:    0 | 0xff000020:  164 | Hat switch:   8 | Button: 0  0  0  0  0  0  0  0  0  0  0  0  0  0  0 | 0xff000021: 0 , 0 , 0 , 0 , 0 , 0 , 0 , 0 , 0 , 0 , 0 , 0 , 0 | 0xff000022:  129 ,  221 ,   41 ,  235 ,  246 ,  255 ,  238 ,  255 ,   11 ,    0 ,   42 ,    0 ,   84 ,   31 ,   46 ,    5 ,   87 ,  100 ,   12 ,  190 ,    7 ,  128 ,    0 ,    0 ,    0 ,  128 ,    0 ,    0 ,    0 ,    0 ,    9 ,    9 ,    0 ,    0 ,    0 ,    0 ,    0 ,  129 ,  126 ,   12 ,  190 ,   40 ,    8 ,    0 ,  207 ,   71 ,   83 ,  146 ,  118 ,  136 ,  176 ,  145 
E: 000000.378146 64 01 81 7e 7f 81 00 00 a4 08 00 00 00 81 dd 29 eb f6 ff ee ff 0b 00 2a 00 54 1f 2e 05 57 64 0c be 07 80 00 00 00 80 00 00 00 00 09 09 00 00 00 00 00 81 7e 0c be 28 08 00 cf 47 53 92 76 88 b0 91
# ReportID: 1 / X:  129 | Y:  127 | Z:  127 | Rz:  129 | Rx:    0 | Ry:    0 | 0xff000020:  165 | Hat switch:   8 | Button: 0  0  0  0  0  0  0  0  0  0  0  0  0  0  0 | 0xff000021: 0 , 0 , 0 , 0 , 0 , 0 , 0 , 0 , 0 , 0 , 0 , 0 , 0 | 0xff000022:  130 ,  221 ,   41 ,  235 ,  247 ,  255 ,  239 ,  255 ,   10 ,    0 ,   39 ,    0 ,   93 ,   31 ,   47 ,    5 ,   74 ,  147 ,   12 ,  190 ,    7 ,  128 ,    0 ,    0 ,    0 ,  128 ,    0 ,    0 ,    0 ,    0 ,    9 ,    9 ,    0 ,    0 ,    0 ,    0 ,    0 ,   97 ,  173 ,   12 ,  190 ,   40 ,    8 ,    0 ,  206 ,   15 ,  123 ,  228 ,  223 ,  210 ,  131 ,   85 
E: 000000.381391 64 01 81 7f 7f 81 00 00 a5 08 00 00 00 82 dd 29 eb f7 ff ef ff 0a 00 27 00 5d 1f 2f 05 4a 93 0c be 07 80 00 00 00 80 00 00 00 00 09 09 00 00 00 00 00 61 ad 0c be 28 08 00 ce 0f 7b e4 df d2 83 55
# ReportID: 1 / X:  129 | Y:  127 | Z:  127 | Rz:  129 | Rx:    0 | Ry:    0 | 0xff000020:  166 | Hat switch:   8 | Button: 0  0  0  0  0  0  0  0  0  0  0  0  0  0  0 | 0xff000021: 0 , 0 , 0 , 0 , 0 , 0 , 0 , 0 , 0 , 0 , 0 , 0 , 0 | 0xff000022:  131 ,  221 ,   41 ,  235 ,  247 ,  255 ,  239 ,  255 ,   12 ,    0 ,   47 ,    0 ,   95 ,   31 ,   45 ,    5 ,   61 ,  194 ,   12 ,  190 ,    7 ,  128 ,    0 ,    0 ,    0 ,  128 ,    0 ,    0 ,    0 ,    0 ,    9 ,    9 ,    0 ,    0 ,    0 ,    0 ,    0 ,   65 ,  220 ,   12 ,  190 ,   40 ,    8 ,    0 ,  115 ,  222 ,   54 ,  251 ,  215 ,  216 ,   38 ,  184 
E: 000000.386943 64 01 81 7f 7f 81 00 00 a6 08 00 00 00 83 dd 29 eb f7 ff ef ff 0c 00 2f 00 5f 1f 2d 05 3d c2 0c be 07 80 00 00 00 80 00 00 00 00 09 09 00 00 00 00 00 41 dc 0c be 28 08 00 73 de 36 fb d7 d8 26 b8
# ReportID: 1 / X:  129 | Y:  127 | Z:  128 | Rz:  129 | Rx:    0 | Ry:    0 | 0xff000020:  167 | Hat switch:   8 | Button: 0  0  0  0  0  0  0  0  0  0  0  0  0  0  0 | 0xff000021: 0 , 0 , 0 , 0 , 0 , 0 , 0 , 0 , 0 , 0 , 0 , 0 , 0 | 0xff000022:  132 ,  221 ,   41 ,  235 ,  246 ,  255 ,  238 ,  255 ,   10 ,    0 ,   49 ,    0 ,   91 ,   31 ,   43 ,    5 ,   48 ,  241 ,   12 ,  190 ,    7 ,  128 ,    0 ,    0 ,    0 ,  128 ,    0 ,    0 ,    0 ,    0 ,    9 ,    9 ,    0 ,    0 ,    0 ,    0 ,    0 ,   33 ,   11 ,   13 ,  190 ,   40 ,    8 ,    0 ,  196 ,  124 ,  124 ,    3 ,  239 ,   53 ,   82 ,   82 
E: 000000.389984 64 01 81 7f 80 81 00 00 a7 08 00 00 00 84 dd 29 eb f6 ff ee ff 0a 00 31 00 5b 1f 2b 05 30 f1 0c be 07 80 00 00 00 80 00 00 00 00 09 09 00 00 00 00 00 21 0b 0d be 28 08 00 c4 7c 7c 03 ef 35 52 52
# ReportID: 1 / X:  129 | Y:  127 | Z:  127 | Rz:  129 | Rx:    0 | Ry:    0 | 0xff000020:  168 | Hat switch:   8 | Button: 0  0  0  0  0  0  0  0  0  0  0  0  0  0  0 | 0xff000021: 0 , 0 , 0 , 0 , 0 , 0 , 0 , 0 , 0 , 0 , 0 , 0 , 0 | 0xff000022:  133 ,  221 ,   41 ,  235 ,  247 ,  255 ,  238 ,  255 ,   10 ,    0 ,   53 ,    0 ,   90 ,   31 ,   49 ,    5 ,   35 ,   32 ,   13 ,  190 ,    7 ,  128 ,    0 ,    0 ,    0 ,  128 ,    0 ,    0 ,    0 ,    0 ,    9 ,    9 ,    0 ,    0 ,    0 ,    0 ,    0 ,    1 ,   58 ,   13 ,  190 ,   40 ,    8 ,    0 ,  198 ,  222 ,   62 ,  224 ,   46 ,  242 ,  245 ,   90 
E: 000000.393627 64 01 81 7f 7f 81 00 00 a8 08 00 00 00 85 dd 29 eb f7 ff ee ff 0a 00 35 00 5a 1f 31 05 23 20 0d be 07 80 00 00 00 80 00 00 00 00 09 09 00 00 00 00 00 01 3a 0d be 28 08 00 c6 de 3e e0 2e f2 f5 5a
# ReportID: 1 / X:  129 | Y:  126 | Z:  127 | Rz:  129 | Rx:    0 | Ry:    0 | 0xff000020:  169 | Hat switch:   8 | Button: 0  0  0  0  0  0  0  0  0  0  0  0  0  0  0 | 0xff000021: 0 , 0 , 0 , 0 , 0 , 0 , 0 , 0 , 0 , 0 , 0 , 0 , 0 | 0xff000022:  134 ,  221 ,   41 ,  235 ,  246 ,  255 ,  238 ,  255 ,   11 ,    0 ,   55 ,    0 ,   91 ,   31 ,   41 ,    5 ,   22 ,   79 ,   13 ,  190 ,    7 ,  128 ,    0 ,    0 ,    0 ,  128 ,    0 ,    0 ,    0 ,    0 ,    9 ,    9 ,    0 ,    0 ,    0 ,    0 ,    0 ,  225 ,  104 ,   13 ,  190 ,   40 ,    8 ,    0 ,  114 ,  214 ,   19 ,  240 ,  228 ,  222 ,   22 ,  230 
E: 000000.397464 64 01 81 7e 7f 81 00 00 a9 08 00 00 00 86 dd 29 eb f6 ff ee ff 0b 00 37 00 5b 1f 29 05 16 4f 0d be 07 80 00 00 00 80 00 00 00 00 09 09 00 00 00 00 00 e1 68 0d be 28 08 00 72 d6 13 f0 e4 de 16 e6
# ReportID: 1 / X:  129 | Y:  127 | Z:  128 | Rz:  129 | Rx:    0 | Ry:    0 | 0xff000020:  170 | Hat switch:   8 | Button: 0  0  0  0  0  0  0  0  0  0  0  0  0  0  0 | 0xff000021: 0 , 0 , 0 , 0 , 0 , 0 , 0 , 0 , 0 , 0 , 0 , 0 , 0 | 0xff000022:  135 ,  221 ,   41 ,  235 ,  246 ,  255 ,  238 ,  255 ,   11 ,    0 ,   56 ,    0 ,   92 ,   31 ,   56 ,    5 ,    9 ,  126 ,   13 ,  190 ,    7 ,  128 ,    0 ,    0 ,    0 ,  128 ,    0 ,    0 ,    0 ,    0 ,    9 ,    9 ,    0 ,    0 ,    0 ,    0 ,    0 ,  193 ,  151 ,   13 ,  190 ,   40 ,    8 ,    0 ,  160 ,  167 ,  148 ,  112 ,  149 ,  231 ,  120 ,  135 
E: 000000.402973 64 01 81 7f 80 81 00 00 aa 08 00 00 00 87 dd 29 eb f6 ff ee ff 0b 00 38 00 5c 1f 38 05 09 7e 0d be 07 80 00 00 00 80 00 00 00 00 09 09 00 00 00 00 00 c1 97 0d be 28 08 00 a0 a7 94 70 95 e7 78 87
# ReportID: 1 / X:  129 | Y:  126 | Z:  127 | Rz:  129 | Rx:    0 | Ry:    0 | 0xff000020:  171 | Hat switch:   8 | Button: 0  0  0  0  0  0  0  0  0  0  0  0  0  0  0 | 0xff000021: 0 , 0 , 0 , 0 , 0 , 0 , 0 , 0 , 0 , 0 , 0 , 0 , 0 | 0xff000022:  136 ,  221 ,   41 ,  235 ,  245 ,  255 ,  238 ,  255 ,   11 ,    0 ,   54 ,    0 ,   95 ,   31 ,   50 ,    5 ,  252 ,  172 ,   13 ,  190 ,    7 ,  128 ,    0 ,    0 ,    0 ,  128 ,    0 ,    0 ,    0 ,    0 ,    9 ,    9 ,    0 ,    0 ,    0 ,    0 ,    0 ,  161 ,  198 ,   13 ,  190 ,   40 ,    8 ,    0 ,   20 ,  200 ,  103 ,  119 ,  235 ,  201 ,  144 ,  198 
E: 000000.405968 64 01 81 7e 7f 81 00 00 ab 08 00 00 00 88 dd 29 eb f5 ff ee ff 0b 00 36 00 5f 1f 32 05 fc ac 0d be 07 80 00 00 00 80 00 00 00 00 09 09 00 00 00 00 00 a1 c6 0d be 28 08 00 14 c8 67 77 eb c9 90 c6
# ReportID: 1 / X:  129 | Y:  127 | Z:  127 | Rz:  129 | Rx:    0 | Ry:    0 | 0xff000020:  172 | Hat switch:   8 | Button: 0  0  0  0  0  0  0  0  0  0  0  0  0  0  0 | 0xff000021: 0 , 0 , 0 , 0 , 0 , 0 , 0 , 0 , 0 , 0 , 0 , 0 , 0 | 0xff000022:  137 ,  221 ,   41 ,  235 ,  246 ,  255 ,  238 ,  255 ,   11 ,    0 ,   61 ,    0 ,   89 ,   31 ,   42 ,    5 ,  239 ,  219 ,   13 ,  190 ,    7 ,  128 ,    0 ,    0 ,    0 ,  128 ,    0 ,    0 ,    0 ,    0 ,    9 ,    9 ,    0 ,    0 ,    0 ,    0 ,    0 ,  129 ,  245 ,   13 ,  190 ,   40 ,    8 ,    0 ,  108 ,    9 ,  185 ,   15 ,  209 ,   17 ,  195 ,  206 
E: 000000.409763 64 01 81 7f 7f 81 00 00 ac 08 00 00 00 89 dd 29 eb f6 ff ee ff 0b 00 3d 00 59 1f 2a 05 ef db 0d be 07 80 00 00 00 80 00 00 00 00 09 09 00 00 00 00 00 81 f5 0d be 28 08 00 6c 09 b9 0f d1 11 c3 ce
# ReportID: 1 / X:  129 | Y:  127 | Z:  127 | Rz:  129 | Rx:    0 | Ry:    0 | 0xff000020:  173 | Hat switch:   8 | Button: 0  0  0  0  0  0  0  0  0  0  0  0  0  0  0 | 0xff000021: 0 , 0 , 0 , 0 , 0 , 0 , 0 , 0 , 0 , 0 , 0 , 0 , 0 | 0xff000022:  138 ,  221 ,   41 ,  235 ,  247 ,  255 ,  238 ,  255 ,   11 ,    0 ,   58 ,    0 ,   82 ,   31 ,   49 ,    5 ,  226 ,   10 ,   14 ,  190 ,    7 ,  128 ,    0 ,    0 ,    0 ,  128 ,    0 ,    0 ,    0 ,    0 ,    9 ,    9 ,    0 ,    0 ,    0 ,    0 ,    0 ,   97 ,   36 ,   14 ,  190 ,   40 ,    8 ,    0 ,  134 ,   71 ,   79 ,  121 ,  138 ,    3 ,   71 ,  161 
E: 000000.414914 64 01 81 7f 7f 81 00 00 ad 08 00 00 00 8a dd 29 eb f7 ff ee ff 0b 00 3a 00 52 1f 31 05 e2 0a 0e be 07 80 00 00 00 80 00 00 00 00 09 09 00 00 00 00 00 61 24 0e be 28 08 00 86 47 4f 79 8a 03 47 a1
# ReportID: 1 / X:  129 | Y:  127 | Z:  128 | Rz:  129 | Rx:    0 | Ry:    0 | 0xff000020:  174 | Hat switch:   8 | Button: 0  0  0  0  0  0  0  0  0  0  0  0  0  0  0 | 0xff000021: 0 , 0 , 0 , 0 , 0 , 0 , 0 , 0 , 0 , 0 , 0 , 0 , 0 | 0xff000022:  139 ,  221 ,   41 ,  235 ,  246 ,  255 ,  238 ,  255 ,   11 ,    0 ,   62 ,    0 ,   83 ,   31 ,   59 ,    5 ,  213 ,   57 ,   14 ,  190 ,    7 ,  128 ,    0 ,    0 ,    0 ,  128 ,    0 ,    0 ,    0 ,    0 ,    9 ,    9 ,    0 ,    0 ,    0 ,    0 ,    0 ,   65 ,   83 ,   14 ,  190 ,   40 ,    8 ,    0 ,    8 ,   90 ,  161 ,  165 ,   88 ,  219 ,  161 ,  133 
E: 000000.417957 64 01 81 7f 80 81 00 00 ae 08 00 00 00 8b dd 29 eb f6 ff ee ff 0b 00 3e 00 53 1f 3b 05 d5 39 0e be 07 80 00 00 00 80 00 00 00 00 09 09 00 00 00 00 00 41 53 0e be 28 08 00 08 5a a1 a5 58 db a1 85
# ReportID: 1 / X:  129 | Y:  127 | Z:  127 | Rz:  129 | Rx:    0 | Ry:    0 | 0xff000020:  175 | Hat switch:   8 | Button: 0  0  0  0  0  0  0  0  0  0  0  0  0  0  0 | 0xff000021: 0 , 0 , 0 , 0 , 0 , 0 , 0 , 0 , 0 , 0 , 0 , 0 , 0 | 0xff000022:  140 ,  221 ,   41 ,  235 ,  247 ,  255 ,  239 ,  255 ,   11 ,    0 ,   63 ,    0 ,   85 ,   31 ,   60 ,    5 ,  200 ,  104 ,   14 ,  190 ,    7 ,  128 ,    0 ,    0 ,    0 ,  128 ,    0 ,    0 ,    0 ,    0 ,    9 ,    9 ,    0 ,    0 ,    0 ,    0 ,    0 ,   33 ,  130 ,   14 ,  190 ,   40 ,    8 ,    0 ,  206 ,  135 ,  230 ,  249 ,  131 ,    8 ,  133 ,   48 
E: 000000.421448 64 01 81 7f 7f 81 00 00 af 08 00 00 00 8c dd 29 eb f7 ff ef ff 0b 00 3f 00 55 1f 3c 05 c8 68 0e be 07 80 00 00 00 80 00 00 00 00 09 09 00 00 00 00 00 21 82 0e be 28 08 00 ce 87 e6 f9 83 08 85 30
# ReportID: 1 / X:  129 | Y:  127 | Z:  127 | Rz:  129 | Rx:    0 | Ry:    0 | 0xff000020:  176 | Hat switch:   8 | Button: 0  0  0  0  0  0  0  0  0  0  0  0  0  0  0 | 0xff000021: 0 , 0 , 0 , 0 , 0 , 0 , 0 , 0 , 0 , 0 , 0 , 0 , 0 | 0xff000022:  141 ,  221 ,   41 ,  235 ,  245 ,  255 ,  239 ,  255 ,   10 ,    0 ,   56 ,    0 ,   36 ,   31 ,   33 ,    5 ,  187 ,  151 ,   14 ,  190 ,    7 ,  128 ,    0 ,    0 ,    0 ,  128 ,    0 ,    0 ,    0 ,    0 ,    9 ,    9 ,    0 ,    0 ,    0 ,    0 ,    0 ,   12 ,  177 ,   14 ,  190 ,   40 ,    8 ,    0 ,   46 ,  229 ,  171 ,  106 ,  180 ,   63 ,  104 ,  187 
E: 000000.427301 64 01 81 7f 7f 81 00 00 b0 08 00 00 00 8d dd 29 eb f5 ff ef ff 0a 00 38 00 24 1f 21 05 bb 97 0e be 07 80 00 00 00 80 00 00 00 00 09 09 00 00 00 00 00 0c b1 0e be 28 08 00 2e e5 ab 6a b4 3f 68 bb
