# NVTK0603:00 0603:F200
# 0x05, 0x0d,                    // Usage Page (Digitizers)             0
# 0x09, 0x04,                    // Usage (Touch Screen)                2
# 0xa1, 0x01,                    // Collection (Application)            4
# 0x85, 0x01,                    //  Report ID (1)                      6
# 0x05, 0x0d,                    //  Usage Page (Digitizers)            8
# 0x09, 0x22,                    //  Usage (Finger)                     10
# 0xa1, 0x02,                    //  Collection (Logical)               12
# 0x09, 0x42,                    //   Usage (Tip Switch)                14
# 0x75, 0x01,                    //   Report Size (1)                   16
# 0x95, 0x01,                    //   Report Count (1)                  18
# 0x15, 0x00,                    //   Logical Minimum (0)               20
# 0x25, 0x01,                    //   Logical Maximum (1)               22
# 0x81, 0x02,                    //   Input (Data,Var,Abs)              24
# 0x09, 0x51,                    //   Usage (Contact Id)                26
# 0x25, 0x0a,                    //   Logical Maximum (10)              28
# 0x75, 0x07,                    //   Report Size (7)                   30
# 0x95, 0x01,                    //   Report Count (1)                  32
# 0x81, 0x02,                    //   Input (Data,Var,Abs)              34
# 0x05, 0x01,                    //   Usage Page (Generic Desktop)      36
# 0x26, 0x80, 0x07,              //   Logical Maximum (1920)            38
# 0x75, 0x0c,                    //   Report Size (12)                  41
# 0x55, 0x0d,                    //   Unit Exponent (-3)                43
# 0x65, 0x11,                    //   Unit (SILinear: cm)               45
# 0x09, 0x30,                    //   Usage (X)                         47
# 0x35, 0x00,                    //   Physical Minimum (0)              49
# 0x47, 0x46, 0x43, 0x00, 0x00,  //   Physical Maximum (17222)          51
# 0x95, 0x01,                    //   Report Count (1)                  56
# 0x81, 0x02,                    //   Input (Data,Var,Abs)              58
# 0x47, 0x0c, 0x2a, 0x00, 0x00,  //   Physical Maximum (10764)          60
# 0x09, 0x31,                    //   Usage (Y)                         65
# 0x26, 0xb0, 0x04,              //   Logical Maximum (1200)            67
# 0x81, 0x02,                    //   Input (Data,Var,Abs)              70
# 0xc0,                          //  End Collection                     72
# 0x05, 0x0d,                    //  Usage Page (Digitizers)            73
# 0x09, 0x22,                    //  Usage (Finger)                     75
# 0xa1, 0x02,                    //  Collection (Logical)               77
# 0x09, 0x42,                    //   Usage (Tip Switch)                79
# 0x75, 0x01,                    //   Report Size (1)                   81
# 0x95, 0x01,                    //   Report Count (1)                  83
# 0x15, 0x00,                    //   Logical Minimum (0)               85
# 0x25, 0x01,                    //   Logical Maximum (1)               87
# 0x81, 0x02,                    //   Input (Data,Var,Abs)              89
# 0x09, 0x51,                    //   Usage (Contact Id)                91
# 0x25, 0x0a,                    //   Logical Maximum (10)              93
# 0x75, 0x07,                    //   Report Size (7)                   95
# 0x95, 0x01,                    //   Report Count (1)                  97
# 0x81, 0x02,                    //   Input (Data,Var,Abs)              99
# 0x05, 0x01,                    //   Usage Page (Generic Desktop)      101
# 0x26, 0x80, 0x07,              //   Logical Maximum (1920)            103
# 0x75, 0x0c,                    //   Report Size (12)                  106
# 0x55, 0x0d,                    //   Unit Exponent (-3)                108
# 0x65, 0x11,                    //   Unit (SILinear: cm)               110
# 0x09, 0x30,                    //   Usage (X)                         112
# 0x35, 0x00,                    //   Physical Minimum (0)              114
# 0x47, 0x46, 0x43, 0x00, 0x00,  //   Physical Maximum (17222)          116
# 0x95, 0x01,                    //   Report Count (1)                  121
# 0x81, 0x02,                    //   Input (Data,Var,Abs)              123
# 0x47, 0x0c, 0x2a, 0x00, 0x00,  //   Physical Maximum (10764)          125
# 0x09, 0x31,                    //   Usage (Y)                         130
# 0x26, 0xb0, 0x04,              //   Logical Maximum (1200)            132
# 0x81, 0x02,                    //   Input (Data,Var,Abs)              135
# 0xc0,                          //  End Collection                     137
# 0x05, 0x0d,                    //  Usage Page (Digitizers)            138
# 0x09, 0x22,                    //  Usage (Finger)                     140
# 0xa1, 0x02,                    //  Collection (Logical)               142
# 0x09, 0x42,                    //   Usage (Tip Switch)                144
# 0x75, 0x01,                    //   Report Size (1)                   146
# 0x95, 0x01,                    //   Report Count (1)                  148
# 0x15, 0x00,                    //   Logical Minimum (0)               150
# 0x25, 0x01,                    //   Logical Maximum (1)               152
# 0x81, 0x02,                    //   Input (Data,Var,Abs)              154
# 0x09, 0x51,                    //   Usage (Contact Id)                156
# 0x25, 0x0a,                    //   Logical Maximum (10)              158
# 0x75, 0x07,                    //   Report Size (7)                   160
# 0x95, 0x01,                    //   Report Count (1)                  162
# 0x81, 0x02,                    //   Input (Data,Var,Abs)              164
# 0x05, 0x01,                    //   Usage Page (Generic Desktop)      166
# 0x26, 0x80, 0x07,              //   Logical Maximum (1920)            168
# 0x75, 0x0c,                    //   Report Size (12)                  171
# 0x55, 0x0d,                    //   Unit Exponent (-3)                173
# 0x65, 0x11,                    //   Unit (SILinear: cm)               175
# 0x09, 0x30,                    //   Usage (X)                         177
# 0x35, 0x00,                    //   Physical Minimum (0)              179
# 0x47, 0x46, 0x43, 0x00, 0x00,  //   Physical Maximum (17222)          181
# 0x95, 0x01,                    //   Report Count (1)                  186
# 0x81, 0x02,                    //   Input (Data,Var,Abs)              188
# 0x47, 0x0c, 0x2a, 0x00, 0x00,  //   Physical Maximum (10764)          190
# 0x09, 0x31,                    //   Usage (Y)                         195
# 0x26, 0xb0, 0x04,              //   Logical Maximum (1200)            197
# 0x81, 0x02,                    //   Input (Data,Var,Abs)              200
# 0xc0,                          //  End Collection                     202
# 0x05, 0x0d,                    //  Usage Page (Digitizers)            203
# 0x09, 0x22,                    //  Usage (Finger)                     205
# 0xa1, 0x02,                    //  Collection (Logical)               207
# 0x09, 0x42,                    //   Usage (Tip Switch)                209
# 0x75, 0x01,                    //   Report Size (1)                   211
# 0x95, 0x01,                    //   Report Count (1)                  213
# 0x15, 0x00,                    //   Logical Minimum (0)               215
# 0x25, 0x01,                    //   Logical Maximum (1)               217
# 0x81, 0x02,                    //   Input (Data,Var,Abs)              219
# 0x09, 0x51,                    //   Usage (Contact Id)                221
# 0x25, 0x0a,                    //   Logical Maximum (10)              223
# 0x75, 0x07,                    //   Report Size (7)                   225
# 0x95, 0x01,                    //   Report Count (1)                  227
# 0x81, 0x02,                    //   Input (Data,Var,Abs)              229
# 0x05, 0x01,                    //   Usage Page (Generic Desktop)      231
# 0x26, 0x80, 0x07,              //   Logical Maximum (1920)            233
# 0x75, 0x0c,                    //   Report Size (12)                  236
# 0x55, 0x0d,                    //   Unit Exponent (-3)                238
# 0x65, 0x11,                    //   Unit (SILinear: cm)               240
# 0x09, 0x30,                    //   Usage (X)                         242
# 0x35, 0x00,                    //   Physical Minimum (0)              244
# 0x47, 0x46, 0x43, 0x00, 0x00,  //   Physical Maximum (17222)          246
# 0x95, 0x01,                    //   Report Count (1)                  251
# 0x81, 0x02,                    //   Input (Data,Var,Abs)              253
# 0x47, 0x0c, 0x2a, 0x00, 0x00,  //   Physical Maximum (10764)          255
# 0x09, 0x31,                    //   Usage (Y)                         260
# 0x26, 0xb0, 0x04,              //   Logical Maximum (1200)            262
# 0x81, 0x02,                    //   Input (Data,Var,Abs)              265
# 0xc0,                          //  End Collection                     267
# 0x05, 0x0d,                    //  Usage Page (Digitizers)            268
# 0x09, 0x22,                    //  Usage (Finger)                     270
# 0xa1, 0x02,                    //  Collection (Logical)               272
# 0x09, 0x42,                    //   Usage (Tip Switch)                274
# 0x75, 0x01,                    //   Report Size (1)                   276
# 0x95, 0x01,                    //   Report Count (1)                  278
# 0x15, 0x00,                    //   Logical Minimum (0)               280
# 0x25, 0x01,                    //   Logical Maximum (1)               282
# 0x81, 0x02,                    //   Input (Data,Var,Abs)              284
# 0x09, 0x51,                    //   Usage (Contact Id)                286
# 0x25, 0x0a,                    //   Logical Maximum (10)              288
# 0x75, 0x07,                    //   Report Size (7)                   290
# 0x95, 0x01,                    //   Report Count (1)                  292
# 0x81, 0x02,                    //   Input (Data,Var,Abs)              294
# 0x05, 0x01,                    //   Usage Page (Generic Desktop)      296
# 0x26, 0x80, 0x07,              //   Logical Maximum (1920)            298
# 0x75, 0x0c,                    //   Report Size (12)                  301
# 0x55, 0x0d,                    //   Unit Exponent (-3)                303
# 0x65, 0x11,                    //   Unit (SILinear: cm)               305
# 0x09, 0x30,                    //   Usage (X)                         307
# 0x35, 0x00,                    //   Physical Minimum (0)              309
# 0x47, 0x46, 0x43, 0x00, 0x00,  //   Physical Maximum (17222)          311
# 0x95, 0x01,                    //   Report Count (1)                  316
# 0x81, 0x02,                    //   Input (Data,Var,Abs)              318
# 0x47, 0x0c, 0x2a, 0x00, 0x00,  //   Physical Maximum (10764)          320
# 0x09, 0x31,                    //   Usage (Y)                         325
# 0x26, 0xb0, 0x04,              //   Logical Maximum (1200)            327
# 0x81, 0x02,                    //   Input (Data,Var,Abs)              330
# 0xc0,                          //  End Collection                     332
# 0x05, 0x0d,                    //  Usage Page (Digitizers)            333
# 0x09, 0x22,                    //  Usage (Finger)                     335
# 0xa1, 0x02,                    //  Collection (Logical)               337
# 0x09, 0x42,                    //   Usage (Tip Switch)                339
# 0x75, 0x01,                    //   Report Size (1)                   341
# 0x95, 0x01,                    //   Report Count (1)                  343
# 0x15, 0x00,                    //   Logical Minimum (0)               345
# 0x25, 0x01,                    //   Logical Maximum (1)               347
# 0x81, 0x02,                    //   Input (Data,Var,Abs)              349
# 0x09, 0x51,                    //   Usage (Contact Id)                351
# 0x25, 0x0a,                    //   Logical Maximum (10)              353
# 0x75, 0x07,                    //   Report Size (7)                   355
# 0x95, 0x01,                    //   Report Count (1)                  357
# 0x81, 0x02,                    //   Input (Data,Var,Abs)              359
# 0x05, 0x01,                    //   Usage Page (Generic Desktop)      361
# 0x26, 0x80, 0x07,              //   Logical Maximum (1920)            363
# 0x75, 0x0c,                    //   Report Size (12)                  366
# 0x55, 0x0d,                    //   Unit Exponent (-3)                368
# 0x65, 0x11,                    //   Unit (SILinear: cm)               370
# 0x09, 0x30,                    //   Usage (X)                         372
# 0x35, 0x00,                    //   Physical Minimum (0)              374
# 0x47, 0x46, 0x43, 0x00, 0x00,  //   Physical Maximum (17222)          376
# 0x95, 0x01,                    //   Report Count (1)                  381
# 0x81, 0x02,                    //   Input (Data,Var,Abs)              383
# 0x47, 0x0c, 0x2a, 0x00, 0x00,  //   Physical Maximum (10764)          385
# 0x09, 0x31,                    //   Usage (Y)                         390
# 0x26, 0xb0, 0x04,              //   Logical Maximum (1200)            392
# 0x81, 0x02,                    //   Input (Data,Var,Abs)              395
# 0xc0,                          //  End Collection                     397
# 0x05, 0x0d,                    //  Usage Page (Digitizers)            398
# 0x09, 0x22,                    //  Usage (Finger)                     400
# 0xa1, 0x02,                    //  Collection (Logical)               402
# 0x09, 0x42,                    //   Usage (Tip Switch)                404
# 0x75, 0x01,                    //   Report Size (1)                   406
# 0x95, 0x01,                    //   Report Count (1)                  408
# 0x15, 0x00,                    //   Logical Minimum (0)               410
# 0x25, 0x01,                    //   Logical Maximum (1)               412
# 0x81, 0x02,                    //   Input (Data,Var,Abs)              414
# 0x09, 0x51,                    //   Usage (Contact Id)                416
# 0x25, 0x0a,                    //   Logical Maximum (10)              418
# 0x75, 0x07,                    //   Report Size (7)                   420
# 0x95, 0x01,                    //   Report Count (1)                  422
# 0x81, 0x02,                    //   Input (Data,Var,Abs)              424
# 0x05, 0x01,                    //   Usage Page (Generic Desktop)      426
# 0x26, 0x80, 0x07,              //   Logical Maximum (1920)            428
# 0x75, 0x0c,                    //   Report Size (12)                  431
# 0x55, 0x0d,                    //   Unit Exponent (-3)                433
# 0x65, 0x11,                    //   Unit (SILinear: cm)               435
# 0x09, 0x30,                    //   Usage (X)                         437
# 0x35, 0x00,                    //   Physical Minimum (0)              439
# 0x47, 0x46, 0x43, 0x00, 0x00,  //   Physical Maximum (17222)          441
# 0x95, 0x01,                    //   Report Count (1)                  446
# 0x81, 0x02,                    //   Input (Data,Var,Abs)              448
# 0x47, 0x0c, 0x2a, 0x00, 0x00,  //   Physical Maximum (10764)          450
# 0x09, 0x31,                    //   Usage (Y)                         455
# 0x26, 0xb0, 0x04,              //   Logical Maximum (1200)            457
# 0x81, 0x02,                    //   Input (Data,Var,Abs)              460
# 0xc0,                          //  End Collection                     462
# 0x05, 0x0d,                    //  Usage Page (Digitizers)            463
# 0x09, 0x22,                    //  Usage (Finger)                     465
# 0xa1, 0x02,                    //  Collection (Logical)               467
# 0x09, 0x42,                    //   Usage (Tip Switch)                469
# 0x75, 0x01,                    //   Report Size (1)                   471
# 0x95, 0x01,                    //   Report Count (1)                  473
# 0x15, 0x00,                    //   Logical Minimum (0)               475
# 0x25, 0x01,                    //   Logical Maximum (1)               477
# 0x81, 0x02,                    //   Input (Data,Var,Abs)              479
# 0x09, 0x51,                    //   Usage (Contact Id)                481
# 0x25, 0x0a,                    //   Logical Maximum (10)              483
# 0x75, 0x07,                    //   Report Size (7)                   485
# 0x95, 0x01,                    //   Report Count (1)                  487
# 0x81, 0x02,                    //   Input (Data,Var,Abs)              489
# 0x05, 0x01,                    //   Usage Page (Generic Desktop)      491
# 0x26, 0x80, 0x07,              //   Logical Maximum (1920)            493
# 0x75, 0x0c,                    //   Report Size (12)                  496
# 0x55, 0x0d,                    //   Unit Exponent (-3)                498
# 0x65, 0x11,                    //   Unit (SILinear: cm)               500
# 0x09, 0x30,                    //   Usage (X)                         502
# 0x35, 0x00,                    //   Physical Minimum (0)              504
# 0x47, 0x46, 0x43, 0x00, 0x00,  //   Physical Maximum (17222)          506
# 0x95, 0x01,                    //   Report Count (1)                  511
# 0x81, 0x02,                    //   Input (Data,Var,Abs)              513
# 0x47, 0x0c, 0x2a, 0x00, 0x00,  //   Physical Maximum (10764)          515
# 0x09, 0x31,                    //   Usage (Y)                         520
# 0x26, 0xb0, 0x04,              //   Logical Maximum (1200)            522
# 0x81, 0x02,                    //   Input (Data,Var,Abs)              525
# 0xc0,                          //  End Collection                     527
# 0x05, 0x0d,                    //  Usage Page (Digitizers)            528
# 0x09, 0x22,                    //  Usage (Finger)                     530
# 0xa1, 0x02,                    //  Collection (Logical)               532
# 0x09, 0x42,                    //   Usage (Tip Switch)                534
# 0x75, 0x01,                    //   Report Size (1)                   536
# 0x95, 0x01,                    //   Report Count (1)                  538
# 0x15, 0x00,                    //   Logical Minimum (0)               540
# 0x25, 0x01,                    //   Logical Maximum (1)               542
# 0x81, 0x02,                    //   Input (Data,Var,Abs)              544
# 0x09, 0x51,                    //   Usage (Contact Id)                546
# 0x25, 0x0a,                    //   Logical Maximum (10)              548
# 0x75, 0x07,                    //   Report Size (7)                   550
# 0x95, 0x01,                    //   Report Count (1)                  552
# 0x81, 0x02,                    //   Input (Data,Var,Abs)              554
# 0x05, 0x01,                    //   Usage Page (Generic Desktop)      556
# 0x26, 0x80, 0x07,              //   Logical Maximum (1920)            558
# 0x75, 0x0c,                    //   Report Size (12)                  561
# 0x55, 0x0d,                    //   Unit Exponent (-3)                563
# 0x65, 0x11,                    //   Unit (SILinear: cm)               565
# 0x09, 0x30,                    //   Usage (X)                         567
# 0x35, 0x00,                    //   Physical Minimum (0)              569
# 0x47, 0x46, 0x43, 0x00, 0x00,  //   Physical Maximum (17222)          571
# 0x95, 0x01,                    //   Report Count (1)                  576
# 0x81, 0x02,                    //   Input (Data,Var,Abs)              578
# 0x47, 0x0c, 0x2a, 0x00, 0x00,  //   Physical Maximum (10764)          580
# 0x09, 0x31,                    //   Usage (Y)                         585
# 0x26, 0xb0, 0x04,              //   Logical Maximum (1200)            587
# 0x81, 0x02,                    //   Input (Data,Var,Abs)              590
# 0xc0,                          //  End Collection                     592
# 0x05, 0x0d,                    //  Usage Page (Digitizers)            593
# 0x09, 0x22,                    //  Usage (Finger)                     595
# 0xa1, 0x02,                    //  Collection (Logical)               597
# 0x09, 0x42,                    //   Usage (Tip Switch)                599
# 0x75, 0x01,                    //   Report Size (1)                   601
# 0x95, 0x01,                    //   Report Count (1)                  603
# 0x15, 0x00,                    //   Logical Minimum (0)               605
# 0x25, 0x01,                    //   Logical Maximum (1)               607
# 0x81, 0x02,                    //   Input (Data,Var,Abs)              609
# 0x09, 0x51,                    //   Usage (Contact Id)                611
# 0x25, 0x0a,                    //   Logical Maximum (10)              613
# 0x75, 0x07,                    //   Report Size (7)                   615
# 0x95, 0x01,                    //   Report Count (1)                  617
# 0x81, 0x02,                    //   Input (Data,Var,Abs)              619
# 0x05, 0x01,                    //   Usage Page (Generic Desktop)      621
# 0x26, 0x80, 0x07,              //   Logical Maximum (1920)            623
# 0x75, 0x0c,                    //   Report Size (12)                  626
# 0x55, 0x0d,                    //   Unit Exponent (-3)                628
# 0x65, 0x11,                    //   Unit (SILinear: cm)               630
# 0x09, 0x30,                    //   Usage (X)                         632
# 0x35, 0x00,                    //   Physical Minimum (0)              634
# 0x47, 0x46, 0x43, 0x00, 0x00,  //   Physical Maximum (17222)          636
# 0x95, 0x01,                    //   Report Count (1)                  641
# 0x81, 0x02,                    //   Input (Data,Var,Abs)              643
# 0x47, 0x0c, 0x2a, 0x00, 0x00,  //   Physical Maximum (10764)          645
# 0x09, 0x31,                    //   Usage (Y)                         650
# 0x26, 0xb0, 0x04,              //   Logical Maximum (1200)            652
# 0x81, 0x02,                    //   Input (Data,Var,Abs)              655
# 0xc0,                          //  End Collection                     657
# 0x05, 0x0d,                    //  Usage Page (Digitizers)            658
# 0x55, 0x0c,                    //  Unit Exponent (-4)                 660
# 0x66, 0x01, 0x10,              //  Unit (SILinear: s)                 662
# 0x47, 0xff, 0xff, 0x00, 0x00,  //  Physical Maximum (65535)           665
# 0x27, 0xff, 0xff, 0x00, 0x00,  //  Logical Maximum (65535)            670
# 0x75, 0x10,                    //  Report Size (16)                   675
# 0x95, 0x01,                    //  Report Count (1)                   677
# 0x09, 0x56,                    //  Usage (Scan Time)                  679
# 0x81, 0x02,                    //  Input (Data,Var,Abs)               681
# 0x05, 0x0d,                    //  Usage Page (Digitizers)            683
# 0x09, 0x54,                    //  Usage (Contact Count)              685
# 0x15, 0x00,                    //  Logical Minimum (0)                687
# 0x25, 0x7f,                    //  Logical Maximum (127)              689
# 0x95, 0x01,                    //  Report Count (1)                   691
# 0x75, 0x08,                    //  Report Size (8)                    693
# 0x81, 0x02,                    //  Input (Data,Var,Abs)               695
# 0x05, 0x0d,                    //  Usage Page (Digitizers)            697
# 0x09, 0x55,                    //  Usage (Contact Max)                699
# 0x85, 0x02,                    //  Report ID (2)                      701
# 0x95, 0x01,                    //  Report Count (1)                   703
# 0x25, 0x0a,                    //  Logical Maximum (10)               705
# 0xb1, 0x02,                    //  Feature (Data,Var,Abs)             707
# 0x85, 0x03,                    //  Report ID (3)                      709
# 0x06, 0x00, 0xff,              //  Usage Page (Vendor Defined Page 1) 711
# 0x09, 0xc5,                    //  Usage (Vendor Usage 0xc5)          714
# 0x15, 0x00,                    //  Logical Minimum (0)                716
# 0x26, 0xff, 0x00,              //  Logical Maximum (255)              718
# 0x75, 0x08,                    //  Report Size (8)                    721
# 0x96, 0x00, 0x01,              //  Report Count (256)                 723
# 0xb1, 0x02,                    //  Feature (Data,Var,Abs)             726
# 0xc0,                          // End Collection                      728
# 0x06, 0x00, 0xff,              // Usage Page (Vendor Defined Page 1)  729
# 0x09, 0x01,                    // Usage (Vendor Usage 1)              732
# 0xa1, 0x01,                    // Collection (Application)            734
# 0x09, 0x0b,                    //  Usage (Vendor Usage 0x0b)          736
# 0x85, 0x0b,                    //  Report ID (11)                     738
# 0x15, 0x00,                    //  Logical Minimum (0)                740
# 0x26, 0xff, 0x00,              //  Logical Maximum (255)              742
# 0x75, 0x08,                    //  Report Size (8)                    745
# 0x96, 0x2c, 0x01,              //  Report Count (300)                 747
# 0xb1, 0x02,                    //  Feature (Data,Var,Abs)             750
# 0x09, 0x0c,                    //  Usage (Vendor Usage 0x0c)          752
# 0x85, 0x0c,                    //  Report ID (12)                     754
# 0x96, 0x08, 0x00,              //  Report Count (8)                   756
# 0xb1, 0x02,                    //  Feature (Data,Var,Abs)             759
# 0x09, 0x0d,                    //  Usage (Vendor Usage 0x0d)          761
# 0x85, 0x0d,                    //  Report ID (13)                     763
# 0x96, 0x19, 0x00,              //  Report Count (25)                  765
# 0xb1, 0x02,                    //  Feature (Data,Var,Abs)             768
# 0x09, 0x0e,                    //  Usage (Vendor Usage 0x0e)          770
# 0x85, 0x0e,                    //  Report ID (14)                     772
# 0x96, 0x87, 0x00,              //  Report Count (135)                 774
# 0xb1, 0x02,                    //  Feature (Data,Var,Abs)             777
# 0x09, 0x11,                    //  Usage (Vendor Usage 0x11)          779
# 0x85, 0x11,                    //  Report ID (17)                     781
# 0x96, 0x0a, 0x00,              //  Report Count (10)                  783
# 0xb1, 0x02,                    //  Feature (Data,Var,Abs)             786
# 0x09, 0x12,                    //  Usage (Vendor Usage 0x12)          788
# 0x85, 0x12,                    //  Report ID (18)                     790
# 0x96, 0x0a, 0x00,              //  Report Count (10)                  792
# 0xb1, 0x02,                    //  Feature (Data,Var,Abs)             795
# 0xc0,                          // End Collection                      797
# 0x06, 0x00, 0xff,              // Usage Page (Vendor Defined Page 1)  798
# 0x09, 0x02,                    // Usage (Vendor Usage 2)              801
# 0xa1, 0x01,                    // Collection (Application)            803
# 0xc0,                          // End Collection                      805
# 
R: 806 05 0d 09 04 a1 01 85 01 05 0d 09 22 a1 02 09 42 75 01 95 01 15 00 25 01 81 02 09 51 25 0a 75 07 95 01 81 02 05 01 26 80 07 75 0c 55 0d 65 11 09 30 35 00 47 46 43 00 00 95 01 81 02 47 0c 2a 00 00 09 31 26 b0 04 81 02 c0 05 0d 09 22 a1 02 09 42 75 01 95 01 15 00 25 01 81 02 09 51 25 0a 75 07 95 01 81 02 05 01 26 80 07 75 0c 55 0d 65 11 09 30 35 00 47 46 43 00 00 95 01 81 02 47 0c 2a 00 00 09 31 26 b0 04 81 02 c0 05 0d 09 22 a1 02 09 42 75 01 95 01 15 00 25 01 81 02 09 51 25 0a 75 07 95 01 81 02 05 01 26 80 07 75 0c 55 0d 65 11 09 30 35 00 47 46 43 00 00 95 01 81 02 47 0c 2a 00 00 09 31 26 b0 04 81 02 c0 05 0d 09 22 a1 02 09 42 75 01 95 01 15 00 25 01 81 02 09 51 25 0a 75 07 95 01 81 02 05 01 26 80 07 75 0c 55 0d 65 11 09 30 35 00 47 46 43 00 00 95 01 81 02 47 0c 2a 00 00 09 31 26 b0 04 81 02 c0 05 0d 09 22 a1 02 09 42 75 01 95 01 15 00 25 01 81 02 09 51 25 0a 75 07 95 01 81 02 05 01 26 80 07 75 0c 55 0d 65 11 09 30 35 00 47 46 43 00 00 95 01 81 02 47 0c 2a 00 00 09 31 26 b0 04 81 02 c0 05 0d 09 22 a1 02 09 42 75 01 95 01 15 00 25 01 81 02 09 51 25 0a 75 07 95 01 81 02 05 01 26 80 07 75 0c 55 0d 65 11 09 30 35 00 47 46 43 00 00 95 01 81 02 47 0c 2a 00 00 09 31 26 b0 04 81 02 c0 05 0d 09 22 a1 02 09 42 75 01 95 01 15 00 25 01 81 02 09 51 25 0a 75 07 95 01 81 02 05 01 26 80 07 75 0c 55 0d 65 11 09 30 35 00 47 46 43 00 00 95 01 81 02 47 0c 2a 00 00 09 31 26 b0 04 81 02 c0 05 0d 09 22 a1 02 09 42 75 01 95 01 15 00 25 01 81 02 09 51 25 0a 75 07 95 01 81 02 05 01 26 80 07 75 0c 55 0d 65 11 09 30 35 00 47 46 43 00 00 95 01 81 02 47 0c 2a 00 00 09 31 26 b0 04 81 02 c0 05 0d 09 22 a1 02 09 42 75 01 95 01 15 00 25 01 81 02 09 51 25 0a 75 07 95 01 81 02 05 01 26 80 07 75 0c 55 0d 65 11 09 30 35 00 47 46 43 00 00 95 01 81 02 47 0c 2a 00 00 09 31 26 b0 04 81 02 c0 05 0d 09 22 a1 02 09 42 75 01 95 01 15 00 25 01 81 02 09 51 25 0a 75 07 95 01 81 02 05 01 26 80 07 75 0c 55 0d 65 11 09 30 35 00 47 46 43 00 00 95 01 81 02 47 0c 2a 00 00 09 31 26 b0 04 81 02 c0 05 0d 55 0c 66 01 10 47 ff ff 00 00 27 ff ff 00 00 75 10 95 01 09 56 81 02 05 0d 09 54 15 00 25 7f 95 01 75 08 81 02 05 0d 09 55 85 02 95 01 25 0a b1 02 85 03 06 00 ff 09 c5 15 00 26 ff 00 75 08 96 00 01 b1 02 c0 06 00 ff 09 01 a1 01 09 0b 85 0b 15 00 26 ff 00 75 08 96 2c 01 b1 02 09 0c 85 0c 96 08 00 b1 02 09 0d 85 0d 96 19 00 b1 02 09 0e 85 0e 96 87 00 b1 02 09 11 85 11 96 0a 00 b1 02 09 12 85 12 96 0a 00 b1 02 c0 06 00 ff 09 02 a1 01 c0
N: NVTK0603:00 0603:F200
I: 18 0603 f200
# ReportID: 1 / Tip Switch: 1 | Contact Id:    1 | X:     0 | Y:    67 
#             | Tip Switch: 0 | Contact Id:    0 | X:     0 | Y:     0 
#             | Tip Switch: 0 | Contact Id:    0 | X:     0 | Y:     0 
#             | Tip Switch: 0 | Contact Id:    0 | X:     0 | Y:     0 
#             | Tip Switch: 0 | Contact Id:    0 | X:     0 | Y:     0 
#             | Tip Switch: 0 | Contact Id:    0 | X:     0 | Y:     0 
#             | Tip Switch: 0 | Contact Id:    0 | X:     0 | Y:     0 
#             | Tip Switch: 0 | Contact Id:    0 | X:     0 | Y:     0 
#             | Tip Switch: 0 | Contact Id:    0 | X:     0 | Y:     0 
#             | Tip Switch: 0 | Contact Id:    0 | X:     0 | Y:     0 | Scan Time:   1764 | Contact Count:    1 
E: 000000.000000 44 01 03 00 30 04 00 00 00 00 00 00 00 00 00 00 00 00 00 00 00 00 00 00 00 00 00 00 00 00 00 00 00 00 00 00 00 00 00 00 00 00 e4 06 01
# ReportID: 1 / Tip Switch: 1 | Contact Id:    1 | X:     0 | Y:    67 
#             | Tip Switch: 0 | Contact Id:    0 | X:     0 | Y:     0 
#             | Tip Switch: 0 | Contact Id:    0 | X:     0 | Y:     0 
#             | Tip Switch: 0 | Contact Id:    0 | X:     0 | Y:     0 
#             | Tip Switch: 0 | Contact Id:    0 | X:     0 | Y:     0 
#             | Tip Switch: 0 | Contact Id:    0 | X:     0 | Y:     0 
#             | Tip Switch: 0 | Contact Id:    0 | X:     0 | Y:     0 
#             | Tip Switch: 0 | Contact Id:    0 | X:     0 | Y:     0 
#             | Tip Switch: 0 | Contact Id:    0 | X:     0 | Y:     0 
#             | Tip Switch: 0 | Contact Id:    0 | X:     0 | Y:     0 | Scan Time:   1932 | Contact Count:    1 
E: 000000.005501 44 01 03 00 30 04 00 00 00 00 00 00 00 00 00 00 00 00 00 00 00 00 00 00 00 00 00 00 00 00 00 00 00 00 00 00 00 00 00 00 00 00 8c 07 01
# ReportID: 1 / Tip Switch: 1 | Contact Id:    1 | X:     0 | Y:    67 
#             | Tip Switch: 0 | Contact Id:    0 | X:     0 | Y:     0 
#             | Tip Switch: 0 | Contact Id:    0 | X:     0 | Y:     0 
#             | Tip Switch: 0 | Contact Id:    0 | X:     0 | Y:     0 
#             | Tip Switch: 0 | Contact Id:    0 | X:     0 | Y:     0 
#             | Tip Switch: 0 | Contact Id:    0 | X:     0 | Y:     0 
#             | Tip Switch: 0 | Contact Id:    0 | X:     0 | Y:     0 
#             | Tip Switch: 0 | Contact Id:    0 | X:     0 | Y:     0 
#             | Tip Switch: 0 | Contact Id:    0 | X:     0 | Y:     0 
#             | Tip Switch: 0 | Contact Id:    0 | X:     0 | Y:     0 | Scan Time:   2010 | Contact Count:    1 
E: 000000.013296 44 01 03 00 30 04 00 00 00 00 00 00 00 00 00 00 00 00 00 00 00 00 00 00 00 00 00 00 00 00 00 00 00 00 00 00 00 00 00 00 00 00 da 07 01
# ReportID: 1 / Tip Switch: 1 | Contact Id:    1 | X:     0 | Y:    67 
#             | Tip Switch: 0 | Contact Id:    0 | X:     0 | Y:     0 
#             | Tip Switch: 0 | Contact Id:    0 | X:     0 | Y:     0 
#             | Tip Switch: 0 | Contact Id:    0 | X:     0 | Y:     0 
#             | Tip Switch: 0 | Contact Id:    0 | X:     0 | Y:     0 
#             | Tip Switch: 0 | Contact Id:    0 | X:     0 | Y:     0 
#             | Tip Switch: 0 | Contact Id:    0 | X:     0 | Y:     0 
#             | Tip Switch: 0 | Contact Id:    0 | X:     0 | Y:     0 
#             | Tip Switch: 0 | Contact Id:    0 | X:     0 | Y:     0 
#             | Tip Switch: 0 | Contact Id:    0 | X:     0 | Y:     0 | Scan Time:   2100 | Contact Count:    1 
E: 000000.022352 44 01 03 00 30 04 00 00 00 00 00 00 00 00 00 00 00 00 00 00 00 00 00 00 00 00 00 00 00 00 00 00 00 00 00 00 00 00 00 00 00 00 34 08 01
# ReportID: 1 / Tip Switch: 1 | Contact Id:    1 | X:     0 | Y:    67 
#             | Tip Switch: 0 | Contact Id:    0 | X:     0 | Y:     0 
#             | Tip Switch: 0 | Contact Id:    0 | X:     0 | Y:     0 
#             | Tip Switch: 0 | Contact Id:    0 | X:     0 | Y:     0 
#             | Tip Switch: 0 | Contact Id:    0 | X:     0 | Y:     0 
#             | Tip Switch: 0 | Contact Id:    0 | X:     0 | Y:     0 
#             | Tip Switch: 0 | Contact Id:    0 | X:     0 | Y:     0 
#             | Tip Switch: 0 | Contact Id:    0 | X:     0 | Y:     0 
#             | Tip Switch: 0 | Contact Id:    0 | X:     0 | Y:     0 
#             | Tip Switch: 0 | Contact Id:    0 | X:     0 | Y:     0 | Scan Time:   2178 | Contact Count:    1 
E: 000000.030246 44 01 03 00 30 04 00 00 00 00 00 00 00 00 00 00 00 00 00 00 00 00 00 00 00 00 00 00 00 00 00 00 00 00 00 00 00 00 00 00 00 00 82 08 01
# ReportID: 1 / Tip Switch: 1 | Contact Id:    1 | X:     0 | Y:    67 
#             | Tip Switch: 0 | Contact Id:    0 | X:     0 | Y:     0 
#             | Tip Switch: 0 | Contact Id:    0 | X:     0 | Y:     0 
#             | Tip Switch: 0 | Contact Id:    0 | X:     0 | Y:     0 
#             | Tip Switch: 0 | Contact Id:    0 | X:     0 | Y:     0 
#             | Tip Switch: 0 | Contact Id:    0 | X:     0 | Y:     0 
#             | Tip Switch: 0 | Contact Id:    0 | X:     0 | Y:     0 
#             | Tip Switch: 0 | Contact Id:    0 | X:     0 | Y:     0 
#             | Tip Switch: 0 | Contact Id:    0 | X:     0 | Y:     0 
#             | Tip Switch: 0 | Contact Id:    0 | X:     0 | Y:     0 | Scan Time:   2255 | Contact Count:    1 
E: 000000.038017 44 01 03 00 30 04 00 00 00 00 00 00 00 00 00 00 00 00 00 00 00 00 00 00 00 00 00 00 00 00 00 00 00 00 00 00 00 00 00 00 00 00 cf 08 01
# ReportID: 1 / Tip Switch: 1 | Contact Id:    1 | X:     0 | Y:    67 
#             | Tip Switch: 0 | Contact Id:    0 | X:     0 | Y:     0 
#             | Tip Switch: 0 | Contact Id:    0 | X:     0 | Y:     0 
#             | Tip Switch: 0 | Contact Id:    0 | X:     0 | Y:     0 
#             | Tip Switch: 0 | Contact Id:    0 | X:     0 | Y:     0 
#             | Tip Switch: 0 | Contact Id:    0 | X:     0 | Y:     0 
#             | Tip Switch: 0 | Contact Id:    0 | X:     0 | Y:     0 
#             | Tip Switch: 0 | Contact Id:    0 | X:     0 | Y:     0 
#             | Tip Switch: 0 | Contact Id:    0 | X:     0 | Y:     0 
#             | Tip Switch: 0 | Contact Id:    0 | X:     0 | Y:     0 | Scan Time:   2346 | Contact Count:    1 
E: 000000.047142 44 01 03 00 30 04 00 00 00 00 00 00 00 00 00 00 00 00 00 00 00 00 00 00 00 00 00 00 00 00 00 00 00 00 00 00 00 00 00 00 00 00 2a 09 01
# ReportID: 1 / Tip Switch: 1 | Contact Id:    1 | X:     0 | Y:    67 
#             | Tip Switch: 0 | Contact Id:    0 | X:     0 | Y:     0 
#             | Tip Switch: 0 | Contact Id:    0 | X:     0 | Y:     0 
#             | Tip Switch: 0 | Contact Id:    0 | X:     0 | Y:     0 
#             | Tip Switch: 0 | Contact Id:    0 | X:     0 | Y:     0 
#             | Tip Switch: 0 | Contact Id:    0 | X:     0 | Y:     0 
#             | Tip Switch: 0 | Contact Id:    0 | X:     0 | Y:     0 
#             | Tip Switch: 0 | Contact Id:    0 | X:     0 | Y:     0 
#             | Tip Switch: 0 | Contact Id:    0 | X:     0 | Y:     0 
#             | Tip Switch: 0 | Contact Id:    0 | X:     0 | Y:     0 | Scan Time:   2424 | Contact Count:    1 
E: 000000.054972 44 01 03 00 30 04 00 00 00 00 00 00 00 00 00 00 00 00 00 00 00 00 00 00 00 00 00 00 00 00 00 00 00 00 00 00 00 00 00 00 00 00 78 09 01
# ReportID: 1 / Tip Switch: 1 | Contact Id:    1 | X:     0 | Y:    67 
#             | Tip Switch: 0 | Contact Id:    0 | X:     0 | Y:     0 
#             | Tip Switch: 0 | Contact Id:    0 | X:     0 | Y:     0 
#             | Tip Switch: 0 | Contact Id:    0 | X:     0 | Y:     0 
#             | Tip Switch: 0 | Contact Id:    0 | X:     0 | Y:     0 
#             | Tip Switch: 0 | Contact Id:    0 | X:     0 | Y:     0 
#             | Tip Switch: 0 | Contact Id:    0 | X:     0 | Y:     0 
#             | Tip Switch: 0 | Contact Id:    0 | X:     0 | Y:     0 
#             | Tip Switch: 0 | Contact Id:    0 | X:     0 | Y:     0 
#             | Tip Switch: 0 | Contact Id:    0 | X:     0 | Y:     0 | Scan Time:   2514 | Contact Count:    1 
E: 000000.064010 44 01 03 00 30 04 00 00 00 00 00 00 00 00 00 00 00 00 00 00 00 00 00 00 00 00 00 00 00 00 00 00 00 00 00 00 00 00 00 00 00 00 d2 09 01
# ReportID: 1 / Tip Switch: 1 | Contact Id:    1 | X:     0 | Y:    67 
#             | Tip Switch: 0 | Contact Id:    0 | X:     0 | Y:     0 
#             | Tip Switch: 0 | Contact Id:    0 | X:     0 | Y:     0 
#             | Tip Switch: 0 | Contact Id:    0 | X:     0 | Y:     0 
#             | Tip Switch: 0 | Contact Id:    0 | X:     0 | Y:     0 
#             | Tip Switch: 0 | Contact Id:    0 | X:     0 | Y:     0 
#             | Tip Switch: 0 | Contact Id:    0 | X:     0 | Y:     0 
#             | Tip Switch: 0 | Contact Id:    0 | X:     0 | Y:     0 
#             | Tip Switch: 0 | Contact Id:    0 | X:     0 | Y:     0 
#             | Tip Switch: 0 | Contact Id:    0 | X:     0 | Y:     0 | Scan Time:   2592 | Contact Count:    1 
E: 000000.071897 44 01 03 00 30 04 00 00 00 00 00 00 00 00 00 00 00 00 00 00 00 00 00 00 00 00 00 00 00 00 00 00 00 00 00 00 00 00 00 00 00 00 20 0a 01
# ReportID: 1 / Tip Switch: 1 | Contact Id:    1 | X:     0 | Y:    67 
#             | Tip Switch: 0 | Contact Id:    0 | X:     0 | Y:     0 
#             | Tip Switch: 0 | Contact Id:    0 | X:     0 | Y:     0 
#             | Tip Switch: 0 | Contact Id:    0 | X:     0 | Y:     0 
#             | Tip Switch: 0 | Contact Id:    0 | X:     0 | Y:     0 
#             | Tip Switch: 0 | Contact Id:    0 | X:     0 | Y:     0 
#             | Tip Switch: 0 | Contact Id:    0 | X:     0 | Y:     0 
#             | Tip Switch: 0 | Contact Id:    0 | X:     0 | Y:     0 
#             | Tip Switch: 0 | Contact Id:    0 | X:     0 | Y:     0 
#             | Tip Switch: 0 | Contact Id:    0 | X:     0 | Y:     0 | Scan Time:   2669 | Contact Count:    1 
E: 000000.079655 44 01 03 00 30 04 00 00 00 00 00 00 00 00 00 00 00 00 00 00 00 00 00 00 00 00 00 00 00 00 00 00 00 00 00 00 00 00 00 00 00 00 6d 0a 01
# ReportID: 1 / Tip Switch: 1 | Contact Id:    1 | X:     0 | Y:    67 
#             | Tip Switch: 0 | Contact Id:    0 | X:     0 | Y:     0 
#             | Tip Switch: 0 | Contact Id:    0 | X:     0 | Y:     0 
#             | Tip Switch: 0 | Contact Id:    0 | X:     0 | Y:     0 
#             | Tip Switch: 0 | Contact Id:    0 | X:     0 | Y:     0 
#             | Tip Switch: 0 | Contact Id:    0 | X:     0 | Y:     0 
#             | Tip Switch: 0 | Contact Id:    0 | X:     0 | Y:     0 
#             | Tip Switch: 0 | Contact Id:    0 | X:     0 | Y:     0 
#             | Tip Switch: 0 | Contact Id:    0 | X:     0 | Y:     0 
#             | Tip Switch: 0 | Contact Id:    0 | X:     0 | Y:     0 | Scan Time:   2759 | Contact Count:    1 
E: 000000.088797 44 01 03 00 30 04 00 00 00 00 00 00 00 00 00 00 00 00 00 00 00 00 00 00 00 00 00 00 00 00 00 00 00 00 00 00 00 00 00 00 00 00 c7 0a 01
# ReportID: 1 / Tip Switch: 1 | Contact Id:    1 | X:     1 | Y:    67 
#             | Tip Switch: 0 | Contact Id:    0 | X:     0 | Y:     0 
#             | Tip Switch: 0 | Contact Id:    0 | X:     0 | Y:     0 
#             | Tip Switch: 0 | Contact Id:    0 | X:     0 | Y:     0 
#             | Tip Switch: 0 | Contact Id:    0 | X:     0 | Y:     0 
#             | Tip Switch: 0 | Contact Id:    0 | X:     0 | Y:     0 
#             | Tip Switch: 0 | Contact Id:    0 | X:     0 | Y:     0 
#             | Tip Switch: 0 | Contact Id:    0 | X:     0 | Y:     0 
#             | Tip Switch: 0 | Contact Id:    0 | X:     0 | Y:     0 
#             | Tip Switch: 0 | Contact Id:    0 | X:     0 | Y:     0 | Scan Time:   2837 | Contact Count:    1 
E: 000000.096598 44 01 03 01 30 04 00 00 00 00 00 00 00 00 00 00 00 00 00 00 00 00 00 00 00 00 00 00 00 00 00 00 00 00 00 00 00 00 00 00 00 00 15 0b 01
# ReportID: 1 / Tip Switch: 1 | Contact Id:    1 | X:     3 | Y:    68 
#             | Tip Switch: 0 | Contact Id:    0 | X:     0 | Y:     0 
#             | Tip Switch: 0 | Contact Id:    0 | X:     0 | Y:     0 
#             | Tip Switch: 0 | Contact Id:    0 | X:     0 | Y:     0 
#             | Tip Switch: 0 | Contact Id:    0 | X:     0 | Y:     0 
#             | Tip Switch: 0 | Contact Id:    0 | X:     0 | Y:     0 
#             | Tip Switch: 0 | Contact Id:    0 | X:     0 | Y:     0 
#             | Tip Switch: 0 | Contact Id:    0 | X:     0 | Y:     0 
#             | Tip Switch: 0 | Contact Id:    0 | X:     0 | Y:     0 
#             | Tip Switch: 0 | Contact Id:    0 | X:     0 | Y:     0 | Scan Time:   2927 | Contact Count:    1 
E: 000000.105660 44 01 03 03 40 04 00 00 00 00 00 00 00 00 00 00 00 00 00 00 00 00 00 00 00 00 00 00 00 00 00 00 00 00 00 00 00 00 00 00 00 00 6f 0b 01
# ReportID: 1 / Tip Switch: 1 | Contact Id:    1 | X:    11 | Y:    69 
#             | Tip Switch: 0 | Contact Id:    0 | X:     0 | Y:     0 
#             | Tip Switch: 0 | Contact Id:    0 | X:     0 | Y:     0 
#             | Tip Switch: 0 | Contact Id:    0 | X:     0 | Y:     0 
#             | Tip Switch: 0 | Contact Id:    0 | X:     0 | Y:     0 
#             | Tip Switch: 0 | Contact Id:    0 | X:     0 | Y:     0 
#             | Tip Switch: 0 | Contact Id:    0 | X:     0 | Y:     0 
#             | Tip Switch: 0 | Contact Id:    0 | X:     0 | Y:     0 
#             | Tip Switch: 0 | Contact Id:    0 | X:     0 | Y:     0 
#             | Tip Switch: 0 | Contact Id:    0 | X:     0 | Y:     0 | Scan Time:   3005 | Contact Count:    1 
E: 000000.113567 44 01 03 0b 50 04 00 00 00 00 00 00 00 00 00 00 00 00 00 00 00 00 00 00 00 00 00 00 00 00 00 00 00 00 00 00 00 00 00 00 00 00 bd 0b 01
# ReportID: 1 / Tip Switch: 1 | Contact Id:    1 | X:    30 | Y:    72 
#             | Tip Switch: 0 | Contact Id:    0 | X:     0 | Y:     0 
#             | Tip Switch: 0 | Contact Id:    0 | X:     0 | Y:     0 
#             | Tip Switch: 0 | Contact Id:    0 | X:     0 | Y:     0 
#             | Tip Switch: 0 | Contact Id:    0 | X:     0 | Y:     0 
#             | Tip Switch: 0 | Contact Id:    0 | X:     0 | Y:     0 
#             | Tip Switch: 0 | Contact Id:    0 | X:     0 | Y:     0 
#             | Tip Switch: 0 | Contact Id:    0 | X:     0 | Y:     0 
#             | Tip Switch: 0 | Contact Id:    0 | X:     0 | Y:     0 
#             | Tip Switch: 0 | Contact Id:    0 | X:     0 | Y:     0 | Scan Time:   3082 | Contact Count:    1 
E: 000000.121328 44 01 03 1e 80 04 00 00 00 00 00 00 00 00 00 00 00 00 00 00 00 00 00 00 00 00 00 00 00 00 00 00 00 00 00 00 00 00 00 00 00 00 0a 0c 01
# ReportID: 1 / Tip Switch: 1 | Contact Id:    1 | X:    71 | Y:    78 
#             | Tip Switch: 0 | Contact Id:    0 | X:     0 | Y:     0 
#             | Tip Switch: 0 | Contact Id:    0 | X:     0 | Y:     0 
#             | Tip Switch: 0 | Contact Id:    0 | X:     0 | Y:     0 
#             | Tip Switch: 0 | Contact Id:    0 | X:     0 | Y:     0 
#             | Tip Switch: 0 | Contact Id:    0 | X:     0 | Y:     0 
#             | Tip Switch: 0 | Contact Id:    0 | X:     0 | Y:     0 
#             | Tip Switch: 0 | Contact Id:    0 | X:     0 | Y:     0 
#             | Tip Switch: 0 | Contact Id:    0 | X:     0 | Y:     0 
#             | Tip Switch: 0 | Contact Id:    0 | X:     0 | Y:     0 | Scan Time:   3172 | Contact Count:    1 
E: 000000.130432 44 01 03 47 e0 04 00 00 00 00 00 00 00 00 00 00 00 00 00 00 00 00 00 00 00 00 00 00 00 00 00 00 00 00 00 00 00 00 00 00 00 00 64 0c 01
# ReportID: 1 / Tip Switch: 1 | Contact Id:    1 | X:   104 | Y:    82 
#             | Tip Switch: 0 | Contact Id:    0 | X:     0 | Y:     0 
#             | Tip Switch: 0 | Contact Id:    0 | X:     0 | Y:     0 
#             | Tip Switch: 0 | Contact Id:    0 | X:     0 | Y:     0 
#             | Tip Switch: 0 | Contact Id:    0 | X:     0 | Y:     0 
#             | Tip Switch: 0 | Contact Id:    0 | X:     0 | Y:     0 
#             | Tip Switch: 0 | Contact Id:    0 | X:     0 | Y:     0 
#             | Tip Switch: 0 | Contact Id:    0 | X:     0 | Y:     0 
#             | Tip Switch: 0 | Contact Id:    0 | X:     0 | Y:     0 
#             | Tip Switch: 0 | Contact Id:    0 | X:     0 | Y:     0 | Scan Time:   3250 | Contact Count:    1 
E: 000000.138266 44 01 03 68 20 05 00 00 00 00 00 00 00 00 00 00 00 00 00 00 00 00 00 00 00 00 00 00 00 00 00 00 00 00 00 00 00 00 00 00 00 00 b2 0c 01
# ReportID: 1 / Tip Switch: 1 | Contact Id:    1 | X:   128 | Y:    84 
#             | Tip Switch: 0 | Contact Id:    0 | X:     0 | Y:     0 
#             | Tip Switch: 0 | Contact Id:    0 | X:     0 | Y:     0 
#             | Tip Switch: 0 | Contact Id:    0 | X:     0 | Y:     0 
#             | Tip Switch: 0 | Contact Id:    0 | X:     0 | Y:     0 
#             | Tip Switch: 0 | Contact Id:    0 | X:     0 | Y:     0 
#             | Tip Switch: 0 | Contact Id:    0 | X:     0 | Y:     0 
#             | Tip Switch: 0 | Contact Id:    0 | X:     0 | Y:     0 
#             | Tip Switch: 0 | Contact Id:    0 | X:     0 | Y:     0 
#             | Tip Switch: 0 | Contact Id:    0 | X:     0 | Y:     0 | Scan Time:   3340 | Contact Count:    1 
E: 000000.147279 44 01 03 80 40 05 00 00 00 00 00 00 00 00 00 00 00 00 00 00 00 00 00 00 00 00 00 00 00 00 00 00 00 00 00 00 00 00 00 00 00 00 0c 0d 01
# ReportID: 1 / Tip Switch: 1 | Contact Id:    1 | X:   152 | Y:    86 
#             | Tip Switch: 0 | Contact Id:    0 | X:     0 | Y:     0 
#             | Tip Switch: 0 | Contact Id:    0 | X:     0 | Y:     0 
#             | Tip Switch: 0 | Contact Id:    0 | X:     0 | Y:     0 
#             | Tip Switch: 0 | Contact Id:    0 | X:     0 | Y:     0 
#             | Tip Switch: 0 | Contact Id:    0 | X:     0 | Y:     0 
#             | Tip Switch: 0 | Contact Id:    0 | X:     0 | Y:     0 
#             | Tip Switch: 0 | Contact Id:    0 | X:     0 | Y:     0 
#             | Tip Switch: 0 | Contact Id:    0 | X:     0 | Y:     0 
#             | Tip Switch: 0 | Contact Id:    0 | X:     0 | Y:     0 | Scan Time:   3418 | Contact Count:    1 
E: 000000.155200 44 01 03 98 60 05 00 00 00 00 00 00 00 00 00 00 00 00 00 00 00 00 00 00 00 00 00 00 00 00 00 00 00 00 00 00 00 00 00 00 00 00 5a 0d 01
# ReportID: 1 / Tip Switch: 1 | Contact Id:    1 | X:   173 | Y:    87 
#             | Tip Switch: 0 | Contact Id:    0 | X:     0 | Y:     0 
#             | Tip Switch: 0 | Contact Id:    0 | X:     0 | Y:     0 
#             | Tip Switch: 0 | Contact Id:    0 | X:     0 | Y:     0 
#             | Tip Switch: 0 | Contact Id:    0 | X:     0 | Y:     0 
#             | Tip Switch: 0 | Contact Id:    0 | X:     0 | Y:     0 
#             | Tip Switch: 0 | Contact Id:    0 | X:     0 | Y:     0 
#             | Tip Switch: 0 | Contact Id:    0 | X:     0 | Y:     0 
#             | Tip Switch: 0 | Contact Id:    0 | X:     0 | Y:     0 
#             | Tip Switch: 0 | Contact Id:    0 | X:     0 | Y:     0 | Scan Time:   3495 | Contact Count:    1 
E: 000000.162956 44 01 03 ad 70 05 00 00 00 00 00 00 00 00 00 00 00 00 00 00 00 00 00 00 00 00 00 00 00 00 00 00 00 00 00 00 00 00 00 00 00 00 a7 0d 01
# ReportID: 1 / Tip Switch: 1 | Contact Id:    1 | X:   198 | Y:    86 
#             | Tip Switch: 0 | Contact Id:    0 | X:     0 | Y:     0 
#             | Tip Switch: 0 | Contact Id:    0 | X:     0 | Y:     0 
#             | Tip Switch: 0 | Contact Id:    0 | X:     0 | Y:     0 
#             | Tip Switch: 0 | Contact Id:    0 | X:     0 | Y:     0 
#             | Tip Switch: 0 | Contact Id:    0 | X:     0 | Y:     0 
#             | Tip Switch: 0 | Contact Id:    0 | X:     0 | Y:     0 
#             | Tip Switch: 0 | Contact Id:    0 | X:     0 | Y:     0 
#             | Tip Switch: 0 | Contact Id:    0 | X:     0 | Y:     0 
#             | Tip Switch: 0 | Contact Id:    0 | X:     0 | Y:     0 | Scan Time:   3585 | Contact Count:    1 
E: 000000.172080 44 01 03 c6 60 05 00 00 00 00 00 00 00 00 00 00 00 00 00 00 00 00 00 00 00 00 00 00 00 00 00 00 00 00 00 00 00 00 00 00 00 00 01 0e 01
# ReportID: 1 / Tip Switch: 1 | Contact Id:    1 | X:   220 | Y:    87 
#             | Tip Switch: 0 | Contact Id:    0 | X:     0 | Y:     0 
#             | Tip Switch: 0 | Contact Id:    0 | X:     0 | Y:     0 
#             | Tip Switch: 0 | Contact Id:    0 | X:     0 | Y:     0 
#             | Tip Switch: 0 | Contact Id:    0 | X:     0 | Y:     0 
#             | Tip Switch: 0 | Contact Id:    0 | X:     0 | Y:     0 
#             | Tip Switch: 0 | Contact Id:    0 | X:     0 | Y:     0 
#             | Tip Switch: 0 | Contact Id:    0 | X:     0 | Y:     0 
#             | Tip Switch: 0 | Contact Id:    0 | X:     0 | Y:     0 
#             | Tip Switch: 0 | Contact Id:    0 | X:     0 | Y:     0 | Scan Time:   3663 | Contact Count:    1 
E: 000000.179881 44 01 03 dc 70 05 00 00 00 00 00 00 00 00 00 00 00 00 00 00 00 00 00 00 00 00 00 00 00 00 00 00 00 00 00 00 00 00 00 00 00 00 4f 0e 01
# ReportID: 1 / Tip Switch: 1 | Contact Id:    1 | X:   242 | Y:    87 
#             | Tip Switch: 0 | Contact Id:    0 | X:     0 | Y:     0 
#             | Tip Switch: 0 | Contact Id:    0 | X:     0 | Y:     0 
#             | Tip Switch: 0 | Contact Id:    0 | X:     0 | Y:     0 
#             | Tip Switch: 0 | Contact Id:    0 | X:     0 | Y:     0 
#             | Tip Switch: 0 | Contact Id:    0 | X:     0 | Y:     0 
#             | Tip Switch: 0 | Contact Id:    0 | X:     0 | Y:     0 
#             | Tip Switch: 0 | Contact Id:    0 | X:     0 | Y:     0 
#             | Tip Switch: 0 | Contact Id:    0 | X:     0 | Y:     0 
#             | Tip Switch: 0 | Contact Id:    0 | X:     0 | Y:     0 | Scan Time:   3753 | Contact Count:    1 
E: 000000.188969 44 01 03 f2 70 05 00 00 00 00 00 00 00 00 00 00 00 00 00 00 00 00 00 00 00 00 00 00 00 00 00 00 00 00 00 00 00 00 00 00 00 00 a9 0e 01
# ReportID: 1 / Tip Switch: 1 | Contact Id:    1 | X:   270 | Y:    87 
#             | Tip Switch: 0 | Contact Id:    0 | X:     0 | Y:     0 
#             | Tip Switch: 0 | Contact Id:    0 | X:     0 | Y:     0 
#             | Tip Switch: 0 | Contact Id:    0 | X:     0 | Y:     0 
#             | Tip Switch: 0 | Contact Id:    0 | X:     0 | Y:     0 
#             | Tip Switch: 0 | Contact Id:    0 | X:     0 | Y:     0 
#             | Tip Switch: 0 | Contact Id:    0 | X:     0 | Y:     0 
#             | Tip Switch: 0 | Contact Id:    0 | X:     0 | Y:     0 
#             | Tip Switch: 0 | Contact Id:    0 | X:     0 | Y:     0 
#             | Tip Switch: 0 | Contact Id:    0 | X:     0 | Y:     0 | Scan Time:   3831 | Contact Count:    1 
E: 000000.196843 44 01 03 0e 71 05 00 00 00 00 00 00 00 00 00 00 00 00 00 00 00 00 00 00 00 00 00 00 00 00 00 00 00 00 00 00 00 00 00 00 00 00 f7 0e 01
# ReportID: 1 / Tip Switch: 1 | Contact Id:    1 | X:   298 | Y:    86 
#             | Tip Switch: 0 | Contact Id:    0 | X:     0 | Y:     0 
#             | Tip Switch: 0 | Contact Id:    0 | X:     0 | Y:     0 
#             | Tip Switch: 0 | Contact Id:    0 | X:     0 | Y:     0 
#             | Tip Switch: 0 | Contact Id:    0 | X:     0 | Y:     0 
#             | Tip Switch: 0 | Contact Id:    0 | X:     0 | Y:     0 
#             | Tip Switch: 0 | Contact Id:    0 | X:     0 | Y:     0 
#             | Tip Switch: 0 | Contact Id:    0 | X:     0 | Y:     0 
#             | Tip Switch: 0 | Contact Id:    0 | X:     0 | Y:     0 
#             | Tip Switch: 0 | Contact Id:    0 | X:     0 | Y:     0 | Scan Time:   3908 | Contact Count:    1 
E: 000000.204621 44 01 03 2a 61 05 00 00 00 00 00 00 00 00 00 00 00 00 00 00 00 00 00 00 00 00 00 00 00 00 00 00 00 00 00 00 00 00 00 00 00 00 44 0f 01
# ReportID: 1 / Tip Switch: 1 | Contact Id:    1 | X:   327 | Y:    87 
#             | Tip Switch: 0 | Contact Id:    0 | X:     0 | Y:     0 
#             | Tip Switch: 0 | Contact Id:    0 | X:     0 | Y:     0 
#             | Tip Switch: 0 | Contact Id:    0 | X:     0 | Y:     0 
#             | Tip Switch: 0 | Contact Id:    0 | X:     0 | Y:     0 
#             | Tip Switch: 0 | Contact Id:    0 | X:     0 | Y:     0 
#             | Tip Switch: 0 | Contact Id:    0 | X:     0 | Y:     0 
#             | Tip Switch: 0 | Contact Id:    0 | X:     0 | Y:     0 
#             | Tip Switch: 0 | Contact Id:    0 | X:     0 | Y:     0 
#             | Tip Switch: 0 | Contact Id:    0 | X:     0 | Y:     0 | Scan Time:   3998 | Contact Count:    1 
E: 000000.213770 44 01 03 47 71 05 00 00 00 00 00 00 00 00 00 00 00 00 00 00 00 00 00 00 00 00 00 00 00 00 00 00 00 00 00 00 00 00 00 00 00 00 9e 0f 01
# ReportID: 1 / Tip Switch: 1 | Contact Id:    1 | X:   355 | Y:    89 
#             | Tip Switch: 0 | Contact Id:    0 | X:     0 | Y:     0 
#             | Tip Switch: 0 | Contact Id:    0 | X:     0 | Y:     0 
#             | Tip Switch: 0 | Contact Id:    0 | X:     0 | Y:     0 
#             | Tip Switch: 0 | Contact Id:    0 | X:     0 | Y:     0 
#             | Tip Switch: 0 | Contact Id:    0 | X:     0 | Y:     0 
#             | Tip Switch: 0 | Contact Id:    0 | X:     0 | Y:     0 
#             | Tip Switch: 0 | Contact Id:    0 | X:     0 | Y:     0 
#             | Tip Switch: 0 | Contact Id:    0 | X:     0 | Y:     0 
#             | Tip Switch: 0 | Contact Id:    0 | X:     0 | Y:     0 | Scan Time:   4076 | Contact Count:    1 
E: 000000.221556 44 01 03 63 91 05 00 00 00 00 00 00 00 00 00 00 00 00 00 00 00 00 00 00 00 00 00 00 00 00 00 00 00 00 00 00 00 00 00 00 00 00 ec 0f 01
# ReportID: 1 / Tip Switch: 1 | Contact Id:    1 | X:   384 | Y:    90 
#             | Tip Switch: 0 | Contact Id:    0 | X:     0 | Y:     0 
#             | Tip Switch: 0 | Contact Id:    0 | X:     0 | Y:     0 
#             | Tip Switch: 0 | Contact Id:    0 | X:     0 | Y:     0 
#             | Tip Switch: 0 | Contact Id:    0 | X:     0 | Y:     0 
#             | Tip Switch: 0 | Contact Id:    0 | X:     0 | Y:     0 
#             | Tip Switch: 0 | Contact Id:    0 | X:     0 | Y:     0 
#             | Tip Switch: 0 | Contact Id:    0 | X:     0 | Y:     0 
#             | Tip Switch: 0 | Contact Id:    0 | X:     0 | Y:     0 
#             | Tip Switch: 0 | Contact Id:    0 | X:     0 | Y:     0 | Scan Time:   4166 | Contact Count:    1 
E: 000000.230606 44 01 03 80 a1 05 00 00 00 00 00 00 00 00 00 00 00 00 00 00 00 00 00 00 00 00 00 00 00 00 00 00 00 00 00 00 00 00 00 00 00 00 46 10 01
# ReportID: 1 / Tip Switch: 1 | Contact Id:    1 | X:   416 | Y:    91 
#             | Tip Switch: 0 | Contact Id:    0 | X:     0 | Y:     0 
#             | Tip Switch: 0 | Contact Id:    0 | X:     0 | Y:     0 
#             | Tip Switch: 0 | Contact Id:    0 | X:     0 | Y:     0 
#             | Tip Switch: 0 | Contact Id:    0 | X:     0 | Y:     0 
#             | Tip Switch: 0 | Contact Id:    0 | X:     0 | Y:     0 
#             | Tip Switch: 0 | Contact Id:    0 | X:     0 | Y:     0 
#             | Tip Switch: 0 | Contact Id:    0 | X:     0 | Y:     0 
#             | Tip Switch: 0 | Contact Id:    0 | X:     0 | Y:     0 
#             | Tip Switch: 0 | Contact Id:    0 | X:     0 | Y:     0 | Scan Time:   4244 | Contact Count:    1 
E: 000000.238482 44 01 03 a0 b1 05 00 00 00 00 00 00 00 00 00 00 00 00 00 00 00 00 00 00 00 00 00 00 00 00 00 00 00 00 00 00 00 00 00 00 00 00 94 10 01
# ReportID: 1 / Tip Switch: 1 | Contact Id:    1 | X:   447 | Y:    91 
#             | Tip Switch: 0 | Contact Id:    0 | X:     0 | Y:     0 
#             | Tip Switch: 0 | Contact Id:    0 | X:     0 | Y:     0 
#             | Tip Switch: 0 | Contact Id:    0 | X:     0 | Y:     0 
#             | Tip Switch: 0 | Contact Id:    0 | X:     0 | Y:     0 
#             | Tip Switch: 0 | Contact Id:    0 | X:     0 | Y:     0 
#             | Tip Switch: 0 | Contact Id:    0 | X:     0 | Y:     0 
#             | Tip Switch: 0 | Contact Id:    0 | X:     0 | Y:     0 
#             | Tip Switch: 0 | Contact Id:    0 | X:     0 | Y:     0 
#             | Tip Switch: 0 | Contact Id:    0 | X:     0 | Y:     0 | Scan Time:   4321 | Contact Count:    1 
E: 000000.246354 44 01 03 bf b1 05 00 00 00 00 00 00 00 00 00 00 00 00 00 00 00 00 00 00 00 00 00 00 00 00 00 00 00 00 00 00 00 00 00 00 00 00 e1 10 01
# ReportID: 1 / Tip Switch: 1 | Contact Id:    1 | X:   480 | Y:    92 
#             | Tip Switch: 0 | Contact Id:    0 | X:     0 | Y:     0 
#             | Tip Switch: 0 | Contact Id:    0 | X:     0 | Y:     0 
#             | Tip Switch: 0 | Contact Id:    0 | X:     0 | Y:     0 
#             | Tip Switch: 0 | Contact Id:    0 | X:     0 | Y:     0 
#             | Tip Switch: 0 | Contact Id:    0 | X:     0 | Y:     0 
#             | Tip Switch: 0 | Contact Id:    0 | X:     0 | Y:     0 
#             | Tip Switch: 0 | Contact Id:    0 | X:     0 | Y:     0 
#             | Tip Switch: 0 | Contact Id:    0 | X:     0 | Y:     0 
#             | Tip Switch: 0 | Contact Id:    0 | X:     0 | Y:     0 | Scan Time:   4411 | Contact Count:    1 
E: 000000.255490 44 01 03 e0 c1 05 00 00 00 00 00 00 00 00 00 00 00 00 00 00 00 00 00 00 00 00 00 00 00 00 00 00 00 00 00 00 00 00 00 00 00 00 3b 11 01
# ReportID: 1 / Tip Switch: 1 | Contact Id:    1 | X:   512 | Y:    94 
#             | Tip Switch: 0 | Contact Id:    0 | X:     0 | Y:     0 
#             | Tip Switch: 0 | Contact Id:    0 | X:     0 | Y:     0 
#             | Tip Switch: 0 | Contact Id:    0 | X:     0 | Y:     0 
#             | Tip Switch: 0 | Contact Id:    0 | X:     0 | Y:     0 
#             | Tip Switch: 0 | Contact Id:    0 | X:     0 | Y:     0 
#             | Tip Switch: 0 | Contact Id:    0 | X:     0 | Y:     0 
#             | Tip Switch: 0 | Contact Id:    0 | X:     0 | Y:     0 
#             | Tip Switch: 0 | Contact Id:    0 | X:     0 | Y:     0 
#             | Tip Switch: 0 | Contact Id:    0 | X:     0 | Y:     0 | Scan Time:   4489 | Contact Count:    1 
E: 000000.263193 44 01 03 00 e2 05 00 00 00 00 00 00 00 00 00 00 00 00 00 00 00 00 00 00 00 00 00 00 00 00 00 00 00 00 00 00 00 00 00 00 00 00 89 11 01
# ReportID: 1 / Tip Switch: 1 | Contact Id:    1 | X:   541 | Y:    94 
#             | Tip Switch: 0 | Contact Id:    0 | X:     0 | Y:     0 
#             | Tip Switch: 0 | Contact Id:    0 | X:     0 | Y:     0 
#             | Tip Switch: 0 | Contact Id:    0 | X:     0 | Y:     0 
#             | Tip Switch: 0 | Contact Id:    0 | X:     0 | Y:     0 
#             | Tip Switch: 0 | Contact Id:    0 | X:     0 | Y:     0 
#             | Tip Switch: 0 | Contact Id:    0 | X:     0 | Y:     0 
#             | Tip Switch: 0 | Contact Id:    0 | X:     0 | Y:     0 
#             | Tip Switch: 0 | Contact Id:    0 | X:     0 | Y:     0 
#             | Tip Switch: 0 | Contact Id:    0 | X:     0 | Y:     0 | Scan Time:   4579 | Contact Count:    1 
E: 000000.272272 44 01 03 1d e2 05 00 00 00 00 00 00 00 00 00 00 00 00 00 00 00 00 00 00 00 00 00 00 00 00 00 00 00 00 00 00 00 00 00 00 00 00 e3 11 01
# ReportID: 1 / Tip Switch: 1 | Contact Id:    1 | X:   576 | Y:    95 
#             | Tip Switch: 0 | Contact Id:    0 | X:     0 | Y:     0 
#             | Tip Switch: 0 | Contact Id:    0 | X:     0 | Y:     0 
#             | Tip Switch: 0 | Contact Id:    0 | X:     0 | Y:     0 
#             | Tip Switch: 0 | Contact Id:    0 | X:     0 | Y:     0 
#             | Tip Switch: 0 | Contact Id:    0 | X:     0 | Y:     0 
#             | Tip Switch: 0 | Contact Id:    0 | X:     0 | Y:     0 
#             | Tip Switch: 0 | Contact Id:    0 | X:     0 | Y:     0 
#             | Tip Switch: 0 | Contact Id:    0 | X:     0 | Y:     0 
#             | Tip Switch: 0 | Contact Id:    0 | X:     0 | Y:     0 | Scan Time:   4657 | Contact Count:    1 
E: 000000.280184 44 01 03 40 f2 05 00 00 00 00 00 00 00 00 00 00 00 00 00 00 00 00 00 00 00 00 00 00 00 00 00 00 00 00 00 00 00 00 00 00 00 00 31 12 01
# ReportID: 1 / Tip Switch: 1 | Contact Id:    1 | X:   610 | Y:    95 
#             | Tip Switch: 0 | Contact Id:    0 | X:     0 | Y:     0 
#             | Tip Switch: 0 | Contact Id:    0 | X:     0 | Y:     0 
#             | Tip Switch: 0 | Contact Id:    0 | X:     0 | Y:     0 
#             | Tip Switch: 0 | Contact Id:    0 | X:     0 | Y:     0 
#             | Tip Switch: 0 | Contact Id:    0 | X:     0 | Y:     0 
#             | Tip Switch: 0 | Contact Id:    0 | X:     0 | Y:     0 
#             | Tip Switch: 0 | Contact Id:    0 | X:     0 | Y:     0 
#             | Tip Switch: 0 | Contact Id:    0 | X:     0 | Y:     0 
#             | Tip Switch: 0 | Contact Id:    0 | X:     0 | Y:     0 | Scan Time:   4735 | Contact Count:    1 
E: 000000.287922 44 01 03 62 f2 05 00 00 00 00 00 00 00 00 00 00 00 00 00 00 00 00 00 00 00 00 00 00 00 00 00 00 00 00 00 00 00 00 00 00 00 00 7f 12 01
# ReportID: 1 / Tip Switch: 1 | Contact Id:    1 | X:   646 | Y:    96 
#             | Tip Switch: 0 | Contact Id:    0 | X:     0 | Y:     0 
#             | Tip Switch: 0 | Contact Id:    0 | X:     0 | Y:     0 
#             | Tip Switch: 0 | Contact Id:    0 | X:     0 | Y:     0 
#             | Tip Switch: 0 | Contact Id:    0 | X:     0 | Y:     0 
#             | Tip Switch: 0 | Contact Id:    0 | X:     0 | Y:     0 
#             | Tip Switch: 0 | Contact Id:    0 | X:     0 | Y:     0 
#             | Tip Switch: 0 | Contact Id:    0 | X:     0 | Y:     0 
#             | Tip Switch: 0 | Contact Id:    0 | X:     0 | Y:     0 
#             | Tip Switch: 0 | Contact Id:    0 | X:     0 | Y:     0 | Scan Time:   4825 | Contact Count:    1 
E: 000000.297046 44 01 03 86 02 06 00 00 00 00 00 00 00 00 00 00 00 00 00 00 00 00 00 00 00 00 00 00 00 00 00 00 00 00 00 00 00 00 00 00 00 00 d9 12 01
# ReportID: 1 / Tip Switch: 1 | Contact Id:    1 | X:   677 | Y:    97 
#             | Tip Switch: 0 | Contact Id:    0 | X:     0 | Y:     0 
#             | Tip Switch: 0 | Contact Id:    0 | X:     0 | Y:     0 
#             | Tip Switch: 0 | Contact Id:    0 | X:     0 | Y:     0 
#             | Tip Switch: 0 | Contact Id:    0 | X:     0 | Y:     0 
#             | Tip Switch: 0 | Contact Id:    0 | X:     0 | Y:     0 
#             | Tip Switch: 0 | Contact Id:    0 | X:     0 | Y:     0 
#             | Tip Switch: 0 | Contact Id:    0 | X:     0 | Y:     0 
#             | Tip Switch: 0 | Contact Id:    0 | X:     0 | Y:     0 
#             | Tip Switch: 0 | Contact Id:    0 | X:     0 | Y:     0 | Scan Time:   4903 | Contact Count:    1 
E: 000000.304820 44 01 03 a5 12 06 00 00 00 00 00 00 00 00 00 00 00 00 00 00 00 00 00 00 00 00 00 00 00 00 00 00 00 00 00 00 00 00 00 00 00 00 27 13 01
# ReportID: 1 / Tip Switch: 1 | Contact Id:    1 | X:   710 | Y:    98 
#             | Tip Switch: 0 | Contact Id:    0 | X:     0 | Y:     0 
#             | Tip Switch: 0 | Contact Id:    0 | X:     0 | Y:     0 
#             | Tip Switch: 0 | Contact Id:    0 | X:     0 | Y:     0 
#             | Tip Switch: 0 | Contact Id:    0 | X:     0 | Y:     0 
#             | Tip Switch: 0 | Contact Id:    0 | X:     0 | Y:     0 
#             | Tip Switch: 0 | Contact Id:    0 | X:     0 | Y:     0 
#             | Tip Switch: 0 | Contact Id:    0 | X:     0 | Y:     0 
#             | Tip Switch: 0 | Contact Id:    0 | X:     0 | Y:     0 
#             | Tip Switch: 0 | Contact Id:    0 | X:     0 | Y:     0 | Scan Time:   4993 | Contact Count:    1 
E: 000000.313921 44 01 03 c6 22 06 00 00 00 00 00 00 00 00 00 00 00 00 00 00 00 00 00 00 00 00 00 00 00 00 00 00 00 00 00 00 00 00 00 00 00 00 81 13 01
# ReportID: 1 / Tip Switch: 1 | Contact Id:    1 | X:   745 | Y:    99 
#             | Tip Switch: 0 | Contact Id:    0 | X:     0 | Y:     0 
#             | Tip Switch: 0 | Contact Id:    0 | X:     0 | Y:     0 
#             | Tip Switch: 0 | Contact Id:    0 | X:     0 | Y:     0 
#             | Tip Switch: 0 | Contact Id:    0 | X:     0 | Y:     0 
#             | Tip Switch: 0 | Contact Id:    0 | X:     0 | Y:     0 
#             | Tip Switch: 0 | Contact Id:    0 | X:     0 | Y:     0 
#             | Tip Switch: 0 | Contact Id:    0 | X:     0 | Y:     0 
#             | Tip Switch: 0 | Contact Id:    0 | X:     0 | Y:     0 
#             | Tip Switch: 0 | Contact Id:    0 | X:     0 | Y:     0 | Scan Time:   5071 | Contact Count:    1 
E: 000000.321776 44 01 03 e9 32 06 00 00 00 00 00 00 00 00 00 00 00 00 00 00 00 00 00 00 00 00 00 00 00 00 00 00 00 00 00 00 00 00 00 00 00 00 cf 13 01
# ReportID: 1 / Tip Switch: 1 | Contact Id:    1 | X:   778 | Y:    99 
#             | Tip Switch: 0 | Contact Id:    0 | X:     0 | Y:     0 
#             | Tip Switch: 0 | Contact Id:    0 | X:     0 | Y:     0 
#             | Tip Switch: 0 | Contact Id:    0 | X:     0 | Y:     0 
#             | Tip Switch: 0 | Contact Id:    0 | X:     0 | Y:     0 
#             | Tip Switch: 0 | Contact Id:    0 | X:     0 | Y:     0 
#             | Tip Switch: 0 | Contact Id:    0 | X:     0 | Y:     0 
#             | Tip Switch: 0 | Contact Id:    0 | X:     0 | Y:     0 
#             | Tip Switch: 0 | Contact Id:    0 | X:     0 | Y:     0 
#             | Tip Switch: 0 | Contact Id:    0 | X:     0 | Y:     0 | Scan Time:   5148 | Contact Count:    1 
E: 000000.329570 44 01 03 0a 33 06 00 00 00 00 00 00 00 00 00 00 00 00 00 00 00 00 00 00 00 00 00 00 00 00 00 00 00 00 00 00 00 00 00 00 00 00 1c 14 01
# ReportID: 1 / Tip Switch: 1 | Contact Id:    1 | X:   810 | Y:    97 
#             | Tip Switch: 0 | Contact Id:    0 | X:     0 | Y:     0 
#             | Tip Switch: 0 | Contact Id:    0 | X:     0 | Y:     0 
#             | Tip Switch: 0 | Contact Id:    0 | X:     0 | Y:     0 
#             | Tip Switch: 0 | Contact Id:    0 | X:     0 | Y:     0 
#             | Tip Switch: 0 | Contact Id:    0 | X:     0 | Y:     0 
#             | Tip Switch: 0 | Contact Id:    0 | X:     0 | Y:     0 
#             | Tip Switch: 0 | Contact Id:    0 | X:     0 | Y:     0 
#             | Tip Switch: 0 | Contact Id:    0 | X:     0 | Y:     0 
#             | Tip Switch: 0 | Contact Id:    0 | X:     0 | Y:     0 | Scan Time:   5239 | Contact Count:    1 
E: 000000.338680 44 01 03 2a 13 06 00 00 00 00 00 00 00 00 00 00 00 00 00 00 00 00 00 00 00 00 00 00 00 00 00 00 00 00 00 00 00 00 00 00 00 00 77 14 01
# ReportID: 1 / Tip Switch: 1 | Contact Id:    1 | X:   840 | Y:    96 
#             | Tip Switch: 0 | Contact Id:    0 | X:     0 | Y:     0 
#             | Tip Switch: 0 | Contact Id:    0 | X:     0 | Y:     0 
#             | Tip Switch: 0 | Contact Id:    0 | X:     0 | Y:     0 
#             | Tip Switch: 0 | Contact Id:    0 | X:     0 | Y:     0 
#             | Tip Switch: 0 | Contact Id:    0 | X:     0 | Y:     0 
#             | Tip Switch: 0 | Contact Id:    0 | X:     0 | Y:     0 
#             | Tip Switch: 0 | Contact Id:    0 | X:     0 | Y:     0 
#             | Tip Switch: 0 | Contact Id:    0 | X:     0 | Y:     0 
#             | Tip Switch: 0 | Contact Id:    0 | X:     0 | Y:     0 | Scan Time:   5317 | Contact Count:    1 
E: 000000.346486 44 01 03 48 03 06 00 00 00 00 00 00 00 00 00 00 00 00 00 00 00 00 00 00 00 00 00 00 00 00 00 00 00 00 00 00 00 00 00 00 00 00 c5 14 01
# ReportID: 1 / Tip Switch: 1 | Contact Id:    1 | X:   870 | Y:    96 
#             | Tip Switch: 0 | Contact Id:    0 | X:     0 | Y:     0 
#             | Tip Switch: 0 | Contact Id:    0 | X:     0 | Y:     0 
#             | Tip Switch: 0 | Contact Id:    0 | X:     0 | Y:     0 
#             | Tip Switch: 0 | Contact Id:    0 | X:     0 | Y:     0 
#             | Tip Switch: 0 | Contact Id:    0 | X:     0 | Y:     0 
#             | Tip Switch: 0 | Contact Id:    0 | X:     0 | Y:     0 
#             | Tip Switch: 0 | Contact Id:    0 | X:     0 | Y:     0 
#             | Tip Switch: 0 | Contact Id:    0 | X:     0 | Y:     0 
#             | Tip Switch: 0 | Contact Id:    0 | X:     0 | Y:     0 | Scan Time:   5407 | Contact Count:    1 
E: 000000.355552 44 01 03 66 03 06 00 00 00 00 00 00 00 00 00 00 00 00 00 00 00 00 00 00 00 00 00 00 00 00 00 00 00 00 00 00 00 00 00 00 00 00 1f 15 01
# ReportID: 1 / Tip Switch: 1 | Contact Id:    1 | X:   899 | Y:    95 
#             | Tip Switch: 0 | Contact Id:    0 | X:     0 | Y:     0 
#             | Tip Switch: 0 | Contact Id:    0 | X:     0 | Y:     0 
#             | Tip Switch: 0 | Contact Id:    0 | X:     0 | Y:     0 
#             | Tip Switch: 0 | Contact Id:    0 | X:     0 | Y:     0 
#             | Tip Switch: 0 | Contact Id:    0 | X:     0 | Y:     0 
#             | Tip Switch: 0 | Contact Id:    0 | X:     0 | Y:     0 
#             | Tip Switch: 0 | Contact Id:    0 | X:     0 | Y:     0 
#             | Tip Switch: 0 | Contact Id:    0 | X:     0 | Y:     0 
#             | Tip Switch: 0 | Contact Id:    0 | X:     0 | Y:     0 | Scan Time:   5485 | Contact Count:    1 
E: 000000.363438 44 01 03 83 f3 05 00 00 00 00 00 00 00 00 00 00 00 00 00 00 00 00 00 00 00 00 00 00 00 00 00 00 00 00 00 00 00 00 00 00 00 00 6d 15 01
# ReportID: 1 / Tip Switch: 1 | Contact Id:    1 | X:   927 | Y:    94 
#             | Tip Switch: 0 | Contact Id:    0 | X:     0 | Y:     0 
#             | Tip Switch: 0 | Contact Id:    0 | X:     0 | Y:     0 
#             | Tip Switch: 0 | Contact Id:    0 | X:     0 | Y:     0 
#             | Tip Switch: 0 | Contact Id:    0 | X:     0 | Y:     0 
#             | Tip Switch: 0 | Contact Id:    0 | X:     0 | Y:     0 
#             | Tip Switch: 0 | Contact Id:    0 | X:     0 | Y:     0 
#             | Tip Switch: 0 | Contact Id:    0 | X:     0 | Y:     0 
#             | Tip Switch: 0 | Contact Id:    0 | X:     0 | Y:     0 
#             | Tip Switch: 0 | Contact Id:    0 | X:     0 | Y:     0 | Scan Time:   5562 | Contact Count:    1 
E: 000000.371224 44 01 03 9f e3 05 00 00 00 00 00 00 00 00 00 00 00 00 00 00 00 00 00 00 00 00 00 00 00 00 00 00 00 00 00 00 00 00 00 00 00 00 ba 15 01
# ReportID: 1 / Tip Switch: 1 | Contact Id:    1 | X:   956 | Y:    94 
#             | Tip Switch: 0 | Contact Id:    0 | X:     0 | Y:     0 
#             | Tip Switch: 0 | Contact Id:    0 | X:     0 | Y:     0 
#             | Tip Switch: 0 | Contact Id:    0 | X:     0 | Y:     0 
#             | Tip Switch: 0 | Contact Id:    0 | X:     0 | Y:     0 
#             | Tip Switch: 0 | Contact Id:    0 | X:     0 | Y:     0 
#             | Tip Switch: 0 | Contact Id:    0 | X:     0 | Y:     0 
#             | Tip Switch: 0 | Contact Id:    0 | X:     0 | Y:     0 
#             | Tip Switch: 0 | Contact Id:    0 | X:     0 | Y:     0 
#             | Tip Switch: 0 | Contact Id:    0 | X:     0 | Y:     0 | Scan Time:   5653 | Contact Count:    1 
E: 000000.380349 44 01 03 bc e3 05 00 00 00 00 00 00 00 00 00 00 00 00 00 00 00 00 00 00 00 00 00 00 00 00 00 00 00 00 00 00 00 00 00 00 00 00 15 16 01
# ReportID: 1 / Tip Switch: 1 | Contact Id:    1 | X:   982 | Y:    93 
#             | Tip Switch: 0 | Contact Id:    0 | X:     0 | Y:     0 
#             | Tip Switch: 0 | Contact Id:    0 | X:     0 | Y:     0 
#             | Tip Switch: 0 | Contact Id:    0 | X:     0 | Y:     0 
#             | Tip Switch: 0 | Contact Id:    0 | X:     0 | Y:     0 
#             | Tip Switch: 0 | Contact Id:    0 | X:     0 | Y:     0 
#             | Tip Switch: 0 | Contact Id:    0 | X:     0 | Y:     0 
#             | Tip Switch: 0 | Contact Id:    0 | X:     0 | Y:     0 
#             | Tip Switch: 0 | Contact Id:    0 | X:     0 | Y:     0 
#             | Tip Switch: 0 | Contact Id:    0 | X:     0 | Y:     0 | Scan Time:   5731 | Contact Count:    1 
E: 000000.388156 44 01 03 d6 d3 05 00 00 00 00 00 00 00 00 00 00 00 00 00 00 00 00 00 00 00 00 00 00 00 00 00 00 00 00 00 00 00 00 00 00 00 00 63 16 01
# ReportID: 1 / Tip Switch: 1 | Contact Id:    1 | X:  1010 | Y:    92 
#             | Tip Switch: 0 | Contact Id:    0 | X:     0 | Y:     0 
#             | Tip Switch: 0 | Contact Id:    0 | X:     0 | Y:     0 
#             | Tip Switch: 0 | Contact Id:    0 | X:     0 | Y:     0 
#             | Tip Switch: 0 | Contact Id:    0 | X:     0 | Y:     0 
#             | Tip Switch: 0 | Contact Id:    0 | X:     0 | Y:     0 
#             | Tip Switch: 0 | Contact Id:    0 | X:     0 | Y:     0 
#             | Tip Switch: 0 | Contact Id:    0 | X:     0 | Y:     0 
#             | Tip Switch: 0 | Contact Id:    0 | X:     0 | Y:     0 
#             | Tip Switch: 0 | Contact Id:    0 | X:     0 | Y:     0 | Scan Time:   5821 | Contact Count:    1 
E: 000000.397195 44 01 03 f2 c3 05 00 00 00 00 00 00 00 00 00 00 00 00 00 00 00 00 00 00 00 00 00 00 00 00 00 00 00 00 00 00 00 00 00 00 00 00 bd 16 01
# ReportID: 1 / Tip Switch: 1 | Contact Id:    1 | X:  1035 | Y:    90 
#             | Tip Switch: 0 | Contact Id:    0 | X:     0 | Y:     0 
#             | Tip Switch: 0 | Contact Id:    0 | X:     0 | Y:     0 
#             | Tip Switch: 0 | Contact Id:    0 | X:     0 | Y:     0 
#             | Tip Switch: 0 | Contact Id:    0 | X:     0 | Y:     0 
#             | Tip Switch: 0 | Contact Id:    0 | X:     0 | Y:     0 
#             | Tip Switch: 0 | Contact Id:    0 | X:     0 | Y:     0 
#             | Tip Switch: 0 | Contact Id:    0 | X:     0 | Y:     0 
#             | Tip Switch: 0 | Contact Id:    0 | X:     0 | Y:     0 
#             | Tip Switch: 0 | Contact Id:    0 | X:     0 | Y:     0 | Scan Time:   5899 | Contact Count:    1 
E: 000000.405084 44 01 03 0b a4 05 00 00 00 00 00 00 00 00 00 00 00 00 00 00 00 00 00 00 00 00 00 00 00 00 00 00 00 00 00 00 00 00 00 00 00 00 0b 17 01
# ReportID: 1 / Tip Switch: 1 | Contact Id:    1 | X:  1058 | Y:    89 
#             | Tip Switch: 0 | Contact Id:    0 | X:     0 | Y:     0 
#             | Tip Switch: 0 | Contact Id:    0 | X:     0 | Y:     0 
#             | Tip Switch: 0 | Contact Id:    0 | X:     0 | Y:     0 
#             | Tip Switch: 0 | Contact Id:    0 | X:     0 | Y:     0 
#             | Tip Switch: 0 | Contact Id:    0 | X:     0 | Y:     0 
#             | Tip Switch: 0 | Contact Id:    0 | X:     0 | Y:     0 
#             | Tip Switch: 0 | Contact Id:    0 | X:     0 | Y:     0 
#             | Tip Switch: 0 | Contact Id:    0 | X:     0 | Y:     0 
#             | Tip Switch: 0 | Contact Id:    0 | X:     0 | Y:     0 | Scan Time:   5976 | Contact Count:    1 
E: 000000.412850 44 01 03 22 94 05 00 00 00 00 00 00 00 00 00 00 00 00 00 00 00 00 00 00 00 00 00 00 00 00 00 00 00 00 00 00 00 00 00 00 00 00 58 17 01
# ReportID: 1 / Tip Switch: 1 | Contact Id:    1 | X:  1083 | Y:    87 
#             | Tip Switch: 0 | Contact Id:    0 | X:     0 | Y:     0 
#             | Tip Switch: 0 | Contact Id:    0 | X:     0 | Y:     0 
#             | Tip Switch: 0 | Contact Id:    0 | X:     0 | Y:     0 
#             | Tip Switch: 0 | Contact Id:    0 | X:     0 | Y:     0 
#             | Tip Switch: 0 | Contact Id:    0 | X:     0 | Y:     0 
#             | Tip Switch: 0 | Contact Id:    0 | X:     0 | Y:     0 
#             | Tip Switch: 0 | Contact Id:    0 | X:     0 | Y:     0 
#             | Tip Switch: 0 | Contact Id:    0 | X:     0 | Y:     0 
#             | Tip Switch: 0 | Contact Id:    0 | X:     0 | Y:     0 | Scan Time:   6066 | Contact Count:    1 
E: 000000.421976 44 01 03 3b 74 05 00 00 00 00 00 00 00 00 00 00 00 00 00 00 00 00 00 00 00 00 00 00 00 00 00 00 00 00 00 00 00 00 00 00 00 00 b2 17 01
# ReportID: 1 / Tip Switch: 1 | Contact Id:    1 | X:  1106 | Y:    85 
#             | Tip Switch: 0 | Contact Id:    0 | X:     0 | Y:     0 
#             | Tip Switch: 0 | Contact Id:    0 | X:     0 | Y:     0 
#             | Tip Switch: 0 | Contact Id:    0 | X:     0 | Y:     0 
#             | Tip Switch: 0 | Contact Id:    0 | X:     0 | Y:     0 
#             | Tip Switch: 0 | Contact Id:    0 | X:     0 | Y:     0 
#             | Tip Switch: 0 | Contact Id:    0 | X:     0 | Y:     0 
#             | Tip Switch: 0 | Contact Id:    0 | X:     0 | Y:     0 
#             | Tip Switch: 0 | Contact Id:    0 | X:     0 | Y:     0 
#             | Tip Switch: 0 | Contact Id:    0 | X:     0 | Y:     0 | Scan Time:   6144 | Contact Count:    1 
E: 000000.429833 44 01 03 52 54 05 00 00 00 00 00 00 00 00 00 00 00 00 00 00 00 00 00 00 00 00 00 00 00 00 00 00 00 00 00 00 00 00 00 00 00 00 00 18 01
# ReportID: 1 / Tip Switch: 1 | Contact Id:    1 | X:  1129 | Y:    84 
#             | Tip Switch: 0 | Contact Id:    0 | X:     0 | Y:     0 
#             | Tip Switch: 0 | Contact Id:    0 | X:     0 | Y:     0 
#             | Tip Switch: 0 | Contact Id:    0 | X:     0 | Y:     0 
#             | Tip Switch: 0 | Contact Id:    0 | X:     0 | Y:     0 
#             | Tip Switch: 0 | Contact Id:    0 | X:     0 | Y:     0 
#             | Tip Switch: 0 | Contact Id:    0 | X:     0 | Y:     0 
#             | Tip Switch: 0 | Contact Id:    0 | X:     0 | Y:     0 
#             | Tip Switch: 0 | Contact Id:    0 | X:     0 | Y:     0 
#             | Tip Switch: 0 | Contact Id:    0 | X:     0 | Y:     0 | Scan Time:   6234 | Contact Count:    1 
E: 000000.438871 44 01 03 69 44 05 00 00 00 00 00 00 00 00 00 00 00 00 00 00 00 00 00 00 00 00 00 00 00 00 00 00 00 00 00 00 00 00 00 00 00 00 5a 18 01
# ReportID: 1 / Tip Switch: 1 | Contact Id:    1 | X:  1151 | Y:    82 
#             | Tip Switch: 0 | Contact Id:    0 | X:     0 | Y:     0 
#             | Tip Switch: 0 | Contact Id:    0 | X:     0 | Y:     0 
#             | Tip Switch: 0 | Contact Id:    0 | X:     0 | Y:     0 
#             | Tip Switch: 0 | Contact Id:    0 | X:     0 | Y:     0 
#             | Tip Switch: 0 | Contact Id:    0 | X:     0 | Y:     0 
#             | Tip Switch: 0 | Contact Id:    0 | X:     0 | Y:     0 
#             | Tip Switch: 0 | Contact Id:    0 | X:     0 | Y:     0 
#             | Tip Switch: 0 | Contact Id:    0 | X:     0 | Y:     0 
#             | Tip Switch: 0 | Contact Id:    0 | X:     0 | Y:     0 | Scan Time:   6312 | Contact Count:    1 
E: 000000.446730 44 01 03 7f 24 05 00 00 00 00 00 00 00 00 00 00 00 00 00 00 00 00 00 00 00 00 00 00 00 00 00 00 00 00 00 00 00 00 00 00 00 00 a8 18 01
# ReportID: 1 / Tip Switch: 1 | Contact Id:    1 | X:  1170 | Y:    81 
#             | Tip Switch: 0 | Contact Id:    0 | X:     0 | Y:     0 
#             | Tip Switch: 0 | Contact Id:    0 | X:     0 | Y:     0 
#             | Tip Switch: 0 | Contact Id:    0 | X:     0 | Y:     0 
#             | Tip Switch: 0 | Contact Id:    0 | X:     0 | Y:     0 
#             | Tip Switch: 0 | Contact Id:    0 | X:     0 | Y:     0 
#             | Tip Switch: 0 | Contact Id:    0 | X:     0 | Y:     0 
#             | Tip Switch: 0 | Contact Id:    0 | X:     0 | Y:     0 
#             | Tip Switch: 0 | Contact Id:    0 | X:     0 | Y:     0 
#             | Tip Switch: 0 | Contact Id:    0 | X:     0 | Y:     0 | Scan Time:   6389 | Contact Count:    1 
E: 000000.454495 44 01 03 92 14 05 00 00 00 00 00 00 00 00 00 00 00 00 00 00 00 00 00 00 00 00 00 00 00 00 00 00 00 00 00 00 00 00 00 00 00 00 f5 18 01
# ReportID: 1 / Tip Switch: 1 | Contact Id:    1 | X:  1191 | Y:    80 
#             | Tip Switch: 0 | Contact Id:    0 | X:     0 | Y:     0 
#             | Tip Switch: 0 | Contact Id:    0 | X:     0 | Y:     0 
#             | Tip Switch: 0 | Contact Id:    0 | X:     0 | Y:     0 
#             | Tip Switch: 0 | Contact Id:    0 | X:     0 | Y:     0 
#             | Tip Switch: 0 | Contact Id:    0 | X:     0 | Y:     0 
#             | Tip Switch: 0 | Contact Id:    0 | X:     0 | Y:     0 
#             | Tip Switch: 0 | Contact Id:    0 | X:     0 | Y:     0 
#             | Tip Switch: 0 | Contact Id:    0 | X:     0 | Y:     0 
#             | Tip Switch: 0 | Contact Id:    0 | X:     0 | Y:     0 | Scan Time:   6479 | Contact Count:    1 
E: 000000.463618 44 01 03 a7 04 05 00 00 00 00 00 00 00 00 00 00 00 00 00 00 00 00 00 00 00 00 00 00 00 00 00 00 00 00 00 00 00 00 00 00 00 00 4f 19 01
# ReportID: 1 / Tip Switch: 1 | Contact Id:    1 | X:  1210 | Y:    78 
#             | Tip Switch: 0 | Contact Id:    0 | X:     0 | Y:     0 
#             | Tip Switch: 0 | Contact Id:    0 | X:     0 | Y:     0 
#             | Tip Switch: 0 | Contact Id:    0 | X:     0 | Y:     0 
#             | Tip Switch: 0 | Contact Id:    0 | X:     0 | Y:     0 
#             | Tip Switch: 0 | Contact Id:    0 | X:     0 | Y:     0 
#             | Tip Switch: 0 | Contact Id:    0 | X:     0 | Y:     0 
#             | Tip Switch: 0 | Contact Id:    0 | X:     0 | Y:     0 
#             | Tip Switch: 0 | Contact Id:    0 | X:     0 | Y:     0 
#             | Tip Switch: 0 | Contact Id:    0 | X:     0 | Y:     0 | Scan Time:   6557 | Contact Count:    1 
E: 000000.471414 44 01 03 ba e4 04 00 00 00 00 00 00 00 00 00 00 00 00 00 00 00 00 00 00 00 00 00 00 00 00 00 00 00 00 00 00 00 00 00 00 00 00 9d 19 01
# ReportID: 1 / Tip Switch: 1 | Contact Id:    1 | X:  1228 | Y:    77 
#             | Tip Switch: 0 | Contact Id:    0 | X:     0 | Y:     0 
#             | Tip Switch: 0 | Contact Id:    0 | X:     0 | Y:     0 
#             | Tip Switch: 0 | Contact Id:    0 | X:     0 | Y:     0 
#             | Tip Switch: 0 | Contact Id:    0 | X:     0 | Y:     0 
#             | Tip Switch: 0 | Contact Id:    0 | X:     0 | Y:     0 
#             | Tip Switch: 0 | Contact Id:    0 | X:     0 | Y:     0 
#             | Tip Switch: 0 | Contact Id:    0 | X:     0 | Y:     0 
#             | Tip Switch: 0 | Contact Id:    0 | X:     0 | Y:     0 
#             | Tip Switch: 0 | Contact Id:    0 | X:     0 | Y:     0 | Scan Time:   6647 | Contact Count:    1 
E: 000000.480479 44 01 03 cc d4 04 00 00 00 00 00 00 00 00 00 00 00 00 00 00 00 00 00 00 00 00 00 00 00 00 00 00 00 00 00 00 00 00 00 00 00 00 f7 19 01
# ReportID: 1 / Tip Switch: 1 | Contact Id:    1 | X:  1247 | Y:    73 
#             | Tip Switch: 0 | Contact Id:    0 | X:     0 | Y:     0 
#             | Tip Switch: 0 | Contact Id:    0 | X:     0 | Y:     0 
#             | Tip Switch: 0 | Contact Id:    0 | X:     0 | Y:     0 
#             | Tip Switch: 0 | Contact Id:    0 | X:     0 | Y:     0 
#             | Tip Switch: 0 | Contact Id:    0 | X:     0 | Y:     0 
#             | Tip Switch: 0 | Contact Id:    0 | X:     0 | Y:     0 
#             | Tip Switch: 0 | Contact Id:    0 | X:     0 | Y:     0 
#             | Tip Switch: 0 | Contact Id:    0 | X:     0 | Y:     0 
#             | Tip Switch: 0 | Contact Id:    0 | X:     0 | Y:     0 | Scan Time:   6725 | Contact Count:    1 
E: 000000.488369 44 01 03 df 94 04 00 00 00 00 00 00 00 00 00 00 00 00 00 00 00 00 00 00 00 00 00 00 00 00 00 00 00 00 00 00 00 00 00 00 00 00 45 1a 01
# ReportID: 1 / Tip Switch: 1 | Contact Id:    1 | X:  1264 | Y:    67 
#             | Tip Switch: 0 | Contact Id:    0 | X:     0 | Y:     0 
#             | Tip Switch: 0 | Contact Id:    0 | X:     0 | Y:     0 
#             | Tip Switch: 0 | Contact Id:    0 | X:     0 | Y:     0 
#             | Tip Switch: 0 | Contact Id:    0 | X:     0 | Y:     0 
#             | Tip Switch: 0 | Contact Id:    0 | X:     0 | Y:     0 
#             | Tip Switch: 0 | Contact Id:    0 | X:     0 | Y:     0 
#             | Tip Switch: 0 | Contact Id:    0 | X:     0 | Y:     0 
#             | Tip Switch: 0 | Contact Id:    0 | X:     0 | Y:     0 
#             | Tip Switch: 0 | Contact Id:    0 | X:     0 | Y:     0 | Scan Time:   6802 | Contact Count:    1 
E: 000000.496178 44 01 03 f0 34 04 00 00 00 00 00 00 00 00 00 00 00 00 00 00 00 00 00 00 00 00 00 00 00 00 00 00 00 00 00 00 00 00 00 00 00 00 92 1a 01
# ReportID: 1 / Tip Switch: 1 | Contact Id:    1 | X:  1281 | Y:    60 
#             | Tip Switch: 0 | Contact Id:    0 | X:     0 | Y:     0 
#             | Tip Switch: 0 | Contact Id:    0 | X:     0 | Y:     0 
#             | Tip Switch: 0 | Contact Id:    0 | X:     0 | Y:     0 
#             | Tip Switch: 0 | Contact Id:    0 | X:     0 | Y:     0 
#             | Tip Switch: 0 | Contact Id:    0 | X:     0 | Y:     0 
#             | Tip Switch: 0 | Contact Id:    0 | X:     0 | Y:     0 
#             | Tip Switch: 0 | Contact Id:    0 | X:     0 | Y:     0 
#             | Tip Switch: 0 | Contact Id:    0 | X:     0 | Y:     0 
#             | Tip Switch: 0 | Contact Id:    0 | X:     0 | Y:     0 | Scan Time:   6892 | Contact Count:    1 
E: 000000.505255 44 01 03 01 c5 03 00 00 00 00 00 00 00 00 00 00 00 00 00 00 00 00 00 00 00 00 00 00 00 00 00 00 00 00 00 00 00 00 00 00 00 00 ec 1a 01
# ReportID: 1 / Tip Switch: 1 | Contact Id:    1 | X:  1297 | Y:    54 
#             | Tip Switch: 0 | Contact Id:    0 | X:     0 | Y:     0 
#             | Tip Switch: 0 | Contact Id:    0 | X:     0 | Y:     0 
#             | Tip Switch: 0 | Contact Id:    0 | X:     0 | Y:     0 
#             | Tip Switch: 0 | Contact Id:    0 | X:     0 | Y:     0 
#             | Tip Switch: 0 | Contact Id:    0 | X:     0 | Y:     0 
#             | Tip Switch: 0 | Contact Id:    0 | X:     0 | Y:     0 
#             | Tip Switch: 0 | Contact Id:    0 | X:     0 | Y:     0 
#             | Tip Switch: 0 | Contact Id:    0 | X:     0 | Y:     0 
#             | Tip Switch: 0 | Contact Id:    0 | X:     0 | Y:     0 | Scan Time:   6970 | Contact Count:    1 
E: 000000.513066 44 01 03 11 65 03 00 00 00 00 00 00 00 00 00 00 00 00 00 00 00 00 00 00 00 00 00 00 00 00 00 00 00 00 00 00 00 00 00 00 00 00 3a 1b 01
# ReportID: 1 / Tip Switch: 1 | Contact Id:    1 | X:  1311 | Y:    49 
#             | Tip Switch: 0 | Contact Id:    0 | X:     0 | Y:     0 
#             | Tip Switch: 0 | Contact Id:    0 | X:     0 | Y:     0 
#             | Tip Switch: 0 | Contact Id:    0 | X:     0 | Y:     0 
#             | Tip Switch: 0 | Contact Id:    0 | X:     0 | Y:     0 
#             | Tip Switch: 0 | Contact Id:    0 | X:     0 | Y:     0 
#             | Tip Switch: 0 | Contact Id:    0 | X:     0 | Y:     0 
#             | Tip Switch: 0 | Contact Id:    0 | X:     0 | Y:     0 
#             | Tip Switch: 0 | Contact Id:    0 | X:     0 | Y:     0 
#             | Tip Switch: 0 | Contact Id:    0 | X:     0 | Y:     0 | Scan Time:   7060 | Contact Count:    1 
E: 000000.522136 44 01 03 1f 15 03 00 00 00 00 00 00 00 00 00 00 00 00 00 00 00 00 00 00 00 00 00 00 00 00 00 00 00 00 00 00 00 00 00 00 00 00 94 1b 01
# ReportID: 1 / Tip Switch: 1 | Contact Id:    1 | X:  1324 | Y:    44 
#             | Tip Switch: 0 | Contact Id:    0 | X:     0 | Y:     0 
#             | Tip Switch: 0 | Contact Id:    0 | X:     0 | Y:     0 
#             | Tip Switch: 0 | Contact Id:    0 | X:     0 | Y:     0 
#             | Tip Switch: 0 | Contact Id:    0 | X:     0 | Y:     0 
#             | Tip Switch: 0 | Contact Id:    0 | X:     0 | Y:     0 
#             | Tip Switch: 0 | Contact Id:    0 | X:     0 | Y:     0 
#             | Tip Switch: 0 | Contact Id:    0 | X:     0 | Y:     0 
#             | Tip Switch: 0 | Contact Id:    0 | X:     0 | Y:     0 
#             | Tip Switch: 0 | Contact Id:    0 | X:     0 | Y:     0 | Scan Time:   7138 | Contact Count:    1 
E: 000000.530025 44 01 03 2c c5 02 00 00 00 00 00 00 00 00 00 00 00 00 00 00 00 00 00 00 00 00 00 00 00 00 00 00 00 00 00 00 00 00 00 00 00 00 e2 1b 01
# ReportID: 1 / Tip Switch: 1 | Contact Id:    1 | X:  1339 | Y:    40 
#             | Tip Switch: 0 | Contact Id:    0 | X:     0 | Y:     0 
#             | Tip Switch: 0 | Contact Id:    0 | X:     0 | Y:     0 
#             | Tip Switch: 0 | Contact Id:    0 | X:     0 | Y:     0 
#             | Tip Switch: 0 | Contact Id:    0 | X:     0 | Y:     0 
#             | Tip Switch: 0 | Contact Id:    0 | X:     0 | Y:     0 
#             | Tip Switch: 0 | Contact Id:    0 | X:     0 | Y:     0 
#             | Tip Switch: 0 | Contact Id:    0 | X:     0 | Y:     0 
#             | Tip Switch: 0 | Contact Id:    0 | X:     0 | Y:     0 
#             | Tip Switch: 0 | Contact Id:    0 | X:     0 | Y:     0 | Scan Time:   7215 | Contact Count:    1 
E: 000000.537797 44 01 03 3b 85 02 00 00 00 00 00 00 00 00 00 00 00 00 00 00 00 00 00 00 00 00 00 00 00 00 00 00 00 00 00 00 00 00 00 00 00 00 2f 1c 01
# ReportID: 1 / Tip Switch: 1 | Contact Id:    1 | X:  1354 | Y:    38 
#             | Tip Switch: 0 | Contact Id:    0 | X:     0 | Y:     0 
#             | Tip Switch: 0 | Contact Id:    0 | X:     0 | Y:     0 
#             | Tip Switch: 0 | Contact Id:    0 | X:     0 | Y:     0 
#             | Tip Switch: 0 | Contact Id:    0 | X:     0 | Y:     0 
#             | Tip Switch: 0 | Contact Id:    0 | X:     0 | Y:     0 
#             | Tip Switch: 0 | Contact Id:    0 | X:     0 | Y:     0 
#             | Tip Switch: 0 | Contact Id:    0 | X:     0 | Y:     0 
#             | Tip Switch: 0 | Contact Id:    0 | X:     0 | Y:     0 
#             | Tip Switch: 0 | Contact Id:    0 | X:     0 | Y:     0 | Scan Time:   7305 | Contact Count:    1 
E: 000000.546921 44 01 03 4a 65 02 00 00 00 00 00 00 00 00 00 00 00 00 00 00 00 00 00 00 00 00 00 00 00 00 00 00 00 00 00 00 00 00 00 00 00 00 89 1c 01
# ReportID: 1 / Tip Switch: 1 | Contact Id:    1 | X:  1369 | Y:    36 
#             | Tip Switch: 0 | Contact Id:    0 | X:     0 | Y:     0 
#             | Tip Switch: 0 | Contact Id:    0 | X:     0 | Y:     0 
#             | Tip Switch: 0 | Contact Id:    0 | X:     0 | Y:     0 
#             | Tip Switch: 0 | Contact Id:    0 | X:     0 | Y:     0 
#             | Tip Switch: 0 | Contact Id:    0 | X:     0 | Y:     0 
#             | Tip Switch: 0 | Contact Id:    0 | X:     0 | Y:     0 
#             | Tip Switch: 0 | Contact Id:    0 | X:     0 | Y:     0 
#             | Tip Switch: 0 | Contact Id:    0 | X:     0 | Y:     0 
#             | Tip Switch: 0 | Contact Id:    0 | X:     0 | Y:     0 | Scan Time:   7383 | Contact Count:    1 
E: 000000.554760 44 01 03 59 45 02 00 00 00 00 00 00 00 00 00 00 00 00 00 00 00 00 00 00 00 00 00 00 00 00 00 00 00 00 00 00 00 00 00 00 00 00 d7 1c 01
# ReportID: 1 / Tip Switch: 1 | Contact Id:    1 | X:  1383 | Y:    33 
#             | Tip Switch: 0 | Contact Id:    0 | X:     0 | Y:     0 
#             | Tip Switch: 0 | Contact Id:    0 | X:     0 | Y:     0 
#             | Tip Switch: 0 | Contact Id:    0 | X:     0 | Y:     0 
#             | Tip Switch: 0 | Contact Id:    0 | X:     0 | Y:     0 
#             | Tip Switch: 0 | Contact Id:    0 | X:     0 | Y:     0 
#             | Tip Switch: 0 | Contact Id:    0 | X:     0 | Y:     0 
#             | Tip Switch: 0 | Contact Id:    0 | X:     0 | Y:     0 
#             | Tip Switch: 0 | Contact Id:    0 | X:     0 | Y:     0 
#             | Tip Switch: 0 | Contact Id:    0 | X:     0 | Y:     0 | Scan Time:   7473 | Contact Count:    1 
E: 000000.563804 44 01 03 67 15 02 00 00 00 00 00 00 00 00 00 00 00 00 00 00 00 00 00 00 00 00 00 00 00 00 00 00 00 00 00 00 00 00 00 00 00 00 31 1d 01
# ReportID: 1 / Tip Switch: 1 | Contact Id:    1 | X:  1396 | Y:    30 
#             | Tip Switch: 0 | Contact Id:    0 | X:     0 | Y:     0 
#             | Tip Switch: 0 | Contact Id:    0 | X:     0 | Y:     0 
#             | Tip Switch: 0 | Contact Id:    0 | X:     0 | Y:     0 
#             | Tip Switch: 0 | Contact Id:    0 | X:     0 | Y:     0 
#             | Tip Switch: 0 | Contact Id:    0 | X:     0 | Y:     0 
#             | Tip Switch: 0 | Contact Id:    0 | X:     0 | Y:     0 
#             | Tip Switch: 0 | Contact Id:    0 | X:     0 | Y:     0 
#             | Tip Switch: 0 | Contact Id:    0 | X:     0 | Y:     0 
#             | Tip Switch: 0 | Contact Id:    0 | X:     0 | Y:     0 | Scan Time:   7551 | Contact Count:    1 
E: 000000.571684 44 01 03 74 e5 01 00 00 00 00 00 00 00 00 00 00 00 00 00 00 00 00 00 00 00 00 00 00 00 00 00 00 00 00 00 00 00 00 00 00 00 00 7f 1d 01
# ReportID: 1 / Tip Switch: 1 | Contact Id:    1 | X:  1408 | Y:    27 
#             | Tip Switch: 0 | Contact Id:    0 | X:     0 | Y:     0 
#             | Tip Switch: 0 | Contact Id:    0 | X:     0 | Y:     0 
#             | Tip Switch: 0 | Contact Id:    0 | X:     0 | Y:     0 
#             | Tip Switch: 0 | Contact Id:    0 | X:     0 | Y:     0 
#             | Tip Switch: 0 | Contact Id:    0 | X:     0 | Y:     0 
#             | Tip Switch: 0 | Contact Id:    0 | X:     0 | Y:     0 
#             | Tip Switch: 0 | Contact Id:    0 | X:     0 | Y:     0 
#             | Tip Switch: 0 | Contact Id:    0 | X:     0 | Y:     0 
#             | Tip Switch: 0 | Contact Id:    0 | X:     0 | Y:     0 | Scan Time:   7628 | Contact Count:    1 
E: 000000.579462 44 01 03 80 b5 01 00 00 00 00 00 00 00 00 00 00 00 00 00 00 00 00 00 00 00 00 00 00 00 00 00 00 00 00 00 00 00 00 00 00 00 00 cc 1d 01
# ReportID: 1 / Tip Switch: 1 | Contact Id:    1 | X:  1420 | Y:    25 
#             | Tip Switch: 0 | Contact Id:    0 | X:     0 | Y:     0 
#             | Tip Switch: 0 | Contact Id:    0 | X:     0 | Y:     0 
#             | Tip Switch: 0 | Contact Id:    0 | X:     0 | Y:     0 
#             | Tip Switch: 0 | Contact Id:    0 | X:     0 | Y:     0 
#             | Tip Switch: 0 | Contact Id:    0 | X:     0 | Y:     0 
#             | Tip Switch: 0 | Contact Id:    0 | X:     0 | Y:     0 
#             | Tip Switch: 0 | Contact Id:    0 | X:     0 | Y:     0 
#             | Tip Switch: 0 | Contact Id:    0 | X:     0 | Y:     0 
#             | Tip Switch: 0 | Contact Id:    0 | X:     0 | Y:     0 | Scan Time:   7719 | Contact Count:    1 
E: 000000.588602 44 01 03 8c 95 01 00 00 00 00 00 00 00 00 00 00 00 00 00 00 00 00 00 00 00 00 00 00 00 00 00 00 00 00 00 00 00 00 00 00 00 00 27 1e 01
# ReportID: 1 / Tip Switch: 1 | Contact Id:    1 | X:  1432 | Y:    23 
#             | Tip Switch: 0 | Contact Id:    0 | X:     0 | Y:     0 
#             | Tip Switch: 0 | Contact Id:    0 | X:     0 | Y:     0 
#             | Tip Switch: 0 | Contact Id:    0 | X:     0 | Y:     0 
#             | Tip Switch: 0 | Contact Id:    0 | X:     0 | Y:     0 
#             | Tip Switch: 0 | Contact Id:    0 | X:     0 | Y:     0 
#             | Tip Switch: 0 | Contact Id:    0 | X:     0 | Y:     0 
#             | Tip Switch: 0 | Contact Id:    0 | X:     0 | Y:     0 
#             | Tip Switch: 0 | Contact Id:    0 | X:     0 | Y:     0 
#             | Tip Switch: 0 | Contact Id:    0 | X:     0 | Y:     0 | Scan Time:   7797 | Contact Count:    1 
E: 000000.596363 44 01 03 98 75 01 00 00 00 00 00 00 00 00 00 00 00 00 00 00 00 00 00 00 00 00 00 00 00 00 00 00 00 00 00 00 00 00 00 00 00 00 75 1e 01
# ReportID: 1 / Tip Switch: 1 | Contact Id:    1 | X:  1443 | Y:    21 
#             | Tip Switch: 0 | Contact Id:    0 | X:     0 | Y:     0 
#             | Tip Switch: 0 | Contact Id:    0 | X:     0 | Y:     0 
#             | Tip Switch: 0 | Contact Id:    0 | X:     0 | Y:     0 
#             | Tip Switch: 0 | Contact Id:    0 | X:     0 | Y:     0 
#             | Tip Switch: 0 | Contact Id:    0 | X:     0 | Y:     0 
#             | Tip Switch: 0 | Contact Id:    0 | X:     0 | Y:     0 
#             | Tip Switch: 0 | Contact Id:    0 | X:     0 | Y:     0 
#             | Tip Switch: 0 | Contact Id:    0 | X:     0 | Y:     0 
#             | Tip Switch: 0 | Contact Id:    0 | X:     0 | Y:     0 | Scan Time:   7887 | Contact Count:    1 
E: 000000.605434 44 01 03 a3 55 01 00 00 00 00 00 00 00 00 00 00 00 00 00 00 00 00 00 00 00 00 00 00 00 00 00 00 00 00 00 00 00 00 00 00 00 00 cf 1e 01
# ReportID: 1 / Tip Switch: 1 | Contact Id:    1 | X:  1454 | Y:    20 
#             | Tip Switch: 0 | Contact Id:    0 | X:     0 | Y:     0 
#             | Tip Switch: 0 | Contact Id:    0 | X:     0 | Y:     0 
#             | Tip Switch: 0 | Contact Id:    0 | X:     0 | Y:     0 
#             | Tip Switch: 0 | Contact Id:    0 | X:     0 | Y:     0 
#             | Tip Switch: 0 | Contact Id:    0 | X:     0 | Y:     0 
#             | Tip Switch: 0 | Contact Id:    0 | X:     0 | Y:     0 
#             | Tip Switch: 0 | Contact Id:    0 | X:     0 | Y:     0 
#             | Tip Switch: 0 | Contact Id:    0 | X:     0 | Y:     0 
#             | Tip Switch: 0 | Contact Id:    0 | X:     0 | Y:     0 | Scan Time:   7965 | Contact Count:    1 
E: 000000.613319 44 01 03 ae 45 01 00 00 00 00 00 00 00 00 00 00 00 00 00 00 00 00 00 00 00 00 00 00 00 00 00 00 00 00 00 00 00 00 00 00 00 00 1d 1f 01
# ReportID: 1 / Tip Switch: 1 | Contact Id:    1 | X:  1465 | Y:    19 
#             | Tip Switch: 0 | Contact Id:    0 | X:     0 | Y:     0 
#             | Tip Switch: 0 | Contact Id:    0 | X:     0 | Y:     0 
#             | Tip Switch: 0 | Contact Id:    0 | X:     0 | Y:     0 
#             | Tip Switch: 0 | Contact Id:    0 | X:     0 | Y:     0 
#             | Tip Switch: 0 | Contact Id:    0 | X:     0 | Y:     0 
#             | Tip Switch: 0 | Contact Id:    0 | X:     0 | Y:     0 
#             | Tip Switch: 0 | Contact Id:    0 | X:     0 | Y:     0 
#             | Tip Switch: 0 | Contact Id:    0 | X:     0 | Y:     0 
#             | Tip Switch: 0 | Contact Id:    0 | X:     0 | Y:     0 | Scan Time:   8042 | Contact Count:    1 
E: 000000.621091 44 01 03 b9 35 01 00 00 00 00 00 00 00 00 00 00 00 00 00 00 00 00 00 00 00 00 00 00 00 00 00 00 00 00 00 00 00 00 00 00 00 00 6a 1f 01
# ReportID: 1 / Tip Switch: 1 | Contact Id:    1 | X:  1477 | Y:    18 
#             | Tip Switch: 0 | Contact Id:    0 | X:     0 | Y:     0 
#             | Tip Switch: 0 | Contact Id:    0 | X:     0 | Y:     0 
#             | Tip Switch: 0 | Contact Id:    0 | X:     0 | Y:     0 
#             | Tip Switch: 0 | Contact Id:    0 | X:     0 | Y:     0 
#             | Tip Switch: 0 | Contact Id:    0 | X:     0 | Y:     0 
#             | Tip Switch: 0 | Contact Id:    0 | X:     0 | Y:     0 
#             | Tip Switch: 0 | Contact Id:    0 | X:     0 | Y:     0 
#             | Tip Switch: 0 | Contact Id:    0 | X:     0 | Y:     0 
